{
  "_format": "hh-sol-artifact-1",
  "contractName": "MyUSD",
  "sourceName": "contracts/MyUSD.sol",
  "abi": [
    {
      "inputs": [],
      "stateMutability": "nonpayable",
      "type": "constructor"
    },
    {
      "anonymous": false,
      "inputs": [
        {
          "indexed": false,
          "internalType": "address",
          "name": "previousAdmin",
          "type": "address"
        },
        {
          "indexed": false,
          "internalType": "address",
          "name": "newAdmin",
          "type": "address"
        }
      ],
      "name": "AdminChanged",
      "type": "event"
    },
    {
      "anonymous": false,
      "inputs": [
        {
          "indexed": true,
          "internalType": "address",
          "name": "owner",
          "type": "address"
        },
        {
          "indexed": true,
          "internalType": "address",
          "name": "spender",
          "type": "address"
        },
        {
          "indexed": false,
          "internalType": "uint256",
          "name": "value",
          "type": "uint256"
        }
      ],
      "name": "Approval",
      "type": "event"
    },
    {
      "anonymous": false,
      "inputs": [
        {
          "indexed": true,
          "internalType": "address",
          "name": "beacon",
          "type": "address"
        }
      ],
      "name": "BeaconUpgraded",
      "type": "event"
    },
    {
      "anonymous": false,
      "inputs": [
        {
          "indexed": false,
          "internalType": "uint8",
          "name": "version",
          "type": "uint8"
        }
      ],
      "name": "Initialized",
      "type": "event"
    },
    {
      "anonymous": false,
      "inputs": [
        {
          "indexed": true,
          "internalType": "address",
          "name": "previousOwner",
          "type": "address"
        },
        {
          "indexed": true,
          "internalType": "address",
          "name": "newOwner",
          "type": "address"
        }
      ],
      "name": "OwnershipTransferred",
      "type": "event"
    },
    {
      "anonymous": false,
      "inputs": [
        {
          "indexed": false,
          "internalType": "address",
          "name": "account",
          "type": "address"
        }
      ],
      "name": "Paused",
      "type": "event"
    },
    {
      "anonymous": false,
      "inputs": [
        {
          "indexed": true,
          "internalType": "address",
          "name": "from",
          "type": "address"
        },
        {
          "indexed": true,
          "internalType": "address",
          "name": "to",
          "type": "address"
        },
        {
          "indexed": false,
          "internalType": "uint256",
          "name": "value",
          "type": "uint256"
        }
      ],
      "name": "Transfer",
      "type": "event"
    },
    {
      "anonymous": false,
      "inputs": [
        {
          "indexed": false,
          "internalType": "address",
          "name": "account",
          "type": "address"
        }
      ],
      "name": "Unpaused",
      "type": "event"
    },
    {
      "anonymous": false,
      "inputs": [
        {
          "indexed": true,
          "internalType": "address",
          "name": "implementation",
          "type": "address"
        }
      ],
      "name": "Upgraded",
      "type": "event"
    },
    {
      "inputs": [],
      "name": "DOMAIN_SEPARATOR",
      "outputs": [
        {
          "internalType": "bytes32",
          "name": "",
          "type": "bytes32"
        }
      ],
      "stateMutability": "view",
      "type": "function"
    },
    {
      "inputs": [
        {
          "internalType": "address",
          "name": "owner",
          "type": "address"
        },
        {
          "internalType": "address",
          "name": "spender",
          "type": "address"
        }
      ],
      "name": "allowance",
      "outputs": [
        {
          "internalType": "uint256",
          "name": "",
          "type": "uint256"
        }
      ],
      "stateMutability": "view",
      "type": "function"
    },
    {
      "inputs": [
        {
          "internalType": "address",
          "name": "spender",
          "type": "address"
        },
        {
          "internalType": "uint256",
          "name": "amount",
          "type": "uint256"
        }
      ],
      "name": "approve",
      "outputs": [
        {
          "internalType": "bool",
          "name": "",
          "type": "bool"
        }
      ],
      "stateMutability": "nonpayable",
      "type": "function"
    },
    {
      "inputs": [
        {
          "internalType": "address",
          "name": "account",
          "type": "address"
        }
      ],
      "name": "balanceOf",
      "outputs": [
        {
          "internalType": "uint256",
          "name": "",
          "type": "uint256"
        }
      ],
      "stateMutability": "view",
      "type": "function"
    },
    {
      "inputs": [
        {
          "internalType": "uint256",
          "name": "amount",
          "type": "uint256"
        }
      ],
      "name": "burn",
      "outputs": [],
      "stateMutability": "nonpayable",
      "type": "function"
    },
    {
      "inputs": [
        {
          "internalType": "address",
          "name": "account",
          "type": "address"
        },
        {
          "internalType": "uint256",
          "name": "amount",
          "type": "uint256"
        }
      ],
      "name": "burnFrom",
      "outputs": [],
      "stateMutability": "nonpayable",
      "type": "function"
    },
    {
      "inputs": [],
      "name": "decimals",
      "outputs": [
        {
          "internalType": "uint8",
          "name": "",
          "type": "uint8"
        }
      ],
      "stateMutability": "view",
      "type": "function"
    },
    {
      "inputs": [
        {
          "internalType": "address",
          "name": "spender",
          "type": "address"
        },
        {
          "internalType": "uint256",
          "name": "subtractedValue",
          "type": "uint256"
        }
      ],
      "name": "decreaseAllowance",
      "outputs": [
        {
          "internalType": "bool",
          "name": "",
          "type": "bool"
        }
      ],
      "stateMutability": "nonpayable",
      "type": "function"
    },
    {
      "inputs": [
        {
          "internalType": "address",
          "name": "token",
          "type": "address"
        },
        {
          "internalType": "uint256",
          "name": "amount",
          "type": "uint256"
        }
      ],
      "name": "flashFee",
      "outputs": [
        {
          "internalType": "uint256",
          "name": "",
          "type": "uint256"
        }
      ],
      "stateMutability": "view",
      "type": "function"
    },
    {
      "inputs": [
        {
          "internalType": "contract IERC3156FlashBorrowerUpgradeable",
          "name": "receiver",
          "type": "address"
        },
        {
          "internalType": "address",
          "name": "token",
          "type": "address"
        },
        {
          "internalType": "uint256",
          "name": "amount",
          "type": "uint256"
        },
        {
          "internalType": "bytes",
          "name": "data",
          "type": "bytes"
        }
      ],
      "name": "flashLoan",
      "outputs": [
        {
          "internalType": "bool",
          "name": "",
          "type": "bool"
        }
      ],
      "stateMutability": "nonpayable",
      "type": "function"
    },
    {
      "inputs": [
        {
          "internalType": "address",
          "name": "spender",
          "type": "address"
        },
        {
          "internalType": "uint256",
          "name": "addedValue",
          "type": "uint256"
        }
      ],
      "name": "increaseAllowance",
      "outputs": [
        {
          "internalType": "bool",
          "name": "",
          "type": "bool"
        }
      ],
      "stateMutability": "nonpayable",
      "type": "function"
    },
    {
      "inputs": [],
      "name": "initialize",
      "outputs": [],
      "stateMutability": "nonpayable",
      "type": "function"
    },
    {
      "inputs": [
        {
          "internalType": "address",
          "name": "token",
          "type": "address"
        }
      ],
      "name": "maxFlashLoan",
      "outputs": [
        {
          "internalType": "uint256",
          "name": "",
          "type": "uint256"
        }
      ],
      "stateMutability": "view",
      "type": "function"
    },
    {
      "inputs": [
        {
          "internalType": "address",
          "name": "to",
          "type": "address"
        },
        {
          "internalType": "uint256",
          "name": "amount",
          "type": "uint256"
        }
      ],
      "name": "mint",
      "outputs": [],
      "stateMutability": "nonpayable",
      "type": "function"
    },
    {
      "inputs": [],
      "name": "name",
      "outputs": [
        {
          "internalType": "string",
          "name": "",
          "type": "string"
        }
      ],
      "stateMutability": "view",
      "type": "function"
    },
    {
      "inputs": [
        {
          "internalType": "address",
          "name": "owner",
          "type": "address"
        }
      ],
      "name": "nonces",
      "outputs": [
        {
          "internalType": "uint256",
          "name": "",
          "type": "uint256"
        }
      ],
      "stateMutability": "view",
      "type": "function"
    },
    {
      "inputs": [],
      "name": "owner",
      "outputs": [
        {
          "internalType": "address",
          "name": "",
          "type": "address"
        }
      ],
      "stateMutability": "view",
      "type": "function"
    },
    {
      "inputs": [],
      "name": "pause",
      "outputs": [],
      "stateMutability": "nonpayable",
      "type": "function"
    },
    {
      "inputs": [],
      "name": "paused",
      "outputs": [
        {
          "internalType": "bool",
          "name": "",
          "type": "bool"
        }
      ],
      "stateMutability": "view",
      "type": "function"
    },
    {
      "inputs": [
        {
          "internalType": "address",
          "name": "owner",
          "type": "address"
        },
        {
          "internalType": "address",
          "name": "spender",
          "type": "address"
        },
        {
          "internalType": "uint256",
          "name": "value",
          "type": "uint256"
        },
        {
          "internalType": "uint256",
          "name": "deadline",
          "type": "uint256"
        },
        {
          "internalType": "uint8",
          "name": "v",
          "type": "uint8"
        },
        {
          "internalType": "bytes32",
          "name": "r",
          "type": "bytes32"
        },
        {
          "internalType": "bytes32",
          "name": "s",
          "type": "bytes32"
        }
      ],
      "name": "permit",
      "outputs": [],
      "stateMutability": "nonpayable",
      "type": "function"
    },
    {
      "inputs": [],
      "name": "proxiableUUID",
      "outputs": [
        {
          "internalType": "bytes32",
          "name": "",
          "type": "bytes32"
        }
      ],
      "stateMutability": "view",
      "type": "function"
    },
    {
      "inputs": [],
      "name": "renounceOwnership",
      "outputs": [],
      "stateMutability": "nonpayable",
      "type": "function"
    },
    {
      "inputs": [],
      "name": "symbol",
      "outputs": [
        {
          "internalType": "string",
          "name": "",
          "type": "string"
        }
      ],
      "stateMutability": "view",
      "type": "function"
    },
    {
      "inputs": [],
      "name": "totalSupply",
      "outputs": [
        {
          "internalType": "uint256",
          "name": "",
          "type": "uint256"
        }
      ],
      "stateMutability": "view",
      "type": "function"
    },
    {
      "inputs": [
        {
          "internalType": "address",
          "name": "to",
          "type": "address"
        },
        {
          "internalType": "uint256",
          "name": "amount",
          "type": "uint256"
        }
      ],
      "name": "transfer",
      "outputs": [
        {
          "internalType": "bool",
          "name": "",
          "type": "bool"
        }
      ],
      "stateMutability": "nonpayable",
      "type": "function"
    },
    {
      "inputs": [
        {
          "internalType": "address",
          "name": "from",
          "type": "address"
        },
        {
          "internalType": "address",
          "name": "to",
          "type": "address"
        },
        {
          "internalType": "uint256",
          "name": "amount",
          "type": "uint256"
        }
      ],
      "name": "transferFrom",
      "outputs": [
        {
          "internalType": "bool",
          "name": "",
          "type": "bool"
        }
      ],
      "stateMutability": "nonpayable",
      "type": "function"
    },
    {
      "inputs": [
        {
          "internalType": "address",
          "name": "newOwner",
          "type": "address"
        }
      ],
      "name": "transferOwnership",
      "outputs": [],
      "stateMutability": "nonpayable",
      "type": "function"
    },
    {
      "inputs": [],
      "name": "unpause",
      "outputs": [],
      "stateMutability": "nonpayable",
      "type": "function"
    },
    {
      "inputs": [
        {
          "internalType": "address",
          "name": "newImplementation",
          "type": "address"
        }
      ],
      "name": "upgradeTo",
      "outputs": [],
      "stateMutability": "nonpayable",
      "type": "function"
    },
    {
      "inputs": [
        {
          "internalType": "address",
          "name": "newImplementation",
          "type": "address"
        },
        {
          "internalType": "bytes",
          "name": "data",
          "type": "bytes"
        }
      ],
      "name": "upgradeToAndCall",
      "outputs": [],
      "stateMutability": "payable",
      "type": "function"
    }
  ],
  "bytecode": "0x60a0604052306080523480156200001557600080fd5b506200002062000026565b620000e8565b600054610100900460ff1615620000935760405162461bcd60e51b815260206004820152602760248201527f496e697469616c697a61626c653a20636f6e747261637420697320696e697469604482015266616c697a696e6760c81b606482015260840160405180910390fd5b60005460ff9081161015620000e6576000805460ff191660ff9081179091556040519081527f7f26b83ff96e1f2b6a682f133852f6798a09c465da95921460cefb38474024989060200160405180910390a15b565b60805161275a62000120600039600081816105ef01528181610638015281816107140152818161075401526107cc015261275a6000f3fe60806040526004361061016d5760003560e01c8063613255ab116100c7578063613255ab1461033457806370a0823114610354578063715018a61461038a57806379cc67901461039f5780637ecebe00146103bf5780638129fc1c146103df5780638456cb59146103f45780638da5cb5b1461040957806395d89b411461042f578063a457c2d714610444578063a9059cbb14610464578063d505accf14610484578063d9d98ce4146104a4578063dd62ed3e146104c4578063f2fde38b146104e457600080fd5b806306fdde0314610172578063095ea7b31461019d57806318160ddd146101cd57806323b872dd146101ec578063313ce5671461020c5780633644e515146102285780633659cfe61461023d578063395093511461025f5780633f4ba83a1461027f57806340c10f191461029457806342966c68146102b45780634f1ef286146102d457806352d1902d146102e75780635c975abb146102fc5780635cffe9de14610314575b600080fd5b34801561017e57600080fd5b50610187610504565b6040516101949190611f83565b60405180910390f35b3480156101a957600080fd5b506101bd6101b8366004611fcb565b610596565b6040519015158152602001610194565b3480156101d957600080fd5b506035545b604051908152602001610194565b3480156101f857600080fd5b506101bd610207366004611ff7565b6105b0565b34801561021857600080fd5b5060405160128152602001610194565b34801561023457600080fd5b506101de6105d6565b34801561024957600080fd5b5061025d610258366004612038565b6105e5565b005b34801561026b57600080fd5b506101bd61027a366004611fcb565b6106b6565b34801561028b57600080fd5b5061025d6106d8565b3480156102a057600080fd5b5061025d6102af366004611fcb565b6106ea565b3480156102c057600080fd5b5061025d6102cf366004612055565b610700565b61025d6102e2366004612084565b61070a565b3480156102f357600080fd5b506101de6107bf565b34801561030857600080fd5b5060975460ff166101bd565b34801561032057600080fd5b506101bd61032f366004612148565b61086d565b34801561034057600080fd5b506101de61034f366004612038565b610a51565b34801561036057600080fd5b506101de61036f366004612038565b6001600160a01b031660009081526033602052604090205490565b34801561039657600080fd5b5061025d610a79565b3480156103ab57600080fd5b5061025d6103ba366004611fcb565b610a8b565b3480156103cb57600080fd5b506101de6103da366004612038565b610aa0565b3480156103eb57600080fd5b5061025d610abf565b34801561040057600080fd5b5061025d610c82565b34801561041557600080fd5b5060c9546001600160a01b031660405161019491906121e7565b34801561043b57600080fd5b50610187610c92565b34801561045057600080fd5b506101bd61045f366004611fcb565b610ca1565b34801561047057600080fd5b506101bd61047f366004611fcb565b610d27565b34801561049057600080fd5b5061025d61049f3660046121fb565b610d35565b3480156104b057600080fd5b506101de6104bf366004611fcb565b610e99565b3480156104d057600080fd5b506101de6104df366004612272565b610ef8565b3480156104f057600080fd5b5061025d6104ff366004612038565b610f23565b606060368054610513906122ab565b80601f016020809104026020016040519081016040528092919081815260200182805461053f906122ab565b801561058c5780601f106105615761010080835404028352916020019161058c565b820191906000526020600020905b81548152906001019060200180831161056f57829003601f168201915b5050505050905090565b6000336105a4818585610f99565b60019150505b92915050565b6000336105be8582856110bd565b6105c9858585611137565b60019150505b9392505050565b60006105e06112db565b905090565b6001600160a01b037f00000000000000000000000000000000000000000000000000000000000000001630036106365760405162461bcd60e51b815260040161062d906122df565b60405180910390fd5b7f00000000000000000000000000000000000000000000000000000000000000006001600160a01b0316610668611356565b6001600160a01b03161461068e5760405162461bcd60e51b815260040161062d9061232b565b61069781611372565b604080516000808252602082019092526106b39183919061137a565b50565b6000336105a48185856106c98383610ef8565b6106d3919061238d565b610f99565b6106e06114ea565b6106e8611544565b565b6106f26114ea565b6106fc8282611590565b5050565b6106b3338261164b565b6001600160a01b037f00000000000000000000000000000000000000000000000000000000000000001630036107525760405162461bcd60e51b815260040161062d906122df565b7f00000000000000000000000000000000000000000000000000000000000000006001600160a01b0316610784611356565b6001600160a01b0316146107aa5760405162461bcd60e51b815260040161062d9061232b565b6107b382611372565b6106fc8282600161137a565b6000306001600160a01b037f0000000000000000000000000000000000000000000000000000000000000000161461085a5760405162461bcd60e51b815260206004820152603860248201527f555550535570677261646561626c653a206d757374206e6f742062652063616c6044820152771b1959081d1a1c9bdd59da0819195b1959d85d1958d85b1b60421b606482015260840161062d565b506000805160206126be83398151915290565b600061087885610a51565b8411156108db5760405162461bcd60e51b815260206004820152602b60248201527f4552433230466c6173684d696e743a20616d6f756e742065786365656473206d60448201526a30bc233630b9b42637b0b760a91b606482015260840161062d565b60006108e78686610e99565b90506108f38786611590565b6040516323e30c8b60e01b81527f439148f0bbc682ca079e46d6e2c2f0c1e3b820f1a291b069d8882abf8cf18dd9906001600160a01b038916906323e30c8b9061094b9033908b908b9088908c908c906004016123a0565b6020604051808303816000875af115801561096a573d6000803e3d6000fd5b505050506040513d601f19601f8201168201806040525081019061098e91906123fc565b146109e75760405162461bcd60e51b8152602060048201526024808201527f4552433230466c6173684d696e743a20696e76616c69642072657475726e2076604482015263616c756560e01b606482015260840161062d565b60006109fd88306109f8858a61238d565b6110bd565b811580610a1157506001600160a01b038116155b15610a2e57610a2988610a24848961238d565b61164b565b610a43565b610a38888761164b565b610a43888284611137565b506001979650505050505050565b60006001600160a01b0382163014610a6a5760006105aa565b6035546105aa90600019612415565b610a816114ea565b6106e86000611779565b610a968233836110bd565b6106fc828261164b565b6001600160a01b038116600090815261012f60205260408120546105aa565b600054610100900460ff1615808015610adf5750600054600160ff909116105b80610b005750610aee306117cb565b158015610b00575060005460ff166001145b610b635760405162461bcd60e51b815260206004820152602e60248201527f496e697469616c697a61626c653a20636f6e747261637420697320616c72656160448201526d191e481a5b9a5d1a585b1a5e995960921b606482015260840161062d565b6000805460ff191660011790558015610b86576000805461ff0019166101001790555b610bca60405180604001604052806005815260200164135e5554d160da1b8152506040518060400160405280600581526020016413565554d160da1b8152506117da565b610bd261180b565b610bda611832565b610be2611861565b610c0860405180604001604052806005815260200164135e5554d160da1b815250611890565b610c1061180b565b610c1861180b565b610c3a33610c286012600a61250c565b610c35906298968061251b565b611590565b80156106b3576000805461ff0019169055604051600181527f7f26b83ff96e1f2b6a682f133852f6798a09c465da95921460cefb38474024989060200160405180910390a150565b610c8a6114ea565b6106e86118da565b606060378054610513906122ab565b60003381610caf8286610ef8565b905083811015610d0f5760405162461bcd60e51b815260206004820152602560248201527f45524332303a2064656372656173656420616c6c6f77616e63652062656c6f77604482015264207a65726f60d81b606482015260840161062d565b610d1c8286868403610f99565b506001949350505050565b6000336105a4818585611137565b83421115610d855760405162461bcd60e51b815260206004820152601d60248201527f45524332305065726d69743a206578706972656420646561646c696e65000000604482015260640161062d565b60007f6e71edae12b1b97f4d1f60370fef10105fa2faae0126114a169c64845d6126c9888888610db48c611917565b6040805160208101969096526001600160a01b0394851690860152929091166060840152608083015260a082015260c0810186905260e0016040516020818303038152906040528051906020012090506000610e0f82611940565b90506000610e1f8287878761198e565b9050896001600160a01b0316816001600160a01b031614610e825760405162461bcd60e51b815260206004820152601e60248201527f45524332305065726d69743a20696e76616c6964207369676e61747572650000604482015260640161062d565b610e8d8a8a8a610f99565b50505050505050505050565b60006001600160a01b0383163014610ef15760405162461bcd60e51b815260206004820152601b60248201527a22a9219918233630b9b426b4b73a1d103bb937b733903a37b5b2b760291b604482015260640161062d565b60006105cf565b6001600160a01b03918216600090815260346020908152604080832093909416825291909152205490565b610f2b6114ea565b6001600160a01b038116610f905760405162461bcd60e51b815260206004820152602660248201527f4f776e61626c653a206e6577206f776e657220697320746865207a65726f206160448201526564647265737360d01b606482015260840161062d565b6106b381611779565b6001600160a01b038316610ffb5760405162461bcd60e51b8152602060048201526024808201527f45524332303a20617070726f76652066726f6d20746865207a65726f206164646044820152637265737360e01b606482015260840161062d565b6001600160a01b03821661105c5760405162461bcd60e51b815260206004820152602260248201527f45524332303a20617070726f766520746f20746865207a65726f206164647265604482015261737360f01b606482015260840161062d565b6001600160a01b0383811660008181526034602090815260408083209487168084529482529182902085905590518481527f8c5be1e5ebec7d5bd14f71427d1e84f3dd0314c0f7b2291e5b200ac8c7c3b925910160405180910390a3505050565b60006110c98484610ef8565b9050600019811461113157818110156111245760405162461bcd60e51b815260206004820152601d60248201527f45524332303a20696e73756666696369656e7420616c6c6f77616e6365000000604482015260640161062d565b6111318484848403610f99565b50505050565b6001600160a01b03831661119b5760405162461bcd60e51b815260206004820152602560248201527f45524332303a207472616e736665722066726f6d20746865207a65726f206164604482015264647265737360d81b606482015260840161062d565b6001600160a01b0382166111fd5760405162461bcd60e51b815260206004820152602360248201527f45524332303a207472616e7366657220746f20746865207a65726f206164647260448201526265737360e81b606482015260840161062d565b6112088383836119b6565b6001600160a01b038316600090815260336020526040902054818110156112805760405162461bcd60e51b815260206004820152602660248201527f45524332303a207472616e7366657220616d6f756e7420657863656564732062604482015265616c616e636560d01b606482015260840161062d565b6001600160a01b038085166000818152603360205260408082208686039055928616808252908390208054860190559151600080516020612705833981519152906112ce9086815260200190565b60405180910390a3611131565b60006105e07f8b73c3c69bb8fe3d512ecc4cf759cc79239f7b179b0ffacaa9a75d522b39400f61130a60fb5490565b60fc546040805160208101859052908101839052606081018290524660808201523060a082015260009060c0016040516020818303038152906040528051906020012090509392505050565b6000805160206126be833981519152546001600160a01b031690565b6106b36114ea565b7f4910fdfa16fed3260ed0e7147f7cc6da11a60208b5b9406d12a635614ffd91435460ff16156113b2576113ad836119be565b505050565b826001600160a01b03166352d1902d6040518163ffffffff1660e01b8152600401602060405180830381865afa92505050801561140c575060408051601f3d908101601f19168201909252611409918101906123fc565b60015b61146f5760405162461bcd60e51b815260206004820152602e60248201527f45524331393637557067726164653a206e657720696d706c656d656e7461746960448201526d6f6e206973206e6f74205555505360901b606482015260840161062d565b6000805160206126be83398151915281146114de5760405162461bcd60e51b815260206004820152602960248201527f45524331393637557067726164653a20756e737570706f727465642070726f786044820152681a58589b195555525160ba1b606482015260840161062d565b506113ad838383611a58565b60c9546001600160a01b031633146106e85760405162461bcd60e51b815260206004820181905260248201527f4f776e61626c653a2063616c6c6572206973206e6f7420746865206f776e6572604482015260640161062d565b61154c611a7d565b6097805460ff191690557f5db9ee0a495bf2e6ff9c91a7834c1ba4fdd244a5e8aa4e537bd38aeae4b073aa335b60405161158691906121e7565b60405180910390a1565b6001600160a01b0382166115e65760405162461bcd60e51b815260206004820152601f60248201527f45524332303a206d696e7420746f20746865207a65726f206164647265737300604482015260640161062d565b6115f2600083836119b6565b8060356000828254611604919061238d565b90915550506001600160a01b038216600081815260336020908152604080832080548601905551848152600080516020612705833981519152910160405180910390a35050565b6001600160a01b0382166116ab5760405162461bcd60e51b815260206004820152602160248201527f45524332303a206275726e2066726f6d20746865207a65726f206164647265736044820152607360f81b606482015260840161062d565b6116b7826000836119b6565b6001600160a01b0382166000908152603360205260409020548181101561172b5760405162461bcd60e51b815260206004820152602260248201527f45524332303a206275726e20616d6f756e7420657863656564732062616c616e604482015261636560f01b606482015260840161062d565b6001600160a01b0383166000818152603360209081526040808320868603905560358054879003905551858152919291600080516020612705833981519152910160405180910390a3505050565b60c980546001600160a01b038381166001600160a01b0319831681179093556040519116919082907f8be0079c531659141344cd1fd0a4f28419497f9722a3daafe3b4186f6b6457e090600090a35050565b6001600160a01b03163b151590565b600054610100900460ff166118015760405162461bcd60e51b815260040161062d90612532565b6106fc8282611ac6565b600054610100900460ff166106e85760405162461bcd60e51b815260040161062d90612532565b600054610100900460ff166118595760405162461bcd60e51b815260040161062d90612532565b6106e8611b06565b600054610100900460ff166118885760405162461bcd60e51b815260040161062d90612532565b6106e8611b39565b600054610100900460ff166118b75760405162461bcd60e51b815260040161062d90612532565b6106b381604051806040016040528060018152602001603160f81b815250611b69565b6118e2611baa565b6097805460ff191660011790557f62e78cea01bee320cd4e420270b5ea74000d11b0c9f74754ebdbfc544b05a2586115793390565b6001600160a01b038116600090815261012f602052604090208054600181018255905b50919050565b60006105aa61194d6112db565b8360405161190160f01b6020820152602281018390526042810182905260009060620160405160208183030381529060405280519060200120905092915050565b600080600061199f87878787611bf0565b915091506119ac81611caa565b5095945050505050565b6113ad611baa565b6119c7816117cb565b611a295760405162461bcd60e51b815260206004820152602d60248201527f455243313936373a206e657720696d706c656d656e746174696f6e206973206e60448201526c1bdd08184818dbdb9d1c9858dd609a1b606482015260840161062d565b6000805160206126be83398151915280546001600160a01b0319166001600160a01b0392909216919091179055565b611a6183611def565b600082511180611a6e5750805b156113ad576111318383611e2f565b60975460ff166106e85760405162461bcd60e51b815260206004820152601460248201527314185d5cd8589b194e881b9bdd081c185d5cd95960621b604482015260640161062d565b600054610100900460ff16611aed5760405162461bcd60e51b815260040161062d90612532565b6036611af983826125cb565b5060376113ad82826125cb565b600054610100900460ff16611b2d5760405162461bcd60e51b815260040161062d90612532565b6097805460ff19169055565b600054610100900460ff16611b605760405162461bcd60e51b815260040161062d90612532565b6106e833611779565b600054610100900460ff16611b905760405162461bcd60e51b815260040161062d90612532565b81516020928301208151919092012060fb9190915560fc55565b60975460ff16156106e85760405162461bcd60e51b815260206004820152601060248201526f14185d5cd8589b194e881c185d5cd95960821b604482015260640161062d565b6000806fa2a8918ca85bafe22016d0b997e4df60600160ff1b03831115611c1d5750600090506003611ca1565b6040805160008082526020820180845289905260ff881692820192909252606081018690526080810185905260019060a0016020604051602081039080840390855afa158015611c71573d6000803e3d6000fd5b5050604051601f1901519150506001600160a01b038116611c9a57600060019250925050611ca1565b9150600090505b94509492505050565b6000816004811115611cbe57611cbe61268b565b03611cc65750565b6001816004811115611cda57611cda61268b565b03611d225760405162461bcd60e51b815260206004820152601860248201527745434453413a20696e76616c6964207369676e617475726560401b604482015260640161062d565b6002816004811115611d3657611d3661268b565b03611d835760405162461bcd60e51b815260206004820152601f60248201527f45434453413a20696e76616c6964207369676e6174757265206c656e67746800604482015260640161062d565b6003816004811115611d9757611d9761268b565b036106b35760405162461bcd60e51b815260206004820152602260248201527f45434453413a20696e76616c6964207369676e6174757265202773272076616c604482015261756560f01b606482015260840161062d565b611df8816119be565b6040516001600160a01b038216907fbc7cd75a20ee27fd9adebab32041f755214dbc6bffa90cc0225b39da2e5c2d3b90600090a250565b6060611e3a836117cb565b611e955760405162461bcd60e51b815260206004820152602660248201527f416464726573733a2064656c65676174652063616c6c20746f206e6f6e2d636f6044820152651b9d1c9858dd60d21b606482015260840161062d565b600080846001600160a01b031684604051611eb091906126a1565b600060405180830381855af49150503d8060008114611eeb576040519150601f19603f3d011682016040523d82523d6000602084013e611ef0565b606091505b5091509150611f1882826040518060600160405280602781526020016126de60279139611f21565b95945050505050565b60608315611f305750816105cf565b6105cf8383815115611f455781518083602001fd5b8060405162461bcd60e51b815260040161062d9190611f83565b60005b83811015611f7a578181015183820152602001611f62565b50506000910152565b6020815260008251806020840152611fa2816040850160208701611f5f565b601f01601f19169190910160400192915050565b6001600160a01b03811681146106b357600080fd5b60008060408385031215611fde57600080fd5b8235611fe981611fb6565b946020939093013593505050565b60008060006060848603121561200c57600080fd5b833561201781611fb6565b9250602084013561202781611fb6565b929592945050506040919091013590565b60006020828403121561204a57600080fd5b81356105cf81611fb6565b60006020828403121561206757600080fd5b5035919050565b634e487b7160e01b600052604160045260246000fd5b6000806040838503121561209757600080fd5b82356120a281611fb6565b9150602083013567ffffffffffffffff808211156120bf57600080fd5b818501915085601f8301126120d357600080fd5b8135818111156120e5576120e561206e565b604051601f8201601f19908116603f0116810190838211818310171561210d5761210d61206e565b8160405282815288602084870101111561212657600080fd5b8260208601602083013760006020848301015280955050505050509250929050565b60008060008060006080868803121561216057600080fd5b853561216b81611fb6565b9450602086013561217b81611fb6565b935060408601359250606086013567ffffffffffffffff8082111561219f57600080fd5b818801915088601f8301126121b357600080fd5b8135818111156121c257600080fd5b8960208285010111156121d457600080fd5b9699959850939650602001949392505050565b6001600160a01b0391909116815260200190565b600080600080600080600060e0888a03121561221657600080fd5b873561222181611fb6565b9650602088013561223181611fb6565b95506040880135945060608801359350608088013560ff8116811461225557600080fd5b9699959850939692959460a0840135945060c09093013592915050565b6000806040838503121561228557600080fd5b823561229081611fb6565b915060208301356122a081611fb6565b809150509250929050565b600181811c908216806122bf57607f821691505b60208210810361193a57634e487b7160e01b600052602260045260246000fd5b6020808252602c908201527f46756e6374696f6e206d7573742062652063616c6c6564207468726f7567682060408201526b19195b1959d85d1958d85b1b60a21b606082015260800190565b6020808252602c908201527f46756e6374696f6e206d7573742062652063616c6c6564207468726f7567682060408201526b6163746976652070726f787960a01b606082015260800190565b634e487b7160e01b600052601160045260246000fd5b808201808211156105aa576105aa612377565b6001600160a01b03878116825286166020820152604081018590526060810184905260a06080820181905281018290526000828460c0840137600060c0848401015260c0601f19601f8501168301019050979650505050505050565b60006020828403121561240e57600080fd5b5051919050565b818103818111156105aa576105aa612377565b600181815b8085111561246357816000190482111561244957612449612377565b8085161561245657918102915b93841c939080029061242d565b509250929050565b60008261247a575060016105aa565b81612487575060006105aa565b816001811461249d57600281146124a7576124c3565b60019150506105aa565b60ff8411156124b8576124b8612377565b50506001821b6105aa565b5060208310610133831016604e8410600b84101617156124e6575081810a6105aa565b6124f08383612428565b806000190482111561250457612504612377565b029392505050565b60006105cf60ff84168361246b565b80820281158282048414176105aa576105aa612377565b6020808252602b908201527f496e697469616c697a61626c653a20636f6e7472616374206973206e6f74206960408201526a6e697469616c697a696e6760a81b606082015260800190565b601f8211156113ad57600081815260208120601f850160051c810160208610156125a45750805b601f850160051c820191505b818110156125c3578281556001016125b0565b505050505050565b815167ffffffffffffffff8111156125e5576125e561206e565b6125f9816125f384546122ab565b8461257d565b602080601f83116001811461262e57600084156126165750858301515b600019600386901b1c1916600185901b1785556125c3565b600085815260208120601f198616915b8281101561265d5788860151825594840194600190910190840161263e565b508582101561267b5787850151600019600388901b60f8161c191681555b5050505050600190811b01905550565b634e487b7160e01b600052602160045260246000fd5b600082516126b3818460208701611f5f565b919091019291505056fe360894a13ba1a3210667c828492db98dca3e2076cc3735a920a3ca505d382bbc416464726573733a206c6f772d6c6576656c2064656c65676174652063616c6c206661696c6564ddf252ad1be2c89b69c2b068fc378daa952ba7f163c4a11628f55a4df523b3efa2646970667358221220152d600389952eec10561c01610fe53a75fc30bf177c1f11e70d08b92460c10964736f6c63430008110033",
  "linkReferences": {},
  "deployedLinkReferences": {}
}