{
  "_format": "hh-sol-artifact-1",
  "contractName": "MultiCallV2",
  "sourceName": "contracts/MultiCallV2.sol",
  "abi": [
    {
      "inputs": [
        {
          "components": [
            {
              "internalType": "address",
              "name": "target",
              "type": "address"
            },
            {
              "internalType": "bytes",
              "name": "callData",
              "type": "bytes"
            }
          ],
          "internalType": "struct MultiCallV2.Call[]",
          "name": "calls",
          "type": "tuple[]"
        }
      ],
      "name": "aggregate",
      "outputs": [
        {
          "internalType": "uint256",
          "name": "blockNumber",
          "type": "uint256"
        },
        {
          "internalType": "bytes[]",
          "name": "returnData",
          "type": "bytes[]"
        }
      ],
      "stateMutability": "nonpayable",
      "type": "function"
    },
    {
      "inputs": [
        {
          "components": [
            {
              "internalType": "address",
              "name": "target",
              "type": "address"
            },
            {
              "internalType": "bytes",
              "name": "callData",
              "type": "bytes"
            }
          ],
          "internalType": "struct MultiCallV2.Call[]",
          "name": "calls",
          "type": "tuple[]"
        }
      ],
      "name": "blockAndAggregate",
      "outputs": [
        {
          "internalType": "uint256",
          "name": "blockNumber",
          "type": "uint256"
        },
        {
          "internalType": "bytes32",
          "name": "blockHash",
          "type": "bytes32"
        },
        {
          "components": [
            {
              "internalType": "bool",
              "name": "success",
              "type": "bool"
            },
            {
              "internalType": "bytes",
              "name": "returnData",
              "type": "bytes"
            }
          ],
          "internalType": "struct MultiCallV2.Result[]",
          "name": "returnData",
          "type": "tuple[]"
        }
      ],
      "stateMutability": "nonpayable",
      "type": "function"
    },
    {
      "inputs": [
        {
          "internalType": "uint256",
          "name": "blockNumber",
          "type": "uint256"
        }
      ],
      "name": "getBlockHash",
      "outputs": [
        {
          "internalType": "bytes32",
          "name": "blockHash",
          "type": "bytes32"
        }
      ],
      "stateMutability": "view",
      "type": "function"
    },
    {
      "inputs": [],
      "name": "getBlockNumber",
      "outputs": [
        {
          "internalType": "uint256",
          "name": "blockNumber",
          "type": "uint256"
        }
      ],
      "stateMutability": "view",
      "type": "function"
    },
    {
      "inputs": [],
      "name": "getCurrentBlockCoinbase",
      "outputs": [
        {
          "internalType": "address",
          "name": "coinbase",
          "type": "address"
        }
      ],
      "stateMutability": "view",
      "type": "function"
    },
    {
      "inputs": [],
      "name": "getCurrentBlockDifficulty",
      "outputs": [
        {
          "internalType": "uint256",
          "name": "difficulty",
          "type": "uint256"
        }
      ],
      "stateMutability": "view",
      "type": "function"
    },
    {
      "inputs": [],
      "name": "getCurrentBlockGasLimit",
      "outputs": [
        {
          "internalType": "uint256",
          "name": "gaslimit",
          "type": "uint256"
        }
      ],
      "stateMutability": "view",
      "type": "function"
    },
    {
      "inputs": [],
      "name": "getCurrentBlockTimestamp",
      "outputs": [
        {
          "internalType": "uint256",
          "name": "timestamp",
          "type": "uint256"
        }
      ],
      "stateMutability": "view",
      "type": "function"
    },
    {
      "inputs": [
        {
          "internalType": "address",
          "name": "addr",
          "type": "address"
        }
      ],
      "name": "getEthBalance",
      "outputs": [
        {
          "internalType": "uint256",
          "name": "balance",
          "type": "uint256"
        }
      ],
      "stateMutability": "view",
      "type": "function"
    },
    {
      "inputs": [],
      "name": "getLastBlockHash",
      "outputs": [
        {
          "internalType": "bytes32",
          "name": "blockHash",
          "type": "bytes32"
        }
      ],
      "stateMutability": "view",
      "type": "function"
    },
    {
      "inputs": [
        {
          "internalType": "bool",
          "name": "requireSuccess",
          "type": "bool"
        },
        {
          "components": [
            {
              "internalType": "address",
              "name": "target",
              "type": "address"
            },
            {
              "internalType": "bytes",
              "name": "callData",
              "type": "bytes"
            }
          ],
          "internalType": "struct MultiCallV2.Call[]",
          "name": "calls",
          "type": "tuple[]"
        }
      ],
      "name": "tryAggregate",
      "outputs": [
        {
          "components": [
            {
              "internalType": "bool",
              "name": "success",
              "type": "bool"
            },
            {
              "internalType": "bytes",
              "name": "returnData",
              "type": "bytes"
            }
          ],
          "internalType": "struct MultiCallV2.Result[]",
          "name": "returnData",
          "type": "tuple[]"
        }
      ],
      "stateMutability": "nonpayable",
      "type": "function"
    },
    {
      "inputs": [
        {
          "internalType": "bool",
          "name": "requireSuccess",
          "type": "bool"
        },
        {
          "components": [
            {
              "internalType": "address",
              "name": "target",
              "type": "address"
            },
            {
              "internalType": "bytes",
              "name": "callData",
              "type": "bytes"
            }
          ],
          "internalType": "struct MultiCallV2.Call[]",
          "name": "calls",
          "type": "tuple[]"
        }
      ],
      "name": "tryBlockAndAggregate",
      "outputs": [
        {
          "internalType": "uint256",
          "name": "blockNumber",
          "type": "uint256"
        },
        {
          "internalType": "bytes32",
          "name": "blockHash",
          "type": "bytes32"
        },
        {
          "components": [
            {
              "internalType": "bool",
              "name": "success",
              "type": "bool"
            },
            {
              "internalType": "bytes",
              "name": "returnData",
              "type": "bytes"
            }
          ],
          "internalType": "struct MultiCallV2.Result[]",
          "name": "returnData",
          "type": "tuple[]"
        }
      ],
      "stateMutability": "nonpayable",
      "type": "function"
    }
  ],
  "bytecode": "0x608060405234801561001057600080fd5b506109ad806100206000396000f3fe608060405234801561001057600080fd5b50600436106100a45760003560e01c80630f28c97d146100a9578063252dba42146100be57806327e86d6e146100df578063399542e9146100e757806342cbb15c146101095780634d2301cc1461010f57806372425d9d1461012a57806386d516e814610130578063a8b0574e14610136578063bce38bd714610144578063c3077fa914610164578063ee82ac5e14610177575b600080fd5b425b6040519081526020015b60405180910390f35b6100d16100cc3660046106d5565b610189565b6040516100b5929190610761565b6100ab610310565b6100fa6100f53660046107cb565b610323565b6040516100b593929190610887565b436100ab565b6100ab61011d3660046108af565b6001600160a01b03163190565b446100ab565b456100ab565b6040514181526020016100b5565b6101576101523660046107cb565b61033b565b6040516100b591906108d1565b6100fa6101723660046106d5565b6104f4565b6100ab6101853660046108e4565b4090565b805143906060906001600160401b038111156101a7576101a7610511565b6040519080825280602002602001820160405280156101da57816020015b60608152602001906001900390816101c55790505b50905060005b835181101561030a576000808583815181106101fe576101fe6108fd565b6020026020010151600001516001600160a01b0316868481518110610225576102256108fd565b60200260200101516020015160405161023e9190610913565b6000604051808303816000865af19150503d806000811461027b576040519150601f19603f3d011682016040523d82523d6000602084013e610280565b606091505b5091509150816102d75760405162461bcd60e51b815260206004820181905260248201527f4d756c746963616c6c206167677265676174653a2063616c6c206661696c656460448201526064015b60405180910390fd5b808484815181106102ea576102ea6108fd565b60200260200101819052505050808061030290610945565b9150506101e0565b50915091565b600061031d60014361095e565b40905090565b4380406060610332858561033b565b90509250925092565b606081516001600160401b0381111561035657610356610511565b60405190808252806020026020018201604052801561039c57816020015b6040805180820190915260008152606060208201528152602001906001900390816103745790505b50905060005b82518110156104ed576000808483815181106103c0576103c06108fd565b6020026020010151600001516001600160a01b03168584815181106103e7576103e76108fd565b6020026020010151602001516040516104009190610913565b6000604051808303816000865af19150503d806000811461043d576040519150601f19603f3d011682016040523d82523d6000602084013e610442565b606091505b509150915085156104a457816104a45760405162461bcd60e51b815260206004820152602160248201527f4d756c746963616c6c32206167677265676174653a2063616c6c206661696c656044820152601960fa1b60648201526084016102ce565b60405180604001604052808315158152602001828152508484815181106104cd576104cd6108fd565b6020026020010181905250505080806104e590610945565b9150506103a2565b5092915050565b6000806060610504600185610323565b9196909550909350915050565b634e487b7160e01b600052604160045260246000fd5b604080519081016001600160401b038111828210171561054957610549610511565b60405290565b604051601f8201601f191681016001600160401b038111828210171561057757610577610511565b604052919050565b80356001600160a01b038116811461059657600080fd5b919050565b6000601f83818401126105ad57600080fd5b823560206001600160401b03808311156105c9576105c9610511565b8260051b6105d883820161054f565b93845286810183019383810190898611156105f257600080fd5b84890192505b858310156106c8578235848111156106105760008081fd5b89016040601f19828d0381018213156106295760008081fd5b610631610527565b61063c89850161057f565b815282840135888111156106505760008081fd5b8085019450508d603f8501126106665760008081fd5b888401358881111561067a5761067a610511565b6106898a848e8401160161054f565b92508083528e848287010111156106a05760008081fd5b808486018b85013760009083018a0152808901919091528452505091840191908401906105f8565b9998505050505050505050565b6000602082840312156106e757600080fd5b81356001600160401b038111156106fd57600080fd5b6107098482850161059b565b949350505050565b60005b8381101561072c578181015183820152602001610714565b50506000910152565b6000815180845261074d816020860160208601610711565b601f01601f19169290920160200192915050565b600060408201848352602060408185015281855180845260608601915060608160051b870101935082870160005b828110156107bd57605f198887030184526107ab868351610735565b9550928401929084019060010161078f565b509398975050505050505050565b600080604083850312156107de57600080fd5b823580151581146107ee57600080fd5b915060208301356001600160401b0381111561080957600080fd5b6108158582860161059b565b9150509250929050565b6000815180845260208085019450848260051b860182860160005b8581101561087a5783830389528151805115158452850151604086850181905261086681860183610735565b9a87019a945050509084019060010161083a565b5090979650505050505050565b8381528260208201526060604082015260006108a6606083018461081f565b95945050505050565b6000602082840312156108c157600080fd5b6108ca8261057f565b9392505050565b6020815260006108ca602083018461081f565b6000602082840312156108f657600080fd5b5035919050565b634e487b7160e01b600052603260045260246000fd5b60008251610925818460208701610711565b9190910192915050565b634e487b7160e01b600052601160045260246000fd5b6000600182016109575761095761092f565b5060010190565b818103818111156109715761097161092f565b9291505056fea264697066735822122080c4795842711311c8f33a2012981787e1d380d3a4cb7fa9c42ac036373a7c3264736f6c63430008110033",
  "linkReferences": {},
  "deployedLinkReferences": {}
}