{
  "_format": "hh-sol-artifact-1",
  "contractName": "FutureSecureWalletV1Upgradeable",
  "sourceName": "contracts/FutureSecureWalletUpgradeable.sol",
  "abi": [
    {
      "anonymous": false,
      "inputs": [
        {
          "indexed": false,
          "internalType": "address",
          "name": "previousAdmin",
          "type": "address"
        },
        {
          "indexed": false,
          "internalType": "address",
          "name": "newAdmin",
          "type": "address"
        }
      ],
      "name": "AdminChanged",
      "type": "event"
    },
    {
      "anonymous": false,
      "inputs": [
        {
          "indexed": true,
          "internalType": "address",
          "name": "beacon",
          "type": "address"
        }
      ],
      "name": "BeaconUpgraded",
      "type": "event"
    },
    {
      "anonymous": false,
      "inputs": [
        {
          "indexed": true,
          "internalType": "address",
          "name": "userAddress",
          "type": "address"
        },
        {
          "indexed": true,
          "internalType": "uint256",
          "name": "value",
          "type": "uint256"
        },
        {
          "indexed": true,
          "internalType": "uint256",
          "name": "stakingID",
          "type": "uint256"
        }
      ],
      "name": "IDUnStaked",
      "type": "event"
    },
    {
      "anonymous": false,
      "inputs": [
        {
          "indexed": false,
          "internalType": "uint8",
          "name": "version",
          "type": "uint8"
        }
      ],
      "name": "Initialized",
      "type": "event"
    },
    {
      "anonymous": false,
      "inputs": [
        {
          "indexed": true,
          "internalType": "address",
          "name": "previousOwner",
          "type": "address"
        },
        {
          "indexed": true,
          "internalType": "address",
          "name": "newOwner",
          "type": "address"
        }
      ],
      "name": "OwnershipTransferred",
      "type": "event"
    },
    {
      "anonymous": false,
      "inputs": [
        {
          "indexed": false,
          "internalType": "address",
          "name": "account",
          "type": "address"
        }
      ],
      "name": "Paused",
      "type": "event"
    },
    {
      "anonymous": false,
      "inputs": [
        {
          "indexed": true,
          "internalType": "address",
          "name": "userAddress",
          "type": "address"
        },
        {
          "indexed": false,
          "internalType": "uint256",
          "name": "amount",
          "type": "uint256"
        }
      ],
      "name": "PrincipalClaimed",
      "type": "event"
    },
    {
      "anonymous": false,
      "inputs": [
        {
          "indexed": true,
          "internalType": "address",
          "name": "userAddress",
          "type": "address"
        },
        {
          "indexed": true,
          "internalType": "uint256",
          "name": "valueStaked",
          "type": "uint256"
        },
        {
          "indexed": true,
          "internalType": "uint256",
          "name": "duration",
          "type": "uint256"
        },
        {
          "indexed": false,
          "internalType": "uint256",
          "name": "stakingID",
          "type": "uint256"
        }
      ],
      "name": "Stake",
      "type": "event"
    },
    {
      "anonymous": false,
      "inputs": [
        {
          "indexed": true,
          "internalType": "address",
          "name": "userAddress",
          "type": "address"
        },
        {
          "indexed": true,
          "internalType": "uint256",
          "name": "reward",
          "type": "uint256"
        }
      ],
      "name": "StakingRewardClaimed",
      "type": "event"
    },
    {
      "anonymous": false,
      "inputs": [
        {
          "indexed": true,
          "internalType": "address",
          "name": "userAddress",
          "type": "address"
        },
        {
          "indexed": true,
          "internalType": "uint256",
          "name": "value",
          "type": "uint256"
        }
      ],
      "name": "UnStaked",
      "type": "event"
    },
    {
      "anonymous": false,
      "inputs": [
        {
          "indexed": false,
          "internalType": "address",
          "name": "account",
          "type": "address"
        }
      ],
      "name": "Unpaused",
      "type": "event"
    },
    {
      "anonymous": false,
      "inputs": [
        {
          "indexed": true,
          "internalType": "address",
          "name": "implementation",
          "type": "address"
        }
      ],
      "name": "Upgraded",
      "type": "event"
    },
    {
      "inputs": [],
      "name": "activeStakersList",
      "outputs": [
        {
          "internalType": "address[]",
          "name": "",
          "type": "address[]"
        }
      ],
      "stateMutability": "view",
      "type": "function"
    },
    {
      "inputs": [
        {
          "internalType": "uint256",
          "name": "",
          "type": "uint256"
        }
      ],
      "name": "admins",
      "outputs": [
        {
          "internalType": "address",
          "name": "",
          "type": "address"
        }
      ],
      "stateMutability": "view",
      "type": "function"
    },
    {
      "inputs": [],
      "name": "allStakersList",
      "outputs": [
        {
          "internalType": "address[]",
          "name": "",
          "type": "address[]"
        }
      ],
      "stateMutability": "view",
      "type": "function"
    },
    {
      "inputs": [],
      "name": "claimStakingReward",
      "outputs": [],
      "stateMutability": "nonpayable",
      "type": "function"
    },
    {
      "inputs": [
        {
          "internalType": "address[]",
          "name": "_userAddress",
          "type": "address[]"
        }
      ],
      "name": "disableAccounts",
      "outputs": [],
      "stateMutability": "nonpayable",
      "type": "function"
    },
    {
      "inputs": [
        {
          "internalType": "address[]",
          "name": "_userAddress",
          "type": "address[]"
        }
      ],
      "name": "enableAccounts",
      "outputs": [],
      "stateMutability": "nonpayable",
      "type": "function"
    },
    {
      "inputs": [],
      "name": "getActiveStakingIDs",
      "outputs": [
        {
          "internalType": "uint256[]",
          "name": "",
          "type": "uint256[]"
        }
      ],
      "stateMutability": "view",
      "type": "function"
    },
    {
      "inputs": [],
      "name": "getDisabledAccountsList",
      "outputs": [
        {
          "internalType": "address[]",
          "name": "",
          "type": "address[]"
        }
      ],
      "stateMutability": "view",
      "type": "function"
    },
    {
      "inputs": [],
      "name": "getStakingCappings",
      "outputs": [
        {
          "internalType": "uint256",
          "name": "stakingRewardRate",
          "type": "uint256"
        },
        {
          "internalType": "uint256",
          "name": "stakingDuration",
          "type": "uint256"
        },
        {
          "internalType": "uint256",
          "name": "stakingRewardClaimTimeLimit",
          "type": "uint256"
        }
      ],
      "stateMutability": "view",
      "type": "function"
    },
    {
      "inputs": [
        {
          "internalType": "address",
          "name": "_userAddress",
          "type": "address"
        }
      ],
      "name": "getStakingTimeEndTime",
      "outputs": [
        {
          "internalType": "uint256",
          "name": "time",
          "type": "uint256"
        }
      ],
      "stateMutability": "view",
      "type": "function"
    },
    {
      "inputs": [],
      "name": "getTotalStakingRewardDistributed",
      "outputs": [
        {
          "internalType": "uint256",
          "name": "_tokenRewards",
          "type": "uint256"
        }
      ],
      "stateMutability": "view",
      "type": "function"
    },
    {
      "inputs": [],
      "name": "getTotalValueStaked",
      "outputs": [
        {
          "internalType": "uint256",
          "name": "token",
          "type": "uint256"
        }
      ],
      "stateMutability": "view",
      "type": "function"
    },
    {
      "inputs": [
        {
          "internalType": "address",
          "name": "_userAddress",
          "type": "address"
        }
      ],
      "name": "getUserAllStakingsRewards",
      "outputs": [
        {
          "internalType": "uint256",
          "name": "",
          "type": "uint256"
        }
      ],
      "stateMutability": "view",
      "type": "function"
    },
    {
      "inputs": [
        {
          "internalType": "address",
          "name": "_userAddress",
          "type": "address"
        }
      ],
      "name": "getUserStakingIDs",
      "outputs": [
        {
          "internalType": "uint256[]",
          "name": "",
          "type": "uint256[]"
        }
      ],
      "stateMutability": "view",
      "type": "function"
    },
    {
      "inputs": [
        {
          "internalType": "address",
          "name": "_userAddress",
          "type": "address"
        }
      ],
      "name": "getUserTotalRewardClaimedToken",
      "outputs": [
        {
          "internalType": "uint256",
          "name": "",
          "type": "uint256"
        }
      ],
      "stateMutability": "view",
      "type": "function"
    },
    {
      "inputs": [
        {
          "internalType": "address",
          "name": "_userAddress",
          "type": "address"
        }
      ],
      "name": "getUserTotalValueStaked",
      "outputs": [
        {
          "internalType": "uint256",
          "name": "token",
          "type": "uint256"
        }
      ],
      "stateMutability": "view",
      "type": "function"
    },
    {
      "inputs": [
        {
          "internalType": "address",
          "name": "_userAddress",
          "type": "address"
        }
      ],
      "name": "getUserUnStakeValue",
      "outputs": [
        {
          "internalType": "uint256",
          "name": "",
          "type": "uint256"
        }
      ],
      "stateMutability": "view",
      "type": "function"
    },
    {
      "inputs": [],
      "name": "initialize",
      "outputs": [],
      "stateMutability": "nonpayable",
      "type": "function"
    },
    {
      "inputs": [
        {
          "internalType": "address",
          "name": "_userAddress",
          "type": "address"
        }
      ],
      "name": "isAccountDisabled",
      "outputs": [
        {
          "internalType": "bool",
          "name": "",
          "type": "bool"
        }
      ],
      "stateMutability": "view",
      "type": "function"
    },
    {
      "inputs": [
        {
          "internalType": "address",
          "name": "_userAddress",
          "type": "address"
        }
      ],
      "name": "isStaked",
      "outputs": [
        {
          "internalType": "bool",
          "name": "",
          "type": "bool"
        }
      ],
      "stateMutability": "view",
      "type": "function"
    },
    {
      "inputs": [],
      "name": "owner",
      "outputs": [
        {
          "internalType": "address",
          "name": "",
          "type": "address"
        }
      ],
      "stateMutability": "view",
      "type": "function"
    },
    {
      "inputs": [],
      "name": "pause",
      "outputs": [],
      "stateMutability": "nonpayable",
      "type": "function"
    },
    {
      "inputs": [],
      "name": "paused",
      "outputs": [
        {
          "internalType": "bool",
          "name": "",
          "type": "bool"
        }
      ],
      "stateMutability": "view",
      "type": "function"
    },
    {
      "inputs": [],
      "name": "proxiableUUID",
      "outputs": [
        {
          "internalType": "bytes32",
          "name": "",
          "type": "bytes32"
        }
      ],
      "stateMutability": "view",
      "type": "function"
    },
    {
      "inputs": [],
      "name": "renounceOwnership",
      "outputs": [],
      "stateMutability": "nonpayable",
      "type": "function"
    },
    {
      "inputs": [
        {
          "internalType": "uint256",
          "name": "_valueInDays",
          "type": "uint256"
        }
      ],
      "name": "setStakingDuration",
      "outputs": [],
      "stateMutability": "nonpayable",
      "type": "function"
    },
    {
      "inputs": [
        {
          "internalType": "uint256",
          "name": "_valueInDays",
          "type": "uint256"
        }
      ],
      "name": "setStakingRewardClaimTimeLimity",
      "outputs": [],
      "stateMutability": "nonpayable",
      "type": "function"
    },
    {
      "inputs": [
        {
          "internalType": "uint16",
          "name": "_valueInPer",
          "type": "uint16"
        }
      ],
      "name": "setStakingRewardRate",
      "outputs": [],
      "stateMutability": "nonpayable",
      "type": "function"
    },
    {
      "inputs": [
        {
          "internalType": "address",
          "name": "_userAddress",
          "type": "address"
        },
        {
          "internalType": "uint256",
          "name": "_value",
          "type": "uint256"
        }
      ],
      "name": "stakeByAdmin",
      "outputs": [],
      "stateMutability": "nonpayable",
      "type": "function"
    },
    {
      "inputs": [
        {
          "internalType": "uint256",
          "name": "_stakingID",
          "type": "uint256"
        }
      ],
      "name": "stakeInfoMap",
      "outputs": [
        {
          "components": [
            {
              "internalType": "bool",
              "name": "isStaked",
              "type": "bool"
            },
            {
              "internalType": "uint32",
              "name": "id",
              "type": "uint32"
            },
            {
              "internalType": "address",
              "name": "owner",
              "type": "address"
            },
            {
              "internalType": "uint256",
              "name": "value",
              "type": "uint256"
            },
            {
              "internalType": "uint16",
              "name": "rewardRate",
              "type": "uint16"
            },
            {
              "internalType": "uint256",
              "name": "startTime",
              "type": "uint256"
            },
            {
              "internalType": "uint256",
              "name": "duration",
              "type": "uint256"
            }
          ],
          "internalType": "struct FutureSecureWalletV1Upgradeable.StakeInfo",
          "name": "",
          "type": "tuple"
        }
      ],
      "stateMutability": "view",
      "type": "function"
    },
    {
      "inputs": [
        {
          "internalType": "address",
          "name": "newOwner",
          "type": "address"
        }
      ],
      "name": "transferOwnership",
      "outputs": [],
      "stateMutability": "nonpayable",
      "type": "function"
    },
    {
      "inputs": [],
      "name": "unStake",
      "outputs": [],
      "stateMutability": "nonpayable",
      "type": "function"
    },
    {
      "inputs": [],
      "name": "unpause",
      "outputs": [],
      "stateMutability": "nonpayable",
      "type": "function"
    },
    {
      "inputs": [
        {
          "internalType": "address",
          "name": "newImplementation",
          "type": "address"
        }
      ],
      "name": "upgradeTo",
      "outputs": [],
      "stateMutability": "nonpayable",
      "type": "function"
    },
    {
      "inputs": [
        {
          "internalType": "address",
          "name": "newImplementation",
          "type": "address"
        },
        {
          "internalType": "bytes",
          "name": "data",
          "type": "bytes"
        }
      ],
      "name": "upgradeToAndCall",
      "outputs": [],
      "stateMutability": "payable",
      "type": "function"
    },
    {
      "inputs": [
        {
          "internalType": "address",
          "name": "_userAddress",
          "type": "address"
        }
      ],
      "name": "userAccountMap",
      "outputs": [
        {
          "components": [
            {
              "internalType": "uint256[]",
              "name": "stakingIDs",
              "type": "uint256[]"
            },
            {
              "internalType": "bool",
              "name": "isDisabled",
              "type": "bool"
            },
            {
              "internalType": "uint256",
              "name": "rewardClaimedTimestamp",
              "type": "uint256"
            },
            {
              "internalType": "uint256",
              "name": "rewardClaimed",
              "type": "uint256"
            }
          ],
          "internalType": "struct FutureSecureWalletV1Upgradeable.Account",
          "name": "",
          "type": "tuple"
        }
      ],
      "stateMutability": "view",
      "type": "function"
    },
    {
      "inputs": [
        {
          "internalType": "address",
          "name": "_receiver",
          "type": "address"
        },
        {
          "internalType": "uint256",
          "name": "_value",
          "type": "uint256"
        }
      ],
      "name": "withdrawNativeFunds",
      "outputs": [
        {
          "internalType": "bool",
          "name": "",
          "type": "bool"
        }
      ],
      "stateMutability": "nonpayable",
      "type": "function"
    },
    {
      "inputs": [
        {
          "internalType": "address",
          "name": "_tokenAddress",
          "type": "address"
        },
        {
          "internalType": "address",
          "name": "_receiver",
          "type": "address"
        },
        {
          "internalType": "uint256",
          "name": "_value",
          "type": "uint256"
        }
      ],
      "name": "withdrawTokens",
      "outputs": [
        {
          "internalType": "bool",
          "name": "",
          "type": "bool"
        }
      ],
      "stateMutability": "nonpayable",
      "type": "function"
    },
    {
      "stateMutability": "payable",
      "type": "receive"
    }
  ],
  "bytecode": "0x60a06040523060805234801561001457600080fd5b50608051612f6761004c60003960008181610b4101528181610b8a01528181610d4d01528181610d8d0152610e200152612f676000f3fe6080604052600436106102295760003560e01c80636f51b20b11610123578063a40b5891116100ab578063dba4358c1161006f578063dba4358c1461077c578063deede65414610791578063e3a51f58146107a6578063f2fde38b146107de578063f807438f146107fe57600080fd5b8063a40b5891146105ac578063a7566b75146105e9578063afc695ce14610725578063ba4f678e1461073a578063c06a53881461076757600080fd5b80637ce574bf116100f25780637ce574bf1461052f5780638129fc1c146105445780638456cb59146105595780638da5cb5b1461056e5780639c3fe28a1461058c57600080fd5b80636f51b20b146104c35780636f72693b146104f0578063715018a61461050557806373cf575a1461051a57600080fd5b806352d1902d116101b15780635f869714116101755780635f869714146104095780636177fd181461042957806366e5e570146104495780636a50eefa146104835780636a8ca691146104a357600080fd5b806352d1902d1461037c57806353bdadea146103915780635c975abb146103b15780635cbfd021146103c95780635e35359e146103e957600080fd5b80632955f37d116101f85780632955f37d146102f25780633659cfe6146103125780633b09098f146103345780633f4ba83a146103545780634f1ef2861461036957600080fd5b806314bfd6d014610235578063260cb4e91461027257806326792aca1461029457806326ed1af0146102c457600080fd5b3661023057005b600080fd5b34801561024157600080fd5b5061025561025036600461296b565b61081e565b6040516001600160a01b0390911681526020015b60405180910390f35b34801561027e57600080fd5b50610287610849565b6040516102699190612984565b3480156102a057600080fd5b506102b46102af3660046129e1565b6109c5565b6040519015158152602001610269565b3480156102d057600080fd5b506102e46102df366004612a0b565b610a11565b604051908152602001610269565b3480156102fe57600080fd5b506102e461030d366004612a0b565b610a1c565b34801561031e57600080fd5b5061033261032d366004612a0b565b610b37565b005b34801561034057600080fd5b5061033261034f366004612a26565b610c1f565b34801561036057600080fd5b50610332610d31565b610332610377366004612ab1565b610d43565b34801561038857600080fd5b506102e4610e13565b34801561039d57600080fd5b506103326103ac366004612a26565b610ec6565b3480156103bd57600080fd5b5060335460ff166102b4565b3480156103d557600080fd5b506103326103e436600461296b565b610fcc565b3480156103f557600080fd5b506102b4610404366004612b73565b611068565b34801561041557600080fd5b506102e4610424366004612a0b565b6110f2565b34801561043557600080fd5b506102b4610444366004612a0b565b6111d0565b34801561045557600080fd5b506102e4610464366004612a0b565b6001600160a01b03166000908152610103602052604090206003015490565b34801561048f57600080fd5b5061033261049e3660046129e1565b611257565b3480156104af57600080fd5b506103326104be36600461296b565b6112f8565b3480156104cf57600080fd5b506104e36104de366004612a0b565b611394565b6040516102699190612bea565b3480156104fc57600080fd5b506104e3611401565b34801561051157600080fd5b506103326114b6565b34801561052657600080fd5b506103326114c8565b34801561053b57600080fd5b5060fe546102e4565b34801561055057600080fd5b506103326115d3565b34801561056557600080fd5b50610332611738565b34801561057a57600080fd5b506065546001600160a01b0316610255565b34801561059857600080fd5b506102e46105a7366004612a0b565b611748565b3480156105b857600080fd5b506102b46105c7366004612a0b565b6001600160a01b03166000908152610103602052604090206001015460ff1690565b3480156105f557600080fd5b506106bf61060436600461296b565b6040805160e081018252600080825260208201819052918101829052606081018290526080810182905260a0810182905260c08101919091525060009081526101046020908152604091829020825160e081018452815460ff811615158252610100810463ffffffff1693820193909352650100000000009092046001600160a01b03169282019290925260018201546060820152600282015461ffff166080820152600382015460a082015260049091015460c082015290565b604051610269919081511515815260208083015163ffffffff16908201526040808301516001600160a01b0316908201526060808301519082015260808083015161ffff169082015260a0808301519082015260c0918201519181019190915260e00190565b34801561073157600080fd5b5061033261176a565b34801561074657600080fd5b5061075a610755366004612a0b565b611912565b6040516102699190612bfd565b34801561077357600080fd5b506102876119dd565b34801561078857600080fd5b50610287611b31565b34801561079d57600080fd5b5060fd546102e4565b3480156107b257600080fd5b5060ff5461010054610101546040805161ffff9094168452602084019290925290820152606001610269565b3480156107ea57600080fd5b506103326107f9366004612a0b565b611c95565b34801561080a57600080fd5b50610332610819366004612c45565b611d0b565b610102818154811061082f57600080fd5b6000918252602090912001546001600160a01b0316905081565b6000808052610103602090815260fc80546040805182850281018501909152818152606094937ff167d7e9ac6011f0b837eaede5176b30419264c8a43ec5db1d59bf93c98c1f7f93859390918301828280156108ce57602002820191906000526020600020905b81546001600160a01b031681526001909101906020018083116108b0575b5050505050905060008151905060008167ffffffffffffffff8111156108f6576108f6612a9b565b60405190808252806020026020018201604052801561091f578160200160208202803683370190505b5090506000805b838110156109b95784818151811061094057610940612c69565b602002602001015196506109548388611dab565b15156001146109a75760018087015460ff16151590036109a7578683838151811061098157610981612c69565b6001600160a01b0390921660209283029190910190910152816109a381612c95565b9250505b806109b181612c95565b915050610926565b50909695505050505050565b60006109cf611e10565b6040516001600160a01b0384169083156108fc029084906000818181858888f19350505050158015610a05573d6000803e3d6000fd5b50600190505b92915050565b6000610a0b82611e6a565b6001600160a01b0381166000908152610103602090815260408083208151815460a0948102820185019093526080810183815242948694929392849291849190840182828015610a8b57602002820191906000526020600020905b815481526020019060010190808311610a77575b505050918352505060018281015460ff1615156020830152600283015460408301526003909201546060909101528151805192935060009261010492849291610ad49190612cae565b81518110610ae457610ae4612c69565b602002602001015181526020019081526020016000209050600081600401548260030154610b129190612cc1565b83515190915015801590610b2557508084105b15610b2e578094505b50505050919050565b6001600160a01b037f0000000000000000000000000000000000000000000000000000000000000000163003610b885760405162461bcd60e51b8152600401610b7f90612cd4565b60405180910390fd5b7f00000000000000000000000000000000000000000000000000000000000000006001600160a01b0316610bd1600080516020612eeb833981519152546001600160a01b031690565b6001600160a01b031614610bf75760405162461bcd60e51b8152600401610b7f90612d20565b610c0081611f6f565b60408051600080825260208201909252610c1c91839190611f77565b50565b60fb54604051630935e01b60e21b81523360048201526001600160a01b03909116906324d7806c90602401602060405180830381865afa158015610c67573d6000803e3d6000fd5b505050506040513d601f19601f82011682018060405250810190610c8b9190612d6c565b610ca75760405162461bcd60e51b8152600401610b7f90612d8e565b60008080526101036020527ff167d7e9ac6011f0b837eaede5176b30419264c8a43ec5db1d59bf93c98c1f7f82825b81811015610d2957858582818110610cf057610cf0612c69565b9050602002016020810190610d059190612a0b565b6001848101805460ff19169091179055935080610d2181612c95565b915050610cd6565b505050505050565b610d39611e10565b610d416120e7565b565b6001600160a01b037f0000000000000000000000000000000000000000000000000000000000000000163003610d8b5760405162461bcd60e51b8152600401610b7f90612cd4565b7f00000000000000000000000000000000000000000000000000000000000000006001600160a01b0316610dd4600080516020612eeb833981519152546001600160a01b031690565b6001600160a01b031614610dfa5760405162461bcd60e51b8152600401610b7f90612d20565b610e0382611f6f565b610e0f82826001611f77565b5050565b6000306001600160a01b037f00000000000000000000000000000000000000000000000000000000000000001614610eb35760405162461bcd60e51b815260206004820152603860248201527f555550535570677261646561626c653a206d757374206e6f742062652063616c60448201527f6c6564207468726f7567682064656c656761746563616c6c00000000000000006064820152608401610b7f565b50600080516020612eeb83398151915290565b60fb54604051630935e01b60e21b81523360048201526001600160a01b03909116906324d7806c90602401602060405180830381865afa158015610f0e573d6000803e3d6000fd5b505050506040513d601f19601f82011682018060405250810190610f329190612d6c565b610f4e5760405162461bcd60e51b8152600401610b7f90612d8e565b60008080526101036020527ff167d7e9ac6011f0b837eaede5176b30419264c8a43ec5db1d59bf93c98c1f7f82825b81811015610d2957858582818110610f9757610f97612c69565b9050602002016020810190610fac9190612a0b565b60018401805460ff19169055935080610fc481612c95565b915050610f7d565b60fb54604051630935e01b60e21b81523360048201526001600160a01b03909116906324d7806c90602401602060405180830381865afa158015611014573d6000803e3d6000fd5b505050506040513d601f19601f820116820180604052508101906110389190612d6c565b6110545760405162461bcd60e51b8152600401610b7f90612d8e565b6110618162015180612db9565b6101015550565b6000611072611e10565b60405163a9059cbb60e01b81526001600160a01b0384811660048301526024820184905285169063a9059cbb906044016020604051808303816000875af11580156110c1573d6000803e3d6000fd5b505050506040513d601f19601f820116820180604052508101906110e59190612d6c565b50600190505b9392505050565b6001600160a01b03811660009081526101036020908152604080832080548251818502810185019093528083529092849291849183018282801561115557602002820191906000526020600020905b815481526020019060010190808311611141575b505083519394506000925050505b81811015610b2e576000610104600085848151811061118457611184612c69565b6020908102919091018101518252810191909152604001600020805490915060ff16156111bd5760018101546111ba9087612cc1565b95505b50806111c881612c95565b915050611163565b6001600160a01b0381166000908152610103602052604081208054429190839061010490829061120290600190612cae565b815260200190815260200160002090506000816004015482600301546112289190612cc1565b83549091501580159061123a57508084105b1561124b5750600195945050505050565b50600095945050505050565b60fb54604051630935e01b60e21b81523360048201526001600160a01b03909116906324d7806c90602401602060405180830381865afa15801561129f573d6000803e3d6000fd5b505050506040513d601f19601f820116820180604052508101906112c39190612d6c565b6112df5760405162461bcd60e51b8152600401610b7f90612d8e565b60ff5461010054610e0f918491849161ffff1690612139565b60fb54604051630935e01b60e21b81523360048201526001600160a01b03909116906324d7806c90602401602060405180830381865afa158015611340573d6000803e3d6000fd5b505050506040513d601f19601f820116820180604052508101906113649190612d6c565b6113805760405162461bcd60e51b8152600401610b7f90612d8e565b61138d8162015180612db9565b6101005550565b6001600160a01b038116600090815261010360209081526040918290208054835181840281018401909452808452606093928301828280156113f557602002820191906000526020600020905b8154815260200190600101908083116113e1575b50505050509050919050565b60fc5460609060008167ffffffffffffffff81111561142257611422612a9b565b60405190808252806020026020018201604052801561144b578160200160208202803683370190505b50905060005b828110156114af57600081815261010460205260409020805460ff16151560010361149c57811561149c578183838151811061148f5761148f612c69565b6020026020010181815250505b50806114a781612c95565b915050611451565b5092915050565b6114be611e10565b610d41600061228b565b3360008181526101036020526040812060038101549091906114e9836122dd565b6114f39190612cae565b9050808260030160008282546115099190612cc1565b9091555050426002830155600061151f8461233e565b90506001600160a01b0384166108fc6115388484612cc1565b6040518115909202916000818181858888f19350505050158015611560573d6000803e3d6000fd5b5060405182906001600160a01b038616907f6dd401e61ba732582a5eba3d54ccc3afb3609cd3ac1a166d1d36f75fc0aedcda90600090a360405181906001600160a01b038616907f79d3df6837cc49ff0e09fd3258e6e45594e0703445bb06825e9d75156eaee8f090600090a350505050565b600054610100900460ff16158080156115f35750600054600160ff909116105b8061160d5750303b15801561160d575060005460ff166001145b6116705760405162461bcd60e51b815260206004820152602e60248201527f496e697469616c697a61626c653a20636f6e747261637420697320616c72656160448201526d191e481a5b9a5d1a585b1a5e995960921b6064820152608401610b7f565b6000805460ff191660011790558015611693576000805461ff0019166101001790555b60fb80546001600160a01b031916730b8bf5feb9fca57d9c5d27185ddf3017e99a2d3617905560ff805461ffff1916603c1790556301e133806101005562278d00610101556116e0612489565b6116e86124b8565b6116f06124e7565b8015610c1c576000805461ff0019169055604051600181527f7f26b83ff96e1f2b6a682f133852f6798a09c465da95921460cefb38474024989060200160405180910390a150565b611740611e10565b610d4161250e565b6001600160a01b038116600090815261010360205260408120610a0b906122dd565b33600081815261010360205260408120600381015490919061178b836122dd565b6117959190612cae565b9050600081116117e75760405162461bcd60e51b815260206004820152601c60248201527f596f752068617665206e6f207374616b696e67206f7220656e646564000000006044820152606401610b7f565b6001820154429060ff16156118565760405162461bcd60e51b815260206004820152602f60248201527f596f7572206163636f756e742069732064697361626c65642e20506c6561736560448201526e1031b7b73a30b1ba1030b236b4b71760891b6064820152608401610b7f565b8061010154846002015461186a9190612cc1565b116118c95760405162461bcd60e51b815260206004820152602960248201527f596f752063616e6e6f7420636c61696d20726577617264206265666f7265207460448201526834b6b2b634b6b4ba1760b91b6064820152608401610b7f565b6118d58484848461254b565b6040516001600160a01b0385169083156108fc029084906000818181858888f1935050505015801561190b573d6000803e3d6000fd5b5050505050565b61193f60405180608001604052806060815260200160001515815260200160008152602001600081525090565b6001600160a01b038216600090815261010360209081526040918290208251815460a0938102820184019094526080810184815290939192849284918401828280156119aa57602002820191906000526020600020905b815481526020019060010190808311611996575b5050509183525050600182015460ff16151560208201526002820154604082015260039091015460609091015292915050565b6060600060fc805480602002602001604051908101604052809291908181526020018280548015611a3757602002820191906000526020600020905b81546001600160a01b03168152600190910190602001808311611a19575b5050505050905060008151905060008167ffffffffffffffff811115611a5f57611a5f612a9b565b604051908082528060200260200182016040528015611a88578160200160208202803683370190505b5090506000805b83811015611b2757611aba83868381518110611aad57611aad612c69565b6020026020010151611dab565b1515600114611b1557848181518110611ad557611ad5612c69565b6020026020010151838381518110611aef57611aef612c69565b6001600160a01b039092166020928302919091019091015281611b1181612c95565b9250505b80611b1f81612c95565b915050611a8f565b5090949350505050565b6060600060fc805480602002602001604051908101604052809291908181526020018280548015611b8b57602002820191906000526020600020905b81546001600160a01b03168152600190910190602001808311611b6d575b5050505050905060008151905060008167ffffffffffffffff811115611bb357611bb3612a9b565b604051908082528060200260200182016040528015611bdc578160200160208202803683370190505b5090506000805b83811015611b2757611c0183868381518110611aad57611aad612c69565b1515600114611c8357611c2c858281518110611c1f57611c1f612c69565b60200260200101516111d0565b15611c8357848181518110611c4357611c43612c69565b6020026020010151838381518110611c5d57611c5d612c69565b6001600160a01b039092166020928302919091019091015281611c7f81612c95565b9250505b80611c8d81612c95565b915050611be3565b611c9d611e10565b6001600160a01b038116611d025760405162461bcd60e51b815260206004820152602660248201527f4f776e61626c653a206e6577206f776e657220697320746865207a65726f206160448201526564647265737360d01b6064820152608401610b7f565b610c1c8161228b565b60fb54604051630935e01b60e21b81523360048201526001600160a01b03909116906324d7806c90602401602060405180830381865afa158015611d53573d6000803e3d6000fd5b505050506040513d601f19601f82011682018060405250810190611d779190612d6c565b611d935760405162461bcd60e51b8152600401610b7f90612d8e565b60ff805461ffff191661ffff92909216919091179055565b6000805b8351811015611e0657826001600160a01b0316848281518110611dd457611dd4612c69565b60200260200101516001600160a01b031603611df4576001915050610a0b565b80611dfe81612c95565b915050611daf565b5060009392505050565b6065546001600160a01b03163314610d415760405162461bcd60e51b815260206004820181905260248201527f4f776e61626c653a2063616c6c6572206973206e6f7420746865206f776e65726044820152606401610b7f565b6001600160a01b038116600090815261010360209081526040808320805482518185028101850190935280835290928492918491830182828015611ecd57602002820191906000526020600020905b815481526020019060010190808311611eb9575b5050835193945042925060009150505b82811015611f655760006101046000868481518110611efe57611efe612c69565b6020908102919091018101518252810191909152604001600020805490915060ff1615611f52578281600401548260030154611f3a9190612cc1565b1115611f52576001810154611f4f9088612cc1565b96505b5080611f5d81612c95565b915050611edd565b5050505050919050565b610c1c611e10565b7f4910fdfa16fed3260ed0e7147f7cc6da11a60208b5b9406d12a635614ffd91435460ff1615611faf57611faa836125a7565b505050565b826001600160a01b03166352d1902d6040518163ffffffff1660e01b8152600401602060405180830381865afa925050508015612009575060408051601f3d908101601f1916820190925261200691810190612dd0565b60015b61206c5760405162461bcd60e51b815260206004820152602e60248201527f45524331393637557067726164653a206e657720696d706c656d656e7461746960448201526d6f6e206973206e6f74205555505360901b6064820152608401610b7f565b600080516020612eeb83398151915281146120db5760405162461bcd60e51b815260206004820152602960248201527f45524331393637557067726164653a20756e737570706f727465642070726f786044820152681a58589b195555525160ba1b6064820152608401610b7f565b50611faa838383612643565b6120ef61266e565b6033805460ff191690557f5db9ee0a495bf2e6ff9c91a7834c1ba4fdd244a5e8aa4e537bd38aeae4b073aa335b6040516001600160a01b03909116815260200160405180910390a1565b60fc8054600180820183557f371f36870d18f32a11fea0f144b021c8b407bb50f8e0267c711123f454b963c090910180546001600160a01b0319166001600160a01b038816908117909155915460008381526101036020908152604080832063ffffffff8516808552610104845291842081548088018355828652938520909301829055825464ffffffffff191661010090920260ff191691909117851765010000000000600160c81b0319166501000000000090960295909517815542600382018190556004820187905593810188905560028101805461ffff191661ffff891617905560fd805493959391928992612234908490612cc1565b909155505060405163ffffffff85168152859088906001600160a01b038b16907ff556991011e831bcfac4f406d547e5e32cdd98267efab83935230d5f8d02c4469060200160405180910390a45050505050505050565b606580546001600160a01b038381166001600160a01b0319831681179093556040519116919082907f8be0079c531659141344cd1fd0a4f28419497f9722a3daafe3b4186f6b6457e090600090a35050565b8054600090815b818161ffff16101561233757612319848261ffff168154811061230957612309612c69565b90600052602060002001546126b7565b6123239084612cc1565b92508061232f81612de9565b9150506122e4565b5050919050565b6001600160a01b0381166000908152610103602090815260408083208054825181850281018501909352808352909284929184918301828280156123a157602002820191906000526020600020905b81548152602001906001019080831161238d575b5050835193945042925060009150505b82811015611f6557600061010460008684815181106123d2576123d2612c69565b6020908102919091018101518252810191909152604001600020805490915060ff161561247657828160040154826003015461240e9190612cc1565b11156124765760018101546124239088612cc1565b815460ff1916808355600183015460405192995061010090910463ffffffff16916001600160a01b038b16907f091b6bc9d0d839f20a931895d4778e195eef19985b93ae2f0e25b67e4812521f90600090a45b508061248181612c95565b9150506123b1565b600054610100900460ff166124b05760405162461bcd60e51b8152600401610b7f90612e0a565b610d4161273a565b600054610100900460ff166124df5760405162461bcd60e51b8152600401610b7f90612e0a565b610d4161276d565b600054610100900460ff16610d415760405162461bcd60e51b8152600401610b7f90612e0a565b61251661279d565b6033805460ff191660011790557f62e78cea01bee320cd4e420270b5ea74000d11b0c9f74754ebdbfc544b05a25861211c3390565b8183600301600082825461255f9190612cc1565b90915550506002830181905560405182906001600160a01b038616907f6dd401e61ba732582a5eba3d54ccc3afb3609cd3ac1a166d1d36f75fc0aedcda90600090a350505050565b6001600160a01b0381163b6126145760405162461bcd60e51b815260206004820152602d60248201527f455243313936373a206e657720696d706c656d656e746174696f6e206973206e60448201526c1bdd08184818dbdb9d1c9858dd609a1b6064820152608401610b7f565b600080516020612eeb83398151915280546001600160a01b0319166001600160a01b0392909216919091179055565b61264c836127e3565b6000825111806126595750805b15611faa576126688383612823565b50505050565b60335460ff16610d415760405162461bcd60e51b815260206004820152601460248201527314185d5cd8589b194e881b9bdd081c185d5cd95960621b6044820152606401610b7f565b600081815261010460205260408120600381015442919083906126da9084612cae565b6004830154600284015460018501549293506000926064916127029161ffff90911690612db9565b61270c9190612e55565b6127169190612e55565b9050612726828460040154612917565b6127309082612db9565b9695505050505050565b600054610100900460ff166127615760405162461bcd60e51b8152600401610b7f90612e0a565b6033805460ff19169055565b600054610100900460ff166127945760405162461bcd60e51b8152600401610b7f90612e0a565b610d413361228b565b60335460ff1615610d415760405162461bcd60e51b815260206004820152601060248201526f14185d5cd8589b194e881c185d5cd95960821b6044820152606401610b7f565b6127ec816125a7565b6040516001600160a01b038216907fbc7cd75a20ee27fd9adebab32041f755214dbc6bffa90cc0225b39da2e5c2d3b90600090a250565b60606001600160a01b0383163b61288b5760405162461bcd60e51b815260206004820152602660248201527f416464726573733a2064656c65676174652063616c6c20746f206e6f6e2d636f6044820152651b9d1c9858dd60d21b6064820152608401610b7f565b600080846001600160a01b0316846040516128a69190612e9b565b600060405180830381855af49150503d80600081146128e1576040519150601f19603f3d011682016040523d82523d6000602084013e6128e6565b606091505b509150915061290e8282604051806060016040528060278152602001612f0b6027913961292d565b95945050505050565b600081831061292657816110eb565b5090919050565b6060831561293c5750816110eb565b6110eb83838151156129515781518083602001fd5b8060405162461bcd60e51b8152600401610b7f9190612eb7565b60006020828403121561297d57600080fd5b5035919050565b6020808252825182820181905260009190848201906040850190845b818110156109b95783516001600160a01b0316835292840192918401916001016129a0565b80356001600160a01b03811681146129dc57600080fd5b919050565b600080604083850312156129f457600080fd5b6129fd836129c5565b946020939093013593505050565b600060208284031215612a1d57600080fd5b6110eb826129c5565b60008060208385031215612a3957600080fd5b823567ffffffffffffffff80821115612a5157600080fd5b818501915085601f830112612a6557600080fd5b813581811115612a7457600080fd5b8660208260051b8501011115612a8957600080fd5b60209290920196919550909350505050565b634e487b7160e01b600052604160045260246000fd5b60008060408385031215612ac457600080fd5b612acd836129c5565b9150602083013567ffffffffffffffff80821115612aea57600080fd5b818501915085601f830112612afe57600080fd5b813581811115612b1057612b10612a9b565b604051601f8201601f19908116603f01168101908382118183101715612b3857612b38612a9b565b81604052828152886020848701011115612b5157600080fd5b8260208601602083013760006020848301015280955050505050509250929050565b600080600060608486031215612b8857600080fd5b612b91846129c5565b9250612b9f602085016129c5565b9150604084013590509250925092565b600081518084526020808501945080840160005b83811015612bdf57815187529582019590820190600101612bc3565b509495945050505050565b6020815260006110eb6020830184612baf565b602081526000825160806020840152612c1960a0840182612baf565b905060208401511515604084015260408401516060840152606084015160808401528091505092915050565b600060208284031215612c5757600080fd5b813561ffff811681146110eb57600080fd5b634e487b7160e01b600052603260045260246000fd5b634e487b7160e01b600052601160045260246000fd5b600060018201612ca757612ca7612c7f565b5060010190565b81810381811115610a0b57610a0b612c7f565b80820180821115610a0b57610a0b612c7f565b6020808252602c908201527f46756e6374696f6e206d7573742062652063616c6c6564207468726f7567682060408201526b19195b1959d85d1958d85b1b60a21b606082015260800190565b6020808252602c908201527f46756e6374696f6e206d7573742062652063616c6c6564207468726f7567682060408201526b6163746976652070726f787960a01b606082015260800190565b600060208284031215612d7e57600080fd5b815180151581146110eb57600080fd5b6020808252601190820152702cb7ba9030b932903737ba1030b236b4b760791b604082015260600190565b8082028115828204841417610a0b57610a0b612c7f565b600060208284031215612de257600080fd5b5051919050565b600061ffff808316818103612e0057612e00612c7f565b6001019392505050565b6020808252602b908201527f496e697469616c697a61626c653a20636f6e7472616374206973206e6f74206960408201526a6e697469616c697a696e6760a81b606082015260800190565b600082612e7257634e487b7160e01b600052601260045260246000fd5b500490565b60005b83811015612e92578181015183820152602001612e7a565b50506000910152565b60008251612ead818460208701612e77565b9190910192915050565b6020815260008251806020840152612ed6816040850160208701612e77565b601f01601f1916919091016040019291505056fe360894a13ba1a3210667c828492db98dca3e2076cc3735a920a3ca505d382bbc416464726573733a206c6f772d6c6576656c2064656c65676174652063616c6c206661696c6564a26469706673582212204464a9e310e0c2882b1b79fef51126851a2145f4159cca0590defad025d6dd3c64736f6c63430008120033",
  "linkReferences": {},
  "deployedLinkReferences": {}
}