{
  "_format": "hh-sol-artifact-1",
  "contractName": "FutureSecureWalletV1Upgradeable",
  "sourceName": "contracts/FutureSecureWalletUpgradeable.sol",
  "abi": [
    {
      "anonymous": false,
      "inputs": [
        {
          "indexed": false,
          "internalType": "address",
          "name": "previousAdmin",
          "type": "address"
        },
        {
          "indexed": false,
          "internalType": "address",
          "name": "newAdmin",
          "type": "address"
        }
      ],
      "name": "AdminChanged",
      "type": "event"
    },
    {
      "anonymous": false,
      "inputs": [
        {
          "indexed": true,
          "internalType": "address",
          "name": "beacon",
          "type": "address"
        }
      ],
      "name": "BeaconUpgraded",
      "type": "event"
    },
    {
      "anonymous": false,
      "inputs": [
        {
          "indexed": true,
          "internalType": "address",
          "name": "userAddress",
          "type": "address"
        },
        {
          "indexed": true,
          "internalType": "uint256",
          "name": "value",
          "type": "uint256"
        },
        {
          "indexed": true,
          "internalType": "uint256",
          "name": "stakingID",
          "type": "uint256"
        }
      ],
      "name": "IDUnStaked",
      "type": "event"
    },
    {
      "anonymous": false,
      "inputs": [
        {
          "indexed": false,
          "internalType": "uint8",
          "name": "version",
          "type": "uint8"
        }
      ],
      "name": "Initialized",
      "type": "event"
    },
    {
      "anonymous": false,
      "inputs": [
        {
          "indexed": true,
          "internalType": "address",
          "name": "previousOwner",
          "type": "address"
        },
        {
          "indexed": true,
          "internalType": "address",
          "name": "newOwner",
          "type": "address"
        }
      ],
      "name": "OwnershipTransferred",
      "type": "event"
    },
    {
      "anonymous": false,
      "inputs": [
        {
          "indexed": false,
          "internalType": "address",
          "name": "account",
          "type": "address"
        }
      ],
      "name": "Paused",
      "type": "event"
    },
    {
      "anonymous": false,
      "inputs": [
        {
          "indexed": true,
          "internalType": "address",
          "name": "userAddress",
          "type": "address"
        },
        {
          "indexed": false,
          "internalType": "uint256",
          "name": "amount",
          "type": "uint256"
        }
      ],
      "name": "PrincipalClaimed",
      "type": "event"
    },
    {
      "anonymous": false,
      "inputs": [
        {
          "indexed": true,
          "internalType": "address",
          "name": "userAddress",
          "type": "address"
        },
        {
          "indexed": true,
          "internalType": "uint256",
          "name": "valueStaked",
          "type": "uint256"
        },
        {
          "indexed": true,
          "internalType": "uint256",
          "name": "duration",
          "type": "uint256"
        },
        {
          "indexed": false,
          "internalType": "uint256",
          "name": "stakingID",
          "type": "uint256"
        }
      ],
      "name": "Stake",
      "type": "event"
    },
    {
      "anonymous": false,
      "inputs": [
        {
          "indexed": true,
          "internalType": "address",
          "name": "userAddress",
          "type": "address"
        },
        {
          "indexed": true,
          "internalType": "uint256",
          "name": "reward",
          "type": "uint256"
        }
      ],
      "name": "StakingRewardClaimed",
      "type": "event"
    },
    {
      "anonymous": false,
      "inputs": [
        {
          "indexed": true,
          "internalType": "address",
          "name": "userAddress",
          "type": "address"
        },
        {
          "indexed": true,
          "internalType": "uint256",
          "name": "value",
          "type": "uint256"
        }
      ],
      "name": "UnStaked",
      "type": "event"
    },
    {
      "anonymous": false,
      "inputs": [
        {
          "indexed": false,
          "internalType": "address",
          "name": "account",
          "type": "address"
        }
      ],
      "name": "Unpaused",
      "type": "event"
    },
    {
      "anonymous": false,
      "inputs": [
        {
          "indexed": true,
          "internalType": "address",
          "name": "implementation",
          "type": "address"
        }
      ],
      "name": "Upgraded",
      "type": "event"
    },
    {
      "inputs": [],
      "name": "activeStakersList",
      "outputs": [
        {
          "internalType": "address[]",
          "name": "",
          "type": "address[]"
        }
      ],
      "stateMutability": "view",
      "type": "function"
    },
    {
      "inputs": [
        {
          "internalType": "uint256",
          "name": "",
          "type": "uint256"
        }
      ],
      "name": "admins",
      "outputs": [
        {
          "internalType": "address",
          "name": "",
          "type": "address"
        }
      ],
      "stateMutability": "view",
      "type": "function"
    },
    {
      "inputs": [],
      "name": "allStakersList",
      "outputs": [
        {
          "internalType": "address[]",
          "name": "",
          "type": "address[]"
        }
      ],
      "stateMutability": "view",
      "type": "function"
    },
    {
      "inputs": [],
      "name": "claimStakingReward",
      "outputs": [],
      "stateMutability": "nonpayable",
      "type": "function"
    },
    {
      "inputs": [
        {
          "internalType": "address[]",
          "name": "_userAddress",
          "type": "address[]"
        }
      ],
      "name": "disableAccounts",
      "outputs": [],
      "stateMutability": "nonpayable",
      "type": "function"
    },
    {
      "inputs": [
        {
          "internalType": "address[]",
          "name": "_userAddress",
          "type": "address[]"
        }
      ],
      "name": "enableAccounts",
      "outputs": [],
      "stateMutability": "nonpayable",
      "type": "function"
    },
    {
      "inputs": [],
      "name": "getActiveStakingIDs",
      "outputs": [
        {
          "internalType": "uint256[]",
          "name": "",
          "type": "uint256[]"
        }
      ],
      "stateMutability": "view",
      "type": "function"
    },
    {
      "inputs": [],
      "name": "getDisabledAccountsList",
      "outputs": [
        {
          "internalType": "address[]",
          "name": "",
          "type": "address[]"
        }
      ],
      "stateMutability": "view",
      "type": "function"
    },
    {
      "inputs": [],
      "name": "getStakingCappings",
      "outputs": [
        {
          "internalType": "uint256",
          "name": "stakingRewardRate",
          "type": "uint256"
        },
        {
          "internalType": "uint256",
          "name": "stakingDuration",
          "type": "uint256"
        },
        {
          "internalType": "uint256",
          "name": "stakingRewardClaimTimeLimit",
          "type": "uint256"
        }
      ],
      "stateMutability": "view",
      "type": "function"
    },
    {
      "inputs": [
        {
          "internalType": "address",
          "name": "_userAddress",
          "type": "address"
        }
      ],
      "name": "getStakingTimeEndTime",
      "outputs": [
        {
          "internalType": "uint256",
          "name": "time",
          "type": "uint256"
        }
      ],
      "stateMutability": "view",
      "type": "function"
    },
    {
      "inputs": [],
      "name": "getTotalStakingRewardDistributed",
      "outputs": [
        {
          "internalType": "uint256",
          "name": "_tokenRewards",
          "type": "uint256"
        }
      ],
      "stateMutability": "view",
      "type": "function"
    },
    {
      "inputs": [],
      "name": "getTotalValueStaked",
      "outputs": [
        {
          "internalType": "uint256",
          "name": "token",
          "type": "uint256"
        }
      ],
      "stateMutability": "view",
      "type": "function"
    },
    {
      "inputs": [
        {
          "internalType": "address",
          "name": "_userAddress",
          "type": "address"
        }
      ],
      "name": "getUserAllStakingsRewards",
      "outputs": [
        {
          "internalType": "uint256",
          "name": "",
          "type": "uint256"
        }
      ],
      "stateMutability": "view",
      "type": "function"
    },
    {
      "inputs": [
        {
          "internalType": "address",
          "name": "_userAddress",
          "type": "address"
        }
      ],
      "name": "getUserStakingIDs",
      "outputs": [
        {
          "internalType": "uint256[]",
          "name": "",
          "type": "uint256[]"
        }
      ],
      "stateMutability": "view",
      "type": "function"
    },
    {
      "inputs": [
        {
          "internalType": "address",
          "name": "_userAddress",
          "type": "address"
        }
      ],
      "name": "getUserTotalRewardClaimedToken",
      "outputs": [
        {
          "internalType": "uint256",
          "name": "",
          "type": "uint256"
        }
      ],
      "stateMutability": "view",
      "type": "function"
    },
    {
      "inputs": [
        {
          "internalType": "address",
          "name": "_userAddress",
          "type": "address"
        }
      ],
      "name": "getUserTotalValueStaked",
      "outputs": [
        {
          "internalType": "uint256",
          "name": "token",
          "type": "uint256"
        }
      ],
      "stateMutability": "view",
      "type": "function"
    },
    {
      "inputs": [
        {
          "internalType": "address",
          "name": "_userAddress",
          "type": "address"
        }
      ],
      "name": "getUserUnStakeValue",
      "outputs": [
        {
          "internalType": "uint256",
          "name": "",
          "type": "uint256"
        }
      ],
      "stateMutability": "view",
      "type": "function"
    },
    {
      "inputs": [],
      "name": "initialize",
      "outputs": [],
      "stateMutability": "nonpayable",
      "type": "function"
    },
    {
      "inputs": [
        {
          "internalType": "address",
          "name": "_userAddress",
          "type": "address"
        }
      ],
      "name": "isAccountDisabled",
      "outputs": [
        {
          "internalType": "bool",
          "name": "",
          "type": "bool"
        }
      ],
      "stateMutability": "view",
      "type": "function"
    },
    {
      "inputs": [
        {
          "internalType": "address",
          "name": "_userAddress",
          "type": "address"
        }
      ],
      "name": "isStaked",
      "outputs": [
        {
          "internalType": "bool",
          "name": "",
          "type": "bool"
        }
      ],
      "stateMutability": "view",
      "type": "function"
    },
    {
      "inputs": [],
      "name": "owner",
      "outputs": [
        {
          "internalType": "address",
          "name": "",
          "type": "address"
        }
      ],
      "stateMutability": "view",
      "type": "function"
    },
    {
      "inputs": [],
      "name": "pause",
      "outputs": [],
      "stateMutability": "nonpayable",
      "type": "function"
    },
    {
      "inputs": [],
      "name": "paused",
      "outputs": [
        {
          "internalType": "bool",
          "name": "",
          "type": "bool"
        }
      ],
      "stateMutability": "view",
      "type": "function"
    },
    {
      "inputs": [],
      "name": "proxiableUUID",
      "outputs": [
        {
          "internalType": "bytes32",
          "name": "",
          "type": "bytes32"
        }
      ],
      "stateMutability": "view",
      "type": "function"
    },
    {
      "inputs": [],
      "name": "renounceOwnership",
      "outputs": [],
      "stateMutability": "nonpayable",
      "type": "function"
    },
    {
      "inputs": [
        {
          "internalType": "uint256",
          "name": "_valueInDays",
          "type": "uint256"
        }
      ],
      "name": "setStakingDuration",
      "outputs": [],
      "stateMutability": "nonpayable",
      "type": "function"
    },
    {
      "inputs": [
        {
          "internalType": "uint256",
          "name": "_valueInDays",
          "type": "uint256"
        }
      ],
      "name": "setStakingRewardClaimTimeLimity",
      "outputs": [],
      "stateMutability": "nonpayable",
      "type": "function"
    },
    {
      "inputs": [
        {
          "internalType": "uint16",
          "name": "_valueInPer",
          "type": "uint16"
        }
      ],
      "name": "setStakingRewardRate",
      "outputs": [],
      "stateMutability": "nonpayable",
      "type": "function"
    },
    {
      "inputs": [
        {
          "internalType": "address",
          "name": "_userAddress",
          "type": "address"
        },
        {
          "internalType": "uint256",
          "name": "_value",
          "type": "uint256"
        }
      ],
      "name": "stakeByAdmin",
      "outputs": [],
      "stateMutability": "nonpayable",
      "type": "function"
    },
    {
      "inputs": [
        {
          "internalType": "uint256",
          "name": "_stakingID",
          "type": "uint256"
        }
      ],
      "name": "stakeInfoMap",
      "outputs": [
        {
          "components": [
            {
              "internalType": "bool",
              "name": "isStaked",
              "type": "bool"
            },
            {
              "internalType": "uint32",
              "name": "id",
              "type": "uint32"
            },
            {
              "internalType": "address",
              "name": "owner",
              "type": "address"
            },
            {
              "internalType": "uint256",
              "name": "value",
              "type": "uint256"
            },
            {
              "internalType": "uint16",
              "name": "rewardRate",
              "type": "uint16"
            },
            {
              "internalType": "uint256",
              "name": "startTime",
              "type": "uint256"
            },
            {
              "internalType": "uint256",
              "name": "duration",
              "type": "uint256"
            }
          ],
          "internalType": "struct FutureSecureWalletV1Upgradeable.StakeInfo",
          "name": "",
          "type": "tuple"
        }
      ],
      "stateMutability": "view",
      "type": "function"
    },
    {
      "inputs": [
        {
          "internalType": "address",
          "name": "newOwner",
          "type": "address"
        }
      ],
      "name": "transferOwnership",
      "outputs": [],
      "stateMutability": "nonpayable",
      "type": "function"
    },
    {
      "inputs": [],
      "name": "unStake",
      "outputs": [],
      "stateMutability": "nonpayable",
      "type": "function"
    },
    {
      "inputs": [],
      "name": "unpause",
      "outputs": [],
      "stateMutability": "nonpayable",
      "type": "function"
    },
    {
      "inputs": [
        {
          "internalType": "address",
          "name": "newImplementation",
          "type": "address"
        }
      ],
      "name": "upgradeTo",
      "outputs": [],
      "stateMutability": "nonpayable",
      "type": "function"
    },
    {
      "inputs": [
        {
          "internalType": "address",
          "name": "newImplementation",
          "type": "address"
        },
        {
          "internalType": "bytes",
          "name": "data",
          "type": "bytes"
        }
      ],
      "name": "upgradeToAndCall",
      "outputs": [],
      "stateMutability": "payable",
      "type": "function"
    },
    {
      "inputs": [
        {
          "internalType": "address",
          "name": "_userAddress",
          "type": "address"
        }
      ],
      "name": "userAccountMap",
      "outputs": [
        {
          "components": [
            {
              "internalType": "uint256[]",
              "name": "stakingIDs",
              "type": "uint256[]"
            },
            {
              "internalType": "bool",
              "name": "isDisabled",
              "type": "bool"
            },
            {
              "internalType": "uint256",
              "name": "rewardClaimedTimestamp",
              "type": "uint256"
            },
            {
              "internalType": "uint256",
              "name": "rewardClaimed",
              "type": "uint256"
            }
          ],
          "internalType": "struct FutureSecureWalletV1Upgradeable.Account",
          "name": "",
          "type": "tuple"
        }
      ],
      "stateMutability": "view",
      "type": "function"
    },
    {
      "inputs": [
        {
          "internalType": "address",
          "name": "_receiver",
          "type": "address"
        },
        {
          "internalType": "uint256",
          "name": "_value",
          "type": "uint256"
        }
      ],
      "name": "withdrawNativeFunds",
      "outputs": [
        {
          "internalType": "bool",
          "name": "",
          "type": "bool"
        }
      ],
      "stateMutability": "nonpayable",
      "type": "function"
    },
    {
      "inputs": [
        {
          "internalType": "address",
          "name": "_tokenAddress",
          "type": "address"
        },
        {
          "internalType": "address",
          "name": "_receiver",
          "type": "address"
        },
        {
          "internalType": "uint256",
          "name": "_value",
          "type": "uint256"
        }
      ],
      "name": "withdrawTokens",
      "outputs": [
        {
          "internalType": "bool",
          "name": "",
          "type": "bool"
        }
      ],
      "stateMutability": "nonpayable",
      "type": "function"
    },
    {
      "stateMutability": "payable",
      "type": "receive"
    }
  ],
  "bytecode": "0x60a06040523060805234801561001457600080fd5b50608051612f5961004c60003960008181610b3301528181610b7c01528181610d3f01528181610d7f0152610e120152612f596000f3fe6080604052600436106102295760003560e01c80636f51b20b11610123578063a40b5891116100ab578063dba4358c1161006f578063dba4358c1461077c578063deede65414610791578063e3a51f58146107a6578063f2fde38b146107de578063f807438f146107fe57600080fd5b8063a40b5891146105ac578063a7566b75146105e9578063afc695ce14610725578063ba4f678e1461073a578063c06a53881461076757600080fd5b80637ce574bf116100f25780637ce574bf1461052f5780638129fc1c146105445780638456cb59146105595780638da5cb5b1461056e5780639c3fe28a1461058c57600080fd5b80636f51b20b146104c35780636f72693b146104f0578063715018a61461050557806373cf575a1461051a57600080fd5b806352d1902d116101b15780635f869714116101755780635f869714146104095780636177fd181461042957806366e5e570146104495780636a50eefa146104835780636a8ca691146104a357600080fd5b806352d1902d1461037c57806353bdadea146103915780635c975abb146103b15780635cbfd021146103c95780635e35359e146103e957600080fd5b80632955f37d116101f85780632955f37d146102f25780633659cfe6146103125780633b09098f146103345780633f4ba83a146103545780634f1ef2861461036957600080fd5b806314bfd6d014610235578063260cb4e91461027257806326792aca1461029457806326ed1af0146102c457600080fd5b3661023057005b600080fd5b34801561024157600080fd5b5061025561025036600461295d565b61081e565b6040516001600160a01b0390911681526020015b60405180910390f35b34801561027e57600080fd5b50610287610849565b6040516102699190612976565b3480156102a057600080fd5b506102b46102af3660046129d3565b6109c5565b6040519015158152602001610269565b3480156102d057600080fd5b506102e46102df3660046129fd565b610a11565b604051908152602001610269565b3480156102fe57600080fd5b506102e461030d3660046129fd565b610a1c565b34801561031e57600080fd5b5061033261032d3660046129fd565b610b29565b005b34801561034057600080fd5b5061033261034f366004612a18565b610c11565b34801561036057600080fd5b50610332610d23565b610332610377366004612aa3565b610d35565b34801561038857600080fd5b506102e4610e05565b34801561039d57600080fd5b506103326103ac366004612a18565b610eb8565b3480156103bd57600080fd5b5060335460ff166102b4565b3480156103d557600080fd5b506103326103e436600461295d565b610fbe565b3480156103f557600080fd5b506102b4610404366004612b65565b61105a565b34801561041557600080fd5b506102e46104243660046129fd565b6110e4565b34801561043557600080fd5b506102b46104443660046129fd565b6111c2565b34801561045557600080fd5b506102e46104643660046129fd565b6001600160a01b03166000908152610103602052604090206003015490565b34801561048f57600080fd5b5061033261049e3660046129d3565b611249565b3480156104af57600080fd5b506103326104be36600461295d565b6112ea565b3480156104cf57600080fd5b506104e36104de3660046129fd565b611386565b6040516102699190612bdc565b3480156104fc57600080fd5b506104e36113f3565b34801561051157600080fd5b506103326114a8565b34801561052657600080fd5b506103326114ba565b34801561053b57600080fd5b5060fe546102e4565b34801561055057600080fd5b506103326115c5565b34801561056557600080fd5b5061033261172a565b34801561057a57600080fd5b506065546001600160a01b0316610255565b34801561059857600080fd5b506102e46105a73660046129fd565b61173a565b3480156105b857600080fd5b506102b46105c73660046129fd565b6001600160a01b03166000908152610103602052604090206001015460ff1690565b3480156105f557600080fd5b506106bf61060436600461295d565b6040805160e081018252600080825260208201819052918101829052606081018290526080810182905260a0810182905260c08101919091525060009081526101046020908152604091829020825160e081018452815460ff811615158252610100810463ffffffff1693820193909352650100000000009092046001600160a01b03169282019290925260018201546060820152600282015461ffff166080820152600382015460a082015260049091015460c082015290565b604051610269919081511515815260208083015163ffffffff16908201526040808301516001600160a01b0316908201526060808301519082015260808083015161ffff169082015260a0808301519082015260c0918201519181019190915260e00190565b34801561073157600080fd5b5061033261175c565b34801561074657600080fd5b5061075a6107553660046129fd565b611904565b6040516102699190612bef565b34801561077357600080fd5b506102876119cf565b34801561078857600080fd5b50610287611b23565b34801561079d57600080fd5b5060fd546102e4565b3480156107b257600080fd5b5060ff5461010054610101546040805161ffff9094168452602084019290925290820152606001610269565b3480156107ea57600080fd5b506103326107f93660046129fd565b611c87565b34801561080a57600080fd5b50610332610819366004612c37565b611cfd565b610102818154811061082f57600080fd5b6000918252602090912001546001600160a01b0316905081565b6000808052610103602090815260fc80546040805182850281018501909152818152606094937ff167d7e9ac6011f0b837eaede5176b30419264c8a43ec5db1d59bf93c98c1f7f93859390918301828280156108ce57602002820191906000526020600020905b81546001600160a01b031681526001909101906020018083116108b0575b5050505050905060008151905060008167ffffffffffffffff8111156108f6576108f6612a8d565b60405190808252806020026020018201604052801561091f578160200160208202803683370190505b5090506000805b838110156109b95784818151811061094057610940612c5b565b602002602001015196506109548388611d9d565b15156001146109a75760018087015460ff16151590036109a7578683838151811061098157610981612c5b565b6001600160a01b0390921660209283029190910190910152816109a381612c87565b9250505b806109b181612c87565b915050610926565b50909695505050505050565b60006109cf611e02565b6040516001600160a01b0384169083156108fc029084906000818181858888f19350505050158015610a05573d6000803e3d6000fd5b50600190505b92915050565b6000610a0b82611e5c565b6001600160a01b0381166000908152610103602090815260408083208151815460a0948102820185019093526080810183815242948694929392849291849190840182828015610a8b57602002820191906000526020600020905b815481526020019060010190808311610a77575b5050509183525050600182015460ff161515602082015260028201546040820152600390910154606090910152805180519192506000916101049183918290610ad657610ad6612c5b565b602002602001015181526020019081526020016000209050600081600401548260030154610b049190612ca0565b83515190915015801590610b1757508084105b15610b20578094505b50505050919050565b6001600160a01b037f0000000000000000000000000000000000000000000000000000000000000000163003610b7a5760405162461bcd60e51b8152600401610b7190612cb3565b60405180910390fd5b7f00000000000000000000000000000000000000000000000000000000000000006001600160a01b0316610bc3600080516020612edd833981519152546001600160a01b031690565b6001600160a01b031614610be95760405162461bcd60e51b8152600401610b7190612cff565b610bf281611f61565b60408051600080825260208201909252610c0e91839190611f69565b50565b60fb54604051630935e01b60e21b81523360048201526001600160a01b03909116906324d7806c90602401602060405180830381865afa158015610c59573d6000803e3d6000fd5b505050506040513d601f19601f82011682018060405250810190610c7d9190612d4b565b610c995760405162461bcd60e51b8152600401610b7190612d6d565b60008080526101036020527ff167d7e9ac6011f0b837eaede5176b30419264c8a43ec5db1d59bf93c98c1f7f82825b81811015610d1b57858582818110610ce257610ce2612c5b565b9050602002016020810190610cf791906129fd565b6001848101805460ff19169091179055935080610d1381612c87565b915050610cc8565b505050505050565b610d2b611e02565b610d336120d9565b565b6001600160a01b037f0000000000000000000000000000000000000000000000000000000000000000163003610d7d5760405162461bcd60e51b8152600401610b7190612cb3565b7f00000000000000000000000000000000000000000000000000000000000000006001600160a01b0316610dc6600080516020612edd833981519152546001600160a01b031690565b6001600160a01b031614610dec5760405162461bcd60e51b8152600401610b7190612cff565b610df582611f61565b610e0182826001611f69565b5050565b6000306001600160a01b037f00000000000000000000000000000000000000000000000000000000000000001614610ea55760405162461bcd60e51b815260206004820152603860248201527f555550535570677261646561626c653a206d757374206e6f742062652063616c60448201527f6c6564207468726f7567682064656c656761746563616c6c00000000000000006064820152608401610b71565b50600080516020612edd83398151915290565b60fb54604051630935e01b60e21b81523360048201526001600160a01b03909116906324d7806c90602401602060405180830381865afa158015610f00573d6000803e3d6000fd5b505050506040513d601f19601f82011682018060405250810190610f249190612d4b565b610f405760405162461bcd60e51b8152600401610b7190612d6d565b60008080526101036020527ff167d7e9ac6011f0b837eaede5176b30419264c8a43ec5db1d59bf93c98c1f7f82825b81811015610d1b57858582818110610f8957610f89612c5b565b9050602002016020810190610f9e91906129fd565b60018401805460ff19169055935080610fb681612c87565b915050610f6f565b60fb54604051630935e01b60e21b81523360048201526001600160a01b03909116906324d7806c90602401602060405180830381865afa158015611006573d6000803e3d6000fd5b505050506040513d601f19601f8201168201806040525081019061102a9190612d4b565b6110465760405162461bcd60e51b8152600401610b7190612d6d565b6110538162015180612d98565b6101015550565b6000611064611e02565b60405163a9059cbb60e01b81526001600160a01b0384811660048301526024820184905285169063a9059cbb906044016020604051808303816000875af11580156110b3573d6000803e3d6000fd5b505050506040513d601f19601f820116820180604052508101906110d79190612d4b565b50600190505b9392505050565b6001600160a01b03811660009081526101036020908152604080832080548251818502810185019093528083529092849291849183018282801561114757602002820191906000526020600020905b815481526020019060010190808311611133575b505083519394506000925050505b81811015610b20576000610104600085848151811061117657611176612c5b565b6020908102919091018101518252810191909152604001600020805490915060ff16156111af5760018101546111ac9087612ca0565b95505b50806111ba81612c87565b915050611155565b6001600160a01b038116600090815261010360205260408120805442919083906101049082906111f490600190612daf565b8152602001908152602001600020905060008160040154826003015461121a9190612ca0565b83549091501580159061122c57508084105b1561123d5750600195945050505050565b50600095945050505050565b60fb54604051630935e01b60e21b81523360048201526001600160a01b03909116906324d7806c90602401602060405180830381865afa158015611291573d6000803e3d6000fd5b505050506040513d601f19601f820116820180604052508101906112b59190612d4b565b6112d15760405162461bcd60e51b8152600401610b7190612d6d565b60ff5461010054610e01918491849161ffff169061212b565b60fb54604051630935e01b60e21b81523360048201526001600160a01b03909116906324d7806c90602401602060405180830381865afa158015611332573d6000803e3d6000fd5b505050506040513d601f19601f820116820180604052508101906113569190612d4b565b6113725760405162461bcd60e51b8152600401610b7190612d6d565b61137f8162015180612d98565b6101005550565b6001600160a01b038116600090815261010360209081526040918290208054835181840281018401909452808452606093928301828280156113e757602002820191906000526020600020905b8154815260200190600101908083116113d3575b50505050509050919050565b60fc5460609060008167ffffffffffffffff81111561141457611414612a8d565b60405190808252806020026020018201604052801561143d578160200160208202803683370190505b50905060005b828110156114a157600081815261010460205260409020805460ff16151560010361148e57811561148e578183838151811061148157611481612c5b565b6020026020010181815250505b508061149981612c87565b915050611443565b5092915050565b6114b0611e02565b610d33600061227d565b3360008181526101036020526040812060038101549091906114db836122cf565b6114e59190612daf565b9050808260030160008282546114fb9190612ca0565b9091555050426002830155600061151184612330565b90506001600160a01b0384166108fc61152a8484612ca0565b6040518115909202916000818181858888f19350505050158015611552573d6000803e3d6000fd5b5060405182906001600160a01b038616907f6dd401e61ba732582a5eba3d54ccc3afb3609cd3ac1a166d1d36f75fc0aedcda90600090a360405181906001600160a01b038616907f79d3df6837cc49ff0e09fd3258e6e45594e0703445bb06825e9d75156eaee8f090600090a350505050565b600054610100900460ff16158080156115e55750600054600160ff909116105b806115ff5750303b1580156115ff575060005460ff166001145b6116625760405162461bcd60e51b815260206004820152602e60248201527f496e697469616c697a61626c653a20636f6e747261637420697320616c72656160448201526d191e481a5b9a5d1a585b1a5e995960921b6064820152608401610b71565b6000805460ff191660011790558015611685576000805461ff0019166101001790555b60fb80546001600160a01b031916730b8bf5feb9fca57d9c5d27185ddf3017e99a2d3617905560ff805461ffff1916603c1790556301e133806101005562278d00610101556116d261247b565b6116da6124aa565b6116e26124d9565b8015610c0e576000805461ff0019169055604051600181527f7f26b83ff96e1f2b6a682f133852f6798a09c465da95921460cefb38474024989060200160405180910390a150565b611732611e02565b610d33612500565b6001600160a01b038116600090815261010360205260408120610a0b906122cf565b33600081815261010360205260408120600381015490919061177d836122cf565b6117879190612daf565b9050600081116117d95760405162461bcd60e51b815260206004820152601c60248201527f596f752068617665206e6f207374616b696e67206f7220656e646564000000006044820152606401610b71565b6001820154429060ff16156118485760405162461bcd60e51b815260206004820152602f60248201527f596f7572206163636f756e742069732064697361626c65642e20506c6561736560448201526e1031b7b73a30b1ba1030b236b4b71760891b6064820152608401610b71565b8061010154846002015461185c9190612ca0565b116118bb5760405162461bcd60e51b815260206004820152602960248201527f596f752063616e6e6f7420636c61696d20726577617264206265666f7265207460448201526834b6b2b634b6b4ba1760b91b6064820152608401610b71565b6118c78484848461253d565b6040516001600160a01b0385169083156108fc029084906000818181858888f193505050501580156118fd573d6000803e3d6000fd5b5050505050565b61193160405180608001604052806060815260200160001515815260200160008152602001600081525090565b6001600160a01b038216600090815261010360209081526040918290208251815460a09381028201840190945260808101848152909391928492849184018282801561199c57602002820191906000526020600020905b815481526020019060010190808311611988575b5050509183525050600182015460ff16151560208201526002820154604082015260039091015460609091015292915050565b6060600060fc805480602002602001604051908101604052809291908181526020018280548015611a2957602002820191906000526020600020905b81546001600160a01b03168152600190910190602001808311611a0b575b5050505050905060008151905060008167ffffffffffffffff811115611a5157611a51612a8d565b604051908082528060200260200182016040528015611a7a578160200160208202803683370190505b5090506000805b83811015611b1957611aac83868381518110611a9f57611a9f612c5b565b6020026020010151611d9d565b1515600114611b0757848181518110611ac757611ac7612c5b565b6020026020010151838381518110611ae157611ae1612c5b565b6001600160a01b039092166020928302919091019091015281611b0381612c87565b9250505b80611b1181612c87565b915050611a81565b5090949350505050565b6060600060fc805480602002602001604051908101604052809291908181526020018280548015611b7d57602002820191906000526020600020905b81546001600160a01b03168152600190910190602001808311611b5f575b5050505050905060008151905060008167ffffffffffffffff811115611ba557611ba5612a8d565b604051908082528060200260200182016040528015611bce578160200160208202803683370190505b5090506000805b83811015611b1957611bf383868381518110611a9f57611a9f612c5b565b1515600114611c7557611c1e858281518110611c1157611c11612c5b565b60200260200101516111c2565b15611c7557848181518110611c3557611c35612c5b565b6020026020010151838381518110611c4f57611c4f612c5b565b6001600160a01b039092166020928302919091019091015281611c7181612c87565b9250505b80611c7f81612c87565b915050611bd5565b611c8f611e02565b6001600160a01b038116611cf45760405162461bcd60e51b815260206004820152602660248201527f4f776e61626c653a206e6577206f776e657220697320746865207a65726f206160448201526564647265737360d01b6064820152608401610b71565b610c0e8161227d565b60fb54604051630935e01b60e21b81523360048201526001600160a01b03909116906324d7806c90602401602060405180830381865afa158015611d45573d6000803e3d6000fd5b505050506040513d601f19601f82011682018060405250810190611d699190612d4b565b611d855760405162461bcd60e51b8152600401610b7190612d6d565b60ff805461ffff191661ffff92909216919091179055565b6000805b8351811015611df857826001600160a01b0316848281518110611dc657611dc6612c5b565b60200260200101516001600160a01b031603611de6576001915050610a0b565b80611df081612c87565b915050611da1565b5060009392505050565b6065546001600160a01b03163314610d335760405162461bcd60e51b815260206004820181905260248201527f4f776e61626c653a2063616c6c6572206973206e6f7420746865206f776e65726044820152606401610b71565b6001600160a01b038116600090815261010360209081526040808320805482518185028101850190935280835290928492918491830182828015611ebf57602002820191906000526020600020905b815481526020019060010190808311611eab575b5050835193945042925060009150505b82811015611f575760006101046000868481518110611ef057611ef0612c5b565b6020908102919091018101518252810191909152604001600020805490915060ff1615611f44578281600401548260030154611f2c9190612ca0565b1115611f44576001810154611f419088612ca0565b96505b5080611f4f81612c87565b915050611ecf565b5050505050919050565b610c0e611e02565b7f4910fdfa16fed3260ed0e7147f7cc6da11a60208b5b9406d12a635614ffd91435460ff1615611fa157611f9c83612599565b505050565b826001600160a01b03166352d1902d6040518163ffffffff1660e01b8152600401602060405180830381865afa925050508015611ffb575060408051601f3d908101601f19168201909252611ff891810190612dc2565b60015b61205e5760405162461bcd60e51b815260206004820152602e60248201527f45524331393637557067726164653a206e657720696d706c656d656e7461746960448201526d6f6e206973206e6f74205555505360901b6064820152608401610b71565b600080516020612edd83398151915281146120cd5760405162461bcd60e51b815260206004820152602960248201527f45524331393637557067726164653a20756e737570706f727465642070726f786044820152681a58589b195555525160ba1b6064820152608401610b71565b50611f9c838383612635565b6120e1612660565b6033805460ff191690557f5db9ee0a495bf2e6ff9c91a7834c1ba4fdd244a5e8aa4e537bd38aeae4b073aa335b6040516001600160a01b03909116815260200160405180910390a1565b60fc8054600180820183557f371f36870d18f32a11fea0f144b021c8b407bb50f8e0267c711123f454b963c090910180546001600160a01b0319166001600160a01b038816908117909155915460008381526101036020908152604080832063ffffffff8516808552610104845291842081548088018355828652938520909301829055825464ffffffffff191661010090920260ff191691909117851765010000000000600160c81b0319166501000000000090960295909517815542600382018190556004820187905593810188905560028101805461ffff191661ffff891617905560fd805493959391928992612226908490612ca0565b909155505060405163ffffffff85168152859088906001600160a01b038b16907ff556991011e831bcfac4f406d547e5e32cdd98267efab83935230d5f8d02c4469060200160405180910390a45050505050505050565b606580546001600160a01b038381166001600160a01b0319831681179093556040519116919082907f8be0079c531659141344cd1fd0a4f28419497f9722a3daafe3b4186f6b6457e090600090a35050565b8054600090815b818161ffff1610156123295761230b848261ffff16815481106122fb576122fb612c5b565b90600052602060002001546126a9565b6123159084612ca0565b92508061232181612ddb565b9150506122d6565b5050919050565b6001600160a01b03811660009081526101036020908152604080832080548251818502810185019093528083529092849291849183018282801561239357602002820191906000526020600020905b81548152602001906001019080831161237f575b5050835193945042925060009150505b82811015611f5757600061010460008684815181106123c4576123c4612c5b565b6020908102919091018101518252810191909152604001600020805490915060ff16156124685782816004015482600301546124009190612ca0565b11156124685760018101546124159088612ca0565b815460ff1916808355600183015460405192995061010090910463ffffffff16916001600160a01b038b16907f091b6bc9d0d839f20a931895d4778e195eef19985b93ae2f0e25b67e4812521f90600090a45b508061247381612c87565b9150506123a3565b600054610100900460ff166124a25760405162461bcd60e51b8152600401610b7190612dfc565b610d3361272c565b600054610100900460ff166124d15760405162461bcd60e51b8152600401610b7190612dfc565b610d3361275f565b600054610100900460ff16610d335760405162461bcd60e51b8152600401610b7190612dfc565b61250861278f565b6033805460ff191660011790557f62e78cea01bee320cd4e420270b5ea74000d11b0c9f74754ebdbfc544b05a25861210e3390565b818360030160008282546125519190612ca0565b90915550506002830181905560405182906001600160a01b038616907f6dd401e61ba732582a5eba3d54ccc3afb3609cd3ac1a166d1d36f75fc0aedcda90600090a350505050565b6001600160a01b0381163b6126065760405162461bcd60e51b815260206004820152602d60248201527f455243313936373a206e657720696d706c656d656e746174696f6e206973206e60448201526c1bdd08184818dbdb9d1c9858dd609a1b6064820152608401610b71565b600080516020612edd83398151915280546001600160a01b0319166001600160a01b0392909216919091179055565b61263e836127d5565b60008251118061264b5750805b15611f9c5761265a8383612815565b50505050565b60335460ff16610d335760405162461bcd60e51b815260206004820152601460248201527314185d5cd8589b194e881b9bdd081c185d5cd95960621b6044820152606401610b71565b600081815261010460205260408120600381015442919083906126cc9084612daf565b6004830154600284015460018501549293506000926064916126f49161ffff90911690612d98565b6126fe9190612e47565b6127089190612e47565b9050612718828460040154612909565b6127229082612d98565b9695505050505050565b600054610100900460ff166127535760405162461bcd60e51b8152600401610b7190612dfc565b6033805460ff19169055565b600054610100900460ff166127865760405162461bcd60e51b8152600401610b7190612dfc565b610d333361227d565b60335460ff1615610d335760405162461bcd60e51b815260206004820152601060248201526f14185d5cd8589b194e881c185d5cd95960821b6044820152606401610b71565b6127de81612599565b6040516001600160a01b038216907fbc7cd75a20ee27fd9adebab32041f755214dbc6bffa90cc0225b39da2e5c2d3b90600090a250565b60606001600160a01b0383163b61287d5760405162461bcd60e51b815260206004820152602660248201527f416464726573733a2064656c65676174652063616c6c20746f206e6f6e2d636f6044820152651b9d1c9858dd60d21b6064820152608401610b71565b600080846001600160a01b0316846040516128989190612e8d565b600060405180830381855af49150503d80600081146128d3576040519150601f19603f3d011682016040523d82523d6000602084013e6128d8565b606091505b50915091506129008282604051806060016040528060278152602001612efd6027913961291f565b95945050505050565b600081831061291857816110dd565b5090919050565b6060831561292e5750816110dd565b6110dd83838151156129435781518083602001fd5b8060405162461bcd60e51b8152600401610b719190612ea9565b60006020828403121561296f57600080fd5b5035919050565b6020808252825182820181905260009190848201906040850190845b818110156109b95783516001600160a01b031683529284019291840191600101612992565b80356001600160a01b03811681146129ce57600080fd5b919050565b600080604083850312156129e657600080fd5b6129ef836129b7565b946020939093013593505050565b600060208284031215612a0f57600080fd5b6110dd826129b7565b60008060208385031215612a2b57600080fd5b823567ffffffffffffffff80821115612a4357600080fd5b818501915085601f830112612a5757600080fd5b813581811115612a6657600080fd5b8660208260051b8501011115612a7b57600080fd5b60209290920196919550909350505050565b634e487b7160e01b600052604160045260246000fd5b60008060408385031215612ab657600080fd5b612abf836129b7565b9150602083013567ffffffffffffffff80821115612adc57600080fd5b818501915085601f830112612af057600080fd5b813581811115612b0257612b02612a8d565b604051601f8201601f19908116603f01168101908382118183101715612b2a57612b2a612a8d565b81604052828152886020848701011115612b4357600080fd5b8260208601602083013760006020848301015280955050505050509250929050565b600080600060608486031215612b7a57600080fd5b612b83846129b7565b9250612b91602085016129b7565b9150604084013590509250925092565b600081518084526020808501945080840160005b83811015612bd157815187529582019590820190600101612bb5565b509495945050505050565b6020815260006110dd6020830184612ba1565b602081526000825160806020840152612c0b60a0840182612ba1565b905060208401511515604084015260408401516060840152606084015160808401528091505092915050565b600060208284031215612c4957600080fd5b813561ffff811681146110dd57600080fd5b634e487b7160e01b600052603260045260246000fd5b634e487b7160e01b600052601160045260246000fd5b600060018201612c9957612c99612c71565b5060010190565b80820180821115610a0b57610a0b612c71565b6020808252602c908201527f46756e6374696f6e206d7573742062652063616c6c6564207468726f7567682060408201526b19195b1959d85d1958d85b1b60a21b606082015260800190565b6020808252602c908201527f46756e6374696f6e206d7573742062652063616c6c6564207468726f7567682060408201526b6163746976652070726f787960a01b606082015260800190565b600060208284031215612d5d57600080fd5b815180151581146110dd57600080fd5b6020808252601190820152702cb7ba9030b932903737ba1030b236b4b760791b604082015260600190565b8082028115828204841417610a0b57610a0b612c71565b81810381811115610a0b57610a0b612c71565b600060208284031215612dd457600080fd5b5051919050565b600061ffff808316818103612df257612df2612c71565b6001019392505050565b6020808252602b908201527f496e697469616c697a61626c653a20636f6e7472616374206973206e6f74206960408201526a6e697469616c697a696e6760a81b606082015260800190565b600082612e6457634e487b7160e01b600052601260045260246000fd5b500490565b60005b83811015612e84578181015183820152602001612e6c565b50506000910152565b60008251612e9f818460208701612e69565b9190910192915050565b6020815260008251806020840152612ec8816040850160208701612e69565b601f01601f1916919091016040019291505056fe360894a13ba1a3210667c828492db98dca3e2076cc3735a920a3ca505d382bbc416464726573733a206c6f772d6c6576656c2064656c65676174652063616c6c206661696c6564a2646970667358221220920b2d64d505c8d95fedd0d6a59d5f04e0d3a8d0a329488602681688c156dc2364736f6c63430008120033",
  "linkReferences": {},
  "deployedLinkReferences": {}
}