{
  "_format": "hh-sol-artifact-1",
  "contractName": "PresaleUpgradeable",
  "sourceName": "contracts/PresaleUpgradeable.sol",
  "abi": [
    {
      "anonymous": false,
      "inputs": [
        {
          "indexed": false,
          "internalType": "address",
          "name": "previousAdmin",
          "type": "address"
        },
        {
          "indexed": false,
          "internalType": "address",
          "name": "newAdmin",
          "type": "address"
        }
      ],
      "name": "AdminChanged",
      "type": "event"
    },
    {
      "anonymous": false,
      "inputs": [
        {
          "indexed": true,
          "internalType": "address",
          "name": "beacon",
          "type": "address"
        }
      ],
      "name": "BeaconUpgraded",
      "type": "event"
    },
    {
      "anonymous": false,
      "inputs": [
        {
          "indexed": false,
          "internalType": "uint8",
          "name": "version",
          "type": "uint8"
        }
      ],
      "name": "Initialized",
      "type": "event"
    },
    {
      "anonymous": false,
      "inputs": [
        {
          "indexed": true,
          "internalType": "address",
          "name": "previousOwner",
          "type": "address"
        },
        {
          "indexed": true,
          "internalType": "address",
          "name": "newOwner",
          "type": "address"
        }
      ],
      "name": "OwnershipTransferred",
      "type": "event"
    },
    {
      "anonymous": false,
      "inputs": [
        {
          "indexed": false,
          "internalType": "address",
          "name": "account",
          "type": "address"
        }
      ],
      "name": "Paused",
      "type": "event"
    },
    {
      "anonymous": false,
      "inputs": [
        {
          "indexed": true,
          "internalType": "address",
          "name": "to",
          "type": "address"
        },
        {
          "indexed": true,
          "internalType": "uint256",
          "name": "tokenValue",
          "type": "uint256"
        },
        {
          "indexed": true,
          "internalType": "address",
          "name": "rewardTokenContract",
          "type": "address"
        }
      ],
      "name": "RewardTokenDistributed",
      "type": "event"
    },
    {
      "anonymous": false,
      "inputs": [
        {
          "indexed": true,
          "internalType": "address",
          "name": "from",
          "type": "address"
        },
        {
          "indexed": true,
          "internalType": "uint256",
          "name": "tokenValue",
          "type": "uint256"
        },
        {
          "indexed": true,
          "internalType": "uint256",
          "name": "ethValue",
          "type": "uint256"
        },
        {
          "indexed": false,
          "internalType": "string",
          "name": "currency",
          "type": "string"
        }
      ],
      "name": "TokenPurchased",
      "type": "event"
    },
    {
      "anonymous": false,
      "inputs": [
        {
          "indexed": false,
          "internalType": "address",
          "name": "account",
          "type": "address"
        }
      ],
      "name": "Unpaused",
      "type": "event"
    },
    {
      "anonymous": false,
      "inputs": [
        {
          "indexed": true,
          "internalType": "address",
          "name": "implementation",
          "type": "address"
        }
      ],
      "name": "Upgraded",
      "type": "event"
    },
    {
      "inputs": [],
      "name": "getMinContribution",
      "outputs": [
        {
          "internalType": "uint256",
          "name": "",
          "type": "uint256"
        }
      ],
      "stateMutability": "view",
      "type": "function"
    },
    {
      "inputs": [],
      "name": "initialize",
      "outputs": [],
      "stateMutability": "nonpayable",
      "type": "function"
    },
    {
      "inputs": [],
      "name": "owner",
      "outputs": [
        {
          "internalType": "address",
          "name": "",
          "type": "address"
        }
      ],
      "stateMutability": "view",
      "type": "function"
    },
    {
      "inputs": [],
      "name": "pauseAdmin",
      "outputs": [],
      "stateMutability": "nonpayable",
      "type": "function"
    },
    {
      "inputs": [],
      "name": "paused",
      "outputs": [
        {
          "internalType": "bool",
          "name": "",
          "type": "bool"
        }
      ],
      "stateMutability": "view",
      "type": "function"
    },
    {
      "inputs": [],
      "name": "proxiableUUID",
      "outputs": [
        {
          "internalType": "bytes32",
          "name": "",
          "type": "bytes32"
        }
      ],
      "stateMutability": "view",
      "type": "function"
    },
    {
      "inputs": [],
      "name": "renounceOwnership",
      "outputs": [],
      "stateMutability": "nonpayable",
      "type": "function"
    },
    {
      "inputs": [
        {
          "internalType": "uint256",
          "name": "_valueInUSD",
          "type": "uint256"
        }
      ],
      "name": "setMinContribution",
      "outputs": [],
      "stateMutability": "nonpayable",
      "type": "function"
    },
    {
      "inputs": [
        {
          "internalType": "address",
          "name": "_address",
          "type": "address"
        },
        {
          "internalType": "uint256",
          "name": "_value",
          "type": "uint256"
        }
      ],
      "name": "transferETH",
      "outputs": [],
      "stateMutability": "nonpayable",
      "type": "function"
    },
    {
      "inputs": [
        {
          "internalType": "address",
          "name": "newOwner",
          "type": "address"
        }
      ],
      "name": "transferOwnership",
      "outputs": [],
      "stateMutability": "nonpayable",
      "type": "function"
    },
    {
      "inputs": [],
      "name": "unpauseAdmin",
      "outputs": [],
      "stateMutability": "nonpayable",
      "type": "function"
    },
    {
      "inputs": [
        {
          "internalType": "address",
          "name": "newImplementation",
          "type": "address"
        }
      ],
      "name": "upgradeTo",
      "outputs": [],
      "stateMutability": "nonpayable",
      "type": "function"
    },
    {
      "inputs": [
        {
          "internalType": "address",
          "name": "newImplementation",
          "type": "address"
        },
        {
          "internalType": "bytes",
          "name": "data",
          "type": "bytes"
        }
      ],
      "name": "upgradeToAndCall",
      "outputs": [],
      "stateMutability": "payable",
      "type": "function"
    },
    {
      "inputs": [],
      "name": "withdrawETH",
      "outputs": [],
      "stateMutability": "nonpayable",
      "type": "function"
    },
    {
      "inputs": [
        {
          "internalType": "address",
          "name": "_tokenAddress",
          "type": "address"
        },
        {
          "internalType": "uint256",
          "name": "_value",
          "type": "uint256"
        }
      ],
      "name": "withdrawTokens",
      "outputs": [],
      "stateMutability": "nonpayable",
      "type": "function"
    },
    {
      "stateMutability": "payable",
      "type": "receive"
    }
  ],
  "bytecode": "0x60a06040523060805234801561001457600080fd5b5060805161120a61004c60003960008181610339015281816103820152818161042f0152818161046f0152610502015261120a6000f3fe6080604052600436106100ec5760003560e01c80636cff74731161008a5780638da5cb5b116100595780638da5cb5b1461022d578063db5184e614610255578063e086e5ec1461026a578063f2fde38b1461027f57600080fd5b80636cff7473146101cd578063715018a6146101e35780637b1a4909146101f85780638129fc1c1461021857600080fd5b8063473b0d46116100c6578063473b0d461461014f5780634f1ef2861461016f57806352d1902d146101825780635c975abb146101aa57600080fd5b806306b091f9146100f85780632f11d6531461011a5780633659cfe61461012f57600080fd5b366100f357005b600080fd5b34801561010457600080fd5b50610118610113366004610ec6565b61029f565b005b34801561012657600080fd5b5061011861031d565b34801561013b57600080fd5b5061011861014a366004610ef0565b61032f565b34801561015b57600080fd5b5061011861016a366004610f0b565b610417565b61011861017d366004610f3a565b610425565b34801561018e57600080fd5b506101976104f5565b6040519081526020015b60405180910390f35b3480156101b657600080fd5b5060655460ff1660405190151581526020016101a1565b3480156101d957600080fd5b5061010554610197565b3480156101ef57600080fd5b506101186105a8565b34801561020457600080fd5b50610118610213366004610ec6565b6105ba565b34801561022457600080fd5b506101186105f8565b34801561023957600080fd5b506033546040516001600160a01b0390911681526020016101a1565b34801561026157600080fd5b50610118610782565b34801561027657600080fd5b50610118610792565b34801561028b57600080fd5b5061011861029a366004610ef0565b6107c6565b6102a761083c565b60405163a9059cbb60e01b8152336004820152602481018290526001600160a01b0383169063a9059cbb906044016020604051808303816000875af11580156102f4573d6000803e3d6000fd5b505050506040513d601f19601f820116820180604052508101906103189190610ffc565b505050565b61032561083c565b61032d610896565b565b6001600160a01b037f00000000000000000000000000000000000000000000000000000000000000001630036103805760405162461bcd60e51b81526004016103779061101e565b60405180910390fd5b7f00000000000000000000000000000000000000000000000000000000000000006001600160a01b03166103c960008051602061118e833981519152546001600160a01b031690565b6001600160a01b0316146103ef5760405162461bcd60e51b81526004016103779061106a565b6103f8816108f0565b60408051600080825260208201909252610414918391906108f8565b50565b61041f61083c565b61010555565b6001600160a01b037f000000000000000000000000000000000000000000000000000000000000000016300361046d5760405162461bcd60e51b81526004016103779061101e565b7f00000000000000000000000000000000000000000000000000000000000000006001600160a01b03166104b660008051602061118e833981519152546001600160a01b031690565b6001600160a01b0316146104dc5760405162461bcd60e51b81526004016103779061106a565b6104e5826108f0565b6104f1828260016108f8565b5050565b6000306001600160a01b037f000000000000000000000000000000000000000000000000000000000000000016146105955760405162461bcd60e51b815260206004820152603860248201527f555550535570677261646561626c653a206d757374206e6f742062652063616c60448201527f6c6564207468726f7567682064656c656761746563616c6c00000000000000006064820152608401610377565b5060008051602061118e83398151915290565b6105b061083c565b61032d6000610a63565b6105c261083c565b6040516001600160a01b0383169082156108fc029083906000818181858888f19350505050158015610318573d6000803e3d6000fd5b600054610100900460ff16158080156106185750600054600160ff909116105b806106325750303b158015610632575060005460ff166001145b6106955760405162461bcd60e51b815260206004820152602e60248201527f496e697469616c697a61626c653a20636f6e747261637420697320616c72656160448201526d191e481a5b9a5d1a585b1a5e995960921b6064820152608401610377565b6000805460ff1916600117905580156106b8576000805461ff0019166101001790555b60fc80546001600160a01b031990811673b35963e0ab2141cd4ab743e7a35d8772f3cf04471790915560fd805490911673f91e1ed00f015c6be3fbc6b0d84fbaef005ec5b517905561010980546201010062ffffff199091161790556801158e460913d000006101055561072a610ab5565b610732610ae4565b61073a610b13565b8015610414576000805461ff0019169055604051600181527f7f26b83ff96e1f2b6a682f133852f6798a09c465da95921460cefb38474024989060200160405180910390a150565b61078a61083c565b61032d610b3a565b61079a61083c565b60405133904780156108fc02916000818181858888f19350505050158015610414573d6000803e3d6000fd5b6107ce61083c565b6001600160a01b0381166108335760405162461bcd60e51b815260206004820152602660248201527f4f776e61626c653a206e6577206f776e657220697320746865207a65726f206160448201526564647265737360d01b6064820152608401610377565b61041481610a63565b6033546001600160a01b0316331461032d5760405162461bcd60e51b815260206004820181905260248201527f4f776e61626c653a2063616c6c6572206973206e6f7420746865206f776e65726044820152606401610377565b61089e610b73565b6065805460ff191660011790557f62e78cea01bee320cd4e420270b5ea74000d11b0c9f74754ebdbfc544b05a2586108d33390565b6040516001600160a01b03909116815260200160405180910390a1565b61041461083c565b7f4910fdfa16fed3260ed0e7147f7cc6da11a60208b5b9406d12a635614ffd91435460ff161561092b5761031883610bb9565b826001600160a01b03166352d1902d6040518163ffffffff1660e01b8152600401602060405180830381865afa925050508015610985575060408051601f3d908101601f19168201909252610982918101906110b6565b60015b6109e85760405162461bcd60e51b815260206004820152602e60248201527f45524331393637557067726164653a206e657720696d706c656d656e7461746960448201526d6f6e206973206e6f74205555505360901b6064820152608401610377565b60008051602061118e8339815191528114610a575760405162461bcd60e51b815260206004820152602960248201527f45524331393637557067726164653a20756e737570706f727465642070726f786044820152681a58589b195555525160ba1b6064820152608401610377565b50610318838383610c55565b603380546001600160a01b038381166001600160a01b0319831681179093556040519116919082907f8be0079c531659141344cd1fd0a4f28419497f9722a3daafe3b4186f6b6457e090600090a35050565b600054610100900460ff16610adc5760405162461bcd60e51b8152600401610377906110cf565b61032d610c80565b600054610100900460ff16610b0b5760405162461bcd60e51b8152600401610377906110cf565b61032d610cb3565b600054610100900460ff1661032d5760405162461bcd60e51b8152600401610377906110cf565b610b42610ce3565b6065805460ff191690557f5db9ee0a495bf2e6ff9c91a7834c1ba4fdd244a5e8aa4e537bd38aeae4b073aa336108d3565b60655460ff161561032d5760405162461bcd60e51b815260206004820152601060248201526f14185d5cd8589b194e881c185d5cd95960821b6044820152606401610377565b6001600160a01b0381163b610c265760405162461bcd60e51b815260206004820152602d60248201527f455243313936373a206e657720696d706c656d656e746174696f6e206973206e60448201526c1bdd08184818dbdb9d1c9858dd609a1b6064820152608401610377565b60008051602061118e83398151915280546001600160a01b0319166001600160a01b0392909216919091179055565b610c5e83610d2c565b600082511180610c6b5750805b1561031857610c7a8383610d6c565b50505050565b600054610100900460ff16610ca75760405162461bcd60e51b8152600401610377906110cf565b6065805460ff19169055565b600054610100900460ff16610cda5760405162461bcd60e51b8152600401610377906110cf565b61032d33610a63565b60655460ff1661032d5760405162461bcd60e51b815260206004820152601460248201527314185d5cd8589b194e881b9bdd081c185d5cd95960621b6044820152606401610377565b610d3581610bb9565b6040516001600160a01b038216907fbc7cd75a20ee27fd9adebab32041f755214dbc6bffa90cc0225b39da2e5c2d3b90600090a250565b60606001600160a01b0383163b610dd45760405162461bcd60e51b815260206004820152602660248201527f416464726573733a2064656c65676174652063616c6c20746f206e6f6e2d636f6044820152651b9d1c9858dd60d21b6064820152608401610377565b600080846001600160a01b031684604051610def919061113e565b600060405180830381855af49150503d8060008114610e2a576040519150601f19603f3d011682016040523d82523d6000602084013e610e2f565b606091505b5091509150610e5782826040518060600160405280602781526020016111ae60279139610e60565b95945050505050565b60608315610e6f575081610e79565b610e798383610e80565b9392505050565b815115610e905781518083602001fd5b8060405162461bcd60e51b8152600401610377919061115a565b80356001600160a01b0381168114610ec157600080fd5b919050565b60008060408385031215610ed957600080fd5b610ee283610eaa565b946020939093013593505050565b600060208284031215610f0257600080fd5b610e7982610eaa565b600060208284031215610f1d57600080fd5b5035919050565b634e487b7160e01b600052604160045260246000fd5b60008060408385031215610f4d57600080fd5b610f5683610eaa565b9150602083013567ffffffffffffffff80821115610f7357600080fd5b818501915085601f830112610f8757600080fd5b813581811115610f9957610f99610f24565b604051601f8201601f19908116603f01168101908382118183101715610fc157610fc1610f24565b81604052828152886020848701011115610fda57600080fd5b8260208601602083013760006020848301015280955050505050509250929050565b60006020828403121561100e57600080fd5b81518015158114610e7957600080fd5b6020808252602c908201527f46756e6374696f6e206d7573742062652063616c6c6564207468726f7567682060408201526b19195b1959d85d1958d85b1b60a21b606082015260800190565b6020808252602c908201527f46756e6374696f6e206d7573742062652063616c6c6564207468726f7567682060408201526b6163746976652070726f787960a01b606082015260800190565b6000602082840312156110c857600080fd5b5051919050565b6020808252602b908201527f496e697469616c697a61626c653a20636f6e7472616374206973206e6f74206960408201526a6e697469616c697a696e6760a81b606082015260800190565b60005b8381101561113557818101518382015260200161111d565b50506000910152565b6000825161115081846020870161111a565b9190910192915050565b602081526000825180602084015261117981604085016020870161111a565b601f01601f1916919091016040019291505056fe360894a13ba1a3210667c828492db98dca3e2076cc3735a920a3ca505d382bbc416464726573733a206c6f772d6c6576656c2064656c65676174652063616c6c206661696c6564a26469706673582212204da4d3bdff59af716b00e10ea453530188031908626f5af2db72b4575b47a1f964736f6c63430008110033",
  "linkReferences": {},
  "deployedLinkReferences": {}
}