{
  "_format": "hh-sol-artifact-1",
  "contractName": "ReferralV3Upgradeable",
  "sourceName": "contracts/ROIV1Upgradeable.sol",
  "abi": [
    {
      "anonymous": false,
      "inputs": [
        {
          "indexed": false,
          "internalType": "address",
          "name": "previousAdmin",
          "type": "address"
        },
        {
          "indexed": false,
          "internalType": "address",
          "name": "newAdmin",
          "type": "address"
        }
      ],
      "name": "AdminChanged",
      "type": "event"
    },
    {
      "anonymous": false,
      "inputs": [
        {
          "indexed": true,
          "internalType": "address",
          "name": "beacon",
          "type": "address"
        }
      ],
      "name": "BeaconUpgraded",
      "type": "event"
    },
    {
      "anonymous": false,
      "inputs": [
        {
          "indexed": false,
          "internalType": "uint8",
          "name": "version",
          "type": "uint8"
        }
      ],
      "name": "Initialized",
      "type": "event"
    },
    {
      "anonymous": false,
      "inputs": [
        {
          "indexed": true,
          "internalType": "address",
          "name": "previousOwner",
          "type": "address"
        },
        {
          "indexed": true,
          "internalType": "address",
          "name": "newOwner",
          "type": "address"
        }
      ],
      "name": "OwnershipTransferred",
      "type": "event"
    },
    {
      "anonymous": false,
      "inputs": [
        {
          "indexed": false,
          "internalType": "uint32",
          "name": "_owner",
          "type": "uint32"
        },
        {
          "indexed": false,
          "internalType": "uint32",
          "name": "_roiId",
          "type": "uint32"
        },
        {
          "indexed": false,
          "internalType": "uint256",
          "name": "_value",
          "type": "uint256"
        },
        {
          "indexed": false,
          "internalType": "uint16",
          "name": "_rewardRate",
          "type": "uint16"
        }
      ],
      "name": "ROIActivated",
      "type": "event"
    },
    {
      "anonymous": false,
      "inputs": [
        {
          "indexed": true,
          "internalType": "uint256",
          "name": "_owner",
          "type": "uint256"
        },
        {
          "indexed": true,
          "internalType": "uint256",
          "name": "_rewardRate",
          "type": "uint256"
        }
      ],
      "name": "ROIClaimed",
      "type": "event"
    },
    {
      "anonymous": false,
      "inputs": [
        {
          "indexed": false,
          "internalType": "uint32",
          "name": "_owner",
          "type": "uint32"
        },
        {
          "indexed": false,
          "internalType": "uint32",
          "name": "_roiId",
          "type": "uint32"
        }
      ],
      "name": "ROIDeactivated",
      "type": "event"
    },
    {
      "anonymous": false,
      "inputs": [
        {
          "indexed": true,
          "internalType": "address",
          "name": "implementation",
          "type": "address"
        }
      ],
      "name": "Upgraded",
      "type": "event"
    },
    {
      "inputs": [
        {
          "internalType": "uint32",
          "name": "_id",
          "type": "uint32"
        },
        {
          "internalType": "uint256",
          "name": "_value",
          "type": "uint256"
        },
        {
          "internalType": "uint256",
          "name": "_currentTime",
          "type": "uint256"
        }
      ],
      "name": "activateROIAdmin",
      "outputs": [
        {
          "internalType": "uint32",
          "name": "_roiId",
          "type": "uint32"
        }
      ],
      "stateMutability": "nonpayable",
      "type": "function"
    },
    {
      "inputs": [
        {
          "internalType": "uint32",
          "name": "_id",
          "type": "uint32"
        }
      ],
      "name": "claimROI",
      "outputs": [
        {
          "internalType": "uint256",
          "name": "",
          "type": "uint256"
        }
      ],
      "stateMutability": "nonpayable",
      "type": "function"
    },
    {
      "inputs": [],
      "name": "decimals",
      "outputs": [
        {
          "internalType": "uint16",
          "name": "",
          "type": "uint16"
        }
      ],
      "stateMutability": "view",
      "type": "function"
    },
    {
      "inputs": [
        {
          "internalType": "uint32",
          "name": "_roiID",
          "type": "uint32"
        }
      ],
      "name": "getROIAccount",
      "outputs": [
        {
          "components": [
            {
              "internalType": "uint32",
              "name": "id",
              "type": "uint32"
            },
            {
              "internalType": "bool",
              "name": "isActive",
              "type": "bool"
            },
            {
              "internalType": "uint32",
              "name": "ownerId",
              "type": "uint32"
            },
            {
              "internalType": "uint256",
              "name": "value",
              "type": "uint256"
            },
            {
              "internalType": "uint16",
              "name": "roiRate",
              "type": "uint16"
            },
            {
              "internalType": "uint256",
              "name": "startTime",
              "type": "uint256"
            },
            {
              "internalType": "uint256",
              "name": "duration",
              "type": "uint256"
            }
          ],
          "internalType": "struct ReferralV3Upgradeable.StructROI",
          "name": "",
          "type": "tuple"
        }
      ],
      "stateMutability": "view",
      "type": "function"
    },
    {
      "inputs": [
        {
          "internalType": "uint32",
          "name": "_id",
          "type": "uint32"
        }
      ],
      "name": "getUserIDTotalROI",
      "outputs": [
        {
          "internalType": "uint256",
          "name": "",
          "type": "uint256"
        }
      ],
      "stateMutability": "view",
      "type": "function"
    },
    {
      "inputs": [],
      "name": "initialize",
      "outputs": [],
      "stateMutability": "nonpayable",
      "type": "function"
    },
    {
      "inputs": [],
      "name": "isPayROI",
      "outputs": [
        {
          "internalType": "bool",
          "name": "",
          "type": "bool"
        }
      ],
      "stateMutability": "view",
      "type": "function"
    },
    {
      "inputs": [],
      "name": "owner",
      "outputs": [
        {
          "internalType": "address",
          "name": "",
          "type": "address"
        }
      ],
      "stateMutability": "view",
      "type": "function"
    },
    {
      "inputs": [],
      "name": "proxiableUUID",
      "outputs": [
        {
          "internalType": "bytes32",
          "name": "",
          "type": "bytes32"
        }
      ],
      "stateMutability": "view",
      "type": "function"
    },
    {
      "inputs": [],
      "name": "renounceOwnership",
      "outputs": [],
      "stateMutability": "nonpayable",
      "type": "function"
    },
    {
      "inputs": [
        {
          "internalType": "address",
          "name": "_address",
          "type": "address"
        },
        {
          "internalType": "uint256",
          "name": "_value",
          "type": "uint256"
        }
      ],
      "name": "sendETHAdmin",
      "outputs": [],
      "stateMutability": "nonpayable",
      "type": "function"
    },
    {
      "inputs": [
        {
          "internalType": "uint16",
          "name": "_roiRateInDecimals",
          "type": "uint16"
        },
        {
          "internalType": "uint256",
          "name": "_roiDurationInDays",
          "type": "uint256"
        },
        {
          "internalType": "uint256",
          "name": "_roiClaimTimelimitInSeconds",
          "type": "uint256"
        }
      ],
      "name": "setROI",
      "outputs": [],
      "stateMutability": "nonpayable",
      "type": "function"
    },
    {
      "inputs": [
        {
          "internalType": "uint32",
          "name": "_count",
          "type": "uint32"
        }
      ],
      "name": "setROIIDCount",
      "outputs": [],
      "stateMutability": "nonpayable",
      "type": "function"
    },
    {
      "inputs": [],
      "name": "totalROIIDs",
      "outputs": [
        {
          "internalType": "uint32",
          "name": "",
          "type": "uint32"
        }
      ],
      "stateMutability": "view",
      "type": "function"
    },
    {
      "inputs": [],
      "name": "totalROIPaid",
      "outputs": [
        {
          "internalType": "uint256",
          "name": "",
          "type": "uint256"
        }
      ],
      "stateMutability": "view",
      "type": "function"
    },
    {
      "inputs": [],
      "name": "totalROIValue",
      "outputs": [
        {
          "internalType": "uint256",
          "name": "",
          "type": "uint256"
        }
      ],
      "stateMutability": "view",
      "type": "function"
    },
    {
      "inputs": [
        {
          "internalType": "address",
          "name": "newOwner",
          "type": "address"
        }
      ],
      "name": "transferOwnership",
      "outputs": [],
      "stateMutability": "nonpayable",
      "type": "function"
    },
    {
      "inputs": [
        {
          "internalType": "address",
          "name": "newImplementation",
          "type": "address"
        }
      ],
      "name": "upgradeTo",
      "outputs": [],
      "stateMutability": "nonpayable",
      "type": "function"
    },
    {
      "inputs": [
        {
          "internalType": "address",
          "name": "newImplementation",
          "type": "address"
        },
        {
          "internalType": "bytes",
          "name": "data",
          "type": "bytes"
        }
      ],
      "name": "upgradeToAndCall",
      "outputs": [],
      "stateMutability": "payable",
      "type": "function"
    },
    {
      "inputs": [],
      "name": "withdrawETHAdmin",
      "outputs": [],
      "stateMutability": "nonpayable",
      "type": "function"
    },
    {
      "inputs": [
        {
          "internalType": "address",
          "name": "_tokenAddress",
          "type": "address"
        },
        {
          "internalType": "uint256",
          "name": "_value",
          "type": "uint256"
        }
      ],
      "name": "withdrawTokensAdmin",
      "outputs": [],
      "stateMutability": "nonpayable",
      "type": "function"
    },
    {
      "stateMutability": "payable",
      "type": "receive"
    }
  ],
  "bytecode": "0x60a06040523060805234801561001457600080fd5b5060805161219961004c6000396000818161057b015281816105c401528181610660015281816106a0015261073301526121996000f3fe60806040526004361061012e5760003560e01c80638da5cb5b116100ab578063bf46de631161006f578063bf46de6314610325578063c3ab5ebf14610345578063c82801ca14610481578063d895af2c146104a1578063eaec6364146104c1578063f2fde38b146104d757600080fd5b80638da5cb5b1461025a57806398c7438e14610282578063a0b6105f146102b7578063a1b80175146102d7578063af2f39d1146102fb57600080fd5b80634f1ef286116100f25780634f1ef286146101e857806352d1902d146101fb578063715018a614610210578063770ceeb1146102255780638129fc1c1461024557600080fd5b80630b243dad1461013a57806330abbcc51461015c578063313ce5671461018557806335759788146101b35780633659cfe6146101c857600080fd5b3661013557005b600080fd5b34801561014657600080fd5b5061015a6101553660046118a4565b6104f7565b005b34801561016857600080fd5b5061017260ca5481565b6040519081526020015b60405180910390f35b34801561019157600080fd5b5060cc546101a09061ffff1681565b60405161ffff909116815260200161017c565b3480156101bf57600080fd5b5061015a61053a565b3480156101d457600080fd5b5061015a6101e33660046118d0565b610571565b61015a6101f6366004611986565b610656565b34801561020757600080fd5b50610172610726565b34801561021c57600080fd5b5061015a6107d9565b34801561023157600080fd5b50610172610240366004611a2b565b6107ed565b34801561025157600080fd5b5061015a6107fe565b34801561026657600080fd5b506033546040516001600160a01b03909116815260200161017c565b34801561028e57600080fd5b506102a261029d366004611a48565b610960565b60405163ffffffff909116815260200161017c565b3480156102c357600080fd5b5061015a6102d23660046118a4565b610a1b565b3480156102e357600080fd5b5060c9546102a290600160a01b900463ffffffff1681565b34801561030757600080fd5b5060cf546103159060ff1681565b604051901515815260200161017c565b34801561033157600080fd5b50610172610340366004611a2b565b610a94565b34801561035157600080fd5b5061041b610360366004611a2b565b6040805160e081018252600080825260208201819052918101829052606081018290526080810182905260a0810182905260c08101919091525063ffffffff908116600090815260d06020908152604091829020825160e0810184528154808616825260ff640100000000820416151593820193909352650100000000009092049093169181019190915260018201546060820152600282015461ffff166080820152600382015460a082015260049091015460c082015290565b60405161017c9190600060e08201905063ffffffff808451168352602084015115156020840152806040850151166040840152506060830151606083015261ffff608084015116608083015260a083015160a083015260c083015160c083015292915050565b34801561048d57600080fd5b5061015a61049c366004611a7d565b610a9f565b3480156104ad57600080fd5b5061015a6104bc366004611a2b565b610b7b565b3480156104cd57600080fd5b5061017260cb5481565b3480156104e357600080fd5b5061015a6104f23660046118d0565b610c4e565b6104ff610cc4565b6040516001600160a01b0383169082156108fc029083906000818181858888f19350505050158015610535573d6000803e3d6000fd5b505050565b610542610cc4565b60405133904780156108fc02916000818181858888f1935050505015801561056e573d6000803e3d6000fd5b50565b6001600160a01b037f00000000000000000000000000000000000000000000000000000000000000001630036105c25760405162461bcd60e51b81526004016105b990611aa4565b60405180910390fd5b7f00000000000000000000000000000000000000000000000000000000000000006001600160a01b031661060b60008051602061211d833981519152546001600160a01b031690565b6001600160a01b0316146106315760405162461bcd60e51b81526004016105b990611af0565b61063a81610d1e565b6040805160008082526020820190925261056e91839190610d26565b6001600160a01b037f000000000000000000000000000000000000000000000000000000000000000016300361069e5760405162461bcd60e51b81526004016105b990611aa4565b7f00000000000000000000000000000000000000000000000000000000000000006001600160a01b03166106e760008051602061211d833981519152546001600160a01b031690565b6001600160a01b03161461070d5760405162461bcd60e51b81526004016105b990611af0565b61071682610d1e565b61072282826001610d26565b5050565b6000306001600160a01b037f000000000000000000000000000000000000000000000000000000000000000016146107c65760405162461bcd60e51b815260206004820152603860248201527f555550535570677261646561626c653a206d757374206e6f742062652063616c60448201527f6c6564207468726f7567682064656c656761746563616c6c000000000000000060648201526084016105b9565b5060008051602061211d83398151915290565b6107e1610cc4565b6107eb6000610e91565b565b60006107f882610ee3565b92915050565b600054610100900460ff161580801561081e5750600054600160ff909116105b806108385750303b158015610838575060005460ff166001145b61089b5760405162461bcd60e51b815260206004820152602e60248201527f496e697469616c697a61626c653a20636f6e747261637420697320616c72656160448201526d191e481a5b9a5d1a585b1a5e995960921b60648201526084016105b9565b6000805460ff1916600117905580156108be576000805461ff0019166101001790555b60c980546001600160a01b03191673286d6392042b4d7180fd6d20f8d35c877681577417905560cc80546303e803e863ffffffff1990911617905563020f580060cd556201518060ce556109106113b6565b6109186113e5565b801561056e576000805461ff0019169055604051600181527f7f26b83ff96e1f2b6a682f133852f6798a09c465da95921460cefb38474024989060200160405180910390a150565b60c98054600091600160a01b90910463ffffffff1690601461098183611b52565b91906101000a81548163ffffffff021916908363ffffffff1602179055509050610a148482858563ffffffff928316600090815260d060205260409020805494909316650100000000000268ffffffffff000000001990941693909317640100000000178255600182015560cc5460028201805461ffff191661ffff620100009093049290921691909117905560030155565b9392505050565b610a23610cc4565b60405163a9059cbb60e01b8152336004820152602481018290526001600160a01b0383169063a9059cbb906044016020604051808303816000875af1158015610a70573d6000803e3d6000fd5b505050506040513d601f19601f820116820180604052508101906105359190611b8a565b60006107f88261140c565b60c954604051630935e01b60e21b81523360048201526001600160a01b03909116906324d7806c90602401602060405180830381865afa158015610ae7573d6000803e3d6000fd5b505050506040513d601f19601f82011682018060405250810190610b0b9190611b8a565b610b4c5760405162461bcd60e51b81526020600482015260126024820152712cb7ba9030b932903737ba1030b236b4b71760711b60448201526064016105b9565b60cc805463ffff000019166201000061ffff861602179055610b718262015180611ba5565b60cd5560ce555050565b60c954604051630935e01b60e21b81523360048201526001600160a01b03909116906324d7806c90602401602060405180830381865afa158015610bc3573d6000803e3d6000fd5b505050506040513d601f19601f82011682018060405250810190610be79190611b8a565b610c285760405162461bcd60e51b81526020600482015260126024820152712cb7ba9030b932903737ba1030b236b4b71760711b60448201526064016105b9565b60c9805463ffffffff909216600160a01b0263ffffffff60a01b19909216919091179055565b610c56610cc4565b6001600160a01b038116610cbb5760405162461bcd60e51b815260206004820152602660248201527f4f776e61626c653a206e6577206f776e657220697320746865207a65726f206160448201526564647265737360d01b60648201526084016105b9565b61056e81610e91565b6033546001600160a01b031633146107eb5760405162461bcd60e51b815260206004820181905260248201527f4f776e61626c653a2063616c6c6572206973206e6f7420746865206f776e657260448201526064016105b9565b61056e610cc4565b7f4910fdfa16fed3260ed0e7147f7cc6da11a60208b5b9406d12a635614ffd91435460ff1615610d595761053583611626565b826001600160a01b03166352d1902d6040518163ffffffff1660e01b8152600401602060405180830381865afa925050508015610db3575060408051601f3d908101601f19168201909252610db091810190611bbc565b60015b610e165760405162461bcd60e51b815260206004820152602e60248201527f45524331393637557067726164653a206e657720696d706c656d656e7461746960448201526d6f6e206973206e6f74205555505360901b60648201526084016105b9565b60008051602061211d8339815191528114610e855760405162461bcd60e51b815260206004820152602960248201527f45524331393637557067726164653a20756e737570706f727465642070726f786044820152681a58589b195555525160ba1b60648201526084016105b9565b506105358383836116c2565b603380546001600160a01b038381166001600160a01b0319831681179093556040519116919082907f8be0079c531659141344cd1fd0a4f28419497f9722a3daafe3b4186f6b6457e090600090a35050565b60008060c960009054906101000a90046001600160a01b03166001600160a01b03166323442c606040518163ffffffff1660e01b8152600401602060405180830381865afa158015610f39573d6000803e3d6000fd5b505050506040513d601f19601f82011682018060405250810190610f5d9190611be0565b604051632100978960e01b815263ffffffff851660048201526001600160a01b039190911690632100978990602401600060405180830381865afa158015610fa9573d6000803e3d6000fd5b505050506040513d6000823e601f3d908101601f19168201604052610fd19190810190611d78565b60a081015190915042906001600160a01b031633146110325760405162461bcd60e51b815260206004820152601d60248201527f596f7520617265206e6f74206f776e6572206f6620746869732069642e00000060448201526064016105b9565b60ce54826103c00151611045919061200d565b4210156110a45760405162461bcd60e51b815260206004820152602760248201527f596f7520726f6920636c61696d2074696d656c696d6974206973206e6f74206f6044820152660eccae440f2cad60cb1b60648201526084016105b9565b60006110af8561140c565b905082610300015160026110c39190611ba5565b836102e00151111580156110f657506103008301516110e3906002611ba5565b81846102e001516110f4919061200d565b105b156112445780836102e00181815161110e919061200d565b9052506103a08301805182919061112690839061200d565b9052506103c0830182905260c9546040805163011a216360e51b8152905192955085926001600160a01b03909216916323442c60916004808201926020929091908290030181865afa158015611180573d6000803e3d6000fd5b505050506040513d601f19601f820116820180604052508101906111a49190611be0565b604051633666085760e11b815263ffffffff87166004820152602481018690526001600160a01b039190911690636ccc10ae90604401600060405180830381600087803b1580156111f457600080fd5b505af1158015611208573d6000803e3d6000fd5b505060405186925063ffffffff881691507f7cd8783637a6bf8d3b4b69973a28720cfb0f5abc55d8b85dde1732d8f22c0efc90600090a36113ae565b610300830151611255906002611ba5565b836102e00151116113ae576000836102e00151846103000151600261127a9190611ba5565b6112849190612020565b905083610300015160026112989190611ba5565b6102e085015260c9546040805163011a216360e51b8152905192965086926001600160a01b03909216916323442c60916004808201926020929091908290030181865afa1580156112ed573d6000803e3d6000fd5b505050506040513d601f19601f820116820180604052508101906113119190611be0565b604051633666085760e11b815263ffffffff88166004820152602481018790526001600160a01b039190911690636ccc10ae90604401600060405180830381600087803b15801561136157600080fd5b505af1158015611375573d6000803e3d6000fd5b505060405187925063ffffffff891691507f7cd8783637a6bf8d3b4b69973a28720cfb0f5abc55d8b85dde1732d8f22c0efc90600090a3505b505050919050565b600054610100900460ff166113dd5760405162461bcd60e51b81526004016105b990612033565b6107eb6116ed565b600054610100900460ff166107eb5760405162461bcd60e51b81526004016105b990612033565b60008060c960009054906101000a90046001600160a01b03166001600160a01b03166323442c606040518163ffffffff1660e01b8152600401602060405180830381865afa158015611462573d6000803e3d6000fd5b505050506040513d601f19601f820116820180604052508101906114869190611be0565b604051632100978960e01b815263ffffffff851660048201526001600160a01b039190911690632100978990602401600060405180830381865afa1580156114d2573d6000803e3d6000fd5b505050506040513d6000823e601f3d908101601f191682016040526114fa9190810190611d78565b61038081015180516103008301519293509091611518906002611ba5565b836102e0015110801561152b5750600081115b1561161b5760005b818161ffff16101561161557600060d06000858461ffff168151811061155b5761155b61207e565b602002602001015163ffffffff1663ffffffff16815260200190815260200160002090508060000160049054906101000a900460ff16156116025760cc54600182015460009161ffff808216926115bb9262010000900490911690611ba5565b6115c59190612094565b905060008260030154426115d99190612020565b9050620151806115e98284611ba5565b6115f39190612094565b6115fd908961200d565b975050505b508061160d816120b6565b915050611533565b506113ae565b506000949350505050565b6001600160a01b0381163b6116935760405162461bcd60e51b815260206004820152602d60248201527f455243313936373a206e657720696d706c656d656e746174696f6e206973206e60448201526c1bdd08184818dbdb9d1c9858dd609a1b60648201526084016105b9565b60008051602061211d83398151915280546001600160a01b0319166001600160a01b0392909216919091179055565b6116cb8361171d565b6000825111806116d85750805b15610535576116e7838361175d565b50505050565b600054610100900460ff166117145760405162461bcd60e51b81526004016105b990612033565b6107eb33610e91565b61172681611626565b6040516001600160a01b038216907fbc7cd75a20ee27fd9adebab32041f755214dbc6bffa90cc0225b39da2e5c2d3b90600090a250565b60606001600160a01b0383163b6117c55760405162461bcd60e51b815260206004820152602660248201527f416464726573733a2064656c65676174652063616c6c20746f206e6f6e2d636f6044820152651b9d1c9858dd60d21b60648201526084016105b9565b600080846001600160a01b0316846040516117e091906120cd565b600060405180830381855af49150503d806000811461181b576040519150601f19603f3d011682016040523d82523d6000602084013e611820565b606091505b5091509150611848828260405180606001604052806027815260200161213d60279139611851565b95945050505050565b60608315611860575081610a14565b610a1483838151156118755781518083602001fd5b8060405162461bcd60e51b81526004016105b991906120e9565b6001600160a01b038116811461056e57600080fd5b600080604083850312156118b757600080fd5b82356118c28161188f565b946020939093013593505050565b6000602082840312156118e257600080fd5b8135610a148161188f565b634e487b7160e01b600052604160045260246000fd5b604051610420810167ffffffffffffffff81118282101715611927576119276118ed565b60405290565b604051601f8201601f1916810167ffffffffffffffff81118282101715611956576119566118ed565b604052919050565b600067ffffffffffffffff821115611978576119786118ed565b50601f01601f191660200190565b6000806040838503121561199957600080fd5b82356119a48161188f565b9150602083013567ffffffffffffffff8111156119c057600080fd5b8301601f810185136119d157600080fd5b80356119e46119df8261195e565b61192d565b8181528660208385010111156119f957600080fd5b816020840160208301376000602083830101528093505050509250929050565b63ffffffff8116811461056e57600080fd5b600060208284031215611a3d57600080fd5b8135610a1481611a19565b600080600060608486031215611a5d57600080fd5b8335611a6881611a19565b95602085013595506040909401359392505050565b600080600060608486031215611a9257600080fd5b833561ffff81168114611a6857600080fd5b6020808252602c908201527f46756e6374696f6e206d7573742062652063616c6c6564207468726f7567682060408201526b19195b1959d85d1958d85b1b60a21b606082015260800190565b6020808252602c908201527f46756e6374696f6e206d7573742062652063616c6c6564207468726f7567682060408201526b6163746976652070726f787960a01b606082015260800190565b634e487b7160e01b600052601160045260246000fd5b600063ffffffff808316818103611b6b57611b6b611b3c565b6001019392505050565b80518015158114611b8557600080fd5b919050565b600060208284031215611b9c57600080fd5b610a1482611b75565b80820281158282048414176107f8576107f8611b3c565b600060208284031215611bce57600080fd5b5051919050565b8051611b858161188f565b600060208284031215611bf257600080fd5b8151610a148161188f565b8051611b8581611a19565b60005b83811015611c23578181015183820152602001611c0b565b50506000910152565b600082601f830112611c3d57600080fd5b8151611c4b6119df8261195e565b818152846020838601011115611c6057600080fd5b611c71826020830160208701611c08565b949350505050565b600067ffffffffffffffff821115611c9357611c936118ed565b5060051b60200190565b600082601f830112611cae57600080fd5b81516020611cbe6119df83611c79565b82815260059290921b84018101918181019086841115611cdd57600080fd5b8286015b84811015611d01578051611cf481611a19565b8352918301918301611ce1565b509695505050505050565b600082601f830112611d1d57600080fd5b81516020611d2d6119df83611c79565b82815260059290921b84018101918181019086841115611d4c57600080fd5b8286015b84811015611d015780518352918301918301611d50565b805160ff81168114611b8557600080fd5b600060208284031215611d8a57600080fd5b815167ffffffffffffffff80821115611da257600080fd5b908301906104208286031215611db757600080fd5b611dbf611903565b611dc883611bfd565b8152602083015182811115611ddc57600080fd5b611de887828601611c2c565b60208301525060408301516040820152611e0460608401611b75565b6060820152611e1560808401611b75565b6080820152611e2660a08401611bd5565b60a0820152611e3760c08401611bfd565b60c0820152611e4860e08401611b75565b60e08201526101008084015183811115611e6157600080fd5b611e6d88828701611c9d565b8284015250506101208084015183811115611e8757600080fd5b611e9388828701611c9d565b8284015250506101408084015183811115611ead57600080fd5b611eb988828701611c9d565b8284015250506101608084015183811115611ed357600080fd5b611edf88828701611d0c565b918301919091525061018083810151908201526101a080840151908201526101c080840151908201526101e080840151908201526102008084015190820152610220808401519082015261024080840151908201526102608084015190820152610280611f4d818501611d67565b908201526102a0611f5f848201611bfd565b908201526102c083810151908201526102e0808401519082015261030080840151908201526103208084015190820152610340808401519082015261036080840151908201526103808084015183811115611fb957600080fd5b611fc588828701611c9d565b91830191909152506103a083810151908201526103c080840151908201526103e080840151908201526104009150611ffe828401611b75565b91810191909152949350505050565b808201808211156107f8576107f8611b3c565b818103818111156107f8576107f8611b3c565b6020808252602b908201527f496e697469616c697a61626c653a20636f6e7472616374206973206e6f74206960408201526a6e697469616c697a696e6760a81b606082015260800190565b634e487b7160e01b600052603260045260246000fd5b6000826120b157634e487b7160e01b600052601260045260246000fd5b500490565b600061ffff808316818103611b6b57611b6b611b3c565b600082516120df818460208701611c08565b9190910192915050565b6020815260008251806020840152612108816040850160208701611c08565b601f01601f1916919091016040019291505056fe360894a13ba1a3210667c828492db98dca3e2076cc3735a920a3ca505d382bbc416464726573733a206c6f772d6c6576656c2064656c65676174652063616c6c206661696c6564a2646970667358221220195f94904dad63c023f9132d9194215ff3341d255419d1a299078604df75945264736f6c63430008110033",
  "linkReferences": {},
  "deployedLinkReferences": {}
}