{
  "_format": "hh-sol-artifact-1",
  "contractName": "ROIV1Upgradeable",
  "sourceName": "contracts/ROIV1Upgradeable.sol",
  "abi": [
    {
      "anonymous": false,
      "inputs": [
        {
          "indexed": false,
          "internalType": "address",
          "name": "previousAdmin",
          "type": "address"
        },
        {
          "indexed": false,
          "internalType": "address",
          "name": "newAdmin",
          "type": "address"
        }
      ],
      "name": "AdminChanged",
      "type": "event"
    },
    {
      "anonymous": false,
      "inputs": [
        {
          "indexed": true,
          "internalType": "address",
          "name": "beacon",
          "type": "address"
        }
      ],
      "name": "BeaconUpgraded",
      "type": "event"
    },
    {
      "anonymous": false,
      "inputs": [
        {
          "indexed": false,
          "internalType": "uint8",
          "name": "version",
          "type": "uint8"
        }
      ],
      "name": "Initialized",
      "type": "event"
    },
    {
      "anonymous": false,
      "inputs": [
        {
          "indexed": true,
          "internalType": "address",
          "name": "previousOwner",
          "type": "address"
        },
        {
          "indexed": true,
          "internalType": "address",
          "name": "newOwner",
          "type": "address"
        }
      ],
      "name": "OwnershipTransferred",
      "type": "event"
    },
    {
      "anonymous": false,
      "inputs": [
        {
          "indexed": false,
          "internalType": "uint32",
          "name": "_owner",
          "type": "uint32"
        },
        {
          "indexed": false,
          "internalType": "uint32",
          "name": "_roiId",
          "type": "uint32"
        },
        {
          "indexed": false,
          "internalType": "uint256",
          "name": "_value",
          "type": "uint256"
        },
        {
          "indexed": false,
          "internalType": "uint16",
          "name": "_rewardRate",
          "type": "uint16"
        }
      ],
      "name": "ROIActivated",
      "type": "event"
    },
    {
      "anonymous": false,
      "inputs": [
        {
          "indexed": true,
          "internalType": "uint256",
          "name": "_owner",
          "type": "uint256"
        },
        {
          "indexed": true,
          "internalType": "uint256",
          "name": "_rewardRate",
          "type": "uint256"
        }
      ],
      "name": "ROIClaimed",
      "type": "event"
    },
    {
      "anonymous": false,
      "inputs": [
        {
          "indexed": false,
          "internalType": "uint32",
          "name": "_owner",
          "type": "uint32"
        },
        {
          "indexed": false,
          "internalType": "uint32",
          "name": "_roiId",
          "type": "uint32"
        }
      ],
      "name": "ROIDeactivated",
      "type": "event"
    },
    {
      "anonymous": false,
      "inputs": [
        {
          "indexed": true,
          "internalType": "address",
          "name": "implementation",
          "type": "address"
        }
      ],
      "name": "Upgraded",
      "type": "event"
    },
    {
      "inputs": [],
      "name": "_roiClaimTimelimit",
      "outputs": [
        {
          "internalType": "uint256",
          "name": "",
          "type": "uint256"
        }
      ],
      "stateMutability": "view",
      "type": "function"
    },
    {
      "inputs": [],
      "name": "_roiDuration",
      "outputs": [
        {
          "internalType": "uint256",
          "name": "",
          "type": "uint256"
        }
      ],
      "stateMutability": "view",
      "type": "function"
    },
    {
      "inputs": [],
      "name": "_roiRate",
      "outputs": [
        {
          "internalType": "uint16",
          "name": "",
          "type": "uint16"
        }
      ],
      "stateMutability": "view",
      "type": "function"
    },
    {
      "inputs": [
        {
          "internalType": "uint32",
          "name": "_ownerId",
          "type": "uint32"
        },
        {
          "internalType": "uint256",
          "name": "_value",
          "type": "uint256"
        },
        {
          "internalType": "uint256",
          "name": "_currentTime",
          "type": "uint256"
        }
      ],
      "name": "activateROIAdmin",
      "outputs": [
        {
          "internalType": "uint32",
          "name": "",
          "type": "uint32"
        }
      ],
      "stateMutability": "nonpayable",
      "type": "function"
    },
    {
      "inputs": [
        {
          "internalType": "uint32",
          "name": "_id",
          "type": "uint32"
        }
      ],
      "name": "claimROI",
      "outputs": [
        {
          "internalType": "uint256",
          "name": "",
          "type": "uint256"
        }
      ],
      "stateMutability": "nonpayable",
      "type": "function"
    },
    {
      "inputs": [
        {
          "internalType": "uint32",
          "name": "_id",
          "type": "uint32"
        }
      ],
      "name": "claimROIAdmin",
      "outputs": [
        {
          "internalType": "uint256",
          "name": "",
          "type": "uint256"
        }
      ],
      "stateMutability": "nonpayable",
      "type": "function"
    },
    {
      "inputs": [],
      "name": "decimals",
      "outputs": [
        {
          "internalType": "uint16",
          "name": "",
          "type": "uint16"
        }
      ],
      "stateMutability": "view",
      "type": "function"
    },
    {
      "inputs": [
        {
          "internalType": "uint32",
          "name": "_roiID",
          "type": "uint32"
        }
      ],
      "name": "getROIAccount",
      "outputs": [
        {
          "components": [
            {
              "internalType": "uint32",
              "name": "id",
              "type": "uint32"
            },
            {
              "internalType": "uint32",
              "name": "ownerId",
              "type": "uint32"
            },
            {
              "internalType": "uint256",
              "name": "value",
              "type": "uint256"
            },
            {
              "internalType": "uint16",
              "name": "roiRate",
              "type": "uint16"
            },
            {
              "internalType": "uint256",
              "name": "startTime",
              "type": "uint256"
            },
            {
              "internalType": "uint256",
              "name": "resetTime",
              "type": "uint256"
            },
            {
              "internalType": "uint256",
              "name": "endTime",
              "type": "uint256"
            }
          ],
          "internalType": "struct ROIV1Upgradeable.StructROI",
          "name": "",
          "type": "tuple"
        }
      ],
      "stateMutability": "view",
      "type": "function"
    },
    {
      "inputs": [
        {
          "internalType": "uint32",
          "name": "_id",
          "type": "uint32"
        }
      ],
      "name": "getUserIDTotalROI",
      "outputs": [
        {
          "internalType": "uint256",
          "name": "",
          "type": "uint256"
        }
      ],
      "stateMutability": "view",
      "type": "function"
    },
    {
      "inputs": [
        {
          "internalType": "uint32",
          "name": "_id",
          "type": "uint32"
        }
      ],
      "name": "getUserTotalActiveROIValue",
      "outputs": [
        {
          "internalType": "uint256",
          "name": "roiTotalValue",
          "type": "uint256"
        }
      ],
      "stateMutability": "view",
      "type": "function"
    },
    {
      "inputs": [],
      "name": "initialize",
      "outputs": [],
      "stateMutability": "nonpayable",
      "type": "function"
    },
    {
      "inputs": [],
      "name": "isPayROI",
      "outputs": [
        {
          "internalType": "bool",
          "name": "",
          "type": "bool"
        }
      ],
      "stateMutability": "view",
      "type": "function"
    },
    {
      "inputs": [
        {
          "internalType": "uint32",
          "name": "_roiId",
          "type": "uint32"
        }
      ],
      "name": "isROIActive",
      "outputs": [
        {
          "internalType": "bool",
          "name": "",
          "type": "bool"
        }
      ],
      "stateMutability": "view",
      "type": "function"
    },
    {
      "inputs": [],
      "name": "owner",
      "outputs": [
        {
          "internalType": "address",
          "name": "",
          "type": "address"
        }
      ],
      "stateMutability": "view",
      "type": "function"
    },
    {
      "inputs": [],
      "name": "proxiableUUID",
      "outputs": [
        {
          "internalType": "bytes32",
          "name": "",
          "type": "bytes32"
        }
      ],
      "stateMutability": "view",
      "type": "function"
    },
    {
      "inputs": [],
      "name": "renounceOwnership",
      "outputs": [],
      "stateMutability": "nonpayable",
      "type": "function"
    },
    {
      "inputs": [
        {
          "internalType": "address",
          "name": "_address",
          "type": "address"
        },
        {
          "internalType": "uint256",
          "name": "_value",
          "type": "uint256"
        }
      ],
      "name": "sendETHAdmin",
      "outputs": [],
      "stateMutability": "nonpayable",
      "type": "function"
    },
    {
      "inputs": [
        {
          "internalType": "uint16",
          "name": "_roiRateInDecimals",
          "type": "uint16"
        },
        {
          "internalType": "uint256",
          "name": "_durationInDays",
          "type": "uint256"
        },
        {
          "internalType": "uint256",
          "name": "_roiClaimTimelimitInSeconds",
          "type": "uint256"
        }
      ],
      "name": "setROI",
      "outputs": [],
      "stateMutability": "nonpayable",
      "type": "function"
    },
    {
      "inputs": [
        {
          "internalType": "uint32",
          "name": "_count",
          "type": "uint32"
        }
      ],
      "name": "setROIIDCount",
      "outputs": [],
      "stateMutability": "nonpayable",
      "type": "function"
    },
    {
      "inputs": [],
      "name": "totalROIIDs",
      "outputs": [
        {
          "internalType": "uint32",
          "name": "",
          "type": "uint32"
        }
      ],
      "stateMutability": "view",
      "type": "function"
    },
    {
      "inputs": [],
      "name": "totalROIPaid",
      "outputs": [
        {
          "internalType": "uint256",
          "name": "",
          "type": "uint256"
        }
      ],
      "stateMutability": "view",
      "type": "function"
    },
    {
      "inputs": [],
      "name": "totalROIValue",
      "outputs": [
        {
          "internalType": "uint256",
          "name": "",
          "type": "uint256"
        }
      ],
      "stateMutability": "view",
      "type": "function"
    },
    {
      "inputs": [
        {
          "internalType": "address",
          "name": "newOwner",
          "type": "address"
        }
      ],
      "name": "transferOwnership",
      "outputs": [],
      "stateMutability": "nonpayable",
      "type": "function"
    },
    {
      "inputs": [
        {
          "internalType": "address",
          "name": "newImplementation",
          "type": "address"
        }
      ],
      "name": "upgradeTo",
      "outputs": [],
      "stateMutability": "nonpayable",
      "type": "function"
    },
    {
      "inputs": [
        {
          "internalType": "address",
          "name": "newImplementation",
          "type": "address"
        },
        {
          "internalType": "bytes",
          "name": "data",
          "type": "bytes"
        }
      ],
      "name": "upgradeToAndCall",
      "outputs": [],
      "stateMutability": "payable",
      "type": "function"
    },
    {
      "inputs": [],
      "name": "withdrawETHAdmin",
      "outputs": [],
      "stateMutability": "nonpayable",
      "type": "function"
    },
    {
      "inputs": [
        {
          "internalType": "address",
          "name": "_tokenAddress",
          "type": "address"
        },
        {
          "internalType": "uint256",
          "name": "_value",
          "type": "uint256"
        }
      ],
      "name": "withdrawTokensAdmin",
      "outputs": [],
      "stateMutability": "nonpayable",
      "type": "function"
    },
    {
      "stateMutability": "payable",
      "type": "receive"
    }
  ],
  "bytecode": "0x60a06040523060805234801561001457600080fd5b5060805161283061004c600039600081816105e20152818161062b015281816106c701528181610707015261079a01526128306000f3fe6080604052600436106101a05760003560e01c806381b0e086116100ec578063bf46de631161008a578063d895af2c11610064578063d895af2c146104e8578063ea62f71514610508578063eaec636414610528578063f2fde38b1461053e57600080fd5b8063bf46de6314610424578063c3ab5ebf14610444578063c82801ca146104c857600080fd5b8063a0b6105f116100c6578063a0b6105f146103a5578063a1b80175146103c5578063abab358f146103e9578063af2f39d11461040a57600080fd5b806381b0e086146103325780638da5cb5b1461034857806398c7438e1461037057600080fd5b806352d1902d11610159578063715018a611610133578063715018a6146102d2578063770ceeb1146102e75780637e09c75e146103075780638129fc1c1461031d57600080fd5b806352d1902d1461026d578063536c3c6b1461028257806355332a85146102a257600080fd5b80630b243dad146101ac57806330abbcc5146101ce578063313ce567146101f757806335759788146102255780633659cfe61461023a5780634f1ef2861461025a57600080fd5b366101a757005b600080fd5b3480156101b857600080fd5b506101cc6101c7366004611ea6565b61055e565b005b3480156101da57600080fd5b506101e460ca5481565b6040519081526020015b60405180910390f35b34801561020357600080fd5b5060cc546102129061ffff1681565b60405161ffff90911681526020016101ee565b34801561023157600080fd5b506101cc6105a1565b34801561024657600080fd5b506101cc610255366004611ed2565b6105d8565b6101cc610268366004611f88565b6106bd565b34801561027957600080fd5b506101e461078d565b34801561028e57600080fd5b506101e461029d36600461202d565b610840565b3480156102ae57600080fd5b506102c26102bd36600461202d565b610940565b60405190151581526020016101ee565b3480156102de57600080fd5b506101cc610951565b3480156102f357600080fd5b506101e461030236600461202d565b610965565b34801561031357600080fd5b506101e460ce5481565b34801561032957600080fd5b506101cc610bd4565b34801561033e57600080fd5b506101e460cd5481565b34801561035457600080fd5b506033546040516001600160a01b0390911681526020016101ee565b34801561037c57600080fd5b5061039061038b36600461204a565b610d35565b60405163ffffffff90911681526020016101ee565b3480156103b157600080fd5b506101cc6103c0366004611ea6565b610d4d565b3480156103d157600080fd5b5060c95461039090600160a01b900463ffffffff1681565b3480156103f557600080fd5b5060cc546102129062010000900461ffff1681565b34801561041657600080fd5b5060cf546102c29060ff1681565b34801561043057600080fd5b506101e461043f36600461202d565b610dc6565b34801561045057600080fd5b5061046461045f36600461202d565b610dd2565b6040516101ee9190600060e08201905063ffffffff808451168352806020850151166020840152506040830151604083015261ffff60608401511660608301526080830151608083015260a083015160a083015260c083015160c083015292915050565b3480156104d457600080fd5b506101cc6104e336600461207f565b610e98565b3480156104f457600080fd5b506101cc61050336600461202d565b610f4f565b34801561051457600080fd5b506101e461052336600461202d565b610ffd565b34801561053457600080fd5b506101e460cb5481565b34801561054a57600080fd5b506101cc610559366004611ed2565b6111e2565b610566611258565b6040516001600160a01b0383169082156108fc029083906000818181858888f1935050505015801561059c573d6000803e3d6000fd5b505050565b6105a9611258565b60405133904780156108fc02916000818181858888f193505050501580156105d5573d6000803e3d6000fd5b50565b6001600160a01b037f00000000000000000000000000000000000000000000000000000000000000001630036106295760405162461bcd60e51b8152600401610620906120a6565b60405180910390fd5b7f00000000000000000000000000000000000000000000000000000000000000006001600160a01b03166106726000805160206127b4833981519152546001600160a01b031690565b6001600160a01b0316146106985760405162461bcd60e51b8152600401610620906120f2565b6106a1816112b2565b604080516000808252602082019092526105d5918391906112ba565b6001600160a01b037f00000000000000000000000000000000000000000000000000000000000000001630036107055760405162461bcd60e51b8152600401610620906120a6565b7f00000000000000000000000000000000000000000000000000000000000000006001600160a01b031661074e6000805160206127b4833981519152546001600160a01b031690565b6001600160a01b0316146107745760405162461bcd60e51b8152600401610620906120f2565b61077d826112b2565b610789828260016112ba565b5050565b6000306001600160a01b037f0000000000000000000000000000000000000000000000000000000000000000161461082d5760405162461bcd60e51b815260206004820152603860248201527f555550535570677261646561626c653a206d757374206e6f742062652063616c60448201527f6c6564207468726f7567682064656c656761746563616c6c00000000000000006064820152608401610620565b506000805160206127b483398151915290565b60008060c960009054906101000a90046001600160a01b03166001600160a01b03166323442c606040518163ffffffff1660e01b8152600401602060405180830381865afa158015610896573d6000803e3d6000fd5b505050506040513d601f19601f820116820180604052508101906108ba919061214e565b604051632100978960e01b815263ffffffff851660048201526001600160a01b039190911690632100978990602401600060405180830381865afa158015610906573d6000803e3d6000fd5b505050506040513d6000823e601f3d908101601f1916820160405261092e91908101906122ee565b905061093981611425565b9392505050565b600061094b82611714565b92915050565b610959611258565b61096360006117a0565b565b60008060c960009054906101000a90046001600160a01b03166001600160a01b03166323442c606040518163ffffffff1660e01b8152600401602060405180830381865afa1580156109bb573d6000803e3d6000fd5b505050506040513d601f19601f820116820180604052508101906109df919061214e565b604051632100978960e01b815263ffffffff851660048201526001600160a01b039190911690632100978990602401600060405180830381865afa158015610a2b573d6000803e3d6000fd5b505050506040513d6000823e601f3d908101601f19168201604052610a5391908101906122ee565b905080608001516001600160a01b0316336001600160a01b031614610aba5760405162461bcd60e51b815260206004820152601d60248201527f596f7520617265206e6f74206f776e6572206f6620746869732069642e0000006044820152606401610620565b60ce54816103c00151610acd91906125cd565b421015610b2e5760405162461bcd60e51b815260206004820152602960248201527f596f757220726f6920636c61696d2074696d656c696d6974206973206e6f742060448201526837bb32b9103cb2ba1760b91b6064820152608401610620565b806104000151610b785760405162461bcd60e51b81526020600482015260156024820152744163636f756e74206973206e6f742061637469766560581b6044820152606401610620565b80610420015115610bcb5760405162461bcd60e51b815260206004820152601960248201527f4163636f756e742064697361626c65642062792061646d696e000000000000006044820152606401610620565b61093981611425565b600054610100900460ff1615808015610bf45750600054600160ff909116105b80610c0e5750303b158015610c0e575060005460ff166001145b610c715760405162461bcd60e51b815260206004820152602e60248201527f496e697469616c697a61626c653a20636f6e747261637420697320616c72656160448201526d191e481a5b9a5d1a585b1a5e995960921b6064820152608401610620565b6000805460ff191660011790558015610c94576000805461ff0019166101001790555b60c980546001600160a01b031916730b8bf5feb9fca57d9c5d27185ddf3017e99a2d3617905560cc8054620503e863ffffffff199091161790556201518060ce5563020f580060cd55610ce56117f2565b610ced611821565b80156105d5576000805461ff0019169055604051600181527f7f26b83ff96e1f2b6a682f133852f6798a09c465da95921460cefb38474024989060200160405180910390a150565b6000610d4584848460cd54611848565b949350505050565b610d55611258565b60405163a9059cbb60e01b8152336004820152602481018290526001600160a01b0383169063a9059cbb906044016020604051808303816000875af1158015610da2573d6000803e3d6000fd5b505050506040513d601f19601f8201168201806040525081019061059c91906125e0565b600061094b824261195e565b610e226040518060e00160405280600063ffffffff168152602001600063ffffffff16815260200160008152602001600061ffff1681526020016000815260200160008152602001600081525090565b5063ffffffff908116600090815260d06020908152604091829020825160e08101845281548086168252640100000000900490941691840191909152600181015491830191909152600281015461ffff16606083015260038101546080830152600481015460a08301526005015460c082015290565b60c954604051630935e01b60e21b81523360048201526001600160a01b03909116906324d7806c90602401602060405180830381865afa158015610ee0573d6000803e3d6000fd5b505050506040513d601f19601f82011682018060405250810190610f0491906125e0565b610f205760405162461bcd60e51b8152600401610620906125fb565b60cc805463ffff000019166201000061ffff861602179055610f458262015180612640565b60cd5560ce555050565b60c954604051630935e01b60e21b81523360048201526001600160a01b03909116906324d7806c90602401602060405180830381865afa158015610f97573d6000803e3d6000fd5b505050506040513d601f19601f82011682018060405250810190610fbb91906125e0565b610fd75760405162461bcd60e51b8152600401610620906125fb565b60c9805463ffffffff909216600160a01b0263ffffffff60a01b19909216919091179055565b60008060c960009054906101000a90046001600160a01b03166001600160a01b03166323442c606040518163ffffffff1660e01b8152600401602060405180830381865afa158015611053573d6000803e3d6000fd5b505050506040513d601f19601f82011682018060405250810190611077919061214e565b604051632100978960e01b815263ffffffff851660048201526001600160a01b039190911690632100978990602401600060405180830381865afa1580156110c3573d6000803e3d6000fd5b505050506040513d6000823e601f3d908101601f191682016040526110eb91908101906122ee565b61038081015180516102e08301519293509091611109906002612640565b836102c0015110801561111c5750600081115b801561112b5750826104200151155b156111d55760005b818161ffff1610156111cf57600060d06000858461ffff168151811061115b5761115b612657565b602002602001015163ffffffff1663ffffffff16815260200190815260200160002090506111a5848361ffff168151811061119857611198612657565b6020026020010151611714565b156111bc5760018101546111b990876125cd565b95505b50806111c78161266d565b915050611133565b506111da565b600093505b505050919050565b6111ea611258565b6001600160a01b03811661124f5760405162461bcd60e51b815260206004820152602660248201527f4f776e61626c653a206e6577206f776e657220697320746865207a65726f206160448201526564647265737360d01b6064820152608401610620565b6105d5816117a0565b6033546001600160a01b031633146109635760405162461bcd60e51b815260206004820181905260248201527f4f776e61626c653a2063616c6c6572206973206e6f7420746865206f776e65726044820152606401610620565b6105d5611258565b7f4910fdfa16fed3260ed0e7147f7cc6da11a60208b5b9406d12a635614ffd91435460ff16156112ed5761059c83611b91565b826001600160a01b03166352d1902d6040518163ffffffff1660e01b8152600401602060405180830381865afa925050508015611347575060408051601f3d908101601f191682019092526113449181019061268e565b60015b6113aa5760405162461bcd60e51b815260206004820152602e60248201527f45524331393637557067726164653a206e657720696d706c656d656e7461746960448201526d6f6e206973206e6f74205555505360901b6064820152608401610620565b6000805160206127b483398151915281146114195760405162461bcd60e51b815260206004820152602960248201527f45524331393637557067726164653a20756e737570706f727465642070726f786044820152681a58589b195555525160ba1b6064820152608401610620565b5061059c838383611c2d565b805160009042908290611438908361195e565b9050836102e00151600261144c9190612640565b846102c001511115801561147f57506102e084015161146c906002612640565b81856102c0015161147d91906125cd565b105b156114a4578092508260ca600082825461149991906125cd565b909155506115029050565b6102e08401516114b5906002612640565b846102c0015111611502576000846102c00151856102e0015160026114da9190612640565b6114e491906126a7565b90508093508060ca60008282546114fb91906125cd565b9091555050505b82156117035760c960009054906101000a90046001600160a01b03166001600160a01b03166323442c606040518163ffffffff1660e01b8152600401602060405180830381865afa15801561155b573d6000803e3d6000fd5b505050506040513d601f19601f8201168201806040525081019061157f919061214e565b845160405163284eb62960e11b815263ffffffff9091166004820152602481018590526001600160a01b03919091169063509d6c5290604401600060405180830381600087803b1580156115d257600080fd5b505af11580156115e6573d6000803e3d6000fd5b5050505060c960009054906101000a90046001600160a01b03166001600160a01b03166323442c606040518163ffffffff1660e01b8152600401602060405180830381865afa15801561163d573d6000803e3d6000fd5b505050506040513d601f19601f82011682018060405250810190611661919061214e565b845160405163498b3e5560e01b81526004810186905263ffffffff90911660248201526001600160a01b03919091169063498b3e5590604401600060405180830381600087803b1580156116b457600080fd5b505af11580156116c8573d6000803e3d6000fd5b5050855160405186935063ffffffff90911691507f7cd8783637a6bf8d3b4b69973a28720cfb0f5abc55d8b85dde1732d8f22c0efc90600090a35b61170d8483611c58565b5050919050565b63ffffffff808216600090815260d060209081526040808320815160e08101835281548087168252640100000000900490951692850192909252600182015490840152600281015461ffff16606084015260038101546080840152600481015460a08401526005015460c083018190529091904210156117975750600192915050565b50600092915050565b603380546001600160a01b038381166001600160a01b0319831681179093556040519116919082907f8be0079c531659141344cd1fd0a4f28419497f9722a3daafe3b4186f6b6457e090600090a35050565b600054610100900460ff166118195760405162461bcd60e51b8152600401610620906126ba565b610963611cef565b600054610100900460ff166109635760405162461bcd60e51b8152600401610620906126ba565b60c980546000918291600160a01b900463ffffffff1690601461186a83612705565b91906101000a81548163ffffffff021916908363ffffffff1602179055509050600060d0600083600161189d919061271e565b63ffffffff168152602081019190915260400160002090506118c082600161271e565b815463ffffffff8981166401000000000267ffffffffffffffff199092169216919091171781556001810186905560cc5460028201805461ffff191661ffff6201000090930492909216919091179055600381018590556004810185905561192884866125cd565b81600501819055508560cb600082825461194291906125cd565b90915550611953905082600161271e565b979650505050505050565b60008060c960009054906101000a90046001600160a01b03166001600160a01b03166323442c606040518163ffffffff1660e01b8152600401602060405180830381865afa1580156119b4573d6000803e3d6000fd5b505050506040513d601f19601f820116820180604052508101906119d8919061214e565b604051632100978960e01b815263ffffffff861660048201526001600160a01b039190911690632100978990602401600060405180830381865afa158015611a24573d6000803e3d6000fd5b505050506040513d6000823e601f3d908101601f19168201604052611a4c91908101906122ee565b61038081015180516102e08301519293509091611a6a906002612640565b836102c00151108015611a7d5750600081115b8015611a8c5750826104200151155b15611b835760005b818161ffff161015611b7d57600060d06000858461ffff1681518110611abc57611abc612657565b602002602001015163ffffffff1663ffffffff1681526020019081526020016000209050611af9848361ffff168151811061119857611198612657565b15611b6a5760cc54600182015460009161ffff80821692611b239262010000900490911690612640565b611b2d9190612742565b90506000826004015489611b4191906126a7565b905062015180611b518284612640565b611b5b9190612742565b611b6590896125cd565b975050505b5080611b758161266d565b915050611a94565b50611b88565b600093505b50505092915050565b6001600160a01b0381163b611bfe5760405162461bcd60e51b815260206004820152602d60248201527f455243313936373a206e657720696d706c656d656e746174696f6e206973206e60448201526c1bdd08184818dbdb9d1c9858dd609a1b6064820152608401610620565b6000805160206127b483398151915280546001600160a01b0319166001600160a01b0392909216919091179055565b611c3683611d1f565b600082511180611c435750805b1561059c57611c528383611d5f565b50505050565b610380820151805160005b818161ffff161015611ce857600060d06000858461ffff1681518110611c8b57611c8b612657565b602002602001015163ffffffff1663ffffffff1681526020019081526020016000209050611cc8848361ffff168151811061119857611198612657565b15611cd557600481018590555b5080611ce08161266d565b915050611c63565b5050505050565b600054610100900460ff16611d165760405162461bcd60e51b8152600401610620906126ba565b610963336117a0565b611d2881611b91565b6040516001600160a01b038216907fbc7cd75a20ee27fd9adebab32041f755214dbc6bffa90cc0225b39da2e5c2d3b90600090a250565b60606001600160a01b0383163b611dc75760405162461bcd60e51b815260206004820152602660248201527f416464726573733a2064656c65676174652063616c6c20746f206e6f6e2d636f6044820152651b9d1c9858dd60d21b6064820152608401610620565b600080846001600160a01b031684604051611de29190612764565b600060405180830381855af49150503d8060008114611e1d576040519150601f19603f3d011682016040523d82523d6000602084013e611e22565b606091505b5091509150611e4a82826040518060600160405280602781526020016127d460279139611e53565b95945050505050565b60608315611e62575081610939565b6109398383815115611e775781518083602001fd5b8060405162461bcd60e51b81526004016106209190612780565b6001600160a01b03811681146105d557600080fd5b60008060408385031215611eb957600080fd5b8235611ec481611e91565b946020939093013593505050565b600060208284031215611ee457600080fd5b813561093981611e91565b634e487b7160e01b600052604160045260246000fd5b604051610480810167ffffffffffffffff81118282101715611f2957611f29611eef565b60405290565b604051601f8201601f1916810167ffffffffffffffff81118282101715611f5857611f58611eef565b604052919050565b600067ffffffffffffffff821115611f7a57611f7a611eef565b50601f01601f191660200190565b60008060408385031215611f9b57600080fd5b8235611fa681611e91565b9150602083013567ffffffffffffffff811115611fc257600080fd5b8301601f81018513611fd357600080fd5b8035611fe6611fe182611f60565b611f2f565b818152866020838501011115611ffb57600080fd5b816020840160208301376000602083830101528093505050509250929050565b63ffffffff811681146105d557600080fd5b60006020828403121561203f57600080fd5b81356109398161201b565b60008060006060848603121561205f57600080fd5b833561206a8161201b565b95602085013595506040909401359392505050565b60008060006060848603121561209457600080fd5b833561ffff8116811461206a57600080fd5b6020808252602c908201527f46756e6374696f6e206d7573742062652063616c6c6564207468726f7567682060408201526b19195b1959d85d1958d85b1b60a21b606082015260800190565b6020808252602c908201527f46756e6374696f6e206d7573742062652063616c6c6564207468726f7567682060408201526b6163746976652070726f787960a01b606082015260800190565b805161214981611e91565b919050565b60006020828403121561216057600080fd5b815161093981611e91565b80516121498161201b565b60005b83811015612191578181015183820152602001612179565b50506000910152565b600082601f8301126121ab57600080fd5b81516121b9611fe182611f60565b8181528460208386010111156121ce57600080fd5b610d45826020830160208701612176565b8051801515811461214957600080fd5b600067ffffffffffffffff82111561220957612209611eef565b5060051b60200190565b600082601f83011261222457600080fd5b81516020612234611fe1836121ef565b82815260059290921b8401810191818101908684111561225357600080fd5b8286015b8481101561227757805161226a8161201b565b8352918301918301612257565b509695505050505050565b600082601f83011261229357600080fd5b815160206122a3611fe1836121ef565b82815260059290921b840181019181810190868411156122c257600080fd5b8286015b8481101561227757805183529183019183016122c6565b805160ff8116811461214957600080fd5b60006020828403121561230057600080fd5b815167ffffffffffffffff8082111561231857600080fd5b90830190610480828603121561232d57600080fd5b612335611f05565b61233e8361216b565b815260208301518281111561235257600080fd5b61235e8782860161219a565b6020830152506040830151604082015261237a606084016121df565b606082015261238b6080840161213e565b608082015261239c60a0840161216b565b60a08201526123ad60c084016121df565b60c082015260e0830151828111156123c457600080fd5b6123d087828601612213565b60e08301525061010080840151838111156123ea57600080fd5b6123f688828701612213565b828401525050610120808401518381111561241057600080fd5b61241c88828701612213565b828401525050610140808401518381111561243657600080fd5b61244288828701612282565b9183019190915250610160838101519082015261018080840151908201526101a080840151908201526101c080840151908201526101e080840151908201526102008084015190820152610220808401519082015261024080840151908201526102606124b08185016122dd565b908201526102806124c284820161216b565b908201526102a083810151908201526102c080840151908201526102e080840151908201526103008084015190820152610320808401519082015261034080840151908201526103608084015190820152610380808401518381111561252757600080fd5b61253388828701612213565b91830191909152506103a083810151908201526103c080840151908201526103e08084015190820152610400915061256c8284016121df565b8282015261042091506125808284016121df565b8282015261044091506125948284016121df565b8282015261046091506125a88284016121df565b91810191909152949350505050565b634e487b7160e01b600052601160045260246000fd5b8082018082111561094b5761094b6125b7565b6000602082840312156125f257600080fd5b610939826121df565b60208082526025908201527f4f6e6c792041646d696e2063616e2061636365737320746869732066756e637460408201526434b7b7171760d91b606082015260800190565b808202811582820484141761094b5761094b6125b7565b634e487b7160e01b600052603260045260246000fd5b600061ffff808316818103612684576126846125b7565b6001019392505050565b6000602082840312156126a057600080fd5b5051919050565b8181038181111561094b5761094b6125b7565b6020808252602b908201527f496e697469616c697a61626c653a20636f6e7472616374206973206e6f74206960408201526a6e697469616c697a696e6760a81b606082015260800190565b600063ffffffff808316818103612684576126846125b7565b63ffffffff81811683821601908082111561273b5761273b6125b7565b5092915050565b60008261275f57634e487b7160e01b600052601260045260246000fd5b500490565b60008251612776818460208701612176565b9190910192915050565b602081526000825180602084015261279f816040850160208701612176565b601f01601f1916919091016040019291505056fe360894a13ba1a3210667c828492db98dca3e2076cc3735a920a3ca505d382bbc416464726573733a206c6f772d6c6576656c2064656c65676174652063616c6c206661696c6564a26469706673582212206a5abe9dd5e3970e6b24d41ed363ea0d4346c35dcc422716a2b5a5c14100c51464736f6c63430008120033",
  "linkReferences": {},
  "deployedLinkReferences": {}
}