{
  "_format": "hh-sol-artifact-1",
  "contractName": "ROIV1Upgradeable",
  "sourceName": "contracts/ROIV1Upgradeable.sol",
  "abi": [
    {
      "anonymous": false,
      "inputs": [
        {
          "indexed": false,
          "internalType": "address",
          "name": "previousAdmin",
          "type": "address"
        },
        {
          "indexed": false,
          "internalType": "address",
          "name": "newAdmin",
          "type": "address"
        }
      ],
      "name": "AdminChanged",
      "type": "event"
    },
    {
      "anonymous": false,
      "inputs": [
        {
          "indexed": true,
          "internalType": "address",
          "name": "beacon",
          "type": "address"
        }
      ],
      "name": "BeaconUpgraded",
      "type": "event"
    },
    {
      "anonymous": false,
      "inputs": [
        {
          "indexed": false,
          "internalType": "uint8",
          "name": "version",
          "type": "uint8"
        }
      ],
      "name": "Initialized",
      "type": "event"
    },
    {
      "anonymous": false,
      "inputs": [
        {
          "indexed": true,
          "internalType": "address",
          "name": "previousOwner",
          "type": "address"
        },
        {
          "indexed": true,
          "internalType": "address",
          "name": "newOwner",
          "type": "address"
        }
      ],
      "name": "OwnershipTransferred",
      "type": "event"
    },
    {
      "anonymous": false,
      "inputs": [
        {
          "indexed": false,
          "internalType": "uint32",
          "name": "_owner",
          "type": "uint32"
        },
        {
          "indexed": false,
          "internalType": "uint32",
          "name": "_roiId",
          "type": "uint32"
        },
        {
          "indexed": false,
          "internalType": "uint256",
          "name": "_value",
          "type": "uint256"
        },
        {
          "indexed": false,
          "internalType": "uint16",
          "name": "_rewardRate",
          "type": "uint16"
        }
      ],
      "name": "ROIActivated",
      "type": "event"
    },
    {
      "anonymous": false,
      "inputs": [
        {
          "indexed": true,
          "internalType": "uint256",
          "name": "_owner",
          "type": "uint256"
        },
        {
          "indexed": true,
          "internalType": "uint256",
          "name": "_rewardRate",
          "type": "uint256"
        }
      ],
      "name": "ROIClaimed",
      "type": "event"
    },
    {
      "anonymous": false,
      "inputs": [
        {
          "indexed": false,
          "internalType": "uint32",
          "name": "_owner",
          "type": "uint32"
        },
        {
          "indexed": false,
          "internalType": "uint32",
          "name": "_roiId",
          "type": "uint32"
        }
      ],
      "name": "ROIDeactivated",
      "type": "event"
    },
    {
      "anonymous": false,
      "inputs": [
        {
          "indexed": true,
          "internalType": "address",
          "name": "implementation",
          "type": "address"
        }
      ],
      "name": "Upgraded",
      "type": "event"
    },
    {
      "inputs": [],
      "name": "_roiClaimTimelimit",
      "outputs": [
        {
          "internalType": "uint256",
          "name": "",
          "type": "uint256"
        }
      ],
      "stateMutability": "view",
      "type": "function"
    },
    {
      "inputs": [],
      "name": "_roiDuration",
      "outputs": [
        {
          "internalType": "uint256",
          "name": "",
          "type": "uint256"
        }
      ],
      "stateMutability": "view",
      "type": "function"
    },
    {
      "inputs": [],
      "name": "_roiRate",
      "outputs": [
        {
          "internalType": "uint16",
          "name": "",
          "type": "uint16"
        }
      ],
      "stateMutability": "view",
      "type": "function"
    },
    {
      "inputs": [
        {
          "internalType": "uint32",
          "name": "_id",
          "type": "uint32"
        },
        {
          "internalType": "uint256",
          "name": "_value",
          "type": "uint256"
        },
        {
          "internalType": "uint256",
          "name": "_currentTime",
          "type": "uint256"
        }
      ],
      "name": "activateROIAdmin",
      "outputs": [
        {
          "internalType": "uint32",
          "name": "_roiId",
          "type": "uint32"
        }
      ],
      "stateMutability": "nonpayable",
      "type": "function"
    },
    {
      "inputs": [
        {
          "internalType": "uint32",
          "name": "_id",
          "type": "uint32"
        }
      ],
      "name": "claimROI",
      "outputs": [
        {
          "internalType": "uint256",
          "name": "",
          "type": "uint256"
        }
      ],
      "stateMutability": "nonpayable",
      "type": "function"
    },
    {
      "inputs": [],
      "name": "decimals",
      "outputs": [
        {
          "internalType": "uint16",
          "name": "",
          "type": "uint16"
        }
      ],
      "stateMutability": "view",
      "type": "function"
    },
    {
      "inputs": [
        {
          "internalType": "uint32",
          "name": "_roiID",
          "type": "uint32"
        }
      ],
      "name": "getROIAccount",
      "outputs": [
        {
          "components": [
            {
              "internalType": "uint32",
              "name": "id",
              "type": "uint32"
            },
            {
              "internalType": "bool",
              "name": "isActive",
              "type": "bool"
            },
            {
              "internalType": "uint32",
              "name": "ownerId",
              "type": "uint32"
            },
            {
              "internalType": "uint256",
              "name": "value",
              "type": "uint256"
            },
            {
              "internalType": "uint16",
              "name": "roiRate",
              "type": "uint16"
            },
            {
              "internalType": "uint256",
              "name": "startTime",
              "type": "uint256"
            },
            {
              "internalType": "uint256",
              "name": "duration",
              "type": "uint256"
            }
          ],
          "internalType": "struct ROIV1Upgradeable.StructROI",
          "name": "",
          "type": "tuple"
        }
      ],
      "stateMutability": "view",
      "type": "function"
    },
    {
      "inputs": [
        {
          "internalType": "uint32",
          "name": "_id",
          "type": "uint32"
        }
      ],
      "name": "getUserIDTotalROI",
      "outputs": [
        {
          "internalType": "uint256",
          "name": "",
          "type": "uint256"
        }
      ],
      "stateMutability": "view",
      "type": "function"
    },
    {
      "inputs": [
        {
          "internalType": "uint32",
          "name": "_id",
          "type": "uint32"
        }
      ],
      "name": "getUserTotalActiveROIValue",
      "outputs": [
        {
          "internalType": "uint256",
          "name": "roiTotalValue",
          "type": "uint256"
        }
      ],
      "stateMutability": "view",
      "type": "function"
    },
    {
      "inputs": [],
      "name": "initialize",
      "outputs": [],
      "stateMutability": "nonpayable",
      "type": "function"
    },
    {
      "inputs": [],
      "name": "isPayROI",
      "outputs": [
        {
          "internalType": "bool",
          "name": "",
          "type": "bool"
        }
      ],
      "stateMutability": "view",
      "type": "function"
    },
    {
      "inputs": [],
      "name": "owner",
      "outputs": [
        {
          "internalType": "address",
          "name": "",
          "type": "address"
        }
      ],
      "stateMutability": "view",
      "type": "function"
    },
    {
      "inputs": [],
      "name": "proxiableUUID",
      "outputs": [
        {
          "internalType": "bytes32",
          "name": "",
          "type": "bytes32"
        }
      ],
      "stateMutability": "view",
      "type": "function"
    },
    {
      "inputs": [],
      "name": "renounceOwnership",
      "outputs": [],
      "stateMutability": "nonpayable",
      "type": "function"
    },
    {
      "inputs": [
        {
          "internalType": "address",
          "name": "_address",
          "type": "address"
        },
        {
          "internalType": "uint256",
          "name": "_value",
          "type": "uint256"
        }
      ],
      "name": "sendETHAdmin",
      "outputs": [],
      "stateMutability": "nonpayable",
      "type": "function"
    },
    {
      "inputs": [
        {
          "internalType": "uint16",
          "name": "_roiRateInDecimals",
          "type": "uint16"
        },
        {
          "internalType": "uint256",
          "name": "_roiClaimTimelimitInSeconds",
          "type": "uint256"
        }
      ],
      "name": "setROI",
      "outputs": [],
      "stateMutability": "nonpayable",
      "type": "function"
    },
    {
      "inputs": [
        {
          "internalType": "uint32",
          "name": "_count",
          "type": "uint32"
        }
      ],
      "name": "setROIIDCount",
      "outputs": [],
      "stateMutability": "nonpayable",
      "type": "function"
    },
    {
      "inputs": [],
      "name": "totalROIIDs",
      "outputs": [
        {
          "internalType": "uint32",
          "name": "",
          "type": "uint32"
        }
      ],
      "stateMutability": "view",
      "type": "function"
    },
    {
      "inputs": [],
      "name": "totalROIPaid",
      "outputs": [
        {
          "internalType": "uint256",
          "name": "",
          "type": "uint256"
        }
      ],
      "stateMutability": "view",
      "type": "function"
    },
    {
      "inputs": [],
      "name": "totalROIValue",
      "outputs": [
        {
          "internalType": "uint256",
          "name": "",
          "type": "uint256"
        }
      ],
      "stateMutability": "view",
      "type": "function"
    },
    {
      "inputs": [
        {
          "internalType": "address",
          "name": "newOwner",
          "type": "address"
        }
      ],
      "name": "transferOwnership",
      "outputs": [],
      "stateMutability": "nonpayable",
      "type": "function"
    },
    {
      "inputs": [
        {
          "internalType": "address",
          "name": "newImplementation",
          "type": "address"
        }
      ],
      "name": "upgradeTo",
      "outputs": [],
      "stateMutability": "nonpayable",
      "type": "function"
    },
    {
      "inputs": [
        {
          "internalType": "address",
          "name": "newImplementation",
          "type": "address"
        },
        {
          "internalType": "bytes",
          "name": "data",
          "type": "bytes"
        }
      ],
      "name": "upgradeToAndCall",
      "outputs": [],
      "stateMutability": "payable",
      "type": "function"
    },
    {
      "inputs": [],
      "name": "withdrawETHAdmin",
      "outputs": [],
      "stateMutability": "nonpayable",
      "type": "function"
    },
    {
      "inputs": [
        {
          "internalType": "address",
          "name": "_tokenAddress",
          "type": "address"
        },
        {
          "internalType": "uint256",
          "name": "_value",
          "type": "uint256"
        }
      ],
      "name": "withdrawTokensAdmin",
      "outputs": [],
      "stateMutability": "nonpayable",
      "type": "function"
    },
    {
      "stateMutability": "payable",
      "type": "receive"
    }
  ],
  "bytecode": "0x60a06040523060805234801561001457600080fd5b5060805161249761004c600039600081816106240152818161066d015281816107090152818161074901526107dc01526124976000f3fe60806040526004361061016a5760003560e01c806381b0e086116100d1578063af2f39d11161008a578063d895af2c11610064578063d895af2c1461052a578063ea62f7151461054a578063eaec63641461056a578063f2fde38b1461058057600080fd5b8063af2f39d1146103a4578063bf46de63146103ce578063c3ab5ebf146103ee57600080fd5b806381b0e086146102cc5780638da5cb5b146102e257806398c7438e1461030a578063a0b6105f1461033f578063a1b801751461035f578063abab358f1461038357600080fd5b806352d1902d1161012357806352d1902d14610237578063715018a61461024c578063770ceeb1146102615780637ab221c5146102815780637e09c75e146102a15780638129fc1c146102b757600080fd5b80630b243dad1461017657806330abbcc514610198578063313ce567146101c157806335759788146101ef5780633659cfe6146102045780634f1ef2861461022457600080fd5b3661017157005b600080fd5b34801561018257600080fd5b50610196610191366004611b57565b6105a0565b005b3480156101a457600080fd5b506101ae60ca5481565b6040519081526020015b60405180910390f35b3480156101cd57600080fd5b5060cc546101dc9061ffff1681565b60405161ffff90911681526020016101b8565b3480156101fb57600080fd5b506101966105e3565b34801561021057600080fd5b5061019661021f366004611b83565b61061a565b610196610232366004611c39565b6106ff565b34801561024357600080fd5b506101ae6107cf565b34801561025857600080fd5b50610196610882565b34801561026d57600080fd5b506101ae61027c366004611cde565b610896565b34801561028d57600080fd5b5061019661029c366004611cfb565b6108a7565b3480156102ad57600080fd5b506101ae60ce5481565b3480156102c357600080fd5b50610196610978565b3480156102d857600080fd5b506101ae60cd5481565b3480156102ee57600080fd5b506033546040516001600160a01b0390911681526020016101b8565b34801561031657600080fd5b5061032a610325366004611d20565b610ad1565b60405163ffffffff90911681526020016101b8565b34801561034b57600080fd5b5061019661035a366004611b57565b610b25565b34801561036b57600080fd5b5060c95461032a90600160a01b900463ffffffff1681565b34801561038f57600080fd5b5060cc546101dc9062010000900461ffff1681565b3480156103b057600080fd5b5060cf546103be9060ff1681565b60405190151581526020016101b8565b3480156103da57600080fd5b506101ae6103e9366004611cde565b610b9e565b3480156103fa57600080fd5b506104c4610409366004611cde565b6040805160e081018252600080825260208201819052918101829052606081018290526080810182905260a0810182905260c08101919091525063ffffffff908116600090815260d06020908152604091829020825160e0810184528154808616825260ff640100000000820416151593820193909352650100000000009092049093169181019190915260018201546060820152600282015461ffff166080820152600382015460a082015260049091015460c082015290565b6040516101b89190600060e08201905063ffffffff808451168352602084015115156020840152806040850151166040840152506060830151606083015261ffff608084015116608083015260a083015160a083015260c083015160c083015292915050565b34801561053657600080fd5b50610196610545366004611cde565b610ba9565b34801561055657600080fd5b506101ae610565366004611cde565b610c7c565b34801561057657600080fd5b506101ae60cb5481565b34801561058c57600080fd5b5061019661059b366004611b83565b610e4d565b6105a8610ec3565b6040516001600160a01b0383169082156108fc029083906000818181858888f193505050501580156105de573d6000803e3d6000fd5b505050565b6105eb610ec3565b60405133904780156108fc02916000818181858888f19350505050158015610617573d6000803e3d6000fd5b50565b6001600160a01b037f000000000000000000000000000000000000000000000000000000000000000016300361066b5760405162461bcd60e51b815260040161066290611d55565b60405180910390fd5b7f00000000000000000000000000000000000000000000000000000000000000006001600160a01b03166106b460008051602061241b833981519152546001600160a01b031690565b6001600160a01b0316146106da5760405162461bcd60e51b815260040161066290611da1565b6106e381610f1d565b6040805160008082526020820190925261061791839190610f25565b6001600160a01b037f00000000000000000000000000000000000000000000000000000000000000001630036107475760405162461bcd60e51b815260040161066290611d55565b7f00000000000000000000000000000000000000000000000000000000000000006001600160a01b031661079060008051602061241b833981519152546001600160a01b031690565b6001600160a01b0316146107b65760405162461bcd60e51b815260040161066290611da1565b6107bf82610f1d565b6107cb82826001610f25565b5050565b6000306001600160a01b037f0000000000000000000000000000000000000000000000000000000000000000161461086f5760405162461bcd60e51b815260206004820152603860248201527f555550535570677261646561626c653a206d757374206e6f742062652063616c60448201527f6c6564207468726f7567682064656c656761746563616c6c00000000000000006064820152608401610662565b5060008051602061241b83398151915290565b61088a610ec3565b6108946000611090565b565b60006108a1826110e2565b92915050565b60c954604051630935e01b60e21b81523360048201526001600160a01b03909116906324d7806c90602401602060405180830381865afa1580156108ef573d6000803e3d6000fd5b505050506040513d601f19601f820116820180604052508101906109139190611e02565b6109545760405162461bcd60e51b81526020600482015260126024820152712cb7ba9030b932903737ba1030b236b4b71760711b6044820152606401610662565b60cc805461ffff909316620100000263ffff0000199093169290921790915560ce55565b600054610100900460ff16158080156109985750600054600160ff909116105b806109b25750303b1580156109b2575060005460ff166001145b610a155760405162461bcd60e51b815260206004820152602e60248201527f496e697469616c697a61626c653a20636f6e747261637420697320616c72656160448201526d191e481a5b9a5d1a585b1a5e995960921b6064820152608401610662565b6000805460ff191660011790558015610a38576000805461ff0019166101001790555b60c980546001600160a01b031916737ecf19c95f2639cf0183639dba852fade713eefc17905560cc8054620503e863ffffffff199091161790556201518060ce55610a816115e3565b610a89611612565b8015610617576000805461ff0019169055604051600181527f7f26b83ff96e1f2b6a682f133852f6798a09c465da95921460cefb38474024989060200160405180910390a150565b60c98054600091600160a01b90910463ffffffff16906014610af283611e33565b91906101000a81548163ffffffff021916908363ffffffff1602179055509050610b1e84828585611639565b9392505050565b610b2d610ec3565b60405163a9059cbb60e01b8152336004820152602481018290526001600160a01b0383169063a9059cbb906044016020604051808303816000875af1158015610b7a573d6000803e3d6000fd5b505050506040513d601f19601f820116820180604052508101906105de9190611e02565b60006108a1826116c1565b60c954604051630935e01b60e21b81523360048201526001600160a01b03909116906324d7806c90602401602060405180830381865afa158015610bf1573d6000803e3d6000fd5b505050506040513d601f19601f82011682018060405250810190610c159190611e02565b610c565760405162461bcd60e51b81526020600482015260126024820152712cb7ba9030b932903737ba1030b236b4b71760711b6044820152606401610662565b60c9805463ffffffff909216600160a01b0263ffffffff60a01b19909216919091179055565b60008060c960009054906101000a90046001600160a01b03166001600160a01b03166323442c606040518163ffffffff1660e01b8152600401602060405180830381865afa158015610cd2573d6000803e3d6000fd5b505050506040513d601f19601f82011682018060405250810190610cf69190611e61565b604051632100978960e01b815263ffffffff851660048201526001600160a01b039190911690632100978990602401600060405180830381865afa158015610d42573d6000803e3d6000fd5b505050506040513d6000823e601f3d908101601f19168201604052610d6a9190810190611ff9565b61038081015180516102e08301519293509091610d889060026122c2565b836102c00151108015610d9b5750600081115b8015610daa5750826104200151155b15610e405760005b818161ffff161015610e3a57600060d06000858461ffff1681518110610dda57610dda6122d9565b602002602001015163ffffffff1663ffffffff16815260200190815260200160002090508060000160049054906101000a900460ff1615610e27576001810154610e2490876122ef565b95505b5080610e3281612302565b915050610db2565b50610e45565b600093505b505050919050565b610e55610ec3565b6001600160a01b038116610eba5760405162461bcd60e51b815260206004820152602660248201527f4f776e61626c653a206e6577206f776e657220697320746865207a65726f206160448201526564647265737360d01b6064820152608401610662565b61061781611090565b6033546001600160a01b031633146108945760405162461bcd60e51b815260206004820181905260248201527f4f776e61626c653a2063616c6c6572206973206e6f7420746865206f776e65726044820152606401610662565b610617610ec3565b7f4910fdfa16fed3260ed0e7147f7cc6da11a60208b5b9406d12a635614ffd91435460ff1615610f58576105de836118d9565b826001600160a01b03166352d1902d6040518163ffffffff1660e01b8152600401602060405180830381865afa925050508015610fb2575060408051601f3d908101601f19168201909252610faf91810190612319565b60015b6110155760405162461bcd60e51b815260206004820152602e60248201527f45524331393637557067726164653a206e657720696d706c656d656e7461746960448201526d6f6e206973206e6f74205555505360901b6064820152608401610662565b60008051602061241b83398151915281146110845760405162461bcd60e51b815260206004820152602960248201527f45524331393637557067726164653a20756e737570706f727465642070726f786044820152681a58589b195555525160ba1b6064820152608401610662565b506105de838383611975565b603380546001600160a01b038381166001600160a01b0319831681179093556040519116919082907f8be0079c531659141344cd1fd0a4f28419497f9722a3daafe3b4186f6b6457e090600090a35050565b60008060c960009054906101000a90046001600160a01b03166001600160a01b03166323442c606040518163ffffffff1660e01b8152600401602060405180830381865afa158015611138573d6000803e3d6000fd5b505050506040513d601f19601f8201168201806040525081019061115c9190611e61565b604051632100978960e01b815263ffffffff851660048201526001600160a01b039190911690632100978990602401600060405180830381865afa1580156111a8573d6000803e3d6000fd5b505050506040513d6000823e601f3d908101601f191682016040526111d09190810190611ff9565b608081015190915042906001600160a01b031633146112315760405162461bcd60e51b815260206004820152601d60248201527f596f7520617265206e6f74206f776e6572206f6620746869732069642e0000006044820152606401610662565b60ce54826103c0015161124491906122ef565b4210156112a35760405162461bcd60e51b815260206004820152602760248201527f596f7520726f6920636c61696d2074696d656c696d6974206973206e6f74206f6044820152660eccae440f2cad60cb1b6064820152608401610662565b60006112ae856116c1565b9050826102e0015160026112c291906122c2565b836102c00151111580156112f557506102e08301516112e29060026122c2565b81846102c001516112f391906122ef565b105b1561145b5780836102c00181815161130d91906122ef565b9052506103a0830180518291906113259083906122ef565b9052506103c0830182905260c9546040805163011a216360e51b8152905192955085926001600160a01b03909216916323442c60916004808201926020929091908290030181865afa15801561137f573d6000803e3d6000fd5b505050506040513d601f19601f820116820180604052508101906113a39190611e61565b604051633666085760e11b815263ffffffff87166004820152602481018690526001600160a01b039190911690636ccc10ae90604401600060405180830381600087803b1580156113f357600080fd5b505af1158015611407573d6000803e3d6000fd5b505060405186925063ffffffff881691507f7cd8783637a6bf8d3b4b69973a28720cfb0f5abc55d8b85dde1732d8f22c0efc90600090a38360ca600082825461145091906122ef565b90915550610e459050565b6102e083015161146c9060026122c2565b836102c0015111610e45576000836102c00151846102e00151600261149191906122c2565b61149b9190612332565b9050836102e0015160026114af91906122c2565b6102c085015260c9546040805163011a216360e51b8152905192965086926001600160a01b03909216916323442c60916004808201926020929091908290030181865afa158015611504573d6000803e3d6000fd5b505050506040513d601f19601f820116820180604052508101906115289190611e61565b604051633666085760e11b815263ffffffff88166004820152602481018790526001600160a01b039190911690636ccc10ae90604401600060405180830381600087803b15801561157857600080fd5b505af115801561158c573d6000803e3d6000fd5b505060405187925063ffffffff891691507f7cd8783637a6bf8d3b4b69973a28720cfb0f5abc55d8b85dde1732d8f22c0efc90600090a38060ca60008282546115d591906122ef565b909155505050505050919050565b600054610100900460ff1661160a5760405162461bcd60e51b815260040161066290612345565b6108946119a0565b600054610100900460ff166108945760405162461bcd60e51b815260040161066290612345565b63ffffffff808416600090815260d0602052604081208054928716650100000000000268ffffffffff0000000019909316929092176401000000001782556001820184905560cc5460028301805461ffff191661ffff62010000909304929092169190911790556003820183905560cb8054916116b583612390565b91905055505050505050565b60008060c960009054906101000a90046001600160a01b03166001600160a01b03166323442c606040518163ffffffff1660e01b8152600401602060405180830381865afa158015611717573d6000803e3d6000fd5b505050506040513d601f19601f8201168201806040525081019061173b9190611e61565b604051632100978960e01b815263ffffffff851660048201526001600160a01b039190911690632100978990602401600060405180830381865afa158015611787573d6000803e3d6000fd5b505050506040513d6000823e601f3d908101601f191682016040526117af9190810190611ff9565b61038081015180516102e083015192935090916117cd9060026122c2565b836102c001511080156117e05750600081115b80156117ef5750826104200151155b15610e405760005b818161ffff161015610e3a57600060d06000858461ffff168151811061181f5761181f6122d9565b602002602001015163ffffffff1663ffffffff16815260200190815260200160002090508060000160049054906101000a900460ff16156118c65760cc54600182015460009161ffff8082169261187f92620100009004909116906122c2565b61188991906123a9565b9050600082600301544261189d9190612332565b9050620151806118ad82846122c2565b6118b791906123a9565b6118c190896122ef565b975050505b50806118d181612302565b9150506117f7565b6001600160a01b0381163b6119465760405162461bcd60e51b815260206004820152602d60248201527f455243313936373a206e657720696d706c656d656e746174696f6e206973206e60448201526c1bdd08184818dbdb9d1c9858dd609a1b6064820152608401610662565b60008051602061241b83398151915280546001600160a01b0319166001600160a01b0392909216919091179055565b61197e836119d0565b60008251118061198b5750805b156105de5761199a8383611a10565b50505050565b600054610100900460ff166119c75760405162461bcd60e51b815260040161066290612345565b61089433611090565b6119d9816118d9565b6040516001600160a01b038216907fbc7cd75a20ee27fd9adebab32041f755214dbc6bffa90cc0225b39da2e5c2d3b90600090a250565b60606001600160a01b0383163b611a785760405162461bcd60e51b815260206004820152602660248201527f416464726573733a2064656c65676174652063616c6c20746f206e6f6e2d636f6044820152651b9d1c9858dd60d21b6064820152608401610662565b600080846001600160a01b031684604051611a9391906123cb565b600060405180830381855af49150503d8060008114611ace576040519150601f19603f3d011682016040523d82523d6000602084013e611ad3565b606091505b5091509150611afb828260405180606001604052806027815260200161243b60279139611b04565b95945050505050565b60608315611b13575081610b1e565b610b1e8383815115611b285781518083602001fd5b8060405162461bcd60e51b815260040161066291906123e7565b6001600160a01b038116811461061757600080fd5b60008060408385031215611b6a57600080fd5b8235611b7581611b42565b946020939093013593505050565b600060208284031215611b9557600080fd5b8135610b1e81611b42565b634e487b7160e01b600052604160045260246000fd5b604051610480810167ffffffffffffffff81118282101715611bda57611bda611ba0565b60405290565b604051601f8201601f1916810167ffffffffffffffff81118282101715611c0957611c09611ba0565b604052919050565b600067ffffffffffffffff821115611c2b57611c2b611ba0565b50601f01601f191660200190565b60008060408385031215611c4c57600080fd5b8235611c5781611b42565b9150602083013567ffffffffffffffff811115611c7357600080fd5b8301601f81018513611c8457600080fd5b8035611c97611c9282611c11565b611be0565b818152866020838501011115611cac57600080fd5b816020840160208301376000602083830101528093505050509250929050565b63ffffffff8116811461061757600080fd5b600060208284031215611cf057600080fd5b8135610b1e81611ccc565b60008060408385031215611d0e57600080fd5b823561ffff81168114611b7557600080fd5b600080600060608486031215611d3557600080fd5b8335611d4081611ccc565b95602085013595506040909401359392505050565b6020808252602c908201527f46756e6374696f6e206d7573742062652063616c6c6564207468726f7567682060408201526b19195b1959d85d1958d85b1b60a21b606082015260800190565b6020808252602c908201527f46756e6374696f6e206d7573742062652063616c6c6564207468726f7567682060408201526b6163746976652070726f787960a01b606082015260800190565b80518015158114611dfd57600080fd5b919050565b600060208284031215611e1457600080fd5b610b1e82611ded565b634e487b7160e01b600052601160045260246000fd5b600063ffffffff808316818103611e4c57611e4c611e1d565b6001019392505050565b8051611dfd81611b42565b600060208284031215611e7357600080fd5b8151610b1e81611b42565b8051611dfd81611ccc565b60005b83811015611ea4578181015183820152602001611e8c565b50506000910152565b600082601f830112611ebe57600080fd5b8151611ecc611c9282611c11565b818152846020838601011115611ee157600080fd5b611ef2826020830160208701611e89565b949350505050565b600067ffffffffffffffff821115611f1457611f14611ba0565b5060051b60200190565b600082601f830112611f2f57600080fd5b81516020611f3f611c9283611efa565b82815260059290921b84018101918181019086841115611f5e57600080fd5b8286015b84811015611f82578051611f7581611ccc565b8352918301918301611f62565b509695505050505050565b600082601f830112611f9e57600080fd5b81516020611fae611c9283611efa565b82815260059290921b84018101918181019086841115611fcd57600080fd5b8286015b84811015611f825780518352918301918301611fd1565b805160ff81168114611dfd57600080fd5b60006020828403121561200b57600080fd5b815167ffffffffffffffff8082111561202357600080fd5b90830190610480828603121561203857600080fd5b612040611bb6565b61204983611e7e565b815260208301518281111561205d57600080fd5b61206987828601611ead565b6020830152506040830151604082015261208560608401611ded565b606082015261209660808401611e56565b60808201526120a760a08401611e7e565b60a08201526120b860c08401611ded565b60c082015260e0830151828111156120cf57600080fd5b6120db87828601611f1e565b60e08301525061010080840151838111156120f557600080fd5b61210188828701611f1e565b828401525050610120808401518381111561211b57600080fd5b61212788828701611f1e565b828401525050610140808401518381111561214157600080fd5b61214d88828701611f8d565b9183019190915250610160838101519082015261018080840151908201526101a080840151908201526101c080840151908201526101e080840151908201526102008084015190820152610220808401519082015261024080840151908201526102606121bb818501611fe8565b908201526102806121cd848201611e7e565b908201526102a083810151908201526102c080840151908201526102e080840151908201526103008084015190820152610320808401519082015261034080840151908201526103608084015190820152610380808401518381111561223257600080fd5b61223e88828701611f1e565b91830191909152506103a083810151908201526103c080840151908201526103e080840151908201526104009150612277828401611ded565b82820152610420915061228b828401611ded565b82820152610440915061229f828401611ded565b8282015261046091506122b3828401611ded565b91810191909152949350505050565b80820281158282048414176108a1576108a1611e1d565b634e487b7160e01b600052603260045260246000fd5b808201808211156108a1576108a1611e1d565b600061ffff808316818103611e4c57611e4c611e1d565b60006020828403121561232b57600080fd5b5051919050565b818103818111156108a1576108a1611e1d565b6020808252602b908201527f496e697469616c697a61626c653a20636f6e7472616374206973206e6f74206960408201526a6e697469616c697a696e6760a81b606082015260800190565b6000600182016123a2576123a2611e1d565b5060010190565b6000826123c657634e487b7160e01b600052601260045260246000fd5b500490565b600082516123dd818460208701611e89565b9190910192915050565b6020815260008251806020840152612406816040850160208701611e89565b601f01601f1916919091016040019291505056fe360894a13ba1a3210667c828492db98dca3e2076cc3735a920a3ca505d382bbc416464726573733a206c6f772d6c6576656c2064656c65676174652063616c6c206661696c6564a264697066735822122077655f9ee18faf42a29a4c2ed732602e68bce0b1e84a73405a335445affd48c464736f6c63430008110033",
  "linkReferences": {},
  "deployedLinkReferences": {}
}