{
  "_format": "hh-sol-artifact-1",
  "contractName": "ROIV1Upgradeable",
  "sourceName": "contracts/ROIV1Upgradeable.sol",
  "abi": [
    {
      "anonymous": false,
      "inputs": [
        {
          "indexed": false,
          "internalType": "address",
          "name": "previousAdmin",
          "type": "address"
        },
        {
          "indexed": false,
          "internalType": "address",
          "name": "newAdmin",
          "type": "address"
        }
      ],
      "name": "AdminChanged",
      "type": "event"
    },
    {
      "anonymous": false,
      "inputs": [
        {
          "indexed": true,
          "internalType": "address",
          "name": "beacon",
          "type": "address"
        }
      ],
      "name": "BeaconUpgraded",
      "type": "event"
    },
    {
      "anonymous": false,
      "inputs": [
        {
          "indexed": false,
          "internalType": "uint8",
          "name": "version",
          "type": "uint8"
        }
      ],
      "name": "Initialized",
      "type": "event"
    },
    {
      "anonymous": false,
      "inputs": [
        {
          "indexed": true,
          "internalType": "address",
          "name": "previousOwner",
          "type": "address"
        },
        {
          "indexed": true,
          "internalType": "address",
          "name": "newOwner",
          "type": "address"
        }
      ],
      "name": "OwnershipTransferred",
      "type": "event"
    },
    {
      "anonymous": false,
      "inputs": [
        {
          "indexed": false,
          "internalType": "uint32",
          "name": "_owner",
          "type": "uint32"
        },
        {
          "indexed": false,
          "internalType": "uint32",
          "name": "_roiId",
          "type": "uint32"
        },
        {
          "indexed": false,
          "internalType": "uint256",
          "name": "_value",
          "type": "uint256"
        },
        {
          "indexed": false,
          "internalType": "uint16",
          "name": "_rewardRate",
          "type": "uint16"
        }
      ],
      "name": "ROIActivated",
      "type": "event"
    },
    {
      "anonymous": false,
      "inputs": [
        {
          "indexed": true,
          "internalType": "uint256",
          "name": "_owner",
          "type": "uint256"
        },
        {
          "indexed": true,
          "internalType": "uint256",
          "name": "_rewardRate",
          "type": "uint256"
        }
      ],
      "name": "ROIClaimed",
      "type": "event"
    },
    {
      "anonymous": false,
      "inputs": [
        {
          "indexed": false,
          "internalType": "uint32",
          "name": "_owner",
          "type": "uint32"
        },
        {
          "indexed": false,
          "internalType": "uint32",
          "name": "_roiId",
          "type": "uint32"
        }
      ],
      "name": "ROIDeactivated",
      "type": "event"
    },
    {
      "anonymous": false,
      "inputs": [
        {
          "indexed": true,
          "internalType": "address",
          "name": "implementation",
          "type": "address"
        }
      ],
      "name": "Upgraded",
      "type": "event"
    },
    {
      "inputs": [],
      "name": "_roiClaimTimelimit",
      "outputs": [
        {
          "internalType": "uint256",
          "name": "",
          "type": "uint256"
        }
      ],
      "stateMutability": "view",
      "type": "function"
    },
    {
      "inputs": [],
      "name": "_roiDuration",
      "outputs": [
        {
          "internalType": "uint256",
          "name": "",
          "type": "uint256"
        }
      ],
      "stateMutability": "view",
      "type": "function"
    },
    {
      "inputs": [],
      "name": "_roiRate",
      "outputs": [
        {
          "internalType": "uint16",
          "name": "",
          "type": "uint16"
        }
      ],
      "stateMutability": "view",
      "type": "function"
    },
    {
      "inputs": [
        {
          "internalType": "uint32",
          "name": "_ownerId",
          "type": "uint32"
        },
        {
          "internalType": "uint256",
          "name": "_value",
          "type": "uint256"
        },
        {
          "internalType": "uint256",
          "name": "_startTime",
          "type": "uint256"
        },
        {
          "internalType": "uint256",
          "name": "_resetTime",
          "type": "uint256"
        },
        {
          "internalType": "uint256",
          "name": "_duration",
          "type": "uint256"
        }
      ],
      "name": "activateROIAdmin",
      "outputs": [
        {
          "internalType": "uint32",
          "name": "",
          "type": "uint32"
        }
      ],
      "stateMutability": "nonpayable",
      "type": "function"
    },
    {
      "inputs": [
        {
          "internalType": "uint32",
          "name": "_id",
          "type": "uint32"
        }
      ],
      "name": "claimROI",
      "outputs": [
        {
          "internalType": "uint256",
          "name": "",
          "type": "uint256"
        }
      ],
      "stateMutability": "nonpayable",
      "type": "function"
    },
    {
      "inputs": [
        {
          "internalType": "uint32",
          "name": "_id",
          "type": "uint32"
        }
      ],
      "name": "claimROIAdmin",
      "outputs": [
        {
          "internalType": "uint256",
          "name": "",
          "type": "uint256"
        }
      ],
      "stateMutability": "nonpayable",
      "type": "function"
    },
    {
      "inputs": [],
      "name": "decimals",
      "outputs": [
        {
          "internalType": "uint16",
          "name": "",
          "type": "uint16"
        }
      ],
      "stateMutability": "view",
      "type": "function"
    },
    {
      "inputs": [
        {
          "internalType": "uint32",
          "name": "_roiID",
          "type": "uint32"
        }
      ],
      "name": "getROIAccount",
      "outputs": [
        {
          "components": [
            {
              "internalType": "uint32",
              "name": "id",
              "type": "uint32"
            },
            {
              "internalType": "uint32",
              "name": "ownerId",
              "type": "uint32"
            },
            {
              "internalType": "uint256",
              "name": "value",
              "type": "uint256"
            },
            {
              "internalType": "uint16",
              "name": "roiRate",
              "type": "uint16"
            },
            {
              "internalType": "uint256",
              "name": "startTime",
              "type": "uint256"
            },
            {
              "internalType": "uint256",
              "name": "resetTime",
              "type": "uint256"
            },
            {
              "internalType": "uint256",
              "name": "endTime",
              "type": "uint256"
            }
          ],
          "internalType": "struct ROIV1Upgradeable.StructROI",
          "name": "",
          "type": "tuple"
        }
      ],
      "stateMutability": "view",
      "type": "function"
    },
    {
      "inputs": [
        {
          "internalType": "uint32",
          "name": "_id",
          "type": "uint32"
        }
      ],
      "name": "getUserIDTotalROI",
      "outputs": [
        {
          "internalType": "uint256",
          "name": "",
          "type": "uint256"
        }
      ],
      "stateMutability": "view",
      "type": "function"
    },
    {
      "inputs": [
        {
          "internalType": "uint32",
          "name": "_id",
          "type": "uint32"
        }
      ],
      "name": "getUserTotalActiveROIValue",
      "outputs": [
        {
          "internalType": "uint256",
          "name": "roiTotalValue",
          "type": "uint256"
        }
      ],
      "stateMutability": "view",
      "type": "function"
    },
    {
      "inputs": [],
      "name": "initialize",
      "outputs": [],
      "stateMutability": "nonpayable",
      "type": "function"
    },
    {
      "inputs": [],
      "name": "isPayROI",
      "outputs": [
        {
          "internalType": "bool",
          "name": "",
          "type": "bool"
        }
      ],
      "stateMutability": "view",
      "type": "function"
    },
    {
      "inputs": [
        {
          "internalType": "uint32",
          "name": "_roiId",
          "type": "uint32"
        }
      ],
      "name": "isROIActive",
      "outputs": [
        {
          "internalType": "bool",
          "name": "",
          "type": "bool"
        }
      ],
      "stateMutability": "view",
      "type": "function"
    },
    {
      "inputs": [],
      "name": "owner",
      "outputs": [
        {
          "internalType": "address",
          "name": "",
          "type": "address"
        }
      ],
      "stateMutability": "view",
      "type": "function"
    },
    {
      "inputs": [],
      "name": "proxiableUUID",
      "outputs": [
        {
          "internalType": "bytes32",
          "name": "",
          "type": "bytes32"
        }
      ],
      "stateMutability": "view",
      "type": "function"
    },
    {
      "inputs": [],
      "name": "renounceOwnership",
      "outputs": [],
      "stateMutability": "nonpayable",
      "type": "function"
    },
    {
      "inputs": [
        {
          "internalType": "address",
          "name": "_address",
          "type": "address"
        },
        {
          "internalType": "uint256",
          "name": "_value",
          "type": "uint256"
        }
      ],
      "name": "sendETHAdmin",
      "outputs": [],
      "stateMutability": "nonpayable",
      "type": "function"
    },
    {
      "inputs": [
        {
          "internalType": "uint16",
          "name": "_roiRateInDecimals",
          "type": "uint16"
        },
        {
          "internalType": "uint256",
          "name": "_durationInDays",
          "type": "uint256"
        },
        {
          "internalType": "uint256",
          "name": "_roiClaimTimelimitInSeconds",
          "type": "uint256"
        }
      ],
      "name": "setROI",
      "outputs": [],
      "stateMutability": "nonpayable",
      "type": "function"
    },
    {
      "inputs": [
        {
          "internalType": "uint32",
          "name": "_count",
          "type": "uint32"
        }
      ],
      "name": "setROIIDCount",
      "outputs": [],
      "stateMutability": "nonpayable",
      "type": "function"
    },
    {
      "inputs": [],
      "name": "totalROIIDs",
      "outputs": [
        {
          "internalType": "uint32",
          "name": "",
          "type": "uint32"
        }
      ],
      "stateMutability": "view",
      "type": "function"
    },
    {
      "inputs": [],
      "name": "totalROIPaid",
      "outputs": [
        {
          "internalType": "uint256",
          "name": "",
          "type": "uint256"
        }
      ],
      "stateMutability": "view",
      "type": "function"
    },
    {
      "inputs": [],
      "name": "totalROIValue",
      "outputs": [
        {
          "internalType": "uint256",
          "name": "",
          "type": "uint256"
        }
      ],
      "stateMutability": "view",
      "type": "function"
    },
    {
      "inputs": [
        {
          "internalType": "address",
          "name": "newOwner",
          "type": "address"
        }
      ],
      "name": "transferOwnership",
      "outputs": [],
      "stateMutability": "nonpayable",
      "type": "function"
    },
    {
      "inputs": [
        {
          "internalType": "address",
          "name": "newImplementation",
          "type": "address"
        }
      ],
      "name": "upgradeTo",
      "outputs": [],
      "stateMutability": "nonpayable",
      "type": "function"
    },
    {
      "inputs": [
        {
          "internalType": "address",
          "name": "newImplementation",
          "type": "address"
        },
        {
          "internalType": "bytes",
          "name": "data",
          "type": "bytes"
        }
      ],
      "name": "upgradeToAndCall",
      "outputs": [],
      "stateMutability": "payable",
      "type": "function"
    },
    {
      "inputs": [],
      "name": "withdrawETHAdmin",
      "outputs": [],
      "stateMutability": "nonpayable",
      "type": "function"
    },
    {
      "inputs": [
        {
          "internalType": "address",
          "name": "_tokenAddress",
          "type": "address"
        },
        {
          "internalType": "uint256",
          "name": "_value",
          "type": "uint256"
        }
      ],
      "name": "withdrawTokensAdmin",
      "outputs": [],
      "stateMutability": "nonpayable",
      "type": "function"
    },
    {
      "stateMutability": "payable",
      "type": "receive"
    }
  ],
  "bytecode": "0x60a06040523060805234801561001457600080fd5b5060805161292161004c600039600081816105e20152818161062b015281816106c701528181610707015261079a01526129216000f3fe6080604052600436106101a05760003560e01c806381b0e086116100ec578063c3ab5ebf1161008a578063d895af2c11610064578063d895af2c146104e8578063ea62f71514610508578063eaec636414610528578063f2fde38b1461053e57600080fd5b8063c3ab5ebf14610424578063c82801ca146104a8578063d275f14e146104c857600080fd5b8063a1b80175116100c6578063a1b8017514610390578063abab358f146103c9578063af2f39d1146103ea578063bf46de631461040457600080fd5b806381b0e086146103325780638da5cb5b14610348578063a0b6105f1461037057600080fd5b806352d1902d11610159578063715018a611610133578063715018a6146102d2578063770ceeb1146102e75780637e09c75e146103075780638129fc1c1461031d57600080fd5b806352d1902d1461026d578063536c3c6b1461028257806355332a85146102a257600080fd5b80630b243dad146101ac57806330abbcc5146101ce578063313ce567146101f757806335759788146102255780633659cfe61461023a5780634f1ef2861461025a57600080fd5b366101a757005b600080fd5b3480156101b857600080fd5b506101cc6101c7366004611f70565b61055e565b005b3480156101da57600080fd5b506101e460ca5481565b6040519081526020015b60405180910390f35b34801561020357600080fd5b5060cc546102129061ffff1681565b60405161ffff90911681526020016101ee565b34801561023157600080fd5b506101cc6105a1565b34801561024657600080fd5b506101cc610255366004611f9c565b6105d8565b6101cc610268366004612052565b6106bd565b34801561027957600080fd5b506101e461078d565b34801561028e57600080fd5b506101e461029d3660046120f7565b610840565b3480156102ae57600080fd5b506102c26102bd3660046120f7565b6109bf565b60405190151581526020016101ee565b3480156102de57600080fd5b506101cc6109d0565b3480156102f357600080fd5b506101e46103023660046120f7565b6109e4565b34801561031357600080fd5b506101e460ce5481565b34801561032957600080fd5b506101cc610c09565b34801561033e57600080fd5b506101e460cd5481565b34801561035457600080fd5b506033546040516001600160a01b0390911681526020016101ee565b34801561037c57600080fd5b506101cc61038b366004611f70565b610d6a565b34801561039c57600080fd5b5060c9546103b490600160a01b900463ffffffff1681565b60405163ffffffff90911681526020016101ee565b3480156103d557600080fd5b5060cc546102129062010000900461ffff1681565b3480156103f657600080fd5b5060cf546102c29060ff1681565b34801561041057600080fd5b506101e461041f3660046120f7565b610de3565b34801561043057600080fd5b5061044461043f3660046120f7565b610def565b6040516101ee9190600060e08201905063ffffffff808451168352806020850151166020840152506040830151604083015261ffff60608401511660608301526080830151608083015260a083015160a083015260c083015160c083015292915050565b3480156104b457600080fd5b506101cc6104c3366004612114565b610eb5565b3480156104d457600080fd5b506103b46104e3366004612150565b610f6c565b3480156104f457600080fd5b506101cc6105033660046120f7565b61100c565b34801561051457600080fd5b506101e46105233660046120f7565b6110ba565b34801561053457600080fd5b506101e460cb5481565b34801561054a57600080fd5b506101cc610559366004611f9c565b61129f565b610566611315565b6040516001600160a01b0383169082156108fc029083906000818181858888f1935050505015801561059c573d6000803e3d6000fd5b505050565b6105a9611315565b60405133904780156108fc02916000818181858888f193505050501580156105d5573d6000803e3d6000fd5b50565b6001600160a01b037f00000000000000000000000000000000000000000000000000000000000000001630036106295760405162461bcd60e51b815260040161062090612194565b60405180910390fd5b7f00000000000000000000000000000000000000000000000000000000000000006001600160a01b03166106726000805160206128a5833981519152546001600160a01b031690565b6001600160a01b0316146106985760405162461bcd60e51b8152600401610620906121e0565b6106a18161136f565b604080516000808252602082019092526105d591839190611377565b6001600160a01b037f00000000000000000000000000000000000000000000000000000000000000001630036107055760405162461bcd60e51b815260040161062090612194565b7f00000000000000000000000000000000000000000000000000000000000000006001600160a01b031661074e6000805160206128a5833981519152546001600160a01b031690565b6001600160a01b0316146107745760405162461bcd60e51b8152600401610620906121e0565b61077d8261136f565b61078982826001611377565b5050565b6000306001600160a01b037f0000000000000000000000000000000000000000000000000000000000000000161461082d5760405162461bcd60e51b815260206004820152603860248201527f555550535570677261646561626c653a206d757374206e6f742062652063616c60448201527f6c6564207468726f7567682064656c656761746563616c6c00000000000000006064820152608401610620565b506000805160206128a583398151915290565b60c954604051630935e01b60e21b81523360048201526000916001600160a01b0316906324d7806c90602401602060405180830381865afa158015610889573d6000803e3d6000fd5b505050506040513d601f19601f820116820180604052508101906108ad919061223c565b6108c95760405162461bcd60e51b815260040161062090612257565b60c9546040805163011a216360e51b815290516000926001600160a01b0316916323442c609160048083019260209291908290030181865afa158015610913573d6000803e3d6000fd5b505050506040513d601f19601f8201168201806040525081019061093791906122a7565b604051632100978960e01b815263ffffffff851660048201526001600160a01b039190911690632100978990602401600060405180830381865afa158015610983573d6000803e3d6000fd5b505050506040513d6000823e601f3d908101601f191682016040526109ab919081019061243f565b90506109b6816114e2565b9150505b919050565b60006109ca826117d1565b92915050565b6109d8611315565b6109e2600061185d565b565b60008060c960009054906101000a90046001600160a01b03166001600160a01b03166323442c606040518163ffffffff1660e01b8152600401602060405180830381865afa158015610a3a573d6000803e3d6000fd5b505050506040513d601f19601f82011682018060405250810190610a5e91906122a7565b604051632100978960e01b815263ffffffff851660048201526001600160a01b039190911690632100978990602401600060405180830381865afa158015610aaa573d6000803e3d6000fd5b505050506040513d6000823e601f3d908101601f19168201604052610ad2919081019061243f565b905080608001516001600160a01b0316336001600160a01b031614610b395760405162461bcd60e51b815260206004820152601d60248201527f596f7520617265206e6f74206f776e6572206f6620746869732069642e0000006044820152606401610620565b60ce54816103c00151610b4c919061271e565b421015610bad5760405162461bcd60e51b815260206004820152602960248201527f596f757220726f6920636c61696d2074696d656c696d6974206973206e6f742060448201526837bb32b9103cb2ba1760b91b6064820152608401610620565b80610420015115610c005760405162461bcd60e51b815260206004820152601960248201527f4163636f756e742064697361626c65642062792061646d696e000000000000006044820152606401610620565b6109b6816114e2565b600054610100900460ff1615808015610c295750600054600160ff909116105b80610c435750303b158015610c43575060005460ff166001145b610ca65760405162461bcd60e51b815260206004820152602e60248201527f496e697469616c697a61626c653a20636f6e747261637420697320616c72656160448201526d191e481a5b9a5d1a585b1a5e995960921b6064820152608401610620565b6000805460ff191660011790558015610cc9576000805461ff0019166101001790555b60c980546001600160a01b031916730b8bf5feb9fca57d9c5d27185ddf3017e99a2d3617905560cc8054620503e863ffffffff199091161790556201518060ce5563020f580060cd55610d1a6118af565b610d226118de565b80156105d5576000805461ff0019169055604051600181527f7f26b83ff96e1f2b6a682f133852f6798a09c465da95921460cefb38474024989060200160405180910390a150565b610d72611315565b60405163a9059cbb60e01b8152336004820152602481018290526001600160a01b0383169063a9059cbb906044016020604051808303816000875af1158015610dbf573d6000803e3d6000fd5b505050506040513d601f19601f8201168201806040525081019061059c919061223c565b60006109ca8242611905565b610e3f6040518060e00160405280600063ffffffff168152602001600063ffffffff16815260200160008152602001600061ffff1681526020016000815260200160008152602001600081525090565b5063ffffffff908116600090815260d06020908152604091829020825160e08101845281548086168252640100000000900490941691840191909152600181015491830191909152600281015461ffff16606083015260038101546080830152600481015460a08301526005015460c082015290565b60c954604051630935e01b60e21b81523360048201526001600160a01b03909116906324d7806c90602401602060405180830381865afa158015610efd573d6000803e3d6000fd5b505050506040513d601f19601f82011682018060405250810190610f21919061223c565b610f3d5760405162461bcd60e51b815260040161062090612257565b60cc805463ffff000019166201000061ffff861602179055610f628262015180612731565b60cd5560ce555050565b60c954604051630935e01b60e21b81523360048201526000916001600160a01b0316906324d7806c90602401602060405180830381865afa158015610fb5573d6000803e3d6000fd5b505050506040513d601f19601f82011682018060405250810190610fd9919061223c565b610ff55760405162461bcd60e51b815260040161062090612257565b6110028686868686611b38565b9695505050505050565b60c954604051630935e01b60e21b81523360048201526001600160a01b03909116906324d7806c90602401602060405180830381865afa158015611054573d6000803e3d6000fd5b505050506040513d601f19601f82011682018060405250810190611078919061223c565b6110945760405162461bcd60e51b815260040161062090612257565b60c9805463ffffffff909216600160a01b0263ffffffff60a01b19909216919091179055565b60008060c960009054906101000a90046001600160a01b03166001600160a01b03166323442c606040518163ffffffff1660e01b8152600401602060405180830381865afa158015611110573d6000803e3d6000fd5b505050506040513d601f19601f8201168201806040525081019061113491906122a7565b604051632100978960e01b815263ffffffff851660048201526001600160a01b039190911690632100978990602401600060405180830381865afa158015611180573d6000803e3d6000fd5b505050506040513d6000823e601f3d908101601f191682016040526111a8919081019061243f565b61038081015180516102e083015192935090916111c6906002612731565b836102c001511080156111d95750600081115b80156111e85750826104200151155b156112925760005b818161ffff16101561128c57600060d06000858461ffff168151811061121857611218612748565b602002602001015163ffffffff1663ffffffff1681526020019081526020016000209050611262848361ffff168151811061125557611255612748565b60200260200101516117d1565b15611279576001810154611276908761271e565b95505b50806112848161275e565b9150506111f0565b50611297565b600093505b505050919050565b6112a7611315565b6001600160a01b03811661130c5760405162461bcd60e51b815260206004820152602660248201527f4f776e61626c653a206e6577206f776e657220697320746865207a65726f206160448201526564647265737360d01b6064820152608401610620565b6105d58161185d565b6033546001600160a01b031633146109e25760405162461bcd60e51b815260206004820181905260248201527f4f776e61626c653a2063616c6c6572206973206e6f7420746865206f776e65726044820152606401610620565b6105d5611315565b7f4910fdfa16fed3260ed0e7147f7cc6da11a60208b5b9406d12a635614ffd91435460ff16156113aa5761059c83611c4f565b826001600160a01b03166352d1902d6040518163ffffffff1660e01b8152600401602060405180830381865afa925050508015611404575060408051601f3d908101601f191682019092526114019181019061277f565b60015b6114675760405162461bcd60e51b815260206004820152602e60248201527f45524331393637557067726164653a206e657720696d706c656d656e7461746960448201526d6f6e206973206e6f74205555505360901b6064820152608401610620565b6000805160206128a583398151915281146114d65760405162461bcd60e51b815260206004820152602960248201527f45524331393637557067726164653a20756e737570706f727465642070726f786044820152681a58589b195555525160ba1b6064820152608401610620565b5061059c838383611ceb565b8051600090429082906114f59083611905565b9050836102e0015160026115099190612731565b846102c001511115801561153c57506102e0840151611529906002612731565b81856102c0015161153a919061271e565b105b15611561578092508260ca6000828254611556919061271e565b909155506115bf9050565b6102e0840151611572906002612731565b846102c00151116115bf576000846102c00151856102e0015160026115979190612731565b6115a19190612798565b90508093508060ca60008282546115b8919061271e565b9091555050505b82156117c05760c960009054906101000a90046001600160a01b03166001600160a01b03166323442c606040518163ffffffff1660e01b8152600401602060405180830381865afa158015611618573d6000803e3d6000fd5b505050506040513d601f19601f8201168201806040525081019061163c91906122a7565b845160405163284eb62960e11b815263ffffffff9091166004820152602481018590526001600160a01b03919091169063509d6c5290604401600060405180830381600087803b15801561168f57600080fd5b505af11580156116a3573d6000803e3d6000fd5b5050505060c960009054906101000a90046001600160a01b03166001600160a01b03166323442c606040518163ffffffff1660e01b8152600401602060405180830381865afa1580156116fa573d6000803e3d6000fd5b505050506040513d601f19601f8201168201806040525081019061171e91906122a7565b845160405163498b3e5560e01b81526004810186905263ffffffff90911660248201526001600160a01b03919091169063498b3e5590604401600060405180830381600087803b15801561177157600080fd5b505af1158015611785573d6000803e3d6000fd5b5050855160405186935063ffffffff90911691507f7cd8783637a6bf8d3b4b69973a28720cfb0f5abc55d8b85dde1732d8f22c0efc90600090a35b6117ca8483611d16565b5050919050565b63ffffffff808216600090815260d060209081526040808320815160e08101835281548087168252640100000000900490951692850192909252600182015490840152600281015461ffff16606084015260038101546080840152600481015460a08401526005015460c083018190529091904210156118545750600192915050565b50600092915050565b603380546001600160a01b038381166001600160a01b0319831681179093556040519116919082907f8be0079c531659141344cd1fd0a4f28419497f9722a3daafe3b4186f6b6457e090600090a35050565b600054610100900460ff166118d65760405162461bcd60e51b8152600401610620906127ab565b6109e2611dad565b600054610100900460ff166109e25760405162461bcd60e51b8152600401610620906127ab565b60008060c960009054906101000a90046001600160a01b03166001600160a01b03166323442c606040518163ffffffff1660e01b8152600401602060405180830381865afa15801561195b573d6000803e3d6000fd5b505050506040513d601f19601f8201168201806040525081019061197f91906122a7565b604051632100978960e01b815263ffffffff861660048201526001600160a01b039190911690632100978990602401600060405180830381865afa1580156119cb573d6000803e3d6000fd5b505050506040513d6000823e601f3d908101601f191682016040526119f3919081019061243f565b61038081015180516102e08301519293509091611a11906002612731565b836102c00151108015611a245750600081115b8015611a335750826104200151155b15611b2a5760005b818161ffff161015611b2457600060d06000858461ffff1681518110611a6357611a63612748565b602002602001015163ffffffff1663ffffffff1681526020019081526020016000209050611aa0848361ffff168151811061125557611255612748565b15611b115760cc54600182015460009161ffff80821692611aca9262010000900490911690612731565b611ad491906127f6565b90506000826004015489611ae89190612798565b905062015180611af88284612731565b611b0291906127f6565b611b0c908961271e565b975050505b5080611b1c8161275e565b915050611a3b565b50611b2f565b600093505b50505092915050565b60c980546000918291600160a01b900463ffffffff16906014611b5a83612818565b91906101000a81548163ffffffff021916908363ffffffff1602179055509050600060d06000836001611b8d9190612831565b63ffffffff16815260208101919091526040016000209050611bb0826001612831565b815463ffffffff8a81166401000000000267ffffffffffffffff199092169216919091171781556001810187905560cc5460028201805461ffff191661ffff62010000909304929092169190911790556003810186905560048101859055611c18848761271e565b81600501819055508660cb6000828254611c32919061271e565b90915550611c439050826001612831565b98975050505050505050565b6001600160a01b0381163b611cbc5760405162461bcd60e51b815260206004820152602d60248201527f455243313936373a206e657720696d706c656d656e746174696f6e206973206e60448201526c1bdd08184818dbdb9d1c9858dd609a1b6064820152608401610620565b6000805160206128a583398151915280546001600160a01b0319166001600160a01b0392909216919091179055565b611cf483611ddd565b600082511180611d015750805b1561059c57611d108383611e1d565b50505050565b610380820151805160005b818161ffff161015611da657600060d06000858461ffff1681518110611d4957611d49612748565b602002602001015163ffffffff1663ffffffff1681526020019081526020016000209050611d86848361ffff168151811061125557611255612748565b15611d9357600481018590555b5080611d9e8161275e565b915050611d21565b5050505050565b600054610100900460ff16611dd45760405162461bcd60e51b8152600401610620906127ab565b6109e23361185d565b611de681611c4f565b6040516001600160a01b038216907fbc7cd75a20ee27fd9adebab32041f755214dbc6bffa90cc0225b39da2e5c2d3b90600090a250565b60606001600160a01b0383163b611e855760405162461bcd60e51b815260206004820152602660248201527f416464726573733a2064656c65676174652063616c6c20746f206e6f6e2d636f6044820152651b9d1c9858dd60d21b6064820152608401610620565b600080846001600160a01b031684604051611ea09190612855565b600060405180830381855af49150503d8060008114611edb576040519150601f19603f3d011682016040523d82523d6000602084013e611ee0565b606091505b5091509150611f0882826040518060600160405280602781526020016128c560279139611f11565b95945050505050565b60608315611f20575081611f2a565b611f2a8383611f31565b9392505050565b815115611f415781518083602001fd5b8060405162461bcd60e51b81526004016106209190612871565b6001600160a01b03811681146105d557600080fd5b60008060408385031215611f8357600080fd5b8235611f8e81611f5b565b946020939093013593505050565b600060208284031215611fae57600080fd5b8135611f2a81611f5b565b634e487b7160e01b600052604160045260246000fd5b604051610480810167ffffffffffffffff81118282101715611ff357611ff3611fb9565b60405290565b604051601f8201601f1916810167ffffffffffffffff8111828210171561202257612022611fb9565b604052919050565b600067ffffffffffffffff82111561204457612044611fb9565b50601f01601f191660200190565b6000806040838503121561206557600080fd5b823561207081611f5b565b9150602083013567ffffffffffffffff81111561208c57600080fd5b8301601f8101851361209d57600080fd5b80356120b06120ab8261202a565b611ff9565b8181528660208385010111156120c557600080fd5b816020840160208301376000602083830101528093505050509250929050565b63ffffffff811681146105d557600080fd5b60006020828403121561210957600080fd5b8135611f2a816120e5565b60008060006060848603121561212957600080fd5b833561ffff8116811461213b57600080fd5b95602085013595506040909401359392505050565b600080600080600060a0868803121561216857600080fd5b8535612173816120e5565b97602087013597506040870135966060810135965060800135945092505050565b6020808252602c908201527f46756e6374696f6e206d7573742062652063616c6c6564207468726f7567682060408201526b19195b1959d85d1958d85b1b60a21b606082015260800190565b6020808252602c908201527f46756e6374696f6e206d7573742062652063616c6c6564207468726f7567682060408201526b6163746976652070726f787960a01b606082015260800190565b805180151581146109ba57600080fd5b60006020828403121561224e57600080fd5b611f2a8261222c565b60208082526025908201527f4f6e6c792041646d696e2063616e2061636365737320746869732066756e637460408201526434b7b7171760d91b606082015260800190565b80516109ba81611f5b565b6000602082840312156122b957600080fd5b8151611f2a81611f5b565b80516109ba816120e5565b60005b838110156122ea5781810151838201526020016122d2565b50506000910152565b600082601f83011261230457600080fd5b81516123126120ab8261202a565b81815284602083860101111561232757600080fd5b6123388260208301602087016122cf565b949350505050565b600067ffffffffffffffff82111561235a5761235a611fb9565b5060051b60200190565b600082601f83011261237557600080fd5b815160206123856120ab83612340565b82815260059290921b840181019181810190868411156123a457600080fd5b8286015b848110156123c85780516123bb816120e5565b83529183019183016123a8565b509695505050505050565b600082601f8301126123e457600080fd5b815160206123f46120ab83612340565b82815260059290921b8401810191818101908684111561241357600080fd5b8286015b848110156123c85780518352918301918301612417565b805160ff811681146109ba57600080fd5b60006020828403121561245157600080fd5b815167ffffffffffffffff8082111561246957600080fd5b90830190610480828603121561247e57600080fd5b612486611fcf565b61248f836122c4565b81526020830151828111156124a357600080fd5b6124af878286016122f3565b602083015250604083015160408201526124cb6060840161222c565b60608201526124dc6080840161229c565b60808201526124ed60a084016122c4565b60a08201526124fe60c0840161222c565b60c082015260e08301518281111561251557600080fd5b61252187828601612364565b60e083015250610100808401518381111561253b57600080fd5b61254788828701612364565b828401525050610120808401518381111561256157600080fd5b61256d88828701612364565b828401525050610140808401518381111561258757600080fd5b612593888287016123d3565b9183019190915250610160838101519082015261018080840151908201526101a080840151908201526101c080840151908201526101e0808401519082015261020080840151908201526102208084015190820152610240808401519082015261026061260181850161242e565b908201526102806126138482016122c4565b908201526102a083810151908201526102c080840151908201526102e080840151908201526103008084015190820152610320808401519082015261034080840151908201526103608084015190820152610380808401518381111561267857600080fd5b61268488828701612364565b91830191909152506103a083810151908201526103c080840151908201526103e0808401519082015261040091506126bd82840161222c565b8282015261042091506126d182840161222c565b8282015261044091506126e582840161222c565b8282015261046091506126f982840161222c565b91810191909152949350505050565b634e487b7160e01b600052601160045260246000fd5b808201808211156109ca576109ca612708565b80820281158282048414176109ca576109ca612708565b634e487b7160e01b600052603260045260246000fd5b600061ffff80831681810361277557612775612708565b6001019392505050565b60006020828403121561279157600080fd5b5051919050565b818103818111156109ca576109ca612708565b6020808252602b908201527f496e697469616c697a61626c653a20636f6e7472616374206973206e6f74206960408201526a6e697469616c697a696e6760a81b606082015260800190565b60008261281357634e487b7160e01b600052601260045260246000fd5b500490565b600063ffffffff80831681810361277557612775612708565b63ffffffff81811683821601908082111561284e5761284e612708565b5092915050565b600082516128678184602087016122cf565b9190910192915050565b60208152600082518060208401526128908160408501602087016122cf565b601f01601f1916919091016040019291505056fe360894a13ba1a3210667c828492db98dca3e2076cc3735a920a3ca505d382bbc416464726573733a206c6f772d6c6576656c2064656c65676174652063616c6c206661696c6564a2646970667358221220d8a674944cb77e652c7c6a9e376c6144ed8372017474b215a9f3bea86106e0d564736f6c63430008120033",
  "linkReferences": {},
  "deployedLinkReferences": {}
}