{
  "_format": "hh-sol-artifact-1",
  "contractName": "ROIV1Upgradeable",
  "sourceName": "contracts/ROIV1Upgradeable.sol",
  "abi": [
    {
      "anonymous": false,
      "inputs": [
        {
          "indexed": false,
          "internalType": "address",
          "name": "previousAdmin",
          "type": "address"
        },
        {
          "indexed": false,
          "internalType": "address",
          "name": "newAdmin",
          "type": "address"
        }
      ],
      "name": "AdminChanged",
      "type": "event"
    },
    {
      "anonymous": false,
      "inputs": [
        {
          "indexed": true,
          "internalType": "address",
          "name": "beacon",
          "type": "address"
        }
      ],
      "name": "BeaconUpgraded",
      "type": "event"
    },
    {
      "anonymous": false,
      "inputs": [
        {
          "indexed": false,
          "internalType": "uint8",
          "name": "version",
          "type": "uint8"
        }
      ],
      "name": "Initialized",
      "type": "event"
    },
    {
      "anonymous": false,
      "inputs": [
        {
          "indexed": true,
          "internalType": "address",
          "name": "previousOwner",
          "type": "address"
        },
        {
          "indexed": true,
          "internalType": "address",
          "name": "newOwner",
          "type": "address"
        }
      ],
      "name": "OwnershipTransferred",
      "type": "event"
    },
    {
      "anonymous": false,
      "inputs": [
        {
          "indexed": false,
          "internalType": "uint32",
          "name": "_owner",
          "type": "uint32"
        },
        {
          "indexed": false,
          "internalType": "uint32",
          "name": "_roiId",
          "type": "uint32"
        },
        {
          "indexed": false,
          "internalType": "uint256",
          "name": "_value",
          "type": "uint256"
        },
        {
          "indexed": false,
          "internalType": "uint16",
          "name": "_rewardRate",
          "type": "uint16"
        }
      ],
      "name": "ROIActivated",
      "type": "event"
    },
    {
      "anonymous": false,
      "inputs": [
        {
          "indexed": true,
          "internalType": "uint256",
          "name": "_owner",
          "type": "uint256"
        },
        {
          "indexed": true,
          "internalType": "uint256",
          "name": "_rewardRate",
          "type": "uint256"
        }
      ],
      "name": "ROIClaimed",
      "type": "event"
    },
    {
      "anonymous": false,
      "inputs": [
        {
          "indexed": false,
          "internalType": "uint32",
          "name": "_owner",
          "type": "uint32"
        },
        {
          "indexed": false,
          "internalType": "uint32",
          "name": "_roiId",
          "type": "uint32"
        }
      ],
      "name": "ROIDeactivated",
      "type": "event"
    },
    {
      "anonymous": false,
      "inputs": [
        {
          "indexed": true,
          "internalType": "address",
          "name": "implementation",
          "type": "address"
        }
      ],
      "name": "Upgraded",
      "type": "event"
    },
    {
      "inputs": [],
      "name": "_roiClaimTimelimit",
      "outputs": [
        {
          "internalType": "uint256",
          "name": "",
          "type": "uint256"
        }
      ],
      "stateMutability": "view",
      "type": "function"
    },
    {
      "inputs": [],
      "name": "_roiDuration",
      "outputs": [
        {
          "internalType": "uint256",
          "name": "",
          "type": "uint256"
        }
      ],
      "stateMutability": "view",
      "type": "function"
    },
    {
      "inputs": [],
      "name": "_roiRate",
      "outputs": [
        {
          "internalType": "uint16",
          "name": "",
          "type": "uint16"
        }
      ],
      "stateMutability": "view",
      "type": "function"
    },
    {
      "inputs": [
        {
          "internalType": "uint32",
          "name": "_ownerId",
          "type": "uint32"
        },
        {
          "internalType": "uint256",
          "name": "_value",
          "type": "uint256"
        },
        {
          "internalType": "uint256",
          "name": "_currentTime",
          "type": "uint256"
        }
      ],
      "name": "activateROIAdmin",
      "outputs": [
        {
          "internalType": "uint32",
          "name": "",
          "type": "uint32"
        }
      ],
      "stateMutability": "nonpayable",
      "type": "function"
    },
    {
      "inputs": [
        {
          "internalType": "uint32",
          "name": "_id",
          "type": "uint32"
        }
      ],
      "name": "claimROIAdmin",
      "outputs": [
        {
          "internalType": "uint256",
          "name": "",
          "type": "uint256"
        }
      ],
      "stateMutability": "nonpayable",
      "type": "function"
    },
    {
      "inputs": [],
      "name": "decimals",
      "outputs": [
        {
          "internalType": "uint16",
          "name": "",
          "type": "uint16"
        }
      ],
      "stateMutability": "view",
      "type": "function"
    },
    {
      "inputs": [
        {
          "internalType": "uint32",
          "name": "_roiID",
          "type": "uint32"
        }
      ],
      "name": "getROIAccount",
      "outputs": [
        {
          "components": [
            {
              "internalType": "uint32",
              "name": "id",
              "type": "uint32"
            },
            {
              "internalType": "uint32",
              "name": "ownerId",
              "type": "uint32"
            },
            {
              "internalType": "uint256",
              "name": "value",
              "type": "uint256"
            },
            {
              "internalType": "uint16",
              "name": "roiRate",
              "type": "uint16"
            },
            {
              "internalType": "uint256",
              "name": "startTime",
              "type": "uint256"
            },
            {
              "internalType": "uint256",
              "name": "resetTime",
              "type": "uint256"
            },
            {
              "internalType": "uint256",
              "name": "endTime",
              "type": "uint256"
            }
          ],
          "internalType": "struct ROIV1Upgradeable.StructROI",
          "name": "",
          "type": "tuple"
        }
      ],
      "stateMutability": "view",
      "type": "function"
    },
    {
      "inputs": [
        {
          "internalType": "uint32",
          "name": "_id",
          "type": "uint32"
        }
      ],
      "name": "getUserIDTotalROI",
      "outputs": [
        {
          "internalType": "uint256",
          "name": "",
          "type": "uint256"
        }
      ],
      "stateMutability": "view",
      "type": "function"
    },
    {
      "inputs": [
        {
          "internalType": "uint32",
          "name": "_id",
          "type": "uint32"
        }
      ],
      "name": "getUserTotalActiveROIValue",
      "outputs": [
        {
          "internalType": "uint256",
          "name": "roiTotalValue",
          "type": "uint256"
        }
      ],
      "stateMutability": "view",
      "type": "function"
    },
    {
      "inputs": [],
      "name": "initialize",
      "outputs": [],
      "stateMutability": "nonpayable",
      "type": "function"
    },
    {
      "inputs": [],
      "name": "isPayROI",
      "outputs": [
        {
          "internalType": "bool",
          "name": "",
          "type": "bool"
        }
      ],
      "stateMutability": "view",
      "type": "function"
    },
    {
      "inputs": [
        {
          "internalType": "uint32",
          "name": "_roiId",
          "type": "uint32"
        }
      ],
      "name": "isROIActive",
      "outputs": [
        {
          "internalType": "bool",
          "name": "",
          "type": "bool"
        }
      ],
      "stateMutability": "view",
      "type": "function"
    },
    {
      "inputs": [],
      "name": "owner",
      "outputs": [
        {
          "internalType": "address",
          "name": "",
          "type": "address"
        }
      ],
      "stateMutability": "view",
      "type": "function"
    },
    {
      "inputs": [],
      "name": "proxiableUUID",
      "outputs": [
        {
          "internalType": "bytes32",
          "name": "",
          "type": "bytes32"
        }
      ],
      "stateMutability": "view",
      "type": "function"
    },
    {
      "inputs": [],
      "name": "renounceOwnership",
      "outputs": [],
      "stateMutability": "nonpayable",
      "type": "function"
    },
    {
      "inputs": [
        {
          "internalType": "address",
          "name": "_address",
          "type": "address"
        },
        {
          "internalType": "uint256",
          "name": "_value",
          "type": "uint256"
        }
      ],
      "name": "sendETHAdmin",
      "outputs": [],
      "stateMutability": "nonpayable",
      "type": "function"
    },
    {
      "inputs": [
        {
          "internalType": "uint16",
          "name": "_roiRateInDecimals",
          "type": "uint16"
        },
        {
          "internalType": "uint256",
          "name": "_durationInDays",
          "type": "uint256"
        },
        {
          "internalType": "uint256",
          "name": "_roiClaimTimelimitInSeconds",
          "type": "uint256"
        }
      ],
      "name": "setROI",
      "outputs": [],
      "stateMutability": "nonpayable",
      "type": "function"
    },
    {
      "inputs": [
        {
          "internalType": "uint32",
          "name": "_count",
          "type": "uint32"
        }
      ],
      "name": "setROIIDCount",
      "outputs": [],
      "stateMutability": "nonpayable",
      "type": "function"
    },
    {
      "inputs": [],
      "name": "totalROIIDs",
      "outputs": [
        {
          "internalType": "uint32",
          "name": "",
          "type": "uint32"
        }
      ],
      "stateMutability": "view",
      "type": "function"
    },
    {
      "inputs": [],
      "name": "totalROIPaid",
      "outputs": [
        {
          "internalType": "uint256",
          "name": "",
          "type": "uint256"
        }
      ],
      "stateMutability": "view",
      "type": "function"
    },
    {
      "inputs": [],
      "name": "totalROIValue",
      "outputs": [
        {
          "internalType": "uint256",
          "name": "",
          "type": "uint256"
        }
      ],
      "stateMutability": "view",
      "type": "function"
    },
    {
      "inputs": [
        {
          "internalType": "address",
          "name": "newOwner",
          "type": "address"
        }
      ],
      "name": "transferOwnership",
      "outputs": [],
      "stateMutability": "nonpayable",
      "type": "function"
    },
    {
      "inputs": [
        {
          "internalType": "address",
          "name": "newImplementation",
          "type": "address"
        }
      ],
      "name": "upgradeTo",
      "outputs": [],
      "stateMutability": "nonpayable",
      "type": "function"
    },
    {
      "inputs": [
        {
          "internalType": "address",
          "name": "newImplementation",
          "type": "address"
        },
        {
          "internalType": "bytes",
          "name": "data",
          "type": "bytes"
        }
      ],
      "name": "upgradeToAndCall",
      "outputs": [],
      "stateMutability": "payable",
      "type": "function"
    },
    {
      "inputs": [],
      "name": "withdrawETHAdmin",
      "outputs": [],
      "stateMutability": "nonpayable",
      "type": "function"
    },
    {
      "inputs": [
        {
          "internalType": "address",
          "name": "_tokenAddress",
          "type": "address"
        },
        {
          "internalType": "uint256",
          "name": "_value",
          "type": "uint256"
        }
      ],
      "name": "withdrawTokensAdmin",
      "outputs": [],
      "stateMutability": "nonpayable",
      "type": "function"
    },
    {
      "stateMutability": "payable",
      "type": "receive"
    }
  ],
  "bytecode": "0x60a06040523060805234801561001457600080fd5b5060805161258161004c600039600081816105a7015281816105f00152818161068c015281816106cc015261075f01526125816000f3fe6080604052600436106101855760003560e01c80638da5cb5b116100d1578063bf46de631161008a578063d895af2c11610064578063d895af2c146104ad578063ea62f715146104cd578063eaec6364146104ed578063f2fde38b1461050357600080fd5b8063bf46de63146103e9578063c3ab5ebf14610409578063c82801ca1461048d57600080fd5b80638da5cb5b1461030d57806398c7438e14610335578063a0b6105f1461036a578063a1b801751461038a578063abab358f146103ae578063af2f39d1146103cf57600080fd5b806352d1902d1161013e578063715018a611610118578063715018a6146102b75780637e09c75e146102cc5780638129fc1c146102e257806381b0e086146102f757600080fd5b806352d1902d14610252578063536c3c6b1461026757806355332a851461028757600080fd5b80630b243dad1461019157806330abbcc5146101b3578063313ce567146101dc578063357597881461020a5780633659cfe61461021f5780634f1ef2861461023f57600080fd5b3661018c57005b600080fd5b34801561019d57600080fd5b506101b16101ac366004611c3c565b610523565b005b3480156101bf57600080fd5b506101c960ca5481565b6040519081526020015b60405180910390f35b3480156101e857600080fd5b5060cc546101f79061ffff1681565b60405161ffff90911681526020016101d3565b34801561021657600080fd5b506101b1610566565b34801561022b57600080fd5b506101b161023a366004611c68565b61059d565b6101b161024d366004611d1e565b610682565b34801561025e57600080fd5b506101c9610752565b34801561027357600080fd5b506101c9610282366004611dc3565b610805565b34801561029357600080fd5b506102a76102a2366004611dc3565b610905565b60405190151581526020016101d3565b3480156102c357600080fd5b506101b1610916565b3480156102d857600080fd5b506101c960ce5481565b3480156102ee57600080fd5b506101b161092a565b34801561030357600080fd5b506101c960cd5481565b34801561031957600080fd5b506033546040516001600160a01b0390911681526020016101d3565b34801561034157600080fd5b50610355610350366004611de0565b610a83565b60405163ffffffff90911681526020016101d3565b34801561037657600080fd5b506101b1610385366004611c3c565b610a9b565b34801561039657600080fd5b5060c95461035590600160a01b900463ffffffff1681565b3480156103ba57600080fd5b5060cc546101f79062010000900461ffff1681565b3480156103db57600080fd5b5060cf546102a79060ff1681565b3480156103f557600080fd5b506101c9610404366004611dc3565b610b14565b34801561041557600080fd5b50610429610424366004611dc3565b610b20565b6040516101d39190600060e08201905063ffffffff808451168352806020850151166020840152506040830151604083015261ffff60608401511660608301526080830151608083015260a083015160a083015260c083015160c083015292915050565b34801561049957600080fd5b506101b16104a8366004611e15565b610be6565b3480156104b957600080fd5b506101b16104c8366004611dc3565b610cc2565b3480156104d957600080fd5b506101c96104e8366004611dc3565b610d95565b3480156104f957600080fd5b506101c960cb5481565b34801561050f57600080fd5b506101b161051e366004611c68565b610f7a565b61052b610ff0565b6040516001600160a01b0383169082156108fc029083906000818181858888f19350505050158015610561573d6000803e3d6000fd5b505050565b61056e610ff0565b60405133904780156108fc02916000818181858888f1935050505015801561059a573d6000803e3d6000fd5b50565b6001600160a01b037f00000000000000000000000000000000000000000000000000000000000000001630036105ee5760405162461bcd60e51b81526004016105e590611e3c565b60405180910390fd5b7f00000000000000000000000000000000000000000000000000000000000000006001600160a01b0316610637600080516020612505833981519152546001600160a01b031690565b6001600160a01b03161461065d5760405162461bcd60e51b81526004016105e590611e88565b6106668161104a565b6040805160008082526020820190925261059a91839190611052565b6001600160a01b037f00000000000000000000000000000000000000000000000000000000000000001630036106ca5760405162461bcd60e51b81526004016105e590611e3c565b7f00000000000000000000000000000000000000000000000000000000000000006001600160a01b0316610713600080516020612505833981519152546001600160a01b031690565b6001600160a01b0316146107395760405162461bcd60e51b81526004016105e590611e88565b6107428261104a565b61074e82826001611052565b5050565b6000306001600160a01b037f000000000000000000000000000000000000000000000000000000000000000016146107f25760405162461bcd60e51b815260206004820152603860248201527f555550535570677261646561626c653a206d757374206e6f742062652063616c60448201527f6c6564207468726f7567682064656c656761746563616c6c000000000000000060648201526084016105e5565b5060008051602061250583398151915290565b60008060c960009054906101000a90046001600160a01b03166001600160a01b03166323442c606040518163ffffffff1660e01b8152600401602060405180830381865afa15801561085b573d6000803e3d6000fd5b505050506040513d601f19601f8201168201806040525081019061087f9190611ee4565b604051632100978960e01b815263ffffffff851660048201526001600160a01b039190911690632100978990602401600060405180830381865afa1580156108cb573d6000803e3d6000fd5b505050506040513d6000823e601f3d908101601f191682016040526108f39190810190612084565b90506108fe816111bd565b9392505050565b6000610910826114aa565b92915050565b61091e610ff0565b6109286000611536565b565b600054610100900460ff161580801561094a5750600054600160ff909116105b806109645750303b158015610964575060005460ff166001145b6109c75760405162461bcd60e51b815260206004820152602e60248201527f496e697469616c697a61626c653a20636f6e747261637420697320616c72656160448201526d191e481a5b9a5d1a585b1a5e995960921b60648201526084016105e5565b6000805460ff1916600117905580156109ea576000805461ff0019166101001790555b60c980546001600160a01b031916737ecf19c95f2639cf0183639dba852fade713eefc17905560cc8054620503e863ffffffff199091161790556201518060ce55610a33611588565b610a3b6115b7565b801561059a576000805461ff0019169055604051600181527f7f26b83ff96e1f2b6a682f133852f6798a09c465da95921460cefb38474024989060200160405180910390a150565b6000610a9384848460cd546115de565b949350505050565b610aa3610ff0565b60405163a9059cbb60e01b8152336004820152602481018290526001600160a01b0383169063a9059cbb906044016020604051808303816000875af1158015610af0573d6000803e3d6000fd5b505050506040513d601f19601f82011682018060405250810190610561919061234d565b600061091082426116f4565b610b706040518060e00160405280600063ffffffff168152602001600063ffffffff16815260200160008152602001600061ffff1681526020016000815260200160008152602001600081525090565b5063ffffffff908116600090815260d06020908152604091829020825160e08101845281548086168252640100000000900490941691840191909152600181015491830191909152600281015461ffff16606083015260038101546080830152600481015460a08301526005015460c082015290565b60c954604051630935e01b60e21b81523360048201526001600160a01b03909116906324d7806c90602401602060405180830381865afa158015610c2e573d6000803e3d6000fd5b505050506040513d601f19601f82011682018060405250810190610c52919061234d565b610c935760405162461bcd60e51b81526020600482015260126024820152712cb7ba9030b932903737ba1030b236b4b71760711b60448201526064016105e5565b60cc805463ffff000019166201000061ffff861602179055610cb8826201518061237e565b60cd5560ce555050565b60c954604051630935e01b60e21b81523360048201526001600160a01b03909116906324d7806c90602401602060405180830381865afa158015610d0a573d6000803e3d6000fd5b505050506040513d601f19601f82011682018060405250810190610d2e919061234d565b610d6f5760405162461bcd60e51b81526020600482015260126024820152712cb7ba9030b932903737ba1030b236b4b71760711b60448201526064016105e5565b60c9805463ffffffff909216600160a01b0263ffffffff60a01b19909216919091179055565b60008060c960009054906101000a90046001600160a01b03166001600160a01b03166323442c606040518163ffffffff1660e01b8152600401602060405180830381865afa158015610deb573d6000803e3d6000fd5b505050506040513d601f19601f82011682018060405250810190610e0f9190611ee4565b604051632100978960e01b815263ffffffff851660048201526001600160a01b039190911690632100978990602401600060405180830381865afa158015610e5b573d6000803e3d6000fd5b505050506040513d6000823e601f3d908101601f19168201604052610e839190810190612084565b61038081015180516102e08301519293509091610ea190600261237e565b836102c00151108015610eb45750600081115b8015610ec35750826104200151155b15610f6d5760005b818161ffff161015610f6757600060d06000858461ffff1681518110610ef357610ef3612395565b602002602001015163ffffffff1663ffffffff1681526020019081526020016000209050610f3d848361ffff1681518110610f3057610f30612395565b60200260200101516114aa565b15610f54576001810154610f5190876123ab565b95505b5080610f5f816123be565b915050610ecb565b50610f72565b600093505b505050919050565b610f82610ff0565b6001600160a01b038116610fe75760405162461bcd60e51b815260206004820152602660248201527f4f776e61626c653a206e6577206f776e657220697320746865207a65726f206160448201526564647265737360d01b60648201526084016105e5565b61059a81611536565b6033546001600160a01b031633146109285760405162461bcd60e51b815260206004820181905260248201527f4f776e61626c653a2063616c6c6572206973206e6f7420746865206f776e657260448201526064016105e5565b61059a610ff0565b7f4910fdfa16fed3260ed0e7147f7cc6da11a60208b5b9406d12a635614ffd91435460ff16156110855761056183611927565b826001600160a01b03166352d1902d6040518163ffffffff1660e01b8152600401602060405180830381865afa9250505080156110df575060408051601f3d908101601f191682019092526110dc918101906123df565b60015b6111425760405162461bcd60e51b815260206004820152602e60248201527f45524331393637557067726164653a206e657720696d706c656d656e7461746960448201526d6f6e206973206e6f74205555505360901b60648201526084016105e5565b60008051602061250583398151915281146111b15760405162461bcd60e51b815260206004820152602960248201527f45524331393637557067726164653a20756e737570706f727465642070726f786044820152681a58589b195555525160ba1b60648201526084016105e5565b506105618383836119c3565b8051600090429082906111d090836116f4565b9050836102e0015160026111e4919061237e565b846102c001511115801561121757506102e084015161120490600261237e565b81856102c0015161121591906123ab565b105b1561123c578092508260ca600082825461123191906123ab565b9091555061129a9050565b6102e084015161124d90600261237e565b846102c001511161129a576000846102c00151856102e001516002611272919061237e565b61127c91906123f8565b90508093508060ca600082825461129391906123ab565b9091555050505b82156114a35760c960009054906101000a90046001600160a01b03166001600160a01b03166323442c606040518163ffffffff1660e01b8152600401602060405180830381865afa1580156112f3573d6000803e3d6000fd5b505050506040513d601f19601f820116820180604052508101906113179190611ee4565b845160405163284eb62960e11b815263ffffffff9091166004820152602481018590526001600160a01b03919091169063509d6c5290604401600060405180830381600087803b15801561136a57600080fd5b505af115801561137e573d6000803e3d6000fd5b5050505060c960009054906101000a90046001600160a01b03166001600160a01b03166323442c606040518163ffffffff1660e01b8152600401602060405180830381865afa1580156113d5573d6000803e3d6000fd5b505050506040513d601f19601f820116820180604052508101906113f99190611ee4565b845160405163498b3e5560e01b81526004810186905263ffffffff90911660248201526001600160a01b03919091169063498b3e5590604401600060405180830381600087803b15801561144c57600080fd5b505af1158015611460573d6000803e3d6000fd5b5050505061146e84836119ee565b8351604051849163ffffffff16907f7cd8783637a6bf8d3b4b69973a28720cfb0f5abc55d8b85dde1732d8f22c0efc90600090a35b5050919050565b63ffffffff808216600090815260d060209081526040808320815160e08101835281548087168252640100000000900490951692850192909252600182015490840152600281015461ffff16606084015260038101546080840152600481015460a08401526005015460c0830181905290919042101561152d5750600192915050565b50600092915050565b603380546001600160a01b038381166001600160a01b0319831681179093556040519116919082907f8be0079c531659141344cd1fd0a4f28419497f9722a3daafe3b4186f6b6457e090600090a35050565b600054610100900460ff166115af5760405162461bcd60e51b81526004016105e59061240b565b610928611a85565b600054610100900460ff166109285760405162461bcd60e51b81526004016105e59061240b565b60c980546000918291600160a01b900463ffffffff1690601461160083612456565b91906101000a81548163ffffffff021916908363ffffffff1602179055509050600060d06000836001611633919061246f565b63ffffffff1681526020810191909152604001600020905061165682600161246f565b815463ffffffff8981166401000000000267ffffffffffffffff199092169216919091171781556001810186905560cc5460028201805461ffff191661ffff620100009093049290921691909117905560038101859055600481018590556116be84866123ab565b81600501819055508560cb60008282546116d891906123ab565b909155506116e9905082600161246f565b979650505050505050565b60008060c960009054906101000a90046001600160a01b03166001600160a01b03166323442c606040518163ffffffff1660e01b8152600401602060405180830381865afa15801561174a573d6000803e3d6000fd5b505050506040513d601f19601f8201168201806040525081019061176e9190611ee4565b604051632100978960e01b815263ffffffff861660048201526001600160a01b039190911690632100978990602401600060405180830381865afa1580156117ba573d6000803e3d6000fd5b505050506040513d6000823e601f3d908101601f191682016040526117e29190810190612084565b61038081015180516102e0830151929350909161180090600261237e565b836102c001511080156118135750600081115b80156118225750826104200151155b156119195760005b818161ffff16101561191357600060d06000858461ffff168151811061185257611852612395565b602002602001015163ffffffff1663ffffffff168152602001908152602001600020905061188f848361ffff1681518110610f3057610f30612395565b156119005760cc54600182015460009161ffff808216926118b9926201000090049091169061237e565b6118c39190612493565b905060008260040154896118d791906123f8565b9050620151806118e7828461237e565b6118f19190612493565b6118fb90896123ab565b975050505b508061190b816123be565b91505061182a565b5061191e565b600093505b50505092915050565b6001600160a01b0381163b6119945760405162461bcd60e51b815260206004820152602d60248201527f455243313936373a206e657720696d706c656d656e746174696f6e206973206e60448201526c1bdd08184818dbdb9d1c9858dd609a1b60648201526084016105e5565b60008051602061250583398151915280546001600160a01b0319166001600160a01b0392909216919091179055565b6119cc83611ab5565b6000825111806119d95750805b15610561576119e88383611af5565b50505050565b610380820151805160005b818161ffff161015611a7e57600060d06000858461ffff1681518110611a2157611a21612395565b602002602001015163ffffffff1663ffffffff1681526020019081526020016000209050611a5e848361ffff1681518110610f3057610f30612395565b15611a6b57600481018590555b5080611a76816123be565b9150506119f9565b5050505050565b600054610100900460ff16611aac5760405162461bcd60e51b81526004016105e59061240b565b61092833611536565b611abe81611927565b6040516001600160a01b038216907fbc7cd75a20ee27fd9adebab32041f755214dbc6bffa90cc0225b39da2e5c2d3b90600090a250565b60606001600160a01b0383163b611b5d5760405162461bcd60e51b815260206004820152602660248201527f416464726573733a2064656c65676174652063616c6c20746f206e6f6e2d636f6044820152651b9d1c9858dd60d21b60648201526084016105e5565b600080846001600160a01b031684604051611b7891906124b5565b600060405180830381855af49150503d8060008114611bb3576040519150601f19603f3d011682016040523d82523d6000602084013e611bb8565b606091505b5091509150611be0828260405180606001604052806027815260200161252560279139611be9565b95945050505050565b60608315611bf85750816108fe565b6108fe8383815115611c0d5781518083602001fd5b8060405162461bcd60e51b81526004016105e591906124d1565b6001600160a01b038116811461059a57600080fd5b60008060408385031215611c4f57600080fd5b8235611c5a81611c27565b946020939093013593505050565b600060208284031215611c7a57600080fd5b81356108fe81611c27565b634e487b7160e01b600052604160045260246000fd5b604051610480810167ffffffffffffffff81118282101715611cbf57611cbf611c85565b60405290565b604051601f8201601f1916810167ffffffffffffffff81118282101715611cee57611cee611c85565b604052919050565b600067ffffffffffffffff821115611d1057611d10611c85565b50601f01601f191660200190565b60008060408385031215611d3157600080fd5b8235611d3c81611c27565b9150602083013567ffffffffffffffff811115611d5857600080fd5b8301601f81018513611d6957600080fd5b8035611d7c611d7782611cf6565b611cc5565b818152866020838501011115611d9157600080fd5b816020840160208301376000602083830101528093505050509250929050565b63ffffffff8116811461059a57600080fd5b600060208284031215611dd557600080fd5b81356108fe81611db1565b600080600060608486031215611df557600080fd5b8335611e0081611db1565b95602085013595506040909401359392505050565b600080600060608486031215611e2a57600080fd5b833561ffff81168114611e0057600080fd5b6020808252602c908201527f46756e6374696f6e206d7573742062652063616c6c6564207468726f7567682060408201526b19195b1959d85d1958d85b1b60a21b606082015260800190565b6020808252602c908201527f46756e6374696f6e206d7573742062652063616c6c6564207468726f7567682060408201526b6163746976652070726f787960a01b606082015260800190565b8051611edf81611c27565b919050565b600060208284031215611ef657600080fd5b81516108fe81611c27565b8051611edf81611db1565b60005b83811015611f27578181015183820152602001611f0f565b50506000910152565b600082601f830112611f4157600080fd5b8151611f4f611d7782611cf6565b818152846020838601011115611f6457600080fd5b610a93826020830160208701611f0c565b80518015158114611edf57600080fd5b600067ffffffffffffffff821115611f9f57611f9f611c85565b5060051b60200190565b600082601f830112611fba57600080fd5b81516020611fca611d7783611f85565b82815260059290921b84018101918181019086841115611fe957600080fd5b8286015b8481101561200d57805161200081611db1565b8352918301918301611fed565b509695505050505050565b600082601f83011261202957600080fd5b81516020612039611d7783611f85565b82815260059290921b8401810191818101908684111561205857600080fd5b8286015b8481101561200d578051835291830191830161205c565b805160ff81168114611edf57600080fd5b60006020828403121561209657600080fd5b815167ffffffffffffffff808211156120ae57600080fd5b9083019061048082860312156120c357600080fd5b6120cb611c9b565b6120d483611f01565b81526020830151828111156120e857600080fd5b6120f487828601611f30565b6020830152506040830151604082015261211060608401611f75565b606082015261212160808401611ed4565b608082015261213260a08401611f01565b60a082015261214360c08401611f75565b60c082015260e08301518281111561215a57600080fd5b61216687828601611fa9565b60e083015250610100808401518381111561218057600080fd5b61218c88828701611fa9565b82840152505061012080840151838111156121a657600080fd5b6121b288828701611fa9565b82840152505061014080840151838111156121cc57600080fd5b6121d888828701612018565b9183019190915250610160838101519082015261018080840151908201526101a080840151908201526101c080840151908201526101e08084015190820152610200808401519082015261022080840151908201526102408084015190820152610260612246818501612073565b90820152610280612258848201611f01565b908201526102a083810151908201526102c080840151908201526102e08084015190820152610300808401519082015261032080840151908201526103408084015190820152610360808401519082015261038080840151838111156122bd57600080fd5b6122c988828701611fa9565b91830191909152506103a083810151908201526103c080840151908201526103e080840151908201526104009150612302828401611f75565b828201526104209150612316828401611f75565b82820152610440915061232a828401611f75565b82820152610460915061233e828401611f75565b91810191909152949350505050565b60006020828403121561235f57600080fd5b6108fe82611f75565b634e487b7160e01b600052601160045260246000fd5b808202811582820484141761091057610910612368565b634e487b7160e01b600052603260045260246000fd5b8082018082111561091057610910612368565b600061ffff8083168181036123d5576123d5612368565b6001019392505050565b6000602082840312156123f157600080fd5b5051919050565b8181038181111561091057610910612368565b6020808252602b908201527f496e697469616c697a61626c653a20636f6e7472616374206973206e6f74206960408201526a6e697469616c697a696e6760a81b606082015260800190565b600063ffffffff8083168181036123d5576123d5612368565b63ffffffff81811683821601908082111561248c5761248c612368565b5092915050565b6000826124b057634e487b7160e01b600052601260045260246000fd5b500490565b600082516124c7818460208701611f0c565b9190910192915050565b60208152600082518060208401526124f0816040850160208701611f0c565b601f01601f1916919091016040019291505056fe360894a13ba1a3210667c828492db98dca3e2076cc3735a920a3ca505d382bbc416464726573733a206c6f772d6c6576656c2064656c65676174652063616c6c206661696c6564a2646970667358221220053541dc58c6dc28193e6f986769652f0cb23c5f624b11ceffc5e9d627ff5d0764736f6c63430008110033",
  "linkReferences": {},
  "deployedLinkReferences": {}
}