{
  "_format": "hh-sol-artifact-1",
  "contractName": "ROIV1Upgradeable",
  "sourceName": "contracts/ROIV1Upgradeable.sol",
  "abi": [
    {
      "anonymous": false,
      "inputs": [
        {
          "indexed": false,
          "internalType": "address",
          "name": "previousAdmin",
          "type": "address"
        },
        {
          "indexed": false,
          "internalType": "address",
          "name": "newAdmin",
          "type": "address"
        }
      ],
      "name": "AdminChanged",
      "type": "event"
    },
    {
      "anonymous": false,
      "inputs": [
        {
          "indexed": true,
          "internalType": "address",
          "name": "beacon",
          "type": "address"
        }
      ],
      "name": "BeaconUpgraded",
      "type": "event"
    },
    {
      "anonymous": false,
      "inputs": [
        {
          "indexed": false,
          "internalType": "uint8",
          "name": "version",
          "type": "uint8"
        }
      ],
      "name": "Initialized",
      "type": "event"
    },
    {
      "anonymous": false,
      "inputs": [
        {
          "indexed": true,
          "internalType": "address",
          "name": "previousOwner",
          "type": "address"
        },
        {
          "indexed": true,
          "internalType": "address",
          "name": "newOwner",
          "type": "address"
        }
      ],
      "name": "OwnershipTransferred",
      "type": "event"
    },
    {
      "anonymous": false,
      "inputs": [
        {
          "indexed": false,
          "internalType": "uint32",
          "name": "_owner",
          "type": "uint32"
        },
        {
          "indexed": false,
          "internalType": "uint32",
          "name": "_roiId",
          "type": "uint32"
        },
        {
          "indexed": false,
          "internalType": "uint256",
          "name": "_value",
          "type": "uint256"
        },
        {
          "indexed": false,
          "internalType": "uint16",
          "name": "_rewardRate",
          "type": "uint16"
        }
      ],
      "name": "ROIActivated",
      "type": "event"
    },
    {
      "anonymous": false,
      "inputs": [
        {
          "indexed": true,
          "internalType": "uint256",
          "name": "_owner",
          "type": "uint256"
        },
        {
          "indexed": true,
          "internalType": "uint256",
          "name": "_rewardRate",
          "type": "uint256"
        }
      ],
      "name": "ROIClaimed",
      "type": "event"
    },
    {
      "anonymous": false,
      "inputs": [
        {
          "indexed": false,
          "internalType": "uint32",
          "name": "_owner",
          "type": "uint32"
        },
        {
          "indexed": false,
          "internalType": "uint32",
          "name": "_roiId",
          "type": "uint32"
        }
      ],
      "name": "ROIDeactivated",
      "type": "event"
    },
    {
      "anonymous": false,
      "inputs": [
        {
          "indexed": true,
          "internalType": "address",
          "name": "implementation",
          "type": "address"
        }
      ],
      "name": "Upgraded",
      "type": "event"
    },
    {
      "inputs": [],
      "name": "_roiClaimTimelimit",
      "outputs": [
        {
          "internalType": "uint256",
          "name": "",
          "type": "uint256"
        }
      ],
      "stateMutability": "view",
      "type": "function"
    },
    {
      "inputs": [],
      "name": "_roiDuration",
      "outputs": [
        {
          "internalType": "uint256",
          "name": "",
          "type": "uint256"
        }
      ],
      "stateMutability": "view",
      "type": "function"
    },
    {
      "inputs": [],
      "name": "_roiRate",
      "outputs": [
        {
          "internalType": "uint16",
          "name": "",
          "type": "uint16"
        }
      ],
      "stateMutability": "view",
      "type": "function"
    },
    {
      "inputs": [
        {
          "internalType": "uint32",
          "name": "_ownerId",
          "type": "uint32"
        },
        {
          "internalType": "uint256",
          "name": "_value",
          "type": "uint256"
        },
        {
          "internalType": "uint256",
          "name": "_startTime",
          "type": "uint256"
        },
        {
          "internalType": "uint256",
          "name": "_resetTime",
          "type": "uint256"
        },
        {
          "internalType": "uint256",
          "name": "_duration",
          "type": "uint256"
        }
      ],
      "name": "activateROIAdmin",
      "outputs": [
        {
          "internalType": "uint32",
          "name": "",
          "type": "uint32"
        }
      ],
      "stateMutability": "nonpayable",
      "type": "function"
    },
    {
      "inputs": [
        {
          "internalType": "uint32",
          "name": "_id",
          "type": "uint32"
        }
      ],
      "name": "claimROI",
      "outputs": [
        {
          "internalType": "uint256",
          "name": "",
          "type": "uint256"
        }
      ],
      "stateMutability": "nonpayable",
      "type": "function"
    },
    {
      "inputs": [],
      "name": "decimals",
      "outputs": [
        {
          "internalType": "uint16",
          "name": "",
          "type": "uint16"
        }
      ],
      "stateMutability": "view",
      "type": "function"
    },
    {
      "inputs": [
        {
          "internalType": "uint32",
          "name": "_roiID",
          "type": "uint32"
        }
      ],
      "name": "getROIAccount",
      "outputs": [
        {
          "components": [
            {
              "internalType": "uint32",
              "name": "id",
              "type": "uint32"
            },
            {
              "internalType": "uint32",
              "name": "ownerId",
              "type": "uint32"
            },
            {
              "internalType": "uint256",
              "name": "value",
              "type": "uint256"
            },
            {
              "internalType": "uint16",
              "name": "roiRate",
              "type": "uint16"
            },
            {
              "internalType": "uint256",
              "name": "startTime",
              "type": "uint256"
            },
            {
              "internalType": "uint256",
              "name": "resetTime",
              "type": "uint256"
            },
            {
              "internalType": "uint256",
              "name": "endTime",
              "type": "uint256"
            }
          ],
          "internalType": "struct ROIV1Upgradeable.StructROI",
          "name": "",
          "type": "tuple"
        }
      ],
      "stateMutability": "view",
      "type": "function"
    },
    {
      "inputs": [
        {
          "internalType": "uint32",
          "name": "_id",
          "type": "uint32"
        }
      ],
      "name": "getUserIDTotalROI",
      "outputs": [
        {
          "internalType": "uint256",
          "name": "",
          "type": "uint256"
        }
      ],
      "stateMutability": "view",
      "type": "function"
    },
    {
      "inputs": [
        {
          "internalType": "uint32",
          "name": "_id",
          "type": "uint32"
        }
      ],
      "name": "getUserTotalActiveROIValue",
      "outputs": [
        {
          "internalType": "uint256",
          "name": "roiTotalValue",
          "type": "uint256"
        }
      ],
      "stateMutability": "view",
      "type": "function"
    },
    {
      "inputs": [],
      "name": "initialize",
      "outputs": [],
      "stateMutability": "nonpayable",
      "type": "function"
    },
    {
      "inputs": [],
      "name": "isPayROI",
      "outputs": [
        {
          "internalType": "bool",
          "name": "",
          "type": "bool"
        }
      ],
      "stateMutability": "view",
      "type": "function"
    },
    {
      "inputs": [
        {
          "internalType": "uint32",
          "name": "_roiId",
          "type": "uint32"
        }
      ],
      "name": "isROIActive",
      "outputs": [
        {
          "internalType": "bool",
          "name": "",
          "type": "bool"
        }
      ],
      "stateMutability": "view",
      "type": "function"
    },
    {
      "inputs": [],
      "name": "owner",
      "outputs": [
        {
          "internalType": "address",
          "name": "",
          "type": "address"
        }
      ],
      "stateMutability": "view",
      "type": "function"
    },
    {
      "inputs": [],
      "name": "proxiableUUID",
      "outputs": [
        {
          "internalType": "bytes32",
          "name": "",
          "type": "bytes32"
        }
      ],
      "stateMutability": "view",
      "type": "function"
    },
    {
      "inputs": [],
      "name": "renounceOwnership",
      "outputs": [],
      "stateMutability": "nonpayable",
      "type": "function"
    },
    {
      "inputs": [
        {
          "internalType": "address",
          "name": "_address",
          "type": "address"
        },
        {
          "internalType": "uint256",
          "name": "_value",
          "type": "uint256"
        }
      ],
      "name": "sendETHAdmin",
      "outputs": [],
      "stateMutability": "nonpayable",
      "type": "function"
    },
    {
      "inputs": [
        {
          "internalType": "uint16",
          "name": "_roiRateInDecimals",
          "type": "uint16"
        },
        {
          "internalType": "uint256",
          "name": "_durationInDays",
          "type": "uint256"
        },
        {
          "internalType": "uint256",
          "name": "_roiClaimTimelimitInSeconds",
          "type": "uint256"
        }
      ],
      "name": "setROIAdmin",
      "outputs": [],
      "stateMutability": "nonpayable",
      "type": "function"
    },
    {
      "inputs": [
        {
          "internalType": "uint32",
          "name": "_count",
          "type": "uint32"
        }
      ],
      "name": "setROIIDCount",
      "outputs": [],
      "stateMutability": "nonpayable",
      "type": "function"
    },
    {
      "inputs": [],
      "name": "totalROIIDs",
      "outputs": [
        {
          "internalType": "uint32",
          "name": "",
          "type": "uint32"
        }
      ],
      "stateMutability": "view",
      "type": "function"
    },
    {
      "inputs": [],
      "name": "totalROIPaid",
      "outputs": [
        {
          "internalType": "uint256",
          "name": "",
          "type": "uint256"
        }
      ],
      "stateMutability": "view",
      "type": "function"
    },
    {
      "inputs": [],
      "name": "totalROIValue",
      "outputs": [
        {
          "internalType": "uint256",
          "name": "",
          "type": "uint256"
        }
      ],
      "stateMutability": "view",
      "type": "function"
    },
    {
      "inputs": [
        {
          "internalType": "address",
          "name": "newOwner",
          "type": "address"
        }
      ],
      "name": "transferOwnership",
      "outputs": [],
      "stateMutability": "nonpayable",
      "type": "function"
    },
    {
      "inputs": [
        {
          "internalType": "address",
          "name": "newImplementation",
          "type": "address"
        }
      ],
      "name": "upgradeTo",
      "outputs": [],
      "stateMutability": "nonpayable",
      "type": "function"
    },
    {
      "inputs": [
        {
          "internalType": "address",
          "name": "newImplementation",
          "type": "address"
        },
        {
          "internalType": "bytes",
          "name": "data",
          "type": "bytes"
        }
      ],
      "name": "upgradeToAndCall",
      "outputs": [],
      "stateMutability": "payable",
      "type": "function"
    },
    {
      "inputs": [],
      "name": "withdrawETHAdmin",
      "outputs": [],
      "stateMutability": "nonpayable",
      "type": "function"
    },
    {
      "inputs": [
        {
          "internalType": "address",
          "name": "_tokenAddress",
          "type": "address"
        },
        {
          "internalType": "uint256",
          "name": "_value",
          "type": "uint256"
        }
      ],
      "name": "withdrawTokensAdmin",
      "outputs": [],
      "stateMutability": "nonpayable",
      "type": "function"
    },
    {
      "stateMutability": "payable",
      "type": "receive"
    }
  ],
  "bytecode": "0x60a06040523060805234801561001457600080fd5b506080516127e061004c600039600081816105a7015281816105f00152818161068c015281816106cc015261075f01526127e06000f3fe6080604052600436106101855760003560e01c80638da5cb5b116100d1578063bf46de631161008a578063d895af2c11610064578063d895af2c146104ad578063ea62f715146104cd578063eaec6364146104ed578063f2fde38b1461050357600080fd5b8063bf46de63146103e9578063c3ab5ebf14610409578063d275f14e1461048d57600080fd5b80638da5cb5b1461030d5780639a9e3c4214610335578063a0b6105f14610355578063a1b8017514610375578063abab358f146103ae578063af2f39d1146103cf57600080fd5b806352d1902d1161013e578063770ceeb111610118578063770ceeb1146102ac5780637e09c75e146102cc5780638129fc1c146102e257806381b0e086146102f757600080fd5b806352d1902d1461025257806355332a8514610267578063715018a61461029757600080fd5b80630b243dad1461019157806330abbcc5146101b3578063313ce567146101dc578063357597881461020a5780633659cfe61461021f5780634f1ef2861461023f57600080fd5b3661018c57005b600080fd5b34801561019d57600080fd5b506101b16101ac366004611e32565b610523565b005b3480156101bf57600080fd5b506101c960ca5481565b6040519081526020015b60405180910390f35b3480156101e857600080fd5b5060cc546101f79061ffff1681565b60405161ffff90911681526020016101d3565b34801561021657600080fd5b506101b1610566565b34801561022b57600080fd5b506101b161023a366004611e5e565b61059d565b6101b161024d366004611f14565b610682565b34801561025e57600080fd5b506101c9610752565b34801561027357600080fd5b50610287610282366004611fb9565b610805565b60405190151581526020016101d3565b3480156102a357600080fd5b506101b1610816565b3480156102b857600080fd5b506101c96102c7366004611fb9565b61082a565b3480156102d857600080fd5b506101c960ce5481565b3480156102ee57600080fd5b506101b1610acb565b34801561030357600080fd5b506101c960cd5481565b34801561031957600080fd5b506033546040516001600160a01b0390911681526020016101d3565b34801561034157600080fd5b506101b1610350366004611fd6565b610c2c565b34801561036157600080fd5b506101b1610370366004611e32565b610ce3565b34801561038157600080fd5b5060c95461039990600160a01b900463ffffffff1681565b60405163ffffffff90911681526020016101d3565b3480156103ba57600080fd5b5060cc546101f79062010000900461ffff1681565b3480156103db57600080fd5b5060cf546102879060ff1681565b3480156103f557600080fd5b506101c9610404366004611fb9565b610d5c565b34801561041557600080fd5b50610429610424366004611fb9565b610d68565b6040516101d39190600060e08201905063ffffffff808451168352806020850151166020840152506040830151604083015261ffff60608401511660608301526080830151608083015260a083015160a083015260c083015160c083015292915050565b34801561049957600080fd5b506103996104a8366004612012565b610e2e565b3480156104b957600080fd5b506101b16104c8366004611fb9565b610ece565b3480156104d957600080fd5b506101c96104e8366004611fb9565b610f7c565b3480156104f957600080fd5b506101c960cb5481565b34801561050f57600080fd5b506101b161051e366004611e5e565b611161565b61052b6111d7565b6040516001600160a01b0383169082156108fc029083906000818181858888f19350505050158015610561573d6000803e3d6000fd5b505050565b61056e6111d7565b60405133904780156108fc02916000818181858888f1935050505015801561059a573d6000803e3d6000fd5b50565b6001600160a01b037f00000000000000000000000000000000000000000000000000000000000000001630036105ee5760405162461bcd60e51b81526004016105e590612056565b60405180910390fd5b7f00000000000000000000000000000000000000000000000000000000000000006001600160a01b0316610637600080516020612764833981519152546001600160a01b031690565b6001600160a01b03161461065d5760405162461bcd60e51b81526004016105e5906120a2565b61066681611231565b6040805160008082526020820190925261059a91839190611239565b6001600160a01b037f00000000000000000000000000000000000000000000000000000000000000001630036106ca5760405162461bcd60e51b81526004016105e590612056565b7f00000000000000000000000000000000000000000000000000000000000000006001600160a01b0316610713600080516020612764833981519152546001600160a01b031690565b6001600160a01b0316146107395760405162461bcd60e51b81526004016105e5906120a2565b61074282611231565b61074e82826001611239565b5050565b6000306001600160a01b037f000000000000000000000000000000000000000000000000000000000000000016146107f25760405162461bcd60e51b815260206004820152603860248201527f555550535570677261646561626c653a206d757374206e6f742062652063616c60448201527f6c6564207468726f7567682064656c656761746563616c6c000000000000000060648201526084016105e5565b5060008051602061276483398151915290565b6000610810826113a4565b92915050565b61081e6111d7565b6108286000611430565b565b60008060c960009054906101000a90046001600160a01b03166001600160a01b03166323442c606040518163ffffffff1660e01b8152600401602060405180830381865afa158015610880573d6000803e3d6000fd5b505050506040513d601f19601f820116820180604052508101906108a491906120fe565b604051632100978960e01b815263ffffffff851660048201526001600160a01b039190911690632100978990602401600060405180830381865afa1580156108f0573d6000803e3d6000fd5b505050506040513d6000823e601f3d908101601f19168201604052610918919081019061229e565b60c954604051630935e01b60e21b81523360048201529192506000916001600160a01b03909116906324d7806c90602401602060405180830381865afa158015610966573d6000803e3d6000fd5b505050506040513d601f19601f8201168201806040525081019061098a9190612567565b610aba5781608001516001600160a01b0316336001600160a01b0316146109f35760405162461bcd60e51b815260206004820152601d60248201527f596f7520617265206e6f74206f776e6572206f6620746869732069642e00000060448201526064016105e5565b60ce54826103c00151610a069190612598565b421015610a675760405162461bcd60e51b815260206004820152602960248201527f596f757220726f6920636c61696d2074696d656c696d6974206973206e6f742060448201526837bb32b9103cb2ba1760b91b60648201526084016105e5565b81610420015115610aba5760405162461bcd60e51b815260206004820152601960248201527f4163636f756e742064697361626c65642062792061646d696e0000000000000060448201526064016105e5565b610ac382611482565b949350505050565b600054610100900460ff1615808015610aeb5750600054600160ff909116105b80610b055750303b158015610b05575060005460ff166001145b610b685760405162461bcd60e51b815260206004820152602e60248201527f496e697469616c697a61626c653a20636f6e747261637420697320616c72656160448201526d191e481a5b9a5d1a585b1a5e995960921b60648201526084016105e5565b6000805460ff191660011790558015610b8b576000805461ff0019166101001790555b60c980546001600160a01b031916730b8bf5feb9fca57d9c5d27185ddf3017e99a2d3617905560cc8054620503e863ffffffff199091161790556201518060ce5563020f580060cd55610bdc611771565b610be46117a0565b801561059a576000805461ff0019169055604051600181527f7f26b83ff96e1f2b6a682f133852f6798a09c465da95921460cefb38474024989060200160405180910390a150565b60c954604051630935e01b60e21b81523360048201526001600160a01b03909116906324d7806c90602401602060405180830381865afa158015610c74573d6000803e3d6000fd5b505050506040513d601f19601f82011682018060405250810190610c989190612567565b610cb45760405162461bcd60e51b81526004016105e5906125ab565b60cc805463ffff000019166201000061ffff861602179055610cd982620151806125f0565b60cd5560ce555050565b610ceb6111d7565b60405163a9059cbb60e01b8152336004820152602481018290526001600160a01b0383169063a9059cbb906044016020604051808303816000875af1158015610d38573d6000803e3d6000fd5b505050506040513d601f19601f820116820180604052508101906105619190612567565b600061081082426117c7565b610db86040518060e00160405280600063ffffffff168152602001600063ffffffff16815260200160008152602001600061ffff1681526020016000815260200160008152602001600081525090565b5063ffffffff908116600090815260d06020908152604091829020825160e08101845281548086168252640100000000900490941691840191909152600181015491830191909152600281015461ffff16606083015260038101546080830152600481015460a08301526005015460c082015290565b60c954604051630935e01b60e21b81523360048201526000916001600160a01b0316906324d7806c90602401602060405180830381865afa158015610e77573d6000803e3d6000fd5b505050506040513d601f19601f82011682018060405250810190610e9b9190612567565b610eb75760405162461bcd60e51b81526004016105e5906125ab565b610ec486868686866119fa565b9695505050505050565b60c954604051630935e01b60e21b81523360048201526001600160a01b03909116906324d7806c90602401602060405180830381865afa158015610f16573d6000803e3d6000fd5b505050506040513d601f19601f82011682018060405250810190610f3a9190612567565b610f565760405162461bcd60e51b81526004016105e5906125ab565b60c9805463ffffffff909216600160a01b0263ffffffff60a01b19909216919091179055565b60008060c960009054906101000a90046001600160a01b03166001600160a01b03166323442c606040518163ffffffff1660e01b8152600401602060405180830381865afa158015610fd2573d6000803e3d6000fd5b505050506040513d601f19601f82011682018060405250810190610ff691906120fe565b604051632100978960e01b815263ffffffff851660048201526001600160a01b039190911690632100978990602401600060405180830381865afa158015611042573d6000803e3d6000fd5b505050506040513d6000823e601f3d908101601f1916820160405261106a919081019061229e565b61038081015180516102e083015192935090916110889060026125f0565b836102c0015110801561109b5750600081115b80156110aa5750826104200151155b156111545760005b818161ffff16101561114e57600060d06000858461ffff16815181106110da576110da612607565b602002602001015163ffffffff1663ffffffff1681526020019081526020016000209050611124848361ffff168151811061111757611117612607565b60200260200101516113a4565b1561113b5760018101546111389087612598565b95505b50806111468161261d565b9150506110b2565b50611159565b600093505b505050919050565b6111696111d7565b6001600160a01b0381166111ce5760405162461bcd60e51b815260206004820152602660248201527f4f776e61626c653a206e6577206f776e657220697320746865207a65726f206160448201526564647265737360d01b60648201526084016105e5565b61059a81611430565b6033546001600160a01b031633146108285760405162461bcd60e51b815260206004820181905260248201527f4f776e61626c653a2063616c6c6572206973206e6f7420746865206f776e657260448201526064016105e5565b61059a6111d7565b7f4910fdfa16fed3260ed0e7147f7cc6da11a60208b5b9406d12a635614ffd91435460ff161561126c5761056183611b11565b826001600160a01b03166352d1902d6040518163ffffffff1660e01b8152600401602060405180830381865afa9250505080156112c6575060408051601f3d908101601f191682019092526112c39181019061263e565b60015b6113295760405162461bcd60e51b815260206004820152602e60248201527f45524331393637557067726164653a206e657720696d706c656d656e7461746960448201526d6f6e206973206e6f74205555505360901b60648201526084016105e5565b60008051602061276483398151915281146113985760405162461bcd60e51b815260206004820152602960248201527f45524331393637557067726164653a20756e737570706f727465642070726f786044820152681a58589b195555525160ba1b60648201526084016105e5565b50610561838383611bad565b63ffffffff808216600090815260d060209081526040808320815160e08101835281548087168252640100000000900490951692850192909252600182015490840152600281015461ffff16606084015260038101546080840152600481015460a08401526005015460c083018190529091904210156114275750600192915050565b50600092915050565b603380546001600160a01b038381166001600160a01b0319831681179093556040519116919082907f8be0079c531659141344cd1fd0a4f28419497f9722a3daafe3b4186f6b6457e090600090a35050565b80516000904290829061149590836117c7565b9050836102e0015160026114a991906125f0565b846102c00151111580156114dc57506102e08401516114c99060026125f0565b81856102c001516114da9190612598565b105b15611501578092508260ca60008282546114f69190612598565b9091555061155f9050565b6102e08401516115129060026125f0565b846102c001511161155f576000846102c00151856102e00151600261153791906125f0565b6115419190612657565b90508093508060ca60008282546115589190612598565b9091555050505b82156117605760c960009054906101000a90046001600160a01b03166001600160a01b03166323442c606040518163ffffffff1660e01b8152600401602060405180830381865afa1580156115b8573d6000803e3d6000fd5b505050506040513d601f19601f820116820180604052508101906115dc91906120fe565b845160405163284eb62960e11b815263ffffffff9091166004820152602481018590526001600160a01b03919091169063509d6c5290604401600060405180830381600087803b15801561162f57600080fd5b505af1158015611643573d6000803e3d6000fd5b5050505060c960009054906101000a90046001600160a01b03166001600160a01b03166323442c606040518163ffffffff1660e01b8152600401602060405180830381865afa15801561169a573d6000803e3d6000fd5b505050506040513d601f19601f820116820180604052508101906116be91906120fe565b845160405163498b3e5560e01b81526004810186905263ffffffff90911660248201526001600160a01b03919091169063498b3e5590604401600060405180830381600087803b15801561171157600080fd5b505af1158015611725573d6000803e3d6000fd5b5050855160405186935063ffffffff90911691507f7cd8783637a6bf8d3b4b69973a28720cfb0f5abc55d8b85dde1732d8f22c0efc90600090a35b61176a8483611bd8565b5050919050565b600054610100900460ff166117985760405162461bcd60e51b81526004016105e59061266a565b610828611c6f565b600054610100900460ff166108285760405162461bcd60e51b81526004016105e59061266a565b60008060c960009054906101000a90046001600160a01b03166001600160a01b03166323442c606040518163ffffffff1660e01b8152600401602060405180830381865afa15801561181d573d6000803e3d6000fd5b505050506040513d601f19601f8201168201806040525081019061184191906120fe565b604051632100978960e01b815263ffffffff861660048201526001600160a01b039190911690632100978990602401600060405180830381865afa15801561188d573d6000803e3d6000fd5b505050506040513d6000823e601f3d908101601f191682016040526118b5919081019061229e565b61038081015180516102e083015192935090916118d39060026125f0565b836102c001511080156118e65750600081115b80156118f55750826104200151155b156119ec5760005b818161ffff1610156119e657600060d06000858461ffff168151811061192557611925612607565b602002602001015163ffffffff1663ffffffff1681526020019081526020016000209050611962848361ffff168151811061111757611117612607565b156119d35760cc54600182015460009161ffff8082169261198c92620100009004909116906125f0565b61199691906126b5565b905060008260040154896119aa9190612657565b9050620151806119ba82846125f0565b6119c491906126b5565b6119ce9089612598565b975050505b50806119de8161261d565b9150506118fd565b506119f1565b600093505b50505092915050565b60c980546000918291600160a01b900463ffffffff16906014611a1c836126d7565b91906101000a81548163ffffffff021916908363ffffffff1602179055509050600060d06000836001611a4f91906126f0565b63ffffffff16815260208101919091526040016000209050611a728260016126f0565b815463ffffffff8a81166401000000000267ffffffffffffffff199092169216919091171781556001810187905560cc5460028201805461ffff191661ffff62010000909304929092169190911790556003810186905560048101859055611ada8487612598565b81600501819055508660cb6000828254611af49190612598565b90915550611b0590508260016126f0565b98975050505050505050565b6001600160a01b0381163b611b7e5760405162461bcd60e51b815260206004820152602d60248201527f455243313936373a206e657720696d706c656d656e746174696f6e206973206e60448201526c1bdd08184818dbdb9d1c9858dd609a1b60648201526084016105e5565b60008051602061276483398151915280546001600160a01b0319166001600160a01b0392909216919091179055565b611bb683611c9f565b600082511180611bc35750805b1561056157611bd28383611cdf565b50505050565b610380820151805160005b818161ffff161015611c6857600060d06000858461ffff1681518110611c0b57611c0b612607565b602002602001015163ffffffff1663ffffffff1681526020019081526020016000209050611c48848361ffff168151811061111757611117612607565b15611c5557600481018590555b5080611c608161261d565b915050611be3565b5050505050565b600054610100900460ff16611c965760405162461bcd60e51b81526004016105e59061266a565b61082833611430565b611ca881611b11565b6040516001600160a01b038216907fbc7cd75a20ee27fd9adebab32041f755214dbc6bffa90cc0225b39da2e5c2d3b90600090a250565b60606001600160a01b0383163b611d475760405162461bcd60e51b815260206004820152602660248201527f416464726573733a2064656c65676174652063616c6c20746f206e6f6e2d636f6044820152651b9d1c9858dd60d21b60648201526084016105e5565b600080846001600160a01b031684604051611d629190612714565b600060405180830381855af49150503d8060008114611d9d576040519150601f19603f3d011682016040523d82523d6000602084013e611da2565b606091505b5091509150611dca828260405180606001604052806027815260200161278460279139611dd3565b95945050505050565b60608315611de2575081611dec565b611dec8383611df3565b9392505050565b815115611e035781518083602001fd5b8060405162461bcd60e51b81526004016105e59190612730565b6001600160a01b038116811461059a57600080fd5b60008060408385031215611e4557600080fd5b8235611e5081611e1d565b946020939093013593505050565b600060208284031215611e7057600080fd5b8135611dec81611e1d565b634e487b7160e01b600052604160045260246000fd5b604051610480810167ffffffffffffffff81118282101715611eb557611eb5611e7b565b60405290565b604051601f8201601f1916810167ffffffffffffffff81118282101715611ee457611ee4611e7b565b604052919050565b600067ffffffffffffffff821115611f0657611f06611e7b565b50601f01601f191660200190565b60008060408385031215611f2757600080fd5b8235611f3281611e1d565b9150602083013567ffffffffffffffff811115611f4e57600080fd5b8301601f81018513611f5f57600080fd5b8035611f72611f6d82611eec565b611ebb565b818152866020838501011115611f8757600080fd5b816020840160208301376000602083830101528093505050509250929050565b63ffffffff8116811461059a57600080fd5b600060208284031215611fcb57600080fd5b8135611dec81611fa7565b600080600060608486031215611feb57600080fd5b833561ffff81168114611ffd57600080fd5b95602085013595506040909401359392505050565b600080600080600060a0868803121561202a57600080fd5b853561203581611fa7565b97602087013597506040870135966060810135965060800135945092505050565b6020808252602c908201527f46756e6374696f6e206d7573742062652063616c6c6564207468726f7567682060408201526b19195b1959d85d1958d85b1b60a21b606082015260800190565b6020808252602c908201527f46756e6374696f6e206d7573742062652063616c6c6564207468726f7567682060408201526b6163746976652070726f787960a01b606082015260800190565b80516120f981611e1d565b919050565b60006020828403121561211057600080fd5b8151611dec81611e1d565b80516120f981611fa7565b60005b83811015612141578181015183820152602001612129565b50506000910152565b600082601f83011261215b57600080fd5b8151612169611f6d82611eec565b81815284602083860101111561217e57600080fd5b610ac3826020830160208701612126565b805180151581146120f957600080fd5b600067ffffffffffffffff8211156121b9576121b9611e7b565b5060051b60200190565b600082601f8301126121d457600080fd5b815160206121e4611f6d8361219f565b82815260059290921b8401810191818101908684111561220357600080fd5b8286015b8481101561222757805161221a81611fa7565b8352918301918301612207565b509695505050505050565b600082601f83011261224357600080fd5b81516020612253611f6d8361219f565b82815260059290921b8401810191818101908684111561227257600080fd5b8286015b848110156122275780518352918301918301612276565b805160ff811681146120f957600080fd5b6000602082840312156122b057600080fd5b815167ffffffffffffffff808211156122c857600080fd5b9083019061048082860312156122dd57600080fd5b6122e5611e91565b6122ee8361211b565b815260208301518281111561230257600080fd5b61230e8782860161214a565b6020830152506040830151604082015261232a6060840161218f565b606082015261233b608084016120ee565b608082015261234c60a0840161211b565b60a082015261235d60c0840161218f565b60c082015260e08301518281111561237457600080fd5b612380878286016121c3565b60e083015250610100808401518381111561239a57600080fd5b6123a6888287016121c3565b82840152505061012080840151838111156123c057600080fd5b6123cc888287016121c3565b82840152505061014080840151838111156123e657600080fd5b6123f288828701612232565b9183019190915250610160838101519082015261018080840151908201526101a080840151908201526101c080840151908201526101e0808401519082015261020080840151908201526102208084015190820152610240808401519082015261026061246081850161228d565b9082015261028061247284820161211b565b908201526102a083810151908201526102c080840151908201526102e08084015190820152610300808401519082015261032080840151908201526103408084015190820152610360808401519082015261038080840151838111156124d757600080fd5b6124e3888287016121c3565b91830191909152506103a083810151908201526103c080840151908201526103e08084015190820152610400915061251c82840161218f565b82820152610420915061253082840161218f565b82820152610440915061254482840161218f565b82820152610460915061255882840161218f565b91810191909152949350505050565b60006020828403121561257957600080fd5b611dec8261218f565b634e487b7160e01b600052601160045260246000fd5b8082018082111561081057610810612582565b60208082526025908201527f4f6e6c792041646d696e2063616e2061636365737320746869732066756e637460408201526434b7b7171760d91b606082015260800190565b808202811582820484141761081057610810612582565b634e487b7160e01b600052603260045260246000fd5b600061ffff80831681810361263457612634612582565b6001019392505050565b60006020828403121561265057600080fd5b5051919050565b8181038181111561081057610810612582565b6020808252602b908201527f496e697469616c697a61626c653a20636f6e7472616374206973206e6f74206960408201526a6e697469616c697a696e6760a81b606082015260800190565b6000826126d257634e487b7160e01b600052601260045260246000fd5b500490565b600063ffffffff80831681810361263457612634612582565b63ffffffff81811683821601908082111561270d5761270d612582565b5092915050565b60008251612726818460208701612126565b9190910192915050565b602081526000825180602084015261274f816040850160208701612126565b601f01601f1916919091016040019291505056fe360894a13ba1a3210667c828492db98dca3e2076cc3735a920a3ca505d382bbc416464726573733a206c6f772d6c6576656c2064656c65676174652063616c6c206661696c6564a2646970667358221220ed5e5cc863287cf4eac1abd29b1605dcd35df28ab627d1a009ac17f5234781c264736f6c63430008120033",
  "linkReferences": {},
  "deployedLinkReferences": {}
}