{
  "_format": "hh-sol-artifact-1",
  "contractName": "ROIV1OldUpgradeable",
  "sourceName": "contracts/ROIV1Upgradeable copy.sol",
  "abi": [
    {
      "anonymous": false,
      "inputs": [
        {
          "indexed": false,
          "internalType": "address",
          "name": "previousAdmin",
          "type": "address"
        },
        {
          "indexed": false,
          "internalType": "address",
          "name": "newAdmin",
          "type": "address"
        }
      ],
      "name": "AdminChanged",
      "type": "event"
    },
    {
      "anonymous": false,
      "inputs": [
        {
          "indexed": true,
          "internalType": "address",
          "name": "beacon",
          "type": "address"
        }
      ],
      "name": "BeaconUpgraded",
      "type": "event"
    },
    {
      "anonymous": false,
      "inputs": [
        {
          "indexed": false,
          "internalType": "uint8",
          "name": "version",
          "type": "uint8"
        }
      ],
      "name": "Initialized",
      "type": "event"
    },
    {
      "anonymous": false,
      "inputs": [
        {
          "indexed": true,
          "internalType": "address",
          "name": "previousOwner",
          "type": "address"
        },
        {
          "indexed": true,
          "internalType": "address",
          "name": "newOwner",
          "type": "address"
        }
      ],
      "name": "OwnershipTransferred",
      "type": "event"
    },
    {
      "anonymous": false,
      "inputs": [
        {
          "indexed": false,
          "internalType": "uint32",
          "name": "_owner",
          "type": "uint32"
        },
        {
          "indexed": false,
          "internalType": "uint32",
          "name": "_roiId",
          "type": "uint32"
        },
        {
          "indexed": false,
          "internalType": "uint256",
          "name": "_value",
          "type": "uint256"
        },
        {
          "indexed": false,
          "internalType": "uint16",
          "name": "_rewardRate",
          "type": "uint16"
        }
      ],
      "name": "ROIActivated",
      "type": "event"
    },
    {
      "anonymous": false,
      "inputs": [
        {
          "indexed": true,
          "internalType": "uint256",
          "name": "_owner",
          "type": "uint256"
        },
        {
          "indexed": true,
          "internalType": "uint256",
          "name": "_rewardRate",
          "type": "uint256"
        }
      ],
      "name": "ROIClaimed",
      "type": "event"
    },
    {
      "anonymous": false,
      "inputs": [
        {
          "indexed": false,
          "internalType": "uint32",
          "name": "_owner",
          "type": "uint32"
        },
        {
          "indexed": false,
          "internalType": "uint32",
          "name": "_roiId",
          "type": "uint32"
        }
      ],
      "name": "ROIDeactivated",
      "type": "event"
    },
    {
      "anonymous": false,
      "inputs": [
        {
          "indexed": true,
          "internalType": "address",
          "name": "implementation",
          "type": "address"
        }
      ],
      "name": "Upgraded",
      "type": "event"
    },
    {
      "inputs": [],
      "name": "_roiClaimTimelimit",
      "outputs": [
        {
          "internalType": "uint256",
          "name": "",
          "type": "uint256"
        }
      ],
      "stateMutability": "view",
      "type": "function"
    },
    {
      "inputs": [],
      "name": "_roiDuration",
      "outputs": [
        {
          "internalType": "uint256",
          "name": "",
          "type": "uint256"
        }
      ],
      "stateMutability": "view",
      "type": "function"
    },
    {
      "inputs": [],
      "name": "_roiRate",
      "outputs": [
        {
          "internalType": "uint16",
          "name": "",
          "type": "uint16"
        }
      ],
      "stateMutability": "view",
      "type": "function"
    },
    {
      "inputs": [
        {
          "internalType": "uint32",
          "name": "_ownerId",
          "type": "uint32"
        },
        {
          "internalType": "uint256",
          "name": "_value",
          "type": "uint256"
        },
        {
          "internalType": "uint256",
          "name": "_startTime",
          "type": "uint256"
        },
        {
          "internalType": "uint256",
          "name": "_resetTime",
          "type": "uint256"
        },
        {
          "internalType": "uint256",
          "name": "_duration",
          "type": "uint256"
        }
      ],
      "name": "activateROIAdmin",
      "outputs": [
        {
          "internalType": "uint32",
          "name": "",
          "type": "uint32"
        }
      ],
      "stateMutability": "nonpayable",
      "type": "function"
    },
    {
      "inputs": [
        {
          "internalType": "uint32",
          "name": "_id",
          "type": "uint32"
        }
      ],
      "name": "claimROI",
      "outputs": [
        {
          "internalType": "uint256",
          "name": "",
          "type": "uint256"
        }
      ],
      "stateMutability": "nonpayable",
      "type": "function"
    },
    {
      "inputs": [],
      "name": "decimals",
      "outputs": [
        {
          "internalType": "uint16",
          "name": "",
          "type": "uint16"
        }
      ],
      "stateMutability": "view",
      "type": "function"
    },
    {
      "inputs": [
        {
          "internalType": "uint32",
          "name": "_roiID",
          "type": "uint32"
        }
      ],
      "name": "getROIAccount",
      "outputs": [
        {
          "components": [
            {
              "internalType": "uint32",
              "name": "id",
              "type": "uint32"
            },
            {
              "internalType": "uint32",
              "name": "ownerId",
              "type": "uint32"
            },
            {
              "internalType": "uint256",
              "name": "value",
              "type": "uint256"
            },
            {
              "internalType": "uint16",
              "name": "roiRate",
              "type": "uint16"
            },
            {
              "internalType": "uint256",
              "name": "startTime",
              "type": "uint256"
            },
            {
              "internalType": "uint256",
              "name": "resetTime",
              "type": "uint256"
            },
            {
              "internalType": "uint256",
              "name": "endTime",
              "type": "uint256"
            }
          ],
          "internalType": "struct ROIV1OldUpgradeable.StructROI",
          "name": "",
          "type": "tuple"
        }
      ],
      "stateMutability": "view",
      "type": "function"
    },
    {
      "inputs": [
        {
          "internalType": "uint32",
          "name": "_id",
          "type": "uint32"
        }
      ],
      "name": "getUserIDTotalROI",
      "outputs": [
        {
          "internalType": "uint256",
          "name": "",
          "type": "uint256"
        }
      ],
      "stateMutability": "view",
      "type": "function"
    },
    {
      "inputs": [
        {
          "internalType": "uint32",
          "name": "_id",
          "type": "uint32"
        }
      ],
      "name": "getUserTotalActiveROIValue",
      "outputs": [
        {
          "internalType": "uint256",
          "name": "roiTotalValue",
          "type": "uint256"
        }
      ],
      "stateMutability": "view",
      "type": "function"
    },
    {
      "inputs": [],
      "name": "initialize",
      "outputs": [],
      "stateMutability": "nonpayable",
      "type": "function"
    },
    {
      "inputs": [],
      "name": "isPayROI",
      "outputs": [
        {
          "internalType": "bool",
          "name": "",
          "type": "bool"
        }
      ],
      "stateMutability": "view",
      "type": "function"
    },
    {
      "inputs": [
        {
          "internalType": "uint32",
          "name": "_roiId",
          "type": "uint32"
        }
      ],
      "name": "isROIActive",
      "outputs": [
        {
          "internalType": "bool",
          "name": "",
          "type": "bool"
        }
      ],
      "stateMutability": "view",
      "type": "function"
    },
    {
      "inputs": [],
      "name": "owner",
      "outputs": [
        {
          "internalType": "address",
          "name": "",
          "type": "address"
        }
      ],
      "stateMutability": "view",
      "type": "function"
    },
    {
      "inputs": [],
      "name": "proxiableUUID",
      "outputs": [
        {
          "internalType": "bytes32",
          "name": "",
          "type": "bytes32"
        }
      ],
      "stateMutability": "view",
      "type": "function"
    },
    {
      "inputs": [],
      "name": "renounceOwnership",
      "outputs": [],
      "stateMutability": "nonpayable",
      "type": "function"
    },
    {
      "inputs": [
        {
          "internalType": "address",
          "name": "_address",
          "type": "address"
        },
        {
          "internalType": "uint256",
          "name": "_value",
          "type": "uint256"
        }
      ],
      "name": "sendETHAdmin",
      "outputs": [],
      "stateMutability": "nonpayable",
      "type": "function"
    },
    {
      "inputs": [
        {
          "internalType": "uint16",
          "name": "_roiRateInDecimals",
          "type": "uint16"
        },
        {
          "internalType": "uint256",
          "name": "_durationInDays",
          "type": "uint256"
        },
        {
          "internalType": "uint256",
          "name": "_roiClaimTimelimitInSeconds",
          "type": "uint256"
        }
      ],
      "name": "setROIAdmin",
      "outputs": [],
      "stateMutability": "nonpayable",
      "type": "function"
    },
    {
      "inputs": [
        {
          "internalType": "uint32",
          "name": "_count",
          "type": "uint32"
        }
      ],
      "name": "setROIIDCount",
      "outputs": [],
      "stateMutability": "nonpayable",
      "type": "function"
    },
    {
      "inputs": [],
      "name": "totalROIIDs",
      "outputs": [
        {
          "internalType": "uint32",
          "name": "",
          "type": "uint32"
        }
      ],
      "stateMutability": "view",
      "type": "function"
    },
    {
      "inputs": [],
      "name": "totalROIPaid",
      "outputs": [
        {
          "internalType": "uint256",
          "name": "",
          "type": "uint256"
        }
      ],
      "stateMutability": "view",
      "type": "function"
    },
    {
      "inputs": [],
      "name": "totalROIValue",
      "outputs": [
        {
          "internalType": "uint256",
          "name": "",
          "type": "uint256"
        }
      ],
      "stateMutability": "view",
      "type": "function"
    },
    {
      "inputs": [
        {
          "internalType": "address",
          "name": "newOwner",
          "type": "address"
        }
      ],
      "name": "transferOwnership",
      "outputs": [],
      "stateMutability": "nonpayable",
      "type": "function"
    },
    {
      "inputs": [
        {
          "internalType": "address",
          "name": "newImplementation",
          "type": "address"
        }
      ],
      "name": "upgradeTo",
      "outputs": [],
      "stateMutability": "nonpayable",
      "type": "function"
    },
    {
      "inputs": [
        {
          "internalType": "address",
          "name": "newImplementation",
          "type": "address"
        },
        {
          "internalType": "bytes",
          "name": "data",
          "type": "bytes"
        }
      ],
      "name": "upgradeToAndCall",
      "outputs": [],
      "stateMutability": "payable",
      "type": "function"
    },
    {
      "inputs": [],
      "name": "withdrawETHAdmin",
      "outputs": [],
      "stateMutability": "nonpayable",
      "type": "function"
    },
    {
      "inputs": [
        {
          "internalType": "address",
          "name": "_tokenAddress",
          "type": "address"
        },
        {
          "internalType": "uint256",
          "name": "_value",
          "type": "uint256"
        }
      ],
      "name": "withdrawTokensAdmin",
      "outputs": [],
      "stateMutability": "nonpayable",
      "type": "function"
    },
    {
      "stateMutability": "payable",
      "type": "receive"
    }
  ],
  "bytecode": "0x60a06040523060805234801561001457600080fd5b5060805161282d61004c600039600081816105a7015281816105f00152818161068c015281816106cc015261075f015261282d6000f3fe6080604052600436106101855760003560e01c80638da5cb5b116100d1578063bf46de631161008a578063d895af2c11610064578063d895af2c146104ad578063ea62f715146104cd578063eaec6364146104ed578063f2fde38b1461050357600080fd5b8063bf46de63146103e9578063c3ab5ebf14610409578063d275f14e1461048d57600080fd5b80638da5cb5b1461030d5780639a9e3c4214610335578063a0b6105f14610355578063a1b8017514610375578063abab358f146103ae578063af2f39d1146103cf57600080fd5b806352d1902d1161013e578063770ceeb111610118578063770ceeb1146102ac5780637e09c75e146102cc5780638129fc1c146102e257806381b0e086146102f757600080fd5b806352d1902d1461025257806355332a8514610267578063715018a61461029757600080fd5b80630b243dad1461019157806330abbcc5146101b3578063313ce567146101dc578063357597881461020a5780633659cfe61461021f5780634f1ef2861461023f57600080fd5b3661018c57005b600080fd5b34801561019d57600080fd5b506101b16101ac366004611e7f565b610523565b005b3480156101bf57600080fd5b506101c960ca5481565b6040519081526020015b60405180910390f35b3480156101e857600080fd5b5060cc546101f79061ffff1681565b60405161ffff90911681526020016101d3565b34801561021657600080fd5b506101b1610566565b34801561022b57600080fd5b506101b161023a366004611eab565b61059d565b6101b161024d366004611f61565b610682565b34801561025e57600080fd5b506101c9610752565b34801561027357600080fd5b50610287610282366004612006565b610805565b60405190151581526020016101d3565b3480156102a357600080fd5b506101b1610816565b3480156102b857600080fd5b506101c96102c7366004612006565b61082a565b3480156102d857600080fd5b506101c960ce5481565b3480156102ee57600080fd5b506101b1610b18565b34801561030357600080fd5b506101c960cd5481565b34801561031957600080fd5b506033546040516001600160a01b0390911681526020016101d3565b34801561034157600080fd5b506101b1610350366004612023565b610c79565b34801561036157600080fd5b506101b1610370366004611e7f565b610d30565b34801561038157600080fd5b5060c95461039990600160a01b900463ffffffff1681565b60405163ffffffff90911681526020016101d3565b3480156103ba57600080fd5b5060cc546101f79062010000900461ffff1681565b3480156103db57600080fd5b5060cf546102879060ff1681565b3480156103f557600080fd5b506101c9610404366004612006565b610da9565b34801561041557600080fd5b50610429610424366004612006565b610db5565b6040516101d39190600060e08201905063ffffffff808451168352806020850151166020840152506040830151604083015261ffff60608401511660608301526080830151608083015260a083015160a083015260c083015160c083015292915050565b34801561049957600080fd5b506103996104a836600461205f565b610e7b565b3480156104b957600080fd5b506101b16104c8366004612006565b610f1b565b3480156104d957600080fd5b506101c96104e8366004612006565b610fc9565b3480156104f957600080fd5b506101c960cb5481565b34801561050f57600080fd5b506101b161051e366004611eab565b6111ae565b61052b611224565b6040516001600160a01b0383169082156108fc029083906000818181858888f19350505050158015610561573d6000803e3d6000fd5b505050565b61056e611224565b60405133904780156108fc02916000818181858888f1935050505015801561059a573d6000803e3d6000fd5b50565b6001600160a01b037f00000000000000000000000000000000000000000000000000000000000000001630036105ee5760405162461bcd60e51b81526004016105e5906120a3565b60405180910390fd5b7f00000000000000000000000000000000000000000000000000000000000000006001600160a01b03166106376000805160206127b1833981519152546001600160a01b031690565b6001600160a01b03161461065d5760405162461bcd60e51b81526004016105e5906120ef565b6106668161127e565b6040805160008082526020820190925261059a91839190611286565b6001600160a01b037f00000000000000000000000000000000000000000000000000000000000000001630036106ca5760405162461bcd60e51b81526004016105e5906120a3565b7f00000000000000000000000000000000000000000000000000000000000000006001600160a01b03166107136000805160206127b1833981519152546001600160a01b031690565b6001600160a01b0316146107395760405162461bcd60e51b81526004016105e5906120ef565b6107428261127e565b61074e82826001611286565b5050565b6000306001600160a01b037f000000000000000000000000000000000000000000000000000000000000000016146107f25760405162461bcd60e51b815260206004820152603860248201527f555550535570677261646561626c653a206d757374206e6f742062652063616c60448201527f6c6564207468726f7567682064656c656761746563616c6c000000000000000060648201526084016105e5565b506000805160206127b183398151915290565b6000610810826113f1565b92915050565b61081e611224565b610828600061147d565b565b60008060c960009054906101000a90046001600160a01b03166001600160a01b03166323442c606040518163ffffffff1660e01b8152600401602060405180830381865afa158015610880573d6000803e3d6000fd5b505050506040513d601f19601f820116820180604052508101906108a4919061214b565b604051632100978960e01b815263ffffffff851660048201526001600160a01b039190911690632100978990602401600060405180830381865afa1580156108f0573d6000803e3d6000fd5b505050506040513d6000823e601f3d908101601f1916820160405261091891908101906122eb565b60c954604051630935e01b60e21b81523360048201529192506000916001600160a01b03909116906324d7806c90602401602060405180830381865afa158015610966573d6000803e3d6000fd5b505050506040513d601f19601f8201168201806040525081019061098a91906125b4565b610b0757806109db5760405162461bcd60e51b815260206004820152601a60248201527f53797374656d20697320696e206d61696e7461696e616e63652e00000000000060448201526064016105e5565b81608001516001600160a01b0316336001600160a01b031614610a405760405162461bcd60e51b815260206004820152601d60248201527f596f7520617265206e6f74206f776e6572206f6620746869732069642e00000060448201526064016105e5565b60ce54826103c00151610a5391906125e5565b421015610ab45760405162461bcd60e51b815260206004820152602960248201527f596f757220726f6920636c61696d2074696d656c696d6974206973206e6f742060448201526837bb32b9103cb2ba1760b91b60648201526084016105e5565b81610420015115610b075760405162461bcd60e51b815260206004820152601960248201527f4163636f756e742064697361626c65642062792061646d696e0000000000000060448201526064016105e5565b610b10826114cf565b949350505050565b600054610100900460ff1615808015610b385750600054600160ff909116105b80610b525750303b158015610b52575060005460ff166001145b610bb55760405162461bcd60e51b815260206004820152602e60248201527f496e697469616c697a61626c653a20636f6e747261637420697320616c72656160448201526d191e481a5b9a5d1a585b1a5e995960921b60648201526084016105e5565b6000805460ff191660011790558015610bd8576000805461ff0019166101001790555b60c980546001600160a01b031916730b8bf5feb9fca57d9c5d27185ddf3017e99a2d3617905560cc8054620503e863ffffffff199091161790556201518060ce5563020f580060cd55610c296117be565b610c316117ed565b801561059a576000805461ff0019169055604051600181527f7f26b83ff96e1f2b6a682f133852f6798a09c465da95921460cefb38474024989060200160405180910390a150565b60c954604051630935e01b60e21b81523360048201526001600160a01b03909116906324d7806c90602401602060405180830381865afa158015610cc1573d6000803e3d6000fd5b505050506040513d601f19601f82011682018060405250810190610ce591906125b4565b610d015760405162461bcd60e51b81526004016105e5906125f8565b60cc805463ffff000019166201000061ffff861602179055610d26826201518061263d565b60cd5560ce555050565b610d38611224565b60405163a9059cbb60e01b8152336004820152602481018290526001600160a01b0383169063a9059cbb906044016020604051808303816000875af1158015610d85573d6000803e3d6000fd5b505050506040513d601f19601f8201168201806040525081019061056191906125b4565b60006108108242611814565b610e056040518060e00160405280600063ffffffff168152602001600063ffffffff16815260200160008152602001600061ffff1681526020016000815260200160008152602001600081525090565b5063ffffffff908116600090815260d06020908152604091829020825160e08101845281548086168252640100000000900490941691840191909152600181015491830191909152600281015461ffff16606083015260038101546080830152600481015460a08301526005015460c082015290565b60c954604051630935e01b60e21b81523360048201526000916001600160a01b0316906324d7806c90602401602060405180830381865afa158015610ec4573d6000803e3d6000fd5b505050506040513d601f19601f82011682018060405250810190610ee891906125b4565b610f045760405162461bcd60e51b81526004016105e5906125f8565b610f118686868686611a47565b9695505050505050565b60c954604051630935e01b60e21b81523360048201526001600160a01b03909116906324d7806c90602401602060405180830381865afa158015610f63573d6000803e3d6000fd5b505050506040513d601f19601f82011682018060405250810190610f8791906125b4565b610fa35760405162461bcd60e51b81526004016105e5906125f8565b60c9805463ffffffff909216600160a01b0263ffffffff60a01b19909216919091179055565b60008060c960009054906101000a90046001600160a01b03166001600160a01b03166323442c606040518163ffffffff1660e01b8152600401602060405180830381865afa15801561101f573d6000803e3d6000fd5b505050506040513d601f19601f82011682018060405250810190611043919061214b565b604051632100978960e01b815263ffffffff851660048201526001600160a01b039190911690632100978990602401600060405180830381865afa15801561108f573d6000803e3d6000fd5b505050506040513d6000823e601f3d908101601f191682016040526110b791908101906122eb565b61038081015180516102e083015192935090916110d590600261263d565b836102c001511080156110e85750600081115b80156110f75750826104200151155b156111a15760005b818161ffff16101561119b57600060d06000858461ffff168151811061112757611127612654565b602002602001015163ffffffff1663ffffffff1681526020019081526020016000209050611171848361ffff168151811061116457611164612654565b60200260200101516113f1565b1561118857600181015461118590876125e5565b95505b50806111938161266a565b9150506110ff565b506111a6565b600093505b505050919050565b6111b6611224565b6001600160a01b03811661121b5760405162461bcd60e51b815260206004820152602660248201527f4f776e61626c653a206e6577206f776e657220697320746865207a65726f206160448201526564647265737360d01b60648201526084016105e5565b61059a8161147d565b6033546001600160a01b031633146108285760405162461bcd60e51b815260206004820181905260248201527f4f776e61626c653a2063616c6c6572206973206e6f7420746865206f776e657260448201526064016105e5565b61059a611224565b7f4910fdfa16fed3260ed0e7147f7cc6da11a60208b5b9406d12a635614ffd91435460ff16156112b95761056183611b5e565b826001600160a01b03166352d1902d6040518163ffffffff1660e01b8152600401602060405180830381865afa925050508015611313575060408051601f3d908101601f191682019092526113109181019061268b565b60015b6113765760405162461bcd60e51b815260206004820152602e60248201527f45524331393637557067726164653a206e657720696d706c656d656e7461746960448201526d6f6e206973206e6f74205555505360901b60648201526084016105e5565b6000805160206127b183398151915281146113e55760405162461bcd60e51b815260206004820152602960248201527f45524331393637557067726164653a20756e737570706f727465642070726f786044820152681a58589b195555525160ba1b60648201526084016105e5565b50610561838383611bfa565b63ffffffff808216600090815260d060209081526040808320815160e08101835281548087168252640100000000900490951692850192909252600182015490840152600281015461ffff16606084015260038101546080840152600481015460a08401526005015460c083018190529091904210156114745750600192915050565b50600092915050565b603380546001600160a01b038381166001600160a01b0319831681179093556040519116919082907f8be0079c531659141344cd1fd0a4f28419497f9722a3daafe3b4186f6b6457e090600090a35050565b8051600090429082906114e29083611814565b9050836102e0015160026114f6919061263d565b846102c001511115801561152957506102e084015161151690600261263d565b81856102c0015161152791906125e5565b105b1561154e578092508260ca600082825461154391906125e5565b909155506115ac9050565b6102e084015161155f90600261263d565b846102c00151116115ac576000846102c00151856102e001516002611584919061263d565b61158e91906126a4565b90508093508060ca60008282546115a591906125e5565b9091555050505b82156117ad5760c960009054906101000a90046001600160a01b03166001600160a01b03166323442c606040518163ffffffff1660e01b8152600401602060405180830381865afa158015611605573d6000803e3d6000fd5b505050506040513d601f19601f82011682018060405250810190611629919061214b565b845160405163284eb62960e11b815263ffffffff9091166004820152602481018590526001600160a01b03919091169063509d6c5290604401600060405180830381600087803b15801561167c57600080fd5b505af1158015611690573d6000803e3d6000fd5b5050505060c960009054906101000a90046001600160a01b03166001600160a01b03166323442c606040518163ffffffff1660e01b8152600401602060405180830381865afa1580156116e7573d6000803e3d6000fd5b505050506040513d601f19601f8201168201806040525081019061170b919061214b565b845160405163498b3e5560e01b81526004810186905263ffffffff90911660248201526001600160a01b03919091169063498b3e5590604401600060405180830381600087803b15801561175e57600080fd5b505af1158015611772573d6000803e3d6000fd5b5050855160405186935063ffffffff90911691507f7cd8783637a6bf8d3b4b69973a28720cfb0f5abc55d8b85dde1732d8f22c0efc90600090a35b6117b78483611c25565b5050919050565b600054610100900460ff166117e55760405162461bcd60e51b81526004016105e5906126b7565b610828611cbc565b600054610100900460ff166108285760405162461bcd60e51b81526004016105e5906126b7565b60008060c960009054906101000a90046001600160a01b03166001600160a01b03166323442c606040518163ffffffff1660e01b8152600401602060405180830381865afa15801561186a573d6000803e3d6000fd5b505050506040513d601f19601f8201168201806040525081019061188e919061214b565b604051632100978960e01b815263ffffffff861660048201526001600160a01b039190911690632100978990602401600060405180830381865afa1580156118da573d6000803e3d6000fd5b505050506040513d6000823e601f3d908101601f1916820160405261190291908101906122eb565b61038081015180516102e0830151929350909161192090600261263d565b836102c001511080156119335750600081115b80156119425750826104200151155b15611a395760005b818161ffff161015611a3357600060d06000858461ffff168151811061197257611972612654565b602002602001015163ffffffff1663ffffffff16815260200190815260200160002090506119af848361ffff168151811061116457611164612654565b15611a205760cc54600182015460009161ffff808216926119d9926201000090049091169061263d565b6119e39190612702565b905060008260040154896119f791906126a4565b905062015180611a07828461263d565b611a119190612702565b611a1b90896125e5565b975050505b5080611a2b8161266a565b91505061194a565b50611a3e565b600093505b50505092915050565b60c980546000918291600160a01b900463ffffffff16906014611a6983612724565b91906101000a81548163ffffffff021916908363ffffffff1602179055509050600060d06000836001611a9c919061273d565b63ffffffff16815260208101919091526040016000209050611abf82600161273d565b815463ffffffff8a81166401000000000267ffffffffffffffff199092169216919091171781556001810187905560cc5460028201805461ffff191661ffff62010000909304929092169190911790556003810186905560048101859055611b2784876125e5565b81600501819055508660cb6000828254611b4191906125e5565b90915550611b52905082600161273d565b98975050505050505050565b6001600160a01b0381163b611bcb5760405162461bcd60e51b815260206004820152602d60248201527f455243313936373a206e657720696d706c656d656e746174696f6e206973206e60448201526c1bdd08184818dbdb9d1c9858dd609a1b60648201526084016105e5565b6000805160206127b183398151915280546001600160a01b0319166001600160a01b0392909216919091179055565b611c0383611cec565b600082511180611c105750805b1561056157611c1f8383611d2c565b50505050565b610380820151805160005b818161ffff161015611cb557600060d06000858461ffff1681518110611c5857611c58612654565b602002602001015163ffffffff1663ffffffff1681526020019081526020016000209050611c95848361ffff168151811061116457611164612654565b15611ca257600481018590555b5080611cad8161266a565b915050611c30565b5050505050565b600054610100900460ff16611ce35760405162461bcd60e51b81526004016105e5906126b7565b6108283361147d565b611cf581611b5e565b6040516001600160a01b038216907fbc7cd75a20ee27fd9adebab32041f755214dbc6bffa90cc0225b39da2e5c2d3b90600090a250565b60606001600160a01b0383163b611d945760405162461bcd60e51b815260206004820152602660248201527f416464726573733a2064656c65676174652063616c6c20746f206e6f6e2d636f6044820152651b9d1c9858dd60d21b60648201526084016105e5565b600080846001600160a01b031684604051611daf9190612761565b600060405180830381855af49150503d8060008114611dea576040519150601f19603f3d011682016040523d82523d6000602084013e611def565b606091505b5091509150611e1782826040518060600160405280602781526020016127d160279139611e20565b95945050505050565b60608315611e2f575081611e39565b611e398383611e40565b9392505050565b815115611e505781518083602001fd5b8060405162461bcd60e51b81526004016105e5919061277d565b6001600160a01b038116811461059a57600080fd5b60008060408385031215611e9257600080fd5b8235611e9d81611e6a565b946020939093013593505050565b600060208284031215611ebd57600080fd5b8135611e3981611e6a565b634e487b7160e01b600052604160045260246000fd5b604051610480810167ffffffffffffffff81118282101715611f0257611f02611ec8565b60405290565b604051601f8201601f1916810167ffffffffffffffff81118282101715611f3157611f31611ec8565b604052919050565b600067ffffffffffffffff821115611f5357611f53611ec8565b50601f01601f191660200190565b60008060408385031215611f7457600080fd5b8235611f7f81611e6a565b9150602083013567ffffffffffffffff811115611f9b57600080fd5b8301601f81018513611fac57600080fd5b8035611fbf611fba82611f39565b611f08565b818152866020838501011115611fd457600080fd5b816020840160208301376000602083830101528093505050509250929050565b63ffffffff8116811461059a57600080fd5b60006020828403121561201857600080fd5b8135611e3981611ff4565b60008060006060848603121561203857600080fd5b833561ffff8116811461204a57600080fd5b95602085013595506040909401359392505050565b600080600080600060a0868803121561207757600080fd5b853561208281611ff4565b97602087013597506040870135966060810135965060800135945092505050565b6020808252602c908201527f46756e6374696f6e206d7573742062652063616c6c6564207468726f7567682060408201526b19195b1959d85d1958d85b1b60a21b606082015260800190565b6020808252602c908201527f46756e6374696f6e206d7573742062652063616c6c6564207468726f7567682060408201526b6163746976652070726f787960a01b606082015260800190565b805161214681611e6a565b919050565b60006020828403121561215d57600080fd5b8151611e3981611e6a565b805161214681611ff4565b60005b8381101561218e578181015183820152602001612176565b50506000910152565b600082601f8301126121a857600080fd5b81516121b6611fba82611f39565b8181528460208386010111156121cb57600080fd5b610b10826020830160208701612173565b8051801515811461214657600080fd5b600067ffffffffffffffff82111561220657612206611ec8565b5060051b60200190565b600082601f83011261222157600080fd5b81516020612231611fba836121ec565b82815260059290921b8401810191818101908684111561225057600080fd5b8286015b8481101561227457805161226781611ff4565b8352918301918301612254565b509695505050505050565b600082601f83011261229057600080fd5b815160206122a0611fba836121ec565b82815260059290921b840181019181810190868411156122bf57600080fd5b8286015b8481101561227457805183529183019183016122c3565b805160ff8116811461214657600080fd5b6000602082840312156122fd57600080fd5b815167ffffffffffffffff8082111561231557600080fd5b90830190610480828603121561232a57600080fd5b612332611ede565b61233b83612168565b815260208301518281111561234f57600080fd5b61235b87828601612197565b60208301525060408301516040820152612377606084016121dc565b60608201526123886080840161213b565b608082015261239960a08401612168565b60a08201526123aa60c084016121dc565b60c082015260e0830151828111156123c157600080fd5b6123cd87828601612210565b60e08301525061010080840151838111156123e757600080fd5b6123f388828701612210565b828401525050610120808401518381111561240d57600080fd5b61241988828701612210565b828401525050610140808401518381111561243357600080fd5b61243f8882870161227f565b9183019190915250610160838101519082015261018080840151908201526101a080840151908201526101c080840151908201526101e080840151908201526102008084015190820152610220808401519082015261024080840151908201526102606124ad8185016122da565b908201526102806124bf848201612168565b908201526102a083810151908201526102c080840151908201526102e080840151908201526103008084015190820152610320808401519082015261034080840151908201526103608084015190820152610380808401518381111561252457600080fd5b61253088828701612210565b91830191909152506103a083810151908201526103c080840151908201526103e0808401519082015261040091506125698284016121dc565b82820152610420915061257d8284016121dc565b8282015261044091506125918284016121dc565b8282015261046091506125a58284016121dc565b91810191909152949350505050565b6000602082840312156125c657600080fd5b611e39826121dc565b634e487b7160e01b600052601160045260246000fd5b80820180821115610810576108106125cf565b60208082526025908201527f4f6e6c792041646d696e2063616e2061636365737320746869732066756e637460408201526434b7b7171760d91b606082015260800190565b8082028115828204841417610810576108106125cf565b634e487b7160e01b600052603260045260246000fd5b600061ffff808316818103612681576126816125cf565b6001019392505050565b60006020828403121561269d57600080fd5b5051919050565b81810381811115610810576108106125cf565b6020808252602b908201527f496e697469616c697a61626c653a20636f6e7472616374206973206e6f74206960408201526a6e697469616c697a696e6760a81b606082015260800190565b60008261271f57634e487b7160e01b600052601260045260246000fd5b500490565b600063ffffffff808316818103612681576126816125cf565b63ffffffff81811683821601908082111561275a5761275a6125cf565b5092915050565b60008251612773818460208701612173565b9190910192915050565b602081526000825180602084015261279c816040850160208701612173565b601f01601f1916919091016040019291505056fe360894a13ba1a3210667c828492db98dca3e2076cc3735a920a3ca505d382bbc416464726573733a206c6f772d6c6576656c2064656c65676174652063616c6c206661696c6564a2646970667358221220bce8c1af126e0cfe1bb8baa7396ed16aebe1a4b61adbbfe43b0b340012799c1764736f6c63430008120033",
  "linkReferences": {},
  "deployedLinkReferences": {}
}