{"contracts/ReferralV3Upgradeable.sol":{"ReferralV3Upgradeable":{"abi":[{"anonymous":false,"inputs":[{"indexed":false,"internalType":"address","name":"ownerAddress","type":"address"},{"indexed":false,"internalType":"uint256","name":"id","type":"uint256"},{"indexed":false,"internalType":"uint256","name":"idIndex","type":"uint256"}],"name":"AccountInfoIDAttached","type":"event"},{"anonymous":false,"inputs":[{"indexed":false,"internalType":"uint256","name":"userID","type":"uint256"},{"indexed":false,"internalType":"uint256","name":"index","type":"uint256"},{"indexed":false,"internalType":"uint256","name":"rank","type":"uint256"}],"name":"AddedInRoyaltyClubList","type":"event"},{"anonymous":false,"inputs":[{"indexed":false,"internalType":"address","name":"previousAdmin","type":"address"},{"indexed":false,"internalType":"address","name":"newAdmin","type":"address"}],"name":"AdminChanged","type":"event"},{"anonymous":false,"inputs":[{"indexed":true,"internalType":"address","name":"beacon","type":"address"}],"name":"BeaconUpgraded","type":"event"},{"anonymous":false,"inputs":[{"indexed":false,"internalType":"uint256","name":"id","type":"uint256"},{"indexed":false,"internalType":"string","name":"reason","type":"string"}],"name":"IDDeactivated","type":"event"},{"anonymous":false,"inputs":[{"indexed":false,"internalType":"uint8","name":"version","type":"uint8"}],"name":"Initialized","type":"event"},{"anonymous":false,"inputs":[{"indexed":true,"internalType":"address","name":"previousOwner","type":"address"},{"indexed":true,"internalType":"address","name":"newOwner","type":"address"}],"name":"OwnershipTransferred","type":"event"},{"anonymous":false,"inputs":[{"indexed":false,"internalType":"uint256","name":"packageID","type":"uint256"}],"name":"PackageAdded","type":"event"},{"anonymous":false,"inputs":[{"indexed":false,"internalType":"uint256","name":"packageID","type":"uint256"}],"name":"PackageRemoved","type":"event"},{"anonymous":false,"inputs":[{"indexed":false,"internalType":"uint256","name":"packageID","type":"uint256"}],"name":"PackageUpdated","type":"event"},{"anonymous":false,"inputs":[{"indexed":true,"internalType":"uint256","name":"userID","type":"uint256"},{"indexed":true,"internalType":"uint256","name":"reward","type":"uint256"}],"name":"ROIClaimed","type":"event"},{"anonymous":false,"inputs":[{"indexed":true,"internalType":"uint256","name":"refererID","type":"uint256"},{"indexed":true,"internalType":"uint256","name":"level","type":"uint256"},{"indexed":true,"internalType":"string","name":"reason","type":"string"}],"name":"ReferralNotPaid","type":"event"},{"anonymous":false,"inputs":[{"indexed":true,"internalType":"uint256","name":"refereeID","type":"uint256"},{"indexed":true,"internalType":"uint256","name":"referrerID","type":"uint256"},{"indexed":true,"internalType":"uint256","name":"amount","type":"uint256"},{"indexed":false,"internalType":"uint256","name":"level","type":"uint256"}],"name":"ReferralRewardPaid","type":"event"},{"anonymous":false,"inputs":[{"indexed":true,"internalType":"address","name":"refereeID","type":"address"},{"indexed":true,"internalType":"address","name":"referrerID","type":"address"},{"indexed":true,"internalType":"string","name":"reason","type":"string"}],"name":"RegisterRefererFailed","type":"event"},{"anonymous":false,"inputs":[{"indexed":true,"internalType":"uint256","name":"id","type":"uint256"},{"indexed":true,"internalType":"uint256","name":"refererID","type":"uint256"}],"name":"RegisteredReferer","type":"event"},{"anonymous":false,"inputs":[{"indexed":true,"internalType":"address","name":"parent","type":"address"},{"indexed":false,"internalType":"uint256","name":"parentAccountID","type":"uint256"},{"indexed":true,"internalType":"uint256","name":"referrerID","type":"uint256"},{"indexed":true,"internalType":"uint256","name":"refereeID","type":"uint256"}],"name":"RegisteredTeamAddress","type":"event"},{"anonymous":false,"inputs":[{"indexed":false,"internalType":"uint256","name":"packageID","type":"uint256"},{"indexed":true,"internalType":"uint256","name":"userID","type":"uint256"},{"indexed":true,"internalType":"uint256","name":"amount","type":"uint256"}],"name":"RoyaltyClubBonusPaid","type":"event"},{"anonymous":false,"inputs":[{"indexed":true,"internalType":"address","name":"implementation","type":"address"}],"name":"Upgraded","type":"event"},{"inputs":[{"internalType":"uint256","name":"","type":"uint256"}],"name":"_disabledUsersList","outputs":[{"internalType":"address","name":"","type":"address"}],"stateMutability":"view","type":"function"},{"inputs":[{"internalType":"uint32","name":"_refererID","type":"uint32"}],"name":"activateID","outputs":[],"stateMutability":"payable","type":"function"},{"inputs":[{"internalType":"uint32[]","name":"_userID","type":"uint32[]"}],"name":"addTeamAddress","outputs":[],"stateMutability":"nonpayable","type":"function"},{"inputs":[{"internalType":"uint256","name":"","type":"uint256"}],"name":"admins","outputs":[{"internalType":"address","name":"","type":"address"}],"stateMutability":"view","type":"function"},{"inputs":[{"internalType":"uint32","name":"_id","type":"uint32"},{"internalType":"uint256","name":"_value","type":"uint256"}],"name":"claimBalance","outputs":[],"stateMutability":"nonpayable","type":"function"},{"inputs":[],"name":"companyTurnoverTimeLimit","outputs":[{"internalType":"uint256","name":"","type":"uint256"}],"stateMutability":"view","type":"function"},{"inputs":[],"name":"companyTurnoverTimeStamp","outputs":[{"internalType":"uint256","name":"","type":"uint256"}],"stateMutability":"view","type":"function"},{"inputs":[],"name":"companyTurnoverWithTimeLimit","outputs":[{"internalType":"uint256","name":"","type":"uint256"}],"stateMutability":"view","type":"function"},{"inputs":[],"name":"decimals","outputs":[{"internalType":"uint16","name":"","type":"uint16"}],"stateMutability":"view","type":"function"},{"inputs":[{"internalType":"uint256","name":"_number","type":"uint256"}],"name":"deleteAllROIs","outputs":[],"stateMutability":"nonpayable","type":"function"},{"inputs":[{"internalType":"uint32","name":"_from","type":"uint32"},{"internalType":"uint32","name":"_to","type":"uint32"}],"name":"deleteROIDetails","outputs":[],"stateMutability":"nonpayable","type":"function"},{"inputs":[{"internalType":"address","name":"_userAddress","type":"address"}],"name":"disableUserAdmin","outputs":[],"stateMutability":"nonpayable","type":"function"},{"inputs":[{"internalType":"uint32","name":"_id","type":"uint32"}],"name":"getIDAccount","outputs":[{"components":[{"internalType":"uint32","name":"id","type":"uint32"},{"internalType":"string","name":"oldID","type":"string"},{"internalType":"bool","name":"isActive","type":"bool"},{"internalType":"address","name":"owner","type":"address"},{"internalType":"uint256","name":"joiningTime","type":"uint256"},{"internalType":"uint256","name":"deactivateTime","type":"uint256"},{"internalType":"uint32","name":"refererID","type":"uint32"},{"internalType":"uint32[]","name":"refereeIDs","type":"uint32[]"},{"internalType":"uint32[]","name":"teamIDs","type":"uint32[]"},{"internalType":"uint32[]","name":"teamLevel","type":"uint32[]"},{"internalType":"uint256","name":"selfBusiness","type":"uint256"},{"internalType":"uint256","name":"selfBusinessOld","type":"uint256"},{"internalType":"uint256","name":"directBusiness","type":"uint256"},{"internalType":"uint256","name":"directBusinessOld","type":"uint256"},{"internalType":"uint256","name":"teamBusiness","type":"uint256"},{"internalType":"uint256","name":"teamBusinessOld","type":"uint256"},{"internalType":"uint256","name":"royaltyClubBusiness","type":"uint256"},{"internalType":"uint256","name":"timeStampRoyaltyClub","type":"uint256"},{"internalType":"uint8","name":"royaltyClubPackageID","type":"uint8"},{"internalType":"uint256","name":"royaltyClubListIndex","type":"uint256"},{"internalType":"uint256","name":"referralPaid","type":"uint256"},{"internalType":"uint256","name":"rewardPaidRoyaltyClub","type":"uint256"},{"internalType":"uint256","name":"totalTopUp","type":"uint256"},{"internalType":"uint256","name":"totalIncome","type":"uint256"},{"internalType":"uint256","name":"totalMaxLimitAmount","type":"uint256"},{"internalType":"uint256","name":"currentTopUp","type":"uint256"},{"internalType":"uint256","name":"currentTopUpTime","type":"uint256"},{"internalType":"uint256","name":"totalROIClaimed","type":"uint256"},{"internalType":"uint32[]","name":"roiIDs","type":"uint32[]"},{"internalType":"uint256","name":"roiClaimed","type":"uint256"},{"internalType":"uint256","name":"roiClaimedTimestamp","type":"uint256"},{"internalType":"uint256","name":"balanceClaimed","type":"uint256"}],"internalType":"struct ReferralV3Upgradeable.StructID","name":"","type":"tuple"}],"stateMutability":"view","type":"function"},{"inputs":[],"name":"getMinContributionETH","outputs":[{"internalType":"uint256","name":"","type":"uint256"}],"stateMutability":"view","type":"function"},{"inputs":[],"name":"getPriceOracleContract","outputs":[{"internalType":"address","name":"","type":"address"}],"stateMutability":"view","type":"function"},{"inputs":[{"internalType":"uint32","name":"_roiID","type":"uint32"}],"name":"getROIAccount","outputs":[{"components":[{"internalType":"uint32","name":"id","type":"uint32"},{"internalType":"bool","name":"isActive","type":"bool"},{"internalType":"uint32","name":"ownerID","type":"uint32"},{"internalType":"uint256","name":"value","type":"uint256"},{"internalType":"uint16","name":"roiRate","type":"uint16"},{"internalType":"uint256","name":"startTime","type":"uint256"}],"internalType":"struct ReferralV3Upgradeable.StructROI","name":"","type":"tuple"}],"stateMutability":"view","type":"function"},{"inputs":[{"internalType":"address","name":"_address","type":"address"}],"name":"getUserAccount","outputs":[{"components":[{"internalType":"bool","name":"isDisabled","type":"bool"},{"internalType":"uint32[]","name":"accountIDs","type":"uint32[]"}],"internalType":"struct ReferralV3Upgradeable.StructAccount","name":"","type":"tuple"}],"stateMutability":"view","type":"function"},{"inputs":[{"internalType":"uint32","name":"_id","type":"uint32"}],"name":"getUserIDTotalROI","outputs":[{"internalType":"uint256","name":"","type":"uint256"}],"stateMutability":"view","type":"function"},{"inputs":[{"internalType":"uint32","name":"_id","type":"uint32"}],"name":"getUserTotalActiveROIValue","outputs":[{"internalType":"uint256","name":"","type":"uint256"}],"stateMutability":"view","type":"function"},{"inputs":[{"internalType":"uint32","name":"_id","type":"uint32"}],"name":"getUserUnlockCount","outputs":[{"internalType":"uint256","name":"","type":"uint256"}],"stateMutability":"view","type":"function"},{"inputs":[],"name":"initialize","outputs":[],"stateMutability":"nonpayable","type":"function"},{"inputs":[],"name":"isPayROI","outputs":[{"internalType":"bool","name":"","type":"bool"}],"stateMutability":"view","type":"function"},{"inputs":[],"name":"isPayRoyaltyClubBonus","outputs":[{"internalType":"bool","name":"","type":"bool"}],"stateMutability":"view","type":"function"},{"inputs":[{"internalType":"address","name":"_userAddress","type":"address"}],"name":"isUserDisabledByAdmin","outputs":[{"internalType":"bool","name":"","type":"bool"}],"stateMutability":"view","type":"function"},{"inputs":[{"internalType":"uint256","name":"","type":"uint256"}],"name":"levelRates","outputs":[{"internalType":"uint16","name":"","type":"uint16"}],"stateMutability":"view","type":"function"},{"inputs":[],"name":"maxLevelsCount","outputs":[{"internalType":"uint8","name":"","type":"uint8"}],"stateMutability":"view","type":"function"},{"inputs":[],"name":"minContributionIn","outputs":[{"internalType":"uint256","name":"","type":"uint256"}],"stateMutability":"view","type":"function"},{"inputs":[],"name":"owner","outputs":[{"internalType":"address","name":"","type":"address"}],"stateMutability":"view","type":"function"},{"inputs":[],"name":"packagesCount","outputs":[{"internalType":"uint8","name":"","type":"uint8"}],"stateMutability":"view","type":"function"},{"inputs":[],"name":"proxiableUUID","outputs":[{"internalType":"bytes32","name":"","type":"bytes32"}],"stateMutability":"view","type":"function"},{"inputs":[{"internalType":"address","name":"_userAddress","type":"address"}],"name":"removeUserFromDisableList","outputs":[],"stateMutability":"nonpayable","type":"function"},{"inputs":[],"name":"renounceOwnership","outputs":[],"stateMutability":"nonpayable","type":"function"},{"inputs":[],"name":"royaltyClubPackageCount","outputs":[{"internalType":"uint8","name":"","type":"uint8"}],"stateMutability":"view","type":"function"},{"inputs":[{"internalType":"address","name":"_address","type":"address"},{"internalType":"uint256","name":"_value","type":"uint256"}],"name":"sendETHAdmin","outputs":[],"stateMutability":"nonpayable","type":"function"},{"inputs":[{"internalType":"address","name":"_adminAddress","type":"address"}],"name":"setAdmin","outputs":[],"stateMutability":"nonpayable","type":"function"},{"inputs":[{"internalType":"uint256","name":"_valueWei","type":"uint256"}],"name":"setMinContribution","outputs":[],"stateMutability":"nonpayable","type":"function"},{"inputs":[{"internalType":"address","name":"_contractAddress","type":"address"}],"name":"setPriceOracleContract","outputs":[],"stateMutability":"nonpayable","type":"function"},{"inputs":[{"internalType":"uint16","name":"_roiRateInDecimals","type":"uint16"},{"internalType":"uint256","name":"_roiDurationInDays","type":"uint256"},{"internalType":"uint256","name":"_roiClaimTimelimitInSeconds","type":"uint256"}],"name":"setROI","outputs":[],"stateMutability":"nonpayable","type":"function"},{"inputs":[{"internalType":"uint32","name":"_count","type":"uint32"}],"name":"setROIIDCount","outputs":[],"stateMutability":"nonpayable","type":"function"},{"inputs":[],"name":"totalIDs","outputs":[{"internalType":"uint32","name":"","type":"uint32"}],"stateMutability":"view","type":"function"},{"inputs":[],"name":"totalROIIDs","outputs":[{"internalType":"uint32","name":"","type":"uint32"}],"stateMutability":"view","type":"function"},{"inputs":[],"name":"totalROIPaid","outputs":[{"internalType":"uint256","name":"","type":"uint256"}],"stateMutability":"view","type":"function"},{"inputs":[],"name":"totalReferralPaid","outputs":[{"internalType":"uint256","name":"","type":"uint256"}],"stateMutability":"view","type":"function"},{"inputs":[],"name":"totalRoyaltyClubBonusPaid","outputs":[{"internalType":"uint256","name":"","type":"uint256"}],"stateMutability":"view","type":"function"},{"inputs":[],"name":"totalRoyaltyClubBonusPaidETH","outputs":[{"internalType":"uint256","name":"","type":"uint256"}],"stateMutability":"view","type":"function"},{"inputs":[{"internalType":"uint32","name":"_id","type":"uint32"}],"name":"totalTopUpID","outputs":[],"stateMutability":"payable","type":"function"},{"inputs":[],"name":"totalUsers","outputs":[{"internalType":"uint32","name":"","type":"uint32"}],"stateMutability":"view","type":"function"},{"inputs":[{"internalType":"address","name":"newOwner","type":"address"}],"name":"transferOwnership","outputs":[],"stateMutability":"nonpayable","type":"function"},{"inputs":[{"internalType":"uint32[]","name":"_id","type":"uint32[]"},{"internalType":"uint256[]","name":"_joiningTime","type":"uint256[]"}],"name":"updateIDJoinTime","outputs":[],"stateMutability":"nonpayable","type":"function"},{"inputs":[{"internalType":"uint32","name":"_from","type":"uint32"},{"internalType":"uint32","name":"_to","type":"uint32"},{"internalType":"uint256[]","name":"_topUp","type":"uint256[]"},{"internalType":"uint256[]","name":"_activationTime","type":"uint256[]"}],"name":"updateIDtotalTopUpDetails","outputs":[],"stateMutability":"nonpayable","type":"function"},{"inputs":[{"internalType":"uint32","name":"_value","type":"uint32"}],"name":"updateTotalIDs","outputs":[],"stateMutability":"nonpayable","type":"function"},{"inputs":[{"internalType":"address","name":"newImplementation","type":"address"}],"name":"upgradeTo","outputs":[],"stateMutability":"nonpayable","type":"function"},{"inputs":[{"internalType":"address","name":"newImplementation","type":"address"},{"internalType":"bytes","name":"data","type":"bytes"}],"name":"upgradeToAndCall","outputs":[],"stateMutability":"payable","type":"function"},{"inputs":[],"name":"withdrawETHAdmin","outputs":[],"stateMutability":"nonpayable","type":"function"},{"inputs":[{"internalType":"address","name":"_tokenAddress","type":"address"},{"internalType":"uint256","name":"_value","type":"uint256"}],"name":"withdrawTokensAdmin","outputs":[],"stateMutability":"nonpayable","type":"function"},{"stateMutability":"payable","type":"receive"}],"evm":{"bytecode":{"linkReferences":{},"object":"60a06040523060805234801561001457600080fd5b5060805161563c6200004d60003960008181610cdd01528181610d1d01528181611098015281816110d80152611167015261563c6000f3fe6080604052600436106103545760003560e01c8063852ff2fd116101c6578063c82801ca116100f7578063f2fde38b11610095578063f830e57b1161006f578063f830e57b14610a9f578063fafc959714610acc578063fb47e01614610aeb578063ff4ec1f114610b1857600080fd5b8063f2fde38b14610a49578063f31a2d0f14610a69578063f41bfeef14610a8957600080fd5b8063e52356f3116100d1578063e52356f3146109d6578063e5682e38146109f6578063ea62f71514610a09578063ef2f824f14610a2957600080fd5b8063c82801ca14610976578063d895af2c14610996578063da1e7c6e146109b657600080fd5b8063af2f39d111610164578063bff1f9e11161013e578063bff1f9e1146107f9578063c3ab5ebf14610816578063c7464ea414610936578063c81ea2161461095657600080fd5b8063af2f39d11461079f578063b47181d3146107b9578063bf46de63146107d957600080fd5b80639f4e8398116101a05780639f4e83981461071b578063a0b6105f1461073b578063a1b801751461075b578063a28a36861461077f57600080fd5b8063852ff2fd146106c75780638da5cb5b146106dd5780638df05d9c146106fb57600080fd5b806335759788116102a05780635e701d861161023e578063715018a611610218578063715018a6146106675780637879b5ef1461067c5780637c5994861461069c5780638129fc1c146106b257600080fd5b80635e701d86146105ee578063704b6c021461062757806370d9e0811461064757600080fd5b806349b325041161027a57806349b325041461055d5780634f1ef2861461057d57806352d1902d14610590578063538ffe0c146105a557600080fd5b806335759788146105085780633659cfe61461051d578063473b0d461461053d57600080fd5b80631f7f83ba1161030d5780632913497b116102e75780632913497b146104905780632ed421d2146104ae57806330abbcc5146104c4578063313ce567146104da57600080fd5b80631f7f83ba146104455780631f9e65e41461046557806322f88b521461047a57600080fd5b806309de82cd146103605780630b243dad146103895780630efdbb6a146103ab57806314bfd6d0146103cb57806318e10bff146104035780631c961c051461042f57600080fd5b3661035b57005b600080fd5b34801561036c57600080fd5b5061037660ce5481565b6040519081526020015b60405180910390f35b34801561039557600080fd5b506103a96103a4366004614b52565b610b2b565b005b3480156103b757600080fd5b506103a96103c6366004614b7c565b610b6e565b3480156103d757600080fd5b506103eb6103e6366004614b97565b610c50565b6040516001600160a01b039091168152602001610380565b34801561040f57600080fd5b5060d95461041d9060ff1681565b60405160ff9091168152602001610380565b34801561043b57600080fd5b5061037660cc5481565b34801561045157600080fd5b506103eb610460366004614b97565b610c7a565b34801561047157600080fd5b50610376610c8a565b34801561048657600080fd5b5061037660d55481565b34801561049c57600080fd5b5060c9546001600160a01b03166103eb565b3480156104ba57600080fd5b5061037660d65481565b3480156104d057600080fd5b5061037660d05481565b3480156104e657600080fd5b5060cb546104f59061ffff1681565b60405161ffff9091168152602001610380565b34801561051457600080fd5b506103a9610c9c565b34801561052957600080fd5b506103a9610538366004614b7c565b610cd3565b34801561054957600080fd5b506103a9610558366004614b97565b610daf565b34801561056957600080fd5b506103a9610578366004614bfc565b610dbc565b6103a961058b366004614c54565b61108e565b34801561059c57600080fd5b5061037661115a565b3480156105b157600080fd5b506105de6105c0366004614b7c565b6001600160a01b0316600090815260da602052604090205460ff1690565b6040519015158152602001610380565b3480156105fa57600080fd5b5060d15461061290600160201b900463ffffffff1681565b60405163ffffffff9091168152602001610380565b34801561063357600080fd5b506103a9610642366004614b7c565b61120d565b34801561065357600080fd5b506103a9610662366004614d2a565b611267565b34801561067357600080fd5b506103a9611340565b34801561068857600080fd5b506104f5610697366004614b97565b611354565b3480156106a857600080fd5b5061037660cf5481565b3480156106be57600080fd5b506103a961138c565b3480156106d357600080fd5b5061037660cd5481565b3480156106e957600080fd5b506033546001600160a01b03166103eb565b34801561070757600080fd5b5060cb5461041d9062010000900460ff1681565b34801561072757600080fd5b506103a9610736366004614b7c565b61162c565b34801561074757600080fd5b506103a9610756366004614b52565b611748565b34801561076757600080fd5b5060d15461061290600160401b900463ffffffff1681565b34801561078b57600080fd5b5060d45461041d9062010000900460ff1681565b3480156107ab57600080fd5b5060d4546105de9060ff1681565b3480156107c557600080fd5b506103766107d4366004614d2a565b6117c1565b3480156107e557600080fd5b506103766107f4366004614d2a565b611bdf565b34801561080557600080fd5b5060d1546106129063ffffffff1681565b34801561082257600080fd5b506108da610831366004614d2a565b6040805160c081018252600080825260208201819052918101829052606081018290526080810182905260a08101919091525063ffffffff908116600090815260dc6020908152604091829020825160c0810184528154808616825260ff600160201b820416151593820193909352650100000000009092049093169181019190915260018201546060820152600282015461ffff16608082015260039091015460a082015290565b6040516103809190600060c08201905063ffffffff808451168352602084015115156020840152806040850151166040840152506060830151606083015261ffff608084015116608083015260a083015160a083015292915050565b34801561094257600080fd5b506103a9610951366004614d45565b611bf0565b34801561096257600080fd5b506103a9610971366004614d78565b611d60565b34801561098257600080fd5b506103a9610991366004614de4565b611eb6565b3480156109a257600080fd5b506103a96109b1366004614d2a565b611f9e565b3480156109c257600080fd5b506103a96109d1366004614b97565b612076565b3480156109e257600080fd5b506103a96109f1366004614b7c565b612179565b6103a9610a04366004614d2a565b61234e565b348015610a1557600080fd5b50610376610a24366004614d2a565b6124be565b348015610a3557600080fd5b506103a9610a44366004614e20565b6125e3565b348015610a5557600080fd5b506103a9610a64366004614b7c565b6128af565b348015610a7557600080fd5b506103a9610a84366004614eb1565b612925565b348015610a9557600080fd5b5061037660d75481565b348015610aab57600080fd5b50610abf610aba366004614d2a565b612a71565b6040516103809190614f5e565b348015610ad857600080fd5b5060d4546105de90610100900460ff1681565b348015610af757600080fd5b50610b0b610b06366004614b7c565b612f89565b604051610380919061518c565b6103a9610b26366004614d2a565b613054565b610b33613193565b6040516001600160a01b0383169082156108fc029083906000818181858888f19350505050158015610b69573d6000803e3d6000fd5b505050565b60005b60de5460ff82161015610c4c5760de8160ff1681548110610b9457610b946151b3565b6000918252602090912001546001600160a01b03163303610bd05760c980546001600160a01b0384166001600160a01b03199091161790555050565b60de54610bdf906001906151df565b8160ff1603610c3a5760de8160ff1681548110610bfe57610bfe6151b3565b6000918252602090912001546001600160a01b03163314610c3a5760405162461bcd60e51b8152600401610c31906151f2565b60405180910390fd5b80610c448161521d565b915050610b71565b5050565b60de8181548110610c6057600080fd5b6000918252602090912001546001600160a01b0316905081565b60d88181548110610c6057600080fd5b6000610c9760cc546131ed565b905090565b610ca4613193565b60405133904780156108fc02916000818181858888f19350505050158015610cd0573d6000803e3d6000fd5b50565b6001600160a01b037f0000000000000000000000000000000000000000000000000000000000000000163003610d1b5760405162461bcd60e51b8152600401610c319061523c565b7f00000000000000000000000000000000000000000000000000000000000000006001600160a01b0316610d646000805160206155c0833981519152546001600160a01b031690565b6001600160a01b031614610d8a5760405162461bcd60e51b8152600401610c3190615288565b610d9381613283565b60408051600080825260208201909252610cd09183919061328b565b610db7613193565b60cc55565b60005b60de5460ff82161015610b695760de8160ff1681548110610de257610de26151b3565b6000918252602090912001546001600160a01b0316330361101b5760005b63ffffffff811683111561101557600060db600086868563ffffffff16818110610e2c57610e2c6151b3565b9050602002016020810190610e419190614d2a565b63ffffffff1681526020810191909152604001600090812060cb5490925062010000900460ff16905b8160ff168163ffffffff161015610fff57600583015463ffffffff908116600081815260db60205260408120865492939092169003610eaa575050610fff565b8060070189898863ffffffff16818110610ec657610ec66151b3565b9050602002016020810190610edb9190614d2a565b815460018082018455600093845260209093206008808304909101805460079093166004026101000a63ffffffff818102199094169490931692909202929092179055820190610f2c9085906152d4565b8154600181018355600092835260209092206008830401805460079093166004026101000a63ffffffff8181021990941692841602919091179055899089908816818110610f7c57610f7c6151b3565b9050602002016020810190610f919190614d2a565b6002820154825460405163ffffffff9182168152928116929085169161010090046001600160a01b0316907fa7fafc728ec30e34dc1e1276496bf3eb44ca7494679da969455289e6a8f0f1f69060200160405180910390a49350819050610ff7816152f8565b915050610e6a565b505050808061100d906152f8565b915050610e00565b50505050565b60de5461102a906001906151df565b8160ff160361107c5760de8160ff1681548110611049576110496151b3565b6000918252602090912001546001600160a01b0316331461107c5760405162461bcd60e51b8152600401610c31906151f2565b806110868161521d565b915050610dbf565b6001600160a01b037f00000000000000000000000000000000000000000000000000000000000000001630036110d65760405162461bcd60e51b8152600401610c319061523c565b7f00000000000000000000000000000000000000000000000000000000000000006001600160a01b031661111f6000805160206155c0833981519152546001600160a01b031690565b6001600160a01b0316146111455760405162461bcd60e51b8152600401610c3190615288565b61114e82613283565b610c4c8282600161328b565b6000306001600160a01b037f000000000000000000000000000000000000000000000000000000000000000016146111fa5760405162461bcd60e51b815260206004820152603860248201527f555550535570677261646561626c653a206d757374206e6f742062652063616c60448201527f6c6564207468726f7567682064656c656761746563616c6c00000000000000006064820152608401610c31565b506000805160206155c083398151915290565b611215613193565b60de80546001810182556000919091527ffae8130c0619f84b4b44f01b84806f04e82e536d70e05f2356977fa318aecc1a0180546001600160a01b0319166001600160a01b0392909216919091179055565b60005b60de5460ff82161015610c4c5760de8160ff168154811061128d5761128d6151b3565b6000918252602090912001546001600160a01b031633036112cd5760d1805463ffffffff8416600160201b0267ffffffff00000000199091161790555050565b60de546112dc906001906151df565b8160ff160361132e5760de8160ff16815481106112fb576112fb6151b3565b6000918252602090912001546001600160a01b0316331461132e5760405162461bcd60e51b8152600401610c31906151f2565b806113388161521d565b91505061126a565b611348613193565b61135260006133f6565b565b60ca818154811061136457600080fd5b9060005260206000209060109182820401919006600202915054906101000a900461ffff1681565b600054610100900460ff16158080156113ac5750600054600160ff909116105b806113c65750303b1580156113c6575060005460ff166001145b6114295760405162461bcd60e51b815260206004820152602e60248201527f496e697469616c697a61626c653a20636f6e747261637420697320616c72656160448201526d191e481a5b9a5d1a585b1a5e995960921b6064820152608401610c31565b6000805460ff19166001179055801561144c576000805461ff0019166101001790555b60c980546001600160a01b03191673286d6392042b4d7180fd6d20f8d35c877681577417905560cb805461ffff19166103e8179055604080516103a08101825260648152604660208201526032918101829052606081018290526080810182905260a0810182905260c0810182905260e08101829052610100810182905261012081018290526101408101829052610160810182905261018081018290526101a081018290526101c081018290526101e08101829052610200810182905261022081018290526102408101919091526014610260820181905261028082018190526102a082018190526102c082018190526102e0820181905261030082018190526103208201819052610340820181905261036082018190526103808201526115799060ca90601d6149dc565b5060cb805462ff0000191662320000179055670de0b6b3a764000060cc5560d4805463ff00ffff1916630200000117905560d1805461ffff60601b1916607d60631b17905563020f580060d2556201518060d35562278d0060d7556115dc613448565b6115e4613477565b8015610cd0576000805461ff0019169055604051600181527f7f26b83ff96e1f2b6a682f133852f6798a09c465da95921460cefb38474024989060200160405180910390a150565b60005b60de5460ff82161015610c4c5760de8160ff1681548110611652576116526151b3565b6000918252602090912001546001600160a01b031633036116d55760d8805460018181019092557f5320ad99a619a90804cd2efe3a5cf0ac1ac5c41ad9ff2c61cf699efdad7710960180546001600160a01b0385166001600160a01b03199091168117909155600090815260da60205260409020805460ff191690911790555050565b60de546116e4906001906151df565b8160ff16036117365760de8160ff1681548110611703576117036151b3565b6000918252602090912001546001600160a01b031633146117365760405162461bcd60e51b8152600401610c31906151f2565b806117408161521d565b91505061162f565b611750613193565b60405163a9059cbb60e01b8152336004820152602481018290526001600160a01b0383169063a9059cbb906044016020604051808303816000875af115801561179d573d6000803e3d6000fd5b505050506040513d601f19601f82011682018060405250810190610b69919061531b565b63ffffffff808216600090815260db602090815260408083208151610400810190925280549094168152600184018054939485949293909290840191906118079061533d565b80601f01602080910402602001604051908101604052809291908181526020018280546118339061533d565b80156118805780601f1061185557610100808354040283529160200191611880565b820191906000526020600020905b81548152906001019060200180831161186357829003601f168201915b5050509183525050600282015460ff811615156020808401919091526101009091046001600160a01b03166040808401919091526003840154606084015260048401546080840152600584015463ffffffff1660a084015260068401805482518185028101850190935280835260c090940193919290919083018282801561195357602002820191906000526020600020906000905b82829054906101000a900463ffffffff1663ffffffff16815260200190600401906020826003010492830192600103820291508084116119165790505b50505050508152602001600782018054806020026020016040519081016040528092919081815260200182805480156119d757602002820191906000526020600020906000905b82829054906101000a900463ffffffff1663ffffffff168152602001906004019060208260030104928301926001038202915080841161199a5790505b5050505050815260200160088201805480602002602001604051908101604052809291908181526020018280548015611a5b57602002820191906000526020600020906000905b82829054906101000a900463ffffffff1663ffffffff1681526020019060040190602082600301049283019260010382029150808411611a1e5790505b5050505050815260200160098201548152602001600a8201548152602001600b8201548152602001600c8201548152602001600d8201548152602001600e8201548152602001600f8201548152602001601082015481526020016011820160009054906101000a900460ff1660ff1660ff1681526020016012820154815260200160138201548152602001601482015481526020016015820154815260200160168201548152602001601782015481526020016018820154815260200160198201548152602001601a8201548152602001601b8201805480602002602001604051908101604052809291908181526020018280548015611ba657602002820191906000526020600020906000905b82829054906101000a900463ffffffff1663ffffffff1681526020019060040190602082600301049283019260010382029150808411611b695790505b50505050508152602001601c8201548152602001601d8201548152602001601e820154815250509050611bd88161349e565b9392505050565b6000611bea826134da565b92915050565b60005b60de5460ff82161015610b695760de8160ff1681548110611c1657611c166151b3565b6000918252602090912001546001600160a01b03163303611ced57825b8263ffffffff168163ffffffff1610156110155763ffffffff8116600090815260db602090815260408083206019810184905560d1805463ffffffff60401b1916905560dc835281842060038101859055805464ff000000001916815560018101859055601d8201859055805468ffffffff00000000001916815560028101805461ffff191690558251948552928401918290529251611cd791601b850191614a84565b5050508080611ce5906152f8565b915050611c33565b60de54611cfc906001906151df565b8160ff1603611d4e5760de8160ff1681548110611d1b57611d1b6151b3565b6000918252602090912001546001600160a01b03163314611d4e5760405162461bcd60e51b8152600401610c31906151f2565b80611d588161521d565b915050611bf3565b60005b60de5460ff82161015611eaf5760de8160ff1681548110611d8657611d866151b3565b6000918252602090912001546001600160a01b03163303611e3c5760005b61ffff8116851115611e3657600060db600088888561ffff16818110611dcc57611dcc6151b3565b9050602002016020810190611de19190614d2a565b63ffffffff1663ffffffff168152602001908152602001600020905084848361ffff16818110611e1357611e136151b3565b905060200201358160030181905550508080611e2e90615377565b915050611da4565b50611eaf565b60de54611e4b906001906151df565b8160ff1603611e9d5760de8160ff1681548110611e6a57611e6a6151b3565b6000918252602090912001546001600160a01b03163314611e9d5760405162461bcd60e51b8152600401610c31906151f2565b80611ea78161521d565b915050611d63565b5050505050565b60005b60de5460ff821610156110155760de8160ff1681548110611edc57611edc6151b3565b6000918252602090912001546001600160a01b03163303611f2b5760d1805461ffff60601b1916600160601b61ffff871602179055611f1e836201518061538e565b60d25560d3829055611015565b60de54611f3a906001906151df565b8160ff1603611f8c5760de8160ff1681548110611f5957611f596151b3565b6000918252602090912001546001600160a01b03163314611f8c5760405162461bcd60e51b8152600401610c31906151f2565b80611f968161521d565b915050611eb9565b60005b60de5460ff82161015610c4c5760de8160ff1681548110611fc457611fc46151b3565b6000918252602090912001546001600160a01b031633036120035760d1805463ffffffff8416600160401b0263ffffffff60401b199091161790555050565b60de54612012906001906151df565b8160ff16036120645760de8160ff1681548110612031576120316151b3565b6000918252602090912001546001600160a01b031633146120645760405162461bcd60e51b8152600401610c31906151f2565b8061206e8161521d565b915050611fa1565b60005b60de5460ff82161015610c4c5760de8160ff168154811061209c5761209c6151b3565b6000918252602090912001546001600160a01b031633036121065760005b828161ffff161015610b695761ffff8116600090815260dc60205260408120805468ffffffffff00000000191681556003810182905560010155806120fe81615377565b9150506120ba565b60de54612115906001906151df565b8160ff16036121675760de8160ff1681548110612134576121346151b3565b6000918252602090912001546001600160a01b031633146121675760405162461bcd60e51b8152600401610c31906151f2565b806121718161521d565b915050612079565b60005b60de5460ff82161015610c4c5760de8160ff168154811061219f5761219f6151b3565b6000918252602090912001546001600160a01b031633036122db576001600160a01b038216600090815260da60205260408120805460ff1916905560d854905b8181101561101557836001600160a01b031660d88281548110612204576122046151b3565b6000918252602090912001546001600160a01b0316036122c95760d861222b6001846151df565b8154811061223b5761223b6151b3565b60009182526020909120015460d880546001600160a01b039092169183908110612267576122676151b3565b9060005260206000200160006101000a8154816001600160a01b0302191690836001600160a01b0316021790555060d88054806122a6576122a66153a5565b600082815260209020810160001990810180546001600160a01b03191690550190555b806122d3816153bb565b9150506121df565b60de546122ea906001906151df565b8160ff160361233c5760de8160ff1681548110612309576123096151b3565b6000918252602090912001546001600160a01b0316331461233c5760405162461bcd60e51b8152600401610c31906151f2565b806123468161521d565b91505061217c565b34600061235a82613a1a565b905061236760cc546131ed565b8210156123b65760405162461bcd60e51b815260206004820152601f60248201527f56616c75652073686f756c6420626520677265617465207468656e20313030006044820152606401610c31565b60d154339042906000906123d890600160201b900463ffffffff1660016152d4565b60d1549091506000906123f990600160401b900463ffffffff1660016152d4565b6001600160a01b038516600090815260da6020526040902060d4549192509060ff161561242c5761242c83838887613aa7565b61247383604051806020016040528060008152508a60405180602001604052806000815250898b8c6003612460919061538e565b60cb548c9062010000900460ff16613b9e565b6001908101805491820181556000908152602090206008820401805460079092166004026101000a63ffffffff81810219909316949092169190910292909217909155505050505050565b63ffffffff8116600090815260db60209081526040808320601b018054825181850281018501909352808352849383018282801561254757602002820191906000526020600020906000905b82829054906101000a900463ffffffff1663ffffffff168152602001906004019060208260030104928301926001038202915080841161250a5790505b505050505090506000805b82518161ffff1610156125db57600060dc6000858461ffff168151811061257b5761257b6151b3565b602002602001015163ffffffff1663ffffffff16815260200190815260200160002090508060000160049054906101000a900460ff16156125c85760018101546125c590846153d4565b92505b50806125d381615377565b915050612552565b509392505050565b60005b60de5460ff821610156128a65760de8160ff1681548110612609576126096151b3565b6000918252602090912001546001600160a01b031633036128335742875b8763ffffffff168163ffffffff16101561282c5763ffffffff8116600090815260db6020526040812060d25490919087876126636001876153e7565b63ffffffff16818110612678576126786151b3565b9050602002013561268991906153d4565b90506000826015015411801561269e57508084105b80156126bc575060158201546126b590600261538e565b8260160154105b156128175786868463ffffffff168181106126d9576126d96151b3565b602002919091013560198401555060d18054600091600160401b90910463ffffffff16906008612708836152f8565b82546101009290920a63ffffffff8181021990931691831602179091558116600090815260dc60205260409020600381018790558054600160201b64ff00000000199091161781559091508a8a6127606001886153e7565b63ffffffff16818110612775576127756151b3565b60209081029290920135600180850191909155601d8701899055835463ffffffff808a16650100000000000268ffffffff00000000001990921691909117855560d1546002909501805461ffff191661ffff600160601b9097049690961695909517909455601b8701805491820181556000908152929092206008830401805494841660046007909416939093026101000a9283029290930219909316179055505b50508080612824906152f8565b915050612627565b50506128a6565b60de54612842906001906151df565b8160ff16036128945760de8160ff1681548110612861576128616151b3565b6000918252602090912001546001600160a01b031633146128945760405162461bcd60e51b8152600401610c31906151f2565b8061289e8161521d565b9150506125e6565b50505050505050565b6128b7613193565b6001600160a01b03811661291c5760405162461bcd60e51b815260206004820152602660248201527f4f776e61626c653a206e6577206f776e657220697320746865207a65726f206160448201526564647265737360d01b6064820152608401610c31565b610cd0816133f6565b63ffffffff8216600090815260db60205260409020600281015461010090046001600160a01b0316331461299b5760405162461bcd60e51b815260206004820152601d60248201527f596f7520617265206e6f74206f776e6572206f6620746869732069642e0000006044820152606401610c31565b60006129a682613e75565b601e8301549091506129b881836151df565b841115612a1a5760405162461bcd60e51b815260206004820152602a60248201527f506c6561736520656e7465722076616c7565206c657373207468656e20796f7560448201526939103130b630b731b29760b11b6064820152608401610c31565b8383601e016000828254612a2e91906153d4565b909155503390506108fc612a41866131ed565b6040518115909202916000818181858888f19350505050158015612a69573d6000803e3d6000fd5b505050505050565b612b7b604051806104000160405280600063ffffffff1681526020016060815260200160001515815260200160006001600160a01b031681526020016000815260200160008152602001600063ffffffff1681526020016060815260200160608152602001606081526020016000815260200160008152602001600081526020016000815260200160008152602001600081526020016000815260200160008152602001600060ff168152602001600081526020016000815260200160008152602001600081526020016000815260200160008152602001600081526020016000815260200160008152602001606081526020016000815260200160008152602001600081525090565b63ffffffff808316600090815260db6020908152604091829020825161040081019093528054909316825260018301805492939291840191612bbc9061533d565b80601f0160208091040260200160405190810160405280929190818152602001828054612be89061533d565b8015612c355780601f10612c0a57610100808354040283529160200191612c35565b820191906000526020600020905b815481529060010190602001808311612c1857829003601f168201915b5050509183525050600282015460ff811615156020808401919091526101009091046001600160a01b03166040808401919091526003840154606084015260048401546080840152600584015463ffffffff1660a084015260068401805482518185028101850190935280835260c0909401939192909190830182828015612d0857602002820191906000526020600020906000905b82829054906101000a900463ffffffff1663ffffffff1681526020019060040190602082600301049283019260010382029150808411612ccb5790505b5050505050815260200160078201805480602002602001604051908101604052809291908181526020018280548015612d8c57602002820191906000526020600020906000905b82829054906101000a900463ffffffff1663ffffffff1681526020019060040190602082600301049283019260010382029150808411612d4f5790505b5050505050815260200160088201805480602002602001604051908101604052809291908181526020018280548015612e1057602002820191906000526020600020906000905b82829054906101000a900463ffffffff1663ffffffff1681526020019060040190602082600301049283019260010382029150808411612dd35790505b5050505050815260200160098201548152602001600a8201548152602001600b8201548152602001600c8201548152602001600d8201548152602001600e8201548152602001600f8201548152602001601082015481526020016011820160009054906101000a900460ff1660ff1660ff1681526020016012820154815260200160138201548152602001601482015481526020016015820154815260200160168201548152602001601782015481526020016018820154815260200160198201548152602001601a8201548152602001601b8201805480602002602001604051908101604052809291908181526020018280548015612f5b57602002820191906000526020600020906000905b82829054906101000a900463ffffffff1663ffffffff1681526020019060040190602082600301049283019260010382029150808411612f1e5790505b50505050508152602001601c8201548152602001601d8201548152602001601e820154815250509050919050565b6040805180820190915260008152606060208201526001600160a01b038216600090815260da602090815260409182902082518084018452815460ff16151581526001820180548551818602810186019096528086529194929385810193929083018282801561304457602002820191906000526020600020906000905b82829054906101000a900463ffffffff1663ffffffff16815260200190600401906020826003010492830192600103820291508084116130075790505b5050505050815250509050919050565b60cc543490613062906131ed565b8110156130c55760405162461bcd60e51b815260206004820152602b60248201527f56616c75652073686f756c6420626520677265617465207468656e206d696e4360448201526a37b73a3934b13aba34b7b760a91b6064820152608401610c31565b3360006130d183613a1a565b60d15490915042906000906130f490600160401b900463ffffffff1660016152d4565b63ffffffff8716600090815260db602052604090206002810154919250906001600160a01b0386811661010090920416146131715760405162461bcd60e51b815260206004820152601d60248201527f596f7520617265206e6f74206f776e6572206f6620746869732069642e0000006044820152606401610c31565b60d45460ff16156131885761318887838686613aa7565b6128a6878585613e99565b6033546001600160a01b031633146113525760405162461bcd60e51b815260206004820181905260248201527f4f776e61626c653a2063616c6c6572206973206e6f7420746865206f776e65726044820152606401610c31565b60008060c960009054906101000a90046001600160a01b03166001600160a01b031663801dff416040518163ffffffff1660e01b8152600401602060405180830381865afa158015613243573d6000803e3d6000fd5b505050506040513d601f19601f820116820180604052508101906132679190615404565b61327984670de0b6b3a764000061538e565b611bd8919061541d565b610cd0613193565b7f4910fdfa16fed3260ed0e7147f7cc6da11a60208b5b9406d12a635614ffd91435460ff16156132be57610b6983613fb5565b826001600160a01b03166352d1902d6040518163ffffffff1660e01b8152600401602060405180830381865afa925050508015613318575060408051601f3d908101601f1916820190925261331591810190615404565b60015b61337b5760405162461bcd60e51b815260206004820152602e60248201527f45524331393637557067726164653a206e657720696d706c656d656e7461746960448201526d6f6e206973206e6f74205555505360901b6064820152608401610c31565b6000805160206155c083398151915281146133ea5760405162461bcd60e51b815260206004820152602960248201527f45524331393637557067726164653a20756e737570706f727465642070726f786044820152681a58589b195555525160ba1b6064820152608401610c31565b50610b69838383614051565b603380546001600160a01b038381166001600160a01b0319831681179093556040519116919082907f8be0079c531659141344cd1fd0a4f28419497f9722a3daafe3b4186f6b6457e090600090a35050565b600054610100900460ff1661346f5760405162461bcd60e51b8152600401610c319061543f565b611352614076565b600054610100900460ff166113525760405162461bcd60e51b8152600401610c319061543f565b60e081015151600090818115611bd85760d4546001906134c8906301000000900460ff168461538e565b6134d291906151df565b949350505050565b63ffffffff808216600090815260db602090815260408083208151610400810190925280549094168152600184018054939485949293909290840191906135209061533d565b80601f016020809104026020016040519081016040528092919081815260200182805461354c9061533d565b80156135995780601f1061356e57610100808354040283529160200191613599565b820191906000526020600020905b81548152906001019060200180831161357c57829003601f168201915b5050509183525050600282015460ff811615156020808401919091526101009091046001600160a01b03166040808401919091526003840154606084015260048401546080840152600584015463ffffffff1660a084015260068401805482518185028101850190935280835260c090940193919290919083018282801561366c57602002820191906000526020600020906000905b82829054906101000a900463ffffffff1663ffffffff168152602001906004019060208260030104928301926001038202915080841161362f5790505b50505050508152602001600782018054806020026020016040519081016040528092919081815260200182805480156136f057602002820191906000526020600020906000905b82829054906101000a900463ffffffff1663ffffffff16815260200190600401906020826003010492830192600103820291508084116136b35790505b505050505081526020016008820180548060200260200160405190810160405280929190818152602001828054801561377457602002820191906000526020600020906000905b82829054906101000a900463ffffffff1663ffffffff16815260200190600401906020826003010492830192600103820291508084116137375790505b5050505050815260200160098201548152602001600a8201548152602001600b8201548152602001600c8201548152602001600d8201548152602001600e8201548152602001600f8201548152602001601082015481526020016011820160009054906101000a900460ff1660ff1660ff1681526020016012820154815260200160138201548152602001601482015481526020016015820154815260200160168201548152602001601782015481526020016018820154815260200160198201548152602001601a8201548152602001601b82018054806020026020016040519081016040528092919081815260200182805480156138bf57602002820191906000526020600020906000905b82829054906101000a900463ffffffff1663ffffffff16815260200190600401906020826003010492830192600103820291508084116138825790505b5050509183525050601c8201546020820152601d8201546040820152601e9091015460609091015261038081015180516102c0830151929350909161390590600261538e565b836102e001511080156139185750600081115b15613a0d5760005b818161ffff161015613a0757600060dc6000858461ffff1681518110613948576139486151b3565b602002602001015163ffffffff1663ffffffff16815260200190815260200160002090508060000160049054906101000a900460ff16156139f45760cb5460d154600183015460009261ffff908116926139ad92600160601b9091049091169061538e565b6139b7919061541d565b905060008260030154426139cb91906151df565b9050620151806139db828461538e565b6139e5919061541d565b6139ef90896153d4565b975050505b50806139ff81615377565b915050613920565b50613a12565b600093505b505050919050565b600080670de0b6b3a764000060c960009054906101000a90046001600160a01b03166001600160a01b031663801dff416040518163ffffffff1660e01b8152600401602060405180830381865afa158015613a79573d6000803e3d6000fd5b505050506040513d601f19601f82011682018060405250810190613a9d9190615404565b613279908561538e565b63ffffffff808416600081815260dc6020908152604080832089861680855260db845291842081546501000000000090930268ffffffffff000000001990931692909217600160201b178155600180820189905560d1805460028401805461ffff191661ffff600160601b9093049290921691909117905560038301899055601b8401805492830181558652939094206008808604909101805460079096166004026101000a9687029688021990951695909517909355815492949093600160401b9093041691613b77836152f8565b91906101000a81548163ffffffff021916908363ffffffff16021790555050505050505050565b63ffffffff898116600081815260db60205260408120805463ffffffff199081169093178155600581018054909316938b1693909317909155600282018054610100600160a81b0319166101006001600160a01b038a1602179055600382018490556019820184905560178201859055600982018054879290613c229084906153d4565b909155505060018101613c358a826154d0565b5060005b8260ff168160ff161015613e2c57600582015463ffffffff908116600081815260db60205260408120805492939092169003613c76575050613e2c565b8260ff16600003613cff578781600b016000828254613c9591906153d4565b92505081905550806006018d90806001815401808255809150506001900390600052602060002090600891828204019190066004029091909190916101000a81548163ffffffff021916908363ffffffff16021790555089816001019081613cfd91906154d0565b505b8781600d016000828254613d1391906153d4565b92505081905550806007018d90806001815401808255809150506001900390600052602060002090600891828204019190066004029091909190916101000a81548163ffffffff021916908363ffffffff1602179055508c63ffffffff168b63ffffffff168260020160019054906101000a90046001600160a01b03166001600160a01b03167fa7fafc728ec30e34dc1e1276496bf3eb44ca7494679da969455289e6a8f0f1f68760050160009054906101000a900463ffffffff16604051613de8919063ffffffff91909116815260200190565b60405180910390a460d454610100900460ff1615613e0c57613e0c81838a896140a6565b613e16888761474a565b9250819050613e248161521d565b915050613c39565b5060d18054600160201b900463ffffffff16906004613e4a836152f8565b91906101000a81548163ffffffff021916908363ffffffff1602179055505050505050505050505050565b6000816017015482601601541015613e91578160160154611bea565b506017015490565b60cb5463ffffffff8416600090815260db602052604090206201000090910460ff1690613ec784600261538e565b816017018190555083816009016000828254613ee391906153d4565b9250508190555083816015016000828254613efe91906153d4565b90915550600090505b82811015612a6957600582015463ffffffff908116600081815260db60205260408120805492939092169003613f3e575050612a69565b82600003613f60578681600b016000828254613f5a91906153d4565b90915550505b8681600d016000828254613f7491906153d4565b909155505060d454610100900460ff1615613f9557613f95818389896140a6565b613f9f878761474a565b9250819050613fad816153bb565b915050613f07565b6001600160a01b0381163b6140225760405162461bcd60e51b815260206004820152602d60248201527f455243313936373a206e657720696d706c656d656e746174696f6e206973206e60448201526c1bdd08184818dbdb9d1c9858dd609a1b6064820152608401610c31565b6000805160206155c083398151915280546001600160a01b0319166001600160a01b0392909216919091179055565b61405a83614784565b6000825111806140675750805b15610b695761101583836147c4565b600054610100900460ff1661409d5760405162461bcd60e51b8152600401610c319061543f565b611352336133f6565b6011840154604080516104008101909152855463ffffffff16815260018601805460ff909316926144ae929188916020840191906140e39061533d565b80601f016020809104026020016040519081016040528092919081815260200182805461410f9061533d565b801561415c5780601f106141315761010080835404028352916020019161415c565b820191906000526020600020905b81548152906001019060200180831161413f57829003601f168201915b5050509183525050600282015460ff811615156020808401919091526101009091046001600160a01b03166040808401919091526003840154606084015260048401546080840152600584015463ffffffff1660a084015260068401805482518185028101850190935280835260c090940193919290919083018282801561422f57602002820191906000526020600020906000905b82829054906101000a900463ffffffff1663ffffffff16815260200190600401906020826003010492830192600103820291508084116141f25790505b50505050508152602001600782018054806020026020016040519081016040528092919081815260200182805480156142b357602002820191906000526020600020906000905b82829054906101000a900463ffffffff1663ffffffff16815260200190600401906020826003010492830192600103820291508084116142765790505b505050505081526020016008820180548060200260200160405190810160405280929190818152602001828054801561433757602002820191906000526020600020906000905b82829054906101000a900463ffffffff1663ffffffff16815260200190600401906020826003010492830192600103820291508084116142fa5790505b5050505050815260200160098201548152602001600a8201548152602001600b8201548152602001600c8201548152602001600d8201548152602001600e8201548152602001600f8201548152602001601082015481526020016011820160009054906101000a900460ff1660ff1660ff1681526020016012820154815260200160138201548152602001601482015481526020016015820154815260200160168201548152602001601782015481526020016018820154815260200160198201548152602001601a8201548152602001601b820180548060200260200160405190810160405280929190818152602001828054801561448257602002820191906000526020600020906000905b82829054906101000a900463ffffffff1663ffffffff16815260200190600401906020826003010492830192600103820291508084116144455790505b50505050508152602001601c8201548152602001601d8201548152602001601e820154815250506148b8565b60ff16111561101557604080516104008101909152845463ffffffff1681526001850180546144e9929187916020840191906140e39061533d565b60118501805460ff191660ff9283169081178255600090815260dd6020908152604080832060099081018054600181810183559186529385206008850401805460079095166004026101000a63ffffffff81810219909616958c16029490941790935593549094168252929020015461456291906151df565b6012850181905560118501546040805163ffffffff87168152602081019390935260ff90911682820152517fb0d3a9c683344e744a1ae3db383f75a8a01851282c5fe97d6159c1392a2e2a0a9181900360600190a1604080516104008101909152845463ffffffff16815260018501805460dd926000926145ed92899160208401916140e39061533d565b60ff9081168252602082019290925260400160002060080154610100900416156146b157604080516104008101909152845463ffffffff16815260018501805460dd9260009261464792899160208401916140e39061533d565b60ff1660ff16815260200190815260200160002060070154846010015461466e91906153d4565b81111561469d578084601001819055508184600f01600082825461469291906153d4565b909155506110159050565b8184600f01600082825461469291906153d4565b60d454610100900460ff161561101557601184015460ff16600090815260dd60205260409020600501546146e6908590614966565b601184015460ff908116600090815260dd602090815260409182902060058101549054925192909316825263ffffffff8616917f94b6d3d19cc40938e685ef6a1f6476b53ef65295ab094a044e74405a8d0bd05b910160405180910390a350505050565b60d75460d65461475a91906153d4565b8111156147695760d65560d555565b8160d5600082825461477b91906153d4565b90915550505050565b61478d81613fb5565b6040516001600160a01b038216907fbc7cd75a20ee27fd9adebab32041f755214dbc6bffa90cc0225b39da2e5c2d3b90600090a250565b60606001600160a01b0383163b61482c5760405162461bcd60e51b815260206004820152602660248201527f416464726573733a2064656c65676174652063616c6c20746f206e6f6e2d636f6044820152651b9d1c9858dd60d21b6064820152608401610c31565b600080846001600160a01b0316846040516148479190615590565b600060405180830381855af49150503d8060008114614882576040519150601f19603f3d011682016040523d82523d6000602084013e614887565b606091505b50915091506148af82826040518060600160405280602781526020016155e06027913961499e565b95945050505050565b60d95460009060ff16815b8160ff168160ff16101561495f5760ff8116600090815260dd602052604090206001015461014085015110801590614915575060ff8116600090815260dd602052604090206002015461018085015110155b801561493b575060ff8116600090815260dd60205260409020600301546101c085015110155b156149485780925061494d565b61495f565b806149578161521d565b9150506148c3565b5050919050565b816017015481836016015461497b91906153d4565b1061498e57601782015460168301555050565b808260160154610b6991906153d4565b606083156149ad575081611bd8565b611bd883838151156149c25781518083602001fd5b8060405162461bcd60e51b8152600401610c3191906155ac565b82805482825590600052602060002090600f01601090048101928215614a745791602002820160005b83821115614a4457835183826101000a81548161ffff021916908360ff1602179055509260200192600201602081600101049283019260010302614a05565b8015614a725782816101000a81549061ffff0219169055600201602081600101049283019260010302614a44565b505b50614a80929150614b21565b5090565b82805482825590600052602060002090600701600890048101928215614a745791602002820160005b83821115614af157835183826101000a81548163ffffffff021916908363ffffffff1602179055509260200192600401602081600301049283019260010302614aad565b8015614a725782816101000a81549063ffffffff0219169055600401602081600301049283019260010302614af1565b5b80821115614a805760008155600101614b22565b80356001600160a01b0381168114614b4d57600080fd5b919050565b60008060408385031215614b6557600080fd5b614b6e83614b36565b946020939093013593505050565b600060208284031215614b8e57600080fd5b611bd882614b36565b600060208284031215614ba957600080fd5b5035919050565b60008083601f840112614bc257600080fd5b50813567ffffffffffffffff811115614bda57600080fd5b6020830191508360208260051b8501011115614bf557600080fd5b9250929050565b60008060208385031215614c0f57600080fd5b823567ffffffffffffffff811115614c2657600080fd5b614c3285828601614bb0565b90969095509350505050565b634e487b7160e01b600052604160045260246000fd5b60008060408385031215614c6757600080fd5b614c7083614b36565b9150602083013567ffffffffffffffff80821115614c8d57600080fd5b818501915085601f830112614ca157600080fd5b813581811115614cb357614cb3614c3e565b604051601f8201601f19908116603f01168101908382118183101715614cdb57614cdb614c3e565b81604052828152886020848701011115614cf457600080fd5b8260208601602083013760006020848301015280955050505050509250929050565b803563ffffffff81168114614b4d57600080fd5b600060208284031215614d3c57600080fd5b611bd882614d16565b60008060408385031215614d5857600080fd5b614d6183614d16565b9150614d6f60208401614d16565b90509250929050565b60008060008060408587031215614d8e57600080fd5b843567ffffffffffffffff80821115614da657600080fd5b614db288838901614bb0565b90965094506020870135915080821115614dcb57600080fd5b50614dd887828801614bb0565b95989497509550505050565b600080600060608486031215614df957600080fd5b833561ffff81168114614e0b57600080fd5b95602085013595506040909401359392505050565b60008060008060008060808789031215614e3957600080fd5b614e4287614d16565b9550614e5060208801614d16565b9450604087013567ffffffffffffffff80821115614e6d57600080fd5b614e798a838b01614bb0565b90965094506060890135915080821115614e9257600080fd5b50614e9f89828a01614bb0565b979a9699509497509295939492505050565b60008060408385031215614ec457600080fd5b614b6e83614d16565b60005b83811015614ee8578181015183820152602001614ed0565b50506000910152565b60008151808452614f09816020860160208601614ecd565b601f01601f19169290920160200192915050565b600081518084526020808501945080840160005b83811015614f5357815163ffffffff1687529582019590820190600101614f31565b509495945050505050565b60208152614f7560208201835163ffffffff169052565b60006020830151610400806040850152614f93610420850183614ef1565b91506040850151614fa8606086018215159052565b5060608501516001600160a01b038116608086015250608085015160a085015260a085015160c085015260c0850151614fe960e086018263ffffffff169052565b5060e0850151601f196101008187860301818801526150088584614f1d565b9450808801519250506101208187860301818801526150278584614f1d565b9450808801519250506101408187860301818801526150468584614f1d565b9088015161016088810191909152880151610180808901919091528801516101a0808901919091528801516101c0808901919091528801516101e08089019190915288015161020080890191909152880151610220808901919091528801516102408089019190915288015190945091506102606150c88188018460ff169052565b870151610280878101919091528701516102a0808801919091528701516102c0808801919091528701516102e080880191909152870151610300808801919091528701516103208088019190915287015161034080880191909152870151610360808801919091528701516103808088019190915287015186850382016103a08089019190915290925061515c8584614f1d565b908801516103c0888101919091528801516103e08089019190915290970151929095019190915250929392505050565b60208152815115156020820152600060208301516040808401526134d26060840182614f1d565b634e487b7160e01b600052603260045260246000fd5b634e487b7160e01b600052601160045260246000fd5b81810381811115611bea57611bea6151c9565b6020808252601190820152702cb7ba9030b932903737ba1030b236b4b760791b604082015260600190565b600060ff821660ff8103615233576152336151c9565b60010192915050565b6020808252602c908201527f46756e6374696f6e206d7573742062652063616c6c6564207468726f7567682060408201526b19195b1959d85d1958d85b1b60a21b606082015260800190565b6020808252602c908201527f46756e6374696f6e206d7573742062652063616c6c6564207468726f7567682060408201526b6163746976652070726f787960a01b606082015260800190565b63ffffffff8181168382160190808211156152f1576152f16151c9565b5092915050565b600063ffffffff808316818103615311576153116151c9565b6001019392505050565b60006020828403121561532d57600080fd5b81518015158114611bd857600080fd5b600181811c9082168061535157607f821691505b60208210810361537157634e487b7160e01b600052602260045260246000fd5b50919050565b600061ffff808316818103615311576153116151c9565b8082028115828204841417611bea57611bea6151c9565b634e487b7160e01b600052603160045260246000fd5b6000600182016153cd576153cd6151c9565b5060010190565b80820180821115611bea57611bea6151c9565b63ffffffff8281168282160390808211156152f1576152f16151c9565b60006020828403121561541657600080fd5b5051919050565b60008261543a57634e487b7160e01b600052601260045260246000fd5b500490565b6020808252602b908201527f496e697469616c697a61626c653a20636f6e7472616374206973206e6f74206960408201526a6e697469616c697a696e6760a81b606082015260800190565b601f821115610b6957600081815260208120601f850160051c810160208610156154b15750805b601f850160051c820191505b81811015612a69578281556001016154bd565b815167ffffffffffffffff8111156154ea576154ea614c3e565b6154fe816154f8845461533d565b8461548a565b602080601f831160018114615533576000841561551b5750858301515b600019600386901b1c1916600185901b178555612a69565b600085815260208120601f198616915b8281101561556257888601518255948401946001909101908401615543565b50858210156155805787850151600019600388901b60f8161c191681555b5050505050600190811b01905550565b600082516155a2818460208701614ecd565b9190910192915050565b602081526000611bd86020830184614ef156fe360894a13ba1a3210667c828492db98dca3e2076cc3735a920a3ca505d382bbc416464726573733a206c6f772d6c6576656c2064656c65676174652063616c6c206661696c6564a264697066735822122004745189ab99d5f34fdf86d34fd85efaa8a6aaa6ae0edd5c7e86dac5538bcf6564736f6c63430008110033","opcodes":"PUSH1 0xA0 PUSH1 0x40 MSTORE ADDRESS PUSH1 0x80 MSTORE CALLVALUE DUP1 ISZERO PUSH2 0x14 JUMPI PUSH1 0x0 DUP1 REVERT JUMPDEST POP PUSH1 0x80 MLOAD PUSH2 0x563C PUSH3 0x4D PUSH1 0x0 CODECOPY PUSH1 0x0 DUP2 DUP2 PUSH2 0xCDD ADD MSTORE DUP2 DUP2 PUSH2 0xD1D ADD MSTORE DUP2 DUP2 PUSH2 0x1098 ADD MSTORE DUP2 DUP2 PUSH2 0x10D8 ADD MSTORE PUSH2 0x1167 ADD MSTORE PUSH2 0x563C PUSH1 0x0 RETURN INVALID PUSH1 0x80 PUSH1 0x40 MSTORE PUSH1 0x4 CALLDATASIZE LT PUSH2 0x354 JUMPI PUSH1 0x0 CALLDATALOAD PUSH1 0xE0 SHR DUP1 PUSH4 0x852FF2FD GT PUSH2 0x1C6 JUMPI DUP1 PUSH4 0xC82801CA GT PUSH2 0xF7 JUMPI DUP1 PUSH4 0xF2FDE38B GT PUSH2 0x95 JUMPI DUP1 PUSH4 0xF830E57B GT PUSH2 0x6F JUMPI DUP1 PUSH4 0xF830E57B EQ PUSH2 0xA9F JUMPI DUP1 PUSH4 0xFAFC9597 EQ PUSH2 0xACC JUMPI DUP1 PUSH4 0xFB47E016 EQ PUSH2 0xAEB JUMPI DUP1 PUSH4 0xFF4EC1F1 EQ PUSH2 0xB18 JUMPI PUSH1 0x0 DUP1 REVERT JUMPDEST DUP1 PUSH4 0xF2FDE38B EQ PUSH2 0xA49 JUMPI DUP1 PUSH4 0xF31A2D0F EQ PUSH2 0xA69 JUMPI DUP1 PUSH4 0xF41BFEEF EQ PUSH2 0xA89 JUMPI PUSH1 0x0 DUP1 REVERT JUMPDEST DUP1 PUSH4 0xE52356F3 GT PUSH2 0xD1 JUMPI DUP1 PUSH4 0xE52356F3 EQ PUSH2 0x9D6 JUMPI DUP1 PUSH4 0xE5682E38 EQ PUSH2 0x9F6 JUMPI DUP1 PUSH4 0xEA62F715 EQ PUSH2 0xA09 JUMPI DUP1 PUSH4 0xEF2F824F EQ PUSH2 0xA29 JUMPI PUSH1 0x0 DUP1 REVERT JUMPDEST DUP1 PUSH4 0xC82801CA EQ PUSH2 0x976 JUMPI DUP1 PUSH4 0xD895AF2C EQ PUSH2 0x996 JUMPI DUP1 PUSH4 0xDA1E7C6E EQ PUSH2 0x9B6 JUMPI PUSH1 0x0 DUP1 REVERT JUMPDEST DUP1 PUSH4 0xAF2F39D1 GT PUSH2 0x164 JUMPI DUP1 PUSH4 0xBFF1F9E1 GT PUSH2 0x13E JUMPI DUP1 PUSH4 0xBFF1F9E1 EQ PUSH2 0x7F9 JUMPI DUP1 PUSH4 0xC3AB5EBF EQ PUSH2 0x816 JUMPI DUP1 PUSH4 0xC7464EA4 EQ PUSH2 0x936 JUMPI DUP1 PUSH4 0xC81EA216 EQ PUSH2 0x956 JUMPI PUSH1 0x0 DUP1 REVERT JUMPDEST DUP1 PUSH4 0xAF2F39D1 EQ PUSH2 0x79F JUMPI DUP1 PUSH4 0xB47181D3 EQ PUSH2 0x7B9 JUMPI DUP1 PUSH4 0xBF46DE63 EQ PUSH2 0x7D9 JUMPI PUSH1 0x0 DUP1 REVERT JUMPDEST DUP1 PUSH4 0x9F4E8398 GT PUSH2 0x1A0 JUMPI DUP1 PUSH4 0x9F4E8398 EQ PUSH2 0x71B JUMPI DUP1 PUSH4 0xA0B6105F EQ PUSH2 0x73B JUMPI DUP1 PUSH4 0xA1B80175 EQ PUSH2 0x75B JUMPI DUP1 PUSH4 0xA28A3686 EQ PUSH2 0x77F JUMPI PUSH1 0x0 DUP1 REVERT JUMPDEST DUP1 PUSH4 0x852FF2FD EQ PUSH2 0x6C7 JUMPI DUP1 PUSH4 0x8DA5CB5B EQ PUSH2 0x6DD JUMPI DUP1 PUSH4 0x8DF05D9C EQ PUSH2 0x6FB JUMPI PUSH1 0x0 DUP1 REVERT JUMPDEST DUP1 PUSH4 0x35759788 GT PUSH2 0x2A0 JUMPI DUP1 PUSH4 0x5E701D86 GT PUSH2 0x23E JUMPI DUP1 PUSH4 0x715018A6 GT PUSH2 0x218 JUMPI DUP1 PUSH4 0x715018A6 EQ PUSH2 0x667 JUMPI DUP1 PUSH4 0x7879B5EF EQ PUSH2 0x67C JUMPI DUP1 PUSH4 0x7C599486 EQ PUSH2 0x69C JUMPI DUP1 PUSH4 0x8129FC1C EQ PUSH2 0x6B2 JUMPI PUSH1 0x0 DUP1 REVERT JUMPDEST DUP1 PUSH4 0x5E701D86 EQ PUSH2 0x5EE JUMPI DUP1 PUSH4 0x704B6C02 EQ PUSH2 0x627 JUMPI DUP1 PUSH4 0x70D9E081 EQ PUSH2 0x647 JUMPI PUSH1 0x0 DUP1 REVERT JUMPDEST DUP1 PUSH4 0x49B32504 GT PUSH2 0x27A JUMPI DUP1 PUSH4 0x49B32504 EQ PUSH2 0x55D JUMPI DUP1 PUSH4 0x4F1EF286 EQ PUSH2 0x57D JUMPI DUP1 PUSH4 0x52D1902D EQ PUSH2 0x590 JUMPI DUP1 PUSH4 0x538FFE0C EQ PUSH2 0x5A5 JUMPI PUSH1 0x0 DUP1 REVERT JUMPDEST DUP1 PUSH4 0x35759788 EQ PUSH2 0x508 JUMPI DUP1 PUSH4 0x3659CFE6 EQ PUSH2 0x51D JUMPI DUP1 PUSH4 0x473B0D46 EQ PUSH2 0x53D JUMPI PUSH1 0x0 DUP1 REVERT JUMPDEST DUP1 PUSH4 0x1F7F83BA GT PUSH2 0x30D JUMPI DUP1 PUSH4 0x2913497B GT PUSH2 0x2E7 JUMPI DUP1 PUSH4 0x2913497B EQ PUSH2 0x490 JUMPI DUP1 PUSH4 0x2ED421D2 EQ PUSH2 0x4AE JUMPI DUP1 PUSH4 0x30ABBCC5 EQ PUSH2 0x4C4 JUMPI DUP1 PUSH4 0x313CE567 EQ PUSH2 0x4DA JUMPI PUSH1 0x0 DUP1 REVERT JUMPDEST DUP1 PUSH4 0x1F7F83BA EQ PUSH2 0x445 JUMPI DUP1 PUSH4 0x1F9E65E4 EQ PUSH2 0x465 JUMPI DUP1 PUSH4 0x22F88B52 EQ PUSH2 0x47A JUMPI PUSH1 0x0 DUP1 REVERT JUMPDEST DUP1 PUSH4 0x9DE82CD EQ PUSH2 0x360 JUMPI DUP1 PUSH4 0xB243DAD EQ PUSH2 0x389 JUMPI DUP1 PUSH4 0xEFDBB6A EQ PUSH2 0x3AB JUMPI DUP1 PUSH4 0x14BFD6D0 EQ PUSH2 0x3CB JUMPI DUP1 PUSH4 0x18E10BFF EQ PUSH2 0x403 JUMPI DUP1 PUSH4 0x1C961C05 EQ PUSH2 0x42F JUMPI PUSH1 0x0 DUP1 REVERT JUMPDEST CALLDATASIZE PUSH2 0x35B JUMPI STOP JUMPDEST PUSH1 0x0 DUP1 REVERT JUMPDEST CALLVALUE DUP1 ISZERO PUSH2 0x36C JUMPI PUSH1 0x0 DUP1 REVERT JUMPDEST POP PUSH2 0x376 PUSH1 0xCE SLOAD DUP2 JUMP JUMPDEST PUSH1 0x40 MLOAD SWAP1 DUP2 MSTORE PUSH1 0x20 ADD JUMPDEST PUSH1 0x40 MLOAD DUP1 SWAP2 SUB SWAP1 RETURN JUMPDEST CALLVALUE DUP1 ISZERO PUSH2 0x395 JUMPI PUSH1 0x0 DUP1 REVERT JUMPDEST POP PUSH2 0x3A9 PUSH2 0x3A4 CALLDATASIZE PUSH1 0x4 PUSH2 0x4B52 JUMP JUMPDEST PUSH2 0xB2B JUMP JUMPDEST STOP JUMPDEST CALLVALUE DUP1 ISZERO PUSH2 0x3B7 JUMPI PUSH1 0x0 DUP1 REVERT JUMPDEST POP PUSH2 0x3A9 PUSH2 0x3C6 CALLDATASIZE PUSH1 0x4 PUSH2 0x4B7C JUMP JUMPDEST PUSH2 0xB6E JUMP JUMPDEST CALLVALUE DUP1 ISZERO PUSH2 0x3D7 JUMPI PUSH1 0x0 DUP1 REVERT JUMPDEST POP PUSH2 0x3EB PUSH2 0x3E6 CALLDATASIZE PUSH1 0x4 PUSH2 0x4B97 JUMP JUMPDEST PUSH2 0xC50 JUMP JUMPDEST PUSH1 0x40 MLOAD PUSH1 0x1 PUSH1 0x1 PUSH1 0xA0 SHL SUB SWAP1 SWAP2 AND DUP2 MSTORE PUSH1 0x20 ADD PUSH2 0x380 JUMP JUMPDEST CALLVALUE DUP1 ISZERO PUSH2 0x40F JUMPI PUSH1 0x0 DUP1 REVERT JUMPDEST POP PUSH1 0xD9 SLOAD PUSH2 0x41D SWAP1 PUSH1 0xFF AND DUP2 JUMP JUMPDEST PUSH1 0x40 MLOAD PUSH1 0xFF SWAP1 SWAP2 AND DUP2 MSTORE PUSH1 0x20 ADD PUSH2 0x380 JUMP JUMPDEST CALLVALUE DUP1 ISZERO PUSH2 0x43B JUMPI PUSH1 0x0 DUP1 REVERT JUMPDEST POP PUSH2 0x376 PUSH1 0xCC SLOAD DUP2 JUMP JUMPDEST CALLVALUE DUP1 ISZERO PUSH2 0x451 JUMPI PUSH1 0x0 DUP1 REVERT JUMPDEST POP PUSH2 0x3EB PUSH2 0x460 CALLDATASIZE PUSH1 0x4 PUSH2 0x4B97 JUMP JUMPDEST PUSH2 0xC7A JUMP JUMPDEST CALLVALUE DUP1 ISZERO PUSH2 0x471 JUMPI PUSH1 0x0 DUP1 REVERT JUMPDEST POP PUSH2 0x376 PUSH2 0xC8A JUMP JUMPDEST CALLVALUE DUP1 ISZERO PUSH2 0x486 JUMPI PUSH1 0x0 DUP1 REVERT JUMPDEST POP PUSH2 0x376 PUSH1 0xD5 SLOAD DUP2 JUMP JUMPDEST CALLVALUE DUP1 ISZERO PUSH2 0x49C JUMPI PUSH1 0x0 DUP1 REVERT JUMPDEST POP PUSH1 0xC9 SLOAD PUSH1 0x1 PUSH1 0x1 PUSH1 0xA0 SHL SUB AND PUSH2 0x3EB JUMP JUMPDEST CALLVALUE DUP1 ISZERO PUSH2 0x4BA JUMPI PUSH1 0x0 DUP1 REVERT JUMPDEST POP PUSH2 0x376 PUSH1 0xD6 SLOAD DUP2 JUMP JUMPDEST CALLVALUE DUP1 ISZERO PUSH2 0x4D0 JUMPI PUSH1 0x0 DUP1 REVERT JUMPDEST POP PUSH2 0x376 PUSH1 0xD0 SLOAD DUP2 JUMP JUMPDEST CALLVALUE DUP1 ISZERO PUSH2 0x4E6 JUMPI PUSH1 0x0 DUP1 REVERT JUMPDEST POP PUSH1 0xCB SLOAD PUSH2 0x4F5 SWAP1 PUSH2 0xFFFF AND DUP2 JUMP JUMPDEST PUSH1 0x40 MLOAD PUSH2 0xFFFF SWAP1 SWAP2 AND DUP2 MSTORE PUSH1 0x20 ADD PUSH2 0x380 JUMP JUMPDEST CALLVALUE DUP1 ISZERO PUSH2 0x514 JUMPI PUSH1 0x0 DUP1 REVERT JUMPDEST POP PUSH2 0x3A9 PUSH2 0xC9C JUMP JUMPDEST CALLVALUE DUP1 ISZERO PUSH2 0x529 JUMPI PUSH1 0x0 DUP1 REVERT JUMPDEST POP PUSH2 0x3A9 PUSH2 0x538 CALLDATASIZE PUSH1 0x4 PUSH2 0x4B7C JUMP JUMPDEST PUSH2 0xCD3 JUMP JUMPDEST CALLVALUE DUP1 ISZERO PUSH2 0x549 JUMPI PUSH1 0x0 DUP1 REVERT JUMPDEST POP PUSH2 0x3A9 PUSH2 0x558 CALLDATASIZE PUSH1 0x4 PUSH2 0x4B97 JUMP JUMPDEST PUSH2 0xDAF JUMP JUMPDEST CALLVALUE DUP1 ISZERO PUSH2 0x569 JUMPI PUSH1 0x0 DUP1 REVERT JUMPDEST POP PUSH2 0x3A9 PUSH2 0x578 CALLDATASIZE PUSH1 0x4 PUSH2 0x4BFC JUMP JUMPDEST PUSH2 0xDBC JUMP JUMPDEST PUSH2 0x3A9 PUSH2 0x58B CALLDATASIZE PUSH1 0x4 PUSH2 0x4C54 JUMP JUMPDEST PUSH2 0x108E JUMP JUMPDEST CALLVALUE DUP1 ISZERO PUSH2 0x59C JUMPI PUSH1 0x0 DUP1 REVERT JUMPDEST POP PUSH2 0x376 PUSH2 0x115A JUMP JUMPDEST CALLVALUE DUP1 ISZERO PUSH2 0x5B1 JUMPI PUSH1 0x0 DUP1 REVERT JUMPDEST POP PUSH2 0x5DE PUSH2 0x5C0 CALLDATASIZE PUSH1 0x4 PUSH2 0x4B7C JUMP JUMPDEST PUSH1 0x1 PUSH1 0x1 PUSH1 0xA0 SHL SUB AND PUSH1 0x0 SWAP1 DUP2 MSTORE PUSH1 0xDA PUSH1 0x20 MSTORE PUSH1 0x40 SWAP1 KECCAK256 SLOAD PUSH1 0xFF AND SWAP1 JUMP JUMPDEST PUSH1 0x40 MLOAD SWAP1 ISZERO ISZERO DUP2 MSTORE PUSH1 0x20 ADD PUSH2 0x380 JUMP JUMPDEST CALLVALUE DUP1 ISZERO PUSH2 0x5FA JUMPI PUSH1 0x0 DUP1 REVERT JUMPDEST POP PUSH1 0xD1 SLOAD PUSH2 0x612 SWAP1 PUSH1 0x1 PUSH1 0x20 SHL SWAP1 DIV PUSH4 0xFFFFFFFF AND DUP2 JUMP JUMPDEST PUSH1 0x40 MLOAD PUSH4 0xFFFFFFFF SWAP1 SWAP2 AND DUP2 MSTORE PUSH1 0x20 ADD PUSH2 0x380 JUMP JUMPDEST CALLVALUE DUP1 ISZERO PUSH2 0x633 JUMPI PUSH1 0x0 DUP1 REVERT JUMPDEST POP PUSH2 0x3A9 PUSH2 0x642 CALLDATASIZE PUSH1 0x4 PUSH2 0x4B7C JUMP JUMPDEST PUSH2 0x120D JUMP JUMPDEST CALLVALUE DUP1 ISZERO PUSH2 0x653 JUMPI PUSH1 0x0 DUP1 REVERT JUMPDEST POP PUSH2 0x3A9 PUSH2 0x662 CALLDATASIZE PUSH1 0x4 PUSH2 0x4D2A JUMP JUMPDEST PUSH2 0x1267 JUMP JUMPDEST CALLVALUE DUP1 ISZERO PUSH2 0x673 JUMPI PUSH1 0x0 DUP1 REVERT JUMPDEST POP PUSH2 0x3A9 PUSH2 0x1340 JUMP JUMPDEST CALLVALUE DUP1 ISZERO PUSH2 0x688 JUMPI PUSH1 0x0 DUP1 REVERT JUMPDEST POP PUSH2 0x4F5 PUSH2 0x697 CALLDATASIZE PUSH1 0x4 PUSH2 0x4B97 JUMP JUMPDEST PUSH2 0x1354 JUMP JUMPDEST CALLVALUE DUP1 ISZERO PUSH2 0x6A8 JUMPI PUSH1 0x0 DUP1 REVERT JUMPDEST POP PUSH2 0x376 PUSH1 0xCF SLOAD DUP2 JUMP JUMPDEST CALLVALUE DUP1 ISZERO PUSH2 0x6BE JUMPI PUSH1 0x0 DUP1 REVERT JUMPDEST POP PUSH2 0x3A9 PUSH2 0x138C JUMP JUMPDEST CALLVALUE DUP1 ISZERO PUSH2 0x6D3 JUMPI PUSH1 0x0 DUP1 REVERT JUMPDEST POP PUSH2 0x376 PUSH1 0xCD SLOAD DUP2 JUMP JUMPDEST CALLVALUE DUP1 ISZERO PUSH2 0x6E9 JUMPI PUSH1 0x0 DUP1 REVERT JUMPDEST POP PUSH1 0x33 SLOAD PUSH1 0x1 PUSH1 0x1 PUSH1 0xA0 SHL SUB AND PUSH2 0x3EB JUMP JUMPDEST CALLVALUE DUP1 ISZERO PUSH2 0x707 JUMPI PUSH1 0x0 DUP1 REVERT JUMPDEST POP PUSH1 0xCB SLOAD PUSH2 0x41D SWAP1 PUSH3 0x10000 SWAP1 DIV PUSH1 0xFF AND DUP2 JUMP JUMPDEST CALLVALUE DUP1 ISZERO PUSH2 0x727 JUMPI PUSH1 0x0 DUP1 REVERT JUMPDEST POP PUSH2 0x3A9 PUSH2 0x736 CALLDATASIZE PUSH1 0x4 PUSH2 0x4B7C JUMP JUMPDEST PUSH2 0x162C JUMP JUMPDEST CALLVALUE DUP1 ISZERO PUSH2 0x747 JUMPI PUSH1 0x0 DUP1 REVERT JUMPDEST POP PUSH2 0x3A9 PUSH2 0x756 CALLDATASIZE PUSH1 0x4 PUSH2 0x4B52 JUMP JUMPDEST PUSH2 0x1748 JUMP JUMPDEST CALLVALUE DUP1 ISZERO PUSH2 0x767 JUMPI PUSH1 0x0 DUP1 REVERT JUMPDEST POP PUSH1 0xD1 SLOAD PUSH2 0x612 SWAP1 PUSH1 0x1 PUSH1 0x40 SHL SWAP1 DIV PUSH4 0xFFFFFFFF AND DUP2 JUMP JUMPDEST CALLVALUE DUP1 ISZERO PUSH2 0x78B JUMPI PUSH1 0x0 DUP1 REVERT JUMPDEST POP PUSH1 0xD4 SLOAD PUSH2 0x41D SWAP1 PUSH3 0x10000 SWAP1 DIV PUSH1 0xFF AND DUP2 JUMP JUMPDEST CALLVALUE DUP1 ISZERO PUSH2 0x7AB JUMPI PUSH1 0x0 DUP1 REVERT JUMPDEST POP PUSH1 0xD4 SLOAD PUSH2 0x5DE SWAP1 PUSH1 0xFF AND DUP2 JUMP JUMPDEST CALLVALUE DUP1 ISZERO PUSH2 0x7C5 JUMPI PUSH1 0x0 DUP1 REVERT JUMPDEST POP PUSH2 0x376 PUSH2 0x7D4 CALLDATASIZE PUSH1 0x4 PUSH2 0x4D2A JUMP JUMPDEST PUSH2 0x17C1 JUMP JUMPDEST CALLVALUE DUP1 ISZERO PUSH2 0x7E5 JUMPI PUSH1 0x0 DUP1 REVERT JUMPDEST POP PUSH2 0x376 PUSH2 0x7F4 CALLDATASIZE PUSH1 0x4 PUSH2 0x4D2A JUMP JUMPDEST PUSH2 0x1BDF JUMP JUMPDEST CALLVALUE DUP1 ISZERO PUSH2 0x805 JUMPI PUSH1 0x0 DUP1 REVERT JUMPDEST POP PUSH1 0xD1 SLOAD PUSH2 0x612 SWAP1 PUSH4 0xFFFFFFFF AND DUP2 JUMP JUMPDEST CALLVALUE DUP1 ISZERO PUSH2 0x822 JUMPI PUSH1 0x0 DUP1 REVERT JUMPDEST POP PUSH2 0x8DA PUSH2 0x831 CALLDATASIZE PUSH1 0x4 PUSH2 0x4D2A JUMP JUMPDEST PUSH1 0x40 DUP1 MLOAD PUSH1 0xC0 DUP2 ADD DUP3 MSTORE PUSH1 0x0 DUP1 DUP3 MSTORE PUSH1 0x20 DUP3 ADD DUP2 SWAP1 MSTORE SWAP2 DUP2 ADD DUP3 SWAP1 MSTORE PUSH1 0x60 DUP2 ADD DUP3 SWAP1 MSTORE PUSH1 0x80 DUP2 ADD DUP3 SWAP1 MSTORE PUSH1 0xA0 DUP2 ADD SWAP2 SWAP1 SWAP2 MSTORE POP PUSH4 0xFFFFFFFF SWAP1 DUP2 AND PUSH1 0x0 SWAP1 DUP2 MSTORE PUSH1 0xDC PUSH1 0x20 SWAP1 DUP2 MSTORE PUSH1 0x40 SWAP2 DUP3 SWAP1 KECCAK256 DUP3 MLOAD PUSH1 0xC0 DUP2 ADD DUP5 MSTORE DUP2 SLOAD DUP1 DUP7 AND DUP3 MSTORE PUSH1 0xFF PUSH1 0x1 PUSH1 0x20 SHL DUP3 DIV AND ISZERO ISZERO SWAP4 DUP3 ADD SWAP4 SWAP1 SWAP4 MSTORE PUSH6 0x10000000000 SWAP1 SWAP3 DIV SWAP1 SWAP4 AND SWAP2 DUP2 ADD SWAP2 SWAP1 SWAP2 MSTORE PUSH1 0x1 DUP3 ADD SLOAD PUSH1 0x60 DUP3 ADD MSTORE PUSH1 0x2 DUP3 ADD SLOAD PUSH2 0xFFFF AND PUSH1 0x80 DUP3 ADD MSTORE PUSH1 0x3 SWAP1 SWAP2 ADD SLOAD PUSH1 0xA0 DUP3 ADD MSTORE SWAP1 JUMP JUMPDEST PUSH1 0x40 MLOAD PUSH2 0x380 SWAP2 SWAP1 PUSH1 0x0 PUSH1 0xC0 DUP3 ADD SWAP1 POP PUSH4 0xFFFFFFFF DUP1 DUP5 MLOAD AND DUP4 MSTORE PUSH1 0x20 DUP5 ADD MLOAD ISZERO ISZERO PUSH1 0x20 DUP5 ADD MSTORE DUP1 PUSH1 0x40 DUP6 ADD MLOAD AND PUSH1 0x40 DUP5 ADD MSTORE POP PUSH1 0x60 DUP4 ADD MLOAD PUSH1 0x60 DUP4 ADD MSTORE PUSH2 0xFFFF PUSH1 0x80 DUP5 ADD MLOAD AND PUSH1 0x80 DUP4 ADD MSTORE PUSH1 0xA0 DUP4 ADD MLOAD PUSH1 0xA0 DUP4 ADD MSTORE SWAP3 SWAP2 POP POP JUMP JUMPDEST CALLVALUE DUP1 ISZERO PUSH2 0x942 JUMPI PUSH1 0x0 DUP1 REVERT JUMPDEST POP PUSH2 0x3A9 PUSH2 0x951 CALLDATASIZE PUSH1 0x4 PUSH2 0x4D45 JUMP JUMPDEST PUSH2 0x1BF0 JUMP JUMPDEST CALLVALUE DUP1 ISZERO PUSH2 0x962 JUMPI PUSH1 0x0 DUP1 REVERT JUMPDEST POP PUSH2 0x3A9 PUSH2 0x971 CALLDATASIZE PUSH1 0x4 PUSH2 0x4D78 JUMP JUMPDEST PUSH2 0x1D60 JUMP JUMPDEST CALLVALUE DUP1 ISZERO PUSH2 0x982 JUMPI PUSH1 0x0 DUP1 REVERT JUMPDEST POP PUSH2 0x3A9 PUSH2 0x991 CALLDATASIZE PUSH1 0x4 PUSH2 0x4DE4 JUMP JUMPDEST PUSH2 0x1EB6 JUMP JUMPDEST CALLVALUE DUP1 ISZERO PUSH2 0x9A2 JUMPI PUSH1 0x0 DUP1 REVERT JUMPDEST POP PUSH2 0x3A9 PUSH2 0x9B1 CALLDATASIZE PUSH1 0x4 PUSH2 0x4D2A JUMP JUMPDEST PUSH2 0x1F9E JUMP JUMPDEST CALLVALUE DUP1 ISZERO PUSH2 0x9C2 JUMPI PUSH1 0x0 DUP1 REVERT JUMPDEST POP PUSH2 0x3A9 PUSH2 0x9D1 CALLDATASIZE PUSH1 0x4 PUSH2 0x4B97 JUMP JUMPDEST PUSH2 0x2076 JUMP JUMPDEST CALLVALUE DUP1 ISZERO PUSH2 0x9E2 JUMPI PUSH1 0x0 DUP1 REVERT JUMPDEST POP PUSH2 0x3A9 PUSH2 0x9F1 CALLDATASIZE PUSH1 0x4 PUSH2 0x4B7C JUMP JUMPDEST PUSH2 0x2179 JUMP JUMPDEST PUSH2 0x3A9 PUSH2 0xA04 CALLDATASIZE PUSH1 0x4 PUSH2 0x4D2A JUMP JUMPDEST PUSH2 0x234E JUMP JUMPDEST CALLVALUE DUP1 ISZERO PUSH2 0xA15 JUMPI PUSH1 0x0 DUP1 REVERT JUMPDEST POP PUSH2 0x376 PUSH2 0xA24 CALLDATASIZE PUSH1 0x4 PUSH2 0x4D2A JUMP JUMPDEST PUSH2 0x24BE JUMP JUMPDEST CALLVALUE DUP1 ISZERO PUSH2 0xA35 JUMPI PUSH1 0x0 DUP1 REVERT JUMPDEST POP PUSH2 0x3A9 PUSH2 0xA44 CALLDATASIZE PUSH1 0x4 PUSH2 0x4E20 JUMP JUMPDEST PUSH2 0x25E3 JUMP JUMPDEST CALLVALUE DUP1 ISZERO PUSH2 0xA55 JUMPI PUSH1 0x0 DUP1 REVERT JUMPDEST POP PUSH2 0x3A9 PUSH2 0xA64 CALLDATASIZE PUSH1 0x4 PUSH2 0x4B7C JUMP JUMPDEST PUSH2 0x28AF JUMP JUMPDEST CALLVALUE DUP1 ISZERO PUSH2 0xA75 JUMPI PUSH1 0x0 DUP1 REVERT JUMPDEST POP PUSH2 0x3A9 PUSH2 0xA84 CALLDATASIZE PUSH1 0x4 PUSH2 0x4EB1 JUMP JUMPDEST PUSH2 0x2925 JUMP JUMPDEST CALLVALUE DUP1 ISZERO PUSH2 0xA95 JUMPI PUSH1 0x0 DUP1 REVERT JUMPDEST POP PUSH2 0x376 PUSH1 0xD7 SLOAD DUP2 JUMP JUMPDEST CALLVALUE DUP1 ISZERO PUSH2 0xAAB JUMPI PUSH1 0x0 DUP1 REVERT JUMPDEST POP PUSH2 0xABF PUSH2 0xABA CALLDATASIZE PUSH1 0x4 PUSH2 0x4D2A JUMP JUMPDEST PUSH2 0x2A71 JUMP JUMPDEST PUSH1 0x40 MLOAD PUSH2 0x380 SWAP2 SWAP1 PUSH2 0x4F5E JUMP JUMPDEST CALLVALUE DUP1 ISZERO PUSH2 0xAD8 JUMPI PUSH1 0x0 DUP1 REVERT JUMPDEST POP PUSH1 0xD4 SLOAD PUSH2 0x5DE SWAP1 PUSH2 0x100 SWAP1 DIV PUSH1 0xFF AND DUP2 JUMP JUMPDEST CALLVALUE DUP1 ISZERO PUSH2 0xAF7 JUMPI PUSH1 0x0 DUP1 REVERT JUMPDEST POP PUSH2 0xB0B PUSH2 0xB06 CALLDATASIZE PUSH1 0x4 PUSH2 0x4B7C JUMP JUMPDEST PUSH2 0x2F89 JUMP JUMPDEST PUSH1 0x40 MLOAD PUSH2 0x380 SWAP2 SWAP1 PUSH2 0x518C JUMP JUMPDEST PUSH2 0x3A9 PUSH2 0xB26 CALLDATASIZE PUSH1 0x4 PUSH2 0x4D2A JUMP JUMPDEST PUSH2 0x3054 JUMP JUMPDEST PUSH2 0xB33 PUSH2 0x3193 JUMP JUMPDEST PUSH1 0x40 MLOAD PUSH1 0x1 PUSH1 0x1 PUSH1 0xA0 SHL SUB DUP4 AND SWAP1 DUP3 ISZERO PUSH2 0x8FC MUL SWAP1 DUP4 SWAP1 PUSH1 0x0 DUP2 DUP2 DUP2 DUP6 DUP9 DUP9 CALL SWAP4 POP POP POP POP ISZERO DUP1 ISZERO PUSH2 0xB69 JUMPI RETURNDATASIZE PUSH1 0x0 DUP1 RETURNDATACOPY RETURNDATASIZE PUSH1 0x0 REVERT JUMPDEST POP POP POP JUMP JUMPDEST PUSH1 0x0 JUMPDEST PUSH1 0xDE SLOAD PUSH1 0xFF DUP3 AND LT ISZERO PUSH2 0xC4C JUMPI PUSH1 0xDE DUP2 PUSH1 0xFF AND DUP2 SLOAD DUP2 LT PUSH2 0xB94 JUMPI PUSH2 0xB94 PUSH2 0x51B3 JUMP JUMPDEST PUSH1 0x0 SWAP2 DUP3 MSTORE PUSH1 0x20 SWAP1 SWAP2 KECCAK256 ADD SLOAD PUSH1 0x1 PUSH1 0x1 PUSH1 0xA0 SHL SUB AND CALLER SUB PUSH2 0xBD0 JUMPI PUSH1 0xC9 DUP1 SLOAD PUSH1 0x1 PUSH1 0x1 PUSH1 0xA0 SHL SUB DUP5 AND PUSH1 0x1 PUSH1 0x1 PUSH1 0xA0 SHL SUB NOT SWAP1 SWAP2 AND OR SWAP1 SSTORE POP POP JUMP JUMPDEST PUSH1 0xDE SLOAD PUSH2 0xBDF SWAP1 PUSH1 0x1 SWAP1 PUSH2 0x51DF JUMP JUMPDEST DUP2 PUSH1 0xFF AND SUB PUSH2 0xC3A JUMPI PUSH1 0xDE DUP2 PUSH1 0xFF AND DUP2 SLOAD DUP2 LT PUSH2 0xBFE JUMPI PUSH2 0xBFE PUSH2 0x51B3 JUMP JUMPDEST PUSH1 0x0 SWAP2 DUP3 MSTORE PUSH1 0x20 SWAP1 SWAP2 KECCAK256 ADD SLOAD PUSH1 0x1 PUSH1 0x1 PUSH1 0xA0 SHL SUB AND CALLER EQ PUSH2 0xC3A JUMPI PUSH1 0x40 MLOAD PUSH3 0x461BCD PUSH1 0xE5 SHL DUP2 MSTORE PUSH1 0x4 ADD PUSH2 0xC31 SWAP1 PUSH2 0x51F2 JUMP JUMPDEST PUSH1 0x40 MLOAD DUP1 SWAP2 SUB SWAP1 REVERT JUMPDEST DUP1 PUSH2 0xC44 DUP2 PUSH2 0x521D JUMP JUMPDEST SWAP2 POP POP PUSH2 0xB71 JUMP JUMPDEST POP POP JUMP JUMPDEST PUSH1 0xDE DUP2 DUP2 SLOAD DUP2 LT PUSH2 0xC60 JUMPI PUSH1 0x0 DUP1 REVERT JUMPDEST PUSH1 0x0 SWAP2 DUP3 MSTORE PUSH1 0x20 SWAP1 SWAP2 KECCAK256 ADD SLOAD PUSH1 0x1 PUSH1 0x1 PUSH1 0xA0 SHL SUB AND SWAP1 POP DUP2 JUMP JUMPDEST PUSH1 0xD8 DUP2 DUP2 SLOAD DUP2 LT PUSH2 0xC60 JUMPI PUSH1 0x0 DUP1 REVERT JUMPDEST PUSH1 0x0 PUSH2 0xC97 PUSH1 0xCC SLOAD PUSH2 0x31ED JUMP JUMPDEST SWAP1 POP SWAP1 JUMP JUMPDEST PUSH2 0xCA4 PUSH2 0x3193 JUMP JUMPDEST PUSH1 0x40 MLOAD CALLER SWAP1 SELFBALANCE DUP1 ISZERO PUSH2 0x8FC MUL SWAP2 PUSH1 0x0 DUP2 DUP2 DUP2 DUP6 DUP9 DUP9 CALL SWAP4 POP POP POP POP ISZERO DUP1 ISZERO PUSH2 0xCD0 JUMPI RETURNDATASIZE PUSH1 0x0 DUP1 RETURNDATACOPY RETURNDATASIZE PUSH1 0x0 REVERT JUMPDEST POP JUMP JUMPDEST PUSH1 0x1 PUSH1 0x1 PUSH1 0xA0 SHL SUB PUSH32 0x0 AND ADDRESS SUB PUSH2 0xD1B JUMPI PUSH1 0x40 MLOAD PUSH3 0x461BCD PUSH1 0xE5 SHL DUP2 MSTORE PUSH1 0x4 ADD PUSH2 0xC31 SWAP1 PUSH2 0x523C JUMP JUMPDEST PUSH32 0x0 PUSH1 0x1 PUSH1 0x1 PUSH1 0xA0 SHL SUB AND PUSH2 0xD64 PUSH1 0x0 DUP1 MLOAD PUSH1 0x20 PUSH2 0x55C0 DUP4 CODECOPY DUP2 MLOAD SWAP2 MSTORE SLOAD PUSH1 0x1 PUSH1 0x1 PUSH1 0xA0 SHL SUB AND SWAP1 JUMP JUMPDEST PUSH1 0x1 PUSH1 0x1 PUSH1 0xA0 SHL SUB AND EQ PUSH2 0xD8A JUMPI PUSH1 0x40 MLOAD PUSH3 0x461BCD PUSH1 0xE5 SHL DUP2 MSTORE PUSH1 0x4 ADD PUSH2 0xC31 SWAP1 PUSH2 0x5288 JUMP JUMPDEST PUSH2 0xD93 DUP2 PUSH2 0x3283 JUMP JUMPDEST PUSH1 0x40 DUP1 MLOAD PUSH1 0x0 DUP1 DUP3 MSTORE PUSH1 0x20 DUP3 ADD SWAP1 SWAP3 MSTORE PUSH2 0xCD0 SWAP2 DUP4 SWAP2 SWAP1 PUSH2 0x328B JUMP JUMPDEST PUSH2 0xDB7 PUSH2 0x3193 JUMP JUMPDEST PUSH1 0xCC SSTORE JUMP JUMPDEST PUSH1 0x0 JUMPDEST PUSH1 0xDE SLOAD PUSH1 0xFF DUP3 AND LT ISZERO PUSH2 0xB69 JUMPI PUSH1 0xDE DUP2 PUSH1 0xFF AND DUP2 SLOAD DUP2 LT PUSH2 0xDE2 JUMPI PUSH2 0xDE2 PUSH2 0x51B3 JUMP JUMPDEST PUSH1 0x0 SWAP2 DUP3 MSTORE PUSH1 0x20 SWAP1 SWAP2 KECCAK256 ADD SLOAD PUSH1 0x1 PUSH1 0x1 PUSH1 0xA0 SHL SUB AND CALLER SUB PUSH2 0x101B JUMPI PUSH1 0x0 JUMPDEST PUSH4 0xFFFFFFFF DUP2 AND DUP4 GT ISZERO PUSH2 0x1015 JUMPI PUSH1 0x0 PUSH1 0xDB PUSH1 0x0 DUP7 DUP7 DUP6 PUSH4 0xFFFFFFFF AND DUP2 DUP2 LT PUSH2 0xE2C JUMPI PUSH2 0xE2C PUSH2 0x51B3 JUMP JUMPDEST SWAP1 POP PUSH1 0x20 MUL ADD PUSH1 0x20 DUP2 ADD SWAP1 PUSH2 0xE41 SWAP2 SWAP1 PUSH2 0x4D2A JUMP JUMPDEST PUSH4 0xFFFFFFFF AND DUP2 MSTORE PUSH1 0x20 DUP2 ADD SWAP2 SWAP1 SWAP2 MSTORE PUSH1 0x40 ADD PUSH1 0x0 SWAP1 DUP2 KECCAK256 PUSH1 0xCB SLOAD SWAP1 SWAP3 POP PUSH3 0x10000 SWAP1 DIV PUSH1 0xFF AND SWAP1 JUMPDEST DUP2 PUSH1 0xFF AND DUP2 PUSH4 0xFFFFFFFF AND LT ISZERO PUSH2 0xFFF JUMPI PUSH1 0x5 DUP4 ADD SLOAD PUSH4 0xFFFFFFFF SWAP1 DUP2 AND PUSH1 0x0 DUP2 DUP2 MSTORE PUSH1 0xDB PUSH1 0x20 MSTORE PUSH1 0x40 DUP2 KECCAK256 DUP7 SLOAD SWAP3 SWAP4 SWAP1 SWAP3 AND SWAP1 SUB PUSH2 0xEAA JUMPI POP POP PUSH2 0xFFF JUMP JUMPDEST DUP1 PUSH1 0x7 ADD DUP10 DUP10 DUP9 PUSH4 0xFFFFFFFF AND DUP2 DUP2 LT PUSH2 0xEC6 JUMPI PUSH2 0xEC6 PUSH2 0x51B3 JUMP JUMPDEST SWAP1 POP PUSH1 0x20 MUL ADD PUSH1 0x20 DUP2 ADD SWAP1 PUSH2 0xEDB SWAP2 SWAP1 PUSH2 0x4D2A JUMP JUMPDEST DUP2 SLOAD PUSH1 0x1 DUP1 DUP3 ADD DUP5 SSTORE PUSH1 0x0 SWAP4 DUP5 MSTORE PUSH1 0x20 SWAP1 SWAP4 KECCAK256 PUSH1 0x8 DUP1 DUP4 DIV SWAP1 SWAP2 ADD DUP1 SLOAD PUSH1 0x7 SWAP1 SWAP4 AND PUSH1 0x4 MUL PUSH2 0x100 EXP PUSH4 0xFFFFFFFF DUP2 DUP2 MUL NOT SWAP1 SWAP5 AND SWAP5 SWAP1 SWAP4 AND SWAP3 SWAP1 SWAP3 MUL SWAP3 SWAP1 SWAP3 OR SWAP1 SSTORE DUP3 ADD SWAP1 PUSH2 0xF2C SWAP1 DUP6 SWAP1 PUSH2 0x52D4 JUMP JUMPDEST DUP2 SLOAD PUSH1 0x1 DUP2 ADD DUP4 SSTORE PUSH1 0x0 SWAP3 DUP4 MSTORE PUSH1 0x20 SWAP1 SWAP3 KECCAK256 PUSH1 0x8 DUP4 DIV ADD DUP1 SLOAD PUSH1 0x7 SWAP1 SWAP4 AND PUSH1 0x4 MUL PUSH2 0x100 EXP PUSH4 0xFFFFFFFF DUP2 DUP2 MUL NOT SWAP1 SWAP5 AND SWAP3 DUP5 AND MUL SWAP2 SWAP1 SWAP2 OR SWAP1 SSTORE DUP10 SWAP1 DUP10 SWAP1 DUP9 AND DUP2 DUP2 LT PUSH2 0xF7C JUMPI PUSH2 0xF7C PUSH2 0x51B3 JUMP JUMPDEST SWAP1 POP PUSH1 0x20 MUL ADD PUSH1 0x20 DUP2 ADD SWAP1 PUSH2 0xF91 SWAP2 SWAP1 PUSH2 0x4D2A JUMP JUMPDEST PUSH1 0x2 DUP3 ADD SLOAD DUP3 SLOAD PUSH1 0x40 MLOAD PUSH4 0xFFFFFFFF SWAP2 DUP3 AND DUP2 MSTORE SWAP3 DUP2 AND SWAP3 SWAP1 DUP6 AND SWAP2 PUSH2 0x100 SWAP1 DIV PUSH1 0x1 PUSH1 0x1 PUSH1 0xA0 SHL SUB AND SWAP1 PUSH32 0xA7FAFC728EC30E34DC1E1276496BF3EB44CA7494679DA969455289E6A8F0F1F6 SWAP1 PUSH1 0x20 ADD PUSH1 0x40 MLOAD DUP1 SWAP2 SUB SWAP1 LOG4 SWAP4 POP DUP2 SWAP1 POP PUSH2 0xFF7 DUP2 PUSH2 0x52F8 JUMP JUMPDEST SWAP2 POP POP PUSH2 0xE6A JUMP JUMPDEST POP POP POP DUP1 DUP1 PUSH2 0x100D SWAP1 PUSH2 0x52F8 JUMP JUMPDEST SWAP2 POP POP PUSH2 0xE00 JUMP JUMPDEST POP POP POP POP JUMP JUMPDEST PUSH1 0xDE SLOAD PUSH2 0x102A SWAP1 PUSH1 0x1 SWAP1 PUSH2 0x51DF JUMP JUMPDEST DUP2 PUSH1 0xFF AND SUB PUSH2 0x107C JUMPI PUSH1 0xDE DUP2 PUSH1 0xFF AND DUP2 SLOAD DUP2 LT PUSH2 0x1049 JUMPI PUSH2 0x1049 PUSH2 0x51B3 JUMP JUMPDEST PUSH1 0x0 SWAP2 DUP3 MSTORE PUSH1 0x20 SWAP1 SWAP2 KECCAK256 ADD SLOAD PUSH1 0x1 PUSH1 0x1 PUSH1 0xA0 SHL SUB AND CALLER EQ PUSH2 0x107C JUMPI PUSH1 0x40 MLOAD PUSH3 0x461BCD PUSH1 0xE5 SHL DUP2 MSTORE PUSH1 0x4 ADD PUSH2 0xC31 SWAP1 PUSH2 0x51F2 JUMP JUMPDEST DUP1 PUSH2 0x1086 DUP2 PUSH2 0x521D JUMP JUMPDEST SWAP2 POP POP PUSH2 0xDBF JUMP JUMPDEST PUSH1 0x1 PUSH1 0x1 PUSH1 0xA0 SHL SUB PUSH32 0x0 AND ADDRESS SUB PUSH2 0x10D6 JUMPI PUSH1 0x40 MLOAD PUSH3 0x461BCD PUSH1 0xE5 SHL DUP2 MSTORE PUSH1 0x4 ADD PUSH2 0xC31 SWAP1 PUSH2 0x523C JUMP JUMPDEST PUSH32 0x0 PUSH1 0x1 PUSH1 0x1 PUSH1 0xA0 SHL SUB AND PUSH2 0x111F PUSH1 0x0 DUP1 MLOAD PUSH1 0x20 PUSH2 0x55C0 DUP4 CODECOPY DUP2 MLOAD SWAP2 MSTORE SLOAD PUSH1 0x1 PUSH1 0x1 PUSH1 0xA0 SHL SUB AND SWAP1 JUMP JUMPDEST PUSH1 0x1 PUSH1 0x1 PUSH1 0xA0 SHL SUB AND EQ PUSH2 0x1145 JUMPI PUSH1 0x40 MLOAD PUSH3 0x461BCD PUSH1 0xE5 SHL DUP2 MSTORE PUSH1 0x4 ADD PUSH2 0xC31 SWAP1 PUSH2 0x5288 JUMP JUMPDEST PUSH2 0x114E DUP3 PUSH2 0x3283 JUMP JUMPDEST PUSH2 0xC4C DUP3 DUP3 PUSH1 0x1 PUSH2 0x328B JUMP JUMPDEST PUSH1 0x0 ADDRESS PUSH1 0x1 PUSH1 0x1 PUSH1 0xA0 SHL SUB PUSH32 0x0 AND EQ PUSH2 0x11FA JUMPI PUSH1 0x40 MLOAD PUSH3 0x461BCD PUSH1 0xE5 SHL DUP2 MSTORE PUSH1 0x20 PUSH1 0x4 DUP3 ADD MSTORE PUSH1 0x38 PUSH1 0x24 DUP3 ADD MSTORE PUSH32 0x555550535570677261646561626C653A206D757374206E6F742062652063616C PUSH1 0x44 DUP3 ADD MSTORE PUSH32 0x6C6564207468726F7567682064656C656761746563616C6C0000000000000000 PUSH1 0x64 DUP3 ADD MSTORE PUSH1 0x84 ADD PUSH2 0xC31 JUMP JUMPDEST POP PUSH1 0x0 DUP1 MLOAD PUSH1 0x20 PUSH2 0x55C0 DUP4 CODECOPY DUP2 MLOAD SWAP2 MSTORE SWAP1 JUMP JUMPDEST PUSH2 0x1215 PUSH2 0x3193 JUMP JUMPDEST PUSH1 0xDE DUP1 SLOAD PUSH1 0x1 DUP2 ADD DUP3 SSTORE PUSH1 0x0 SWAP2 SWAP1 SWAP2 MSTORE PUSH32 0xFAE8130C0619F84B4B44F01B84806F04E82E536D70E05F2356977FA318AECC1A ADD DUP1 SLOAD PUSH1 0x1 PUSH1 0x1 PUSH1 0xA0 SHL SUB NOT AND PUSH1 0x1 PUSH1 0x1 PUSH1 0xA0 SHL SUB SWAP3 SWAP1 SWAP3 AND SWAP2 SWAP1 SWAP2 OR SWAP1 SSTORE JUMP JUMPDEST PUSH1 0x0 JUMPDEST PUSH1 0xDE SLOAD PUSH1 0xFF DUP3 AND LT ISZERO PUSH2 0xC4C JUMPI PUSH1 0xDE DUP2 PUSH1 0xFF AND DUP2 SLOAD DUP2 LT PUSH2 0x128D JUMPI PUSH2 0x128D PUSH2 0x51B3 JUMP JUMPDEST PUSH1 0x0 SWAP2 DUP3 MSTORE PUSH1 0x20 SWAP1 SWAP2 KECCAK256 ADD SLOAD PUSH1 0x1 PUSH1 0x1 PUSH1 0xA0 SHL SUB AND CALLER SUB PUSH2 0x12CD JUMPI PUSH1 0xD1 DUP1 SLOAD PUSH4 0xFFFFFFFF DUP5 AND PUSH1 0x1 PUSH1 0x20 SHL MUL PUSH8 0xFFFFFFFF00000000 NOT SWAP1 SWAP2 AND OR SWAP1 SSTORE POP POP JUMP JUMPDEST PUSH1 0xDE SLOAD PUSH2 0x12DC SWAP1 PUSH1 0x1 SWAP1 PUSH2 0x51DF JUMP JUMPDEST DUP2 PUSH1 0xFF AND SUB PUSH2 0x132E JUMPI PUSH1 0xDE DUP2 PUSH1 0xFF AND DUP2 SLOAD DUP2 LT PUSH2 0x12FB JUMPI PUSH2 0x12FB PUSH2 0x51B3 JUMP JUMPDEST PUSH1 0x0 SWAP2 DUP3 MSTORE PUSH1 0x20 SWAP1 SWAP2 KECCAK256 ADD SLOAD PUSH1 0x1 PUSH1 0x1 PUSH1 0xA0 SHL SUB AND CALLER EQ PUSH2 0x132E JUMPI PUSH1 0x40 MLOAD PUSH3 0x461BCD PUSH1 0xE5 SHL DUP2 MSTORE PUSH1 0x4 ADD PUSH2 0xC31 SWAP1 PUSH2 0x51F2 JUMP JUMPDEST DUP1 PUSH2 0x1338 DUP2 PUSH2 0x521D JUMP JUMPDEST SWAP2 POP POP PUSH2 0x126A JUMP JUMPDEST PUSH2 0x1348 PUSH2 0x3193 JUMP JUMPDEST PUSH2 0x1352 PUSH1 0x0 PUSH2 0x33F6 JUMP JUMPDEST JUMP JUMPDEST PUSH1 0xCA DUP2 DUP2 SLOAD DUP2 LT PUSH2 0x1364 JUMPI PUSH1 0x0 DUP1 REVERT JUMPDEST SWAP1 PUSH1 0x0 MSTORE PUSH1 0x20 PUSH1 0x0 KECCAK256 SWAP1 PUSH1 0x10 SWAP2 DUP3 DUP3 DIV ADD SWAP2 SWAP1 MOD PUSH1 0x2 MUL SWAP2 POP SLOAD SWAP1 PUSH2 0x100 EXP SWAP1 DIV PUSH2 0xFFFF AND DUP2 JUMP JUMPDEST PUSH1 0x0 SLOAD PUSH2 0x100 SWAP1 DIV PUSH1 0xFF AND ISZERO DUP1 DUP1 ISZERO PUSH2 0x13AC JUMPI POP PUSH1 0x0 SLOAD PUSH1 0x1 PUSH1 0xFF SWAP1 SWAP2 AND LT JUMPDEST DUP1 PUSH2 0x13C6 JUMPI POP ADDRESS EXTCODESIZE ISZERO DUP1 ISZERO PUSH2 0x13C6 JUMPI POP PUSH1 0x0 SLOAD PUSH1 0xFF AND PUSH1 0x1 EQ JUMPDEST PUSH2 0x1429 JUMPI PUSH1 0x40 MLOAD PUSH3 0x461BCD PUSH1 0xE5 SHL DUP2 MSTORE PUSH1 0x20 PUSH1 0x4 DUP3 ADD MSTORE PUSH1 0x2E PUSH1 0x24 DUP3 ADD MSTORE PUSH32 0x496E697469616C697A61626C653A20636F6E747261637420697320616C726561 PUSH1 0x44 DUP3 ADD MSTORE PUSH14 0x191E481A5B9A5D1A585B1A5E9959 PUSH1 0x92 SHL PUSH1 0x64 DUP3 ADD MSTORE PUSH1 0x84 ADD PUSH2 0xC31 JUMP JUMPDEST PUSH1 0x0 DUP1 SLOAD PUSH1 0xFF NOT AND PUSH1 0x1 OR SWAP1 SSTORE DUP1 ISZERO PUSH2 0x144C JUMPI PUSH1 0x0 DUP1 SLOAD PUSH2 0xFF00 NOT AND PUSH2 0x100 OR SWAP1 SSTORE JUMPDEST PUSH1 0xC9 DUP1 SLOAD PUSH1 0x1 PUSH1 0x1 PUSH1 0xA0 SHL SUB NOT AND PUSH20 0x286D6392042B4D7180FD6D20F8D35C8776815774 OR SWAP1 SSTORE PUSH1 0xCB DUP1 SLOAD PUSH2 0xFFFF NOT AND PUSH2 0x3E8 OR SWAP1 SSTORE PUSH1 0x40 DUP1 MLOAD PUSH2 0x3A0 DUP2 ADD DUP3 MSTORE PUSH1 0x64 DUP2 MSTORE PUSH1 0x46 PUSH1 0x20 DUP3 ADD MSTORE PUSH1 0x32 SWAP2 DUP2 ADD DUP3 SWAP1 MSTORE PUSH1 0x60 DUP2 ADD DUP3 SWAP1 MSTORE PUSH1 0x80 DUP2 ADD DUP3 SWAP1 MSTORE PUSH1 0xA0 DUP2 ADD DUP3 SWAP1 MSTORE PUSH1 0xC0 DUP2 ADD DUP3 SWAP1 MSTORE PUSH1 0xE0 DUP2 ADD DUP3 SWAP1 MSTORE PUSH2 0x100 DUP2 ADD DUP3 SWAP1 MSTORE PUSH2 0x120 DUP2 ADD DUP3 SWAP1 MSTORE PUSH2 0x140 DUP2 ADD DUP3 SWAP1 MSTORE PUSH2 0x160 DUP2 ADD DUP3 SWAP1 MSTORE PUSH2 0x180 DUP2 ADD DUP3 SWAP1 MSTORE PUSH2 0x1A0 DUP2 ADD DUP3 SWAP1 MSTORE PUSH2 0x1C0 DUP2 ADD DUP3 SWAP1 MSTORE PUSH2 0x1E0 DUP2 ADD DUP3 SWAP1 MSTORE PUSH2 0x200 DUP2 ADD DUP3 SWAP1 MSTORE PUSH2 0x220 DUP2 ADD DUP3 SWAP1 MSTORE PUSH2 0x240 DUP2 ADD SWAP2 SWAP1 SWAP2 MSTORE PUSH1 0x14 PUSH2 0x260 DUP3 ADD DUP2 SWAP1 MSTORE PUSH2 0x280 DUP3 ADD DUP2 SWAP1 MSTORE PUSH2 0x2A0 DUP3 ADD DUP2 SWAP1 MSTORE PUSH2 0x2C0 DUP3 ADD DUP2 SWAP1 MSTORE PUSH2 0x2E0 DUP3 ADD DUP2 SWAP1 MSTORE PUSH2 0x300 DUP3 ADD DUP2 SWAP1 MSTORE PUSH2 0x320 DUP3 ADD DUP2 SWAP1 MSTORE PUSH2 0x340 DUP3 ADD DUP2 SWAP1 MSTORE PUSH2 0x360 DUP3 ADD DUP2 SWAP1 MSTORE PUSH2 0x380 DUP3 ADD MSTORE PUSH2 0x1579 SWAP1 PUSH1 0xCA SWAP1 PUSH1 0x1D PUSH2 0x49DC JUMP JUMPDEST POP PUSH1 0xCB DUP1 SLOAD PUSH3 0xFF0000 NOT AND PUSH3 0x320000 OR SWAP1 SSTORE PUSH8 0xDE0B6B3A7640000 PUSH1 0xCC SSTORE PUSH1 0xD4 DUP1 SLOAD PUSH4 0xFF00FFFF NOT AND PUSH4 0x2000001 OR SWAP1 SSTORE PUSH1 0xD1 DUP1 SLOAD PUSH2 0xFFFF PUSH1 0x60 SHL NOT AND PUSH1 0x7D PUSH1 0x63 SHL OR SWAP1 SSTORE PUSH4 0x20F5800 PUSH1 0xD2 SSTORE PUSH3 0x15180 PUSH1 0xD3 SSTORE PUSH3 0x278D00 PUSH1 0xD7 SSTORE PUSH2 0x15DC PUSH2 0x3448 JUMP JUMPDEST PUSH2 0x15E4 PUSH2 0x3477 JUMP JUMPDEST DUP1 ISZERO PUSH2 0xCD0 JUMPI PUSH1 0x0 DUP1 SLOAD PUSH2 0xFF00 NOT AND SWAP1 SSTORE PUSH1 0x40 MLOAD PUSH1 0x1 DUP2 MSTORE PUSH32 0x7F26B83FF96E1F2B6A682F133852F6798A09C465DA95921460CEFB3847402498 SWAP1 PUSH1 0x20 ADD PUSH1 0x40 MLOAD DUP1 SWAP2 SUB SWAP1 LOG1 POP JUMP JUMPDEST PUSH1 0x0 JUMPDEST PUSH1 0xDE SLOAD PUSH1 0xFF DUP3 AND LT ISZERO PUSH2 0xC4C JUMPI PUSH1 0xDE DUP2 PUSH1 0xFF AND DUP2 SLOAD DUP2 LT PUSH2 0x1652 JUMPI PUSH2 0x1652 PUSH2 0x51B3 JUMP JUMPDEST PUSH1 0x0 SWAP2 DUP3 MSTORE PUSH1 0x20 SWAP1 SWAP2 KECCAK256 ADD SLOAD PUSH1 0x1 PUSH1 0x1 PUSH1 0xA0 SHL SUB AND CALLER SUB PUSH2 0x16D5 JUMPI PUSH1 0xD8 DUP1 SLOAD PUSH1 0x1 DUP2 DUP2 ADD SWAP1 SWAP3 SSTORE PUSH32 0x5320AD99A619A90804CD2EFE3A5CF0AC1AC5C41AD9FF2C61CF699EFDAD771096 ADD DUP1 SLOAD PUSH1 0x1 PUSH1 0x1 PUSH1 0xA0 SHL SUB DUP6 AND PUSH1 0x1 PUSH1 0x1 PUSH1 0xA0 SHL SUB NOT SWAP1 SWAP2 AND DUP2 OR SWAP1 SWAP2 SSTORE PUSH1 0x0 SWAP1 DUP2 MSTORE PUSH1 0xDA PUSH1 0x20 MSTORE PUSH1 0x40 SWAP1 KECCAK256 DUP1 SLOAD PUSH1 0xFF NOT AND SWAP1 SWAP2 OR SWAP1 SSTORE POP POP JUMP JUMPDEST PUSH1 0xDE SLOAD PUSH2 0x16E4 SWAP1 PUSH1 0x1 SWAP1 PUSH2 0x51DF JUMP JUMPDEST DUP2 PUSH1 0xFF AND SUB PUSH2 0x1736 JUMPI PUSH1 0xDE DUP2 PUSH1 0xFF AND DUP2 SLOAD DUP2 LT PUSH2 0x1703 JUMPI PUSH2 0x1703 PUSH2 0x51B3 JUMP JUMPDEST PUSH1 0x0 SWAP2 DUP3 MSTORE PUSH1 0x20 SWAP1 SWAP2 KECCAK256 ADD SLOAD PUSH1 0x1 PUSH1 0x1 PUSH1 0xA0 SHL SUB AND CALLER EQ PUSH2 0x1736 JUMPI PUSH1 0x40 MLOAD PUSH3 0x461BCD PUSH1 0xE5 SHL DUP2 MSTORE PUSH1 0x4 ADD PUSH2 0xC31 SWAP1 PUSH2 0x51F2 JUMP JUMPDEST DUP1 PUSH2 0x1740 DUP2 PUSH2 0x521D JUMP JUMPDEST SWAP2 POP POP PUSH2 0x162F JUMP JUMPDEST PUSH2 0x1750 PUSH2 0x3193 JUMP JUMPDEST PUSH1 0x40 MLOAD PUSH4 0xA9059CBB PUSH1 0xE0 SHL DUP2 MSTORE CALLER PUSH1 0x4 DUP3 ADD MSTORE PUSH1 0x24 DUP2 ADD DUP3 SWAP1 MSTORE PUSH1 0x1 PUSH1 0x1 PUSH1 0xA0 SHL SUB DUP4 AND SWAP1 PUSH4 0xA9059CBB SWAP1 PUSH1 0x44 ADD PUSH1 0x20 PUSH1 0x40 MLOAD DUP1 DUP4 SUB DUP2 PUSH1 0x0 DUP8 GAS CALL ISZERO DUP1 ISZERO PUSH2 0x179D JUMPI RETURNDATASIZE PUSH1 0x0 DUP1 RETURNDATACOPY RETURNDATASIZE PUSH1 0x0 REVERT JUMPDEST POP POP POP POP PUSH1 0x40 MLOAD RETURNDATASIZE PUSH1 0x1F NOT PUSH1 0x1F DUP3 ADD AND DUP3 ADD DUP1 PUSH1 0x40 MSTORE POP DUP2 ADD SWAP1 PUSH2 0xB69 SWAP2 SWAP1 PUSH2 0x531B JUMP JUMPDEST PUSH4 0xFFFFFFFF DUP1 DUP3 AND PUSH1 0x0 SWAP1 DUP2 MSTORE PUSH1 0xDB PUSH1 0x20 SWAP1 DUP2 MSTORE PUSH1 0x40 DUP1 DUP4 KECCAK256 DUP2 MLOAD PUSH2 0x400 DUP2 ADD SWAP1 SWAP3 MSTORE DUP1 SLOAD SWAP1 SWAP5 AND DUP2 MSTORE PUSH1 0x1 DUP5 ADD DUP1 SLOAD SWAP4 SWAP5 DUP6 SWAP5 SWAP3 SWAP4 SWAP1 SWAP3 SWAP1 DUP5 ADD SWAP2 SWAP1 PUSH2 0x1807 SWAP1 PUSH2 0x533D JUMP JUMPDEST DUP1 PUSH1 0x1F ADD PUSH1 0x20 DUP1 SWAP2 DIV MUL PUSH1 0x20 ADD PUSH1 0x40 MLOAD SWAP1 DUP2 ADD PUSH1 0x40 MSTORE DUP1 SWAP3 SWAP2 SWAP1 DUP2 DUP2 MSTORE PUSH1 0x20 ADD DUP3 DUP1 SLOAD PUSH2 0x1833 SWAP1 PUSH2 0x533D JUMP JUMPDEST DUP1 ISZERO PUSH2 0x1880 JUMPI DUP1 PUSH1 0x1F LT PUSH2 0x1855 JUMPI PUSH2 0x100 DUP1 DUP4 SLOAD DIV MUL DUP4 MSTORE SWAP2 PUSH1 0x20 ADD SWAP2 PUSH2 0x1880 JUMP JUMPDEST DUP3 ADD SWAP2 SWAP1 PUSH1 0x0 MSTORE PUSH1 0x20 PUSH1 0x0 KECCAK256 SWAP1 JUMPDEST DUP2 SLOAD DUP2 MSTORE SWAP1 PUSH1 0x1 ADD SWAP1 PUSH1 0x20 ADD DUP1 DUP4 GT PUSH2 0x1863 JUMPI DUP3 SWAP1 SUB PUSH1 0x1F AND DUP3 ADD SWAP2 JUMPDEST POP POP POP SWAP2 DUP4 MSTORE POP POP PUSH1 0x2 DUP3 ADD SLOAD PUSH1 0xFF DUP2 AND ISZERO ISZERO PUSH1 0x20 DUP1 DUP5 ADD SWAP2 SWAP1 SWAP2 MSTORE PUSH2 0x100 SWAP1 SWAP2 DIV PUSH1 0x1 PUSH1 0x1 PUSH1 0xA0 SHL SUB AND PUSH1 0x40 DUP1 DUP5 ADD SWAP2 SWAP1 SWAP2 MSTORE PUSH1 0x3 DUP5 ADD SLOAD PUSH1 0x60 DUP5 ADD MSTORE PUSH1 0x4 DUP5 ADD SLOAD PUSH1 0x80 DUP5 ADD MSTORE PUSH1 0x5 DUP5 ADD SLOAD PUSH4 0xFFFFFFFF AND PUSH1 0xA0 DUP5 ADD MSTORE PUSH1 0x6 DUP5 ADD DUP1 SLOAD DUP3 MLOAD DUP2 DUP6 MUL DUP2 ADD DUP6 ADD SWAP1 SWAP4 MSTORE DUP1 DUP4 MSTORE PUSH1 0xC0 SWAP1 SWAP5 ADD SWAP4 SWAP2 SWAP3 SWAP1 SWAP2 SWAP1 DUP4 ADD DUP3 DUP3 DUP1 ISZERO PUSH2 0x1953 JUMPI PUSH1 0x20 MUL DUP3 ADD SWAP2 SWAP1 PUSH1 0x0 MSTORE PUSH1 0x20 PUSH1 0x0 KECCAK256 SWAP1 PUSH1 0x0 SWAP1 JUMPDEST DUP3 DUP3 SWAP1 SLOAD SWAP1 PUSH2 0x100 EXP SWAP1 DIV PUSH4 0xFFFFFFFF AND PUSH4 0xFFFFFFFF AND DUP2 MSTORE PUSH1 0x20 ADD SWAP1 PUSH1 0x4 ADD SWAP1 PUSH1 0x20 DUP3 PUSH1 0x3 ADD DIV SWAP3 DUP4 ADD SWAP3 PUSH1 0x1 SUB DUP3 MUL SWAP2 POP DUP1 DUP5 GT PUSH2 0x1916 JUMPI SWAP1 POP JUMPDEST POP POP POP POP POP DUP2 MSTORE PUSH1 0x20 ADD PUSH1 0x7 DUP3 ADD DUP1 SLOAD DUP1 PUSH1 0x20 MUL PUSH1 0x20 ADD PUSH1 0x40 MLOAD SWAP1 DUP2 ADD PUSH1 0x40 MSTORE DUP1 SWAP3 SWAP2 SWAP1 DUP2 DUP2 MSTORE PUSH1 0x20 ADD DUP3 DUP1 SLOAD DUP1 ISZERO PUSH2 0x19D7 JUMPI PUSH1 0x20 MUL DUP3 ADD SWAP2 SWAP1 PUSH1 0x0 MSTORE PUSH1 0x20 PUSH1 0x0 KECCAK256 SWAP1 PUSH1 0x0 SWAP1 JUMPDEST DUP3 DUP3 SWAP1 SLOAD SWAP1 PUSH2 0x100 EXP SWAP1 DIV PUSH4 0xFFFFFFFF AND PUSH4 0xFFFFFFFF AND DUP2 MSTORE PUSH1 0x20 ADD SWAP1 PUSH1 0x4 ADD SWAP1 PUSH1 0x20 DUP3 PUSH1 0x3 ADD DIV SWAP3 DUP4 ADD SWAP3 PUSH1 0x1 SUB DUP3 MUL SWAP2 POP DUP1 DUP5 GT PUSH2 0x199A JUMPI SWAP1 POP JUMPDEST POP POP POP POP POP DUP2 MSTORE PUSH1 0x20 ADD PUSH1 0x8 DUP3 ADD DUP1 SLOAD DUP1 PUSH1 0x20 MUL PUSH1 0x20 ADD PUSH1 0x40 MLOAD SWAP1 DUP2 ADD PUSH1 0x40 MSTORE DUP1 SWAP3 SWAP2 SWAP1 DUP2 DUP2 MSTORE PUSH1 0x20 ADD DUP3 DUP1 SLOAD DUP1 ISZERO PUSH2 0x1A5B JUMPI PUSH1 0x20 MUL DUP3 ADD SWAP2 SWAP1 PUSH1 0x0 MSTORE PUSH1 0x20 PUSH1 0x0 KECCAK256 SWAP1 PUSH1 0x0 SWAP1 JUMPDEST DUP3 DUP3 SWAP1 SLOAD SWAP1 PUSH2 0x100 EXP SWAP1 DIV PUSH4 0xFFFFFFFF AND PUSH4 0xFFFFFFFF AND DUP2 MSTORE PUSH1 0x20 ADD SWAP1 PUSH1 0x4 ADD SWAP1 PUSH1 0x20 DUP3 PUSH1 0x3 ADD DIV SWAP3 DUP4 ADD SWAP3 PUSH1 0x1 SUB DUP3 MUL SWAP2 POP DUP1 DUP5 GT PUSH2 0x1A1E JUMPI SWAP1 POP JUMPDEST POP POP POP POP POP DUP2 MSTORE PUSH1 0x20 ADD PUSH1 0x9 DUP3 ADD SLOAD DUP2 MSTORE PUSH1 0x20 ADD PUSH1 0xA DUP3 ADD SLOAD DUP2 MSTORE PUSH1 0x20 ADD PUSH1 0xB DUP3 ADD SLOAD DUP2 MSTORE PUSH1 0x20 ADD PUSH1 0xC DUP3 ADD SLOAD DUP2 MSTORE PUSH1 0x20 ADD PUSH1 0xD DUP3 ADD SLOAD DUP2 MSTORE PUSH1 0x20 ADD PUSH1 0xE DUP3 ADD SLOAD DUP2 MSTORE PUSH1 0x20 ADD PUSH1 0xF DUP3 ADD SLOAD DUP2 MSTORE PUSH1 0x20 ADD PUSH1 0x10 DUP3 ADD SLOAD DUP2 MSTORE PUSH1 0x20 ADD PUSH1 0x11 DUP3 ADD PUSH1 0x0 SWAP1 SLOAD SWAP1 PUSH2 0x100 EXP SWAP1 DIV PUSH1 0xFF AND PUSH1 0xFF AND PUSH1 0xFF AND DUP2 MSTORE PUSH1 0x20 ADD PUSH1 0x12 DUP3 ADD SLOAD DUP2 MSTORE PUSH1 0x20 ADD PUSH1 0x13 DUP3 ADD SLOAD DUP2 MSTORE PUSH1 0x20 ADD PUSH1 0x14 DUP3 ADD SLOAD DUP2 MSTORE PUSH1 0x20 ADD PUSH1 0x15 DUP3 ADD SLOAD DUP2 MSTORE PUSH1 0x20 ADD PUSH1 0x16 DUP3 ADD SLOAD DUP2 MSTORE PUSH1 0x20 ADD PUSH1 0x17 DUP3 ADD SLOAD DUP2 MSTORE PUSH1 0x20 ADD PUSH1 0x18 DUP3 ADD SLOAD DUP2 MSTORE PUSH1 0x20 ADD PUSH1 0x19 DUP3 ADD SLOAD DUP2 MSTORE PUSH1 0x20 ADD PUSH1 0x1A DUP3 ADD SLOAD DUP2 MSTORE PUSH1 0x20 ADD PUSH1 0x1B DUP3 ADD DUP1 SLOAD DUP1 PUSH1 0x20 MUL PUSH1 0x20 ADD PUSH1 0x40 MLOAD SWAP1 DUP2 ADD PUSH1 0x40 MSTORE DUP1 SWAP3 SWAP2 SWAP1 DUP2 DUP2 MSTORE PUSH1 0x20 ADD DUP3 DUP1 SLOAD DUP1 ISZERO PUSH2 0x1BA6 JUMPI PUSH1 0x20 MUL DUP3 ADD SWAP2 SWAP1 PUSH1 0x0 MSTORE PUSH1 0x20 PUSH1 0x0 KECCAK256 SWAP1 PUSH1 0x0 SWAP1 JUMPDEST DUP3 DUP3 SWAP1 SLOAD SWAP1 PUSH2 0x100 EXP SWAP1 DIV PUSH4 0xFFFFFFFF AND PUSH4 0xFFFFFFFF AND DUP2 MSTORE PUSH1 0x20 ADD SWAP1 PUSH1 0x4 ADD SWAP1 PUSH1 0x20 DUP3 PUSH1 0x3 ADD DIV SWAP3 DUP4 ADD SWAP3 PUSH1 0x1 SUB DUP3 MUL SWAP2 POP DUP1 DUP5 GT PUSH2 0x1B69 JUMPI SWAP1 POP JUMPDEST POP POP POP POP POP DUP2 MSTORE PUSH1 0x20 ADD PUSH1 0x1C DUP3 ADD SLOAD DUP2 MSTORE PUSH1 0x20 ADD PUSH1 0x1D DUP3 ADD SLOAD DUP2 MSTORE PUSH1 0x20 ADD PUSH1 0x1E DUP3 ADD SLOAD DUP2 MSTORE POP POP SWAP1 POP PUSH2 0x1BD8 DUP2 PUSH2 0x349E JUMP JUMPDEST SWAP4 SWAP3 POP POP POP JUMP JUMPDEST PUSH1 0x0 PUSH2 0x1BEA DUP3 PUSH2 0x34DA JUMP JUMPDEST SWAP3 SWAP2 POP POP JUMP JUMPDEST PUSH1 0x0 JUMPDEST PUSH1 0xDE SLOAD PUSH1 0xFF DUP3 AND LT ISZERO PUSH2 0xB69 JUMPI PUSH1 0xDE DUP2 PUSH1 0xFF AND DUP2 SLOAD DUP2 LT PUSH2 0x1C16 JUMPI PUSH2 0x1C16 PUSH2 0x51B3 JUMP JUMPDEST PUSH1 0x0 SWAP2 DUP3 MSTORE PUSH1 0x20 SWAP1 SWAP2 KECCAK256 ADD SLOAD PUSH1 0x1 PUSH1 0x1 PUSH1 0xA0 SHL SUB AND CALLER SUB PUSH2 0x1CED JUMPI DUP3 JUMPDEST DUP3 PUSH4 0xFFFFFFFF AND DUP2 PUSH4 0xFFFFFFFF AND LT ISZERO PUSH2 0x1015 JUMPI PUSH4 0xFFFFFFFF DUP2 AND PUSH1 0x0 SWAP1 DUP2 MSTORE PUSH1 0xDB PUSH1 0x20 SWAP1 DUP2 MSTORE PUSH1 0x40 DUP1 DUP4 KECCAK256 PUSH1 0x19 DUP2 ADD DUP5 SWAP1 SSTORE PUSH1 0xD1 DUP1 SLOAD PUSH4 0xFFFFFFFF PUSH1 0x40 SHL NOT AND SWAP1 SSTORE PUSH1 0xDC DUP4 MSTORE DUP2 DUP5 KECCAK256 PUSH1 0x3 DUP2 ADD DUP6 SWAP1 SSTORE DUP1 SLOAD PUSH5 0xFF00000000 NOT AND DUP2 SSTORE PUSH1 0x1 DUP2 ADD DUP6 SWAP1 SSTORE PUSH1 0x1D DUP3 ADD DUP6 SWAP1 SSTORE DUP1 SLOAD PUSH9 0xFFFFFFFF0000000000 NOT AND DUP2 SSTORE PUSH1 0x2 DUP2 ADD DUP1 SLOAD PUSH2 0xFFFF NOT AND SWAP1 SSTORE DUP3 MLOAD SWAP5 DUP6 MSTORE SWAP3 DUP5 ADD SWAP2 DUP3 SWAP1 MSTORE SWAP3 MLOAD PUSH2 0x1CD7 SWAP2 PUSH1 0x1B DUP6 ADD SWAP2 PUSH2 0x4A84 JUMP JUMPDEST POP POP POP DUP1 DUP1 PUSH2 0x1CE5 SWAP1 PUSH2 0x52F8 JUMP JUMPDEST SWAP2 POP POP PUSH2 0x1C33 JUMP JUMPDEST PUSH1 0xDE SLOAD PUSH2 0x1CFC SWAP1 PUSH1 0x1 SWAP1 PUSH2 0x51DF JUMP JUMPDEST DUP2 PUSH1 0xFF AND SUB PUSH2 0x1D4E JUMPI PUSH1 0xDE DUP2 PUSH1 0xFF AND DUP2 SLOAD DUP2 LT PUSH2 0x1D1B JUMPI PUSH2 0x1D1B PUSH2 0x51B3 JUMP JUMPDEST PUSH1 0x0 SWAP2 DUP3 MSTORE PUSH1 0x20 SWAP1 SWAP2 KECCAK256 ADD SLOAD PUSH1 0x1 PUSH1 0x1 PUSH1 0xA0 SHL SUB AND CALLER EQ PUSH2 0x1D4E JUMPI PUSH1 0x40 MLOAD PUSH3 0x461BCD PUSH1 0xE5 SHL DUP2 MSTORE PUSH1 0x4 ADD PUSH2 0xC31 SWAP1 PUSH2 0x51F2 JUMP JUMPDEST DUP1 PUSH2 0x1D58 DUP2 PUSH2 0x521D JUMP JUMPDEST SWAP2 POP POP PUSH2 0x1BF3 JUMP JUMPDEST PUSH1 0x0 JUMPDEST PUSH1 0xDE SLOAD PUSH1 0xFF DUP3 AND LT ISZERO PUSH2 0x1EAF JUMPI PUSH1 0xDE DUP2 PUSH1 0xFF AND DUP2 SLOAD DUP2 LT PUSH2 0x1D86 JUMPI PUSH2 0x1D86 PUSH2 0x51B3 JUMP JUMPDEST PUSH1 0x0 SWAP2 DUP3 MSTORE PUSH1 0x20 SWAP1 SWAP2 KECCAK256 ADD SLOAD PUSH1 0x1 PUSH1 0x1 PUSH1 0xA0 SHL SUB AND CALLER SUB PUSH2 0x1E3C JUMPI PUSH1 0x0 JUMPDEST PUSH2 0xFFFF DUP2 AND DUP6 GT ISZERO PUSH2 0x1E36 JUMPI PUSH1 0x0 PUSH1 0xDB PUSH1 0x0 DUP9 DUP9 DUP6 PUSH2 0xFFFF AND DUP2 DUP2 LT PUSH2 0x1DCC JUMPI PUSH2 0x1DCC PUSH2 0x51B3 JUMP JUMPDEST SWAP1 POP PUSH1 0x20 MUL ADD PUSH1 0x20 DUP2 ADD SWAP1 PUSH2 0x1DE1 SWAP2 SWAP1 PUSH2 0x4D2A JUMP JUMPDEST PUSH4 0xFFFFFFFF AND PUSH4 0xFFFFFFFF AND DUP2 MSTORE PUSH1 0x20 ADD SWAP1 DUP2 MSTORE PUSH1 0x20 ADD PUSH1 0x0 KECCAK256 SWAP1 POP DUP5 DUP5 DUP4 PUSH2 0xFFFF AND DUP2 DUP2 LT PUSH2 0x1E13 JUMPI PUSH2 0x1E13 PUSH2 0x51B3 JUMP JUMPDEST SWAP1 POP PUSH1 0x20 MUL ADD CALLDATALOAD DUP2 PUSH1 0x3 ADD DUP2 SWAP1 SSTORE POP POP DUP1 DUP1 PUSH2 0x1E2E SWAP1 PUSH2 0x5377 JUMP JUMPDEST SWAP2 POP POP PUSH2 0x1DA4 JUMP JUMPDEST POP PUSH2 0x1EAF JUMP JUMPDEST PUSH1 0xDE SLOAD PUSH2 0x1E4B SWAP1 PUSH1 0x1 SWAP1 PUSH2 0x51DF JUMP JUMPDEST DUP2 PUSH1 0xFF AND SUB PUSH2 0x1E9D JUMPI PUSH1 0xDE DUP2 PUSH1 0xFF AND DUP2 SLOAD DUP2 LT PUSH2 0x1E6A JUMPI PUSH2 0x1E6A PUSH2 0x51B3 JUMP JUMPDEST PUSH1 0x0 SWAP2 DUP3 MSTORE PUSH1 0x20 SWAP1 SWAP2 KECCAK256 ADD SLOAD PUSH1 0x1 PUSH1 0x1 PUSH1 0xA0 SHL SUB AND CALLER EQ PUSH2 0x1E9D JUMPI PUSH1 0x40 MLOAD PUSH3 0x461BCD PUSH1 0xE5 SHL DUP2 MSTORE PUSH1 0x4 ADD PUSH2 0xC31 SWAP1 PUSH2 0x51F2 JUMP JUMPDEST DUP1 PUSH2 0x1EA7 DUP2 PUSH2 0x521D JUMP JUMPDEST SWAP2 POP POP PUSH2 0x1D63 JUMP JUMPDEST POP POP POP POP POP JUMP JUMPDEST PUSH1 0x0 JUMPDEST PUSH1 0xDE SLOAD PUSH1 0xFF DUP3 AND LT ISZERO PUSH2 0x1015 JUMPI PUSH1 0xDE DUP2 PUSH1 0xFF AND DUP2 SLOAD DUP2 LT PUSH2 0x1EDC JUMPI PUSH2 0x1EDC PUSH2 0x51B3 JUMP JUMPDEST PUSH1 0x0 SWAP2 DUP3 MSTORE PUSH1 0x20 SWAP1 SWAP2 KECCAK256 ADD SLOAD PUSH1 0x1 PUSH1 0x1 PUSH1 0xA0 SHL SUB AND CALLER SUB PUSH2 0x1F2B JUMPI PUSH1 0xD1 DUP1 SLOAD PUSH2 0xFFFF PUSH1 0x60 SHL NOT AND PUSH1 0x1 PUSH1 0x60 SHL PUSH2 0xFFFF DUP8 AND MUL OR SWAP1 SSTORE PUSH2 0x1F1E DUP4 PUSH3 0x15180 PUSH2 0x538E JUMP JUMPDEST PUSH1 0xD2 SSTORE PUSH1 0xD3 DUP3 SWAP1 SSTORE PUSH2 0x1015 JUMP JUMPDEST PUSH1 0xDE SLOAD PUSH2 0x1F3A SWAP1 PUSH1 0x1 SWAP1 PUSH2 0x51DF JUMP JUMPDEST DUP2 PUSH1 0xFF AND SUB PUSH2 0x1F8C JUMPI PUSH1 0xDE DUP2 PUSH1 0xFF AND DUP2 SLOAD DUP2 LT PUSH2 0x1F59 JUMPI PUSH2 0x1F59 PUSH2 0x51B3 JUMP JUMPDEST PUSH1 0x0 SWAP2 DUP3 MSTORE PUSH1 0x20 SWAP1 SWAP2 KECCAK256 ADD SLOAD PUSH1 0x1 PUSH1 0x1 PUSH1 0xA0 SHL SUB AND CALLER EQ PUSH2 0x1F8C JUMPI PUSH1 0x40 MLOAD PUSH3 0x461BCD PUSH1 0xE5 SHL DUP2 MSTORE PUSH1 0x4 ADD PUSH2 0xC31 SWAP1 PUSH2 0x51F2 JUMP JUMPDEST DUP1 PUSH2 0x1F96 DUP2 PUSH2 0x521D JUMP JUMPDEST SWAP2 POP POP PUSH2 0x1EB9 JUMP JUMPDEST PUSH1 0x0 JUMPDEST PUSH1 0xDE SLOAD PUSH1 0xFF DUP3 AND LT ISZERO PUSH2 0xC4C JUMPI PUSH1 0xDE DUP2 PUSH1 0xFF AND DUP2 SLOAD DUP2 LT PUSH2 0x1FC4 JUMPI PUSH2 0x1FC4 PUSH2 0x51B3 JUMP JUMPDEST PUSH1 0x0 SWAP2 DUP3 MSTORE PUSH1 0x20 SWAP1 SWAP2 KECCAK256 ADD SLOAD PUSH1 0x1 PUSH1 0x1 PUSH1 0xA0 SHL SUB AND CALLER SUB PUSH2 0x2003 JUMPI PUSH1 0xD1 DUP1 SLOAD PUSH4 0xFFFFFFFF DUP5 AND PUSH1 0x1 PUSH1 0x40 SHL MUL PUSH4 0xFFFFFFFF PUSH1 0x40 SHL NOT SWAP1 SWAP2 AND OR SWAP1 SSTORE POP POP JUMP JUMPDEST PUSH1 0xDE SLOAD PUSH2 0x2012 SWAP1 PUSH1 0x1 SWAP1 PUSH2 0x51DF JUMP JUMPDEST DUP2 PUSH1 0xFF AND SUB PUSH2 0x2064 JUMPI PUSH1 0xDE DUP2 PUSH1 0xFF AND DUP2 SLOAD DUP2 LT PUSH2 0x2031 JUMPI PUSH2 0x2031 PUSH2 0x51B3 JUMP JUMPDEST PUSH1 0x0 SWAP2 DUP3 MSTORE PUSH1 0x20 SWAP1 SWAP2 KECCAK256 ADD SLOAD PUSH1 0x1 PUSH1 0x1 PUSH1 0xA0 SHL SUB AND CALLER EQ PUSH2 0x2064 JUMPI PUSH1 0x40 MLOAD PUSH3 0x461BCD PUSH1 0xE5 SHL DUP2 MSTORE PUSH1 0x4 ADD PUSH2 0xC31 SWAP1 PUSH2 0x51F2 JUMP JUMPDEST DUP1 PUSH2 0x206E DUP2 PUSH2 0x521D JUMP JUMPDEST SWAP2 POP POP PUSH2 0x1FA1 JUMP JUMPDEST PUSH1 0x0 JUMPDEST PUSH1 0xDE SLOAD PUSH1 0xFF DUP3 AND LT ISZERO PUSH2 0xC4C JUMPI PUSH1 0xDE DUP2 PUSH1 0xFF AND DUP2 SLOAD DUP2 LT PUSH2 0x209C JUMPI PUSH2 0x209C PUSH2 0x51B3 JUMP JUMPDEST PUSH1 0x0 SWAP2 DUP3 MSTORE PUSH1 0x20 SWAP1 SWAP2 KECCAK256 ADD SLOAD PUSH1 0x1 PUSH1 0x1 PUSH1 0xA0 SHL SUB AND CALLER SUB PUSH2 0x2106 JUMPI PUSH1 0x0 JUMPDEST DUP3 DUP2 PUSH2 0xFFFF AND LT ISZERO PUSH2 0xB69 JUMPI PUSH2 0xFFFF DUP2 AND PUSH1 0x0 SWAP1 DUP2 MSTORE PUSH1 0xDC PUSH1 0x20 MSTORE PUSH1 0x40 DUP2 KECCAK256 DUP1 SLOAD PUSH9 0xFFFFFFFFFF00000000 NOT AND DUP2 SSTORE PUSH1 0x3 DUP2 ADD DUP3 SWAP1 SSTORE PUSH1 0x1 ADD SSTORE DUP1 PUSH2 0x20FE DUP2 PUSH2 0x5377 JUMP JUMPDEST SWAP2 POP POP PUSH2 0x20BA JUMP JUMPDEST PUSH1 0xDE SLOAD PUSH2 0x2115 SWAP1 PUSH1 0x1 SWAP1 PUSH2 0x51DF JUMP JUMPDEST DUP2 PUSH1 0xFF AND SUB PUSH2 0x2167 JUMPI PUSH1 0xDE DUP2 PUSH1 0xFF AND DUP2 SLOAD DUP2 LT PUSH2 0x2134 JUMPI PUSH2 0x2134 PUSH2 0x51B3 JUMP JUMPDEST PUSH1 0x0 SWAP2 DUP3 MSTORE PUSH1 0x20 SWAP1 SWAP2 KECCAK256 ADD SLOAD PUSH1 0x1 PUSH1 0x1 PUSH1 0xA0 SHL SUB AND CALLER EQ PUSH2 0x2167 JUMPI PUSH1 0x40 MLOAD PUSH3 0x461BCD PUSH1 0xE5 SHL DUP2 MSTORE PUSH1 0x4 ADD PUSH2 0xC31 SWAP1 PUSH2 0x51F2 JUMP JUMPDEST DUP1 PUSH2 0x2171 DUP2 PUSH2 0x521D JUMP JUMPDEST SWAP2 POP POP PUSH2 0x2079 JUMP JUMPDEST PUSH1 0x0 JUMPDEST PUSH1 0xDE SLOAD PUSH1 0xFF DUP3 AND LT ISZERO PUSH2 0xC4C JUMPI PUSH1 0xDE DUP2 PUSH1 0xFF AND DUP2 SLOAD DUP2 LT PUSH2 0x219F JUMPI PUSH2 0x219F PUSH2 0x51B3 JUMP JUMPDEST PUSH1 0x0 SWAP2 DUP3 MSTORE PUSH1 0x20 SWAP1 SWAP2 KECCAK256 ADD SLOAD PUSH1 0x1 PUSH1 0x1 PUSH1 0xA0 SHL SUB AND CALLER SUB PUSH2 0x22DB JUMPI PUSH1 0x1 PUSH1 0x1 PUSH1 0xA0 SHL SUB DUP3 AND PUSH1 0x0 SWAP1 DUP2 MSTORE PUSH1 0xDA PUSH1 0x20 MSTORE PUSH1 0x40 DUP2 KECCAK256 DUP1 SLOAD PUSH1 0xFF NOT AND SWAP1 SSTORE PUSH1 0xD8 SLOAD SWAP1 JUMPDEST DUP2 DUP2 LT ISZERO PUSH2 0x1015 JUMPI DUP4 PUSH1 0x1 PUSH1 0x1 PUSH1 0xA0 SHL SUB AND PUSH1 0xD8 DUP3 DUP2 SLOAD DUP2 LT PUSH2 0x2204 JUMPI PUSH2 0x2204 PUSH2 0x51B3 JUMP JUMPDEST PUSH1 0x0 SWAP2 DUP3 MSTORE PUSH1 0x20 SWAP1 SWAP2 KECCAK256 ADD SLOAD PUSH1 0x1 PUSH1 0x1 PUSH1 0xA0 SHL SUB AND SUB PUSH2 0x22C9 JUMPI PUSH1 0xD8 PUSH2 0x222B PUSH1 0x1 DUP5 PUSH2 0x51DF JUMP JUMPDEST DUP2 SLOAD DUP2 LT PUSH2 0x223B JUMPI PUSH2 0x223B PUSH2 0x51B3 JUMP JUMPDEST PUSH1 0x0 SWAP2 DUP3 MSTORE PUSH1 0x20 SWAP1 SWAP2 KECCAK256 ADD SLOAD PUSH1 0xD8 DUP1 SLOAD PUSH1 0x1 PUSH1 0x1 PUSH1 0xA0 SHL SUB SWAP1 SWAP3 AND SWAP2 DUP4 SWAP1 DUP2 LT PUSH2 0x2267 JUMPI PUSH2 0x2267 PUSH2 0x51B3 JUMP JUMPDEST SWAP1 PUSH1 0x0 MSTORE PUSH1 0x20 PUSH1 0x0 KECCAK256 ADD PUSH1 0x0 PUSH2 0x100 EXP DUP2 SLOAD DUP2 PUSH1 0x1 PUSH1 0x1 PUSH1 0xA0 SHL SUB MUL NOT AND SWAP1 DUP4 PUSH1 0x1 PUSH1 0x1 PUSH1 0xA0 SHL SUB AND MUL OR SWAP1 SSTORE POP PUSH1 0xD8 DUP1 SLOAD DUP1 PUSH2 0x22A6 JUMPI PUSH2 0x22A6 PUSH2 0x53A5 JUMP JUMPDEST PUSH1 0x0 DUP3 DUP2 MSTORE PUSH1 0x20 SWAP1 KECCAK256 DUP2 ADD PUSH1 0x0 NOT SWAP1 DUP2 ADD DUP1 SLOAD PUSH1 0x1 PUSH1 0x1 PUSH1 0xA0 SHL SUB NOT AND SWAP1 SSTORE ADD SWAP1 SSTORE JUMPDEST DUP1 PUSH2 0x22D3 DUP2 PUSH2 0x53BB JUMP JUMPDEST SWAP2 POP POP PUSH2 0x21DF JUMP JUMPDEST PUSH1 0xDE SLOAD PUSH2 0x22EA SWAP1 PUSH1 0x1 SWAP1 PUSH2 0x51DF JUMP JUMPDEST DUP2 PUSH1 0xFF AND SUB PUSH2 0x233C JUMPI PUSH1 0xDE DUP2 PUSH1 0xFF AND DUP2 SLOAD DUP2 LT PUSH2 0x2309 JUMPI PUSH2 0x2309 PUSH2 0x51B3 JUMP JUMPDEST PUSH1 0x0 SWAP2 DUP3 MSTORE PUSH1 0x20 SWAP1 SWAP2 KECCAK256 ADD SLOAD PUSH1 0x1 PUSH1 0x1 PUSH1 0xA0 SHL SUB AND CALLER EQ PUSH2 0x233C JUMPI PUSH1 0x40 MLOAD PUSH3 0x461BCD PUSH1 0xE5 SHL DUP2 MSTORE PUSH1 0x4 ADD PUSH2 0xC31 SWAP1 PUSH2 0x51F2 JUMP JUMPDEST DUP1 PUSH2 0x2346 DUP2 PUSH2 0x521D JUMP JUMPDEST SWAP2 POP POP PUSH2 0x217C JUMP JUMPDEST CALLVALUE PUSH1 0x0 PUSH2 0x235A DUP3 PUSH2 0x3A1A JUMP JUMPDEST SWAP1 POP PUSH2 0x2367 PUSH1 0xCC SLOAD PUSH2 0x31ED JUMP JUMPDEST DUP3 LT ISZERO PUSH2 0x23B6 JUMPI PUSH1 0x40 MLOAD PUSH3 0x461BCD PUSH1 0xE5 SHL DUP2 MSTORE PUSH1 0x20 PUSH1 0x4 DUP3 ADD MSTORE PUSH1 0x1F PUSH1 0x24 DUP3 ADD MSTORE PUSH32 0x56616C75652073686F756C6420626520677265617465207468656E2031303000 PUSH1 0x44 DUP3 ADD MSTORE PUSH1 0x64 ADD PUSH2 0xC31 JUMP JUMPDEST PUSH1 0xD1 SLOAD CALLER SWAP1 TIMESTAMP SWAP1 PUSH1 0x0 SWAP1 PUSH2 0x23D8 SWAP1 PUSH1 0x1 PUSH1 0x20 SHL SWAP1 DIV PUSH4 0xFFFFFFFF AND PUSH1 0x1 PUSH2 0x52D4 JUMP JUMPDEST PUSH1 0xD1 SLOAD SWAP1 SWAP2 POP PUSH1 0x0 SWAP1 PUSH2 0x23F9 SWAP1 PUSH1 0x1 PUSH1 0x40 SHL SWAP1 DIV PUSH4 0xFFFFFFFF AND PUSH1 0x1 PUSH2 0x52D4 JUMP JUMPDEST PUSH1 0x1 PUSH1 0x1 PUSH1 0xA0 SHL SUB DUP6 AND PUSH1 0x0 SWAP1 DUP2 MSTORE PUSH1 0xDA PUSH1 0x20 MSTORE PUSH1 0x40 SWAP1 KECCAK256 PUSH1 0xD4 SLOAD SWAP2 SWAP3 POP SWAP1 PUSH1 0xFF AND ISZERO PUSH2 0x242C JUMPI PUSH2 0x242C DUP4 DUP4 DUP9 DUP8 PUSH2 0x3AA7 JUMP JUMPDEST PUSH2 0x2473 DUP4 PUSH1 0x40 MLOAD DUP1 PUSH1 0x20 ADD PUSH1 0x40 MSTORE DUP1 PUSH1 0x0 DUP2 MSTORE POP DUP11 PUSH1 0x40 MLOAD DUP1 PUSH1 0x20 ADD PUSH1 0x40 MSTORE DUP1 PUSH1 0x0 DUP2 MSTORE POP DUP10 DUP12 DUP13 PUSH1 0x3 PUSH2 0x2460 SWAP2 SWAP1 PUSH2 0x538E JUMP JUMPDEST PUSH1 0xCB SLOAD DUP13 SWAP1 PUSH3 0x10000 SWAP1 DIV PUSH1 0xFF AND PUSH2 0x3B9E JUMP JUMPDEST PUSH1 0x1 SWAP1 DUP2 ADD DUP1 SLOAD SWAP2 DUP3 ADD DUP2 SSTORE PUSH1 0x0 SWAP1 DUP2 MSTORE PUSH1 0x20 SWAP1 KECCAK256 PUSH1 0x8 DUP3 DIV ADD DUP1 SLOAD PUSH1 0x7 SWAP1 SWAP3 AND PUSH1 0x4 MUL PUSH2 0x100 EXP PUSH4 0xFFFFFFFF DUP2 DUP2 MUL NOT SWAP1 SWAP4 AND SWAP5 SWAP1 SWAP3 AND SWAP2 SWAP1 SWAP2 MUL SWAP3 SWAP1 SWAP3 OR SWAP1 SWAP2 SSTORE POP POP POP POP POP POP JUMP JUMPDEST PUSH4 0xFFFFFFFF DUP2 AND PUSH1 0x0 SWAP1 DUP2 MSTORE PUSH1 0xDB PUSH1 0x20 SWAP1 DUP2 MSTORE PUSH1 0x40 DUP1 DUP4 KECCAK256 PUSH1 0x1B ADD DUP1 SLOAD DUP3 MLOAD DUP2 DUP6 MUL DUP2 ADD DUP6 ADD SWAP1 SWAP4 MSTORE DUP1 DUP4 MSTORE DUP5 SWAP4 DUP4 ADD DUP3 DUP3 DUP1 ISZERO PUSH2 0x2547 JUMPI PUSH1 0x20 MUL DUP3 ADD SWAP2 SWAP1 PUSH1 0x0 MSTORE PUSH1 0x20 PUSH1 0x0 KECCAK256 SWAP1 PUSH1 0x0 SWAP1 JUMPDEST DUP3 DUP3 SWAP1 SLOAD SWAP1 PUSH2 0x100 EXP SWAP1 DIV PUSH4 0xFFFFFFFF AND PUSH4 0xFFFFFFFF AND DUP2 MSTORE PUSH1 0x20 ADD SWAP1 PUSH1 0x4 ADD SWAP1 PUSH1 0x20 DUP3 PUSH1 0x3 ADD DIV SWAP3 DUP4 ADD SWAP3 PUSH1 0x1 SUB DUP3 MUL SWAP2 POP DUP1 DUP5 GT PUSH2 0x250A JUMPI SWAP1 POP JUMPDEST POP POP POP POP POP SWAP1 POP PUSH1 0x0 DUP1 JUMPDEST DUP3 MLOAD DUP2 PUSH2 0xFFFF AND LT ISZERO PUSH2 0x25DB JUMPI PUSH1 0x0 PUSH1 0xDC PUSH1 0x0 DUP6 DUP5 PUSH2 0xFFFF AND DUP2 MLOAD DUP2 LT PUSH2 0x257B JUMPI PUSH2 0x257B PUSH2 0x51B3 JUMP JUMPDEST PUSH1 0x20 MUL PUSH1 0x20 ADD ADD MLOAD PUSH4 0xFFFFFFFF AND PUSH4 0xFFFFFFFF AND DUP2 MSTORE PUSH1 0x20 ADD SWAP1 DUP2 MSTORE PUSH1 0x20 ADD PUSH1 0x0 KECCAK256 SWAP1 POP DUP1 PUSH1 0x0 ADD PUSH1 0x4 SWAP1 SLOAD SWAP1 PUSH2 0x100 EXP SWAP1 DIV PUSH1 0xFF AND ISZERO PUSH2 0x25C8 JUMPI PUSH1 0x1 DUP2 ADD SLOAD PUSH2 0x25C5 SWAP1 DUP5 PUSH2 0x53D4 JUMP JUMPDEST SWAP3 POP JUMPDEST POP DUP1 PUSH2 0x25D3 DUP2 PUSH2 0x5377 JUMP JUMPDEST SWAP2 POP POP PUSH2 0x2552 JUMP JUMPDEST POP SWAP4 SWAP3 POP POP POP JUMP JUMPDEST PUSH1 0x0 JUMPDEST PUSH1 0xDE SLOAD PUSH1 0xFF DUP3 AND LT ISZERO PUSH2 0x28A6 JUMPI PUSH1 0xDE DUP2 PUSH1 0xFF AND DUP2 SLOAD DUP2 LT PUSH2 0x2609 JUMPI PUSH2 0x2609 PUSH2 0x51B3 JUMP JUMPDEST PUSH1 0x0 SWAP2 DUP3 MSTORE PUSH1 0x20 SWAP1 SWAP2 KECCAK256 ADD SLOAD PUSH1 0x1 PUSH1 0x1 PUSH1 0xA0 SHL SUB AND CALLER SUB PUSH2 0x2833 JUMPI TIMESTAMP DUP8 JUMPDEST DUP8 PUSH4 0xFFFFFFFF AND DUP2 PUSH4 0xFFFFFFFF AND LT ISZERO PUSH2 0x282C JUMPI PUSH4 0xFFFFFFFF DUP2 AND PUSH1 0x0 SWAP1 DUP2 MSTORE PUSH1 0xDB PUSH1 0x20 MSTORE PUSH1 0x40 DUP2 KECCAK256 PUSH1 0xD2 SLOAD SWAP1 SWAP2 SWAP1 DUP8 DUP8 PUSH2 0x2663 PUSH1 0x1 DUP8 PUSH2 0x53E7 JUMP JUMPDEST PUSH4 0xFFFFFFFF AND DUP2 DUP2 LT PUSH2 0x2678 JUMPI PUSH2 0x2678 PUSH2 0x51B3 JUMP JUMPDEST SWAP1 POP PUSH1 0x20 MUL ADD CALLDATALOAD PUSH2 0x2689 SWAP2 SWAP1 PUSH2 0x53D4 JUMP JUMPDEST SWAP1 POP PUSH1 0x0 DUP3 PUSH1 0x15 ADD SLOAD GT DUP1 ISZERO PUSH2 0x269E JUMPI POP DUP1 DUP5 LT JUMPDEST DUP1 ISZERO PUSH2 0x26BC JUMPI POP PUSH1 0x15 DUP3 ADD SLOAD PUSH2 0x26B5 SWAP1 PUSH1 0x2 PUSH2 0x538E JUMP JUMPDEST DUP3 PUSH1 0x16 ADD SLOAD LT JUMPDEST ISZERO PUSH2 0x2817 JUMPI DUP7 DUP7 DUP5 PUSH4 0xFFFFFFFF AND DUP2 DUP2 LT PUSH2 0x26D9 JUMPI PUSH2 0x26D9 PUSH2 0x51B3 JUMP JUMPDEST PUSH1 0x20 MUL SWAP2 SWAP1 SWAP2 ADD CALLDATALOAD PUSH1 0x19 DUP5 ADD SSTORE POP PUSH1 0xD1 DUP1 SLOAD PUSH1 0x0 SWAP2 PUSH1 0x1 PUSH1 0x40 SHL SWAP1 SWAP2 DIV PUSH4 0xFFFFFFFF AND SWAP1 PUSH1 0x8 PUSH2 0x2708 DUP4 PUSH2 0x52F8 JUMP JUMPDEST DUP3 SLOAD PUSH2 0x100 SWAP3 SWAP1 SWAP3 EXP PUSH4 0xFFFFFFFF DUP2 DUP2 MUL NOT SWAP1 SWAP4 AND SWAP2 DUP4 AND MUL OR SWAP1 SWAP2 SSTORE DUP2 AND PUSH1 0x0 SWAP1 DUP2 MSTORE PUSH1 0xDC PUSH1 0x20 MSTORE PUSH1 0x40 SWAP1 KECCAK256 PUSH1 0x3 DUP2 ADD DUP8 SWAP1 SSTORE DUP1 SLOAD PUSH1 0x1 PUSH1 0x20 SHL PUSH5 0xFF00000000 NOT SWAP1 SWAP2 AND OR DUP2 SSTORE SWAP1 SWAP2 POP DUP11 DUP11 PUSH2 0x2760 PUSH1 0x1 DUP9 PUSH2 0x53E7 JUMP JUMPDEST PUSH4 0xFFFFFFFF AND DUP2 DUP2 LT PUSH2 0x2775 JUMPI PUSH2 0x2775 PUSH2 0x51B3 JUMP JUMPDEST PUSH1 0x20 SWAP1 DUP2 MUL SWAP3 SWAP1 SWAP3 ADD CALLDATALOAD PUSH1 0x1 DUP1 DUP6 ADD SWAP2 SWAP1 SWAP2 SSTORE PUSH1 0x1D DUP8 ADD DUP10 SWAP1 SSTORE DUP4 SLOAD PUSH4 0xFFFFFFFF DUP1 DUP11 AND PUSH6 0x10000000000 MUL PUSH9 0xFFFFFFFF0000000000 NOT SWAP1 SWAP3 AND SWAP2 SWAP1 SWAP2 OR DUP6 SSTORE PUSH1 0xD1 SLOAD PUSH1 0x2 SWAP1 SWAP6 ADD DUP1 SLOAD PUSH2 0xFFFF NOT AND PUSH2 0xFFFF PUSH1 0x1 PUSH1 0x60 SHL SWAP1 SWAP8 DIV SWAP7 SWAP1 SWAP7 AND SWAP6 SWAP1 SWAP6 OR SWAP1 SWAP5 SSTORE PUSH1 0x1B DUP8 ADD DUP1 SLOAD SWAP2 DUP3 ADD DUP2 SSTORE PUSH1 0x0 SWAP1 DUP2 MSTORE SWAP3 SWAP1 SWAP3 KECCAK256 PUSH1 0x8 DUP4 DIV ADD DUP1 SLOAD SWAP5 DUP5 AND PUSH1 0x4 PUSH1 0x7 SWAP1 SWAP5 AND SWAP4 SWAP1 SWAP4 MUL PUSH2 0x100 EXP SWAP3 DUP4 MUL SWAP3 SWAP1 SWAP4 MUL NOT SWAP1 SWAP4 AND OR SWAP1 SSTORE POP JUMPDEST POP POP DUP1 DUP1 PUSH2 0x2824 SWAP1 PUSH2 0x52F8 JUMP JUMPDEST SWAP2 POP POP PUSH2 0x2627 JUMP JUMPDEST POP POP PUSH2 0x28A6 JUMP JUMPDEST PUSH1 0xDE SLOAD PUSH2 0x2842 SWAP1 PUSH1 0x1 SWAP1 PUSH2 0x51DF JUMP JUMPDEST DUP2 PUSH1 0xFF AND SUB PUSH2 0x2894 JUMPI PUSH1 0xDE DUP2 PUSH1 0xFF AND DUP2 SLOAD DUP2 LT PUSH2 0x2861 JUMPI PUSH2 0x2861 PUSH2 0x51B3 JUMP JUMPDEST PUSH1 0x0 SWAP2 DUP3 MSTORE PUSH1 0x20 SWAP1 SWAP2 KECCAK256 ADD SLOAD PUSH1 0x1 PUSH1 0x1 PUSH1 0xA0 SHL SUB AND CALLER EQ PUSH2 0x2894 JUMPI PUSH1 0x40 MLOAD PUSH3 0x461BCD PUSH1 0xE5 SHL DUP2 MSTORE PUSH1 0x4 ADD PUSH2 0xC31 SWAP1 PUSH2 0x51F2 JUMP JUMPDEST DUP1 PUSH2 0x289E DUP2 PUSH2 0x521D JUMP JUMPDEST SWAP2 POP POP PUSH2 0x25E6 JUMP JUMPDEST POP POP POP POP POP POP POP JUMP JUMPDEST PUSH2 0x28B7 PUSH2 0x3193 JUMP JUMPDEST PUSH1 0x1 PUSH1 0x1 PUSH1 0xA0 SHL SUB DUP2 AND PUSH2 0x291C JUMPI PUSH1 0x40 MLOAD PUSH3 0x461BCD PUSH1 0xE5 SHL DUP2 MSTORE PUSH1 0x20 PUSH1 0x4 DUP3 ADD MSTORE PUSH1 0x26 PUSH1 0x24 DUP3 ADD MSTORE PUSH32 0x4F776E61626C653A206E6577206F776E657220697320746865207A65726F2061 PUSH1 0x44 DUP3 ADD MSTORE PUSH6 0x646472657373 PUSH1 0xD0 SHL PUSH1 0x64 DUP3 ADD MSTORE PUSH1 0x84 ADD PUSH2 0xC31 JUMP JUMPDEST PUSH2 0xCD0 DUP2 PUSH2 0x33F6 JUMP JUMPDEST PUSH4 0xFFFFFFFF DUP3 AND PUSH1 0x0 SWAP1 DUP2 MSTORE PUSH1 0xDB PUSH1 0x20 MSTORE PUSH1 0x40 SWAP1 KECCAK256 PUSH1 0x2 DUP2 ADD SLOAD PUSH2 0x100 SWAP1 DIV PUSH1 0x1 PUSH1 0x1 PUSH1 0xA0 SHL SUB AND CALLER EQ PUSH2 0x299B JUMPI PUSH1 0x40 MLOAD PUSH3 0x461BCD PUSH1 0xE5 SHL DUP2 MSTORE PUSH1 0x20 PUSH1 0x4 DUP3 ADD MSTORE PUSH1 0x1D PUSH1 0x24 DUP3 ADD MSTORE PUSH32 0x596F7520617265206E6F74206F776E6572206F6620746869732069642E000000 PUSH1 0x44 DUP3 ADD MSTORE PUSH1 0x64 ADD PUSH2 0xC31 JUMP JUMPDEST PUSH1 0x0 PUSH2 0x29A6 DUP3 PUSH2 0x3E75 JUMP JUMPDEST PUSH1 0x1E DUP4 ADD SLOAD SWAP1 SWAP2 POP PUSH2 0x29B8 DUP2 DUP4 PUSH2 0x51DF JUMP JUMPDEST DUP5 GT ISZERO PUSH2 0x2A1A JUMPI PUSH1 0x40 MLOAD PUSH3 0x461BCD PUSH1 0xE5 SHL DUP2 MSTORE PUSH1 0x20 PUSH1 0x4 DUP3 ADD MSTORE PUSH1 0x2A PUSH1 0x24 DUP3 ADD MSTORE PUSH32 0x506C6561736520656E7465722076616C7565206C657373207468656E20796F75 PUSH1 0x44 DUP3 ADD MSTORE PUSH10 0x39103130B630B731B297 PUSH1 0xB1 SHL PUSH1 0x64 DUP3 ADD MSTORE PUSH1 0x84 ADD PUSH2 0xC31 JUMP JUMPDEST DUP4 DUP4 PUSH1 0x1E ADD PUSH1 0x0 DUP3 DUP3 SLOAD PUSH2 0x2A2E SWAP2 SWAP1 PUSH2 0x53D4 JUMP JUMPDEST SWAP1 SWAP2 SSTORE POP CALLER SWAP1 POP PUSH2 0x8FC PUSH2 0x2A41 DUP7 PUSH2 0x31ED JUMP JUMPDEST PUSH1 0x40 MLOAD DUP2 ISZERO SWAP1 SWAP3 MUL SWAP2 PUSH1 0x0 DUP2 DUP2 DUP2 DUP6 DUP9 DUP9 CALL SWAP4 POP POP POP POP ISZERO DUP1 ISZERO PUSH2 0x2A69 JUMPI RETURNDATASIZE PUSH1 0x0 DUP1 RETURNDATACOPY RETURNDATASIZE PUSH1 0x0 REVERT JUMPDEST POP POP POP POP POP POP JUMP JUMPDEST PUSH2 0x2B7B PUSH1 0x40 MLOAD DUP1 PUSH2 0x400 ADD PUSH1 0x40 MSTORE DUP1 PUSH1 0x0 PUSH4 0xFFFFFFFF AND DUP2 MSTORE PUSH1 0x20 ADD PUSH1 0x60 DUP2 MSTORE PUSH1 0x20 ADD PUSH1 0x0 ISZERO ISZERO DUP2 MSTORE PUSH1 0x20 ADD PUSH1 0x0 PUSH1 0x1 PUSH1 0x1 PUSH1 0xA0 SHL SUB AND DUP2 MSTORE PUSH1 0x20 ADD PUSH1 0x0 DUP2 MSTORE PUSH1 0x20 ADD PUSH1 0x0 DUP2 MSTORE PUSH1 0x20 ADD PUSH1 0x0 PUSH4 0xFFFFFFFF AND DUP2 MSTORE PUSH1 0x20 ADD PUSH1 0x60 DUP2 MSTORE PUSH1 0x20 ADD PUSH1 0x60 DUP2 MSTORE PUSH1 0x20 ADD PUSH1 0x60 DUP2 MSTORE PUSH1 0x20 ADD PUSH1 0x0 DUP2 MSTORE PUSH1 0x20 ADD PUSH1 0x0 DUP2 MSTORE PUSH1 0x20 ADD PUSH1 0x0 DUP2 MSTORE PUSH1 0x20 ADD PUSH1 0x0 DUP2 MSTORE PUSH1 0x20 ADD PUSH1 0x0 DUP2 MSTORE PUSH1 0x20 ADD PUSH1 0x0 DUP2 MSTORE PUSH1 0x20 ADD PUSH1 0x0 DUP2 MSTORE PUSH1 0x20 ADD PUSH1 0x0 DUP2 MSTORE PUSH1 0x20 ADD PUSH1 0x0 PUSH1 0xFF AND DUP2 MSTORE PUSH1 0x20 ADD PUSH1 0x0 DUP2 MSTORE PUSH1 0x20 ADD PUSH1 0x0 DUP2 MSTORE PUSH1 0x20 ADD PUSH1 0x0 DUP2 MSTORE PUSH1 0x20 ADD PUSH1 0x0 DUP2 MSTORE PUSH1 0x20 ADD PUSH1 0x0 DUP2 MSTORE PUSH1 0x20 ADD PUSH1 0x0 DUP2 MSTORE PUSH1 0x20 ADD PUSH1 0x0 DUP2 MSTORE PUSH1 0x20 ADD PUSH1 0x0 DUP2 MSTORE PUSH1 0x20 ADD PUSH1 0x0 DUP2 MSTORE PUSH1 0x20 ADD PUSH1 0x60 DUP2 MSTORE PUSH1 0x20 ADD PUSH1 0x0 DUP2 MSTORE PUSH1 0x20 ADD PUSH1 0x0 DUP2 MSTORE PUSH1 0x20 ADD PUSH1 0x0 DUP2 MSTORE POP SWAP1 JUMP JUMPDEST PUSH4 0xFFFFFFFF DUP1 DUP4 AND PUSH1 0x0 SWAP1 DUP2 MSTORE PUSH1 0xDB PUSH1 0x20 SWAP1 DUP2 MSTORE PUSH1 0x40 SWAP2 DUP3 SWAP1 KECCAK256 DUP3 MLOAD PUSH2 0x400 DUP2 ADD SWAP1 SWAP4 MSTORE DUP1 SLOAD SWAP1 SWAP4 AND DUP3 MSTORE PUSH1 0x1 DUP4 ADD DUP1 SLOAD SWAP3 SWAP4 SWAP3 SWAP2 DUP5 ADD SWAP2 PUSH2 0x2BBC SWAP1 PUSH2 0x533D JUMP JUMPDEST DUP1 PUSH1 0x1F ADD PUSH1 0x20 DUP1 SWAP2 DIV MUL PUSH1 0x20 ADD PUSH1 0x40 MLOAD SWAP1 DUP2 ADD PUSH1 0x40 MSTORE DUP1 SWAP3 SWAP2 SWAP1 DUP2 DUP2 MSTORE PUSH1 0x20 ADD DUP3 DUP1 SLOAD PUSH2 0x2BE8 SWAP1 PUSH2 0x533D JUMP JUMPDEST DUP1 ISZERO PUSH2 0x2C35 JUMPI DUP1 PUSH1 0x1F LT PUSH2 0x2C0A JUMPI PUSH2 0x100 DUP1 DUP4 SLOAD DIV MUL DUP4 MSTORE SWAP2 PUSH1 0x20 ADD SWAP2 PUSH2 0x2C35 JUMP JUMPDEST DUP3 ADD SWAP2 SWAP1 PUSH1 0x0 MSTORE PUSH1 0x20 PUSH1 0x0 KECCAK256 SWAP1 JUMPDEST DUP2 SLOAD DUP2 MSTORE SWAP1 PUSH1 0x1 ADD SWAP1 PUSH1 0x20 ADD DUP1 DUP4 GT PUSH2 0x2C18 JUMPI DUP3 SWAP1 SUB PUSH1 0x1F AND DUP3 ADD SWAP2 JUMPDEST POP POP POP SWAP2 DUP4 MSTORE POP POP PUSH1 0x2 DUP3 ADD SLOAD PUSH1 0xFF DUP2 AND ISZERO ISZERO PUSH1 0x20 DUP1 DUP5 ADD SWAP2 SWAP1 SWAP2 MSTORE PUSH2 0x100 SWAP1 SWAP2 DIV PUSH1 0x1 PUSH1 0x1 PUSH1 0xA0 SHL SUB AND PUSH1 0x40 DUP1 DUP5 ADD SWAP2 SWAP1 SWAP2 MSTORE PUSH1 0x3 DUP5 ADD SLOAD PUSH1 0x60 DUP5 ADD MSTORE PUSH1 0x4 DUP5 ADD SLOAD PUSH1 0x80 DUP5 ADD MSTORE PUSH1 0x5 DUP5 ADD SLOAD PUSH4 0xFFFFFFFF AND PUSH1 0xA0 DUP5 ADD MSTORE PUSH1 0x6 DUP5 ADD DUP1 SLOAD DUP3 MLOAD DUP2 DUP6 MUL DUP2 ADD DUP6 ADD SWAP1 SWAP4 MSTORE DUP1 DUP4 MSTORE PUSH1 0xC0 SWAP1 SWAP5 ADD SWAP4 SWAP2 SWAP3 SWAP1 SWAP2 SWAP1 DUP4 ADD DUP3 DUP3 DUP1 ISZERO PUSH2 0x2D08 JUMPI PUSH1 0x20 MUL DUP3 ADD SWAP2 SWAP1 PUSH1 0x0 MSTORE PUSH1 0x20 PUSH1 0x0 KECCAK256 SWAP1 PUSH1 0x0 SWAP1 JUMPDEST DUP3 DUP3 SWAP1 SLOAD SWAP1 PUSH2 0x100 EXP SWAP1 DIV PUSH4 0xFFFFFFFF AND PUSH4 0xFFFFFFFF AND DUP2 MSTORE PUSH1 0x20 ADD SWAP1 PUSH1 0x4 ADD SWAP1 PUSH1 0x20 DUP3 PUSH1 0x3 ADD DIV SWAP3 DUP4 ADD SWAP3 PUSH1 0x1 SUB DUP3 MUL SWAP2 POP DUP1 DUP5 GT PUSH2 0x2CCB JUMPI SWAP1 POP JUMPDEST POP POP POP POP POP DUP2 MSTORE PUSH1 0x20 ADD PUSH1 0x7 DUP3 ADD DUP1 SLOAD DUP1 PUSH1 0x20 MUL PUSH1 0x20 ADD PUSH1 0x40 MLOAD SWAP1 DUP2 ADD PUSH1 0x40 MSTORE DUP1 SWAP3 SWAP2 SWAP1 DUP2 DUP2 MSTORE PUSH1 0x20 ADD DUP3 DUP1 SLOAD DUP1 ISZERO PUSH2 0x2D8C JUMPI PUSH1 0x20 MUL DUP3 ADD SWAP2 SWAP1 PUSH1 0x0 MSTORE PUSH1 0x20 PUSH1 0x0 KECCAK256 SWAP1 PUSH1 0x0 SWAP1 JUMPDEST DUP3 DUP3 SWAP1 SLOAD SWAP1 PUSH2 0x100 EXP SWAP1 DIV PUSH4 0xFFFFFFFF AND PUSH4 0xFFFFFFFF AND DUP2 MSTORE PUSH1 0x20 ADD SWAP1 PUSH1 0x4 ADD SWAP1 PUSH1 0x20 DUP3 PUSH1 0x3 ADD DIV SWAP3 DUP4 ADD SWAP3 PUSH1 0x1 SUB DUP3 MUL SWAP2 POP DUP1 DUP5 GT PUSH2 0x2D4F JUMPI SWAP1 POP JUMPDEST POP POP POP POP POP DUP2 MSTORE PUSH1 0x20 ADD PUSH1 0x8 DUP3 ADD DUP1 SLOAD DUP1 PUSH1 0x20 MUL PUSH1 0x20 ADD PUSH1 0x40 MLOAD SWAP1 DUP2 ADD PUSH1 0x40 MSTORE DUP1 SWAP3 SWAP2 SWAP1 DUP2 DUP2 MSTORE PUSH1 0x20 ADD DUP3 DUP1 SLOAD DUP1 ISZERO PUSH2 0x2E10 JUMPI PUSH1 0x20 MUL DUP3 ADD SWAP2 SWAP1 PUSH1 0x0 MSTORE PUSH1 0x20 PUSH1 0x0 KECCAK256 SWAP1 PUSH1 0x0 SWAP1 JUMPDEST DUP3 DUP3 SWAP1 SLOAD SWAP1 PUSH2 0x100 EXP SWAP1 DIV PUSH4 0xFFFFFFFF AND PUSH4 0xFFFFFFFF AND DUP2 MSTORE PUSH1 0x20 ADD SWAP1 PUSH1 0x4 ADD SWAP1 PUSH1 0x20 DUP3 PUSH1 0x3 ADD DIV SWAP3 DUP4 ADD SWAP3 PUSH1 0x1 SUB DUP3 MUL SWAP2 POP DUP1 DUP5 GT PUSH2 0x2DD3 JUMPI SWAP1 POP JUMPDEST POP POP POP POP POP DUP2 MSTORE PUSH1 0x20 ADD PUSH1 0x9 DUP3 ADD SLOAD DUP2 MSTORE PUSH1 0x20 ADD PUSH1 0xA DUP3 ADD SLOAD DUP2 MSTORE PUSH1 0x20 ADD PUSH1 0xB DUP3 ADD SLOAD DUP2 MSTORE PUSH1 0x20 ADD PUSH1 0xC DUP3 ADD SLOAD DUP2 MSTORE PUSH1 0x20 ADD PUSH1 0xD DUP3 ADD SLOAD DUP2 MSTORE PUSH1 0x20 ADD PUSH1 0xE DUP3 ADD SLOAD DUP2 MSTORE PUSH1 0x20 ADD PUSH1 0xF DUP3 ADD SLOAD DUP2 MSTORE PUSH1 0x20 ADD PUSH1 0x10 DUP3 ADD SLOAD DUP2 MSTORE PUSH1 0x20 ADD PUSH1 0x11 DUP3 ADD PUSH1 0x0 SWAP1 SLOAD SWAP1 PUSH2 0x100 EXP SWAP1 DIV PUSH1 0xFF AND PUSH1 0xFF AND PUSH1 0xFF AND DUP2 MSTORE PUSH1 0x20 ADD PUSH1 0x12 DUP3 ADD SLOAD DUP2 MSTORE PUSH1 0x20 ADD PUSH1 0x13 DUP3 ADD SLOAD DUP2 MSTORE PUSH1 0x20 ADD PUSH1 0x14 DUP3 ADD SLOAD DUP2 MSTORE PUSH1 0x20 ADD PUSH1 0x15 DUP3 ADD SLOAD DUP2 MSTORE PUSH1 0x20 ADD PUSH1 0x16 DUP3 ADD SLOAD DUP2 MSTORE PUSH1 0x20 ADD PUSH1 0x17 DUP3 ADD SLOAD DUP2 MSTORE PUSH1 0x20 ADD PUSH1 0x18 DUP3 ADD SLOAD DUP2 MSTORE PUSH1 0x20 ADD PUSH1 0x19 DUP3 ADD SLOAD DUP2 MSTORE PUSH1 0x20 ADD PUSH1 0x1A DUP3 ADD SLOAD DUP2 MSTORE PUSH1 0x20 ADD PUSH1 0x1B DUP3 ADD DUP1 SLOAD DUP1 PUSH1 0x20 MUL PUSH1 0x20 ADD PUSH1 0x40 MLOAD SWAP1 DUP2 ADD PUSH1 0x40 MSTORE DUP1 SWAP3 SWAP2 SWAP1 DUP2 DUP2 MSTORE PUSH1 0x20 ADD DUP3 DUP1 SLOAD DUP1 ISZERO PUSH2 0x2F5B JUMPI PUSH1 0x20 MUL DUP3 ADD SWAP2 SWAP1 PUSH1 0x0 MSTORE PUSH1 0x20 PUSH1 0x0 KECCAK256 SWAP1 PUSH1 0x0 SWAP1 JUMPDEST DUP3 DUP3 SWAP1 SLOAD SWAP1 PUSH2 0x100 EXP SWAP1 DIV PUSH4 0xFFFFFFFF AND PUSH4 0xFFFFFFFF AND DUP2 MSTORE PUSH1 0x20 ADD SWAP1 PUSH1 0x4 ADD SWAP1 PUSH1 0x20 DUP3 PUSH1 0x3 ADD DIV SWAP3 DUP4 ADD SWAP3 PUSH1 0x1 SUB DUP3 MUL SWAP2 POP DUP1 DUP5 GT PUSH2 0x2F1E JUMPI SWAP1 POP JUMPDEST POP POP POP POP POP DUP2 MSTORE PUSH1 0x20 ADD PUSH1 0x1C DUP3 ADD SLOAD DUP2 MSTORE PUSH1 0x20 ADD PUSH1 0x1D DUP3 ADD SLOAD DUP2 MSTORE PUSH1 0x20 ADD PUSH1 0x1E DUP3 ADD SLOAD DUP2 MSTORE POP POP SWAP1 POP SWAP2 SWAP1 POP JUMP JUMPDEST PUSH1 0x40 DUP1 MLOAD DUP1 DUP3 ADD SWAP1 SWAP2 MSTORE PUSH1 0x0 DUP2 MSTORE PUSH1 0x60 PUSH1 0x20 DUP3 ADD MSTORE PUSH1 0x1 PUSH1 0x1 PUSH1 0xA0 SHL SUB DUP3 AND PUSH1 0x0 SWAP1 DUP2 MSTORE PUSH1 0xDA PUSH1 0x20 SWAP1 DUP2 MSTORE PUSH1 0x40 SWAP2 DUP3 SWAP1 KECCAK256 DUP3 MLOAD DUP1 DUP5 ADD DUP5 MSTORE DUP2 SLOAD PUSH1 0xFF AND ISZERO ISZERO DUP2 MSTORE PUSH1 0x1 DUP3 ADD DUP1 SLOAD DUP6 MLOAD DUP2 DUP7 MUL DUP2 ADD DUP7 ADD SWAP1 SWAP7 MSTORE DUP1 DUP7 MSTORE SWAP2 SWAP5 SWAP3 SWAP4 DUP6 DUP2 ADD SWAP4 SWAP3 SWAP1 DUP4 ADD DUP3 DUP3 DUP1 ISZERO PUSH2 0x3044 JUMPI PUSH1 0x20 MUL DUP3 ADD SWAP2 SWAP1 PUSH1 0x0 MSTORE PUSH1 0x20 PUSH1 0x0 KECCAK256 SWAP1 PUSH1 0x0 SWAP1 JUMPDEST DUP3 DUP3 SWAP1 SLOAD SWAP1 PUSH2 0x100 EXP SWAP1 DIV PUSH4 0xFFFFFFFF AND PUSH4 0xFFFFFFFF AND DUP2 MSTORE PUSH1 0x20 ADD SWAP1 PUSH1 0x4 ADD SWAP1 PUSH1 0x20 DUP3 PUSH1 0x3 ADD DIV SWAP3 DUP4 ADD SWAP3 PUSH1 0x1 SUB DUP3 MUL SWAP2 POP DUP1 DUP5 GT PUSH2 0x3007 JUMPI SWAP1 POP JUMPDEST POP POP POP POP POP DUP2 MSTORE POP POP SWAP1 POP SWAP2 SWAP1 POP JUMP JUMPDEST PUSH1 0xCC SLOAD CALLVALUE SWAP1 PUSH2 0x3062 SWAP1 PUSH2 0x31ED JUMP JUMPDEST DUP2 LT ISZERO PUSH2 0x30C5 JUMPI PUSH1 0x40 MLOAD PUSH3 0x461BCD PUSH1 0xE5 SHL DUP2 MSTORE PUSH1 0x20 PUSH1 0x4 DUP3 ADD MSTORE PUSH1 0x2B PUSH1 0x24 DUP3 ADD MSTORE PUSH32 0x56616C75652073686F756C6420626520677265617465207468656E206D696E43 PUSH1 0x44 DUP3 ADD MSTORE PUSH11 0x37B73A3934B13ABA34B7B7 PUSH1 0xA9 SHL PUSH1 0x64 DUP3 ADD MSTORE PUSH1 0x84 ADD PUSH2 0xC31 JUMP JUMPDEST CALLER PUSH1 0x0 PUSH2 0x30D1 DUP4 PUSH2 0x3A1A JUMP JUMPDEST PUSH1 0xD1 SLOAD SWAP1 SWAP2 POP TIMESTAMP SWAP1 PUSH1 0x0 SWAP1 PUSH2 0x30F4 SWAP1 PUSH1 0x1 PUSH1 0x40 SHL SWAP1 DIV PUSH4 0xFFFFFFFF AND PUSH1 0x1 PUSH2 0x52D4 JUMP JUMPDEST PUSH4 0xFFFFFFFF DUP8 AND PUSH1 0x0 SWAP1 DUP2 MSTORE PUSH1 0xDB PUSH1 0x20 MSTORE PUSH1 0x40 SWAP1 KECCAK256 PUSH1 0x2 DUP2 ADD SLOAD SWAP2 SWAP3 POP SWAP1 PUSH1 0x1 PUSH1 0x1 PUSH1 0xA0 SHL SUB DUP7 DUP2 AND PUSH2 0x100 SWAP1 SWAP3 DIV AND EQ PUSH2 0x3171 JUMPI PUSH1 0x40 MLOAD PUSH3 0x461BCD PUSH1 0xE5 SHL DUP2 MSTORE PUSH1 0x20 PUSH1 0x4 DUP3 ADD MSTORE PUSH1 0x1D PUSH1 0x24 DUP3 ADD MSTORE PUSH32 0x596F7520617265206E6F74206F776E6572206F6620746869732069642E000000 PUSH1 0x44 DUP3 ADD MSTORE PUSH1 0x64 ADD PUSH2 0xC31 JUMP JUMPDEST PUSH1 0xD4 SLOAD PUSH1 0xFF AND ISZERO PUSH2 0x3188 JUMPI PUSH2 0x3188 DUP8 DUP4 DUP7 DUP7 PUSH2 0x3AA7 JUMP JUMPDEST PUSH2 0x28A6 DUP8 DUP6 DUP6 PUSH2 0x3E99 JUMP JUMPDEST PUSH1 0x33 SLOAD PUSH1 0x1 PUSH1 0x1 PUSH1 0xA0 SHL SUB AND CALLER EQ PUSH2 0x1352 JUMPI PUSH1 0x40 MLOAD PUSH3 0x461BCD PUSH1 0xE5 SHL DUP2 MSTORE PUSH1 0x20 PUSH1 0x4 DUP3 ADD DUP2 SWAP1 MSTORE PUSH1 0x24 DUP3 ADD MSTORE PUSH32 0x4F776E61626C653A2063616C6C6572206973206E6F7420746865206F776E6572 PUSH1 0x44 DUP3 ADD MSTORE PUSH1 0x64 ADD PUSH2 0xC31 JUMP JUMPDEST PUSH1 0x0 DUP1 PUSH1 0xC9 PUSH1 0x0 SWAP1 SLOAD SWAP1 PUSH2 0x100 EXP SWAP1 DIV PUSH1 0x1 PUSH1 0x1 PUSH1 0xA0 SHL SUB AND PUSH1 0x1 PUSH1 0x1 PUSH1 0xA0 SHL SUB AND PUSH4 0x801DFF41 PUSH1 0x40 MLOAD DUP2 PUSH4 0xFFFFFFFF AND PUSH1 0xE0 SHL DUP2 MSTORE PUSH1 0x4 ADD PUSH1 0x20 PUSH1 0x40 MLOAD DUP1 DUP4 SUB DUP2 DUP7 GAS STATICCALL ISZERO DUP1 ISZERO PUSH2 0x3243 JUMPI RETURNDATASIZE PUSH1 0x0 DUP1 RETURNDATACOPY RETURNDATASIZE PUSH1 0x0 REVERT JUMPDEST POP POP POP POP PUSH1 0x40 MLOAD RETURNDATASIZE PUSH1 0x1F NOT PUSH1 0x1F DUP3 ADD AND DUP3 ADD DUP1 PUSH1 0x40 MSTORE POP DUP2 ADD SWAP1 PUSH2 0x3267 SWAP2 SWAP1 PUSH2 0x5404 JUMP JUMPDEST PUSH2 0x3279 DUP5 PUSH8 0xDE0B6B3A7640000 PUSH2 0x538E JUMP JUMPDEST PUSH2 0x1BD8 SWAP2 SWAP1 PUSH2 0x541D JUMP JUMPDEST PUSH2 0xCD0 PUSH2 0x3193 JUMP JUMPDEST PUSH32 0x4910FDFA16FED3260ED0E7147F7CC6DA11A60208B5B9406D12A635614FFD9143 SLOAD PUSH1 0xFF AND ISZERO PUSH2 0x32BE JUMPI PUSH2 0xB69 DUP4 PUSH2 0x3FB5 JUMP JUMPDEST DUP3 PUSH1 0x1 PUSH1 0x1 PUSH1 0xA0 SHL SUB AND PUSH4 0x52D1902D PUSH1 0x40 MLOAD DUP2 PUSH4 0xFFFFFFFF AND PUSH1 0xE0 SHL DUP2 MSTORE PUSH1 0x4 ADD PUSH1 0x20 PUSH1 0x40 MLOAD DUP1 DUP4 SUB DUP2 DUP7 GAS STATICCALL SWAP3 POP POP POP DUP1 ISZERO PUSH2 0x3318 JUMPI POP PUSH1 0x40 DUP1 MLOAD PUSH1 0x1F RETURNDATASIZE SWAP1 DUP2 ADD PUSH1 0x1F NOT AND DUP3 ADD SWAP1 SWAP3 MSTORE PUSH2 0x3315 SWAP2 DUP2 ADD SWAP1 PUSH2 0x5404 JUMP JUMPDEST PUSH1 0x1 JUMPDEST PUSH2 0x337B JUMPI PUSH1 0x40 MLOAD PUSH3 0x461BCD PUSH1 0xE5 SHL DUP2 MSTORE PUSH1 0x20 PUSH1 0x4 DUP3 ADD MSTORE PUSH1 0x2E PUSH1 0x24 DUP3 ADD MSTORE PUSH32 0x45524331393637557067726164653A206E657720696D706C656D656E74617469 PUSH1 0x44 DUP3 ADD MSTORE PUSH14 0x6F6E206973206E6F742055555053 PUSH1 0x90 SHL PUSH1 0x64 DUP3 ADD MSTORE PUSH1 0x84 ADD PUSH2 0xC31 JUMP JUMPDEST PUSH1 0x0 DUP1 MLOAD PUSH1 0x20 PUSH2 0x55C0 DUP4 CODECOPY DUP2 MLOAD SWAP2 MSTORE DUP2 EQ PUSH2 0x33EA JUMPI PUSH1 0x40 MLOAD PUSH3 0x461BCD PUSH1 0xE5 SHL DUP2 MSTORE PUSH1 0x20 PUSH1 0x4 DUP3 ADD MSTORE PUSH1 0x29 PUSH1 0x24 DUP3 ADD MSTORE PUSH32 0x45524331393637557067726164653A20756E737570706F727465642070726F78 PUSH1 0x44 DUP3 ADD MSTORE PUSH9 0x1A58589B1955555251 PUSH1 0xBA SHL PUSH1 0x64 DUP3 ADD MSTORE PUSH1 0x84 ADD PUSH2 0xC31 JUMP JUMPDEST POP PUSH2 0xB69 DUP4 DUP4 DUP4 PUSH2 0x4051 JUMP JUMPDEST PUSH1 0x33 DUP1 SLOAD PUSH1 0x1 PUSH1 0x1 PUSH1 0xA0 SHL SUB DUP4 DUP2 AND PUSH1 0x1 PUSH1 0x1 PUSH1 0xA0 SHL SUB NOT DUP4 AND DUP2 OR SWAP1 SWAP4 SSTORE PUSH1 0x40 MLOAD SWAP2 AND SWAP2 SWAP1 DUP3 SWAP1 PUSH32 0x8BE0079C531659141344CD1FD0A4F28419497F9722A3DAAFE3B4186F6B6457E0 SWAP1 PUSH1 0x0 SWAP1 LOG3 POP POP JUMP JUMPDEST PUSH1 0x0 SLOAD PUSH2 0x100 SWAP1 DIV PUSH1 0xFF AND PUSH2 0x346F JUMPI PUSH1 0x40 MLOAD PUSH3 0x461BCD PUSH1 0xE5 SHL DUP2 MSTORE PUSH1 0x4 ADD PUSH2 0xC31 SWAP1 PUSH2 0x543F JUMP JUMPDEST PUSH2 0x1352 PUSH2 0x4076 JUMP JUMPDEST PUSH1 0x0 SLOAD PUSH2 0x100 SWAP1 DIV PUSH1 0xFF AND PUSH2 0x1352 JUMPI PUSH1 0x40 MLOAD PUSH3 0x461BCD PUSH1 0xE5 SHL DUP2 MSTORE PUSH1 0x4 ADD PUSH2 0xC31 SWAP1 PUSH2 0x543F JUMP JUMPDEST PUSH1 0xE0 DUP2 ADD MLOAD MLOAD PUSH1 0x0 SWAP1 DUP2 DUP2 ISZERO PUSH2 0x1BD8 JUMPI PUSH1 0xD4 SLOAD PUSH1 0x1 SWAP1 PUSH2 0x34C8 SWAP1 PUSH4 0x1000000 SWAP1 DIV PUSH1 0xFF AND DUP5 PUSH2 0x538E JUMP JUMPDEST PUSH2 0x34D2 SWAP2 SWAP1 PUSH2 0x51DF JUMP JUMPDEST SWAP5 SWAP4 POP POP POP POP JUMP JUMPDEST PUSH4 0xFFFFFFFF DUP1 DUP3 AND PUSH1 0x0 SWAP1 DUP2 MSTORE PUSH1 0xDB PUSH1 0x20 SWAP1 DUP2 MSTORE PUSH1 0x40 DUP1 DUP4 KECCAK256 DUP2 MLOAD PUSH2 0x400 DUP2 ADD SWAP1 SWAP3 MSTORE DUP1 SLOAD SWAP1 SWAP5 AND DUP2 MSTORE PUSH1 0x1 DUP5 ADD DUP1 SLOAD SWAP4 SWAP5 DUP6 SWAP5 SWAP3 SWAP4 SWAP1 SWAP3 SWAP1 DUP5 ADD SWAP2 SWAP1 PUSH2 0x3520 SWAP1 PUSH2 0x533D JUMP JUMPDEST DUP1 PUSH1 0x1F ADD PUSH1 0x20 DUP1 SWAP2 DIV MUL PUSH1 0x20 ADD PUSH1 0x40 MLOAD SWAP1 DUP2 ADD PUSH1 0x40 MSTORE DUP1 SWAP3 SWAP2 SWAP1 DUP2 DUP2 MSTORE PUSH1 0x20 ADD DUP3 DUP1 SLOAD PUSH2 0x354C SWAP1 PUSH2 0x533D JUMP JUMPDEST DUP1 ISZERO PUSH2 0x3599 JUMPI DUP1 PUSH1 0x1F LT PUSH2 0x356E JUMPI PUSH2 0x100 DUP1 DUP4 SLOAD DIV MUL DUP4 MSTORE SWAP2 PUSH1 0x20 ADD SWAP2 PUSH2 0x3599 JUMP JUMPDEST DUP3 ADD SWAP2 SWAP1 PUSH1 0x0 MSTORE PUSH1 0x20 PUSH1 0x0 KECCAK256 SWAP1 JUMPDEST DUP2 SLOAD DUP2 MSTORE SWAP1 PUSH1 0x1 ADD SWAP1 PUSH1 0x20 ADD DUP1 DUP4 GT PUSH2 0x357C JUMPI DUP3 SWAP1 SUB PUSH1 0x1F AND DUP3 ADD SWAP2 JUMPDEST POP POP POP SWAP2 DUP4 MSTORE POP POP PUSH1 0x2 DUP3 ADD SLOAD PUSH1 0xFF DUP2 AND ISZERO ISZERO PUSH1 0x20 DUP1 DUP5 ADD SWAP2 SWAP1 SWAP2 MSTORE PUSH2 0x100 SWAP1 SWAP2 DIV PUSH1 0x1 PUSH1 0x1 PUSH1 0xA0 SHL SUB AND PUSH1 0x40 DUP1 DUP5 ADD SWAP2 SWAP1 SWAP2 MSTORE PUSH1 0x3 DUP5 ADD SLOAD PUSH1 0x60 DUP5 ADD MSTORE PUSH1 0x4 DUP5 ADD SLOAD PUSH1 0x80 DUP5 ADD MSTORE PUSH1 0x5 DUP5 ADD SLOAD PUSH4 0xFFFFFFFF AND PUSH1 0xA0 DUP5 ADD MSTORE PUSH1 0x6 DUP5 ADD DUP1 SLOAD DUP3 MLOAD DUP2 DUP6 MUL DUP2 ADD DUP6 ADD SWAP1 SWAP4 MSTORE DUP1 DUP4 MSTORE PUSH1 0xC0 SWAP1 SWAP5 ADD SWAP4 SWAP2 SWAP3 SWAP1 SWAP2 SWAP1 DUP4 ADD DUP3 DUP3 DUP1 ISZERO PUSH2 0x366C JUMPI PUSH1 0x20 MUL DUP3 ADD SWAP2 SWAP1 PUSH1 0x0 MSTORE PUSH1 0x20 PUSH1 0x0 KECCAK256 SWAP1 PUSH1 0x0 SWAP1 JUMPDEST DUP3 DUP3 SWAP1 SLOAD SWAP1 PUSH2 0x100 EXP SWAP1 DIV PUSH4 0xFFFFFFFF AND PUSH4 0xFFFFFFFF AND DUP2 MSTORE PUSH1 0x20 ADD SWAP1 PUSH1 0x4 ADD SWAP1 PUSH1 0x20 DUP3 PUSH1 0x3 ADD DIV SWAP3 DUP4 ADD SWAP3 PUSH1 0x1 SUB DUP3 MUL SWAP2 POP DUP1 DUP5 GT PUSH2 0x362F JUMPI SWAP1 POP JUMPDEST POP POP POP POP POP DUP2 MSTORE PUSH1 0x20 ADD PUSH1 0x7 DUP3 ADD DUP1 SLOAD DUP1 PUSH1 0x20 MUL PUSH1 0x20 ADD PUSH1 0x40 MLOAD SWAP1 DUP2 ADD PUSH1 0x40 MSTORE DUP1 SWAP3 SWAP2 SWAP1 DUP2 DUP2 MSTORE PUSH1 0x20 ADD DUP3 DUP1 SLOAD DUP1 ISZERO PUSH2 0x36F0 JUMPI PUSH1 0x20 MUL DUP3 ADD SWAP2 SWAP1 PUSH1 0x0 MSTORE PUSH1 0x20 PUSH1 0x0 KECCAK256 SWAP1 PUSH1 0x0 SWAP1 JUMPDEST DUP3 DUP3 SWAP1 SLOAD SWAP1 PUSH2 0x100 EXP SWAP1 DIV PUSH4 0xFFFFFFFF AND PUSH4 0xFFFFFFFF AND DUP2 MSTORE PUSH1 0x20 ADD SWAP1 PUSH1 0x4 ADD SWAP1 PUSH1 0x20 DUP3 PUSH1 0x3 ADD DIV SWAP3 DUP4 ADD SWAP3 PUSH1 0x1 SUB DUP3 MUL SWAP2 POP DUP1 DUP5 GT PUSH2 0x36B3 JUMPI SWAP1 POP JUMPDEST POP POP POP POP POP DUP2 MSTORE PUSH1 0x20 ADD PUSH1 0x8 DUP3 ADD DUP1 SLOAD DUP1 PUSH1 0x20 MUL PUSH1 0x20 ADD PUSH1 0x40 MLOAD SWAP1 DUP2 ADD PUSH1 0x40 MSTORE DUP1 SWAP3 SWAP2 SWAP1 DUP2 DUP2 MSTORE PUSH1 0x20 ADD DUP3 DUP1 SLOAD DUP1 ISZERO PUSH2 0x3774 JUMPI PUSH1 0x20 MUL DUP3 ADD SWAP2 SWAP1 PUSH1 0x0 MSTORE PUSH1 0x20 PUSH1 0x0 KECCAK256 SWAP1 PUSH1 0x0 SWAP1 JUMPDEST DUP3 DUP3 SWAP1 SLOAD SWAP1 PUSH2 0x100 EXP SWAP1 DIV PUSH4 0xFFFFFFFF AND PUSH4 0xFFFFFFFF AND DUP2 MSTORE PUSH1 0x20 ADD SWAP1 PUSH1 0x4 ADD SWAP1 PUSH1 0x20 DUP3 PUSH1 0x3 ADD DIV SWAP3 DUP4 ADD SWAP3 PUSH1 0x1 SUB DUP3 MUL SWAP2 POP DUP1 DUP5 GT PUSH2 0x3737 JUMPI SWAP1 POP JUMPDEST POP POP POP POP POP DUP2 MSTORE PUSH1 0x20 ADD PUSH1 0x9 DUP3 ADD SLOAD DUP2 MSTORE PUSH1 0x20 ADD PUSH1 0xA DUP3 ADD SLOAD DUP2 MSTORE PUSH1 0x20 ADD PUSH1 0xB DUP3 ADD SLOAD DUP2 MSTORE PUSH1 0x20 ADD PUSH1 0xC DUP3 ADD SLOAD DUP2 MSTORE PUSH1 0x20 ADD PUSH1 0xD DUP3 ADD SLOAD DUP2 MSTORE PUSH1 0x20 ADD PUSH1 0xE DUP3 ADD SLOAD DUP2 MSTORE PUSH1 0x20 ADD PUSH1 0xF DUP3 ADD SLOAD DUP2 MSTORE PUSH1 0x20 ADD PUSH1 0x10 DUP3 ADD SLOAD DUP2 MSTORE PUSH1 0x20 ADD PUSH1 0x11 DUP3 ADD PUSH1 0x0 SWAP1 SLOAD SWAP1 PUSH2 0x100 EXP SWAP1 DIV PUSH1 0xFF AND PUSH1 0xFF AND PUSH1 0xFF AND DUP2 MSTORE PUSH1 0x20 ADD PUSH1 0x12 DUP3 ADD SLOAD DUP2 MSTORE PUSH1 0x20 ADD PUSH1 0x13 DUP3 ADD SLOAD DUP2 MSTORE PUSH1 0x20 ADD PUSH1 0x14 DUP3 ADD SLOAD DUP2 MSTORE PUSH1 0x20 ADD PUSH1 0x15 DUP3 ADD SLOAD DUP2 MSTORE PUSH1 0x20 ADD PUSH1 0x16 DUP3 ADD SLOAD DUP2 MSTORE PUSH1 0x20 ADD PUSH1 0x17 DUP3 ADD SLOAD DUP2 MSTORE PUSH1 0x20 ADD PUSH1 0x18 DUP3 ADD SLOAD DUP2 MSTORE PUSH1 0x20 ADD PUSH1 0x19 DUP3 ADD SLOAD DUP2 MSTORE PUSH1 0x20 ADD PUSH1 0x1A DUP3 ADD SLOAD DUP2 MSTORE PUSH1 0x20 ADD PUSH1 0x1B DUP3 ADD DUP1 SLOAD DUP1 PUSH1 0x20 MUL PUSH1 0x20 ADD PUSH1 0x40 MLOAD SWAP1 DUP2 ADD PUSH1 0x40 MSTORE DUP1 SWAP3 SWAP2 SWAP1 DUP2 DUP2 MSTORE PUSH1 0x20 ADD DUP3 DUP1 SLOAD DUP1 ISZERO PUSH2 0x38BF JUMPI PUSH1 0x20 MUL DUP3 ADD SWAP2 SWAP1 PUSH1 0x0 MSTORE PUSH1 0x20 PUSH1 0x0 KECCAK256 SWAP1 PUSH1 0x0 SWAP1 JUMPDEST DUP3 DUP3 SWAP1 SLOAD SWAP1 PUSH2 0x100 EXP SWAP1 DIV PUSH4 0xFFFFFFFF AND PUSH4 0xFFFFFFFF AND DUP2 MSTORE PUSH1 0x20 ADD SWAP1 PUSH1 0x4 ADD SWAP1 PUSH1 0x20 DUP3 PUSH1 0x3 ADD DIV SWAP3 DUP4 ADD SWAP3 PUSH1 0x1 SUB DUP3 MUL SWAP2 POP DUP1 DUP5 GT PUSH2 0x3882 JUMPI SWAP1 POP JUMPDEST POP POP POP SWAP2 DUP4 MSTORE POP POP PUSH1 0x1C DUP3 ADD SLOAD PUSH1 0x20 DUP3 ADD MSTORE PUSH1 0x1D DUP3 ADD SLOAD PUSH1 0x40 DUP3 ADD MSTORE PUSH1 0x1E SWAP1 SWAP2 ADD SLOAD PUSH1 0x60 SWAP1 SWAP2 ADD MSTORE PUSH2 0x380 DUP2 ADD MLOAD DUP1 MLOAD PUSH2 0x2C0 DUP4 ADD MLOAD SWAP3 SWAP4 POP SWAP1 SWAP2 PUSH2 0x3905 SWAP1 PUSH1 0x2 PUSH2 0x538E JUMP JUMPDEST DUP4 PUSH2 0x2E0 ADD MLOAD LT DUP1 ISZERO PUSH2 0x3918 JUMPI POP PUSH1 0x0 DUP2 GT JUMPDEST ISZERO PUSH2 0x3A0D JUMPI PUSH1 0x0 JUMPDEST DUP2 DUP2 PUSH2 0xFFFF AND LT ISZERO PUSH2 0x3A07 JUMPI PUSH1 0x0 PUSH1 0xDC PUSH1 0x0 DUP6 DUP5 PUSH2 0xFFFF AND DUP2 MLOAD DUP2 LT PUSH2 0x3948 JUMPI PUSH2 0x3948 PUSH2 0x51B3 JUMP JUMPDEST PUSH1 0x20 MUL PUSH1 0x20 ADD ADD MLOAD PUSH4 0xFFFFFFFF AND PUSH4 0xFFFFFFFF AND DUP2 MSTORE PUSH1 0x20 ADD SWAP1 DUP2 MSTORE PUSH1 0x20 ADD PUSH1 0x0 KECCAK256 SWAP1 POP DUP1 PUSH1 0x0 ADD PUSH1 0x4 SWAP1 SLOAD SWAP1 PUSH2 0x100 EXP SWAP1 DIV PUSH1 0xFF AND ISZERO PUSH2 0x39F4 JUMPI PUSH1 0xCB SLOAD PUSH1 0xD1 SLOAD PUSH1 0x1 DUP4 ADD SLOAD PUSH1 0x0 SWAP3 PUSH2 0xFFFF SWAP1 DUP2 AND SWAP3 PUSH2 0x39AD SWAP3 PUSH1 0x1 PUSH1 0x60 SHL SWAP1 SWAP2 DIV SWAP1 SWAP2 AND SWAP1 PUSH2 0x538E JUMP JUMPDEST PUSH2 0x39B7 SWAP2 SWAP1 PUSH2 0x541D JUMP JUMPDEST SWAP1 POP PUSH1 0x0 DUP3 PUSH1 0x3 ADD SLOAD TIMESTAMP PUSH2 0x39CB SWAP2 SWAP1 PUSH2 0x51DF JUMP JUMPDEST SWAP1 POP PUSH3 0x15180 PUSH2 0x39DB DUP3 DUP5 PUSH2 0x538E JUMP JUMPDEST PUSH2 0x39E5 SWAP2 SWAP1 PUSH2 0x541D JUMP JUMPDEST PUSH2 0x39EF SWAP1 DUP10 PUSH2 0x53D4 JUMP JUMPDEST SWAP8 POP POP POP JUMPDEST POP DUP1 PUSH2 0x39FF DUP2 PUSH2 0x5377 JUMP JUMPDEST SWAP2 POP POP PUSH2 0x3920 JUMP JUMPDEST POP PUSH2 0x3A12 JUMP JUMPDEST PUSH1 0x0 SWAP4 POP JUMPDEST POP POP POP SWAP2 SWAP1 POP JUMP JUMPDEST PUSH1 0x0 DUP1 PUSH8 0xDE0B6B3A7640000 PUSH1 0xC9 PUSH1 0x0 SWAP1 SLOAD SWAP1 PUSH2 0x100 EXP SWAP1 DIV PUSH1 0x1 PUSH1 0x1 PUSH1 0xA0 SHL SUB AND PUSH1 0x1 PUSH1 0x1 PUSH1 0xA0 SHL SUB AND PUSH4 0x801DFF41 PUSH1 0x40 MLOAD DUP2 PUSH4 0xFFFFFFFF AND PUSH1 0xE0 SHL DUP2 MSTORE PUSH1 0x4 ADD PUSH1 0x20 PUSH1 0x40 MLOAD DUP1 DUP4 SUB DUP2 DUP7 GAS STATICCALL ISZERO DUP1 ISZERO PUSH2 0x3A79 JUMPI RETURNDATASIZE PUSH1 0x0 DUP1 RETURNDATACOPY RETURNDATASIZE PUSH1 0x0 REVERT JUMPDEST POP POP POP POP PUSH1 0x40 MLOAD RETURNDATASIZE PUSH1 0x1F NOT PUSH1 0x1F DUP3 ADD AND DUP3 ADD DUP1 PUSH1 0x40 MSTORE POP DUP2 ADD SWAP1 PUSH2 0x3A9D SWAP2 SWAP1 PUSH2 0x5404 JUMP JUMPDEST PUSH2 0x3279 SWAP1 DUP6 PUSH2 0x538E JUMP JUMPDEST PUSH4 0xFFFFFFFF DUP1 DUP5 AND PUSH1 0x0 DUP2 DUP2 MSTORE PUSH1 0xDC PUSH1 0x20 SWAP1 DUP2 MSTORE PUSH1 0x40 DUP1 DUP4 KECCAK256 DUP10 DUP7 AND DUP1 DUP6 MSTORE PUSH1 0xDB DUP5 MSTORE SWAP2 DUP5 KECCAK256 DUP2 SLOAD PUSH6 0x10000000000 SWAP1 SWAP4 MUL PUSH9 0xFFFFFFFFFF00000000 NOT SWAP1 SWAP4 AND SWAP3 SWAP1 SWAP3 OR PUSH1 0x1 PUSH1 0x20 SHL OR DUP2 SSTORE PUSH1 0x1 DUP1 DUP3 ADD DUP10 SWAP1 SSTORE PUSH1 0xD1 DUP1 SLOAD PUSH1 0x2 DUP5 ADD DUP1 SLOAD PUSH2 0xFFFF NOT AND PUSH2 0xFFFF PUSH1 0x1 PUSH1 0x60 SHL SWAP1 SWAP4 DIV SWAP3 SWAP1 SWAP3 AND SWAP2 SWAP1 SWAP2 OR SWAP1 SSTORE PUSH1 0x3 DUP4 ADD DUP10 SWAP1 SSTORE PUSH1 0x1B DUP5 ADD DUP1 SLOAD SWAP3 DUP4 ADD DUP2 SSTORE DUP7 MSTORE SWAP4 SWAP1 SWAP5 KECCAK256 PUSH1 0x8 DUP1 DUP7 DIV SWAP1 SWAP2 ADD DUP1 SLOAD PUSH1 0x7 SWAP1 SWAP7 AND PUSH1 0x4 MUL PUSH2 0x100 EXP SWAP7 DUP8 MUL SWAP7 DUP9 MUL NOT SWAP1 SWAP6 AND SWAP6 SWAP1 SWAP6 OR SWAP1 SWAP4 SSTORE DUP2 SLOAD SWAP3 SWAP5 SWAP1 SWAP4 PUSH1 0x1 PUSH1 0x40 SHL SWAP1 SWAP4 DIV AND SWAP2 PUSH2 0x3B77 DUP4 PUSH2 0x52F8 JUMP JUMPDEST SWAP2 SWAP1 PUSH2 0x100 EXP DUP2 SLOAD DUP2 PUSH4 0xFFFFFFFF MUL NOT AND SWAP1 DUP4 PUSH4 0xFFFFFFFF AND MUL OR SWAP1 SSTORE POP POP POP POP POP POP POP POP JUMP JUMPDEST PUSH4 0xFFFFFFFF DUP10 DUP2 AND PUSH1 0x0 DUP2 DUP2 MSTORE PUSH1 0xDB PUSH1 0x20 MSTORE PUSH1 0x40 DUP2 KECCAK256 DUP1 SLOAD PUSH4 0xFFFFFFFF NOT SWAP1 DUP2 AND SWAP1 SWAP4 OR DUP2 SSTORE PUSH1 0x5 DUP2 ADD DUP1 SLOAD SWAP1 SWAP4 AND SWAP4 DUP12 AND SWAP4 SWAP1 SWAP4 OR SWAP1 SWAP2 SSTORE PUSH1 0x2 DUP3 ADD DUP1 SLOAD PUSH2 0x100 PUSH1 0x1 PUSH1 0xA8 SHL SUB NOT AND PUSH2 0x100 PUSH1 0x1 PUSH1 0x1 PUSH1 0xA0 SHL SUB DUP11 AND MUL OR SWAP1 SSTORE PUSH1 0x3 DUP3 ADD DUP5 SWAP1 SSTORE PUSH1 0x19 DUP3 ADD DUP5 SWAP1 SSTORE PUSH1 0x17 DUP3 ADD DUP6 SWAP1 SSTORE PUSH1 0x9 DUP3 ADD DUP1 SLOAD DUP8 SWAP3 SWAP1 PUSH2 0x3C22 SWAP1 DUP5 SWAP1 PUSH2 0x53D4 JUMP JUMPDEST SWAP1 SWAP2 SSTORE POP POP PUSH1 0x1 DUP2 ADD PUSH2 0x3C35 DUP11 DUP3 PUSH2 0x54D0 JUMP JUMPDEST POP PUSH1 0x0 JUMPDEST DUP3 PUSH1 0xFF AND DUP2 PUSH1 0xFF AND LT ISZERO PUSH2 0x3E2C JUMPI PUSH1 0x5 DUP3 ADD SLOAD PUSH4 0xFFFFFFFF SWAP1 DUP2 AND PUSH1 0x0 DUP2 DUP2 MSTORE PUSH1 0xDB PUSH1 0x20 MSTORE PUSH1 0x40 DUP2 KECCAK256 DUP1 SLOAD SWAP3 SWAP4 SWAP1 SWAP3 AND SWAP1 SUB PUSH2 0x3C76 JUMPI POP POP PUSH2 0x3E2C JUMP JUMPDEST DUP3 PUSH1 0xFF AND PUSH1 0x0 SUB PUSH2 0x3CFF JUMPI DUP8 DUP2 PUSH1 0xB ADD PUSH1 0x0 DUP3 DUP3 SLOAD PUSH2 0x3C95 SWAP2 SWAP1 PUSH2 0x53D4 JUMP JUMPDEST SWAP3 POP POP DUP2 SWAP1 SSTORE POP DUP1 PUSH1 0x6 ADD DUP14 SWAP1 DUP1 PUSH1 0x1 DUP2 SLOAD ADD DUP1 DUP3 SSTORE DUP1 SWAP2 POP POP PUSH1 0x1 SWAP1 SUB SWAP1 PUSH1 0x0 MSTORE PUSH1 0x20 PUSH1 0x0 KECCAK256 SWAP1 PUSH1 0x8 SWAP2 DUP3 DUP3 DIV ADD SWAP2 SWAP1 MOD PUSH1 0x4 MUL SWAP1 SWAP2 SWAP1 SWAP2 SWAP1 SWAP2 PUSH2 0x100 EXP DUP2 SLOAD DUP2 PUSH4 0xFFFFFFFF MUL NOT AND SWAP1 DUP4 PUSH4 0xFFFFFFFF AND MUL OR SWAP1 SSTORE POP DUP10 DUP2 PUSH1 0x1 ADD SWAP1 DUP2 PUSH2 0x3CFD SWAP2 SWAP1 PUSH2 0x54D0 JUMP JUMPDEST POP JUMPDEST DUP8 DUP2 PUSH1 0xD ADD PUSH1 0x0 DUP3 DUP3 SLOAD PUSH2 0x3D13 SWAP2 SWAP1 PUSH2 0x53D4 JUMP JUMPDEST SWAP3 POP POP DUP2 SWAP1 SSTORE POP DUP1 PUSH1 0x7 ADD DUP14 SWAP1 DUP1 PUSH1 0x1 DUP2 SLOAD ADD DUP1 DUP3 SSTORE DUP1 SWAP2 POP POP PUSH1 0x1 SWAP1 SUB SWAP1 PUSH1 0x0 MSTORE PUSH1 0x20 PUSH1 0x0 KECCAK256 SWAP1 PUSH1 0x8 SWAP2 DUP3 DUP3 DIV ADD SWAP2 SWAP1 MOD PUSH1 0x4 MUL SWAP1 SWAP2 SWAP1 SWAP2 SWAP1 SWAP2 PUSH2 0x100 EXP DUP2 SLOAD DUP2 PUSH4 0xFFFFFFFF MUL NOT AND SWAP1 DUP4 PUSH4 0xFFFFFFFF AND MUL OR SWAP1 SSTORE POP DUP13 PUSH4 0xFFFFFFFF AND DUP12 PUSH4 0xFFFFFFFF AND DUP3 PUSH1 0x2 ADD PUSH1 0x1 SWAP1 SLOAD SWAP1 PUSH2 0x100 EXP SWAP1 DIV PUSH1 0x1 PUSH1 0x1 PUSH1 0xA0 SHL SUB AND PUSH1 0x1 PUSH1 0x1 PUSH1 0xA0 SHL SUB AND PUSH32 0xA7FAFC728EC30E34DC1E1276496BF3EB44CA7494679DA969455289E6A8F0F1F6 DUP8 PUSH1 0x5 ADD PUSH1 0x0 SWAP1 SLOAD SWAP1 PUSH2 0x100 EXP SWAP1 DIV PUSH4 0xFFFFFFFF AND PUSH1 0x40 MLOAD PUSH2 0x3DE8 SWAP2 SWAP1 PUSH4 0xFFFFFFFF SWAP2 SWAP1 SWAP2 AND DUP2 MSTORE PUSH1 0x20 ADD SWAP1 JUMP JUMPDEST PUSH1 0x40 MLOAD DUP1 SWAP2 SUB SWAP1 LOG4 PUSH1 0xD4 SLOAD PUSH2 0x100 SWAP1 DIV PUSH1 0xFF AND ISZERO PUSH2 0x3E0C JUMPI PUSH2 0x3E0C DUP2 DUP4 DUP11 DUP10 PUSH2 0x40A6 JUMP JUMPDEST PUSH2 0x3E16 DUP9 DUP8 PUSH2 0x474A JUMP JUMPDEST SWAP3 POP DUP2 SWAP1 POP PUSH2 0x3E24 DUP2 PUSH2 0x521D JUMP JUMPDEST SWAP2 POP POP PUSH2 0x3C39 JUMP JUMPDEST POP PUSH1 0xD1 DUP1 SLOAD PUSH1 0x1 PUSH1 0x20 SHL SWAP1 DIV PUSH4 0xFFFFFFFF AND SWAP1 PUSH1 0x4 PUSH2 0x3E4A DUP4 PUSH2 0x52F8 JUMP JUMPDEST SWAP2 SWAP1 PUSH2 0x100 EXP DUP2 SLOAD DUP2 PUSH4 0xFFFFFFFF MUL NOT AND SWAP1 DUP4 PUSH4 0xFFFFFFFF AND MUL OR SWAP1 SSTORE POP POP POP POP POP POP POP POP POP POP POP POP JUMP JUMPDEST PUSH1 0x0 DUP2 PUSH1 0x17 ADD SLOAD DUP3 PUSH1 0x16 ADD SLOAD LT ISZERO PUSH2 0x3E91 JUMPI DUP2 PUSH1 0x16 ADD SLOAD PUSH2 0x1BEA JUMP JUMPDEST POP PUSH1 0x17 ADD SLOAD SWAP1 JUMP JUMPDEST PUSH1 0xCB SLOAD PUSH4 0xFFFFFFFF DUP5 AND PUSH1 0x0 SWAP1 DUP2 MSTORE PUSH1 0xDB PUSH1 0x20 MSTORE PUSH1 0x40 SWAP1 KECCAK256 PUSH3 0x10000 SWAP1 SWAP2 DIV PUSH1 0xFF AND SWAP1 PUSH2 0x3EC7 DUP5 PUSH1 0x2 PUSH2 0x538E JUMP JUMPDEST DUP2 PUSH1 0x17 ADD DUP2 SWAP1 SSTORE POP DUP4 DUP2 PUSH1 0x9 ADD PUSH1 0x0 DUP3 DUP3 SLOAD PUSH2 0x3EE3 SWAP2 SWAP1 PUSH2 0x53D4 JUMP JUMPDEST SWAP3 POP POP DUP2 SWAP1 SSTORE POP DUP4 DUP2 PUSH1 0x15 ADD PUSH1 0x0 DUP3 DUP3 SLOAD PUSH2 0x3EFE SWAP2 SWAP1 PUSH2 0x53D4 JUMP JUMPDEST SWAP1 SWAP2 SSTORE POP PUSH1 0x0 SWAP1 POP JUMPDEST DUP3 DUP2 LT ISZERO PUSH2 0x2A69 JUMPI PUSH1 0x5 DUP3 ADD SLOAD PUSH4 0xFFFFFFFF SWAP1 DUP2 AND PUSH1 0x0 DUP2 DUP2 MSTORE PUSH1 0xDB PUSH1 0x20 MSTORE PUSH1 0x40 DUP2 KECCAK256 DUP1 SLOAD SWAP3 SWAP4 SWAP1 SWAP3 AND SWAP1 SUB PUSH2 0x3F3E JUMPI POP POP PUSH2 0x2A69 JUMP JUMPDEST DUP3 PUSH1 0x0 SUB PUSH2 0x3F60 JUMPI DUP7 DUP2 PUSH1 0xB ADD PUSH1 0x0 DUP3 DUP3 SLOAD PUSH2 0x3F5A SWAP2 SWAP1 PUSH2 0x53D4 JUMP JUMPDEST SWAP1 SWAP2 SSTORE POP POP JUMPDEST DUP7 DUP2 PUSH1 0xD ADD PUSH1 0x0 DUP3 DUP3 SLOAD PUSH2 0x3F74 SWAP2 SWAP1 PUSH2 0x53D4 JUMP JUMPDEST SWAP1 SWAP2 SSTORE POP POP PUSH1 0xD4 SLOAD PUSH2 0x100 SWAP1 DIV PUSH1 0xFF AND ISZERO PUSH2 0x3F95 JUMPI PUSH2 0x3F95 DUP2 DUP4 DUP10 DUP10 PUSH2 0x40A6 JUMP JUMPDEST PUSH2 0x3F9F DUP8 DUP8 PUSH2 0x474A JUMP JUMPDEST SWAP3 POP DUP2 SWAP1 POP PUSH2 0x3FAD DUP2 PUSH2 0x53BB JUMP JUMPDEST SWAP2 POP POP PUSH2 0x3F07 JUMP JUMPDEST PUSH1 0x1 PUSH1 0x1 PUSH1 0xA0 SHL SUB DUP2 AND EXTCODESIZE PUSH2 0x4022 JUMPI PUSH1 0x40 MLOAD PUSH3 0x461BCD PUSH1 0xE5 SHL DUP2 MSTORE PUSH1 0x20 PUSH1 0x4 DUP3 ADD MSTORE PUSH1 0x2D PUSH1 0x24 DUP3 ADD MSTORE PUSH32 0x455243313936373A206E657720696D706C656D656E746174696F6E206973206E PUSH1 0x44 DUP3 ADD MSTORE PUSH13 0x1BDD08184818DBDB9D1C9858DD PUSH1 0x9A SHL PUSH1 0x64 DUP3 ADD MSTORE PUSH1 0x84 ADD PUSH2 0xC31 JUMP JUMPDEST PUSH1 0x0 DUP1 MLOAD PUSH1 0x20 PUSH2 0x55C0 DUP4 CODECOPY DUP2 MLOAD SWAP2 MSTORE DUP1 SLOAD PUSH1 0x1 PUSH1 0x1 PUSH1 0xA0 SHL SUB NOT AND PUSH1 0x1 PUSH1 0x1 PUSH1 0xA0 SHL SUB SWAP3 SWAP1 SWAP3 AND SWAP2 SWAP1 SWAP2 OR SWAP1 SSTORE JUMP JUMPDEST PUSH2 0x405A DUP4 PUSH2 0x4784 JUMP JUMPDEST PUSH1 0x0 DUP3 MLOAD GT DUP1 PUSH2 0x4067 JUMPI POP DUP1 JUMPDEST ISZERO PUSH2 0xB69 JUMPI PUSH2 0x1015 DUP4 DUP4 PUSH2 0x47C4 JUMP JUMPDEST PUSH1 0x0 SLOAD PUSH2 0x100 SWAP1 DIV PUSH1 0xFF AND PUSH2 0x409D JUMPI PUSH1 0x40 MLOAD PUSH3 0x461BCD PUSH1 0xE5 SHL DUP2 MSTORE PUSH1 0x4 ADD PUSH2 0xC31 SWAP1 PUSH2 0x543F JUMP JUMPDEST PUSH2 0x1352 CALLER PUSH2 0x33F6 JUMP JUMPDEST PUSH1 0x11 DUP5 ADD SLOAD PUSH1 0x40 DUP1 MLOAD PUSH2 0x400 DUP2 ADD SWAP1 SWAP2 MSTORE DUP6 SLOAD PUSH4 0xFFFFFFFF AND DUP2 MSTORE PUSH1 0x1 DUP7 ADD DUP1 SLOAD PUSH1 0xFF SWAP1 SWAP4 AND SWAP3 PUSH2 0x44AE SWAP3 SWAP2 DUP9 SWAP2 PUSH1 0x20 DUP5 ADD SWAP2 SWAP1 PUSH2 0x40E3 SWAP1 PUSH2 0x533D JUMP JUMPDEST DUP1 PUSH1 0x1F ADD PUSH1 0x20 DUP1 SWAP2 DIV MUL PUSH1 0x20 ADD PUSH1 0x40 MLOAD SWAP1 DUP2 ADD PUSH1 0x40 MSTORE DUP1 SWAP3 SWAP2 SWAP1 DUP2 DUP2 MSTORE PUSH1 0x20 ADD DUP3 DUP1 SLOAD PUSH2 0x410F SWAP1 PUSH2 0x533D JUMP JUMPDEST DUP1 ISZERO PUSH2 0x415C JUMPI DUP1 PUSH1 0x1F LT PUSH2 0x4131 JUMPI PUSH2 0x100 DUP1 DUP4 SLOAD DIV MUL DUP4 MSTORE SWAP2 PUSH1 0x20 ADD SWAP2 PUSH2 0x415C JUMP JUMPDEST DUP3 ADD SWAP2 SWAP1 PUSH1 0x0 MSTORE PUSH1 0x20 PUSH1 0x0 KECCAK256 SWAP1 JUMPDEST DUP2 SLOAD DUP2 MSTORE SWAP1 PUSH1 0x1 ADD SWAP1 PUSH1 0x20 ADD DUP1 DUP4 GT PUSH2 0x413F JUMPI DUP3 SWAP1 SUB PUSH1 0x1F AND DUP3 ADD SWAP2 JUMPDEST POP POP POP SWAP2 DUP4 MSTORE POP POP PUSH1 0x2 DUP3 ADD SLOAD PUSH1 0xFF DUP2 AND ISZERO ISZERO PUSH1 0x20 DUP1 DUP5 ADD SWAP2 SWAP1 SWAP2 MSTORE PUSH2 0x100 SWAP1 SWAP2 DIV PUSH1 0x1 PUSH1 0x1 PUSH1 0xA0 SHL SUB AND PUSH1 0x40 DUP1 DUP5 ADD SWAP2 SWAP1 SWAP2 MSTORE PUSH1 0x3 DUP5 ADD SLOAD PUSH1 0x60 DUP5 ADD MSTORE PUSH1 0x4 DUP5 ADD SLOAD PUSH1 0x80 DUP5 ADD MSTORE PUSH1 0x5 DUP5 ADD SLOAD PUSH4 0xFFFFFFFF AND PUSH1 0xA0 DUP5 ADD MSTORE PUSH1 0x6 DUP5 ADD DUP1 SLOAD DUP3 MLOAD DUP2 DUP6 MUL DUP2 ADD DUP6 ADD SWAP1 SWAP4 MSTORE DUP1 DUP4 MSTORE PUSH1 0xC0 SWAP1 SWAP5 ADD SWAP4 SWAP2 SWAP3 SWAP1 SWAP2 SWAP1 DUP4 ADD DUP3 DUP3 DUP1 ISZERO PUSH2 0x422F JUMPI PUSH1 0x20 MUL DUP3 ADD SWAP2 SWAP1 PUSH1 0x0 MSTORE PUSH1 0x20 PUSH1 0x0 KECCAK256 SWAP1 PUSH1 0x0 SWAP1 JUMPDEST DUP3 DUP3 SWAP1 SLOAD SWAP1 PUSH2 0x100 EXP SWAP1 DIV PUSH4 0xFFFFFFFF AND PUSH4 0xFFFFFFFF AND DUP2 MSTORE PUSH1 0x20 ADD SWAP1 PUSH1 0x4 ADD SWAP1 PUSH1 0x20 DUP3 PUSH1 0x3 ADD DIV SWAP3 DUP4 ADD SWAP3 PUSH1 0x1 SUB DUP3 MUL SWAP2 POP DUP1 DUP5 GT PUSH2 0x41F2 JUMPI SWAP1 POP JUMPDEST POP POP POP POP POP DUP2 MSTORE PUSH1 0x20 ADD PUSH1 0x7 DUP3 ADD DUP1 SLOAD DUP1 PUSH1 0x20 MUL PUSH1 0x20 ADD PUSH1 0x40 MLOAD SWAP1 DUP2 ADD PUSH1 0x40 MSTORE DUP1 SWAP3 SWAP2 SWAP1 DUP2 DUP2 MSTORE PUSH1 0x20 ADD DUP3 DUP1 SLOAD DUP1 ISZERO PUSH2 0x42B3 JUMPI PUSH1 0x20 MUL DUP3 ADD SWAP2 SWAP1 PUSH1 0x0 MSTORE PUSH1 0x20 PUSH1 0x0 KECCAK256 SWAP1 PUSH1 0x0 SWAP1 JUMPDEST DUP3 DUP3 SWAP1 SLOAD SWAP1 PUSH2 0x100 EXP SWAP1 DIV PUSH4 0xFFFFFFFF AND PUSH4 0xFFFFFFFF AND DUP2 MSTORE PUSH1 0x20 ADD SWAP1 PUSH1 0x4 ADD SWAP1 PUSH1 0x20 DUP3 PUSH1 0x3 ADD DIV SWAP3 DUP4 ADD SWAP3 PUSH1 0x1 SUB DUP3 MUL SWAP2 POP DUP1 DUP5 GT PUSH2 0x4276 JUMPI SWAP1 POP JUMPDEST POP POP POP POP POP DUP2 MSTORE PUSH1 0x20 ADD PUSH1 0x8 DUP3 ADD DUP1 SLOAD DUP1 PUSH1 0x20 MUL PUSH1 0x20 ADD PUSH1 0x40 MLOAD SWAP1 DUP2 ADD PUSH1 0x40 MSTORE DUP1 SWAP3 SWAP2 SWAP1 DUP2 DUP2 MSTORE PUSH1 0x20 ADD DUP3 DUP1 SLOAD DUP1 ISZERO PUSH2 0x4337 JUMPI PUSH1 0x20 MUL DUP3 ADD SWAP2 SWAP1 PUSH1 0x0 MSTORE PUSH1 0x20 PUSH1 0x0 KECCAK256 SWAP1 PUSH1 0x0 SWAP1 JUMPDEST DUP3 DUP3 SWAP1 SLOAD SWAP1 PUSH2 0x100 EXP SWAP1 DIV PUSH4 0xFFFFFFFF AND PUSH4 0xFFFFFFFF AND DUP2 MSTORE PUSH1 0x20 ADD SWAP1 PUSH1 0x4 ADD SWAP1 PUSH1 0x20 DUP3 PUSH1 0x3 ADD DIV SWAP3 DUP4 ADD SWAP3 PUSH1 0x1 SUB DUP3 MUL SWAP2 POP DUP1 DUP5 GT PUSH2 0x42FA JUMPI SWAP1 POP JUMPDEST POP POP POP POP POP DUP2 MSTORE PUSH1 0x20 ADD PUSH1 0x9 DUP3 ADD SLOAD DUP2 MSTORE PUSH1 0x20 ADD PUSH1 0xA DUP3 ADD SLOAD DUP2 MSTORE PUSH1 0x20 ADD PUSH1 0xB DUP3 ADD SLOAD DUP2 MSTORE PUSH1 0x20 ADD PUSH1 0xC DUP3 ADD SLOAD DUP2 MSTORE PUSH1 0x20 ADD PUSH1 0xD DUP3 ADD SLOAD DUP2 MSTORE PUSH1 0x20 ADD PUSH1 0xE DUP3 ADD SLOAD DUP2 MSTORE PUSH1 0x20 ADD PUSH1 0xF DUP3 ADD SLOAD DUP2 MSTORE PUSH1 0x20 ADD PUSH1 0x10 DUP3 ADD SLOAD DUP2 MSTORE PUSH1 0x20 ADD PUSH1 0x11 DUP3 ADD PUSH1 0x0 SWAP1 SLOAD SWAP1 PUSH2 0x100 EXP SWAP1 DIV PUSH1 0xFF AND PUSH1 0xFF AND PUSH1 0xFF AND DUP2 MSTORE PUSH1 0x20 ADD PUSH1 0x12 DUP3 ADD SLOAD DUP2 MSTORE PUSH1 0x20 ADD PUSH1 0x13 DUP3 ADD SLOAD DUP2 MSTORE PUSH1 0x20 ADD PUSH1 0x14 DUP3 ADD SLOAD DUP2 MSTORE PUSH1 0x20 ADD PUSH1 0x15 DUP3 ADD SLOAD DUP2 MSTORE PUSH1 0x20 ADD PUSH1 0x16 DUP3 ADD SLOAD DUP2 MSTORE PUSH1 0x20 ADD PUSH1 0x17 DUP3 ADD SLOAD DUP2 MSTORE PUSH1 0x20 ADD PUSH1 0x18 DUP3 ADD SLOAD DUP2 MSTORE PUSH1 0x20 ADD PUSH1 0x19 DUP3 ADD SLOAD DUP2 MSTORE PUSH1 0x20 ADD PUSH1 0x1A DUP3 ADD SLOAD DUP2 MSTORE PUSH1 0x20 ADD PUSH1 0x1B DUP3 ADD DUP1 SLOAD DUP1 PUSH1 0x20 MUL PUSH1 0x20 ADD PUSH1 0x40 MLOAD SWAP1 DUP2 ADD PUSH1 0x40 MSTORE DUP1 SWAP3 SWAP2 SWAP1 DUP2 DUP2 MSTORE PUSH1 0x20 ADD DUP3 DUP1 SLOAD DUP1 ISZERO PUSH2 0x4482 JUMPI PUSH1 0x20 MUL DUP3 ADD SWAP2 SWAP1 PUSH1 0x0 MSTORE PUSH1 0x20 PUSH1 0x0 KECCAK256 SWAP1 PUSH1 0x0 SWAP1 JUMPDEST DUP3 DUP3 SWAP1 SLOAD SWAP1 PUSH2 0x100 EXP SWAP1 DIV PUSH4 0xFFFFFFFF AND PUSH4 0xFFFFFFFF AND DUP2 MSTORE PUSH1 0x20 ADD SWAP1 PUSH1 0x4 ADD SWAP1 PUSH1 0x20 DUP3 PUSH1 0x3 ADD DIV SWAP3 DUP4 ADD SWAP3 PUSH1 0x1 SUB DUP3 MUL SWAP2 POP DUP1 DUP5 GT PUSH2 0x4445 JUMPI SWAP1 POP JUMPDEST POP POP POP POP POP DUP2 MSTORE PUSH1 0x20 ADD PUSH1 0x1C DUP3 ADD SLOAD DUP2 MSTORE PUSH1 0x20 ADD PUSH1 0x1D DUP3 ADD SLOAD DUP2 MSTORE PUSH1 0x20 ADD PUSH1 0x1E DUP3 ADD SLOAD DUP2 MSTORE POP POP PUSH2 0x48B8 JUMP JUMPDEST PUSH1 0xFF AND GT ISZERO PUSH2 0x1015 JUMPI PUSH1 0x40 DUP1 MLOAD PUSH2 0x400 DUP2 ADD SWAP1 SWAP2 MSTORE DUP5 SLOAD PUSH4 0xFFFFFFFF AND DUP2 MSTORE PUSH1 0x1 DUP6 ADD DUP1 SLOAD PUSH2 0x44E9 SWAP3 SWAP2 DUP8 SWAP2 PUSH1 0x20 DUP5 ADD SWAP2 SWAP1 PUSH2 0x40E3 SWAP1 PUSH2 0x533D JUMP JUMPDEST PUSH1 0x11 DUP6 ADD DUP1 SLOAD PUSH1 0xFF NOT AND PUSH1 0xFF SWAP3 DUP4 AND SWAP1 DUP2 OR DUP3 SSTORE PUSH1 0x0 SWAP1 DUP2 MSTORE PUSH1 0xDD PUSH1 0x20 SWAP1 DUP2 MSTORE PUSH1 0x40 DUP1 DUP4 KECCAK256 PUSH1 0x9 SWAP1 DUP2 ADD DUP1 SLOAD PUSH1 0x1 DUP2 DUP2 ADD DUP4 SSTORE SWAP2 DUP7 MSTORE SWAP4 DUP6 KECCAK256 PUSH1 0x8 DUP6 DIV ADD DUP1 SLOAD PUSH1 0x7 SWAP1 SWAP6 AND PUSH1 0x4 MUL PUSH2 0x100 EXP PUSH4 0xFFFFFFFF DUP2 DUP2 MUL NOT SWAP1 SWAP7 AND SWAP6 DUP13 AND MUL SWAP5 SWAP1 SWAP5 OR SWAP1 SWAP4 SSTORE SWAP4 SLOAD SWAP1 SWAP5 AND DUP3 MSTORE SWAP3 SWAP1 KECCAK256 ADD SLOAD PUSH2 0x4562 SWAP2 SWAP1 PUSH2 0x51DF JUMP JUMPDEST PUSH1 0x12 DUP6 ADD DUP2 SWAP1 SSTORE PUSH1 0x11 DUP6 ADD SLOAD PUSH1 0x40 DUP1 MLOAD PUSH4 0xFFFFFFFF DUP8 AND DUP2 MSTORE PUSH1 0x20 DUP2 ADD SWAP4 SWAP1 SWAP4 MSTORE PUSH1 0xFF SWAP1 SWAP2 AND DUP3 DUP3 ADD MSTORE MLOAD PUSH32 0xB0D3A9C683344E744A1AE3DB383F75A8A01851282C5FE97D6159C1392A2E2A0A SWAP2 DUP2 SWAP1 SUB PUSH1 0x60 ADD SWAP1 LOG1 PUSH1 0x40 DUP1 MLOAD PUSH2 0x400 DUP2 ADD SWAP1 SWAP2 MSTORE DUP5 SLOAD PUSH4 0xFFFFFFFF AND DUP2 MSTORE PUSH1 0x1 DUP6 ADD DUP1 SLOAD PUSH1 0xDD SWAP3 PUSH1 0x0 SWAP3 PUSH2 0x45ED SWAP3 DUP10 SWAP2 PUSH1 0x20 DUP5 ADD SWAP2 PUSH2 0x40E3 SWAP1 PUSH2 0x533D JUMP JUMPDEST PUSH1 0xFF SWAP1 DUP2 AND DUP3 MSTORE PUSH1 0x20 DUP3 ADD SWAP3 SWAP1 SWAP3 MSTORE PUSH1 0x40 ADD PUSH1 0x0 KECCAK256 PUSH1 0x8 ADD SLOAD PUSH2 0x100 SWAP1 DIV AND ISZERO PUSH2 0x46B1 JUMPI PUSH1 0x40 DUP1 MLOAD PUSH2 0x400 DUP2 ADD SWAP1 SWAP2 MSTORE DUP5 SLOAD PUSH4 0xFFFFFFFF AND DUP2 MSTORE PUSH1 0x1 DUP6 ADD DUP1 SLOAD PUSH1 0xDD SWAP3 PUSH1 0x0 SWAP3 PUSH2 0x4647 SWAP3 DUP10 SWAP2 PUSH1 0x20 DUP5 ADD SWAP2 PUSH2 0x40E3 SWAP1 PUSH2 0x533D JUMP JUMPDEST PUSH1 0xFF AND PUSH1 0xFF AND DUP2 MSTORE PUSH1 0x20 ADD SWAP1 DUP2 MSTORE PUSH1 0x20 ADD PUSH1 0x0 KECCAK256 PUSH1 0x7 ADD SLOAD DUP5 PUSH1 0x10 ADD SLOAD PUSH2 0x466E SWAP2 SWAP1 PUSH2 0x53D4 JUMP JUMPDEST DUP2 GT ISZERO PUSH2 0x469D JUMPI DUP1 DUP5 PUSH1 0x10 ADD DUP2 SWAP1 SSTORE POP DUP2 DUP5 PUSH1 0xF ADD PUSH1 0x0 DUP3 DUP3 SLOAD PUSH2 0x4692 SWAP2 SWAP1 PUSH2 0x53D4 JUMP JUMPDEST SWAP1 SWAP2 SSTORE POP PUSH2 0x1015 SWAP1 POP JUMP JUMPDEST DUP2 DUP5 PUSH1 0xF ADD PUSH1 0x0 DUP3 DUP3 SLOAD PUSH2 0x4692 SWAP2 SWAP1 PUSH2 0x53D4 JUMP JUMPDEST PUSH1 0xD4 SLOAD PUSH2 0x100 SWAP1 DIV PUSH1 0xFF AND ISZERO PUSH2 0x1015 JUMPI PUSH1 0x11 DUP5 ADD SLOAD PUSH1 0xFF AND PUSH1 0x0 SWAP1 DUP2 MSTORE PUSH1 0xDD PUSH1 0x20 MSTORE PUSH1 0x40 SWAP1 KECCAK256 PUSH1 0x5 ADD SLOAD PUSH2 0x46E6 SWAP1 DUP6 SWAP1 PUSH2 0x4966 JUMP JUMPDEST PUSH1 0x11 DUP5 ADD SLOAD PUSH1 0xFF SWAP1 DUP2 AND PUSH1 0x0 SWAP1 DUP2 MSTORE PUSH1 0xDD PUSH1 0x20 SWAP1 DUP2 MSTORE PUSH1 0x40 SWAP2 DUP3 SWAP1 KECCAK256 PUSH1 0x5 DUP2 ADD SLOAD SWAP1 SLOAD SWAP3 MLOAD SWAP3 SWAP1 SWAP4 AND DUP3 MSTORE PUSH4 0xFFFFFFFF DUP7 AND SWAP2 PUSH32 0x94B6D3D19CC40938E685EF6A1F6476B53EF65295AB094A044E74405A8D0BD05B SWAP2 ADD PUSH1 0x40 MLOAD DUP1 SWAP2 SUB SWAP1 LOG3 POP POP POP POP JUMP JUMPDEST PUSH1 0xD7 SLOAD PUSH1 0xD6 SLOAD PUSH2 0x475A SWAP2 SWAP1 PUSH2 0x53D4 JUMP JUMPDEST DUP2 GT ISZERO PUSH2 0x4769 JUMPI PUSH1 0xD6 SSTORE PUSH1 0xD5 SSTORE JUMP JUMPDEST DUP2 PUSH1 0xD5 PUSH1 0x0 DUP3 DUP3 SLOAD PUSH2 0x477B SWAP2 SWAP1 PUSH2 0x53D4 JUMP JUMPDEST SWAP1 SWAP2 SSTORE POP POP POP POP JUMP JUMPDEST PUSH2 0x478D DUP2 PUSH2 0x3FB5 JUMP JUMPDEST PUSH1 0x40 MLOAD PUSH1 0x1 PUSH1 0x1 PUSH1 0xA0 SHL SUB DUP3 AND SWAP1 PUSH32 0xBC7CD75A20EE27FD9ADEBAB32041F755214DBC6BFFA90CC0225B39DA2E5C2D3B SWAP1 PUSH1 0x0 SWAP1 LOG2 POP JUMP JUMPDEST PUSH1 0x60 PUSH1 0x1 PUSH1 0x1 PUSH1 0xA0 SHL SUB DUP4 AND EXTCODESIZE PUSH2 0x482C JUMPI PUSH1 0x40 MLOAD PUSH3 0x461BCD PUSH1 0xE5 SHL DUP2 MSTORE PUSH1 0x20 PUSH1 0x4 DUP3 ADD MSTORE PUSH1 0x26 PUSH1 0x24 DUP3 ADD MSTORE PUSH32 0x416464726573733A2064656C65676174652063616C6C20746F206E6F6E2D636F PUSH1 0x44 DUP3 ADD MSTORE PUSH6 0x1B9D1C9858DD PUSH1 0xD2 SHL PUSH1 0x64 DUP3 ADD MSTORE PUSH1 0x84 ADD PUSH2 0xC31 JUMP JUMPDEST PUSH1 0x0 DUP1 DUP5 PUSH1 0x1 PUSH1 0x1 PUSH1 0xA0 SHL SUB AND DUP5 PUSH1 0x40 MLOAD PUSH2 0x4847 SWAP2 SWAP1 PUSH2 0x5590 JUMP JUMPDEST PUSH1 0x0 PUSH1 0x40 MLOAD DUP1 DUP4 SUB DUP2 DUP6 GAS DELEGATECALL SWAP2 POP POP RETURNDATASIZE DUP1 PUSH1 0x0 DUP2 EQ PUSH2 0x4882 JUMPI PUSH1 0x40 MLOAD SWAP2 POP PUSH1 0x1F NOT PUSH1 0x3F RETURNDATASIZE ADD AND DUP3 ADD PUSH1 0x40 MSTORE RETURNDATASIZE DUP3 MSTORE RETURNDATASIZE PUSH1 0x0 PUSH1 0x20 DUP5 ADD RETURNDATACOPY PUSH2 0x4887 JUMP JUMPDEST PUSH1 0x60 SWAP2 POP JUMPDEST POP SWAP2 POP SWAP2 POP PUSH2 0x48AF DUP3 DUP3 PUSH1 0x40 MLOAD DUP1 PUSH1 0x60 ADD PUSH1 0x40 MSTORE DUP1 PUSH1 0x27 DUP2 MSTORE PUSH1 0x20 ADD PUSH2 0x55E0 PUSH1 0x27 SWAP2 CODECOPY PUSH2 0x499E JUMP JUMPDEST SWAP6 SWAP5 POP POP POP POP POP JUMP JUMPDEST PUSH1 0xD9 SLOAD PUSH1 0x0 SWAP1 PUSH1 0xFF AND DUP2 JUMPDEST DUP2 PUSH1 0xFF AND DUP2 PUSH1 0xFF AND LT ISZERO PUSH2 0x495F JUMPI PUSH1 0xFF DUP2 AND PUSH1 0x0 SWAP1 DUP2 MSTORE PUSH1 0xDD PUSH1 0x20 MSTORE PUSH1 0x40 SWAP1 KECCAK256 PUSH1 0x1 ADD SLOAD PUSH2 0x140 DUP6 ADD MLOAD LT DUP1 ISZERO SWAP1 PUSH2 0x4915 JUMPI POP PUSH1 0xFF DUP2 AND PUSH1 0x0 SWAP1 DUP2 MSTORE PUSH1 0xDD PUSH1 0x20 MSTORE PUSH1 0x40 SWAP1 KECCAK256 PUSH1 0x2 ADD SLOAD PUSH2 0x180 DUP6 ADD MLOAD LT ISZERO JUMPDEST DUP1 ISZERO PUSH2 0x493B JUMPI POP PUSH1 0xFF DUP2 AND PUSH1 0x0 SWAP1 DUP2 MSTORE PUSH1 0xDD PUSH1 0x20 MSTORE PUSH1 0x40 SWAP1 KECCAK256 PUSH1 0x3 ADD SLOAD PUSH2 0x1C0 DUP6 ADD MLOAD LT ISZERO JUMPDEST ISZERO PUSH2 0x4948 JUMPI DUP1 SWAP3 POP PUSH2 0x494D JUMP JUMPDEST PUSH2 0x495F JUMP JUMPDEST DUP1 PUSH2 0x4957 DUP2 PUSH2 0x521D JUMP JUMPDEST SWAP2 POP POP PUSH2 0x48C3 JUMP JUMPDEST POP POP SWAP2 SWAP1 POP JUMP JUMPDEST DUP2 PUSH1 0x17 ADD SLOAD DUP2 DUP4 PUSH1 0x16 ADD SLOAD PUSH2 0x497B SWAP2 SWAP1 PUSH2 0x53D4 JUMP JUMPDEST LT PUSH2 0x498E JUMPI PUSH1 0x17 DUP3 ADD SLOAD PUSH1 0x16 DUP4 ADD SSTORE POP POP JUMP JUMPDEST DUP1 DUP3 PUSH1 0x16 ADD SLOAD PUSH2 0xB69 SWAP2 SWAP1 PUSH2 0x53D4 JUMP JUMPDEST PUSH1 0x60 DUP4 ISZERO PUSH2 0x49AD JUMPI POP DUP2 PUSH2 0x1BD8 JUMP JUMPDEST PUSH2 0x1BD8 DUP4 DUP4 DUP2 MLOAD ISZERO PUSH2 0x49C2 JUMPI DUP2 MLOAD DUP1 DUP4 PUSH1 0x20 ADD REVERT JUMPDEST DUP1 PUSH1 0x40 MLOAD PUSH3 0x461BCD PUSH1 0xE5 SHL DUP2 MSTORE PUSH1 0x4 ADD PUSH2 0xC31 SWAP2 SWAP1 PUSH2 0x55AC JUMP JUMPDEST DUP3 DUP1 SLOAD DUP3 DUP3 SSTORE SWAP1 PUSH1 0x0 MSTORE PUSH1 0x20 PUSH1 0x0 KECCAK256 SWAP1 PUSH1 0xF ADD PUSH1 0x10 SWAP1 DIV DUP2 ADD SWAP3 DUP3 ISZERO PUSH2 0x4A74 JUMPI SWAP2 PUSH1 0x20 MUL DUP3 ADD PUSH1 0x0 JUMPDEST DUP4 DUP3 GT ISZERO PUSH2 0x4A44 JUMPI DUP4 MLOAD DUP4 DUP3 PUSH2 0x100 EXP DUP2 SLOAD DUP2 PUSH2 0xFFFF MUL NOT AND SWAP1 DUP4 PUSH1 0xFF AND MUL OR SWAP1 SSTORE POP SWAP3 PUSH1 0x20 ADD SWAP3 PUSH1 0x2 ADD PUSH1 0x20 DUP2 PUSH1 0x1 ADD DIV SWAP3 DUP4 ADD SWAP3 PUSH1 0x1 SUB MUL PUSH2 0x4A05 JUMP JUMPDEST DUP1 ISZERO PUSH2 0x4A72 JUMPI DUP3 DUP2 PUSH2 0x100 EXP DUP2 SLOAD SWAP1 PUSH2 0xFFFF MUL NOT AND SWAP1 SSTORE PUSH1 0x2 ADD PUSH1 0x20 DUP2 PUSH1 0x1 ADD DIV SWAP3 DUP4 ADD SWAP3 PUSH1 0x1 SUB MUL PUSH2 0x4A44 JUMP JUMPDEST POP JUMPDEST POP PUSH2 0x4A80 SWAP3 SWAP2 POP PUSH2 0x4B21 JUMP JUMPDEST POP SWAP1 JUMP JUMPDEST DUP3 DUP1 SLOAD DUP3 DUP3 SSTORE SWAP1 PUSH1 0x0 MSTORE PUSH1 0x20 PUSH1 0x0 KECCAK256 SWAP1 PUSH1 0x7 ADD PUSH1 0x8 SWAP1 DIV DUP2 ADD SWAP3 DUP3 ISZERO PUSH2 0x4A74 JUMPI SWAP2 PUSH1 0x20 MUL DUP3 ADD PUSH1 0x0 JUMPDEST DUP4 DUP3 GT ISZERO PUSH2 0x4AF1 JUMPI DUP4 MLOAD DUP4 DUP3 PUSH2 0x100 EXP DUP2 SLOAD DUP2 PUSH4 0xFFFFFFFF MUL NOT AND SWAP1 DUP4 PUSH4 0xFFFFFFFF AND MUL OR SWAP1 SSTORE POP SWAP3 PUSH1 0x20 ADD SWAP3 PUSH1 0x4 ADD PUSH1 0x20 DUP2 PUSH1 0x3 ADD DIV SWAP3 DUP4 ADD SWAP3 PUSH1 0x1 SUB MUL PUSH2 0x4AAD JUMP JUMPDEST DUP1 ISZERO PUSH2 0x4A72 JUMPI DUP3 DUP2 PUSH2 0x100 EXP DUP2 SLOAD SWAP1 PUSH4 0xFFFFFFFF MUL NOT AND SWAP1 SSTORE PUSH1 0x4 ADD PUSH1 0x20 DUP2 PUSH1 0x3 ADD DIV SWAP3 DUP4 ADD SWAP3 PUSH1 0x1 SUB MUL PUSH2 0x4AF1 JUMP JUMPDEST JUMPDEST DUP1 DUP3 GT ISZERO PUSH2 0x4A80 JUMPI PUSH1 0x0 DUP2 SSTORE PUSH1 0x1 ADD PUSH2 0x4B22 JUMP JUMPDEST DUP1 CALLDATALOAD PUSH1 0x1 PUSH1 0x1 PUSH1 0xA0 SHL SUB DUP2 AND DUP2 EQ PUSH2 0x4B4D JUMPI PUSH1 0x0 DUP1 REVERT JUMPDEST SWAP2 SWAP1 POP JUMP JUMPDEST PUSH1 0x0 DUP1 PUSH1 0x40 DUP4 DUP6 SUB SLT ISZERO PUSH2 0x4B65 JUMPI PUSH1 0x0 DUP1 REVERT JUMPDEST PUSH2 0x4B6E DUP4 PUSH2 0x4B36 JUMP JUMPDEST SWAP5 PUSH1 0x20 SWAP4 SWAP1 SWAP4 ADD CALLDATALOAD SWAP4 POP POP POP JUMP JUMPDEST PUSH1 0x0 PUSH1 0x20 DUP3 DUP5 SUB SLT ISZERO PUSH2 0x4B8E JUMPI PUSH1 0x0 DUP1 REVERT JUMPDEST PUSH2 0x1BD8 DUP3 PUSH2 0x4B36 JUMP JUMPDEST PUSH1 0x0 PUSH1 0x20 DUP3 DUP5 SUB SLT ISZERO PUSH2 0x4BA9 JUMPI PUSH1 0x0 DUP1 REVERT JUMPDEST POP CALLDATALOAD SWAP2 SWAP1 POP JUMP JUMPDEST PUSH1 0x0 DUP1 DUP4 PUSH1 0x1F DUP5 ADD SLT PUSH2 0x4BC2 JUMPI PUSH1 0x0 DUP1 REVERT JUMPDEST POP DUP2 CALLDATALOAD PUSH8 0xFFFFFFFFFFFFFFFF DUP2 GT ISZERO PUSH2 0x4BDA JUMPI PUSH1 0x0 DUP1 REVERT JUMPDEST PUSH1 0x20 DUP4 ADD SWAP2 POP DUP4 PUSH1 0x20 DUP3 PUSH1 0x5 SHL DUP6 ADD ADD GT ISZERO PUSH2 0x4BF5 JUMPI PUSH1 0x0 DUP1 REVERT JUMPDEST SWAP3 POP SWAP3 SWAP1 POP JUMP JUMPDEST PUSH1 0x0 DUP1 PUSH1 0x20 DUP4 DUP6 SUB SLT ISZERO PUSH2 0x4C0F JUMPI PUSH1 0x0 DUP1 REVERT JUMPDEST DUP3 CALLDATALOAD PUSH8 0xFFFFFFFFFFFFFFFF DUP2 GT ISZERO PUSH2 0x4C26 JUMPI PUSH1 0x0 DUP1 REVERT JUMPDEST PUSH2 0x4C32 DUP6 DUP3 DUP7 ADD PUSH2 0x4BB0 JUMP JUMPDEST SWAP1 SWAP7 SWAP1 SWAP6 POP SWAP4 POP POP POP POP JUMP JUMPDEST PUSH4 0x4E487B71 PUSH1 0xE0 SHL PUSH1 0x0 MSTORE PUSH1 0x41 PUSH1 0x4 MSTORE PUSH1 0x24 PUSH1 0x0 REVERT JUMPDEST PUSH1 0x0 DUP1 PUSH1 0x40 DUP4 DUP6 SUB SLT ISZERO PUSH2 0x4C67 JUMPI PUSH1 0x0 DUP1 REVERT JUMPDEST PUSH2 0x4C70 DUP4 PUSH2 0x4B36 JUMP JUMPDEST SWAP2 POP PUSH1 0x20 DUP4 ADD CALLDATALOAD PUSH8 0xFFFFFFFFFFFFFFFF DUP1 DUP3 GT ISZERO PUSH2 0x4C8D JUMPI PUSH1 0x0 DUP1 REVERT JUMPDEST DUP2 DUP6 ADD SWAP2 POP DUP6 PUSH1 0x1F DUP4 ADD SLT PUSH2 0x4CA1 JUMPI PUSH1 0x0 DUP1 REVERT JUMPDEST DUP2 CALLDATALOAD DUP2 DUP2 GT ISZERO PUSH2 0x4CB3 JUMPI PUSH2 0x4CB3 PUSH2 0x4C3E JUMP JUMPDEST PUSH1 0x40 MLOAD PUSH1 0x1F DUP3 ADD PUSH1 0x1F NOT SWAP1 DUP2 AND PUSH1 0x3F ADD AND DUP2 ADD SWAP1 DUP4 DUP3 GT DUP2 DUP4 LT OR ISZERO PUSH2 0x4CDB JUMPI PUSH2 0x4CDB PUSH2 0x4C3E JUMP JUMPDEST DUP2 PUSH1 0x40 MSTORE DUP3 DUP2 MSTORE DUP9 PUSH1 0x20 DUP5 DUP8 ADD ADD GT ISZERO PUSH2 0x4CF4 JUMPI PUSH1 0x0 DUP1 REVERT JUMPDEST DUP3 PUSH1 0x20 DUP7 ADD PUSH1 0x20 DUP4 ADD CALLDATACOPY PUSH1 0x0 PUSH1 0x20 DUP5 DUP4 ADD ADD MSTORE DUP1 SWAP6 POP POP POP POP POP POP SWAP3 POP SWAP3 SWAP1 POP JUMP JUMPDEST DUP1 CALLDATALOAD PUSH4 0xFFFFFFFF DUP2 AND DUP2 EQ PUSH2 0x4B4D JUMPI PUSH1 0x0 DUP1 REVERT JUMPDEST PUSH1 0x0 PUSH1 0x20 DUP3 DUP5 SUB SLT ISZERO PUSH2 0x4D3C JUMPI PUSH1 0x0 DUP1 REVERT JUMPDEST PUSH2 0x1BD8 DUP3 PUSH2 0x4D16 JUMP JUMPDEST PUSH1 0x0 DUP1 PUSH1 0x40 DUP4 DUP6 SUB SLT ISZERO PUSH2 0x4D58 JUMPI PUSH1 0x0 DUP1 REVERT JUMPDEST PUSH2 0x4D61 DUP4 PUSH2 0x4D16 JUMP JUMPDEST SWAP2 POP PUSH2 0x4D6F PUSH1 0x20 DUP5 ADD PUSH2 0x4D16 JUMP JUMPDEST SWAP1 POP SWAP3 POP SWAP3 SWAP1 POP JUMP JUMPDEST PUSH1 0x0 DUP1 PUSH1 0x0 DUP1 PUSH1 0x40 DUP6 DUP8 SUB SLT ISZERO PUSH2 0x4D8E JUMPI PUSH1 0x0 DUP1 REVERT JUMPDEST DUP5 CALLDATALOAD PUSH8 0xFFFFFFFFFFFFFFFF DUP1 DUP3 GT ISZERO PUSH2 0x4DA6 JUMPI PUSH1 0x0 DUP1 REVERT JUMPDEST PUSH2 0x4DB2 DUP9 DUP4 DUP10 ADD PUSH2 0x4BB0 JUMP JUMPDEST SWAP1 SWAP7 POP SWAP5 POP PUSH1 0x20 DUP8 ADD CALLDATALOAD SWAP2 POP DUP1 DUP3 GT ISZERO PUSH2 0x4DCB JUMPI PUSH1 0x0 DUP1 REVERT JUMPDEST POP PUSH2 0x4DD8 DUP8 DUP3 DUP9 ADD PUSH2 0x4BB0 JUMP JUMPDEST SWAP6 SWAP9 SWAP5 SWAP8 POP SWAP6 POP POP POP POP JUMP JUMPDEST PUSH1 0x0 DUP1 PUSH1 0x0 PUSH1 0x60 DUP5 DUP7 SUB SLT ISZERO PUSH2 0x4DF9 JUMPI PUSH1 0x0 DUP1 REVERT JUMPDEST DUP4 CALLDATALOAD PUSH2 0xFFFF DUP2 AND DUP2 EQ PUSH2 0x4E0B JUMPI PUSH1 0x0 DUP1 REVERT JUMPDEST SWAP6 PUSH1 0x20 DUP6 ADD CALLDATALOAD SWAP6 POP PUSH1 0x40 SWAP1 SWAP5 ADD CALLDATALOAD SWAP4 SWAP3 POP POP POP JUMP JUMPDEST PUSH1 0x0 DUP1 PUSH1 0x0 DUP1 PUSH1 0x0 DUP1 PUSH1 0x80 DUP8 DUP10 SUB SLT ISZERO PUSH2 0x4E39 JUMPI PUSH1 0x0 DUP1 REVERT JUMPDEST PUSH2 0x4E42 DUP8 PUSH2 0x4D16 JUMP JUMPDEST SWAP6 POP PUSH2 0x4E50 PUSH1 0x20 DUP9 ADD PUSH2 0x4D16 JUMP JUMPDEST SWAP5 POP PUSH1 0x40 DUP8 ADD CALLDATALOAD PUSH8 0xFFFFFFFFFFFFFFFF DUP1 DUP3 GT ISZERO PUSH2 0x4E6D JUMPI PUSH1 0x0 DUP1 REVERT JUMPDEST PUSH2 0x4E79 DUP11 DUP4 DUP12 ADD PUSH2 0x4BB0 JUMP JUMPDEST SWAP1 SWAP7 POP SWAP5 POP PUSH1 0x60 DUP10 ADD CALLDATALOAD SWAP2 POP DUP1 DUP3 GT ISZERO PUSH2 0x4E92 JUMPI PUSH1 0x0 DUP1 REVERT JUMPDEST POP PUSH2 0x4E9F DUP10 DUP3 DUP11 ADD PUSH2 0x4BB0 JUMP JUMPDEST SWAP8 SWAP11 SWAP7 SWAP10 POP SWAP5 SWAP8 POP SWAP3 SWAP6 SWAP4 SWAP5 SWAP3 POP POP POP JUMP JUMPDEST PUSH1 0x0 DUP1 PUSH1 0x40 DUP4 DUP6 SUB SLT ISZERO PUSH2 0x4EC4 JUMPI PUSH1 0x0 DUP1 REVERT JUMPDEST PUSH2 0x4B6E DUP4 PUSH2 0x4D16 JUMP JUMPDEST PUSH1 0x0 JUMPDEST DUP4 DUP2 LT ISZERO PUSH2 0x4EE8 JUMPI DUP2 DUP2 ADD MLOAD DUP4 DUP3 ADD MSTORE PUSH1 0x20 ADD PUSH2 0x4ED0 JUMP JUMPDEST POP POP PUSH1 0x0 SWAP2 ADD MSTORE JUMP JUMPDEST PUSH1 0x0 DUP2 MLOAD DUP1 DUP5 MSTORE PUSH2 0x4F09 DUP2 PUSH1 0x20 DUP7 ADD PUSH1 0x20 DUP7 ADD PUSH2 0x4ECD JUMP JUMPDEST PUSH1 0x1F ADD PUSH1 0x1F NOT AND SWAP3 SWAP1 SWAP3 ADD PUSH1 0x20 ADD SWAP3 SWAP2 POP POP JUMP JUMPDEST PUSH1 0x0 DUP2 MLOAD DUP1 DUP5 MSTORE PUSH1 0x20 DUP1 DUP6 ADD SWAP5 POP DUP1 DUP5 ADD PUSH1 0x0 JUMPDEST DUP4 DUP2 LT ISZERO PUSH2 0x4F53 JUMPI DUP2 MLOAD PUSH4 0xFFFFFFFF AND DUP8 MSTORE SWAP6 DUP3 ADD SWAP6 SWAP1 DUP3 ADD SWAP1 PUSH1 0x1 ADD PUSH2 0x4F31 JUMP JUMPDEST POP SWAP5 SWAP6 SWAP5 POP POP POP POP POP JUMP JUMPDEST PUSH1 0x20 DUP2 MSTORE PUSH2 0x4F75 PUSH1 0x20 DUP3 ADD DUP4 MLOAD PUSH4 0xFFFFFFFF AND SWAP1 MSTORE JUMP JUMPDEST PUSH1 0x0 PUSH1 0x20 DUP4 ADD MLOAD PUSH2 0x400 DUP1 PUSH1 0x40 DUP6 ADD MSTORE PUSH2 0x4F93 PUSH2 0x420 DUP6 ADD DUP4 PUSH2 0x4EF1 JUMP JUMPDEST SWAP2 POP PUSH1 0x40 DUP6 ADD MLOAD PUSH2 0x4FA8 PUSH1 0x60 DUP7 ADD DUP3 ISZERO ISZERO SWAP1 MSTORE JUMP JUMPDEST POP PUSH1 0x60 DUP6 ADD MLOAD PUSH1 0x1 PUSH1 0x1 PUSH1 0xA0 SHL SUB DUP2 AND PUSH1 0x80 DUP7 ADD MSTORE POP PUSH1 0x80 DUP6 ADD MLOAD PUSH1 0xA0 DUP6 ADD MSTORE PUSH1 0xA0 DUP6 ADD MLOAD PUSH1 0xC0 DUP6 ADD MSTORE PUSH1 0xC0 DUP6 ADD MLOAD PUSH2 0x4FE9 PUSH1 0xE0 DUP7 ADD DUP3 PUSH4 0xFFFFFFFF AND SWAP1 MSTORE JUMP JUMPDEST POP PUSH1 0xE0 DUP6 ADD MLOAD PUSH1 0x1F NOT PUSH2 0x100 DUP2 DUP8 DUP7 SUB ADD DUP2 DUP9 ADD MSTORE PUSH2 0x5008 DUP6 DUP5 PUSH2 0x4F1D JUMP JUMPDEST SWAP5 POP DUP1 DUP9 ADD MLOAD SWAP3 POP POP PUSH2 0x120 DUP2 DUP8 DUP7 SUB ADD DUP2 DUP9 ADD MSTORE PUSH2 0x5027 DUP6 DUP5 PUSH2 0x4F1D JUMP JUMPDEST SWAP5 POP DUP1 DUP9 ADD MLOAD SWAP3 POP POP PUSH2 0x140 DUP2 DUP8 DUP7 SUB ADD DUP2 DUP9 ADD MSTORE PUSH2 0x5046 DUP6 DUP5 PUSH2 0x4F1D JUMP JUMPDEST SWAP1 DUP9 ADD MLOAD PUSH2 0x160 DUP9 DUP2 ADD SWAP2 SWAP1 SWAP2 MSTORE DUP9 ADD MLOAD PUSH2 0x180 DUP1 DUP10 ADD SWAP2 SWAP1 SWAP2 MSTORE DUP9 ADD MLOAD PUSH2 0x1A0 DUP1 DUP10 ADD SWAP2 SWAP1 SWAP2 MSTORE DUP9 ADD MLOAD PUSH2 0x1C0 DUP1 DUP10 ADD SWAP2 SWAP1 SWAP2 MSTORE DUP9 ADD MLOAD PUSH2 0x1E0 DUP1 DUP10 ADD SWAP2 SWAP1 SWAP2 MSTORE DUP9 ADD MLOAD PUSH2 0x200 DUP1 DUP10 ADD SWAP2 SWAP1 SWAP2 MSTORE DUP9 ADD MLOAD PUSH2 0x220 DUP1 DUP10 ADD SWAP2 SWAP1 SWAP2 MSTORE DUP9 ADD MLOAD PUSH2 0x240 DUP1 DUP10 ADD SWAP2 SWAP1 SWAP2 MSTORE DUP9 ADD MLOAD SWAP1 SWAP5 POP SWAP2 POP PUSH2 0x260 PUSH2 0x50C8 DUP2 DUP9 ADD DUP5 PUSH1 0xFF AND SWAP1 MSTORE JUMP JUMPDEST DUP8 ADD MLOAD PUSH2 0x280 DUP8 DUP2 ADD SWAP2 SWAP1 SWAP2 MSTORE DUP8 ADD MLOAD PUSH2 0x2A0 DUP1 DUP9 ADD SWAP2 SWAP1 SWAP2 MSTORE DUP8 ADD MLOAD PUSH2 0x2C0 DUP1 DUP9 ADD SWAP2 SWAP1 SWAP2 MSTORE DUP8 ADD MLOAD PUSH2 0x2E0 DUP1 DUP9 ADD SWAP2 SWAP1 SWAP2 MSTORE DUP8 ADD MLOAD PUSH2 0x300 DUP1 DUP9 ADD SWAP2 SWAP1 SWAP2 MSTORE DUP8 ADD MLOAD PUSH2 0x320 DUP1 DUP9 ADD SWAP2 SWAP1 SWAP2 MSTORE DUP8 ADD MLOAD PUSH2 0x340 DUP1 DUP9 ADD SWAP2 SWAP1 SWAP2 MSTORE DUP8 ADD MLOAD PUSH2 0x360 DUP1 DUP9 ADD SWAP2 SWAP1 SWAP2 MSTORE DUP8 ADD MLOAD PUSH2 0x380 DUP1 DUP9 ADD SWAP2 SWAP1 SWAP2 MSTORE DUP8 ADD MLOAD DUP7 DUP6 SUB DUP3 ADD PUSH2 0x3A0 DUP1 DUP10 ADD SWAP2 SWAP1 SWAP2 MSTORE SWAP1 SWAP3 POP PUSH2 0x515C DUP6 DUP5 PUSH2 0x4F1D JUMP JUMPDEST SWAP1 DUP9 ADD MLOAD PUSH2 0x3C0 DUP9 DUP2 ADD SWAP2 SWAP1 SWAP2 MSTORE DUP9 ADD MLOAD PUSH2 0x3E0 DUP1 DUP10 ADD SWAP2 SWAP1 SWAP2 MSTORE SWAP1 SWAP8 ADD MLOAD SWAP3 SWAP1 SWAP6 ADD SWAP2 SWAP1 SWAP2 MSTORE POP SWAP3 SWAP4 SWAP3 POP POP POP JUMP JUMPDEST PUSH1 0x20 DUP2 MSTORE DUP2 MLOAD ISZERO ISZERO PUSH1 0x20 DUP3 ADD MSTORE PUSH1 0x0 PUSH1 0x20 DUP4 ADD MLOAD PUSH1 0x40 DUP1 DUP5 ADD MSTORE PUSH2 0x34D2 PUSH1 0x60 DUP5 ADD DUP3 PUSH2 0x4F1D JUMP JUMPDEST PUSH4 0x4E487B71 PUSH1 0xE0 SHL PUSH1 0x0 MSTORE PUSH1 0x32 PUSH1 0x4 MSTORE PUSH1 0x24 PUSH1 0x0 REVERT JUMPDEST PUSH4 0x4E487B71 PUSH1 0xE0 SHL PUSH1 0x0 MSTORE PUSH1 0x11 PUSH1 0x4 MSTORE PUSH1 0x24 PUSH1 0x0 REVERT JUMPDEST DUP2 DUP2 SUB DUP2 DUP2 GT ISZERO PUSH2 0x1BEA JUMPI PUSH2 0x1BEA PUSH2 0x51C9 JUMP JUMPDEST PUSH1 0x20 DUP1 DUP3 MSTORE PUSH1 0x11 SWAP1 DUP3 ADD MSTORE PUSH17 0x2CB7BA9030B932903737BA1030B236B4B7 PUSH1 0x79 SHL PUSH1 0x40 DUP3 ADD MSTORE PUSH1 0x60 ADD SWAP1 JUMP JUMPDEST PUSH1 0x0 PUSH1 0xFF DUP3 AND PUSH1 0xFF DUP2 SUB PUSH2 0x5233 JUMPI PUSH2 0x5233 PUSH2 0x51C9 JUMP JUMPDEST PUSH1 0x1 ADD SWAP3 SWAP2 POP POP JUMP JUMPDEST PUSH1 0x20 DUP1 DUP3 MSTORE PUSH1 0x2C SWAP1 DUP3 ADD MSTORE PUSH32 0x46756E6374696F6E206D7573742062652063616C6C6564207468726F75676820 PUSH1 0x40 DUP3 ADD MSTORE PUSH12 0x19195B1959D85D1958D85B1B PUSH1 0xA2 SHL PUSH1 0x60 DUP3 ADD MSTORE PUSH1 0x80 ADD SWAP1 JUMP JUMPDEST PUSH1 0x20 DUP1 DUP3 MSTORE PUSH1 0x2C SWAP1 DUP3 ADD MSTORE PUSH32 0x46756E6374696F6E206D7573742062652063616C6C6564207468726F75676820 PUSH1 0x40 DUP3 ADD MSTORE PUSH12 0x6163746976652070726F7879 PUSH1 0xA0 SHL PUSH1 0x60 DUP3 ADD MSTORE PUSH1 0x80 ADD SWAP1 JUMP JUMPDEST PUSH4 0xFFFFFFFF DUP2 DUP2 AND DUP4 DUP3 AND ADD SWAP1 DUP1 DUP3 GT ISZERO PUSH2 0x52F1 JUMPI PUSH2 0x52F1 PUSH2 0x51C9 JUMP JUMPDEST POP SWAP3 SWAP2 POP POP JUMP JUMPDEST PUSH1 0x0 PUSH4 0xFFFFFFFF DUP1 DUP4 AND DUP2 DUP2 SUB PUSH2 0x5311 JUMPI PUSH2 0x5311 PUSH2 0x51C9 JUMP JUMPDEST PUSH1 0x1 ADD SWAP4 SWAP3 POP POP POP JUMP JUMPDEST PUSH1 0x0 PUSH1 0x20 DUP3 DUP5 SUB SLT ISZERO PUSH2 0x532D JUMPI PUSH1 0x0 DUP1 REVERT JUMPDEST DUP2 MLOAD DUP1 ISZERO ISZERO DUP2 EQ PUSH2 0x1BD8 JUMPI PUSH1 0x0 DUP1 REVERT JUMPDEST PUSH1 0x1 DUP2 DUP2 SHR SWAP1 DUP3 AND DUP1 PUSH2 0x5351 JUMPI PUSH1 0x7F DUP3 AND SWAP2 POP JUMPDEST PUSH1 0x20 DUP3 LT DUP2 SUB PUSH2 0x5371 JUMPI PUSH4 0x4E487B71 PUSH1 0xE0 SHL PUSH1 0x0 MSTORE PUSH1 0x22 PUSH1 0x4 MSTORE PUSH1 0x24 PUSH1 0x0 REVERT JUMPDEST POP SWAP2 SWAP1 POP JUMP JUMPDEST PUSH1 0x0 PUSH2 0xFFFF DUP1 DUP4 AND DUP2 DUP2 SUB PUSH2 0x5311 JUMPI PUSH2 0x5311 PUSH2 0x51C9 JUMP JUMPDEST DUP1 DUP3 MUL DUP2 ISZERO DUP3 DUP3 DIV DUP5 EQ OR PUSH2 0x1BEA JUMPI PUSH2 0x1BEA PUSH2 0x51C9 JUMP JUMPDEST PUSH4 0x4E487B71 PUSH1 0xE0 SHL PUSH1 0x0 MSTORE PUSH1 0x31 PUSH1 0x4 MSTORE PUSH1 0x24 PUSH1 0x0 REVERT JUMPDEST PUSH1 0x0 PUSH1 0x1 DUP3 ADD PUSH2 0x53CD JUMPI PUSH2 0x53CD PUSH2 0x51C9 JUMP JUMPDEST POP PUSH1 0x1 ADD SWAP1 JUMP JUMPDEST DUP1 DUP3 ADD DUP1 DUP3 GT ISZERO PUSH2 0x1BEA JUMPI PUSH2 0x1BEA PUSH2 0x51C9 JUMP JUMPDEST PUSH4 0xFFFFFFFF DUP3 DUP2 AND DUP3 DUP3 AND SUB SWAP1 DUP1 DUP3 GT ISZERO PUSH2 0x52F1 JUMPI PUSH2 0x52F1 PUSH2 0x51C9 JUMP JUMPDEST PUSH1 0x0 PUSH1 0x20 DUP3 DUP5 SUB SLT ISZERO PUSH2 0x5416 JUMPI PUSH1 0x0 DUP1 REVERT JUMPDEST POP MLOAD SWAP2 SWAP1 POP JUMP JUMPDEST PUSH1 0x0 DUP3 PUSH2 0x543A JUMPI PUSH4 0x4E487B71 PUSH1 0xE0 SHL PUSH1 0x0 MSTORE PUSH1 0x12 PUSH1 0x4 MSTORE PUSH1 0x24 PUSH1 0x0 REVERT JUMPDEST POP DIV SWAP1 JUMP JUMPDEST PUSH1 0x20 DUP1 DUP3 MSTORE PUSH1 0x2B SWAP1 DUP3 ADD MSTORE PUSH32 0x496E697469616C697A61626C653A20636F6E7472616374206973206E6F742069 PUSH1 0x40 DUP3 ADD MSTORE PUSH11 0x6E697469616C697A696E67 PUSH1 0xA8 SHL PUSH1 0x60 DUP3 ADD MSTORE PUSH1 0x80 ADD SWAP1 JUMP JUMPDEST PUSH1 0x1F DUP3 GT ISZERO PUSH2 0xB69 JUMPI PUSH1 0x0 DUP2 DUP2 MSTORE PUSH1 0x20 DUP2 KECCAK256 PUSH1 0x1F DUP6 ADD PUSH1 0x5 SHR DUP2 ADD PUSH1 0x20 DUP7 LT ISZERO PUSH2 0x54B1 JUMPI POP DUP1 JUMPDEST PUSH1 0x1F DUP6 ADD PUSH1 0x5 SHR DUP3 ADD SWAP2 POP JUMPDEST DUP2 DUP2 LT ISZERO PUSH2 0x2A69 JUMPI DUP3 DUP2 SSTORE PUSH1 0x1 ADD PUSH2 0x54BD JUMP JUMPDEST DUP2 MLOAD PUSH8 0xFFFFFFFFFFFFFFFF DUP2 GT ISZERO PUSH2 0x54EA JUMPI PUSH2 0x54EA PUSH2 0x4C3E JUMP JUMPDEST PUSH2 0x54FE DUP2 PUSH2 0x54F8 DUP5 SLOAD PUSH2 0x533D JUMP JUMPDEST DUP5 PUSH2 0x548A JUMP JUMPDEST PUSH1 0x20 DUP1 PUSH1 0x1F DUP4 GT PUSH1 0x1 DUP2 EQ PUSH2 0x5533 JUMPI PUSH1 0x0 DUP5 ISZERO PUSH2 0x551B JUMPI POP DUP6 DUP4 ADD MLOAD JUMPDEST PUSH1 0x0 NOT PUSH1 0x3 DUP7 SWAP1 SHL SHR NOT AND PUSH1 0x1 DUP6 SWAP1 SHL OR DUP6 SSTORE PUSH2 0x2A69 JUMP JUMPDEST PUSH1 0x0 DUP6 DUP2 MSTORE PUSH1 0x20 DUP2 KECCAK256 PUSH1 0x1F NOT DUP7 AND SWAP2 JUMPDEST DUP3 DUP2 LT ISZERO PUSH2 0x5562 JUMPI DUP9 DUP7 ADD MLOAD DUP3 SSTORE SWAP5 DUP5 ADD SWAP5 PUSH1 0x1 SWAP1 SWAP2 ADD SWAP1 DUP5 ADD PUSH2 0x5543 JUMP JUMPDEST POP DUP6 DUP3 LT ISZERO PUSH2 0x5580 JUMPI DUP8 DUP6 ADD MLOAD PUSH1 0x0 NOT PUSH1 0x3 DUP9 SWAP1 SHL PUSH1 0xF8 AND SHR NOT AND DUP2 SSTORE JUMPDEST POP POP POP POP POP PUSH1 0x1 SWAP1 DUP2 SHL ADD SWAP1 SSTORE POP JUMP JUMPDEST PUSH1 0x0 DUP3 MLOAD PUSH2 0x55A2 DUP2 DUP5 PUSH1 0x20 DUP8 ADD PUSH2 0x4ECD JUMP JUMPDEST SWAP2 SWAP1 SWAP2 ADD SWAP3 SWAP2 POP POP JUMP JUMPDEST PUSH1 0x20 DUP2 MSTORE PUSH1 0x0 PUSH2 0x1BD8 PUSH1 0x20 DUP4 ADD DUP5 PUSH2 0x4EF1 JUMP INVALID CALLDATASIZE ADDMOD SWAP5 LOG1 EXTCODESIZE LOG1 LOG3 0x21 MOD PUSH8 0xC828492DB98DCA3E KECCAK256 PUSH23 0xCC3735A920A3CA505D382BBC416464726573733A206C6F PUSH24 0x2D6C6576656C2064656C65676174652063616C6C20666169 PUSH13 0x6564A264697066735822122004 PUSH21 0x5189AB99D5F34FDF86D34FD85EFAA8A6AAA6AE0EDD 0x5C PUSH31 0x86DAC5538BCF6564736F6C6343000811003300000000000000000000000000 "},"methodIdentifiers":{"_disabledUsersList(uint256)":"1f7f83ba","activateID(uint32)":"e5682e38","addTeamAddress(uint32[])":"49b32504","admins(uint256)":"14bfd6d0","claimBalance(uint32,uint256)":"f31a2d0f","companyTurnoverTimeLimit()":"f41bfeef","companyTurnoverTimeStamp()":"2ed421d2","companyTurnoverWithTimeLimit()":"22f88b52","decimals()":"313ce567","deleteAllROIs(uint256)":"da1e7c6e","deleteROIDetails(uint32,uint32)":"c7464ea4","disableUserAdmin(address)":"9f4e8398","getIDAccount(uint32)":"f830e57b","getMinContributionETH()":"1f9e65e4","getPriceOracleContract()":"2913497b","getROIAccount(uint32)":"c3ab5ebf","getUserAccount(address)":"fb47e016","getUserIDTotalROI(uint32)":"bf46de63","getUserTotalActiveROIValue(uint32)":"ea62f715","getUserUnlockCount(uint32)":"b47181d3","initialize()":"8129fc1c","isPayROI()":"af2f39d1","isPayRoyaltyClubBonus()":"fafc9597","isUserDisabledByAdmin(address)":"538ffe0c","levelRates(uint256)":"7879b5ef","maxLevelsCount()":"8df05d9c","minContributionIn()":"1c961c05","owner()":"8da5cb5b","packagesCount()":"18e10bff","proxiableUUID()":"52d1902d","removeUserFromDisableList(address)":"e52356f3","renounceOwnership()":"715018a6","royaltyClubPackageCount()":"a28a3686","sendETHAdmin(address,uint256)":"0b243dad","setAdmin(address)":"704b6c02","setMinContribution(uint256)":"473b0d46","setPriceOracleContract(address)":"0efdbb6a","setROI(uint16,uint256,uint256)":"c82801ca","setROIIDCount(uint32)":"d895af2c","totalIDs()":"5e701d86","totalROIIDs()":"a1b80175","totalROIPaid()":"30abbcc5","totalReferralPaid()":"7c599486","totalRoyaltyClubBonusPaid()":"852ff2fd","totalRoyaltyClubBonusPaidETH()":"09de82cd","totalTopUpID(uint32)":"ff4ec1f1","totalUsers()":"bff1f9e1","transferOwnership(address)":"f2fde38b","updateIDJoinTime(uint32[],uint256[])":"c81ea216","updateIDtotalTopUpDetails(uint32,uint32,uint256[],uint256[])":"ef2f824f","updateTotalIDs(uint32)":"70d9e081","upgradeTo(address)":"3659cfe6","upgradeToAndCall(address,bytes)":"4f1ef286","withdrawETHAdmin()":"35759788","withdrawTokensAdmin(address,uint256)":"a0b6105f"}},"storageLayout":{"storage":[{"astId":527,"contract":"contracts/ReferralV3Upgradeable.sol:ReferralV3Upgradeable","label":"_initialized","offset":0,"slot":"0","type":"t_uint8"},{"astId":530,"contract":"contracts/ReferralV3Upgradeable.sol:ReferralV3Upgradeable","label":"_initializing","offset":1,"slot":"0","type":"t_bool"},{"astId":1228,"contract":"contracts/ReferralV3Upgradeable.sol:ReferralV3Upgradeable","label":"__gap","offset":0,"slot":"1","type":"t_array(t_uint256)50_storage"},{"astId":10,"contract":"contracts/ReferralV3Upgradeable.sol:ReferralV3Upgradeable","label":"_owner","offset":0,"slot":"51","type":"t_address"},{"astId":130,"contract":"contracts/ReferralV3Upgradeable.sol:ReferralV3Upgradeable","label":"__gap","offset":0,"slot":"52","type":"t_array(t_uint256)49_storage"},{"astId":509,"contract":"contracts/ReferralV3Upgradeable.sol:ReferralV3Upgradeable","label":"__gap","offset":0,"slot":"101","type":"t_array(t_uint256)50_storage"},{"astId":824,"contract":"contracts/ReferralV3Upgradeable.sol:ReferralV3Upgradeable","label":"__gap","offset":0,"slot":"151","type":"t_array(t_uint256)50_storage"},{"astId":1317,"contract":"contracts/ReferralV3Upgradeable.sol:ReferralV3Upgradeable","label":"_priceOracleContract","offset":0,"slot":"201","type":"t_address"},{"astId":1320,"contract":"contracts/ReferralV3Upgradeable.sol:ReferralV3Upgradeable","label":"levelRates","offset":0,"slot":"202","type":"t_array(t_uint16)dyn_storage"},{"astId":1322,"contract":"contracts/ReferralV3Upgradeable.sol:ReferralV3Upgradeable","label":"decimals","offset":0,"slot":"203","type":"t_uint16"},{"astId":1324,"contract":"contracts/ReferralV3Upgradeable.sol:ReferralV3Upgradeable","label":"maxLevelsCount","offset":2,"slot":"203","type":"t_uint8"},{"astId":1326,"contract":"contracts/ReferralV3Upgradeable.sol:ReferralV3Upgradeable","label":"minContributionIn","offset":0,"slot":"204","type":"t_uint256"},{"astId":1328,"contract":"contracts/ReferralV3Upgradeable.sol:ReferralV3Upgradeable","label":"totalRoyaltyClubBonusPaid","offset":0,"slot":"205","type":"t_uint256"},{"astId":1330,"contract":"contracts/ReferralV3Upgradeable.sol:ReferralV3Upgradeable","label":"totalRoyaltyClubBonusPaidETH","offset":0,"slot":"206","type":"t_uint256"},{"astId":1332,"contract":"contracts/ReferralV3Upgradeable.sol:ReferralV3Upgradeable","label":"totalReferralPaid","offset":0,"slot":"207","type":"t_uint256"},{"astId":1334,"contract":"contracts/ReferralV3Upgradeable.sol:ReferralV3Upgradeable","label":"totalROIPaid","offset":0,"slot":"208","type":"t_uint256"},{"astId":1336,"contract":"contracts/ReferralV3Upgradeable.sol:ReferralV3Upgradeable","label":"totalUsers","offset":0,"slot":"209","type":"t_uint32"},{"astId":1338,"contract":"contracts/ReferralV3Upgradeable.sol:ReferralV3Upgradeable","label":"totalIDs","offset":4,"slot":"209","type":"t_uint32"},{"astId":1340,"contract":"contracts/ReferralV3Upgradeable.sol:ReferralV3Upgradeable","label":"totalROIIDs","offset":8,"slot":"209","type":"t_uint32"},{"astId":1342,"contract":"contracts/ReferralV3Upgradeable.sol:ReferralV3Upgradeable","label":"_roiRate","offset":12,"slot":"209","type":"t_uint16"},{"astId":1344,"contract":"contracts/ReferralV3Upgradeable.sol:ReferralV3Upgradeable","label":"_roiDuration","offset":0,"slot":"210","type":"t_uint256"},{"astId":1346,"contract":"contracts/ReferralV3Upgradeable.sol:ReferralV3Upgradeable","label":"_roiClaimTimelimit","offset":0,"slot":"211","type":"t_uint256"},{"astId":1348,"contract":"contracts/ReferralV3Upgradeable.sol:ReferralV3Upgradeable","label":"isPayROI","offset":0,"slot":"212","type":"t_bool"},{"astId":1350,"contract":"contracts/ReferralV3Upgradeable.sol:ReferralV3Upgradeable","label":"isPayRoyaltyClubBonus","offset":1,"slot":"212","type":"t_bool"},{"astId":1352,"contract":"contracts/ReferralV3Upgradeable.sol:ReferralV3Upgradeable","label":"royaltyClubPackageCount","offset":2,"slot":"212","type":"t_uint8"},{"astId":1354,"contract":"contracts/ReferralV3Upgradeable.sol:ReferralV3Upgradeable","label":"_userLevelUnlockMultiplier","offset":3,"slot":"212","type":"t_uint8"},{"astId":1356,"contract":"contracts/ReferralV3Upgradeable.sol:ReferralV3Upgradeable","label":"companyTurnoverWithTimeLimit","offset":0,"slot":"213","type":"t_uint256"},{"astId":1358,"contract":"contracts/ReferralV3Upgradeable.sol:ReferralV3Upgradeable","label":"companyTurnoverTimeStamp","offset":0,"slot":"214","type":"t_uint256"},{"astId":1360,"contract":"contracts/ReferralV3Upgradeable.sol:ReferralV3Upgradeable","label":"companyTurnoverTimeLimit","offset":0,"slot":"215","type":"t_uint256"},{"astId":1363,"contract":"contracts/ReferralV3Upgradeable.sol:ReferralV3Upgradeable","label":"_disabledUsersList","offset":0,"slot":"216","type":"t_array(t_address)dyn_storage"},{"astId":1477,"contract":"contracts/ReferralV3Upgradeable.sol:ReferralV3Upgradeable","label":"packagesCount","offset":0,"slot":"217","type":"t_uint8"},{"astId":1482,"contract":"contracts/ReferralV3Upgradeable.sol:ReferralV3Upgradeable","label":"accounts","offset":0,"slot":"218","type":"t_mapping(t_address,t_struct(StructAccount)1369_storage)"},{"astId":1487,"contract":"contracts/ReferralV3Upgradeable.sol:ReferralV3Upgradeable","label":"ids","offset":0,"slot":"219","type":"t_mapping(t_uint32,t_struct(StructID)1438_storage)"},{"astId":1492,"contract":"contracts/ReferralV3Upgradeable.sol:ReferralV3Upgradeable","label":"rois","offset":0,"slot":"220","type":"t_mapping(t_uint32,t_struct(StructROI)1451_storage)"},{"astId":1497,"contract":"contracts/ReferralV3Upgradeable.sol:ReferralV3Upgradeable","label":"packages","offset":0,"slot":"221","type":"t_mapping(t_uint8,t_struct(StructPackages)1475_storage)"},{"astId":1679,"contract":"contracts/ReferralV3Upgradeable.sol:ReferralV3Upgradeable","label":"admins","offset":0,"slot":"222","type":"t_array(t_address)dyn_storage"}],"types":{"t_address":{"encoding":"inplace","label":"address","numberOfBytes":"20"},"t_array(t_address)dyn_storage":{"base":"t_address","encoding":"dynamic_array","label":"address[]","numberOfBytes":"32"},"t_array(t_uint16)dyn_storage":{"base":"t_uint16","encoding":"dynamic_array","label":"uint16[]","numberOfBytes":"32"},"t_array(t_uint256)49_storage":{"base":"t_uint256","encoding":"inplace","label":"uint256[49]","numberOfBytes":"1568"},"t_array(t_uint256)50_storage":{"base":"t_uint256","encoding":"inplace","label":"uint256[50]","numberOfBytes":"1600"},"t_array(t_uint32)dyn_storage":{"base":"t_uint32","encoding":"dynamic_array","label":"uint32[]","numberOfBytes":"32"},"t_bool":{"encoding":"inplace","label":"bool","numberOfBytes":"1"},"t_mapping(t_address,t_struct(StructAccount)1369_storage)":{"encoding":"mapping","key":"t_address","label":"mapping(address => struct ReferralV3Upgradeable.StructAccount)","numberOfBytes":"32","value":"t_struct(StructAccount)1369_storage"},"t_mapping(t_uint32,t_struct(StructID)1438_storage)":{"encoding":"mapping","key":"t_uint32","label":"mapping(uint32 => struct ReferralV3Upgradeable.StructID)","numberOfBytes":"32","value":"t_struct(StructID)1438_storage"},"t_mapping(t_uint32,t_struct(StructROI)1451_storage)":{"encoding":"mapping","key":"t_uint32","label":"mapping(uint32 => struct ReferralV3Upgradeable.StructROI)","numberOfBytes":"32","value":"t_struct(StructROI)1451_storage"},"t_mapping(t_uint8,t_struct(StructPackages)1475_storage)":{"encoding":"mapping","key":"t_uint8","label":"mapping(uint8 => struct ReferralV3Upgradeable.StructPackages)","numberOfBytes":"32","value":"t_struct(StructPackages)1475_storage"},"t_string_storage":{"encoding":"bytes","label":"string","numberOfBytes":"32"},"t_struct(StructAccount)1369_storage":{"encoding":"inplace","label":"struct ReferralV3Upgradeable.StructAccount","members":[{"astId":1365,"contract":"contracts/ReferralV3Upgradeable.sol:ReferralV3Upgradeable","label":"isDisabled","offset":0,"slot":"0","type":"t_bool"},{"astId":1368,"contract":"contracts/ReferralV3Upgradeable.sol:ReferralV3Upgradeable","label":"accountIDs","offset":0,"slot":"1","type":"t_array(t_uint32)dyn_storage"}],"numberOfBytes":"64"},"t_struct(StructID)1438_storage":{"encoding":"inplace","label":"struct ReferralV3Upgradeable.StructID","members":[{"astId":1371,"contract":"contracts/ReferralV3Upgradeable.sol:ReferralV3Upgradeable","label":"id","offset":0,"slot":"0","type":"t_uint32"},{"astId":1373,"contract":"contracts/ReferralV3Upgradeable.sol:ReferralV3Upgradeable","label":"oldID","offset":0,"slot":"1","type":"t_string_storage"},{"astId":1375,"contract":"contracts/ReferralV3Upgradeable.sol:ReferralV3Upgradeable","label":"isActive","offset":0,"slot":"2","type":"t_bool"},{"astId":1377,"contract":"contracts/ReferralV3Upgradeable.sol:ReferralV3Upgradeable","label":"owner","offset":1,"slot":"2","type":"t_address"},{"astId":1379,"contract":"contracts/ReferralV3Upgradeable.sol:ReferralV3Upgradeable","label":"joiningTime","offset":0,"slot":"3","type":"t_uint256"},{"astId":1381,"contract":"contracts/ReferralV3Upgradeable.sol:ReferralV3Upgradeable","label":"deactivateTime","offset":0,"slot":"4","type":"t_uint256"},{"astId":1383,"contract":"contracts/ReferralV3Upgradeable.sol:ReferralV3Upgradeable","label":"refererID","offset":0,"slot":"5","type":"t_uint32"},{"astId":1386,"contract":"contracts/ReferralV3Upgradeable.sol:ReferralV3Upgradeable","label":"refereeIDs","offset":0,"slot":"6","type":"t_array(t_uint32)dyn_storage"},{"astId":1389,"contract":"contracts/ReferralV3Upgradeable.sol:ReferralV3Upgradeable","label":"teamIDs","offset":0,"slot":"7","type":"t_array(t_uint32)dyn_storage"},{"astId":1392,"contract":"contracts/ReferralV3Upgradeable.sol:ReferralV3Upgradeable","label":"teamLevel","offset":0,"slot":"8","type":"t_array(t_uint32)dyn_storage"},{"astId":1394,"contract":"contracts/ReferralV3Upgradeable.sol:ReferralV3Upgradeable","label":"selfBusiness","offset":0,"slot":"9","type":"t_uint256"},{"astId":1396,"contract":"contracts/ReferralV3Upgradeable.sol:ReferralV3Upgradeable","label":"selfBusinessOld","offset":0,"slot":"10","type":"t_uint256"},{"astId":1398,"contract":"contracts/ReferralV3Upgradeable.sol:ReferralV3Upgradeable","label":"directBusiness","offset":0,"slot":"11","type":"t_uint256"},{"astId":1400,"contract":"contracts/ReferralV3Upgradeable.sol:ReferralV3Upgradeable","label":"directBusinessOld","offset":0,"slot":"12","type":"t_uint256"},{"astId":1402,"contract":"contracts/ReferralV3Upgradeable.sol:ReferralV3Upgradeable","label":"teamBusiness","offset":0,"slot":"13","type":"t_uint256"},{"astId":1404,"contract":"contracts/ReferralV3Upgradeable.sol:ReferralV3Upgradeable","label":"teamBusinessOld","offset":0,"slot":"14","type":"t_uint256"},{"astId":1406,"contract":"contracts/ReferralV3Upgradeable.sol:ReferralV3Upgradeable","label":"royaltyClubBusiness","offset":0,"slot":"15","type":"t_uint256"},{"astId":1408,"contract":"contracts/ReferralV3Upgradeable.sol:ReferralV3Upgradeable","label":"timeStampRoyaltyClub","offset":0,"slot":"16","type":"t_uint256"},{"astId":1410,"contract":"contracts/ReferralV3Upgradeable.sol:ReferralV3Upgradeable","label":"royaltyClubPackageID","offset":0,"slot":"17","type":"t_uint8"},{"astId":1412,"contract":"contracts/ReferralV3Upgradeable.sol:ReferralV3Upgradeable","label":"royaltyClubListIndex","offset":0,"slot":"18","type":"t_uint256"},{"astId":1414,"contract":"contracts/ReferralV3Upgradeable.sol:ReferralV3Upgradeable","label":"referralPaid","offset":0,"slot":"19","type":"t_uint256"},{"astId":1416,"contract":"contracts/ReferralV3Upgradeable.sol:ReferralV3Upgradeable","label":"rewardPaidRoyaltyClub","offset":0,"slot":"20","type":"t_uint256"},{"astId":1418,"contract":"contracts/ReferralV3Upgradeable.sol:ReferralV3Upgradeable","label":"totalTopUp","offset":0,"slot":"21","type":"t_uint256"},{"astId":1420,"contract":"contracts/ReferralV3Upgradeable.sol:ReferralV3Upgradeable","label":"totalIncome","offset":0,"slot":"22","type":"t_uint256"},{"astId":1422,"contract":"contracts/ReferralV3Upgradeable.sol:ReferralV3Upgradeable","label":"totalMaxLimitAmount","offset":0,"slot":"23","type":"t_uint256"},{"astId":1424,"contract":"contracts/ReferralV3Upgradeable.sol:ReferralV3Upgradeable","label":"currentTopUp","offset":0,"slot":"24","type":"t_uint256"},{"astId":1426,"contract":"contracts/ReferralV3Upgradeable.sol:ReferralV3Upgradeable","label":"currentTopUpTime","offset":0,"slot":"25","type":"t_uint256"},{"astId":1428,"contract":"contracts/ReferralV3Upgradeable.sol:ReferralV3Upgradeable","label":"totalROIClaimed","offset":0,"slot":"26","type":"t_uint256"},{"astId":1431,"contract":"contracts/ReferralV3Upgradeable.sol:ReferralV3Upgradeable","label":"roiIDs","offset":0,"slot":"27","type":"t_array(t_uint32)dyn_storage"},{"astId":1433,"contract":"contracts/ReferralV3Upgradeable.sol:ReferralV3Upgradeable","label":"roiClaimed","offset":0,"slot":"28","type":"t_uint256"},{"astId":1435,"contract":"contracts/ReferralV3Upgradeable.sol:ReferralV3Upgradeable","label":"roiClaimedTimestamp","offset":0,"slot":"29","type":"t_uint256"},{"astId":1437,"contract":"contracts/ReferralV3Upgradeable.sol:ReferralV3Upgradeable","label":"balanceClaimed","offset":0,"slot":"30","type":"t_uint256"}],"numberOfBytes":"992"},"t_struct(StructPackages)1475_storage":{"encoding":"inplace","label":"struct ReferralV3Upgradeable.StructPackages","members":[{"astId":1453,"contract":"contracts/ReferralV3Upgradeable.sol:ReferralV3Upgradeable","label":"packageID","offset":0,"slot":"0","type":"t_uint8"},{"astId":1455,"contract":"contracts/ReferralV3Upgradeable.sol:ReferralV3Upgradeable","label":"selfBusiness","offset":0,"slot":"1","type":"t_uint256"},{"astId":1457,"contract":"contracts/ReferralV3Upgradeable.sol:ReferralV3Upgradeable","label":"directBusiness","offset":0,"slot":"2","type":"t_uint256"},{"astId":1459,"contract":"contracts/ReferralV3Upgradeable.sol:ReferralV3Upgradeable","label":"teamBusiness","offset":0,"slot":"3","type":"t_uint256"},{"astId":1461,"contract":"contracts/ReferralV3Upgradeable.sol:ReferralV3Upgradeable","label":"rankName","offset":0,"slot":"4","type":"t_string_storage"},{"astId":1463,"contract":"contracts/ReferralV3Upgradeable.sol:ReferralV3Upgradeable","label":"reward","offset":0,"slot":"5","type":"t_uint256"},{"astId":1465,"contract":"contracts/ReferralV3Upgradeable.sol:ReferralV3Upgradeable","label":"businessLimit","offset":0,"slot":"6","type":"t_uint256"},{"astId":1467,"contract":"contracts/ReferralV3Upgradeable.sol:ReferralV3Upgradeable","label":"timeLimit","offset":0,"slot":"7","type":"t_uint256"},{"astId":1469,"contract":"contracts/ReferralV3Upgradeable.sol:ReferralV3Upgradeable","label":"isOneTimeRewardPaid","offset":0,"slot":"8","type":"t_bool"},{"astId":1471,"contract":"contracts/ReferralV3Upgradeable.sol:ReferralV3Upgradeable","label":"isPayReccursive","offset":1,"slot":"8","type":"t_bool"},{"astId":1474,"contract":"contracts/ReferralV3Upgradeable.sol:ReferralV3Upgradeable","label":"achieversList","offset":0,"slot":"9","type":"t_array(t_uint32)dyn_storage"}],"numberOfBytes":"320"},"t_struct(StructROI)1451_storage":{"encoding":"inplace","label":"struct ReferralV3Upgradeable.StructROI","members":[{"astId":1440,"contract":"contracts/ReferralV3Upgradeable.sol:ReferralV3Upgradeable","label":"id","offset":0,"slot":"0","type":"t_uint32"},{"astId":1442,"contract":"contracts/ReferralV3Upgradeable.sol:ReferralV3Upgradeable","label":"isActive","offset":4,"slot":"0","type":"t_bool"},{"astId":1444,"contract":"contracts/ReferralV3Upgradeable.sol:ReferralV3Upgradeable","label":"ownerID","offset":5,"slot":"0","type":"t_uint32"},{"astId":1446,"contract":"contracts/ReferralV3Upgradeable.sol:ReferralV3Upgradeable","label":"value","offset":0,"slot":"1","type":"t_uint256"},{"astId":1448,"contract":"contracts/ReferralV3Upgradeable.sol:ReferralV3Upgradeable","label":"roiRate","offset":0,"slot":"2","type":"t_uint16"},{"astId":1450,"contract":"contracts/ReferralV3Upgradeable.sol:ReferralV3Upgradeable","label":"startTime","offset":0,"slot":"3","type":"t_uint256"}],"numberOfBytes":"128"},"t_uint16":{"encoding":"inplace","label":"uint16","numberOfBytes":"2"},"t_uint256":{"encoding":"inplace","label":"uint256","numberOfBytes":"32"},"t_uint32":{"encoding":"inplace","label":"uint32","numberOfBytes":"4"},"t_uint8":{"encoding":"inplace","label":"uint8","numberOfBytes":"1"}}}}}}