{"contracts/ReferralV2Upgradeable.sol":{"ReferralV2Upgradeable":{"abi":[{"anonymous":false,"inputs":[{"indexed":false,"internalType":"address","name":"ownerAddress","type":"address"},{"indexed":false,"internalType":"uint256","name":"id","type":"uint256"},{"indexed":false,"internalType":"uint256","name":"idIndex","type":"uint256"}],"name":"AccountInfoIDAttached","type":"event"},{"anonymous":false,"inputs":[{"indexed":false,"internalType":"uint256","name":"userID","type":"uint256"},{"indexed":false,"internalType":"uint256","name":"index","type":"uint256"},{"indexed":false,"internalType":"uint256","name":"rank","type":"uint256"}],"name":"AddedInRoyaltyClubList","type":"event"},{"anonymous":false,"inputs":[{"indexed":false,"internalType":"address","name":"previousAdmin","type":"address"},{"indexed":false,"internalType":"address","name":"newAdmin","type":"address"}],"name":"AdminChanged","type":"event"},{"anonymous":false,"inputs":[{"indexed":true,"internalType":"address","name":"beacon","type":"address"}],"name":"BeaconUpgraded","type":"event"},{"anonymous":false,"inputs":[{"indexed":false,"internalType":"uint256","name":"id","type":"uint256"},{"indexed":false,"internalType":"uint256","name":"valueInUSD","type":"uint256"},{"indexed":false,"internalType":"address","name":"userAddress","type":"address"}],"name":"IDActivated","type":"event"},{"anonymous":false,"inputs":[{"indexed":false,"internalType":"uint256","name":"id","type":"uint256"}],"name":"IDDeactivated","type":"event"},{"anonymous":false,"inputs":[{"indexed":false,"internalType":"uint8","name":"version","type":"uint8"}],"name":"Initialized","type":"event"},{"anonymous":false,"inputs":[{"indexed":true,"internalType":"address","name":"previousOwner","type":"address"},{"indexed":true,"internalType":"address","name":"newOwner","type":"address"}],"name":"OwnershipTransferred","type":"event"},{"anonymous":false,"inputs":[{"indexed":false,"internalType":"uint256","name":"packageID","type":"uint256"}],"name":"PackageAdded","type":"event"},{"anonymous":false,"inputs":[{"indexed":false,"internalType":"uint256","name":"packageID","type":"uint256"}],"name":"PackageRemoved","type":"event"},{"anonymous":false,"inputs":[{"indexed":false,"internalType":"uint256","name":"packageID","type":"uint256"}],"name":"PackageUpdated","type":"event"},{"anonymous":false,"inputs":[{"indexed":true,"internalType":"uint256","name":"userID","type":"uint256"},{"indexed":true,"internalType":"uint256","name":"reward","type":"uint256"}],"name":"ROIClaimed","type":"event"},{"anonymous":false,"inputs":[{"indexed":true,"internalType":"uint256","name":"refererID","type":"uint256"},{"indexed":true,"internalType":"uint256","name":"level","type":"uint256"},{"indexed":true,"internalType":"string","name":"reason","type":"string"}],"name":"ReferralNotPaid","type":"event"},{"anonymous":false,"inputs":[{"indexed":true,"internalType":"uint256","name":"refereeID","type":"uint256"},{"indexed":true,"internalType":"uint256","name":"referrerID","type":"uint256"},{"indexed":true,"internalType":"uint256","name":"amount","type":"uint256"},{"indexed":false,"internalType":"uint256","name":"level","type":"uint256"}],"name":"ReferralRewardPaid","type":"event"},{"anonymous":false,"inputs":[{"indexed":true,"internalType":"address","name":"refereeID","type":"address"},{"indexed":true,"internalType":"address","name":"referrerID","type":"address"},{"indexed":true,"internalType":"string","name":"reason","type":"string"}],"name":"RegisterRefererFailed","type":"event"},{"anonymous":false,"inputs":[{"indexed":true,"internalType":"uint256","name":"id","type":"uint256"},{"indexed":true,"internalType":"uint256","name":"refererID","type":"uint256"}],"name":"RegisteredReferer","type":"event"},{"anonymous":false,"inputs":[{"indexed":true,"internalType":"address","name":"parent","type":"address"},{"indexed":false,"internalType":"uint256","name":"parentAccountID","type":"uint256"},{"indexed":true,"internalType":"uint256","name":"referrerID","type":"uint256"},{"indexed":true,"internalType":"uint256","name":"refereeID","type":"uint256"}],"name":"RegisteredTeamAddress","type":"event"},{"anonymous":false,"inputs":[{"indexed":false,"internalType":"uint256","name":"packageID","type":"uint256"},{"indexed":true,"internalType":"uint256","name":"userID","type":"uint256"},{"indexed":true,"internalType":"uint256","name":"amount","type":"uint256"}],"name":"RoyaltyClubBonusPaid","type":"event"},{"anonymous":false,"inputs":[{"indexed":true,"internalType":"address","name":"implementation","type":"address"}],"name":"Upgraded","type":"event"},{"inputs":[{"internalType":"uint256","name":"","type":"uint256"}],"name":"_disabledUsersList","outputs":[{"internalType":"address","name":"","type":"address"}],"stateMutability":"view","type":"function"},{"inputs":[{"internalType":"uint32","name":"_refererID","type":"uint32"}],"name":"activateID","outputs":[],"stateMutability":"payable","type":"function"},{"inputs":[{"internalType":"uint32","name":"_id","type":"uint32"},{"internalType":"uint256","name":"_valueInUSD","type":"uint256"}],"name":"claimBalance","outputs":[],"stateMutability":"nonpayable","type":"function"},{"inputs":[{"internalType":"uint32","name":"_id","type":"uint32"}],"name":"claimROI","outputs":[],"stateMutability":"nonpayable","type":"function"},{"inputs":[],"name":"companyTurnoverTimeLimit","outputs":[{"internalType":"uint256","name":"","type":"uint256"}],"stateMutability":"view","type":"function"},{"inputs":[],"name":"companyTurnoverTimeStamp","outputs":[{"internalType":"uint256","name":"","type":"uint256"}],"stateMutability":"view","type":"function"},{"inputs":[],"name":"companyTurnoverWithTimeLimit","outputs":[{"internalType":"uint256","name":"","type":"uint256"}],"stateMutability":"view","type":"function"},{"inputs":[],"name":"decimals","outputs":[{"internalType":"uint16","name":"","type":"uint16"}],"stateMutability":"view","type":"function"},{"inputs":[{"internalType":"address","name":"_userAddress","type":"address"}],"name":"disableUserAdmin","outputs":[],"stateMutability":"nonpayable","type":"function"},{"inputs":[{"internalType":"uint8","name":"_packageID","type":"uint8"}],"name":"getAchieversList","outputs":[{"internalType":"uint32[]","name":"","type":"uint32[]"}],"stateMutability":"view","type":"function"},{"inputs":[{"internalType":"uint32","name":"_id","type":"uint32"}],"name":"getIDAccount","outputs":[{"components":[{"internalType":"uint32","name":"id","type":"uint32"},{"internalType":"string","name":"oldID","type":"string"},{"internalType":"bool","name":"isDisabled","type":"bool"},{"internalType":"address","name":"owner","type":"address"},{"internalType":"uint256","name":"joiningTime","type":"uint256"},{"internalType":"uint256","name":"activationTime","type":"uint256"},{"internalType":"uint256","name":"deactivateTime","type":"uint256"},{"internalType":"uint32[]","name":"roiIDs","type":"uint32[]"},{"internalType":"uint32","name":"refererID","type":"uint32"},{"internalType":"uint32[]","name":"refereeIDs","type":"uint32[]"},{"internalType":"uint32[]","name":"teamIDs","type":"uint32[]"},{"internalType":"uint256","name":"selfBusinessUSD","type":"uint256"},{"internalType":"uint256","name":"selfBusinessUSDOld","type":"uint256"},{"internalType":"uint256","name":"directBusinessUSD","type":"uint256"},{"internalType":"uint256","name":"directBusinessUSDOld","type":"uint256"},{"internalType":"uint256","name":"teamBusinessUSD","type":"uint256"},{"internalType":"uint256","name":"teamBusinessUSDOld","type":"uint256"},{"internalType":"uint256","name":"royaltyClubBusinessUSD","type":"uint256"},{"internalType":"uint256","name":"timeStampRoyaltyClub","type":"uint256"},{"internalType":"uint8","name":"royaltyClubPackageID","type":"uint8"},{"internalType":"uint256","name":"royaltyClubListIndex","type":"uint256"},{"internalType":"uint256","name":"referralPaidUSD","type":"uint256"},{"internalType":"uint256","name":"rewardPaidRoyaltyClubUSD","type":"uint256"},{"internalType":"uint256","name":"topUpUSD","type":"uint256"},{"internalType":"uint256","name":"balanceClaimedUSD","type":"uint256"},{"internalType":"uint256","name":"limitBalanceUSD","type":"uint256"},{"internalType":"uint256","name":"maxLimitAmount","type":"uint256"},{"internalType":"uint256","name":"roiClaimedUSD","type":"uint256"},{"internalType":"uint256","name":"roiClaimTimestamp","type":"uint256"}],"internalType":"struct ReferralV2Upgradeable.StructID","name":"","type":"tuple"}],"stateMutability":"view","type":"function"},{"inputs":[{"internalType":"uint32","name":"_id","type":"uint32"}],"name":"getIDClaimableBalance","outputs":[{"internalType":"uint256","name":"","type":"uint256"}],"stateMutability":"view","type":"function"},{"inputs":[{"internalType":"uint32","name":"_id","type":"uint32"}],"name":"getIDRoyaltyClubLevel","outputs":[{"internalType":"uint256","name":"","type":"uint256"}],"stateMutability":"view","type":"function"},{"inputs":[],"name":"getPriceOracleContract","outputs":[{"internalType":"address","name":"","type":"address"}],"stateMutability":"view","type":"function"},{"inputs":[{"internalType":"uint32","name":"_roiID","type":"uint32"}],"name":"getROIAccount","outputs":[{"components":[{"internalType":"bool","name":"isActive","type":"bool"},{"internalType":"uint32","name":"ownerID","type":"uint32"},{"internalType":"uint256","name":"valueInUSD","type":"uint256"},{"internalType":"uint16","name":"roiRate","type":"uint16"},{"internalType":"uint256","name":"startTime","type":"uint256"},{"internalType":"uint256","name":"duration","type":"uint256"},{"internalType":"uint256","name":"roiClaimed","type":"uint256"}],"internalType":"struct ReferralV2Upgradeable.StructROI","name":"","type":"tuple"}],"stateMutability":"view","type":"function"},{"inputs":[{"internalType":"uint8","name":"_packageID","type":"uint8"}],"name":"getRoyaltyClubPackageInfo","outputs":[{"components":[{"internalType":"uint8","name":"packageID","type":"uint8"},{"internalType":"uint256","name":"selfBusinessUSD","type":"uint256"},{"internalType":"uint256","name":"directBusinessUSD","type":"uint256"},{"internalType":"uint256","name":"teamBusinessUSD","type":"uint256"},{"internalType":"string","name":"rankName","type":"string"},{"internalType":"uint256","name":"reward","type":"uint256"},{"internalType":"uint256","name":"businessLimit","type":"uint256"},{"internalType":"uint256","name":"timeLimit","type":"uint256"},{"internalType":"bool","name":"isOneTimeRewardPaid","type":"bool"},{"internalType":"bool","name":"isPayReccursive","type":"bool"},{"internalType":"uint32[]","name":"achieversList","type":"uint32[]"}],"internalType":"struct ReferralV2Upgradeable.StructPackages","name":"","type":"tuple"}],"stateMutability":"view","type":"function"},{"inputs":[{"internalType":"address","name":"_address","type":"address"}],"name":"getUserAccount","outputs":[{"components":[{"internalType":"bool","name":"isDisabled","type":"bool"},{"internalType":"uint32[]","name":"accountIDs","type":"uint32[]"}],"internalType":"struct ReferralV2Upgradeable.StructAccount","name":"","type":"tuple"}],"stateMutability":"view","type":"function"},{"inputs":[{"internalType":"uint32","name":"_id","type":"uint32"}],"name":"getUserIDTotalROI","outputs":[{"internalType":"uint256","name":"roi","type":"uint256"}],"stateMutability":"view","type":"function"},{"inputs":[{"internalType":"uint32","name":"_id","type":"uint32"}],"name":"getUserTotalActiveROIValue","outputs":[{"internalType":"uint256","name":"","type":"uint256"}],"stateMutability":"view","type":"function"},{"inputs":[{"internalType":"uint32","name":"_id","type":"uint32"}],"name":"getUserUnlockCount","outputs":[{"internalType":"uint256","name":"","type":"uint256"}],"stateMutability":"view","type":"function"},{"inputs":[],"name":"initialize","outputs":[],"stateMutability":"nonpayable","type":"function"},{"inputs":[],"name":"isPayROI","outputs":[{"internalType":"bool","name":"","type":"bool"}],"stateMutability":"view","type":"function"},{"inputs":[],"name":"isPayRoyaltyClubBonus","outputs":[{"internalType":"bool","name":"","type":"bool"}],"stateMutability":"view","type":"function"},{"inputs":[{"internalType":"address","name":"_userAddress","type":"address"}],"name":"isUserDisabledByAdmin","outputs":[{"internalType":"bool","name":"","type":"bool"}],"stateMutability":"view","type":"function"},{"inputs":[{"internalType":"uint256","name":"","type":"uint256"}],"name":"levelRates","outputs":[{"internalType":"uint16","name":"","type":"uint16"}],"stateMutability":"view","type":"function"},{"inputs":[],"name":"maxLevelsCount","outputs":[{"internalType":"uint8","name":"","type":"uint8"}],"stateMutability":"view","type":"function"},{"inputs":[],"name":"minContributionInUSD","outputs":[{"internalType":"uint256","name":"","type":"uint256"}],"stateMutability":"view","type":"function"},{"inputs":[],"name":"owner","outputs":[{"internalType":"address","name":"","type":"address"}],"stateMutability":"view","type":"function"},{"inputs":[],"name":"packagesCount","outputs":[{"internalType":"uint8","name":"","type":"uint8"}],"stateMutability":"view","type":"function"},{"inputs":[],"name":"payRoyaltyClubReccursiveBonusAdmin","outputs":[],"stateMutability":"nonpayable","type":"function"},{"inputs":[],"name":"proxiableUUID","outputs":[{"internalType":"bytes32","name":"","type":"bytes32"}],"stateMutability":"view","type":"function"},{"inputs":[{"internalType":"address","name":"_userAddress","type":"address"}],"name":"removeUserFromDisableList","outputs":[],"stateMutability":"nonpayable","type":"function"},{"inputs":[],"name":"renounceOwnership","outputs":[],"stateMutability":"nonpayable","type":"function"},{"inputs":[],"name":"royaltyClubPackageCount","outputs":[{"internalType":"uint8","name":"","type":"uint8"}],"stateMutability":"view","type":"function"},{"inputs":[{"internalType":"address","name":"_address","type":"address"},{"internalType":"uint256","name":"_value","type":"uint256"}],"name":"sendETHAdmin","outputs":[],"stateMutability":"nonpayable","type":"function"},{"inputs":[{"internalType":"uint16","name":"_value","type":"uint16"}],"name":"setLevelDecimals","outputs":[],"stateMutability":"nonpayable","type":"function"},{"inputs":[{"internalType":"uint8[]","name":"_value","type":"uint8[]"}],"name":"setLevelRates","outputs":[],"stateMutability":"nonpayable","type":"function"},{"inputs":[{"internalType":"uint8","name":"_valueInDecimals","type":"uint8"}],"name":"setMaxLevelsCountAdmin","outputs":[],"stateMutability":"nonpayable","type":"function"},{"inputs":[{"internalType":"address","name":"_contractAddress","type":"address"}],"name":"setPriceOracleContract","outputs":[],"stateMutability":"nonpayable","type":"function"},{"inputs":[{"internalType":"uint8","name":"packageID","type":"uint8"},{"internalType":"uint256","name":"selfBusinessUSD","type":"uint256"},{"internalType":"uint256","name":"directBusinessUSD","type":"uint256"},{"internalType":"uint256","name":"teamBusinessUSD","type":"uint256"},{"internalType":"string","name":"rankName","type":"string"},{"internalType":"uint256","name":"reward","type":"uint256"},{"internalType":"uint256","name":"businessLimit","type":"uint256"},{"internalType":"uint256","name":"timeLimit","type":"uint256"},{"internalType":"bool","name":"isPayReccursive","type":"bool"}],"name":"setRoyaltyClubPackage","outputs":[],"stateMutability":"nonpayable","type":"function"},{"inputs":[{"internalType":"uint8","name":"_valueInDecimals","type":"uint8"}],"name":"setRoyaltyPackageCount","outputs":[],"stateMutability":"nonpayable","type":"function"},{"inputs":[{"internalType":"uint32","name":"_id","type":"uint32"}],"name":"topUpID","outputs":[],"stateMutability":"payable","type":"function"},{"inputs":[],"name":"totalIDs","outputs":[{"internalType":"uint32","name":"","type":"uint32"}],"stateMutability":"view","type":"function"},{"inputs":[],"name":"totalROIIDs","outputs":[{"internalType":"uint32","name":"","type":"uint32"}],"stateMutability":"view","type":"function"},{"inputs":[],"name":"totalRoyaltyClubBonusPaidETH","outputs":[{"internalType":"uint256","name":"","type":"uint256"}],"stateMutability":"view","type":"function"},{"inputs":[],"name":"totalRoyaltyClubBonusPaidUSD","outputs":[{"internalType":"uint256","name":"","type":"uint256"}],"stateMutability":"view","type":"function"},{"inputs":[],"name":"totalUsers","outputs":[{"internalType":"uint32","name":"","type":"uint32"}],"stateMutability":"view","type":"function"},{"inputs":[{"internalType":"address","name":"newOwner","type":"address"}],"name":"transferOwnership","outputs":[],"stateMutability":"nonpayable","type":"function"},{"inputs":[{"internalType":"uint32[]","name":"_userID","type":"uint32[]"},{"internalType":"address[]","name":"_userAddress","type":"address[]"},{"internalType":"string[]","name":"_oldID","type":"string[]"}],"name":"updateIDOldIDtoAddress","outputs":[],"stateMutability":"nonpayable","type":"function"},{"inputs":[{"internalType":"uint32[]","name":"_userID","type":"uint32[]"},{"internalType":"uint256[]","name":"_totalTopUp","type":"uint256[]"},{"internalType":"uint256[]","name":"_limitBalanceUSD","type":"uint256[]"},{"internalType":"uint256[]","name":"_balanceClaimedUSD","type":"uint256[]"},{"internalType":"uint256[]","name":"_joiningTime","type":"uint256[]"},{"internalType":"uint256[]","name":"_activationTime","type":"uint256[]"}],"name":"updateUserIDDataOldAdmin","outputs":[],"stateMutability":"nonpayable","type":"function"},{"inputs":[{"internalType":"address","name":"newImplementation","type":"address"}],"name":"upgradeTo","outputs":[],"stateMutability":"nonpayable","type":"function"},{"inputs":[{"internalType":"address","name":"newImplementation","type":"address"},{"internalType":"bytes","name":"data","type":"bytes"}],"name":"upgradeToAndCall","outputs":[],"stateMutability":"payable","type":"function"},{"inputs":[],"name":"withdrawETHAdmin","outputs":[],"stateMutability":"nonpayable","type":"function"},{"inputs":[{"internalType":"address","name":"_tokenAddress","type":"address"},{"internalType":"uint256","name":"_value","type":"uint256"}],"name":"withdrawTokensAdmin","outputs":[],"stateMutability":"nonpayable","type":"function"},{"stateMutability":"payable","type":"receive"}],"evm":{"bytecode":{"linkReferences":{},"object":"60a06040523060805234801561001457600080fd5b50608051615d086200004d60003960008181610edd01528181610f260152818161107e015281816110be015261113a0152615d086000f3fe6080604052600436106102995760003560e01c80638486e0661161015b578063bf46de63116100c7578063bf46de63146107c3578063bff1f9e1146107e3578063c3ab5ebf14610800578063db003b2a14610882578063e1c715ba146108a2578063e52356f3146108c2578063e5682e38146108e2578063ea62f715146108f5578063f2fde38b14610915578063f31a2d0f14610935578063f41bfeef14610955578063f830e57b1461096b578063fafc959714610998578063fb47e016146109b757600080fd5b80638486e066146106495780638da5cb5b146106695780638df05d9c1461068757806396ed6b85146106a75780639f4e8398146106bd578063a0b6105f146106dd578063a1b80175146106fd578063a28a368614610721578063a43ae40814610741578063aa7df4f214610761578063af2f39d114610776578063b47181d314610790578063b92d18c1146107b057600080fd5b80634a750822116102055780634a750822146104725780634b5102b8146104925780634f1ef286146104b257806352d1902d146104c5578063538ffe0c146104da5780635e701d8614610523578063631d33981461055c578063715018a61461057c57806376a68e8414610591578063770ceeb1146105b15780637879b5ef146105d15780637a026935146105f15780637bdbf996146106075780638129fc1c1461063457600080fd5b8063012da720146102a557806309de82cd146102db5780630b243dad146102ff5780630efdbb6a1461032157806318e10bff146103415780631f3c4cba1461036d5780631f7f83ba1461038d57806322f88b52146103c55780632913497b146103db5780632ed421d2146103f9578063313ce5671461040f578063357597881461043d5780633659cfe61461045257600080fd5b366102a057005b600080fd5b3480156102b157600080fd5b506102c56102c0366004614f41565b6109e4565b6040516102d29190614f5c565b60405180910390f35b3480156102e757600080fd5b506102f160ce5481565b6040519081526020016102d2565b34801561030b57600080fd5b5061031f61031a366004614fbd565b610a79565b005b34801561032d57600080fd5b5061031f61033c366004614fe7565b610abc565b34801561034d57600080fd5b5060d75461035b9060ff1681565b60405160ff90911681526020016102d2565b34801561037957600080fd5b506102f1610388366004615016565b610ae6565b34801561039957600080fd5b506103ad6103a8366004615031565b610e72565b6040516001600160a01b0390911681526020016102d2565b3480156103d157600080fd5b506102f160d35481565b3480156103e757600080fd5b5060c9546001600160a01b03166103ad565b34801561040557600080fd5b506102f160d45481565b34801561041b57600080fd5b5060cb5461042a9061ffff1681565b60405161ffff90911681526020016102d2565b34801561044957600080fd5b5061031f610e9c565b34801561045e57600080fd5b5061031f61046d366004614fe7565b610ed3565b34801561047e57600080fd5b5061031f61048d366004615115565b610fa1565b34801561049e57600080fd5b5061031f6104ad366004614f41565b611056565b61031f6104c03660046151b1565b611074565b3480156104d157600080fd5b506102f161112d565b3480156104e657600080fd5b506105136104f5366004614fe7565b6001600160a01b0316600090815260d8602052604090205460ff1690565b60405190151581526020016102d2565b34801561052f57600080fd5b5060cf5461054790600160201b900463ffffffff1681565b60405163ffffffff90911681526020016102d2565b34801561056857600080fd5b5061031f61057736600461525d565b6111db565b34801561058857600080fd5b5061031f6113de565b34801561059d57600080fd5b506102f16105ac366004615016565b6113f2565b3480156105bd57600080fd5b5061031f6105cc366004615016565b611406565b3480156105dd57600080fd5b5061042a6105ec366004615031565b61141d565b3480156105fd57600080fd5b506102f160cd5481565b34801561061357600080fd5b50610627610622366004614f41565b611455565b6040516102d29190615403565b34801561064057600080fd5b5061031f611668565b34801561065557600080fd5b5061031f610664366004614f41565b61190d565b34801561067557600080fd5b506033546001600160a01b03166103ad565b34801561069357600080fd5b5060cb5461035b9062010000900460ff1681565b3480156106b357600080fd5b506102f160cc5481565b3480156106c957600080fd5b5061031f6106d8366004614fe7565b611933565b3480156106e957600080fd5b5061031f6106f8366004614fbd565b6119a2565b34801561070957600080fd5b5060cf5461054790600160401b900463ffffffff1681565b34801561072d57600080fd5b5060d25461035b9062010000900460ff1681565b34801561074d57600080fd5b5061031f61075c3660046154c6565b611a1b565b34801561076d57600080fd5b5061031f611a3b565b34801561078257600080fd5b5060d2546105139060ff1681565b34801561079c57600080fd5b506102f16107ab366004615016565b611d94565b61031f6107be366004615016565b61210c565b3480156107cf57600080fd5b506102f16107de366004615016565b612219565b3480156107ef57600080fd5b5060cf546105479063ffffffff1681565b34801561080c57600080fd5b5061082061081b366004615016565b61227d565b6040516102d29190600060e08201905082511515825263ffffffff60208401511660208301526040830151604083015261ffff60608401511660608301526080830151608083015260a083015160a083015260c083015160c083015292915050565b34801561088e57600080fd5b5061031f61089d3660046154ea565b61233f565b3480156108ae57600080fd5b5061031f6108bd366004615627565b6124a8565b3480156108ce57600080fd5b5061031f6108dd366004614fe7565b6124bc565b61031f6108f0366004615016565b6125e5565b34801561090157600080fd5b506102f1610910366004615016565b612735565b34801561092157600080fd5b5061031f610930366004614fe7565b61284c565b34801561094157600080fd5b5061031f610950366004615668565b6128c2565b34801561096157600080fd5b506102f160d55481565b34801561097757600080fd5b5061098b610986366004615016565b612a24565b6040516102d29190615684565b3480156109a457600080fd5b5060d25461051390610100900460ff1681565b3480156109c357600080fd5b506109d76109d2366004614fe7565b612e87565b6040516102d29190615875565b60ff8116600090815260db6020908152604091829020600901805483518184028101840190945280845260609392830182828015610a6d57602002820191906000526020600020906000905b82829054906101000a900463ffffffff1663ffffffff1681526020019060040190602082600301049283019260010382029150808411610a305790505b50505050509050919050565b610a81612f2b565b6040516001600160a01b0383169082156108fc029083906000818181858888f19350505050158015610ab7573d6000803e3d6000fd5b505050565b610ac4612f2b565b60c980546001600160a01b0319166001600160a01b0392909216919091179055565b63ffffffff808216600090815260d96020908152604080832081516103a081019092528054909416815260018401805493948594929390929084019190610b2c9061589c565b80601f0160208091040260200160405190810160405280929190818152602001828054610b589061589c565b8015610ba55780601f10610b7a57610100808354040283529160200191610ba5565b820191906000526020600020905b815481529060010190602001808311610b8857829003601f168201915b5050509183525050600282015460ff811615156020808401919091526101009091046001600160a01b03166040808401919091526003840154606084015260048401546080840152600584015460a084015260068401805482518185028101850190935280835260c0909401939192909190830182828015610c7257602002820191906000526020600020906000905b82829054906101000a900463ffffffff1663ffffffff1681526020019060040190602082600301049283019260010382029150808411610c355790505b5050509183525050600782015463ffffffff166020808301919091526008830180546040805182850281018501825282815294019392830182828015610d0357602002820191906000526020600020906000905b82829054906101000a900463ffffffff1663ffffffff1681526020019060040190602082600301049283019260010382029150808411610cc65790505b5050505050815260200160098201805480602002602001604051908101604052809291908181526020018280548015610d8757602002820191906000526020600020906000905b82829054906101000a900463ffffffff1663ffffffff1681526020019060040190602082600301049283019260010382029150808411610d4a5790505b5050509183525050600a8201546020820152600b8201546040820152600c8201546060820152600d8201546080820152600e82015460a0820152600f82015460c0820152601082015460e08201526011820154610100820152601282015460ff1661012082015260138201546101408201526014820154610160820152601582015461018082015260168201546101a082015260178201546101c082015260188201546101e08201526019820154610200820152601a820154610220820152601b9091015461024090910152610300810151610320820151919250610e6b916158e6565b9392505050565b60d68181548110610e8257600080fd5b6000918252602090912001546001600160a01b0316905081565b610ea4612f2b565b60405133904780156108fc02916000818181858888f19350505050158015610ed0573d6000803e3d6000fd5b50565b6001600160a01b037f0000000000000000000000000000000000000000000000000000000000000000163003610f245760405162461bcd60e51b8152600401610f1b906158f9565b60405180910390fd5b7f00000000000000000000000000000000000000000000000000000000000000006001600160a01b0316610f56612f85565b6001600160a01b031614610f7c5760405162461bcd60e51b8152600401610f1b90615945565b610f8581612fa1565b60408051600080825260208201909252610ed091839190612fa9565b610fa9612f2b565b60ff8916600081815260db60205260409020805460ff1916909117815560018101899055600281018890556003810187905560048101610fe987826159d7565b5060058101859055600681018490556007810183905560088101805461ff0019166101008415150217905560405160ff8b1681527fa24b8cf512af3c40223886405905578154323d4ba0d3802ec5756b9684ce1b799060200160405180910390a150505050505050505050565b61105e612f2b565b60d7805460ff191660ff92909216919091179055565b6001600160a01b037f00000000000000000000000000000000000000000000000000000000000000001630036110bc5760405162461bcd60e51b8152600401610f1b906158f9565b7f00000000000000000000000000000000000000000000000000000000000000006001600160a01b03166110ee612f85565b6001600160a01b0316146111145760405162461bcd60e51b8152600401610f1b90615945565b61111d82612fa1565b61112982826001612fa9565b5050565b6000306001600160a01b037f000000000000000000000000000000000000000000000000000000000000000016146111c85760405162461bcd60e51b815260206004820152603860248201527f555550535570677261646561626c653a206d757374206e6f742062652063616c6044820152771b1959081d1a1c9bdd59da0819195b1959d85d1958d85b1b60421b6064820152608401610f1b565b50600080516020615c8c83398151915290565b6111e3612f2b565b60005b61ffff81168511156113d657600060d9600088888561ffff1681811061120e5761120e615a96565b90506020020160208101906112239190615016565b63ffffffff1663ffffffff1681526020019081526020016000209050600060d8600087878661ffff1681811061125b5761125b615a96565b90506020020160208101906112709190614fe7565b6001600160a01b03166001600160a01b03168152602001908152602001600020905087878461ffff168181106112a8576112a8615a96565b90506020020160208101906112bd9190615016565b825463ffffffff191663ffffffff919091161782558351849061ffff85169081106112ea576112ea615a96565b602002602001015182600101908161130291906159d7565b508060010188888561ffff1681811061131d5761131d615a96565b90506020020160208101906113329190615016565b8154600181018355600092835260209092206008830401805460079093166004026101000a63ffffffff818102199094169290931692909202179055858561ffff851681811061138457611384615a96565b90506020020160208101906113999190614fe7565b8260020160016101000a8154816001600160a01b0302191690836001600160a01b03160217905550505080806113ce90615aac565b9150506111e6565b505050505050565b6113e6612f2b565b6113f06000613114565b565b60006113fd82613166565b60ff1692915050565b600061141182613583565b90506111298183613851565b60ca818154811061142d57600080fd5b9060005260206000209060109182820401919006600202915054906101000a900461ffff1681565b6114b9604051806101600160405280600060ff16815260200160008152602001600081526020016000815260200160608152602001600081526020016000815260200160008152602001600015158152602001600015158152602001606081525090565b60ff808316600090815260db602090815260409182902082516101608101845281549094168452600181015491840191909152600281015491830191909152600381015460608301526004810180546080840191906115179061589c565b80601f01602080910402602001604051908101604052809291908181526020018280546115439061589c565b80156115905780601f1061156557610100808354040283529160200191611590565b820191906000526020600020905b81548152906001019060200180831161157357829003601f168201915b50505091835250506005820154602080830191909152600683015460408084019190915260078401546060840152600884015460ff8082161515608086015261010090910416151560a084015260098401805482518185028101850190935280835260c090940193919290919083018282801561165857602002820191906000526020600020906000905b82829054906101000a900463ffffffff1663ffffffff168152602001906004019060208260030104928301926001038202915080841161161b5790505b5050505050815250509050919050565b600054610100900460ff16158080156116885750600054600160ff909116105b806116a9575061169730613f36565b1580156116a9575060005460ff166001145b61170c5760405162461bcd60e51b815260206004820152602e60248201527f496e697469616c697a61626c653a20636f6e747261637420697320616c72656160448201526d191e481a5b9a5d1a585b1a5e995960921b6064820152608401610f1b565b6000805460ff19166001179055801561172f576000805461ff0019166101001790555b60c980546001600160a01b03191673f594034b9ab80fdb03560ba3e5c8eea0b0ead16817905560cb805461ffff19166103e8179055604080516103a08101825260648152604660208201526032918101829052606081018290526080810182905260a0810182905260c0810182905260e08101829052610100810182905261012081018290526101408101829052610160810182905261018081018290526101a081018290526101c081018290526101e08101829052610200810182905261022081018290526102408101919091526014610260820181905261028082018190526102a082018190526102c082018190526102e08201819052610300820181905261032082018190526103408201819052610360820181905261038082015261185c9060ca90601d614e03565b5060cb805462ff0000191662320000179055670de0b6b3a764000060cc5560d2805463ff00ffff1916630200010117905560cf805461ffff60601b1916607d60631b17905563020f580060d055601460d15562278d0060d5556118bd613f45565b6118c5613f74565b8015610ed0576000805461ff0019169055604051600181527f7f26b83ff96e1f2b6a682f133852f6798a09c465da95921460cefb38474024989060200160405180910390a150565b611915612f2b565b60cb805460ff909216620100000262ff000019909216919091179055565b61193b612f2b565b60d6805460018181019092557fe767803f8ecf1dee6bb0345811f7312cda556058b19db6389ad9ae3568643ddd0180546001600160a01b039093166001600160a01b031990931683179055600091825260d86020526040909120805460ff19169091179055565b6119aa612f2b565b60405163a9059cbb60e01b8152336004820152602481018290526001600160a01b0383169063a9059cbb906044016020604051808303816000875af11580156119f7573d6000803e3d6000fd5b505050506040513d601f19601f82011682018060405250810190610ab79190615acd565b611a23612f2b565b60cb805461ffff191661ffff92909216919091179055565b611a43612f2b565b60d75460ff1660005b8160ff168160ff161015611d875760ff808216600090815260db602090815260408083208151610160810183528154909516855260018101549285019290925260028201549084015260038101546060840152600481018054929392608084019190611ab79061589c565b80601f0160208091040260200160405190810160405280929190818152602001828054611ae39061589c565b8015611b305780601f10611b0557610100808354040283529160200191611b30565b820191906000526020600020905b815481529060010190602001808311611b1357829003601f168201915b50505091835250506005820154602080830191909152600683015460408084019190915260078401546060840152600884015460ff8082161515608086015261010090910416151560a084015260098401805482518185028101850190935280835260c0909401939192909190830182828015611bf857602002820191906000526020600020906000905b82829054906101000a900463ffffffff1663ffffffff1681526020019060040190602082600301049283019260010382029150808411611bbb5790505b5050505050815250509050806101200151611c135750611d75565b610140810151805160cb5460a084015160d35460009263ffffffff85169261ffff90911691611c429190615aea565b611c4c9190615b01565b611c569190615b01565b905060005b8263ffffffff168163ffffffff161015611d6f57600060d96000868463ffffffff1681518110611c8d57611c8d615a96565b602002602001015163ffffffff1663ffffffff16815260200190815260200160002090508560c001518160100154118015611cd057508060190154816018015411155b15611d5c5782816018016000828254611ce99190615b23565b9250508190555082858363ffffffff1681518110611d0957611d09615a96565b602002602001015163ffffffff167f94b6d3d19cc40938e685ef6a1f6476b53ef65295ab094a044e74405a8d0bd05b8860000151604051611d53919060ff91909116815260200190565b60405180910390a35b5080611d6781615b36565b915050611c5b565b50505050505b80611d7f81615b4f565b915050611a4c565b5050600060d3554260d455565b63ffffffff808216600090815260d96020908152604080832081516103a081019092528054909416815260018401805493948594929390929084019190611dda9061589c565b80601f0160208091040260200160405190810160405280929190818152602001828054611e069061589c565b8015611e535780601f10611e2857610100808354040283529160200191611e53565b820191906000526020600020905b815481529060010190602001808311611e3657829003601f168201915b5050509183525050600282015460ff811615156020808401919091526101009091046001600160a01b03166040808401919091526003840154606084015260048401546080840152600584015460a084015260068401805482518185028101850190935280835260c0909401939192909190830182828015611f2057602002820191906000526020600020906000905b82829054906101000a900463ffffffff1663ffffffff1681526020019060040190602082600301049283019260010382029150808411611ee35790505b5050509183525050600782015463ffffffff166020808301919091526008830180546040805182850281018501825282815294019392830182828015611fb157602002820191906000526020600020906000905b82829054906101000a900463ffffffff1663ffffffff1681526020019060040190602082600301049283019260010382029150808411611f745790505b505050505081526020016009820180548060200260200160405190810160405280929190818152602001828054801561203557602002820191906000526020600020906000905b82829054906101000a900463ffffffff1663ffffffff1681526020019060040190602082600301049283019260010382029150808411611ff85790505b5050509183525050600a8201546020820152600b8201546040820152600c8201546060820152600d8201546080820152600e82015460a0820152600f82015460c0820152601082015460e08201526011820154610100820152601282015460ff1661012082015260138201546101408201526014820154610160820152601582015461018082015260168201546101a082015260178201546101c082015260188201546101e08201526019820154610200820152601a820154610220820152601b90910154610240909101529050610e6b81613f9b565b60cc54349061211a90613fd8565b81101561217d5760405162461bcd60e51b815260206004820152602b60248201527f56616c75652073686f756c6420626520677265617465207468656e206d696e4360448201526a37b73a3934b13aba34b7b760a91b6064820152608401610f1b565b3360006121898361406e565b60cf5490915042906000906121ac90600160401b900463ffffffff166001615b6e565b63ffffffff8716600090815260d9602052604090206002810154919250906001600160a01b0386811661010090920416146121f95760405162461bcd60e51b8152600401610f1b90615b92565b60d25460ff161561221057612210878386866140fb565b50505050505050565b63ffffffff8116600090815260d96020526040812081612238846141ed565b9050816019015481836018015461224f9190615b23565b1161225c57809250612276565b60008260180154836019015461227291906158e6565b9350505b5050919050565b6122c96040518060e00160405280600015158152602001600063ffffffff16815260200160008152602001600061ffff1681526020016000815260200160008152602001600081525090565b5063ffffffff908116600090815260da6020908152604091829020825160e081018452815460ff811615158252610100900490941691840191909152600181015491830191909152600281015461ffff16606083015260038101546080830152600481015460a08301526005015460c082015290565b612347612f2b565b60005b8b8110156124995760cf8054600160401b900463ffffffff1690600861236f83615b36565b91906101000a81548163ffffffff021916908363ffffffff1602179055505060008b8b838181106123a2576123a2615a96565b9050602002013511156124875760008b8b838181106123c3576123c3615a96565b9050602002013560036123d69190615aea565b90506124858e8e848181106123ed576123ed615a96565b90506020020160208101906124029190615016565b8d8d8581811061241457612414615a96565b905060200201358c8c8681811061242d5761242d615a96565b90506020020135848c8c8881811061244757612447615a96565b905060200201358b8b8981811061246057612460615a96565b905060200201358a8a8a81811061247957612479615a96565b905060200201356142c7565b505b8061249181615bc9565b91505061234a565b50505050505050505050505050565b6124b0612f2b565b610ab760ca8383614eab565b6124c4612f2b565b6001600160a01b038116600090815260d860205260408120805460ff1916905560d654905b81811015610ab757826001600160a01b031660d6828154811061250e5761250e615a96565b6000918252602090912001546001600160a01b0316036125d35760d66125356001846158e6565b8154811061254557612545615a96565b60009182526020909120015460d680546001600160a01b03909216918390811061257157612571615a96565b9060005260206000200160006101000a8154816001600160a01b0302191690836001600160a01b0316021790555060d68054806125b0576125b0615be2565b600082815260209020810160001990810180546001600160a01b03191690550190555b806125dd81615bc9565b9150506124e9565b3460006125f18261406e565b90506125fe60cc54613fd8565b82101561264d5760405162461bcd60e51b815260206004820152601f60248201527f56616c75652073686f756c6420626520677265617465207468656e20313030006044820152606401610f1b565b60cf543390429060009061266f90600160201b900463ffffffff166001615b6e565b60cf5490915060009061269090600160401b900463ffffffff166001615b6e565b6001600160a01b038516600090815260d86020526040902060d2549192509060ff16156126c3576126c3838388876140fb565b6126ea838987896126d5816003615aea565b60cb548a90819062010000900460ff16614436565b6001908101805491820181556000908152602090206008820401805460079092166004026101000a63ffffffff81810219909316949092169190910292909217909155505050505050565b63ffffffff8116600090815260d960209081526040808320600601805482518185028101850190935280835284938301828280156127be57602002820191906000526020600020906000905b82829054906101000a900463ffffffff1663ffffffff16815260200190600401906020826003010492830192600103820291508084116127815790505b505050505090506000805b82518161ffff16101561284457600060da6000858461ffff16815181106127f2576127f2615a96565b60209081029190910181015163ffffffff168252810191909152604001600020805490915060ff161561283157600181015461282e9084615b23565b92505b508061283c81615aac565b9150506127c9565b509392505050565b612854612f2b565b6001600160a01b0381166128b95760405162461bcd60e51b815260206004820152602660248201527f4f776e61626c653a206e6577206f776e657220697320746865207a65726f206160448201526564647265737360d01b6064820152608401610f1b565b610ed081613114565b63ffffffff8216600090815260d960205260409020600281015460ff161561291f5760405162461bcd60e51b815260206004820152601060248201526f4944206973206e6f742061637469766560801b6044820152606401610f1b565b600281015461010090046001600160a01b031633146129505760405162461bcd60e51b8152600401610f1b90615b92565b600061295b82614930565b601783015490915061296d81836158e6565b8411156129cf5760405162461bcd60e51b815260206004820152602a60248201527f506c6561736520656e7465722076616c7565206c657373207468656e20796f7560448201526939103130b630b731b29760b11b6064820152608401610f1b565b838360170160008282546129e39190615b23565b9091555050604051339085156108fc029086906000818181858888f19350505050158015612a15573d6000803e3d6000fd5b50826019015461221084614930565b612b19604051806103a00160405280600063ffffffff1681526020016060815260200160001515815260200160006001600160a01b0316815260200160008152602001600081526020016000815260200160608152602001600063ffffffff16815260200160608152602001606081526020016000815260200160008152602001600081526020016000815260200160008152602001600081526020016000815260200160008152602001600060ff1681526020016000815260200160008152602001600081526020016000815260200160008152602001600081526020016000815260200160008152602001600081525090565b63ffffffff808316600090815260d9602090815260409182902082516103a081019093528054909316825260018301805492939291840191612b5a9061589c565b80601f0160208091040260200160405190810160405280929190818152602001828054612b869061589c565b8015612bd35780601f10612ba857610100808354040283529160200191612bd3565b820191906000526020600020905b815481529060010190602001808311612bb657829003601f168201915b5050509183525050600282015460ff811615156020808401919091526101009091046001600160a01b03166040808401919091526003840154606084015260048401546080840152600584015460a084015260068401805482518185028101850190935280835260c0909401939192909190830182828015612ca057602002820191906000526020600020906000905b82829054906101000a900463ffffffff1663ffffffff1681526020019060040190602082600301049283019260010382029150808411612c635790505b5050509183525050600782015463ffffffff166020808301919091526008830180546040805182850281018501825282815294019392830182828015612d3157602002820191906000526020600020906000905b82829054906101000a900463ffffffff1663ffffffff1681526020019060040190602082600301049283019260010382029150808411612cf45790505b5050505050815260200160098201805480602002602001604051908101604052809291908181526020018280548015612db557602002820191906000526020600020906000905b82829054906101000a900463ffffffff1663ffffffff1681526020019060040190602082600301049283019260010382029150808411612d785790505b5050509183525050600a8201546020820152600b8201546040820152600c8201546060820152600d8201546080820152600e82015460a0820152600f82015460c0820152601082015460e08201526011820154610100820152601282015460ff1661012082015260138201546101408201526014820154610160820152601582015461018082015260168201546101a082015260178201546101c082015260188201546101e08201526019820154610200820152601a820154610220820152601b909101546102409091015292915050565b6040805180820190915260008152606060208201526001600160a01b038216600090815260d8602090815260409182902082518084018452815460ff161515815260018201805485518186028101860190965280865291949293858101939290830182828015611658576000918252602091829020805463ffffffff16845290820283019290916004910180841161161b5790505050505050815250509050919050565b6033546001600160a01b031633146113f05760405162461bcd60e51b815260206004820181905260248201527f4f776e61626c653a2063616c6c6572206973206e6f7420746865206f776e65726044820152606401610f1b565b600080516020615c8c833981519152546001600160a01b031690565b610ed0612f2b565b7f4910fdfa16fed3260ed0e7147f7cc6da11a60208b5b9406d12a635614ffd91435460ff1615612fdc57610ab783614958565b826001600160a01b03166352d1902d6040518163ffffffff1660e01b8152600401602060405180830381865afa925050508015613036575060408051601f3d908101601f1916820190925261303391810190615bf8565b60015b6130995760405162461bcd60e51b815260206004820152602e60248201527f45524331393637557067726164653a206e657720696d706c656d656e7461746960448201526d6f6e206973206e6f74205555505360901b6064820152608401610f1b565b600080516020615c8c83398151915281146131085760405162461bcd60e51b815260206004820152602960248201527f45524331393637557067726164653a20756e737570706f727465642070726f786044820152681a58589b195555525160ba1b6064820152608401610f1b565b50610ab78383836149f2565b603380546001600160a01b038381166001600160a01b0319831681179093556040519116919082907f8be0079c531659141344cd1fd0a4f28419497f9722a3daafe3b4186f6b6457e090600090a35050565b63ffffffff808216600090815260d96020908152604080832081516103a0810190925280549094168152600184018054939485949293909290840191906131ac9061589c565b80601f01602080910402602001604051908101604052809291908181526020018280546131d89061589c565b80156132255780601f106131fa57610100808354040283529160200191613225565b820191906000526020600020905b81548152906001019060200180831161320857829003601f168201915b5050509183525050600282015460ff811615156020808401919091526101009091046001600160a01b03166040808401919091526003840154606084015260048401546080840152600584015460a084015260068401805482518185028101850190935280835260c09094019391929091908301828280156132f257602002820191906000526020600020906000905b82829054906101000a900463ffffffff1663ffffffff16815260200190600401906020826003010492830192600103820291508084116132b55790505b5050509183525050600782015463ffffffff16602080830191909152600883018054604080518285028101850182528281529401939283018282801561338357602002820191906000526020600020906000905b82829054906101000a900463ffffffff1663ffffffff16815260200190600401906020826003010492830192600103820291508084116133465790505b505050505081526020016009820180548060200260200160405190810160405280929190818152602001828054801561340757602002820191906000526020600020906000905b82829054906101000a900463ffffffff1663ffffffff16815260200190600401906020826003010492830192600103820291508084116133ca5790505b5050509183525050600a8201546020820152600b8201546040820152600c8201546060820152600d8201546080820152600e82015460a0820152600f82015460c0820152601082015460e08201526011820154610100820152601282015460ff90811661012083015260138301546101408301526014830154610160830152601583015461018083015260168301546101a083015260178301546101c083015260188301546101e08301526019830154610200830152601a830154610220830152601b909201546102409091015260d7549192501660005b8160ff168160ff16101561357b5760ff8116600090815260db602052604090206001015461016084015110801590613531575060ff8116600090815260db60205260409020600201546101a084015110155b8015613557575060ff8116600090815260db60205260409020600301546101e084015110155b1561356457809350613569565b61357b565b8061357381615b4f565b9150506134df565b505050919050565b60d9602090815263ffffffff82166000908152604080822060068101805483518187028101870190945280845293947f665fecb6766038646257fb3193371280b91d4ee69f1071872c4c7b974431a488949293869390929183018282801561363657602002820191906000526020600020906000905b82829054906101000a900463ffffffff1663ffffffff16815260200190600401906020826003010492830192600103820291508084116135f95790505b505050505090506000805b82518110156136f657600060da600085848151811061366257613662615a96565b602002602001015163ffffffff1663ffffffff16815260200190815260200160002090506136a884838151811061369b5761369b615a96565b6020026020010151614a1d565b6136b29084615b23565b92506136c984838151811061369b5761369b615a96565b8160050160008282546136dc9190615b23565b909155508291506136ee905081615bc9565b915050613641565b50826019015481846018015461370c9190615b23565b116137a457808360180160008282546137259190615b23565b925050819055508083601a0160008282546137409190615b23565b909155505042601b840155601884018054829190600090613762908490615b23565b90915550506040519094508490819063ffffffff8816907f7cd8783637a6bf8d3b4b69973a28720cfb0f5abc55d8b85dde1732d8f22c0efc90600090a3613848565b6000836018015484601901546137ba91906158e6565b9050808763ffffffff167f7cd8783637a6bf8d3b4b69973a28720cfb0f5abc55d8b85dde1732d8f22c0efc60405160405180910390a3836019015484601801819055508084601a0160008282546138119190615b23565b909155505042601b850155601885018054829190600090613833908490615b23565b9250508190555080955061384684614ad3565b505b50505050919050565b600060ca8054806020026020016040519081016040528092919081815260200182805480156138c757602002820191906000526020600020906000905b82829054906101000a900461ffff1661ffff168152602001906002019060208260010104928301926001038202915080841161388e5790505b5050835163ffffffff8716600090815260d960205260408120818052959650909493507f665fecb6766038646257fb3193371280b91d4ee69f1071872c4c7b974431a48892509050805b84811015613f1357600784015463ffffffff16600081815260d960205260409020600281015461010090046001600160a01b0316613950575050613f13565b600281015460ff16156139ca57604051725265666572657220697320496e61637469766560681b81526013015b604051908190039020613991846001615b23565b60405163ffffffff8516907f6bd4a1cb98fe02ede79e45b5749c74ff512165c4fb80ce4045eebef0e4e867dc90600090a450613f019050565b8060190154816018015410613aa5576040517f5265616368656420746865206c696d69742e205265666572657220697320496e815267030b1ba34bb3297160c51b6020820152602801604051908190039020613a27846001615b23565b60405163ffffffff8516907f6bd4a1cb98fe02ede79e45b5749c74ff512165c4fb80ce4045eebef0e4e867dc90600090a4613a6181614bfb565b805460405163ffffffff90911681527fd13a3fe87e20364852910ef677df51f59e843df0dc53fa5449acde0af7ec822d9060200160405180910390a150613f019050565b604080516103a08101909152815463ffffffff168152600182018054613e0392918491602084019190613ad79061589c565b80601f0160208091040260200160405190810160405280929190818152602001828054613b039061589c565b8015613b505780601f10613b2557610100808354040283529160200191613b50565b820191906000526020600020905b815481529060010190602001808311613b3357829003601f168201915b5050509183525050600282015460ff811615156020808401919091526101009091046001600160a01b03166040808401919091526003840154606084015260048401546080840152600584015460a084015260068401805482518185028101850190935280835260c0909401939192909190830182828015613c1d57602002820191906000526020600020906000905b82829054906101000a900463ffffffff1663ffffffff1681526020019060040190602082600301049283019260010382029150808411613be05790505b5050509183525050600782015463ffffffff166020808301919091526008830180546040805182850281018501825282815294019392830182828015613cae57602002820191906000526020600020906000905b82829054906101000a900463ffffffff1663ffffffff1681526020019060040190602082600301049283019260010382029150808411613c715790505b5050505050815260200160098201805480602002602001604051908101604052809291908181526020018280548015613d3257602002820191906000526020600020906000905b82829054906101000a900463ffffffff1663ffffffff1681526020019060040190602082600301049283019260010382029150808411613cf55790505b5050509183525050600a8201546020820152600b8201546040820152600c8201546060820152600d8201546080820152600e82015460a0820152600f82015460c0820152601082015460e08201526011820154610100820152601282015460ff1661012082015260138201546101408201526014820154610160820152601582015461018082015260168201546101a082015260178201546101c082015260188201546101e08201526019820154610200820152601a820154610220820152601b9091015461024090910152613f9b565b613e0e846001615b23565b1115613e42576040517f446f776e6c696e65206c6576656c73206c696d697420726561636865640000008152601d0161397d565b60cb54885160009161ffff16908a9086908110613e6157613e61615a96565b602002602001015161ffff168c613e789190615aea565b613e829190615b01565b905080826014016000828254613e989190615b23565b90915550613ea890508282614c13565b613eb28186615b23565b94508063ffffffff808516908c167f516e026aa0a8e23fcb20eebf31df57c3e9df29f305428f45e22d048a8582dfa0613eec886001615b23565b60405190815260200160405180910390a45050505b80613f0b81615bc9565b915050613911565b5080826014016000828254613f289190615b23565b909155505050505050505050565b6001600160a01b03163b151590565b600054610100900460ff16613f6c5760405162461bcd60e51b8152600401610f1b90615c11565b6113f0614c4b565b600054610100900460ff166113f05760405162461bcd60e51b8152600401610f1b90615c11565b61012081015151600090818115610e6b5760d254600190613fc6906301000000900460ff1684615aea565b613fd091906158e6565b949350505050565b60008060c960009054906101000a90046001600160a01b03166001600160a01b031663e1aa60366040518163ffffffff1660e01b8152600401602060405180830381865afa15801561402e573d6000803e3d6000fd5b505050506040513d601f19601f820116820180604052508101906140529190615bf8565b61406484670de0b6b3a7640000615aea565b610e6b9190615b01565b600080670de0b6b3a764000060c960009054906101000a90046001600160a01b03166001600160a01b031663e1aa60366040518163ffffffff1660e01b8152600401602060405180830381865afa1580156140cd573d6000803e3d6000fd5b505050506040513d601f19601f820116820180604052508101906140f19190615bf8565b6140649085615aea565b63ffffffff838116600081815260da6020908152604080832089861680855260d984529184208154600164ffffffffff1990911661010094850217811783558083018a905560cf8054600285018054600160601b90920461ffff1661ffff19909216919091179055600384018a905560d054600480860191909155600684018054938401815588529590962060088083049091018054600790931690960290940a8089021990911696029590951790925582549194600160401b90920490911691906141c683615b36565b91906101000a81548163ffffffff021916908363ffffffff16021790555050505050505050565b63ffffffff8116600090815260d9602090815260408083206006018054825181850281018501909352808352849383018282801561427657602002820191906000526020600020906000905b82829054906101000a900463ffffffff1663ffffffff16815260200190600401906020826003010492830192600103820291508084116142395790505b505083519394506000925050505b818161ffff16101561357b576142a9838261ffff168151811061369b5761369b615a96565b6142b39085615b23565b9350806142bf81615aac565b915050614284565b63ffffffff8716600090815260d96020526040902060cb546003820184905560048201839055600b82018890556014820187905560178201859055601882018790556019820186905560d25460ff6201000090920482169116156143425760cf54614342908a90600160401b900463ffffffff168a866140fb565b60005b8160ff168160ff16101561442a57600783015463ffffffff908116600081815260d96020526040812080549293909216900361438257505061442a565b8260ff166000036143a7578a81600d0160008282546143a19190615b23565b90915550505b8a81600f0160008282546143bb9190615b23565b92505081905550806009018c90806001815401808255809150506001900390600052602060002090600891828204019190066004029091909190916101000a81548163ffffffff021916908363ffffffff1602179055508094505050808061442290615b4f565b915050614345565b50505050505050505050565b63ffffffff888116600081815260d960205260408120805463ffffffff199081169093178155600781018054909316938b1693909317909155600282018054610100600160a81b0319166101006001600160a01b038b1602179055600382018590556004820184905560198201869055600a820180548892906144ba908490615b23565b90915550600090505b8260ff168160ff1610156148e857600782015463ffffffff908116600081815260d9602052604081208054929390921690036145005750506148e8565b8260ff16600003614577578881600c01600082825461451f9190615b23565b92505081905550806008018c90806001815401808255809150506001900390600052602060002090600891828204019190066004029091909190916101000a81548163ffffffff021916908363ffffffff1602179055505b8881600e01600082825461458b9190615b23565b92505081905550806009018c90806001815401808255809150506001900390600052602060002090600891828204019190066004029091909190916101000a81548163ffffffff021916908363ffffffff1602179055508b63ffffffff168b63ffffffff168260020160019054906101000a90046001600160a01b03166001600160a01b03167fa7fafc728ec30e34dc1e1276496bf3eb44ca7494679da969455289e6a8f0f1f68760070160009054906101000a900463ffffffff16604051614660919063ffffffff91909116815260200190565b60405180910390a4601281015460ff1661467983613166565b60ff1611156148955761468b82613166565b60128201805460ff191660ff9283169081178255600090815260db6020908152604080832060099081018054600181810183559186529385206008850401805460079095166004026101000a63ffffffff81810219909616958b16029490941790935593549094168252929020015461470491906158e6565b6013820181905560128201546040805163ffffffff86168152602081019390935260ff90911682820152517fb0d3a9c683344e744a1ae3db383f75a8a01851282c5fe97d6159c1392a2e2a0a9181900360600190a160db600061476684613166565b60ff9081168252602082019290925260400160002060080154610100900416156148015760db600061479784613166565b60ff1660ff1681526020019081526020016000206007015481601101546147be9190615b23565b4211156147ed57428160110181905550888160100160008282546147e29190615b23565b909155506148959050565b888160100160008282546147e29190615b23565b60d254610100900460ff161561489557601281015460ff16600090815260db6020526040902060050154614836908290614c13565b601281015460ff908116600090815260db602090815260409182902060058101549054925192909316825263ffffffff8516917f94b6d3d19cc40938e685ef6a1f6476b53ef65295ab094a044e74405a8d0bd05b910160405180910390a35b60d55460d4546148a59190615b23565b4211156148ba574260d45560d38990556148d2565b8860d360008282546148cc9190615b23565b90915550505b92508190506148e081615b4f565b9150506144c3565b5060cf8054600160201b900463ffffffff1690600461490683615b36565b91906101000a81548163ffffffff021916908363ffffffff16021790555050505050505050505050565b600081601901548260180154101561494c578160180154614952565b81601901545b92915050565b61496181613f36565b6149c35760405162461bcd60e51b815260206004820152602d60248201527f455243313936373a206e657720696d706c656d656e746174696f6e206973206e60448201526c1bdd08184818dbdb9d1c9858dd609a1b6064820152608401610f1b565b600080516020615c8c83398151915280546001600160a01b0319166001600160a01b0392909216919091179055565b6149fb83614c7b565b600082511180614a085750805b15610ab757614a178383614cbb565b50505050565b63ffffffff8116600090815260da60205260408120805460ff1615614ac85760d05460cb5460cf5460018401544293600093909261ffff91821692614a6d92600160601b90920490911690615aea565b614a779190615b01565b614a819190615b01565b90506000836003015483614a9591906158e6565b90508360050154614aaa828660040154614dad565b614ab49084615aea565b614abe91906158e6565b9450505050614acd565b600091505b50919050565b600081600601805480602002602001604051908101604052809291908181526020018280548015614b4f57602002820191906000526020600020906000905b82829054906101000a900463ffffffff1663ffffffff1681526020019060040190602082600301049283019260010382029150808411614b125790505b5050505050905060005b8151811015610ab75760da6000838381518110614b7857614b78615a96565b60209081029190910181015163ffffffff1682528101919091526040016000205460ff1615614be957600060da6000848481518110614bb957614bb9615a96565b60209081029190910181015163ffffffff168252810191909152604001600020805460ff19169115159190911790555b80614bf381615bc9565b915050614b59565b60028101805460ff19166001179055610ed081614ad3565b8160190154818360180154614c289190615b23565b10614c3b57601982015460188301555050565b808260180154610ab79190615b23565b600054610100900460ff16614c725760405162461bcd60e51b8152600401610f1b90615c11565b6113f033613114565b614c8481614958565b6040516001600160a01b038216907fbc7cd75a20ee27fd9adebab32041f755214dbc6bffa90cc0225b39da2e5c2d3b90600090a250565b6060614cc683613f36565b614d215760405162461bcd60e51b815260206004820152602660248201527f416464726573733a2064656c65676174652063616c6c20746f206e6f6e2d636f6044820152651b9d1c9858dd60d21b6064820152608401610f1b565b600080846001600160a01b031684604051614d3c9190615c5c565b600060405180830381855af49150503d8060008114614d77576040519150601f19603f3d011682016040523d82523d6000602084013e614d7c565b606091505b5091509150614da48282604051806060016040528060278152602001615cac60279139614dc5565b95945050505050565b600081831115614dbe575080614952565b5090919050565b60608315614dd4575081610e6b565b610e6b8383815115614de95781518083602001fd5b8060405162461bcd60e51b8152600401610f1b9190615c78565b82805482825590600052602060002090600f01601090048101928215614e9b5791602002820160005b83821115614e6b57835183826101000a81548161ffff021916908360ff1602179055509260200192600201602081600101049283019260010302614e2c565b8015614e995782816101000a81549061ffff0219169055600201602081600101049283019260010302614e6b565b505b50614ea7929150614f16565b5090565b82805482825590600052602060002090600f01601090048101928215614e9b5791602002820160005b83821115614e6b57833560ff1683826101000a81548161ffff021916908360ff1602179055509260200192600201602081600101049283019260010302614ed4565b5b80821115614ea75760008155600101614f17565b803560ff81168114614f3c57600080fd5b919050565b600060208284031215614f5357600080fd5b610e6b82614f2b565b6020808252825182820181905260009190848201906040850190845b81811015614f9a57835163ffffffff1683529284019291840191600101614f78565b50909695505050505050565b80356001600160a01b0381168114614f3c57600080fd5b60008060408385031215614fd057600080fd5b614fd983614fa6565b946020939093013593505050565b600060208284031215614ff957600080fd5b610e6b82614fa6565b803563ffffffff81168114614f3c57600080fd5b60006020828403121561502857600080fd5b610e6b82615002565b60006020828403121561504357600080fd5b5035919050565b634e487b7160e01b600052604160045260246000fd5b604051601f8201601f191681016001600160401b03811182821017156150885761508861504a565b604052919050565b60006001600160401b038311156150a9576150a961504a565b6150bc601f8401601f1916602001615060565b90508281528383830111156150d057600080fd5b828260208301376000602084830101529392505050565b600082601f8301126150f857600080fd5b610e6b83833560208501615090565b8015158114610ed057600080fd5b60008060008060008060008060006101208a8c03121561513457600080fd5b61513d8a614f2b565b985060208a0135975060408a0135965060608a0135955060808a01356001600160401b0381111561516d57600080fd5b6151798c828d016150e7565b95505060a08a0135935060c08a0135925060e08a013591506101008a01356151a081615107565b809150509295985092959850929598565b600080604083850312156151c457600080fd5b6151cd83614fa6565b915060208301356001600160401b038111156151e857600080fd5b8301601f810185136151f957600080fd5b61520885823560208401615090565b9150509250929050565b60008083601f84011261522457600080fd5b5081356001600160401b0381111561523b57600080fd5b6020830191508360208260051b850101111561525657600080fd5b9250929050565b60008060008060006060868803121561527557600080fd5b85356001600160401b038082111561528c57600080fd5b61529889838a01615212565b90975095506020915087820135818111156152b257600080fd5b6152be8a828b01615212565b9096509450506040880135818111156152d657600080fd5b8801601f81018a136152e757600080fd5b8035828111156152f9576152f961504a565b8060051b615308858201615060565b918252828101850191858101908d84111561532257600080fd5b86850192505b8383101561535e578235868111156153405760008081fd5b61534e8f89838901016150e7565b8352509186019190860190615328565b809750505050505050509295509295909350565b60005b8381101561538d578181015183820152602001615375565b50506000910152565b600081518084526153ae816020860160208601615372565b601f01601f19169290920160200192915050565b600081518084526020808501945080840160005b838110156153f857815163ffffffff16875295820195908201906001016153d6565b509495945050505050565b6020815261541760208201835160ff169052565b602082015160408201526040820151606082015260608201516080820152600060808301516101608060a0850152615453610180850183615396565b915060a085015160c085015260c085015160e085015260e085015161010081818701528087015191505061012061548d8187018315159052565b86015190506101406154a28682018315159052565b860151858403601f19018387015290506154bc83826153c2565b9695505050505050565b6000602082840312156154d857600080fd5b813561ffff81168114610e6b57600080fd5b60008060008060008060008060008060008060c08d8f03121561550c57600080fd5b6001600160401b038d35111561552157600080fd5b61552e8e8e358f01615212565b909c509a506001600160401b0360208e0135111561554b57600080fd5b61555b8e60208f01358f01615212565b909a5098506001600160401b0360408e0135111561557857600080fd5b6155888e60408f01358f01615212565b90985096506001600160401b0360608e013511156155a557600080fd5b6155b58e60608f01358f01615212565b90965094506001600160401b0360808e013511156155d257600080fd5b6155e28e60808f01358f01615212565b90945092506001600160401b0360a08e013511156155ff57600080fd5b61560f8e60a08f01358f01615212565b81935080925050509295989b509295989b509295989b565b6000806020838503121561563a57600080fd5b82356001600160401b0381111561565057600080fd5b61565c85828601615212565b90969095509350505050565b6000806040838503121561567b57600080fd5b614fd983615002565b6020815261569b60208201835163ffffffff169052565b600060208301516103a08060408501526156b96103c0850183615396565b915060408501516156ce606086018215159052565b5060608501516001600160a01b038116608086015250608085015160a085015260a085015160c085015260c085015160e085015260e0850151601f1961010081878603018188015261572085846153c2565b94508088015192505061012061573d8188018463ffffffff169052565b8088015192505061014081878603018188015261575a85846153c2565b94508088015192505061016081878603018188015261577985846153c2565b90880151610180888101919091528801516101a0808901919091528801516101c0808901919091528801516101e08089019190915288015161020080890191909152880151610220808901919091528801516102408089019190915288015161026080890191909152880151909450915061028090506157fd8187018360ff169052565b8601516102a0868101919091528601516102c0808701919091528601516102e08087019190915286015161030080870191909152860151610320808701919091528601516103408087019190915286015161036080870191909152860151610380808701919091529095015193019290925250919050565b6020815281511515602082015260006020830151604080840152613fd060608401826153c2565b600181811c908216806158b057607f821691505b602082108103614acd57634e487b7160e01b600052602260045260246000fd5b634e487b7160e01b600052601160045260246000fd5b81810381811115614952576149526158d0565b6020808252602c908201527f46756e6374696f6e206d7573742062652063616c6c6564207468726f7567682060408201526b19195b1959d85d1958d85b1b60a21b606082015260800190565b6020808252602c908201527f46756e6374696f6e206d7573742062652063616c6c6564207468726f7567682060408201526b6163746976652070726f787960a01b606082015260800190565b601f821115610ab757600081815260208120601f850160051c810160208610156159b85750805b601f850160051c820191505b818110156113d6578281556001016159c4565b81516001600160401b038111156159f0576159f061504a565b615a04816159fe845461589c565b84615991565b602080601f831160018114615a395760008415615a215750858301515b600019600386901b1c1916600185901b1785556113d6565b600085815260208120601f198616915b82811015615a6857888601518255948401946001909101908401615a49565b5085821015615a865787850151600019600388901b60f8161c191681555b5050505050600190811b01905550565b634e487b7160e01b600052603260045260246000fd5b600061ffff808316818103615ac357615ac36158d0565b6001019392505050565b600060208284031215615adf57600080fd5b8151610e6b81615107565b8082028115828204841417614952576149526158d0565b600082615b1e57634e487b7160e01b600052601260045260246000fd5b500490565b80820180821115614952576149526158d0565b600063ffffffff808316818103615ac357615ac36158d0565b600060ff821660ff8103615b6557615b656158d0565b60010192915050565b63ffffffff818116838216019080821115615b8b57615b8b6158d0565b5092915050565b6020808252601d908201527f596f7520617265206e6f74206f776e6572206f6620746869732069642e000000604082015260600190565b600060018201615bdb57615bdb6158d0565b5060010190565b634e487b7160e01b600052603160045260246000fd5b600060208284031215615c0a57600080fd5b5051919050565b6020808252602b908201527f496e697469616c697a61626c653a20636f6e7472616374206973206e6f74206960408201526a6e697469616c697a696e6760a81b606082015260800190565b60008251615c6e818460208701615372565b9190910192915050565b602081526000610e6b602083018461539656fe360894a13ba1a3210667c828492db98dca3e2076cc3735a920a3ca505d382bbc416464726573733a206c6f772d6c6576656c2064656c65676174652063616c6c206661696c6564a2646970667358221220390707caae5d8b5c8aa11fde9528ae4284f9c14417f8cc0618fcea8be16c02e064736f6c63430008110033","opcodes":"PUSH1 0xA0 PUSH1 0x40 MSTORE ADDRESS PUSH1 0x80 MSTORE CALLVALUE DUP1 ISZERO PUSH2 0x14 JUMPI PUSH1 0x0 DUP1 REVERT JUMPDEST POP PUSH1 0x80 MLOAD PUSH2 0x5D08 PUSH3 0x4D PUSH1 0x0 CODECOPY PUSH1 0x0 DUP2 DUP2 PUSH2 0xEDD ADD MSTORE DUP2 DUP2 PUSH2 0xF26 ADD MSTORE DUP2 DUP2 PUSH2 0x107E ADD MSTORE DUP2 DUP2 PUSH2 0x10BE ADD MSTORE PUSH2 0x113A ADD MSTORE PUSH2 0x5D08 PUSH1 0x0 RETURN INVALID PUSH1 0x80 PUSH1 0x40 MSTORE PUSH1 0x4 CALLDATASIZE LT PUSH2 0x299 JUMPI PUSH1 0x0 CALLDATALOAD PUSH1 0xE0 SHR DUP1 PUSH4 0x8486E066 GT PUSH2 0x15B JUMPI DUP1 PUSH4 0xBF46DE63 GT PUSH2 0xC7 JUMPI DUP1 PUSH4 0xBF46DE63 EQ PUSH2 0x7C3 JUMPI DUP1 PUSH4 0xBFF1F9E1 EQ PUSH2 0x7E3 JUMPI DUP1 PUSH4 0xC3AB5EBF EQ PUSH2 0x800 JUMPI DUP1 PUSH4 0xDB003B2A EQ PUSH2 0x882 JUMPI DUP1 PUSH4 0xE1C715BA EQ PUSH2 0x8A2 JUMPI DUP1 PUSH4 0xE52356F3 EQ PUSH2 0x8C2 JUMPI DUP1 PUSH4 0xE5682E38 EQ PUSH2 0x8E2 JUMPI DUP1 PUSH4 0xEA62F715 EQ PUSH2 0x8F5 JUMPI DUP1 PUSH4 0xF2FDE38B EQ PUSH2 0x915 JUMPI DUP1 PUSH4 0xF31A2D0F EQ PUSH2 0x935 JUMPI DUP1 PUSH4 0xF41BFEEF EQ PUSH2 0x955 JUMPI DUP1 PUSH4 0xF830E57B EQ PUSH2 0x96B JUMPI DUP1 PUSH4 0xFAFC9597 EQ PUSH2 0x998 JUMPI DUP1 PUSH4 0xFB47E016 EQ PUSH2 0x9B7 JUMPI PUSH1 0x0 DUP1 REVERT JUMPDEST DUP1 PUSH4 0x8486E066 EQ PUSH2 0x649 JUMPI DUP1 PUSH4 0x8DA5CB5B EQ PUSH2 0x669 JUMPI DUP1 PUSH4 0x8DF05D9C EQ PUSH2 0x687 JUMPI DUP1 PUSH4 0x96ED6B85 EQ PUSH2 0x6A7 JUMPI DUP1 PUSH4 0x9F4E8398 EQ PUSH2 0x6BD JUMPI DUP1 PUSH4 0xA0B6105F EQ PUSH2 0x6DD JUMPI DUP1 PUSH4 0xA1B80175 EQ PUSH2 0x6FD JUMPI DUP1 PUSH4 0xA28A3686 EQ PUSH2 0x721 JUMPI DUP1 PUSH4 0xA43AE408 EQ PUSH2 0x741 JUMPI DUP1 PUSH4 0xAA7DF4F2 EQ PUSH2 0x761 JUMPI DUP1 PUSH4 0xAF2F39D1 EQ PUSH2 0x776 JUMPI DUP1 PUSH4 0xB47181D3 EQ PUSH2 0x790 JUMPI DUP1 PUSH4 0xB92D18C1 EQ PUSH2 0x7B0 JUMPI PUSH1 0x0 DUP1 REVERT JUMPDEST DUP1 PUSH4 0x4A750822 GT PUSH2 0x205 JUMPI DUP1 PUSH4 0x4A750822 EQ PUSH2 0x472 JUMPI DUP1 PUSH4 0x4B5102B8 EQ PUSH2 0x492 JUMPI DUP1 PUSH4 0x4F1EF286 EQ PUSH2 0x4B2 JUMPI DUP1 PUSH4 0x52D1902D EQ PUSH2 0x4C5 JUMPI DUP1 PUSH4 0x538FFE0C EQ PUSH2 0x4DA JUMPI DUP1 PUSH4 0x5E701D86 EQ PUSH2 0x523 JUMPI DUP1 PUSH4 0x631D3398 EQ PUSH2 0x55C JUMPI DUP1 PUSH4 0x715018A6 EQ PUSH2 0x57C JUMPI DUP1 PUSH4 0x76A68E84 EQ PUSH2 0x591 JUMPI DUP1 PUSH4 0x770CEEB1 EQ PUSH2 0x5B1 JUMPI DUP1 PUSH4 0x7879B5EF EQ PUSH2 0x5D1 JUMPI DUP1 PUSH4 0x7A026935 EQ PUSH2 0x5F1 JUMPI DUP1 PUSH4 0x7BDBF996 EQ PUSH2 0x607 JUMPI DUP1 PUSH4 0x8129FC1C EQ PUSH2 0x634 JUMPI PUSH1 0x0 DUP1 REVERT JUMPDEST DUP1 PUSH4 0x12DA720 EQ PUSH2 0x2A5 JUMPI DUP1 PUSH4 0x9DE82CD EQ PUSH2 0x2DB JUMPI DUP1 PUSH4 0xB243DAD EQ PUSH2 0x2FF JUMPI DUP1 PUSH4 0xEFDBB6A EQ PUSH2 0x321 JUMPI DUP1 PUSH4 0x18E10BFF EQ PUSH2 0x341 JUMPI DUP1 PUSH4 0x1F3C4CBA EQ PUSH2 0x36D JUMPI DUP1 PUSH4 0x1F7F83BA EQ PUSH2 0x38D JUMPI DUP1 PUSH4 0x22F88B52 EQ PUSH2 0x3C5 JUMPI DUP1 PUSH4 0x2913497B EQ PUSH2 0x3DB JUMPI DUP1 PUSH4 0x2ED421D2 EQ PUSH2 0x3F9 JUMPI DUP1 PUSH4 0x313CE567 EQ PUSH2 0x40F JUMPI DUP1 PUSH4 0x35759788 EQ PUSH2 0x43D JUMPI DUP1 PUSH4 0x3659CFE6 EQ PUSH2 0x452 JUMPI PUSH1 0x0 DUP1 REVERT JUMPDEST CALLDATASIZE PUSH2 0x2A0 JUMPI STOP JUMPDEST PUSH1 0x0 DUP1 REVERT JUMPDEST CALLVALUE DUP1 ISZERO PUSH2 0x2B1 JUMPI PUSH1 0x0 DUP1 REVERT JUMPDEST POP PUSH2 0x2C5 PUSH2 0x2C0 CALLDATASIZE PUSH1 0x4 PUSH2 0x4F41 JUMP JUMPDEST PUSH2 0x9E4 JUMP JUMPDEST PUSH1 0x40 MLOAD PUSH2 0x2D2 SWAP2 SWAP1 PUSH2 0x4F5C JUMP JUMPDEST PUSH1 0x40 MLOAD DUP1 SWAP2 SUB SWAP1 RETURN JUMPDEST CALLVALUE DUP1 ISZERO PUSH2 0x2E7 JUMPI PUSH1 0x0 DUP1 REVERT JUMPDEST POP PUSH2 0x2F1 PUSH1 0xCE SLOAD DUP2 JUMP JUMPDEST PUSH1 0x40 MLOAD SWAP1 DUP2 MSTORE PUSH1 0x20 ADD PUSH2 0x2D2 JUMP JUMPDEST CALLVALUE DUP1 ISZERO PUSH2 0x30B JUMPI PUSH1 0x0 DUP1 REVERT JUMPDEST POP PUSH2 0x31F PUSH2 0x31A CALLDATASIZE PUSH1 0x4 PUSH2 0x4FBD JUMP JUMPDEST PUSH2 0xA79 JUMP JUMPDEST STOP JUMPDEST CALLVALUE DUP1 ISZERO PUSH2 0x32D JUMPI PUSH1 0x0 DUP1 REVERT JUMPDEST POP PUSH2 0x31F PUSH2 0x33C CALLDATASIZE PUSH1 0x4 PUSH2 0x4FE7 JUMP JUMPDEST PUSH2 0xABC JUMP JUMPDEST CALLVALUE DUP1 ISZERO PUSH2 0x34D JUMPI PUSH1 0x0 DUP1 REVERT JUMPDEST POP PUSH1 0xD7 SLOAD PUSH2 0x35B SWAP1 PUSH1 0xFF AND DUP2 JUMP JUMPDEST PUSH1 0x40 MLOAD PUSH1 0xFF SWAP1 SWAP2 AND DUP2 MSTORE PUSH1 0x20 ADD PUSH2 0x2D2 JUMP JUMPDEST CALLVALUE DUP1 ISZERO PUSH2 0x379 JUMPI PUSH1 0x0 DUP1 REVERT JUMPDEST POP PUSH2 0x2F1 PUSH2 0x388 CALLDATASIZE PUSH1 0x4 PUSH2 0x5016 JUMP JUMPDEST PUSH2 0xAE6 JUMP JUMPDEST CALLVALUE DUP1 ISZERO PUSH2 0x399 JUMPI PUSH1 0x0 DUP1 REVERT JUMPDEST POP PUSH2 0x3AD PUSH2 0x3A8 CALLDATASIZE PUSH1 0x4 PUSH2 0x5031 JUMP JUMPDEST PUSH2 0xE72 JUMP JUMPDEST PUSH1 0x40 MLOAD PUSH1 0x1 PUSH1 0x1 PUSH1 0xA0 SHL SUB SWAP1 SWAP2 AND DUP2 MSTORE PUSH1 0x20 ADD PUSH2 0x2D2 JUMP JUMPDEST CALLVALUE DUP1 ISZERO PUSH2 0x3D1 JUMPI PUSH1 0x0 DUP1 REVERT JUMPDEST POP PUSH2 0x2F1 PUSH1 0xD3 SLOAD DUP2 JUMP JUMPDEST CALLVALUE DUP1 ISZERO PUSH2 0x3E7 JUMPI PUSH1 0x0 DUP1 REVERT JUMPDEST POP PUSH1 0xC9 SLOAD PUSH1 0x1 PUSH1 0x1 PUSH1 0xA0 SHL SUB AND PUSH2 0x3AD JUMP JUMPDEST CALLVALUE DUP1 ISZERO PUSH2 0x405 JUMPI PUSH1 0x0 DUP1 REVERT JUMPDEST POP PUSH2 0x2F1 PUSH1 0xD4 SLOAD DUP2 JUMP JUMPDEST CALLVALUE DUP1 ISZERO PUSH2 0x41B JUMPI PUSH1 0x0 DUP1 REVERT JUMPDEST POP PUSH1 0xCB SLOAD PUSH2 0x42A SWAP1 PUSH2 0xFFFF AND DUP2 JUMP JUMPDEST PUSH1 0x40 MLOAD PUSH2 0xFFFF SWAP1 SWAP2 AND DUP2 MSTORE PUSH1 0x20 ADD PUSH2 0x2D2 JUMP JUMPDEST CALLVALUE DUP1 ISZERO PUSH2 0x449 JUMPI PUSH1 0x0 DUP1 REVERT JUMPDEST POP PUSH2 0x31F PUSH2 0xE9C JUMP JUMPDEST CALLVALUE DUP1 ISZERO PUSH2 0x45E JUMPI PUSH1 0x0 DUP1 REVERT JUMPDEST POP PUSH2 0x31F PUSH2 0x46D CALLDATASIZE PUSH1 0x4 PUSH2 0x4FE7 JUMP JUMPDEST PUSH2 0xED3 JUMP JUMPDEST CALLVALUE DUP1 ISZERO PUSH2 0x47E JUMPI PUSH1 0x0 DUP1 REVERT JUMPDEST POP PUSH2 0x31F PUSH2 0x48D CALLDATASIZE PUSH1 0x4 PUSH2 0x5115 JUMP JUMPDEST PUSH2 0xFA1 JUMP JUMPDEST CALLVALUE DUP1 ISZERO PUSH2 0x49E JUMPI PUSH1 0x0 DUP1 REVERT JUMPDEST POP PUSH2 0x31F PUSH2 0x4AD CALLDATASIZE PUSH1 0x4 PUSH2 0x4F41 JUMP JUMPDEST PUSH2 0x1056 JUMP JUMPDEST PUSH2 0x31F PUSH2 0x4C0 CALLDATASIZE PUSH1 0x4 PUSH2 0x51B1 JUMP JUMPDEST PUSH2 0x1074 JUMP JUMPDEST CALLVALUE DUP1 ISZERO PUSH2 0x4D1 JUMPI PUSH1 0x0 DUP1 REVERT JUMPDEST POP PUSH2 0x2F1 PUSH2 0x112D JUMP JUMPDEST CALLVALUE DUP1 ISZERO PUSH2 0x4E6 JUMPI PUSH1 0x0 DUP1 REVERT JUMPDEST POP PUSH2 0x513 PUSH2 0x4F5 CALLDATASIZE PUSH1 0x4 PUSH2 0x4FE7 JUMP JUMPDEST PUSH1 0x1 PUSH1 0x1 PUSH1 0xA0 SHL SUB AND PUSH1 0x0 SWAP1 DUP2 MSTORE PUSH1 0xD8 PUSH1 0x20 MSTORE PUSH1 0x40 SWAP1 KECCAK256 SLOAD PUSH1 0xFF AND SWAP1 JUMP JUMPDEST PUSH1 0x40 MLOAD SWAP1 ISZERO ISZERO DUP2 MSTORE PUSH1 0x20 ADD PUSH2 0x2D2 JUMP JUMPDEST CALLVALUE DUP1 ISZERO PUSH2 0x52F JUMPI PUSH1 0x0 DUP1 REVERT JUMPDEST POP PUSH1 0xCF SLOAD PUSH2 0x547 SWAP1 PUSH1 0x1 PUSH1 0x20 SHL SWAP1 DIV PUSH4 0xFFFFFFFF AND DUP2 JUMP JUMPDEST PUSH1 0x40 MLOAD PUSH4 0xFFFFFFFF SWAP1 SWAP2 AND DUP2 MSTORE PUSH1 0x20 ADD PUSH2 0x2D2 JUMP JUMPDEST CALLVALUE DUP1 ISZERO PUSH2 0x568 JUMPI PUSH1 0x0 DUP1 REVERT JUMPDEST POP PUSH2 0x31F PUSH2 0x577 CALLDATASIZE PUSH1 0x4 PUSH2 0x525D JUMP JUMPDEST PUSH2 0x11DB JUMP JUMPDEST CALLVALUE DUP1 ISZERO PUSH2 0x588 JUMPI PUSH1 0x0 DUP1 REVERT JUMPDEST POP PUSH2 0x31F PUSH2 0x13DE JUMP JUMPDEST CALLVALUE DUP1 ISZERO PUSH2 0x59D JUMPI PUSH1 0x0 DUP1 REVERT JUMPDEST POP PUSH2 0x2F1 PUSH2 0x5AC CALLDATASIZE PUSH1 0x4 PUSH2 0x5016 JUMP JUMPDEST PUSH2 0x13F2 JUMP JUMPDEST CALLVALUE DUP1 ISZERO PUSH2 0x5BD JUMPI PUSH1 0x0 DUP1 REVERT JUMPDEST POP PUSH2 0x31F PUSH2 0x5CC CALLDATASIZE PUSH1 0x4 PUSH2 0x5016 JUMP JUMPDEST PUSH2 0x1406 JUMP JUMPDEST CALLVALUE DUP1 ISZERO PUSH2 0x5DD JUMPI PUSH1 0x0 DUP1 REVERT JUMPDEST POP PUSH2 0x42A PUSH2 0x5EC CALLDATASIZE PUSH1 0x4 PUSH2 0x5031 JUMP JUMPDEST PUSH2 0x141D JUMP JUMPDEST CALLVALUE DUP1 ISZERO PUSH2 0x5FD JUMPI PUSH1 0x0 DUP1 REVERT JUMPDEST POP PUSH2 0x2F1 PUSH1 0xCD SLOAD DUP2 JUMP JUMPDEST CALLVALUE DUP1 ISZERO PUSH2 0x613 JUMPI PUSH1 0x0 DUP1 REVERT JUMPDEST POP PUSH2 0x627 PUSH2 0x622 CALLDATASIZE PUSH1 0x4 PUSH2 0x4F41 JUMP JUMPDEST PUSH2 0x1455 JUMP JUMPDEST PUSH1 0x40 MLOAD PUSH2 0x2D2 SWAP2 SWAP1 PUSH2 0x5403 JUMP JUMPDEST CALLVALUE DUP1 ISZERO PUSH2 0x640 JUMPI PUSH1 0x0 DUP1 REVERT JUMPDEST POP PUSH2 0x31F PUSH2 0x1668 JUMP JUMPDEST CALLVALUE DUP1 ISZERO PUSH2 0x655 JUMPI PUSH1 0x0 DUP1 REVERT JUMPDEST POP PUSH2 0x31F PUSH2 0x664 CALLDATASIZE PUSH1 0x4 PUSH2 0x4F41 JUMP JUMPDEST PUSH2 0x190D JUMP JUMPDEST CALLVALUE DUP1 ISZERO PUSH2 0x675 JUMPI PUSH1 0x0 DUP1 REVERT JUMPDEST POP PUSH1 0x33 SLOAD PUSH1 0x1 PUSH1 0x1 PUSH1 0xA0 SHL SUB AND PUSH2 0x3AD JUMP JUMPDEST CALLVALUE DUP1 ISZERO PUSH2 0x693 JUMPI PUSH1 0x0 DUP1 REVERT JUMPDEST POP PUSH1 0xCB SLOAD PUSH2 0x35B SWAP1 PUSH3 0x10000 SWAP1 DIV PUSH1 0xFF AND DUP2 JUMP JUMPDEST CALLVALUE DUP1 ISZERO PUSH2 0x6B3 JUMPI PUSH1 0x0 DUP1 REVERT JUMPDEST POP PUSH2 0x2F1 PUSH1 0xCC SLOAD DUP2 JUMP JUMPDEST CALLVALUE DUP1 ISZERO PUSH2 0x6C9 JUMPI PUSH1 0x0 DUP1 REVERT JUMPDEST POP PUSH2 0x31F PUSH2 0x6D8 CALLDATASIZE PUSH1 0x4 PUSH2 0x4FE7 JUMP JUMPDEST PUSH2 0x1933 JUMP JUMPDEST CALLVALUE DUP1 ISZERO PUSH2 0x6E9 JUMPI PUSH1 0x0 DUP1 REVERT JUMPDEST POP PUSH2 0x31F PUSH2 0x6F8 CALLDATASIZE PUSH1 0x4 PUSH2 0x4FBD JUMP JUMPDEST PUSH2 0x19A2 JUMP JUMPDEST CALLVALUE DUP1 ISZERO PUSH2 0x709 JUMPI PUSH1 0x0 DUP1 REVERT JUMPDEST POP PUSH1 0xCF SLOAD PUSH2 0x547 SWAP1 PUSH1 0x1 PUSH1 0x40 SHL SWAP1 DIV PUSH4 0xFFFFFFFF AND DUP2 JUMP JUMPDEST CALLVALUE DUP1 ISZERO PUSH2 0x72D JUMPI PUSH1 0x0 DUP1 REVERT JUMPDEST POP PUSH1 0xD2 SLOAD PUSH2 0x35B SWAP1 PUSH3 0x10000 SWAP1 DIV PUSH1 0xFF AND DUP2 JUMP JUMPDEST CALLVALUE DUP1 ISZERO PUSH2 0x74D JUMPI PUSH1 0x0 DUP1 REVERT JUMPDEST POP PUSH2 0x31F PUSH2 0x75C CALLDATASIZE PUSH1 0x4 PUSH2 0x54C6 JUMP JUMPDEST PUSH2 0x1A1B JUMP JUMPDEST CALLVALUE DUP1 ISZERO PUSH2 0x76D JUMPI PUSH1 0x0 DUP1 REVERT JUMPDEST POP PUSH2 0x31F PUSH2 0x1A3B JUMP JUMPDEST CALLVALUE DUP1 ISZERO PUSH2 0x782 JUMPI PUSH1 0x0 DUP1 REVERT JUMPDEST POP PUSH1 0xD2 SLOAD PUSH2 0x513 SWAP1 PUSH1 0xFF AND DUP2 JUMP JUMPDEST CALLVALUE DUP1 ISZERO PUSH2 0x79C JUMPI PUSH1 0x0 DUP1 REVERT JUMPDEST POP PUSH2 0x2F1 PUSH2 0x7AB CALLDATASIZE PUSH1 0x4 PUSH2 0x5016 JUMP JUMPDEST PUSH2 0x1D94 JUMP JUMPDEST PUSH2 0x31F PUSH2 0x7BE CALLDATASIZE PUSH1 0x4 PUSH2 0x5016 JUMP JUMPDEST PUSH2 0x210C JUMP JUMPDEST CALLVALUE DUP1 ISZERO PUSH2 0x7CF JUMPI PUSH1 0x0 DUP1 REVERT JUMPDEST POP PUSH2 0x2F1 PUSH2 0x7DE CALLDATASIZE PUSH1 0x4 PUSH2 0x5016 JUMP JUMPDEST PUSH2 0x2219 JUMP JUMPDEST CALLVALUE DUP1 ISZERO PUSH2 0x7EF JUMPI PUSH1 0x0 DUP1 REVERT JUMPDEST POP PUSH1 0xCF SLOAD PUSH2 0x547 SWAP1 PUSH4 0xFFFFFFFF AND DUP2 JUMP JUMPDEST CALLVALUE DUP1 ISZERO PUSH2 0x80C JUMPI PUSH1 0x0 DUP1 REVERT JUMPDEST POP PUSH2 0x820 PUSH2 0x81B CALLDATASIZE PUSH1 0x4 PUSH2 0x5016 JUMP JUMPDEST PUSH2 0x227D JUMP JUMPDEST PUSH1 0x40 MLOAD PUSH2 0x2D2 SWAP2 SWAP1 PUSH1 0x0 PUSH1 0xE0 DUP3 ADD SWAP1 POP DUP3 MLOAD ISZERO ISZERO DUP3 MSTORE PUSH4 0xFFFFFFFF PUSH1 0x20 DUP5 ADD MLOAD AND PUSH1 0x20 DUP4 ADD MSTORE PUSH1 0x40 DUP4 ADD MLOAD PUSH1 0x40 DUP4 ADD MSTORE PUSH2 0xFFFF PUSH1 0x60 DUP5 ADD MLOAD AND PUSH1 0x60 DUP4 ADD MSTORE PUSH1 0x80 DUP4 ADD MLOAD PUSH1 0x80 DUP4 ADD MSTORE PUSH1 0xA0 DUP4 ADD MLOAD PUSH1 0xA0 DUP4 ADD MSTORE PUSH1 0xC0 DUP4 ADD MLOAD PUSH1 0xC0 DUP4 ADD MSTORE SWAP3 SWAP2 POP POP JUMP JUMPDEST CALLVALUE DUP1 ISZERO PUSH2 0x88E JUMPI PUSH1 0x0 DUP1 REVERT JUMPDEST POP PUSH2 0x31F PUSH2 0x89D CALLDATASIZE PUSH1 0x4 PUSH2 0x54EA JUMP JUMPDEST PUSH2 0x233F JUMP JUMPDEST CALLVALUE DUP1 ISZERO PUSH2 0x8AE JUMPI PUSH1 0x0 DUP1 REVERT JUMPDEST POP PUSH2 0x31F PUSH2 0x8BD CALLDATASIZE PUSH1 0x4 PUSH2 0x5627 JUMP JUMPDEST PUSH2 0x24A8 JUMP JUMPDEST CALLVALUE DUP1 ISZERO PUSH2 0x8CE JUMPI PUSH1 0x0 DUP1 REVERT JUMPDEST POP PUSH2 0x31F PUSH2 0x8DD CALLDATASIZE PUSH1 0x4 PUSH2 0x4FE7 JUMP JUMPDEST PUSH2 0x24BC JUMP JUMPDEST PUSH2 0x31F PUSH2 0x8F0 CALLDATASIZE PUSH1 0x4 PUSH2 0x5016 JUMP JUMPDEST PUSH2 0x25E5 JUMP JUMPDEST CALLVALUE DUP1 ISZERO PUSH2 0x901 JUMPI PUSH1 0x0 DUP1 REVERT JUMPDEST POP PUSH2 0x2F1 PUSH2 0x910 CALLDATASIZE PUSH1 0x4 PUSH2 0x5016 JUMP JUMPDEST PUSH2 0x2735 JUMP JUMPDEST CALLVALUE DUP1 ISZERO PUSH2 0x921 JUMPI PUSH1 0x0 DUP1 REVERT JUMPDEST POP PUSH2 0x31F PUSH2 0x930 CALLDATASIZE PUSH1 0x4 PUSH2 0x4FE7 JUMP JUMPDEST PUSH2 0x284C JUMP JUMPDEST CALLVALUE DUP1 ISZERO PUSH2 0x941 JUMPI PUSH1 0x0 DUP1 REVERT JUMPDEST POP PUSH2 0x31F PUSH2 0x950 CALLDATASIZE PUSH1 0x4 PUSH2 0x5668 JUMP JUMPDEST PUSH2 0x28C2 JUMP JUMPDEST CALLVALUE DUP1 ISZERO PUSH2 0x961 JUMPI PUSH1 0x0 DUP1 REVERT JUMPDEST POP PUSH2 0x2F1 PUSH1 0xD5 SLOAD DUP2 JUMP JUMPDEST CALLVALUE DUP1 ISZERO PUSH2 0x977 JUMPI PUSH1 0x0 DUP1 REVERT JUMPDEST POP PUSH2 0x98B PUSH2 0x986 CALLDATASIZE PUSH1 0x4 PUSH2 0x5016 JUMP JUMPDEST PUSH2 0x2A24 JUMP JUMPDEST PUSH1 0x40 MLOAD PUSH2 0x2D2 SWAP2 SWAP1 PUSH2 0x5684 JUMP JUMPDEST CALLVALUE DUP1 ISZERO PUSH2 0x9A4 JUMPI PUSH1 0x0 DUP1 REVERT JUMPDEST POP PUSH1 0xD2 SLOAD PUSH2 0x513 SWAP1 PUSH2 0x100 SWAP1 DIV PUSH1 0xFF AND DUP2 JUMP JUMPDEST CALLVALUE DUP1 ISZERO PUSH2 0x9C3 JUMPI PUSH1 0x0 DUP1 REVERT JUMPDEST POP PUSH2 0x9D7 PUSH2 0x9D2 CALLDATASIZE PUSH1 0x4 PUSH2 0x4FE7 JUMP JUMPDEST PUSH2 0x2E87 JUMP JUMPDEST PUSH1 0x40 MLOAD PUSH2 0x2D2 SWAP2 SWAP1 PUSH2 0x5875 JUMP JUMPDEST PUSH1 0xFF DUP2 AND PUSH1 0x0 SWAP1 DUP2 MSTORE PUSH1 0xDB PUSH1 0x20 SWAP1 DUP2 MSTORE PUSH1 0x40 SWAP2 DUP3 SWAP1 KECCAK256 PUSH1 0x9 ADD DUP1 SLOAD DUP4 MLOAD DUP2 DUP5 MUL DUP2 ADD DUP5 ADD SWAP1 SWAP5 MSTORE DUP1 DUP5 MSTORE PUSH1 0x60 SWAP4 SWAP3 DUP4 ADD DUP3 DUP3 DUP1 ISZERO PUSH2 0xA6D JUMPI PUSH1 0x20 MUL DUP3 ADD SWAP2 SWAP1 PUSH1 0x0 MSTORE PUSH1 0x20 PUSH1 0x0 KECCAK256 SWAP1 PUSH1 0x0 SWAP1 JUMPDEST DUP3 DUP3 SWAP1 SLOAD SWAP1 PUSH2 0x100 EXP SWAP1 DIV PUSH4 0xFFFFFFFF AND PUSH4 0xFFFFFFFF AND DUP2 MSTORE PUSH1 0x20 ADD SWAP1 PUSH1 0x4 ADD SWAP1 PUSH1 0x20 DUP3 PUSH1 0x3 ADD DIV SWAP3 DUP4 ADD SWAP3 PUSH1 0x1 SUB DUP3 MUL SWAP2 POP DUP1 DUP5 GT PUSH2 0xA30 JUMPI SWAP1 POP JUMPDEST POP POP POP POP POP SWAP1 POP SWAP2 SWAP1 POP JUMP JUMPDEST PUSH2 0xA81 PUSH2 0x2F2B JUMP JUMPDEST PUSH1 0x40 MLOAD PUSH1 0x1 PUSH1 0x1 PUSH1 0xA0 SHL SUB DUP4 AND SWAP1 DUP3 ISZERO PUSH2 0x8FC MUL SWAP1 DUP4 SWAP1 PUSH1 0x0 DUP2 DUP2 DUP2 DUP6 DUP9 DUP9 CALL SWAP4 POP POP POP POP ISZERO DUP1 ISZERO PUSH2 0xAB7 JUMPI RETURNDATASIZE PUSH1 0x0 DUP1 RETURNDATACOPY RETURNDATASIZE PUSH1 0x0 REVERT JUMPDEST POP POP POP JUMP JUMPDEST PUSH2 0xAC4 PUSH2 0x2F2B JUMP JUMPDEST PUSH1 0xC9 DUP1 SLOAD PUSH1 0x1 PUSH1 0x1 PUSH1 0xA0 SHL SUB NOT AND PUSH1 0x1 PUSH1 0x1 PUSH1 0xA0 SHL SUB SWAP3 SWAP1 SWAP3 AND SWAP2 SWAP1 SWAP2 OR SWAP1 SSTORE JUMP JUMPDEST PUSH4 0xFFFFFFFF DUP1 DUP3 AND PUSH1 0x0 SWAP1 DUP2 MSTORE PUSH1 0xD9 PUSH1 0x20 SWAP1 DUP2 MSTORE PUSH1 0x40 DUP1 DUP4 KECCAK256 DUP2 MLOAD PUSH2 0x3A0 DUP2 ADD SWAP1 SWAP3 MSTORE DUP1 SLOAD SWAP1 SWAP5 AND DUP2 MSTORE PUSH1 0x1 DUP5 ADD DUP1 SLOAD SWAP4 SWAP5 DUP6 SWAP5 SWAP3 SWAP4 SWAP1 SWAP3 SWAP1 DUP5 ADD SWAP2 SWAP1 PUSH2 0xB2C SWAP1 PUSH2 0x589C JUMP JUMPDEST DUP1 PUSH1 0x1F ADD PUSH1 0x20 DUP1 SWAP2 DIV MUL PUSH1 0x20 ADD PUSH1 0x40 MLOAD SWAP1 DUP2 ADD PUSH1 0x40 MSTORE DUP1 SWAP3 SWAP2 SWAP1 DUP2 DUP2 MSTORE PUSH1 0x20 ADD DUP3 DUP1 SLOAD PUSH2 0xB58 SWAP1 PUSH2 0x589C JUMP JUMPDEST DUP1 ISZERO PUSH2 0xBA5 JUMPI DUP1 PUSH1 0x1F LT PUSH2 0xB7A JUMPI PUSH2 0x100 DUP1 DUP4 SLOAD DIV MUL DUP4 MSTORE SWAP2 PUSH1 0x20 ADD SWAP2 PUSH2 0xBA5 JUMP JUMPDEST DUP3 ADD SWAP2 SWAP1 PUSH1 0x0 MSTORE PUSH1 0x20 PUSH1 0x0 KECCAK256 SWAP1 JUMPDEST DUP2 SLOAD DUP2 MSTORE SWAP1 PUSH1 0x1 ADD SWAP1 PUSH1 0x20 ADD DUP1 DUP4 GT PUSH2 0xB88 JUMPI DUP3 SWAP1 SUB PUSH1 0x1F AND DUP3 ADD SWAP2 JUMPDEST POP POP POP SWAP2 DUP4 MSTORE POP POP PUSH1 0x2 DUP3 ADD SLOAD PUSH1 0xFF DUP2 AND ISZERO ISZERO PUSH1 0x20 DUP1 DUP5 ADD SWAP2 SWAP1 SWAP2 MSTORE PUSH2 0x100 SWAP1 SWAP2 DIV PUSH1 0x1 PUSH1 0x1 PUSH1 0xA0 SHL SUB AND PUSH1 0x40 DUP1 DUP5 ADD SWAP2 SWAP1 SWAP2 MSTORE PUSH1 0x3 DUP5 ADD SLOAD PUSH1 0x60 DUP5 ADD MSTORE PUSH1 0x4 DUP5 ADD SLOAD PUSH1 0x80 DUP5 ADD MSTORE PUSH1 0x5 DUP5 ADD SLOAD PUSH1 0xA0 DUP5 ADD MSTORE PUSH1 0x6 DUP5 ADD DUP1 SLOAD DUP3 MLOAD DUP2 DUP6 MUL DUP2 ADD DUP6 ADD SWAP1 SWAP4 MSTORE DUP1 DUP4 MSTORE PUSH1 0xC0 SWAP1 SWAP5 ADD SWAP4 SWAP2 SWAP3 SWAP1 SWAP2 SWAP1 DUP4 ADD DUP3 DUP3 DUP1 ISZERO PUSH2 0xC72 JUMPI PUSH1 0x20 MUL DUP3 ADD SWAP2 SWAP1 PUSH1 0x0 MSTORE PUSH1 0x20 PUSH1 0x0 KECCAK256 SWAP1 PUSH1 0x0 SWAP1 JUMPDEST DUP3 DUP3 SWAP1 SLOAD SWAP1 PUSH2 0x100 EXP SWAP1 DIV PUSH4 0xFFFFFFFF AND PUSH4 0xFFFFFFFF AND DUP2 MSTORE PUSH1 0x20 ADD SWAP1 PUSH1 0x4 ADD SWAP1 PUSH1 0x20 DUP3 PUSH1 0x3 ADD DIV SWAP3 DUP4 ADD SWAP3 PUSH1 0x1 SUB DUP3 MUL SWAP2 POP DUP1 DUP5 GT PUSH2 0xC35 JUMPI SWAP1 POP JUMPDEST POP POP POP SWAP2 DUP4 MSTORE POP POP PUSH1 0x7 DUP3 ADD SLOAD PUSH4 0xFFFFFFFF AND PUSH1 0x20 DUP1 DUP4 ADD SWAP2 SWAP1 SWAP2 MSTORE PUSH1 0x8 DUP4 ADD DUP1 SLOAD PUSH1 0x40 DUP1 MLOAD DUP3 DUP6 MUL DUP2 ADD DUP6 ADD DUP3 MSTORE DUP3 DUP2 MSTORE SWAP5 ADD SWAP4 SWAP3 DUP4 ADD DUP3 DUP3 DUP1 ISZERO PUSH2 0xD03 JUMPI PUSH1 0x20 MUL DUP3 ADD SWAP2 SWAP1 PUSH1 0x0 MSTORE PUSH1 0x20 PUSH1 0x0 KECCAK256 SWAP1 PUSH1 0x0 SWAP1 JUMPDEST DUP3 DUP3 SWAP1 SLOAD SWAP1 PUSH2 0x100 EXP SWAP1 DIV PUSH4 0xFFFFFFFF AND PUSH4 0xFFFFFFFF AND DUP2 MSTORE PUSH1 0x20 ADD SWAP1 PUSH1 0x4 ADD SWAP1 PUSH1 0x20 DUP3 PUSH1 0x3 ADD DIV SWAP3 DUP4 ADD SWAP3 PUSH1 0x1 SUB DUP3 MUL SWAP2 POP DUP1 DUP5 GT PUSH2 0xCC6 JUMPI SWAP1 POP JUMPDEST POP POP POP POP POP DUP2 MSTORE PUSH1 0x20 ADD PUSH1 0x9 DUP3 ADD DUP1 SLOAD DUP1 PUSH1 0x20 MUL PUSH1 0x20 ADD PUSH1 0x40 MLOAD SWAP1 DUP2 ADD PUSH1 0x40 MSTORE DUP1 SWAP3 SWAP2 SWAP1 DUP2 DUP2 MSTORE PUSH1 0x20 ADD DUP3 DUP1 SLOAD DUP1 ISZERO PUSH2 0xD87 JUMPI PUSH1 0x20 MUL DUP3 ADD SWAP2 SWAP1 PUSH1 0x0 MSTORE PUSH1 0x20 PUSH1 0x0 KECCAK256 SWAP1 PUSH1 0x0 SWAP1 JUMPDEST DUP3 DUP3 SWAP1 SLOAD SWAP1 PUSH2 0x100 EXP SWAP1 DIV PUSH4 0xFFFFFFFF AND PUSH4 0xFFFFFFFF AND DUP2 MSTORE PUSH1 0x20 ADD SWAP1 PUSH1 0x4 ADD SWAP1 PUSH1 0x20 DUP3 PUSH1 0x3 ADD DIV SWAP3 DUP4 ADD SWAP3 PUSH1 0x1 SUB DUP3 MUL SWAP2 POP DUP1 DUP5 GT PUSH2 0xD4A JUMPI SWAP1 POP JUMPDEST POP POP POP SWAP2 DUP4 MSTORE POP POP PUSH1 0xA DUP3 ADD SLOAD PUSH1 0x20 DUP3 ADD MSTORE PUSH1 0xB DUP3 ADD SLOAD PUSH1 0x40 DUP3 ADD MSTORE PUSH1 0xC DUP3 ADD SLOAD PUSH1 0x60 DUP3 ADD MSTORE PUSH1 0xD DUP3 ADD SLOAD PUSH1 0x80 DUP3 ADD MSTORE PUSH1 0xE DUP3 ADD SLOAD PUSH1 0xA0 DUP3 ADD MSTORE PUSH1 0xF DUP3 ADD SLOAD PUSH1 0xC0 DUP3 ADD MSTORE PUSH1 0x10 DUP3 ADD SLOAD PUSH1 0xE0 DUP3 ADD MSTORE PUSH1 0x11 DUP3 ADD SLOAD PUSH2 0x100 DUP3 ADD MSTORE PUSH1 0x12 DUP3 ADD SLOAD PUSH1 0xFF AND PUSH2 0x120 DUP3 ADD MSTORE PUSH1 0x13 DUP3 ADD SLOAD PUSH2 0x140 DUP3 ADD MSTORE PUSH1 0x14 DUP3 ADD SLOAD PUSH2 0x160 DUP3 ADD MSTORE PUSH1 0x15 DUP3 ADD SLOAD PUSH2 0x180 DUP3 ADD MSTORE PUSH1 0x16 DUP3 ADD SLOAD PUSH2 0x1A0 DUP3 ADD MSTORE PUSH1 0x17 DUP3 ADD SLOAD PUSH2 0x1C0 DUP3 ADD MSTORE PUSH1 0x18 DUP3 ADD SLOAD PUSH2 0x1E0 DUP3 ADD MSTORE PUSH1 0x19 DUP3 ADD SLOAD PUSH2 0x200 DUP3 ADD MSTORE PUSH1 0x1A DUP3 ADD SLOAD PUSH2 0x220 DUP3 ADD MSTORE PUSH1 0x1B SWAP1 SWAP2 ADD SLOAD PUSH2 0x240 SWAP1 SWAP2 ADD MSTORE PUSH2 0x300 DUP2 ADD MLOAD PUSH2 0x320 DUP3 ADD MLOAD SWAP2 SWAP3 POP PUSH2 0xE6B SWAP2 PUSH2 0x58E6 JUMP JUMPDEST SWAP4 SWAP3 POP POP POP JUMP JUMPDEST PUSH1 0xD6 DUP2 DUP2 SLOAD DUP2 LT PUSH2 0xE82 JUMPI PUSH1 0x0 DUP1 REVERT JUMPDEST PUSH1 0x0 SWAP2 DUP3 MSTORE PUSH1 0x20 SWAP1 SWAP2 KECCAK256 ADD SLOAD PUSH1 0x1 PUSH1 0x1 PUSH1 0xA0 SHL SUB AND SWAP1 POP DUP2 JUMP JUMPDEST PUSH2 0xEA4 PUSH2 0x2F2B JUMP JUMPDEST PUSH1 0x40 MLOAD CALLER SWAP1 SELFBALANCE DUP1 ISZERO PUSH2 0x8FC MUL SWAP2 PUSH1 0x0 DUP2 DUP2 DUP2 DUP6 DUP9 DUP9 CALL SWAP4 POP POP POP POP ISZERO DUP1 ISZERO PUSH2 0xED0 JUMPI RETURNDATASIZE PUSH1 0x0 DUP1 RETURNDATACOPY RETURNDATASIZE PUSH1 0x0 REVERT JUMPDEST POP JUMP JUMPDEST PUSH1 0x1 PUSH1 0x1 PUSH1 0xA0 SHL SUB PUSH32 0x0 AND ADDRESS SUB PUSH2 0xF24 JUMPI PUSH1 0x40 MLOAD PUSH3 0x461BCD PUSH1 0xE5 SHL DUP2 MSTORE PUSH1 0x4 ADD PUSH2 0xF1B SWAP1 PUSH2 0x58F9 JUMP JUMPDEST PUSH1 0x40 MLOAD DUP1 SWAP2 SUB SWAP1 REVERT JUMPDEST PUSH32 0x0 PUSH1 0x1 PUSH1 0x1 PUSH1 0xA0 SHL SUB AND PUSH2 0xF56 PUSH2 0x2F85 JUMP JUMPDEST PUSH1 0x1 PUSH1 0x1 PUSH1 0xA0 SHL SUB AND EQ PUSH2 0xF7C JUMPI PUSH1 0x40 MLOAD PUSH3 0x461BCD PUSH1 0xE5 SHL DUP2 MSTORE PUSH1 0x4 ADD PUSH2 0xF1B SWAP1 PUSH2 0x5945 JUMP JUMPDEST PUSH2 0xF85 DUP2 PUSH2 0x2FA1 JUMP JUMPDEST PUSH1 0x40 DUP1 MLOAD PUSH1 0x0 DUP1 DUP3 MSTORE PUSH1 0x20 DUP3 ADD SWAP1 SWAP3 MSTORE PUSH2 0xED0 SWAP2 DUP4 SWAP2 SWAP1 PUSH2 0x2FA9 JUMP JUMPDEST PUSH2 0xFA9 PUSH2 0x2F2B JUMP JUMPDEST PUSH1 0xFF DUP10 AND PUSH1 0x0 DUP2 DUP2 MSTORE PUSH1 0xDB PUSH1 0x20 MSTORE PUSH1 0x40 SWAP1 KECCAK256 DUP1 SLOAD PUSH1 0xFF NOT AND SWAP1 SWAP2 OR DUP2 SSTORE PUSH1 0x1 DUP2 ADD DUP10 SWAP1 SSTORE PUSH1 0x2 DUP2 ADD DUP9 SWAP1 SSTORE PUSH1 0x3 DUP2 ADD DUP8 SWAP1 SSTORE PUSH1 0x4 DUP2 ADD PUSH2 0xFE9 DUP8 DUP3 PUSH2 0x59D7 JUMP JUMPDEST POP PUSH1 0x5 DUP2 ADD DUP6 SWAP1 SSTORE PUSH1 0x6 DUP2 ADD DUP5 SWAP1 SSTORE PUSH1 0x7 DUP2 ADD DUP4 SWAP1 SSTORE PUSH1 0x8 DUP2 ADD DUP1 SLOAD PUSH2 0xFF00 NOT AND PUSH2 0x100 DUP5 ISZERO ISZERO MUL OR SWAP1 SSTORE PUSH1 0x40 MLOAD PUSH1 0xFF DUP12 AND DUP2 MSTORE PUSH32 0xA24B8CF512AF3C40223886405905578154323D4BA0D3802EC5756B9684CE1B79 SWAP1 PUSH1 0x20 ADD PUSH1 0x40 MLOAD DUP1 SWAP2 SUB SWAP1 LOG1 POP POP POP POP POP POP POP POP POP POP JUMP JUMPDEST PUSH2 0x105E PUSH2 0x2F2B JUMP JUMPDEST PUSH1 0xD7 DUP1 SLOAD PUSH1 0xFF NOT AND PUSH1 0xFF SWAP3 SWAP1 SWAP3 AND SWAP2 SWAP1 SWAP2 OR SWAP1 SSTORE JUMP JUMPDEST PUSH1 0x1 PUSH1 0x1 PUSH1 0xA0 SHL SUB PUSH32 0x0 AND ADDRESS SUB PUSH2 0x10BC JUMPI PUSH1 0x40 MLOAD PUSH3 0x461BCD PUSH1 0xE5 SHL DUP2 MSTORE PUSH1 0x4 ADD PUSH2 0xF1B SWAP1 PUSH2 0x58F9 JUMP JUMPDEST PUSH32 0x0 PUSH1 0x1 PUSH1 0x1 PUSH1 0xA0 SHL SUB AND PUSH2 0x10EE PUSH2 0x2F85 JUMP JUMPDEST PUSH1 0x1 PUSH1 0x1 PUSH1 0xA0 SHL SUB AND EQ PUSH2 0x1114 JUMPI PUSH1 0x40 MLOAD PUSH3 0x461BCD PUSH1 0xE5 SHL DUP2 MSTORE PUSH1 0x4 ADD PUSH2 0xF1B SWAP1 PUSH2 0x5945 JUMP JUMPDEST PUSH2 0x111D DUP3 PUSH2 0x2FA1 JUMP JUMPDEST PUSH2 0x1129 DUP3 DUP3 PUSH1 0x1 PUSH2 0x2FA9 JUMP JUMPDEST POP POP JUMP JUMPDEST PUSH1 0x0 ADDRESS PUSH1 0x1 PUSH1 0x1 PUSH1 0xA0 SHL SUB PUSH32 0x0 AND EQ PUSH2 0x11C8 JUMPI PUSH1 0x40 MLOAD PUSH3 0x461BCD PUSH1 0xE5 SHL DUP2 MSTORE PUSH1 0x20 PUSH1 0x4 DUP3 ADD MSTORE PUSH1 0x38 PUSH1 0x24 DUP3 ADD MSTORE PUSH32 0x555550535570677261646561626C653A206D757374206E6F742062652063616C PUSH1 0x44 DUP3 ADD MSTORE PUSH24 0x1B1959081D1A1C9BDD59DA0819195B1959D85D1958D85B1B PUSH1 0x42 SHL PUSH1 0x64 DUP3 ADD MSTORE PUSH1 0x84 ADD PUSH2 0xF1B JUMP JUMPDEST POP PUSH1 0x0 DUP1 MLOAD PUSH1 0x20 PUSH2 0x5C8C DUP4 CODECOPY DUP2 MLOAD SWAP2 MSTORE SWAP1 JUMP JUMPDEST PUSH2 0x11E3 PUSH2 0x2F2B JUMP JUMPDEST PUSH1 0x0 JUMPDEST PUSH2 0xFFFF DUP2 AND DUP6 GT ISZERO PUSH2 0x13D6 JUMPI PUSH1 0x0 PUSH1 0xD9 PUSH1 0x0 DUP9 DUP9 DUP6 PUSH2 0xFFFF AND DUP2 DUP2 LT PUSH2 0x120E JUMPI PUSH2 0x120E PUSH2 0x5A96 JUMP JUMPDEST SWAP1 POP PUSH1 0x20 MUL ADD PUSH1 0x20 DUP2 ADD SWAP1 PUSH2 0x1223 SWAP2 SWAP1 PUSH2 0x5016 JUMP JUMPDEST PUSH4 0xFFFFFFFF AND PUSH4 0xFFFFFFFF AND DUP2 MSTORE PUSH1 0x20 ADD SWAP1 DUP2 MSTORE PUSH1 0x20 ADD PUSH1 0x0 KECCAK256 SWAP1 POP PUSH1 0x0 PUSH1 0xD8 PUSH1 0x0 DUP8 DUP8 DUP7 PUSH2 0xFFFF AND DUP2 DUP2 LT PUSH2 0x125B JUMPI PUSH2 0x125B PUSH2 0x5A96 JUMP JUMPDEST SWAP1 POP PUSH1 0x20 MUL ADD PUSH1 0x20 DUP2 ADD SWAP1 PUSH2 0x1270 SWAP2 SWAP1 PUSH2 0x4FE7 JUMP JUMPDEST PUSH1 0x1 PUSH1 0x1 PUSH1 0xA0 SHL SUB AND PUSH1 0x1 PUSH1 0x1 PUSH1 0xA0 SHL SUB AND DUP2 MSTORE PUSH1 0x20 ADD SWAP1 DUP2 MSTORE PUSH1 0x20 ADD PUSH1 0x0 KECCAK256 SWAP1 POP DUP8 DUP8 DUP5 PUSH2 0xFFFF AND DUP2 DUP2 LT PUSH2 0x12A8 JUMPI PUSH2 0x12A8 PUSH2 0x5A96 JUMP JUMPDEST SWAP1 POP PUSH1 0x20 MUL ADD PUSH1 0x20 DUP2 ADD SWAP1 PUSH2 0x12BD SWAP2 SWAP1 PUSH2 0x5016 JUMP JUMPDEST DUP3 SLOAD PUSH4 0xFFFFFFFF NOT AND PUSH4 0xFFFFFFFF SWAP2 SWAP1 SWAP2 AND OR DUP3 SSTORE DUP4 MLOAD DUP5 SWAP1 PUSH2 0xFFFF DUP6 AND SWAP1 DUP2 LT PUSH2 0x12EA JUMPI PUSH2 0x12EA PUSH2 0x5A96 JUMP JUMPDEST PUSH1 0x20 MUL PUSH1 0x20 ADD ADD MLOAD DUP3 PUSH1 0x1 ADD SWAP1 DUP2 PUSH2 0x1302 SWAP2 SWAP1 PUSH2 0x59D7 JUMP JUMPDEST POP DUP1 PUSH1 0x1 ADD DUP9 DUP9 DUP6 PUSH2 0xFFFF AND DUP2 DUP2 LT PUSH2 0x131D JUMPI PUSH2 0x131D PUSH2 0x5A96 JUMP JUMPDEST SWAP1 POP PUSH1 0x20 MUL ADD PUSH1 0x20 DUP2 ADD SWAP1 PUSH2 0x1332 SWAP2 SWAP1 PUSH2 0x5016 JUMP JUMPDEST DUP2 SLOAD PUSH1 0x1 DUP2 ADD DUP4 SSTORE PUSH1 0x0 SWAP3 DUP4 MSTORE PUSH1 0x20 SWAP1 SWAP3 KECCAK256 PUSH1 0x8 DUP4 DIV ADD DUP1 SLOAD PUSH1 0x7 SWAP1 SWAP4 AND PUSH1 0x4 MUL PUSH2 0x100 EXP PUSH4 0xFFFFFFFF DUP2 DUP2 MUL NOT SWAP1 SWAP5 AND SWAP3 SWAP1 SWAP4 AND SWAP3 SWAP1 SWAP3 MUL OR SWAP1 SSTORE DUP6 DUP6 PUSH2 0xFFFF DUP6 AND DUP2 DUP2 LT PUSH2 0x1384 JUMPI PUSH2 0x1384 PUSH2 0x5A96 JUMP JUMPDEST SWAP1 POP PUSH1 0x20 MUL ADD PUSH1 0x20 DUP2 ADD SWAP1 PUSH2 0x1399 SWAP2 SWAP1 PUSH2 0x4FE7 JUMP JUMPDEST DUP3 PUSH1 0x2 ADD PUSH1 0x1 PUSH2 0x100 EXP DUP2 SLOAD DUP2 PUSH1 0x1 PUSH1 0x1 PUSH1 0xA0 SHL SUB MUL NOT AND SWAP1 DUP4 PUSH1 0x1 PUSH1 0x1 PUSH1 0xA0 SHL SUB AND MUL OR SWAP1 SSTORE POP POP POP DUP1 DUP1 PUSH2 0x13CE SWAP1 PUSH2 0x5AAC JUMP JUMPDEST SWAP2 POP POP PUSH2 0x11E6 JUMP JUMPDEST POP POP POP POP POP POP JUMP JUMPDEST PUSH2 0x13E6 PUSH2 0x2F2B JUMP JUMPDEST PUSH2 0x13F0 PUSH1 0x0 PUSH2 0x3114 JUMP JUMPDEST JUMP JUMPDEST PUSH1 0x0 PUSH2 0x13FD DUP3 PUSH2 0x3166 JUMP JUMPDEST PUSH1 0xFF AND SWAP3 SWAP2 POP POP JUMP JUMPDEST PUSH1 0x0 PUSH2 0x1411 DUP3 PUSH2 0x3583 JUMP JUMPDEST SWAP1 POP PUSH2 0x1129 DUP2 DUP4 PUSH2 0x3851 JUMP JUMPDEST PUSH1 0xCA DUP2 DUP2 SLOAD DUP2 LT PUSH2 0x142D JUMPI PUSH1 0x0 DUP1 REVERT JUMPDEST SWAP1 PUSH1 0x0 MSTORE PUSH1 0x20 PUSH1 0x0 KECCAK256 SWAP1 PUSH1 0x10 SWAP2 DUP3 DUP3 DIV ADD SWAP2 SWAP1 MOD PUSH1 0x2 MUL SWAP2 POP SLOAD SWAP1 PUSH2 0x100 EXP SWAP1 DIV PUSH2 0xFFFF AND DUP2 JUMP JUMPDEST PUSH2 0x14B9 PUSH1 0x40 MLOAD DUP1 PUSH2 0x160 ADD PUSH1 0x40 MSTORE DUP1 PUSH1 0x0 PUSH1 0xFF AND DUP2 MSTORE PUSH1 0x20 ADD PUSH1 0x0 DUP2 MSTORE PUSH1 0x20 ADD PUSH1 0x0 DUP2 MSTORE PUSH1 0x20 ADD PUSH1 0x0 DUP2 MSTORE PUSH1 0x20 ADD PUSH1 0x60 DUP2 MSTORE PUSH1 0x20 ADD PUSH1 0x0 DUP2 MSTORE PUSH1 0x20 ADD PUSH1 0x0 DUP2 MSTORE PUSH1 0x20 ADD PUSH1 0x0 DUP2 MSTORE PUSH1 0x20 ADD PUSH1 0x0 ISZERO ISZERO DUP2 MSTORE PUSH1 0x20 ADD PUSH1 0x0 ISZERO ISZERO DUP2 MSTORE PUSH1 0x20 ADD PUSH1 0x60 DUP2 MSTORE POP SWAP1 JUMP JUMPDEST PUSH1 0xFF DUP1 DUP4 AND PUSH1 0x0 SWAP1 DUP2 MSTORE PUSH1 0xDB PUSH1 0x20 SWAP1 DUP2 MSTORE PUSH1 0x40 SWAP2 DUP3 SWAP1 KECCAK256 DUP3 MLOAD PUSH2 0x160 DUP2 ADD DUP5 MSTORE DUP2 SLOAD SWAP1 SWAP5 AND DUP5 MSTORE PUSH1 0x1 DUP2 ADD SLOAD SWAP2 DUP5 ADD SWAP2 SWAP1 SWAP2 MSTORE PUSH1 0x2 DUP2 ADD SLOAD SWAP2 DUP4 ADD SWAP2 SWAP1 SWAP2 MSTORE PUSH1 0x3 DUP2 ADD SLOAD PUSH1 0x60 DUP4 ADD MSTORE PUSH1 0x4 DUP2 ADD DUP1 SLOAD PUSH1 0x80 DUP5 ADD SWAP2 SWAP1 PUSH2 0x1517 SWAP1 PUSH2 0x589C JUMP JUMPDEST DUP1 PUSH1 0x1F ADD PUSH1 0x20 DUP1 SWAP2 DIV MUL PUSH1 0x20 ADD PUSH1 0x40 MLOAD SWAP1 DUP2 ADD PUSH1 0x40 MSTORE DUP1 SWAP3 SWAP2 SWAP1 DUP2 DUP2 MSTORE PUSH1 0x20 ADD DUP3 DUP1 SLOAD PUSH2 0x1543 SWAP1 PUSH2 0x589C JUMP JUMPDEST DUP1 ISZERO PUSH2 0x1590 JUMPI DUP1 PUSH1 0x1F LT PUSH2 0x1565 JUMPI PUSH2 0x100 DUP1 DUP4 SLOAD DIV MUL DUP4 MSTORE SWAP2 PUSH1 0x20 ADD SWAP2 PUSH2 0x1590 JUMP JUMPDEST DUP3 ADD SWAP2 SWAP1 PUSH1 0x0 MSTORE PUSH1 0x20 PUSH1 0x0 KECCAK256 SWAP1 JUMPDEST DUP2 SLOAD DUP2 MSTORE SWAP1 PUSH1 0x1 ADD SWAP1 PUSH1 0x20 ADD DUP1 DUP4 GT PUSH2 0x1573 JUMPI DUP3 SWAP1 SUB PUSH1 0x1F AND DUP3 ADD SWAP2 JUMPDEST POP POP POP SWAP2 DUP4 MSTORE POP POP PUSH1 0x5 DUP3 ADD SLOAD PUSH1 0x20 DUP1 DUP4 ADD SWAP2 SWAP1 SWAP2 MSTORE PUSH1 0x6 DUP4 ADD SLOAD PUSH1 0x40 DUP1 DUP5 ADD SWAP2 SWAP1 SWAP2 MSTORE PUSH1 0x7 DUP5 ADD SLOAD PUSH1 0x60 DUP5 ADD MSTORE PUSH1 0x8 DUP5 ADD SLOAD PUSH1 0xFF DUP1 DUP3 AND ISZERO ISZERO PUSH1 0x80 DUP7 ADD MSTORE PUSH2 0x100 SWAP1 SWAP2 DIV AND ISZERO ISZERO PUSH1 0xA0 DUP5 ADD MSTORE PUSH1 0x9 DUP5 ADD DUP1 SLOAD DUP3 MLOAD DUP2 DUP6 MUL DUP2 ADD DUP6 ADD SWAP1 SWAP4 MSTORE DUP1 DUP4 MSTORE PUSH1 0xC0 SWAP1 SWAP5 ADD SWAP4 SWAP2 SWAP3 SWAP1 SWAP2 SWAP1 DUP4 ADD DUP3 DUP3 DUP1 ISZERO PUSH2 0x1658 JUMPI PUSH1 0x20 MUL DUP3 ADD SWAP2 SWAP1 PUSH1 0x0 MSTORE PUSH1 0x20 PUSH1 0x0 KECCAK256 SWAP1 PUSH1 0x0 SWAP1 JUMPDEST DUP3 DUP3 SWAP1 SLOAD SWAP1 PUSH2 0x100 EXP SWAP1 DIV PUSH4 0xFFFFFFFF AND PUSH4 0xFFFFFFFF AND DUP2 MSTORE PUSH1 0x20 ADD SWAP1 PUSH1 0x4 ADD SWAP1 PUSH1 0x20 DUP3 PUSH1 0x3 ADD DIV SWAP3 DUP4 ADD SWAP3 PUSH1 0x1 SUB DUP3 MUL SWAP2 POP DUP1 DUP5 GT PUSH2 0x161B JUMPI SWAP1 POP JUMPDEST POP POP POP POP POP DUP2 MSTORE POP POP SWAP1 POP SWAP2 SWAP1 POP JUMP JUMPDEST PUSH1 0x0 SLOAD PUSH2 0x100 SWAP1 DIV PUSH1 0xFF AND ISZERO DUP1 DUP1 ISZERO PUSH2 0x1688 JUMPI POP PUSH1 0x0 SLOAD PUSH1 0x1 PUSH1 0xFF SWAP1 SWAP2 AND LT JUMPDEST DUP1 PUSH2 0x16A9 JUMPI POP PUSH2 0x1697 ADDRESS PUSH2 0x3F36 JUMP JUMPDEST ISZERO DUP1 ISZERO PUSH2 0x16A9 JUMPI POP PUSH1 0x0 SLOAD PUSH1 0xFF AND PUSH1 0x1 EQ JUMPDEST PUSH2 0x170C JUMPI PUSH1 0x40 MLOAD PUSH3 0x461BCD PUSH1 0xE5 SHL DUP2 MSTORE PUSH1 0x20 PUSH1 0x4 DUP3 ADD MSTORE PUSH1 0x2E PUSH1 0x24 DUP3 ADD MSTORE PUSH32 0x496E697469616C697A61626C653A20636F6E747261637420697320616C726561 PUSH1 0x44 DUP3 ADD MSTORE PUSH14 0x191E481A5B9A5D1A585B1A5E9959 PUSH1 0x92 SHL PUSH1 0x64 DUP3 ADD MSTORE PUSH1 0x84 ADD PUSH2 0xF1B JUMP JUMPDEST PUSH1 0x0 DUP1 SLOAD PUSH1 0xFF NOT AND PUSH1 0x1 OR SWAP1 SSTORE DUP1 ISZERO PUSH2 0x172F JUMPI PUSH1 0x0 DUP1 SLOAD PUSH2 0xFF00 NOT AND PUSH2 0x100 OR SWAP1 SSTORE JUMPDEST PUSH1 0xC9 DUP1 SLOAD PUSH1 0x1 PUSH1 0x1 PUSH1 0xA0 SHL SUB NOT AND PUSH20 0xF594034B9AB80FDB03560BA3E5C8EEA0B0EAD168 OR SWAP1 SSTORE PUSH1 0xCB DUP1 SLOAD PUSH2 0xFFFF NOT AND PUSH2 0x3E8 OR SWAP1 SSTORE PUSH1 0x40 DUP1 MLOAD PUSH2 0x3A0 DUP2 ADD DUP3 MSTORE PUSH1 0x64 DUP2 MSTORE PUSH1 0x46 PUSH1 0x20 DUP3 ADD MSTORE PUSH1 0x32 SWAP2 DUP2 ADD DUP3 SWAP1 MSTORE PUSH1 0x60 DUP2 ADD DUP3 SWAP1 MSTORE PUSH1 0x80 DUP2 ADD DUP3 SWAP1 MSTORE PUSH1 0xA0 DUP2 ADD DUP3 SWAP1 MSTORE PUSH1 0xC0 DUP2 ADD DUP3 SWAP1 MSTORE PUSH1 0xE0 DUP2 ADD DUP3 SWAP1 MSTORE PUSH2 0x100 DUP2 ADD DUP3 SWAP1 MSTORE PUSH2 0x120 DUP2 ADD DUP3 SWAP1 MSTORE PUSH2 0x140 DUP2 ADD DUP3 SWAP1 MSTORE PUSH2 0x160 DUP2 ADD DUP3 SWAP1 MSTORE PUSH2 0x180 DUP2 ADD DUP3 SWAP1 MSTORE PUSH2 0x1A0 DUP2 ADD DUP3 SWAP1 MSTORE PUSH2 0x1C0 DUP2 ADD DUP3 SWAP1 MSTORE PUSH2 0x1E0 DUP2 ADD DUP3 SWAP1 MSTORE PUSH2 0x200 DUP2 ADD DUP3 SWAP1 MSTORE PUSH2 0x220 DUP2 ADD DUP3 SWAP1 MSTORE PUSH2 0x240 DUP2 ADD SWAP2 SWAP1 SWAP2 MSTORE PUSH1 0x14 PUSH2 0x260 DUP3 ADD DUP2 SWAP1 MSTORE PUSH2 0x280 DUP3 ADD DUP2 SWAP1 MSTORE PUSH2 0x2A0 DUP3 ADD DUP2 SWAP1 MSTORE PUSH2 0x2C0 DUP3 ADD DUP2 SWAP1 MSTORE PUSH2 0x2E0 DUP3 ADD DUP2 SWAP1 MSTORE PUSH2 0x300 DUP3 ADD DUP2 SWAP1 MSTORE PUSH2 0x320 DUP3 ADD DUP2 SWAP1 MSTORE PUSH2 0x340 DUP3 ADD DUP2 SWAP1 MSTORE PUSH2 0x360 DUP3 ADD DUP2 SWAP1 MSTORE PUSH2 0x380 DUP3 ADD MSTORE PUSH2 0x185C SWAP1 PUSH1 0xCA SWAP1 PUSH1 0x1D PUSH2 0x4E03 JUMP JUMPDEST POP PUSH1 0xCB DUP1 SLOAD PUSH3 0xFF0000 NOT AND PUSH3 0x320000 OR SWAP1 SSTORE PUSH8 0xDE0B6B3A7640000 PUSH1 0xCC SSTORE PUSH1 0xD2 DUP1 SLOAD PUSH4 0xFF00FFFF NOT AND PUSH4 0x2000101 OR SWAP1 SSTORE PUSH1 0xCF DUP1 SLOAD PUSH2 0xFFFF PUSH1 0x60 SHL NOT AND PUSH1 0x7D PUSH1 0x63 SHL OR SWAP1 SSTORE PUSH4 0x20F5800 PUSH1 0xD0 SSTORE PUSH1 0x14 PUSH1 0xD1 SSTORE PUSH3 0x278D00 PUSH1 0xD5 SSTORE PUSH2 0x18BD PUSH2 0x3F45 JUMP JUMPDEST PUSH2 0x18C5 PUSH2 0x3F74 JUMP JUMPDEST DUP1 ISZERO PUSH2 0xED0 JUMPI PUSH1 0x0 DUP1 SLOAD PUSH2 0xFF00 NOT AND SWAP1 SSTORE PUSH1 0x40 MLOAD PUSH1 0x1 DUP2 MSTORE PUSH32 0x7F26B83FF96E1F2B6A682F133852F6798A09C465DA95921460CEFB3847402498 SWAP1 PUSH1 0x20 ADD PUSH1 0x40 MLOAD DUP1 SWAP2 SUB SWAP1 LOG1 POP JUMP JUMPDEST PUSH2 0x1915 PUSH2 0x2F2B JUMP JUMPDEST PUSH1 0xCB DUP1 SLOAD PUSH1 0xFF SWAP1 SWAP3 AND PUSH3 0x10000 MUL PUSH3 0xFF0000 NOT SWAP1 SWAP3 AND SWAP2 SWAP1 SWAP2 OR SWAP1 SSTORE JUMP JUMPDEST PUSH2 0x193B PUSH2 0x2F2B JUMP JUMPDEST PUSH1 0xD6 DUP1 SLOAD PUSH1 0x1 DUP2 DUP2 ADD SWAP1 SWAP3 SSTORE PUSH32 0xE767803F8ECF1DEE6BB0345811F7312CDA556058B19DB6389AD9AE3568643DDD ADD DUP1 SLOAD PUSH1 0x1 PUSH1 0x1 PUSH1 0xA0 SHL SUB SWAP1 SWAP4 AND PUSH1 0x1 PUSH1 0x1 PUSH1 0xA0 SHL SUB NOT SWAP1 SWAP4 AND DUP4 OR SWAP1 SSTORE PUSH1 0x0 SWAP2 DUP3 MSTORE PUSH1 0xD8 PUSH1 0x20 MSTORE PUSH1 0x40 SWAP1 SWAP2 KECCAK256 DUP1 SLOAD PUSH1 0xFF NOT AND SWAP1 SWAP2 OR SWAP1 SSTORE JUMP JUMPDEST PUSH2 0x19AA PUSH2 0x2F2B JUMP JUMPDEST PUSH1 0x40 MLOAD PUSH4 0xA9059CBB PUSH1 0xE0 SHL DUP2 MSTORE CALLER PUSH1 0x4 DUP3 ADD MSTORE PUSH1 0x24 DUP2 ADD DUP3 SWAP1 MSTORE PUSH1 0x1 PUSH1 0x1 PUSH1 0xA0 SHL SUB DUP4 AND SWAP1 PUSH4 0xA9059CBB SWAP1 PUSH1 0x44 ADD PUSH1 0x20 PUSH1 0x40 MLOAD DUP1 DUP4 SUB DUP2 PUSH1 0x0 DUP8 GAS CALL ISZERO DUP1 ISZERO PUSH2 0x19F7 JUMPI RETURNDATASIZE PUSH1 0x0 DUP1 RETURNDATACOPY RETURNDATASIZE PUSH1 0x0 REVERT JUMPDEST POP POP POP POP PUSH1 0x40 MLOAD RETURNDATASIZE PUSH1 0x1F NOT PUSH1 0x1F DUP3 ADD AND DUP3 ADD DUP1 PUSH1 0x40 MSTORE POP DUP2 ADD SWAP1 PUSH2 0xAB7 SWAP2 SWAP1 PUSH2 0x5ACD JUMP JUMPDEST PUSH2 0x1A23 PUSH2 0x2F2B JUMP JUMPDEST PUSH1 0xCB DUP1 SLOAD PUSH2 0xFFFF NOT AND PUSH2 0xFFFF SWAP3 SWAP1 SWAP3 AND SWAP2 SWAP1 SWAP2 OR SWAP1 SSTORE JUMP JUMPDEST PUSH2 0x1A43 PUSH2 0x2F2B JUMP JUMPDEST PUSH1 0xD7 SLOAD PUSH1 0xFF AND PUSH1 0x0 JUMPDEST DUP2 PUSH1 0xFF AND DUP2 PUSH1 0xFF AND LT ISZERO PUSH2 0x1D87 JUMPI PUSH1 0xFF DUP1 DUP3 AND PUSH1 0x0 SWAP1 DUP2 MSTORE PUSH1 0xDB PUSH1 0x20 SWAP1 DUP2 MSTORE PUSH1 0x40 DUP1 DUP4 KECCAK256 DUP2 MLOAD PUSH2 0x160 DUP2 ADD DUP4 MSTORE DUP2 SLOAD SWAP1 SWAP6 AND DUP6 MSTORE PUSH1 0x1 DUP2 ADD SLOAD SWAP3 DUP6 ADD SWAP3 SWAP1 SWAP3 MSTORE PUSH1 0x2 DUP3 ADD SLOAD SWAP1 DUP5 ADD MSTORE PUSH1 0x3 DUP2 ADD SLOAD PUSH1 0x60 DUP5 ADD MSTORE PUSH1 0x4 DUP2 ADD DUP1 SLOAD SWAP3 SWAP4 SWAP3 PUSH1 0x80 DUP5 ADD SWAP2 SWAP1 PUSH2 0x1AB7 SWAP1 PUSH2 0x589C JUMP JUMPDEST DUP1 PUSH1 0x1F ADD PUSH1 0x20 DUP1 SWAP2 DIV MUL PUSH1 0x20 ADD PUSH1 0x40 MLOAD SWAP1 DUP2 ADD PUSH1 0x40 MSTORE DUP1 SWAP3 SWAP2 SWAP1 DUP2 DUP2 MSTORE PUSH1 0x20 ADD DUP3 DUP1 SLOAD PUSH2 0x1AE3 SWAP1 PUSH2 0x589C JUMP JUMPDEST DUP1 ISZERO PUSH2 0x1B30 JUMPI DUP1 PUSH1 0x1F LT PUSH2 0x1B05 JUMPI PUSH2 0x100 DUP1 DUP4 SLOAD DIV MUL DUP4 MSTORE SWAP2 PUSH1 0x20 ADD SWAP2 PUSH2 0x1B30 JUMP JUMPDEST DUP3 ADD SWAP2 SWAP1 PUSH1 0x0 MSTORE PUSH1 0x20 PUSH1 0x0 KECCAK256 SWAP1 JUMPDEST DUP2 SLOAD DUP2 MSTORE SWAP1 PUSH1 0x1 ADD SWAP1 PUSH1 0x20 ADD DUP1 DUP4 GT PUSH2 0x1B13 JUMPI DUP3 SWAP1 SUB PUSH1 0x1F AND DUP3 ADD SWAP2 JUMPDEST POP POP POP SWAP2 DUP4 MSTORE POP POP PUSH1 0x5 DUP3 ADD SLOAD PUSH1 0x20 DUP1 DUP4 ADD SWAP2 SWAP1 SWAP2 MSTORE PUSH1 0x6 DUP4 ADD SLOAD PUSH1 0x40 DUP1 DUP5 ADD SWAP2 SWAP1 SWAP2 MSTORE PUSH1 0x7 DUP5 ADD SLOAD PUSH1 0x60 DUP5 ADD MSTORE PUSH1 0x8 DUP5 ADD SLOAD PUSH1 0xFF DUP1 DUP3 AND ISZERO ISZERO PUSH1 0x80 DUP7 ADD MSTORE PUSH2 0x100 SWAP1 SWAP2 DIV AND ISZERO ISZERO PUSH1 0xA0 DUP5 ADD MSTORE PUSH1 0x9 DUP5 ADD DUP1 SLOAD DUP3 MLOAD DUP2 DUP6 MUL DUP2 ADD DUP6 ADD SWAP1 SWAP4 MSTORE DUP1 DUP4 MSTORE PUSH1 0xC0 SWAP1 SWAP5 ADD SWAP4 SWAP2 SWAP3 SWAP1 SWAP2 SWAP1 DUP4 ADD DUP3 DUP3 DUP1 ISZERO PUSH2 0x1BF8 JUMPI PUSH1 0x20 MUL DUP3 ADD SWAP2 SWAP1 PUSH1 0x0 MSTORE PUSH1 0x20 PUSH1 0x0 KECCAK256 SWAP1 PUSH1 0x0 SWAP1 JUMPDEST DUP3 DUP3 SWAP1 SLOAD SWAP1 PUSH2 0x100 EXP SWAP1 DIV PUSH4 0xFFFFFFFF AND PUSH4 0xFFFFFFFF AND DUP2 MSTORE PUSH1 0x20 ADD SWAP1 PUSH1 0x4 ADD SWAP1 PUSH1 0x20 DUP3 PUSH1 0x3 ADD DIV SWAP3 DUP4 ADD SWAP3 PUSH1 0x1 SUB DUP3 MUL SWAP2 POP DUP1 DUP5 GT PUSH2 0x1BBB JUMPI SWAP1 POP JUMPDEST POP POP POP POP POP DUP2 MSTORE POP POP SWAP1 POP DUP1 PUSH2 0x120 ADD MLOAD PUSH2 0x1C13 JUMPI POP PUSH2 0x1D75 JUMP JUMPDEST PUSH2 0x140 DUP2 ADD MLOAD DUP1 MLOAD PUSH1 0xCB SLOAD PUSH1 0xA0 DUP5 ADD MLOAD PUSH1 0xD3 SLOAD PUSH1 0x0 SWAP3 PUSH4 0xFFFFFFFF DUP6 AND SWAP3 PUSH2 0xFFFF SWAP1 SWAP2 AND SWAP2 PUSH2 0x1C42 SWAP2 SWAP1 PUSH2 0x5AEA JUMP JUMPDEST PUSH2 0x1C4C SWAP2 SWAP1 PUSH2 0x5B01 JUMP JUMPDEST PUSH2 0x1C56 SWAP2 SWAP1 PUSH2 0x5B01 JUMP JUMPDEST SWAP1 POP PUSH1 0x0 JUMPDEST DUP3 PUSH4 0xFFFFFFFF AND DUP2 PUSH4 0xFFFFFFFF AND LT ISZERO PUSH2 0x1D6F JUMPI PUSH1 0x0 PUSH1 0xD9 PUSH1 0x0 DUP7 DUP5 PUSH4 0xFFFFFFFF AND DUP2 MLOAD DUP2 LT PUSH2 0x1C8D JUMPI PUSH2 0x1C8D PUSH2 0x5A96 JUMP JUMPDEST PUSH1 0x20 MUL PUSH1 0x20 ADD ADD MLOAD PUSH4 0xFFFFFFFF AND PUSH4 0xFFFFFFFF AND DUP2 MSTORE PUSH1 0x20 ADD SWAP1 DUP2 MSTORE PUSH1 0x20 ADD PUSH1 0x0 KECCAK256 SWAP1 POP DUP6 PUSH1 0xC0 ADD MLOAD DUP2 PUSH1 0x10 ADD SLOAD GT DUP1 ISZERO PUSH2 0x1CD0 JUMPI POP DUP1 PUSH1 0x19 ADD SLOAD DUP2 PUSH1 0x18 ADD SLOAD GT ISZERO JUMPDEST ISZERO PUSH2 0x1D5C JUMPI DUP3 DUP2 PUSH1 0x18 ADD PUSH1 0x0 DUP3 DUP3 SLOAD PUSH2 0x1CE9 SWAP2 SWAP1 PUSH2 0x5B23 JUMP JUMPDEST SWAP3 POP POP DUP2 SWAP1 SSTORE POP DUP3 DUP6 DUP4 PUSH4 0xFFFFFFFF AND DUP2 MLOAD DUP2 LT PUSH2 0x1D09 JUMPI PUSH2 0x1D09 PUSH2 0x5A96 JUMP JUMPDEST PUSH1 0x20 MUL PUSH1 0x20 ADD ADD MLOAD PUSH4 0xFFFFFFFF AND PUSH32 0x94B6D3D19CC40938E685EF6A1F6476B53EF65295AB094A044E74405A8D0BD05B DUP9 PUSH1 0x0 ADD MLOAD PUSH1 0x40 MLOAD PUSH2 0x1D53 SWAP2 SWAP1 PUSH1 0xFF SWAP2 SWAP1 SWAP2 AND DUP2 MSTORE PUSH1 0x20 ADD SWAP1 JUMP JUMPDEST PUSH1 0x40 MLOAD DUP1 SWAP2 SUB SWAP1 LOG3 JUMPDEST POP DUP1 PUSH2 0x1D67 DUP2 PUSH2 0x5B36 JUMP JUMPDEST SWAP2 POP POP PUSH2 0x1C5B JUMP JUMPDEST POP POP POP POP POP JUMPDEST DUP1 PUSH2 0x1D7F DUP2 PUSH2 0x5B4F JUMP JUMPDEST SWAP2 POP POP PUSH2 0x1A4C JUMP JUMPDEST POP POP PUSH1 0x0 PUSH1 0xD3 SSTORE TIMESTAMP PUSH1 0xD4 SSTORE JUMP JUMPDEST PUSH4 0xFFFFFFFF DUP1 DUP3 AND PUSH1 0x0 SWAP1 DUP2 MSTORE PUSH1 0xD9 PUSH1 0x20 SWAP1 DUP2 MSTORE PUSH1 0x40 DUP1 DUP4 KECCAK256 DUP2 MLOAD PUSH2 0x3A0 DUP2 ADD SWAP1 SWAP3 MSTORE DUP1 SLOAD SWAP1 SWAP5 AND DUP2 MSTORE PUSH1 0x1 DUP5 ADD DUP1 SLOAD SWAP4 SWAP5 DUP6 SWAP5 SWAP3 SWAP4 SWAP1 SWAP3 SWAP1 DUP5 ADD SWAP2 SWAP1 PUSH2 0x1DDA SWAP1 PUSH2 0x589C JUMP JUMPDEST DUP1 PUSH1 0x1F ADD PUSH1 0x20 DUP1 SWAP2 DIV MUL PUSH1 0x20 ADD PUSH1 0x40 MLOAD SWAP1 DUP2 ADD PUSH1 0x40 MSTORE DUP1 SWAP3 SWAP2 SWAP1 DUP2 DUP2 MSTORE PUSH1 0x20 ADD DUP3 DUP1 SLOAD PUSH2 0x1E06 SWAP1 PUSH2 0x589C JUMP JUMPDEST DUP1 ISZERO PUSH2 0x1E53 JUMPI DUP1 PUSH1 0x1F LT PUSH2 0x1E28 JUMPI PUSH2 0x100 DUP1 DUP4 SLOAD DIV MUL DUP4 MSTORE SWAP2 PUSH1 0x20 ADD SWAP2 PUSH2 0x1E53 JUMP JUMPDEST DUP3 ADD SWAP2 SWAP1 PUSH1 0x0 MSTORE PUSH1 0x20 PUSH1 0x0 KECCAK256 SWAP1 JUMPDEST DUP2 SLOAD DUP2 MSTORE SWAP1 PUSH1 0x1 ADD SWAP1 PUSH1 0x20 ADD DUP1 DUP4 GT PUSH2 0x1E36 JUMPI DUP3 SWAP1 SUB PUSH1 0x1F AND DUP3 ADD SWAP2 JUMPDEST POP POP POP SWAP2 DUP4 MSTORE POP POP PUSH1 0x2 DUP3 ADD SLOAD PUSH1 0xFF DUP2 AND ISZERO ISZERO PUSH1 0x20 DUP1 DUP5 ADD SWAP2 SWAP1 SWAP2 MSTORE PUSH2 0x100 SWAP1 SWAP2 DIV PUSH1 0x1 PUSH1 0x1 PUSH1 0xA0 SHL SUB AND PUSH1 0x40 DUP1 DUP5 ADD SWAP2 SWAP1 SWAP2 MSTORE PUSH1 0x3 DUP5 ADD SLOAD PUSH1 0x60 DUP5 ADD MSTORE PUSH1 0x4 DUP5 ADD SLOAD PUSH1 0x80 DUP5 ADD MSTORE PUSH1 0x5 DUP5 ADD SLOAD PUSH1 0xA0 DUP5 ADD MSTORE PUSH1 0x6 DUP5 ADD DUP1 SLOAD DUP3 MLOAD DUP2 DUP6 MUL DUP2 ADD DUP6 ADD SWAP1 SWAP4 MSTORE DUP1 DUP4 MSTORE PUSH1 0xC0 SWAP1 SWAP5 ADD SWAP4 SWAP2 SWAP3 SWAP1 SWAP2 SWAP1 DUP4 ADD DUP3 DUP3 DUP1 ISZERO PUSH2 0x1F20 JUMPI PUSH1 0x20 MUL DUP3 ADD SWAP2 SWAP1 PUSH1 0x0 MSTORE PUSH1 0x20 PUSH1 0x0 KECCAK256 SWAP1 PUSH1 0x0 SWAP1 JUMPDEST DUP3 DUP3 SWAP1 SLOAD SWAP1 PUSH2 0x100 EXP SWAP1 DIV PUSH4 0xFFFFFFFF AND PUSH4 0xFFFFFFFF AND DUP2 MSTORE PUSH1 0x20 ADD SWAP1 PUSH1 0x4 ADD SWAP1 PUSH1 0x20 DUP3 PUSH1 0x3 ADD DIV SWAP3 DUP4 ADD SWAP3 PUSH1 0x1 SUB DUP3 MUL SWAP2 POP DUP1 DUP5 GT PUSH2 0x1EE3 JUMPI SWAP1 POP JUMPDEST POP POP POP SWAP2 DUP4 MSTORE POP POP PUSH1 0x7 DUP3 ADD SLOAD PUSH4 0xFFFFFFFF AND PUSH1 0x20 DUP1 DUP4 ADD SWAP2 SWAP1 SWAP2 MSTORE PUSH1 0x8 DUP4 ADD DUP1 SLOAD PUSH1 0x40 DUP1 MLOAD DUP3 DUP6 MUL DUP2 ADD DUP6 ADD DUP3 MSTORE DUP3 DUP2 MSTORE SWAP5 ADD SWAP4 SWAP3 DUP4 ADD DUP3 DUP3 DUP1 ISZERO PUSH2 0x1FB1 JUMPI PUSH1 0x20 MUL DUP3 ADD SWAP2 SWAP1 PUSH1 0x0 MSTORE PUSH1 0x20 PUSH1 0x0 KECCAK256 SWAP1 PUSH1 0x0 SWAP1 JUMPDEST DUP3 DUP3 SWAP1 SLOAD SWAP1 PUSH2 0x100 EXP SWAP1 DIV PUSH4 0xFFFFFFFF AND PUSH4 0xFFFFFFFF AND DUP2 MSTORE PUSH1 0x20 ADD SWAP1 PUSH1 0x4 ADD SWAP1 PUSH1 0x20 DUP3 PUSH1 0x3 ADD DIV SWAP3 DUP4 ADD SWAP3 PUSH1 0x1 SUB DUP3 MUL SWAP2 POP DUP1 DUP5 GT PUSH2 0x1F74 JUMPI SWAP1 POP JUMPDEST POP POP POP POP POP DUP2 MSTORE PUSH1 0x20 ADD PUSH1 0x9 DUP3 ADD DUP1 SLOAD DUP1 PUSH1 0x20 MUL PUSH1 0x20 ADD PUSH1 0x40 MLOAD SWAP1 DUP2 ADD PUSH1 0x40 MSTORE DUP1 SWAP3 SWAP2 SWAP1 DUP2 DUP2 MSTORE PUSH1 0x20 ADD DUP3 DUP1 SLOAD DUP1 ISZERO PUSH2 0x2035 JUMPI PUSH1 0x20 MUL DUP3 ADD SWAP2 SWAP1 PUSH1 0x0 MSTORE PUSH1 0x20 PUSH1 0x0 KECCAK256 SWAP1 PUSH1 0x0 SWAP1 JUMPDEST DUP3 DUP3 SWAP1 SLOAD SWAP1 PUSH2 0x100 EXP SWAP1 DIV PUSH4 0xFFFFFFFF AND PUSH4 0xFFFFFFFF AND DUP2 MSTORE PUSH1 0x20 ADD SWAP1 PUSH1 0x4 ADD SWAP1 PUSH1 0x20 DUP3 PUSH1 0x3 ADD DIV SWAP3 DUP4 ADD SWAP3 PUSH1 0x1 SUB DUP3 MUL SWAP2 POP DUP1 DUP5 GT PUSH2 0x1FF8 JUMPI SWAP1 POP JUMPDEST POP POP POP SWAP2 DUP4 MSTORE POP POP PUSH1 0xA DUP3 ADD SLOAD PUSH1 0x20 DUP3 ADD MSTORE PUSH1 0xB DUP3 ADD SLOAD PUSH1 0x40 DUP3 ADD MSTORE PUSH1 0xC DUP3 ADD SLOAD PUSH1 0x60 DUP3 ADD MSTORE PUSH1 0xD DUP3 ADD SLOAD PUSH1 0x80 DUP3 ADD MSTORE PUSH1 0xE DUP3 ADD SLOAD PUSH1 0xA0 DUP3 ADD MSTORE PUSH1 0xF DUP3 ADD SLOAD PUSH1 0xC0 DUP3 ADD MSTORE PUSH1 0x10 DUP3 ADD SLOAD PUSH1 0xE0 DUP3 ADD MSTORE PUSH1 0x11 DUP3 ADD SLOAD PUSH2 0x100 DUP3 ADD MSTORE PUSH1 0x12 DUP3 ADD SLOAD PUSH1 0xFF AND PUSH2 0x120 DUP3 ADD MSTORE PUSH1 0x13 DUP3 ADD SLOAD PUSH2 0x140 DUP3 ADD MSTORE PUSH1 0x14 DUP3 ADD SLOAD PUSH2 0x160 DUP3 ADD MSTORE PUSH1 0x15 DUP3 ADD SLOAD PUSH2 0x180 DUP3 ADD MSTORE PUSH1 0x16 DUP3 ADD SLOAD PUSH2 0x1A0 DUP3 ADD MSTORE PUSH1 0x17 DUP3 ADD SLOAD PUSH2 0x1C0 DUP3 ADD MSTORE PUSH1 0x18 DUP3 ADD SLOAD PUSH2 0x1E0 DUP3 ADD MSTORE PUSH1 0x19 DUP3 ADD SLOAD PUSH2 0x200 DUP3 ADD MSTORE PUSH1 0x1A DUP3 ADD SLOAD PUSH2 0x220 DUP3 ADD MSTORE PUSH1 0x1B SWAP1 SWAP2 ADD SLOAD PUSH2 0x240 SWAP1 SWAP2 ADD MSTORE SWAP1 POP PUSH2 0xE6B DUP2 PUSH2 0x3F9B JUMP JUMPDEST PUSH1 0xCC SLOAD CALLVALUE SWAP1 PUSH2 0x211A SWAP1 PUSH2 0x3FD8 JUMP JUMPDEST DUP2 LT ISZERO PUSH2 0x217D JUMPI PUSH1 0x40 MLOAD PUSH3 0x461BCD PUSH1 0xE5 SHL DUP2 MSTORE PUSH1 0x20 PUSH1 0x4 DUP3 ADD MSTORE PUSH1 0x2B PUSH1 0x24 DUP3 ADD MSTORE PUSH32 0x56616C75652073686F756C6420626520677265617465207468656E206D696E43 PUSH1 0x44 DUP3 ADD MSTORE PUSH11 0x37B73A3934B13ABA34B7B7 PUSH1 0xA9 SHL PUSH1 0x64 DUP3 ADD MSTORE PUSH1 0x84 ADD PUSH2 0xF1B JUMP JUMPDEST CALLER PUSH1 0x0 PUSH2 0x2189 DUP4 PUSH2 0x406E JUMP JUMPDEST PUSH1 0xCF SLOAD SWAP1 SWAP2 POP TIMESTAMP SWAP1 PUSH1 0x0 SWAP1 PUSH2 0x21AC SWAP1 PUSH1 0x1 PUSH1 0x40 SHL SWAP1 DIV PUSH4 0xFFFFFFFF AND PUSH1 0x1 PUSH2 0x5B6E JUMP JUMPDEST PUSH4 0xFFFFFFFF DUP8 AND PUSH1 0x0 SWAP1 DUP2 MSTORE PUSH1 0xD9 PUSH1 0x20 MSTORE PUSH1 0x40 SWAP1 KECCAK256 PUSH1 0x2 DUP2 ADD SLOAD SWAP2 SWAP3 POP SWAP1 PUSH1 0x1 PUSH1 0x1 PUSH1 0xA0 SHL SUB DUP7 DUP2 AND PUSH2 0x100 SWAP1 SWAP3 DIV AND EQ PUSH2 0x21F9 JUMPI PUSH1 0x40 MLOAD PUSH3 0x461BCD PUSH1 0xE5 SHL DUP2 MSTORE PUSH1 0x4 ADD PUSH2 0xF1B SWAP1 PUSH2 0x5B92 JUMP JUMPDEST PUSH1 0xD2 SLOAD PUSH1 0xFF AND ISZERO PUSH2 0x2210 JUMPI PUSH2 0x2210 DUP8 DUP4 DUP7 DUP7 PUSH2 0x40FB JUMP JUMPDEST POP POP POP POP POP POP POP JUMP JUMPDEST PUSH4 0xFFFFFFFF DUP2 AND PUSH1 0x0 SWAP1 DUP2 MSTORE PUSH1 0xD9 PUSH1 0x20 MSTORE PUSH1 0x40 DUP2 KECCAK256 DUP2 PUSH2 0x2238 DUP5 PUSH2 0x41ED JUMP JUMPDEST SWAP1 POP DUP2 PUSH1 0x19 ADD SLOAD DUP2 DUP4 PUSH1 0x18 ADD SLOAD PUSH2 0x224F SWAP2 SWAP1 PUSH2 0x5B23 JUMP JUMPDEST GT PUSH2 0x225C JUMPI DUP1 SWAP3 POP PUSH2 0x2276 JUMP JUMPDEST PUSH1 0x0 DUP3 PUSH1 0x18 ADD SLOAD DUP4 PUSH1 0x19 ADD SLOAD PUSH2 0x2272 SWAP2 SWAP1 PUSH2 0x58E6 JUMP JUMPDEST SWAP4 POP POP JUMPDEST POP POP SWAP2 SWAP1 POP JUMP JUMPDEST PUSH2 0x22C9 PUSH1 0x40 MLOAD DUP1 PUSH1 0xE0 ADD PUSH1 0x40 MSTORE DUP1 PUSH1 0x0 ISZERO ISZERO DUP2 MSTORE PUSH1 0x20 ADD PUSH1 0x0 PUSH4 0xFFFFFFFF AND DUP2 MSTORE PUSH1 0x20 ADD PUSH1 0x0 DUP2 MSTORE PUSH1 0x20 ADD PUSH1 0x0 PUSH2 0xFFFF AND DUP2 MSTORE PUSH1 0x20 ADD PUSH1 0x0 DUP2 MSTORE PUSH1 0x20 ADD PUSH1 0x0 DUP2 MSTORE PUSH1 0x20 ADD PUSH1 0x0 DUP2 MSTORE POP SWAP1 JUMP JUMPDEST POP PUSH4 0xFFFFFFFF SWAP1 DUP2 AND PUSH1 0x0 SWAP1 DUP2 MSTORE PUSH1 0xDA PUSH1 0x20 SWAP1 DUP2 MSTORE PUSH1 0x40 SWAP2 DUP3 SWAP1 KECCAK256 DUP3 MLOAD PUSH1 0xE0 DUP2 ADD DUP5 MSTORE DUP2 SLOAD PUSH1 0xFF DUP2 AND ISZERO ISZERO DUP3 MSTORE PUSH2 0x100 SWAP1 DIV SWAP1 SWAP5 AND SWAP2 DUP5 ADD SWAP2 SWAP1 SWAP2 MSTORE PUSH1 0x1 DUP2 ADD SLOAD SWAP2 DUP4 ADD SWAP2 SWAP1 SWAP2 MSTORE PUSH1 0x2 DUP2 ADD SLOAD PUSH2 0xFFFF AND PUSH1 0x60 DUP4 ADD MSTORE PUSH1 0x3 DUP2 ADD SLOAD PUSH1 0x80 DUP4 ADD MSTORE PUSH1 0x4 DUP2 ADD SLOAD PUSH1 0xA0 DUP4 ADD MSTORE PUSH1 0x5 ADD SLOAD PUSH1 0xC0 DUP3 ADD MSTORE SWAP1 JUMP JUMPDEST PUSH2 0x2347 PUSH2 0x2F2B JUMP JUMPDEST PUSH1 0x0 JUMPDEST DUP12 DUP2 LT ISZERO PUSH2 0x2499 JUMPI PUSH1 0xCF DUP1 SLOAD PUSH1 0x1 PUSH1 0x40 SHL SWAP1 DIV PUSH4 0xFFFFFFFF AND SWAP1 PUSH1 0x8 PUSH2 0x236F DUP4 PUSH2 0x5B36 JUMP JUMPDEST SWAP2 SWAP1 PUSH2 0x100 EXP DUP2 SLOAD DUP2 PUSH4 0xFFFFFFFF MUL NOT AND SWAP1 DUP4 PUSH4 0xFFFFFFFF AND MUL OR SWAP1 SSTORE POP POP PUSH1 0x0 DUP12 DUP12 DUP4 DUP2 DUP2 LT PUSH2 0x23A2 JUMPI PUSH2 0x23A2 PUSH2 0x5A96 JUMP JUMPDEST SWAP1 POP PUSH1 0x20 MUL ADD CALLDATALOAD GT ISZERO PUSH2 0x2487 JUMPI PUSH1 0x0 DUP12 DUP12 DUP4 DUP2 DUP2 LT PUSH2 0x23C3 JUMPI PUSH2 0x23C3 PUSH2 0x5A96 JUMP JUMPDEST SWAP1 POP PUSH1 0x20 MUL ADD CALLDATALOAD PUSH1 0x3 PUSH2 0x23D6 SWAP2 SWAP1 PUSH2 0x5AEA JUMP JUMPDEST SWAP1 POP PUSH2 0x2485 DUP15 DUP15 DUP5 DUP2 DUP2 LT PUSH2 0x23ED JUMPI PUSH2 0x23ED PUSH2 0x5A96 JUMP JUMPDEST SWAP1 POP PUSH1 0x20 MUL ADD PUSH1 0x20 DUP2 ADD SWAP1 PUSH2 0x2402 SWAP2 SWAP1 PUSH2 0x5016 JUMP JUMPDEST DUP14 DUP14 DUP6 DUP2 DUP2 LT PUSH2 0x2414 JUMPI PUSH2 0x2414 PUSH2 0x5A96 JUMP JUMPDEST SWAP1 POP PUSH1 0x20 MUL ADD CALLDATALOAD DUP13 DUP13 DUP7 DUP2 DUP2 LT PUSH2 0x242D JUMPI PUSH2 0x242D PUSH2 0x5A96 JUMP JUMPDEST SWAP1 POP PUSH1 0x20 MUL ADD CALLDATALOAD DUP5 DUP13 DUP13 DUP9 DUP2 DUP2 LT PUSH2 0x2447 JUMPI PUSH2 0x2447 PUSH2 0x5A96 JUMP JUMPDEST SWAP1 POP PUSH1 0x20 MUL ADD CALLDATALOAD DUP12 DUP12 DUP10 DUP2 DUP2 LT PUSH2 0x2460 JUMPI PUSH2 0x2460 PUSH2 0x5A96 JUMP JUMPDEST SWAP1 POP PUSH1 0x20 MUL ADD CALLDATALOAD DUP11 DUP11 DUP11 DUP2 DUP2 LT PUSH2 0x2479 JUMPI PUSH2 0x2479 PUSH2 0x5A96 JUMP JUMPDEST SWAP1 POP PUSH1 0x20 MUL ADD CALLDATALOAD PUSH2 0x42C7 JUMP JUMPDEST POP JUMPDEST DUP1 PUSH2 0x2491 DUP2 PUSH2 0x5BC9 JUMP JUMPDEST SWAP2 POP POP PUSH2 0x234A JUMP JUMPDEST POP POP POP POP POP POP POP POP POP POP POP POP POP JUMP JUMPDEST PUSH2 0x24B0 PUSH2 0x2F2B JUMP JUMPDEST PUSH2 0xAB7 PUSH1 0xCA DUP4 DUP4 PUSH2 0x4EAB JUMP JUMPDEST PUSH2 0x24C4 PUSH2 0x2F2B JUMP JUMPDEST PUSH1 0x1 PUSH1 0x1 PUSH1 0xA0 SHL SUB DUP2 AND PUSH1 0x0 SWAP1 DUP2 MSTORE PUSH1 0xD8 PUSH1 0x20 MSTORE PUSH1 0x40 DUP2 KECCAK256 DUP1 SLOAD PUSH1 0xFF NOT AND SWAP1 SSTORE PUSH1 0xD6 SLOAD SWAP1 JUMPDEST DUP2 DUP2 LT ISZERO PUSH2 0xAB7 JUMPI DUP3 PUSH1 0x1 PUSH1 0x1 PUSH1 0xA0 SHL SUB AND PUSH1 0xD6 DUP3 DUP2 SLOAD DUP2 LT PUSH2 0x250E JUMPI PUSH2 0x250E PUSH2 0x5A96 JUMP JUMPDEST PUSH1 0x0 SWAP2 DUP3 MSTORE PUSH1 0x20 SWAP1 SWAP2 KECCAK256 ADD SLOAD PUSH1 0x1 PUSH1 0x1 PUSH1 0xA0 SHL SUB AND SUB PUSH2 0x25D3 JUMPI PUSH1 0xD6 PUSH2 0x2535 PUSH1 0x1 DUP5 PUSH2 0x58E6 JUMP JUMPDEST DUP2 SLOAD DUP2 LT PUSH2 0x2545 JUMPI PUSH2 0x2545 PUSH2 0x5A96 JUMP JUMPDEST PUSH1 0x0 SWAP2 DUP3 MSTORE PUSH1 0x20 SWAP1 SWAP2 KECCAK256 ADD SLOAD PUSH1 0xD6 DUP1 SLOAD PUSH1 0x1 PUSH1 0x1 PUSH1 0xA0 SHL SUB SWAP1 SWAP3 AND SWAP2 DUP4 SWAP1 DUP2 LT PUSH2 0x2571 JUMPI PUSH2 0x2571 PUSH2 0x5A96 JUMP JUMPDEST SWAP1 PUSH1 0x0 MSTORE PUSH1 0x20 PUSH1 0x0 KECCAK256 ADD PUSH1 0x0 PUSH2 0x100 EXP DUP2 SLOAD DUP2 PUSH1 0x1 PUSH1 0x1 PUSH1 0xA0 SHL SUB MUL NOT AND SWAP1 DUP4 PUSH1 0x1 PUSH1 0x1 PUSH1 0xA0 SHL SUB AND MUL OR SWAP1 SSTORE POP PUSH1 0xD6 DUP1 SLOAD DUP1 PUSH2 0x25B0 JUMPI PUSH2 0x25B0 PUSH2 0x5BE2 JUMP JUMPDEST PUSH1 0x0 DUP3 DUP2 MSTORE PUSH1 0x20 SWAP1 KECCAK256 DUP2 ADD PUSH1 0x0 NOT SWAP1 DUP2 ADD DUP1 SLOAD PUSH1 0x1 PUSH1 0x1 PUSH1 0xA0 SHL SUB NOT AND SWAP1 SSTORE ADD SWAP1 SSTORE JUMPDEST DUP1 PUSH2 0x25DD DUP2 PUSH2 0x5BC9 JUMP JUMPDEST SWAP2 POP POP PUSH2 0x24E9 JUMP JUMPDEST CALLVALUE PUSH1 0x0 PUSH2 0x25F1 DUP3 PUSH2 0x406E JUMP JUMPDEST SWAP1 POP PUSH2 0x25FE PUSH1 0xCC SLOAD PUSH2 0x3FD8 JUMP JUMPDEST DUP3 LT ISZERO PUSH2 0x264D JUMPI PUSH1 0x40 MLOAD PUSH3 0x461BCD PUSH1 0xE5 SHL DUP2 MSTORE PUSH1 0x20 PUSH1 0x4 DUP3 ADD MSTORE PUSH1 0x1F PUSH1 0x24 DUP3 ADD MSTORE PUSH32 0x56616C75652073686F756C6420626520677265617465207468656E2031303000 PUSH1 0x44 DUP3 ADD MSTORE PUSH1 0x64 ADD PUSH2 0xF1B JUMP JUMPDEST PUSH1 0xCF SLOAD CALLER SWAP1 TIMESTAMP SWAP1 PUSH1 0x0 SWAP1 PUSH2 0x266F SWAP1 PUSH1 0x1 PUSH1 0x20 SHL SWAP1 DIV PUSH4 0xFFFFFFFF AND PUSH1 0x1 PUSH2 0x5B6E JUMP JUMPDEST PUSH1 0xCF SLOAD SWAP1 SWAP2 POP PUSH1 0x0 SWAP1 PUSH2 0x2690 SWAP1 PUSH1 0x1 PUSH1 0x40 SHL SWAP1 DIV PUSH4 0xFFFFFFFF AND PUSH1 0x1 PUSH2 0x5B6E JUMP JUMPDEST PUSH1 0x1 PUSH1 0x1 PUSH1 0xA0 SHL SUB DUP6 AND PUSH1 0x0 SWAP1 DUP2 MSTORE PUSH1 0xD8 PUSH1 0x20 MSTORE PUSH1 0x40 SWAP1 KECCAK256 PUSH1 0xD2 SLOAD SWAP2 SWAP3 POP SWAP1 PUSH1 0xFF AND ISZERO PUSH2 0x26C3 JUMPI PUSH2 0x26C3 DUP4 DUP4 DUP9 DUP8 PUSH2 0x40FB JUMP JUMPDEST PUSH2 0x26EA DUP4 DUP10 DUP8 DUP10 PUSH2 0x26D5 DUP2 PUSH1 0x3 PUSH2 0x5AEA JUMP JUMPDEST PUSH1 0xCB SLOAD DUP11 SWAP1 DUP2 SWAP1 PUSH3 0x10000 SWAP1 DIV PUSH1 0xFF AND PUSH2 0x4436 JUMP JUMPDEST PUSH1 0x1 SWAP1 DUP2 ADD DUP1 SLOAD SWAP2 DUP3 ADD DUP2 SSTORE PUSH1 0x0 SWAP1 DUP2 MSTORE PUSH1 0x20 SWAP1 KECCAK256 PUSH1 0x8 DUP3 DIV ADD DUP1 SLOAD PUSH1 0x7 SWAP1 SWAP3 AND PUSH1 0x4 MUL PUSH2 0x100 EXP PUSH4 0xFFFFFFFF DUP2 DUP2 MUL NOT SWAP1 SWAP4 AND SWAP5 SWAP1 SWAP3 AND SWAP2 SWAP1 SWAP2 MUL SWAP3 SWAP1 SWAP3 OR SWAP1 SWAP2 SSTORE POP POP POP POP POP POP JUMP JUMPDEST PUSH4 0xFFFFFFFF DUP2 AND PUSH1 0x0 SWAP1 DUP2 MSTORE PUSH1 0xD9 PUSH1 0x20 SWAP1 DUP2 MSTORE PUSH1 0x40 DUP1 DUP4 KECCAK256 PUSH1 0x6 ADD DUP1 SLOAD DUP3 MLOAD DUP2 DUP6 MUL DUP2 ADD DUP6 ADD SWAP1 SWAP4 MSTORE DUP1 DUP4 MSTORE DUP5 SWAP4 DUP4 ADD DUP3 DUP3 DUP1 ISZERO PUSH2 0x27BE JUMPI PUSH1 0x20 MUL DUP3 ADD SWAP2 SWAP1 PUSH1 0x0 MSTORE PUSH1 0x20 PUSH1 0x0 KECCAK256 SWAP1 PUSH1 0x0 SWAP1 JUMPDEST DUP3 DUP3 SWAP1 SLOAD SWAP1 PUSH2 0x100 EXP SWAP1 DIV PUSH4 0xFFFFFFFF AND PUSH4 0xFFFFFFFF AND DUP2 MSTORE PUSH1 0x20 ADD SWAP1 PUSH1 0x4 ADD SWAP1 PUSH1 0x20 DUP3 PUSH1 0x3 ADD DIV SWAP3 DUP4 ADD SWAP3 PUSH1 0x1 SUB DUP3 MUL SWAP2 POP DUP1 DUP5 GT PUSH2 0x2781 JUMPI SWAP1 POP JUMPDEST POP POP POP POP POP SWAP1 POP PUSH1 0x0 DUP1 JUMPDEST DUP3 MLOAD DUP2 PUSH2 0xFFFF AND LT ISZERO PUSH2 0x2844 JUMPI PUSH1 0x0 PUSH1 0xDA PUSH1 0x0 DUP6 DUP5 PUSH2 0xFFFF AND DUP2 MLOAD DUP2 LT PUSH2 0x27F2 JUMPI PUSH2 0x27F2 PUSH2 0x5A96 JUMP JUMPDEST PUSH1 0x20 SWAP1 DUP2 MUL SWAP2 SWAP1 SWAP2 ADD DUP2 ADD MLOAD PUSH4 0xFFFFFFFF AND DUP3 MSTORE DUP2 ADD SWAP2 SWAP1 SWAP2 MSTORE PUSH1 0x40 ADD PUSH1 0x0 KECCAK256 DUP1 SLOAD SWAP1 SWAP2 POP PUSH1 0xFF AND ISZERO PUSH2 0x2831 JUMPI PUSH1 0x1 DUP2 ADD SLOAD PUSH2 0x282E SWAP1 DUP5 PUSH2 0x5B23 JUMP JUMPDEST SWAP3 POP JUMPDEST POP DUP1 PUSH2 0x283C DUP2 PUSH2 0x5AAC JUMP JUMPDEST SWAP2 POP POP PUSH2 0x27C9 JUMP JUMPDEST POP SWAP4 SWAP3 POP POP POP JUMP JUMPDEST PUSH2 0x2854 PUSH2 0x2F2B JUMP JUMPDEST PUSH1 0x1 PUSH1 0x1 PUSH1 0xA0 SHL SUB DUP2 AND PUSH2 0x28B9 JUMPI PUSH1 0x40 MLOAD PUSH3 0x461BCD PUSH1 0xE5 SHL DUP2 MSTORE PUSH1 0x20 PUSH1 0x4 DUP3 ADD MSTORE PUSH1 0x26 PUSH1 0x24 DUP3 ADD MSTORE PUSH32 0x4F776E61626C653A206E6577206F776E657220697320746865207A65726F2061 PUSH1 0x44 DUP3 ADD MSTORE PUSH6 0x646472657373 PUSH1 0xD0 SHL PUSH1 0x64 DUP3 ADD MSTORE PUSH1 0x84 ADD PUSH2 0xF1B JUMP JUMPDEST PUSH2 0xED0 DUP2 PUSH2 0x3114 JUMP JUMPDEST PUSH4 0xFFFFFFFF DUP3 AND PUSH1 0x0 SWAP1 DUP2 MSTORE PUSH1 0xD9 PUSH1 0x20 MSTORE PUSH1 0x40 SWAP1 KECCAK256 PUSH1 0x2 DUP2 ADD SLOAD PUSH1 0xFF AND ISZERO PUSH2 0x291F JUMPI PUSH1 0x40 MLOAD PUSH3 0x461BCD PUSH1 0xE5 SHL DUP2 MSTORE PUSH1 0x20 PUSH1 0x4 DUP3 ADD MSTORE PUSH1 0x10 PUSH1 0x24 DUP3 ADD MSTORE PUSH16 0x4944206973206E6F7420616374697665 PUSH1 0x80 SHL PUSH1 0x44 DUP3 ADD MSTORE PUSH1 0x64 ADD PUSH2 0xF1B JUMP JUMPDEST PUSH1 0x2 DUP2 ADD SLOAD PUSH2 0x100 SWAP1 DIV PUSH1 0x1 PUSH1 0x1 PUSH1 0xA0 SHL SUB AND CALLER EQ PUSH2 0x2950 JUMPI PUSH1 0x40 MLOAD PUSH3 0x461BCD PUSH1 0xE5 SHL DUP2 MSTORE PUSH1 0x4 ADD PUSH2 0xF1B SWAP1 PUSH2 0x5B92 JUMP JUMPDEST PUSH1 0x0 PUSH2 0x295B DUP3 PUSH2 0x4930 JUMP JUMPDEST PUSH1 0x17 DUP4 ADD SLOAD SWAP1 SWAP2 POP PUSH2 0x296D DUP2 DUP4 PUSH2 0x58E6 JUMP JUMPDEST DUP5 GT ISZERO PUSH2 0x29CF JUMPI PUSH1 0x40 MLOAD PUSH3 0x461BCD PUSH1 0xE5 SHL DUP2 MSTORE PUSH1 0x20 PUSH1 0x4 DUP3 ADD MSTORE PUSH1 0x2A PUSH1 0x24 DUP3 ADD MSTORE PUSH32 0x506C6561736520656E7465722076616C7565206C657373207468656E20796F75 PUSH1 0x44 DUP3 ADD MSTORE PUSH10 0x39103130B630B731B297 PUSH1 0xB1 SHL PUSH1 0x64 DUP3 ADD MSTORE PUSH1 0x84 ADD PUSH2 0xF1B JUMP JUMPDEST DUP4 DUP4 PUSH1 0x17 ADD PUSH1 0x0 DUP3 DUP3 SLOAD PUSH2 0x29E3 SWAP2 SWAP1 PUSH2 0x5B23 JUMP JUMPDEST SWAP1 SWAP2 SSTORE POP POP PUSH1 0x40 MLOAD CALLER SWAP1 DUP6 ISZERO PUSH2 0x8FC MUL SWAP1 DUP7 SWAP1 PUSH1 0x0 DUP2 DUP2 DUP2 DUP6 DUP9 DUP9 CALL SWAP4 POP POP POP POP ISZERO DUP1 ISZERO PUSH2 0x2A15 JUMPI RETURNDATASIZE PUSH1 0x0 DUP1 RETURNDATACOPY RETURNDATASIZE PUSH1 0x0 REVERT JUMPDEST POP DUP3 PUSH1 0x19 ADD SLOAD PUSH2 0x2210 DUP5 PUSH2 0x4930 JUMP JUMPDEST PUSH2 0x2B19 PUSH1 0x40 MLOAD DUP1 PUSH2 0x3A0 ADD PUSH1 0x40 MSTORE DUP1 PUSH1 0x0 PUSH4 0xFFFFFFFF AND DUP2 MSTORE PUSH1 0x20 ADD PUSH1 0x60 DUP2 MSTORE PUSH1 0x20 ADD PUSH1 0x0 ISZERO ISZERO DUP2 MSTORE PUSH1 0x20 ADD PUSH1 0x0 PUSH1 0x1 PUSH1 0x1 PUSH1 0xA0 SHL SUB AND DUP2 MSTORE PUSH1 0x20 ADD PUSH1 0x0 DUP2 MSTORE PUSH1 0x20 ADD PUSH1 0x0 DUP2 MSTORE PUSH1 0x20 ADD PUSH1 0x0 DUP2 MSTORE PUSH1 0x20 ADD PUSH1 0x60 DUP2 MSTORE PUSH1 0x20 ADD PUSH1 0x0 PUSH4 0xFFFFFFFF AND DUP2 MSTORE PUSH1 0x20 ADD PUSH1 0x60 DUP2 MSTORE PUSH1 0x20 ADD PUSH1 0x60 DUP2 MSTORE PUSH1 0x20 ADD PUSH1 0x0 DUP2 MSTORE PUSH1 0x20 ADD PUSH1 0x0 DUP2 MSTORE PUSH1 0x20 ADD PUSH1 0x0 DUP2 MSTORE PUSH1 0x20 ADD PUSH1 0x0 DUP2 MSTORE PUSH1 0x20 ADD PUSH1 0x0 DUP2 MSTORE PUSH1 0x20 ADD PUSH1 0x0 DUP2 MSTORE PUSH1 0x20 ADD PUSH1 0x0 DUP2 MSTORE PUSH1 0x20 ADD PUSH1 0x0 DUP2 MSTORE PUSH1 0x20 ADD PUSH1 0x0 PUSH1 0xFF AND DUP2 MSTORE PUSH1 0x20 ADD PUSH1 0x0 DUP2 MSTORE PUSH1 0x20 ADD PUSH1 0x0 DUP2 MSTORE PUSH1 0x20 ADD PUSH1 0x0 DUP2 MSTORE PUSH1 0x20 ADD PUSH1 0x0 DUP2 MSTORE PUSH1 0x20 ADD PUSH1 0x0 DUP2 MSTORE PUSH1 0x20 ADD PUSH1 0x0 DUP2 MSTORE PUSH1 0x20 ADD PUSH1 0x0 DUP2 MSTORE PUSH1 0x20 ADD PUSH1 0x0 DUP2 MSTORE PUSH1 0x20 ADD PUSH1 0x0 DUP2 MSTORE POP SWAP1 JUMP JUMPDEST PUSH4 0xFFFFFFFF DUP1 DUP4 AND PUSH1 0x0 SWAP1 DUP2 MSTORE PUSH1 0xD9 PUSH1 0x20 SWAP1 DUP2 MSTORE PUSH1 0x40 SWAP2 DUP3 SWAP1 KECCAK256 DUP3 MLOAD PUSH2 0x3A0 DUP2 ADD SWAP1 SWAP4 MSTORE DUP1 SLOAD SWAP1 SWAP4 AND DUP3 MSTORE PUSH1 0x1 DUP4 ADD DUP1 SLOAD SWAP3 SWAP4 SWAP3 SWAP2 DUP5 ADD SWAP2 PUSH2 0x2B5A SWAP1 PUSH2 0x589C JUMP JUMPDEST DUP1 PUSH1 0x1F ADD PUSH1 0x20 DUP1 SWAP2 DIV MUL PUSH1 0x20 ADD PUSH1 0x40 MLOAD SWAP1 DUP2 ADD PUSH1 0x40 MSTORE DUP1 SWAP3 SWAP2 SWAP1 DUP2 DUP2 MSTORE PUSH1 0x20 ADD DUP3 DUP1 SLOAD PUSH2 0x2B86 SWAP1 PUSH2 0x589C JUMP JUMPDEST DUP1 ISZERO PUSH2 0x2BD3 JUMPI DUP1 PUSH1 0x1F LT PUSH2 0x2BA8 JUMPI PUSH2 0x100 DUP1 DUP4 SLOAD DIV MUL DUP4 MSTORE SWAP2 PUSH1 0x20 ADD SWAP2 PUSH2 0x2BD3 JUMP JUMPDEST DUP3 ADD SWAP2 SWAP1 PUSH1 0x0 MSTORE PUSH1 0x20 PUSH1 0x0 KECCAK256 SWAP1 JUMPDEST DUP2 SLOAD DUP2 MSTORE SWAP1 PUSH1 0x1 ADD SWAP1 PUSH1 0x20 ADD DUP1 DUP4 GT PUSH2 0x2BB6 JUMPI DUP3 SWAP1 SUB PUSH1 0x1F AND DUP3 ADD SWAP2 JUMPDEST POP POP POP SWAP2 DUP4 MSTORE POP POP PUSH1 0x2 DUP3 ADD SLOAD PUSH1 0xFF DUP2 AND ISZERO ISZERO PUSH1 0x20 DUP1 DUP5 ADD SWAP2 SWAP1 SWAP2 MSTORE PUSH2 0x100 SWAP1 SWAP2 DIV PUSH1 0x1 PUSH1 0x1 PUSH1 0xA0 SHL SUB AND PUSH1 0x40 DUP1 DUP5 ADD SWAP2 SWAP1 SWAP2 MSTORE PUSH1 0x3 DUP5 ADD SLOAD PUSH1 0x60 DUP5 ADD MSTORE PUSH1 0x4 DUP5 ADD SLOAD PUSH1 0x80 DUP5 ADD MSTORE PUSH1 0x5 DUP5 ADD SLOAD PUSH1 0xA0 DUP5 ADD MSTORE PUSH1 0x6 DUP5 ADD DUP1 SLOAD DUP3 MLOAD DUP2 DUP6 MUL DUP2 ADD DUP6 ADD SWAP1 SWAP4 MSTORE DUP1 DUP4 MSTORE PUSH1 0xC0 SWAP1 SWAP5 ADD SWAP4 SWAP2 SWAP3 SWAP1 SWAP2 SWAP1 DUP4 ADD DUP3 DUP3 DUP1 ISZERO PUSH2 0x2CA0 JUMPI PUSH1 0x20 MUL DUP3 ADD SWAP2 SWAP1 PUSH1 0x0 MSTORE PUSH1 0x20 PUSH1 0x0 KECCAK256 SWAP1 PUSH1 0x0 SWAP1 JUMPDEST DUP3 DUP3 SWAP1 SLOAD SWAP1 PUSH2 0x100 EXP SWAP1 DIV PUSH4 0xFFFFFFFF AND PUSH4 0xFFFFFFFF AND DUP2 MSTORE PUSH1 0x20 ADD SWAP1 PUSH1 0x4 ADD SWAP1 PUSH1 0x20 DUP3 PUSH1 0x3 ADD DIV SWAP3 DUP4 ADD SWAP3 PUSH1 0x1 SUB DUP3 MUL SWAP2 POP DUP1 DUP5 GT PUSH2 0x2C63 JUMPI SWAP1 POP JUMPDEST POP POP POP SWAP2 DUP4 MSTORE POP POP PUSH1 0x7 DUP3 ADD SLOAD PUSH4 0xFFFFFFFF AND PUSH1 0x20 DUP1 DUP4 ADD SWAP2 SWAP1 SWAP2 MSTORE PUSH1 0x8 DUP4 ADD DUP1 SLOAD PUSH1 0x40 DUP1 MLOAD DUP3 DUP6 MUL DUP2 ADD DUP6 ADD DUP3 MSTORE DUP3 DUP2 MSTORE SWAP5 ADD SWAP4 SWAP3 DUP4 ADD DUP3 DUP3 DUP1 ISZERO PUSH2 0x2D31 JUMPI PUSH1 0x20 MUL DUP3 ADD SWAP2 SWAP1 PUSH1 0x0 MSTORE PUSH1 0x20 PUSH1 0x0 KECCAK256 SWAP1 PUSH1 0x0 SWAP1 JUMPDEST DUP3 DUP3 SWAP1 SLOAD SWAP1 PUSH2 0x100 EXP SWAP1 DIV PUSH4 0xFFFFFFFF AND PUSH4 0xFFFFFFFF AND DUP2 MSTORE PUSH1 0x20 ADD SWAP1 PUSH1 0x4 ADD SWAP1 PUSH1 0x20 DUP3 PUSH1 0x3 ADD DIV SWAP3 DUP4 ADD SWAP3 PUSH1 0x1 SUB DUP3 MUL SWAP2 POP DUP1 DUP5 GT PUSH2 0x2CF4 JUMPI SWAP1 POP JUMPDEST POP POP POP POP POP DUP2 MSTORE PUSH1 0x20 ADD PUSH1 0x9 DUP3 ADD DUP1 SLOAD DUP1 PUSH1 0x20 MUL PUSH1 0x20 ADD PUSH1 0x40 MLOAD SWAP1 DUP2 ADD PUSH1 0x40 MSTORE DUP1 SWAP3 SWAP2 SWAP1 DUP2 DUP2 MSTORE PUSH1 0x20 ADD DUP3 DUP1 SLOAD DUP1 ISZERO PUSH2 0x2DB5 JUMPI PUSH1 0x20 MUL DUP3 ADD SWAP2 SWAP1 PUSH1 0x0 MSTORE PUSH1 0x20 PUSH1 0x0 KECCAK256 SWAP1 PUSH1 0x0 SWAP1 JUMPDEST DUP3 DUP3 SWAP1 SLOAD SWAP1 PUSH2 0x100 EXP SWAP1 DIV PUSH4 0xFFFFFFFF AND PUSH4 0xFFFFFFFF AND DUP2 MSTORE PUSH1 0x20 ADD SWAP1 PUSH1 0x4 ADD SWAP1 PUSH1 0x20 DUP3 PUSH1 0x3 ADD DIV SWAP3 DUP4 ADD SWAP3 PUSH1 0x1 SUB DUP3 MUL SWAP2 POP DUP1 DUP5 GT PUSH2 0x2D78 JUMPI SWAP1 POP JUMPDEST POP POP POP SWAP2 DUP4 MSTORE POP POP PUSH1 0xA DUP3 ADD SLOAD PUSH1 0x20 DUP3 ADD MSTORE PUSH1 0xB DUP3 ADD SLOAD PUSH1 0x40 DUP3 ADD MSTORE PUSH1 0xC DUP3 ADD SLOAD PUSH1 0x60 DUP3 ADD MSTORE PUSH1 0xD DUP3 ADD SLOAD PUSH1 0x80 DUP3 ADD MSTORE PUSH1 0xE DUP3 ADD SLOAD PUSH1 0xA0 DUP3 ADD MSTORE PUSH1 0xF DUP3 ADD SLOAD PUSH1 0xC0 DUP3 ADD MSTORE PUSH1 0x10 DUP3 ADD SLOAD PUSH1 0xE0 DUP3 ADD MSTORE PUSH1 0x11 DUP3 ADD SLOAD PUSH2 0x100 DUP3 ADD MSTORE PUSH1 0x12 DUP3 ADD SLOAD PUSH1 0xFF AND PUSH2 0x120 DUP3 ADD MSTORE PUSH1 0x13 DUP3 ADD SLOAD PUSH2 0x140 DUP3 ADD MSTORE PUSH1 0x14 DUP3 ADD SLOAD PUSH2 0x160 DUP3 ADD MSTORE PUSH1 0x15 DUP3 ADD SLOAD PUSH2 0x180 DUP3 ADD MSTORE PUSH1 0x16 DUP3 ADD SLOAD PUSH2 0x1A0 DUP3 ADD MSTORE PUSH1 0x17 DUP3 ADD SLOAD PUSH2 0x1C0 DUP3 ADD MSTORE PUSH1 0x18 DUP3 ADD SLOAD PUSH2 0x1E0 DUP3 ADD MSTORE PUSH1 0x19 DUP3 ADD SLOAD PUSH2 0x200 DUP3 ADD MSTORE PUSH1 0x1A DUP3 ADD SLOAD PUSH2 0x220 DUP3 ADD MSTORE PUSH1 0x1B SWAP1 SWAP2 ADD SLOAD PUSH2 0x240 SWAP1 SWAP2 ADD MSTORE SWAP3 SWAP2 POP POP JUMP JUMPDEST PUSH1 0x40 DUP1 MLOAD DUP1 DUP3 ADD SWAP1 SWAP2 MSTORE PUSH1 0x0 DUP2 MSTORE PUSH1 0x60 PUSH1 0x20 DUP3 ADD MSTORE PUSH1 0x1 PUSH1 0x1 PUSH1 0xA0 SHL SUB DUP3 AND PUSH1 0x0 SWAP1 DUP2 MSTORE PUSH1 0xD8 PUSH1 0x20 SWAP1 DUP2 MSTORE PUSH1 0x40 SWAP2 DUP3 SWAP1 KECCAK256 DUP3 MLOAD DUP1 DUP5 ADD DUP5 MSTORE DUP2 SLOAD PUSH1 0xFF AND ISZERO ISZERO DUP2 MSTORE PUSH1 0x1 DUP3 ADD DUP1 SLOAD DUP6 MLOAD DUP2 DUP7 MUL DUP2 ADD DUP7 ADD SWAP1 SWAP7 MSTORE DUP1 DUP7 MSTORE SWAP2 SWAP5 SWAP3 SWAP4 DUP6 DUP2 ADD SWAP4 SWAP3 SWAP1 DUP4 ADD DUP3 DUP3 DUP1 ISZERO PUSH2 0x1658 JUMPI PUSH1 0x0 SWAP2 DUP3 MSTORE PUSH1 0x20 SWAP2 DUP3 SWAP1 KECCAK256 DUP1 SLOAD PUSH4 0xFFFFFFFF AND DUP5 MSTORE SWAP1 DUP3 MUL DUP4 ADD SWAP3 SWAP1 SWAP2 PUSH1 0x4 SWAP2 ADD DUP1 DUP5 GT PUSH2 0x161B JUMPI SWAP1 POP POP POP POP POP POP DUP2 MSTORE POP POP SWAP1 POP SWAP2 SWAP1 POP JUMP JUMPDEST PUSH1 0x33 SLOAD PUSH1 0x1 PUSH1 0x1 PUSH1 0xA0 SHL SUB AND CALLER EQ PUSH2 0x13F0 JUMPI PUSH1 0x40 MLOAD PUSH3 0x461BCD PUSH1 0xE5 SHL DUP2 MSTORE PUSH1 0x20 PUSH1 0x4 DUP3 ADD DUP2 SWAP1 MSTORE PUSH1 0x24 DUP3 ADD MSTORE PUSH32 0x4F776E61626C653A2063616C6C6572206973206E6F7420746865206F776E6572 PUSH1 0x44 DUP3 ADD MSTORE PUSH1 0x64 ADD PUSH2 0xF1B JUMP JUMPDEST PUSH1 0x0 DUP1 MLOAD PUSH1 0x20 PUSH2 0x5C8C DUP4 CODECOPY DUP2 MLOAD SWAP2 MSTORE SLOAD PUSH1 0x1 PUSH1 0x1 PUSH1 0xA0 SHL SUB AND SWAP1 JUMP JUMPDEST PUSH2 0xED0 PUSH2 0x2F2B JUMP JUMPDEST PUSH32 0x4910FDFA16FED3260ED0E7147F7CC6DA11A60208B5B9406D12A635614FFD9143 SLOAD PUSH1 0xFF AND ISZERO PUSH2 0x2FDC JUMPI PUSH2 0xAB7 DUP4 PUSH2 0x4958 JUMP JUMPDEST DUP3 PUSH1 0x1 PUSH1 0x1 PUSH1 0xA0 SHL SUB AND PUSH4 0x52D1902D PUSH1 0x40 MLOAD DUP2 PUSH4 0xFFFFFFFF AND PUSH1 0xE0 SHL DUP2 MSTORE PUSH1 0x4 ADD PUSH1 0x20 PUSH1 0x40 MLOAD DUP1 DUP4 SUB DUP2 DUP7 GAS STATICCALL SWAP3 POP POP POP DUP1 ISZERO PUSH2 0x3036 JUMPI POP PUSH1 0x40 DUP1 MLOAD PUSH1 0x1F RETURNDATASIZE SWAP1 DUP2 ADD PUSH1 0x1F NOT AND DUP3 ADD SWAP1 SWAP3 MSTORE PUSH2 0x3033 SWAP2 DUP2 ADD SWAP1 PUSH2 0x5BF8 JUMP JUMPDEST PUSH1 0x1 JUMPDEST PUSH2 0x3099 JUMPI PUSH1 0x40 MLOAD PUSH3 0x461BCD PUSH1 0xE5 SHL DUP2 MSTORE PUSH1 0x20 PUSH1 0x4 DUP3 ADD MSTORE PUSH1 0x2E PUSH1 0x24 DUP3 ADD MSTORE PUSH32 0x45524331393637557067726164653A206E657720696D706C656D656E74617469 PUSH1 0x44 DUP3 ADD MSTORE PUSH14 0x6F6E206973206E6F742055555053 PUSH1 0x90 SHL PUSH1 0x64 DUP3 ADD MSTORE PUSH1 0x84 ADD PUSH2 0xF1B JUMP JUMPDEST PUSH1 0x0 DUP1 MLOAD PUSH1 0x20 PUSH2 0x5C8C DUP4 CODECOPY DUP2 MLOAD SWAP2 MSTORE DUP2 EQ PUSH2 0x3108 JUMPI PUSH1 0x40 MLOAD PUSH3 0x461BCD PUSH1 0xE5 SHL DUP2 MSTORE PUSH1 0x20 PUSH1 0x4 DUP3 ADD MSTORE PUSH1 0x29 PUSH1 0x24 DUP3 ADD MSTORE PUSH32 0x45524331393637557067726164653A20756E737570706F727465642070726F78 PUSH1 0x44 DUP3 ADD MSTORE PUSH9 0x1A58589B1955555251 PUSH1 0xBA SHL PUSH1 0x64 DUP3 ADD MSTORE PUSH1 0x84 ADD PUSH2 0xF1B JUMP JUMPDEST POP PUSH2 0xAB7 DUP4 DUP4 DUP4 PUSH2 0x49F2 JUMP JUMPDEST PUSH1 0x33 DUP1 SLOAD PUSH1 0x1 PUSH1 0x1 PUSH1 0xA0 SHL SUB DUP4 DUP2 AND PUSH1 0x1 PUSH1 0x1 PUSH1 0xA0 SHL SUB NOT DUP4 AND DUP2 OR SWAP1 SWAP4 SSTORE PUSH1 0x40 MLOAD SWAP2 AND SWAP2 SWAP1 DUP3 SWAP1 PUSH32 0x8BE0079C531659141344CD1FD0A4F28419497F9722A3DAAFE3B4186F6B6457E0 SWAP1 PUSH1 0x0 SWAP1 LOG3 POP POP JUMP JUMPDEST PUSH4 0xFFFFFFFF DUP1 DUP3 AND PUSH1 0x0 SWAP1 DUP2 MSTORE PUSH1 0xD9 PUSH1 0x20 SWAP1 DUP2 MSTORE PUSH1 0x40 DUP1 DUP4 KECCAK256 DUP2 MLOAD PUSH2 0x3A0 DUP2 ADD SWAP1 SWAP3 MSTORE DUP1 SLOAD SWAP1 SWAP5 AND DUP2 MSTORE PUSH1 0x1 DUP5 ADD DUP1 SLOAD SWAP4 SWAP5 DUP6 SWAP5 SWAP3 SWAP4 SWAP1 SWAP3 SWAP1 DUP5 ADD SWAP2 SWAP1 PUSH2 0x31AC SWAP1 PUSH2 0x589C JUMP JUMPDEST DUP1 PUSH1 0x1F ADD PUSH1 0x20 DUP1 SWAP2 DIV MUL PUSH1 0x20 ADD PUSH1 0x40 MLOAD SWAP1 DUP2 ADD PUSH1 0x40 MSTORE DUP1 SWAP3 SWAP2 SWAP1 DUP2 DUP2 MSTORE PUSH1 0x20 ADD DUP3 DUP1 SLOAD PUSH2 0x31D8 SWAP1 PUSH2 0x589C JUMP JUMPDEST DUP1 ISZERO PUSH2 0x3225 JUMPI DUP1 PUSH1 0x1F LT PUSH2 0x31FA JUMPI PUSH2 0x100 DUP1 DUP4 SLOAD DIV MUL DUP4 MSTORE SWAP2 PUSH1 0x20 ADD SWAP2 PUSH2 0x3225 JUMP JUMPDEST DUP3 ADD SWAP2 SWAP1 PUSH1 0x0 MSTORE PUSH1 0x20 PUSH1 0x0 KECCAK256 SWAP1 JUMPDEST DUP2 SLOAD DUP2 MSTORE SWAP1 PUSH1 0x1 ADD SWAP1 PUSH1 0x20 ADD DUP1 DUP4 GT PUSH2 0x3208 JUMPI DUP3 SWAP1 SUB PUSH1 0x1F AND DUP3 ADD SWAP2 JUMPDEST POP POP POP SWAP2 DUP4 MSTORE POP POP PUSH1 0x2 DUP3 ADD SLOAD PUSH1 0xFF DUP2 AND ISZERO ISZERO PUSH1 0x20 DUP1 DUP5 ADD SWAP2 SWAP1 SWAP2 MSTORE PUSH2 0x100 SWAP1 SWAP2 DIV PUSH1 0x1 PUSH1 0x1 PUSH1 0xA0 SHL SUB AND PUSH1 0x40 DUP1 DUP5 ADD SWAP2 SWAP1 SWAP2 MSTORE PUSH1 0x3 DUP5 ADD SLOAD PUSH1 0x60 DUP5 ADD MSTORE PUSH1 0x4 DUP5 ADD SLOAD PUSH1 0x80 DUP5 ADD MSTORE PUSH1 0x5 DUP5 ADD SLOAD PUSH1 0xA0 DUP5 ADD MSTORE PUSH1 0x6 DUP5 ADD DUP1 SLOAD DUP3 MLOAD DUP2 DUP6 MUL DUP2 ADD DUP6 ADD SWAP1 SWAP4 MSTORE DUP1 DUP4 MSTORE PUSH1 0xC0 SWAP1 SWAP5 ADD SWAP4 SWAP2 SWAP3 SWAP1 SWAP2 SWAP1 DUP4 ADD DUP3 DUP3 DUP1 ISZERO PUSH2 0x32F2 JUMPI PUSH1 0x20 MUL DUP3 ADD SWAP2 SWAP1 PUSH1 0x0 MSTORE PUSH1 0x20 PUSH1 0x0 KECCAK256 SWAP1 PUSH1 0x0 SWAP1 JUMPDEST DUP3 DUP3 SWAP1 SLOAD SWAP1 PUSH2 0x100 EXP SWAP1 DIV PUSH4 0xFFFFFFFF AND PUSH4 0xFFFFFFFF AND DUP2 MSTORE PUSH1 0x20 ADD SWAP1 PUSH1 0x4 ADD SWAP1 PUSH1 0x20 DUP3 PUSH1 0x3 ADD DIV SWAP3 DUP4 ADD SWAP3 PUSH1 0x1 SUB DUP3 MUL SWAP2 POP DUP1 DUP5 GT PUSH2 0x32B5 JUMPI SWAP1 POP JUMPDEST POP POP POP SWAP2 DUP4 MSTORE POP POP PUSH1 0x7 DUP3 ADD SLOAD PUSH4 0xFFFFFFFF AND PUSH1 0x20 DUP1 DUP4 ADD SWAP2 SWAP1 SWAP2 MSTORE PUSH1 0x8 DUP4 ADD DUP1 SLOAD PUSH1 0x40 DUP1 MLOAD DUP3 DUP6 MUL DUP2 ADD DUP6 ADD DUP3 MSTORE DUP3 DUP2 MSTORE SWAP5 ADD SWAP4 SWAP3 DUP4 ADD DUP3 DUP3 DUP1 ISZERO PUSH2 0x3383 JUMPI PUSH1 0x20 MUL DUP3 ADD SWAP2 SWAP1 PUSH1 0x0 MSTORE PUSH1 0x20 PUSH1 0x0 KECCAK256 SWAP1 PUSH1 0x0 SWAP1 JUMPDEST DUP3 DUP3 SWAP1 SLOAD SWAP1 PUSH2 0x100 EXP SWAP1 DIV PUSH4 0xFFFFFFFF AND PUSH4 0xFFFFFFFF AND DUP2 MSTORE PUSH1 0x20 ADD SWAP1 PUSH1 0x4 ADD SWAP1 PUSH1 0x20 DUP3 PUSH1 0x3 ADD DIV SWAP3 DUP4 ADD SWAP3 PUSH1 0x1 SUB DUP3 MUL SWAP2 POP DUP1 DUP5 GT PUSH2 0x3346 JUMPI SWAP1 POP JUMPDEST POP POP POP POP POP DUP2 MSTORE PUSH1 0x20 ADD PUSH1 0x9 DUP3 ADD DUP1 SLOAD DUP1 PUSH1 0x20 MUL PUSH1 0x20 ADD PUSH1 0x40 MLOAD SWAP1 DUP2 ADD PUSH1 0x40 MSTORE DUP1 SWAP3 SWAP2 SWAP1 DUP2 DUP2 MSTORE PUSH1 0x20 ADD DUP3 DUP1 SLOAD DUP1 ISZERO PUSH2 0x3407 JUMPI PUSH1 0x20 MUL DUP3 ADD SWAP2 SWAP1 PUSH1 0x0 MSTORE PUSH1 0x20 PUSH1 0x0 KECCAK256 SWAP1 PUSH1 0x0 SWAP1 JUMPDEST DUP3 DUP3 SWAP1 SLOAD SWAP1 PUSH2 0x100 EXP SWAP1 DIV PUSH4 0xFFFFFFFF AND PUSH4 0xFFFFFFFF AND DUP2 MSTORE PUSH1 0x20 ADD SWAP1 PUSH1 0x4 ADD SWAP1 PUSH1 0x20 DUP3 PUSH1 0x3 ADD DIV SWAP3 DUP4 ADD SWAP3 PUSH1 0x1 SUB DUP3 MUL SWAP2 POP DUP1 DUP5 GT PUSH2 0x33CA JUMPI SWAP1 POP JUMPDEST POP POP POP SWAP2 DUP4 MSTORE POP POP PUSH1 0xA DUP3 ADD SLOAD PUSH1 0x20 DUP3 ADD MSTORE PUSH1 0xB DUP3 ADD SLOAD PUSH1 0x40 DUP3 ADD MSTORE PUSH1 0xC DUP3 ADD SLOAD PUSH1 0x60 DUP3 ADD MSTORE PUSH1 0xD DUP3 ADD SLOAD PUSH1 0x80 DUP3 ADD MSTORE PUSH1 0xE DUP3 ADD SLOAD PUSH1 0xA0 DUP3 ADD MSTORE PUSH1 0xF DUP3 ADD SLOAD PUSH1 0xC0 DUP3 ADD MSTORE PUSH1 0x10 DUP3 ADD SLOAD PUSH1 0xE0 DUP3 ADD MSTORE PUSH1 0x11 DUP3 ADD SLOAD PUSH2 0x100 DUP3 ADD MSTORE PUSH1 0x12 DUP3 ADD SLOAD PUSH1 0xFF SWAP1 DUP2 AND PUSH2 0x120 DUP4 ADD MSTORE PUSH1 0x13 DUP4 ADD SLOAD PUSH2 0x140 DUP4 ADD MSTORE PUSH1 0x14 DUP4 ADD SLOAD PUSH2 0x160 DUP4 ADD MSTORE PUSH1 0x15 DUP4 ADD SLOAD PUSH2 0x180 DUP4 ADD MSTORE PUSH1 0x16 DUP4 ADD SLOAD PUSH2 0x1A0 DUP4 ADD MSTORE PUSH1 0x17 DUP4 ADD SLOAD PUSH2 0x1C0 DUP4 ADD MSTORE PUSH1 0x18 DUP4 ADD SLOAD PUSH2 0x1E0 DUP4 ADD MSTORE PUSH1 0x19 DUP4 ADD SLOAD PUSH2 0x200 DUP4 ADD MSTORE PUSH1 0x1A DUP4 ADD SLOAD PUSH2 0x220 DUP4 ADD MSTORE PUSH1 0x1B SWAP1 SWAP3 ADD SLOAD PUSH2 0x240 SWAP1 SWAP2 ADD MSTORE PUSH1 0xD7 SLOAD SWAP2 SWAP3 POP AND PUSH1 0x0 JUMPDEST DUP2 PUSH1 0xFF AND DUP2 PUSH1 0xFF AND LT ISZERO PUSH2 0x357B JUMPI PUSH1 0xFF DUP2 AND PUSH1 0x0 SWAP1 DUP2 MSTORE PUSH1 0xDB PUSH1 0x20 MSTORE PUSH1 0x40 SWAP1 KECCAK256 PUSH1 0x1 ADD SLOAD PUSH2 0x160 DUP5 ADD MLOAD LT DUP1 ISZERO SWAP1 PUSH2 0x3531 JUMPI POP PUSH1 0xFF DUP2 AND PUSH1 0x0 SWAP1 DUP2 MSTORE PUSH1 0xDB PUSH1 0x20 MSTORE PUSH1 0x40 SWAP1 KECCAK256 PUSH1 0x2 ADD SLOAD PUSH2 0x1A0 DUP5 ADD MLOAD LT ISZERO JUMPDEST DUP1 ISZERO PUSH2 0x3557 JUMPI POP PUSH1 0xFF DUP2 AND PUSH1 0x0 SWAP1 DUP2 MSTORE PUSH1 0xDB PUSH1 0x20 MSTORE PUSH1 0x40 SWAP1 KECCAK256 PUSH1 0x3 ADD SLOAD PUSH2 0x1E0 DUP5 ADD MLOAD LT ISZERO JUMPDEST ISZERO PUSH2 0x3564 JUMPI DUP1 SWAP4 POP PUSH2 0x3569 JUMP JUMPDEST PUSH2 0x357B JUMP JUMPDEST DUP1 PUSH2 0x3573 DUP2 PUSH2 0x5B4F JUMP JUMPDEST SWAP2 POP POP PUSH2 0x34DF JUMP JUMPDEST POP POP POP SWAP2 SWAP1 POP JUMP JUMPDEST PUSH1 0xD9 PUSH1 0x20 SWAP1 DUP2 MSTORE PUSH4 0xFFFFFFFF DUP3 AND PUSH1 0x0 SWAP1 DUP2 MSTORE PUSH1 0x40 DUP1 DUP3 KECCAK256 PUSH1 0x6 DUP2 ADD DUP1 SLOAD DUP4 MLOAD DUP2 DUP8 MUL DUP2 ADD DUP8 ADD SWAP1 SWAP5 MSTORE DUP1 DUP5 MSTORE SWAP4 SWAP5 PUSH32 0x665FECB6766038646257FB3193371280B91D4EE69F1071872C4C7B974431A488 SWAP5 SWAP3 SWAP4 DUP7 SWAP4 SWAP1 SWAP3 SWAP2 DUP4 ADD DUP3 DUP3 DUP1 ISZERO PUSH2 0x3636 JUMPI PUSH1 0x20 MUL DUP3 ADD SWAP2 SWAP1 PUSH1 0x0 MSTORE PUSH1 0x20 PUSH1 0x0 KECCAK256 SWAP1 PUSH1 0x0 SWAP1 JUMPDEST DUP3 DUP3 SWAP1 SLOAD SWAP1 PUSH2 0x100 EXP SWAP1 DIV PUSH4 0xFFFFFFFF AND PUSH4 0xFFFFFFFF AND DUP2 MSTORE PUSH1 0x20 ADD SWAP1 PUSH1 0x4 ADD SWAP1 PUSH1 0x20 DUP3 PUSH1 0x3 ADD DIV SWAP3 DUP4 ADD SWAP3 PUSH1 0x1 SUB DUP3 MUL SWAP2 POP DUP1 DUP5 GT PUSH2 0x35F9 JUMPI SWAP1 POP JUMPDEST POP POP POP POP POP SWAP1 POP PUSH1 0x0 DUP1 JUMPDEST DUP3 MLOAD DUP2 LT ISZERO PUSH2 0x36F6 JUMPI PUSH1 0x0 PUSH1 0xDA PUSH1 0x0 DUP6 DUP5 DUP2 MLOAD DUP2 LT PUSH2 0x3662 JUMPI PUSH2 0x3662 PUSH2 0x5A96 JUMP JUMPDEST PUSH1 0x20 MUL PUSH1 0x20 ADD ADD MLOAD PUSH4 0xFFFFFFFF AND PUSH4 0xFFFFFFFF AND DUP2 MSTORE PUSH1 0x20 ADD SWAP1 DUP2 MSTORE PUSH1 0x20 ADD PUSH1 0x0 KECCAK256 SWAP1 POP PUSH2 0x36A8 DUP5 DUP4 DUP2 MLOAD DUP2 LT PUSH2 0x369B JUMPI PUSH2 0x369B PUSH2 0x5A96 JUMP JUMPDEST PUSH1 0x20 MUL PUSH1 0x20 ADD ADD MLOAD PUSH2 0x4A1D JUMP JUMPDEST PUSH2 0x36B2 SWAP1 DUP5 PUSH2 0x5B23 JUMP JUMPDEST SWAP3 POP PUSH2 0x36C9 DUP5 DUP4 DUP2 MLOAD DUP2 LT PUSH2 0x369B JUMPI PUSH2 0x369B PUSH2 0x5A96 JUMP JUMPDEST DUP2 PUSH1 0x5 ADD PUSH1 0x0 DUP3 DUP3 SLOAD PUSH2 0x36DC SWAP2 SWAP1 PUSH2 0x5B23 JUMP JUMPDEST SWAP1 SWAP2 SSTORE POP DUP3 SWAP2 POP PUSH2 0x36EE SWAP1 POP DUP2 PUSH2 0x5BC9 JUMP JUMPDEST SWAP2 POP POP PUSH2 0x3641 JUMP JUMPDEST POP DUP3 PUSH1 0x19 ADD SLOAD DUP2 DUP5 PUSH1 0x18 ADD SLOAD PUSH2 0x370C SWAP2 SWAP1 PUSH2 0x5B23 JUMP JUMPDEST GT PUSH2 0x37A4 JUMPI DUP1 DUP4 PUSH1 0x18 ADD PUSH1 0x0 DUP3 DUP3 SLOAD PUSH2 0x3725 SWAP2 SWAP1 PUSH2 0x5B23 JUMP JUMPDEST SWAP3 POP POP DUP2 SWAP1 SSTORE POP DUP1 DUP4 PUSH1 0x1A ADD PUSH1 0x0 DUP3 DUP3 SLOAD PUSH2 0x3740 SWAP2 SWAP1 PUSH2 0x5B23 JUMP JUMPDEST SWAP1 SWAP2 SSTORE POP POP TIMESTAMP PUSH1 0x1B DUP5 ADD SSTORE PUSH1 0x18 DUP5 ADD DUP1 SLOAD DUP3 SWAP2 SWAP1 PUSH1 0x0 SWAP1 PUSH2 0x3762 SWAP1 DUP5 SWAP1 PUSH2 0x5B23 JUMP JUMPDEST SWAP1 SWAP2 SSTORE POP POP PUSH1 0x40 MLOAD SWAP1 SWAP5 POP DUP5 SWAP1 DUP2 SWAP1 PUSH4 0xFFFFFFFF DUP9 AND SWAP1 PUSH32 0x7CD8783637A6BF8D3B4B69973A28720CFB0F5ABC55D8B85DDE1732D8F22C0EFC SWAP1 PUSH1 0x0 SWAP1 LOG3 PUSH2 0x3848 JUMP JUMPDEST PUSH1 0x0 DUP4 PUSH1 0x18 ADD SLOAD DUP5 PUSH1 0x19 ADD SLOAD PUSH2 0x37BA SWAP2 SWAP1 PUSH2 0x58E6 JUMP JUMPDEST SWAP1 POP DUP1 DUP8 PUSH4 0xFFFFFFFF AND PUSH32 0x7CD8783637A6BF8D3B4B69973A28720CFB0F5ABC55D8B85DDE1732D8F22C0EFC PUSH1 0x40 MLOAD PUSH1 0x40 MLOAD DUP1 SWAP2 SUB SWAP1 LOG3 DUP4 PUSH1 0x19 ADD SLOAD DUP5 PUSH1 0x18 ADD DUP2 SWAP1 SSTORE POP DUP1 DUP5 PUSH1 0x1A ADD PUSH1 0x0 DUP3 DUP3 SLOAD PUSH2 0x3811 SWAP2 SWAP1 PUSH2 0x5B23 JUMP JUMPDEST SWAP1 SWAP2 SSTORE POP POP TIMESTAMP PUSH1 0x1B DUP6 ADD SSTORE PUSH1 0x18 DUP6 ADD DUP1 SLOAD DUP3 SWAP2 SWAP1 PUSH1 0x0 SWAP1 PUSH2 0x3833 SWAP1 DUP5 SWAP1 PUSH2 0x5B23 JUMP JUMPDEST SWAP3 POP POP DUP2 SWAP1 SSTORE POP DUP1 SWAP6 POP PUSH2 0x3846 DUP5 PUSH2 0x4AD3 JUMP JUMPDEST POP JUMPDEST POP POP POP POP SWAP2 SWAP1 POP JUMP JUMPDEST PUSH1 0x0 PUSH1 0xCA DUP1 SLOAD DUP1 PUSH1 0x20 MUL PUSH1 0x20 ADD PUSH1 0x40 MLOAD SWAP1 DUP2 ADD PUSH1 0x40 MSTORE DUP1 SWAP3 SWAP2 SWAP1 DUP2 DUP2 MSTORE PUSH1 0x20 ADD DUP3 DUP1 SLOAD DUP1 ISZERO PUSH2 0x38C7 JUMPI PUSH1 0x20 MUL DUP3 ADD SWAP2 SWAP1 PUSH1 0x0 MSTORE PUSH1 0x20 PUSH1 0x0 KECCAK256 SWAP1 PUSH1 0x0 SWAP1 JUMPDEST DUP3 DUP3 SWAP1 SLOAD SWAP1 PUSH2 0x100 EXP SWAP1 DIV PUSH2 0xFFFF AND PUSH2 0xFFFF AND DUP2 MSTORE PUSH1 0x20 ADD SWAP1 PUSH1 0x2 ADD SWAP1 PUSH1 0x20 DUP3 PUSH1 0x1 ADD DIV SWAP3 DUP4 ADD SWAP3 PUSH1 0x1 SUB DUP3 MUL SWAP2 POP DUP1 DUP5 GT PUSH2 0x388E JUMPI SWAP1 POP JUMPDEST POP POP DUP4 MLOAD PUSH4 0xFFFFFFFF DUP8 AND PUSH1 0x0 SWAP1 DUP2 MSTORE PUSH1 0xD9 PUSH1 0x20 MSTORE PUSH1 0x40 DUP2 KECCAK256 DUP2 DUP1 MSTORE SWAP6 SWAP7 POP SWAP1 SWAP5 SWAP4 POP PUSH32 0x665FECB6766038646257FB3193371280B91D4EE69F1071872C4C7B974431A488 SWAP3 POP SWAP1 POP DUP1 JUMPDEST DUP5 DUP2 LT ISZERO PUSH2 0x3F13 JUMPI PUSH1 0x7 DUP5 ADD SLOAD PUSH4 0xFFFFFFFF AND PUSH1 0x0 DUP2 DUP2 MSTORE PUSH1 0xD9 PUSH1 0x20 MSTORE PUSH1 0x40 SWAP1 KECCAK256 PUSH1 0x2 DUP2 ADD SLOAD PUSH2 0x100 SWAP1 DIV PUSH1 0x1 PUSH1 0x1 PUSH1 0xA0 SHL SUB AND PUSH2 0x3950 JUMPI POP POP PUSH2 0x3F13 JUMP JUMPDEST PUSH1 0x2 DUP2 ADD SLOAD PUSH1 0xFF AND ISZERO PUSH2 0x39CA JUMPI PUSH1 0x40 MLOAD PUSH19 0x5265666572657220697320496E616374697665 PUSH1 0x68 SHL DUP2 MSTORE PUSH1 0x13 ADD JUMPDEST PUSH1 0x40 MLOAD SWAP1 DUP2 SWAP1 SUB SWAP1 KECCAK256 PUSH2 0x3991 DUP5 PUSH1 0x1 PUSH2 0x5B23 JUMP JUMPDEST PUSH1 0x40 MLOAD PUSH4 0xFFFFFFFF DUP6 AND SWAP1 PUSH32 0x6BD4A1CB98FE02EDE79E45B5749C74FF512165C4FB80CE4045EEBEF0E4E867DC SWAP1 PUSH1 0x0 SWAP1 LOG4 POP PUSH2 0x3F01 SWAP1 POP JUMP JUMPDEST DUP1 PUSH1 0x19 ADD SLOAD DUP2 PUSH1 0x18 ADD SLOAD LT PUSH2 0x3AA5 JUMPI PUSH1 0x40 MLOAD PUSH32 0x5265616368656420746865206C696D69742E205265666572657220697320496E DUP2 MSTORE PUSH8 0x30B1BA34BB32971 PUSH1 0xC5 SHL PUSH1 0x20 DUP3 ADD MSTORE PUSH1 0x28 ADD PUSH1 0x40 MLOAD SWAP1 DUP2 SWAP1 SUB SWAP1 KECCAK256 PUSH2 0x3A27 DUP5 PUSH1 0x1 PUSH2 0x5B23 JUMP JUMPDEST PUSH1 0x40 MLOAD PUSH4 0xFFFFFFFF DUP6 AND SWAP1 PUSH32 0x6BD4A1CB98FE02EDE79E45B5749C74FF512165C4FB80CE4045EEBEF0E4E867DC SWAP1 PUSH1 0x0 SWAP1 LOG4 PUSH2 0x3A61 DUP2 PUSH2 0x4BFB JUMP JUMPDEST DUP1 SLOAD PUSH1 0x40 MLOAD PUSH4 0xFFFFFFFF SWAP1 SWAP2 AND DUP2 MSTORE PUSH32 0xD13A3FE87E20364852910EF677DF51F59E843DF0DC53FA5449ACDE0AF7EC822D SWAP1 PUSH1 0x20 ADD PUSH1 0x40 MLOAD DUP1 SWAP2 SUB SWAP1 LOG1 POP PUSH2 0x3F01 SWAP1 POP JUMP JUMPDEST PUSH1 0x40 DUP1 MLOAD PUSH2 0x3A0 DUP2 ADD SWAP1 SWAP2 MSTORE DUP2 SLOAD PUSH4 0xFFFFFFFF AND DUP2 MSTORE PUSH1 0x1 DUP3 ADD DUP1 SLOAD PUSH2 0x3E03 SWAP3 SWAP2 DUP5 SWAP2 PUSH1 0x20 DUP5 ADD SWAP2 SWAP1 PUSH2 0x3AD7 SWAP1 PUSH2 0x589C JUMP JUMPDEST DUP1 PUSH1 0x1F ADD PUSH1 0x20 DUP1 SWAP2 DIV MUL PUSH1 0x20 ADD PUSH1 0x40 MLOAD SWAP1 DUP2 ADD PUSH1 0x40 MSTORE DUP1 SWAP3 SWAP2 SWAP1 DUP2 DUP2 MSTORE PUSH1 0x20 ADD DUP3 DUP1 SLOAD PUSH2 0x3B03 SWAP1 PUSH2 0x589C JUMP JUMPDEST DUP1 ISZERO PUSH2 0x3B50 JUMPI DUP1 PUSH1 0x1F LT PUSH2 0x3B25 JUMPI PUSH2 0x100 DUP1 DUP4 SLOAD DIV MUL DUP4 MSTORE SWAP2 PUSH1 0x20 ADD SWAP2 PUSH2 0x3B50 JUMP JUMPDEST DUP3 ADD SWAP2 SWAP1 PUSH1 0x0 MSTORE PUSH1 0x20 PUSH1 0x0 KECCAK256 SWAP1 JUMPDEST DUP2 SLOAD DUP2 MSTORE SWAP1 PUSH1 0x1 ADD SWAP1 PUSH1 0x20 ADD DUP1 DUP4 GT PUSH2 0x3B33 JUMPI DUP3 SWAP1 SUB PUSH1 0x1F AND DUP3 ADD SWAP2 JUMPDEST POP POP POP SWAP2 DUP4 MSTORE POP POP PUSH1 0x2 DUP3 ADD SLOAD PUSH1 0xFF DUP2 AND ISZERO ISZERO PUSH1 0x20 DUP1 DUP5 ADD SWAP2 SWAP1 SWAP2 MSTORE PUSH2 0x100 SWAP1 SWAP2 DIV PUSH1 0x1 PUSH1 0x1 PUSH1 0xA0 SHL SUB AND PUSH1 0x40 DUP1 DUP5 ADD SWAP2 SWAP1 SWAP2 MSTORE PUSH1 0x3 DUP5 ADD SLOAD PUSH1 0x60 DUP5 ADD MSTORE PUSH1 0x4 DUP5 ADD SLOAD PUSH1 0x80 DUP5 ADD MSTORE PUSH1 0x5 DUP5 ADD SLOAD PUSH1 0xA0 DUP5 ADD MSTORE PUSH1 0x6 DUP5 ADD DUP1 SLOAD DUP3 MLOAD DUP2 DUP6 MUL DUP2 ADD DUP6 ADD SWAP1 SWAP4 MSTORE DUP1 DUP4 MSTORE PUSH1 0xC0 SWAP1 SWAP5 ADD SWAP4 SWAP2 SWAP3 SWAP1 SWAP2 SWAP1 DUP4 ADD DUP3 DUP3 DUP1 ISZERO PUSH2 0x3C1D JUMPI PUSH1 0x20 MUL DUP3 ADD SWAP2 SWAP1 PUSH1 0x0 MSTORE PUSH1 0x20 PUSH1 0x0 KECCAK256 SWAP1 PUSH1 0x0 SWAP1 JUMPDEST DUP3 DUP3 SWAP1 SLOAD SWAP1 PUSH2 0x100 EXP SWAP1 DIV PUSH4 0xFFFFFFFF AND PUSH4 0xFFFFFFFF AND DUP2 MSTORE PUSH1 0x20 ADD SWAP1 PUSH1 0x4 ADD SWAP1 PUSH1 0x20 DUP3 PUSH1 0x3 ADD DIV SWAP3 DUP4 ADD SWAP3 PUSH1 0x1 SUB DUP3 MUL SWAP2 POP DUP1 DUP5 GT PUSH2 0x3BE0 JUMPI SWAP1 POP JUMPDEST POP POP POP SWAP2 DUP4 MSTORE POP POP PUSH1 0x7 DUP3 ADD SLOAD PUSH4 0xFFFFFFFF AND PUSH1 0x20 DUP1 DUP4 ADD SWAP2 SWAP1 SWAP2 MSTORE PUSH1 0x8 DUP4 ADD DUP1 SLOAD PUSH1 0x40 DUP1 MLOAD DUP3 DUP6 MUL DUP2 ADD DUP6 ADD DUP3 MSTORE DUP3 DUP2 MSTORE SWAP5 ADD SWAP4 SWAP3 DUP4 ADD DUP3 DUP3 DUP1 ISZERO PUSH2 0x3CAE JUMPI PUSH1 0x20 MUL DUP3 ADD SWAP2 SWAP1 PUSH1 0x0 MSTORE PUSH1 0x20 PUSH1 0x0 KECCAK256 SWAP1 PUSH1 0x0 SWAP1 JUMPDEST DUP3 DUP3 SWAP1 SLOAD SWAP1 PUSH2 0x100 EXP SWAP1 DIV PUSH4 0xFFFFFFFF AND PUSH4 0xFFFFFFFF AND DUP2 MSTORE PUSH1 0x20 ADD SWAP1 PUSH1 0x4 ADD SWAP1 PUSH1 0x20 DUP3 PUSH1 0x3 ADD DIV SWAP3 DUP4 ADD SWAP3 PUSH1 0x1 SUB DUP3 MUL SWAP2 POP DUP1 DUP5 GT PUSH2 0x3C71 JUMPI SWAP1 POP JUMPDEST POP POP POP POP POP DUP2 MSTORE PUSH1 0x20 ADD PUSH1 0x9 DUP3 ADD DUP1 SLOAD DUP1 PUSH1 0x20 MUL PUSH1 0x20 ADD PUSH1 0x40 MLOAD SWAP1 DUP2 ADD PUSH1 0x40 MSTORE DUP1 SWAP3 SWAP2 SWAP1 DUP2 DUP2 MSTORE PUSH1 0x20 ADD DUP3 DUP1 SLOAD DUP1 ISZERO PUSH2 0x3D32 JUMPI PUSH1 0x20 MUL DUP3 ADD SWAP2 SWAP1 PUSH1 0x0 MSTORE PUSH1 0x20 PUSH1 0x0 KECCAK256 SWAP1 PUSH1 0x0 SWAP1 JUMPDEST DUP3 DUP3 SWAP1 SLOAD SWAP1 PUSH2 0x100 EXP SWAP1 DIV PUSH4 0xFFFFFFFF AND PUSH4 0xFFFFFFFF AND DUP2 MSTORE PUSH1 0x20 ADD SWAP1 PUSH1 0x4 ADD SWAP1 PUSH1 0x20 DUP3 PUSH1 0x3 ADD DIV SWAP3 DUP4 ADD SWAP3 PUSH1 0x1 SUB DUP3 MUL SWAP2 POP DUP1 DUP5 GT PUSH2 0x3CF5 JUMPI SWAP1 POP JUMPDEST POP POP POP SWAP2 DUP4 MSTORE POP POP PUSH1 0xA DUP3 ADD SLOAD PUSH1 0x20 DUP3 ADD MSTORE PUSH1 0xB DUP3 ADD SLOAD PUSH1 0x40 DUP3 ADD MSTORE PUSH1 0xC DUP3 ADD SLOAD PUSH1 0x60 DUP3 ADD MSTORE PUSH1 0xD DUP3 ADD SLOAD PUSH1 0x80 DUP3 ADD MSTORE PUSH1 0xE DUP3 ADD SLOAD PUSH1 0xA0 DUP3 ADD MSTORE PUSH1 0xF DUP3 ADD SLOAD PUSH1 0xC0 DUP3 ADD MSTORE PUSH1 0x10 DUP3 ADD SLOAD PUSH1 0xE0 DUP3 ADD MSTORE PUSH1 0x11 DUP3 ADD SLOAD PUSH2 0x100 DUP3 ADD MSTORE PUSH1 0x12 DUP3 ADD SLOAD PUSH1 0xFF AND PUSH2 0x120 DUP3 ADD MSTORE PUSH1 0x13 DUP3 ADD SLOAD PUSH2 0x140 DUP3 ADD MSTORE PUSH1 0x14 DUP3 ADD SLOAD PUSH2 0x160 DUP3 ADD MSTORE PUSH1 0x15 DUP3 ADD SLOAD PUSH2 0x180 DUP3 ADD MSTORE PUSH1 0x16 DUP3 ADD SLOAD PUSH2 0x1A0 DUP3 ADD MSTORE PUSH1 0x17 DUP3 ADD SLOAD PUSH2 0x1C0 DUP3 ADD MSTORE PUSH1 0x18 DUP3 ADD SLOAD PUSH2 0x1E0 DUP3 ADD MSTORE PUSH1 0x19 DUP3 ADD SLOAD PUSH2 0x200 DUP3 ADD MSTORE PUSH1 0x1A DUP3 ADD SLOAD PUSH2 0x220 DUP3 ADD MSTORE PUSH1 0x1B SWAP1 SWAP2 ADD SLOAD PUSH2 0x240 SWAP1 SWAP2 ADD MSTORE PUSH2 0x3F9B JUMP JUMPDEST PUSH2 0x3E0E DUP5 PUSH1 0x1 PUSH2 0x5B23 JUMP JUMPDEST GT ISZERO PUSH2 0x3E42 JUMPI PUSH1 0x40 MLOAD PUSH32 0x446F776E6C696E65206C6576656C73206C696D69742072656163686564000000 DUP2 MSTORE PUSH1 0x1D ADD PUSH2 0x397D JUMP JUMPDEST PUSH1 0xCB SLOAD DUP9 MLOAD PUSH1 0x0 SWAP2 PUSH2 0xFFFF AND SWAP1 DUP11 SWAP1 DUP7 SWAP1 DUP2 LT PUSH2 0x3E61 JUMPI PUSH2 0x3E61 PUSH2 0x5A96 JUMP JUMPDEST PUSH1 0x20 MUL PUSH1 0x20 ADD ADD MLOAD PUSH2 0xFFFF AND DUP13 PUSH2 0x3E78 SWAP2 SWAP1 PUSH2 0x5AEA JUMP JUMPDEST PUSH2 0x3E82 SWAP2 SWAP1 PUSH2 0x5B01 JUMP JUMPDEST SWAP1 POP DUP1 DUP3 PUSH1 0x14 ADD PUSH1 0x0 DUP3 DUP3 SLOAD PUSH2 0x3E98 SWAP2 SWAP1 PUSH2 0x5B23 JUMP JUMPDEST SWAP1 SWAP2 SSTORE POP PUSH2 0x3EA8 SWAP1 POP DUP3 DUP3 PUSH2 0x4C13 JUMP JUMPDEST PUSH2 0x3EB2 DUP2 DUP7 PUSH2 0x5B23 JUMP JUMPDEST SWAP5 POP DUP1 PUSH4 0xFFFFFFFF DUP1 DUP6 AND SWAP1 DUP13 AND PUSH32 0x516E026AA0A8E23FCB20EEBF31DF57C3E9DF29F305428F45E22D048A8582DFA0 PUSH2 0x3EEC DUP9 PUSH1 0x1 PUSH2 0x5B23 JUMP JUMPDEST PUSH1 0x40 MLOAD SWAP1 DUP2 MSTORE PUSH1 0x20 ADD PUSH1 0x40 MLOAD DUP1 SWAP2 SUB SWAP1 LOG4 POP POP POP JUMPDEST DUP1 PUSH2 0x3F0B DUP2 PUSH2 0x5BC9 JUMP JUMPDEST SWAP2 POP POP PUSH2 0x3911 JUMP JUMPDEST POP DUP1 DUP3 PUSH1 0x14 ADD PUSH1 0x0 DUP3 DUP3 SLOAD PUSH2 0x3F28 SWAP2 SWAP1 PUSH2 0x5B23 JUMP JUMPDEST SWAP1 SWAP2 SSTORE POP POP POP POP POP POP POP POP POP JUMP JUMPDEST PUSH1 0x1 PUSH1 0x1 PUSH1 0xA0 SHL SUB AND EXTCODESIZE ISZERO ISZERO SWAP1 JUMP JUMPDEST PUSH1 0x0 SLOAD PUSH2 0x100 SWAP1 DIV PUSH1 0xFF AND PUSH2 0x3F6C JUMPI PUSH1 0x40 MLOAD PUSH3 0x461BCD PUSH1 0xE5 SHL DUP2 MSTORE PUSH1 0x4 ADD PUSH2 0xF1B SWAP1 PUSH2 0x5C11 JUMP JUMPDEST PUSH2 0x13F0 PUSH2 0x4C4B JUMP JUMPDEST PUSH1 0x0 SLOAD PUSH2 0x100 SWAP1 DIV PUSH1 0xFF AND PUSH2 0x13F0 JUMPI PUSH1 0x40 MLOAD PUSH3 0x461BCD PUSH1 0xE5 SHL DUP2 MSTORE PUSH1 0x4 ADD PUSH2 0xF1B SWAP1 PUSH2 0x5C11 JUMP JUMPDEST PUSH2 0x120 DUP2 ADD MLOAD MLOAD PUSH1 0x0 SWAP1 DUP2 DUP2 ISZERO PUSH2 0xE6B JUMPI PUSH1 0xD2 SLOAD PUSH1 0x1 SWAP1 PUSH2 0x3FC6 SWAP1 PUSH4 0x1000000 SWAP1 DIV PUSH1 0xFF AND DUP5 PUSH2 0x5AEA JUMP JUMPDEST PUSH2 0x3FD0 SWAP2 SWAP1 PUSH2 0x58E6 JUMP JUMPDEST SWAP5 SWAP4 POP POP POP POP JUMP JUMPDEST PUSH1 0x0 DUP1 PUSH1 0xC9 PUSH1 0x0 SWAP1 SLOAD SWAP1 PUSH2 0x100 EXP SWAP1 DIV PUSH1 0x1 PUSH1 0x1 PUSH1 0xA0 SHL SUB AND PUSH1 0x1 PUSH1 0x1 PUSH1 0xA0 SHL SUB AND PUSH4 0xE1AA6036 PUSH1 0x40 MLOAD DUP2 PUSH4 0xFFFFFFFF AND PUSH1 0xE0 SHL DUP2 MSTORE PUSH1 0x4 ADD PUSH1 0x20 PUSH1 0x40 MLOAD DUP1 DUP4 SUB DUP2 DUP7 GAS STATICCALL ISZERO DUP1 ISZERO PUSH2 0x402E JUMPI RETURNDATASIZE PUSH1 0x0 DUP1 RETURNDATACOPY RETURNDATASIZE PUSH1 0x0 REVERT JUMPDEST POP POP POP POP PUSH1 0x40 MLOAD RETURNDATASIZE PUSH1 0x1F NOT PUSH1 0x1F DUP3 ADD AND DUP3 ADD DUP1 PUSH1 0x40 MSTORE POP DUP2 ADD SWAP1 PUSH2 0x4052 SWAP2 SWAP1 PUSH2 0x5BF8 JUMP JUMPDEST PUSH2 0x4064 DUP5 PUSH8 0xDE0B6B3A7640000 PUSH2 0x5AEA JUMP JUMPDEST PUSH2 0xE6B SWAP2 SWAP1 PUSH2 0x5B01 JUMP JUMPDEST PUSH1 0x0 DUP1 PUSH8 0xDE0B6B3A7640000 PUSH1 0xC9 PUSH1 0x0 SWAP1 SLOAD SWAP1 PUSH2 0x100 EXP SWAP1 DIV PUSH1 0x1 PUSH1 0x1 PUSH1 0xA0 SHL SUB AND PUSH1 0x1 PUSH1 0x1 PUSH1 0xA0 SHL SUB AND PUSH4 0xE1AA6036 PUSH1 0x40 MLOAD DUP2 PUSH4 0xFFFFFFFF AND PUSH1 0xE0 SHL DUP2 MSTORE PUSH1 0x4 ADD PUSH1 0x20 PUSH1 0x40 MLOAD DUP1 DUP4 SUB DUP2 DUP7 GAS STATICCALL ISZERO DUP1 ISZERO PUSH2 0x40CD JUMPI RETURNDATASIZE PUSH1 0x0 DUP1 RETURNDATACOPY RETURNDATASIZE PUSH1 0x0 REVERT JUMPDEST POP POP POP POP PUSH1 0x40 MLOAD RETURNDATASIZE PUSH1 0x1F NOT PUSH1 0x1F DUP3 ADD AND DUP3 ADD DUP1 PUSH1 0x40 MSTORE POP DUP2 ADD SWAP1 PUSH2 0x40F1 SWAP2 SWAP1 PUSH2 0x5BF8 JUMP JUMPDEST PUSH2 0x4064 SWAP1 DUP6 PUSH2 0x5AEA JUMP JUMPDEST PUSH4 0xFFFFFFFF DUP4 DUP2 AND PUSH1 0x0 DUP2 DUP2 MSTORE PUSH1 0xDA PUSH1 0x20 SWAP1 DUP2 MSTORE PUSH1 0x40 DUP1 DUP4 KECCAK256 DUP10 DUP7 AND DUP1 DUP6 MSTORE PUSH1 0xD9 DUP5 MSTORE SWAP2 DUP5 KECCAK256 DUP2 SLOAD PUSH1 0x1 PUSH5 0xFFFFFFFFFF NOT SWAP1 SWAP2 AND PUSH2 0x100 SWAP5 DUP6 MUL OR DUP2 OR DUP4 SSTORE DUP1 DUP4 ADD DUP11 SWAP1 SSTORE PUSH1 0xCF DUP1 SLOAD PUSH1 0x2 DUP6 ADD DUP1 SLOAD PUSH1 0x1 PUSH1 0x60 SHL SWAP1 SWAP3 DIV PUSH2 0xFFFF AND PUSH2 0xFFFF NOT SWAP1 SWAP3 AND SWAP2 SWAP1 SWAP2 OR SWAP1 SSTORE PUSH1 0x3 DUP5 ADD DUP11 SWAP1 SSTORE PUSH1 0xD0 SLOAD PUSH1 0x4 DUP1 DUP7 ADD SWAP2 SWAP1 SWAP2 SSTORE PUSH1 0x6 DUP5 ADD DUP1 SLOAD SWAP4 DUP5 ADD DUP2 SSTORE DUP9 MSTORE SWAP6 SWAP1 SWAP7 KECCAK256 PUSH1 0x8 DUP1 DUP4 DIV SWAP1 SWAP2 ADD DUP1 SLOAD PUSH1 0x7 SWAP1 SWAP4 AND SWAP1 SWAP7 MUL SWAP1 SWAP5 EXP DUP1 DUP10 MUL NOT SWAP1 SWAP2 AND SWAP7 MUL SWAP6 SWAP1 SWAP6 OR SWAP1 SWAP3 SSTORE DUP3 SLOAD SWAP2 SWAP5 PUSH1 0x1 PUSH1 0x40 SHL SWAP1 SWAP3 DIV SWAP1 SWAP2 AND SWAP2 SWAP1 PUSH2 0x41C6 DUP4 PUSH2 0x5B36 JUMP JUMPDEST SWAP2 SWAP1 PUSH2 0x100 EXP DUP2 SLOAD DUP2 PUSH4 0xFFFFFFFF MUL NOT AND SWAP1 DUP4 PUSH4 0xFFFFFFFF AND MUL OR SWAP1 SSTORE POP POP POP POP POP POP POP POP JUMP JUMPDEST PUSH4 0xFFFFFFFF DUP2 AND PUSH1 0x0 SWAP1 DUP2 MSTORE PUSH1 0xD9 PUSH1 0x20 SWAP1 DUP2 MSTORE PUSH1 0x40 DUP1 DUP4 KECCAK256 PUSH1 0x6 ADD DUP1 SLOAD DUP3 MLOAD DUP2 DUP6 MUL DUP2 ADD DUP6 ADD SWAP1 SWAP4 MSTORE DUP1 DUP4 MSTORE DUP5 SWAP4 DUP4 ADD DUP3 DUP3 DUP1 ISZERO PUSH2 0x4276 JUMPI PUSH1 0x20 MUL DUP3 ADD SWAP2 SWAP1 PUSH1 0x0 MSTORE PUSH1 0x20 PUSH1 0x0 KECCAK256 SWAP1 PUSH1 0x0 SWAP1 JUMPDEST DUP3 DUP3 SWAP1 SLOAD SWAP1 PUSH2 0x100 EXP SWAP1 DIV PUSH4 0xFFFFFFFF AND PUSH4 0xFFFFFFFF AND DUP2 MSTORE PUSH1 0x20 ADD SWAP1 PUSH1 0x4 ADD SWAP1 PUSH1 0x20 DUP3 PUSH1 0x3 ADD DIV SWAP3 DUP4 ADD SWAP3 PUSH1 0x1 SUB DUP3 MUL SWAP2 POP DUP1 DUP5 GT PUSH2 0x4239 JUMPI SWAP1 POP JUMPDEST POP POP DUP4 MLOAD SWAP4 SWAP5 POP PUSH1 0x0 SWAP3 POP POP POP JUMPDEST DUP2 DUP2 PUSH2 0xFFFF AND LT ISZERO PUSH2 0x357B JUMPI PUSH2 0x42A9 DUP4 DUP3 PUSH2 0xFFFF AND DUP2 MLOAD DUP2 LT PUSH2 0x369B JUMPI PUSH2 0x369B PUSH2 0x5A96 JUMP JUMPDEST PUSH2 0x42B3 SWAP1 DUP6 PUSH2 0x5B23 JUMP JUMPDEST SWAP4 POP DUP1 PUSH2 0x42BF DUP2 PUSH2 0x5AAC JUMP JUMPDEST SWAP2 POP POP PUSH2 0x4284 JUMP JUMPDEST PUSH4 0xFFFFFFFF DUP8 AND PUSH1 0x0 SWAP1 DUP2 MSTORE PUSH1 0xD9 PUSH1 0x20 MSTORE PUSH1 0x40 SWAP1 KECCAK256 PUSH1 0xCB SLOAD PUSH1 0x3 DUP3 ADD DUP5 SWAP1 SSTORE PUSH1 0x4 DUP3 ADD DUP4 SWAP1 SSTORE PUSH1 0xB DUP3 ADD DUP9 SWAP1 SSTORE PUSH1 0x14 DUP3 ADD DUP8 SWAP1 SSTORE PUSH1 0x17 DUP3 ADD DUP6 SWAP1 SSTORE PUSH1 0x18 DUP3 ADD DUP8 SWAP1 SSTORE PUSH1 0x19 DUP3 ADD DUP7 SWAP1 SSTORE PUSH1 0xD2 SLOAD PUSH1 0xFF PUSH3 0x10000 SWAP1 SWAP3 DIV DUP3 AND SWAP2 AND ISZERO PUSH2 0x4342 JUMPI PUSH1 0xCF SLOAD PUSH2 0x4342 SWAP1 DUP11 SWAP1 PUSH1 0x1 PUSH1 0x40 SHL SWAP1 DIV PUSH4 0xFFFFFFFF AND DUP11 DUP7 PUSH2 0x40FB JUMP JUMPDEST PUSH1 0x0 JUMPDEST DUP2 PUSH1 0xFF AND DUP2 PUSH1 0xFF AND LT ISZERO PUSH2 0x442A JUMPI PUSH1 0x7 DUP4 ADD SLOAD PUSH4 0xFFFFFFFF SWAP1 DUP2 AND PUSH1 0x0 DUP2 DUP2 MSTORE PUSH1 0xD9 PUSH1 0x20 MSTORE PUSH1 0x40 DUP2 KECCAK256 DUP1 SLOAD SWAP3 SWAP4 SWAP1 SWAP3 AND SWAP1 SUB PUSH2 0x4382 JUMPI POP POP PUSH2 0x442A JUMP JUMPDEST DUP3 PUSH1 0xFF AND PUSH1 0x0 SUB PUSH2 0x43A7 JUMPI DUP11 DUP2 PUSH1 0xD ADD PUSH1 0x0 DUP3 DUP3 SLOAD PUSH2 0x43A1 SWAP2 SWAP1 PUSH2 0x5B23 JUMP JUMPDEST SWAP1 SWAP2 SSTORE POP POP JUMPDEST DUP11 DUP2 PUSH1 0xF ADD PUSH1 0x0 DUP3 DUP3 SLOAD PUSH2 0x43BB SWAP2 SWAP1 PUSH2 0x5B23 JUMP JUMPDEST SWAP3 POP POP DUP2 SWAP1 SSTORE POP DUP1 PUSH1 0x9 ADD DUP13 SWAP1 DUP1 PUSH1 0x1 DUP2 SLOAD ADD DUP1 DUP3 SSTORE DUP1 SWAP2 POP POP PUSH1 0x1 SWAP1 SUB SWAP1 PUSH1 0x0 MSTORE PUSH1 0x20 PUSH1 0x0 KECCAK256 SWAP1 PUSH1 0x8 SWAP2 DUP3 DUP3 DIV ADD SWAP2 SWAP1 MOD PUSH1 0x4 MUL SWAP1 SWAP2 SWAP1 SWAP2 SWAP1 SWAP2 PUSH2 0x100 EXP DUP2 SLOAD DUP2 PUSH4 0xFFFFFFFF MUL NOT AND SWAP1 DUP4 PUSH4 0xFFFFFFFF AND MUL OR SWAP1 SSTORE POP DUP1 SWAP5 POP POP POP DUP1 DUP1 PUSH2 0x4422 SWAP1 PUSH2 0x5B4F JUMP JUMPDEST SWAP2 POP POP PUSH2 0x4345 JUMP JUMPDEST POP POP POP POP POP POP POP POP POP POP JUMP JUMPDEST PUSH4 0xFFFFFFFF DUP9 DUP2 AND PUSH1 0x0 DUP2 DUP2 MSTORE PUSH1 0xD9 PUSH1 0x20 MSTORE PUSH1 0x40 DUP2 KECCAK256 DUP1 SLOAD PUSH4 0xFFFFFFFF NOT SWAP1 DUP2 AND SWAP1 SWAP4 OR DUP2 SSTORE PUSH1 0x7 DUP2 ADD DUP1 SLOAD SWAP1 SWAP4 AND SWAP4 DUP12 AND SWAP4 SWAP1 SWAP4 OR SWAP1 SWAP2 SSTORE PUSH1 0x2 DUP3 ADD DUP1 SLOAD PUSH2 0x100 PUSH1 0x1 PUSH1 0xA8 SHL SUB NOT AND PUSH2 0x100 PUSH1 0x1 PUSH1 0x1 PUSH1 0xA0 SHL SUB DUP12 AND MUL OR SWAP1 SSTORE PUSH1 0x3 DUP3 ADD DUP6 SWAP1 SSTORE PUSH1 0x4 DUP3 ADD DUP5 SWAP1 SSTORE PUSH1 0x19 DUP3 ADD DUP7 SWAP1 SSTORE PUSH1 0xA DUP3 ADD DUP1 SLOAD DUP9 SWAP3 SWAP1 PUSH2 0x44BA SWAP1 DUP5 SWAP1 PUSH2 0x5B23 JUMP JUMPDEST SWAP1 SWAP2 SSTORE POP PUSH1 0x0 SWAP1 POP JUMPDEST DUP3 PUSH1 0xFF AND DUP2 PUSH1 0xFF AND LT ISZERO PUSH2 0x48E8 JUMPI PUSH1 0x7 DUP3 ADD SLOAD PUSH4 0xFFFFFFFF SWAP1 DUP2 AND PUSH1 0x0 DUP2 DUP2 MSTORE PUSH1 0xD9 PUSH1 0x20 MSTORE PUSH1 0x40 DUP2 KECCAK256 DUP1 SLOAD SWAP3 SWAP4 SWAP1 SWAP3 AND SWAP1 SUB PUSH2 0x4500 JUMPI POP POP PUSH2 0x48E8 JUMP JUMPDEST DUP3 PUSH1 0xFF AND PUSH1 0x0 SUB PUSH2 0x4577 JUMPI DUP9 DUP2 PUSH1 0xC ADD PUSH1 0x0 DUP3 DUP3 SLOAD PUSH2 0x451F SWAP2 SWAP1 PUSH2 0x5B23 JUMP JUMPDEST SWAP3 POP POP DUP2 SWAP1 SSTORE POP DUP1 PUSH1 0x8 ADD DUP13 SWAP1 DUP1 PUSH1 0x1 DUP2 SLOAD ADD DUP1 DUP3 SSTORE DUP1 SWAP2 POP POP PUSH1 0x1 SWAP1 SUB SWAP1 PUSH1 0x0 MSTORE PUSH1 0x20 PUSH1 0x0 KECCAK256 SWAP1 PUSH1 0x8 SWAP2 DUP3 DUP3 DIV ADD SWAP2 SWAP1 MOD PUSH1 0x4 MUL SWAP1 SWAP2 SWAP1 SWAP2 SWAP1 SWAP2 PUSH2 0x100 EXP DUP2 SLOAD DUP2 PUSH4 0xFFFFFFFF MUL NOT AND SWAP1 DUP4 PUSH4 0xFFFFFFFF AND MUL OR SWAP1 SSTORE POP JUMPDEST DUP9 DUP2 PUSH1 0xE ADD PUSH1 0x0 DUP3 DUP3 SLOAD PUSH2 0x458B SWAP2 SWAP1 PUSH2 0x5B23 JUMP JUMPDEST SWAP3 POP POP DUP2 SWAP1 SSTORE POP DUP1 PUSH1 0x9 ADD DUP13 SWAP1 DUP1 PUSH1 0x1 DUP2 SLOAD ADD DUP1 DUP3 SSTORE DUP1 SWAP2 POP POP PUSH1 0x1 SWAP1 SUB SWAP1 PUSH1 0x0 MSTORE PUSH1 0x20 PUSH1 0x0 KECCAK256 SWAP1 PUSH1 0x8 SWAP2 DUP3 DUP3 DIV ADD SWAP2 SWAP1 MOD PUSH1 0x4 MUL SWAP1 SWAP2 SWAP1 SWAP2 SWAP1 SWAP2 PUSH2 0x100 EXP DUP2 SLOAD DUP2 PUSH4 0xFFFFFFFF MUL NOT AND SWAP1 DUP4 PUSH4 0xFFFFFFFF AND MUL OR SWAP1 SSTORE POP DUP12 PUSH4 0xFFFFFFFF AND DUP12 PUSH4 0xFFFFFFFF AND DUP3 PUSH1 0x2 ADD PUSH1 0x1 SWAP1 SLOAD SWAP1 PUSH2 0x100 EXP SWAP1 DIV PUSH1 0x1 PUSH1 0x1 PUSH1 0xA0 SHL SUB AND PUSH1 0x1 PUSH1 0x1 PUSH1 0xA0 SHL SUB AND PUSH32 0xA7FAFC728EC30E34DC1E1276496BF3EB44CA7494679DA969455289E6A8F0F1F6 DUP8 PUSH1 0x7 ADD PUSH1 0x0 SWAP1 SLOAD SWAP1 PUSH2 0x100 EXP SWAP1 DIV PUSH4 0xFFFFFFFF AND PUSH1 0x40 MLOAD PUSH2 0x4660 SWAP2 SWAP1 PUSH4 0xFFFFFFFF SWAP2 SWAP1 SWAP2 AND DUP2 MSTORE PUSH1 0x20 ADD SWAP1 JUMP JUMPDEST PUSH1 0x40 MLOAD DUP1 SWAP2 SUB SWAP1 LOG4 PUSH1 0x12 DUP2 ADD SLOAD PUSH1 0xFF AND PUSH2 0x4679 DUP4 PUSH2 0x3166 JUMP JUMPDEST PUSH1 0xFF AND GT ISZERO PUSH2 0x4895 JUMPI PUSH2 0x468B DUP3 PUSH2 0x3166 JUMP JUMPDEST PUSH1 0x12 DUP3 ADD DUP1 SLOAD PUSH1 0xFF NOT AND PUSH1 0xFF SWAP3 DUP4 AND SWAP1 DUP2 OR DUP3 SSTORE PUSH1 0x0 SWAP1 DUP2 MSTORE PUSH1 0xDB PUSH1 0x20 SWAP1 DUP2 MSTORE PUSH1 0x40 DUP1 DUP4 KECCAK256 PUSH1 0x9 SWAP1 DUP2 ADD DUP1 SLOAD PUSH1 0x1 DUP2 DUP2 ADD DUP4 SSTORE SWAP2 DUP7 MSTORE SWAP4 DUP6 KECCAK256 PUSH1 0x8 DUP6 DIV ADD DUP1 SLOAD PUSH1 0x7 SWAP1 SWAP6 AND PUSH1 0x4 MUL PUSH2 0x100 EXP PUSH4 0xFFFFFFFF DUP2 DUP2 MUL NOT SWAP1 SWAP7 AND SWAP6 DUP12 AND MUL SWAP5 SWAP1 SWAP5 OR SWAP1 SWAP4 SSTORE SWAP4 SLOAD SWAP1 SWAP5 AND DUP3 MSTORE SWAP3 SWAP1 KECCAK256 ADD SLOAD PUSH2 0x4704 SWAP2 SWAP1 PUSH2 0x58E6 JUMP JUMPDEST PUSH1 0x13 DUP3 ADD DUP2 SWAP1 SSTORE PUSH1 0x12 DUP3 ADD SLOAD PUSH1 0x40 DUP1 MLOAD PUSH4 0xFFFFFFFF DUP7 AND DUP2 MSTORE PUSH1 0x20 DUP2 ADD SWAP4 SWAP1 SWAP4 MSTORE PUSH1 0xFF SWAP1 SWAP2 AND DUP3 DUP3 ADD MSTORE MLOAD PUSH32 0xB0D3A9C683344E744A1AE3DB383F75A8A01851282C5FE97D6159C1392A2E2A0A SWAP2 DUP2 SWAP1 SUB PUSH1 0x60 ADD SWAP1 LOG1 PUSH1 0xDB PUSH1 0x0 PUSH2 0x4766 DUP5 PUSH2 0x3166 JUMP JUMPDEST PUSH1 0xFF SWAP1 DUP2 AND DUP3 MSTORE PUSH1 0x20 DUP3 ADD SWAP3 SWAP1 SWAP3 MSTORE PUSH1 0x40 ADD PUSH1 0x0 KECCAK256 PUSH1 0x8 ADD SLOAD PUSH2 0x100 SWAP1 DIV AND ISZERO PUSH2 0x4801 JUMPI PUSH1 0xDB PUSH1 0x0 PUSH2 0x4797 DUP5 PUSH2 0x3166 JUMP JUMPDEST PUSH1 0xFF AND PUSH1 0xFF AND DUP2 MSTORE PUSH1 0x20 ADD SWAP1 DUP2 MSTORE PUSH1 0x20 ADD PUSH1 0x0 KECCAK256 PUSH1 0x7 ADD SLOAD DUP2 PUSH1 0x11 ADD SLOAD PUSH2 0x47BE SWAP2 SWAP1 PUSH2 0x5B23 JUMP JUMPDEST TIMESTAMP GT ISZERO PUSH2 0x47ED JUMPI TIMESTAMP DUP2 PUSH1 0x11 ADD DUP2 SWAP1 SSTORE POP DUP9 DUP2 PUSH1 0x10 ADD PUSH1 0x0 DUP3 DUP3 SLOAD PUSH2 0x47E2 SWAP2 SWAP1 PUSH2 0x5B23 JUMP JUMPDEST SWAP1 SWAP2 SSTORE POP PUSH2 0x4895 SWAP1 POP JUMP JUMPDEST DUP9 DUP2 PUSH1 0x10 ADD PUSH1 0x0 DUP3 DUP3 SLOAD PUSH2 0x47E2 SWAP2 SWAP1 PUSH2 0x5B23 JUMP JUMPDEST PUSH1 0xD2 SLOAD PUSH2 0x100 SWAP1 DIV PUSH1 0xFF AND ISZERO PUSH2 0x4895 JUMPI PUSH1 0x12 DUP2 ADD SLOAD PUSH1 0xFF AND PUSH1 0x0 SWAP1 DUP2 MSTORE PUSH1 0xDB PUSH1 0x20 MSTORE PUSH1 0x40 SWAP1 KECCAK256 PUSH1 0x5 ADD SLOAD PUSH2 0x4836 SWAP1 DUP3 SWAP1 PUSH2 0x4C13 JUMP JUMPDEST PUSH1 0x12 DUP2 ADD SLOAD PUSH1 0xFF SWAP1 DUP2 AND PUSH1 0x0 SWAP1 DUP2 MSTORE PUSH1 0xDB PUSH1 0x20 SWAP1 DUP2 MSTORE PUSH1 0x40 SWAP2 DUP3 SWAP1 KECCAK256 PUSH1 0x5 DUP2 ADD SLOAD SWAP1 SLOAD SWAP3 MLOAD SWAP3 SWAP1 SWAP4 AND DUP3 MSTORE PUSH4 0xFFFFFFFF DUP6 AND SWAP2 PUSH32 0x94B6D3D19CC40938E685EF6A1F6476B53EF65295AB094A044E74405A8D0BD05B SWAP2 ADD PUSH1 0x40 MLOAD DUP1 SWAP2 SUB SWAP1 LOG3 JUMPDEST PUSH1 0xD5 SLOAD PUSH1 0xD4 SLOAD PUSH2 0x48A5 SWAP2 SWAP1 PUSH2 0x5B23 JUMP JUMPDEST TIMESTAMP GT ISZERO PUSH2 0x48BA JUMPI TIMESTAMP PUSH1 0xD4 SSTORE PUSH1 0xD3 DUP10 SWAP1 SSTORE PUSH2 0x48D2 JUMP JUMPDEST DUP9 PUSH1 0xD3 PUSH1 0x0 DUP3 DUP3 SLOAD PUSH2 0x48CC SWAP2 SWAP1 PUSH2 0x5B23 JUMP JUMPDEST SWAP1 SWAP2 SSTORE POP POP JUMPDEST SWAP3 POP DUP2 SWAP1 POP PUSH2 0x48E0 DUP2 PUSH2 0x5B4F JUMP JUMPDEST SWAP2 POP POP PUSH2 0x44C3 JUMP JUMPDEST POP PUSH1 0xCF DUP1 SLOAD PUSH1 0x1 PUSH1 0x20 SHL SWAP1 DIV PUSH4 0xFFFFFFFF AND SWAP1 PUSH1 0x4 PUSH2 0x4906 DUP4 PUSH2 0x5B36 JUMP JUMPDEST SWAP2 SWAP1 PUSH2 0x100 EXP DUP2 SLOAD DUP2 PUSH4 0xFFFFFFFF MUL NOT AND SWAP1 DUP4 PUSH4 0xFFFFFFFF AND MUL OR SWAP1 SSTORE POP POP POP POP POP POP POP POP POP POP POP JUMP JUMPDEST PUSH1 0x0 DUP2 PUSH1 0x19 ADD SLOAD DUP3 PUSH1 0x18 ADD SLOAD LT ISZERO PUSH2 0x494C JUMPI DUP2 PUSH1 0x18 ADD SLOAD PUSH2 0x4952 JUMP JUMPDEST DUP2 PUSH1 0x19 ADD SLOAD JUMPDEST SWAP3 SWAP2 POP POP JUMP JUMPDEST PUSH2 0x4961 DUP2 PUSH2 0x3F36 JUMP JUMPDEST PUSH2 0x49C3 JUMPI PUSH1 0x40 MLOAD PUSH3 0x461BCD PUSH1 0xE5 SHL DUP2 MSTORE PUSH1 0x20 PUSH1 0x4 DUP3 ADD MSTORE PUSH1 0x2D PUSH1 0x24 DUP3 ADD MSTORE PUSH32 0x455243313936373A206E657720696D706C656D656E746174696F6E206973206E PUSH1 0x44 DUP3 ADD MSTORE PUSH13 0x1BDD08184818DBDB9D1C9858DD PUSH1 0x9A SHL PUSH1 0x64 DUP3 ADD MSTORE PUSH1 0x84 ADD PUSH2 0xF1B JUMP JUMPDEST PUSH1 0x0 DUP1 MLOAD PUSH1 0x20 PUSH2 0x5C8C DUP4 CODECOPY DUP2 MLOAD SWAP2 MSTORE DUP1 SLOAD PUSH1 0x1 PUSH1 0x1 PUSH1 0xA0 SHL SUB NOT AND PUSH1 0x1 PUSH1 0x1 PUSH1 0xA0 SHL SUB SWAP3 SWAP1 SWAP3 AND SWAP2 SWAP1 SWAP2 OR SWAP1 SSTORE JUMP JUMPDEST PUSH2 0x49FB DUP4 PUSH2 0x4C7B JUMP JUMPDEST PUSH1 0x0 DUP3 MLOAD GT DUP1 PUSH2 0x4A08 JUMPI POP DUP1 JUMPDEST ISZERO PUSH2 0xAB7 JUMPI PUSH2 0x4A17 DUP4 DUP4 PUSH2 0x4CBB JUMP JUMPDEST POP POP POP POP JUMP JUMPDEST PUSH4 0xFFFFFFFF DUP2 AND PUSH1 0x0 SWAP1 DUP2 MSTORE PUSH1 0xDA PUSH1 0x20 MSTORE PUSH1 0x40 DUP2 KECCAK256 DUP1 SLOAD PUSH1 0xFF AND ISZERO PUSH2 0x4AC8 JUMPI PUSH1 0xD0 SLOAD PUSH1 0xCB SLOAD PUSH1 0xCF SLOAD PUSH1 0x1 DUP5 ADD SLOAD TIMESTAMP SWAP4 PUSH1 0x0 SWAP4 SWAP1 SWAP3 PUSH2 0xFFFF SWAP2 DUP3 AND SWAP3 PUSH2 0x4A6D SWAP3 PUSH1 0x1 PUSH1 0x60 SHL SWAP1 SWAP3 DIV SWAP1 SWAP2 AND SWAP1 PUSH2 0x5AEA JUMP JUMPDEST PUSH2 0x4A77 SWAP2 SWAP1 PUSH2 0x5B01 JUMP JUMPDEST PUSH2 0x4A81 SWAP2 SWAP1 PUSH2 0x5B01 JUMP JUMPDEST SWAP1 POP PUSH1 0x0 DUP4 PUSH1 0x3 ADD SLOAD DUP4 PUSH2 0x4A95 SWAP2 SWAP1 PUSH2 0x58E6 JUMP JUMPDEST SWAP1 POP DUP4 PUSH1 0x5 ADD SLOAD PUSH2 0x4AAA DUP3 DUP7 PUSH1 0x4 ADD SLOAD PUSH2 0x4DAD JUMP JUMPDEST PUSH2 0x4AB4 SWAP1 DUP5 PUSH2 0x5AEA JUMP JUMPDEST PUSH2 0x4ABE SWAP2 SWAP1 PUSH2 0x58E6 JUMP JUMPDEST SWAP5 POP POP POP POP PUSH2 0x4ACD JUMP JUMPDEST PUSH1 0x0 SWAP2 POP JUMPDEST POP SWAP2 SWAP1 POP JUMP JUMPDEST PUSH1 0x0 DUP2 PUSH1 0x6 ADD DUP1 SLOAD DUP1 PUSH1 0x20 MUL PUSH1 0x20 ADD PUSH1 0x40 MLOAD SWAP1 DUP2 ADD PUSH1 0x40 MSTORE DUP1 SWAP3 SWAP2 SWAP1 DUP2 DUP2 MSTORE PUSH1 0x20 ADD DUP3 DUP1 SLOAD DUP1 ISZERO PUSH2 0x4B4F JUMPI PUSH1 0x20 MUL DUP3 ADD SWAP2 SWAP1 PUSH1 0x0 MSTORE PUSH1 0x20 PUSH1 0x0 KECCAK256 SWAP1 PUSH1 0x0 SWAP1 JUMPDEST DUP3 DUP3 SWAP1 SLOAD SWAP1 PUSH2 0x100 EXP SWAP1 DIV PUSH4 0xFFFFFFFF AND PUSH4 0xFFFFFFFF AND DUP2 MSTORE PUSH1 0x20 ADD SWAP1 PUSH1 0x4 ADD SWAP1 PUSH1 0x20 DUP3 PUSH1 0x3 ADD DIV SWAP3 DUP4 ADD SWAP3 PUSH1 0x1 SUB DUP3 MUL SWAP2 POP DUP1 DUP5 GT PUSH2 0x4B12 JUMPI SWAP1 POP JUMPDEST POP POP POP POP POP SWAP1 POP PUSH1 0x0 JUMPDEST DUP2 MLOAD DUP2 LT ISZERO PUSH2 0xAB7 JUMPI PUSH1 0xDA PUSH1 0x0 DUP4 DUP4 DUP2 MLOAD DUP2 LT PUSH2 0x4B78 JUMPI PUSH2 0x4B78 PUSH2 0x5A96 JUMP JUMPDEST PUSH1 0x20 SWAP1 DUP2 MUL SWAP2 SWAP1 SWAP2 ADD DUP2 ADD MLOAD PUSH4 0xFFFFFFFF AND DUP3 MSTORE DUP2 ADD SWAP2 SWAP1 SWAP2 MSTORE PUSH1 0x40 ADD PUSH1 0x0 KECCAK256 SLOAD PUSH1 0xFF AND ISZERO PUSH2 0x4BE9 JUMPI PUSH1 0x0 PUSH1 0xDA PUSH1 0x0 DUP5 DUP5 DUP2 MLOAD DUP2 LT PUSH2 0x4BB9 JUMPI PUSH2 0x4BB9 PUSH2 0x5A96 JUMP JUMPDEST PUSH1 0x20 SWAP1 DUP2 MUL SWAP2 SWAP1 SWAP2 ADD DUP2 ADD MLOAD PUSH4 0xFFFFFFFF AND DUP3 MSTORE DUP2 ADD SWAP2 SWAP1 SWAP2 MSTORE PUSH1 0x40 ADD PUSH1 0x0 KECCAK256 DUP1 SLOAD PUSH1 0xFF NOT AND SWAP2 ISZERO ISZERO SWAP2 SWAP1 SWAP2 OR SWAP1 SSTORE JUMPDEST DUP1 PUSH2 0x4BF3 DUP2 PUSH2 0x5BC9 JUMP JUMPDEST SWAP2 POP POP PUSH2 0x4B59 JUMP JUMPDEST PUSH1 0x2 DUP2 ADD DUP1 SLOAD PUSH1 0xFF NOT AND PUSH1 0x1 OR SWAP1 SSTORE PUSH2 0xED0 DUP2 PUSH2 0x4AD3 JUMP JUMPDEST DUP2 PUSH1 0x19 ADD SLOAD DUP2 DUP4 PUSH1 0x18 ADD SLOAD PUSH2 0x4C28 SWAP2 SWAP1 PUSH2 0x5B23 JUMP JUMPDEST LT PUSH2 0x4C3B JUMPI PUSH1 0x19 DUP3 ADD SLOAD PUSH1 0x18 DUP4 ADD SSTORE POP POP JUMP JUMPDEST DUP1 DUP3 PUSH1 0x18 ADD SLOAD PUSH2 0xAB7 SWAP2 SWAP1 PUSH2 0x5B23 JUMP JUMPDEST PUSH1 0x0 SLOAD PUSH2 0x100 SWAP1 DIV PUSH1 0xFF AND PUSH2 0x4C72 JUMPI PUSH1 0x40 MLOAD PUSH3 0x461BCD PUSH1 0xE5 SHL DUP2 MSTORE PUSH1 0x4 ADD PUSH2 0xF1B SWAP1 PUSH2 0x5C11 JUMP JUMPDEST PUSH2 0x13F0 CALLER PUSH2 0x3114 JUMP JUMPDEST PUSH2 0x4C84 DUP2 PUSH2 0x4958 JUMP JUMPDEST PUSH1 0x40 MLOAD PUSH1 0x1 PUSH1 0x1 PUSH1 0xA0 SHL SUB DUP3 AND SWAP1 PUSH32 0xBC7CD75A20EE27FD9ADEBAB32041F755214DBC6BFFA90CC0225B39DA2E5C2D3B SWAP1 PUSH1 0x0 SWAP1 LOG2 POP JUMP JUMPDEST PUSH1 0x60 PUSH2 0x4CC6 DUP4 PUSH2 0x3F36 JUMP JUMPDEST PUSH2 0x4D21 JUMPI PUSH1 0x40 MLOAD PUSH3 0x461BCD PUSH1 0xE5 SHL DUP2 MSTORE PUSH1 0x20 PUSH1 0x4 DUP3 ADD MSTORE PUSH1 0x26 PUSH1 0x24 DUP3 ADD MSTORE PUSH32 0x416464726573733A2064656C65676174652063616C6C20746F206E6F6E2D636F PUSH1 0x44 DUP3 ADD MSTORE PUSH6 0x1B9D1C9858DD PUSH1 0xD2 SHL PUSH1 0x64 DUP3 ADD MSTORE PUSH1 0x84 ADD PUSH2 0xF1B JUMP JUMPDEST PUSH1 0x0 DUP1 DUP5 PUSH1 0x1 PUSH1 0x1 PUSH1 0xA0 SHL SUB AND DUP5 PUSH1 0x40 MLOAD PUSH2 0x4D3C SWAP2 SWAP1 PUSH2 0x5C5C JUMP JUMPDEST PUSH1 0x0 PUSH1 0x40 MLOAD DUP1 DUP4 SUB DUP2 DUP6 GAS DELEGATECALL SWAP2 POP POP RETURNDATASIZE DUP1 PUSH1 0x0 DUP2 EQ PUSH2 0x4D77 JUMPI PUSH1 0x40 MLOAD SWAP2 POP PUSH1 0x1F NOT PUSH1 0x3F RETURNDATASIZE ADD AND DUP3 ADD PUSH1 0x40 MSTORE RETURNDATASIZE DUP3 MSTORE RETURNDATASIZE PUSH1 0x0 PUSH1 0x20 DUP5 ADD RETURNDATACOPY PUSH2 0x4D7C JUMP JUMPDEST PUSH1 0x60 SWAP2 POP JUMPDEST POP SWAP2 POP SWAP2 POP PUSH2 0x4DA4 DUP3 DUP3 PUSH1 0x40 MLOAD DUP1 PUSH1 0x60 ADD PUSH1 0x40 MSTORE DUP1 PUSH1 0x27 DUP2 MSTORE PUSH1 0x20 ADD PUSH2 0x5CAC PUSH1 0x27 SWAP2 CODECOPY PUSH2 0x4DC5 JUMP JUMPDEST SWAP6 SWAP5 POP POP POP POP POP JUMP JUMPDEST PUSH1 0x0 DUP2 DUP4 GT ISZERO PUSH2 0x4DBE JUMPI POP DUP1 PUSH2 0x4952 JUMP JUMPDEST POP SWAP1 SWAP2 SWAP1 POP JUMP JUMPDEST PUSH1 0x60 DUP4 ISZERO PUSH2 0x4DD4 JUMPI POP DUP2 PUSH2 0xE6B JUMP JUMPDEST PUSH2 0xE6B DUP4 DUP4 DUP2 MLOAD ISZERO PUSH2 0x4DE9 JUMPI DUP2 MLOAD DUP1 DUP4 PUSH1 0x20 ADD REVERT JUMPDEST DUP1 PUSH1 0x40 MLOAD PUSH3 0x461BCD PUSH1 0xE5 SHL DUP2 MSTORE PUSH1 0x4 ADD PUSH2 0xF1B SWAP2 SWAP1 PUSH2 0x5C78 JUMP JUMPDEST DUP3 DUP1 SLOAD DUP3 DUP3 SSTORE SWAP1 PUSH1 0x0 MSTORE PUSH1 0x20 PUSH1 0x0 KECCAK256 SWAP1 PUSH1 0xF ADD PUSH1 0x10 SWAP1 DIV DUP2 ADD SWAP3 DUP3 ISZERO PUSH2 0x4E9B JUMPI SWAP2 PUSH1 0x20 MUL DUP3 ADD PUSH1 0x0 JUMPDEST DUP4 DUP3 GT ISZERO PUSH2 0x4E6B JUMPI DUP4 MLOAD DUP4 DUP3 PUSH2 0x100 EXP DUP2 SLOAD DUP2 PUSH2 0xFFFF MUL NOT AND SWAP1 DUP4 PUSH1 0xFF AND MUL OR SWAP1 SSTORE POP SWAP3 PUSH1 0x20 ADD SWAP3 PUSH1 0x2 ADD PUSH1 0x20 DUP2 PUSH1 0x1 ADD DIV SWAP3 DUP4 ADD SWAP3 PUSH1 0x1 SUB MUL PUSH2 0x4E2C JUMP JUMPDEST DUP1 ISZERO PUSH2 0x4E99 JUMPI DUP3 DUP2 PUSH2 0x100 EXP DUP2 SLOAD SWAP1 PUSH2 0xFFFF MUL NOT AND SWAP1 SSTORE PUSH1 0x2 ADD PUSH1 0x20 DUP2 PUSH1 0x1 ADD DIV SWAP3 DUP4 ADD SWAP3 PUSH1 0x1 SUB MUL PUSH2 0x4E6B JUMP JUMPDEST POP JUMPDEST POP PUSH2 0x4EA7 SWAP3 SWAP2 POP PUSH2 0x4F16 JUMP JUMPDEST POP SWAP1 JUMP JUMPDEST DUP3 DUP1 SLOAD DUP3 DUP3 SSTORE SWAP1 PUSH1 0x0 MSTORE PUSH1 0x20 PUSH1 0x0 KECCAK256 SWAP1 PUSH1 0xF ADD PUSH1 0x10 SWAP1 DIV DUP2 ADD SWAP3 DUP3 ISZERO PUSH2 0x4E9B JUMPI SWAP2 PUSH1 0x20 MUL DUP3 ADD PUSH1 0x0 JUMPDEST DUP4 DUP3 GT ISZERO PUSH2 0x4E6B JUMPI DUP4 CALLDATALOAD PUSH1 0xFF AND DUP4 DUP3 PUSH2 0x100 EXP DUP2 SLOAD DUP2 PUSH2 0xFFFF MUL NOT AND SWAP1 DUP4 PUSH1 0xFF AND MUL OR SWAP1 SSTORE POP SWAP3 PUSH1 0x20 ADD SWAP3 PUSH1 0x2 ADD PUSH1 0x20 DUP2 PUSH1 0x1 ADD DIV SWAP3 DUP4 ADD SWAP3 PUSH1 0x1 SUB MUL PUSH2 0x4ED4 JUMP JUMPDEST JUMPDEST DUP1 DUP3 GT ISZERO PUSH2 0x4EA7 JUMPI PUSH1 0x0 DUP2 SSTORE PUSH1 0x1 ADD PUSH2 0x4F17 JUMP JUMPDEST DUP1 CALLDATALOAD PUSH1 0xFF DUP2 AND DUP2 EQ PUSH2 0x4F3C JUMPI PUSH1 0x0 DUP1 REVERT JUMPDEST SWAP2 SWAP1 POP JUMP JUMPDEST PUSH1 0x0 PUSH1 0x20 DUP3 DUP5 SUB SLT ISZERO PUSH2 0x4F53 JUMPI PUSH1 0x0 DUP1 REVERT JUMPDEST PUSH2 0xE6B DUP3 PUSH2 0x4F2B JUMP JUMPDEST PUSH1 0x20 DUP1 DUP3 MSTORE DUP3 MLOAD DUP3 DUP3 ADD DUP2 SWAP1 MSTORE PUSH1 0x0 SWAP2 SWAP1 DUP5 DUP3 ADD SWAP1 PUSH1 0x40 DUP6 ADD SWAP1 DUP5 JUMPDEST DUP2 DUP2 LT ISZERO PUSH2 0x4F9A JUMPI DUP4 MLOAD PUSH4 0xFFFFFFFF AND DUP4 MSTORE SWAP3 DUP5 ADD SWAP3 SWAP2 DUP5 ADD SWAP2 PUSH1 0x1 ADD PUSH2 0x4F78 JUMP JUMPDEST POP SWAP1 SWAP7 SWAP6 POP POP POP POP POP POP JUMP JUMPDEST DUP1 CALLDATALOAD PUSH1 0x1 PUSH1 0x1 PUSH1 0xA0 SHL SUB DUP2 AND DUP2 EQ PUSH2 0x4F3C JUMPI PUSH1 0x0 DUP1 REVERT JUMPDEST PUSH1 0x0 DUP1 PUSH1 0x40 DUP4 DUP6 SUB SLT ISZERO PUSH2 0x4FD0 JUMPI PUSH1 0x0 DUP1 REVERT JUMPDEST PUSH2 0x4FD9 DUP4 PUSH2 0x4FA6 JUMP JUMPDEST SWAP5 PUSH1 0x20 SWAP4 SWAP1 SWAP4 ADD CALLDATALOAD SWAP4 POP POP POP JUMP JUMPDEST PUSH1 0x0 PUSH1 0x20 DUP3 DUP5 SUB SLT ISZERO PUSH2 0x4FF9 JUMPI PUSH1 0x0 DUP1 REVERT JUMPDEST PUSH2 0xE6B DUP3 PUSH2 0x4FA6 JUMP JUMPDEST DUP1 CALLDATALOAD PUSH4 0xFFFFFFFF DUP2 AND DUP2 EQ PUSH2 0x4F3C JUMPI PUSH1 0x0 DUP1 REVERT JUMPDEST PUSH1 0x0 PUSH1 0x20 DUP3 DUP5 SUB SLT ISZERO PUSH2 0x5028 JUMPI PUSH1 0x0 DUP1 REVERT JUMPDEST PUSH2 0xE6B DUP3 PUSH2 0x5002 JUMP JUMPDEST PUSH1 0x0 PUSH1 0x20 DUP3 DUP5 SUB SLT ISZERO PUSH2 0x5043 JUMPI PUSH1 0x0 DUP1 REVERT JUMPDEST POP CALLDATALOAD SWAP2 SWAP1 POP JUMP JUMPDEST PUSH4 0x4E487B71 PUSH1 0xE0 SHL PUSH1 0x0 MSTORE PUSH1 0x41 PUSH1 0x4 MSTORE PUSH1 0x24 PUSH1 0x0 REVERT JUMPDEST PUSH1 0x40 MLOAD PUSH1 0x1F DUP3 ADD PUSH1 0x1F NOT AND DUP2 ADD PUSH1 0x1 PUSH1 0x1 PUSH1 0x40 SHL SUB DUP2 GT DUP3 DUP3 LT OR ISZERO PUSH2 0x5088 JUMPI PUSH2 0x5088 PUSH2 0x504A JUMP JUMPDEST PUSH1 0x40 MSTORE SWAP2 SWAP1 POP JUMP JUMPDEST PUSH1 0x0 PUSH1 0x1 PUSH1 0x1 PUSH1 0x40 SHL SUB DUP4 GT ISZERO PUSH2 0x50A9 JUMPI PUSH2 0x50A9 PUSH2 0x504A JUMP JUMPDEST PUSH2 0x50BC PUSH1 0x1F DUP5 ADD PUSH1 0x1F NOT AND PUSH1 0x20 ADD PUSH2 0x5060 JUMP JUMPDEST SWAP1 POP DUP3 DUP2 MSTORE DUP4 DUP4 DUP4 ADD GT ISZERO PUSH2 0x50D0 JUMPI PUSH1 0x0 DUP1 REVERT JUMPDEST DUP3 DUP3 PUSH1 0x20 DUP4 ADD CALLDATACOPY PUSH1 0x0 PUSH1 0x20 DUP5 DUP4 ADD ADD MSTORE SWAP4 SWAP3 POP POP POP JUMP JUMPDEST PUSH1 0x0 DUP3 PUSH1 0x1F DUP4 ADD SLT PUSH2 0x50F8 JUMPI PUSH1 0x0 DUP1 REVERT JUMPDEST PUSH2 0xE6B DUP4 DUP4 CALLDATALOAD PUSH1 0x20 DUP6 ADD PUSH2 0x5090 JUMP JUMPDEST DUP1 ISZERO ISZERO DUP2 EQ PUSH2 0xED0 JUMPI PUSH1 0x0 DUP1 REVERT JUMPDEST PUSH1 0x0 DUP1 PUSH1 0x0 DUP1 PUSH1 0x0 DUP1 PUSH1 0x0 DUP1 PUSH1 0x0 PUSH2 0x120 DUP11 DUP13 SUB SLT ISZERO PUSH2 0x5134 JUMPI PUSH1 0x0 DUP1 REVERT JUMPDEST PUSH2 0x513D DUP11 PUSH2 0x4F2B JUMP JUMPDEST SWAP9 POP PUSH1 0x20 DUP11 ADD CALLDATALOAD SWAP8 POP PUSH1 0x40 DUP11 ADD CALLDATALOAD SWAP7 POP PUSH1 0x60 DUP11 ADD CALLDATALOAD SWAP6 POP PUSH1 0x80 DUP11 ADD CALLDATALOAD PUSH1 0x1 PUSH1 0x1 PUSH1 0x40 SHL SUB DUP2 GT ISZERO PUSH2 0x516D JUMPI PUSH1 0x0 DUP1 REVERT JUMPDEST PUSH2 0x5179 DUP13 DUP3 DUP14 ADD PUSH2 0x50E7 JUMP JUMPDEST SWAP6 POP POP PUSH1 0xA0 DUP11 ADD CALLDATALOAD SWAP4 POP PUSH1 0xC0 DUP11 ADD CALLDATALOAD SWAP3 POP PUSH1 0xE0 DUP11 ADD CALLDATALOAD SWAP2 POP PUSH2 0x100 DUP11 ADD CALLDATALOAD PUSH2 0x51A0 DUP2 PUSH2 0x5107 JUMP JUMPDEST DUP1 SWAP2 POP POP SWAP3 SWAP6 SWAP9 POP SWAP3 SWAP6 SWAP9 POP SWAP3 SWAP6 SWAP9 JUMP JUMPDEST PUSH1 0x0 DUP1 PUSH1 0x40 DUP4 DUP6 SUB SLT ISZERO PUSH2 0x51C4 JUMPI PUSH1 0x0 DUP1 REVERT JUMPDEST PUSH2 0x51CD DUP4 PUSH2 0x4FA6 JUMP JUMPDEST SWAP2 POP PUSH1 0x20 DUP4 ADD CALLDATALOAD PUSH1 0x1 PUSH1 0x1 PUSH1 0x40 SHL SUB DUP2 GT ISZERO PUSH2 0x51E8 JUMPI PUSH1 0x0 DUP1 REVERT JUMPDEST DUP4 ADD PUSH1 0x1F DUP2 ADD DUP6 SGT PUSH2 0x51F9 JUMPI PUSH1 0x0 DUP1 REVERT JUMPDEST PUSH2 0x5208 DUP6 DUP3 CALLDATALOAD PUSH1 0x20 DUP5 ADD PUSH2 0x5090 JUMP JUMPDEST SWAP2 POP POP SWAP3 POP SWAP3 SWAP1 POP JUMP JUMPDEST PUSH1 0x0 DUP1 DUP4 PUSH1 0x1F DUP5 ADD SLT PUSH2 0x5224 JUMPI PUSH1 0x0 DUP1 REVERT JUMPDEST POP DUP2 CALLDATALOAD PUSH1 0x1 PUSH1 0x1 PUSH1 0x40 SHL SUB DUP2 GT ISZERO PUSH2 0x523B JUMPI PUSH1 0x0 DUP1 REVERT JUMPDEST PUSH1 0x20 DUP4 ADD SWAP2 POP DUP4 PUSH1 0x20 DUP3 PUSH1 0x5 SHL DUP6 ADD ADD GT ISZERO PUSH2 0x5256 JUMPI PUSH1 0x0 DUP1 REVERT JUMPDEST SWAP3 POP SWAP3 SWAP1 POP JUMP JUMPDEST PUSH1 0x0 DUP1 PUSH1 0x0 DUP1 PUSH1 0x0 PUSH1 0x60 DUP7 DUP9 SUB SLT ISZERO PUSH2 0x5275 JUMPI PUSH1 0x0 DUP1 REVERT JUMPDEST DUP6 CALLDATALOAD PUSH1 0x1 PUSH1 0x1 PUSH1 0x40 SHL SUB DUP1 DUP3 GT ISZERO PUSH2 0x528C JUMPI PUSH1 0x0 DUP1 REVERT JUMPDEST PUSH2 0x5298 DUP10 DUP4 DUP11 ADD PUSH2 0x5212 JUMP JUMPDEST SWAP1 SWAP8 POP SWAP6 POP PUSH1 0x20 SWAP2 POP DUP8 DUP3 ADD CALLDATALOAD DUP2 DUP2 GT ISZERO PUSH2 0x52B2 JUMPI PUSH1 0x0 DUP1 REVERT JUMPDEST PUSH2 0x52BE DUP11 DUP3 DUP12 ADD PUSH2 0x5212 JUMP JUMPDEST SWAP1 SWAP7 POP SWAP5 POP POP PUSH1 0x40 DUP9 ADD CALLDATALOAD DUP2 DUP2 GT ISZERO PUSH2 0x52D6 JUMPI PUSH1 0x0 DUP1 REVERT JUMPDEST DUP9 ADD PUSH1 0x1F DUP2 ADD DUP11 SGT PUSH2 0x52E7 JUMPI PUSH1 0x0 DUP1 REVERT JUMPDEST DUP1 CALLDATALOAD DUP3 DUP2 GT ISZERO PUSH2 0x52F9 JUMPI PUSH2 0x52F9 PUSH2 0x504A JUMP JUMPDEST DUP1 PUSH1 0x5 SHL PUSH2 0x5308 DUP6 DUP3 ADD PUSH2 0x5060 JUMP JUMPDEST SWAP2 DUP3 MSTORE DUP3 DUP2 ADD DUP6 ADD SWAP2 DUP6 DUP2 ADD SWAP1 DUP14 DUP5 GT ISZERO PUSH2 0x5322 JUMPI PUSH1 0x0 DUP1 REVERT JUMPDEST DUP7 DUP6 ADD SWAP3 POP JUMPDEST DUP4 DUP4 LT ISZERO PUSH2 0x535E JUMPI DUP3 CALLDATALOAD DUP7 DUP2 GT ISZERO PUSH2 0x5340 JUMPI PUSH1 0x0 DUP1 DUP2 REVERT JUMPDEST PUSH2 0x534E DUP16 DUP10 DUP4 DUP10 ADD ADD PUSH2 0x50E7 JUMP JUMPDEST DUP4 MSTORE POP SWAP2 DUP7 ADD SWAP2 SWAP1 DUP7 ADD SWAP1 PUSH2 0x5328 JUMP JUMPDEST DUP1 SWAP8 POP POP POP POP POP POP POP POP SWAP3 SWAP6 POP SWAP3 SWAP6 SWAP1 SWAP4 POP JUMP JUMPDEST PUSH1 0x0 JUMPDEST DUP4 DUP2 LT ISZERO PUSH2 0x538D JUMPI DUP2 DUP2 ADD MLOAD DUP4 DUP3 ADD MSTORE PUSH1 0x20 ADD PUSH2 0x5375 JUMP JUMPDEST POP POP PUSH1 0x0 SWAP2 ADD MSTORE JUMP JUMPDEST PUSH1 0x0 DUP2 MLOAD DUP1 DUP5 MSTORE PUSH2 0x53AE DUP2 PUSH1 0x20 DUP7 ADD PUSH1 0x20 DUP7 ADD PUSH2 0x5372 JUMP JUMPDEST PUSH1 0x1F ADD PUSH1 0x1F NOT AND SWAP3 SWAP1 SWAP3 ADD PUSH1 0x20 ADD SWAP3 SWAP2 POP POP JUMP JUMPDEST PUSH1 0x0 DUP2 MLOAD DUP1 DUP5 MSTORE PUSH1 0x20 DUP1 DUP6 ADD SWAP5 POP DUP1 DUP5 ADD PUSH1 0x0 JUMPDEST DUP4 DUP2 LT ISZERO PUSH2 0x53F8 JUMPI DUP2 MLOAD PUSH4 0xFFFFFFFF AND DUP8 MSTORE SWAP6 DUP3 ADD SWAP6 SWAP1 DUP3 ADD SWAP1 PUSH1 0x1 ADD PUSH2 0x53D6 JUMP JUMPDEST POP SWAP5 SWAP6 SWAP5 POP POP POP POP POP JUMP JUMPDEST PUSH1 0x20 DUP2 MSTORE PUSH2 0x5417 PUSH1 0x20 DUP3 ADD DUP4 MLOAD PUSH1 0xFF AND SWAP1 MSTORE JUMP JUMPDEST PUSH1 0x20 DUP3 ADD MLOAD PUSH1 0x40 DUP3 ADD MSTORE PUSH1 0x40 DUP3 ADD MLOAD PUSH1 0x60 DUP3 ADD MSTORE PUSH1 0x60 DUP3 ADD MLOAD PUSH1 0x80 DUP3 ADD MSTORE PUSH1 0x0 PUSH1 0x80 DUP4 ADD MLOAD PUSH2 0x160 DUP1 PUSH1 0xA0 DUP6 ADD MSTORE PUSH2 0x5453 PUSH2 0x180 DUP6 ADD DUP4 PUSH2 0x5396 JUMP JUMPDEST SWAP2 POP PUSH1 0xA0 DUP6 ADD MLOAD PUSH1 0xC0 DUP6 ADD MSTORE PUSH1 0xC0 DUP6 ADD MLOAD PUSH1 0xE0 DUP6 ADD MSTORE PUSH1 0xE0 DUP6 ADD MLOAD PUSH2 0x100 DUP2 DUP2 DUP8 ADD MSTORE DUP1 DUP8 ADD MLOAD SWAP2 POP POP PUSH2 0x120 PUSH2 0x548D DUP2 DUP8 ADD DUP4 ISZERO ISZERO SWAP1 MSTORE JUMP JUMPDEST DUP7 ADD MLOAD SWAP1 POP PUSH2 0x140 PUSH2 0x54A2 DUP7 DUP3 ADD DUP4 ISZERO ISZERO SWAP1 MSTORE JUMP JUMPDEST DUP7 ADD MLOAD DUP6 DUP5 SUB PUSH1 0x1F NOT ADD DUP4 DUP8 ADD MSTORE SWAP1 POP PUSH2 0x54BC DUP4 DUP3 PUSH2 0x53C2 JUMP JUMPDEST SWAP7 SWAP6 POP POP POP POP POP POP JUMP JUMPDEST PUSH1 0x0 PUSH1 0x20 DUP3 DUP5 SUB SLT ISZERO PUSH2 0x54D8 JUMPI PUSH1 0x0 DUP1 REVERT JUMPDEST DUP2 CALLDATALOAD PUSH2 0xFFFF DUP2 AND DUP2 EQ PUSH2 0xE6B JUMPI PUSH1 0x0 DUP1 REVERT JUMPDEST PUSH1 0x0 DUP1 PUSH1 0x0 DUP1 PUSH1 0x0 DUP1 PUSH1 0x0 DUP1 PUSH1 0x0 DUP1 PUSH1 0x0 DUP1 PUSH1 0xC0 DUP14 DUP16 SUB SLT ISZERO PUSH2 0x550C JUMPI PUSH1 0x0 DUP1 REVERT JUMPDEST PUSH1 0x1 PUSH1 0x1 PUSH1 0x40 SHL SUB DUP14 CALLDATALOAD GT ISZERO PUSH2 0x5521 JUMPI PUSH1 0x0 DUP1 REVERT JUMPDEST PUSH2 0x552E DUP15 DUP15 CALLDATALOAD DUP16 ADD PUSH2 0x5212 JUMP JUMPDEST SWAP1 SWAP13 POP SWAP11 POP PUSH1 0x1 PUSH1 0x1 PUSH1 0x40 SHL SUB PUSH1 0x20 DUP15 ADD CALLDATALOAD GT ISZERO PUSH2 0x554B JUMPI PUSH1 0x0 DUP1 REVERT JUMPDEST PUSH2 0x555B DUP15 PUSH1 0x20 DUP16 ADD CALLDATALOAD DUP16 ADD PUSH2 0x5212 JUMP JUMPDEST SWAP1 SWAP11 POP SWAP9 POP PUSH1 0x1 PUSH1 0x1 PUSH1 0x40 SHL SUB PUSH1 0x40 DUP15 ADD CALLDATALOAD GT ISZERO PUSH2 0x5578 JUMPI PUSH1 0x0 DUP1 REVERT JUMPDEST PUSH2 0x5588 DUP15 PUSH1 0x40 DUP16 ADD CALLDATALOAD DUP16 ADD PUSH2 0x5212 JUMP JUMPDEST SWAP1 SWAP9 POP SWAP7 POP PUSH1 0x1 PUSH1 0x1 PUSH1 0x40 SHL SUB PUSH1 0x60 DUP15 ADD CALLDATALOAD GT ISZERO PUSH2 0x55A5 JUMPI PUSH1 0x0 DUP1 REVERT JUMPDEST PUSH2 0x55B5 DUP15 PUSH1 0x60 DUP16 ADD CALLDATALOAD DUP16 ADD PUSH2 0x5212 JUMP JUMPDEST SWAP1 SWAP7 POP SWAP5 POP PUSH1 0x1 PUSH1 0x1 PUSH1 0x40 SHL SUB PUSH1 0x80 DUP15 ADD CALLDATALOAD GT ISZERO PUSH2 0x55D2 JUMPI PUSH1 0x0 DUP1 REVERT JUMPDEST PUSH2 0x55E2 DUP15 PUSH1 0x80 DUP16 ADD CALLDATALOAD DUP16 ADD PUSH2 0x5212 JUMP JUMPDEST SWAP1 SWAP5 POP SWAP3 POP PUSH1 0x1 PUSH1 0x1 PUSH1 0x40 SHL SUB PUSH1 0xA0 DUP15 ADD CALLDATALOAD GT ISZERO PUSH2 0x55FF JUMPI PUSH1 0x0 DUP1 REVERT JUMPDEST PUSH2 0x560F DUP15 PUSH1 0xA0 DUP16 ADD CALLDATALOAD DUP16 ADD PUSH2 0x5212 JUMP JUMPDEST DUP2 SWAP4 POP DUP1 SWAP3 POP POP POP SWAP3 SWAP6 SWAP9 SWAP12 POP SWAP3 SWAP6 SWAP9 SWAP12 POP SWAP3 SWAP6 SWAP9 SWAP12 JUMP JUMPDEST PUSH1 0x0 DUP1 PUSH1 0x20 DUP4 DUP6 SUB SLT ISZERO PUSH2 0x563A JUMPI PUSH1 0x0 DUP1 REVERT JUMPDEST DUP3 CALLDATALOAD PUSH1 0x1 PUSH1 0x1 PUSH1 0x40 SHL SUB DUP2 GT ISZERO PUSH2 0x5650 JUMPI PUSH1 0x0 DUP1 REVERT JUMPDEST PUSH2 0x565C DUP6 DUP3 DUP7 ADD PUSH2 0x5212 JUMP JUMPDEST SWAP1 SWAP7 SWAP1 SWAP6 POP SWAP4 POP POP POP POP JUMP JUMPDEST PUSH1 0x0 DUP1 PUSH1 0x40 DUP4 DUP6 SUB SLT ISZERO PUSH2 0x567B JUMPI PUSH1 0x0 DUP1 REVERT JUMPDEST PUSH2 0x4FD9 DUP4 PUSH2 0x5002 JUMP JUMPDEST PUSH1 0x20 DUP2 MSTORE PUSH2 0x569B PUSH1 0x20 DUP3 ADD DUP4 MLOAD PUSH4 0xFFFFFFFF AND SWAP1 MSTORE JUMP JUMPDEST PUSH1 0x0 PUSH1 0x20 DUP4 ADD MLOAD PUSH2 0x3A0 DUP1 PUSH1 0x40 DUP6 ADD MSTORE PUSH2 0x56B9 PUSH2 0x3C0 DUP6 ADD DUP4 PUSH2 0x5396 JUMP JUMPDEST SWAP2 POP PUSH1 0x40 DUP6 ADD MLOAD PUSH2 0x56CE PUSH1 0x60 DUP7 ADD DUP3 ISZERO ISZERO SWAP1 MSTORE JUMP JUMPDEST POP PUSH1 0x60 DUP6 ADD MLOAD PUSH1 0x1 PUSH1 0x1 PUSH1 0xA0 SHL SUB DUP2 AND PUSH1 0x80 DUP7 ADD MSTORE POP PUSH1 0x80 DUP6 ADD MLOAD PUSH1 0xA0 DUP6 ADD MSTORE PUSH1 0xA0 DUP6 ADD MLOAD PUSH1 0xC0 DUP6 ADD MSTORE PUSH1 0xC0 DUP6 ADD MLOAD PUSH1 0xE0 DUP6 ADD MSTORE PUSH1 0xE0 DUP6 ADD MLOAD PUSH1 0x1F NOT PUSH2 0x100 DUP2 DUP8 DUP7 SUB ADD DUP2 DUP9 ADD MSTORE PUSH2 0x5720 DUP6 DUP5 PUSH2 0x53C2 JUMP JUMPDEST SWAP5 POP DUP1 DUP9 ADD MLOAD SWAP3 POP POP PUSH2 0x120 PUSH2 0x573D DUP2 DUP9 ADD DUP5 PUSH4 0xFFFFFFFF AND SWAP1 MSTORE JUMP JUMPDEST DUP1 DUP9 ADD MLOAD SWAP3 POP POP PUSH2 0x140 DUP2 DUP8 DUP7 SUB ADD DUP2 DUP9 ADD MSTORE PUSH2 0x575A DUP6 DUP5 PUSH2 0x53C2 JUMP JUMPDEST SWAP5 POP DUP1 DUP9 ADD MLOAD SWAP3 POP POP PUSH2 0x160 DUP2 DUP8 DUP7 SUB ADD DUP2 DUP9 ADD MSTORE PUSH2 0x5779 DUP6 DUP5 PUSH2 0x53C2 JUMP JUMPDEST SWAP1 DUP9 ADD MLOAD PUSH2 0x180 DUP9 DUP2 ADD SWAP2 SWAP1 SWAP2 MSTORE DUP9 ADD MLOAD PUSH2 0x1A0 DUP1 DUP10 ADD SWAP2 SWAP1 SWAP2 MSTORE DUP9 ADD MLOAD PUSH2 0x1C0 DUP1 DUP10 ADD SWAP2 SWAP1 SWAP2 MSTORE DUP9 ADD MLOAD PUSH2 0x1E0 DUP1 DUP10 ADD SWAP2 SWAP1 SWAP2 MSTORE DUP9 ADD MLOAD PUSH2 0x200 DUP1 DUP10 ADD SWAP2 SWAP1 SWAP2 MSTORE DUP9 ADD MLOAD PUSH2 0x220 DUP1 DUP10 ADD SWAP2 SWAP1 SWAP2 MSTORE DUP9 ADD MLOAD PUSH2 0x240 DUP1 DUP10 ADD SWAP2 SWAP1 SWAP2 MSTORE DUP9 ADD MLOAD PUSH2 0x260 DUP1 DUP10 ADD SWAP2 SWAP1 SWAP2 MSTORE DUP9 ADD MLOAD SWAP1 SWAP5 POP SWAP2 POP PUSH2 0x280 SWAP1 POP PUSH2 0x57FD DUP2 DUP8 ADD DUP4 PUSH1 0xFF AND SWAP1 MSTORE JUMP JUMPDEST DUP7 ADD MLOAD PUSH2 0x2A0 DUP7 DUP2 ADD SWAP2 SWAP1 SWAP2 MSTORE DUP7 ADD MLOAD PUSH2 0x2C0 DUP1 DUP8 ADD SWAP2 SWAP1 SWAP2 MSTORE DUP7 ADD MLOAD PUSH2 0x2E0 DUP1 DUP8 ADD SWAP2 SWAP1 SWAP2 MSTORE DUP7 ADD MLOAD PUSH2 0x300 DUP1 DUP8 ADD SWAP2 SWAP1 SWAP2 MSTORE DUP7 ADD MLOAD PUSH2 0x320 DUP1 DUP8 ADD SWAP2 SWAP1 SWAP2 MSTORE DUP7 ADD MLOAD PUSH2 0x340 DUP1 DUP8 ADD SWAP2 SWAP1 SWAP2 MSTORE DUP7 ADD MLOAD PUSH2 0x360 DUP1 DUP8 ADD SWAP2 SWAP1 SWAP2 MSTORE DUP7 ADD MLOAD PUSH2 0x380 DUP1 DUP8 ADD SWAP2 SWAP1 SWAP2 MSTORE SWAP1 SWAP6 ADD MLOAD SWAP4 ADD SWAP3 SWAP1 SWAP3 MSTORE POP SWAP2 SWAP1 POP JUMP JUMPDEST PUSH1 0x20 DUP2 MSTORE DUP2 MLOAD ISZERO ISZERO PUSH1 0x20 DUP3 ADD MSTORE PUSH1 0x0 PUSH1 0x20 DUP4 ADD MLOAD PUSH1 0x40 DUP1 DUP5 ADD MSTORE PUSH2 0x3FD0 PUSH1 0x60 DUP5 ADD DUP3 PUSH2 0x53C2 JUMP JUMPDEST PUSH1 0x1 DUP2 DUP2 SHR SWAP1 DUP3 AND DUP1 PUSH2 0x58B0 JUMPI PUSH1 0x7F DUP3 AND SWAP2 POP JUMPDEST PUSH1 0x20 DUP3 LT DUP2 SUB PUSH2 0x4ACD JUMPI PUSH4 0x4E487B71 PUSH1 0xE0 SHL PUSH1 0x0 MSTORE PUSH1 0x22 PUSH1 0x4 MSTORE PUSH1 0x24 PUSH1 0x0 REVERT JUMPDEST PUSH4 0x4E487B71 PUSH1 0xE0 SHL PUSH1 0x0 MSTORE PUSH1 0x11 PUSH1 0x4 MSTORE PUSH1 0x24 PUSH1 0x0 REVERT JUMPDEST DUP2 DUP2 SUB DUP2 DUP2 GT ISZERO PUSH2 0x4952 JUMPI PUSH2 0x4952 PUSH2 0x58D0 JUMP JUMPDEST PUSH1 0x20 DUP1 DUP3 MSTORE PUSH1 0x2C SWAP1 DUP3 ADD MSTORE PUSH32 0x46756E6374696F6E206D7573742062652063616C6C6564207468726F75676820 PUSH1 0x40 DUP3 ADD MSTORE PUSH12 0x19195B1959D85D1958D85B1B PUSH1 0xA2 SHL PUSH1 0x60 DUP3 ADD MSTORE PUSH1 0x80 ADD SWAP1 JUMP JUMPDEST PUSH1 0x20 DUP1 DUP3 MSTORE PUSH1 0x2C SWAP1 DUP3 ADD MSTORE PUSH32 0x46756E6374696F6E206D7573742062652063616C6C6564207468726F75676820 PUSH1 0x40 DUP3 ADD MSTORE PUSH12 0x6163746976652070726F7879 PUSH1 0xA0 SHL PUSH1 0x60 DUP3 ADD MSTORE PUSH1 0x80 ADD SWAP1 JUMP JUMPDEST PUSH1 0x1F DUP3 GT ISZERO PUSH2 0xAB7 JUMPI PUSH1 0x0 DUP2 DUP2 MSTORE PUSH1 0x20 DUP2 KECCAK256 PUSH1 0x1F DUP6 ADD PUSH1 0x5 SHR DUP2 ADD PUSH1 0x20 DUP7 LT ISZERO PUSH2 0x59B8 JUMPI POP DUP1 JUMPDEST PUSH1 0x1F DUP6 ADD PUSH1 0x5 SHR DUP3 ADD SWAP2 POP JUMPDEST DUP2 DUP2 LT ISZERO PUSH2 0x13D6 JUMPI DUP3 DUP2 SSTORE PUSH1 0x1 ADD PUSH2 0x59C4 JUMP JUMPDEST DUP2 MLOAD PUSH1 0x1 PUSH1 0x1 PUSH1 0x40 SHL SUB DUP2 GT ISZERO PUSH2 0x59F0 JUMPI PUSH2 0x59F0 PUSH2 0x504A JUMP JUMPDEST PUSH2 0x5A04 DUP2 PUSH2 0x59FE DUP5 SLOAD PUSH2 0x589C JUMP JUMPDEST DUP5 PUSH2 0x5991 JUMP JUMPDEST PUSH1 0x20 DUP1 PUSH1 0x1F DUP4 GT PUSH1 0x1 DUP2 EQ PUSH2 0x5A39 JUMPI PUSH1 0x0 DUP5 ISZERO PUSH2 0x5A21 JUMPI POP DUP6 DUP4 ADD MLOAD JUMPDEST PUSH1 0x0 NOT PUSH1 0x3 DUP7 SWAP1 SHL SHR NOT AND PUSH1 0x1 DUP6 SWAP1 SHL OR DUP6 SSTORE PUSH2 0x13D6 JUMP JUMPDEST PUSH1 0x0 DUP6 DUP2 MSTORE PUSH1 0x20 DUP2 KECCAK256 PUSH1 0x1F NOT DUP7 AND SWAP2 JUMPDEST DUP3 DUP2 LT ISZERO PUSH2 0x5A68 JUMPI DUP9 DUP7 ADD MLOAD DUP3 SSTORE SWAP5 DUP5 ADD SWAP5 PUSH1 0x1 SWAP1 SWAP2 ADD SWAP1 DUP5 ADD PUSH2 0x5A49 JUMP JUMPDEST POP DUP6 DUP3 LT ISZERO PUSH2 0x5A86 JUMPI DUP8 DUP6 ADD MLOAD PUSH1 0x0 NOT PUSH1 0x3 DUP9 SWAP1 SHL PUSH1 0xF8 AND SHR NOT AND DUP2 SSTORE JUMPDEST POP POP POP POP POP PUSH1 0x1 SWAP1 DUP2 SHL ADD SWAP1 SSTORE POP JUMP JUMPDEST PUSH4 0x4E487B71 PUSH1 0xE0 SHL PUSH1 0x0 MSTORE PUSH1 0x32 PUSH1 0x4 MSTORE PUSH1 0x24 PUSH1 0x0 REVERT JUMPDEST PUSH1 0x0 PUSH2 0xFFFF DUP1 DUP4 AND DUP2 DUP2 SUB PUSH2 0x5AC3 JUMPI PUSH2 0x5AC3 PUSH2 0x58D0 JUMP JUMPDEST PUSH1 0x1 ADD SWAP4 SWAP3 POP POP POP JUMP JUMPDEST PUSH1 0x0 PUSH1 0x20 DUP3 DUP5 SUB SLT ISZERO PUSH2 0x5ADF JUMPI PUSH1 0x0 DUP1 REVERT JUMPDEST DUP2 MLOAD PUSH2 0xE6B DUP2 PUSH2 0x5107 JUMP JUMPDEST DUP1 DUP3 MUL DUP2 ISZERO DUP3 DUP3 DIV DUP5 EQ OR PUSH2 0x4952 JUMPI PUSH2 0x4952 PUSH2 0x58D0 JUMP JUMPDEST PUSH1 0x0 DUP3 PUSH2 0x5B1E JUMPI PUSH4 0x4E487B71 PUSH1 0xE0 SHL PUSH1 0x0 MSTORE PUSH1 0x12 PUSH1 0x4 MSTORE PUSH1 0x24 PUSH1 0x0 REVERT JUMPDEST POP DIV SWAP1 JUMP JUMPDEST DUP1 DUP3 ADD DUP1 DUP3 GT ISZERO PUSH2 0x4952 JUMPI PUSH2 0x4952 PUSH2 0x58D0 JUMP JUMPDEST PUSH1 0x0 PUSH4 0xFFFFFFFF DUP1 DUP4 AND DUP2 DUP2 SUB PUSH2 0x5AC3 JUMPI PUSH2 0x5AC3 PUSH2 0x58D0 JUMP JUMPDEST PUSH1 0x0 PUSH1 0xFF DUP3 AND PUSH1 0xFF DUP2 SUB PUSH2 0x5B65 JUMPI PUSH2 0x5B65 PUSH2 0x58D0 JUMP JUMPDEST PUSH1 0x1 ADD SWAP3 SWAP2 POP POP JUMP JUMPDEST PUSH4 0xFFFFFFFF DUP2 DUP2 AND DUP4 DUP3 AND ADD SWAP1 DUP1 DUP3 GT ISZERO PUSH2 0x5B8B JUMPI PUSH2 0x5B8B PUSH2 0x58D0 JUMP JUMPDEST POP SWAP3 SWAP2 POP POP JUMP JUMPDEST PUSH1 0x20 DUP1 DUP3 MSTORE PUSH1 0x1D SWAP1 DUP3 ADD MSTORE PUSH32 0x596F7520617265206E6F74206F776E6572206F6620746869732069642E000000 PUSH1 0x40 DUP3 ADD MSTORE PUSH1 0x60 ADD SWAP1 JUMP JUMPDEST PUSH1 0x0 PUSH1 0x1 DUP3 ADD PUSH2 0x5BDB JUMPI PUSH2 0x5BDB PUSH2 0x58D0 JUMP JUMPDEST POP PUSH1 0x1 ADD SWAP1 JUMP JUMPDEST PUSH4 0x4E487B71 PUSH1 0xE0 SHL PUSH1 0x0 MSTORE PUSH1 0x31 PUSH1 0x4 MSTORE PUSH1 0x24 PUSH1 0x0 REVERT JUMPDEST PUSH1 0x0 PUSH1 0x20 DUP3 DUP5 SUB SLT ISZERO PUSH2 0x5C0A JUMPI PUSH1 0x0 DUP1 REVERT JUMPDEST POP MLOAD SWAP2 SWAP1 POP JUMP JUMPDEST PUSH1 0x20 DUP1 DUP3 MSTORE PUSH1 0x2B SWAP1 DUP3 ADD MSTORE PUSH32 0x496E697469616C697A61626C653A20636F6E7472616374206973206E6F742069 PUSH1 0x40 DUP3 ADD MSTORE PUSH11 0x6E697469616C697A696E67 PUSH1 0xA8 SHL PUSH1 0x60 DUP3 ADD MSTORE PUSH1 0x80 ADD SWAP1 JUMP JUMPDEST PUSH1 0x0 DUP3 MLOAD PUSH2 0x5C6E DUP2 DUP5 PUSH1 0x20 DUP8 ADD PUSH2 0x5372 JUMP JUMPDEST SWAP2 SWAP1 SWAP2 ADD SWAP3 SWAP2 POP POP JUMP JUMPDEST PUSH1 0x20 DUP2 MSTORE PUSH1 0x0 PUSH2 0xE6B PUSH1 0x20 DUP4 ADD DUP5 PUSH2 0x5396 JUMP INVALID CALLDATASIZE ADDMOD SWAP5 LOG1 EXTCODESIZE LOG1 LOG3 0x21 MOD PUSH8 0xC828492DB98DCA3E KECCAK256 PUSH23 0xCC3735A920A3CA505D382BBC416464726573733A206C6F PUSH24 0x2D6C6576656C2064656C65676174652063616C6C20666169 PUSH13 0x6564A264697066735822122039 SMOD SMOD 0xCA 0xAE 0x5D DUP12 0x5C DUP11 LOG1 0x1F 0xDE SWAP6 0x28 0xAE TIMESTAMP DUP5 0xF9 0xC1 DIFFICULTY OR 0xF8 0xCC MOD XOR 0xFC 0xEA DUP12 0xE1 PUSH13 0x2E064736F6C63430008110033 "},"methodIdentifiers":{"_disabledUsersList(uint256)":"1f7f83ba","activateID(uint32)":"e5682e38","claimBalance(uint32,uint256)":"f31a2d0f","claimROI(uint32)":"770ceeb1","companyTurnoverTimeLimit()":"f41bfeef","companyTurnoverTimeStamp()":"2ed421d2","companyTurnoverWithTimeLimit()":"22f88b52","decimals()":"313ce567","disableUserAdmin(address)":"9f4e8398","getAchieversList(uint8)":"012da720","getIDAccount(uint32)":"f830e57b","getIDClaimableBalance(uint32)":"1f3c4cba","getIDRoyaltyClubLevel(uint32)":"76a68e84","getPriceOracleContract()":"2913497b","getROIAccount(uint32)":"c3ab5ebf","getRoyaltyClubPackageInfo(uint8)":"7bdbf996","getUserAccount(address)":"fb47e016","getUserIDTotalROI(uint32)":"bf46de63","getUserTotalActiveROIValue(uint32)":"ea62f715","getUserUnlockCount(uint32)":"b47181d3","initialize()":"8129fc1c","isPayROI()":"af2f39d1","isPayRoyaltyClubBonus()":"fafc9597","isUserDisabledByAdmin(address)":"538ffe0c","levelRates(uint256)":"7879b5ef","maxLevelsCount()":"8df05d9c","minContributionInUSD()":"96ed6b85","owner()":"8da5cb5b","packagesCount()":"18e10bff","payRoyaltyClubReccursiveBonusAdmin()":"aa7df4f2","proxiableUUID()":"52d1902d","removeUserFromDisableList(address)":"e52356f3","renounceOwnership()":"715018a6","royaltyClubPackageCount()":"a28a3686","sendETHAdmin(address,uint256)":"0b243dad","setLevelDecimals(uint16)":"a43ae408","setLevelRates(uint8[])":"e1c715ba","setMaxLevelsCountAdmin(uint8)":"8486e066","setPriceOracleContract(address)":"0efdbb6a","setRoyaltyClubPackage(uint8,uint256,uint256,uint256,string,uint256,uint256,uint256,bool)":"4a750822","setRoyaltyPackageCount(uint8)":"4b5102b8","topUpID(uint32)":"b92d18c1","totalIDs()":"5e701d86","totalROIIDs()":"a1b80175","totalRoyaltyClubBonusPaidETH()":"09de82cd","totalRoyaltyClubBonusPaidUSD()":"7a026935","totalUsers()":"bff1f9e1","transferOwnership(address)":"f2fde38b","updateIDOldIDtoAddress(uint32[],address[],string[])":"631d3398","updateUserIDDataOldAdmin(uint32[],uint256[],uint256[],uint256[],uint256[],uint256[])":"db003b2a","upgradeTo(address)":"3659cfe6","upgradeToAndCall(address,bytes)":"4f1ef286","withdrawETHAdmin()":"35759788","withdrawTokensAdmin(address,uint256)":"a0b6105f"}},"storageLayout":{"storage":[{"astId":527,"contract":"contracts/ReferralV2Upgradeable.sol:ReferralV2Upgradeable","label":"_initialized","offset":0,"slot":"0","type":"t_uint8"},{"astId":530,"contract":"contracts/ReferralV2Upgradeable.sol:ReferralV2Upgradeable","label":"_initializing","offset":1,"slot":"0","type":"t_bool"},{"astId":1228,"contract":"contracts/ReferralV2Upgradeable.sol:ReferralV2Upgradeable","label":"__gap","offset":0,"slot":"1","type":"t_array(t_uint256)50_storage"},{"astId":10,"contract":"contracts/ReferralV2Upgradeable.sol:ReferralV2Upgradeable","label":"_owner","offset":0,"slot":"51","type":"t_address"},{"astId":130,"contract":"contracts/ReferralV2Upgradeable.sol:ReferralV2Upgradeable","label":"__gap","offset":0,"slot":"52","type":"t_array(t_uint256)49_storage"},{"astId":509,"contract":"contracts/ReferralV2Upgradeable.sol:ReferralV2Upgradeable","label":"__gap","offset":0,"slot":"101","type":"t_array(t_uint256)50_storage"},{"astId":824,"contract":"contracts/ReferralV2Upgradeable.sol:ReferralV2Upgradeable","label":"__gap","offset":0,"slot":"151","type":"t_array(t_uint256)50_storage"},{"astId":1309,"contract":"contracts/ReferralV2Upgradeable.sol:ReferralV2Upgradeable","label":"_priceOracleContract","offset":0,"slot":"201","type":"t_address"},{"astId":1312,"contract":"contracts/ReferralV2Upgradeable.sol:ReferralV2Upgradeable","label":"levelRates","offset":0,"slot":"202","type":"t_array(t_uint16)dyn_storage"},{"astId":1314,"contract":"contracts/ReferralV2Upgradeable.sol:ReferralV2Upgradeable","label":"decimals","offset":0,"slot":"203","type":"t_uint16"},{"astId":1316,"contract":"contracts/ReferralV2Upgradeable.sol:ReferralV2Upgradeable","label":"maxLevelsCount","offset":2,"slot":"203","type":"t_uint8"},{"astId":1318,"contract":"contracts/ReferralV2Upgradeable.sol:ReferralV2Upgradeable","label":"minContributionInUSD","offset":0,"slot":"204","type":"t_uint256"},{"astId":1320,"contract":"contracts/ReferralV2Upgradeable.sol:ReferralV2Upgradeable","label":"totalRoyaltyClubBonusPaidUSD","offset":0,"slot":"205","type":"t_uint256"},{"astId":1322,"contract":"contracts/ReferralV2Upgradeable.sol:ReferralV2Upgradeable","label":"totalRoyaltyClubBonusPaidETH","offset":0,"slot":"206","type":"t_uint256"},{"astId":1324,"contract":"contracts/ReferralV2Upgradeable.sol:ReferralV2Upgradeable","label":"totalUsers","offset":0,"slot":"207","type":"t_uint32"},{"astId":1326,"contract":"contracts/ReferralV2Upgradeable.sol:ReferralV2Upgradeable","label":"totalIDs","offset":4,"slot":"207","type":"t_uint32"},{"astId":1328,"contract":"contracts/ReferralV2Upgradeable.sol:ReferralV2Upgradeable","label":"totalROIIDs","offset":8,"slot":"207","type":"t_uint32"},{"astId":1330,"contract":"contracts/ReferralV2Upgradeable.sol:ReferralV2Upgradeable","label":"_roiRate","offset":12,"slot":"207","type":"t_uint16"},{"astId":1332,"contract":"contracts/ReferralV2Upgradeable.sol:ReferralV2Upgradeable","label":"_roiDuration","offset":0,"slot":"208","type":"t_uint256"},{"astId":1334,"contract":"contracts/ReferralV2Upgradeable.sol:ReferralV2Upgradeable","label":"_roiClaimTimelimit","offset":0,"slot":"209","type":"t_uint256"},{"astId":1336,"contract":"contracts/ReferralV2Upgradeable.sol:ReferralV2Upgradeable","label":"isPayROI","offset":0,"slot":"210","type":"t_bool"},{"astId":1338,"contract":"contracts/ReferralV2Upgradeable.sol:ReferralV2Upgradeable","label":"isPayRoyaltyClubBonus","offset":1,"slot":"210","type":"t_bool"},{"astId":1340,"contract":"contracts/ReferralV2Upgradeable.sol:ReferralV2Upgradeable","label":"royaltyClubPackageCount","offset":2,"slot":"210","type":"t_uint8"},{"astId":1342,"contract":"contracts/ReferralV2Upgradeable.sol:ReferralV2Upgradeable","label":"_userLevelUnlockMultiplier","offset":3,"slot":"210","type":"t_uint8"},{"astId":1344,"contract":"contracts/ReferralV2Upgradeable.sol:ReferralV2Upgradeable","label":"companyTurnoverWithTimeLimit","offset":0,"slot":"211","type":"t_uint256"},{"astId":1346,"contract":"contracts/ReferralV2Upgradeable.sol:ReferralV2Upgradeable","label":"companyTurnoverTimeStamp","offset":0,"slot":"212","type":"t_uint256"},{"astId":1348,"contract":"contracts/ReferralV2Upgradeable.sol:ReferralV2Upgradeable","label":"companyTurnoverTimeLimit","offset":0,"slot":"213","type":"t_uint256"},{"astId":1351,"contract":"contracts/ReferralV2Upgradeable.sol:ReferralV2Upgradeable","label":"_disabledUsersList","offset":0,"slot":"214","type":"t_array(t_address)dyn_storage"},{"astId":1460,"contract":"contracts/ReferralV2Upgradeable.sol:ReferralV2Upgradeable","label":"packagesCount","offset":0,"slot":"215","type":"t_uint8"},{"astId":1465,"contract":"contracts/ReferralV2Upgradeable.sol:ReferralV2Upgradeable","label":"accounts","offset":0,"slot":"216","type":"t_mapping(t_address,t_struct(StructAccount)1357_storage)"},{"astId":1470,"contract":"contracts/ReferralV2Upgradeable.sol:ReferralV2Upgradeable","label":"ids","offset":0,"slot":"217","type":"t_mapping(t_uint32,t_struct(StructID)1419_storage)"},{"astId":1475,"contract":"contracts/ReferralV2Upgradeable.sol:ReferralV2Upgradeable","label":"rois","offset":0,"slot":"218","type":"t_mapping(t_uint32,t_struct(StructROI)1434_storage)"},{"astId":1480,"contract":"contracts/ReferralV2Upgradeable.sol:ReferralV2Upgradeable","label":"packages","offset":0,"slot":"219","type":"t_mapping(t_uint8,t_struct(StructPackages)1458_storage)"}],"types":{"t_address":{"encoding":"inplace","label":"address","numberOfBytes":"20"},"t_array(t_address)dyn_storage":{"base":"t_address","encoding":"dynamic_array","label":"address[]","numberOfBytes":"32"},"t_array(t_uint16)dyn_storage":{"base":"t_uint16","encoding":"dynamic_array","label":"uint16[]","numberOfBytes":"32"},"t_array(t_uint256)49_storage":{"base":"t_uint256","encoding":"inplace","label":"uint256[49]","numberOfBytes":"1568"},"t_array(t_uint256)50_storage":{"base":"t_uint256","encoding":"inplace","label":"uint256[50]","numberOfBytes":"1600"},"t_array(t_uint32)dyn_storage":{"base":"t_uint32","encoding":"dynamic_array","label":"uint32[]","numberOfBytes":"32"},"t_bool":{"encoding":"inplace","label":"bool","numberOfBytes":"1"},"t_mapping(t_address,t_struct(StructAccount)1357_storage)":{"encoding":"mapping","key":"t_address","label":"mapping(address => struct ReferralV2Upgradeable.StructAccount)","numberOfBytes":"32","value":"t_struct(StructAccount)1357_storage"},"t_mapping(t_uint32,t_struct(StructID)1419_storage)":{"encoding":"mapping","key":"t_uint32","label":"mapping(uint32 => struct ReferralV2Upgradeable.StructID)","numberOfBytes":"32","value":"t_struct(StructID)1419_storage"},"t_mapping(t_uint32,t_struct(StructROI)1434_storage)":{"encoding":"mapping","key":"t_uint32","label":"mapping(uint32 => struct ReferralV2Upgradeable.StructROI)","numberOfBytes":"32","value":"t_struct(StructROI)1434_storage"},"t_mapping(t_uint8,t_struct(StructPackages)1458_storage)":{"encoding":"mapping","key":"t_uint8","label":"mapping(uint8 => struct ReferralV2Upgradeable.StructPackages)","numberOfBytes":"32","value":"t_struct(StructPackages)1458_storage"},"t_string_storage":{"encoding":"bytes","label":"string","numberOfBytes":"32"},"t_struct(StructAccount)1357_storage":{"encoding":"inplace","label":"struct ReferralV2Upgradeable.StructAccount","members":[{"astId":1353,"contract":"contracts/ReferralV2Upgradeable.sol:ReferralV2Upgradeable","label":"isDisabled","offset":0,"slot":"0","type":"t_bool"},{"astId":1356,"contract":"contracts/ReferralV2Upgradeable.sol:ReferralV2Upgradeable","label":"accountIDs","offset":0,"slot":"1","type":"t_array(t_uint32)dyn_storage"}],"numberOfBytes":"64"},"t_struct(StructID)1419_storage":{"encoding":"inplace","label":"struct ReferralV2Upgradeable.StructID","members":[{"astId":1359,"contract":"contracts/ReferralV2Upgradeable.sol:ReferralV2Upgradeable","label":"id","offset":0,"slot":"0","type":"t_uint32"},{"astId":1361,"contract":"contracts/ReferralV2Upgradeable.sol:ReferralV2Upgradeable","label":"oldID","offset":0,"slot":"1","type":"t_string_storage"},{"astId":1363,"contract":"contracts/ReferralV2Upgradeable.sol:ReferralV2Upgradeable","label":"isDisabled","offset":0,"slot":"2","type":"t_bool"},{"astId":1365,"contract":"contracts/ReferralV2Upgradeable.sol:ReferralV2Upgradeable","label":"owner","offset":1,"slot":"2","type":"t_address"},{"astId":1367,"contract":"contracts/ReferralV2Upgradeable.sol:ReferralV2Upgradeable","label":"joiningTime","offset":0,"slot":"3","type":"t_uint256"},{"astId":1369,"contract":"contracts/ReferralV2Upgradeable.sol:ReferralV2Upgradeable","label":"activationTime","offset":0,"slot":"4","type":"t_uint256"},{"astId":1371,"contract":"contracts/ReferralV2Upgradeable.sol:ReferralV2Upgradeable","label":"deactivateTime","offset":0,"slot":"5","type":"t_uint256"},{"astId":1374,"contract":"contracts/ReferralV2Upgradeable.sol:ReferralV2Upgradeable","label":"roiIDs","offset":0,"slot":"6","type":"t_array(t_uint32)dyn_storage"},{"astId":1376,"contract":"contracts/ReferralV2Upgradeable.sol:ReferralV2Upgradeable","label":"refererID","offset":0,"slot":"7","type":"t_uint32"},{"astId":1379,"contract":"contracts/ReferralV2Upgradeable.sol:ReferralV2Upgradeable","label":"refereeIDs","offset":0,"slot":"8","type":"t_array(t_uint32)dyn_storage"},{"astId":1382,"contract":"contracts/ReferralV2Upgradeable.sol:ReferralV2Upgradeable","label":"teamIDs","offset":0,"slot":"9","type":"t_array(t_uint32)dyn_storage"},{"astId":1384,"contract":"contracts/ReferralV2Upgradeable.sol:ReferralV2Upgradeable","label":"selfBusinessUSD","offset":0,"slot":"10","type":"t_uint256"},{"astId":1386,"contract":"contracts/ReferralV2Upgradeable.sol:ReferralV2Upgradeable","label":"selfBusinessUSDOld","offset":0,"slot":"11","type":"t_uint256"},{"astId":1388,"contract":"contracts/ReferralV2Upgradeable.sol:ReferralV2Upgradeable","label":"directBusinessUSD","offset":0,"slot":"12","type":"t_uint256"},{"astId":1390,"contract":"contracts/ReferralV2Upgradeable.sol:ReferralV2Upgradeable","label":"directBusinessUSDOld","offset":0,"slot":"13","type":"t_uint256"},{"astId":1392,"contract":"contracts/ReferralV2Upgradeable.sol:ReferralV2Upgradeable","label":"teamBusinessUSD","offset":0,"slot":"14","type":"t_uint256"},{"astId":1394,"contract":"contracts/ReferralV2Upgradeable.sol:ReferralV2Upgradeable","label":"teamBusinessUSDOld","offset":0,"slot":"15","type":"t_uint256"},{"astId":1396,"contract":"contracts/ReferralV2Upgradeable.sol:ReferralV2Upgradeable","label":"royaltyClubBusinessUSD","offset":0,"slot":"16","type":"t_uint256"},{"astId":1398,"contract":"contracts/ReferralV2Upgradeable.sol:ReferralV2Upgradeable","label":"timeStampRoyaltyClub","offset":0,"slot":"17","type":"t_uint256"},{"astId":1400,"contract":"contracts/ReferralV2Upgradeable.sol:ReferralV2Upgradeable","label":"royaltyClubPackageID","offset":0,"slot":"18","type":"t_uint8"},{"astId":1402,"contract":"contracts/ReferralV2Upgradeable.sol:ReferralV2Upgradeable","label":"royaltyClubListIndex","offset":0,"slot":"19","type":"t_uint256"},{"astId":1404,"contract":"contracts/ReferralV2Upgradeable.sol:ReferralV2Upgradeable","label":"referralPaidUSD","offset":0,"slot":"20","type":"t_uint256"},{"astId":1406,"contract":"contracts/ReferralV2Upgradeable.sol:ReferralV2Upgradeable","label":"rewardPaidRoyaltyClubUSD","offset":0,"slot":"21","type":"t_uint256"},{"astId":1408,"contract":"contracts/ReferralV2Upgradeable.sol:ReferralV2Upgradeable","label":"topUpUSD","offset":0,"slot":"22","type":"t_uint256"},{"astId":1410,"contract":"contracts/ReferralV2Upgradeable.sol:ReferralV2Upgradeable","label":"balanceClaimedUSD","offset":0,"slot":"23","type":"t_uint256"},{"astId":1412,"contract":"contracts/ReferralV2Upgradeable.sol:ReferralV2Upgradeable","label":"limitBalanceUSD","offset":0,"slot":"24","type":"t_uint256"},{"astId":1414,"contract":"contracts/ReferralV2Upgradeable.sol:ReferralV2Upgradeable","label":"maxLimitAmount","offset":0,"slot":"25","type":"t_uint256"},{"astId":1416,"contract":"contracts/ReferralV2Upgradeable.sol:ReferralV2Upgradeable","label":"roiClaimedUSD","offset":0,"slot":"26","type":"t_uint256"},{"astId":1418,"contract":"contracts/ReferralV2Upgradeable.sol:ReferralV2Upgradeable","label":"roiClaimTimestamp","offset":0,"slot":"27","type":"t_uint256"}],"numberOfBytes":"896"},"t_struct(StructPackages)1458_storage":{"encoding":"inplace","label":"struct ReferralV2Upgradeable.StructPackages","members":[{"astId":1436,"contract":"contracts/ReferralV2Upgradeable.sol:ReferralV2Upgradeable","label":"packageID","offset":0,"slot":"0","type":"t_uint8"},{"astId":1438,"contract":"contracts/ReferralV2Upgradeable.sol:ReferralV2Upgradeable","label":"selfBusinessUSD","offset":0,"slot":"1","type":"t_uint256"},{"astId":1440,"contract":"contracts/ReferralV2Upgradeable.sol:ReferralV2Upgradeable","label":"directBusinessUSD","offset":0,"slot":"2","type":"t_uint256"},{"astId":1442,"contract":"contracts/ReferralV2Upgradeable.sol:ReferralV2Upgradeable","label":"teamBusinessUSD","offset":0,"slot":"3","type":"t_uint256"},{"astId":1444,"contract":"contracts/ReferralV2Upgradeable.sol:ReferralV2Upgradeable","label":"rankName","offset":0,"slot":"4","type":"t_string_storage"},{"astId":1446,"contract":"contracts/ReferralV2Upgradeable.sol:ReferralV2Upgradeable","label":"reward","offset":0,"slot":"5","type":"t_uint256"},{"astId":1448,"contract":"contracts/ReferralV2Upgradeable.sol:ReferralV2Upgradeable","label":"businessLimit","offset":0,"slot":"6","type":"t_uint256"},{"astId":1450,"contract":"contracts/ReferralV2Upgradeable.sol:ReferralV2Upgradeable","label":"timeLimit","offset":0,"slot":"7","type":"t_uint256"},{"astId":1452,"contract":"contracts/ReferralV2Upgradeable.sol:ReferralV2Upgradeable","label":"isOneTimeRewardPaid","offset":0,"slot":"8","type":"t_bool"},{"astId":1454,"contract":"contracts/ReferralV2Upgradeable.sol:ReferralV2Upgradeable","label":"isPayReccursive","offset":1,"slot":"8","type":"t_bool"},{"astId":1457,"contract":"contracts/ReferralV2Upgradeable.sol:ReferralV2Upgradeable","label":"achieversList","offset":0,"slot":"9","type":"t_array(t_uint32)dyn_storage"}],"numberOfBytes":"320"},"t_struct(StructROI)1434_storage":{"encoding":"inplace","label":"struct ReferralV2Upgradeable.StructROI","members":[{"astId":1421,"contract":"contracts/ReferralV2Upgradeable.sol:ReferralV2Upgradeable","label":"isActive","offset":0,"slot":"0","type":"t_bool"},{"astId":1423,"contract":"contracts/ReferralV2Upgradeable.sol:ReferralV2Upgradeable","label":"ownerID","offset":1,"slot":"0","type":"t_uint32"},{"astId":1425,"contract":"contracts/ReferralV2Upgradeable.sol:ReferralV2Upgradeable","label":"valueInUSD","offset":0,"slot":"1","type":"t_uint256"},{"astId":1427,"contract":"contracts/ReferralV2Upgradeable.sol:ReferralV2Upgradeable","label":"roiRate","offset":0,"slot":"2","type":"t_uint16"},{"astId":1429,"contract":"contracts/ReferralV2Upgradeable.sol:ReferralV2Upgradeable","label":"startTime","offset":0,"slot":"3","type":"t_uint256"},{"astId":1431,"contract":"contracts/ReferralV2Upgradeable.sol:ReferralV2Upgradeable","label":"duration","offset":0,"slot":"4","type":"t_uint256"},{"astId":1433,"contract":"contracts/ReferralV2Upgradeable.sol:ReferralV2Upgradeable","label":"roiClaimed","offset":0,"slot":"5","type":"t_uint256"}],"numberOfBytes":"192"},"t_uint16":{"encoding":"inplace","label":"uint16","numberOfBytes":"2"},"t_uint256":{"encoding":"inplace","label":"uint256","numberOfBytes":"32"},"t_uint32":{"encoding":"inplace","label":"uint32","numberOfBytes":"4"},"t_uint8":{"encoding":"inplace","label":"uint8","numberOfBytes":"1"}}}}}}