{"contracts/ROIV1Upgradeable.sol":{"ROIV1Upgradeable":{"abi":[{"anonymous":false,"inputs":[{"indexed":false,"internalType":"address","name":"previousAdmin","type":"address"},{"indexed":false,"internalType":"address","name":"newAdmin","type":"address"}],"name":"AdminChanged","type":"event"},{"anonymous":false,"inputs":[{"indexed":true,"internalType":"address","name":"beacon","type":"address"}],"name":"BeaconUpgraded","type":"event"},{"anonymous":false,"inputs":[{"indexed":false,"internalType":"uint8","name":"version","type":"uint8"}],"name":"Initialized","type":"event"},{"anonymous":false,"inputs":[{"indexed":true,"internalType":"address","name":"previousOwner","type":"address"},{"indexed":true,"internalType":"address","name":"newOwner","type":"address"}],"name":"OwnershipTransferred","type":"event"},{"anonymous":false,"inputs":[{"indexed":false,"internalType":"uint32","name":"_owner","type":"uint32"},{"indexed":false,"internalType":"uint32","name":"_roiId","type":"uint32"},{"indexed":false,"internalType":"uint256","name":"_value","type":"uint256"},{"indexed":false,"internalType":"uint16","name":"_rewardRate","type":"uint16"}],"name":"ROIActivated","type":"event"},{"anonymous":false,"inputs":[{"indexed":true,"internalType":"uint256","name":"_owner","type":"uint256"},{"indexed":true,"internalType":"uint256","name":"_rewardRate","type":"uint256"}],"name":"ROIClaimed","type":"event"},{"anonymous":false,"inputs":[{"indexed":false,"internalType":"uint32","name":"_owner","type":"uint32"},{"indexed":false,"internalType":"uint32","name":"_roiId","type":"uint32"}],"name":"ROIDeactivated","type":"event"},{"anonymous":false,"inputs":[{"indexed":true,"internalType":"address","name":"implementation","type":"address"}],"name":"Upgraded","type":"event"},{"inputs":[],"name":"_roiClaimTimelimit","outputs":[{"internalType":"uint256","name":"","type":"uint256"}],"stateMutability":"view","type":"function"},{"inputs":[],"name":"_roiDuration","outputs":[{"internalType":"uint256","name":"","type":"uint256"}],"stateMutability":"view","type":"function"},{"inputs":[],"name":"_roiRate","outputs":[{"internalType":"uint16","name":"","type":"uint16"}],"stateMutability":"view","type":"function"},{"inputs":[{"internalType":"uint32","name":"_id","type":"uint32"},{"internalType":"uint256","name":"_value","type":"uint256"},{"internalType":"uint256","name":"_currentTime","type":"uint256"}],"name":"activateROIAdmin","outputs":[{"internalType":"uint32","name":"_roiId","type":"uint32"}],"stateMutability":"nonpayable","type":"function"},{"inputs":[{"internalType":"uint32","name":"_id","type":"uint32"}],"name":"claimROI","outputs":[{"internalType":"uint256","name":"","type":"uint256"}],"stateMutability":"nonpayable","type":"function"},{"inputs":[],"name":"decimals","outputs":[{"internalType":"uint16","name":"","type":"uint16"}],"stateMutability":"view","type":"function"},{"inputs":[{"internalType":"uint32","name":"_roiID","type":"uint32"}],"name":"getROIAccount","outputs":[{"components":[{"internalType":"uint32","name":"id","type":"uint32"},{"internalType":"bool","name":"isActive","type":"bool"},{"internalType":"uint32","name":"ownerId","type":"uint32"},{"internalType":"uint256","name":"value","type":"uint256"},{"internalType":"uint16","name":"roiRate","type":"uint16"},{"internalType":"uint256","name":"startTime","type":"uint256"},{"internalType":"uint256","name":"duration","type":"uint256"}],"internalType":"struct ROIV1Upgradeable.StructROI","name":"","type":"tuple"}],"stateMutability":"view","type":"function"},{"inputs":[{"internalType":"uint32","name":"_id","type":"uint32"}],"name":"getUserIDTotalROI","outputs":[{"internalType":"uint256","name":"","type":"uint256"}],"stateMutability":"view","type":"function"},{"inputs":[{"internalType":"uint32","name":"_id","type":"uint32"}],"name":"getUserTotalActiveROIValue","outputs":[{"internalType":"uint256","name":"roiTotalValue","type":"uint256"}],"stateMutability":"view","type":"function"},{"inputs":[],"name":"initialize","outputs":[],"stateMutability":"nonpayable","type":"function"},{"inputs":[],"name":"isPayROI","outputs":[{"internalType":"bool","name":"","type":"bool"}],"stateMutability":"view","type":"function"},{"inputs":[],"name":"owner","outputs":[{"internalType":"address","name":"","type":"address"}],"stateMutability":"view","type":"function"},{"inputs":[],"name":"proxiableUUID","outputs":[{"internalType":"bytes32","name":"","type":"bytes32"}],"stateMutability":"view","type":"function"},{"inputs":[],"name":"renounceOwnership","outputs":[],"stateMutability":"nonpayable","type":"function"},{"inputs":[{"internalType":"address","name":"_address","type":"address"},{"internalType":"uint256","name":"_value","type":"uint256"}],"name":"sendETHAdmin","outputs":[],"stateMutability":"nonpayable","type":"function"},{"inputs":[{"internalType":"uint16","name":"_roiRateInDecimals","type":"uint16"},{"internalType":"uint256","name":"_roiClaimTimelimitInSeconds","type":"uint256"}],"name":"setROI","outputs":[],"stateMutability":"nonpayable","type":"function"},{"inputs":[{"internalType":"uint32","name":"_count","type":"uint32"}],"name":"setROIIDCount","outputs":[],"stateMutability":"nonpayable","type":"function"},{"inputs":[],"name":"totalROIIDs","outputs":[{"internalType":"uint32","name":"","type":"uint32"}],"stateMutability":"view","type":"function"},{"inputs":[],"name":"totalROIPaid","outputs":[{"internalType":"uint256","name":"","type":"uint256"}],"stateMutability":"view","type":"function"},{"inputs":[],"name":"totalROIValue","outputs":[{"internalType":"uint256","name":"","type":"uint256"}],"stateMutability":"view","type":"function"},{"inputs":[{"internalType":"address","name":"newOwner","type":"address"}],"name":"transferOwnership","outputs":[],"stateMutability":"nonpayable","type":"function"},{"inputs":[{"internalType":"address","name":"newImplementation","type":"address"}],"name":"upgradeTo","outputs":[],"stateMutability":"nonpayable","type":"function"},{"inputs":[{"internalType":"address","name":"newImplementation","type":"address"},{"internalType":"bytes","name":"data","type":"bytes"}],"name":"upgradeToAndCall","outputs":[],"stateMutability":"payable","type":"function"},{"inputs":[],"name":"withdrawETHAdmin","outputs":[],"stateMutability":"nonpayable","type":"function"},{"inputs":[{"internalType":"address","name":"_tokenAddress","type":"address"},{"internalType":"uint256","name":"_value","type":"uint256"}],"name":"withdrawTokensAdmin","outputs":[],"stateMutability":"nonpayable","type":"function"},{"stateMutability":"payable","type":"receive"}],"evm":{"bytecode":{"linkReferences":{},"object":"60a06040523060805234801561001457600080fd5b5060805161249761004c600039600081816106240152818161066d015281816107090152818161074901526107dc01526124976000f3fe60806040526004361061016a5760003560e01c806381b0e086116100d1578063af2f39d11161008a578063d895af2c11610064578063d895af2c1461052a578063ea62f7151461054a578063eaec63641461056a578063f2fde38b1461058057600080fd5b8063af2f39d1146103a4578063bf46de63146103ce578063c3ab5ebf146103ee57600080fd5b806381b0e086146102cc5780638da5cb5b146102e257806398c7438e1461030a578063a0b6105f1461033f578063a1b801751461035f578063abab358f1461038357600080fd5b806352d1902d1161012357806352d1902d14610237578063715018a61461024c578063770ceeb1146102615780637ab221c5146102815780637e09c75e146102a15780638129fc1c146102b757600080fd5b80630b243dad1461017657806330abbcc514610198578063313ce567146101c157806335759788146101ef5780633659cfe6146102045780634f1ef2861461022457600080fd5b3661017157005b600080fd5b34801561018257600080fd5b50610196610191366004611b57565b6105a0565b005b3480156101a457600080fd5b506101ae60ca5481565b6040519081526020015b60405180910390f35b3480156101cd57600080fd5b5060cc546101dc9061ffff1681565b60405161ffff90911681526020016101b8565b3480156101fb57600080fd5b506101966105e3565b34801561021057600080fd5b5061019661021f366004611b83565b61061a565b610196610232366004611c39565b6106ff565b34801561024357600080fd5b506101ae6107cf565b34801561025857600080fd5b50610196610882565b34801561026d57600080fd5b506101ae61027c366004611cde565b610896565b34801561028d57600080fd5b5061019661029c366004611cfb565b6108a7565b3480156102ad57600080fd5b506101ae60ce5481565b3480156102c357600080fd5b50610196610978565b3480156102d857600080fd5b506101ae60cd5481565b3480156102ee57600080fd5b506033546040516001600160a01b0390911681526020016101b8565b34801561031657600080fd5b5061032a610325366004611d20565b610ad1565b60405163ffffffff90911681526020016101b8565b34801561034b57600080fd5b5061019661035a366004611b57565b610b25565b34801561036b57600080fd5b5060c95461032a90600160a01b900463ffffffff1681565b34801561038f57600080fd5b5060cc546101dc9062010000900461ffff1681565b3480156103b057600080fd5b5060cf546103be9060ff1681565b60405190151581526020016101b8565b3480156103da57600080fd5b506101ae6103e9366004611cde565b610b9e565b3480156103fa57600080fd5b506104c4610409366004611cde565b6040805160e081018252600080825260208201819052918101829052606081018290526080810182905260a0810182905260c08101919091525063ffffffff908116600090815260d06020908152604091829020825160e0810184528154808616825260ff640100000000820416151593820193909352650100000000009092049093169181019190915260018201546060820152600282015461ffff166080820152600382015460a082015260049091015460c082015290565b6040516101b89190600060e08201905063ffffffff808451168352602084015115156020840152806040850151166040840152506060830151606083015261ffff608084015116608083015260a083015160a083015260c083015160c083015292915050565b34801561053657600080fd5b50610196610545366004611cde565b610ba9565b34801561055657600080fd5b506101ae610565366004611cde565b610c7c565b34801561057657600080fd5b506101ae60cb5481565b34801561058c57600080fd5b5061019661059b366004611b83565b610e4d565b6105a8610ec3565b6040516001600160a01b0383169082156108fc029083906000818181858888f193505050501580156105de573d6000803e3d6000fd5b505050565b6105eb610ec3565b60405133904780156108fc02916000818181858888f19350505050158015610617573d6000803e3d6000fd5b50565b6001600160a01b037f000000000000000000000000000000000000000000000000000000000000000016300361066b5760405162461bcd60e51b815260040161066290611d55565b60405180910390fd5b7f00000000000000000000000000000000000000000000000000000000000000006001600160a01b03166106b460008051602061241b833981519152546001600160a01b031690565b6001600160a01b0316146106da5760405162461bcd60e51b815260040161066290611da1565b6106e381610f1d565b6040805160008082526020820190925261061791839190610f25565b6001600160a01b037f00000000000000000000000000000000000000000000000000000000000000001630036107475760405162461bcd60e51b815260040161066290611d55565b7f00000000000000000000000000000000000000000000000000000000000000006001600160a01b031661079060008051602061241b833981519152546001600160a01b031690565b6001600160a01b0316146107b65760405162461bcd60e51b815260040161066290611da1565b6107bf82610f1d565b6107cb82826001610f25565b5050565b6000306001600160a01b037f0000000000000000000000000000000000000000000000000000000000000000161461086f5760405162461bcd60e51b815260206004820152603860248201527f555550535570677261646561626c653a206d757374206e6f742062652063616c60448201527f6c6564207468726f7567682064656c656761746563616c6c00000000000000006064820152608401610662565b5060008051602061241b83398151915290565b61088a610ec3565b6108946000611090565b565b60006108a1826110e2565b92915050565b60c954604051630935e01b60e21b81523360048201526001600160a01b03909116906324d7806c90602401602060405180830381865afa1580156108ef573d6000803e3d6000fd5b505050506040513d601f19601f820116820180604052508101906109139190611e02565b6109545760405162461bcd60e51b81526020600482015260126024820152712cb7ba9030b932903737ba1030b236b4b71760711b6044820152606401610662565b60cc805461ffff909316620100000263ffff0000199093169290921790915560ce55565b600054610100900460ff16158080156109985750600054600160ff909116105b806109b25750303b1580156109b2575060005460ff166001145b610a155760405162461bcd60e51b815260206004820152602e60248201527f496e697469616c697a61626c653a20636f6e747261637420697320616c72656160448201526d191e481a5b9a5d1a585b1a5e995960921b6064820152608401610662565b6000805460ff191660011790558015610a38576000805461ff0019166101001790555b60c980546001600160a01b031916737ecf19c95f2639cf0183639dba852fade713eefc17905560cc8054620503e863ffffffff199091161790556201518060ce55610a816115e3565b610a89611612565b8015610617576000805461ff0019169055604051600181527f7f26b83ff96e1f2b6a682f133852f6798a09c465da95921460cefb38474024989060200160405180910390a150565b60c98054600091600160a01b90910463ffffffff16906014610af283611e33565b91906101000a81548163ffffffff021916908363ffffffff1602179055509050610b1e84828585611639565b9392505050565b610b2d610ec3565b60405163a9059cbb60e01b8152336004820152602481018290526001600160a01b0383169063a9059cbb906044016020604051808303816000875af1158015610b7a573d6000803e3d6000fd5b505050506040513d601f19601f820116820180604052508101906105de9190611e02565b60006108a1826116c1565b60c954604051630935e01b60e21b81523360048201526001600160a01b03909116906324d7806c90602401602060405180830381865afa158015610bf1573d6000803e3d6000fd5b505050506040513d601f19601f82011682018060405250810190610c159190611e02565b610c565760405162461bcd60e51b81526020600482015260126024820152712cb7ba9030b932903737ba1030b236b4b71760711b6044820152606401610662565b60c9805463ffffffff909216600160a01b0263ffffffff60a01b19909216919091179055565b60008060c960009054906101000a90046001600160a01b03166001600160a01b03166323442c606040518163ffffffff1660e01b8152600401602060405180830381865afa158015610cd2573d6000803e3d6000fd5b505050506040513d601f19601f82011682018060405250810190610cf69190611e61565b604051632100978960e01b815263ffffffff851660048201526001600160a01b039190911690632100978990602401600060405180830381865afa158015610d42573d6000803e3d6000fd5b505050506040513d6000823e601f3d908101601f19168201604052610d6a9190810190611ff9565b61038081015180516102e08301519293509091610d889060026122c2565b836102c00151108015610d9b5750600081115b8015610daa5750826104200151155b15610e405760005b818161ffff161015610e3a57600060d06000858461ffff1681518110610dda57610dda6122d9565b602002602001015163ffffffff1663ffffffff16815260200190815260200160002090508060000160049054906101000a900460ff1615610e27576001810154610e2490876122ef565b95505b5080610e3281612302565b915050610db2565b50610e45565b600093505b505050919050565b610e55610ec3565b6001600160a01b038116610eba5760405162461bcd60e51b815260206004820152602660248201527f4f776e61626c653a206e6577206f776e657220697320746865207a65726f206160448201526564647265737360d01b6064820152608401610662565b61061781611090565b6033546001600160a01b031633146108945760405162461bcd60e51b815260206004820181905260248201527f4f776e61626c653a2063616c6c6572206973206e6f7420746865206f776e65726044820152606401610662565b610617610ec3565b7f4910fdfa16fed3260ed0e7147f7cc6da11a60208b5b9406d12a635614ffd91435460ff1615610f58576105de836118d9565b826001600160a01b03166352d1902d6040518163ffffffff1660e01b8152600401602060405180830381865afa925050508015610fb2575060408051601f3d908101601f19168201909252610faf91810190612319565b60015b6110155760405162461bcd60e51b815260206004820152602e60248201527f45524331393637557067726164653a206e657720696d706c656d656e7461746960448201526d6f6e206973206e6f74205555505360901b6064820152608401610662565b60008051602061241b83398151915281146110845760405162461bcd60e51b815260206004820152602960248201527f45524331393637557067726164653a20756e737570706f727465642070726f786044820152681a58589b195555525160ba1b6064820152608401610662565b506105de838383611975565b603380546001600160a01b038381166001600160a01b0319831681179093556040519116919082907f8be0079c531659141344cd1fd0a4f28419497f9722a3daafe3b4186f6b6457e090600090a35050565b60008060c960009054906101000a90046001600160a01b03166001600160a01b03166323442c606040518163ffffffff1660e01b8152600401602060405180830381865afa158015611138573d6000803e3d6000fd5b505050506040513d601f19601f8201168201806040525081019061115c9190611e61565b604051632100978960e01b815263ffffffff851660048201526001600160a01b039190911690632100978990602401600060405180830381865afa1580156111a8573d6000803e3d6000fd5b505050506040513d6000823e601f3d908101601f191682016040526111d09190810190611ff9565b608081015190915042906001600160a01b031633146112315760405162461bcd60e51b815260206004820152601d60248201527f596f7520617265206e6f74206f776e6572206f6620746869732069642e0000006044820152606401610662565b60ce54826103c0015161124491906122ef565b4210156112a35760405162461bcd60e51b815260206004820152602760248201527f596f7520726f6920636c61696d2074696d656c696d6974206973206e6f74206f6044820152660eccae440f2cad60cb1b6064820152608401610662565b60006112ae856116c1565b9050826102e0015160026112c291906122c2565b836102c00151111580156112f557506102e08301516112e29060026122c2565b81846102c001516112f391906122ef565b105b1561145b5780836102c00181815161130d91906122ef565b9052506103a0830180518291906113259083906122ef565b9052506103c0830182905260c9546040805163011a216360e51b8152905192955085926001600160a01b03909216916323442c60916004808201926020929091908290030181865afa15801561137f573d6000803e3d6000fd5b505050506040513d601f19601f820116820180604052508101906113a39190611e61565b604051633666085760e11b815263ffffffff87166004820152602481018690526001600160a01b039190911690636ccc10ae90604401600060405180830381600087803b1580156113f357600080fd5b505af1158015611407573d6000803e3d6000fd5b505060405186925063ffffffff881691507f7cd8783637a6bf8d3b4b69973a28720cfb0f5abc55d8b85dde1732d8f22c0efc90600090a38360ca600082825461145091906122ef565b90915550610e459050565b6102e083015161146c9060026122c2565b836102c0015111610e45576000836102c00151846102e00151600261149191906122c2565b61149b9190612332565b9050836102e0015160026114af91906122c2565b6102c085015260c9546040805163011a216360e51b8152905192965086926001600160a01b03909216916323442c60916004808201926020929091908290030181865afa158015611504573d6000803e3d6000fd5b505050506040513d601f19601f820116820180604052508101906115289190611e61565b604051633666085760e11b815263ffffffff88166004820152602481018790526001600160a01b039190911690636ccc10ae90604401600060405180830381600087803b15801561157857600080fd5b505af115801561158c573d6000803e3d6000fd5b505060405187925063ffffffff891691507f7cd8783637a6bf8d3b4b69973a28720cfb0f5abc55d8b85dde1732d8f22c0efc90600090a38060ca60008282546115d591906122ef565b909155505050505050919050565b600054610100900460ff1661160a5760405162461bcd60e51b815260040161066290612345565b6108946119a0565b600054610100900460ff166108945760405162461bcd60e51b815260040161066290612345565b63ffffffff808416600090815260d0602052604081208054928716650100000000000268ffffffffff0000000019909316929092176401000000001782556001820184905560cc5460028301805461ffff191661ffff62010000909304929092169190911790556003820183905560cb8054916116b583612390565b91905055505050505050565b60008060c960009054906101000a90046001600160a01b03166001600160a01b03166323442c606040518163ffffffff1660e01b8152600401602060405180830381865afa158015611717573d6000803e3d6000fd5b505050506040513d601f19601f8201168201806040525081019061173b9190611e61565b604051632100978960e01b815263ffffffff851660048201526001600160a01b039190911690632100978990602401600060405180830381865afa158015611787573d6000803e3d6000fd5b505050506040513d6000823e601f3d908101601f191682016040526117af9190810190611ff9565b61038081015180516102e083015192935090916117cd9060026122c2565b836102c001511080156117e05750600081115b80156117ef5750826104200151155b15610e405760005b818161ffff161015610e3a57600060d06000858461ffff168151811061181f5761181f6122d9565b602002602001015163ffffffff1663ffffffff16815260200190815260200160002090508060000160049054906101000a900460ff16156118c65760cc54600182015460009161ffff8082169261187f92620100009004909116906122c2565b61188991906123a9565b9050600082600301544261189d9190612332565b9050620151806118ad82846122c2565b6118b791906123a9565b6118c190896122ef565b975050505b50806118d181612302565b9150506117f7565b6001600160a01b0381163b6119465760405162461bcd60e51b815260206004820152602d60248201527f455243313936373a206e657720696d706c656d656e746174696f6e206973206e60448201526c1bdd08184818dbdb9d1c9858dd609a1b6064820152608401610662565b60008051602061241b83398151915280546001600160a01b0319166001600160a01b0392909216919091179055565b61197e836119d0565b60008251118061198b5750805b156105de5761199a8383611a10565b50505050565b600054610100900460ff166119c75760405162461bcd60e51b815260040161066290612345565b61089433611090565b6119d9816118d9565b6040516001600160a01b038216907fbc7cd75a20ee27fd9adebab32041f755214dbc6bffa90cc0225b39da2e5c2d3b90600090a250565b60606001600160a01b0383163b611a785760405162461bcd60e51b815260206004820152602660248201527f416464726573733a2064656c65676174652063616c6c20746f206e6f6e2d636f6044820152651b9d1c9858dd60d21b6064820152608401610662565b600080846001600160a01b031684604051611a9391906123cb565b600060405180830381855af49150503d8060008114611ace576040519150601f19603f3d011682016040523d82523d6000602084013e611ad3565b606091505b5091509150611afb828260405180606001604052806027815260200161243b60279139611b04565b95945050505050565b60608315611b13575081610b1e565b610b1e8383815115611b285781518083602001fd5b8060405162461bcd60e51b815260040161066291906123e7565b6001600160a01b038116811461061757600080fd5b60008060408385031215611b6a57600080fd5b8235611b7581611b42565b946020939093013593505050565b600060208284031215611b9557600080fd5b8135610b1e81611b42565b634e487b7160e01b600052604160045260246000fd5b604051610480810167ffffffffffffffff81118282101715611bda57611bda611ba0565b60405290565b604051601f8201601f1916810167ffffffffffffffff81118282101715611c0957611c09611ba0565b604052919050565b600067ffffffffffffffff821115611c2b57611c2b611ba0565b50601f01601f191660200190565b60008060408385031215611c4c57600080fd5b8235611c5781611b42565b9150602083013567ffffffffffffffff811115611c7357600080fd5b8301601f81018513611c8457600080fd5b8035611c97611c9282611c11565b611be0565b818152866020838501011115611cac57600080fd5b816020840160208301376000602083830101528093505050509250929050565b63ffffffff8116811461061757600080fd5b600060208284031215611cf057600080fd5b8135610b1e81611ccc565b60008060408385031215611d0e57600080fd5b823561ffff81168114611b7557600080fd5b600080600060608486031215611d3557600080fd5b8335611d4081611ccc565b95602085013595506040909401359392505050565b6020808252602c908201527f46756e6374696f6e206d7573742062652063616c6c6564207468726f7567682060408201526b19195b1959d85d1958d85b1b60a21b606082015260800190565b6020808252602c908201527f46756e6374696f6e206d7573742062652063616c6c6564207468726f7567682060408201526b6163746976652070726f787960a01b606082015260800190565b80518015158114611dfd57600080fd5b919050565b600060208284031215611e1457600080fd5b610b1e82611ded565b634e487b7160e01b600052601160045260246000fd5b600063ffffffff808316818103611e4c57611e4c611e1d565b6001019392505050565b8051611dfd81611b42565b600060208284031215611e7357600080fd5b8151610b1e81611b42565b8051611dfd81611ccc565b60005b83811015611ea4578181015183820152602001611e8c565b50506000910152565b600082601f830112611ebe57600080fd5b8151611ecc611c9282611c11565b818152846020838601011115611ee157600080fd5b611ef2826020830160208701611e89565b949350505050565b600067ffffffffffffffff821115611f1457611f14611ba0565b5060051b60200190565b600082601f830112611f2f57600080fd5b81516020611f3f611c9283611efa565b82815260059290921b84018101918181019086841115611f5e57600080fd5b8286015b84811015611f82578051611f7581611ccc565b8352918301918301611f62565b509695505050505050565b600082601f830112611f9e57600080fd5b81516020611fae611c9283611efa565b82815260059290921b84018101918181019086841115611fcd57600080fd5b8286015b84811015611f825780518352918301918301611fd1565b805160ff81168114611dfd57600080fd5b60006020828403121561200b57600080fd5b815167ffffffffffffffff8082111561202357600080fd5b90830190610480828603121561203857600080fd5b612040611bb6565b61204983611e7e565b815260208301518281111561205d57600080fd5b61206987828601611ead565b6020830152506040830151604082015261208560608401611ded565b606082015261209660808401611e56565b60808201526120a760a08401611e7e565b60a08201526120b860c08401611ded565b60c082015260e0830151828111156120cf57600080fd5b6120db87828601611f1e565b60e08301525061010080840151838111156120f557600080fd5b61210188828701611f1e565b828401525050610120808401518381111561211b57600080fd5b61212788828701611f1e565b828401525050610140808401518381111561214157600080fd5b61214d88828701611f8d565b9183019190915250610160838101519082015261018080840151908201526101a080840151908201526101c080840151908201526101e080840151908201526102008084015190820152610220808401519082015261024080840151908201526102606121bb818501611fe8565b908201526102806121cd848201611e7e565b908201526102a083810151908201526102c080840151908201526102e080840151908201526103008084015190820152610320808401519082015261034080840151908201526103608084015190820152610380808401518381111561223257600080fd5b61223e88828701611f1e565b91830191909152506103a083810151908201526103c080840151908201526103e080840151908201526104009150612277828401611ded565b82820152610420915061228b828401611ded565b82820152610440915061229f828401611ded565b8282015261046091506122b3828401611ded565b91810191909152949350505050565b80820281158282048414176108a1576108a1611e1d565b634e487b7160e01b600052603260045260246000fd5b808201808211156108a1576108a1611e1d565b600061ffff808316818103611e4c57611e4c611e1d565b60006020828403121561232b57600080fd5b5051919050565b818103818111156108a1576108a1611e1d565b6020808252602b908201527f496e697469616c697a61626c653a20636f6e7472616374206973206e6f74206960408201526a6e697469616c697a696e6760a81b606082015260800190565b6000600182016123a2576123a2611e1d565b5060010190565b6000826123c657634e487b7160e01b600052601260045260246000fd5b500490565b600082516123dd818460208701611e89565b9190910192915050565b6020815260008251806020840152612406816040850160208701611e89565b601f01601f1916919091016040019291505056fe360894a13ba1a3210667c828492db98dca3e2076cc3735a920a3ca505d382bbc416464726573733a206c6f772d6c6576656c2064656c65676174652063616c6c206661696c6564a264697066735822122077655f9ee18faf42a29a4c2ed732602e68bce0b1e84a73405a335445affd48c464736f6c63430008110033","opcodes":"PUSH1 0xA0 PUSH1 0x40 MSTORE ADDRESS PUSH1 0x80 MSTORE CALLVALUE DUP1 ISZERO PUSH2 0x14 JUMPI PUSH1 0x0 DUP1 REVERT JUMPDEST POP PUSH1 0x80 MLOAD PUSH2 0x2497 PUSH2 0x4C PUSH1 0x0 CODECOPY PUSH1 0x0 DUP2 DUP2 PUSH2 0x624 ADD MSTORE DUP2 DUP2 PUSH2 0x66D ADD MSTORE DUP2 DUP2 PUSH2 0x709 ADD MSTORE DUP2 DUP2 PUSH2 0x749 ADD MSTORE PUSH2 0x7DC ADD MSTORE PUSH2 0x2497 PUSH1 0x0 RETURN INVALID PUSH1 0x80 PUSH1 0x40 MSTORE PUSH1 0x4 CALLDATASIZE LT PUSH2 0x16A JUMPI PUSH1 0x0 CALLDATALOAD PUSH1 0xE0 SHR DUP1 PUSH4 0x81B0E086 GT PUSH2 0xD1 JUMPI DUP1 PUSH4 0xAF2F39D1 GT PUSH2 0x8A JUMPI DUP1 PUSH4 0xD895AF2C GT PUSH2 0x64 JUMPI DUP1 PUSH4 0xD895AF2C EQ PUSH2 0x52A JUMPI DUP1 PUSH4 0xEA62F715 EQ PUSH2 0x54A JUMPI DUP1 PUSH4 0xEAEC6364 EQ PUSH2 0x56A JUMPI DUP1 PUSH4 0xF2FDE38B EQ PUSH2 0x580 JUMPI PUSH1 0x0 DUP1 REVERT JUMPDEST DUP1 PUSH4 0xAF2F39D1 EQ PUSH2 0x3A4 JUMPI DUP1 PUSH4 0xBF46DE63 EQ PUSH2 0x3CE JUMPI DUP1 PUSH4 0xC3AB5EBF EQ PUSH2 0x3EE JUMPI PUSH1 0x0 DUP1 REVERT JUMPDEST DUP1 PUSH4 0x81B0E086 EQ PUSH2 0x2CC JUMPI DUP1 PUSH4 0x8DA5CB5B EQ PUSH2 0x2E2 JUMPI DUP1 PUSH4 0x98C7438E EQ PUSH2 0x30A JUMPI DUP1 PUSH4 0xA0B6105F EQ PUSH2 0x33F JUMPI DUP1 PUSH4 0xA1B80175 EQ PUSH2 0x35F JUMPI DUP1 PUSH4 0xABAB358F EQ PUSH2 0x383 JUMPI PUSH1 0x0 DUP1 REVERT JUMPDEST DUP1 PUSH4 0x52D1902D GT PUSH2 0x123 JUMPI DUP1 PUSH4 0x52D1902D EQ PUSH2 0x237 JUMPI DUP1 PUSH4 0x715018A6 EQ PUSH2 0x24C JUMPI DUP1 PUSH4 0x770CEEB1 EQ PUSH2 0x261 JUMPI DUP1 PUSH4 0x7AB221C5 EQ PUSH2 0x281 JUMPI DUP1 PUSH4 0x7E09C75E EQ PUSH2 0x2A1 JUMPI DUP1 PUSH4 0x8129FC1C EQ PUSH2 0x2B7 JUMPI PUSH1 0x0 DUP1 REVERT JUMPDEST DUP1 PUSH4 0xB243DAD EQ PUSH2 0x176 JUMPI DUP1 PUSH4 0x30ABBCC5 EQ PUSH2 0x198 JUMPI DUP1 PUSH4 0x313CE567 EQ PUSH2 0x1C1 JUMPI DUP1 PUSH4 0x35759788 EQ PUSH2 0x1EF JUMPI DUP1 PUSH4 0x3659CFE6 EQ PUSH2 0x204 JUMPI DUP1 PUSH4 0x4F1EF286 EQ PUSH2 0x224 JUMPI PUSH1 0x0 DUP1 REVERT JUMPDEST CALLDATASIZE PUSH2 0x171 JUMPI STOP JUMPDEST PUSH1 0x0 DUP1 REVERT JUMPDEST CALLVALUE DUP1 ISZERO PUSH2 0x182 JUMPI PUSH1 0x0 DUP1 REVERT JUMPDEST POP PUSH2 0x196 PUSH2 0x191 CALLDATASIZE PUSH1 0x4 PUSH2 0x1B57 JUMP JUMPDEST PUSH2 0x5A0 JUMP JUMPDEST STOP JUMPDEST CALLVALUE DUP1 ISZERO PUSH2 0x1A4 JUMPI PUSH1 0x0 DUP1 REVERT JUMPDEST POP PUSH2 0x1AE PUSH1 0xCA SLOAD DUP2 JUMP JUMPDEST PUSH1 0x40 MLOAD SWAP1 DUP2 MSTORE PUSH1 0x20 ADD JUMPDEST PUSH1 0x40 MLOAD DUP1 SWAP2 SUB SWAP1 RETURN JUMPDEST CALLVALUE DUP1 ISZERO PUSH2 0x1CD JUMPI PUSH1 0x0 DUP1 REVERT JUMPDEST POP PUSH1 0xCC SLOAD PUSH2 0x1DC SWAP1 PUSH2 0xFFFF AND DUP2 JUMP JUMPDEST PUSH1 0x40 MLOAD PUSH2 0xFFFF SWAP1 SWAP2 AND DUP2 MSTORE PUSH1 0x20 ADD PUSH2 0x1B8 JUMP JUMPDEST CALLVALUE DUP1 ISZERO PUSH2 0x1FB JUMPI PUSH1 0x0 DUP1 REVERT JUMPDEST POP PUSH2 0x196 PUSH2 0x5E3 JUMP JUMPDEST CALLVALUE DUP1 ISZERO PUSH2 0x210 JUMPI PUSH1 0x0 DUP1 REVERT JUMPDEST POP PUSH2 0x196 PUSH2 0x21F CALLDATASIZE PUSH1 0x4 PUSH2 0x1B83 JUMP JUMPDEST PUSH2 0x61A JUMP JUMPDEST PUSH2 0x196 PUSH2 0x232 CALLDATASIZE PUSH1 0x4 PUSH2 0x1C39 JUMP JUMPDEST PUSH2 0x6FF JUMP JUMPDEST CALLVALUE DUP1 ISZERO PUSH2 0x243 JUMPI PUSH1 0x0 DUP1 REVERT JUMPDEST POP PUSH2 0x1AE PUSH2 0x7CF JUMP JUMPDEST CALLVALUE DUP1 ISZERO PUSH2 0x258 JUMPI PUSH1 0x0 DUP1 REVERT JUMPDEST POP PUSH2 0x196 PUSH2 0x882 JUMP JUMPDEST CALLVALUE DUP1 ISZERO PUSH2 0x26D JUMPI PUSH1 0x0 DUP1 REVERT JUMPDEST POP PUSH2 0x1AE PUSH2 0x27C CALLDATASIZE PUSH1 0x4 PUSH2 0x1CDE JUMP JUMPDEST PUSH2 0x896 JUMP JUMPDEST CALLVALUE DUP1 ISZERO PUSH2 0x28D JUMPI PUSH1 0x0 DUP1 REVERT JUMPDEST POP PUSH2 0x196 PUSH2 0x29C CALLDATASIZE PUSH1 0x4 PUSH2 0x1CFB JUMP JUMPDEST PUSH2 0x8A7 JUMP JUMPDEST CALLVALUE DUP1 ISZERO PUSH2 0x2AD JUMPI PUSH1 0x0 DUP1 REVERT JUMPDEST POP PUSH2 0x1AE PUSH1 0xCE SLOAD DUP2 JUMP JUMPDEST CALLVALUE DUP1 ISZERO PUSH2 0x2C3 JUMPI PUSH1 0x0 DUP1 REVERT JUMPDEST POP PUSH2 0x196 PUSH2 0x978 JUMP JUMPDEST CALLVALUE DUP1 ISZERO PUSH2 0x2D8 JUMPI PUSH1 0x0 DUP1 REVERT JUMPDEST POP PUSH2 0x1AE PUSH1 0xCD SLOAD DUP2 JUMP JUMPDEST CALLVALUE DUP1 ISZERO PUSH2 0x2EE JUMPI PUSH1 0x0 DUP1 REVERT JUMPDEST POP PUSH1 0x33 SLOAD PUSH1 0x40 MLOAD PUSH1 0x1 PUSH1 0x1 PUSH1 0xA0 SHL SUB SWAP1 SWAP2 AND DUP2 MSTORE PUSH1 0x20 ADD PUSH2 0x1B8 JUMP JUMPDEST CALLVALUE DUP1 ISZERO PUSH2 0x316 JUMPI PUSH1 0x0 DUP1 REVERT JUMPDEST POP PUSH2 0x32A PUSH2 0x325 CALLDATASIZE PUSH1 0x4 PUSH2 0x1D20 JUMP JUMPDEST PUSH2 0xAD1 JUMP JUMPDEST PUSH1 0x40 MLOAD PUSH4 0xFFFFFFFF SWAP1 SWAP2 AND DUP2 MSTORE PUSH1 0x20 ADD PUSH2 0x1B8 JUMP JUMPDEST CALLVALUE DUP1 ISZERO PUSH2 0x34B JUMPI PUSH1 0x0 DUP1 REVERT JUMPDEST POP PUSH2 0x196 PUSH2 0x35A CALLDATASIZE PUSH1 0x4 PUSH2 0x1B57 JUMP JUMPDEST PUSH2 0xB25 JUMP JUMPDEST CALLVALUE DUP1 ISZERO PUSH2 0x36B JUMPI PUSH1 0x0 DUP1 REVERT JUMPDEST POP PUSH1 0xC9 SLOAD PUSH2 0x32A SWAP1 PUSH1 0x1 PUSH1 0xA0 SHL SWAP1 DIV PUSH4 0xFFFFFFFF AND DUP2 JUMP JUMPDEST CALLVALUE DUP1 ISZERO PUSH2 0x38F JUMPI PUSH1 0x0 DUP1 REVERT JUMPDEST POP PUSH1 0xCC SLOAD PUSH2 0x1DC SWAP1 PUSH3 0x10000 SWAP1 DIV PUSH2 0xFFFF AND DUP2 JUMP JUMPDEST CALLVALUE DUP1 ISZERO PUSH2 0x3B0 JUMPI PUSH1 0x0 DUP1 REVERT JUMPDEST POP PUSH1 0xCF SLOAD PUSH2 0x3BE SWAP1 PUSH1 0xFF AND DUP2 JUMP JUMPDEST PUSH1 0x40 MLOAD SWAP1 ISZERO ISZERO DUP2 MSTORE PUSH1 0x20 ADD PUSH2 0x1B8 JUMP JUMPDEST CALLVALUE DUP1 ISZERO PUSH2 0x3DA JUMPI PUSH1 0x0 DUP1 REVERT JUMPDEST POP PUSH2 0x1AE PUSH2 0x3E9 CALLDATASIZE PUSH1 0x4 PUSH2 0x1CDE JUMP JUMPDEST PUSH2 0xB9E JUMP JUMPDEST CALLVALUE DUP1 ISZERO PUSH2 0x3FA JUMPI PUSH1 0x0 DUP1 REVERT JUMPDEST POP PUSH2 0x4C4 PUSH2 0x409 CALLDATASIZE PUSH1 0x4 PUSH2 0x1CDE JUMP JUMPDEST PUSH1 0x40 DUP1 MLOAD PUSH1 0xE0 DUP2 ADD DUP3 MSTORE PUSH1 0x0 DUP1 DUP3 MSTORE PUSH1 0x20 DUP3 ADD DUP2 SWAP1 MSTORE SWAP2 DUP2 ADD DUP3 SWAP1 MSTORE PUSH1 0x60 DUP2 ADD DUP3 SWAP1 MSTORE PUSH1 0x80 DUP2 ADD DUP3 SWAP1 MSTORE PUSH1 0xA0 DUP2 ADD DUP3 SWAP1 MSTORE PUSH1 0xC0 DUP2 ADD SWAP2 SWAP1 SWAP2 MSTORE POP PUSH4 0xFFFFFFFF SWAP1 DUP2 AND PUSH1 0x0 SWAP1 DUP2 MSTORE PUSH1 0xD0 PUSH1 0x20 SWAP1 DUP2 MSTORE PUSH1 0x40 SWAP2 DUP3 SWAP1 KECCAK256 DUP3 MLOAD PUSH1 0xE0 DUP2 ADD DUP5 MSTORE DUP2 SLOAD DUP1 DUP7 AND DUP3 MSTORE PUSH1 0xFF PUSH5 0x100000000 DUP3 DIV AND ISZERO ISZERO SWAP4 DUP3 ADD SWAP4 SWAP1 SWAP4 MSTORE PUSH6 0x10000000000 SWAP1 SWAP3 DIV SWAP1 SWAP4 AND SWAP2 DUP2 ADD SWAP2 SWAP1 SWAP2 MSTORE PUSH1 0x1 DUP3 ADD SLOAD PUSH1 0x60 DUP3 ADD MSTORE PUSH1 0x2 DUP3 ADD SLOAD PUSH2 0xFFFF AND PUSH1 0x80 DUP3 ADD MSTORE PUSH1 0x3 DUP3 ADD SLOAD PUSH1 0xA0 DUP3 ADD MSTORE PUSH1 0x4 SWAP1 SWAP2 ADD SLOAD PUSH1 0xC0 DUP3 ADD MSTORE SWAP1 JUMP JUMPDEST PUSH1 0x40 MLOAD PUSH2 0x1B8 SWAP2 SWAP1 PUSH1 0x0 PUSH1 0xE0 DUP3 ADD SWAP1 POP PUSH4 0xFFFFFFFF DUP1 DUP5 MLOAD AND DUP4 MSTORE PUSH1 0x20 DUP5 ADD MLOAD ISZERO ISZERO PUSH1 0x20 DUP5 ADD MSTORE DUP1 PUSH1 0x40 DUP6 ADD MLOAD AND PUSH1 0x40 DUP5 ADD MSTORE POP PUSH1 0x60 DUP4 ADD MLOAD PUSH1 0x60 DUP4 ADD MSTORE PUSH2 0xFFFF PUSH1 0x80 DUP5 ADD MLOAD AND PUSH1 0x80 DUP4 ADD MSTORE PUSH1 0xA0 DUP4 ADD MLOAD PUSH1 0xA0 DUP4 ADD MSTORE PUSH1 0xC0 DUP4 ADD MLOAD PUSH1 0xC0 DUP4 ADD MSTORE SWAP3 SWAP2 POP POP JUMP JUMPDEST CALLVALUE DUP1 ISZERO PUSH2 0x536 JUMPI PUSH1 0x0 DUP1 REVERT JUMPDEST POP PUSH2 0x196 PUSH2 0x545 CALLDATASIZE PUSH1 0x4 PUSH2 0x1CDE JUMP JUMPDEST PUSH2 0xBA9 JUMP JUMPDEST CALLVALUE DUP1 ISZERO PUSH2 0x556 JUMPI PUSH1 0x0 DUP1 REVERT JUMPDEST POP PUSH2 0x1AE PUSH2 0x565 CALLDATASIZE PUSH1 0x4 PUSH2 0x1CDE JUMP JUMPDEST PUSH2 0xC7C JUMP JUMPDEST CALLVALUE DUP1 ISZERO PUSH2 0x576 JUMPI PUSH1 0x0 DUP1 REVERT JUMPDEST POP PUSH2 0x1AE PUSH1 0xCB SLOAD DUP2 JUMP JUMPDEST CALLVALUE DUP1 ISZERO PUSH2 0x58C JUMPI PUSH1 0x0 DUP1 REVERT JUMPDEST POP PUSH2 0x196 PUSH2 0x59B CALLDATASIZE PUSH1 0x4 PUSH2 0x1B83 JUMP JUMPDEST PUSH2 0xE4D JUMP JUMPDEST PUSH2 0x5A8 PUSH2 0xEC3 JUMP JUMPDEST PUSH1 0x40 MLOAD PUSH1 0x1 PUSH1 0x1 PUSH1 0xA0 SHL SUB DUP4 AND SWAP1 DUP3 ISZERO PUSH2 0x8FC MUL SWAP1 DUP4 SWAP1 PUSH1 0x0 DUP2 DUP2 DUP2 DUP6 DUP9 DUP9 CALL SWAP4 POP POP POP POP ISZERO DUP1 ISZERO PUSH2 0x5DE JUMPI RETURNDATASIZE PUSH1 0x0 DUP1 RETURNDATACOPY RETURNDATASIZE PUSH1 0x0 REVERT JUMPDEST POP POP POP JUMP JUMPDEST PUSH2 0x5EB PUSH2 0xEC3 JUMP JUMPDEST PUSH1 0x40 MLOAD CALLER SWAP1 SELFBALANCE DUP1 ISZERO PUSH2 0x8FC MUL SWAP2 PUSH1 0x0 DUP2 DUP2 DUP2 DUP6 DUP9 DUP9 CALL SWAP4 POP POP POP POP ISZERO DUP1 ISZERO PUSH2 0x617 JUMPI RETURNDATASIZE PUSH1 0x0 DUP1 RETURNDATACOPY RETURNDATASIZE PUSH1 0x0 REVERT JUMPDEST POP JUMP JUMPDEST PUSH1 0x1 PUSH1 0x1 PUSH1 0xA0 SHL SUB PUSH32 0x0 AND ADDRESS SUB PUSH2 0x66B JUMPI PUSH1 0x40 MLOAD PUSH3 0x461BCD PUSH1 0xE5 SHL DUP2 MSTORE PUSH1 0x4 ADD PUSH2 0x662 SWAP1 PUSH2 0x1D55 JUMP JUMPDEST PUSH1 0x40 MLOAD DUP1 SWAP2 SUB SWAP1 REVERT JUMPDEST PUSH32 0x0 PUSH1 0x1 PUSH1 0x1 PUSH1 0xA0 SHL SUB AND PUSH2 0x6B4 PUSH1 0x0 DUP1 MLOAD PUSH1 0x20 PUSH2 0x241B DUP4 CODECOPY DUP2 MLOAD SWAP2 MSTORE SLOAD PUSH1 0x1 PUSH1 0x1 PUSH1 0xA0 SHL SUB AND SWAP1 JUMP JUMPDEST PUSH1 0x1 PUSH1 0x1 PUSH1 0xA0 SHL SUB AND EQ PUSH2 0x6DA JUMPI PUSH1 0x40 MLOAD PUSH3 0x461BCD PUSH1 0xE5 SHL DUP2 MSTORE PUSH1 0x4 ADD PUSH2 0x662 SWAP1 PUSH2 0x1DA1 JUMP JUMPDEST PUSH2 0x6E3 DUP2 PUSH2 0xF1D JUMP JUMPDEST PUSH1 0x40 DUP1 MLOAD PUSH1 0x0 DUP1 DUP3 MSTORE PUSH1 0x20 DUP3 ADD SWAP1 SWAP3 MSTORE PUSH2 0x617 SWAP2 DUP4 SWAP2 SWAP1 PUSH2 0xF25 JUMP JUMPDEST PUSH1 0x1 PUSH1 0x1 PUSH1 0xA0 SHL SUB PUSH32 0x0 AND ADDRESS SUB PUSH2 0x747 JUMPI PUSH1 0x40 MLOAD PUSH3 0x461BCD PUSH1 0xE5 SHL DUP2 MSTORE PUSH1 0x4 ADD PUSH2 0x662 SWAP1 PUSH2 0x1D55 JUMP JUMPDEST PUSH32 0x0 PUSH1 0x1 PUSH1 0x1 PUSH1 0xA0 SHL SUB AND PUSH2 0x790 PUSH1 0x0 DUP1 MLOAD PUSH1 0x20 PUSH2 0x241B DUP4 CODECOPY DUP2 MLOAD SWAP2 MSTORE SLOAD PUSH1 0x1 PUSH1 0x1 PUSH1 0xA0 SHL SUB AND SWAP1 JUMP JUMPDEST PUSH1 0x1 PUSH1 0x1 PUSH1 0xA0 SHL SUB AND EQ PUSH2 0x7B6 JUMPI PUSH1 0x40 MLOAD PUSH3 0x461BCD PUSH1 0xE5 SHL DUP2 MSTORE PUSH1 0x4 ADD PUSH2 0x662 SWAP1 PUSH2 0x1DA1 JUMP JUMPDEST PUSH2 0x7BF DUP3 PUSH2 0xF1D JUMP JUMPDEST PUSH2 0x7CB DUP3 DUP3 PUSH1 0x1 PUSH2 0xF25 JUMP JUMPDEST POP POP JUMP JUMPDEST PUSH1 0x0 ADDRESS PUSH1 0x1 PUSH1 0x1 PUSH1 0xA0 SHL SUB PUSH32 0x0 AND EQ PUSH2 0x86F JUMPI PUSH1 0x40 MLOAD PUSH3 0x461BCD PUSH1 0xE5 SHL DUP2 MSTORE PUSH1 0x20 PUSH1 0x4 DUP3 ADD MSTORE PUSH1 0x38 PUSH1 0x24 DUP3 ADD MSTORE PUSH32 0x555550535570677261646561626C653A206D757374206E6F742062652063616C PUSH1 0x44 DUP3 ADD MSTORE PUSH32 0x6C6564207468726F7567682064656C656761746563616C6C0000000000000000 PUSH1 0x64 DUP3 ADD MSTORE PUSH1 0x84 ADD PUSH2 0x662 JUMP JUMPDEST POP PUSH1 0x0 DUP1 MLOAD PUSH1 0x20 PUSH2 0x241B DUP4 CODECOPY DUP2 MLOAD SWAP2 MSTORE SWAP1 JUMP JUMPDEST PUSH2 0x88A PUSH2 0xEC3 JUMP JUMPDEST PUSH2 0x894 PUSH1 0x0 PUSH2 0x1090 JUMP JUMPDEST JUMP JUMPDEST PUSH1 0x0 PUSH2 0x8A1 DUP3 PUSH2 0x10E2 JUMP JUMPDEST SWAP3 SWAP2 POP POP JUMP JUMPDEST PUSH1 0xC9 SLOAD PUSH1 0x40 MLOAD PUSH4 0x935E01B PUSH1 0xE2 SHL DUP2 MSTORE CALLER PUSH1 0x4 DUP3 ADD MSTORE PUSH1 0x1 PUSH1 0x1 PUSH1 0xA0 SHL SUB SWAP1 SWAP2 AND SWAP1 PUSH4 0x24D7806C SWAP1 PUSH1 0x24 ADD PUSH1 0x20 PUSH1 0x40 MLOAD DUP1 DUP4 SUB DUP2 DUP7 GAS STATICCALL ISZERO DUP1 ISZERO PUSH2 0x8EF JUMPI RETURNDATASIZE PUSH1 0x0 DUP1 RETURNDATACOPY RETURNDATASIZE PUSH1 0x0 REVERT JUMPDEST POP POP POP POP PUSH1 0x40 MLOAD RETURNDATASIZE PUSH1 0x1F NOT PUSH1 0x1F DUP3 ADD AND DUP3 ADD DUP1 PUSH1 0x40 MSTORE POP DUP2 ADD SWAP1 PUSH2 0x913 SWAP2 SWAP1 PUSH2 0x1E02 JUMP JUMPDEST PUSH2 0x954 JUMPI PUSH1 0x40 MLOAD PUSH3 0x461BCD PUSH1 0xE5 SHL DUP2 MSTORE PUSH1 0x20 PUSH1 0x4 DUP3 ADD MSTORE PUSH1 0x12 PUSH1 0x24 DUP3 ADD MSTORE PUSH18 0x2CB7BA9030B932903737BA1030B236B4B717 PUSH1 0x71 SHL PUSH1 0x44 DUP3 ADD MSTORE PUSH1 0x64 ADD PUSH2 0x662 JUMP JUMPDEST PUSH1 0xCC DUP1 SLOAD PUSH2 0xFFFF SWAP1 SWAP4 AND PUSH3 0x10000 MUL PUSH4 0xFFFF0000 NOT SWAP1 SWAP4 AND SWAP3 SWAP1 SWAP3 OR SWAP1 SWAP2 SSTORE PUSH1 0xCE SSTORE JUMP JUMPDEST PUSH1 0x0 SLOAD PUSH2 0x100 SWAP1 DIV PUSH1 0xFF AND ISZERO DUP1 DUP1 ISZERO PUSH2 0x998 JUMPI POP PUSH1 0x0 SLOAD PUSH1 0x1 PUSH1 0xFF SWAP1 SWAP2 AND LT JUMPDEST DUP1 PUSH2 0x9B2 JUMPI POP ADDRESS EXTCODESIZE ISZERO DUP1 ISZERO PUSH2 0x9B2 JUMPI POP PUSH1 0x0 SLOAD PUSH1 0xFF AND PUSH1 0x1 EQ JUMPDEST PUSH2 0xA15 JUMPI PUSH1 0x40 MLOAD PUSH3 0x461BCD PUSH1 0xE5 SHL DUP2 MSTORE PUSH1 0x20 PUSH1 0x4 DUP3 ADD MSTORE PUSH1 0x2E PUSH1 0x24 DUP3 ADD MSTORE PUSH32 0x496E697469616C697A61626C653A20636F6E747261637420697320616C726561 PUSH1 0x44 DUP3 ADD MSTORE PUSH14 0x191E481A5B9A5D1A585B1A5E9959 PUSH1 0x92 SHL PUSH1 0x64 DUP3 ADD MSTORE PUSH1 0x84 ADD PUSH2 0x662 JUMP JUMPDEST PUSH1 0x0 DUP1 SLOAD PUSH1 0xFF NOT AND PUSH1 0x1 OR SWAP1 SSTORE DUP1 ISZERO PUSH2 0xA38 JUMPI PUSH1 0x0 DUP1 SLOAD PUSH2 0xFF00 NOT AND PUSH2 0x100 OR SWAP1 SSTORE JUMPDEST PUSH1 0xC9 DUP1 SLOAD PUSH1 0x1 PUSH1 0x1 PUSH1 0xA0 SHL SUB NOT AND PUSH20 0x7ECF19C95F2639CF0183639DBA852FADE713EEFC OR SWAP1 SSTORE PUSH1 0xCC DUP1 SLOAD PUSH3 0x503E8 PUSH4 0xFFFFFFFF NOT SWAP1 SWAP2 AND OR SWAP1 SSTORE PUSH3 0x15180 PUSH1 0xCE SSTORE PUSH2 0xA81 PUSH2 0x15E3 JUMP JUMPDEST PUSH2 0xA89 PUSH2 0x1612 JUMP JUMPDEST DUP1 ISZERO PUSH2 0x617 JUMPI PUSH1 0x0 DUP1 SLOAD PUSH2 0xFF00 NOT AND SWAP1 SSTORE PUSH1 0x40 MLOAD PUSH1 0x1 DUP2 MSTORE PUSH32 0x7F26B83FF96E1F2B6A682F133852F6798A09C465DA95921460CEFB3847402498 SWAP1 PUSH1 0x20 ADD PUSH1 0x40 MLOAD DUP1 SWAP2 SUB SWAP1 LOG1 POP JUMP JUMPDEST PUSH1 0xC9 DUP1 SLOAD PUSH1 0x0 SWAP2 PUSH1 0x1 PUSH1 0xA0 SHL SWAP1 SWAP2 DIV PUSH4 0xFFFFFFFF AND SWAP1 PUSH1 0x14 PUSH2 0xAF2 DUP4 PUSH2 0x1E33 JUMP JUMPDEST SWAP2 SWAP1 PUSH2 0x100 EXP DUP2 SLOAD DUP2 PUSH4 0xFFFFFFFF MUL NOT AND SWAP1 DUP4 PUSH4 0xFFFFFFFF AND MUL OR SWAP1 SSTORE POP SWAP1 POP PUSH2 0xB1E DUP5 DUP3 DUP6 DUP6 PUSH2 0x1639 JUMP JUMPDEST SWAP4 SWAP3 POP POP POP JUMP JUMPDEST PUSH2 0xB2D PUSH2 0xEC3 JUMP JUMPDEST PUSH1 0x40 MLOAD PUSH4 0xA9059CBB PUSH1 0xE0 SHL DUP2 MSTORE CALLER PUSH1 0x4 DUP3 ADD MSTORE PUSH1 0x24 DUP2 ADD DUP3 SWAP1 MSTORE PUSH1 0x1 PUSH1 0x1 PUSH1 0xA0 SHL SUB DUP4 AND SWAP1 PUSH4 0xA9059CBB SWAP1 PUSH1 0x44 ADD PUSH1 0x20 PUSH1 0x40 MLOAD DUP1 DUP4 SUB DUP2 PUSH1 0x0 DUP8 GAS CALL ISZERO DUP1 ISZERO PUSH2 0xB7A JUMPI RETURNDATASIZE PUSH1 0x0 DUP1 RETURNDATACOPY RETURNDATASIZE PUSH1 0x0 REVERT JUMPDEST POP POP POP POP PUSH1 0x40 MLOAD RETURNDATASIZE PUSH1 0x1F NOT PUSH1 0x1F DUP3 ADD AND DUP3 ADD DUP1 PUSH1 0x40 MSTORE POP DUP2 ADD SWAP1 PUSH2 0x5DE SWAP2 SWAP1 PUSH2 0x1E02 JUMP JUMPDEST PUSH1 0x0 PUSH2 0x8A1 DUP3 PUSH2 0x16C1 JUMP JUMPDEST PUSH1 0xC9 SLOAD PUSH1 0x40 MLOAD PUSH4 0x935E01B PUSH1 0xE2 SHL DUP2 MSTORE CALLER PUSH1 0x4 DUP3 ADD MSTORE PUSH1 0x1 PUSH1 0x1 PUSH1 0xA0 SHL SUB SWAP1 SWAP2 AND SWAP1 PUSH4 0x24D7806C SWAP1 PUSH1 0x24 ADD PUSH1 0x20 PUSH1 0x40 MLOAD DUP1 DUP4 SUB DUP2 DUP7 GAS STATICCALL ISZERO DUP1 ISZERO PUSH2 0xBF1 JUMPI RETURNDATASIZE PUSH1 0x0 DUP1 RETURNDATACOPY RETURNDATASIZE PUSH1 0x0 REVERT JUMPDEST POP POP POP POP PUSH1 0x40 MLOAD RETURNDATASIZE PUSH1 0x1F NOT PUSH1 0x1F DUP3 ADD AND DUP3 ADD DUP1 PUSH1 0x40 MSTORE POP DUP2 ADD SWAP1 PUSH2 0xC15 SWAP2 SWAP1 PUSH2 0x1E02 JUMP JUMPDEST PUSH2 0xC56 JUMPI PUSH1 0x40 MLOAD PUSH3 0x461BCD PUSH1 0xE5 SHL DUP2 MSTORE PUSH1 0x20 PUSH1 0x4 DUP3 ADD MSTORE PUSH1 0x12 PUSH1 0x24 DUP3 ADD MSTORE PUSH18 0x2CB7BA9030B932903737BA1030B236B4B717 PUSH1 0x71 SHL PUSH1 0x44 DUP3 ADD MSTORE PUSH1 0x64 ADD PUSH2 0x662 JUMP JUMPDEST PUSH1 0xC9 DUP1 SLOAD PUSH4 0xFFFFFFFF SWAP1 SWAP3 AND PUSH1 0x1 PUSH1 0xA0 SHL MUL PUSH4 0xFFFFFFFF PUSH1 0xA0 SHL NOT SWAP1 SWAP3 AND SWAP2 SWAP1 SWAP2 OR SWAP1 SSTORE JUMP JUMPDEST PUSH1 0x0 DUP1 PUSH1 0xC9 PUSH1 0x0 SWAP1 SLOAD SWAP1 PUSH2 0x100 EXP SWAP1 DIV PUSH1 0x1 PUSH1 0x1 PUSH1 0xA0 SHL SUB AND PUSH1 0x1 PUSH1 0x1 PUSH1 0xA0 SHL SUB AND PUSH4 0x23442C60 PUSH1 0x40 MLOAD DUP2 PUSH4 0xFFFFFFFF AND PUSH1 0xE0 SHL DUP2 MSTORE PUSH1 0x4 ADD PUSH1 0x20 PUSH1 0x40 MLOAD DUP1 DUP4 SUB DUP2 DUP7 GAS STATICCALL ISZERO DUP1 ISZERO PUSH2 0xCD2 JUMPI RETURNDATASIZE PUSH1 0x0 DUP1 RETURNDATACOPY RETURNDATASIZE PUSH1 0x0 REVERT JUMPDEST POP POP POP POP PUSH1 0x40 MLOAD RETURNDATASIZE PUSH1 0x1F NOT PUSH1 0x1F DUP3 ADD AND DUP3 ADD DUP1 PUSH1 0x40 MSTORE POP DUP2 ADD SWAP1 PUSH2 0xCF6 SWAP2 SWAP1 PUSH2 0x1E61 JUMP JUMPDEST PUSH1 0x40 MLOAD PUSH4 0x21009789 PUSH1 0xE0 SHL DUP2 MSTORE PUSH4 0xFFFFFFFF DUP6 AND PUSH1 0x4 DUP3 ADD MSTORE PUSH1 0x1 PUSH1 0x1 PUSH1 0xA0 SHL SUB SWAP2 SWAP1 SWAP2 AND SWAP1 PUSH4 0x21009789 SWAP1 PUSH1 0x24 ADD PUSH1 0x0 PUSH1 0x40 MLOAD DUP1 DUP4 SUB DUP2 DUP7 GAS STATICCALL ISZERO DUP1 ISZERO PUSH2 0xD42 JUMPI RETURNDATASIZE PUSH1 0x0 DUP1 RETURNDATACOPY RETURNDATASIZE PUSH1 0x0 REVERT JUMPDEST POP POP POP POP PUSH1 0x40 MLOAD RETURNDATASIZE PUSH1 0x0 DUP3 RETURNDATACOPY PUSH1 0x1F RETURNDATASIZE SWAP1 DUP2 ADD PUSH1 0x1F NOT AND DUP3 ADD PUSH1 0x40 MSTORE PUSH2 0xD6A SWAP2 SWAP1 DUP2 ADD SWAP1 PUSH2 0x1FF9 JUMP JUMPDEST PUSH2 0x380 DUP2 ADD MLOAD DUP1 MLOAD PUSH2 0x2E0 DUP4 ADD MLOAD SWAP3 SWAP4 POP SWAP1 SWAP2 PUSH2 0xD88 SWAP1 PUSH1 0x2 PUSH2 0x22C2 JUMP JUMPDEST DUP4 PUSH2 0x2C0 ADD MLOAD LT DUP1 ISZERO PUSH2 0xD9B JUMPI POP PUSH1 0x0 DUP2 GT JUMPDEST DUP1 ISZERO PUSH2 0xDAA JUMPI POP DUP3 PUSH2 0x420 ADD MLOAD ISZERO JUMPDEST ISZERO PUSH2 0xE40 JUMPI PUSH1 0x0 JUMPDEST DUP2 DUP2 PUSH2 0xFFFF AND LT ISZERO PUSH2 0xE3A JUMPI PUSH1 0x0 PUSH1 0xD0 PUSH1 0x0 DUP6 DUP5 PUSH2 0xFFFF AND DUP2 MLOAD DUP2 LT PUSH2 0xDDA JUMPI PUSH2 0xDDA PUSH2 0x22D9 JUMP JUMPDEST PUSH1 0x20 MUL PUSH1 0x20 ADD ADD MLOAD PUSH4 0xFFFFFFFF AND PUSH4 0xFFFFFFFF AND DUP2 MSTORE PUSH1 0x20 ADD SWAP1 DUP2 MSTORE PUSH1 0x20 ADD PUSH1 0x0 KECCAK256 SWAP1 POP DUP1 PUSH1 0x0 ADD PUSH1 0x4 SWAP1 SLOAD SWAP1 PUSH2 0x100 EXP SWAP1 DIV PUSH1 0xFF AND ISZERO PUSH2 0xE27 JUMPI PUSH1 0x1 DUP2 ADD SLOAD PUSH2 0xE24 SWAP1 DUP8 PUSH2 0x22EF JUMP JUMPDEST SWAP6 POP JUMPDEST POP DUP1 PUSH2 0xE32 DUP2 PUSH2 0x2302 JUMP JUMPDEST SWAP2 POP POP PUSH2 0xDB2 JUMP JUMPDEST POP PUSH2 0xE45 JUMP JUMPDEST PUSH1 0x0 SWAP4 POP JUMPDEST POP POP POP SWAP2 SWAP1 POP JUMP JUMPDEST PUSH2 0xE55 PUSH2 0xEC3 JUMP JUMPDEST PUSH1 0x1 PUSH1 0x1 PUSH1 0xA0 SHL SUB DUP2 AND PUSH2 0xEBA JUMPI PUSH1 0x40 MLOAD PUSH3 0x461BCD PUSH1 0xE5 SHL DUP2 MSTORE PUSH1 0x20 PUSH1 0x4 DUP3 ADD MSTORE PUSH1 0x26 PUSH1 0x24 DUP3 ADD MSTORE PUSH32 0x4F776E61626C653A206E6577206F776E657220697320746865207A65726F2061 PUSH1 0x44 DUP3 ADD MSTORE PUSH6 0x646472657373 PUSH1 0xD0 SHL PUSH1 0x64 DUP3 ADD MSTORE PUSH1 0x84 ADD PUSH2 0x662 JUMP JUMPDEST PUSH2 0x617 DUP2 PUSH2 0x1090 JUMP JUMPDEST PUSH1 0x33 SLOAD PUSH1 0x1 PUSH1 0x1 PUSH1 0xA0 SHL SUB AND CALLER EQ PUSH2 0x894 JUMPI PUSH1 0x40 MLOAD PUSH3 0x461BCD PUSH1 0xE5 SHL DUP2 MSTORE PUSH1 0x20 PUSH1 0x4 DUP3 ADD DUP2 SWAP1 MSTORE PUSH1 0x24 DUP3 ADD MSTORE PUSH32 0x4F776E61626C653A2063616C6C6572206973206E6F7420746865206F776E6572 PUSH1 0x44 DUP3 ADD MSTORE PUSH1 0x64 ADD PUSH2 0x662 JUMP JUMPDEST PUSH2 0x617 PUSH2 0xEC3 JUMP JUMPDEST PUSH32 0x4910FDFA16FED3260ED0E7147F7CC6DA11A60208B5B9406D12A635614FFD9143 SLOAD PUSH1 0xFF AND ISZERO PUSH2 0xF58 JUMPI PUSH2 0x5DE DUP4 PUSH2 0x18D9 JUMP JUMPDEST DUP3 PUSH1 0x1 PUSH1 0x1 PUSH1 0xA0 SHL SUB AND PUSH4 0x52D1902D PUSH1 0x40 MLOAD DUP2 PUSH4 0xFFFFFFFF AND PUSH1 0xE0 SHL DUP2 MSTORE PUSH1 0x4 ADD PUSH1 0x20 PUSH1 0x40 MLOAD DUP1 DUP4 SUB DUP2 DUP7 GAS STATICCALL SWAP3 POP POP POP DUP1 ISZERO PUSH2 0xFB2 JUMPI POP PUSH1 0x40 DUP1 MLOAD PUSH1 0x1F RETURNDATASIZE SWAP1 DUP2 ADD PUSH1 0x1F NOT AND DUP3 ADD SWAP1 SWAP3 MSTORE PUSH2 0xFAF SWAP2 DUP2 ADD SWAP1 PUSH2 0x2319 JUMP JUMPDEST PUSH1 0x1 JUMPDEST PUSH2 0x1015 JUMPI PUSH1 0x40 MLOAD PUSH3 0x461BCD PUSH1 0xE5 SHL DUP2 MSTORE PUSH1 0x20 PUSH1 0x4 DUP3 ADD MSTORE PUSH1 0x2E PUSH1 0x24 DUP3 ADD MSTORE PUSH32 0x45524331393637557067726164653A206E657720696D706C656D656E74617469 PUSH1 0x44 DUP3 ADD MSTORE PUSH14 0x6F6E206973206E6F742055555053 PUSH1 0x90 SHL PUSH1 0x64 DUP3 ADD MSTORE PUSH1 0x84 ADD PUSH2 0x662 JUMP JUMPDEST PUSH1 0x0 DUP1 MLOAD PUSH1 0x20 PUSH2 0x241B DUP4 CODECOPY DUP2 MLOAD SWAP2 MSTORE DUP2 EQ PUSH2 0x1084 JUMPI PUSH1 0x40 MLOAD PUSH3 0x461BCD PUSH1 0xE5 SHL DUP2 MSTORE PUSH1 0x20 PUSH1 0x4 DUP3 ADD MSTORE PUSH1 0x29 PUSH1 0x24 DUP3 ADD MSTORE PUSH32 0x45524331393637557067726164653A20756E737570706F727465642070726F78 PUSH1 0x44 DUP3 ADD MSTORE PUSH9 0x1A58589B1955555251 PUSH1 0xBA SHL PUSH1 0x64 DUP3 ADD MSTORE PUSH1 0x84 ADD PUSH2 0x662 JUMP JUMPDEST POP PUSH2 0x5DE DUP4 DUP4 DUP4 PUSH2 0x1975 JUMP JUMPDEST PUSH1 0x33 DUP1 SLOAD PUSH1 0x1 PUSH1 0x1 PUSH1 0xA0 SHL SUB DUP4 DUP2 AND PUSH1 0x1 PUSH1 0x1 PUSH1 0xA0 SHL SUB NOT DUP4 AND DUP2 OR SWAP1 SWAP4 SSTORE PUSH1 0x40 MLOAD SWAP2 AND SWAP2 SWAP1 DUP3 SWAP1 PUSH32 0x8BE0079C531659141344CD1FD0A4F28419497F9722A3DAAFE3B4186F6B6457E0 SWAP1 PUSH1 0x0 SWAP1 LOG3 POP POP JUMP JUMPDEST PUSH1 0x0 DUP1 PUSH1 0xC9 PUSH1 0x0 SWAP1 SLOAD SWAP1 PUSH2 0x100 EXP SWAP1 DIV PUSH1 0x1 PUSH1 0x1 PUSH1 0xA0 SHL SUB AND PUSH1 0x1 PUSH1 0x1 PUSH1 0xA0 SHL SUB AND PUSH4 0x23442C60 PUSH1 0x40 MLOAD DUP2 PUSH4 0xFFFFFFFF AND PUSH1 0xE0 SHL DUP2 MSTORE PUSH1 0x4 ADD PUSH1 0x20 PUSH1 0x40 MLOAD DUP1 DUP4 SUB DUP2 DUP7 GAS STATICCALL ISZERO DUP1 ISZERO PUSH2 0x1138 JUMPI RETURNDATASIZE PUSH1 0x0 DUP1 RETURNDATACOPY RETURNDATASIZE PUSH1 0x0 REVERT JUMPDEST POP POP POP POP PUSH1 0x40 MLOAD RETURNDATASIZE PUSH1 0x1F NOT PUSH1 0x1F DUP3 ADD AND DUP3 ADD DUP1 PUSH1 0x40 MSTORE POP DUP2 ADD SWAP1 PUSH2 0x115C SWAP2 SWAP1 PUSH2 0x1E61 JUMP JUMPDEST PUSH1 0x40 MLOAD PUSH4 0x21009789 PUSH1 0xE0 SHL DUP2 MSTORE PUSH4 0xFFFFFFFF DUP6 AND PUSH1 0x4 DUP3 ADD MSTORE PUSH1 0x1 PUSH1 0x1 PUSH1 0xA0 SHL SUB SWAP2 SWAP1 SWAP2 AND SWAP1 PUSH4 0x21009789 SWAP1 PUSH1 0x24 ADD PUSH1 0x0 PUSH1 0x40 MLOAD DUP1 DUP4 SUB DUP2 DUP7 GAS STATICCALL ISZERO DUP1 ISZERO PUSH2 0x11A8 JUMPI RETURNDATASIZE PUSH1 0x0 DUP1 RETURNDATACOPY RETURNDATASIZE PUSH1 0x0 REVERT JUMPDEST POP POP POP POP PUSH1 0x40 MLOAD RETURNDATASIZE PUSH1 0x0 DUP3 RETURNDATACOPY PUSH1 0x1F RETURNDATASIZE SWAP1 DUP2 ADD PUSH1 0x1F NOT AND DUP3 ADD PUSH1 0x40 MSTORE PUSH2 0x11D0 SWAP2 SWAP1 DUP2 ADD SWAP1 PUSH2 0x1FF9 JUMP JUMPDEST PUSH1 0x80 DUP2 ADD MLOAD SWAP1 SWAP2 POP TIMESTAMP SWAP1 PUSH1 0x1 PUSH1 0x1 PUSH1 0xA0 SHL SUB AND CALLER EQ PUSH2 0x1231 JUMPI PUSH1 0x40 MLOAD PUSH3 0x461BCD PUSH1 0xE5 SHL DUP2 MSTORE PUSH1 0x20 PUSH1 0x4 DUP3 ADD MSTORE PUSH1 0x1D PUSH1 0x24 DUP3 ADD MSTORE PUSH32 0x596F7520617265206E6F74206F776E6572206F6620746869732069642E000000 PUSH1 0x44 DUP3 ADD MSTORE PUSH1 0x64 ADD PUSH2 0x662 JUMP JUMPDEST PUSH1 0xCE SLOAD DUP3 PUSH2 0x3C0 ADD MLOAD PUSH2 0x1244 SWAP2 SWAP1 PUSH2 0x22EF JUMP JUMPDEST TIMESTAMP LT ISZERO PUSH2 0x12A3 JUMPI PUSH1 0x40 MLOAD PUSH3 0x461BCD PUSH1 0xE5 SHL DUP2 MSTORE PUSH1 0x20 PUSH1 0x4 DUP3 ADD MSTORE PUSH1 0x27 PUSH1 0x24 DUP3 ADD MSTORE PUSH32 0x596F7520726F6920636C61696D2074696D656C696D6974206973206E6F74206F PUSH1 0x44 DUP3 ADD MSTORE PUSH7 0xECCAE440F2CAD PUSH1 0xCB SHL PUSH1 0x64 DUP3 ADD MSTORE PUSH1 0x84 ADD PUSH2 0x662 JUMP JUMPDEST PUSH1 0x0 PUSH2 0x12AE DUP6 PUSH2 0x16C1 JUMP JUMPDEST SWAP1 POP DUP3 PUSH2 0x2E0 ADD MLOAD PUSH1 0x2 PUSH2 0x12C2 SWAP2 SWAP1 PUSH2 0x22C2 JUMP JUMPDEST DUP4 PUSH2 0x2C0 ADD MLOAD GT ISZERO DUP1 ISZERO PUSH2 0x12F5 JUMPI POP PUSH2 0x2E0 DUP4 ADD MLOAD PUSH2 0x12E2 SWAP1 PUSH1 0x2 PUSH2 0x22C2 JUMP JUMPDEST DUP2 DUP5 PUSH2 0x2C0 ADD MLOAD PUSH2 0x12F3 SWAP2 SWAP1 PUSH2 0x22EF JUMP JUMPDEST LT JUMPDEST ISZERO PUSH2 0x145B JUMPI DUP1 DUP4 PUSH2 0x2C0 ADD DUP2 DUP2 MLOAD PUSH2 0x130D SWAP2 SWAP1 PUSH2 0x22EF JUMP JUMPDEST SWAP1 MSTORE POP PUSH2 0x3A0 DUP4 ADD DUP1 MLOAD DUP3 SWAP2 SWAP1 PUSH2 0x1325 SWAP1 DUP4 SWAP1 PUSH2 0x22EF JUMP JUMPDEST SWAP1 MSTORE POP PUSH2 0x3C0 DUP4 ADD DUP3 SWAP1 MSTORE PUSH1 0xC9 SLOAD PUSH1 0x40 DUP1 MLOAD PUSH4 0x11A2163 PUSH1 0xE5 SHL DUP2 MSTORE SWAP1 MLOAD SWAP3 SWAP6 POP DUP6 SWAP3 PUSH1 0x1 PUSH1 0x1 PUSH1 0xA0 SHL SUB SWAP1 SWAP3 AND SWAP2 PUSH4 0x23442C60 SWAP2 PUSH1 0x4 DUP1 DUP3 ADD SWAP3 PUSH1 0x20 SWAP3 SWAP1 SWAP2 SWAP1 DUP3 SWAP1 SUB ADD DUP2 DUP7 GAS STATICCALL ISZERO DUP1 ISZERO PUSH2 0x137F JUMPI RETURNDATASIZE PUSH1 0x0 DUP1 RETURNDATACOPY RETURNDATASIZE PUSH1 0x0 REVERT JUMPDEST POP POP POP POP PUSH1 0x40 MLOAD RETURNDATASIZE PUSH1 0x1F NOT PUSH1 0x1F DUP3 ADD AND DUP3 ADD DUP1 PUSH1 0x40 MSTORE POP DUP2 ADD SWAP1 PUSH2 0x13A3 SWAP2 SWAP1 PUSH2 0x1E61 JUMP JUMPDEST PUSH1 0x40 MLOAD PUSH4 0x36660857 PUSH1 0xE1 SHL DUP2 MSTORE PUSH4 0xFFFFFFFF DUP8 AND PUSH1 0x4 DUP3 ADD MSTORE PUSH1 0x24 DUP2 ADD DUP7 SWAP1 MSTORE PUSH1 0x1 PUSH1 0x1 PUSH1 0xA0 SHL SUB SWAP2 SWAP1 SWAP2 AND SWAP1 PUSH4 0x6CCC10AE SWAP1 PUSH1 0x44 ADD PUSH1 0x0 PUSH1 0x40 MLOAD DUP1 DUP4 SUB DUP2 PUSH1 0x0 DUP8 DUP1 EXTCODESIZE ISZERO DUP1 ISZERO PUSH2 0x13F3 JUMPI PUSH1 0x0 DUP1 REVERT JUMPDEST POP GAS CALL ISZERO DUP1 ISZERO PUSH2 0x1407 JUMPI RETURNDATASIZE PUSH1 0x0 DUP1 RETURNDATACOPY RETURNDATASIZE PUSH1 0x0 REVERT JUMPDEST POP POP PUSH1 0x40 MLOAD DUP7 SWAP3 POP PUSH4 0xFFFFFFFF DUP9 AND SWAP2 POP PUSH32 0x7CD8783637A6BF8D3B4B69973A28720CFB0F5ABC55D8B85DDE1732D8F22C0EFC SWAP1 PUSH1 0x0 SWAP1 LOG3 DUP4 PUSH1 0xCA PUSH1 0x0 DUP3 DUP3 SLOAD PUSH2 0x1450 SWAP2 SWAP1 PUSH2 0x22EF JUMP JUMPDEST SWAP1 SWAP2 SSTORE POP PUSH2 0xE45 SWAP1 POP JUMP JUMPDEST PUSH2 0x2E0 DUP4 ADD MLOAD PUSH2 0x146C SWAP1 PUSH1 0x2 PUSH2 0x22C2 JUMP JUMPDEST DUP4 PUSH2 0x2C0 ADD MLOAD GT PUSH2 0xE45 JUMPI PUSH1 0x0 DUP4 PUSH2 0x2C0 ADD MLOAD DUP5 PUSH2 0x2E0 ADD MLOAD PUSH1 0x2 PUSH2 0x1491 SWAP2 SWAP1 PUSH2 0x22C2 JUMP JUMPDEST PUSH2 0x149B SWAP2 SWAP1 PUSH2 0x2332 JUMP JUMPDEST SWAP1 POP DUP4 PUSH2 0x2E0 ADD MLOAD PUSH1 0x2 PUSH2 0x14AF SWAP2 SWAP1 PUSH2 0x22C2 JUMP JUMPDEST PUSH2 0x2C0 DUP6 ADD MSTORE PUSH1 0xC9 SLOAD PUSH1 0x40 DUP1 MLOAD PUSH4 0x11A2163 PUSH1 0xE5 SHL DUP2 MSTORE SWAP1 MLOAD SWAP3 SWAP7 POP DUP7 SWAP3 PUSH1 0x1 PUSH1 0x1 PUSH1 0xA0 SHL SUB SWAP1 SWAP3 AND SWAP2 PUSH4 0x23442C60 SWAP2 PUSH1 0x4 DUP1 DUP3 ADD SWAP3 PUSH1 0x20 SWAP3 SWAP1 SWAP2 SWAP1 DUP3 SWAP1 SUB ADD DUP2 DUP7 GAS STATICCALL ISZERO DUP1 ISZERO PUSH2 0x1504 JUMPI RETURNDATASIZE PUSH1 0x0 DUP1 RETURNDATACOPY RETURNDATASIZE PUSH1 0x0 REVERT JUMPDEST POP POP POP POP PUSH1 0x40 MLOAD RETURNDATASIZE PUSH1 0x1F NOT PUSH1 0x1F DUP3 ADD AND DUP3 ADD DUP1 PUSH1 0x40 MSTORE POP DUP2 ADD SWAP1 PUSH2 0x1528 SWAP2 SWAP1 PUSH2 0x1E61 JUMP JUMPDEST PUSH1 0x40 MLOAD PUSH4 0x36660857 PUSH1 0xE1 SHL DUP2 MSTORE PUSH4 0xFFFFFFFF DUP9 AND PUSH1 0x4 DUP3 ADD MSTORE PUSH1 0x24 DUP2 ADD DUP8 SWAP1 MSTORE PUSH1 0x1 PUSH1 0x1 PUSH1 0xA0 SHL SUB SWAP2 SWAP1 SWAP2 AND SWAP1 PUSH4 0x6CCC10AE SWAP1 PUSH1 0x44 ADD PUSH1 0x0 PUSH1 0x40 MLOAD DUP1 DUP4 SUB DUP2 PUSH1 0x0 DUP8 DUP1 EXTCODESIZE ISZERO DUP1 ISZERO PUSH2 0x1578 JUMPI PUSH1 0x0 DUP1 REVERT JUMPDEST POP GAS CALL ISZERO DUP1 ISZERO PUSH2 0x158C JUMPI RETURNDATASIZE PUSH1 0x0 DUP1 RETURNDATACOPY RETURNDATASIZE PUSH1 0x0 REVERT JUMPDEST POP POP PUSH1 0x40 MLOAD DUP8 SWAP3 POP PUSH4 0xFFFFFFFF DUP10 AND SWAP2 POP PUSH32 0x7CD8783637A6BF8D3B4B69973A28720CFB0F5ABC55D8B85DDE1732D8F22C0EFC SWAP1 PUSH1 0x0 SWAP1 LOG3 DUP1 PUSH1 0xCA PUSH1 0x0 DUP3 DUP3 SLOAD PUSH2 0x15D5 SWAP2 SWAP1 PUSH2 0x22EF JUMP JUMPDEST SWAP1 SWAP2 SSTORE POP POP POP POP POP POP SWAP2 SWAP1 POP JUMP JUMPDEST PUSH1 0x0 SLOAD PUSH2 0x100 SWAP1 DIV PUSH1 0xFF AND PUSH2 0x160A JUMPI PUSH1 0x40 MLOAD PUSH3 0x461BCD PUSH1 0xE5 SHL DUP2 MSTORE PUSH1 0x4 ADD PUSH2 0x662 SWAP1 PUSH2 0x2345 JUMP JUMPDEST PUSH2 0x894 PUSH2 0x19A0 JUMP JUMPDEST PUSH1 0x0 SLOAD PUSH2 0x100 SWAP1 DIV PUSH1 0xFF AND PUSH2 0x894 JUMPI PUSH1 0x40 MLOAD PUSH3 0x461BCD PUSH1 0xE5 SHL DUP2 MSTORE PUSH1 0x4 ADD PUSH2 0x662 SWAP1 PUSH2 0x2345 JUMP JUMPDEST PUSH4 0xFFFFFFFF DUP1 DUP5 AND PUSH1 0x0 SWAP1 DUP2 MSTORE PUSH1 0xD0 PUSH1 0x20 MSTORE PUSH1 0x40 DUP2 KECCAK256 DUP1 SLOAD SWAP3 DUP8 AND PUSH6 0x10000000000 MUL PUSH9 0xFFFFFFFFFF00000000 NOT SWAP1 SWAP4 AND SWAP3 SWAP1 SWAP3 OR PUSH5 0x100000000 OR DUP3 SSTORE PUSH1 0x1 DUP3 ADD DUP5 SWAP1 SSTORE PUSH1 0xCC SLOAD PUSH1 0x2 DUP4 ADD DUP1 SLOAD PUSH2 0xFFFF NOT AND PUSH2 0xFFFF PUSH3 0x10000 SWAP1 SWAP4 DIV SWAP3 SWAP1 SWAP3 AND SWAP2 SWAP1 SWAP2 OR SWAP1 SSTORE PUSH1 0x3 DUP3 ADD DUP4 SWAP1 SSTORE PUSH1 0xCB DUP1 SLOAD SWAP2 PUSH2 0x16B5 DUP4 PUSH2 0x2390 JUMP JUMPDEST SWAP2 SWAP1 POP SSTORE POP POP POP POP POP POP JUMP JUMPDEST PUSH1 0x0 DUP1 PUSH1 0xC9 PUSH1 0x0 SWAP1 SLOAD SWAP1 PUSH2 0x100 EXP SWAP1 DIV PUSH1 0x1 PUSH1 0x1 PUSH1 0xA0 SHL SUB AND PUSH1 0x1 PUSH1 0x1 PUSH1 0xA0 SHL SUB AND PUSH4 0x23442C60 PUSH1 0x40 MLOAD DUP2 PUSH4 0xFFFFFFFF AND PUSH1 0xE0 SHL DUP2 MSTORE PUSH1 0x4 ADD PUSH1 0x20 PUSH1 0x40 MLOAD DUP1 DUP4 SUB DUP2 DUP7 GAS STATICCALL ISZERO DUP1 ISZERO PUSH2 0x1717 JUMPI RETURNDATASIZE PUSH1 0x0 DUP1 RETURNDATACOPY RETURNDATASIZE PUSH1 0x0 REVERT JUMPDEST POP POP POP POP PUSH1 0x40 MLOAD RETURNDATASIZE PUSH1 0x1F NOT PUSH1 0x1F DUP3 ADD AND DUP3 ADD DUP1 PUSH1 0x40 MSTORE POP DUP2 ADD SWAP1 PUSH2 0x173B SWAP2 SWAP1 PUSH2 0x1E61 JUMP JUMPDEST PUSH1 0x40 MLOAD PUSH4 0x21009789 PUSH1 0xE0 SHL DUP2 MSTORE PUSH4 0xFFFFFFFF DUP6 AND PUSH1 0x4 DUP3 ADD MSTORE PUSH1 0x1 PUSH1 0x1 PUSH1 0xA0 SHL SUB SWAP2 SWAP1 SWAP2 AND SWAP1 PUSH4 0x21009789 SWAP1 PUSH1 0x24 ADD PUSH1 0x0 PUSH1 0x40 MLOAD DUP1 DUP4 SUB DUP2 DUP7 GAS STATICCALL ISZERO DUP1 ISZERO PUSH2 0x1787 JUMPI RETURNDATASIZE PUSH1 0x0 DUP1 RETURNDATACOPY RETURNDATASIZE PUSH1 0x0 REVERT JUMPDEST POP POP POP POP PUSH1 0x40 MLOAD RETURNDATASIZE PUSH1 0x0 DUP3 RETURNDATACOPY PUSH1 0x1F RETURNDATASIZE SWAP1 DUP2 ADD PUSH1 0x1F NOT AND DUP3 ADD PUSH1 0x40 MSTORE PUSH2 0x17AF SWAP2 SWAP1 DUP2 ADD SWAP1 PUSH2 0x1FF9 JUMP JUMPDEST PUSH2 0x380 DUP2 ADD MLOAD DUP1 MLOAD PUSH2 0x2E0 DUP4 ADD MLOAD SWAP3 SWAP4 POP SWAP1 SWAP2 PUSH2 0x17CD SWAP1 PUSH1 0x2 PUSH2 0x22C2 JUMP JUMPDEST DUP4 PUSH2 0x2C0 ADD MLOAD LT DUP1 ISZERO PUSH2 0x17E0 JUMPI POP PUSH1 0x0 DUP2 GT JUMPDEST DUP1 ISZERO PUSH2 0x17EF JUMPI POP DUP3 PUSH2 0x420 ADD MLOAD ISZERO JUMPDEST ISZERO PUSH2 0xE40 JUMPI PUSH1 0x0 JUMPDEST DUP2 DUP2 PUSH2 0xFFFF AND LT ISZERO PUSH2 0xE3A JUMPI PUSH1 0x0 PUSH1 0xD0 PUSH1 0x0 DUP6 DUP5 PUSH2 0xFFFF AND DUP2 MLOAD DUP2 LT PUSH2 0x181F JUMPI PUSH2 0x181F PUSH2 0x22D9 JUMP JUMPDEST PUSH1 0x20 MUL PUSH1 0x20 ADD ADD MLOAD PUSH4 0xFFFFFFFF AND PUSH4 0xFFFFFFFF AND DUP2 MSTORE PUSH1 0x20 ADD SWAP1 DUP2 MSTORE PUSH1 0x20 ADD PUSH1 0x0 KECCAK256 SWAP1 POP DUP1 PUSH1 0x0 ADD PUSH1 0x4 SWAP1 SLOAD SWAP1 PUSH2 0x100 EXP SWAP1 DIV PUSH1 0xFF AND ISZERO PUSH2 0x18C6 JUMPI PUSH1 0xCC SLOAD PUSH1 0x1 DUP3 ADD SLOAD PUSH1 0x0 SWAP2 PUSH2 0xFFFF DUP1 DUP3 AND SWAP3 PUSH2 0x187F SWAP3 PUSH3 0x10000 SWAP1 DIV SWAP1 SWAP2 AND SWAP1 PUSH2 0x22C2 JUMP JUMPDEST PUSH2 0x1889 SWAP2 SWAP1 PUSH2 0x23A9 JUMP JUMPDEST SWAP1 POP PUSH1 0x0 DUP3 PUSH1 0x3 ADD SLOAD TIMESTAMP PUSH2 0x189D SWAP2 SWAP1 PUSH2 0x2332 JUMP JUMPDEST SWAP1 POP PUSH3 0x15180 PUSH2 0x18AD DUP3 DUP5 PUSH2 0x22C2 JUMP JUMPDEST PUSH2 0x18B7 SWAP2 SWAP1 PUSH2 0x23A9 JUMP JUMPDEST PUSH2 0x18C1 SWAP1 DUP10 PUSH2 0x22EF JUMP JUMPDEST SWAP8 POP POP POP JUMPDEST POP DUP1 PUSH2 0x18D1 DUP2 PUSH2 0x2302 JUMP JUMPDEST SWAP2 POP POP PUSH2 0x17F7 JUMP JUMPDEST PUSH1 0x1 PUSH1 0x1 PUSH1 0xA0 SHL SUB DUP2 AND EXTCODESIZE PUSH2 0x1946 JUMPI PUSH1 0x40 MLOAD PUSH3 0x461BCD PUSH1 0xE5 SHL DUP2 MSTORE PUSH1 0x20 PUSH1 0x4 DUP3 ADD MSTORE PUSH1 0x2D PUSH1 0x24 DUP3 ADD MSTORE PUSH32 0x455243313936373A206E657720696D706C656D656E746174696F6E206973206E PUSH1 0x44 DUP3 ADD MSTORE PUSH13 0x1BDD08184818DBDB9D1C9858DD PUSH1 0x9A SHL PUSH1 0x64 DUP3 ADD MSTORE PUSH1 0x84 ADD PUSH2 0x662 JUMP JUMPDEST PUSH1 0x0 DUP1 MLOAD PUSH1 0x20 PUSH2 0x241B DUP4 CODECOPY DUP2 MLOAD SWAP2 MSTORE DUP1 SLOAD PUSH1 0x1 PUSH1 0x1 PUSH1 0xA0 SHL SUB NOT AND PUSH1 0x1 PUSH1 0x1 PUSH1 0xA0 SHL SUB SWAP3 SWAP1 SWAP3 AND SWAP2 SWAP1 SWAP2 OR SWAP1 SSTORE JUMP JUMPDEST PUSH2 0x197E DUP4 PUSH2 0x19D0 JUMP JUMPDEST PUSH1 0x0 DUP3 MLOAD GT DUP1 PUSH2 0x198B JUMPI POP DUP1 JUMPDEST ISZERO PUSH2 0x5DE JUMPI PUSH2 0x199A DUP4 DUP4 PUSH2 0x1A10 JUMP JUMPDEST POP POP POP POP JUMP JUMPDEST PUSH1 0x0 SLOAD PUSH2 0x100 SWAP1 DIV PUSH1 0xFF AND PUSH2 0x19C7 JUMPI PUSH1 0x40 MLOAD PUSH3 0x461BCD PUSH1 0xE5 SHL DUP2 MSTORE PUSH1 0x4 ADD PUSH2 0x662 SWAP1 PUSH2 0x2345 JUMP JUMPDEST PUSH2 0x894 CALLER PUSH2 0x1090 JUMP JUMPDEST PUSH2 0x19D9 DUP2 PUSH2 0x18D9 JUMP JUMPDEST PUSH1 0x40 MLOAD PUSH1 0x1 PUSH1 0x1 PUSH1 0xA0 SHL SUB DUP3 AND SWAP1 PUSH32 0xBC7CD75A20EE27FD9ADEBAB32041F755214DBC6BFFA90CC0225B39DA2E5C2D3B SWAP1 PUSH1 0x0 SWAP1 LOG2 POP JUMP JUMPDEST PUSH1 0x60 PUSH1 0x1 PUSH1 0x1 PUSH1 0xA0 SHL SUB DUP4 AND EXTCODESIZE PUSH2 0x1A78 JUMPI PUSH1 0x40 MLOAD PUSH3 0x461BCD PUSH1 0xE5 SHL DUP2 MSTORE PUSH1 0x20 PUSH1 0x4 DUP3 ADD MSTORE PUSH1 0x26 PUSH1 0x24 DUP3 ADD MSTORE PUSH32 0x416464726573733A2064656C65676174652063616C6C20746F206E6F6E2D636F PUSH1 0x44 DUP3 ADD MSTORE PUSH6 0x1B9D1C9858DD PUSH1 0xD2 SHL PUSH1 0x64 DUP3 ADD MSTORE PUSH1 0x84 ADD PUSH2 0x662 JUMP JUMPDEST PUSH1 0x0 DUP1 DUP5 PUSH1 0x1 PUSH1 0x1 PUSH1 0xA0 SHL SUB AND DUP5 PUSH1 0x40 MLOAD PUSH2 0x1A93 SWAP2 SWAP1 PUSH2 0x23CB JUMP JUMPDEST PUSH1 0x0 PUSH1 0x40 MLOAD DUP1 DUP4 SUB DUP2 DUP6 GAS DELEGATECALL SWAP2 POP POP RETURNDATASIZE DUP1 PUSH1 0x0 DUP2 EQ PUSH2 0x1ACE JUMPI PUSH1 0x40 MLOAD SWAP2 POP PUSH1 0x1F NOT PUSH1 0x3F RETURNDATASIZE ADD AND DUP3 ADD PUSH1 0x40 MSTORE RETURNDATASIZE DUP3 MSTORE RETURNDATASIZE PUSH1 0x0 PUSH1 0x20 DUP5 ADD RETURNDATACOPY PUSH2 0x1AD3 JUMP JUMPDEST PUSH1 0x60 SWAP2 POP JUMPDEST POP SWAP2 POP SWAP2 POP PUSH2 0x1AFB DUP3 DUP3 PUSH1 0x40 MLOAD DUP1 PUSH1 0x60 ADD PUSH1 0x40 MSTORE DUP1 PUSH1 0x27 DUP2 MSTORE PUSH1 0x20 ADD PUSH2 0x243B PUSH1 0x27 SWAP2 CODECOPY PUSH2 0x1B04 JUMP JUMPDEST SWAP6 SWAP5 POP POP POP POP POP JUMP JUMPDEST PUSH1 0x60 DUP4 ISZERO PUSH2 0x1B13 JUMPI POP DUP2 PUSH2 0xB1E JUMP JUMPDEST PUSH2 0xB1E DUP4 DUP4 DUP2 MLOAD ISZERO PUSH2 0x1B28 JUMPI DUP2 MLOAD DUP1 DUP4 PUSH1 0x20 ADD REVERT JUMPDEST DUP1 PUSH1 0x40 MLOAD PUSH3 0x461BCD PUSH1 0xE5 SHL DUP2 MSTORE PUSH1 0x4 ADD PUSH2 0x662 SWAP2 SWAP1 PUSH2 0x23E7 JUMP JUMPDEST PUSH1 0x1 PUSH1 0x1 PUSH1 0xA0 SHL SUB DUP2 AND DUP2 EQ PUSH2 0x617 JUMPI PUSH1 0x0 DUP1 REVERT JUMPDEST PUSH1 0x0 DUP1 PUSH1 0x40 DUP4 DUP6 SUB SLT ISZERO PUSH2 0x1B6A JUMPI PUSH1 0x0 DUP1 REVERT JUMPDEST DUP3 CALLDATALOAD PUSH2 0x1B75 DUP2 PUSH2 0x1B42 JUMP JUMPDEST SWAP5 PUSH1 0x20 SWAP4 SWAP1 SWAP4 ADD CALLDATALOAD SWAP4 POP POP POP JUMP JUMPDEST PUSH1 0x0 PUSH1 0x20 DUP3 DUP5 SUB SLT ISZERO PUSH2 0x1B95 JUMPI PUSH1 0x0 DUP1 REVERT JUMPDEST DUP2 CALLDATALOAD PUSH2 0xB1E DUP2 PUSH2 0x1B42 JUMP JUMPDEST PUSH4 0x4E487B71 PUSH1 0xE0 SHL PUSH1 0x0 MSTORE PUSH1 0x41 PUSH1 0x4 MSTORE PUSH1 0x24 PUSH1 0x0 REVERT JUMPDEST PUSH1 0x40 MLOAD PUSH2 0x480 DUP2 ADD PUSH8 0xFFFFFFFFFFFFFFFF DUP2 GT DUP3 DUP3 LT OR ISZERO PUSH2 0x1BDA JUMPI PUSH2 0x1BDA PUSH2 0x1BA0 JUMP JUMPDEST PUSH1 0x40 MSTORE SWAP1 JUMP JUMPDEST PUSH1 0x40 MLOAD PUSH1 0x1F DUP3 ADD PUSH1 0x1F NOT AND DUP2 ADD PUSH8 0xFFFFFFFFFFFFFFFF DUP2 GT DUP3 DUP3 LT OR ISZERO PUSH2 0x1C09 JUMPI PUSH2 0x1C09 PUSH2 0x1BA0 JUMP JUMPDEST PUSH1 0x40 MSTORE SWAP2 SWAP1 POP JUMP JUMPDEST PUSH1 0x0 PUSH8 0xFFFFFFFFFFFFFFFF DUP3 GT ISZERO PUSH2 0x1C2B JUMPI PUSH2 0x1C2B PUSH2 0x1BA0 JUMP JUMPDEST POP PUSH1 0x1F ADD PUSH1 0x1F NOT AND PUSH1 0x20 ADD SWAP1 JUMP JUMPDEST PUSH1 0x0 DUP1 PUSH1 0x40 DUP4 DUP6 SUB SLT ISZERO PUSH2 0x1C4C JUMPI PUSH1 0x0 DUP1 REVERT JUMPDEST DUP3 CALLDATALOAD PUSH2 0x1C57 DUP2 PUSH2 0x1B42 JUMP JUMPDEST SWAP2 POP PUSH1 0x20 DUP4 ADD CALLDATALOAD PUSH8 0xFFFFFFFFFFFFFFFF DUP2 GT ISZERO PUSH2 0x1C73 JUMPI PUSH1 0x0 DUP1 REVERT JUMPDEST DUP4 ADD PUSH1 0x1F DUP2 ADD DUP6 SGT PUSH2 0x1C84 JUMPI PUSH1 0x0 DUP1 REVERT JUMPDEST DUP1 CALLDATALOAD PUSH2 0x1C97 PUSH2 0x1C92 DUP3 PUSH2 0x1C11 JUMP JUMPDEST PUSH2 0x1BE0 JUMP JUMPDEST DUP2 DUP2 MSTORE DUP7 PUSH1 0x20 DUP4 DUP6 ADD ADD GT ISZERO PUSH2 0x1CAC JUMPI PUSH1 0x0 DUP1 REVERT JUMPDEST DUP2 PUSH1 0x20 DUP5 ADD PUSH1 0x20 DUP4 ADD CALLDATACOPY PUSH1 0x0 PUSH1 0x20 DUP4 DUP4 ADD ADD MSTORE DUP1 SWAP4 POP POP POP POP SWAP3 POP SWAP3 SWAP1 POP JUMP JUMPDEST PUSH4 0xFFFFFFFF DUP2 AND DUP2 EQ PUSH2 0x617 JUMPI PUSH1 0x0 DUP1 REVERT JUMPDEST PUSH1 0x0 PUSH1 0x20 DUP3 DUP5 SUB SLT ISZERO PUSH2 0x1CF0 JUMPI PUSH1 0x0 DUP1 REVERT JUMPDEST DUP2 CALLDATALOAD PUSH2 0xB1E DUP2 PUSH2 0x1CCC JUMP JUMPDEST PUSH1 0x0 DUP1 PUSH1 0x40 DUP4 DUP6 SUB SLT ISZERO PUSH2 0x1D0E JUMPI PUSH1 0x0 DUP1 REVERT JUMPDEST DUP3 CALLDATALOAD PUSH2 0xFFFF DUP2 AND DUP2 EQ PUSH2 0x1B75 JUMPI PUSH1 0x0 DUP1 REVERT JUMPDEST PUSH1 0x0 DUP1 PUSH1 0x0 PUSH1 0x60 DUP5 DUP7 SUB SLT ISZERO PUSH2 0x1D35 JUMPI PUSH1 0x0 DUP1 REVERT JUMPDEST DUP4 CALLDATALOAD PUSH2 0x1D40 DUP2 PUSH2 0x1CCC JUMP JUMPDEST SWAP6 PUSH1 0x20 DUP6 ADD CALLDATALOAD SWAP6 POP PUSH1 0x40 SWAP1 SWAP5 ADD CALLDATALOAD SWAP4 SWAP3 POP POP POP JUMP JUMPDEST PUSH1 0x20 DUP1 DUP3 MSTORE PUSH1 0x2C SWAP1 DUP3 ADD MSTORE PUSH32 0x46756E6374696F6E206D7573742062652063616C6C6564207468726F75676820 PUSH1 0x40 DUP3 ADD MSTORE PUSH12 0x19195B1959D85D1958D85B1B PUSH1 0xA2 SHL PUSH1 0x60 DUP3 ADD MSTORE PUSH1 0x80 ADD SWAP1 JUMP JUMPDEST PUSH1 0x20 DUP1 DUP3 MSTORE PUSH1 0x2C SWAP1 DUP3 ADD MSTORE PUSH32 0x46756E6374696F6E206D7573742062652063616C6C6564207468726F75676820 PUSH1 0x40 DUP3 ADD MSTORE PUSH12 0x6163746976652070726F7879 PUSH1 0xA0 SHL PUSH1 0x60 DUP3 ADD MSTORE PUSH1 0x80 ADD SWAP1 JUMP JUMPDEST DUP1 MLOAD DUP1 ISZERO ISZERO DUP2 EQ PUSH2 0x1DFD JUMPI PUSH1 0x0 DUP1 REVERT JUMPDEST SWAP2 SWAP1 POP JUMP JUMPDEST PUSH1 0x0 PUSH1 0x20 DUP3 DUP5 SUB SLT ISZERO PUSH2 0x1E14 JUMPI PUSH1 0x0 DUP1 REVERT JUMPDEST PUSH2 0xB1E DUP3 PUSH2 0x1DED JUMP JUMPDEST PUSH4 0x4E487B71 PUSH1 0xE0 SHL PUSH1 0x0 MSTORE PUSH1 0x11 PUSH1 0x4 MSTORE PUSH1 0x24 PUSH1 0x0 REVERT JUMPDEST PUSH1 0x0 PUSH4 0xFFFFFFFF DUP1 DUP4 AND DUP2 DUP2 SUB PUSH2 0x1E4C JUMPI PUSH2 0x1E4C PUSH2 0x1E1D JUMP JUMPDEST PUSH1 0x1 ADD SWAP4 SWAP3 POP POP POP JUMP JUMPDEST DUP1 MLOAD PUSH2 0x1DFD DUP2 PUSH2 0x1B42 JUMP JUMPDEST PUSH1 0x0 PUSH1 0x20 DUP3 DUP5 SUB SLT ISZERO PUSH2 0x1E73 JUMPI PUSH1 0x0 DUP1 REVERT JUMPDEST DUP2 MLOAD PUSH2 0xB1E DUP2 PUSH2 0x1B42 JUMP JUMPDEST DUP1 MLOAD PUSH2 0x1DFD DUP2 PUSH2 0x1CCC JUMP JUMPDEST PUSH1 0x0 JUMPDEST DUP4 DUP2 LT ISZERO PUSH2 0x1EA4 JUMPI DUP2 DUP2 ADD MLOAD DUP4 DUP3 ADD MSTORE PUSH1 0x20 ADD PUSH2 0x1E8C JUMP JUMPDEST POP POP PUSH1 0x0 SWAP2 ADD MSTORE JUMP JUMPDEST PUSH1 0x0 DUP3 PUSH1 0x1F DUP4 ADD SLT PUSH2 0x1EBE JUMPI PUSH1 0x0 DUP1 REVERT JUMPDEST DUP2 MLOAD PUSH2 0x1ECC PUSH2 0x1C92 DUP3 PUSH2 0x1C11 JUMP JUMPDEST DUP2 DUP2 MSTORE DUP5 PUSH1 0x20 DUP4 DUP7 ADD ADD GT ISZERO PUSH2 0x1EE1 JUMPI PUSH1 0x0 DUP1 REVERT JUMPDEST PUSH2 0x1EF2 DUP3 PUSH1 0x20 DUP4 ADD PUSH1 0x20 DUP8 ADD PUSH2 0x1E89 JUMP JUMPDEST SWAP5 SWAP4 POP POP POP POP JUMP JUMPDEST PUSH1 0x0 PUSH8 0xFFFFFFFFFFFFFFFF DUP3 GT ISZERO PUSH2 0x1F14 JUMPI PUSH2 0x1F14 PUSH2 0x1BA0 JUMP JUMPDEST POP PUSH1 0x5 SHL PUSH1 0x20 ADD SWAP1 JUMP JUMPDEST PUSH1 0x0 DUP3 PUSH1 0x1F DUP4 ADD SLT PUSH2 0x1F2F JUMPI PUSH1 0x0 DUP1 REVERT JUMPDEST DUP2 MLOAD PUSH1 0x20 PUSH2 0x1F3F PUSH2 0x1C92 DUP4 PUSH2 0x1EFA JUMP JUMPDEST DUP3 DUP2 MSTORE PUSH1 0x5 SWAP3 SWAP1 SWAP3 SHL DUP5 ADD DUP2 ADD SWAP2 DUP2 DUP2 ADD SWAP1 DUP7 DUP5 GT ISZERO PUSH2 0x1F5E JUMPI PUSH1 0x0 DUP1 REVERT JUMPDEST DUP3 DUP7 ADD JUMPDEST DUP5 DUP2 LT ISZERO PUSH2 0x1F82 JUMPI DUP1 MLOAD PUSH2 0x1F75 DUP2 PUSH2 0x1CCC JUMP JUMPDEST DUP4 MSTORE SWAP2 DUP4 ADD SWAP2 DUP4 ADD PUSH2 0x1F62 JUMP JUMPDEST POP SWAP7 SWAP6 POP POP POP POP POP POP JUMP JUMPDEST PUSH1 0x0 DUP3 PUSH1 0x1F DUP4 ADD SLT PUSH2 0x1F9E JUMPI PUSH1 0x0 DUP1 REVERT JUMPDEST DUP2 MLOAD PUSH1 0x20 PUSH2 0x1FAE PUSH2 0x1C92 DUP4 PUSH2 0x1EFA JUMP JUMPDEST DUP3 DUP2 MSTORE PUSH1 0x5 SWAP3 SWAP1 SWAP3 SHL DUP5 ADD DUP2 ADD SWAP2 DUP2 DUP2 ADD SWAP1 DUP7 DUP5 GT ISZERO PUSH2 0x1FCD JUMPI PUSH1 0x0 DUP1 REVERT JUMPDEST DUP3 DUP7 ADD JUMPDEST DUP5 DUP2 LT ISZERO PUSH2 0x1F82 JUMPI DUP1 MLOAD DUP4 MSTORE SWAP2 DUP4 ADD SWAP2 DUP4 ADD PUSH2 0x1FD1 JUMP JUMPDEST DUP1 MLOAD PUSH1 0xFF DUP2 AND DUP2 EQ PUSH2 0x1DFD JUMPI PUSH1 0x0 DUP1 REVERT JUMPDEST PUSH1 0x0 PUSH1 0x20 DUP3 DUP5 SUB SLT ISZERO PUSH2 0x200B JUMPI PUSH1 0x0 DUP1 REVERT JUMPDEST DUP2 MLOAD PUSH8 0xFFFFFFFFFFFFFFFF DUP1 DUP3 GT ISZERO PUSH2 0x2023 JUMPI PUSH1 0x0 DUP1 REVERT JUMPDEST SWAP1 DUP4 ADD SWAP1 PUSH2 0x480 DUP3 DUP7 SUB SLT ISZERO PUSH2 0x2038 JUMPI PUSH1 0x0 DUP1 REVERT JUMPDEST PUSH2 0x2040 PUSH2 0x1BB6 JUMP JUMPDEST PUSH2 0x2049 DUP4 PUSH2 0x1E7E JUMP JUMPDEST DUP2 MSTORE PUSH1 0x20 DUP4 ADD MLOAD DUP3 DUP2 GT ISZERO PUSH2 0x205D JUMPI PUSH1 0x0 DUP1 REVERT JUMPDEST PUSH2 0x2069 DUP8 DUP3 DUP7 ADD PUSH2 0x1EAD JUMP JUMPDEST PUSH1 0x20 DUP4 ADD MSTORE POP PUSH1 0x40 DUP4 ADD MLOAD PUSH1 0x40 DUP3 ADD MSTORE PUSH2 0x2085 PUSH1 0x60 DUP5 ADD PUSH2 0x1DED JUMP JUMPDEST PUSH1 0x60 DUP3 ADD MSTORE PUSH2 0x2096 PUSH1 0x80 DUP5 ADD PUSH2 0x1E56 JUMP JUMPDEST PUSH1 0x80 DUP3 ADD MSTORE PUSH2 0x20A7 PUSH1 0xA0 DUP5 ADD PUSH2 0x1E7E JUMP JUMPDEST PUSH1 0xA0 DUP3 ADD MSTORE PUSH2 0x20B8 PUSH1 0xC0 DUP5 ADD PUSH2 0x1DED JUMP JUMPDEST PUSH1 0xC0 DUP3 ADD MSTORE PUSH1 0xE0 DUP4 ADD MLOAD DUP3 DUP2 GT ISZERO PUSH2 0x20CF JUMPI PUSH1 0x0 DUP1 REVERT JUMPDEST PUSH2 0x20DB DUP8 DUP3 DUP7 ADD PUSH2 0x1F1E JUMP JUMPDEST PUSH1 0xE0 DUP4 ADD MSTORE POP PUSH2 0x100 DUP1 DUP5 ADD MLOAD DUP4 DUP2 GT ISZERO PUSH2 0x20F5 JUMPI PUSH1 0x0 DUP1 REVERT JUMPDEST PUSH2 0x2101 DUP9 DUP3 DUP8 ADD PUSH2 0x1F1E JUMP JUMPDEST DUP3 DUP5 ADD MSTORE POP POP PUSH2 0x120 DUP1 DUP5 ADD MLOAD DUP4 DUP2 GT ISZERO PUSH2 0x211B JUMPI PUSH1 0x0 DUP1 REVERT JUMPDEST PUSH2 0x2127 DUP9 DUP3 DUP8 ADD PUSH2 0x1F1E JUMP JUMPDEST DUP3 DUP5 ADD MSTORE POP POP PUSH2 0x140 DUP1 DUP5 ADD MLOAD DUP4 DUP2 GT ISZERO PUSH2 0x2141 JUMPI PUSH1 0x0 DUP1 REVERT JUMPDEST PUSH2 0x214D DUP9 DUP3 DUP8 ADD PUSH2 0x1F8D JUMP JUMPDEST SWAP2 DUP4 ADD SWAP2 SWAP1 SWAP2 MSTORE POP PUSH2 0x160 DUP4 DUP2 ADD MLOAD SWAP1 DUP3 ADD MSTORE PUSH2 0x180 DUP1 DUP5 ADD MLOAD SWAP1 DUP3 ADD MSTORE PUSH2 0x1A0 DUP1 DUP5 ADD MLOAD SWAP1 DUP3 ADD MSTORE PUSH2 0x1C0 DUP1 DUP5 ADD MLOAD SWAP1 DUP3 ADD MSTORE PUSH2 0x1E0 DUP1 DUP5 ADD MLOAD SWAP1 DUP3 ADD MSTORE PUSH2 0x200 DUP1 DUP5 ADD MLOAD SWAP1 DUP3 ADD MSTORE PUSH2 0x220 DUP1 DUP5 ADD MLOAD SWAP1 DUP3 ADD MSTORE PUSH2 0x240 DUP1 DUP5 ADD MLOAD SWAP1 DUP3 ADD MSTORE PUSH2 0x260 PUSH2 0x21BB DUP2 DUP6 ADD PUSH2 0x1FE8 JUMP JUMPDEST SWAP1 DUP3 ADD MSTORE PUSH2 0x280 PUSH2 0x21CD DUP5 DUP3 ADD PUSH2 0x1E7E JUMP JUMPDEST SWAP1 DUP3 ADD MSTORE PUSH2 0x2A0 DUP4 DUP2 ADD MLOAD SWAP1 DUP3 ADD MSTORE PUSH2 0x2C0 DUP1 DUP5 ADD MLOAD SWAP1 DUP3 ADD MSTORE PUSH2 0x2E0 DUP1 DUP5 ADD MLOAD SWAP1 DUP3 ADD MSTORE PUSH2 0x300 DUP1 DUP5 ADD MLOAD SWAP1 DUP3 ADD MSTORE PUSH2 0x320 DUP1 DUP5 ADD MLOAD SWAP1 DUP3 ADD MSTORE PUSH2 0x340 DUP1 DUP5 ADD MLOAD SWAP1 DUP3 ADD MSTORE PUSH2 0x360 DUP1 DUP5 ADD MLOAD SWAP1 DUP3 ADD MSTORE PUSH2 0x380 DUP1 DUP5 ADD MLOAD DUP4 DUP2 GT ISZERO PUSH2 0x2232 JUMPI PUSH1 0x0 DUP1 REVERT JUMPDEST PUSH2 0x223E DUP9 DUP3 DUP8 ADD PUSH2 0x1F1E JUMP JUMPDEST SWAP2 DUP4 ADD SWAP2 SWAP1 SWAP2 MSTORE POP PUSH2 0x3A0 DUP4 DUP2 ADD MLOAD SWAP1 DUP3 ADD MSTORE PUSH2 0x3C0 DUP1 DUP5 ADD MLOAD SWAP1 DUP3 ADD MSTORE PUSH2 0x3E0 DUP1 DUP5 ADD MLOAD SWAP1 DUP3 ADD MSTORE PUSH2 0x400 SWAP2 POP PUSH2 0x2277 DUP3 DUP5 ADD PUSH2 0x1DED JUMP JUMPDEST DUP3 DUP3 ADD MSTORE PUSH2 0x420 SWAP2 POP PUSH2 0x228B DUP3 DUP5 ADD PUSH2 0x1DED JUMP JUMPDEST DUP3 DUP3 ADD MSTORE PUSH2 0x440 SWAP2 POP PUSH2 0x229F DUP3 DUP5 ADD PUSH2 0x1DED JUMP JUMPDEST DUP3 DUP3 ADD MSTORE PUSH2 0x460 SWAP2 POP PUSH2 0x22B3 DUP3 DUP5 ADD PUSH2 0x1DED JUMP JUMPDEST SWAP2 DUP2 ADD SWAP2 SWAP1 SWAP2 MSTORE SWAP5 SWAP4 POP POP POP POP JUMP JUMPDEST DUP1 DUP3 MUL DUP2 ISZERO DUP3 DUP3 DIV DUP5 EQ OR PUSH2 0x8A1 JUMPI PUSH2 0x8A1 PUSH2 0x1E1D JUMP JUMPDEST PUSH4 0x4E487B71 PUSH1 0xE0 SHL PUSH1 0x0 MSTORE PUSH1 0x32 PUSH1 0x4 MSTORE PUSH1 0x24 PUSH1 0x0 REVERT JUMPDEST DUP1 DUP3 ADD DUP1 DUP3 GT ISZERO PUSH2 0x8A1 JUMPI PUSH2 0x8A1 PUSH2 0x1E1D JUMP JUMPDEST PUSH1 0x0 PUSH2 0xFFFF DUP1 DUP4 AND DUP2 DUP2 SUB PUSH2 0x1E4C JUMPI PUSH2 0x1E4C PUSH2 0x1E1D JUMP JUMPDEST PUSH1 0x0 PUSH1 0x20 DUP3 DUP5 SUB SLT ISZERO PUSH2 0x232B JUMPI PUSH1 0x0 DUP1 REVERT JUMPDEST POP MLOAD SWAP2 SWAP1 POP JUMP JUMPDEST DUP2 DUP2 SUB DUP2 DUP2 GT ISZERO PUSH2 0x8A1 JUMPI PUSH2 0x8A1 PUSH2 0x1E1D JUMP JUMPDEST PUSH1 0x20 DUP1 DUP3 MSTORE PUSH1 0x2B SWAP1 DUP3 ADD MSTORE PUSH32 0x496E697469616C697A61626C653A20636F6E7472616374206973206E6F742069 PUSH1 0x40 DUP3 ADD MSTORE PUSH11 0x6E697469616C697A696E67 PUSH1 0xA8 SHL PUSH1 0x60 DUP3 ADD MSTORE PUSH1 0x80 ADD SWAP1 JUMP JUMPDEST PUSH1 0x0 PUSH1 0x1 DUP3 ADD PUSH2 0x23A2 JUMPI PUSH2 0x23A2 PUSH2 0x1E1D JUMP JUMPDEST POP PUSH1 0x1 ADD SWAP1 JUMP JUMPDEST PUSH1 0x0 DUP3 PUSH2 0x23C6 JUMPI PUSH4 0x4E487B71 PUSH1 0xE0 SHL PUSH1 0x0 MSTORE PUSH1 0x12 PUSH1 0x4 MSTORE PUSH1 0x24 PUSH1 0x0 REVERT JUMPDEST POP DIV SWAP1 JUMP JUMPDEST PUSH1 0x0 DUP3 MLOAD PUSH2 0x23DD DUP2 DUP5 PUSH1 0x20 DUP8 ADD PUSH2 0x1E89 JUMP JUMPDEST SWAP2 SWAP1 SWAP2 ADD SWAP3 SWAP2 POP POP JUMP JUMPDEST PUSH1 0x20 DUP2 MSTORE PUSH1 0x0 DUP3 MLOAD DUP1 PUSH1 0x20 DUP5 ADD MSTORE PUSH2 0x2406 DUP2 PUSH1 0x40 DUP6 ADD PUSH1 0x20 DUP8 ADD PUSH2 0x1E89 JUMP JUMPDEST PUSH1 0x1F ADD PUSH1 0x1F NOT AND SWAP2 SWAP1 SWAP2 ADD PUSH1 0x40 ADD SWAP3 SWAP2 POP POP JUMP INVALID CALLDATASIZE ADDMOD SWAP5 LOG1 EXTCODESIZE LOG1 LOG3 0x21 MOD PUSH8 0xC828492DB98DCA3E KECCAK256 PUSH23 0xCC3735A920A3CA505D382BBC416464726573733A206C6F PUSH24 0x2D6C6576656C2064656C65676174652063616C6C20666169 PUSH13 0x6564A264697066735822122077 PUSH6 0x5F9EE18FAF42 LOG2 SWAP11 0x4C 0x2E 0xD7 ORIGIN PUSH1 0x2E PUSH9 0xBCE0B1E84A73405A33 SLOAD GASLIMIT 0xAF REVERT BASEFEE 0xC4 PUSH5 0x736F6C6343 STOP ADDMOD GT STOP CALLER "},"methodIdentifiers":{"_roiClaimTimelimit()":"7e09c75e","_roiDuration()":"81b0e086","_roiRate()":"abab358f","activateROIAdmin(uint32,uint256,uint256)":"98c7438e","claimROI(uint32)":"770ceeb1","decimals()":"313ce567","getROIAccount(uint32)":"c3ab5ebf","getUserIDTotalROI(uint32)":"bf46de63","getUserTotalActiveROIValue(uint32)":"ea62f715","initialize()":"8129fc1c","isPayROI()":"af2f39d1","owner()":"8da5cb5b","proxiableUUID()":"52d1902d","renounceOwnership()":"715018a6","sendETHAdmin(address,uint256)":"0b243dad","setROI(uint16,uint256)":"7ab221c5","setROIIDCount(uint32)":"d895af2c","totalROIIDs()":"a1b80175","totalROIPaid()":"30abbcc5","totalROIValue()":"eaec6364","transferOwnership(address)":"f2fde38b","upgradeTo(address)":"3659cfe6","upgradeToAndCall(address,bytes)":"4f1ef286","withdrawETHAdmin()":"35759788","withdrawTokensAdmin(address,uint256)":"a0b6105f"}},"storageLayout":{"storage":[{"astId":527,"contract":"contracts/ROIV1Upgradeable.sol:ROIV1Upgradeable","label":"_initialized","offset":0,"slot":"0","type":"t_uint8"},{"astId":530,"contract":"contracts/ROIV1Upgradeable.sol:ROIV1Upgradeable","label":"_initializing","offset":1,"slot":"0","type":"t_bool"},{"astId":1228,"contract":"contracts/ROIV1Upgradeable.sol:ROIV1Upgradeable","label":"__gap","offset":0,"slot":"1","type":"t_array(t_uint256)50_storage"},{"astId":10,"contract":"contracts/ROIV1Upgradeable.sol:ROIV1Upgradeable","label":"_owner","offset":0,"slot":"51","type":"t_address"},{"astId":130,"contract":"contracts/ROIV1Upgradeable.sol:ROIV1Upgradeable","label":"__gap","offset":0,"slot":"52","type":"t_array(t_uint256)49_storage"},{"astId":509,"contract":"contracts/ROIV1Upgradeable.sol:ROIV1Upgradeable","label":"__gap","offset":0,"slot":"101","type":"t_array(t_uint256)50_storage"},{"astId":824,"contract":"contracts/ROIV1Upgradeable.sol:ROIV1Upgradeable","label":"__gap","offset":0,"slot":"151","type":"t_array(t_uint256)50_storage"},{"astId":1428,"contract":"contracts/ROIV1Upgradeable.sol:ROIV1Upgradeable","label":"_variablesContract","offset":0,"slot":"201","type":"t_address"},{"astId":1430,"contract":"contracts/ROIV1Upgradeable.sol:ROIV1Upgradeable","label":"totalROIIDs","offset":20,"slot":"201","type":"t_uint32"},{"astId":1432,"contract":"contracts/ROIV1Upgradeable.sol:ROIV1Upgradeable","label":"totalROIPaid","offset":0,"slot":"202","type":"t_uint256"},{"astId":1434,"contract":"contracts/ROIV1Upgradeable.sol:ROIV1Upgradeable","label":"totalROIValue","offset":0,"slot":"203","type":"t_uint256"},{"astId":1436,"contract":"contracts/ROIV1Upgradeable.sol:ROIV1Upgradeable","label":"decimals","offset":0,"slot":"204","type":"t_uint16"},{"astId":1438,"contract":"contracts/ROIV1Upgradeable.sol:ROIV1Upgradeable","label":"_roiRate","offset":2,"slot":"204","type":"t_uint16"},{"astId":1440,"contract":"contracts/ROIV1Upgradeable.sol:ROIV1Upgradeable","label":"_roiDuration","offset":0,"slot":"205","type":"t_uint256"},{"astId":1442,"contract":"contracts/ROIV1Upgradeable.sol:ROIV1Upgradeable","label":"_roiClaimTimelimit","offset":0,"slot":"206","type":"t_uint256"},{"astId":1444,"contract":"contracts/ROIV1Upgradeable.sol:ROIV1Upgradeable","label":"isPayROI","offset":0,"slot":"207","type":"t_bool"},{"astId":1464,"contract":"contracts/ROIV1Upgradeable.sol:ROIV1Upgradeable","label":"rois","offset":0,"slot":"208","type":"t_mapping(t_uint32,t_struct(StructROI)1459_storage)"}],"types":{"t_address":{"encoding":"inplace","label":"address","numberOfBytes":"20"},"t_array(t_uint256)49_storage":{"base":"t_uint256","encoding":"inplace","label":"uint256[49]","numberOfBytes":"1568"},"t_array(t_uint256)50_storage":{"base":"t_uint256","encoding":"inplace","label":"uint256[50]","numberOfBytes":"1600"},"t_bool":{"encoding":"inplace","label":"bool","numberOfBytes":"1"},"t_mapping(t_uint32,t_struct(StructROI)1459_storage)":{"encoding":"mapping","key":"t_uint32","label":"mapping(uint32 => struct ROIV1Upgradeable.StructROI)","numberOfBytes":"32","value":"t_struct(StructROI)1459_storage"},"t_struct(StructROI)1459_storage":{"encoding":"inplace","label":"struct ROIV1Upgradeable.StructROI","members":[{"astId":1446,"contract":"contracts/ROIV1Upgradeable.sol:ROIV1Upgradeable","label":"id","offset":0,"slot":"0","type":"t_uint32"},{"astId":1448,"contract":"contracts/ROIV1Upgradeable.sol:ROIV1Upgradeable","label":"isActive","offset":4,"slot":"0","type":"t_bool"},{"astId":1450,"contract":"contracts/ROIV1Upgradeable.sol:ROIV1Upgradeable","label":"ownerId","offset":5,"slot":"0","type":"t_uint32"},{"astId":1452,"contract":"contracts/ROIV1Upgradeable.sol:ROIV1Upgradeable","label":"value","offset":0,"slot":"1","type":"t_uint256"},{"astId":1454,"contract":"contracts/ROIV1Upgradeable.sol:ROIV1Upgradeable","label":"roiRate","offset":0,"slot":"2","type":"t_uint16"},{"astId":1456,"contract":"contracts/ROIV1Upgradeable.sol:ROIV1Upgradeable","label":"startTime","offset":0,"slot":"3","type":"t_uint256"},{"astId":1458,"contract":"contracts/ROIV1Upgradeable.sol:ROIV1Upgradeable","label":"duration","offset":0,"slot":"4","type":"t_uint256"}],"numberOfBytes":"160"},"t_uint16":{"encoding":"inplace","label":"uint16","numberOfBytes":"2"},"t_uint256":{"encoding":"inplace","label":"uint256","numberOfBytes":"32"},"t_uint32":{"encoding":"inplace","label":"uint32","numberOfBytes":"4"},"t_uint8":{"encoding":"inplace","label":"uint8","numberOfBytes":"1"}}}}}}