{"contracts/ReferralV3Upgradeable.sol":{"ReferralV3Upgradeable":{"abi":[{"anonymous":false,"inputs":[{"indexed":false,"internalType":"address","name":"ownerAddress","type":"address"},{"indexed":false,"internalType":"uint256","name":"id","type":"uint256"},{"indexed":false,"internalType":"uint256","name":"idIndex","type":"uint256"}],"name":"AccountInfoIDAttached","type":"event"},{"anonymous":false,"inputs":[{"indexed":false,"internalType":"uint256","name":"userID","type":"uint256"},{"indexed":false,"internalType":"uint256","name":"index","type":"uint256"},{"indexed":false,"internalType":"uint256","name":"rank","type":"uint256"}],"name":"AddedInRoyaltyClubList","type":"event"},{"anonymous":false,"inputs":[{"indexed":false,"internalType":"address","name":"previousAdmin","type":"address"},{"indexed":false,"internalType":"address","name":"newAdmin","type":"address"}],"name":"AdminChanged","type":"event"},{"anonymous":false,"inputs":[{"indexed":true,"internalType":"address","name":"beacon","type":"address"}],"name":"BeaconUpgraded","type":"event"},{"anonymous":false,"inputs":[{"indexed":false,"internalType":"uint256","name":"id","type":"uint256"},{"indexed":false,"internalType":"string","name":"reason","type":"string"}],"name":"IDDeactivated","type":"event"},{"anonymous":false,"inputs":[{"indexed":false,"internalType":"uint8","name":"version","type":"uint8"}],"name":"Initialized","type":"event"},{"anonymous":false,"inputs":[{"indexed":true,"internalType":"address","name":"previousOwner","type":"address"},{"indexed":true,"internalType":"address","name":"newOwner","type":"address"}],"name":"OwnershipTransferred","type":"event"},{"anonymous":false,"inputs":[{"indexed":false,"internalType":"uint256","name":"packageID","type":"uint256"}],"name":"PackageAdded","type":"event"},{"anonymous":false,"inputs":[{"indexed":false,"internalType":"uint256","name":"packageID","type":"uint256"}],"name":"PackageRemoved","type":"event"},{"anonymous":false,"inputs":[{"indexed":false,"internalType":"uint256","name":"packageID","type":"uint256"}],"name":"PackageUpdated","type":"event"},{"anonymous":false,"inputs":[{"indexed":true,"internalType":"uint256","name":"userID","type":"uint256"},{"indexed":true,"internalType":"uint256","name":"reward","type":"uint256"}],"name":"ROIClaimed","type":"event"},{"anonymous":false,"inputs":[{"indexed":true,"internalType":"uint256","name":"refererID","type":"uint256"},{"indexed":true,"internalType":"uint256","name":"level","type":"uint256"},{"indexed":true,"internalType":"string","name":"reason","type":"string"}],"name":"ReferralNotPaid","type":"event"},{"anonymous":false,"inputs":[{"indexed":true,"internalType":"uint256","name":"refereeID","type":"uint256"},{"indexed":true,"internalType":"uint256","name":"referrerID","type":"uint256"},{"indexed":true,"internalType":"uint256","name":"amount","type":"uint256"},{"indexed":false,"internalType":"uint256","name":"level","type":"uint256"}],"name":"ReferralRewardPaid","type":"event"},{"anonymous":false,"inputs":[{"indexed":true,"internalType":"address","name":"refereeID","type":"address"},{"indexed":true,"internalType":"address","name":"referrerID","type":"address"},{"indexed":true,"internalType":"string","name":"reason","type":"string"}],"name":"RegisterRefererFailed","type":"event"},{"anonymous":false,"inputs":[{"indexed":true,"internalType":"uint256","name":"id","type":"uint256"},{"indexed":true,"internalType":"uint256","name":"refererID","type":"uint256"}],"name":"RegisteredReferer","type":"event"},{"anonymous":false,"inputs":[{"indexed":true,"internalType":"address","name":"parent","type":"address"},{"indexed":false,"internalType":"uint256","name":"parentAccountID","type":"uint256"},{"indexed":true,"internalType":"uint256","name":"referrerID","type":"uint256"},{"indexed":true,"internalType":"uint256","name":"refereeID","type":"uint256"}],"name":"RegisteredTeamAddress","type":"event"},{"anonymous":false,"inputs":[{"indexed":false,"internalType":"uint256","name":"packageID","type":"uint256"},{"indexed":true,"internalType":"uint256","name":"userID","type":"uint256"},{"indexed":true,"internalType":"uint256","name":"amount","type":"uint256"}],"name":"RoyaltyClubBonusPaid","type":"event"},{"anonymous":false,"inputs":[{"indexed":true,"internalType":"address","name":"implementation","type":"address"}],"name":"Upgraded","type":"event"},{"inputs":[{"internalType":"uint256","name":"","type":"uint256"}],"name":"_disabledUsersList","outputs":[{"internalType":"address","name":"","type":"address"}],"stateMutability":"view","type":"function"},{"inputs":[{"internalType":"uint32","name":"_refererID","type":"uint32"}],"name":"activateID","outputs":[],"stateMutability":"payable","type":"function"},{"inputs":[{"internalType":"uint256","name":"","type":"uint256"}],"name":"admins","outputs":[{"internalType":"address","name":"","type":"address"}],"stateMutability":"view","type":"function"},{"inputs":[{"internalType":"uint32","name":"_id","type":"uint32"},{"internalType":"uint256","name":"_value","type":"uint256"}],"name":"claimBalance","outputs":[],"stateMutability":"nonpayable","type":"function"},{"inputs":[],"name":"companyTurnoverTimeLimit","outputs":[{"internalType":"uint256","name":"","type":"uint256"}],"stateMutability":"view","type":"function"},{"inputs":[],"name":"companyTurnoverTimeStamp","outputs":[{"internalType":"uint256","name":"","type":"uint256"}],"stateMutability":"view","type":"function"},{"inputs":[],"name":"companyTurnoverWithTimeLimit","outputs":[{"internalType":"uint256","name":"","type":"uint256"}],"stateMutability":"view","type":"function"},{"inputs":[],"name":"decimals","outputs":[{"internalType":"uint16","name":"","type":"uint16"}],"stateMutability":"view","type":"function"},{"inputs":[{"internalType":"uint32","name":"_from","type":"uint32"},{"internalType":"uint32","name":"_to","type":"uint32"}],"name":"deleteUserLimit","outputs":[],"stateMutability":"nonpayable","type":"function"},{"inputs":[{"internalType":"address","name":"_userAddress","type":"address"}],"name":"disableUserAdmin","outputs":[],"stateMutability":"nonpayable","type":"function"},{"inputs":[{"internalType":"uint32","name":"_id","type":"uint32"}],"name":"getIDAccount","outputs":[{"components":[{"internalType":"uint32","name":"id","type":"uint32"},{"internalType":"string","name":"oldID","type":"string"},{"internalType":"bool","name":"isActive","type":"bool"},{"internalType":"address","name":"owner","type":"address"},{"internalType":"uint256","name":"joiningTime","type":"uint256"},{"internalType":"uint256","name":"deactivateTime","type":"uint256"},{"internalType":"uint32","name":"refererID","type":"uint32"},{"internalType":"uint32[]","name":"refereeIDs","type":"uint32[]"},{"internalType":"uint32[]","name":"teamIDs","type":"uint32[]"},{"internalType":"uint32[]","name":"teamLevel","type":"uint32[]"},{"internalType":"uint256","name":"selfBusiness","type":"uint256"},{"internalType":"uint256","name":"selfBusinessOld","type":"uint256"},{"internalType":"uint256","name":"directBusiness","type":"uint256"},{"internalType":"uint256","name":"directBusinessOld","type":"uint256"},{"internalType":"uint256","name":"teamBusiness","type":"uint256"},{"internalType":"uint256","name":"teamBusinessOld","type":"uint256"},{"internalType":"uint256","name":"royaltyClubBusiness","type":"uint256"},{"internalType":"uint256","name":"timeStampRoyaltyClub","type":"uint256"},{"internalType":"uint8","name":"royaltyClubPackageID","type":"uint8"},{"internalType":"uint256","name":"royaltyClubListIndex","type":"uint256"},{"internalType":"uint256","name":"referralPaid","type":"uint256"},{"internalType":"uint256","name":"rewardPaidRoyaltyClub","type":"uint256"},{"internalType":"uint256","name":"totalTopUp","type":"uint256"},{"internalType":"uint256","name":"totalIncome","type":"uint256"},{"internalType":"uint256","name":"totalMaxLimitAmount","type":"uint256"},{"internalType":"uint256","name":"currentTopUp","type":"uint256"},{"internalType":"uint256","name":"currentTopUpTime","type":"uint256"},{"internalType":"uint256","name":"totalROIClaimed","type":"uint256"},{"internalType":"uint32[]","name":"roiIDs","type":"uint32[]"},{"internalType":"uint256","name":"roiClaimed","type":"uint256"},{"internalType":"uint256","name":"roiClaimedTimestamp","type":"uint256"},{"internalType":"uint256","name":"balanceClaimed","type":"uint256"}],"internalType":"struct ReferralV3Upgradeable.StructID","name":"","type":"tuple"}],"stateMutability":"view","type":"function"},{"inputs":[{"internalType":"uint32","name":"_id","type":"uint32"}],"name":"getIDRewardPaid","outputs":[{"internalType":"uint256","name":"referralPaid","type":"uint256"},{"internalType":"uint256","name":"totalROIClaimed","type":"uint256"},{"internalType":"uint256","name":"rewardPaidRoyaltyClub","type":"uint256"},{"internalType":"uint256","name":"totalRewardPaid","type":"uint256"}],"stateMutability":"view","type":"function"},{"inputs":[{"internalType":"uint32","name":"_id","type":"uint32"}],"name":"getIDRoyaltyClubLevel","outputs":[{"internalType":"uint256","name":"","type":"uint256"}],"stateMutability":"view","type":"function"},{"inputs":[{"internalType":"uint32","name":"_id","type":"uint32"}],"name":"getIDTeam","outputs":[{"internalType":"uint32[]","name":"teamIDs","type":"uint32[]"},{"internalType":"uint32[]","name":"teamLevels","type":"uint32[]"},{"internalType":"uint256","name":"teamCount","type":"uint256"}],"stateMutability":"view","type":"function"},{"inputs":[{"internalType":"uint32","name":"_id","type":"uint32"}],"name":"getIDTotalBusiness","outputs":[{"internalType":"uint256","name":"selfBusiness","type":"uint256"},{"internalType":"uint256","name":"selfBusinessOld","type":"uint256"},{"internalType":"uint256","name":"directBusiness","type":"uint256"},{"internalType":"uint256","name":"directBusinessOld","type":"uint256"},{"internalType":"uint256","name":"teamBusiness","type":"uint256"},{"internalType":"uint256","name":"teamBusinessOld","type":"uint256"}],"stateMutability":"view","type":"function"},{"inputs":[],"name":"getMinContributionETH","outputs":[{"internalType":"uint256","name":"","type":"uint256"}],"stateMutability":"view","type":"function"},{"inputs":[],"name":"getPriceOracleContract","outputs":[{"internalType":"address","name":"","type":"address"}],"stateMutability":"view","type":"function"},{"inputs":[{"internalType":"uint32","name":"_roiID","type":"uint32"}],"name":"getROIAccount","outputs":[{"components":[{"internalType":"uint32","name":"id","type":"uint32"},{"internalType":"bool","name":"isActive","type":"bool"},{"internalType":"uint32","name":"ownerID","type":"uint32"},{"internalType":"uint256","name":"value","type":"uint256"},{"internalType":"uint16","name":"roiRate","type":"uint16"},{"internalType":"uint256","name":"startTime","type":"uint256"}],"internalType":"struct ReferralV3Upgradeable.StructROI","name":"","type":"tuple"}],"stateMutability":"view","type":"function"},{"inputs":[{"internalType":"address","name":"_address","type":"address"}],"name":"getUserAccount","outputs":[{"components":[{"internalType":"bool","name":"isDisabled","type":"bool"},{"internalType":"uint32[]","name":"accountIDs","type":"uint32[]"}],"internalType":"struct ReferralV3Upgradeable.StructAccount","name":"","type":"tuple"}],"stateMutability":"view","type":"function"},{"inputs":[{"internalType":"uint32","name":"_id","type":"uint32"}],"name":"getUserIDTotalROI","outputs":[{"internalType":"uint256","name":"","type":"uint256"}],"stateMutability":"view","type":"function"},{"inputs":[{"internalType":"uint32","name":"_id","type":"uint32"}],"name":"getUserTotalActiveROIValue","outputs":[{"internalType":"uint256","name":"","type":"uint256"}],"stateMutability":"view","type":"function"},{"inputs":[{"internalType":"uint32","name":"_id","type":"uint32"}],"name":"getUserUnlockCount","outputs":[{"internalType":"uint256","name":"","type":"uint256"}],"stateMutability":"view","type":"function"},{"inputs":[],"name":"initialize","outputs":[],"stateMutability":"nonpayable","type":"function"},{"inputs":[],"name":"isPayROI","outputs":[{"internalType":"bool","name":"","type":"bool"}],"stateMutability":"view","type":"function"},{"inputs":[],"name":"isPayRoyaltyClubBonus","outputs":[{"internalType":"bool","name":"","type":"bool"}],"stateMutability":"view","type":"function"},{"inputs":[{"internalType":"address","name":"_userAddress","type":"address"}],"name":"isUserDisabledByAdmin","outputs":[{"internalType":"bool","name":"","type":"bool"}],"stateMutability":"view","type":"function"},{"inputs":[{"internalType":"uint256","name":"","type":"uint256"}],"name":"levelRates","outputs":[{"internalType":"uint16","name":"","type":"uint16"}],"stateMutability":"view","type":"function"},{"inputs":[],"name":"maxLevelsCount","outputs":[{"internalType":"uint8","name":"","type":"uint8"}],"stateMutability":"view","type":"function"},{"inputs":[],"name":"minContributionIn","outputs":[{"internalType":"uint256","name":"","type":"uint256"}],"stateMutability":"view","type":"function"},{"inputs":[],"name":"minContributionInUSD","outputs":[{"internalType":"uint256","name":"","type":"uint256"}],"stateMutability":"view","type":"function"},{"inputs":[],"name":"owner","outputs":[{"internalType":"address","name":"","type":"address"}],"stateMutability":"view","type":"function"},{"inputs":[],"name":"packagesCount","outputs":[{"internalType":"uint8","name":"","type":"uint8"}],"stateMutability":"view","type":"function"},{"inputs":[],"name":"proxiableUUID","outputs":[{"internalType":"bytes32","name":"","type":"bytes32"}],"stateMutability":"view","type":"function"},{"inputs":[{"internalType":"address","name":"_userAddress","type":"address"}],"name":"removeUserFromDisableList","outputs":[],"stateMutability":"nonpayable","type":"function"},{"inputs":[],"name":"renounceOwnership","outputs":[],"stateMutability":"nonpayable","type":"function"},{"inputs":[],"name":"royaltyClubPackageCount","outputs":[{"internalType":"uint8","name":"","type":"uint8"}],"stateMutability":"view","type":"function"},{"inputs":[{"internalType":"address","name":"_address","type":"address"},{"internalType":"uint256","name":"_value","type":"uint256"}],"name":"sendETHAdmin","outputs":[],"stateMutability":"nonpayable","type":"function"},{"inputs":[{"internalType":"address","name":"_adminAddress","type":"address"}],"name":"setAdmin","outputs":[],"stateMutability":"nonpayable","type":"function"},{"inputs":[{"internalType":"uint256","name":"_valueInUSD","type":"uint256"}],"name":"setMinContribution","outputs":[],"stateMutability":"nonpayable","type":"function"},{"inputs":[{"internalType":"address","name":"_contractAddress","type":"address"}],"name":"setPriceOracleContract","outputs":[],"stateMutability":"nonpayable","type":"function"},{"inputs":[{"internalType":"uint16","name":"_roiRateInDecimals","type":"uint16"},{"internalType":"uint256","name":"_roiDurationInDays","type":"uint256"},{"internalType":"uint256","name":"_roiClaimTimelimitInSeconds","type":"uint256"}],"name":"setROI","outputs":[],"stateMutability":"nonpayable","type":"function"},{"inputs":[{"internalType":"uint32","name":"_count","type":"uint32"}],"name":"setROIIDCount","outputs":[],"stateMutability":"nonpayable","type":"function"},{"inputs":[],"name":"totalIDs","outputs":[{"internalType":"uint32","name":"","type":"uint32"}],"stateMutability":"view","type":"function"},{"inputs":[],"name":"totalROIIDs","outputs":[{"internalType":"uint32","name":"","type":"uint32"}],"stateMutability":"view","type":"function"},{"inputs":[],"name":"totalROIPaid","outputs":[{"internalType":"uint256","name":"","type":"uint256"}],"stateMutability":"view","type":"function"},{"inputs":[],"name":"totalReferralPaid","outputs":[{"internalType":"uint256","name":"","type":"uint256"}],"stateMutability":"view","type":"function"},{"inputs":[],"name":"totalRoyaltyClubBonusPaid","outputs":[{"internalType":"uint256","name":"","type":"uint256"}],"stateMutability":"view","type":"function"},{"inputs":[],"name":"totalRoyaltyClubBonusPaidETH","outputs":[{"internalType":"uint256","name":"","type":"uint256"}],"stateMutability":"view","type":"function"},{"inputs":[],"name":"totalUsers","outputs":[{"internalType":"uint32","name":"","type":"uint32"}],"stateMutability":"view","type":"function"},{"inputs":[{"internalType":"address","name":"newOwner","type":"address"}],"name":"transferOwnership","outputs":[],"stateMutability":"nonpayable","type":"function"},{"inputs":[{"internalType":"uint32","name":"_value","type":"uint32"}],"name":"updateTotalIDs","outputs":[],"stateMutability":"nonpayable","type":"function"},{"inputs":[{"internalType":"uint32","name":"_from","type":"uint32"},{"internalType":"uint32","name":"_to","type":"uint32"},{"internalType":"uint256[]","name":"_totalTopUp","type":"uint256[]"},{"internalType":"uint256[]","name":"_totalIncome","type":"uint256[]"}],"name":"updateUserlimits","outputs":[],"stateMutability":"nonpayable","type":"function"},{"inputs":[{"internalType":"address","name":"newImplementation","type":"address"}],"name":"upgradeTo","outputs":[],"stateMutability":"nonpayable","type":"function"},{"inputs":[{"internalType":"address","name":"newImplementation","type":"address"},{"internalType":"bytes","name":"data","type":"bytes"}],"name":"upgradeToAndCall","outputs":[],"stateMutability":"payable","type":"function"},{"inputs":[],"name":"withdrawETHAdmin","outputs":[],"stateMutability":"nonpayable","type":"function"},{"inputs":[{"internalType":"address","name":"_tokenAddress","type":"address"},{"internalType":"uint256","name":"_value","type":"uint256"}],"name":"withdrawTokensAdmin","outputs":[],"stateMutability":"nonpayable","type":"function"},{"stateMutability":"payable","type":"receive"}],"evm":{"bytecode":{"linkReferences":{},"object":"60a06040523060805234801561001457600080fd5b506080516157fe6200004d60003960008181610ec801528181610f0801528181610fb101528181610ff1015261108001526157fe6000f3fe60806040526004361061036f5760003560e01c80638129fc1c116101c6578063bff1f9e1116100f7578063f229b4d511610095578063f41bfeef1161006f578063f41bfeef14610b70578063f830e57b14610b86578063fafc959714610bb3578063fb47e01614610bd257600080fd5b8063f229b4d514610af0578063f2fde38b14610b30578063f31a2d0f14610b5057600080fd5b8063d895af2c116100d1578063d895af2c14610a7d578063e52356f314610a9d578063e5682e3814610abd578063ea62f71514610ad057600080fd5b8063bff1f9e11461091f578063c3ab5ebf1461093c578063c82801ca14610a5d57600080fd5b8063a0506aed11610164578063a28a36861161013e578063a28a3686146108a5578063af2f39d1146108c5578063b47181d3146108df578063bf46de63146108ff57600080fd5b8063a0506aed14610832578063a0b6105f14610861578063a1b801751461088157600080fd5b80638da5cb5b116101a05780638da5cb5b146107be5780638df05d9c146107dc57806396ed6b85146107fc5780639f4e83981461081257600080fd5b80638129fc1c14610773578063852ff2fd146107885780638891df2b1461079e57600080fd5b8063347976c4116102a05780635e701d861161023e578063715018a611610218578063715018a61461070857806376a68e841461071d5780637879b5ef1461073d5780637c5994861461075d57600080fd5b80635e701d861461068e578063704b6c02146106c857806370d9e081146106e857600080fd5b8063473b0d461161027a578063473b0d46146105fd5780634f1ef2861461061d57806352d1902d14610630578063538ffe0c1461064557600080fd5b8063347976c41461054357806335759788146105c85780633659cfe6146105dd57600080fd5b80631f7f83ba1161030d5780632913497b116102e75780632913497b146104cb5780632ed421d2146104e957806330abbcc5146104ff578063313ce5671461051557600080fd5b80631f7f83ba146104805780631f9e65e4146104a057806322f88b52146104b557600080fd5b806314bfd6d01161034957806314bfd6d0146103e657806318e10bff1461041e57806319b8bdf21461044a5780631c961c051461046a57600080fd5b806309de82cd1461037b5780630b243dad146103a45780630efdbb6a146103c657600080fd5b3661037657005b600080fd5b34801561038757600080fd5b5061039160ce5481565b6040519081526020015b60405180910390f35b3480156103b057600080fd5b506103c46103bf366004614e72565b610bff565b005b3480156103d257600080fd5b506103c46103e1366004614e9c565b610c42565b3480156103f257600080fd5b50610406610401366004614eb7565b610d24565b6040516001600160a01b03909116815260200161039b565b34801561042a57600080fd5b5060d9546104389060ff1681565b60405160ff909116815260200161039b565b34801561045657600080fd5b506103c4610465366004614ee4565b610d4e565b34801561047657600080fd5b5061039160cc5481565b34801561048c57600080fd5b5061040661049b366004614eb7565b610e65565b3480156104ac57600080fd5b50610391610e75565b3480156104c157600080fd5b5061039160d55481565b3480156104d757600080fd5b5060c9546001600160a01b0316610406565b3480156104f557600080fd5b5061039160d65481565b34801561050b57600080fd5b5061039160d05481565b34801561052157600080fd5b5060cb546105309061ffff1681565b60405161ffff909116815260200161039b565b34801561054f57600080fd5b5061059b61055e366004614f17565b63ffffffff16600090815260db602052604090206009810154600a820154600b830154600c840154600d850154600e909501549395929491939092565b604080519687526020870195909552938501929092526060840152608083015260a082015260c00161039b565b3480156105d457600080fd5b506103c4610e87565b3480156105e957600080fd5b506103c46105f8366004614e9c565b610ebe565b34801561060957600080fd5b506103c4610618366004614eb7565b610f9a565b6103c461062b366004614f79565b610fa7565b34801561063c57600080fd5b50610391611073565b34801561065157600080fd5b5061067e610660366004614e9c565b6001600160a01b0316600090815260da602052604090205460ff1690565b604051901515815260200161039b565b34801561069a57600080fd5b5060d1546106b390640100000000900463ffffffff1681565b60405163ffffffff909116815260200161039b565b3480156106d457600080fd5b506103c46106e3366004614e9c565b611126565b3480156106f457600080fd5b506103c4610703366004614f17565b611180565b34801561071457600080fd5b506103c461125a565b34801561072957600080fd5b50610391610738366004614f17565b61126e565b34801561074957600080fd5b50610530610758366004614eb7565b61168f565b34801561076957600080fd5b5061039160cf5481565b34801561077f57600080fd5b506103c46116c7565b34801561079457600080fd5b5061039160cd5481565b3480156107aa57600080fd5b506103c46107b936600461509f565b611968565b3480156107ca57600080fd5b506033546001600160a01b0316610406565b3480156107e857600080fd5b5060cb546104389062010000900460ff1681565b34801561080857600080fd5b5061039160df5481565b34801561081e57600080fd5b506103c461082d366004614e9c565b611af3565b34801561083e57600080fd5b5061085261084d366004614f17565b611c0f565b60405161039b93929190615165565b34801561086d57600080fd5b506103c461087c366004614e72565b61203c565b34801561088d57600080fd5b5060d1546106b390600160401b900463ffffffff1681565b3480156108b157600080fd5b5060d4546104389062010000900460ff1681565b3480156108d157600080fd5b5060d45461067e9060ff1681565b3480156108eb57600080fd5b506103916108fa366004614f17565b6120b5565b34801561090b57600080fd5b5061039161091a366004614f17565b6124d3565b34801561092b57600080fd5b5060d1546106b39063ffffffff1681565b34801561094857600080fd5b50610a01610957366004614f17565b6040805160c081018252600080825260208201819052918101829052606081018290526080810182905260a08101919091525063ffffffff908116600090815260dc6020908152604091829020825160c0810184528154808616825260ff640100000000820416151593820193909352650100000000009092049093169181019190915260018201546060820152600282015461ffff16608082015260039091015460a082015290565b60405161039b9190600060c08201905063ffffffff808451168352602084015115156020840152806040850151166040840152506060830151606083015261ffff608084015116608083015260a083015160a083015292915050565b348015610a6957600080fd5b506103c4610a7836600461519b565b6124e4565b348015610a8957600080fd5b506103c4610a98366004614f17565b6125cc565b348015610aa957600080fd5b506103c4610ab8366004614e9c565b6126a9565b6103c4610acb366004614f17565b61287e565b348015610adc57600080fd5b50610391610aeb366004614f17565b612a92565b348015610afc57600080fd5b50610b10610b0b366004614f17565b612bb7565b60408051948552602085019390935291830152606082015260800161039b565b348015610b3c57600080fd5b506103c4610b4b366004614e9c565b613002565b348015610b5c57600080fd5b506103c4610b6b3660046151d7565b613078565b348015610b7c57600080fd5b5061039160d75481565b348015610b9257600080fd5b50610ba6610ba1366004614f17565b6131c4565b60405161039b9190615243565b348015610bbf57600080fd5b5060d45461067e90610100900460ff1681565b348015610bde57600080fd5b50610bf2610bed366004614e9c565b6136dc565b60405161039b9190615471565b610c076137a7565b6040516001600160a01b0383169082156108fc029083906000818181858888f19350505050158015610c3d573d6000803e3d6000fd5b505050565b60005b60de5460ff82161015610d205760de8160ff1681548110610c6857610c68615498565b6000918252602090912001546001600160a01b03163303610ca45760c980546001600160a01b0384166001600160a01b03199091161790555050565b60de54610cb3906001906154c4565b8160ff1603610d0e5760de8160ff1681548110610cd257610cd2615498565b6000918252602090912001546001600160a01b03163314610d0e5760405162461bcd60e51b8152600401610d05906154d7565b60405180910390fd5b80610d1881615502565b915050610c45565b5050565b60de8181548110610d3457600080fd5b6000918252602090912001546001600160a01b0316905081565b60005b60de5460ff82161015610c3d5760de8160ff1681548110610d7457610d74615498565b6000918252602090912001546001600160a01b03163303610df257825b8263ffffffff168163ffffffff161015610dec5763ffffffff8116600090815260db60205260408120601681018290556017810182905560158101829055600a8101829055600c015580610de481615521565b915050610d91565b50505050565b60de54610e01906001906154c4565b8160ff1603610e535760de8160ff1681548110610e2057610e20615498565b6000918252602090912001546001600160a01b03163314610e535760405162461bcd60e51b8152600401610d05906154d7565b80610e5d81615502565b915050610d51565b60d88181548110610d3457600080fd5b6000610e8260df54613801565b905090565b610e8f6137a7565b60405133904780156108fc02916000818181858888f19350505050158015610ebb573d6000803e3d6000fd5b50565b6001600160a01b037f0000000000000000000000000000000000000000000000000000000000000000163003610f065760405162461bcd60e51b8152600401610d0590615544565b7f00000000000000000000000000000000000000000000000000000000000000006001600160a01b0316610f4f600080516020615782833981519152546001600160a01b031690565b6001600160a01b031614610f755760405162461bcd60e51b8152600401610d0590615590565b610f7e81613897565b60408051600080825260208201909252610ebb9183919061389f565b610fa26137a7565b60df55565b6001600160a01b037f0000000000000000000000000000000000000000000000000000000000000000163003610fef5760405162461bcd60e51b8152600401610d0590615544565b7f00000000000000000000000000000000000000000000000000000000000000006001600160a01b0316611038600080516020615782833981519152546001600160a01b031690565b6001600160a01b03161461105e5760405162461bcd60e51b8152600401610d0590615590565b61106782613897565b610d208282600161389f565b6000306001600160a01b037f000000000000000000000000000000000000000000000000000000000000000016146111135760405162461bcd60e51b815260206004820152603860248201527f555550535570677261646561626c653a206d757374206e6f742062652063616c60448201527f6c6564207468726f7567682064656c656761746563616c6c00000000000000006064820152608401610d05565b5060008051602061578283398151915290565b61112e6137a7565b60de80546001810182556000919091527ffae8130c0619f84b4b44f01b84806f04e82e536d70e05f2356977fa318aecc1a0180546001600160a01b0319166001600160a01b0392909216919091179055565b60005b60de5460ff82161015610d205760de8160ff16815481106111a6576111a6615498565b6000918252602090912001546001600160a01b031633036111e75760d1805463ffffffff84166401000000000267ffffffff00000000199091161790555050565b60de546111f6906001906154c4565b8160ff16036112485760de8160ff168154811061121557611215615498565b6000918252602090912001546001600160a01b031633146112485760405162461bcd60e51b8152600401610d05906154d7565b8061125281615502565b915050611183565b6112626137a7565b61126c6000613a0a565b565b63ffffffff808216600090815260db602090815260408083208151610400810190925280549094168152600184018054939485949293909290840191906112b4906155dc565b80601f01602080910402602001604051908101604052809291908181526020018280546112e0906155dc565b801561132d5780601f106113025761010080835404028352916020019161132d565b820191906000526020600020905b81548152906001019060200180831161131057829003601f168201915b5050509183525050600282015460ff811615156020808401919091526101009091046001600160a01b03166040808401919091526003840154606084015260048401546080840152600584015463ffffffff1660a084015260068401805482518185028101850190935280835260c090940193919290919083018282801561140057602002820191906000526020600020906000905b82829054906101000a900463ffffffff1663ffffffff16815260200190600401906020826003010492830192600103820291508084116113c35790505b505050505081526020016007820180548060200260200160405190810160405280929190818152602001828054801561148457602002820191906000526020600020906000905b82829054906101000a900463ffffffff1663ffffffff16815260200190600401906020826003010492830192600103820291508084116114475790505b505050505081526020016008820180548060200260200160405190810160405280929190818152602001828054801561150857602002820191906000526020600020906000905b82829054906101000a900463ffffffff1663ffffffff16815260200190600401906020826003010492830192600103820291508084116114cb5790505b5050505050815260200160098201548152602001600a8201548152602001600b8201548152602001600c8201548152602001600d8201548152602001600e8201548152602001600f8201548152602001601082015481526020016011820160009054906101000a900460ff1660ff1660ff1681526020016012820154815260200160138201548152602001601482015481526020016015820154815260200160168201548152602001601782015481526020016018820154815260200160198201548152602001601a8201548152602001601b820180548060200260200160405190810160405280929190818152602001828054801561165357602002820191906000526020600020906000905b82829054906101000a900463ffffffff1663ffffffff16815260200190600401906020826003010492830192600103820291508084116116165790505b50505050508152602001601c8201548152602001601d8201548152602001601e82015481525050905061168581613a5c565b60ff169392505050565b60ca818154811061169f57600080fd5b9060005260206000209060109182820401919006600202915054906101000a900461ffff1681565b600054610100900460ff16158080156116e75750600054600160ff909116105b806117015750303b158015611701575060005460ff166001145b6117645760405162461bcd60e51b815260206004820152602e60248201527f496e697469616c697a61626c653a20636f6e747261637420697320616c72656160448201526d191e481a5b9a5d1a585b1a5e995960921b6064820152608401610d05565b6000805460ff191660011790558015611787576000805461ff0019166101001790555b60c980546001600160a01b03191673286d6392042b4d7180fd6d20f8d35c877681577417905560cb805461ffff19166103e8179055604080516103a08101825260648152604660208201526032918101829052606081018290526080810182905260a0810182905260c0810182905260e08101829052610100810182905261012081018290526101408101829052610160810182905261018081018290526101a081018290526101c081018290526101e08101829052610200810182905261022081018290526102408101919091526014610260820181905261028082018190526102a082018190526102c082018190526102e0820181905261030082018190526103208201819052610340820181905261036082018190526103808201526118b49060ca90601d614d99565b5060cb805462ff000019166232000017905568056bc75e2d6310000060df5560d4805463ff00ffff1916630200000117905560d1805461ffff60601b1916607d60631b17905563020f580060d2556201518060d35562278d0060d755611918613b0a565b611920613b39565b8015610ebb576000805461ff0019169055604051600181527f7f26b83ff96e1f2b6a682f133852f6798a09c465da95921460cefb38474024989060200160405180910390a150565b60005b60de5460ff82161015611aec5760de8160ff168154811061198e5761198e615498565b6000918252602090912001546001600160a01b03163303611a79576000855b8563ffffffff168163ffffffff161015611a72576000858363ffffffff16815181106119db576119db615498565b602002602001015190506000811115611a515763ffffffff808316600090815260db60205260409020865190918791908616908110611a1c57611a1c615498565b60209081029190910101516016820155611a37826003615616565b601782015560158101829055600a8101829055601e018190555b82611a5b81615521565b935050508080611a6a90615521565b9150506119ad565b5050611aec565b60de54611a88906001906154c4565b8160ff1603611ada5760de8160ff1681548110611aa757611aa7615498565b6000918252602090912001546001600160a01b03163314611ada5760405162461bcd60e51b8152600401610d05906154d7565b80611ae481615502565b91505061196b565b5050505050565b60005b60de5460ff82161015610d205760de8160ff1681548110611b1957611b19615498565b6000918252602090912001546001600160a01b03163303611b9c5760d8805460018181019092557f5320ad99a619a90804cd2efe3a5cf0ac1ac5c41ad9ff2c61cf699efdad7710960180546001600160a01b0385166001600160a01b03199091168117909155600090815260da60205260409020805460ff191690911790555050565b60de54611bab906001906154c4565b8160ff1603611bfd5760de8160ff1681548110611bca57611bca615498565b6000918252602090912001546001600160a01b03163314611bfd5760405162461bcd60e51b8152600401610d05906154d7565b80611c0781615502565b915050611af6565b63ffffffff808216600090815260db60209081526040808320815161040081019092528054909416815260018401805460609586959485949391929084019190611c58906155dc565b80601f0160208091040260200160405190810160405280929190818152602001828054611c84906155dc565b8015611cd15780601f10611ca657610100808354040283529160200191611cd1565b820191906000526020600020905b815481529060010190602001808311611cb457829003601f168201915b5050509183525050600282015460ff811615156020808401919091526101009091046001600160a01b03166040808401919091526003840154606084015260048401546080840152600584015463ffffffff1660a084015260068401805482518185028101850190935280835260c0909401939192909190830182828015611da457602002820191906000526020600020906000905b82829054906101000a900463ffffffff1663ffffffff1681526020019060040190602082600301049283019260010382029150808411611d675790505b5050505050815260200160078201805480602002602001604051908101604052809291908181526020018280548015611e2857602002820191906000526020600020906000905b82829054906101000a900463ffffffff1663ffffffff1681526020019060040190602082600301049283019260010382029150808411611deb5790505b5050505050815260200160088201805480602002602001604051908101604052809291908181526020018280548015611eac57602002820191906000526020600020906000905b82829054906101000a900463ffffffff1663ffffffff1681526020019060040190602082600301049283019260010382029150808411611e6f5790505b5050505050815260200160098201548152602001600a8201548152602001600b8201548152602001600c8201548152602001600d8201548152602001600e8201548152602001600f8201548152602001601082015481526020016011820160009054906101000a900460ff1660ff1660ff1681526020016012820154815260200160138201548152602001601482015481526020016015820154815260200160168201548152602001601782015481526020016018820154815260200160198201548152602001601a8201548152602001601b8201805480602002602001604051908101604052809291908181526020018280548015611ff757602002820191906000526020600020906000905b82829054906101000a900463ffffffff1663ffffffff1681526020019060040190602082600301049283019260010382029150808411611fba5790505b50505050508152602001601c8201548152602001601d8201548152602001601e8201548152505090508061010001519350806101200151925083519150509193909250565b6120446137a7565b60405163a9059cbb60e01b8152336004820152602481018290526001600160a01b0383169063a9059cbb906044016020604051808303816000875af1158015612091573d6000803e3d6000fd5b505050506040513d601f19601f82011682018060405250810190610c3d919061562d565b63ffffffff808216600090815260db602090815260408083208151610400810190925280549094168152600184018054939485949293909290840191906120fb906155dc565b80601f0160208091040260200160405190810160405280929190818152602001828054612127906155dc565b80156121745780601f1061214957610100808354040283529160200191612174565b820191906000526020600020905b81548152906001019060200180831161215757829003601f168201915b5050509183525050600282015460ff811615156020808401919091526101009091046001600160a01b03166040808401919091526003840154606084015260048401546080840152600584015463ffffffff1660a084015260068401805482518185028101850190935280835260c090940193919290919083018282801561224757602002820191906000526020600020906000905b82829054906101000a900463ffffffff1663ffffffff168152602001906004019060208260030104928301926001038202915080841161220a5790505b50505050508152602001600782018054806020026020016040519081016040528092919081815260200182805480156122cb57602002820191906000526020600020906000905b82829054906101000a900463ffffffff1663ffffffff168152602001906004019060208260030104928301926001038202915080841161228e5790505b505050505081526020016008820180548060200260200160405190810160405280929190818152602001828054801561234f57602002820191906000526020600020906000905b82829054906101000a900463ffffffff1663ffffffff16815260200190600401906020826003010492830192600103820291508084116123125790505b5050505050815260200160098201548152602001600a8201548152602001600b8201548152602001600c8201548152602001600d8201548152602001600e8201548152602001600f8201548152602001601082015481526020016011820160009054906101000a900460ff1660ff1660ff1681526020016012820154815260200160138201548152602001601482015481526020016015820154815260200160168201548152602001601782015481526020016018820154815260200160198201548152602001601a8201548152602001601b820180548060200260200160405190810160405280929190818152602001828054801561249a57602002820191906000526020600020906000905b82829054906101000a900463ffffffff1663ffffffff168152602001906004019060208260030104928301926001038202915080841161245d5790505b50505050508152602001601c8201548152602001601d8201548152602001601e8201548152505090506124cc81613b60565b9392505050565b60006124de82613b9c565b92915050565b60005b60de5460ff82161015610dec5760de8160ff168154811061250a5761250a615498565b6000918252602090912001546001600160a01b031633036125595760d1805461ffff60601b1916600160601b61ffff87160217905561254c8362015180615616565b60d25560d3829055610dec565b60de54612568906001906154c4565b8160ff16036125ba5760de8160ff168154811061258757612587615498565b6000918252602090912001546001600160a01b031633146125ba5760405162461bcd60e51b8152600401610d05906154d7565b806125c481615502565b9150506124e7565b60005b60de5460ff82161015610d205760de8160ff16815481106125f2576125f2615498565b6000918252602090912001546001600160a01b031633036126365760d1805463ffffffff8416600160401b026bffffffff0000000000000000199091161790555050565b60de54612645906001906154c4565b8160ff16036126975760de8160ff168154811061266457612664615498565b6000918252602090912001546001600160a01b031633146126975760405162461bcd60e51b8152600401610d05906154d7565b806126a181615502565b9150506125cf565b60005b60de5460ff82161015610d205760de8160ff16815481106126cf576126cf615498565b6000918252602090912001546001600160a01b0316330361280b576001600160a01b038216600090815260da60205260408120805460ff1916905560d854905b81811015610dec57836001600160a01b031660d8828154811061273457612734615498565b6000918252602090912001546001600160a01b0316036127f95760d861275b6001846154c4565b8154811061276b5761276b615498565b60009182526020909120015460d880546001600160a01b03909216918390811061279757612797615498565b9060005260206000200160006101000a8154816001600160a01b0302191690836001600160a01b0316021790555060d88054806127d6576127d661564f565b600082815260209020810160001990810180546001600160a01b03191690550190555b8061280381615665565b91505061270f565b60de5461281a906001906154c4565b8160ff160361286c5760de8160ff168154811061283957612839615498565b6000918252602090912001546001600160a01b0316331461286c5760405162461bcd60e51b8152600401610d05906154d7565b8061287681615502565b9150506126ac565b34600061288a826140dc565b905060df548110156128de5760405162461bcd60e51b815260206004820152601f60248201527f56616c7565206c657373207468656e206d696e436f6e747269627574696f6e006044820152606401610d05565b60d1543390429060009061290190640100000000900463ffffffff16600161567e565b60d18054919250600091600160401b900463ffffffff1690600861292483615521565b825463ffffffff9182166101009390930a92830291909202199091161790556001600160a01b038516600090815260da6020526040902060d4549192509060ff1615612a2757612a278383888763ffffffff928316600081815260dc6020908152604080832097871680845260db835290832088546501000000000090920268ffffffffff00000000199092169190911764010000000017885560018089019690965560d15460028901805461ffff191661ffff600160601b90930492909216919091179055600390970193909355601b90950180549384018155855293206008820401805460079092166004026101000a938402939092021916919091179055565b612a4785848a898860cb60029054906101000a900460ff1660ff16614169565b6001908101805491820181556000908152602090206008820401805460079092166004026101000a63ffffffff81810219909316949092169190910292909217909155505050505050565b63ffffffff8116600090815260db60209081526040808320601b0180548251818502810185019093528083528493830182828015612b1b57602002820191906000526020600020906000905b82829054906101000a900463ffffffff1663ffffffff1681526020019060040190602082600301049283019260010382029150808411612ade5790505b505050505090506000805b82518161ffff161015612baf57600060dc6000858461ffff1681518110612b4f57612b4f615498565b602002602001015163ffffffff1663ffffffff16815260200190815260200160002090508060000160049054906101000a900460ff1615612b9c576001810154612b9990846156a2565b92505b5080612ba7816156b5565b915050612b26565b509392505050565b63ffffffff808216600090815260db6020908152604080832081516104008101909252805490941681526001840180549394859485948594859490939291840191612c01906155dc565b80601f0160208091040260200160405190810160405280929190818152602001828054612c2d906155dc565b8015612c7a5780601f10612c4f57610100808354040283529160200191612c7a565b820191906000526020600020905b815481529060010190602001808311612c5d57829003601f168201915b5050509183525050600282015460ff811615156020808401919091526101009091046001600160a01b03166040808401919091526003840154606084015260048401546080840152600584015463ffffffff1660a084015260068401805482518185028101850190935280835260c0909401939192909190830182828015612d4d57602002820191906000526020600020906000905b82829054906101000a900463ffffffff1663ffffffff1681526020019060040190602082600301049283019260010382029150808411612d105790505b5050505050815260200160078201805480602002602001604051908101604052809291908181526020018280548015612dd157602002820191906000526020600020906000905b82829054906101000a900463ffffffff1663ffffffff1681526020019060040190602082600301049283019260010382029150808411612d945790505b5050505050815260200160088201805480602002602001604051908101604052809291908181526020018280548015612e5557602002820191906000526020600020906000905b82829054906101000a900463ffffffff1663ffffffff1681526020019060040190602082600301049283019260010382029150808411612e185790505b5050505050815260200160098201548152602001600a8201548152602001600b8201548152602001600c8201548152602001600d8201548152602001600e8201548152602001600f8201548152602001601082015481526020016011820160009054906101000a900460ff1660ff1660ff1681526020016012820154815260200160138201548152602001601482015481526020016015820154815260200160168201548152602001601782015481526020016018820154815260200160198201548152602001601a8201548152602001601b8201805480602002602001604051908101604052809291908181526020018280548015612fa057602002820191906000526020600020906000905b82829054906101000a900463ffffffff1663ffffffff1681526020019060040190602082600301049283019260010382029150808411612f635790505b50505050508152602001601c8201548152602001601d8201548152602001601e82015481525050905080610280015194508061036001519350806102a001519250828486612fee91906156a2565b612ff891906156a2565b9150509193509193565b61300a6137a7565b6001600160a01b03811661306f5760405162461bcd60e51b815260206004820152602660248201527f4f776e61626c653a206e6577206f776e657220697320746865207a65726f206160448201526564647265737360d01b6064820152608401610d05565b610ebb81613a0a565b63ffffffff8216600090815260db60205260409020600281015461010090046001600160a01b031633146130ee5760405162461bcd60e51b815260206004820152601d60248201527f596f7520617265206e6f74206f776e6572206f6620746869732069642e0000006044820152606401610d05565b60006130f9826143fc565b601e83015490915061310b81836154c4565b84111561316d5760405162461bcd60e51b815260206004820152602a60248201527f506c6561736520656e7465722076616c7565206c657373207468656e20796f7560448201526939103130b630b731b29760b11b6064820152608401610d05565b8383601e01600082825461318191906156a2565b909155503390506108fc61319486613801565b6040518115909202916000818181858888f193505050501580156131bc573d6000803e3d6000fd5b505050505050565b6132ce604051806104000160405280600063ffffffff1681526020016060815260200160001515815260200160006001600160a01b031681526020016000815260200160008152602001600063ffffffff1681526020016060815260200160608152602001606081526020016000815260200160008152602001600081526020016000815260200160008152602001600081526020016000815260200160008152602001600060ff168152602001600081526020016000815260200160008152602001600081526020016000815260200160008152602001600081526020016000815260200160008152602001606081526020016000815260200160008152602001600081525090565b63ffffffff808316600090815260db602090815260409182902082516104008101909352805490931682526001830180549293929184019161330f906155dc565b80601f016020809104026020016040519081016040528092919081815260200182805461333b906155dc565b80156133885780601f1061335d57610100808354040283529160200191613388565b820191906000526020600020905b81548152906001019060200180831161336b57829003601f168201915b5050509183525050600282015460ff811615156020808401919091526101009091046001600160a01b03166040808401919091526003840154606084015260048401546080840152600584015463ffffffff1660a084015260068401805482518185028101850190935280835260c090940193919290919083018282801561345b57602002820191906000526020600020906000905b82829054906101000a900463ffffffff1663ffffffff168152602001906004019060208260030104928301926001038202915080841161341e5790505b50505050508152602001600782018054806020026020016040519081016040528092919081815260200182805480156134df57602002820191906000526020600020906000905b82829054906101000a900463ffffffff1663ffffffff16815260200190600401906020826003010492830192600103820291508084116134a25790505b505050505081526020016008820180548060200260200160405190810160405280929190818152602001828054801561356357602002820191906000526020600020906000905b82829054906101000a900463ffffffff1663ffffffff16815260200190600401906020826003010492830192600103820291508084116135265790505b5050505050815260200160098201548152602001600a8201548152602001600b8201548152602001600c8201548152602001600d8201548152602001600e8201548152602001600f8201548152602001601082015481526020016011820160009054906101000a900460ff1660ff1660ff1681526020016012820154815260200160138201548152602001601482015481526020016015820154815260200160168201548152602001601782015481526020016018820154815260200160198201548152602001601a8201548152602001601b82018054806020026020016040519081016040528092919081815260200182805480156136ae57602002820191906000526020600020906000905b82829054906101000a900463ffffffff1663ffffffff16815260200190600401906020826003010492830192600103820291508084116136715790505b50505050508152602001601c8201548152602001601d8201548152602001601e820154815250509050919050565b6040805180820190915260008152606060208201526001600160a01b038216600090815260da602090815260409182902082518084018452815460ff16151581526001820180548551818602810186019096528086529194929385810193929083018282801561379757602002820191906000526020600020906000905b82829054906101000a900463ffffffff1663ffffffff168152602001906004019060208260030104928301926001038202915080841161375a5790505b5050505050815250509050919050565b6033546001600160a01b0316331461126c5760405162461bcd60e51b815260206004820181905260248201527f4f776e61626c653a2063616c6c6572206973206e6f7420746865206f776e65726044820152606401610d05565b60008060c960009054906101000a90046001600160a01b03166001600160a01b031663e1aa60366040518163ffffffff1660e01b8152600401602060405180830381865afa158015613857573d6000803e3d6000fd5b505050506040513d601f19601f8201168201806040525081019061387b91906156cc565b61388d84670de0b6b3a7640000615616565b6124cc91906156e5565b610ebb6137a7565b7f4910fdfa16fed3260ed0e7147f7cc6da11a60208b5b9406d12a635614ffd91435460ff16156138d257610c3d83614420565b826001600160a01b03166352d1902d6040518163ffffffff1660e01b8152600401602060405180830381865afa92505050801561392c575060408051601f3d908101601f19168201909252613929918101906156cc565b60015b61398f5760405162461bcd60e51b815260206004820152602e60248201527f45524331393637557067726164653a206e657720696d706c656d656e7461746960448201526d6f6e206973206e6f74205555505360901b6064820152608401610d05565b60008051602061578283398151915281146139fe5760405162461bcd60e51b815260206004820152602960248201527f45524331393637557067726164653a20756e737570706f727465642070726f786044820152681a58589b195555525160ba1b6064820152608401610d05565b50610c3d8383836144bc565b603380546001600160a01b038381166001600160a01b0319831681179093556040519116919082907f8be0079c531659141344cd1fd0a4f28419497f9722a3daafe3b4186f6b6457e090600090a35050565b60d95460009060ff16815b8160ff168160ff161015613b035760ff8116600090815260dd602052604090206001015461014085015110801590613ab9575060ff8116600090815260dd602052604090206002015461018085015110155b8015613adf575060ff8116600090815260dd60205260409020600301546101c085015110155b15613aec57809250613af1565b613b03565b80613afb81615502565b915050613a67565b5050919050565b600054610100900460ff16613b315760405162461bcd60e51b8152600401610d0590615707565b61126c6144e1565b600054610100900460ff1661126c5760405162461bcd60e51b8152600401610d0590615707565b60e0810151516000908181156124cc5760d454600190613b8a906301000000900460ff1684615616565b613b9491906154c4565b949350505050565b63ffffffff808216600090815260db60209081526040808320815161040081019092528054909416815260018401805493948594929390929084019190613be2906155dc565b80601f0160208091040260200160405190810160405280929190818152602001828054613c0e906155dc565b8015613c5b5780601f10613c3057610100808354040283529160200191613c5b565b820191906000526020600020905b815481529060010190602001808311613c3e57829003601f168201915b5050509183525050600282015460ff811615156020808401919091526101009091046001600160a01b03166040808401919091526003840154606084015260048401546080840152600584015463ffffffff1660a084015260068401805482518185028101850190935280835260c0909401939192909190830182828015613d2e57602002820191906000526020600020906000905b82829054906101000a900463ffffffff1663ffffffff1681526020019060040190602082600301049283019260010382029150808411613cf15790505b5050505050815260200160078201805480602002602001604051908101604052809291908181526020018280548015613db257602002820191906000526020600020906000905b82829054906101000a900463ffffffff1663ffffffff1681526020019060040190602082600301049283019260010382029150808411613d755790505b5050505050815260200160088201805480602002602001604051908101604052809291908181526020018280548015613e3657602002820191906000526020600020906000905b82829054906101000a900463ffffffff1663ffffffff1681526020019060040190602082600301049283019260010382029150808411613df95790505b5050505050815260200160098201548152602001600a8201548152602001600b8201548152602001600c8201548152602001600d8201548152602001600e8201548152602001600f8201548152602001601082015481526020016011820160009054906101000a900460ff1660ff1660ff1681526020016012820154815260200160138201548152602001601482015481526020016015820154815260200160168201548152602001601782015481526020016018820154815260200160198201548152602001601a8201548152602001601b8201805480602002602001604051908101604052809291908181526020018280548015613f8157602002820191906000526020600020906000905b82829054906101000a900463ffffffff1663ffffffff1681526020019060040190602082600301049283019260010382029150808411613f445790505b5050509183525050601c8201546020820152601d8201546040820152601e9091015460609091015261038081015180516102c08301519293509091613fc7906002615616565b836102e00151108015613fda5750600081115b156140cf5760005b818161ffff1610156140c957600060dc6000858461ffff168151811061400a5761400a615498565b602002602001015163ffffffff1663ffffffff16815260200190815260200160002090508060000160049054906101000a900460ff16156140b65760cb5460d154600183015460009261ffff9081169261406f92600160601b90910490911690615616565b61407991906156e5565b9050600082600301544261408d91906154c4565b90506201518061409d8284615616565b6140a791906156e5565b6140b190896156a2565b975050505b50806140c1816156b5565b915050613fe2565b506140d4565b600093505b505050919050565b600080670de0b6b3a764000060c960009054906101000a90046001600160a01b03166001600160a01b031663e1aa60366040518163ffffffff1660e01b8152600401602060405180830381865afa15801561413b573d6000803e3d6000fd5b505050506040513d601f19601f8201168201806040525081019061415f91906156cc565b61388d9085615616565b63ffffffff858116600081815260db60205260409020805463ffffffff1990811690921781556002810180546001600160a81b0319166101006001600160a01b038c1602176001179055600380820186905560058201805490931693881693909317909155906141da908590615616565b8160170160008282546141ed91906156a2565b925050819055508381600901600082825461420891906156a2565b925050819055508381601501600082825461422391906156a2565b90915550506019810183905560005b828160ff1610156143b557600582015463ffffffff908116600081815260db6020526040812080549293909216900361426c5750506143b5565b8260ff166000036142d0578681600b01600082825461428b91906156a2565b9091555050600681018054600181018255600091825260209091206008820401805460079092166004026101000a63ffffffff81810219909316928c16029190911790555b8681600d0160008282546142e491906156a2565b9091555050600781810180546001810182556000918252602091829020600882040180549190931660040261010090810a63ffffffff818102199093168e841691820217909455600285015460058901546040519084168152928d16939190046001600160a01b0316917fa7fafc728ec30e34dc1e1276496bf3eb44ca7494679da969455289e6a8f0f1f6910160405180910390a460d454610100900460ff16156143955761439581838989614511565b61439f8787614bb5565b92508190506143ad81615502565b915050614232565b5060d18054640100000000900463ffffffff169060046143d483615521565b91906101000a81548163ffffffff021916908363ffffffff1602179055505050505050505050565b60008160170154826016015410156144185781601601546124de565b506017015490565b6001600160a01b0381163b61448d5760405162461bcd60e51b815260206004820152602d60248201527f455243313936373a206e657720696d706c656d656e746174696f6e206973206e60448201526c1bdd08184818dbdb9d1c9858dd609a1b6064820152608401610d05565b60008051602061578283398151915280546001600160a01b0319166001600160a01b0392909216919091179055565b6144c583614bef565b6000825111806144d25750805b15610c3d57610dec8383614c2f565b600054610100900460ff166145085760405162461bcd60e51b8152600401610d0590615707565b61126c33613a0a565b6011840154604080516104008101909152855463ffffffff16815260018601805460ff909316926149199291889160208401919061454e906155dc565b80601f016020809104026020016040519081016040528092919081815260200182805461457a906155dc565b80156145c75780601f1061459c576101008083540402835291602001916145c7565b820191906000526020600020905b8154815290600101906020018083116145aa57829003601f168201915b5050509183525050600282015460ff811615156020808401919091526101009091046001600160a01b03166040808401919091526003840154606084015260048401546080840152600584015463ffffffff1660a084015260068401805482518185028101850190935280835260c090940193919290919083018282801561469a57602002820191906000526020600020906000905b82829054906101000a900463ffffffff1663ffffffff168152602001906004019060208260030104928301926001038202915080841161465d5790505b505050505081526020016007820180548060200260200160405190810160405280929190818152602001828054801561471e57602002820191906000526020600020906000905b82829054906101000a900463ffffffff1663ffffffff16815260200190600401906020826003010492830192600103820291508084116146e15790505b50505050508152602001600882018054806020026020016040519081016040528092919081815260200182805480156147a257602002820191906000526020600020906000905b82829054906101000a900463ffffffff1663ffffffff16815260200190600401906020826003010492830192600103820291508084116147655790505b5050505050815260200160098201548152602001600a8201548152602001600b8201548152602001600c8201548152602001600d8201548152602001600e8201548152602001600f8201548152602001601082015481526020016011820160009054906101000a900460ff1660ff1660ff1681526020016012820154815260200160138201548152602001601482015481526020016015820154815260200160168201548152602001601782015481526020016018820154815260200160198201548152602001601a8201548152602001601b82018054806020026020016040519081016040528092919081815260200182805480156148ed57602002820191906000526020600020906000905b82829054906101000a900463ffffffff1663ffffffff16815260200190600401906020826003010492830192600103820291508084116148b05790505b50505050508152602001601c8201548152602001601d8201548152602001601e82015481525050613a5c565b60ff161115610dec57604080516104008101909152845463ffffffff1681526001850180546149549291879160208401919061454e906155dc565b60118501805460ff191660ff9283169081178255600090815260dd6020908152604080832060099081018054600181810183559186529385206008850401805460079095166004026101000a63ffffffff81810219909616958c1602949094179093559354909416825292902001546149cd91906154c4565b6012850181905560118501546040805163ffffffff87168152602081019390935260ff90911682820152517fb0d3a9c683344e744a1ae3db383f75a8a01851282c5fe97d6159c1392a2e2a0a9181900360600190a1604080516104008101909152845463ffffffff16815260018501805460dd92600092614a58928991602084019161454e906155dc565b60ff908116825260208201929092526040016000206008015461010090041615614b1c57604080516104008101909152845463ffffffff16815260018501805460dd92600092614ab2928991602084019161454e906155dc565b60ff1660ff168152602001908152602001600020600701548460100154614ad991906156a2565b811115614b08578084601001819055508184600f016000828254614afd91906156a2565b90915550610dec9050565b8184600f016000828254614afd91906156a2565b60d454610100900460ff1615610dec57601184015460ff16600090815260dd6020526040902060050154614b51908590614d23565b601184015460ff908116600090815260dd602090815260409182902060058101549054925192909316825263ffffffff8616917f94b6d3d19cc40938e685ef6a1f6476b53ef65295ab094a044e74405a8d0bd05b910160405180910390a350505050565b60d75460d654614bc591906156a2565b811115614bd45760d65560d555565b8160d56000828254614be691906156a2565b90915550505050565b614bf881614420565b6040516001600160a01b038216907fbc7cd75a20ee27fd9adebab32041f755214dbc6bffa90cc0225b39da2e5c2d3b90600090a250565b60606001600160a01b0383163b614c975760405162461bcd60e51b815260206004820152602660248201527f416464726573733a2064656c65676174652063616c6c20746f206e6f6e2d636f6044820152651b9d1c9858dd60d21b6064820152608401610d05565b600080846001600160a01b031684604051614cb29190615752565b600060405180830381855af49150503d8060008114614ced576040519150601f19603f3d011682016040523d82523d6000602084013e614cf2565b606091505b5091509150614d1a82826040518060600160405280602781526020016157a260279139614d5b565b95945050505050565b8160170154818360160154614d3891906156a2565b10614d4b57601782015460168301555050565b808260160154610c3d91906156a2565b60608315614d6a5750816124cc565b6124cc8383815115614d7f5781518083602001fd5b8060405162461bcd60e51b8152600401610d05919061576e565b82805482825590600052602060002090600f01601090048101928215614e315791602002820160005b83821115614e0157835183826101000a81548161ffff021916908360ff1602179055509260200192600201602081600101049283019260010302614dc2565b8015614e2f5782816101000a81549061ffff0219169055600201602081600101049283019260010302614e01565b505b50614e3d929150614e41565b5090565b5b80821115614e3d5760008155600101614e42565b80356001600160a01b0381168114614e6d57600080fd5b919050565b60008060408385031215614e8557600080fd5b614e8e83614e56565b946020939093013593505050565b600060208284031215614eae57600080fd5b6124cc82614e56565b600060208284031215614ec957600080fd5b5035919050565b803563ffffffff81168114614e6d57600080fd5b60008060408385031215614ef757600080fd5b614f0083614ed0565b9150614f0e60208401614ed0565b90509250929050565b600060208284031215614f2957600080fd5b6124cc82614ed0565b634e487b7160e01b600052604160045260246000fd5b604051601f8201601f1916810167ffffffffffffffff81118282101715614f7157614f71614f32565b604052919050565b60008060408385031215614f8c57600080fd5b614f9583614e56565b915060208084013567ffffffffffffffff80821115614fb357600080fd5b818601915086601f830112614fc757600080fd5b813581811115614fd957614fd9614f32565b614feb601f8201601f19168501614f48565b9150808252878482850101111561500157600080fd5b80848401858401376000848284010152508093505050509250929050565b600082601f83011261503057600080fd5b8135602067ffffffffffffffff82111561504c5761504c614f32565b8160051b61505b828201614f48565b928352848101820192828101908785111561507557600080fd5b83870192505b848310156150945782358252918301919083019061507b565b979650505050505050565b600080600080608085870312156150b557600080fd5b6150be85614ed0565b93506150cc60208601614ed0565b9250604085013567ffffffffffffffff808211156150e957600080fd5b6150f58883890161501f565b9350606087013591508082111561510b57600080fd5b506151188782880161501f565b91505092959194509250565b600081518084526020808501945080840160005b8381101561515a57815163ffffffff1687529582019590820190600101615138565b509495945050505050565b6060815260006151786060830186615124565b828103602084015261518a8186615124565b915050826040830152949350505050565b6000806000606084860312156151b057600080fd5b833561ffff811681146151c257600080fd5b95602085013595506040909401359392505050565b600080604083850312156151ea57600080fd5b614e8e83614ed0565b60005b8381101561520e5781810151838201526020016151f6565b50506000910152565b6000815180845261522f8160208601602086016151f3565b601f01601f19169290920160200192915050565b6020815261525a60208201835163ffffffff169052565b60006020830151610400806040850152615278610420850183615217565b9150604085015161528d606086018215159052565b5060608501516001600160a01b038116608086015250608085015160a085015260a085015160c085015260c08501516152ce60e086018263ffffffff169052565b5060e0850151601f196101008187860301818801526152ed8584615124565b94508088015192505061012081878603018188015261530c8584615124565b94508088015192505061014081878603018188015261532b8584615124565b9088015161016088810191909152880151610180808901919091528801516101a0808901919091528801516101c0808901919091528801516101e08089019190915288015161020080890191909152880151610220808901919091528801516102408089019190915288015190945091506102606153ad8188018460ff169052565b870151610280878101919091528701516102a0808801919091528701516102c0808801919091528701516102e080880191909152870151610300808801919091528701516103208088019190915287015161034080880191909152870151610360808801919091528701516103808088019190915287015186850382016103a0808901919091529092506154418584615124565b908801516103c0888101919091528801516103e08089019190915290970151929095019190915250929392505050565b6020815281511515602082015260006020830151604080840152613b946060840182615124565b634e487b7160e01b600052603260045260246000fd5b634e487b7160e01b600052601160045260246000fd5b818103818111156124de576124de6154ae565b6020808252601190820152702cb7ba9030b932903737ba1030b236b4b760791b604082015260600190565b600060ff821660ff8103615518576155186154ae565b60010192915050565b600063ffffffff80831681810361553a5761553a6154ae565b6001019392505050565b6020808252602c908201527f46756e6374696f6e206d7573742062652063616c6c6564207468726f7567682060408201526b19195b1959d85d1958d85b1b60a21b606082015260800190565b6020808252602c908201527f46756e6374696f6e206d7573742062652063616c6c6564207468726f7567682060408201526b6163746976652070726f787960a01b606082015260800190565b600181811c908216806155f057607f821691505b60208210810361561057634e487b7160e01b600052602260045260246000fd5b50919050565b80820281158282048414176124de576124de6154ae565b60006020828403121561563f57600080fd5b815180151581146124cc57600080fd5b634e487b7160e01b600052603160045260246000fd5b600060018201615677576156776154ae565b5060010190565b63ffffffff81811683821601908082111561569b5761569b6154ae565b5092915050565b808201808211156124de576124de6154ae565b600061ffff80831681810361553a5761553a6154ae565b6000602082840312156156de57600080fd5b5051919050565b60008261570257634e487b7160e01b600052601260045260246000fd5b500490565b6020808252602b908201527f496e697469616c697a61626c653a20636f6e7472616374206973206e6f74206960408201526a6e697469616c697a696e6760a81b606082015260800190565b600082516157648184602087016151f3565b9190910192915050565b6020815260006124cc602083018461521756fe360894a13ba1a3210667c828492db98dca3e2076cc3735a920a3ca505d382bbc416464726573733a206c6f772d6c6576656c2064656c65676174652063616c6c206661696c6564a2646970667358221220854b39f4d352a8283e6c9635b5a486034683a968dac51cf56cb85528eba4714164736f6c63430008110033","opcodes":"PUSH1 0xA0 PUSH1 0x40 MSTORE ADDRESS PUSH1 0x80 MSTORE CALLVALUE DUP1 ISZERO PUSH2 0x14 JUMPI PUSH1 0x0 DUP1 REVERT JUMPDEST POP PUSH1 0x80 MLOAD PUSH2 0x57FE PUSH3 0x4D PUSH1 0x0 CODECOPY PUSH1 0x0 DUP2 DUP2 PUSH2 0xEC8 ADD MSTORE DUP2 DUP2 PUSH2 0xF08 ADD MSTORE DUP2 DUP2 PUSH2 0xFB1 ADD MSTORE DUP2 DUP2 PUSH2 0xFF1 ADD MSTORE PUSH2 0x1080 ADD MSTORE PUSH2 0x57FE PUSH1 0x0 RETURN INVALID PUSH1 0x80 PUSH1 0x40 MSTORE PUSH1 0x4 CALLDATASIZE LT PUSH2 0x36F JUMPI PUSH1 0x0 CALLDATALOAD PUSH1 0xE0 SHR DUP1 PUSH4 0x8129FC1C GT PUSH2 0x1C6 JUMPI DUP1 PUSH4 0xBFF1F9E1 GT PUSH2 0xF7 JUMPI DUP1 PUSH4 0xF229B4D5 GT PUSH2 0x95 JUMPI DUP1 PUSH4 0xF41BFEEF GT PUSH2 0x6F JUMPI DUP1 PUSH4 0xF41BFEEF EQ PUSH2 0xB70 JUMPI DUP1 PUSH4 0xF830E57B EQ PUSH2 0xB86 JUMPI DUP1 PUSH4 0xFAFC9597 EQ PUSH2 0xBB3 JUMPI DUP1 PUSH4 0xFB47E016 EQ PUSH2 0xBD2 JUMPI PUSH1 0x0 DUP1 REVERT JUMPDEST DUP1 PUSH4 0xF229B4D5 EQ PUSH2 0xAF0 JUMPI DUP1 PUSH4 0xF2FDE38B EQ PUSH2 0xB30 JUMPI DUP1 PUSH4 0xF31A2D0F EQ PUSH2 0xB50 JUMPI PUSH1 0x0 DUP1 REVERT JUMPDEST DUP1 PUSH4 0xD895AF2C GT PUSH2 0xD1 JUMPI DUP1 PUSH4 0xD895AF2C EQ PUSH2 0xA7D JUMPI DUP1 PUSH4 0xE52356F3 EQ PUSH2 0xA9D JUMPI DUP1 PUSH4 0xE5682E38 EQ PUSH2 0xABD JUMPI DUP1 PUSH4 0xEA62F715 EQ PUSH2 0xAD0 JUMPI PUSH1 0x0 DUP1 REVERT JUMPDEST DUP1 PUSH4 0xBFF1F9E1 EQ PUSH2 0x91F JUMPI DUP1 PUSH4 0xC3AB5EBF EQ PUSH2 0x93C JUMPI DUP1 PUSH4 0xC82801CA EQ PUSH2 0xA5D JUMPI PUSH1 0x0 DUP1 REVERT JUMPDEST DUP1 PUSH4 0xA0506AED GT PUSH2 0x164 JUMPI DUP1 PUSH4 0xA28A3686 GT PUSH2 0x13E JUMPI DUP1 PUSH4 0xA28A3686 EQ PUSH2 0x8A5 JUMPI DUP1 PUSH4 0xAF2F39D1 EQ PUSH2 0x8C5 JUMPI DUP1 PUSH4 0xB47181D3 EQ PUSH2 0x8DF JUMPI DUP1 PUSH4 0xBF46DE63 EQ PUSH2 0x8FF JUMPI PUSH1 0x0 DUP1 REVERT JUMPDEST DUP1 PUSH4 0xA0506AED EQ PUSH2 0x832 JUMPI DUP1 PUSH4 0xA0B6105F EQ PUSH2 0x861 JUMPI DUP1 PUSH4 0xA1B80175 EQ PUSH2 0x881 JUMPI PUSH1 0x0 DUP1 REVERT JUMPDEST DUP1 PUSH4 0x8DA5CB5B GT PUSH2 0x1A0 JUMPI DUP1 PUSH4 0x8DA5CB5B EQ PUSH2 0x7BE JUMPI DUP1 PUSH4 0x8DF05D9C EQ PUSH2 0x7DC JUMPI DUP1 PUSH4 0x96ED6B85 EQ PUSH2 0x7FC JUMPI DUP1 PUSH4 0x9F4E8398 EQ PUSH2 0x812 JUMPI PUSH1 0x0 DUP1 REVERT JUMPDEST DUP1 PUSH4 0x8129FC1C EQ PUSH2 0x773 JUMPI DUP1 PUSH4 0x852FF2FD EQ PUSH2 0x788 JUMPI DUP1 PUSH4 0x8891DF2B EQ PUSH2 0x79E JUMPI PUSH1 0x0 DUP1 REVERT JUMPDEST DUP1 PUSH4 0x347976C4 GT PUSH2 0x2A0 JUMPI DUP1 PUSH4 0x5E701D86 GT PUSH2 0x23E JUMPI DUP1 PUSH4 0x715018A6 GT PUSH2 0x218 JUMPI DUP1 PUSH4 0x715018A6 EQ PUSH2 0x708 JUMPI DUP1 PUSH4 0x76A68E84 EQ PUSH2 0x71D JUMPI DUP1 PUSH4 0x7879B5EF EQ PUSH2 0x73D JUMPI DUP1 PUSH4 0x7C599486 EQ PUSH2 0x75D JUMPI PUSH1 0x0 DUP1 REVERT JUMPDEST DUP1 PUSH4 0x5E701D86 EQ PUSH2 0x68E JUMPI DUP1 PUSH4 0x704B6C02 EQ PUSH2 0x6C8 JUMPI DUP1 PUSH4 0x70D9E081 EQ PUSH2 0x6E8 JUMPI PUSH1 0x0 DUP1 REVERT JUMPDEST DUP1 PUSH4 0x473B0D46 GT PUSH2 0x27A JUMPI DUP1 PUSH4 0x473B0D46 EQ PUSH2 0x5FD JUMPI DUP1 PUSH4 0x4F1EF286 EQ PUSH2 0x61D JUMPI DUP1 PUSH4 0x52D1902D EQ PUSH2 0x630 JUMPI DUP1 PUSH4 0x538FFE0C EQ PUSH2 0x645 JUMPI PUSH1 0x0 DUP1 REVERT JUMPDEST DUP1 PUSH4 0x347976C4 EQ PUSH2 0x543 JUMPI DUP1 PUSH4 0x35759788 EQ PUSH2 0x5C8 JUMPI DUP1 PUSH4 0x3659CFE6 EQ PUSH2 0x5DD JUMPI PUSH1 0x0 DUP1 REVERT JUMPDEST DUP1 PUSH4 0x1F7F83BA GT PUSH2 0x30D JUMPI DUP1 PUSH4 0x2913497B GT PUSH2 0x2E7 JUMPI DUP1 PUSH4 0x2913497B EQ PUSH2 0x4CB JUMPI DUP1 PUSH4 0x2ED421D2 EQ PUSH2 0x4E9 JUMPI DUP1 PUSH4 0x30ABBCC5 EQ PUSH2 0x4FF JUMPI DUP1 PUSH4 0x313CE567 EQ PUSH2 0x515 JUMPI PUSH1 0x0 DUP1 REVERT JUMPDEST DUP1 PUSH4 0x1F7F83BA EQ PUSH2 0x480 JUMPI DUP1 PUSH4 0x1F9E65E4 EQ PUSH2 0x4A0 JUMPI DUP1 PUSH4 0x22F88B52 EQ PUSH2 0x4B5 JUMPI PUSH1 0x0 DUP1 REVERT JUMPDEST DUP1 PUSH4 0x14BFD6D0 GT PUSH2 0x349 JUMPI DUP1 PUSH4 0x14BFD6D0 EQ PUSH2 0x3E6 JUMPI DUP1 PUSH4 0x18E10BFF EQ PUSH2 0x41E JUMPI DUP1 PUSH4 0x19B8BDF2 EQ PUSH2 0x44A JUMPI DUP1 PUSH4 0x1C961C05 EQ PUSH2 0x46A JUMPI PUSH1 0x0 DUP1 REVERT JUMPDEST DUP1 PUSH4 0x9DE82CD EQ PUSH2 0x37B JUMPI DUP1 PUSH4 0xB243DAD EQ PUSH2 0x3A4 JUMPI DUP1 PUSH4 0xEFDBB6A EQ PUSH2 0x3C6 JUMPI PUSH1 0x0 DUP1 REVERT JUMPDEST CALLDATASIZE PUSH2 0x376 JUMPI STOP JUMPDEST PUSH1 0x0 DUP1 REVERT JUMPDEST CALLVALUE DUP1 ISZERO PUSH2 0x387 JUMPI PUSH1 0x0 DUP1 REVERT JUMPDEST POP PUSH2 0x391 PUSH1 0xCE SLOAD DUP2 JUMP JUMPDEST PUSH1 0x40 MLOAD SWAP1 DUP2 MSTORE PUSH1 0x20 ADD JUMPDEST PUSH1 0x40 MLOAD DUP1 SWAP2 SUB SWAP1 RETURN JUMPDEST CALLVALUE DUP1 ISZERO PUSH2 0x3B0 JUMPI PUSH1 0x0 DUP1 REVERT JUMPDEST POP PUSH2 0x3C4 PUSH2 0x3BF CALLDATASIZE PUSH1 0x4 PUSH2 0x4E72 JUMP JUMPDEST PUSH2 0xBFF JUMP JUMPDEST STOP JUMPDEST CALLVALUE DUP1 ISZERO PUSH2 0x3D2 JUMPI PUSH1 0x0 DUP1 REVERT JUMPDEST POP PUSH2 0x3C4 PUSH2 0x3E1 CALLDATASIZE PUSH1 0x4 PUSH2 0x4E9C JUMP JUMPDEST PUSH2 0xC42 JUMP JUMPDEST CALLVALUE DUP1 ISZERO PUSH2 0x3F2 JUMPI PUSH1 0x0 DUP1 REVERT JUMPDEST POP PUSH2 0x406 PUSH2 0x401 CALLDATASIZE PUSH1 0x4 PUSH2 0x4EB7 JUMP JUMPDEST PUSH2 0xD24 JUMP JUMPDEST PUSH1 0x40 MLOAD PUSH1 0x1 PUSH1 0x1 PUSH1 0xA0 SHL SUB SWAP1 SWAP2 AND DUP2 MSTORE PUSH1 0x20 ADD PUSH2 0x39B JUMP JUMPDEST CALLVALUE DUP1 ISZERO PUSH2 0x42A JUMPI PUSH1 0x0 DUP1 REVERT JUMPDEST POP PUSH1 0xD9 SLOAD PUSH2 0x438 SWAP1 PUSH1 0xFF AND DUP2 JUMP JUMPDEST PUSH1 0x40 MLOAD PUSH1 0xFF SWAP1 SWAP2 AND DUP2 MSTORE PUSH1 0x20 ADD PUSH2 0x39B JUMP JUMPDEST CALLVALUE DUP1 ISZERO PUSH2 0x456 JUMPI PUSH1 0x0 DUP1 REVERT JUMPDEST POP PUSH2 0x3C4 PUSH2 0x465 CALLDATASIZE PUSH1 0x4 PUSH2 0x4EE4 JUMP JUMPDEST PUSH2 0xD4E JUMP JUMPDEST CALLVALUE DUP1 ISZERO PUSH2 0x476 JUMPI PUSH1 0x0 DUP1 REVERT JUMPDEST POP PUSH2 0x391 PUSH1 0xCC SLOAD DUP2 JUMP JUMPDEST CALLVALUE DUP1 ISZERO PUSH2 0x48C JUMPI PUSH1 0x0 DUP1 REVERT JUMPDEST POP PUSH2 0x406 PUSH2 0x49B CALLDATASIZE PUSH1 0x4 PUSH2 0x4EB7 JUMP JUMPDEST PUSH2 0xE65 JUMP JUMPDEST CALLVALUE DUP1 ISZERO PUSH2 0x4AC JUMPI PUSH1 0x0 DUP1 REVERT JUMPDEST POP PUSH2 0x391 PUSH2 0xE75 JUMP JUMPDEST CALLVALUE DUP1 ISZERO PUSH2 0x4C1 JUMPI PUSH1 0x0 DUP1 REVERT JUMPDEST POP PUSH2 0x391 PUSH1 0xD5 SLOAD DUP2 JUMP JUMPDEST CALLVALUE DUP1 ISZERO PUSH2 0x4D7 JUMPI PUSH1 0x0 DUP1 REVERT JUMPDEST POP PUSH1 0xC9 SLOAD PUSH1 0x1 PUSH1 0x1 PUSH1 0xA0 SHL SUB AND PUSH2 0x406 JUMP JUMPDEST CALLVALUE DUP1 ISZERO PUSH2 0x4F5 JUMPI PUSH1 0x0 DUP1 REVERT JUMPDEST POP PUSH2 0x391 PUSH1 0xD6 SLOAD DUP2 JUMP JUMPDEST CALLVALUE DUP1 ISZERO PUSH2 0x50B JUMPI PUSH1 0x0 DUP1 REVERT JUMPDEST POP PUSH2 0x391 PUSH1 0xD0 SLOAD DUP2 JUMP JUMPDEST CALLVALUE DUP1 ISZERO PUSH2 0x521 JUMPI PUSH1 0x0 DUP1 REVERT JUMPDEST POP PUSH1 0xCB SLOAD PUSH2 0x530 SWAP1 PUSH2 0xFFFF AND DUP2 JUMP JUMPDEST PUSH1 0x40 MLOAD PUSH2 0xFFFF SWAP1 SWAP2 AND DUP2 MSTORE PUSH1 0x20 ADD PUSH2 0x39B JUMP JUMPDEST CALLVALUE DUP1 ISZERO PUSH2 0x54F JUMPI PUSH1 0x0 DUP1 REVERT JUMPDEST POP PUSH2 0x59B PUSH2 0x55E CALLDATASIZE PUSH1 0x4 PUSH2 0x4F17 JUMP JUMPDEST PUSH4 0xFFFFFFFF AND PUSH1 0x0 SWAP1 DUP2 MSTORE PUSH1 0xDB PUSH1 0x20 MSTORE PUSH1 0x40 SWAP1 KECCAK256 PUSH1 0x9 DUP2 ADD SLOAD PUSH1 0xA DUP3 ADD SLOAD PUSH1 0xB DUP4 ADD SLOAD PUSH1 0xC DUP5 ADD SLOAD PUSH1 0xD DUP6 ADD SLOAD PUSH1 0xE SWAP1 SWAP6 ADD SLOAD SWAP4 SWAP6 SWAP3 SWAP5 SWAP2 SWAP4 SWAP1 SWAP3 JUMP JUMPDEST PUSH1 0x40 DUP1 MLOAD SWAP7 DUP8 MSTORE PUSH1 0x20 DUP8 ADD SWAP6 SWAP1 SWAP6 MSTORE SWAP4 DUP6 ADD SWAP3 SWAP1 SWAP3 MSTORE PUSH1 0x60 DUP5 ADD MSTORE PUSH1 0x80 DUP4 ADD MSTORE PUSH1 0xA0 DUP3 ADD MSTORE PUSH1 0xC0 ADD PUSH2 0x39B JUMP JUMPDEST CALLVALUE DUP1 ISZERO PUSH2 0x5D4 JUMPI PUSH1 0x0 DUP1 REVERT JUMPDEST POP PUSH2 0x3C4 PUSH2 0xE87 JUMP JUMPDEST CALLVALUE DUP1 ISZERO PUSH2 0x5E9 JUMPI PUSH1 0x0 DUP1 REVERT JUMPDEST POP PUSH2 0x3C4 PUSH2 0x5F8 CALLDATASIZE PUSH1 0x4 PUSH2 0x4E9C JUMP JUMPDEST PUSH2 0xEBE JUMP JUMPDEST CALLVALUE DUP1 ISZERO PUSH2 0x609 JUMPI PUSH1 0x0 DUP1 REVERT JUMPDEST POP PUSH2 0x3C4 PUSH2 0x618 CALLDATASIZE PUSH1 0x4 PUSH2 0x4EB7 JUMP JUMPDEST PUSH2 0xF9A JUMP JUMPDEST PUSH2 0x3C4 PUSH2 0x62B CALLDATASIZE PUSH1 0x4 PUSH2 0x4F79 JUMP JUMPDEST PUSH2 0xFA7 JUMP JUMPDEST CALLVALUE DUP1 ISZERO PUSH2 0x63C JUMPI PUSH1 0x0 DUP1 REVERT JUMPDEST POP PUSH2 0x391 PUSH2 0x1073 JUMP JUMPDEST CALLVALUE DUP1 ISZERO PUSH2 0x651 JUMPI PUSH1 0x0 DUP1 REVERT JUMPDEST POP PUSH2 0x67E PUSH2 0x660 CALLDATASIZE PUSH1 0x4 PUSH2 0x4E9C JUMP JUMPDEST PUSH1 0x1 PUSH1 0x1 PUSH1 0xA0 SHL SUB AND PUSH1 0x0 SWAP1 DUP2 MSTORE PUSH1 0xDA PUSH1 0x20 MSTORE PUSH1 0x40 SWAP1 KECCAK256 SLOAD PUSH1 0xFF AND SWAP1 JUMP JUMPDEST PUSH1 0x40 MLOAD SWAP1 ISZERO ISZERO DUP2 MSTORE PUSH1 0x20 ADD PUSH2 0x39B JUMP JUMPDEST CALLVALUE DUP1 ISZERO PUSH2 0x69A JUMPI PUSH1 0x0 DUP1 REVERT JUMPDEST POP PUSH1 0xD1 SLOAD PUSH2 0x6B3 SWAP1 PUSH5 0x100000000 SWAP1 DIV PUSH4 0xFFFFFFFF AND DUP2 JUMP JUMPDEST PUSH1 0x40 MLOAD PUSH4 0xFFFFFFFF SWAP1 SWAP2 AND DUP2 MSTORE PUSH1 0x20 ADD PUSH2 0x39B JUMP JUMPDEST CALLVALUE DUP1 ISZERO PUSH2 0x6D4 JUMPI PUSH1 0x0 DUP1 REVERT JUMPDEST POP PUSH2 0x3C4 PUSH2 0x6E3 CALLDATASIZE PUSH1 0x4 PUSH2 0x4E9C JUMP JUMPDEST PUSH2 0x1126 JUMP JUMPDEST CALLVALUE DUP1 ISZERO PUSH2 0x6F4 JUMPI PUSH1 0x0 DUP1 REVERT JUMPDEST POP PUSH2 0x3C4 PUSH2 0x703 CALLDATASIZE PUSH1 0x4 PUSH2 0x4F17 JUMP JUMPDEST PUSH2 0x1180 JUMP JUMPDEST CALLVALUE DUP1 ISZERO PUSH2 0x714 JUMPI PUSH1 0x0 DUP1 REVERT JUMPDEST POP PUSH2 0x3C4 PUSH2 0x125A JUMP JUMPDEST CALLVALUE DUP1 ISZERO PUSH2 0x729 JUMPI PUSH1 0x0 DUP1 REVERT JUMPDEST POP PUSH2 0x391 PUSH2 0x738 CALLDATASIZE PUSH1 0x4 PUSH2 0x4F17 JUMP JUMPDEST PUSH2 0x126E JUMP JUMPDEST CALLVALUE DUP1 ISZERO PUSH2 0x749 JUMPI PUSH1 0x0 DUP1 REVERT JUMPDEST POP PUSH2 0x530 PUSH2 0x758 CALLDATASIZE PUSH1 0x4 PUSH2 0x4EB7 JUMP JUMPDEST PUSH2 0x168F JUMP JUMPDEST CALLVALUE DUP1 ISZERO PUSH2 0x769 JUMPI PUSH1 0x0 DUP1 REVERT JUMPDEST POP PUSH2 0x391 PUSH1 0xCF SLOAD DUP2 JUMP JUMPDEST CALLVALUE DUP1 ISZERO PUSH2 0x77F JUMPI PUSH1 0x0 DUP1 REVERT JUMPDEST POP PUSH2 0x3C4 PUSH2 0x16C7 JUMP JUMPDEST CALLVALUE DUP1 ISZERO PUSH2 0x794 JUMPI PUSH1 0x0 DUP1 REVERT JUMPDEST POP PUSH2 0x391 PUSH1 0xCD SLOAD DUP2 JUMP JUMPDEST CALLVALUE DUP1 ISZERO PUSH2 0x7AA JUMPI PUSH1 0x0 DUP1 REVERT JUMPDEST POP PUSH2 0x3C4 PUSH2 0x7B9 CALLDATASIZE PUSH1 0x4 PUSH2 0x509F JUMP JUMPDEST PUSH2 0x1968 JUMP JUMPDEST CALLVALUE DUP1 ISZERO PUSH2 0x7CA JUMPI PUSH1 0x0 DUP1 REVERT JUMPDEST POP PUSH1 0x33 SLOAD PUSH1 0x1 PUSH1 0x1 PUSH1 0xA0 SHL SUB AND PUSH2 0x406 JUMP JUMPDEST CALLVALUE DUP1 ISZERO PUSH2 0x7E8 JUMPI PUSH1 0x0 DUP1 REVERT JUMPDEST POP PUSH1 0xCB SLOAD PUSH2 0x438 SWAP1 PUSH3 0x10000 SWAP1 DIV PUSH1 0xFF AND DUP2 JUMP JUMPDEST CALLVALUE DUP1 ISZERO PUSH2 0x808 JUMPI PUSH1 0x0 DUP1 REVERT JUMPDEST POP PUSH2 0x391 PUSH1 0xDF SLOAD DUP2 JUMP JUMPDEST CALLVALUE DUP1 ISZERO PUSH2 0x81E JUMPI PUSH1 0x0 DUP1 REVERT JUMPDEST POP PUSH2 0x3C4 PUSH2 0x82D CALLDATASIZE PUSH1 0x4 PUSH2 0x4E9C JUMP JUMPDEST PUSH2 0x1AF3 JUMP JUMPDEST CALLVALUE DUP1 ISZERO PUSH2 0x83E JUMPI PUSH1 0x0 DUP1 REVERT JUMPDEST POP PUSH2 0x852 PUSH2 0x84D CALLDATASIZE PUSH1 0x4 PUSH2 0x4F17 JUMP JUMPDEST PUSH2 0x1C0F JUMP JUMPDEST PUSH1 0x40 MLOAD PUSH2 0x39B SWAP4 SWAP3 SWAP2 SWAP1 PUSH2 0x5165 JUMP JUMPDEST CALLVALUE DUP1 ISZERO PUSH2 0x86D JUMPI PUSH1 0x0 DUP1 REVERT JUMPDEST POP PUSH2 0x3C4 PUSH2 0x87C CALLDATASIZE PUSH1 0x4 PUSH2 0x4E72 JUMP JUMPDEST PUSH2 0x203C JUMP JUMPDEST CALLVALUE DUP1 ISZERO PUSH2 0x88D JUMPI PUSH1 0x0 DUP1 REVERT JUMPDEST POP PUSH1 0xD1 SLOAD PUSH2 0x6B3 SWAP1 PUSH1 0x1 PUSH1 0x40 SHL SWAP1 DIV PUSH4 0xFFFFFFFF AND DUP2 JUMP JUMPDEST CALLVALUE DUP1 ISZERO PUSH2 0x8B1 JUMPI PUSH1 0x0 DUP1 REVERT JUMPDEST POP PUSH1 0xD4 SLOAD PUSH2 0x438 SWAP1 PUSH3 0x10000 SWAP1 DIV PUSH1 0xFF AND DUP2 JUMP JUMPDEST CALLVALUE DUP1 ISZERO PUSH2 0x8D1 JUMPI PUSH1 0x0 DUP1 REVERT JUMPDEST POP PUSH1 0xD4 SLOAD PUSH2 0x67E SWAP1 PUSH1 0xFF AND DUP2 JUMP JUMPDEST CALLVALUE DUP1 ISZERO PUSH2 0x8EB JUMPI PUSH1 0x0 DUP1 REVERT JUMPDEST POP PUSH2 0x391 PUSH2 0x8FA CALLDATASIZE PUSH1 0x4 PUSH2 0x4F17 JUMP JUMPDEST PUSH2 0x20B5 JUMP JUMPDEST CALLVALUE DUP1 ISZERO PUSH2 0x90B JUMPI PUSH1 0x0 DUP1 REVERT JUMPDEST POP PUSH2 0x391 PUSH2 0x91A CALLDATASIZE PUSH1 0x4 PUSH2 0x4F17 JUMP JUMPDEST PUSH2 0x24D3 JUMP JUMPDEST CALLVALUE DUP1 ISZERO PUSH2 0x92B JUMPI PUSH1 0x0 DUP1 REVERT JUMPDEST POP PUSH1 0xD1 SLOAD PUSH2 0x6B3 SWAP1 PUSH4 0xFFFFFFFF AND DUP2 JUMP JUMPDEST CALLVALUE DUP1 ISZERO PUSH2 0x948 JUMPI PUSH1 0x0 DUP1 REVERT JUMPDEST POP PUSH2 0xA01 PUSH2 0x957 CALLDATASIZE PUSH1 0x4 PUSH2 0x4F17 JUMP JUMPDEST PUSH1 0x40 DUP1 MLOAD PUSH1 0xC0 DUP2 ADD DUP3 MSTORE PUSH1 0x0 DUP1 DUP3 MSTORE PUSH1 0x20 DUP3 ADD DUP2 SWAP1 MSTORE SWAP2 DUP2 ADD DUP3 SWAP1 MSTORE PUSH1 0x60 DUP2 ADD DUP3 SWAP1 MSTORE PUSH1 0x80 DUP2 ADD DUP3 SWAP1 MSTORE PUSH1 0xA0 DUP2 ADD SWAP2 SWAP1 SWAP2 MSTORE POP PUSH4 0xFFFFFFFF SWAP1 DUP2 AND PUSH1 0x0 SWAP1 DUP2 MSTORE PUSH1 0xDC PUSH1 0x20 SWAP1 DUP2 MSTORE PUSH1 0x40 SWAP2 DUP3 SWAP1 KECCAK256 DUP3 MLOAD PUSH1 0xC0 DUP2 ADD DUP5 MSTORE DUP2 SLOAD DUP1 DUP7 AND DUP3 MSTORE PUSH1 0xFF PUSH5 0x100000000 DUP3 DIV AND ISZERO ISZERO SWAP4 DUP3 ADD SWAP4 SWAP1 SWAP4 MSTORE PUSH6 0x10000000000 SWAP1 SWAP3 DIV SWAP1 SWAP4 AND SWAP2 DUP2 ADD SWAP2 SWAP1 SWAP2 MSTORE PUSH1 0x1 DUP3 ADD SLOAD PUSH1 0x60 DUP3 ADD MSTORE PUSH1 0x2 DUP3 ADD SLOAD PUSH2 0xFFFF AND PUSH1 0x80 DUP3 ADD MSTORE PUSH1 0x3 SWAP1 SWAP2 ADD SLOAD PUSH1 0xA0 DUP3 ADD MSTORE SWAP1 JUMP JUMPDEST PUSH1 0x40 MLOAD PUSH2 0x39B SWAP2 SWAP1 PUSH1 0x0 PUSH1 0xC0 DUP3 ADD SWAP1 POP PUSH4 0xFFFFFFFF DUP1 DUP5 MLOAD AND DUP4 MSTORE PUSH1 0x20 DUP5 ADD MLOAD ISZERO ISZERO PUSH1 0x20 DUP5 ADD MSTORE DUP1 PUSH1 0x40 DUP6 ADD MLOAD AND PUSH1 0x40 DUP5 ADD MSTORE POP PUSH1 0x60 DUP4 ADD MLOAD PUSH1 0x60 DUP4 ADD MSTORE PUSH2 0xFFFF PUSH1 0x80 DUP5 ADD MLOAD AND PUSH1 0x80 DUP4 ADD MSTORE PUSH1 0xA0 DUP4 ADD MLOAD PUSH1 0xA0 DUP4 ADD MSTORE SWAP3 SWAP2 POP POP JUMP JUMPDEST CALLVALUE DUP1 ISZERO PUSH2 0xA69 JUMPI PUSH1 0x0 DUP1 REVERT JUMPDEST POP PUSH2 0x3C4 PUSH2 0xA78 CALLDATASIZE PUSH1 0x4 PUSH2 0x519B JUMP JUMPDEST PUSH2 0x24E4 JUMP JUMPDEST CALLVALUE DUP1 ISZERO PUSH2 0xA89 JUMPI PUSH1 0x0 DUP1 REVERT JUMPDEST POP PUSH2 0x3C4 PUSH2 0xA98 CALLDATASIZE PUSH1 0x4 PUSH2 0x4F17 JUMP JUMPDEST PUSH2 0x25CC JUMP JUMPDEST CALLVALUE DUP1 ISZERO PUSH2 0xAA9 JUMPI PUSH1 0x0 DUP1 REVERT JUMPDEST POP PUSH2 0x3C4 PUSH2 0xAB8 CALLDATASIZE PUSH1 0x4 PUSH2 0x4E9C JUMP JUMPDEST PUSH2 0x26A9 JUMP JUMPDEST PUSH2 0x3C4 PUSH2 0xACB CALLDATASIZE PUSH1 0x4 PUSH2 0x4F17 JUMP JUMPDEST PUSH2 0x287E JUMP JUMPDEST CALLVALUE DUP1 ISZERO PUSH2 0xADC JUMPI PUSH1 0x0 DUP1 REVERT JUMPDEST POP PUSH2 0x391 PUSH2 0xAEB CALLDATASIZE PUSH1 0x4 PUSH2 0x4F17 JUMP JUMPDEST PUSH2 0x2A92 JUMP JUMPDEST CALLVALUE DUP1 ISZERO PUSH2 0xAFC JUMPI PUSH1 0x0 DUP1 REVERT JUMPDEST POP PUSH2 0xB10 PUSH2 0xB0B CALLDATASIZE PUSH1 0x4 PUSH2 0x4F17 JUMP JUMPDEST PUSH2 0x2BB7 JUMP JUMPDEST PUSH1 0x40 DUP1 MLOAD SWAP5 DUP6 MSTORE PUSH1 0x20 DUP6 ADD SWAP4 SWAP1 SWAP4 MSTORE SWAP2 DUP4 ADD MSTORE PUSH1 0x60 DUP3 ADD MSTORE PUSH1 0x80 ADD PUSH2 0x39B JUMP JUMPDEST CALLVALUE DUP1 ISZERO PUSH2 0xB3C JUMPI PUSH1 0x0 DUP1 REVERT JUMPDEST POP PUSH2 0x3C4 PUSH2 0xB4B CALLDATASIZE PUSH1 0x4 PUSH2 0x4E9C JUMP JUMPDEST PUSH2 0x3002 JUMP JUMPDEST CALLVALUE DUP1 ISZERO PUSH2 0xB5C JUMPI PUSH1 0x0 DUP1 REVERT JUMPDEST POP PUSH2 0x3C4 PUSH2 0xB6B CALLDATASIZE PUSH1 0x4 PUSH2 0x51D7 JUMP JUMPDEST PUSH2 0x3078 JUMP JUMPDEST CALLVALUE DUP1 ISZERO PUSH2 0xB7C JUMPI PUSH1 0x0 DUP1 REVERT JUMPDEST POP PUSH2 0x391 PUSH1 0xD7 SLOAD DUP2 JUMP JUMPDEST CALLVALUE DUP1 ISZERO PUSH2 0xB92 JUMPI PUSH1 0x0 DUP1 REVERT JUMPDEST POP PUSH2 0xBA6 PUSH2 0xBA1 CALLDATASIZE PUSH1 0x4 PUSH2 0x4F17 JUMP JUMPDEST PUSH2 0x31C4 JUMP JUMPDEST PUSH1 0x40 MLOAD PUSH2 0x39B SWAP2 SWAP1 PUSH2 0x5243 JUMP JUMPDEST CALLVALUE DUP1 ISZERO PUSH2 0xBBF JUMPI PUSH1 0x0 DUP1 REVERT JUMPDEST POP PUSH1 0xD4 SLOAD PUSH2 0x67E SWAP1 PUSH2 0x100 SWAP1 DIV PUSH1 0xFF AND DUP2 JUMP JUMPDEST CALLVALUE DUP1 ISZERO PUSH2 0xBDE JUMPI PUSH1 0x0 DUP1 REVERT JUMPDEST POP PUSH2 0xBF2 PUSH2 0xBED CALLDATASIZE PUSH1 0x4 PUSH2 0x4E9C JUMP JUMPDEST PUSH2 0x36DC JUMP JUMPDEST PUSH1 0x40 MLOAD PUSH2 0x39B SWAP2 SWAP1 PUSH2 0x5471 JUMP JUMPDEST PUSH2 0xC07 PUSH2 0x37A7 JUMP JUMPDEST PUSH1 0x40 MLOAD PUSH1 0x1 PUSH1 0x1 PUSH1 0xA0 SHL SUB DUP4 AND SWAP1 DUP3 ISZERO PUSH2 0x8FC MUL SWAP1 DUP4 SWAP1 PUSH1 0x0 DUP2 DUP2 DUP2 DUP6 DUP9 DUP9 CALL SWAP4 POP POP POP POP ISZERO DUP1 ISZERO PUSH2 0xC3D JUMPI RETURNDATASIZE PUSH1 0x0 DUP1 RETURNDATACOPY RETURNDATASIZE PUSH1 0x0 REVERT JUMPDEST POP POP POP JUMP JUMPDEST PUSH1 0x0 JUMPDEST PUSH1 0xDE SLOAD PUSH1 0xFF DUP3 AND LT ISZERO PUSH2 0xD20 JUMPI PUSH1 0xDE DUP2 PUSH1 0xFF AND DUP2 SLOAD DUP2 LT PUSH2 0xC68 JUMPI PUSH2 0xC68 PUSH2 0x5498 JUMP JUMPDEST PUSH1 0x0 SWAP2 DUP3 MSTORE PUSH1 0x20 SWAP1 SWAP2 KECCAK256 ADD SLOAD PUSH1 0x1 PUSH1 0x1 PUSH1 0xA0 SHL SUB AND CALLER SUB PUSH2 0xCA4 JUMPI PUSH1 0xC9 DUP1 SLOAD PUSH1 0x1 PUSH1 0x1 PUSH1 0xA0 SHL SUB DUP5 AND PUSH1 0x1 PUSH1 0x1 PUSH1 0xA0 SHL SUB NOT SWAP1 SWAP2 AND OR SWAP1 SSTORE POP POP JUMP JUMPDEST PUSH1 0xDE SLOAD PUSH2 0xCB3 SWAP1 PUSH1 0x1 SWAP1 PUSH2 0x54C4 JUMP JUMPDEST DUP2 PUSH1 0xFF AND SUB PUSH2 0xD0E JUMPI PUSH1 0xDE DUP2 PUSH1 0xFF AND DUP2 SLOAD DUP2 LT PUSH2 0xCD2 JUMPI PUSH2 0xCD2 PUSH2 0x5498 JUMP JUMPDEST PUSH1 0x0 SWAP2 DUP3 MSTORE PUSH1 0x20 SWAP1 SWAP2 KECCAK256 ADD SLOAD PUSH1 0x1 PUSH1 0x1 PUSH1 0xA0 SHL SUB AND CALLER EQ PUSH2 0xD0E JUMPI PUSH1 0x40 MLOAD PUSH3 0x461BCD PUSH1 0xE5 SHL DUP2 MSTORE PUSH1 0x4 ADD PUSH2 0xD05 SWAP1 PUSH2 0x54D7 JUMP JUMPDEST PUSH1 0x40 MLOAD DUP1 SWAP2 SUB SWAP1 REVERT JUMPDEST DUP1 PUSH2 0xD18 DUP2 PUSH2 0x5502 JUMP JUMPDEST SWAP2 POP POP PUSH2 0xC45 JUMP JUMPDEST POP POP JUMP JUMPDEST PUSH1 0xDE DUP2 DUP2 SLOAD DUP2 LT PUSH2 0xD34 JUMPI PUSH1 0x0 DUP1 REVERT JUMPDEST PUSH1 0x0 SWAP2 DUP3 MSTORE PUSH1 0x20 SWAP1 SWAP2 KECCAK256 ADD SLOAD PUSH1 0x1 PUSH1 0x1 PUSH1 0xA0 SHL SUB AND SWAP1 POP DUP2 JUMP JUMPDEST PUSH1 0x0 JUMPDEST PUSH1 0xDE SLOAD PUSH1 0xFF DUP3 AND LT ISZERO PUSH2 0xC3D JUMPI PUSH1 0xDE DUP2 PUSH1 0xFF AND DUP2 SLOAD DUP2 LT PUSH2 0xD74 JUMPI PUSH2 0xD74 PUSH2 0x5498 JUMP JUMPDEST PUSH1 0x0 SWAP2 DUP3 MSTORE PUSH1 0x20 SWAP1 SWAP2 KECCAK256 ADD SLOAD PUSH1 0x1 PUSH1 0x1 PUSH1 0xA0 SHL SUB AND CALLER SUB PUSH2 0xDF2 JUMPI DUP3 JUMPDEST DUP3 PUSH4 0xFFFFFFFF AND DUP2 PUSH4 0xFFFFFFFF AND LT ISZERO PUSH2 0xDEC JUMPI PUSH4 0xFFFFFFFF DUP2 AND PUSH1 0x0 SWAP1 DUP2 MSTORE PUSH1 0xDB PUSH1 0x20 MSTORE PUSH1 0x40 DUP2 KECCAK256 PUSH1 0x16 DUP2 ADD DUP3 SWAP1 SSTORE PUSH1 0x17 DUP2 ADD DUP3 SWAP1 SSTORE PUSH1 0x15 DUP2 ADD DUP3 SWAP1 SSTORE PUSH1 0xA DUP2 ADD DUP3 SWAP1 SSTORE PUSH1 0xC ADD SSTORE DUP1 PUSH2 0xDE4 DUP2 PUSH2 0x5521 JUMP JUMPDEST SWAP2 POP POP PUSH2 0xD91 JUMP JUMPDEST POP POP POP POP JUMP JUMPDEST PUSH1 0xDE SLOAD PUSH2 0xE01 SWAP1 PUSH1 0x1 SWAP1 PUSH2 0x54C4 JUMP JUMPDEST DUP2 PUSH1 0xFF AND SUB PUSH2 0xE53 JUMPI PUSH1 0xDE DUP2 PUSH1 0xFF AND DUP2 SLOAD DUP2 LT PUSH2 0xE20 JUMPI PUSH2 0xE20 PUSH2 0x5498 JUMP JUMPDEST PUSH1 0x0 SWAP2 DUP3 MSTORE PUSH1 0x20 SWAP1 SWAP2 KECCAK256 ADD SLOAD PUSH1 0x1 PUSH1 0x1 PUSH1 0xA0 SHL SUB AND CALLER EQ PUSH2 0xE53 JUMPI PUSH1 0x40 MLOAD PUSH3 0x461BCD PUSH1 0xE5 SHL DUP2 MSTORE PUSH1 0x4 ADD PUSH2 0xD05 SWAP1 PUSH2 0x54D7 JUMP JUMPDEST DUP1 PUSH2 0xE5D DUP2 PUSH2 0x5502 JUMP JUMPDEST SWAP2 POP POP PUSH2 0xD51 JUMP JUMPDEST PUSH1 0xD8 DUP2 DUP2 SLOAD DUP2 LT PUSH2 0xD34 JUMPI PUSH1 0x0 DUP1 REVERT JUMPDEST PUSH1 0x0 PUSH2 0xE82 PUSH1 0xDF SLOAD PUSH2 0x3801 JUMP JUMPDEST SWAP1 POP SWAP1 JUMP JUMPDEST PUSH2 0xE8F PUSH2 0x37A7 JUMP JUMPDEST PUSH1 0x40 MLOAD CALLER SWAP1 SELFBALANCE DUP1 ISZERO PUSH2 0x8FC MUL SWAP2 PUSH1 0x0 DUP2 DUP2 DUP2 DUP6 DUP9 DUP9 CALL SWAP4 POP POP POP POP ISZERO DUP1 ISZERO PUSH2 0xEBB JUMPI RETURNDATASIZE PUSH1 0x0 DUP1 RETURNDATACOPY RETURNDATASIZE PUSH1 0x0 REVERT JUMPDEST POP JUMP JUMPDEST PUSH1 0x1 PUSH1 0x1 PUSH1 0xA0 SHL SUB PUSH32 0x0 AND ADDRESS SUB PUSH2 0xF06 JUMPI PUSH1 0x40 MLOAD PUSH3 0x461BCD PUSH1 0xE5 SHL DUP2 MSTORE PUSH1 0x4 ADD PUSH2 0xD05 SWAP1 PUSH2 0x5544 JUMP JUMPDEST PUSH32 0x0 PUSH1 0x1 PUSH1 0x1 PUSH1 0xA0 SHL SUB AND PUSH2 0xF4F PUSH1 0x0 DUP1 MLOAD PUSH1 0x20 PUSH2 0x5782 DUP4 CODECOPY DUP2 MLOAD SWAP2 MSTORE SLOAD PUSH1 0x1 PUSH1 0x1 PUSH1 0xA0 SHL SUB AND SWAP1 JUMP JUMPDEST PUSH1 0x1 PUSH1 0x1 PUSH1 0xA0 SHL SUB AND EQ PUSH2 0xF75 JUMPI PUSH1 0x40 MLOAD PUSH3 0x461BCD PUSH1 0xE5 SHL DUP2 MSTORE PUSH1 0x4 ADD PUSH2 0xD05 SWAP1 PUSH2 0x5590 JUMP JUMPDEST PUSH2 0xF7E DUP2 PUSH2 0x3897 JUMP JUMPDEST PUSH1 0x40 DUP1 MLOAD PUSH1 0x0 DUP1 DUP3 MSTORE PUSH1 0x20 DUP3 ADD SWAP1 SWAP3 MSTORE PUSH2 0xEBB SWAP2 DUP4 SWAP2 SWAP1 PUSH2 0x389F JUMP JUMPDEST PUSH2 0xFA2 PUSH2 0x37A7 JUMP JUMPDEST PUSH1 0xDF SSTORE JUMP JUMPDEST PUSH1 0x1 PUSH1 0x1 PUSH1 0xA0 SHL SUB PUSH32 0x0 AND ADDRESS SUB PUSH2 0xFEF JUMPI PUSH1 0x40 MLOAD PUSH3 0x461BCD PUSH1 0xE5 SHL DUP2 MSTORE PUSH1 0x4 ADD PUSH2 0xD05 SWAP1 PUSH2 0x5544 JUMP JUMPDEST PUSH32 0x0 PUSH1 0x1 PUSH1 0x1 PUSH1 0xA0 SHL SUB AND PUSH2 0x1038 PUSH1 0x0 DUP1 MLOAD PUSH1 0x20 PUSH2 0x5782 DUP4 CODECOPY DUP2 MLOAD SWAP2 MSTORE SLOAD PUSH1 0x1 PUSH1 0x1 PUSH1 0xA0 SHL SUB AND SWAP1 JUMP JUMPDEST PUSH1 0x1 PUSH1 0x1 PUSH1 0xA0 SHL SUB AND EQ PUSH2 0x105E JUMPI PUSH1 0x40 MLOAD PUSH3 0x461BCD PUSH1 0xE5 SHL DUP2 MSTORE PUSH1 0x4 ADD PUSH2 0xD05 SWAP1 PUSH2 0x5590 JUMP JUMPDEST PUSH2 0x1067 DUP3 PUSH2 0x3897 JUMP JUMPDEST PUSH2 0xD20 DUP3 DUP3 PUSH1 0x1 PUSH2 0x389F JUMP JUMPDEST PUSH1 0x0 ADDRESS PUSH1 0x1 PUSH1 0x1 PUSH1 0xA0 SHL SUB PUSH32 0x0 AND EQ PUSH2 0x1113 JUMPI PUSH1 0x40 MLOAD PUSH3 0x461BCD PUSH1 0xE5 SHL DUP2 MSTORE PUSH1 0x20 PUSH1 0x4 DUP3 ADD MSTORE PUSH1 0x38 PUSH1 0x24 DUP3 ADD MSTORE PUSH32 0x555550535570677261646561626C653A206D757374206E6F742062652063616C PUSH1 0x44 DUP3 ADD MSTORE PUSH32 0x6C6564207468726F7567682064656C656761746563616C6C0000000000000000 PUSH1 0x64 DUP3 ADD MSTORE PUSH1 0x84 ADD PUSH2 0xD05 JUMP JUMPDEST POP PUSH1 0x0 DUP1 MLOAD PUSH1 0x20 PUSH2 0x5782 DUP4 CODECOPY DUP2 MLOAD SWAP2 MSTORE SWAP1 JUMP JUMPDEST PUSH2 0x112E PUSH2 0x37A7 JUMP JUMPDEST PUSH1 0xDE DUP1 SLOAD PUSH1 0x1 DUP2 ADD DUP3 SSTORE PUSH1 0x0 SWAP2 SWAP1 SWAP2 MSTORE PUSH32 0xFAE8130C0619F84B4B44F01B84806F04E82E536D70E05F2356977FA318AECC1A ADD DUP1 SLOAD PUSH1 0x1 PUSH1 0x1 PUSH1 0xA0 SHL SUB NOT AND PUSH1 0x1 PUSH1 0x1 PUSH1 0xA0 SHL SUB SWAP3 SWAP1 SWAP3 AND SWAP2 SWAP1 SWAP2 OR SWAP1 SSTORE JUMP JUMPDEST PUSH1 0x0 JUMPDEST PUSH1 0xDE SLOAD PUSH1 0xFF DUP3 AND LT ISZERO PUSH2 0xD20 JUMPI PUSH1 0xDE DUP2 PUSH1 0xFF AND DUP2 SLOAD DUP2 LT PUSH2 0x11A6 JUMPI PUSH2 0x11A6 PUSH2 0x5498 JUMP JUMPDEST PUSH1 0x0 SWAP2 DUP3 MSTORE PUSH1 0x20 SWAP1 SWAP2 KECCAK256 ADD SLOAD PUSH1 0x1 PUSH1 0x1 PUSH1 0xA0 SHL SUB AND CALLER SUB PUSH2 0x11E7 JUMPI PUSH1 0xD1 DUP1 SLOAD PUSH4 0xFFFFFFFF DUP5 AND PUSH5 0x100000000 MUL PUSH8 0xFFFFFFFF00000000 NOT SWAP1 SWAP2 AND OR SWAP1 SSTORE POP POP JUMP JUMPDEST PUSH1 0xDE SLOAD PUSH2 0x11F6 SWAP1 PUSH1 0x1 SWAP1 PUSH2 0x54C4 JUMP JUMPDEST DUP2 PUSH1 0xFF AND SUB PUSH2 0x1248 JUMPI PUSH1 0xDE DUP2 PUSH1 0xFF AND DUP2 SLOAD DUP2 LT PUSH2 0x1215 JUMPI PUSH2 0x1215 PUSH2 0x5498 JUMP JUMPDEST PUSH1 0x0 SWAP2 DUP3 MSTORE PUSH1 0x20 SWAP1 SWAP2 KECCAK256 ADD SLOAD PUSH1 0x1 PUSH1 0x1 PUSH1 0xA0 SHL SUB AND CALLER EQ PUSH2 0x1248 JUMPI PUSH1 0x40 MLOAD PUSH3 0x461BCD PUSH1 0xE5 SHL DUP2 MSTORE PUSH1 0x4 ADD PUSH2 0xD05 SWAP1 PUSH2 0x54D7 JUMP JUMPDEST DUP1 PUSH2 0x1252 DUP2 PUSH2 0x5502 JUMP JUMPDEST SWAP2 POP POP PUSH2 0x1183 JUMP JUMPDEST PUSH2 0x1262 PUSH2 0x37A7 JUMP JUMPDEST PUSH2 0x126C PUSH1 0x0 PUSH2 0x3A0A JUMP JUMPDEST JUMP JUMPDEST PUSH4 0xFFFFFFFF DUP1 DUP3 AND PUSH1 0x0 SWAP1 DUP2 MSTORE PUSH1 0xDB PUSH1 0x20 SWAP1 DUP2 MSTORE PUSH1 0x40 DUP1 DUP4 KECCAK256 DUP2 MLOAD PUSH2 0x400 DUP2 ADD SWAP1 SWAP3 MSTORE DUP1 SLOAD SWAP1 SWAP5 AND DUP2 MSTORE PUSH1 0x1 DUP5 ADD DUP1 SLOAD SWAP4 SWAP5 DUP6 SWAP5 SWAP3 SWAP4 SWAP1 SWAP3 SWAP1 DUP5 ADD SWAP2 SWAP1 PUSH2 0x12B4 SWAP1 PUSH2 0x55DC JUMP JUMPDEST DUP1 PUSH1 0x1F ADD PUSH1 0x20 DUP1 SWAP2 DIV MUL PUSH1 0x20 ADD PUSH1 0x40 MLOAD SWAP1 DUP2 ADD PUSH1 0x40 MSTORE DUP1 SWAP3 SWAP2 SWAP1 DUP2 DUP2 MSTORE PUSH1 0x20 ADD DUP3 DUP1 SLOAD PUSH2 0x12E0 SWAP1 PUSH2 0x55DC JUMP JUMPDEST DUP1 ISZERO PUSH2 0x132D JUMPI DUP1 PUSH1 0x1F LT PUSH2 0x1302 JUMPI PUSH2 0x100 DUP1 DUP4 SLOAD DIV MUL DUP4 MSTORE SWAP2 PUSH1 0x20 ADD SWAP2 PUSH2 0x132D JUMP JUMPDEST DUP3 ADD SWAP2 SWAP1 PUSH1 0x0 MSTORE PUSH1 0x20 PUSH1 0x0 KECCAK256 SWAP1 JUMPDEST DUP2 SLOAD DUP2 MSTORE SWAP1 PUSH1 0x1 ADD SWAP1 PUSH1 0x20 ADD DUP1 DUP4 GT PUSH2 0x1310 JUMPI DUP3 SWAP1 SUB PUSH1 0x1F AND DUP3 ADD SWAP2 JUMPDEST POP POP POP SWAP2 DUP4 MSTORE POP POP PUSH1 0x2 DUP3 ADD SLOAD PUSH1 0xFF DUP2 AND ISZERO ISZERO PUSH1 0x20 DUP1 DUP5 ADD SWAP2 SWAP1 SWAP2 MSTORE PUSH2 0x100 SWAP1 SWAP2 DIV PUSH1 0x1 PUSH1 0x1 PUSH1 0xA0 SHL SUB AND PUSH1 0x40 DUP1 DUP5 ADD SWAP2 SWAP1 SWAP2 MSTORE PUSH1 0x3 DUP5 ADD SLOAD PUSH1 0x60 DUP5 ADD MSTORE PUSH1 0x4 DUP5 ADD SLOAD PUSH1 0x80 DUP5 ADD MSTORE PUSH1 0x5 DUP5 ADD SLOAD PUSH4 0xFFFFFFFF AND PUSH1 0xA0 DUP5 ADD MSTORE PUSH1 0x6 DUP5 ADD DUP1 SLOAD DUP3 MLOAD DUP2 DUP6 MUL DUP2 ADD DUP6 ADD SWAP1 SWAP4 MSTORE DUP1 DUP4 MSTORE PUSH1 0xC0 SWAP1 SWAP5 ADD SWAP4 SWAP2 SWAP3 SWAP1 SWAP2 SWAP1 DUP4 ADD DUP3 DUP3 DUP1 ISZERO PUSH2 0x1400 JUMPI PUSH1 0x20 MUL DUP3 ADD SWAP2 SWAP1 PUSH1 0x0 MSTORE PUSH1 0x20 PUSH1 0x0 KECCAK256 SWAP1 PUSH1 0x0 SWAP1 JUMPDEST DUP3 DUP3 SWAP1 SLOAD SWAP1 PUSH2 0x100 EXP SWAP1 DIV PUSH4 0xFFFFFFFF AND PUSH4 0xFFFFFFFF AND DUP2 MSTORE PUSH1 0x20 ADD SWAP1 PUSH1 0x4 ADD SWAP1 PUSH1 0x20 DUP3 PUSH1 0x3 ADD DIV SWAP3 DUP4 ADD SWAP3 PUSH1 0x1 SUB DUP3 MUL SWAP2 POP DUP1 DUP5 GT PUSH2 0x13C3 JUMPI SWAP1 POP JUMPDEST POP POP POP POP POP DUP2 MSTORE PUSH1 0x20 ADD PUSH1 0x7 DUP3 ADD DUP1 SLOAD DUP1 PUSH1 0x20 MUL PUSH1 0x20 ADD PUSH1 0x40 MLOAD SWAP1 DUP2 ADD PUSH1 0x40 MSTORE DUP1 SWAP3 SWAP2 SWAP1 DUP2 DUP2 MSTORE PUSH1 0x20 ADD DUP3 DUP1 SLOAD DUP1 ISZERO PUSH2 0x1484 JUMPI PUSH1 0x20 MUL DUP3 ADD SWAP2 SWAP1 PUSH1 0x0 MSTORE PUSH1 0x20 PUSH1 0x0 KECCAK256 SWAP1 PUSH1 0x0 SWAP1 JUMPDEST DUP3 DUP3 SWAP1 SLOAD SWAP1 PUSH2 0x100 EXP SWAP1 DIV PUSH4 0xFFFFFFFF AND PUSH4 0xFFFFFFFF AND DUP2 MSTORE PUSH1 0x20 ADD SWAP1 PUSH1 0x4 ADD SWAP1 PUSH1 0x20 DUP3 PUSH1 0x3 ADD DIV SWAP3 DUP4 ADD SWAP3 PUSH1 0x1 SUB DUP3 MUL SWAP2 POP DUP1 DUP5 GT PUSH2 0x1447 JUMPI SWAP1 POP JUMPDEST POP POP POP POP POP DUP2 MSTORE PUSH1 0x20 ADD PUSH1 0x8 DUP3 ADD DUP1 SLOAD DUP1 PUSH1 0x20 MUL PUSH1 0x20 ADD PUSH1 0x40 MLOAD SWAP1 DUP2 ADD PUSH1 0x40 MSTORE DUP1 SWAP3 SWAP2 SWAP1 DUP2 DUP2 MSTORE PUSH1 0x20 ADD DUP3 DUP1 SLOAD DUP1 ISZERO PUSH2 0x1508 JUMPI PUSH1 0x20 MUL DUP3 ADD SWAP2 SWAP1 PUSH1 0x0 MSTORE PUSH1 0x20 PUSH1 0x0 KECCAK256 SWAP1 PUSH1 0x0 SWAP1 JUMPDEST DUP3 DUP3 SWAP1 SLOAD SWAP1 PUSH2 0x100 EXP SWAP1 DIV PUSH4 0xFFFFFFFF AND PUSH4 0xFFFFFFFF AND DUP2 MSTORE PUSH1 0x20 ADD SWAP1 PUSH1 0x4 ADD SWAP1 PUSH1 0x20 DUP3 PUSH1 0x3 ADD DIV SWAP3 DUP4 ADD SWAP3 PUSH1 0x1 SUB DUP3 MUL SWAP2 POP DUP1 DUP5 GT PUSH2 0x14CB JUMPI SWAP1 POP JUMPDEST POP POP POP POP POP DUP2 MSTORE PUSH1 0x20 ADD PUSH1 0x9 DUP3 ADD SLOAD DUP2 MSTORE PUSH1 0x20 ADD PUSH1 0xA DUP3 ADD SLOAD DUP2 MSTORE PUSH1 0x20 ADD PUSH1 0xB DUP3 ADD SLOAD DUP2 MSTORE PUSH1 0x20 ADD PUSH1 0xC DUP3 ADD SLOAD DUP2 MSTORE PUSH1 0x20 ADD PUSH1 0xD DUP3 ADD SLOAD DUP2 MSTORE PUSH1 0x20 ADD PUSH1 0xE DUP3 ADD SLOAD DUP2 MSTORE PUSH1 0x20 ADD PUSH1 0xF DUP3 ADD SLOAD DUP2 MSTORE PUSH1 0x20 ADD PUSH1 0x10 DUP3 ADD SLOAD DUP2 MSTORE PUSH1 0x20 ADD PUSH1 0x11 DUP3 ADD PUSH1 0x0 SWAP1 SLOAD SWAP1 PUSH2 0x100 EXP SWAP1 DIV PUSH1 0xFF AND PUSH1 0xFF AND PUSH1 0xFF AND DUP2 MSTORE PUSH1 0x20 ADD PUSH1 0x12 DUP3 ADD SLOAD DUP2 MSTORE PUSH1 0x20 ADD PUSH1 0x13 DUP3 ADD SLOAD DUP2 MSTORE PUSH1 0x20 ADD PUSH1 0x14 DUP3 ADD SLOAD DUP2 MSTORE PUSH1 0x20 ADD PUSH1 0x15 DUP3 ADD SLOAD DUP2 MSTORE PUSH1 0x20 ADD PUSH1 0x16 DUP3 ADD SLOAD DUP2 MSTORE PUSH1 0x20 ADD PUSH1 0x17 DUP3 ADD SLOAD DUP2 MSTORE PUSH1 0x20 ADD PUSH1 0x18 DUP3 ADD SLOAD DUP2 MSTORE PUSH1 0x20 ADD PUSH1 0x19 DUP3 ADD SLOAD DUP2 MSTORE PUSH1 0x20 ADD PUSH1 0x1A DUP3 ADD SLOAD DUP2 MSTORE PUSH1 0x20 ADD PUSH1 0x1B DUP3 ADD DUP1 SLOAD DUP1 PUSH1 0x20 MUL PUSH1 0x20 ADD PUSH1 0x40 MLOAD SWAP1 DUP2 ADD PUSH1 0x40 MSTORE DUP1 SWAP3 SWAP2 SWAP1 DUP2 DUP2 MSTORE PUSH1 0x20 ADD DUP3 DUP1 SLOAD DUP1 ISZERO PUSH2 0x1653 JUMPI PUSH1 0x20 MUL DUP3 ADD SWAP2 SWAP1 PUSH1 0x0 MSTORE PUSH1 0x20 PUSH1 0x0 KECCAK256 SWAP1 PUSH1 0x0 SWAP1 JUMPDEST DUP3 DUP3 SWAP1 SLOAD SWAP1 PUSH2 0x100 EXP SWAP1 DIV PUSH4 0xFFFFFFFF AND PUSH4 0xFFFFFFFF AND DUP2 MSTORE PUSH1 0x20 ADD SWAP1 PUSH1 0x4 ADD SWAP1 PUSH1 0x20 DUP3 PUSH1 0x3 ADD DIV SWAP3 DUP4 ADD SWAP3 PUSH1 0x1 SUB DUP3 MUL SWAP2 POP DUP1 DUP5 GT PUSH2 0x1616 JUMPI SWAP1 POP JUMPDEST POP POP POP POP POP DUP2 MSTORE PUSH1 0x20 ADD PUSH1 0x1C DUP3 ADD SLOAD DUP2 MSTORE PUSH1 0x20 ADD PUSH1 0x1D DUP3 ADD SLOAD DUP2 MSTORE PUSH1 0x20 ADD PUSH1 0x1E DUP3 ADD SLOAD DUP2 MSTORE POP POP SWAP1 POP PUSH2 0x1685 DUP2 PUSH2 0x3A5C JUMP JUMPDEST PUSH1 0xFF AND SWAP4 SWAP3 POP POP POP JUMP JUMPDEST PUSH1 0xCA DUP2 DUP2 SLOAD DUP2 LT PUSH2 0x169F JUMPI PUSH1 0x0 DUP1 REVERT JUMPDEST SWAP1 PUSH1 0x0 MSTORE PUSH1 0x20 PUSH1 0x0 KECCAK256 SWAP1 PUSH1 0x10 SWAP2 DUP3 DUP3 DIV ADD SWAP2 SWAP1 MOD PUSH1 0x2 MUL SWAP2 POP SLOAD SWAP1 PUSH2 0x100 EXP SWAP1 DIV PUSH2 0xFFFF AND DUP2 JUMP JUMPDEST PUSH1 0x0 SLOAD PUSH2 0x100 SWAP1 DIV PUSH1 0xFF AND ISZERO DUP1 DUP1 ISZERO PUSH2 0x16E7 JUMPI POP PUSH1 0x0 SLOAD PUSH1 0x1 PUSH1 0xFF SWAP1 SWAP2 AND LT JUMPDEST DUP1 PUSH2 0x1701 JUMPI POP ADDRESS EXTCODESIZE ISZERO DUP1 ISZERO PUSH2 0x1701 JUMPI POP PUSH1 0x0 SLOAD PUSH1 0xFF AND PUSH1 0x1 EQ JUMPDEST PUSH2 0x1764 JUMPI PUSH1 0x40 MLOAD PUSH3 0x461BCD PUSH1 0xE5 SHL DUP2 MSTORE PUSH1 0x20 PUSH1 0x4 DUP3 ADD MSTORE PUSH1 0x2E PUSH1 0x24 DUP3 ADD MSTORE PUSH32 0x496E697469616C697A61626C653A20636F6E747261637420697320616C726561 PUSH1 0x44 DUP3 ADD MSTORE PUSH14 0x191E481A5B9A5D1A585B1A5E9959 PUSH1 0x92 SHL PUSH1 0x64 DUP3 ADD MSTORE PUSH1 0x84 ADD PUSH2 0xD05 JUMP JUMPDEST PUSH1 0x0 DUP1 SLOAD PUSH1 0xFF NOT AND PUSH1 0x1 OR SWAP1 SSTORE DUP1 ISZERO PUSH2 0x1787 JUMPI PUSH1 0x0 DUP1 SLOAD PUSH2 0xFF00 NOT AND PUSH2 0x100 OR SWAP1 SSTORE JUMPDEST PUSH1 0xC9 DUP1 SLOAD PUSH1 0x1 PUSH1 0x1 PUSH1 0xA0 SHL SUB NOT AND PUSH20 0x286D6392042B4D7180FD6D20F8D35C8776815774 OR SWAP1 SSTORE PUSH1 0xCB DUP1 SLOAD PUSH2 0xFFFF NOT AND PUSH2 0x3E8 OR SWAP1 SSTORE PUSH1 0x40 DUP1 MLOAD PUSH2 0x3A0 DUP2 ADD DUP3 MSTORE PUSH1 0x64 DUP2 MSTORE PUSH1 0x46 PUSH1 0x20 DUP3 ADD MSTORE PUSH1 0x32 SWAP2 DUP2 ADD DUP3 SWAP1 MSTORE PUSH1 0x60 DUP2 ADD DUP3 SWAP1 MSTORE PUSH1 0x80 DUP2 ADD DUP3 SWAP1 MSTORE PUSH1 0xA0 DUP2 ADD DUP3 SWAP1 MSTORE PUSH1 0xC0 DUP2 ADD DUP3 SWAP1 MSTORE PUSH1 0xE0 DUP2 ADD DUP3 SWAP1 MSTORE PUSH2 0x100 DUP2 ADD DUP3 SWAP1 MSTORE PUSH2 0x120 DUP2 ADD DUP3 SWAP1 MSTORE PUSH2 0x140 DUP2 ADD DUP3 SWAP1 MSTORE PUSH2 0x160 DUP2 ADD DUP3 SWAP1 MSTORE PUSH2 0x180 DUP2 ADD DUP3 SWAP1 MSTORE PUSH2 0x1A0 DUP2 ADD DUP3 SWAP1 MSTORE PUSH2 0x1C0 DUP2 ADD DUP3 SWAP1 MSTORE PUSH2 0x1E0 DUP2 ADD DUP3 SWAP1 MSTORE PUSH2 0x200 DUP2 ADD DUP3 SWAP1 MSTORE PUSH2 0x220 DUP2 ADD DUP3 SWAP1 MSTORE PUSH2 0x240 DUP2 ADD SWAP2 SWAP1 SWAP2 MSTORE PUSH1 0x14 PUSH2 0x260 DUP3 ADD DUP2 SWAP1 MSTORE PUSH2 0x280 DUP3 ADD DUP2 SWAP1 MSTORE PUSH2 0x2A0 DUP3 ADD DUP2 SWAP1 MSTORE PUSH2 0x2C0 DUP3 ADD DUP2 SWAP1 MSTORE PUSH2 0x2E0 DUP3 ADD DUP2 SWAP1 MSTORE PUSH2 0x300 DUP3 ADD DUP2 SWAP1 MSTORE PUSH2 0x320 DUP3 ADD DUP2 SWAP1 MSTORE PUSH2 0x340 DUP3 ADD DUP2 SWAP1 MSTORE PUSH2 0x360 DUP3 ADD DUP2 SWAP1 MSTORE PUSH2 0x380 DUP3 ADD MSTORE PUSH2 0x18B4 SWAP1 PUSH1 0xCA SWAP1 PUSH1 0x1D PUSH2 0x4D99 JUMP JUMPDEST POP PUSH1 0xCB DUP1 SLOAD PUSH3 0xFF0000 NOT AND PUSH3 0x320000 OR SWAP1 SSTORE PUSH9 0x56BC75E2D63100000 PUSH1 0xDF SSTORE PUSH1 0xD4 DUP1 SLOAD PUSH4 0xFF00FFFF NOT AND PUSH4 0x2000001 OR SWAP1 SSTORE PUSH1 0xD1 DUP1 SLOAD PUSH2 0xFFFF PUSH1 0x60 SHL NOT AND PUSH1 0x7D PUSH1 0x63 SHL OR SWAP1 SSTORE PUSH4 0x20F5800 PUSH1 0xD2 SSTORE PUSH3 0x15180 PUSH1 0xD3 SSTORE PUSH3 0x278D00 PUSH1 0xD7 SSTORE PUSH2 0x1918 PUSH2 0x3B0A JUMP JUMPDEST PUSH2 0x1920 PUSH2 0x3B39 JUMP JUMPDEST DUP1 ISZERO PUSH2 0xEBB JUMPI PUSH1 0x0 DUP1 SLOAD PUSH2 0xFF00 NOT AND SWAP1 SSTORE PUSH1 0x40 MLOAD PUSH1 0x1 DUP2 MSTORE PUSH32 0x7F26B83FF96E1F2B6A682F133852F6798A09C465DA95921460CEFB3847402498 SWAP1 PUSH1 0x20 ADD PUSH1 0x40 MLOAD DUP1 SWAP2 SUB SWAP1 LOG1 POP JUMP JUMPDEST PUSH1 0x0 JUMPDEST PUSH1 0xDE SLOAD PUSH1 0xFF DUP3 AND LT ISZERO PUSH2 0x1AEC JUMPI PUSH1 0xDE DUP2 PUSH1 0xFF AND DUP2 SLOAD DUP2 LT PUSH2 0x198E JUMPI PUSH2 0x198E PUSH2 0x5498 JUMP JUMPDEST PUSH1 0x0 SWAP2 DUP3 MSTORE PUSH1 0x20 SWAP1 SWAP2 KECCAK256 ADD SLOAD PUSH1 0x1 PUSH1 0x1 PUSH1 0xA0 SHL SUB AND CALLER SUB PUSH2 0x1A79 JUMPI PUSH1 0x0 DUP6 JUMPDEST DUP6 PUSH4 0xFFFFFFFF AND DUP2 PUSH4 0xFFFFFFFF AND LT ISZERO PUSH2 0x1A72 JUMPI PUSH1 0x0 DUP6 DUP4 PUSH4 0xFFFFFFFF AND DUP2 MLOAD DUP2 LT PUSH2 0x19DB JUMPI PUSH2 0x19DB PUSH2 0x5498 JUMP JUMPDEST PUSH1 0x20 MUL PUSH1 0x20 ADD ADD MLOAD SWAP1 POP PUSH1 0x0 DUP2 GT ISZERO PUSH2 0x1A51 JUMPI PUSH4 0xFFFFFFFF DUP1 DUP4 AND PUSH1 0x0 SWAP1 DUP2 MSTORE PUSH1 0xDB PUSH1 0x20 MSTORE PUSH1 0x40 SWAP1 KECCAK256 DUP7 MLOAD SWAP1 SWAP2 DUP8 SWAP2 SWAP1 DUP7 AND SWAP1 DUP2 LT PUSH2 0x1A1C JUMPI PUSH2 0x1A1C PUSH2 0x5498 JUMP JUMPDEST PUSH1 0x20 SWAP1 DUP2 MUL SWAP2 SWAP1 SWAP2 ADD ADD MLOAD PUSH1 0x16 DUP3 ADD SSTORE PUSH2 0x1A37 DUP3 PUSH1 0x3 PUSH2 0x5616 JUMP JUMPDEST PUSH1 0x17 DUP3 ADD SSTORE PUSH1 0x15 DUP2 ADD DUP3 SWAP1 SSTORE PUSH1 0xA DUP2 ADD DUP3 SWAP1 SSTORE PUSH1 0x1E ADD DUP2 SWAP1 SSTORE JUMPDEST DUP3 PUSH2 0x1A5B DUP2 PUSH2 0x5521 JUMP JUMPDEST SWAP4 POP POP POP DUP1 DUP1 PUSH2 0x1A6A SWAP1 PUSH2 0x5521 JUMP JUMPDEST SWAP2 POP POP PUSH2 0x19AD JUMP JUMPDEST POP POP PUSH2 0x1AEC JUMP JUMPDEST PUSH1 0xDE SLOAD PUSH2 0x1A88 SWAP1 PUSH1 0x1 SWAP1 PUSH2 0x54C4 JUMP JUMPDEST DUP2 PUSH1 0xFF AND SUB PUSH2 0x1ADA JUMPI PUSH1 0xDE DUP2 PUSH1 0xFF AND DUP2 SLOAD DUP2 LT PUSH2 0x1AA7 JUMPI PUSH2 0x1AA7 PUSH2 0x5498 JUMP JUMPDEST PUSH1 0x0 SWAP2 DUP3 MSTORE PUSH1 0x20 SWAP1 SWAP2 KECCAK256 ADD SLOAD PUSH1 0x1 PUSH1 0x1 PUSH1 0xA0 SHL SUB AND CALLER EQ PUSH2 0x1ADA JUMPI PUSH1 0x40 MLOAD PUSH3 0x461BCD PUSH1 0xE5 SHL DUP2 MSTORE PUSH1 0x4 ADD PUSH2 0xD05 SWAP1 PUSH2 0x54D7 JUMP JUMPDEST DUP1 PUSH2 0x1AE4 DUP2 PUSH2 0x5502 JUMP JUMPDEST SWAP2 POP POP PUSH2 0x196B JUMP JUMPDEST POP POP POP POP POP JUMP JUMPDEST PUSH1 0x0 JUMPDEST PUSH1 0xDE SLOAD PUSH1 0xFF DUP3 AND LT ISZERO PUSH2 0xD20 JUMPI PUSH1 0xDE DUP2 PUSH1 0xFF AND DUP2 SLOAD DUP2 LT PUSH2 0x1B19 JUMPI PUSH2 0x1B19 PUSH2 0x5498 JUMP JUMPDEST PUSH1 0x0 SWAP2 DUP3 MSTORE PUSH1 0x20 SWAP1 SWAP2 KECCAK256 ADD SLOAD PUSH1 0x1 PUSH1 0x1 PUSH1 0xA0 SHL SUB AND CALLER SUB PUSH2 0x1B9C JUMPI PUSH1 0xD8 DUP1 SLOAD PUSH1 0x1 DUP2 DUP2 ADD SWAP1 SWAP3 SSTORE PUSH32 0x5320AD99A619A90804CD2EFE3A5CF0AC1AC5C41AD9FF2C61CF699EFDAD771096 ADD DUP1 SLOAD PUSH1 0x1 PUSH1 0x1 PUSH1 0xA0 SHL SUB DUP6 AND PUSH1 0x1 PUSH1 0x1 PUSH1 0xA0 SHL SUB NOT SWAP1 SWAP2 AND DUP2 OR SWAP1 SWAP2 SSTORE PUSH1 0x0 SWAP1 DUP2 MSTORE PUSH1 0xDA PUSH1 0x20 MSTORE PUSH1 0x40 SWAP1 KECCAK256 DUP1 SLOAD PUSH1 0xFF NOT AND SWAP1 SWAP2 OR SWAP1 SSTORE POP POP JUMP JUMPDEST PUSH1 0xDE SLOAD PUSH2 0x1BAB SWAP1 PUSH1 0x1 SWAP1 PUSH2 0x54C4 JUMP JUMPDEST DUP2 PUSH1 0xFF AND SUB PUSH2 0x1BFD JUMPI PUSH1 0xDE DUP2 PUSH1 0xFF AND DUP2 SLOAD DUP2 LT PUSH2 0x1BCA JUMPI PUSH2 0x1BCA PUSH2 0x5498 JUMP JUMPDEST PUSH1 0x0 SWAP2 DUP3 MSTORE PUSH1 0x20 SWAP1 SWAP2 KECCAK256 ADD SLOAD PUSH1 0x1 PUSH1 0x1 PUSH1 0xA0 SHL SUB AND CALLER EQ PUSH2 0x1BFD JUMPI PUSH1 0x40 MLOAD PUSH3 0x461BCD PUSH1 0xE5 SHL DUP2 MSTORE PUSH1 0x4 ADD PUSH2 0xD05 SWAP1 PUSH2 0x54D7 JUMP JUMPDEST DUP1 PUSH2 0x1C07 DUP2 PUSH2 0x5502 JUMP JUMPDEST SWAP2 POP POP PUSH2 0x1AF6 JUMP JUMPDEST PUSH4 0xFFFFFFFF DUP1 DUP3 AND PUSH1 0x0 SWAP1 DUP2 MSTORE PUSH1 0xDB PUSH1 0x20 SWAP1 DUP2 MSTORE PUSH1 0x40 DUP1 DUP4 KECCAK256 DUP2 MLOAD PUSH2 0x400 DUP2 ADD SWAP1 SWAP3 MSTORE DUP1 SLOAD SWAP1 SWAP5 AND DUP2 MSTORE PUSH1 0x1 DUP5 ADD DUP1 SLOAD PUSH1 0x60 SWAP6 DUP7 SWAP6 SWAP5 DUP6 SWAP5 SWAP4 SWAP2 SWAP3 SWAP1 DUP5 ADD SWAP2 SWAP1 PUSH2 0x1C58 SWAP1 PUSH2 0x55DC JUMP JUMPDEST DUP1 PUSH1 0x1F ADD PUSH1 0x20 DUP1 SWAP2 DIV MUL PUSH1 0x20 ADD PUSH1 0x40 MLOAD SWAP1 DUP2 ADD PUSH1 0x40 MSTORE DUP1 SWAP3 SWAP2 SWAP1 DUP2 DUP2 MSTORE PUSH1 0x20 ADD DUP3 DUP1 SLOAD PUSH2 0x1C84 SWAP1 PUSH2 0x55DC JUMP JUMPDEST DUP1 ISZERO PUSH2 0x1CD1 JUMPI DUP1 PUSH1 0x1F LT PUSH2 0x1CA6 JUMPI PUSH2 0x100 DUP1 DUP4 SLOAD DIV MUL DUP4 MSTORE SWAP2 PUSH1 0x20 ADD SWAP2 PUSH2 0x1CD1 JUMP JUMPDEST DUP3 ADD SWAP2 SWAP1 PUSH1 0x0 MSTORE PUSH1 0x20 PUSH1 0x0 KECCAK256 SWAP1 JUMPDEST DUP2 SLOAD DUP2 MSTORE SWAP1 PUSH1 0x1 ADD SWAP1 PUSH1 0x20 ADD DUP1 DUP4 GT PUSH2 0x1CB4 JUMPI DUP3 SWAP1 SUB PUSH1 0x1F AND DUP3 ADD SWAP2 JUMPDEST POP POP POP SWAP2 DUP4 MSTORE POP POP PUSH1 0x2 DUP3 ADD SLOAD PUSH1 0xFF DUP2 AND ISZERO ISZERO PUSH1 0x20 DUP1 DUP5 ADD SWAP2 SWAP1 SWAP2 MSTORE PUSH2 0x100 SWAP1 SWAP2 DIV PUSH1 0x1 PUSH1 0x1 PUSH1 0xA0 SHL SUB AND PUSH1 0x40 DUP1 DUP5 ADD SWAP2 SWAP1 SWAP2 MSTORE PUSH1 0x3 DUP5 ADD SLOAD PUSH1 0x60 DUP5 ADD MSTORE PUSH1 0x4 DUP5 ADD SLOAD PUSH1 0x80 DUP5 ADD MSTORE PUSH1 0x5 DUP5 ADD SLOAD PUSH4 0xFFFFFFFF AND PUSH1 0xA0 DUP5 ADD MSTORE PUSH1 0x6 DUP5 ADD DUP1 SLOAD DUP3 MLOAD DUP2 DUP6 MUL DUP2 ADD DUP6 ADD SWAP1 SWAP4 MSTORE DUP1 DUP4 MSTORE PUSH1 0xC0 SWAP1 SWAP5 ADD SWAP4 SWAP2 SWAP3 SWAP1 SWAP2 SWAP1 DUP4 ADD DUP3 DUP3 DUP1 ISZERO PUSH2 0x1DA4 JUMPI PUSH1 0x20 MUL DUP3 ADD SWAP2 SWAP1 PUSH1 0x0 MSTORE PUSH1 0x20 PUSH1 0x0 KECCAK256 SWAP1 PUSH1 0x0 SWAP1 JUMPDEST DUP3 DUP3 SWAP1 SLOAD SWAP1 PUSH2 0x100 EXP SWAP1 DIV PUSH4 0xFFFFFFFF AND PUSH4 0xFFFFFFFF AND DUP2 MSTORE PUSH1 0x20 ADD SWAP1 PUSH1 0x4 ADD SWAP1 PUSH1 0x20 DUP3 PUSH1 0x3 ADD DIV SWAP3 DUP4 ADD SWAP3 PUSH1 0x1 SUB DUP3 MUL SWAP2 POP DUP1 DUP5 GT PUSH2 0x1D67 JUMPI SWAP1 POP JUMPDEST POP POP POP POP POP DUP2 MSTORE PUSH1 0x20 ADD PUSH1 0x7 DUP3 ADD DUP1 SLOAD DUP1 PUSH1 0x20 MUL PUSH1 0x20 ADD PUSH1 0x40 MLOAD SWAP1 DUP2 ADD PUSH1 0x40 MSTORE DUP1 SWAP3 SWAP2 SWAP1 DUP2 DUP2 MSTORE PUSH1 0x20 ADD DUP3 DUP1 SLOAD DUP1 ISZERO PUSH2 0x1E28 JUMPI PUSH1 0x20 MUL DUP3 ADD SWAP2 SWAP1 PUSH1 0x0 MSTORE PUSH1 0x20 PUSH1 0x0 KECCAK256 SWAP1 PUSH1 0x0 SWAP1 JUMPDEST DUP3 DUP3 SWAP1 SLOAD SWAP1 PUSH2 0x100 EXP SWAP1 DIV PUSH4 0xFFFFFFFF AND PUSH4 0xFFFFFFFF AND DUP2 MSTORE PUSH1 0x20 ADD SWAP1 PUSH1 0x4 ADD SWAP1 PUSH1 0x20 DUP3 PUSH1 0x3 ADD DIV SWAP3 DUP4 ADD SWAP3 PUSH1 0x1 SUB DUP3 MUL SWAP2 POP DUP1 DUP5 GT PUSH2 0x1DEB JUMPI SWAP1 POP JUMPDEST POP POP POP POP POP DUP2 MSTORE PUSH1 0x20 ADD PUSH1 0x8 DUP3 ADD DUP1 SLOAD DUP1 PUSH1 0x20 MUL PUSH1 0x20 ADD PUSH1 0x40 MLOAD SWAP1 DUP2 ADD PUSH1 0x40 MSTORE DUP1 SWAP3 SWAP2 SWAP1 DUP2 DUP2 MSTORE PUSH1 0x20 ADD DUP3 DUP1 SLOAD DUP1 ISZERO PUSH2 0x1EAC JUMPI PUSH1 0x20 MUL DUP3 ADD SWAP2 SWAP1 PUSH1 0x0 MSTORE PUSH1 0x20 PUSH1 0x0 KECCAK256 SWAP1 PUSH1 0x0 SWAP1 JUMPDEST DUP3 DUP3 SWAP1 SLOAD SWAP1 PUSH2 0x100 EXP SWAP1 DIV PUSH4 0xFFFFFFFF AND PUSH4 0xFFFFFFFF AND DUP2 MSTORE PUSH1 0x20 ADD SWAP1 PUSH1 0x4 ADD SWAP1 PUSH1 0x20 DUP3 PUSH1 0x3 ADD DIV SWAP3 DUP4 ADD SWAP3 PUSH1 0x1 SUB DUP3 MUL SWAP2 POP DUP1 DUP5 GT PUSH2 0x1E6F JUMPI SWAP1 POP JUMPDEST POP POP POP POP POP DUP2 MSTORE PUSH1 0x20 ADD PUSH1 0x9 DUP3 ADD SLOAD DUP2 MSTORE PUSH1 0x20 ADD PUSH1 0xA DUP3 ADD SLOAD DUP2 MSTORE PUSH1 0x20 ADD PUSH1 0xB DUP3 ADD SLOAD DUP2 MSTORE PUSH1 0x20 ADD PUSH1 0xC DUP3 ADD SLOAD DUP2 MSTORE PUSH1 0x20 ADD PUSH1 0xD DUP3 ADD SLOAD DUP2 MSTORE PUSH1 0x20 ADD PUSH1 0xE DUP3 ADD SLOAD DUP2 MSTORE PUSH1 0x20 ADD PUSH1 0xF DUP3 ADD SLOAD DUP2 MSTORE PUSH1 0x20 ADD PUSH1 0x10 DUP3 ADD SLOAD DUP2 MSTORE PUSH1 0x20 ADD PUSH1 0x11 DUP3 ADD PUSH1 0x0 SWAP1 SLOAD SWAP1 PUSH2 0x100 EXP SWAP1 DIV PUSH1 0xFF AND PUSH1 0xFF AND PUSH1 0xFF AND DUP2 MSTORE PUSH1 0x20 ADD PUSH1 0x12 DUP3 ADD SLOAD DUP2 MSTORE PUSH1 0x20 ADD PUSH1 0x13 DUP3 ADD SLOAD DUP2 MSTORE PUSH1 0x20 ADD PUSH1 0x14 DUP3 ADD SLOAD DUP2 MSTORE PUSH1 0x20 ADD PUSH1 0x15 DUP3 ADD SLOAD DUP2 MSTORE PUSH1 0x20 ADD PUSH1 0x16 DUP3 ADD SLOAD DUP2 MSTORE PUSH1 0x20 ADD PUSH1 0x17 DUP3 ADD SLOAD DUP2 MSTORE PUSH1 0x20 ADD PUSH1 0x18 DUP3 ADD SLOAD DUP2 MSTORE PUSH1 0x20 ADD PUSH1 0x19 DUP3 ADD SLOAD DUP2 MSTORE PUSH1 0x20 ADD PUSH1 0x1A DUP3 ADD SLOAD DUP2 MSTORE PUSH1 0x20 ADD PUSH1 0x1B DUP3 ADD DUP1 SLOAD DUP1 PUSH1 0x20 MUL PUSH1 0x20 ADD PUSH1 0x40 MLOAD SWAP1 DUP2 ADD PUSH1 0x40 MSTORE DUP1 SWAP3 SWAP2 SWAP1 DUP2 DUP2 MSTORE PUSH1 0x20 ADD DUP3 DUP1 SLOAD DUP1 ISZERO PUSH2 0x1FF7 JUMPI PUSH1 0x20 MUL DUP3 ADD SWAP2 SWAP1 PUSH1 0x0 MSTORE PUSH1 0x20 PUSH1 0x0 KECCAK256 SWAP1 PUSH1 0x0 SWAP1 JUMPDEST DUP3 DUP3 SWAP1 SLOAD SWAP1 PUSH2 0x100 EXP SWAP1 DIV PUSH4 0xFFFFFFFF AND PUSH4 0xFFFFFFFF AND DUP2 MSTORE PUSH1 0x20 ADD SWAP1 PUSH1 0x4 ADD SWAP1 PUSH1 0x20 DUP3 PUSH1 0x3 ADD DIV SWAP3 DUP4 ADD SWAP3 PUSH1 0x1 SUB DUP3 MUL SWAP2 POP DUP1 DUP5 GT PUSH2 0x1FBA JUMPI SWAP1 POP JUMPDEST POP POP POP POP POP DUP2 MSTORE PUSH1 0x20 ADD PUSH1 0x1C DUP3 ADD SLOAD DUP2 MSTORE PUSH1 0x20 ADD PUSH1 0x1D DUP3 ADD SLOAD DUP2 MSTORE PUSH1 0x20 ADD PUSH1 0x1E DUP3 ADD SLOAD DUP2 MSTORE POP POP SWAP1 POP DUP1 PUSH2 0x100 ADD MLOAD SWAP4 POP DUP1 PUSH2 0x120 ADD MLOAD SWAP3 POP DUP4 MLOAD SWAP2 POP POP SWAP2 SWAP4 SWAP1 SWAP3 POP JUMP JUMPDEST PUSH2 0x2044 PUSH2 0x37A7 JUMP JUMPDEST PUSH1 0x40 MLOAD PUSH4 0xA9059CBB PUSH1 0xE0 SHL DUP2 MSTORE CALLER PUSH1 0x4 DUP3 ADD MSTORE PUSH1 0x24 DUP2 ADD DUP3 SWAP1 MSTORE PUSH1 0x1 PUSH1 0x1 PUSH1 0xA0 SHL SUB DUP4 AND SWAP1 PUSH4 0xA9059CBB SWAP1 PUSH1 0x44 ADD PUSH1 0x20 PUSH1 0x40 MLOAD DUP1 DUP4 SUB DUP2 PUSH1 0x0 DUP8 GAS CALL ISZERO DUP1 ISZERO PUSH2 0x2091 JUMPI RETURNDATASIZE PUSH1 0x0 DUP1 RETURNDATACOPY RETURNDATASIZE PUSH1 0x0 REVERT JUMPDEST POP POP POP POP PUSH1 0x40 MLOAD RETURNDATASIZE PUSH1 0x1F NOT PUSH1 0x1F DUP3 ADD AND DUP3 ADD DUP1 PUSH1 0x40 MSTORE POP DUP2 ADD SWAP1 PUSH2 0xC3D SWAP2 SWAP1 PUSH2 0x562D JUMP JUMPDEST PUSH4 0xFFFFFFFF DUP1 DUP3 AND PUSH1 0x0 SWAP1 DUP2 MSTORE PUSH1 0xDB PUSH1 0x20 SWAP1 DUP2 MSTORE PUSH1 0x40 DUP1 DUP4 KECCAK256 DUP2 MLOAD PUSH2 0x400 DUP2 ADD SWAP1 SWAP3 MSTORE DUP1 SLOAD SWAP1 SWAP5 AND DUP2 MSTORE PUSH1 0x1 DUP5 ADD DUP1 SLOAD SWAP4 SWAP5 DUP6 SWAP5 SWAP3 SWAP4 SWAP1 SWAP3 SWAP1 DUP5 ADD SWAP2 SWAP1 PUSH2 0x20FB SWAP1 PUSH2 0x55DC JUMP JUMPDEST DUP1 PUSH1 0x1F ADD PUSH1 0x20 DUP1 SWAP2 DIV MUL PUSH1 0x20 ADD PUSH1 0x40 MLOAD SWAP1 DUP2 ADD PUSH1 0x40 MSTORE DUP1 SWAP3 SWAP2 SWAP1 DUP2 DUP2 MSTORE PUSH1 0x20 ADD DUP3 DUP1 SLOAD PUSH2 0x2127 SWAP1 PUSH2 0x55DC JUMP JUMPDEST DUP1 ISZERO PUSH2 0x2174 JUMPI DUP1 PUSH1 0x1F LT PUSH2 0x2149 JUMPI PUSH2 0x100 DUP1 DUP4 SLOAD DIV MUL DUP4 MSTORE SWAP2 PUSH1 0x20 ADD SWAP2 PUSH2 0x2174 JUMP JUMPDEST DUP3 ADD SWAP2 SWAP1 PUSH1 0x0 MSTORE PUSH1 0x20 PUSH1 0x0 KECCAK256 SWAP1 JUMPDEST DUP2 SLOAD DUP2 MSTORE SWAP1 PUSH1 0x1 ADD SWAP1 PUSH1 0x20 ADD DUP1 DUP4 GT PUSH2 0x2157 JUMPI DUP3 SWAP1 SUB PUSH1 0x1F AND DUP3 ADD SWAP2 JUMPDEST POP POP POP SWAP2 DUP4 MSTORE POP POP PUSH1 0x2 DUP3 ADD SLOAD PUSH1 0xFF DUP2 AND ISZERO ISZERO PUSH1 0x20 DUP1 DUP5 ADD SWAP2 SWAP1 SWAP2 MSTORE PUSH2 0x100 SWAP1 SWAP2 DIV PUSH1 0x1 PUSH1 0x1 PUSH1 0xA0 SHL SUB AND PUSH1 0x40 DUP1 DUP5 ADD SWAP2 SWAP1 SWAP2 MSTORE PUSH1 0x3 DUP5 ADD SLOAD PUSH1 0x60 DUP5 ADD MSTORE PUSH1 0x4 DUP5 ADD SLOAD PUSH1 0x80 DUP5 ADD MSTORE PUSH1 0x5 DUP5 ADD SLOAD PUSH4 0xFFFFFFFF AND PUSH1 0xA0 DUP5 ADD MSTORE PUSH1 0x6 DUP5 ADD DUP1 SLOAD DUP3 MLOAD DUP2 DUP6 MUL DUP2 ADD DUP6 ADD SWAP1 SWAP4 MSTORE DUP1 DUP4 MSTORE PUSH1 0xC0 SWAP1 SWAP5 ADD SWAP4 SWAP2 SWAP3 SWAP1 SWAP2 SWAP1 DUP4 ADD DUP3 DUP3 DUP1 ISZERO PUSH2 0x2247 JUMPI PUSH1 0x20 MUL DUP3 ADD SWAP2 SWAP1 PUSH1 0x0 MSTORE PUSH1 0x20 PUSH1 0x0 KECCAK256 SWAP1 PUSH1 0x0 SWAP1 JUMPDEST DUP3 DUP3 SWAP1 SLOAD SWAP1 PUSH2 0x100 EXP SWAP1 DIV PUSH4 0xFFFFFFFF AND PUSH4 0xFFFFFFFF AND DUP2 MSTORE PUSH1 0x20 ADD SWAP1 PUSH1 0x4 ADD SWAP1 PUSH1 0x20 DUP3 PUSH1 0x3 ADD DIV SWAP3 DUP4 ADD SWAP3 PUSH1 0x1 SUB DUP3 MUL SWAP2 POP DUP1 DUP5 GT PUSH2 0x220A JUMPI SWAP1 POP JUMPDEST POP POP POP POP POP DUP2 MSTORE PUSH1 0x20 ADD PUSH1 0x7 DUP3 ADD DUP1 SLOAD DUP1 PUSH1 0x20 MUL PUSH1 0x20 ADD PUSH1 0x40 MLOAD SWAP1 DUP2 ADD PUSH1 0x40 MSTORE DUP1 SWAP3 SWAP2 SWAP1 DUP2 DUP2 MSTORE PUSH1 0x20 ADD DUP3 DUP1 SLOAD DUP1 ISZERO PUSH2 0x22CB JUMPI PUSH1 0x20 MUL DUP3 ADD SWAP2 SWAP1 PUSH1 0x0 MSTORE PUSH1 0x20 PUSH1 0x0 KECCAK256 SWAP1 PUSH1 0x0 SWAP1 JUMPDEST DUP3 DUP3 SWAP1 SLOAD SWAP1 PUSH2 0x100 EXP SWAP1 DIV PUSH4 0xFFFFFFFF AND PUSH4 0xFFFFFFFF AND DUP2 MSTORE PUSH1 0x20 ADD SWAP1 PUSH1 0x4 ADD SWAP1 PUSH1 0x20 DUP3 PUSH1 0x3 ADD DIV SWAP3 DUP4 ADD SWAP3 PUSH1 0x1 SUB DUP3 MUL SWAP2 POP DUP1 DUP5 GT PUSH2 0x228E JUMPI SWAP1 POP JUMPDEST POP POP POP POP POP DUP2 MSTORE PUSH1 0x20 ADD PUSH1 0x8 DUP3 ADD DUP1 SLOAD DUP1 PUSH1 0x20 MUL PUSH1 0x20 ADD PUSH1 0x40 MLOAD SWAP1 DUP2 ADD PUSH1 0x40 MSTORE DUP1 SWAP3 SWAP2 SWAP1 DUP2 DUP2 MSTORE PUSH1 0x20 ADD DUP3 DUP1 SLOAD DUP1 ISZERO PUSH2 0x234F JUMPI PUSH1 0x20 MUL DUP3 ADD SWAP2 SWAP1 PUSH1 0x0 MSTORE PUSH1 0x20 PUSH1 0x0 KECCAK256 SWAP1 PUSH1 0x0 SWAP1 JUMPDEST DUP3 DUP3 SWAP1 SLOAD SWAP1 PUSH2 0x100 EXP SWAP1 DIV PUSH4 0xFFFFFFFF AND PUSH4 0xFFFFFFFF AND DUP2 MSTORE PUSH1 0x20 ADD SWAP1 PUSH1 0x4 ADD SWAP1 PUSH1 0x20 DUP3 PUSH1 0x3 ADD DIV SWAP3 DUP4 ADD SWAP3 PUSH1 0x1 SUB DUP3 MUL SWAP2 POP DUP1 DUP5 GT PUSH2 0x2312 JUMPI SWAP1 POP JUMPDEST POP POP POP POP POP DUP2 MSTORE PUSH1 0x20 ADD PUSH1 0x9 DUP3 ADD SLOAD DUP2 MSTORE PUSH1 0x20 ADD PUSH1 0xA DUP3 ADD SLOAD DUP2 MSTORE PUSH1 0x20 ADD PUSH1 0xB DUP3 ADD SLOAD DUP2 MSTORE PUSH1 0x20 ADD PUSH1 0xC DUP3 ADD SLOAD DUP2 MSTORE PUSH1 0x20 ADD PUSH1 0xD DUP3 ADD SLOAD DUP2 MSTORE PUSH1 0x20 ADD PUSH1 0xE DUP3 ADD SLOAD DUP2 MSTORE PUSH1 0x20 ADD PUSH1 0xF DUP3 ADD SLOAD DUP2 MSTORE PUSH1 0x20 ADD PUSH1 0x10 DUP3 ADD SLOAD DUP2 MSTORE PUSH1 0x20 ADD PUSH1 0x11 DUP3 ADD PUSH1 0x0 SWAP1 SLOAD SWAP1 PUSH2 0x100 EXP SWAP1 DIV PUSH1 0xFF AND PUSH1 0xFF AND PUSH1 0xFF AND DUP2 MSTORE PUSH1 0x20 ADD PUSH1 0x12 DUP3 ADD SLOAD DUP2 MSTORE PUSH1 0x20 ADD PUSH1 0x13 DUP3 ADD SLOAD DUP2 MSTORE PUSH1 0x20 ADD PUSH1 0x14 DUP3 ADD SLOAD DUP2 MSTORE PUSH1 0x20 ADD PUSH1 0x15 DUP3 ADD SLOAD DUP2 MSTORE PUSH1 0x20 ADD PUSH1 0x16 DUP3 ADD SLOAD DUP2 MSTORE PUSH1 0x20 ADD PUSH1 0x17 DUP3 ADD SLOAD DUP2 MSTORE PUSH1 0x20 ADD PUSH1 0x18 DUP3 ADD SLOAD DUP2 MSTORE PUSH1 0x20 ADD PUSH1 0x19 DUP3 ADD SLOAD DUP2 MSTORE PUSH1 0x20 ADD PUSH1 0x1A DUP3 ADD SLOAD DUP2 MSTORE PUSH1 0x20 ADD PUSH1 0x1B DUP3 ADD DUP1 SLOAD DUP1 PUSH1 0x20 MUL PUSH1 0x20 ADD PUSH1 0x40 MLOAD SWAP1 DUP2 ADD PUSH1 0x40 MSTORE DUP1 SWAP3 SWAP2 SWAP1 DUP2 DUP2 MSTORE PUSH1 0x20 ADD DUP3 DUP1 SLOAD DUP1 ISZERO PUSH2 0x249A JUMPI PUSH1 0x20 MUL DUP3 ADD SWAP2 SWAP1 PUSH1 0x0 MSTORE PUSH1 0x20 PUSH1 0x0 KECCAK256 SWAP1 PUSH1 0x0 SWAP1 JUMPDEST DUP3 DUP3 SWAP1 SLOAD SWAP1 PUSH2 0x100 EXP SWAP1 DIV PUSH4 0xFFFFFFFF AND PUSH4 0xFFFFFFFF AND DUP2 MSTORE PUSH1 0x20 ADD SWAP1 PUSH1 0x4 ADD SWAP1 PUSH1 0x20 DUP3 PUSH1 0x3 ADD DIV SWAP3 DUP4 ADD SWAP3 PUSH1 0x1 SUB DUP3 MUL SWAP2 POP DUP1 DUP5 GT PUSH2 0x245D JUMPI SWAP1 POP JUMPDEST POP POP POP POP POP DUP2 MSTORE PUSH1 0x20 ADD PUSH1 0x1C DUP3 ADD SLOAD DUP2 MSTORE PUSH1 0x20 ADD PUSH1 0x1D DUP3 ADD SLOAD DUP2 MSTORE PUSH1 0x20 ADD PUSH1 0x1E DUP3 ADD SLOAD DUP2 MSTORE POP POP SWAP1 POP PUSH2 0x24CC DUP2 PUSH2 0x3B60 JUMP JUMPDEST SWAP4 SWAP3 POP POP POP JUMP JUMPDEST PUSH1 0x0 PUSH2 0x24DE DUP3 PUSH2 0x3B9C JUMP JUMPDEST SWAP3 SWAP2 POP POP JUMP JUMPDEST PUSH1 0x0 JUMPDEST PUSH1 0xDE SLOAD PUSH1 0xFF DUP3 AND LT ISZERO PUSH2 0xDEC JUMPI PUSH1 0xDE DUP2 PUSH1 0xFF AND DUP2 SLOAD DUP2 LT PUSH2 0x250A JUMPI PUSH2 0x250A PUSH2 0x5498 JUMP JUMPDEST PUSH1 0x0 SWAP2 DUP3 MSTORE PUSH1 0x20 SWAP1 SWAP2 KECCAK256 ADD SLOAD PUSH1 0x1 PUSH1 0x1 PUSH1 0xA0 SHL SUB AND CALLER SUB PUSH2 0x2559 JUMPI PUSH1 0xD1 DUP1 SLOAD PUSH2 0xFFFF PUSH1 0x60 SHL NOT AND PUSH1 0x1 PUSH1 0x60 SHL PUSH2 0xFFFF DUP8 AND MUL OR SWAP1 SSTORE PUSH2 0x254C DUP4 PUSH3 0x15180 PUSH2 0x5616 JUMP JUMPDEST PUSH1 0xD2 SSTORE PUSH1 0xD3 DUP3 SWAP1 SSTORE PUSH2 0xDEC JUMP JUMPDEST PUSH1 0xDE SLOAD PUSH2 0x2568 SWAP1 PUSH1 0x1 SWAP1 PUSH2 0x54C4 JUMP JUMPDEST DUP2 PUSH1 0xFF AND SUB PUSH2 0x25BA JUMPI PUSH1 0xDE DUP2 PUSH1 0xFF AND DUP2 SLOAD DUP2 LT PUSH2 0x2587 JUMPI PUSH2 0x2587 PUSH2 0x5498 JUMP JUMPDEST PUSH1 0x0 SWAP2 DUP3 MSTORE PUSH1 0x20 SWAP1 SWAP2 KECCAK256 ADD SLOAD PUSH1 0x1 PUSH1 0x1 PUSH1 0xA0 SHL SUB AND CALLER EQ PUSH2 0x25BA JUMPI PUSH1 0x40 MLOAD PUSH3 0x461BCD PUSH1 0xE5 SHL DUP2 MSTORE PUSH1 0x4 ADD PUSH2 0xD05 SWAP1 PUSH2 0x54D7 JUMP JUMPDEST DUP1 PUSH2 0x25C4 DUP2 PUSH2 0x5502 JUMP JUMPDEST SWAP2 POP POP PUSH2 0x24E7 JUMP JUMPDEST PUSH1 0x0 JUMPDEST PUSH1 0xDE SLOAD PUSH1 0xFF DUP3 AND LT ISZERO PUSH2 0xD20 JUMPI PUSH1 0xDE DUP2 PUSH1 0xFF AND DUP2 SLOAD DUP2 LT PUSH2 0x25F2 JUMPI PUSH2 0x25F2 PUSH2 0x5498 JUMP JUMPDEST PUSH1 0x0 SWAP2 DUP3 MSTORE PUSH1 0x20 SWAP1 SWAP2 KECCAK256 ADD SLOAD PUSH1 0x1 PUSH1 0x1 PUSH1 0xA0 SHL SUB AND CALLER SUB PUSH2 0x2636 JUMPI PUSH1 0xD1 DUP1 SLOAD PUSH4 0xFFFFFFFF DUP5 AND PUSH1 0x1 PUSH1 0x40 SHL MUL PUSH12 0xFFFFFFFF0000000000000000 NOT SWAP1 SWAP2 AND OR SWAP1 SSTORE POP POP JUMP JUMPDEST PUSH1 0xDE SLOAD PUSH2 0x2645 SWAP1 PUSH1 0x1 SWAP1 PUSH2 0x54C4 JUMP JUMPDEST DUP2 PUSH1 0xFF AND SUB PUSH2 0x2697 JUMPI PUSH1 0xDE DUP2 PUSH1 0xFF AND DUP2 SLOAD DUP2 LT PUSH2 0x2664 JUMPI PUSH2 0x2664 PUSH2 0x5498 JUMP JUMPDEST PUSH1 0x0 SWAP2 DUP3 MSTORE PUSH1 0x20 SWAP1 SWAP2 KECCAK256 ADD SLOAD PUSH1 0x1 PUSH1 0x1 PUSH1 0xA0 SHL SUB AND CALLER EQ PUSH2 0x2697 JUMPI PUSH1 0x40 MLOAD PUSH3 0x461BCD PUSH1 0xE5 SHL DUP2 MSTORE PUSH1 0x4 ADD PUSH2 0xD05 SWAP1 PUSH2 0x54D7 JUMP JUMPDEST DUP1 PUSH2 0x26A1 DUP2 PUSH2 0x5502 JUMP JUMPDEST SWAP2 POP POP PUSH2 0x25CF JUMP JUMPDEST PUSH1 0x0 JUMPDEST PUSH1 0xDE SLOAD PUSH1 0xFF DUP3 AND LT ISZERO PUSH2 0xD20 JUMPI PUSH1 0xDE DUP2 PUSH1 0xFF AND DUP2 SLOAD DUP2 LT PUSH2 0x26CF JUMPI PUSH2 0x26CF PUSH2 0x5498 JUMP JUMPDEST PUSH1 0x0 SWAP2 DUP3 MSTORE PUSH1 0x20 SWAP1 SWAP2 KECCAK256 ADD SLOAD PUSH1 0x1 PUSH1 0x1 PUSH1 0xA0 SHL SUB AND CALLER SUB PUSH2 0x280B JUMPI PUSH1 0x1 PUSH1 0x1 PUSH1 0xA0 SHL SUB DUP3 AND PUSH1 0x0 SWAP1 DUP2 MSTORE PUSH1 0xDA PUSH1 0x20 MSTORE PUSH1 0x40 DUP2 KECCAK256 DUP1 SLOAD PUSH1 0xFF NOT AND SWAP1 SSTORE PUSH1 0xD8 SLOAD SWAP1 JUMPDEST DUP2 DUP2 LT ISZERO PUSH2 0xDEC JUMPI DUP4 PUSH1 0x1 PUSH1 0x1 PUSH1 0xA0 SHL SUB AND PUSH1 0xD8 DUP3 DUP2 SLOAD DUP2 LT PUSH2 0x2734 JUMPI PUSH2 0x2734 PUSH2 0x5498 JUMP JUMPDEST PUSH1 0x0 SWAP2 DUP3 MSTORE PUSH1 0x20 SWAP1 SWAP2 KECCAK256 ADD SLOAD PUSH1 0x1 PUSH1 0x1 PUSH1 0xA0 SHL SUB AND SUB PUSH2 0x27F9 JUMPI PUSH1 0xD8 PUSH2 0x275B PUSH1 0x1 DUP5 PUSH2 0x54C4 JUMP JUMPDEST DUP2 SLOAD DUP2 LT PUSH2 0x276B JUMPI PUSH2 0x276B PUSH2 0x5498 JUMP JUMPDEST PUSH1 0x0 SWAP2 DUP3 MSTORE PUSH1 0x20 SWAP1 SWAP2 KECCAK256 ADD SLOAD PUSH1 0xD8 DUP1 SLOAD PUSH1 0x1 PUSH1 0x1 PUSH1 0xA0 SHL SUB SWAP1 SWAP3 AND SWAP2 DUP4 SWAP1 DUP2 LT PUSH2 0x2797 JUMPI PUSH2 0x2797 PUSH2 0x5498 JUMP JUMPDEST SWAP1 PUSH1 0x0 MSTORE PUSH1 0x20 PUSH1 0x0 KECCAK256 ADD PUSH1 0x0 PUSH2 0x100 EXP DUP2 SLOAD DUP2 PUSH1 0x1 PUSH1 0x1 PUSH1 0xA0 SHL SUB MUL NOT AND SWAP1 DUP4 PUSH1 0x1 PUSH1 0x1 PUSH1 0xA0 SHL SUB AND MUL OR SWAP1 SSTORE POP PUSH1 0xD8 DUP1 SLOAD DUP1 PUSH2 0x27D6 JUMPI PUSH2 0x27D6 PUSH2 0x564F JUMP JUMPDEST PUSH1 0x0 DUP3 DUP2 MSTORE PUSH1 0x20 SWAP1 KECCAK256 DUP2 ADD PUSH1 0x0 NOT SWAP1 DUP2 ADD DUP1 SLOAD PUSH1 0x1 PUSH1 0x1 PUSH1 0xA0 SHL SUB NOT AND SWAP1 SSTORE ADD SWAP1 SSTORE JUMPDEST DUP1 PUSH2 0x2803 DUP2 PUSH2 0x5665 JUMP JUMPDEST SWAP2 POP POP PUSH2 0x270F JUMP JUMPDEST PUSH1 0xDE SLOAD PUSH2 0x281A SWAP1 PUSH1 0x1 SWAP1 PUSH2 0x54C4 JUMP JUMPDEST DUP2 PUSH1 0xFF AND SUB PUSH2 0x286C JUMPI PUSH1 0xDE DUP2 PUSH1 0xFF AND DUP2 SLOAD DUP2 LT PUSH2 0x2839 JUMPI PUSH2 0x2839 PUSH2 0x5498 JUMP JUMPDEST PUSH1 0x0 SWAP2 DUP3 MSTORE PUSH1 0x20 SWAP1 SWAP2 KECCAK256 ADD SLOAD PUSH1 0x1 PUSH1 0x1 PUSH1 0xA0 SHL SUB AND CALLER EQ PUSH2 0x286C JUMPI PUSH1 0x40 MLOAD PUSH3 0x461BCD PUSH1 0xE5 SHL DUP2 MSTORE PUSH1 0x4 ADD PUSH2 0xD05 SWAP1 PUSH2 0x54D7 JUMP JUMPDEST DUP1 PUSH2 0x2876 DUP2 PUSH2 0x5502 JUMP JUMPDEST SWAP2 POP POP PUSH2 0x26AC JUMP JUMPDEST CALLVALUE PUSH1 0x0 PUSH2 0x288A DUP3 PUSH2 0x40DC JUMP JUMPDEST SWAP1 POP PUSH1 0xDF SLOAD DUP2 LT ISZERO PUSH2 0x28DE JUMPI PUSH1 0x40 MLOAD PUSH3 0x461BCD PUSH1 0xE5 SHL DUP2 MSTORE PUSH1 0x20 PUSH1 0x4 DUP3 ADD MSTORE PUSH1 0x1F PUSH1 0x24 DUP3 ADD MSTORE PUSH32 0x56616C7565206C657373207468656E206D696E436F6E747269627574696F6E00 PUSH1 0x44 DUP3 ADD MSTORE PUSH1 0x64 ADD PUSH2 0xD05 JUMP JUMPDEST PUSH1 0xD1 SLOAD CALLER SWAP1 TIMESTAMP SWAP1 PUSH1 0x0 SWAP1 PUSH2 0x2901 SWAP1 PUSH5 0x100000000 SWAP1 DIV PUSH4 0xFFFFFFFF AND PUSH1 0x1 PUSH2 0x567E JUMP JUMPDEST PUSH1 0xD1 DUP1 SLOAD SWAP2 SWAP3 POP PUSH1 0x0 SWAP2 PUSH1 0x1 PUSH1 0x40 SHL SWAP1 DIV PUSH4 0xFFFFFFFF AND SWAP1 PUSH1 0x8 PUSH2 0x2924 DUP4 PUSH2 0x5521 JUMP JUMPDEST DUP3 SLOAD PUSH4 0xFFFFFFFF SWAP2 DUP3 AND PUSH2 0x100 SWAP4 SWAP1 SWAP4 EXP SWAP3 DUP4 MUL SWAP2 SWAP1 SWAP3 MUL NOT SWAP1 SWAP2 AND OR SWAP1 SSTORE PUSH1 0x1 PUSH1 0x1 PUSH1 0xA0 SHL SUB DUP6 AND PUSH1 0x0 SWAP1 DUP2 MSTORE PUSH1 0xDA PUSH1 0x20 MSTORE PUSH1 0x40 SWAP1 KECCAK256 PUSH1 0xD4 SLOAD SWAP2 SWAP3 POP SWAP1 PUSH1 0xFF AND ISZERO PUSH2 0x2A27 JUMPI PUSH2 0x2A27 DUP4 DUP4 DUP9 DUP8 PUSH4 0xFFFFFFFF SWAP3 DUP4 AND PUSH1 0x0 DUP2 DUP2 MSTORE PUSH1 0xDC PUSH1 0x20 SWAP1 DUP2 MSTORE PUSH1 0x40 DUP1 DUP4 KECCAK256 SWAP8 DUP8 AND DUP1 DUP5 MSTORE PUSH1 0xDB DUP4 MSTORE SWAP1 DUP4 KECCAK256 DUP9 SLOAD PUSH6 0x10000000000 SWAP1 SWAP3 MUL PUSH9 0xFFFFFFFFFF00000000 NOT SWAP1 SWAP3 AND SWAP2 SWAP1 SWAP2 OR PUSH5 0x100000000 OR DUP9 SSTORE PUSH1 0x1 DUP1 DUP10 ADD SWAP7 SWAP1 SWAP7 SSTORE PUSH1 0xD1 SLOAD PUSH1 0x2 DUP10 ADD DUP1 SLOAD PUSH2 0xFFFF NOT AND PUSH2 0xFFFF PUSH1 0x1 PUSH1 0x60 SHL SWAP1 SWAP4 DIV SWAP3 SWAP1 SWAP3 AND SWAP2 SWAP1 SWAP2 OR SWAP1 SSTORE PUSH1 0x3 SWAP1 SWAP8 ADD SWAP4 SWAP1 SWAP4 SSTORE PUSH1 0x1B SWAP1 SWAP6 ADD DUP1 SLOAD SWAP4 DUP5 ADD DUP2 SSTORE DUP6 MSTORE SWAP4 KECCAK256 PUSH1 0x8 DUP3 DIV ADD DUP1 SLOAD PUSH1 0x7 SWAP1 SWAP3 AND PUSH1 0x4 MUL PUSH2 0x100 EXP SWAP4 DUP5 MUL SWAP4 SWAP1 SWAP3 MUL NOT AND SWAP2 SWAP1 SWAP2 OR SWAP1 SSTORE JUMP JUMPDEST PUSH2 0x2A47 DUP6 DUP5 DUP11 DUP10 DUP9 PUSH1 0xCB PUSH1 0x2 SWAP1 SLOAD SWAP1 PUSH2 0x100 EXP SWAP1 DIV PUSH1 0xFF AND PUSH1 0xFF AND PUSH2 0x4169 JUMP JUMPDEST PUSH1 0x1 SWAP1 DUP2 ADD DUP1 SLOAD SWAP2 DUP3 ADD DUP2 SSTORE PUSH1 0x0 SWAP1 DUP2 MSTORE PUSH1 0x20 SWAP1 KECCAK256 PUSH1 0x8 DUP3 DIV ADD DUP1 SLOAD PUSH1 0x7 SWAP1 SWAP3 AND PUSH1 0x4 MUL PUSH2 0x100 EXP PUSH4 0xFFFFFFFF DUP2 DUP2 MUL NOT SWAP1 SWAP4 AND SWAP5 SWAP1 SWAP3 AND SWAP2 SWAP1 SWAP2 MUL SWAP3 SWAP1 SWAP3 OR SWAP1 SWAP2 SSTORE POP POP POP POP POP POP JUMP JUMPDEST PUSH4 0xFFFFFFFF DUP2 AND PUSH1 0x0 SWAP1 DUP2 MSTORE PUSH1 0xDB PUSH1 0x20 SWAP1 DUP2 MSTORE PUSH1 0x40 DUP1 DUP4 KECCAK256 PUSH1 0x1B ADD DUP1 SLOAD DUP3 MLOAD DUP2 DUP6 MUL DUP2 ADD DUP6 ADD SWAP1 SWAP4 MSTORE DUP1 DUP4 MSTORE DUP5 SWAP4 DUP4 ADD DUP3 DUP3 DUP1 ISZERO PUSH2 0x2B1B JUMPI PUSH1 0x20 MUL DUP3 ADD SWAP2 SWAP1 PUSH1 0x0 MSTORE PUSH1 0x20 PUSH1 0x0 KECCAK256 SWAP1 PUSH1 0x0 SWAP1 JUMPDEST DUP3 DUP3 SWAP1 SLOAD SWAP1 PUSH2 0x100 EXP SWAP1 DIV PUSH4 0xFFFFFFFF AND PUSH4 0xFFFFFFFF AND DUP2 MSTORE PUSH1 0x20 ADD SWAP1 PUSH1 0x4 ADD SWAP1 PUSH1 0x20 DUP3 PUSH1 0x3 ADD DIV SWAP3 DUP4 ADD SWAP3 PUSH1 0x1 SUB DUP3 MUL SWAP2 POP DUP1 DUP5 GT PUSH2 0x2ADE JUMPI SWAP1 POP JUMPDEST POP POP POP POP POP SWAP1 POP PUSH1 0x0 DUP1 JUMPDEST DUP3 MLOAD DUP2 PUSH2 0xFFFF AND LT ISZERO PUSH2 0x2BAF JUMPI PUSH1 0x0 PUSH1 0xDC PUSH1 0x0 DUP6 DUP5 PUSH2 0xFFFF AND DUP2 MLOAD DUP2 LT PUSH2 0x2B4F JUMPI PUSH2 0x2B4F PUSH2 0x5498 JUMP JUMPDEST PUSH1 0x20 MUL PUSH1 0x20 ADD ADD MLOAD PUSH4 0xFFFFFFFF AND PUSH4 0xFFFFFFFF AND DUP2 MSTORE PUSH1 0x20 ADD SWAP1 DUP2 MSTORE PUSH1 0x20 ADD PUSH1 0x0 KECCAK256 SWAP1 POP DUP1 PUSH1 0x0 ADD PUSH1 0x4 SWAP1 SLOAD SWAP1 PUSH2 0x100 EXP SWAP1 DIV PUSH1 0xFF AND ISZERO PUSH2 0x2B9C JUMPI PUSH1 0x1 DUP2 ADD SLOAD PUSH2 0x2B99 SWAP1 DUP5 PUSH2 0x56A2 JUMP JUMPDEST SWAP3 POP JUMPDEST POP DUP1 PUSH2 0x2BA7 DUP2 PUSH2 0x56B5 JUMP JUMPDEST SWAP2 POP POP PUSH2 0x2B26 JUMP JUMPDEST POP SWAP4 SWAP3 POP POP POP JUMP JUMPDEST PUSH4 0xFFFFFFFF DUP1 DUP3 AND PUSH1 0x0 SWAP1 DUP2 MSTORE PUSH1 0xDB PUSH1 0x20 SWAP1 DUP2 MSTORE PUSH1 0x40 DUP1 DUP4 KECCAK256 DUP2 MLOAD PUSH2 0x400 DUP2 ADD SWAP1 SWAP3 MSTORE DUP1 SLOAD SWAP1 SWAP5 AND DUP2 MSTORE PUSH1 0x1 DUP5 ADD DUP1 SLOAD SWAP4 SWAP5 DUP6 SWAP5 DUP6 SWAP5 DUP6 SWAP5 DUP6 SWAP5 SWAP1 SWAP4 SWAP3 SWAP2 DUP5 ADD SWAP2 PUSH2 0x2C01 SWAP1 PUSH2 0x55DC JUMP JUMPDEST DUP1 PUSH1 0x1F ADD PUSH1 0x20 DUP1 SWAP2 DIV MUL PUSH1 0x20 ADD PUSH1 0x40 MLOAD SWAP1 DUP2 ADD PUSH1 0x40 MSTORE DUP1 SWAP3 SWAP2 SWAP1 DUP2 DUP2 MSTORE PUSH1 0x20 ADD DUP3 DUP1 SLOAD PUSH2 0x2C2D SWAP1 PUSH2 0x55DC JUMP JUMPDEST DUP1 ISZERO PUSH2 0x2C7A JUMPI DUP1 PUSH1 0x1F LT PUSH2 0x2C4F JUMPI PUSH2 0x100 DUP1 DUP4 SLOAD DIV MUL DUP4 MSTORE SWAP2 PUSH1 0x20 ADD SWAP2 PUSH2 0x2C7A JUMP JUMPDEST DUP3 ADD SWAP2 SWAP1 PUSH1 0x0 MSTORE PUSH1 0x20 PUSH1 0x0 KECCAK256 SWAP1 JUMPDEST DUP2 SLOAD DUP2 MSTORE SWAP1 PUSH1 0x1 ADD SWAP1 PUSH1 0x20 ADD DUP1 DUP4 GT PUSH2 0x2C5D JUMPI DUP3 SWAP1 SUB PUSH1 0x1F AND DUP3 ADD SWAP2 JUMPDEST POP POP POP SWAP2 DUP4 MSTORE POP POP PUSH1 0x2 DUP3 ADD SLOAD PUSH1 0xFF DUP2 AND ISZERO ISZERO PUSH1 0x20 DUP1 DUP5 ADD SWAP2 SWAP1 SWAP2 MSTORE PUSH2 0x100 SWAP1 SWAP2 DIV PUSH1 0x1 PUSH1 0x1 PUSH1 0xA0 SHL SUB AND PUSH1 0x40 DUP1 DUP5 ADD SWAP2 SWAP1 SWAP2 MSTORE PUSH1 0x3 DUP5 ADD SLOAD PUSH1 0x60 DUP5 ADD MSTORE PUSH1 0x4 DUP5 ADD SLOAD PUSH1 0x80 DUP5 ADD MSTORE PUSH1 0x5 DUP5 ADD SLOAD PUSH4 0xFFFFFFFF AND PUSH1 0xA0 DUP5 ADD MSTORE PUSH1 0x6 DUP5 ADD DUP1 SLOAD DUP3 MLOAD DUP2 DUP6 MUL DUP2 ADD DUP6 ADD SWAP1 SWAP4 MSTORE DUP1 DUP4 MSTORE PUSH1 0xC0 SWAP1 SWAP5 ADD SWAP4 SWAP2 SWAP3 SWAP1 SWAP2 SWAP1 DUP4 ADD DUP3 DUP3 DUP1 ISZERO PUSH2 0x2D4D JUMPI PUSH1 0x20 MUL DUP3 ADD SWAP2 SWAP1 PUSH1 0x0 MSTORE PUSH1 0x20 PUSH1 0x0 KECCAK256 SWAP1 PUSH1 0x0 SWAP1 JUMPDEST DUP3 DUP3 SWAP1 SLOAD SWAP1 PUSH2 0x100 EXP SWAP1 DIV PUSH4 0xFFFFFFFF AND PUSH4 0xFFFFFFFF AND DUP2 MSTORE PUSH1 0x20 ADD SWAP1 PUSH1 0x4 ADD SWAP1 PUSH1 0x20 DUP3 PUSH1 0x3 ADD DIV SWAP3 DUP4 ADD SWAP3 PUSH1 0x1 SUB DUP3 MUL SWAP2 POP DUP1 DUP5 GT PUSH2 0x2D10 JUMPI SWAP1 POP JUMPDEST POP POP POP POP POP DUP2 MSTORE PUSH1 0x20 ADD PUSH1 0x7 DUP3 ADD DUP1 SLOAD DUP1 PUSH1 0x20 MUL PUSH1 0x20 ADD PUSH1 0x40 MLOAD SWAP1 DUP2 ADD PUSH1 0x40 MSTORE DUP1 SWAP3 SWAP2 SWAP1 DUP2 DUP2 MSTORE PUSH1 0x20 ADD DUP3 DUP1 SLOAD DUP1 ISZERO PUSH2 0x2DD1 JUMPI PUSH1 0x20 MUL DUP3 ADD SWAP2 SWAP1 PUSH1 0x0 MSTORE PUSH1 0x20 PUSH1 0x0 KECCAK256 SWAP1 PUSH1 0x0 SWAP1 JUMPDEST DUP3 DUP3 SWAP1 SLOAD SWAP1 PUSH2 0x100 EXP SWAP1 DIV PUSH4 0xFFFFFFFF AND PUSH4 0xFFFFFFFF AND DUP2 MSTORE PUSH1 0x20 ADD SWAP1 PUSH1 0x4 ADD SWAP1 PUSH1 0x20 DUP3 PUSH1 0x3 ADD DIV SWAP3 DUP4 ADD SWAP3 PUSH1 0x1 SUB DUP3 MUL SWAP2 POP DUP1 DUP5 GT PUSH2 0x2D94 JUMPI SWAP1 POP JUMPDEST POP POP POP POP POP DUP2 MSTORE PUSH1 0x20 ADD PUSH1 0x8 DUP3 ADD DUP1 SLOAD DUP1 PUSH1 0x20 MUL PUSH1 0x20 ADD PUSH1 0x40 MLOAD SWAP1 DUP2 ADD PUSH1 0x40 MSTORE DUP1 SWAP3 SWAP2 SWAP1 DUP2 DUP2 MSTORE PUSH1 0x20 ADD DUP3 DUP1 SLOAD DUP1 ISZERO PUSH2 0x2E55 JUMPI PUSH1 0x20 MUL DUP3 ADD SWAP2 SWAP1 PUSH1 0x0 MSTORE PUSH1 0x20 PUSH1 0x0 KECCAK256 SWAP1 PUSH1 0x0 SWAP1 JUMPDEST DUP3 DUP3 SWAP1 SLOAD SWAP1 PUSH2 0x100 EXP SWAP1 DIV PUSH4 0xFFFFFFFF AND PUSH4 0xFFFFFFFF AND DUP2 MSTORE PUSH1 0x20 ADD SWAP1 PUSH1 0x4 ADD SWAP1 PUSH1 0x20 DUP3 PUSH1 0x3 ADD DIV SWAP3 DUP4 ADD SWAP3 PUSH1 0x1 SUB DUP3 MUL SWAP2 POP DUP1 DUP5 GT PUSH2 0x2E18 JUMPI SWAP1 POP JUMPDEST POP POP POP POP POP DUP2 MSTORE PUSH1 0x20 ADD PUSH1 0x9 DUP3 ADD SLOAD DUP2 MSTORE PUSH1 0x20 ADD PUSH1 0xA DUP3 ADD SLOAD DUP2 MSTORE PUSH1 0x20 ADD PUSH1 0xB DUP3 ADD SLOAD DUP2 MSTORE PUSH1 0x20 ADD PUSH1 0xC DUP3 ADD SLOAD DUP2 MSTORE PUSH1 0x20 ADD PUSH1 0xD DUP3 ADD SLOAD DUP2 MSTORE PUSH1 0x20 ADD PUSH1 0xE DUP3 ADD SLOAD DUP2 MSTORE PUSH1 0x20 ADD PUSH1 0xF DUP3 ADD SLOAD DUP2 MSTORE PUSH1 0x20 ADD PUSH1 0x10 DUP3 ADD SLOAD DUP2 MSTORE PUSH1 0x20 ADD PUSH1 0x11 DUP3 ADD PUSH1 0x0 SWAP1 SLOAD SWAP1 PUSH2 0x100 EXP SWAP1 DIV PUSH1 0xFF AND PUSH1 0xFF AND PUSH1 0xFF AND DUP2 MSTORE PUSH1 0x20 ADD PUSH1 0x12 DUP3 ADD SLOAD DUP2 MSTORE PUSH1 0x20 ADD PUSH1 0x13 DUP3 ADD SLOAD DUP2 MSTORE PUSH1 0x20 ADD PUSH1 0x14 DUP3 ADD SLOAD DUP2 MSTORE PUSH1 0x20 ADD PUSH1 0x15 DUP3 ADD SLOAD DUP2 MSTORE PUSH1 0x20 ADD PUSH1 0x16 DUP3 ADD SLOAD DUP2 MSTORE PUSH1 0x20 ADD PUSH1 0x17 DUP3 ADD SLOAD DUP2 MSTORE PUSH1 0x20 ADD PUSH1 0x18 DUP3 ADD SLOAD DUP2 MSTORE PUSH1 0x20 ADD PUSH1 0x19 DUP3 ADD SLOAD DUP2 MSTORE PUSH1 0x20 ADD PUSH1 0x1A DUP3 ADD SLOAD DUP2 MSTORE PUSH1 0x20 ADD PUSH1 0x1B DUP3 ADD DUP1 SLOAD DUP1 PUSH1 0x20 MUL PUSH1 0x20 ADD PUSH1 0x40 MLOAD SWAP1 DUP2 ADD PUSH1 0x40 MSTORE DUP1 SWAP3 SWAP2 SWAP1 DUP2 DUP2 MSTORE PUSH1 0x20 ADD DUP3 DUP1 SLOAD DUP1 ISZERO PUSH2 0x2FA0 JUMPI PUSH1 0x20 MUL DUP3 ADD SWAP2 SWAP1 PUSH1 0x0 MSTORE PUSH1 0x20 PUSH1 0x0 KECCAK256 SWAP1 PUSH1 0x0 SWAP1 JUMPDEST DUP3 DUP3 SWAP1 SLOAD SWAP1 PUSH2 0x100 EXP SWAP1 DIV PUSH4 0xFFFFFFFF AND PUSH4 0xFFFFFFFF AND DUP2 MSTORE PUSH1 0x20 ADD SWAP1 PUSH1 0x4 ADD SWAP1 PUSH1 0x20 DUP3 PUSH1 0x3 ADD DIV SWAP3 DUP4 ADD SWAP3 PUSH1 0x1 SUB DUP3 MUL SWAP2 POP DUP1 DUP5 GT PUSH2 0x2F63 JUMPI SWAP1 POP JUMPDEST POP POP POP POP POP DUP2 MSTORE PUSH1 0x20 ADD PUSH1 0x1C DUP3 ADD SLOAD DUP2 MSTORE PUSH1 0x20 ADD PUSH1 0x1D DUP3 ADD SLOAD DUP2 MSTORE PUSH1 0x20 ADD PUSH1 0x1E DUP3 ADD SLOAD DUP2 MSTORE POP POP SWAP1 POP DUP1 PUSH2 0x280 ADD MLOAD SWAP5 POP DUP1 PUSH2 0x360 ADD MLOAD SWAP4 POP DUP1 PUSH2 0x2A0 ADD MLOAD SWAP3 POP DUP3 DUP5 DUP7 PUSH2 0x2FEE SWAP2 SWAP1 PUSH2 0x56A2 JUMP JUMPDEST PUSH2 0x2FF8 SWAP2 SWAP1 PUSH2 0x56A2 JUMP JUMPDEST SWAP2 POP POP SWAP2 SWAP4 POP SWAP2 SWAP4 JUMP JUMPDEST PUSH2 0x300A PUSH2 0x37A7 JUMP JUMPDEST PUSH1 0x1 PUSH1 0x1 PUSH1 0xA0 SHL SUB DUP2 AND PUSH2 0x306F JUMPI PUSH1 0x40 MLOAD PUSH3 0x461BCD PUSH1 0xE5 SHL DUP2 MSTORE PUSH1 0x20 PUSH1 0x4 DUP3 ADD MSTORE PUSH1 0x26 PUSH1 0x24 DUP3 ADD MSTORE PUSH32 0x4F776E61626C653A206E6577206F776E657220697320746865207A65726F2061 PUSH1 0x44 DUP3 ADD MSTORE PUSH6 0x646472657373 PUSH1 0xD0 SHL PUSH1 0x64 DUP3 ADD MSTORE PUSH1 0x84 ADD PUSH2 0xD05 JUMP JUMPDEST PUSH2 0xEBB DUP2 PUSH2 0x3A0A JUMP JUMPDEST PUSH4 0xFFFFFFFF DUP3 AND PUSH1 0x0 SWAP1 DUP2 MSTORE PUSH1 0xDB PUSH1 0x20 MSTORE PUSH1 0x40 SWAP1 KECCAK256 PUSH1 0x2 DUP2 ADD SLOAD PUSH2 0x100 SWAP1 DIV PUSH1 0x1 PUSH1 0x1 PUSH1 0xA0 SHL SUB AND CALLER EQ PUSH2 0x30EE JUMPI PUSH1 0x40 MLOAD PUSH3 0x461BCD PUSH1 0xE5 SHL DUP2 MSTORE PUSH1 0x20 PUSH1 0x4 DUP3 ADD MSTORE PUSH1 0x1D PUSH1 0x24 DUP3 ADD MSTORE PUSH32 0x596F7520617265206E6F74206F776E6572206F6620746869732069642E000000 PUSH1 0x44 DUP3 ADD MSTORE PUSH1 0x64 ADD PUSH2 0xD05 JUMP JUMPDEST PUSH1 0x0 PUSH2 0x30F9 DUP3 PUSH2 0x43FC JUMP JUMPDEST PUSH1 0x1E DUP4 ADD SLOAD SWAP1 SWAP2 POP PUSH2 0x310B DUP2 DUP4 PUSH2 0x54C4 JUMP JUMPDEST DUP5 GT ISZERO PUSH2 0x316D JUMPI PUSH1 0x40 MLOAD PUSH3 0x461BCD PUSH1 0xE5 SHL DUP2 MSTORE PUSH1 0x20 PUSH1 0x4 DUP3 ADD MSTORE PUSH1 0x2A PUSH1 0x24 DUP3 ADD MSTORE PUSH32 0x506C6561736520656E7465722076616C7565206C657373207468656E20796F75 PUSH1 0x44 DUP3 ADD MSTORE PUSH10 0x39103130B630B731B297 PUSH1 0xB1 SHL PUSH1 0x64 DUP3 ADD MSTORE PUSH1 0x84 ADD PUSH2 0xD05 JUMP JUMPDEST DUP4 DUP4 PUSH1 0x1E ADD PUSH1 0x0 DUP3 DUP3 SLOAD PUSH2 0x3181 SWAP2 SWAP1 PUSH2 0x56A2 JUMP JUMPDEST SWAP1 SWAP2 SSTORE POP CALLER SWAP1 POP PUSH2 0x8FC PUSH2 0x3194 DUP7 PUSH2 0x3801 JUMP JUMPDEST PUSH1 0x40 MLOAD DUP2 ISZERO SWAP1 SWAP3 MUL SWAP2 PUSH1 0x0 DUP2 DUP2 DUP2 DUP6 DUP9 DUP9 CALL SWAP4 POP POP POP POP ISZERO DUP1 ISZERO PUSH2 0x31BC JUMPI RETURNDATASIZE PUSH1 0x0 DUP1 RETURNDATACOPY RETURNDATASIZE PUSH1 0x0 REVERT JUMPDEST POP POP POP POP POP POP JUMP JUMPDEST PUSH2 0x32CE PUSH1 0x40 MLOAD DUP1 PUSH2 0x400 ADD PUSH1 0x40 MSTORE DUP1 PUSH1 0x0 PUSH4 0xFFFFFFFF AND DUP2 MSTORE PUSH1 0x20 ADD PUSH1 0x60 DUP2 MSTORE PUSH1 0x20 ADD PUSH1 0x0 ISZERO ISZERO DUP2 MSTORE PUSH1 0x20 ADD PUSH1 0x0 PUSH1 0x1 PUSH1 0x1 PUSH1 0xA0 SHL SUB AND DUP2 MSTORE PUSH1 0x20 ADD PUSH1 0x0 DUP2 MSTORE PUSH1 0x20 ADD PUSH1 0x0 DUP2 MSTORE PUSH1 0x20 ADD PUSH1 0x0 PUSH4 0xFFFFFFFF AND DUP2 MSTORE PUSH1 0x20 ADD PUSH1 0x60 DUP2 MSTORE PUSH1 0x20 ADD PUSH1 0x60 DUP2 MSTORE PUSH1 0x20 ADD PUSH1 0x60 DUP2 MSTORE PUSH1 0x20 ADD PUSH1 0x0 DUP2 MSTORE PUSH1 0x20 ADD PUSH1 0x0 DUP2 MSTORE PUSH1 0x20 ADD PUSH1 0x0 DUP2 MSTORE PUSH1 0x20 ADD PUSH1 0x0 DUP2 MSTORE PUSH1 0x20 ADD PUSH1 0x0 DUP2 MSTORE PUSH1 0x20 ADD PUSH1 0x0 DUP2 MSTORE PUSH1 0x20 ADD PUSH1 0x0 DUP2 MSTORE PUSH1 0x20 ADD PUSH1 0x0 DUP2 MSTORE PUSH1 0x20 ADD PUSH1 0x0 PUSH1 0xFF AND DUP2 MSTORE PUSH1 0x20 ADD PUSH1 0x0 DUP2 MSTORE PUSH1 0x20 ADD PUSH1 0x0 DUP2 MSTORE PUSH1 0x20 ADD PUSH1 0x0 DUP2 MSTORE PUSH1 0x20 ADD PUSH1 0x0 DUP2 MSTORE PUSH1 0x20 ADD PUSH1 0x0 DUP2 MSTORE PUSH1 0x20 ADD PUSH1 0x0 DUP2 MSTORE PUSH1 0x20 ADD PUSH1 0x0 DUP2 MSTORE PUSH1 0x20 ADD PUSH1 0x0 DUP2 MSTORE PUSH1 0x20 ADD PUSH1 0x0 DUP2 MSTORE PUSH1 0x20 ADD PUSH1 0x60 DUP2 MSTORE PUSH1 0x20 ADD PUSH1 0x0 DUP2 MSTORE PUSH1 0x20 ADD PUSH1 0x0 DUP2 MSTORE PUSH1 0x20 ADD PUSH1 0x0 DUP2 MSTORE POP SWAP1 JUMP JUMPDEST PUSH4 0xFFFFFFFF DUP1 DUP4 AND PUSH1 0x0 SWAP1 DUP2 MSTORE PUSH1 0xDB PUSH1 0x20 SWAP1 DUP2 MSTORE PUSH1 0x40 SWAP2 DUP3 SWAP1 KECCAK256 DUP3 MLOAD PUSH2 0x400 DUP2 ADD SWAP1 SWAP4 MSTORE DUP1 SLOAD SWAP1 SWAP4 AND DUP3 MSTORE PUSH1 0x1 DUP4 ADD DUP1 SLOAD SWAP3 SWAP4 SWAP3 SWAP2 DUP5 ADD SWAP2 PUSH2 0x330F SWAP1 PUSH2 0x55DC JUMP JUMPDEST DUP1 PUSH1 0x1F ADD PUSH1 0x20 DUP1 SWAP2 DIV MUL PUSH1 0x20 ADD PUSH1 0x40 MLOAD SWAP1 DUP2 ADD PUSH1 0x40 MSTORE DUP1 SWAP3 SWAP2 SWAP1 DUP2 DUP2 MSTORE PUSH1 0x20 ADD DUP3 DUP1 SLOAD PUSH2 0x333B SWAP1 PUSH2 0x55DC JUMP JUMPDEST DUP1 ISZERO PUSH2 0x3388 JUMPI DUP1 PUSH1 0x1F LT PUSH2 0x335D JUMPI PUSH2 0x100 DUP1 DUP4 SLOAD DIV MUL DUP4 MSTORE SWAP2 PUSH1 0x20 ADD SWAP2 PUSH2 0x3388 JUMP JUMPDEST DUP3 ADD SWAP2 SWAP1 PUSH1 0x0 MSTORE PUSH1 0x20 PUSH1 0x0 KECCAK256 SWAP1 JUMPDEST DUP2 SLOAD DUP2 MSTORE SWAP1 PUSH1 0x1 ADD SWAP1 PUSH1 0x20 ADD DUP1 DUP4 GT PUSH2 0x336B JUMPI DUP3 SWAP1 SUB PUSH1 0x1F AND DUP3 ADD SWAP2 JUMPDEST POP POP POP SWAP2 DUP4 MSTORE POP POP PUSH1 0x2 DUP3 ADD SLOAD PUSH1 0xFF DUP2 AND ISZERO ISZERO PUSH1 0x20 DUP1 DUP5 ADD SWAP2 SWAP1 SWAP2 MSTORE PUSH2 0x100 SWAP1 SWAP2 DIV PUSH1 0x1 PUSH1 0x1 PUSH1 0xA0 SHL SUB AND PUSH1 0x40 DUP1 DUP5 ADD SWAP2 SWAP1 SWAP2 MSTORE PUSH1 0x3 DUP5 ADD SLOAD PUSH1 0x60 DUP5 ADD MSTORE PUSH1 0x4 DUP5 ADD SLOAD PUSH1 0x80 DUP5 ADD MSTORE PUSH1 0x5 DUP5 ADD SLOAD PUSH4 0xFFFFFFFF AND PUSH1 0xA0 DUP5 ADD MSTORE PUSH1 0x6 DUP5 ADD DUP1 SLOAD DUP3 MLOAD DUP2 DUP6 MUL DUP2 ADD DUP6 ADD SWAP1 SWAP4 MSTORE DUP1 DUP4 MSTORE PUSH1 0xC0 SWAP1 SWAP5 ADD SWAP4 SWAP2 SWAP3 SWAP1 SWAP2 SWAP1 DUP4 ADD DUP3 DUP3 DUP1 ISZERO PUSH2 0x345B JUMPI PUSH1 0x20 MUL DUP3 ADD SWAP2 SWAP1 PUSH1 0x0 MSTORE PUSH1 0x20 PUSH1 0x0 KECCAK256 SWAP1 PUSH1 0x0 SWAP1 JUMPDEST DUP3 DUP3 SWAP1 SLOAD SWAP1 PUSH2 0x100 EXP SWAP1 DIV PUSH4 0xFFFFFFFF AND PUSH4 0xFFFFFFFF AND DUP2 MSTORE PUSH1 0x20 ADD SWAP1 PUSH1 0x4 ADD SWAP1 PUSH1 0x20 DUP3 PUSH1 0x3 ADD DIV SWAP3 DUP4 ADD SWAP3 PUSH1 0x1 SUB DUP3 MUL SWAP2 POP DUP1 DUP5 GT PUSH2 0x341E JUMPI SWAP1 POP JUMPDEST POP POP POP POP POP DUP2 MSTORE PUSH1 0x20 ADD PUSH1 0x7 DUP3 ADD DUP1 SLOAD DUP1 PUSH1 0x20 MUL PUSH1 0x20 ADD PUSH1 0x40 MLOAD SWAP1 DUP2 ADD PUSH1 0x40 MSTORE DUP1 SWAP3 SWAP2 SWAP1 DUP2 DUP2 MSTORE PUSH1 0x20 ADD DUP3 DUP1 SLOAD DUP1 ISZERO PUSH2 0x34DF JUMPI PUSH1 0x20 MUL DUP3 ADD SWAP2 SWAP1 PUSH1 0x0 MSTORE PUSH1 0x20 PUSH1 0x0 KECCAK256 SWAP1 PUSH1 0x0 SWAP1 JUMPDEST DUP3 DUP3 SWAP1 SLOAD SWAP1 PUSH2 0x100 EXP SWAP1 DIV PUSH4 0xFFFFFFFF AND PUSH4 0xFFFFFFFF AND DUP2 MSTORE PUSH1 0x20 ADD SWAP1 PUSH1 0x4 ADD SWAP1 PUSH1 0x20 DUP3 PUSH1 0x3 ADD DIV SWAP3 DUP4 ADD SWAP3 PUSH1 0x1 SUB DUP3 MUL SWAP2 POP DUP1 DUP5 GT PUSH2 0x34A2 JUMPI SWAP1 POP JUMPDEST POP POP POP POP POP DUP2 MSTORE PUSH1 0x20 ADD PUSH1 0x8 DUP3 ADD DUP1 SLOAD DUP1 PUSH1 0x20 MUL PUSH1 0x20 ADD PUSH1 0x40 MLOAD SWAP1 DUP2 ADD PUSH1 0x40 MSTORE DUP1 SWAP3 SWAP2 SWAP1 DUP2 DUP2 MSTORE PUSH1 0x20 ADD DUP3 DUP1 SLOAD DUP1 ISZERO PUSH2 0x3563 JUMPI PUSH1 0x20 MUL DUP3 ADD SWAP2 SWAP1 PUSH1 0x0 MSTORE PUSH1 0x20 PUSH1 0x0 KECCAK256 SWAP1 PUSH1 0x0 SWAP1 JUMPDEST DUP3 DUP3 SWAP1 SLOAD SWAP1 PUSH2 0x100 EXP SWAP1 DIV PUSH4 0xFFFFFFFF AND PUSH4 0xFFFFFFFF AND DUP2 MSTORE PUSH1 0x20 ADD SWAP1 PUSH1 0x4 ADD SWAP1 PUSH1 0x20 DUP3 PUSH1 0x3 ADD DIV SWAP3 DUP4 ADD SWAP3 PUSH1 0x1 SUB DUP3 MUL SWAP2 POP DUP1 DUP5 GT PUSH2 0x3526 JUMPI SWAP1 POP JUMPDEST POP POP POP POP POP DUP2 MSTORE PUSH1 0x20 ADD PUSH1 0x9 DUP3 ADD SLOAD DUP2 MSTORE PUSH1 0x20 ADD PUSH1 0xA DUP3 ADD SLOAD DUP2 MSTORE PUSH1 0x20 ADD PUSH1 0xB DUP3 ADD SLOAD DUP2 MSTORE PUSH1 0x20 ADD PUSH1 0xC DUP3 ADD SLOAD DUP2 MSTORE PUSH1 0x20 ADD PUSH1 0xD DUP3 ADD SLOAD DUP2 MSTORE PUSH1 0x20 ADD PUSH1 0xE DUP3 ADD SLOAD DUP2 MSTORE PUSH1 0x20 ADD PUSH1 0xF DUP3 ADD SLOAD DUP2 MSTORE PUSH1 0x20 ADD PUSH1 0x10 DUP3 ADD SLOAD DUP2 MSTORE PUSH1 0x20 ADD PUSH1 0x11 DUP3 ADD PUSH1 0x0 SWAP1 SLOAD SWAP1 PUSH2 0x100 EXP SWAP1 DIV PUSH1 0xFF AND PUSH1 0xFF AND PUSH1 0xFF AND DUP2 MSTORE PUSH1 0x20 ADD PUSH1 0x12 DUP3 ADD SLOAD DUP2 MSTORE PUSH1 0x20 ADD PUSH1 0x13 DUP3 ADD SLOAD DUP2 MSTORE PUSH1 0x20 ADD PUSH1 0x14 DUP3 ADD SLOAD DUP2 MSTORE PUSH1 0x20 ADD PUSH1 0x15 DUP3 ADD SLOAD DUP2 MSTORE PUSH1 0x20 ADD PUSH1 0x16 DUP3 ADD SLOAD DUP2 MSTORE PUSH1 0x20 ADD PUSH1 0x17 DUP3 ADD SLOAD DUP2 MSTORE PUSH1 0x20 ADD PUSH1 0x18 DUP3 ADD SLOAD DUP2 MSTORE PUSH1 0x20 ADD PUSH1 0x19 DUP3 ADD SLOAD DUP2 MSTORE PUSH1 0x20 ADD PUSH1 0x1A DUP3 ADD SLOAD DUP2 MSTORE PUSH1 0x20 ADD PUSH1 0x1B DUP3 ADD DUP1 SLOAD DUP1 PUSH1 0x20 MUL PUSH1 0x20 ADD PUSH1 0x40 MLOAD SWAP1 DUP2 ADD PUSH1 0x40 MSTORE DUP1 SWAP3 SWAP2 SWAP1 DUP2 DUP2 MSTORE PUSH1 0x20 ADD DUP3 DUP1 SLOAD DUP1 ISZERO PUSH2 0x36AE JUMPI PUSH1 0x20 MUL DUP3 ADD SWAP2 SWAP1 PUSH1 0x0 MSTORE PUSH1 0x20 PUSH1 0x0 KECCAK256 SWAP1 PUSH1 0x0 SWAP1 JUMPDEST DUP3 DUP3 SWAP1 SLOAD SWAP1 PUSH2 0x100 EXP SWAP1 DIV PUSH4 0xFFFFFFFF AND PUSH4 0xFFFFFFFF AND DUP2 MSTORE PUSH1 0x20 ADD SWAP1 PUSH1 0x4 ADD SWAP1 PUSH1 0x20 DUP3 PUSH1 0x3 ADD DIV SWAP3 DUP4 ADD SWAP3 PUSH1 0x1 SUB DUP3 MUL SWAP2 POP DUP1 DUP5 GT PUSH2 0x3671 JUMPI SWAP1 POP JUMPDEST POP POP POP POP POP DUP2 MSTORE PUSH1 0x20 ADD PUSH1 0x1C DUP3 ADD SLOAD DUP2 MSTORE PUSH1 0x20 ADD PUSH1 0x1D DUP3 ADD SLOAD DUP2 MSTORE PUSH1 0x20 ADD PUSH1 0x1E DUP3 ADD SLOAD DUP2 MSTORE POP POP SWAP1 POP SWAP2 SWAP1 POP JUMP JUMPDEST PUSH1 0x40 DUP1 MLOAD DUP1 DUP3 ADD SWAP1 SWAP2 MSTORE PUSH1 0x0 DUP2 MSTORE PUSH1 0x60 PUSH1 0x20 DUP3 ADD MSTORE PUSH1 0x1 PUSH1 0x1 PUSH1 0xA0 SHL SUB DUP3 AND PUSH1 0x0 SWAP1 DUP2 MSTORE PUSH1 0xDA PUSH1 0x20 SWAP1 DUP2 MSTORE PUSH1 0x40 SWAP2 DUP3 SWAP1 KECCAK256 DUP3 MLOAD DUP1 DUP5 ADD DUP5 MSTORE DUP2 SLOAD PUSH1 0xFF AND ISZERO ISZERO DUP2 MSTORE PUSH1 0x1 DUP3 ADD DUP1 SLOAD DUP6 MLOAD DUP2 DUP7 MUL DUP2 ADD DUP7 ADD SWAP1 SWAP7 MSTORE DUP1 DUP7 MSTORE SWAP2 SWAP5 SWAP3 SWAP4 DUP6 DUP2 ADD SWAP4 SWAP3 SWAP1 DUP4 ADD DUP3 DUP3 DUP1 ISZERO PUSH2 0x3797 JUMPI PUSH1 0x20 MUL DUP3 ADD SWAP2 SWAP1 PUSH1 0x0 MSTORE PUSH1 0x20 PUSH1 0x0 KECCAK256 SWAP1 PUSH1 0x0 SWAP1 JUMPDEST DUP3 DUP3 SWAP1 SLOAD SWAP1 PUSH2 0x100 EXP SWAP1 DIV PUSH4 0xFFFFFFFF AND PUSH4 0xFFFFFFFF AND DUP2 MSTORE PUSH1 0x20 ADD SWAP1 PUSH1 0x4 ADD SWAP1 PUSH1 0x20 DUP3 PUSH1 0x3 ADD DIV SWAP3 DUP4 ADD SWAP3 PUSH1 0x1 SUB DUP3 MUL SWAP2 POP DUP1 DUP5 GT PUSH2 0x375A JUMPI SWAP1 POP JUMPDEST POP POP POP POP POP DUP2 MSTORE POP POP SWAP1 POP SWAP2 SWAP1 POP JUMP JUMPDEST PUSH1 0x33 SLOAD PUSH1 0x1 PUSH1 0x1 PUSH1 0xA0 SHL SUB AND CALLER EQ PUSH2 0x126C JUMPI PUSH1 0x40 MLOAD PUSH3 0x461BCD PUSH1 0xE5 SHL DUP2 MSTORE PUSH1 0x20 PUSH1 0x4 DUP3 ADD DUP2 SWAP1 MSTORE PUSH1 0x24 DUP3 ADD MSTORE PUSH32 0x4F776E61626C653A2063616C6C6572206973206E6F7420746865206F776E6572 PUSH1 0x44 DUP3 ADD MSTORE PUSH1 0x64 ADD PUSH2 0xD05 JUMP JUMPDEST PUSH1 0x0 DUP1 PUSH1 0xC9 PUSH1 0x0 SWAP1 SLOAD SWAP1 PUSH2 0x100 EXP SWAP1 DIV PUSH1 0x1 PUSH1 0x1 PUSH1 0xA0 SHL SUB AND PUSH1 0x1 PUSH1 0x1 PUSH1 0xA0 SHL SUB AND PUSH4 0xE1AA6036 PUSH1 0x40 MLOAD DUP2 PUSH4 0xFFFFFFFF AND PUSH1 0xE0 SHL DUP2 MSTORE PUSH1 0x4 ADD PUSH1 0x20 PUSH1 0x40 MLOAD DUP1 DUP4 SUB DUP2 DUP7 GAS STATICCALL ISZERO DUP1 ISZERO PUSH2 0x3857 JUMPI RETURNDATASIZE PUSH1 0x0 DUP1 RETURNDATACOPY RETURNDATASIZE PUSH1 0x0 REVERT JUMPDEST POP POP POP POP PUSH1 0x40 MLOAD RETURNDATASIZE PUSH1 0x1F NOT PUSH1 0x1F DUP3 ADD AND DUP3 ADD DUP1 PUSH1 0x40 MSTORE POP DUP2 ADD SWAP1 PUSH2 0x387B SWAP2 SWAP1 PUSH2 0x56CC JUMP JUMPDEST PUSH2 0x388D DUP5 PUSH8 0xDE0B6B3A7640000 PUSH2 0x5616 JUMP JUMPDEST PUSH2 0x24CC SWAP2 SWAP1 PUSH2 0x56E5 JUMP JUMPDEST PUSH2 0xEBB PUSH2 0x37A7 JUMP JUMPDEST PUSH32 0x4910FDFA16FED3260ED0E7147F7CC6DA11A60208B5B9406D12A635614FFD9143 SLOAD PUSH1 0xFF AND ISZERO PUSH2 0x38D2 JUMPI PUSH2 0xC3D DUP4 PUSH2 0x4420 JUMP JUMPDEST DUP3 PUSH1 0x1 PUSH1 0x1 PUSH1 0xA0 SHL SUB AND PUSH4 0x52D1902D PUSH1 0x40 MLOAD DUP2 PUSH4 0xFFFFFFFF AND PUSH1 0xE0 SHL DUP2 MSTORE PUSH1 0x4 ADD PUSH1 0x20 PUSH1 0x40 MLOAD DUP1 DUP4 SUB DUP2 DUP7 GAS STATICCALL SWAP3 POP POP POP DUP1 ISZERO PUSH2 0x392C JUMPI POP PUSH1 0x40 DUP1 MLOAD PUSH1 0x1F RETURNDATASIZE SWAP1 DUP2 ADD PUSH1 0x1F NOT AND DUP3 ADD SWAP1 SWAP3 MSTORE PUSH2 0x3929 SWAP2 DUP2 ADD SWAP1 PUSH2 0x56CC JUMP JUMPDEST PUSH1 0x1 JUMPDEST PUSH2 0x398F JUMPI PUSH1 0x40 MLOAD PUSH3 0x461BCD PUSH1 0xE5 SHL DUP2 MSTORE PUSH1 0x20 PUSH1 0x4 DUP3 ADD MSTORE PUSH1 0x2E PUSH1 0x24 DUP3 ADD MSTORE PUSH32 0x45524331393637557067726164653A206E657720696D706C656D656E74617469 PUSH1 0x44 DUP3 ADD MSTORE PUSH14 0x6F6E206973206E6F742055555053 PUSH1 0x90 SHL PUSH1 0x64 DUP3 ADD MSTORE PUSH1 0x84 ADD PUSH2 0xD05 JUMP JUMPDEST PUSH1 0x0 DUP1 MLOAD PUSH1 0x20 PUSH2 0x5782 DUP4 CODECOPY DUP2 MLOAD SWAP2 MSTORE DUP2 EQ PUSH2 0x39FE JUMPI PUSH1 0x40 MLOAD PUSH3 0x461BCD PUSH1 0xE5 SHL DUP2 MSTORE PUSH1 0x20 PUSH1 0x4 DUP3 ADD MSTORE PUSH1 0x29 PUSH1 0x24 DUP3 ADD MSTORE PUSH32 0x45524331393637557067726164653A20756E737570706F727465642070726F78 PUSH1 0x44 DUP3 ADD MSTORE PUSH9 0x1A58589B1955555251 PUSH1 0xBA SHL PUSH1 0x64 DUP3 ADD MSTORE PUSH1 0x84 ADD PUSH2 0xD05 JUMP JUMPDEST POP PUSH2 0xC3D DUP4 DUP4 DUP4 PUSH2 0x44BC JUMP JUMPDEST PUSH1 0x33 DUP1 SLOAD PUSH1 0x1 PUSH1 0x1 PUSH1 0xA0 SHL SUB DUP4 DUP2 AND PUSH1 0x1 PUSH1 0x1 PUSH1 0xA0 SHL SUB NOT DUP4 AND DUP2 OR SWAP1 SWAP4 SSTORE PUSH1 0x40 MLOAD SWAP2 AND SWAP2 SWAP1 DUP3 SWAP1 PUSH32 0x8BE0079C531659141344CD1FD0A4F28419497F9722A3DAAFE3B4186F6B6457E0 SWAP1 PUSH1 0x0 SWAP1 LOG3 POP POP JUMP JUMPDEST PUSH1 0xD9 SLOAD PUSH1 0x0 SWAP1 PUSH1 0xFF AND DUP2 JUMPDEST DUP2 PUSH1 0xFF AND DUP2 PUSH1 0xFF AND LT ISZERO PUSH2 0x3B03 JUMPI PUSH1 0xFF DUP2 AND PUSH1 0x0 SWAP1 DUP2 MSTORE PUSH1 0xDD PUSH1 0x20 MSTORE PUSH1 0x40 SWAP1 KECCAK256 PUSH1 0x1 ADD SLOAD PUSH2 0x140 DUP6 ADD MLOAD LT DUP1 ISZERO SWAP1 PUSH2 0x3AB9 JUMPI POP PUSH1 0xFF DUP2 AND PUSH1 0x0 SWAP1 DUP2 MSTORE PUSH1 0xDD PUSH1 0x20 MSTORE PUSH1 0x40 SWAP1 KECCAK256 PUSH1 0x2 ADD SLOAD PUSH2 0x180 DUP6 ADD MLOAD LT ISZERO JUMPDEST DUP1 ISZERO PUSH2 0x3ADF JUMPI POP PUSH1 0xFF DUP2 AND PUSH1 0x0 SWAP1 DUP2 MSTORE PUSH1 0xDD PUSH1 0x20 MSTORE PUSH1 0x40 SWAP1 KECCAK256 PUSH1 0x3 ADD SLOAD PUSH2 0x1C0 DUP6 ADD MLOAD LT ISZERO JUMPDEST ISZERO PUSH2 0x3AEC JUMPI DUP1 SWAP3 POP PUSH2 0x3AF1 JUMP JUMPDEST PUSH2 0x3B03 JUMP JUMPDEST DUP1 PUSH2 0x3AFB DUP2 PUSH2 0x5502 JUMP JUMPDEST SWAP2 POP POP PUSH2 0x3A67 JUMP JUMPDEST POP POP SWAP2 SWAP1 POP JUMP JUMPDEST PUSH1 0x0 SLOAD PUSH2 0x100 SWAP1 DIV PUSH1 0xFF AND PUSH2 0x3B31 JUMPI PUSH1 0x40 MLOAD PUSH3 0x461BCD PUSH1 0xE5 SHL DUP2 MSTORE PUSH1 0x4 ADD PUSH2 0xD05 SWAP1 PUSH2 0x5707 JUMP JUMPDEST PUSH2 0x126C PUSH2 0x44E1 JUMP JUMPDEST PUSH1 0x0 SLOAD PUSH2 0x100 SWAP1 DIV PUSH1 0xFF AND PUSH2 0x126C JUMPI PUSH1 0x40 MLOAD PUSH3 0x461BCD PUSH1 0xE5 SHL DUP2 MSTORE PUSH1 0x4 ADD PUSH2 0xD05 SWAP1 PUSH2 0x5707 JUMP JUMPDEST PUSH1 0xE0 DUP2 ADD MLOAD MLOAD PUSH1 0x0 SWAP1 DUP2 DUP2 ISZERO PUSH2 0x24CC JUMPI PUSH1 0xD4 SLOAD PUSH1 0x1 SWAP1 PUSH2 0x3B8A SWAP1 PUSH4 0x1000000 SWAP1 DIV PUSH1 0xFF AND DUP5 PUSH2 0x5616 JUMP JUMPDEST PUSH2 0x3B94 SWAP2 SWAP1 PUSH2 0x54C4 JUMP JUMPDEST SWAP5 SWAP4 POP POP POP POP JUMP JUMPDEST PUSH4 0xFFFFFFFF DUP1 DUP3 AND PUSH1 0x0 SWAP1 DUP2 MSTORE PUSH1 0xDB PUSH1 0x20 SWAP1 DUP2 MSTORE PUSH1 0x40 DUP1 DUP4 KECCAK256 DUP2 MLOAD PUSH2 0x400 DUP2 ADD SWAP1 SWAP3 MSTORE DUP1 SLOAD SWAP1 SWAP5 AND DUP2 MSTORE PUSH1 0x1 DUP5 ADD DUP1 SLOAD SWAP4 SWAP5 DUP6 SWAP5 SWAP3 SWAP4 SWAP1 SWAP3 SWAP1 DUP5 ADD SWAP2 SWAP1 PUSH2 0x3BE2 SWAP1 PUSH2 0x55DC JUMP JUMPDEST DUP1 PUSH1 0x1F ADD PUSH1 0x20 DUP1 SWAP2 DIV MUL PUSH1 0x20 ADD PUSH1 0x40 MLOAD SWAP1 DUP2 ADD PUSH1 0x40 MSTORE DUP1 SWAP3 SWAP2 SWAP1 DUP2 DUP2 MSTORE PUSH1 0x20 ADD DUP3 DUP1 SLOAD PUSH2 0x3C0E SWAP1 PUSH2 0x55DC JUMP JUMPDEST DUP1 ISZERO PUSH2 0x3C5B JUMPI DUP1 PUSH1 0x1F LT PUSH2 0x3C30 JUMPI PUSH2 0x100 DUP1 DUP4 SLOAD DIV MUL DUP4 MSTORE SWAP2 PUSH1 0x20 ADD SWAP2 PUSH2 0x3C5B JUMP JUMPDEST DUP3 ADD SWAP2 SWAP1 PUSH1 0x0 MSTORE PUSH1 0x20 PUSH1 0x0 KECCAK256 SWAP1 JUMPDEST DUP2 SLOAD DUP2 MSTORE SWAP1 PUSH1 0x1 ADD SWAP1 PUSH1 0x20 ADD DUP1 DUP4 GT PUSH2 0x3C3E JUMPI DUP3 SWAP1 SUB PUSH1 0x1F AND DUP3 ADD SWAP2 JUMPDEST POP POP POP SWAP2 DUP4 MSTORE POP POP PUSH1 0x2 DUP3 ADD SLOAD PUSH1 0xFF DUP2 AND ISZERO ISZERO PUSH1 0x20 DUP1 DUP5 ADD SWAP2 SWAP1 SWAP2 MSTORE PUSH2 0x100 SWAP1 SWAP2 DIV PUSH1 0x1 PUSH1 0x1 PUSH1 0xA0 SHL SUB AND PUSH1 0x40 DUP1 DUP5 ADD SWAP2 SWAP1 SWAP2 MSTORE PUSH1 0x3 DUP5 ADD SLOAD PUSH1 0x60 DUP5 ADD MSTORE PUSH1 0x4 DUP5 ADD SLOAD PUSH1 0x80 DUP5 ADD MSTORE PUSH1 0x5 DUP5 ADD SLOAD PUSH4 0xFFFFFFFF AND PUSH1 0xA0 DUP5 ADD MSTORE PUSH1 0x6 DUP5 ADD DUP1 SLOAD DUP3 MLOAD DUP2 DUP6 MUL DUP2 ADD DUP6 ADD SWAP1 SWAP4 MSTORE DUP1 DUP4 MSTORE PUSH1 0xC0 SWAP1 SWAP5 ADD SWAP4 SWAP2 SWAP3 SWAP1 SWAP2 SWAP1 DUP4 ADD DUP3 DUP3 DUP1 ISZERO PUSH2 0x3D2E JUMPI PUSH1 0x20 MUL DUP3 ADD SWAP2 SWAP1 PUSH1 0x0 MSTORE PUSH1 0x20 PUSH1 0x0 KECCAK256 SWAP1 PUSH1 0x0 SWAP1 JUMPDEST DUP3 DUP3 SWAP1 SLOAD SWAP1 PUSH2 0x100 EXP SWAP1 DIV PUSH4 0xFFFFFFFF AND PUSH4 0xFFFFFFFF AND DUP2 MSTORE PUSH1 0x20 ADD SWAP1 PUSH1 0x4 ADD SWAP1 PUSH1 0x20 DUP3 PUSH1 0x3 ADD DIV SWAP3 DUP4 ADD SWAP3 PUSH1 0x1 SUB DUP3 MUL SWAP2 POP DUP1 DUP5 GT PUSH2 0x3CF1 JUMPI SWAP1 POP JUMPDEST POP POP POP POP POP DUP2 MSTORE PUSH1 0x20 ADD PUSH1 0x7 DUP3 ADD DUP1 SLOAD DUP1 PUSH1 0x20 MUL PUSH1 0x20 ADD PUSH1 0x40 MLOAD SWAP1 DUP2 ADD PUSH1 0x40 MSTORE DUP1 SWAP3 SWAP2 SWAP1 DUP2 DUP2 MSTORE PUSH1 0x20 ADD DUP3 DUP1 SLOAD DUP1 ISZERO PUSH2 0x3DB2 JUMPI PUSH1 0x20 MUL DUP3 ADD SWAP2 SWAP1 PUSH1 0x0 MSTORE PUSH1 0x20 PUSH1 0x0 KECCAK256 SWAP1 PUSH1 0x0 SWAP1 JUMPDEST DUP3 DUP3 SWAP1 SLOAD SWAP1 PUSH2 0x100 EXP SWAP1 DIV PUSH4 0xFFFFFFFF AND PUSH4 0xFFFFFFFF AND DUP2 MSTORE PUSH1 0x20 ADD SWAP1 PUSH1 0x4 ADD SWAP1 PUSH1 0x20 DUP3 PUSH1 0x3 ADD DIV SWAP3 DUP4 ADD SWAP3 PUSH1 0x1 SUB DUP3 MUL SWAP2 POP DUP1 DUP5 GT PUSH2 0x3D75 JUMPI SWAP1 POP JUMPDEST POP POP POP POP POP DUP2 MSTORE PUSH1 0x20 ADD PUSH1 0x8 DUP3 ADD DUP1 SLOAD DUP1 PUSH1 0x20 MUL PUSH1 0x20 ADD PUSH1 0x40 MLOAD SWAP1 DUP2 ADD PUSH1 0x40 MSTORE DUP1 SWAP3 SWAP2 SWAP1 DUP2 DUP2 MSTORE PUSH1 0x20 ADD DUP3 DUP1 SLOAD DUP1 ISZERO PUSH2 0x3E36 JUMPI PUSH1 0x20 MUL DUP3 ADD SWAP2 SWAP1 PUSH1 0x0 MSTORE PUSH1 0x20 PUSH1 0x0 KECCAK256 SWAP1 PUSH1 0x0 SWAP1 JUMPDEST DUP3 DUP3 SWAP1 SLOAD SWAP1 PUSH2 0x100 EXP SWAP1 DIV PUSH4 0xFFFFFFFF AND PUSH4 0xFFFFFFFF AND DUP2 MSTORE PUSH1 0x20 ADD SWAP1 PUSH1 0x4 ADD SWAP1 PUSH1 0x20 DUP3 PUSH1 0x3 ADD DIV SWAP3 DUP4 ADD SWAP3 PUSH1 0x1 SUB DUP3 MUL SWAP2 POP DUP1 DUP5 GT PUSH2 0x3DF9 JUMPI SWAP1 POP JUMPDEST POP POP POP POP POP DUP2 MSTORE PUSH1 0x20 ADD PUSH1 0x9 DUP3 ADD SLOAD DUP2 MSTORE PUSH1 0x20 ADD PUSH1 0xA DUP3 ADD SLOAD DUP2 MSTORE PUSH1 0x20 ADD PUSH1 0xB DUP3 ADD SLOAD DUP2 MSTORE PUSH1 0x20 ADD PUSH1 0xC DUP3 ADD SLOAD DUP2 MSTORE PUSH1 0x20 ADD PUSH1 0xD DUP3 ADD SLOAD DUP2 MSTORE PUSH1 0x20 ADD PUSH1 0xE DUP3 ADD SLOAD DUP2 MSTORE PUSH1 0x20 ADD PUSH1 0xF DUP3 ADD SLOAD DUP2 MSTORE PUSH1 0x20 ADD PUSH1 0x10 DUP3 ADD SLOAD DUP2 MSTORE PUSH1 0x20 ADD PUSH1 0x11 DUP3 ADD PUSH1 0x0 SWAP1 SLOAD SWAP1 PUSH2 0x100 EXP SWAP1 DIV PUSH1 0xFF AND PUSH1 0xFF AND PUSH1 0xFF AND DUP2 MSTORE PUSH1 0x20 ADD PUSH1 0x12 DUP3 ADD SLOAD DUP2 MSTORE PUSH1 0x20 ADD PUSH1 0x13 DUP3 ADD SLOAD DUP2 MSTORE PUSH1 0x20 ADD PUSH1 0x14 DUP3 ADD SLOAD DUP2 MSTORE PUSH1 0x20 ADD PUSH1 0x15 DUP3 ADD SLOAD DUP2 MSTORE PUSH1 0x20 ADD PUSH1 0x16 DUP3 ADD SLOAD DUP2 MSTORE PUSH1 0x20 ADD PUSH1 0x17 DUP3 ADD SLOAD DUP2 MSTORE PUSH1 0x20 ADD PUSH1 0x18 DUP3 ADD SLOAD DUP2 MSTORE PUSH1 0x20 ADD PUSH1 0x19 DUP3 ADD SLOAD DUP2 MSTORE PUSH1 0x20 ADD PUSH1 0x1A DUP3 ADD SLOAD DUP2 MSTORE PUSH1 0x20 ADD PUSH1 0x1B DUP3 ADD DUP1 SLOAD DUP1 PUSH1 0x20 MUL PUSH1 0x20 ADD PUSH1 0x40 MLOAD SWAP1 DUP2 ADD PUSH1 0x40 MSTORE DUP1 SWAP3 SWAP2 SWAP1 DUP2 DUP2 MSTORE PUSH1 0x20 ADD DUP3 DUP1 SLOAD DUP1 ISZERO PUSH2 0x3F81 JUMPI PUSH1 0x20 MUL DUP3 ADD SWAP2 SWAP1 PUSH1 0x0 MSTORE PUSH1 0x20 PUSH1 0x0 KECCAK256 SWAP1 PUSH1 0x0 SWAP1 JUMPDEST DUP3 DUP3 SWAP1 SLOAD SWAP1 PUSH2 0x100 EXP SWAP1 DIV PUSH4 0xFFFFFFFF AND PUSH4 0xFFFFFFFF AND DUP2 MSTORE PUSH1 0x20 ADD SWAP1 PUSH1 0x4 ADD SWAP1 PUSH1 0x20 DUP3 PUSH1 0x3 ADD DIV SWAP3 DUP4 ADD SWAP3 PUSH1 0x1 SUB DUP3 MUL SWAP2 POP DUP1 DUP5 GT PUSH2 0x3F44 JUMPI SWAP1 POP JUMPDEST POP POP POP SWAP2 DUP4 MSTORE POP POP PUSH1 0x1C DUP3 ADD SLOAD PUSH1 0x20 DUP3 ADD MSTORE PUSH1 0x1D DUP3 ADD SLOAD PUSH1 0x40 DUP3 ADD MSTORE PUSH1 0x1E SWAP1 SWAP2 ADD SLOAD PUSH1 0x60 SWAP1 SWAP2 ADD MSTORE PUSH2 0x380 DUP2 ADD MLOAD DUP1 MLOAD PUSH2 0x2C0 DUP4 ADD MLOAD SWAP3 SWAP4 POP SWAP1 SWAP2 PUSH2 0x3FC7 SWAP1 PUSH1 0x2 PUSH2 0x5616 JUMP JUMPDEST DUP4 PUSH2 0x2E0 ADD MLOAD LT DUP1 ISZERO PUSH2 0x3FDA JUMPI POP PUSH1 0x0 DUP2 GT JUMPDEST ISZERO PUSH2 0x40CF JUMPI PUSH1 0x0 JUMPDEST DUP2 DUP2 PUSH2 0xFFFF AND LT ISZERO PUSH2 0x40C9 JUMPI PUSH1 0x0 PUSH1 0xDC PUSH1 0x0 DUP6 DUP5 PUSH2 0xFFFF AND DUP2 MLOAD DUP2 LT PUSH2 0x400A JUMPI PUSH2 0x400A PUSH2 0x5498 JUMP JUMPDEST PUSH1 0x20 MUL PUSH1 0x20 ADD ADD MLOAD PUSH4 0xFFFFFFFF AND PUSH4 0xFFFFFFFF AND DUP2 MSTORE PUSH1 0x20 ADD SWAP1 DUP2 MSTORE PUSH1 0x20 ADD PUSH1 0x0 KECCAK256 SWAP1 POP DUP1 PUSH1 0x0 ADD PUSH1 0x4 SWAP1 SLOAD SWAP1 PUSH2 0x100 EXP SWAP1 DIV PUSH1 0xFF AND ISZERO PUSH2 0x40B6 JUMPI PUSH1 0xCB SLOAD PUSH1 0xD1 SLOAD PUSH1 0x1 DUP4 ADD SLOAD PUSH1 0x0 SWAP3 PUSH2 0xFFFF SWAP1 DUP2 AND SWAP3 PUSH2 0x406F SWAP3 PUSH1 0x1 PUSH1 0x60 SHL SWAP1 SWAP2 DIV SWAP1 SWAP2 AND SWAP1 PUSH2 0x5616 JUMP JUMPDEST PUSH2 0x4079 SWAP2 SWAP1 PUSH2 0x56E5 JUMP JUMPDEST SWAP1 POP PUSH1 0x0 DUP3 PUSH1 0x3 ADD SLOAD TIMESTAMP PUSH2 0x408D SWAP2 SWAP1 PUSH2 0x54C4 JUMP JUMPDEST SWAP1 POP PUSH3 0x15180 PUSH2 0x409D DUP3 DUP5 PUSH2 0x5616 JUMP JUMPDEST PUSH2 0x40A7 SWAP2 SWAP1 PUSH2 0x56E5 JUMP JUMPDEST PUSH2 0x40B1 SWAP1 DUP10 PUSH2 0x56A2 JUMP JUMPDEST SWAP8 POP POP POP JUMPDEST POP DUP1 PUSH2 0x40C1 DUP2 PUSH2 0x56B5 JUMP JUMPDEST SWAP2 POP POP PUSH2 0x3FE2 JUMP JUMPDEST POP PUSH2 0x40D4 JUMP JUMPDEST PUSH1 0x0 SWAP4 POP JUMPDEST POP POP POP SWAP2 SWAP1 POP JUMP JUMPDEST PUSH1 0x0 DUP1 PUSH8 0xDE0B6B3A7640000 PUSH1 0xC9 PUSH1 0x0 SWAP1 SLOAD SWAP1 PUSH2 0x100 EXP SWAP1 DIV PUSH1 0x1 PUSH1 0x1 PUSH1 0xA0 SHL SUB AND PUSH1 0x1 PUSH1 0x1 PUSH1 0xA0 SHL SUB AND PUSH4 0xE1AA6036 PUSH1 0x40 MLOAD DUP2 PUSH4 0xFFFFFFFF AND PUSH1 0xE0 SHL DUP2 MSTORE PUSH1 0x4 ADD PUSH1 0x20 PUSH1 0x40 MLOAD DUP1 DUP4 SUB DUP2 DUP7 GAS STATICCALL ISZERO DUP1 ISZERO PUSH2 0x413B JUMPI RETURNDATASIZE PUSH1 0x0 DUP1 RETURNDATACOPY RETURNDATASIZE PUSH1 0x0 REVERT JUMPDEST POP POP POP POP PUSH1 0x40 MLOAD RETURNDATASIZE PUSH1 0x1F NOT PUSH1 0x1F DUP3 ADD AND DUP3 ADD DUP1 PUSH1 0x40 MSTORE POP DUP2 ADD SWAP1 PUSH2 0x415F SWAP2 SWAP1 PUSH2 0x56CC JUMP JUMPDEST PUSH2 0x388D SWAP1 DUP6 PUSH2 0x5616 JUMP JUMPDEST PUSH4 0xFFFFFFFF DUP6 DUP2 AND PUSH1 0x0 DUP2 DUP2 MSTORE PUSH1 0xDB PUSH1 0x20 MSTORE PUSH1 0x40 SWAP1 KECCAK256 DUP1 SLOAD PUSH4 0xFFFFFFFF NOT SWAP1 DUP2 AND SWAP1 SWAP3 OR DUP2 SSTORE PUSH1 0x2 DUP2 ADD DUP1 SLOAD PUSH1 0x1 PUSH1 0x1 PUSH1 0xA8 SHL SUB NOT AND PUSH2 0x100 PUSH1 0x1 PUSH1 0x1 PUSH1 0xA0 SHL SUB DUP13 AND MUL OR PUSH1 0x1 OR SWAP1 SSTORE PUSH1 0x3 DUP1 DUP3 ADD DUP7 SWAP1 SSTORE PUSH1 0x5 DUP3 ADD DUP1 SLOAD SWAP1 SWAP4 AND SWAP4 DUP9 AND SWAP4 SWAP1 SWAP4 OR SWAP1 SWAP2 SSTORE SWAP1 PUSH2 0x41DA SWAP1 DUP6 SWAP1 PUSH2 0x5616 JUMP JUMPDEST DUP2 PUSH1 0x17 ADD PUSH1 0x0 DUP3 DUP3 SLOAD PUSH2 0x41ED SWAP2 SWAP1 PUSH2 0x56A2 JUMP JUMPDEST SWAP3 POP POP DUP2 SWAP1 SSTORE POP DUP4 DUP2 PUSH1 0x9 ADD PUSH1 0x0 DUP3 DUP3 SLOAD PUSH2 0x4208 SWAP2 SWAP1 PUSH2 0x56A2 JUMP JUMPDEST SWAP3 POP POP DUP2 SWAP1 SSTORE POP DUP4 DUP2 PUSH1 0x15 ADD PUSH1 0x0 DUP3 DUP3 SLOAD PUSH2 0x4223 SWAP2 SWAP1 PUSH2 0x56A2 JUMP JUMPDEST SWAP1 SWAP2 SSTORE POP POP PUSH1 0x19 DUP2 ADD DUP4 SWAP1 SSTORE PUSH1 0x0 JUMPDEST DUP3 DUP2 PUSH1 0xFF AND LT ISZERO PUSH2 0x43B5 JUMPI PUSH1 0x5 DUP3 ADD SLOAD PUSH4 0xFFFFFFFF SWAP1 DUP2 AND PUSH1 0x0 DUP2 DUP2 MSTORE PUSH1 0xDB PUSH1 0x20 MSTORE PUSH1 0x40 DUP2 KECCAK256 DUP1 SLOAD SWAP3 SWAP4 SWAP1 SWAP3 AND SWAP1 SUB PUSH2 0x426C JUMPI POP POP PUSH2 0x43B5 JUMP JUMPDEST DUP3 PUSH1 0xFF AND PUSH1 0x0 SUB PUSH2 0x42D0 JUMPI DUP7 DUP2 PUSH1 0xB ADD PUSH1 0x0 DUP3 DUP3 SLOAD PUSH2 0x428B SWAP2 SWAP1 PUSH2 0x56A2 JUMP JUMPDEST SWAP1 SWAP2 SSTORE POP POP PUSH1 0x6 DUP2 ADD DUP1 SLOAD PUSH1 0x1 DUP2 ADD DUP3 SSTORE PUSH1 0x0 SWAP2 DUP3 MSTORE PUSH1 0x20 SWAP1 SWAP2 KECCAK256 PUSH1 0x8 DUP3 DIV ADD DUP1 SLOAD PUSH1 0x7 SWAP1 SWAP3 AND PUSH1 0x4 MUL PUSH2 0x100 EXP PUSH4 0xFFFFFFFF DUP2 DUP2 MUL NOT SWAP1 SWAP4 AND SWAP3 DUP13 AND MUL SWAP2 SWAP1 SWAP2 OR SWAP1 SSTORE JUMPDEST DUP7 DUP2 PUSH1 0xD ADD PUSH1 0x0 DUP3 DUP3 SLOAD PUSH2 0x42E4 SWAP2 SWAP1 PUSH2 0x56A2 JUMP JUMPDEST SWAP1 SWAP2 SSTORE POP POP PUSH1 0x7 DUP2 DUP2 ADD DUP1 SLOAD PUSH1 0x1 DUP2 ADD DUP3 SSTORE PUSH1 0x0 SWAP2 DUP3 MSTORE PUSH1 0x20 SWAP2 DUP3 SWAP1 KECCAK256 PUSH1 0x8 DUP3 DIV ADD DUP1 SLOAD SWAP2 SWAP1 SWAP4 AND PUSH1 0x4 MUL PUSH2 0x100 SWAP1 DUP2 EXP PUSH4 0xFFFFFFFF DUP2 DUP2 MUL NOT SWAP1 SWAP4 AND DUP15 DUP5 AND SWAP2 DUP3 MUL OR SWAP1 SWAP5 SSTORE PUSH1 0x2 DUP6 ADD SLOAD PUSH1 0x5 DUP10 ADD SLOAD PUSH1 0x40 MLOAD SWAP1 DUP5 AND DUP2 MSTORE SWAP3 DUP14 AND SWAP4 SWAP2 SWAP1 DIV PUSH1 0x1 PUSH1 0x1 PUSH1 0xA0 SHL SUB AND SWAP2 PUSH32 0xA7FAFC728EC30E34DC1E1276496BF3EB44CA7494679DA969455289E6A8F0F1F6 SWAP2 ADD PUSH1 0x40 MLOAD DUP1 SWAP2 SUB SWAP1 LOG4 PUSH1 0xD4 SLOAD PUSH2 0x100 SWAP1 DIV PUSH1 0xFF AND ISZERO PUSH2 0x4395 JUMPI PUSH2 0x4395 DUP2 DUP4 DUP10 DUP10 PUSH2 0x4511 JUMP JUMPDEST PUSH2 0x439F DUP8 DUP8 PUSH2 0x4BB5 JUMP JUMPDEST SWAP3 POP DUP2 SWAP1 POP PUSH2 0x43AD DUP2 PUSH2 0x5502 JUMP JUMPDEST SWAP2 POP POP PUSH2 0x4232 JUMP JUMPDEST POP PUSH1 0xD1 DUP1 SLOAD PUSH5 0x100000000 SWAP1 DIV PUSH4 0xFFFFFFFF AND SWAP1 PUSH1 0x4 PUSH2 0x43D4 DUP4 PUSH2 0x5521 JUMP JUMPDEST SWAP2 SWAP1 PUSH2 0x100 EXP DUP2 SLOAD DUP2 PUSH4 0xFFFFFFFF MUL NOT AND SWAP1 DUP4 PUSH4 0xFFFFFFFF AND MUL OR SWAP1 SSTORE POP POP POP POP POP POP POP POP POP JUMP JUMPDEST PUSH1 0x0 DUP2 PUSH1 0x17 ADD SLOAD DUP3 PUSH1 0x16 ADD SLOAD LT ISZERO PUSH2 0x4418 JUMPI DUP2 PUSH1 0x16 ADD SLOAD PUSH2 0x24DE JUMP JUMPDEST POP PUSH1 0x17 ADD SLOAD SWAP1 JUMP JUMPDEST PUSH1 0x1 PUSH1 0x1 PUSH1 0xA0 SHL SUB DUP2 AND EXTCODESIZE PUSH2 0x448D JUMPI PUSH1 0x40 MLOAD PUSH3 0x461BCD PUSH1 0xE5 SHL DUP2 MSTORE PUSH1 0x20 PUSH1 0x4 DUP3 ADD MSTORE PUSH1 0x2D PUSH1 0x24 DUP3 ADD MSTORE PUSH32 0x455243313936373A206E657720696D706C656D656E746174696F6E206973206E PUSH1 0x44 DUP3 ADD MSTORE PUSH13 0x1BDD08184818DBDB9D1C9858DD PUSH1 0x9A SHL PUSH1 0x64 DUP3 ADD MSTORE PUSH1 0x84 ADD PUSH2 0xD05 JUMP JUMPDEST PUSH1 0x0 DUP1 MLOAD PUSH1 0x20 PUSH2 0x5782 DUP4 CODECOPY DUP2 MLOAD SWAP2 MSTORE DUP1 SLOAD PUSH1 0x1 PUSH1 0x1 PUSH1 0xA0 SHL SUB NOT AND PUSH1 0x1 PUSH1 0x1 PUSH1 0xA0 SHL SUB SWAP3 SWAP1 SWAP3 AND SWAP2 SWAP1 SWAP2 OR SWAP1 SSTORE JUMP JUMPDEST PUSH2 0x44C5 DUP4 PUSH2 0x4BEF JUMP JUMPDEST PUSH1 0x0 DUP3 MLOAD GT DUP1 PUSH2 0x44D2 JUMPI POP DUP1 JUMPDEST ISZERO PUSH2 0xC3D JUMPI PUSH2 0xDEC DUP4 DUP4 PUSH2 0x4C2F JUMP JUMPDEST PUSH1 0x0 SLOAD PUSH2 0x100 SWAP1 DIV PUSH1 0xFF AND PUSH2 0x4508 JUMPI PUSH1 0x40 MLOAD PUSH3 0x461BCD PUSH1 0xE5 SHL DUP2 MSTORE PUSH1 0x4 ADD PUSH2 0xD05 SWAP1 PUSH2 0x5707 JUMP JUMPDEST PUSH2 0x126C CALLER PUSH2 0x3A0A JUMP JUMPDEST PUSH1 0x11 DUP5 ADD SLOAD PUSH1 0x40 DUP1 MLOAD PUSH2 0x400 DUP2 ADD SWAP1 SWAP2 MSTORE DUP6 SLOAD PUSH4 0xFFFFFFFF AND DUP2 MSTORE PUSH1 0x1 DUP7 ADD DUP1 SLOAD PUSH1 0xFF SWAP1 SWAP4 AND SWAP3 PUSH2 0x4919 SWAP3 SWAP2 DUP9 SWAP2 PUSH1 0x20 DUP5 ADD SWAP2 SWAP1 PUSH2 0x454E SWAP1 PUSH2 0x55DC JUMP JUMPDEST DUP1 PUSH1 0x1F ADD PUSH1 0x20 DUP1 SWAP2 DIV MUL PUSH1 0x20 ADD PUSH1 0x40 MLOAD SWAP1 DUP2 ADD PUSH1 0x40 MSTORE DUP1 SWAP3 SWAP2 SWAP1 DUP2 DUP2 MSTORE PUSH1 0x20 ADD DUP3 DUP1 SLOAD PUSH2 0x457A SWAP1 PUSH2 0x55DC JUMP JUMPDEST DUP1 ISZERO PUSH2 0x45C7 JUMPI DUP1 PUSH1 0x1F LT PUSH2 0x459C JUMPI PUSH2 0x100 DUP1 DUP4 SLOAD DIV MUL DUP4 MSTORE SWAP2 PUSH1 0x20 ADD SWAP2 PUSH2 0x45C7 JUMP JUMPDEST DUP3 ADD SWAP2 SWAP1 PUSH1 0x0 MSTORE PUSH1 0x20 PUSH1 0x0 KECCAK256 SWAP1 JUMPDEST DUP2 SLOAD DUP2 MSTORE SWAP1 PUSH1 0x1 ADD SWAP1 PUSH1 0x20 ADD DUP1 DUP4 GT PUSH2 0x45AA JUMPI DUP3 SWAP1 SUB PUSH1 0x1F AND DUP3 ADD SWAP2 JUMPDEST POP POP POP SWAP2 DUP4 MSTORE POP POP PUSH1 0x2 DUP3 ADD SLOAD PUSH1 0xFF DUP2 AND ISZERO ISZERO PUSH1 0x20 DUP1 DUP5 ADD SWAP2 SWAP1 SWAP2 MSTORE PUSH2 0x100 SWAP1 SWAP2 DIV PUSH1 0x1 PUSH1 0x1 PUSH1 0xA0 SHL SUB AND PUSH1 0x40 DUP1 DUP5 ADD SWAP2 SWAP1 SWAP2 MSTORE PUSH1 0x3 DUP5 ADD SLOAD PUSH1 0x60 DUP5 ADD MSTORE PUSH1 0x4 DUP5 ADD SLOAD PUSH1 0x80 DUP5 ADD MSTORE PUSH1 0x5 DUP5 ADD SLOAD PUSH4 0xFFFFFFFF AND PUSH1 0xA0 DUP5 ADD MSTORE PUSH1 0x6 DUP5 ADD DUP1 SLOAD DUP3 MLOAD DUP2 DUP6 MUL DUP2 ADD DUP6 ADD SWAP1 SWAP4 MSTORE DUP1 DUP4 MSTORE PUSH1 0xC0 SWAP1 SWAP5 ADD SWAP4 SWAP2 SWAP3 SWAP1 SWAP2 SWAP1 DUP4 ADD DUP3 DUP3 DUP1 ISZERO PUSH2 0x469A JUMPI PUSH1 0x20 MUL DUP3 ADD SWAP2 SWAP1 PUSH1 0x0 MSTORE PUSH1 0x20 PUSH1 0x0 KECCAK256 SWAP1 PUSH1 0x0 SWAP1 JUMPDEST DUP3 DUP3 SWAP1 SLOAD SWAP1 PUSH2 0x100 EXP SWAP1 DIV PUSH4 0xFFFFFFFF AND PUSH4 0xFFFFFFFF AND DUP2 MSTORE PUSH1 0x20 ADD SWAP1 PUSH1 0x4 ADD SWAP1 PUSH1 0x20 DUP3 PUSH1 0x3 ADD DIV SWAP3 DUP4 ADD SWAP3 PUSH1 0x1 SUB DUP3 MUL SWAP2 POP DUP1 DUP5 GT PUSH2 0x465D JUMPI SWAP1 POP JUMPDEST POP POP POP POP POP DUP2 MSTORE PUSH1 0x20 ADD PUSH1 0x7 DUP3 ADD DUP1 SLOAD DUP1 PUSH1 0x20 MUL PUSH1 0x20 ADD PUSH1 0x40 MLOAD SWAP1 DUP2 ADD PUSH1 0x40 MSTORE DUP1 SWAP3 SWAP2 SWAP1 DUP2 DUP2 MSTORE PUSH1 0x20 ADD DUP3 DUP1 SLOAD DUP1 ISZERO PUSH2 0x471E JUMPI PUSH1 0x20 MUL DUP3 ADD SWAP2 SWAP1 PUSH1 0x0 MSTORE PUSH1 0x20 PUSH1 0x0 KECCAK256 SWAP1 PUSH1 0x0 SWAP1 JUMPDEST DUP3 DUP3 SWAP1 SLOAD SWAP1 PUSH2 0x100 EXP SWAP1 DIV PUSH4 0xFFFFFFFF AND PUSH4 0xFFFFFFFF AND DUP2 MSTORE PUSH1 0x20 ADD SWAP1 PUSH1 0x4 ADD SWAP1 PUSH1 0x20 DUP3 PUSH1 0x3 ADD DIV SWAP3 DUP4 ADD SWAP3 PUSH1 0x1 SUB DUP3 MUL SWAP2 POP DUP1 DUP5 GT PUSH2 0x46E1 JUMPI SWAP1 POP JUMPDEST POP POP POP POP POP DUP2 MSTORE PUSH1 0x20 ADD PUSH1 0x8 DUP3 ADD DUP1 SLOAD DUP1 PUSH1 0x20 MUL PUSH1 0x20 ADD PUSH1 0x40 MLOAD SWAP1 DUP2 ADD PUSH1 0x40 MSTORE DUP1 SWAP3 SWAP2 SWAP1 DUP2 DUP2 MSTORE PUSH1 0x20 ADD DUP3 DUP1 SLOAD DUP1 ISZERO PUSH2 0x47A2 JUMPI PUSH1 0x20 MUL DUP3 ADD SWAP2 SWAP1 PUSH1 0x0 MSTORE PUSH1 0x20 PUSH1 0x0 KECCAK256 SWAP1 PUSH1 0x0 SWAP1 JUMPDEST DUP3 DUP3 SWAP1 SLOAD SWAP1 PUSH2 0x100 EXP SWAP1 DIV PUSH4 0xFFFFFFFF AND PUSH4 0xFFFFFFFF AND DUP2 MSTORE PUSH1 0x20 ADD SWAP1 PUSH1 0x4 ADD SWAP1 PUSH1 0x20 DUP3 PUSH1 0x3 ADD DIV SWAP3 DUP4 ADD SWAP3 PUSH1 0x1 SUB DUP3 MUL SWAP2 POP DUP1 DUP5 GT PUSH2 0x4765 JUMPI SWAP1 POP JUMPDEST POP POP POP POP POP DUP2 MSTORE PUSH1 0x20 ADD PUSH1 0x9 DUP3 ADD SLOAD DUP2 MSTORE PUSH1 0x20 ADD PUSH1 0xA DUP3 ADD SLOAD DUP2 MSTORE PUSH1 0x20 ADD PUSH1 0xB DUP3 ADD SLOAD DUP2 MSTORE PUSH1 0x20 ADD PUSH1 0xC DUP3 ADD SLOAD DUP2 MSTORE PUSH1 0x20 ADD PUSH1 0xD DUP3 ADD SLOAD DUP2 MSTORE PUSH1 0x20 ADD PUSH1 0xE DUP3 ADD SLOAD DUP2 MSTORE PUSH1 0x20 ADD PUSH1 0xF DUP3 ADD SLOAD DUP2 MSTORE PUSH1 0x20 ADD PUSH1 0x10 DUP3 ADD SLOAD DUP2 MSTORE PUSH1 0x20 ADD PUSH1 0x11 DUP3 ADD PUSH1 0x0 SWAP1 SLOAD SWAP1 PUSH2 0x100 EXP SWAP1 DIV PUSH1 0xFF AND PUSH1 0xFF AND PUSH1 0xFF AND DUP2 MSTORE PUSH1 0x20 ADD PUSH1 0x12 DUP3 ADD SLOAD DUP2 MSTORE PUSH1 0x20 ADD PUSH1 0x13 DUP3 ADD SLOAD DUP2 MSTORE PUSH1 0x20 ADD PUSH1 0x14 DUP3 ADD SLOAD DUP2 MSTORE PUSH1 0x20 ADD PUSH1 0x15 DUP3 ADD SLOAD DUP2 MSTORE PUSH1 0x20 ADD PUSH1 0x16 DUP3 ADD SLOAD DUP2 MSTORE PUSH1 0x20 ADD PUSH1 0x17 DUP3 ADD SLOAD DUP2 MSTORE PUSH1 0x20 ADD PUSH1 0x18 DUP3 ADD SLOAD DUP2 MSTORE PUSH1 0x20 ADD PUSH1 0x19 DUP3 ADD SLOAD DUP2 MSTORE PUSH1 0x20 ADD PUSH1 0x1A DUP3 ADD SLOAD DUP2 MSTORE PUSH1 0x20 ADD PUSH1 0x1B DUP3 ADD DUP1 SLOAD DUP1 PUSH1 0x20 MUL PUSH1 0x20 ADD PUSH1 0x40 MLOAD SWAP1 DUP2 ADD PUSH1 0x40 MSTORE DUP1 SWAP3 SWAP2 SWAP1 DUP2 DUP2 MSTORE PUSH1 0x20 ADD DUP3 DUP1 SLOAD DUP1 ISZERO PUSH2 0x48ED JUMPI PUSH1 0x20 MUL DUP3 ADD SWAP2 SWAP1 PUSH1 0x0 MSTORE PUSH1 0x20 PUSH1 0x0 KECCAK256 SWAP1 PUSH1 0x0 SWAP1 JUMPDEST DUP3 DUP3 SWAP1 SLOAD SWAP1 PUSH2 0x100 EXP SWAP1 DIV PUSH4 0xFFFFFFFF AND PUSH4 0xFFFFFFFF AND DUP2 MSTORE PUSH1 0x20 ADD SWAP1 PUSH1 0x4 ADD SWAP1 PUSH1 0x20 DUP3 PUSH1 0x3 ADD DIV SWAP3 DUP4 ADD SWAP3 PUSH1 0x1 SUB DUP3 MUL SWAP2 POP DUP1 DUP5 GT PUSH2 0x48B0 JUMPI SWAP1 POP JUMPDEST POP POP POP POP POP DUP2 MSTORE PUSH1 0x20 ADD PUSH1 0x1C DUP3 ADD SLOAD DUP2 MSTORE PUSH1 0x20 ADD PUSH1 0x1D DUP3 ADD SLOAD DUP2 MSTORE PUSH1 0x20 ADD PUSH1 0x1E DUP3 ADD SLOAD DUP2 MSTORE POP POP PUSH2 0x3A5C JUMP JUMPDEST PUSH1 0xFF AND GT ISZERO PUSH2 0xDEC JUMPI PUSH1 0x40 DUP1 MLOAD PUSH2 0x400 DUP2 ADD SWAP1 SWAP2 MSTORE DUP5 SLOAD PUSH4 0xFFFFFFFF AND DUP2 MSTORE PUSH1 0x1 DUP6 ADD DUP1 SLOAD PUSH2 0x4954 SWAP3 SWAP2 DUP8 SWAP2 PUSH1 0x20 DUP5 ADD SWAP2 SWAP1 PUSH2 0x454E SWAP1 PUSH2 0x55DC JUMP JUMPDEST PUSH1 0x11 DUP6 ADD DUP1 SLOAD PUSH1 0xFF NOT AND PUSH1 0xFF SWAP3 DUP4 AND SWAP1 DUP2 OR DUP3 SSTORE PUSH1 0x0 SWAP1 DUP2 MSTORE PUSH1 0xDD PUSH1 0x20 SWAP1 DUP2 MSTORE PUSH1 0x40 DUP1 DUP4 KECCAK256 PUSH1 0x9 SWAP1 DUP2 ADD DUP1 SLOAD PUSH1 0x1 DUP2 DUP2 ADD DUP4 SSTORE SWAP2 DUP7 MSTORE SWAP4 DUP6 KECCAK256 PUSH1 0x8 DUP6 DIV ADD DUP1 SLOAD PUSH1 0x7 SWAP1 SWAP6 AND PUSH1 0x4 MUL PUSH2 0x100 EXP PUSH4 0xFFFFFFFF DUP2 DUP2 MUL NOT SWAP1 SWAP7 AND SWAP6 DUP13 AND MUL SWAP5 SWAP1 SWAP5 OR SWAP1 SWAP4 SSTORE SWAP4 SLOAD SWAP1 SWAP5 AND DUP3 MSTORE SWAP3 SWAP1 KECCAK256 ADD SLOAD PUSH2 0x49CD SWAP2 SWAP1 PUSH2 0x54C4 JUMP JUMPDEST PUSH1 0x12 DUP6 ADD DUP2 SWAP1 SSTORE PUSH1 0x11 DUP6 ADD SLOAD PUSH1 0x40 DUP1 MLOAD PUSH4 0xFFFFFFFF DUP8 AND DUP2 MSTORE PUSH1 0x20 DUP2 ADD SWAP4 SWAP1 SWAP4 MSTORE PUSH1 0xFF SWAP1 SWAP2 AND DUP3 DUP3 ADD MSTORE MLOAD PUSH32 0xB0D3A9C683344E744A1AE3DB383F75A8A01851282C5FE97D6159C1392A2E2A0A SWAP2 DUP2 SWAP1 SUB PUSH1 0x60 ADD SWAP1 LOG1 PUSH1 0x40 DUP1 MLOAD PUSH2 0x400 DUP2 ADD SWAP1 SWAP2 MSTORE DUP5 SLOAD PUSH4 0xFFFFFFFF AND DUP2 MSTORE PUSH1 0x1 DUP6 ADD DUP1 SLOAD PUSH1 0xDD SWAP3 PUSH1 0x0 SWAP3 PUSH2 0x4A58 SWAP3 DUP10 SWAP2 PUSH1 0x20 DUP5 ADD SWAP2 PUSH2 0x454E SWAP1 PUSH2 0x55DC JUMP JUMPDEST PUSH1 0xFF SWAP1 DUP2 AND DUP3 MSTORE PUSH1 0x20 DUP3 ADD SWAP3 SWAP1 SWAP3 MSTORE PUSH1 0x40 ADD PUSH1 0x0 KECCAK256 PUSH1 0x8 ADD SLOAD PUSH2 0x100 SWAP1 DIV AND ISZERO PUSH2 0x4B1C JUMPI PUSH1 0x40 DUP1 MLOAD PUSH2 0x400 DUP2 ADD SWAP1 SWAP2 MSTORE DUP5 SLOAD PUSH4 0xFFFFFFFF AND DUP2 MSTORE PUSH1 0x1 DUP6 ADD DUP1 SLOAD PUSH1 0xDD SWAP3 PUSH1 0x0 SWAP3 PUSH2 0x4AB2 SWAP3 DUP10 SWAP2 PUSH1 0x20 DUP5 ADD SWAP2 PUSH2 0x454E SWAP1 PUSH2 0x55DC JUMP JUMPDEST PUSH1 0xFF AND PUSH1 0xFF AND DUP2 MSTORE PUSH1 0x20 ADD SWAP1 DUP2 MSTORE PUSH1 0x20 ADD PUSH1 0x0 KECCAK256 PUSH1 0x7 ADD SLOAD DUP5 PUSH1 0x10 ADD SLOAD PUSH2 0x4AD9 SWAP2 SWAP1 PUSH2 0x56A2 JUMP JUMPDEST DUP2 GT ISZERO PUSH2 0x4B08 JUMPI DUP1 DUP5 PUSH1 0x10 ADD DUP2 SWAP1 SSTORE POP DUP2 DUP5 PUSH1 0xF ADD PUSH1 0x0 DUP3 DUP3 SLOAD PUSH2 0x4AFD SWAP2 SWAP1 PUSH2 0x56A2 JUMP JUMPDEST SWAP1 SWAP2 SSTORE POP PUSH2 0xDEC SWAP1 POP JUMP JUMPDEST DUP2 DUP5 PUSH1 0xF ADD PUSH1 0x0 DUP3 DUP3 SLOAD PUSH2 0x4AFD SWAP2 SWAP1 PUSH2 0x56A2 JUMP JUMPDEST PUSH1 0xD4 SLOAD PUSH2 0x100 SWAP1 DIV PUSH1 0xFF AND ISZERO PUSH2 0xDEC JUMPI PUSH1 0x11 DUP5 ADD SLOAD PUSH1 0xFF AND PUSH1 0x0 SWAP1 DUP2 MSTORE PUSH1 0xDD PUSH1 0x20 MSTORE PUSH1 0x40 SWAP1 KECCAK256 PUSH1 0x5 ADD SLOAD PUSH2 0x4B51 SWAP1 DUP6 SWAP1 PUSH2 0x4D23 JUMP JUMPDEST PUSH1 0x11 DUP5 ADD SLOAD PUSH1 0xFF SWAP1 DUP2 AND PUSH1 0x0 SWAP1 DUP2 MSTORE PUSH1 0xDD PUSH1 0x20 SWAP1 DUP2 MSTORE PUSH1 0x40 SWAP2 DUP3 SWAP1 KECCAK256 PUSH1 0x5 DUP2 ADD SLOAD SWAP1 SLOAD SWAP3 MLOAD SWAP3 SWAP1 SWAP4 AND DUP3 MSTORE PUSH4 0xFFFFFFFF DUP7 AND SWAP2 PUSH32 0x94B6D3D19CC40938E685EF6A1F6476B53EF65295AB094A044E74405A8D0BD05B SWAP2 ADD PUSH1 0x40 MLOAD DUP1 SWAP2 SUB SWAP1 LOG3 POP POP POP POP JUMP JUMPDEST PUSH1 0xD7 SLOAD PUSH1 0xD6 SLOAD PUSH2 0x4BC5 SWAP2 SWAP1 PUSH2 0x56A2 JUMP JUMPDEST DUP2 GT ISZERO PUSH2 0x4BD4 JUMPI PUSH1 0xD6 SSTORE PUSH1 0xD5 SSTORE JUMP JUMPDEST DUP2 PUSH1 0xD5 PUSH1 0x0 DUP3 DUP3 SLOAD PUSH2 0x4BE6 SWAP2 SWAP1 PUSH2 0x56A2 JUMP JUMPDEST SWAP1 SWAP2 SSTORE POP POP POP POP JUMP JUMPDEST PUSH2 0x4BF8 DUP2 PUSH2 0x4420 JUMP JUMPDEST PUSH1 0x40 MLOAD PUSH1 0x1 PUSH1 0x1 PUSH1 0xA0 SHL SUB DUP3 AND SWAP1 PUSH32 0xBC7CD75A20EE27FD9ADEBAB32041F755214DBC6BFFA90CC0225B39DA2E5C2D3B SWAP1 PUSH1 0x0 SWAP1 LOG2 POP JUMP JUMPDEST PUSH1 0x60 PUSH1 0x1 PUSH1 0x1 PUSH1 0xA0 SHL SUB DUP4 AND EXTCODESIZE PUSH2 0x4C97 JUMPI PUSH1 0x40 MLOAD PUSH3 0x461BCD PUSH1 0xE5 SHL DUP2 MSTORE PUSH1 0x20 PUSH1 0x4 DUP3 ADD MSTORE PUSH1 0x26 PUSH1 0x24 DUP3 ADD MSTORE PUSH32 0x416464726573733A2064656C65676174652063616C6C20746F206E6F6E2D636F PUSH1 0x44 DUP3 ADD MSTORE PUSH6 0x1B9D1C9858DD PUSH1 0xD2 SHL PUSH1 0x64 DUP3 ADD MSTORE PUSH1 0x84 ADD PUSH2 0xD05 JUMP JUMPDEST PUSH1 0x0 DUP1 DUP5 PUSH1 0x1 PUSH1 0x1 PUSH1 0xA0 SHL SUB AND DUP5 PUSH1 0x40 MLOAD PUSH2 0x4CB2 SWAP2 SWAP1 PUSH2 0x5752 JUMP JUMPDEST PUSH1 0x0 PUSH1 0x40 MLOAD DUP1 DUP4 SUB DUP2 DUP6 GAS DELEGATECALL SWAP2 POP POP RETURNDATASIZE DUP1 PUSH1 0x0 DUP2 EQ PUSH2 0x4CED JUMPI PUSH1 0x40 MLOAD SWAP2 POP PUSH1 0x1F NOT PUSH1 0x3F RETURNDATASIZE ADD AND DUP3 ADD PUSH1 0x40 MSTORE RETURNDATASIZE DUP3 MSTORE RETURNDATASIZE PUSH1 0x0 PUSH1 0x20 DUP5 ADD RETURNDATACOPY PUSH2 0x4CF2 JUMP JUMPDEST PUSH1 0x60 SWAP2 POP JUMPDEST POP SWAP2 POP SWAP2 POP PUSH2 0x4D1A DUP3 DUP3 PUSH1 0x40 MLOAD DUP1 PUSH1 0x60 ADD PUSH1 0x40 MSTORE DUP1 PUSH1 0x27 DUP2 MSTORE PUSH1 0x20 ADD PUSH2 0x57A2 PUSH1 0x27 SWAP2 CODECOPY PUSH2 0x4D5B JUMP JUMPDEST SWAP6 SWAP5 POP POP POP POP POP JUMP JUMPDEST DUP2 PUSH1 0x17 ADD SLOAD DUP2 DUP4 PUSH1 0x16 ADD SLOAD PUSH2 0x4D38 SWAP2 SWAP1 PUSH2 0x56A2 JUMP JUMPDEST LT PUSH2 0x4D4B JUMPI PUSH1 0x17 DUP3 ADD SLOAD PUSH1 0x16 DUP4 ADD SSTORE POP POP JUMP JUMPDEST DUP1 DUP3 PUSH1 0x16 ADD SLOAD PUSH2 0xC3D SWAP2 SWAP1 PUSH2 0x56A2 JUMP JUMPDEST PUSH1 0x60 DUP4 ISZERO PUSH2 0x4D6A JUMPI POP DUP2 PUSH2 0x24CC JUMP JUMPDEST PUSH2 0x24CC DUP4 DUP4 DUP2 MLOAD ISZERO PUSH2 0x4D7F JUMPI DUP2 MLOAD DUP1 DUP4 PUSH1 0x20 ADD REVERT JUMPDEST DUP1 PUSH1 0x40 MLOAD PUSH3 0x461BCD PUSH1 0xE5 SHL DUP2 MSTORE PUSH1 0x4 ADD PUSH2 0xD05 SWAP2 SWAP1 PUSH2 0x576E JUMP JUMPDEST DUP3 DUP1 SLOAD DUP3 DUP3 SSTORE SWAP1 PUSH1 0x0 MSTORE PUSH1 0x20 PUSH1 0x0 KECCAK256 SWAP1 PUSH1 0xF ADD PUSH1 0x10 SWAP1 DIV DUP2 ADD SWAP3 DUP3 ISZERO PUSH2 0x4E31 JUMPI SWAP2 PUSH1 0x20 MUL DUP3 ADD PUSH1 0x0 JUMPDEST DUP4 DUP3 GT ISZERO PUSH2 0x4E01 JUMPI DUP4 MLOAD DUP4 DUP3 PUSH2 0x100 EXP DUP2 SLOAD DUP2 PUSH2 0xFFFF MUL NOT AND SWAP1 DUP4 PUSH1 0xFF AND MUL OR SWAP1 SSTORE POP SWAP3 PUSH1 0x20 ADD SWAP3 PUSH1 0x2 ADD PUSH1 0x20 DUP2 PUSH1 0x1 ADD DIV SWAP3 DUP4 ADD SWAP3 PUSH1 0x1 SUB MUL PUSH2 0x4DC2 JUMP JUMPDEST DUP1 ISZERO PUSH2 0x4E2F JUMPI DUP3 DUP2 PUSH2 0x100 EXP DUP2 SLOAD SWAP1 PUSH2 0xFFFF MUL NOT AND SWAP1 SSTORE PUSH1 0x2 ADD PUSH1 0x20 DUP2 PUSH1 0x1 ADD DIV SWAP3 DUP4 ADD SWAP3 PUSH1 0x1 SUB MUL PUSH2 0x4E01 JUMP JUMPDEST POP JUMPDEST POP PUSH2 0x4E3D SWAP3 SWAP2 POP PUSH2 0x4E41 JUMP JUMPDEST POP SWAP1 JUMP JUMPDEST JUMPDEST DUP1 DUP3 GT ISZERO PUSH2 0x4E3D JUMPI PUSH1 0x0 DUP2 SSTORE PUSH1 0x1 ADD PUSH2 0x4E42 JUMP JUMPDEST DUP1 CALLDATALOAD PUSH1 0x1 PUSH1 0x1 PUSH1 0xA0 SHL SUB DUP2 AND DUP2 EQ PUSH2 0x4E6D JUMPI PUSH1 0x0 DUP1 REVERT JUMPDEST SWAP2 SWAP1 POP JUMP JUMPDEST PUSH1 0x0 DUP1 PUSH1 0x40 DUP4 DUP6 SUB SLT ISZERO PUSH2 0x4E85 JUMPI PUSH1 0x0 DUP1 REVERT JUMPDEST PUSH2 0x4E8E DUP4 PUSH2 0x4E56 JUMP JUMPDEST SWAP5 PUSH1 0x20 SWAP4 SWAP1 SWAP4 ADD CALLDATALOAD SWAP4 POP POP POP JUMP JUMPDEST PUSH1 0x0 PUSH1 0x20 DUP3 DUP5 SUB SLT ISZERO PUSH2 0x4EAE JUMPI PUSH1 0x0 DUP1 REVERT JUMPDEST PUSH2 0x24CC DUP3 PUSH2 0x4E56 JUMP JUMPDEST PUSH1 0x0 PUSH1 0x20 DUP3 DUP5 SUB SLT ISZERO PUSH2 0x4EC9 JUMPI PUSH1 0x0 DUP1 REVERT JUMPDEST POP CALLDATALOAD SWAP2 SWAP1 POP JUMP JUMPDEST DUP1 CALLDATALOAD PUSH4 0xFFFFFFFF DUP2 AND DUP2 EQ PUSH2 0x4E6D JUMPI PUSH1 0x0 DUP1 REVERT JUMPDEST PUSH1 0x0 DUP1 PUSH1 0x40 DUP4 DUP6 SUB SLT ISZERO PUSH2 0x4EF7 JUMPI PUSH1 0x0 DUP1 REVERT JUMPDEST PUSH2 0x4F00 DUP4 PUSH2 0x4ED0 JUMP JUMPDEST SWAP2 POP PUSH2 0x4F0E PUSH1 0x20 DUP5 ADD PUSH2 0x4ED0 JUMP JUMPDEST SWAP1 POP SWAP3 POP SWAP3 SWAP1 POP JUMP JUMPDEST PUSH1 0x0 PUSH1 0x20 DUP3 DUP5 SUB SLT ISZERO PUSH2 0x4F29 JUMPI PUSH1 0x0 DUP1 REVERT JUMPDEST PUSH2 0x24CC DUP3 PUSH2 0x4ED0 JUMP JUMPDEST PUSH4 0x4E487B71 PUSH1 0xE0 SHL PUSH1 0x0 MSTORE PUSH1 0x41 PUSH1 0x4 MSTORE PUSH1 0x24 PUSH1 0x0 REVERT JUMPDEST PUSH1 0x40 MLOAD PUSH1 0x1F DUP3 ADD PUSH1 0x1F NOT AND DUP2 ADD PUSH8 0xFFFFFFFFFFFFFFFF DUP2 GT DUP3 DUP3 LT OR ISZERO PUSH2 0x4F71 JUMPI PUSH2 0x4F71 PUSH2 0x4F32 JUMP JUMPDEST PUSH1 0x40 MSTORE SWAP2 SWAP1 POP JUMP JUMPDEST PUSH1 0x0 DUP1 PUSH1 0x40 DUP4 DUP6 SUB SLT ISZERO PUSH2 0x4F8C JUMPI PUSH1 0x0 DUP1 REVERT JUMPDEST PUSH2 0x4F95 DUP4 PUSH2 0x4E56 JUMP JUMPDEST SWAP2 POP PUSH1 0x20 DUP1 DUP5 ADD CALLDATALOAD PUSH8 0xFFFFFFFFFFFFFFFF DUP1 DUP3 GT ISZERO PUSH2 0x4FB3 JUMPI PUSH1 0x0 DUP1 REVERT JUMPDEST DUP2 DUP7 ADD SWAP2 POP DUP7 PUSH1 0x1F DUP4 ADD SLT PUSH2 0x4FC7 JUMPI PUSH1 0x0 DUP1 REVERT JUMPDEST DUP2 CALLDATALOAD DUP2 DUP2 GT ISZERO PUSH2 0x4FD9 JUMPI PUSH2 0x4FD9 PUSH2 0x4F32 JUMP JUMPDEST PUSH2 0x4FEB PUSH1 0x1F DUP3 ADD PUSH1 0x1F NOT AND DUP6 ADD PUSH2 0x4F48 JUMP JUMPDEST SWAP2 POP DUP1 DUP3 MSTORE DUP8 DUP5 DUP3 DUP6 ADD ADD GT ISZERO PUSH2 0x5001 JUMPI PUSH1 0x0 DUP1 REVERT JUMPDEST DUP1 DUP5 DUP5 ADD DUP6 DUP5 ADD CALLDATACOPY PUSH1 0x0 DUP5 DUP3 DUP5 ADD ADD MSTORE POP DUP1 SWAP4 POP POP POP POP SWAP3 POP SWAP3 SWAP1 POP JUMP JUMPDEST PUSH1 0x0 DUP3 PUSH1 0x1F DUP4 ADD SLT PUSH2 0x5030 JUMPI PUSH1 0x0 DUP1 REVERT JUMPDEST DUP2 CALLDATALOAD PUSH1 0x20 PUSH8 0xFFFFFFFFFFFFFFFF DUP3 GT ISZERO PUSH2 0x504C JUMPI PUSH2 0x504C PUSH2 0x4F32 JUMP JUMPDEST DUP2 PUSH1 0x5 SHL PUSH2 0x505B DUP3 DUP3 ADD PUSH2 0x4F48 JUMP JUMPDEST SWAP3 DUP4 MSTORE DUP5 DUP2 ADD DUP3 ADD SWAP3 DUP3 DUP2 ADD SWAP1 DUP8 DUP6 GT ISZERO PUSH2 0x5075 JUMPI PUSH1 0x0 DUP1 REVERT JUMPDEST DUP4 DUP8 ADD SWAP3 POP JUMPDEST DUP5 DUP4 LT ISZERO PUSH2 0x5094 JUMPI DUP3 CALLDATALOAD DUP3 MSTORE SWAP2 DUP4 ADD SWAP2 SWAP1 DUP4 ADD SWAP1 PUSH2 0x507B JUMP JUMPDEST SWAP8 SWAP7 POP POP POP POP POP POP POP JUMP JUMPDEST PUSH1 0x0 DUP1 PUSH1 0x0 DUP1 PUSH1 0x80 DUP6 DUP8 SUB SLT ISZERO PUSH2 0x50B5 JUMPI PUSH1 0x0 DUP1 REVERT JUMPDEST PUSH2 0x50BE DUP6 PUSH2 0x4ED0 JUMP JUMPDEST SWAP4 POP PUSH2 0x50CC PUSH1 0x20 DUP7 ADD PUSH2 0x4ED0 JUMP JUMPDEST SWAP3 POP PUSH1 0x40 DUP6 ADD CALLDATALOAD PUSH8 0xFFFFFFFFFFFFFFFF DUP1 DUP3 GT ISZERO PUSH2 0x50E9 JUMPI PUSH1 0x0 DUP1 REVERT JUMPDEST PUSH2 0x50F5 DUP9 DUP4 DUP10 ADD PUSH2 0x501F JUMP JUMPDEST SWAP4 POP PUSH1 0x60 DUP8 ADD CALLDATALOAD SWAP2 POP DUP1 DUP3 GT ISZERO PUSH2 0x510B JUMPI PUSH1 0x0 DUP1 REVERT JUMPDEST POP PUSH2 0x5118 DUP8 DUP3 DUP9 ADD PUSH2 0x501F JUMP JUMPDEST SWAP2 POP POP SWAP3 SWAP6 SWAP2 SWAP5 POP SWAP3 POP JUMP JUMPDEST PUSH1 0x0 DUP2 MLOAD DUP1 DUP5 MSTORE PUSH1 0x20 DUP1 DUP6 ADD SWAP5 POP DUP1 DUP5 ADD PUSH1 0x0 JUMPDEST DUP4 DUP2 LT ISZERO PUSH2 0x515A JUMPI DUP2 MLOAD PUSH4 0xFFFFFFFF AND DUP8 MSTORE SWAP6 DUP3 ADD SWAP6 SWAP1 DUP3 ADD SWAP1 PUSH1 0x1 ADD PUSH2 0x5138 JUMP JUMPDEST POP SWAP5 SWAP6 SWAP5 POP POP POP POP POP JUMP JUMPDEST PUSH1 0x60 DUP2 MSTORE PUSH1 0x0 PUSH2 0x5178 PUSH1 0x60 DUP4 ADD DUP7 PUSH2 0x5124 JUMP JUMPDEST DUP3 DUP2 SUB PUSH1 0x20 DUP5 ADD MSTORE PUSH2 0x518A DUP2 DUP7 PUSH2 0x5124 JUMP JUMPDEST SWAP2 POP POP DUP3 PUSH1 0x40 DUP4 ADD MSTORE SWAP5 SWAP4 POP POP POP POP JUMP JUMPDEST PUSH1 0x0 DUP1 PUSH1 0x0 PUSH1 0x60 DUP5 DUP7 SUB SLT ISZERO PUSH2 0x51B0 JUMPI PUSH1 0x0 DUP1 REVERT JUMPDEST DUP4 CALLDATALOAD PUSH2 0xFFFF DUP2 AND DUP2 EQ PUSH2 0x51C2 JUMPI PUSH1 0x0 DUP1 REVERT JUMPDEST SWAP6 PUSH1 0x20 DUP6 ADD CALLDATALOAD SWAP6 POP PUSH1 0x40 SWAP1 SWAP5 ADD CALLDATALOAD SWAP4 SWAP3 POP POP POP JUMP JUMPDEST PUSH1 0x0 DUP1 PUSH1 0x40 DUP4 DUP6 SUB SLT ISZERO PUSH2 0x51EA JUMPI PUSH1 0x0 DUP1 REVERT JUMPDEST PUSH2 0x4E8E DUP4 PUSH2 0x4ED0 JUMP JUMPDEST PUSH1 0x0 JUMPDEST DUP4 DUP2 LT ISZERO PUSH2 0x520E JUMPI DUP2 DUP2 ADD MLOAD DUP4 DUP3 ADD MSTORE PUSH1 0x20 ADD PUSH2 0x51F6 JUMP JUMPDEST POP POP PUSH1 0x0 SWAP2 ADD MSTORE JUMP JUMPDEST PUSH1 0x0 DUP2 MLOAD DUP1 DUP5 MSTORE PUSH2 0x522F DUP2 PUSH1 0x20 DUP7 ADD PUSH1 0x20 DUP7 ADD PUSH2 0x51F3 JUMP JUMPDEST PUSH1 0x1F ADD PUSH1 0x1F NOT AND SWAP3 SWAP1 SWAP3 ADD PUSH1 0x20 ADD SWAP3 SWAP2 POP POP JUMP JUMPDEST PUSH1 0x20 DUP2 MSTORE PUSH2 0x525A PUSH1 0x20 DUP3 ADD DUP4 MLOAD PUSH4 0xFFFFFFFF AND SWAP1 MSTORE JUMP JUMPDEST PUSH1 0x0 PUSH1 0x20 DUP4 ADD MLOAD PUSH2 0x400 DUP1 PUSH1 0x40 DUP6 ADD MSTORE PUSH2 0x5278 PUSH2 0x420 DUP6 ADD DUP4 PUSH2 0x5217 JUMP JUMPDEST SWAP2 POP PUSH1 0x40 DUP6 ADD MLOAD PUSH2 0x528D PUSH1 0x60 DUP7 ADD DUP3 ISZERO ISZERO SWAP1 MSTORE JUMP JUMPDEST POP PUSH1 0x60 DUP6 ADD MLOAD PUSH1 0x1 PUSH1 0x1 PUSH1 0xA0 SHL SUB DUP2 AND PUSH1 0x80 DUP7 ADD MSTORE POP PUSH1 0x80 DUP6 ADD MLOAD PUSH1 0xA0 DUP6 ADD MSTORE PUSH1 0xA0 DUP6 ADD MLOAD PUSH1 0xC0 DUP6 ADD MSTORE PUSH1 0xC0 DUP6 ADD MLOAD PUSH2 0x52CE PUSH1 0xE0 DUP7 ADD DUP3 PUSH4 0xFFFFFFFF AND SWAP1 MSTORE JUMP JUMPDEST POP PUSH1 0xE0 DUP6 ADD MLOAD PUSH1 0x1F NOT PUSH2 0x100 DUP2 DUP8 DUP7 SUB ADD DUP2 DUP9 ADD MSTORE PUSH2 0x52ED DUP6 DUP5 PUSH2 0x5124 JUMP JUMPDEST SWAP5 POP DUP1 DUP9 ADD MLOAD SWAP3 POP POP PUSH2 0x120 DUP2 DUP8 DUP7 SUB ADD DUP2 DUP9 ADD MSTORE PUSH2 0x530C DUP6 DUP5 PUSH2 0x5124 JUMP JUMPDEST SWAP5 POP DUP1 DUP9 ADD MLOAD SWAP3 POP POP PUSH2 0x140 DUP2 DUP8 DUP7 SUB ADD DUP2 DUP9 ADD MSTORE PUSH2 0x532B DUP6 DUP5 PUSH2 0x5124 JUMP JUMPDEST SWAP1 DUP9 ADD MLOAD PUSH2 0x160 DUP9 DUP2 ADD SWAP2 SWAP1 SWAP2 MSTORE DUP9 ADD MLOAD PUSH2 0x180 DUP1 DUP10 ADD SWAP2 SWAP1 SWAP2 MSTORE DUP9 ADD MLOAD PUSH2 0x1A0 DUP1 DUP10 ADD SWAP2 SWAP1 SWAP2 MSTORE DUP9 ADD MLOAD PUSH2 0x1C0 DUP1 DUP10 ADD SWAP2 SWAP1 SWAP2 MSTORE DUP9 ADD MLOAD PUSH2 0x1E0 DUP1 DUP10 ADD SWAP2 SWAP1 SWAP2 MSTORE DUP9 ADD MLOAD PUSH2 0x200 DUP1 DUP10 ADD SWAP2 SWAP1 SWAP2 MSTORE DUP9 ADD MLOAD PUSH2 0x220 DUP1 DUP10 ADD SWAP2 SWAP1 SWAP2 MSTORE DUP9 ADD MLOAD PUSH2 0x240 DUP1 DUP10 ADD SWAP2 SWAP1 SWAP2 MSTORE DUP9 ADD MLOAD SWAP1 SWAP5 POP SWAP2 POP PUSH2 0x260 PUSH2 0x53AD DUP2 DUP9 ADD DUP5 PUSH1 0xFF AND SWAP1 MSTORE JUMP JUMPDEST DUP8 ADD MLOAD PUSH2 0x280 DUP8 DUP2 ADD SWAP2 SWAP1 SWAP2 MSTORE DUP8 ADD MLOAD PUSH2 0x2A0 DUP1 DUP9 ADD SWAP2 SWAP1 SWAP2 MSTORE DUP8 ADD MLOAD PUSH2 0x2C0 DUP1 DUP9 ADD SWAP2 SWAP1 SWAP2 MSTORE DUP8 ADD MLOAD PUSH2 0x2E0 DUP1 DUP9 ADD SWAP2 SWAP1 SWAP2 MSTORE DUP8 ADD MLOAD PUSH2 0x300 DUP1 DUP9 ADD SWAP2 SWAP1 SWAP2 MSTORE DUP8 ADD MLOAD PUSH2 0x320 DUP1 DUP9 ADD SWAP2 SWAP1 SWAP2 MSTORE DUP8 ADD MLOAD PUSH2 0x340 DUP1 DUP9 ADD SWAP2 SWAP1 SWAP2 MSTORE DUP8 ADD MLOAD PUSH2 0x360 DUP1 DUP9 ADD SWAP2 SWAP1 SWAP2 MSTORE DUP8 ADD MLOAD PUSH2 0x380 DUP1 DUP9 ADD SWAP2 SWAP1 SWAP2 MSTORE DUP8 ADD MLOAD DUP7 DUP6 SUB DUP3 ADD PUSH2 0x3A0 DUP1 DUP10 ADD SWAP2 SWAP1 SWAP2 MSTORE SWAP1 SWAP3 POP PUSH2 0x5441 DUP6 DUP5 PUSH2 0x5124 JUMP JUMPDEST SWAP1 DUP9 ADD MLOAD PUSH2 0x3C0 DUP9 DUP2 ADD SWAP2 SWAP1 SWAP2 MSTORE DUP9 ADD MLOAD PUSH2 0x3E0 DUP1 DUP10 ADD SWAP2 SWAP1 SWAP2 MSTORE SWAP1 SWAP8 ADD MLOAD SWAP3 SWAP1 SWAP6 ADD SWAP2 SWAP1 SWAP2 MSTORE POP SWAP3 SWAP4 SWAP3 POP POP POP JUMP JUMPDEST PUSH1 0x20 DUP2 MSTORE DUP2 MLOAD ISZERO ISZERO PUSH1 0x20 DUP3 ADD MSTORE PUSH1 0x0 PUSH1 0x20 DUP4 ADD MLOAD PUSH1 0x40 DUP1 DUP5 ADD MSTORE PUSH2 0x3B94 PUSH1 0x60 DUP5 ADD DUP3 PUSH2 0x5124 JUMP JUMPDEST PUSH4 0x4E487B71 PUSH1 0xE0 SHL PUSH1 0x0 MSTORE PUSH1 0x32 PUSH1 0x4 MSTORE PUSH1 0x24 PUSH1 0x0 REVERT JUMPDEST PUSH4 0x4E487B71 PUSH1 0xE0 SHL PUSH1 0x0 MSTORE PUSH1 0x11 PUSH1 0x4 MSTORE PUSH1 0x24 PUSH1 0x0 REVERT JUMPDEST DUP2 DUP2 SUB DUP2 DUP2 GT ISZERO PUSH2 0x24DE JUMPI PUSH2 0x24DE PUSH2 0x54AE JUMP JUMPDEST PUSH1 0x20 DUP1 DUP3 MSTORE PUSH1 0x11 SWAP1 DUP3 ADD MSTORE PUSH17 0x2CB7BA9030B932903737BA1030B236B4B7 PUSH1 0x79 SHL PUSH1 0x40 DUP3 ADD MSTORE PUSH1 0x60 ADD SWAP1 JUMP JUMPDEST PUSH1 0x0 PUSH1 0xFF DUP3 AND PUSH1 0xFF DUP2 SUB PUSH2 0x5518 JUMPI PUSH2 0x5518 PUSH2 0x54AE JUMP JUMPDEST PUSH1 0x1 ADD SWAP3 SWAP2 POP POP JUMP JUMPDEST PUSH1 0x0 PUSH4 0xFFFFFFFF DUP1 DUP4 AND DUP2 DUP2 SUB PUSH2 0x553A JUMPI PUSH2 0x553A PUSH2 0x54AE JUMP JUMPDEST PUSH1 0x1 ADD SWAP4 SWAP3 POP POP POP JUMP JUMPDEST PUSH1 0x20 DUP1 DUP3 MSTORE PUSH1 0x2C SWAP1 DUP3 ADD MSTORE PUSH32 0x46756E6374696F6E206D7573742062652063616C6C6564207468726F75676820 PUSH1 0x40 DUP3 ADD MSTORE PUSH12 0x19195B1959D85D1958D85B1B PUSH1 0xA2 SHL PUSH1 0x60 DUP3 ADD MSTORE PUSH1 0x80 ADD SWAP1 JUMP JUMPDEST PUSH1 0x20 DUP1 DUP3 MSTORE PUSH1 0x2C SWAP1 DUP3 ADD MSTORE PUSH32 0x46756E6374696F6E206D7573742062652063616C6C6564207468726F75676820 PUSH1 0x40 DUP3 ADD MSTORE PUSH12 0x6163746976652070726F7879 PUSH1 0xA0 SHL PUSH1 0x60 DUP3 ADD MSTORE PUSH1 0x80 ADD SWAP1 JUMP JUMPDEST PUSH1 0x1 DUP2 DUP2 SHR SWAP1 DUP3 AND DUP1 PUSH2 0x55F0 JUMPI PUSH1 0x7F DUP3 AND SWAP2 POP JUMPDEST PUSH1 0x20 DUP3 LT DUP2 SUB PUSH2 0x5610 JUMPI PUSH4 0x4E487B71 PUSH1 0xE0 SHL PUSH1 0x0 MSTORE PUSH1 0x22 PUSH1 0x4 MSTORE PUSH1 0x24 PUSH1 0x0 REVERT JUMPDEST POP SWAP2 SWAP1 POP JUMP JUMPDEST DUP1 DUP3 MUL DUP2 ISZERO DUP3 DUP3 DIV DUP5 EQ OR PUSH2 0x24DE JUMPI PUSH2 0x24DE PUSH2 0x54AE JUMP JUMPDEST PUSH1 0x0 PUSH1 0x20 DUP3 DUP5 SUB SLT ISZERO PUSH2 0x563F JUMPI PUSH1 0x0 DUP1 REVERT JUMPDEST DUP2 MLOAD DUP1 ISZERO ISZERO DUP2 EQ PUSH2 0x24CC JUMPI PUSH1 0x0 DUP1 REVERT JUMPDEST PUSH4 0x4E487B71 PUSH1 0xE0 SHL PUSH1 0x0 MSTORE PUSH1 0x31 PUSH1 0x4 MSTORE PUSH1 0x24 PUSH1 0x0 REVERT JUMPDEST PUSH1 0x0 PUSH1 0x1 DUP3 ADD PUSH2 0x5677 JUMPI PUSH2 0x5677 PUSH2 0x54AE JUMP JUMPDEST POP PUSH1 0x1 ADD SWAP1 JUMP JUMPDEST PUSH4 0xFFFFFFFF DUP2 DUP2 AND DUP4 DUP3 AND ADD SWAP1 DUP1 DUP3 GT ISZERO PUSH2 0x569B JUMPI PUSH2 0x569B PUSH2 0x54AE JUMP JUMPDEST POP SWAP3 SWAP2 POP POP JUMP JUMPDEST DUP1 DUP3 ADD DUP1 DUP3 GT ISZERO PUSH2 0x24DE JUMPI PUSH2 0x24DE PUSH2 0x54AE JUMP JUMPDEST PUSH1 0x0 PUSH2 0xFFFF DUP1 DUP4 AND DUP2 DUP2 SUB PUSH2 0x553A JUMPI PUSH2 0x553A PUSH2 0x54AE JUMP JUMPDEST PUSH1 0x0 PUSH1 0x20 DUP3 DUP5 SUB SLT ISZERO PUSH2 0x56DE JUMPI PUSH1 0x0 DUP1 REVERT JUMPDEST POP MLOAD SWAP2 SWAP1 POP JUMP JUMPDEST PUSH1 0x0 DUP3 PUSH2 0x5702 JUMPI PUSH4 0x4E487B71 PUSH1 0xE0 SHL PUSH1 0x0 MSTORE PUSH1 0x12 PUSH1 0x4 MSTORE PUSH1 0x24 PUSH1 0x0 REVERT JUMPDEST POP DIV SWAP1 JUMP JUMPDEST PUSH1 0x20 DUP1 DUP3 MSTORE PUSH1 0x2B SWAP1 DUP3 ADD MSTORE PUSH32 0x496E697469616C697A61626C653A20636F6E7472616374206973206E6F742069 PUSH1 0x40 DUP3 ADD MSTORE PUSH11 0x6E697469616C697A696E67 PUSH1 0xA8 SHL PUSH1 0x60 DUP3 ADD MSTORE PUSH1 0x80 ADD SWAP1 JUMP JUMPDEST PUSH1 0x0 DUP3 MLOAD PUSH2 0x5764 DUP2 DUP5 PUSH1 0x20 DUP8 ADD PUSH2 0x51F3 JUMP JUMPDEST SWAP2 SWAP1 SWAP2 ADD SWAP3 SWAP2 POP POP JUMP JUMPDEST PUSH1 0x20 DUP2 MSTORE PUSH1 0x0 PUSH2 0x24CC PUSH1 0x20 DUP4 ADD DUP5 PUSH2 0x5217 JUMP INVALID CALLDATASIZE ADDMOD SWAP5 LOG1 EXTCODESIZE LOG1 LOG3 0x21 MOD PUSH8 0xC828492DB98DCA3E KECCAK256 PUSH23 0xCC3735A920A3CA505D382BBC416464726573733A206C6F PUSH24 0x2D6C6576656C2064656C65676174652063616C6C20666169 PUSH13 0x6564A264697066735822122085 0x4B CODECOPY DELEGATECALL 0xD3 MSTORE 0xA8 0x28 RETURNDATACOPY PUSH13 0x9635B5A486034683A968DAC51C CREATE2 PUSH13 0xB85528EBA4714164736F6C6343 STOP ADDMOD GT STOP CALLER "},"methodIdentifiers":{"_disabledUsersList(uint256)":"1f7f83ba","activateID(uint32)":"e5682e38","admins(uint256)":"14bfd6d0","claimBalance(uint32,uint256)":"f31a2d0f","companyTurnoverTimeLimit()":"f41bfeef","companyTurnoverTimeStamp()":"2ed421d2","companyTurnoverWithTimeLimit()":"22f88b52","decimals()":"313ce567","deleteUserLimit(uint32,uint32)":"19b8bdf2","disableUserAdmin(address)":"9f4e8398","getIDAccount(uint32)":"f830e57b","getIDRewardPaid(uint32)":"f229b4d5","getIDRoyaltyClubLevel(uint32)":"76a68e84","getIDTeam(uint32)":"a0506aed","getIDTotalBusiness(uint32)":"347976c4","getMinContributionETH()":"1f9e65e4","getPriceOracleContract()":"2913497b","getROIAccount(uint32)":"c3ab5ebf","getUserAccount(address)":"fb47e016","getUserIDTotalROI(uint32)":"bf46de63","getUserTotalActiveROIValue(uint32)":"ea62f715","getUserUnlockCount(uint32)":"b47181d3","initialize()":"8129fc1c","isPayROI()":"af2f39d1","isPayRoyaltyClubBonus()":"fafc9597","isUserDisabledByAdmin(address)":"538ffe0c","levelRates(uint256)":"7879b5ef","maxLevelsCount()":"8df05d9c","minContributionIn()":"1c961c05","minContributionInUSD()":"96ed6b85","owner()":"8da5cb5b","packagesCount()":"18e10bff","proxiableUUID()":"52d1902d","removeUserFromDisableList(address)":"e52356f3","renounceOwnership()":"715018a6","royaltyClubPackageCount()":"a28a3686","sendETHAdmin(address,uint256)":"0b243dad","setAdmin(address)":"704b6c02","setMinContribution(uint256)":"473b0d46","setPriceOracleContract(address)":"0efdbb6a","setROI(uint16,uint256,uint256)":"c82801ca","setROIIDCount(uint32)":"d895af2c","totalIDs()":"5e701d86","totalROIIDs()":"a1b80175","totalROIPaid()":"30abbcc5","totalReferralPaid()":"7c599486","totalRoyaltyClubBonusPaid()":"852ff2fd","totalRoyaltyClubBonusPaidETH()":"09de82cd","totalUsers()":"bff1f9e1","transferOwnership(address)":"f2fde38b","updateTotalIDs(uint32)":"70d9e081","updateUserlimits(uint32,uint32,uint256[],uint256[])":"8891df2b","upgradeTo(address)":"3659cfe6","upgradeToAndCall(address,bytes)":"4f1ef286","withdrawETHAdmin()":"35759788","withdrawTokensAdmin(address,uint256)":"a0b6105f"}},"storageLayout":{"storage":[{"astId":527,"contract":"contracts/ReferralV3Upgradeable.sol:ReferralV3Upgradeable","label":"_initialized","offset":0,"slot":"0","type":"t_uint8"},{"astId":530,"contract":"contracts/ReferralV3Upgradeable.sol:ReferralV3Upgradeable","label":"_initializing","offset":1,"slot":"0","type":"t_bool"},{"astId":1355,"contract":"contracts/ReferralV3Upgradeable.sol:ReferralV3Upgradeable","label":"__gap","offset":0,"slot":"1","type":"t_array(t_uint256)50_storage"},{"astId":10,"contract":"contracts/ReferralV3Upgradeable.sol:ReferralV3Upgradeable","label":"_owner","offset":0,"slot":"51","type":"t_address"},{"astId":130,"contract":"contracts/ReferralV3Upgradeable.sol:ReferralV3Upgradeable","label":"__gap","offset":0,"slot":"52","type":"t_array(t_uint256)49_storage"},{"astId":509,"contract":"contracts/ReferralV3Upgradeable.sol:ReferralV3Upgradeable","label":"__gap","offset":0,"slot":"101","type":"t_array(t_uint256)50_storage"},{"astId":824,"contract":"contracts/ReferralV3Upgradeable.sol:ReferralV3Upgradeable","label":"__gap","offset":0,"slot":"151","type":"t_array(t_uint256)50_storage"},{"astId":1520,"contract":"contracts/ReferralV3Upgradeable.sol:ReferralV3Upgradeable","label":"_priceOracleContract","offset":0,"slot":"201","type":"t_address"},{"astId":1523,"contract":"contracts/ReferralV3Upgradeable.sol:ReferralV3Upgradeable","label":"levelRates","offset":0,"slot":"202","type":"t_array(t_uint16)dyn_storage"},{"astId":1525,"contract":"contracts/ReferralV3Upgradeable.sol:ReferralV3Upgradeable","label":"decimals","offset":0,"slot":"203","type":"t_uint16"},{"astId":1527,"contract":"contracts/ReferralV3Upgradeable.sol:ReferralV3Upgradeable","label":"maxLevelsCount","offset":2,"slot":"203","type":"t_uint8"},{"astId":1529,"contract":"contracts/ReferralV3Upgradeable.sol:ReferralV3Upgradeable","label":"minContributionIn","offset":0,"slot":"204","type":"t_uint256"},{"astId":1531,"contract":"contracts/ReferralV3Upgradeable.sol:ReferralV3Upgradeable","label":"totalRoyaltyClubBonusPaid","offset":0,"slot":"205","type":"t_uint256"},{"astId":1533,"contract":"contracts/ReferralV3Upgradeable.sol:ReferralV3Upgradeable","label":"totalRoyaltyClubBonusPaidETH","offset":0,"slot":"206","type":"t_uint256"},{"astId":1535,"contract":"contracts/ReferralV3Upgradeable.sol:ReferralV3Upgradeable","label":"totalReferralPaid","offset":0,"slot":"207","type":"t_uint256"},{"astId":1537,"contract":"contracts/ReferralV3Upgradeable.sol:ReferralV3Upgradeable","label":"totalROIPaid","offset":0,"slot":"208","type":"t_uint256"},{"astId":1539,"contract":"contracts/ReferralV3Upgradeable.sol:ReferralV3Upgradeable","label":"totalUsers","offset":0,"slot":"209","type":"t_uint32"},{"astId":1541,"contract":"contracts/ReferralV3Upgradeable.sol:ReferralV3Upgradeable","label":"totalIDs","offset":4,"slot":"209","type":"t_uint32"},{"astId":1543,"contract":"contracts/ReferralV3Upgradeable.sol:ReferralV3Upgradeable","label":"totalROIIDs","offset":8,"slot":"209","type":"t_uint32"},{"astId":1545,"contract":"contracts/ReferralV3Upgradeable.sol:ReferralV3Upgradeable","label":"_roiRate","offset":12,"slot":"209","type":"t_uint16"},{"astId":1547,"contract":"contracts/ReferralV3Upgradeable.sol:ReferralV3Upgradeable","label":"_roiDuration","offset":0,"slot":"210","type":"t_uint256"},{"astId":1549,"contract":"contracts/ReferralV3Upgradeable.sol:ReferralV3Upgradeable","label":"_roiClaimTimelimit","offset":0,"slot":"211","type":"t_uint256"},{"astId":1551,"contract":"contracts/ReferralV3Upgradeable.sol:ReferralV3Upgradeable","label":"isPayROI","offset":0,"slot":"212","type":"t_bool"},{"astId":1553,"contract":"contracts/ReferralV3Upgradeable.sol:ReferralV3Upgradeable","label":"isPayRoyaltyClubBonus","offset":1,"slot":"212","type":"t_bool"},{"astId":1555,"contract":"contracts/ReferralV3Upgradeable.sol:ReferralV3Upgradeable","label":"royaltyClubPackageCount","offset":2,"slot":"212","type":"t_uint8"},{"astId":1557,"contract":"contracts/ReferralV3Upgradeable.sol:ReferralV3Upgradeable","label":"_userLevelUnlockMultiplier","offset":3,"slot":"212","type":"t_uint8"},{"astId":1559,"contract":"contracts/ReferralV3Upgradeable.sol:ReferralV3Upgradeable","label":"companyTurnoverWithTimeLimit","offset":0,"slot":"213","type":"t_uint256"},{"astId":1561,"contract":"contracts/ReferralV3Upgradeable.sol:ReferralV3Upgradeable","label":"companyTurnoverTimeStamp","offset":0,"slot":"214","type":"t_uint256"},{"astId":1563,"contract":"contracts/ReferralV3Upgradeable.sol:ReferralV3Upgradeable","label":"companyTurnoverTimeLimit","offset":0,"slot":"215","type":"t_uint256"},{"astId":1566,"contract":"contracts/ReferralV3Upgradeable.sol:ReferralV3Upgradeable","label":"_disabledUsersList","offset":0,"slot":"216","type":"t_array(t_address)dyn_storage"},{"astId":1680,"contract":"contracts/ReferralV3Upgradeable.sol:ReferralV3Upgradeable","label":"packagesCount","offset":0,"slot":"217","type":"t_uint8"},{"astId":1685,"contract":"contracts/ReferralV3Upgradeable.sol:ReferralV3Upgradeable","label":"accounts","offset":0,"slot":"218","type":"t_mapping(t_address,t_struct(StructAccount)1572_storage)"},{"astId":1690,"contract":"contracts/ReferralV3Upgradeable.sol:ReferralV3Upgradeable","label":"ids","offset":0,"slot":"219","type":"t_mapping(t_uint32,t_struct(StructID)1641_storage)"},{"astId":1695,"contract":"contracts/ReferralV3Upgradeable.sol:ReferralV3Upgradeable","label":"rois","offset":0,"slot":"220","type":"t_mapping(t_uint32,t_struct(StructROI)1654_storage)"},{"astId":1700,"contract":"contracts/ReferralV3Upgradeable.sol:ReferralV3Upgradeable","label":"packages","offset":0,"slot":"221","type":"t_mapping(t_uint8,t_struct(StructPackages)1678_storage)"},{"astId":1882,"contract":"contracts/ReferralV3Upgradeable.sol:ReferralV3Upgradeable","label":"admins","offset":0,"slot":"222","type":"t_array(t_address)dyn_storage"},{"astId":1884,"contract":"contracts/ReferralV3Upgradeable.sol:ReferralV3Upgradeable","label":"minContributionInUSD","offset":0,"slot":"223","type":"t_uint256"}],"types":{"t_address":{"encoding":"inplace","label":"address","numberOfBytes":"20"},"t_array(t_address)dyn_storage":{"base":"t_address","encoding":"dynamic_array","label":"address[]","numberOfBytes":"32"},"t_array(t_uint16)dyn_storage":{"base":"t_uint16","encoding":"dynamic_array","label":"uint16[]","numberOfBytes":"32"},"t_array(t_uint256)49_storage":{"base":"t_uint256","encoding":"inplace","label":"uint256[49]","numberOfBytes":"1568"},"t_array(t_uint256)50_storage":{"base":"t_uint256","encoding":"inplace","label":"uint256[50]","numberOfBytes":"1600"},"t_array(t_uint32)dyn_storage":{"base":"t_uint32","encoding":"dynamic_array","label":"uint32[]","numberOfBytes":"32"},"t_bool":{"encoding":"inplace","label":"bool","numberOfBytes":"1"},"t_mapping(t_address,t_struct(StructAccount)1572_storage)":{"encoding":"mapping","key":"t_address","label":"mapping(address => struct ReferralV3Upgradeable.StructAccount)","numberOfBytes":"32","value":"t_struct(StructAccount)1572_storage"},"t_mapping(t_uint32,t_struct(StructID)1641_storage)":{"encoding":"mapping","key":"t_uint32","label":"mapping(uint32 => struct ReferralV3Upgradeable.StructID)","numberOfBytes":"32","value":"t_struct(StructID)1641_storage"},"t_mapping(t_uint32,t_struct(StructROI)1654_storage)":{"encoding":"mapping","key":"t_uint32","label":"mapping(uint32 => struct ReferralV3Upgradeable.StructROI)","numberOfBytes":"32","value":"t_struct(StructROI)1654_storage"},"t_mapping(t_uint8,t_struct(StructPackages)1678_storage)":{"encoding":"mapping","key":"t_uint8","label":"mapping(uint8 => struct ReferralV3Upgradeable.StructPackages)","numberOfBytes":"32","value":"t_struct(StructPackages)1678_storage"},"t_string_storage":{"encoding":"bytes","label":"string","numberOfBytes":"32"},"t_struct(StructAccount)1572_storage":{"encoding":"inplace","label":"struct ReferralV3Upgradeable.StructAccount","members":[{"astId":1568,"contract":"contracts/ReferralV3Upgradeable.sol:ReferralV3Upgradeable","label":"isDisabled","offset":0,"slot":"0","type":"t_bool"},{"astId":1571,"contract":"contracts/ReferralV3Upgradeable.sol:ReferralV3Upgradeable","label":"accountIDs","offset":0,"slot":"1","type":"t_array(t_uint32)dyn_storage"}],"numberOfBytes":"64"},"t_struct(StructID)1641_storage":{"encoding":"inplace","label":"struct ReferralV3Upgradeable.StructID","members":[{"astId":1574,"contract":"contracts/ReferralV3Upgradeable.sol:ReferralV3Upgradeable","label":"id","offset":0,"slot":"0","type":"t_uint32"},{"astId":1576,"contract":"contracts/ReferralV3Upgradeable.sol:ReferralV3Upgradeable","label":"oldID","offset":0,"slot":"1","type":"t_string_storage"},{"astId":1578,"contract":"contracts/ReferralV3Upgradeable.sol:ReferralV3Upgradeable","label":"isActive","offset":0,"slot":"2","type":"t_bool"},{"astId":1580,"contract":"contracts/ReferralV3Upgradeable.sol:ReferralV3Upgradeable","label":"owner","offset":1,"slot":"2","type":"t_address"},{"astId":1582,"contract":"contracts/ReferralV3Upgradeable.sol:ReferralV3Upgradeable","label":"joiningTime","offset":0,"slot":"3","type":"t_uint256"},{"astId":1584,"contract":"contracts/ReferralV3Upgradeable.sol:ReferralV3Upgradeable","label":"deactivateTime","offset":0,"slot":"4","type":"t_uint256"},{"astId":1586,"contract":"contracts/ReferralV3Upgradeable.sol:ReferralV3Upgradeable","label":"refererID","offset":0,"slot":"5","type":"t_uint32"},{"astId":1589,"contract":"contracts/ReferralV3Upgradeable.sol:ReferralV3Upgradeable","label":"refereeIDs","offset":0,"slot":"6","type":"t_array(t_uint32)dyn_storage"},{"astId":1592,"contract":"contracts/ReferralV3Upgradeable.sol:ReferralV3Upgradeable","label":"teamIDs","offset":0,"slot":"7","type":"t_array(t_uint32)dyn_storage"},{"astId":1595,"contract":"contracts/ReferralV3Upgradeable.sol:ReferralV3Upgradeable","label":"teamLevel","offset":0,"slot":"8","type":"t_array(t_uint32)dyn_storage"},{"astId":1597,"contract":"contracts/ReferralV3Upgradeable.sol:ReferralV3Upgradeable","label":"selfBusiness","offset":0,"slot":"9","type":"t_uint256"},{"astId":1599,"contract":"contracts/ReferralV3Upgradeable.sol:ReferralV3Upgradeable","label":"selfBusinessOld","offset":0,"slot":"10","type":"t_uint256"},{"astId":1601,"contract":"contracts/ReferralV3Upgradeable.sol:ReferralV3Upgradeable","label":"directBusiness","offset":0,"slot":"11","type":"t_uint256"},{"astId":1603,"contract":"contracts/ReferralV3Upgradeable.sol:ReferralV3Upgradeable","label":"directBusinessOld","offset":0,"slot":"12","type":"t_uint256"},{"astId":1605,"contract":"contracts/ReferralV3Upgradeable.sol:ReferralV3Upgradeable","label":"teamBusiness","offset":0,"slot":"13","type":"t_uint256"},{"astId":1607,"contract":"contracts/ReferralV3Upgradeable.sol:ReferralV3Upgradeable","label":"teamBusinessOld","offset":0,"slot":"14","type":"t_uint256"},{"astId":1609,"contract":"contracts/ReferralV3Upgradeable.sol:ReferralV3Upgradeable","label":"royaltyClubBusiness","offset":0,"slot":"15","type":"t_uint256"},{"astId":1611,"contract":"contracts/ReferralV3Upgradeable.sol:ReferralV3Upgradeable","label":"timeStampRoyaltyClub","offset":0,"slot":"16","type":"t_uint256"},{"astId":1613,"contract":"contracts/ReferralV3Upgradeable.sol:ReferralV3Upgradeable","label":"royaltyClubPackageID","offset":0,"slot":"17","type":"t_uint8"},{"astId":1615,"contract":"contracts/ReferralV3Upgradeable.sol:ReferralV3Upgradeable","label":"royaltyClubListIndex","offset":0,"slot":"18","type":"t_uint256"},{"astId":1617,"contract":"contracts/ReferralV3Upgradeable.sol:ReferralV3Upgradeable","label":"referralPaid","offset":0,"slot":"19","type":"t_uint256"},{"astId":1619,"contract":"contracts/ReferralV3Upgradeable.sol:ReferralV3Upgradeable","label":"rewardPaidRoyaltyClub","offset":0,"slot":"20","type":"t_uint256"},{"astId":1621,"contract":"contracts/ReferralV3Upgradeable.sol:ReferralV3Upgradeable","label":"totalTopUp","offset":0,"slot":"21","type":"t_uint256"},{"astId":1623,"contract":"contracts/ReferralV3Upgradeable.sol:ReferralV3Upgradeable","label":"totalIncome","offset":0,"slot":"22","type":"t_uint256"},{"astId":1625,"contract":"contracts/ReferralV3Upgradeable.sol:ReferralV3Upgradeable","label":"totalMaxLimitAmount","offset":0,"slot":"23","type":"t_uint256"},{"astId":1627,"contract":"contracts/ReferralV3Upgradeable.sol:ReferralV3Upgradeable","label":"currentTopUp","offset":0,"slot":"24","type":"t_uint256"},{"astId":1629,"contract":"contracts/ReferralV3Upgradeable.sol:ReferralV3Upgradeable","label":"currentTopUpTime","offset":0,"slot":"25","type":"t_uint256"},{"astId":1631,"contract":"contracts/ReferralV3Upgradeable.sol:ReferralV3Upgradeable","label":"totalROIClaimed","offset":0,"slot":"26","type":"t_uint256"},{"astId":1634,"contract":"contracts/ReferralV3Upgradeable.sol:ReferralV3Upgradeable","label":"roiIDs","offset":0,"slot":"27","type":"t_array(t_uint32)dyn_storage"},{"astId":1636,"contract":"contracts/ReferralV3Upgradeable.sol:ReferralV3Upgradeable","label":"roiClaimed","offset":0,"slot":"28","type":"t_uint256"},{"astId":1638,"contract":"contracts/ReferralV3Upgradeable.sol:ReferralV3Upgradeable","label":"roiClaimedTimestamp","offset":0,"slot":"29","type":"t_uint256"},{"astId":1640,"contract":"contracts/ReferralV3Upgradeable.sol:ReferralV3Upgradeable","label":"balanceClaimed","offset":0,"slot":"30","type":"t_uint256"}],"numberOfBytes":"992"},"t_struct(StructPackages)1678_storage":{"encoding":"inplace","label":"struct ReferralV3Upgradeable.StructPackages","members":[{"astId":1656,"contract":"contracts/ReferralV3Upgradeable.sol:ReferralV3Upgradeable","label":"packageID","offset":0,"slot":"0","type":"t_uint8"},{"astId":1658,"contract":"contracts/ReferralV3Upgradeable.sol:ReferralV3Upgradeable","label":"selfBusiness","offset":0,"slot":"1","type":"t_uint256"},{"astId":1660,"contract":"contracts/ReferralV3Upgradeable.sol:ReferralV3Upgradeable","label":"directBusiness","offset":0,"slot":"2","type":"t_uint256"},{"astId":1662,"contract":"contracts/ReferralV3Upgradeable.sol:ReferralV3Upgradeable","label":"teamBusiness","offset":0,"slot":"3","type":"t_uint256"},{"astId":1664,"contract":"contracts/ReferralV3Upgradeable.sol:ReferralV3Upgradeable","label":"rankName","offset":0,"slot":"4","type":"t_string_storage"},{"astId":1666,"contract":"contracts/ReferralV3Upgradeable.sol:ReferralV3Upgradeable","label":"reward","offset":0,"slot":"5","type":"t_uint256"},{"astId":1668,"contract":"contracts/ReferralV3Upgradeable.sol:ReferralV3Upgradeable","label":"businessLimit","offset":0,"slot":"6","type":"t_uint256"},{"astId":1670,"contract":"contracts/ReferralV3Upgradeable.sol:ReferralV3Upgradeable","label":"timeLimit","offset":0,"slot":"7","type":"t_uint256"},{"astId":1672,"contract":"contracts/ReferralV3Upgradeable.sol:ReferralV3Upgradeable","label":"isOneTimeRewardPaid","offset":0,"slot":"8","type":"t_bool"},{"astId":1674,"contract":"contracts/ReferralV3Upgradeable.sol:ReferralV3Upgradeable","label":"isPayReccursive","offset":1,"slot":"8","type":"t_bool"},{"astId":1677,"contract":"contracts/ReferralV3Upgradeable.sol:ReferralV3Upgradeable","label":"achieversList","offset":0,"slot":"9","type":"t_array(t_uint32)dyn_storage"}],"numberOfBytes":"320"},"t_struct(StructROI)1654_storage":{"encoding":"inplace","label":"struct ReferralV3Upgradeable.StructROI","members":[{"astId":1643,"contract":"contracts/ReferralV3Upgradeable.sol:ReferralV3Upgradeable","label":"id","offset":0,"slot":"0","type":"t_uint32"},{"astId":1645,"contract":"contracts/ReferralV3Upgradeable.sol:ReferralV3Upgradeable","label":"isActive","offset":4,"slot":"0","type":"t_bool"},{"astId":1647,"contract":"contracts/ReferralV3Upgradeable.sol:ReferralV3Upgradeable","label":"ownerID","offset":5,"slot":"0","type":"t_uint32"},{"astId":1649,"contract":"contracts/ReferralV3Upgradeable.sol:ReferralV3Upgradeable","label":"value","offset":0,"slot":"1","type":"t_uint256"},{"astId":1651,"contract":"contracts/ReferralV3Upgradeable.sol:ReferralV3Upgradeable","label":"roiRate","offset":0,"slot":"2","type":"t_uint16"},{"astId":1653,"contract":"contracts/ReferralV3Upgradeable.sol:ReferralV3Upgradeable","label":"startTime","offset":0,"slot":"3","type":"t_uint256"}],"numberOfBytes":"128"},"t_uint16":{"encoding":"inplace","label":"uint16","numberOfBytes":"2"},"t_uint256":{"encoding":"inplace","label":"uint256","numberOfBytes":"32"},"t_uint32":{"encoding":"inplace","label":"uint32","numberOfBytes":"4"},"t_uint8":{"encoding":"inplace","label":"uint8","numberOfBytes":"1"}}}}}}