{"contracts/ReferralV2Upgradeable.sol":{"ReferralV2Upgradeable":{"abi":[{"anonymous":false,"inputs":[{"indexed":false,"internalType":"address","name":"ownerAddress","type":"address"},{"indexed":false,"internalType":"uint256","name":"id","type":"uint256"},{"indexed":false,"internalType":"uint256","name":"idIndex","type":"uint256"}],"name":"AccountInfoIDAttached","type":"event"},{"anonymous":false,"inputs":[{"indexed":false,"internalType":"uint256","name":"userID","type":"uint256"},{"indexed":false,"internalType":"uint256","name":"index","type":"uint256"},{"indexed":false,"internalType":"uint256","name":"rank","type":"uint256"}],"name":"AddedInRoyaltyClubList","type":"event"},{"anonymous":false,"inputs":[{"indexed":false,"internalType":"address","name":"previousAdmin","type":"address"},{"indexed":false,"internalType":"address","name":"newAdmin","type":"address"}],"name":"AdminChanged","type":"event"},{"anonymous":false,"inputs":[{"indexed":true,"internalType":"address","name":"beacon","type":"address"}],"name":"BeaconUpgraded","type":"event"},{"anonymous":false,"inputs":[{"indexed":false,"internalType":"uint256","name":"id","type":"uint256"},{"indexed":false,"internalType":"uint256","name":"valueInUSD","type":"uint256"},{"indexed":false,"internalType":"address","name":"userAddress","type":"address"}],"name":"IDActivated","type":"event"},{"anonymous":false,"inputs":[{"indexed":false,"internalType":"uint256","name":"id","type":"uint256"}],"name":"IDDeactivated","type":"event"},{"anonymous":false,"inputs":[{"indexed":false,"internalType":"uint8","name":"version","type":"uint8"}],"name":"Initialized","type":"event"},{"anonymous":false,"inputs":[{"indexed":true,"internalType":"address","name":"previousOwner","type":"address"},{"indexed":true,"internalType":"address","name":"newOwner","type":"address"}],"name":"OwnershipTransferred","type":"event"},{"anonymous":false,"inputs":[{"indexed":false,"internalType":"uint256","name":"packageID","type":"uint256"}],"name":"PackageAdded","type":"event"},{"anonymous":false,"inputs":[{"indexed":false,"internalType":"uint256","name":"packageID","type":"uint256"}],"name":"PackageRemoved","type":"event"},{"anonymous":false,"inputs":[{"indexed":false,"internalType":"uint256","name":"packageID","type":"uint256"}],"name":"PackageUpdated","type":"event"},{"anonymous":false,"inputs":[{"indexed":true,"internalType":"uint256","name":"userID","type":"uint256"},{"indexed":true,"internalType":"uint256","name":"reward","type":"uint256"}],"name":"ROIClaimed","type":"event"},{"anonymous":false,"inputs":[{"indexed":true,"internalType":"uint256","name":"refererID","type":"uint256"},{"indexed":true,"internalType":"uint256","name":"level","type":"uint256"},{"indexed":true,"internalType":"string","name":"reason","type":"string"}],"name":"ReferralNotPaid","type":"event"},{"anonymous":false,"inputs":[{"indexed":true,"internalType":"uint256","name":"refereeID","type":"uint256"},{"indexed":true,"internalType":"uint256","name":"referrerID","type":"uint256"},{"indexed":true,"internalType":"uint256","name":"amount","type":"uint256"},{"indexed":false,"internalType":"uint256","name":"level","type":"uint256"}],"name":"ReferralRewardPaid","type":"event"},{"anonymous":false,"inputs":[{"indexed":true,"internalType":"address","name":"refereeID","type":"address"},{"indexed":true,"internalType":"address","name":"referrerID","type":"address"},{"indexed":true,"internalType":"string","name":"reason","type":"string"}],"name":"RegisterRefererFailed","type":"event"},{"anonymous":false,"inputs":[{"indexed":true,"internalType":"uint256","name":"id","type":"uint256"},{"indexed":true,"internalType":"uint256","name":"refererID","type":"uint256"}],"name":"RegisteredReferer","type":"event"},{"anonymous":false,"inputs":[{"indexed":true,"internalType":"address","name":"parent","type":"address"},{"indexed":false,"internalType":"uint256","name":"parentAccountID","type":"uint256"},{"indexed":true,"internalType":"uint256","name":"referrerID","type":"uint256"},{"indexed":true,"internalType":"uint256","name":"refereeID","type":"uint256"}],"name":"RegisteredTeamAddress","type":"event"},{"anonymous":false,"inputs":[{"indexed":false,"internalType":"uint256","name":"packageID","type":"uint256"},{"indexed":true,"internalType":"uint256","name":"userID","type":"uint256"},{"indexed":true,"internalType":"uint256","name":"amount","type":"uint256"}],"name":"RoyaltyClubBonusPaid","type":"event"},{"anonymous":false,"inputs":[{"indexed":true,"internalType":"address","name":"implementation","type":"address"}],"name":"Upgraded","type":"event"},{"inputs":[{"internalType":"uint256","name":"","type":"uint256"}],"name":"_disabledUsersList","outputs":[{"internalType":"address","name":"","type":"address"}],"stateMutability":"view","type":"function"},{"inputs":[{"internalType":"uint32","name":"_refererID","type":"uint32"}],"name":"activateID","outputs":[],"stateMutability":"payable","type":"function"},{"inputs":[{"internalType":"uint32[]","name":"_id","type":"uint32[]"},{"internalType":"uint32[]","name":"_refererID","type":"uint32[]"}],"name":"addReferrerAdmin","outputs":[],"stateMutability":"nonpayable","type":"function"},{"inputs":[{"internalType":"uint32","name":"_id","type":"uint32"},{"internalType":"uint256","name":"_valueInUSD","type":"uint256"}],"name":"claimBalance","outputs":[],"stateMutability":"nonpayable","type":"function"},{"inputs":[{"internalType":"uint32","name":"_id","type":"uint32"}],"name":"claimROI","outputs":[],"stateMutability":"nonpayable","type":"function"},{"inputs":[],"name":"companyTurnoverTimeLimit","outputs":[{"internalType":"uint256","name":"","type":"uint256"}],"stateMutability":"view","type":"function"},{"inputs":[],"name":"companyTurnoverTimeStamp","outputs":[{"internalType":"uint256","name":"","type":"uint256"}],"stateMutability":"view","type":"function"},{"inputs":[],"name":"companyTurnoverWithTimeLimit","outputs":[{"internalType":"uint256","name":"","type":"uint256"}],"stateMutability":"view","type":"function"},{"inputs":[],"name":"decimals","outputs":[{"internalType":"uint16","name":"","type":"uint16"}],"stateMutability":"view","type":"function"},{"inputs":[{"internalType":"address","name":"_userAddress","type":"address"}],"name":"disableUserAdmin","outputs":[],"stateMutability":"nonpayable","type":"function"},{"inputs":[{"internalType":"uint8","name":"_packageID","type":"uint8"}],"name":"getAchieversList","outputs":[{"internalType":"uint32[]","name":"","type":"uint32[]"}],"stateMutability":"view","type":"function"},{"inputs":[{"internalType":"uint32","name":"_id","type":"uint32"}],"name":"getIDAccount","outputs":[{"components":[{"internalType":"uint32","name":"id","type":"uint32"},{"internalType":"string","name":"oldID","type":"string"},{"internalType":"bool","name":"isDisabled","type":"bool"},{"internalType":"address","name":"owner","type":"address"},{"internalType":"uint256","name":"joiningTime","type":"uint256"},{"internalType":"uint256","name":"activationTime","type":"uint256"},{"internalType":"uint256","name":"deactivateTime","type":"uint256"},{"internalType":"uint32[]","name":"roiIDs","type":"uint32[]"},{"internalType":"uint32","name":"refererID","type":"uint32"},{"internalType":"uint32[]","name":"refereeIDs","type":"uint32[]"},{"internalType":"uint32[]","name":"teamIDs","type":"uint32[]"},{"internalType":"uint256","name":"selfBusinessUSD","type":"uint256"},{"internalType":"uint256","name":"selfBusinessUSDOld","type":"uint256"},{"internalType":"uint256","name":"directBusinessUSD","type":"uint256"},{"internalType":"uint256","name":"directBusinessUSDOld","type":"uint256"},{"internalType":"uint256","name":"teamBusinessUSD","type":"uint256"},{"internalType":"uint256","name":"teamBusinessUSDOld","type":"uint256"},{"internalType":"uint256","name":"royaltyClubBusinessUSD","type":"uint256"},{"internalType":"uint256","name":"timeStampRoyaltyClub","type":"uint256"},{"internalType":"uint8","name":"royaltyClubPackageID","type":"uint8"},{"internalType":"uint256","name":"royaltyClubListIndex","type":"uint256"},{"internalType":"uint256","name":"referralPaidUSD","type":"uint256"},{"internalType":"uint256","name":"rewardPaidRoyaltyClubUSD","type":"uint256"},{"internalType":"uint256","name":"topUpUSD","type":"uint256"},{"internalType":"uint256","name":"balanceClaimedUSD","type":"uint256"},{"internalType":"uint256","name":"limitBalanceUSD","type":"uint256"},{"internalType":"uint256","name":"maxLimitAmount","type":"uint256"},{"internalType":"uint256","name":"roiClaimedUSD","type":"uint256"},{"internalType":"uint256","name":"roiClaimTimestamp","type":"uint256"}],"internalType":"struct ReferralV2Upgradeable.StructID","name":"","type":"tuple"}],"stateMutability":"view","type":"function"},{"inputs":[{"internalType":"uint32","name":"_id","type":"uint32"}],"name":"getIDClaimableBalance","outputs":[{"internalType":"uint256","name":"","type":"uint256"}],"stateMutability":"view","type":"function"},{"inputs":[{"internalType":"uint32","name":"_id","type":"uint32"}],"name":"getIDRoyaltyClubLevel","outputs":[{"internalType":"uint256","name":"","type":"uint256"}],"stateMutability":"view","type":"function"},{"inputs":[],"name":"getPriceOracleContract","outputs":[{"internalType":"address","name":"","type":"address"}],"stateMutability":"view","type":"function"},{"inputs":[{"internalType":"uint8","name":"_packageID","type":"uint8"}],"name":"getRoyaltyClubPackageInfo","outputs":[{"components":[{"internalType":"uint8","name":"packageID","type":"uint8"},{"internalType":"uint256","name":"selfBusinessUSD","type":"uint256"},{"internalType":"uint256","name":"directBusinessUSD","type":"uint256"},{"internalType":"uint256","name":"teamBusinessUSD","type":"uint256"},{"internalType":"string","name":"rankName","type":"string"},{"internalType":"uint256","name":"reward","type":"uint256"},{"internalType":"uint256","name":"businessLimit","type":"uint256"},{"internalType":"uint256","name":"timeLimit","type":"uint256"},{"internalType":"bool","name":"isOneTimeRewardPaid","type":"bool"},{"internalType":"bool","name":"isPayReccursive","type":"bool"},{"internalType":"uint32[]","name":"achieversList","type":"uint32[]"}],"internalType":"struct ReferralV2Upgradeable.StructPackages","name":"","type":"tuple"}],"stateMutability":"view","type":"function"},{"inputs":[{"internalType":"address","name":"_address","type":"address"}],"name":"getUserAccount","outputs":[{"components":[{"internalType":"bool","name":"isDisabled","type":"bool"},{"internalType":"uint32[]","name":"accountIDs","type":"uint32[]"}],"internalType":"struct ReferralV2Upgradeable.StructAccount","name":"","type":"tuple"}],"stateMutability":"view","type":"function"},{"inputs":[{"internalType":"uint32","name":"_id","type":"uint32"}],"name":"getUserIDROI","outputs":[{"internalType":"uint256","name":"roi","type":"uint256"}],"stateMutability":"view","type":"function"},{"inputs":[{"internalType":"uint32","name":"_id","type":"uint32"}],"name":"getUserUnlockCount","outputs":[{"internalType":"uint256","name":"","type":"uint256"}],"stateMutability":"view","type":"function"},{"inputs":[],"name":"initialize","outputs":[],"stateMutability":"nonpayable","type":"function"},{"inputs":[],"name":"isPayROI","outputs":[{"internalType":"bool","name":"","type":"bool"}],"stateMutability":"view","type":"function"},{"inputs":[],"name":"isPayRoyaltyClubBonus","outputs":[{"internalType":"bool","name":"","type":"bool"}],"stateMutability":"view","type":"function"},{"inputs":[{"internalType":"address","name":"_userAddress","type":"address"}],"name":"isUserDisabledByAdmin","outputs":[{"internalType":"bool","name":"","type":"bool"}],"stateMutability":"view","type":"function"},{"inputs":[{"internalType":"uint256","name":"","type":"uint256"}],"name":"levelRates","outputs":[{"internalType":"uint16","name":"","type":"uint16"}],"stateMutability":"view","type":"function"},{"inputs":[],"name":"maxLevelsCount","outputs":[{"internalType":"uint8","name":"","type":"uint8"}],"stateMutability":"view","type":"function"},{"inputs":[],"name":"minContributionInUSD","outputs":[{"internalType":"uint256","name":"","type":"uint256"}],"stateMutability":"view","type":"function"},{"inputs":[],"name":"owner","outputs":[{"internalType":"address","name":"","type":"address"}],"stateMutability":"view","type":"function"},{"inputs":[],"name":"packagesCount","outputs":[{"internalType":"uint8","name":"","type":"uint8"}],"stateMutability":"view","type":"function"},{"inputs":[],"name":"payRoyaltyClubReccursiveBonusAdmin","outputs":[],"stateMutability":"nonpayable","type":"function"},{"inputs":[],"name":"proxiableUUID","outputs":[{"internalType":"bytes32","name":"","type":"bytes32"}],"stateMutability":"view","type":"function"},{"inputs":[{"internalType":"address","name":"_userAddress","type":"address"}],"name":"removeUserFromDisableList","outputs":[],"stateMutability":"nonpayable","type":"function"},{"inputs":[],"name":"renounceOwnership","outputs":[],"stateMutability":"nonpayable","type":"function"},{"inputs":[],"name":"royaltyClubPackageCount","outputs":[{"internalType":"uint8","name":"","type":"uint8"}],"stateMutability":"view","type":"function"},{"inputs":[{"internalType":"address","name":"_address","type":"address"},{"internalType":"uint256","name":"_value","type":"uint256"}],"name":"sendETHAdmin","outputs":[],"stateMutability":"nonpayable","type":"function"},{"inputs":[{"internalType":"uint16","name":"_value","type":"uint16"}],"name":"setLevelDecimals","outputs":[],"stateMutability":"nonpayable","type":"function"},{"inputs":[{"internalType":"uint8[]","name":"_value","type":"uint8[]"}],"name":"setLevelRates","outputs":[],"stateMutability":"nonpayable","type":"function"},{"inputs":[{"internalType":"uint8","name":"_valueInDecimals","type":"uint8"}],"name":"setMaxLevelsCountAdmin","outputs":[],"stateMutability":"nonpayable","type":"function"},{"inputs":[{"internalType":"address","name":"_contractAddress","type":"address"}],"name":"setPriceOracleContract","outputs":[],"stateMutability":"nonpayable","type":"function"},{"inputs":[{"internalType":"uint8","name":"packageID","type":"uint8"},{"internalType":"uint256","name":"selfBusinessUSD","type":"uint256"},{"internalType":"uint256","name":"directBusinessUSD","type":"uint256"},{"internalType":"uint256","name":"teamBusinessUSD","type":"uint256"},{"internalType":"string","name":"rankName","type":"string"},{"internalType":"uint256","name":"reward","type":"uint256"},{"internalType":"uint256","name":"businessLimit","type":"uint256"},{"internalType":"uint256","name":"timeLimit","type":"uint256"},{"internalType":"bool","name":"isPayReccursive","type":"bool"}],"name":"setRoyaltyClubPackage","outputs":[],"stateMutability":"nonpayable","type":"function"},{"inputs":[{"internalType":"uint8","name":"_valueInDecimals","type":"uint8"}],"name":"setRoyaltyPackageCount","outputs":[],"stateMutability":"nonpayable","type":"function"},{"inputs":[{"internalType":"uint32","name":"_id","type":"uint32"}],"name":"topUpID","outputs":[],"stateMutability":"payable","type":"function"},{"inputs":[],"name":"totalIDs","outputs":[{"internalType":"uint32","name":"","type":"uint32"}],"stateMutability":"view","type":"function"},{"inputs":[],"name":"totalROIIDs","outputs":[{"internalType":"uint32","name":"","type":"uint32"}],"stateMutability":"view","type":"function"},{"inputs":[],"name":"totalRoyaltyClubBonusPaidETH","outputs":[{"internalType":"uint256","name":"","type":"uint256"}],"stateMutability":"view","type":"function"},{"inputs":[],"name":"totalRoyaltyClubBonusPaidUSD","outputs":[{"internalType":"uint256","name":"","type":"uint256"}],"stateMutability":"view","type":"function"},{"inputs":[],"name":"totalUsers","outputs":[{"internalType":"uint32","name":"","type":"uint32"}],"stateMutability":"view","type":"function"},{"inputs":[{"internalType":"address","name":"newOwner","type":"address"}],"name":"transferOwnership","outputs":[],"stateMutability":"nonpayable","type":"function"},{"inputs":[{"internalType":"uint32[]","name":"_userID","type":"uint32[]"},{"internalType":"address[]","name":"_userAddress","type":"address[]"}],"name":"updateIDOldIDtoAddress","outputs":[],"stateMutability":"nonpayable","type":"function"},{"inputs":[{"internalType":"uint32[]","name":"_id","type":"uint32[]"},{"internalType":"string[]","name":"_oldID","type":"string[]"}],"name":"updateOldNewIDsAdmin","outputs":[],"stateMutability":"nonpayable","type":"function"},{"inputs":[{"internalType":"uint32[]","name":"_userID","type":"uint32[]"},{"internalType":"uint256[]","name":"_totalTopUp","type":"uint256[]"},{"internalType":"uint256[]","name":"_limitBalanceUSD","type":"uint256[]"},{"internalType":"uint256[]","name":"_balanceClaimedUSD","type":"uint256[]"},{"internalType":"uint256[]","name":"_joiningTime","type":"uint256[]"},{"internalType":"uint256[]","name":"_activationTime","type":"uint256[]"}],"name":"updateUserIDDataOldAdmin","outputs":[],"stateMutability":"nonpayable","type":"function"},{"inputs":[{"internalType":"address","name":"newImplementation","type":"address"}],"name":"upgradeTo","outputs":[],"stateMutability":"nonpayable","type":"function"},{"inputs":[{"internalType":"address","name":"newImplementation","type":"address"},{"internalType":"bytes","name":"data","type":"bytes"}],"name":"upgradeToAndCall","outputs":[],"stateMutability":"payable","type":"function"},{"inputs":[],"name":"withdrawETHAdmin","outputs":[],"stateMutability":"nonpayable","type":"function"},{"inputs":[{"internalType":"address","name":"_tokenAddress","type":"address"},{"internalType":"uint256","name":"_value","type":"uint256"}],"name":"withdrawTokensAdmin","outputs":[],"stateMutability":"nonpayable","type":"function"},{"stateMutability":"payable","type":"receive"}],"evm":{"bytecode":{"linkReferences":{},"object":"60a06040523060805234801561001457600080fd5b50608051615f706200004d60003960008181610e7b01528181610ec4015281816111ed0152818161122d01526112a90152615f706000f3fe6080604052600436106102995760003560e01c80638129fc1c1161015b578063b92d18c1116100c7578063b92d18c1146107d0578063bff1f9e1146107e3578063cee3f56014610800578063db003b2a14610820578063e1c715ba14610840578063e52356f314610860578063e5682e3814610880578063f2fde38b14610893578063f31a2d0f146108b3578063f41bfeef146108d3578063f830e57b146108e9578063fadffa7014610916578063fafc959714610936578063fb47e0161461095557600080fd5b80638129fc1c146106545780638486e066146106695780638da5cb5b146106895780638df05d9c146106a757806396ed6b85146106c75780639f4e8398146106dd578063a0b6105f146106fd578063a1b801751461071d578063a28a368614610741578063a43ae40814610761578063aa7df4f214610781578063af2f39d114610796578063b47181d3146107b057600080fd5b8063434887801161020557806343488780146104725780634a750822146104925780634b5102b8146104b25780634f1ef286146104d257806352d1902d146104e5578063538ffe0c146104fa5780635e701d8614610543578063715018a61461057c57806376a68e8414610591578063770ceeb1146105b15780637879b5ef146105d15780637a026935146105f15780637bdbf996146106075780637d14db7a1461063457600080fd5b8063012da720146102a557806309de82cd146102db5780630b243dad146102ff5780630efdbb6a1461032157806318e10bff146103415780631f3c4cba1461036d5780631f7f83ba1461038d57806322f88b52146103c55780632913497b146103db5780632ed421d2146103f9578063313ce5671461040f578063357597881461043d5780633659cfe61461045257600080fd5b366102a057005b600080fd5b3480156102b157600080fd5b506102c56102c03660046150c4565b610982565b6040516102d291906150df565b60405180910390f35b3480156102e757600080fd5b506102f160ce5481565b6040519081526020016102d2565b34801561030b57600080fd5b5061031f61031a366004615140565b610a17565b005b34801561032d57600080fd5b5061031f61033c36600461516a565b610a5a565b34801561034d57600080fd5b5060d75461035b9060ff1681565b60405160ff90911681526020016102d2565b34801561037957600080fd5b506102f1610388366004615199565b610a84565b34801561039957600080fd5b506103ad6103a83660046151b4565b610e10565b6040516001600160a01b0390911681526020016102d2565b3480156103d157600080fd5b506102f160d35481565b3480156103e757600080fd5b5060c9546001600160a01b03166103ad565b34801561040557600080fd5b506102f160d45481565b34801561041b57600080fd5b5060cb5461042a9061ffff1681565b60405161ffff90911681526020016102d2565b34801561044957600080fd5b5061031f610e3a565b34801561045e57600080fd5b5061031f61046d36600461516a565b610e71565b34801561047e57600080fd5b5061031f61048d366004615218565b610f3f565b34801561049e57600080fd5b5061031f6104ad36600461534e565b611110565b3480156104be57600080fd5b5061031f6104cd3660046150c4565b6111c5565b61031f6104e03660046153ea565b6111e3565b3480156104f157600080fd5b506102f161129c565b34801561050657600080fd5b5061053361051536600461516a565b6001600160a01b0316600090815260d8602052604090205460ff1690565b60405190151581526020016102d2565b34801561054f57600080fd5b5060cf5461056790600160201b900463ffffffff1681565b60405163ffffffff90911681526020016102d2565b34801561058857600080fd5b5061031f61134a565b34801561059d57600080fd5b506102f16105ac366004615199565b61135e565b3480156105bd57600080fd5b5061031f6105cc366004615199565b611372565b3480156105dd57600080fd5b5061042a6105ec3660046151b4565b611389565b3480156105fd57600080fd5b506102f160cd5481565b34801561061357600080fd5b506106276106223660046150c4565b6113c1565b6040516102d291906154dc565b34801561064057600080fd5b5061031f61064f366004615651565b6115d4565b34801561066057600080fd5b5061031f6116ec565b34801561067557600080fd5b5061031f6106843660046150c4565b611991565b34801561069557600080fd5b506033546001600160a01b03166103ad565b3480156106b357600080fd5b5060cb5461035b9062010000900460ff1681565b3480156106d357600080fd5b506102f160cc5481565b3480156106e957600080fd5b5061031f6106f836600461516a565b6119b7565b34801561070957600080fd5b5061031f610718366004615140565b611a26565b34801561072957600080fd5b5060cf5461056790600160401b900463ffffffff1681565b34801561074d57600080fd5b5060d25461035b9062010000900460ff1681565b34801561076d57600080fd5b5061031f61077c366004615706565b611a9f565b34801561078d57600080fd5b5061031f611abf565b3480156107a257600080fd5b5060d2546105339060ff1681565b3480156107bc57600080fd5b506102f16107cb366004615199565b611e18565b61031f6107de366004615199565b612190565b3480156107ef57600080fd5b5060cf546105679063ffffffff1681565b34801561080c57600080fd5b5061031f61081b366004615218565b61229d565b34801561082c57600080fd5b5061031f61083b36600461572a565b6123a9565b34801561084c57600080fd5b5061031f61085b366004615867565b6124d6565b34801561086c57600080fd5b5061031f61087b36600461516a565b6124ea565b61031f61088e366004615199565b612613565b34801561089f57600080fd5b5061031f6108ae36600461516a565b61276c565b3480156108bf57600080fd5b5061031f6108ce3660046158a8565b6127e2565b3480156108df57600080fd5b506102f160d55481565b3480156108f557600080fd5b50610909610904366004615199565b612944565b6040516102d291906158c4565b34801561092257600080fd5b506102f1610931366004615199565b612da7565b34801561094257600080fd5b5060d25461053390610100900460ff1681565b34801561096157600080fd5b5061097561097036600461516a565b612e0b565b6040516102d29190615ab5565b60ff8116600090815260db6020908152604091829020600901805483518184028101840190945280845260609392830182828015610a0b57602002820191906000526020600020906000905b82829054906101000a900463ffffffff1663ffffffff16815260200190600401906020826003010492830192600103820291508084116109ce5790505b50505050509050919050565b610a1f612eaf565b6040516001600160a01b0383169082156108fc029083906000818181858888f19350505050158015610a55573d6000803e3d6000fd5b505050565b610a62612eaf565b60c980546001600160a01b0319166001600160a01b0392909216919091179055565b63ffffffff808216600090815260d96020908152604080832081516103a081019092528054909416815260018401805493948594929390929084019190610aca90615adc565b80601f0160208091040260200160405190810160405280929190818152602001828054610af690615adc565b8015610b435780601f10610b1857610100808354040283529160200191610b43565b820191906000526020600020905b815481529060010190602001808311610b2657829003601f168201915b5050509183525050600282015460ff811615156020808401919091526101009091046001600160a01b03166040808401919091526003840154606084015260048401546080840152600584015460a084015260068401805482518185028101850190935280835260c0909401939192909190830182828015610c1057602002820191906000526020600020906000905b82829054906101000a900463ffffffff1663ffffffff1681526020019060040190602082600301049283019260010382029150808411610bd35790505b5050509183525050600782015463ffffffff166020808301919091526008830180546040805182850281018501825282815294019392830182828015610ca157602002820191906000526020600020906000905b82829054906101000a900463ffffffff1663ffffffff1681526020019060040190602082600301049283019260010382029150808411610c645790505b5050505050815260200160098201805480602002602001604051908101604052809291908181526020018280548015610d2557602002820191906000526020600020906000905b82829054906101000a900463ffffffff1663ffffffff1681526020019060040190602082600301049283019260010382029150808411610ce85790505b5050509183525050600a8201546020820152600b8201546040820152600c8201546060820152600d8201546080820152600e82015460a0820152600f82015460c0820152601082015460e08201526011820154610100820152601282015460ff1661012082015260138201546101408201526014820154610160820152601582015461018082015260168201546101a082015260178201546101c082015260188201546101e08201526019820154610200820152601a820154610220820152601b9091015461024090910152610300810151610320820151919250610e0991615b26565b9392505050565b60d68181548110610e2057600080fd5b6000918252602090912001546001600160a01b0316905081565b610e42612eaf565b60405133904780156108fc02916000818181858888f19350505050158015610e6e573d6000803e3d6000fd5b50565b6001600160a01b037f0000000000000000000000000000000000000000000000000000000000000000163003610ec25760405162461bcd60e51b8152600401610eb990615b39565b60405180910390fd5b7f00000000000000000000000000000000000000000000000000000000000000006001600160a01b0316610ef4612f09565b6001600160a01b031614610f1a5760405162461bcd60e51b8152600401610eb990615b85565b610f2381612f25565b60408051600080825260208201909252610e6e91839190612f2d565b610f47612eaf565b60005b61ffff811684111561110957600060d9600087878561ffff16818110610f7257610f72615bd1565b9050602002016020810190610f879190615199565b63ffffffff1663ffffffff1681526020019081526020016000209050600060d8600086868661ffff16818110610fbf57610fbf615bd1565b9050602002016020810190610fd4919061516a565b6001600160a01b03166001600160a01b03168152602001908152602001600020905086868461ffff1681811061100c5761100c615bd1565b90506020020160208101906110219190615199565b825463ffffffff191663ffffffff9190911617825560018101878761ffff861681811061105057611050615bd1565b90506020020160208101906110659190615199565b8154600181018355600092835260209092206008830401805460079093166004026101000a63ffffffff818102199094169290931692909202179055848461ffff85168181106110b7576110b7615bd1565b90506020020160208101906110cc919061516a565b8260020160016101000a8154816001600160a01b0302191690836001600160a01b031602179055505050808061110190615be7565b915050610f4a565b5050505050565b611118612eaf565b60ff8916600081815260db60205260409020805460ff19169091178155600181018990556002810188905560038101879055600481016111588782615c56565b5060058101859055600681018490556007810183905560088101805461ff0019166101008415150217905560405160ff8b1681527fa24b8cf512af3c40223886405905578154323d4ba0d3802ec5756b9684ce1b799060200160405180910390a150505050505050505050565b6111cd612eaf565b60d7805460ff191660ff92909216919091179055565b6001600160a01b037f000000000000000000000000000000000000000000000000000000000000000016300361122b5760405162461bcd60e51b8152600401610eb990615b39565b7f00000000000000000000000000000000000000000000000000000000000000006001600160a01b031661125d612f09565b6001600160a01b0316146112835760405162461bcd60e51b8152600401610eb990615b85565b61128c82612f25565b61129882826001612f2d565b5050565b6000306001600160a01b037f000000000000000000000000000000000000000000000000000000000000000016146113375760405162461bcd60e51b815260206004820152603860248201527f555550535570677261646561626c653a206d757374206e6f742062652063616c6044820152771b1959081d1a1c9bdd59da0819195b1959d85d1958d85b1b60421b6064820152608401610eb9565b50600080516020615ef483398151915290565b611352612eaf565b61135c6000613098565b565b6000611369826130ea565b60ff1692915050565b600061137d82613507565b9050611298818361387c565b60ca818154811061139957600080fd5b9060005260206000209060109182820401919006600202915054906101000a900461ffff1681565b611425604051806101600160405280600060ff16815260200160008152602001600081526020016000815260200160608152602001600081526020016000815260200160008152602001600015158152602001600015158152602001606081525090565b60ff808316600090815260db6020908152604091829020825161016081018452815490941684526001810154918401919091526002810154918301919091526003810154606083015260048101805460808401919061148390615adc565b80601f01602080910402602001604051908101604052809291908181526020018280546114af90615adc565b80156114fc5780601f106114d1576101008083540402835291602001916114fc565b820191906000526020600020905b8154815290600101906020018083116114df57829003601f168201915b50505091835250506005820154602080830191909152600683015460408084019190915260078401546060840152600884015460ff8082161515608086015261010090910416151560a084015260098401805482518185028101850190935280835260c09094019391929091908301828280156115c457602002820191906000526020600020906000905b82829054906101000a900463ffffffff1663ffffffff16815260200190600401906020826003010492830192600103820291508084116115875790505b5050505050815250509050919050565b6115dc612eaf565b80518251146116225760405162461bcd60e51b815260206004820152601260248201527113195b99dd1a081b9bdd081b585d18da195960721b6044820152606401610eb9565b60005b82518161ffff161015610a5557600060d96000858461ffff168151811061164e5761164e615bd1565b602002602001015163ffffffff1663ffffffff1681526020019081526020016000209050838261ffff168151811061168857611688615bd1565b6020908102919091010151815463ffffffff191663ffffffff9091161781558251839061ffff84169081106116bf576116bf615bd1565b60200260200101518160010190816116d79190615c56565b505080806116e490615be7565b915050611625565b600054610100900460ff161580801561170c5750600054600160ff909116105b8061172d575061171b30613f4f565b15801561172d575060005460ff166001145b6117905760405162461bcd60e51b815260206004820152602e60248201527f496e697469616c697a61626c653a20636f6e747261637420697320616c72656160448201526d191e481a5b9a5d1a585b1a5e995960921b6064820152608401610eb9565b6000805460ff1916600117905580156117b3576000805461ff0019166101001790555b60c980546001600160a01b03191673f594034b9ab80fdb03560ba3e5c8eea0b0ead16817905560cb805461ffff19166103e8179055604080516103a08101825260648152604660208201526032918101829052606081018290526080810182905260a0810182905260c0810182905260e08101829052610100810182905261012081018290526101408101829052610160810182905261018081018290526101a081018290526101c081018290526101e08101829052610200810182905261022081018290526102408101919091526014610260820181905261028082018190526102a082018190526102c082018190526102e0820181905261030082018190526103208201819052610340820181905261036082018190526103808201526118e09060ca90601d614f86565b5060cb805462ff0000191662320000179055670de0b6b3a764000060cc5560d2805463ff00ffff1916630200010117905560cf805461ffff60601b1916607d60631b17905563020f580060d055601460d15562278d0060d555611941613f5e565b611949613f8d565b8015610e6e576000805461ff0019169055604051600181527f7f26b83ff96e1f2b6a682f133852f6798a09c465da95921460cefb38474024989060200160405180910390a150565b611999612eaf565b60cb805460ff909216620100000262ff000019909216919091179055565b6119bf612eaf565b60d6805460018181019092557fe767803f8ecf1dee6bb0345811f7312cda556058b19db6389ad9ae3568643ddd0180546001600160a01b039093166001600160a01b031990931683179055600091825260d86020526040909120805460ff19169091179055565b611a2e612eaf565b60405163a9059cbb60e01b8152336004820152602481018290526001600160a01b0383169063a9059cbb906044016020604051808303816000875af1158015611a7b573d6000803e3d6000fd5b505050506040513d601f19601f82011682018060405250810190610a559190615d15565b611aa7612eaf565b60cb805461ffff191661ffff92909216919091179055565b611ac7612eaf565b60d75460ff1660005b8160ff168160ff161015611e0b5760ff808216600090815260db602090815260408083208151610160810183528154909516855260018101549285019290925260028201549084015260038101546060840152600481018054929392608084019190611b3b90615adc565b80601f0160208091040260200160405190810160405280929190818152602001828054611b6790615adc565b8015611bb45780601f10611b8957610100808354040283529160200191611bb4565b820191906000526020600020905b815481529060010190602001808311611b9757829003601f168201915b50505091835250506005820154602080830191909152600683015460408084019190915260078401546060840152600884015460ff8082161515608086015261010090910416151560a084015260098401805482518185028101850190935280835260c0909401939192909190830182828015611c7c57602002820191906000526020600020906000905b82829054906101000a900463ffffffff1663ffffffff1681526020019060040190602082600301049283019260010382029150808411611c3f5790505b5050505050815250509050806101200151611c975750611df9565b610140810151805160cb5460a084015160d35460009263ffffffff85169261ffff90911691611cc69190615d32565b611cd09190615d49565b611cda9190615d49565b905060005b8263ffffffff168163ffffffff161015611df357600060d96000868463ffffffff1681518110611d1157611d11615bd1565b602002602001015163ffffffff1663ffffffff16815260200190815260200160002090508560c001518160100154118015611d5457508060190154816018015411155b15611de05782816018016000828254611d6d9190615d6b565b9250508190555082858363ffffffff1681518110611d8d57611d8d615bd1565b602002602001015163ffffffff167f94b6d3d19cc40938e685ef6a1f6476b53ef65295ab094a044e74405a8d0bd05b8860000151604051611dd7919060ff91909116815260200190565b60405180910390a35b5080611deb81615d7e565b915050611cdf565b50505050505b80611e0381615d97565b915050611ad0565b5050600060d3554260d455565b63ffffffff808216600090815260d96020908152604080832081516103a081019092528054909416815260018401805493948594929390929084019190611e5e90615adc565b80601f0160208091040260200160405190810160405280929190818152602001828054611e8a90615adc565b8015611ed75780601f10611eac57610100808354040283529160200191611ed7565b820191906000526020600020905b815481529060010190602001808311611eba57829003601f168201915b5050509183525050600282015460ff811615156020808401919091526101009091046001600160a01b03166040808401919091526003840154606084015260048401546080840152600584015460a084015260068401805482518185028101850190935280835260c0909401939192909190830182828015611fa457602002820191906000526020600020906000905b82829054906101000a900463ffffffff1663ffffffff1681526020019060040190602082600301049283019260010382029150808411611f675790505b5050509183525050600782015463ffffffff16602080830191909152600883018054604080518285028101850182528281529401939283018282801561203557602002820191906000526020600020906000905b82829054906101000a900463ffffffff1663ffffffff1681526020019060040190602082600301049283019260010382029150808411611ff85790505b50505050508152602001600982018054806020026020016040519081016040528092919081815260200182805480156120b957602002820191906000526020600020906000905b82829054906101000a900463ffffffff1663ffffffff168152602001906004019060208260030104928301926001038202915080841161207c5790505b5050509183525050600a8201546020820152600b8201546040820152600c8201546060820152600d8201546080820152600e82015460a0820152600f82015460c0820152601082015460e08201526011820154610100820152601282015460ff1661012082015260138201546101408201526014820154610160820152601582015461018082015260168201546101a082015260178201546101c082015260188201546101e08201526019820154610200820152601a820154610220820152601b90910154610240909101529050610e0981613fb4565b60cc54349061219e90613ff1565b8110156122015760405162461bcd60e51b815260206004820152602b60248201527f56616c75652073686f756c6420626520677265617465207468656e206d696e4360448201526a37b73a3934b13aba34b7b760a91b6064820152608401610eb9565b33600061220d83614087565b60cf54909150429060009061223090600160401b900463ffffffff166001615db6565b63ffffffff8716600090815260d9602052604090206002810154919250906001600160a01b03868116610100909204161461227d5760405162461bcd60e51b8152600401610eb990615dda565b60d25460ff16156122945761229487838686614114565b50505050505050565b6122a5612eaf565b8281146122f45760405162461bcd60e51b815260206004820152601c60248201527f496e707574206c656e677468206469646e6f74206d6174636865642e000000006044820152606401610eb9565b60005b61ffff81168411156111095782828261ffff1681811061231957612319615bd1565b905060200201602081019061232e9190615199565b63ffffffff16156123975761239785858361ffff1681811061235257612352615bd1565b90506020020160208101906123679190615199565b84848461ffff1681811061237d5761237d615bd1565b90506020020160208101906123929190615199565b614279565b806123a181615be7565b9150506122f7565b6123b1612eaf565b60005b8b8110156124c75760008b8b838181106123d0576123d0615bd1565b9050602002013511156124b55760008b8b838181106123f1576123f1615bd1565b9050602002013560036124049190615d32565b90506124b38e8e8481811061241b5761241b615bd1565b90506020020160208101906124309190615199565b8d8d8581811061244257612442615bd1565b90506020020135838d8d8781811061245c5761245c615bd1565b905060200201358c8c8881811061247557612475615bd1565b905060200201358b8b8981811061248e5761248e615bd1565b905060200201358a8a8a8181106124a7576124a7615bd1565b90506020020135614403565b505b806124bf81615e11565b9150506123b4565b50505050505050505050505050565b6124de612eaf565b610a5560ca838361502e565b6124f2612eaf565b6001600160a01b038116600090815260d860205260408120805460ff1916905560d654905b81811015610a5557826001600160a01b031660d6828154811061253c5761253c615bd1565b6000918252602090912001546001600160a01b0316036126015760d6612563600184615b26565b8154811061257357612573615bd1565b60009182526020909120015460d680546001600160a01b03909216918390811061259f5761259f615bd1565b9060005260206000200160006101000a8154816001600160a01b0302191690836001600160a01b0316021790555060d68054806125de576125de615e2a565b600082815260209020810160001990810180546001600160a01b03191690550190555b8061260b81615e11565b915050612517565b34600061261f82614087565b905061262c60cc54613ff1565b82101561267b5760405162461bcd60e51b815260206004820152601f60248201527f56616c75652073686f756c6420626520677265617465207468656e20313030006044820152606401610eb9565b60cf543390429060009061269d90600160201b900463ffffffff166001615db6565b60cf549091506000906126be90600160401b900463ffffffff166001615db6565b6001600160a01b038516600090815260d8602052604090209091506126e38389614279565b60d25460ff16156126fa576126fa83838887614114565b6127218383878961270c816003615d32565b60cb548a90819062010000900460ff166145d7565b6001908101805491820181556000908152602090206008820401805460079092166004026101000a63ffffffff81810219909316949092169190910292909217909155505050505050565b612774612eaf565b6001600160a01b0381166127d95760405162461bcd60e51b815260206004820152602660248201527f4f776e61626c653a206e6577206f776e657220697320746865207a65726f206160448201526564647265737360d01b6064820152608401610eb9565b610e6e81613098565b63ffffffff8216600090815260d960205260409020600281015460ff161561283f5760405162461bcd60e51b815260206004820152601060248201526f4944206973206e6f742061637469766560801b6044820152606401610eb9565b600281015461010090046001600160a01b031633146128705760405162461bcd60e51b8152600401610eb990615dda565b600061287b826149d9565b601783015490915061288d8183615b26565b8411156128ef5760405162461bcd60e51b815260206004820152602a60248201527f506c6561736520656e7465722076616c7565206c657373207468656e20796f7560448201526939103130b630b731b29760b11b6064820152608401610eb9565b838360170160008282546129039190615d6b565b9091555050604051339085156108fc029086906000818181858888f19350505050158015612935573d6000803e3d6000fd5b508260190154612294846149d9565b612a39604051806103a00160405280600063ffffffff1681526020016060815260200160001515815260200160006001600160a01b0316815260200160008152602001600081526020016000815260200160608152602001600063ffffffff16815260200160608152602001606081526020016000815260200160008152602001600081526020016000815260200160008152602001600081526020016000815260200160008152602001600060ff1681526020016000815260200160008152602001600081526020016000815260200160008152602001600081526020016000815260200160008152602001600081525090565b63ffffffff808316600090815260d9602090815260409182902082516103a081019093528054909316825260018301805492939291840191612a7a90615adc565b80601f0160208091040260200160405190810160405280929190818152602001828054612aa690615adc565b8015612af35780601f10612ac857610100808354040283529160200191612af3565b820191906000526020600020905b815481529060010190602001808311612ad657829003601f168201915b5050509183525050600282015460ff811615156020808401919091526101009091046001600160a01b03166040808401919091526003840154606084015260048401546080840152600584015460a084015260068401805482518185028101850190935280835260c0909401939192909190830182828015612bc057602002820191906000526020600020906000905b82829054906101000a900463ffffffff1663ffffffff1681526020019060040190602082600301049283019260010382029150808411612b835790505b5050509183525050600782015463ffffffff166020808301919091526008830180546040805182850281018501825282815294019392830182828015612c5157602002820191906000526020600020906000905b82829054906101000a900463ffffffff1663ffffffff1681526020019060040190602082600301049283019260010382029150808411612c145790505b5050505050815260200160098201805480602002602001604051908101604052809291908181526020018280548015612cd557602002820191906000526020600020906000905b82829054906101000a900463ffffffff1663ffffffff1681526020019060040190602082600301049283019260010382029150808411612c985790505b5050509183525050600a8201546020820152600b8201546040820152600c8201546060820152600d8201546080820152600e82015460a0820152600f82015460c0820152601082015460e08201526011820154610100820152601282015460ff1661012082015260138201546101408201526014820154610160820152601582015461018082015260168201546101a082015260178201546101c082015260188201546101e08201526019820154610200820152601a820154610220820152601b909101546102409091015292915050565b63ffffffff8116600090815260d96020526040812081612dc684614a01565b90508160190154818360180154612ddd9190615d6b565b11612dea57809250612e04565b600082601801548360190154612e009190615b26565b9350505b5050919050565b6040805180820190915260008152606060208201526001600160a01b038216600090815260d8602090815260409182902082518084018452815460ff1615158152600182018054855181860281018601909652808652919492938581019392908301828280156115c4576000918252602091829020805463ffffffff1684529082028301929091600491018084116115875790505050505050815250509050919050565b6033546001600160a01b0316331461135c5760405162461bcd60e51b815260206004820181905260248201527f4f776e61626c653a2063616c6c6572206973206e6f7420746865206f776e65726044820152606401610eb9565b600080516020615ef4833981519152546001600160a01b031690565b610e6e612eaf565b7f4910fdfa16fed3260ed0e7147f7cc6da11a60208b5b9406d12a635614ffd91435460ff1615612f6057610a5583614adb565b826001600160a01b03166352d1902d6040518163ffffffff1660e01b8152600401602060405180830381865afa925050508015612fba575060408051601f3d908101601f19168201909252612fb791810190615e40565b60015b61301d5760405162461bcd60e51b815260206004820152602e60248201527f45524331393637557067726164653a206e657720696d706c656d656e7461746960448201526d6f6e206973206e6f74205555505360901b6064820152608401610eb9565b600080516020615ef4833981519152811461308c5760405162461bcd60e51b815260206004820152602960248201527f45524331393637557067726164653a20756e737570706f727465642070726f786044820152681a58589b195555525160ba1b6064820152608401610eb9565b50610a55838383614b75565b603380546001600160a01b038381166001600160a01b0319831681179093556040519116919082907f8be0079c531659141344cd1fd0a4f28419497f9722a3daafe3b4186f6b6457e090600090a35050565b63ffffffff808216600090815260d96020908152604080832081516103a08101909252805490941681526001840180549394859492939092908401919061313090615adc565b80601f016020809104026020016040519081016040528092919081815260200182805461315c90615adc565b80156131a95780601f1061317e576101008083540402835291602001916131a9565b820191906000526020600020905b81548152906001019060200180831161318c57829003601f168201915b5050509183525050600282015460ff811615156020808401919091526101009091046001600160a01b03166040808401919091526003840154606084015260048401546080840152600584015460a084015260068401805482518185028101850190935280835260c090940193919290919083018282801561327657602002820191906000526020600020906000905b82829054906101000a900463ffffffff1663ffffffff16815260200190600401906020826003010492830192600103820291508084116132395790505b5050509183525050600782015463ffffffff16602080830191909152600883018054604080518285028101850182528281529401939283018282801561330757602002820191906000526020600020906000905b82829054906101000a900463ffffffff1663ffffffff16815260200190600401906020826003010492830192600103820291508084116132ca5790505b505050505081526020016009820180548060200260200160405190810160405280929190818152602001828054801561338b57602002820191906000526020600020906000905b82829054906101000a900463ffffffff1663ffffffff168152602001906004019060208260030104928301926001038202915080841161334e5790505b5050509183525050600a8201546020820152600b8201546040820152600c8201546060820152600d8201546080820152600e82015460a0820152600f82015460c0820152601082015460e08201526011820154610100820152601282015460ff90811661012083015260138301546101408301526014830154610160830152601583015461018083015260168301546101a083015260178301546101c083015260188301546101e08301526019830154610200830152601a830154610220830152601b909201546102409091015260d7549192501660005b8160ff168160ff1610156134ff5760ff8116600090815260db6020526040902060010154610160840151108015906134b5575060ff8116600090815260db60205260409020600201546101a084015110155b80156134db575060ff8116600090815260db60205260409020600301546101e084015110155b156134e8578093506134ed565b6134ff565b806134f781615d97565b915050613463565b505050919050565b60d9602090815263ffffffff8216600090815260408082206006810180548351818702810187019094528084529394600080516020615ed483398151915294929386939092918301828280156135a857602002820191906000526020600020906000905b82829054906101000a900463ffffffff1663ffffffff168152602001906004019060208260030104928301926001038202915080841161356b5790505b505050505090508160020160019054906101000a90046001600160a01b03166001600160a01b0316336001600160a01b0316146135f75760405162461bcd60e51b8152600401610eb990615dda565b60d15482601b01546136099190615d6b565b4210156136685760405162461bcd60e51b815260206004820152602760248201527f596f7520726f6920636c61696d2074696d656c696d6974206973206e6f74206f6044820152660eccae440f2cad60cb1b6064820152608401610eb9565b6000805b825181101561372157600060da600085848151811061368d5761368d615bd1565b602002602001015163ffffffff1663ffffffff16815260200190815260200160002090506136d38483815181106136c6576136c6615bd1565b6020026020010151614ba0565b6136dd9084615d6b565b92506136f48483815181106136c6576136c6615bd1565b8160050160008282546137079190615d6b565b90915550829150613719905081615e11565b91505061366c565b5082601901548184601801546137379190615d6b565b116137cf57808360180160008282546137509190615d6b565b925050819055508083601a01600082825461376b9190615d6b565b909155505042601b84015560188401805482919060009061378d908490615d6b565b90915550506040519094508490819063ffffffff8816907f7cd8783637a6bf8d3b4b69973a28720cfb0f5abc55d8b85dde1732d8f22c0efc90600090a3613873565b6000836018015484601901546137e59190615b26565b9050808763ffffffff167f7cd8783637a6bf8d3b4b69973a28720cfb0f5abc55d8b85dde1732d8f22c0efc60405160405180910390a3836019015484601801819055508084601a01600082825461383c9190615d6b565b909155505042601b85015560188501805482919060009061385e908490615d6b565b9250508190555080955061387184614c56565b505b50505050919050565b600060ca8054806020026020016040519081016040528092919081815260200182805480156138f257602002820191906000526020600020906000905b82829054906101000a900461ffff1661ffff16815260200190600201906020826001010492830192600103820291508084116138b95790505b5050835163ffffffff8716600090815260d96020526040812081805295965090949350600080516020615ed483398151915292509050805b84811015613f2c57600784015463ffffffff16600081815260d960205260409020600281015461010090046001600160a01b0316613969575050613f2c565b600281015460ff16156139e357604051725265666572657220697320496e61637469766560681b81526013015b6040519081900390206139aa846001615d6b565b60405163ffffffff8516907f6bd4a1cb98fe02ede79e45b5749c74ff512165c4fb80ce4045eebef0e4e867dc90600090a450613f1a9050565b8060190154816018015410613abe576040517f5265616368656420746865206c696d69742e205265666572657220697320496e815267030b1ba34bb3297160c51b6020820152602801604051908190039020613a40846001615d6b565b60405163ffffffff8516907f6bd4a1cb98fe02ede79e45b5749c74ff512165c4fb80ce4045eebef0e4e867dc90600090a4613a7a81614d7e565b805460405163ffffffff90911681527fd13a3fe87e20364852910ef677df51f59e843df0dc53fa5449acde0af7ec822d9060200160405180910390a150613f1a9050565b604080516103a08101909152815463ffffffff168152600182018054613e1c92918491602084019190613af090615adc565b80601f0160208091040260200160405190810160405280929190818152602001828054613b1c90615adc565b8015613b695780601f10613b3e57610100808354040283529160200191613b69565b820191906000526020600020905b815481529060010190602001808311613b4c57829003601f168201915b5050509183525050600282015460ff811615156020808401919091526101009091046001600160a01b03166040808401919091526003840154606084015260048401546080840152600584015460a084015260068401805482518185028101850190935280835260c0909401939192909190830182828015613c3657602002820191906000526020600020906000905b82829054906101000a900463ffffffff1663ffffffff1681526020019060040190602082600301049283019260010382029150808411613bf95790505b5050509183525050600782015463ffffffff166020808301919091526008830180546040805182850281018501825282815294019392830182828015613cc757602002820191906000526020600020906000905b82829054906101000a900463ffffffff1663ffffffff1681526020019060040190602082600301049283019260010382029150808411613c8a5790505b5050505050815260200160098201805480602002602001604051908101604052809291908181526020018280548015613d4b57602002820191906000526020600020906000905b82829054906101000a900463ffffffff1663ffffffff1681526020019060040190602082600301049283019260010382029150808411613d0e5790505b5050509183525050600a8201546020820152600b8201546040820152600c8201546060820152600d8201546080820152600e82015460a0820152600f82015460c0820152601082015460e08201526011820154610100820152601282015460ff1661012082015260138201546101408201526014820154610160820152601582015461018082015260168201546101a082015260178201546101c082015260188201546101e08201526019820154610200820152601a820154610220820152601b9091015461024090910152613fb4565b613e27846001615d6b565b1115613e5b576040517f446f776e6c696e65206c6576656c73206c696d697420726561636865640000008152601d01613996565b60cb54885160009161ffff16908a9086908110613e7a57613e7a615bd1565b602002602001015161ffff168c613e919190615d32565b613e9b9190615d49565b905080826014016000828254613eb19190615d6b565b90915550613ec190508282614d96565b613ecb8186615d6b565b94508063ffffffff808516908c167f516e026aa0a8e23fcb20eebf31df57c3e9df29f305428f45e22d048a8582dfa0613f05886001615d6b565b60405190815260200160405180910390a45050505b80613f2481615e11565b91505061392a565b5080826014016000828254613f419190615d6b565b909155505050505050505050565b6001600160a01b03163b151590565b600054610100900460ff16613f855760405162461bcd60e51b8152600401610eb990615e59565b61135c614dce565b600054610100900460ff1661135c5760405162461bcd60e51b8152600401610eb990615e59565b61012081015151600090818115610e095760d254600190613fdf906301000000900460ff1684615d32565b613fe99190615b26565b949350505050565b60008060c960009054906101000a90046001600160a01b03166001600160a01b031663e1aa60366040518163ffffffff1660e01b8152600401602060405180830381865afa158015614047573d6000803e3d6000fd5b505050506040513d601f19601f8201168201806040525081019061406b9190615e40565b61407d84670de0b6b3a7640000615d32565b610e099190615d49565b600080670de0b6b3a764000060c960009054906101000a90046001600160a01b03166001600160a01b031663e1aa60366040518163ffffffff1660e01b8152600401602060405180830381865afa1580156140e6573d6000803e3d6000fd5b505050506040513d601f19601f8201168201806040525081019061410a9190615e40565b61407d9085615d32565b63ffffffff838116600081815260da6020908152604080832089861680855260d984529184208154600164ffffffffff1990911661010094850217811783558083018a905560cf8054600285018054600160601b90920461ffff1661ffff19909216919091179055600384018a905560d0546004808601919091556006840180548085018255908952968820600880890490910180546007998a168402890a808e0219909116908c021790557f665fecb6766038646257fb3193371280b91d4ee69f1071872c4c7b974431a48e805494850181559098527fc8603854b1d3ddadaf293944c48ee514c510733f3cc1a6765bf9de45489a2d91888404018054939097160290940a8089021990911696029590951790925580549194600080516020615ed483398151915293600160401b909304169161425183615d7e565b91906101000a81548163ffffffff021916908363ffffffff1602179055505050505050505050565b63ffffffff828116600081815260d9602052604080822060078101805463ffffffff191695871695861790559051909392917f9d714438ba618019cc2b8621dcd2550337e162be58654470ea30d48479fe832091a360cb5462010000900460ff1660005b8160ff1681101561110957600783015463ffffffff16600090815260d9602052604081209082900361434b576008818101805460018101825560009182526020909120918104909101805460079092166004026101000a63ffffffff81810219909316928916029190911790555b835463ffffffff166000036143605750611109565b600981018054600181018255600091825260209182902060088204018054600792831660040261010090810a63ffffffff818102199093168c84169182021790935560028601549389015460405190831681529294918a1693046001600160a01b0316917fa7fafc728ec30e34dc1e1276496bf3eb44ca7494679da969455289e6a8f0f1f6910160405180910390a49250806143fb81615e11565b9150506142dd565b63ffffffff8716600090815260d96020526040902060cb546003820184905560048201839055600b82018890556014820187905562010000900460ff168587106144805760028201805460ff191660011790556000601783018190556018830181905560198301819055601683015561447b82614c56565b6144e4565b6017820185905560188201879055601982018690556016820180548991906000906144ac908490615d6b565b909155505060d25460ff16156144e45760cf546144e4908a906144dd90600160401b900463ffffffff166001615db6565b8a86614114565b60005b8160ff168160ff1610156145cb57600783015463ffffffff908116600081815260d96020526040902080549192909116156145235750506145cb565b8260ff16600003614548578a81600d0160008282546145429190615d6b565b90915550505b8a81600f01600082825461455c9190615d6b565b92505081905550806009018c90806001815401808255809150506001900390600052602060002090600891828204019190066004029091909190916101000a81548163ffffffff021916908363ffffffff160217905550809450505080806145c390615d97565b9150506144e7565b50505050505050505050565b63ffffffff808916600081815260d96020908152604082206002810180546001600160a01b038d16610100908102610100600160a81b031990921691909117909155600682018054600181018255908552928420600884040180548e881660046007909616860290930a928302929097021990961617909455600384018790558301859055825463ffffffff1916909117825560198201869055600a82018054889290614685908490615d6b565b90915550600090505b8260ff168160ff16101561499157600782015463ffffffff16600081815260d960205260409020600281015461010090046001600160a01b03166146d3575050614991565b8260ff166000036146f8578881600c0160008282546146f29190615d6b565b90915550505b8881600e01600082825461470c9190615d6b565b9091555050601281015460ff16614722836130ea565b60ff16111561493e57614734826130ea565b60128201805460ff191660ff9283169081178255600090815260db6020908152604080832060099081018054600181810183559186529385206008850401805460079095166004026101000a63ffffffff81810219909616958b1602949094179093559354909416825292902001546147ad9190615b26565b6013820181905560128201546040805163ffffffff86168152602081019390935260ff90911682820152517fb0d3a9c683344e744a1ae3db383f75a8a01851282c5fe97d6159c1392a2e2a0a9181900360600190a160db600061480f846130ea565b60ff9081168252602082019290925260400160002060080154610100900416156148aa5760db6000614840846130ea565b60ff1660ff1681526020019081526020016000206007015481601101546148679190615d6b565b421115614896574281601101819055508881601001600082825461488b9190615d6b565b9091555061493e9050565b8881601001600082825461488b9190615d6b565b60d254610100900460ff161561493e57601281015460ff16600090815260db60205260409020600501546148df908290614d96565b601281015460ff908116600090815260db602090815260409182902060058101549054925192909316825263ffffffff8516917f94b6d3d19cc40938e685ef6a1f6476b53ef65295ab094a044e74405a8d0bd05b910160405180910390a35b60d55460d45461494e9190615d6b565b421115614963574260d45560d389905561497b565b8860d360008282546149759190615d6b565b90915550505b925081905061498981615d97565b91505061468e565b5060cf8054600160201b900463ffffffff169060046149af83615d7e565b91906101000a81548163ffffffff021916908363ffffffff16021790555050505050505050505050565b60008160190154826018015410156149f55781601801546149fb565b81601901545b92915050565b63ffffffff8116600090815260d96020908152604080832060060180548251818502810185019093528083528493830182828015614a8a57602002820191906000526020600020906000905b82829054906101000a900463ffffffff1663ffffffff1681526020019060040190602082600301049283019260010382029150808411614a4d5790505b505083519394506000925050505b818161ffff1610156134ff57614abd838261ffff16815181106136c6576136c6615bd1565b614ac79085615d6b565b935080614ad381615be7565b915050614a98565b614ae481613f4f565b614b465760405162461bcd60e51b815260206004820152602d60248201527f455243313936373a206e657720696d706c656d656e746174696f6e206973206e60448201526c1bdd08184818dbdb9d1c9858dd609a1b6064820152608401610eb9565b600080516020615ef483398151915280546001600160a01b0319166001600160a01b0392909216919091179055565b614b7e83614dfe565b600082511180614b8b5750805b15610a5557614b9a8383614e3e565b50505050565b63ffffffff8116600090815260da60205260408120805460ff1615614c4b5760d05460cb5460cf5460018401544293600093909261ffff91821692614bf092600160601b90920490911690615d32565b614bfa9190615d49565b614c049190615d49565b90506000836003015483614c189190615b26565b90508360050154614c2d828660040154614f30565b614c379084615d32565b614c419190615b26565b9450505050614c50565b600091505b50919050565b600081600601805480602002602001604051908101604052809291908181526020018280548015614cd257602002820191906000526020600020906000905b82829054906101000a900463ffffffff1663ffffffff1681526020019060040190602082600301049283019260010382029150808411614c955790505b5050505050905060005b8151811015610a555760da6000838381518110614cfb57614cfb615bd1565b60209081029190910181015163ffffffff1682528101919091526040016000205460ff1615614d6c57600060da6000848481518110614d3c57614d3c615bd1565b60209081029190910181015163ffffffff168252810191909152604001600020805460ff19169115159190911790555b80614d7681615e11565b915050614cdc565b60028101805460ff19166001179055610e6e81614c56565b8160190154818360180154614dab9190615d6b565b10614dbe57601982015460188301555050565b808260180154610a559190615d6b565b600054610100900460ff16614df55760405162461bcd60e51b8152600401610eb990615e59565b61135c33613098565b614e0781614adb565b6040516001600160a01b038216907fbc7cd75a20ee27fd9adebab32041f755214dbc6bffa90cc0225b39da2e5c2d3b90600090a250565b6060614e4983613f4f565b614ea45760405162461bcd60e51b815260206004820152602660248201527f416464726573733a2064656c65676174652063616c6c20746f206e6f6e2d636f6044820152651b9d1c9858dd60d21b6064820152608401610eb9565b600080846001600160a01b031684604051614ebf9190615ea4565b600060405180830381855af49150503d8060008114614efa576040519150601f19603f3d011682016040523d82523d6000602084013e614eff565b606091505b5091509150614f278282604051806060016040528060278152602001615f1460279139614f48565b95945050505050565b600081831115614f415750806149fb565b5090919050565b60608315614f57575081610e09565b610e098383815115614f6c5781518083602001fd5b8060405162461bcd60e51b8152600401610eb99190615ec0565b82805482825590600052602060002090600f0160109004810192821561501e5791602002820160005b83821115614fee57835183826101000a81548161ffff021916908360ff1602179055509260200192600201602081600101049283019260010302614faf565b801561501c5782816101000a81549061ffff0219169055600201602081600101049283019260010302614fee565b505b5061502a929150615099565b5090565b82805482825590600052602060002090600f0160109004810192821561501e5791602002820160005b83821115614fee57833560ff1683826101000a81548161ffff021916908360ff1602179055509260200192600201602081600101049283019260010302615057565b5b8082111561502a576000815560010161509a565b803560ff811681146150bf57600080fd5b919050565b6000602082840312156150d657600080fd5b610e09826150ae565b6020808252825182820181905260009190848201906040850190845b8181101561511d57835163ffffffff16835292840192918401916001016150fb565b50909695505050505050565b80356001600160a01b03811681146150bf57600080fd5b6000806040838503121561515357600080fd5b61515c83615129565b946020939093013593505050565b60006020828403121561517c57600080fd5b610e0982615129565b803563ffffffff811681146150bf57600080fd5b6000602082840312156151ab57600080fd5b610e0982615185565b6000602082840312156151c657600080fd5b5035919050565b60008083601f8401126151df57600080fd5b5081356001600160401b038111156151f657600080fd5b6020830191508360208260051b850101111561521157600080fd5b9250929050565b6000806000806040858703121561522e57600080fd5b84356001600160401b038082111561524557600080fd5b615251888389016151cd565b9096509450602087013591508082111561526a57600080fd5b50615277878288016151cd565b95989497509550505050565b634e487b7160e01b600052604160045260246000fd5b604051601f8201601f191681016001600160401b03811182821017156152c1576152c1615283565b604052919050565b60006001600160401b038311156152e2576152e2615283565b6152f5601f8401601f1916602001615299565b905082815283838301111561530957600080fd5b828260208301376000602084830101529392505050565b600082601f83011261533157600080fd5b610e09838335602085016152c9565b8015158114610e6e57600080fd5b60008060008060008060008060006101208a8c03121561536d57600080fd5b6153768a6150ae565b985060208a0135975060408a0135965060608a0135955060808a01356001600160401b038111156153a657600080fd5b6153b28c828d01615320565b95505060a08a0135935060c08a0135925060e08a013591506101008a01356153d981615340565b809150509295985092959850929598565b600080604083850312156153fd57600080fd5b61540683615129565b915060208301356001600160401b0381111561542157600080fd5b8301601f8101851361543257600080fd5b615441858235602084016152c9565b9150509250929050565b60005b8381101561546657818101518382015260200161544e565b50506000910152565b6000815180845261548781602086016020860161544b565b601f01601f19169290920160200192915050565b600081518084526020808501945080840160005b838110156154d157815163ffffffff16875295820195908201906001016154af565b509495945050505050565b602081526154f060208201835160ff169052565b602082015160408201526040820151606082015260608201516080820152600060808301516101608060a085015261552c61018085018361546f565b915060a085015160c085015260c085015160e085015260e08501516101008181870152808701519150506101206155668187018315159052565b860151905061014061557b8682018315159052565b860151858403601f1901838701529050615595838261549b565b9695505050505050565b60006001600160401b038211156155b8576155b8615283565b5060051b60200190565b600082601f8301126155d357600080fd5b813560206155e86155e38361559f565b615299565b82815260059290921b8401810191818101908684111561560757600080fd5b8286015b848110156156465780356001600160401b0381111561562a5760008081fd5b6156388986838b0101615320565b84525091830191830161560b565b509695505050505050565b6000806040838503121561566457600080fd5b82356001600160401b038082111561567b57600080fd5b818501915085601f83011261568f57600080fd5b8135602061569f6155e38361559f565b82815260059290921b840181019181810190898411156156be57600080fd5b948201945b838610156156e3576156d486615185565b825294820194908201906156c3565b965050860135925050808211156156f957600080fd5b50615441858286016155c2565b60006020828403121561571857600080fd5b813561ffff81168114610e0957600080fd5b60008060008060008060008060008060008060c08d8f03121561574c57600080fd5b6001600160401b038d35111561576157600080fd5b61576e8e8e358f016151cd565b909c509a506001600160401b0360208e0135111561578b57600080fd5b61579b8e60208f01358f016151cd565b909a5098506001600160401b0360408e013511156157b857600080fd5b6157c88e60408f01358f016151cd565b90985096506001600160401b0360608e013511156157e557600080fd5b6157f58e60608f01358f016151cd565b90965094506001600160401b0360808e0135111561581257600080fd5b6158228e60808f01358f016151cd565b90945092506001600160401b0360a08e0135111561583f57600080fd5b61584f8e60a08f01358f016151cd565b81935080925050509295989b509295989b509295989b565b6000806020838503121561587a57600080fd5b82356001600160401b0381111561589057600080fd5b61589c858286016151cd565b90969095509350505050565b600080604083850312156158bb57600080fd5b61515c83615185565b602081526158db60208201835163ffffffff169052565b600060208301516103a08060408501526158f96103c085018361546f565b9150604085015161590e606086018215159052565b5060608501516001600160a01b038116608086015250608085015160a085015260a085015160c085015260c085015160e085015260e0850151601f19610100818786030181880152615960858461549b565b94508088015192505061012061597d8188018463ffffffff169052565b8088015192505061014081878603018188015261599a858461549b565b9450808801519250506101608187860301818801526159b9858461549b565b90880151610180888101919091528801516101a0808901919091528801516101c0808901919091528801516101e0808901919091528801516102008089019190915288015161022080890191909152880151610240808901919091528801516102608089019190915288015190945091506102809050615a3d8187018360ff169052565b8601516102a0868101919091528601516102c0808701919091528601516102e08087019190915286015161030080870191909152860151610320808701919091528601516103408087019190915286015161036080870191909152860151610380808701919091529095015193019290925250919050565b6020815281511515602082015260006020830151604080840152613fe9606084018261549b565b600181811c90821680615af057607f821691505b602082108103614c5057634e487b7160e01b600052602260045260246000fd5b634e487b7160e01b600052601160045260246000fd5b818103818111156149fb576149fb615b10565b6020808252602c908201527f46756e6374696f6e206d7573742062652063616c6c6564207468726f7567682060408201526b19195b1959d85d1958d85b1b60a21b606082015260800190565b6020808252602c908201527f46756e6374696f6e206d7573742062652063616c6c6564207468726f7567682060408201526b6163746976652070726f787960a01b606082015260800190565b634e487b7160e01b600052603260045260246000fd5b600061ffff808316818103615bfe57615bfe615b10565b6001019392505050565b601f821115610a5557600081815260208120601f850160051c81016020861015615c2f5750805b601f850160051c820191505b81811015615c4e57828155600101615c3b565b505050505050565b81516001600160401b03811115615c6f57615c6f615283565b615c8381615c7d8454615adc565b84615c08565b602080601f831160018114615cb85760008415615ca05750858301515b600019600386901b1c1916600185901b178555615c4e565b600085815260208120601f198616915b82811015615ce757888601518255948401946001909101908401615cc8565b5085821015615d055787850151600019600388901b60f8161c191681555b5050505050600190811b01905550565b600060208284031215615d2757600080fd5b8151610e0981615340565b80820281158282048414176149fb576149fb615b10565b600082615d6657634e487b7160e01b600052601260045260246000fd5b500490565b808201808211156149fb576149fb615b10565b600063ffffffff808316818103615bfe57615bfe615b10565b600060ff821660ff8103615dad57615dad615b10565b60010192915050565b63ffffffff818116838216019080821115615dd357615dd3615b10565b5092915050565b6020808252601d908201527f596f7520617265206e6f74206f776e6572206f6620746869732069642e000000604082015260600190565b600060018201615e2357615e23615b10565b5060010190565b634e487b7160e01b600052603160045260246000fd5b600060208284031215615e5257600080fd5b5051919050565b6020808252602b908201527f496e697469616c697a61626c653a20636f6e7472616374206973206e6f74206960408201526a6e697469616c697a696e6760a81b606082015260800190565b60008251615eb681846020870161544b565b9190910192915050565b602081526000610e09602083018461546f56fe665fecb6766038646257fb3193371280b91d4ee69f1071872c4c7b974431a488360894a13ba1a3210667c828492db98dca3e2076cc3735a920a3ca505d382bbc416464726573733a206c6f772d6c6576656c2064656c65676174652063616c6c206661696c6564a2646970667358221220a122b4f29c90d4ae89011ca2b580f371a32f80a39aa6414d77d77b291bfe5e1464736f6c63430008110033","opcodes":"PUSH1 0xA0 PUSH1 0x40 MSTORE ADDRESS PUSH1 0x80 MSTORE CALLVALUE DUP1 ISZERO PUSH2 0x14 JUMPI PUSH1 0x0 DUP1 REVERT JUMPDEST POP PUSH1 0x80 MLOAD PUSH2 0x5F70 PUSH3 0x4D PUSH1 0x0 CODECOPY PUSH1 0x0 DUP2 DUP2 PUSH2 0xE7B ADD MSTORE DUP2 DUP2 PUSH2 0xEC4 ADD MSTORE DUP2 DUP2 PUSH2 0x11ED ADD MSTORE DUP2 DUP2 PUSH2 0x122D ADD MSTORE PUSH2 0x12A9 ADD MSTORE PUSH2 0x5F70 PUSH1 0x0 RETURN INVALID PUSH1 0x80 PUSH1 0x40 MSTORE PUSH1 0x4 CALLDATASIZE LT PUSH2 0x299 JUMPI PUSH1 0x0 CALLDATALOAD PUSH1 0xE0 SHR DUP1 PUSH4 0x8129FC1C GT PUSH2 0x15B JUMPI DUP1 PUSH4 0xB92D18C1 GT PUSH2 0xC7 JUMPI DUP1 PUSH4 0xB92D18C1 EQ PUSH2 0x7D0 JUMPI DUP1 PUSH4 0xBFF1F9E1 EQ PUSH2 0x7E3 JUMPI DUP1 PUSH4 0xCEE3F560 EQ PUSH2 0x800 JUMPI DUP1 PUSH4 0xDB003B2A EQ PUSH2 0x820 JUMPI DUP1 PUSH4 0xE1C715BA EQ PUSH2 0x840 JUMPI DUP1 PUSH4 0xE52356F3 EQ PUSH2 0x860 JUMPI DUP1 PUSH4 0xE5682E38 EQ PUSH2 0x880 JUMPI DUP1 PUSH4 0xF2FDE38B EQ PUSH2 0x893 JUMPI DUP1 PUSH4 0xF31A2D0F EQ PUSH2 0x8B3 JUMPI DUP1 PUSH4 0xF41BFEEF EQ PUSH2 0x8D3 JUMPI DUP1 PUSH4 0xF830E57B EQ PUSH2 0x8E9 JUMPI DUP1 PUSH4 0xFADFFA70 EQ PUSH2 0x916 JUMPI DUP1 PUSH4 0xFAFC9597 EQ PUSH2 0x936 JUMPI DUP1 PUSH4 0xFB47E016 EQ PUSH2 0x955 JUMPI PUSH1 0x0 DUP1 REVERT JUMPDEST DUP1 PUSH4 0x8129FC1C EQ PUSH2 0x654 JUMPI DUP1 PUSH4 0x8486E066 EQ PUSH2 0x669 JUMPI DUP1 PUSH4 0x8DA5CB5B EQ PUSH2 0x689 JUMPI DUP1 PUSH4 0x8DF05D9C EQ PUSH2 0x6A7 JUMPI DUP1 PUSH4 0x96ED6B85 EQ PUSH2 0x6C7 JUMPI DUP1 PUSH4 0x9F4E8398 EQ PUSH2 0x6DD JUMPI DUP1 PUSH4 0xA0B6105F EQ PUSH2 0x6FD JUMPI DUP1 PUSH4 0xA1B80175 EQ PUSH2 0x71D JUMPI DUP1 PUSH4 0xA28A3686 EQ PUSH2 0x741 JUMPI DUP1 PUSH4 0xA43AE408 EQ PUSH2 0x761 JUMPI DUP1 PUSH4 0xAA7DF4F2 EQ PUSH2 0x781 JUMPI DUP1 PUSH4 0xAF2F39D1 EQ PUSH2 0x796 JUMPI DUP1 PUSH4 0xB47181D3 EQ PUSH2 0x7B0 JUMPI PUSH1 0x0 DUP1 REVERT JUMPDEST DUP1 PUSH4 0x43488780 GT PUSH2 0x205 JUMPI DUP1 PUSH4 0x43488780 EQ PUSH2 0x472 JUMPI DUP1 PUSH4 0x4A750822 EQ PUSH2 0x492 JUMPI DUP1 PUSH4 0x4B5102B8 EQ PUSH2 0x4B2 JUMPI DUP1 PUSH4 0x4F1EF286 EQ PUSH2 0x4D2 JUMPI DUP1 PUSH4 0x52D1902D EQ PUSH2 0x4E5 JUMPI DUP1 PUSH4 0x538FFE0C EQ PUSH2 0x4FA JUMPI DUP1 PUSH4 0x5E701D86 EQ PUSH2 0x543 JUMPI DUP1 PUSH4 0x715018A6 EQ PUSH2 0x57C JUMPI DUP1 PUSH4 0x76A68E84 EQ PUSH2 0x591 JUMPI DUP1 PUSH4 0x770CEEB1 EQ PUSH2 0x5B1 JUMPI DUP1 PUSH4 0x7879B5EF EQ PUSH2 0x5D1 JUMPI DUP1 PUSH4 0x7A026935 EQ PUSH2 0x5F1 JUMPI DUP1 PUSH4 0x7BDBF996 EQ PUSH2 0x607 JUMPI DUP1 PUSH4 0x7D14DB7A EQ PUSH2 0x634 JUMPI PUSH1 0x0 DUP1 REVERT JUMPDEST DUP1 PUSH4 0x12DA720 EQ PUSH2 0x2A5 JUMPI DUP1 PUSH4 0x9DE82CD EQ PUSH2 0x2DB JUMPI DUP1 PUSH4 0xB243DAD EQ PUSH2 0x2FF JUMPI DUP1 PUSH4 0xEFDBB6A EQ PUSH2 0x321 JUMPI DUP1 PUSH4 0x18E10BFF EQ PUSH2 0x341 JUMPI DUP1 PUSH4 0x1F3C4CBA EQ PUSH2 0x36D JUMPI DUP1 PUSH4 0x1F7F83BA EQ PUSH2 0x38D JUMPI DUP1 PUSH4 0x22F88B52 EQ PUSH2 0x3C5 JUMPI DUP1 PUSH4 0x2913497B EQ PUSH2 0x3DB JUMPI DUP1 PUSH4 0x2ED421D2 EQ PUSH2 0x3F9 JUMPI DUP1 PUSH4 0x313CE567 EQ PUSH2 0x40F JUMPI DUP1 PUSH4 0x35759788 EQ PUSH2 0x43D JUMPI DUP1 PUSH4 0x3659CFE6 EQ PUSH2 0x452 JUMPI PUSH1 0x0 DUP1 REVERT JUMPDEST CALLDATASIZE PUSH2 0x2A0 JUMPI STOP JUMPDEST PUSH1 0x0 DUP1 REVERT JUMPDEST CALLVALUE DUP1 ISZERO PUSH2 0x2B1 JUMPI PUSH1 0x0 DUP1 REVERT JUMPDEST POP PUSH2 0x2C5 PUSH2 0x2C0 CALLDATASIZE PUSH1 0x4 PUSH2 0x50C4 JUMP JUMPDEST PUSH2 0x982 JUMP JUMPDEST PUSH1 0x40 MLOAD PUSH2 0x2D2 SWAP2 SWAP1 PUSH2 0x50DF JUMP JUMPDEST PUSH1 0x40 MLOAD DUP1 SWAP2 SUB SWAP1 RETURN JUMPDEST CALLVALUE DUP1 ISZERO PUSH2 0x2E7 JUMPI PUSH1 0x0 DUP1 REVERT JUMPDEST POP PUSH2 0x2F1 PUSH1 0xCE SLOAD DUP2 JUMP JUMPDEST PUSH1 0x40 MLOAD SWAP1 DUP2 MSTORE PUSH1 0x20 ADD PUSH2 0x2D2 JUMP JUMPDEST CALLVALUE DUP1 ISZERO PUSH2 0x30B JUMPI PUSH1 0x0 DUP1 REVERT JUMPDEST POP PUSH2 0x31F PUSH2 0x31A CALLDATASIZE PUSH1 0x4 PUSH2 0x5140 JUMP JUMPDEST PUSH2 0xA17 JUMP JUMPDEST STOP JUMPDEST CALLVALUE DUP1 ISZERO PUSH2 0x32D JUMPI PUSH1 0x0 DUP1 REVERT JUMPDEST POP PUSH2 0x31F PUSH2 0x33C CALLDATASIZE PUSH1 0x4 PUSH2 0x516A JUMP JUMPDEST PUSH2 0xA5A JUMP JUMPDEST CALLVALUE DUP1 ISZERO PUSH2 0x34D JUMPI PUSH1 0x0 DUP1 REVERT JUMPDEST POP PUSH1 0xD7 SLOAD PUSH2 0x35B SWAP1 PUSH1 0xFF AND DUP2 JUMP JUMPDEST PUSH1 0x40 MLOAD PUSH1 0xFF SWAP1 SWAP2 AND DUP2 MSTORE PUSH1 0x20 ADD PUSH2 0x2D2 JUMP JUMPDEST CALLVALUE DUP1 ISZERO PUSH2 0x379 JUMPI PUSH1 0x0 DUP1 REVERT JUMPDEST POP PUSH2 0x2F1 PUSH2 0x388 CALLDATASIZE PUSH1 0x4 PUSH2 0x5199 JUMP JUMPDEST PUSH2 0xA84 JUMP JUMPDEST CALLVALUE DUP1 ISZERO PUSH2 0x399 JUMPI PUSH1 0x0 DUP1 REVERT JUMPDEST POP PUSH2 0x3AD PUSH2 0x3A8 CALLDATASIZE PUSH1 0x4 PUSH2 0x51B4 JUMP JUMPDEST PUSH2 0xE10 JUMP JUMPDEST PUSH1 0x40 MLOAD PUSH1 0x1 PUSH1 0x1 PUSH1 0xA0 SHL SUB SWAP1 SWAP2 AND DUP2 MSTORE PUSH1 0x20 ADD PUSH2 0x2D2 JUMP JUMPDEST CALLVALUE DUP1 ISZERO PUSH2 0x3D1 JUMPI PUSH1 0x0 DUP1 REVERT JUMPDEST POP PUSH2 0x2F1 PUSH1 0xD3 SLOAD DUP2 JUMP JUMPDEST CALLVALUE DUP1 ISZERO PUSH2 0x3E7 JUMPI PUSH1 0x0 DUP1 REVERT JUMPDEST POP PUSH1 0xC9 SLOAD PUSH1 0x1 PUSH1 0x1 PUSH1 0xA0 SHL SUB AND PUSH2 0x3AD JUMP JUMPDEST CALLVALUE DUP1 ISZERO PUSH2 0x405 JUMPI PUSH1 0x0 DUP1 REVERT JUMPDEST POP PUSH2 0x2F1 PUSH1 0xD4 SLOAD DUP2 JUMP JUMPDEST CALLVALUE DUP1 ISZERO PUSH2 0x41B JUMPI PUSH1 0x0 DUP1 REVERT JUMPDEST POP PUSH1 0xCB SLOAD PUSH2 0x42A SWAP1 PUSH2 0xFFFF AND DUP2 JUMP JUMPDEST PUSH1 0x40 MLOAD PUSH2 0xFFFF SWAP1 SWAP2 AND DUP2 MSTORE PUSH1 0x20 ADD PUSH2 0x2D2 JUMP JUMPDEST CALLVALUE DUP1 ISZERO PUSH2 0x449 JUMPI PUSH1 0x0 DUP1 REVERT JUMPDEST POP PUSH2 0x31F PUSH2 0xE3A JUMP JUMPDEST CALLVALUE DUP1 ISZERO PUSH2 0x45E JUMPI PUSH1 0x0 DUP1 REVERT JUMPDEST POP PUSH2 0x31F PUSH2 0x46D CALLDATASIZE PUSH1 0x4 PUSH2 0x516A JUMP JUMPDEST PUSH2 0xE71 JUMP JUMPDEST CALLVALUE DUP1 ISZERO PUSH2 0x47E JUMPI PUSH1 0x0 DUP1 REVERT JUMPDEST POP PUSH2 0x31F PUSH2 0x48D CALLDATASIZE PUSH1 0x4 PUSH2 0x5218 JUMP JUMPDEST PUSH2 0xF3F JUMP JUMPDEST CALLVALUE DUP1 ISZERO PUSH2 0x49E JUMPI PUSH1 0x0 DUP1 REVERT JUMPDEST POP PUSH2 0x31F PUSH2 0x4AD CALLDATASIZE PUSH1 0x4 PUSH2 0x534E JUMP JUMPDEST PUSH2 0x1110 JUMP JUMPDEST CALLVALUE DUP1 ISZERO PUSH2 0x4BE JUMPI PUSH1 0x0 DUP1 REVERT JUMPDEST POP PUSH2 0x31F PUSH2 0x4CD CALLDATASIZE PUSH1 0x4 PUSH2 0x50C4 JUMP JUMPDEST PUSH2 0x11C5 JUMP JUMPDEST PUSH2 0x31F PUSH2 0x4E0 CALLDATASIZE PUSH1 0x4 PUSH2 0x53EA JUMP JUMPDEST PUSH2 0x11E3 JUMP JUMPDEST CALLVALUE DUP1 ISZERO PUSH2 0x4F1 JUMPI PUSH1 0x0 DUP1 REVERT JUMPDEST POP PUSH2 0x2F1 PUSH2 0x129C JUMP JUMPDEST CALLVALUE DUP1 ISZERO PUSH2 0x506 JUMPI PUSH1 0x0 DUP1 REVERT JUMPDEST POP PUSH2 0x533 PUSH2 0x515 CALLDATASIZE PUSH1 0x4 PUSH2 0x516A JUMP JUMPDEST PUSH1 0x1 PUSH1 0x1 PUSH1 0xA0 SHL SUB AND PUSH1 0x0 SWAP1 DUP2 MSTORE PUSH1 0xD8 PUSH1 0x20 MSTORE PUSH1 0x40 SWAP1 KECCAK256 SLOAD PUSH1 0xFF AND SWAP1 JUMP JUMPDEST PUSH1 0x40 MLOAD SWAP1 ISZERO ISZERO DUP2 MSTORE PUSH1 0x20 ADD PUSH2 0x2D2 JUMP JUMPDEST CALLVALUE DUP1 ISZERO PUSH2 0x54F JUMPI PUSH1 0x0 DUP1 REVERT JUMPDEST POP PUSH1 0xCF SLOAD PUSH2 0x567 SWAP1 PUSH1 0x1 PUSH1 0x20 SHL SWAP1 DIV PUSH4 0xFFFFFFFF AND DUP2 JUMP JUMPDEST PUSH1 0x40 MLOAD PUSH4 0xFFFFFFFF SWAP1 SWAP2 AND DUP2 MSTORE PUSH1 0x20 ADD PUSH2 0x2D2 JUMP JUMPDEST CALLVALUE DUP1 ISZERO PUSH2 0x588 JUMPI PUSH1 0x0 DUP1 REVERT JUMPDEST POP PUSH2 0x31F PUSH2 0x134A JUMP JUMPDEST CALLVALUE DUP1 ISZERO PUSH2 0x59D JUMPI PUSH1 0x0 DUP1 REVERT JUMPDEST POP PUSH2 0x2F1 PUSH2 0x5AC CALLDATASIZE PUSH1 0x4 PUSH2 0x5199 JUMP JUMPDEST PUSH2 0x135E JUMP JUMPDEST CALLVALUE DUP1 ISZERO PUSH2 0x5BD JUMPI PUSH1 0x0 DUP1 REVERT JUMPDEST POP PUSH2 0x31F PUSH2 0x5CC CALLDATASIZE PUSH1 0x4 PUSH2 0x5199 JUMP JUMPDEST PUSH2 0x1372 JUMP JUMPDEST CALLVALUE DUP1 ISZERO PUSH2 0x5DD JUMPI PUSH1 0x0 DUP1 REVERT JUMPDEST POP PUSH2 0x42A PUSH2 0x5EC CALLDATASIZE PUSH1 0x4 PUSH2 0x51B4 JUMP JUMPDEST PUSH2 0x1389 JUMP JUMPDEST CALLVALUE DUP1 ISZERO PUSH2 0x5FD JUMPI PUSH1 0x0 DUP1 REVERT JUMPDEST POP PUSH2 0x2F1 PUSH1 0xCD SLOAD DUP2 JUMP JUMPDEST CALLVALUE DUP1 ISZERO PUSH2 0x613 JUMPI PUSH1 0x0 DUP1 REVERT JUMPDEST POP PUSH2 0x627 PUSH2 0x622 CALLDATASIZE PUSH1 0x4 PUSH2 0x50C4 JUMP JUMPDEST PUSH2 0x13C1 JUMP JUMPDEST PUSH1 0x40 MLOAD PUSH2 0x2D2 SWAP2 SWAP1 PUSH2 0x54DC JUMP JUMPDEST CALLVALUE DUP1 ISZERO PUSH2 0x640 JUMPI PUSH1 0x0 DUP1 REVERT JUMPDEST POP PUSH2 0x31F PUSH2 0x64F CALLDATASIZE PUSH1 0x4 PUSH2 0x5651 JUMP JUMPDEST PUSH2 0x15D4 JUMP JUMPDEST CALLVALUE DUP1 ISZERO PUSH2 0x660 JUMPI PUSH1 0x0 DUP1 REVERT JUMPDEST POP PUSH2 0x31F PUSH2 0x16EC JUMP JUMPDEST CALLVALUE DUP1 ISZERO PUSH2 0x675 JUMPI PUSH1 0x0 DUP1 REVERT JUMPDEST POP PUSH2 0x31F PUSH2 0x684 CALLDATASIZE PUSH1 0x4 PUSH2 0x50C4 JUMP JUMPDEST PUSH2 0x1991 JUMP JUMPDEST CALLVALUE DUP1 ISZERO PUSH2 0x695 JUMPI PUSH1 0x0 DUP1 REVERT JUMPDEST POP PUSH1 0x33 SLOAD PUSH1 0x1 PUSH1 0x1 PUSH1 0xA0 SHL SUB AND PUSH2 0x3AD JUMP JUMPDEST CALLVALUE DUP1 ISZERO PUSH2 0x6B3 JUMPI PUSH1 0x0 DUP1 REVERT JUMPDEST POP PUSH1 0xCB SLOAD PUSH2 0x35B SWAP1 PUSH3 0x10000 SWAP1 DIV PUSH1 0xFF AND DUP2 JUMP JUMPDEST CALLVALUE DUP1 ISZERO PUSH2 0x6D3 JUMPI PUSH1 0x0 DUP1 REVERT JUMPDEST POP PUSH2 0x2F1 PUSH1 0xCC SLOAD DUP2 JUMP JUMPDEST CALLVALUE DUP1 ISZERO PUSH2 0x6E9 JUMPI PUSH1 0x0 DUP1 REVERT JUMPDEST POP PUSH2 0x31F PUSH2 0x6F8 CALLDATASIZE PUSH1 0x4 PUSH2 0x516A JUMP JUMPDEST PUSH2 0x19B7 JUMP JUMPDEST CALLVALUE DUP1 ISZERO PUSH2 0x709 JUMPI PUSH1 0x0 DUP1 REVERT JUMPDEST POP PUSH2 0x31F PUSH2 0x718 CALLDATASIZE PUSH1 0x4 PUSH2 0x5140 JUMP JUMPDEST PUSH2 0x1A26 JUMP JUMPDEST CALLVALUE DUP1 ISZERO PUSH2 0x729 JUMPI PUSH1 0x0 DUP1 REVERT JUMPDEST POP PUSH1 0xCF SLOAD PUSH2 0x567 SWAP1 PUSH1 0x1 PUSH1 0x40 SHL SWAP1 DIV PUSH4 0xFFFFFFFF AND DUP2 JUMP JUMPDEST CALLVALUE DUP1 ISZERO PUSH2 0x74D JUMPI PUSH1 0x0 DUP1 REVERT JUMPDEST POP PUSH1 0xD2 SLOAD PUSH2 0x35B SWAP1 PUSH3 0x10000 SWAP1 DIV PUSH1 0xFF AND DUP2 JUMP JUMPDEST CALLVALUE DUP1 ISZERO PUSH2 0x76D JUMPI PUSH1 0x0 DUP1 REVERT JUMPDEST POP PUSH2 0x31F PUSH2 0x77C CALLDATASIZE PUSH1 0x4 PUSH2 0x5706 JUMP JUMPDEST PUSH2 0x1A9F JUMP JUMPDEST CALLVALUE DUP1 ISZERO PUSH2 0x78D JUMPI PUSH1 0x0 DUP1 REVERT JUMPDEST POP PUSH2 0x31F PUSH2 0x1ABF JUMP JUMPDEST CALLVALUE DUP1 ISZERO PUSH2 0x7A2 JUMPI PUSH1 0x0 DUP1 REVERT JUMPDEST POP PUSH1 0xD2 SLOAD PUSH2 0x533 SWAP1 PUSH1 0xFF AND DUP2 JUMP JUMPDEST CALLVALUE DUP1 ISZERO PUSH2 0x7BC JUMPI PUSH1 0x0 DUP1 REVERT JUMPDEST POP PUSH2 0x2F1 PUSH2 0x7CB CALLDATASIZE PUSH1 0x4 PUSH2 0x5199 JUMP JUMPDEST PUSH2 0x1E18 JUMP JUMPDEST PUSH2 0x31F PUSH2 0x7DE CALLDATASIZE PUSH1 0x4 PUSH2 0x5199 JUMP JUMPDEST PUSH2 0x2190 JUMP JUMPDEST CALLVALUE DUP1 ISZERO PUSH2 0x7EF JUMPI PUSH1 0x0 DUP1 REVERT JUMPDEST POP PUSH1 0xCF SLOAD PUSH2 0x567 SWAP1 PUSH4 0xFFFFFFFF AND DUP2 JUMP JUMPDEST CALLVALUE DUP1 ISZERO PUSH2 0x80C JUMPI PUSH1 0x0 DUP1 REVERT JUMPDEST POP PUSH2 0x31F PUSH2 0x81B CALLDATASIZE PUSH1 0x4 PUSH2 0x5218 JUMP JUMPDEST PUSH2 0x229D JUMP JUMPDEST CALLVALUE DUP1 ISZERO PUSH2 0x82C JUMPI PUSH1 0x0 DUP1 REVERT JUMPDEST POP PUSH2 0x31F PUSH2 0x83B CALLDATASIZE PUSH1 0x4 PUSH2 0x572A JUMP JUMPDEST PUSH2 0x23A9 JUMP JUMPDEST CALLVALUE DUP1 ISZERO PUSH2 0x84C JUMPI PUSH1 0x0 DUP1 REVERT JUMPDEST POP PUSH2 0x31F PUSH2 0x85B CALLDATASIZE PUSH1 0x4 PUSH2 0x5867 JUMP JUMPDEST PUSH2 0x24D6 JUMP JUMPDEST CALLVALUE DUP1 ISZERO PUSH2 0x86C JUMPI PUSH1 0x0 DUP1 REVERT JUMPDEST POP PUSH2 0x31F PUSH2 0x87B CALLDATASIZE PUSH1 0x4 PUSH2 0x516A JUMP JUMPDEST PUSH2 0x24EA JUMP JUMPDEST PUSH2 0x31F PUSH2 0x88E CALLDATASIZE PUSH1 0x4 PUSH2 0x5199 JUMP JUMPDEST PUSH2 0x2613 JUMP JUMPDEST CALLVALUE DUP1 ISZERO PUSH2 0x89F JUMPI PUSH1 0x0 DUP1 REVERT JUMPDEST POP PUSH2 0x31F PUSH2 0x8AE CALLDATASIZE PUSH1 0x4 PUSH2 0x516A JUMP JUMPDEST PUSH2 0x276C JUMP JUMPDEST CALLVALUE DUP1 ISZERO PUSH2 0x8BF JUMPI PUSH1 0x0 DUP1 REVERT JUMPDEST POP PUSH2 0x31F PUSH2 0x8CE CALLDATASIZE PUSH1 0x4 PUSH2 0x58A8 JUMP JUMPDEST PUSH2 0x27E2 JUMP JUMPDEST CALLVALUE DUP1 ISZERO PUSH2 0x8DF JUMPI PUSH1 0x0 DUP1 REVERT JUMPDEST POP PUSH2 0x2F1 PUSH1 0xD5 SLOAD DUP2 JUMP JUMPDEST CALLVALUE DUP1 ISZERO PUSH2 0x8F5 JUMPI PUSH1 0x0 DUP1 REVERT JUMPDEST POP PUSH2 0x909 PUSH2 0x904 CALLDATASIZE PUSH1 0x4 PUSH2 0x5199 JUMP JUMPDEST PUSH2 0x2944 JUMP JUMPDEST PUSH1 0x40 MLOAD PUSH2 0x2D2 SWAP2 SWAP1 PUSH2 0x58C4 JUMP JUMPDEST CALLVALUE DUP1 ISZERO PUSH2 0x922 JUMPI PUSH1 0x0 DUP1 REVERT JUMPDEST POP PUSH2 0x2F1 PUSH2 0x931 CALLDATASIZE PUSH1 0x4 PUSH2 0x5199 JUMP JUMPDEST PUSH2 0x2DA7 JUMP JUMPDEST CALLVALUE DUP1 ISZERO PUSH2 0x942 JUMPI PUSH1 0x0 DUP1 REVERT JUMPDEST POP PUSH1 0xD2 SLOAD PUSH2 0x533 SWAP1 PUSH2 0x100 SWAP1 DIV PUSH1 0xFF AND DUP2 JUMP JUMPDEST CALLVALUE DUP1 ISZERO PUSH2 0x961 JUMPI PUSH1 0x0 DUP1 REVERT JUMPDEST POP PUSH2 0x975 PUSH2 0x970 CALLDATASIZE PUSH1 0x4 PUSH2 0x516A JUMP JUMPDEST PUSH2 0x2E0B JUMP JUMPDEST PUSH1 0x40 MLOAD PUSH2 0x2D2 SWAP2 SWAP1 PUSH2 0x5AB5 JUMP JUMPDEST PUSH1 0xFF DUP2 AND PUSH1 0x0 SWAP1 DUP2 MSTORE PUSH1 0xDB PUSH1 0x20 SWAP1 DUP2 MSTORE PUSH1 0x40 SWAP2 DUP3 SWAP1 KECCAK256 PUSH1 0x9 ADD DUP1 SLOAD DUP4 MLOAD DUP2 DUP5 MUL DUP2 ADD DUP5 ADD SWAP1 SWAP5 MSTORE DUP1 DUP5 MSTORE PUSH1 0x60 SWAP4 SWAP3 DUP4 ADD DUP3 DUP3 DUP1 ISZERO PUSH2 0xA0B JUMPI PUSH1 0x20 MUL DUP3 ADD SWAP2 SWAP1 PUSH1 0x0 MSTORE PUSH1 0x20 PUSH1 0x0 KECCAK256 SWAP1 PUSH1 0x0 SWAP1 JUMPDEST DUP3 DUP3 SWAP1 SLOAD SWAP1 PUSH2 0x100 EXP SWAP1 DIV PUSH4 0xFFFFFFFF AND PUSH4 0xFFFFFFFF AND DUP2 MSTORE PUSH1 0x20 ADD SWAP1 PUSH1 0x4 ADD SWAP1 PUSH1 0x20 DUP3 PUSH1 0x3 ADD DIV SWAP3 DUP4 ADD SWAP3 PUSH1 0x1 SUB DUP3 MUL SWAP2 POP DUP1 DUP5 GT PUSH2 0x9CE JUMPI SWAP1 POP JUMPDEST POP POP POP POP POP SWAP1 POP SWAP2 SWAP1 POP JUMP JUMPDEST PUSH2 0xA1F PUSH2 0x2EAF JUMP JUMPDEST PUSH1 0x40 MLOAD PUSH1 0x1 PUSH1 0x1 PUSH1 0xA0 SHL SUB DUP4 AND SWAP1 DUP3 ISZERO PUSH2 0x8FC MUL SWAP1 DUP4 SWAP1 PUSH1 0x0 DUP2 DUP2 DUP2 DUP6 DUP9 DUP9 CALL SWAP4 POP POP POP POP ISZERO DUP1 ISZERO PUSH2 0xA55 JUMPI RETURNDATASIZE PUSH1 0x0 DUP1 RETURNDATACOPY RETURNDATASIZE PUSH1 0x0 REVERT JUMPDEST POP POP POP JUMP JUMPDEST PUSH2 0xA62 PUSH2 0x2EAF JUMP JUMPDEST PUSH1 0xC9 DUP1 SLOAD PUSH1 0x1 PUSH1 0x1 PUSH1 0xA0 SHL SUB NOT AND PUSH1 0x1 PUSH1 0x1 PUSH1 0xA0 SHL SUB SWAP3 SWAP1 SWAP3 AND SWAP2 SWAP1 SWAP2 OR SWAP1 SSTORE JUMP JUMPDEST PUSH4 0xFFFFFFFF DUP1 DUP3 AND PUSH1 0x0 SWAP1 DUP2 MSTORE PUSH1 0xD9 PUSH1 0x20 SWAP1 DUP2 MSTORE PUSH1 0x40 DUP1 DUP4 KECCAK256 DUP2 MLOAD PUSH2 0x3A0 DUP2 ADD SWAP1 SWAP3 MSTORE DUP1 SLOAD SWAP1 SWAP5 AND DUP2 MSTORE PUSH1 0x1 DUP5 ADD DUP1 SLOAD SWAP4 SWAP5 DUP6 SWAP5 SWAP3 SWAP4 SWAP1 SWAP3 SWAP1 DUP5 ADD SWAP2 SWAP1 PUSH2 0xACA SWAP1 PUSH2 0x5ADC JUMP JUMPDEST DUP1 PUSH1 0x1F ADD PUSH1 0x20 DUP1 SWAP2 DIV MUL PUSH1 0x20 ADD PUSH1 0x40 MLOAD SWAP1 DUP2 ADD PUSH1 0x40 MSTORE DUP1 SWAP3 SWAP2 SWAP1 DUP2 DUP2 MSTORE PUSH1 0x20 ADD DUP3 DUP1 SLOAD PUSH2 0xAF6 SWAP1 PUSH2 0x5ADC JUMP JUMPDEST DUP1 ISZERO PUSH2 0xB43 JUMPI DUP1 PUSH1 0x1F LT PUSH2 0xB18 JUMPI PUSH2 0x100 DUP1 DUP4 SLOAD DIV MUL DUP4 MSTORE SWAP2 PUSH1 0x20 ADD SWAP2 PUSH2 0xB43 JUMP JUMPDEST DUP3 ADD SWAP2 SWAP1 PUSH1 0x0 MSTORE PUSH1 0x20 PUSH1 0x0 KECCAK256 SWAP1 JUMPDEST DUP2 SLOAD DUP2 MSTORE SWAP1 PUSH1 0x1 ADD SWAP1 PUSH1 0x20 ADD DUP1 DUP4 GT PUSH2 0xB26 JUMPI DUP3 SWAP1 SUB PUSH1 0x1F AND DUP3 ADD SWAP2 JUMPDEST POP POP POP SWAP2 DUP4 MSTORE POP POP PUSH1 0x2 DUP3 ADD SLOAD PUSH1 0xFF DUP2 AND ISZERO ISZERO PUSH1 0x20 DUP1 DUP5 ADD SWAP2 SWAP1 SWAP2 MSTORE PUSH2 0x100 SWAP1 SWAP2 DIV PUSH1 0x1 PUSH1 0x1 PUSH1 0xA0 SHL SUB AND PUSH1 0x40 DUP1 DUP5 ADD SWAP2 SWAP1 SWAP2 MSTORE PUSH1 0x3 DUP5 ADD SLOAD PUSH1 0x60 DUP5 ADD MSTORE PUSH1 0x4 DUP5 ADD SLOAD PUSH1 0x80 DUP5 ADD MSTORE PUSH1 0x5 DUP5 ADD SLOAD PUSH1 0xA0 DUP5 ADD MSTORE PUSH1 0x6 DUP5 ADD DUP1 SLOAD DUP3 MLOAD DUP2 DUP6 MUL DUP2 ADD DUP6 ADD SWAP1 SWAP4 MSTORE DUP1 DUP4 MSTORE PUSH1 0xC0 SWAP1 SWAP5 ADD SWAP4 SWAP2 SWAP3 SWAP1 SWAP2 SWAP1 DUP4 ADD DUP3 DUP3 DUP1 ISZERO PUSH2 0xC10 JUMPI PUSH1 0x20 MUL DUP3 ADD SWAP2 SWAP1 PUSH1 0x0 MSTORE PUSH1 0x20 PUSH1 0x0 KECCAK256 SWAP1 PUSH1 0x0 SWAP1 JUMPDEST DUP3 DUP3 SWAP1 SLOAD SWAP1 PUSH2 0x100 EXP SWAP1 DIV PUSH4 0xFFFFFFFF AND PUSH4 0xFFFFFFFF AND DUP2 MSTORE PUSH1 0x20 ADD SWAP1 PUSH1 0x4 ADD SWAP1 PUSH1 0x20 DUP3 PUSH1 0x3 ADD DIV SWAP3 DUP4 ADD SWAP3 PUSH1 0x1 SUB DUP3 MUL SWAP2 POP DUP1 DUP5 GT PUSH2 0xBD3 JUMPI SWAP1 POP JUMPDEST POP POP POP SWAP2 DUP4 MSTORE POP POP PUSH1 0x7 DUP3 ADD SLOAD PUSH4 0xFFFFFFFF AND PUSH1 0x20 DUP1 DUP4 ADD SWAP2 SWAP1 SWAP2 MSTORE PUSH1 0x8 DUP4 ADD DUP1 SLOAD PUSH1 0x40 DUP1 MLOAD DUP3 DUP6 MUL DUP2 ADD DUP6 ADD DUP3 MSTORE DUP3 DUP2 MSTORE SWAP5 ADD SWAP4 SWAP3 DUP4 ADD DUP3 DUP3 DUP1 ISZERO PUSH2 0xCA1 JUMPI PUSH1 0x20 MUL DUP3 ADD SWAP2 SWAP1 PUSH1 0x0 MSTORE PUSH1 0x20 PUSH1 0x0 KECCAK256 SWAP1 PUSH1 0x0 SWAP1 JUMPDEST DUP3 DUP3 SWAP1 SLOAD SWAP1 PUSH2 0x100 EXP SWAP1 DIV PUSH4 0xFFFFFFFF AND PUSH4 0xFFFFFFFF AND DUP2 MSTORE PUSH1 0x20 ADD SWAP1 PUSH1 0x4 ADD SWAP1 PUSH1 0x20 DUP3 PUSH1 0x3 ADD DIV SWAP3 DUP4 ADD SWAP3 PUSH1 0x1 SUB DUP3 MUL SWAP2 POP DUP1 DUP5 GT PUSH2 0xC64 JUMPI SWAP1 POP JUMPDEST POP POP POP POP POP DUP2 MSTORE PUSH1 0x20 ADD PUSH1 0x9 DUP3 ADD DUP1 SLOAD DUP1 PUSH1 0x20 MUL PUSH1 0x20 ADD PUSH1 0x40 MLOAD SWAP1 DUP2 ADD PUSH1 0x40 MSTORE DUP1 SWAP3 SWAP2 SWAP1 DUP2 DUP2 MSTORE PUSH1 0x20 ADD DUP3 DUP1 SLOAD DUP1 ISZERO PUSH2 0xD25 JUMPI PUSH1 0x20 MUL DUP3 ADD SWAP2 SWAP1 PUSH1 0x0 MSTORE PUSH1 0x20 PUSH1 0x0 KECCAK256 SWAP1 PUSH1 0x0 SWAP1 JUMPDEST DUP3 DUP3 SWAP1 SLOAD SWAP1 PUSH2 0x100 EXP SWAP1 DIV PUSH4 0xFFFFFFFF AND PUSH4 0xFFFFFFFF AND DUP2 MSTORE PUSH1 0x20 ADD SWAP1 PUSH1 0x4 ADD SWAP1 PUSH1 0x20 DUP3 PUSH1 0x3 ADD DIV SWAP3 DUP4 ADD SWAP3 PUSH1 0x1 SUB DUP3 MUL SWAP2 POP DUP1 DUP5 GT PUSH2 0xCE8 JUMPI SWAP1 POP JUMPDEST POP POP POP SWAP2 DUP4 MSTORE POP POP PUSH1 0xA DUP3 ADD SLOAD PUSH1 0x20 DUP3 ADD MSTORE PUSH1 0xB DUP3 ADD SLOAD PUSH1 0x40 DUP3 ADD MSTORE PUSH1 0xC DUP3 ADD SLOAD PUSH1 0x60 DUP3 ADD MSTORE PUSH1 0xD DUP3 ADD SLOAD PUSH1 0x80 DUP3 ADD MSTORE PUSH1 0xE DUP3 ADD SLOAD PUSH1 0xA0 DUP3 ADD MSTORE PUSH1 0xF DUP3 ADD SLOAD PUSH1 0xC0 DUP3 ADD MSTORE PUSH1 0x10 DUP3 ADD SLOAD PUSH1 0xE0 DUP3 ADD MSTORE PUSH1 0x11 DUP3 ADD SLOAD PUSH2 0x100 DUP3 ADD MSTORE PUSH1 0x12 DUP3 ADD SLOAD PUSH1 0xFF AND PUSH2 0x120 DUP3 ADD MSTORE PUSH1 0x13 DUP3 ADD SLOAD PUSH2 0x140 DUP3 ADD MSTORE PUSH1 0x14 DUP3 ADD SLOAD PUSH2 0x160 DUP3 ADD MSTORE PUSH1 0x15 DUP3 ADD SLOAD PUSH2 0x180 DUP3 ADD MSTORE PUSH1 0x16 DUP3 ADD SLOAD PUSH2 0x1A0 DUP3 ADD MSTORE PUSH1 0x17 DUP3 ADD SLOAD PUSH2 0x1C0 DUP3 ADD MSTORE PUSH1 0x18 DUP3 ADD SLOAD PUSH2 0x1E0 DUP3 ADD MSTORE PUSH1 0x19 DUP3 ADD SLOAD PUSH2 0x200 DUP3 ADD MSTORE PUSH1 0x1A DUP3 ADD SLOAD PUSH2 0x220 DUP3 ADD MSTORE PUSH1 0x1B SWAP1 SWAP2 ADD SLOAD PUSH2 0x240 SWAP1 SWAP2 ADD MSTORE PUSH2 0x300 DUP2 ADD MLOAD PUSH2 0x320 DUP3 ADD MLOAD SWAP2 SWAP3 POP PUSH2 0xE09 SWAP2 PUSH2 0x5B26 JUMP JUMPDEST SWAP4 SWAP3 POP POP POP JUMP JUMPDEST PUSH1 0xD6 DUP2 DUP2 SLOAD DUP2 LT PUSH2 0xE20 JUMPI PUSH1 0x0 DUP1 REVERT JUMPDEST PUSH1 0x0 SWAP2 DUP3 MSTORE PUSH1 0x20 SWAP1 SWAP2 KECCAK256 ADD SLOAD PUSH1 0x1 PUSH1 0x1 PUSH1 0xA0 SHL SUB AND SWAP1 POP DUP2 JUMP JUMPDEST PUSH2 0xE42 PUSH2 0x2EAF JUMP JUMPDEST PUSH1 0x40 MLOAD CALLER SWAP1 SELFBALANCE DUP1 ISZERO PUSH2 0x8FC MUL SWAP2 PUSH1 0x0 DUP2 DUP2 DUP2 DUP6 DUP9 DUP9 CALL SWAP4 POP POP POP POP ISZERO DUP1 ISZERO PUSH2 0xE6E JUMPI RETURNDATASIZE PUSH1 0x0 DUP1 RETURNDATACOPY RETURNDATASIZE PUSH1 0x0 REVERT JUMPDEST POP JUMP JUMPDEST PUSH1 0x1 PUSH1 0x1 PUSH1 0xA0 SHL SUB PUSH32 0x0 AND ADDRESS SUB PUSH2 0xEC2 JUMPI PUSH1 0x40 MLOAD PUSH3 0x461BCD PUSH1 0xE5 SHL DUP2 MSTORE PUSH1 0x4 ADD PUSH2 0xEB9 SWAP1 PUSH2 0x5B39 JUMP JUMPDEST PUSH1 0x40 MLOAD DUP1 SWAP2 SUB SWAP1 REVERT JUMPDEST PUSH32 0x0 PUSH1 0x1 PUSH1 0x1 PUSH1 0xA0 SHL SUB AND PUSH2 0xEF4 PUSH2 0x2F09 JUMP JUMPDEST PUSH1 0x1 PUSH1 0x1 PUSH1 0xA0 SHL SUB AND EQ PUSH2 0xF1A JUMPI PUSH1 0x40 MLOAD PUSH3 0x461BCD PUSH1 0xE5 SHL DUP2 MSTORE PUSH1 0x4 ADD PUSH2 0xEB9 SWAP1 PUSH2 0x5B85 JUMP JUMPDEST PUSH2 0xF23 DUP2 PUSH2 0x2F25 JUMP JUMPDEST PUSH1 0x40 DUP1 MLOAD PUSH1 0x0 DUP1 DUP3 MSTORE PUSH1 0x20 DUP3 ADD SWAP1 SWAP3 MSTORE PUSH2 0xE6E SWAP2 DUP4 SWAP2 SWAP1 PUSH2 0x2F2D JUMP JUMPDEST PUSH2 0xF47 PUSH2 0x2EAF JUMP JUMPDEST PUSH1 0x0 JUMPDEST PUSH2 0xFFFF DUP2 AND DUP5 GT ISZERO PUSH2 0x1109 JUMPI PUSH1 0x0 PUSH1 0xD9 PUSH1 0x0 DUP8 DUP8 DUP6 PUSH2 0xFFFF AND DUP2 DUP2 LT PUSH2 0xF72 JUMPI PUSH2 0xF72 PUSH2 0x5BD1 JUMP JUMPDEST SWAP1 POP PUSH1 0x20 MUL ADD PUSH1 0x20 DUP2 ADD SWAP1 PUSH2 0xF87 SWAP2 SWAP1 PUSH2 0x5199 JUMP JUMPDEST PUSH4 0xFFFFFFFF AND PUSH4 0xFFFFFFFF AND DUP2 MSTORE PUSH1 0x20 ADD SWAP1 DUP2 MSTORE PUSH1 0x20 ADD PUSH1 0x0 KECCAK256 SWAP1 POP PUSH1 0x0 PUSH1 0xD8 PUSH1 0x0 DUP7 DUP7 DUP7 PUSH2 0xFFFF AND DUP2 DUP2 LT PUSH2 0xFBF JUMPI PUSH2 0xFBF PUSH2 0x5BD1 JUMP JUMPDEST SWAP1 POP PUSH1 0x20 MUL ADD PUSH1 0x20 DUP2 ADD SWAP1 PUSH2 0xFD4 SWAP2 SWAP1 PUSH2 0x516A JUMP JUMPDEST PUSH1 0x1 PUSH1 0x1 PUSH1 0xA0 SHL SUB AND PUSH1 0x1 PUSH1 0x1 PUSH1 0xA0 SHL SUB AND DUP2 MSTORE PUSH1 0x20 ADD SWAP1 DUP2 MSTORE PUSH1 0x20 ADD PUSH1 0x0 KECCAK256 SWAP1 POP DUP7 DUP7 DUP5 PUSH2 0xFFFF AND DUP2 DUP2 LT PUSH2 0x100C JUMPI PUSH2 0x100C PUSH2 0x5BD1 JUMP JUMPDEST SWAP1 POP PUSH1 0x20 MUL ADD PUSH1 0x20 DUP2 ADD SWAP1 PUSH2 0x1021 SWAP2 SWAP1 PUSH2 0x5199 JUMP JUMPDEST DUP3 SLOAD PUSH4 0xFFFFFFFF NOT AND PUSH4 0xFFFFFFFF SWAP2 SWAP1 SWAP2 AND OR DUP3 SSTORE PUSH1 0x1 DUP2 ADD DUP8 DUP8 PUSH2 0xFFFF DUP7 AND DUP2 DUP2 LT PUSH2 0x1050 JUMPI PUSH2 0x1050 PUSH2 0x5BD1 JUMP JUMPDEST SWAP1 POP PUSH1 0x20 MUL ADD PUSH1 0x20 DUP2 ADD SWAP1 PUSH2 0x1065 SWAP2 SWAP1 PUSH2 0x5199 JUMP JUMPDEST DUP2 SLOAD PUSH1 0x1 DUP2 ADD DUP4 SSTORE PUSH1 0x0 SWAP3 DUP4 MSTORE PUSH1 0x20 SWAP1 SWAP3 KECCAK256 PUSH1 0x8 DUP4 DIV ADD DUP1 SLOAD PUSH1 0x7 SWAP1 SWAP4 AND PUSH1 0x4 MUL PUSH2 0x100 EXP PUSH4 0xFFFFFFFF DUP2 DUP2 MUL NOT SWAP1 SWAP5 AND SWAP3 SWAP1 SWAP4 AND SWAP3 SWAP1 SWAP3 MUL OR SWAP1 SSTORE DUP5 DUP5 PUSH2 0xFFFF DUP6 AND DUP2 DUP2 LT PUSH2 0x10B7 JUMPI PUSH2 0x10B7 PUSH2 0x5BD1 JUMP JUMPDEST SWAP1 POP PUSH1 0x20 MUL ADD PUSH1 0x20 DUP2 ADD SWAP1 PUSH2 0x10CC SWAP2 SWAP1 PUSH2 0x516A JUMP JUMPDEST DUP3 PUSH1 0x2 ADD PUSH1 0x1 PUSH2 0x100 EXP DUP2 SLOAD DUP2 PUSH1 0x1 PUSH1 0x1 PUSH1 0xA0 SHL SUB MUL NOT AND SWAP1 DUP4 PUSH1 0x1 PUSH1 0x1 PUSH1 0xA0 SHL SUB AND MUL OR SWAP1 SSTORE POP POP POP DUP1 DUP1 PUSH2 0x1101 SWAP1 PUSH2 0x5BE7 JUMP JUMPDEST SWAP2 POP POP PUSH2 0xF4A JUMP JUMPDEST POP POP POP POP POP JUMP JUMPDEST PUSH2 0x1118 PUSH2 0x2EAF JUMP JUMPDEST PUSH1 0xFF DUP10 AND PUSH1 0x0 DUP2 DUP2 MSTORE PUSH1 0xDB PUSH1 0x20 MSTORE PUSH1 0x40 SWAP1 KECCAK256 DUP1 SLOAD PUSH1 0xFF NOT AND SWAP1 SWAP2 OR DUP2 SSTORE PUSH1 0x1 DUP2 ADD DUP10 SWAP1 SSTORE PUSH1 0x2 DUP2 ADD DUP9 SWAP1 SSTORE PUSH1 0x3 DUP2 ADD DUP8 SWAP1 SSTORE PUSH1 0x4 DUP2 ADD PUSH2 0x1158 DUP8 DUP3 PUSH2 0x5C56 JUMP JUMPDEST POP PUSH1 0x5 DUP2 ADD DUP6 SWAP1 SSTORE PUSH1 0x6 DUP2 ADD DUP5 SWAP1 SSTORE PUSH1 0x7 DUP2 ADD DUP4 SWAP1 SSTORE PUSH1 0x8 DUP2 ADD DUP1 SLOAD PUSH2 0xFF00 NOT AND PUSH2 0x100 DUP5 ISZERO ISZERO MUL OR SWAP1 SSTORE PUSH1 0x40 MLOAD PUSH1 0xFF DUP12 AND DUP2 MSTORE PUSH32 0xA24B8CF512AF3C40223886405905578154323D4BA0D3802EC5756B9684CE1B79 SWAP1 PUSH1 0x20 ADD PUSH1 0x40 MLOAD DUP1 SWAP2 SUB SWAP1 LOG1 POP POP POP POP POP POP POP POP POP POP JUMP JUMPDEST PUSH2 0x11CD PUSH2 0x2EAF JUMP JUMPDEST PUSH1 0xD7 DUP1 SLOAD PUSH1 0xFF NOT AND PUSH1 0xFF SWAP3 SWAP1 SWAP3 AND SWAP2 SWAP1 SWAP2 OR SWAP1 SSTORE JUMP JUMPDEST PUSH1 0x1 PUSH1 0x1 PUSH1 0xA0 SHL SUB PUSH32 0x0 AND ADDRESS SUB PUSH2 0x122B JUMPI PUSH1 0x40 MLOAD PUSH3 0x461BCD PUSH1 0xE5 SHL DUP2 MSTORE PUSH1 0x4 ADD PUSH2 0xEB9 SWAP1 PUSH2 0x5B39 JUMP JUMPDEST PUSH32 0x0 PUSH1 0x1 PUSH1 0x1 PUSH1 0xA0 SHL SUB AND PUSH2 0x125D PUSH2 0x2F09 JUMP JUMPDEST PUSH1 0x1 PUSH1 0x1 PUSH1 0xA0 SHL SUB AND EQ PUSH2 0x1283 JUMPI PUSH1 0x40 MLOAD PUSH3 0x461BCD PUSH1 0xE5 SHL DUP2 MSTORE PUSH1 0x4 ADD PUSH2 0xEB9 SWAP1 PUSH2 0x5B85 JUMP JUMPDEST PUSH2 0x128C DUP3 PUSH2 0x2F25 JUMP JUMPDEST PUSH2 0x1298 DUP3 DUP3 PUSH1 0x1 PUSH2 0x2F2D JUMP JUMPDEST POP POP JUMP JUMPDEST PUSH1 0x0 ADDRESS PUSH1 0x1 PUSH1 0x1 PUSH1 0xA0 SHL SUB PUSH32 0x0 AND EQ PUSH2 0x1337 JUMPI PUSH1 0x40 MLOAD PUSH3 0x461BCD PUSH1 0xE5 SHL DUP2 MSTORE PUSH1 0x20 PUSH1 0x4 DUP3 ADD MSTORE PUSH1 0x38 PUSH1 0x24 DUP3 ADD MSTORE PUSH32 0x555550535570677261646561626C653A206D757374206E6F742062652063616C PUSH1 0x44 DUP3 ADD MSTORE PUSH24 0x1B1959081D1A1C9BDD59DA0819195B1959D85D1958D85B1B PUSH1 0x42 SHL PUSH1 0x64 DUP3 ADD MSTORE PUSH1 0x84 ADD PUSH2 0xEB9 JUMP JUMPDEST POP PUSH1 0x0 DUP1 MLOAD PUSH1 0x20 PUSH2 0x5EF4 DUP4 CODECOPY DUP2 MLOAD SWAP2 MSTORE SWAP1 JUMP JUMPDEST PUSH2 0x1352 PUSH2 0x2EAF JUMP JUMPDEST PUSH2 0x135C PUSH1 0x0 PUSH2 0x3098 JUMP JUMPDEST JUMP JUMPDEST PUSH1 0x0 PUSH2 0x1369 DUP3 PUSH2 0x30EA JUMP JUMPDEST PUSH1 0xFF AND SWAP3 SWAP2 POP POP JUMP JUMPDEST PUSH1 0x0 PUSH2 0x137D DUP3 PUSH2 0x3507 JUMP JUMPDEST SWAP1 POP PUSH2 0x1298 DUP2 DUP4 PUSH2 0x387C JUMP JUMPDEST PUSH1 0xCA DUP2 DUP2 SLOAD DUP2 LT PUSH2 0x1399 JUMPI PUSH1 0x0 DUP1 REVERT JUMPDEST SWAP1 PUSH1 0x0 MSTORE PUSH1 0x20 PUSH1 0x0 KECCAK256 SWAP1 PUSH1 0x10 SWAP2 DUP3 DUP3 DIV ADD SWAP2 SWAP1 MOD PUSH1 0x2 MUL SWAP2 POP SLOAD SWAP1 PUSH2 0x100 EXP SWAP1 DIV PUSH2 0xFFFF AND DUP2 JUMP JUMPDEST PUSH2 0x1425 PUSH1 0x40 MLOAD DUP1 PUSH2 0x160 ADD PUSH1 0x40 MSTORE DUP1 PUSH1 0x0 PUSH1 0xFF AND DUP2 MSTORE PUSH1 0x20 ADD PUSH1 0x0 DUP2 MSTORE PUSH1 0x20 ADD PUSH1 0x0 DUP2 MSTORE PUSH1 0x20 ADD PUSH1 0x0 DUP2 MSTORE PUSH1 0x20 ADD PUSH1 0x60 DUP2 MSTORE PUSH1 0x20 ADD PUSH1 0x0 DUP2 MSTORE PUSH1 0x20 ADD PUSH1 0x0 DUP2 MSTORE PUSH1 0x20 ADD PUSH1 0x0 DUP2 MSTORE PUSH1 0x20 ADD PUSH1 0x0 ISZERO ISZERO DUP2 MSTORE PUSH1 0x20 ADD PUSH1 0x0 ISZERO ISZERO DUP2 MSTORE PUSH1 0x20 ADD PUSH1 0x60 DUP2 MSTORE POP SWAP1 JUMP JUMPDEST PUSH1 0xFF DUP1 DUP4 AND PUSH1 0x0 SWAP1 DUP2 MSTORE PUSH1 0xDB PUSH1 0x20 SWAP1 DUP2 MSTORE PUSH1 0x40 SWAP2 DUP3 SWAP1 KECCAK256 DUP3 MLOAD PUSH2 0x160 DUP2 ADD DUP5 MSTORE DUP2 SLOAD SWAP1 SWAP5 AND DUP5 MSTORE PUSH1 0x1 DUP2 ADD SLOAD SWAP2 DUP5 ADD SWAP2 SWAP1 SWAP2 MSTORE PUSH1 0x2 DUP2 ADD SLOAD SWAP2 DUP4 ADD SWAP2 SWAP1 SWAP2 MSTORE PUSH1 0x3 DUP2 ADD SLOAD PUSH1 0x60 DUP4 ADD MSTORE PUSH1 0x4 DUP2 ADD DUP1 SLOAD PUSH1 0x80 DUP5 ADD SWAP2 SWAP1 PUSH2 0x1483 SWAP1 PUSH2 0x5ADC JUMP JUMPDEST DUP1 PUSH1 0x1F ADD PUSH1 0x20 DUP1 SWAP2 DIV MUL PUSH1 0x20 ADD PUSH1 0x40 MLOAD SWAP1 DUP2 ADD PUSH1 0x40 MSTORE DUP1 SWAP3 SWAP2 SWAP1 DUP2 DUP2 MSTORE PUSH1 0x20 ADD DUP3 DUP1 SLOAD PUSH2 0x14AF SWAP1 PUSH2 0x5ADC JUMP JUMPDEST DUP1 ISZERO PUSH2 0x14FC JUMPI DUP1 PUSH1 0x1F LT PUSH2 0x14D1 JUMPI PUSH2 0x100 DUP1 DUP4 SLOAD DIV MUL DUP4 MSTORE SWAP2 PUSH1 0x20 ADD SWAP2 PUSH2 0x14FC JUMP JUMPDEST DUP3 ADD SWAP2 SWAP1 PUSH1 0x0 MSTORE PUSH1 0x20 PUSH1 0x0 KECCAK256 SWAP1 JUMPDEST DUP2 SLOAD DUP2 MSTORE SWAP1 PUSH1 0x1 ADD SWAP1 PUSH1 0x20 ADD DUP1 DUP4 GT PUSH2 0x14DF JUMPI DUP3 SWAP1 SUB PUSH1 0x1F AND DUP3 ADD SWAP2 JUMPDEST POP POP POP SWAP2 DUP4 MSTORE POP POP PUSH1 0x5 DUP3 ADD SLOAD PUSH1 0x20 DUP1 DUP4 ADD SWAP2 SWAP1 SWAP2 MSTORE PUSH1 0x6 DUP4 ADD SLOAD PUSH1 0x40 DUP1 DUP5 ADD SWAP2 SWAP1 SWAP2 MSTORE PUSH1 0x7 DUP5 ADD SLOAD PUSH1 0x60 DUP5 ADD MSTORE PUSH1 0x8 DUP5 ADD SLOAD PUSH1 0xFF DUP1 DUP3 AND ISZERO ISZERO PUSH1 0x80 DUP7 ADD MSTORE PUSH2 0x100 SWAP1 SWAP2 DIV AND ISZERO ISZERO PUSH1 0xA0 DUP5 ADD MSTORE PUSH1 0x9 DUP5 ADD DUP1 SLOAD DUP3 MLOAD DUP2 DUP6 MUL DUP2 ADD DUP6 ADD SWAP1 SWAP4 MSTORE DUP1 DUP4 MSTORE PUSH1 0xC0 SWAP1 SWAP5 ADD SWAP4 SWAP2 SWAP3 SWAP1 SWAP2 SWAP1 DUP4 ADD DUP3 DUP3 DUP1 ISZERO PUSH2 0x15C4 JUMPI PUSH1 0x20 MUL DUP3 ADD SWAP2 SWAP1 PUSH1 0x0 MSTORE PUSH1 0x20 PUSH1 0x0 KECCAK256 SWAP1 PUSH1 0x0 SWAP1 JUMPDEST DUP3 DUP3 SWAP1 SLOAD SWAP1 PUSH2 0x100 EXP SWAP1 DIV PUSH4 0xFFFFFFFF AND PUSH4 0xFFFFFFFF AND DUP2 MSTORE PUSH1 0x20 ADD SWAP1 PUSH1 0x4 ADD SWAP1 PUSH1 0x20 DUP3 PUSH1 0x3 ADD DIV SWAP3 DUP4 ADD SWAP3 PUSH1 0x1 SUB DUP3 MUL SWAP2 POP DUP1 DUP5 GT PUSH2 0x1587 JUMPI SWAP1 POP JUMPDEST POP POP POP POP POP DUP2 MSTORE POP POP SWAP1 POP SWAP2 SWAP1 POP JUMP JUMPDEST PUSH2 0x15DC PUSH2 0x2EAF JUMP JUMPDEST DUP1 MLOAD DUP3 MLOAD EQ PUSH2 0x1622 JUMPI PUSH1 0x40 MLOAD PUSH3 0x461BCD PUSH1 0xE5 SHL DUP2 MSTORE PUSH1 0x20 PUSH1 0x4 DUP3 ADD MSTORE PUSH1 0x12 PUSH1 0x24 DUP3 ADD MSTORE PUSH18 0x13195B99DD1A081B9BDD081B585D18DA1959 PUSH1 0x72 SHL PUSH1 0x44 DUP3 ADD MSTORE PUSH1 0x64 ADD PUSH2 0xEB9 JUMP JUMPDEST PUSH1 0x0 JUMPDEST DUP3 MLOAD DUP2 PUSH2 0xFFFF AND LT ISZERO PUSH2 0xA55 JUMPI PUSH1 0x0 PUSH1 0xD9 PUSH1 0x0 DUP6 DUP5 PUSH2 0xFFFF AND DUP2 MLOAD DUP2 LT PUSH2 0x164E JUMPI PUSH2 0x164E PUSH2 0x5BD1 JUMP JUMPDEST PUSH1 0x20 MUL PUSH1 0x20 ADD ADD MLOAD PUSH4 0xFFFFFFFF AND PUSH4 0xFFFFFFFF AND DUP2 MSTORE PUSH1 0x20 ADD SWAP1 DUP2 MSTORE PUSH1 0x20 ADD PUSH1 0x0 KECCAK256 SWAP1 POP DUP4 DUP3 PUSH2 0xFFFF AND DUP2 MLOAD DUP2 LT PUSH2 0x1688 JUMPI PUSH2 0x1688 PUSH2 0x5BD1 JUMP JUMPDEST PUSH1 0x20 SWAP1 DUP2 MUL SWAP2 SWAP1 SWAP2 ADD ADD MLOAD DUP2 SLOAD PUSH4 0xFFFFFFFF NOT AND PUSH4 0xFFFFFFFF SWAP1 SWAP2 AND OR DUP2 SSTORE DUP3 MLOAD DUP4 SWAP1 PUSH2 0xFFFF DUP5 AND SWAP1 DUP2 LT PUSH2 0x16BF JUMPI PUSH2 0x16BF PUSH2 0x5BD1 JUMP JUMPDEST PUSH1 0x20 MUL PUSH1 0x20 ADD ADD MLOAD DUP2 PUSH1 0x1 ADD SWAP1 DUP2 PUSH2 0x16D7 SWAP2 SWAP1 PUSH2 0x5C56 JUMP JUMPDEST POP POP DUP1 DUP1 PUSH2 0x16E4 SWAP1 PUSH2 0x5BE7 JUMP JUMPDEST SWAP2 POP POP PUSH2 0x1625 JUMP JUMPDEST PUSH1 0x0 SLOAD PUSH2 0x100 SWAP1 DIV PUSH1 0xFF AND ISZERO DUP1 DUP1 ISZERO PUSH2 0x170C JUMPI POP PUSH1 0x0 SLOAD PUSH1 0x1 PUSH1 0xFF SWAP1 SWAP2 AND LT JUMPDEST DUP1 PUSH2 0x172D JUMPI POP PUSH2 0x171B ADDRESS PUSH2 0x3F4F JUMP JUMPDEST ISZERO DUP1 ISZERO PUSH2 0x172D JUMPI POP PUSH1 0x0 SLOAD PUSH1 0xFF AND PUSH1 0x1 EQ JUMPDEST PUSH2 0x1790 JUMPI PUSH1 0x40 MLOAD PUSH3 0x461BCD PUSH1 0xE5 SHL DUP2 MSTORE PUSH1 0x20 PUSH1 0x4 DUP3 ADD MSTORE PUSH1 0x2E PUSH1 0x24 DUP3 ADD MSTORE PUSH32 0x496E697469616C697A61626C653A20636F6E747261637420697320616C726561 PUSH1 0x44 DUP3 ADD MSTORE PUSH14 0x191E481A5B9A5D1A585B1A5E9959 PUSH1 0x92 SHL PUSH1 0x64 DUP3 ADD MSTORE PUSH1 0x84 ADD PUSH2 0xEB9 JUMP JUMPDEST PUSH1 0x0 DUP1 SLOAD PUSH1 0xFF NOT AND PUSH1 0x1 OR SWAP1 SSTORE DUP1 ISZERO PUSH2 0x17B3 JUMPI PUSH1 0x0 DUP1 SLOAD PUSH2 0xFF00 NOT AND PUSH2 0x100 OR SWAP1 SSTORE JUMPDEST PUSH1 0xC9 DUP1 SLOAD PUSH1 0x1 PUSH1 0x1 PUSH1 0xA0 SHL SUB NOT AND PUSH20 0xF594034B9AB80FDB03560BA3E5C8EEA0B0EAD168 OR SWAP1 SSTORE PUSH1 0xCB DUP1 SLOAD PUSH2 0xFFFF NOT AND PUSH2 0x3E8 OR SWAP1 SSTORE PUSH1 0x40 DUP1 MLOAD PUSH2 0x3A0 DUP2 ADD DUP3 MSTORE PUSH1 0x64 DUP2 MSTORE PUSH1 0x46 PUSH1 0x20 DUP3 ADD MSTORE PUSH1 0x32 SWAP2 DUP2 ADD DUP3 SWAP1 MSTORE PUSH1 0x60 DUP2 ADD DUP3 SWAP1 MSTORE PUSH1 0x80 DUP2 ADD DUP3 SWAP1 MSTORE PUSH1 0xA0 DUP2 ADD DUP3 SWAP1 MSTORE PUSH1 0xC0 DUP2 ADD DUP3 SWAP1 MSTORE PUSH1 0xE0 DUP2 ADD DUP3 SWAP1 MSTORE PUSH2 0x100 DUP2 ADD DUP3 SWAP1 MSTORE PUSH2 0x120 DUP2 ADD DUP3 SWAP1 MSTORE PUSH2 0x140 DUP2 ADD DUP3 SWAP1 MSTORE PUSH2 0x160 DUP2 ADD DUP3 SWAP1 MSTORE PUSH2 0x180 DUP2 ADD DUP3 SWAP1 MSTORE PUSH2 0x1A0 DUP2 ADD DUP3 SWAP1 MSTORE PUSH2 0x1C0 DUP2 ADD DUP3 SWAP1 MSTORE PUSH2 0x1E0 DUP2 ADD DUP3 SWAP1 MSTORE PUSH2 0x200 DUP2 ADD DUP3 SWAP1 MSTORE PUSH2 0x220 DUP2 ADD DUP3 SWAP1 MSTORE PUSH2 0x240 DUP2 ADD SWAP2 SWAP1 SWAP2 MSTORE PUSH1 0x14 PUSH2 0x260 DUP3 ADD DUP2 SWAP1 MSTORE PUSH2 0x280 DUP3 ADD DUP2 SWAP1 MSTORE PUSH2 0x2A0 DUP3 ADD DUP2 SWAP1 MSTORE PUSH2 0x2C0 DUP3 ADD DUP2 SWAP1 MSTORE PUSH2 0x2E0 DUP3 ADD DUP2 SWAP1 MSTORE PUSH2 0x300 DUP3 ADD DUP2 SWAP1 MSTORE PUSH2 0x320 DUP3 ADD DUP2 SWAP1 MSTORE PUSH2 0x340 DUP3 ADD DUP2 SWAP1 MSTORE PUSH2 0x360 DUP3 ADD DUP2 SWAP1 MSTORE PUSH2 0x380 DUP3 ADD MSTORE PUSH2 0x18E0 SWAP1 PUSH1 0xCA SWAP1 PUSH1 0x1D PUSH2 0x4F86 JUMP JUMPDEST POP PUSH1 0xCB DUP1 SLOAD PUSH3 0xFF0000 NOT AND PUSH3 0x320000 OR SWAP1 SSTORE PUSH8 0xDE0B6B3A7640000 PUSH1 0xCC SSTORE PUSH1 0xD2 DUP1 SLOAD PUSH4 0xFF00FFFF NOT AND PUSH4 0x2000101 OR SWAP1 SSTORE PUSH1 0xCF DUP1 SLOAD PUSH2 0xFFFF PUSH1 0x60 SHL NOT AND PUSH1 0x7D PUSH1 0x63 SHL OR SWAP1 SSTORE PUSH4 0x20F5800 PUSH1 0xD0 SSTORE PUSH1 0x14 PUSH1 0xD1 SSTORE PUSH3 0x278D00 PUSH1 0xD5 SSTORE PUSH2 0x1941 PUSH2 0x3F5E JUMP JUMPDEST PUSH2 0x1949 PUSH2 0x3F8D JUMP JUMPDEST DUP1 ISZERO PUSH2 0xE6E JUMPI PUSH1 0x0 DUP1 SLOAD PUSH2 0xFF00 NOT AND SWAP1 SSTORE PUSH1 0x40 MLOAD PUSH1 0x1 DUP2 MSTORE PUSH32 0x7F26B83FF96E1F2B6A682F133852F6798A09C465DA95921460CEFB3847402498 SWAP1 PUSH1 0x20 ADD PUSH1 0x40 MLOAD DUP1 SWAP2 SUB SWAP1 LOG1 POP JUMP JUMPDEST PUSH2 0x1999 PUSH2 0x2EAF JUMP JUMPDEST PUSH1 0xCB DUP1 SLOAD PUSH1 0xFF SWAP1 SWAP3 AND PUSH3 0x10000 MUL PUSH3 0xFF0000 NOT SWAP1 SWAP3 AND SWAP2 SWAP1 SWAP2 OR SWAP1 SSTORE JUMP JUMPDEST PUSH2 0x19BF PUSH2 0x2EAF JUMP JUMPDEST PUSH1 0xD6 DUP1 SLOAD PUSH1 0x1 DUP2 DUP2 ADD SWAP1 SWAP3 SSTORE PUSH32 0xE767803F8ECF1DEE6BB0345811F7312CDA556058B19DB6389AD9AE3568643DDD ADD DUP1 SLOAD PUSH1 0x1 PUSH1 0x1 PUSH1 0xA0 SHL SUB SWAP1 SWAP4 AND PUSH1 0x1 PUSH1 0x1 PUSH1 0xA0 SHL SUB NOT SWAP1 SWAP4 AND DUP4 OR SWAP1 SSTORE PUSH1 0x0 SWAP2 DUP3 MSTORE PUSH1 0xD8 PUSH1 0x20 MSTORE PUSH1 0x40 SWAP1 SWAP2 KECCAK256 DUP1 SLOAD PUSH1 0xFF NOT AND SWAP1 SWAP2 OR SWAP1 SSTORE JUMP JUMPDEST PUSH2 0x1A2E PUSH2 0x2EAF JUMP JUMPDEST PUSH1 0x40 MLOAD PUSH4 0xA9059CBB PUSH1 0xE0 SHL DUP2 MSTORE CALLER PUSH1 0x4 DUP3 ADD MSTORE PUSH1 0x24 DUP2 ADD DUP3 SWAP1 MSTORE PUSH1 0x1 PUSH1 0x1 PUSH1 0xA0 SHL SUB DUP4 AND SWAP1 PUSH4 0xA9059CBB SWAP1 PUSH1 0x44 ADD PUSH1 0x20 PUSH1 0x40 MLOAD DUP1 DUP4 SUB DUP2 PUSH1 0x0 DUP8 GAS CALL ISZERO DUP1 ISZERO PUSH2 0x1A7B JUMPI RETURNDATASIZE PUSH1 0x0 DUP1 RETURNDATACOPY RETURNDATASIZE PUSH1 0x0 REVERT JUMPDEST POP POP POP POP PUSH1 0x40 MLOAD RETURNDATASIZE PUSH1 0x1F NOT PUSH1 0x1F DUP3 ADD AND DUP3 ADD DUP1 PUSH1 0x40 MSTORE POP DUP2 ADD SWAP1 PUSH2 0xA55 SWAP2 SWAP1 PUSH2 0x5D15 JUMP JUMPDEST PUSH2 0x1AA7 PUSH2 0x2EAF JUMP JUMPDEST PUSH1 0xCB DUP1 SLOAD PUSH2 0xFFFF NOT AND PUSH2 0xFFFF SWAP3 SWAP1 SWAP3 AND SWAP2 SWAP1 SWAP2 OR SWAP1 SSTORE JUMP JUMPDEST PUSH2 0x1AC7 PUSH2 0x2EAF JUMP JUMPDEST PUSH1 0xD7 SLOAD PUSH1 0xFF AND PUSH1 0x0 JUMPDEST DUP2 PUSH1 0xFF AND DUP2 PUSH1 0xFF AND LT ISZERO PUSH2 0x1E0B JUMPI PUSH1 0xFF DUP1 DUP3 AND PUSH1 0x0 SWAP1 DUP2 MSTORE PUSH1 0xDB PUSH1 0x20 SWAP1 DUP2 MSTORE PUSH1 0x40 DUP1 DUP4 KECCAK256 DUP2 MLOAD PUSH2 0x160 DUP2 ADD DUP4 MSTORE DUP2 SLOAD SWAP1 SWAP6 AND DUP6 MSTORE PUSH1 0x1 DUP2 ADD SLOAD SWAP3 DUP6 ADD SWAP3 SWAP1 SWAP3 MSTORE PUSH1 0x2 DUP3 ADD SLOAD SWAP1 DUP5 ADD MSTORE PUSH1 0x3 DUP2 ADD SLOAD PUSH1 0x60 DUP5 ADD MSTORE PUSH1 0x4 DUP2 ADD DUP1 SLOAD SWAP3 SWAP4 SWAP3 PUSH1 0x80 DUP5 ADD SWAP2 SWAP1 PUSH2 0x1B3B SWAP1 PUSH2 0x5ADC JUMP JUMPDEST DUP1 PUSH1 0x1F ADD PUSH1 0x20 DUP1 SWAP2 DIV MUL PUSH1 0x20 ADD PUSH1 0x40 MLOAD SWAP1 DUP2 ADD PUSH1 0x40 MSTORE DUP1 SWAP3 SWAP2 SWAP1 DUP2 DUP2 MSTORE PUSH1 0x20 ADD DUP3 DUP1 SLOAD PUSH2 0x1B67 SWAP1 PUSH2 0x5ADC JUMP JUMPDEST DUP1 ISZERO PUSH2 0x1BB4 JUMPI DUP1 PUSH1 0x1F LT PUSH2 0x1B89 JUMPI PUSH2 0x100 DUP1 DUP4 SLOAD DIV MUL DUP4 MSTORE SWAP2 PUSH1 0x20 ADD SWAP2 PUSH2 0x1BB4 JUMP JUMPDEST DUP3 ADD SWAP2 SWAP1 PUSH1 0x0 MSTORE PUSH1 0x20 PUSH1 0x0 KECCAK256 SWAP1 JUMPDEST DUP2 SLOAD DUP2 MSTORE SWAP1 PUSH1 0x1 ADD SWAP1 PUSH1 0x20 ADD DUP1 DUP4 GT PUSH2 0x1B97 JUMPI DUP3 SWAP1 SUB PUSH1 0x1F AND DUP3 ADD SWAP2 JUMPDEST POP POP POP SWAP2 DUP4 MSTORE POP POP PUSH1 0x5 DUP3 ADD SLOAD PUSH1 0x20 DUP1 DUP4 ADD SWAP2 SWAP1 SWAP2 MSTORE PUSH1 0x6 DUP4 ADD SLOAD PUSH1 0x40 DUP1 DUP5 ADD SWAP2 SWAP1 SWAP2 MSTORE PUSH1 0x7 DUP5 ADD SLOAD PUSH1 0x60 DUP5 ADD MSTORE PUSH1 0x8 DUP5 ADD SLOAD PUSH1 0xFF DUP1 DUP3 AND ISZERO ISZERO PUSH1 0x80 DUP7 ADD MSTORE PUSH2 0x100 SWAP1 SWAP2 DIV AND ISZERO ISZERO PUSH1 0xA0 DUP5 ADD MSTORE PUSH1 0x9 DUP5 ADD DUP1 SLOAD DUP3 MLOAD DUP2 DUP6 MUL DUP2 ADD DUP6 ADD SWAP1 SWAP4 MSTORE DUP1 DUP4 MSTORE PUSH1 0xC0 SWAP1 SWAP5 ADD SWAP4 SWAP2 SWAP3 SWAP1 SWAP2 SWAP1 DUP4 ADD DUP3 DUP3 DUP1 ISZERO PUSH2 0x1C7C JUMPI PUSH1 0x20 MUL DUP3 ADD SWAP2 SWAP1 PUSH1 0x0 MSTORE PUSH1 0x20 PUSH1 0x0 KECCAK256 SWAP1 PUSH1 0x0 SWAP1 JUMPDEST DUP3 DUP3 SWAP1 SLOAD SWAP1 PUSH2 0x100 EXP SWAP1 DIV PUSH4 0xFFFFFFFF AND PUSH4 0xFFFFFFFF AND DUP2 MSTORE PUSH1 0x20 ADD SWAP1 PUSH1 0x4 ADD SWAP1 PUSH1 0x20 DUP3 PUSH1 0x3 ADD DIV SWAP3 DUP4 ADD SWAP3 PUSH1 0x1 SUB DUP3 MUL SWAP2 POP DUP1 DUP5 GT PUSH2 0x1C3F JUMPI SWAP1 POP JUMPDEST POP POP POP POP POP DUP2 MSTORE POP POP SWAP1 POP DUP1 PUSH2 0x120 ADD MLOAD PUSH2 0x1C97 JUMPI POP PUSH2 0x1DF9 JUMP JUMPDEST PUSH2 0x140 DUP2 ADD MLOAD DUP1 MLOAD PUSH1 0xCB SLOAD PUSH1 0xA0 DUP5 ADD MLOAD PUSH1 0xD3 SLOAD PUSH1 0x0 SWAP3 PUSH4 0xFFFFFFFF DUP6 AND SWAP3 PUSH2 0xFFFF SWAP1 SWAP2 AND SWAP2 PUSH2 0x1CC6 SWAP2 SWAP1 PUSH2 0x5D32 JUMP JUMPDEST PUSH2 0x1CD0 SWAP2 SWAP1 PUSH2 0x5D49 JUMP JUMPDEST PUSH2 0x1CDA SWAP2 SWAP1 PUSH2 0x5D49 JUMP JUMPDEST SWAP1 POP PUSH1 0x0 JUMPDEST DUP3 PUSH4 0xFFFFFFFF AND DUP2 PUSH4 0xFFFFFFFF AND LT ISZERO PUSH2 0x1DF3 JUMPI PUSH1 0x0 PUSH1 0xD9 PUSH1 0x0 DUP7 DUP5 PUSH4 0xFFFFFFFF AND DUP2 MLOAD DUP2 LT PUSH2 0x1D11 JUMPI PUSH2 0x1D11 PUSH2 0x5BD1 JUMP JUMPDEST PUSH1 0x20 MUL PUSH1 0x20 ADD ADD MLOAD PUSH4 0xFFFFFFFF AND PUSH4 0xFFFFFFFF AND DUP2 MSTORE PUSH1 0x20 ADD SWAP1 DUP2 MSTORE PUSH1 0x20 ADD PUSH1 0x0 KECCAK256 SWAP1 POP DUP6 PUSH1 0xC0 ADD MLOAD DUP2 PUSH1 0x10 ADD SLOAD GT DUP1 ISZERO PUSH2 0x1D54 JUMPI POP DUP1 PUSH1 0x19 ADD SLOAD DUP2 PUSH1 0x18 ADD SLOAD GT ISZERO JUMPDEST ISZERO PUSH2 0x1DE0 JUMPI DUP3 DUP2 PUSH1 0x18 ADD PUSH1 0x0 DUP3 DUP3 SLOAD PUSH2 0x1D6D SWAP2 SWAP1 PUSH2 0x5D6B JUMP JUMPDEST SWAP3 POP POP DUP2 SWAP1 SSTORE POP DUP3 DUP6 DUP4 PUSH4 0xFFFFFFFF AND DUP2 MLOAD DUP2 LT PUSH2 0x1D8D JUMPI PUSH2 0x1D8D PUSH2 0x5BD1 JUMP JUMPDEST PUSH1 0x20 MUL PUSH1 0x20 ADD ADD MLOAD PUSH4 0xFFFFFFFF AND PUSH32 0x94B6D3D19CC40938E685EF6A1F6476B53EF65295AB094A044E74405A8D0BD05B DUP9 PUSH1 0x0 ADD MLOAD PUSH1 0x40 MLOAD PUSH2 0x1DD7 SWAP2 SWAP1 PUSH1 0xFF SWAP2 SWAP1 SWAP2 AND DUP2 MSTORE PUSH1 0x20 ADD SWAP1 JUMP JUMPDEST PUSH1 0x40 MLOAD DUP1 SWAP2 SUB SWAP1 LOG3 JUMPDEST POP DUP1 PUSH2 0x1DEB DUP2 PUSH2 0x5D7E JUMP JUMPDEST SWAP2 POP POP PUSH2 0x1CDF JUMP JUMPDEST POP POP POP POP POP JUMPDEST DUP1 PUSH2 0x1E03 DUP2 PUSH2 0x5D97 JUMP JUMPDEST SWAP2 POP POP PUSH2 0x1AD0 JUMP JUMPDEST POP POP PUSH1 0x0 PUSH1 0xD3 SSTORE TIMESTAMP PUSH1 0xD4 SSTORE JUMP JUMPDEST PUSH4 0xFFFFFFFF DUP1 DUP3 AND PUSH1 0x0 SWAP1 DUP2 MSTORE PUSH1 0xD9 PUSH1 0x20 SWAP1 DUP2 MSTORE PUSH1 0x40 DUP1 DUP4 KECCAK256 DUP2 MLOAD PUSH2 0x3A0 DUP2 ADD SWAP1 SWAP3 MSTORE DUP1 SLOAD SWAP1 SWAP5 AND DUP2 MSTORE PUSH1 0x1 DUP5 ADD DUP1 SLOAD SWAP4 SWAP5 DUP6 SWAP5 SWAP3 SWAP4 SWAP1 SWAP3 SWAP1 DUP5 ADD SWAP2 SWAP1 PUSH2 0x1E5E SWAP1 PUSH2 0x5ADC JUMP JUMPDEST DUP1 PUSH1 0x1F ADD PUSH1 0x20 DUP1 SWAP2 DIV MUL PUSH1 0x20 ADD PUSH1 0x40 MLOAD SWAP1 DUP2 ADD PUSH1 0x40 MSTORE DUP1 SWAP3 SWAP2 SWAP1 DUP2 DUP2 MSTORE PUSH1 0x20 ADD DUP3 DUP1 SLOAD PUSH2 0x1E8A SWAP1 PUSH2 0x5ADC JUMP JUMPDEST DUP1 ISZERO PUSH2 0x1ED7 JUMPI DUP1 PUSH1 0x1F LT PUSH2 0x1EAC JUMPI PUSH2 0x100 DUP1 DUP4 SLOAD DIV MUL DUP4 MSTORE SWAP2 PUSH1 0x20 ADD SWAP2 PUSH2 0x1ED7 JUMP JUMPDEST DUP3 ADD SWAP2 SWAP1 PUSH1 0x0 MSTORE PUSH1 0x20 PUSH1 0x0 KECCAK256 SWAP1 JUMPDEST DUP2 SLOAD DUP2 MSTORE SWAP1 PUSH1 0x1 ADD SWAP1 PUSH1 0x20 ADD DUP1 DUP4 GT PUSH2 0x1EBA JUMPI DUP3 SWAP1 SUB PUSH1 0x1F AND DUP3 ADD SWAP2 JUMPDEST POP POP POP SWAP2 DUP4 MSTORE POP POP PUSH1 0x2 DUP3 ADD SLOAD PUSH1 0xFF DUP2 AND ISZERO ISZERO PUSH1 0x20 DUP1 DUP5 ADD SWAP2 SWAP1 SWAP2 MSTORE PUSH2 0x100 SWAP1 SWAP2 DIV PUSH1 0x1 PUSH1 0x1 PUSH1 0xA0 SHL SUB AND PUSH1 0x40 DUP1 DUP5 ADD SWAP2 SWAP1 SWAP2 MSTORE PUSH1 0x3 DUP5 ADD SLOAD PUSH1 0x60 DUP5 ADD MSTORE PUSH1 0x4 DUP5 ADD SLOAD PUSH1 0x80 DUP5 ADD MSTORE PUSH1 0x5 DUP5 ADD SLOAD PUSH1 0xA0 DUP5 ADD MSTORE PUSH1 0x6 DUP5 ADD DUP1 SLOAD DUP3 MLOAD DUP2 DUP6 MUL DUP2 ADD DUP6 ADD SWAP1 SWAP4 MSTORE DUP1 DUP4 MSTORE PUSH1 0xC0 SWAP1 SWAP5 ADD SWAP4 SWAP2 SWAP3 SWAP1 SWAP2 SWAP1 DUP4 ADD DUP3 DUP3 DUP1 ISZERO PUSH2 0x1FA4 JUMPI PUSH1 0x20 MUL DUP3 ADD SWAP2 SWAP1 PUSH1 0x0 MSTORE PUSH1 0x20 PUSH1 0x0 KECCAK256 SWAP1 PUSH1 0x0 SWAP1 JUMPDEST DUP3 DUP3 SWAP1 SLOAD SWAP1 PUSH2 0x100 EXP SWAP1 DIV PUSH4 0xFFFFFFFF AND PUSH4 0xFFFFFFFF AND DUP2 MSTORE PUSH1 0x20 ADD SWAP1 PUSH1 0x4 ADD SWAP1 PUSH1 0x20 DUP3 PUSH1 0x3 ADD DIV SWAP3 DUP4 ADD SWAP3 PUSH1 0x1 SUB DUP3 MUL SWAP2 POP DUP1 DUP5 GT PUSH2 0x1F67 JUMPI SWAP1 POP JUMPDEST POP POP POP SWAP2 DUP4 MSTORE POP POP PUSH1 0x7 DUP3 ADD SLOAD PUSH4 0xFFFFFFFF AND PUSH1 0x20 DUP1 DUP4 ADD SWAP2 SWAP1 SWAP2 MSTORE PUSH1 0x8 DUP4 ADD DUP1 SLOAD PUSH1 0x40 DUP1 MLOAD DUP3 DUP6 MUL DUP2 ADD DUP6 ADD DUP3 MSTORE DUP3 DUP2 MSTORE SWAP5 ADD SWAP4 SWAP3 DUP4 ADD DUP3 DUP3 DUP1 ISZERO PUSH2 0x2035 JUMPI PUSH1 0x20 MUL DUP3 ADD SWAP2 SWAP1 PUSH1 0x0 MSTORE PUSH1 0x20 PUSH1 0x0 KECCAK256 SWAP1 PUSH1 0x0 SWAP1 JUMPDEST DUP3 DUP3 SWAP1 SLOAD SWAP1 PUSH2 0x100 EXP SWAP1 DIV PUSH4 0xFFFFFFFF AND PUSH4 0xFFFFFFFF AND DUP2 MSTORE PUSH1 0x20 ADD SWAP1 PUSH1 0x4 ADD SWAP1 PUSH1 0x20 DUP3 PUSH1 0x3 ADD DIV SWAP3 DUP4 ADD SWAP3 PUSH1 0x1 SUB DUP3 MUL SWAP2 POP DUP1 DUP5 GT PUSH2 0x1FF8 JUMPI SWAP1 POP JUMPDEST POP POP POP POP POP DUP2 MSTORE PUSH1 0x20 ADD PUSH1 0x9 DUP3 ADD DUP1 SLOAD DUP1 PUSH1 0x20 MUL PUSH1 0x20 ADD PUSH1 0x40 MLOAD SWAP1 DUP2 ADD PUSH1 0x40 MSTORE DUP1 SWAP3 SWAP2 SWAP1 DUP2 DUP2 MSTORE PUSH1 0x20 ADD DUP3 DUP1 SLOAD DUP1 ISZERO PUSH2 0x20B9 JUMPI PUSH1 0x20 MUL DUP3 ADD SWAP2 SWAP1 PUSH1 0x0 MSTORE PUSH1 0x20 PUSH1 0x0 KECCAK256 SWAP1 PUSH1 0x0 SWAP1 JUMPDEST DUP3 DUP3 SWAP1 SLOAD SWAP1 PUSH2 0x100 EXP SWAP1 DIV PUSH4 0xFFFFFFFF AND PUSH4 0xFFFFFFFF AND DUP2 MSTORE PUSH1 0x20 ADD SWAP1 PUSH1 0x4 ADD SWAP1 PUSH1 0x20 DUP3 PUSH1 0x3 ADD DIV SWAP3 DUP4 ADD SWAP3 PUSH1 0x1 SUB DUP3 MUL SWAP2 POP DUP1 DUP5 GT PUSH2 0x207C JUMPI SWAP1 POP JUMPDEST POP POP POP SWAP2 DUP4 MSTORE POP POP PUSH1 0xA DUP3 ADD SLOAD PUSH1 0x20 DUP3 ADD MSTORE PUSH1 0xB DUP3 ADD SLOAD PUSH1 0x40 DUP3 ADD MSTORE PUSH1 0xC DUP3 ADD SLOAD PUSH1 0x60 DUP3 ADD MSTORE PUSH1 0xD DUP3 ADD SLOAD PUSH1 0x80 DUP3 ADD MSTORE PUSH1 0xE DUP3 ADD SLOAD PUSH1 0xA0 DUP3 ADD MSTORE PUSH1 0xF DUP3 ADD SLOAD PUSH1 0xC0 DUP3 ADD MSTORE PUSH1 0x10 DUP3 ADD SLOAD PUSH1 0xE0 DUP3 ADD MSTORE PUSH1 0x11 DUP3 ADD SLOAD PUSH2 0x100 DUP3 ADD MSTORE PUSH1 0x12 DUP3 ADD SLOAD PUSH1 0xFF AND PUSH2 0x120 DUP3 ADD MSTORE PUSH1 0x13 DUP3 ADD SLOAD PUSH2 0x140 DUP3 ADD MSTORE PUSH1 0x14 DUP3 ADD SLOAD PUSH2 0x160 DUP3 ADD MSTORE PUSH1 0x15 DUP3 ADD SLOAD PUSH2 0x180 DUP3 ADD MSTORE PUSH1 0x16 DUP3 ADD SLOAD PUSH2 0x1A0 DUP3 ADD MSTORE PUSH1 0x17 DUP3 ADD SLOAD PUSH2 0x1C0 DUP3 ADD MSTORE PUSH1 0x18 DUP3 ADD SLOAD PUSH2 0x1E0 DUP3 ADD MSTORE PUSH1 0x19 DUP3 ADD SLOAD PUSH2 0x200 DUP3 ADD MSTORE PUSH1 0x1A DUP3 ADD SLOAD PUSH2 0x220 DUP3 ADD MSTORE PUSH1 0x1B SWAP1 SWAP2 ADD SLOAD PUSH2 0x240 SWAP1 SWAP2 ADD MSTORE SWAP1 POP PUSH2 0xE09 DUP2 PUSH2 0x3FB4 JUMP JUMPDEST PUSH1 0xCC SLOAD CALLVALUE SWAP1 PUSH2 0x219E SWAP1 PUSH2 0x3FF1 JUMP JUMPDEST DUP2 LT ISZERO PUSH2 0x2201 JUMPI PUSH1 0x40 MLOAD PUSH3 0x461BCD PUSH1 0xE5 SHL DUP2 MSTORE PUSH1 0x20 PUSH1 0x4 DUP3 ADD MSTORE PUSH1 0x2B PUSH1 0x24 DUP3 ADD MSTORE PUSH32 0x56616C75652073686F756C6420626520677265617465207468656E206D696E43 PUSH1 0x44 DUP3 ADD MSTORE PUSH11 0x37B73A3934B13ABA34B7B7 PUSH1 0xA9 SHL PUSH1 0x64 DUP3 ADD MSTORE PUSH1 0x84 ADD PUSH2 0xEB9 JUMP JUMPDEST CALLER PUSH1 0x0 PUSH2 0x220D DUP4 PUSH2 0x4087 JUMP JUMPDEST PUSH1 0xCF SLOAD SWAP1 SWAP2 POP TIMESTAMP SWAP1 PUSH1 0x0 SWAP1 PUSH2 0x2230 SWAP1 PUSH1 0x1 PUSH1 0x40 SHL SWAP1 DIV PUSH4 0xFFFFFFFF AND PUSH1 0x1 PUSH2 0x5DB6 JUMP JUMPDEST PUSH4 0xFFFFFFFF DUP8 AND PUSH1 0x0 SWAP1 DUP2 MSTORE PUSH1 0xD9 PUSH1 0x20 MSTORE PUSH1 0x40 SWAP1 KECCAK256 PUSH1 0x2 DUP2 ADD SLOAD SWAP2 SWAP3 POP SWAP1 PUSH1 0x1 PUSH1 0x1 PUSH1 0xA0 SHL SUB DUP7 DUP2 AND PUSH2 0x100 SWAP1 SWAP3 DIV AND EQ PUSH2 0x227D JUMPI PUSH1 0x40 MLOAD PUSH3 0x461BCD PUSH1 0xE5 SHL DUP2 MSTORE PUSH1 0x4 ADD PUSH2 0xEB9 SWAP1 PUSH2 0x5DDA JUMP JUMPDEST PUSH1 0xD2 SLOAD PUSH1 0xFF AND ISZERO PUSH2 0x2294 JUMPI PUSH2 0x2294 DUP8 DUP4 DUP7 DUP7 PUSH2 0x4114 JUMP JUMPDEST POP POP POP POP POP POP POP JUMP JUMPDEST PUSH2 0x22A5 PUSH2 0x2EAF JUMP JUMPDEST DUP3 DUP2 EQ PUSH2 0x22F4 JUMPI PUSH1 0x40 MLOAD PUSH3 0x461BCD PUSH1 0xE5 SHL DUP2 MSTORE PUSH1 0x20 PUSH1 0x4 DUP3 ADD MSTORE PUSH1 0x1C PUSH1 0x24 DUP3 ADD MSTORE PUSH32 0x496E707574206C656E677468206469646E6F74206D6174636865642E00000000 PUSH1 0x44 DUP3 ADD MSTORE PUSH1 0x64 ADD PUSH2 0xEB9 JUMP JUMPDEST PUSH1 0x0 JUMPDEST PUSH2 0xFFFF DUP2 AND DUP5 GT ISZERO PUSH2 0x1109 JUMPI DUP3 DUP3 DUP3 PUSH2 0xFFFF AND DUP2 DUP2 LT PUSH2 0x2319 JUMPI PUSH2 0x2319 PUSH2 0x5BD1 JUMP JUMPDEST SWAP1 POP PUSH1 0x20 MUL ADD PUSH1 0x20 DUP2 ADD SWAP1 PUSH2 0x232E SWAP2 SWAP1 PUSH2 0x5199 JUMP JUMPDEST PUSH4 0xFFFFFFFF AND ISZERO PUSH2 0x2397 JUMPI PUSH2 0x2397 DUP6 DUP6 DUP4 PUSH2 0xFFFF AND DUP2 DUP2 LT PUSH2 0x2352 JUMPI PUSH2 0x2352 PUSH2 0x5BD1 JUMP JUMPDEST SWAP1 POP PUSH1 0x20 MUL ADD PUSH1 0x20 DUP2 ADD SWAP1 PUSH2 0x2367 SWAP2 SWAP1 PUSH2 0x5199 JUMP JUMPDEST DUP5 DUP5 DUP5 PUSH2 0xFFFF AND DUP2 DUP2 LT PUSH2 0x237D JUMPI PUSH2 0x237D PUSH2 0x5BD1 JUMP JUMPDEST SWAP1 POP PUSH1 0x20 MUL ADD PUSH1 0x20 DUP2 ADD SWAP1 PUSH2 0x2392 SWAP2 SWAP1 PUSH2 0x5199 JUMP JUMPDEST PUSH2 0x4279 JUMP JUMPDEST DUP1 PUSH2 0x23A1 DUP2 PUSH2 0x5BE7 JUMP JUMPDEST SWAP2 POP POP PUSH2 0x22F7 JUMP JUMPDEST PUSH2 0x23B1 PUSH2 0x2EAF JUMP JUMPDEST PUSH1 0x0 JUMPDEST DUP12 DUP2 LT ISZERO PUSH2 0x24C7 JUMPI PUSH1 0x0 DUP12 DUP12 DUP4 DUP2 DUP2 LT PUSH2 0x23D0 JUMPI PUSH2 0x23D0 PUSH2 0x5BD1 JUMP JUMPDEST SWAP1 POP PUSH1 0x20 MUL ADD CALLDATALOAD GT ISZERO PUSH2 0x24B5 JUMPI PUSH1 0x0 DUP12 DUP12 DUP4 DUP2 DUP2 LT PUSH2 0x23F1 JUMPI PUSH2 0x23F1 PUSH2 0x5BD1 JUMP JUMPDEST SWAP1 POP PUSH1 0x20 MUL ADD CALLDATALOAD PUSH1 0x3 PUSH2 0x2404 SWAP2 SWAP1 PUSH2 0x5D32 JUMP JUMPDEST SWAP1 POP PUSH2 0x24B3 DUP15 DUP15 DUP5 DUP2 DUP2 LT PUSH2 0x241B JUMPI PUSH2 0x241B PUSH2 0x5BD1 JUMP JUMPDEST SWAP1 POP PUSH1 0x20 MUL ADD PUSH1 0x20 DUP2 ADD SWAP1 PUSH2 0x2430 SWAP2 SWAP1 PUSH2 0x5199 JUMP JUMPDEST DUP14 DUP14 DUP6 DUP2 DUP2 LT PUSH2 0x2442 JUMPI PUSH2 0x2442 PUSH2 0x5BD1 JUMP JUMPDEST SWAP1 POP PUSH1 0x20 MUL ADD CALLDATALOAD DUP4 DUP14 DUP14 DUP8 DUP2 DUP2 LT PUSH2 0x245C JUMPI PUSH2 0x245C PUSH2 0x5BD1 JUMP JUMPDEST SWAP1 POP PUSH1 0x20 MUL ADD CALLDATALOAD DUP13 DUP13 DUP9 DUP2 DUP2 LT PUSH2 0x2475 JUMPI PUSH2 0x2475 PUSH2 0x5BD1 JUMP JUMPDEST SWAP1 POP PUSH1 0x20 MUL ADD CALLDATALOAD DUP12 DUP12 DUP10 DUP2 DUP2 LT PUSH2 0x248E JUMPI PUSH2 0x248E PUSH2 0x5BD1 JUMP JUMPDEST SWAP1 POP PUSH1 0x20 MUL ADD CALLDATALOAD DUP11 DUP11 DUP11 DUP2 DUP2 LT PUSH2 0x24A7 JUMPI PUSH2 0x24A7 PUSH2 0x5BD1 JUMP JUMPDEST SWAP1 POP PUSH1 0x20 MUL ADD CALLDATALOAD PUSH2 0x4403 JUMP JUMPDEST POP JUMPDEST DUP1 PUSH2 0x24BF DUP2 PUSH2 0x5E11 JUMP JUMPDEST SWAP2 POP POP PUSH2 0x23B4 JUMP JUMPDEST POP POP POP POP POP POP POP POP POP POP POP POP POP JUMP JUMPDEST PUSH2 0x24DE PUSH2 0x2EAF JUMP JUMPDEST PUSH2 0xA55 PUSH1 0xCA DUP4 DUP4 PUSH2 0x502E JUMP JUMPDEST PUSH2 0x24F2 PUSH2 0x2EAF JUMP JUMPDEST PUSH1 0x1 PUSH1 0x1 PUSH1 0xA0 SHL SUB DUP2 AND PUSH1 0x0 SWAP1 DUP2 MSTORE PUSH1 0xD8 PUSH1 0x20 MSTORE PUSH1 0x40 DUP2 KECCAK256 DUP1 SLOAD PUSH1 0xFF NOT AND SWAP1 SSTORE PUSH1 0xD6 SLOAD SWAP1 JUMPDEST DUP2 DUP2 LT ISZERO PUSH2 0xA55 JUMPI DUP3 PUSH1 0x1 PUSH1 0x1 PUSH1 0xA0 SHL SUB AND PUSH1 0xD6 DUP3 DUP2 SLOAD DUP2 LT PUSH2 0x253C JUMPI PUSH2 0x253C PUSH2 0x5BD1 JUMP JUMPDEST PUSH1 0x0 SWAP2 DUP3 MSTORE PUSH1 0x20 SWAP1 SWAP2 KECCAK256 ADD SLOAD PUSH1 0x1 PUSH1 0x1 PUSH1 0xA0 SHL SUB AND SUB PUSH2 0x2601 JUMPI PUSH1 0xD6 PUSH2 0x2563 PUSH1 0x1 DUP5 PUSH2 0x5B26 JUMP JUMPDEST DUP2 SLOAD DUP2 LT PUSH2 0x2573 JUMPI PUSH2 0x2573 PUSH2 0x5BD1 JUMP JUMPDEST PUSH1 0x0 SWAP2 DUP3 MSTORE PUSH1 0x20 SWAP1 SWAP2 KECCAK256 ADD SLOAD PUSH1 0xD6 DUP1 SLOAD PUSH1 0x1 PUSH1 0x1 PUSH1 0xA0 SHL SUB SWAP1 SWAP3 AND SWAP2 DUP4 SWAP1 DUP2 LT PUSH2 0x259F JUMPI PUSH2 0x259F PUSH2 0x5BD1 JUMP JUMPDEST SWAP1 PUSH1 0x0 MSTORE PUSH1 0x20 PUSH1 0x0 KECCAK256 ADD PUSH1 0x0 PUSH2 0x100 EXP DUP2 SLOAD DUP2 PUSH1 0x1 PUSH1 0x1 PUSH1 0xA0 SHL SUB MUL NOT AND SWAP1 DUP4 PUSH1 0x1 PUSH1 0x1 PUSH1 0xA0 SHL SUB AND MUL OR SWAP1 SSTORE POP PUSH1 0xD6 DUP1 SLOAD DUP1 PUSH2 0x25DE JUMPI PUSH2 0x25DE PUSH2 0x5E2A JUMP JUMPDEST PUSH1 0x0 DUP3 DUP2 MSTORE PUSH1 0x20 SWAP1 KECCAK256 DUP2 ADD PUSH1 0x0 NOT SWAP1 DUP2 ADD DUP1 SLOAD PUSH1 0x1 PUSH1 0x1 PUSH1 0xA0 SHL SUB NOT AND SWAP1 SSTORE ADD SWAP1 SSTORE JUMPDEST DUP1 PUSH2 0x260B DUP2 PUSH2 0x5E11 JUMP JUMPDEST SWAP2 POP POP PUSH2 0x2517 JUMP JUMPDEST CALLVALUE PUSH1 0x0 PUSH2 0x261F DUP3 PUSH2 0x4087 JUMP JUMPDEST SWAP1 POP PUSH2 0x262C PUSH1 0xCC SLOAD PUSH2 0x3FF1 JUMP JUMPDEST DUP3 LT ISZERO PUSH2 0x267B JUMPI PUSH1 0x40 MLOAD PUSH3 0x461BCD PUSH1 0xE5 SHL DUP2 MSTORE PUSH1 0x20 PUSH1 0x4 DUP3 ADD MSTORE PUSH1 0x1F PUSH1 0x24 DUP3 ADD MSTORE PUSH32 0x56616C75652073686F756C6420626520677265617465207468656E2031303000 PUSH1 0x44 DUP3 ADD MSTORE PUSH1 0x64 ADD PUSH2 0xEB9 JUMP JUMPDEST PUSH1 0xCF SLOAD CALLER SWAP1 TIMESTAMP SWAP1 PUSH1 0x0 SWAP1 PUSH2 0x269D SWAP1 PUSH1 0x1 PUSH1 0x20 SHL SWAP1 DIV PUSH4 0xFFFFFFFF AND PUSH1 0x1 PUSH2 0x5DB6 JUMP JUMPDEST PUSH1 0xCF SLOAD SWAP1 SWAP2 POP PUSH1 0x0 SWAP1 PUSH2 0x26BE SWAP1 PUSH1 0x1 PUSH1 0x40 SHL SWAP1 DIV PUSH4 0xFFFFFFFF AND PUSH1 0x1 PUSH2 0x5DB6 JUMP JUMPDEST PUSH1 0x1 PUSH1 0x1 PUSH1 0xA0 SHL SUB DUP6 AND PUSH1 0x0 SWAP1 DUP2 MSTORE PUSH1 0xD8 PUSH1 0x20 MSTORE PUSH1 0x40 SWAP1 KECCAK256 SWAP1 SWAP2 POP PUSH2 0x26E3 DUP4 DUP10 PUSH2 0x4279 JUMP JUMPDEST PUSH1 0xD2 SLOAD PUSH1 0xFF AND ISZERO PUSH2 0x26FA JUMPI PUSH2 0x26FA DUP4 DUP4 DUP9 DUP8 PUSH2 0x4114 JUMP JUMPDEST PUSH2 0x2721 DUP4 DUP4 DUP8 DUP10 PUSH2 0x270C DUP2 PUSH1 0x3 PUSH2 0x5D32 JUMP JUMPDEST PUSH1 0xCB SLOAD DUP11 SWAP1 DUP2 SWAP1 PUSH3 0x10000 SWAP1 DIV PUSH1 0xFF AND PUSH2 0x45D7 JUMP JUMPDEST PUSH1 0x1 SWAP1 DUP2 ADD DUP1 SLOAD SWAP2 DUP3 ADD DUP2 SSTORE PUSH1 0x0 SWAP1 DUP2 MSTORE PUSH1 0x20 SWAP1 KECCAK256 PUSH1 0x8 DUP3 DIV ADD DUP1 SLOAD PUSH1 0x7 SWAP1 SWAP3 AND PUSH1 0x4 MUL PUSH2 0x100 EXP PUSH4 0xFFFFFFFF DUP2 DUP2 MUL NOT SWAP1 SWAP4 AND SWAP5 SWAP1 SWAP3 AND SWAP2 SWAP1 SWAP2 MUL SWAP3 SWAP1 SWAP3 OR SWAP1 SWAP2 SSTORE POP POP POP POP POP POP JUMP JUMPDEST PUSH2 0x2774 PUSH2 0x2EAF JUMP JUMPDEST PUSH1 0x1 PUSH1 0x1 PUSH1 0xA0 SHL SUB DUP2 AND PUSH2 0x27D9 JUMPI PUSH1 0x40 MLOAD PUSH3 0x461BCD PUSH1 0xE5 SHL DUP2 MSTORE PUSH1 0x20 PUSH1 0x4 DUP3 ADD MSTORE PUSH1 0x26 PUSH1 0x24 DUP3 ADD MSTORE PUSH32 0x4F776E61626C653A206E6577206F776E657220697320746865207A65726F2061 PUSH1 0x44 DUP3 ADD MSTORE PUSH6 0x646472657373 PUSH1 0xD0 SHL PUSH1 0x64 DUP3 ADD MSTORE PUSH1 0x84 ADD PUSH2 0xEB9 JUMP JUMPDEST PUSH2 0xE6E DUP2 PUSH2 0x3098 JUMP JUMPDEST PUSH4 0xFFFFFFFF DUP3 AND PUSH1 0x0 SWAP1 DUP2 MSTORE PUSH1 0xD9 PUSH1 0x20 MSTORE PUSH1 0x40 SWAP1 KECCAK256 PUSH1 0x2 DUP2 ADD SLOAD PUSH1 0xFF AND ISZERO PUSH2 0x283F JUMPI PUSH1 0x40 MLOAD PUSH3 0x461BCD PUSH1 0xE5 SHL DUP2 MSTORE PUSH1 0x20 PUSH1 0x4 DUP3 ADD MSTORE PUSH1 0x10 PUSH1 0x24 DUP3 ADD MSTORE PUSH16 0x4944206973206E6F7420616374697665 PUSH1 0x80 SHL PUSH1 0x44 DUP3 ADD MSTORE PUSH1 0x64 ADD PUSH2 0xEB9 JUMP JUMPDEST PUSH1 0x2 DUP2 ADD SLOAD PUSH2 0x100 SWAP1 DIV PUSH1 0x1 PUSH1 0x1 PUSH1 0xA0 SHL SUB AND CALLER EQ PUSH2 0x2870 JUMPI PUSH1 0x40 MLOAD PUSH3 0x461BCD PUSH1 0xE5 SHL DUP2 MSTORE PUSH1 0x4 ADD PUSH2 0xEB9 SWAP1 PUSH2 0x5DDA JUMP JUMPDEST PUSH1 0x0 PUSH2 0x287B DUP3 PUSH2 0x49D9 JUMP JUMPDEST PUSH1 0x17 DUP4 ADD SLOAD SWAP1 SWAP2 POP PUSH2 0x288D DUP2 DUP4 PUSH2 0x5B26 JUMP JUMPDEST DUP5 GT ISZERO PUSH2 0x28EF JUMPI PUSH1 0x40 MLOAD PUSH3 0x461BCD PUSH1 0xE5 SHL DUP2 MSTORE PUSH1 0x20 PUSH1 0x4 DUP3 ADD MSTORE PUSH1 0x2A PUSH1 0x24 DUP3 ADD MSTORE PUSH32 0x506C6561736520656E7465722076616C7565206C657373207468656E20796F75 PUSH1 0x44 DUP3 ADD MSTORE PUSH10 0x39103130B630B731B297 PUSH1 0xB1 SHL PUSH1 0x64 DUP3 ADD MSTORE PUSH1 0x84 ADD PUSH2 0xEB9 JUMP JUMPDEST DUP4 DUP4 PUSH1 0x17 ADD PUSH1 0x0 DUP3 DUP3 SLOAD PUSH2 0x2903 SWAP2 SWAP1 PUSH2 0x5D6B JUMP JUMPDEST SWAP1 SWAP2 SSTORE POP POP PUSH1 0x40 MLOAD CALLER SWAP1 DUP6 ISZERO PUSH2 0x8FC MUL SWAP1 DUP7 SWAP1 PUSH1 0x0 DUP2 DUP2 DUP2 DUP6 DUP9 DUP9 CALL SWAP4 POP POP POP POP ISZERO DUP1 ISZERO PUSH2 0x2935 JUMPI RETURNDATASIZE PUSH1 0x0 DUP1 RETURNDATACOPY RETURNDATASIZE PUSH1 0x0 REVERT JUMPDEST POP DUP3 PUSH1 0x19 ADD SLOAD PUSH2 0x2294 DUP5 PUSH2 0x49D9 JUMP JUMPDEST PUSH2 0x2A39 PUSH1 0x40 MLOAD DUP1 PUSH2 0x3A0 ADD PUSH1 0x40 MSTORE DUP1 PUSH1 0x0 PUSH4 0xFFFFFFFF AND DUP2 MSTORE PUSH1 0x20 ADD PUSH1 0x60 DUP2 MSTORE PUSH1 0x20 ADD PUSH1 0x0 ISZERO ISZERO DUP2 MSTORE PUSH1 0x20 ADD PUSH1 0x0 PUSH1 0x1 PUSH1 0x1 PUSH1 0xA0 SHL SUB AND DUP2 MSTORE PUSH1 0x20 ADD PUSH1 0x0 DUP2 MSTORE PUSH1 0x20 ADD PUSH1 0x0 DUP2 MSTORE PUSH1 0x20 ADD PUSH1 0x0 DUP2 MSTORE PUSH1 0x20 ADD PUSH1 0x60 DUP2 MSTORE PUSH1 0x20 ADD PUSH1 0x0 PUSH4 0xFFFFFFFF AND DUP2 MSTORE PUSH1 0x20 ADD PUSH1 0x60 DUP2 MSTORE PUSH1 0x20 ADD PUSH1 0x60 DUP2 MSTORE PUSH1 0x20 ADD PUSH1 0x0 DUP2 MSTORE PUSH1 0x20 ADD PUSH1 0x0 DUP2 MSTORE PUSH1 0x20 ADD PUSH1 0x0 DUP2 MSTORE PUSH1 0x20 ADD PUSH1 0x0 DUP2 MSTORE PUSH1 0x20 ADD PUSH1 0x0 DUP2 MSTORE PUSH1 0x20 ADD PUSH1 0x0 DUP2 MSTORE PUSH1 0x20 ADD PUSH1 0x0 DUP2 MSTORE PUSH1 0x20 ADD PUSH1 0x0 DUP2 MSTORE PUSH1 0x20 ADD PUSH1 0x0 PUSH1 0xFF AND DUP2 MSTORE PUSH1 0x20 ADD PUSH1 0x0 DUP2 MSTORE PUSH1 0x20 ADD PUSH1 0x0 DUP2 MSTORE PUSH1 0x20 ADD PUSH1 0x0 DUP2 MSTORE PUSH1 0x20 ADD PUSH1 0x0 DUP2 MSTORE PUSH1 0x20 ADD PUSH1 0x0 DUP2 MSTORE PUSH1 0x20 ADD PUSH1 0x0 DUP2 MSTORE PUSH1 0x20 ADD PUSH1 0x0 DUP2 MSTORE PUSH1 0x20 ADD PUSH1 0x0 DUP2 MSTORE PUSH1 0x20 ADD PUSH1 0x0 DUP2 MSTORE POP SWAP1 JUMP JUMPDEST PUSH4 0xFFFFFFFF DUP1 DUP4 AND PUSH1 0x0 SWAP1 DUP2 MSTORE PUSH1 0xD9 PUSH1 0x20 SWAP1 DUP2 MSTORE PUSH1 0x40 SWAP2 DUP3 SWAP1 KECCAK256 DUP3 MLOAD PUSH2 0x3A0 DUP2 ADD SWAP1 SWAP4 MSTORE DUP1 SLOAD SWAP1 SWAP4 AND DUP3 MSTORE PUSH1 0x1 DUP4 ADD DUP1 SLOAD SWAP3 SWAP4 SWAP3 SWAP2 DUP5 ADD SWAP2 PUSH2 0x2A7A SWAP1 PUSH2 0x5ADC JUMP JUMPDEST DUP1 PUSH1 0x1F ADD PUSH1 0x20 DUP1 SWAP2 DIV MUL PUSH1 0x20 ADD PUSH1 0x40 MLOAD SWAP1 DUP2 ADD PUSH1 0x40 MSTORE DUP1 SWAP3 SWAP2 SWAP1 DUP2 DUP2 MSTORE PUSH1 0x20 ADD DUP3 DUP1 SLOAD PUSH2 0x2AA6 SWAP1 PUSH2 0x5ADC JUMP JUMPDEST DUP1 ISZERO PUSH2 0x2AF3 JUMPI DUP1 PUSH1 0x1F LT PUSH2 0x2AC8 JUMPI PUSH2 0x100 DUP1 DUP4 SLOAD DIV MUL DUP4 MSTORE SWAP2 PUSH1 0x20 ADD SWAP2 PUSH2 0x2AF3 JUMP JUMPDEST DUP3 ADD SWAP2 SWAP1 PUSH1 0x0 MSTORE PUSH1 0x20 PUSH1 0x0 KECCAK256 SWAP1 JUMPDEST DUP2 SLOAD DUP2 MSTORE SWAP1 PUSH1 0x1 ADD SWAP1 PUSH1 0x20 ADD DUP1 DUP4 GT PUSH2 0x2AD6 JUMPI DUP3 SWAP1 SUB PUSH1 0x1F AND DUP3 ADD SWAP2 JUMPDEST POP POP POP SWAP2 DUP4 MSTORE POP POP PUSH1 0x2 DUP3 ADD SLOAD PUSH1 0xFF DUP2 AND ISZERO ISZERO PUSH1 0x20 DUP1 DUP5 ADD SWAP2 SWAP1 SWAP2 MSTORE PUSH2 0x100 SWAP1 SWAP2 DIV PUSH1 0x1 PUSH1 0x1 PUSH1 0xA0 SHL SUB AND PUSH1 0x40 DUP1 DUP5 ADD SWAP2 SWAP1 SWAP2 MSTORE PUSH1 0x3 DUP5 ADD SLOAD PUSH1 0x60 DUP5 ADD MSTORE PUSH1 0x4 DUP5 ADD SLOAD PUSH1 0x80 DUP5 ADD MSTORE PUSH1 0x5 DUP5 ADD SLOAD PUSH1 0xA0 DUP5 ADD MSTORE PUSH1 0x6 DUP5 ADD DUP1 SLOAD DUP3 MLOAD DUP2 DUP6 MUL DUP2 ADD DUP6 ADD SWAP1 SWAP4 MSTORE DUP1 DUP4 MSTORE PUSH1 0xC0 SWAP1 SWAP5 ADD SWAP4 SWAP2 SWAP3 SWAP1 SWAP2 SWAP1 DUP4 ADD DUP3 DUP3 DUP1 ISZERO PUSH2 0x2BC0 JUMPI PUSH1 0x20 MUL DUP3 ADD SWAP2 SWAP1 PUSH1 0x0 MSTORE PUSH1 0x20 PUSH1 0x0 KECCAK256 SWAP1 PUSH1 0x0 SWAP1 JUMPDEST DUP3 DUP3 SWAP1 SLOAD SWAP1 PUSH2 0x100 EXP SWAP1 DIV PUSH4 0xFFFFFFFF AND PUSH4 0xFFFFFFFF AND DUP2 MSTORE PUSH1 0x20 ADD SWAP1 PUSH1 0x4 ADD SWAP1 PUSH1 0x20 DUP3 PUSH1 0x3 ADD DIV SWAP3 DUP4 ADD SWAP3 PUSH1 0x1 SUB DUP3 MUL SWAP2 POP DUP1 DUP5 GT PUSH2 0x2B83 JUMPI SWAP1 POP JUMPDEST POP POP POP SWAP2 DUP4 MSTORE POP POP PUSH1 0x7 DUP3 ADD SLOAD PUSH4 0xFFFFFFFF AND PUSH1 0x20 DUP1 DUP4 ADD SWAP2 SWAP1 SWAP2 MSTORE PUSH1 0x8 DUP4 ADD DUP1 SLOAD PUSH1 0x40 DUP1 MLOAD DUP3 DUP6 MUL DUP2 ADD DUP6 ADD DUP3 MSTORE DUP3 DUP2 MSTORE SWAP5 ADD SWAP4 SWAP3 DUP4 ADD DUP3 DUP3 DUP1 ISZERO PUSH2 0x2C51 JUMPI PUSH1 0x20 MUL DUP3 ADD SWAP2 SWAP1 PUSH1 0x0 MSTORE PUSH1 0x20 PUSH1 0x0 KECCAK256 SWAP1 PUSH1 0x0 SWAP1 JUMPDEST DUP3 DUP3 SWAP1 SLOAD SWAP1 PUSH2 0x100 EXP SWAP1 DIV PUSH4 0xFFFFFFFF AND PUSH4 0xFFFFFFFF AND DUP2 MSTORE PUSH1 0x20 ADD SWAP1 PUSH1 0x4 ADD SWAP1 PUSH1 0x20 DUP3 PUSH1 0x3 ADD DIV SWAP3 DUP4 ADD SWAP3 PUSH1 0x1 SUB DUP3 MUL SWAP2 POP DUP1 DUP5 GT PUSH2 0x2C14 JUMPI SWAP1 POP JUMPDEST POP POP POP POP POP DUP2 MSTORE PUSH1 0x20 ADD PUSH1 0x9 DUP3 ADD DUP1 SLOAD DUP1 PUSH1 0x20 MUL PUSH1 0x20 ADD PUSH1 0x40 MLOAD SWAP1 DUP2 ADD PUSH1 0x40 MSTORE DUP1 SWAP3 SWAP2 SWAP1 DUP2 DUP2 MSTORE PUSH1 0x20 ADD DUP3 DUP1 SLOAD DUP1 ISZERO PUSH2 0x2CD5 JUMPI PUSH1 0x20 MUL DUP3 ADD SWAP2 SWAP1 PUSH1 0x0 MSTORE PUSH1 0x20 PUSH1 0x0 KECCAK256 SWAP1 PUSH1 0x0 SWAP1 JUMPDEST DUP3 DUP3 SWAP1 SLOAD SWAP1 PUSH2 0x100 EXP SWAP1 DIV PUSH4 0xFFFFFFFF AND PUSH4 0xFFFFFFFF AND DUP2 MSTORE PUSH1 0x20 ADD SWAP1 PUSH1 0x4 ADD SWAP1 PUSH1 0x20 DUP3 PUSH1 0x3 ADD DIV SWAP3 DUP4 ADD SWAP3 PUSH1 0x1 SUB DUP3 MUL SWAP2 POP DUP1 DUP5 GT PUSH2 0x2C98 JUMPI SWAP1 POP JUMPDEST POP POP POP SWAP2 DUP4 MSTORE POP POP PUSH1 0xA DUP3 ADD SLOAD PUSH1 0x20 DUP3 ADD MSTORE PUSH1 0xB DUP3 ADD SLOAD PUSH1 0x40 DUP3 ADD MSTORE PUSH1 0xC DUP3 ADD SLOAD PUSH1 0x60 DUP3 ADD MSTORE PUSH1 0xD DUP3 ADD SLOAD PUSH1 0x80 DUP3 ADD MSTORE PUSH1 0xE DUP3 ADD SLOAD PUSH1 0xA0 DUP3 ADD MSTORE PUSH1 0xF DUP3 ADD SLOAD PUSH1 0xC0 DUP3 ADD MSTORE PUSH1 0x10 DUP3 ADD SLOAD PUSH1 0xE0 DUP3 ADD MSTORE PUSH1 0x11 DUP3 ADD SLOAD PUSH2 0x100 DUP3 ADD MSTORE PUSH1 0x12 DUP3 ADD SLOAD PUSH1 0xFF AND PUSH2 0x120 DUP3 ADD MSTORE PUSH1 0x13 DUP3 ADD SLOAD PUSH2 0x140 DUP3 ADD MSTORE PUSH1 0x14 DUP3 ADD SLOAD PUSH2 0x160 DUP3 ADD MSTORE PUSH1 0x15 DUP3 ADD SLOAD PUSH2 0x180 DUP3 ADD MSTORE PUSH1 0x16 DUP3 ADD SLOAD PUSH2 0x1A0 DUP3 ADD MSTORE PUSH1 0x17 DUP3 ADD SLOAD PUSH2 0x1C0 DUP3 ADD MSTORE PUSH1 0x18 DUP3 ADD SLOAD PUSH2 0x1E0 DUP3 ADD MSTORE PUSH1 0x19 DUP3 ADD SLOAD PUSH2 0x200 DUP3 ADD MSTORE PUSH1 0x1A DUP3 ADD SLOAD PUSH2 0x220 DUP3 ADD MSTORE PUSH1 0x1B SWAP1 SWAP2 ADD SLOAD PUSH2 0x240 SWAP1 SWAP2 ADD MSTORE SWAP3 SWAP2 POP POP JUMP JUMPDEST PUSH4 0xFFFFFFFF DUP2 AND PUSH1 0x0 SWAP1 DUP2 MSTORE PUSH1 0xD9 PUSH1 0x20 MSTORE PUSH1 0x40 DUP2 KECCAK256 DUP2 PUSH2 0x2DC6 DUP5 PUSH2 0x4A01 JUMP JUMPDEST SWAP1 POP DUP2 PUSH1 0x19 ADD SLOAD DUP2 DUP4 PUSH1 0x18 ADD SLOAD PUSH2 0x2DDD SWAP2 SWAP1 PUSH2 0x5D6B JUMP JUMPDEST GT PUSH2 0x2DEA JUMPI DUP1 SWAP3 POP PUSH2 0x2E04 JUMP JUMPDEST PUSH1 0x0 DUP3 PUSH1 0x18 ADD SLOAD DUP4 PUSH1 0x19 ADD SLOAD PUSH2 0x2E00 SWAP2 SWAP1 PUSH2 0x5B26 JUMP JUMPDEST SWAP4 POP POP JUMPDEST POP POP SWAP2 SWAP1 POP JUMP JUMPDEST PUSH1 0x40 DUP1 MLOAD DUP1 DUP3 ADD SWAP1 SWAP2 MSTORE PUSH1 0x0 DUP2 MSTORE PUSH1 0x60 PUSH1 0x20 DUP3 ADD MSTORE PUSH1 0x1 PUSH1 0x1 PUSH1 0xA0 SHL SUB DUP3 AND PUSH1 0x0 SWAP1 DUP2 MSTORE PUSH1 0xD8 PUSH1 0x20 SWAP1 DUP2 MSTORE PUSH1 0x40 SWAP2 DUP3 SWAP1 KECCAK256 DUP3 MLOAD DUP1 DUP5 ADD DUP5 MSTORE DUP2 SLOAD PUSH1 0xFF AND ISZERO ISZERO DUP2 MSTORE PUSH1 0x1 DUP3 ADD DUP1 SLOAD DUP6 MLOAD DUP2 DUP7 MUL DUP2 ADD DUP7 ADD SWAP1 SWAP7 MSTORE DUP1 DUP7 MSTORE SWAP2 SWAP5 SWAP3 SWAP4 DUP6 DUP2 ADD SWAP4 SWAP3 SWAP1 DUP4 ADD DUP3 DUP3 DUP1 ISZERO PUSH2 0x15C4 JUMPI PUSH1 0x0 SWAP2 DUP3 MSTORE PUSH1 0x20 SWAP2 DUP3 SWAP1 KECCAK256 DUP1 SLOAD PUSH4 0xFFFFFFFF AND DUP5 MSTORE SWAP1 DUP3 MUL DUP4 ADD SWAP3 SWAP1 SWAP2 PUSH1 0x4 SWAP2 ADD DUP1 DUP5 GT PUSH2 0x1587 JUMPI SWAP1 POP POP POP POP POP POP DUP2 MSTORE POP POP SWAP1 POP SWAP2 SWAP1 POP JUMP JUMPDEST PUSH1 0x33 SLOAD PUSH1 0x1 PUSH1 0x1 PUSH1 0xA0 SHL SUB AND CALLER EQ PUSH2 0x135C JUMPI PUSH1 0x40 MLOAD PUSH3 0x461BCD PUSH1 0xE5 SHL DUP2 MSTORE PUSH1 0x20 PUSH1 0x4 DUP3 ADD DUP2 SWAP1 MSTORE PUSH1 0x24 DUP3 ADD MSTORE PUSH32 0x4F776E61626C653A2063616C6C6572206973206E6F7420746865206F776E6572 PUSH1 0x44 DUP3 ADD MSTORE PUSH1 0x64 ADD PUSH2 0xEB9 JUMP JUMPDEST PUSH1 0x0 DUP1 MLOAD PUSH1 0x20 PUSH2 0x5EF4 DUP4 CODECOPY DUP2 MLOAD SWAP2 MSTORE SLOAD PUSH1 0x1 PUSH1 0x1 PUSH1 0xA0 SHL SUB AND SWAP1 JUMP JUMPDEST PUSH2 0xE6E PUSH2 0x2EAF JUMP JUMPDEST PUSH32 0x4910FDFA16FED3260ED0E7147F7CC6DA11A60208B5B9406D12A635614FFD9143 SLOAD PUSH1 0xFF AND ISZERO PUSH2 0x2F60 JUMPI PUSH2 0xA55 DUP4 PUSH2 0x4ADB JUMP JUMPDEST DUP3 PUSH1 0x1 PUSH1 0x1 PUSH1 0xA0 SHL SUB AND PUSH4 0x52D1902D PUSH1 0x40 MLOAD DUP2 PUSH4 0xFFFFFFFF AND PUSH1 0xE0 SHL DUP2 MSTORE PUSH1 0x4 ADD PUSH1 0x20 PUSH1 0x40 MLOAD DUP1 DUP4 SUB DUP2 DUP7 GAS STATICCALL SWAP3 POP POP POP DUP1 ISZERO PUSH2 0x2FBA JUMPI POP PUSH1 0x40 DUP1 MLOAD PUSH1 0x1F RETURNDATASIZE SWAP1 DUP2 ADD PUSH1 0x1F NOT AND DUP3 ADD SWAP1 SWAP3 MSTORE PUSH2 0x2FB7 SWAP2 DUP2 ADD SWAP1 PUSH2 0x5E40 JUMP JUMPDEST PUSH1 0x1 JUMPDEST PUSH2 0x301D JUMPI PUSH1 0x40 MLOAD PUSH3 0x461BCD PUSH1 0xE5 SHL DUP2 MSTORE PUSH1 0x20 PUSH1 0x4 DUP3 ADD MSTORE PUSH1 0x2E PUSH1 0x24 DUP3 ADD MSTORE PUSH32 0x45524331393637557067726164653A206E657720696D706C656D656E74617469 PUSH1 0x44 DUP3 ADD MSTORE PUSH14 0x6F6E206973206E6F742055555053 PUSH1 0x90 SHL PUSH1 0x64 DUP3 ADD MSTORE PUSH1 0x84 ADD PUSH2 0xEB9 JUMP JUMPDEST PUSH1 0x0 DUP1 MLOAD PUSH1 0x20 PUSH2 0x5EF4 DUP4 CODECOPY DUP2 MLOAD SWAP2 MSTORE DUP2 EQ PUSH2 0x308C JUMPI PUSH1 0x40 MLOAD PUSH3 0x461BCD PUSH1 0xE5 SHL DUP2 MSTORE PUSH1 0x20 PUSH1 0x4 DUP3 ADD MSTORE PUSH1 0x29 PUSH1 0x24 DUP3 ADD MSTORE PUSH32 0x45524331393637557067726164653A20756E737570706F727465642070726F78 PUSH1 0x44 DUP3 ADD MSTORE PUSH9 0x1A58589B1955555251 PUSH1 0xBA SHL PUSH1 0x64 DUP3 ADD MSTORE PUSH1 0x84 ADD PUSH2 0xEB9 JUMP JUMPDEST POP PUSH2 0xA55 DUP4 DUP4 DUP4 PUSH2 0x4B75 JUMP JUMPDEST PUSH1 0x33 DUP1 SLOAD PUSH1 0x1 PUSH1 0x1 PUSH1 0xA0 SHL SUB DUP4 DUP2 AND PUSH1 0x1 PUSH1 0x1 PUSH1 0xA0 SHL SUB NOT DUP4 AND DUP2 OR SWAP1 SWAP4 SSTORE PUSH1 0x40 MLOAD SWAP2 AND SWAP2 SWAP1 DUP3 SWAP1 PUSH32 0x8BE0079C531659141344CD1FD0A4F28419497F9722A3DAAFE3B4186F6B6457E0 SWAP1 PUSH1 0x0 SWAP1 LOG3 POP POP JUMP JUMPDEST PUSH4 0xFFFFFFFF DUP1 DUP3 AND PUSH1 0x0 SWAP1 DUP2 MSTORE PUSH1 0xD9 PUSH1 0x20 SWAP1 DUP2 MSTORE PUSH1 0x40 DUP1 DUP4 KECCAK256 DUP2 MLOAD PUSH2 0x3A0 DUP2 ADD SWAP1 SWAP3 MSTORE DUP1 SLOAD SWAP1 SWAP5 AND DUP2 MSTORE PUSH1 0x1 DUP5 ADD DUP1 SLOAD SWAP4 SWAP5 DUP6 SWAP5 SWAP3 SWAP4 SWAP1 SWAP3 SWAP1 DUP5 ADD SWAP2 SWAP1 PUSH2 0x3130 SWAP1 PUSH2 0x5ADC JUMP JUMPDEST DUP1 PUSH1 0x1F ADD PUSH1 0x20 DUP1 SWAP2 DIV MUL PUSH1 0x20 ADD PUSH1 0x40 MLOAD SWAP1 DUP2 ADD PUSH1 0x40 MSTORE DUP1 SWAP3 SWAP2 SWAP1 DUP2 DUP2 MSTORE PUSH1 0x20 ADD DUP3 DUP1 SLOAD PUSH2 0x315C SWAP1 PUSH2 0x5ADC JUMP JUMPDEST DUP1 ISZERO PUSH2 0x31A9 JUMPI DUP1 PUSH1 0x1F LT PUSH2 0x317E JUMPI PUSH2 0x100 DUP1 DUP4 SLOAD DIV MUL DUP4 MSTORE SWAP2 PUSH1 0x20 ADD SWAP2 PUSH2 0x31A9 JUMP JUMPDEST DUP3 ADD SWAP2 SWAP1 PUSH1 0x0 MSTORE PUSH1 0x20 PUSH1 0x0 KECCAK256 SWAP1 JUMPDEST DUP2 SLOAD DUP2 MSTORE SWAP1 PUSH1 0x1 ADD SWAP1 PUSH1 0x20 ADD DUP1 DUP4 GT PUSH2 0x318C JUMPI DUP3 SWAP1 SUB PUSH1 0x1F AND DUP3 ADD SWAP2 JUMPDEST POP POP POP SWAP2 DUP4 MSTORE POP POP PUSH1 0x2 DUP3 ADD SLOAD PUSH1 0xFF DUP2 AND ISZERO ISZERO PUSH1 0x20 DUP1 DUP5 ADD SWAP2 SWAP1 SWAP2 MSTORE PUSH2 0x100 SWAP1 SWAP2 DIV PUSH1 0x1 PUSH1 0x1 PUSH1 0xA0 SHL SUB AND PUSH1 0x40 DUP1 DUP5 ADD SWAP2 SWAP1 SWAP2 MSTORE PUSH1 0x3 DUP5 ADD SLOAD PUSH1 0x60 DUP5 ADD MSTORE PUSH1 0x4 DUP5 ADD SLOAD PUSH1 0x80 DUP5 ADD MSTORE PUSH1 0x5 DUP5 ADD SLOAD PUSH1 0xA0 DUP5 ADD MSTORE PUSH1 0x6 DUP5 ADD DUP1 SLOAD DUP3 MLOAD DUP2 DUP6 MUL DUP2 ADD DUP6 ADD SWAP1 SWAP4 MSTORE DUP1 DUP4 MSTORE PUSH1 0xC0 SWAP1 SWAP5 ADD SWAP4 SWAP2 SWAP3 SWAP1 SWAP2 SWAP1 DUP4 ADD DUP3 DUP3 DUP1 ISZERO PUSH2 0x3276 JUMPI PUSH1 0x20 MUL DUP3 ADD SWAP2 SWAP1 PUSH1 0x0 MSTORE PUSH1 0x20 PUSH1 0x0 KECCAK256 SWAP1 PUSH1 0x0 SWAP1 JUMPDEST DUP3 DUP3 SWAP1 SLOAD SWAP1 PUSH2 0x100 EXP SWAP1 DIV PUSH4 0xFFFFFFFF AND PUSH4 0xFFFFFFFF AND DUP2 MSTORE PUSH1 0x20 ADD SWAP1 PUSH1 0x4 ADD SWAP1 PUSH1 0x20 DUP3 PUSH1 0x3 ADD DIV SWAP3 DUP4 ADD SWAP3 PUSH1 0x1 SUB DUP3 MUL SWAP2 POP DUP1 DUP5 GT PUSH2 0x3239 JUMPI SWAP1 POP JUMPDEST POP POP POP SWAP2 DUP4 MSTORE POP POP PUSH1 0x7 DUP3 ADD SLOAD PUSH4 0xFFFFFFFF AND PUSH1 0x20 DUP1 DUP4 ADD SWAP2 SWAP1 SWAP2 MSTORE PUSH1 0x8 DUP4 ADD DUP1 SLOAD PUSH1 0x40 DUP1 MLOAD DUP3 DUP6 MUL DUP2 ADD DUP6 ADD DUP3 MSTORE DUP3 DUP2 MSTORE SWAP5 ADD SWAP4 SWAP3 DUP4 ADD DUP3 DUP3 DUP1 ISZERO PUSH2 0x3307 JUMPI PUSH1 0x20 MUL DUP3 ADD SWAP2 SWAP1 PUSH1 0x0 MSTORE PUSH1 0x20 PUSH1 0x0 KECCAK256 SWAP1 PUSH1 0x0 SWAP1 JUMPDEST DUP3 DUP3 SWAP1 SLOAD SWAP1 PUSH2 0x100 EXP SWAP1 DIV PUSH4 0xFFFFFFFF AND PUSH4 0xFFFFFFFF AND DUP2 MSTORE PUSH1 0x20 ADD SWAP1 PUSH1 0x4 ADD SWAP1 PUSH1 0x20 DUP3 PUSH1 0x3 ADD DIV SWAP3 DUP4 ADD SWAP3 PUSH1 0x1 SUB DUP3 MUL SWAP2 POP DUP1 DUP5 GT PUSH2 0x32CA JUMPI SWAP1 POP JUMPDEST POP POP POP POP POP DUP2 MSTORE PUSH1 0x20 ADD PUSH1 0x9 DUP3 ADD DUP1 SLOAD DUP1 PUSH1 0x20 MUL PUSH1 0x20 ADD PUSH1 0x40 MLOAD SWAP1 DUP2 ADD PUSH1 0x40 MSTORE DUP1 SWAP3 SWAP2 SWAP1 DUP2 DUP2 MSTORE PUSH1 0x20 ADD DUP3 DUP1 SLOAD DUP1 ISZERO PUSH2 0x338B JUMPI PUSH1 0x20 MUL DUP3 ADD SWAP2 SWAP1 PUSH1 0x0 MSTORE PUSH1 0x20 PUSH1 0x0 KECCAK256 SWAP1 PUSH1 0x0 SWAP1 JUMPDEST DUP3 DUP3 SWAP1 SLOAD SWAP1 PUSH2 0x100 EXP SWAP1 DIV PUSH4 0xFFFFFFFF AND PUSH4 0xFFFFFFFF AND DUP2 MSTORE PUSH1 0x20 ADD SWAP1 PUSH1 0x4 ADD SWAP1 PUSH1 0x20 DUP3 PUSH1 0x3 ADD DIV SWAP3 DUP4 ADD SWAP3 PUSH1 0x1 SUB DUP3 MUL SWAP2 POP DUP1 DUP5 GT PUSH2 0x334E JUMPI SWAP1 POP JUMPDEST POP POP POP SWAP2 DUP4 MSTORE POP POP PUSH1 0xA DUP3 ADD SLOAD PUSH1 0x20 DUP3 ADD MSTORE PUSH1 0xB DUP3 ADD SLOAD PUSH1 0x40 DUP3 ADD MSTORE PUSH1 0xC DUP3 ADD SLOAD PUSH1 0x60 DUP3 ADD MSTORE PUSH1 0xD DUP3 ADD SLOAD PUSH1 0x80 DUP3 ADD MSTORE PUSH1 0xE DUP3 ADD SLOAD PUSH1 0xA0 DUP3 ADD MSTORE PUSH1 0xF DUP3 ADD SLOAD PUSH1 0xC0 DUP3 ADD MSTORE PUSH1 0x10 DUP3 ADD SLOAD PUSH1 0xE0 DUP3 ADD MSTORE PUSH1 0x11 DUP3 ADD SLOAD PUSH2 0x100 DUP3 ADD MSTORE PUSH1 0x12 DUP3 ADD SLOAD PUSH1 0xFF SWAP1 DUP2 AND PUSH2 0x120 DUP4 ADD MSTORE PUSH1 0x13 DUP4 ADD SLOAD PUSH2 0x140 DUP4 ADD MSTORE PUSH1 0x14 DUP4 ADD SLOAD PUSH2 0x160 DUP4 ADD MSTORE PUSH1 0x15 DUP4 ADD SLOAD PUSH2 0x180 DUP4 ADD MSTORE PUSH1 0x16 DUP4 ADD SLOAD PUSH2 0x1A0 DUP4 ADD MSTORE PUSH1 0x17 DUP4 ADD SLOAD PUSH2 0x1C0 DUP4 ADD MSTORE PUSH1 0x18 DUP4 ADD SLOAD PUSH2 0x1E0 DUP4 ADD MSTORE PUSH1 0x19 DUP4 ADD SLOAD PUSH2 0x200 DUP4 ADD MSTORE PUSH1 0x1A DUP4 ADD SLOAD PUSH2 0x220 DUP4 ADD MSTORE PUSH1 0x1B SWAP1 SWAP3 ADD SLOAD PUSH2 0x240 SWAP1 SWAP2 ADD MSTORE PUSH1 0xD7 SLOAD SWAP2 SWAP3 POP AND PUSH1 0x0 JUMPDEST DUP2 PUSH1 0xFF AND DUP2 PUSH1 0xFF AND LT ISZERO PUSH2 0x34FF JUMPI PUSH1 0xFF DUP2 AND PUSH1 0x0 SWAP1 DUP2 MSTORE PUSH1 0xDB PUSH1 0x20 MSTORE PUSH1 0x40 SWAP1 KECCAK256 PUSH1 0x1 ADD SLOAD PUSH2 0x160 DUP5 ADD MLOAD LT DUP1 ISZERO SWAP1 PUSH2 0x34B5 JUMPI POP PUSH1 0xFF DUP2 AND PUSH1 0x0 SWAP1 DUP2 MSTORE PUSH1 0xDB PUSH1 0x20 MSTORE PUSH1 0x40 SWAP1 KECCAK256 PUSH1 0x2 ADD SLOAD PUSH2 0x1A0 DUP5 ADD MLOAD LT ISZERO JUMPDEST DUP1 ISZERO PUSH2 0x34DB JUMPI POP PUSH1 0xFF DUP2 AND PUSH1 0x0 SWAP1 DUP2 MSTORE PUSH1 0xDB PUSH1 0x20 MSTORE PUSH1 0x40 SWAP1 KECCAK256 PUSH1 0x3 ADD SLOAD PUSH2 0x1E0 DUP5 ADD MLOAD LT ISZERO JUMPDEST ISZERO PUSH2 0x34E8 JUMPI DUP1 SWAP4 POP PUSH2 0x34ED JUMP JUMPDEST PUSH2 0x34FF JUMP JUMPDEST DUP1 PUSH2 0x34F7 DUP2 PUSH2 0x5D97 JUMP JUMPDEST SWAP2 POP POP PUSH2 0x3463 JUMP JUMPDEST POP POP POP SWAP2 SWAP1 POP JUMP JUMPDEST PUSH1 0xD9 PUSH1 0x20 SWAP1 DUP2 MSTORE PUSH4 0xFFFFFFFF DUP3 AND PUSH1 0x0 SWAP1 DUP2 MSTORE PUSH1 0x40 DUP1 DUP3 KECCAK256 PUSH1 0x6 DUP2 ADD DUP1 SLOAD DUP4 MLOAD DUP2 DUP8 MUL DUP2 ADD DUP8 ADD SWAP1 SWAP5 MSTORE DUP1 DUP5 MSTORE SWAP4 SWAP5 PUSH1 0x0 DUP1 MLOAD PUSH1 0x20 PUSH2 0x5ED4 DUP4 CODECOPY DUP2 MLOAD SWAP2 MSTORE SWAP5 SWAP3 SWAP4 DUP7 SWAP4 SWAP1 SWAP3 SWAP2 DUP4 ADD DUP3 DUP3 DUP1 ISZERO PUSH2 0x35A8 JUMPI PUSH1 0x20 MUL DUP3 ADD SWAP2 SWAP1 PUSH1 0x0 MSTORE PUSH1 0x20 PUSH1 0x0 KECCAK256 SWAP1 PUSH1 0x0 SWAP1 JUMPDEST DUP3 DUP3 SWAP1 SLOAD SWAP1 PUSH2 0x100 EXP SWAP1 DIV PUSH4 0xFFFFFFFF AND PUSH4 0xFFFFFFFF AND DUP2 MSTORE PUSH1 0x20 ADD SWAP1 PUSH1 0x4 ADD SWAP1 PUSH1 0x20 DUP3 PUSH1 0x3 ADD DIV SWAP3 DUP4 ADD SWAP3 PUSH1 0x1 SUB DUP3 MUL SWAP2 POP DUP1 DUP5 GT PUSH2 0x356B JUMPI SWAP1 POP JUMPDEST POP POP POP POP POP SWAP1 POP DUP2 PUSH1 0x2 ADD PUSH1 0x1 SWAP1 SLOAD SWAP1 PUSH2 0x100 EXP SWAP1 DIV PUSH1 0x1 PUSH1 0x1 PUSH1 0xA0 SHL SUB AND PUSH1 0x1 PUSH1 0x1 PUSH1 0xA0 SHL SUB AND CALLER PUSH1 0x1 PUSH1 0x1 PUSH1 0xA0 SHL SUB AND EQ PUSH2 0x35F7 JUMPI PUSH1 0x40 MLOAD PUSH3 0x461BCD PUSH1 0xE5 SHL DUP2 MSTORE PUSH1 0x4 ADD PUSH2 0xEB9 SWAP1 PUSH2 0x5DDA JUMP JUMPDEST PUSH1 0xD1 SLOAD DUP3 PUSH1 0x1B ADD SLOAD PUSH2 0x3609 SWAP2 SWAP1 PUSH2 0x5D6B JUMP JUMPDEST TIMESTAMP LT ISZERO PUSH2 0x3668 JUMPI PUSH1 0x40 MLOAD PUSH3 0x461BCD PUSH1 0xE5 SHL DUP2 MSTORE PUSH1 0x20 PUSH1 0x4 DUP3 ADD MSTORE PUSH1 0x27 PUSH1 0x24 DUP3 ADD MSTORE PUSH32 0x596F7520726F6920636C61696D2074696D656C696D6974206973206E6F74206F PUSH1 0x44 DUP3 ADD MSTORE PUSH7 0xECCAE440F2CAD PUSH1 0xCB SHL PUSH1 0x64 DUP3 ADD MSTORE PUSH1 0x84 ADD PUSH2 0xEB9 JUMP JUMPDEST PUSH1 0x0 DUP1 JUMPDEST DUP3 MLOAD DUP2 LT ISZERO PUSH2 0x3721 JUMPI PUSH1 0x0 PUSH1 0xDA PUSH1 0x0 DUP6 DUP5 DUP2 MLOAD DUP2 LT PUSH2 0x368D JUMPI PUSH2 0x368D PUSH2 0x5BD1 JUMP JUMPDEST PUSH1 0x20 MUL PUSH1 0x20 ADD ADD MLOAD PUSH4 0xFFFFFFFF AND PUSH4 0xFFFFFFFF AND DUP2 MSTORE PUSH1 0x20 ADD SWAP1 DUP2 MSTORE PUSH1 0x20 ADD PUSH1 0x0 KECCAK256 SWAP1 POP PUSH2 0x36D3 DUP5 DUP4 DUP2 MLOAD DUP2 LT PUSH2 0x36C6 JUMPI PUSH2 0x36C6 PUSH2 0x5BD1 JUMP JUMPDEST PUSH1 0x20 MUL PUSH1 0x20 ADD ADD MLOAD PUSH2 0x4BA0 JUMP JUMPDEST PUSH2 0x36DD SWAP1 DUP5 PUSH2 0x5D6B JUMP JUMPDEST SWAP3 POP PUSH2 0x36F4 DUP5 DUP4 DUP2 MLOAD DUP2 LT PUSH2 0x36C6 JUMPI PUSH2 0x36C6 PUSH2 0x5BD1 JUMP JUMPDEST DUP2 PUSH1 0x5 ADD PUSH1 0x0 DUP3 DUP3 SLOAD PUSH2 0x3707 SWAP2 SWAP1 PUSH2 0x5D6B JUMP JUMPDEST SWAP1 SWAP2 SSTORE POP DUP3 SWAP2 POP PUSH2 0x3719 SWAP1 POP DUP2 PUSH2 0x5E11 JUMP JUMPDEST SWAP2 POP POP PUSH2 0x366C JUMP JUMPDEST POP DUP3 PUSH1 0x19 ADD SLOAD DUP2 DUP5 PUSH1 0x18 ADD SLOAD PUSH2 0x3737 SWAP2 SWAP1 PUSH2 0x5D6B JUMP JUMPDEST GT PUSH2 0x37CF JUMPI DUP1 DUP4 PUSH1 0x18 ADD PUSH1 0x0 DUP3 DUP3 SLOAD PUSH2 0x3750 SWAP2 SWAP1 PUSH2 0x5D6B JUMP JUMPDEST SWAP3 POP POP DUP2 SWAP1 SSTORE POP DUP1 DUP4 PUSH1 0x1A ADD PUSH1 0x0 DUP3 DUP3 SLOAD PUSH2 0x376B SWAP2 SWAP1 PUSH2 0x5D6B JUMP JUMPDEST SWAP1 SWAP2 SSTORE POP POP TIMESTAMP PUSH1 0x1B DUP5 ADD SSTORE PUSH1 0x18 DUP5 ADD DUP1 SLOAD DUP3 SWAP2 SWAP1 PUSH1 0x0 SWAP1 PUSH2 0x378D SWAP1 DUP5 SWAP1 PUSH2 0x5D6B JUMP JUMPDEST SWAP1 SWAP2 SSTORE POP POP PUSH1 0x40 MLOAD SWAP1 SWAP5 POP DUP5 SWAP1 DUP2 SWAP1 PUSH4 0xFFFFFFFF DUP9 AND SWAP1 PUSH32 0x7CD8783637A6BF8D3B4B69973A28720CFB0F5ABC55D8B85DDE1732D8F22C0EFC SWAP1 PUSH1 0x0 SWAP1 LOG3 PUSH2 0x3873 JUMP JUMPDEST PUSH1 0x0 DUP4 PUSH1 0x18 ADD SLOAD DUP5 PUSH1 0x19 ADD SLOAD PUSH2 0x37E5 SWAP2 SWAP1 PUSH2 0x5B26 JUMP JUMPDEST SWAP1 POP DUP1 DUP8 PUSH4 0xFFFFFFFF AND PUSH32 0x7CD8783637A6BF8D3B4B69973A28720CFB0F5ABC55D8B85DDE1732D8F22C0EFC PUSH1 0x40 MLOAD PUSH1 0x40 MLOAD DUP1 SWAP2 SUB SWAP1 LOG3 DUP4 PUSH1 0x19 ADD SLOAD DUP5 PUSH1 0x18 ADD DUP2 SWAP1 SSTORE POP DUP1 DUP5 PUSH1 0x1A ADD PUSH1 0x0 DUP3 DUP3 SLOAD PUSH2 0x383C SWAP2 SWAP1 PUSH2 0x5D6B JUMP JUMPDEST SWAP1 SWAP2 SSTORE POP POP TIMESTAMP PUSH1 0x1B DUP6 ADD SSTORE PUSH1 0x18 DUP6 ADD DUP1 SLOAD DUP3 SWAP2 SWAP1 PUSH1 0x0 SWAP1 PUSH2 0x385E SWAP1 DUP5 SWAP1 PUSH2 0x5D6B JUMP JUMPDEST SWAP3 POP POP DUP2 SWAP1 SSTORE POP DUP1 SWAP6 POP PUSH2 0x3871 DUP5 PUSH2 0x4C56 JUMP JUMPDEST POP JUMPDEST POP POP POP POP SWAP2 SWAP1 POP JUMP JUMPDEST PUSH1 0x0 PUSH1 0xCA DUP1 SLOAD DUP1 PUSH1 0x20 MUL PUSH1 0x20 ADD PUSH1 0x40 MLOAD SWAP1 DUP2 ADD PUSH1 0x40 MSTORE DUP1 SWAP3 SWAP2 SWAP1 DUP2 DUP2 MSTORE PUSH1 0x20 ADD DUP3 DUP1 SLOAD DUP1 ISZERO PUSH2 0x38F2 JUMPI PUSH1 0x20 MUL DUP3 ADD SWAP2 SWAP1 PUSH1 0x0 MSTORE PUSH1 0x20 PUSH1 0x0 KECCAK256 SWAP1 PUSH1 0x0 SWAP1 JUMPDEST DUP3 DUP3 SWAP1 SLOAD SWAP1 PUSH2 0x100 EXP SWAP1 DIV PUSH2 0xFFFF AND PUSH2 0xFFFF AND DUP2 MSTORE PUSH1 0x20 ADD SWAP1 PUSH1 0x2 ADD SWAP1 PUSH1 0x20 DUP3 PUSH1 0x1 ADD DIV SWAP3 DUP4 ADD SWAP3 PUSH1 0x1 SUB DUP3 MUL SWAP2 POP DUP1 DUP5 GT PUSH2 0x38B9 JUMPI SWAP1 POP JUMPDEST POP POP DUP4 MLOAD PUSH4 0xFFFFFFFF DUP8 AND PUSH1 0x0 SWAP1 DUP2 MSTORE PUSH1 0xD9 PUSH1 0x20 MSTORE PUSH1 0x40 DUP2 KECCAK256 DUP2 DUP1 MSTORE SWAP6 SWAP7 POP SWAP1 SWAP5 SWAP4 POP PUSH1 0x0 DUP1 MLOAD PUSH1 0x20 PUSH2 0x5ED4 DUP4 CODECOPY DUP2 MLOAD SWAP2 MSTORE SWAP3 POP SWAP1 POP DUP1 JUMPDEST DUP5 DUP2 LT ISZERO PUSH2 0x3F2C JUMPI PUSH1 0x7 DUP5 ADD SLOAD PUSH4 0xFFFFFFFF AND PUSH1 0x0 DUP2 DUP2 MSTORE PUSH1 0xD9 PUSH1 0x20 MSTORE PUSH1 0x40 SWAP1 KECCAK256 PUSH1 0x2 DUP2 ADD SLOAD PUSH2 0x100 SWAP1 DIV PUSH1 0x1 PUSH1 0x1 PUSH1 0xA0 SHL SUB AND PUSH2 0x3969 JUMPI POP POP PUSH2 0x3F2C JUMP JUMPDEST PUSH1 0x2 DUP2 ADD SLOAD PUSH1 0xFF AND ISZERO PUSH2 0x39E3 JUMPI PUSH1 0x40 MLOAD PUSH19 0x5265666572657220697320496E616374697665 PUSH1 0x68 SHL DUP2 MSTORE PUSH1 0x13 ADD JUMPDEST PUSH1 0x40 MLOAD SWAP1 DUP2 SWAP1 SUB SWAP1 KECCAK256 PUSH2 0x39AA DUP5 PUSH1 0x1 PUSH2 0x5D6B JUMP JUMPDEST PUSH1 0x40 MLOAD PUSH4 0xFFFFFFFF DUP6 AND SWAP1 PUSH32 0x6BD4A1CB98FE02EDE79E45B5749C74FF512165C4FB80CE4045EEBEF0E4E867DC SWAP1 PUSH1 0x0 SWAP1 LOG4 POP PUSH2 0x3F1A SWAP1 POP JUMP JUMPDEST DUP1 PUSH1 0x19 ADD SLOAD DUP2 PUSH1 0x18 ADD SLOAD LT PUSH2 0x3ABE JUMPI PUSH1 0x40 MLOAD PUSH32 0x5265616368656420746865206C696D69742E205265666572657220697320496E DUP2 MSTORE PUSH8 0x30B1BA34BB32971 PUSH1 0xC5 SHL PUSH1 0x20 DUP3 ADD MSTORE PUSH1 0x28 ADD PUSH1 0x40 MLOAD SWAP1 DUP2 SWAP1 SUB SWAP1 KECCAK256 PUSH2 0x3A40 DUP5 PUSH1 0x1 PUSH2 0x5D6B JUMP JUMPDEST PUSH1 0x40 MLOAD PUSH4 0xFFFFFFFF DUP6 AND SWAP1 PUSH32 0x6BD4A1CB98FE02EDE79E45B5749C74FF512165C4FB80CE4045EEBEF0E4E867DC SWAP1 PUSH1 0x0 SWAP1 LOG4 PUSH2 0x3A7A DUP2 PUSH2 0x4D7E JUMP JUMPDEST DUP1 SLOAD PUSH1 0x40 MLOAD PUSH4 0xFFFFFFFF SWAP1 SWAP2 AND DUP2 MSTORE PUSH32 0xD13A3FE87E20364852910EF677DF51F59E843DF0DC53FA5449ACDE0AF7EC822D SWAP1 PUSH1 0x20 ADD PUSH1 0x40 MLOAD DUP1 SWAP2 SUB SWAP1 LOG1 POP PUSH2 0x3F1A SWAP1 POP JUMP JUMPDEST PUSH1 0x40 DUP1 MLOAD PUSH2 0x3A0 DUP2 ADD SWAP1 SWAP2 MSTORE DUP2 SLOAD PUSH4 0xFFFFFFFF AND DUP2 MSTORE PUSH1 0x1 DUP3 ADD DUP1 SLOAD PUSH2 0x3E1C SWAP3 SWAP2 DUP5 SWAP2 PUSH1 0x20 DUP5 ADD SWAP2 SWAP1 PUSH2 0x3AF0 SWAP1 PUSH2 0x5ADC JUMP JUMPDEST DUP1 PUSH1 0x1F ADD PUSH1 0x20 DUP1 SWAP2 DIV MUL PUSH1 0x20 ADD PUSH1 0x40 MLOAD SWAP1 DUP2 ADD PUSH1 0x40 MSTORE DUP1 SWAP3 SWAP2 SWAP1 DUP2 DUP2 MSTORE PUSH1 0x20 ADD DUP3 DUP1 SLOAD PUSH2 0x3B1C SWAP1 PUSH2 0x5ADC JUMP JUMPDEST DUP1 ISZERO PUSH2 0x3B69 JUMPI DUP1 PUSH1 0x1F LT PUSH2 0x3B3E JUMPI PUSH2 0x100 DUP1 DUP4 SLOAD DIV MUL DUP4 MSTORE SWAP2 PUSH1 0x20 ADD SWAP2 PUSH2 0x3B69 JUMP JUMPDEST DUP3 ADD SWAP2 SWAP1 PUSH1 0x0 MSTORE PUSH1 0x20 PUSH1 0x0 KECCAK256 SWAP1 JUMPDEST DUP2 SLOAD DUP2 MSTORE SWAP1 PUSH1 0x1 ADD SWAP1 PUSH1 0x20 ADD DUP1 DUP4 GT PUSH2 0x3B4C JUMPI DUP3 SWAP1 SUB PUSH1 0x1F AND DUP3 ADD SWAP2 JUMPDEST POP POP POP SWAP2 DUP4 MSTORE POP POP PUSH1 0x2 DUP3 ADD SLOAD PUSH1 0xFF DUP2 AND ISZERO ISZERO PUSH1 0x20 DUP1 DUP5 ADD SWAP2 SWAP1 SWAP2 MSTORE PUSH2 0x100 SWAP1 SWAP2 DIV PUSH1 0x1 PUSH1 0x1 PUSH1 0xA0 SHL SUB AND PUSH1 0x40 DUP1 DUP5 ADD SWAP2 SWAP1 SWAP2 MSTORE PUSH1 0x3 DUP5 ADD SLOAD PUSH1 0x60 DUP5 ADD MSTORE PUSH1 0x4 DUP5 ADD SLOAD PUSH1 0x80 DUP5 ADD MSTORE PUSH1 0x5 DUP5 ADD SLOAD PUSH1 0xA0 DUP5 ADD MSTORE PUSH1 0x6 DUP5 ADD DUP1 SLOAD DUP3 MLOAD DUP2 DUP6 MUL DUP2 ADD DUP6 ADD SWAP1 SWAP4 MSTORE DUP1 DUP4 MSTORE PUSH1 0xC0 SWAP1 SWAP5 ADD SWAP4 SWAP2 SWAP3 SWAP1 SWAP2 SWAP1 DUP4 ADD DUP3 DUP3 DUP1 ISZERO PUSH2 0x3C36 JUMPI PUSH1 0x20 MUL DUP3 ADD SWAP2 SWAP1 PUSH1 0x0 MSTORE PUSH1 0x20 PUSH1 0x0 KECCAK256 SWAP1 PUSH1 0x0 SWAP1 JUMPDEST DUP3 DUP3 SWAP1 SLOAD SWAP1 PUSH2 0x100 EXP SWAP1 DIV PUSH4 0xFFFFFFFF AND PUSH4 0xFFFFFFFF AND DUP2 MSTORE PUSH1 0x20 ADD SWAP1 PUSH1 0x4 ADD SWAP1 PUSH1 0x20 DUP3 PUSH1 0x3 ADD DIV SWAP3 DUP4 ADD SWAP3 PUSH1 0x1 SUB DUP3 MUL SWAP2 POP DUP1 DUP5 GT PUSH2 0x3BF9 JUMPI SWAP1 POP JUMPDEST POP POP POP SWAP2 DUP4 MSTORE POP POP PUSH1 0x7 DUP3 ADD SLOAD PUSH4 0xFFFFFFFF AND PUSH1 0x20 DUP1 DUP4 ADD SWAP2 SWAP1 SWAP2 MSTORE PUSH1 0x8 DUP4 ADD DUP1 SLOAD PUSH1 0x40 DUP1 MLOAD DUP3 DUP6 MUL DUP2 ADD DUP6 ADD DUP3 MSTORE DUP3 DUP2 MSTORE SWAP5 ADD SWAP4 SWAP3 DUP4 ADD DUP3 DUP3 DUP1 ISZERO PUSH2 0x3CC7 JUMPI PUSH1 0x20 MUL DUP3 ADD SWAP2 SWAP1 PUSH1 0x0 MSTORE PUSH1 0x20 PUSH1 0x0 KECCAK256 SWAP1 PUSH1 0x0 SWAP1 JUMPDEST DUP3 DUP3 SWAP1 SLOAD SWAP1 PUSH2 0x100 EXP SWAP1 DIV PUSH4 0xFFFFFFFF AND PUSH4 0xFFFFFFFF AND DUP2 MSTORE PUSH1 0x20 ADD SWAP1 PUSH1 0x4 ADD SWAP1 PUSH1 0x20 DUP3 PUSH1 0x3 ADD DIV SWAP3 DUP4 ADD SWAP3 PUSH1 0x1 SUB DUP3 MUL SWAP2 POP DUP1 DUP5 GT PUSH2 0x3C8A JUMPI SWAP1 POP JUMPDEST POP POP POP POP POP DUP2 MSTORE PUSH1 0x20 ADD PUSH1 0x9 DUP3 ADD DUP1 SLOAD DUP1 PUSH1 0x20 MUL PUSH1 0x20 ADD PUSH1 0x40 MLOAD SWAP1 DUP2 ADD PUSH1 0x40 MSTORE DUP1 SWAP3 SWAP2 SWAP1 DUP2 DUP2 MSTORE PUSH1 0x20 ADD DUP3 DUP1 SLOAD DUP1 ISZERO PUSH2 0x3D4B JUMPI PUSH1 0x20 MUL DUP3 ADD SWAP2 SWAP1 PUSH1 0x0 MSTORE PUSH1 0x20 PUSH1 0x0 KECCAK256 SWAP1 PUSH1 0x0 SWAP1 JUMPDEST DUP3 DUP3 SWAP1 SLOAD SWAP1 PUSH2 0x100 EXP SWAP1 DIV PUSH4 0xFFFFFFFF AND PUSH4 0xFFFFFFFF AND DUP2 MSTORE PUSH1 0x20 ADD SWAP1 PUSH1 0x4 ADD SWAP1 PUSH1 0x20 DUP3 PUSH1 0x3 ADD DIV SWAP3 DUP4 ADD SWAP3 PUSH1 0x1 SUB DUP3 MUL SWAP2 POP DUP1 DUP5 GT PUSH2 0x3D0E JUMPI SWAP1 POP JUMPDEST POP POP POP SWAP2 DUP4 MSTORE POP POP PUSH1 0xA DUP3 ADD SLOAD PUSH1 0x20 DUP3 ADD MSTORE PUSH1 0xB DUP3 ADD SLOAD PUSH1 0x40 DUP3 ADD MSTORE PUSH1 0xC DUP3 ADD SLOAD PUSH1 0x60 DUP3 ADD MSTORE PUSH1 0xD DUP3 ADD SLOAD PUSH1 0x80 DUP3 ADD MSTORE PUSH1 0xE DUP3 ADD SLOAD PUSH1 0xA0 DUP3 ADD MSTORE PUSH1 0xF DUP3 ADD SLOAD PUSH1 0xC0 DUP3 ADD MSTORE PUSH1 0x10 DUP3 ADD SLOAD PUSH1 0xE0 DUP3 ADD MSTORE PUSH1 0x11 DUP3 ADD SLOAD PUSH2 0x100 DUP3 ADD MSTORE PUSH1 0x12 DUP3 ADD SLOAD PUSH1 0xFF AND PUSH2 0x120 DUP3 ADD MSTORE PUSH1 0x13 DUP3 ADD SLOAD PUSH2 0x140 DUP3 ADD MSTORE PUSH1 0x14 DUP3 ADD SLOAD PUSH2 0x160 DUP3 ADD MSTORE PUSH1 0x15 DUP3 ADD SLOAD PUSH2 0x180 DUP3 ADD MSTORE PUSH1 0x16 DUP3 ADD SLOAD PUSH2 0x1A0 DUP3 ADD MSTORE PUSH1 0x17 DUP3 ADD SLOAD PUSH2 0x1C0 DUP3 ADD MSTORE PUSH1 0x18 DUP3 ADD SLOAD PUSH2 0x1E0 DUP3 ADD MSTORE PUSH1 0x19 DUP3 ADD SLOAD PUSH2 0x200 DUP3 ADD MSTORE PUSH1 0x1A DUP3 ADD SLOAD PUSH2 0x220 DUP3 ADD MSTORE PUSH1 0x1B SWAP1 SWAP2 ADD SLOAD PUSH2 0x240 SWAP1 SWAP2 ADD MSTORE PUSH2 0x3FB4 JUMP JUMPDEST PUSH2 0x3E27 DUP5 PUSH1 0x1 PUSH2 0x5D6B JUMP JUMPDEST GT ISZERO PUSH2 0x3E5B JUMPI PUSH1 0x40 MLOAD PUSH32 0x446F776E6C696E65206C6576656C73206C696D69742072656163686564000000 DUP2 MSTORE PUSH1 0x1D ADD PUSH2 0x3996 JUMP JUMPDEST PUSH1 0xCB SLOAD DUP9 MLOAD PUSH1 0x0 SWAP2 PUSH2 0xFFFF AND SWAP1 DUP11 SWAP1 DUP7 SWAP1 DUP2 LT PUSH2 0x3E7A JUMPI PUSH2 0x3E7A PUSH2 0x5BD1 JUMP JUMPDEST PUSH1 0x20 MUL PUSH1 0x20 ADD ADD MLOAD PUSH2 0xFFFF AND DUP13 PUSH2 0x3E91 SWAP2 SWAP1 PUSH2 0x5D32 JUMP JUMPDEST PUSH2 0x3E9B SWAP2 SWAP1 PUSH2 0x5D49 JUMP JUMPDEST SWAP1 POP DUP1 DUP3 PUSH1 0x14 ADD PUSH1 0x0 DUP3 DUP3 SLOAD PUSH2 0x3EB1 SWAP2 SWAP1 PUSH2 0x5D6B JUMP JUMPDEST SWAP1 SWAP2 SSTORE POP PUSH2 0x3EC1 SWAP1 POP DUP3 DUP3 PUSH2 0x4D96 JUMP JUMPDEST PUSH2 0x3ECB DUP2 DUP7 PUSH2 0x5D6B JUMP JUMPDEST SWAP5 POP DUP1 PUSH4 0xFFFFFFFF DUP1 DUP6 AND SWAP1 DUP13 AND PUSH32 0x516E026AA0A8E23FCB20EEBF31DF57C3E9DF29F305428F45E22D048A8582DFA0 PUSH2 0x3F05 DUP9 PUSH1 0x1 PUSH2 0x5D6B JUMP JUMPDEST PUSH1 0x40 MLOAD SWAP1 DUP2 MSTORE PUSH1 0x20 ADD PUSH1 0x40 MLOAD DUP1 SWAP2 SUB SWAP1 LOG4 POP POP POP JUMPDEST DUP1 PUSH2 0x3F24 DUP2 PUSH2 0x5E11 JUMP JUMPDEST SWAP2 POP POP PUSH2 0x392A JUMP JUMPDEST POP DUP1 DUP3 PUSH1 0x14 ADD PUSH1 0x0 DUP3 DUP3 SLOAD PUSH2 0x3F41 SWAP2 SWAP1 PUSH2 0x5D6B JUMP JUMPDEST SWAP1 SWAP2 SSTORE POP POP POP POP POP POP POP POP POP JUMP JUMPDEST PUSH1 0x1 PUSH1 0x1 PUSH1 0xA0 SHL SUB AND EXTCODESIZE ISZERO ISZERO SWAP1 JUMP JUMPDEST PUSH1 0x0 SLOAD PUSH2 0x100 SWAP1 DIV PUSH1 0xFF AND PUSH2 0x3F85 JUMPI PUSH1 0x40 MLOAD PUSH3 0x461BCD PUSH1 0xE5 SHL DUP2 MSTORE PUSH1 0x4 ADD PUSH2 0xEB9 SWAP1 PUSH2 0x5E59 JUMP JUMPDEST PUSH2 0x135C PUSH2 0x4DCE JUMP JUMPDEST PUSH1 0x0 SLOAD PUSH2 0x100 SWAP1 DIV PUSH1 0xFF AND PUSH2 0x135C JUMPI PUSH1 0x40 MLOAD PUSH3 0x461BCD PUSH1 0xE5 SHL DUP2 MSTORE PUSH1 0x4 ADD PUSH2 0xEB9 SWAP1 PUSH2 0x5E59 JUMP JUMPDEST PUSH2 0x120 DUP2 ADD MLOAD MLOAD PUSH1 0x0 SWAP1 DUP2 DUP2 ISZERO PUSH2 0xE09 JUMPI PUSH1 0xD2 SLOAD PUSH1 0x1 SWAP1 PUSH2 0x3FDF SWAP1 PUSH4 0x1000000 SWAP1 DIV PUSH1 0xFF AND DUP5 PUSH2 0x5D32 JUMP JUMPDEST PUSH2 0x3FE9 SWAP2 SWAP1 PUSH2 0x5B26 JUMP JUMPDEST SWAP5 SWAP4 POP POP POP POP JUMP JUMPDEST PUSH1 0x0 DUP1 PUSH1 0xC9 PUSH1 0x0 SWAP1 SLOAD SWAP1 PUSH2 0x100 EXP SWAP1 DIV PUSH1 0x1 PUSH1 0x1 PUSH1 0xA0 SHL SUB AND PUSH1 0x1 PUSH1 0x1 PUSH1 0xA0 SHL SUB AND PUSH4 0xE1AA6036 PUSH1 0x40 MLOAD DUP2 PUSH4 0xFFFFFFFF AND PUSH1 0xE0 SHL DUP2 MSTORE PUSH1 0x4 ADD PUSH1 0x20 PUSH1 0x40 MLOAD DUP1 DUP4 SUB DUP2 DUP7 GAS STATICCALL ISZERO DUP1 ISZERO PUSH2 0x4047 JUMPI RETURNDATASIZE PUSH1 0x0 DUP1 RETURNDATACOPY RETURNDATASIZE PUSH1 0x0 REVERT JUMPDEST POP POP POP POP PUSH1 0x40 MLOAD RETURNDATASIZE PUSH1 0x1F NOT PUSH1 0x1F DUP3 ADD AND DUP3 ADD DUP1 PUSH1 0x40 MSTORE POP DUP2 ADD SWAP1 PUSH2 0x406B SWAP2 SWAP1 PUSH2 0x5E40 JUMP JUMPDEST PUSH2 0x407D DUP5 PUSH8 0xDE0B6B3A7640000 PUSH2 0x5D32 JUMP JUMPDEST PUSH2 0xE09 SWAP2 SWAP1 PUSH2 0x5D49 JUMP JUMPDEST PUSH1 0x0 DUP1 PUSH8 0xDE0B6B3A7640000 PUSH1 0xC9 PUSH1 0x0 SWAP1 SLOAD SWAP1 PUSH2 0x100 EXP SWAP1 DIV PUSH1 0x1 PUSH1 0x1 PUSH1 0xA0 SHL SUB AND PUSH1 0x1 PUSH1 0x1 PUSH1 0xA0 SHL SUB AND PUSH4 0xE1AA6036 PUSH1 0x40 MLOAD DUP2 PUSH4 0xFFFFFFFF AND PUSH1 0xE0 SHL DUP2 MSTORE PUSH1 0x4 ADD PUSH1 0x20 PUSH1 0x40 MLOAD DUP1 DUP4 SUB DUP2 DUP7 GAS STATICCALL ISZERO DUP1 ISZERO PUSH2 0x40E6 JUMPI RETURNDATASIZE PUSH1 0x0 DUP1 RETURNDATACOPY RETURNDATASIZE PUSH1 0x0 REVERT JUMPDEST POP POP POP POP PUSH1 0x40 MLOAD RETURNDATASIZE PUSH1 0x1F NOT PUSH1 0x1F DUP3 ADD AND DUP3 ADD DUP1 PUSH1 0x40 MSTORE POP DUP2 ADD SWAP1 PUSH2 0x410A SWAP2 SWAP1 PUSH2 0x5E40 JUMP JUMPDEST PUSH2 0x407D SWAP1 DUP6 PUSH2 0x5D32 JUMP JUMPDEST PUSH4 0xFFFFFFFF DUP4 DUP2 AND PUSH1 0x0 DUP2 DUP2 MSTORE PUSH1 0xDA PUSH1 0x20 SWAP1 DUP2 MSTORE PUSH1 0x40 DUP1 DUP4 KECCAK256 DUP10 DUP7 AND DUP1 DUP6 MSTORE PUSH1 0xD9 DUP5 MSTORE SWAP2 DUP5 KECCAK256 DUP2 SLOAD PUSH1 0x1 PUSH5 0xFFFFFFFFFF NOT SWAP1 SWAP2 AND PUSH2 0x100 SWAP5 DUP6 MUL OR DUP2 OR DUP4 SSTORE DUP1 DUP4 ADD DUP11 SWAP1 SSTORE PUSH1 0xCF DUP1 SLOAD PUSH1 0x2 DUP6 ADD DUP1 SLOAD PUSH1 0x1 PUSH1 0x60 SHL SWAP1 SWAP3 DIV PUSH2 0xFFFF AND PUSH2 0xFFFF NOT SWAP1 SWAP3 AND SWAP2 SWAP1 SWAP2 OR SWAP1 SSTORE PUSH1 0x3 DUP5 ADD DUP11 SWAP1 SSTORE PUSH1 0xD0 SLOAD PUSH1 0x4 DUP1 DUP7 ADD SWAP2 SWAP1 SWAP2 SSTORE PUSH1 0x6 DUP5 ADD DUP1 SLOAD DUP1 DUP6 ADD DUP3 SSTORE SWAP1 DUP10 MSTORE SWAP7 DUP9 KECCAK256 PUSH1 0x8 DUP1 DUP10 DIV SWAP1 SWAP2 ADD DUP1 SLOAD PUSH1 0x7 SWAP10 DUP11 AND DUP5 MUL DUP10 EXP DUP1 DUP15 MUL NOT SWAP1 SWAP2 AND SWAP1 DUP13 MUL OR SWAP1 SSTORE PUSH32 0x665FECB6766038646257FB3193371280B91D4EE69F1071872C4C7B974431A48E DUP1 SLOAD SWAP5 DUP6 ADD DUP2 SSTORE SWAP1 SWAP9 MSTORE PUSH32 0xC8603854B1D3DDADAF293944C48EE514C510733F3CC1A6765BF9DE45489A2D91 DUP9 DUP5 DIV ADD DUP1 SLOAD SWAP4 SWAP1 SWAP8 AND MUL SWAP1 SWAP5 EXP DUP1 DUP10 MUL NOT SWAP1 SWAP2 AND SWAP7 MUL SWAP6 SWAP1 SWAP6 OR SWAP1 SWAP3 SSTORE DUP1 SLOAD SWAP2 SWAP5 PUSH1 0x0 DUP1 MLOAD PUSH1 0x20 PUSH2 0x5ED4 DUP4 CODECOPY DUP2 MLOAD SWAP2 MSTORE SWAP4 PUSH1 0x1 PUSH1 0x40 SHL SWAP1 SWAP4 DIV AND SWAP2 PUSH2 0x4251 DUP4 PUSH2 0x5D7E JUMP JUMPDEST SWAP2 SWAP1 PUSH2 0x100 EXP DUP2 SLOAD DUP2 PUSH4 0xFFFFFFFF MUL NOT AND SWAP1 DUP4 PUSH4 0xFFFFFFFF AND MUL OR SWAP1 SSTORE POP POP POP POP POP POP POP POP POP JUMP JUMPDEST PUSH4 0xFFFFFFFF DUP3 DUP2 AND PUSH1 0x0 DUP2 DUP2 MSTORE PUSH1 0xD9 PUSH1 0x20 MSTORE PUSH1 0x40 DUP1 DUP3 KECCAK256 PUSH1 0x7 DUP2 ADD DUP1 SLOAD PUSH4 0xFFFFFFFF NOT AND SWAP6 DUP8 AND SWAP6 DUP7 OR SWAP1 SSTORE SWAP1 MLOAD SWAP1 SWAP4 SWAP3 SWAP2 PUSH32 0x9D714438BA618019CC2B8621DCD2550337E162BE58654470EA30D48479FE8320 SWAP2 LOG3 PUSH1 0xCB SLOAD PUSH3 0x10000 SWAP1 DIV PUSH1 0xFF AND PUSH1 0x0 JUMPDEST DUP2 PUSH1 0xFF AND DUP2 LT ISZERO PUSH2 0x1109 JUMPI PUSH1 0x7 DUP4 ADD SLOAD PUSH4 0xFFFFFFFF AND PUSH1 0x0 SWAP1 DUP2 MSTORE PUSH1 0xD9 PUSH1 0x20 MSTORE PUSH1 0x40 DUP2 KECCAK256 SWAP1 DUP3 SWAP1 SUB PUSH2 0x434B JUMPI PUSH1 0x8 DUP2 DUP2 ADD DUP1 SLOAD PUSH1 0x1 DUP2 ADD DUP3 SSTORE PUSH1 0x0 SWAP2 DUP3 MSTORE PUSH1 0x20 SWAP1 SWAP2 KECCAK256 SWAP2 DUP2 DIV SWAP1 SWAP2 ADD DUP1 SLOAD PUSH1 0x7 SWAP1 SWAP3 AND PUSH1 0x4 MUL PUSH2 0x100 EXP PUSH4 0xFFFFFFFF DUP2 DUP2 MUL NOT SWAP1 SWAP4 AND SWAP3 DUP10 AND MUL SWAP2 SWAP1 SWAP2 OR SWAP1 SSTORE JUMPDEST DUP4 SLOAD PUSH4 0xFFFFFFFF AND PUSH1 0x0 SUB PUSH2 0x4360 JUMPI POP PUSH2 0x1109 JUMP JUMPDEST PUSH1 0x9 DUP2 ADD DUP1 SLOAD PUSH1 0x1 DUP2 ADD DUP3 SSTORE PUSH1 0x0 SWAP2 DUP3 MSTORE PUSH1 0x20 SWAP2 DUP3 SWAP1 KECCAK256 PUSH1 0x8 DUP3 DIV ADD DUP1 SLOAD PUSH1 0x7 SWAP3 DUP4 AND PUSH1 0x4 MUL PUSH2 0x100 SWAP1 DUP2 EXP PUSH4 0xFFFFFFFF DUP2 DUP2 MUL NOT SWAP1 SWAP4 AND DUP13 DUP5 AND SWAP2 DUP3 MUL OR SWAP1 SWAP4 SSTORE PUSH1 0x2 DUP7 ADD SLOAD SWAP4 DUP10 ADD SLOAD PUSH1 0x40 MLOAD SWAP1 DUP4 AND DUP2 MSTORE SWAP3 SWAP5 SWAP2 DUP11 AND SWAP4 DIV PUSH1 0x1 PUSH1 0x1 PUSH1 0xA0 SHL SUB AND SWAP2 PUSH32 0xA7FAFC728EC30E34DC1E1276496BF3EB44CA7494679DA969455289E6A8F0F1F6 SWAP2 ADD PUSH1 0x40 MLOAD DUP1 SWAP2 SUB SWAP1 LOG4 SWAP3 POP DUP1 PUSH2 0x43FB DUP2 PUSH2 0x5E11 JUMP JUMPDEST SWAP2 POP POP PUSH2 0x42DD JUMP JUMPDEST PUSH4 0xFFFFFFFF DUP8 AND PUSH1 0x0 SWAP1 DUP2 MSTORE PUSH1 0xD9 PUSH1 0x20 MSTORE PUSH1 0x40 SWAP1 KECCAK256 PUSH1 0xCB SLOAD PUSH1 0x3 DUP3 ADD DUP5 SWAP1 SSTORE PUSH1 0x4 DUP3 ADD DUP4 SWAP1 SSTORE PUSH1 0xB DUP3 ADD DUP9 SWAP1 SSTORE PUSH1 0x14 DUP3 ADD DUP8 SWAP1 SSTORE PUSH3 0x10000 SWAP1 DIV PUSH1 0xFF AND DUP6 DUP8 LT PUSH2 0x4480 JUMPI PUSH1 0x2 DUP3 ADD DUP1 SLOAD PUSH1 0xFF NOT AND PUSH1 0x1 OR SWAP1 SSTORE PUSH1 0x0 PUSH1 0x17 DUP4 ADD DUP2 SWAP1 SSTORE PUSH1 0x18 DUP4 ADD DUP2 SWAP1 SSTORE PUSH1 0x19 DUP4 ADD DUP2 SWAP1 SSTORE PUSH1 0x16 DUP4 ADD SSTORE PUSH2 0x447B DUP3 PUSH2 0x4C56 JUMP JUMPDEST PUSH2 0x44E4 JUMP JUMPDEST PUSH1 0x17 DUP3 ADD DUP6 SWAP1 SSTORE PUSH1 0x18 DUP3 ADD DUP8 SWAP1 SSTORE PUSH1 0x19 DUP3 ADD DUP7 SWAP1 SSTORE PUSH1 0x16 DUP3 ADD DUP1 SLOAD DUP10 SWAP2 SWAP1 PUSH1 0x0 SWAP1 PUSH2 0x44AC SWAP1 DUP5 SWAP1 PUSH2 0x5D6B JUMP JUMPDEST SWAP1 SWAP2 SSTORE POP POP PUSH1 0xD2 SLOAD PUSH1 0xFF AND ISZERO PUSH2 0x44E4 JUMPI PUSH1 0xCF SLOAD PUSH2 0x44E4 SWAP1 DUP11 SWAP1 PUSH2 0x44DD SWAP1 PUSH1 0x1 PUSH1 0x40 SHL SWAP1 DIV PUSH4 0xFFFFFFFF AND PUSH1 0x1 PUSH2 0x5DB6 JUMP JUMPDEST DUP11 DUP7 PUSH2 0x4114 JUMP JUMPDEST PUSH1 0x0 JUMPDEST DUP2 PUSH1 0xFF AND DUP2 PUSH1 0xFF AND LT ISZERO PUSH2 0x45CB JUMPI PUSH1 0x7 DUP4 ADD SLOAD PUSH4 0xFFFFFFFF SWAP1 DUP2 AND PUSH1 0x0 DUP2 DUP2 MSTORE PUSH1 0xD9 PUSH1 0x20 MSTORE PUSH1 0x40 SWAP1 KECCAK256 DUP1 SLOAD SWAP2 SWAP3 SWAP1 SWAP2 AND ISZERO PUSH2 0x4523 JUMPI POP POP PUSH2 0x45CB JUMP JUMPDEST DUP3 PUSH1 0xFF AND PUSH1 0x0 SUB PUSH2 0x4548 JUMPI DUP11 DUP2 PUSH1 0xD ADD PUSH1 0x0 DUP3 DUP3 SLOAD PUSH2 0x4542 SWAP2 SWAP1 PUSH2 0x5D6B JUMP JUMPDEST SWAP1 SWAP2 SSTORE POP POP JUMPDEST DUP11 DUP2 PUSH1 0xF ADD PUSH1 0x0 DUP3 DUP3 SLOAD PUSH2 0x455C SWAP2 SWAP1 PUSH2 0x5D6B JUMP JUMPDEST SWAP3 POP POP DUP2 SWAP1 SSTORE POP DUP1 PUSH1 0x9 ADD DUP13 SWAP1 DUP1 PUSH1 0x1 DUP2 SLOAD ADD DUP1 DUP3 SSTORE DUP1 SWAP2 POP POP PUSH1 0x1 SWAP1 SUB SWAP1 PUSH1 0x0 MSTORE PUSH1 0x20 PUSH1 0x0 KECCAK256 SWAP1 PUSH1 0x8 SWAP2 DUP3 DUP3 DIV ADD SWAP2 SWAP1 MOD PUSH1 0x4 MUL SWAP1 SWAP2 SWAP1 SWAP2 SWAP1 SWAP2 PUSH2 0x100 EXP DUP2 SLOAD DUP2 PUSH4 0xFFFFFFFF MUL NOT AND SWAP1 DUP4 PUSH4 0xFFFFFFFF AND MUL OR SWAP1 SSTORE POP DUP1 SWAP5 POP POP POP DUP1 DUP1 PUSH2 0x45C3 SWAP1 PUSH2 0x5D97 JUMP JUMPDEST SWAP2 POP POP PUSH2 0x44E7 JUMP JUMPDEST POP POP POP POP POP POP POP POP POP POP JUMP JUMPDEST PUSH4 0xFFFFFFFF DUP1 DUP10 AND PUSH1 0x0 DUP2 DUP2 MSTORE PUSH1 0xD9 PUSH1 0x20 SWAP1 DUP2 MSTORE PUSH1 0x40 DUP3 KECCAK256 PUSH1 0x2 DUP2 ADD DUP1 SLOAD PUSH1 0x1 PUSH1 0x1 PUSH1 0xA0 SHL SUB DUP14 AND PUSH2 0x100 SWAP1 DUP2 MUL PUSH2 0x100 PUSH1 0x1 PUSH1 0xA8 SHL SUB NOT SWAP1 SWAP3 AND SWAP2 SWAP1 SWAP2 OR SWAP1 SWAP2 SSTORE PUSH1 0x6 DUP3 ADD DUP1 SLOAD PUSH1 0x1 DUP2 ADD DUP3 SSTORE SWAP1 DUP6 MSTORE SWAP3 DUP5 KECCAK256 PUSH1 0x8 DUP5 DIV ADD DUP1 SLOAD DUP15 DUP9 AND PUSH1 0x4 PUSH1 0x7 SWAP1 SWAP7 AND DUP7 MUL SWAP1 SWAP4 EXP SWAP3 DUP4 MUL SWAP3 SWAP1 SWAP8 MUL NOT SWAP1 SWAP7 AND OR SWAP1 SWAP5 SSTORE PUSH1 0x3 DUP5 ADD DUP8 SWAP1 SSTORE DUP4 ADD DUP6 SWAP1 SSTORE DUP3 SLOAD PUSH4 0xFFFFFFFF NOT AND SWAP1 SWAP2 OR DUP3 SSTORE PUSH1 0x19 DUP3 ADD DUP7 SWAP1 SSTORE PUSH1 0xA DUP3 ADD DUP1 SLOAD DUP9 SWAP3 SWAP1 PUSH2 0x4685 SWAP1 DUP5 SWAP1 PUSH2 0x5D6B JUMP JUMPDEST SWAP1 SWAP2 SSTORE POP PUSH1 0x0 SWAP1 POP JUMPDEST DUP3 PUSH1 0xFF AND DUP2 PUSH1 0xFF AND LT ISZERO PUSH2 0x4991 JUMPI PUSH1 0x7 DUP3 ADD SLOAD PUSH4 0xFFFFFFFF AND PUSH1 0x0 DUP2 DUP2 MSTORE PUSH1 0xD9 PUSH1 0x20 MSTORE PUSH1 0x40 SWAP1 KECCAK256 PUSH1 0x2 DUP2 ADD SLOAD PUSH2 0x100 SWAP1 DIV PUSH1 0x1 PUSH1 0x1 PUSH1 0xA0 SHL SUB AND PUSH2 0x46D3 JUMPI POP POP PUSH2 0x4991 JUMP JUMPDEST DUP3 PUSH1 0xFF AND PUSH1 0x0 SUB PUSH2 0x46F8 JUMPI DUP9 DUP2 PUSH1 0xC ADD PUSH1 0x0 DUP3 DUP3 SLOAD PUSH2 0x46F2 SWAP2 SWAP1 PUSH2 0x5D6B JUMP JUMPDEST SWAP1 SWAP2 SSTORE POP POP JUMPDEST DUP9 DUP2 PUSH1 0xE ADD PUSH1 0x0 DUP3 DUP3 SLOAD PUSH2 0x470C SWAP2 SWAP1 PUSH2 0x5D6B JUMP JUMPDEST SWAP1 SWAP2 SSTORE POP POP PUSH1 0x12 DUP2 ADD SLOAD PUSH1 0xFF AND PUSH2 0x4722 DUP4 PUSH2 0x30EA JUMP JUMPDEST PUSH1 0xFF AND GT ISZERO PUSH2 0x493E JUMPI PUSH2 0x4734 DUP3 PUSH2 0x30EA JUMP JUMPDEST PUSH1 0x12 DUP3 ADD DUP1 SLOAD PUSH1 0xFF NOT AND PUSH1 0xFF SWAP3 DUP4 AND SWAP1 DUP2 OR DUP3 SSTORE PUSH1 0x0 SWAP1 DUP2 MSTORE PUSH1 0xDB PUSH1 0x20 SWAP1 DUP2 MSTORE PUSH1 0x40 DUP1 DUP4 KECCAK256 PUSH1 0x9 SWAP1 DUP2 ADD DUP1 SLOAD PUSH1 0x1 DUP2 DUP2 ADD DUP4 SSTORE SWAP2 DUP7 MSTORE SWAP4 DUP6 KECCAK256 PUSH1 0x8 DUP6 DIV ADD DUP1 SLOAD PUSH1 0x7 SWAP1 SWAP6 AND PUSH1 0x4 MUL PUSH2 0x100 EXP PUSH4 0xFFFFFFFF DUP2 DUP2 MUL NOT SWAP1 SWAP7 AND SWAP6 DUP12 AND MUL SWAP5 SWAP1 SWAP5 OR SWAP1 SWAP4 SSTORE SWAP4 SLOAD SWAP1 SWAP5 AND DUP3 MSTORE SWAP3 SWAP1 KECCAK256 ADD SLOAD PUSH2 0x47AD SWAP2 SWAP1 PUSH2 0x5B26 JUMP JUMPDEST PUSH1 0x13 DUP3 ADD DUP2 SWAP1 SSTORE PUSH1 0x12 DUP3 ADD SLOAD PUSH1 0x40 DUP1 MLOAD PUSH4 0xFFFFFFFF DUP7 AND DUP2 MSTORE PUSH1 0x20 DUP2 ADD SWAP4 SWAP1 SWAP4 MSTORE PUSH1 0xFF SWAP1 SWAP2 AND DUP3 DUP3 ADD MSTORE MLOAD PUSH32 0xB0D3A9C683344E744A1AE3DB383F75A8A01851282C5FE97D6159C1392A2E2A0A SWAP2 DUP2 SWAP1 SUB PUSH1 0x60 ADD SWAP1 LOG1 PUSH1 0xDB PUSH1 0x0 PUSH2 0x480F DUP5 PUSH2 0x30EA JUMP JUMPDEST PUSH1 0xFF SWAP1 DUP2 AND DUP3 MSTORE PUSH1 0x20 DUP3 ADD SWAP3 SWAP1 SWAP3 MSTORE PUSH1 0x40 ADD PUSH1 0x0 KECCAK256 PUSH1 0x8 ADD SLOAD PUSH2 0x100 SWAP1 DIV AND ISZERO PUSH2 0x48AA JUMPI PUSH1 0xDB PUSH1 0x0 PUSH2 0x4840 DUP5 PUSH2 0x30EA JUMP JUMPDEST PUSH1 0xFF AND PUSH1 0xFF AND DUP2 MSTORE PUSH1 0x20 ADD SWAP1 DUP2 MSTORE PUSH1 0x20 ADD PUSH1 0x0 KECCAK256 PUSH1 0x7 ADD SLOAD DUP2 PUSH1 0x11 ADD SLOAD PUSH2 0x4867 SWAP2 SWAP1 PUSH2 0x5D6B JUMP JUMPDEST TIMESTAMP GT ISZERO PUSH2 0x4896 JUMPI TIMESTAMP DUP2 PUSH1 0x11 ADD DUP2 SWAP1 SSTORE POP DUP9 DUP2 PUSH1 0x10 ADD PUSH1 0x0 DUP3 DUP3 SLOAD PUSH2 0x488B SWAP2 SWAP1 PUSH2 0x5D6B JUMP JUMPDEST SWAP1 SWAP2 SSTORE POP PUSH2 0x493E SWAP1 POP JUMP JUMPDEST DUP9 DUP2 PUSH1 0x10 ADD PUSH1 0x0 DUP3 DUP3 SLOAD PUSH2 0x488B SWAP2 SWAP1 PUSH2 0x5D6B JUMP JUMPDEST PUSH1 0xD2 SLOAD PUSH2 0x100 SWAP1 DIV PUSH1 0xFF AND ISZERO PUSH2 0x493E JUMPI PUSH1 0x12 DUP2 ADD SLOAD PUSH1 0xFF AND PUSH1 0x0 SWAP1 DUP2 MSTORE PUSH1 0xDB PUSH1 0x20 MSTORE PUSH1 0x40 SWAP1 KECCAK256 PUSH1 0x5 ADD SLOAD PUSH2 0x48DF SWAP1 DUP3 SWAP1 PUSH2 0x4D96 JUMP JUMPDEST PUSH1 0x12 DUP2 ADD SLOAD PUSH1 0xFF SWAP1 DUP2 AND PUSH1 0x0 SWAP1 DUP2 MSTORE PUSH1 0xDB PUSH1 0x20 SWAP1 DUP2 MSTORE PUSH1 0x40 SWAP2 DUP3 SWAP1 KECCAK256 PUSH1 0x5 DUP2 ADD SLOAD SWAP1 SLOAD SWAP3 MLOAD SWAP3 SWAP1 SWAP4 AND DUP3 MSTORE PUSH4 0xFFFFFFFF DUP6 AND SWAP2 PUSH32 0x94B6D3D19CC40938E685EF6A1F6476B53EF65295AB094A044E74405A8D0BD05B SWAP2 ADD PUSH1 0x40 MLOAD DUP1 SWAP2 SUB SWAP1 LOG3 JUMPDEST PUSH1 0xD5 SLOAD PUSH1 0xD4 SLOAD PUSH2 0x494E SWAP2 SWAP1 PUSH2 0x5D6B JUMP JUMPDEST TIMESTAMP GT ISZERO PUSH2 0x4963 JUMPI TIMESTAMP PUSH1 0xD4 SSTORE PUSH1 0xD3 DUP10 SWAP1 SSTORE PUSH2 0x497B JUMP JUMPDEST DUP9 PUSH1 0xD3 PUSH1 0x0 DUP3 DUP3 SLOAD PUSH2 0x4975 SWAP2 SWAP1 PUSH2 0x5D6B JUMP JUMPDEST SWAP1 SWAP2 SSTORE POP POP JUMPDEST SWAP3 POP DUP2 SWAP1 POP PUSH2 0x4989 DUP2 PUSH2 0x5D97 JUMP JUMPDEST SWAP2 POP POP PUSH2 0x468E JUMP JUMPDEST POP PUSH1 0xCF DUP1 SLOAD PUSH1 0x1 PUSH1 0x20 SHL SWAP1 DIV PUSH4 0xFFFFFFFF AND SWAP1 PUSH1 0x4 PUSH2 0x49AF DUP4 PUSH2 0x5D7E JUMP JUMPDEST SWAP2 SWAP1 PUSH2 0x100 EXP DUP2 SLOAD DUP2 PUSH4 0xFFFFFFFF MUL NOT AND SWAP1 DUP4 PUSH4 0xFFFFFFFF AND MUL OR SWAP1 SSTORE POP POP POP POP POP POP POP POP POP POP POP JUMP JUMPDEST PUSH1 0x0 DUP2 PUSH1 0x19 ADD SLOAD DUP3 PUSH1 0x18 ADD SLOAD LT ISZERO PUSH2 0x49F5 JUMPI DUP2 PUSH1 0x18 ADD SLOAD PUSH2 0x49FB JUMP JUMPDEST DUP2 PUSH1 0x19 ADD SLOAD JUMPDEST SWAP3 SWAP2 POP POP JUMP JUMPDEST PUSH4 0xFFFFFFFF DUP2 AND PUSH1 0x0 SWAP1 DUP2 MSTORE PUSH1 0xD9 PUSH1 0x20 SWAP1 DUP2 MSTORE PUSH1 0x40 DUP1 DUP4 KECCAK256 PUSH1 0x6 ADD DUP1 SLOAD DUP3 MLOAD DUP2 DUP6 MUL DUP2 ADD DUP6 ADD SWAP1 SWAP4 MSTORE DUP1 DUP4 MSTORE DUP5 SWAP4 DUP4 ADD DUP3 DUP3 DUP1 ISZERO PUSH2 0x4A8A JUMPI PUSH1 0x20 MUL DUP3 ADD SWAP2 SWAP1 PUSH1 0x0 MSTORE PUSH1 0x20 PUSH1 0x0 KECCAK256 SWAP1 PUSH1 0x0 SWAP1 JUMPDEST DUP3 DUP3 SWAP1 SLOAD SWAP1 PUSH2 0x100 EXP SWAP1 DIV PUSH4 0xFFFFFFFF AND PUSH4 0xFFFFFFFF AND DUP2 MSTORE PUSH1 0x20 ADD SWAP1 PUSH1 0x4 ADD SWAP1 PUSH1 0x20 DUP3 PUSH1 0x3 ADD DIV SWAP3 DUP4 ADD SWAP3 PUSH1 0x1 SUB DUP3 MUL SWAP2 POP DUP1 DUP5 GT PUSH2 0x4A4D JUMPI SWAP1 POP JUMPDEST POP POP DUP4 MLOAD SWAP4 SWAP5 POP PUSH1 0x0 SWAP3 POP POP POP JUMPDEST DUP2 DUP2 PUSH2 0xFFFF AND LT ISZERO PUSH2 0x34FF JUMPI PUSH2 0x4ABD DUP4 DUP3 PUSH2 0xFFFF AND DUP2 MLOAD DUP2 LT PUSH2 0x36C6 JUMPI PUSH2 0x36C6 PUSH2 0x5BD1 JUMP JUMPDEST PUSH2 0x4AC7 SWAP1 DUP6 PUSH2 0x5D6B JUMP JUMPDEST SWAP4 POP DUP1 PUSH2 0x4AD3 DUP2 PUSH2 0x5BE7 JUMP JUMPDEST SWAP2 POP POP PUSH2 0x4A98 JUMP JUMPDEST PUSH2 0x4AE4 DUP2 PUSH2 0x3F4F JUMP JUMPDEST PUSH2 0x4B46 JUMPI PUSH1 0x40 MLOAD PUSH3 0x461BCD PUSH1 0xE5 SHL DUP2 MSTORE PUSH1 0x20 PUSH1 0x4 DUP3 ADD MSTORE PUSH1 0x2D PUSH1 0x24 DUP3 ADD MSTORE PUSH32 0x455243313936373A206E657720696D706C656D656E746174696F6E206973206E PUSH1 0x44 DUP3 ADD MSTORE PUSH13 0x1BDD08184818DBDB9D1C9858DD PUSH1 0x9A SHL PUSH1 0x64 DUP3 ADD MSTORE PUSH1 0x84 ADD PUSH2 0xEB9 JUMP JUMPDEST PUSH1 0x0 DUP1 MLOAD PUSH1 0x20 PUSH2 0x5EF4 DUP4 CODECOPY DUP2 MLOAD SWAP2 MSTORE DUP1 SLOAD PUSH1 0x1 PUSH1 0x1 PUSH1 0xA0 SHL SUB NOT AND PUSH1 0x1 PUSH1 0x1 PUSH1 0xA0 SHL SUB SWAP3 SWAP1 SWAP3 AND SWAP2 SWAP1 SWAP2 OR SWAP1 SSTORE JUMP JUMPDEST PUSH2 0x4B7E DUP4 PUSH2 0x4DFE JUMP JUMPDEST PUSH1 0x0 DUP3 MLOAD GT DUP1 PUSH2 0x4B8B JUMPI POP DUP1 JUMPDEST ISZERO PUSH2 0xA55 JUMPI PUSH2 0x4B9A DUP4 DUP4 PUSH2 0x4E3E JUMP JUMPDEST POP POP POP POP JUMP JUMPDEST PUSH4 0xFFFFFFFF DUP2 AND PUSH1 0x0 SWAP1 DUP2 MSTORE PUSH1 0xDA PUSH1 0x20 MSTORE PUSH1 0x40 DUP2 KECCAK256 DUP1 SLOAD PUSH1 0xFF AND ISZERO PUSH2 0x4C4B JUMPI PUSH1 0xD0 SLOAD PUSH1 0xCB SLOAD PUSH1 0xCF SLOAD PUSH1 0x1 DUP5 ADD SLOAD TIMESTAMP SWAP4 PUSH1 0x0 SWAP4 SWAP1 SWAP3 PUSH2 0xFFFF SWAP2 DUP3 AND SWAP3 PUSH2 0x4BF0 SWAP3 PUSH1 0x1 PUSH1 0x60 SHL SWAP1 SWAP3 DIV SWAP1 SWAP2 AND SWAP1 PUSH2 0x5D32 JUMP JUMPDEST PUSH2 0x4BFA SWAP2 SWAP1 PUSH2 0x5D49 JUMP JUMPDEST PUSH2 0x4C04 SWAP2 SWAP1 PUSH2 0x5D49 JUMP JUMPDEST SWAP1 POP PUSH1 0x0 DUP4 PUSH1 0x3 ADD SLOAD DUP4 PUSH2 0x4C18 SWAP2 SWAP1 PUSH2 0x5B26 JUMP JUMPDEST SWAP1 POP DUP4 PUSH1 0x5 ADD SLOAD PUSH2 0x4C2D DUP3 DUP7 PUSH1 0x4 ADD SLOAD PUSH2 0x4F30 JUMP JUMPDEST PUSH2 0x4C37 SWAP1 DUP5 PUSH2 0x5D32 JUMP JUMPDEST PUSH2 0x4C41 SWAP2 SWAP1 PUSH2 0x5B26 JUMP JUMPDEST SWAP5 POP POP POP POP PUSH2 0x4C50 JUMP JUMPDEST PUSH1 0x0 SWAP2 POP JUMPDEST POP SWAP2 SWAP1 POP JUMP JUMPDEST PUSH1 0x0 DUP2 PUSH1 0x6 ADD DUP1 SLOAD DUP1 PUSH1 0x20 MUL PUSH1 0x20 ADD PUSH1 0x40 MLOAD SWAP1 DUP2 ADD PUSH1 0x40 MSTORE DUP1 SWAP3 SWAP2 SWAP1 DUP2 DUP2 MSTORE PUSH1 0x20 ADD DUP3 DUP1 SLOAD DUP1 ISZERO PUSH2 0x4CD2 JUMPI PUSH1 0x20 MUL DUP3 ADD SWAP2 SWAP1 PUSH1 0x0 MSTORE PUSH1 0x20 PUSH1 0x0 KECCAK256 SWAP1 PUSH1 0x0 SWAP1 JUMPDEST DUP3 DUP3 SWAP1 SLOAD SWAP1 PUSH2 0x100 EXP SWAP1 DIV PUSH4 0xFFFFFFFF AND PUSH4 0xFFFFFFFF AND DUP2 MSTORE PUSH1 0x20 ADD SWAP1 PUSH1 0x4 ADD SWAP1 PUSH1 0x20 DUP3 PUSH1 0x3 ADD DIV SWAP3 DUP4 ADD SWAP3 PUSH1 0x1 SUB DUP3 MUL SWAP2 POP DUP1 DUP5 GT PUSH2 0x4C95 JUMPI SWAP1 POP JUMPDEST POP POP POP POP POP SWAP1 POP PUSH1 0x0 JUMPDEST DUP2 MLOAD DUP2 LT ISZERO PUSH2 0xA55 JUMPI PUSH1 0xDA PUSH1 0x0 DUP4 DUP4 DUP2 MLOAD DUP2 LT PUSH2 0x4CFB JUMPI PUSH2 0x4CFB PUSH2 0x5BD1 JUMP JUMPDEST PUSH1 0x20 SWAP1 DUP2 MUL SWAP2 SWAP1 SWAP2 ADD DUP2 ADD MLOAD PUSH4 0xFFFFFFFF AND DUP3 MSTORE DUP2 ADD SWAP2 SWAP1 SWAP2 MSTORE PUSH1 0x40 ADD PUSH1 0x0 KECCAK256 SLOAD PUSH1 0xFF AND ISZERO PUSH2 0x4D6C JUMPI PUSH1 0x0 PUSH1 0xDA PUSH1 0x0 DUP5 DUP5 DUP2 MLOAD DUP2 LT PUSH2 0x4D3C JUMPI PUSH2 0x4D3C PUSH2 0x5BD1 JUMP JUMPDEST PUSH1 0x20 SWAP1 DUP2 MUL SWAP2 SWAP1 SWAP2 ADD DUP2 ADD MLOAD PUSH4 0xFFFFFFFF AND DUP3 MSTORE DUP2 ADD SWAP2 SWAP1 SWAP2 MSTORE PUSH1 0x40 ADD PUSH1 0x0 KECCAK256 DUP1 SLOAD PUSH1 0xFF NOT AND SWAP2 ISZERO ISZERO SWAP2 SWAP1 SWAP2 OR SWAP1 SSTORE JUMPDEST DUP1 PUSH2 0x4D76 DUP2 PUSH2 0x5E11 JUMP JUMPDEST SWAP2 POP POP PUSH2 0x4CDC JUMP JUMPDEST PUSH1 0x2 DUP2 ADD DUP1 SLOAD PUSH1 0xFF NOT AND PUSH1 0x1 OR SWAP1 SSTORE PUSH2 0xE6E DUP2 PUSH2 0x4C56 JUMP JUMPDEST DUP2 PUSH1 0x19 ADD SLOAD DUP2 DUP4 PUSH1 0x18 ADD SLOAD PUSH2 0x4DAB SWAP2 SWAP1 PUSH2 0x5D6B JUMP JUMPDEST LT PUSH2 0x4DBE JUMPI PUSH1 0x19 DUP3 ADD SLOAD PUSH1 0x18 DUP4 ADD SSTORE POP POP JUMP JUMPDEST DUP1 DUP3 PUSH1 0x18 ADD SLOAD PUSH2 0xA55 SWAP2 SWAP1 PUSH2 0x5D6B JUMP JUMPDEST PUSH1 0x0 SLOAD PUSH2 0x100 SWAP1 DIV PUSH1 0xFF AND PUSH2 0x4DF5 JUMPI PUSH1 0x40 MLOAD PUSH3 0x461BCD PUSH1 0xE5 SHL DUP2 MSTORE PUSH1 0x4 ADD PUSH2 0xEB9 SWAP1 PUSH2 0x5E59 JUMP JUMPDEST PUSH2 0x135C CALLER PUSH2 0x3098 JUMP JUMPDEST PUSH2 0x4E07 DUP2 PUSH2 0x4ADB JUMP JUMPDEST PUSH1 0x40 MLOAD PUSH1 0x1 PUSH1 0x1 PUSH1 0xA0 SHL SUB DUP3 AND SWAP1 PUSH32 0xBC7CD75A20EE27FD9ADEBAB32041F755214DBC6BFFA90CC0225B39DA2E5C2D3B SWAP1 PUSH1 0x0 SWAP1 LOG2 POP JUMP JUMPDEST PUSH1 0x60 PUSH2 0x4E49 DUP4 PUSH2 0x3F4F JUMP JUMPDEST PUSH2 0x4EA4 JUMPI PUSH1 0x40 MLOAD PUSH3 0x461BCD PUSH1 0xE5 SHL DUP2 MSTORE PUSH1 0x20 PUSH1 0x4 DUP3 ADD MSTORE PUSH1 0x26 PUSH1 0x24 DUP3 ADD MSTORE PUSH32 0x416464726573733A2064656C65676174652063616C6C20746F206E6F6E2D636F PUSH1 0x44 DUP3 ADD MSTORE PUSH6 0x1B9D1C9858DD PUSH1 0xD2 SHL PUSH1 0x64 DUP3 ADD MSTORE PUSH1 0x84 ADD PUSH2 0xEB9 JUMP JUMPDEST PUSH1 0x0 DUP1 DUP5 PUSH1 0x1 PUSH1 0x1 PUSH1 0xA0 SHL SUB AND DUP5 PUSH1 0x40 MLOAD PUSH2 0x4EBF SWAP2 SWAP1 PUSH2 0x5EA4 JUMP JUMPDEST PUSH1 0x0 PUSH1 0x40 MLOAD DUP1 DUP4 SUB DUP2 DUP6 GAS DELEGATECALL SWAP2 POP POP RETURNDATASIZE DUP1 PUSH1 0x0 DUP2 EQ PUSH2 0x4EFA JUMPI PUSH1 0x40 MLOAD SWAP2 POP PUSH1 0x1F NOT PUSH1 0x3F RETURNDATASIZE ADD AND DUP3 ADD PUSH1 0x40 MSTORE RETURNDATASIZE DUP3 MSTORE RETURNDATASIZE PUSH1 0x0 PUSH1 0x20 DUP5 ADD RETURNDATACOPY PUSH2 0x4EFF JUMP JUMPDEST PUSH1 0x60 SWAP2 POP JUMPDEST POP SWAP2 POP SWAP2 POP PUSH2 0x4F27 DUP3 DUP3 PUSH1 0x40 MLOAD DUP1 PUSH1 0x60 ADD PUSH1 0x40 MSTORE DUP1 PUSH1 0x27 DUP2 MSTORE PUSH1 0x20 ADD PUSH2 0x5F14 PUSH1 0x27 SWAP2 CODECOPY PUSH2 0x4F48 JUMP JUMPDEST SWAP6 SWAP5 POP POP POP POP POP JUMP JUMPDEST PUSH1 0x0 DUP2 DUP4 GT ISZERO PUSH2 0x4F41 JUMPI POP DUP1 PUSH2 0x49FB JUMP JUMPDEST POP SWAP1 SWAP2 SWAP1 POP JUMP JUMPDEST PUSH1 0x60 DUP4 ISZERO PUSH2 0x4F57 JUMPI POP DUP2 PUSH2 0xE09 JUMP JUMPDEST PUSH2 0xE09 DUP4 DUP4 DUP2 MLOAD ISZERO PUSH2 0x4F6C JUMPI DUP2 MLOAD DUP1 DUP4 PUSH1 0x20 ADD REVERT JUMPDEST DUP1 PUSH1 0x40 MLOAD PUSH3 0x461BCD PUSH1 0xE5 SHL DUP2 MSTORE PUSH1 0x4 ADD PUSH2 0xEB9 SWAP2 SWAP1 PUSH2 0x5EC0 JUMP JUMPDEST DUP3 DUP1 SLOAD DUP3 DUP3 SSTORE SWAP1 PUSH1 0x0 MSTORE PUSH1 0x20 PUSH1 0x0 KECCAK256 SWAP1 PUSH1 0xF ADD PUSH1 0x10 SWAP1 DIV DUP2 ADD SWAP3 DUP3 ISZERO PUSH2 0x501E JUMPI SWAP2 PUSH1 0x20 MUL DUP3 ADD PUSH1 0x0 JUMPDEST DUP4 DUP3 GT ISZERO PUSH2 0x4FEE JUMPI DUP4 MLOAD DUP4 DUP3 PUSH2 0x100 EXP DUP2 SLOAD DUP2 PUSH2 0xFFFF MUL NOT AND SWAP1 DUP4 PUSH1 0xFF AND MUL OR SWAP1 SSTORE POP SWAP3 PUSH1 0x20 ADD SWAP3 PUSH1 0x2 ADD PUSH1 0x20 DUP2 PUSH1 0x1 ADD DIV SWAP3 DUP4 ADD SWAP3 PUSH1 0x1 SUB MUL PUSH2 0x4FAF JUMP JUMPDEST DUP1 ISZERO PUSH2 0x501C JUMPI DUP3 DUP2 PUSH2 0x100 EXP DUP2 SLOAD SWAP1 PUSH2 0xFFFF MUL NOT AND SWAP1 SSTORE PUSH1 0x2 ADD PUSH1 0x20 DUP2 PUSH1 0x1 ADD DIV SWAP3 DUP4 ADD SWAP3 PUSH1 0x1 SUB MUL PUSH2 0x4FEE JUMP JUMPDEST POP JUMPDEST POP PUSH2 0x502A SWAP3 SWAP2 POP PUSH2 0x5099 JUMP JUMPDEST POP SWAP1 JUMP JUMPDEST DUP3 DUP1 SLOAD DUP3 DUP3 SSTORE SWAP1 PUSH1 0x0 MSTORE PUSH1 0x20 PUSH1 0x0 KECCAK256 SWAP1 PUSH1 0xF ADD PUSH1 0x10 SWAP1 DIV DUP2 ADD SWAP3 DUP3 ISZERO PUSH2 0x501E JUMPI SWAP2 PUSH1 0x20 MUL DUP3 ADD PUSH1 0x0 JUMPDEST DUP4 DUP3 GT ISZERO PUSH2 0x4FEE JUMPI DUP4 CALLDATALOAD PUSH1 0xFF AND DUP4 DUP3 PUSH2 0x100 EXP DUP2 SLOAD DUP2 PUSH2 0xFFFF MUL NOT AND SWAP1 DUP4 PUSH1 0xFF AND MUL OR SWAP1 SSTORE POP SWAP3 PUSH1 0x20 ADD SWAP3 PUSH1 0x2 ADD PUSH1 0x20 DUP2 PUSH1 0x1 ADD DIV SWAP3 DUP4 ADD SWAP3 PUSH1 0x1 SUB MUL PUSH2 0x5057 JUMP JUMPDEST JUMPDEST DUP1 DUP3 GT ISZERO PUSH2 0x502A JUMPI PUSH1 0x0 DUP2 SSTORE PUSH1 0x1 ADD PUSH2 0x509A JUMP JUMPDEST DUP1 CALLDATALOAD PUSH1 0xFF DUP2 AND DUP2 EQ PUSH2 0x50BF JUMPI PUSH1 0x0 DUP1 REVERT JUMPDEST SWAP2 SWAP1 POP JUMP JUMPDEST PUSH1 0x0 PUSH1 0x20 DUP3 DUP5 SUB SLT ISZERO PUSH2 0x50D6 JUMPI PUSH1 0x0 DUP1 REVERT JUMPDEST PUSH2 0xE09 DUP3 PUSH2 0x50AE JUMP JUMPDEST PUSH1 0x20 DUP1 DUP3 MSTORE DUP3 MLOAD DUP3 DUP3 ADD DUP2 SWAP1 MSTORE PUSH1 0x0 SWAP2 SWAP1 DUP5 DUP3 ADD SWAP1 PUSH1 0x40 DUP6 ADD SWAP1 DUP5 JUMPDEST DUP2 DUP2 LT ISZERO PUSH2 0x511D JUMPI DUP4 MLOAD PUSH4 0xFFFFFFFF AND DUP4 MSTORE SWAP3 DUP5 ADD SWAP3 SWAP2 DUP5 ADD SWAP2 PUSH1 0x1 ADD PUSH2 0x50FB JUMP JUMPDEST POP SWAP1 SWAP7 SWAP6 POP POP POP POP POP POP JUMP JUMPDEST DUP1 CALLDATALOAD PUSH1 0x1 PUSH1 0x1 PUSH1 0xA0 SHL SUB DUP2 AND DUP2 EQ PUSH2 0x50BF JUMPI PUSH1 0x0 DUP1 REVERT JUMPDEST PUSH1 0x0 DUP1 PUSH1 0x40 DUP4 DUP6 SUB SLT ISZERO PUSH2 0x5153 JUMPI PUSH1 0x0 DUP1 REVERT JUMPDEST PUSH2 0x515C DUP4 PUSH2 0x5129 JUMP JUMPDEST SWAP5 PUSH1 0x20 SWAP4 SWAP1 SWAP4 ADD CALLDATALOAD SWAP4 POP POP POP JUMP JUMPDEST PUSH1 0x0 PUSH1 0x20 DUP3 DUP5 SUB SLT ISZERO PUSH2 0x517C JUMPI PUSH1 0x0 DUP1 REVERT JUMPDEST PUSH2 0xE09 DUP3 PUSH2 0x5129 JUMP JUMPDEST DUP1 CALLDATALOAD PUSH4 0xFFFFFFFF DUP2 AND DUP2 EQ PUSH2 0x50BF JUMPI PUSH1 0x0 DUP1 REVERT JUMPDEST PUSH1 0x0 PUSH1 0x20 DUP3 DUP5 SUB SLT ISZERO PUSH2 0x51AB JUMPI PUSH1 0x0 DUP1 REVERT JUMPDEST PUSH2 0xE09 DUP3 PUSH2 0x5185 JUMP JUMPDEST PUSH1 0x0 PUSH1 0x20 DUP3 DUP5 SUB SLT ISZERO PUSH2 0x51C6 JUMPI PUSH1 0x0 DUP1 REVERT JUMPDEST POP CALLDATALOAD SWAP2 SWAP1 POP JUMP JUMPDEST PUSH1 0x0 DUP1 DUP4 PUSH1 0x1F DUP5 ADD SLT PUSH2 0x51DF JUMPI PUSH1 0x0 DUP1 REVERT JUMPDEST POP DUP2 CALLDATALOAD PUSH1 0x1 PUSH1 0x1 PUSH1 0x40 SHL SUB DUP2 GT ISZERO PUSH2 0x51F6 JUMPI PUSH1 0x0 DUP1 REVERT JUMPDEST PUSH1 0x20 DUP4 ADD SWAP2 POP DUP4 PUSH1 0x20 DUP3 PUSH1 0x5 SHL DUP6 ADD ADD GT ISZERO PUSH2 0x5211 JUMPI PUSH1 0x0 DUP1 REVERT JUMPDEST SWAP3 POP SWAP3 SWAP1 POP JUMP JUMPDEST PUSH1 0x0 DUP1 PUSH1 0x0 DUP1 PUSH1 0x40 DUP6 DUP8 SUB SLT ISZERO PUSH2 0x522E JUMPI PUSH1 0x0 DUP1 REVERT JUMPDEST DUP5 CALLDATALOAD PUSH1 0x1 PUSH1 0x1 PUSH1 0x40 SHL SUB DUP1 DUP3 GT ISZERO PUSH2 0x5245 JUMPI PUSH1 0x0 DUP1 REVERT JUMPDEST PUSH2 0x5251 DUP9 DUP4 DUP10 ADD PUSH2 0x51CD JUMP JUMPDEST SWAP1 SWAP7 POP SWAP5 POP PUSH1 0x20 DUP8 ADD CALLDATALOAD SWAP2 POP DUP1 DUP3 GT ISZERO PUSH2 0x526A JUMPI PUSH1 0x0 DUP1 REVERT JUMPDEST POP PUSH2 0x5277 DUP8 DUP3 DUP9 ADD PUSH2 0x51CD JUMP JUMPDEST SWAP6 SWAP9 SWAP5 SWAP8 POP SWAP6 POP POP POP POP JUMP JUMPDEST PUSH4 0x4E487B71 PUSH1 0xE0 SHL PUSH1 0x0 MSTORE PUSH1 0x41 PUSH1 0x4 MSTORE PUSH1 0x24 PUSH1 0x0 REVERT JUMPDEST PUSH1 0x40 MLOAD PUSH1 0x1F DUP3 ADD PUSH1 0x1F NOT AND DUP2 ADD PUSH1 0x1 PUSH1 0x1 PUSH1 0x40 SHL SUB DUP2 GT DUP3 DUP3 LT OR ISZERO PUSH2 0x52C1 JUMPI PUSH2 0x52C1 PUSH2 0x5283 JUMP JUMPDEST PUSH1 0x40 MSTORE SWAP2 SWAP1 POP JUMP JUMPDEST PUSH1 0x0 PUSH1 0x1 PUSH1 0x1 PUSH1 0x40 SHL SUB DUP4 GT ISZERO PUSH2 0x52E2 JUMPI PUSH2 0x52E2 PUSH2 0x5283 JUMP JUMPDEST PUSH2 0x52F5 PUSH1 0x1F DUP5 ADD PUSH1 0x1F NOT AND PUSH1 0x20 ADD PUSH2 0x5299 JUMP JUMPDEST SWAP1 POP DUP3 DUP2 MSTORE DUP4 DUP4 DUP4 ADD GT ISZERO PUSH2 0x5309 JUMPI PUSH1 0x0 DUP1 REVERT JUMPDEST DUP3 DUP3 PUSH1 0x20 DUP4 ADD CALLDATACOPY PUSH1 0x0 PUSH1 0x20 DUP5 DUP4 ADD ADD MSTORE SWAP4 SWAP3 POP POP POP JUMP JUMPDEST PUSH1 0x0 DUP3 PUSH1 0x1F DUP4 ADD SLT PUSH2 0x5331 JUMPI PUSH1 0x0 DUP1 REVERT JUMPDEST PUSH2 0xE09 DUP4 DUP4 CALLDATALOAD PUSH1 0x20 DUP6 ADD PUSH2 0x52C9 JUMP JUMPDEST DUP1 ISZERO ISZERO DUP2 EQ PUSH2 0xE6E JUMPI PUSH1 0x0 DUP1 REVERT JUMPDEST PUSH1 0x0 DUP1 PUSH1 0x0 DUP1 PUSH1 0x0 DUP1 PUSH1 0x0 DUP1 PUSH1 0x0 PUSH2 0x120 DUP11 DUP13 SUB SLT ISZERO PUSH2 0x536D JUMPI PUSH1 0x0 DUP1 REVERT JUMPDEST PUSH2 0x5376 DUP11 PUSH2 0x50AE JUMP JUMPDEST SWAP9 POP PUSH1 0x20 DUP11 ADD CALLDATALOAD SWAP8 POP PUSH1 0x40 DUP11 ADD CALLDATALOAD SWAP7 POP PUSH1 0x60 DUP11 ADD CALLDATALOAD SWAP6 POP PUSH1 0x80 DUP11 ADD CALLDATALOAD PUSH1 0x1 PUSH1 0x1 PUSH1 0x40 SHL SUB DUP2 GT ISZERO PUSH2 0x53A6 JUMPI PUSH1 0x0 DUP1 REVERT JUMPDEST PUSH2 0x53B2 DUP13 DUP3 DUP14 ADD PUSH2 0x5320 JUMP JUMPDEST SWAP6 POP POP PUSH1 0xA0 DUP11 ADD CALLDATALOAD SWAP4 POP PUSH1 0xC0 DUP11 ADD CALLDATALOAD SWAP3 POP PUSH1 0xE0 DUP11 ADD CALLDATALOAD SWAP2 POP PUSH2 0x100 DUP11 ADD CALLDATALOAD PUSH2 0x53D9 DUP2 PUSH2 0x5340 JUMP JUMPDEST DUP1 SWAP2 POP POP SWAP3 SWAP6 SWAP9 POP SWAP3 SWAP6 SWAP9 POP SWAP3 SWAP6 SWAP9 JUMP JUMPDEST PUSH1 0x0 DUP1 PUSH1 0x40 DUP4 DUP6 SUB SLT ISZERO PUSH2 0x53FD JUMPI PUSH1 0x0 DUP1 REVERT JUMPDEST PUSH2 0x5406 DUP4 PUSH2 0x5129 JUMP JUMPDEST SWAP2 POP PUSH1 0x20 DUP4 ADD CALLDATALOAD PUSH1 0x1 PUSH1 0x1 PUSH1 0x40 SHL SUB DUP2 GT ISZERO PUSH2 0x5421 JUMPI PUSH1 0x0 DUP1 REVERT JUMPDEST DUP4 ADD PUSH1 0x1F DUP2 ADD DUP6 SGT PUSH2 0x5432 JUMPI PUSH1 0x0 DUP1 REVERT JUMPDEST PUSH2 0x5441 DUP6 DUP3 CALLDATALOAD PUSH1 0x20 DUP5 ADD PUSH2 0x52C9 JUMP JUMPDEST SWAP2 POP POP SWAP3 POP SWAP3 SWAP1 POP JUMP JUMPDEST PUSH1 0x0 JUMPDEST DUP4 DUP2 LT ISZERO PUSH2 0x5466 JUMPI DUP2 DUP2 ADD MLOAD DUP4 DUP3 ADD MSTORE PUSH1 0x20 ADD PUSH2 0x544E JUMP JUMPDEST POP POP PUSH1 0x0 SWAP2 ADD MSTORE JUMP JUMPDEST PUSH1 0x0 DUP2 MLOAD DUP1 DUP5 MSTORE PUSH2 0x5487 DUP2 PUSH1 0x20 DUP7 ADD PUSH1 0x20 DUP7 ADD PUSH2 0x544B JUMP JUMPDEST PUSH1 0x1F ADD PUSH1 0x1F NOT AND SWAP3 SWAP1 SWAP3 ADD PUSH1 0x20 ADD SWAP3 SWAP2 POP POP JUMP JUMPDEST PUSH1 0x0 DUP2 MLOAD DUP1 DUP5 MSTORE PUSH1 0x20 DUP1 DUP6 ADD SWAP5 POP DUP1 DUP5 ADD PUSH1 0x0 JUMPDEST DUP4 DUP2 LT ISZERO PUSH2 0x54D1 JUMPI DUP2 MLOAD PUSH4 0xFFFFFFFF AND DUP8 MSTORE SWAP6 DUP3 ADD SWAP6 SWAP1 DUP3 ADD SWAP1 PUSH1 0x1 ADD PUSH2 0x54AF JUMP JUMPDEST POP SWAP5 SWAP6 SWAP5 POP POP POP POP POP JUMP JUMPDEST PUSH1 0x20 DUP2 MSTORE PUSH2 0x54F0 PUSH1 0x20 DUP3 ADD DUP4 MLOAD PUSH1 0xFF AND SWAP1 MSTORE JUMP JUMPDEST PUSH1 0x20 DUP3 ADD MLOAD PUSH1 0x40 DUP3 ADD MSTORE PUSH1 0x40 DUP3 ADD MLOAD PUSH1 0x60 DUP3 ADD MSTORE PUSH1 0x60 DUP3 ADD MLOAD PUSH1 0x80 DUP3 ADD MSTORE PUSH1 0x0 PUSH1 0x80 DUP4 ADD MLOAD PUSH2 0x160 DUP1 PUSH1 0xA0 DUP6 ADD MSTORE PUSH2 0x552C PUSH2 0x180 DUP6 ADD DUP4 PUSH2 0x546F JUMP JUMPDEST SWAP2 POP PUSH1 0xA0 DUP6 ADD MLOAD PUSH1 0xC0 DUP6 ADD MSTORE PUSH1 0xC0 DUP6 ADD MLOAD PUSH1 0xE0 DUP6 ADD MSTORE PUSH1 0xE0 DUP6 ADD MLOAD PUSH2 0x100 DUP2 DUP2 DUP8 ADD MSTORE DUP1 DUP8 ADD MLOAD SWAP2 POP POP PUSH2 0x120 PUSH2 0x5566 DUP2 DUP8 ADD DUP4 ISZERO ISZERO SWAP1 MSTORE JUMP JUMPDEST DUP7 ADD MLOAD SWAP1 POP PUSH2 0x140 PUSH2 0x557B DUP7 DUP3 ADD DUP4 ISZERO ISZERO SWAP1 MSTORE JUMP JUMPDEST DUP7 ADD MLOAD DUP6 DUP5 SUB PUSH1 0x1F NOT ADD DUP4 DUP8 ADD MSTORE SWAP1 POP PUSH2 0x5595 DUP4 DUP3 PUSH2 0x549B JUMP JUMPDEST SWAP7 SWAP6 POP POP POP POP POP POP JUMP JUMPDEST PUSH1 0x0 PUSH1 0x1 PUSH1 0x1 PUSH1 0x40 SHL SUB DUP3 GT ISZERO PUSH2 0x55B8 JUMPI PUSH2 0x55B8 PUSH2 0x5283 JUMP JUMPDEST POP PUSH1 0x5 SHL PUSH1 0x20 ADD SWAP1 JUMP JUMPDEST PUSH1 0x0 DUP3 PUSH1 0x1F DUP4 ADD SLT PUSH2 0x55D3 JUMPI PUSH1 0x0 DUP1 REVERT JUMPDEST DUP2 CALLDATALOAD PUSH1 0x20 PUSH2 0x55E8 PUSH2 0x55E3 DUP4 PUSH2 0x559F JUMP JUMPDEST PUSH2 0x5299 JUMP JUMPDEST DUP3 DUP2 MSTORE PUSH1 0x5 SWAP3 SWAP1 SWAP3 SHL DUP5 ADD DUP2 ADD SWAP2 DUP2 DUP2 ADD SWAP1 DUP7 DUP5 GT ISZERO PUSH2 0x5607 JUMPI PUSH1 0x0 DUP1 REVERT JUMPDEST DUP3 DUP7 ADD JUMPDEST DUP5 DUP2 LT ISZERO PUSH2 0x5646 JUMPI DUP1 CALLDATALOAD PUSH1 0x1 PUSH1 0x1 PUSH1 0x40 SHL SUB DUP2 GT ISZERO PUSH2 0x562A JUMPI PUSH1 0x0 DUP1 DUP2 REVERT JUMPDEST PUSH2 0x5638 DUP10 DUP7 DUP4 DUP12 ADD ADD PUSH2 0x5320 JUMP JUMPDEST DUP5 MSTORE POP SWAP2 DUP4 ADD SWAP2 DUP4 ADD PUSH2 0x560B JUMP JUMPDEST POP SWAP7 SWAP6 POP POP POP POP POP POP JUMP JUMPDEST PUSH1 0x0 DUP1 PUSH1 0x40 DUP4 DUP6 SUB SLT ISZERO PUSH2 0x5664 JUMPI PUSH1 0x0 DUP1 REVERT JUMPDEST DUP3 CALLDATALOAD PUSH1 0x1 PUSH1 0x1 PUSH1 0x40 SHL SUB DUP1 DUP3 GT ISZERO PUSH2 0x567B JUMPI PUSH1 0x0 DUP1 REVERT JUMPDEST DUP2 DUP6 ADD SWAP2 POP DUP6 PUSH1 0x1F DUP4 ADD SLT PUSH2 0x568F JUMPI PUSH1 0x0 DUP1 REVERT JUMPDEST DUP2 CALLDATALOAD PUSH1 0x20 PUSH2 0x569F PUSH2 0x55E3 DUP4 PUSH2 0x559F JUMP JUMPDEST DUP3 DUP2 MSTORE PUSH1 0x5 SWAP3 SWAP1 SWAP3 SHL DUP5 ADD DUP2 ADD SWAP2 DUP2 DUP2 ADD SWAP1 DUP10 DUP5 GT ISZERO PUSH2 0x56BE JUMPI PUSH1 0x0 DUP1 REVERT JUMPDEST SWAP5 DUP3 ADD SWAP5 JUMPDEST DUP4 DUP7 LT ISZERO PUSH2 0x56E3 JUMPI PUSH2 0x56D4 DUP7 PUSH2 0x5185 JUMP JUMPDEST DUP3 MSTORE SWAP5 DUP3 ADD SWAP5 SWAP1 DUP3 ADD SWAP1 PUSH2 0x56C3 JUMP JUMPDEST SWAP7 POP POP DUP7 ADD CALLDATALOAD SWAP3 POP POP DUP1 DUP3 GT ISZERO PUSH2 0x56F9 JUMPI PUSH1 0x0 DUP1 REVERT JUMPDEST POP PUSH2 0x5441 DUP6 DUP3 DUP7 ADD PUSH2 0x55C2 JUMP JUMPDEST PUSH1 0x0 PUSH1 0x20 DUP3 DUP5 SUB SLT ISZERO PUSH2 0x5718 JUMPI PUSH1 0x0 DUP1 REVERT JUMPDEST DUP2 CALLDATALOAD PUSH2 0xFFFF DUP2 AND DUP2 EQ PUSH2 0xE09 JUMPI PUSH1 0x0 DUP1 REVERT JUMPDEST PUSH1 0x0 DUP1 PUSH1 0x0 DUP1 PUSH1 0x0 DUP1 PUSH1 0x0 DUP1 PUSH1 0x0 DUP1 PUSH1 0x0 DUP1 PUSH1 0xC0 DUP14 DUP16 SUB SLT ISZERO PUSH2 0x574C JUMPI PUSH1 0x0 DUP1 REVERT JUMPDEST PUSH1 0x1 PUSH1 0x1 PUSH1 0x40 SHL SUB DUP14 CALLDATALOAD GT ISZERO PUSH2 0x5761 JUMPI PUSH1 0x0 DUP1 REVERT JUMPDEST PUSH2 0x576E DUP15 DUP15 CALLDATALOAD DUP16 ADD PUSH2 0x51CD JUMP JUMPDEST SWAP1 SWAP13 POP SWAP11 POP PUSH1 0x1 PUSH1 0x1 PUSH1 0x40 SHL SUB PUSH1 0x20 DUP15 ADD CALLDATALOAD GT ISZERO PUSH2 0x578B JUMPI PUSH1 0x0 DUP1 REVERT JUMPDEST PUSH2 0x579B DUP15 PUSH1 0x20 DUP16 ADD CALLDATALOAD DUP16 ADD PUSH2 0x51CD JUMP JUMPDEST SWAP1 SWAP11 POP SWAP9 POP PUSH1 0x1 PUSH1 0x1 PUSH1 0x40 SHL SUB PUSH1 0x40 DUP15 ADD CALLDATALOAD GT ISZERO PUSH2 0x57B8 JUMPI PUSH1 0x0 DUP1 REVERT JUMPDEST PUSH2 0x57C8 DUP15 PUSH1 0x40 DUP16 ADD CALLDATALOAD DUP16 ADD PUSH2 0x51CD JUMP JUMPDEST SWAP1 SWAP9 POP SWAP7 POP PUSH1 0x1 PUSH1 0x1 PUSH1 0x40 SHL SUB PUSH1 0x60 DUP15 ADD CALLDATALOAD GT ISZERO PUSH2 0x57E5 JUMPI PUSH1 0x0 DUP1 REVERT JUMPDEST PUSH2 0x57F5 DUP15 PUSH1 0x60 DUP16 ADD CALLDATALOAD DUP16 ADD PUSH2 0x51CD JUMP JUMPDEST SWAP1 SWAP7 POP SWAP5 POP PUSH1 0x1 PUSH1 0x1 PUSH1 0x40 SHL SUB PUSH1 0x80 DUP15 ADD CALLDATALOAD GT ISZERO PUSH2 0x5812 JUMPI PUSH1 0x0 DUP1 REVERT JUMPDEST PUSH2 0x5822 DUP15 PUSH1 0x80 DUP16 ADD CALLDATALOAD DUP16 ADD PUSH2 0x51CD JUMP JUMPDEST SWAP1 SWAP5 POP SWAP3 POP PUSH1 0x1 PUSH1 0x1 PUSH1 0x40 SHL SUB PUSH1 0xA0 DUP15 ADD CALLDATALOAD GT ISZERO PUSH2 0x583F JUMPI PUSH1 0x0 DUP1 REVERT JUMPDEST PUSH2 0x584F DUP15 PUSH1 0xA0 DUP16 ADD CALLDATALOAD DUP16 ADD PUSH2 0x51CD JUMP JUMPDEST DUP2 SWAP4 POP DUP1 SWAP3 POP POP POP SWAP3 SWAP6 SWAP9 SWAP12 POP SWAP3 SWAP6 SWAP9 SWAP12 POP SWAP3 SWAP6 SWAP9 SWAP12 JUMP JUMPDEST PUSH1 0x0 DUP1 PUSH1 0x20 DUP4 DUP6 SUB SLT ISZERO PUSH2 0x587A JUMPI PUSH1 0x0 DUP1 REVERT JUMPDEST DUP3 CALLDATALOAD PUSH1 0x1 PUSH1 0x1 PUSH1 0x40 SHL SUB DUP2 GT ISZERO PUSH2 0x5890 JUMPI PUSH1 0x0 DUP1 REVERT JUMPDEST PUSH2 0x589C DUP6 DUP3 DUP7 ADD PUSH2 0x51CD JUMP JUMPDEST SWAP1 SWAP7 SWAP1 SWAP6 POP SWAP4 POP POP POP POP JUMP JUMPDEST PUSH1 0x0 DUP1 PUSH1 0x40 DUP4 DUP6 SUB SLT ISZERO PUSH2 0x58BB JUMPI PUSH1 0x0 DUP1 REVERT JUMPDEST PUSH2 0x515C DUP4 PUSH2 0x5185 JUMP JUMPDEST PUSH1 0x20 DUP2 MSTORE PUSH2 0x58DB PUSH1 0x20 DUP3 ADD DUP4 MLOAD PUSH4 0xFFFFFFFF AND SWAP1 MSTORE JUMP JUMPDEST PUSH1 0x0 PUSH1 0x20 DUP4 ADD MLOAD PUSH2 0x3A0 DUP1 PUSH1 0x40 DUP6 ADD MSTORE PUSH2 0x58F9 PUSH2 0x3C0 DUP6 ADD DUP4 PUSH2 0x546F JUMP JUMPDEST SWAP2 POP PUSH1 0x40 DUP6 ADD MLOAD PUSH2 0x590E PUSH1 0x60 DUP7 ADD DUP3 ISZERO ISZERO SWAP1 MSTORE JUMP JUMPDEST POP PUSH1 0x60 DUP6 ADD MLOAD PUSH1 0x1 PUSH1 0x1 PUSH1 0xA0 SHL SUB DUP2 AND PUSH1 0x80 DUP7 ADD MSTORE POP PUSH1 0x80 DUP6 ADD MLOAD PUSH1 0xA0 DUP6 ADD MSTORE PUSH1 0xA0 DUP6 ADD MLOAD PUSH1 0xC0 DUP6 ADD MSTORE PUSH1 0xC0 DUP6 ADD MLOAD PUSH1 0xE0 DUP6 ADD MSTORE PUSH1 0xE0 DUP6 ADD MLOAD PUSH1 0x1F NOT PUSH2 0x100 DUP2 DUP8 DUP7 SUB ADD DUP2 DUP9 ADD MSTORE PUSH2 0x5960 DUP6 DUP5 PUSH2 0x549B JUMP JUMPDEST SWAP5 POP DUP1 DUP9 ADD MLOAD SWAP3 POP POP PUSH2 0x120 PUSH2 0x597D DUP2 DUP9 ADD DUP5 PUSH4 0xFFFFFFFF AND SWAP1 MSTORE JUMP JUMPDEST DUP1 DUP9 ADD MLOAD SWAP3 POP POP PUSH2 0x140 DUP2 DUP8 DUP7 SUB ADD DUP2 DUP9 ADD MSTORE PUSH2 0x599A DUP6 DUP5 PUSH2 0x549B JUMP JUMPDEST SWAP5 POP DUP1 DUP9 ADD MLOAD SWAP3 POP POP PUSH2 0x160 DUP2 DUP8 DUP7 SUB ADD DUP2 DUP9 ADD MSTORE PUSH2 0x59B9 DUP6 DUP5 PUSH2 0x549B JUMP JUMPDEST SWAP1 DUP9 ADD MLOAD PUSH2 0x180 DUP9 DUP2 ADD SWAP2 SWAP1 SWAP2 MSTORE DUP9 ADD MLOAD PUSH2 0x1A0 DUP1 DUP10 ADD SWAP2 SWAP1 SWAP2 MSTORE DUP9 ADD MLOAD PUSH2 0x1C0 DUP1 DUP10 ADD SWAP2 SWAP1 SWAP2 MSTORE DUP9 ADD MLOAD PUSH2 0x1E0 DUP1 DUP10 ADD SWAP2 SWAP1 SWAP2 MSTORE DUP9 ADD MLOAD PUSH2 0x200 DUP1 DUP10 ADD SWAP2 SWAP1 SWAP2 MSTORE DUP9 ADD MLOAD PUSH2 0x220 DUP1 DUP10 ADD SWAP2 SWAP1 SWAP2 MSTORE DUP9 ADD MLOAD PUSH2 0x240 DUP1 DUP10 ADD SWAP2 SWAP1 SWAP2 MSTORE DUP9 ADD MLOAD PUSH2 0x260 DUP1 DUP10 ADD SWAP2 SWAP1 SWAP2 MSTORE DUP9 ADD MLOAD SWAP1 SWAP5 POP SWAP2 POP PUSH2 0x280 SWAP1 POP PUSH2 0x5A3D DUP2 DUP8 ADD DUP4 PUSH1 0xFF AND SWAP1 MSTORE JUMP JUMPDEST DUP7 ADD MLOAD PUSH2 0x2A0 DUP7 DUP2 ADD SWAP2 SWAP1 SWAP2 MSTORE DUP7 ADD MLOAD PUSH2 0x2C0 DUP1 DUP8 ADD SWAP2 SWAP1 SWAP2 MSTORE DUP7 ADD MLOAD PUSH2 0x2E0 DUP1 DUP8 ADD SWAP2 SWAP1 SWAP2 MSTORE DUP7 ADD MLOAD PUSH2 0x300 DUP1 DUP8 ADD SWAP2 SWAP1 SWAP2 MSTORE DUP7 ADD MLOAD PUSH2 0x320 DUP1 DUP8 ADD SWAP2 SWAP1 SWAP2 MSTORE DUP7 ADD MLOAD PUSH2 0x340 DUP1 DUP8 ADD SWAP2 SWAP1 SWAP2 MSTORE DUP7 ADD MLOAD PUSH2 0x360 DUP1 DUP8 ADD SWAP2 SWAP1 SWAP2 MSTORE DUP7 ADD MLOAD PUSH2 0x380 DUP1 DUP8 ADD SWAP2 SWAP1 SWAP2 MSTORE SWAP1 SWAP6 ADD MLOAD SWAP4 ADD SWAP3 SWAP1 SWAP3 MSTORE POP SWAP2 SWAP1 POP JUMP JUMPDEST PUSH1 0x20 DUP2 MSTORE DUP2 MLOAD ISZERO ISZERO PUSH1 0x20 DUP3 ADD MSTORE PUSH1 0x0 PUSH1 0x20 DUP4 ADD MLOAD PUSH1 0x40 DUP1 DUP5 ADD MSTORE PUSH2 0x3FE9 PUSH1 0x60 DUP5 ADD DUP3 PUSH2 0x549B JUMP JUMPDEST PUSH1 0x1 DUP2 DUP2 SHR SWAP1 DUP3 AND DUP1 PUSH2 0x5AF0 JUMPI PUSH1 0x7F DUP3 AND SWAP2 POP JUMPDEST PUSH1 0x20 DUP3 LT DUP2 SUB PUSH2 0x4C50 JUMPI PUSH4 0x4E487B71 PUSH1 0xE0 SHL PUSH1 0x0 MSTORE PUSH1 0x22 PUSH1 0x4 MSTORE PUSH1 0x24 PUSH1 0x0 REVERT JUMPDEST PUSH4 0x4E487B71 PUSH1 0xE0 SHL PUSH1 0x0 MSTORE PUSH1 0x11 PUSH1 0x4 MSTORE PUSH1 0x24 PUSH1 0x0 REVERT JUMPDEST DUP2 DUP2 SUB DUP2 DUP2 GT ISZERO PUSH2 0x49FB JUMPI PUSH2 0x49FB PUSH2 0x5B10 JUMP JUMPDEST PUSH1 0x20 DUP1 DUP3 MSTORE PUSH1 0x2C SWAP1 DUP3 ADD MSTORE PUSH32 0x46756E6374696F6E206D7573742062652063616C6C6564207468726F75676820 PUSH1 0x40 DUP3 ADD MSTORE PUSH12 0x19195B1959D85D1958D85B1B PUSH1 0xA2 SHL PUSH1 0x60 DUP3 ADD MSTORE PUSH1 0x80 ADD SWAP1 JUMP JUMPDEST PUSH1 0x20 DUP1 DUP3 MSTORE PUSH1 0x2C SWAP1 DUP3 ADD MSTORE PUSH32 0x46756E6374696F6E206D7573742062652063616C6C6564207468726F75676820 PUSH1 0x40 DUP3 ADD MSTORE PUSH12 0x6163746976652070726F7879 PUSH1 0xA0 SHL PUSH1 0x60 DUP3 ADD MSTORE PUSH1 0x80 ADD SWAP1 JUMP JUMPDEST PUSH4 0x4E487B71 PUSH1 0xE0 SHL PUSH1 0x0 MSTORE PUSH1 0x32 PUSH1 0x4 MSTORE PUSH1 0x24 PUSH1 0x0 REVERT JUMPDEST PUSH1 0x0 PUSH2 0xFFFF DUP1 DUP4 AND DUP2 DUP2 SUB PUSH2 0x5BFE JUMPI PUSH2 0x5BFE PUSH2 0x5B10 JUMP JUMPDEST PUSH1 0x1 ADD SWAP4 SWAP3 POP POP POP JUMP JUMPDEST PUSH1 0x1F DUP3 GT ISZERO PUSH2 0xA55 JUMPI PUSH1 0x0 DUP2 DUP2 MSTORE PUSH1 0x20 DUP2 KECCAK256 PUSH1 0x1F DUP6 ADD PUSH1 0x5 SHR DUP2 ADD PUSH1 0x20 DUP7 LT ISZERO PUSH2 0x5C2F JUMPI POP DUP1 JUMPDEST PUSH1 0x1F DUP6 ADD PUSH1 0x5 SHR DUP3 ADD SWAP2 POP JUMPDEST DUP2 DUP2 LT ISZERO PUSH2 0x5C4E JUMPI DUP3 DUP2 SSTORE PUSH1 0x1 ADD PUSH2 0x5C3B JUMP JUMPDEST POP POP POP POP POP POP JUMP JUMPDEST DUP2 MLOAD PUSH1 0x1 PUSH1 0x1 PUSH1 0x40 SHL SUB DUP2 GT ISZERO PUSH2 0x5C6F JUMPI PUSH2 0x5C6F PUSH2 0x5283 JUMP JUMPDEST PUSH2 0x5C83 DUP2 PUSH2 0x5C7D DUP5 SLOAD PUSH2 0x5ADC JUMP JUMPDEST DUP5 PUSH2 0x5C08 JUMP JUMPDEST PUSH1 0x20 DUP1 PUSH1 0x1F DUP4 GT PUSH1 0x1 DUP2 EQ PUSH2 0x5CB8 JUMPI PUSH1 0x0 DUP5 ISZERO PUSH2 0x5CA0 JUMPI POP DUP6 DUP4 ADD MLOAD JUMPDEST PUSH1 0x0 NOT PUSH1 0x3 DUP7 SWAP1 SHL SHR NOT AND PUSH1 0x1 DUP6 SWAP1 SHL OR DUP6 SSTORE PUSH2 0x5C4E JUMP JUMPDEST PUSH1 0x0 DUP6 DUP2 MSTORE PUSH1 0x20 DUP2 KECCAK256 PUSH1 0x1F NOT DUP7 AND SWAP2 JUMPDEST DUP3 DUP2 LT ISZERO PUSH2 0x5CE7 JUMPI DUP9 DUP7 ADD MLOAD DUP3 SSTORE SWAP5 DUP5 ADD SWAP5 PUSH1 0x1 SWAP1 SWAP2 ADD SWAP1 DUP5 ADD PUSH2 0x5CC8 JUMP JUMPDEST POP DUP6 DUP3 LT ISZERO PUSH2 0x5D05 JUMPI DUP8 DUP6 ADD MLOAD PUSH1 0x0 NOT PUSH1 0x3 DUP9 SWAP1 SHL PUSH1 0xF8 AND SHR NOT AND DUP2 SSTORE JUMPDEST POP POP POP POP POP PUSH1 0x1 SWAP1 DUP2 SHL ADD SWAP1 SSTORE POP JUMP JUMPDEST PUSH1 0x0 PUSH1 0x20 DUP3 DUP5 SUB SLT ISZERO PUSH2 0x5D27 JUMPI PUSH1 0x0 DUP1 REVERT JUMPDEST DUP2 MLOAD PUSH2 0xE09 DUP2 PUSH2 0x5340 JUMP JUMPDEST DUP1 DUP3 MUL DUP2 ISZERO DUP3 DUP3 DIV DUP5 EQ OR PUSH2 0x49FB JUMPI PUSH2 0x49FB PUSH2 0x5B10 JUMP JUMPDEST PUSH1 0x0 DUP3 PUSH2 0x5D66 JUMPI PUSH4 0x4E487B71 PUSH1 0xE0 SHL PUSH1 0x0 MSTORE PUSH1 0x12 PUSH1 0x4 MSTORE PUSH1 0x24 PUSH1 0x0 REVERT JUMPDEST POP DIV SWAP1 JUMP JUMPDEST DUP1 DUP3 ADD DUP1 DUP3 GT ISZERO PUSH2 0x49FB JUMPI PUSH2 0x49FB PUSH2 0x5B10 JUMP JUMPDEST PUSH1 0x0 PUSH4 0xFFFFFFFF DUP1 DUP4 AND DUP2 DUP2 SUB PUSH2 0x5BFE JUMPI PUSH2 0x5BFE PUSH2 0x5B10 JUMP JUMPDEST PUSH1 0x0 PUSH1 0xFF DUP3 AND PUSH1 0xFF DUP2 SUB PUSH2 0x5DAD JUMPI PUSH2 0x5DAD PUSH2 0x5B10 JUMP JUMPDEST PUSH1 0x1 ADD SWAP3 SWAP2 POP POP JUMP JUMPDEST PUSH4 0xFFFFFFFF DUP2 DUP2 AND DUP4 DUP3 AND ADD SWAP1 DUP1 DUP3 GT ISZERO PUSH2 0x5DD3 JUMPI PUSH2 0x5DD3 PUSH2 0x5B10 JUMP JUMPDEST POP SWAP3 SWAP2 POP POP JUMP JUMPDEST PUSH1 0x20 DUP1 DUP3 MSTORE PUSH1 0x1D SWAP1 DUP3 ADD MSTORE PUSH32 0x596F7520617265206E6F74206F776E6572206F6620746869732069642E000000 PUSH1 0x40 DUP3 ADD MSTORE PUSH1 0x60 ADD SWAP1 JUMP JUMPDEST PUSH1 0x0 PUSH1 0x1 DUP3 ADD PUSH2 0x5E23 JUMPI PUSH2 0x5E23 PUSH2 0x5B10 JUMP JUMPDEST POP PUSH1 0x1 ADD SWAP1 JUMP JUMPDEST PUSH4 0x4E487B71 PUSH1 0xE0 SHL PUSH1 0x0 MSTORE PUSH1 0x31 PUSH1 0x4 MSTORE PUSH1 0x24 PUSH1 0x0 REVERT JUMPDEST PUSH1 0x0 PUSH1 0x20 DUP3 DUP5 SUB SLT ISZERO PUSH2 0x5E52 JUMPI PUSH1 0x0 DUP1 REVERT JUMPDEST POP MLOAD SWAP2 SWAP1 POP JUMP JUMPDEST PUSH1 0x20 DUP1 DUP3 MSTORE PUSH1 0x2B SWAP1 DUP3 ADD MSTORE PUSH32 0x496E697469616C697A61626C653A20636F6E7472616374206973206E6F742069 PUSH1 0x40 DUP3 ADD MSTORE PUSH11 0x6E697469616C697A696E67 PUSH1 0xA8 SHL PUSH1 0x60 DUP3 ADD MSTORE PUSH1 0x80 ADD SWAP1 JUMP JUMPDEST PUSH1 0x0 DUP3 MLOAD PUSH2 0x5EB6 DUP2 DUP5 PUSH1 0x20 DUP8 ADD PUSH2 0x544B JUMP JUMPDEST SWAP2 SWAP1 SWAP2 ADD SWAP3 SWAP2 POP POP JUMP JUMPDEST PUSH1 0x20 DUP2 MSTORE PUSH1 0x0 PUSH2 0xE09 PUSH1 0x20 DUP4 ADD DUP5 PUSH2 0x546F JUMP INVALID PUSH7 0x5FECB676603864 PUSH3 0x57FB31 SWAP4 CALLDATACOPY SLT DUP1 0xB9 SAR 0x4E 0xE6 SWAP16 LT PUSH18 0x872C4C7B974431A488360894A13BA1A32106 PUSH8 0xC828492DB98DCA3E KECCAK256 PUSH23 0xCC3735A920A3CA505D382BBC416464726573733A206C6F PUSH24 0x2D6C6576656C2064656C65676174652063616C6C20666169 PUSH13 0x6564A2646970667358221220A1 0x22 0xB4 CALLCODE SWAP13 SWAP1 0xD4 0xAE DUP10 ADD SHR LOG2 0xB5 DUP1 RETURN PUSH18 0xA32F80A39AA6414D77D77B291BFE5E146473 PUSH16 0x6C634300081100330000000000000000 "},"methodIdentifiers":{"_disabledUsersList(uint256)":"1f7f83ba","activateID(uint32)":"e5682e38","addReferrerAdmin(uint32[],uint32[])":"cee3f560","claimBalance(uint32,uint256)":"f31a2d0f","claimROI(uint32)":"770ceeb1","companyTurnoverTimeLimit()":"f41bfeef","companyTurnoverTimeStamp()":"2ed421d2","companyTurnoverWithTimeLimit()":"22f88b52","decimals()":"313ce567","disableUserAdmin(address)":"9f4e8398","getAchieversList(uint8)":"012da720","getIDAccount(uint32)":"f830e57b","getIDClaimableBalance(uint32)":"1f3c4cba","getIDRoyaltyClubLevel(uint32)":"76a68e84","getPriceOracleContract()":"2913497b","getRoyaltyClubPackageInfo(uint8)":"7bdbf996","getUserAccount(address)":"fb47e016","getUserIDROI(uint32)":"fadffa70","getUserUnlockCount(uint32)":"b47181d3","initialize()":"8129fc1c","isPayROI()":"af2f39d1","isPayRoyaltyClubBonus()":"fafc9597","isUserDisabledByAdmin(address)":"538ffe0c","levelRates(uint256)":"7879b5ef","maxLevelsCount()":"8df05d9c","minContributionInUSD()":"96ed6b85","owner()":"8da5cb5b","packagesCount()":"18e10bff","payRoyaltyClubReccursiveBonusAdmin()":"aa7df4f2","proxiableUUID()":"52d1902d","removeUserFromDisableList(address)":"e52356f3","renounceOwnership()":"715018a6","royaltyClubPackageCount()":"a28a3686","sendETHAdmin(address,uint256)":"0b243dad","setLevelDecimals(uint16)":"a43ae408","setLevelRates(uint8[])":"e1c715ba","setMaxLevelsCountAdmin(uint8)":"8486e066","setPriceOracleContract(address)":"0efdbb6a","setRoyaltyClubPackage(uint8,uint256,uint256,uint256,string,uint256,uint256,uint256,bool)":"4a750822","setRoyaltyPackageCount(uint8)":"4b5102b8","topUpID(uint32)":"b92d18c1","totalIDs()":"5e701d86","totalROIIDs()":"a1b80175","totalRoyaltyClubBonusPaidETH()":"09de82cd","totalRoyaltyClubBonusPaidUSD()":"7a026935","totalUsers()":"bff1f9e1","transferOwnership(address)":"f2fde38b","updateIDOldIDtoAddress(uint32[],address[])":"43488780","updateOldNewIDsAdmin(uint32[],string[])":"7d14db7a","updateUserIDDataOldAdmin(uint32[],uint256[],uint256[],uint256[],uint256[],uint256[])":"db003b2a","upgradeTo(address)":"3659cfe6","upgradeToAndCall(address,bytes)":"4f1ef286","withdrawETHAdmin()":"35759788","withdrawTokensAdmin(address,uint256)":"a0b6105f"}},"storageLayout":{"storage":[{"astId":585,"contract":"contracts/ReferralV2Upgradeable.sol:ReferralV2Upgradeable","label":"_initialized","offset":0,"slot":"0","type":"t_uint8"},{"astId":588,"contract":"contracts/ReferralV2Upgradeable.sol:ReferralV2Upgradeable","label":"_initializing","offset":1,"slot":"0","type":"t_bool"},{"astId":2578,"contract":"contracts/ReferralV2Upgradeable.sol:ReferralV2Upgradeable","label":"__gap","offset":0,"slot":"1","type":"t_array(t_uint256)50_storage"},{"astId":10,"contract":"contracts/ReferralV2Upgradeable.sol:ReferralV2Upgradeable","label":"_owner","offset":0,"slot":"51","type":"t_address"},{"astId":130,"contract":"contracts/ReferralV2Upgradeable.sol:ReferralV2Upgradeable","label":"__gap","offset":0,"slot":"52","type":"t_array(t_uint256)49_storage"},{"astId":567,"contract":"contracts/ReferralV2Upgradeable.sol:ReferralV2Upgradeable","label":"__gap","offset":0,"slot":"101","type":"t_array(t_uint256)50_storage"},{"astId":882,"contract":"contracts/ReferralV2Upgradeable.sol:ReferralV2Upgradeable","label":"__gap","offset":0,"slot":"151","type":"t_array(t_uint256)50_storage"},{"astId":4509,"contract":"contracts/ReferralV2Upgradeable.sol:ReferralV2Upgradeable","label":"_priceOracleContract","offset":0,"slot":"201","type":"t_address"},{"astId":4512,"contract":"contracts/ReferralV2Upgradeable.sol:ReferralV2Upgradeable","label":"levelRates","offset":0,"slot":"202","type":"t_array(t_uint16)dyn_storage"},{"astId":4514,"contract":"contracts/ReferralV2Upgradeable.sol:ReferralV2Upgradeable","label":"decimals","offset":0,"slot":"203","type":"t_uint16"},{"astId":4516,"contract":"contracts/ReferralV2Upgradeable.sol:ReferralV2Upgradeable","label":"maxLevelsCount","offset":2,"slot":"203","type":"t_uint8"},{"astId":4518,"contract":"contracts/ReferralV2Upgradeable.sol:ReferralV2Upgradeable","label":"minContributionInUSD","offset":0,"slot":"204","type":"t_uint256"},{"astId":4520,"contract":"contracts/ReferralV2Upgradeable.sol:ReferralV2Upgradeable","label":"totalRoyaltyClubBonusPaidUSD","offset":0,"slot":"205","type":"t_uint256"},{"astId":4522,"contract":"contracts/ReferralV2Upgradeable.sol:ReferralV2Upgradeable","label":"totalRoyaltyClubBonusPaidETH","offset":0,"slot":"206","type":"t_uint256"},{"astId":4524,"contract":"contracts/ReferralV2Upgradeable.sol:ReferralV2Upgradeable","label":"totalUsers","offset":0,"slot":"207","type":"t_uint32"},{"astId":4526,"contract":"contracts/ReferralV2Upgradeable.sol:ReferralV2Upgradeable","label":"totalIDs","offset":4,"slot":"207","type":"t_uint32"},{"astId":4528,"contract":"contracts/ReferralV2Upgradeable.sol:ReferralV2Upgradeable","label":"totalROIIDs","offset":8,"slot":"207","type":"t_uint32"},{"astId":4530,"contract":"contracts/ReferralV2Upgradeable.sol:ReferralV2Upgradeable","label":"_roiRate","offset":12,"slot":"207","type":"t_uint16"},{"astId":4532,"contract":"contracts/ReferralV2Upgradeable.sol:ReferralV2Upgradeable","label":"_roiDuration","offset":0,"slot":"208","type":"t_uint256"},{"astId":4534,"contract":"contracts/ReferralV2Upgradeable.sol:ReferralV2Upgradeable","label":"_roiClaimTimelimit","offset":0,"slot":"209","type":"t_uint256"},{"astId":4536,"contract":"contracts/ReferralV2Upgradeable.sol:ReferralV2Upgradeable","label":"isPayROI","offset":0,"slot":"210","type":"t_bool"},{"astId":4538,"contract":"contracts/ReferralV2Upgradeable.sol:ReferralV2Upgradeable","label":"isPayRoyaltyClubBonus","offset":1,"slot":"210","type":"t_bool"},{"astId":4540,"contract":"contracts/ReferralV2Upgradeable.sol:ReferralV2Upgradeable","label":"royaltyClubPackageCount","offset":2,"slot":"210","type":"t_uint8"},{"astId":4542,"contract":"contracts/ReferralV2Upgradeable.sol:ReferralV2Upgradeable","label":"_userLevelUnlockMultiplier","offset":3,"slot":"210","type":"t_uint8"},{"astId":4544,"contract":"contracts/ReferralV2Upgradeable.sol:ReferralV2Upgradeable","label":"companyTurnoverWithTimeLimit","offset":0,"slot":"211","type":"t_uint256"},{"astId":4546,"contract":"contracts/ReferralV2Upgradeable.sol:ReferralV2Upgradeable","label":"companyTurnoverTimeStamp","offset":0,"slot":"212","type":"t_uint256"},{"astId":4548,"contract":"contracts/ReferralV2Upgradeable.sol:ReferralV2Upgradeable","label":"companyTurnoverTimeLimit","offset":0,"slot":"213","type":"t_uint256"},{"astId":4551,"contract":"contracts/ReferralV2Upgradeable.sol:ReferralV2Upgradeable","label":"_disabledUsersList","offset":0,"slot":"214","type":"t_array(t_address)dyn_storage"},{"astId":4660,"contract":"contracts/ReferralV2Upgradeable.sol:ReferralV2Upgradeable","label":"packagesCount","offset":0,"slot":"215","type":"t_uint8"},{"astId":4665,"contract":"contracts/ReferralV2Upgradeable.sol:ReferralV2Upgradeable","label":"accounts","offset":0,"slot":"216","type":"t_mapping(t_address,t_struct(StructAccount)4557_storage)"},{"astId":4670,"contract":"contracts/ReferralV2Upgradeable.sol:ReferralV2Upgradeable","label":"ids","offset":0,"slot":"217","type":"t_mapping(t_uint32,t_struct(StructID)4619_storage)"},{"astId":4675,"contract":"contracts/ReferralV2Upgradeable.sol:ReferralV2Upgradeable","label":"rois","offset":0,"slot":"218","type":"t_mapping(t_uint32,t_struct(StructROI)4634_storage)"},{"astId":4680,"contract":"contracts/ReferralV2Upgradeable.sol:ReferralV2Upgradeable","label":"packages","offset":0,"slot":"219","type":"t_mapping(t_uint8,t_struct(StructPackages)4658_storage)"}],"types":{"t_address":{"encoding":"inplace","label":"address","numberOfBytes":"20"},"t_array(t_address)dyn_storage":{"base":"t_address","encoding":"dynamic_array","label":"address[]","numberOfBytes":"32"},"t_array(t_uint16)dyn_storage":{"base":"t_uint16","encoding":"dynamic_array","label":"uint16[]","numberOfBytes":"32"},"t_array(t_uint256)49_storage":{"base":"t_uint256","encoding":"inplace","label":"uint256[49]","numberOfBytes":"1568"},"t_array(t_uint256)50_storage":{"base":"t_uint256","encoding":"inplace","label":"uint256[50]","numberOfBytes":"1600"},"t_array(t_uint32)dyn_storage":{"base":"t_uint32","encoding":"dynamic_array","label":"uint32[]","numberOfBytes":"32"},"t_bool":{"encoding":"inplace","label":"bool","numberOfBytes":"1"},"t_mapping(t_address,t_struct(StructAccount)4557_storage)":{"encoding":"mapping","key":"t_address","label":"mapping(address => struct ReferralV2Upgradeable.StructAccount)","numberOfBytes":"32","value":"t_struct(StructAccount)4557_storage"},"t_mapping(t_uint32,t_struct(StructID)4619_storage)":{"encoding":"mapping","key":"t_uint32","label":"mapping(uint32 => struct ReferralV2Upgradeable.StructID)","numberOfBytes":"32","value":"t_struct(StructID)4619_storage"},"t_mapping(t_uint32,t_struct(StructROI)4634_storage)":{"encoding":"mapping","key":"t_uint32","label":"mapping(uint32 => struct ReferralV2Upgradeable.StructROI)","numberOfBytes":"32","value":"t_struct(StructROI)4634_storage"},"t_mapping(t_uint8,t_struct(StructPackages)4658_storage)":{"encoding":"mapping","key":"t_uint8","label":"mapping(uint8 => struct ReferralV2Upgradeable.StructPackages)","numberOfBytes":"32","value":"t_struct(StructPackages)4658_storage"},"t_string_storage":{"encoding":"bytes","label":"string","numberOfBytes":"32"},"t_struct(StructAccount)4557_storage":{"encoding":"inplace","label":"struct ReferralV2Upgradeable.StructAccount","members":[{"astId":4553,"contract":"contracts/ReferralV2Upgradeable.sol:ReferralV2Upgradeable","label":"isDisabled","offset":0,"slot":"0","type":"t_bool"},{"astId":4556,"contract":"contracts/ReferralV2Upgradeable.sol:ReferralV2Upgradeable","label":"accountIDs","offset":0,"slot":"1","type":"t_array(t_uint32)dyn_storage"}],"numberOfBytes":"64"},"t_struct(StructID)4619_storage":{"encoding":"inplace","label":"struct ReferralV2Upgradeable.StructID","members":[{"astId":4559,"contract":"contracts/ReferralV2Upgradeable.sol:ReferralV2Upgradeable","label":"id","offset":0,"slot":"0","type":"t_uint32"},{"astId":4561,"contract":"contracts/ReferralV2Upgradeable.sol:ReferralV2Upgradeable","label":"oldID","offset":0,"slot":"1","type":"t_string_storage"},{"astId":4563,"contract":"contracts/ReferralV2Upgradeable.sol:ReferralV2Upgradeable","label":"isDisabled","offset":0,"slot":"2","type":"t_bool"},{"astId":4565,"contract":"contracts/ReferralV2Upgradeable.sol:ReferralV2Upgradeable","label":"owner","offset":1,"slot":"2","type":"t_address"},{"astId":4567,"contract":"contracts/ReferralV2Upgradeable.sol:ReferralV2Upgradeable","label":"joiningTime","offset":0,"slot":"3","type":"t_uint256"},{"astId":4569,"contract":"contracts/ReferralV2Upgradeable.sol:ReferralV2Upgradeable","label":"activationTime","offset":0,"slot":"4","type":"t_uint256"},{"astId":4571,"contract":"contracts/ReferralV2Upgradeable.sol:ReferralV2Upgradeable","label":"deactivateTime","offset":0,"slot":"5","type":"t_uint256"},{"astId":4574,"contract":"contracts/ReferralV2Upgradeable.sol:ReferralV2Upgradeable","label":"roiIDs","offset":0,"slot":"6","type":"t_array(t_uint32)dyn_storage"},{"astId":4576,"contract":"contracts/ReferralV2Upgradeable.sol:ReferralV2Upgradeable","label":"refererID","offset":0,"slot":"7","type":"t_uint32"},{"astId":4579,"contract":"contracts/ReferralV2Upgradeable.sol:ReferralV2Upgradeable","label":"refereeIDs","offset":0,"slot":"8","type":"t_array(t_uint32)dyn_storage"},{"astId":4582,"contract":"contracts/ReferralV2Upgradeable.sol:ReferralV2Upgradeable","label":"teamIDs","offset":0,"slot":"9","type":"t_array(t_uint32)dyn_storage"},{"astId":4584,"contract":"contracts/ReferralV2Upgradeable.sol:ReferralV2Upgradeable","label":"selfBusinessUSD","offset":0,"slot":"10","type":"t_uint256"},{"astId":4586,"contract":"contracts/ReferralV2Upgradeable.sol:ReferralV2Upgradeable","label":"selfBusinessUSDOld","offset":0,"slot":"11","type":"t_uint256"},{"astId":4588,"contract":"contracts/ReferralV2Upgradeable.sol:ReferralV2Upgradeable","label":"directBusinessUSD","offset":0,"slot":"12","type":"t_uint256"},{"astId":4590,"contract":"contracts/ReferralV2Upgradeable.sol:ReferralV2Upgradeable","label":"directBusinessUSDOld","offset":0,"slot":"13","type":"t_uint256"},{"astId":4592,"contract":"contracts/ReferralV2Upgradeable.sol:ReferralV2Upgradeable","label":"teamBusinessUSD","offset":0,"slot":"14","type":"t_uint256"},{"astId":4594,"contract":"contracts/ReferralV2Upgradeable.sol:ReferralV2Upgradeable","label":"teamBusinessUSDOld","offset":0,"slot":"15","type":"t_uint256"},{"astId":4596,"contract":"contracts/ReferralV2Upgradeable.sol:ReferralV2Upgradeable","label":"royaltyClubBusinessUSD","offset":0,"slot":"16","type":"t_uint256"},{"astId":4598,"contract":"contracts/ReferralV2Upgradeable.sol:ReferralV2Upgradeable","label":"timeStampRoyaltyClub","offset":0,"slot":"17","type":"t_uint256"},{"astId":4600,"contract":"contracts/ReferralV2Upgradeable.sol:ReferralV2Upgradeable","label":"royaltyClubPackageID","offset":0,"slot":"18","type":"t_uint8"},{"astId":4602,"contract":"contracts/ReferralV2Upgradeable.sol:ReferralV2Upgradeable","label":"royaltyClubListIndex","offset":0,"slot":"19","type":"t_uint256"},{"astId":4604,"contract":"contracts/ReferralV2Upgradeable.sol:ReferralV2Upgradeable","label":"referralPaidUSD","offset":0,"slot":"20","type":"t_uint256"},{"astId":4606,"contract":"contracts/ReferralV2Upgradeable.sol:ReferralV2Upgradeable","label":"rewardPaidRoyaltyClubUSD","offset":0,"slot":"21","type":"t_uint256"},{"astId":4608,"contract":"contracts/ReferralV2Upgradeable.sol:ReferralV2Upgradeable","label":"topUpUSD","offset":0,"slot":"22","type":"t_uint256"},{"astId":4610,"contract":"contracts/ReferralV2Upgradeable.sol:ReferralV2Upgradeable","label":"balanceClaimedUSD","offset":0,"slot":"23","type":"t_uint256"},{"astId":4612,"contract":"contracts/ReferralV2Upgradeable.sol:ReferralV2Upgradeable","label":"limitBalanceUSD","offset":0,"slot":"24","type":"t_uint256"},{"astId":4614,"contract":"contracts/ReferralV2Upgradeable.sol:ReferralV2Upgradeable","label":"maxLimitAmount","offset":0,"slot":"25","type":"t_uint256"},{"astId":4616,"contract":"contracts/ReferralV2Upgradeable.sol:ReferralV2Upgradeable","label":"roiClaimedUSD","offset":0,"slot":"26","type":"t_uint256"},{"astId":4618,"contract":"contracts/ReferralV2Upgradeable.sol:ReferralV2Upgradeable","label":"roiClaimTimestamp","offset":0,"slot":"27","type":"t_uint256"}],"numberOfBytes":"896"},"t_struct(StructPackages)4658_storage":{"encoding":"inplace","label":"struct ReferralV2Upgradeable.StructPackages","members":[{"astId":4636,"contract":"contracts/ReferralV2Upgradeable.sol:ReferralV2Upgradeable","label":"packageID","offset":0,"slot":"0","type":"t_uint8"},{"astId":4638,"contract":"contracts/ReferralV2Upgradeable.sol:ReferralV2Upgradeable","label":"selfBusinessUSD","offset":0,"slot":"1","type":"t_uint256"},{"astId":4640,"contract":"contracts/ReferralV2Upgradeable.sol:ReferralV2Upgradeable","label":"directBusinessUSD","offset":0,"slot":"2","type":"t_uint256"},{"astId":4642,"contract":"contracts/ReferralV2Upgradeable.sol:ReferralV2Upgradeable","label":"teamBusinessUSD","offset":0,"slot":"3","type":"t_uint256"},{"astId":4644,"contract":"contracts/ReferralV2Upgradeable.sol:ReferralV2Upgradeable","label":"rankName","offset":0,"slot":"4","type":"t_string_storage"},{"astId":4646,"contract":"contracts/ReferralV2Upgradeable.sol:ReferralV2Upgradeable","label":"reward","offset":0,"slot":"5","type":"t_uint256"},{"astId":4648,"contract":"contracts/ReferralV2Upgradeable.sol:ReferralV2Upgradeable","label":"businessLimit","offset":0,"slot":"6","type":"t_uint256"},{"astId":4650,"contract":"contracts/ReferralV2Upgradeable.sol:ReferralV2Upgradeable","label":"timeLimit","offset":0,"slot":"7","type":"t_uint256"},{"astId":4652,"contract":"contracts/ReferralV2Upgradeable.sol:ReferralV2Upgradeable","label":"isOneTimeRewardPaid","offset":0,"slot":"8","type":"t_bool"},{"astId":4654,"contract":"contracts/ReferralV2Upgradeable.sol:ReferralV2Upgradeable","label":"isPayReccursive","offset":1,"slot":"8","type":"t_bool"},{"astId":4657,"contract":"contracts/ReferralV2Upgradeable.sol:ReferralV2Upgradeable","label":"achieversList","offset":0,"slot":"9","type":"t_array(t_uint32)dyn_storage"}],"numberOfBytes":"320"},"t_struct(StructROI)4634_storage":{"encoding":"inplace","label":"struct ReferralV2Upgradeable.StructROI","members":[{"astId":4621,"contract":"contracts/ReferralV2Upgradeable.sol:ReferralV2Upgradeable","label":"isActive","offset":0,"slot":"0","type":"t_bool"},{"astId":4623,"contract":"contracts/ReferralV2Upgradeable.sol:ReferralV2Upgradeable","label":"ownerID","offset":1,"slot":"0","type":"t_uint32"},{"astId":4625,"contract":"contracts/ReferralV2Upgradeable.sol:ReferralV2Upgradeable","label":"valueInUSD","offset":0,"slot":"1","type":"t_uint256"},{"astId":4627,"contract":"contracts/ReferralV2Upgradeable.sol:ReferralV2Upgradeable","label":"roiRate","offset":0,"slot":"2","type":"t_uint16"},{"astId":4629,"contract":"contracts/ReferralV2Upgradeable.sol:ReferralV2Upgradeable","label":"startTime","offset":0,"slot":"3","type":"t_uint256"},{"astId":4631,"contract":"contracts/ReferralV2Upgradeable.sol:ReferralV2Upgradeable","label":"duration","offset":0,"slot":"4","type":"t_uint256"},{"astId":4633,"contract":"contracts/ReferralV2Upgradeable.sol:ReferralV2Upgradeable","label":"roiClaimed","offset":0,"slot":"5","type":"t_uint256"}],"numberOfBytes":"192"},"t_uint16":{"encoding":"inplace","label":"uint16","numberOfBytes":"2"},"t_uint256":{"encoding":"inplace","label":"uint256","numberOfBytes":"32"},"t_uint32":{"encoding":"inplace","label":"uint32","numberOfBytes":"4"},"t_uint8":{"encoding":"inplace","label":"uint8","numberOfBytes":"1"}}}}}}