{"contracts/ReferralV4Upgradeable.sol":{"ReferralV4Upgradeable":{"abi":[{"anonymous":false,"inputs":[{"indexed":false,"internalType":"uint32","name":"id","type":"uint32"}],"name":"ActivatedId","type":"event"},{"anonymous":false,"inputs":[{"indexed":false,"internalType":"uint32","name":"id","type":"uint32"},{"indexed":false,"internalType":"uint32","name":"index","type":"uint32"},{"indexed":false,"internalType":"uint8","name":"rank","type":"uint8"}],"name":"AddedInRoyaltyClubList","type":"event"},{"anonymous":false,"inputs":[{"indexed":false,"internalType":"address","name":"previousAdmin","type":"address"},{"indexed":false,"internalType":"address","name":"newAdmin","type":"address"}],"name":"AdminChanged","type":"event"},{"anonymous":false,"inputs":[{"indexed":true,"internalType":"address","name":"beacon","type":"address"}],"name":"BeaconUpgraded","type":"event"},{"anonymous":false,"inputs":[{"indexed":false,"internalType":"uint32","name":"id","type":"uint32"},{"indexed":false,"internalType":"string","name":"reason","type":"string"}],"name":"DeactivatedId","type":"event"},{"anonymous":false,"inputs":[{"indexed":false,"internalType":"uint8","name":"version","type":"uint8"}],"name":"Initialized","type":"event"},{"anonymous":false,"inputs":[{"indexed":false,"internalType":"uint32","name":"id","type":"uint32"},{"indexed":false,"internalType":"address","name":"owner","type":"address"}],"name":"OwnerChangedId","type":"event"},{"anonymous":false,"inputs":[{"indexed":true,"internalType":"address","name":"previousOwner","type":"address"},{"indexed":true,"internalType":"address","name":"newOwner","type":"address"}],"name":"OwnershipTransferred","type":"event"},{"anonymous":false,"inputs":[{"indexed":false,"internalType":"uint8","name":"packageId","type":"uint8"}],"name":"PackageAdded","type":"event"},{"anonymous":false,"inputs":[{"indexed":false,"internalType":"uint8","name":"packageId","type":"uint8"}],"name":"PackageRemoved","type":"event"},{"anonymous":false,"inputs":[{"indexed":false,"internalType":"uint8","name":"packageId","type":"uint8"}],"name":"PackageUpdated","type":"event"},{"anonymous":false,"inputs":[{"indexed":true,"internalType":"uint32","name":"refererId","type":"uint32"},{"indexed":true,"internalType":"uint8","name":"level","type":"uint8"},{"indexed":true,"internalType":"string","name":"reason","type":"string"}],"name":"ReferralNotPaid","type":"event"},{"anonymous":false,"inputs":[{"indexed":true,"internalType":"uint32","name":"refereeId","type":"uint32"},{"indexed":true,"internalType":"uint32","name":"referrerId","type":"uint32"},{"indexed":true,"internalType":"uint256","name":"amount","type":"uint256"},{"indexed":false,"internalType":"uint8","name":"level","type":"uint8"}],"name":"ReferralRewardPaid","type":"event"},{"anonymous":false,"inputs":[{"indexed":true,"internalType":"address","name":"refereeId","type":"address"},{"indexed":true,"internalType":"address","name":"referrerId","type":"address"},{"indexed":true,"internalType":"string","name":"reason","type":"string"}],"name":"RegisterRefererFailed","type":"event"},{"anonymous":false,"inputs":[{"indexed":true,"internalType":"uint32","name":"id","type":"uint32"},{"indexed":true,"internalType":"uint32","name":"refererId","type":"uint32"}],"name":"RegisteredReferer","type":"event"},{"anonymous":false,"inputs":[{"indexed":true,"internalType":"uint32","name":"refereeId","type":"uint32"},{"indexed":true,"internalType":"uint32","name":"referrerId","type":"uint32"},{"indexed":true,"internalType":"uint32","name":"parentAccountId","type":"uint32"}],"name":"RegisteredTeamAddress","type":"event"},{"anonymous":false,"inputs":[{"indexed":true,"internalType":"uint32","name":"userid","type":"uint32"},{"indexed":true,"internalType":"uint8","name":"packageId","type":"uint8"},{"indexed":true,"internalType":"uint256","name":"amount","type":"uint256"}],"name":"RoyaltyClubBonusPaid","type":"event"},{"anonymous":false,"inputs":[{"indexed":true,"internalType":"address","name":"implementation","type":"address"}],"name":"Upgraded","type":"event"},{"inputs":[{"internalType":"uint32","name":"_refererId","type":"uint32"}],"name":"activateId","outputs":[],"stateMutability":"payable","type":"function"},{"inputs":[{"internalType":"address","name":"_userAddress","type":"address"},{"internalType":"uint32","name":"_refererId","type":"uint32"},{"internalType":"uint256","name":"_valueInUSD","type":"uint256"},{"internalType":"uint256","name":"_activationTime","type":"uint256"},{"internalType":"uint256","name":"_roiStartTime","type":"uint256"},{"internalType":"uint256","name":"_roiResetTime","type":"uint256"},{"internalType":"uint256","name":"_roiDurationInDays","type":"uint256"}],"name":"activateIdAdmin","outputs":[],"stateMutability":"nonpayable","type":"function"},{"inputs":[{"internalType":"uint32","name":"_id","type":"uint32"}],"name":"claimBalance","outputs":[],"stateMutability":"nonpayable","type":"function"},{"inputs":[],"name":"companyTurnoverTimeLimit","outputs":[{"internalType":"uint256","name":"","type":"uint256"}],"stateMutability":"view","type":"function"},{"inputs":[],"name":"companyTurnoverTimeStamp","outputs":[{"internalType":"uint256","name":"","type":"uint256"}],"stateMutability":"view","type":"function"},{"inputs":[],"name":"companyTurnoverWithTimeLimit","outputs":[{"internalType":"uint256","name":"","type":"uint256"}],"stateMutability":"view","type":"function"},{"inputs":[],"name":"decimals","outputs":[{"internalType":"uint16","name":"","type":"uint16"}],"stateMutability":"view","type":"function"},{"inputs":[{"internalType":"uint256","name":"","type":"uint256"}],"name":"disabledUsersList","outputs":[{"internalType":"address","name":"","type":"address"}],"stateMutability":"view","type":"function"},{"inputs":[],"name":"futureScureWalletContribution","outputs":[{"internalType":"uint8","name":"","type":"uint8"}],"stateMutability":"view","type":"function"},{"inputs":[{"internalType":"uint8","name":"_packageId","type":"uint8"}],"name":"getAchieversList","outputs":[{"internalType":"uint32[]","name":"","type":"uint32[]"}],"stateMutability":"view","type":"function"},{"inputs":[{"internalType":"uint32","name":"_id","type":"uint32"}],"name":"getIdAccount","outputs":[{"components":[{"internalType":"uint32","name":"id","type":"uint32"},{"internalType":"string","name":"oldId","type":"string"},{"internalType":"uint256","name":"joiningTime","type":"uint256"},{"internalType":"bool","name":"isAddedToUserList","type":"bool"},{"internalType":"address","name":"owner","type":"address"},{"internalType":"uint32","name":"refererId","type":"uint32"},{"internalType":"bool","name":"hasUpline","type":"bool"},{"internalType":"uint32[]","name":"refereeIds","type":"uint32[]"},{"internalType":"uint32[]","name":"teamIds","type":"uint32[]"},{"internalType":"uint32[]","name":"teamLevel","type":"uint32[]"},{"internalType":"uint256[]","name":"selfBusinessArray","type":"uint256[]"},{"internalType":"uint256","name":"selfBusiness","type":"uint256"},{"internalType":"uint256","name":"selfBusinessOld","type":"uint256"},{"internalType":"uint256","name":"directBusiness","type":"uint256"},{"internalType":"uint256","name":"directBusinessOld","type":"uint256"},{"internalType":"uint256","name":"teamBusiness","type":"uint256"},{"internalType":"uint256","name":"teamBusinessOld","type":"uint256"},{"internalType":"uint256","name":"royaltyClubBusiness","type":"uint256"},{"internalType":"uint256","name":"timeStampRoyaltyClub","type":"uint256"},{"internalType":"uint8","name":"royaltyClubPackageId","type":"uint8"},{"internalType":"uint32","name":"royaltyClubListIndex","type":"uint32"},{"internalType":"uint256","name":"royaltyClubRewardPaid","type":"uint256"},{"internalType":"uint256","name":"topUpIncome","type":"uint256"},{"internalType":"uint256","name":"topUp","type":"uint256"},{"internalType":"uint256","name":"maxLimit","type":"uint256"},{"internalType":"uint256","name":"activationTime","type":"uint256"},{"internalType":"uint256","name":"deactivationTime","type":"uint256"},{"internalType":"uint256","name":"referralPaid","type":"uint256"},{"internalType":"uint32[]","name":"roiIds","type":"uint32[]"},{"internalType":"uint256","name":"roiPaid","type":"uint256"},{"internalType":"uint256","name":"roiClaimedTime","type":"uint256"},{"internalType":"uint256","name":"walletBalance","type":"uint256"},{"internalType":"bool","name":"isActive","type":"bool"},{"internalType":"bool","name":"isROIDisabled","type":"bool"},{"internalType":"bool","name":"isIdVisibilityDisabled","type":"bool"},{"internalType":"bool","name":"canWindraw","type":"bool"}],"internalType":"struct ReferralV4Upgradeable.StructId","name":"","type":"tuple"}],"stateMutability":"view","type":"function"},{"inputs":[{"internalType":"uint32","name":"_id","type":"uint32"}],"name":"getIdLimits","outputs":[{"internalType":"uint256","name":"topUpIncome","type":"uint256"},{"internalType":"uint256","name":"topUp","type":"uint256"},{"internalType":"uint256","name":"maxLimit","type":"uint256"}],"stateMutability":"view","type":"function"},{"inputs":[],"name":"getMinContributionETH","outputs":[{"internalType":"uint256","name":"","type":"uint256"}],"stateMutability":"view","type":"function"},{"inputs":[{"internalType":"uint8","name":"_packageId","type":"uint8"}],"name":"getRoyaltyClubPackageInfo","outputs":[{"components":[{"internalType":"uint8","name":"packageId","type":"uint8"},{"internalType":"uint256","name":"selfBusiness","type":"uint256"},{"internalType":"uint256","name":"directBusiness","type":"uint256"},{"internalType":"uint256","name":"teamBusiness","type":"uint256"},{"internalType":"string","name":"rankName","type":"string"},{"internalType":"uint256","name":"reward","type":"uint256"},{"internalType":"uint256","name":"businessLimit","type":"uint256"},{"internalType":"uint256","name":"timeLimit","type":"uint256"},{"internalType":"bool","name":"isPayReccursive","type":"bool"},{"internalType":"uint32[]","name":"achieversList","type":"uint32[]"}],"internalType":"struct ReferralV4Upgradeable.StructPackages","name":"","type":"tuple"}],"stateMutability":"view","type":"function"},{"inputs":[{"internalType":"address","name":"_address","type":"address"}],"name":"getUserAccount","outputs":[{"components":[{"internalType":"bool","name":"isActive","type":"bool"},{"internalType":"uint32[]","name":"accountIds","type":"uint32[]"},{"internalType":"string","name":"userName","type":"string"}],"internalType":"struct ReferralV4Upgradeable.StructAccount","name":"","type":"tuple"}],"stateMutability":"view","type":"function"},{"inputs":[{"internalType":"uint32","name":"_id","type":"uint32"},{"internalType":"uint256","name":"_value","type":"uint256"}],"name":"increaseIdTopIncome","outputs":[],"stateMutability":"nonpayable","type":"function"},{"inputs":[],"name":"initialize","outputs":[],"stateMutability":"nonpayable","type":"function"},{"inputs":[],"name":"isActivateROI","outputs":[{"internalType":"bool","name":"","type":"bool"}],"stateMutability":"view","type":"function"},{"inputs":[],"name":"isPayReferral","outputs":[{"internalType":"bool","name":"","type":"bool"}],"stateMutability":"view","type":"function"},{"inputs":[],"name":"isPayRoyaltyClubBonus","outputs":[{"internalType":"bool","name":"","type":"bool"}],"stateMutability":"view","type":"function"},{"inputs":[{"internalType":"uint256","name":"","type":"uint256"}],"name":"levelRates","outputs":[{"internalType":"uint16","name":"","type":"uint16"}],"stateMutability":"view","type":"function"},{"inputs":[],"name":"maxLevels","outputs":[{"internalType":"uint8","name":"","type":"uint8"}],"stateMutability":"view","type":"function"},{"inputs":[],"name":"minContributionUSD","outputs":[{"internalType":"uint256","name":"","type":"uint256"}],"stateMutability":"view","type":"function"},{"inputs":[],"name":"owner","outputs":[{"internalType":"address","name":"","type":"address"}],"stateMutability":"view","type":"function"},{"inputs":[],"name":"packagesCount","outputs":[{"internalType":"uint8","name":"","type":"uint8"}],"stateMutability":"view","type":"function"},{"inputs":[{"internalType":"uint256","name":"_value","type":"uint256"},{"internalType":"uint32","name":"_id","type":"uint32"}],"name":"payReferralAdmin","outputs":[],"stateMutability":"nonpayable","type":"function"},{"inputs":[],"name":"proxiableUUID","outputs":[{"internalType":"bytes32","name":"","type":"bytes32"}],"stateMutability":"view","type":"function"},{"inputs":[],"name":"renounceOwnership","outputs":[],"stateMutability":"nonpayable","type":"function"},{"inputs":[],"name":"royaltyClubPackageCount","outputs":[{"internalType":"uint8","name":"","type":"uint8"}],"stateMutability":"view","type":"function"},{"inputs":[{"internalType":"address","name":"_address","type":"address"},{"internalType":"uint256","name":"_value","type":"uint256"}],"name":"sendETHAdmin","outputs":[],"stateMutability":"nonpayable","type":"function"},{"inputs":[{"internalType":"uint32[]","name":"_id","type":"uint32[]"},{"internalType":"address[]","name":"_userAddress","type":"address[]"}],"name":"setIdOwnerAddressAdmin","outputs":[],"stateMutability":"nonpayable","type":"function"},{"inputs":[{"internalType":"uint32[]","name":"_id","type":"uint32[]"},{"internalType":"bool[]","name":"_trueOrFalse","type":"bool[]"}],"name":"setIdStatusAdmin","outputs":[],"stateMutability":"nonpayable","type":"function"},{"inputs":[{"internalType":"uint16","name":"_value","type":"uint16"}],"name":"setLevelDecimals","outputs":[],"stateMutability":"nonpayable","type":"function"},{"inputs":[{"internalType":"uint8[]","name":"_value","type":"uint8[]"}],"name":"setLevelRates","outputs":[],"stateMutability":"nonpayable","type":"function"},{"inputs":[{"internalType":"uint8","name":"_valueDecimals","type":"uint8"}],"name":"setMaxLevelsAdmin","outputs":[],"stateMutability":"nonpayable","type":"function"},{"inputs":[{"internalType":"uint256","name":"_valueInUSD","type":"uint256"}],"name":"setMinContribution","outputs":[],"stateMutability":"nonpayable","type":"function"},{"inputs":[{"internalType":"address[]","name":"_userAddress","type":"address[]"},{"internalType":"bool[]","name":"_trueOrFalse","type":"bool[]"}],"name":"setVisibilityOfAddressAdmin","outputs":[],"stateMutability":"nonpayable","type":"function"},{"inputs":[{"internalType":"uint32[]","name":"_id","type":"uint32[]"},{"internalType":"bool[]","name":"_trueOrFalse","type":"bool[]"}],"name":"setWithdrawalStatusAdmin","outputs":[],"stateMutability":"nonpayable","type":"function"},{"inputs":[{"internalType":"uint32","name":"_id","type":"uint32"}],"name":"topUpId","outputs":[],"stateMutability":"payable","type":"function"},{"inputs":[],"name":"totalIds","outputs":[{"internalType":"uint32","name":"","type":"uint32"}],"stateMutability":"view","type":"function"},{"inputs":[],"name":"totalReferralPaid","outputs":[{"internalType":"uint256","name":"","type":"uint256"}],"stateMutability":"view","type":"function"},{"inputs":[],"name":"totalRoyaltyClubBonusPaid","outputs":[{"internalType":"uint256","name":"","type":"uint256"}],"stateMutability":"view","type":"function"},{"inputs":[{"internalType":"address","name":"newOwner","type":"address"}],"name":"transferOwnership","outputs":[],"stateMutability":"nonpayable","type":"function"},{"inputs":[{"internalType":"uint32","name":"_id","type":"uint32"},{"internalType":"uint256","name":"_value","type":"uint256"}],"name":"updateIdWhenClaimROI","outputs":[],"stateMutability":"nonpayable","type":"function"},{"inputs":[{"internalType":"address","name":"newImplementation","type":"address"}],"name":"upgradeTo","outputs":[],"stateMutability":"nonpayable","type":"function"},{"inputs":[{"internalType":"address","name":"newImplementation","type":"address"},{"internalType":"bytes","name":"data","type":"bytes"}],"name":"upgradeToAndCall","outputs":[],"stateMutability":"payable","type":"function"},{"inputs":[{"internalType":"uint256","name":"","type":"uint256"}],"name":"users","outputs":[{"internalType":"address","name":"","type":"address"}],"stateMutability":"view","type":"function"},{"inputs":[],"name":"withdrawETHAdmin","outputs":[],"stateMutability":"nonpayable","type":"function"},{"inputs":[{"internalType":"address","name":"_tokenAddress","type":"address"},{"internalType":"uint256","name":"_value","type":"uint256"}],"name":"withdrawTokensAdmin","outputs":[],"stateMutability":"nonpayable","type":"function"},{"stateMutability":"payable","type":"receive"}],"evm":{"bytecode":{"linkReferences":{},"object":"60a06040523060805234801561001457600080fd5b50608051615c1f6200004d60003960008181611368015281816113a8015281816119f701528181611a370152611b8e0152615c1f6000f3fe6080604052600436106102b25760003560e01c80637084431f116101755780638f84de85116100dc578063bcb93f9b11610095578063f2fde38b1161006f578063f2fde38b1461087e578063f41bfeef1461089e578063fafc9597146108b4578063fb47e016146108d657600080fd5b8063bcb93f9b1461082b578063cd21364d1461083e578063e1c715ba1461085e57600080fd5b80638f84de851461077f5780638f8d209014610795578063a0b6105f146107b5578063a152b0f0146107d5578063a28a3686146107e8578063a43ae4081461080b57600080fd5b80637cf97c8c1161012e5780637cf97c8c146106dc5780638129fc1c146106fc578063852ff2fd1461071157806386851e0c146107275780638af925dc146107475780638da5cb5b1461076157600080fd5b80637084431f14610615578063715018a614610644578063721d343f146106595780637879b5ef146106795780637bdbf996146106995780637c599486146106c657600080fd5b8063365b98b2116102195780634f1ef286116101d25780634f1ef2861461056d578063509d6c521461058057806352d1902d146105a05780636ccc10ae146105b55780636de3a95c146105d55780636f38e410146105f557600080fd5b8063365b98b214610480578063390a5ba5146104a05780633eff2def146104d2578063473b0d46146104f2578063498b3e55146105125780634e6e93a31461053257600080fd5b806322f88b521161026b57806322f88b52146103d15780632ed421d2146103e7578063300825b5146103fd578063313ce5671461041d578063357597881461044b5780633659cfe61461046057600080fd5b8063012da720146102be5780630b243dad146102f45780631319cff91461031657806318e10bff1461034e5780631f9e65e41461038157806321009789146103a457600080fd5b366102b957005b600080fd5b3480156102ca57600080fd5b506102de6102d9366004615067565b610903565b6040516102eb919061508a565b60405180910390f35b34801561030057600080fd5b5061031461030f3660046150e9565b610998565b005b34801561032257600080fd5b50610336610331366004615115565b6109db565b6040516001600160a01b0390911681526020016102eb565b34801561035a57600080fd5b5060d55461036f906301000000900460ff1681565b60405160ff90911681526020016102eb565b34801561038d57600080fd5b50610396610a05565b6040519081526020016102eb565b3480156103b057600080fd5b506103c46103bf366004615140565b610a17565b6040516102eb919061521e565b3480156103dd57600080fd5b5061039660d05481565b3480156103f357600080fd5b5061039660d15481565b34801561040957600080fd5b50610314610418366004615140565b610ff8565b34801561042957600080fd5b5060cb546104389061ffff1681565b60405161ffff90911681526020016102eb565b34801561045757600080fd5b50610314611327565b34801561046c57600080fd5b5061031461047b3660046154b6565b61135e565b34801561048c57600080fd5b5061033661049b366004615115565b61143a565b3480156104ac57600080fd5b5060cf546104bd9063ffffffff1681565b60405163ffffffff90911681526020016102eb565b3480156104de57600080fd5b506103146104ed366004615067565b61144a565b3480156104fe57600080fd5b5061031461050d366004615115565b611470565b34801561051e57600080fd5b5061031461052d3660046154d3565b61147d565b34801561053e57600080fd5b5061055261054d366004615140565b611523565b604080519384526020840192909252908201526060016102eb565b61031461057b366004615519565b6119ed565b34801561058c57600080fd5b5061031461059b3660046155dd565b611ab9565b3480156105ac57600080fd5b50610396611b81565b3480156105c157600080fd5b506103146105d03660046155dd565b611c34565b3480156105e157600080fd5b506103146105f0366004615647565b611cdb565b34801561060157600080fd5b5060cb5461036f9062010000900460ff1681565b34801561062157600080fd5b5060d55461063490610100900460ff1681565b60405190151581526020016102eb565b34801561065057600080fd5b50610314611edf565b34801561066557600080fd5b50610314610674366004615647565b611ef3565b34801561068557600080fd5b50610438610694366004615115565b61201e565b3480156106a557600080fd5b506106b96106b4366004615067565b612056565b6040516102eb91906156b3565b3480156106d257600080fd5b5061039660ce5481565b3480156106e857600080fd5b506103146106f7366004615761565b612255565b34801561070857600080fd5b50610314612524565b34801561071d57600080fd5b5061039660cd5481565b34801561073357600080fd5b50610314610742366004615647565b6127bc565b34801561075357600080fd5b5060d5546106349060ff1681565b34801561076d57600080fd5b506033546001600160a01b0316610336565b34801561078b57600080fd5b5061039660cc5481565b3480156107a157600080fd5b506103146107b0366004615647565b6128e7565b3480156107c157600080fd5b506103146107d03660046150e9565b612a1d565b6103146107e3366004615140565b612a96565b3480156107f457600080fd5b5060cf5461036f9065010000000000900460ff1681565b34801561081757600080fd5b506103146108263660046157c3565b612d2e565b610314610839366004615140565b612d4e565b34801561084a57600080fd5b5060d55461036f9062010000900460ff1681565b34801561086a57600080fd5b506103146108793660046157e7565b612ff2565b34801561088a57600080fd5b506103146108993660046154b6565b613006565b3480156108aa57600080fd5b5061039660d25481565b3480156108c057600080fd5b5060cf5461063490640100000000900460ff1681565b3480156108e257600080fd5b506108f66108f13660046154b6565b61307c565b6040516102eb9190615829565b60ff8116600090815260d8602090815260409182902060090180548351818402810184019094528084526060939283018282801561098c57602002820191906000526020600020906000905b82829054906101000a900463ffffffff1663ffffffff168152602001906004019060208260030104928301926001038202915080841161094f5790505b50505050509050919050565b6109a06131e2565b6040516001600160a01b0383169082156108fc029083906000818181858888f193505050501580156109d6573d6000803e3d6000fd5b505050565b60d381815481106109eb57600080fd5b6000918252602090912001546001600160a01b0316905081565b6000610a1260cc5461323c565b905090565b610b4d604051806104800160405280600063ffffffff168152602001606081526020016000815260200160001515815260200160006001600160a01b03168152602001600063ffffffff168152602001600015158152602001606081526020016060815260200160608152602001606081526020016000815260200160008152602001600081526020016000815260200160008152602001600081526020016000815260200160008152602001600060ff168152602001600063ffffffff16815260200160008152602001600081526020016000815260200160008152602001600081526020016000815260200160008152602001606081526020016000815260200160008152602001600081526020016000151581526020016000151581526020016000151581526020016000151581525090565b63ffffffff808316600090815260d76020908152604091829020825161048081019093528054909316825260018301805492939291840191610b8e9061586e565b80601f0160208091040260200160405190810160405280929190818152602001828054610bba9061586e565b8015610c075780601f10610bdc57610100808354040283529160200191610c07565b820191906000526020600020905b815481529060010190602001808311610bea57829003601f168201915b50505091835250506002820154602080830191909152600383015460ff80821615156040808601919091526001600160a01b03610100840416606086015263ffffffff600160a81b8404166080860152600160c81b90920416151560a084015260048401805482518185028101850190935280835260c0909401939192909190830182828015610ce257602002820191906000526020600020906000905b82829054906101000a900463ffffffff1663ffffffff1681526020019060040190602082600301049283019260010382029150808411610ca55790505b5050505050815260200160058201805480602002602001604051908101604052809291908181526020018280548015610d6657602002820191906000526020600020906000905b82829054906101000a900463ffffffff1663ffffffff1681526020019060040190602082600301049283019260010382029150808411610d295790505b5050505050815260200160068201805480602002602001604051908101604052809291908181526020018280548015610dea57602002820191906000526020600020906000905b82829054906101000a900463ffffffff1663ffffffff1681526020019060040190602082600301049283019260010382029150808411610dad5790505b5050505050815260200160078201805480602002602001604051908101604052809291908181526020018280548015610e4257602002820191906000526020600020905b815481526020019060010190808311610e2e575b505050918352505060088201546020808301919091526009830154604080840191909152600a8401546060840152600b8401546080840152600c84015460a0840152600d84015460c0840152600e84015460e0840152600f84015461010080850191909152601085015460ff81166101208601520463ffffffff166101408401526011840154610160840152601284015461018084015260138401546101a084015260148401546101c084015260158401546101e084015260168401546102008401526017840154610220840152601884018054825181850281018501909352808352610240909401939192909190830182828015610f8c57602002820191906000526020600020906000905b82829054906101000a900463ffffffff1663ffffffff1681526020019060040190602082600301049283019260010382029150808411610f4f5790505b505050918352505060198201546020820152601a8201546040820152601b8201546060820152601c9091015460ff8082161515608084015261010082048116151560a08401526201000082048116151560c0840152630100000090910416151560e09091015292915050565b63ffffffff8116600090815260d760205260409081902060c9549151630935e01b60e21b815233600482015290916001600160a01b0316906324d7806c90602401602060405180830381865afa158015611056573d6000803e3d6000fd5b505050506040513d601f19601f8201168201806040525081019061107a91906158b6565b6111b957600381015461010090046001600160a01b031633146110e45760405162461bcd60e51b815260206004820152601d60248201527f596f7520617265206e6f74206f776e6572206f6620746869732069642e00000060448201526064015b60405180910390fd5b678ac7230489e8000081601b0154101561114c5760405162461bcd60e51b8152602060048201526024808201527f42616c616e6365206973206c657373207468616e206d696e20776974686472616044820152633bb0b61760e11b60648201526084016110db565b601c8101546301000000900460ff166111b95760405162461bcd60e51b815260206004820152602960248201527f54686973206964207769746864726177206973206e6f7420656e61626c656420604482015268313c9030b236b4b71760b91b60648201526084016110db565b601b81015460d5546000906064906111da9062010000900460ff16846158e9565b6111e49190615900565b905060c960009054906101000a90046001600160a01b03166001600160a01b031662f9cc666040518163ffffffff1660e01b8152600401602060405180830381865afa158015611238573d6000803e3d6000fd5b505050506040513d601f19601f8201168201806040525081019061125c9190615922565b6003840154604051633528777d60e11b81526001600160a01b036101009092048216600482015260248101849052911690636a50eefa90604401600060405180830381600087803b1580156112b057600080fd5b505af11580156112c4573d6000803e3d6000fd5b50505050600383015461010090046001600160a01b03166108fc6112f06112eb848661593f565b61323c565b6040518115909202916000818181858888f19350505050158015611318573d6000803e3d6000fd5b5082601b016000905550505050565b61132f6131e2565b60405133904780156108fc02916000818181858888f1935050505015801561135b573d6000803e3d6000fd5b50565b6001600160a01b037f00000000000000000000000000000000000000000000000000000000000000001630036113a65760405162461bcd60e51b81526004016110db90615952565b7f00000000000000000000000000000000000000000000000000000000000000006001600160a01b03166113ef600080516020615ba3833981519152546001600160a01b031690565b6001600160a01b0316146114155760405162461bcd60e51b81526004016110db9061599e565b61141e8161333a565b6040805160008082526020820190925261135b91839190613342565b60d481815481106109eb57600080fd5b6114526131e2565b60cb805460ff909216620100000262ff000019909216919091179055565b6114786131e2565b60cc55565b60c954604051630935e01b60e21b81523360048201526001600160a01b03909116906324d7806c90602401602060405180830381865afa1580156114c5573d6000803e3d6000fd5b505050506040513d601f19601f820116820180604052508101906114e991906158b6565b6115055760405162461bcd60e51b81526004016110db906159ea565b60d554610100900460ff161561151f5761151f82826134ad565b5050565b63ffffffff808216600090815260d7602090815260408083208151610480810190925280549094168152600184018054939485948594859493908401916115699061586e565b80601f01602080910402602001604051908101604052809291908181526020018280546115959061586e565b80156115e25780601f106115b7576101008083540402835291602001916115e2565b820191906000526020600020905b8154815290600101906020018083116115c557829003601f168201915b50505091835250506002820154602080830191909152600383015460ff80821615156040808601919091526001600160a01b03610100840416606086015263ffffffff600160a81b8404166080860152600160c81b90920416151560a084015260048401805482518185028101850190935280835260c09094019391929091908301828280156116bd57602002820191906000526020600020906000905b82829054906101000a900463ffffffff1663ffffffff16815260200190600401906020826003010492830192600103820291508084116116805790505b505050505081526020016005820180548060200260200160405190810160405280929190818152602001828054801561174157602002820191906000526020600020906000905b82829054906101000a900463ffffffff1663ffffffff16815260200190600401906020826003010492830192600103820291508084116117045790505b50505050508152602001600682018054806020026020016040519081016040528092919081815260200182805480156117c557602002820191906000526020600020906000905b82829054906101000a900463ffffffff1663ffffffff16815260200190600401906020826003010492830192600103820291508084116117885790505b505050505081526020016007820180548060200260200160405190810160405280929190818152602001828054801561181d57602002820191906000526020600020905b815481526020019060010190808311611809575b505050918352505060088201546020808301919091526009830154604080840191909152600a8401546060840152600b8401546080840152600c84015460a0840152600d84015460c0840152600e84015460e0840152600f84015461010080850191909152601085015460ff81166101208601520463ffffffff166101408401526011840154610160840152601284015461018084015260138401546101a084015260148401546101c084015260158401546101e08401526016840154610200840152601784015461022084015260188401805482518185028101850190935280835261024090940193919290919083018282801561196757602002820191906000526020600020906000905b82829054906101000a900463ffffffff1663ffffffff168152602001906004019060208260030104928301926001038202915080841161192a5790505b505050918352505060198201546020820152601a8201546040820152601b8201546060820152601c9091015460ff8082161515608084015261010082048116151560a08401526201000082048116151560c0840152630100000090910416151560e0909101526102c08101516102e0820151610300909201519097919650945092505050565b6001600160a01b037f0000000000000000000000000000000000000000000000000000000000000000163003611a355760405162461bcd60e51b81526004016110db90615952565b7f00000000000000000000000000000000000000000000000000000000000000006001600160a01b0316611a7e600080516020615ba3833981519152546001600160a01b031690565b6001600160a01b031614611aa45760405162461bcd60e51b81526004016110db9061599e565b611aad8261333a565b61151f82826001613342565b60c954604051630935e01b60e21b81523360048201526001600160a01b03909116906324d7806c90602401602060405180830381865afa158015611b01573d6000803e3d6000fd5b505050506040513d601f19601f82011682018060405250810190611b2591906158b6565b611b415760405162461bcd60e51b81526004016110db906159ea565b63ffffffff8216600090815260d76020526040812042601a82015560198101805491928492611b71908490615a16565b909155506109d690508183613be4565b6000306001600160a01b037f00000000000000000000000000000000000000000000000000000000000000001614611c215760405162461bcd60e51b815260206004820152603860248201527f555550535570677261646561626c653a206d757374206e6f742062652063616c60448201527f6c6564207468726f7567682064656c656761746563616c6c000000000000000060648201526084016110db565b50600080516020615ba383398151915290565b60c954604051630935e01b60e21b81523360048201526001600160a01b03909116906324d7806c90602401602060405180830381865afa158015611c7c573d6000803e3d6000fd5b505050506040513d601f19601f82011682018060405250810190611ca091906158b6565b611cbc5760405162461bcd60e51b81526004016110db906159ea565b63ffffffff8216600090815260d7602052604090206109d68183613be4565b60c954604051630935e01b60e21b81523360048201526001600160a01b03909116906324d7806c90602401602060405180830381865afa158015611d23573d6000803e3d6000fd5b505050506040513d601f19601f82011682018060405250810190611d4791906158b6565b611d635760405162461bcd60e51b81526004016110db906159ea565b60005b61ffff8116841115611ed85782828261ffff16818110611d8857611d88615a29565b9050602002016020810190611d9d91906154b6565b60d7600087878561ffff16818110611db757611db7615a29565b9050602002016020810190611dcc9190615140565b63ffffffff1663ffffffff16815260200190815260200160002060030160016101000a8154816001600160a01b0302191690836001600160a01b0316021790555060d6600084848461ffff16818110611e2757611e27615a29565b9050602002016020810190611e3c91906154b6565b6001600160a01b03166001600160a01b0316815260200190815260200160002060010185858361ffff16818110611e7557611e75615a29565b9050602002016020810190611e8a9190615140565b8154600181018355600092835260209092206008830401805460079093166004026101000a63ffffffff81810219909416929093169290920217905580611ed081615a3f565b915050611d66565b5050505050565b611ee76131e2565b611ef16000613c6e565b565b60c954604051630935e01b60e21b81523360048201526001600160a01b03909116906324d7806c90602401602060405180830381865afa158015611f3b573d6000803e3d6000fd5b505050506040513d601f19601f82011682018060405250810190611f5f91906158b6565b611f7b5760405162461bcd60e51b81526004016110db906159ea565b60005b61ffff8116841115611ed85782828261ffff16818110611fa057611fa0615a29565b9050602002016020810190611fb59190615a60565b60d7600087878561ffff16818110611fcf57611fcf615a29565b9050602002016020810190611fe49190615140565b63ffffffff1681526020810191909152604001600020601c01805460ff19169115159190911790558061201681615a3f565b915050611f7e565b60ca818154811061202e57600080fd5b9060005260206000209060109182820401919006600202915054906101000a900461ffff1681565b6120b1604051806101400160405280600060ff16815260200160008152602001600081526020016000815260200160608152602001600081526020016000815260200160008152602001600015158152602001606081525090565b60ff808316600090815260d86020908152604091829020825161014081018452815490941684526001810154918401919091526002810154918301919091526003810154606083015260048101805460808401919061210f9061586e565b80601f016020809104026020016040519081016040528092919081815260200182805461213b9061586e565b80156121885780601f1061215d57610100808354040283529160200191612188565b820191906000526020600020905b81548152906001019060200180831161216b57829003601f168201915b505050505081526020016005820154815260200160068201548152602001600782015481526020016008820160009054906101000a900460ff161515151581526020016009820180548060200260200160405190810160405280929190818152602001828054801561224557602002820191906000526020600020906000905b82829054906101000a900463ffffffff1663ffffffff16815260200190600401906020826003010492830192600103820291508084116122085790505b5050505050815250509050919050565b60c954604051630935e01b60e21b81523360048201526001600160a01b03909116906324d7806c90602401602060405180830381865afa15801561229d573d6000803e3d6000fd5b505050506040513d601f19601f820116820180604052508101906122c191906158b6565b6122dd5760405162461bcd60e51b81526004016110db906159ea565b60cf546000906122f49063ffffffff166001615a7d565b6001600160a01b038916600090815260d66020908152604080832063ffffffff8516845260d79092529091209192509061234a818b858c8c6123378160036158e9565b60cb548e9062010000900460ff16613cc0565b60d55460ff16156124a95760c954604080516344846f9d60e11b815290516000926001600160a01b031691638908df3a9160048083019260209291908290030181865afa15801561239f573d6000803e3d6000fd5b505050506040513d601f19601f820116820180604052508101906123c39190615922565b6001600160a01b031663d275f14e858b8a8a6123e28b620151806158e9565b6040516001600160e01b031960e088901b16815263ffffffff959095166004860152602485019390935260448401919091526064830152608482015260a4016020604051808303816000875af1158015612440573d6000803e3d6000fd5b505050506040513d601f19601f820116820180604052508101906124649190615aa1565b601883018054600181018255600091825260209091206008820401805460079092166004026101000a63ffffffff818102199093169390921691909102919091179055505b6001828101805491820181556000908152602081206008830401805460079093166004026101000a63ffffffff818102199094168785169190910217905560cf805490921691906124f983615abe565b91906101000a81548163ffffffff021916908363ffffffff1602179055505050505050505050505050565b600054610100900460ff16158080156125445750600054600160ff909116105b8061255e5750303b15801561255e575060005460ff166001145b6125c15760405162461bcd60e51b815260206004820152602e60248201527f496e697469616c697a61626c653a20636f6e747261637420697320616c72656160448201526d191e481a5b9a5d1a585b1a5e995960921b60648201526084016110db565b6000805460ff1916600117905580156125e4576000805461ff0019166101001790555b60c980546001600160a01b031916730b8bf5feb9fca57d9c5d27185ddf3017e99a2d3617905560cb805461ffff19166103e8179055604080516103a08101825260648152604660208201526032918101829052606081018290526080810182905260a0810182905260c0810182905260e08101829052610100810182905261012081018290526101408101829052610160810182905261018081018290526101a081018290526101c081018290526101e08101829052610200810182905261022081018290526102408101919091526014610260820181905261028082018190526102a082018190526102c082018190526102e0820181905261030082018190526103208201819052610340820181905261036082018190526103808201526127119060ca90601d614ea2565b5060cb805462ff000019166232000017905568056bc75e2d6310000060cc5560cf8054660200000000000066ff00ff000000001990911617905560d5805462278d0060d25562ffffff19166214010117905561276b614042565b612773614071565b801561135b576000805461ff0019169055604051600181527f7f26b83ff96e1f2b6a682f133852f6798a09c465da95921460cefb3847402498906020015b60405180910390a150565b60c954604051630935e01b60e21b81523360048201526001600160a01b03909116906324d7806c90602401602060405180830381865afa158015612804573d6000803e3d6000fd5b505050506040513d601f19601f8201168201806040525081019061282891906158b6565b6128445760405162461bcd60e51b81526004016110db906159ea565b60005b61ffff8116841115611ed85782828261ffff1681811061286957612869615a29565b905060200201602081019061287e9190615a60565b60d6600087878561ffff1681811061289857612898615a29565b90506020020160208101906128ad91906154b6565b6001600160a01b031681526020810191909152604001600020805460ff1916911515919091179055806128df81615a3f565b915050612847565b60c954604051630935e01b60e21b81523360048201526001600160a01b03909116906324d7806c90602401602060405180830381865afa15801561292f573d6000803e3d6000fd5b505050506040513d601f19601f8201168201806040525081019061295391906158b6565b61296f5760405162461bcd60e51b81526004016110db906159ea565b60005b61ffff8116841115611ed85782828261ffff1681811061299457612994615a29565b90506020020160208101906129a99190615a60565b60d7600087878561ffff168181106129c3576129c3615a29565b90506020020160208101906129d89190615140565b63ffffffff1681526020810191909152604001600020601c01805491151563010000000263ff0000001990921691909117905580612a1581615a3f565b915050612972565b612a256131e2565b60405163a9059cbb60e01b8152336004820152602481018290526001600160a01b0383169063a9059cbb906044016020604051808303816000875af1158015612a72573d6000803e3d6000fd5b505050506040513d601f19601f820116820180604052508101906109d691906158b6565b346000612aa282614098565b905060cc54811015612af65760405162461bcd60e51b815260206004820152601f60248201527f56616c7565206c657373207468656e206d696e436f6e747269627574696f6e0060448201526064016110db565b63ffffffff8316600090815260d7602052604081203391429190612b1b8560036158e9565b82601201548360140154612b2f919061593f565b612b399190615a16565b90506000600383601401546002612b5091906158e9565b612b5a9190615900565b836012015410612b6b576000612ba3565b60038360120154600385601401546002612b8591906158e9565b612b8f9190615900565b612b99919061593f565b612ba39190615900565b9050612bc883868a60008a878a60cb60029054906101000a900460ff1660ff16613cc0565b60d55460ff1615612d245760c954604080516344846f9d60e11b815290516000926001600160a01b031691638908df3a9160048083019260209291908290030181865afa158015612c1d573d6000803e3d6000fd5b505050506040513d601f19601f82011682018060405250810190612c419190615922565b6001600160a01b031663d275f14e8a612c5a858b615a16565b6040516001600160e01b031960e085901b16815263ffffffff9290921660048301526024820152604481018890526064810188905263020f5800608482015260a4016020604051808303816000875af1158015612cbb573d6000803e3d6000fd5b505050506040513d601f19601f82011682018060405250810190612cdf9190615aa1565b601885018054600181018255600091825260209091206008820401805460079092166004026101000a63ffffffff818102199093169390921691909102919091179055505b5050505050505050565b612d366131e2565b60cb805461ffff191661ffff92909216919091179055565b346000612d5a82614098565b905060cc54811015612dae5760405162461bcd60e51b815260206004820152601f60248201527f56616c7565206c657373207468656e206d696e436f6e747269627574696f6e0060448201526064016110db565b60cf5433904290600090612dc99063ffffffff166001615a7d565b6001600160a01b038416600090815260d66020908152604080832063ffffffff8516845260d790925290912091925090612e1f8186858b8a612e0c8160036158e9565b60cb548b9062010000900460ff16613cc0565b60d55460ff1615612f6e5760c954604080516344846f9d60e11b815290516000926001600160a01b031691638908df3a9160048083019260209291908290030181865afa158015612e74573d6000803e3d6000fd5b505050506040513d601f19601f82011682018060405250810190612e989190615922565b60405163693af8a760e11b815263ffffffff8616600482015260248101899052604481018790526064810187905263020f580060848201526001600160a01b03919091169063d275f14e9060a4016020604051808303816000875af1158015612f05573d6000803e3d6000fd5b505050506040513d601f19601f82011682018060405250810190612f299190615aa1565b601883018054600181018255600091825260209091206008820401805460079092166004026101000a63ffffffff818102199093169390921691909102919091179055505b6001828101805480830182556000918252602082206008820401805460079092166004026101000a63ffffffff8181021990931688841691909102179055845460ff1916909217845560cf80549092169190612fc983615abe565b91906101000a81548163ffffffff021916908363ffffffff160217905550505050505050505050565b612ffa6131e2565b6109d660ca8383614f4a565b61300e6131e2565b6001600160a01b0381166130735760405162461bcd60e51b815260206004820152602660248201527f4f776e61626c653a206e6577206f776e657220697320746865207a65726f206160448201526564647265737360d01b60648201526084016110db565b61135b81613c6e565b6130a2604051806060016040528060001515815260200160608152602001606081525090565b6001600160a01b038216600090815260d660209081526040918290208251606081018452815460ff16151581526001820180548551818602810186019096528086529194929385810193929083018282801561314957602002820191906000526020600020906000905b82829054906101000a900463ffffffff1663ffffffff168152602001906004019060208260030104928301926001038202915080841161310c5790505b505050505081526020016002820180546131629061586e565b80601f016020809104026020016040519081016040528092919081815260200182805461318e9061586e565b80156122455780601f106131b057610100808354040283529160200191612245565b820191906000526020600020905b8154815290600101906020018083116131be57505050919092525091949350505050565b6033546001600160a01b03163314611ef15760405162461bcd60e51b815260206004820181905260248201527f4f776e61626c653a2063616c6c6572206973206e6f7420746865206f776e657260448201526064016110db565b60008060c960009054906101000a90046001600160a01b03166001600160a01b0316632913497b6040518163ffffffff1660e01b8152600401602060405180830381865afa158015613292573d6000803e3d6000fd5b505050506040513d601f19601f820116820180604052508101906132b69190615922565b6001600160a01b031663e1aa60366040518163ffffffff1660e01b8152600401602060405180830381865afa1580156132f3573d6000803e3d6000fd5b505050506040513d601f19601f820116820180604052508101906133179190615ad7565b61332984670de0b6b3a76400006158e9565b6133339190615900565b9392505050565b61135b6131e2565b7f4910fdfa16fed3260ed0e7147f7cc6da11a60208b5b9406d12a635614ffd91435460ff1615613375576109d683614186565b826001600160a01b03166352d1902d6040518163ffffffff1660e01b8152600401602060405180830381865afa9250505080156133cf575060408051601f3d908101601f191682019092526133cc91810190615ad7565b60015b6134325760405162461bcd60e51b815260206004820152602e60248201527f45524331393637557067726164653a206e657720696d706c656d656e7461746960448201526d6f6e206973206e6f74205555505360901b60648201526084016110db565b600080516020615ba383398151915281146134a15760405162461bcd60e51b815260206004820152602960248201527f45524331393637557067726164653a20756e737570706f727465642070726f786044820152681a58589b195555525160ba1b60648201526084016110db565b506109d6838383614222565b600060ca80548060200260200160405190810160405280929190818152602001828054801561352357602002820191906000526020600020906000905b82829054906101000a900461ffff1661ffff16815260200190600201906020826001010492830192600103820291508084116134ea5790505b5050835163ffffffff8716600090815260d7602052604081209596509094935091508190505b8360ff168160ff161015613bc457600383015463ffffffff600160a81b9091048116600081815260d76020526040812080549293909216900361358d575050613bc4565b6135968161424d565b1561360e5760405172149959995c995c881a5cc8111a5cd8589b1959606a1b81526013015b6040519081900390206135cf846001615af0565b60ff168363ffffffff167f915ed47901013ad29e90ede828f72888f54bd58cea141b0c6967498165382eb560405160405180910390a49350613bb29050565b604080516104808101909152815463ffffffff168152600182018054613aa9929184916020840191906136409061586e565b80601f016020809104026020016040519081016040528092919081815260200182805461366c9061586e565b80156136b95780601f1061368e576101008083540402835291602001916136b9565b820191906000526020600020905b81548152906001019060200180831161369c57829003601f168201915b50505091835250506002820154602080830191909152600383015460ff80821615156040808601919091526001600160a01b03610100840416606086015263ffffffff600160a81b8404166080860152600160c81b90920416151560a084015260048401805482518185028101850190935280835260c090940193919290919083018282801561379457602002820191906000526020600020906000905b82829054906101000a900463ffffffff1663ffffffff16815260200190600401906020826003010492830192600103820291508084116137575790505b505050505081526020016005820180548060200260200160405190810160405280929190818152602001828054801561381857602002820191906000526020600020906000905b82829054906101000a900463ffffffff1663ffffffff16815260200190600401906020826003010492830192600103820291508084116137db5790505b505050505081526020016006820180548060200260200160405190810160405280929190818152602001828054801561389c57602002820191906000526020600020906000905b82829054906101000a900463ffffffff1663ffffffff168152602001906004019060208260030104928301926001038202915080841161385f5790505b50505050508152602001600782018054806020026020016040519081016040528092919081815260200182805480156138f457602002820191906000526020600020905b8154815260200190600101908083116138e0575b505050918352505060088201546020808301919091526009830154604080840191909152600a8401546060840152600b8401546080840152600c84015460a0840152600d84015460c0840152600e84015460e0840152600f84015461010080850191909152601085015460ff81166101208601520463ffffffff166101408401526011840154610160840152601284015461018084015260138401546101a084015260148401546101c084015260158401546101e084015260168401546102008401526017840154610220840152601884018054825181850281018501909352808352610240909401939192909190830182828015613a3e57602002820191906000526020600020906000905b82829054906101000a900463ffffffff1663ffffffff1681526020019060040190602082600301049283019260010382029150808411613a015790505b505050918352505060198201546020820152601a8201546040820152601b8201546060820152601c9091015460ff8082161515608084015261010082048116151560a08401526201000082048116151560c0840152630100000090910416151560e0909101526143ce565b613ab4846001615af0565b60ff161115613aeb576040517f446f776e6c696e65206c6576656c73206c696d697420726561636865640000008152601d016135bb565b60cb54875160009161ffff1690899060ff8716908110613b0d57613b0d615a29565b602002602001015161ffff168b613b2491906158e9565b613b2e9190615900565b905080826017016000828254613b449190615a16565b90915550613b5490508282613be4565b613b5e8186615a16565b94508063ffffffff808516908b167ff8fb9b5ab69a0208214661678427c6b48abf457f53605d1f559d17452f1eea11613b98886001615af0565b60405160ff909116815260200160405180910390a4509350505b80613bbc81615b09565b915050613549565b508060ce6000828254613bd79190615a16565b9091555050505050505050565b8160140154818360120154613bf99190615a16565b11613c385780826012016000828254613c129190615a16565b925050819055508082601b016000828254613c2d9190615a16565b9091555061151f9050565b81601201548260140154613c4c919061593f565b82601b016000828254613c5f9190615a16565b9091555061151f90508261440d565b603380546001600160a01b038381166001600160a01b0319831681179093556040519116919082907f8be0079c531659141344cd1fd0a4f28419497f9722a3daafe3b4186f6b6457e090600090a35050565b875463ffffffff16600003613ce357875463ffffffff191663ffffffff87161788555b601c88015460ff16613cff57601c8801805460ff191660011790555b600388015460ff16613d575760d480546001810182556000919091527f9780e26d96b1f2a9a18ef8fc72d589dbf03ef788137b64f43897e83a91e7feec0180546001600160a01b0319166001600160a01b0389161790555b600388015461010090046001600160a01b0316613d9157600388018054610100600160a81b0319166101006001600160a01b038a16021790555b8760020154600003613da557600288018290555b6003880154600160c81b900460ff16613de95760038801805460ff60c81b1963ffffffff8816600160a81b021664ffffffffff60a81b1990911617600160c81b1790555b60006012890155613dfb600384615900565b60138901556014880183905560078801805460018101825560009182526020822001859055600889018054869290613e34908490615a16565b9091555050601588018290556040805160008152602081019182905251613e5f9160188b0191614fb5565b50601c8801805463ff0000001916630100000017905560005b818160ff16101561403757600389015463ffffffff600160a81b9091048116600081815260d760205260408120805492939092169003613eb9575050614037565b8260ff16600003613f1b578681600a016000828254613ed89190615a16565b909155505060048181018054600181018255600091825260209091206008820401805460079092169092026101000a63ffffffff81810219909216918c16021790555b8681600c016000828254613f2f9190615a16565b909155505063ffffffff8816156140035760058101805460018082018355600092835260209092206008820401805460079092166004026101000a63ffffffff81810219909316928d16029190911790556006820190613f90908590615af0565b81546001810183556000928352602083206008820401805463ffffffff60079093166004026101000a8381021990911660ff9490941602929092179091558254604051908216928b8316928d16917f3ec54e926fe5dd86406fe57832ff318517aed2a5cfbeacfb90a5e9489483ae4b9190a45b60cf54640100000000900460ff1615614021576140218188876144b5565b995081905061402f81615b09565b915050613e78565b50612d248483614c0f565b600054610100900460ff166140695760405162461bcd60e51b81526004016110db90615b28565b611ef1614c49565b600054610100900460ff16611ef15760405162461bcd60e51b81526004016110db90615b28565b600080670de0b6b3a764000060c960009054906101000a90046001600160a01b03166001600160a01b0316632913497b6040518163ffffffff1660e01b8152600401602060405180830381865afa1580156140f7573d6000803e3d6000fd5b505050506040513d601f19601f8201168201806040525081019061411b9190615922565b6001600160a01b031663e1aa60366040518163ffffffff1660e01b8152600401602060405180830381865afa158015614158573d6000803e3d6000fd5b505050506040513d601f19601f8201168201806040525081019061417c9190615ad7565b61332990856158e9565b6001600160a01b0381163b6141f35760405162461bcd60e51b815260206004820152602d60248201527f455243313936373a206e657720696d706c656d656e746174696f6e206973206e60448201526c1bdd08184818dbdb9d1c9858dd609a1b60648201526084016110db565b600080516020615ba383398151915280546001600160a01b0319166001600160a01b0392909216919091179055565b61422b83614c79565b6000825111806142385750805b156109d6576142478383614cb9565b50505050565b601c81015460009060ff16158061426c57508160140154826012015410155b1561427957506001919050565b6018820154158015906143b9575060c960009054906101000a90046001600160a01b03166001600160a01b0316638908df3a6040518163ffffffff1660e01b8152600401602060405180830381865afa1580156142da573d6000803e3d6000fd5b505050506040513d601f19601f820116820180604052508101906142fe9190615922565b6001600160a01b03166355332a858360180160018560180180549050614324919061593f565b8154811061433457614334615a29565b6000918252602090912060088204015460405160e084901b6001600160e01b0319168152600790921660049081026101000a90910463ffffffff1690820152602401602060405180830381865afa158015614393573d6000803e3d6000fd5b505050506040513d601f19601f820116820180604052508101906143b791906158b6565b155b156143c657506001919050565b506000919050565b60e0810151516000908181156133335760cf546001906143fb906601000000000000900460ff16846158e9565b614405919061593f565b949350505050565b601c8101805460ff191690556040805160008152602081019182905251614438916018840191614fb5565b5060006012820181905560138201819055601482015542601682015580546040805163ffffffff9092168252602082018190526011908201527013585e08131a5b5a5d0814995858da1959607a1b60608201527fce8ab8f2ac6a94861f9740fa1fed3e6d13a85dfd8a4833bf96f3a0055ba7fb6f906080016127b1565b6010830154604080516104808101909152845463ffffffff16815260018501805460ff9093169261495b929187916020840191906144f29061586e565b80601f016020809104026020016040519081016040528092919081815260200182805461451e9061586e565b801561456b5780601f106145405761010080835404028352916020019161456b565b820191906000526020600020905b81548152906001019060200180831161454e57829003601f168201915b50505091835250506002820154602080830191909152600383015460ff80821615156040808601919091526001600160a01b03610100840416606086015263ffffffff600160a81b8404166080860152600160c81b90920416151560a084015260048401805482518185028101850190935280835260c090940193919290919083018282801561464657602002820191906000526020600020906000905b82829054906101000a900463ffffffff1663ffffffff16815260200190600401906020826003010492830192600103820291508084116146095790505b50505050508152602001600582018054806020026020016040519081016040528092919081815260200182805480156146ca57602002820191906000526020600020906000905b82829054906101000a900463ffffffff1663ffffffff168152602001906004019060208260030104928301926001038202915080841161468d5790505b505050505081526020016006820180548060200260200160405190810160405280929190818152602001828054801561474e57602002820191906000526020600020906000905b82829054906101000a900463ffffffff1663ffffffff16815260200190600401906020826003010492830192600103820291508084116147115790505b50505050508152602001600782018054806020026020016040519081016040528092919081815260200182805480156147a657602002820191906000526020600020905b815481526020019060010190808311614792575b505050918352505060088201546020808301919091526009830154604080840191909152600a8401546060840152600b8401546080840152600c84015460a0840152600d84015460c0840152600e84015460e0840152600f84015461010080850191909152601085015460ff81166101208601520463ffffffff166101408401526011840154610160840152601284015461018084015260138401546101a084015260148401546101c084015260158401546101e0840152601684015461020084015260178401546102208401526018840180548251818502810185019093528083526102409094019391929091908301828280156148f057602002820191906000526020600020906000905b82829054906101000a900463ffffffff1663ffffffff16815260200190600401906020826003010492830192600103820291508084116148b35790505b505050918352505060198201546020820152601a8201546040820152601b8201546060820152601c9091015460ff8082161515608084015261010082048116151560a08401526201000082048116151560c0840152630100000090910416151560e090910152614daf565b60ff1611156109d657604080516104808101909152835463ffffffff168152600184018054614996929186916020840191906144f29061586e565b60108401805460ff191660ff9283169081178255600090815260d860209081526040808320885460099182018054600181810183559187529486206008860401805463ffffffff60079097166004026101000a8781021990911696909316909202949094179055935490941682529290200154614a13919061593f565b60108401805464ffffffff0019811661010063ffffffff948516810291821793849055875460408051918716825291909404909416602084015260ff918216911617918101919091527f4d3af8f60ffd033b575846f894122f2342b39bc9a90da98d0a966128702b568d9060600160405180910390a1604080516104808101909152835463ffffffff16815260018401805460d892600092614abf92889160208401916144f29061586e565b60ff90811682526020820192909252604001600020600801541615614b7e57604080516104808101909152835463ffffffff16815260018401805460d892600092614b1492889160208401916144f29061586e565b60ff1660ff1681526020019081526020016000206007015483600f0154614b3b9190615a16565b811115614b6a578083600f01819055508183600e016000828254614b5f9190615a16565b909155506109d69050565b8183600e016000828254614b5f9190615a16565b60cf54640100000000900460ff16156109d657601083015460ff16600090815260d86020526040902060050154614bb6908490613be4565b601083015460ff908116600090815260d8602052604080822060058101549054875492519194169263ffffffff909216917fdeaf5b294f5016988108257045fc779d7d01e05a4ecdc4df70f62d5a799e053b91a4505050565b60d25460d154614c1f9190615a16565b811115614c2e5760d15560d055565b8160d06000828254614c409190615a16565b90915550505050565b600054610100900460ff16614c705760405162461bcd60e51b81526004016110db90615b28565b611ef133613c6e565b614c8281614186565b6040516001600160a01b038216907fbc7cd75a20ee27fd9adebab32041f755214dbc6bffa90cc0225b39da2e5c2d3b90600090a250565b60606001600160a01b0383163b614d215760405162461bcd60e51b815260206004820152602660248201527f416464726573733a2064656c65676174652063616c6c20746f206e6f6e2d636f6044820152651b9d1c9858dd60d21b60648201526084016110db565b600080846001600160a01b031684604051614d3c9190615b73565b600060405180830381855af49150503d8060008114614d77576040519150601f19603f3d011682016040523d82523d6000602084013e614d7c565b606091505b5091509150614da48282604051806060016040528060278152602001615bc360279139614e64565b925050505b92915050565b60d5546000906301000000900460ff16815b8160ff168160ff161015614e5d5760ff8116600090815260d8602052604090206001015461016085015110801590614e13575060ff8116600090815260d860205260409020600201546101a085015110155b8015614e39575060ff8116600090815260d860205260409020600301546101e085015110155b15614e4657809250614e4b565b614e5d565b80614e5581615b09565b915050614dc1565b5050919050565b60608315614e73575081613333565b6133338383815115614e885781518083602001fd5b8060405162461bcd60e51b81526004016110db9190615b8f565b82805482825590600052602060002090600f01601090048101928215614f3a5791602002820160005b83821115614f0a57835183826101000a81548161ffff021916908360ff1602179055509260200192600201602081600101049283019260010302614ecb565b8015614f385782816101000a81549061ffff0219169055600201602081600101049283019260010302614f0a565b505b50614f46929150615052565b5090565b82805482825590600052602060002090600f01601090048101928215614f3a5791602002820160005b83821115614f0a57833560ff1683826101000a81548161ffff021916908360ff1602179055509260200192600201602081600101049283019260010302614f73565b82805482825590600052602060002090600701600890048101928215614f3a5791602002820160005b8382111561502257835183826101000a81548163ffffffff021916908363ffffffff1602179055509260200192600401602081600301049283019260010302614fde565b8015614f385782816101000a81549063ffffffff0219169055600401602081600301049283019260010302615022565b5b80821115614f465760008155600101615053565b60006020828403121561507957600080fd5b813560ff8116811461333357600080fd5b6020808252825182820181905260009190848201906040850190845b818110156150c857835163ffffffff16835292840192918401916001016150a6565b50909695505050505050565b6001600160a01b038116811461135b57600080fd5b600080604083850312156150fc57600080fd5b8235615107816150d4565b946020939093013593505050565b60006020828403121561512757600080fd5b5035919050565b63ffffffff8116811461135b57600080fd5b60006020828403121561515257600080fd5b81356133338161512e565b60005b83811015615178578181015183820152602001615160565b50506000910152565b6000815180845261519981602086016020860161515d565b601f01601f19169290920160200192915050565b600081518084526020808501945080840160005b838110156151e357815163ffffffff16875295820195908201906001016151c1565b509495945050505050565b600081518084526020808501945080840160005b838110156151e357815187529582019590820190600101615202565b6020815261523560208201835163ffffffff169052565b600060208301516104808060408501526152536104a0850183615181565b9150604085015160608501526060850151615272608086018215159052565b5060808501516001600160a01b03811660a08601525060a085015163ffffffff811660c08601525060c085015180151560e08601525060e0850151601f196101008187860301818801526152c685846151ad565b9450808801519250506101208187860301818801526152e585846151ad565b94508088015192505061014081878603018188015261530485846151ad565b94508088015192505061016081878603018188015261532385846151ee565b90880151610180888101919091528801516101a0808901919091528801516101c0808901919091528801516101e0808901919091528801516102008089019190915288015161022080890191909152880151610240808901919091528801516102608089019190915288015190945091506102806153a58188018460ff169052565b87015191506102a06153be8782018463ffffffff169052565b8701516102c0878101919091528701516102e080880191909152870151610300808801919091528701516103208088019190915287015161034080880191909152870151610360808801919091528701516103808088019190915287015186850382016103a08089019190915290925061543885846151ad565b908801516103c0888101919091528801516103e080890191909152880151610400808901919091528801519094509150610420905061547a8187018315159052565b860151905061044061548f8682018315159052565b86015190506104606154a48682018315159052565b90950151151593019290925250919050565b6000602082840312156154c857600080fd5b8135613333816150d4565b600080604083850312156154e657600080fd5b8235915060208301356154f88161512e565b809150509250929050565b634e487b7160e01b600052604160045260246000fd5b6000806040838503121561552c57600080fd5b8235615537816150d4565b9150602083013567ffffffffffffffff8082111561555457600080fd5b818501915085601f83011261556857600080fd5b81358181111561557a5761557a615503565b604051601f8201601f19908116603f011681019083821181831017156155a2576155a2615503565b816040528281528860208487010111156155bb57600080fd5b8260208601602083013760006020848301015280955050505050509250929050565b600080604083850312156155f057600080fd5b82356151078161512e565b60008083601f84011261560d57600080fd5b50813567ffffffffffffffff81111561562557600080fd5b6020830191508360208260051b850101111561564057600080fd5b9250929050565b6000806000806040858703121561565d57600080fd5b843567ffffffffffffffff8082111561567557600080fd5b615681888389016155fb565b9096509450602087013591508082111561569a57600080fd5b506156a7878288016155fb565b95989497509550505050565b602081526156c760208201835160ff169052565b602082015160408201526040820151606082015260608201516080820152600060808301516101408060a0850152615703610160850183615181565b915060a085015160c085015260c085015160e085015260e085015161010081818701528087015191505061012061573d8187018315159052565b860151858403601f190183870152905061575783826151ad565b9695505050505050565b600080600080600080600060e0888a03121561577c57600080fd5b8735615787816150d4565b965060208801356157978161512e565b96999698505050506040850135946060810135946080820135945060a0820135935060c0909101359150565b6000602082840312156157d557600080fd5b813561ffff8116811461333357600080fd5b600080602083850312156157fa57600080fd5b823567ffffffffffffffff81111561581157600080fd5b61581d858286016155fb565b90969095509350505050565b60208152815115156020820152600060208301516060604084015261585160808401826151ad565b90506040840151601f19848303016060850152614da48282615181565b600181811c9082168061588257607f821691505b6020821081036158a257634e487b7160e01b600052602260045260246000fd5b50919050565b801515811461135b57600080fd5b6000602082840312156158c857600080fd5b8151613333816158a8565b634e487b7160e01b600052601160045260246000fd5b8082028115828204841417614da957614da96158d3565b60008261591d57634e487b7160e01b600052601260045260246000fd5b500490565b60006020828403121561593457600080fd5b8151613333816150d4565b81810381811115614da957614da96158d3565b6020808252602c908201527f46756e6374696f6e206d7573742062652063616c6c6564207468726f7567682060408201526b19195b1959d85d1958d85b1b60a21b606082015260800190565b6020808252602c908201527f46756e6374696f6e206d7573742062652063616c6c6564207468726f7567682060408201526b6163746976652070726f787960a01b606082015260800190565b6020808252601290820152712cb7ba9030b932903737ba1030b236b4b71760711b604082015260600190565b80820180821115614da957614da96158d3565b634e487b7160e01b600052603260045260246000fd5b600061ffff808316818103615a5657615a566158d3565b6001019392505050565b600060208284031215615a7257600080fd5b8135613333816158a8565b63ffffffff818116838216019080821115615a9a57615a9a6158d3565b5092915050565b600060208284031215615ab357600080fd5b81516133338161512e565b600063ffffffff808316818103615a5657615a566158d3565b600060208284031215615ae957600080fd5b5051919050565b60ff8181168382160190811115614da957614da96158d3565b600060ff821660ff8103615b1f57615b1f6158d3565b60010192915050565b6020808252602b908201527f496e697469616c697a61626c653a20636f6e7472616374206973206e6f74206960408201526a6e697469616c697a696e6760a81b606082015260800190565b60008251615b8581846020870161515d565b9190910192915050565b602081526000613333602083018461518156fe360894a13ba1a3210667c828492db98dca3e2076cc3735a920a3ca505d382bbc416464726573733a206c6f772d6c6576656c2064656c65676174652063616c6c206661696c6564a264697066735822122021dc334d4eea02a0115be02b976ba6d2b4296d0313b1eec926badf171ee15f5664736f6c63430008120033","opcodes":"PUSH1 0xA0 PUSH1 0x40 MSTORE ADDRESS PUSH1 0x80 MSTORE CALLVALUE DUP1 ISZERO PUSH2 0x14 JUMPI PUSH1 0x0 DUP1 REVERT JUMPDEST POP PUSH1 0x80 MLOAD PUSH2 0x5C1F PUSH3 0x4D PUSH1 0x0 CODECOPY PUSH1 0x0 DUP2 DUP2 PUSH2 0x1368 ADD MSTORE DUP2 DUP2 PUSH2 0x13A8 ADD MSTORE DUP2 DUP2 PUSH2 0x19F7 ADD MSTORE DUP2 DUP2 PUSH2 0x1A37 ADD MSTORE PUSH2 0x1B8E ADD MSTORE PUSH2 0x5C1F PUSH1 0x0 RETURN INVALID PUSH1 0x80 PUSH1 0x40 MSTORE PUSH1 0x4 CALLDATASIZE LT PUSH2 0x2B2 JUMPI PUSH1 0x0 CALLDATALOAD PUSH1 0xE0 SHR DUP1 PUSH4 0x7084431F GT PUSH2 0x175 JUMPI DUP1 PUSH4 0x8F84DE85 GT PUSH2 0xDC JUMPI DUP1 PUSH4 0xBCB93F9B GT PUSH2 0x95 JUMPI DUP1 PUSH4 0xF2FDE38B GT PUSH2 0x6F JUMPI DUP1 PUSH4 0xF2FDE38B EQ PUSH2 0x87E JUMPI DUP1 PUSH4 0xF41BFEEF EQ PUSH2 0x89E JUMPI DUP1 PUSH4 0xFAFC9597 EQ PUSH2 0x8B4 JUMPI DUP1 PUSH4 0xFB47E016 EQ PUSH2 0x8D6 JUMPI PUSH1 0x0 DUP1 REVERT JUMPDEST DUP1 PUSH4 0xBCB93F9B EQ PUSH2 0x82B JUMPI DUP1 PUSH4 0xCD21364D EQ PUSH2 0x83E JUMPI DUP1 PUSH4 0xE1C715BA EQ PUSH2 0x85E JUMPI PUSH1 0x0 DUP1 REVERT JUMPDEST DUP1 PUSH4 0x8F84DE85 EQ PUSH2 0x77F JUMPI DUP1 PUSH4 0x8F8D2090 EQ PUSH2 0x795 JUMPI DUP1 PUSH4 0xA0B6105F EQ PUSH2 0x7B5 JUMPI DUP1 PUSH4 0xA152B0F0 EQ PUSH2 0x7D5 JUMPI DUP1 PUSH4 0xA28A3686 EQ PUSH2 0x7E8 JUMPI DUP1 PUSH4 0xA43AE408 EQ PUSH2 0x80B JUMPI PUSH1 0x0 DUP1 REVERT JUMPDEST DUP1 PUSH4 0x7CF97C8C GT PUSH2 0x12E JUMPI DUP1 PUSH4 0x7CF97C8C EQ PUSH2 0x6DC JUMPI DUP1 PUSH4 0x8129FC1C EQ PUSH2 0x6FC JUMPI DUP1 PUSH4 0x852FF2FD EQ PUSH2 0x711 JUMPI DUP1 PUSH4 0x86851E0C EQ PUSH2 0x727 JUMPI DUP1 PUSH4 0x8AF925DC EQ PUSH2 0x747 JUMPI DUP1 PUSH4 0x8DA5CB5B EQ PUSH2 0x761 JUMPI PUSH1 0x0 DUP1 REVERT JUMPDEST DUP1 PUSH4 0x7084431F EQ PUSH2 0x615 JUMPI DUP1 PUSH4 0x715018A6 EQ PUSH2 0x644 JUMPI DUP1 PUSH4 0x721D343F EQ PUSH2 0x659 JUMPI DUP1 PUSH4 0x7879B5EF EQ PUSH2 0x679 JUMPI DUP1 PUSH4 0x7BDBF996 EQ PUSH2 0x699 JUMPI DUP1 PUSH4 0x7C599486 EQ PUSH2 0x6C6 JUMPI PUSH1 0x0 DUP1 REVERT JUMPDEST DUP1 PUSH4 0x365B98B2 GT PUSH2 0x219 JUMPI DUP1 PUSH4 0x4F1EF286 GT PUSH2 0x1D2 JUMPI DUP1 PUSH4 0x4F1EF286 EQ PUSH2 0x56D JUMPI DUP1 PUSH4 0x509D6C52 EQ PUSH2 0x580 JUMPI DUP1 PUSH4 0x52D1902D EQ PUSH2 0x5A0 JUMPI DUP1 PUSH4 0x6CCC10AE EQ PUSH2 0x5B5 JUMPI DUP1 PUSH4 0x6DE3A95C EQ PUSH2 0x5D5 JUMPI DUP1 PUSH4 0x6F38E410 EQ PUSH2 0x5F5 JUMPI PUSH1 0x0 DUP1 REVERT JUMPDEST DUP1 PUSH4 0x365B98B2 EQ PUSH2 0x480 JUMPI DUP1 PUSH4 0x390A5BA5 EQ PUSH2 0x4A0 JUMPI DUP1 PUSH4 0x3EFF2DEF EQ PUSH2 0x4D2 JUMPI DUP1 PUSH4 0x473B0D46 EQ PUSH2 0x4F2 JUMPI DUP1 PUSH4 0x498B3E55 EQ PUSH2 0x512 JUMPI DUP1 PUSH4 0x4E6E93A3 EQ PUSH2 0x532 JUMPI PUSH1 0x0 DUP1 REVERT JUMPDEST DUP1 PUSH4 0x22F88B52 GT PUSH2 0x26B JUMPI DUP1 PUSH4 0x22F88B52 EQ PUSH2 0x3D1 JUMPI DUP1 PUSH4 0x2ED421D2 EQ PUSH2 0x3E7 JUMPI DUP1 PUSH4 0x300825B5 EQ PUSH2 0x3FD JUMPI DUP1 PUSH4 0x313CE567 EQ PUSH2 0x41D JUMPI DUP1 PUSH4 0x35759788 EQ PUSH2 0x44B JUMPI DUP1 PUSH4 0x3659CFE6 EQ PUSH2 0x460 JUMPI PUSH1 0x0 DUP1 REVERT JUMPDEST DUP1 PUSH4 0x12DA720 EQ PUSH2 0x2BE JUMPI DUP1 PUSH4 0xB243DAD EQ PUSH2 0x2F4 JUMPI DUP1 PUSH4 0x1319CFF9 EQ PUSH2 0x316 JUMPI DUP1 PUSH4 0x18E10BFF EQ PUSH2 0x34E JUMPI DUP1 PUSH4 0x1F9E65E4 EQ PUSH2 0x381 JUMPI DUP1 PUSH4 0x21009789 EQ PUSH2 0x3A4 JUMPI PUSH1 0x0 DUP1 REVERT JUMPDEST CALLDATASIZE PUSH2 0x2B9 JUMPI STOP JUMPDEST PUSH1 0x0 DUP1 REVERT JUMPDEST CALLVALUE DUP1 ISZERO PUSH2 0x2CA JUMPI PUSH1 0x0 DUP1 REVERT JUMPDEST POP PUSH2 0x2DE PUSH2 0x2D9 CALLDATASIZE PUSH1 0x4 PUSH2 0x5067 JUMP JUMPDEST PUSH2 0x903 JUMP JUMPDEST PUSH1 0x40 MLOAD PUSH2 0x2EB SWAP2 SWAP1 PUSH2 0x508A JUMP JUMPDEST PUSH1 0x40 MLOAD DUP1 SWAP2 SUB SWAP1 RETURN JUMPDEST CALLVALUE DUP1 ISZERO PUSH2 0x300 JUMPI PUSH1 0x0 DUP1 REVERT JUMPDEST POP PUSH2 0x314 PUSH2 0x30F CALLDATASIZE PUSH1 0x4 PUSH2 0x50E9 JUMP JUMPDEST PUSH2 0x998 JUMP JUMPDEST STOP JUMPDEST CALLVALUE DUP1 ISZERO PUSH2 0x322 JUMPI PUSH1 0x0 DUP1 REVERT JUMPDEST POP PUSH2 0x336 PUSH2 0x331 CALLDATASIZE PUSH1 0x4 PUSH2 0x5115 JUMP JUMPDEST PUSH2 0x9DB JUMP JUMPDEST PUSH1 0x40 MLOAD PUSH1 0x1 PUSH1 0x1 PUSH1 0xA0 SHL SUB SWAP1 SWAP2 AND DUP2 MSTORE PUSH1 0x20 ADD PUSH2 0x2EB JUMP JUMPDEST CALLVALUE DUP1 ISZERO PUSH2 0x35A JUMPI PUSH1 0x0 DUP1 REVERT JUMPDEST POP PUSH1 0xD5 SLOAD PUSH2 0x36F SWAP1 PUSH4 0x1000000 SWAP1 DIV PUSH1 0xFF AND DUP2 JUMP JUMPDEST PUSH1 0x40 MLOAD PUSH1 0xFF SWAP1 SWAP2 AND DUP2 MSTORE PUSH1 0x20 ADD PUSH2 0x2EB JUMP JUMPDEST CALLVALUE DUP1 ISZERO PUSH2 0x38D JUMPI PUSH1 0x0 DUP1 REVERT JUMPDEST POP PUSH2 0x396 PUSH2 0xA05 JUMP JUMPDEST PUSH1 0x40 MLOAD SWAP1 DUP2 MSTORE PUSH1 0x20 ADD PUSH2 0x2EB JUMP JUMPDEST CALLVALUE DUP1 ISZERO PUSH2 0x3B0 JUMPI PUSH1 0x0 DUP1 REVERT JUMPDEST POP PUSH2 0x3C4 PUSH2 0x3BF CALLDATASIZE PUSH1 0x4 PUSH2 0x5140 JUMP JUMPDEST PUSH2 0xA17 JUMP JUMPDEST PUSH1 0x40 MLOAD PUSH2 0x2EB SWAP2 SWAP1 PUSH2 0x521E JUMP JUMPDEST CALLVALUE DUP1 ISZERO PUSH2 0x3DD JUMPI PUSH1 0x0 DUP1 REVERT JUMPDEST POP PUSH2 0x396 PUSH1 0xD0 SLOAD DUP2 JUMP JUMPDEST CALLVALUE DUP1 ISZERO PUSH2 0x3F3 JUMPI PUSH1 0x0 DUP1 REVERT JUMPDEST POP PUSH2 0x396 PUSH1 0xD1 SLOAD DUP2 JUMP JUMPDEST CALLVALUE DUP1 ISZERO PUSH2 0x409 JUMPI PUSH1 0x0 DUP1 REVERT JUMPDEST POP PUSH2 0x314 PUSH2 0x418 CALLDATASIZE PUSH1 0x4 PUSH2 0x5140 JUMP JUMPDEST PUSH2 0xFF8 JUMP JUMPDEST CALLVALUE DUP1 ISZERO PUSH2 0x429 JUMPI PUSH1 0x0 DUP1 REVERT JUMPDEST POP PUSH1 0xCB SLOAD PUSH2 0x438 SWAP1 PUSH2 0xFFFF AND DUP2 JUMP JUMPDEST PUSH1 0x40 MLOAD PUSH2 0xFFFF SWAP1 SWAP2 AND DUP2 MSTORE PUSH1 0x20 ADD PUSH2 0x2EB JUMP JUMPDEST CALLVALUE DUP1 ISZERO PUSH2 0x457 JUMPI PUSH1 0x0 DUP1 REVERT JUMPDEST POP PUSH2 0x314 PUSH2 0x1327 JUMP JUMPDEST CALLVALUE DUP1 ISZERO PUSH2 0x46C JUMPI PUSH1 0x0 DUP1 REVERT JUMPDEST POP PUSH2 0x314 PUSH2 0x47B CALLDATASIZE PUSH1 0x4 PUSH2 0x54B6 JUMP JUMPDEST PUSH2 0x135E JUMP JUMPDEST CALLVALUE DUP1 ISZERO PUSH2 0x48C JUMPI PUSH1 0x0 DUP1 REVERT JUMPDEST POP PUSH2 0x336 PUSH2 0x49B CALLDATASIZE PUSH1 0x4 PUSH2 0x5115 JUMP JUMPDEST PUSH2 0x143A JUMP JUMPDEST CALLVALUE DUP1 ISZERO PUSH2 0x4AC JUMPI PUSH1 0x0 DUP1 REVERT JUMPDEST POP PUSH1 0xCF SLOAD PUSH2 0x4BD SWAP1 PUSH4 0xFFFFFFFF AND DUP2 JUMP JUMPDEST PUSH1 0x40 MLOAD PUSH4 0xFFFFFFFF SWAP1 SWAP2 AND DUP2 MSTORE PUSH1 0x20 ADD PUSH2 0x2EB JUMP JUMPDEST CALLVALUE DUP1 ISZERO PUSH2 0x4DE JUMPI PUSH1 0x0 DUP1 REVERT JUMPDEST POP PUSH2 0x314 PUSH2 0x4ED CALLDATASIZE PUSH1 0x4 PUSH2 0x5067 JUMP JUMPDEST PUSH2 0x144A JUMP JUMPDEST CALLVALUE DUP1 ISZERO PUSH2 0x4FE JUMPI PUSH1 0x0 DUP1 REVERT JUMPDEST POP PUSH2 0x314 PUSH2 0x50D CALLDATASIZE PUSH1 0x4 PUSH2 0x5115 JUMP JUMPDEST PUSH2 0x1470 JUMP JUMPDEST CALLVALUE DUP1 ISZERO PUSH2 0x51E JUMPI PUSH1 0x0 DUP1 REVERT JUMPDEST POP PUSH2 0x314 PUSH2 0x52D CALLDATASIZE PUSH1 0x4 PUSH2 0x54D3 JUMP JUMPDEST PUSH2 0x147D JUMP JUMPDEST CALLVALUE DUP1 ISZERO PUSH2 0x53E JUMPI PUSH1 0x0 DUP1 REVERT JUMPDEST POP PUSH2 0x552 PUSH2 0x54D CALLDATASIZE PUSH1 0x4 PUSH2 0x5140 JUMP JUMPDEST PUSH2 0x1523 JUMP JUMPDEST PUSH1 0x40 DUP1 MLOAD SWAP4 DUP5 MSTORE PUSH1 0x20 DUP5 ADD SWAP3 SWAP1 SWAP3 MSTORE SWAP1 DUP3 ADD MSTORE PUSH1 0x60 ADD PUSH2 0x2EB JUMP JUMPDEST PUSH2 0x314 PUSH2 0x57B CALLDATASIZE PUSH1 0x4 PUSH2 0x5519 JUMP JUMPDEST PUSH2 0x19ED JUMP JUMPDEST CALLVALUE DUP1 ISZERO PUSH2 0x58C JUMPI PUSH1 0x0 DUP1 REVERT JUMPDEST POP PUSH2 0x314 PUSH2 0x59B CALLDATASIZE PUSH1 0x4 PUSH2 0x55DD JUMP JUMPDEST PUSH2 0x1AB9 JUMP JUMPDEST CALLVALUE DUP1 ISZERO PUSH2 0x5AC JUMPI PUSH1 0x0 DUP1 REVERT JUMPDEST POP PUSH2 0x396 PUSH2 0x1B81 JUMP JUMPDEST CALLVALUE DUP1 ISZERO PUSH2 0x5C1 JUMPI PUSH1 0x0 DUP1 REVERT JUMPDEST POP PUSH2 0x314 PUSH2 0x5D0 CALLDATASIZE PUSH1 0x4 PUSH2 0x55DD JUMP JUMPDEST PUSH2 0x1C34 JUMP JUMPDEST CALLVALUE DUP1 ISZERO PUSH2 0x5E1 JUMPI PUSH1 0x0 DUP1 REVERT JUMPDEST POP PUSH2 0x314 PUSH2 0x5F0 CALLDATASIZE PUSH1 0x4 PUSH2 0x5647 JUMP JUMPDEST PUSH2 0x1CDB JUMP JUMPDEST CALLVALUE DUP1 ISZERO PUSH2 0x601 JUMPI PUSH1 0x0 DUP1 REVERT JUMPDEST POP PUSH1 0xCB SLOAD PUSH2 0x36F SWAP1 PUSH3 0x10000 SWAP1 DIV PUSH1 0xFF AND DUP2 JUMP JUMPDEST CALLVALUE DUP1 ISZERO PUSH2 0x621 JUMPI PUSH1 0x0 DUP1 REVERT JUMPDEST POP PUSH1 0xD5 SLOAD PUSH2 0x634 SWAP1 PUSH2 0x100 SWAP1 DIV PUSH1 0xFF AND DUP2 JUMP JUMPDEST PUSH1 0x40 MLOAD SWAP1 ISZERO ISZERO DUP2 MSTORE PUSH1 0x20 ADD PUSH2 0x2EB JUMP JUMPDEST CALLVALUE DUP1 ISZERO PUSH2 0x650 JUMPI PUSH1 0x0 DUP1 REVERT JUMPDEST POP PUSH2 0x314 PUSH2 0x1EDF JUMP JUMPDEST CALLVALUE DUP1 ISZERO PUSH2 0x665 JUMPI PUSH1 0x0 DUP1 REVERT JUMPDEST POP PUSH2 0x314 PUSH2 0x674 CALLDATASIZE PUSH1 0x4 PUSH2 0x5647 JUMP JUMPDEST PUSH2 0x1EF3 JUMP JUMPDEST CALLVALUE DUP1 ISZERO PUSH2 0x685 JUMPI PUSH1 0x0 DUP1 REVERT JUMPDEST POP PUSH2 0x438 PUSH2 0x694 CALLDATASIZE PUSH1 0x4 PUSH2 0x5115 JUMP JUMPDEST PUSH2 0x201E JUMP JUMPDEST CALLVALUE DUP1 ISZERO PUSH2 0x6A5 JUMPI PUSH1 0x0 DUP1 REVERT JUMPDEST POP PUSH2 0x6B9 PUSH2 0x6B4 CALLDATASIZE PUSH1 0x4 PUSH2 0x5067 JUMP JUMPDEST PUSH2 0x2056 JUMP JUMPDEST PUSH1 0x40 MLOAD PUSH2 0x2EB SWAP2 SWAP1 PUSH2 0x56B3 JUMP JUMPDEST CALLVALUE DUP1 ISZERO PUSH2 0x6D2 JUMPI PUSH1 0x0 DUP1 REVERT JUMPDEST POP PUSH2 0x396 PUSH1 0xCE SLOAD DUP2 JUMP JUMPDEST CALLVALUE DUP1 ISZERO PUSH2 0x6E8 JUMPI PUSH1 0x0 DUP1 REVERT JUMPDEST POP PUSH2 0x314 PUSH2 0x6F7 CALLDATASIZE PUSH1 0x4 PUSH2 0x5761 JUMP JUMPDEST PUSH2 0x2255 JUMP JUMPDEST CALLVALUE DUP1 ISZERO PUSH2 0x708 JUMPI PUSH1 0x0 DUP1 REVERT JUMPDEST POP PUSH2 0x314 PUSH2 0x2524 JUMP JUMPDEST CALLVALUE DUP1 ISZERO PUSH2 0x71D JUMPI PUSH1 0x0 DUP1 REVERT JUMPDEST POP PUSH2 0x396 PUSH1 0xCD SLOAD DUP2 JUMP JUMPDEST CALLVALUE DUP1 ISZERO PUSH2 0x733 JUMPI PUSH1 0x0 DUP1 REVERT JUMPDEST POP PUSH2 0x314 PUSH2 0x742 CALLDATASIZE PUSH1 0x4 PUSH2 0x5647 JUMP JUMPDEST PUSH2 0x27BC JUMP JUMPDEST CALLVALUE DUP1 ISZERO PUSH2 0x753 JUMPI PUSH1 0x0 DUP1 REVERT JUMPDEST POP PUSH1 0xD5 SLOAD PUSH2 0x634 SWAP1 PUSH1 0xFF AND DUP2 JUMP JUMPDEST CALLVALUE DUP1 ISZERO PUSH2 0x76D JUMPI PUSH1 0x0 DUP1 REVERT JUMPDEST POP PUSH1 0x33 SLOAD PUSH1 0x1 PUSH1 0x1 PUSH1 0xA0 SHL SUB AND PUSH2 0x336 JUMP JUMPDEST CALLVALUE DUP1 ISZERO PUSH2 0x78B JUMPI PUSH1 0x0 DUP1 REVERT JUMPDEST POP PUSH2 0x396 PUSH1 0xCC SLOAD DUP2 JUMP JUMPDEST CALLVALUE DUP1 ISZERO PUSH2 0x7A1 JUMPI PUSH1 0x0 DUP1 REVERT JUMPDEST POP PUSH2 0x314 PUSH2 0x7B0 CALLDATASIZE PUSH1 0x4 PUSH2 0x5647 JUMP JUMPDEST PUSH2 0x28E7 JUMP JUMPDEST CALLVALUE DUP1 ISZERO PUSH2 0x7C1 JUMPI PUSH1 0x0 DUP1 REVERT JUMPDEST POP PUSH2 0x314 PUSH2 0x7D0 CALLDATASIZE PUSH1 0x4 PUSH2 0x50E9 JUMP JUMPDEST PUSH2 0x2A1D JUMP JUMPDEST PUSH2 0x314 PUSH2 0x7E3 CALLDATASIZE PUSH1 0x4 PUSH2 0x5140 JUMP JUMPDEST PUSH2 0x2A96 JUMP JUMPDEST CALLVALUE DUP1 ISZERO PUSH2 0x7F4 JUMPI PUSH1 0x0 DUP1 REVERT JUMPDEST POP PUSH1 0xCF SLOAD PUSH2 0x36F SWAP1 PUSH6 0x10000000000 SWAP1 DIV PUSH1 0xFF AND DUP2 JUMP JUMPDEST CALLVALUE DUP1 ISZERO PUSH2 0x817 JUMPI PUSH1 0x0 DUP1 REVERT JUMPDEST POP PUSH2 0x314 PUSH2 0x826 CALLDATASIZE PUSH1 0x4 PUSH2 0x57C3 JUMP JUMPDEST PUSH2 0x2D2E JUMP JUMPDEST PUSH2 0x314 PUSH2 0x839 CALLDATASIZE PUSH1 0x4 PUSH2 0x5140 JUMP JUMPDEST PUSH2 0x2D4E JUMP JUMPDEST CALLVALUE DUP1 ISZERO PUSH2 0x84A JUMPI PUSH1 0x0 DUP1 REVERT JUMPDEST POP PUSH1 0xD5 SLOAD PUSH2 0x36F SWAP1 PUSH3 0x10000 SWAP1 DIV PUSH1 0xFF AND DUP2 JUMP JUMPDEST CALLVALUE DUP1 ISZERO PUSH2 0x86A JUMPI PUSH1 0x0 DUP1 REVERT JUMPDEST POP PUSH2 0x314 PUSH2 0x879 CALLDATASIZE PUSH1 0x4 PUSH2 0x57E7 JUMP JUMPDEST PUSH2 0x2FF2 JUMP JUMPDEST CALLVALUE DUP1 ISZERO PUSH2 0x88A JUMPI PUSH1 0x0 DUP1 REVERT JUMPDEST POP PUSH2 0x314 PUSH2 0x899 CALLDATASIZE PUSH1 0x4 PUSH2 0x54B6 JUMP JUMPDEST PUSH2 0x3006 JUMP JUMPDEST CALLVALUE DUP1 ISZERO PUSH2 0x8AA JUMPI PUSH1 0x0 DUP1 REVERT JUMPDEST POP PUSH2 0x396 PUSH1 0xD2 SLOAD DUP2 JUMP JUMPDEST CALLVALUE DUP1 ISZERO PUSH2 0x8C0 JUMPI PUSH1 0x0 DUP1 REVERT JUMPDEST POP PUSH1 0xCF SLOAD PUSH2 0x634 SWAP1 PUSH5 0x100000000 SWAP1 DIV PUSH1 0xFF AND DUP2 JUMP JUMPDEST CALLVALUE DUP1 ISZERO PUSH2 0x8E2 JUMPI PUSH1 0x0 DUP1 REVERT JUMPDEST POP PUSH2 0x8F6 PUSH2 0x8F1 CALLDATASIZE PUSH1 0x4 PUSH2 0x54B6 JUMP JUMPDEST PUSH2 0x307C JUMP JUMPDEST PUSH1 0x40 MLOAD PUSH2 0x2EB SWAP2 SWAP1 PUSH2 0x5829 JUMP JUMPDEST PUSH1 0xFF DUP2 AND PUSH1 0x0 SWAP1 DUP2 MSTORE PUSH1 0xD8 PUSH1 0x20 SWAP1 DUP2 MSTORE PUSH1 0x40 SWAP2 DUP3 SWAP1 KECCAK256 PUSH1 0x9 ADD DUP1 SLOAD DUP4 MLOAD DUP2 DUP5 MUL DUP2 ADD DUP5 ADD SWAP1 SWAP5 MSTORE DUP1 DUP5 MSTORE PUSH1 0x60 SWAP4 SWAP3 DUP4 ADD DUP3 DUP3 DUP1 ISZERO PUSH2 0x98C JUMPI PUSH1 0x20 MUL DUP3 ADD SWAP2 SWAP1 PUSH1 0x0 MSTORE PUSH1 0x20 PUSH1 0x0 KECCAK256 SWAP1 PUSH1 0x0 SWAP1 JUMPDEST DUP3 DUP3 SWAP1 SLOAD SWAP1 PUSH2 0x100 EXP SWAP1 DIV PUSH4 0xFFFFFFFF AND PUSH4 0xFFFFFFFF AND DUP2 MSTORE PUSH1 0x20 ADD SWAP1 PUSH1 0x4 ADD SWAP1 PUSH1 0x20 DUP3 PUSH1 0x3 ADD DIV SWAP3 DUP4 ADD SWAP3 PUSH1 0x1 SUB DUP3 MUL SWAP2 POP DUP1 DUP5 GT PUSH2 0x94F JUMPI SWAP1 POP JUMPDEST POP POP POP POP POP SWAP1 POP SWAP2 SWAP1 POP JUMP JUMPDEST PUSH2 0x9A0 PUSH2 0x31E2 JUMP JUMPDEST PUSH1 0x40 MLOAD PUSH1 0x1 PUSH1 0x1 PUSH1 0xA0 SHL SUB DUP4 AND SWAP1 DUP3 ISZERO PUSH2 0x8FC MUL SWAP1 DUP4 SWAP1 PUSH1 0x0 DUP2 DUP2 DUP2 DUP6 DUP9 DUP9 CALL SWAP4 POP POP POP POP ISZERO DUP1 ISZERO PUSH2 0x9D6 JUMPI RETURNDATASIZE PUSH1 0x0 DUP1 RETURNDATACOPY RETURNDATASIZE PUSH1 0x0 REVERT JUMPDEST POP POP POP JUMP JUMPDEST PUSH1 0xD3 DUP2 DUP2 SLOAD DUP2 LT PUSH2 0x9EB JUMPI PUSH1 0x0 DUP1 REVERT JUMPDEST PUSH1 0x0 SWAP2 DUP3 MSTORE PUSH1 0x20 SWAP1 SWAP2 KECCAK256 ADD SLOAD PUSH1 0x1 PUSH1 0x1 PUSH1 0xA0 SHL SUB AND SWAP1 POP DUP2 JUMP JUMPDEST PUSH1 0x0 PUSH2 0xA12 PUSH1 0xCC SLOAD PUSH2 0x323C JUMP JUMPDEST SWAP1 POP SWAP1 JUMP JUMPDEST PUSH2 0xB4D PUSH1 0x40 MLOAD DUP1 PUSH2 0x480 ADD PUSH1 0x40 MSTORE DUP1 PUSH1 0x0 PUSH4 0xFFFFFFFF AND DUP2 MSTORE PUSH1 0x20 ADD PUSH1 0x60 DUP2 MSTORE PUSH1 0x20 ADD PUSH1 0x0 DUP2 MSTORE PUSH1 0x20 ADD PUSH1 0x0 ISZERO ISZERO DUP2 MSTORE PUSH1 0x20 ADD PUSH1 0x0 PUSH1 0x1 PUSH1 0x1 PUSH1 0xA0 SHL SUB AND DUP2 MSTORE PUSH1 0x20 ADD PUSH1 0x0 PUSH4 0xFFFFFFFF AND DUP2 MSTORE PUSH1 0x20 ADD PUSH1 0x0 ISZERO ISZERO DUP2 MSTORE PUSH1 0x20 ADD PUSH1 0x60 DUP2 MSTORE PUSH1 0x20 ADD PUSH1 0x60 DUP2 MSTORE PUSH1 0x20 ADD PUSH1 0x60 DUP2 MSTORE PUSH1 0x20 ADD PUSH1 0x60 DUP2 MSTORE PUSH1 0x20 ADD PUSH1 0x0 DUP2 MSTORE PUSH1 0x20 ADD PUSH1 0x0 DUP2 MSTORE PUSH1 0x20 ADD PUSH1 0x0 DUP2 MSTORE PUSH1 0x20 ADD PUSH1 0x0 DUP2 MSTORE PUSH1 0x20 ADD PUSH1 0x0 DUP2 MSTORE PUSH1 0x20 ADD PUSH1 0x0 DUP2 MSTORE PUSH1 0x20 ADD PUSH1 0x0 DUP2 MSTORE PUSH1 0x20 ADD PUSH1 0x0 DUP2 MSTORE PUSH1 0x20 ADD PUSH1 0x0 PUSH1 0xFF AND DUP2 MSTORE PUSH1 0x20 ADD PUSH1 0x0 PUSH4 0xFFFFFFFF AND DUP2 MSTORE PUSH1 0x20 ADD PUSH1 0x0 DUP2 MSTORE PUSH1 0x20 ADD PUSH1 0x0 DUP2 MSTORE PUSH1 0x20 ADD PUSH1 0x0 DUP2 MSTORE PUSH1 0x20 ADD PUSH1 0x0 DUP2 MSTORE PUSH1 0x20 ADD PUSH1 0x0 DUP2 MSTORE PUSH1 0x20 ADD PUSH1 0x0 DUP2 MSTORE PUSH1 0x20 ADD PUSH1 0x0 DUP2 MSTORE PUSH1 0x20 ADD PUSH1 0x60 DUP2 MSTORE PUSH1 0x20 ADD PUSH1 0x0 DUP2 MSTORE PUSH1 0x20 ADD PUSH1 0x0 DUP2 MSTORE PUSH1 0x20 ADD PUSH1 0x0 DUP2 MSTORE PUSH1 0x20 ADD PUSH1 0x0 ISZERO ISZERO DUP2 MSTORE PUSH1 0x20 ADD PUSH1 0x0 ISZERO ISZERO DUP2 MSTORE PUSH1 0x20 ADD PUSH1 0x0 ISZERO ISZERO DUP2 MSTORE PUSH1 0x20 ADD PUSH1 0x0 ISZERO ISZERO DUP2 MSTORE POP SWAP1 JUMP JUMPDEST PUSH4 0xFFFFFFFF DUP1 DUP4 AND PUSH1 0x0 SWAP1 DUP2 MSTORE PUSH1 0xD7 PUSH1 0x20 SWAP1 DUP2 MSTORE PUSH1 0x40 SWAP2 DUP3 SWAP1 KECCAK256 DUP3 MLOAD PUSH2 0x480 DUP2 ADD SWAP1 SWAP4 MSTORE DUP1 SLOAD SWAP1 SWAP4 AND DUP3 MSTORE PUSH1 0x1 DUP4 ADD DUP1 SLOAD SWAP3 SWAP4 SWAP3 SWAP2 DUP5 ADD SWAP2 PUSH2 0xB8E SWAP1 PUSH2 0x586E JUMP JUMPDEST DUP1 PUSH1 0x1F ADD PUSH1 0x20 DUP1 SWAP2 DIV MUL PUSH1 0x20 ADD PUSH1 0x40 MLOAD SWAP1 DUP2 ADD PUSH1 0x40 MSTORE DUP1 SWAP3 SWAP2 SWAP1 DUP2 DUP2 MSTORE PUSH1 0x20 ADD DUP3 DUP1 SLOAD PUSH2 0xBBA SWAP1 PUSH2 0x586E JUMP JUMPDEST DUP1 ISZERO PUSH2 0xC07 JUMPI DUP1 PUSH1 0x1F LT PUSH2 0xBDC JUMPI PUSH2 0x100 DUP1 DUP4 SLOAD DIV MUL DUP4 MSTORE SWAP2 PUSH1 0x20 ADD SWAP2 PUSH2 0xC07 JUMP JUMPDEST DUP3 ADD SWAP2 SWAP1 PUSH1 0x0 MSTORE PUSH1 0x20 PUSH1 0x0 KECCAK256 SWAP1 JUMPDEST DUP2 SLOAD DUP2 MSTORE SWAP1 PUSH1 0x1 ADD SWAP1 PUSH1 0x20 ADD DUP1 DUP4 GT PUSH2 0xBEA JUMPI DUP3 SWAP1 SUB PUSH1 0x1F AND DUP3 ADD SWAP2 JUMPDEST POP POP POP SWAP2 DUP4 MSTORE POP POP PUSH1 0x2 DUP3 ADD SLOAD PUSH1 0x20 DUP1 DUP4 ADD SWAP2 SWAP1 SWAP2 MSTORE PUSH1 0x3 DUP4 ADD SLOAD PUSH1 0xFF DUP1 DUP3 AND ISZERO ISZERO PUSH1 0x40 DUP1 DUP7 ADD SWAP2 SWAP1 SWAP2 MSTORE PUSH1 0x1 PUSH1 0x1 PUSH1 0xA0 SHL SUB PUSH2 0x100 DUP5 DIV AND PUSH1 0x60 DUP7 ADD MSTORE PUSH4 0xFFFFFFFF PUSH1 0x1 PUSH1 0xA8 SHL DUP5 DIV AND PUSH1 0x80 DUP7 ADD MSTORE PUSH1 0x1 PUSH1 0xC8 SHL SWAP1 SWAP3 DIV AND ISZERO ISZERO PUSH1 0xA0 DUP5 ADD MSTORE PUSH1 0x4 DUP5 ADD DUP1 SLOAD DUP3 MLOAD DUP2 DUP6 MUL DUP2 ADD DUP6 ADD SWAP1 SWAP4 MSTORE DUP1 DUP4 MSTORE PUSH1 0xC0 SWAP1 SWAP5 ADD SWAP4 SWAP2 SWAP3 SWAP1 SWAP2 SWAP1 DUP4 ADD DUP3 DUP3 DUP1 ISZERO PUSH2 0xCE2 JUMPI PUSH1 0x20 MUL DUP3 ADD SWAP2 SWAP1 PUSH1 0x0 MSTORE PUSH1 0x20 PUSH1 0x0 KECCAK256 SWAP1 PUSH1 0x0 SWAP1 JUMPDEST DUP3 DUP3 SWAP1 SLOAD SWAP1 PUSH2 0x100 EXP SWAP1 DIV PUSH4 0xFFFFFFFF AND PUSH4 0xFFFFFFFF AND DUP2 MSTORE PUSH1 0x20 ADD SWAP1 PUSH1 0x4 ADD SWAP1 PUSH1 0x20 DUP3 PUSH1 0x3 ADD DIV SWAP3 DUP4 ADD SWAP3 PUSH1 0x1 SUB DUP3 MUL SWAP2 POP DUP1 DUP5 GT PUSH2 0xCA5 JUMPI SWAP1 POP JUMPDEST POP POP POP POP POP DUP2 MSTORE PUSH1 0x20 ADD PUSH1 0x5 DUP3 ADD DUP1 SLOAD DUP1 PUSH1 0x20 MUL PUSH1 0x20 ADD PUSH1 0x40 MLOAD SWAP1 DUP2 ADD PUSH1 0x40 MSTORE DUP1 SWAP3 SWAP2 SWAP1 DUP2 DUP2 MSTORE PUSH1 0x20 ADD DUP3 DUP1 SLOAD DUP1 ISZERO PUSH2 0xD66 JUMPI PUSH1 0x20 MUL DUP3 ADD SWAP2 SWAP1 PUSH1 0x0 MSTORE PUSH1 0x20 PUSH1 0x0 KECCAK256 SWAP1 PUSH1 0x0 SWAP1 JUMPDEST DUP3 DUP3 SWAP1 SLOAD SWAP1 PUSH2 0x100 EXP SWAP1 DIV PUSH4 0xFFFFFFFF AND PUSH4 0xFFFFFFFF AND DUP2 MSTORE PUSH1 0x20 ADD SWAP1 PUSH1 0x4 ADD SWAP1 PUSH1 0x20 DUP3 PUSH1 0x3 ADD DIV SWAP3 DUP4 ADD SWAP3 PUSH1 0x1 SUB DUP3 MUL SWAP2 POP DUP1 DUP5 GT PUSH2 0xD29 JUMPI SWAP1 POP JUMPDEST POP POP POP POP POP DUP2 MSTORE PUSH1 0x20 ADD PUSH1 0x6 DUP3 ADD DUP1 SLOAD DUP1 PUSH1 0x20 MUL PUSH1 0x20 ADD PUSH1 0x40 MLOAD SWAP1 DUP2 ADD PUSH1 0x40 MSTORE DUP1 SWAP3 SWAP2 SWAP1 DUP2 DUP2 MSTORE PUSH1 0x20 ADD DUP3 DUP1 SLOAD DUP1 ISZERO PUSH2 0xDEA JUMPI PUSH1 0x20 MUL DUP3 ADD SWAP2 SWAP1 PUSH1 0x0 MSTORE PUSH1 0x20 PUSH1 0x0 KECCAK256 SWAP1 PUSH1 0x0 SWAP1 JUMPDEST DUP3 DUP3 SWAP1 SLOAD SWAP1 PUSH2 0x100 EXP SWAP1 DIV PUSH4 0xFFFFFFFF AND PUSH4 0xFFFFFFFF AND DUP2 MSTORE PUSH1 0x20 ADD SWAP1 PUSH1 0x4 ADD SWAP1 PUSH1 0x20 DUP3 PUSH1 0x3 ADD DIV SWAP3 DUP4 ADD SWAP3 PUSH1 0x1 SUB DUP3 MUL SWAP2 POP DUP1 DUP5 GT PUSH2 0xDAD JUMPI SWAP1 POP JUMPDEST POP POP POP POP POP DUP2 MSTORE PUSH1 0x20 ADD PUSH1 0x7 DUP3 ADD DUP1 SLOAD DUP1 PUSH1 0x20 MUL PUSH1 0x20 ADD PUSH1 0x40 MLOAD SWAP1 DUP2 ADD PUSH1 0x40 MSTORE DUP1 SWAP3 SWAP2 SWAP1 DUP2 DUP2 MSTORE PUSH1 0x20 ADD DUP3 DUP1 SLOAD DUP1 ISZERO PUSH2 0xE42 JUMPI PUSH1 0x20 MUL DUP3 ADD SWAP2 SWAP1 PUSH1 0x0 MSTORE PUSH1 0x20 PUSH1 0x0 KECCAK256 SWAP1 JUMPDEST DUP2 SLOAD DUP2 MSTORE PUSH1 0x20 ADD SWAP1 PUSH1 0x1 ADD SWAP1 DUP1 DUP4 GT PUSH2 0xE2E JUMPI JUMPDEST POP POP POP SWAP2 DUP4 MSTORE POP POP PUSH1 0x8 DUP3 ADD SLOAD PUSH1 0x20 DUP1 DUP4 ADD SWAP2 SWAP1 SWAP2 MSTORE PUSH1 0x9 DUP4 ADD SLOAD PUSH1 0x40 DUP1 DUP5 ADD SWAP2 SWAP1 SWAP2 MSTORE PUSH1 0xA DUP5 ADD SLOAD PUSH1 0x60 DUP5 ADD MSTORE PUSH1 0xB DUP5 ADD SLOAD PUSH1 0x80 DUP5 ADD MSTORE PUSH1 0xC DUP5 ADD SLOAD PUSH1 0xA0 DUP5 ADD MSTORE PUSH1 0xD DUP5 ADD SLOAD PUSH1 0xC0 DUP5 ADD MSTORE PUSH1 0xE DUP5 ADD SLOAD PUSH1 0xE0 DUP5 ADD MSTORE PUSH1 0xF DUP5 ADD SLOAD PUSH2 0x100 DUP1 DUP6 ADD SWAP2 SWAP1 SWAP2 MSTORE PUSH1 0x10 DUP6 ADD SLOAD PUSH1 0xFF DUP2 AND PUSH2 0x120 DUP7 ADD MSTORE DIV PUSH4 0xFFFFFFFF AND PUSH2 0x140 DUP5 ADD MSTORE PUSH1 0x11 DUP5 ADD SLOAD PUSH2 0x160 DUP5 ADD MSTORE PUSH1 0x12 DUP5 ADD SLOAD PUSH2 0x180 DUP5 ADD MSTORE PUSH1 0x13 DUP5 ADD SLOAD PUSH2 0x1A0 DUP5 ADD MSTORE PUSH1 0x14 DUP5 ADD SLOAD PUSH2 0x1C0 DUP5 ADD MSTORE PUSH1 0x15 DUP5 ADD SLOAD PUSH2 0x1E0 DUP5 ADD MSTORE PUSH1 0x16 DUP5 ADD SLOAD PUSH2 0x200 DUP5 ADD MSTORE PUSH1 0x17 DUP5 ADD SLOAD PUSH2 0x220 DUP5 ADD MSTORE PUSH1 0x18 DUP5 ADD DUP1 SLOAD DUP3 MLOAD DUP2 DUP6 MUL DUP2 ADD DUP6 ADD SWAP1 SWAP4 MSTORE DUP1 DUP4 MSTORE PUSH2 0x240 SWAP1 SWAP5 ADD SWAP4 SWAP2 SWAP3 SWAP1 SWAP2 SWAP1 DUP4 ADD DUP3 DUP3 DUP1 ISZERO PUSH2 0xF8C JUMPI PUSH1 0x20 MUL DUP3 ADD SWAP2 SWAP1 PUSH1 0x0 MSTORE PUSH1 0x20 PUSH1 0x0 KECCAK256 SWAP1 PUSH1 0x0 SWAP1 JUMPDEST DUP3 DUP3 SWAP1 SLOAD SWAP1 PUSH2 0x100 EXP SWAP1 DIV PUSH4 0xFFFFFFFF AND PUSH4 0xFFFFFFFF AND DUP2 MSTORE PUSH1 0x20 ADD SWAP1 PUSH1 0x4 ADD SWAP1 PUSH1 0x20 DUP3 PUSH1 0x3 ADD DIV SWAP3 DUP4 ADD SWAP3 PUSH1 0x1 SUB DUP3 MUL SWAP2 POP DUP1 DUP5 GT PUSH2 0xF4F JUMPI SWAP1 POP JUMPDEST POP POP POP SWAP2 DUP4 MSTORE POP POP PUSH1 0x19 DUP3 ADD SLOAD PUSH1 0x20 DUP3 ADD MSTORE PUSH1 0x1A DUP3 ADD SLOAD PUSH1 0x40 DUP3 ADD MSTORE PUSH1 0x1B DUP3 ADD SLOAD PUSH1 0x60 DUP3 ADD MSTORE PUSH1 0x1C SWAP1 SWAP2 ADD SLOAD PUSH1 0xFF DUP1 DUP3 AND ISZERO ISZERO PUSH1 0x80 DUP5 ADD MSTORE PUSH2 0x100 DUP3 DIV DUP2 AND ISZERO ISZERO PUSH1 0xA0 DUP5 ADD MSTORE PUSH3 0x10000 DUP3 DIV DUP2 AND ISZERO ISZERO PUSH1 0xC0 DUP5 ADD MSTORE PUSH4 0x1000000 SWAP1 SWAP2 DIV AND ISZERO ISZERO PUSH1 0xE0 SWAP1 SWAP2 ADD MSTORE SWAP3 SWAP2 POP POP JUMP JUMPDEST PUSH4 0xFFFFFFFF DUP2 AND PUSH1 0x0 SWAP1 DUP2 MSTORE PUSH1 0xD7 PUSH1 0x20 MSTORE PUSH1 0x40 SWAP1 DUP2 SWAP1 KECCAK256 PUSH1 0xC9 SLOAD SWAP2 MLOAD PUSH4 0x935E01B PUSH1 0xE2 SHL DUP2 MSTORE CALLER PUSH1 0x4 DUP3 ADD MSTORE SWAP1 SWAP2 PUSH1 0x1 PUSH1 0x1 PUSH1 0xA0 SHL SUB AND SWAP1 PUSH4 0x24D7806C SWAP1 PUSH1 0x24 ADD PUSH1 0x20 PUSH1 0x40 MLOAD DUP1 DUP4 SUB DUP2 DUP7 GAS STATICCALL ISZERO DUP1 ISZERO PUSH2 0x1056 JUMPI RETURNDATASIZE PUSH1 0x0 DUP1 RETURNDATACOPY RETURNDATASIZE PUSH1 0x0 REVERT JUMPDEST POP POP POP POP PUSH1 0x40 MLOAD RETURNDATASIZE PUSH1 0x1F NOT PUSH1 0x1F DUP3 ADD AND DUP3 ADD DUP1 PUSH1 0x40 MSTORE POP DUP2 ADD SWAP1 PUSH2 0x107A SWAP2 SWAP1 PUSH2 0x58B6 JUMP JUMPDEST PUSH2 0x11B9 JUMPI PUSH1 0x3 DUP2 ADD SLOAD PUSH2 0x100 SWAP1 DIV PUSH1 0x1 PUSH1 0x1 PUSH1 0xA0 SHL SUB AND CALLER EQ PUSH2 0x10E4 JUMPI PUSH1 0x40 MLOAD PUSH3 0x461BCD PUSH1 0xE5 SHL DUP2 MSTORE PUSH1 0x20 PUSH1 0x4 DUP3 ADD MSTORE PUSH1 0x1D PUSH1 0x24 DUP3 ADD MSTORE PUSH32 0x596F7520617265206E6F74206F776E6572206F6620746869732069642E000000 PUSH1 0x44 DUP3 ADD MSTORE PUSH1 0x64 ADD JUMPDEST PUSH1 0x40 MLOAD DUP1 SWAP2 SUB SWAP1 REVERT JUMPDEST PUSH8 0x8AC7230489E80000 DUP2 PUSH1 0x1B ADD SLOAD LT ISZERO PUSH2 0x114C JUMPI PUSH1 0x40 MLOAD PUSH3 0x461BCD PUSH1 0xE5 SHL DUP2 MSTORE PUSH1 0x20 PUSH1 0x4 DUP3 ADD MSTORE PUSH1 0x24 DUP1 DUP3 ADD MSTORE PUSH32 0x42616C616E6365206973206C657373207468616E206D696E2077697468647261 PUSH1 0x44 DUP3 ADD MSTORE PUSH4 0x3BB0B617 PUSH1 0xE1 SHL PUSH1 0x64 DUP3 ADD MSTORE PUSH1 0x84 ADD PUSH2 0x10DB JUMP JUMPDEST PUSH1 0x1C DUP2 ADD SLOAD PUSH4 0x1000000 SWAP1 DIV PUSH1 0xFF AND PUSH2 0x11B9 JUMPI PUSH1 0x40 MLOAD PUSH3 0x461BCD PUSH1 0xE5 SHL DUP2 MSTORE PUSH1 0x20 PUSH1 0x4 DUP3 ADD MSTORE PUSH1 0x29 PUSH1 0x24 DUP3 ADD MSTORE PUSH32 0x54686973206964207769746864726177206973206E6F7420656E61626C656420 PUSH1 0x44 DUP3 ADD MSTORE PUSH9 0x313C9030B236B4B717 PUSH1 0xB9 SHL PUSH1 0x64 DUP3 ADD MSTORE PUSH1 0x84 ADD PUSH2 0x10DB JUMP JUMPDEST PUSH1 0x1B DUP2 ADD SLOAD PUSH1 0xD5 SLOAD PUSH1 0x0 SWAP1 PUSH1 0x64 SWAP1 PUSH2 0x11DA SWAP1 PUSH3 0x10000 SWAP1 DIV PUSH1 0xFF AND DUP5 PUSH2 0x58E9 JUMP JUMPDEST PUSH2 0x11E4 SWAP2 SWAP1 PUSH2 0x5900 JUMP JUMPDEST SWAP1 POP PUSH1 0xC9 PUSH1 0x0 SWAP1 SLOAD SWAP1 PUSH2 0x100 EXP SWAP1 DIV PUSH1 0x1 PUSH1 0x1 PUSH1 0xA0 SHL SUB AND PUSH1 0x1 PUSH1 0x1 PUSH1 0xA0 SHL SUB AND PUSH3 0xF9CC66 PUSH1 0x40 MLOAD DUP2 PUSH4 0xFFFFFFFF AND PUSH1 0xE0 SHL DUP2 MSTORE PUSH1 0x4 ADD PUSH1 0x20 PUSH1 0x40 MLOAD DUP1 DUP4 SUB DUP2 DUP7 GAS STATICCALL ISZERO DUP1 ISZERO PUSH2 0x1238 JUMPI RETURNDATASIZE PUSH1 0x0 DUP1 RETURNDATACOPY RETURNDATASIZE PUSH1 0x0 REVERT JUMPDEST POP POP POP POP PUSH1 0x40 MLOAD RETURNDATASIZE PUSH1 0x1F NOT PUSH1 0x1F DUP3 ADD AND DUP3 ADD DUP1 PUSH1 0x40 MSTORE POP DUP2 ADD SWAP1 PUSH2 0x125C SWAP2 SWAP1 PUSH2 0x5922 JUMP JUMPDEST PUSH1 0x3 DUP5 ADD SLOAD PUSH1 0x40 MLOAD PUSH4 0x3528777D PUSH1 0xE1 SHL DUP2 MSTORE PUSH1 0x1 PUSH1 0x1 PUSH1 0xA0 SHL SUB PUSH2 0x100 SWAP1 SWAP3 DIV DUP3 AND PUSH1 0x4 DUP3 ADD MSTORE PUSH1 0x24 DUP2 ADD DUP5 SWAP1 MSTORE SWAP2 AND SWAP1 PUSH4 0x6A50EEFA SWAP1 PUSH1 0x44 ADD PUSH1 0x0 PUSH1 0x40 MLOAD DUP1 DUP4 SUB DUP2 PUSH1 0x0 DUP8 DUP1 EXTCODESIZE ISZERO DUP1 ISZERO PUSH2 0x12B0 JUMPI PUSH1 0x0 DUP1 REVERT JUMPDEST POP GAS CALL ISZERO DUP1 ISZERO PUSH2 0x12C4 JUMPI RETURNDATASIZE PUSH1 0x0 DUP1 RETURNDATACOPY RETURNDATASIZE PUSH1 0x0 REVERT JUMPDEST POP POP POP POP PUSH1 0x3 DUP4 ADD SLOAD PUSH2 0x100 SWAP1 DIV PUSH1 0x1 PUSH1 0x1 PUSH1 0xA0 SHL SUB AND PUSH2 0x8FC PUSH2 0x12F0 PUSH2 0x12EB DUP5 DUP7 PUSH2 0x593F JUMP JUMPDEST PUSH2 0x323C JUMP JUMPDEST PUSH1 0x40 MLOAD DUP2 ISZERO SWAP1 SWAP3 MUL SWAP2 PUSH1 0x0 DUP2 DUP2 DUP2 DUP6 DUP9 DUP9 CALL SWAP4 POP POP POP POP ISZERO DUP1 ISZERO PUSH2 0x1318 JUMPI RETURNDATASIZE PUSH1 0x0 DUP1 RETURNDATACOPY RETURNDATASIZE PUSH1 0x0 REVERT JUMPDEST POP DUP3 PUSH1 0x1B ADD PUSH1 0x0 SWAP1 SSTORE POP POP POP POP JUMP JUMPDEST PUSH2 0x132F PUSH2 0x31E2 JUMP JUMPDEST PUSH1 0x40 MLOAD CALLER SWAP1 SELFBALANCE DUP1 ISZERO PUSH2 0x8FC MUL SWAP2 PUSH1 0x0 DUP2 DUP2 DUP2 DUP6 DUP9 DUP9 CALL SWAP4 POP POP POP POP ISZERO DUP1 ISZERO PUSH2 0x135B JUMPI RETURNDATASIZE PUSH1 0x0 DUP1 RETURNDATACOPY RETURNDATASIZE PUSH1 0x0 REVERT JUMPDEST POP JUMP JUMPDEST PUSH1 0x1 PUSH1 0x1 PUSH1 0xA0 SHL SUB PUSH32 0x0 AND ADDRESS SUB PUSH2 0x13A6 JUMPI PUSH1 0x40 MLOAD PUSH3 0x461BCD PUSH1 0xE5 SHL DUP2 MSTORE PUSH1 0x4 ADD PUSH2 0x10DB SWAP1 PUSH2 0x5952 JUMP JUMPDEST PUSH32 0x0 PUSH1 0x1 PUSH1 0x1 PUSH1 0xA0 SHL SUB AND PUSH2 0x13EF PUSH1 0x0 DUP1 MLOAD PUSH1 0x20 PUSH2 0x5BA3 DUP4 CODECOPY DUP2 MLOAD SWAP2 MSTORE SLOAD PUSH1 0x1 PUSH1 0x1 PUSH1 0xA0 SHL SUB AND SWAP1 JUMP JUMPDEST PUSH1 0x1 PUSH1 0x1 PUSH1 0xA0 SHL SUB AND EQ PUSH2 0x1415 JUMPI PUSH1 0x40 MLOAD PUSH3 0x461BCD PUSH1 0xE5 SHL DUP2 MSTORE PUSH1 0x4 ADD PUSH2 0x10DB SWAP1 PUSH2 0x599E JUMP JUMPDEST PUSH2 0x141E DUP2 PUSH2 0x333A JUMP JUMPDEST PUSH1 0x40 DUP1 MLOAD PUSH1 0x0 DUP1 DUP3 MSTORE PUSH1 0x20 DUP3 ADD SWAP1 SWAP3 MSTORE PUSH2 0x135B SWAP2 DUP4 SWAP2 SWAP1 PUSH2 0x3342 JUMP JUMPDEST PUSH1 0xD4 DUP2 DUP2 SLOAD DUP2 LT PUSH2 0x9EB JUMPI PUSH1 0x0 DUP1 REVERT JUMPDEST PUSH2 0x1452 PUSH2 0x31E2 JUMP JUMPDEST PUSH1 0xCB DUP1 SLOAD PUSH1 0xFF SWAP1 SWAP3 AND PUSH3 0x10000 MUL PUSH3 0xFF0000 NOT SWAP1 SWAP3 AND SWAP2 SWAP1 SWAP2 OR SWAP1 SSTORE JUMP JUMPDEST PUSH2 0x1478 PUSH2 0x31E2 JUMP JUMPDEST PUSH1 0xCC SSTORE JUMP JUMPDEST PUSH1 0xC9 SLOAD PUSH1 0x40 MLOAD PUSH4 0x935E01B PUSH1 0xE2 SHL DUP2 MSTORE CALLER PUSH1 0x4 DUP3 ADD MSTORE PUSH1 0x1 PUSH1 0x1 PUSH1 0xA0 SHL SUB SWAP1 SWAP2 AND SWAP1 PUSH4 0x24D7806C SWAP1 PUSH1 0x24 ADD PUSH1 0x20 PUSH1 0x40 MLOAD DUP1 DUP4 SUB DUP2 DUP7 GAS STATICCALL ISZERO DUP1 ISZERO PUSH2 0x14C5 JUMPI RETURNDATASIZE PUSH1 0x0 DUP1 RETURNDATACOPY RETURNDATASIZE PUSH1 0x0 REVERT JUMPDEST POP POP POP POP PUSH1 0x40 MLOAD RETURNDATASIZE PUSH1 0x1F NOT PUSH1 0x1F DUP3 ADD AND DUP3 ADD DUP1 PUSH1 0x40 MSTORE POP DUP2 ADD SWAP1 PUSH2 0x14E9 SWAP2 SWAP1 PUSH2 0x58B6 JUMP JUMPDEST PUSH2 0x1505 JUMPI PUSH1 0x40 MLOAD PUSH3 0x461BCD PUSH1 0xE5 SHL DUP2 MSTORE PUSH1 0x4 ADD PUSH2 0x10DB SWAP1 PUSH2 0x59EA JUMP JUMPDEST PUSH1 0xD5 SLOAD PUSH2 0x100 SWAP1 DIV PUSH1 0xFF AND ISZERO PUSH2 0x151F JUMPI PUSH2 0x151F DUP3 DUP3 PUSH2 0x34AD JUMP JUMPDEST POP POP JUMP JUMPDEST PUSH4 0xFFFFFFFF DUP1 DUP3 AND PUSH1 0x0 SWAP1 DUP2 MSTORE PUSH1 0xD7 PUSH1 0x20 SWAP1 DUP2 MSTORE PUSH1 0x40 DUP1 DUP4 KECCAK256 DUP2 MLOAD PUSH2 0x480 DUP2 ADD SWAP1 SWAP3 MSTORE DUP1 SLOAD SWAP1 SWAP5 AND DUP2 MSTORE PUSH1 0x1 DUP5 ADD DUP1 SLOAD SWAP4 SWAP5 DUP6 SWAP5 DUP6 SWAP5 DUP6 SWAP5 SWAP4 SWAP1 DUP5 ADD SWAP2 PUSH2 0x1569 SWAP1 PUSH2 0x586E JUMP JUMPDEST DUP1 PUSH1 0x1F ADD PUSH1 0x20 DUP1 SWAP2 DIV MUL PUSH1 0x20 ADD PUSH1 0x40 MLOAD SWAP1 DUP2 ADD PUSH1 0x40 MSTORE DUP1 SWAP3 SWAP2 SWAP1 DUP2 DUP2 MSTORE PUSH1 0x20 ADD DUP3 DUP1 SLOAD PUSH2 0x1595 SWAP1 PUSH2 0x586E JUMP JUMPDEST DUP1 ISZERO PUSH2 0x15E2 JUMPI DUP1 PUSH1 0x1F LT PUSH2 0x15B7 JUMPI PUSH2 0x100 DUP1 DUP4 SLOAD DIV MUL DUP4 MSTORE SWAP2 PUSH1 0x20 ADD SWAP2 PUSH2 0x15E2 JUMP JUMPDEST DUP3 ADD SWAP2 SWAP1 PUSH1 0x0 MSTORE PUSH1 0x20 PUSH1 0x0 KECCAK256 SWAP1 JUMPDEST DUP2 SLOAD DUP2 MSTORE SWAP1 PUSH1 0x1 ADD SWAP1 PUSH1 0x20 ADD DUP1 DUP4 GT PUSH2 0x15C5 JUMPI DUP3 SWAP1 SUB PUSH1 0x1F AND DUP3 ADD SWAP2 JUMPDEST POP POP POP SWAP2 DUP4 MSTORE POP POP PUSH1 0x2 DUP3 ADD SLOAD PUSH1 0x20 DUP1 DUP4 ADD SWAP2 SWAP1 SWAP2 MSTORE PUSH1 0x3 DUP4 ADD SLOAD PUSH1 0xFF DUP1 DUP3 AND ISZERO ISZERO PUSH1 0x40 DUP1 DUP7 ADD SWAP2 SWAP1 SWAP2 MSTORE PUSH1 0x1 PUSH1 0x1 PUSH1 0xA0 SHL SUB PUSH2 0x100 DUP5 DIV AND PUSH1 0x60 DUP7 ADD MSTORE PUSH4 0xFFFFFFFF PUSH1 0x1 PUSH1 0xA8 SHL DUP5 DIV AND PUSH1 0x80 DUP7 ADD MSTORE PUSH1 0x1 PUSH1 0xC8 SHL SWAP1 SWAP3 DIV AND ISZERO ISZERO PUSH1 0xA0 DUP5 ADD MSTORE PUSH1 0x4 DUP5 ADD DUP1 SLOAD DUP3 MLOAD DUP2 DUP6 MUL DUP2 ADD DUP6 ADD SWAP1 SWAP4 MSTORE DUP1 DUP4 MSTORE PUSH1 0xC0 SWAP1 SWAP5 ADD SWAP4 SWAP2 SWAP3 SWAP1 SWAP2 SWAP1 DUP4 ADD DUP3 DUP3 DUP1 ISZERO PUSH2 0x16BD JUMPI PUSH1 0x20 MUL DUP3 ADD SWAP2 SWAP1 PUSH1 0x0 MSTORE PUSH1 0x20 PUSH1 0x0 KECCAK256 SWAP1 PUSH1 0x0 SWAP1 JUMPDEST DUP3 DUP3 SWAP1 SLOAD SWAP1 PUSH2 0x100 EXP SWAP1 DIV PUSH4 0xFFFFFFFF AND PUSH4 0xFFFFFFFF AND DUP2 MSTORE PUSH1 0x20 ADD SWAP1 PUSH1 0x4 ADD SWAP1 PUSH1 0x20 DUP3 PUSH1 0x3 ADD DIV SWAP3 DUP4 ADD SWAP3 PUSH1 0x1 SUB DUP3 MUL SWAP2 POP DUP1 DUP5 GT PUSH2 0x1680 JUMPI SWAP1 POP JUMPDEST POP POP POP POP POP DUP2 MSTORE PUSH1 0x20 ADD PUSH1 0x5 DUP3 ADD DUP1 SLOAD DUP1 PUSH1 0x20 MUL PUSH1 0x20 ADD PUSH1 0x40 MLOAD SWAP1 DUP2 ADD PUSH1 0x40 MSTORE DUP1 SWAP3 SWAP2 SWAP1 DUP2 DUP2 MSTORE PUSH1 0x20 ADD DUP3 DUP1 SLOAD DUP1 ISZERO PUSH2 0x1741 JUMPI PUSH1 0x20 MUL DUP3 ADD SWAP2 SWAP1 PUSH1 0x0 MSTORE PUSH1 0x20 PUSH1 0x0 KECCAK256 SWAP1 PUSH1 0x0 SWAP1 JUMPDEST DUP3 DUP3 SWAP1 SLOAD SWAP1 PUSH2 0x100 EXP SWAP1 DIV PUSH4 0xFFFFFFFF AND PUSH4 0xFFFFFFFF AND DUP2 MSTORE PUSH1 0x20 ADD SWAP1 PUSH1 0x4 ADD SWAP1 PUSH1 0x20 DUP3 PUSH1 0x3 ADD DIV SWAP3 DUP4 ADD SWAP3 PUSH1 0x1 SUB DUP3 MUL SWAP2 POP DUP1 DUP5 GT PUSH2 0x1704 JUMPI SWAP1 POP JUMPDEST POP POP POP POP POP DUP2 MSTORE PUSH1 0x20 ADD PUSH1 0x6 DUP3 ADD DUP1 SLOAD DUP1 PUSH1 0x20 MUL PUSH1 0x20 ADD PUSH1 0x40 MLOAD SWAP1 DUP2 ADD PUSH1 0x40 MSTORE DUP1 SWAP3 SWAP2 SWAP1 DUP2 DUP2 MSTORE PUSH1 0x20 ADD DUP3 DUP1 SLOAD DUP1 ISZERO PUSH2 0x17C5 JUMPI PUSH1 0x20 MUL DUP3 ADD SWAP2 SWAP1 PUSH1 0x0 MSTORE PUSH1 0x20 PUSH1 0x0 KECCAK256 SWAP1 PUSH1 0x0 SWAP1 JUMPDEST DUP3 DUP3 SWAP1 SLOAD SWAP1 PUSH2 0x100 EXP SWAP1 DIV PUSH4 0xFFFFFFFF AND PUSH4 0xFFFFFFFF AND DUP2 MSTORE PUSH1 0x20 ADD SWAP1 PUSH1 0x4 ADD SWAP1 PUSH1 0x20 DUP3 PUSH1 0x3 ADD DIV SWAP3 DUP4 ADD SWAP3 PUSH1 0x1 SUB DUP3 MUL SWAP2 POP DUP1 DUP5 GT PUSH2 0x1788 JUMPI SWAP1 POP JUMPDEST POP POP POP POP POP DUP2 MSTORE PUSH1 0x20 ADD PUSH1 0x7 DUP3 ADD DUP1 SLOAD DUP1 PUSH1 0x20 MUL PUSH1 0x20 ADD PUSH1 0x40 MLOAD SWAP1 DUP2 ADD PUSH1 0x40 MSTORE DUP1 SWAP3 SWAP2 SWAP1 DUP2 DUP2 MSTORE PUSH1 0x20 ADD DUP3 DUP1 SLOAD DUP1 ISZERO PUSH2 0x181D JUMPI PUSH1 0x20 MUL DUP3 ADD SWAP2 SWAP1 PUSH1 0x0 MSTORE PUSH1 0x20 PUSH1 0x0 KECCAK256 SWAP1 JUMPDEST DUP2 SLOAD DUP2 MSTORE PUSH1 0x20 ADD SWAP1 PUSH1 0x1 ADD SWAP1 DUP1 DUP4 GT PUSH2 0x1809 JUMPI JUMPDEST POP POP POP SWAP2 DUP4 MSTORE POP POP PUSH1 0x8 DUP3 ADD SLOAD PUSH1 0x20 DUP1 DUP4 ADD SWAP2 SWAP1 SWAP2 MSTORE PUSH1 0x9 DUP4 ADD SLOAD PUSH1 0x40 DUP1 DUP5 ADD SWAP2 SWAP1 SWAP2 MSTORE PUSH1 0xA DUP5 ADD SLOAD PUSH1 0x60 DUP5 ADD MSTORE PUSH1 0xB DUP5 ADD SLOAD PUSH1 0x80 DUP5 ADD MSTORE PUSH1 0xC DUP5 ADD SLOAD PUSH1 0xA0 DUP5 ADD MSTORE PUSH1 0xD DUP5 ADD SLOAD PUSH1 0xC0 DUP5 ADD MSTORE PUSH1 0xE DUP5 ADD SLOAD PUSH1 0xE0 DUP5 ADD MSTORE PUSH1 0xF DUP5 ADD SLOAD PUSH2 0x100 DUP1 DUP6 ADD SWAP2 SWAP1 SWAP2 MSTORE PUSH1 0x10 DUP6 ADD SLOAD PUSH1 0xFF DUP2 AND PUSH2 0x120 DUP7 ADD MSTORE DIV PUSH4 0xFFFFFFFF AND PUSH2 0x140 DUP5 ADD MSTORE PUSH1 0x11 DUP5 ADD SLOAD PUSH2 0x160 DUP5 ADD MSTORE PUSH1 0x12 DUP5 ADD SLOAD PUSH2 0x180 DUP5 ADD MSTORE PUSH1 0x13 DUP5 ADD SLOAD PUSH2 0x1A0 DUP5 ADD MSTORE PUSH1 0x14 DUP5 ADD SLOAD PUSH2 0x1C0 DUP5 ADD MSTORE PUSH1 0x15 DUP5 ADD SLOAD PUSH2 0x1E0 DUP5 ADD MSTORE PUSH1 0x16 DUP5 ADD SLOAD PUSH2 0x200 DUP5 ADD MSTORE PUSH1 0x17 DUP5 ADD SLOAD PUSH2 0x220 DUP5 ADD MSTORE PUSH1 0x18 DUP5 ADD DUP1 SLOAD DUP3 MLOAD DUP2 DUP6 MUL DUP2 ADD DUP6 ADD SWAP1 SWAP4 MSTORE DUP1 DUP4 MSTORE PUSH2 0x240 SWAP1 SWAP5 ADD SWAP4 SWAP2 SWAP3 SWAP1 SWAP2 SWAP1 DUP4 ADD DUP3 DUP3 DUP1 ISZERO PUSH2 0x1967 JUMPI PUSH1 0x20 MUL DUP3 ADD SWAP2 SWAP1 PUSH1 0x0 MSTORE PUSH1 0x20 PUSH1 0x0 KECCAK256 SWAP1 PUSH1 0x0 SWAP1 JUMPDEST DUP3 DUP3 SWAP1 SLOAD SWAP1 PUSH2 0x100 EXP SWAP1 DIV PUSH4 0xFFFFFFFF AND PUSH4 0xFFFFFFFF AND DUP2 MSTORE PUSH1 0x20 ADD SWAP1 PUSH1 0x4 ADD SWAP1 PUSH1 0x20 DUP3 PUSH1 0x3 ADD DIV SWAP3 DUP4 ADD SWAP3 PUSH1 0x1 SUB DUP3 MUL SWAP2 POP DUP1 DUP5 GT PUSH2 0x192A JUMPI SWAP1 POP JUMPDEST POP POP POP SWAP2 DUP4 MSTORE POP POP PUSH1 0x19 DUP3 ADD SLOAD PUSH1 0x20 DUP3 ADD MSTORE PUSH1 0x1A DUP3 ADD SLOAD PUSH1 0x40 DUP3 ADD MSTORE PUSH1 0x1B DUP3 ADD SLOAD PUSH1 0x60 DUP3 ADD MSTORE PUSH1 0x1C SWAP1 SWAP2 ADD SLOAD PUSH1 0xFF DUP1 DUP3 AND ISZERO ISZERO PUSH1 0x80 DUP5 ADD MSTORE PUSH2 0x100 DUP3 DIV DUP2 AND ISZERO ISZERO PUSH1 0xA0 DUP5 ADD MSTORE PUSH3 0x10000 DUP3 DIV DUP2 AND ISZERO ISZERO PUSH1 0xC0 DUP5 ADD MSTORE PUSH4 0x1000000 SWAP1 SWAP2 DIV AND ISZERO ISZERO PUSH1 0xE0 SWAP1 SWAP2 ADD MSTORE PUSH2 0x2C0 DUP2 ADD MLOAD PUSH2 0x2E0 DUP3 ADD MLOAD PUSH2 0x300 SWAP1 SWAP3 ADD MLOAD SWAP1 SWAP8 SWAP2 SWAP7 POP SWAP5 POP SWAP3 POP POP POP JUMP JUMPDEST PUSH1 0x1 PUSH1 0x1 PUSH1 0xA0 SHL SUB PUSH32 0x0 AND ADDRESS SUB PUSH2 0x1A35 JUMPI PUSH1 0x40 MLOAD PUSH3 0x461BCD PUSH1 0xE5 SHL DUP2 MSTORE PUSH1 0x4 ADD PUSH2 0x10DB SWAP1 PUSH2 0x5952 JUMP JUMPDEST PUSH32 0x0 PUSH1 0x1 PUSH1 0x1 PUSH1 0xA0 SHL SUB AND PUSH2 0x1A7E PUSH1 0x0 DUP1 MLOAD PUSH1 0x20 PUSH2 0x5BA3 DUP4 CODECOPY DUP2 MLOAD SWAP2 MSTORE SLOAD PUSH1 0x1 PUSH1 0x1 PUSH1 0xA0 SHL SUB AND SWAP1 JUMP JUMPDEST PUSH1 0x1 PUSH1 0x1 PUSH1 0xA0 SHL SUB AND EQ PUSH2 0x1AA4 JUMPI PUSH1 0x40 MLOAD PUSH3 0x461BCD PUSH1 0xE5 SHL DUP2 MSTORE PUSH1 0x4 ADD PUSH2 0x10DB SWAP1 PUSH2 0x599E JUMP JUMPDEST PUSH2 0x1AAD DUP3 PUSH2 0x333A JUMP JUMPDEST PUSH2 0x151F DUP3 DUP3 PUSH1 0x1 PUSH2 0x3342 JUMP JUMPDEST PUSH1 0xC9 SLOAD PUSH1 0x40 MLOAD PUSH4 0x935E01B PUSH1 0xE2 SHL DUP2 MSTORE CALLER PUSH1 0x4 DUP3 ADD MSTORE PUSH1 0x1 PUSH1 0x1 PUSH1 0xA0 SHL SUB SWAP1 SWAP2 AND SWAP1 PUSH4 0x24D7806C SWAP1 PUSH1 0x24 ADD PUSH1 0x20 PUSH1 0x40 MLOAD DUP1 DUP4 SUB DUP2 DUP7 GAS STATICCALL ISZERO DUP1 ISZERO PUSH2 0x1B01 JUMPI RETURNDATASIZE PUSH1 0x0 DUP1 RETURNDATACOPY RETURNDATASIZE PUSH1 0x0 REVERT JUMPDEST POP POP POP POP PUSH1 0x40 MLOAD RETURNDATASIZE PUSH1 0x1F NOT PUSH1 0x1F DUP3 ADD AND DUP3 ADD DUP1 PUSH1 0x40 MSTORE POP DUP2 ADD SWAP1 PUSH2 0x1B25 SWAP2 SWAP1 PUSH2 0x58B6 JUMP JUMPDEST PUSH2 0x1B41 JUMPI PUSH1 0x40 MLOAD PUSH3 0x461BCD PUSH1 0xE5 SHL DUP2 MSTORE PUSH1 0x4 ADD PUSH2 0x10DB SWAP1 PUSH2 0x59EA JUMP JUMPDEST PUSH4 0xFFFFFFFF DUP3 AND PUSH1 0x0 SWAP1 DUP2 MSTORE PUSH1 0xD7 PUSH1 0x20 MSTORE PUSH1 0x40 DUP2 KECCAK256 TIMESTAMP PUSH1 0x1A DUP3 ADD SSTORE PUSH1 0x19 DUP2 ADD DUP1 SLOAD SWAP2 SWAP3 DUP5 SWAP3 PUSH2 0x1B71 SWAP1 DUP5 SWAP1 PUSH2 0x5A16 JUMP JUMPDEST SWAP1 SWAP2 SSTORE POP PUSH2 0x9D6 SWAP1 POP DUP2 DUP4 PUSH2 0x3BE4 JUMP JUMPDEST PUSH1 0x0 ADDRESS PUSH1 0x1 PUSH1 0x1 PUSH1 0xA0 SHL SUB PUSH32 0x0 AND EQ PUSH2 0x1C21 JUMPI PUSH1 0x40 MLOAD PUSH3 0x461BCD PUSH1 0xE5 SHL DUP2 MSTORE PUSH1 0x20 PUSH1 0x4 DUP3 ADD MSTORE PUSH1 0x38 PUSH1 0x24 DUP3 ADD MSTORE PUSH32 0x555550535570677261646561626C653A206D757374206E6F742062652063616C PUSH1 0x44 DUP3 ADD MSTORE PUSH32 0x6C6564207468726F7567682064656C656761746563616C6C0000000000000000 PUSH1 0x64 DUP3 ADD MSTORE PUSH1 0x84 ADD PUSH2 0x10DB JUMP JUMPDEST POP PUSH1 0x0 DUP1 MLOAD PUSH1 0x20 PUSH2 0x5BA3 DUP4 CODECOPY DUP2 MLOAD SWAP2 MSTORE SWAP1 JUMP JUMPDEST PUSH1 0xC9 SLOAD PUSH1 0x40 MLOAD PUSH4 0x935E01B PUSH1 0xE2 SHL DUP2 MSTORE CALLER PUSH1 0x4 DUP3 ADD MSTORE PUSH1 0x1 PUSH1 0x1 PUSH1 0xA0 SHL SUB SWAP1 SWAP2 AND SWAP1 PUSH4 0x24D7806C SWAP1 PUSH1 0x24 ADD PUSH1 0x20 PUSH1 0x40 MLOAD DUP1 DUP4 SUB DUP2 DUP7 GAS STATICCALL ISZERO DUP1 ISZERO PUSH2 0x1C7C JUMPI RETURNDATASIZE PUSH1 0x0 DUP1 RETURNDATACOPY RETURNDATASIZE PUSH1 0x0 REVERT JUMPDEST POP POP POP POP PUSH1 0x40 MLOAD RETURNDATASIZE PUSH1 0x1F NOT PUSH1 0x1F DUP3 ADD AND DUP3 ADD DUP1 PUSH1 0x40 MSTORE POP DUP2 ADD SWAP1 PUSH2 0x1CA0 SWAP2 SWAP1 PUSH2 0x58B6 JUMP JUMPDEST PUSH2 0x1CBC JUMPI PUSH1 0x40 MLOAD PUSH3 0x461BCD PUSH1 0xE5 SHL DUP2 MSTORE PUSH1 0x4 ADD PUSH2 0x10DB SWAP1 PUSH2 0x59EA JUMP JUMPDEST PUSH4 0xFFFFFFFF DUP3 AND PUSH1 0x0 SWAP1 DUP2 MSTORE PUSH1 0xD7 PUSH1 0x20 MSTORE PUSH1 0x40 SWAP1 KECCAK256 PUSH2 0x9D6 DUP2 DUP4 PUSH2 0x3BE4 JUMP JUMPDEST PUSH1 0xC9 SLOAD PUSH1 0x40 MLOAD PUSH4 0x935E01B PUSH1 0xE2 SHL DUP2 MSTORE CALLER PUSH1 0x4 DUP3 ADD MSTORE PUSH1 0x1 PUSH1 0x1 PUSH1 0xA0 SHL SUB SWAP1 SWAP2 AND SWAP1 PUSH4 0x24D7806C SWAP1 PUSH1 0x24 ADD PUSH1 0x20 PUSH1 0x40 MLOAD DUP1 DUP4 SUB DUP2 DUP7 GAS STATICCALL ISZERO DUP1 ISZERO PUSH2 0x1D23 JUMPI RETURNDATASIZE PUSH1 0x0 DUP1 RETURNDATACOPY RETURNDATASIZE PUSH1 0x0 REVERT JUMPDEST POP POP POP POP PUSH1 0x40 MLOAD RETURNDATASIZE PUSH1 0x1F NOT PUSH1 0x1F DUP3 ADD AND DUP3 ADD DUP1 PUSH1 0x40 MSTORE POP DUP2 ADD SWAP1 PUSH2 0x1D47 SWAP2 SWAP1 PUSH2 0x58B6 JUMP JUMPDEST PUSH2 0x1D63 JUMPI PUSH1 0x40 MLOAD PUSH3 0x461BCD PUSH1 0xE5 SHL DUP2 MSTORE PUSH1 0x4 ADD PUSH2 0x10DB SWAP1 PUSH2 0x59EA JUMP JUMPDEST PUSH1 0x0 JUMPDEST PUSH2 0xFFFF DUP2 AND DUP5 GT ISZERO PUSH2 0x1ED8 JUMPI DUP3 DUP3 DUP3 PUSH2 0xFFFF AND DUP2 DUP2 LT PUSH2 0x1D88 JUMPI PUSH2 0x1D88 PUSH2 0x5A29 JUMP JUMPDEST SWAP1 POP PUSH1 0x20 MUL ADD PUSH1 0x20 DUP2 ADD SWAP1 PUSH2 0x1D9D SWAP2 SWAP1 PUSH2 0x54B6 JUMP JUMPDEST PUSH1 0xD7 PUSH1 0x0 DUP8 DUP8 DUP6 PUSH2 0xFFFF AND DUP2 DUP2 LT PUSH2 0x1DB7 JUMPI PUSH2 0x1DB7 PUSH2 0x5A29 JUMP JUMPDEST SWAP1 POP PUSH1 0x20 MUL ADD PUSH1 0x20 DUP2 ADD SWAP1 PUSH2 0x1DCC SWAP2 SWAP1 PUSH2 0x5140 JUMP JUMPDEST PUSH4 0xFFFFFFFF AND PUSH4 0xFFFFFFFF AND DUP2 MSTORE PUSH1 0x20 ADD SWAP1 DUP2 MSTORE PUSH1 0x20 ADD PUSH1 0x0 KECCAK256 PUSH1 0x3 ADD PUSH1 0x1 PUSH2 0x100 EXP DUP2 SLOAD DUP2 PUSH1 0x1 PUSH1 0x1 PUSH1 0xA0 SHL SUB MUL NOT AND SWAP1 DUP4 PUSH1 0x1 PUSH1 0x1 PUSH1 0xA0 SHL SUB AND MUL OR SWAP1 SSTORE POP PUSH1 0xD6 PUSH1 0x0 DUP5 DUP5 DUP5 PUSH2 0xFFFF AND DUP2 DUP2 LT PUSH2 0x1E27 JUMPI PUSH2 0x1E27 PUSH2 0x5A29 JUMP JUMPDEST SWAP1 POP PUSH1 0x20 MUL ADD PUSH1 0x20 DUP2 ADD SWAP1 PUSH2 0x1E3C SWAP2 SWAP1 PUSH2 0x54B6 JUMP JUMPDEST PUSH1 0x1 PUSH1 0x1 PUSH1 0xA0 SHL SUB AND PUSH1 0x1 PUSH1 0x1 PUSH1 0xA0 SHL SUB AND DUP2 MSTORE PUSH1 0x20 ADD SWAP1 DUP2 MSTORE PUSH1 0x20 ADD PUSH1 0x0 KECCAK256 PUSH1 0x1 ADD DUP6 DUP6 DUP4 PUSH2 0xFFFF AND DUP2 DUP2 LT PUSH2 0x1E75 JUMPI PUSH2 0x1E75 PUSH2 0x5A29 JUMP JUMPDEST SWAP1 POP PUSH1 0x20 MUL ADD PUSH1 0x20 DUP2 ADD SWAP1 PUSH2 0x1E8A SWAP2 SWAP1 PUSH2 0x5140 JUMP JUMPDEST DUP2 SLOAD PUSH1 0x1 DUP2 ADD DUP4 SSTORE PUSH1 0x0 SWAP3 DUP4 MSTORE PUSH1 0x20 SWAP1 SWAP3 KECCAK256 PUSH1 0x8 DUP4 DIV ADD DUP1 SLOAD PUSH1 0x7 SWAP1 SWAP4 AND PUSH1 0x4 MUL PUSH2 0x100 EXP PUSH4 0xFFFFFFFF DUP2 DUP2 MUL NOT SWAP1 SWAP5 AND SWAP3 SWAP1 SWAP4 AND SWAP3 SWAP1 SWAP3 MUL OR SWAP1 SSTORE DUP1 PUSH2 0x1ED0 DUP2 PUSH2 0x5A3F JUMP JUMPDEST SWAP2 POP POP PUSH2 0x1D66 JUMP JUMPDEST POP POP POP POP POP JUMP JUMPDEST PUSH2 0x1EE7 PUSH2 0x31E2 JUMP JUMPDEST PUSH2 0x1EF1 PUSH1 0x0 PUSH2 0x3C6E JUMP JUMPDEST JUMP JUMPDEST PUSH1 0xC9 SLOAD PUSH1 0x40 MLOAD PUSH4 0x935E01B PUSH1 0xE2 SHL DUP2 MSTORE CALLER PUSH1 0x4 DUP3 ADD MSTORE PUSH1 0x1 PUSH1 0x1 PUSH1 0xA0 SHL SUB SWAP1 SWAP2 AND SWAP1 PUSH4 0x24D7806C SWAP1 PUSH1 0x24 ADD PUSH1 0x20 PUSH1 0x40 MLOAD DUP1 DUP4 SUB DUP2 DUP7 GAS STATICCALL ISZERO DUP1 ISZERO PUSH2 0x1F3B JUMPI RETURNDATASIZE PUSH1 0x0 DUP1 RETURNDATACOPY RETURNDATASIZE PUSH1 0x0 REVERT JUMPDEST POP POP POP POP PUSH1 0x40 MLOAD RETURNDATASIZE PUSH1 0x1F NOT PUSH1 0x1F DUP3 ADD AND DUP3 ADD DUP1 PUSH1 0x40 MSTORE POP DUP2 ADD SWAP1 PUSH2 0x1F5F SWAP2 SWAP1 PUSH2 0x58B6 JUMP JUMPDEST PUSH2 0x1F7B JUMPI PUSH1 0x40 MLOAD PUSH3 0x461BCD PUSH1 0xE5 SHL DUP2 MSTORE PUSH1 0x4 ADD PUSH2 0x10DB SWAP1 PUSH2 0x59EA JUMP JUMPDEST PUSH1 0x0 JUMPDEST PUSH2 0xFFFF DUP2 AND DUP5 GT ISZERO PUSH2 0x1ED8 JUMPI DUP3 DUP3 DUP3 PUSH2 0xFFFF AND DUP2 DUP2 LT PUSH2 0x1FA0 JUMPI PUSH2 0x1FA0 PUSH2 0x5A29 JUMP JUMPDEST SWAP1 POP PUSH1 0x20 MUL ADD PUSH1 0x20 DUP2 ADD SWAP1 PUSH2 0x1FB5 SWAP2 SWAP1 PUSH2 0x5A60 JUMP JUMPDEST PUSH1 0xD7 PUSH1 0x0 DUP8 DUP8 DUP6 PUSH2 0xFFFF AND DUP2 DUP2 LT PUSH2 0x1FCF JUMPI PUSH2 0x1FCF PUSH2 0x5A29 JUMP JUMPDEST SWAP1 POP PUSH1 0x20 MUL ADD PUSH1 0x20 DUP2 ADD SWAP1 PUSH2 0x1FE4 SWAP2 SWAP1 PUSH2 0x5140 JUMP JUMPDEST PUSH4 0xFFFFFFFF AND DUP2 MSTORE PUSH1 0x20 DUP2 ADD SWAP2 SWAP1 SWAP2 MSTORE PUSH1 0x40 ADD PUSH1 0x0 KECCAK256 PUSH1 0x1C ADD DUP1 SLOAD PUSH1 0xFF NOT AND SWAP2 ISZERO ISZERO SWAP2 SWAP1 SWAP2 OR SWAP1 SSTORE DUP1 PUSH2 0x2016 DUP2 PUSH2 0x5A3F JUMP JUMPDEST SWAP2 POP POP PUSH2 0x1F7E JUMP JUMPDEST PUSH1 0xCA DUP2 DUP2 SLOAD DUP2 LT PUSH2 0x202E JUMPI PUSH1 0x0 DUP1 REVERT JUMPDEST SWAP1 PUSH1 0x0 MSTORE PUSH1 0x20 PUSH1 0x0 KECCAK256 SWAP1 PUSH1 0x10 SWAP2 DUP3 DUP3 DIV ADD SWAP2 SWAP1 MOD PUSH1 0x2 MUL SWAP2 POP SLOAD SWAP1 PUSH2 0x100 EXP SWAP1 DIV PUSH2 0xFFFF AND DUP2 JUMP JUMPDEST PUSH2 0x20B1 PUSH1 0x40 MLOAD DUP1 PUSH2 0x140 ADD PUSH1 0x40 MSTORE DUP1 PUSH1 0x0 PUSH1 0xFF AND DUP2 MSTORE PUSH1 0x20 ADD PUSH1 0x0 DUP2 MSTORE PUSH1 0x20 ADD PUSH1 0x0 DUP2 MSTORE PUSH1 0x20 ADD PUSH1 0x0 DUP2 MSTORE PUSH1 0x20 ADD PUSH1 0x60 DUP2 MSTORE PUSH1 0x20 ADD PUSH1 0x0 DUP2 MSTORE PUSH1 0x20 ADD PUSH1 0x0 DUP2 MSTORE PUSH1 0x20 ADD PUSH1 0x0 DUP2 MSTORE PUSH1 0x20 ADD PUSH1 0x0 ISZERO ISZERO DUP2 MSTORE PUSH1 0x20 ADD PUSH1 0x60 DUP2 MSTORE POP SWAP1 JUMP JUMPDEST PUSH1 0xFF DUP1 DUP4 AND PUSH1 0x0 SWAP1 DUP2 MSTORE PUSH1 0xD8 PUSH1 0x20 SWAP1 DUP2 MSTORE PUSH1 0x40 SWAP2 DUP3 SWAP1 KECCAK256 DUP3 MLOAD PUSH2 0x140 DUP2 ADD DUP5 MSTORE DUP2 SLOAD SWAP1 SWAP5 AND DUP5 MSTORE PUSH1 0x1 DUP2 ADD SLOAD SWAP2 DUP5 ADD SWAP2 SWAP1 SWAP2 MSTORE PUSH1 0x2 DUP2 ADD SLOAD SWAP2 DUP4 ADD SWAP2 SWAP1 SWAP2 MSTORE PUSH1 0x3 DUP2 ADD SLOAD PUSH1 0x60 DUP4 ADD MSTORE PUSH1 0x4 DUP2 ADD DUP1 SLOAD PUSH1 0x80 DUP5 ADD SWAP2 SWAP1 PUSH2 0x210F SWAP1 PUSH2 0x586E JUMP JUMPDEST DUP1 PUSH1 0x1F ADD PUSH1 0x20 DUP1 SWAP2 DIV MUL PUSH1 0x20 ADD PUSH1 0x40 MLOAD SWAP1 DUP2 ADD PUSH1 0x40 MSTORE DUP1 SWAP3 SWAP2 SWAP1 DUP2 DUP2 MSTORE PUSH1 0x20 ADD DUP3 DUP1 SLOAD PUSH2 0x213B SWAP1 PUSH2 0x586E JUMP JUMPDEST DUP1 ISZERO PUSH2 0x2188 JUMPI DUP1 PUSH1 0x1F LT PUSH2 0x215D JUMPI PUSH2 0x100 DUP1 DUP4 SLOAD DIV MUL DUP4 MSTORE SWAP2 PUSH1 0x20 ADD SWAP2 PUSH2 0x2188 JUMP JUMPDEST DUP3 ADD SWAP2 SWAP1 PUSH1 0x0 MSTORE PUSH1 0x20 PUSH1 0x0 KECCAK256 SWAP1 JUMPDEST DUP2 SLOAD DUP2 MSTORE SWAP1 PUSH1 0x1 ADD SWAP1 PUSH1 0x20 ADD DUP1 DUP4 GT PUSH2 0x216B JUMPI DUP3 SWAP1 SUB PUSH1 0x1F AND DUP3 ADD SWAP2 JUMPDEST POP POP POP POP POP DUP2 MSTORE PUSH1 0x20 ADD PUSH1 0x5 DUP3 ADD SLOAD DUP2 MSTORE PUSH1 0x20 ADD PUSH1 0x6 DUP3 ADD SLOAD DUP2 MSTORE PUSH1 0x20 ADD PUSH1 0x7 DUP3 ADD SLOAD DUP2 MSTORE PUSH1 0x20 ADD PUSH1 0x8 DUP3 ADD PUSH1 0x0 SWAP1 SLOAD SWAP1 PUSH2 0x100 EXP SWAP1 DIV PUSH1 0xFF AND ISZERO ISZERO ISZERO ISZERO DUP2 MSTORE PUSH1 0x20 ADD PUSH1 0x9 DUP3 ADD DUP1 SLOAD DUP1 PUSH1 0x20 MUL PUSH1 0x20 ADD PUSH1 0x40 MLOAD SWAP1 DUP2 ADD PUSH1 0x40 MSTORE DUP1 SWAP3 SWAP2 SWAP1 DUP2 DUP2 MSTORE PUSH1 0x20 ADD DUP3 DUP1 SLOAD DUP1 ISZERO PUSH2 0x2245 JUMPI PUSH1 0x20 MUL DUP3 ADD SWAP2 SWAP1 PUSH1 0x0 MSTORE PUSH1 0x20 PUSH1 0x0 KECCAK256 SWAP1 PUSH1 0x0 SWAP1 JUMPDEST DUP3 DUP3 SWAP1 SLOAD SWAP1 PUSH2 0x100 EXP SWAP1 DIV PUSH4 0xFFFFFFFF AND PUSH4 0xFFFFFFFF AND DUP2 MSTORE PUSH1 0x20 ADD SWAP1 PUSH1 0x4 ADD SWAP1 PUSH1 0x20 DUP3 PUSH1 0x3 ADD DIV SWAP3 DUP4 ADD SWAP3 PUSH1 0x1 SUB DUP3 MUL SWAP2 POP DUP1 DUP5 GT PUSH2 0x2208 JUMPI SWAP1 POP JUMPDEST POP POP POP POP POP DUP2 MSTORE POP POP SWAP1 POP SWAP2 SWAP1 POP JUMP JUMPDEST PUSH1 0xC9 SLOAD PUSH1 0x40 MLOAD PUSH4 0x935E01B PUSH1 0xE2 SHL DUP2 MSTORE CALLER PUSH1 0x4 DUP3 ADD MSTORE PUSH1 0x1 PUSH1 0x1 PUSH1 0xA0 SHL SUB SWAP1 SWAP2 AND SWAP1 PUSH4 0x24D7806C SWAP1 PUSH1 0x24 ADD PUSH1 0x20 PUSH1 0x40 MLOAD DUP1 DUP4 SUB DUP2 DUP7 GAS STATICCALL ISZERO DUP1 ISZERO PUSH2 0x229D JUMPI RETURNDATASIZE PUSH1 0x0 DUP1 RETURNDATACOPY RETURNDATASIZE PUSH1 0x0 REVERT JUMPDEST POP POP POP POP PUSH1 0x40 MLOAD RETURNDATASIZE PUSH1 0x1F NOT PUSH1 0x1F DUP3 ADD AND DUP3 ADD DUP1 PUSH1 0x40 MSTORE POP DUP2 ADD SWAP1 PUSH2 0x22C1 SWAP2 SWAP1 PUSH2 0x58B6 JUMP JUMPDEST PUSH2 0x22DD JUMPI PUSH1 0x40 MLOAD PUSH3 0x461BCD PUSH1 0xE5 SHL DUP2 MSTORE PUSH1 0x4 ADD PUSH2 0x10DB SWAP1 PUSH2 0x59EA JUMP JUMPDEST PUSH1 0xCF SLOAD PUSH1 0x0 SWAP1 PUSH2 0x22F4 SWAP1 PUSH4 0xFFFFFFFF AND PUSH1 0x1 PUSH2 0x5A7D JUMP JUMPDEST PUSH1 0x1 PUSH1 0x1 PUSH1 0xA0 SHL SUB DUP10 AND PUSH1 0x0 SWAP1 DUP2 MSTORE PUSH1 0xD6 PUSH1 0x20 SWAP1 DUP2 MSTORE PUSH1 0x40 DUP1 DUP4 KECCAK256 PUSH4 0xFFFFFFFF DUP6 AND DUP5 MSTORE PUSH1 0xD7 SWAP1 SWAP3 MSTORE SWAP1 SWAP2 KECCAK256 SWAP2 SWAP3 POP SWAP1 PUSH2 0x234A DUP2 DUP12 DUP6 DUP13 DUP13 PUSH2 0x2337 DUP2 PUSH1 0x3 PUSH2 0x58E9 JUMP JUMPDEST PUSH1 0xCB SLOAD DUP15 SWAP1 PUSH3 0x10000 SWAP1 DIV PUSH1 0xFF AND PUSH2 0x3CC0 JUMP JUMPDEST PUSH1 0xD5 SLOAD PUSH1 0xFF AND ISZERO PUSH2 0x24A9 JUMPI PUSH1 0xC9 SLOAD PUSH1 0x40 DUP1 MLOAD PUSH4 0x44846F9D PUSH1 0xE1 SHL DUP2 MSTORE SWAP1 MLOAD PUSH1 0x0 SWAP3 PUSH1 0x1 PUSH1 0x1 PUSH1 0xA0 SHL SUB AND SWAP2 PUSH4 0x8908DF3A SWAP2 PUSH1 0x4 DUP1 DUP4 ADD SWAP3 PUSH1 0x20 SWAP3 SWAP2 SWAP1 DUP3 SWAP1 SUB ADD DUP2 DUP7 GAS STATICCALL ISZERO DUP1 ISZERO PUSH2 0x239F JUMPI RETURNDATASIZE PUSH1 0x0 DUP1 RETURNDATACOPY RETURNDATASIZE PUSH1 0x0 REVERT JUMPDEST POP POP POP POP PUSH1 0x40 MLOAD RETURNDATASIZE PUSH1 0x1F NOT PUSH1 0x1F DUP3 ADD AND DUP3 ADD DUP1 PUSH1 0x40 MSTORE POP DUP2 ADD SWAP1 PUSH2 0x23C3 SWAP2 SWAP1 PUSH2 0x5922 JUMP JUMPDEST PUSH1 0x1 PUSH1 0x1 PUSH1 0xA0 SHL SUB AND PUSH4 0xD275F14E DUP6 DUP12 DUP11 DUP11 PUSH2 0x23E2 DUP12 PUSH3 0x15180 PUSH2 0x58E9 JUMP JUMPDEST PUSH1 0x40 MLOAD PUSH1 0x1 PUSH1 0x1 PUSH1 0xE0 SHL SUB NOT PUSH1 0xE0 DUP9 SWAP1 SHL AND DUP2 MSTORE PUSH4 0xFFFFFFFF SWAP6 SWAP1 SWAP6 AND PUSH1 0x4 DUP7 ADD MSTORE PUSH1 0x24 DUP6 ADD SWAP4 SWAP1 SWAP4 MSTORE PUSH1 0x44 DUP5 ADD SWAP2 SWAP1 SWAP2 MSTORE PUSH1 0x64 DUP4 ADD MSTORE PUSH1 0x84 DUP3 ADD MSTORE PUSH1 0xA4 ADD PUSH1 0x20 PUSH1 0x40 MLOAD DUP1 DUP4 SUB DUP2 PUSH1 0x0 DUP8 GAS CALL ISZERO DUP1 ISZERO PUSH2 0x2440 JUMPI RETURNDATASIZE PUSH1 0x0 DUP1 RETURNDATACOPY RETURNDATASIZE PUSH1 0x0 REVERT JUMPDEST POP POP POP POP PUSH1 0x40 MLOAD RETURNDATASIZE PUSH1 0x1F NOT PUSH1 0x1F DUP3 ADD AND DUP3 ADD DUP1 PUSH1 0x40 MSTORE POP DUP2 ADD SWAP1 PUSH2 0x2464 SWAP2 SWAP1 PUSH2 0x5AA1 JUMP JUMPDEST PUSH1 0x18 DUP4 ADD DUP1 SLOAD PUSH1 0x1 DUP2 ADD DUP3 SSTORE PUSH1 0x0 SWAP2 DUP3 MSTORE PUSH1 0x20 SWAP1 SWAP2 KECCAK256 PUSH1 0x8 DUP3 DIV ADD DUP1 SLOAD PUSH1 0x7 SWAP1 SWAP3 AND PUSH1 0x4 MUL PUSH2 0x100 EXP PUSH4 0xFFFFFFFF DUP2 DUP2 MUL NOT SWAP1 SWAP4 AND SWAP4 SWAP1 SWAP3 AND SWAP2 SWAP1 SWAP2 MUL SWAP2 SWAP1 SWAP2 OR SWAP1 SSTORE POP JUMPDEST PUSH1 0x1 DUP3 DUP2 ADD DUP1 SLOAD SWAP2 DUP3 ADD DUP2 SSTORE PUSH1 0x0 SWAP1 DUP2 MSTORE PUSH1 0x20 DUP2 KECCAK256 PUSH1 0x8 DUP4 DIV ADD DUP1 SLOAD PUSH1 0x7 SWAP1 SWAP4 AND PUSH1 0x4 MUL PUSH2 0x100 EXP PUSH4 0xFFFFFFFF DUP2 DUP2 MUL NOT SWAP1 SWAP5 AND DUP8 DUP6 AND SWAP2 SWAP1 SWAP2 MUL OR SWAP1 SSTORE PUSH1 0xCF DUP1 SLOAD SWAP1 SWAP3 AND SWAP2 SWAP1 PUSH2 0x24F9 DUP4 PUSH2 0x5ABE JUMP JUMPDEST SWAP2 SWAP1 PUSH2 0x100 EXP DUP2 SLOAD DUP2 PUSH4 0xFFFFFFFF MUL NOT AND SWAP1 DUP4 PUSH4 0xFFFFFFFF AND MUL OR SWAP1 SSTORE POP POP POP POP POP POP POP POP POP POP POP POP JUMP JUMPDEST PUSH1 0x0 SLOAD PUSH2 0x100 SWAP1 DIV PUSH1 0xFF AND ISZERO DUP1 DUP1 ISZERO PUSH2 0x2544 JUMPI POP PUSH1 0x0 SLOAD PUSH1 0x1 PUSH1 0xFF SWAP1 SWAP2 AND LT JUMPDEST DUP1 PUSH2 0x255E JUMPI POP ADDRESS EXTCODESIZE ISZERO DUP1 ISZERO PUSH2 0x255E JUMPI POP PUSH1 0x0 SLOAD PUSH1 0xFF AND PUSH1 0x1 EQ JUMPDEST PUSH2 0x25C1 JUMPI PUSH1 0x40 MLOAD PUSH3 0x461BCD PUSH1 0xE5 SHL DUP2 MSTORE PUSH1 0x20 PUSH1 0x4 DUP3 ADD MSTORE PUSH1 0x2E PUSH1 0x24 DUP3 ADD MSTORE PUSH32 0x496E697469616C697A61626C653A20636F6E747261637420697320616C726561 PUSH1 0x44 DUP3 ADD MSTORE PUSH14 0x191E481A5B9A5D1A585B1A5E9959 PUSH1 0x92 SHL PUSH1 0x64 DUP3 ADD MSTORE PUSH1 0x84 ADD PUSH2 0x10DB JUMP JUMPDEST PUSH1 0x0 DUP1 SLOAD PUSH1 0xFF NOT AND PUSH1 0x1 OR SWAP1 SSTORE DUP1 ISZERO PUSH2 0x25E4 JUMPI PUSH1 0x0 DUP1 SLOAD PUSH2 0xFF00 NOT AND PUSH2 0x100 OR SWAP1 SSTORE JUMPDEST PUSH1 0xC9 DUP1 SLOAD PUSH1 0x1 PUSH1 0x1 PUSH1 0xA0 SHL SUB NOT AND PUSH20 0xB8BF5FEB9FCA57D9C5D27185DDF3017E99A2D36 OR SWAP1 SSTORE PUSH1 0xCB DUP1 SLOAD PUSH2 0xFFFF NOT AND PUSH2 0x3E8 OR SWAP1 SSTORE PUSH1 0x40 DUP1 MLOAD PUSH2 0x3A0 DUP2 ADD DUP3 MSTORE PUSH1 0x64 DUP2 MSTORE PUSH1 0x46 PUSH1 0x20 DUP3 ADD MSTORE PUSH1 0x32 SWAP2 DUP2 ADD DUP3 SWAP1 MSTORE PUSH1 0x60 DUP2 ADD DUP3 SWAP1 MSTORE PUSH1 0x80 DUP2 ADD DUP3 SWAP1 MSTORE PUSH1 0xA0 DUP2 ADD DUP3 SWAP1 MSTORE PUSH1 0xC0 DUP2 ADD DUP3 SWAP1 MSTORE PUSH1 0xE0 DUP2 ADD DUP3 SWAP1 MSTORE PUSH2 0x100 DUP2 ADD DUP3 SWAP1 MSTORE PUSH2 0x120 DUP2 ADD DUP3 SWAP1 MSTORE PUSH2 0x140 DUP2 ADD DUP3 SWAP1 MSTORE PUSH2 0x160 DUP2 ADD DUP3 SWAP1 MSTORE PUSH2 0x180 DUP2 ADD DUP3 SWAP1 MSTORE PUSH2 0x1A0 DUP2 ADD DUP3 SWAP1 MSTORE PUSH2 0x1C0 DUP2 ADD DUP3 SWAP1 MSTORE PUSH2 0x1E0 DUP2 ADD DUP3 SWAP1 MSTORE PUSH2 0x200 DUP2 ADD DUP3 SWAP1 MSTORE PUSH2 0x220 DUP2 ADD DUP3 SWAP1 MSTORE PUSH2 0x240 DUP2 ADD SWAP2 SWAP1 SWAP2 MSTORE PUSH1 0x14 PUSH2 0x260 DUP3 ADD DUP2 SWAP1 MSTORE PUSH2 0x280 DUP3 ADD DUP2 SWAP1 MSTORE PUSH2 0x2A0 DUP3 ADD DUP2 SWAP1 MSTORE PUSH2 0x2C0 DUP3 ADD DUP2 SWAP1 MSTORE PUSH2 0x2E0 DUP3 ADD DUP2 SWAP1 MSTORE PUSH2 0x300 DUP3 ADD DUP2 SWAP1 MSTORE PUSH2 0x320 DUP3 ADD DUP2 SWAP1 MSTORE PUSH2 0x340 DUP3 ADD DUP2 SWAP1 MSTORE PUSH2 0x360 DUP3 ADD DUP2 SWAP1 MSTORE PUSH2 0x380 DUP3 ADD MSTORE PUSH2 0x2711 SWAP1 PUSH1 0xCA SWAP1 PUSH1 0x1D PUSH2 0x4EA2 JUMP JUMPDEST POP PUSH1 0xCB DUP1 SLOAD PUSH3 0xFF0000 NOT AND PUSH3 0x320000 OR SWAP1 SSTORE PUSH9 0x56BC75E2D63100000 PUSH1 0xCC SSTORE PUSH1 0xCF DUP1 SLOAD PUSH7 0x2000000000000 PUSH7 0xFF00FF00000000 NOT SWAP1 SWAP2 AND OR SWAP1 SSTORE PUSH1 0xD5 DUP1 SLOAD PUSH3 0x278D00 PUSH1 0xD2 SSTORE PUSH3 0xFFFFFF NOT AND PUSH3 0x140101 OR SWAP1 SSTORE PUSH2 0x276B PUSH2 0x4042 JUMP JUMPDEST PUSH2 0x2773 PUSH2 0x4071 JUMP JUMPDEST DUP1 ISZERO PUSH2 0x135B JUMPI PUSH1 0x0 DUP1 SLOAD PUSH2 0xFF00 NOT AND SWAP1 SSTORE PUSH1 0x40 MLOAD PUSH1 0x1 DUP2 MSTORE PUSH32 0x7F26B83FF96E1F2B6A682F133852F6798A09C465DA95921460CEFB3847402498 SWAP1 PUSH1 0x20 ADD JUMPDEST PUSH1 0x40 MLOAD DUP1 SWAP2 SUB SWAP1 LOG1 POP JUMP JUMPDEST PUSH1 0xC9 SLOAD PUSH1 0x40 MLOAD PUSH4 0x935E01B PUSH1 0xE2 SHL DUP2 MSTORE CALLER PUSH1 0x4 DUP3 ADD MSTORE PUSH1 0x1 PUSH1 0x1 PUSH1 0xA0 SHL SUB SWAP1 SWAP2 AND SWAP1 PUSH4 0x24D7806C SWAP1 PUSH1 0x24 ADD PUSH1 0x20 PUSH1 0x40 MLOAD DUP1 DUP4 SUB DUP2 DUP7 GAS STATICCALL ISZERO DUP1 ISZERO PUSH2 0x2804 JUMPI RETURNDATASIZE PUSH1 0x0 DUP1 RETURNDATACOPY RETURNDATASIZE PUSH1 0x0 REVERT JUMPDEST POP POP POP POP PUSH1 0x40 MLOAD RETURNDATASIZE PUSH1 0x1F NOT PUSH1 0x1F DUP3 ADD AND DUP3 ADD DUP1 PUSH1 0x40 MSTORE POP DUP2 ADD SWAP1 PUSH2 0x2828 SWAP2 SWAP1 PUSH2 0x58B6 JUMP JUMPDEST PUSH2 0x2844 JUMPI PUSH1 0x40 MLOAD PUSH3 0x461BCD PUSH1 0xE5 SHL DUP2 MSTORE PUSH1 0x4 ADD PUSH2 0x10DB SWAP1 PUSH2 0x59EA JUMP JUMPDEST PUSH1 0x0 JUMPDEST PUSH2 0xFFFF DUP2 AND DUP5 GT ISZERO PUSH2 0x1ED8 JUMPI DUP3 DUP3 DUP3 PUSH2 0xFFFF AND DUP2 DUP2 LT PUSH2 0x2869 JUMPI PUSH2 0x2869 PUSH2 0x5A29 JUMP JUMPDEST SWAP1 POP PUSH1 0x20 MUL ADD PUSH1 0x20 DUP2 ADD SWAP1 PUSH2 0x287E SWAP2 SWAP1 PUSH2 0x5A60 JUMP JUMPDEST PUSH1 0xD6 PUSH1 0x0 DUP8 DUP8 DUP6 PUSH2 0xFFFF AND DUP2 DUP2 LT PUSH2 0x2898 JUMPI PUSH2 0x2898 PUSH2 0x5A29 JUMP JUMPDEST SWAP1 POP PUSH1 0x20 MUL ADD PUSH1 0x20 DUP2 ADD SWAP1 PUSH2 0x28AD SWAP2 SWAP1 PUSH2 0x54B6 JUMP JUMPDEST PUSH1 0x1 PUSH1 0x1 PUSH1 0xA0 SHL SUB AND DUP2 MSTORE PUSH1 0x20 DUP2 ADD SWAP2 SWAP1 SWAP2 MSTORE PUSH1 0x40 ADD PUSH1 0x0 KECCAK256 DUP1 SLOAD PUSH1 0xFF NOT AND SWAP2 ISZERO ISZERO SWAP2 SWAP1 SWAP2 OR SWAP1 SSTORE DUP1 PUSH2 0x28DF DUP2 PUSH2 0x5A3F JUMP JUMPDEST SWAP2 POP POP PUSH2 0x2847 JUMP JUMPDEST PUSH1 0xC9 SLOAD PUSH1 0x40 MLOAD PUSH4 0x935E01B PUSH1 0xE2 SHL DUP2 MSTORE CALLER PUSH1 0x4 DUP3 ADD MSTORE PUSH1 0x1 PUSH1 0x1 PUSH1 0xA0 SHL SUB SWAP1 SWAP2 AND SWAP1 PUSH4 0x24D7806C SWAP1 PUSH1 0x24 ADD PUSH1 0x20 PUSH1 0x40 MLOAD DUP1 DUP4 SUB DUP2 DUP7 GAS STATICCALL ISZERO DUP1 ISZERO PUSH2 0x292F JUMPI RETURNDATASIZE PUSH1 0x0 DUP1 RETURNDATACOPY RETURNDATASIZE PUSH1 0x0 REVERT JUMPDEST POP POP POP POP PUSH1 0x40 MLOAD RETURNDATASIZE PUSH1 0x1F NOT PUSH1 0x1F DUP3 ADD AND DUP3 ADD DUP1 PUSH1 0x40 MSTORE POP DUP2 ADD SWAP1 PUSH2 0x2953 SWAP2 SWAP1 PUSH2 0x58B6 JUMP JUMPDEST PUSH2 0x296F JUMPI PUSH1 0x40 MLOAD PUSH3 0x461BCD PUSH1 0xE5 SHL DUP2 MSTORE PUSH1 0x4 ADD PUSH2 0x10DB SWAP1 PUSH2 0x59EA JUMP JUMPDEST PUSH1 0x0 JUMPDEST PUSH2 0xFFFF DUP2 AND DUP5 GT ISZERO PUSH2 0x1ED8 JUMPI DUP3 DUP3 DUP3 PUSH2 0xFFFF AND DUP2 DUP2 LT PUSH2 0x2994 JUMPI PUSH2 0x2994 PUSH2 0x5A29 JUMP JUMPDEST SWAP1 POP PUSH1 0x20 MUL ADD PUSH1 0x20 DUP2 ADD SWAP1 PUSH2 0x29A9 SWAP2 SWAP1 PUSH2 0x5A60 JUMP JUMPDEST PUSH1 0xD7 PUSH1 0x0 DUP8 DUP8 DUP6 PUSH2 0xFFFF AND DUP2 DUP2 LT PUSH2 0x29C3 JUMPI PUSH2 0x29C3 PUSH2 0x5A29 JUMP JUMPDEST SWAP1 POP PUSH1 0x20 MUL ADD PUSH1 0x20 DUP2 ADD SWAP1 PUSH2 0x29D8 SWAP2 SWAP1 PUSH2 0x5140 JUMP JUMPDEST PUSH4 0xFFFFFFFF AND DUP2 MSTORE PUSH1 0x20 DUP2 ADD SWAP2 SWAP1 SWAP2 MSTORE PUSH1 0x40 ADD PUSH1 0x0 KECCAK256 PUSH1 0x1C ADD DUP1 SLOAD SWAP2 ISZERO ISZERO PUSH4 0x1000000 MUL PUSH4 0xFF000000 NOT SWAP1 SWAP3 AND SWAP2 SWAP1 SWAP2 OR SWAP1 SSTORE DUP1 PUSH2 0x2A15 DUP2 PUSH2 0x5A3F JUMP JUMPDEST SWAP2 POP POP PUSH2 0x2972 JUMP JUMPDEST PUSH2 0x2A25 PUSH2 0x31E2 JUMP JUMPDEST PUSH1 0x40 MLOAD PUSH4 0xA9059CBB PUSH1 0xE0 SHL DUP2 MSTORE CALLER PUSH1 0x4 DUP3 ADD MSTORE PUSH1 0x24 DUP2 ADD DUP3 SWAP1 MSTORE PUSH1 0x1 PUSH1 0x1 PUSH1 0xA0 SHL SUB DUP4 AND SWAP1 PUSH4 0xA9059CBB SWAP1 PUSH1 0x44 ADD PUSH1 0x20 PUSH1 0x40 MLOAD DUP1 DUP4 SUB DUP2 PUSH1 0x0 DUP8 GAS CALL ISZERO DUP1 ISZERO PUSH2 0x2A72 JUMPI RETURNDATASIZE PUSH1 0x0 DUP1 RETURNDATACOPY RETURNDATASIZE PUSH1 0x0 REVERT JUMPDEST POP POP POP POP PUSH1 0x40 MLOAD RETURNDATASIZE PUSH1 0x1F NOT PUSH1 0x1F DUP3 ADD AND DUP3 ADD DUP1 PUSH1 0x40 MSTORE POP DUP2 ADD SWAP1 PUSH2 0x9D6 SWAP2 SWAP1 PUSH2 0x58B6 JUMP JUMPDEST CALLVALUE PUSH1 0x0 PUSH2 0x2AA2 DUP3 PUSH2 0x4098 JUMP JUMPDEST SWAP1 POP PUSH1 0xCC SLOAD DUP2 LT ISZERO PUSH2 0x2AF6 JUMPI PUSH1 0x40 MLOAD PUSH3 0x461BCD PUSH1 0xE5 SHL DUP2 MSTORE PUSH1 0x20 PUSH1 0x4 DUP3 ADD MSTORE PUSH1 0x1F PUSH1 0x24 DUP3 ADD MSTORE PUSH32 0x56616C7565206C657373207468656E206D696E436F6E747269627574696F6E00 PUSH1 0x44 DUP3 ADD MSTORE PUSH1 0x64 ADD PUSH2 0x10DB JUMP JUMPDEST PUSH4 0xFFFFFFFF DUP4 AND PUSH1 0x0 SWAP1 DUP2 MSTORE PUSH1 0xD7 PUSH1 0x20 MSTORE PUSH1 0x40 DUP2 KECCAK256 CALLER SWAP2 TIMESTAMP SWAP2 SWAP1 PUSH2 0x2B1B DUP6 PUSH1 0x3 PUSH2 0x58E9 JUMP JUMPDEST DUP3 PUSH1 0x12 ADD SLOAD DUP4 PUSH1 0x14 ADD SLOAD PUSH2 0x2B2F SWAP2 SWAP1 PUSH2 0x593F JUMP JUMPDEST PUSH2 0x2B39 SWAP2 SWAP1 PUSH2 0x5A16 JUMP JUMPDEST SWAP1 POP PUSH1 0x0 PUSH1 0x3 DUP4 PUSH1 0x14 ADD SLOAD PUSH1 0x2 PUSH2 0x2B50 SWAP2 SWAP1 PUSH2 0x58E9 JUMP JUMPDEST PUSH2 0x2B5A SWAP2 SWAP1 PUSH2 0x5900 JUMP JUMPDEST DUP4 PUSH1 0x12 ADD SLOAD LT PUSH2 0x2B6B JUMPI PUSH1 0x0 PUSH2 0x2BA3 JUMP JUMPDEST PUSH1 0x3 DUP4 PUSH1 0x12 ADD SLOAD PUSH1 0x3 DUP6 PUSH1 0x14 ADD SLOAD PUSH1 0x2 PUSH2 0x2B85 SWAP2 SWAP1 PUSH2 0x58E9 JUMP JUMPDEST PUSH2 0x2B8F SWAP2 SWAP1 PUSH2 0x5900 JUMP JUMPDEST PUSH2 0x2B99 SWAP2 SWAP1 PUSH2 0x593F JUMP JUMPDEST PUSH2 0x2BA3 SWAP2 SWAP1 PUSH2 0x5900 JUMP JUMPDEST SWAP1 POP PUSH2 0x2BC8 DUP4 DUP7 DUP11 PUSH1 0x0 DUP11 DUP8 DUP11 PUSH1 0xCB PUSH1 0x2 SWAP1 SLOAD SWAP1 PUSH2 0x100 EXP SWAP1 DIV PUSH1 0xFF AND PUSH1 0xFF AND PUSH2 0x3CC0 JUMP JUMPDEST PUSH1 0xD5 SLOAD PUSH1 0xFF AND ISZERO PUSH2 0x2D24 JUMPI PUSH1 0xC9 SLOAD PUSH1 0x40 DUP1 MLOAD PUSH4 0x44846F9D PUSH1 0xE1 SHL DUP2 MSTORE SWAP1 MLOAD PUSH1 0x0 SWAP3 PUSH1 0x1 PUSH1 0x1 PUSH1 0xA0 SHL SUB AND SWAP2 PUSH4 0x8908DF3A SWAP2 PUSH1 0x4 DUP1 DUP4 ADD SWAP3 PUSH1 0x20 SWAP3 SWAP2 SWAP1 DUP3 SWAP1 SUB ADD DUP2 DUP7 GAS STATICCALL ISZERO DUP1 ISZERO PUSH2 0x2C1D JUMPI RETURNDATASIZE PUSH1 0x0 DUP1 RETURNDATACOPY RETURNDATASIZE PUSH1 0x0 REVERT JUMPDEST POP POP POP POP PUSH1 0x40 MLOAD RETURNDATASIZE PUSH1 0x1F NOT PUSH1 0x1F DUP3 ADD AND DUP3 ADD DUP1 PUSH1 0x40 MSTORE POP DUP2 ADD SWAP1 PUSH2 0x2C41 SWAP2 SWAP1 PUSH2 0x5922 JUMP JUMPDEST PUSH1 0x1 PUSH1 0x1 PUSH1 0xA0 SHL SUB AND PUSH4 0xD275F14E DUP11 PUSH2 0x2C5A DUP6 DUP12 PUSH2 0x5A16 JUMP JUMPDEST PUSH1 0x40 MLOAD PUSH1 0x1 PUSH1 0x1 PUSH1 0xE0 SHL SUB NOT PUSH1 0xE0 DUP6 SWAP1 SHL AND DUP2 MSTORE PUSH4 0xFFFFFFFF SWAP3 SWAP1 SWAP3 AND PUSH1 0x4 DUP4 ADD MSTORE PUSH1 0x24 DUP3 ADD MSTORE PUSH1 0x44 DUP2 ADD DUP9 SWAP1 MSTORE PUSH1 0x64 DUP2 ADD DUP9 SWAP1 MSTORE PUSH4 0x20F5800 PUSH1 0x84 DUP3 ADD MSTORE PUSH1 0xA4 ADD PUSH1 0x20 PUSH1 0x40 MLOAD DUP1 DUP4 SUB DUP2 PUSH1 0x0 DUP8 GAS CALL ISZERO DUP1 ISZERO PUSH2 0x2CBB JUMPI RETURNDATASIZE PUSH1 0x0 DUP1 RETURNDATACOPY RETURNDATASIZE PUSH1 0x0 REVERT JUMPDEST POP POP POP POP PUSH1 0x40 MLOAD RETURNDATASIZE PUSH1 0x1F NOT PUSH1 0x1F DUP3 ADD AND DUP3 ADD DUP1 PUSH1 0x40 MSTORE POP DUP2 ADD SWAP1 PUSH2 0x2CDF SWAP2 SWAP1 PUSH2 0x5AA1 JUMP JUMPDEST PUSH1 0x18 DUP6 ADD DUP1 SLOAD PUSH1 0x1 DUP2 ADD DUP3 SSTORE PUSH1 0x0 SWAP2 DUP3 MSTORE PUSH1 0x20 SWAP1 SWAP2 KECCAK256 PUSH1 0x8 DUP3 DIV ADD DUP1 SLOAD PUSH1 0x7 SWAP1 SWAP3 AND PUSH1 0x4 MUL PUSH2 0x100 EXP PUSH4 0xFFFFFFFF DUP2 DUP2 MUL NOT SWAP1 SWAP4 AND SWAP4 SWAP1 SWAP3 AND SWAP2 SWAP1 SWAP2 MUL SWAP2 SWAP1 SWAP2 OR SWAP1 SSTORE POP JUMPDEST POP POP POP POP POP POP POP POP JUMP JUMPDEST PUSH2 0x2D36 PUSH2 0x31E2 JUMP JUMPDEST PUSH1 0xCB DUP1 SLOAD PUSH2 0xFFFF NOT AND PUSH2 0xFFFF SWAP3 SWAP1 SWAP3 AND SWAP2 SWAP1 SWAP2 OR SWAP1 SSTORE JUMP JUMPDEST CALLVALUE PUSH1 0x0 PUSH2 0x2D5A DUP3 PUSH2 0x4098 JUMP JUMPDEST SWAP1 POP PUSH1 0xCC SLOAD DUP2 LT ISZERO PUSH2 0x2DAE JUMPI PUSH1 0x40 MLOAD PUSH3 0x461BCD PUSH1 0xE5 SHL DUP2 MSTORE PUSH1 0x20 PUSH1 0x4 DUP3 ADD MSTORE PUSH1 0x1F PUSH1 0x24 DUP3 ADD MSTORE PUSH32 0x56616C7565206C657373207468656E206D696E436F6E747269627574696F6E00 PUSH1 0x44 DUP3 ADD MSTORE PUSH1 0x64 ADD PUSH2 0x10DB JUMP JUMPDEST PUSH1 0xCF SLOAD CALLER SWAP1 TIMESTAMP SWAP1 PUSH1 0x0 SWAP1 PUSH2 0x2DC9 SWAP1 PUSH4 0xFFFFFFFF AND PUSH1 0x1 PUSH2 0x5A7D JUMP JUMPDEST PUSH1 0x1 PUSH1 0x1 PUSH1 0xA0 SHL SUB DUP5 AND PUSH1 0x0 SWAP1 DUP2 MSTORE PUSH1 0xD6 PUSH1 0x20 SWAP1 DUP2 MSTORE PUSH1 0x40 DUP1 DUP4 KECCAK256 PUSH4 0xFFFFFFFF DUP6 AND DUP5 MSTORE PUSH1 0xD7 SWAP1 SWAP3 MSTORE SWAP1 SWAP2 KECCAK256 SWAP2 SWAP3 POP SWAP1 PUSH2 0x2E1F DUP2 DUP7 DUP6 DUP12 DUP11 PUSH2 0x2E0C DUP2 PUSH1 0x3 PUSH2 0x58E9 JUMP JUMPDEST PUSH1 0xCB SLOAD DUP12 SWAP1 PUSH3 0x10000 SWAP1 DIV PUSH1 0xFF AND PUSH2 0x3CC0 JUMP JUMPDEST PUSH1 0xD5 SLOAD PUSH1 0xFF AND ISZERO PUSH2 0x2F6E JUMPI PUSH1 0xC9 SLOAD PUSH1 0x40 DUP1 MLOAD PUSH4 0x44846F9D PUSH1 0xE1 SHL DUP2 MSTORE SWAP1 MLOAD PUSH1 0x0 SWAP3 PUSH1 0x1 PUSH1 0x1 PUSH1 0xA0 SHL SUB AND SWAP2 PUSH4 0x8908DF3A SWAP2 PUSH1 0x4 DUP1 DUP4 ADD SWAP3 PUSH1 0x20 SWAP3 SWAP2 SWAP1 DUP3 SWAP1 SUB ADD DUP2 DUP7 GAS STATICCALL ISZERO DUP1 ISZERO PUSH2 0x2E74 JUMPI RETURNDATASIZE PUSH1 0x0 DUP1 RETURNDATACOPY RETURNDATASIZE PUSH1 0x0 REVERT JUMPDEST POP POP POP POP PUSH1 0x40 MLOAD RETURNDATASIZE PUSH1 0x1F NOT PUSH1 0x1F DUP3 ADD AND DUP3 ADD DUP1 PUSH1 0x40 MSTORE POP DUP2 ADD SWAP1 PUSH2 0x2E98 SWAP2 SWAP1 PUSH2 0x5922 JUMP JUMPDEST PUSH1 0x40 MLOAD PUSH4 0x693AF8A7 PUSH1 0xE1 SHL DUP2 MSTORE PUSH4 0xFFFFFFFF DUP7 AND PUSH1 0x4 DUP3 ADD MSTORE PUSH1 0x24 DUP2 ADD DUP10 SWAP1 MSTORE PUSH1 0x44 DUP2 ADD DUP8 SWAP1 MSTORE PUSH1 0x64 DUP2 ADD DUP8 SWAP1 MSTORE PUSH4 0x20F5800 PUSH1 0x84 DUP3 ADD MSTORE PUSH1 0x1 PUSH1 0x1 PUSH1 0xA0 SHL SUB SWAP2 SWAP1 SWAP2 AND SWAP1 PUSH4 0xD275F14E SWAP1 PUSH1 0xA4 ADD PUSH1 0x20 PUSH1 0x40 MLOAD DUP1 DUP4 SUB DUP2 PUSH1 0x0 DUP8 GAS CALL ISZERO DUP1 ISZERO PUSH2 0x2F05 JUMPI RETURNDATASIZE PUSH1 0x0 DUP1 RETURNDATACOPY RETURNDATASIZE PUSH1 0x0 REVERT JUMPDEST POP POP POP POP PUSH1 0x40 MLOAD RETURNDATASIZE PUSH1 0x1F NOT PUSH1 0x1F DUP3 ADD AND DUP3 ADD DUP1 PUSH1 0x40 MSTORE POP DUP2 ADD SWAP1 PUSH2 0x2F29 SWAP2 SWAP1 PUSH2 0x5AA1 JUMP JUMPDEST PUSH1 0x18 DUP4 ADD DUP1 SLOAD PUSH1 0x1 DUP2 ADD DUP3 SSTORE PUSH1 0x0 SWAP2 DUP3 MSTORE PUSH1 0x20 SWAP1 SWAP2 KECCAK256 PUSH1 0x8 DUP3 DIV ADD DUP1 SLOAD PUSH1 0x7 SWAP1 SWAP3 AND PUSH1 0x4 MUL PUSH2 0x100 EXP PUSH4 0xFFFFFFFF DUP2 DUP2 MUL NOT SWAP1 SWAP4 AND SWAP4 SWAP1 SWAP3 AND SWAP2 SWAP1 SWAP2 MUL SWAP2 SWAP1 SWAP2 OR SWAP1 SSTORE POP JUMPDEST PUSH1 0x1 DUP3 DUP2 ADD DUP1 SLOAD DUP1 DUP4 ADD DUP3 SSTORE PUSH1 0x0 SWAP2 DUP3 MSTORE PUSH1 0x20 DUP3 KECCAK256 PUSH1 0x8 DUP3 DIV ADD DUP1 SLOAD PUSH1 0x7 SWAP1 SWAP3 AND PUSH1 0x4 MUL PUSH2 0x100 EXP PUSH4 0xFFFFFFFF DUP2 DUP2 MUL NOT SWAP1 SWAP4 AND DUP9 DUP5 AND SWAP2 SWAP1 SWAP2 MUL OR SWAP1 SSTORE DUP5 SLOAD PUSH1 0xFF NOT AND SWAP1 SWAP3 OR DUP5 SSTORE PUSH1 0xCF DUP1 SLOAD SWAP1 SWAP3 AND SWAP2 SWAP1 PUSH2 0x2FC9 DUP4 PUSH2 0x5ABE JUMP JUMPDEST SWAP2 SWAP1 PUSH2 0x100 EXP DUP2 SLOAD DUP2 PUSH4 0xFFFFFFFF MUL NOT AND SWAP1 DUP4 PUSH4 0xFFFFFFFF AND MUL OR SWAP1 SSTORE POP POP POP POP POP POP POP POP POP POP JUMP JUMPDEST PUSH2 0x2FFA PUSH2 0x31E2 JUMP JUMPDEST PUSH2 0x9D6 PUSH1 0xCA DUP4 DUP4 PUSH2 0x4F4A JUMP JUMPDEST PUSH2 0x300E PUSH2 0x31E2 JUMP JUMPDEST PUSH1 0x1 PUSH1 0x1 PUSH1 0xA0 SHL SUB DUP2 AND PUSH2 0x3073 JUMPI PUSH1 0x40 MLOAD PUSH3 0x461BCD PUSH1 0xE5 SHL DUP2 MSTORE PUSH1 0x20 PUSH1 0x4 DUP3 ADD MSTORE PUSH1 0x26 PUSH1 0x24 DUP3 ADD MSTORE PUSH32 0x4F776E61626C653A206E6577206F776E657220697320746865207A65726F2061 PUSH1 0x44 DUP3 ADD MSTORE PUSH6 0x646472657373 PUSH1 0xD0 SHL PUSH1 0x64 DUP3 ADD MSTORE PUSH1 0x84 ADD PUSH2 0x10DB JUMP JUMPDEST PUSH2 0x135B DUP2 PUSH2 0x3C6E JUMP JUMPDEST PUSH2 0x30A2 PUSH1 0x40 MLOAD DUP1 PUSH1 0x60 ADD PUSH1 0x40 MSTORE DUP1 PUSH1 0x0 ISZERO ISZERO DUP2 MSTORE PUSH1 0x20 ADD PUSH1 0x60 DUP2 MSTORE PUSH1 0x20 ADD PUSH1 0x60 DUP2 MSTORE POP SWAP1 JUMP JUMPDEST PUSH1 0x1 PUSH1 0x1 PUSH1 0xA0 SHL SUB DUP3 AND PUSH1 0x0 SWAP1 DUP2 MSTORE PUSH1 0xD6 PUSH1 0x20 SWAP1 DUP2 MSTORE PUSH1 0x40 SWAP2 DUP3 SWAP1 KECCAK256 DUP3 MLOAD PUSH1 0x60 DUP2 ADD DUP5 MSTORE DUP2 SLOAD PUSH1 0xFF AND ISZERO ISZERO DUP2 MSTORE PUSH1 0x1 DUP3 ADD DUP1 SLOAD DUP6 MLOAD DUP2 DUP7 MUL DUP2 ADD DUP7 ADD SWAP1 SWAP7 MSTORE DUP1 DUP7 MSTORE SWAP2 SWAP5 SWAP3 SWAP4 DUP6 DUP2 ADD SWAP4 SWAP3 SWAP1 DUP4 ADD DUP3 DUP3 DUP1 ISZERO PUSH2 0x3149 JUMPI PUSH1 0x20 MUL DUP3 ADD SWAP2 SWAP1 PUSH1 0x0 MSTORE PUSH1 0x20 PUSH1 0x0 KECCAK256 SWAP1 PUSH1 0x0 SWAP1 JUMPDEST DUP3 DUP3 SWAP1 SLOAD SWAP1 PUSH2 0x100 EXP SWAP1 DIV PUSH4 0xFFFFFFFF AND PUSH4 0xFFFFFFFF AND DUP2 MSTORE PUSH1 0x20 ADD SWAP1 PUSH1 0x4 ADD SWAP1 PUSH1 0x20 DUP3 PUSH1 0x3 ADD DIV SWAP3 DUP4 ADD SWAP3 PUSH1 0x1 SUB DUP3 MUL SWAP2 POP DUP1 DUP5 GT PUSH2 0x310C JUMPI SWAP1 POP JUMPDEST POP POP POP POP POP DUP2 MSTORE PUSH1 0x20 ADD PUSH1 0x2 DUP3 ADD DUP1 SLOAD PUSH2 0x3162 SWAP1 PUSH2 0x586E JUMP JUMPDEST DUP1 PUSH1 0x1F ADD PUSH1 0x20 DUP1 SWAP2 DIV MUL PUSH1 0x20 ADD PUSH1 0x40 MLOAD SWAP1 DUP2 ADD PUSH1 0x40 MSTORE DUP1 SWAP3 SWAP2 SWAP1 DUP2 DUP2 MSTORE PUSH1 0x20 ADD DUP3 DUP1 SLOAD PUSH2 0x318E SWAP1 PUSH2 0x586E JUMP JUMPDEST DUP1 ISZERO PUSH2 0x2245 JUMPI DUP1 PUSH1 0x1F LT PUSH2 0x31B0 JUMPI PUSH2 0x100 DUP1 DUP4 SLOAD DIV MUL DUP4 MSTORE SWAP2 PUSH1 0x20 ADD SWAP2 PUSH2 0x2245 JUMP JUMPDEST DUP3 ADD SWAP2 SWAP1 PUSH1 0x0 MSTORE PUSH1 0x20 PUSH1 0x0 KECCAK256 SWAP1 JUMPDEST DUP2 SLOAD DUP2 MSTORE SWAP1 PUSH1 0x1 ADD SWAP1 PUSH1 0x20 ADD DUP1 DUP4 GT PUSH2 0x31BE JUMPI POP POP POP SWAP2 SWAP1 SWAP3 MSTORE POP SWAP2 SWAP5 SWAP4 POP POP POP POP JUMP JUMPDEST PUSH1 0x33 SLOAD PUSH1 0x1 PUSH1 0x1 PUSH1 0xA0 SHL SUB AND CALLER EQ PUSH2 0x1EF1 JUMPI PUSH1 0x40 MLOAD PUSH3 0x461BCD PUSH1 0xE5 SHL DUP2 MSTORE PUSH1 0x20 PUSH1 0x4 DUP3 ADD DUP2 SWAP1 MSTORE PUSH1 0x24 DUP3 ADD MSTORE PUSH32 0x4F776E61626C653A2063616C6C6572206973206E6F7420746865206F776E6572 PUSH1 0x44 DUP3 ADD MSTORE PUSH1 0x64 ADD PUSH2 0x10DB JUMP JUMPDEST PUSH1 0x0 DUP1 PUSH1 0xC9 PUSH1 0x0 SWAP1 SLOAD SWAP1 PUSH2 0x100 EXP SWAP1 DIV PUSH1 0x1 PUSH1 0x1 PUSH1 0xA0 SHL SUB AND PUSH1 0x1 PUSH1 0x1 PUSH1 0xA0 SHL SUB AND PUSH4 0x2913497B PUSH1 0x40 MLOAD DUP2 PUSH4 0xFFFFFFFF AND PUSH1 0xE0 SHL DUP2 MSTORE PUSH1 0x4 ADD PUSH1 0x20 PUSH1 0x40 MLOAD DUP1 DUP4 SUB DUP2 DUP7 GAS STATICCALL ISZERO DUP1 ISZERO PUSH2 0x3292 JUMPI RETURNDATASIZE PUSH1 0x0 DUP1 RETURNDATACOPY RETURNDATASIZE PUSH1 0x0 REVERT JUMPDEST POP POP POP POP PUSH1 0x40 MLOAD RETURNDATASIZE PUSH1 0x1F NOT PUSH1 0x1F DUP3 ADD AND DUP3 ADD DUP1 PUSH1 0x40 MSTORE POP DUP2 ADD SWAP1 PUSH2 0x32B6 SWAP2 SWAP1 PUSH2 0x5922 JUMP JUMPDEST PUSH1 0x1 PUSH1 0x1 PUSH1 0xA0 SHL SUB AND PUSH4 0xE1AA6036 PUSH1 0x40 MLOAD DUP2 PUSH4 0xFFFFFFFF AND PUSH1 0xE0 SHL DUP2 MSTORE PUSH1 0x4 ADD PUSH1 0x20 PUSH1 0x40 MLOAD DUP1 DUP4 SUB DUP2 DUP7 GAS STATICCALL ISZERO DUP1 ISZERO PUSH2 0x32F3 JUMPI RETURNDATASIZE PUSH1 0x0 DUP1 RETURNDATACOPY RETURNDATASIZE PUSH1 0x0 REVERT JUMPDEST POP POP POP POP PUSH1 0x40 MLOAD RETURNDATASIZE PUSH1 0x1F NOT PUSH1 0x1F DUP3 ADD AND DUP3 ADD DUP1 PUSH1 0x40 MSTORE POP DUP2 ADD SWAP1 PUSH2 0x3317 SWAP2 SWAP1 PUSH2 0x5AD7 JUMP JUMPDEST PUSH2 0x3329 DUP5 PUSH8 0xDE0B6B3A7640000 PUSH2 0x58E9 JUMP JUMPDEST PUSH2 0x3333 SWAP2 SWAP1 PUSH2 0x5900 JUMP JUMPDEST SWAP4 SWAP3 POP POP POP JUMP JUMPDEST PUSH2 0x135B PUSH2 0x31E2 JUMP JUMPDEST PUSH32 0x4910FDFA16FED3260ED0E7147F7CC6DA11A60208B5B9406D12A635614FFD9143 SLOAD PUSH1 0xFF AND ISZERO PUSH2 0x3375 JUMPI PUSH2 0x9D6 DUP4 PUSH2 0x4186 JUMP JUMPDEST DUP3 PUSH1 0x1 PUSH1 0x1 PUSH1 0xA0 SHL SUB AND PUSH4 0x52D1902D PUSH1 0x40 MLOAD DUP2 PUSH4 0xFFFFFFFF AND PUSH1 0xE0 SHL DUP2 MSTORE PUSH1 0x4 ADD PUSH1 0x20 PUSH1 0x40 MLOAD DUP1 DUP4 SUB DUP2 DUP7 GAS STATICCALL SWAP3 POP POP POP DUP1 ISZERO PUSH2 0x33CF JUMPI POP PUSH1 0x40 DUP1 MLOAD PUSH1 0x1F RETURNDATASIZE SWAP1 DUP2 ADD PUSH1 0x1F NOT AND DUP3 ADD SWAP1 SWAP3 MSTORE PUSH2 0x33CC SWAP2 DUP2 ADD SWAP1 PUSH2 0x5AD7 JUMP JUMPDEST PUSH1 0x1 JUMPDEST PUSH2 0x3432 JUMPI PUSH1 0x40 MLOAD PUSH3 0x461BCD PUSH1 0xE5 SHL DUP2 MSTORE PUSH1 0x20 PUSH1 0x4 DUP3 ADD MSTORE PUSH1 0x2E PUSH1 0x24 DUP3 ADD MSTORE PUSH32 0x45524331393637557067726164653A206E657720696D706C656D656E74617469 PUSH1 0x44 DUP3 ADD MSTORE PUSH14 0x6F6E206973206E6F742055555053 PUSH1 0x90 SHL PUSH1 0x64 DUP3 ADD MSTORE PUSH1 0x84 ADD PUSH2 0x10DB JUMP JUMPDEST PUSH1 0x0 DUP1 MLOAD PUSH1 0x20 PUSH2 0x5BA3 DUP4 CODECOPY DUP2 MLOAD SWAP2 MSTORE DUP2 EQ PUSH2 0x34A1 JUMPI PUSH1 0x40 MLOAD PUSH3 0x461BCD PUSH1 0xE5 SHL DUP2 MSTORE PUSH1 0x20 PUSH1 0x4 DUP3 ADD MSTORE PUSH1 0x29 PUSH1 0x24 DUP3 ADD MSTORE PUSH32 0x45524331393637557067726164653A20756E737570706F727465642070726F78 PUSH1 0x44 DUP3 ADD MSTORE PUSH9 0x1A58589B1955555251 PUSH1 0xBA SHL PUSH1 0x64 DUP3 ADD MSTORE PUSH1 0x84 ADD PUSH2 0x10DB JUMP JUMPDEST POP PUSH2 0x9D6 DUP4 DUP4 DUP4 PUSH2 0x4222 JUMP JUMPDEST PUSH1 0x0 PUSH1 0xCA DUP1 SLOAD DUP1 PUSH1 0x20 MUL PUSH1 0x20 ADD PUSH1 0x40 MLOAD SWAP1 DUP2 ADD PUSH1 0x40 MSTORE DUP1 SWAP3 SWAP2 SWAP1 DUP2 DUP2 MSTORE PUSH1 0x20 ADD DUP3 DUP1 SLOAD DUP1 ISZERO PUSH2 0x3523 JUMPI PUSH1 0x20 MUL DUP3 ADD SWAP2 SWAP1 PUSH1 0x0 MSTORE PUSH1 0x20 PUSH1 0x0 KECCAK256 SWAP1 PUSH1 0x0 SWAP1 JUMPDEST DUP3 DUP3 SWAP1 SLOAD SWAP1 PUSH2 0x100 EXP SWAP1 DIV PUSH2 0xFFFF AND PUSH2 0xFFFF AND DUP2 MSTORE PUSH1 0x20 ADD SWAP1 PUSH1 0x2 ADD SWAP1 PUSH1 0x20 DUP3 PUSH1 0x1 ADD DIV SWAP3 DUP4 ADD SWAP3 PUSH1 0x1 SUB DUP3 MUL SWAP2 POP DUP1 DUP5 GT PUSH2 0x34EA JUMPI SWAP1 POP JUMPDEST POP POP DUP4 MLOAD PUSH4 0xFFFFFFFF DUP8 AND PUSH1 0x0 SWAP1 DUP2 MSTORE PUSH1 0xD7 PUSH1 0x20 MSTORE PUSH1 0x40 DUP2 KECCAK256 SWAP6 SWAP7 POP SWAP1 SWAP5 SWAP4 POP SWAP2 POP DUP2 SWAP1 POP JUMPDEST DUP4 PUSH1 0xFF AND DUP2 PUSH1 0xFF AND LT ISZERO PUSH2 0x3BC4 JUMPI PUSH1 0x3 DUP4 ADD SLOAD PUSH4 0xFFFFFFFF PUSH1 0x1 PUSH1 0xA8 SHL SWAP1 SWAP2 DIV DUP2 AND PUSH1 0x0 DUP2 DUP2 MSTORE PUSH1 0xD7 PUSH1 0x20 MSTORE PUSH1 0x40 DUP2 KECCAK256 DUP1 SLOAD SWAP3 SWAP4 SWAP1 SWAP3 AND SWAP1 SUB PUSH2 0x358D JUMPI POP POP PUSH2 0x3BC4 JUMP JUMPDEST PUSH2 0x3596 DUP2 PUSH2 0x424D JUMP JUMPDEST ISZERO PUSH2 0x360E JUMPI PUSH1 0x40 MLOAD PUSH19 0x149959995C995C881A5CC8111A5CD8589B1959 PUSH1 0x6A SHL DUP2 MSTORE PUSH1 0x13 ADD JUMPDEST PUSH1 0x40 MLOAD SWAP1 DUP2 SWAP1 SUB SWAP1 KECCAK256 PUSH2 0x35CF DUP5 PUSH1 0x1 PUSH2 0x5AF0 JUMP JUMPDEST PUSH1 0xFF AND DUP4 PUSH4 0xFFFFFFFF AND PUSH32 0x915ED47901013AD29E90EDE828F72888F54BD58CEA141B0C6967498165382EB5 PUSH1 0x40 MLOAD PUSH1 0x40 MLOAD DUP1 SWAP2 SUB SWAP1 LOG4 SWAP4 POP PUSH2 0x3BB2 SWAP1 POP JUMP JUMPDEST PUSH1 0x40 DUP1 MLOAD PUSH2 0x480 DUP2 ADD SWAP1 SWAP2 MSTORE DUP2 SLOAD PUSH4 0xFFFFFFFF AND DUP2 MSTORE PUSH1 0x1 DUP3 ADD DUP1 SLOAD PUSH2 0x3AA9 SWAP3 SWAP2 DUP5 SWAP2 PUSH1 0x20 DUP5 ADD SWAP2 SWAP1 PUSH2 0x3640 SWAP1 PUSH2 0x586E JUMP JUMPDEST DUP1 PUSH1 0x1F ADD PUSH1 0x20 DUP1 SWAP2 DIV MUL PUSH1 0x20 ADD PUSH1 0x40 MLOAD SWAP1 DUP2 ADD PUSH1 0x40 MSTORE DUP1 SWAP3 SWAP2 SWAP1 DUP2 DUP2 MSTORE PUSH1 0x20 ADD DUP3 DUP1 SLOAD PUSH2 0x366C SWAP1 PUSH2 0x586E JUMP JUMPDEST DUP1 ISZERO PUSH2 0x36B9 JUMPI DUP1 PUSH1 0x1F LT PUSH2 0x368E JUMPI PUSH2 0x100 DUP1 DUP4 SLOAD DIV MUL DUP4 MSTORE SWAP2 PUSH1 0x20 ADD SWAP2 PUSH2 0x36B9 JUMP JUMPDEST DUP3 ADD SWAP2 SWAP1 PUSH1 0x0 MSTORE PUSH1 0x20 PUSH1 0x0 KECCAK256 SWAP1 JUMPDEST DUP2 SLOAD DUP2 MSTORE SWAP1 PUSH1 0x1 ADD SWAP1 PUSH1 0x20 ADD DUP1 DUP4 GT PUSH2 0x369C JUMPI DUP3 SWAP1 SUB PUSH1 0x1F AND DUP3 ADD SWAP2 JUMPDEST POP POP POP SWAP2 DUP4 MSTORE POP POP PUSH1 0x2 DUP3 ADD SLOAD PUSH1 0x20 DUP1 DUP4 ADD SWAP2 SWAP1 SWAP2 MSTORE PUSH1 0x3 DUP4 ADD SLOAD PUSH1 0xFF DUP1 DUP3 AND ISZERO ISZERO PUSH1 0x40 DUP1 DUP7 ADD SWAP2 SWAP1 SWAP2 MSTORE PUSH1 0x1 PUSH1 0x1 PUSH1 0xA0 SHL SUB PUSH2 0x100 DUP5 DIV AND PUSH1 0x60 DUP7 ADD MSTORE PUSH4 0xFFFFFFFF PUSH1 0x1 PUSH1 0xA8 SHL DUP5 DIV AND PUSH1 0x80 DUP7 ADD MSTORE PUSH1 0x1 PUSH1 0xC8 SHL SWAP1 SWAP3 DIV AND ISZERO ISZERO PUSH1 0xA0 DUP5 ADD MSTORE PUSH1 0x4 DUP5 ADD DUP1 SLOAD DUP3 MLOAD DUP2 DUP6 MUL DUP2 ADD DUP6 ADD SWAP1 SWAP4 MSTORE DUP1 DUP4 MSTORE PUSH1 0xC0 SWAP1 SWAP5 ADD SWAP4 SWAP2 SWAP3 SWAP1 SWAP2 SWAP1 DUP4 ADD DUP3 DUP3 DUP1 ISZERO PUSH2 0x3794 JUMPI PUSH1 0x20 MUL DUP3 ADD SWAP2 SWAP1 PUSH1 0x0 MSTORE PUSH1 0x20 PUSH1 0x0 KECCAK256 SWAP1 PUSH1 0x0 SWAP1 JUMPDEST DUP3 DUP3 SWAP1 SLOAD SWAP1 PUSH2 0x100 EXP SWAP1 DIV PUSH4 0xFFFFFFFF AND PUSH4 0xFFFFFFFF AND DUP2 MSTORE PUSH1 0x20 ADD SWAP1 PUSH1 0x4 ADD SWAP1 PUSH1 0x20 DUP3 PUSH1 0x3 ADD DIV SWAP3 DUP4 ADD SWAP3 PUSH1 0x1 SUB DUP3 MUL SWAP2 POP DUP1 DUP5 GT PUSH2 0x3757 JUMPI SWAP1 POP JUMPDEST POP POP POP POP POP DUP2 MSTORE PUSH1 0x20 ADD PUSH1 0x5 DUP3 ADD DUP1 SLOAD DUP1 PUSH1 0x20 MUL PUSH1 0x20 ADD PUSH1 0x40 MLOAD SWAP1 DUP2 ADD PUSH1 0x40 MSTORE DUP1 SWAP3 SWAP2 SWAP1 DUP2 DUP2 MSTORE PUSH1 0x20 ADD DUP3 DUP1 SLOAD DUP1 ISZERO PUSH2 0x3818 JUMPI PUSH1 0x20 MUL DUP3 ADD SWAP2 SWAP1 PUSH1 0x0 MSTORE PUSH1 0x20 PUSH1 0x0 KECCAK256 SWAP1 PUSH1 0x0 SWAP1 JUMPDEST DUP3 DUP3 SWAP1 SLOAD SWAP1 PUSH2 0x100 EXP SWAP1 DIV PUSH4 0xFFFFFFFF AND PUSH4 0xFFFFFFFF AND DUP2 MSTORE PUSH1 0x20 ADD SWAP1 PUSH1 0x4 ADD SWAP1 PUSH1 0x20 DUP3 PUSH1 0x3 ADD DIV SWAP3 DUP4 ADD SWAP3 PUSH1 0x1 SUB DUP3 MUL SWAP2 POP DUP1 DUP5 GT PUSH2 0x37DB JUMPI SWAP1 POP JUMPDEST POP POP POP POP POP DUP2 MSTORE PUSH1 0x20 ADD PUSH1 0x6 DUP3 ADD DUP1 SLOAD DUP1 PUSH1 0x20 MUL PUSH1 0x20 ADD PUSH1 0x40 MLOAD SWAP1 DUP2 ADD PUSH1 0x40 MSTORE DUP1 SWAP3 SWAP2 SWAP1 DUP2 DUP2 MSTORE PUSH1 0x20 ADD DUP3 DUP1 SLOAD DUP1 ISZERO PUSH2 0x389C JUMPI PUSH1 0x20 MUL DUP3 ADD SWAP2 SWAP1 PUSH1 0x0 MSTORE PUSH1 0x20 PUSH1 0x0 KECCAK256 SWAP1 PUSH1 0x0 SWAP1 JUMPDEST DUP3 DUP3 SWAP1 SLOAD SWAP1 PUSH2 0x100 EXP SWAP1 DIV PUSH4 0xFFFFFFFF AND PUSH4 0xFFFFFFFF AND DUP2 MSTORE PUSH1 0x20 ADD SWAP1 PUSH1 0x4 ADD SWAP1 PUSH1 0x20 DUP3 PUSH1 0x3 ADD DIV SWAP3 DUP4 ADD SWAP3 PUSH1 0x1 SUB DUP3 MUL SWAP2 POP DUP1 DUP5 GT PUSH2 0x385F JUMPI SWAP1 POP JUMPDEST POP POP POP POP POP DUP2 MSTORE PUSH1 0x20 ADD PUSH1 0x7 DUP3 ADD DUP1 SLOAD DUP1 PUSH1 0x20 MUL PUSH1 0x20 ADD PUSH1 0x40 MLOAD SWAP1 DUP2 ADD PUSH1 0x40 MSTORE DUP1 SWAP3 SWAP2 SWAP1 DUP2 DUP2 MSTORE PUSH1 0x20 ADD DUP3 DUP1 SLOAD DUP1 ISZERO PUSH2 0x38F4 JUMPI PUSH1 0x20 MUL DUP3 ADD SWAP2 SWAP1 PUSH1 0x0 MSTORE PUSH1 0x20 PUSH1 0x0 KECCAK256 SWAP1 JUMPDEST DUP2 SLOAD DUP2 MSTORE PUSH1 0x20 ADD SWAP1 PUSH1 0x1 ADD SWAP1 DUP1 DUP4 GT PUSH2 0x38E0 JUMPI JUMPDEST POP POP POP SWAP2 DUP4 MSTORE POP POP PUSH1 0x8 DUP3 ADD SLOAD PUSH1 0x20 DUP1 DUP4 ADD SWAP2 SWAP1 SWAP2 MSTORE PUSH1 0x9 DUP4 ADD SLOAD PUSH1 0x40 DUP1 DUP5 ADD SWAP2 SWAP1 SWAP2 MSTORE PUSH1 0xA DUP5 ADD SLOAD PUSH1 0x60 DUP5 ADD MSTORE PUSH1 0xB DUP5 ADD SLOAD PUSH1 0x80 DUP5 ADD MSTORE PUSH1 0xC DUP5 ADD SLOAD PUSH1 0xA0 DUP5 ADD MSTORE PUSH1 0xD DUP5 ADD SLOAD PUSH1 0xC0 DUP5 ADD MSTORE PUSH1 0xE DUP5 ADD SLOAD PUSH1 0xE0 DUP5 ADD MSTORE PUSH1 0xF DUP5 ADD SLOAD PUSH2 0x100 DUP1 DUP6 ADD SWAP2 SWAP1 SWAP2 MSTORE PUSH1 0x10 DUP6 ADD SLOAD PUSH1 0xFF DUP2 AND PUSH2 0x120 DUP7 ADD MSTORE DIV PUSH4 0xFFFFFFFF AND PUSH2 0x140 DUP5 ADD MSTORE PUSH1 0x11 DUP5 ADD SLOAD PUSH2 0x160 DUP5 ADD MSTORE PUSH1 0x12 DUP5 ADD SLOAD PUSH2 0x180 DUP5 ADD MSTORE PUSH1 0x13 DUP5 ADD SLOAD PUSH2 0x1A0 DUP5 ADD MSTORE PUSH1 0x14 DUP5 ADD SLOAD PUSH2 0x1C0 DUP5 ADD MSTORE PUSH1 0x15 DUP5 ADD SLOAD PUSH2 0x1E0 DUP5 ADD MSTORE PUSH1 0x16 DUP5 ADD SLOAD PUSH2 0x200 DUP5 ADD MSTORE PUSH1 0x17 DUP5 ADD SLOAD PUSH2 0x220 DUP5 ADD MSTORE PUSH1 0x18 DUP5 ADD DUP1 SLOAD DUP3 MLOAD DUP2 DUP6 MUL DUP2 ADD DUP6 ADD SWAP1 SWAP4 MSTORE DUP1 DUP4 MSTORE PUSH2 0x240 SWAP1 SWAP5 ADD SWAP4 SWAP2 SWAP3 SWAP1 SWAP2 SWAP1 DUP4 ADD DUP3 DUP3 DUP1 ISZERO PUSH2 0x3A3E JUMPI PUSH1 0x20 MUL DUP3 ADD SWAP2 SWAP1 PUSH1 0x0 MSTORE PUSH1 0x20 PUSH1 0x0 KECCAK256 SWAP1 PUSH1 0x0 SWAP1 JUMPDEST DUP3 DUP3 SWAP1 SLOAD SWAP1 PUSH2 0x100 EXP SWAP1 DIV PUSH4 0xFFFFFFFF AND PUSH4 0xFFFFFFFF AND DUP2 MSTORE PUSH1 0x20 ADD SWAP1 PUSH1 0x4 ADD SWAP1 PUSH1 0x20 DUP3 PUSH1 0x3 ADD DIV SWAP3 DUP4 ADD SWAP3 PUSH1 0x1 SUB DUP3 MUL SWAP2 POP DUP1 DUP5 GT PUSH2 0x3A01 JUMPI SWAP1 POP JUMPDEST POP POP POP SWAP2 DUP4 MSTORE POP POP PUSH1 0x19 DUP3 ADD SLOAD PUSH1 0x20 DUP3 ADD MSTORE PUSH1 0x1A DUP3 ADD SLOAD PUSH1 0x40 DUP3 ADD MSTORE PUSH1 0x1B DUP3 ADD SLOAD PUSH1 0x60 DUP3 ADD MSTORE PUSH1 0x1C SWAP1 SWAP2 ADD SLOAD PUSH1 0xFF DUP1 DUP3 AND ISZERO ISZERO PUSH1 0x80 DUP5 ADD MSTORE PUSH2 0x100 DUP3 DIV DUP2 AND ISZERO ISZERO PUSH1 0xA0 DUP5 ADD MSTORE PUSH3 0x10000 DUP3 DIV DUP2 AND ISZERO ISZERO PUSH1 0xC0 DUP5 ADD MSTORE PUSH4 0x1000000 SWAP1 SWAP2 DIV AND ISZERO ISZERO PUSH1 0xE0 SWAP1 SWAP2 ADD MSTORE PUSH2 0x43CE JUMP JUMPDEST PUSH2 0x3AB4 DUP5 PUSH1 0x1 PUSH2 0x5AF0 JUMP JUMPDEST PUSH1 0xFF AND GT ISZERO PUSH2 0x3AEB JUMPI PUSH1 0x40 MLOAD PUSH32 0x446F776E6C696E65206C6576656C73206C696D69742072656163686564000000 DUP2 MSTORE PUSH1 0x1D ADD PUSH2 0x35BB JUMP JUMPDEST PUSH1 0xCB SLOAD DUP8 MLOAD PUSH1 0x0 SWAP2 PUSH2 0xFFFF AND SWAP1 DUP10 SWAP1 PUSH1 0xFF DUP8 AND SWAP1 DUP2 LT PUSH2 0x3B0D JUMPI PUSH2 0x3B0D PUSH2 0x5A29 JUMP JUMPDEST PUSH1 0x20 MUL PUSH1 0x20 ADD ADD MLOAD PUSH2 0xFFFF AND DUP12 PUSH2 0x3B24 SWAP2 SWAP1 PUSH2 0x58E9 JUMP JUMPDEST PUSH2 0x3B2E SWAP2 SWAP1 PUSH2 0x5900 JUMP JUMPDEST SWAP1 POP DUP1 DUP3 PUSH1 0x17 ADD PUSH1 0x0 DUP3 DUP3 SLOAD PUSH2 0x3B44 SWAP2 SWAP1 PUSH2 0x5A16 JUMP JUMPDEST SWAP1 SWAP2 SSTORE POP PUSH2 0x3B54 SWAP1 POP DUP3 DUP3 PUSH2 0x3BE4 JUMP JUMPDEST PUSH2 0x3B5E DUP2 DUP7 PUSH2 0x5A16 JUMP JUMPDEST SWAP5 POP DUP1 PUSH4 0xFFFFFFFF DUP1 DUP6 AND SWAP1 DUP12 AND PUSH32 0xF8FB9B5AB69A0208214661678427C6B48ABF457F53605D1F559D17452F1EEA11 PUSH2 0x3B98 DUP9 PUSH1 0x1 PUSH2 0x5AF0 JUMP JUMPDEST PUSH1 0x40 MLOAD PUSH1 0xFF SWAP1 SWAP2 AND DUP2 MSTORE PUSH1 0x20 ADD PUSH1 0x40 MLOAD DUP1 SWAP2 SUB SWAP1 LOG4 POP SWAP4 POP POP JUMPDEST DUP1 PUSH2 0x3BBC DUP2 PUSH2 0x5B09 JUMP JUMPDEST SWAP2 POP POP PUSH2 0x3549 JUMP JUMPDEST POP DUP1 PUSH1 0xCE PUSH1 0x0 DUP3 DUP3 SLOAD PUSH2 0x3BD7 SWAP2 SWAP1 PUSH2 0x5A16 JUMP JUMPDEST SWAP1 SWAP2 SSTORE POP POP POP POP POP POP POP POP JUMP JUMPDEST DUP2 PUSH1 0x14 ADD SLOAD DUP2 DUP4 PUSH1 0x12 ADD SLOAD PUSH2 0x3BF9 SWAP2 SWAP1 PUSH2 0x5A16 JUMP JUMPDEST GT PUSH2 0x3C38 JUMPI DUP1 DUP3 PUSH1 0x12 ADD PUSH1 0x0 DUP3 DUP3 SLOAD PUSH2 0x3C12 SWAP2 SWAP1 PUSH2 0x5A16 JUMP JUMPDEST SWAP3 POP POP DUP2 SWAP1 SSTORE POP DUP1 DUP3 PUSH1 0x1B ADD PUSH1 0x0 DUP3 DUP3 SLOAD PUSH2 0x3C2D SWAP2 SWAP1 PUSH2 0x5A16 JUMP JUMPDEST SWAP1 SWAP2 SSTORE POP PUSH2 0x151F SWAP1 POP JUMP JUMPDEST DUP2 PUSH1 0x12 ADD SLOAD DUP3 PUSH1 0x14 ADD SLOAD PUSH2 0x3C4C SWAP2 SWAP1 PUSH2 0x593F JUMP JUMPDEST DUP3 PUSH1 0x1B ADD PUSH1 0x0 DUP3 DUP3 SLOAD PUSH2 0x3C5F SWAP2 SWAP1 PUSH2 0x5A16 JUMP JUMPDEST SWAP1 SWAP2 SSTORE POP PUSH2 0x151F SWAP1 POP DUP3 PUSH2 0x440D JUMP JUMPDEST PUSH1 0x33 DUP1 SLOAD PUSH1 0x1 PUSH1 0x1 PUSH1 0xA0 SHL SUB DUP4 DUP2 AND PUSH1 0x1 PUSH1 0x1 PUSH1 0xA0 SHL SUB NOT DUP4 AND DUP2 OR SWAP1 SWAP4 SSTORE PUSH1 0x40 MLOAD SWAP2 AND SWAP2 SWAP1 DUP3 SWAP1 PUSH32 0x8BE0079C531659141344CD1FD0A4F28419497F9722A3DAAFE3B4186F6B6457E0 SWAP1 PUSH1 0x0 SWAP1 LOG3 POP POP JUMP JUMPDEST DUP8 SLOAD PUSH4 0xFFFFFFFF AND PUSH1 0x0 SUB PUSH2 0x3CE3 JUMPI DUP8 SLOAD PUSH4 0xFFFFFFFF NOT AND PUSH4 0xFFFFFFFF DUP8 AND OR DUP9 SSTORE JUMPDEST PUSH1 0x1C DUP9 ADD SLOAD PUSH1 0xFF AND PUSH2 0x3CFF JUMPI PUSH1 0x1C DUP9 ADD DUP1 SLOAD PUSH1 0xFF NOT AND PUSH1 0x1 OR SWAP1 SSTORE JUMPDEST PUSH1 0x3 DUP9 ADD SLOAD PUSH1 0xFF AND PUSH2 0x3D57 JUMPI PUSH1 0xD4 DUP1 SLOAD PUSH1 0x1 DUP2 ADD DUP3 SSTORE PUSH1 0x0 SWAP2 SWAP1 SWAP2 MSTORE PUSH32 0x9780E26D96B1F2A9A18EF8FC72D589DBF03EF788137B64F43897E83A91E7FEEC ADD DUP1 SLOAD PUSH1 0x1 PUSH1 0x1 PUSH1 0xA0 SHL SUB NOT AND PUSH1 0x1 PUSH1 0x1 PUSH1 0xA0 SHL SUB DUP10 AND OR SWAP1 SSTORE JUMPDEST PUSH1 0x3 DUP9 ADD SLOAD PUSH2 0x100 SWAP1 DIV PUSH1 0x1 PUSH1 0x1 PUSH1 0xA0 SHL SUB AND PUSH2 0x3D91 JUMPI PUSH1 0x3 DUP9 ADD DUP1 SLOAD PUSH2 0x100 PUSH1 0x1 PUSH1 0xA8 SHL SUB NOT AND PUSH2 0x100 PUSH1 0x1 PUSH1 0x1 PUSH1 0xA0 SHL SUB DUP11 AND MUL OR SWAP1 SSTORE JUMPDEST DUP8 PUSH1 0x2 ADD SLOAD PUSH1 0x0 SUB PUSH2 0x3DA5 JUMPI PUSH1 0x2 DUP9 ADD DUP3 SWAP1 SSTORE JUMPDEST PUSH1 0x3 DUP9 ADD SLOAD PUSH1 0x1 PUSH1 0xC8 SHL SWAP1 DIV PUSH1 0xFF AND PUSH2 0x3DE9 JUMPI PUSH1 0x3 DUP9 ADD DUP1 SLOAD PUSH1 0xFF PUSH1 0xC8 SHL NOT PUSH4 0xFFFFFFFF DUP9 AND PUSH1 0x1 PUSH1 0xA8 SHL MUL AND PUSH5 0xFFFFFFFFFF PUSH1 0xA8 SHL NOT SWAP1 SWAP2 AND OR PUSH1 0x1 PUSH1 0xC8 SHL OR SWAP1 SSTORE JUMPDEST PUSH1 0x0 PUSH1 0x12 DUP10 ADD SSTORE PUSH2 0x3DFB PUSH1 0x3 DUP5 PUSH2 0x5900 JUMP JUMPDEST PUSH1 0x13 DUP10 ADD SSTORE PUSH1 0x14 DUP9 ADD DUP4 SWAP1 SSTORE PUSH1 0x7 DUP9 ADD DUP1 SLOAD PUSH1 0x1 DUP2 ADD DUP3 SSTORE PUSH1 0x0 SWAP2 DUP3 MSTORE PUSH1 0x20 DUP3 KECCAK256 ADD DUP6 SWAP1 SSTORE PUSH1 0x8 DUP10 ADD DUP1 SLOAD DUP7 SWAP3 SWAP1 PUSH2 0x3E34 SWAP1 DUP5 SWAP1 PUSH2 0x5A16 JUMP JUMPDEST SWAP1 SWAP2 SSTORE POP POP PUSH1 0x15 DUP9 ADD DUP3 SWAP1 SSTORE PUSH1 0x40 DUP1 MLOAD PUSH1 0x0 DUP2 MSTORE PUSH1 0x20 DUP2 ADD SWAP2 DUP3 SWAP1 MSTORE MLOAD PUSH2 0x3E5F SWAP2 PUSH1 0x18 DUP12 ADD SWAP2 PUSH2 0x4FB5 JUMP JUMPDEST POP PUSH1 0x1C DUP9 ADD DUP1 SLOAD PUSH4 0xFF000000 NOT AND PUSH4 0x1000000 OR SWAP1 SSTORE PUSH1 0x0 JUMPDEST DUP2 DUP2 PUSH1 0xFF AND LT ISZERO PUSH2 0x4037 JUMPI PUSH1 0x3 DUP10 ADD SLOAD PUSH4 0xFFFFFFFF PUSH1 0x1 PUSH1 0xA8 SHL SWAP1 SWAP2 DIV DUP2 AND PUSH1 0x0 DUP2 DUP2 MSTORE PUSH1 0xD7 PUSH1 0x20 MSTORE PUSH1 0x40 DUP2 KECCAK256 DUP1 SLOAD SWAP3 SWAP4 SWAP1 SWAP3 AND SWAP1 SUB PUSH2 0x3EB9 JUMPI POP POP PUSH2 0x4037 JUMP JUMPDEST DUP3 PUSH1 0xFF AND PUSH1 0x0 SUB PUSH2 0x3F1B JUMPI DUP7 DUP2 PUSH1 0xA ADD PUSH1 0x0 DUP3 DUP3 SLOAD PUSH2 0x3ED8 SWAP2 SWAP1 PUSH2 0x5A16 JUMP JUMPDEST SWAP1 SWAP2 SSTORE POP POP PUSH1 0x4 DUP2 DUP2 ADD DUP1 SLOAD PUSH1 0x1 DUP2 ADD DUP3 SSTORE PUSH1 0x0 SWAP2 DUP3 MSTORE PUSH1 0x20 SWAP1 SWAP2 KECCAK256 PUSH1 0x8 DUP3 DIV ADD DUP1 SLOAD PUSH1 0x7 SWAP1 SWAP3 AND SWAP1 SWAP3 MUL PUSH2 0x100 EXP PUSH4 0xFFFFFFFF DUP2 DUP2 MUL NOT SWAP1 SWAP3 AND SWAP2 DUP13 AND MUL OR SWAP1 SSTORE JUMPDEST DUP7 DUP2 PUSH1 0xC ADD PUSH1 0x0 DUP3 DUP3 SLOAD PUSH2 0x3F2F SWAP2 SWAP1 PUSH2 0x5A16 JUMP JUMPDEST SWAP1 SWAP2 SSTORE POP POP PUSH4 0xFFFFFFFF DUP9 AND ISZERO PUSH2 0x4003 JUMPI PUSH1 0x5 DUP2 ADD DUP1 SLOAD PUSH1 0x1 DUP1 DUP3 ADD DUP4 SSTORE PUSH1 0x0 SWAP3 DUP4 MSTORE PUSH1 0x20 SWAP1 SWAP3 KECCAK256 PUSH1 0x8 DUP3 DIV ADD DUP1 SLOAD PUSH1 0x7 SWAP1 SWAP3 AND PUSH1 0x4 MUL PUSH2 0x100 EXP PUSH4 0xFFFFFFFF DUP2 DUP2 MUL NOT SWAP1 SWAP4 AND SWAP3 DUP14 AND MUL SWAP2 SWAP1 SWAP2 OR SWAP1 SSTORE PUSH1 0x6 DUP3 ADD SWAP1 PUSH2 0x3F90 SWAP1 DUP6 SWAP1 PUSH2 0x5AF0 JUMP JUMPDEST DUP2 SLOAD PUSH1 0x1 DUP2 ADD DUP4 SSTORE PUSH1 0x0 SWAP3 DUP4 MSTORE PUSH1 0x20 DUP4 KECCAK256 PUSH1 0x8 DUP3 DIV ADD DUP1 SLOAD PUSH4 0xFFFFFFFF PUSH1 0x7 SWAP1 SWAP4 AND PUSH1 0x4 MUL PUSH2 0x100 EXP DUP4 DUP2 MUL NOT SWAP1 SWAP2 AND PUSH1 0xFF SWAP5 SWAP1 SWAP5 AND MUL SWAP3 SWAP1 SWAP3 OR SWAP1 SWAP2 SSTORE DUP3 SLOAD PUSH1 0x40 MLOAD SWAP1 DUP3 AND SWAP3 DUP12 DUP4 AND SWAP3 DUP14 AND SWAP2 PUSH32 0x3EC54E926FE5DD86406FE57832FF318517AED2A5CFBEACFB90A5E9489483AE4B SWAP2 SWAP1 LOG4 JUMPDEST PUSH1 0xCF SLOAD PUSH5 0x100000000 SWAP1 DIV PUSH1 0xFF AND ISZERO PUSH2 0x4021 JUMPI PUSH2 0x4021 DUP2 DUP9 DUP8 PUSH2 0x44B5 JUMP JUMPDEST SWAP10 POP DUP2 SWAP1 POP PUSH2 0x402F DUP2 PUSH2 0x5B09 JUMP JUMPDEST SWAP2 POP POP PUSH2 0x3E78 JUMP JUMPDEST POP PUSH2 0x2D24 DUP5 DUP4 PUSH2 0x4C0F JUMP JUMPDEST PUSH1 0x0 SLOAD PUSH2 0x100 SWAP1 DIV PUSH1 0xFF AND PUSH2 0x4069 JUMPI PUSH1 0x40 MLOAD PUSH3 0x461BCD PUSH1 0xE5 SHL DUP2 MSTORE PUSH1 0x4 ADD PUSH2 0x10DB SWAP1 PUSH2 0x5B28 JUMP JUMPDEST PUSH2 0x1EF1 PUSH2 0x4C49 JUMP JUMPDEST PUSH1 0x0 SLOAD PUSH2 0x100 SWAP1 DIV PUSH1 0xFF AND PUSH2 0x1EF1 JUMPI PUSH1 0x40 MLOAD PUSH3 0x461BCD PUSH1 0xE5 SHL DUP2 MSTORE PUSH1 0x4 ADD PUSH2 0x10DB SWAP1 PUSH2 0x5B28 JUMP JUMPDEST PUSH1 0x0 DUP1 PUSH8 0xDE0B6B3A7640000 PUSH1 0xC9 PUSH1 0x0 SWAP1 SLOAD SWAP1 PUSH2 0x100 EXP SWAP1 DIV PUSH1 0x1 PUSH1 0x1 PUSH1 0xA0 SHL SUB AND PUSH1 0x1 PUSH1 0x1 PUSH1 0xA0 SHL SUB AND PUSH4 0x2913497B PUSH1 0x40 MLOAD DUP2 PUSH4 0xFFFFFFFF AND PUSH1 0xE0 SHL DUP2 MSTORE PUSH1 0x4 ADD PUSH1 0x20 PUSH1 0x40 MLOAD DUP1 DUP4 SUB DUP2 DUP7 GAS STATICCALL ISZERO DUP1 ISZERO PUSH2 0x40F7 JUMPI RETURNDATASIZE PUSH1 0x0 DUP1 RETURNDATACOPY RETURNDATASIZE PUSH1 0x0 REVERT JUMPDEST POP POP POP POP PUSH1 0x40 MLOAD RETURNDATASIZE PUSH1 0x1F NOT PUSH1 0x1F DUP3 ADD AND DUP3 ADD DUP1 PUSH1 0x40 MSTORE POP DUP2 ADD SWAP1 PUSH2 0x411B SWAP2 SWAP1 PUSH2 0x5922 JUMP JUMPDEST PUSH1 0x1 PUSH1 0x1 PUSH1 0xA0 SHL SUB AND PUSH4 0xE1AA6036 PUSH1 0x40 MLOAD DUP2 PUSH4 0xFFFFFFFF AND PUSH1 0xE0 SHL DUP2 MSTORE PUSH1 0x4 ADD PUSH1 0x20 PUSH1 0x40 MLOAD DUP1 DUP4 SUB DUP2 DUP7 GAS STATICCALL ISZERO DUP1 ISZERO PUSH2 0x4158 JUMPI RETURNDATASIZE PUSH1 0x0 DUP1 RETURNDATACOPY RETURNDATASIZE PUSH1 0x0 REVERT JUMPDEST POP POP POP POP PUSH1 0x40 MLOAD RETURNDATASIZE PUSH1 0x1F NOT PUSH1 0x1F DUP3 ADD AND DUP3 ADD DUP1 PUSH1 0x40 MSTORE POP DUP2 ADD SWAP1 PUSH2 0x417C SWAP2 SWAP1 PUSH2 0x5AD7 JUMP JUMPDEST PUSH2 0x3329 SWAP1 DUP6 PUSH2 0x58E9 JUMP JUMPDEST PUSH1 0x1 PUSH1 0x1 PUSH1 0xA0 SHL SUB DUP2 AND EXTCODESIZE PUSH2 0x41F3 JUMPI PUSH1 0x40 MLOAD PUSH3 0x461BCD PUSH1 0xE5 SHL DUP2 MSTORE PUSH1 0x20 PUSH1 0x4 DUP3 ADD MSTORE PUSH1 0x2D PUSH1 0x24 DUP3 ADD MSTORE PUSH32 0x455243313936373A206E657720696D706C656D656E746174696F6E206973206E PUSH1 0x44 DUP3 ADD MSTORE PUSH13 0x1BDD08184818DBDB9D1C9858DD PUSH1 0x9A SHL PUSH1 0x64 DUP3 ADD MSTORE PUSH1 0x84 ADD PUSH2 0x10DB JUMP JUMPDEST PUSH1 0x0 DUP1 MLOAD PUSH1 0x20 PUSH2 0x5BA3 DUP4 CODECOPY DUP2 MLOAD SWAP2 MSTORE DUP1 SLOAD PUSH1 0x1 PUSH1 0x1 PUSH1 0xA0 SHL SUB NOT AND PUSH1 0x1 PUSH1 0x1 PUSH1 0xA0 SHL SUB SWAP3 SWAP1 SWAP3 AND SWAP2 SWAP1 SWAP2 OR SWAP1 SSTORE JUMP JUMPDEST PUSH2 0x422B DUP4 PUSH2 0x4C79 JUMP JUMPDEST PUSH1 0x0 DUP3 MLOAD GT DUP1 PUSH2 0x4238 JUMPI POP DUP1 JUMPDEST ISZERO PUSH2 0x9D6 JUMPI PUSH2 0x4247 DUP4 DUP4 PUSH2 0x4CB9 JUMP JUMPDEST POP POP POP POP JUMP JUMPDEST PUSH1 0x1C DUP2 ADD SLOAD PUSH1 0x0 SWAP1 PUSH1 0xFF AND ISZERO DUP1 PUSH2 0x426C JUMPI POP DUP2 PUSH1 0x14 ADD SLOAD DUP3 PUSH1 0x12 ADD SLOAD LT ISZERO JUMPDEST ISZERO PUSH2 0x4279 JUMPI POP PUSH1 0x1 SWAP2 SWAP1 POP JUMP JUMPDEST PUSH1 0x18 DUP3 ADD SLOAD ISZERO DUP1 ISZERO SWAP1 PUSH2 0x43B9 JUMPI POP PUSH1 0xC9 PUSH1 0x0 SWAP1 SLOAD SWAP1 PUSH2 0x100 EXP SWAP1 DIV PUSH1 0x1 PUSH1 0x1 PUSH1 0xA0 SHL SUB AND PUSH1 0x1 PUSH1 0x1 PUSH1 0xA0 SHL SUB AND PUSH4 0x8908DF3A PUSH1 0x40 MLOAD DUP2 PUSH4 0xFFFFFFFF AND PUSH1 0xE0 SHL DUP2 MSTORE PUSH1 0x4 ADD PUSH1 0x20 PUSH1 0x40 MLOAD DUP1 DUP4 SUB DUP2 DUP7 GAS STATICCALL ISZERO DUP1 ISZERO PUSH2 0x42DA JUMPI RETURNDATASIZE PUSH1 0x0 DUP1 RETURNDATACOPY RETURNDATASIZE PUSH1 0x0 REVERT JUMPDEST POP POP POP POP PUSH1 0x40 MLOAD RETURNDATASIZE PUSH1 0x1F NOT PUSH1 0x1F DUP3 ADD AND DUP3 ADD DUP1 PUSH1 0x40 MSTORE POP DUP2 ADD SWAP1 PUSH2 0x42FE SWAP2 SWAP1 PUSH2 0x5922 JUMP JUMPDEST PUSH1 0x1 PUSH1 0x1 PUSH1 0xA0 SHL SUB AND PUSH4 0x55332A85 DUP4 PUSH1 0x18 ADD PUSH1 0x1 DUP6 PUSH1 0x18 ADD DUP1 SLOAD SWAP1 POP PUSH2 0x4324 SWAP2 SWAP1 PUSH2 0x593F JUMP JUMPDEST DUP2 SLOAD DUP2 LT PUSH2 0x4334 JUMPI PUSH2 0x4334 PUSH2 0x5A29 JUMP JUMPDEST PUSH1 0x0 SWAP2 DUP3 MSTORE PUSH1 0x20 SWAP1 SWAP2 KECCAK256 PUSH1 0x8 DUP3 DIV ADD SLOAD PUSH1 0x40 MLOAD PUSH1 0xE0 DUP5 SWAP1 SHL PUSH1 0x1 PUSH1 0x1 PUSH1 0xE0 SHL SUB NOT AND DUP2 MSTORE PUSH1 0x7 SWAP1 SWAP3 AND PUSH1 0x4 SWAP1 DUP2 MUL PUSH2 0x100 EXP SWAP1 SWAP2 DIV PUSH4 0xFFFFFFFF AND SWAP1 DUP3 ADD MSTORE PUSH1 0x24 ADD PUSH1 0x20 PUSH1 0x40 MLOAD DUP1 DUP4 SUB DUP2 DUP7 GAS STATICCALL ISZERO DUP1 ISZERO PUSH2 0x4393 JUMPI RETURNDATASIZE PUSH1 0x0 DUP1 RETURNDATACOPY RETURNDATASIZE PUSH1 0x0 REVERT JUMPDEST POP POP POP POP PUSH1 0x40 MLOAD RETURNDATASIZE PUSH1 0x1F NOT PUSH1 0x1F DUP3 ADD AND DUP3 ADD DUP1 PUSH1 0x40 MSTORE POP DUP2 ADD SWAP1 PUSH2 0x43B7 SWAP2 SWAP1 PUSH2 0x58B6 JUMP JUMPDEST ISZERO JUMPDEST ISZERO PUSH2 0x43C6 JUMPI POP PUSH1 0x1 SWAP2 SWAP1 POP JUMP JUMPDEST POP PUSH1 0x0 SWAP2 SWAP1 POP JUMP JUMPDEST PUSH1 0xE0 DUP2 ADD MLOAD MLOAD PUSH1 0x0 SWAP1 DUP2 DUP2 ISZERO PUSH2 0x3333 JUMPI PUSH1 0xCF SLOAD PUSH1 0x1 SWAP1 PUSH2 0x43FB SWAP1 PUSH7 0x1000000000000 SWAP1 DIV PUSH1 0xFF AND DUP5 PUSH2 0x58E9 JUMP JUMPDEST PUSH2 0x4405 SWAP2 SWAP1 PUSH2 0x593F JUMP JUMPDEST SWAP5 SWAP4 POP POP POP POP JUMP JUMPDEST PUSH1 0x1C DUP2 ADD DUP1 SLOAD PUSH1 0xFF NOT AND SWAP1 SSTORE PUSH1 0x40 DUP1 MLOAD PUSH1 0x0 DUP2 MSTORE PUSH1 0x20 DUP2 ADD SWAP2 DUP3 SWAP1 MSTORE MLOAD PUSH2 0x4438 SWAP2 PUSH1 0x18 DUP5 ADD SWAP2 PUSH2 0x4FB5 JUMP JUMPDEST POP PUSH1 0x0 PUSH1 0x12 DUP3 ADD DUP2 SWAP1 SSTORE PUSH1 0x13 DUP3 ADD DUP2 SWAP1 SSTORE PUSH1 0x14 DUP3 ADD SSTORE TIMESTAMP PUSH1 0x16 DUP3 ADD SSTORE DUP1 SLOAD PUSH1 0x40 DUP1 MLOAD PUSH4 0xFFFFFFFF SWAP1 SWAP3 AND DUP3 MSTORE PUSH1 0x20 DUP3 ADD DUP2 SWAP1 MSTORE PUSH1 0x11 SWAP1 DUP3 ADD MSTORE PUSH17 0x13585E08131A5B5A5D0814995858DA1959 PUSH1 0x7A SHL PUSH1 0x60 DUP3 ADD MSTORE PUSH32 0xCE8AB8F2AC6A94861F9740FA1FED3E6D13A85DFD8A4833BF96F3A0055BA7FB6F SWAP1 PUSH1 0x80 ADD PUSH2 0x27B1 JUMP JUMPDEST PUSH1 0x10 DUP4 ADD SLOAD PUSH1 0x40 DUP1 MLOAD PUSH2 0x480 DUP2 ADD SWAP1 SWAP2 MSTORE DUP5 SLOAD PUSH4 0xFFFFFFFF AND DUP2 MSTORE PUSH1 0x1 DUP6 ADD DUP1 SLOAD PUSH1 0xFF SWAP1 SWAP4 AND SWAP3 PUSH2 0x495B SWAP3 SWAP2 DUP8 SWAP2 PUSH1 0x20 DUP5 ADD SWAP2 SWAP1 PUSH2 0x44F2 SWAP1 PUSH2 0x586E JUMP JUMPDEST DUP1 PUSH1 0x1F ADD PUSH1 0x20 DUP1 SWAP2 DIV MUL PUSH1 0x20 ADD PUSH1 0x40 MLOAD SWAP1 DUP2 ADD PUSH1 0x40 MSTORE DUP1 SWAP3 SWAP2 SWAP1 DUP2 DUP2 MSTORE PUSH1 0x20 ADD DUP3 DUP1 SLOAD PUSH2 0x451E SWAP1 PUSH2 0x586E JUMP JUMPDEST DUP1 ISZERO PUSH2 0x456B JUMPI DUP1 PUSH1 0x1F LT PUSH2 0x4540 JUMPI PUSH2 0x100 DUP1 DUP4 SLOAD DIV MUL DUP4 MSTORE SWAP2 PUSH1 0x20 ADD SWAP2 PUSH2 0x456B JUMP JUMPDEST DUP3 ADD SWAP2 SWAP1 PUSH1 0x0 MSTORE PUSH1 0x20 PUSH1 0x0 KECCAK256 SWAP1 JUMPDEST DUP2 SLOAD DUP2 MSTORE SWAP1 PUSH1 0x1 ADD SWAP1 PUSH1 0x20 ADD DUP1 DUP4 GT PUSH2 0x454E JUMPI DUP3 SWAP1 SUB PUSH1 0x1F AND DUP3 ADD SWAP2 JUMPDEST POP POP POP SWAP2 DUP4 MSTORE POP POP PUSH1 0x2 DUP3 ADD SLOAD PUSH1 0x20 DUP1 DUP4 ADD SWAP2 SWAP1 SWAP2 MSTORE PUSH1 0x3 DUP4 ADD SLOAD PUSH1 0xFF DUP1 DUP3 AND ISZERO ISZERO PUSH1 0x40 DUP1 DUP7 ADD SWAP2 SWAP1 SWAP2 MSTORE PUSH1 0x1 PUSH1 0x1 PUSH1 0xA0 SHL SUB PUSH2 0x100 DUP5 DIV AND PUSH1 0x60 DUP7 ADD MSTORE PUSH4 0xFFFFFFFF PUSH1 0x1 PUSH1 0xA8 SHL DUP5 DIV AND PUSH1 0x80 DUP7 ADD MSTORE PUSH1 0x1 PUSH1 0xC8 SHL SWAP1 SWAP3 DIV AND ISZERO ISZERO PUSH1 0xA0 DUP5 ADD MSTORE PUSH1 0x4 DUP5 ADD DUP1 SLOAD DUP3 MLOAD DUP2 DUP6 MUL DUP2 ADD DUP6 ADD SWAP1 SWAP4 MSTORE DUP1 DUP4 MSTORE PUSH1 0xC0 SWAP1 SWAP5 ADD SWAP4 SWAP2 SWAP3 SWAP1 SWAP2 SWAP1 DUP4 ADD DUP3 DUP3 DUP1 ISZERO PUSH2 0x4646 JUMPI PUSH1 0x20 MUL DUP3 ADD SWAP2 SWAP1 PUSH1 0x0 MSTORE PUSH1 0x20 PUSH1 0x0 KECCAK256 SWAP1 PUSH1 0x0 SWAP1 JUMPDEST DUP3 DUP3 SWAP1 SLOAD SWAP1 PUSH2 0x100 EXP SWAP1 DIV PUSH4 0xFFFFFFFF AND PUSH4 0xFFFFFFFF AND DUP2 MSTORE PUSH1 0x20 ADD SWAP1 PUSH1 0x4 ADD SWAP1 PUSH1 0x20 DUP3 PUSH1 0x3 ADD DIV SWAP3 DUP4 ADD SWAP3 PUSH1 0x1 SUB DUP3 MUL SWAP2 POP DUP1 DUP5 GT PUSH2 0x4609 JUMPI SWAP1 POP JUMPDEST POP POP POP POP POP DUP2 MSTORE PUSH1 0x20 ADD PUSH1 0x5 DUP3 ADD DUP1 SLOAD DUP1 PUSH1 0x20 MUL PUSH1 0x20 ADD PUSH1 0x40 MLOAD SWAP1 DUP2 ADD PUSH1 0x40 MSTORE DUP1 SWAP3 SWAP2 SWAP1 DUP2 DUP2 MSTORE PUSH1 0x20 ADD DUP3 DUP1 SLOAD DUP1 ISZERO PUSH2 0x46CA JUMPI PUSH1 0x20 MUL DUP3 ADD SWAP2 SWAP1 PUSH1 0x0 MSTORE PUSH1 0x20 PUSH1 0x0 KECCAK256 SWAP1 PUSH1 0x0 SWAP1 JUMPDEST DUP3 DUP3 SWAP1 SLOAD SWAP1 PUSH2 0x100 EXP SWAP1 DIV PUSH4 0xFFFFFFFF AND PUSH4 0xFFFFFFFF AND DUP2 MSTORE PUSH1 0x20 ADD SWAP1 PUSH1 0x4 ADD SWAP1 PUSH1 0x20 DUP3 PUSH1 0x3 ADD DIV SWAP3 DUP4 ADD SWAP3 PUSH1 0x1 SUB DUP3 MUL SWAP2 POP DUP1 DUP5 GT PUSH2 0x468D JUMPI SWAP1 POP JUMPDEST POP POP POP POP POP DUP2 MSTORE PUSH1 0x20 ADD PUSH1 0x6 DUP3 ADD DUP1 SLOAD DUP1 PUSH1 0x20 MUL PUSH1 0x20 ADD PUSH1 0x40 MLOAD SWAP1 DUP2 ADD PUSH1 0x40 MSTORE DUP1 SWAP3 SWAP2 SWAP1 DUP2 DUP2 MSTORE PUSH1 0x20 ADD DUP3 DUP1 SLOAD DUP1 ISZERO PUSH2 0x474E JUMPI PUSH1 0x20 MUL DUP3 ADD SWAP2 SWAP1 PUSH1 0x0 MSTORE PUSH1 0x20 PUSH1 0x0 KECCAK256 SWAP1 PUSH1 0x0 SWAP1 JUMPDEST DUP3 DUP3 SWAP1 SLOAD SWAP1 PUSH2 0x100 EXP SWAP1 DIV PUSH4 0xFFFFFFFF AND PUSH4 0xFFFFFFFF AND DUP2 MSTORE PUSH1 0x20 ADD SWAP1 PUSH1 0x4 ADD SWAP1 PUSH1 0x20 DUP3 PUSH1 0x3 ADD DIV SWAP3 DUP4 ADD SWAP3 PUSH1 0x1 SUB DUP3 MUL SWAP2 POP DUP1 DUP5 GT PUSH2 0x4711 JUMPI SWAP1 POP JUMPDEST POP POP POP POP POP DUP2 MSTORE PUSH1 0x20 ADD PUSH1 0x7 DUP3 ADD DUP1 SLOAD DUP1 PUSH1 0x20 MUL PUSH1 0x20 ADD PUSH1 0x40 MLOAD SWAP1 DUP2 ADD PUSH1 0x40 MSTORE DUP1 SWAP3 SWAP2 SWAP1 DUP2 DUP2 MSTORE PUSH1 0x20 ADD DUP3 DUP1 SLOAD DUP1 ISZERO PUSH2 0x47A6 JUMPI PUSH1 0x20 MUL DUP3 ADD SWAP2 SWAP1 PUSH1 0x0 MSTORE PUSH1 0x20 PUSH1 0x0 KECCAK256 SWAP1 JUMPDEST DUP2 SLOAD DUP2 MSTORE PUSH1 0x20 ADD SWAP1 PUSH1 0x1 ADD SWAP1 DUP1 DUP4 GT PUSH2 0x4792 JUMPI JUMPDEST POP POP POP SWAP2 DUP4 MSTORE POP POP PUSH1 0x8 DUP3 ADD SLOAD PUSH1 0x20 DUP1 DUP4 ADD SWAP2 SWAP1 SWAP2 MSTORE PUSH1 0x9 DUP4 ADD SLOAD PUSH1 0x40 DUP1 DUP5 ADD SWAP2 SWAP1 SWAP2 MSTORE PUSH1 0xA DUP5 ADD SLOAD PUSH1 0x60 DUP5 ADD MSTORE PUSH1 0xB DUP5 ADD SLOAD PUSH1 0x80 DUP5 ADD MSTORE PUSH1 0xC DUP5 ADD SLOAD PUSH1 0xA0 DUP5 ADD MSTORE PUSH1 0xD DUP5 ADD SLOAD PUSH1 0xC0 DUP5 ADD MSTORE PUSH1 0xE DUP5 ADD SLOAD PUSH1 0xE0 DUP5 ADD MSTORE PUSH1 0xF DUP5 ADD SLOAD PUSH2 0x100 DUP1 DUP6 ADD SWAP2 SWAP1 SWAP2 MSTORE PUSH1 0x10 DUP6 ADD SLOAD PUSH1 0xFF DUP2 AND PUSH2 0x120 DUP7 ADD MSTORE DIV PUSH4 0xFFFFFFFF AND PUSH2 0x140 DUP5 ADD MSTORE PUSH1 0x11 DUP5 ADD SLOAD PUSH2 0x160 DUP5 ADD MSTORE PUSH1 0x12 DUP5 ADD SLOAD PUSH2 0x180 DUP5 ADD MSTORE PUSH1 0x13 DUP5 ADD SLOAD PUSH2 0x1A0 DUP5 ADD MSTORE PUSH1 0x14 DUP5 ADD SLOAD PUSH2 0x1C0 DUP5 ADD MSTORE PUSH1 0x15 DUP5 ADD SLOAD PUSH2 0x1E0 DUP5 ADD MSTORE PUSH1 0x16 DUP5 ADD SLOAD PUSH2 0x200 DUP5 ADD MSTORE PUSH1 0x17 DUP5 ADD SLOAD PUSH2 0x220 DUP5 ADD MSTORE PUSH1 0x18 DUP5 ADD DUP1 SLOAD DUP3 MLOAD DUP2 DUP6 MUL DUP2 ADD DUP6 ADD SWAP1 SWAP4 MSTORE DUP1 DUP4 MSTORE PUSH2 0x240 SWAP1 SWAP5 ADD SWAP4 SWAP2 SWAP3 SWAP1 SWAP2 SWAP1 DUP4 ADD DUP3 DUP3 DUP1 ISZERO PUSH2 0x48F0 JUMPI PUSH1 0x20 MUL DUP3 ADD SWAP2 SWAP1 PUSH1 0x0 MSTORE PUSH1 0x20 PUSH1 0x0 KECCAK256 SWAP1 PUSH1 0x0 SWAP1 JUMPDEST DUP3 DUP3 SWAP1 SLOAD SWAP1 PUSH2 0x100 EXP SWAP1 DIV PUSH4 0xFFFFFFFF AND PUSH4 0xFFFFFFFF AND DUP2 MSTORE PUSH1 0x20 ADD SWAP1 PUSH1 0x4 ADD SWAP1 PUSH1 0x20 DUP3 PUSH1 0x3 ADD DIV SWAP3 DUP4 ADD SWAP3 PUSH1 0x1 SUB DUP3 MUL SWAP2 POP DUP1 DUP5 GT PUSH2 0x48B3 JUMPI SWAP1 POP JUMPDEST POP POP POP SWAP2 DUP4 MSTORE POP POP PUSH1 0x19 DUP3 ADD SLOAD PUSH1 0x20 DUP3 ADD MSTORE PUSH1 0x1A DUP3 ADD SLOAD PUSH1 0x40 DUP3 ADD MSTORE PUSH1 0x1B DUP3 ADD SLOAD PUSH1 0x60 DUP3 ADD MSTORE PUSH1 0x1C SWAP1 SWAP2 ADD SLOAD PUSH1 0xFF DUP1 DUP3 AND ISZERO ISZERO PUSH1 0x80 DUP5 ADD MSTORE PUSH2 0x100 DUP3 DIV DUP2 AND ISZERO ISZERO PUSH1 0xA0 DUP5 ADD MSTORE PUSH3 0x10000 DUP3 DIV DUP2 AND ISZERO ISZERO PUSH1 0xC0 DUP5 ADD MSTORE PUSH4 0x1000000 SWAP1 SWAP2 DIV AND ISZERO ISZERO PUSH1 0xE0 SWAP1 SWAP2 ADD MSTORE PUSH2 0x4DAF JUMP JUMPDEST PUSH1 0xFF AND GT ISZERO PUSH2 0x9D6 JUMPI PUSH1 0x40 DUP1 MLOAD PUSH2 0x480 DUP2 ADD SWAP1 SWAP2 MSTORE DUP4 SLOAD PUSH4 0xFFFFFFFF AND DUP2 MSTORE PUSH1 0x1 DUP5 ADD DUP1 SLOAD PUSH2 0x4996 SWAP3 SWAP2 DUP7 SWAP2 PUSH1 0x20 DUP5 ADD SWAP2 SWAP1 PUSH2 0x44F2 SWAP1 PUSH2 0x586E JUMP JUMPDEST PUSH1 0x10 DUP5 ADD DUP1 SLOAD PUSH1 0xFF NOT AND PUSH1 0xFF SWAP3 DUP4 AND SWAP1 DUP2 OR DUP3 SSTORE PUSH1 0x0 SWAP1 DUP2 MSTORE PUSH1 0xD8 PUSH1 0x20 SWAP1 DUP2 MSTORE PUSH1 0x40 DUP1 DUP4 KECCAK256 DUP9 SLOAD PUSH1 0x9 SWAP2 DUP3 ADD DUP1 SLOAD PUSH1 0x1 DUP2 DUP2 ADD DUP4 SSTORE SWAP2 DUP8 MSTORE SWAP5 DUP7 KECCAK256 PUSH1 0x8 DUP7 DIV ADD DUP1 SLOAD PUSH4 0xFFFFFFFF PUSH1 0x7 SWAP1 SWAP8 AND PUSH1 0x4 MUL PUSH2 0x100 EXP DUP8 DUP2 MUL NOT SWAP1 SWAP2 AND SWAP7 SWAP1 SWAP4 AND SWAP1 SWAP3 MUL SWAP5 SWAP1 SWAP5 OR SWAP1 SSTORE SWAP4 SLOAD SWAP1 SWAP5 AND DUP3 MSTORE SWAP3 SWAP1 KECCAK256 ADD SLOAD PUSH2 0x4A13 SWAP2 SWAP1 PUSH2 0x593F JUMP JUMPDEST PUSH1 0x10 DUP5 ADD DUP1 SLOAD PUSH5 0xFFFFFFFF00 NOT DUP2 AND PUSH2 0x100 PUSH4 0xFFFFFFFF SWAP5 DUP6 AND DUP2 MUL SWAP2 DUP3 OR SWAP4 DUP5 SWAP1 SSTORE DUP8 SLOAD PUSH1 0x40 DUP1 MLOAD SWAP2 DUP8 AND DUP3 MSTORE SWAP2 SWAP1 SWAP5 DIV SWAP1 SWAP5 AND PUSH1 0x20 DUP5 ADD MSTORE PUSH1 0xFF SWAP2 DUP3 AND SWAP2 AND OR SWAP2 DUP2 ADD SWAP2 SWAP1 SWAP2 MSTORE PUSH32 0x4D3AF8F60FFD033B575846F894122F2342B39BC9A90DA98D0A966128702B568D SWAP1 PUSH1 0x60 ADD PUSH1 0x40 MLOAD DUP1 SWAP2 SUB SWAP1 LOG1 PUSH1 0x40 DUP1 MLOAD PUSH2 0x480 DUP2 ADD SWAP1 SWAP2 MSTORE DUP4 SLOAD PUSH4 0xFFFFFFFF AND DUP2 MSTORE PUSH1 0x1 DUP5 ADD DUP1 SLOAD PUSH1 0xD8 SWAP3 PUSH1 0x0 SWAP3 PUSH2 0x4ABF SWAP3 DUP9 SWAP2 PUSH1 0x20 DUP5 ADD SWAP2 PUSH2 0x44F2 SWAP1 PUSH2 0x586E JUMP JUMPDEST PUSH1 0xFF SWAP1 DUP2 AND DUP3 MSTORE PUSH1 0x20 DUP3 ADD SWAP3 SWAP1 SWAP3 MSTORE PUSH1 0x40 ADD PUSH1 0x0 KECCAK256 PUSH1 0x8 ADD SLOAD AND ISZERO PUSH2 0x4B7E JUMPI PUSH1 0x40 DUP1 MLOAD PUSH2 0x480 DUP2 ADD SWAP1 SWAP2 MSTORE DUP4 SLOAD PUSH4 0xFFFFFFFF AND DUP2 MSTORE PUSH1 0x1 DUP5 ADD DUP1 SLOAD PUSH1 0xD8 SWAP3 PUSH1 0x0 SWAP3 PUSH2 0x4B14 SWAP3 DUP9 SWAP2 PUSH1 0x20 DUP5 ADD SWAP2 PUSH2 0x44F2 SWAP1 PUSH2 0x586E JUMP JUMPDEST PUSH1 0xFF AND PUSH1 0xFF AND DUP2 MSTORE PUSH1 0x20 ADD SWAP1 DUP2 MSTORE PUSH1 0x20 ADD PUSH1 0x0 KECCAK256 PUSH1 0x7 ADD SLOAD DUP4 PUSH1 0xF ADD SLOAD PUSH2 0x4B3B SWAP2 SWAP1 PUSH2 0x5A16 JUMP JUMPDEST DUP2 GT ISZERO PUSH2 0x4B6A JUMPI DUP1 DUP4 PUSH1 0xF ADD DUP2 SWAP1 SSTORE POP DUP2 DUP4 PUSH1 0xE ADD PUSH1 0x0 DUP3 DUP3 SLOAD PUSH2 0x4B5F SWAP2 SWAP1 PUSH2 0x5A16 JUMP JUMPDEST SWAP1 SWAP2 SSTORE POP PUSH2 0x9D6 SWAP1 POP JUMP JUMPDEST DUP2 DUP4 PUSH1 0xE ADD PUSH1 0x0 DUP3 DUP3 SLOAD PUSH2 0x4B5F SWAP2 SWAP1 PUSH2 0x5A16 JUMP JUMPDEST PUSH1 0xCF SLOAD PUSH5 0x100000000 SWAP1 DIV PUSH1 0xFF AND ISZERO PUSH2 0x9D6 JUMPI PUSH1 0x10 DUP4 ADD SLOAD PUSH1 0xFF AND PUSH1 0x0 SWAP1 DUP2 MSTORE PUSH1 0xD8 PUSH1 0x20 MSTORE PUSH1 0x40 SWAP1 KECCAK256 PUSH1 0x5 ADD SLOAD PUSH2 0x4BB6 SWAP1 DUP5 SWAP1 PUSH2 0x3BE4 JUMP JUMPDEST PUSH1 0x10 DUP4 ADD SLOAD PUSH1 0xFF SWAP1 DUP2 AND PUSH1 0x0 SWAP1 DUP2 MSTORE PUSH1 0xD8 PUSH1 0x20 MSTORE PUSH1 0x40 DUP1 DUP3 KECCAK256 PUSH1 0x5 DUP2 ADD SLOAD SWAP1 SLOAD DUP8 SLOAD SWAP3 MLOAD SWAP2 SWAP5 AND SWAP3 PUSH4 0xFFFFFFFF SWAP1 SWAP3 AND SWAP2 PUSH32 0xDEAF5B294F5016988108257045FC779D7D01E05A4ECDC4DF70F62D5A799E053B SWAP2 LOG4 POP POP POP JUMP JUMPDEST PUSH1 0xD2 SLOAD PUSH1 0xD1 SLOAD PUSH2 0x4C1F SWAP2 SWAP1 PUSH2 0x5A16 JUMP JUMPDEST DUP2 GT ISZERO PUSH2 0x4C2E JUMPI PUSH1 0xD1 SSTORE PUSH1 0xD0 SSTORE JUMP JUMPDEST DUP2 PUSH1 0xD0 PUSH1 0x0 DUP3 DUP3 SLOAD PUSH2 0x4C40 SWAP2 SWAP1 PUSH2 0x5A16 JUMP JUMPDEST SWAP1 SWAP2 SSTORE POP POP POP POP JUMP JUMPDEST PUSH1 0x0 SLOAD PUSH2 0x100 SWAP1 DIV PUSH1 0xFF AND PUSH2 0x4C70 JUMPI PUSH1 0x40 MLOAD PUSH3 0x461BCD PUSH1 0xE5 SHL DUP2 MSTORE PUSH1 0x4 ADD PUSH2 0x10DB SWAP1 PUSH2 0x5B28 JUMP JUMPDEST PUSH2 0x1EF1 CALLER PUSH2 0x3C6E JUMP JUMPDEST PUSH2 0x4C82 DUP2 PUSH2 0x4186 JUMP JUMPDEST PUSH1 0x40 MLOAD PUSH1 0x1 PUSH1 0x1 PUSH1 0xA0 SHL SUB DUP3 AND SWAP1 PUSH32 0xBC7CD75A20EE27FD9ADEBAB32041F755214DBC6BFFA90CC0225B39DA2E5C2D3B SWAP1 PUSH1 0x0 SWAP1 LOG2 POP JUMP JUMPDEST PUSH1 0x60 PUSH1 0x1 PUSH1 0x1 PUSH1 0xA0 SHL SUB DUP4 AND EXTCODESIZE PUSH2 0x4D21 JUMPI PUSH1 0x40 MLOAD PUSH3 0x461BCD PUSH1 0xE5 SHL DUP2 MSTORE PUSH1 0x20 PUSH1 0x4 DUP3 ADD MSTORE PUSH1 0x26 PUSH1 0x24 DUP3 ADD MSTORE PUSH32 0x416464726573733A2064656C65676174652063616C6C20746F206E6F6E2D636F PUSH1 0x44 DUP3 ADD MSTORE PUSH6 0x1B9D1C9858DD PUSH1 0xD2 SHL PUSH1 0x64 DUP3 ADD MSTORE PUSH1 0x84 ADD PUSH2 0x10DB JUMP JUMPDEST PUSH1 0x0 DUP1 DUP5 PUSH1 0x1 PUSH1 0x1 PUSH1 0xA0 SHL SUB AND DUP5 PUSH1 0x40 MLOAD PUSH2 0x4D3C SWAP2 SWAP1 PUSH2 0x5B73 JUMP JUMPDEST PUSH1 0x0 PUSH1 0x40 MLOAD DUP1 DUP4 SUB DUP2 DUP6 GAS DELEGATECALL SWAP2 POP POP RETURNDATASIZE DUP1 PUSH1 0x0 DUP2 EQ PUSH2 0x4D77 JUMPI PUSH1 0x40 MLOAD SWAP2 POP PUSH1 0x1F NOT PUSH1 0x3F RETURNDATASIZE ADD AND DUP3 ADD PUSH1 0x40 MSTORE RETURNDATASIZE DUP3 MSTORE RETURNDATASIZE PUSH1 0x0 PUSH1 0x20 DUP5 ADD RETURNDATACOPY PUSH2 0x4D7C JUMP JUMPDEST PUSH1 0x60 SWAP2 POP JUMPDEST POP SWAP2 POP SWAP2 POP PUSH2 0x4DA4 DUP3 DUP3 PUSH1 0x40 MLOAD DUP1 PUSH1 0x60 ADD PUSH1 0x40 MSTORE DUP1 PUSH1 0x27 DUP2 MSTORE PUSH1 0x20 ADD PUSH2 0x5BC3 PUSH1 0x27 SWAP2 CODECOPY PUSH2 0x4E64 JUMP JUMPDEST SWAP3 POP POP POP JUMPDEST SWAP3 SWAP2 POP POP JUMP JUMPDEST PUSH1 0xD5 SLOAD PUSH1 0x0 SWAP1 PUSH4 0x1000000 SWAP1 DIV PUSH1 0xFF AND DUP2 JUMPDEST DUP2 PUSH1 0xFF AND DUP2 PUSH1 0xFF AND LT ISZERO PUSH2 0x4E5D JUMPI PUSH1 0xFF DUP2 AND PUSH1 0x0 SWAP1 DUP2 MSTORE PUSH1 0xD8 PUSH1 0x20 MSTORE PUSH1 0x40 SWAP1 KECCAK256 PUSH1 0x1 ADD SLOAD PUSH2 0x160 DUP6 ADD MLOAD LT DUP1 ISZERO SWAP1 PUSH2 0x4E13 JUMPI POP PUSH1 0xFF DUP2 AND PUSH1 0x0 SWAP1 DUP2 MSTORE PUSH1 0xD8 PUSH1 0x20 MSTORE PUSH1 0x40 SWAP1 KECCAK256 PUSH1 0x2 ADD SLOAD PUSH2 0x1A0 DUP6 ADD MLOAD LT ISZERO JUMPDEST DUP1 ISZERO PUSH2 0x4E39 JUMPI POP PUSH1 0xFF DUP2 AND PUSH1 0x0 SWAP1 DUP2 MSTORE PUSH1 0xD8 PUSH1 0x20 MSTORE PUSH1 0x40 SWAP1 KECCAK256 PUSH1 0x3 ADD SLOAD PUSH2 0x1E0 DUP6 ADD MLOAD LT ISZERO JUMPDEST ISZERO PUSH2 0x4E46 JUMPI DUP1 SWAP3 POP PUSH2 0x4E4B JUMP JUMPDEST PUSH2 0x4E5D JUMP JUMPDEST DUP1 PUSH2 0x4E55 DUP2 PUSH2 0x5B09 JUMP JUMPDEST SWAP2 POP POP PUSH2 0x4DC1 JUMP JUMPDEST POP POP SWAP2 SWAP1 POP JUMP JUMPDEST PUSH1 0x60 DUP4 ISZERO PUSH2 0x4E73 JUMPI POP DUP2 PUSH2 0x3333 JUMP JUMPDEST PUSH2 0x3333 DUP4 DUP4 DUP2 MLOAD ISZERO PUSH2 0x4E88 JUMPI DUP2 MLOAD DUP1 DUP4 PUSH1 0x20 ADD REVERT JUMPDEST DUP1 PUSH1 0x40 MLOAD PUSH3 0x461BCD PUSH1 0xE5 SHL DUP2 MSTORE PUSH1 0x4 ADD PUSH2 0x10DB SWAP2 SWAP1 PUSH2 0x5B8F JUMP JUMPDEST DUP3 DUP1 SLOAD DUP3 DUP3 SSTORE SWAP1 PUSH1 0x0 MSTORE PUSH1 0x20 PUSH1 0x0 KECCAK256 SWAP1 PUSH1 0xF ADD PUSH1 0x10 SWAP1 DIV DUP2 ADD SWAP3 DUP3 ISZERO PUSH2 0x4F3A JUMPI SWAP2 PUSH1 0x20 MUL DUP3 ADD PUSH1 0x0 JUMPDEST DUP4 DUP3 GT ISZERO PUSH2 0x4F0A JUMPI DUP4 MLOAD DUP4 DUP3 PUSH2 0x100 EXP DUP2 SLOAD DUP2 PUSH2 0xFFFF MUL NOT AND SWAP1 DUP4 PUSH1 0xFF AND MUL OR SWAP1 SSTORE POP SWAP3 PUSH1 0x20 ADD SWAP3 PUSH1 0x2 ADD PUSH1 0x20 DUP2 PUSH1 0x1 ADD DIV SWAP3 DUP4 ADD SWAP3 PUSH1 0x1 SUB MUL PUSH2 0x4ECB JUMP JUMPDEST DUP1 ISZERO PUSH2 0x4F38 JUMPI DUP3 DUP2 PUSH2 0x100 EXP DUP2 SLOAD SWAP1 PUSH2 0xFFFF MUL NOT AND SWAP1 SSTORE PUSH1 0x2 ADD PUSH1 0x20 DUP2 PUSH1 0x1 ADD DIV SWAP3 DUP4 ADD SWAP3 PUSH1 0x1 SUB MUL PUSH2 0x4F0A JUMP JUMPDEST POP JUMPDEST POP PUSH2 0x4F46 SWAP3 SWAP2 POP PUSH2 0x5052 JUMP JUMPDEST POP SWAP1 JUMP JUMPDEST DUP3 DUP1 SLOAD DUP3 DUP3 SSTORE SWAP1 PUSH1 0x0 MSTORE PUSH1 0x20 PUSH1 0x0 KECCAK256 SWAP1 PUSH1 0xF ADD PUSH1 0x10 SWAP1 DIV DUP2 ADD SWAP3 DUP3 ISZERO PUSH2 0x4F3A JUMPI SWAP2 PUSH1 0x20 MUL DUP3 ADD PUSH1 0x0 JUMPDEST DUP4 DUP3 GT ISZERO PUSH2 0x4F0A JUMPI DUP4 CALLDATALOAD PUSH1 0xFF AND DUP4 DUP3 PUSH2 0x100 EXP DUP2 SLOAD DUP2 PUSH2 0xFFFF MUL NOT AND SWAP1 DUP4 PUSH1 0xFF AND MUL OR SWAP1 SSTORE POP SWAP3 PUSH1 0x20 ADD SWAP3 PUSH1 0x2 ADD PUSH1 0x20 DUP2 PUSH1 0x1 ADD DIV SWAP3 DUP4 ADD SWAP3 PUSH1 0x1 SUB MUL PUSH2 0x4F73 JUMP JUMPDEST DUP3 DUP1 SLOAD DUP3 DUP3 SSTORE SWAP1 PUSH1 0x0 MSTORE PUSH1 0x20 PUSH1 0x0 KECCAK256 SWAP1 PUSH1 0x7 ADD PUSH1 0x8 SWAP1 DIV DUP2 ADD SWAP3 DUP3 ISZERO PUSH2 0x4F3A JUMPI SWAP2 PUSH1 0x20 MUL DUP3 ADD PUSH1 0x0 JUMPDEST DUP4 DUP3 GT ISZERO PUSH2 0x5022 JUMPI DUP4 MLOAD DUP4 DUP3 PUSH2 0x100 EXP DUP2 SLOAD DUP2 PUSH4 0xFFFFFFFF MUL NOT AND SWAP1 DUP4 PUSH4 0xFFFFFFFF AND MUL OR SWAP1 SSTORE POP SWAP3 PUSH1 0x20 ADD SWAP3 PUSH1 0x4 ADD PUSH1 0x20 DUP2 PUSH1 0x3 ADD DIV SWAP3 DUP4 ADD SWAP3 PUSH1 0x1 SUB MUL PUSH2 0x4FDE JUMP JUMPDEST DUP1 ISZERO PUSH2 0x4F38 JUMPI DUP3 DUP2 PUSH2 0x100 EXP DUP2 SLOAD SWAP1 PUSH4 0xFFFFFFFF MUL NOT AND SWAP1 SSTORE PUSH1 0x4 ADD PUSH1 0x20 DUP2 PUSH1 0x3 ADD DIV SWAP3 DUP4 ADD SWAP3 PUSH1 0x1 SUB MUL PUSH2 0x5022 JUMP JUMPDEST JUMPDEST DUP1 DUP3 GT ISZERO PUSH2 0x4F46 JUMPI PUSH1 0x0 DUP2 SSTORE PUSH1 0x1 ADD PUSH2 0x5053 JUMP JUMPDEST PUSH1 0x0 PUSH1 0x20 DUP3 DUP5 SUB SLT ISZERO PUSH2 0x5079 JUMPI PUSH1 0x0 DUP1 REVERT JUMPDEST DUP2 CALLDATALOAD PUSH1 0xFF DUP2 AND DUP2 EQ PUSH2 0x3333 JUMPI PUSH1 0x0 DUP1 REVERT JUMPDEST PUSH1 0x20 DUP1 DUP3 MSTORE DUP3 MLOAD DUP3 DUP3 ADD DUP2 SWAP1 MSTORE PUSH1 0x0 SWAP2 SWAP1 DUP5 DUP3 ADD SWAP1 PUSH1 0x40 DUP6 ADD SWAP1 DUP5 JUMPDEST DUP2 DUP2 LT ISZERO PUSH2 0x50C8 JUMPI DUP4 MLOAD PUSH4 0xFFFFFFFF AND DUP4 MSTORE SWAP3 DUP5 ADD SWAP3 SWAP2 DUP5 ADD SWAP2 PUSH1 0x1 ADD PUSH2 0x50A6 JUMP JUMPDEST POP SWAP1 SWAP7 SWAP6 POP POP POP POP POP POP JUMP JUMPDEST PUSH1 0x1 PUSH1 0x1 PUSH1 0xA0 SHL SUB DUP2 AND DUP2 EQ PUSH2 0x135B JUMPI PUSH1 0x0 DUP1 REVERT JUMPDEST PUSH1 0x0 DUP1 PUSH1 0x40 DUP4 DUP6 SUB SLT ISZERO PUSH2 0x50FC JUMPI PUSH1 0x0 DUP1 REVERT JUMPDEST DUP3 CALLDATALOAD PUSH2 0x5107 DUP2 PUSH2 0x50D4 JUMP JUMPDEST SWAP5 PUSH1 0x20 SWAP4 SWAP1 SWAP4 ADD CALLDATALOAD SWAP4 POP POP POP JUMP JUMPDEST PUSH1 0x0 PUSH1 0x20 DUP3 DUP5 SUB SLT ISZERO PUSH2 0x5127 JUMPI PUSH1 0x0 DUP1 REVERT JUMPDEST POP CALLDATALOAD SWAP2 SWAP1 POP JUMP JUMPDEST PUSH4 0xFFFFFFFF DUP2 AND DUP2 EQ PUSH2 0x135B JUMPI PUSH1 0x0 DUP1 REVERT JUMPDEST PUSH1 0x0 PUSH1 0x20 DUP3 DUP5 SUB SLT ISZERO PUSH2 0x5152 JUMPI PUSH1 0x0 DUP1 REVERT JUMPDEST DUP2 CALLDATALOAD PUSH2 0x3333 DUP2 PUSH2 0x512E JUMP JUMPDEST PUSH1 0x0 JUMPDEST DUP4 DUP2 LT ISZERO PUSH2 0x5178 JUMPI DUP2 DUP2 ADD MLOAD DUP4 DUP3 ADD MSTORE PUSH1 0x20 ADD PUSH2 0x5160 JUMP JUMPDEST POP POP PUSH1 0x0 SWAP2 ADD MSTORE JUMP JUMPDEST PUSH1 0x0 DUP2 MLOAD DUP1 DUP5 MSTORE PUSH2 0x5199 DUP2 PUSH1 0x20 DUP7 ADD PUSH1 0x20 DUP7 ADD PUSH2 0x515D JUMP JUMPDEST PUSH1 0x1F ADD PUSH1 0x1F NOT AND SWAP3 SWAP1 SWAP3 ADD PUSH1 0x20 ADD SWAP3 SWAP2 POP POP JUMP JUMPDEST PUSH1 0x0 DUP2 MLOAD DUP1 DUP5 MSTORE PUSH1 0x20 DUP1 DUP6 ADD SWAP5 POP DUP1 DUP5 ADD PUSH1 0x0 JUMPDEST DUP4 DUP2 LT ISZERO PUSH2 0x51E3 JUMPI DUP2 MLOAD PUSH4 0xFFFFFFFF AND DUP8 MSTORE SWAP6 DUP3 ADD SWAP6 SWAP1 DUP3 ADD SWAP1 PUSH1 0x1 ADD PUSH2 0x51C1 JUMP JUMPDEST POP SWAP5 SWAP6 SWAP5 POP POP POP POP POP JUMP JUMPDEST PUSH1 0x0 DUP2 MLOAD DUP1 DUP5 MSTORE PUSH1 0x20 DUP1 DUP6 ADD SWAP5 POP DUP1 DUP5 ADD PUSH1 0x0 JUMPDEST DUP4 DUP2 LT ISZERO PUSH2 0x51E3 JUMPI DUP2 MLOAD DUP8 MSTORE SWAP6 DUP3 ADD SWAP6 SWAP1 DUP3 ADD SWAP1 PUSH1 0x1 ADD PUSH2 0x5202 JUMP JUMPDEST PUSH1 0x20 DUP2 MSTORE PUSH2 0x5235 PUSH1 0x20 DUP3 ADD DUP4 MLOAD PUSH4 0xFFFFFFFF AND SWAP1 MSTORE JUMP JUMPDEST PUSH1 0x0 PUSH1 0x20 DUP4 ADD MLOAD PUSH2 0x480 DUP1 PUSH1 0x40 DUP6 ADD MSTORE PUSH2 0x5253 PUSH2 0x4A0 DUP6 ADD DUP4 PUSH2 0x5181 JUMP JUMPDEST SWAP2 POP PUSH1 0x40 DUP6 ADD MLOAD PUSH1 0x60 DUP6 ADD MSTORE PUSH1 0x60 DUP6 ADD MLOAD PUSH2 0x5272 PUSH1 0x80 DUP7 ADD DUP3 ISZERO ISZERO SWAP1 MSTORE JUMP JUMPDEST POP PUSH1 0x80 DUP6 ADD MLOAD PUSH1 0x1 PUSH1 0x1 PUSH1 0xA0 SHL SUB DUP2 AND PUSH1 0xA0 DUP7 ADD MSTORE POP PUSH1 0xA0 DUP6 ADD MLOAD PUSH4 0xFFFFFFFF DUP2 AND PUSH1 0xC0 DUP7 ADD MSTORE POP PUSH1 0xC0 DUP6 ADD MLOAD DUP1 ISZERO ISZERO PUSH1 0xE0 DUP7 ADD MSTORE POP PUSH1 0xE0 DUP6 ADD MLOAD PUSH1 0x1F NOT PUSH2 0x100 DUP2 DUP8 DUP7 SUB ADD DUP2 DUP9 ADD MSTORE PUSH2 0x52C6 DUP6 DUP5 PUSH2 0x51AD JUMP JUMPDEST SWAP5 POP DUP1 DUP9 ADD MLOAD SWAP3 POP POP PUSH2 0x120 DUP2 DUP8 DUP7 SUB ADD DUP2 DUP9 ADD MSTORE PUSH2 0x52E5 DUP6 DUP5 PUSH2 0x51AD JUMP JUMPDEST SWAP5 POP DUP1 DUP9 ADD MLOAD SWAP3 POP POP PUSH2 0x140 DUP2 DUP8 DUP7 SUB ADD DUP2 DUP9 ADD MSTORE PUSH2 0x5304 DUP6 DUP5 PUSH2 0x51AD JUMP JUMPDEST SWAP5 POP DUP1 DUP9 ADD MLOAD SWAP3 POP POP PUSH2 0x160 DUP2 DUP8 DUP7 SUB ADD DUP2 DUP9 ADD MSTORE PUSH2 0x5323 DUP6 DUP5 PUSH2 0x51EE JUMP JUMPDEST SWAP1 DUP9 ADD MLOAD PUSH2 0x180 DUP9 DUP2 ADD SWAP2 SWAP1 SWAP2 MSTORE DUP9 ADD MLOAD PUSH2 0x1A0 DUP1 DUP10 ADD SWAP2 SWAP1 SWAP2 MSTORE DUP9 ADD MLOAD PUSH2 0x1C0 DUP1 DUP10 ADD SWAP2 SWAP1 SWAP2 MSTORE DUP9 ADD MLOAD PUSH2 0x1E0 DUP1 DUP10 ADD SWAP2 SWAP1 SWAP2 MSTORE DUP9 ADD MLOAD PUSH2 0x200 DUP1 DUP10 ADD SWAP2 SWAP1 SWAP2 MSTORE DUP9 ADD MLOAD PUSH2 0x220 DUP1 DUP10 ADD SWAP2 SWAP1 SWAP2 MSTORE DUP9 ADD MLOAD PUSH2 0x240 DUP1 DUP10 ADD SWAP2 SWAP1 SWAP2 MSTORE DUP9 ADD MLOAD PUSH2 0x260 DUP1 DUP10 ADD SWAP2 SWAP1 SWAP2 MSTORE DUP9 ADD MLOAD SWAP1 SWAP5 POP SWAP2 POP PUSH2 0x280 PUSH2 0x53A5 DUP2 DUP9 ADD DUP5 PUSH1 0xFF AND SWAP1 MSTORE JUMP JUMPDEST DUP8 ADD MLOAD SWAP2 POP PUSH2 0x2A0 PUSH2 0x53BE DUP8 DUP3 ADD DUP5 PUSH4 0xFFFFFFFF AND SWAP1 MSTORE JUMP JUMPDEST DUP8 ADD MLOAD PUSH2 0x2C0 DUP8 DUP2 ADD SWAP2 SWAP1 SWAP2 MSTORE DUP8 ADD MLOAD PUSH2 0x2E0 DUP1 DUP9 ADD SWAP2 SWAP1 SWAP2 MSTORE DUP8 ADD MLOAD PUSH2 0x300 DUP1 DUP9 ADD SWAP2 SWAP1 SWAP2 MSTORE DUP8 ADD MLOAD PUSH2 0x320 DUP1 DUP9 ADD SWAP2 SWAP1 SWAP2 MSTORE DUP8 ADD MLOAD PUSH2 0x340 DUP1 DUP9 ADD SWAP2 SWAP1 SWAP2 MSTORE DUP8 ADD MLOAD PUSH2 0x360 DUP1 DUP9 ADD SWAP2 SWAP1 SWAP2 MSTORE DUP8 ADD MLOAD PUSH2 0x380 DUP1 DUP9 ADD SWAP2 SWAP1 SWAP2 MSTORE DUP8 ADD MLOAD DUP7 DUP6 SUB DUP3 ADD PUSH2 0x3A0 DUP1 DUP10 ADD SWAP2 SWAP1 SWAP2 MSTORE SWAP1 SWAP3 POP PUSH2 0x5438 DUP6 DUP5 PUSH2 0x51AD JUMP JUMPDEST SWAP1 DUP9 ADD MLOAD PUSH2 0x3C0 DUP9 DUP2 ADD SWAP2 SWAP1 SWAP2 MSTORE DUP9 ADD MLOAD PUSH2 0x3E0 DUP1 DUP10 ADD SWAP2 SWAP1 SWAP2 MSTORE DUP9 ADD MLOAD PUSH2 0x400 DUP1 DUP10 ADD SWAP2 SWAP1 SWAP2 MSTORE DUP9 ADD MLOAD SWAP1 SWAP5 POP SWAP2 POP PUSH2 0x420 SWAP1 POP PUSH2 0x547A DUP2 DUP8 ADD DUP4 ISZERO ISZERO SWAP1 MSTORE JUMP JUMPDEST DUP7 ADD MLOAD SWAP1 POP PUSH2 0x440 PUSH2 0x548F DUP7 DUP3 ADD DUP4 ISZERO ISZERO SWAP1 MSTORE JUMP JUMPDEST DUP7 ADD MLOAD SWAP1 POP PUSH2 0x460 PUSH2 0x54A4 DUP7 DUP3 ADD DUP4 ISZERO ISZERO SWAP1 MSTORE JUMP JUMPDEST SWAP1 SWAP6 ADD MLOAD ISZERO ISZERO SWAP4 ADD SWAP3 SWAP1 SWAP3 MSTORE POP SWAP2 SWAP1 POP JUMP JUMPDEST PUSH1 0x0 PUSH1 0x20 DUP3 DUP5 SUB SLT ISZERO PUSH2 0x54C8 JUMPI PUSH1 0x0 DUP1 REVERT JUMPDEST DUP2 CALLDATALOAD PUSH2 0x3333 DUP2 PUSH2 0x50D4 JUMP JUMPDEST PUSH1 0x0 DUP1 PUSH1 0x40 DUP4 DUP6 SUB SLT ISZERO PUSH2 0x54E6 JUMPI PUSH1 0x0 DUP1 REVERT JUMPDEST DUP3 CALLDATALOAD SWAP2 POP PUSH1 0x20 DUP4 ADD CALLDATALOAD PUSH2 0x54F8 DUP2 PUSH2 0x512E JUMP JUMPDEST DUP1 SWAP2 POP POP SWAP3 POP SWAP3 SWAP1 POP JUMP JUMPDEST PUSH4 0x4E487B71 PUSH1 0xE0 SHL PUSH1 0x0 MSTORE PUSH1 0x41 PUSH1 0x4 MSTORE PUSH1 0x24 PUSH1 0x0 REVERT JUMPDEST PUSH1 0x0 DUP1 PUSH1 0x40 DUP4 DUP6 SUB SLT ISZERO PUSH2 0x552C JUMPI PUSH1 0x0 DUP1 REVERT JUMPDEST DUP3 CALLDATALOAD PUSH2 0x5537 DUP2 PUSH2 0x50D4 JUMP JUMPDEST SWAP2 POP PUSH1 0x20 DUP4 ADD CALLDATALOAD PUSH8 0xFFFFFFFFFFFFFFFF DUP1 DUP3 GT ISZERO PUSH2 0x5554 JUMPI PUSH1 0x0 DUP1 REVERT JUMPDEST DUP2 DUP6 ADD SWAP2 POP DUP6 PUSH1 0x1F DUP4 ADD SLT PUSH2 0x5568 JUMPI PUSH1 0x0 DUP1 REVERT JUMPDEST DUP2 CALLDATALOAD DUP2 DUP2 GT ISZERO PUSH2 0x557A JUMPI PUSH2 0x557A PUSH2 0x5503 JUMP JUMPDEST PUSH1 0x40 MLOAD PUSH1 0x1F DUP3 ADD PUSH1 0x1F NOT SWAP1 DUP2 AND PUSH1 0x3F ADD AND DUP2 ADD SWAP1 DUP4 DUP3 GT DUP2 DUP4 LT OR ISZERO PUSH2 0x55A2 JUMPI PUSH2 0x55A2 PUSH2 0x5503 JUMP JUMPDEST DUP2 PUSH1 0x40 MSTORE DUP3 DUP2 MSTORE DUP9 PUSH1 0x20 DUP5 DUP8 ADD ADD GT ISZERO PUSH2 0x55BB JUMPI PUSH1 0x0 DUP1 REVERT JUMPDEST DUP3 PUSH1 0x20 DUP7 ADD PUSH1 0x20 DUP4 ADD CALLDATACOPY PUSH1 0x0 PUSH1 0x20 DUP5 DUP4 ADD ADD MSTORE DUP1 SWAP6 POP POP POP POP POP POP SWAP3 POP SWAP3 SWAP1 POP JUMP JUMPDEST PUSH1 0x0 DUP1 PUSH1 0x40 DUP4 DUP6 SUB SLT ISZERO PUSH2 0x55F0 JUMPI PUSH1 0x0 DUP1 REVERT JUMPDEST DUP3 CALLDATALOAD PUSH2 0x5107 DUP2 PUSH2 0x512E JUMP JUMPDEST PUSH1 0x0 DUP1 DUP4 PUSH1 0x1F DUP5 ADD SLT PUSH2 0x560D JUMPI PUSH1 0x0 DUP1 REVERT JUMPDEST POP DUP2 CALLDATALOAD PUSH8 0xFFFFFFFFFFFFFFFF DUP2 GT ISZERO PUSH2 0x5625 JUMPI PUSH1 0x0 DUP1 REVERT JUMPDEST PUSH1 0x20 DUP4 ADD SWAP2 POP DUP4 PUSH1 0x20 DUP3 PUSH1 0x5 SHL DUP6 ADD ADD GT ISZERO PUSH2 0x5640 JUMPI PUSH1 0x0 DUP1 REVERT JUMPDEST SWAP3 POP SWAP3 SWAP1 POP JUMP JUMPDEST PUSH1 0x0 DUP1 PUSH1 0x0 DUP1 PUSH1 0x40 DUP6 DUP8 SUB SLT ISZERO PUSH2 0x565D JUMPI PUSH1 0x0 DUP1 REVERT JUMPDEST DUP5 CALLDATALOAD PUSH8 0xFFFFFFFFFFFFFFFF DUP1 DUP3 GT ISZERO PUSH2 0x5675 JUMPI PUSH1 0x0 DUP1 REVERT JUMPDEST PUSH2 0x5681 DUP9 DUP4 DUP10 ADD PUSH2 0x55FB JUMP JUMPDEST SWAP1 SWAP7 POP SWAP5 POP PUSH1 0x20 DUP8 ADD CALLDATALOAD SWAP2 POP DUP1 DUP3 GT ISZERO PUSH2 0x569A JUMPI PUSH1 0x0 DUP1 REVERT JUMPDEST POP PUSH2 0x56A7 DUP8 DUP3 DUP9 ADD PUSH2 0x55FB JUMP JUMPDEST SWAP6 SWAP9 SWAP5 SWAP8 POP SWAP6 POP POP POP POP JUMP JUMPDEST PUSH1 0x20 DUP2 MSTORE PUSH2 0x56C7 PUSH1 0x20 DUP3 ADD DUP4 MLOAD PUSH1 0xFF AND SWAP1 MSTORE JUMP JUMPDEST PUSH1 0x20 DUP3 ADD MLOAD PUSH1 0x40 DUP3 ADD MSTORE PUSH1 0x40 DUP3 ADD MLOAD PUSH1 0x60 DUP3 ADD MSTORE PUSH1 0x60 DUP3 ADD MLOAD PUSH1 0x80 DUP3 ADD MSTORE PUSH1 0x0 PUSH1 0x80 DUP4 ADD MLOAD PUSH2 0x140 DUP1 PUSH1 0xA0 DUP6 ADD MSTORE PUSH2 0x5703 PUSH2 0x160 DUP6 ADD DUP4 PUSH2 0x5181 JUMP JUMPDEST SWAP2 POP PUSH1 0xA0 DUP6 ADD MLOAD PUSH1 0xC0 DUP6 ADD MSTORE PUSH1 0xC0 DUP6 ADD MLOAD PUSH1 0xE0 DUP6 ADD MSTORE PUSH1 0xE0 DUP6 ADD MLOAD PUSH2 0x100 DUP2 DUP2 DUP8 ADD MSTORE DUP1 DUP8 ADD MLOAD SWAP2 POP POP PUSH2 0x120 PUSH2 0x573D DUP2 DUP8 ADD DUP4 ISZERO ISZERO SWAP1 MSTORE JUMP JUMPDEST DUP7 ADD MLOAD DUP6 DUP5 SUB PUSH1 0x1F NOT ADD DUP4 DUP8 ADD MSTORE SWAP1 POP PUSH2 0x5757 DUP4 DUP3 PUSH2 0x51AD JUMP JUMPDEST SWAP7 SWAP6 POP POP POP POP POP POP JUMP JUMPDEST PUSH1 0x0 DUP1 PUSH1 0x0 DUP1 PUSH1 0x0 DUP1 PUSH1 0x0 PUSH1 0xE0 DUP9 DUP11 SUB SLT ISZERO PUSH2 0x577C JUMPI PUSH1 0x0 DUP1 REVERT JUMPDEST DUP8 CALLDATALOAD PUSH2 0x5787 DUP2 PUSH2 0x50D4 JUMP JUMPDEST SWAP7 POP PUSH1 0x20 DUP9 ADD CALLDATALOAD PUSH2 0x5797 DUP2 PUSH2 0x512E JUMP JUMPDEST SWAP7 SWAP10 SWAP7 SWAP9 POP POP POP POP PUSH1 0x40 DUP6 ADD CALLDATALOAD SWAP5 PUSH1 0x60 DUP2 ADD CALLDATALOAD SWAP5 PUSH1 0x80 DUP3 ADD CALLDATALOAD SWAP5 POP PUSH1 0xA0 DUP3 ADD CALLDATALOAD SWAP4 POP PUSH1 0xC0 SWAP1 SWAP2 ADD CALLDATALOAD SWAP2 POP JUMP JUMPDEST PUSH1 0x0 PUSH1 0x20 DUP3 DUP5 SUB SLT ISZERO PUSH2 0x57D5 JUMPI PUSH1 0x0 DUP1 REVERT JUMPDEST DUP2 CALLDATALOAD PUSH2 0xFFFF DUP2 AND DUP2 EQ PUSH2 0x3333 JUMPI PUSH1 0x0 DUP1 REVERT JUMPDEST PUSH1 0x0 DUP1 PUSH1 0x20 DUP4 DUP6 SUB SLT ISZERO PUSH2 0x57FA JUMPI PUSH1 0x0 DUP1 REVERT JUMPDEST DUP3 CALLDATALOAD PUSH8 0xFFFFFFFFFFFFFFFF DUP2 GT ISZERO PUSH2 0x5811 JUMPI PUSH1 0x0 DUP1 REVERT JUMPDEST PUSH2 0x581D DUP6 DUP3 DUP7 ADD PUSH2 0x55FB JUMP JUMPDEST SWAP1 SWAP7 SWAP1 SWAP6 POP SWAP4 POP POP POP POP JUMP JUMPDEST PUSH1 0x20 DUP2 MSTORE DUP2 MLOAD ISZERO ISZERO PUSH1 0x20 DUP3 ADD MSTORE PUSH1 0x0 PUSH1 0x20 DUP4 ADD MLOAD PUSH1 0x60 PUSH1 0x40 DUP5 ADD MSTORE PUSH2 0x5851 PUSH1 0x80 DUP5 ADD DUP3 PUSH2 0x51AD JUMP JUMPDEST SWAP1 POP PUSH1 0x40 DUP5 ADD MLOAD PUSH1 0x1F NOT DUP5 DUP4 SUB ADD PUSH1 0x60 DUP6 ADD MSTORE PUSH2 0x4DA4 DUP3 DUP3 PUSH2 0x5181 JUMP JUMPDEST PUSH1 0x1 DUP2 DUP2 SHR SWAP1 DUP3 AND DUP1 PUSH2 0x5882 JUMPI PUSH1 0x7F DUP3 AND SWAP2 POP JUMPDEST PUSH1 0x20 DUP3 LT DUP2 SUB PUSH2 0x58A2 JUMPI PUSH4 0x4E487B71 PUSH1 0xE0 SHL PUSH1 0x0 MSTORE PUSH1 0x22 PUSH1 0x4 MSTORE PUSH1 0x24 PUSH1 0x0 REVERT JUMPDEST POP SWAP2 SWAP1 POP JUMP JUMPDEST DUP1 ISZERO ISZERO DUP2 EQ PUSH2 0x135B JUMPI PUSH1 0x0 DUP1 REVERT JUMPDEST PUSH1 0x0 PUSH1 0x20 DUP3 DUP5 SUB SLT ISZERO PUSH2 0x58C8 JUMPI PUSH1 0x0 DUP1 REVERT JUMPDEST DUP2 MLOAD PUSH2 0x3333 DUP2 PUSH2 0x58A8 JUMP JUMPDEST PUSH4 0x4E487B71 PUSH1 0xE0 SHL PUSH1 0x0 MSTORE PUSH1 0x11 PUSH1 0x4 MSTORE PUSH1 0x24 PUSH1 0x0 REVERT JUMPDEST DUP1 DUP3 MUL DUP2 ISZERO DUP3 DUP3 DIV DUP5 EQ OR PUSH2 0x4DA9 JUMPI PUSH2 0x4DA9 PUSH2 0x58D3 JUMP JUMPDEST PUSH1 0x0 DUP3 PUSH2 0x591D JUMPI PUSH4 0x4E487B71 PUSH1 0xE0 SHL PUSH1 0x0 MSTORE PUSH1 0x12 PUSH1 0x4 MSTORE PUSH1 0x24 PUSH1 0x0 REVERT JUMPDEST POP DIV SWAP1 JUMP JUMPDEST PUSH1 0x0 PUSH1 0x20 DUP3 DUP5 SUB SLT ISZERO PUSH2 0x5934 JUMPI PUSH1 0x0 DUP1 REVERT JUMPDEST DUP2 MLOAD PUSH2 0x3333 DUP2 PUSH2 0x50D4 JUMP JUMPDEST DUP2 DUP2 SUB DUP2 DUP2 GT ISZERO PUSH2 0x4DA9 JUMPI PUSH2 0x4DA9 PUSH2 0x58D3 JUMP JUMPDEST PUSH1 0x20 DUP1 DUP3 MSTORE PUSH1 0x2C SWAP1 DUP3 ADD MSTORE PUSH32 0x46756E6374696F6E206D7573742062652063616C6C6564207468726F75676820 PUSH1 0x40 DUP3 ADD MSTORE PUSH12 0x19195B1959D85D1958D85B1B PUSH1 0xA2 SHL PUSH1 0x60 DUP3 ADD MSTORE PUSH1 0x80 ADD SWAP1 JUMP JUMPDEST PUSH1 0x20 DUP1 DUP3 MSTORE PUSH1 0x2C SWAP1 DUP3 ADD MSTORE PUSH32 0x46756E6374696F6E206D7573742062652063616C6C6564207468726F75676820 PUSH1 0x40 DUP3 ADD MSTORE PUSH12 0x6163746976652070726F7879 PUSH1 0xA0 SHL PUSH1 0x60 DUP3 ADD MSTORE PUSH1 0x80 ADD SWAP1 JUMP JUMPDEST PUSH1 0x20 DUP1 DUP3 MSTORE PUSH1 0x12 SWAP1 DUP3 ADD MSTORE PUSH18 0x2CB7BA9030B932903737BA1030B236B4B717 PUSH1 0x71 SHL PUSH1 0x40 DUP3 ADD MSTORE PUSH1 0x60 ADD SWAP1 JUMP JUMPDEST DUP1 DUP3 ADD DUP1 DUP3 GT ISZERO PUSH2 0x4DA9 JUMPI PUSH2 0x4DA9 PUSH2 0x58D3 JUMP JUMPDEST PUSH4 0x4E487B71 PUSH1 0xE0 SHL PUSH1 0x0 MSTORE PUSH1 0x32 PUSH1 0x4 MSTORE PUSH1 0x24 PUSH1 0x0 REVERT JUMPDEST PUSH1 0x0 PUSH2 0xFFFF DUP1 DUP4 AND DUP2 DUP2 SUB PUSH2 0x5A56 JUMPI PUSH2 0x5A56 PUSH2 0x58D3 JUMP JUMPDEST PUSH1 0x1 ADD SWAP4 SWAP3 POP POP POP JUMP JUMPDEST PUSH1 0x0 PUSH1 0x20 DUP3 DUP5 SUB SLT ISZERO PUSH2 0x5A72 JUMPI PUSH1 0x0 DUP1 REVERT JUMPDEST DUP2 CALLDATALOAD PUSH2 0x3333 DUP2 PUSH2 0x58A8 JUMP JUMPDEST PUSH4 0xFFFFFFFF DUP2 DUP2 AND DUP4 DUP3 AND ADD SWAP1 DUP1 DUP3 GT ISZERO PUSH2 0x5A9A JUMPI PUSH2 0x5A9A PUSH2 0x58D3 JUMP JUMPDEST POP SWAP3 SWAP2 POP POP JUMP JUMPDEST PUSH1 0x0 PUSH1 0x20 DUP3 DUP5 SUB SLT ISZERO PUSH2 0x5AB3 JUMPI PUSH1 0x0 DUP1 REVERT JUMPDEST DUP2 MLOAD PUSH2 0x3333 DUP2 PUSH2 0x512E JUMP JUMPDEST PUSH1 0x0 PUSH4 0xFFFFFFFF DUP1 DUP4 AND DUP2 DUP2 SUB PUSH2 0x5A56 JUMPI PUSH2 0x5A56 PUSH2 0x58D3 JUMP JUMPDEST PUSH1 0x0 PUSH1 0x20 DUP3 DUP5 SUB SLT ISZERO PUSH2 0x5AE9 JUMPI PUSH1 0x0 DUP1 REVERT JUMPDEST POP MLOAD SWAP2 SWAP1 POP JUMP JUMPDEST PUSH1 0xFF DUP2 DUP2 AND DUP4 DUP3 AND ADD SWAP1 DUP2 GT ISZERO PUSH2 0x4DA9 JUMPI PUSH2 0x4DA9 PUSH2 0x58D3 JUMP JUMPDEST PUSH1 0x0 PUSH1 0xFF DUP3 AND PUSH1 0xFF DUP2 SUB PUSH2 0x5B1F JUMPI PUSH2 0x5B1F PUSH2 0x58D3 JUMP JUMPDEST PUSH1 0x1 ADD SWAP3 SWAP2 POP POP JUMP JUMPDEST PUSH1 0x20 DUP1 DUP3 MSTORE PUSH1 0x2B SWAP1 DUP3 ADD MSTORE PUSH32 0x496E697469616C697A61626C653A20636F6E7472616374206973206E6F742069 PUSH1 0x40 DUP3 ADD MSTORE PUSH11 0x6E697469616C697A696E67 PUSH1 0xA8 SHL PUSH1 0x60 DUP3 ADD MSTORE PUSH1 0x80 ADD SWAP1 JUMP JUMPDEST PUSH1 0x0 DUP3 MLOAD PUSH2 0x5B85 DUP2 DUP5 PUSH1 0x20 DUP8 ADD PUSH2 0x515D JUMP JUMPDEST SWAP2 SWAP1 SWAP2 ADD SWAP3 SWAP2 POP POP JUMP JUMPDEST PUSH1 0x20 DUP2 MSTORE PUSH1 0x0 PUSH2 0x3333 PUSH1 0x20 DUP4 ADD DUP5 PUSH2 0x5181 JUMP INVALID CALLDATASIZE ADDMOD SWAP5 LOG1 EXTCODESIZE LOG1 LOG3 0x21 MOD PUSH8 0xC828492DB98DCA3E KECCAK256 PUSH23 0xCC3735A920A3CA505D382BBC416464726573733A206C6F PUSH24 0x2D6C6576656C2064656C65676174652063616C6C20666169 PUSH13 0x6564A264697066735822122021 0xDC CALLER 0x4D 0x4E 0xEA MUL LOG0 GT JUMPDEST 0xE0 0x2B SWAP8 PUSH12 0xA6D2B4296D0313B1EEC926BA 0xDF OR 0x1E 0xE1 0x5F JUMP PUSH5 0x736F6C6343 STOP ADDMOD SLT STOP CALLER "},"methodIdentifiers":{"activateId(uint32)":"bcb93f9b","activateIdAdmin(address,uint32,uint256,uint256,uint256,uint256,uint256)":"7cf97c8c","claimBalance(uint32)":"300825b5","companyTurnoverTimeLimit()":"f41bfeef","companyTurnoverTimeStamp()":"2ed421d2","companyTurnoverWithTimeLimit()":"22f88b52","decimals()":"313ce567","disabledUsersList(uint256)":"1319cff9","futureScureWalletContribution()":"cd21364d","getAchieversList(uint8)":"012da720","getIdAccount(uint32)":"21009789","getIdLimits(uint32)":"4e6e93a3","getMinContributionETH()":"1f9e65e4","getRoyaltyClubPackageInfo(uint8)":"7bdbf996","getUserAccount(address)":"fb47e016","increaseIdTopIncome(uint32,uint256)":"6ccc10ae","initialize()":"8129fc1c","isActivateROI()":"8af925dc","isPayReferral()":"7084431f","isPayRoyaltyClubBonus()":"fafc9597","levelRates(uint256)":"7879b5ef","maxLevels()":"6f38e410","minContributionUSD()":"8f84de85","owner()":"8da5cb5b","packagesCount()":"18e10bff","payReferralAdmin(uint256,uint32)":"498b3e55","proxiableUUID()":"52d1902d","renounceOwnership()":"715018a6","royaltyClubPackageCount()":"a28a3686","sendETHAdmin(address,uint256)":"0b243dad","setIdOwnerAddressAdmin(uint32[],address[])":"6de3a95c","setIdStatusAdmin(uint32[],bool[])":"721d343f","setLevelDecimals(uint16)":"a43ae408","setLevelRates(uint8[])":"e1c715ba","setMaxLevelsAdmin(uint8)":"3eff2def","setMinContribution(uint256)":"473b0d46","setVisibilityOfAddressAdmin(address[],bool[])":"86851e0c","setWithdrawalStatusAdmin(uint32[],bool[])":"8f8d2090","topUpId(uint32)":"a152b0f0","totalIds()":"390a5ba5","totalReferralPaid()":"7c599486","totalRoyaltyClubBonusPaid()":"852ff2fd","transferOwnership(address)":"f2fde38b","updateIdWhenClaimROI(uint32,uint256)":"509d6c52","upgradeTo(address)":"3659cfe6","upgradeToAndCall(address,bytes)":"4f1ef286","users(uint256)":"365b98b2","withdrawETHAdmin()":"35759788","withdrawTokensAdmin(address,uint256)":"a0b6105f"}},"storageLayout":{"storage":[{"astId":527,"contract":"contracts/ReferralV4Upgradeable.sol:ReferralV4Upgradeable","label":"_initialized","offset":0,"slot":"0","type":"t_uint8"},{"astId":530,"contract":"contracts/ReferralV4Upgradeable.sol:ReferralV4Upgradeable","label":"_initializing","offset":1,"slot":"0","type":"t_bool"},{"astId":1228,"contract":"contracts/ReferralV4Upgradeable.sol:ReferralV4Upgradeable","label":"__gap","offset":0,"slot":"1","type":"t_array(t_uint256)50_storage"},{"astId":10,"contract":"contracts/ReferralV4Upgradeable.sol:ReferralV4Upgradeable","label":"_owner","offset":0,"slot":"51","type":"t_address"},{"astId":130,"contract":"contracts/ReferralV4Upgradeable.sol:ReferralV4Upgradeable","label":"__gap","offset":0,"slot":"52","type":"t_array(t_uint256)49_storage"},{"astId":509,"contract":"contracts/ReferralV4Upgradeable.sol:ReferralV4Upgradeable","label":"__gap","offset":0,"slot":"101","type":"t_array(t_uint256)50_storage"},{"astId":824,"contract":"contracts/ReferralV4Upgradeable.sol:ReferralV4Upgradeable","label":"__gap","offset":0,"slot":"151","type":"t_array(t_uint256)50_storage"},{"astId":2365,"contract":"contracts/ReferralV4Upgradeable.sol:ReferralV4Upgradeable","label":"_variablesContract","offset":0,"slot":"201","type":"t_address"},{"astId":2368,"contract":"contracts/ReferralV4Upgradeable.sol:ReferralV4Upgradeable","label":"levelRates","offset":0,"slot":"202","type":"t_array(t_uint16)dyn_storage"},{"astId":2370,"contract":"contracts/ReferralV4Upgradeable.sol:ReferralV4Upgradeable","label":"decimals","offset":0,"slot":"203","type":"t_uint16"},{"astId":2372,"contract":"contracts/ReferralV4Upgradeable.sol:ReferralV4Upgradeable","label":"maxLevels","offset":2,"slot":"203","type":"t_uint8"},{"astId":2374,"contract":"contracts/ReferralV4Upgradeable.sol:ReferralV4Upgradeable","label":"minContributionUSD","offset":0,"slot":"204","type":"t_uint256"},{"astId":2376,"contract":"contracts/ReferralV4Upgradeable.sol:ReferralV4Upgradeable","label":"totalRoyaltyClubBonusPaid","offset":0,"slot":"205","type":"t_uint256"},{"astId":2378,"contract":"contracts/ReferralV4Upgradeable.sol:ReferralV4Upgradeable","label":"totalReferralPaid","offset":0,"slot":"206","type":"t_uint256"},{"astId":2380,"contract":"contracts/ReferralV4Upgradeable.sol:ReferralV4Upgradeable","label":"totalIds","offset":0,"slot":"207","type":"t_uint32"},{"astId":2382,"contract":"contracts/ReferralV4Upgradeable.sol:ReferralV4Upgradeable","label":"isPayRoyaltyClubBonus","offset":4,"slot":"207","type":"t_bool"},{"astId":2384,"contract":"contracts/ReferralV4Upgradeable.sol:ReferralV4Upgradeable","label":"royaltyClubPackageCount","offset":5,"slot":"207","type":"t_uint8"},{"astId":2386,"contract":"contracts/ReferralV4Upgradeable.sol:ReferralV4Upgradeable","label":"_userLevelUnlockMultiplier","offset":6,"slot":"207","type":"t_uint8"},{"astId":2388,"contract":"contracts/ReferralV4Upgradeable.sol:ReferralV4Upgradeable","label":"companyTurnoverWithTimeLimit","offset":0,"slot":"208","type":"t_uint256"},{"astId":2390,"contract":"contracts/ReferralV4Upgradeable.sol:ReferralV4Upgradeable","label":"companyTurnoverTimeStamp","offset":0,"slot":"209","type":"t_uint256"},{"astId":2392,"contract":"contracts/ReferralV4Upgradeable.sol:ReferralV4Upgradeable","label":"companyTurnoverTimeLimit","offset":0,"slot":"210","type":"t_uint256"},{"astId":2395,"contract":"contracts/ReferralV4Upgradeable.sol:ReferralV4Upgradeable","label":"disabledUsersList","offset":0,"slot":"211","type":"t_array(t_address)dyn_storage"},{"astId":2398,"contract":"contracts/ReferralV4Upgradeable.sol:ReferralV4Upgradeable","label":"users","offset":0,"slot":"212","type":"t_array(t_address)dyn_storage"},{"astId":2400,"contract":"contracts/ReferralV4Upgradeable.sol:ReferralV4Upgradeable","label":"isActivateROI","offset":0,"slot":"213","type":"t_bool"},{"astId":2402,"contract":"contracts/ReferralV4Upgradeable.sol:ReferralV4Upgradeable","label":"isPayReferral","offset":1,"slot":"213","type":"t_bool"},{"astId":2404,"contract":"contracts/ReferralV4Upgradeable.sol:ReferralV4Upgradeable","label":"futureScureWalletContribution","offset":2,"slot":"213","type":"t_uint8"},{"astId":2514,"contract":"contracts/ReferralV4Upgradeable.sol:ReferralV4Upgradeable","label":"packagesCount","offset":3,"slot":"213","type":"t_uint8"},{"astId":2519,"contract":"contracts/ReferralV4Upgradeable.sol:ReferralV4Upgradeable","label":"accounts","offset":0,"slot":"214","type":"t_mapping(t_address,t_struct(StructAccount)2412_storage)"},{"astId":2524,"contract":"contracts/ReferralV4Upgradeable.sol:ReferralV4Upgradeable","label":"ids","offset":0,"slot":"215","type":"t_mapping(t_uint32,t_struct(StructId)2490_storage)"},{"astId":2529,"contract":"contracts/ReferralV4Upgradeable.sol:ReferralV4Upgradeable","label":"packages","offset":0,"slot":"216","type":"t_mapping(t_uint8,t_struct(StructPackages)2512_storage)"}],"types":{"t_address":{"encoding":"inplace","label":"address","numberOfBytes":"20"},"t_array(t_address)dyn_storage":{"base":"t_address","encoding":"dynamic_array","label":"address[]","numberOfBytes":"32"},"t_array(t_uint16)dyn_storage":{"base":"t_uint16","encoding":"dynamic_array","label":"uint16[]","numberOfBytes":"32"},"t_array(t_uint256)49_storage":{"base":"t_uint256","encoding":"inplace","label":"uint256[49]","numberOfBytes":"1568"},"t_array(t_uint256)50_storage":{"base":"t_uint256","encoding":"inplace","label":"uint256[50]","numberOfBytes":"1600"},"t_array(t_uint256)dyn_storage":{"base":"t_uint256","encoding":"dynamic_array","label":"uint256[]","numberOfBytes":"32"},"t_array(t_uint32)dyn_storage":{"base":"t_uint32","encoding":"dynamic_array","label":"uint32[]","numberOfBytes":"32"},"t_bool":{"encoding":"inplace","label":"bool","numberOfBytes":"1"},"t_mapping(t_address,t_struct(StructAccount)2412_storage)":{"encoding":"mapping","key":"t_address","label":"mapping(address => struct ReferralV4Upgradeable.StructAccount)","numberOfBytes":"32","value":"t_struct(StructAccount)2412_storage"},"t_mapping(t_uint32,t_struct(StructId)2490_storage)":{"encoding":"mapping","key":"t_uint32","label":"mapping(uint32 => struct ReferralV4Upgradeable.StructId)","numberOfBytes":"32","value":"t_struct(StructId)2490_storage"},"t_mapping(t_uint8,t_struct(StructPackages)2512_storage)":{"encoding":"mapping","key":"t_uint8","label":"mapping(uint8 => struct ReferralV4Upgradeable.StructPackages)","numberOfBytes":"32","value":"t_struct(StructPackages)2512_storage"},"t_string_storage":{"encoding":"bytes","label":"string","numberOfBytes":"32"},"t_struct(StructAccount)2412_storage":{"encoding":"inplace","label":"struct ReferralV4Upgradeable.StructAccount","members":[{"astId":2406,"contract":"contracts/ReferralV4Upgradeable.sol:ReferralV4Upgradeable","label":"isActive","offset":0,"slot":"0","type":"t_bool"},{"astId":2409,"contract":"contracts/ReferralV4Upgradeable.sol:ReferralV4Upgradeable","label":"accountIds","offset":0,"slot":"1","type":"t_array(t_uint32)dyn_storage"},{"astId":2411,"contract":"contracts/ReferralV4Upgradeable.sol:ReferralV4Upgradeable","label":"userName","offset":0,"slot":"2","type":"t_string_storage"}],"numberOfBytes":"96"},"t_struct(StructId)2490_storage":{"encoding":"inplace","label":"struct ReferralV4Upgradeable.StructId","members":[{"astId":2414,"contract":"contracts/ReferralV4Upgradeable.sol:ReferralV4Upgradeable","label":"id","offset":0,"slot":"0","type":"t_uint32"},{"astId":2416,"contract":"contracts/ReferralV4Upgradeable.sol:ReferralV4Upgradeable","label":"oldId","offset":0,"slot":"1","type":"t_string_storage"},{"astId":2418,"contract":"contracts/ReferralV4Upgradeable.sol:ReferralV4Upgradeable","label":"joiningTime","offset":0,"slot":"2","type":"t_uint256"},{"astId":2420,"contract":"contracts/ReferralV4Upgradeable.sol:ReferralV4Upgradeable","label":"isAddedToUserList","offset":0,"slot":"3","type":"t_bool"},{"astId":2422,"contract":"contracts/ReferralV4Upgradeable.sol:ReferralV4Upgradeable","label":"owner","offset":1,"slot":"3","type":"t_address"},{"astId":2424,"contract":"contracts/ReferralV4Upgradeable.sol:ReferralV4Upgradeable","label":"refererId","offset":21,"slot":"3","type":"t_uint32"},{"astId":2426,"contract":"contracts/ReferralV4Upgradeable.sol:ReferralV4Upgradeable","label":"hasUpline","offset":25,"slot":"3","type":"t_bool"},{"astId":2429,"contract":"contracts/ReferralV4Upgradeable.sol:ReferralV4Upgradeable","label":"refereeIds","offset":0,"slot":"4","type":"t_array(t_uint32)dyn_storage"},{"astId":2432,"contract":"contracts/ReferralV4Upgradeable.sol:ReferralV4Upgradeable","label":"teamIds","offset":0,"slot":"5","type":"t_array(t_uint32)dyn_storage"},{"astId":2435,"contract":"contracts/ReferralV4Upgradeable.sol:ReferralV4Upgradeable","label":"teamLevel","offset":0,"slot":"6","type":"t_array(t_uint32)dyn_storage"},{"astId":2438,"contract":"contracts/ReferralV4Upgradeable.sol:ReferralV4Upgradeable","label":"selfBusinessArray","offset":0,"slot":"7","type":"t_array(t_uint256)dyn_storage"},{"astId":2440,"contract":"contracts/ReferralV4Upgradeable.sol:ReferralV4Upgradeable","label":"selfBusiness","offset":0,"slot":"8","type":"t_uint256"},{"astId":2442,"contract":"contracts/ReferralV4Upgradeable.sol:ReferralV4Upgradeable","label":"selfBusinessOld","offset":0,"slot":"9","type":"t_uint256"},{"astId":2444,"contract":"contracts/ReferralV4Upgradeable.sol:ReferralV4Upgradeable","label":"directBusiness","offset":0,"slot":"10","type":"t_uint256"},{"astId":2446,"contract":"contracts/ReferralV4Upgradeable.sol:ReferralV4Upgradeable","label":"directBusinessOld","offset":0,"slot":"11","type":"t_uint256"},{"astId":2448,"contract":"contracts/ReferralV4Upgradeable.sol:ReferralV4Upgradeable","label":"teamBusiness","offset":0,"slot":"12","type":"t_uint256"},{"astId":2450,"contract":"contracts/ReferralV4Upgradeable.sol:ReferralV4Upgradeable","label":"teamBusinessOld","offset":0,"slot":"13","type":"t_uint256"},{"astId":2452,"contract":"contracts/ReferralV4Upgradeable.sol:ReferralV4Upgradeable","label":"royaltyClubBusiness","offset":0,"slot":"14","type":"t_uint256"},{"astId":2454,"contract":"contracts/ReferralV4Upgradeable.sol:ReferralV4Upgradeable","label":"timeStampRoyaltyClub","offset":0,"slot":"15","type":"t_uint256"},{"astId":2456,"contract":"contracts/ReferralV4Upgradeable.sol:ReferralV4Upgradeable","label":"royaltyClubPackageId","offset":0,"slot":"16","type":"t_uint8"},{"astId":2458,"contract":"contracts/ReferralV4Upgradeable.sol:ReferralV4Upgradeable","label":"royaltyClubListIndex","offset":1,"slot":"16","type":"t_uint32"},{"astId":2460,"contract":"contracts/ReferralV4Upgradeable.sol:ReferralV4Upgradeable","label":"royaltyClubRewardPaid","offset":0,"slot":"17","type":"t_uint256"},{"astId":2462,"contract":"contracts/ReferralV4Upgradeable.sol:ReferralV4Upgradeable","label":"topUpIncome","offset":0,"slot":"18","type":"t_uint256"},{"astId":2464,"contract":"contracts/ReferralV4Upgradeable.sol:ReferralV4Upgradeable","label":"topUp","offset":0,"slot":"19","type":"t_uint256"},{"astId":2466,"contract":"contracts/ReferralV4Upgradeable.sol:ReferralV4Upgradeable","label":"maxLimit","offset":0,"slot":"20","type":"t_uint256"},{"astId":2468,"contract":"contracts/ReferralV4Upgradeable.sol:ReferralV4Upgradeable","label":"activationTime","offset":0,"slot":"21","type":"t_uint256"},{"astId":2470,"contract":"contracts/ReferralV4Upgradeable.sol:ReferralV4Upgradeable","label":"deactivationTime","offset":0,"slot":"22","type":"t_uint256"},{"astId":2472,"contract":"contracts/ReferralV4Upgradeable.sol:ReferralV4Upgradeable","label":"referralPaid","offset":0,"slot":"23","type":"t_uint256"},{"astId":2475,"contract":"contracts/ReferralV4Upgradeable.sol:ReferralV4Upgradeable","label":"roiIds","offset":0,"slot":"24","type":"t_array(t_uint32)dyn_storage"},{"astId":2477,"contract":"contracts/ReferralV4Upgradeable.sol:ReferralV4Upgradeable","label":"roiPaid","offset":0,"slot":"25","type":"t_uint256"},{"astId":2479,"contract":"contracts/ReferralV4Upgradeable.sol:ReferralV4Upgradeable","label":"roiClaimedTime","offset":0,"slot":"26","type":"t_uint256"},{"astId":2481,"contract":"contracts/ReferralV4Upgradeable.sol:ReferralV4Upgradeable","label":"walletBalance","offset":0,"slot":"27","type":"t_uint256"},{"astId":2483,"contract":"contracts/ReferralV4Upgradeable.sol:ReferralV4Upgradeable","label":"isActive","offset":0,"slot":"28","type":"t_bool"},{"astId":2485,"contract":"contracts/ReferralV4Upgradeable.sol:ReferralV4Upgradeable","label":"isROIDisabled","offset":1,"slot":"28","type":"t_bool"},{"astId":2487,"contract":"contracts/ReferralV4Upgradeable.sol:ReferralV4Upgradeable","label":"isIdVisibilityDisabled","offset":2,"slot":"28","type":"t_bool"},{"astId":2489,"contract":"contracts/ReferralV4Upgradeable.sol:ReferralV4Upgradeable","label":"canWindraw","offset":3,"slot":"28","type":"t_bool"}],"numberOfBytes":"928"},"t_struct(StructPackages)2512_storage":{"encoding":"inplace","label":"struct ReferralV4Upgradeable.StructPackages","members":[{"astId":2492,"contract":"contracts/ReferralV4Upgradeable.sol:ReferralV4Upgradeable","label":"packageId","offset":0,"slot":"0","type":"t_uint8"},{"astId":2494,"contract":"contracts/ReferralV4Upgradeable.sol:ReferralV4Upgradeable","label":"selfBusiness","offset":0,"slot":"1","type":"t_uint256"},{"astId":2496,"contract":"contracts/ReferralV4Upgradeable.sol:ReferralV4Upgradeable","label":"directBusiness","offset":0,"slot":"2","type":"t_uint256"},{"astId":2498,"contract":"contracts/ReferralV4Upgradeable.sol:ReferralV4Upgradeable","label":"teamBusiness","offset":0,"slot":"3","type":"t_uint256"},{"astId":2500,"contract":"contracts/ReferralV4Upgradeable.sol:ReferralV4Upgradeable","label":"rankName","offset":0,"slot":"4","type":"t_string_storage"},{"astId":2502,"contract":"contracts/ReferralV4Upgradeable.sol:ReferralV4Upgradeable","label":"reward","offset":0,"slot":"5","type":"t_uint256"},{"astId":2504,"contract":"contracts/ReferralV4Upgradeable.sol:ReferralV4Upgradeable","label":"businessLimit","offset":0,"slot":"6","type":"t_uint256"},{"astId":2506,"contract":"contracts/ReferralV4Upgradeable.sol:ReferralV4Upgradeable","label":"timeLimit","offset":0,"slot":"7","type":"t_uint256"},{"astId":2508,"contract":"contracts/ReferralV4Upgradeable.sol:ReferralV4Upgradeable","label":"isPayReccursive","offset":0,"slot":"8","type":"t_bool"},{"astId":2511,"contract":"contracts/ReferralV4Upgradeable.sol:ReferralV4Upgradeable","label":"achieversList","offset":0,"slot":"9","type":"t_array(t_uint32)dyn_storage"}],"numberOfBytes":"320"},"t_uint16":{"encoding":"inplace","label":"uint16","numberOfBytes":"2"},"t_uint256":{"encoding":"inplace","label":"uint256","numberOfBytes":"32"},"t_uint32":{"encoding":"inplace","label":"uint32","numberOfBytes":"4"},"t_uint8":{"encoding":"inplace","label":"uint8","numberOfBytes":"1"}}}}}}