{"contracts/StakingUpgradeable.sol":{"StakingUpgradeable":{"abi":[{"anonymous":false,"inputs":[{"indexed":false,"internalType":"address","name":"previousAdmin","type":"address"},{"indexed":false,"internalType":"address","name":"newAdmin","type":"address"}],"name":"AdminChanged","type":"event"},{"anonymous":false,"inputs":[{"indexed":true,"internalType":"address","name":"beacon","type":"address"}],"name":"BeaconUpgraded","type":"event"},{"anonymous":false,"inputs":[{"indexed":false,"internalType":"uint8","name":"version","type":"uint8"}],"name":"Initialized","type":"event"},{"anonymous":false,"inputs":[{"indexed":true,"internalType":"address","name":"previousOwner","type":"address"},{"indexed":true,"internalType":"address","name":"newOwner","type":"address"}],"name":"OwnershipTransferred","type":"event"},{"anonymous":false,"inputs":[{"indexed":false,"internalType":"address","name":"account","type":"address"}],"name":"Paused","type":"event"},{"anonymous":false,"inputs":[{"indexed":true,"internalType":"address","name":"userAddress","type":"address"},{"indexed":true,"internalType":"uint256","name":"valueinUSD","type":"uint256"},{"indexed":false,"internalType":"uint256","name":"duration","type":"uint256"},{"indexed":false,"internalType":"uint256","name":"stakingID","type":"uint256"}],"name":"Stake","type":"event"},{"anonymous":false,"inputs":[{"indexed":true,"internalType":"address","name":"userAddress","type":"address"},{"indexed":true,"internalType":"uint256","name":"reward","type":"uint256"},{"indexed":true,"internalType":"uint256","name":"stakingID","type":"uint256"}],"name":"StakingRewardClaimed","type":"event"},{"anonymous":false,"inputs":[{"indexed":false,"internalType":"address","name":"account","type":"address"}],"name":"Unpaused","type":"event"},{"anonymous":false,"inputs":[{"indexed":true,"internalType":"address","name":"userAddress","type":"address"},{"indexed":true,"internalType":"uint256","name":"valueStaked","type":"uint256"},{"indexed":true,"internalType":"uint256","name":"stakingID","type":"uint256"}],"name":"Unstake","type":"event"},{"anonymous":false,"inputs":[{"indexed":true,"internalType":"address","name":"implementation","type":"address"}],"name":"Upgraded","type":"event"},{"anonymous":false,"inputs":[{"indexed":true,"internalType":"address","name":"userAddress","type":"address"},{"indexed":true,"internalType":"uint256","name":"value","type":"uint256"}],"name":"UserWithdrawFunds","type":"event"},{"inputs":[],"name":"activeStakersList","outputs":[{"internalType":"address[]","name":"","type":"address[]"}],"stateMutability":"view","type":"function"},{"inputs":[{"internalType":"uint256","name":"_stakingID","type":"uint256"}],"name":"claimStakingReward","outputs":[],"stateMutability":"nonpayable","type":"function"},{"inputs":[{"internalType":"uint256[]","name":"_stakingIDs","type":"uint256[]"}],"name":"claimStakingRewardAdmin","outputs":[],"stateMutability":"nonpayable","type":"function"},{"inputs":[{"internalType":"address[]","name":"_userAddress","type":"address[]"}],"name":"disableAccounts","outputs":[],"stateMutability":"nonpayable","type":"function"},{"inputs":[{"internalType":"address[]","name":"_userAddress","type":"address[]"}],"name":"enableAccounts","outputs":[],"stateMutability":"nonpayable","type":"function"},{"inputs":[],"name":"getActiveStakingIDs","outputs":[{"internalType":"uint256[]","name":"","type":"uint256[]"}],"stateMutability":"view","type":"function"},{"inputs":[{"internalType":"address","name":"_userAddress","type":"address"}],"name":"getClaimableBalance","outputs":[{"internalType":"uint256","name":"","type":"uint256"}],"stateMutability":"view","type":"function"},{"inputs":[],"name":"getDisabledUsersList","outputs":[{"internalType":"address[]","name":"","type":"address[]"}],"stateMutability":"view","type":"function"},{"inputs":[],"name":"getPackages","outputs":[{"internalType":"uint256[]","name":"valuesInDecimals","type":"uint256[]"},{"internalType":"uint256[]","name":"rewardRateInPer","type":"uint256[]"},{"internalType":"uint256[]","name":"durationInDays","type":"uint256[]"},{"internalType":"uint256","name":"count","type":"uint256"}],"stateMutability":"view","type":"function"},{"inputs":[],"name":"getStakingCappings","outputs":[{"internalType":"uint256","name":"priceInUSD","type":"uint256"},{"internalType":"uint256","name":"minStakingValueInUSD","type":"uint256"},{"internalType":"uint256","name":"timeLimitRewardClaim","type":"uint256"},{"internalType":"bool","name":"payReferralOnStaking","type":"bool"},{"internalType":"uint8","name":"maxPackageLength","type":"uint8"},{"internalType":"uint256","name":"rewardRateDecimals","type":"uint256"},{"internalType":"uint256","name":"minWithdrawLimit","type":"uint256"},{"internalType":"uint256","name":"minWithdrawLimitMultiplier","type":"uint256"}],"stateMutability":"view","type":"function"},{"inputs":[{"internalType":"uint256","name":"_stakingID","type":"uint256"}],"name":"getStakingReward","outputs":[{"internalType":"uint256","name":"","type":"uint256"}],"stateMutability":"view","type":"function"},{"inputs":[{"internalType":"uint256","name":"_stakingID","type":"uint256"}],"name":"getStakingTimeRemaining","outputs":[{"internalType":"uint256","name":"","type":"uint256"}],"stateMutability":"view","type":"function"},{"inputs":[],"name":"getTotalStakingRewardDistributed","outputs":[{"internalType":"uint256","name":"","type":"uint256"}],"stateMutability":"view","type":"function"},{"inputs":[],"name":"getTotalValueStaked","outputs":[{"internalType":"uint256","name":"","type":"uint256"}],"stateMutability":"view","type":"function"},{"inputs":[{"internalType":"address","name":"_userAddress","type":"address"}],"name":"getUserAllStakingsRewards","outputs":[{"internalType":"uint256","name":"","type":"uint256"}],"stateMutability":"view","type":"function"},{"inputs":[{"internalType":"address","name":"_userAddress","type":"address"}],"name":"getUserStakingIDs","outputs":[{"internalType":"uint256[]","name":"","type":"uint256[]"}],"stateMutability":"view","type":"function"},{"inputs":[{"internalType":"address","name":"_userAddress","type":"address"}],"name":"getUserTotalRewardClaimed","outputs":[{"internalType":"uint256","name":"totalRewardClaim","type":"uint256"}],"stateMutability":"view","type":"function"},{"inputs":[{"internalType":"address","name":"_userAddress","type":"address"}],"name":"getUserTotalStakedValue","outputs":[{"internalType":"uint256","name":"userTotalValueStaked","type":"uint256"}],"stateMutability":"view","type":"function"},{"inputs":[],"name":"initialize","outputs":[],"stateMutability":"nonpayable","type":"function"},{"inputs":[{"internalType":"address","name":"_userAddress","type":"address"}],"name":"isAccountDisabled","outputs":[{"internalType":"bool","name":"","type":"bool"}],"stateMutability":"view","type":"function"},{"inputs":[{"internalType":"address","name":"_userAddress","type":"address"}],"name":"isStaked","outputs":[{"internalType":"bool","name":"","type":"bool"}],"stateMutability":"view","type":"function"},{"inputs":[],"name":"owner","outputs":[{"internalType":"address","name":"","type":"address"}],"stateMutability":"view","type":"function"},{"inputs":[],"name":"pause","outputs":[],"stateMutability":"nonpayable","type":"function"},{"inputs":[],"name":"paused","outputs":[{"internalType":"bool","name":"","type":"bool"}],"stateMutability":"view","type":"function"},{"inputs":[],"name":"proxiableUUID","outputs":[{"internalType":"bytes32","name":"","type":"bytes32"}],"stateMutability":"view","type":"function"},{"inputs":[],"name":"renounceOwnership","outputs":[],"stateMutability":"nonpayable","type":"function"},{"inputs":[{"internalType":"bool","name":"_value","type":"bool"}],"name":"setIsPayReferralOnStaking","outputs":[{"internalType":"bool","name":"","type":"bool"}],"stateMutability":"nonpayable","type":"function"},{"inputs":[{"internalType":"uint8","name":"_valueInDecimals","type":"uint8"}],"name":"setMaxPackageLength","outputs":[],"stateMutability":"nonpayable","type":"function"},{"inputs":[{"internalType":"uint256","name":"_valueInUSD","type":"uint256"}],"name":"setMinStakingValueInUSD","outputs":[{"internalType":"uint256","name":"","type":"uint256"}],"stateMutability":"nonpayable","type":"function"},{"inputs":[{"internalType":"uint256","name":"_valueInWei","type":"uint256"}],"name":"setMinWithdrawLimit","outputs":[],"stateMutability":"nonpayable","type":"function"},{"inputs":[{"internalType":"uint256","name":"_valueInWei","type":"uint256"}],"name":"setMinWithdrawLimitMultiplier","outputs":[],"stateMutability":"nonpayable","type":"function"},{"inputs":[{"internalType":"uint256[]","name":"_valuesInDecimals","type":"uint256[]"},{"internalType":"uint256[]","name":"_rewardRateInPer","type":"uint256[]"},{"internalType":"uint256[]","name":"_durationsInDays","type":"uint256[]"}],"name":"setPackage","outputs":[],"stateMutability":"nonpayable","type":"function"},{"inputs":[{"internalType":"uint8","name":"_valueInDecimals","type":"uint8"}],"name":"setRewardRateDecimals","outputs":[],"stateMutability":"nonpayable","type":"function"},{"inputs":[{"internalType":"uint256","name":"_valueInSeconds","type":"uint256"}],"name":"setTimeLimitRewardClaim","outputs":[],"stateMutability":"nonpayable","type":"function"},{"inputs":[{"internalType":"address","name":"_referrerAddress","type":"address"},{"internalType":"uint256","name":"_packageID","type":"uint256"}],"name":"stake","outputs":[],"stateMutability":"payable","type":"function"},{"inputs":[{"internalType":"address","name":"_userAddress","type":"address"},{"internalType":"address","name":"_referrerAddress","type":"address"},{"internalType":"uint256","name":"_valueInWei","type":"uint256"},{"internalType":"uint256","name":"_packageID","type":"uint256"}],"name":"stakeByAdmin","outputs":[],"stateMutability":"nonpayable","type":"function"},{"inputs":[{"internalType":"uint256","name":"_stakingID","type":"uint256"}],"name":"stakeInfoMap","outputs":[{"components":[{"internalType":"bool","name":"isStaked","type":"bool"},{"internalType":"address","name":"owner","type":"address"},{"internalType":"uint256","name":"valueInETH","type":"uint256"},{"internalType":"uint256","name":"valueInUSD","type":"uint256"},{"internalType":"uint256","name":"rewardRate","type":"uint256"},{"internalType":"uint256","name":"startTime","type":"uint256"},{"internalType":"uint256","name":"duration","type":"uint256"},{"internalType":"uint256","name":"rewardClaimed","type":"uint256"},{"internalType":"uint256","name":"lastTimeRewardClaimed","type":"uint256"},{"internalType":"uint256[]","name":"blockNumber","type":"uint256[]"}],"internalType":"struct StakingUpgradeable.StakeInfo","name":"","type":"tuple"}],"stateMutability":"view","type":"function"},{"inputs":[{"internalType":"address","name":"newOwner","type":"address"}],"name":"transferOwnership","outputs":[],"stateMutability":"nonpayable","type":"function"},{"inputs":[{"internalType":"uint256","name":"_stakingID","type":"uint256"}],"name":"unStake","outputs":[],"stateMutability":"nonpayable","type":"function"},{"inputs":[],"name":"unpause","outputs":[],"stateMutability":"nonpayable","type":"function"},{"inputs":[{"internalType":"address","name":"newImplementation","type":"address"}],"name":"upgradeTo","outputs":[],"stateMutability":"nonpayable","type":"function"},{"inputs":[{"internalType":"address","name":"newImplementation","type":"address"},{"internalType":"bytes","name":"data","type":"bytes"}],"name":"upgradeToAndCall","outputs":[],"stateMutability":"payable","type":"function"},{"inputs":[{"internalType":"address","name":"_userAddress","type":"address"}],"name":"userAccountMap","outputs":[{"components":[{"internalType":"uint256","name":"userID","type":"uint256"},{"internalType":"uint256[]","name":"stakingID","type":"uint256[]"},{"internalType":"bool","name":"isDisabled","type":"bool"},{"internalType":"uint256[]","name":"blockNumber","type":"uint256[]"}],"internalType":"struct StakingUpgradeable.Account","name":"","type":"tuple"}],"stateMutability":"view","type":"function"},{"inputs":[],"name":"usersList","outputs":[{"internalType":"address[]","name":"","type":"address[]"}],"stateMutability":"view","type":"function"},{"inputs":[{"internalType":"address","name":"_receiver","type":"address"},{"internalType":"uint256","name":"_value","type":"uint256"}],"name":"withdrawNativeFunds","outputs":[{"internalType":"bool","name":"","type":"bool"}],"stateMutability":"nonpayable","type":"function"},{"inputs":[{"internalType":"address","name":"_tokenAddress","type":"address"},{"internalType":"address","name":"_receiver","type":"address"},{"internalType":"uint256","name":"_value","type":"uint256"}],"name":"withdrawTokens","outputs":[{"internalType":"bool","name":"","type":"bool"}],"stateMutability":"nonpayable","type":"function"},{"stateMutability":"payable","type":"receive"}],"evm":{"bytecode":{"linkReferences":{},"object":"60a06040523060805234801561001457600080fd5b50608051613b4c61004c60003960008181610b8301528181610bc301528181610df801528181610e380152610ecb0152613b4c6000f3fe6080604052600436106102815760003560e01c8063715018a61161014f578063a7566b75116100c1578063d8ba90b71161007a578063d8ba90b71461078c578063dba4358c146107ac578063deede654146107c1578063e3a51f58146107d6578063f2fde38b14610829578063fc57e69b1461084957600080fd5b8063a7566b75146106bf578063abfe35ad146106ec578063adc9772e1461070c578063ae3132e81461071f578063aeb6263d1461073f578063ba4f678e1461075f57600080fd5b806388ed4f911161011357806388ed4f91146105da5780638da5cb5b146105fa57806397eee060146106225780639c3fe28a146106425780639d3610dc14610662578063a40b58911461068257600080fd5b8063715018a61461057057806377b6af52146105855780637ce574bf1461059a5780638129fc1c146105b05780638456cb59146105c557600080fd5b806352d1902d116101f35780635e35359e116101ac5780635e35359e146104ac5780636177fd18146104cc57806368ed7f56146104ec5780636f51b20b1461050e5780636f72693b1461053b578063707fd3c61461055057600080fd5b806352d1902d146103fa57806353bdadea1461040f57806358628d571461042f5780635c05a89f1461044f5780635c975abb146104745780635d3eea911461048c57600080fd5b80633659cfe6116102455780633659cfe6146103525780633b09098f146103725780633f4ba83a14610392578063469bbc12146103a75780634d574c56146103c75780634f1ef286146103e757600080fd5b806306def8021461028d578063086f1647146102c0578063239cd4a4146102e257806326792aca14610302578063351387b21461033257600080fd5b3661028857005b600080fd5b34801561029957600080fd5b506102ad6102a83660046131eb565b610869565b6040519081526020015b60405180910390f35b3480156102cc57600080fd5b506102e06102db366004613208565b61096b565b005b3480156102ee57600080fd5b506102e06102fd366004613208565b610979565b34801561030e57600080fd5b5061032261031d366004613221565b610b19565b60405190151581526020016102b7565b34801561033e57600080fd5b506102ad61034d366004613208565b610b65565b34801561035e57600080fd5b506102e061036d3660046131eb565b610b79565b34801561037e57600080fd5b506102e061038d366004613299565b610c58565b34801561039e57600080fd5b506102e0610ce9565b3480156103b357600080fd5b506102ad6103c23660046131eb565b610cfb565b3480156103d357600080fd5b506102e06103e2366004613208565b610de0565b6102e06103f53660046132f1565b610dee565b34801561040657600080fd5b506102ad610ebe565b34801561041b57600080fd5b506102e061042a366004613299565b610f71565b34801561043b57600080fd5b506102e061044a366004613208565b610ff7565b34801561045b57600080fd5b50610464611005565b6040516102b794939291906133f0565b34801561048057600080fd5b5060335460ff16610322565b34801561049857600080fd5b506102e06104a7366004613208565b6111b9565b3480156104b857600080fd5b506103226104c736600461343b565b611352565b3480156104d857600080fd5b506103226104e73660046131eb565b6113da565b3480156104f857600080fd5b5061050161149b565b6040516102b7919061347c565b34801561051a57600080fd5b5061052e6105293660046131eb565b6115dc565b6040516102b791906134c9565b34801561054757600080fd5b5061052e61164c565b34801561055c57600080fd5b506102e061056b3660046134dc565b61172d565b34801561057c57600080fd5b506102e06118e6565b34801561059157600080fd5b506105016118f8565b3480156105a657600080fd5b50610101546102ad565b3480156105bc57600080fd5b506102e06119bf565b3480156105d157600080fd5b506102e0611b3d565b3480156105e657600080fd5b506102e06105f5366004613299565b611b4d565b34801561060657600080fd5b506065546040516001600160a01b0390911681526020016102b7565b34801561062e57600080fd5b506102e061063d366004613531565b611c0b565b34801561064e57600080fd5b506102ad61065d3660046131eb565b611c2a565b34801561066e57600080fd5b5061032261067d36600461355c565b611d16565b34801561068e57600080fd5b5061032261069d3660046131eb565b6001600160a01b03166000908152610109602052604090206002015460ff1690565b3480156106cb57600080fd5b506106df6106da366004613208565b611d38565b6040516102b79190613579565b3480156106f857600080fd5b506102ad610707366004613208565b611e77565b6102e061071a366004613221565b611e82565b34801561072b57600080fd5b506102ad61073a3660046131eb565b61202e565b34801561074b57600080fd5b506102e061075a366004613531565b6120e1565b34801561076b57600080fd5b5061077f61077a3660046131eb565b612100565b6040516102b7919061361d565b34801561079857600080fd5b506102ad6107a7366004613208565b612216565b3480156107b857600080fd5b5061050161227b565b3480156107cd57600080fd5b5060ff546102ad565b3480156107e257600080fd5b506107eb61237c565b60408051988952602089019790975295870194909452911515606086015260ff16608085015260a084015260c083015260e0820152610100016102b7565b34801561083557600080fd5b506102e06108443660046131eb565b61243d565b34801561085557600080fd5b506102e061086436600461366c565b6124b3565b60fb546040516323b9a44960e11b81526001600160a01b0383811660048301526000928392911690634773489290602401602060405180830381865afa1580156108b7573d6000803e3d6000fd5b505050506040513d601f19601f820116820180604052508101906108db9190613706565b90506109648160fc60009054906101000a90046001600160a01b03166001600160a01b0316635391c6006040518163ffffffff1660e01b8152600401602060405180830381865afa158015610934573d6000803e3d6000fd5b505050506040513d601f19601f82011682018060405250810190610958919061371f565b60ff1661010854612559565b9392505050565b61097361259d565b61010855565b600081815261010b602090815260408083203380855261010990935292206002810154919291439060ff16156109ca5760405162461bcd60e51b81526004016109c19061373c565b60405180910390fd5b825460ff161515600114610a185760405162461bcd60e51b81526020600482015260156024820152745374616b696e67206973206e6f742061637469766560581b60448201526064016109c1565b82546001600160a01b038581166101009092041614610a795760405162461bcd60e51b815260206004820152601760248201527f536f72727920796f7520617265206e6f74206f776e657200000000000000000060448201526064016109c1565b42610105548460070154610a8d91906137a2565b11610af55760405162461bcd60e51b815260206004820152603260248201527f596f7572206c6173742072657761726420636c61696d2074696d65206c696d696044820152713a1034b9903737ba1037bb32b9103cb2ba1760711b60648201526084016109c1565b6000610b00866125f7565b9050610b1085878686858761268b565b50505050505050565b6000610b2361259d565b6040516001600160a01b0384169083156108fc029084906000818181858888f19350505050158015610b59573d6000803e3d6000fd5b50600190505b92915050565b6000610b6f61259d565b5061010381905590565b6001600160a01b037f0000000000000000000000000000000000000000000000000000000000000000163003610bc15760405162461bcd60e51b81526004016109c1906137b5565b7f00000000000000000000000000000000000000000000000000000000000000006001600160a01b0316610c0a600080516020613ad0833981519152546001600160a01b031690565b6001600160a01b031614610c305760405162461bcd60e51b81526004016109c190613801565b610c3981612738565b60408051600080825260208201909252610c5591839190612740565b50565b610c6061259d565b60008080526101096020527fac682d343707aadf06c2c4c3692831d9e7ba711099ef36f9efb8bb29be8c410e82825b81811015610ce157858582818110610ca957610ca961384d565b9050602002016020810190610cbe91906131eb565b60028401805460ff19166001179055935080610cd981613863565b915050610c8f565b505050505050565b610cf161259d565b610cf96128b0565b565b6001600160a01b038116600090815261010960209081526040808320600181018054835181860281018601909452808452919385939290830182828015610d6157602002820191906000526020600020905b815481526020019060010190808311610d4d575b505083519394506000925050505b81811015610dd757610d99838281518110610d8c57610d8c61384d565b6020026020010151611d38565b5115610dc557610db4838281518110610d8c57610d8c61384d565b60600151610dc290866137a2565b94505b80610dcf81613863565b915050610d6f565b50505050919050565b610de861259d565b61010755565b6001600160a01b037f0000000000000000000000000000000000000000000000000000000000000000163003610e365760405162461bcd60e51b81526004016109c1906137b5565b7f00000000000000000000000000000000000000000000000000000000000000006001600160a01b0316610e7f600080516020613ad0833981519152546001600160a01b031690565b6001600160a01b031614610ea55760405162461bcd60e51b81526004016109c190613801565b610eae82612738565b610eba82826001612740565b5050565b6000306001600160a01b037f00000000000000000000000000000000000000000000000000000000000000001614610f5e5760405162461bcd60e51b815260206004820152603860248201527f555550535570677261646561626c653a206d757374206e6f742062652063616c60448201527f6c6564207468726f7567682064656c656761746563616c6c000000000000000060648201526084016109c1565b50600080516020613ad083398151915290565b610f7961259d565b60008080526101096020527fac682d343707aadf06c2c4c3692831d9e7ba711099ef36f9efb8bb29be8c410e82825b81811015610ce157858582818110610fc257610fc261384d565b9050602002016020810190610fd791906131eb565b60028401805460ff19169055935080610fef81613863565b915050610fa8565b610fff61259d565b61010555565b6101065460609081908190600090819060ff1667ffffffffffffffff811115611030576110306132db565b604051908082528060200260200182016040528015611059578160200160208202803683370190505b506101065490915060009060ff1667ffffffffffffffff81111561107f5761107f6132db565b6040519080825280602002602001820160405280156110a8578160200160208202803683370190505b506101065490915060009060ff1667ffffffffffffffff8111156110ce576110ce6132db565b6040519080825280602002602001820160405280156110f7578160200160208202803683370190505b50905060005b6101065460ff168110156111ab5761111481612902565b6000015184828151811061112a5761112a61384d565b60200260200101818152505061113f81612902565b602001518382815181106111555761115561384d565b60200260200101818152505061116a81612902565b604001518282815181106111805761118061384d565b60209081029190910101528461119581613863565b95505080806111a390613863565b9150506110fd565b509196909550909350909150565b3360008181526101096020908152604080832085845261010b909252909120600282015443924292909160ff16156112035760405162461bcd60e51b81526004016109c19061373c565b805460ff1661124c5760405162461bcd60e51b81526020600482015260156024820152745374616b696e67206973206e6f742061637469766560581b60448201526064016109c1565b80546001600160a01b0386811661010090920416146112bd5760405162461bcd60e51b815260206004820152602760248201527f536f72727920796f7520617265206e6f74206f776e6572206f662074686973206044820152667374616b696e6760c81b60648201526084016109c1565b82816005015482600401546112d291906137a2565b1161131f5760405162461bcd60e51b815260206004820152601b60248201527f596f75207374616b696e67206973206e6f74206f76657220796574000000000060448201526064016109c1565b600061132a876125f7565b905061133a86888486858a61268b565b506113488688848689612960565b5050505050505050565b600061135c61259d565b60405163a9059cbb60e01b81526001600160a01b0384811660048301526024820184905285169063a9059cbb906044016020604051808303816000875af11580156113ab573d6000803e3d6000fd5b505050506040513d601f19601f820116820180604052508101906113cf919061387c565b506001949350505050565b6001600160a01b03811660009081526101096020908152604080832060018101805483518186028101860190945280845291938593929083018282801561144057602002820191906000526020600020905b81548152602001906001019080831161142c575b505083519394506000925050505b8181101561148f5761146b838281518110610d8c57610d8c61384d565b511561147d5750600195945050505050565b8061148781613863565b91505061144e565b50600095945050505050565b60fd547f8684156705e0cb91ffe15d87ba1902d313d1419968887339e417608630e96334546001600160a01b03166000818152610109602052604081206060939290826103e85b8581101561151c576002830154909450849060ff161561150a578161150681613863565b9250505b8061151481613863565b9150506114e2565b5060008167ffffffffffffffff811115611538576115386132db565b604051908082528060200260200182016040528015611561578160200160208202803683370190505b506000925090506103e85b868110156115d1576002840154909550859060ff16156115bf57848284815181106115995761159961384d565b6001600160a01b0390921660209283029190910190910152826115bb81613863565b9350505b806115c981613863565b91505061156c565b509695505050505050565b6001600160a01b0381166000908152610109602090815260409182902060010180548351818402810184019094528084526060939283018282801561164057602002820191906000526020600020905b81548152602001906001019080831161162c575b50505050509050919050565b60fe54600080805261010b602052606091907f053a497187f043e06d3c7bcdaec804489d8611080d89254a48d3f6b783c2c9ec818367ffffffffffffffff811115611699576116996132db565b6040519080825280602002602001820160405280156116c2578160200160208202803683370190505b50905060006103e85b60fe54811015611722578354909450849060ff161561171057848383815181106116f7576116f761384d565b60209081029190910101528161170c81613863565b9250505b8061171a81613863565b9150506116cb565b509095945050505050565b61173561259d565b61173d6129fd565b33600061174984612a43565b9050600060fb60009054906101000a90046001600160a01b03166001600160a01b03166323442c606040518163ffffffff1660e01b8152600401602060405180830381865afa1580156117a0573d6000803e3d6000fd5b505050506040513d601f19601f820116820180604052508101906117c49190613899565b90506101035482101561182d5760405162461bcd60e51b815260206004820152602b60248201527f5374616b696e672076616c75652073686f756c64206265203e3d206d696e537460448201526a30b5b4b733ab30b63ab29760a91b60648201526084016109c1565b600084815261010c6020526040902060018101546002820154611854918a91869190612ada565b6101045460ff161561134857604051631eb714b160e31b8152600481018790526001600160a01b038581166024830152888116604483015283169063f5b8a588906064016020604051808303816000875af11580156118b7573d6000803e3d6000fd5b505050506040513d601f19601f820116820180604052508101906118db919061387c565b505050505050505050565b6118ee61259d565b610cf96000612c58565b60fd5460609060008167ffffffffffffffff811115611919576119196132db565b604051908082528060200260200182016040528015611942578160200160208202803683370190505b50905060006103e85b838110156119b657600081815261010a60205260409020546001600160a01b031683838151811061197e5761197e61384d565b6001600160a01b0390921660209283029190910190910152816119a081613863565b92505080806119ae90613863565b91505061194b565b50909392505050565b600054610100900460ff16158080156119df5750600054600160ff909116105b806119f95750303b1580156119f9575060005460ff166001145b611a5c5760405162461bcd60e51b815260206004820152602e60248201527f496e697469616c697a61626c653a20636f6e747261637420697320616c72656160448201526d191e481a5b9a5d1a585b1a5e995960921b60648201526084016109c1565b6000805460ff191660011790558015611a7f576000805461ff0019166101001790555b678ac7230489e80000610103819055610104805460ff19908116600117909155610102805461ffff19166103e89081179091556201518061010555610106805490921660031790915561010791909155600a6101085560fd81905560fe55611ae5612caa565b611aed612cd9565b611af5612d08565b8015610c55576000805461ff0019169055604051600181527f7f26b83ff96e1f2b6a682f133852f6798a09c465da95921460cefb38474024989060200160405180910390a150565b611b4561259d565b610cf9612d2f565b611b5561259d565b600080805261010960205280807f053a497187f043e06d3c7bcdaec804489d8611080d89254a48d3f6b783c2c9ec7fac682d343707aadf06c2c4c3692831d9e7ba711099ef36f9efb8bb29be8c410e43835b878110156118db57888882818110611bc157611bc161384d565b865461010090046001600160a01b0316995060200291909101359650611be89050866125f7565b9450611bf887878686898761268b565b5080611c0381613863565b915050611ba7565b611c1361259d565b610106805460ff191660ff92909216919091179055565b6001600160a01b03811660009081526101096020908152604080832060010180548251818502810185019093528083528493830182828015611c8b57602002820191906000526020600020905b815481526020019060010190808311611c77575b505050505090506000815190506000805b828160ff161015611d0d57611cbf848260ff1681518110610d8c57610d8c61384d565b511515600103611cfb57611cee848260ff1681518110611ce157611ce161384d565b60200260200101516125f7565b611cf890836137a2565b91505b80611d05816138b6565b915050611c9c565b50949350505050565b6000611d2061259d565b50610104805460ff1916911515918217905560ff1690565b611d9960405180610140016040528060001515815260200160006001600160a01b0316815260200160008152602001600081526020016000815260200160008152602001600081526020016000815260200160008152602001606081525090565b600082815261010b6020908152604091829020825161014081018452815460ff8116151582526001600160a01b036101009182900416828501526001830154828601526002830154606083015260038301546080830152600483015460a0830152600583015460c0830152600683015460e0830152600783015490820152600882018054855181860281018601909652808652919492936101208601939290830182828015611e6757602002820191906000526020600020905b815481526020019060010190808311611e53575b5050505050815250509050919050565b6000610b5f826125f7565b611e8a6129fd565b33346000611e9782612a43565b9050600060fb60009054906101000a90046001600160a01b03166001600160a01b03166323442c606040518163ffffffff1660e01b8152600401602060405180830381865afa158015611eee573d6000803e3d6000fd5b505050506040513d601f19601f82011682018060405250810190611f129190613899565b905061010354821015611f805760405162461bcd60e51b815260206004820152603060248201527f5374616b696e672076616c75652073686f756c64206265203e3d206d696e537460448201526f30b5b4b733ab30b63ab2a4b72aa9a21760811b60648201526084016109c1565b600085815261010c6020526040902060018101546002820154611fa7918791869190612ada565b6101045460ff1615610b1057604051631eb714b160e31b8152600481018590526001600160a01b038681166024830152888116604483015283169063f5b8a588906064016020604051808303816000875af115801561200a573d6000803e3d6000fd5b505050506040513d601f19601f82011682018060405250810190611348919061387c565b6001600160a01b03811660009081526101096020908152604080832060018101805483518186028101860190945280845291938593929083018282801561209457602002820191906000526020600020905b815481526020019060010190808311612080575b505083519394506000925050505b81811015610dd7576120bf838281518110610d8c57610d8c61384d565b60e001516120cd90866137a2565b9450806120d981613863565b9150506120a2565b6120e961259d565b610102805461ffff191660ff909216919091179055565b61212d60405180608001604052806000815260200160608152602001600015158152602001606081525090565b6001600160a01b03821660009081526101096020908152604091829020825160808101845281548152600182018054855181860281018601909652808652919492938581019392908301828280156121a457602002820191906000526020600020905b815481526020019060010190808311612190575b5050509183525050600282015460ff1615156020808301919091526003830180546040805182850281018501825282815294019392830182828015611e675760200282019190600052602060002090815481526020019060010190808311611e53575050505050815250509050919050565b600081815261010b6020526040812060058101546004820154429291849161223e91906137a2565b90508083101561227057828260050154836004015461225d91906137a2565b61226791906138d5565b95945050505050565b506000949350505050565b60fd54600080805261010a6020527f8684156705e0cb91ffe15d87ba1902d313d1419968887339e417608630e963345460609291906001600160a01b0316818367ffffffffffffffff8111156122d3576122d36132db565b6040519080825280602002602001820160405280156122fc578160200160208202803683370190505b50905060006103e85b858110156117225780945061231a8385612d6c565b151560011461236a5761232c846113da565b1561236a57838383815181106123445761234461384d565b6001600160a01b03909216602092830291909101909101528161236681613863565b9250505b8061237481613863565b915050612305565b60008060008060008060008060fc60009054906101000a90046001600160a01b03166001600160a01b031663e1aa60366040518163ffffffff1660e01b8152600401602060405180830381865afa1580156123db573d6000803e3d6000fd5b505050506040513d601f19601f820116820180604052508101906123ff9190613706565b61010354610105546101045461010654610102546101075461010854969f959e50939c5060ff9283169b509116985061ffff16965094509092509050565b61244561259d565b6001600160a01b0381166124aa5760405162461bcd60e51b815260206004820152602660248201527f4f776e61626c653a206e6577206f776e657220697320746865207a65726f206160448201526564647265737360d01b60648201526084016109c1565b610c5581612c58565b6124bb61259d565b610ce186868080602002602001604051908101604052809392919081815260200183836020028082843760009201919091525050604080516020808a0282810182019093528982529093508992508891829185019084908082843760009201919091525050604080516020808902828101820190935288825290935088925087918291850190849080828437600092019190915250612dd192505050565b6000808261256885600a6139cc565b61257290876139d8565b61257c91906139d8565b905061258984600a6139cc565b61259384836139fa565b61226791906139fa565b6065546001600160a01b03163314610cf95760405162461bcd60e51b815260206004820181905260248201527f4f776e61626c653a2063616c6c6572206973206e6f7420746865206f776e657260448201526064016109c1565b600081815261010b602052604081206004810154429190839061261a90846138d5565b6005830154610102546003850154600286015493945060009361ffff9092169161264491906139fa565b61264e91906139d8565b61265891906139d8565b9050826006015461266d838560050154612ee9565b61267790836139fa565b61268191906138d5565b9695505050505050565b6000828560060160008282546126a191906137a2565b90915550504260078601556008850180546001818101835560009283526020808420909201859055600387018054918201815583529082200183905561010180548592906126f09084906137a2565b9091555050604051869084906001600160a01b038a16907fd6ab86e55e7211dddcda4c7c65e9e1c75f06b5da6b05222f8cd39b93986fecad90600090a4509095945050505050565b610c5561259d565b7f4910fdfa16fed3260ed0e7147f7cc6da11a60208b5b9406d12a635614ffd91435460ff16156127785761277383612eff565b505050565b826001600160a01b03166352d1902d6040518163ffffffff1660e01b8152600401602060405180830381865afa9250505080156127d2575060408051601f3d908101601f191682019092526127cf91810190613706565b60015b6128355760405162461bcd60e51b815260206004820152602e60248201527f45524331393637557067726164653a206e657720696d706c656d656e7461746960448201526d6f6e206973206e6f74205555505360901b60648201526084016109c1565b600080516020613ad083398151915281146128a45760405162461bcd60e51b815260206004820152602960248201527f45524331393637557067726164653a20756e737570706f727465642070726f786044820152681a58589b195555525160ba1b60648201526084016109c1565b50612773838383612f9b565b6128b8612fc6565b6033805460ff191690557f5db9ee0a495bf2e6ff9c91a7834c1ba4fdd244a5e8aa4e537bd38aeae4b073aa335b6040516001600160a01b03909116815260200160405180910390a1565b61292660405180606001604052806000815260200160008152602001600081525090565b50600090815261010c6020908152604091829020825160608101845281548152600182015492810192909252600201549181019190915290565b825460ff1916835560088301805460018181018355600092835260208084209092018490556003850180549182018155835290822001829055600284015460ff805483906129af9084906138d5565b909155505060028401546040518691906001600160a01b038916907ff960dbf9e5d0682f7a298ed974e33a28b4464914b7a2bfac12ae419a9afeb28090600090a45050506002015492915050565b60335460ff1615610cf95760405162461bcd60e51b815260206004820152601060248201526f14185d5cd8589b194e881c185d5cd95960821b60448201526064016109c1565b600080670de0b6b3a764000060fc60009054906101000a90046001600160a01b03166001600160a01b031663e1aa60366040518163ffffffff1660e01b8152600401602060405180830381865afa158015612aa2573d6000803e3d6000fd5b505050506040513d601f19601f82011682018060405250810190612ac69190613706565b612ad090856139fa565b61096491906139d8565b60fe8054906000612aea83613863565b909155505060fe546001600160a01b03851660009081526101096020908152604080832084845261010b909252822081544293439392919003612b6b5760fd8054906000612b3783613863565b909155505060fd54808355600090815261010a6020526040902080546001600160a01b0319166001600160a01b038b161790555b600182810180548083018255600091825260208083209091018890556003808601805480860182559084528284200187905584546001600160a81b0319166101006001600160a01b038f168102919091178517865560048601899055600586018b9055600286018d90559085018b90556008850180549485018155835290822090920185905581548a929190612c029084906137a2565b9091555050604080518781526020810187905289916001600160a01b038c16917ff556991011e831bcfac4f406d547e5e32cdd98267efab83935230d5f8d02c446910160405180910390a3505050505050505050565b606580546001600160a01b038381166001600160a01b0319831681179093556040519116919082907f8be0079c531659141344cd1fd0a4f28419497f9722a3daafe3b4186f6b6457e090600090a35050565b600054610100900460ff16612cd15760405162461bcd60e51b81526004016109c190613a11565b610cf961300f565b600054610100900460ff16612d005760405162461bcd60e51b81526004016109c190613a11565b610cf9613042565b600054610100900460ff16610cf95760405162461bcd60e51b81526004016109c190613a11565b612d376129fd565b6033805460ff191660011790557f62e78cea01bee320cd4e420270b5ea74000d11b0c9f74754ebdbfc544b05a2586128e53390565b6000805b8351811015612dc757826001600160a01b0316848281518110612d9557612d9561384d565b60200260200101516001600160a01b031603612db5576001915050610b5f565b80612dbf81613863565b915050612d70565b5060009392505050565b82516101065460ff16811115612e295760405162461bcd60e51b815260206004820152601860248201527f457863656564696e67207061636b616765206c656e677468000000000000000060448201526064016109c1565b60005b81811015612ee257848181518110612e4657612e4661384d565b602002602001015161010c600083815260200190815260200160002060000181905550838181518110612e7b57612e7b61384d565b602002602001015161010c600083815260200190815260200160002060010181905550828181518110612eb057612eb061384d565b602090810291909101810151600083815261010c90925260409091206002015580612eda81613863565b915050612e2c565b5050505050565b6000818310612ef85781610964565b5090919050565b6001600160a01b0381163b612f6c5760405162461bcd60e51b815260206004820152602d60248201527f455243313936373a206e657720696d706c656d656e746174696f6e206973206e60448201526c1bdd08184818dbdb9d1c9858dd609a1b60648201526084016109c1565b600080516020613ad083398151915280546001600160a01b0319166001600160a01b0392909216919091179055565b612fa483613072565b600082511180612fb15750805b1561277357612fc083836130b2565b50505050565b60335460ff16610cf95760405162461bcd60e51b815260206004820152601460248201527314185d5cd8589b194e881b9bdd081c185d5cd95960621b60448201526064016109c1565b600054610100900460ff166130365760405162461bcd60e51b81526004016109c190613a11565b6033805460ff19169055565b600054610100900460ff166130695760405162461bcd60e51b81526004016109c190613a11565b610cf933612c58565b61307b81612eff565b6040516001600160a01b038216907fbc7cd75a20ee27fd9adebab32041f755214dbc6bffa90cc0225b39da2e5c2d3b90600090a250565b60606001600160a01b0383163b61311a5760405162461bcd60e51b815260206004820152602660248201527f416464726573733a2064656c65676174652063616c6c20746f206e6f6e2d636f6044820152651b9d1c9858dd60d21b60648201526084016109c1565b600080846001600160a01b0316846040516131359190613a80565b600060405180830381855af49150503d8060008114613170576040519150601f19603f3d011682016040523d82523d6000602084013e613175565b606091505b50915091506122678282604051806060016040528060278152602001613af060279139606083156131a7575081610964565b61096483838151156131bc5781518083602001fd5b8060405162461bcd60e51b81526004016109c19190613a9c565b6001600160a01b0381168114610c5557600080fd5b6000602082840312156131fd57600080fd5b8135610964816131d6565b60006020828403121561321a57600080fd5b5035919050565b6000806040838503121561323457600080fd5b823561323f816131d6565b946020939093013593505050565b60008083601f84011261325f57600080fd5b50813567ffffffffffffffff81111561327757600080fd5b6020830191508360208260051b850101111561329257600080fd5b9250929050565b600080602083850312156132ac57600080fd5b823567ffffffffffffffff8111156132c357600080fd5b6132cf8582860161324d565b90969095509350505050565b634e487b7160e01b600052604160045260246000fd5b6000806040838503121561330457600080fd5b823561330f816131d6565b9150602083013567ffffffffffffffff8082111561332c57600080fd5b818501915085601f83011261334057600080fd5b813581811115613352576133526132db565b604051601f8201601f19908116603f0116810190838211818310171561337a5761337a6132db565b8160405282815288602084870101111561339357600080fd5b8260208601602083013760006020848301015280955050505050509250929050565b600081518084526020808501945080840160005b838110156133e5578151875295820195908201906001016133c9565b509495945050505050565b60808152600061340360808301876133b5565b828103602084015261341581876133b5565b9050828103604084015261342981866133b5565b91505082606083015295945050505050565b60008060006060848603121561345057600080fd5b833561345b816131d6565b9250602084013561346b816131d6565b929592945050506040919091013590565b6020808252825182820181905260009190848201906040850190845b818110156134bd5783516001600160a01b031683529284019291840191600101613498565b50909695505050505050565b60208152600061096460208301846133b5565b600080600080608085870312156134f257600080fd5b84356134fd816131d6565b9350602085013561350d816131d6565b93969395505050506040820135916060013590565b60ff81168114610c5557600080fd5b60006020828403121561354357600080fd5b813561096481613522565b8015158114610c5557600080fd5b60006020828403121561356e57600080fd5b81356109648161354e565b6020815261358c60208201835115159052565b600060208301516135a860408401826001600160a01b03169052565b506040830151606083015260608301516080830152608083015160a083015260a083015160c083015260c083015160e083015260e08301516101008181850152808501519150506101208181850152808501519150506101408081850152506136156101608401826133b5565b949350505050565b6020815281516020820152600060208301516080604084015261364360a08401826133b5565b90506040840151151560608401526060840151601f1984830301608085015261226782826133b5565b6000806000806000806060878903121561368557600080fd5b863567ffffffffffffffff8082111561369d57600080fd5b6136a98a838b0161324d565b909850965060208901359150808211156136c257600080fd5b6136ce8a838b0161324d565b909650945060408901359150808211156136e757600080fd5b506136f489828a0161324d565b979a9699509497509295939492505050565b60006020828403121561371857600080fd5b5051919050565b60006020828403121561373157600080fd5b815161096481613522565b60208082526030908201527f596f7572206163636f756e742069732064697361626c65642e20506c6561736560408201526f1031b7b73a3930b1ba1030b236b4b71760811b606082015260800190565b634e487b7160e01b600052601160045260246000fd5b80820180821115610b5f57610b5f61378c565b6020808252602c908201527f46756e6374696f6e206d7573742062652063616c6c6564207468726f7567682060408201526b19195b1959d85d1958d85b1b60a21b606082015260800190565b6020808252602c908201527f46756e6374696f6e206d7573742062652063616c6c6564207468726f7567682060408201526b6163746976652070726f787960a01b606082015260800190565b634e487b7160e01b600052603260045260246000fd5b6000600182016138755761387561378c565b5060010190565b60006020828403121561388e57600080fd5b81516109648161354e565b6000602082840312156138ab57600080fd5b8151610964816131d6565b600060ff821660ff81036138cc576138cc61378c565b60010192915050565b81810381811115610b5f57610b5f61378c565b600181815b808511156139235781600019048211156139095761390961378c565b8085161561391657918102915b93841c93908002906138ed565b509250929050565b60008261393a57506001610b5f565b8161394757506000610b5f565b816001811461395d576002811461396757613983565b6001915050610b5f565b60ff8411156139785761397861378c565b50506001821b610b5f565b5060208310610133831016604e8410600b84101617156139a6575081810a610b5f565b6139b083836138e8565b80600019048211156139c4576139c461378c565b029392505050565b6000610964838361392b565b6000826139f557634e487b7160e01b600052601260045260246000fd5b500490565b8082028115828204841417610b5f57610b5f61378c565b6020808252602b908201527f496e697469616c697a61626c653a20636f6e7472616374206973206e6f74206960408201526a6e697469616c697a696e6760a81b606082015260800190565b60005b83811015613a77578181015183820152602001613a5f565b50506000910152565b60008251613a92818460208701613a5c565b9190910192915050565b6020815260008251806020840152613abb816040850160208701613a5c565b601f01601f1916919091016040019291505056fe360894a13ba1a3210667c828492db98dca3e2076cc3735a920a3ca505d382bbc416464726573733a206c6f772d6c6576656c2064656c65676174652063616c6c206661696c6564a2646970667358221220a45a55b28c10ca6220844b9e685edaa3b92fde18133ba3b3e432aa3a57c3d75364736f6c63430008110033","opcodes":"PUSH1 0xA0 PUSH1 0x40 MSTORE ADDRESS PUSH1 0x80 MSTORE CALLVALUE DUP1 ISZERO PUSH2 0x14 JUMPI PUSH1 0x0 DUP1 REVERT JUMPDEST POP PUSH1 0x80 MLOAD PUSH2 0x3B4C PUSH2 0x4C PUSH1 0x0 CODECOPY PUSH1 0x0 DUP2 DUP2 PUSH2 0xB83 ADD MSTORE DUP2 DUP2 PUSH2 0xBC3 ADD MSTORE DUP2 DUP2 PUSH2 0xDF8 ADD MSTORE DUP2 DUP2 PUSH2 0xE38 ADD MSTORE PUSH2 0xECB ADD MSTORE PUSH2 0x3B4C PUSH1 0x0 RETURN INVALID PUSH1 0x80 PUSH1 0x40 MSTORE PUSH1 0x4 CALLDATASIZE LT PUSH2 0x281 JUMPI PUSH1 0x0 CALLDATALOAD PUSH1 0xE0 SHR DUP1 PUSH4 0x715018A6 GT PUSH2 0x14F JUMPI DUP1 PUSH4 0xA7566B75 GT PUSH2 0xC1 JUMPI DUP1 PUSH4 0xD8BA90B7 GT PUSH2 0x7A JUMPI DUP1 PUSH4 0xD8BA90B7 EQ PUSH2 0x78C JUMPI DUP1 PUSH4 0xDBA4358C EQ PUSH2 0x7AC JUMPI DUP1 PUSH4 0xDEEDE654 EQ PUSH2 0x7C1 JUMPI DUP1 PUSH4 0xE3A51F58 EQ PUSH2 0x7D6 JUMPI DUP1 PUSH4 0xF2FDE38B EQ PUSH2 0x829 JUMPI DUP1 PUSH4 0xFC57E69B EQ PUSH2 0x849 JUMPI PUSH1 0x0 DUP1 REVERT JUMPDEST DUP1 PUSH4 0xA7566B75 EQ PUSH2 0x6BF JUMPI DUP1 PUSH4 0xABFE35AD EQ PUSH2 0x6EC JUMPI DUP1 PUSH4 0xADC9772E EQ PUSH2 0x70C JUMPI DUP1 PUSH4 0xAE3132E8 EQ PUSH2 0x71F JUMPI DUP1 PUSH4 0xAEB6263D EQ PUSH2 0x73F JUMPI DUP1 PUSH4 0xBA4F678E EQ PUSH2 0x75F JUMPI PUSH1 0x0 DUP1 REVERT JUMPDEST DUP1 PUSH4 0x88ED4F91 GT PUSH2 0x113 JUMPI DUP1 PUSH4 0x88ED4F91 EQ PUSH2 0x5DA JUMPI DUP1 PUSH4 0x8DA5CB5B EQ PUSH2 0x5FA JUMPI DUP1 PUSH4 0x97EEE060 EQ PUSH2 0x622 JUMPI DUP1 PUSH4 0x9C3FE28A EQ PUSH2 0x642 JUMPI DUP1 PUSH4 0x9D3610DC EQ PUSH2 0x662 JUMPI DUP1 PUSH4 0xA40B5891 EQ PUSH2 0x682 JUMPI PUSH1 0x0 DUP1 REVERT JUMPDEST DUP1 PUSH4 0x715018A6 EQ PUSH2 0x570 JUMPI DUP1 PUSH4 0x77B6AF52 EQ PUSH2 0x585 JUMPI DUP1 PUSH4 0x7CE574BF EQ PUSH2 0x59A JUMPI DUP1 PUSH4 0x8129FC1C EQ PUSH2 0x5B0 JUMPI DUP1 PUSH4 0x8456CB59 EQ PUSH2 0x5C5 JUMPI PUSH1 0x0 DUP1 REVERT JUMPDEST DUP1 PUSH4 0x52D1902D GT PUSH2 0x1F3 JUMPI DUP1 PUSH4 0x5E35359E GT PUSH2 0x1AC JUMPI DUP1 PUSH4 0x5E35359E EQ PUSH2 0x4AC JUMPI DUP1 PUSH4 0x6177FD18 EQ PUSH2 0x4CC JUMPI DUP1 PUSH4 0x68ED7F56 EQ PUSH2 0x4EC JUMPI DUP1 PUSH4 0x6F51B20B EQ PUSH2 0x50E JUMPI DUP1 PUSH4 0x6F72693B EQ PUSH2 0x53B JUMPI DUP1 PUSH4 0x707FD3C6 EQ PUSH2 0x550 JUMPI PUSH1 0x0 DUP1 REVERT JUMPDEST DUP1 PUSH4 0x52D1902D EQ PUSH2 0x3FA JUMPI DUP1 PUSH4 0x53BDADEA EQ PUSH2 0x40F JUMPI DUP1 PUSH4 0x58628D57 EQ PUSH2 0x42F JUMPI DUP1 PUSH4 0x5C05A89F EQ PUSH2 0x44F JUMPI DUP1 PUSH4 0x5C975ABB EQ PUSH2 0x474 JUMPI DUP1 PUSH4 0x5D3EEA91 EQ PUSH2 0x48C JUMPI PUSH1 0x0 DUP1 REVERT JUMPDEST DUP1 PUSH4 0x3659CFE6 GT PUSH2 0x245 JUMPI DUP1 PUSH4 0x3659CFE6 EQ PUSH2 0x352 JUMPI DUP1 PUSH4 0x3B09098F EQ PUSH2 0x372 JUMPI DUP1 PUSH4 0x3F4BA83A EQ PUSH2 0x392 JUMPI DUP1 PUSH4 0x469BBC12 EQ PUSH2 0x3A7 JUMPI DUP1 PUSH4 0x4D574C56 EQ PUSH2 0x3C7 JUMPI DUP1 PUSH4 0x4F1EF286 EQ PUSH2 0x3E7 JUMPI PUSH1 0x0 DUP1 REVERT JUMPDEST DUP1 PUSH4 0x6DEF802 EQ PUSH2 0x28D JUMPI DUP1 PUSH4 0x86F1647 EQ PUSH2 0x2C0 JUMPI DUP1 PUSH4 0x239CD4A4 EQ PUSH2 0x2E2 JUMPI DUP1 PUSH4 0x26792ACA EQ PUSH2 0x302 JUMPI DUP1 PUSH4 0x351387B2 EQ PUSH2 0x332 JUMPI PUSH1 0x0 DUP1 REVERT JUMPDEST CALLDATASIZE PUSH2 0x288 JUMPI STOP JUMPDEST PUSH1 0x0 DUP1 REVERT JUMPDEST CALLVALUE DUP1 ISZERO PUSH2 0x299 JUMPI PUSH1 0x0 DUP1 REVERT JUMPDEST POP PUSH2 0x2AD PUSH2 0x2A8 CALLDATASIZE PUSH1 0x4 PUSH2 0x31EB JUMP JUMPDEST PUSH2 0x869 JUMP JUMPDEST PUSH1 0x40 MLOAD SWAP1 DUP2 MSTORE PUSH1 0x20 ADD JUMPDEST PUSH1 0x40 MLOAD DUP1 SWAP2 SUB SWAP1 RETURN JUMPDEST CALLVALUE DUP1 ISZERO PUSH2 0x2CC JUMPI PUSH1 0x0 DUP1 REVERT JUMPDEST POP PUSH2 0x2E0 PUSH2 0x2DB CALLDATASIZE PUSH1 0x4 PUSH2 0x3208 JUMP JUMPDEST PUSH2 0x96B JUMP JUMPDEST STOP JUMPDEST CALLVALUE DUP1 ISZERO PUSH2 0x2EE JUMPI PUSH1 0x0 DUP1 REVERT JUMPDEST POP PUSH2 0x2E0 PUSH2 0x2FD CALLDATASIZE PUSH1 0x4 PUSH2 0x3208 JUMP JUMPDEST PUSH2 0x979 JUMP JUMPDEST CALLVALUE DUP1 ISZERO PUSH2 0x30E JUMPI PUSH1 0x0 DUP1 REVERT JUMPDEST POP PUSH2 0x322 PUSH2 0x31D CALLDATASIZE PUSH1 0x4 PUSH2 0x3221 JUMP JUMPDEST PUSH2 0xB19 JUMP JUMPDEST PUSH1 0x40 MLOAD SWAP1 ISZERO ISZERO DUP2 MSTORE PUSH1 0x20 ADD PUSH2 0x2B7 JUMP JUMPDEST CALLVALUE DUP1 ISZERO PUSH2 0x33E JUMPI PUSH1 0x0 DUP1 REVERT JUMPDEST POP PUSH2 0x2AD PUSH2 0x34D CALLDATASIZE PUSH1 0x4 PUSH2 0x3208 JUMP JUMPDEST PUSH2 0xB65 JUMP JUMPDEST CALLVALUE DUP1 ISZERO PUSH2 0x35E JUMPI PUSH1 0x0 DUP1 REVERT JUMPDEST POP PUSH2 0x2E0 PUSH2 0x36D CALLDATASIZE PUSH1 0x4 PUSH2 0x31EB JUMP JUMPDEST PUSH2 0xB79 JUMP JUMPDEST CALLVALUE DUP1 ISZERO PUSH2 0x37E JUMPI PUSH1 0x0 DUP1 REVERT JUMPDEST POP PUSH2 0x2E0 PUSH2 0x38D CALLDATASIZE PUSH1 0x4 PUSH2 0x3299 JUMP JUMPDEST PUSH2 0xC58 JUMP JUMPDEST CALLVALUE DUP1 ISZERO PUSH2 0x39E JUMPI PUSH1 0x0 DUP1 REVERT JUMPDEST POP PUSH2 0x2E0 PUSH2 0xCE9 JUMP JUMPDEST CALLVALUE DUP1 ISZERO PUSH2 0x3B3 JUMPI PUSH1 0x0 DUP1 REVERT JUMPDEST POP PUSH2 0x2AD PUSH2 0x3C2 CALLDATASIZE PUSH1 0x4 PUSH2 0x31EB JUMP JUMPDEST PUSH2 0xCFB JUMP JUMPDEST CALLVALUE DUP1 ISZERO PUSH2 0x3D3 JUMPI PUSH1 0x0 DUP1 REVERT JUMPDEST POP PUSH2 0x2E0 PUSH2 0x3E2 CALLDATASIZE PUSH1 0x4 PUSH2 0x3208 JUMP JUMPDEST PUSH2 0xDE0 JUMP JUMPDEST PUSH2 0x2E0 PUSH2 0x3F5 CALLDATASIZE PUSH1 0x4 PUSH2 0x32F1 JUMP JUMPDEST PUSH2 0xDEE JUMP JUMPDEST CALLVALUE DUP1 ISZERO PUSH2 0x406 JUMPI PUSH1 0x0 DUP1 REVERT JUMPDEST POP PUSH2 0x2AD PUSH2 0xEBE JUMP JUMPDEST CALLVALUE DUP1 ISZERO PUSH2 0x41B JUMPI PUSH1 0x0 DUP1 REVERT JUMPDEST POP PUSH2 0x2E0 PUSH2 0x42A CALLDATASIZE PUSH1 0x4 PUSH2 0x3299 JUMP JUMPDEST PUSH2 0xF71 JUMP JUMPDEST CALLVALUE DUP1 ISZERO PUSH2 0x43B JUMPI PUSH1 0x0 DUP1 REVERT JUMPDEST POP PUSH2 0x2E0 PUSH2 0x44A CALLDATASIZE PUSH1 0x4 PUSH2 0x3208 JUMP JUMPDEST PUSH2 0xFF7 JUMP JUMPDEST CALLVALUE DUP1 ISZERO PUSH2 0x45B JUMPI PUSH1 0x0 DUP1 REVERT JUMPDEST POP PUSH2 0x464 PUSH2 0x1005 JUMP JUMPDEST PUSH1 0x40 MLOAD PUSH2 0x2B7 SWAP5 SWAP4 SWAP3 SWAP2 SWAP1 PUSH2 0x33F0 JUMP JUMPDEST CALLVALUE DUP1 ISZERO PUSH2 0x480 JUMPI PUSH1 0x0 DUP1 REVERT JUMPDEST POP PUSH1 0x33 SLOAD PUSH1 0xFF AND PUSH2 0x322 JUMP JUMPDEST CALLVALUE DUP1 ISZERO PUSH2 0x498 JUMPI PUSH1 0x0 DUP1 REVERT JUMPDEST POP PUSH2 0x2E0 PUSH2 0x4A7 CALLDATASIZE PUSH1 0x4 PUSH2 0x3208 JUMP JUMPDEST PUSH2 0x11B9 JUMP JUMPDEST CALLVALUE DUP1 ISZERO PUSH2 0x4B8 JUMPI PUSH1 0x0 DUP1 REVERT JUMPDEST POP PUSH2 0x322 PUSH2 0x4C7 CALLDATASIZE PUSH1 0x4 PUSH2 0x343B JUMP JUMPDEST PUSH2 0x1352 JUMP JUMPDEST CALLVALUE DUP1 ISZERO PUSH2 0x4D8 JUMPI PUSH1 0x0 DUP1 REVERT JUMPDEST POP PUSH2 0x322 PUSH2 0x4E7 CALLDATASIZE PUSH1 0x4 PUSH2 0x31EB JUMP JUMPDEST PUSH2 0x13DA JUMP JUMPDEST CALLVALUE DUP1 ISZERO PUSH2 0x4F8 JUMPI PUSH1 0x0 DUP1 REVERT JUMPDEST POP PUSH2 0x501 PUSH2 0x149B JUMP JUMPDEST PUSH1 0x40 MLOAD PUSH2 0x2B7 SWAP2 SWAP1 PUSH2 0x347C JUMP JUMPDEST CALLVALUE DUP1 ISZERO PUSH2 0x51A JUMPI PUSH1 0x0 DUP1 REVERT JUMPDEST POP PUSH2 0x52E PUSH2 0x529 CALLDATASIZE PUSH1 0x4 PUSH2 0x31EB JUMP JUMPDEST PUSH2 0x15DC JUMP JUMPDEST PUSH1 0x40 MLOAD PUSH2 0x2B7 SWAP2 SWAP1 PUSH2 0x34C9 JUMP JUMPDEST CALLVALUE DUP1 ISZERO PUSH2 0x547 JUMPI PUSH1 0x0 DUP1 REVERT JUMPDEST POP PUSH2 0x52E PUSH2 0x164C JUMP JUMPDEST CALLVALUE DUP1 ISZERO PUSH2 0x55C JUMPI PUSH1 0x0 DUP1 REVERT JUMPDEST POP PUSH2 0x2E0 PUSH2 0x56B CALLDATASIZE PUSH1 0x4 PUSH2 0x34DC JUMP JUMPDEST PUSH2 0x172D JUMP JUMPDEST CALLVALUE DUP1 ISZERO PUSH2 0x57C JUMPI PUSH1 0x0 DUP1 REVERT JUMPDEST POP PUSH2 0x2E0 PUSH2 0x18E6 JUMP JUMPDEST CALLVALUE DUP1 ISZERO PUSH2 0x591 JUMPI PUSH1 0x0 DUP1 REVERT JUMPDEST POP PUSH2 0x501 PUSH2 0x18F8 JUMP JUMPDEST CALLVALUE DUP1 ISZERO PUSH2 0x5A6 JUMPI PUSH1 0x0 DUP1 REVERT JUMPDEST POP PUSH2 0x101 SLOAD PUSH2 0x2AD JUMP JUMPDEST CALLVALUE DUP1 ISZERO PUSH2 0x5BC JUMPI PUSH1 0x0 DUP1 REVERT JUMPDEST POP PUSH2 0x2E0 PUSH2 0x19BF JUMP JUMPDEST CALLVALUE DUP1 ISZERO PUSH2 0x5D1 JUMPI PUSH1 0x0 DUP1 REVERT JUMPDEST POP PUSH2 0x2E0 PUSH2 0x1B3D JUMP JUMPDEST CALLVALUE DUP1 ISZERO PUSH2 0x5E6 JUMPI PUSH1 0x0 DUP1 REVERT JUMPDEST POP PUSH2 0x2E0 PUSH2 0x5F5 CALLDATASIZE PUSH1 0x4 PUSH2 0x3299 JUMP JUMPDEST PUSH2 0x1B4D JUMP JUMPDEST CALLVALUE DUP1 ISZERO PUSH2 0x606 JUMPI PUSH1 0x0 DUP1 REVERT JUMPDEST POP PUSH1 0x65 SLOAD PUSH1 0x40 MLOAD PUSH1 0x1 PUSH1 0x1 PUSH1 0xA0 SHL SUB SWAP1 SWAP2 AND DUP2 MSTORE PUSH1 0x20 ADD PUSH2 0x2B7 JUMP JUMPDEST CALLVALUE DUP1 ISZERO PUSH2 0x62E JUMPI PUSH1 0x0 DUP1 REVERT JUMPDEST POP PUSH2 0x2E0 PUSH2 0x63D CALLDATASIZE PUSH1 0x4 PUSH2 0x3531 JUMP JUMPDEST PUSH2 0x1C0B JUMP JUMPDEST CALLVALUE DUP1 ISZERO PUSH2 0x64E JUMPI PUSH1 0x0 DUP1 REVERT JUMPDEST POP PUSH2 0x2AD PUSH2 0x65D CALLDATASIZE PUSH1 0x4 PUSH2 0x31EB JUMP JUMPDEST PUSH2 0x1C2A JUMP JUMPDEST CALLVALUE DUP1 ISZERO PUSH2 0x66E JUMPI PUSH1 0x0 DUP1 REVERT JUMPDEST POP PUSH2 0x322 PUSH2 0x67D CALLDATASIZE PUSH1 0x4 PUSH2 0x355C JUMP JUMPDEST PUSH2 0x1D16 JUMP JUMPDEST CALLVALUE DUP1 ISZERO PUSH2 0x68E JUMPI PUSH1 0x0 DUP1 REVERT JUMPDEST POP PUSH2 0x322 PUSH2 0x69D CALLDATASIZE PUSH1 0x4 PUSH2 0x31EB JUMP JUMPDEST PUSH1 0x1 PUSH1 0x1 PUSH1 0xA0 SHL SUB AND PUSH1 0x0 SWAP1 DUP2 MSTORE PUSH2 0x109 PUSH1 0x20 MSTORE PUSH1 0x40 SWAP1 KECCAK256 PUSH1 0x2 ADD SLOAD PUSH1 0xFF AND SWAP1 JUMP JUMPDEST CALLVALUE DUP1 ISZERO PUSH2 0x6CB JUMPI PUSH1 0x0 DUP1 REVERT JUMPDEST POP PUSH2 0x6DF PUSH2 0x6DA CALLDATASIZE PUSH1 0x4 PUSH2 0x3208 JUMP JUMPDEST PUSH2 0x1D38 JUMP JUMPDEST PUSH1 0x40 MLOAD PUSH2 0x2B7 SWAP2 SWAP1 PUSH2 0x3579 JUMP JUMPDEST CALLVALUE DUP1 ISZERO PUSH2 0x6F8 JUMPI PUSH1 0x0 DUP1 REVERT JUMPDEST POP PUSH2 0x2AD PUSH2 0x707 CALLDATASIZE PUSH1 0x4 PUSH2 0x3208 JUMP JUMPDEST PUSH2 0x1E77 JUMP JUMPDEST PUSH2 0x2E0 PUSH2 0x71A CALLDATASIZE PUSH1 0x4 PUSH2 0x3221 JUMP JUMPDEST PUSH2 0x1E82 JUMP JUMPDEST CALLVALUE DUP1 ISZERO PUSH2 0x72B JUMPI PUSH1 0x0 DUP1 REVERT JUMPDEST POP PUSH2 0x2AD PUSH2 0x73A CALLDATASIZE PUSH1 0x4 PUSH2 0x31EB JUMP JUMPDEST PUSH2 0x202E JUMP JUMPDEST CALLVALUE DUP1 ISZERO PUSH2 0x74B JUMPI PUSH1 0x0 DUP1 REVERT JUMPDEST POP PUSH2 0x2E0 PUSH2 0x75A CALLDATASIZE PUSH1 0x4 PUSH2 0x3531 JUMP JUMPDEST PUSH2 0x20E1 JUMP JUMPDEST CALLVALUE DUP1 ISZERO PUSH2 0x76B JUMPI PUSH1 0x0 DUP1 REVERT JUMPDEST POP PUSH2 0x77F PUSH2 0x77A CALLDATASIZE PUSH1 0x4 PUSH2 0x31EB JUMP JUMPDEST PUSH2 0x2100 JUMP JUMPDEST PUSH1 0x40 MLOAD PUSH2 0x2B7 SWAP2 SWAP1 PUSH2 0x361D JUMP JUMPDEST CALLVALUE DUP1 ISZERO PUSH2 0x798 JUMPI PUSH1 0x0 DUP1 REVERT JUMPDEST POP PUSH2 0x2AD PUSH2 0x7A7 CALLDATASIZE PUSH1 0x4 PUSH2 0x3208 JUMP JUMPDEST PUSH2 0x2216 JUMP JUMPDEST CALLVALUE DUP1 ISZERO PUSH2 0x7B8 JUMPI PUSH1 0x0 DUP1 REVERT JUMPDEST POP PUSH2 0x501 PUSH2 0x227B JUMP JUMPDEST CALLVALUE DUP1 ISZERO PUSH2 0x7CD JUMPI PUSH1 0x0 DUP1 REVERT JUMPDEST POP PUSH1 0xFF SLOAD PUSH2 0x2AD JUMP JUMPDEST CALLVALUE DUP1 ISZERO PUSH2 0x7E2 JUMPI PUSH1 0x0 DUP1 REVERT JUMPDEST POP PUSH2 0x7EB PUSH2 0x237C JUMP JUMPDEST PUSH1 0x40 DUP1 MLOAD SWAP9 DUP10 MSTORE PUSH1 0x20 DUP10 ADD SWAP8 SWAP1 SWAP8 MSTORE SWAP6 DUP8 ADD SWAP5 SWAP1 SWAP5 MSTORE SWAP2 ISZERO ISZERO PUSH1 0x60 DUP7 ADD MSTORE PUSH1 0xFF AND PUSH1 0x80 DUP6 ADD MSTORE PUSH1 0xA0 DUP5 ADD MSTORE PUSH1 0xC0 DUP4 ADD MSTORE PUSH1 0xE0 DUP3 ADD MSTORE PUSH2 0x100 ADD PUSH2 0x2B7 JUMP JUMPDEST CALLVALUE DUP1 ISZERO PUSH2 0x835 JUMPI PUSH1 0x0 DUP1 REVERT JUMPDEST POP PUSH2 0x2E0 PUSH2 0x844 CALLDATASIZE PUSH1 0x4 PUSH2 0x31EB JUMP JUMPDEST PUSH2 0x243D JUMP JUMPDEST CALLVALUE DUP1 ISZERO PUSH2 0x855 JUMPI PUSH1 0x0 DUP1 REVERT JUMPDEST POP PUSH2 0x2E0 PUSH2 0x864 CALLDATASIZE PUSH1 0x4 PUSH2 0x366C JUMP JUMPDEST PUSH2 0x24B3 JUMP JUMPDEST PUSH1 0xFB SLOAD PUSH1 0x40 MLOAD PUSH4 0x23B9A449 PUSH1 0xE1 SHL DUP2 MSTORE PUSH1 0x1 PUSH1 0x1 PUSH1 0xA0 SHL SUB DUP4 DUP2 AND PUSH1 0x4 DUP4 ADD MSTORE PUSH1 0x0 SWAP3 DUP4 SWAP3 SWAP2 AND SWAP1 PUSH4 0x47734892 SWAP1 PUSH1 0x24 ADD PUSH1 0x20 PUSH1 0x40 MLOAD DUP1 DUP4 SUB DUP2 DUP7 GAS STATICCALL ISZERO DUP1 ISZERO PUSH2 0x8B7 JUMPI RETURNDATASIZE PUSH1 0x0 DUP1 RETURNDATACOPY RETURNDATASIZE PUSH1 0x0 REVERT JUMPDEST POP POP POP POP PUSH1 0x40 MLOAD RETURNDATASIZE PUSH1 0x1F NOT PUSH1 0x1F DUP3 ADD AND DUP3 ADD DUP1 PUSH1 0x40 MSTORE POP DUP2 ADD SWAP1 PUSH2 0x8DB SWAP2 SWAP1 PUSH2 0x3706 JUMP JUMPDEST SWAP1 POP PUSH2 0x964 DUP2 PUSH1 0xFC PUSH1 0x0 SWAP1 SLOAD SWAP1 PUSH2 0x100 EXP SWAP1 DIV PUSH1 0x1 PUSH1 0x1 PUSH1 0xA0 SHL SUB AND PUSH1 0x1 PUSH1 0x1 PUSH1 0xA0 SHL SUB AND PUSH4 0x5391C600 PUSH1 0x40 MLOAD DUP2 PUSH4 0xFFFFFFFF AND PUSH1 0xE0 SHL DUP2 MSTORE PUSH1 0x4 ADD PUSH1 0x20 PUSH1 0x40 MLOAD DUP1 DUP4 SUB DUP2 DUP7 GAS STATICCALL ISZERO DUP1 ISZERO PUSH2 0x934 JUMPI RETURNDATASIZE PUSH1 0x0 DUP1 RETURNDATACOPY RETURNDATASIZE PUSH1 0x0 REVERT JUMPDEST POP POP POP POP PUSH1 0x40 MLOAD RETURNDATASIZE PUSH1 0x1F NOT PUSH1 0x1F DUP3 ADD AND DUP3 ADD DUP1 PUSH1 0x40 MSTORE POP DUP2 ADD SWAP1 PUSH2 0x958 SWAP2 SWAP1 PUSH2 0x371F JUMP JUMPDEST PUSH1 0xFF AND PUSH2 0x108 SLOAD PUSH2 0x2559 JUMP JUMPDEST SWAP4 SWAP3 POP POP POP JUMP JUMPDEST PUSH2 0x973 PUSH2 0x259D JUMP JUMPDEST PUSH2 0x108 SSTORE JUMP JUMPDEST PUSH1 0x0 DUP2 DUP2 MSTORE PUSH2 0x10B PUSH1 0x20 SWAP1 DUP2 MSTORE PUSH1 0x40 DUP1 DUP4 KECCAK256 CALLER DUP1 DUP6 MSTORE PUSH2 0x109 SWAP1 SWAP4 MSTORE SWAP3 KECCAK256 PUSH1 0x2 DUP2 ADD SLOAD SWAP2 SWAP3 SWAP2 NUMBER SWAP1 PUSH1 0xFF AND ISZERO PUSH2 0x9CA JUMPI PUSH1 0x40 MLOAD PUSH3 0x461BCD PUSH1 0xE5 SHL DUP2 MSTORE PUSH1 0x4 ADD PUSH2 0x9C1 SWAP1 PUSH2 0x373C JUMP JUMPDEST PUSH1 0x40 MLOAD DUP1 SWAP2 SUB SWAP1 REVERT JUMPDEST DUP3 SLOAD PUSH1 0xFF AND ISZERO ISZERO PUSH1 0x1 EQ PUSH2 0xA18 JUMPI PUSH1 0x40 MLOAD PUSH3 0x461BCD PUSH1 0xE5 SHL DUP2 MSTORE PUSH1 0x20 PUSH1 0x4 DUP3 ADD MSTORE PUSH1 0x15 PUSH1 0x24 DUP3 ADD MSTORE PUSH21 0x5374616B696E67206973206E6F7420616374697665 PUSH1 0x58 SHL PUSH1 0x44 DUP3 ADD MSTORE PUSH1 0x64 ADD PUSH2 0x9C1 JUMP JUMPDEST DUP3 SLOAD PUSH1 0x1 PUSH1 0x1 PUSH1 0xA0 SHL SUB DUP6 DUP2 AND PUSH2 0x100 SWAP1 SWAP3 DIV AND EQ PUSH2 0xA79 JUMPI PUSH1 0x40 MLOAD PUSH3 0x461BCD PUSH1 0xE5 SHL DUP2 MSTORE PUSH1 0x20 PUSH1 0x4 DUP3 ADD MSTORE PUSH1 0x17 PUSH1 0x24 DUP3 ADD MSTORE PUSH32 0x536F72727920796F7520617265206E6F74206F776E6572000000000000000000 PUSH1 0x44 DUP3 ADD MSTORE PUSH1 0x64 ADD PUSH2 0x9C1 JUMP JUMPDEST TIMESTAMP PUSH2 0x105 SLOAD DUP5 PUSH1 0x7 ADD SLOAD PUSH2 0xA8D SWAP2 SWAP1 PUSH2 0x37A2 JUMP JUMPDEST GT PUSH2 0xAF5 JUMPI PUSH1 0x40 MLOAD PUSH3 0x461BCD PUSH1 0xE5 SHL DUP2 MSTORE PUSH1 0x20 PUSH1 0x4 DUP3 ADD MSTORE PUSH1 0x32 PUSH1 0x24 DUP3 ADD MSTORE PUSH32 0x596F7572206C6173742072657761726420636C61696D2074696D65206C696D69 PUSH1 0x44 DUP3 ADD MSTORE PUSH18 0x3A1034B9903737BA1037BB32B9103CB2BA17 PUSH1 0x71 SHL PUSH1 0x64 DUP3 ADD MSTORE PUSH1 0x84 ADD PUSH2 0x9C1 JUMP JUMPDEST PUSH1 0x0 PUSH2 0xB00 DUP7 PUSH2 0x25F7 JUMP JUMPDEST SWAP1 POP PUSH2 0xB10 DUP6 DUP8 DUP7 DUP7 DUP6 DUP8 PUSH2 0x268B JUMP JUMPDEST POP POP POP POP POP POP POP JUMP JUMPDEST PUSH1 0x0 PUSH2 0xB23 PUSH2 0x259D JUMP JUMPDEST PUSH1 0x40 MLOAD PUSH1 0x1 PUSH1 0x1 PUSH1 0xA0 SHL SUB DUP5 AND SWAP1 DUP4 ISZERO PUSH2 0x8FC MUL SWAP1 DUP5 SWAP1 PUSH1 0x0 DUP2 DUP2 DUP2 DUP6 DUP9 DUP9 CALL SWAP4 POP POP POP POP ISZERO DUP1 ISZERO PUSH2 0xB59 JUMPI RETURNDATASIZE PUSH1 0x0 DUP1 RETURNDATACOPY RETURNDATASIZE PUSH1 0x0 REVERT JUMPDEST POP PUSH1 0x1 SWAP1 POP JUMPDEST SWAP3 SWAP2 POP POP JUMP JUMPDEST PUSH1 0x0 PUSH2 0xB6F PUSH2 0x259D JUMP JUMPDEST POP PUSH2 0x103 DUP2 SWAP1 SSTORE SWAP1 JUMP JUMPDEST PUSH1 0x1 PUSH1 0x1 PUSH1 0xA0 SHL SUB PUSH32 0x0 AND ADDRESS SUB PUSH2 0xBC1 JUMPI PUSH1 0x40 MLOAD PUSH3 0x461BCD PUSH1 0xE5 SHL DUP2 MSTORE PUSH1 0x4 ADD PUSH2 0x9C1 SWAP1 PUSH2 0x37B5 JUMP JUMPDEST PUSH32 0x0 PUSH1 0x1 PUSH1 0x1 PUSH1 0xA0 SHL SUB AND PUSH2 0xC0A PUSH1 0x0 DUP1 MLOAD PUSH1 0x20 PUSH2 0x3AD0 DUP4 CODECOPY DUP2 MLOAD SWAP2 MSTORE SLOAD PUSH1 0x1 PUSH1 0x1 PUSH1 0xA0 SHL SUB AND SWAP1 JUMP JUMPDEST PUSH1 0x1 PUSH1 0x1 PUSH1 0xA0 SHL SUB AND EQ PUSH2 0xC30 JUMPI PUSH1 0x40 MLOAD PUSH3 0x461BCD PUSH1 0xE5 SHL DUP2 MSTORE PUSH1 0x4 ADD PUSH2 0x9C1 SWAP1 PUSH2 0x3801 JUMP JUMPDEST PUSH2 0xC39 DUP2 PUSH2 0x2738 JUMP JUMPDEST PUSH1 0x40 DUP1 MLOAD PUSH1 0x0 DUP1 DUP3 MSTORE PUSH1 0x20 DUP3 ADD SWAP1 SWAP3 MSTORE PUSH2 0xC55 SWAP2 DUP4 SWAP2 SWAP1 PUSH2 0x2740 JUMP JUMPDEST POP JUMP JUMPDEST PUSH2 0xC60 PUSH2 0x259D JUMP JUMPDEST PUSH1 0x0 DUP1 DUP1 MSTORE PUSH2 0x109 PUSH1 0x20 MSTORE PUSH32 0xAC682D343707AADF06C2C4C3692831D9E7BA711099EF36F9EFB8BB29BE8C410E DUP3 DUP3 JUMPDEST DUP2 DUP2 LT ISZERO PUSH2 0xCE1 JUMPI DUP6 DUP6 DUP3 DUP2 DUP2 LT PUSH2 0xCA9 JUMPI PUSH2 0xCA9 PUSH2 0x384D JUMP JUMPDEST SWAP1 POP PUSH1 0x20 MUL ADD PUSH1 0x20 DUP2 ADD SWAP1 PUSH2 0xCBE SWAP2 SWAP1 PUSH2 0x31EB JUMP JUMPDEST PUSH1 0x2 DUP5 ADD DUP1 SLOAD PUSH1 0xFF NOT AND PUSH1 0x1 OR SWAP1 SSTORE SWAP4 POP DUP1 PUSH2 0xCD9 DUP2 PUSH2 0x3863 JUMP JUMPDEST SWAP2 POP POP PUSH2 0xC8F JUMP JUMPDEST POP POP POP POP POP POP JUMP JUMPDEST PUSH2 0xCF1 PUSH2 0x259D JUMP JUMPDEST PUSH2 0xCF9 PUSH2 0x28B0 JUMP JUMPDEST JUMP JUMPDEST PUSH1 0x1 PUSH1 0x1 PUSH1 0xA0 SHL SUB DUP2 AND PUSH1 0x0 SWAP1 DUP2 MSTORE PUSH2 0x109 PUSH1 0x20 SWAP1 DUP2 MSTORE PUSH1 0x40 DUP1 DUP4 KECCAK256 PUSH1 0x1 DUP2 ADD DUP1 SLOAD DUP4 MLOAD DUP2 DUP7 MUL DUP2 ADD DUP7 ADD SWAP1 SWAP5 MSTORE DUP1 DUP5 MSTORE SWAP2 SWAP4 DUP6 SWAP4 SWAP3 SWAP1 DUP4 ADD DUP3 DUP3 DUP1 ISZERO PUSH2 0xD61 JUMPI PUSH1 0x20 MUL DUP3 ADD SWAP2 SWAP1 PUSH1 0x0 MSTORE PUSH1 0x20 PUSH1 0x0 KECCAK256 SWAP1 JUMPDEST DUP2 SLOAD DUP2 MSTORE PUSH1 0x20 ADD SWAP1 PUSH1 0x1 ADD SWAP1 DUP1 DUP4 GT PUSH2 0xD4D JUMPI JUMPDEST POP POP DUP4 MLOAD SWAP4 SWAP5 POP PUSH1 0x0 SWAP3 POP POP POP JUMPDEST DUP2 DUP2 LT ISZERO PUSH2 0xDD7 JUMPI PUSH2 0xD99 DUP4 DUP3 DUP2 MLOAD DUP2 LT PUSH2 0xD8C JUMPI PUSH2 0xD8C PUSH2 0x384D JUMP JUMPDEST PUSH1 0x20 MUL PUSH1 0x20 ADD ADD MLOAD PUSH2 0x1D38 JUMP JUMPDEST MLOAD ISZERO PUSH2 0xDC5 JUMPI PUSH2 0xDB4 DUP4 DUP3 DUP2 MLOAD DUP2 LT PUSH2 0xD8C JUMPI PUSH2 0xD8C PUSH2 0x384D JUMP JUMPDEST PUSH1 0x60 ADD MLOAD PUSH2 0xDC2 SWAP1 DUP7 PUSH2 0x37A2 JUMP JUMPDEST SWAP5 POP JUMPDEST DUP1 PUSH2 0xDCF DUP2 PUSH2 0x3863 JUMP JUMPDEST SWAP2 POP POP PUSH2 0xD6F JUMP JUMPDEST POP POP POP POP SWAP2 SWAP1 POP JUMP JUMPDEST PUSH2 0xDE8 PUSH2 0x259D JUMP JUMPDEST PUSH2 0x107 SSTORE JUMP JUMPDEST PUSH1 0x1 PUSH1 0x1 PUSH1 0xA0 SHL SUB PUSH32 0x0 AND ADDRESS SUB PUSH2 0xE36 JUMPI PUSH1 0x40 MLOAD PUSH3 0x461BCD PUSH1 0xE5 SHL DUP2 MSTORE PUSH1 0x4 ADD PUSH2 0x9C1 SWAP1 PUSH2 0x37B5 JUMP JUMPDEST PUSH32 0x0 PUSH1 0x1 PUSH1 0x1 PUSH1 0xA0 SHL SUB AND PUSH2 0xE7F PUSH1 0x0 DUP1 MLOAD PUSH1 0x20 PUSH2 0x3AD0 DUP4 CODECOPY DUP2 MLOAD SWAP2 MSTORE SLOAD PUSH1 0x1 PUSH1 0x1 PUSH1 0xA0 SHL SUB AND SWAP1 JUMP JUMPDEST PUSH1 0x1 PUSH1 0x1 PUSH1 0xA0 SHL SUB AND EQ PUSH2 0xEA5 JUMPI PUSH1 0x40 MLOAD PUSH3 0x461BCD PUSH1 0xE5 SHL DUP2 MSTORE PUSH1 0x4 ADD PUSH2 0x9C1 SWAP1 PUSH2 0x3801 JUMP JUMPDEST PUSH2 0xEAE DUP3 PUSH2 0x2738 JUMP JUMPDEST PUSH2 0xEBA DUP3 DUP3 PUSH1 0x1 PUSH2 0x2740 JUMP JUMPDEST POP POP JUMP JUMPDEST PUSH1 0x0 ADDRESS PUSH1 0x1 PUSH1 0x1 PUSH1 0xA0 SHL SUB PUSH32 0x0 AND EQ PUSH2 0xF5E JUMPI PUSH1 0x40 MLOAD PUSH3 0x461BCD PUSH1 0xE5 SHL DUP2 MSTORE PUSH1 0x20 PUSH1 0x4 DUP3 ADD MSTORE PUSH1 0x38 PUSH1 0x24 DUP3 ADD MSTORE PUSH32 0x555550535570677261646561626C653A206D757374206E6F742062652063616C PUSH1 0x44 DUP3 ADD MSTORE PUSH32 0x6C6564207468726F7567682064656C656761746563616C6C0000000000000000 PUSH1 0x64 DUP3 ADD MSTORE PUSH1 0x84 ADD PUSH2 0x9C1 JUMP JUMPDEST POP PUSH1 0x0 DUP1 MLOAD PUSH1 0x20 PUSH2 0x3AD0 DUP4 CODECOPY DUP2 MLOAD SWAP2 MSTORE SWAP1 JUMP JUMPDEST PUSH2 0xF79 PUSH2 0x259D JUMP JUMPDEST PUSH1 0x0 DUP1 DUP1 MSTORE PUSH2 0x109 PUSH1 0x20 MSTORE PUSH32 0xAC682D343707AADF06C2C4C3692831D9E7BA711099EF36F9EFB8BB29BE8C410E DUP3 DUP3 JUMPDEST DUP2 DUP2 LT ISZERO PUSH2 0xCE1 JUMPI DUP6 DUP6 DUP3 DUP2 DUP2 LT PUSH2 0xFC2 JUMPI PUSH2 0xFC2 PUSH2 0x384D JUMP JUMPDEST SWAP1 POP PUSH1 0x20 MUL ADD PUSH1 0x20 DUP2 ADD SWAP1 PUSH2 0xFD7 SWAP2 SWAP1 PUSH2 0x31EB JUMP JUMPDEST PUSH1 0x2 DUP5 ADD DUP1 SLOAD PUSH1 0xFF NOT AND SWAP1 SSTORE SWAP4 POP DUP1 PUSH2 0xFEF DUP2 PUSH2 0x3863 JUMP JUMPDEST SWAP2 POP POP PUSH2 0xFA8 JUMP JUMPDEST PUSH2 0xFFF PUSH2 0x259D JUMP JUMPDEST PUSH2 0x105 SSTORE JUMP JUMPDEST PUSH2 0x106 SLOAD PUSH1 0x60 SWAP1 DUP2 SWAP1 DUP2 SWAP1 PUSH1 0x0 SWAP1 DUP2 SWAP1 PUSH1 0xFF AND PUSH8 0xFFFFFFFFFFFFFFFF DUP2 GT ISZERO PUSH2 0x1030 JUMPI PUSH2 0x1030 PUSH2 0x32DB JUMP JUMPDEST PUSH1 0x40 MLOAD SWAP1 DUP1 DUP3 MSTORE DUP1 PUSH1 0x20 MUL PUSH1 0x20 ADD DUP3 ADD PUSH1 0x40 MSTORE DUP1 ISZERO PUSH2 0x1059 JUMPI DUP2 PUSH1 0x20 ADD PUSH1 0x20 DUP3 MUL DUP1 CALLDATASIZE DUP4 CALLDATACOPY ADD SWAP1 POP JUMPDEST POP PUSH2 0x106 SLOAD SWAP1 SWAP2 POP PUSH1 0x0 SWAP1 PUSH1 0xFF AND PUSH8 0xFFFFFFFFFFFFFFFF DUP2 GT ISZERO PUSH2 0x107F JUMPI PUSH2 0x107F PUSH2 0x32DB JUMP JUMPDEST PUSH1 0x40 MLOAD SWAP1 DUP1 DUP3 MSTORE DUP1 PUSH1 0x20 MUL PUSH1 0x20 ADD DUP3 ADD PUSH1 0x40 MSTORE DUP1 ISZERO PUSH2 0x10A8 JUMPI DUP2 PUSH1 0x20 ADD PUSH1 0x20 DUP3 MUL DUP1 CALLDATASIZE DUP4 CALLDATACOPY ADD SWAP1 POP JUMPDEST POP PUSH2 0x106 SLOAD SWAP1 SWAP2 POP PUSH1 0x0 SWAP1 PUSH1 0xFF AND PUSH8 0xFFFFFFFFFFFFFFFF DUP2 GT ISZERO PUSH2 0x10CE JUMPI PUSH2 0x10CE PUSH2 0x32DB JUMP JUMPDEST PUSH1 0x40 MLOAD SWAP1 DUP1 DUP3 MSTORE DUP1 PUSH1 0x20 MUL PUSH1 0x20 ADD DUP3 ADD PUSH1 0x40 MSTORE DUP1 ISZERO PUSH2 0x10F7 JUMPI DUP2 PUSH1 0x20 ADD PUSH1 0x20 DUP3 MUL DUP1 CALLDATASIZE DUP4 CALLDATACOPY ADD SWAP1 POP JUMPDEST POP SWAP1 POP PUSH1 0x0 JUMPDEST PUSH2 0x106 SLOAD PUSH1 0xFF AND DUP2 LT ISZERO PUSH2 0x11AB JUMPI PUSH2 0x1114 DUP2 PUSH2 0x2902 JUMP JUMPDEST PUSH1 0x0 ADD MLOAD DUP5 DUP3 DUP2 MLOAD DUP2 LT PUSH2 0x112A JUMPI PUSH2 0x112A PUSH2 0x384D JUMP JUMPDEST PUSH1 0x20 MUL PUSH1 0x20 ADD ADD DUP2 DUP2 MSTORE POP POP PUSH2 0x113F DUP2 PUSH2 0x2902 JUMP JUMPDEST PUSH1 0x20 ADD MLOAD DUP4 DUP3 DUP2 MLOAD DUP2 LT PUSH2 0x1155 JUMPI PUSH2 0x1155 PUSH2 0x384D JUMP JUMPDEST PUSH1 0x20 MUL PUSH1 0x20 ADD ADD DUP2 DUP2 MSTORE POP POP PUSH2 0x116A DUP2 PUSH2 0x2902 JUMP JUMPDEST PUSH1 0x40 ADD MLOAD DUP3 DUP3 DUP2 MLOAD DUP2 LT PUSH2 0x1180 JUMPI PUSH2 0x1180 PUSH2 0x384D JUMP JUMPDEST PUSH1 0x20 SWAP1 DUP2 MUL SWAP2 SWAP1 SWAP2 ADD ADD MSTORE DUP5 PUSH2 0x1195 DUP2 PUSH2 0x3863 JUMP JUMPDEST SWAP6 POP POP DUP1 DUP1 PUSH2 0x11A3 SWAP1 PUSH2 0x3863 JUMP JUMPDEST SWAP2 POP POP PUSH2 0x10FD JUMP JUMPDEST POP SWAP2 SWAP7 SWAP1 SWAP6 POP SWAP1 SWAP4 POP SWAP1 SWAP2 POP JUMP JUMPDEST CALLER PUSH1 0x0 DUP2 DUP2 MSTORE PUSH2 0x109 PUSH1 0x20 SWAP1 DUP2 MSTORE PUSH1 0x40 DUP1 DUP4 KECCAK256 DUP6 DUP5 MSTORE PUSH2 0x10B SWAP1 SWAP3 MSTORE SWAP1 SWAP2 KECCAK256 PUSH1 0x2 DUP3 ADD SLOAD NUMBER SWAP3 TIMESTAMP SWAP3 SWAP1 SWAP2 PUSH1 0xFF AND ISZERO PUSH2 0x1203 JUMPI PUSH1 0x40 MLOAD PUSH3 0x461BCD PUSH1 0xE5 SHL DUP2 MSTORE PUSH1 0x4 ADD PUSH2 0x9C1 SWAP1 PUSH2 0x373C JUMP JUMPDEST DUP1 SLOAD PUSH1 0xFF AND PUSH2 0x124C JUMPI PUSH1 0x40 MLOAD PUSH3 0x461BCD PUSH1 0xE5 SHL DUP2 MSTORE PUSH1 0x20 PUSH1 0x4 DUP3 ADD MSTORE PUSH1 0x15 PUSH1 0x24 DUP3 ADD MSTORE PUSH21 0x5374616B696E67206973206E6F7420616374697665 PUSH1 0x58 SHL PUSH1 0x44 DUP3 ADD MSTORE PUSH1 0x64 ADD PUSH2 0x9C1 JUMP JUMPDEST DUP1 SLOAD PUSH1 0x1 PUSH1 0x1 PUSH1 0xA0 SHL SUB DUP7 DUP2 AND PUSH2 0x100 SWAP1 SWAP3 DIV AND EQ PUSH2 0x12BD JUMPI PUSH1 0x40 MLOAD PUSH3 0x461BCD PUSH1 0xE5 SHL DUP2 MSTORE PUSH1 0x20 PUSH1 0x4 DUP3 ADD MSTORE PUSH1 0x27 PUSH1 0x24 DUP3 ADD MSTORE PUSH32 0x536F72727920796F7520617265206E6F74206F776E6572206F66207468697320 PUSH1 0x44 DUP3 ADD MSTORE PUSH7 0x7374616B696E67 PUSH1 0xC8 SHL PUSH1 0x64 DUP3 ADD MSTORE PUSH1 0x84 ADD PUSH2 0x9C1 JUMP JUMPDEST DUP3 DUP2 PUSH1 0x5 ADD SLOAD DUP3 PUSH1 0x4 ADD SLOAD PUSH2 0x12D2 SWAP2 SWAP1 PUSH2 0x37A2 JUMP JUMPDEST GT PUSH2 0x131F JUMPI PUSH1 0x40 MLOAD PUSH3 0x461BCD PUSH1 0xE5 SHL DUP2 MSTORE PUSH1 0x20 PUSH1 0x4 DUP3 ADD MSTORE PUSH1 0x1B PUSH1 0x24 DUP3 ADD MSTORE PUSH32 0x596F75207374616B696E67206973206E6F74206F766572207965740000000000 PUSH1 0x44 DUP3 ADD MSTORE PUSH1 0x64 ADD PUSH2 0x9C1 JUMP JUMPDEST PUSH1 0x0 PUSH2 0x132A DUP8 PUSH2 0x25F7 JUMP JUMPDEST SWAP1 POP PUSH2 0x133A DUP7 DUP9 DUP5 DUP7 DUP6 DUP11 PUSH2 0x268B JUMP JUMPDEST POP PUSH2 0x1348 DUP7 DUP9 DUP5 DUP7 DUP10 PUSH2 0x2960 JUMP JUMPDEST POP POP POP POP POP POP POP POP JUMP JUMPDEST PUSH1 0x0 PUSH2 0x135C PUSH2 0x259D JUMP JUMPDEST PUSH1 0x40 MLOAD PUSH4 0xA9059CBB PUSH1 0xE0 SHL DUP2 MSTORE PUSH1 0x1 PUSH1 0x1 PUSH1 0xA0 SHL SUB DUP5 DUP2 AND PUSH1 0x4 DUP4 ADD MSTORE PUSH1 0x24 DUP3 ADD DUP5 SWAP1 MSTORE DUP6 AND SWAP1 PUSH4 0xA9059CBB SWAP1 PUSH1 0x44 ADD PUSH1 0x20 PUSH1 0x40 MLOAD DUP1 DUP4 SUB DUP2 PUSH1 0x0 DUP8 GAS CALL ISZERO DUP1 ISZERO PUSH2 0x13AB JUMPI RETURNDATASIZE PUSH1 0x0 DUP1 RETURNDATACOPY RETURNDATASIZE PUSH1 0x0 REVERT JUMPDEST POP POP POP POP PUSH1 0x40 MLOAD RETURNDATASIZE PUSH1 0x1F NOT PUSH1 0x1F DUP3 ADD AND DUP3 ADD DUP1 PUSH1 0x40 MSTORE POP DUP2 ADD SWAP1 PUSH2 0x13CF SWAP2 SWAP1 PUSH2 0x387C JUMP JUMPDEST POP PUSH1 0x1 SWAP5 SWAP4 POP POP POP POP JUMP JUMPDEST PUSH1 0x1 PUSH1 0x1 PUSH1 0xA0 SHL SUB DUP2 AND PUSH1 0x0 SWAP1 DUP2 MSTORE PUSH2 0x109 PUSH1 0x20 SWAP1 DUP2 MSTORE PUSH1 0x40 DUP1 DUP4 KECCAK256 PUSH1 0x1 DUP2 ADD DUP1 SLOAD DUP4 MLOAD DUP2 DUP7 MUL DUP2 ADD DUP7 ADD SWAP1 SWAP5 MSTORE DUP1 DUP5 MSTORE SWAP2 SWAP4 DUP6 SWAP4 SWAP3 SWAP1 DUP4 ADD DUP3 DUP3 DUP1 ISZERO PUSH2 0x1440 JUMPI PUSH1 0x20 MUL DUP3 ADD SWAP2 SWAP1 PUSH1 0x0 MSTORE PUSH1 0x20 PUSH1 0x0 KECCAK256 SWAP1 JUMPDEST DUP2 SLOAD DUP2 MSTORE PUSH1 0x20 ADD SWAP1 PUSH1 0x1 ADD SWAP1 DUP1 DUP4 GT PUSH2 0x142C JUMPI JUMPDEST POP POP DUP4 MLOAD SWAP4 SWAP5 POP PUSH1 0x0 SWAP3 POP POP POP JUMPDEST DUP2 DUP2 LT ISZERO PUSH2 0x148F JUMPI PUSH2 0x146B DUP4 DUP3 DUP2 MLOAD DUP2 LT PUSH2 0xD8C JUMPI PUSH2 0xD8C PUSH2 0x384D JUMP JUMPDEST MLOAD ISZERO PUSH2 0x147D JUMPI POP PUSH1 0x1 SWAP6 SWAP5 POP POP POP POP POP JUMP JUMPDEST DUP1 PUSH2 0x1487 DUP2 PUSH2 0x3863 JUMP JUMPDEST SWAP2 POP POP PUSH2 0x144E JUMP JUMPDEST POP PUSH1 0x0 SWAP6 SWAP5 POP POP POP POP POP JUMP JUMPDEST PUSH1 0xFD SLOAD PUSH32 0x8684156705E0CB91FFE15D87BA1902D313D1419968887339E417608630E96334 SLOAD PUSH1 0x1 PUSH1 0x1 PUSH1 0xA0 SHL SUB AND PUSH1 0x0 DUP2 DUP2 MSTORE PUSH2 0x109 PUSH1 0x20 MSTORE PUSH1 0x40 DUP2 KECCAK256 PUSH1 0x60 SWAP4 SWAP3 SWAP1 DUP3 PUSH2 0x3E8 JUMPDEST DUP6 DUP2 LT ISZERO PUSH2 0x151C JUMPI PUSH1 0x2 DUP4 ADD SLOAD SWAP1 SWAP5 POP DUP5 SWAP1 PUSH1 0xFF AND ISZERO PUSH2 0x150A JUMPI DUP2 PUSH2 0x1506 DUP2 PUSH2 0x3863 JUMP JUMPDEST SWAP3 POP POP JUMPDEST DUP1 PUSH2 0x1514 DUP2 PUSH2 0x3863 JUMP JUMPDEST SWAP2 POP POP PUSH2 0x14E2 JUMP JUMPDEST POP PUSH1 0x0 DUP2 PUSH8 0xFFFFFFFFFFFFFFFF DUP2 GT ISZERO PUSH2 0x1538 JUMPI PUSH2 0x1538 PUSH2 0x32DB JUMP JUMPDEST PUSH1 0x40 MLOAD SWAP1 DUP1 DUP3 MSTORE DUP1 PUSH1 0x20 MUL PUSH1 0x20 ADD DUP3 ADD PUSH1 0x40 MSTORE DUP1 ISZERO PUSH2 0x1561 JUMPI DUP2 PUSH1 0x20 ADD PUSH1 0x20 DUP3 MUL DUP1 CALLDATASIZE DUP4 CALLDATACOPY ADD SWAP1 POP JUMPDEST POP PUSH1 0x0 SWAP3 POP SWAP1 POP PUSH2 0x3E8 JUMPDEST DUP7 DUP2 LT ISZERO PUSH2 0x15D1 JUMPI PUSH1 0x2 DUP5 ADD SLOAD SWAP1 SWAP6 POP DUP6 SWAP1 PUSH1 0xFF AND ISZERO PUSH2 0x15BF JUMPI DUP5 DUP3 DUP5 DUP2 MLOAD DUP2 LT PUSH2 0x1599 JUMPI PUSH2 0x1599 PUSH2 0x384D JUMP JUMPDEST PUSH1 0x1 PUSH1 0x1 PUSH1 0xA0 SHL SUB SWAP1 SWAP3 AND PUSH1 0x20 SWAP3 DUP4 MUL SWAP2 SWAP1 SWAP2 ADD SWAP1 SWAP2 ADD MSTORE DUP3 PUSH2 0x15BB DUP2 PUSH2 0x3863 JUMP JUMPDEST SWAP4 POP POP JUMPDEST DUP1 PUSH2 0x15C9 DUP2 PUSH2 0x3863 JUMP JUMPDEST SWAP2 POP POP PUSH2 0x156C JUMP JUMPDEST POP SWAP7 SWAP6 POP POP POP POP POP POP JUMP JUMPDEST PUSH1 0x1 PUSH1 0x1 PUSH1 0xA0 SHL SUB DUP2 AND PUSH1 0x0 SWAP1 DUP2 MSTORE PUSH2 0x109 PUSH1 0x20 SWAP1 DUP2 MSTORE PUSH1 0x40 SWAP2 DUP3 SWAP1 KECCAK256 PUSH1 0x1 ADD DUP1 SLOAD DUP4 MLOAD DUP2 DUP5 MUL DUP2 ADD DUP5 ADD SWAP1 SWAP5 MSTORE DUP1 DUP5 MSTORE PUSH1 0x60 SWAP4 SWAP3 DUP4 ADD DUP3 DUP3 DUP1 ISZERO PUSH2 0x1640 JUMPI PUSH1 0x20 MUL DUP3 ADD SWAP2 SWAP1 PUSH1 0x0 MSTORE PUSH1 0x20 PUSH1 0x0 KECCAK256 SWAP1 JUMPDEST DUP2 SLOAD DUP2 MSTORE PUSH1 0x20 ADD SWAP1 PUSH1 0x1 ADD SWAP1 DUP1 DUP4 GT PUSH2 0x162C JUMPI JUMPDEST POP POP POP POP POP SWAP1 POP SWAP2 SWAP1 POP JUMP JUMPDEST PUSH1 0xFE SLOAD PUSH1 0x0 DUP1 DUP1 MSTORE PUSH2 0x10B PUSH1 0x20 MSTORE PUSH1 0x60 SWAP2 SWAP1 PUSH32 0x53A497187F043E06D3C7BCDAEC804489D8611080D89254A48D3F6B783C2C9EC DUP2 DUP4 PUSH8 0xFFFFFFFFFFFFFFFF DUP2 GT ISZERO PUSH2 0x1699 JUMPI PUSH2 0x1699 PUSH2 0x32DB JUMP JUMPDEST PUSH1 0x40 MLOAD SWAP1 DUP1 DUP3 MSTORE DUP1 PUSH1 0x20 MUL PUSH1 0x20 ADD DUP3 ADD PUSH1 0x40 MSTORE DUP1 ISZERO PUSH2 0x16C2 JUMPI DUP2 PUSH1 0x20 ADD PUSH1 0x20 DUP3 MUL DUP1 CALLDATASIZE DUP4 CALLDATACOPY ADD SWAP1 POP JUMPDEST POP SWAP1 POP PUSH1 0x0 PUSH2 0x3E8 JUMPDEST PUSH1 0xFE SLOAD DUP2 LT ISZERO PUSH2 0x1722 JUMPI DUP4 SLOAD SWAP1 SWAP5 POP DUP5 SWAP1 PUSH1 0xFF AND ISZERO PUSH2 0x1710 JUMPI DUP5 DUP4 DUP4 DUP2 MLOAD DUP2 LT PUSH2 0x16F7 JUMPI PUSH2 0x16F7 PUSH2 0x384D JUMP JUMPDEST PUSH1 0x20 SWAP1 DUP2 MUL SWAP2 SWAP1 SWAP2 ADD ADD MSTORE DUP2 PUSH2 0x170C DUP2 PUSH2 0x3863 JUMP JUMPDEST SWAP3 POP POP JUMPDEST DUP1 PUSH2 0x171A DUP2 PUSH2 0x3863 JUMP JUMPDEST SWAP2 POP POP PUSH2 0x16CB JUMP JUMPDEST POP SWAP1 SWAP6 SWAP5 POP POP POP POP POP JUMP JUMPDEST PUSH2 0x1735 PUSH2 0x259D JUMP JUMPDEST PUSH2 0x173D PUSH2 0x29FD JUMP JUMPDEST CALLER PUSH1 0x0 PUSH2 0x1749 DUP5 PUSH2 0x2A43 JUMP JUMPDEST SWAP1 POP PUSH1 0x0 PUSH1 0xFB PUSH1 0x0 SWAP1 SLOAD SWAP1 PUSH2 0x100 EXP SWAP1 DIV PUSH1 0x1 PUSH1 0x1 PUSH1 0xA0 SHL SUB AND PUSH1 0x1 PUSH1 0x1 PUSH1 0xA0 SHL SUB AND PUSH4 0x23442C60 PUSH1 0x40 MLOAD DUP2 PUSH4 0xFFFFFFFF AND PUSH1 0xE0 SHL DUP2 MSTORE PUSH1 0x4 ADD PUSH1 0x20 PUSH1 0x40 MLOAD DUP1 DUP4 SUB DUP2 DUP7 GAS STATICCALL ISZERO DUP1 ISZERO PUSH2 0x17A0 JUMPI RETURNDATASIZE PUSH1 0x0 DUP1 RETURNDATACOPY RETURNDATASIZE PUSH1 0x0 REVERT JUMPDEST POP POP POP POP PUSH1 0x40 MLOAD RETURNDATASIZE PUSH1 0x1F NOT PUSH1 0x1F DUP3 ADD AND DUP3 ADD DUP1 PUSH1 0x40 MSTORE POP DUP2 ADD SWAP1 PUSH2 0x17C4 SWAP2 SWAP1 PUSH2 0x3899 JUMP JUMPDEST SWAP1 POP PUSH2 0x103 SLOAD DUP3 LT ISZERO PUSH2 0x182D JUMPI PUSH1 0x40 MLOAD PUSH3 0x461BCD PUSH1 0xE5 SHL DUP2 MSTORE PUSH1 0x20 PUSH1 0x4 DUP3 ADD MSTORE PUSH1 0x2B PUSH1 0x24 DUP3 ADD MSTORE PUSH32 0x5374616B696E672076616C75652073686F756C64206265203E3D206D696E5374 PUSH1 0x44 DUP3 ADD MSTORE PUSH11 0x30B5B4B733AB30B63AB297 PUSH1 0xA9 SHL PUSH1 0x64 DUP3 ADD MSTORE PUSH1 0x84 ADD PUSH2 0x9C1 JUMP JUMPDEST PUSH1 0x0 DUP5 DUP2 MSTORE PUSH2 0x10C PUSH1 0x20 MSTORE PUSH1 0x40 SWAP1 KECCAK256 PUSH1 0x1 DUP2 ADD SLOAD PUSH1 0x2 DUP3 ADD SLOAD PUSH2 0x1854 SWAP2 DUP11 SWAP2 DUP7 SWAP2 SWAP1 PUSH2 0x2ADA JUMP JUMPDEST PUSH2 0x104 SLOAD PUSH1 0xFF AND ISZERO PUSH2 0x1348 JUMPI PUSH1 0x40 MLOAD PUSH4 0x1EB714B1 PUSH1 0xE3 SHL DUP2 MSTORE PUSH1 0x4 DUP2 ADD DUP8 SWAP1 MSTORE PUSH1 0x1 PUSH1 0x1 PUSH1 0xA0 SHL SUB DUP6 DUP2 AND PUSH1 0x24 DUP4 ADD MSTORE DUP9 DUP2 AND PUSH1 0x44 DUP4 ADD MSTORE DUP4 AND SWAP1 PUSH4 0xF5B8A588 SWAP1 PUSH1 0x64 ADD PUSH1 0x20 PUSH1 0x40 MLOAD DUP1 DUP4 SUB DUP2 PUSH1 0x0 DUP8 GAS CALL ISZERO DUP1 ISZERO PUSH2 0x18B7 JUMPI RETURNDATASIZE PUSH1 0x0 DUP1 RETURNDATACOPY RETURNDATASIZE PUSH1 0x0 REVERT JUMPDEST POP POP POP POP PUSH1 0x40 MLOAD RETURNDATASIZE PUSH1 0x1F NOT PUSH1 0x1F DUP3 ADD AND DUP3 ADD DUP1 PUSH1 0x40 MSTORE POP DUP2 ADD SWAP1 PUSH2 0x18DB SWAP2 SWAP1 PUSH2 0x387C JUMP JUMPDEST POP POP POP POP POP POP POP POP POP JUMP JUMPDEST PUSH2 0x18EE PUSH2 0x259D JUMP JUMPDEST PUSH2 0xCF9 PUSH1 0x0 PUSH2 0x2C58 JUMP JUMPDEST PUSH1 0xFD SLOAD PUSH1 0x60 SWAP1 PUSH1 0x0 DUP2 PUSH8 0xFFFFFFFFFFFFFFFF DUP2 GT ISZERO PUSH2 0x1919 JUMPI PUSH2 0x1919 PUSH2 0x32DB JUMP JUMPDEST PUSH1 0x40 MLOAD SWAP1 DUP1 DUP3 MSTORE DUP1 PUSH1 0x20 MUL PUSH1 0x20 ADD DUP3 ADD PUSH1 0x40 MSTORE DUP1 ISZERO PUSH2 0x1942 JUMPI DUP2 PUSH1 0x20 ADD PUSH1 0x20 DUP3 MUL DUP1 CALLDATASIZE DUP4 CALLDATACOPY ADD SWAP1 POP JUMPDEST POP SWAP1 POP PUSH1 0x0 PUSH2 0x3E8 JUMPDEST DUP4 DUP2 LT ISZERO PUSH2 0x19B6 JUMPI PUSH1 0x0 DUP2 DUP2 MSTORE PUSH2 0x10A PUSH1 0x20 MSTORE PUSH1 0x40 SWAP1 KECCAK256 SLOAD PUSH1 0x1 PUSH1 0x1 PUSH1 0xA0 SHL SUB AND DUP4 DUP4 DUP2 MLOAD DUP2 LT PUSH2 0x197E JUMPI PUSH2 0x197E PUSH2 0x384D JUMP JUMPDEST PUSH1 0x1 PUSH1 0x1 PUSH1 0xA0 SHL SUB SWAP1 SWAP3 AND PUSH1 0x20 SWAP3 DUP4 MUL SWAP2 SWAP1 SWAP2 ADD SWAP1 SWAP2 ADD MSTORE DUP2 PUSH2 0x19A0 DUP2 PUSH2 0x3863 JUMP JUMPDEST SWAP3 POP POP DUP1 DUP1 PUSH2 0x19AE SWAP1 PUSH2 0x3863 JUMP JUMPDEST SWAP2 POP POP PUSH2 0x194B JUMP JUMPDEST POP SWAP1 SWAP4 SWAP3 POP POP POP JUMP JUMPDEST PUSH1 0x0 SLOAD PUSH2 0x100 SWAP1 DIV PUSH1 0xFF AND ISZERO DUP1 DUP1 ISZERO PUSH2 0x19DF JUMPI POP PUSH1 0x0 SLOAD PUSH1 0x1 PUSH1 0xFF SWAP1 SWAP2 AND LT JUMPDEST DUP1 PUSH2 0x19F9 JUMPI POP ADDRESS EXTCODESIZE ISZERO DUP1 ISZERO PUSH2 0x19F9 JUMPI POP PUSH1 0x0 SLOAD PUSH1 0xFF AND PUSH1 0x1 EQ JUMPDEST PUSH2 0x1A5C JUMPI PUSH1 0x40 MLOAD PUSH3 0x461BCD PUSH1 0xE5 SHL DUP2 MSTORE PUSH1 0x20 PUSH1 0x4 DUP3 ADD MSTORE PUSH1 0x2E PUSH1 0x24 DUP3 ADD MSTORE PUSH32 0x496E697469616C697A61626C653A20636F6E747261637420697320616C726561 PUSH1 0x44 DUP3 ADD MSTORE PUSH14 0x191E481A5B9A5D1A585B1A5E9959 PUSH1 0x92 SHL PUSH1 0x64 DUP3 ADD MSTORE PUSH1 0x84 ADD PUSH2 0x9C1 JUMP JUMPDEST PUSH1 0x0 DUP1 SLOAD PUSH1 0xFF NOT AND PUSH1 0x1 OR SWAP1 SSTORE DUP1 ISZERO PUSH2 0x1A7F JUMPI PUSH1 0x0 DUP1 SLOAD PUSH2 0xFF00 NOT AND PUSH2 0x100 OR SWAP1 SSTORE JUMPDEST PUSH8 0x8AC7230489E80000 PUSH2 0x103 DUP2 SWAP1 SSTORE PUSH2 0x104 DUP1 SLOAD PUSH1 0xFF NOT SWAP1 DUP2 AND PUSH1 0x1 OR SWAP1 SWAP2 SSTORE PUSH2 0x102 DUP1 SLOAD PUSH2 0xFFFF NOT AND PUSH2 0x3E8 SWAP1 DUP2 OR SWAP1 SWAP2 SSTORE PUSH3 0x15180 PUSH2 0x105 SSTORE PUSH2 0x106 DUP1 SLOAD SWAP1 SWAP3 AND PUSH1 0x3 OR SWAP1 SWAP2 SSTORE PUSH2 0x107 SWAP2 SWAP1 SWAP2 SSTORE PUSH1 0xA PUSH2 0x108 SSTORE PUSH1 0xFD DUP2 SWAP1 SSTORE PUSH1 0xFE SSTORE PUSH2 0x1AE5 PUSH2 0x2CAA JUMP JUMPDEST PUSH2 0x1AED PUSH2 0x2CD9 JUMP JUMPDEST PUSH2 0x1AF5 PUSH2 0x2D08 JUMP JUMPDEST DUP1 ISZERO PUSH2 0xC55 JUMPI PUSH1 0x0 DUP1 SLOAD PUSH2 0xFF00 NOT AND SWAP1 SSTORE PUSH1 0x40 MLOAD PUSH1 0x1 DUP2 MSTORE PUSH32 0x7F26B83FF96E1F2B6A682F133852F6798A09C465DA95921460CEFB3847402498 SWAP1 PUSH1 0x20 ADD PUSH1 0x40 MLOAD DUP1 SWAP2 SUB SWAP1 LOG1 POP JUMP JUMPDEST PUSH2 0x1B45 PUSH2 0x259D JUMP JUMPDEST PUSH2 0xCF9 PUSH2 0x2D2F JUMP JUMPDEST PUSH2 0x1B55 PUSH2 0x259D JUMP JUMPDEST PUSH1 0x0 DUP1 DUP1 MSTORE PUSH2 0x109 PUSH1 0x20 MSTORE DUP1 DUP1 PUSH32 0x53A497187F043E06D3C7BCDAEC804489D8611080D89254A48D3F6B783C2C9EC PUSH32 0xAC682D343707AADF06C2C4C3692831D9E7BA711099EF36F9EFB8BB29BE8C410E NUMBER DUP4 JUMPDEST DUP8 DUP2 LT ISZERO PUSH2 0x18DB JUMPI DUP9 DUP9 DUP3 DUP2 DUP2 LT PUSH2 0x1BC1 JUMPI PUSH2 0x1BC1 PUSH2 0x384D JUMP JUMPDEST DUP7 SLOAD PUSH2 0x100 SWAP1 DIV PUSH1 0x1 PUSH1 0x1 PUSH1 0xA0 SHL SUB AND SWAP10 POP PUSH1 0x20 MUL SWAP2 SWAP1 SWAP2 ADD CALLDATALOAD SWAP7 POP PUSH2 0x1BE8 SWAP1 POP DUP7 PUSH2 0x25F7 JUMP JUMPDEST SWAP5 POP PUSH2 0x1BF8 DUP8 DUP8 DUP7 DUP7 DUP10 DUP8 PUSH2 0x268B JUMP JUMPDEST POP DUP1 PUSH2 0x1C03 DUP2 PUSH2 0x3863 JUMP JUMPDEST SWAP2 POP POP PUSH2 0x1BA7 JUMP JUMPDEST PUSH2 0x1C13 PUSH2 0x259D JUMP JUMPDEST PUSH2 0x106 DUP1 SLOAD PUSH1 0xFF NOT AND PUSH1 0xFF SWAP3 SWAP1 SWAP3 AND SWAP2 SWAP1 SWAP2 OR SWAP1 SSTORE JUMP JUMPDEST PUSH1 0x1 PUSH1 0x1 PUSH1 0xA0 SHL SUB DUP2 AND PUSH1 0x0 SWAP1 DUP2 MSTORE PUSH2 0x109 PUSH1 0x20 SWAP1 DUP2 MSTORE PUSH1 0x40 DUP1 DUP4 KECCAK256 PUSH1 0x1 ADD DUP1 SLOAD DUP3 MLOAD DUP2 DUP6 MUL DUP2 ADD DUP6 ADD SWAP1 SWAP4 MSTORE DUP1 DUP4 MSTORE DUP5 SWAP4 DUP4 ADD DUP3 DUP3 DUP1 ISZERO PUSH2 0x1C8B JUMPI PUSH1 0x20 MUL DUP3 ADD SWAP2 SWAP1 PUSH1 0x0 MSTORE PUSH1 0x20 PUSH1 0x0 KECCAK256 SWAP1 JUMPDEST DUP2 SLOAD DUP2 MSTORE PUSH1 0x20 ADD SWAP1 PUSH1 0x1 ADD SWAP1 DUP1 DUP4 GT PUSH2 0x1C77 JUMPI JUMPDEST POP POP POP POP POP SWAP1 POP PUSH1 0x0 DUP2 MLOAD SWAP1 POP PUSH1 0x0 DUP1 JUMPDEST DUP3 DUP2 PUSH1 0xFF AND LT ISZERO PUSH2 0x1D0D JUMPI PUSH2 0x1CBF DUP5 DUP3 PUSH1 0xFF AND DUP2 MLOAD DUP2 LT PUSH2 0xD8C JUMPI PUSH2 0xD8C PUSH2 0x384D JUMP JUMPDEST MLOAD ISZERO ISZERO PUSH1 0x1 SUB PUSH2 0x1CFB JUMPI PUSH2 0x1CEE DUP5 DUP3 PUSH1 0xFF AND DUP2 MLOAD DUP2 LT PUSH2 0x1CE1 JUMPI PUSH2 0x1CE1 PUSH2 0x384D JUMP JUMPDEST PUSH1 0x20 MUL PUSH1 0x20 ADD ADD MLOAD PUSH2 0x25F7 JUMP JUMPDEST PUSH2 0x1CF8 SWAP1 DUP4 PUSH2 0x37A2 JUMP JUMPDEST SWAP2 POP JUMPDEST DUP1 PUSH2 0x1D05 DUP2 PUSH2 0x38B6 JUMP JUMPDEST SWAP2 POP POP PUSH2 0x1C9C JUMP JUMPDEST POP SWAP5 SWAP4 POP POP POP POP JUMP JUMPDEST PUSH1 0x0 PUSH2 0x1D20 PUSH2 0x259D JUMP JUMPDEST POP PUSH2 0x104 DUP1 SLOAD PUSH1 0xFF NOT AND SWAP2 ISZERO ISZERO SWAP2 DUP3 OR SWAP1 SSTORE PUSH1 0xFF AND SWAP1 JUMP JUMPDEST PUSH2 0x1D99 PUSH1 0x40 MLOAD DUP1 PUSH2 0x140 ADD PUSH1 0x40 MSTORE DUP1 PUSH1 0x0 ISZERO ISZERO DUP2 MSTORE PUSH1 0x20 ADD PUSH1 0x0 PUSH1 0x1 PUSH1 0x1 PUSH1 0xA0 SHL SUB AND DUP2 MSTORE PUSH1 0x20 ADD PUSH1 0x0 DUP2 MSTORE PUSH1 0x20 ADD PUSH1 0x0 DUP2 MSTORE PUSH1 0x20 ADD PUSH1 0x0 DUP2 MSTORE PUSH1 0x20 ADD PUSH1 0x0 DUP2 MSTORE PUSH1 0x20 ADD PUSH1 0x0 DUP2 MSTORE PUSH1 0x20 ADD PUSH1 0x0 DUP2 MSTORE PUSH1 0x20 ADD PUSH1 0x0 DUP2 MSTORE PUSH1 0x20 ADD PUSH1 0x60 DUP2 MSTORE POP SWAP1 JUMP JUMPDEST PUSH1 0x0 DUP3 DUP2 MSTORE PUSH2 0x10B PUSH1 0x20 SWAP1 DUP2 MSTORE PUSH1 0x40 SWAP2 DUP3 SWAP1 KECCAK256 DUP3 MLOAD PUSH2 0x140 DUP2 ADD DUP5 MSTORE DUP2 SLOAD PUSH1 0xFF DUP2 AND ISZERO ISZERO DUP3 MSTORE PUSH1 0x1 PUSH1 0x1 PUSH1 0xA0 SHL SUB PUSH2 0x100 SWAP2 DUP3 SWAP1 DIV AND DUP3 DUP6 ADD MSTORE PUSH1 0x1 DUP4 ADD SLOAD DUP3 DUP7 ADD MSTORE PUSH1 0x2 DUP4 ADD SLOAD PUSH1 0x60 DUP4 ADD MSTORE PUSH1 0x3 DUP4 ADD SLOAD PUSH1 0x80 DUP4 ADD MSTORE PUSH1 0x4 DUP4 ADD SLOAD PUSH1 0xA0 DUP4 ADD MSTORE PUSH1 0x5 DUP4 ADD SLOAD PUSH1 0xC0 DUP4 ADD MSTORE PUSH1 0x6 DUP4 ADD SLOAD PUSH1 0xE0 DUP4 ADD MSTORE PUSH1 0x7 DUP4 ADD SLOAD SWAP1 DUP3 ADD MSTORE PUSH1 0x8 DUP3 ADD DUP1 SLOAD DUP6 MLOAD DUP2 DUP7 MUL DUP2 ADD DUP7 ADD SWAP1 SWAP7 MSTORE DUP1 DUP7 MSTORE SWAP2 SWAP5 SWAP3 SWAP4 PUSH2 0x120 DUP7 ADD SWAP4 SWAP3 SWAP1 DUP4 ADD DUP3 DUP3 DUP1 ISZERO PUSH2 0x1E67 JUMPI PUSH1 0x20 MUL DUP3 ADD SWAP2 SWAP1 PUSH1 0x0 MSTORE PUSH1 0x20 PUSH1 0x0 KECCAK256 SWAP1 JUMPDEST DUP2 SLOAD DUP2 MSTORE PUSH1 0x20 ADD SWAP1 PUSH1 0x1 ADD SWAP1 DUP1 DUP4 GT PUSH2 0x1E53 JUMPI JUMPDEST POP POP POP POP POP DUP2 MSTORE POP POP SWAP1 POP SWAP2 SWAP1 POP JUMP JUMPDEST PUSH1 0x0 PUSH2 0xB5F DUP3 PUSH2 0x25F7 JUMP JUMPDEST PUSH2 0x1E8A PUSH2 0x29FD JUMP JUMPDEST CALLER CALLVALUE PUSH1 0x0 PUSH2 0x1E97 DUP3 PUSH2 0x2A43 JUMP JUMPDEST SWAP1 POP PUSH1 0x0 PUSH1 0xFB PUSH1 0x0 SWAP1 SLOAD SWAP1 PUSH2 0x100 EXP SWAP1 DIV PUSH1 0x1 PUSH1 0x1 PUSH1 0xA0 SHL SUB AND PUSH1 0x1 PUSH1 0x1 PUSH1 0xA0 SHL SUB AND PUSH4 0x23442C60 PUSH1 0x40 MLOAD DUP2 PUSH4 0xFFFFFFFF AND PUSH1 0xE0 SHL DUP2 MSTORE PUSH1 0x4 ADD PUSH1 0x20 PUSH1 0x40 MLOAD DUP1 DUP4 SUB DUP2 DUP7 GAS STATICCALL ISZERO DUP1 ISZERO PUSH2 0x1EEE JUMPI RETURNDATASIZE PUSH1 0x0 DUP1 RETURNDATACOPY RETURNDATASIZE PUSH1 0x0 REVERT JUMPDEST POP POP POP POP PUSH1 0x40 MLOAD RETURNDATASIZE PUSH1 0x1F NOT PUSH1 0x1F DUP3 ADD AND DUP3 ADD DUP1 PUSH1 0x40 MSTORE POP DUP2 ADD SWAP1 PUSH2 0x1F12 SWAP2 SWAP1 PUSH2 0x3899 JUMP JUMPDEST SWAP1 POP PUSH2 0x103 SLOAD DUP3 LT ISZERO PUSH2 0x1F80 JUMPI PUSH1 0x40 MLOAD PUSH3 0x461BCD PUSH1 0xE5 SHL DUP2 MSTORE PUSH1 0x20 PUSH1 0x4 DUP3 ADD MSTORE PUSH1 0x30 PUSH1 0x24 DUP3 ADD MSTORE PUSH32 0x5374616B696E672076616C75652073686F756C64206265203E3D206D696E5374 PUSH1 0x44 DUP3 ADD MSTORE PUSH16 0x30B5B4B733AB30B63AB2A4B72AA9A217 PUSH1 0x81 SHL PUSH1 0x64 DUP3 ADD MSTORE PUSH1 0x84 ADD PUSH2 0x9C1 JUMP JUMPDEST PUSH1 0x0 DUP6 DUP2 MSTORE PUSH2 0x10C PUSH1 0x20 MSTORE PUSH1 0x40 SWAP1 KECCAK256 PUSH1 0x1 DUP2 ADD SLOAD PUSH1 0x2 DUP3 ADD SLOAD PUSH2 0x1FA7 SWAP2 DUP8 SWAP2 DUP7 SWAP2 SWAP1 PUSH2 0x2ADA JUMP JUMPDEST PUSH2 0x104 SLOAD PUSH1 0xFF AND ISZERO PUSH2 0xB10 JUMPI PUSH1 0x40 MLOAD PUSH4 0x1EB714B1 PUSH1 0xE3 SHL DUP2 MSTORE PUSH1 0x4 DUP2 ADD DUP6 SWAP1 MSTORE PUSH1 0x1 PUSH1 0x1 PUSH1 0xA0 SHL SUB DUP7 DUP2 AND PUSH1 0x24 DUP4 ADD MSTORE DUP9 DUP2 AND PUSH1 0x44 DUP4 ADD MSTORE DUP4 AND SWAP1 PUSH4 0xF5B8A588 SWAP1 PUSH1 0x64 ADD PUSH1 0x20 PUSH1 0x40 MLOAD DUP1 DUP4 SUB DUP2 PUSH1 0x0 DUP8 GAS CALL ISZERO DUP1 ISZERO PUSH2 0x200A JUMPI RETURNDATASIZE PUSH1 0x0 DUP1 RETURNDATACOPY RETURNDATASIZE PUSH1 0x0 REVERT JUMPDEST POP POP POP POP PUSH1 0x40 MLOAD RETURNDATASIZE PUSH1 0x1F NOT PUSH1 0x1F DUP3 ADD AND DUP3 ADD DUP1 PUSH1 0x40 MSTORE POP DUP2 ADD SWAP1 PUSH2 0x1348 SWAP2 SWAP1 PUSH2 0x387C JUMP JUMPDEST PUSH1 0x1 PUSH1 0x1 PUSH1 0xA0 SHL SUB DUP2 AND PUSH1 0x0 SWAP1 DUP2 MSTORE PUSH2 0x109 PUSH1 0x20 SWAP1 DUP2 MSTORE PUSH1 0x40 DUP1 DUP4 KECCAK256 PUSH1 0x1 DUP2 ADD DUP1 SLOAD DUP4 MLOAD DUP2 DUP7 MUL DUP2 ADD DUP7 ADD SWAP1 SWAP5 MSTORE DUP1 DUP5 MSTORE SWAP2 SWAP4 DUP6 SWAP4 SWAP3 SWAP1 DUP4 ADD DUP3 DUP3 DUP1 ISZERO PUSH2 0x2094 JUMPI PUSH1 0x20 MUL DUP3 ADD SWAP2 SWAP1 PUSH1 0x0 MSTORE PUSH1 0x20 PUSH1 0x0 KECCAK256 SWAP1 JUMPDEST DUP2 SLOAD DUP2 MSTORE PUSH1 0x20 ADD SWAP1 PUSH1 0x1 ADD SWAP1 DUP1 DUP4 GT PUSH2 0x2080 JUMPI JUMPDEST POP POP DUP4 MLOAD SWAP4 SWAP5 POP PUSH1 0x0 SWAP3 POP POP POP JUMPDEST DUP2 DUP2 LT ISZERO PUSH2 0xDD7 JUMPI PUSH2 0x20BF DUP4 DUP3 DUP2 MLOAD DUP2 LT PUSH2 0xD8C JUMPI PUSH2 0xD8C PUSH2 0x384D JUMP JUMPDEST PUSH1 0xE0 ADD MLOAD PUSH2 0x20CD SWAP1 DUP7 PUSH2 0x37A2 JUMP JUMPDEST SWAP5 POP DUP1 PUSH2 0x20D9 DUP2 PUSH2 0x3863 JUMP JUMPDEST SWAP2 POP POP PUSH2 0x20A2 JUMP JUMPDEST PUSH2 0x20E9 PUSH2 0x259D JUMP JUMPDEST PUSH2 0x102 DUP1 SLOAD PUSH2 0xFFFF NOT AND PUSH1 0xFF SWAP1 SWAP3 AND SWAP2 SWAP1 SWAP2 OR SWAP1 SSTORE JUMP JUMPDEST PUSH2 0x212D PUSH1 0x40 MLOAD DUP1 PUSH1 0x80 ADD PUSH1 0x40 MSTORE DUP1 PUSH1 0x0 DUP2 MSTORE PUSH1 0x20 ADD PUSH1 0x60 DUP2 MSTORE PUSH1 0x20 ADD PUSH1 0x0 ISZERO ISZERO DUP2 MSTORE PUSH1 0x20 ADD PUSH1 0x60 DUP2 MSTORE POP SWAP1 JUMP JUMPDEST PUSH1 0x1 PUSH1 0x1 PUSH1 0xA0 SHL SUB DUP3 AND PUSH1 0x0 SWAP1 DUP2 MSTORE PUSH2 0x109 PUSH1 0x20 SWAP1 DUP2 MSTORE PUSH1 0x40 SWAP2 DUP3 SWAP1 KECCAK256 DUP3 MLOAD PUSH1 0x80 DUP2 ADD DUP5 MSTORE DUP2 SLOAD DUP2 MSTORE PUSH1 0x1 DUP3 ADD DUP1 SLOAD DUP6 MLOAD DUP2 DUP7 MUL DUP2 ADD DUP7 ADD SWAP1 SWAP7 MSTORE DUP1 DUP7 MSTORE SWAP2 SWAP5 SWAP3 SWAP4 DUP6 DUP2 ADD SWAP4 SWAP3 SWAP1 DUP4 ADD DUP3 DUP3 DUP1 ISZERO PUSH2 0x21A4 JUMPI PUSH1 0x20 MUL DUP3 ADD SWAP2 SWAP1 PUSH1 0x0 MSTORE PUSH1 0x20 PUSH1 0x0 KECCAK256 SWAP1 JUMPDEST DUP2 SLOAD DUP2 MSTORE PUSH1 0x20 ADD SWAP1 PUSH1 0x1 ADD SWAP1 DUP1 DUP4 GT PUSH2 0x2190 JUMPI JUMPDEST POP POP POP SWAP2 DUP4 MSTORE POP POP PUSH1 0x2 DUP3 ADD SLOAD PUSH1 0xFF AND ISZERO ISZERO PUSH1 0x20 DUP1 DUP4 ADD SWAP2 SWAP1 SWAP2 MSTORE PUSH1 0x3 DUP4 ADD DUP1 SLOAD PUSH1 0x40 DUP1 MLOAD DUP3 DUP6 MUL DUP2 ADD DUP6 ADD DUP3 MSTORE DUP3 DUP2 MSTORE SWAP5 ADD SWAP4 SWAP3 DUP4 ADD DUP3 DUP3 DUP1 ISZERO PUSH2 0x1E67 JUMPI PUSH1 0x20 MUL DUP3 ADD SWAP2 SWAP1 PUSH1 0x0 MSTORE PUSH1 0x20 PUSH1 0x0 KECCAK256 SWAP1 DUP2 SLOAD DUP2 MSTORE PUSH1 0x20 ADD SWAP1 PUSH1 0x1 ADD SWAP1 DUP1 DUP4 GT PUSH2 0x1E53 JUMPI POP POP POP POP POP DUP2 MSTORE POP POP SWAP1 POP SWAP2 SWAP1 POP JUMP JUMPDEST PUSH1 0x0 DUP2 DUP2 MSTORE PUSH2 0x10B PUSH1 0x20 MSTORE PUSH1 0x40 DUP2 KECCAK256 PUSH1 0x5 DUP2 ADD SLOAD PUSH1 0x4 DUP3 ADD SLOAD TIMESTAMP SWAP3 SWAP2 DUP5 SWAP2 PUSH2 0x223E SWAP2 SWAP1 PUSH2 0x37A2 JUMP JUMPDEST SWAP1 POP DUP1 DUP4 LT ISZERO PUSH2 0x2270 JUMPI DUP3 DUP3 PUSH1 0x5 ADD SLOAD DUP4 PUSH1 0x4 ADD SLOAD PUSH2 0x225D SWAP2 SWAP1 PUSH2 0x37A2 JUMP JUMPDEST PUSH2 0x2267 SWAP2 SWAP1 PUSH2 0x38D5 JUMP JUMPDEST SWAP6 SWAP5 POP POP POP POP POP JUMP JUMPDEST POP PUSH1 0x0 SWAP5 SWAP4 POP POP POP POP JUMP JUMPDEST PUSH1 0xFD SLOAD PUSH1 0x0 DUP1 DUP1 MSTORE PUSH2 0x10A PUSH1 0x20 MSTORE PUSH32 0x8684156705E0CB91FFE15D87BA1902D313D1419968887339E417608630E96334 SLOAD PUSH1 0x60 SWAP3 SWAP2 SWAP1 PUSH1 0x1 PUSH1 0x1 PUSH1 0xA0 SHL SUB AND DUP2 DUP4 PUSH8 0xFFFFFFFFFFFFFFFF DUP2 GT ISZERO PUSH2 0x22D3 JUMPI PUSH2 0x22D3 PUSH2 0x32DB JUMP JUMPDEST PUSH1 0x40 MLOAD SWAP1 DUP1 DUP3 MSTORE DUP1 PUSH1 0x20 MUL PUSH1 0x20 ADD DUP3 ADD PUSH1 0x40 MSTORE DUP1 ISZERO PUSH2 0x22FC JUMPI DUP2 PUSH1 0x20 ADD PUSH1 0x20 DUP3 MUL DUP1 CALLDATASIZE DUP4 CALLDATACOPY ADD SWAP1 POP JUMPDEST POP SWAP1 POP PUSH1 0x0 PUSH2 0x3E8 JUMPDEST DUP6 DUP2 LT ISZERO PUSH2 0x1722 JUMPI DUP1 SWAP5 POP PUSH2 0x231A DUP4 DUP6 PUSH2 0x2D6C JUMP JUMPDEST ISZERO ISZERO PUSH1 0x1 EQ PUSH2 0x236A JUMPI PUSH2 0x232C DUP5 PUSH2 0x13DA JUMP JUMPDEST ISZERO PUSH2 0x236A JUMPI DUP4 DUP4 DUP4 DUP2 MLOAD DUP2 LT PUSH2 0x2344 JUMPI PUSH2 0x2344 PUSH2 0x384D JUMP JUMPDEST PUSH1 0x1 PUSH1 0x1 PUSH1 0xA0 SHL SUB SWAP1 SWAP3 AND PUSH1 0x20 SWAP3 DUP4 MUL SWAP2 SWAP1 SWAP2 ADD SWAP1 SWAP2 ADD MSTORE DUP2 PUSH2 0x2366 DUP2 PUSH2 0x3863 JUMP JUMPDEST SWAP3 POP POP JUMPDEST DUP1 PUSH2 0x2374 DUP2 PUSH2 0x3863 JUMP JUMPDEST SWAP2 POP POP PUSH2 0x2305 JUMP JUMPDEST PUSH1 0x0 DUP1 PUSH1 0x0 DUP1 PUSH1 0x0 DUP1 PUSH1 0x0 DUP1 PUSH1 0xFC PUSH1 0x0 SWAP1 SLOAD SWAP1 PUSH2 0x100 EXP SWAP1 DIV PUSH1 0x1 PUSH1 0x1 PUSH1 0xA0 SHL SUB AND PUSH1 0x1 PUSH1 0x1 PUSH1 0xA0 SHL SUB AND PUSH4 0xE1AA6036 PUSH1 0x40 MLOAD DUP2 PUSH4 0xFFFFFFFF AND PUSH1 0xE0 SHL DUP2 MSTORE PUSH1 0x4 ADD PUSH1 0x20 PUSH1 0x40 MLOAD DUP1 DUP4 SUB DUP2 DUP7 GAS STATICCALL ISZERO DUP1 ISZERO PUSH2 0x23DB JUMPI RETURNDATASIZE PUSH1 0x0 DUP1 RETURNDATACOPY RETURNDATASIZE PUSH1 0x0 REVERT JUMPDEST POP POP POP POP PUSH1 0x40 MLOAD RETURNDATASIZE PUSH1 0x1F NOT PUSH1 0x1F DUP3 ADD AND DUP3 ADD DUP1 PUSH1 0x40 MSTORE POP DUP2 ADD SWAP1 PUSH2 0x23FF SWAP2 SWAP1 PUSH2 0x3706 JUMP JUMPDEST PUSH2 0x103 SLOAD PUSH2 0x105 SLOAD PUSH2 0x104 SLOAD PUSH2 0x106 SLOAD PUSH2 0x102 SLOAD PUSH2 0x107 SLOAD PUSH2 0x108 SLOAD SWAP7 SWAP16 SWAP6 SWAP15 POP SWAP4 SWAP13 POP PUSH1 0xFF SWAP3 DUP4 AND SWAP12 POP SWAP2 AND SWAP9 POP PUSH2 0xFFFF AND SWAP7 POP SWAP5 POP SWAP1 SWAP3 POP SWAP1 POP JUMP JUMPDEST PUSH2 0x2445 PUSH2 0x259D JUMP JUMPDEST PUSH1 0x1 PUSH1 0x1 PUSH1 0xA0 SHL SUB DUP2 AND PUSH2 0x24AA JUMPI PUSH1 0x40 MLOAD PUSH3 0x461BCD PUSH1 0xE5 SHL DUP2 MSTORE PUSH1 0x20 PUSH1 0x4 DUP3 ADD MSTORE PUSH1 0x26 PUSH1 0x24 DUP3 ADD MSTORE PUSH32 0x4F776E61626C653A206E6577206F776E657220697320746865207A65726F2061 PUSH1 0x44 DUP3 ADD MSTORE PUSH6 0x646472657373 PUSH1 0xD0 SHL PUSH1 0x64 DUP3 ADD MSTORE PUSH1 0x84 ADD PUSH2 0x9C1 JUMP JUMPDEST PUSH2 0xC55 DUP2 PUSH2 0x2C58 JUMP JUMPDEST PUSH2 0x24BB PUSH2 0x259D JUMP JUMPDEST PUSH2 0xCE1 DUP7 DUP7 DUP1 DUP1 PUSH1 0x20 MUL PUSH1 0x20 ADD PUSH1 0x40 MLOAD SWAP1 DUP2 ADD PUSH1 0x40 MSTORE DUP1 SWAP4 SWAP3 SWAP2 SWAP1 DUP2 DUP2 MSTORE PUSH1 0x20 ADD DUP4 DUP4 PUSH1 0x20 MUL DUP1 DUP3 DUP5 CALLDATACOPY PUSH1 0x0 SWAP3 ADD SWAP2 SWAP1 SWAP2 MSTORE POP POP PUSH1 0x40 DUP1 MLOAD PUSH1 0x20 DUP1 DUP11 MUL DUP3 DUP2 ADD DUP3 ADD SWAP1 SWAP4 MSTORE DUP10 DUP3 MSTORE SWAP1 SWAP4 POP DUP10 SWAP3 POP DUP9 SWAP2 DUP3 SWAP2 DUP6 ADD SWAP1 DUP5 SWAP1 DUP1 DUP3 DUP5 CALLDATACOPY PUSH1 0x0 SWAP3 ADD SWAP2 SWAP1 SWAP2 MSTORE POP POP PUSH1 0x40 DUP1 MLOAD PUSH1 0x20 DUP1 DUP10 MUL DUP3 DUP2 ADD DUP3 ADD SWAP1 SWAP4 MSTORE DUP9 DUP3 MSTORE SWAP1 SWAP4 POP DUP9 SWAP3 POP DUP8 SWAP2 DUP3 SWAP2 DUP6 ADD SWAP1 DUP5 SWAP1 DUP1 DUP3 DUP5 CALLDATACOPY PUSH1 0x0 SWAP3 ADD SWAP2 SWAP1 SWAP2 MSTORE POP PUSH2 0x2DD1 SWAP3 POP POP POP JUMP JUMPDEST PUSH1 0x0 DUP1 DUP3 PUSH2 0x2568 DUP6 PUSH1 0xA PUSH2 0x39CC JUMP JUMPDEST PUSH2 0x2572 SWAP1 DUP8 PUSH2 0x39D8 JUMP JUMPDEST PUSH2 0x257C SWAP2 SWAP1 PUSH2 0x39D8 JUMP JUMPDEST SWAP1 POP PUSH2 0x2589 DUP5 PUSH1 0xA PUSH2 0x39CC JUMP JUMPDEST PUSH2 0x2593 DUP5 DUP4 PUSH2 0x39FA JUMP JUMPDEST PUSH2 0x2267 SWAP2 SWAP1 PUSH2 0x39FA JUMP JUMPDEST PUSH1 0x65 SLOAD PUSH1 0x1 PUSH1 0x1 PUSH1 0xA0 SHL SUB AND CALLER EQ PUSH2 0xCF9 JUMPI PUSH1 0x40 MLOAD PUSH3 0x461BCD PUSH1 0xE5 SHL DUP2 MSTORE PUSH1 0x20 PUSH1 0x4 DUP3 ADD DUP2 SWAP1 MSTORE PUSH1 0x24 DUP3 ADD MSTORE PUSH32 0x4F776E61626C653A2063616C6C6572206973206E6F7420746865206F776E6572 PUSH1 0x44 DUP3 ADD MSTORE PUSH1 0x64 ADD PUSH2 0x9C1 JUMP JUMPDEST PUSH1 0x0 DUP2 DUP2 MSTORE PUSH2 0x10B PUSH1 0x20 MSTORE PUSH1 0x40 DUP2 KECCAK256 PUSH1 0x4 DUP2 ADD SLOAD TIMESTAMP SWAP2 SWAP1 DUP4 SWAP1 PUSH2 0x261A SWAP1 DUP5 PUSH2 0x38D5 JUMP JUMPDEST PUSH1 0x5 DUP4 ADD SLOAD PUSH2 0x102 SLOAD PUSH1 0x3 DUP6 ADD SLOAD PUSH1 0x2 DUP7 ADD SLOAD SWAP4 SWAP5 POP PUSH1 0x0 SWAP4 PUSH2 0xFFFF SWAP1 SWAP3 AND SWAP2 PUSH2 0x2644 SWAP2 SWAP1 PUSH2 0x39FA JUMP JUMPDEST PUSH2 0x264E SWAP2 SWAP1 PUSH2 0x39D8 JUMP JUMPDEST PUSH2 0x2658 SWAP2 SWAP1 PUSH2 0x39D8 JUMP JUMPDEST SWAP1 POP DUP3 PUSH1 0x6 ADD SLOAD PUSH2 0x266D DUP4 DUP6 PUSH1 0x5 ADD SLOAD PUSH2 0x2EE9 JUMP JUMPDEST PUSH2 0x2677 SWAP1 DUP4 PUSH2 0x39FA JUMP JUMPDEST PUSH2 0x2681 SWAP2 SWAP1 PUSH2 0x38D5 JUMP JUMPDEST SWAP7 SWAP6 POP POP POP POP POP POP JUMP JUMPDEST PUSH1 0x0 DUP3 DUP6 PUSH1 0x6 ADD PUSH1 0x0 DUP3 DUP3 SLOAD PUSH2 0x26A1 SWAP2 SWAP1 PUSH2 0x37A2 JUMP JUMPDEST SWAP1 SWAP2 SSTORE POP POP TIMESTAMP PUSH1 0x7 DUP7 ADD SSTORE PUSH1 0x8 DUP6 ADD DUP1 SLOAD PUSH1 0x1 DUP2 DUP2 ADD DUP4 SSTORE PUSH1 0x0 SWAP3 DUP4 MSTORE PUSH1 0x20 DUP1 DUP5 KECCAK256 SWAP1 SWAP3 ADD DUP6 SWAP1 SSTORE PUSH1 0x3 DUP8 ADD DUP1 SLOAD SWAP2 DUP3 ADD DUP2 SSTORE DUP4 MSTORE SWAP1 DUP3 KECCAK256 ADD DUP4 SWAP1 SSTORE PUSH2 0x101 DUP1 SLOAD DUP6 SWAP3 SWAP1 PUSH2 0x26F0 SWAP1 DUP5 SWAP1 PUSH2 0x37A2 JUMP JUMPDEST SWAP1 SWAP2 SSTORE POP POP PUSH1 0x40 MLOAD DUP7 SWAP1 DUP5 SWAP1 PUSH1 0x1 PUSH1 0x1 PUSH1 0xA0 SHL SUB DUP11 AND SWAP1 PUSH32 0xD6AB86E55E7211DDDCDA4C7C65E9E1C75F06B5DA6B05222F8CD39B93986FECAD SWAP1 PUSH1 0x0 SWAP1 LOG4 POP SWAP1 SWAP6 SWAP5 POP POP POP POP POP JUMP JUMPDEST PUSH2 0xC55 PUSH2 0x259D JUMP JUMPDEST PUSH32 0x4910FDFA16FED3260ED0E7147F7CC6DA11A60208B5B9406D12A635614FFD9143 SLOAD PUSH1 0xFF AND ISZERO PUSH2 0x2778 JUMPI PUSH2 0x2773 DUP4 PUSH2 0x2EFF JUMP JUMPDEST POP POP POP JUMP JUMPDEST DUP3 PUSH1 0x1 PUSH1 0x1 PUSH1 0xA0 SHL SUB AND PUSH4 0x52D1902D PUSH1 0x40 MLOAD DUP2 PUSH4 0xFFFFFFFF AND PUSH1 0xE0 SHL DUP2 MSTORE PUSH1 0x4 ADD PUSH1 0x20 PUSH1 0x40 MLOAD DUP1 DUP4 SUB DUP2 DUP7 GAS STATICCALL SWAP3 POP POP POP DUP1 ISZERO PUSH2 0x27D2 JUMPI POP PUSH1 0x40 DUP1 MLOAD PUSH1 0x1F RETURNDATASIZE SWAP1 DUP2 ADD PUSH1 0x1F NOT AND DUP3 ADD SWAP1 SWAP3 MSTORE PUSH2 0x27CF SWAP2 DUP2 ADD SWAP1 PUSH2 0x3706 JUMP JUMPDEST PUSH1 0x1 JUMPDEST PUSH2 0x2835 JUMPI PUSH1 0x40 MLOAD PUSH3 0x461BCD PUSH1 0xE5 SHL DUP2 MSTORE PUSH1 0x20 PUSH1 0x4 DUP3 ADD MSTORE PUSH1 0x2E PUSH1 0x24 DUP3 ADD MSTORE PUSH32 0x45524331393637557067726164653A206E657720696D706C656D656E74617469 PUSH1 0x44 DUP3 ADD MSTORE PUSH14 0x6F6E206973206E6F742055555053 PUSH1 0x90 SHL PUSH1 0x64 DUP3 ADD MSTORE PUSH1 0x84 ADD PUSH2 0x9C1 JUMP JUMPDEST PUSH1 0x0 DUP1 MLOAD PUSH1 0x20 PUSH2 0x3AD0 DUP4 CODECOPY DUP2 MLOAD SWAP2 MSTORE DUP2 EQ PUSH2 0x28A4 JUMPI PUSH1 0x40 MLOAD PUSH3 0x461BCD PUSH1 0xE5 SHL DUP2 MSTORE PUSH1 0x20 PUSH1 0x4 DUP3 ADD MSTORE PUSH1 0x29 PUSH1 0x24 DUP3 ADD MSTORE PUSH32 0x45524331393637557067726164653A20756E737570706F727465642070726F78 PUSH1 0x44 DUP3 ADD MSTORE PUSH9 0x1A58589B1955555251 PUSH1 0xBA SHL PUSH1 0x64 DUP3 ADD MSTORE PUSH1 0x84 ADD PUSH2 0x9C1 JUMP JUMPDEST POP PUSH2 0x2773 DUP4 DUP4 DUP4 PUSH2 0x2F9B JUMP JUMPDEST PUSH2 0x28B8 PUSH2 0x2FC6 JUMP JUMPDEST PUSH1 0x33 DUP1 SLOAD PUSH1 0xFF NOT AND SWAP1 SSTORE PUSH32 0x5DB9EE0A495BF2E6FF9C91A7834C1BA4FDD244A5E8AA4E537BD38AEAE4B073AA CALLER JUMPDEST PUSH1 0x40 MLOAD PUSH1 0x1 PUSH1 0x1 PUSH1 0xA0 SHL SUB SWAP1 SWAP2 AND DUP2 MSTORE PUSH1 0x20 ADD PUSH1 0x40 MLOAD DUP1 SWAP2 SUB SWAP1 LOG1 JUMP JUMPDEST PUSH2 0x2926 PUSH1 0x40 MLOAD DUP1 PUSH1 0x60 ADD PUSH1 0x40 MSTORE DUP1 PUSH1 0x0 DUP2 MSTORE PUSH1 0x20 ADD PUSH1 0x0 DUP2 MSTORE PUSH1 0x20 ADD PUSH1 0x0 DUP2 MSTORE POP SWAP1 JUMP JUMPDEST POP PUSH1 0x0 SWAP1 DUP2 MSTORE PUSH2 0x10C PUSH1 0x20 SWAP1 DUP2 MSTORE PUSH1 0x40 SWAP2 DUP3 SWAP1 KECCAK256 DUP3 MLOAD PUSH1 0x60 DUP2 ADD DUP5 MSTORE DUP2 SLOAD DUP2 MSTORE PUSH1 0x1 DUP3 ADD SLOAD SWAP3 DUP2 ADD SWAP3 SWAP1 SWAP3 MSTORE PUSH1 0x2 ADD SLOAD SWAP2 DUP2 ADD SWAP2 SWAP1 SWAP2 MSTORE SWAP1 JUMP JUMPDEST DUP3 SLOAD PUSH1 0xFF NOT AND DUP4 SSTORE PUSH1 0x8 DUP4 ADD DUP1 SLOAD PUSH1 0x1 DUP2 DUP2 ADD DUP4 SSTORE PUSH1 0x0 SWAP3 DUP4 MSTORE PUSH1 0x20 DUP1 DUP5 KECCAK256 SWAP1 SWAP3 ADD DUP5 SWAP1 SSTORE PUSH1 0x3 DUP6 ADD DUP1 SLOAD SWAP2 DUP3 ADD DUP2 SSTORE DUP4 MSTORE SWAP1 DUP3 KECCAK256 ADD DUP3 SWAP1 SSTORE PUSH1 0x2 DUP5 ADD SLOAD PUSH1 0xFF DUP1 SLOAD DUP4 SWAP1 PUSH2 0x29AF SWAP1 DUP5 SWAP1 PUSH2 0x38D5 JUMP JUMPDEST SWAP1 SWAP2 SSTORE POP POP PUSH1 0x2 DUP5 ADD SLOAD PUSH1 0x40 MLOAD DUP7 SWAP2 SWAP1 PUSH1 0x1 PUSH1 0x1 PUSH1 0xA0 SHL SUB DUP10 AND SWAP1 PUSH32 0xF960DBF9E5D0682F7A298ED974E33A28B4464914B7A2BFAC12AE419A9AFEB280 SWAP1 PUSH1 0x0 SWAP1 LOG4 POP POP POP PUSH1 0x2 ADD SLOAD SWAP3 SWAP2 POP POP JUMP JUMPDEST PUSH1 0x33 SLOAD PUSH1 0xFF AND ISZERO PUSH2 0xCF9 JUMPI PUSH1 0x40 MLOAD PUSH3 0x461BCD PUSH1 0xE5 SHL DUP2 MSTORE PUSH1 0x20 PUSH1 0x4 DUP3 ADD MSTORE PUSH1 0x10 PUSH1 0x24 DUP3 ADD MSTORE PUSH16 0x14185D5CD8589B194E881C185D5CD959 PUSH1 0x82 SHL PUSH1 0x44 DUP3 ADD MSTORE PUSH1 0x64 ADD PUSH2 0x9C1 JUMP JUMPDEST PUSH1 0x0 DUP1 PUSH8 0xDE0B6B3A7640000 PUSH1 0xFC PUSH1 0x0 SWAP1 SLOAD SWAP1 PUSH2 0x100 EXP SWAP1 DIV PUSH1 0x1 PUSH1 0x1 PUSH1 0xA0 SHL SUB AND PUSH1 0x1 PUSH1 0x1 PUSH1 0xA0 SHL SUB AND PUSH4 0xE1AA6036 PUSH1 0x40 MLOAD DUP2 PUSH4 0xFFFFFFFF AND PUSH1 0xE0 SHL DUP2 MSTORE PUSH1 0x4 ADD PUSH1 0x20 PUSH1 0x40 MLOAD DUP1 DUP4 SUB DUP2 DUP7 GAS STATICCALL ISZERO DUP1 ISZERO PUSH2 0x2AA2 JUMPI RETURNDATASIZE PUSH1 0x0 DUP1 RETURNDATACOPY RETURNDATASIZE PUSH1 0x0 REVERT JUMPDEST POP POP POP POP PUSH1 0x40 MLOAD RETURNDATASIZE PUSH1 0x1F NOT PUSH1 0x1F DUP3 ADD AND DUP3 ADD DUP1 PUSH1 0x40 MSTORE POP DUP2 ADD SWAP1 PUSH2 0x2AC6 SWAP2 SWAP1 PUSH2 0x3706 JUMP JUMPDEST PUSH2 0x2AD0 SWAP1 DUP6 PUSH2 0x39FA JUMP JUMPDEST PUSH2 0x964 SWAP2 SWAP1 PUSH2 0x39D8 JUMP JUMPDEST PUSH1 0xFE DUP1 SLOAD SWAP1 PUSH1 0x0 PUSH2 0x2AEA DUP4 PUSH2 0x3863 JUMP JUMPDEST SWAP1 SWAP2 SSTORE POP POP PUSH1 0xFE SLOAD PUSH1 0x1 PUSH1 0x1 PUSH1 0xA0 SHL SUB DUP6 AND PUSH1 0x0 SWAP1 DUP2 MSTORE PUSH2 0x109 PUSH1 0x20 SWAP1 DUP2 MSTORE PUSH1 0x40 DUP1 DUP4 KECCAK256 DUP5 DUP5 MSTORE PUSH2 0x10B SWAP1 SWAP3 MSTORE DUP3 KECCAK256 DUP2 SLOAD TIMESTAMP SWAP4 NUMBER SWAP4 SWAP3 SWAP2 SWAP1 SUB PUSH2 0x2B6B JUMPI PUSH1 0xFD DUP1 SLOAD SWAP1 PUSH1 0x0 PUSH2 0x2B37 DUP4 PUSH2 0x3863 JUMP JUMPDEST SWAP1 SWAP2 SSTORE POP POP PUSH1 0xFD SLOAD DUP1 DUP4 SSTORE PUSH1 0x0 SWAP1 DUP2 MSTORE PUSH2 0x10A PUSH1 0x20 MSTORE PUSH1 0x40 SWAP1 KECCAK256 DUP1 SLOAD PUSH1 0x1 PUSH1 0x1 PUSH1 0xA0 SHL SUB NOT AND PUSH1 0x1 PUSH1 0x1 PUSH1 0xA0 SHL SUB DUP12 AND OR SWAP1 SSTORE JUMPDEST PUSH1 0x1 DUP3 DUP2 ADD DUP1 SLOAD DUP1 DUP4 ADD DUP3 SSTORE PUSH1 0x0 SWAP2 DUP3 MSTORE PUSH1 0x20 DUP1 DUP4 KECCAK256 SWAP1 SWAP2 ADD DUP9 SWAP1 SSTORE PUSH1 0x3 DUP1 DUP7 ADD DUP1 SLOAD DUP1 DUP7 ADD DUP3 SSTORE SWAP1 DUP5 MSTORE DUP3 DUP5 KECCAK256 ADD DUP8 SWAP1 SSTORE DUP5 SLOAD PUSH1 0x1 PUSH1 0x1 PUSH1 0xA8 SHL SUB NOT AND PUSH2 0x100 PUSH1 0x1 PUSH1 0x1 PUSH1 0xA0 SHL SUB DUP16 AND DUP2 MUL SWAP2 SWAP1 SWAP2 OR DUP6 OR DUP7 SSTORE PUSH1 0x4 DUP7 ADD DUP10 SWAP1 SSTORE PUSH1 0x5 DUP7 ADD DUP12 SWAP1 SSTORE PUSH1 0x2 DUP7 ADD DUP14 SWAP1 SSTORE SWAP1 DUP6 ADD DUP12 SWAP1 SSTORE PUSH1 0x8 DUP6 ADD DUP1 SLOAD SWAP5 DUP6 ADD DUP2 SSTORE DUP4 MSTORE SWAP1 DUP3 KECCAK256 SWAP1 SWAP3 ADD DUP6 SWAP1 SSTORE DUP2 SLOAD DUP11 SWAP3 SWAP2 SWAP1 PUSH2 0x2C02 SWAP1 DUP5 SWAP1 PUSH2 0x37A2 JUMP JUMPDEST SWAP1 SWAP2 SSTORE POP POP PUSH1 0x40 DUP1 MLOAD DUP8 DUP2 MSTORE PUSH1 0x20 DUP2 ADD DUP8 SWAP1 MSTORE DUP10 SWAP2 PUSH1 0x1 PUSH1 0x1 PUSH1 0xA0 SHL SUB DUP13 AND SWAP2 PUSH32 0xF556991011E831BCFAC4F406D547E5E32CDD98267EFAB83935230D5F8D02C446 SWAP2 ADD PUSH1 0x40 MLOAD DUP1 SWAP2 SUB SWAP1 LOG3 POP POP POP POP POP POP POP POP POP JUMP JUMPDEST PUSH1 0x65 DUP1 SLOAD PUSH1 0x1 PUSH1 0x1 PUSH1 0xA0 SHL SUB DUP4 DUP2 AND PUSH1 0x1 PUSH1 0x1 PUSH1 0xA0 SHL SUB NOT DUP4 AND DUP2 OR SWAP1 SWAP4 SSTORE PUSH1 0x40 MLOAD SWAP2 AND SWAP2 SWAP1 DUP3 SWAP1 PUSH32 0x8BE0079C531659141344CD1FD0A4F28419497F9722A3DAAFE3B4186F6B6457E0 SWAP1 PUSH1 0x0 SWAP1 LOG3 POP POP JUMP JUMPDEST PUSH1 0x0 SLOAD PUSH2 0x100 SWAP1 DIV PUSH1 0xFF AND PUSH2 0x2CD1 JUMPI PUSH1 0x40 MLOAD PUSH3 0x461BCD PUSH1 0xE5 SHL DUP2 MSTORE PUSH1 0x4 ADD PUSH2 0x9C1 SWAP1 PUSH2 0x3A11 JUMP JUMPDEST PUSH2 0xCF9 PUSH2 0x300F JUMP JUMPDEST PUSH1 0x0 SLOAD PUSH2 0x100 SWAP1 DIV PUSH1 0xFF AND PUSH2 0x2D00 JUMPI PUSH1 0x40 MLOAD PUSH3 0x461BCD PUSH1 0xE5 SHL DUP2 MSTORE PUSH1 0x4 ADD PUSH2 0x9C1 SWAP1 PUSH2 0x3A11 JUMP JUMPDEST PUSH2 0xCF9 PUSH2 0x3042 JUMP JUMPDEST PUSH1 0x0 SLOAD PUSH2 0x100 SWAP1 DIV PUSH1 0xFF AND PUSH2 0xCF9 JUMPI PUSH1 0x40 MLOAD PUSH3 0x461BCD PUSH1 0xE5 SHL DUP2 MSTORE PUSH1 0x4 ADD PUSH2 0x9C1 SWAP1 PUSH2 0x3A11 JUMP JUMPDEST PUSH2 0x2D37 PUSH2 0x29FD JUMP JUMPDEST PUSH1 0x33 DUP1 SLOAD PUSH1 0xFF NOT AND PUSH1 0x1 OR SWAP1 SSTORE PUSH32 0x62E78CEA01BEE320CD4E420270B5EA74000D11B0C9F74754EBDBFC544B05A258 PUSH2 0x28E5 CALLER SWAP1 JUMP JUMPDEST PUSH1 0x0 DUP1 JUMPDEST DUP4 MLOAD DUP2 LT ISZERO PUSH2 0x2DC7 JUMPI DUP3 PUSH1 0x1 PUSH1 0x1 PUSH1 0xA0 SHL SUB AND DUP5 DUP3 DUP2 MLOAD DUP2 LT PUSH2 0x2D95 JUMPI PUSH2 0x2D95 PUSH2 0x384D JUMP JUMPDEST PUSH1 0x20 MUL PUSH1 0x20 ADD ADD MLOAD PUSH1 0x1 PUSH1 0x1 PUSH1 0xA0 SHL SUB AND SUB PUSH2 0x2DB5 JUMPI PUSH1 0x1 SWAP2 POP POP PUSH2 0xB5F JUMP JUMPDEST DUP1 PUSH2 0x2DBF DUP2 PUSH2 0x3863 JUMP JUMPDEST SWAP2 POP POP PUSH2 0x2D70 JUMP JUMPDEST POP PUSH1 0x0 SWAP4 SWAP3 POP POP POP JUMP JUMPDEST DUP3 MLOAD PUSH2 0x106 SLOAD PUSH1 0xFF AND DUP2 GT ISZERO PUSH2 0x2E29 JUMPI PUSH1 0x40 MLOAD PUSH3 0x461BCD PUSH1 0xE5 SHL DUP2 MSTORE PUSH1 0x20 PUSH1 0x4 DUP3 ADD MSTORE PUSH1 0x18 PUSH1 0x24 DUP3 ADD MSTORE PUSH32 0x457863656564696E67207061636B616765206C656E6774680000000000000000 PUSH1 0x44 DUP3 ADD MSTORE PUSH1 0x64 ADD PUSH2 0x9C1 JUMP JUMPDEST PUSH1 0x0 JUMPDEST DUP2 DUP2 LT ISZERO PUSH2 0x2EE2 JUMPI DUP5 DUP2 DUP2 MLOAD DUP2 LT PUSH2 0x2E46 JUMPI PUSH2 0x2E46 PUSH2 0x384D JUMP JUMPDEST PUSH1 0x20 MUL PUSH1 0x20 ADD ADD MLOAD PUSH2 0x10C PUSH1 0x0 DUP4 DUP2 MSTORE PUSH1 0x20 ADD SWAP1 DUP2 MSTORE PUSH1 0x20 ADD PUSH1 0x0 KECCAK256 PUSH1 0x0 ADD DUP2 SWAP1 SSTORE POP DUP4 DUP2 DUP2 MLOAD DUP2 LT PUSH2 0x2E7B JUMPI PUSH2 0x2E7B PUSH2 0x384D JUMP JUMPDEST PUSH1 0x20 MUL PUSH1 0x20 ADD ADD MLOAD PUSH2 0x10C PUSH1 0x0 DUP4 DUP2 MSTORE PUSH1 0x20 ADD SWAP1 DUP2 MSTORE PUSH1 0x20 ADD PUSH1 0x0 KECCAK256 PUSH1 0x1 ADD DUP2 SWAP1 SSTORE POP DUP3 DUP2 DUP2 MLOAD DUP2 LT PUSH2 0x2EB0 JUMPI PUSH2 0x2EB0 PUSH2 0x384D JUMP JUMPDEST PUSH1 0x20 SWAP1 DUP2 MUL SWAP2 SWAP1 SWAP2 ADD DUP2 ADD MLOAD PUSH1 0x0 DUP4 DUP2 MSTORE PUSH2 0x10C SWAP1 SWAP3 MSTORE PUSH1 0x40 SWAP1 SWAP2 KECCAK256 PUSH1 0x2 ADD SSTORE DUP1 PUSH2 0x2EDA DUP2 PUSH2 0x3863 JUMP JUMPDEST SWAP2 POP POP PUSH2 0x2E2C JUMP JUMPDEST POP POP POP POP POP JUMP JUMPDEST PUSH1 0x0 DUP2 DUP4 LT PUSH2 0x2EF8 JUMPI DUP2 PUSH2 0x964 JUMP JUMPDEST POP SWAP1 SWAP2 SWAP1 POP JUMP JUMPDEST PUSH1 0x1 PUSH1 0x1 PUSH1 0xA0 SHL SUB DUP2 AND EXTCODESIZE PUSH2 0x2F6C JUMPI PUSH1 0x40 MLOAD PUSH3 0x461BCD PUSH1 0xE5 SHL DUP2 MSTORE PUSH1 0x20 PUSH1 0x4 DUP3 ADD MSTORE PUSH1 0x2D PUSH1 0x24 DUP3 ADD MSTORE PUSH32 0x455243313936373A206E657720696D706C656D656E746174696F6E206973206E PUSH1 0x44 DUP3 ADD MSTORE PUSH13 0x1BDD08184818DBDB9D1C9858DD PUSH1 0x9A SHL PUSH1 0x64 DUP3 ADD MSTORE PUSH1 0x84 ADD PUSH2 0x9C1 JUMP JUMPDEST PUSH1 0x0 DUP1 MLOAD PUSH1 0x20 PUSH2 0x3AD0 DUP4 CODECOPY DUP2 MLOAD SWAP2 MSTORE DUP1 SLOAD PUSH1 0x1 PUSH1 0x1 PUSH1 0xA0 SHL SUB NOT AND PUSH1 0x1 PUSH1 0x1 PUSH1 0xA0 SHL SUB SWAP3 SWAP1 SWAP3 AND SWAP2 SWAP1 SWAP2 OR SWAP1 SSTORE JUMP JUMPDEST PUSH2 0x2FA4 DUP4 PUSH2 0x3072 JUMP JUMPDEST PUSH1 0x0 DUP3 MLOAD GT DUP1 PUSH2 0x2FB1 JUMPI POP DUP1 JUMPDEST ISZERO PUSH2 0x2773 JUMPI PUSH2 0x2FC0 DUP4 DUP4 PUSH2 0x30B2 JUMP JUMPDEST POP POP POP POP JUMP JUMPDEST PUSH1 0x33 SLOAD PUSH1 0xFF AND PUSH2 0xCF9 JUMPI PUSH1 0x40 MLOAD PUSH3 0x461BCD PUSH1 0xE5 SHL DUP2 MSTORE PUSH1 0x20 PUSH1 0x4 DUP3 ADD MSTORE PUSH1 0x14 PUSH1 0x24 DUP3 ADD MSTORE PUSH20 0x14185D5CD8589B194E881B9BDD081C185D5CD959 PUSH1 0x62 SHL PUSH1 0x44 DUP3 ADD MSTORE PUSH1 0x64 ADD PUSH2 0x9C1 JUMP JUMPDEST PUSH1 0x0 SLOAD PUSH2 0x100 SWAP1 DIV PUSH1 0xFF AND PUSH2 0x3036 JUMPI PUSH1 0x40 MLOAD PUSH3 0x461BCD PUSH1 0xE5 SHL DUP2 MSTORE PUSH1 0x4 ADD PUSH2 0x9C1 SWAP1 PUSH2 0x3A11 JUMP JUMPDEST PUSH1 0x33 DUP1 SLOAD PUSH1 0xFF NOT AND SWAP1 SSTORE JUMP JUMPDEST PUSH1 0x0 SLOAD PUSH2 0x100 SWAP1 DIV PUSH1 0xFF AND PUSH2 0x3069 JUMPI PUSH1 0x40 MLOAD PUSH3 0x461BCD PUSH1 0xE5 SHL DUP2 MSTORE PUSH1 0x4 ADD PUSH2 0x9C1 SWAP1 PUSH2 0x3A11 JUMP JUMPDEST PUSH2 0xCF9 CALLER PUSH2 0x2C58 JUMP JUMPDEST PUSH2 0x307B DUP2 PUSH2 0x2EFF JUMP JUMPDEST PUSH1 0x40 MLOAD PUSH1 0x1 PUSH1 0x1 PUSH1 0xA0 SHL SUB DUP3 AND SWAP1 PUSH32 0xBC7CD75A20EE27FD9ADEBAB32041F755214DBC6BFFA90CC0225B39DA2E5C2D3B SWAP1 PUSH1 0x0 SWAP1 LOG2 POP JUMP JUMPDEST PUSH1 0x60 PUSH1 0x1 PUSH1 0x1 PUSH1 0xA0 SHL SUB DUP4 AND EXTCODESIZE PUSH2 0x311A JUMPI PUSH1 0x40 MLOAD PUSH3 0x461BCD PUSH1 0xE5 SHL DUP2 MSTORE PUSH1 0x20 PUSH1 0x4 DUP3 ADD MSTORE PUSH1 0x26 PUSH1 0x24 DUP3 ADD MSTORE PUSH32 0x416464726573733A2064656C65676174652063616C6C20746F206E6F6E2D636F PUSH1 0x44 DUP3 ADD MSTORE PUSH6 0x1B9D1C9858DD PUSH1 0xD2 SHL PUSH1 0x64 DUP3 ADD MSTORE PUSH1 0x84 ADD PUSH2 0x9C1 JUMP JUMPDEST PUSH1 0x0 DUP1 DUP5 PUSH1 0x1 PUSH1 0x1 PUSH1 0xA0 SHL SUB AND DUP5 PUSH1 0x40 MLOAD PUSH2 0x3135 SWAP2 SWAP1 PUSH2 0x3A80 JUMP JUMPDEST PUSH1 0x0 PUSH1 0x40 MLOAD DUP1 DUP4 SUB DUP2 DUP6 GAS DELEGATECALL SWAP2 POP POP RETURNDATASIZE DUP1 PUSH1 0x0 DUP2 EQ PUSH2 0x3170 JUMPI PUSH1 0x40 MLOAD SWAP2 POP PUSH1 0x1F NOT PUSH1 0x3F RETURNDATASIZE ADD AND DUP3 ADD PUSH1 0x40 MSTORE RETURNDATASIZE DUP3 MSTORE RETURNDATASIZE PUSH1 0x0 PUSH1 0x20 DUP5 ADD RETURNDATACOPY PUSH2 0x3175 JUMP JUMPDEST PUSH1 0x60 SWAP2 POP JUMPDEST POP SWAP2 POP SWAP2 POP PUSH2 0x2267 DUP3 DUP3 PUSH1 0x40 MLOAD DUP1 PUSH1 0x60 ADD PUSH1 0x40 MSTORE DUP1 PUSH1 0x27 DUP2 MSTORE PUSH1 0x20 ADD PUSH2 0x3AF0 PUSH1 0x27 SWAP2 CODECOPY PUSH1 0x60 DUP4 ISZERO PUSH2 0x31A7 JUMPI POP DUP2 PUSH2 0x964 JUMP JUMPDEST PUSH2 0x964 DUP4 DUP4 DUP2 MLOAD ISZERO PUSH2 0x31BC JUMPI DUP2 MLOAD DUP1 DUP4 PUSH1 0x20 ADD REVERT JUMPDEST DUP1 PUSH1 0x40 MLOAD PUSH3 0x461BCD PUSH1 0xE5 SHL DUP2 MSTORE PUSH1 0x4 ADD PUSH2 0x9C1 SWAP2 SWAP1 PUSH2 0x3A9C JUMP JUMPDEST PUSH1 0x1 PUSH1 0x1 PUSH1 0xA0 SHL SUB DUP2 AND DUP2 EQ PUSH2 0xC55 JUMPI PUSH1 0x0 DUP1 REVERT JUMPDEST PUSH1 0x0 PUSH1 0x20 DUP3 DUP5 SUB SLT ISZERO PUSH2 0x31FD JUMPI PUSH1 0x0 DUP1 REVERT JUMPDEST DUP2 CALLDATALOAD PUSH2 0x964 DUP2 PUSH2 0x31D6 JUMP JUMPDEST PUSH1 0x0 PUSH1 0x20 DUP3 DUP5 SUB SLT ISZERO PUSH2 0x321A JUMPI PUSH1 0x0 DUP1 REVERT JUMPDEST POP CALLDATALOAD SWAP2 SWAP1 POP JUMP JUMPDEST PUSH1 0x0 DUP1 PUSH1 0x40 DUP4 DUP6 SUB SLT ISZERO PUSH2 0x3234 JUMPI PUSH1 0x0 DUP1 REVERT JUMPDEST DUP3 CALLDATALOAD PUSH2 0x323F DUP2 PUSH2 0x31D6 JUMP JUMPDEST SWAP5 PUSH1 0x20 SWAP4 SWAP1 SWAP4 ADD CALLDATALOAD SWAP4 POP POP POP JUMP JUMPDEST PUSH1 0x0 DUP1 DUP4 PUSH1 0x1F DUP5 ADD SLT PUSH2 0x325F JUMPI PUSH1 0x0 DUP1 REVERT JUMPDEST POP DUP2 CALLDATALOAD PUSH8 0xFFFFFFFFFFFFFFFF DUP2 GT ISZERO PUSH2 0x3277 JUMPI PUSH1 0x0 DUP1 REVERT JUMPDEST PUSH1 0x20 DUP4 ADD SWAP2 POP DUP4 PUSH1 0x20 DUP3 PUSH1 0x5 SHL DUP6 ADD ADD GT ISZERO PUSH2 0x3292 JUMPI PUSH1 0x0 DUP1 REVERT JUMPDEST SWAP3 POP SWAP3 SWAP1 POP JUMP JUMPDEST PUSH1 0x0 DUP1 PUSH1 0x20 DUP4 DUP6 SUB SLT ISZERO PUSH2 0x32AC JUMPI PUSH1 0x0 DUP1 REVERT JUMPDEST DUP3 CALLDATALOAD PUSH8 0xFFFFFFFFFFFFFFFF DUP2 GT ISZERO PUSH2 0x32C3 JUMPI PUSH1 0x0 DUP1 REVERT JUMPDEST PUSH2 0x32CF DUP6 DUP3 DUP7 ADD PUSH2 0x324D JUMP JUMPDEST SWAP1 SWAP7 SWAP1 SWAP6 POP SWAP4 POP POP POP POP JUMP JUMPDEST PUSH4 0x4E487B71 PUSH1 0xE0 SHL PUSH1 0x0 MSTORE PUSH1 0x41 PUSH1 0x4 MSTORE PUSH1 0x24 PUSH1 0x0 REVERT JUMPDEST PUSH1 0x0 DUP1 PUSH1 0x40 DUP4 DUP6 SUB SLT ISZERO PUSH2 0x3304 JUMPI PUSH1 0x0 DUP1 REVERT JUMPDEST DUP3 CALLDATALOAD PUSH2 0x330F DUP2 PUSH2 0x31D6 JUMP JUMPDEST SWAP2 POP PUSH1 0x20 DUP4 ADD CALLDATALOAD PUSH8 0xFFFFFFFFFFFFFFFF DUP1 DUP3 GT ISZERO PUSH2 0x332C JUMPI PUSH1 0x0 DUP1 REVERT JUMPDEST DUP2 DUP6 ADD SWAP2 POP DUP6 PUSH1 0x1F DUP4 ADD SLT PUSH2 0x3340 JUMPI PUSH1 0x0 DUP1 REVERT JUMPDEST DUP2 CALLDATALOAD DUP2 DUP2 GT ISZERO PUSH2 0x3352 JUMPI PUSH2 0x3352 PUSH2 0x32DB JUMP JUMPDEST PUSH1 0x40 MLOAD PUSH1 0x1F DUP3 ADD PUSH1 0x1F NOT SWAP1 DUP2 AND PUSH1 0x3F ADD AND DUP2 ADD SWAP1 DUP4 DUP3 GT DUP2 DUP4 LT OR ISZERO PUSH2 0x337A JUMPI PUSH2 0x337A PUSH2 0x32DB JUMP JUMPDEST DUP2 PUSH1 0x40 MSTORE DUP3 DUP2 MSTORE DUP9 PUSH1 0x20 DUP5 DUP8 ADD ADD GT ISZERO PUSH2 0x3393 JUMPI PUSH1 0x0 DUP1 REVERT JUMPDEST DUP3 PUSH1 0x20 DUP7 ADD PUSH1 0x20 DUP4 ADD CALLDATACOPY PUSH1 0x0 PUSH1 0x20 DUP5 DUP4 ADD ADD MSTORE DUP1 SWAP6 POP POP POP POP POP POP SWAP3 POP SWAP3 SWAP1 POP JUMP JUMPDEST PUSH1 0x0 DUP2 MLOAD DUP1 DUP5 MSTORE PUSH1 0x20 DUP1 DUP6 ADD SWAP5 POP DUP1 DUP5 ADD PUSH1 0x0 JUMPDEST DUP4 DUP2 LT ISZERO PUSH2 0x33E5 JUMPI DUP2 MLOAD DUP8 MSTORE SWAP6 DUP3 ADD SWAP6 SWAP1 DUP3 ADD SWAP1 PUSH1 0x1 ADD PUSH2 0x33C9 JUMP JUMPDEST POP SWAP5 SWAP6 SWAP5 POP POP POP POP POP JUMP JUMPDEST PUSH1 0x80 DUP2 MSTORE PUSH1 0x0 PUSH2 0x3403 PUSH1 0x80 DUP4 ADD DUP8 PUSH2 0x33B5 JUMP JUMPDEST DUP3 DUP2 SUB PUSH1 0x20 DUP5 ADD MSTORE PUSH2 0x3415 DUP2 DUP8 PUSH2 0x33B5 JUMP JUMPDEST SWAP1 POP DUP3 DUP2 SUB PUSH1 0x40 DUP5 ADD MSTORE PUSH2 0x3429 DUP2 DUP7 PUSH2 0x33B5 JUMP JUMPDEST SWAP2 POP POP DUP3 PUSH1 0x60 DUP4 ADD MSTORE SWAP6 SWAP5 POP POP POP POP POP JUMP JUMPDEST PUSH1 0x0 DUP1 PUSH1 0x0 PUSH1 0x60 DUP5 DUP7 SUB SLT ISZERO PUSH2 0x3450 JUMPI PUSH1 0x0 DUP1 REVERT JUMPDEST DUP4 CALLDATALOAD PUSH2 0x345B DUP2 PUSH2 0x31D6 JUMP JUMPDEST SWAP3 POP PUSH1 0x20 DUP5 ADD CALLDATALOAD PUSH2 0x346B DUP2 PUSH2 0x31D6 JUMP JUMPDEST SWAP3 SWAP6 SWAP3 SWAP5 POP POP POP PUSH1 0x40 SWAP2 SWAP1 SWAP2 ADD CALLDATALOAD SWAP1 JUMP JUMPDEST PUSH1 0x20 DUP1 DUP3 MSTORE DUP3 MLOAD DUP3 DUP3 ADD DUP2 SWAP1 MSTORE PUSH1 0x0 SWAP2 SWAP1 DUP5 DUP3 ADD SWAP1 PUSH1 0x40 DUP6 ADD SWAP1 DUP5 JUMPDEST DUP2 DUP2 LT ISZERO PUSH2 0x34BD JUMPI DUP4 MLOAD PUSH1 0x1 PUSH1 0x1 PUSH1 0xA0 SHL SUB AND DUP4 MSTORE SWAP3 DUP5 ADD SWAP3 SWAP2 DUP5 ADD SWAP2 PUSH1 0x1 ADD PUSH2 0x3498 JUMP JUMPDEST POP SWAP1 SWAP7 SWAP6 POP POP POP POP POP POP JUMP JUMPDEST PUSH1 0x20 DUP2 MSTORE PUSH1 0x0 PUSH2 0x964 PUSH1 0x20 DUP4 ADD DUP5 PUSH2 0x33B5 JUMP JUMPDEST PUSH1 0x0 DUP1 PUSH1 0x0 DUP1 PUSH1 0x80 DUP6 DUP8 SUB SLT ISZERO PUSH2 0x34F2 JUMPI PUSH1 0x0 DUP1 REVERT JUMPDEST DUP5 CALLDATALOAD PUSH2 0x34FD DUP2 PUSH2 0x31D6 JUMP JUMPDEST SWAP4 POP PUSH1 0x20 DUP6 ADD CALLDATALOAD PUSH2 0x350D DUP2 PUSH2 0x31D6 JUMP JUMPDEST SWAP4 SWAP7 SWAP4 SWAP6 POP POP POP POP PUSH1 0x40 DUP3 ADD CALLDATALOAD SWAP2 PUSH1 0x60 ADD CALLDATALOAD SWAP1 JUMP JUMPDEST PUSH1 0xFF DUP2 AND DUP2 EQ PUSH2 0xC55 JUMPI PUSH1 0x0 DUP1 REVERT JUMPDEST PUSH1 0x0 PUSH1 0x20 DUP3 DUP5 SUB SLT ISZERO PUSH2 0x3543 JUMPI PUSH1 0x0 DUP1 REVERT JUMPDEST DUP2 CALLDATALOAD PUSH2 0x964 DUP2 PUSH2 0x3522 JUMP JUMPDEST DUP1 ISZERO ISZERO DUP2 EQ PUSH2 0xC55 JUMPI PUSH1 0x0 DUP1 REVERT JUMPDEST PUSH1 0x0 PUSH1 0x20 DUP3 DUP5 SUB SLT ISZERO PUSH2 0x356E JUMPI PUSH1 0x0 DUP1 REVERT JUMPDEST DUP2 CALLDATALOAD PUSH2 0x964 DUP2 PUSH2 0x354E JUMP JUMPDEST PUSH1 0x20 DUP2 MSTORE PUSH2 0x358C PUSH1 0x20 DUP3 ADD DUP4 MLOAD ISZERO ISZERO SWAP1 MSTORE JUMP JUMPDEST PUSH1 0x0 PUSH1 0x20 DUP4 ADD MLOAD PUSH2 0x35A8 PUSH1 0x40 DUP5 ADD DUP3 PUSH1 0x1 PUSH1 0x1 PUSH1 0xA0 SHL SUB AND SWAP1 MSTORE JUMP JUMPDEST POP PUSH1 0x40 DUP4 ADD MLOAD PUSH1 0x60 DUP4 ADD MSTORE PUSH1 0x60 DUP4 ADD MLOAD PUSH1 0x80 DUP4 ADD MSTORE PUSH1 0x80 DUP4 ADD MLOAD PUSH1 0xA0 DUP4 ADD MSTORE PUSH1 0xA0 DUP4 ADD MLOAD PUSH1 0xC0 DUP4 ADD MSTORE PUSH1 0xC0 DUP4 ADD MLOAD PUSH1 0xE0 DUP4 ADD MSTORE PUSH1 0xE0 DUP4 ADD MLOAD PUSH2 0x100 DUP2 DUP2 DUP6 ADD MSTORE DUP1 DUP6 ADD MLOAD SWAP2 POP POP PUSH2 0x120 DUP2 DUP2 DUP6 ADD MSTORE DUP1 DUP6 ADD MLOAD SWAP2 POP POP PUSH2 0x140 DUP1 DUP2 DUP6 ADD MSTORE POP PUSH2 0x3615 PUSH2 0x160 DUP5 ADD DUP3 PUSH2 0x33B5 JUMP JUMPDEST SWAP5 SWAP4 POP POP POP POP JUMP JUMPDEST PUSH1 0x20 DUP2 MSTORE DUP2 MLOAD PUSH1 0x20 DUP3 ADD MSTORE PUSH1 0x0 PUSH1 0x20 DUP4 ADD MLOAD PUSH1 0x80 PUSH1 0x40 DUP5 ADD MSTORE PUSH2 0x3643 PUSH1 0xA0 DUP5 ADD DUP3 PUSH2 0x33B5 JUMP JUMPDEST SWAP1 POP PUSH1 0x40 DUP5 ADD MLOAD ISZERO ISZERO PUSH1 0x60 DUP5 ADD MSTORE PUSH1 0x60 DUP5 ADD MLOAD PUSH1 0x1F NOT DUP5 DUP4 SUB ADD PUSH1 0x80 DUP6 ADD MSTORE PUSH2 0x2267 DUP3 DUP3 PUSH2 0x33B5 JUMP JUMPDEST PUSH1 0x0 DUP1 PUSH1 0x0 DUP1 PUSH1 0x0 DUP1 PUSH1 0x60 DUP8 DUP10 SUB SLT ISZERO PUSH2 0x3685 JUMPI PUSH1 0x0 DUP1 REVERT JUMPDEST DUP7 CALLDATALOAD PUSH8 0xFFFFFFFFFFFFFFFF DUP1 DUP3 GT ISZERO PUSH2 0x369D JUMPI PUSH1 0x0 DUP1 REVERT JUMPDEST PUSH2 0x36A9 DUP11 DUP4 DUP12 ADD PUSH2 0x324D JUMP JUMPDEST SWAP1 SWAP9 POP SWAP7 POP PUSH1 0x20 DUP10 ADD CALLDATALOAD SWAP2 POP DUP1 DUP3 GT ISZERO PUSH2 0x36C2 JUMPI PUSH1 0x0 DUP1 REVERT JUMPDEST PUSH2 0x36CE DUP11 DUP4 DUP12 ADD PUSH2 0x324D JUMP JUMPDEST SWAP1 SWAP7 POP SWAP5 POP PUSH1 0x40 DUP10 ADD CALLDATALOAD SWAP2 POP DUP1 DUP3 GT ISZERO PUSH2 0x36E7 JUMPI PUSH1 0x0 DUP1 REVERT JUMPDEST POP PUSH2 0x36F4 DUP10 DUP3 DUP11 ADD PUSH2 0x324D JUMP JUMPDEST SWAP8 SWAP11 SWAP7 SWAP10 POP SWAP5 SWAP8 POP SWAP3 SWAP6 SWAP4 SWAP5 SWAP3 POP POP POP JUMP JUMPDEST PUSH1 0x0 PUSH1 0x20 DUP3 DUP5 SUB SLT ISZERO PUSH2 0x3718 JUMPI PUSH1 0x0 DUP1 REVERT JUMPDEST POP MLOAD SWAP2 SWAP1 POP JUMP JUMPDEST PUSH1 0x0 PUSH1 0x20 DUP3 DUP5 SUB SLT ISZERO PUSH2 0x3731 JUMPI PUSH1 0x0 DUP1 REVERT JUMPDEST DUP2 MLOAD PUSH2 0x964 DUP2 PUSH2 0x3522 JUMP JUMPDEST PUSH1 0x20 DUP1 DUP3 MSTORE PUSH1 0x30 SWAP1 DUP3 ADD MSTORE PUSH32 0x596F7572206163636F756E742069732064697361626C65642E20506C65617365 PUSH1 0x40 DUP3 ADD MSTORE PUSH16 0x1031B7B73A3930B1BA1030B236B4B717 PUSH1 0x81 SHL PUSH1 0x60 DUP3 ADD MSTORE PUSH1 0x80 ADD SWAP1 JUMP JUMPDEST PUSH4 0x4E487B71 PUSH1 0xE0 SHL PUSH1 0x0 MSTORE PUSH1 0x11 PUSH1 0x4 MSTORE PUSH1 0x24 PUSH1 0x0 REVERT JUMPDEST DUP1 DUP3 ADD DUP1 DUP3 GT ISZERO PUSH2 0xB5F JUMPI PUSH2 0xB5F PUSH2 0x378C JUMP JUMPDEST PUSH1 0x20 DUP1 DUP3 MSTORE PUSH1 0x2C SWAP1 DUP3 ADD MSTORE PUSH32 0x46756E6374696F6E206D7573742062652063616C6C6564207468726F75676820 PUSH1 0x40 DUP3 ADD MSTORE PUSH12 0x19195B1959D85D1958D85B1B PUSH1 0xA2 SHL PUSH1 0x60 DUP3 ADD MSTORE PUSH1 0x80 ADD SWAP1 JUMP JUMPDEST PUSH1 0x20 DUP1 DUP3 MSTORE PUSH1 0x2C SWAP1 DUP3 ADD MSTORE PUSH32 0x46756E6374696F6E206D7573742062652063616C6C6564207468726F75676820 PUSH1 0x40 DUP3 ADD MSTORE PUSH12 0x6163746976652070726F7879 PUSH1 0xA0 SHL PUSH1 0x60 DUP3 ADD MSTORE PUSH1 0x80 ADD SWAP1 JUMP JUMPDEST PUSH4 0x4E487B71 PUSH1 0xE0 SHL PUSH1 0x0 MSTORE PUSH1 0x32 PUSH1 0x4 MSTORE PUSH1 0x24 PUSH1 0x0 REVERT JUMPDEST PUSH1 0x0 PUSH1 0x1 DUP3 ADD PUSH2 0x3875 JUMPI PUSH2 0x3875 PUSH2 0x378C JUMP JUMPDEST POP PUSH1 0x1 ADD SWAP1 JUMP JUMPDEST PUSH1 0x0 PUSH1 0x20 DUP3 DUP5 SUB SLT ISZERO PUSH2 0x388E JUMPI PUSH1 0x0 DUP1 REVERT JUMPDEST DUP2 MLOAD PUSH2 0x964 DUP2 PUSH2 0x354E JUMP JUMPDEST PUSH1 0x0 PUSH1 0x20 DUP3 DUP5 SUB SLT ISZERO PUSH2 0x38AB JUMPI PUSH1 0x0 DUP1 REVERT JUMPDEST DUP2 MLOAD PUSH2 0x964 DUP2 PUSH2 0x31D6 JUMP JUMPDEST PUSH1 0x0 PUSH1 0xFF DUP3 AND PUSH1 0xFF DUP2 SUB PUSH2 0x38CC JUMPI PUSH2 0x38CC PUSH2 0x378C JUMP JUMPDEST PUSH1 0x1 ADD SWAP3 SWAP2 POP POP JUMP JUMPDEST DUP2 DUP2 SUB DUP2 DUP2 GT ISZERO PUSH2 0xB5F JUMPI PUSH2 0xB5F PUSH2 0x378C JUMP JUMPDEST PUSH1 0x1 DUP2 DUP2 JUMPDEST DUP1 DUP6 GT ISZERO PUSH2 0x3923 JUMPI DUP2 PUSH1 0x0 NOT DIV DUP3 GT ISZERO PUSH2 0x3909 JUMPI PUSH2 0x3909 PUSH2 0x378C JUMP JUMPDEST DUP1 DUP6 AND ISZERO PUSH2 0x3916 JUMPI SWAP2 DUP2 MUL SWAP2 JUMPDEST SWAP4 DUP5 SHR SWAP4 SWAP1 DUP1 MUL SWAP1 PUSH2 0x38ED JUMP JUMPDEST POP SWAP3 POP SWAP3 SWAP1 POP JUMP JUMPDEST PUSH1 0x0 DUP3 PUSH2 0x393A JUMPI POP PUSH1 0x1 PUSH2 0xB5F JUMP JUMPDEST DUP2 PUSH2 0x3947 JUMPI POP PUSH1 0x0 PUSH2 0xB5F JUMP JUMPDEST DUP2 PUSH1 0x1 DUP2 EQ PUSH2 0x395D JUMPI PUSH1 0x2 DUP2 EQ PUSH2 0x3967 JUMPI PUSH2 0x3983 JUMP JUMPDEST PUSH1 0x1 SWAP2 POP POP PUSH2 0xB5F JUMP JUMPDEST PUSH1 0xFF DUP5 GT ISZERO PUSH2 0x3978 JUMPI PUSH2 0x3978 PUSH2 0x378C JUMP JUMPDEST POP POP PUSH1 0x1 DUP3 SHL PUSH2 0xB5F JUMP JUMPDEST POP PUSH1 0x20 DUP4 LT PUSH2 0x133 DUP4 LT AND PUSH1 0x4E DUP5 LT PUSH1 0xB DUP5 LT AND OR ISZERO PUSH2 0x39A6 JUMPI POP DUP2 DUP2 EXP PUSH2 0xB5F JUMP JUMPDEST PUSH2 0x39B0 DUP4 DUP4 PUSH2 0x38E8 JUMP JUMPDEST DUP1 PUSH1 0x0 NOT DIV DUP3 GT ISZERO PUSH2 0x39C4 JUMPI PUSH2 0x39C4 PUSH2 0x378C JUMP JUMPDEST MUL SWAP4 SWAP3 POP POP POP JUMP JUMPDEST PUSH1 0x0 PUSH2 0x964 DUP4 DUP4 PUSH2 0x392B JUMP JUMPDEST PUSH1 0x0 DUP3 PUSH2 0x39F5 JUMPI PUSH4 0x4E487B71 PUSH1 0xE0 SHL PUSH1 0x0 MSTORE PUSH1 0x12 PUSH1 0x4 MSTORE PUSH1 0x24 PUSH1 0x0 REVERT JUMPDEST POP DIV SWAP1 JUMP JUMPDEST DUP1 DUP3 MUL DUP2 ISZERO DUP3 DUP3 DIV DUP5 EQ OR PUSH2 0xB5F JUMPI PUSH2 0xB5F PUSH2 0x378C JUMP JUMPDEST PUSH1 0x20 DUP1 DUP3 MSTORE PUSH1 0x2B SWAP1 DUP3 ADD MSTORE PUSH32 0x496E697469616C697A61626C653A20636F6E7472616374206973206E6F742069 PUSH1 0x40 DUP3 ADD MSTORE PUSH11 0x6E697469616C697A696E67 PUSH1 0xA8 SHL PUSH1 0x60 DUP3 ADD MSTORE PUSH1 0x80 ADD SWAP1 JUMP JUMPDEST PUSH1 0x0 JUMPDEST DUP4 DUP2 LT ISZERO PUSH2 0x3A77 JUMPI DUP2 DUP2 ADD MLOAD DUP4 DUP3 ADD MSTORE PUSH1 0x20 ADD PUSH2 0x3A5F JUMP JUMPDEST POP POP PUSH1 0x0 SWAP2 ADD MSTORE JUMP JUMPDEST PUSH1 0x0 DUP3 MLOAD PUSH2 0x3A92 DUP2 DUP5 PUSH1 0x20 DUP8 ADD PUSH2 0x3A5C JUMP JUMPDEST SWAP2 SWAP1 SWAP2 ADD SWAP3 SWAP2 POP POP JUMP JUMPDEST PUSH1 0x20 DUP2 MSTORE PUSH1 0x0 DUP3 MLOAD DUP1 PUSH1 0x20 DUP5 ADD MSTORE PUSH2 0x3ABB DUP2 PUSH1 0x40 DUP6 ADD PUSH1 0x20 DUP8 ADD PUSH2 0x3A5C JUMP JUMPDEST PUSH1 0x1F ADD PUSH1 0x1F NOT AND SWAP2 SWAP1 SWAP2 ADD PUSH1 0x40 ADD SWAP3 SWAP2 POP POP JUMP INVALID CALLDATASIZE ADDMOD SWAP5 LOG1 EXTCODESIZE LOG1 LOG3 0x21 MOD PUSH8 0xC828492DB98DCA3E KECCAK256 PUSH23 0xCC3735A920A3CA505D382BBC416464726573733A206C6F PUSH24 0x2D6C6576656C2064656C65676174652063616C6C20666169 PUSH13 0x6564A2646970667358221220A4 GAS SSTORE 0xB2 DUP13 LT 0xCA PUSH3 0x20844B SWAP15 PUSH9 0x5EDAA3B92FDE18133B LOG3 0xB3 0xE4 ORIGIN 0xAA GASPRICE JUMPI 0xC3 0xD7 MSTORE8 PUSH5 0x736F6C6343 STOP ADDMOD GT STOP CALLER "},"methodIdentifiers":{"activeStakersList()":"dba4358c","claimStakingReward(uint256)":"239cd4a4","claimStakingRewardAdmin(uint256[])":"88ed4f91","disableAccounts(address[])":"3b09098f","enableAccounts(address[])":"53bdadea","getActiveStakingIDs()":"6f72693b","getClaimableBalance(address)":"06def802","getDisabledUsersList()":"68ed7f56","getPackages()":"5c05a89f","getStakingCappings()":"e3a51f58","getStakingReward(uint256)":"abfe35ad","getStakingTimeRemaining(uint256)":"d8ba90b7","getTotalStakingRewardDistributed()":"7ce574bf","getTotalValueStaked()":"deede654","getUserAllStakingsRewards(address)":"9c3fe28a","getUserStakingIDs(address)":"6f51b20b","getUserTotalRewardClaimed(address)":"ae3132e8","getUserTotalStakedValue(address)":"469bbc12","initialize()":"8129fc1c","isAccountDisabled(address)":"a40b5891","isStaked(address)":"6177fd18","owner()":"8da5cb5b","pause()":"8456cb59","paused()":"5c975abb","proxiableUUID()":"52d1902d","renounceOwnership()":"715018a6","setIsPayReferralOnStaking(bool)":"9d3610dc","setMaxPackageLength(uint8)":"97eee060","setMinStakingValueInUSD(uint256)":"351387b2","setMinWithdrawLimit(uint256)":"4d574c56","setMinWithdrawLimitMultiplier(uint256)":"086f1647","setPackage(uint256[],uint256[],uint256[])":"fc57e69b","setRewardRateDecimals(uint8)":"aeb6263d","setTimeLimitRewardClaim(uint256)":"58628d57","stake(address,uint256)":"adc9772e","stakeByAdmin(address,address,uint256,uint256)":"707fd3c6","stakeInfoMap(uint256)":"a7566b75","transferOwnership(address)":"f2fde38b","unStake(uint256)":"5d3eea91","unpause()":"3f4ba83a","upgradeTo(address)":"3659cfe6","upgradeToAndCall(address,bytes)":"4f1ef286","userAccountMap(address)":"ba4f678e","usersList()":"77b6af52","withdrawNativeFunds(address,uint256)":"26792aca","withdrawTokens(address,address,uint256)":"5e35359e"}},"storageLayout":{"storage":[{"astId":573,"contract":"contracts/StakingUpgradeable.sol:StakingUpgradeable","label":"_initialized","offset":0,"slot":"0","type":"t_uint8"},{"astId":576,"contract":"contracts/StakingUpgradeable.sol:StakingUpgradeable","label":"_initializing","offset":1,"slot":"0","type":"t_bool"},{"astId":1401,"contract":"contracts/StakingUpgradeable.sol:StakingUpgradeable","label":"__gap","offset":0,"slot":"1","type":"t_array(t_uint256)50_storage"},{"astId":892,"contract":"contracts/StakingUpgradeable.sol:StakingUpgradeable","label":"_paused","offset":0,"slot":"51","type":"t_bool"},{"astId":997,"contract":"contracts/StakingUpgradeable.sol:StakingUpgradeable","label":"__gap","offset":0,"slot":"52","type":"t_array(t_uint256)49_storage"},{"astId":56,"contract":"contracts/StakingUpgradeable.sol:StakingUpgradeable","label":"_owner","offset":0,"slot":"101","type":"t_address"},{"astId":176,"contract":"contracts/StakingUpgradeable.sol:StakingUpgradeable","label":"__gap","offset":0,"slot":"102","type":"t_array(t_uint256)49_storage"},{"astId":555,"contract":"contracts/StakingUpgradeable.sol:StakingUpgradeable","label":"__gap","offset":0,"slot":"151","type":"t_array(t_uint256)50_storage"},{"astId":870,"contract":"contracts/StakingUpgradeable.sol:StakingUpgradeable","label":"__gap","offset":0,"slot":"201","type":"t_array(t_uint256)50_storage"},{"astId":5645,"contract":"contracts/StakingUpgradeable.sol:StakingUpgradeable","label":"_variablesContract","offset":0,"slot":"251","type":"t_address"},{"astId":5647,"contract":"contracts/StakingUpgradeable.sol:StakingUpgradeable","label":"_priceOracleContract","offset":0,"slot":"252","type":"t_address"},{"astId":5649,"contract":"contracts/StakingUpgradeable.sol:StakingUpgradeable","label":"_userIDsCount","offset":0,"slot":"253","type":"t_uint256"},{"astId":5651,"contract":"contracts/StakingUpgradeable.sol:StakingUpgradeable","label":"_stakingCount","offset":0,"slot":"254","type":"t_uint256"},{"astId":5653,"contract":"contracts/StakingUpgradeable.sol:StakingUpgradeable","label":"_totalValueStaked","offset":0,"slot":"255","type":"t_uint256"},{"astId":5655,"contract":"contracts/StakingUpgradeable.sol:StakingUpgradeable","label":"_totalValueStakedUSD","offset":0,"slot":"256","type":"t_uint256"},{"astId":5657,"contract":"contracts/StakingUpgradeable.sol:StakingUpgradeable","label":"_totalRewardsDistributed","offset":0,"slot":"257","type":"t_uint256"},{"astId":5659,"contract":"contracts/StakingUpgradeable.sol:StakingUpgradeable","label":"_rewardRateDecimals","offset":0,"slot":"258","type":"t_uint16"},{"astId":5661,"contract":"contracts/StakingUpgradeable.sol:StakingUpgradeable","label":"_minStakingValueInUSD","offset":0,"slot":"259","type":"t_uint256"},{"astId":5663,"contract":"contracts/StakingUpgradeable.sol:StakingUpgradeable","label":"_isPayReferralOnStaking","offset":0,"slot":"260","type":"t_bool"},{"astId":5665,"contract":"contracts/StakingUpgradeable.sol:StakingUpgradeable","label":"_rewardClaimTimeLimit","offset":0,"slot":"261","type":"t_uint256"},{"astId":5667,"contract":"contracts/StakingUpgradeable.sol:StakingUpgradeable","label":"_maxPackageLength","offset":0,"slot":"262","type":"t_uint8"},{"astId":5669,"contract":"contracts/StakingUpgradeable.sol:StakingUpgradeable","label":"_minWithdrawLimit","offset":0,"slot":"263","type":"t_uint256"},{"astId":5671,"contract":"contracts/StakingUpgradeable.sol:StakingUpgradeable","label":"_minWithdrawLimitMultiplier","offset":0,"slot":"264","type":"t_uint256"},{"astId":5716,"contract":"contracts/StakingUpgradeable.sol:StakingUpgradeable","label":"accounts","offset":0,"slot":"265","type":"t_mapping(t_address,t_struct(Account)5682_storage)"},{"astId":5720,"contract":"contracts/StakingUpgradeable.sol:StakingUpgradeable","label":"userID","offset":0,"slot":"266","type":"t_mapping(t_uint256,t_address)"},{"astId":5725,"contract":"contracts/StakingUpgradeable.sol:StakingUpgradeable","label":"stakeInfo","offset":0,"slot":"267","type":"t_mapping(t_uint256,t_struct(StakeInfo)5704_storage)"},{"astId":5730,"contract":"contracts/StakingUpgradeable.sol:StakingUpgradeable","label":"package","offset":0,"slot":"268","type":"t_mapping(t_uint256,t_struct(Package)5711_storage)"}],"types":{"t_address":{"encoding":"inplace","label":"address","numberOfBytes":"20"},"t_array(t_uint256)49_storage":{"base":"t_uint256","encoding":"inplace","label":"uint256[49]","numberOfBytes":"1568"},"t_array(t_uint256)50_storage":{"base":"t_uint256","encoding":"inplace","label":"uint256[50]","numberOfBytes":"1600"},"t_array(t_uint256)dyn_storage":{"base":"t_uint256","encoding":"dynamic_array","label":"uint256[]","numberOfBytes":"32"},"t_bool":{"encoding":"inplace","label":"bool","numberOfBytes":"1"},"t_mapping(t_address,t_struct(Account)5682_storage)":{"encoding":"mapping","key":"t_address","label":"mapping(address => struct StakingUpgradeable.Account)","numberOfBytes":"32","value":"t_struct(Account)5682_storage"},"t_mapping(t_uint256,t_address)":{"encoding":"mapping","key":"t_uint256","label":"mapping(uint256 => address)","numberOfBytes":"32","value":"t_address"},"t_mapping(t_uint256,t_struct(Package)5711_storage)":{"encoding":"mapping","key":"t_uint256","label":"mapping(uint256 => struct StakingUpgradeable.Package)","numberOfBytes":"32","value":"t_struct(Package)5711_storage"},"t_mapping(t_uint256,t_struct(StakeInfo)5704_storage)":{"encoding":"mapping","key":"t_uint256","label":"mapping(uint256 => struct StakingUpgradeable.StakeInfo)","numberOfBytes":"32","value":"t_struct(StakeInfo)5704_storage"},"t_struct(Account)5682_storage":{"encoding":"inplace","label":"struct StakingUpgradeable.Account","members":[{"astId":5673,"contract":"contracts/StakingUpgradeable.sol:StakingUpgradeable","label":"userID","offset":0,"slot":"0","type":"t_uint256"},{"astId":5676,"contract":"contracts/StakingUpgradeable.sol:StakingUpgradeable","label":"stakingID","offset":0,"slot":"1","type":"t_array(t_uint256)dyn_storage"},{"astId":5678,"contract":"contracts/StakingUpgradeable.sol:StakingUpgradeable","label":"isDisabled","offset":0,"slot":"2","type":"t_bool"},{"astId":5681,"contract":"contracts/StakingUpgradeable.sol:StakingUpgradeable","label":"blockNumber","offset":0,"slot":"3","type":"t_array(t_uint256)dyn_storage"}],"numberOfBytes":"128"},"t_struct(Package)5711_storage":{"encoding":"inplace","label":"struct StakingUpgradeable.Package","members":[{"astId":5706,"contract":"contracts/StakingUpgradeable.sol:StakingUpgradeable","label":"value","offset":0,"slot":"0","type":"t_uint256"},{"astId":5708,"contract":"contracts/StakingUpgradeable.sol:StakingUpgradeable","label":"rewardRate","offset":0,"slot":"1","type":"t_uint256"},{"astId":5710,"contract":"contracts/StakingUpgradeable.sol:StakingUpgradeable","label":"duration","offset":0,"slot":"2","type":"t_uint256"}],"numberOfBytes":"96"},"t_struct(StakeInfo)5704_storage":{"encoding":"inplace","label":"struct StakingUpgradeable.StakeInfo","members":[{"astId":5684,"contract":"contracts/StakingUpgradeable.sol:StakingUpgradeable","label":"isStaked","offset":0,"slot":"0","type":"t_bool"},{"astId":5686,"contract":"contracts/StakingUpgradeable.sol:StakingUpgradeable","label":"owner","offset":1,"slot":"0","type":"t_address"},{"astId":5688,"contract":"contracts/StakingUpgradeable.sol:StakingUpgradeable","label":"valueInETH","offset":0,"slot":"1","type":"t_uint256"},{"astId":5690,"contract":"contracts/StakingUpgradeable.sol:StakingUpgradeable","label":"valueInUSD","offset":0,"slot":"2","type":"t_uint256"},{"astId":5692,"contract":"contracts/StakingUpgradeable.sol:StakingUpgradeable","label":"rewardRate","offset":0,"slot":"3","type":"t_uint256"},{"astId":5694,"contract":"contracts/StakingUpgradeable.sol:StakingUpgradeable","label":"startTime","offset":0,"slot":"4","type":"t_uint256"},{"astId":5696,"contract":"contracts/StakingUpgradeable.sol:StakingUpgradeable","label":"duration","offset":0,"slot":"5","type":"t_uint256"},{"astId":5698,"contract":"contracts/StakingUpgradeable.sol:StakingUpgradeable","label":"rewardClaimed","offset":0,"slot":"6","type":"t_uint256"},{"astId":5700,"contract":"contracts/StakingUpgradeable.sol:StakingUpgradeable","label":"lastTimeRewardClaimed","offset":0,"slot":"7","type":"t_uint256"},{"astId":5703,"contract":"contracts/StakingUpgradeable.sol:StakingUpgradeable","label":"blockNumber","offset":0,"slot":"8","type":"t_array(t_uint256)dyn_storage"}],"numberOfBytes":"288"},"t_uint16":{"encoding":"inplace","label":"uint16","numberOfBytes":"2"},"t_uint256":{"encoding":"inplace","label":"uint256","numberOfBytes":"32"},"t_uint8":{"encoding":"inplace","label":"uint8","numberOfBytes":"1"}}}}}}