{"contracts/ReferralV3Upgradeable.sol":{"ReferralV3Upgradeable":{"abi":[{"anonymous":false,"inputs":[{"indexed":false,"internalType":"address","name":"ownerAddress","type":"address"},{"indexed":false,"internalType":"uint256","name":"id","type":"uint256"},{"indexed":false,"internalType":"uint256","name":"idIndex","type":"uint256"}],"name":"AccountInfoIDAttached","type":"event"},{"anonymous":false,"inputs":[{"indexed":false,"internalType":"uint256","name":"userID","type":"uint256"},{"indexed":false,"internalType":"uint256","name":"index","type":"uint256"},{"indexed":false,"internalType":"uint256","name":"rank","type":"uint256"}],"name":"AddedInRoyaltyClubList","type":"event"},{"anonymous":false,"inputs":[{"indexed":false,"internalType":"address","name":"previousAdmin","type":"address"},{"indexed":false,"internalType":"address","name":"newAdmin","type":"address"}],"name":"AdminChanged","type":"event"},{"anonymous":false,"inputs":[{"indexed":true,"internalType":"address","name":"beacon","type":"address"}],"name":"BeaconUpgraded","type":"event"},{"anonymous":false,"inputs":[{"indexed":false,"internalType":"uint256","name":"id","type":"uint256"},{"indexed":false,"internalType":"string","name":"reason","type":"string"}],"name":"IDDeactivated","type":"event"},{"anonymous":false,"inputs":[{"indexed":false,"internalType":"uint8","name":"version","type":"uint8"}],"name":"Initialized","type":"event"},{"anonymous":false,"inputs":[{"indexed":true,"internalType":"address","name":"previousOwner","type":"address"},{"indexed":true,"internalType":"address","name":"newOwner","type":"address"}],"name":"OwnershipTransferred","type":"event"},{"anonymous":false,"inputs":[{"indexed":false,"internalType":"uint256","name":"packageID","type":"uint256"}],"name":"PackageAdded","type":"event"},{"anonymous":false,"inputs":[{"indexed":false,"internalType":"uint256","name":"packageID","type":"uint256"}],"name":"PackageRemoved","type":"event"},{"anonymous":false,"inputs":[{"indexed":false,"internalType":"uint256","name":"packageID","type":"uint256"}],"name":"PackageUpdated","type":"event"},{"anonymous":false,"inputs":[{"indexed":true,"internalType":"uint256","name":"userID","type":"uint256"},{"indexed":true,"internalType":"uint256","name":"reward","type":"uint256"}],"name":"ROIClaimed","type":"event"},{"anonymous":false,"inputs":[{"indexed":true,"internalType":"uint256","name":"refererID","type":"uint256"},{"indexed":true,"internalType":"uint256","name":"level","type":"uint256"},{"indexed":true,"internalType":"string","name":"reason","type":"string"}],"name":"ReferralNotPaid","type":"event"},{"anonymous":false,"inputs":[{"indexed":true,"internalType":"uint256","name":"refereeID","type":"uint256"},{"indexed":true,"internalType":"uint256","name":"referrerID","type":"uint256"},{"indexed":true,"internalType":"uint256","name":"amount","type":"uint256"},{"indexed":false,"internalType":"uint256","name":"level","type":"uint256"}],"name":"ReferralRewardPaid","type":"event"},{"anonymous":false,"inputs":[{"indexed":true,"internalType":"address","name":"refereeID","type":"address"},{"indexed":true,"internalType":"address","name":"referrerID","type":"address"},{"indexed":true,"internalType":"string","name":"reason","type":"string"}],"name":"RegisterRefererFailed","type":"event"},{"anonymous":false,"inputs":[{"indexed":true,"internalType":"uint256","name":"id","type":"uint256"},{"indexed":true,"internalType":"uint256","name":"refererID","type":"uint256"}],"name":"RegisteredReferer","type":"event"},{"anonymous":false,"inputs":[{"indexed":true,"internalType":"address","name":"parent","type":"address"},{"indexed":false,"internalType":"uint256","name":"parentAccountID","type":"uint256"},{"indexed":true,"internalType":"uint256","name":"referrerID","type":"uint256"},{"indexed":true,"internalType":"uint256","name":"refereeID","type":"uint256"}],"name":"RegisteredTeamAddress","type":"event"},{"anonymous":false,"inputs":[{"indexed":false,"internalType":"uint256","name":"packageID","type":"uint256"},{"indexed":true,"internalType":"uint256","name":"userID","type":"uint256"},{"indexed":true,"internalType":"uint256","name":"amount","type":"uint256"}],"name":"RoyaltyClubBonusPaid","type":"event"},{"anonymous":false,"inputs":[{"indexed":true,"internalType":"address","name":"implementation","type":"address"}],"name":"Upgraded","type":"event"},{"inputs":[{"internalType":"uint256","name":"","type":"uint256"}],"name":"_disabledUsersList","outputs":[{"internalType":"address","name":"","type":"address"}],"stateMutability":"view","type":"function"},{"inputs":[{"internalType":"uint32","name":"_refererID","type":"uint32"}],"name":"activateID","outputs":[],"stateMutability":"payable","type":"function"},{"inputs":[{"internalType":"uint256","name":"","type":"uint256"}],"name":"admins","outputs":[{"internalType":"address","name":"","type":"address"}],"stateMutability":"view","type":"function"},{"inputs":[{"internalType":"uint32","name":"_id","type":"uint32"},{"internalType":"uint256","name":"_value","type":"uint256"}],"name":"claimBalance","outputs":[],"stateMutability":"nonpayable","type":"function"},{"inputs":[{"internalType":"uint32","name":"_id","type":"uint32"}],"name":"claimROI","outputs":[],"stateMutability":"nonpayable","type":"function"},{"inputs":[],"name":"companyTurnoverTimeLimit","outputs":[{"internalType":"uint256","name":"","type":"uint256"}],"stateMutability":"view","type":"function"},{"inputs":[],"name":"companyTurnoverTimeStamp","outputs":[{"internalType":"uint256","name":"","type":"uint256"}],"stateMutability":"view","type":"function"},{"inputs":[],"name":"companyTurnoverWithTimeLimit","outputs":[{"internalType":"uint256","name":"","type":"uint256"}],"stateMutability":"view","type":"function"},{"inputs":[],"name":"decimals","outputs":[{"internalType":"uint16","name":"","type":"uint16"}],"stateMutability":"view","type":"function"},{"inputs":[{"internalType":"address","name":"_userAddress","type":"address"}],"name":"disableUserAdmin","outputs":[],"stateMutability":"nonpayable","type":"function"},{"inputs":[{"internalType":"uint32","name":"_id","type":"uint32"}],"name":"getIDAccount","outputs":[{"components":[{"internalType":"uint32","name":"id","type":"uint32"},{"internalType":"string","name":"oldID","type":"string"},{"internalType":"bool","name":"isActive","type":"bool"},{"internalType":"address","name":"owner","type":"address"},{"internalType":"uint256","name":"joiningTime","type":"uint256"},{"internalType":"uint256","name":"deactivateTime","type":"uint256"},{"internalType":"uint32","name":"refererID","type":"uint32"},{"internalType":"uint32[]","name":"refereeIDs","type":"uint32[]"},{"internalType":"uint32[]","name":"teamIDs","type":"uint32[]"},{"internalType":"uint32[]","name":"teamLevel","type":"uint32[]"},{"internalType":"uint256","name":"selfBusiness","type":"uint256"},{"internalType":"uint256","name":"selfBusinessOld","type":"uint256"},{"internalType":"uint256","name":"directBusiness","type":"uint256"},{"internalType":"uint256","name":"directBusinessOld","type":"uint256"},{"internalType":"uint256","name":"teamBusiness","type":"uint256"},{"internalType":"uint256","name":"teamBusinessOld","type":"uint256"},{"internalType":"uint256","name":"royaltyClubBusiness","type":"uint256"},{"internalType":"uint256","name":"timeStampRoyaltyClub","type":"uint256"},{"internalType":"uint8","name":"royaltyClubPackageID","type":"uint8"},{"internalType":"uint256","name":"royaltyClubListIndex","type":"uint256"},{"internalType":"uint256","name":"referralPaid","type":"uint256"},{"internalType":"uint256","name":"rewardPaidRoyaltyClub","type":"uint256"},{"internalType":"uint256","name":"totalTopUp","type":"uint256"},{"internalType":"uint256","name":"totalIncome","type":"uint256"},{"internalType":"uint256","name":"totalMaxLimitAmount","type":"uint256"},{"internalType":"uint256","name":"currentTopUp","type":"uint256"},{"internalType":"uint256","name":"currentTopUpTime","type":"uint256"},{"internalType":"uint256","name":"totalROIClaimed","type":"uint256"},{"internalType":"uint32[]","name":"roiIDs","type":"uint32[]"},{"internalType":"uint256","name":"roiClaimed","type":"uint256"},{"internalType":"uint256","name":"roiClaimedTimestamp","type":"uint256"},{"internalType":"uint256","name":"balanceClaimed","type":"uint256"}],"internalType":"struct ReferralV3Upgradeable.StructID","name":"","type":"tuple"}],"stateMutability":"view","type":"function"},{"inputs":[{"internalType":"uint32","name":"_id","type":"uint32"}],"name":"getIDRewardPaid","outputs":[{"internalType":"uint256","name":"referralPaid","type":"uint256"},{"internalType":"uint256","name":"totalROIClaimed","type":"uint256"},{"internalType":"uint256","name":"rewardPaidRoyaltyClub","type":"uint256"},{"internalType":"uint256","name":"totalRewardPaid","type":"uint256"}],"stateMutability":"view","type":"function"},{"inputs":[{"internalType":"uint32","name":"_id","type":"uint32"}],"name":"getIDRoyaltyClubLevel","outputs":[{"internalType":"uint256","name":"","type":"uint256"}],"stateMutability":"view","type":"function"},{"inputs":[{"internalType":"uint32","name":"_id","type":"uint32"}],"name":"getIDTeam","outputs":[{"internalType":"uint32[]","name":"teamIDs","type":"uint32[]"},{"internalType":"uint32[]","name":"teamLevels","type":"uint32[]"},{"internalType":"uint256","name":"teamCount","type":"uint256"}],"stateMutability":"view","type":"function"},{"inputs":[{"internalType":"uint32","name":"_id","type":"uint32"}],"name":"getIDTotalBusiness","outputs":[{"internalType":"uint256","name":"selfBusiness","type":"uint256"},{"internalType":"uint256","name":"selfBusinessOld","type":"uint256"},{"internalType":"uint256","name":"directBusiness","type":"uint256"},{"internalType":"uint256","name":"directBusinessOld","type":"uint256"},{"internalType":"uint256","name":"teamBusiness","type":"uint256"},{"internalType":"uint256","name":"teamBusinessOld","type":"uint256"}],"stateMutability":"view","type":"function"},{"inputs":[],"name":"getMinContributionETH","outputs":[{"internalType":"uint256","name":"","type":"uint256"}],"stateMutability":"view","type":"function"},{"inputs":[],"name":"getPriceOracleContract","outputs":[{"internalType":"address","name":"","type":"address"}],"stateMutability":"view","type":"function"},{"inputs":[{"internalType":"uint32","name":"_roiID","type":"uint32"}],"name":"getROIAccount","outputs":[{"components":[{"internalType":"uint32","name":"id","type":"uint32"},{"internalType":"bool","name":"isActive","type":"bool"},{"internalType":"uint32","name":"ownerID","type":"uint32"},{"internalType":"uint256","name":"value","type":"uint256"},{"internalType":"uint16","name":"roiRate","type":"uint16"},{"internalType":"uint256","name":"startTime","type":"uint256"}],"internalType":"struct ReferralV3Upgradeable.StructROI","name":"","type":"tuple"}],"stateMutability":"view","type":"function"},{"inputs":[{"internalType":"address","name":"_address","type":"address"}],"name":"getUserAccount","outputs":[{"components":[{"internalType":"bool","name":"isDisabled","type":"bool"},{"internalType":"uint32[]","name":"accountIDs","type":"uint32[]"}],"internalType":"struct ReferralV3Upgradeable.StructAccount","name":"","type":"tuple"}],"stateMutability":"view","type":"function"},{"inputs":[{"internalType":"uint32","name":"_id","type":"uint32"}],"name":"getUserIDTotalROI","outputs":[{"internalType":"uint256","name":"","type":"uint256"}],"stateMutability":"view","type":"function"},{"inputs":[{"internalType":"uint32","name":"_id","type":"uint32"}],"name":"getUserTotalActiveROIValue","outputs":[{"internalType":"uint256","name":"","type":"uint256"}],"stateMutability":"view","type":"function"},{"inputs":[{"internalType":"uint32","name":"_id","type":"uint32"}],"name":"getUserUnlockCount","outputs":[{"internalType":"uint256","name":"","type":"uint256"}],"stateMutability":"view","type":"function"},{"inputs":[],"name":"initialize","outputs":[],"stateMutability":"nonpayable","type":"function"},{"inputs":[],"name":"isPayROI","outputs":[{"internalType":"bool","name":"","type":"bool"}],"stateMutability":"view","type":"function"},{"inputs":[],"name":"isPayRoyaltyClubBonus","outputs":[{"internalType":"bool","name":"","type":"bool"}],"stateMutability":"view","type":"function"},{"inputs":[{"internalType":"address","name":"_userAddress","type":"address"}],"name":"isUserDisabledByAdmin","outputs":[{"internalType":"bool","name":"","type":"bool"}],"stateMutability":"view","type":"function"},{"inputs":[{"internalType":"uint256","name":"","type":"uint256"}],"name":"levelRates","outputs":[{"internalType":"uint16","name":"","type":"uint16"}],"stateMutability":"view","type":"function"},{"inputs":[],"name":"maxLevelsCount","outputs":[{"internalType":"uint8","name":"","type":"uint8"}],"stateMutability":"view","type":"function"},{"inputs":[],"name":"minContributionIn","outputs":[{"internalType":"uint256","name":"","type":"uint256"}],"stateMutability":"view","type":"function"},{"inputs":[],"name":"minContributionInUSD","outputs":[{"internalType":"uint256","name":"","type":"uint256"}],"stateMutability":"view","type":"function"},{"inputs":[],"name":"owner","outputs":[{"internalType":"address","name":"","type":"address"}],"stateMutability":"view","type":"function"},{"inputs":[],"name":"packagesCount","outputs":[{"internalType":"uint8","name":"","type":"uint8"}],"stateMutability":"view","type":"function"},{"inputs":[],"name":"proxiableUUID","outputs":[{"internalType":"bytes32","name":"","type":"bytes32"}],"stateMutability":"view","type":"function"},{"inputs":[{"internalType":"address","name":"_userAddress","type":"address"}],"name":"removeUserFromDisableList","outputs":[],"stateMutability":"nonpayable","type":"function"},{"inputs":[],"name":"renounceOwnership","outputs":[],"stateMutability":"nonpayable","type":"function"},{"inputs":[],"name":"royaltyClubPackageCount","outputs":[{"internalType":"uint8","name":"","type":"uint8"}],"stateMutability":"view","type":"function"},{"inputs":[{"internalType":"address","name":"_address","type":"address"},{"internalType":"uint256","name":"_value","type":"uint256"}],"name":"sendETHAdmin","outputs":[],"stateMutability":"nonpayable","type":"function"},{"inputs":[{"internalType":"address","name":"_adminAddress","type":"address"}],"name":"setAdmin","outputs":[],"stateMutability":"nonpayable","type":"function"},{"inputs":[{"internalType":"uint256","name":"_valueInUSD","type":"uint256"}],"name":"setMinContribution","outputs":[],"stateMutability":"nonpayable","type":"function"},{"inputs":[{"internalType":"address","name":"_contractAddress","type":"address"}],"name":"setPriceOracleContract","outputs":[],"stateMutability":"nonpayable","type":"function"},{"inputs":[{"internalType":"uint16","name":"_roiRateInDecimals","type":"uint16"},{"internalType":"uint256","name":"_roiDurationInDays","type":"uint256"},{"internalType":"uint256","name":"_roiClaimTimelimitInSeconds","type":"uint256"}],"name":"setROI","outputs":[],"stateMutability":"nonpayable","type":"function"},{"inputs":[{"internalType":"uint32","name":"_count","type":"uint32"}],"name":"setROIIDCount","outputs":[],"stateMutability":"nonpayable","type":"function"},{"inputs":[],"name":"totalIDs","outputs":[{"internalType":"uint32","name":"","type":"uint32"}],"stateMutability":"view","type":"function"},{"inputs":[],"name":"totalROIIDs","outputs":[{"internalType":"uint32","name":"","type":"uint32"}],"stateMutability":"view","type":"function"},{"inputs":[],"name":"totalROIPaid","outputs":[{"internalType":"uint256","name":"","type":"uint256"}],"stateMutability":"view","type":"function"},{"inputs":[],"name":"totalReferralPaid","outputs":[{"internalType":"uint256","name":"","type":"uint256"}],"stateMutability":"view","type":"function"},{"inputs":[],"name":"totalRoyaltyClubBonusPaid","outputs":[{"internalType":"uint256","name":"","type":"uint256"}],"stateMutability":"view","type":"function"},{"inputs":[],"name":"totalRoyaltyClubBonusPaidETH","outputs":[{"internalType":"uint256","name":"","type":"uint256"}],"stateMutability":"view","type":"function"},{"inputs":[],"name":"totalUsers","outputs":[{"internalType":"uint32","name":"","type":"uint32"}],"stateMutability":"view","type":"function"},{"inputs":[{"internalType":"address","name":"newOwner","type":"address"}],"name":"transferOwnership","outputs":[],"stateMutability":"nonpayable","type":"function"},{"inputs":[{"internalType":"uint32","name":"_value","type":"uint32"}],"name":"updateTotalIDs","outputs":[],"stateMutability":"nonpayable","type":"function"},{"inputs":[{"internalType":"address","name":"newImplementation","type":"address"}],"name":"upgradeTo","outputs":[],"stateMutability":"nonpayable","type":"function"},{"inputs":[{"internalType":"address","name":"newImplementation","type":"address"},{"internalType":"bytes","name":"data","type":"bytes"}],"name":"upgradeToAndCall","outputs":[],"stateMutability":"payable","type":"function"},{"inputs":[],"name":"withdrawETHAdmin","outputs":[],"stateMutability":"nonpayable","type":"function"},{"inputs":[{"internalType":"address","name":"_tokenAddress","type":"address"},{"internalType":"uint256","name":"_value","type":"uint256"}],"name":"withdrawTokensAdmin","outputs":[],"stateMutability":"nonpayable","type":"function"},{"stateMutability":"payable","type":"receive"}],"evm":{"bytecode":{"linkReferences":{},"object":"60a06040523060805234801561001457600080fd5b50608051615e706200004d60003960008181610d7601528181610db601528181610e5f01528181610e9f0152610f2e0152615e706000f3fe6080604052600436106103545760003560e01c80637c599486116101c6578063bff1f9e1116100f7578063f229b4d511610095578063f41bfeef1161006f578063f41bfeef14610b35578063f830e57b14610b4b578063fafc959714610b78578063fb47e01614610b9757600080fd5b8063f229b4d514610ab5578063f2fde38b14610af5578063f31a2d0f14610b1557600080fd5b8063d895af2c116100d1578063d895af2c14610a42578063e52356f314610a62578063e5682e3814610a82578063ea62f71514610a9557600080fd5b8063bff1f9e1146108e4578063c3ab5ebf14610901578063c82801ca14610a2257600080fd5b8063a0506aed11610164578063a28a36861161013e578063a28a36861461086a578063af2f39d11461088a578063b47181d3146108a4578063bf46de63146108c457600080fd5b8063a0506aed146107f7578063a0b6105f14610826578063a1b801751461084657600080fd5b80638da5cb5b116101a05780638da5cb5b146107835780638df05d9c146107a157806396ed6b85146107c15780639f4e8398146107d757600080fd5b80637c599486146107425780638129fc1c14610758578063852ff2fd1461076d57600080fd5b8063347976c4116102a05780635e701d861161023e578063715018a611610218578063715018a6146106cd57806376a68e84146106e2578063770ceeb1146107025780637879b5ef1461072257600080fd5b80635e701d8614610653578063704b6c021461068d57806370d9e081146106ad57600080fd5b8063473b0d461161027a578063473b0d46146105c25780634f1ef286146105e257806352d1902d146105f5578063538ffe0c1461060a57600080fd5b8063347976c414610508578063357597881461058d5780633659cfe6146105a257600080fd5b80631f7f83ba1161030d5780632913497b116102e75780632913497b146104905780632ed421d2146104ae57806330abbcc5146104c4578063313ce567146104da57600080fd5b80631f7f83ba146104455780631f9e65e41461046557806322f88b521461047a57600080fd5b806309de82cd146103605780630b243dad146103895780630efdbb6a146103ab57806314bfd6d0146103cb57806318e10bff146104035780631c961c051461042f57600080fd5b3661035b57005b600080fd5b34801561036c57600080fd5b5061037660ce5481565b6040519081526020015b60405180910390f35b34801561039557600080fd5b506103a96103a4366004615631565b610bc4565b005b3480156103b757600080fd5b506103a96103c636600461565b565b610c07565b3480156103d757600080fd5b506103eb6103e6366004615676565b610ce9565b6040516001600160a01b039091168152602001610380565b34801561040f57600080fd5b5060d95461041d9060ff1681565b60405160ff9091168152602001610380565b34801561043b57600080fd5b5061037660cc5481565b34801561045157600080fd5b506103eb610460366004615676565b610d13565b34801561047157600080fd5b50610376610d23565b34801561048657600080fd5b5061037660d55481565b34801561049c57600080fd5b5060c9546001600160a01b03166103eb565b3480156104ba57600080fd5b5061037660d65481565b3480156104d057600080fd5b5061037660d05481565b3480156104e657600080fd5b5060cb546104f59061ffff1681565b60405161ffff9091168152602001610380565b34801561051457600080fd5b506105606105233660046156a3565b63ffffffff16600090815260db602052604090206009810154600a820154600b830154600c840154600d850154600e909501549395929491939092565b604080519687526020870195909552938501929092526060840152608083015260a082015260c001610380565b34801561059957600080fd5b506103a9610d35565b3480156105ae57600080fd5b506103a96105bd36600461565b565b610d6c565b3480156105ce57600080fd5b506103a96105dd366004615676565b610e48565b6103a96105f03660046156d4565b610e55565b34801561060157600080fd5b50610376610f21565b34801561061657600080fd5b5061064361062536600461565b565b6001600160a01b0316600090815260da602052604090205460ff1690565b6040519015158152602001610380565b34801561065f57600080fd5b5060d15461067890640100000000900463ffffffff1681565b60405163ffffffff9091168152602001610380565b34801561069957600080fd5b506103a96106a836600461565b565b610fd4565b3480156106b957600080fd5b506103a96106c83660046156a3565b61102e565b3480156106d957600080fd5b506103a9611108565b3480156106ee57600080fd5b506103766106fd3660046156a3565b61111c565b34801561070e57600080fd5b506103a961071d3660046156a3565b61153d565b34801561072e57600080fd5b506104f561073d366004615676565b611554565b34801561074e57600080fd5b5061037660cf5481565b34801561076457600080fd5b506103a961158c565b34801561077957600080fd5b5061037660cd5481565b34801561078f57600080fd5b506033546001600160a01b03166103eb565b3480156107ad57600080fd5b5060cb5461041d9062010000900460ff1681565b3480156107cd57600080fd5b5061037660df5481565b3480156107e357600080fd5b506103a96107f236600461565b565b61182d565b34801561080357600080fd5b506108176108123660046156a3565b611949565b604051610380939291906157d7565b34801561083257600080fd5b506103a9610841366004615631565b611d76565b34801561085257600080fd5b5060d15461067890600160401b900463ffffffff1681565b34801561087657600080fd5b5060d45461041d9062010000900460ff1681565b34801561089657600080fd5b5060d4546106439060ff1681565b3480156108b057600080fd5b506103766108bf3660046156a3565b611def565b3480156108d057600080fd5b506103766108df3660046156a3565b61220d565b3480156108f057600080fd5b5060d1546106789063ffffffff1681565b34801561090d57600080fd5b506109c661091c3660046156a3565b6040805160c081018252600080825260208201819052918101829052606081018290526080810182905260a08101919091525063ffffffff908116600090815260dc6020908152604091829020825160c0810184528154808616825260ff640100000000820416151593820193909352650100000000009092049093169181019190915260018201546060820152600282015461ffff16608082015260039091015460a082015290565b6040516103809190600060c08201905063ffffffff808451168352602084015115156020840152806040850151166040840152506060830151606083015261ffff608084015116608083015260a083015160a083015292915050565b348015610a2e57600080fd5b506103a9610a3d36600461580d565b61221e565b348015610a4e57600080fd5b506103a9610a5d3660046156a3565b61230c565b348015610a6e57600080fd5b506103a9610a7d36600461565b565b6123e9565b6103a9610a903660046156a3565b6125be565b348015610aa157600080fd5b50610376610ab03660046156a3565b6127d2565b348015610ac157600080fd5b50610ad5610ad03660046156a3565b6128f7565b604080519485526020850193909352918301526060820152608001610380565b348015610b0157600080fd5b506103a9610b1036600461565b565b612d42565b348015610b2157600080fd5b506103a9610b30366004615849565b612db8565b348015610b4157600080fd5b5061037660d75481565b348015610b5757600080fd5b50610b6b610b663660046156a3565b612f04565b60405161038091906158b5565b348015610b8457600080fd5b5060d45461064390610100900460ff1681565b348015610ba357600080fd5b50610bb7610bb236600461565b565b61341c565b6040516103809190615ae3565b610bcc6134e7565b6040516001600160a01b0383169082156108fc029083906000818181858888f19350505050158015610c02573d6000803e3d6000fd5b505050565b60005b60de5460ff82161015610ce55760de8160ff1681548110610c2d57610c2d615b0a565b6000918252602090912001546001600160a01b03163303610c695760c980546001600160a01b0384166001600160a01b03199091161790555050565b60de54610c7890600190615b36565b8160ff1603610cd35760de8160ff1681548110610c9757610c97615b0a565b6000918252602090912001546001600160a01b03163314610cd35760405162461bcd60e51b8152600401610cca90615b49565b60405180910390fd5b80610cdd81615b74565b915050610c0a565b5050565b60de8181548110610cf957600080fd5b6000918252602090912001546001600160a01b0316905081565b60d88181548110610cf957600080fd5b6000610d3060df54613541565b905090565b610d3d6134e7565b60405133904780156108fc02916000818181858888f19350505050158015610d69573d6000803e3d6000fd5b50565b6001600160a01b037f0000000000000000000000000000000000000000000000000000000000000000163003610db45760405162461bcd60e51b8152600401610cca90615b93565b7f00000000000000000000000000000000000000000000000000000000000000006001600160a01b0316610dfd600080516020615df4833981519152546001600160a01b031690565b6001600160a01b031614610e235760405162461bcd60e51b8152600401610cca90615bdf565b610e2c816135d7565b60408051600080825260208201909252610d69918391906135df565b610e506134e7565b60df55565b6001600160a01b037f0000000000000000000000000000000000000000000000000000000000000000163003610e9d5760405162461bcd60e51b8152600401610cca90615b93565b7f00000000000000000000000000000000000000000000000000000000000000006001600160a01b0316610ee6600080516020615df4833981519152546001600160a01b031690565b6001600160a01b031614610f0c5760405162461bcd60e51b8152600401610cca90615bdf565b610f15826135d7565b610ce5828260016135df565b6000306001600160a01b037f00000000000000000000000000000000000000000000000000000000000000001614610fc15760405162461bcd60e51b815260206004820152603860248201527f555550535570677261646561626c653a206d757374206e6f742062652063616c60448201527f6c6564207468726f7567682064656c656761746563616c6c00000000000000006064820152608401610cca565b50600080516020615df483398151915290565b610fdc6134e7565b60de80546001810182556000919091527ffae8130c0619f84b4b44f01b84806f04e82e536d70e05f2356977fa318aecc1a0180546001600160a01b0319166001600160a01b0392909216919091179055565b60005b60de5460ff82161015610ce55760de8160ff168154811061105457611054615b0a565b6000918252602090912001546001600160a01b031633036110955760d1805463ffffffff84166401000000000267ffffffff00000000199091161790555050565b60de546110a490600190615b36565b8160ff16036110f65760de8160ff16815481106110c3576110c3615b0a565b6000918252602090912001546001600160a01b031633146110f65760405162461bcd60e51b8152600401610cca90615b49565b8061110081615b74565b915050611031565b6111106134e7565b61111a600061374a565b565b63ffffffff808216600090815260db6020908152604080832081516104008101909252805490941681526001840180549394859492939092908401919061116290615c2b565b80601f016020809104026020016040519081016040528092919081815260200182805461118e90615c2b565b80156111db5780601f106111b0576101008083540402835291602001916111db565b820191906000526020600020905b8154815290600101906020018083116111be57829003601f168201915b5050509183525050600282015460ff811615156020808401919091526101009091046001600160a01b03166040808401919091526003840154606084015260048401546080840152600584015463ffffffff1660a084015260068401805482518185028101850190935280835260c09094019391929091908301828280156112ae57602002820191906000526020600020906000905b82829054906101000a900463ffffffff1663ffffffff16815260200190600401906020826003010492830192600103820291508084116112715790505b505050505081526020016007820180548060200260200160405190810160405280929190818152602001828054801561133257602002820191906000526020600020906000905b82829054906101000a900463ffffffff1663ffffffff16815260200190600401906020826003010492830192600103820291508084116112f55790505b50505050508152602001600882018054806020026020016040519081016040528092919081815260200182805480156113b657602002820191906000526020600020906000905b82829054906101000a900463ffffffff1663ffffffff16815260200190600401906020826003010492830192600103820291508084116113795790505b5050505050815260200160098201548152602001600a8201548152602001600b8201548152602001600c8201548152602001600d8201548152602001600e8201548152602001600f8201548152602001601082015481526020016011820160009054906101000a900460ff1660ff1660ff1681526020016012820154815260200160138201548152602001601482015481526020016015820154815260200160168201548152602001601782015481526020016018820154815260200160198201548152602001601a8201548152602001601b820180548060200260200160405190810160405280929190818152602001828054801561150157602002820191906000526020600020906000905b82829054906101000a900463ffffffff1663ffffffff16815260200190600401906020826003010492830192600103820291508084116114c45790505b50505050508152602001601c8201548152602001601d8201548152602001601e8201548152505090506115338161379c565b60ff169392505050565b60006115488261384a565b9050610ce58183613ac3565b60ca818154811061156457600080fd5b9060005260206000209060109182820401919006600202915054906101000a900461ffff1681565b600054610100900460ff16158080156115ac5750600054600160ff909116105b806115c65750303b1580156115c6575060005460ff166001145b6116295760405162461bcd60e51b815260206004820152602e60248201527f496e697469616c697a61626c653a20636f6e747261637420697320616c72656160448201526d191e481a5b9a5d1a585b1a5e995960921b6064820152608401610cca565b6000805460ff19166001179055801561164c576000805461ff0019166101001790555b60c980546001600160a01b03191673286d6392042b4d7180fd6d20f8d35c877681577417905560cb805461ffff19166103e8179055604080516103a08101825260648152604660208201526032918101829052606081018290526080810182905260a0810182905260c0810182905260e08101829052610100810182905261012081018290526101408101829052610160810182905261018081018290526101a081018290526101c081018290526101e08101829052610200810182905261022081018290526102408101919091526014610260820181905261028082018190526102a082018190526102c082018190526102e0820181905261030082018190526103208201819052610340820181905261036082018190526103808201526117799060ca90601d6154bb565b5060cb805462ff000019166232000017905568056bc75e2d6310000060df5560d4805463ff00ffff1916630200000117905560d1805461ffff60601b1916607d60631b17905563020f580060d2556201518060d35562278d0060d7556117dd614140565b6117e561416f565b8015610d69576000805461ff0019169055604051600181527f7f26b83ff96e1f2b6a682f133852f6798a09c465da95921460cefb38474024989060200160405180910390a150565b60005b60de5460ff82161015610ce55760de8160ff168154811061185357611853615b0a565b6000918252602090912001546001600160a01b031633036118d65760d8805460018181019092557f5320ad99a619a90804cd2efe3a5cf0ac1ac5c41ad9ff2c61cf699efdad7710960180546001600160a01b0385166001600160a01b03199091168117909155600090815260da60205260409020805460ff191690911790555050565b60de546118e590600190615b36565b8160ff16036119375760de8160ff168154811061190457611904615b0a565b6000918252602090912001546001600160a01b031633146119375760405162461bcd60e51b8152600401610cca90615b49565b8061194181615b74565b915050611830565b63ffffffff808216600090815260db6020908152604080832081516104008101909252805490941681526001840180546060958695948594939192908401919061199290615c2b565b80601f01602080910402602001604051908101604052809291908181526020018280546119be90615c2b565b8015611a0b5780601f106119e057610100808354040283529160200191611a0b565b820191906000526020600020905b8154815290600101906020018083116119ee57829003601f168201915b5050509183525050600282015460ff811615156020808401919091526101009091046001600160a01b03166040808401919091526003840154606084015260048401546080840152600584015463ffffffff1660a084015260068401805482518185028101850190935280835260c0909401939192909190830182828015611ade57602002820191906000526020600020906000905b82829054906101000a900463ffffffff1663ffffffff1681526020019060040190602082600301049283019260010382029150808411611aa15790505b5050505050815260200160078201805480602002602001604051908101604052809291908181526020018280548015611b6257602002820191906000526020600020906000905b82829054906101000a900463ffffffff1663ffffffff1681526020019060040190602082600301049283019260010382029150808411611b255790505b5050505050815260200160088201805480602002602001604051908101604052809291908181526020018280548015611be657602002820191906000526020600020906000905b82829054906101000a900463ffffffff1663ffffffff1681526020019060040190602082600301049283019260010382029150808411611ba95790505b5050505050815260200160098201548152602001600a8201548152602001600b8201548152602001600c8201548152602001600d8201548152602001600e8201548152602001600f8201548152602001601082015481526020016011820160009054906101000a900460ff1660ff1660ff1681526020016012820154815260200160138201548152602001601482015481526020016015820154815260200160168201548152602001601782015481526020016018820154815260200160198201548152602001601a8201548152602001601b8201805480602002602001604051908101604052809291908181526020018280548015611d3157602002820191906000526020600020906000905b82829054906101000a900463ffffffff1663ffffffff1681526020019060040190602082600301049283019260010382029150808411611cf45790505b50505050508152602001601c8201548152602001601d8201548152602001601e8201548152505090508061010001519350806101200151925083519150509193909250565b611d7e6134e7565b60405163a9059cbb60e01b8152336004820152602481018290526001600160a01b0383169063a9059cbb906044016020604051808303816000875af1158015611dcb573d6000803e3d6000fd5b505050506040513d601f19601f82011682018060405250810190610c029190615c65565b63ffffffff808216600090815260db60209081526040808320815161040081019092528054909416815260018401805493948594929390929084019190611e3590615c2b565b80601f0160208091040260200160405190810160405280929190818152602001828054611e6190615c2b565b8015611eae5780601f10611e8357610100808354040283529160200191611eae565b820191906000526020600020905b815481529060010190602001808311611e9157829003601f168201915b5050509183525050600282015460ff811615156020808401919091526101009091046001600160a01b03166040808401919091526003840154606084015260048401546080840152600584015463ffffffff1660a084015260068401805482518185028101850190935280835260c0909401939192909190830182828015611f8157602002820191906000526020600020906000905b82829054906101000a900463ffffffff1663ffffffff1681526020019060040190602082600301049283019260010382029150808411611f445790505b505050505081526020016007820180548060200260200160405190810160405280929190818152602001828054801561200557602002820191906000526020600020906000905b82829054906101000a900463ffffffff1663ffffffff1681526020019060040190602082600301049283019260010382029150808411611fc85790505b505050505081526020016008820180548060200260200160405190810160405280929190818152602001828054801561208957602002820191906000526020600020906000905b82829054906101000a900463ffffffff1663ffffffff168152602001906004019060208260030104928301926001038202915080841161204c5790505b5050505050815260200160098201548152602001600a8201548152602001600b8201548152602001600c8201548152602001600d8201548152602001600e8201548152602001600f8201548152602001601082015481526020016011820160009054906101000a900460ff1660ff1660ff1681526020016012820154815260200160138201548152602001601482015481526020016015820154815260200160168201548152602001601782015481526020016018820154815260200160198201548152602001601a8201548152602001601b82018054806020026020016040519081016040528092919081815260200182805480156121d457602002820191906000526020600020906000905b82829054906101000a900463ffffffff1663ffffffff16815260200190600401906020826003010492830192600103820291508084116121975790505b50505050508152602001601c8201548152602001601d8201548152602001601e82015481525050905061220681614196565b9392505050565b6000612218826141d2565b92915050565b60005b60de5460ff821610156123065760de8160ff168154811061224457612244615b0a565b6000918252602090912001546001600160a01b031633036122935760d1805461ffff60601b1916600160601b61ffff8716021790556122868362015180615c87565b60d25560d3829055612306565b60de546122a290600190615b36565b8160ff16036122f45760de8160ff16815481106122c1576122c1615b0a565b6000918252602090912001546001600160a01b031633146122f45760405162461bcd60e51b8152600401610cca90615b49565b806122fe81615b74565b915050612221565b50505050565b60005b60de5460ff82161015610ce55760de8160ff168154811061233257612332615b0a565b6000918252602090912001546001600160a01b031633036123765760d1805463ffffffff8416600160401b026bffffffff0000000000000000199091161790555050565b60de5461238590600190615b36565b8160ff16036123d75760de8160ff16815481106123a4576123a4615b0a565b6000918252602090912001546001600160a01b031633146123d75760405162461bcd60e51b8152600401610cca90615b49565b806123e181615b74565b91505061230f565b60005b60de5460ff82161015610ce55760de8160ff168154811061240f5761240f615b0a565b6000918252602090912001546001600160a01b0316330361254b576001600160a01b038216600090815260da60205260408120805460ff1916905560d854905b8181101561230657836001600160a01b031660d8828154811061247457612474615b0a565b6000918252602090912001546001600160a01b0316036125395760d861249b600184615b36565b815481106124ab576124ab615b0a565b60009182526020909120015460d880546001600160a01b0390921691839081106124d7576124d7615b0a565b9060005260206000200160006101000a8154816001600160a01b0302191690836001600160a01b0316021790555060d880548061251657612516615c9e565b600082815260209020810160001990810180546001600160a01b03191690550190555b8061254381615cb4565b91505061244f565b60de5461255a90600190615b36565b8160ff16036125ac5760de8160ff168154811061257957612579615b0a565b6000918252602090912001546001600160a01b031633146125ac5760405162461bcd60e51b8152600401610cca90615b49565b806125b681615b74565b9150506123ec565b3460006125ca82614710565b905060df5481101561261e5760405162461bcd60e51b815260206004820152601f60248201527f56616c7565206c657373207468656e206d696e436f6e747269627574696f6e006044820152606401610cca565b60d1543390429060009061264190640100000000900463ffffffff166001615ccd565b60d18054919250600091600160401b900463ffffffff1690600861266483615cf1565b825463ffffffff9182166101009390930a92830291909202199091161790556001600160a01b038516600090815260da6020526040902060d4549192509060ff1615612767576127678383888763ffffffff928316600081815260dc6020908152604080832097871680845260db835290832088546501000000000090920268ffffffffff00000000199092169190911764010000000017885560018089019690965560d15460028901805461ffff191661ffff600160601b90930492909216919091179055600390970193909355601b90950180549384018155855293206008820401805460079092166004026101000a938402939092021916919091179055565b61278785848a898860cb60029054906101000a900460ff1660ff1661479d565b6001908101805491820181556000908152602090206008820401805460079092166004026101000a63ffffffff81810219909316949092169190910292909217909155505050505050565b63ffffffff8116600090815260db60209081526040808320601b018054825181850281018501909352808352849383018282801561285b57602002820191906000526020600020906000905b82829054906101000a900463ffffffff1663ffffffff168152602001906004019060208260030104928301926001038202915080841161281e5790505b505050505090506000805b82518161ffff1610156128ef57600060dc6000858461ffff168151811061288f5761288f615b0a565b602002602001015163ffffffff1663ffffffff16815260200190815260200160002090508060000160049054906101000a900460ff16156128dc5760018101546128d99084615d14565b92505b50806128e781615d27565b915050612866565b509392505050565b63ffffffff808216600090815260db602090815260408083208151610400810190925280549094168152600184018054939485948594859485949093929184019161294190615c2b565b80601f016020809104026020016040519081016040528092919081815260200182805461296d90615c2b565b80156129ba5780601f1061298f576101008083540402835291602001916129ba565b820191906000526020600020905b81548152906001019060200180831161299d57829003601f168201915b5050509183525050600282015460ff811615156020808401919091526101009091046001600160a01b03166040808401919091526003840154606084015260048401546080840152600584015463ffffffff1660a084015260068401805482518185028101850190935280835260c0909401939192909190830182828015612a8d57602002820191906000526020600020906000905b82829054906101000a900463ffffffff1663ffffffff1681526020019060040190602082600301049283019260010382029150808411612a505790505b5050505050815260200160078201805480602002602001604051908101604052809291908181526020018280548015612b1157602002820191906000526020600020906000905b82829054906101000a900463ffffffff1663ffffffff1681526020019060040190602082600301049283019260010382029150808411612ad45790505b5050505050815260200160088201805480602002602001604051908101604052809291908181526020018280548015612b9557602002820191906000526020600020906000905b82829054906101000a900463ffffffff1663ffffffff1681526020019060040190602082600301049283019260010382029150808411612b585790505b5050505050815260200160098201548152602001600a8201548152602001600b8201548152602001600c8201548152602001600d8201548152602001600e8201548152602001600f8201548152602001601082015481526020016011820160009054906101000a900460ff1660ff1660ff1681526020016012820154815260200160138201548152602001601482015481526020016015820154815260200160168201548152602001601782015481526020016018820154815260200160198201548152602001601a8201548152602001601b8201805480602002602001604051908101604052809291908181526020018280548015612ce057602002820191906000526020600020906000905b82829054906101000a900463ffffffff1663ffffffff1681526020019060040190602082600301049283019260010382029150808411612ca35790505b50505050508152602001601c8201548152602001601d8201548152602001601e82015481525050905080610280015194508061036001519350806102a001519250828486612d2e9190615d14565b612d389190615d14565b9150509193509193565b612d4a6134e7565b6001600160a01b038116612daf5760405162461bcd60e51b815260206004820152602660248201527f4f776e61626c653a206e6577206f776e657220697320746865207a65726f206160448201526564647265737360d01b6064820152608401610cca565b610d698161374a565b63ffffffff8216600090815260db60205260409020600281015461010090046001600160a01b03163314612e2e5760405162461bcd60e51b815260206004820152601d60248201527f596f7520617265206e6f74206f776e6572206f6620746869732069642e0000006044820152606401610cca565b6000612e3982614a30565b601e830154909150612e4b8183615b36565b841115612ead5760405162461bcd60e51b815260206004820152602a60248201527f506c6561736520656e7465722076616c7565206c657373207468656e20796f7560448201526939103130b630b731b29760b11b6064820152608401610cca565b8383601e016000828254612ec19190615d14565b909155503390506108fc612ed486613541565b6040518115909202916000818181858888f19350505050158015612efc573d6000803e3d6000fd5b505050505050565b61300e604051806104000160405280600063ffffffff1681526020016060815260200160001515815260200160006001600160a01b031681526020016000815260200160008152602001600063ffffffff1681526020016060815260200160608152602001606081526020016000815260200160008152602001600081526020016000815260200160008152602001600081526020016000815260200160008152602001600060ff168152602001600081526020016000815260200160008152602001600081526020016000815260200160008152602001600081526020016000815260200160008152602001606081526020016000815260200160008152602001600081525090565b63ffffffff808316600090815260db602090815260409182902082516104008101909352805490931682526001830180549293929184019161304f90615c2b565b80601f016020809104026020016040519081016040528092919081815260200182805461307b90615c2b565b80156130c85780601f1061309d576101008083540402835291602001916130c8565b820191906000526020600020905b8154815290600101906020018083116130ab57829003601f168201915b5050509183525050600282015460ff811615156020808401919091526101009091046001600160a01b03166040808401919091526003840154606084015260048401546080840152600584015463ffffffff1660a084015260068401805482518185028101850190935280835260c090940193919290919083018282801561319b57602002820191906000526020600020906000905b82829054906101000a900463ffffffff1663ffffffff168152602001906004019060208260030104928301926001038202915080841161315e5790505b505050505081526020016007820180548060200260200160405190810160405280929190818152602001828054801561321f57602002820191906000526020600020906000905b82829054906101000a900463ffffffff1663ffffffff16815260200190600401906020826003010492830192600103820291508084116131e25790505b50505050508152602001600882018054806020026020016040519081016040528092919081815260200182805480156132a357602002820191906000526020600020906000905b82829054906101000a900463ffffffff1663ffffffff16815260200190600401906020826003010492830192600103820291508084116132665790505b5050505050815260200160098201548152602001600a8201548152602001600b8201548152602001600c8201548152602001600d8201548152602001600e8201548152602001600f8201548152602001601082015481526020016011820160009054906101000a900460ff1660ff1660ff1681526020016012820154815260200160138201548152602001601482015481526020016015820154815260200160168201548152602001601782015481526020016018820154815260200160198201548152602001601a8201548152602001601b82018054806020026020016040519081016040528092919081815260200182805480156133ee57602002820191906000526020600020906000905b82829054906101000a900463ffffffff1663ffffffff16815260200190600401906020826003010492830192600103820291508084116133b15790505b50505050508152602001601c8201548152602001601d8201548152602001601e820154815250509050919050565b6040805180820190915260008152606060208201526001600160a01b038216600090815260da602090815260409182902082518084018452815460ff1615158152600182018054855181860281018601909652808652919492938581019392908301828280156134d757602002820191906000526020600020906000905b82829054906101000a900463ffffffff1663ffffffff168152602001906004019060208260030104928301926001038202915080841161349a5790505b5050505050815250509050919050565b6033546001600160a01b0316331461111a5760405162461bcd60e51b815260206004820181905260248201527f4f776e61626c653a2063616c6c6572206973206e6f7420746865206f776e65726044820152606401610cca565b60008060c960009054906101000a90046001600160a01b03166001600160a01b031663e1aa60366040518163ffffffff1660e01b8152600401602060405180830381865afa158015613597573d6000803e3d6000fd5b505050506040513d601f19601f820116820180604052508101906135bb9190615d3e565b6135cd84670de0b6b3a7640000615c87565b6122069190615d57565b610d696134e7565b7f4910fdfa16fed3260ed0e7147f7cc6da11a60208b5b9406d12a635614ffd91435460ff161561361257610c0283614a54565b826001600160a01b03166352d1902d6040518163ffffffff1660e01b8152600401602060405180830381865afa92505050801561366c575060408051601f3d908101601f1916820190925261366991810190615d3e565b60015b6136cf5760405162461bcd60e51b815260206004820152602e60248201527f45524331393637557067726164653a206e657720696d706c656d656e7461746960448201526d6f6e206973206e6f74205555505360901b6064820152608401610cca565b600080516020615df4833981519152811461373e5760405162461bcd60e51b815260206004820152602960248201527f45524331393637557067726164653a20756e737570706f727465642070726f786044820152681a58589b195555525160ba1b6064820152608401610cca565b50610c02838383614af0565b603380546001600160a01b038381166001600160a01b0319831681179093556040519116919082907f8be0079c531659141344cd1fd0a4f28419497f9722a3daafe3b4186f6b6457e090600090a35050565b60d95460009060ff16815b8160ff168160ff1610156138435760ff8116600090815260dd6020526040902060010154610140850151108015906137f9575060ff8116600090815260dd602052604090206002015461018085015110155b801561381f575060ff8116600090815260dd60205260409020600301546101c085015110155b1561382c57809250613831565b613843565b8061383b81615b74565b9150506137a7565b5050919050565b63ffffffff8116600090815260db602052604081206002810154429061010090046001600160a01b031633146138c25760405162461bcd60e51b815260206004820152601d60248201527f596f7520617265206e6f74206f776e6572206f6620746869732069642e0000006044820152606401610cca565b60d35482601d01546138d49190615d14565b4210156139335760405162461bcd60e51b815260206004820152602760248201527f596f7520726f6920636c61696d2074696d656c696d6974206973206e6f74206f6044820152660eccae440f2cad60cb1b6064820152608401610cca565b600061393e856141d2565b905082601701548184601601546139559190615d14565b10156139d3578083601601600082825461396f9190615d14565b925050819055508083601c01600082825461398a9190615d14565b9091555050601d83018290556040519093508390819063ffffffff8716907f7cd8783637a6bf8d3b4b69973a28720cfb0f5abc55d8b85dde1732d8f22c0efc90600090a3613abb565b6000836016015484601701546139e99190615b36565b9050836017015484601601819055508084601c016000828254613a0c9190615d14565b9091555050601d8401839055935083613a2484614b15565b604051819063ffffffff8816907f7cd8783637a6bf8d3b4b69973a28720cfb0f5abc55d8b85dde1732d8f22c0efc90600090a383546040805163ffffffff9092168252602082018190526011828201527013585e08131a5b5a5d0814995858da1959607a1b6060830152517f044cea052792fbab534d5bab46ea745cd12cb2253e4c928b3124c1389b3ae22e9181900360800190a1505b505050919050565b600060ca805480602002602001604051908101604052809291908181526020018280548015613b3957602002820191906000526020600020906000905b82829054906101000a900461ffff1661ffff1681526020019060020190602082600101049283019260010382029150808411613b005790505b5050835163ffffffff8716600090815260db602052604081209596509094935091508190505b8381101561412057600583015463ffffffff908116600081815260db60205260408120805492939092169003613b96575050614120565b613b9f81614b3f565b15613c125760405172149959995c995c881a5cc8111a5cd8589b1959606a1b81526013015b604051908190039020613bd8846001615d14565b60405163ffffffff8516907f6bd4a1cb98fe02ede79e45b5749c74ff512165c4fb80ce4045eebef0e4e867dc90600090a4935061410e9050565b604080516104008101909152815463ffffffff16815260018201805461400f92918491602084019190613c4490615c2b565b80601f0160208091040260200160405190810160405280929190818152602001828054613c7090615c2b565b8015613cbd5780601f10613c9257610100808354040283529160200191613cbd565b820191906000526020600020905b815481529060010190602001808311613ca057829003601f168201915b5050509183525050600282015460ff811615156020808401919091526101009091046001600160a01b03166040808401919091526003840154606084015260048401546080840152600584015463ffffffff1660a084015260068401805482518185028101850190935280835260c0909401939192909190830182828015613d9057602002820191906000526020600020906000905b82829054906101000a900463ffffffff1663ffffffff1681526020019060040190602082600301049283019260010382029150808411613d535790505b5050505050815260200160078201805480602002602001604051908101604052809291908181526020018280548015613e1457602002820191906000526020600020906000905b82829054906101000a900463ffffffff1663ffffffff1681526020019060040190602082600301049283019260010382029150808411613dd75790505b5050505050815260200160088201805480602002602001604051908101604052809291908181526020018280548015613e9857602002820191906000526020600020906000905b82829054906101000a900463ffffffff1663ffffffff1681526020019060040190602082600301049283019260010382029150808411613e5b5790505b5050505050815260200160098201548152602001600a8201548152602001600b8201548152602001600c8201548152602001600d8201548152602001600e8201548152602001600f8201548152602001601082015481526020016011820160009054906101000a900460ff1660ff1660ff1681526020016012820154815260200160138201548152602001601482015481526020016015820154815260200160168201548152602001601782015481526020016018820154815260200160198201548152602001601a8201548152602001601b8201805480602002602001604051908101604052809291908181526020018280548015613fe357602002820191906000526020600020906000905b82829054906101000a900463ffffffff1663ffffffff1681526020019060040190602082600301049283019260010382029150808411613fa65790505b50505050508152602001601c8201548152602001601d8201548152602001601e82015481525050614196565b61401a846001615d14565b111561404e576040517f446f776e6c696e65206c6576656c73206c696d697420726561636865640000008152601d01613bc4565b60cb54875160009161ffff169089908690811061406d5761406d615b0a565b602002602001015161ffff168b6140849190615c87565b61408e9190615d57565b9050808260130160008282546140a49190615d14565b909155506140b490508282614c03565b6140be8186615d14565b94508063ffffffff808516908b167f516e026aa0a8e23fcb20eebf31df57c3e9df29f305428f45e22d048a8582dfa06140f8886001615d14565b60405190815260200160405180910390a4509350505b8061411881615cb4565b915050613b5f565b508060cf60008282546141339190615d14565b9091555050505050505050565b600054610100900460ff166141675760405162461bcd60e51b8152600401610cca90615d79565b61111a614c3b565b600054610100900460ff1661111a5760405162461bcd60e51b8152600401610cca90615d79565b60e0810151516000908181156122065760d4546001906141c0906301000000900460ff1684615c87565b6141ca9190615b36565b949350505050565b63ffffffff808216600090815260db6020908152604080832081516104008101909252805490941681526001840180549394859492939092908401919061421890615c2b565b80601f016020809104026020016040519081016040528092919081815260200182805461424490615c2b565b80156142915780601f1061426657610100808354040283529160200191614291565b820191906000526020600020905b81548152906001019060200180831161427457829003601f168201915b5050509183525050600282015460ff811615156020808401919091526101009091046001600160a01b03166040808401919091526003840154606084015260048401546080840152600584015463ffffffff1660a084015260068401805482518185028101850190935280835260c090940193919290919083018282801561436457602002820191906000526020600020906000905b82829054906101000a900463ffffffff1663ffffffff16815260200190600401906020826003010492830192600103820291508084116143275790505b50505050508152602001600782018054806020026020016040519081016040528092919081815260200182805480156143e857602002820191906000526020600020906000905b82829054906101000a900463ffffffff1663ffffffff16815260200190600401906020826003010492830192600103820291508084116143ab5790505b505050505081526020016008820180548060200260200160405190810160405280929190818152602001828054801561446c57602002820191906000526020600020906000905b82829054906101000a900463ffffffff1663ffffffff168152602001906004019060208260030104928301926001038202915080841161442f5790505b5050505050815260200160098201548152602001600a8201548152602001600b8201548152602001600c8201548152602001600d8201548152602001600e8201548152602001600f8201548152602001601082015481526020016011820160009054906101000a900460ff1660ff1660ff1681526020016012820154815260200160138201548152602001601482015481526020016015820154815260200160168201548152602001601782015481526020016018820154815260200160198201548152602001601a8201548152602001601b82018054806020026020016040519081016040528092919081815260200182805480156145b757602002820191906000526020600020906000905b82829054906101000a900463ffffffff1663ffffffff168152602001906004019060208260030104928301926001038202915080841161457a5790505b5050509183525050601c8201546020820152601d8201546040820152601e9091015460609091015261038081015180516102c083015192935090916145fd906002615c87565b836102e001511080156146105750600081115b156147055760005b818161ffff1610156146ff57600060dc6000858461ffff168151811061464057614640615b0a565b602002602001015163ffffffff1663ffffffff16815260200190815260200160002090508060000160049054906101000a900460ff16156146ec5760cb5460d154600183015460009261ffff908116926146a592600160601b90910490911690615c87565b6146af9190615d57565b905060008260030154426146c39190615b36565b9050620151806146d38284615c87565b6146dd9190615d57565b6146e79089615d14565b975050505b50806146f781615d27565b915050614618565b50613abb565b506000949350505050565b600080670de0b6b3a764000060c960009054906101000a90046001600160a01b03166001600160a01b031663e1aa60366040518163ffffffff1660e01b8152600401602060405180830381865afa15801561476f573d6000803e3d6000fd5b505050506040513d601f19601f820116820180604052508101906147939190615d3e565b6135cd9085615c87565b63ffffffff858116600081815260db60205260409020805463ffffffff1990811690921781556002810180546001600160a81b0319166101006001600160a01b038c16021760011790556003808201869055600582018054909316938816939093179091559061480e908590615c87565b8160170160008282546148219190615d14565b925050819055508381600901600082825461483c9190615d14565b92505081905550838160150160008282546148579190615d14565b90915550506019810183905560005b828160ff1610156149e957600582015463ffffffff908116600081815260db602052604081208054929390921690036148a05750506149e9565b8260ff16600003614904578681600b0160008282546148bf9190615d14565b9091555050600681018054600181018255600091825260209091206008820401805460079092166004026101000a63ffffffff81810219909316928c16029190911790555b8681600d0160008282546149189190615d14565b9091555050600781810180546001810182556000918252602091829020600882040180549190931660040261010090810a63ffffffff818102199093168e841691820217909455600285015460058901546040519084168152928d16939190046001600160a01b0316917fa7fafc728ec30e34dc1e1276496bf3eb44ca7494679da969455289e6a8f0f1f6910160405180910390a460d454610100900460ff16156149c9576149c981838989614c6b565b6149d3878761530f565b92508190506149e181615b74565b915050614866565b5060d18054640100000000900463ffffffff16906004614a0883615cf1565b91906101000a81548163ffffffff021916908363ffffffff1602179055505050505050505050565b6000816017015482601601541015614a4c578160160154612218565b506017015490565b6001600160a01b0381163b614ac15760405162461bcd60e51b815260206004820152602d60248201527f455243313936373a206e657720696d706c656d656e746174696f6e206973206e60448201526c1bdd08184818dbdb9d1c9858dd609a1b6064820152608401610cca565b600080516020615df483398151915280546001600160a01b0319166001600160a01b0392909216919091179055565b614af983615349565b600082511180614b065750805b15610c02576123068383615389565b6040805160008152602081019182905251614b3491601b840191615563565b506000601c90910155565b600281015460009060ff1615614b5757506001919050565b8160170154826016015410614b6e57506001919050565b601b82015415614bfb57601b8201805460009160dc91839190614b9390600190615b36565b81548110614ba357614ba3615b0a565b90600052602060002090600891828204019190066004029054906101000a900463ffffffff1663ffffffff1663ffffffff168152602001908152602001600020905042816003015410614bf95750600192915050565b505b506000919050565b8160170154818360160154614c189190615d14565b10614c2b57601782015460168301555050565b808260160154610c029190615d14565b600054610100900460ff16614c625760405162461bcd60e51b8152600401610cca90615d79565b61111a3361374a565b6011840154604080516104008101909152855463ffffffff16815260018601805460ff9093169261507392918891602084019190614ca890615c2b565b80601f0160208091040260200160405190810160405280929190818152602001828054614cd490615c2b565b8015614d215780601f10614cf657610100808354040283529160200191614d21565b820191906000526020600020905b815481529060010190602001808311614d0457829003601f168201915b5050509183525050600282015460ff811615156020808401919091526101009091046001600160a01b03166040808401919091526003840154606084015260048401546080840152600584015463ffffffff1660a084015260068401805482518185028101850190935280835260c0909401939192909190830182828015614df457602002820191906000526020600020906000905b82829054906101000a900463ffffffff1663ffffffff1681526020019060040190602082600301049283019260010382029150808411614db75790505b5050505050815260200160078201805480602002602001604051908101604052809291908181526020018280548015614e7857602002820191906000526020600020906000905b82829054906101000a900463ffffffff1663ffffffff1681526020019060040190602082600301049283019260010382029150808411614e3b5790505b5050505050815260200160088201805480602002602001604051908101604052809291908181526020018280548015614efc57602002820191906000526020600020906000905b82829054906101000a900463ffffffff1663ffffffff1681526020019060040190602082600301049283019260010382029150808411614ebf5790505b5050505050815260200160098201548152602001600a8201548152602001600b8201548152602001600c8201548152602001600d8201548152602001600e8201548152602001600f8201548152602001601082015481526020016011820160009054906101000a900460ff1660ff1660ff1681526020016012820154815260200160138201548152602001601482015481526020016015820154815260200160168201548152602001601782015481526020016018820154815260200160198201548152602001601a8201548152602001601b820180548060200260200160405190810160405280929190818152602001828054801561504757602002820191906000526020600020906000905b82829054906101000a900463ffffffff1663ffffffff168152602001906004019060208260030104928301926001038202915080841161500a5790505b50505050508152602001601c8201548152602001601d8201548152602001601e8201548152505061379c565b60ff16111561230657604080516104008101909152845463ffffffff1681526001850180546150ae92918791602084019190614ca890615c2b565b60118501805460ff191660ff9283169081178255600090815260dd6020908152604080832060099081018054600181810183559186529385206008850401805460079095166004026101000a63ffffffff81810219909616958c1602949094179093559354909416825292902001546151279190615b36565b6012850181905560118501546040805163ffffffff87168152602081019390935260ff90911682820152517fb0d3a9c683344e744a1ae3db383f75a8a01851282c5fe97d6159c1392a2e2a0a9181900360600190a1604080516104008101909152845463ffffffff16815260018501805460dd926000926151b29289916020840191614ca890615c2b565b60ff90811682526020820192909252604001600020600801546101009004161561527657604080516104008101909152845463ffffffff16815260018501805460dd9260009261520c9289916020840191614ca890615c2b565b60ff1660ff1681526020019081526020016000206007015484601001546152339190615d14565b811115615262578084601001819055508184600f0160008282546152579190615d14565b909155506123069050565b8184600f0160008282546152579190615d14565b60d454610100900460ff161561230657601184015460ff16600090815260dd60205260409020600501546152ab908590614c03565b601184015460ff908116600090815260dd602090815260409182902060058101549054925192909316825263ffffffff8616917f94b6d3d19cc40938e685ef6a1f6476b53ef65295ab094a044e74405a8d0bd05b910160405180910390a350505050565b60d75460d65461531f9190615d14565b81111561532e5760d65560d555565b8160d560008282546153409190615d14565b90915550505050565b61535281614a54565b6040516001600160a01b038216907fbc7cd75a20ee27fd9adebab32041f755214dbc6bffa90cc0225b39da2e5c2d3b90600090a250565b60606001600160a01b0383163b6153f15760405162461bcd60e51b815260206004820152602660248201527f416464726573733a2064656c65676174652063616c6c20746f206e6f6e2d636f6044820152651b9d1c9858dd60d21b6064820152608401610cca565b600080846001600160a01b03168460405161540c9190615dc4565b600060405180830381855af49150503d8060008114615447576040519150601f19603f3d011682016040523d82523d6000602084013e61544c565b606091505b50915091506154748282604051806060016040528060278152602001615e146027913961547d565b95945050505050565b6060831561548c575081612206565b61220683838151156154a15781518083602001fd5b8060405162461bcd60e51b8152600401610cca9190615de0565b82805482825590600052602060002090600f016010900481019282156155535791602002820160005b8382111561552357835183826101000a81548161ffff021916908360ff16021790555092602001926002016020816001010492830192600103026154e4565b80156155515782816101000a81549061ffff0219169055600201602081600101049283019260010302615523565b505b5061555f929150615600565b5090565b828054828255906000526020600020906007016008900481019282156155535791602002820160005b838211156155d057835183826101000a81548163ffffffff021916908363ffffffff160217905550926020019260040160208160030104928301926001030261558c565b80156155515782816101000a81549063ffffffff02191690556004016020816003010492830192600103026155d0565b5b8082111561555f5760008155600101615601565b80356001600160a01b038116811461562c57600080fd5b919050565b6000806040838503121561564457600080fd5b61564d83615615565b946020939093013593505050565b60006020828403121561566d57600080fd5b61220682615615565b60006020828403121561568857600080fd5b5035919050565b803563ffffffff8116811461562c57600080fd5b6000602082840312156156b557600080fd5b6122068261568f565b634e487b7160e01b600052604160045260246000fd5b600080604083850312156156e757600080fd5b6156f083615615565b9150602083013567ffffffffffffffff8082111561570d57600080fd5b818501915085601f83011261572157600080fd5b813581811115615733576157336156be565b604051601f8201601f19908116603f0116810190838211818310171561575b5761575b6156be565b8160405282815288602084870101111561577457600080fd5b8260208601602083013760006020848301015280955050505050509250929050565b600081518084526020808501945080840160005b838110156157cc57815163ffffffff16875295820195908201906001016157aa565b509495945050505050565b6060815260006157ea6060830186615796565b82810360208401526157fc8186615796565b915050826040830152949350505050565b60008060006060848603121561582257600080fd5b833561ffff8116811461583457600080fd5b95602085013595506040909401359392505050565b6000806040838503121561585c57600080fd5b61564d8361568f565b60005b83811015615880578181015183820152602001615868565b50506000910152565b600081518084526158a1816020860160208601615865565b601f01601f19169290920160200192915050565b602081526158cc60208201835163ffffffff169052565b600060208301516104008060408501526158ea610420850183615889565b915060408501516158ff606086018215159052565b5060608501516001600160a01b038116608086015250608085015160a085015260a085015160c085015260c085015161594060e086018263ffffffff169052565b5060e0850151601f1961010081878603018188015261595f8584615796565b94508088015192505061012081878603018188015261597e8584615796565b94508088015192505061014081878603018188015261599d8584615796565b9088015161016088810191909152880151610180808901919091528801516101a0808901919091528801516101c0808901919091528801516101e0808901919091528801516102008089019190915288015161022080890191909152880151610240808901919091528801519094509150610260615a1f8188018460ff169052565b870151610280878101919091528701516102a0808801919091528701516102c0808801919091528701516102e080880191909152870151610300808801919091528701516103208088019190915287015161034080880191909152870151610360808801919091528701516103808088019190915287015186850382016103a080890191909152909250615ab38584615796565b908801516103c0888101919091528801516103e08089019190915290970151929095019190915250929392505050565b60208152815115156020820152600060208301516040808401526141ca6060840182615796565b634e487b7160e01b600052603260045260246000fd5b634e487b7160e01b600052601160045260246000fd5b8181038181111561221857612218615b20565b6020808252601190820152702cb7ba9030b932903737ba1030b236b4b760791b604082015260600190565b600060ff821660ff8103615b8a57615b8a615b20565b60010192915050565b6020808252602c908201527f46756e6374696f6e206d7573742062652063616c6c6564207468726f7567682060408201526b19195b1959d85d1958d85b1b60a21b606082015260800190565b6020808252602c908201527f46756e6374696f6e206d7573742062652063616c6c6564207468726f7567682060408201526b6163746976652070726f787960a01b606082015260800190565b600181811c90821680615c3f57607f821691505b602082108103615c5f57634e487b7160e01b600052602260045260246000fd5b50919050565b600060208284031215615c7757600080fd5b8151801515811461220657600080fd5b808202811582820484141761221857612218615b20565b634e487b7160e01b600052603160045260246000fd5b600060018201615cc657615cc6615b20565b5060010190565b63ffffffff818116838216019080821115615cea57615cea615b20565b5092915050565b600063ffffffff808316818103615d0a57615d0a615b20565b6001019392505050565b8082018082111561221857612218615b20565b600061ffff808316818103615d0a57615d0a615b20565b600060208284031215615d5057600080fd5b5051919050565b600082615d7457634e487b7160e01b600052601260045260246000fd5b500490565b6020808252602b908201527f496e697469616c697a61626c653a20636f6e7472616374206973206e6f74206960408201526a6e697469616c697a696e6760a81b606082015260800190565b60008251615dd6818460208701615865565b9190910192915050565b602081526000612206602083018461588956fe360894a13ba1a3210667c828492db98dca3e2076cc3735a920a3ca505d382bbc416464726573733a206c6f772d6c6576656c2064656c65676174652063616c6c206661696c6564a264697066735822122026f763a8e3cd635b9ed4d42dd9970a930c66a89d63f95a0fe0f3fb96f02bdd9264736f6c63430008110033","opcodes":"PUSH1 0xA0 PUSH1 0x40 MSTORE ADDRESS PUSH1 0x80 MSTORE CALLVALUE DUP1 ISZERO PUSH2 0x14 JUMPI PUSH1 0x0 DUP1 REVERT JUMPDEST POP PUSH1 0x80 MLOAD PUSH2 0x5E70 PUSH3 0x4D PUSH1 0x0 CODECOPY PUSH1 0x0 DUP2 DUP2 PUSH2 0xD76 ADD MSTORE DUP2 DUP2 PUSH2 0xDB6 ADD MSTORE DUP2 DUP2 PUSH2 0xE5F ADD MSTORE DUP2 DUP2 PUSH2 0xE9F ADD MSTORE PUSH2 0xF2E ADD MSTORE PUSH2 0x5E70 PUSH1 0x0 RETURN INVALID PUSH1 0x80 PUSH1 0x40 MSTORE PUSH1 0x4 CALLDATASIZE LT PUSH2 0x354 JUMPI PUSH1 0x0 CALLDATALOAD PUSH1 0xE0 SHR DUP1 PUSH4 0x7C599486 GT PUSH2 0x1C6 JUMPI DUP1 PUSH4 0xBFF1F9E1 GT PUSH2 0xF7 JUMPI DUP1 PUSH4 0xF229B4D5 GT PUSH2 0x95 JUMPI DUP1 PUSH4 0xF41BFEEF GT PUSH2 0x6F JUMPI DUP1 PUSH4 0xF41BFEEF EQ PUSH2 0xB35 JUMPI DUP1 PUSH4 0xF830E57B EQ PUSH2 0xB4B JUMPI DUP1 PUSH4 0xFAFC9597 EQ PUSH2 0xB78 JUMPI DUP1 PUSH4 0xFB47E016 EQ PUSH2 0xB97 JUMPI PUSH1 0x0 DUP1 REVERT JUMPDEST DUP1 PUSH4 0xF229B4D5 EQ PUSH2 0xAB5 JUMPI DUP1 PUSH4 0xF2FDE38B EQ PUSH2 0xAF5 JUMPI DUP1 PUSH4 0xF31A2D0F EQ PUSH2 0xB15 JUMPI PUSH1 0x0 DUP1 REVERT JUMPDEST DUP1 PUSH4 0xD895AF2C GT PUSH2 0xD1 JUMPI DUP1 PUSH4 0xD895AF2C EQ PUSH2 0xA42 JUMPI DUP1 PUSH4 0xE52356F3 EQ PUSH2 0xA62 JUMPI DUP1 PUSH4 0xE5682E38 EQ PUSH2 0xA82 JUMPI DUP1 PUSH4 0xEA62F715 EQ PUSH2 0xA95 JUMPI PUSH1 0x0 DUP1 REVERT JUMPDEST DUP1 PUSH4 0xBFF1F9E1 EQ PUSH2 0x8E4 JUMPI DUP1 PUSH4 0xC3AB5EBF EQ PUSH2 0x901 JUMPI DUP1 PUSH4 0xC82801CA EQ PUSH2 0xA22 JUMPI PUSH1 0x0 DUP1 REVERT JUMPDEST DUP1 PUSH4 0xA0506AED GT PUSH2 0x164 JUMPI DUP1 PUSH4 0xA28A3686 GT PUSH2 0x13E JUMPI DUP1 PUSH4 0xA28A3686 EQ PUSH2 0x86A JUMPI DUP1 PUSH4 0xAF2F39D1 EQ PUSH2 0x88A JUMPI DUP1 PUSH4 0xB47181D3 EQ PUSH2 0x8A4 JUMPI DUP1 PUSH4 0xBF46DE63 EQ PUSH2 0x8C4 JUMPI PUSH1 0x0 DUP1 REVERT JUMPDEST DUP1 PUSH4 0xA0506AED EQ PUSH2 0x7F7 JUMPI DUP1 PUSH4 0xA0B6105F EQ PUSH2 0x826 JUMPI DUP1 PUSH4 0xA1B80175 EQ PUSH2 0x846 JUMPI PUSH1 0x0 DUP1 REVERT JUMPDEST DUP1 PUSH4 0x8DA5CB5B GT PUSH2 0x1A0 JUMPI DUP1 PUSH4 0x8DA5CB5B EQ PUSH2 0x783 JUMPI DUP1 PUSH4 0x8DF05D9C EQ PUSH2 0x7A1 JUMPI DUP1 PUSH4 0x96ED6B85 EQ PUSH2 0x7C1 JUMPI DUP1 PUSH4 0x9F4E8398 EQ PUSH2 0x7D7 JUMPI PUSH1 0x0 DUP1 REVERT JUMPDEST DUP1 PUSH4 0x7C599486 EQ PUSH2 0x742 JUMPI DUP1 PUSH4 0x8129FC1C EQ PUSH2 0x758 JUMPI DUP1 PUSH4 0x852FF2FD EQ PUSH2 0x76D JUMPI PUSH1 0x0 DUP1 REVERT JUMPDEST DUP1 PUSH4 0x347976C4 GT PUSH2 0x2A0 JUMPI DUP1 PUSH4 0x5E701D86 GT PUSH2 0x23E JUMPI DUP1 PUSH4 0x715018A6 GT PUSH2 0x218 JUMPI DUP1 PUSH4 0x715018A6 EQ PUSH2 0x6CD JUMPI DUP1 PUSH4 0x76A68E84 EQ PUSH2 0x6E2 JUMPI DUP1 PUSH4 0x770CEEB1 EQ PUSH2 0x702 JUMPI DUP1 PUSH4 0x7879B5EF EQ PUSH2 0x722 JUMPI PUSH1 0x0 DUP1 REVERT JUMPDEST DUP1 PUSH4 0x5E701D86 EQ PUSH2 0x653 JUMPI DUP1 PUSH4 0x704B6C02 EQ PUSH2 0x68D JUMPI DUP1 PUSH4 0x70D9E081 EQ PUSH2 0x6AD JUMPI PUSH1 0x0 DUP1 REVERT JUMPDEST DUP1 PUSH4 0x473B0D46 GT PUSH2 0x27A JUMPI DUP1 PUSH4 0x473B0D46 EQ PUSH2 0x5C2 JUMPI DUP1 PUSH4 0x4F1EF286 EQ PUSH2 0x5E2 JUMPI DUP1 PUSH4 0x52D1902D EQ PUSH2 0x5F5 JUMPI DUP1 PUSH4 0x538FFE0C EQ PUSH2 0x60A JUMPI PUSH1 0x0 DUP1 REVERT JUMPDEST DUP1 PUSH4 0x347976C4 EQ PUSH2 0x508 JUMPI DUP1 PUSH4 0x35759788 EQ PUSH2 0x58D JUMPI DUP1 PUSH4 0x3659CFE6 EQ PUSH2 0x5A2 JUMPI PUSH1 0x0 DUP1 REVERT JUMPDEST DUP1 PUSH4 0x1F7F83BA GT PUSH2 0x30D JUMPI DUP1 PUSH4 0x2913497B GT PUSH2 0x2E7 JUMPI DUP1 PUSH4 0x2913497B EQ PUSH2 0x490 JUMPI DUP1 PUSH4 0x2ED421D2 EQ PUSH2 0x4AE JUMPI DUP1 PUSH4 0x30ABBCC5 EQ PUSH2 0x4C4 JUMPI DUP1 PUSH4 0x313CE567 EQ PUSH2 0x4DA JUMPI PUSH1 0x0 DUP1 REVERT JUMPDEST DUP1 PUSH4 0x1F7F83BA EQ PUSH2 0x445 JUMPI DUP1 PUSH4 0x1F9E65E4 EQ PUSH2 0x465 JUMPI DUP1 PUSH4 0x22F88B52 EQ PUSH2 0x47A JUMPI PUSH1 0x0 DUP1 REVERT JUMPDEST DUP1 PUSH4 0x9DE82CD EQ PUSH2 0x360 JUMPI DUP1 PUSH4 0xB243DAD EQ PUSH2 0x389 JUMPI DUP1 PUSH4 0xEFDBB6A EQ PUSH2 0x3AB JUMPI DUP1 PUSH4 0x14BFD6D0 EQ PUSH2 0x3CB JUMPI DUP1 PUSH4 0x18E10BFF EQ PUSH2 0x403 JUMPI DUP1 PUSH4 0x1C961C05 EQ PUSH2 0x42F JUMPI PUSH1 0x0 DUP1 REVERT JUMPDEST CALLDATASIZE PUSH2 0x35B JUMPI STOP JUMPDEST PUSH1 0x0 DUP1 REVERT JUMPDEST CALLVALUE DUP1 ISZERO PUSH2 0x36C JUMPI PUSH1 0x0 DUP1 REVERT JUMPDEST POP PUSH2 0x376 PUSH1 0xCE SLOAD DUP2 JUMP JUMPDEST PUSH1 0x40 MLOAD SWAP1 DUP2 MSTORE PUSH1 0x20 ADD JUMPDEST PUSH1 0x40 MLOAD DUP1 SWAP2 SUB SWAP1 RETURN JUMPDEST CALLVALUE DUP1 ISZERO PUSH2 0x395 JUMPI PUSH1 0x0 DUP1 REVERT JUMPDEST POP PUSH2 0x3A9 PUSH2 0x3A4 CALLDATASIZE PUSH1 0x4 PUSH2 0x5631 JUMP JUMPDEST PUSH2 0xBC4 JUMP JUMPDEST STOP JUMPDEST CALLVALUE DUP1 ISZERO PUSH2 0x3B7 JUMPI PUSH1 0x0 DUP1 REVERT JUMPDEST POP PUSH2 0x3A9 PUSH2 0x3C6 CALLDATASIZE PUSH1 0x4 PUSH2 0x565B JUMP JUMPDEST PUSH2 0xC07 JUMP JUMPDEST CALLVALUE DUP1 ISZERO PUSH2 0x3D7 JUMPI PUSH1 0x0 DUP1 REVERT JUMPDEST POP PUSH2 0x3EB PUSH2 0x3E6 CALLDATASIZE PUSH1 0x4 PUSH2 0x5676 JUMP JUMPDEST PUSH2 0xCE9 JUMP JUMPDEST PUSH1 0x40 MLOAD PUSH1 0x1 PUSH1 0x1 PUSH1 0xA0 SHL SUB SWAP1 SWAP2 AND DUP2 MSTORE PUSH1 0x20 ADD PUSH2 0x380 JUMP JUMPDEST CALLVALUE DUP1 ISZERO PUSH2 0x40F JUMPI PUSH1 0x0 DUP1 REVERT JUMPDEST POP PUSH1 0xD9 SLOAD PUSH2 0x41D SWAP1 PUSH1 0xFF AND DUP2 JUMP JUMPDEST PUSH1 0x40 MLOAD PUSH1 0xFF SWAP1 SWAP2 AND DUP2 MSTORE PUSH1 0x20 ADD PUSH2 0x380 JUMP JUMPDEST CALLVALUE DUP1 ISZERO PUSH2 0x43B JUMPI PUSH1 0x0 DUP1 REVERT JUMPDEST POP PUSH2 0x376 PUSH1 0xCC SLOAD DUP2 JUMP JUMPDEST CALLVALUE DUP1 ISZERO PUSH2 0x451 JUMPI PUSH1 0x0 DUP1 REVERT JUMPDEST POP PUSH2 0x3EB PUSH2 0x460 CALLDATASIZE PUSH1 0x4 PUSH2 0x5676 JUMP JUMPDEST PUSH2 0xD13 JUMP JUMPDEST CALLVALUE DUP1 ISZERO PUSH2 0x471 JUMPI PUSH1 0x0 DUP1 REVERT JUMPDEST POP PUSH2 0x376 PUSH2 0xD23 JUMP JUMPDEST CALLVALUE DUP1 ISZERO PUSH2 0x486 JUMPI PUSH1 0x0 DUP1 REVERT JUMPDEST POP PUSH2 0x376 PUSH1 0xD5 SLOAD DUP2 JUMP JUMPDEST CALLVALUE DUP1 ISZERO PUSH2 0x49C JUMPI PUSH1 0x0 DUP1 REVERT JUMPDEST POP PUSH1 0xC9 SLOAD PUSH1 0x1 PUSH1 0x1 PUSH1 0xA0 SHL SUB AND PUSH2 0x3EB JUMP JUMPDEST CALLVALUE DUP1 ISZERO PUSH2 0x4BA JUMPI PUSH1 0x0 DUP1 REVERT JUMPDEST POP PUSH2 0x376 PUSH1 0xD6 SLOAD DUP2 JUMP JUMPDEST CALLVALUE DUP1 ISZERO PUSH2 0x4D0 JUMPI PUSH1 0x0 DUP1 REVERT JUMPDEST POP PUSH2 0x376 PUSH1 0xD0 SLOAD DUP2 JUMP JUMPDEST CALLVALUE DUP1 ISZERO PUSH2 0x4E6 JUMPI PUSH1 0x0 DUP1 REVERT JUMPDEST POP PUSH1 0xCB SLOAD PUSH2 0x4F5 SWAP1 PUSH2 0xFFFF AND DUP2 JUMP JUMPDEST PUSH1 0x40 MLOAD PUSH2 0xFFFF SWAP1 SWAP2 AND DUP2 MSTORE PUSH1 0x20 ADD PUSH2 0x380 JUMP JUMPDEST CALLVALUE DUP1 ISZERO PUSH2 0x514 JUMPI PUSH1 0x0 DUP1 REVERT JUMPDEST POP PUSH2 0x560 PUSH2 0x523 CALLDATASIZE PUSH1 0x4 PUSH2 0x56A3 JUMP JUMPDEST PUSH4 0xFFFFFFFF AND PUSH1 0x0 SWAP1 DUP2 MSTORE PUSH1 0xDB PUSH1 0x20 MSTORE PUSH1 0x40 SWAP1 KECCAK256 PUSH1 0x9 DUP2 ADD SLOAD PUSH1 0xA DUP3 ADD SLOAD PUSH1 0xB DUP4 ADD SLOAD PUSH1 0xC DUP5 ADD SLOAD PUSH1 0xD DUP6 ADD SLOAD PUSH1 0xE SWAP1 SWAP6 ADD SLOAD SWAP4 SWAP6 SWAP3 SWAP5 SWAP2 SWAP4 SWAP1 SWAP3 JUMP JUMPDEST PUSH1 0x40 DUP1 MLOAD SWAP7 DUP8 MSTORE PUSH1 0x20 DUP8 ADD SWAP6 SWAP1 SWAP6 MSTORE SWAP4 DUP6 ADD SWAP3 SWAP1 SWAP3 MSTORE PUSH1 0x60 DUP5 ADD MSTORE PUSH1 0x80 DUP4 ADD MSTORE PUSH1 0xA0 DUP3 ADD MSTORE PUSH1 0xC0 ADD PUSH2 0x380 JUMP JUMPDEST CALLVALUE DUP1 ISZERO PUSH2 0x599 JUMPI PUSH1 0x0 DUP1 REVERT JUMPDEST POP PUSH2 0x3A9 PUSH2 0xD35 JUMP JUMPDEST CALLVALUE DUP1 ISZERO PUSH2 0x5AE JUMPI PUSH1 0x0 DUP1 REVERT JUMPDEST POP PUSH2 0x3A9 PUSH2 0x5BD CALLDATASIZE PUSH1 0x4 PUSH2 0x565B JUMP JUMPDEST PUSH2 0xD6C JUMP JUMPDEST CALLVALUE DUP1 ISZERO PUSH2 0x5CE JUMPI PUSH1 0x0 DUP1 REVERT JUMPDEST POP PUSH2 0x3A9 PUSH2 0x5DD CALLDATASIZE PUSH1 0x4 PUSH2 0x5676 JUMP JUMPDEST PUSH2 0xE48 JUMP JUMPDEST PUSH2 0x3A9 PUSH2 0x5F0 CALLDATASIZE PUSH1 0x4 PUSH2 0x56D4 JUMP JUMPDEST PUSH2 0xE55 JUMP JUMPDEST CALLVALUE DUP1 ISZERO PUSH2 0x601 JUMPI PUSH1 0x0 DUP1 REVERT JUMPDEST POP PUSH2 0x376 PUSH2 0xF21 JUMP JUMPDEST CALLVALUE DUP1 ISZERO PUSH2 0x616 JUMPI PUSH1 0x0 DUP1 REVERT JUMPDEST POP PUSH2 0x643 PUSH2 0x625 CALLDATASIZE PUSH1 0x4 PUSH2 0x565B JUMP JUMPDEST PUSH1 0x1 PUSH1 0x1 PUSH1 0xA0 SHL SUB AND PUSH1 0x0 SWAP1 DUP2 MSTORE PUSH1 0xDA PUSH1 0x20 MSTORE PUSH1 0x40 SWAP1 KECCAK256 SLOAD PUSH1 0xFF AND SWAP1 JUMP JUMPDEST PUSH1 0x40 MLOAD SWAP1 ISZERO ISZERO DUP2 MSTORE PUSH1 0x20 ADD PUSH2 0x380 JUMP JUMPDEST CALLVALUE DUP1 ISZERO PUSH2 0x65F JUMPI PUSH1 0x0 DUP1 REVERT JUMPDEST POP PUSH1 0xD1 SLOAD PUSH2 0x678 SWAP1 PUSH5 0x100000000 SWAP1 DIV PUSH4 0xFFFFFFFF AND DUP2 JUMP JUMPDEST PUSH1 0x40 MLOAD PUSH4 0xFFFFFFFF SWAP1 SWAP2 AND DUP2 MSTORE PUSH1 0x20 ADD PUSH2 0x380 JUMP JUMPDEST CALLVALUE DUP1 ISZERO PUSH2 0x699 JUMPI PUSH1 0x0 DUP1 REVERT JUMPDEST POP PUSH2 0x3A9 PUSH2 0x6A8 CALLDATASIZE PUSH1 0x4 PUSH2 0x565B JUMP JUMPDEST PUSH2 0xFD4 JUMP JUMPDEST CALLVALUE DUP1 ISZERO PUSH2 0x6B9 JUMPI PUSH1 0x0 DUP1 REVERT JUMPDEST POP PUSH2 0x3A9 PUSH2 0x6C8 CALLDATASIZE PUSH1 0x4 PUSH2 0x56A3 JUMP JUMPDEST PUSH2 0x102E JUMP JUMPDEST CALLVALUE DUP1 ISZERO PUSH2 0x6D9 JUMPI PUSH1 0x0 DUP1 REVERT JUMPDEST POP PUSH2 0x3A9 PUSH2 0x1108 JUMP JUMPDEST CALLVALUE DUP1 ISZERO PUSH2 0x6EE JUMPI PUSH1 0x0 DUP1 REVERT JUMPDEST POP PUSH2 0x376 PUSH2 0x6FD CALLDATASIZE PUSH1 0x4 PUSH2 0x56A3 JUMP JUMPDEST PUSH2 0x111C JUMP JUMPDEST CALLVALUE DUP1 ISZERO PUSH2 0x70E JUMPI PUSH1 0x0 DUP1 REVERT JUMPDEST POP PUSH2 0x3A9 PUSH2 0x71D CALLDATASIZE PUSH1 0x4 PUSH2 0x56A3 JUMP JUMPDEST PUSH2 0x153D JUMP JUMPDEST CALLVALUE DUP1 ISZERO PUSH2 0x72E JUMPI PUSH1 0x0 DUP1 REVERT JUMPDEST POP PUSH2 0x4F5 PUSH2 0x73D CALLDATASIZE PUSH1 0x4 PUSH2 0x5676 JUMP JUMPDEST PUSH2 0x1554 JUMP JUMPDEST CALLVALUE DUP1 ISZERO PUSH2 0x74E JUMPI PUSH1 0x0 DUP1 REVERT JUMPDEST POP PUSH2 0x376 PUSH1 0xCF SLOAD DUP2 JUMP JUMPDEST CALLVALUE DUP1 ISZERO PUSH2 0x764 JUMPI PUSH1 0x0 DUP1 REVERT JUMPDEST POP PUSH2 0x3A9 PUSH2 0x158C JUMP JUMPDEST CALLVALUE DUP1 ISZERO PUSH2 0x779 JUMPI PUSH1 0x0 DUP1 REVERT JUMPDEST POP PUSH2 0x376 PUSH1 0xCD SLOAD DUP2 JUMP JUMPDEST CALLVALUE DUP1 ISZERO PUSH2 0x78F JUMPI PUSH1 0x0 DUP1 REVERT JUMPDEST POP PUSH1 0x33 SLOAD PUSH1 0x1 PUSH1 0x1 PUSH1 0xA0 SHL SUB AND PUSH2 0x3EB JUMP JUMPDEST CALLVALUE DUP1 ISZERO PUSH2 0x7AD JUMPI PUSH1 0x0 DUP1 REVERT JUMPDEST POP PUSH1 0xCB SLOAD PUSH2 0x41D SWAP1 PUSH3 0x10000 SWAP1 DIV PUSH1 0xFF AND DUP2 JUMP JUMPDEST CALLVALUE DUP1 ISZERO PUSH2 0x7CD JUMPI PUSH1 0x0 DUP1 REVERT JUMPDEST POP PUSH2 0x376 PUSH1 0xDF SLOAD DUP2 JUMP JUMPDEST CALLVALUE DUP1 ISZERO PUSH2 0x7E3 JUMPI PUSH1 0x0 DUP1 REVERT JUMPDEST POP PUSH2 0x3A9 PUSH2 0x7F2 CALLDATASIZE PUSH1 0x4 PUSH2 0x565B JUMP JUMPDEST PUSH2 0x182D JUMP JUMPDEST CALLVALUE DUP1 ISZERO PUSH2 0x803 JUMPI PUSH1 0x0 DUP1 REVERT JUMPDEST POP PUSH2 0x817 PUSH2 0x812 CALLDATASIZE PUSH1 0x4 PUSH2 0x56A3 JUMP JUMPDEST PUSH2 0x1949 JUMP JUMPDEST PUSH1 0x40 MLOAD PUSH2 0x380 SWAP4 SWAP3 SWAP2 SWAP1 PUSH2 0x57D7 JUMP JUMPDEST CALLVALUE DUP1 ISZERO PUSH2 0x832 JUMPI PUSH1 0x0 DUP1 REVERT JUMPDEST POP PUSH2 0x3A9 PUSH2 0x841 CALLDATASIZE PUSH1 0x4 PUSH2 0x5631 JUMP JUMPDEST PUSH2 0x1D76 JUMP JUMPDEST CALLVALUE DUP1 ISZERO PUSH2 0x852 JUMPI PUSH1 0x0 DUP1 REVERT JUMPDEST POP PUSH1 0xD1 SLOAD PUSH2 0x678 SWAP1 PUSH1 0x1 PUSH1 0x40 SHL SWAP1 DIV PUSH4 0xFFFFFFFF AND DUP2 JUMP JUMPDEST CALLVALUE DUP1 ISZERO PUSH2 0x876 JUMPI PUSH1 0x0 DUP1 REVERT JUMPDEST POP PUSH1 0xD4 SLOAD PUSH2 0x41D SWAP1 PUSH3 0x10000 SWAP1 DIV PUSH1 0xFF AND DUP2 JUMP JUMPDEST CALLVALUE DUP1 ISZERO PUSH2 0x896 JUMPI PUSH1 0x0 DUP1 REVERT JUMPDEST POP PUSH1 0xD4 SLOAD PUSH2 0x643 SWAP1 PUSH1 0xFF AND DUP2 JUMP JUMPDEST CALLVALUE DUP1 ISZERO PUSH2 0x8B0 JUMPI PUSH1 0x0 DUP1 REVERT JUMPDEST POP PUSH2 0x376 PUSH2 0x8BF CALLDATASIZE PUSH1 0x4 PUSH2 0x56A3 JUMP JUMPDEST PUSH2 0x1DEF JUMP JUMPDEST CALLVALUE DUP1 ISZERO PUSH2 0x8D0 JUMPI PUSH1 0x0 DUP1 REVERT JUMPDEST POP PUSH2 0x376 PUSH2 0x8DF CALLDATASIZE PUSH1 0x4 PUSH2 0x56A3 JUMP JUMPDEST PUSH2 0x220D JUMP JUMPDEST CALLVALUE DUP1 ISZERO PUSH2 0x8F0 JUMPI PUSH1 0x0 DUP1 REVERT JUMPDEST POP PUSH1 0xD1 SLOAD PUSH2 0x678 SWAP1 PUSH4 0xFFFFFFFF AND DUP2 JUMP JUMPDEST CALLVALUE DUP1 ISZERO PUSH2 0x90D JUMPI PUSH1 0x0 DUP1 REVERT JUMPDEST POP PUSH2 0x9C6 PUSH2 0x91C CALLDATASIZE PUSH1 0x4 PUSH2 0x56A3 JUMP JUMPDEST PUSH1 0x40 DUP1 MLOAD PUSH1 0xC0 DUP2 ADD DUP3 MSTORE PUSH1 0x0 DUP1 DUP3 MSTORE PUSH1 0x20 DUP3 ADD DUP2 SWAP1 MSTORE SWAP2 DUP2 ADD DUP3 SWAP1 MSTORE PUSH1 0x60 DUP2 ADD DUP3 SWAP1 MSTORE PUSH1 0x80 DUP2 ADD DUP3 SWAP1 MSTORE PUSH1 0xA0 DUP2 ADD SWAP2 SWAP1 SWAP2 MSTORE POP PUSH4 0xFFFFFFFF SWAP1 DUP2 AND PUSH1 0x0 SWAP1 DUP2 MSTORE PUSH1 0xDC PUSH1 0x20 SWAP1 DUP2 MSTORE PUSH1 0x40 SWAP2 DUP3 SWAP1 KECCAK256 DUP3 MLOAD PUSH1 0xC0 DUP2 ADD DUP5 MSTORE DUP2 SLOAD DUP1 DUP7 AND DUP3 MSTORE PUSH1 0xFF PUSH5 0x100000000 DUP3 DIV AND ISZERO ISZERO SWAP4 DUP3 ADD SWAP4 SWAP1 SWAP4 MSTORE PUSH6 0x10000000000 SWAP1 SWAP3 DIV SWAP1 SWAP4 AND SWAP2 DUP2 ADD SWAP2 SWAP1 SWAP2 MSTORE PUSH1 0x1 DUP3 ADD SLOAD PUSH1 0x60 DUP3 ADD MSTORE PUSH1 0x2 DUP3 ADD SLOAD PUSH2 0xFFFF AND PUSH1 0x80 DUP3 ADD MSTORE PUSH1 0x3 SWAP1 SWAP2 ADD SLOAD PUSH1 0xA0 DUP3 ADD MSTORE SWAP1 JUMP JUMPDEST PUSH1 0x40 MLOAD PUSH2 0x380 SWAP2 SWAP1 PUSH1 0x0 PUSH1 0xC0 DUP3 ADD SWAP1 POP PUSH4 0xFFFFFFFF DUP1 DUP5 MLOAD AND DUP4 MSTORE PUSH1 0x20 DUP5 ADD MLOAD ISZERO ISZERO PUSH1 0x20 DUP5 ADD MSTORE DUP1 PUSH1 0x40 DUP6 ADD MLOAD AND PUSH1 0x40 DUP5 ADD MSTORE POP PUSH1 0x60 DUP4 ADD MLOAD PUSH1 0x60 DUP4 ADD MSTORE PUSH2 0xFFFF PUSH1 0x80 DUP5 ADD MLOAD AND PUSH1 0x80 DUP4 ADD MSTORE PUSH1 0xA0 DUP4 ADD MLOAD PUSH1 0xA0 DUP4 ADD MSTORE SWAP3 SWAP2 POP POP JUMP JUMPDEST CALLVALUE DUP1 ISZERO PUSH2 0xA2E JUMPI PUSH1 0x0 DUP1 REVERT JUMPDEST POP PUSH2 0x3A9 PUSH2 0xA3D CALLDATASIZE PUSH1 0x4 PUSH2 0x580D JUMP JUMPDEST PUSH2 0x221E JUMP JUMPDEST CALLVALUE DUP1 ISZERO PUSH2 0xA4E JUMPI PUSH1 0x0 DUP1 REVERT JUMPDEST POP PUSH2 0x3A9 PUSH2 0xA5D CALLDATASIZE PUSH1 0x4 PUSH2 0x56A3 JUMP JUMPDEST PUSH2 0x230C JUMP JUMPDEST CALLVALUE DUP1 ISZERO PUSH2 0xA6E JUMPI PUSH1 0x0 DUP1 REVERT JUMPDEST POP PUSH2 0x3A9 PUSH2 0xA7D CALLDATASIZE PUSH1 0x4 PUSH2 0x565B JUMP JUMPDEST PUSH2 0x23E9 JUMP JUMPDEST PUSH2 0x3A9 PUSH2 0xA90 CALLDATASIZE PUSH1 0x4 PUSH2 0x56A3 JUMP JUMPDEST PUSH2 0x25BE JUMP JUMPDEST CALLVALUE DUP1 ISZERO PUSH2 0xAA1 JUMPI PUSH1 0x0 DUP1 REVERT JUMPDEST POP PUSH2 0x376 PUSH2 0xAB0 CALLDATASIZE PUSH1 0x4 PUSH2 0x56A3 JUMP JUMPDEST PUSH2 0x27D2 JUMP JUMPDEST CALLVALUE DUP1 ISZERO PUSH2 0xAC1 JUMPI PUSH1 0x0 DUP1 REVERT JUMPDEST POP PUSH2 0xAD5 PUSH2 0xAD0 CALLDATASIZE PUSH1 0x4 PUSH2 0x56A3 JUMP JUMPDEST PUSH2 0x28F7 JUMP JUMPDEST PUSH1 0x40 DUP1 MLOAD SWAP5 DUP6 MSTORE PUSH1 0x20 DUP6 ADD SWAP4 SWAP1 SWAP4 MSTORE SWAP2 DUP4 ADD MSTORE PUSH1 0x60 DUP3 ADD MSTORE PUSH1 0x80 ADD PUSH2 0x380 JUMP JUMPDEST CALLVALUE DUP1 ISZERO PUSH2 0xB01 JUMPI PUSH1 0x0 DUP1 REVERT JUMPDEST POP PUSH2 0x3A9 PUSH2 0xB10 CALLDATASIZE PUSH1 0x4 PUSH2 0x565B JUMP JUMPDEST PUSH2 0x2D42 JUMP JUMPDEST CALLVALUE DUP1 ISZERO PUSH2 0xB21 JUMPI PUSH1 0x0 DUP1 REVERT JUMPDEST POP PUSH2 0x3A9 PUSH2 0xB30 CALLDATASIZE PUSH1 0x4 PUSH2 0x5849 JUMP JUMPDEST PUSH2 0x2DB8 JUMP JUMPDEST CALLVALUE DUP1 ISZERO PUSH2 0xB41 JUMPI PUSH1 0x0 DUP1 REVERT JUMPDEST POP PUSH2 0x376 PUSH1 0xD7 SLOAD DUP2 JUMP JUMPDEST CALLVALUE DUP1 ISZERO PUSH2 0xB57 JUMPI PUSH1 0x0 DUP1 REVERT JUMPDEST POP PUSH2 0xB6B PUSH2 0xB66 CALLDATASIZE PUSH1 0x4 PUSH2 0x56A3 JUMP JUMPDEST PUSH2 0x2F04 JUMP JUMPDEST PUSH1 0x40 MLOAD PUSH2 0x380 SWAP2 SWAP1 PUSH2 0x58B5 JUMP JUMPDEST CALLVALUE DUP1 ISZERO PUSH2 0xB84 JUMPI PUSH1 0x0 DUP1 REVERT JUMPDEST POP PUSH1 0xD4 SLOAD PUSH2 0x643 SWAP1 PUSH2 0x100 SWAP1 DIV PUSH1 0xFF AND DUP2 JUMP JUMPDEST CALLVALUE DUP1 ISZERO PUSH2 0xBA3 JUMPI PUSH1 0x0 DUP1 REVERT JUMPDEST POP PUSH2 0xBB7 PUSH2 0xBB2 CALLDATASIZE PUSH1 0x4 PUSH2 0x565B JUMP JUMPDEST PUSH2 0x341C JUMP JUMPDEST PUSH1 0x40 MLOAD PUSH2 0x380 SWAP2 SWAP1 PUSH2 0x5AE3 JUMP JUMPDEST PUSH2 0xBCC PUSH2 0x34E7 JUMP JUMPDEST PUSH1 0x40 MLOAD PUSH1 0x1 PUSH1 0x1 PUSH1 0xA0 SHL SUB DUP4 AND SWAP1 DUP3 ISZERO PUSH2 0x8FC MUL SWAP1 DUP4 SWAP1 PUSH1 0x0 DUP2 DUP2 DUP2 DUP6 DUP9 DUP9 CALL SWAP4 POP POP POP POP ISZERO DUP1 ISZERO PUSH2 0xC02 JUMPI RETURNDATASIZE PUSH1 0x0 DUP1 RETURNDATACOPY RETURNDATASIZE PUSH1 0x0 REVERT JUMPDEST POP POP POP JUMP JUMPDEST PUSH1 0x0 JUMPDEST PUSH1 0xDE SLOAD PUSH1 0xFF DUP3 AND LT ISZERO PUSH2 0xCE5 JUMPI PUSH1 0xDE DUP2 PUSH1 0xFF AND DUP2 SLOAD DUP2 LT PUSH2 0xC2D JUMPI PUSH2 0xC2D PUSH2 0x5B0A JUMP JUMPDEST PUSH1 0x0 SWAP2 DUP3 MSTORE PUSH1 0x20 SWAP1 SWAP2 KECCAK256 ADD SLOAD PUSH1 0x1 PUSH1 0x1 PUSH1 0xA0 SHL SUB AND CALLER SUB PUSH2 0xC69 JUMPI PUSH1 0xC9 DUP1 SLOAD PUSH1 0x1 PUSH1 0x1 PUSH1 0xA0 SHL SUB DUP5 AND PUSH1 0x1 PUSH1 0x1 PUSH1 0xA0 SHL SUB NOT SWAP1 SWAP2 AND OR SWAP1 SSTORE POP POP JUMP JUMPDEST PUSH1 0xDE SLOAD PUSH2 0xC78 SWAP1 PUSH1 0x1 SWAP1 PUSH2 0x5B36 JUMP JUMPDEST DUP2 PUSH1 0xFF AND SUB PUSH2 0xCD3 JUMPI PUSH1 0xDE DUP2 PUSH1 0xFF AND DUP2 SLOAD DUP2 LT PUSH2 0xC97 JUMPI PUSH2 0xC97 PUSH2 0x5B0A JUMP JUMPDEST PUSH1 0x0 SWAP2 DUP3 MSTORE PUSH1 0x20 SWAP1 SWAP2 KECCAK256 ADD SLOAD PUSH1 0x1 PUSH1 0x1 PUSH1 0xA0 SHL SUB AND CALLER EQ PUSH2 0xCD3 JUMPI PUSH1 0x40 MLOAD PUSH3 0x461BCD PUSH1 0xE5 SHL DUP2 MSTORE PUSH1 0x4 ADD PUSH2 0xCCA SWAP1 PUSH2 0x5B49 JUMP JUMPDEST PUSH1 0x40 MLOAD DUP1 SWAP2 SUB SWAP1 REVERT JUMPDEST DUP1 PUSH2 0xCDD DUP2 PUSH2 0x5B74 JUMP JUMPDEST SWAP2 POP POP PUSH2 0xC0A JUMP JUMPDEST POP POP JUMP JUMPDEST PUSH1 0xDE DUP2 DUP2 SLOAD DUP2 LT PUSH2 0xCF9 JUMPI PUSH1 0x0 DUP1 REVERT JUMPDEST PUSH1 0x0 SWAP2 DUP3 MSTORE PUSH1 0x20 SWAP1 SWAP2 KECCAK256 ADD SLOAD PUSH1 0x1 PUSH1 0x1 PUSH1 0xA0 SHL SUB AND SWAP1 POP DUP2 JUMP JUMPDEST PUSH1 0xD8 DUP2 DUP2 SLOAD DUP2 LT PUSH2 0xCF9 JUMPI PUSH1 0x0 DUP1 REVERT JUMPDEST PUSH1 0x0 PUSH2 0xD30 PUSH1 0xDF SLOAD PUSH2 0x3541 JUMP JUMPDEST SWAP1 POP SWAP1 JUMP JUMPDEST PUSH2 0xD3D PUSH2 0x34E7 JUMP JUMPDEST PUSH1 0x40 MLOAD CALLER SWAP1 SELFBALANCE DUP1 ISZERO PUSH2 0x8FC MUL SWAP2 PUSH1 0x0 DUP2 DUP2 DUP2 DUP6 DUP9 DUP9 CALL SWAP4 POP POP POP POP ISZERO DUP1 ISZERO PUSH2 0xD69 JUMPI RETURNDATASIZE PUSH1 0x0 DUP1 RETURNDATACOPY RETURNDATASIZE PUSH1 0x0 REVERT JUMPDEST POP JUMP JUMPDEST PUSH1 0x1 PUSH1 0x1 PUSH1 0xA0 SHL SUB PUSH32 0x0 AND ADDRESS SUB PUSH2 0xDB4 JUMPI PUSH1 0x40 MLOAD PUSH3 0x461BCD PUSH1 0xE5 SHL DUP2 MSTORE PUSH1 0x4 ADD PUSH2 0xCCA SWAP1 PUSH2 0x5B93 JUMP JUMPDEST PUSH32 0x0 PUSH1 0x1 PUSH1 0x1 PUSH1 0xA0 SHL SUB AND PUSH2 0xDFD PUSH1 0x0 DUP1 MLOAD PUSH1 0x20 PUSH2 0x5DF4 DUP4 CODECOPY DUP2 MLOAD SWAP2 MSTORE SLOAD PUSH1 0x1 PUSH1 0x1 PUSH1 0xA0 SHL SUB AND SWAP1 JUMP JUMPDEST PUSH1 0x1 PUSH1 0x1 PUSH1 0xA0 SHL SUB AND EQ PUSH2 0xE23 JUMPI PUSH1 0x40 MLOAD PUSH3 0x461BCD PUSH1 0xE5 SHL DUP2 MSTORE PUSH1 0x4 ADD PUSH2 0xCCA SWAP1 PUSH2 0x5BDF JUMP JUMPDEST PUSH2 0xE2C DUP2 PUSH2 0x35D7 JUMP JUMPDEST PUSH1 0x40 DUP1 MLOAD PUSH1 0x0 DUP1 DUP3 MSTORE PUSH1 0x20 DUP3 ADD SWAP1 SWAP3 MSTORE PUSH2 0xD69 SWAP2 DUP4 SWAP2 SWAP1 PUSH2 0x35DF JUMP JUMPDEST PUSH2 0xE50 PUSH2 0x34E7 JUMP JUMPDEST PUSH1 0xDF SSTORE JUMP JUMPDEST PUSH1 0x1 PUSH1 0x1 PUSH1 0xA0 SHL SUB PUSH32 0x0 AND ADDRESS SUB PUSH2 0xE9D JUMPI PUSH1 0x40 MLOAD PUSH3 0x461BCD PUSH1 0xE5 SHL DUP2 MSTORE PUSH1 0x4 ADD PUSH2 0xCCA SWAP1 PUSH2 0x5B93 JUMP JUMPDEST PUSH32 0x0 PUSH1 0x1 PUSH1 0x1 PUSH1 0xA0 SHL SUB AND PUSH2 0xEE6 PUSH1 0x0 DUP1 MLOAD PUSH1 0x20 PUSH2 0x5DF4 DUP4 CODECOPY DUP2 MLOAD SWAP2 MSTORE SLOAD PUSH1 0x1 PUSH1 0x1 PUSH1 0xA0 SHL SUB AND SWAP1 JUMP JUMPDEST PUSH1 0x1 PUSH1 0x1 PUSH1 0xA0 SHL SUB AND EQ PUSH2 0xF0C JUMPI PUSH1 0x40 MLOAD PUSH3 0x461BCD PUSH1 0xE5 SHL DUP2 MSTORE PUSH1 0x4 ADD PUSH2 0xCCA SWAP1 PUSH2 0x5BDF JUMP JUMPDEST PUSH2 0xF15 DUP3 PUSH2 0x35D7 JUMP JUMPDEST PUSH2 0xCE5 DUP3 DUP3 PUSH1 0x1 PUSH2 0x35DF JUMP JUMPDEST PUSH1 0x0 ADDRESS PUSH1 0x1 PUSH1 0x1 PUSH1 0xA0 SHL SUB PUSH32 0x0 AND EQ PUSH2 0xFC1 JUMPI PUSH1 0x40 MLOAD PUSH3 0x461BCD PUSH1 0xE5 SHL DUP2 MSTORE PUSH1 0x20 PUSH1 0x4 DUP3 ADD MSTORE PUSH1 0x38 PUSH1 0x24 DUP3 ADD MSTORE PUSH32 0x555550535570677261646561626C653A206D757374206E6F742062652063616C PUSH1 0x44 DUP3 ADD MSTORE PUSH32 0x6C6564207468726F7567682064656C656761746563616C6C0000000000000000 PUSH1 0x64 DUP3 ADD MSTORE PUSH1 0x84 ADD PUSH2 0xCCA JUMP JUMPDEST POP PUSH1 0x0 DUP1 MLOAD PUSH1 0x20 PUSH2 0x5DF4 DUP4 CODECOPY DUP2 MLOAD SWAP2 MSTORE SWAP1 JUMP JUMPDEST PUSH2 0xFDC PUSH2 0x34E7 JUMP JUMPDEST PUSH1 0xDE DUP1 SLOAD PUSH1 0x1 DUP2 ADD DUP3 SSTORE PUSH1 0x0 SWAP2 SWAP1 SWAP2 MSTORE PUSH32 0xFAE8130C0619F84B4B44F01B84806F04E82E536D70E05F2356977FA318AECC1A ADD DUP1 SLOAD PUSH1 0x1 PUSH1 0x1 PUSH1 0xA0 SHL SUB NOT AND PUSH1 0x1 PUSH1 0x1 PUSH1 0xA0 SHL SUB SWAP3 SWAP1 SWAP3 AND SWAP2 SWAP1 SWAP2 OR SWAP1 SSTORE JUMP JUMPDEST PUSH1 0x0 JUMPDEST PUSH1 0xDE SLOAD PUSH1 0xFF DUP3 AND LT ISZERO PUSH2 0xCE5 JUMPI PUSH1 0xDE DUP2 PUSH1 0xFF AND DUP2 SLOAD DUP2 LT PUSH2 0x1054 JUMPI PUSH2 0x1054 PUSH2 0x5B0A JUMP JUMPDEST PUSH1 0x0 SWAP2 DUP3 MSTORE PUSH1 0x20 SWAP1 SWAP2 KECCAK256 ADD SLOAD PUSH1 0x1 PUSH1 0x1 PUSH1 0xA0 SHL SUB AND CALLER SUB PUSH2 0x1095 JUMPI PUSH1 0xD1 DUP1 SLOAD PUSH4 0xFFFFFFFF DUP5 AND PUSH5 0x100000000 MUL PUSH8 0xFFFFFFFF00000000 NOT SWAP1 SWAP2 AND OR SWAP1 SSTORE POP POP JUMP JUMPDEST PUSH1 0xDE SLOAD PUSH2 0x10A4 SWAP1 PUSH1 0x1 SWAP1 PUSH2 0x5B36 JUMP JUMPDEST DUP2 PUSH1 0xFF AND SUB PUSH2 0x10F6 JUMPI PUSH1 0xDE DUP2 PUSH1 0xFF AND DUP2 SLOAD DUP2 LT PUSH2 0x10C3 JUMPI PUSH2 0x10C3 PUSH2 0x5B0A JUMP JUMPDEST PUSH1 0x0 SWAP2 DUP3 MSTORE PUSH1 0x20 SWAP1 SWAP2 KECCAK256 ADD SLOAD PUSH1 0x1 PUSH1 0x1 PUSH1 0xA0 SHL SUB AND CALLER EQ PUSH2 0x10F6 JUMPI PUSH1 0x40 MLOAD PUSH3 0x461BCD PUSH1 0xE5 SHL DUP2 MSTORE PUSH1 0x4 ADD PUSH2 0xCCA SWAP1 PUSH2 0x5B49 JUMP JUMPDEST DUP1 PUSH2 0x1100 DUP2 PUSH2 0x5B74 JUMP JUMPDEST SWAP2 POP POP PUSH2 0x1031 JUMP JUMPDEST PUSH2 0x1110 PUSH2 0x34E7 JUMP JUMPDEST PUSH2 0x111A PUSH1 0x0 PUSH2 0x374A JUMP JUMPDEST JUMP JUMPDEST PUSH4 0xFFFFFFFF DUP1 DUP3 AND PUSH1 0x0 SWAP1 DUP2 MSTORE PUSH1 0xDB PUSH1 0x20 SWAP1 DUP2 MSTORE PUSH1 0x40 DUP1 DUP4 KECCAK256 DUP2 MLOAD PUSH2 0x400 DUP2 ADD SWAP1 SWAP3 MSTORE DUP1 SLOAD SWAP1 SWAP5 AND DUP2 MSTORE PUSH1 0x1 DUP5 ADD DUP1 SLOAD SWAP4 SWAP5 DUP6 SWAP5 SWAP3 SWAP4 SWAP1 SWAP3 SWAP1 DUP5 ADD SWAP2 SWAP1 PUSH2 0x1162 SWAP1 PUSH2 0x5C2B JUMP JUMPDEST DUP1 PUSH1 0x1F ADD PUSH1 0x20 DUP1 SWAP2 DIV MUL PUSH1 0x20 ADD PUSH1 0x40 MLOAD SWAP1 DUP2 ADD PUSH1 0x40 MSTORE DUP1 SWAP3 SWAP2 SWAP1 DUP2 DUP2 MSTORE PUSH1 0x20 ADD DUP3 DUP1 SLOAD PUSH2 0x118E SWAP1 PUSH2 0x5C2B JUMP JUMPDEST DUP1 ISZERO PUSH2 0x11DB JUMPI DUP1 PUSH1 0x1F LT PUSH2 0x11B0 JUMPI PUSH2 0x100 DUP1 DUP4 SLOAD DIV MUL DUP4 MSTORE SWAP2 PUSH1 0x20 ADD SWAP2 PUSH2 0x11DB JUMP JUMPDEST DUP3 ADD SWAP2 SWAP1 PUSH1 0x0 MSTORE PUSH1 0x20 PUSH1 0x0 KECCAK256 SWAP1 JUMPDEST DUP2 SLOAD DUP2 MSTORE SWAP1 PUSH1 0x1 ADD SWAP1 PUSH1 0x20 ADD DUP1 DUP4 GT PUSH2 0x11BE JUMPI DUP3 SWAP1 SUB PUSH1 0x1F AND DUP3 ADD SWAP2 JUMPDEST POP POP POP SWAP2 DUP4 MSTORE POP POP PUSH1 0x2 DUP3 ADD SLOAD PUSH1 0xFF DUP2 AND ISZERO ISZERO PUSH1 0x20 DUP1 DUP5 ADD SWAP2 SWAP1 SWAP2 MSTORE PUSH2 0x100 SWAP1 SWAP2 DIV PUSH1 0x1 PUSH1 0x1 PUSH1 0xA0 SHL SUB AND PUSH1 0x40 DUP1 DUP5 ADD SWAP2 SWAP1 SWAP2 MSTORE PUSH1 0x3 DUP5 ADD SLOAD PUSH1 0x60 DUP5 ADD MSTORE PUSH1 0x4 DUP5 ADD SLOAD PUSH1 0x80 DUP5 ADD MSTORE PUSH1 0x5 DUP5 ADD SLOAD PUSH4 0xFFFFFFFF AND PUSH1 0xA0 DUP5 ADD MSTORE PUSH1 0x6 DUP5 ADD DUP1 SLOAD DUP3 MLOAD DUP2 DUP6 MUL DUP2 ADD DUP6 ADD SWAP1 SWAP4 MSTORE DUP1 DUP4 MSTORE PUSH1 0xC0 SWAP1 SWAP5 ADD SWAP4 SWAP2 SWAP3 SWAP1 SWAP2 SWAP1 DUP4 ADD DUP3 DUP3 DUP1 ISZERO PUSH2 0x12AE JUMPI PUSH1 0x20 MUL DUP3 ADD SWAP2 SWAP1 PUSH1 0x0 MSTORE PUSH1 0x20 PUSH1 0x0 KECCAK256 SWAP1 PUSH1 0x0 SWAP1 JUMPDEST DUP3 DUP3 SWAP1 SLOAD SWAP1 PUSH2 0x100 EXP SWAP1 DIV PUSH4 0xFFFFFFFF AND PUSH4 0xFFFFFFFF AND DUP2 MSTORE PUSH1 0x20 ADD SWAP1 PUSH1 0x4 ADD SWAP1 PUSH1 0x20 DUP3 PUSH1 0x3 ADD DIV SWAP3 DUP4 ADD SWAP3 PUSH1 0x1 SUB DUP3 MUL SWAP2 POP DUP1 DUP5 GT PUSH2 0x1271 JUMPI SWAP1 POP JUMPDEST POP POP POP POP POP DUP2 MSTORE PUSH1 0x20 ADD PUSH1 0x7 DUP3 ADD DUP1 SLOAD DUP1 PUSH1 0x20 MUL PUSH1 0x20 ADD PUSH1 0x40 MLOAD SWAP1 DUP2 ADD PUSH1 0x40 MSTORE DUP1 SWAP3 SWAP2 SWAP1 DUP2 DUP2 MSTORE PUSH1 0x20 ADD DUP3 DUP1 SLOAD DUP1 ISZERO PUSH2 0x1332 JUMPI PUSH1 0x20 MUL DUP3 ADD SWAP2 SWAP1 PUSH1 0x0 MSTORE PUSH1 0x20 PUSH1 0x0 KECCAK256 SWAP1 PUSH1 0x0 SWAP1 JUMPDEST DUP3 DUP3 SWAP1 SLOAD SWAP1 PUSH2 0x100 EXP SWAP1 DIV PUSH4 0xFFFFFFFF AND PUSH4 0xFFFFFFFF AND DUP2 MSTORE PUSH1 0x20 ADD SWAP1 PUSH1 0x4 ADD SWAP1 PUSH1 0x20 DUP3 PUSH1 0x3 ADD DIV SWAP3 DUP4 ADD SWAP3 PUSH1 0x1 SUB DUP3 MUL SWAP2 POP DUP1 DUP5 GT PUSH2 0x12F5 JUMPI SWAP1 POP JUMPDEST POP POP POP POP POP DUP2 MSTORE PUSH1 0x20 ADD PUSH1 0x8 DUP3 ADD DUP1 SLOAD DUP1 PUSH1 0x20 MUL PUSH1 0x20 ADD PUSH1 0x40 MLOAD SWAP1 DUP2 ADD PUSH1 0x40 MSTORE DUP1 SWAP3 SWAP2 SWAP1 DUP2 DUP2 MSTORE PUSH1 0x20 ADD DUP3 DUP1 SLOAD DUP1 ISZERO PUSH2 0x13B6 JUMPI PUSH1 0x20 MUL DUP3 ADD SWAP2 SWAP1 PUSH1 0x0 MSTORE PUSH1 0x20 PUSH1 0x0 KECCAK256 SWAP1 PUSH1 0x0 SWAP1 JUMPDEST DUP3 DUP3 SWAP1 SLOAD SWAP1 PUSH2 0x100 EXP SWAP1 DIV PUSH4 0xFFFFFFFF AND PUSH4 0xFFFFFFFF AND DUP2 MSTORE PUSH1 0x20 ADD SWAP1 PUSH1 0x4 ADD SWAP1 PUSH1 0x20 DUP3 PUSH1 0x3 ADD DIV SWAP3 DUP4 ADD SWAP3 PUSH1 0x1 SUB DUP3 MUL SWAP2 POP DUP1 DUP5 GT PUSH2 0x1379 JUMPI SWAP1 POP JUMPDEST POP POP POP POP POP DUP2 MSTORE PUSH1 0x20 ADD PUSH1 0x9 DUP3 ADD SLOAD DUP2 MSTORE PUSH1 0x20 ADD PUSH1 0xA DUP3 ADD SLOAD DUP2 MSTORE PUSH1 0x20 ADD PUSH1 0xB DUP3 ADD SLOAD DUP2 MSTORE PUSH1 0x20 ADD PUSH1 0xC DUP3 ADD SLOAD DUP2 MSTORE PUSH1 0x20 ADD PUSH1 0xD DUP3 ADD SLOAD DUP2 MSTORE PUSH1 0x20 ADD PUSH1 0xE DUP3 ADD SLOAD DUP2 MSTORE PUSH1 0x20 ADD PUSH1 0xF DUP3 ADD SLOAD DUP2 MSTORE PUSH1 0x20 ADD PUSH1 0x10 DUP3 ADD SLOAD DUP2 MSTORE PUSH1 0x20 ADD PUSH1 0x11 DUP3 ADD PUSH1 0x0 SWAP1 SLOAD SWAP1 PUSH2 0x100 EXP SWAP1 DIV PUSH1 0xFF AND PUSH1 0xFF AND PUSH1 0xFF AND DUP2 MSTORE PUSH1 0x20 ADD PUSH1 0x12 DUP3 ADD SLOAD DUP2 MSTORE PUSH1 0x20 ADD PUSH1 0x13 DUP3 ADD SLOAD DUP2 MSTORE PUSH1 0x20 ADD PUSH1 0x14 DUP3 ADD SLOAD DUP2 MSTORE PUSH1 0x20 ADD PUSH1 0x15 DUP3 ADD SLOAD DUP2 MSTORE PUSH1 0x20 ADD PUSH1 0x16 DUP3 ADD SLOAD DUP2 MSTORE PUSH1 0x20 ADD PUSH1 0x17 DUP3 ADD SLOAD DUP2 MSTORE PUSH1 0x20 ADD PUSH1 0x18 DUP3 ADD SLOAD DUP2 MSTORE PUSH1 0x20 ADD PUSH1 0x19 DUP3 ADD SLOAD DUP2 MSTORE PUSH1 0x20 ADD PUSH1 0x1A DUP3 ADD SLOAD DUP2 MSTORE PUSH1 0x20 ADD PUSH1 0x1B DUP3 ADD DUP1 SLOAD DUP1 PUSH1 0x20 MUL PUSH1 0x20 ADD PUSH1 0x40 MLOAD SWAP1 DUP2 ADD PUSH1 0x40 MSTORE DUP1 SWAP3 SWAP2 SWAP1 DUP2 DUP2 MSTORE PUSH1 0x20 ADD DUP3 DUP1 SLOAD DUP1 ISZERO PUSH2 0x1501 JUMPI PUSH1 0x20 MUL DUP3 ADD SWAP2 SWAP1 PUSH1 0x0 MSTORE PUSH1 0x20 PUSH1 0x0 KECCAK256 SWAP1 PUSH1 0x0 SWAP1 JUMPDEST DUP3 DUP3 SWAP1 SLOAD SWAP1 PUSH2 0x100 EXP SWAP1 DIV PUSH4 0xFFFFFFFF AND PUSH4 0xFFFFFFFF AND DUP2 MSTORE PUSH1 0x20 ADD SWAP1 PUSH1 0x4 ADD SWAP1 PUSH1 0x20 DUP3 PUSH1 0x3 ADD DIV SWAP3 DUP4 ADD SWAP3 PUSH1 0x1 SUB DUP3 MUL SWAP2 POP DUP1 DUP5 GT PUSH2 0x14C4 JUMPI SWAP1 POP JUMPDEST POP POP POP POP POP DUP2 MSTORE PUSH1 0x20 ADD PUSH1 0x1C DUP3 ADD SLOAD DUP2 MSTORE PUSH1 0x20 ADD PUSH1 0x1D DUP3 ADD SLOAD DUP2 MSTORE PUSH1 0x20 ADD PUSH1 0x1E DUP3 ADD SLOAD DUP2 MSTORE POP POP SWAP1 POP PUSH2 0x1533 DUP2 PUSH2 0x379C JUMP JUMPDEST PUSH1 0xFF AND SWAP4 SWAP3 POP POP POP JUMP JUMPDEST PUSH1 0x0 PUSH2 0x1548 DUP3 PUSH2 0x384A JUMP JUMPDEST SWAP1 POP PUSH2 0xCE5 DUP2 DUP4 PUSH2 0x3AC3 JUMP JUMPDEST PUSH1 0xCA DUP2 DUP2 SLOAD DUP2 LT PUSH2 0x1564 JUMPI PUSH1 0x0 DUP1 REVERT JUMPDEST SWAP1 PUSH1 0x0 MSTORE PUSH1 0x20 PUSH1 0x0 KECCAK256 SWAP1 PUSH1 0x10 SWAP2 DUP3 DUP3 DIV ADD SWAP2 SWAP1 MOD PUSH1 0x2 MUL SWAP2 POP SLOAD SWAP1 PUSH2 0x100 EXP SWAP1 DIV PUSH2 0xFFFF AND DUP2 JUMP JUMPDEST PUSH1 0x0 SLOAD PUSH2 0x100 SWAP1 DIV PUSH1 0xFF AND ISZERO DUP1 DUP1 ISZERO PUSH2 0x15AC JUMPI POP PUSH1 0x0 SLOAD PUSH1 0x1 PUSH1 0xFF SWAP1 SWAP2 AND LT JUMPDEST DUP1 PUSH2 0x15C6 JUMPI POP ADDRESS EXTCODESIZE ISZERO DUP1 ISZERO PUSH2 0x15C6 JUMPI POP PUSH1 0x0 SLOAD PUSH1 0xFF AND PUSH1 0x1 EQ JUMPDEST PUSH2 0x1629 JUMPI PUSH1 0x40 MLOAD PUSH3 0x461BCD PUSH1 0xE5 SHL DUP2 MSTORE PUSH1 0x20 PUSH1 0x4 DUP3 ADD MSTORE PUSH1 0x2E PUSH1 0x24 DUP3 ADD MSTORE PUSH32 0x496E697469616C697A61626C653A20636F6E747261637420697320616C726561 PUSH1 0x44 DUP3 ADD MSTORE PUSH14 0x191E481A5B9A5D1A585B1A5E9959 PUSH1 0x92 SHL PUSH1 0x64 DUP3 ADD MSTORE PUSH1 0x84 ADD PUSH2 0xCCA JUMP JUMPDEST PUSH1 0x0 DUP1 SLOAD PUSH1 0xFF NOT AND PUSH1 0x1 OR SWAP1 SSTORE DUP1 ISZERO PUSH2 0x164C JUMPI PUSH1 0x0 DUP1 SLOAD PUSH2 0xFF00 NOT AND PUSH2 0x100 OR SWAP1 SSTORE JUMPDEST PUSH1 0xC9 DUP1 SLOAD PUSH1 0x1 PUSH1 0x1 PUSH1 0xA0 SHL SUB NOT AND PUSH20 0x286D6392042B4D7180FD6D20F8D35C8776815774 OR SWAP1 SSTORE PUSH1 0xCB DUP1 SLOAD PUSH2 0xFFFF NOT AND PUSH2 0x3E8 OR SWAP1 SSTORE PUSH1 0x40 DUP1 MLOAD PUSH2 0x3A0 DUP2 ADD DUP3 MSTORE PUSH1 0x64 DUP2 MSTORE PUSH1 0x46 PUSH1 0x20 DUP3 ADD MSTORE PUSH1 0x32 SWAP2 DUP2 ADD DUP3 SWAP1 MSTORE PUSH1 0x60 DUP2 ADD DUP3 SWAP1 MSTORE PUSH1 0x80 DUP2 ADD DUP3 SWAP1 MSTORE PUSH1 0xA0 DUP2 ADD DUP3 SWAP1 MSTORE PUSH1 0xC0 DUP2 ADD DUP3 SWAP1 MSTORE PUSH1 0xE0 DUP2 ADD DUP3 SWAP1 MSTORE PUSH2 0x100 DUP2 ADD DUP3 SWAP1 MSTORE PUSH2 0x120 DUP2 ADD DUP3 SWAP1 MSTORE PUSH2 0x140 DUP2 ADD DUP3 SWAP1 MSTORE PUSH2 0x160 DUP2 ADD DUP3 SWAP1 MSTORE PUSH2 0x180 DUP2 ADD DUP3 SWAP1 MSTORE PUSH2 0x1A0 DUP2 ADD DUP3 SWAP1 MSTORE PUSH2 0x1C0 DUP2 ADD DUP3 SWAP1 MSTORE PUSH2 0x1E0 DUP2 ADD DUP3 SWAP1 MSTORE PUSH2 0x200 DUP2 ADD DUP3 SWAP1 MSTORE PUSH2 0x220 DUP2 ADD DUP3 SWAP1 MSTORE PUSH2 0x240 DUP2 ADD SWAP2 SWAP1 SWAP2 MSTORE PUSH1 0x14 PUSH2 0x260 DUP3 ADD DUP2 SWAP1 MSTORE PUSH2 0x280 DUP3 ADD DUP2 SWAP1 MSTORE PUSH2 0x2A0 DUP3 ADD DUP2 SWAP1 MSTORE PUSH2 0x2C0 DUP3 ADD DUP2 SWAP1 MSTORE PUSH2 0x2E0 DUP3 ADD DUP2 SWAP1 MSTORE PUSH2 0x300 DUP3 ADD DUP2 SWAP1 MSTORE PUSH2 0x320 DUP3 ADD DUP2 SWAP1 MSTORE PUSH2 0x340 DUP3 ADD DUP2 SWAP1 MSTORE PUSH2 0x360 DUP3 ADD DUP2 SWAP1 MSTORE PUSH2 0x380 DUP3 ADD MSTORE PUSH2 0x1779 SWAP1 PUSH1 0xCA SWAP1 PUSH1 0x1D PUSH2 0x54BB JUMP JUMPDEST POP PUSH1 0xCB DUP1 SLOAD PUSH3 0xFF0000 NOT AND PUSH3 0x320000 OR SWAP1 SSTORE PUSH9 0x56BC75E2D63100000 PUSH1 0xDF SSTORE PUSH1 0xD4 DUP1 SLOAD PUSH4 0xFF00FFFF NOT AND PUSH4 0x2000001 OR SWAP1 SSTORE PUSH1 0xD1 DUP1 SLOAD PUSH2 0xFFFF PUSH1 0x60 SHL NOT AND PUSH1 0x7D PUSH1 0x63 SHL OR SWAP1 SSTORE PUSH4 0x20F5800 PUSH1 0xD2 SSTORE PUSH3 0x15180 PUSH1 0xD3 SSTORE PUSH3 0x278D00 PUSH1 0xD7 SSTORE PUSH2 0x17DD PUSH2 0x4140 JUMP JUMPDEST PUSH2 0x17E5 PUSH2 0x416F JUMP JUMPDEST DUP1 ISZERO PUSH2 0xD69 JUMPI PUSH1 0x0 DUP1 SLOAD PUSH2 0xFF00 NOT AND SWAP1 SSTORE PUSH1 0x40 MLOAD PUSH1 0x1 DUP2 MSTORE PUSH32 0x7F26B83FF96E1F2B6A682F133852F6798A09C465DA95921460CEFB3847402498 SWAP1 PUSH1 0x20 ADD PUSH1 0x40 MLOAD DUP1 SWAP2 SUB SWAP1 LOG1 POP JUMP JUMPDEST PUSH1 0x0 JUMPDEST PUSH1 0xDE SLOAD PUSH1 0xFF DUP3 AND LT ISZERO PUSH2 0xCE5 JUMPI PUSH1 0xDE DUP2 PUSH1 0xFF AND DUP2 SLOAD DUP2 LT PUSH2 0x1853 JUMPI PUSH2 0x1853 PUSH2 0x5B0A JUMP JUMPDEST PUSH1 0x0 SWAP2 DUP3 MSTORE PUSH1 0x20 SWAP1 SWAP2 KECCAK256 ADD SLOAD PUSH1 0x1 PUSH1 0x1 PUSH1 0xA0 SHL SUB AND CALLER SUB PUSH2 0x18D6 JUMPI PUSH1 0xD8 DUP1 SLOAD PUSH1 0x1 DUP2 DUP2 ADD SWAP1 SWAP3 SSTORE PUSH32 0x5320AD99A619A90804CD2EFE3A5CF0AC1AC5C41AD9FF2C61CF699EFDAD771096 ADD DUP1 SLOAD PUSH1 0x1 PUSH1 0x1 PUSH1 0xA0 SHL SUB DUP6 AND PUSH1 0x1 PUSH1 0x1 PUSH1 0xA0 SHL SUB NOT SWAP1 SWAP2 AND DUP2 OR SWAP1 SWAP2 SSTORE PUSH1 0x0 SWAP1 DUP2 MSTORE PUSH1 0xDA PUSH1 0x20 MSTORE PUSH1 0x40 SWAP1 KECCAK256 DUP1 SLOAD PUSH1 0xFF NOT AND SWAP1 SWAP2 OR SWAP1 SSTORE POP POP JUMP JUMPDEST PUSH1 0xDE SLOAD PUSH2 0x18E5 SWAP1 PUSH1 0x1 SWAP1 PUSH2 0x5B36 JUMP JUMPDEST DUP2 PUSH1 0xFF AND SUB PUSH2 0x1937 JUMPI PUSH1 0xDE DUP2 PUSH1 0xFF AND DUP2 SLOAD DUP2 LT PUSH2 0x1904 JUMPI PUSH2 0x1904 PUSH2 0x5B0A JUMP JUMPDEST PUSH1 0x0 SWAP2 DUP3 MSTORE PUSH1 0x20 SWAP1 SWAP2 KECCAK256 ADD SLOAD PUSH1 0x1 PUSH1 0x1 PUSH1 0xA0 SHL SUB AND CALLER EQ PUSH2 0x1937 JUMPI PUSH1 0x40 MLOAD PUSH3 0x461BCD PUSH1 0xE5 SHL DUP2 MSTORE PUSH1 0x4 ADD PUSH2 0xCCA SWAP1 PUSH2 0x5B49 JUMP JUMPDEST DUP1 PUSH2 0x1941 DUP2 PUSH2 0x5B74 JUMP JUMPDEST SWAP2 POP POP PUSH2 0x1830 JUMP JUMPDEST PUSH4 0xFFFFFFFF DUP1 DUP3 AND PUSH1 0x0 SWAP1 DUP2 MSTORE PUSH1 0xDB PUSH1 0x20 SWAP1 DUP2 MSTORE PUSH1 0x40 DUP1 DUP4 KECCAK256 DUP2 MLOAD PUSH2 0x400 DUP2 ADD SWAP1 SWAP3 MSTORE DUP1 SLOAD SWAP1 SWAP5 AND DUP2 MSTORE PUSH1 0x1 DUP5 ADD DUP1 SLOAD PUSH1 0x60 SWAP6 DUP7 SWAP6 SWAP5 DUP6 SWAP5 SWAP4 SWAP2 SWAP3 SWAP1 DUP5 ADD SWAP2 SWAP1 PUSH2 0x1992 SWAP1 PUSH2 0x5C2B JUMP JUMPDEST DUP1 PUSH1 0x1F ADD PUSH1 0x20 DUP1 SWAP2 DIV MUL PUSH1 0x20 ADD PUSH1 0x40 MLOAD SWAP1 DUP2 ADD PUSH1 0x40 MSTORE DUP1 SWAP3 SWAP2 SWAP1 DUP2 DUP2 MSTORE PUSH1 0x20 ADD DUP3 DUP1 SLOAD PUSH2 0x19BE SWAP1 PUSH2 0x5C2B JUMP JUMPDEST DUP1 ISZERO PUSH2 0x1A0B JUMPI DUP1 PUSH1 0x1F LT PUSH2 0x19E0 JUMPI PUSH2 0x100 DUP1 DUP4 SLOAD DIV MUL DUP4 MSTORE SWAP2 PUSH1 0x20 ADD SWAP2 PUSH2 0x1A0B JUMP JUMPDEST DUP3 ADD SWAP2 SWAP1 PUSH1 0x0 MSTORE PUSH1 0x20 PUSH1 0x0 KECCAK256 SWAP1 JUMPDEST DUP2 SLOAD DUP2 MSTORE SWAP1 PUSH1 0x1 ADD SWAP1 PUSH1 0x20 ADD DUP1 DUP4 GT PUSH2 0x19EE JUMPI DUP3 SWAP1 SUB PUSH1 0x1F AND DUP3 ADD SWAP2 JUMPDEST POP POP POP SWAP2 DUP4 MSTORE POP POP PUSH1 0x2 DUP3 ADD SLOAD PUSH1 0xFF DUP2 AND ISZERO ISZERO PUSH1 0x20 DUP1 DUP5 ADD SWAP2 SWAP1 SWAP2 MSTORE PUSH2 0x100 SWAP1 SWAP2 DIV PUSH1 0x1 PUSH1 0x1 PUSH1 0xA0 SHL SUB AND PUSH1 0x40 DUP1 DUP5 ADD SWAP2 SWAP1 SWAP2 MSTORE PUSH1 0x3 DUP5 ADD SLOAD PUSH1 0x60 DUP5 ADD MSTORE PUSH1 0x4 DUP5 ADD SLOAD PUSH1 0x80 DUP5 ADD MSTORE PUSH1 0x5 DUP5 ADD SLOAD PUSH4 0xFFFFFFFF AND PUSH1 0xA0 DUP5 ADD MSTORE PUSH1 0x6 DUP5 ADD DUP1 SLOAD DUP3 MLOAD DUP2 DUP6 MUL DUP2 ADD DUP6 ADD SWAP1 SWAP4 MSTORE DUP1 DUP4 MSTORE PUSH1 0xC0 SWAP1 SWAP5 ADD SWAP4 SWAP2 SWAP3 SWAP1 SWAP2 SWAP1 DUP4 ADD DUP3 DUP3 DUP1 ISZERO PUSH2 0x1ADE JUMPI PUSH1 0x20 MUL DUP3 ADD SWAP2 SWAP1 PUSH1 0x0 MSTORE PUSH1 0x20 PUSH1 0x0 KECCAK256 SWAP1 PUSH1 0x0 SWAP1 JUMPDEST DUP3 DUP3 SWAP1 SLOAD SWAP1 PUSH2 0x100 EXP SWAP1 DIV PUSH4 0xFFFFFFFF AND PUSH4 0xFFFFFFFF AND DUP2 MSTORE PUSH1 0x20 ADD SWAP1 PUSH1 0x4 ADD SWAP1 PUSH1 0x20 DUP3 PUSH1 0x3 ADD DIV SWAP3 DUP4 ADD SWAP3 PUSH1 0x1 SUB DUP3 MUL SWAP2 POP DUP1 DUP5 GT PUSH2 0x1AA1 JUMPI SWAP1 POP JUMPDEST POP POP POP POP POP DUP2 MSTORE PUSH1 0x20 ADD PUSH1 0x7 DUP3 ADD DUP1 SLOAD DUP1 PUSH1 0x20 MUL PUSH1 0x20 ADD PUSH1 0x40 MLOAD SWAP1 DUP2 ADD PUSH1 0x40 MSTORE DUP1 SWAP3 SWAP2 SWAP1 DUP2 DUP2 MSTORE PUSH1 0x20 ADD DUP3 DUP1 SLOAD DUP1 ISZERO PUSH2 0x1B62 JUMPI PUSH1 0x20 MUL DUP3 ADD SWAP2 SWAP1 PUSH1 0x0 MSTORE PUSH1 0x20 PUSH1 0x0 KECCAK256 SWAP1 PUSH1 0x0 SWAP1 JUMPDEST DUP3 DUP3 SWAP1 SLOAD SWAP1 PUSH2 0x100 EXP SWAP1 DIV PUSH4 0xFFFFFFFF AND PUSH4 0xFFFFFFFF AND DUP2 MSTORE PUSH1 0x20 ADD SWAP1 PUSH1 0x4 ADD SWAP1 PUSH1 0x20 DUP3 PUSH1 0x3 ADD DIV SWAP3 DUP4 ADD SWAP3 PUSH1 0x1 SUB DUP3 MUL SWAP2 POP DUP1 DUP5 GT PUSH2 0x1B25 JUMPI SWAP1 POP JUMPDEST POP POP POP POP POP DUP2 MSTORE PUSH1 0x20 ADD PUSH1 0x8 DUP3 ADD DUP1 SLOAD DUP1 PUSH1 0x20 MUL PUSH1 0x20 ADD PUSH1 0x40 MLOAD SWAP1 DUP2 ADD PUSH1 0x40 MSTORE DUP1 SWAP3 SWAP2 SWAP1 DUP2 DUP2 MSTORE PUSH1 0x20 ADD DUP3 DUP1 SLOAD DUP1 ISZERO PUSH2 0x1BE6 JUMPI PUSH1 0x20 MUL DUP3 ADD SWAP2 SWAP1 PUSH1 0x0 MSTORE PUSH1 0x20 PUSH1 0x0 KECCAK256 SWAP1 PUSH1 0x0 SWAP1 JUMPDEST DUP3 DUP3 SWAP1 SLOAD SWAP1 PUSH2 0x100 EXP SWAP1 DIV PUSH4 0xFFFFFFFF AND PUSH4 0xFFFFFFFF AND DUP2 MSTORE PUSH1 0x20 ADD SWAP1 PUSH1 0x4 ADD SWAP1 PUSH1 0x20 DUP3 PUSH1 0x3 ADD DIV SWAP3 DUP4 ADD SWAP3 PUSH1 0x1 SUB DUP3 MUL SWAP2 POP DUP1 DUP5 GT PUSH2 0x1BA9 JUMPI SWAP1 POP JUMPDEST POP POP POP POP POP DUP2 MSTORE PUSH1 0x20 ADD PUSH1 0x9 DUP3 ADD SLOAD DUP2 MSTORE PUSH1 0x20 ADD PUSH1 0xA DUP3 ADD SLOAD DUP2 MSTORE PUSH1 0x20 ADD PUSH1 0xB DUP3 ADD SLOAD DUP2 MSTORE PUSH1 0x20 ADD PUSH1 0xC DUP3 ADD SLOAD DUP2 MSTORE PUSH1 0x20 ADD PUSH1 0xD DUP3 ADD SLOAD DUP2 MSTORE PUSH1 0x20 ADD PUSH1 0xE DUP3 ADD SLOAD DUP2 MSTORE PUSH1 0x20 ADD PUSH1 0xF DUP3 ADD SLOAD DUP2 MSTORE PUSH1 0x20 ADD PUSH1 0x10 DUP3 ADD SLOAD DUP2 MSTORE PUSH1 0x20 ADD PUSH1 0x11 DUP3 ADD PUSH1 0x0 SWAP1 SLOAD SWAP1 PUSH2 0x100 EXP SWAP1 DIV PUSH1 0xFF AND PUSH1 0xFF AND PUSH1 0xFF AND DUP2 MSTORE PUSH1 0x20 ADD PUSH1 0x12 DUP3 ADD SLOAD DUP2 MSTORE PUSH1 0x20 ADD PUSH1 0x13 DUP3 ADD SLOAD DUP2 MSTORE PUSH1 0x20 ADD PUSH1 0x14 DUP3 ADD SLOAD DUP2 MSTORE PUSH1 0x20 ADD PUSH1 0x15 DUP3 ADD SLOAD DUP2 MSTORE PUSH1 0x20 ADD PUSH1 0x16 DUP3 ADD SLOAD DUP2 MSTORE PUSH1 0x20 ADD PUSH1 0x17 DUP3 ADD SLOAD DUP2 MSTORE PUSH1 0x20 ADD PUSH1 0x18 DUP3 ADD SLOAD DUP2 MSTORE PUSH1 0x20 ADD PUSH1 0x19 DUP3 ADD SLOAD DUP2 MSTORE PUSH1 0x20 ADD PUSH1 0x1A DUP3 ADD SLOAD DUP2 MSTORE PUSH1 0x20 ADD PUSH1 0x1B DUP3 ADD DUP1 SLOAD DUP1 PUSH1 0x20 MUL PUSH1 0x20 ADD PUSH1 0x40 MLOAD SWAP1 DUP2 ADD PUSH1 0x40 MSTORE DUP1 SWAP3 SWAP2 SWAP1 DUP2 DUP2 MSTORE PUSH1 0x20 ADD DUP3 DUP1 SLOAD DUP1 ISZERO PUSH2 0x1D31 JUMPI PUSH1 0x20 MUL DUP3 ADD SWAP2 SWAP1 PUSH1 0x0 MSTORE PUSH1 0x20 PUSH1 0x0 KECCAK256 SWAP1 PUSH1 0x0 SWAP1 JUMPDEST DUP3 DUP3 SWAP1 SLOAD SWAP1 PUSH2 0x100 EXP SWAP1 DIV PUSH4 0xFFFFFFFF AND PUSH4 0xFFFFFFFF AND DUP2 MSTORE PUSH1 0x20 ADD SWAP1 PUSH1 0x4 ADD SWAP1 PUSH1 0x20 DUP3 PUSH1 0x3 ADD DIV SWAP3 DUP4 ADD SWAP3 PUSH1 0x1 SUB DUP3 MUL SWAP2 POP DUP1 DUP5 GT PUSH2 0x1CF4 JUMPI SWAP1 POP JUMPDEST POP POP POP POP POP DUP2 MSTORE PUSH1 0x20 ADD PUSH1 0x1C DUP3 ADD SLOAD DUP2 MSTORE PUSH1 0x20 ADD PUSH1 0x1D DUP3 ADD SLOAD DUP2 MSTORE PUSH1 0x20 ADD PUSH1 0x1E DUP3 ADD SLOAD DUP2 MSTORE POP POP SWAP1 POP DUP1 PUSH2 0x100 ADD MLOAD SWAP4 POP DUP1 PUSH2 0x120 ADD MLOAD SWAP3 POP DUP4 MLOAD SWAP2 POP POP SWAP2 SWAP4 SWAP1 SWAP3 POP JUMP JUMPDEST PUSH2 0x1D7E PUSH2 0x34E7 JUMP JUMPDEST PUSH1 0x40 MLOAD PUSH4 0xA9059CBB PUSH1 0xE0 SHL DUP2 MSTORE CALLER PUSH1 0x4 DUP3 ADD MSTORE PUSH1 0x24 DUP2 ADD DUP3 SWAP1 MSTORE PUSH1 0x1 PUSH1 0x1 PUSH1 0xA0 SHL SUB DUP4 AND SWAP1 PUSH4 0xA9059CBB SWAP1 PUSH1 0x44 ADD PUSH1 0x20 PUSH1 0x40 MLOAD DUP1 DUP4 SUB DUP2 PUSH1 0x0 DUP8 GAS CALL ISZERO DUP1 ISZERO PUSH2 0x1DCB JUMPI RETURNDATASIZE PUSH1 0x0 DUP1 RETURNDATACOPY RETURNDATASIZE PUSH1 0x0 REVERT JUMPDEST POP POP POP POP PUSH1 0x40 MLOAD RETURNDATASIZE PUSH1 0x1F NOT PUSH1 0x1F DUP3 ADD AND DUP3 ADD DUP1 PUSH1 0x40 MSTORE POP DUP2 ADD SWAP1 PUSH2 0xC02 SWAP2 SWAP1 PUSH2 0x5C65 JUMP JUMPDEST PUSH4 0xFFFFFFFF DUP1 DUP3 AND PUSH1 0x0 SWAP1 DUP2 MSTORE PUSH1 0xDB PUSH1 0x20 SWAP1 DUP2 MSTORE PUSH1 0x40 DUP1 DUP4 KECCAK256 DUP2 MLOAD PUSH2 0x400 DUP2 ADD SWAP1 SWAP3 MSTORE DUP1 SLOAD SWAP1 SWAP5 AND DUP2 MSTORE PUSH1 0x1 DUP5 ADD DUP1 SLOAD SWAP4 SWAP5 DUP6 SWAP5 SWAP3 SWAP4 SWAP1 SWAP3 SWAP1 DUP5 ADD SWAP2 SWAP1 PUSH2 0x1E35 SWAP1 PUSH2 0x5C2B JUMP JUMPDEST DUP1 PUSH1 0x1F ADD PUSH1 0x20 DUP1 SWAP2 DIV MUL PUSH1 0x20 ADD PUSH1 0x40 MLOAD SWAP1 DUP2 ADD PUSH1 0x40 MSTORE DUP1 SWAP3 SWAP2 SWAP1 DUP2 DUP2 MSTORE PUSH1 0x20 ADD DUP3 DUP1 SLOAD PUSH2 0x1E61 SWAP1 PUSH2 0x5C2B JUMP JUMPDEST DUP1 ISZERO PUSH2 0x1EAE JUMPI DUP1 PUSH1 0x1F LT PUSH2 0x1E83 JUMPI PUSH2 0x100 DUP1 DUP4 SLOAD DIV MUL DUP4 MSTORE SWAP2 PUSH1 0x20 ADD SWAP2 PUSH2 0x1EAE JUMP JUMPDEST DUP3 ADD SWAP2 SWAP1 PUSH1 0x0 MSTORE PUSH1 0x20 PUSH1 0x0 KECCAK256 SWAP1 JUMPDEST DUP2 SLOAD DUP2 MSTORE SWAP1 PUSH1 0x1 ADD SWAP1 PUSH1 0x20 ADD DUP1 DUP4 GT PUSH2 0x1E91 JUMPI DUP3 SWAP1 SUB PUSH1 0x1F AND DUP3 ADD SWAP2 JUMPDEST POP POP POP SWAP2 DUP4 MSTORE POP POP PUSH1 0x2 DUP3 ADD SLOAD PUSH1 0xFF DUP2 AND ISZERO ISZERO PUSH1 0x20 DUP1 DUP5 ADD SWAP2 SWAP1 SWAP2 MSTORE PUSH2 0x100 SWAP1 SWAP2 DIV PUSH1 0x1 PUSH1 0x1 PUSH1 0xA0 SHL SUB AND PUSH1 0x40 DUP1 DUP5 ADD SWAP2 SWAP1 SWAP2 MSTORE PUSH1 0x3 DUP5 ADD SLOAD PUSH1 0x60 DUP5 ADD MSTORE PUSH1 0x4 DUP5 ADD SLOAD PUSH1 0x80 DUP5 ADD MSTORE PUSH1 0x5 DUP5 ADD SLOAD PUSH4 0xFFFFFFFF AND PUSH1 0xA0 DUP5 ADD MSTORE PUSH1 0x6 DUP5 ADD DUP1 SLOAD DUP3 MLOAD DUP2 DUP6 MUL DUP2 ADD DUP6 ADD SWAP1 SWAP4 MSTORE DUP1 DUP4 MSTORE PUSH1 0xC0 SWAP1 SWAP5 ADD SWAP4 SWAP2 SWAP3 SWAP1 SWAP2 SWAP1 DUP4 ADD DUP3 DUP3 DUP1 ISZERO PUSH2 0x1F81 JUMPI PUSH1 0x20 MUL DUP3 ADD SWAP2 SWAP1 PUSH1 0x0 MSTORE PUSH1 0x20 PUSH1 0x0 KECCAK256 SWAP1 PUSH1 0x0 SWAP1 JUMPDEST DUP3 DUP3 SWAP1 SLOAD SWAP1 PUSH2 0x100 EXP SWAP1 DIV PUSH4 0xFFFFFFFF AND PUSH4 0xFFFFFFFF AND DUP2 MSTORE PUSH1 0x20 ADD SWAP1 PUSH1 0x4 ADD SWAP1 PUSH1 0x20 DUP3 PUSH1 0x3 ADD DIV SWAP3 DUP4 ADD SWAP3 PUSH1 0x1 SUB DUP3 MUL SWAP2 POP DUP1 DUP5 GT PUSH2 0x1F44 JUMPI SWAP1 POP JUMPDEST POP POP POP POP POP DUP2 MSTORE PUSH1 0x20 ADD PUSH1 0x7 DUP3 ADD DUP1 SLOAD DUP1 PUSH1 0x20 MUL PUSH1 0x20 ADD PUSH1 0x40 MLOAD SWAP1 DUP2 ADD PUSH1 0x40 MSTORE DUP1 SWAP3 SWAP2 SWAP1 DUP2 DUP2 MSTORE PUSH1 0x20 ADD DUP3 DUP1 SLOAD DUP1 ISZERO PUSH2 0x2005 JUMPI PUSH1 0x20 MUL DUP3 ADD SWAP2 SWAP1 PUSH1 0x0 MSTORE PUSH1 0x20 PUSH1 0x0 KECCAK256 SWAP1 PUSH1 0x0 SWAP1 JUMPDEST DUP3 DUP3 SWAP1 SLOAD SWAP1 PUSH2 0x100 EXP SWAP1 DIV PUSH4 0xFFFFFFFF AND PUSH4 0xFFFFFFFF AND DUP2 MSTORE PUSH1 0x20 ADD SWAP1 PUSH1 0x4 ADD SWAP1 PUSH1 0x20 DUP3 PUSH1 0x3 ADD DIV SWAP3 DUP4 ADD SWAP3 PUSH1 0x1 SUB DUP3 MUL SWAP2 POP DUP1 DUP5 GT PUSH2 0x1FC8 JUMPI SWAP1 POP JUMPDEST POP POP POP POP POP DUP2 MSTORE PUSH1 0x20 ADD PUSH1 0x8 DUP3 ADD DUP1 SLOAD DUP1 PUSH1 0x20 MUL PUSH1 0x20 ADD PUSH1 0x40 MLOAD SWAP1 DUP2 ADD PUSH1 0x40 MSTORE DUP1 SWAP3 SWAP2 SWAP1 DUP2 DUP2 MSTORE PUSH1 0x20 ADD DUP3 DUP1 SLOAD DUP1 ISZERO PUSH2 0x2089 JUMPI PUSH1 0x20 MUL DUP3 ADD SWAP2 SWAP1 PUSH1 0x0 MSTORE PUSH1 0x20 PUSH1 0x0 KECCAK256 SWAP1 PUSH1 0x0 SWAP1 JUMPDEST DUP3 DUP3 SWAP1 SLOAD SWAP1 PUSH2 0x100 EXP SWAP1 DIV PUSH4 0xFFFFFFFF AND PUSH4 0xFFFFFFFF AND DUP2 MSTORE PUSH1 0x20 ADD SWAP1 PUSH1 0x4 ADD SWAP1 PUSH1 0x20 DUP3 PUSH1 0x3 ADD DIV SWAP3 DUP4 ADD SWAP3 PUSH1 0x1 SUB DUP3 MUL SWAP2 POP DUP1 DUP5 GT PUSH2 0x204C JUMPI SWAP1 POP JUMPDEST POP POP POP POP POP DUP2 MSTORE PUSH1 0x20 ADD PUSH1 0x9 DUP3 ADD SLOAD DUP2 MSTORE PUSH1 0x20 ADD PUSH1 0xA DUP3 ADD SLOAD DUP2 MSTORE PUSH1 0x20 ADD PUSH1 0xB DUP3 ADD SLOAD DUP2 MSTORE PUSH1 0x20 ADD PUSH1 0xC DUP3 ADD SLOAD DUP2 MSTORE PUSH1 0x20 ADD PUSH1 0xD DUP3 ADD SLOAD DUP2 MSTORE PUSH1 0x20 ADD PUSH1 0xE DUP3 ADD SLOAD DUP2 MSTORE PUSH1 0x20 ADD PUSH1 0xF DUP3 ADD SLOAD DUP2 MSTORE PUSH1 0x20 ADD PUSH1 0x10 DUP3 ADD SLOAD DUP2 MSTORE PUSH1 0x20 ADD PUSH1 0x11 DUP3 ADD PUSH1 0x0 SWAP1 SLOAD SWAP1 PUSH2 0x100 EXP SWAP1 DIV PUSH1 0xFF AND PUSH1 0xFF AND PUSH1 0xFF AND DUP2 MSTORE PUSH1 0x20 ADD PUSH1 0x12 DUP3 ADD SLOAD DUP2 MSTORE PUSH1 0x20 ADD PUSH1 0x13 DUP3 ADD SLOAD DUP2 MSTORE PUSH1 0x20 ADD PUSH1 0x14 DUP3 ADD SLOAD DUP2 MSTORE PUSH1 0x20 ADD PUSH1 0x15 DUP3 ADD SLOAD DUP2 MSTORE PUSH1 0x20 ADD PUSH1 0x16 DUP3 ADD SLOAD DUP2 MSTORE PUSH1 0x20 ADD PUSH1 0x17 DUP3 ADD SLOAD DUP2 MSTORE PUSH1 0x20 ADD PUSH1 0x18 DUP3 ADD SLOAD DUP2 MSTORE PUSH1 0x20 ADD PUSH1 0x19 DUP3 ADD SLOAD DUP2 MSTORE PUSH1 0x20 ADD PUSH1 0x1A DUP3 ADD SLOAD DUP2 MSTORE PUSH1 0x20 ADD PUSH1 0x1B DUP3 ADD DUP1 SLOAD DUP1 PUSH1 0x20 MUL PUSH1 0x20 ADD PUSH1 0x40 MLOAD SWAP1 DUP2 ADD PUSH1 0x40 MSTORE DUP1 SWAP3 SWAP2 SWAP1 DUP2 DUP2 MSTORE PUSH1 0x20 ADD DUP3 DUP1 SLOAD DUP1 ISZERO PUSH2 0x21D4 JUMPI PUSH1 0x20 MUL DUP3 ADD SWAP2 SWAP1 PUSH1 0x0 MSTORE PUSH1 0x20 PUSH1 0x0 KECCAK256 SWAP1 PUSH1 0x0 SWAP1 JUMPDEST DUP3 DUP3 SWAP1 SLOAD SWAP1 PUSH2 0x100 EXP SWAP1 DIV PUSH4 0xFFFFFFFF AND PUSH4 0xFFFFFFFF AND DUP2 MSTORE PUSH1 0x20 ADD SWAP1 PUSH1 0x4 ADD SWAP1 PUSH1 0x20 DUP3 PUSH1 0x3 ADD DIV SWAP3 DUP4 ADD SWAP3 PUSH1 0x1 SUB DUP3 MUL SWAP2 POP DUP1 DUP5 GT PUSH2 0x2197 JUMPI SWAP1 POP JUMPDEST POP POP POP POP POP DUP2 MSTORE PUSH1 0x20 ADD PUSH1 0x1C DUP3 ADD SLOAD DUP2 MSTORE PUSH1 0x20 ADD PUSH1 0x1D DUP3 ADD SLOAD DUP2 MSTORE PUSH1 0x20 ADD PUSH1 0x1E DUP3 ADD SLOAD DUP2 MSTORE POP POP SWAP1 POP PUSH2 0x2206 DUP2 PUSH2 0x4196 JUMP JUMPDEST SWAP4 SWAP3 POP POP POP JUMP JUMPDEST PUSH1 0x0 PUSH2 0x2218 DUP3 PUSH2 0x41D2 JUMP JUMPDEST SWAP3 SWAP2 POP POP JUMP JUMPDEST PUSH1 0x0 JUMPDEST PUSH1 0xDE SLOAD PUSH1 0xFF DUP3 AND LT ISZERO PUSH2 0x2306 JUMPI PUSH1 0xDE DUP2 PUSH1 0xFF AND DUP2 SLOAD DUP2 LT PUSH2 0x2244 JUMPI PUSH2 0x2244 PUSH2 0x5B0A JUMP JUMPDEST PUSH1 0x0 SWAP2 DUP3 MSTORE PUSH1 0x20 SWAP1 SWAP2 KECCAK256 ADD SLOAD PUSH1 0x1 PUSH1 0x1 PUSH1 0xA0 SHL SUB AND CALLER SUB PUSH2 0x2293 JUMPI PUSH1 0xD1 DUP1 SLOAD PUSH2 0xFFFF PUSH1 0x60 SHL NOT AND PUSH1 0x1 PUSH1 0x60 SHL PUSH2 0xFFFF DUP8 AND MUL OR SWAP1 SSTORE PUSH2 0x2286 DUP4 PUSH3 0x15180 PUSH2 0x5C87 JUMP JUMPDEST PUSH1 0xD2 SSTORE PUSH1 0xD3 DUP3 SWAP1 SSTORE PUSH2 0x2306 JUMP JUMPDEST PUSH1 0xDE SLOAD PUSH2 0x22A2 SWAP1 PUSH1 0x1 SWAP1 PUSH2 0x5B36 JUMP JUMPDEST DUP2 PUSH1 0xFF AND SUB PUSH2 0x22F4 JUMPI PUSH1 0xDE DUP2 PUSH1 0xFF AND DUP2 SLOAD DUP2 LT PUSH2 0x22C1 JUMPI PUSH2 0x22C1 PUSH2 0x5B0A JUMP JUMPDEST PUSH1 0x0 SWAP2 DUP3 MSTORE PUSH1 0x20 SWAP1 SWAP2 KECCAK256 ADD SLOAD PUSH1 0x1 PUSH1 0x1 PUSH1 0xA0 SHL SUB AND CALLER EQ PUSH2 0x22F4 JUMPI PUSH1 0x40 MLOAD PUSH3 0x461BCD PUSH1 0xE5 SHL DUP2 MSTORE PUSH1 0x4 ADD PUSH2 0xCCA SWAP1 PUSH2 0x5B49 JUMP JUMPDEST DUP1 PUSH2 0x22FE DUP2 PUSH2 0x5B74 JUMP JUMPDEST SWAP2 POP POP PUSH2 0x2221 JUMP JUMPDEST POP POP POP POP JUMP JUMPDEST PUSH1 0x0 JUMPDEST PUSH1 0xDE SLOAD PUSH1 0xFF DUP3 AND LT ISZERO PUSH2 0xCE5 JUMPI PUSH1 0xDE DUP2 PUSH1 0xFF AND DUP2 SLOAD DUP2 LT PUSH2 0x2332 JUMPI PUSH2 0x2332 PUSH2 0x5B0A JUMP JUMPDEST PUSH1 0x0 SWAP2 DUP3 MSTORE PUSH1 0x20 SWAP1 SWAP2 KECCAK256 ADD SLOAD PUSH1 0x1 PUSH1 0x1 PUSH1 0xA0 SHL SUB AND CALLER SUB PUSH2 0x2376 JUMPI PUSH1 0xD1 DUP1 SLOAD PUSH4 0xFFFFFFFF DUP5 AND PUSH1 0x1 PUSH1 0x40 SHL MUL PUSH12 0xFFFFFFFF0000000000000000 NOT SWAP1 SWAP2 AND OR SWAP1 SSTORE POP POP JUMP JUMPDEST PUSH1 0xDE SLOAD PUSH2 0x2385 SWAP1 PUSH1 0x1 SWAP1 PUSH2 0x5B36 JUMP JUMPDEST DUP2 PUSH1 0xFF AND SUB PUSH2 0x23D7 JUMPI PUSH1 0xDE DUP2 PUSH1 0xFF AND DUP2 SLOAD DUP2 LT PUSH2 0x23A4 JUMPI PUSH2 0x23A4 PUSH2 0x5B0A JUMP JUMPDEST PUSH1 0x0 SWAP2 DUP3 MSTORE PUSH1 0x20 SWAP1 SWAP2 KECCAK256 ADD SLOAD PUSH1 0x1 PUSH1 0x1 PUSH1 0xA0 SHL SUB AND CALLER EQ PUSH2 0x23D7 JUMPI PUSH1 0x40 MLOAD PUSH3 0x461BCD PUSH1 0xE5 SHL DUP2 MSTORE PUSH1 0x4 ADD PUSH2 0xCCA SWAP1 PUSH2 0x5B49 JUMP JUMPDEST DUP1 PUSH2 0x23E1 DUP2 PUSH2 0x5B74 JUMP JUMPDEST SWAP2 POP POP PUSH2 0x230F JUMP JUMPDEST PUSH1 0x0 JUMPDEST PUSH1 0xDE SLOAD PUSH1 0xFF DUP3 AND LT ISZERO PUSH2 0xCE5 JUMPI PUSH1 0xDE DUP2 PUSH1 0xFF AND DUP2 SLOAD DUP2 LT PUSH2 0x240F JUMPI PUSH2 0x240F PUSH2 0x5B0A JUMP JUMPDEST PUSH1 0x0 SWAP2 DUP3 MSTORE PUSH1 0x20 SWAP1 SWAP2 KECCAK256 ADD SLOAD PUSH1 0x1 PUSH1 0x1 PUSH1 0xA0 SHL SUB AND CALLER SUB PUSH2 0x254B JUMPI PUSH1 0x1 PUSH1 0x1 PUSH1 0xA0 SHL SUB DUP3 AND PUSH1 0x0 SWAP1 DUP2 MSTORE PUSH1 0xDA PUSH1 0x20 MSTORE PUSH1 0x40 DUP2 KECCAK256 DUP1 SLOAD PUSH1 0xFF NOT AND SWAP1 SSTORE PUSH1 0xD8 SLOAD SWAP1 JUMPDEST DUP2 DUP2 LT ISZERO PUSH2 0x2306 JUMPI DUP4 PUSH1 0x1 PUSH1 0x1 PUSH1 0xA0 SHL SUB AND PUSH1 0xD8 DUP3 DUP2 SLOAD DUP2 LT PUSH2 0x2474 JUMPI PUSH2 0x2474 PUSH2 0x5B0A JUMP JUMPDEST PUSH1 0x0 SWAP2 DUP3 MSTORE PUSH1 0x20 SWAP1 SWAP2 KECCAK256 ADD SLOAD PUSH1 0x1 PUSH1 0x1 PUSH1 0xA0 SHL SUB AND SUB PUSH2 0x2539 JUMPI PUSH1 0xD8 PUSH2 0x249B PUSH1 0x1 DUP5 PUSH2 0x5B36 JUMP JUMPDEST DUP2 SLOAD DUP2 LT PUSH2 0x24AB JUMPI PUSH2 0x24AB PUSH2 0x5B0A JUMP JUMPDEST PUSH1 0x0 SWAP2 DUP3 MSTORE PUSH1 0x20 SWAP1 SWAP2 KECCAK256 ADD SLOAD PUSH1 0xD8 DUP1 SLOAD PUSH1 0x1 PUSH1 0x1 PUSH1 0xA0 SHL SUB SWAP1 SWAP3 AND SWAP2 DUP4 SWAP1 DUP2 LT PUSH2 0x24D7 JUMPI PUSH2 0x24D7 PUSH2 0x5B0A JUMP JUMPDEST SWAP1 PUSH1 0x0 MSTORE PUSH1 0x20 PUSH1 0x0 KECCAK256 ADD PUSH1 0x0 PUSH2 0x100 EXP DUP2 SLOAD DUP2 PUSH1 0x1 PUSH1 0x1 PUSH1 0xA0 SHL SUB MUL NOT AND SWAP1 DUP4 PUSH1 0x1 PUSH1 0x1 PUSH1 0xA0 SHL SUB AND MUL OR SWAP1 SSTORE POP PUSH1 0xD8 DUP1 SLOAD DUP1 PUSH2 0x2516 JUMPI PUSH2 0x2516 PUSH2 0x5C9E JUMP JUMPDEST PUSH1 0x0 DUP3 DUP2 MSTORE PUSH1 0x20 SWAP1 KECCAK256 DUP2 ADD PUSH1 0x0 NOT SWAP1 DUP2 ADD DUP1 SLOAD PUSH1 0x1 PUSH1 0x1 PUSH1 0xA0 SHL SUB NOT AND SWAP1 SSTORE ADD SWAP1 SSTORE JUMPDEST DUP1 PUSH2 0x2543 DUP2 PUSH2 0x5CB4 JUMP JUMPDEST SWAP2 POP POP PUSH2 0x244F JUMP JUMPDEST PUSH1 0xDE SLOAD PUSH2 0x255A SWAP1 PUSH1 0x1 SWAP1 PUSH2 0x5B36 JUMP JUMPDEST DUP2 PUSH1 0xFF AND SUB PUSH2 0x25AC JUMPI PUSH1 0xDE DUP2 PUSH1 0xFF AND DUP2 SLOAD DUP2 LT PUSH2 0x2579 JUMPI PUSH2 0x2579 PUSH2 0x5B0A JUMP JUMPDEST PUSH1 0x0 SWAP2 DUP3 MSTORE PUSH1 0x20 SWAP1 SWAP2 KECCAK256 ADD SLOAD PUSH1 0x1 PUSH1 0x1 PUSH1 0xA0 SHL SUB AND CALLER EQ PUSH2 0x25AC JUMPI PUSH1 0x40 MLOAD PUSH3 0x461BCD PUSH1 0xE5 SHL DUP2 MSTORE PUSH1 0x4 ADD PUSH2 0xCCA SWAP1 PUSH2 0x5B49 JUMP JUMPDEST DUP1 PUSH2 0x25B6 DUP2 PUSH2 0x5B74 JUMP JUMPDEST SWAP2 POP POP PUSH2 0x23EC JUMP JUMPDEST CALLVALUE PUSH1 0x0 PUSH2 0x25CA DUP3 PUSH2 0x4710 JUMP JUMPDEST SWAP1 POP PUSH1 0xDF SLOAD DUP2 LT ISZERO PUSH2 0x261E JUMPI PUSH1 0x40 MLOAD PUSH3 0x461BCD PUSH1 0xE5 SHL DUP2 MSTORE PUSH1 0x20 PUSH1 0x4 DUP3 ADD MSTORE PUSH1 0x1F PUSH1 0x24 DUP3 ADD MSTORE PUSH32 0x56616C7565206C657373207468656E206D696E436F6E747269627574696F6E00 PUSH1 0x44 DUP3 ADD MSTORE PUSH1 0x64 ADD PUSH2 0xCCA JUMP JUMPDEST PUSH1 0xD1 SLOAD CALLER SWAP1 TIMESTAMP SWAP1 PUSH1 0x0 SWAP1 PUSH2 0x2641 SWAP1 PUSH5 0x100000000 SWAP1 DIV PUSH4 0xFFFFFFFF AND PUSH1 0x1 PUSH2 0x5CCD JUMP JUMPDEST PUSH1 0xD1 DUP1 SLOAD SWAP2 SWAP3 POP PUSH1 0x0 SWAP2 PUSH1 0x1 PUSH1 0x40 SHL SWAP1 DIV PUSH4 0xFFFFFFFF AND SWAP1 PUSH1 0x8 PUSH2 0x2664 DUP4 PUSH2 0x5CF1 JUMP JUMPDEST DUP3 SLOAD PUSH4 0xFFFFFFFF SWAP2 DUP3 AND PUSH2 0x100 SWAP4 SWAP1 SWAP4 EXP SWAP3 DUP4 MUL SWAP2 SWAP1 SWAP3 MUL NOT SWAP1 SWAP2 AND OR SWAP1 SSTORE PUSH1 0x1 PUSH1 0x1 PUSH1 0xA0 SHL SUB DUP6 AND PUSH1 0x0 SWAP1 DUP2 MSTORE PUSH1 0xDA PUSH1 0x20 MSTORE PUSH1 0x40 SWAP1 KECCAK256 PUSH1 0xD4 SLOAD SWAP2 SWAP3 POP SWAP1 PUSH1 0xFF AND ISZERO PUSH2 0x2767 JUMPI PUSH2 0x2767 DUP4 DUP4 DUP9 DUP8 PUSH4 0xFFFFFFFF SWAP3 DUP4 AND PUSH1 0x0 DUP2 DUP2 MSTORE PUSH1 0xDC PUSH1 0x20 SWAP1 DUP2 MSTORE PUSH1 0x40 DUP1 DUP4 KECCAK256 SWAP8 DUP8 AND DUP1 DUP5 MSTORE PUSH1 0xDB DUP4 MSTORE SWAP1 DUP4 KECCAK256 DUP9 SLOAD PUSH6 0x10000000000 SWAP1 SWAP3 MUL PUSH9 0xFFFFFFFFFF00000000 NOT SWAP1 SWAP3 AND SWAP2 SWAP1 SWAP2 OR PUSH5 0x100000000 OR DUP9 SSTORE PUSH1 0x1 DUP1 DUP10 ADD SWAP7 SWAP1 SWAP7 SSTORE PUSH1 0xD1 SLOAD PUSH1 0x2 DUP10 ADD DUP1 SLOAD PUSH2 0xFFFF NOT AND PUSH2 0xFFFF PUSH1 0x1 PUSH1 0x60 SHL SWAP1 SWAP4 DIV SWAP3 SWAP1 SWAP3 AND SWAP2 SWAP1 SWAP2 OR SWAP1 SSTORE PUSH1 0x3 SWAP1 SWAP8 ADD SWAP4 SWAP1 SWAP4 SSTORE PUSH1 0x1B SWAP1 SWAP6 ADD DUP1 SLOAD SWAP4 DUP5 ADD DUP2 SSTORE DUP6 MSTORE SWAP4 KECCAK256 PUSH1 0x8 DUP3 DIV ADD DUP1 SLOAD PUSH1 0x7 SWAP1 SWAP3 AND PUSH1 0x4 MUL PUSH2 0x100 EXP SWAP4 DUP5 MUL SWAP4 SWAP1 SWAP3 MUL NOT AND SWAP2 SWAP1 SWAP2 OR SWAP1 SSTORE JUMP JUMPDEST PUSH2 0x2787 DUP6 DUP5 DUP11 DUP10 DUP9 PUSH1 0xCB PUSH1 0x2 SWAP1 SLOAD SWAP1 PUSH2 0x100 EXP SWAP1 DIV PUSH1 0xFF AND PUSH1 0xFF AND PUSH2 0x479D JUMP JUMPDEST PUSH1 0x1 SWAP1 DUP2 ADD DUP1 SLOAD SWAP2 DUP3 ADD DUP2 SSTORE PUSH1 0x0 SWAP1 DUP2 MSTORE PUSH1 0x20 SWAP1 KECCAK256 PUSH1 0x8 DUP3 DIV ADD DUP1 SLOAD PUSH1 0x7 SWAP1 SWAP3 AND PUSH1 0x4 MUL PUSH2 0x100 EXP PUSH4 0xFFFFFFFF DUP2 DUP2 MUL NOT SWAP1 SWAP4 AND SWAP5 SWAP1 SWAP3 AND SWAP2 SWAP1 SWAP2 MUL SWAP3 SWAP1 SWAP3 OR SWAP1 SWAP2 SSTORE POP POP POP POP POP POP JUMP JUMPDEST PUSH4 0xFFFFFFFF DUP2 AND PUSH1 0x0 SWAP1 DUP2 MSTORE PUSH1 0xDB PUSH1 0x20 SWAP1 DUP2 MSTORE PUSH1 0x40 DUP1 DUP4 KECCAK256 PUSH1 0x1B ADD DUP1 SLOAD DUP3 MLOAD DUP2 DUP6 MUL DUP2 ADD DUP6 ADD SWAP1 SWAP4 MSTORE DUP1 DUP4 MSTORE DUP5 SWAP4 DUP4 ADD DUP3 DUP3 DUP1 ISZERO PUSH2 0x285B JUMPI PUSH1 0x20 MUL DUP3 ADD SWAP2 SWAP1 PUSH1 0x0 MSTORE PUSH1 0x20 PUSH1 0x0 KECCAK256 SWAP1 PUSH1 0x0 SWAP1 JUMPDEST DUP3 DUP3 SWAP1 SLOAD SWAP1 PUSH2 0x100 EXP SWAP1 DIV PUSH4 0xFFFFFFFF AND PUSH4 0xFFFFFFFF AND DUP2 MSTORE PUSH1 0x20 ADD SWAP1 PUSH1 0x4 ADD SWAP1 PUSH1 0x20 DUP3 PUSH1 0x3 ADD DIV SWAP3 DUP4 ADD SWAP3 PUSH1 0x1 SUB DUP3 MUL SWAP2 POP DUP1 DUP5 GT PUSH2 0x281E JUMPI SWAP1 POP JUMPDEST POP POP POP POP POP SWAP1 POP PUSH1 0x0 DUP1 JUMPDEST DUP3 MLOAD DUP2 PUSH2 0xFFFF AND LT ISZERO PUSH2 0x28EF JUMPI PUSH1 0x0 PUSH1 0xDC PUSH1 0x0 DUP6 DUP5 PUSH2 0xFFFF AND DUP2 MLOAD DUP2 LT PUSH2 0x288F JUMPI PUSH2 0x288F PUSH2 0x5B0A JUMP JUMPDEST PUSH1 0x20 MUL PUSH1 0x20 ADD ADD MLOAD PUSH4 0xFFFFFFFF AND PUSH4 0xFFFFFFFF AND DUP2 MSTORE PUSH1 0x20 ADD SWAP1 DUP2 MSTORE PUSH1 0x20 ADD PUSH1 0x0 KECCAK256 SWAP1 POP DUP1 PUSH1 0x0 ADD PUSH1 0x4 SWAP1 SLOAD SWAP1 PUSH2 0x100 EXP SWAP1 DIV PUSH1 0xFF AND ISZERO PUSH2 0x28DC JUMPI PUSH1 0x1 DUP2 ADD SLOAD PUSH2 0x28D9 SWAP1 DUP5 PUSH2 0x5D14 JUMP JUMPDEST SWAP3 POP JUMPDEST POP DUP1 PUSH2 0x28E7 DUP2 PUSH2 0x5D27 JUMP JUMPDEST SWAP2 POP POP PUSH2 0x2866 JUMP JUMPDEST POP SWAP4 SWAP3 POP POP POP JUMP JUMPDEST PUSH4 0xFFFFFFFF DUP1 DUP3 AND PUSH1 0x0 SWAP1 DUP2 MSTORE PUSH1 0xDB PUSH1 0x20 SWAP1 DUP2 MSTORE PUSH1 0x40 DUP1 DUP4 KECCAK256 DUP2 MLOAD PUSH2 0x400 DUP2 ADD SWAP1 SWAP3 MSTORE DUP1 SLOAD SWAP1 SWAP5 AND DUP2 MSTORE PUSH1 0x1 DUP5 ADD DUP1 SLOAD SWAP4 SWAP5 DUP6 SWAP5 DUP6 SWAP5 DUP6 SWAP5 DUP6 SWAP5 SWAP1 SWAP4 SWAP3 SWAP2 DUP5 ADD SWAP2 PUSH2 0x2941 SWAP1 PUSH2 0x5C2B JUMP JUMPDEST DUP1 PUSH1 0x1F ADD PUSH1 0x20 DUP1 SWAP2 DIV MUL PUSH1 0x20 ADD PUSH1 0x40 MLOAD SWAP1 DUP2 ADD PUSH1 0x40 MSTORE DUP1 SWAP3 SWAP2 SWAP1 DUP2 DUP2 MSTORE PUSH1 0x20 ADD DUP3 DUP1 SLOAD PUSH2 0x296D SWAP1 PUSH2 0x5C2B JUMP JUMPDEST DUP1 ISZERO PUSH2 0x29BA JUMPI DUP1 PUSH1 0x1F LT PUSH2 0x298F JUMPI PUSH2 0x100 DUP1 DUP4 SLOAD DIV MUL DUP4 MSTORE SWAP2 PUSH1 0x20 ADD SWAP2 PUSH2 0x29BA JUMP JUMPDEST DUP3 ADD SWAP2 SWAP1 PUSH1 0x0 MSTORE PUSH1 0x20 PUSH1 0x0 KECCAK256 SWAP1 JUMPDEST DUP2 SLOAD DUP2 MSTORE SWAP1 PUSH1 0x1 ADD SWAP1 PUSH1 0x20 ADD DUP1 DUP4 GT PUSH2 0x299D JUMPI DUP3 SWAP1 SUB PUSH1 0x1F AND DUP3 ADD SWAP2 JUMPDEST POP POP POP SWAP2 DUP4 MSTORE POP POP PUSH1 0x2 DUP3 ADD SLOAD PUSH1 0xFF DUP2 AND ISZERO ISZERO PUSH1 0x20 DUP1 DUP5 ADD SWAP2 SWAP1 SWAP2 MSTORE PUSH2 0x100 SWAP1 SWAP2 DIV PUSH1 0x1 PUSH1 0x1 PUSH1 0xA0 SHL SUB AND PUSH1 0x40 DUP1 DUP5 ADD SWAP2 SWAP1 SWAP2 MSTORE PUSH1 0x3 DUP5 ADD SLOAD PUSH1 0x60 DUP5 ADD MSTORE PUSH1 0x4 DUP5 ADD SLOAD PUSH1 0x80 DUP5 ADD MSTORE PUSH1 0x5 DUP5 ADD SLOAD PUSH4 0xFFFFFFFF AND PUSH1 0xA0 DUP5 ADD MSTORE PUSH1 0x6 DUP5 ADD DUP1 SLOAD DUP3 MLOAD DUP2 DUP6 MUL DUP2 ADD DUP6 ADD SWAP1 SWAP4 MSTORE DUP1 DUP4 MSTORE PUSH1 0xC0 SWAP1 SWAP5 ADD SWAP4 SWAP2 SWAP3 SWAP1 SWAP2 SWAP1 DUP4 ADD DUP3 DUP3 DUP1 ISZERO PUSH2 0x2A8D JUMPI PUSH1 0x20 MUL DUP3 ADD SWAP2 SWAP1 PUSH1 0x0 MSTORE PUSH1 0x20 PUSH1 0x0 KECCAK256 SWAP1 PUSH1 0x0 SWAP1 JUMPDEST DUP3 DUP3 SWAP1 SLOAD SWAP1 PUSH2 0x100 EXP SWAP1 DIV PUSH4 0xFFFFFFFF AND PUSH4 0xFFFFFFFF AND DUP2 MSTORE PUSH1 0x20 ADD SWAP1 PUSH1 0x4 ADD SWAP1 PUSH1 0x20 DUP3 PUSH1 0x3 ADD DIV SWAP3 DUP4 ADD SWAP3 PUSH1 0x1 SUB DUP3 MUL SWAP2 POP DUP1 DUP5 GT PUSH2 0x2A50 JUMPI SWAP1 POP JUMPDEST POP POP POP POP POP DUP2 MSTORE PUSH1 0x20 ADD PUSH1 0x7 DUP3 ADD DUP1 SLOAD DUP1 PUSH1 0x20 MUL PUSH1 0x20 ADD PUSH1 0x40 MLOAD SWAP1 DUP2 ADD PUSH1 0x40 MSTORE DUP1 SWAP3 SWAP2 SWAP1 DUP2 DUP2 MSTORE PUSH1 0x20 ADD DUP3 DUP1 SLOAD DUP1 ISZERO PUSH2 0x2B11 JUMPI PUSH1 0x20 MUL DUP3 ADD SWAP2 SWAP1 PUSH1 0x0 MSTORE PUSH1 0x20 PUSH1 0x0 KECCAK256 SWAP1 PUSH1 0x0 SWAP1 JUMPDEST DUP3 DUP3 SWAP1 SLOAD SWAP1 PUSH2 0x100 EXP SWAP1 DIV PUSH4 0xFFFFFFFF AND PUSH4 0xFFFFFFFF AND DUP2 MSTORE PUSH1 0x20 ADD SWAP1 PUSH1 0x4 ADD SWAP1 PUSH1 0x20 DUP3 PUSH1 0x3 ADD DIV SWAP3 DUP4 ADD SWAP3 PUSH1 0x1 SUB DUP3 MUL SWAP2 POP DUP1 DUP5 GT PUSH2 0x2AD4 JUMPI SWAP1 POP JUMPDEST POP POP POP POP POP DUP2 MSTORE PUSH1 0x20 ADD PUSH1 0x8 DUP3 ADD DUP1 SLOAD DUP1 PUSH1 0x20 MUL PUSH1 0x20 ADD PUSH1 0x40 MLOAD SWAP1 DUP2 ADD PUSH1 0x40 MSTORE DUP1 SWAP3 SWAP2 SWAP1 DUP2 DUP2 MSTORE PUSH1 0x20 ADD DUP3 DUP1 SLOAD DUP1 ISZERO PUSH2 0x2B95 JUMPI PUSH1 0x20 MUL DUP3 ADD SWAP2 SWAP1 PUSH1 0x0 MSTORE PUSH1 0x20 PUSH1 0x0 KECCAK256 SWAP1 PUSH1 0x0 SWAP1 JUMPDEST DUP3 DUP3 SWAP1 SLOAD SWAP1 PUSH2 0x100 EXP SWAP1 DIV PUSH4 0xFFFFFFFF AND PUSH4 0xFFFFFFFF AND DUP2 MSTORE PUSH1 0x20 ADD SWAP1 PUSH1 0x4 ADD SWAP1 PUSH1 0x20 DUP3 PUSH1 0x3 ADD DIV SWAP3 DUP4 ADD SWAP3 PUSH1 0x1 SUB DUP3 MUL SWAP2 POP DUP1 DUP5 GT PUSH2 0x2B58 JUMPI SWAP1 POP JUMPDEST POP POP POP POP POP DUP2 MSTORE PUSH1 0x20 ADD PUSH1 0x9 DUP3 ADD SLOAD DUP2 MSTORE PUSH1 0x20 ADD PUSH1 0xA DUP3 ADD SLOAD DUP2 MSTORE PUSH1 0x20 ADD PUSH1 0xB DUP3 ADD SLOAD DUP2 MSTORE PUSH1 0x20 ADD PUSH1 0xC DUP3 ADD SLOAD DUP2 MSTORE PUSH1 0x20 ADD PUSH1 0xD DUP3 ADD SLOAD DUP2 MSTORE PUSH1 0x20 ADD PUSH1 0xE DUP3 ADD SLOAD DUP2 MSTORE PUSH1 0x20 ADD PUSH1 0xF DUP3 ADD SLOAD DUP2 MSTORE PUSH1 0x20 ADD PUSH1 0x10 DUP3 ADD SLOAD DUP2 MSTORE PUSH1 0x20 ADD PUSH1 0x11 DUP3 ADD PUSH1 0x0 SWAP1 SLOAD SWAP1 PUSH2 0x100 EXP SWAP1 DIV PUSH1 0xFF AND PUSH1 0xFF AND PUSH1 0xFF AND DUP2 MSTORE PUSH1 0x20 ADD PUSH1 0x12 DUP3 ADD SLOAD DUP2 MSTORE PUSH1 0x20 ADD PUSH1 0x13 DUP3 ADD SLOAD DUP2 MSTORE PUSH1 0x20 ADD PUSH1 0x14 DUP3 ADD SLOAD DUP2 MSTORE PUSH1 0x20 ADD PUSH1 0x15 DUP3 ADD SLOAD DUP2 MSTORE PUSH1 0x20 ADD PUSH1 0x16 DUP3 ADD SLOAD DUP2 MSTORE PUSH1 0x20 ADD PUSH1 0x17 DUP3 ADD SLOAD DUP2 MSTORE PUSH1 0x20 ADD PUSH1 0x18 DUP3 ADD SLOAD DUP2 MSTORE PUSH1 0x20 ADD PUSH1 0x19 DUP3 ADD SLOAD DUP2 MSTORE PUSH1 0x20 ADD PUSH1 0x1A DUP3 ADD SLOAD DUP2 MSTORE PUSH1 0x20 ADD PUSH1 0x1B DUP3 ADD DUP1 SLOAD DUP1 PUSH1 0x20 MUL PUSH1 0x20 ADD PUSH1 0x40 MLOAD SWAP1 DUP2 ADD PUSH1 0x40 MSTORE DUP1 SWAP3 SWAP2 SWAP1 DUP2 DUP2 MSTORE PUSH1 0x20 ADD DUP3 DUP1 SLOAD DUP1 ISZERO PUSH2 0x2CE0 JUMPI PUSH1 0x20 MUL DUP3 ADD SWAP2 SWAP1 PUSH1 0x0 MSTORE PUSH1 0x20 PUSH1 0x0 KECCAK256 SWAP1 PUSH1 0x0 SWAP1 JUMPDEST DUP3 DUP3 SWAP1 SLOAD SWAP1 PUSH2 0x100 EXP SWAP1 DIV PUSH4 0xFFFFFFFF AND PUSH4 0xFFFFFFFF AND DUP2 MSTORE PUSH1 0x20 ADD SWAP1 PUSH1 0x4 ADD SWAP1 PUSH1 0x20 DUP3 PUSH1 0x3 ADD DIV SWAP3 DUP4 ADD SWAP3 PUSH1 0x1 SUB DUP3 MUL SWAP2 POP DUP1 DUP5 GT PUSH2 0x2CA3 JUMPI SWAP1 POP JUMPDEST POP POP POP POP POP DUP2 MSTORE PUSH1 0x20 ADD PUSH1 0x1C DUP3 ADD SLOAD DUP2 MSTORE PUSH1 0x20 ADD PUSH1 0x1D DUP3 ADD SLOAD DUP2 MSTORE PUSH1 0x20 ADD PUSH1 0x1E DUP3 ADD SLOAD DUP2 MSTORE POP POP SWAP1 POP DUP1 PUSH2 0x280 ADD MLOAD SWAP5 POP DUP1 PUSH2 0x360 ADD MLOAD SWAP4 POP DUP1 PUSH2 0x2A0 ADD MLOAD SWAP3 POP DUP3 DUP5 DUP7 PUSH2 0x2D2E SWAP2 SWAP1 PUSH2 0x5D14 JUMP JUMPDEST PUSH2 0x2D38 SWAP2 SWAP1 PUSH2 0x5D14 JUMP JUMPDEST SWAP2 POP POP SWAP2 SWAP4 POP SWAP2 SWAP4 JUMP JUMPDEST PUSH2 0x2D4A PUSH2 0x34E7 JUMP JUMPDEST PUSH1 0x1 PUSH1 0x1 PUSH1 0xA0 SHL SUB DUP2 AND PUSH2 0x2DAF JUMPI PUSH1 0x40 MLOAD PUSH3 0x461BCD PUSH1 0xE5 SHL DUP2 MSTORE PUSH1 0x20 PUSH1 0x4 DUP3 ADD MSTORE PUSH1 0x26 PUSH1 0x24 DUP3 ADD MSTORE PUSH32 0x4F776E61626C653A206E6577206F776E657220697320746865207A65726F2061 PUSH1 0x44 DUP3 ADD MSTORE PUSH6 0x646472657373 PUSH1 0xD0 SHL PUSH1 0x64 DUP3 ADD MSTORE PUSH1 0x84 ADD PUSH2 0xCCA JUMP JUMPDEST PUSH2 0xD69 DUP2 PUSH2 0x374A JUMP JUMPDEST PUSH4 0xFFFFFFFF DUP3 AND PUSH1 0x0 SWAP1 DUP2 MSTORE PUSH1 0xDB PUSH1 0x20 MSTORE PUSH1 0x40 SWAP1 KECCAK256 PUSH1 0x2 DUP2 ADD SLOAD PUSH2 0x100 SWAP1 DIV PUSH1 0x1 PUSH1 0x1 PUSH1 0xA0 SHL SUB AND CALLER EQ PUSH2 0x2E2E JUMPI PUSH1 0x40 MLOAD PUSH3 0x461BCD PUSH1 0xE5 SHL DUP2 MSTORE PUSH1 0x20 PUSH1 0x4 DUP3 ADD MSTORE PUSH1 0x1D PUSH1 0x24 DUP3 ADD MSTORE PUSH32 0x596F7520617265206E6F74206F776E6572206F6620746869732069642E000000 PUSH1 0x44 DUP3 ADD MSTORE PUSH1 0x64 ADD PUSH2 0xCCA JUMP JUMPDEST PUSH1 0x0 PUSH2 0x2E39 DUP3 PUSH2 0x4A30 JUMP JUMPDEST PUSH1 0x1E DUP4 ADD SLOAD SWAP1 SWAP2 POP PUSH2 0x2E4B DUP2 DUP4 PUSH2 0x5B36 JUMP JUMPDEST DUP5 GT ISZERO PUSH2 0x2EAD JUMPI PUSH1 0x40 MLOAD PUSH3 0x461BCD PUSH1 0xE5 SHL DUP2 MSTORE PUSH1 0x20 PUSH1 0x4 DUP3 ADD MSTORE PUSH1 0x2A PUSH1 0x24 DUP3 ADD MSTORE PUSH32 0x506C6561736520656E7465722076616C7565206C657373207468656E20796F75 PUSH1 0x44 DUP3 ADD MSTORE PUSH10 0x39103130B630B731B297 PUSH1 0xB1 SHL PUSH1 0x64 DUP3 ADD MSTORE PUSH1 0x84 ADD PUSH2 0xCCA JUMP JUMPDEST DUP4 DUP4 PUSH1 0x1E ADD PUSH1 0x0 DUP3 DUP3 SLOAD PUSH2 0x2EC1 SWAP2 SWAP1 PUSH2 0x5D14 JUMP JUMPDEST SWAP1 SWAP2 SSTORE POP CALLER SWAP1 POP PUSH2 0x8FC PUSH2 0x2ED4 DUP7 PUSH2 0x3541 JUMP JUMPDEST PUSH1 0x40 MLOAD DUP2 ISZERO SWAP1 SWAP3 MUL SWAP2 PUSH1 0x0 DUP2 DUP2 DUP2 DUP6 DUP9 DUP9 CALL SWAP4 POP POP POP POP ISZERO DUP1 ISZERO PUSH2 0x2EFC JUMPI RETURNDATASIZE PUSH1 0x0 DUP1 RETURNDATACOPY RETURNDATASIZE PUSH1 0x0 REVERT JUMPDEST POP POP POP POP POP POP JUMP JUMPDEST PUSH2 0x300E PUSH1 0x40 MLOAD DUP1 PUSH2 0x400 ADD PUSH1 0x40 MSTORE DUP1 PUSH1 0x0 PUSH4 0xFFFFFFFF AND DUP2 MSTORE PUSH1 0x20 ADD PUSH1 0x60 DUP2 MSTORE PUSH1 0x20 ADD PUSH1 0x0 ISZERO ISZERO DUP2 MSTORE PUSH1 0x20 ADD PUSH1 0x0 PUSH1 0x1 PUSH1 0x1 PUSH1 0xA0 SHL SUB AND DUP2 MSTORE PUSH1 0x20 ADD PUSH1 0x0 DUP2 MSTORE PUSH1 0x20 ADD PUSH1 0x0 DUP2 MSTORE PUSH1 0x20 ADD PUSH1 0x0 PUSH4 0xFFFFFFFF AND DUP2 MSTORE PUSH1 0x20 ADD PUSH1 0x60 DUP2 MSTORE PUSH1 0x20 ADD PUSH1 0x60 DUP2 MSTORE PUSH1 0x20 ADD PUSH1 0x60 DUP2 MSTORE PUSH1 0x20 ADD PUSH1 0x0 DUP2 MSTORE PUSH1 0x20 ADD PUSH1 0x0 DUP2 MSTORE PUSH1 0x20 ADD PUSH1 0x0 DUP2 MSTORE PUSH1 0x20 ADD PUSH1 0x0 DUP2 MSTORE PUSH1 0x20 ADD PUSH1 0x0 DUP2 MSTORE PUSH1 0x20 ADD PUSH1 0x0 DUP2 MSTORE PUSH1 0x20 ADD PUSH1 0x0 DUP2 MSTORE PUSH1 0x20 ADD PUSH1 0x0 DUP2 MSTORE PUSH1 0x20 ADD PUSH1 0x0 PUSH1 0xFF AND DUP2 MSTORE PUSH1 0x20 ADD PUSH1 0x0 DUP2 MSTORE PUSH1 0x20 ADD PUSH1 0x0 DUP2 MSTORE PUSH1 0x20 ADD PUSH1 0x0 DUP2 MSTORE PUSH1 0x20 ADD PUSH1 0x0 DUP2 MSTORE PUSH1 0x20 ADD PUSH1 0x0 DUP2 MSTORE PUSH1 0x20 ADD PUSH1 0x0 DUP2 MSTORE PUSH1 0x20 ADD PUSH1 0x0 DUP2 MSTORE PUSH1 0x20 ADD PUSH1 0x0 DUP2 MSTORE PUSH1 0x20 ADD PUSH1 0x0 DUP2 MSTORE PUSH1 0x20 ADD PUSH1 0x60 DUP2 MSTORE PUSH1 0x20 ADD PUSH1 0x0 DUP2 MSTORE PUSH1 0x20 ADD PUSH1 0x0 DUP2 MSTORE PUSH1 0x20 ADD PUSH1 0x0 DUP2 MSTORE POP SWAP1 JUMP JUMPDEST PUSH4 0xFFFFFFFF DUP1 DUP4 AND PUSH1 0x0 SWAP1 DUP2 MSTORE PUSH1 0xDB PUSH1 0x20 SWAP1 DUP2 MSTORE PUSH1 0x40 SWAP2 DUP3 SWAP1 KECCAK256 DUP3 MLOAD PUSH2 0x400 DUP2 ADD SWAP1 SWAP4 MSTORE DUP1 SLOAD SWAP1 SWAP4 AND DUP3 MSTORE PUSH1 0x1 DUP4 ADD DUP1 SLOAD SWAP3 SWAP4 SWAP3 SWAP2 DUP5 ADD SWAP2 PUSH2 0x304F SWAP1 PUSH2 0x5C2B JUMP JUMPDEST DUP1 PUSH1 0x1F ADD PUSH1 0x20 DUP1 SWAP2 DIV MUL PUSH1 0x20 ADD PUSH1 0x40 MLOAD SWAP1 DUP2 ADD PUSH1 0x40 MSTORE DUP1 SWAP3 SWAP2 SWAP1 DUP2 DUP2 MSTORE PUSH1 0x20 ADD DUP3 DUP1 SLOAD PUSH2 0x307B SWAP1 PUSH2 0x5C2B JUMP JUMPDEST DUP1 ISZERO PUSH2 0x30C8 JUMPI DUP1 PUSH1 0x1F LT PUSH2 0x309D JUMPI PUSH2 0x100 DUP1 DUP4 SLOAD DIV MUL DUP4 MSTORE SWAP2 PUSH1 0x20 ADD SWAP2 PUSH2 0x30C8 JUMP JUMPDEST DUP3 ADD SWAP2 SWAP1 PUSH1 0x0 MSTORE PUSH1 0x20 PUSH1 0x0 KECCAK256 SWAP1 JUMPDEST DUP2 SLOAD DUP2 MSTORE SWAP1 PUSH1 0x1 ADD SWAP1 PUSH1 0x20 ADD DUP1 DUP4 GT PUSH2 0x30AB JUMPI DUP3 SWAP1 SUB PUSH1 0x1F AND DUP3 ADD SWAP2 JUMPDEST POP POP POP SWAP2 DUP4 MSTORE POP POP PUSH1 0x2 DUP3 ADD SLOAD PUSH1 0xFF DUP2 AND ISZERO ISZERO PUSH1 0x20 DUP1 DUP5 ADD SWAP2 SWAP1 SWAP2 MSTORE PUSH2 0x100 SWAP1 SWAP2 DIV PUSH1 0x1 PUSH1 0x1 PUSH1 0xA0 SHL SUB AND PUSH1 0x40 DUP1 DUP5 ADD SWAP2 SWAP1 SWAP2 MSTORE PUSH1 0x3 DUP5 ADD SLOAD PUSH1 0x60 DUP5 ADD MSTORE PUSH1 0x4 DUP5 ADD SLOAD PUSH1 0x80 DUP5 ADD MSTORE PUSH1 0x5 DUP5 ADD SLOAD PUSH4 0xFFFFFFFF AND PUSH1 0xA0 DUP5 ADD MSTORE PUSH1 0x6 DUP5 ADD DUP1 SLOAD DUP3 MLOAD DUP2 DUP6 MUL DUP2 ADD DUP6 ADD SWAP1 SWAP4 MSTORE DUP1 DUP4 MSTORE PUSH1 0xC0 SWAP1 SWAP5 ADD SWAP4 SWAP2 SWAP3 SWAP1 SWAP2 SWAP1 DUP4 ADD DUP3 DUP3 DUP1 ISZERO PUSH2 0x319B JUMPI PUSH1 0x20 MUL DUP3 ADD SWAP2 SWAP1 PUSH1 0x0 MSTORE PUSH1 0x20 PUSH1 0x0 KECCAK256 SWAP1 PUSH1 0x0 SWAP1 JUMPDEST DUP3 DUP3 SWAP1 SLOAD SWAP1 PUSH2 0x100 EXP SWAP1 DIV PUSH4 0xFFFFFFFF AND PUSH4 0xFFFFFFFF AND DUP2 MSTORE PUSH1 0x20 ADD SWAP1 PUSH1 0x4 ADD SWAP1 PUSH1 0x20 DUP3 PUSH1 0x3 ADD DIV SWAP3 DUP4 ADD SWAP3 PUSH1 0x1 SUB DUP3 MUL SWAP2 POP DUP1 DUP5 GT PUSH2 0x315E JUMPI SWAP1 POP JUMPDEST POP POP POP POP POP DUP2 MSTORE PUSH1 0x20 ADD PUSH1 0x7 DUP3 ADD DUP1 SLOAD DUP1 PUSH1 0x20 MUL PUSH1 0x20 ADD PUSH1 0x40 MLOAD SWAP1 DUP2 ADD PUSH1 0x40 MSTORE DUP1 SWAP3 SWAP2 SWAP1 DUP2 DUP2 MSTORE PUSH1 0x20 ADD DUP3 DUP1 SLOAD DUP1 ISZERO PUSH2 0x321F JUMPI PUSH1 0x20 MUL DUP3 ADD SWAP2 SWAP1 PUSH1 0x0 MSTORE PUSH1 0x20 PUSH1 0x0 KECCAK256 SWAP1 PUSH1 0x0 SWAP1 JUMPDEST DUP3 DUP3 SWAP1 SLOAD SWAP1 PUSH2 0x100 EXP SWAP1 DIV PUSH4 0xFFFFFFFF AND PUSH4 0xFFFFFFFF AND DUP2 MSTORE PUSH1 0x20 ADD SWAP1 PUSH1 0x4 ADD SWAP1 PUSH1 0x20 DUP3 PUSH1 0x3 ADD DIV SWAP3 DUP4 ADD SWAP3 PUSH1 0x1 SUB DUP3 MUL SWAP2 POP DUP1 DUP5 GT PUSH2 0x31E2 JUMPI SWAP1 POP JUMPDEST POP POP POP POP POP DUP2 MSTORE PUSH1 0x20 ADD PUSH1 0x8 DUP3 ADD DUP1 SLOAD DUP1 PUSH1 0x20 MUL PUSH1 0x20 ADD PUSH1 0x40 MLOAD SWAP1 DUP2 ADD PUSH1 0x40 MSTORE DUP1 SWAP3 SWAP2 SWAP1 DUP2 DUP2 MSTORE PUSH1 0x20 ADD DUP3 DUP1 SLOAD DUP1 ISZERO PUSH2 0x32A3 JUMPI PUSH1 0x20 MUL DUP3 ADD SWAP2 SWAP1 PUSH1 0x0 MSTORE PUSH1 0x20 PUSH1 0x0 KECCAK256 SWAP1 PUSH1 0x0 SWAP1 JUMPDEST DUP3 DUP3 SWAP1 SLOAD SWAP1 PUSH2 0x100 EXP SWAP1 DIV PUSH4 0xFFFFFFFF AND PUSH4 0xFFFFFFFF AND DUP2 MSTORE PUSH1 0x20 ADD SWAP1 PUSH1 0x4 ADD SWAP1 PUSH1 0x20 DUP3 PUSH1 0x3 ADD DIV SWAP3 DUP4 ADD SWAP3 PUSH1 0x1 SUB DUP3 MUL SWAP2 POP DUP1 DUP5 GT PUSH2 0x3266 JUMPI SWAP1 POP JUMPDEST POP POP POP POP POP DUP2 MSTORE PUSH1 0x20 ADD PUSH1 0x9 DUP3 ADD SLOAD DUP2 MSTORE PUSH1 0x20 ADD PUSH1 0xA DUP3 ADD SLOAD DUP2 MSTORE PUSH1 0x20 ADD PUSH1 0xB DUP3 ADD SLOAD DUP2 MSTORE PUSH1 0x20 ADD PUSH1 0xC DUP3 ADD SLOAD DUP2 MSTORE PUSH1 0x20 ADD PUSH1 0xD DUP3 ADD SLOAD DUP2 MSTORE PUSH1 0x20 ADD PUSH1 0xE DUP3 ADD SLOAD DUP2 MSTORE PUSH1 0x20 ADD PUSH1 0xF DUP3 ADD SLOAD DUP2 MSTORE PUSH1 0x20 ADD PUSH1 0x10 DUP3 ADD SLOAD DUP2 MSTORE PUSH1 0x20 ADD PUSH1 0x11 DUP3 ADD PUSH1 0x0 SWAP1 SLOAD SWAP1 PUSH2 0x100 EXP SWAP1 DIV PUSH1 0xFF AND PUSH1 0xFF AND PUSH1 0xFF AND DUP2 MSTORE PUSH1 0x20 ADD PUSH1 0x12 DUP3 ADD SLOAD DUP2 MSTORE PUSH1 0x20 ADD PUSH1 0x13 DUP3 ADD SLOAD DUP2 MSTORE PUSH1 0x20 ADD PUSH1 0x14 DUP3 ADD SLOAD DUP2 MSTORE PUSH1 0x20 ADD PUSH1 0x15 DUP3 ADD SLOAD DUP2 MSTORE PUSH1 0x20 ADD PUSH1 0x16 DUP3 ADD SLOAD DUP2 MSTORE PUSH1 0x20 ADD PUSH1 0x17 DUP3 ADD SLOAD DUP2 MSTORE PUSH1 0x20 ADD PUSH1 0x18 DUP3 ADD SLOAD DUP2 MSTORE PUSH1 0x20 ADD PUSH1 0x19 DUP3 ADD SLOAD DUP2 MSTORE PUSH1 0x20 ADD PUSH1 0x1A DUP3 ADD SLOAD DUP2 MSTORE PUSH1 0x20 ADD PUSH1 0x1B DUP3 ADD DUP1 SLOAD DUP1 PUSH1 0x20 MUL PUSH1 0x20 ADD PUSH1 0x40 MLOAD SWAP1 DUP2 ADD PUSH1 0x40 MSTORE DUP1 SWAP3 SWAP2 SWAP1 DUP2 DUP2 MSTORE PUSH1 0x20 ADD DUP3 DUP1 SLOAD DUP1 ISZERO PUSH2 0x33EE JUMPI PUSH1 0x20 MUL DUP3 ADD SWAP2 SWAP1 PUSH1 0x0 MSTORE PUSH1 0x20 PUSH1 0x0 KECCAK256 SWAP1 PUSH1 0x0 SWAP1 JUMPDEST DUP3 DUP3 SWAP1 SLOAD SWAP1 PUSH2 0x100 EXP SWAP1 DIV PUSH4 0xFFFFFFFF AND PUSH4 0xFFFFFFFF AND DUP2 MSTORE PUSH1 0x20 ADD SWAP1 PUSH1 0x4 ADD SWAP1 PUSH1 0x20 DUP3 PUSH1 0x3 ADD DIV SWAP3 DUP4 ADD SWAP3 PUSH1 0x1 SUB DUP3 MUL SWAP2 POP DUP1 DUP5 GT PUSH2 0x33B1 JUMPI SWAP1 POP JUMPDEST POP POP POP POP POP DUP2 MSTORE PUSH1 0x20 ADD PUSH1 0x1C DUP3 ADD SLOAD DUP2 MSTORE PUSH1 0x20 ADD PUSH1 0x1D DUP3 ADD SLOAD DUP2 MSTORE PUSH1 0x20 ADD PUSH1 0x1E DUP3 ADD SLOAD DUP2 MSTORE POP POP SWAP1 POP SWAP2 SWAP1 POP JUMP JUMPDEST PUSH1 0x40 DUP1 MLOAD DUP1 DUP3 ADD SWAP1 SWAP2 MSTORE PUSH1 0x0 DUP2 MSTORE PUSH1 0x60 PUSH1 0x20 DUP3 ADD MSTORE PUSH1 0x1 PUSH1 0x1 PUSH1 0xA0 SHL SUB DUP3 AND PUSH1 0x0 SWAP1 DUP2 MSTORE PUSH1 0xDA PUSH1 0x20 SWAP1 DUP2 MSTORE PUSH1 0x40 SWAP2 DUP3 SWAP1 KECCAK256 DUP3 MLOAD DUP1 DUP5 ADD DUP5 MSTORE DUP2 SLOAD PUSH1 0xFF AND ISZERO ISZERO DUP2 MSTORE PUSH1 0x1 DUP3 ADD DUP1 SLOAD DUP6 MLOAD DUP2 DUP7 MUL DUP2 ADD DUP7 ADD SWAP1 SWAP7 MSTORE DUP1 DUP7 MSTORE SWAP2 SWAP5 SWAP3 SWAP4 DUP6 DUP2 ADD SWAP4 SWAP3 SWAP1 DUP4 ADD DUP3 DUP3 DUP1 ISZERO PUSH2 0x34D7 JUMPI PUSH1 0x20 MUL DUP3 ADD SWAP2 SWAP1 PUSH1 0x0 MSTORE PUSH1 0x20 PUSH1 0x0 KECCAK256 SWAP1 PUSH1 0x0 SWAP1 JUMPDEST DUP3 DUP3 SWAP1 SLOAD SWAP1 PUSH2 0x100 EXP SWAP1 DIV PUSH4 0xFFFFFFFF AND PUSH4 0xFFFFFFFF AND DUP2 MSTORE PUSH1 0x20 ADD SWAP1 PUSH1 0x4 ADD SWAP1 PUSH1 0x20 DUP3 PUSH1 0x3 ADD DIV SWAP3 DUP4 ADD SWAP3 PUSH1 0x1 SUB DUP3 MUL SWAP2 POP DUP1 DUP5 GT PUSH2 0x349A JUMPI SWAP1 POP JUMPDEST POP POP POP POP POP DUP2 MSTORE POP POP SWAP1 POP SWAP2 SWAP1 POP JUMP JUMPDEST PUSH1 0x33 SLOAD PUSH1 0x1 PUSH1 0x1 PUSH1 0xA0 SHL SUB AND CALLER EQ PUSH2 0x111A JUMPI PUSH1 0x40 MLOAD PUSH3 0x461BCD PUSH1 0xE5 SHL DUP2 MSTORE PUSH1 0x20 PUSH1 0x4 DUP3 ADD DUP2 SWAP1 MSTORE PUSH1 0x24 DUP3 ADD MSTORE PUSH32 0x4F776E61626C653A2063616C6C6572206973206E6F7420746865206F776E6572 PUSH1 0x44 DUP3 ADD MSTORE PUSH1 0x64 ADD PUSH2 0xCCA JUMP JUMPDEST PUSH1 0x0 DUP1 PUSH1 0xC9 PUSH1 0x0 SWAP1 SLOAD SWAP1 PUSH2 0x100 EXP SWAP1 DIV PUSH1 0x1 PUSH1 0x1 PUSH1 0xA0 SHL SUB AND PUSH1 0x1 PUSH1 0x1 PUSH1 0xA0 SHL SUB AND PUSH4 0xE1AA6036 PUSH1 0x40 MLOAD DUP2 PUSH4 0xFFFFFFFF AND PUSH1 0xE0 SHL DUP2 MSTORE PUSH1 0x4 ADD PUSH1 0x20 PUSH1 0x40 MLOAD DUP1 DUP4 SUB DUP2 DUP7 GAS STATICCALL ISZERO DUP1 ISZERO PUSH2 0x3597 JUMPI RETURNDATASIZE PUSH1 0x0 DUP1 RETURNDATACOPY RETURNDATASIZE PUSH1 0x0 REVERT JUMPDEST POP POP POP POP PUSH1 0x40 MLOAD RETURNDATASIZE PUSH1 0x1F NOT PUSH1 0x1F DUP3 ADD AND DUP3 ADD DUP1 PUSH1 0x40 MSTORE POP DUP2 ADD SWAP1 PUSH2 0x35BB SWAP2 SWAP1 PUSH2 0x5D3E JUMP JUMPDEST PUSH2 0x35CD DUP5 PUSH8 0xDE0B6B3A7640000 PUSH2 0x5C87 JUMP JUMPDEST PUSH2 0x2206 SWAP2 SWAP1 PUSH2 0x5D57 JUMP JUMPDEST PUSH2 0xD69 PUSH2 0x34E7 JUMP JUMPDEST PUSH32 0x4910FDFA16FED3260ED0E7147F7CC6DA11A60208B5B9406D12A635614FFD9143 SLOAD PUSH1 0xFF AND ISZERO PUSH2 0x3612 JUMPI PUSH2 0xC02 DUP4 PUSH2 0x4A54 JUMP JUMPDEST DUP3 PUSH1 0x1 PUSH1 0x1 PUSH1 0xA0 SHL SUB AND PUSH4 0x52D1902D PUSH1 0x40 MLOAD DUP2 PUSH4 0xFFFFFFFF AND PUSH1 0xE0 SHL DUP2 MSTORE PUSH1 0x4 ADD PUSH1 0x20 PUSH1 0x40 MLOAD DUP1 DUP4 SUB DUP2 DUP7 GAS STATICCALL SWAP3 POP POP POP DUP1 ISZERO PUSH2 0x366C JUMPI POP PUSH1 0x40 DUP1 MLOAD PUSH1 0x1F RETURNDATASIZE SWAP1 DUP2 ADD PUSH1 0x1F NOT AND DUP3 ADD SWAP1 SWAP3 MSTORE PUSH2 0x3669 SWAP2 DUP2 ADD SWAP1 PUSH2 0x5D3E JUMP JUMPDEST PUSH1 0x1 JUMPDEST PUSH2 0x36CF JUMPI PUSH1 0x40 MLOAD PUSH3 0x461BCD PUSH1 0xE5 SHL DUP2 MSTORE PUSH1 0x20 PUSH1 0x4 DUP3 ADD MSTORE PUSH1 0x2E PUSH1 0x24 DUP3 ADD MSTORE PUSH32 0x45524331393637557067726164653A206E657720696D706C656D656E74617469 PUSH1 0x44 DUP3 ADD MSTORE PUSH14 0x6F6E206973206E6F742055555053 PUSH1 0x90 SHL PUSH1 0x64 DUP3 ADD MSTORE PUSH1 0x84 ADD PUSH2 0xCCA JUMP JUMPDEST PUSH1 0x0 DUP1 MLOAD PUSH1 0x20 PUSH2 0x5DF4 DUP4 CODECOPY DUP2 MLOAD SWAP2 MSTORE DUP2 EQ PUSH2 0x373E JUMPI PUSH1 0x40 MLOAD PUSH3 0x461BCD PUSH1 0xE5 SHL DUP2 MSTORE PUSH1 0x20 PUSH1 0x4 DUP3 ADD MSTORE PUSH1 0x29 PUSH1 0x24 DUP3 ADD MSTORE PUSH32 0x45524331393637557067726164653A20756E737570706F727465642070726F78 PUSH1 0x44 DUP3 ADD MSTORE PUSH9 0x1A58589B1955555251 PUSH1 0xBA SHL PUSH1 0x64 DUP3 ADD MSTORE PUSH1 0x84 ADD PUSH2 0xCCA JUMP JUMPDEST POP PUSH2 0xC02 DUP4 DUP4 DUP4 PUSH2 0x4AF0 JUMP JUMPDEST PUSH1 0x33 DUP1 SLOAD PUSH1 0x1 PUSH1 0x1 PUSH1 0xA0 SHL SUB DUP4 DUP2 AND PUSH1 0x1 PUSH1 0x1 PUSH1 0xA0 SHL SUB NOT DUP4 AND DUP2 OR SWAP1 SWAP4 SSTORE PUSH1 0x40 MLOAD SWAP2 AND SWAP2 SWAP1 DUP3 SWAP1 PUSH32 0x8BE0079C531659141344CD1FD0A4F28419497F9722A3DAAFE3B4186F6B6457E0 SWAP1 PUSH1 0x0 SWAP1 LOG3 POP POP JUMP JUMPDEST PUSH1 0xD9 SLOAD PUSH1 0x0 SWAP1 PUSH1 0xFF AND DUP2 JUMPDEST DUP2 PUSH1 0xFF AND DUP2 PUSH1 0xFF AND LT ISZERO PUSH2 0x3843 JUMPI PUSH1 0xFF DUP2 AND PUSH1 0x0 SWAP1 DUP2 MSTORE PUSH1 0xDD PUSH1 0x20 MSTORE PUSH1 0x40 SWAP1 KECCAK256 PUSH1 0x1 ADD SLOAD PUSH2 0x140 DUP6 ADD MLOAD LT DUP1 ISZERO SWAP1 PUSH2 0x37F9 JUMPI POP PUSH1 0xFF DUP2 AND PUSH1 0x0 SWAP1 DUP2 MSTORE PUSH1 0xDD PUSH1 0x20 MSTORE PUSH1 0x40 SWAP1 KECCAK256 PUSH1 0x2 ADD SLOAD PUSH2 0x180 DUP6 ADD MLOAD LT ISZERO JUMPDEST DUP1 ISZERO PUSH2 0x381F JUMPI POP PUSH1 0xFF DUP2 AND PUSH1 0x0 SWAP1 DUP2 MSTORE PUSH1 0xDD PUSH1 0x20 MSTORE PUSH1 0x40 SWAP1 KECCAK256 PUSH1 0x3 ADD SLOAD PUSH2 0x1C0 DUP6 ADD MLOAD LT ISZERO JUMPDEST ISZERO PUSH2 0x382C JUMPI DUP1 SWAP3 POP PUSH2 0x3831 JUMP JUMPDEST PUSH2 0x3843 JUMP JUMPDEST DUP1 PUSH2 0x383B DUP2 PUSH2 0x5B74 JUMP JUMPDEST SWAP2 POP POP PUSH2 0x37A7 JUMP JUMPDEST POP POP SWAP2 SWAP1 POP JUMP JUMPDEST PUSH4 0xFFFFFFFF DUP2 AND PUSH1 0x0 SWAP1 DUP2 MSTORE PUSH1 0xDB PUSH1 0x20 MSTORE PUSH1 0x40 DUP2 KECCAK256 PUSH1 0x2 DUP2 ADD SLOAD TIMESTAMP SWAP1 PUSH2 0x100 SWAP1 DIV PUSH1 0x1 PUSH1 0x1 PUSH1 0xA0 SHL SUB AND CALLER EQ PUSH2 0x38C2 JUMPI PUSH1 0x40 MLOAD PUSH3 0x461BCD PUSH1 0xE5 SHL DUP2 MSTORE PUSH1 0x20 PUSH1 0x4 DUP3 ADD MSTORE PUSH1 0x1D PUSH1 0x24 DUP3 ADD MSTORE PUSH32 0x596F7520617265206E6F74206F776E6572206F6620746869732069642E000000 PUSH1 0x44 DUP3 ADD MSTORE PUSH1 0x64 ADD PUSH2 0xCCA JUMP JUMPDEST PUSH1 0xD3 SLOAD DUP3 PUSH1 0x1D ADD SLOAD PUSH2 0x38D4 SWAP2 SWAP1 PUSH2 0x5D14 JUMP JUMPDEST TIMESTAMP LT ISZERO PUSH2 0x3933 JUMPI PUSH1 0x40 MLOAD PUSH3 0x461BCD PUSH1 0xE5 SHL DUP2 MSTORE PUSH1 0x20 PUSH1 0x4 DUP3 ADD MSTORE PUSH1 0x27 PUSH1 0x24 DUP3 ADD MSTORE PUSH32 0x596F7520726F6920636C61696D2074696D656C696D6974206973206E6F74206F PUSH1 0x44 DUP3 ADD MSTORE PUSH7 0xECCAE440F2CAD PUSH1 0xCB SHL PUSH1 0x64 DUP3 ADD MSTORE PUSH1 0x84 ADD PUSH2 0xCCA JUMP JUMPDEST PUSH1 0x0 PUSH2 0x393E DUP6 PUSH2 0x41D2 JUMP JUMPDEST SWAP1 POP DUP3 PUSH1 0x17 ADD SLOAD DUP2 DUP5 PUSH1 0x16 ADD SLOAD PUSH2 0x3955 SWAP2 SWAP1 PUSH2 0x5D14 JUMP JUMPDEST LT ISZERO PUSH2 0x39D3 JUMPI DUP1 DUP4 PUSH1 0x16 ADD PUSH1 0x0 DUP3 DUP3 SLOAD PUSH2 0x396F SWAP2 SWAP1 PUSH2 0x5D14 JUMP JUMPDEST SWAP3 POP POP DUP2 SWAP1 SSTORE POP DUP1 DUP4 PUSH1 0x1C ADD PUSH1 0x0 DUP3 DUP3 SLOAD PUSH2 0x398A SWAP2 SWAP1 PUSH2 0x5D14 JUMP JUMPDEST SWAP1 SWAP2 SSTORE POP POP PUSH1 0x1D DUP4 ADD DUP3 SWAP1 SSTORE PUSH1 0x40 MLOAD SWAP1 SWAP4 POP DUP4 SWAP1 DUP2 SWAP1 PUSH4 0xFFFFFFFF DUP8 AND SWAP1 PUSH32 0x7CD8783637A6BF8D3B4B69973A28720CFB0F5ABC55D8B85DDE1732D8F22C0EFC SWAP1 PUSH1 0x0 SWAP1 LOG3 PUSH2 0x3ABB JUMP JUMPDEST PUSH1 0x0 DUP4 PUSH1 0x16 ADD SLOAD DUP5 PUSH1 0x17 ADD SLOAD PUSH2 0x39E9 SWAP2 SWAP1 PUSH2 0x5B36 JUMP JUMPDEST SWAP1 POP DUP4 PUSH1 0x17 ADD SLOAD DUP5 PUSH1 0x16 ADD DUP2 SWAP1 SSTORE POP DUP1 DUP5 PUSH1 0x1C ADD PUSH1 0x0 DUP3 DUP3 SLOAD PUSH2 0x3A0C SWAP2 SWAP1 PUSH2 0x5D14 JUMP JUMPDEST SWAP1 SWAP2 SSTORE POP POP PUSH1 0x1D DUP5 ADD DUP4 SWAP1 SSTORE SWAP4 POP DUP4 PUSH2 0x3A24 DUP5 PUSH2 0x4B15 JUMP JUMPDEST PUSH1 0x40 MLOAD DUP2 SWAP1 PUSH4 0xFFFFFFFF DUP9 AND SWAP1 PUSH32 0x7CD8783637A6BF8D3B4B69973A28720CFB0F5ABC55D8B85DDE1732D8F22C0EFC SWAP1 PUSH1 0x0 SWAP1 LOG3 DUP4 SLOAD PUSH1 0x40 DUP1 MLOAD PUSH4 0xFFFFFFFF SWAP1 SWAP3 AND DUP3 MSTORE PUSH1 0x20 DUP3 ADD DUP2 SWAP1 MSTORE PUSH1 0x11 DUP3 DUP3 ADD MSTORE PUSH17 0x13585E08131A5B5A5D0814995858DA1959 PUSH1 0x7A SHL PUSH1 0x60 DUP4 ADD MSTORE MLOAD PUSH32 0x44CEA052792FBAB534D5BAB46EA745CD12CB2253E4C928B3124C1389B3AE22E SWAP2 DUP2 SWAP1 SUB PUSH1 0x80 ADD SWAP1 LOG1 POP JUMPDEST POP POP POP SWAP2 SWAP1 POP JUMP JUMPDEST PUSH1 0x0 PUSH1 0xCA DUP1 SLOAD DUP1 PUSH1 0x20 MUL PUSH1 0x20 ADD PUSH1 0x40 MLOAD SWAP1 DUP2 ADD PUSH1 0x40 MSTORE DUP1 SWAP3 SWAP2 SWAP1 DUP2 DUP2 MSTORE PUSH1 0x20 ADD DUP3 DUP1 SLOAD DUP1 ISZERO PUSH2 0x3B39 JUMPI PUSH1 0x20 MUL DUP3 ADD SWAP2 SWAP1 PUSH1 0x0 MSTORE PUSH1 0x20 PUSH1 0x0 KECCAK256 SWAP1 PUSH1 0x0 SWAP1 JUMPDEST DUP3 DUP3 SWAP1 SLOAD SWAP1 PUSH2 0x100 EXP SWAP1 DIV PUSH2 0xFFFF AND PUSH2 0xFFFF AND DUP2 MSTORE PUSH1 0x20 ADD SWAP1 PUSH1 0x2 ADD SWAP1 PUSH1 0x20 DUP3 PUSH1 0x1 ADD DIV SWAP3 DUP4 ADD SWAP3 PUSH1 0x1 SUB DUP3 MUL SWAP2 POP DUP1 DUP5 GT PUSH2 0x3B00 JUMPI SWAP1 POP JUMPDEST POP POP DUP4 MLOAD PUSH4 0xFFFFFFFF DUP8 AND PUSH1 0x0 SWAP1 DUP2 MSTORE PUSH1 0xDB PUSH1 0x20 MSTORE PUSH1 0x40 DUP2 KECCAK256 SWAP6 SWAP7 POP SWAP1 SWAP5 SWAP4 POP SWAP2 POP DUP2 SWAP1 POP JUMPDEST DUP4 DUP2 LT ISZERO PUSH2 0x4120 JUMPI PUSH1 0x5 DUP4 ADD SLOAD PUSH4 0xFFFFFFFF SWAP1 DUP2 AND PUSH1 0x0 DUP2 DUP2 MSTORE PUSH1 0xDB PUSH1 0x20 MSTORE PUSH1 0x40 DUP2 KECCAK256 DUP1 SLOAD SWAP3 SWAP4 SWAP1 SWAP3 AND SWAP1 SUB PUSH2 0x3B96 JUMPI POP POP PUSH2 0x4120 JUMP JUMPDEST PUSH2 0x3B9F DUP2 PUSH2 0x4B3F JUMP JUMPDEST ISZERO PUSH2 0x3C12 JUMPI PUSH1 0x40 MLOAD PUSH19 0x149959995C995C881A5CC8111A5CD8589B1959 PUSH1 0x6A SHL DUP2 MSTORE PUSH1 0x13 ADD JUMPDEST PUSH1 0x40 MLOAD SWAP1 DUP2 SWAP1 SUB SWAP1 KECCAK256 PUSH2 0x3BD8 DUP5 PUSH1 0x1 PUSH2 0x5D14 JUMP JUMPDEST PUSH1 0x40 MLOAD PUSH4 0xFFFFFFFF DUP6 AND SWAP1 PUSH32 0x6BD4A1CB98FE02EDE79E45B5749C74FF512165C4FB80CE4045EEBEF0E4E867DC SWAP1 PUSH1 0x0 SWAP1 LOG4 SWAP4 POP PUSH2 0x410E SWAP1 POP JUMP JUMPDEST PUSH1 0x40 DUP1 MLOAD PUSH2 0x400 DUP2 ADD SWAP1 SWAP2 MSTORE DUP2 SLOAD PUSH4 0xFFFFFFFF AND DUP2 MSTORE PUSH1 0x1 DUP3 ADD DUP1 SLOAD PUSH2 0x400F SWAP3 SWAP2 DUP5 SWAP2 PUSH1 0x20 DUP5 ADD SWAP2 SWAP1 PUSH2 0x3C44 SWAP1 PUSH2 0x5C2B JUMP JUMPDEST DUP1 PUSH1 0x1F ADD PUSH1 0x20 DUP1 SWAP2 DIV MUL PUSH1 0x20 ADD PUSH1 0x40 MLOAD SWAP1 DUP2 ADD PUSH1 0x40 MSTORE DUP1 SWAP3 SWAP2 SWAP1 DUP2 DUP2 MSTORE PUSH1 0x20 ADD DUP3 DUP1 SLOAD PUSH2 0x3C70 SWAP1 PUSH2 0x5C2B JUMP JUMPDEST DUP1 ISZERO PUSH2 0x3CBD JUMPI DUP1 PUSH1 0x1F LT PUSH2 0x3C92 JUMPI PUSH2 0x100 DUP1 DUP4 SLOAD DIV MUL DUP4 MSTORE SWAP2 PUSH1 0x20 ADD SWAP2 PUSH2 0x3CBD JUMP JUMPDEST DUP3 ADD SWAP2 SWAP1 PUSH1 0x0 MSTORE PUSH1 0x20 PUSH1 0x0 KECCAK256 SWAP1 JUMPDEST DUP2 SLOAD DUP2 MSTORE SWAP1 PUSH1 0x1 ADD SWAP1 PUSH1 0x20 ADD DUP1 DUP4 GT PUSH2 0x3CA0 JUMPI DUP3 SWAP1 SUB PUSH1 0x1F AND DUP3 ADD SWAP2 JUMPDEST POP POP POP SWAP2 DUP4 MSTORE POP POP PUSH1 0x2 DUP3 ADD SLOAD PUSH1 0xFF DUP2 AND ISZERO ISZERO PUSH1 0x20 DUP1 DUP5 ADD SWAP2 SWAP1 SWAP2 MSTORE PUSH2 0x100 SWAP1 SWAP2 DIV PUSH1 0x1 PUSH1 0x1 PUSH1 0xA0 SHL SUB AND PUSH1 0x40 DUP1 DUP5 ADD SWAP2 SWAP1 SWAP2 MSTORE PUSH1 0x3 DUP5 ADD SLOAD PUSH1 0x60 DUP5 ADD MSTORE PUSH1 0x4 DUP5 ADD SLOAD PUSH1 0x80 DUP5 ADD MSTORE PUSH1 0x5 DUP5 ADD SLOAD PUSH4 0xFFFFFFFF AND PUSH1 0xA0 DUP5 ADD MSTORE PUSH1 0x6 DUP5 ADD DUP1 SLOAD DUP3 MLOAD DUP2 DUP6 MUL DUP2 ADD DUP6 ADD SWAP1 SWAP4 MSTORE DUP1 DUP4 MSTORE PUSH1 0xC0 SWAP1 SWAP5 ADD SWAP4 SWAP2 SWAP3 SWAP1 SWAP2 SWAP1 DUP4 ADD DUP3 DUP3 DUP1 ISZERO PUSH2 0x3D90 JUMPI PUSH1 0x20 MUL DUP3 ADD SWAP2 SWAP1 PUSH1 0x0 MSTORE PUSH1 0x20 PUSH1 0x0 KECCAK256 SWAP1 PUSH1 0x0 SWAP1 JUMPDEST DUP3 DUP3 SWAP1 SLOAD SWAP1 PUSH2 0x100 EXP SWAP1 DIV PUSH4 0xFFFFFFFF AND PUSH4 0xFFFFFFFF AND DUP2 MSTORE PUSH1 0x20 ADD SWAP1 PUSH1 0x4 ADD SWAP1 PUSH1 0x20 DUP3 PUSH1 0x3 ADD DIV SWAP3 DUP4 ADD SWAP3 PUSH1 0x1 SUB DUP3 MUL SWAP2 POP DUP1 DUP5 GT PUSH2 0x3D53 JUMPI SWAP1 POP JUMPDEST POP POP POP POP POP DUP2 MSTORE PUSH1 0x20 ADD PUSH1 0x7 DUP3 ADD DUP1 SLOAD DUP1 PUSH1 0x20 MUL PUSH1 0x20 ADD PUSH1 0x40 MLOAD SWAP1 DUP2 ADD PUSH1 0x40 MSTORE DUP1 SWAP3 SWAP2 SWAP1 DUP2 DUP2 MSTORE PUSH1 0x20 ADD DUP3 DUP1 SLOAD DUP1 ISZERO PUSH2 0x3E14 JUMPI PUSH1 0x20 MUL DUP3 ADD SWAP2 SWAP1 PUSH1 0x0 MSTORE PUSH1 0x20 PUSH1 0x0 KECCAK256 SWAP1 PUSH1 0x0 SWAP1 JUMPDEST DUP3 DUP3 SWAP1 SLOAD SWAP1 PUSH2 0x100 EXP SWAP1 DIV PUSH4 0xFFFFFFFF AND PUSH4 0xFFFFFFFF AND DUP2 MSTORE PUSH1 0x20 ADD SWAP1 PUSH1 0x4 ADD SWAP1 PUSH1 0x20 DUP3 PUSH1 0x3 ADD DIV SWAP3 DUP4 ADD SWAP3 PUSH1 0x1 SUB DUP3 MUL SWAP2 POP DUP1 DUP5 GT PUSH2 0x3DD7 JUMPI SWAP1 POP JUMPDEST POP POP POP POP POP DUP2 MSTORE PUSH1 0x20 ADD PUSH1 0x8 DUP3 ADD DUP1 SLOAD DUP1 PUSH1 0x20 MUL PUSH1 0x20 ADD PUSH1 0x40 MLOAD SWAP1 DUP2 ADD PUSH1 0x40 MSTORE DUP1 SWAP3 SWAP2 SWAP1 DUP2 DUP2 MSTORE PUSH1 0x20 ADD DUP3 DUP1 SLOAD DUP1 ISZERO PUSH2 0x3E98 JUMPI PUSH1 0x20 MUL DUP3 ADD SWAP2 SWAP1 PUSH1 0x0 MSTORE PUSH1 0x20 PUSH1 0x0 KECCAK256 SWAP1 PUSH1 0x0 SWAP1 JUMPDEST DUP3 DUP3 SWAP1 SLOAD SWAP1 PUSH2 0x100 EXP SWAP1 DIV PUSH4 0xFFFFFFFF AND PUSH4 0xFFFFFFFF AND DUP2 MSTORE PUSH1 0x20 ADD SWAP1 PUSH1 0x4 ADD SWAP1 PUSH1 0x20 DUP3 PUSH1 0x3 ADD DIV SWAP3 DUP4 ADD SWAP3 PUSH1 0x1 SUB DUP3 MUL SWAP2 POP DUP1 DUP5 GT PUSH2 0x3E5B JUMPI SWAP1 POP JUMPDEST POP POP POP POP POP DUP2 MSTORE PUSH1 0x20 ADD PUSH1 0x9 DUP3 ADD SLOAD DUP2 MSTORE PUSH1 0x20 ADD PUSH1 0xA DUP3 ADD SLOAD DUP2 MSTORE PUSH1 0x20 ADD PUSH1 0xB DUP3 ADD SLOAD DUP2 MSTORE PUSH1 0x20 ADD PUSH1 0xC DUP3 ADD SLOAD DUP2 MSTORE PUSH1 0x20 ADD PUSH1 0xD DUP3 ADD SLOAD DUP2 MSTORE PUSH1 0x20 ADD PUSH1 0xE DUP3 ADD SLOAD DUP2 MSTORE PUSH1 0x20 ADD PUSH1 0xF DUP3 ADD SLOAD DUP2 MSTORE PUSH1 0x20 ADD PUSH1 0x10 DUP3 ADD SLOAD DUP2 MSTORE PUSH1 0x20 ADD PUSH1 0x11 DUP3 ADD PUSH1 0x0 SWAP1 SLOAD SWAP1 PUSH2 0x100 EXP SWAP1 DIV PUSH1 0xFF AND PUSH1 0xFF AND PUSH1 0xFF AND DUP2 MSTORE PUSH1 0x20 ADD PUSH1 0x12 DUP3 ADD SLOAD DUP2 MSTORE PUSH1 0x20 ADD PUSH1 0x13 DUP3 ADD SLOAD DUP2 MSTORE PUSH1 0x20 ADD PUSH1 0x14 DUP3 ADD SLOAD DUP2 MSTORE PUSH1 0x20 ADD PUSH1 0x15 DUP3 ADD SLOAD DUP2 MSTORE PUSH1 0x20 ADD PUSH1 0x16 DUP3 ADD SLOAD DUP2 MSTORE PUSH1 0x20 ADD PUSH1 0x17 DUP3 ADD SLOAD DUP2 MSTORE PUSH1 0x20 ADD PUSH1 0x18 DUP3 ADD SLOAD DUP2 MSTORE PUSH1 0x20 ADD PUSH1 0x19 DUP3 ADD SLOAD DUP2 MSTORE PUSH1 0x20 ADD PUSH1 0x1A DUP3 ADD SLOAD DUP2 MSTORE PUSH1 0x20 ADD PUSH1 0x1B DUP3 ADD DUP1 SLOAD DUP1 PUSH1 0x20 MUL PUSH1 0x20 ADD PUSH1 0x40 MLOAD SWAP1 DUP2 ADD PUSH1 0x40 MSTORE DUP1 SWAP3 SWAP2 SWAP1 DUP2 DUP2 MSTORE PUSH1 0x20 ADD DUP3 DUP1 SLOAD DUP1 ISZERO PUSH2 0x3FE3 JUMPI PUSH1 0x20 MUL DUP3 ADD SWAP2 SWAP1 PUSH1 0x0 MSTORE PUSH1 0x20 PUSH1 0x0 KECCAK256 SWAP1 PUSH1 0x0 SWAP1 JUMPDEST DUP3 DUP3 SWAP1 SLOAD SWAP1 PUSH2 0x100 EXP SWAP1 DIV PUSH4 0xFFFFFFFF AND PUSH4 0xFFFFFFFF AND DUP2 MSTORE PUSH1 0x20 ADD SWAP1 PUSH1 0x4 ADD SWAP1 PUSH1 0x20 DUP3 PUSH1 0x3 ADD DIV SWAP3 DUP4 ADD SWAP3 PUSH1 0x1 SUB DUP3 MUL SWAP2 POP DUP1 DUP5 GT PUSH2 0x3FA6 JUMPI SWAP1 POP JUMPDEST POP POP POP POP POP DUP2 MSTORE PUSH1 0x20 ADD PUSH1 0x1C DUP3 ADD SLOAD DUP2 MSTORE PUSH1 0x20 ADD PUSH1 0x1D DUP3 ADD SLOAD DUP2 MSTORE PUSH1 0x20 ADD PUSH1 0x1E DUP3 ADD SLOAD DUP2 MSTORE POP POP PUSH2 0x4196 JUMP JUMPDEST PUSH2 0x401A DUP5 PUSH1 0x1 PUSH2 0x5D14 JUMP JUMPDEST GT ISZERO PUSH2 0x404E JUMPI PUSH1 0x40 MLOAD PUSH32 0x446F776E6C696E65206C6576656C73206C696D69742072656163686564000000 DUP2 MSTORE PUSH1 0x1D ADD PUSH2 0x3BC4 JUMP JUMPDEST PUSH1 0xCB SLOAD DUP8 MLOAD PUSH1 0x0 SWAP2 PUSH2 0xFFFF AND SWAP1 DUP10 SWAP1 DUP7 SWAP1 DUP2 LT PUSH2 0x406D JUMPI PUSH2 0x406D PUSH2 0x5B0A JUMP JUMPDEST PUSH1 0x20 MUL PUSH1 0x20 ADD ADD MLOAD PUSH2 0xFFFF AND DUP12 PUSH2 0x4084 SWAP2 SWAP1 PUSH2 0x5C87 JUMP JUMPDEST PUSH2 0x408E SWAP2 SWAP1 PUSH2 0x5D57 JUMP JUMPDEST SWAP1 POP DUP1 DUP3 PUSH1 0x13 ADD PUSH1 0x0 DUP3 DUP3 SLOAD PUSH2 0x40A4 SWAP2 SWAP1 PUSH2 0x5D14 JUMP JUMPDEST SWAP1 SWAP2 SSTORE POP PUSH2 0x40B4 SWAP1 POP DUP3 DUP3 PUSH2 0x4C03 JUMP JUMPDEST PUSH2 0x40BE DUP2 DUP7 PUSH2 0x5D14 JUMP JUMPDEST SWAP5 POP DUP1 PUSH4 0xFFFFFFFF DUP1 DUP6 AND SWAP1 DUP12 AND PUSH32 0x516E026AA0A8E23FCB20EEBF31DF57C3E9DF29F305428F45E22D048A8582DFA0 PUSH2 0x40F8 DUP9 PUSH1 0x1 PUSH2 0x5D14 JUMP JUMPDEST PUSH1 0x40 MLOAD SWAP1 DUP2 MSTORE PUSH1 0x20 ADD PUSH1 0x40 MLOAD DUP1 SWAP2 SUB SWAP1 LOG4 POP SWAP4 POP POP JUMPDEST DUP1 PUSH2 0x4118 DUP2 PUSH2 0x5CB4 JUMP JUMPDEST SWAP2 POP POP PUSH2 0x3B5F JUMP JUMPDEST POP DUP1 PUSH1 0xCF PUSH1 0x0 DUP3 DUP3 SLOAD PUSH2 0x4133 SWAP2 SWAP1 PUSH2 0x5D14 JUMP JUMPDEST SWAP1 SWAP2 SSTORE POP POP POP POP POP POP POP POP JUMP JUMPDEST PUSH1 0x0 SLOAD PUSH2 0x100 SWAP1 DIV PUSH1 0xFF AND PUSH2 0x4167 JUMPI PUSH1 0x40 MLOAD PUSH3 0x461BCD PUSH1 0xE5 SHL DUP2 MSTORE PUSH1 0x4 ADD PUSH2 0xCCA SWAP1 PUSH2 0x5D79 JUMP JUMPDEST PUSH2 0x111A PUSH2 0x4C3B JUMP JUMPDEST PUSH1 0x0 SLOAD PUSH2 0x100 SWAP1 DIV PUSH1 0xFF AND PUSH2 0x111A JUMPI PUSH1 0x40 MLOAD PUSH3 0x461BCD PUSH1 0xE5 SHL DUP2 MSTORE PUSH1 0x4 ADD PUSH2 0xCCA SWAP1 PUSH2 0x5D79 JUMP JUMPDEST PUSH1 0xE0 DUP2 ADD MLOAD MLOAD PUSH1 0x0 SWAP1 DUP2 DUP2 ISZERO PUSH2 0x2206 JUMPI PUSH1 0xD4 SLOAD PUSH1 0x1 SWAP1 PUSH2 0x41C0 SWAP1 PUSH4 0x1000000 SWAP1 DIV PUSH1 0xFF AND DUP5 PUSH2 0x5C87 JUMP JUMPDEST PUSH2 0x41CA SWAP2 SWAP1 PUSH2 0x5B36 JUMP JUMPDEST SWAP5 SWAP4 POP POP POP POP JUMP JUMPDEST PUSH4 0xFFFFFFFF DUP1 DUP3 AND PUSH1 0x0 SWAP1 DUP2 MSTORE PUSH1 0xDB PUSH1 0x20 SWAP1 DUP2 MSTORE PUSH1 0x40 DUP1 DUP4 KECCAK256 DUP2 MLOAD PUSH2 0x400 DUP2 ADD SWAP1 SWAP3 MSTORE DUP1 SLOAD SWAP1 SWAP5 AND DUP2 MSTORE PUSH1 0x1 DUP5 ADD DUP1 SLOAD SWAP4 SWAP5 DUP6 SWAP5 SWAP3 SWAP4 SWAP1 SWAP3 SWAP1 DUP5 ADD SWAP2 SWAP1 PUSH2 0x4218 SWAP1 PUSH2 0x5C2B JUMP JUMPDEST DUP1 PUSH1 0x1F ADD PUSH1 0x20 DUP1 SWAP2 DIV MUL PUSH1 0x20 ADD PUSH1 0x40 MLOAD SWAP1 DUP2 ADD PUSH1 0x40 MSTORE DUP1 SWAP3 SWAP2 SWAP1 DUP2 DUP2 MSTORE PUSH1 0x20 ADD DUP3 DUP1 SLOAD PUSH2 0x4244 SWAP1 PUSH2 0x5C2B JUMP JUMPDEST DUP1 ISZERO PUSH2 0x4291 JUMPI DUP1 PUSH1 0x1F LT PUSH2 0x4266 JUMPI PUSH2 0x100 DUP1 DUP4 SLOAD DIV MUL DUP4 MSTORE SWAP2 PUSH1 0x20 ADD SWAP2 PUSH2 0x4291 JUMP JUMPDEST DUP3 ADD SWAP2 SWAP1 PUSH1 0x0 MSTORE PUSH1 0x20 PUSH1 0x0 KECCAK256 SWAP1 JUMPDEST DUP2 SLOAD DUP2 MSTORE SWAP1 PUSH1 0x1 ADD SWAP1 PUSH1 0x20 ADD DUP1 DUP4 GT PUSH2 0x4274 JUMPI DUP3 SWAP1 SUB PUSH1 0x1F AND DUP3 ADD SWAP2 JUMPDEST POP POP POP SWAP2 DUP4 MSTORE POP POP PUSH1 0x2 DUP3 ADD SLOAD PUSH1 0xFF DUP2 AND ISZERO ISZERO PUSH1 0x20 DUP1 DUP5 ADD SWAP2 SWAP1 SWAP2 MSTORE PUSH2 0x100 SWAP1 SWAP2 DIV PUSH1 0x1 PUSH1 0x1 PUSH1 0xA0 SHL SUB AND PUSH1 0x40 DUP1 DUP5 ADD SWAP2 SWAP1 SWAP2 MSTORE PUSH1 0x3 DUP5 ADD SLOAD PUSH1 0x60 DUP5 ADD MSTORE PUSH1 0x4 DUP5 ADD SLOAD PUSH1 0x80 DUP5 ADD MSTORE PUSH1 0x5 DUP5 ADD SLOAD PUSH4 0xFFFFFFFF AND PUSH1 0xA0 DUP5 ADD MSTORE PUSH1 0x6 DUP5 ADD DUP1 SLOAD DUP3 MLOAD DUP2 DUP6 MUL DUP2 ADD DUP6 ADD SWAP1 SWAP4 MSTORE DUP1 DUP4 MSTORE PUSH1 0xC0 SWAP1 SWAP5 ADD SWAP4 SWAP2 SWAP3 SWAP1 SWAP2 SWAP1 DUP4 ADD DUP3 DUP3 DUP1 ISZERO PUSH2 0x4364 JUMPI PUSH1 0x20 MUL DUP3 ADD SWAP2 SWAP1 PUSH1 0x0 MSTORE PUSH1 0x20 PUSH1 0x0 KECCAK256 SWAP1 PUSH1 0x0 SWAP1 JUMPDEST DUP3 DUP3 SWAP1 SLOAD SWAP1 PUSH2 0x100 EXP SWAP1 DIV PUSH4 0xFFFFFFFF AND PUSH4 0xFFFFFFFF AND DUP2 MSTORE PUSH1 0x20 ADD SWAP1 PUSH1 0x4 ADD SWAP1 PUSH1 0x20 DUP3 PUSH1 0x3 ADD DIV SWAP3 DUP4 ADD SWAP3 PUSH1 0x1 SUB DUP3 MUL SWAP2 POP DUP1 DUP5 GT PUSH2 0x4327 JUMPI SWAP1 POP JUMPDEST POP POP POP POP POP DUP2 MSTORE PUSH1 0x20 ADD PUSH1 0x7 DUP3 ADD DUP1 SLOAD DUP1 PUSH1 0x20 MUL PUSH1 0x20 ADD PUSH1 0x40 MLOAD SWAP1 DUP2 ADD PUSH1 0x40 MSTORE DUP1 SWAP3 SWAP2 SWAP1 DUP2 DUP2 MSTORE PUSH1 0x20 ADD DUP3 DUP1 SLOAD DUP1 ISZERO PUSH2 0x43E8 JUMPI PUSH1 0x20 MUL DUP3 ADD SWAP2 SWAP1 PUSH1 0x0 MSTORE PUSH1 0x20 PUSH1 0x0 KECCAK256 SWAP1 PUSH1 0x0 SWAP1 JUMPDEST DUP3 DUP3 SWAP1 SLOAD SWAP1 PUSH2 0x100 EXP SWAP1 DIV PUSH4 0xFFFFFFFF AND PUSH4 0xFFFFFFFF AND DUP2 MSTORE PUSH1 0x20 ADD SWAP1 PUSH1 0x4 ADD SWAP1 PUSH1 0x20 DUP3 PUSH1 0x3 ADD DIV SWAP3 DUP4 ADD SWAP3 PUSH1 0x1 SUB DUP3 MUL SWAP2 POP DUP1 DUP5 GT PUSH2 0x43AB JUMPI SWAP1 POP JUMPDEST POP POP POP POP POP DUP2 MSTORE PUSH1 0x20 ADD PUSH1 0x8 DUP3 ADD DUP1 SLOAD DUP1 PUSH1 0x20 MUL PUSH1 0x20 ADD PUSH1 0x40 MLOAD SWAP1 DUP2 ADD PUSH1 0x40 MSTORE DUP1 SWAP3 SWAP2 SWAP1 DUP2 DUP2 MSTORE PUSH1 0x20 ADD DUP3 DUP1 SLOAD DUP1 ISZERO PUSH2 0x446C JUMPI PUSH1 0x20 MUL DUP3 ADD SWAP2 SWAP1 PUSH1 0x0 MSTORE PUSH1 0x20 PUSH1 0x0 KECCAK256 SWAP1 PUSH1 0x0 SWAP1 JUMPDEST DUP3 DUP3 SWAP1 SLOAD SWAP1 PUSH2 0x100 EXP SWAP1 DIV PUSH4 0xFFFFFFFF AND PUSH4 0xFFFFFFFF AND DUP2 MSTORE PUSH1 0x20 ADD SWAP1 PUSH1 0x4 ADD SWAP1 PUSH1 0x20 DUP3 PUSH1 0x3 ADD DIV SWAP3 DUP4 ADD SWAP3 PUSH1 0x1 SUB DUP3 MUL SWAP2 POP DUP1 DUP5 GT PUSH2 0x442F JUMPI SWAP1 POP JUMPDEST POP POP POP POP POP DUP2 MSTORE PUSH1 0x20 ADD PUSH1 0x9 DUP3 ADD SLOAD DUP2 MSTORE PUSH1 0x20 ADD PUSH1 0xA DUP3 ADD SLOAD DUP2 MSTORE PUSH1 0x20 ADD PUSH1 0xB DUP3 ADD SLOAD DUP2 MSTORE PUSH1 0x20 ADD PUSH1 0xC DUP3 ADD SLOAD DUP2 MSTORE PUSH1 0x20 ADD PUSH1 0xD DUP3 ADD SLOAD DUP2 MSTORE PUSH1 0x20 ADD PUSH1 0xE DUP3 ADD SLOAD DUP2 MSTORE PUSH1 0x20 ADD PUSH1 0xF DUP3 ADD SLOAD DUP2 MSTORE PUSH1 0x20 ADD PUSH1 0x10 DUP3 ADD SLOAD DUP2 MSTORE PUSH1 0x20 ADD PUSH1 0x11 DUP3 ADD PUSH1 0x0 SWAP1 SLOAD SWAP1 PUSH2 0x100 EXP SWAP1 DIV PUSH1 0xFF AND PUSH1 0xFF AND PUSH1 0xFF AND DUP2 MSTORE PUSH1 0x20 ADD PUSH1 0x12 DUP3 ADD SLOAD DUP2 MSTORE PUSH1 0x20 ADD PUSH1 0x13 DUP3 ADD SLOAD DUP2 MSTORE PUSH1 0x20 ADD PUSH1 0x14 DUP3 ADD SLOAD DUP2 MSTORE PUSH1 0x20 ADD PUSH1 0x15 DUP3 ADD SLOAD DUP2 MSTORE PUSH1 0x20 ADD PUSH1 0x16 DUP3 ADD SLOAD DUP2 MSTORE PUSH1 0x20 ADD PUSH1 0x17 DUP3 ADD SLOAD DUP2 MSTORE PUSH1 0x20 ADD PUSH1 0x18 DUP3 ADD SLOAD DUP2 MSTORE PUSH1 0x20 ADD PUSH1 0x19 DUP3 ADD SLOAD DUP2 MSTORE PUSH1 0x20 ADD PUSH1 0x1A DUP3 ADD SLOAD DUP2 MSTORE PUSH1 0x20 ADD PUSH1 0x1B DUP3 ADD DUP1 SLOAD DUP1 PUSH1 0x20 MUL PUSH1 0x20 ADD PUSH1 0x40 MLOAD SWAP1 DUP2 ADD PUSH1 0x40 MSTORE DUP1 SWAP3 SWAP2 SWAP1 DUP2 DUP2 MSTORE PUSH1 0x20 ADD DUP3 DUP1 SLOAD DUP1 ISZERO PUSH2 0x45B7 JUMPI PUSH1 0x20 MUL DUP3 ADD SWAP2 SWAP1 PUSH1 0x0 MSTORE PUSH1 0x20 PUSH1 0x0 KECCAK256 SWAP1 PUSH1 0x0 SWAP1 JUMPDEST DUP3 DUP3 SWAP1 SLOAD SWAP1 PUSH2 0x100 EXP SWAP1 DIV PUSH4 0xFFFFFFFF AND PUSH4 0xFFFFFFFF AND DUP2 MSTORE PUSH1 0x20 ADD SWAP1 PUSH1 0x4 ADD SWAP1 PUSH1 0x20 DUP3 PUSH1 0x3 ADD DIV SWAP3 DUP4 ADD SWAP3 PUSH1 0x1 SUB DUP3 MUL SWAP2 POP DUP1 DUP5 GT PUSH2 0x457A JUMPI SWAP1 POP JUMPDEST POP POP POP SWAP2 DUP4 MSTORE POP POP PUSH1 0x1C DUP3 ADD SLOAD PUSH1 0x20 DUP3 ADD MSTORE PUSH1 0x1D DUP3 ADD SLOAD PUSH1 0x40 DUP3 ADD MSTORE PUSH1 0x1E SWAP1 SWAP2 ADD SLOAD PUSH1 0x60 SWAP1 SWAP2 ADD MSTORE PUSH2 0x380 DUP2 ADD MLOAD DUP1 MLOAD PUSH2 0x2C0 DUP4 ADD MLOAD SWAP3 SWAP4 POP SWAP1 SWAP2 PUSH2 0x45FD SWAP1 PUSH1 0x2 PUSH2 0x5C87 JUMP JUMPDEST DUP4 PUSH2 0x2E0 ADD MLOAD LT DUP1 ISZERO PUSH2 0x4610 JUMPI POP PUSH1 0x0 DUP2 GT JUMPDEST ISZERO PUSH2 0x4705 JUMPI PUSH1 0x0 JUMPDEST DUP2 DUP2 PUSH2 0xFFFF AND LT ISZERO PUSH2 0x46FF JUMPI PUSH1 0x0 PUSH1 0xDC PUSH1 0x0 DUP6 DUP5 PUSH2 0xFFFF AND DUP2 MLOAD DUP2 LT PUSH2 0x4640 JUMPI PUSH2 0x4640 PUSH2 0x5B0A JUMP JUMPDEST PUSH1 0x20 MUL PUSH1 0x20 ADD ADD MLOAD PUSH4 0xFFFFFFFF AND PUSH4 0xFFFFFFFF AND DUP2 MSTORE PUSH1 0x20 ADD SWAP1 DUP2 MSTORE PUSH1 0x20 ADD PUSH1 0x0 KECCAK256 SWAP1 POP DUP1 PUSH1 0x0 ADD PUSH1 0x4 SWAP1 SLOAD SWAP1 PUSH2 0x100 EXP SWAP1 DIV PUSH1 0xFF AND ISZERO PUSH2 0x46EC JUMPI PUSH1 0xCB SLOAD PUSH1 0xD1 SLOAD PUSH1 0x1 DUP4 ADD SLOAD PUSH1 0x0 SWAP3 PUSH2 0xFFFF SWAP1 DUP2 AND SWAP3 PUSH2 0x46A5 SWAP3 PUSH1 0x1 PUSH1 0x60 SHL SWAP1 SWAP2 DIV SWAP1 SWAP2 AND SWAP1 PUSH2 0x5C87 JUMP JUMPDEST PUSH2 0x46AF SWAP2 SWAP1 PUSH2 0x5D57 JUMP JUMPDEST SWAP1 POP PUSH1 0x0 DUP3 PUSH1 0x3 ADD SLOAD TIMESTAMP PUSH2 0x46C3 SWAP2 SWAP1 PUSH2 0x5B36 JUMP JUMPDEST SWAP1 POP PUSH3 0x15180 PUSH2 0x46D3 DUP3 DUP5 PUSH2 0x5C87 JUMP JUMPDEST PUSH2 0x46DD SWAP2 SWAP1 PUSH2 0x5D57 JUMP JUMPDEST PUSH2 0x46E7 SWAP1 DUP10 PUSH2 0x5D14 JUMP JUMPDEST SWAP8 POP POP POP JUMPDEST POP DUP1 PUSH2 0x46F7 DUP2 PUSH2 0x5D27 JUMP JUMPDEST SWAP2 POP POP PUSH2 0x4618 JUMP JUMPDEST POP PUSH2 0x3ABB JUMP JUMPDEST POP PUSH1 0x0 SWAP5 SWAP4 POP POP POP POP JUMP JUMPDEST PUSH1 0x0 DUP1 PUSH8 0xDE0B6B3A7640000 PUSH1 0xC9 PUSH1 0x0 SWAP1 SLOAD SWAP1 PUSH2 0x100 EXP SWAP1 DIV PUSH1 0x1 PUSH1 0x1 PUSH1 0xA0 SHL SUB AND PUSH1 0x1 PUSH1 0x1 PUSH1 0xA0 SHL SUB AND PUSH4 0xE1AA6036 PUSH1 0x40 MLOAD DUP2 PUSH4 0xFFFFFFFF AND PUSH1 0xE0 SHL DUP2 MSTORE PUSH1 0x4 ADD PUSH1 0x20 PUSH1 0x40 MLOAD DUP1 DUP4 SUB DUP2 DUP7 GAS STATICCALL ISZERO DUP1 ISZERO PUSH2 0x476F JUMPI RETURNDATASIZE PUSH1 0x0 DUP1 RETURNDATACOPY RETURNDATASIZE PUSH1 0x0 REVERT JUMPDEST POP POP POP POP PUSH1 0x40 MLOAD RETURNDATASIZE PUSH1 0x1F NOT PUSH1 0x1F DUP3 ADD AND DUP3 ADD DUP1 PUSH1 0x40 MSTORE POP DUP2 ADD SWAP1 PUSH2 0x4793 SWAP2 SWAP1 PUSH2 0x5D3E JUMP JUMPDEST PUSH2 0x35CD SWAP1 DUP6 PUSH2 0x5C87 JUMP JUMPDEST PUSH4 0xFFFFFFFF DUP6 DUP2 AND PUSH1 0x0 DUP2 DUP2 MSTORE PUSH1 0xDB PUSH1 0x20 MSTORE PUSH1 0x40 SWAP1 KECCAK256 DUP1 SLOAD PUSH4 0xFFFFFFFF NOT SWAP1 DUP2 AND SWAP1 SWAP3 OR DUP2 SSTORE PUSH1 0x2 DUP2 ADD DUP1 SLOAD PUSH1 0x1 PUSH1 0x1 PUSH1 0xA8 SHL SUB NOT AND PUSH2 0x100 PUSH1 0x1 PUSH1 0x1 PUSH1 0xA0 SHL SUB DUP13 AND MUL OR PUSH1 0x1 OR SWAP1 SSTORE PUSH1 0x3 DUP1 DUP3 ADD DUP7 SWAP1 SSTORE PUSH1 0x5 DUP3 ADD DUP1 SLOAD SWAP1 SWAP4 AND SWAP4 DUP9 AND SWAP4 SWAP1 SWAP4 OR SWAP1 SWAP2 SSTORE SWAP1 PUSH2 0x480E SWAP1 DUP6 SWAP1 PUSH2 0x5C87 JUMP JUMPDEST DUP2 PUSH1 0x17 ADD PUSH1 0x0 DUP3 DUP3 SLOAD PUSH2 0x4821 SWAP2 SWAP1 PUSH2 0x5D14 JUMP JUMPDEST SWAP3 POP POP DUP2 SWAP1 SSTORE POP DUP4 DUP2 PUSH1 0x9 ADD PUSH1 0x0 DUP3 DUP3 SLOAD PUSH2 0x483C SWAP2 SWAP1 PUSH2 0x5D14 JUMP JUMPDEST SWAP3 POP POP DUP2 SWAP1 SSTORE POP DUP4 DUP2 PUSH1 0x15 ADD PUSH1 0x0 DUP3 DUP3 SLOAD PUSH2 0x4857 SWAP2 SWAP1 PUSH2 0x5D14 JUMP JUMPDEST SWAP1 SWAP2 SSTORE POP POP PUSH1 0x19 DUP2 ADD DUP4 SWAP1 SSTORE PUSH1 0x0 JUMPDEST DUP3 DUP2 PUSH1 0xFF AND LT ISZERO PUSH2 0x49E9 JUMPI PUSH1 0x5 DUP3 ADD SLOAD PUSH4 0xFFFFFFFF SWAP1 DUP2 AND PUSH1 0x0 DUP2 DUP2 MSTORE PUSH1 0xDB PUSH1 0x20 MSTORE PUSH1 0x40 DUP2 KECCAK256 DUP1 SLOAD SWAP3 SWAP4 SWAP1 SWAP3 AND SWAP1 SUB PUSH2 0x48A0 JUMPI POP POP PUSH2 0x49E9 JUMP JUMPDEST DUP3 PUSH1 0xFF AND PUSH1 0x0 SUB PUSH2 0x4904 JUMPI DUP7 DUP2 PUSH1 0xB ADD PUSH1 0x0 DUP3 DUP3 SLOAD PUSH2 0x48BF SWAP2 SWAP1 PUSH2 0x5D14 JUMP JUMPDEST SWAP1 SWAP2 SSTORE POP POP PUSH1 0x6 DUP2 ADD DUP1 SLOAD PUSH1 0x1 DUP2 ADD DUP3 SSTORE PUSH1 0x0 SWAP2 DUP3 MSTORE PUSH1 0x20 SWAP1 SWAP2 KECCAK256 PUSH1 0x8 DUP3 DIV ADD DUP1 SLOAD PUSH1 0x7 SWAP1 SWAP3 AND PUSH1 0x4 MUL PUSH2 0x100 EXP PUSH4 0xFFFFFFFF DUP2 DUP2 MUL NOT SWAP1 SWAP4 AND SWAP3 DUP13 AND MUL SWAP2 SWAP1 SWAP2 OR SWAP1 SSTORE JUMPDEST DUP7 DUP2 PUSH1 0xD ADD PUSH1 0x0 DUP3 DUP3 SLOAD PUSH2 0x4918 SWAP2 SWAP1 PUSH2 0x5D14 JUMP JUMPDEST SWAP1 SWAP2 SSTORE POP POP PUSH1 0x7 DUP2 DUP2 ADD DUP1 SLOAD PUSH1 0x1 DUP2 ADD DUP3 SSTORE PUSH1 0x0 SWAP2 DUP3 MSTORE PUSH1 0x20 SWAP2 DUP3 SWAP1 KECCAK256 PUSH1 0x8 DUP3 DIV ADD DUP1 SLOAD SWAP2 SWAP1 SWAP4 AND PUSH1 0x4 MUL PUSH2 0x100 SWAP1 DUP2 EXP PUSH4 0xFFFFFFFF DUP2 DUP2 MUL NOT SWAP1 SWAP4 AND DUP15 DUP5 AND SWAP2 DUP3 MUL OR SWAP1 SWAP5 SSTORE PUSH1 0x2 DUP6 ADD SLOAD PUSH1 0x5 DUP10 ADD SLOAD PUSH1 0x40 MLOAD SWAP1 DUP5 AND DUP2 MSTORE SWAP3 DUP14 AND SWAP4 SWAP2 SWAP1 DIV PUSH1 0x1 PUSH1 0x1 PUSH1 0xA0 SHL SUB AND SWAP2 PUSH32 0xA7FAFC728EC30E34DC1E1276496BF3EB44CA7494679DA969455289E6A8F0F1F6 SWAP2 ADD PUSH1 0x40 MLOAD DUP1 SWAP2 SUB SWAP1 LOG4 PUSH1 0xD4 SLOAD PUSH2 0x100 SWAP1 DIV PUSH1 0xFF AND ISZERO PUSH2 0x49C9 JUMPI PUSH2 0x49C9 DUP2 DUP4 DUP10 DUP10 PUSH2 0x4C6B JUMP JUMPDEST PUSH2 0x49D3 DUP8 DUP8 PUSH2 0x530F JUMP JUMPDEST SWAP3 POP DUP2 SWAP1 POP PUSH2 0x49E1 DUP2 PUSH2 0x5B74 JUMP JUMPDEST SWAP2 POP POP PUSH2 0x4866 JUMP JUMPDEST POP PUSH1 0xD1 DUP1 SLOAD PUSH5 0x100000000 SWAP1 DIV PUSH4 0xFFFFFFFF AND SWAP1 PUSH1 0x4 PUSH2 0x4A08 DUP4 PUSH2 0x5CF1 JUMP JUMPDEST SWAP2 SWAP1 PUSH2 0x100 EXP DUP2 SLOAD DUP2 PUSH4 0xFFFFFFFF MUL NOT AND SWAP1 DUP4 PUSH4 0xFFFFFFFF AND MUL OR SWAP1 SSTORE POP POP POP POP POP POP POP POP POP JUMP JUMPDEST PUSH1 0x0 DUP2 PUSH1 0x17 ADD SLOAD DUP3 PUSH1 0x16 ADD SLOAD LT ISZERO PUSH2 0x4A4C JUMPI DUP2 PUSH1 0x16 ADD SLOAD PUSH2 0x2218 JUMP JUMPDEST POP PUSH1 0x17 ADD SLOAD SWAP1 JUMP JUMPDEST PUSH1 0x1 PUSH1 0x1 PUSH1 0xA0 SHL SUB DUP2 AND EXTCODESIZE PUSH2 0x4AC1 JUMPI PUSH1 0x40 MLOAD PUSH3 0x461BCD PUSH1 0xE5 SHL DUP2 MSTORE PUSH1 0x20 PUSH1 0x4 DUP3 ADD MSTORE PUSH1 0x2D PUSH1 0x24 DUP3 ADD MSTORE PUSH32 0x455243313936373A206E657720696D706C656D656E746174696F6E206973206E PUSH1 0x44 DUP3 ADD MSTORE PUSH13 0x1BDD08184818DBDB9D1C9858DD PUSH1 0x9A SHL PUSH1 0x64 DUP3 ADD MSTORE PUSH1 0x84 ADD PUSH2 0xCCA JUMP JUMPDEST PUSH1 0x0 DUP1 MLOAD PUSH1 0x20 PUSH2 0x5DF4 DUP4 CODECOPY DUP2 MLOAD SWAP2 MSTORE DUP1 SLOAD PUSH1 0x1 PUSH1 0x1 PUSH1 0xA0 SHL SUB NOT AND PUSH1 0x1 PUSH1 0x1 PUSH1 0xA0 SHL SUB SWAP3 SWAP1 SWAP3 AND SWAP2 SWAP1 SWAP2 OR SWAP1 SSTORE JUMP JUMPDEST PUSH2 0x4AF9 DUP4 PUSH2 0x5349 JUMP JUMPDEST PUSH1 0x0 DUP3 MLOAD GT DUP1 PUSH2 0x4B06 JUMPI POP DUP1 JUMPDEST ISZERO PUSH2 0xC02 JUMPI PUSH2 0x2306 DUP4 DUP4 PUSH2 0x5389 JUMP JUMPDEST PUSH1 0x40 DUP1 MLOAD PUSH1 0x0 DUP2 MSTORE PUSH1 0x20 DUP2 ADD SWAP2 DUP3 SWAP1 MSTORE MLOAD PUSH2 0x4B34 SWAP2 PUSH1 0x1B DUP5 ADD SWAP2 PUSH2 0x5563 JUMP JUMPDEST POP PUSH1 0x0 PUSH1 0x1C SWAP1 SWAP2 ADD SSTORE JUMP JUMPDEST PUSH1 0x2 DUP2 ADD SLOAD PUSH1 0x0 SWAP1 PUSH1 0xFF AND ISZERO PUSH2 0x4B57 JUMPI POP PUSH1 0x1 SWAP2 SWAP1 POP JUMP JUMPDEST DUP2 PUSH1 0x17 ADD SLOAD DUP3 PUSH1 0x16 ADD SLOAD LT PUSH2 0x4B6E JUMPI POP PUSH1 0x1 SWAP2 SWAP1 POP JUMP JUMPDEST PUSH1 0x1B DUP3 ADD SLOAD ISZERO PUSH2 0x4BFB JUMPI PUSH1 0x1B DUP3 ADD DUP1 SLOAD PUSH1 0x0 SWAP2 PUSH1 0xDC SWAP2 DUP4 SWAP2 SWAP1 PUSH2 0x4B93 SWAP1 PUSH1 0x1 SWAP1 PUSH2 0x5B36 JUMP JUMPDEST DUP2 SLOAD DUP2 LT PUSH2 0x4BA3 JUMPI PUSH2 0x4BA3 PUSH2 0x5B0A JUMP JUMPDEST SWAP1 PUSH1 0x0 MSTORE PUSH1 0x20 PUSH1 0x0 KECCAK256 SWAP1 PUSH1 0x8 SWAP2 DUP3 DUP3 DIV ADD SWAP2 SWAP1 MOD PUSH1 0x4 MUL SWAP1 SLOAD SWAP1 PUSH2 0x100 EXP SWAP1 DIV PUSH4 0xFFFFFFFF AND PUSH4 0xFFFFFFFF AND PUSH4 0xFFFFFFFF AND DUP2 MSTORE PUSH1 0x20 ADD SWAP1 DUP2 MSTORE PUSH1 0x20 ADD PUSH1 0x0 KECCAK256 SWAP1 POP TIMESTAMP DUP2 PUSH1 0x3 ADD SLOAD LT PUSH2 0x4BF9 JUMPI POP PUSH1 0x1 SWAP3 SWAP2 POP POP JUMP JUMPDEST POP JUMPDEST POP PUSH1 0x0 SWAP2 SWAP1 POP JUMP JUMPDEST DUP2 PUSH1 0x17 ADD SLOAD DUP2 DUP4 PUSH1 0x16 ADD SLOAD PUSH2 0x4C18 SWAP2 SWAP1 PUSH2 0x5D14 JUMP JUMPDEST LT PUSH2 0x4C2B JUMPI PUSH1 0x17 DUP3 ADD SLOAD PUSH1 0x16 DUP4 ADD SSTORE POP POP JUMP JUMPDEST DUP1 DUP3 PUSH1 0x16 ADD SLOAD PUSH2 0xC02 SWAP2 SWAP1 PUSH2 0x5D14 JUMP JUMPDEST PUSH1 0x0 SLOAD PUSH2 0x100 SWAP1 DIV PUSH1 0xFF AND PUSH2 0x4C62 JUMPI PUSH1 0x40 MLOAD PUSH3 0x461BCD PUSH1 0xE5 SHL DUP2 MSTORE PUSH1 0x4 ADD PUSH2 0xCCA SWAP1 PUSH2 0x5D79 JUMP JUMPDEST PUSH2 0x111A CALLER PUSH2 0x374A JUMP JUMPDEST PUSH1 0x11 DUP5 ADD SLOAD PUSH1 0x40 DUP1 MLOAD PUSH2 0x400 DUP2 ADD SWAP1 SWAP2 MSTORE DUP6 SLOAD PUSH4 0xFFFFFFFF AND DUP2 MSTORE PUSH1 0x1 DUP7 ADD DUP1 SLOAD PUSH1 0xFF SWAP1 SWAP4 AND SWAP3 PUSH2 0x5073 SWAP3 SWAP2 DUP9 SWAP2 PUSH1 0x20 DUP5 ADD SWAP2 SWAP1 PUSH2 0x4CA8 SWAP1 PUSH2 0x5C2B JUMP JUMPDEST DUP1 PUSH1 0x1F ADD PUSH1 0x20 DUP1 SWAP2 DIV MUL PUSH1 0x20 ADD PUSH1 0x40 MLOAD SWAP1 DUP2 ADD PUSH1 0x40 MSTORE DUP1 SWAP3 SWAP2 SWAP1 DUP2 DUP2 MSTORE PUSH1 0x20 ADD DUP3 DUP1 SLOAD PUSH2 0x4CD4 SWAP1 PUSH2 0x5C2B JUMP JUMPDEST DUP1 ISZERO PUSH2 0x4D21 JUMPI DUP1 PUSH1 0x1F LT PUSH2 0x4CF6 JUMPI PUSH2 0x100 DUP1 DUP4 SLOAD DIV MUL DUP4 MSTORE SWAP2 PUSH1 0x20 ADD SWAP2 PUSH2 0x4D21 JUMP JUMPDEST DUP3 ADD SWAP2 SWAP1 PUSH1 0x0 MSTORE PUSH1 0x20 PUSH1 0x0 KECCAK256 SWAP1 JUMPDEST DUP2 SLOAD DUP2 MSTORE SWAP1 PUSH1 0x1 ADD SWAP1 PUSH1 0x20 ADD DUP1 DUP4 GT PUSH2 0x4D04 JUMPI DUP3 SWAP1 SUB PUSH1 0x1F AND DUP3 ADD SWAP2 JUMPDEST POP POP POP SWAP2 DUP4 MSTORE POP POP PUSH1 0x2 DUP3 ADD SLOAD PUSH1 0xFF DUP2 AND ISZERO ISZERO PUSH1 0x20 DUP1 DUP5 ADD SWAP2 SWAP1 SWAP2 MSTORE PUSH2 0x100 SWAP1 SWAP2 DIV PUSH1 0x1 PUSH1 0x1 PUSH1 0xA0 SHL SUB AND PUSH1 0x40 DUP1 DUP5 ADD SWAP2 SWAP1 SWAP2 MSTORE PUSH1 0x3 DUP5 ADD SLOAD PUSH1 0x60 DUP5 ADD MSTORE PUSH1 0x4 DUP5 ADD SLOAD PUSH1 0x80 DUP5 ADD MSTORE PUSH1 0x5 DUP5 ADD SLOAD PUSH4 0xFFFFFFFF AND PUSH1 0xA0 DUP5 ADD MSTORE PUSH1 0x6 DUP5 ADD DUP1 SLOAD DUP3 MLOAD DUP2 DUP6 MUL DUP2 ADD DUP6 ADD SWAP1 SWAP4 MSTORE DUP1 DUP4 MSTORE PUSH1 0xC0 SWAP1 SWAP5 ADD SWAP4 SWAP2 SWAP3 SWAP1 SWAP2 SWAP1 DUP4 ADD DUP3 DUP3 DUP1 ISZERO PUSH2 0x4DF4 JUMPI PUSH1 0x20 MUL DUP3 ADD SWAP2 SWAP1 PUSH1 0x0 MSTORE PUSH1 0x20 PUSH1 0x0 KECCAK256 SWAP1 PUSH1 0x0 SWAP1 JUMPDEST DUP3 DUP3 SWAP1 SLOAD SWAP1 PUSH2 0x100 EXP SWAP1 DIV PUSH4 0xFFFFFFFF AND PUSH4 0xFFFFFFFF AND DUP2 MSTORE PUSH1 0x20 ADD SWAP1 PUSH1 0x4 ADD SWAP1 PUSH1 0x20 DUP3 PUSH1 0x3 ADD DIV SWAP3 DUP4 ADD SWAP3 PUSH1 0x1 SUB DUP3 MUL SWAP2 POP DUP1 DUP5 GT PUSH2 0x4DB7 JUMPI SWAP1 POP JUMPDEST POP POP POP POP POP DUP2 MSTORE PUSH1 0x20 ADD PUSH1 0x7 DUP3 ADD DUP1 SLOAD DUP1 PUSH1 0x20 MUL PUSH1 0x20 ADD PUSH1 0x40 MLOAD SWAP1 DUP2 ADD PUSH1 0x40 MSTORE DUP1 SWAP3 SWAP2 SWAP1 DUP2 DUP2 MSTORE PUSH1 0x20 ADD DUP3 DUP1 SLOAD DUP1 ISZERO PUSH2 0x4E78 JUMPI PUSH1 0x20 MUL DUP3 ADD SWAP2 SWAP1 PUSH1 0x0 MSTORE PUSH1 0x20 PUSH1 0x0 KECCAK256 SWAP1 PUSH1 0x0 SWAP1 JUMPDEST DUP3 DUP3 SWAP1 SLOAD SWAP1 PUSH2 0x100 EXP SWAP1 DIV PUSH4 0xFFFFFFFF AND PUSH4 0xFFFFFFFF AND DUP2 MSTORE PUSH1 0x20 ADD SWAP1 PUSH1 0x4 ADD SWAP1 PUSH1 0x20 DUP3 PUSH1 0x3 ADD DIV SWAP3 DUP4 ADD SWAP3 PUSH1 0x1 SUB DUP3 MUL SWAP2 POP DUP1 DUP5 GT PUSH2 0x4E3B JUMPI SWAP1 POP JUMPDEST POP POP POP POP POP DUP2 MSTORE PUSH1 0x20 ADD PUSH1 0x8 DUP3 ADD DUP1 SLOAD DUP1 PUSH1 0x20 MUL PUSH1 0x20 ADD PUSH1 0x40 MLOAD SWAP1 DUP2 ADD PUSH1 0x40 MSTORE DUP1 SWAP3 SWAP2 SWAP1 DUP2 DUP2 MSTORE PUSH1 0x20 ADD DUP3 DUP1 SLOAD DUP1 ISZERO PUSH2 0x4EFC JUMPI PUSH1 0x20 MUL DUP3 ADD SWAP2 SWAP1 PUSH1 0x0 MSTORE PUSH1 0x20 PUSH1 0x0 KECCAK256 SWAP1 PUSH1 0x0 SWAP1 JUMPDEST DUP3 DUP3 SWAP1 SLOAD SWAP1 PUSH2 0x100 EXP SWAP1 DIV PUSH4 0xFFFFFFFF AND PUSH4 0xFFFFFFFF AND DUP2 MSTORE PUSH1 0x20 ADD SWAP1 PUSH1 0x4 ADD SWAP1 PUSH1 0x20 DUP3 PUSH1 0x3 ADD DIV SWAP3 DUP4 ADD SWAP3 PUSH1 0x1 SUB DUP3 MUL SWAP2 POP DUP1 DUP5 GT PUSH2 0x4EBF JUMPI SWAP1 POP JUMPDEST POP POP POP POP POP DUP2 MSTORE PUSH1 0x20 ADD PUSH1 0x9 DUP3 ADD SLOAD DUP2 MSTORE PUSH1 0x20 ADD PUSH1 0xA DUP3 ADD SLOAD DUP2 MSTORE PUSH1 0x20 ADD PUSH1 0xB DUP3 ADD SLOAD DUP2 MSTORE PUSH1 0x20 ADD PUSH1 0xC DUP3 ADD SLOAD DUP2 MSTORE PUSH1 0x20 ADD PUSH1 0xD DUP3 ADD SLOAD DUP2 MSTORE PUSH1 0x20 ADD PUSH1 0xE DUP3 ADD SLOAD DUP2 MSTORE PUSH1 0x20 ADD PUSH1 0xF DUP3 ADD SLOAD DUP2 MSTORE PUSH1 0x20 ADD PUSH1 0x10 DUP3 ADD SLOAD DUP2 MSTORE PUSH1 0x20 ADD PUSH1 0x11 DUP3 ADD PUSH1 0x0 SWAP1 SLOAD SWAP1 PUSH2 0x100 EXP SWAP1 DIV PUSH1 0xFF AND PUSH1 0xFF AND PUSH1 0xFF AND DUP2 MSTORE PUSH1 0x20 ADD PUSH1 0x12 DUP3 ADD SLOAD DUP2 MSTORE PUSH1 0x20 ADD PUSH1 0x13 DUP3 ADD SLOAD DUP2 MSTORE PUSH1 0x20 ADD PUSH1 0x14 DUP3 ADD SLOAD DUP2 MSTORE PUSH1 0x20 ADD PUSH1 0x15 DUP3 ADD SLOAD DUP2 MSTORE PUSH1 0x20 ADD PUSH1 0x16 DUP3 ADD SLOAD DUP2 MSTORE PUSH1 0x20 ADD PUSH1 0x17 DUP3 ADD SLOAD DUP2 MSTORE PUSH1 0x20 ADD PUSH1 0x18 DUP3 ADD SLOAD DUP2 MSTORE PUSH1 0x20 ADD PUSH1 0x19 DUP3 ADD SLOAD DUP2 MSTORE PUSH1 0x20 ADD PUSH1 0x1A DUP3 ADD SLOAD DUP2 MSTORE PUSH1 0x20 ADD PUSH1 0x1B DUP3 ADD DUP1 SLOAD DUP1 PUSH1 0x20 MUL PUSH1 0x20 ADD PUSH1 0x40 MLOAD SWAP1 DUP2 ADD PUSH1 0x40 MSTORE DUP1 SWAP3 SWAP2 SWAP1 DUP2 DUP2 MSTORE PUSH1 0x20 ADD DUP3 DUP1 SLOAD DUP1 ISZERO PUSH2 0x5047 JUMPI PUSH1 0x20 MUL DUP3 ADD SWAP2 SWAP1 PUSH1 0x0 MSTORE PUSH1 0x20 PUSH1 0x0 KECCAK256 SWAP1 PUSH1 0x0 SWAP1 JUMPDEST DUP3 DUP3 SWAP1 SLOAD SWAP1 PUSH2 0x100 EXP SWAP1 DIV PUSH4 0xFFFFFFFF AND PUSH4 0xFFFFFFFF AND DUP2 MSTORE PUSH1 0x20 ADD SWAP1 PUSH1 0x4 ADD SWAP1 PUSH1 0x20 DUP3 PUSH1 0x3 ADD DIV SWAP3 DUP4 ADD SWAP3 PUSH1 0x1 SUB DUP3 MUL SWAP2 POP DUP1 DUP5 GT PUSH2 0x500A JUMPI SWAP1 POP JUMPDEST POP POP POP POP POP DUP2 MSTORE PUSH1 0x20 ADD PUSH1 0x1C DUP3 ADD SLOAD DUP2 MSTORE PUSH1 0x20 ADD PUSH1 0x1D DUP3 ADD SLOAD DUP2 MSTORE PUSH1 0x20 ADD PUSH1 0x1E DUP3 ADD SLOAD DUP2 MSTORE POP POP PUSH2 0x379C JUMP JUMPDEST PUSH1 0xFF AND GT ISZERO PUSH2 0x2306 JUMPI PUSH1 0x40 DUP1 MLOAD PUSH2 0x400 DUP2 ADD SWAP1 SWAP2 MSTORE DUP5 SLOAD PUSH4 0xFFFFFFFF AND DUP2 MSTORE PUSH1 0x1 DUP6 ADD DUP1 SLOAD PUSH2 0x50AE SWAP3 SWAP2 DUP8 SWAP2 PUSH1 0x20 DUP5 ADD SWAP2 SWAP1 PUSH2 0x4CA8 SWAP1 PUSH2 0x5C2B JUMP JUMPDEST PUSH1 0x11 DUP6 ADD DUP1 SLOAD PUSH1 0xFF NOT AND PUSH1 0xFF SWAP3 DUP4 AND SWAP1 DUP2 OR DUP3 SSTORE PUSH1 0x0 SWAP1 DUP2 MSTORE PUSH1 0xDD PUSH1 0x20 SWAP1 DUP2 MSTORE PUSH1 0x40 DUP1 DUP4 KECCAK256 PUSH1 0x9 SWAP1 DUP2 ADD DUP1 SLOAD PUSH1 0x1 DUP2 DUP2 ADD DUP4 SSTORE SWAP2 DUP7 MSTORE SWAP4 DUP6 KECCAK256 PUSH1 0x8 DUP6 DIV ADD DUP1 SLOAD PUSH1 0x7 SWAP1 SWAP6 AND PUSH1 0x4 MUL PUSH2 0x100 EXP PUSH4 0xFFFFFFFF DUP2 DUP2 MUL NOT SWAP1 SWAP7 AND SWAP6 DUP13 AND MUL SWAP5 SWAP1 SWAP5 OR SWAP1 SWAP4 SSTORE SWAP4 SLOAD SWAP1 SWAP5 AND DUP3 MSTORE SWAP3 SWAP1 KECCAK256 ADD SLOAD PUSH2 0x5127 SWAP2 SWAP1 PUSH2 0x5B36 JUMP JUMPDEST PUSH1 0x12 DUP6 ADD DUP2 SWAP1 SSTORE PUSH1 0x11 DUP6 ADD SLOAD PUSH1 0x40 DUP1 MLOAD PUSH4 0xFFFFFFFF DUP8 AND DUP2 MSTORE PUSH1 0x20 DUP2 ADD SWAP4 SWAP1 SWAP4 MSTORE PUSH1 0xFF SWAP1 SWAP2 AND DUP3 DUP3 ADD MSTORE MLOAD PUSH32 0xB0D3A9C683344E744A1AE3DB383F75A8A01851282C5FE97D6159C1392A2E2A0A SWAP2 DUP2 SWAP1 SUB PUSH1 0x60 ADD SWAP1 LOG1 PUSH1 0x40 DUP1 MLOAD PUSH2 0x400 DUP2 ADD SWAP1 SWAP2 MSTORE DUP5 SLOAD PUSH4 0xFFFFFFFF AND DUP2 MSTORE PUSH1 0x1 DUP6 ADD DUP1 SLOAD PUSH1 0xDD SWAP3 PUSH1 0x0 SWAP3 PUSH2 0x51B2 SWAP3 DUP10 SWAP2 PUSH1 0x20 DUP5 ADD SWAP2 PUSH2 0x4CA8 SWAP1 PUSH2 0x5C2B JUMP JUMPDEST PUSH1 0xFF SWAP1 DUP2 AND DUP3 MSTORE PUSH1 0x20 DUP3 ADD SWAP3 SWAP1 SWAP3 MSTORE PUSH1 0x40 ADD PUSH1 0x0 KECCAK256 PUSH1 0x8 ADD SLOAD PUSH2 0x100 SWAP1 DIV AND ISZERO PUSH2 0x5276 JUMPI PUSH1 0x40 DUP1 MLOAD PUSH2 0x400 DUP2 ADD SWAP1 SWAP2 MSTORE DUP5 SLOAD PUSH4 0xFFFFFFFF AND DUP2 MSTORE PUSH1 0x1 DUP6 ADD DUP1 SLOAD PUSH1 0xDD SWAP3 PUSH1 0x0 SWAP3 PUSH2 0x520C SWAP3 DUP10 SWAP2 PUSH1 0x20 DUP5 ADD SWAP2 PUSH2 0x4CA8 SWAP1 PUSH2 0x5C2B JUMP JUMPDEST PUSH1 0xFF AND PUSH1 0xFF AND DUP2 MSTORE PUSH1 0x20 ADD SWAP1 DUP2 MSTORE PUSH1 0x20 ADD PUSH1 0x0 KECCAK256 PUSH1 0x7 ADD SLOAD DUP5 PUSH1 0x10 ADD SLOAD PUSH2 0x5233 SWAP2 SWAP1 PUSH2 0x5D14 JUMP JUMPDEST DUP2 GT ISZERO PUSH2 0x5262 JUMPI DUP1 DUP5 PUSH1 0x10 ADD DUP2 SWAP1 SSTORE POP DUP2 DUP5 PUSH1 0xF ADD PUSH1 0x0 DUP3 DUP3 SLOAD PUSH2 0x5257 SWAP2 SWAP1 PUSH2 0x5D14 JUMP JUMPDEST SWAP1 SWAP2 SSTORE POP PUSH2 0x2306 SWAP1 POP JUMP JUMPDEST DUP2 DUP5 PUSH1 0xF ADD PUSH1 0x0 DUP3 DUP3 SLOAD PUSH2 0x5257 SWAP2 SWAP1 PUSH2 0x5D14 JUMP JUMPDEST PUSH1 0xD4 SLOAD PUSH2 0x100 SWAP1 DIV PUSH1 0xFF AND ISZERO PUSH2 0x2306 JUMPI PUSH1 0x11 DUP5 ADD SLOAD PUSH1 0xFF AND PUSH1 0x0 SWAP1 DUP2 MSTORE PUSH1 0xDD PUSH1 0x20 MSTORE PUSH1 0x40 SWAP1 KECCAK256 PUSH1 0x5 ADD SLOAD PUSH2 0x52AB SWAP1 DUP6 SWAP1 PUSH2 0x4C03 JUMP JUMPDEST PUSH1 0x11 DUP5 ADD SLOAD PUSH1 0xFF SWAP1 DUP2 AND PUSH1 0x0 SWAP1 DUP2 MSTORE PUSH1 0xDD PUSH1 0x20 SWAP1 DUP2 MSTORE PUSH1 0x40 SWAP2 DUP3 SWAP1 KECCAK256 PUSH1 0x5 DUP2 ADD SLOAD SWAP1 SLOAD SWAP3 MLOAD SWAP3 SWAP1 SWAP4 AND DUP3 MSTORE PUSH4 0xFFFFFFFF DUP7 AND SWAP2 PUSH32 0x94B6D3D19CC40938E685EF6A1F6476B53EF65295AB094A044E74405A8D0BD05B SWAP2 ADD PUSH1 0x40 MLOAD DUP1 SWAP2 SUB SWAP1 LOG3 POP POP POP POP JUMP JUMPDEST PUSH1 0xD7 SLOAD PUSH1 0xD6 SLOAD PUSH2 0x531F SWAP2 SWAP1 PUSH2 0x5D14 JUMP JUMPDEST DUP2 GT ISZERO PUSH2 0x532E JUMPI PUSH1 0xD6 SSTORE PUSH1 0xD5 SSTORE JUMP JUMPDEST DUP2 PUSH1 0xD5 PUSH1 0x0 DUP3 DUP3 SLOAD PUSH2 0x5340 SWAP2 SWAP1 PUSH2 0x5D14 JUMP JUMPDEST SWAP1 SWAP2 SSTORE POP POP POP POP JUMP JUMPDEST PUSH2 0x5352 DUP2 PUSH2 0x4A54 JUMP JUMPDEST PUSH1 0x40 MLOAD PUSH1 0x1 PUSH1 0x1 PUSH1 0xA0 SHL SUB DUP3 AND SWAP1 PUSH32 0xBC7CD75A20EE27FD9ADEBAB32041F755214DBC6BFFA90CC0225B39DA2E5C2D3B SWAP1 PUSH1 0x0 SWAP1 LOG2 POP JUMP JUMPDEST PUSH1 0x60 PUSH1 0x1 PUSH1 0x1 PUSH1 0xA0 SHL SUB DUP4 AND EXTCODESIZE PUSH2 0x53F1 JUMPI PUSH1 0x40 MLOAD PUSH3 0x461BCD PUSH1 0xE5 SHL DUP2 MSTORE PUSH1 0x20 PUSH1 0x4 DUP3 ADD MSTORE PUSH1 0x26 PUSH1 0x24 DUP3 ADD MSTORE PUSH32 0x416464726573733A2064656C65676174652063616C6C20746F206E6F6E2D636F PUSH1 0x44 DUP3 ADD MSTORE PUSH6 0x1B9D1C9858DD PUSH1 0xD2 SHL PUSH1 0x64 DUP3 ADD MSTORE PUSH1 0x84 ADD PUSH2 0xCCA JUMP JUMPDEST PUSH1 0x0 DUP1 DUP5 PUSH1 0x1 PUSH1 0x1 PUSH1 0xA0 SHL SUB AND DUP5 PUSH1 0x40 MLOAD PUSH2 0x540C SWAP2 SWAP1 PUSH2 0x5DC4 JUMP JUMPDEST PUSH1 0x0 PUSH1 0x40 MLOAD DUP1 DUP4 SUB DUP2 DUP6 GAS DELEGATECALL SWAP2 POP POP RETURNDATASIZE DUP1 PUSH1 0x0 DUP2 EQ PUSH2 0x5447 JUMPI PUSH1 0x40 MLOAD SWAP2 POP PUSH1 0x1F NOT PUSH1 0x3F RETURNDATASIZE ADD AND DUP3 ADD PUSH1 0x40 MSTORE RETURNDATASIZE DUP3 MSTORE RETURNDATASIZE PUSH1 0x0 PUSH1 0x20 DUP5 ADD RETURNDATACOPY PUSH2 0x544C JUMP JUMPDEST PUSH1 0x60 SWAP2 POP JUMPDEST POP SWAP2 POP SWAP2 POP PUSH2 0x5474 DUP3 DUP3 PUSH1 0x40 MLOAD DUP1 PUSH1 0x60 ADD PUSH1 0x40 MSTORE DUP1 PUSH1 0x27 DUP2 MSTORE PUSH1 0x20 ADD PUSH2 0x5E14 PUSH1 0x27 SWAP2 CODECOPY PUSH2 0x547D JUMP JUMPDEST SWAP6 SWAP5 POP POP POP POP POP JUMP JUMPDEST PUSH1 0x60 DUP4 ISZERO PUSH2 0x548C JUMPI POP DUP2 PUSH2 0x2206 JUMP JUMPDEST PUSH2 0x2206 DUP4 DUP4 DUP2 MLOAD ISZERO PUSH2 0x54A1 JUMPI DUP2 MLOAD DUP1 DUP4 PUSH1 0x20 ADD REVERT JUMPDEST DUP1 PUSH1 0x40 MLOAD PUSH3 0x461BCD PUSH1 0xE5 SHL DUP2 MSTORE PUSH1 0x4 ADD PUSH2 0xCCA SWAP2 SWAP1 PUSH2 0x5DE0 JUMP JUMPDEST DUP3 DUP1 SLOAD DUP3 DUP3 SSTORE SWAP1 PUSH1 0x0 MSTORE PUSH1 0x20 PUSH1 0x0 KECCAK256 SWAP1 PUSH1 0xF ADD PUSH1 0x10 SWAP1 DIV DUP2 ADD SWAP3 DUP3 ISZERO PUSH2 0x5553 JUMPI SWAP2 PUSH1 0x20 MUL DUP3 ADD PUSH1 0x0 JUMPDEST DUP4 DUP3 GT ISZERO PUSH2 0x5523 JUMPI DUP4 MLOAD DUP4 DUP3 PUSH2 0x100 EXP DUP2 SLOAD DUP2 PUSH2 0xFFFF MUL NOT AND SWAP1 DUP4 PUSH1 0xFF AND MUL OR SWAP1 SSTORE POP SWAP3 PUSH1 0x20 ADD SWAP3 PUSH1 0x2 ADD PUSH1 0x20 DUP2 PUSH1 0x1 ADD DIV SWAP3 DUP4 ADD SWAP3 PUSH1 0x1 SUB MUL PUSH2 0x54E4 JUMP JUMPDEST DUP1 ISZERO PUSH2 0x5551 JUMPI DUP3 DUP2 PUSH2 0x100 EXP DUP2 SLOAD SWAP1 PUSH2 0xFFFF MUL NOT AND SWAP1 SSTORE PUSH1 0x2 ADD PUSH1 0x20 DUP2 PUSH1 0x1 ADD DIV SWAP3 DUP4 ADD SWAP3 PUSH1 0x1 SUB MUL PUSH2 0x5523 JUMP JUMPDEST POP JUMPDEST POP PUSH2 0x555F SWAP3 SWAP2 POP PUSH2 0x5600 JUMP JUMPDEST POP SWAP1 JUMP JUMPDEST DUP3 DUP1 SLOAD DUP3 DUP3 SSTORE SWAP1 PUSH1 0x0 MSTORE PUSH1 0x20 PUSH1 0x0 KECCAK256 SWAP1 PUSH1 0x7 ADD PUSH1 0x8 SWAP1 DIV DUP2 ADD SWAP3 DUP3 ISZERO PUSH2 0x5553 JUMPI SWAP2 PUSH1 0x20 MUL DUP3 ADD PUSH1 0x0 JUMPDEST DUP4 DUP3 GT ISZERO PUSH2 0x55D0 JUMPI DUP4 MLOAD DUP4 DUP3 PUSH2 0x100 EXP DUP2 SLOAD DUP2 PUSH4 0xFFFFFFFF MUL NOT AND SWAP1 DUP4 PUSH4 0xFFFFFFFF AND MUL OR SWAP1 SSTORE POP SWAP3 PUSH1 0x20 ADD SWAP3 PUSH1 0x4 ADD PUSH1 0x20 DUP2 PUSH1 0x3 ADD DIV SWAP3 DUP4 ADD SWAP3 PUSH1 0x1 SUB MUL PUSH2 0x558C JUMP JUMPDEST DUP1 ISZERO PUSH2 0x5551 JUMPI DUP3 DUP2 PUSH2 0x100 EXP DUP2 SLOAD SWAP1 PUSH4 0xFFFFFFFF MUL NOT AND SWAP1 SSTORE PUSH1 0x4 ADD PUSH1 0x20 DUP2 PUSH1 0x3 ADD DIV SWAP3 DUP4 ADD SWAP3 PUSH1 0x1 SUB MUL PUSH2 0x55D0 JUMP JUMPDEST JUMPDEST DUP1 DUP3 GT ISZERO PUSH2 0x555F JUMPI PUSH1 0x0 DUP2 SSTORE PUSH1 0x1 ADD PUSH2 0x5601 JUMP JUMPDEST DUP1 CALLDATALOAD PUSH1 0x1 PUSH1 0x1 PUSH1 0xA0 SHL SUB DUP2 AND DUP2 EQ PUSH2 0x562C JUMPI PUSH1 0x0 DUP1 REVERT JUMPDEST SWAP2 SWAP1 POP JUMP JUMPDEST PUSH1 0x0 DUP1 PUSH1 0x40 DUP4 DUP6 SUB SLT ISZERO PUSH2 0x5644 JUMPI PUSH1 0x0 DUP1 REVERT JUMPDEST PUSH2 0x564D DUP4 PUSH2 0x5615 JUMP JUMPDEST SWAP5 PUSH1 0x20 SWAP4 SWAP1 SWAP4 ADD CALLDATALOAD SWAP4 POP POP POP JUMP JUMPDEST PUSH1 0x0 PUSH1 0x20 DUP3 DUP5 SUB SLT ISZERO PUSH2 0x566D JUMPI PUSH1 0x0 DUP1 REVERT JUMPDEST PUSH2 0x2206 DUP3 PUSH2 0x5615 JUMP JUMPDEST PUSH1 0x0 PUSH1 0x20 DUP3 DUP5 SUB SLT ISZERO PUSH2 0x5688 JUMPI PUSH1 0x0 DUP1 REVERT JUMPDEST POP CALLDATALOAD SWAP2 SWAP1 POP JUMP JUMPDEST DUP1 CALLDATALOAD PUSH4 0xFFFFFFFF DUP2 AND DUP2 EQ PUSH2 0x562C JUMPI PUSH1 0x0 DUP1 REVERT JUMPDEST PUSH1 0x0 PUSH1 0x20 DUP3 DUP5 SUB SLT ISZERO PUSH2 0x56B5 JUMPI PUSH1 0x0 DUP1 REVERT JUMPDEST PUSH2 0x2206 DUP3 PUSH2 0x568F JUMP JUMPDEST PUSH4 0x4E487B71 PUSH1 0xE0 SHL PUSH1 0x0 MSTORE PUSH1 0x41 PUSH1 0x4 MSTORE PUSH1 0x24 PUSH1 0x0 REVERT JUMPDEST PUSH1 0x0 DUP1 PUSH1 0x40 DUP4 DUP6 SUB SLT ISZERO PUSH2 0x56E7 JUMPI PUSH1 0x0 DUP1 REVERT JUMPDEST PUSH2 0x56F0 DUP4 PUSH2 0x5615 JUMP JUMPDEST SWAP2 POP PUSH1 0x20 DUP4 ADD CALLDATALOAD PUSH8 0xFFFFFFFFFFFFFFFF DUP1 DUP3 GT ISZERO PUSH2 0x570D JUMPI PUSH1 0x0 DUP1 REVERT JUMPDEST DUP2 DUP6 ADD SWAP2 POP DUP6 PUSH1 0x1F DUP4 ADD SLT PUSH2 0x5721 JUMPI PUSH1 0x0 DUP1 REVERT JUMPDEST DUP2 CALLDATALOAD DUP2 DUP2 GT ISZERO PUSH2 0x5733 JUMPI PUSH2 0x5733 PUSH2 0x56BE JUMP JUMPDEST PUSH1 0x40 MLOAD PUSH1 0x1F DUP3 ADD PUSH1 0x1F NOT SWAP1 DUP2 AND PUSH1 0x3F ADD AND DUP2 ADD SWAP1 DUP4 DUP3 GT DUP2 DUP4 LT OR ISZERO PUSH2 0x575B JUMPI PUSH2 0x575B PUSH2 0x56BE JUMP JUMPDEST DUP2 PUSH1 0x40 MSTORE DUP3 DUP2 MSTORE DUP9 PUSH1 0x20 DUP5 DUP8 ADD ADD GT ISZERO PUSH2 0x5774 JUMPI PUSH1 0x0 DUP1 REVERT JUMPDEST DUP3 PUSH1 0x20 DUP7 ADD PUSH1 0x20 DUP4 ADD CALLDATACOPY PUSH1 0x0 PUSH1 0x20 DUP5 DUP4 ADD ADD MSTORE DUP1 SWAP6 POP POP POP POP POP POP SWAP3 POP SWAP3 SWAP1 POP JUMP JUMPDEST PUSH1 0x0 DUP2 MLOAD DUP1 DUP5 MSTORE PUSH1 0x20 DUP1 DUP6 ADD SWAP5 POP DUP1 DUP5 ADD PUSH1 0x0 JUMPDEST DUP4 DUP2 LT ISZERO PUSH2 0x57CC JUMPI DUP2 MLOAD PUSH4 0xFFFFFFFF AND DUP8 MSTORE SWAP6 DUP3 ADD SWAP6 SWAP1 DUP3 ADD SWAP1 PUSH1 0x1 ADD PUSH2 0x57AA JUMP JUMPDEST POP SWAP5 SWAP6 SWAP5 POP POP POP POP POP JUMP JUMPDEST PUSH1 0x60 DUP2 MSTORE PUSH1 0x0 PUSH2 0x57EA PUSH1 0x60 DUP4 ADD DUP7 PUSH2 0x5796 JUMP JUMPDEST DUP3 DUP2 SUB PUSH1 0x20 DUP5 ADD MSTORE PUSH2 0x57FC DUP2 DUP7 PUSH2 0x5796 JUMP JUMPDEST SWAP2 POP POP DUP3 PUSH1 0x40 DUP4 ADD MSTORE SWAP5 SWAP4 POP POP POP POP JUMP JUMPDEST PUSH1 0x0 DUP1 PUSH1 0x0 PUSH1 0x60 DUP5 DUP7 SUB SLT ISZERO PUSH2 0x5822 JUMPI PUSH1 0x0 DUP1 REVERT JUMPDEST DUP4 CALLDATALOAD PUSH2 0xFFFF DUP2 AND DUP2 EQ PUSH2 0x5834 JUMPI PUSH1 0x0 DUP1 REVERT JUMPDEST SWAP6 PUSH1 0x20 DUP6 ADD CALLDATALOAD SWAP6 POP PUSH1 0x40 SWAP1 SWAP5 ADD CALLDATALOAD SWAP4 SWAP3 POP POP POP JUMP JUMPDEST PUSH1 0x0 DUP1 PUSH1 0x40 DUP4 DUP6 SUB SLT ISZERO PUSH2 0x585C JUMPI PUSH1 0x0 DUP1 REVERT JUMPDEST PUSH2 0x564D DUP4 PUSH2 0x568F JUMP JUMPDEST PUSH1 0x0 JUMPDEST DUP4 DUP2 LT ISZERO PUSH2 0x5880 JUMPI DUP2 DUP2 ADD MLOAD DUP4 DUP3 ADD MSTORE PUSH1 0x20 ADD PUSH2 0x5868 JUMP JUMPDEST POP POP PUSH1 0x0 SWAP2 ADD MSTORE JUMP JUMPDEST PUSH1 0x0 DUP2 MLOAD DUP1 DUP5 MSTORE PUSH2 0x58A1 DUP2 PUSH1 0x20 DUP7 ADD PUSH1 0x20 DUP7 ADD PUSH2 0x5865 JUMP JUMPDEST PUSH1 0x1F ADD PUSH1 0x1F NOT AND SWAP3 SWAP1 SWAP3 ADD PUSH1 0x20 ADD SWAP3 SWAP2 POP POP JUMP JUMPDEST PUSH1 0x20 DUP2 MSTORE PUSH2 0x58CC PUSH1 0x20 DUP3 ADD DUP4 MLOAD PUSH4 0xFFFFFFFF AND SWAP1 MSTORE JUMP JUMPDEST PUSH1 0x0 PUSH1 0x20 DUP4 ADD MLOAD PUSH2 0x400 DUP1 PUSH1 0x40 DUP6 ADD MSTORE PUSH2 0x58EA PUSH2 0x420 DUP6 ADD DUP4 PUSH2 0x5889 JUMP JUMPDEST SWAP2 POP PUSH1 0x40 DUP6 ADD MLOAD PUSH2 0x58FF PUSH1 0x60 DUP7 ADD DUP3 ISZERO ISZERO SWAP1 MSTORE JUMP JUMPDEST POP PUSH1 0x60 DUP6 ADD MLOAD PUSH1 0x1 PUSH1 0x1 PUSH1 0xA0 SHL SUB DUP2 AND PUSH1 0x80 DUP7 ADD MSTORE POP PUSH1 0x80 DUP6 ADD MLOAD PUSH1 0xA0 DUP6 ADD MSTORE PUSH1 0xA0 DUP6 ADD MLOAD PUSH1 0xC0 DUP6 ADD MSTORE PUSH1 0xC0 DUP6 ADD MLOAD PUSH2 0x5940 PUSH1 0xE0 DUP7 ADD DUP3 PUSH4 0xFFFFFFFF AND SWAP1 MSTORE JUMP JUMPDEST POP PUSH1 0xE0 DUP6 ADD MLOAD PUSH1 0x1F NOT PUSH2 0x100 DUP2 DUP8 DUP7 SUB ADD DUP2 DUP9 ADD MSTORE PUSH2 0x595F DUP6 DUP5 PUSH2 0x5796 JUMP JUMPDEST SWAP5 POP DUP1 DUP9 ADD MLOAD SWAP3 POP POP PUSH2 0x120 DUP2 DUP8 DUP7 SUB ADD DUP2 DUP9 ADD MSTORE PUSH2 0x597E DUP6 DUP5 PUSH2 0x5796 JUMP JUMPDEST SWAP5 POP DUP1 DUP9 ADD MLOAD SWAP3 POP POP PUSH2 0x140 DUP2 DUP8 DUP7 SUB ADD DUP2 DUP9 ADD MSTORE PUSH2 0x599D DUP6 DUP5 PUSH2 0x5796 JUMP JUMPDEST SWAP1 DUP9 ADD MLOAD PUSH2 0x160 DUP9 DUP2 ADD SWAP2 SWAP1 SWAP2 MSTORE DUP9 ADD MLOAD PUSH2 0x180 DUP1 DUP10 ADD SWAP2 SWAP1 SWAP2 MSTORE DUP9 ADD MLOAD PUSH2 0x1A0 DUP1 DUP10 ADD SWAP2 SWAP1 SWAP2 MSTORE DUP9 ADD MLOAD PUSH2 0x1C0 DUP1 DUP10 ADD SWAP2 SWAP1 SWAP2 MSTORE DUP9 ADD MLOAD PUSH2 0x1E0 DUP1 DUP10 ADD SWAP2 SWAP1 SWAP2 MSTORE DUP9 ADD MLOAD PUSH2 0x200 DUP1 DUP10 ADD SWAP2 SWAP1 SWAP2 MSTORE DUP9 ADD MLOAD PUSH2 0x220 DUP1 DUP10 ADD SWAP2 SWAP1 SWAP2 MSTORE DUP9 ADD MLOAD PUSH2 0x240 DUP1 DUP10 ADD SWAP2 SWAP1 SWAP2 MSTORE DUP9 ADD MLOAD SWAP1 SWAP5 POP SWAP2 POP PUSH2 0x260 PUSH2 0x5A1F DUP2 DUP9 ADD DUP5 PUSH1 0xFF AND SWAP1 MSTORE JUMP JUMPDEST DUP8 ADD MLOAD PUSH2 0x280 DUP8 DUP2 ADD SWAP2 SWAP1 SWAP2 MSTORE DUP8 ADD MLOAD PUSH2 0x2A0 DUP1 DUP9 ADD SWAP2 SWAP1 SWAP2 MSTORE DUP8 ADD MLOAD PUSH2 0x2C0 DUP1 DUP9 ADD SWAP2 SWAP1 SWAP2 MSTORE DUP8 ADD MLOAD PUSH2 0x2E0 DUP1 DUP9 ADD SWAP2 SWAP1 SWAP2 MSTORE DUP8 ADD MLOAD PUSH2 0x300 DUP1 DUP9 ADD SWAP2 SWAP1 SWAP2 MSTORE DUP8 ADD MLOAD PUSH2 0x320 DUP1 DUP9 ADD SWAP2 SWAP1 SWAP2 MSTORE DUP8 ADD MLOAD PUSH2 0x340 DUP1 DUP9 ADD SWAP2 SWAP1 SWAP2 MSTORE DUP8 ADD MLOAD PUSH2 0x360 DUP1 DUP9 ADD SWAP2 SWAP1 SWAP2 MSTORE DUP8 ADD MLOAD PUSH2 0x380 DUP1 DUP9 ADD SWAP2 SWAP1 SWAP2 MSTORE DUP8 ADD MLOAD DUP7 DUP6 SUB DUP3 ADD PUSH2 0x3A0 DUP1 DUP10 ADD SWAP2 SWAP1 SWAP2 MSTORE SWAP1 SWAP3 POP PUSH2 0x5AB3 DUP6 DUP5 PUSH2 0x5796 JUMP JUMPDEST SWAP1 DUP9 ADD MLOAD PUSH2 0x3C0 DUP9 DUP2 ADD SWAP2 SWAP1 SWAP2 MSTORE DUP9 ADD MLOAD PUSH2 0x3E0 DUP1 DUP10 ADD SWAP2 SWAP1 SWAP2 MSTORE SWAP1 SWAP8 ADD MLOAD SWAP3 SWAP1 SWAP6 ADD SWAP2 SWAP1 SWAP2 MSTORE POP SWAP3 SWAP4 SWAP3 POP POP POP JUMP JUMPDEST PUSH1 0x20 DUP2 MSTORE DUP2 MLOAD ISZERO ISZERO PUSH1 0x20 DUP3 ADD MSTORE PUSH1 0x0 PUSH1 0x20 DUP4 ADD MLOAD PUSH1 0x40 DUP1 DUP5 ADD MSTORE PUSH2 0x41CA PUSH1 0x60 DUP5 ADD DUP3 PUSH2 0x5796 JUMP JUMPDEST PUSH4 0x4E487B71 PUSH1 0xE0 SHL PUSH1 0x0 MSTORE PUSH1 0x32 PUSH1 0x4 MSTORE PUSH1 0x24 PUSH1 0x0 REVERT JUMPDEST PUSH4 0x4E487B71 PUSH1 0xE0 SHL PUSH1 0x0 MSTORE PUSH1 0x11 PUSH1 0x4 MSTORE PUSH1 0x24 PUSH1 0x0 REVERT JUMPDEST DUP2 DUP2 SUB DUP2 DUP2 GT ISZERO PUSH2 0x2218 JUMPI PUSH2 0x2218 PUSH2 0x5B20 JUMP JUMPDEST PUSH1 0x20 DUP1 DUP3 MSTORE PUSH1 0x11 SWAP1 DUP3 ADD MSTORE PUSH17 0x2CB7BA9030B932903737BA1030B236B4B7 PUSH1 0x79 SHL PUSH1 0x40 DUP3 ADD MSTORE PUSH1 0x60 ADD SWAP1 JUMP JUMPDEST PUSH1 0x0 PUSH1 0xFF DUP3 AND PUSH1 0xFF DUP2 SUB PUSH2 0x5B8A JUMPI PUSH2 0x5B8A PUSH2 0x5B20 JUMP JUMPDEST PUSH1 0x1 ADD SWAP3 SWAP2 POP POP JUMP JUMPDEST PUSH1 0x20 DUP1 DUP3 MSTORE PUSH1 0x2C SWAP1 DUP3 ADD MSTORE PUSH32 0x46756E6374696F6E206D7573742062652063616C6C6564207468726F75676820 PUSH1 0x40 DUP3 ADD MSTORE PUSH12 0x19195B1959D85D1958D85B1B PUSH1 0xA2 SHL PUSH1 0x60 DUP3 ADD MSTORE PUSH1 0x80 ADD SWAP1 JUMP JUMPDEST PUSH1 0x20 DUP1 DUP3 MSTORE PUSH1 0x2C SWAP1 DUP3 ADD MSTORE PUSH32 0x46756E6374696F6E206D7573742062652063616C6C6564207468726F75676820 PUSH1 0x40 DUP3 ADD MSTORE PUSH12 0x6163746976652070726F7879 PUSH1 0xA0 SHL PUSH1 0x60 DUP3 ADD MSTORE PUSH1 0x80 ADD SWAP1 JUMP JUMPDEST PUSH1 0x1 DUP2 DUP2 SHR SWAP1 DUP3 AND DUP1 PUSH2 0x5C3F JUMPI PUSH1 0x7F DUP3 AND SWAP2 POP JUMPDEST PUSH1 0x20 DUP3 LT DUP2 SUB PUSH2 0x5C5F JUMPI PUSH4 0x4E487B71 PUSH1 0xE0 SHL PUSH1 0x0 MSTORE PUSH1 0x22 PUSH1 0x4 MSTORE PUSH1 0x24 PUSH1 0x0 REVERT JUMPDEST POP SWAP2 SWAP1 POP JUMP JUMPDEST PUSH1 0x0 PUSH1 0x20 DUP3 DUP5 SUB SLT ISZERO PUSH2 0x5C77 JUMPI PUSH1 0x0 DUP1 REVERT JUMPDEST DUP2 MLOAD DUP1 ISZERO ISZERO DUP2 EQ PUSH2 0x2206 JUMPI PUSH1 0x0 DUP1 REVERT JUMPDEST DUP1 DUP3 MUL DUP2 ISZERO DUP3 DUP3 DIV DUP5 EQ OR PUSH2 0x2218 JUMPI PUSH2 0x2218 PUSH2 0x5B20 JUMP JUMPDEST PUSH4 0x4E487B71 PUSH1 0xE0 SHL PUSH1 0x0 MSTORE PUSH1 0x31 PUSH1 0x4 MSTORE PUSH1 0x24 PUSH1 0x0 REVERT JUMPDEST PUSH1 0x0 PUSH1 0x1 DUP3 ADD PUSH2 0x5CC6 JUMPI PUSH2 0x5CC6 PUSH2 0x5B20 JUMP JUMPDEST POP PUSH1 0x1 ADD SWAP1 JUMP JUMPDEST PUSH4 0xFFFFFFFF DUP2 DUP2 AND DUP4 DUP3 AND ADD SWAP1 DUP1 DUP3 GT ISZERO PUSH2 0x5CEA JUMPI PUSH2 0x5CEA PUSH2 0x5B20 JUMP JUMPDEST POP SWAP3 SWAP2 POP POP JUMP JUMPDEST PUSH1 0x0 PUSH4 0xFFFFFFFF DUP1 DUP4 AND DUP2 DUP2 SUB PUSH2 0x5D0A JUMPI PUSH2 0x5D0A PUSH2 0x5B20 JUMP JUMPDEST PUSH1 0x1 ADD SWAP4 SWAP3 POP POP POP JUMP JUMPDEST DUP1 DUP3 ADD DUP1 DUP3 GT ISZERO PUSH2 0x2218 JUMPI PUSH2 0x2218 PUSH2 0x5B20 JUMP JUMPDEST PUSH1 0x0 PUSH2 0xFFFF DUP1 DUP4 AND DUP2 DUP2 SUB PUSH2 0x5D0A JUMPI PUSH2 0x5D0A PUSH2 0x5B20 JUMP JUMPDEST PUSH1 0x0 PUSH1 0x20 DUP3 DUP5 SUB SLT ISZERO PUSH2 0x5D50 JUMPI PUSH1 0x0 DUP1 REVERT JUMPDEST POP MLOAD SWAP2 SWAP1 POP JUMP JUMPDEST PUSH1 0x0 DUP3 PUSH2 0x5D74 JUMPI PUSH4 0x4E487B71 PUSH1 0xE0 SHL PUSH1 0x0 MSTORE PUSH1 0x12 PUSH1 0x4 MSTORE PUSH1 0x24 PUSH1 0x0 REVERT JUMPDEST POP DIV SWAP1 JUMP JUMPDEST PUSH1 0x20 DUP1 DUP3 MSTORE PUSH1 0x2B SWAP1 DUP3 ADD MSTORE PUSH32 0x496E697469616C697A61626C653A20636F6E7472616374206973206E6F742069 PUSH1 0x40 DUP3 ADD MSTORE PUSH11 0x6E697469616C697A696E67 PUSH1 0xA8 SHL PUSH1 0x60 DUP3 ADD MSTORE PUSH1 0x80 ADD SWAP1 JUMP JUMPDEST PUSH1 0x0 DUP3 MLOAD PUSH2 0x5DD6 DUP2 DUP5 PUSH1 0x20 DUP8 ADD PUSH2 0x5865 JUMP JUMPDEST SWAP2 SWAP1 SWAP2 ADD SWAP3 SWAP2 POP POP JUMP JUMPDEST PUSH1 0x20 DUP2 MSTORE PUSH1 0x0 PUSH2 0x2206 PUSH1 0x20 DUP4 ADD DUP5 PUSH2 0x5889 JUMP INVALID CALLDATASIZE ADDMOD SWAP5 LOG1 EXTCODESIZE LOG1 LOG3 0x21 MOD PUSH8 0xC828492DB98DCA3E KECCAK256 PUSH23 0xCC3735A920A3CA505D382BBC416464726573733A206C6F PUSH24 0x2D6C6576656C2064656C65676174652063616C6C20666169 PUSH13 0x6564A264697066735822122026 0xF7 PUSH4 0xA8E3CD63 JUMPDEST SWAP15 0xD4 0xD4 0x2D 0xD9 SWAP8 EXP SWAP4 0xC PUSH7 0xA89D63F95A0FE0 RETURN 0xFB SWAP7 CREATE 0x2B 0xDD SWAP3 PUSH5 0x736F6C6343 STOP ADDMOD GT STOP CALLER "},"methodIdentifiers":{"_disabledUsersList(uint256)":"1f7f83ba","activateID(uint32)":"e5682e38","admins(uint256)":"14bfd6d0","claimBalance(uint32,uint256)":"f31a2d0f","claimROI(uint32)":"770ceeb1","companyTurnoverTimeLimit()":"f41bfeef","companyTurnoverTimeStamp()":"2ed421d2","companyTurnoverWithTimeLimit()":"22f88b52","decimals()":"313ce567","disableUserAdmin(address)":"9f4e8398","getIDAccount(uint32)":"f830e57b","getIDRewardPaid(uint32)":"f229b4d5","getIDRoyaltyClubLevel(uint32)":"76a68e84","getIDTeam(uint32)":"a0506aed","getIDTotalBusiness(uint32)":"347976c4","getMinContributionETH()":"1f9e65e4","getPriceOracleContract()":"2913497b","getROIAccount(uint32)":"c3ab5ebf","getUserAccount(address)":"fb47e016","getUserIDTotalROI(uint32)":"bf46de63","getUserTotalActiveROIValue(uint32)":"ea62f715","getUserUnlockCount(uint32)":"b47181d3","initialize()":"8129fc1c","isPayROI()":"af2f39d1","isPayRoyaltyClubBonus()":"fafc9597","isUserDisabledByAdmin(address)":"538ffe0c","levelRates(uint256)":"7879b5ef","maxLevelsCount()":"8df05d9c","minContributionIn()":"1c961c05","minContributionInUSD()":"96ed6b85","owner()":"8da5cb5b","packagesCount()":"18e10bff","proxiableUUID()":"52d1902d","removeUserFromDisableList(address)":"e52356f3","renounceOwnership()":"715018a6","royaltyClubPackageCount()":"a28a3686","sendETHAdmin(address,uint256)":"0b243dad","setAdmin(address)":"704b6c02","setMinContribution(uint256)":"473b0d46","setPriceOracleContract(address)":"0efdbb6a","setROI(uint16,uint256,uint256)":"c82801ca","setROIIDCount(uint32)":"d895af2c","totalIDs()":"5e701d86","totalROIIDs()":"a1b80175","totalROIPaid()":"30abbcc5","totalReferralPaid()":"7c599486","totalRoyaltyClubBonusPaid()":"852ff2fd","totalRoyaltyClubBonusPaidETH()":"09de82cd","totalUsers()":"bff1f9e1","transferOwnership(address)":"f2fde38b","updateTotalIDs(uint32)":"70d9e081","upgradeTo(address)":"3659cfe6","upgradeToAndCall(address,bytes)":"4f1ef286","withdrawETHAdmin()":"35759788","withdrawTokensAdmin(address,uint256)":"a0b6105f"}},"storageLayout":{"storage":[{"astId":527,"contract":"contracts/ReferralV3Upgradeable.sol:ReferralV3Upgradeable","label":"_initialized","offset":0,"slot":"0","type":"t_uint8"},{"astId":530,"contract":"contracts/ReferralV3Upgradeable.sol:ReferralV3Upgradeable","label":"_initializing","offset":1,"slot":"0","type":"t_bool"},{"astId":1228,"contract":"contracts/ReferralV3Upgradeable.sol:ReferralV3Upgradeable","label":"__gap","offset":0,"slot":"1","type":"t_array(t_uint256)50_storage"},{"astId":10,"contract":"contracts/ReferralV3Upgradeable.sol:ReferralV3Upgradeable","label":"_owner","offset":0,"slot":"51","type":"t_address"},{"astId":130,"contract":"contracts/ReferralV3Upgradeable.sol:ReferralV3Upgradeable","label":"__gap","offset":0,"slot":"52","type":"t_array(t_uint256)49_storage"},{"astId":509,"contract":"contracts/ReferralV3Upgradeable.sol:ReferralV3Upgradeable","label":"__gap","offset":0,"slot":"101","type":"t_array(t_uint256)50_storage"},{"astId":824,"contract":"contracts/ReferralV3Upgradeable.sol:ReferralV3Upgradeable","label":"__gap","offset":0,"slot":"151","type":"t_array(t_uint256)50_storage"},{"astId":1317,"contract":"contracts/ReferralV3Upgradeable.sol:ReferralV3Upgradeable","label":"_priceOracleContract","offset":0,"slot":"201","type":"t_address"},{"astId":1320,"contract":"contracts/ReferralV3Upgradeable.sol:ReferralV3Upgradeable","label":"levelRates","offset":0,"slot":"202","type":"t_array(t_uint16)dyn_storage"},{"astId":1322,"contract":"contracts/ReferralV3Upgradeable.sol:ReferralV3Upgradeable","label":"decimals","offset":0,"slot":"203","type":"t_uint16"},{"astId":1324,"contract":"contracts/ReferralV3Upgradeable.sol:ReferralV3Upgradeable","label":"maxLevelsCount","offset":2,"slot":"203","type":"t_uint8"},{"astId":1326,"contract":"contracts/ReferralV3Upgradeable.sol:ReferralV3Upgradeable","label":"minContributionIn","offset":0,"slot":"204","type":"t_uint256"},{"astId":1328,"contract":"contracts/ReferralV3Upgradeable.sol:ReferralV3Upgradeable","label":"totalRoyaltyClubBonusPaid","offset":0,"slot":"205","type":"t_uint256"},{"astId":1330,"contract":"contracts/ReferralV3Upgradeable.sol:ReferralV3Upgradeable","label":"totalRoyaltyClubBonusPaidETH","offset":0,"slot":"206","type":"t_uint256"},{"astId":1332,"contract":"contracts/ReferralV3Upgradeable.sol:ReferralV3Upgradeable","label":"totalReferralPaid","offset":0,"slot":"207","type":"t_uint256"},{"astId":1334,"contract":"contracts/ReferralV3Upgradeable.sol:ReferralV3Upgradeable","label":"totalROIPaid","offset":0,"slot":"208","type":"t_uint256"},{"astId":1336,"contract":"contracts/ReferralV3Upgradeable.sol:ReferralV3Upgradeable","label":"totalUsers","offset":0,"slot":"209","type":"t_uint32"},{"astId":1338,"contract":"contracts/ReferralV3Upgradeable.sol:ReferralV3Upgradeable","label":"totalIDs","offset":4,"slot":"209","type":"t_uint32"},{"astId":1340,"contract":"contracts/ReferralV3Upgradeable.sol:ReferralV3Upgradeable","label":"totalROIIDs","offset":8,"slot":"209","type":"t_uint32"},{"astId":1342,"contract":"contracts/ReferralV3Upgradeable.sol:ReferralV3Upgradeable","label":"_roiRate","offset":12,"slot":"209","type":"t_uint16"},{"astId":1344,"contract":"contracts/ReferralV3Upgradeable.sol:ReferralV3Upgradeable","label":"_roiDuration","offset":0,"slot":"210","type":"t_uint256"},{"astId":1346,"contract":"contracts/ReferralV3Upgradeable.sol:ReferralV3Upgradeable","label":"_roiClaimTimelimit","offset":0,"slot":"211","type":"t_uint256"},{"astId":1348,"contract":"contracts/ReferralV3Upgradeable.sol:ReferralV3Upgradeable","label":"isPayROI","offset":0,"slot":"212","type":"t_bool"},{"astId":1350,"contract":"contracts/ReferralV3Upgradeable.sol:ReferralV3Upgradeable","label":"isPayRoyaltyClubBonus","offset":1,"slot":"212","type":"t_bool"},{"astId":1352,"contract":"contracts/ReferralV3Upgradeable.sol:ReferralV3Upgradeable","label":"royaltyClubPackageCount","offset":2,"slot":"212","type":"t_uint8"},{"astId":1354,"contract":"contracts/ReferralV3Upgradeable.sol:ReferralV3Upgradeable","label":"_userLevelUnlockMultiplier","offset":3,"slot":"212","type":"t_uint8"},{"astId":1356,"contract":"contracts/ReferralV3Upgradeable.sol:ReferralV3Upgradeable","label":"companyTurnoverWithTimeLimit","offset":0,"slot":"213","type":"t_uint256"},{"astId":1358,"contract":"contracts/ReferralV3Upgradeable.sol:ReferralV3Upgradeable","label":"companyTurnoverTimeStamp","offset":0,"slot":"214","type":"t_uint256"},{"astId":1360,"contract":"contracts/ReferralV3Upgradeable.sol:ReferralV3Upgradeable","label":"companyTurnoverTimeLimit","offset":0,"slot":"215","type":"t_uint256"},{"astId":1363,"contract":"contracts/ReferralV3Upgradeable.sol:ReferralV3Upgradeable","label":"_disabledUsersList","offset":0,"slot":"216","type":"t_array(t_address)dyn_storage"},{"astId":1477,"contract":"contracts/ReferralV3Upgradeable.sol:ReferralV3Upgradeable","label":"packagesCount","offset":0,"slot":"217","type":"t_uint8"},{"astId":1482,"contract":"contracts/ReferralV3Upgradeable.sol:ReferralV3Upgradeable","label":"accounts","offset":0,"slot":"218","type":"t_mapping(t_address,t_struct(StructAccount)1369_storage)"},{"astId":1487,"contract":"contracts/ReferralV3Upgradeable.sol:ReferralV3Upgradeable","label":"ids","offset":0,"slot":"219","type":"t_mapping(t_uint32,t_struct(StructID)1438_storage)"},{"astId":1492,"contract":"contracts/ReferralV3Upgradeable.sol:ReferralV3Upgradeable","label":"rois","offset":0,"slot":"220","type":"t_mapping(t_uint32,t_struct(StructROI)1451_storage)"},{"astId":1497,"contract":"contracts/ReferralV3Upgradeable.sol:ReferralV3Upgradeable","label":"packages","offset":0,"slot":"221","type":"t_mapping(t_uint8,t_struct(StructPackages)1475_storage)"},{"astId":1679,"contract":"contracts/ReferralV3Upgradeable.sol:ReferralV3Upgradeable","label":"admins","offset":0,"slot":"222","type":"t_array(t_address)dyn_storage"},{"astId":1681,"contract":"contracts/ReferralV3Upgradeable.sol:ReferralV3Upgradeable","label":"minContributionInUSD","offset":0,"slot":"223","type":"t_uint256"}],"types":{"t_address":{"encoding":"inplace","label":"address","numberOfBytes":"20"},"t_array(t_address)dyn_storage":{"base":"t_address","encoding":"dynamic_array","label":"address[]","numberOfBytes":"32"},"t_array(t_uint16)dyn_storage":{"base":"t_uint16","encoding":"dynamic_array","label":"uint16[]","numberOfBytes":"32"},"t_array(t_uint256)49_storage":{"base":"t_uint256","encoding":"inplace","label":"uint256[49]","numberOfBytes":"1568"},"t_array(t_uint256)50_storage":{"base":"t_uint256","encoding":"inplace","label":"uint256[50]","numberOfBytes":"1600"},"t_array(t_uint32)dyn_storage":{"base":"t_uint32","encoding":"dynamic_array","label":"uint32[]","numberOfBytes":"32"},"t_bool":{"encoding":"inplace","label":"bool","numberOfBytes":"1"},"t_mapping(t_address,t_struct(StructAccount)1369_storage)":{"encoding":"mapping","key":"t_address","label":"mapping(address => struct ReferralV3Upgradeable.StructAccount)","numberOfBytes":"32","value":"t_struct(StructAccount)1369_storage"},"t_mapping(t_uint32,t_struct(StructID)1438_storage)":{"encoding":"mapping","key":"t_uint32","label":"mapping(uint32 => struct ReferralV3Upgradeable.StructID)","numberOfBytes":"32","value":"t_struct(StructID)1438_storage"},"t_mapping(t_uint32,t_struct(StructROI)1451_storage)":{"encoding":"mapping","key":"t_uint32","label":"mapping(uint32 => struct ReferralV3Upgradeable.StructROI)","numberOfBytes":"32","value":"t_struct(StructROI)1451_storage"},"t_mapping(t_uint8,t_struct(StructPackages)1475_storage)":{"encoding":"mapping","key":"t_uint8","label":"mapping(uint8 => struct ReferralV3Upgradeable.StructPackages)","numberOfBytes":"32","value":"t_struct(StructPackages)1475_storage"},"t_string_storage":{"encoding":"bytes","label":"string","numberOfBytes":"32"},"t_struct(StructAccount)1369_storage":{"encoding":"inplace","label":"struct ReferralV3Upgradeable.StructAccount","members":[{"astId":1365,"contract":"contracts/ReferralV3Upgradeable.sol:ReferralV3Upgradeable","label":"isDisabled","offset":0,"slot":"0","type":"t_bool"},{"astId":1368,"contract":"contracts/ReferralV3Upgradeable.sol:ReferralV3Upgradeable","label":"accountIDs","offset":0,"slot":"1","type":"t_array(t_uint32)dyn_storage"}],"numberOfBytes":"64"},"t_struct(StructID)1438_storage":{"encoding":"inplace","label":"struct ReferralV3Upgradeable.StructID","members":[{"astId":1371,"contract":"contracts/ReferralV3Upgradeable.sol:ReferralV3Upgradeable","label":"id","offset":0,"slot":"0","type":"t_uint32"},{"astId":1373,"contract":"contracts/ReferralV3Upgradeable.sol:ReferralV3Upgradeable","label":"oldID","offset":0,"slot":"1","type":"t_string_storage"},{"astId":1375,"contract":"contracts/ReferralV3Upgradeable.sol:ReferralV3Upgradeable","label":"isActive","offset":0,"slot":"2","type":"t_bool"},{"astId":1377,"contract":"contracts/ReferralV3Upgradeable.sol:ReferralV3Upgradeable","label":"owner","offset":1,"slot":"2","type":"t_address"},{"astId":1379,"contract":"contracts/ReferralV3Upgradeable.sol:ReferralV3Upgradeable","label":"joiningTime","offset":0,"slot":"3","type":"t_uint256"},{"astId":1381,"contract":"contracts/ReferralV3Upgradeable.sol:ReferralV3Upgradeable","label":"deactivateTime","offset":0,"slot":"4","type":"t_uint256"},{"astId":1383,"contract":"contracts/ReferralV3Upgradeable.sol:ReferralV3Upgradeable","label":"refererID","offset":0,"slot":"5","type":"t_uint32"},{"astId":1386,"contract":"contracts/ReferralV3Upgradeable.sol:ReferralV3Upgradeable","label":"refereeIDs","offset":0,"slot":"6","type":"t_array(t_uint32)dyn_storage"},{"astId":1389,"contract":"contracts/ReferralV3Upgradeable.sol:ReferralV3Upgradeable","label":"teamIDs","offset":0,"slot":"7","type":"t_array(t_uint32)dyn_storage"},{"astId":1392,"contract":"contracts/ReferralV3Upgradeable.sol:ReferralV3Upgradeable","label":"teamLevel","offset":0,"slot":"8","type":"t_array(t_uint32)dyn_storage"},{"astId":1394,"contract":"contracts/ReferralV3Upgradeable.sol:ReferralV3Upgradeable","label":"selfBusiness","offset":0,"slot":"9","type":"t_uint256"},{"astId":1396,"contract":"contracts/ReferralV3Upgradeable.sol:ReferralV3Upgradeable","label":"selfBusinessOld","offset":0,"slot":"10","type":"t_uint256"},{"astId":1398,"contract":"contracts/ReferralV3Upgradeable.sol:ReferralV3Upgradeable","label":"directBusiness","offset":0,"slot":"11","type":"t_uint256"},{"astId":1400,"contract":"contracts/ReferralV3Upgradeable.sol:ReferralV3Upgradeable","label":"directBusinessOld","offset":0,"slot":"12","type":"t_uint256"},{"astId":1402,"contract":"contracts/ReferralV3Upgradeable.sol:ReferralV3Upgradeable","label":"teamBusiness","offset":0,"slot":"13","type":"t_uint256"},{"astId":1404,"contract":"contracts/ReferralV3Upgradeable.sol:ReferralV3Upgradeable","label":"teamBusinessOld","offset":0,"slot":"14","type":"t_uint256"},{"astId":1406,"contract":"contracts/ReferralV3Upgradeable.sol:ReferralV3Upgradeable","label":"royaltyClubBusiness","offset":0,"slot":"15","type":"t_uint256"},{"astId":1408,"contract":"contracts/ReferralV3Upgradeable.sol:ReferralV3Upgradeable","label":"timeStampRoyaltyClub","offset":0,"slot":"16","type":"t_uint256"},{"astId":1410,"contract":"contracts/ReferralV3Upgradeable.sol:ReferralV3Upgradeable","label":"royaltyClubPackageID","offset":0,"slot":"17","type":"t_uint8"},{"astId":1412,"contract":"contracts/ReferralV3Upgradeable.sol:ReferralV3Upgradeable","label":"royaltyClubListIndex","offset":0,"slot":"18","type":"t_uint256"},{"astId":1414,"contract":"contracts/ReferralV3Upgradeable.sol:ReferralV3Upgradeable","label":"referralPaid","offset":0,"slot":"19","type":"t_uint256"},{"astId":1416,"contract":"contracts/ReferralV3Upgradeable.sol:ReferralV3Upgradeable","label":"rewardPaidRoyaltyClub","offset":0,"slot":"20","type":"t_uint256"},{"astId":1418,"contract":"contracts/ReferralV3Upgradeable.sol:ReferralV3Upgradeable","label":"totalTopUp","offset":0,"slot":"21","type":"t_uint256"},{"astId":1420,"contract":"contracts/ReferralV3Upgradeable.sol:ReferralV3Upgradeable","label":"totalIncome","offset":0,"slot":"22","type":"t_uint256"},{"astId":1422,"contract":"contracts/ReferralV3Upgradeable.sol:ReferralV3Upgradeable","label":"totalMaxLimitAmount","offset":0,"slot":"23","type":"t_uint256"},{"astId":1424,"contract":"contracts/ReferralV3Upgradeable.sol:ReferralV3Upgradeable","label":"currentTopUp","offset":0,"slot":"24","type":"t_uint256"},{"astId":1426,"contract":"contracts/ReferralV3Upgradeable.sol:ReferralV3Upgradeable","label":"currentTopUpTime","offset":0,"slot":"25","type":"t_uint256"},{"astId":1428,"contract":"contracts/ReferralV3Upgradeable.sol:ReferralV3Upgradeable","label":"totalROIClaimed","offset":0,"slot":"26","type":"t_uint256"},{"astId":1431,"contract":"contracts/ReferralV3Upgradeable.sol:ReferralV3Upgradeable","label":"roiIDs","offset":0,"slot":"27","type":"t_array(t_uint32)dyn_storage"},{"astId":1433,"contract":"contracts/ReferralV3Upgradeable.sol:ReferralV3Upgradeable","label":"roiClaimed","offset":0,"slot":"28","type":"t_uint256"},{"astId":1435,"contract":"contracts/ReferralV3Upgradeable.sol:ReferralV3Upgradeable","label":"roiClaimedTimestamp","offset":0,"slot":"29","type":"t_uint256"},{"astId":1437,"contract":"contracts/ReferralV3Upgradeable.sol:ReferralV3Upgradeable","label":"balanceClaimed","offset":0,"slot":"30","type":"t_uint256"}],"numberOfBytes":"992"},"t_struct(StructPackages)1475_storage":{"encoding":"inplace","label":"struct ReferralV3Upgradeable.StructPackages","members":[{"astId":1453,"contract":"contracts/ReferralV3Upgradeable.sol:ReferralV3Upgradeable","label":"packageID","offset":0,"slot":"0","type":"t_uint8"},{"astId":1455,"contract":"contracts/ReferralV3Upgradeable.sol:ReferralV3Upgradeable","label":"selfBusiness","offset":0,"slot":"1","type":"t_uint256"},{"astId":1457,"contract":"contracts/ReferralV3Upgradeable.sol:ReferralV3Upgradeable","label":"directBusiness","offset":0,"slot":"2","type":"t_uint256"},{"astId":1459,"contract":"contracts/ReferralV3Upgradeable.sol:ReferralV3Upgradeable","label":"teamBusiness","offset":0,"slot":"3","type":"t_uint256"},{"astId":1461,"contract":"contracts/ReferralV3Upgradeable.sol:ReferralV3Upgradeable","label":"rankName","offset":0,"slot":"4","type":"t_string_storage"},{"astId":1463,"contract":"contracts/ReferralV3Upgradeable.sol:ReferralV3Upgradeable","label":"reward","offset":0,"slot":"5","type":"t_uint256"},{"astId":1465,"contract":"contracts/ReferralV3Upgradeable.sol:ReferralV3Upgradeable","label":"businessLimit","offset":0,"slot":"6","type":"t_uint256"},{"astId":1467,"contract":"contracts/ReferralV3Upgradeable.sol:ReferralV3Upgradeable","label":"timeLimit","offset":0,"slot":"7","type":"t_uint256"},{"astId":1469,"contract":"contracts/ReferralV3Upgradeable.sol:ReferralV3Upgradeable","label":"isOneTimeRewardPaid","offset":0,"slot":"8","type":"t_bool"},{"astId":1471,"contract":"contracts/ReferralV3Upgradeable.sol:ReferralV3Upgradeable","label":"isPayReccursive","offset":1,"slot":"8","type":"t_bool"},{"astId":1474,"contract":"contracts/ReferralV3Upgradeable.sol:ReferralV3Upgradeable","label":"achieversList","offset":0,"slot":"9","type":"t_array(t_uint32)dyn_storage"}],"numberOfBytes":"320"},"t_struct(StructROI)1451_storage":{"encoding":"inplace","label":"struct ReferralV3Upgradeable.StructROI","members":[{"astId":1440,"contract":"contracts/ReferralV3Upgradeable.sol:ReferralV3Upgradeable","label":"id","offset":0,"slot":"0","type":"t_uint32"},{"astId":1442,"contract":"contracts/ReferralV3Upgradeable.sol:ReferralV3Upgradeable","label":"isActive","offset":4,"slot":"0","type":"t_bool"},{"astId":1444,"contract":"contracts/ReferralV3Upgradeable.sol:ReferralV3Upgradeable","label":"ownerID","offset":5,"slot":"0","type":"t_uint32"},{"astId":1446,"contract":"contracts/ReferralV3Upgradeable.sol:ReferralV3Upgradeable","label":"value","offset":0,"slot":"1","type":"t_uint256"},{"astId":1448,"contract":"contracts/ReferralV3Upgradeable.sol:ReferralV3Upgradeable","label":"roiRate","offset":0,"slot":"2","type":"t_uint16"},{"astId":1450,"contract":"contracts/ReferralV3Upgradeable.sol:ReferralV3Upgradeable","label":"startTime","offset":0,"slot":"3","type":"t_uint256"}],"numberOfBytes":"128"},"t_uint16":{"encoding":"inplace","label":"uint16","numberOfBytes":"2"},"t_uint256":{"encoding":"inplace","label":"uint256","numberOfBytes":"32"},"t_uint32":{"encoding":"inplace","label":"uint32","numberOfBytes":"4"},"t_uint8":{"encoding":"inplace","label":"uint8","numberOfBytes":"1"}}}}}}