{"contracts/ReferralV2Upgradeable.sol":{"ReferralV2Upgradeable":{"abi":[{"anonymous":false,"inputs":[{"indexed":false,"internalType":"address","name":"ownerAddress","type":"address"},{"indexed":false,"internalType":"uint256","name":"id","type":"uint256"},{"indexed":false,"internalType":"uint256","name":"idIndex","type":"uint256"}],"name":"AccountInfoIDAttached","type":"event"},{"anonymous":false,"inputs":[{"indexed":false,"internalType":"uint256","name":"userID","type":"uint256"},{"indexed":false,"internalType":"uint256","name":"index","type":"uint256"},{"indexed":false,"internalType":"uint256","name":"rank","type":"uint256"}],"name":"AddedInRoyaltyClubList","type":"event"},{"anonymous":false,"inputs":[{"indexed":false,"internalType":"address","name":"previousAdmin","type":"address"},{"indexed":false,"internalType":"address","name":"newAdmin","type":"address"}],"name":"AdminChanged","type":"event"},{"anonymous":false,"inputs":[{"indexed":true,"internalType":"address","name":"beacon","type":"address"}],"name":"BeaconUpgraded","type":"event"},{"anonymous":false,"inputs":[{"indexed":false,"internalType":"uint256","name":"id","type":"uint256"},{"indexed":false,"internalType":"string","name":"reason","type":"string"}],"name":"IDDeactivated","type":"event"},{"anonymous":false,"inputs":[{"indexed":false,"internalType":"uint8","name":"version","type":"uint8"}],"name":"Initialized","type":"event"},{"anonymous":false,"inputs":[{"indexed":true,"internalType":"address","name":"previousOwner","type":"address"},{"indexed":true,"internalType":"address","name":"newOwner","type":"address"}],"name":"OwnershipTransferred","type":"event"},{"anonymous":false,"inputs":[{"indexed":false,"internalType":"uint256","name":"packageID","type":"uint256"}],"name":"PackageAdded","type":"event"},{"anonymous":false,"inputs":[{"indexed":false,"internalType":"uint256","name":"packageID","type":"uint256"}],"name":"PackageRemoved","type":"event"},{"anonymous":false,"inputs":[{"indexed":false,"internalType":"uint256","name":"packageID","type":"uint256"}],"name":"PackageUpdated","type":"event"},{"anonymous":false,"inputs":[{"indexed":true,"internalType":"uint256","name":"userID","type":"uint256"},{"indexed":true,"internalType":"uint256","name":"reward","type":"uint256"}],"name":"ROIClaimed","type":"event"},{"anonymous":false,"inputs":[{"indexed":true,"internalType":"uint256","name":"refererID","type":"uint256"},{"indexed":true,"internalType":"uint256","name":"level","type":"uint256"},{"indexed":true,"internalType":"string","name":"reason","type":"string"}],"name":"ReferralNotPaid","type":"event"},{"anonymous":false,"inputs":[{"indexed":true,"internalType":"uint256","name":"refereeID","type":"uint256"},{"indexed":true,"internalType":"uint256","name":"referrerID","type":"uint256"},{"indexed":true,"internalType":"uint256","name":"amount","type":"uint256"},{"indexed":false,"internalType":"uint256","name":"level","type":"uint256"}],"name":"ReferralRewardPaid","type":"event"},{"anonymous":false,"inputs":[{"indexed":true,"internalType":"address","name":"refereeID","type":"address"},{"indexed":true,"internalType":"address","name":"referrerID","type":"address"},{"indexed":true,"internalType":"string","name":"reason","type":"string"}],"name":"RegisterRefererFailed","type":"event"},{"anonymous":false,"inputs":[{"indexed":true,"internalType":"uint256","name":"id","type":"uint256"},{"indexed":true,"internalType":"uint256","name":"refererID","type":"uint256"}],"name":"RegisteredReferer","type":"event"},{"anonymous":false,"inputs":[{"indexed":true,"internalType":"address","name":"parent","type":"address"},{"indexed":false,"internalType":"uint256","name":"parentAccountID","type":"uint256"},{"indexed":true,"internalType":"uint256","name":"referrerID","type":"uint256"},{"indexed":true,"internalType":"uint256","name":"refereeID","type":"uint256"}],"name":"RegisteredTeamAddress","type":"event"},{"anonymous":false,"inputs":[{"indexed":false,"internalType":"uint256","name":"packageID","type":"uint256"},{"indexed":true,"internalType":"uint256","name":"userID","type":"uint256"},{"indexed":true,"internalType":"uint256","name":"amount","type":"uint256"}],"name":"RoyaltyClubBonusPaid","type":"event"},{"anonymous":false,"inputs":[{"indexed":true,"internalType":"address","name":"implementation","type":"address"}],"name":"Upgraded","type":"event"},{"inputs":[{"internalType":"uint256","name":"","type":"uint256"}],"name":"_disabledUsersList","outputs":[{"internalType":"address","name":"","type":"address"}],"stateMutability":"view","type":"function"},{"inputs":[{"internalType":"uint32","name":"_refererID","type":"uint32"}],"name":"activateID","outputs":[],"stateMutability":"payable","type":"function"},{"inputs":[{"internalType":"uint32[]","name":"_userID","type":"uint32[]"}],"name":"addTeamAddress","outputs":[],"stateMutability":"nonpayable","type":"function"},{"inputs":[{"internalType":"uint256","name":"","type":"uint256"}],"name":"admins","outputs":[{"internalType":"address","name":"","type":"address"}],"stateMutability":"view","type":"function"},{"inputs":[{"internalType":"uint32","name":"_id","type":"uint32"},{"internalType":"uint256","name":"_valueInUSD","type":"uint256"}],"name":"claimBalance","outputs":[],"stateMutability":"nonpayable","type":"function"},{"inputs":[],"name":"companyTurnoverTimeLimit","outputs":[{"internalType":"uint256","name":"","type":"uint256"}],"stateMutability":"view","type":"function"},{"inputs":[],"name":"companyTurnoverTimeStamp","outputs":[{"internalType":"uint256","name":"","type":"uint256"}],"stateMutability":"view","type":"function"},{"inputs":[],"name":"companyTurnoverWithTimeLimit","outputs":[{"internalType":"uint256","name":"","type":"uint256"}],"stateMutability":"view","type":"function"},{"inputs":[],"name":"decimals","outputs":[{"internalType":"uint16","name":"","type":"uint16"}],"stateMutability":"view","type":"function"},{"inputs":[{"internalType":"address","name":"_userAddress","type":"address"}],"name":"disableUserAdmin","outputs":[],"stateMutability":"nonpayable","type":"function"},{"inputs":[{"internalType":"uint32","name":"_id","type":"uint32"}],"name":"getIDAccount","outputs":[{"components":[{"internalType":"uint32","name":"id","type":"uint32"},{"internalType":"string","name":"oldID","type":"string"},{"internalType":"bool","name":"isDisabled","type":"bool"},{"internalType":"address","name":"owner","type":"address"},{"internalType":"uint256","name":"joiningTime","type":"uint256"},{"internalType":"uint256","name":"activationTime","type":"uint256"},{"internalType":"uint256","name":"deactivateTime","type":"uint256"},{"internalType":"uint32[]","name":"roiIDs","type":"uint32[]"},{"internalType":"uint32","name":"refererID","type":"uint32"},{"internalType":"uint32[]","name":"refereeIDs","type":"uint32[]"},{"internalType":"uint32[]","name":"teamIDs","type":"uint32[]"},{"internalType":"uint32[]","name":"teamLevel","type":"uint32[]"},{"internalType":"uint256","name":"selfBusinessUSD","type":"uint256"},{"internalType":"uint256","name":"selfBusinessUSDOld","type":"uint256"},{"internalType":"uint256","name":"directBusinessUSD","type":"uint256"},{"internalType":"uint256","name":"directBusinessUSDOld","type":"uint256"},{"internalType":"uint256","name":"teamBusinessUSD","type":"uint256"},{"internalType":"uint256","name":"teamBusinessUSDOld","type":"uint256"},{"internalType":"uint256","name":"royaltyClubBusinessUSD","type":"uint256"},{"internalType":"uint256","name":"timeStampRoyaltyClub","type":"uint256"},{"internalType":"uint8","name":"royaltyClubPackageID","type":"uint8"},{"internalType":"uint256","name":"royaltyClubListIndex","type":"uint256"},{"internalType":"uint256","name":"referralPaidUSD","type":"uint256"},{"internalType":"uint256","name":"rewardPaidRoyaltyClubUSD","type":"uint256"},{"internalType":"uint256","name":"topUpUSD","type":"uint256"},{"internalType":"uint256","name":"balanceClaimedUSD","type":"uint256"},{"internalType":"uint256","name":"limitBalanceUSD","type":"uint256"},{"internalType":"uint256","name":"maxLimitAmount","type":"uint256"},{"internalType":"uint256","name":"totalROIClaimedUSD","type":"uint256"},{"internalType":"uint256","name":"roiClaimedUSD","type":"uint256"},{"internalType":"uint256","name":"roiClaimTimestamp","type":"uint256"}],"internalType":"struct ReferralV2Upgradeable.StructID","name":"","type":"tuple"}],"stateMutability":"view","type":"function"},{"inputs":[{"internalType":"uint32","name":"_id","type":"uint32"}],"name":"getIDRoyaltyClubLevel","outputs":[{"internalType":"uint256","name":"","type":"uint256"}],"stateMutability":"view","type":"function"},{"inputs":[],"name":"getPriceOracleContract","outputs":[{"internalType":"address","name":"","type":"address"}],"stateMutability":"view","type":"function"},{"inputs":[{"internalType":"uint32","name":"_roiID","type":"uint32"}],"name":"getROIAccount","outputs":[{"components":[{"internalType":"bool","name":"isActive","type":"bool"},{"internalType":"uint32","name":"ownerID","type":"uint32"},{"internalType":"uint256","name":"valueInUSD","type":"uint256"},{"internalType":"uint16","name":"roiRate","type":"uint16"},{"internalType":"uint256","name":"startTime","type":"uint256"},{"internalType":"uint256","name":"duration","type":"uint256"}],"internalType":"struct ReferralV2Upgradeable.StructROI","name":"","type":"tuple"}],"stateMutability":"view","type":"function"},{"inputs":[{"internalType":"address","name":"_address","type":"address"}],"name":"getUserAccount","outputs":[{"components":[{"internalType":"bool","name":"isDisabled","type":"bool"},{"internalType":"uint32[]","name":"accountIDs","type":"uint32[]"}],"internalType":"struct ReferralV2Upgradeable.StructAccount","name":"","type":"tuple"}],"stateMutability":"view","type":"function"},{"inputs":[{"internalType":"uint32","name":"_id","type":"uint32"}],"name":"getUserIDTotalROI","outputs":[{"internalType":"uint256","name":"roi","type":"uint256"}],"stateMutability":"view","type":"function"},{"inputs":[{"internalType":"uint32","name":"_id","type":"uint32"}],"name":"getUserTotalActiveROIValue","outputs":[{"internalType":"uint256","name":"","type":"uint256"}],"stateMutability":"view","type":"function"},{"inputs":[{"internalType":"uint32","name":"_id","type":"uint32"}],"name":"getUserUnlockCount","outputs":[{"internalType":"uint256","name":"","type":"uint256"}],"stateMutability":"view","type":"function"},{"inputs":[],"name":"initialize","outputs":[],"stateMutability":"nonpayable","type":"function"},{"inputs":[],"name":"isPayROI","outputs":[{"internalType":"bool","name":"","type":"bool"}],"stateMutability":"view","type":"function"},{"inputs":[],"name":"isPayRoyaltyClubBonus","outputs":[{"internalType":"bool","name":"","type":"bool"}],"stateMutability":"view","type":"function"},{"inputs":[{"internalType":"address","name":"_userAddress","type":"address"}],"name":"isUserDisabledByAdmin","outputs":[{"internalType":"bool","name":"","type":"bool"}],"stateMutability":"view","type":"function"},{"inputs":[{"internalType":"uint256","name":"","type":"uint256"}],"name":"levelRates","outputs":[{"internalType":"uint16","name":"","type":"uint16"}],"stateMutability":"view","type":"function"},{"inputs":[],"name":"maxLevelsCount","outputs":[{"internalType":"uint8","name":"","type":"uint8"}],"stateMutability":"view","type":"function"},{"inputs":[],"name":"minContributionInUSD","outputs":[{"internalType":"uint256","name":"","type":"uint256"}],"stateMutability":"view","type":"function"},{"inputs":[],"name":"owner","outputs":[{"internalType":"address","name":"","type":"address"}],"stateMutability":"view","type":"function"},{"inputs":[],"name":"packagesCount","outputs":[{"internalType":"uint8","name":"","type":"uint8"}],"stateMutability":"view","type":"function"},{"inputs":[],"name":"proxiableUUID","outputs":[{"internalType":"bytes32","name":"","type":"bytes32"}],"stateMutability":"view","type":"function"},{"inputs":[{"internalType":"uint32[]","name":"_userID","type":"uint32[]"}],"name":"removeRefereeArray","outputs":[],"stateMutability":"nonpayable","type":"function"},{"inputs":[{"internalType":"address","name":"_userAddress","type":"address"}],"name":"removeUserFromDisableList","outputs":[],"stateMutability":"nonpayable","type":"function"},{"inputs":[],"name":"renounceOwnership","outputs":[],"stateMutability":"nonpayable","type":"function"},{"inputs":[],"name":"royaltyClubPackageCount","outputs":[{"internalType":"uint8","name":"","type":"uint8"}],"stateMutability":"view","type":"function"},{"inputs":[{"internalType":"address","name":"_address","type":"address"},{"internalType":"uint256","name":"_value","type":"uint256"}],"name":"sendETHAdmin","outputs":[],"stateMutability":"nonpayable","type":"function"},{"inputs":[{"internalType":"address","name":"_adminAddress","type":"address"}],"name":"setAdmin","outputs":[],"stateMutability":"nonpayable","type":"function"},{"inputs":[{"internalType":"uint256","name":"_valueInWei","type":"uint256"}],"name":"setMinContribution","outputs":[],"stateMutability":"nonpayable","type":"function"},{"inputs":[{"internalType":"address","name":"_contractAddress","type":"address"}],"name":"setPriceOracleContract","outputs":[],"stateMutability":"nonpayable","type":"function"},{"inputs":[{"internalType":"uint32","name":"_id","type":"uint32"}],"name":"topUpID","outputs":[],"stateMutability":"payable","type":"function"},{"inputs":[],"name":"totalIDs","outputs":[{"internalType":"uint32","name":"","type":"uint32"}],"stateMutability":"view","type":"function"},{"inputs":[],"name":"totalROIIDs","outputs":[{"internalType":"uint32","name":"","type":"uint32"}],"stateMutability":"view","type":"function"},{"inputs":[],"name":"totalROIPaidUSD","outputs":[{"internalType":"uint256","name":"","type":"uint256"}],"stateMutability":"view","type":"function"},{"inputs":[],"name":"totalReferralPaidUSD","outputs":[{"internalType":"uint256","name":"","type":"uint256"}],"stateMutability":"view","type":"function"},{"inputs":[],"name":"totalRoyaltyClubBonusPaidETH","outputs":[{"internalType":"uint256","name":"","type":"uint256"}],"stateMutability":"view","type":"function"},{"inputs":[],"name":"totalRoyaltyClubBonusPaidUSD","outputs":[{"internalType":"uint256","name":"","type":"uint256"}],"stateMutability":"view","type":"function"},{"inputs":[],"name":"totalUsers","outputs":[{"internalType":"uint32","name":"","type":"uint32"}],"stateMutability":"view","type":"function"},{"inputs":[{"internalType":"address","name":"newOwner","type":"address"}],"name":"transferOwnership","outputs":[],"stateMutability":"nonpayable","type":"function"},{"inputs":[{"internalType":"uint32[]","name":"_userID","type":"uint32[]"},{"internalType":"address[]","name":"_userAddress","type":"address[]"},{"internalType":"uint32[]","name":"_referrerID","type":"uint32[]"},{"internalType":"string[]","name":"_oldID","type":"string[]"}],"name":"updateIDOldIDtoAddress","outputs":[],"stateMutability":"nonpayable","type":"function"},{"inputs":[{"internalType":"uint32","name":"_value","type":"uint32"}],"name":"updateTotalIDs","outputs":[],"stateMutability":"nonpayable","type":"function"},{"inputs":[{"internalType":"uint32[]","name":"_userID","type":"uint32[]"},{"internalType":"uint256[]","name":"_totalTopUp","type":"uint256[]"},{"internalType":"uint256[]","name":"_limitBalanceUSD","type":"uint256[]"},{"internalType":"uint256[]","name":"_balanceClaimedUSD","type":"uint256[]"},{"internalType":"uint256[]","name":"_joiningTime","type":"uint256[]"},{"internalType":"uint256[]","name":"_activationTime","type":"uint256[]"}],"name":"updateUserIDDataOldAdmin","outputs":[],"stateMutability":"nonpayable","type":"function"},{"inputs":[{"internalType":"address","name":"newImplementation","type":"address"}],"name":"upgradeTo","outputs":[],"stateMutability":"nonpayable","type":"function"},{"inputs":[{"internalType":"address","name":"newImplementation","type":"address"},{"internalType":"bytes","name":"data","type":"bytes"}],"name":"upgradeToAndCall","outputs":[],"stateMutability":"payable","type":"function"},{"inputs":[],"name":"withdrawETHAdmin","outputs":[],"stateMutability":"nonpayable","type":"function"},{"inputs":[{"internalType":"address","name":"_tokenAddress","type":"address"},{"internalType":"uint256","name":"_value","type":"uint256"}],"name":"withdrawTokensAdmin","outputs":[],"stateMutability":"nonpayable","type":"function"},{"stateMutability":"payable","type":"receive"}],"evm":{"bytecode":{"linkReferences":{},"object":"60a06040523060805234801561001457600080fd5b50608051615a586200004d60003960008181610b9601528181610bd601528181610fb301528181610ff3015261106b0152615a586000f3fe6080604052600436106102835760003560e01c80637f2f4a9111610150578063bf46de63116100bc578063bf46de6314610766578063bff1f9e114610786578063c3ab5ebf146107a3578063db003b2a146108b4578063e52356f3146108d4578063e5682e38146108f4578063ea62f71514610907578063f2fde38b14610927578063f31a2d0f14610947578063f41bfeef14610967578063f830e57b1461097d578063fafc9597146109aa578063fb47e016146109c957600080fd5b80637f2f4a91146105ec5780638129fc1c1461060c5780638da5cb5b146106215780638df05d9c1461063f57806396ed6b851461065f5780639f4e839814610675578063a0b6105f14610695578063a1b80175146106b5578063a28a3686146106d9578063af2f39d1146106f9578063b47181d314610713578063b92d18c114610733578063bc09161b1461074657600080fd5b8063473b0d46116101ef578063473b0d461461044157806349b32504146104615780634f1ef2861461048157806352d1902d14610494578063538ffe0c146104a95780635e701d86146104f25780636dc8afc51461052b578063704b6c021461054157806370d9e08114610561578063715018a61461058157806376a68e84146105965780637879b5ef146105b65780637a026935146105d657600080fd5b806309de82cd1461028f5780630b243dad146102b85780630efdbb6a146102da57806314bfd6d0146102fa57806318e10bff146103325780631dc209ff1461035e5780631f7f83ba1461037457806322f88b52146103945780632913497b146103aa5780632ed421d2146103c8578063313ce567146103de578063357597881461040c5780633659cfe61461042157600080fd5b3661028a57005b600080fd5b34801561029b57600080fd5b506102a560ce5481565b6040519081526020015b60405180910390f35b3480156102c457600080fd5b506102d86102d3366004614e15565b6109f6565b005b3480156102e657600080fd5b506102d86102f5366004614e3f565b610a39565b34801561030657600080fd5b5061031a610315366004614e5a565b610b1b565b6040516001600160a01b0390911681526020016102af565b34801561033e57600080fd5b5060d95461034c9060ff1681565b60405160ff90911681526020016102af565b34801561036a57600080fd5b506102a560cf5481565b34801561038057600080fd5b5061031a61038f366004614e5a565b610b45565b3480156103a057600080fd5b506102a560d55481565b3480156103b657600080fd5b5060c9546001600160a01b031661031a565b3480156103d457600080fd5b506102a560d65481565b3480156103ea57600080fd5b5060cb546103f99061ffff1681565b60405161ffff90911681526020016102af565b34801561041857600080fd5b506102d8610b55565b34801561042d57600080fd5b506102d861043c366004614e3f565b610b8c565b34801561044d57600080fd5b506102d861045c366004614e5a565b610c51565b34801561046d57600080fd5b506102d861047c366004614ebe565b610c5e565b6102d861048f366004614f9c565b610fa9565b3480156104a057600080fd5b506102a561105e565b3480156104b557600080fd5b506104e26104c4366004614e3f565b6001600160a01b0316600090815260da602052604090205460ff1690565b60405190151581526020016102af565b3480156104fe57600080fd5b5060d15461051690600160201b900463ffffffff1681565b60405163ffffffff90911681526020016102af565b34801561053757600080fd5b506102a560d05481565b34801561054d57600080fd5b506102d861055c366004614e3f565b61110c565b34801561056d57600080fd5b506102d861057c366004615011565b611166565b34801561058d57600080fd5b506102d861123f565b3480156105a257600080fd5b506102a56105b1366004615011565b611253565b3480156105c257600080fd5b506103f96105d1366004614e5a565b611664565b3480156105e257600080fd5b506102a560cd5481565b3480156105f857600080fd5b506102d8610607366004614ebe565b61169c565b34801561061857600080fd5b506102d86117e3565b34801561062d57600080fd5b506033546001600160a01b031661031a565b34801561064b57600080fd5b5060cb5461034c9062010000900460ff1681565b34801561066b57600080fd5b506102a560cc5481565b34801561068157600080fd5b506102d8610690366004614e3f565b611a88565b3480156106a157600080fd5b506102d86106b0366004614e15565b611ba4565b3480156106c157600080fd5b5060d15461051690600160401b900463ffffffff1681565b3480156106e557600080fd5b5060d45461034c9062010000900460ff1681565b34801561070557600080fd5b5060d4546104e29060ff1681565b34801561071f57600080fd5b506102a561072e366004615011565b611c1d565b6102d8610741366004615011565b61202b565b34801561075257600080fd5b506102d861076136600461502c565b612143565b34801561077257600080fd5b506102a5610781366004615011565b6124cf565b34801561079257600080fd5b5060d1546105169063ffffffff1681565b3480156107af57600080fd5b5061085c6107be366004615011565b6040805160c081018252600080825260208201819052918101829052606081018290526080810182905260a08101919091525063ffffffff908116600090815260dc6020908152604091829020825160c081018452815460ff811615158252610100900490941691840191909152600181015491830191909152600281015461ffff166060830152600381015460808301526004015460a082015290565b6040516102af9190600060c08201905082511515825263ffffffff60208401511660208301526040830151604083015261ffff60608401511660608301526080830151608083015260a083015160a083015292915050565b3480156108c057600080fd5b506102d86108cf366004615188565b612533565b3480156108e057600080fd5b506102d86108ef366004614e3f565b61274e565b6102d8610902366004615011565b612923565b34801561091357600080fd5b506102a5610922366004615011565b612a93565b34801561093357600080fd5b506102d8610942366004614e3f565b612baa565b34801561095357600080fd5b506102d86109623660046152c5565b612c20565b34801561097357600080fd5b506102a560d75481565b34801561098957600080fd5b5061099d610998366004615011565b612d3c565b6040516102af9190615372565b3480156109b657600080fd5b5060d4546104e290610100900460ff1681565b3480156109d557600080fd5b506109e96109e4366004614e3f565b61323c565b6040516102af919061558f565b6109fe613307565b6040516001600160a01b0383169082156108fc029083906000818181858888f19350505050158015610a34573d6000803e3d6000fd5b505050565b60005b60de5460ff82161015610b175760de8160ff1681548110610a5f57610a5f6155b6565b6000918252602090912001546001600160a01b03163303610a9b5760c980546001600160a01b0384166001600160a01b03199091161790555050565b60de54610aaa906001906155e2565b8160ff1603610b055760de8160ff1681548110610ac957610ac96155b6565b6000918252602090912001546001600160a01b03163314610b055760405162461bcd60e51b8152600401610afc906155f5565b60405180910390fd5b80610b0f81615620565b915050610a3c565b5050565b60de8181548110610b2b57600080fd5b6000918252602090912001546001600160a01b0316905081565b60d88181548110610b2b57600080fd5b610b5d613307565b60405133904780156108fc02916000818181858888f19350505050158015610b89573d6000803e3d6000fd5b50565b6001600160a01b037f0000000000000000000000000000000000000000000000000000000000000000163003610bd45760405162461bcd60e51b8152600401610afc9061563f565b7f00000000000000000000000000000000000000000000000000000000000000006001600160a01b0316610c06613361565b6001600160a01b031614610c2c5760405162461bcd60e51b8152600401610afc9061568b565b610c358161337d565b60408051600080825260208201909252610b8991839190613385565b610c59613307565b60cc55565b60005b60de5460ff82161015610a345760de8160ff1681548110610c8457610c846155b6565b6000918252602090912001546001600160a01b03163303610f365760005b63ffffffff8116831115610f3057600060db600086868563ffffffff16818110610cce57610cce6155b6565b9050602002016020810190610ce39190615011565b63ffffffff1681526020810191909152604001600090812060cb5490925062010000900460ff16905b8160ff168163ffffffff161015610f1a57600783015463ffffffff908116600081815260db60205260408120919284169003610db0578060080189898863ffffffff16818110610d5e57610d5e6155b6565b9050602002016020810190610d739190615011565b8154600181018355600092835260209092206008830401805460079093166004026101000a63ffffffff8181021990941692909316929092021790555b845463ffffffff16600003610dc6575050610f1a565b8060090189898863ffffffff16818110610de257610de26155b6565b9050602002016020810190610df79190615011565b815460018082018455600093845260209093206008820401805460079092166004026101000a63ffffffff818102199093169390921691909102919091179055600a820190610e479085906156d7565b8154600181018355600092835260209092206008830401805460079093166004026101000a63ffffffff8181021990941692841602919091179055899089908816818110610e9757610e976155b6565b9050602002016020810190610eac9190615011565b6002820154825460405163ffffffff9182168152928116929085169161010090046001600160a01b0316907fa7fafc728ec30e34dc1e1276496bf3eb44ca7494679da969455289e6a8f0f1f69060200160405180910390a49350819050610f12816156fb565b915050610d0c565b5050508080610f28906156fb565b915050610ca2565b50505050565b60de54610f45906001906155e2565b8160ff1603610f975760de8160ff1681548110610f6457610f646155b6565b6000918252602090912001546001600160a01b03163314610f975760405162461bcd60e51b8152600401610afc906155f5565b80610fa181615620565b915050610c61565b6001600160a01b037f0000000000000000000000000000000000000000000000000000000000000000163003610ff15760405162461bcd60e51b8152600401610afc9061563f565b7f00000000000000000000000000000000000000000000000000000000000000006001600160a01b0316611023613361565b6001600160a01b0316146110495760405162461bcd60e51b8152600401610afc9061568b565b6110528261337d565b610b1782826001613385565b6000306001600160a01b037f000000000000000000000000000000000000000000000000000000000000000016146110f95760405162461bcd60e51b815260206004820152603860248201527f555550535570677261646561626c653a206d757374206e6f742062652063616c6044820152771b1959081d1a1c9bdd59da0819195b1959d85d1958d85b1b60421b6064820152608401610afc565b506000805160206159dc83398151915290565b611114613307565b60de80546001810182556000919091527ffae8130c0619f84b4b44f01b84806f04e82e536d70e05f2356977fa318aecc1a0180546001600160a01b0319166001600160a01b0392909216919091179055565b60005b60de5460ff82161015610b175760de8160ff168154811061118c5761118c6155b6565b6000918252602090912001546001600160a01b031633036111cc5760d1805463ffffffff8416600160201b0267ffffffff00000000199091161790555050565b60de546111db906001906155e2565b8160ff160361122d5760de8160ff16815481106111fa576111fa6155b6565b6000918252602090912001546001600160a01b0316331461122d5760405162461bcd60e51b8152600401610afc906155f5565b8061123781615620565b915050611169565b611247613307565b61125160006134f0565b565b63ffffffff808216600090815260db6020908152604080832081516103e0810190925280549094168152600184018054939485949293909290840191906112999061571e565b80601f01602080910402602001604051908101604052809291908181526020018280546112c59061571e565b80156113125780601f106112e757610100808354040283529160200191611312565b820191906000526020600020905b8154815290600101906020018083116112f557829003601f168201915b5050509183525050600282015460ff811615156020808401919091526101009091046001600160a01b03166040808401919091526003840154606084015260048401546080840152600584015460a084015260068401805482518185028101850190935280835260c09094019391929091908301828280156113df57602002820191906000526020600020906000905b82829054906101000a900463ffffffff1663ffffffff16815260200190600401906020826003010492830192600103820291508084116113a25790505b5050509183525050600782015463ffffffff16602080830191909152600883018054604080518285028101850182528281529401939283018282801561147057602002820191906000526020600020906000905b82829054906101000a900463ffffffff1663ffffffff16815260200190600401906020826003010492830192600103820291508084116114335790505b50505050508152602001600982018054806020026020016040519081016040528092919081815260200182805480156114f457602002820191906000526020600020906000905b82829054906101000a900463ffffffff1663ffffffff16815260200190600401906020826003010492830192600103820291508084116114b75790505b50505050508152602001600a820180548060200260200160405190810160405280929190818152602001828054801561157857602002820191906000526020600020906000905b82829054906101000a900463ffffffff1663ffffffff168152602001906004019060208260030104928301926001038202915080841161153b5790505b5050509183525050600b8201546020820152600c8201546040820152600d8201546060820152600e8201546080820152600f82015460a0820152601082015460c0820152601182015460e08201526012820154610100820152601382015460ff1661012082015260148201546101408201526015820154610160820152601682015461018082015260178201546101a082015260188201546101c082015260198201546101e0820152601a820154610200820152601b820154610220820152601c820154610240820152601d9091015461026090910152905061165a81613542565b60ff169392505050565b60ca818154811061167457600080fd5b9060005260206000209060109182820401919006600202915054906101000a900461ffff1681565b60005b60de5460ff82161015610a345760de8160ff16815481106116c2576116c26155b6565b6000918252602090912001546001600160a01b031633036117705760005b63ffffffff8116831115610f3057600060db600086868563ffffffff1681811061170c5761170c6155b6565b90506020020160208101906117219190615011565b63ffffffff168152602080820192909252604090810160009081208251918252928101918290525191925061175b91600884019190614c9f565b50508080611768906156fb565b9150506116e0565b60de5461177f906001906155e2565b8160ff16036117d15760de8160ff168154811061179e5761179e6155b6565b6000918252602090912001546001600160a01b031633146117d15760405162461bcd60e51b8152600401610afc906155f5565b806117db81615620565b91505061169f565b600054610100900460ff16158080156118035750600054600160ff909116105b806118245750611812306135e9565b158015611824575060005460ff166001145b6118875760405162461bcd60e51b815260206004820152602e60248201527f496e697469616c697a61626c653a20636f6e747261637420697320616c72656160448201526d191e481a5b9a5d1a585b1a5e995960921b6064820152608401610afc565b6000805460ff1916600117905580156118aa576000805461ff0019166101001790555b60c980546001600160a01b03191673286d6392042b4d7180fd6d20f8d35c877681577417905560cb805461ffff19166103e8179055604080516103a08101825260648152604660208201526032918101829052606081018290526080810182905260a0810182905260c0810182905260e08101829052610100810182905261012081018290526101408101829052610160810182905261018081018290526101a081018290526101c081018290526101e08101829052610200810182905261022081018290526102408101919091526014610260820181905261028082018190526102a082018190526102c082018190526102e0820181905261030082018190526103208201819052610340820181905261036082018190526103808201526119d79060ca90601d614d4e565b5060cb805462ff0000191662320000179055670de0b6b3a764000060cc5560d4805463ff00ffff1916630200000117905560d1805461ffff60601b1916607d60631b17905563020f580060d255601460d35562278d0060d755611a386135f8565b611a40613627565b8015610b89576000805461ff0019169055604051600181527f7f26b83ff96e1f2b6a682f133852f6798a09c465da95921460cefb38474024989060200160405180910390a150565b60005b60de5460ff82161015610b175760de8160ff1681548110611aae57611aae6155b6565b6000918252602090912001546001600160a01b03163303611b315760d8805460018181019092557f5320ad99a619a90804cd2efe3a5cf0ac1ac5c41ad9ff2c61cf699efdad7710960180546001600160a01b0385166001600160a01b03199091168117909155600090815260da60205260409020805460ff191690911790555050565b60de54611b40906001906155e2565b8160ff1603611b925760de8160ff1681548110611b5f57611b5f6155b6565b6000918252602090912001546001600160a01b03163314611b925760405162461bcd60e51b8152600401610afc906155f5565b80611b9c81615620565b915050611a8b565b611bac613307565b60405163a9059cbb60e01b8152336004820152602481018290526001600160a01b0383169063a9059cbb906044016020604051808303816000875af1158015611bf9573d6000803e3d6000fd5b505050506040513d601f19601f82011682018060405250810190610a349190615758565b63ffffffff808216600090815260db6020908152604080832081516103e081019092528054909416815260018401805493948594929390929084019190611c639061571e565b80601f0160208091040260200160405190810160405280929190818152602001828054611c8f9061571e565b8015611cdc5780601f10611cb157610100808354040283529160200191611cdc565b820191906000526020600020905b815481529060010190602001808311611cbf57829003601f168201915b5050509183525050600282015460ff811615156020808401919091526101009091046001600160a01b03166040808401919091526003840154606084015260048401546080840152600584015460a084015260068401805482518185028101850190935280835260c0909401939192909190830182828015611da957602002820191906000526020600020906000905b82829054906101000a900463ffffffff1663ffffffff1681526020019060040190602082600301049283019260010382029150808411611d6c5790505b5050509183525050600782015463ffffffff166020808301919091526008830180546040805182850281018501825282815294019392830182828015611e3a57602002820191906000526020600020906000905b82829054906101000a900463ffffffff1663ffffffff1681526020019060040190602082600301049283019260010382029150808411611dfd5790505b5050505050815260200160098201805480602002602001604051908101604052809291908181526020018280548015611ebe57602002820191906000526020600020906000905b82829054906101000a900463ffffffff1663ffffffff1681526020019060040190602082600301049283019260010382029150808411611e815790505b50505050508152602001600a8201805480602002602001604051908101604052809291908181526020018280548015611f4257602002820191906000526020600020906000905b82829054906101000a900463ffffffff1663ffffffff1681526020019060040190602082600301049283019260010382029150808411611f055790505b5050509183525050600b8201546020820152600c8201546040820152600d8201546060820152600e8201546080820152600f82015460a0820152601082015460c0820152601182015460e08201526012820154610100820152601382015460ff1661012082015260148201546101408201526015820154610160820152601682015461018082015260178201546101a082015260188201546101c082015260198201546101e0820152601a820154610200820152601b820154610220820152601c820154610240820152601d909101546102609091015290506120248161364e565b9392505050565b60cc5434906120399061368b565b81101561209c5760405162461bcd60e51b815260206004820152602b60248201527f56616c75652073686f756c6420626520677265617465207468656e206d696e4360448201526a37b73a3934b13aba34b7b760a91b6064820152608401610afc565b3360006120a883613721565b60d15490915042906000906120cb90600160401b900463ffffffff1660016156d7565b63ffffffff8716600090815260db602052604090206002810154919250906001600160a01b0386811661010090920416146121185760405162461bcd60e51b8152600401610afc9061577a565b60d45460ff161561212f5761212f878386866137ae565b61213a8785856138a0565b50505050505050565b60005b60de5460ff821610156124c55760de8160ff1681548110612169576121696155b6565b6000918252602090912001546001600160a01b031633036124525760005b61ffff811688111561244c57600060db60008b8b8561ffff168181106121af576121af6155b6565b90506020020160208101906121c49190615011565b63ffffffff1663ffffffff1681526020019081526020016000209050600060da60008a8a8661ffff168181106121fc576121fc6155b6565b90506020020160208101906122119190614e3f565b6001600160a01b03166001600160a01b0316815260200190815260200160002090508a8a8461ffff16818110612249576122496155b6565b905060200201602081019061225e9190615011565b825463ffffffff191663ffffffff919091161782558451859061ffff851690811061228b5761228b6155b6565b60200260200101518260010190816122a391906157f7565b50806001018b8b8561ffff168181106122be576122be6155b6565b90506020020160208101906122d39190615011565b8154600181018355600092835260209092206008830401805460079093166004026101000a63ffffffff818102199094169290931692909202179055888861ffff8516818110612325576123256155b6565b905060200201602081019061233a9190614e3f565b8260020160016101000a8154816001600160a01b0302191690836001600160a01b0316021790555086868461ffff16818110612378576123786155b6565b905060200201602081019061238d9190615011565b60078301805463ffffffff191663ffffffff92909216919091179055868661ffff85168181106123bf576123bf6155b6565b90506020020160208101906123d49190615011565b63ffffffff168b8b8561ffff168181106123f0576123f06155b6565b90506020020160208101906124059190615011565b63ffffffff167f9d714438ba618019cc2b8621dcd2550337e162be58654470ea30d48479fe832060405160405180910390a350508080612444906158b6565b915050612187565b506124c5565b60de54612461906001906155e2565b8160ff16036124b35760de8160ff1681548110612480576124806155b6565b6000918252602090912001546001600160a01b031633146124b35760405162461bcd60e51b8152600401610afc906155f5565b806124bd81615620565b915050612146565b5050505050505050565b63ffffffff8116600090815260db60205260408120816124ee846139bc565b905081601a015481836019015461250591906158cd565b116125125780925061252c565b6000826019015483601a015461252891906155e2565b9350505b5050919050565b60005b60de5460ff8216101561273f5760de8160ff1681548110612559576125596155b6565b6000918252602090912001546001600160a01b031633036126cc5760005b8c8110156126c65760d18054600160401b900463ffffffff1690600861259c836156fb565b91906101000a81548163ffffffff021916908363ffffffff1602179055505060008c8c838181106125cf576125cf6155b6565b9050602002013511156126b45760008c8c838181106125f0576125f06155b6565b90506020020135600361260391906158e0565b90506126b28f8f8481811061261a5761261a6155b6565b905060200201602081019061262f9190615011565b8e8e85818110612641576126416155b6565b905060200201358d8d8681811061265a5761265a6155b6565b90506020020135848d8d88818110612674576126746155b6565b905060200201358c8c8981811061268d5761268d6155b6565b905060200201358b8b8a8181106126a6576126a66155b6565b90506020020135613eb4565b505b806126be816158f7565b915050612577565b5061273f565b60de546126db906001906155e2565b8160ff160361272d5760de8160ff16815481106126fa576126fa6155b6565b6000918252602090912001546001600160a01b0316331461272d5760405162461bcd60e51b8152600401610afc906155f5565b8061273781615620565b915050612536565b50505050505050505050505050565b60005b60de5460ff82161015610b175760de8160ff1681548110612774576127746155b6565b6000918252602090912001546001600160a01b031633036128b0576001600160a01b038216600090815260da60205260408120805460ff1916905560d854905b81811015610f3057836001600160a01b031660d882815481106127d9576127d96155b6565b6000918252602090912001546001600160a01b03160361289e5760d86128006001846155e2565b81548110612810576128106155b6565b60009182526020909120015460d880546001600160a01b03909216918390811061283c5761283c6155b6565b9060005260206000200160006101000a8154816001600160a01b0302191690836001600160a01b0316021790555060d880548061287b5761287b615910565b600082815260209020810160001990810180546001600160a01b03191690550190555b806128a8816158f7565b9150506127b4565b60de546128bf906001906155e2565b8160ff16036129115760de8160ff16815481106128de576128de6155b6565b6000918252602090912001546001600160a01b031633146129115760405162461bcd60e51b8152600401610afc906155f5565b8061291b81615620565b915050612751565b34600061292f82613721565b905061293c60cc5461368b565b82101561298b5760405162461bcd60e51b815260206004820152601f60248201527f56616c75652073686f756c6420626520677265617465207468656e20313030006044820152606401610afc565b60d154339042906000906129ad90600160201b900463ffffffff1660016156d7565b60d1549091506000906129ce90600160401b900463ffffffff1660016156d7565b6001600160a01b038516600090815260da6020526040902060d4549192509060ff1615612a0157612a01838388876137ae565b612a4883604051806020016040528060008152508a60405180602001604052806000815250898b8c6003612a3591906158e0565b60cb548c9062010000900460ff16614023565b6001908101805491820181556000908152602090206008820401805460079092166004026101000a63ffffffff81810219909316949092169190910292909217909155505050505050565b63ffffffff8116600090815260db6020908152604080832060060180548251818502810185019093528083528493830182828015612b1c57602002820191906000526020600020906000905b82829054906101000a900463ffffffff1663ffffffff1681526020019060040190602082600301049283019260010382029150808411612adf5790505b505050505090506000805b82518161ffff161015612ba257600060dc6000858461ffff1681518110612b5057612b506155b6565b60209081029190910181015163ffffffff168252810191909152604001600020805490915060ff1615612b8f576001810154612b8c90846158cd565b92505b5080612b9a816158b6565b915050612b27565b509392505050565b612bb2613307565b6001600160a01b038116612c175760405162461bcd60e51b815260206004820152602660248201527f4f776e61626c653a206e6577206f776e657220697320746865207a65726f206160448201526564647265737360d01b6064820152608401610afc565b610b89816134f0565b63ffffffff8216600090815260db60205260409020600281015461010090046001600160a01b03163314612c665760405162461bcd60e51b8152600401610afc9061577a565b6000612c71826142fa565b6018830154909150612c8381836155e2565b841115612ce55760405162461bcd60e51b815260206004820152602a60248201527f506c6561736520656e7465722076616c7565206c657373207468656e20796f7560448201526939103130b630b731b29760b11b6064820152608401610afc565b83836018016000828254612cf991906158cd565b909155503390506108fc612d0c8661368b565b6040518115909202916000818181858888f19350505050158015612d34573d6000803e3d6000fd5b505050505050565b612e3f604051806103e00160405280600063ffffffff1681526020016060815260200160001515815260200160006001600160a01b0316815260200160008152602001600081526020016000815260200160608152602001600063ffffffff1681526020016060815260200160608152602001606081526020016000815260200160008152602001600081526020016000815260200160008152602001600081526020016000815260200160008152602001600060ff168152602001600081526020016000815260200160008152602001600081526020016000815260200160008152602001600081526020016000815260200160008152602001600081525090565b63ffffffff808316600090815260db602090815260409182902082516103e081019093528054909316825260018301805492939291840191612e809061571e565b80601f0160208091040260200160405190810160405280929190818152602001828054612eac9061571e565b8015612ef95780601f10612ece57610100808354040283529160200191612ef9565b820191906000526020600020905b815481529060010190602001808311612edc57829003601f168201915b5050509183525050600282015460ff811615156020808401919091526101009091046001600160a01b03166040808401919091526003840154606084015260048401546080840152600584015460a084015260068401805482518185028101850190935280835260c0909401939192909190830182828015612fc657602002820191906000526020600020906000905b82829054906101000a900463ffffffff1663ffffffff1681526020019060040190602082600301049283019260010382029150808411612f895790505b5050509183525050600782015463ffffffff16602080830191909152600883018054604080518285028101850182528281529401939283018282801561305757602002820191906000526020600020906000905b82829054906101000a900463ffffffff1663ffffffff168152602001906004019060208260030104928301926001038202915080841161301a5790505b50505050508152602001600982018054806020026020016040519081016040528092919081815260200182805480156130db57602002820191906000526020600020906000905b82829054906101000a900463ffffffff1663ffffffff168152602001906004019060208260030104928301926001038202915080841161309e5790505b50505050508152602001600a820180548060200260200160405190810160405280929190818152602001828054801561315f57602002820191906000526020600020906000905b82829054906101000a900463ffffffff1663ffffffff16815260200190600401906020826003010492830192600103820291508084116131225790505b5050509183525050600b8201546020820152600c8201546040820152600d8201546060820152600e8201546080820152600f82015460a0820152601082015460c0820152601182015460e08201526012820154610100820152601382015460ff1661012082015260148201546101408201526015820154610160820152601682015461018082015260178201546101a082015260188201546101c082015260198201546101e0820152601a820154610200820152601b820154610220820152601c820154610240820152601d909101546102609091015292915050565b6040805180820190915260008152606060208201526001600160a01b038216600090815260da602090815260409182902082518084018452815460ff1615158152600182018054855181860281018601909652808652919492938581019392908301828280156132f757602002820191906000526020600020906000905b82829054906101000a900463ffffffff1663ffffffff16815260200190600401906020826003010492830192600103820291508084116132ba5790505b5050505050815250509050919050565b6033546001600160a01b031633146112515760405162461bcd60e51b815260206004820181905260248201527f4f776e61626c653a2063616c6c6572206973206e6f7420746865206f776e65726044820152606401610afc565b6000805160206159dc833981519152546001600160a01b031690565b610b89613307565b7f4910fdfa16fed3260ed0e7147f7cc6da11a60208b5b9406d12a635614ffd91435460ff16156133b857610a3483614322565b826001600160a01b03166352d1902d6040518163ffffffff1660e01b8152600401602060405180830381865afa925050508015613412575060408051601f3d908101601f1916820190925261340f91810190615926565b60015b6134755760405162461bcd60e51b815260206004820152602e60248201527f45524331393637557067726164653a206e657720696d706c656d656e7461746960448201526d6f6e206973206e6f74205555505360901b6064820152608401610afc565b6000805160206159dc83398151915281146134e45760405162461bcd60e51b815260206004820152602960248201527f45524331393637557067726164653a20756e737570706f727465642070726f786044820152681a58589b195555525160ba1b6064820152608401610afc565b50610a348383836143bc565b603380546001600160a01b038381166001600160a01b0319831681179093556040519116919082907f8be0079c531659141344cd1fd0a4f28419497f9722a3daafe3b4186f6b6457e090600090a35050565b60d95460009060ff16815b8160ff168160ff16101561252c5760ff8116600090815260dd60205260409020600101546101808501511080159061359f575060ff8116600090815260dd60205260409020600201546101c085015110155b80156135c5575060ff8116600090815260dd602052604090206003015461020085015110155b156135d2578092506135d7565b61252c565b806135e181615620565b91505061354d565b6001600160a01b03163b151590565b600054610100900460ff1661361f5760405162461bcd60e51b8152600401610afc9061593f565b6112516143e1565b600054610100900460ff166112515760405162461bcd60e51b8152600401610afc9061593f565b610120810151516000908181156120245760d454600190613679906301000000900460ff16846158e0565b61368391906155e2565b949350505050565b60008060c960009054906101000a90046001600160a01b03166001600160a01b031663e1aa60366040518163ffffffff1660e01b8152600401602060405180830381865afa1580156136e1573d6000803e3d6000fd5b505050506040513d601f19601f820116820180604052508101906137059190615926565b61371784670de0b6b3a76400006158e0565b612024919061598a565b600080670de0b6b3a764000060c960009054906101000a90046001600160a01b03166001600160a01b031663e1aa60366040518163ffffffff1660e01b8152600401602060405180830381865afa158015613780573d6000803e3d6000fd5b505050506040513d601f19601f820116820180604052508101906137a49190615926565b61371790856158e0565b63ffffffff838116600081815260dc6020908152604080832089861680855260db84529184208154600164ffffffffff1990911661010094850217811783558083018a905560d18054600285018054600160601b90920461ffff1661ffff19909216919091179055600384018a905560d254600480860191909155600684018054938401815588529590962060088083049091018054600790931690960290940a8089021990911696029590951790925582549194600160401b9092049091169190613879836156fb565b91906101000a81548163ffffffff021916908363ffffffff16021790555050505050505050565b60cb5463ffffffff8416600090815260db602052604090206201000090910460ff16906138ce8460026158e0565b81601a01819055508381600b0160008282546138ea91906158cd565b925050819055508381601701600082825461390591906158cd565b90915550600090505b82811015612d3457600782015463ffffffff908116600081815260db60205260408120805492939092169003613945575050612d34565b82600003613967578681600d01600082825461396191906158cd565b90915550505b8681600f01600082825461397b91906158cd565b909155505060d454610100900460ff161561399c5761399c81838989614411565b6139a68787614aa5565b92508190506139b4816158f7565b91505061390e565b63ffffffff808216600090815260db6020908152604080832081516103e081019092528054909416815260018401805493948594929390929084019190613a029061571e565b80601f0160208091040260200160405190810160405280929190818152602001828054613a2e9061571e565b8015613a7b5780601f10613a5057610100808354040283529160200191613a7b565b820191906000526020600020905b815481529060010190602001808311613a5e57829003601f168201915b5050509183525050600282015460ff811615156020808401919091526101009091046001600160a01b03166040808401919091526003840154606084015260048401546080840152600584015460a084015260068401805482518185028101850190935280835260c0909401939192909190830182828015613b4857602002820191906000526020600020906000905b82829054906101000a900463ffffffff1663ffffffff1681526020019060040190602082600301049283019260010382029150808411613b0b5790505b5050509183525050600782015463ffffffff166020808301919091526008830180546040805182850281018501825282815294019392830182828015613bd957602002820191906000526020600020906000905b82829054906101000a900463ffffffff1663ffffffff1681526020019060040190602082600301049283019260010382029150808411613b9c5790505b5050505050815260200160098201805480602002602001604051908101604052809291908181526020018280548015613c5d57602002820191906000526020600020906000905b82829054906101000a900463ffffffff1663ffffffff1681526020019060040190602082600301049283019260010382029150808411613c205790505b50505050508152602001600a8201805480602002602001604051908101604052809291908181526020018280548015613ce157602002820191906000526020600020906000905b82829054906101000a900463ffffffff1663ffffffff1681526020019060040190602082600301049283019260010382029150808411613ca45790505b5050509183525050600b8201546020820152600c8201546040820152600d8201546060820152600e8201546080820152600f82015460a0820152601082015460c0820152601182015460e0808301919091526012830154610100830152601383015460ff1661012083015260148301546101408301526015830154610160830152601683015461018083015260178301546101a083015260188301546101c083015260198301546101e0830152601a830154610200830152601b830154610220830152601c830154610240830152601d909201546102609091015281015180519192509060005b818161ffff161015613e9a57600060dc6000858461ffff1681518110613df057613df06155b6565b60209081029190910181015163ffffffff168252810191909152604001600090812060d25460cb5460d154600184015493955042949361ffff92831692613e3f92600160601b900416906158e0565b613e49919061598a565b613e53919061598a565b90506000836003015483613e6791906155e2565b9050613e77818560040154614adf565b613e8190836158e0565b9850505050508080613e92906158b6565b915050613dc8565b506103a0830151613eab90856155e2565b50505050919050565b63ffffffff8716600090815260db6020526040902060cb546003820184905560048201839055600c8201889055601582018790556018820185905560198201879055601a820186905560d45460ff620100009092048216911615613f2f5760d154613f2f908a90600160401b900463ffffffff168a426137ae565b60005b8160ff168160ff16101561401757600783015463ffffffff908116600081815260db60205260408120805492939092169003613f6f575050614017565b8260ff16600003613f94578a81600e016000828254613f8e91906158cd565b90915550505b8a816010016000828254613fa891906158cd565b92505081905550806009018c90806001815401808255809150506001900390600052602060002090600891828204019190066004029091909190916101000a81548163ffffffff021916908363ffffffff1602179055508094505050808061400f90615620565b915050613f32565b50505050505050505050565b63ffffffff898116600081815260db60205260408120805463ffffffff199081169093178155600781018054909316938b1693909317909155600282018054610100600160a81b0319166101006001600160a01b038a16021790556003820184905560048201849055601a8201859055600b820180548792906140a79084906158cd565b9091555050600181016140ba8a826157f7565b5060005b8260ff168160ff1610156142b157600782015463ffffffff908116600081815260db602052604081208054929390921690036140fb5750506142b1565b8260ff16600003614184578781600d01600082825461411a91906158cd565b92505081905550806008018d90806001815401808255809150506001900390600052602060002090600891828204019190066004029091909190916101000a81548163ffffffff021916908363ffffffff1602179055508981600101908161418291906157f7565b505b8781600f01600082825461419891906158cd565b92505081905550806009018d90806001815401808255809150506001900390600052602060002090600891828204019190066004029091909190916101000a81548163ffffffff021916908363ffffffff1602179055508c63ffffffff168b63ffffffff168260020160019054906101000a90046001600160a01b03166001600160a01b03167fa7fafc728ec30e34dc1e1276496bf3eb44ca7494679da969455289e6a8f0f1f68760070160009054906101000a900463ffffffff1660405161426d919063ffffffff91909116815260200190565b60405180910390a460d454610100900460ff16156142915761429181838a89614411565b61429b8887614aa5565b92508190506142a981615620565b9150506140be565b5060d18054600160201b900463ffffffff169060046142cf836156fb565b91906101000a81548163ffffffff021916908363ffffffff1602179055505050505050505050505050565b600081601a01548260190154101561431657816019015461431c565b81601a01545b92915050565b61432b816135e9565b61438d5760405162461bcd60e51b815260206004820152602d60248201527f455243313936373a206e657720696d706c656d656e746174696f6e206973206e60448201526c1bdd08184818dbdb9d1c9858dd609a1b6064820152608401610afc565b6000805160206159dc83398151915280546001600160a01b0319166001600160a01b0392909216919091179055565b6143c583614af7565b6000825111806143d25750805b15610a3457610f308383614b37565b600054610100900460ff166144085760405162461bcd60e51b8152600401610afc9061593f565b611251336134f0565b6013840154604080516103e08101909152855463ffffffff16815260018601805460ff909316926148099291889160208401919061444e9061571e565b80601f016020809104026020016040519081016040528092919081815260200182805461447a9061571e565b80156144c75780601f1061449c576101008083540402835291602001916144c7565b820191906000526020600020905b8154815290600101906020018083116144aa57829003601f168201915b5050509183525050600282015460ff811615156020808401919091526101009091046001600160a01b03166040808401919091526003840154606084015260048401546080840152600584015460a084015260068401805482518185028101850190935280835260c090940193919290919083018282801561459457602002820191906000526020600020906000905b82829054906101000a900463ffffffff1663ffffffff16815260200190600401906020826003010492830192600103820291508084116145575790505b5050509183525050600782015463ffffffff16602080830191909152600883018054604080518285028101850182528281529401939283018282801561462557602002820191906000526020600020906000905b82829054906101000a900463ffffffff1663ffffffff16815260200190600401906020826003010492830192600103820291508084116145e85790505b50505050508152602001600982018054806020026020016040519081016040528092919081815260200182805480156146a957602002820191906000526020600020906000905b82829054906101000a900463ffffffff1663ffffffff168152602001906004019060208260030104928301926001038202915080841161466c5790505b50505050508152602001600a820180548060200260200160405190810160405280929190818152602001828054801561472d57602002820191906000526020600020906000905b82829054906101000a900463ffffffff1663ffffffff16815260200190600401906020826003010492830192600103820291508084116146f05790505b5050509183525050600b8201546020820152600c8201546040820152600d8201546060820152600e8201546080820152600f82015460a0820152601082015460c0820152601182015460e08201526012820154610100820152601382015460ff1661012082015260148201546101408201526015820154610160820152601682015461018082015260178201546101a082015260188201546101c082015260198201546101e0820152601a820154610200820152601b820154610220820152601c820154610240820152601d9091015461026090910152613542565b60ff161115610f3057604080516103e08101909152845463ffffffff1681526001850180546148449291879160208401919061444e9061571e565b60138501805460ff191660ff9283169081178255600090815260dd6020908152604080832060099081018054600181810183559186529385206008850401805460079095166004026101000a63ffffffff81810219909616958c1602949094179093559354909416825292902001546148bd91906155e2565b6014850181905560138501546040805163ffffffff87168152602081019390935260ff90911682820152517fb0d3a9c683344e744a1ae3db383f75a8a01851282c5fe97d6159c1392a2e2a0a9181900360600190a1604080516103e08101909152845463ffffffff16815260018501805460dd92600092614948928991602084019161444e9061571e565b60ff908116825260208201929092526040016000206008015461010090041615614a0c57604080516103e08101909152845463ffffffff16815260018501805460dd926000926149a2928991602084019161444e9061571e565b60ff1660ff1681526020019081526020016000206007015484601201546149c991906158cd565b8111156149f857808460120181905550818460110160008282546149ed91906158cd565b90915550610f309050565b818460110160008282546149ed91906158cd565b60d454610100900460ff1615610f3057601384015460ff16600090815260dd6020526040902060050154614a41908590614c29565b601384015460ff908116600090815260dd602090815260409182902060058101549054925192909316825263ffffffff8616917f94b6d3d19cc40938e685ef6a1f6476b53ef65295ab094a044e74405a8d0bd05b910160405180910390a350505050565b60d75460d654614ab591906158cd565b811115614ac45760d65560d555565b8160d56000828254614ad691906158cd565b90915550505050565b600081831115614af057508061431c565b5090919050565b614b0081614322565b6040516001600160a01b038216907fbc7cd75a20ee27fd9adebab32041f755214dbc6bffa90cc0225b39da2e5c2d3b90600090a250565b6060614b42836135e9565b614b9d5760405162461bcd60e51b815260206004820152602660248201527f416464726573733a2064656c65676174652063616c6c20746f206e6f6e2d636f6044820152651b9d1c9858dd60d21b6064820152608401610afc565b600080846001600160a01b031684604051614bb891906159ac565b600060405180830381855af49150503d8060008114614bf3576040519150601f19603f3d011682016040523d82523d6000602084013e614bf8565b606091505b5091509150614c2082826040518060600160405280602781526020016159fc60279139614c61565b95945050505050565b81601a0154818360190154614c3e91906158cd565b10614c5157601a82015460198301555050565b808260190154610a3491906158cd565b60608315614c70575081612024565b6120248383815115614c855781518083602001fd5b8060405162461bcd60e51b8152600401610afc91906159c8565b82805482825590600052602060002090600701600890048101928215614d3e5791602002820160005b83821115614d0c57835183826101000a81548163ffffffff021916908363ffffffff1602179055509260200192600401602081600301049283019260010302614cc8565b8015614d3c5782816101000a81549063ffffffff0219169055600401602081600301049283019260010302614d0c565b505b50614d4a929150614de4565b5090565b82805482825590600052602060002090600f01601090048101928215614d3e5791602002820160005b83821115614db657835183826101000a81548161ffff021916908360ff1602179055509260200192600201602081600101049283019260010302614d77565b8015614d3c5782816101000a81549061ffff0219169055600201602081600101049283019260010302614db6565b5b80821115614d4a5760008155600101614de5565b80356001600160a01b0381168114614e1057600080fd5b919050565b60008060408385031215614e2857600080fd5b614e3183614df9565b946020939093013593505050565b600060208284031215614e5157600080fd5b61202482614df9565b600060208284031215614e6c57600080fd5b5035919050565b60008083601f840112614e8557600080fd5b5081356001600160401b03811115614e9c57600080fd5b6020830191508360208260051b8501011115614eb757600080fd5b9250929050565b60008060208385031215614ed157600080fd5b82356001600160401b03811115614ee757600080fd5b614ef385828601614e73565b90969095509350505050565b634e487b7160e01b600052604160045260246000fd5b604051601f8201601f191681016001600160401b0381118282101715614f3d57614f3d614eff565b604052919050565b60006001600160401b03831115614f5e57614f5e614eff565b614f71601f8401601f1916602001614f15565b9050828152838383011115614f8557600080fd5b828260208301376000602084830101529392505050565b60008060408385031215614faf57600080fd5b614fb883614df9565b915060208301356001600160401b03811115614fd357600080fd5b8301601f81018513614fe457600080fd5b614ff385823560208401614f45565b9150509250929050565b803563ffffffff81168114614e1057600080fd5b60006020828403121561502357600080fd5b61202482614ffd565b60008060008060008060006080888a03121561504757600080fd5b6001600160401b03808935111561505d57600080fd5b61506a8a8a358b01614e73565b9098509650602089013581101561508057600080fd5b6150908a60208b01358b01614e73565b909650945060408901358110156150a657600080fd5b6150b68a60408b01358b01614e73565b909450925060608901358110156150cc57600080fd5b606089013589018a601f8201126150e257600080fd5b81813511156150f3576150f3614eff565b6151036020823560051b01614f15565b81358082526020808301929160051b8401018d81111561512257600080fd5b602084015b8181101561517357858135111561513d57600080fd5b8e603f82358701011261514f57600080fd5b6151658f82358701602081013590604001614f45565b845260209384019301615127565b50508094505050505092959891949750929550565b60008060008060008060008060008060008060c08d8f0312156151aa57600080fd5b6001600160401b038d3511156151bf57600080fd5b6151cc8e8e358f01614e73565b909c509a506001600160401b0360208e013511156151e957600080fd5b6151f98e60208f01358f01614e73565b909a5098506001600160401b0360408e0135111561521657600080fd5b6152268e60408f01358f01614e73565b90985096506001600160401b0360608e0135111561524357600080fd5b6152538e60608f01358f01614e73565b90965094506001600160401b0360808e0135111561527057600080fd5b6152808e60808f01358f01614e73565b90945092506001600160401b0360a08e0135111561529d57600080fd5b6152ad8e60a08f01358f01614e73565b81935080925050509295989b509295989b509295989b565b600080604083850312156152d857600080fd5b614e3183614ffd565b60005b838110156152fc5781810151838201526020016152e4565b50506000910152565b6000815180845261531d8160208601602086016152e1565b601f01601f19169290920160200192915050565b600081518084526020808501945080840160005b8381101561536757815163ffffffff1687529582019590820190600101615345565b509495945050505050565b6020815261538960208201835163ffffffff169052565b600060208301516103e08060408501526153a7610400850183615305565b915060408501516153bc606086018215159052565b5060608501516001600160a01b038116608086015250608085015160a085015260a085015160c085015260c085015160e085015260e0850151601f1961010081878603018188015261540e8584615331565b94508088015192505061012061542b8188018463ffffffff169052565b808801519250506101408187860301818801526154488584615331565b9450808801519250506101608187860301818801526154678584615331565b9450808801519250506101808187860301818801526154868584615331565b908801516101a0888101919091528801516101c0808901919091528801516101e080890191909152880151610200808901919091528801516102208089019190915288015161024080890191909152880151610260808901919091528801516102808089019190915288015190945091506102a0905061550a8187018360ff169052565b8601516102c0868101919091528601516102e08087019190915286015161030080870191909152860151610320808701919091528601516103408087019190915286015161036080870191909152860151610380808701919091528601516103a0808701919091528601516103c0808701919091529095015193019290925250919050565b60208152815115156020820152600060208301516040808401526136836060840182615331565b634e487b7160e01b600052603260045260246000fd5b634e487b7160e01b600052601160045260246000fd5b8181038181111561431c5761431c6155cc565b6020808252601190820152702cb7ba9030b932903737ba1030b236b4b760791b604082015260600190565b600060ff821660ff8103615636576156366155cc565b60010192915050565b6020808252602c908201527f46756e6374696f6e206d7573742062652063616c6c6564207468726f7567682060408201526b19195b1959d85d1958d85b1b60a21b606082015260800190565b6020808252602c908201527f46756e6374696f6e206d7573742062652063616c6c6564207468726f7567682060408201526b6163746976652070726f787960a01b606082015260800190565b63ffffffff8181168382160190808211156156f4576156f46155cc565b5092915050565b600063ffffffff808316818103615714576157146155cc565b6001019392505050565b600181811c9082168061573257607f821691505b60208210810361575257634e487b7160e01b600052602260045260246000fd5b50919050565b60006020828403121561576a57600080fd5b8151801515811461202457600080fd5b6020808252601d908201527f596f7520617265206e6f74206f776e6572206f6620746869732069642e000000604082015260600190565b601f821115610a3457600081815260208120601f850160051c810160208610156157d85750805b601f850160051c820191505b81811015612d34578281556001016157e4565b81516001600160401b0381111561581057615810614eff565b6158248161581e845461571e565b846157b1565b602080601f83116001811461585957600084156158415750858301515b600019600386901b1c1916600185901b178555612d34565b600085815260208120601f198616915b8281101561588857888601518255948401946001909101908401615869565b50858210156158a65787850151600019600388901b60f8161c191681555b5050505050600190811b01905550565b600061ffff808316818103615714576157146155cc565b8082018082111561431c5761431c6155cc565b808202811582820484141761431c5761431c6155cc565b600060018201615909576159096155cc565b5060010190565b634e487b7160e01b600052603160045260246000fd5b60006020828403121561593857600080fd5b5051919050565b6020808252602b908201527f496e697469616c697a61626c653a20636f6e7472616374206973206e6f74206960408201526a6e697469616c697a696e6760a81b606082015260800190565b6000826159a757634e487b7160e01b600052601260045260246000fd5b500490565b600082516159be8184602087016152e1565b9190910192915050565b602081526000612024602083018461530556fe360894a13ba1a3210667c828492db98dca3e2076cc3735a920a3ca505d382bbc416464726573733a206c6f772d6c6576656c2064656c65676174652063616c6c206661696c6564a2646970667358221220e878d42f7ccfd54770f100b4dab68b25c320b83503422d9acabdd5e89beaa50264736f6c63430008110033","opcodes":"PUSH1 0xA0 PUSH1 0x40 MSTORE ADDRESS PUSH1 0x80 MSTORE CALLVALUE DUP1 ISZERO PUSH2 0x14 JUMPI PUSH1 0x0 DUP1 REVERT JUMPDEST POP PUSH1 0x80 MLOAD PUSH2 0x5A58 PUSH3 0x4D PUSH1 0x0 CODECOPY PUSH1 0x0 DUP2 DUP2 PUSH2 0xB96 ADD MSTORE DUP2 DUP2 PUSH2 0xBD6 ADD MSTORE DUP2 DUP2 PUSH2 0xFB3 ADD MSTORE DUP2 DUP2 PUSH2 0xFF3 ADD MSTORE PUSH2 0x106B ADD MSTORE PUSH2 0x5A58 PUSH1 0x0 RETURN INVALID PUSH1 0x80 PUSH1 0x40 MSTORE PUSH1 0x4 CALLDATASIZE LT PUSH2 0x283 JUMPI PUSH1 0x0 CALLDATALOAD PUSH1 0xE0 SHR DUP1 PUSH4 0x7F2F4A91 GT PUSH2 0x150 JUMPI DUP1 PUSH4 0xBF46DE63 GT PUSH2 0xBC JUMPI DUP1 PUSH4 0xBF46DE63 EQ PUSH2 0x766 JUMPI DUP1 PUSH4 0xBFF1F9E1 EQ PUSH2 0x786 JUMPI DUP1 PUSH4 0xC3AB5EBF EQ PUSH2 0x7A3 JUMPI DUP1 PUSH4 0xDB003B2A EQ PUSH2 0x8B4 JUMPI DUP1 PUSH4 0xE52356F3 EQ PUSH2 0x8D4 JUMPI DUP1 PUSH4 0xE5682E38 EQ PUSH2 0x8F4 JUMPI DUP1 PUSH4 0xEA62F715 EQ PUSH2 0x907 JUMPI DUP1 PUSH4 0xF2FDE38B EQ PUSH2 0x927 JUMPI DUP1 PUSH4 0xF31A2D0F EQ PUSH2 0x947 JUMPI DUP1 PUSH4 0xF41BFEEF EQ PUSH2 0x967 JUMPI DUP1 PUSH4 0xF830E57B EQ PUSH2 0x97D JUMPI DUP1 PUSH4 0xFAFC9597 EQ PUSH2 0x9AA JUMPI DUP1 PUSH4 0xFB47E016 EQ PUSH2 0x9C9 JUMPI PUSH1 0x0 DUP1 REVERT JUMPDEST DUP1 PUSH4 0x7F2F4A91 EQ PUSH2 0x5EC JUMPI DUP1 PUSH4 0x8129FC1C EQ PUSH2 0x60C JUMPI DUP1 PUSH4 0x8DA5CB5B EQ PUSH2 0x621 JUMPI DUP1 PUSH4 0x8DF05D9C EQ PUSH2 0x63F JUMPI DUP1 PUSH4 0x96ED6B85 EQ PUSH2 0x65F JUMPI DUP1 PUSH4 0x9F4E8398 EQ PUSH2 0x675 JUMPI DUP1 PUSH4 0xA0B6105F EQ PUSH2 0x695 JUMPI DUP1 PUSH4 0xA1B80175 EQ PUSH2 0x6B5 JUMPI DUP1 PUSH4 0xA28A3686 EQ PUSH2 0x6D9 JUMPI DUP1 PUSH4 0xAF2F39D1 EQ PUSH2 0x6F9 JUMPI DUP1 PUSH4 0xB47181D3 EQ PUSH2 0x713 JUMPI DUP1 PUSH4 0xB92D18C1 EQ PUSH2 0x733 JUMPI DUP1 PUSH4 0xBC09161B EQ PUSH2 0x746 JUMPI PUSH1 0x0 DUP1 REVERT JUMPDEST DUP1 PUSH4 0x473B0D46 GT PUSH2 0x1EF JUMPI DUP1 PUSH4 0x473B0D46 EQ PUSH2 0x441 JUMPI DUP1 PUSH4 0x49B32504 EQ PUSH2 0x461 JUMPI DUP1 PUSH4 0x4F1EF286 EQ PUSH2 0x481 JUMPI DUP1 PUSH4 0x52D1902D EQ PUSH2 0x494 JUMPI DUP1 PUSH4 0x538FFE0C EQ PUSH2 0x4A9 JUMPI DUP1 PUSH4 0x5E701D86 EQ PUSH2 0x4F2 JUMPI DUP1 PUSH4 0x6DC8AFC5 EQ PUSH2 0x52B JUMPI DUP1 PUSH4 0x704B6C02 EQ PUSH2 0x541 JUMPI DUP1 PUSH4 0x70D9E081 EQ PUSH2 0x561 JUMPI DUP1 PUSH4 0x715018A6 EQ PUSH2 0x581 JUMPI DUP1 PUSH4 0x76A68E84 EQ PUSH2 0x596 JUMPI DUP1 PUSH4 0x7879B5EF EQ PUSH2 0x5B6 JUMPI DUP1 PUSH4 0x7A026935 EQ PUSH2 0x5D6 JUMPI PUSH1 0x0 DUP1 REVERT JUMPDEST DUP1 PUSH4 0x9DE82CD EQ PUSH2 0x28F JUMPI DUP1 PUSH4 0xB243DAD EQ PUSH2 0x2B8 JUMPI DUP1 PUSH4 0xEFDBB6A EQ PUSH2 0x2DA JUMPI DUP1 PUSH4 0x14BFD6D0 EQ PUSH2 0x2FA JUMPI DUP1 PUSH4 0x18E10BFF EQ PUSH2 0x332 JUMPI DUP1 PUSH4 0x1DC209FF EQ PUSH2 0x35E JUMPI DUP1 PUSH4 0x1F7F83BA EQ PUSH2 0x374 JUMPI DUP1 PUSH4 0x22F88B52 EQ PUSH2 0x394 JUMPI DUP1 PUSH4 0x2913497B EQ PUSH2 0x3AA JUMPI DUP1 PUSH4 0x2ED421D2 EQ PUSH2 0x3C8 JUMPI DUP1 PUSH4 0x313CE567 EQ PUSH2 0x3DE JUMPI DUP1 PUSH4 0x35759788 EQ PUSH2 0x40C JUMPI DUP1 PUSH4 0x3659CFE6 EQ PUSH2 0x421 JUMPI PUSH1 0x0 DUP1 REVERT JUMPDEST CALLDATASIZE PUSH2 0x28A JUMPI STOP JUMPDEST PUSH1 0x0 DUP1 REVERT JUMPDEST CALLVALUE DUP1 ISZERO PUSH2 0x29B JUMPI PUSH1 0x0 DUP1 REVERT JUMPDEST POP PUSH2 0x2A5 PUSH1 0xCE SLOAD DUP2 JUMP JUMPDEST PUSH1 0x40 MLOAD SWAP1 DUP2 MSTORE PUSH1 0x20 ADD JUMPDEST PUSH1 0x40 MLOAD DUP1 SWAP2 SUB SWAP1 RETURN JUMPDEST CALLVALUE DUP1 ISZERO PUSH2 0x2C4 JUMPI PUSH1 0x0 DUP1 REVERT JUMPDEST POP PUSH2 0x2D8 PUSH2 0x2D3 CALLDATASIZE PUSH1 0x4 PUSH2 0x4E15 JUMP JUMPDEST PUSH2 0x9F6 JUMP JUMPDEST STOP JUMPDEST CALLVALUE DUP1 ISZERO PUSH2 0x2E6 JUMPI PUSH1 0x0 DUP1 REVERT JUMPDEST POP PUSH2 0x2D8 PUSH2 0x2F5 CALLDATASIZE PUSH1 0x4 PUSH2 0x4E3F JUMP JUMPDEST PUSH2 0xA39 JUMP JUMPDEST CALLVALUE DUP1 ISZERO PUSH2 0x306 JUMPI PUSH1 0x0 DUP1 REVERT JUMPDEST POP PUSH2 0x31A PUSH2 0x315 CALLDATASIZE PUSH1 0x4 PUSH2 0x4E5A JUMP JUMPDEST PUSH2 0xB1B JUMP JUMPDEST PUSH1 0x40 MLOAD PUSH1 0x1 PUSH1 0x1 PUSH1 0xA0 SHL SUB SWAP1 SWAP2 AND DUP2 MSTORE PUSH1 0x20 ADD PUSH2 0x2AF JUMP JUMPDEST CALLVALUE DUP1 ISZERO PUSH2 0x33E JUMPI PUSH1 0x0 DUP1 REVERT JUMPDEST POP PUSH1 0xD9 SLOAD PUSH2 0x34C SWAP1 PUSH1 0xFF AND DUP2 JUMP JUMPDEST PUSH1 0x40 MLOAD PUSH1 0xFF SWAP1 SWAP2 AND DUP2 MSTORE PUSH1 0x20 ADD PUSH2 0x2AF JUMP JUMPDEST CALLVALUE DUP1 ISZERO PUSH2 0x36A JUMPI PUSH1 0x0 DUP1 REVERT JUMPDEST POP PUSH2 0x2A5 PUSH1 0xCF SLOAD DUP2 JUMP JUMPDEST CALLVALUE DUP1 ISZERO PUSH2 0x380 JUMPI PUSH1 0x0 DUP1 REVERT JUMPDEST POP PUSH2 0x31A PUSH2 0x38F CALLDATASIZE PUSH1 0x4 PUSH2 0x4E5A JUMP JUMPDEST PUSH2 0xB45 JUMP JUMPDEST CALLVALUE DUP1 ISZERO PUSH2 0x3A0 JUMPI PUSH1 0x0 DUP1 REVERT JUMPDEST POP PUSH2 0x2A5 PUSH1 0xD5 SLOAD DUP2 JUMP JUMPDEST CALLVALUE DUP1 ISZERO PUSH2 0x3B6 JUMPI PUSH1 0x0 DUP1 REVERT JUMPDEST POP PUSH1 0xC9 SLOAD PUSH1 0x1 PUSH1 0x1 PUSH1 0xA0 SHL SUB AND PUSH2 0x31A JUMP JUMPDEST CALLVALUE DUP1 ISZERO PUSH2 0x3D4 JUMPI PUSH1 0x0 DUP1 REVERT JUMPDEST POP PUSH2 0x2A5 PUSH1 0xD6 SLOAD DUP2 JUMP JUMPDEST CALLVALUE DUP1 ISZERO PUSH2 0x3EA JUMPI PUSH1 0x0 DUP1 REVERT JUMPDEST POP PUSH1 0xCB SLOAD PUSH2 0x3F9 SWAP1 PUSH2 0xFFFF AND DUP2 JUMP JUMPDEST PUSH1 0x40 MLOAD PUSH2 0xFFFF SWAP1 SWAP2 AND DUP2 MSTORE PUSH1 0x20 ADD PUSH2 0x2AF JUMP JUMPDEST CALLVALUE DUP1 ISZERO PUSH2 0x418 JUMPI PUSH1 0x0 DUP1 REVERT JUMPDEST POP PUSH2 0x2D8 PUSH2 0xB55 JUMP JUMPDEST CALLVALUE DUP1 ISZERO PUSH2 0x42D JUMPI PUSH1 0x0 DUP1 REVERT JUMPDEST POP PUSH2 0x2D8 PUSH2 0x43C CALLDATASIZE PUSH1 0x4 PUSH2 0x4E3F JUMP JUMPDEST PUSH2 0xB8C JUMP JUMPDEST CALLVALUE DUP1 ISZERO PUSH2 0x44D JUMPI PUSH1 0x0 DUP1 REVERT JUMPDEST POP PUSH2 0x2D8 PUSH2 0x45C CALLDATASIZE PUSH1 0x4 PUSH2 0x4E5A JUMP JUMPDEST PUSH2 0xC51 JUMP JUMPDEST CALLVALUE DUP1 ISZERO PUSH2 0x46D JUMPI PUSH1 0x0 DUP1 REVERT JUMPDEST POP PUSH2 0x2D8 PUSH2 0x47C CALLDATASIZE PUSH1 0x4 PUSH2 0x4EBE JUMP JUMPDEST PUSH2 0xC5E JUMP JUMPDEST PUSH2 0x2D8 PUSH2 0x48F CALLDATASIZE PUSH1 0x4 PUSH2 0x4F9C JUMP JUMPDEST PUSH2 0xFA9 JUMP JUMPDEST CALLVALUE DUP1 ISZERO PUSH2 0x4A0 JUMPI PUSH1 0x0 DUP1 REVERT JUMPDEST POP PUSH2 0x2A5 PUSH2 0x105E JUMP JUMPDEST CALLVALUE DUP1 ISZERO PUSH2 0x4B5 JUMPI PUSH1 0x0 DUP1 REVERT JUMPDEST POP PUSH2 0x4E2 PUSH2 0x4C4 CALLDATASIZE PUSH1 0x4 PUSH2 0x4E3F JUMP JUMPDEST PUSH1 0x1 PUSH1 0x1 PUSH1 0xA0 SHL SUB AND PUSH1 0x0 SWAP1 DUP2 MSTORE PUSH1 0xDA PUSH1 0x20 MSTORE PUSH1 0x40 SWAP1 KECCAK256 SLOAD PUSH1 0xFF AND SWAP1 JUMP JUMPDEST PUSH1 0x40 MLOAD SWAP1 ISZERO ISZERO DUP2 MSTORE PUSH1 0x20 ADD PUSH2 0x2AF JUMP JUMPDEST CALLVALUE DUP1 ISZERO PUSH2 0x4FE JUMPI PUSH1 0x0 DUP1 REVERT JUMPDEST POP PUSH1 0xD1 SLOAD PUSH2 0x516 SWAP1 PUSH1 0x1 PUSH1 0x20 SHL SWAP1 DIV PUSH4 0xFFFFFFFF AND DUP2 JUMP JUMPDEST PUSH1 0x40 MLOAD PUSH4 0xFFFFFFFF SWAP1 SWAP2 AND DUP2 MSTORE PUSH1 0x20 ADD PUSH2 0x2AF JUMP JUMPDEST CALLVALUE DUP1 ISZERO PUSH2 0x537 JUMPI PUSH1 0x0 DUP1 REVERT JUMPDEST POP PUSH2 0x2A5 PUSH1 0xD0 SLOAD DUP2 JUMP JUMPDEST CALLVALUE DUP1 ISZERO PUSH2 0x54D JUMPI PUSH1 0x0 DUP1 REVERT JUMPDEST POP PUSH2 0x2D8 PUSH2 0x55C CALLDATASIZE PUSH1 0x4 PUSH2 0x4E3F JUMP JUMPDEST PUSH2 0x110C JUMP JUMPDEST CALLVALUE DUP1 ISZERO PUSH2 0x56D JUMPI PUSH1 0x0 DUP1 REVERT JUMPDEST POP PUSH2 0x2D8 PUSH2 0x57C CALLDATASIZE PUSH1 0x4 PUSH2 0x5011 JUMP JUMPDEST PUSH2 0x1166 JUMP JUMPDEST CALLVALUE DUP1 ISZERO PUSH2 0x58D JUMPI PUSH1 0x0 DUP1 REVERT JUMPDEST POP PUSH2 0x2D8 PUSH2 0x123F JUMP JUMPDEST CALLVALUE DUP1 ISZERO PUSH2 0x5A2 JUMPI PUSH1 0x0 DUP1 REVERT JUMPDEST POP PUSH2 0x2A5 PUSH2 0x5B1 CALLDATASIZE PUSH1 0x4 PUSH2 0x5011 JUMP JUMPDEST PUSH2 0x1253 JUMP JUMPDEST CALLVALUE DUP1 ISZERO PUSH2 0x5C2 JUMPI PUSH1 0x0 DUP1 REVERT JUMPDEST POP PUSH2 0x3F9 PUSH2 0x5D1 CALLDATASIZE PUSH1 0x4 PUSH2 0x4E5A JUMP JUMPDEST PUSH2 0x1664 JUMP JUMPDEST CALLVALUE DUP1 ISZERO PUSH2 0x5E2 JUMPI PUSH1 0x0 DUP1 REVERT JUMPDEST POP PUSH2 0x2A5 PUSH1 0xCD SLOAD DUP2 JUMP JUMPDEST CALLVALUE DUP1 ISZERO PUSH2 0x5F8 JUMPI PUSH1 0x0 DUP1 REVERT JUMPDEST POP PUSH2 0x2D8 PUSH2 0x607 CALLDATASIZE PUSH1 0x4 PUSH2 0x4EBE JUMP JUMPDEST PUSH2 0x169C JUMP JUMPDEST CALLVALUE DUP1 ISZERO PUSH2 0x618 JUMPI PUSH1 0x0 DUP1 REVERT JUMPDEST POP PUSH2 0x2D8 PUSH2 0x17E3 JUMP JUMPDEST CALLVALUE DUP1 ISZERO PUSH2 0x62D JUMPI PUSH1 0x0 DUP1 REVERT JUMPDEST POP PUSH1 0x33 SLOAD PUSH1 0x1 PUSH1 0x1 PUSH1 0xA0 SHL SUB AND PUSH2 0x31A JUMP JUMPDEST CALLVALUE DUP1 ISZERO PUSH2 0x64B JUMPI PUSH1 0x0 DUP1 REVERT JUMPDEST POP PUSH1 0xCB SLOAD PUSH2 0x34C SWAP1 PUSH3 0x10000 SWAP1 DIV PUSH1 0xFF AND DUP2 JUMP JUMPDEST CALLVALUE DUP1 ISZERO PUSH2 0x66B JUMPI PUSH1 0x0 DUP1 REVERT JUMPDEST POP PUSH2 0x2A5 PUSH1 0xCC SLOAD DUP2 JUMP JUMPDEST CALLVALUE DUP1 ISZERO PUSH2 0x681 JUMPI PUSH1 0x0 DUP1 REVERT JUMPDEST POP PUSH2 0x2D8 PUSH2 0x690 CALLDATASIZE PUSH1 0x4 PUSH2 0x4E3F JUMP JUMPDEST PUSH2 0x1A88 JUMP JUMPDEST CALLVALUE DUP1 ISZERO PUSH2 0x6A1 JUMPI PUSH1 0x0 DUP1 REVERT JUMPDEST POP PUSH2 0x2D8 PUSH2 0x6B0 CALLDATASIZE PUSH1 0x4 PUSH2 0x4E15 JUMP JUMPDEST PUSH2 0x1BA4 JUMP JUMPDEST CALLVALUE DUP1 ISZERO PUSH2 0x6C1 JUMPI PUSH1 0x0 DUP1 REVERT JUMPDEST POP PUSH1 0xD1 SLOAD PUSH2 0x516 SWAP1 PUSH1 0x1 PUSH1 0x40 SHL SWAP1 DIV PUSH4 0xFFFFFFFF AND DUP2 JUMP JUMPDEST CALLVALUE DUP1 ISZERO PUSH2 0x6E5 JUMPI PUSH1 0x0 DUP1 REVERT JUMPDEST POP PUSH1 0xD4 SLOAD PUSH2 0x34C SWAP1 PUSH3 0x10000 SWAP1 DIV PUSH1 0xFF AND DUP2 JUMP JUMPDEST CALLVALUE DUP1 ISZERO PUSH2 0x705 JUMPI PUSH1 0x0 DUP1 REVERT JUMPDEST POP PUSH1 0xD4 SLOAD PUSH2 0x4E2 SWAP1 PUSH1 0xFF AND DUP2 JUMP JUMPDEST CALLVALUE DUP1 ISZERO PUSH2 0x71F JUMPI PUSH1 0x0 DUP1 REVERT JUMPDEST POP PUSH2 0x2A5 PUSH2 0x72E CALLDATASIZE PUSH1 0x4 PUSH2 0x5011 JUMP JUMPDEST PUSH2 0x1C1D JUMP JUMPDEST PUSH2 0x2D8 PUSH2 0x741 CALLDATASIZE PUSH1 0x4 PUSH2 0x5011 JUMP JUMPDEST PUSH2 0x202B JUMP JUMPDEST CALLVALUE DUP1 ISZERO PUSH2 0x752 JUMPI PUSH1 0x0 DUP1 REVERT JUMPDEST POP PUSH2 0x2D8 PUSH2 0x761 CALLDATASIZE PUSH1 0x4 PUSH2 0x502C JUMP JUMPDEST PUSH2 0x2143 JUMP JUMPDEST CALLVALUE DUP1 ISZERO PUSH2 0x772 JUMPI PUSH1 0x0 DUP1 REVERT JUMPDEST POP PUSH2 0x2A5 PUSH2 0x781 CALLDATASIZE PUSH1 0x4 PUSH2 0x5011 JUMP JUMPDEST PUSH2 0x24CF JUMP JUMPDEST CALLVALUE DUP1 ISZERO PUSH2 0x792 JUMPI PUSH1 0x0 DUP1 REVERT JUMPDEST POP PUSH1 0xD1 SLOAD PUSH2 0x516 SWAP1 PUSH4 0xFFFFFFFF AND DUP2 JUMP JUMPDEST CALLVALUE DUP1 ISZERO PUSH2 0x7AF JUMPI PUSH1 0x0 DUP1 REVERT JUMPDEST POP PUSH2 0x85C PUSH2 0x7BE CALLDATASIZE PUSH1 0x4 PUSH2 0x5011 JUMP JUMPDEST PUSH1 0x40 DUP1 MLOAD PUSH1 0xC0 DUP2 ADD DUP3 MSTORE PUSH1 0x0 DUP1 DUP3 MSTORE PUSH1 0x20 DUP3 ADD DUP2 SWAP1 MSTORE SWAP2 DUP2 ADD DUP3 SWAP1 MSTORE PUSH1 0x60 DUP2 ADD DUP3 SWAP1 MSTORE PUSH1 0x80 DUP2 ADD DUP3 SWAP1 MSTORE PUSH1 0xA0 DUP2 ADD SWAP2 SWAP1 SWAP2 MSTORE POP PUSH4 0xFFFFFFFF SWAP1 DUP2 AND PUSH1 0x0 SWAP1 DUP2 MSTORE PUSH1 0xDC PUSH1 0x20 SWAP1 DUP2 MSTORE PUSH1 0x40 SWAP2 DUP3 SWAP1 KECCAK256 DUP3 MLOAD PUSH1 0xC0 DUP2 ADD DUP5 MSTORE DUP2 SLOAD PUSH1 0xFF DUP2 AND ISZERO ISZERO DUP3 MSTORE PUSH2 0x100 SWAP1 DIV SWAP1 SWAP5 AND SWAP2 DUP5 ADD SWAP2 SWAP1 SWAP2 MSTORE PUSH1 0x1 DUP2 ADD SLOAD SWAP2 DUP4 ADD SWAP2 SWAP1 SWAP2 MSTORE PUSH1 0x2 DUP2 ADD SLOAD PUSH2 0xFFFF AND PUSH1 0x60 DUP4 ADD MSTORE PUSH1 0x3 DUP2 ADD SLOAD PUSH1 0x80 DUP4 ADD MSTORE PUSH1 0x4 ADD SLOAD PUSH1 0xA0 DUP3 ADD MSTORE SWAP1 JUMP JUMPDEST PUSH1 0x40 MLOAD PUSH2 0x2AF SWAP2 SWAP1 PUSH1 0x0 PUSH1 0xC0 DUP3 ADD SWAP1 POP DUP3 MLOAD ISZERO ISZERO DUP3 MSTORE PUSH4 0xFFFFFFFF PUSH1 0x20 DUP5 ADD MLOAD AND PUSH1 0x20 DUP4 ADD MSTORE PUSH1 0x40 DUP4 ADD MLOAD PUSH1 0x40 DUP4 ADD MSTORE PUSH2 0xFFFF PUSH1 0x60 DUP5 ADD MLOAD AND PUSH1 0x60 DUP4 ADD MSTORE PUSH1 0x80 DUP4 ADD MLOAD PUSH1 0x80 DUP4 ADD MSTORE PUSH1 0xA0 DUP4 ADD MLOAD PUSH1 0xA0 DUP4 ADD MSTORE SWAP3 SWAP2 POP POP JUMP JUMPDEST CALLVALUE DUP1 ISZERO PUSH2 0x8C0 JUMPI PUSH1 0x0 DUP1 REVERT JUMPDEST POP PUSH2 0x2D8 PUSH2 0x8CF CALLDATASIZE PUSH1 0x4 PUSH2 0x5188 JUMP JUMPDEST PUSH2 0x2533 JUMP JUMPDEST CALLVALUE DUP1 ISZERO PUSH2 0x8E0 JUMPI PUSH1 0x0 DUP1 REVERT JUMPDEST POP PUSH2 0x2D8 PUSH2 0x8EF CALLDATASIZE PUSH1 0x4 PUSH2 0x4E3F JUMP JUMPDEST PUSH2 0x274E JUMP JUMPDEST PUSH2 0x2D8 PUSH2 0x902 CALLDATASIZE PUSH1 0x4 PUSH2 0x5011 JUMP JUMPDEST PUSH2 0x2923 JUMP JUMPDEST CALLVALUE DUP1 ISZERO PUSH2 0x913 JUMPI PUSH1 0x0 DUP1 REVERT JUMPDEST POP PUSH2 0x2A5 PUSH2 0x922 CALLDATASIZE PUSH1 0x4 PUSH2 0x5011 JUMP JUMPDEST PUSH2 0x2A93 JUMP JUMPDEST CALLVALUE DUP1 ISZERO PUSH2 0x933 JUMPI PUSH1 0x0 DUP1 REVERT JUMPDEST POP PUSH2 0x2D8 PUSH2 0x942 CALLDATASIZE PUSH1 0x4 PUSH2 0x4E3F JUMP JUMPDEST PUSH2 0x2BAA JUMP JUMPDEST CALLVALUE DUP1 ISZERO PUSH2 0x953 JUMPI PUSH1 0x0 DUP1 REVERT JUMPDEST POP PUSH2 0x2D8 PUSH2 0x962 CALLDATASIZE PUSH1 0x4 PUSH2 0x52C5 JUMP JUMPDEST PUSH2 0x2C20 JUMP JUMPDEST CALLVALUE DUP1 ISZERO PUSH2 0x973 JUMPI PUSH1 0x0 DUP1 REVERT JUMPDEST POP PUSH2 0x2A5 PUSH1 0xD7 SLOAD DUP2 JUMP JUMPDEST CALLVALUE DUP1 ISZERO PUSH2 0x989 JUMPI PUSH1 0x0 DUP1 REVERT JUMPDEST POP PUSH2 0x99D PUSH2 0x998 CALLDATASIZE PUSH1 0x4 PUSH2 0x5011 JUMP JUMPDEST PUSH2 0x2D3C JUMP JUMPDEST PUSH1 0x40 MLOAD PUSH2 0x2AF SWAP2 SWAP1 PUSH2 0x5372 JUMP JUMPDEST CALLVALUE DUP1 ISZERO PUSH2 0x9B6 JUMPI PUSH1 0x0 DUP1 REVERT JUMPDEST POP PUSH1 0xD4 SLOAD PUSH2 0x4E2 SWAP1 PUSH2 0x100 SWAP1 DIV PUSH1 0xFF AND DUP2 JUMP JUMPDEST CALLVALUE DUP1 ISZERO PUSH2 0x9D5 JUMPI PUSH1 0x0 DUP1 REVERT JUMPDEST POP PUSH2 0x9E9 PUSH2 0x9E4 CALLDATASIZE PUSH1 0x4 PUSH2 0x4E3F JUMP JUMPDEST PUSH2 0x323C JUMP JUMPDEST PUSH1 0x40 MLOAD PUSH2 0x2AF SWAP2 SWAP1 PUSH2 0x558F JUMP JUMPDEST PUSH2 0x9FE PUSH2 0x3307 JUMP JUMPDEST PUSH1 0x40 MLOAD PUSH1 0x1 PUSH1 0x1 PUSH1 0xA0 SHL SUB DUP4 AND SWAP1 DUP3 ISZERO PUSH2 0x8FC MUL SWAP1 DUP4 SWAP1 PUSH1 0x0 DUP2 DUP2 DUP2 DUP6 DUP9 DUP9 CALL SWAP4 POP POP POP POP ISZERO DUP1 ISZERO PUSH2 0xA34 JUMPI RETURNDATASIZE PUSH1 0x0 DUP1 RETURNDATACOPY RETURNDATASIZE PUSH1 0x0 REVERT JUMPDEST POP POP POP JUMP JUMPDEST PUSH1 0x0 JUMPDEST PUSH1 0xDE SLOAD PUSH1 0xFF DUP3 AND LT ISZERO PUSH2 0xB17 JUMPI PUSH1 0xDE DUP2 PUSH1 0xFF AND DUP2 SLOAD DUP2 LT PUSH2 0xA5F JUMPI PUSH2 0xA5F PUSH2 0x55B6 JUMP JUMPDEST PUSH1 0x0 SWAP2 DUP3 MSTORE PUSH1 0x20 SWAP1 SWAP2 KECCAK256 ADD SLOAD PUSH1 0x1 PUSH1 0x1 PUSH1 0xA0 SHL SUB AND CALLER SUB PUSH2 0xA9B JUMPI PUSH1 0xC9 DUP1 SLOAD PUSH1 0x1 PUSH1 0x1 PUSH1 0xA0 SHL SUB DUP5 AND PUSH1 0x1 PUSH1 0x1 PUSH1 0xA0 SHL SUB NOT SWAP1 SWAP2 AND OR SWAP1 SSTORE POP POP JUMP JUMPDEST PUSH1 0xDE SLOAD PUSH2 0xAAA SWAP1 PUSH1 0x1 SWAP1 PUSH2 0x55E2 JUMP JUMPDEST DUP2 PUSH1 0xFF AND SUB PUSH2 0xB05 JUMPI PUSH1 0xDE DUP2 PUSH1 0xFF AND DUP2 SLOAD DUP2 LT PUSH2 0xAC9 JUMPI PUSH2 0xAC9 PUSH2 0x55B6 JUMP JUMPDEST PUSH1 0x0 SWAP2 DUP3 MSTORE PUSH1 0x20 SWAP1 SWAP2 KECCAK256 ADD SLOAD PUSH1 0x1 PUSH1 0x1 PUSH1 0xA0 SHL SUB AND CALLER EQ PUSH2 0xB05 JUMPI PUSH1 0x40 MLOAD PUSH3 0x461BCD PUSH1 0xE5 SHL DUP2 MSTORE PUSH1 0x4 ADD PUSH2 0xAFC SWAP1 PUSH2 0x55F5 JUMP JUMPDEST PUSH1 0x40 MLOAD DUP1 SWAP2 SUB SWAP1 REVERT JUMPDEST DUP1 PUSH2 0xB0F DUP2 PUSH2 0x5620 JUMP JUMPDEST SWAP2 POP POP PUSH2 0xA3C JUMP JUMPDEST POP POP JUMP JUMPDEST PUSH1 0xDE DUP2 DUP2 SLOAD DUP2 LT PUSH2 0xB2B JUMPI PUSH1 0x0 DUP1 REVERT JUMPDEST PUSH1 0x0 SWAP2 DUP3 MSTORE PUSH1 0x20 SWAP1 SWAP2 KECCAK256 ADD SLOAD PUSH1 0x1 PUSH1 0x1 PUSH1 0xA0 SHL SUB AND SWAP1 POP DUP2 JUMP JUMPDEST PUSH1 0xD8 DUP2 DUP2 SLOAD DUP2 LT PUSH2 0xB2B JUMPI PUSH1 0x0 DUP1 REVERT JUMPDEST PUSH2 0xB5D PUSH2 0x3307 JUMP JUMPDEST PUSH1 0x40 MLOAD CALLER SWAP1 SELFBALANCE DUP1 ISZERO PUSH2 0x8FC MUL SWAP2 PUSH1 0x0 DUP2 DUP2 DUP2 DUP6 DUP9 DUP9 CALL SWAP4 POP POP POP POP ISZERO DUP1 ISZERO PUSH2 0xB89 JUMPI RETURNDATASIZE PUSH1 0x0 DUP1 RETURNDATACOPY RETURNDATASIZE PUSH1 0x0 REVERT JUMPDEST POP JUMP JUMPDEST PUSH1 0x1 PUSH1 0x1 PUSH1 0xA0 SHL SUB PUSH32 0x0 AND ADDRESS SUB PUSH2 0xBD4 JUMPI PUSH1 0x40 MLOAD PUSH3 0x461BCD PUSH1 0xE5 SHL DUP2 MSTORE PUSH1 0x4 ADD PUSH2 0xAFC SWAP1 PUSH2 0x563F JUMP JUMPDEST PUSH32 0x0 PUSH1 0x1 PUSH1 0x1 PUSH1 0xA0 SHL SUB AND PUSH2 0xC06 PUSH2 0x3361 JUMP JUMPDEST PUSH1 0x1 PUSH1 0x1 PUSH1 0xA0 SHL SUB AND EQ PUSH2 0xC2C JUMPI PUSH1 0x40 MLOAD PUSH3 0x461BCD PUSH1 0xE5 SHL DUP2 MSTORE PUSH1 0x4 ADD PUSH2 0xAFC SWAP1 PUSH2 0x568B JUMP JUMPDEST PUSH2 0xC35 DUP2 PUSH2 0x337D JUMP JUMPDEST PUSH1 0x40 DUP1 MLOAD PUSH1 0x0 DUP1 DUP3 MSTORE PUSH1 0x20 DUP3 ADD SWAP1 SWAP3 MSTORE PUSH2 0xB89 SWAP2 DUP4 SWAP2 SWAP1 PUSH2 0x3385 JUMP JUMPDEST PUSH2 0xC59 PUSH2 0x3307 JUMP JUMPDEST PUSH1 0xCC SSTORE JUMP JUMPDEST PUSH1 0x0 JUMPDEST PUSH1 0xDE SLOAD PUSH1 0xFF DUP3 AND LT ISZERO PUSH2 0xA34 JUMPI PUSH1 0xDE DUP2 PUSH1 0xFF AND DUP2 SLOAD DUP2 LT PUSH2 0xC84 JUMPI PUSH2 0xC84 PUSH2 0x55B6 JUMP JUMPDEST PUSH1 0x0 SWAP2 DUP3 MSTORE PUSH1 0x20 SWAP1 SWAP2 KECCAK256 ADD SLOAD PUSH1 0x1 PUSH1 0x1 PUSH1 0xA0 SHL SUB AND CALLER SUB PUSH2 0xF36 JUMPI PUSH1 0x0 JUMPDEST PUSH4 0xFFFFFFFF DUP2 AND DUP4 GT ISZERO PUSH2 0xF30 JUMPI PUSH1 0x0 PUSH1 0xDB PUSH1 0x0 DUP7 DUP7 DUP6 PUSH4 0xFFFFFFFF AND DUP2 DUP2 LT PUSH2 0xCCE JUMPI PUSH2 0xCCE PUSH2 0x55B6 JUMP JUMPDEST SWAP1 POP PUSH1 0x20 MUL ADD PUSH1 0x20 DUP2 ADD SWAP1 PUSH2 0xCE3 SWAP2 SWAP1 PUSH2 0x5011 JUMP JUMPDEST PUSH4 0xFFFFFFFF AND DUP2 MSTORE PUSH1 0x20 DUP2 ADD SWAP2 SWAP1 SWAP2 MSTORE PUSH1 0x40 ADD PUSH1 0x0 SWAP1 DUP2 KECCAK256 PUSH1 0xCB SLOAD SWAP1 SWAP3 POP PUSH3 0x10000 SWAP1 DIV PUSH1 0xFF AND SWAP1 JUMPDEST DUP2 PUSH1 0xFF AND DUP2 PUSH4 0xFFFFFFFF AND LT ISZERO PUSH2 0xF1A JUMPI PUSH1 0x7 DUP4 ADD SLOAD PUSH4 0xFFFFFFFF SWAP1 DUP2 AND PUSH1 0x0 DUP2 DUP2 MSTORE PUSH1 0xDB PUSH1 0x20 MSTORE PUSH1 0x40 DUP2 KECCAK256 SWAP2 SWAP3 DUP5 AND SWAP1 SUB PUSH2 0xDB0 JUMPI DUP1 PUSH1 0x8 ADD DUP10 DUP10 DUP9 PUSH4 0xFFFFFFFF AND DUP2 DUP2 LT PUSH2 0xD5E JUMPI PUSH2 0xD5E PUSH2 0x55B6 JUMP JUMPDEST SWAP1 POP PUSH1 0x20 MUL ADD PUSH1 0x20 DUP2 ADD SWAP1 PUSH2 0xD73 SWAP2 SWAP1 PUSH2 0x5011 JUMP JUMPDEST DUP2 SLOAD PUSH1 0x1 DUP2 ADD DUP4 SSTORE PUSH1 0x0 SWAP3 DUP4 MSTORE PUSH1 0x20 SWAP1 SWAP3 KECCAK256 PUSH1 0x8 DUP4 DIV ADD DUP1 SLOAD PUSH1 0x7 SWAP1 SWAP4 AND PUSH1 0x4 MUL PUSH2 0x100 EXP PUSH4 0xFFFFFFFF DUP2 DUP2 MUL NOT SWAP1 SWAP5 AND SWAP3 SWAP1 SWAP4 AND SWAP3 SWAP1 SWAP3 MUL OR SWAP1 SSTORE JUMPDEST DUP5 SLOAD PUSH4 0xFFFFFFFF AND PUSH1 0x0 SUB PUSH2 0xDC6 JUMPI POP POP PUSH2 0xF1A JUMP JUMPDEST DUP1 PUSH1 0x9 ADD DUP10 DUP10 DUP9 PUSH4 0xFFFFFFFF AND DUP2 DUP2 LT PUSH2 0xDE2 JUMPI PUSH2 0xDE2 PUSH2 0x55B6 JUMP JUMPDEST SWAP1 POP PUSH1 0x20 MUL ADD PUSH1 0x20 DUP2 ADD SWAP1 PUSH2 0xDF7 SWAP2 SWAP1 PUSH2 0x5011 JUMP JUMPDEST DUP2 SLOAD PUSH1 0x1 DUP1 DUP3 ADD DUP5 SSTORE PUSH1 0x0 SWAP4 DUP5 MSTORE PUSH1 0x20 SWAP1 SWAP4 KECCAK256 PUSH1 0x8 DUP3 DIV ADD DUP1 SLOAD PUSH1 0x7 SWAP1 SWAP3 AND PUSH1 0x4 MUL PUSH2 0x100 EXP PUSH4 0xFFFFFFFF DUP2 DUP2 MUL NOT SWAP1 SWAP4 AND SWAP4 SWAP1 SWAP3 AND SWAP2 SWAP1 SWAP2 MUL SWAP2 SWAP1 SWAP2 OR SWAP1 SSTORE PUSH1 0xA DUP3 ADD SWAP1 PUSH2 0xE47 SWAP1 DUP6 SWAP1 PUSH2 0x56D7 JUMP JUMPDEST DUP2 SLOAD PUSH1 0x1 DUP2 ADD DUP4 SSTORE PUSH1 0x0 SWAP3 DUP4 MSTORE PUSH1 0x20 SWAP1 SWAP3 KECCAK256 PUSH1 0x8 DUP4 DIV ADD DUP1 SLOAD PUSH1 0x7 SWAP1 SWAP4 AND PUSH1 0x4 MUL PUSH2 0x100 EXP PUSH4 0xFFFFFFFF DUP2 DUP2 MUL NOT SWAP1 SWAP5 AND SWAP3 DUP5 AND MUL SWAP2 SWAP1 SWAP2 OR SWAP1 SSTORE DUP10 SWAP1 DUP10 SWAP1 DUP9 AND DUP2 DUP2 LT PUSH2 0xE97 JUMPI PUSH2 0xE97 PUSH2 0x55B6 JUMP JUMPDEST SWAP1 POP PUSH1 0x20 MUL ADD PUSH1 0x20 DUP2 ADD SWAP1 PUSH2 0xEAC SWAP2 SWAP1 PUSH2 0x5011 JUMP JUMPDEST PUSH1 0x2 DUP3 ADD SLOAD DUP3 SLOAD PUSH1 0x40 MLOAD PUSH4 0xFFFFFFFF SWAP2 DUP3 AND DUP2 MSTORE SWAP3 DUP2 AND SWAP3 SWAP1 DUP6 AND SWAP2 PUSH2 0x100 SWAP1 DIV PUSH1 0x1 PUSH1 0x1 PUSH1 0xA0 SHL SUB AND SWAP1 PUSH32 0xA7FAFC728EC30E34DC1E1276496BF3EB44CA7494679DA969455289E6A8F0F1F6 SWAP1 PUSH1 0x20 ADD PUSH1 0x40 MLOAD DUP1 SWAP2 SUB SWAP1 LOG4 SWAP4 POP DUP2 SWAP1 POP PUSH2 0xF12 DUP2 PUSH2 0x56FB JUMP JUMPDEST SWAP2 POP POP PUSH2 0xD0C JUMP JUMPDEST POP POP POP DUP1 DUP1 PUSH2 0xF28 SWAP1 PUSH2 0x56FB JUMP JUMPDEST SWAP2 POP POP PUSH2 0xCA2 JUMP JUMPDEST POP POP POP POP JUMP JUMPDEST PUSH1 0xDE SLOAD PUSH2 0xF45 SWAP1 PUSH1 0x1 SWAP1 PUSH2 0x55E2 JUMP JUMPDEST DUP2 PUSH1 0xFF AND SUB PUSH2 0xF97 JUMPI PUSH1 0xDE DUP2 PUSH1 0xFF AND DUP2 SLOAD DUP2 LT PUSH2 0xF64 JUMPI PUSH2 0xF64 PUSH2 0x55B6 JUMP JUMPDEST PUSH1 0x0 SWAP2 DUP3 MSTORE PUSH1 0x20 SWAP1 SWAP2 KECCAK256 ADD SLOAD PUSH1 0x1 PUSH1 0x1 PUSH1 0xA0 SHL SUB AND CALLER EQ PUSH2 0xF97 JUMPI PUSH1 0x40 MLOAD PUSH3 0x461BCD PUSH1 0xE5 SHL DUP2 MSTORE PUSH1 0x4 ADD PUSH2 0xAFC SWAP1 PUSH2 0x55F5 JUMP JUMPDEST DUP1 PUSH2 0xFA1 DUP2 PUSH2 0x5620 JUMP JUMPDEST SWAP2 POP POP PUSH2 0xC61 JUMP JUMPDEST PUSH1 0x1 PUSH1 0x1 PUSH1 0xA0 SHL SUB PUSH32 0x0 AND ADDRESS SUB PUSH2 0xFF1 JUMPI PUSH1 0x40 MLOAD PUSH3 0x461BCD PUSH1 0xE5 SHL DUP2 MSTORE PUSH1 0x4 ADD PUSH2 0xAFC SWAP1 PUSH2 0x563F JUMP JUMPDEST PUSH32 0x0 PUSH1 0x1 PUSH1 0x1 PUSH1 0xA0 SHL SUB AND PUSH2 0x1023 PUSH2 0x3361 JUMP JUMPDEST PUSH1 0x1 PUSH1 0x1 PUSH1 0xA0 SHL SUB AND EQ PUSH2 0x1049 JUMPI PUSH1 0x40 MLOAD PUSH3 0x461BCD PUSH1 0xE5 SHL DUP2 MSTORE PUSH1 0x4 ADD PUSH2 0xAFC SWAP1 PUSH2 0x568B JUMP JUMPDEST PUSH2 0x1052 DUP3 PUSH2 0x337D JUMP JUMPDEST PUSH2 0xB17 DUP3 DUP3 PUSH1 0x1 PUSH2 0x3385 JUMP JUMPDEST PUSH1 0x0 ADDRESS PUSH1 0x1 PUSH1 0x1 PUSH1 0xA0 SHL SUB PUSH32 0x0 AND EQ PUSH2 0x10F9 JUMPI PUSH1 0x40 MLOAD PUSH3 0x461BCD PUSH1 0xE5 SHL DUP2 MSTORE PUSH1 0x20 PUSH1 0x4 DUP3 ADD MSTORE PUSH1 0x38 PUSH1 0x24 DUP3 ADD MSTORE PUSH32 0x555550535570677261646561626C653A206D757374206E6F742062652063616C PUSH1 0x44 DUP3 ADD MSTORE PUSH24 0x1B1959081D1A1C9BDD59DA0819195B1959D85D1958D85B1B PUSH1 0x42 SHL PUSH1 0x64 DUP3 ADD MSTORE PUSH1 0x84 ADD PUSH2 0xAFC JUMP JUMPDEST POP PUSH1 0x0 DUP1 MLOAD PUSH1 0x20 PUSH2 0x59DC DUP4 CODECOPY DUP2 MLOAD SWAP2 MSTORE SWAP1 JUMP JUMPDEST PUSH2 0x1114 PUSH2 0x3307 JUMP JUMPDEST PUSH1 0xDE DUP1 SLOAD PUSH1 0x1 DUP2 ADD DUP3 SSTORE PUSH1 0x0 SWAP2 SWAP1 SWAP2 MSTORE PUSH32 0xFAE8130C0619F84B4B44F01B84806F04E82E536D70E05F2356977FA318AECC1A ADD DUP1 SLOAD PUSH1 0x1 PUSH1 0x1 PUSH1 0xA0 SHL SUB NOT AND PUSH1 0x1 PUSH1 0x1 PUSH1 0xA0 SHL SUB SWAP3 SWAP1 SWAP3 AND SWAP2 SWAP1 SWAP2 OR SWAP1 SSTORE JUMP JUMPDEST PUSH1 0x0 JUMPDEST PUSH1 0xDE SLOAD PUSH1 0xFF DUP3 AND LT ISZERO PUSH2 0xB17 JUMPI PUSH1 0xDE DUP2 PUSH1 0xFF AND DUP2 SLOAD DUP2 LT PUSH2 0x118C JUMPI PUSH2 0x118C PUSH2 0x55B6 JUMP JUMPDEST PUSH1 0x0 SWAP2 DUP3 MSTORE PUSH1 0x20 SWAP1 SWAP2 KECCAK256 ADD SLOAD PUSH1 0x1 PUSH1 0x1 PUSH1 0xA0 SHL SUB AND CALLER SUB PUSH2 0x11CC JUMPI PUSH1 0xD1 DUP1 SLOAD PUSH4 0xFFFFFFFF DUP5 AND PUSH1 0x1 PUSH1 0x20 SHL MUL PUSH8 0xFFFFFFFF00000000 NOT SWAP1 SWAP2 AND OR SWAP1 SSTORE POP POP JUMP JUMPDEST PUSH1 0xDE SLOAD PUSH2 0x11DB SWAP1 PUSH1 0x1 SWAP1 PUSH2 0x55E2 JUMP JUMPDEST DUP2 PUSH1 0xFF AND SUB PUSH2 0x122D JUMPI PUSH1 0xDE DUP2 PUSH1 0xFF AND DUP2 SLOAD DUP2 LT PUSH2 0x11FA JUMPI PUSH2 0x11FA PUSH2 0x55B6 JUMP JUMPDEST PUSH1 0x0 SWAP2 DUP3 MSTORE PUSH1 0x20 SWAP1 SWAP2 KECCAK256 ADD SLOAD PUSH1 0x1 PUSH1 0x1 PUSH1 0xA0 SHL SUB AND CALLER EQ PUSH2 0x122D JUMPI PUSH1 0x40 MLOAD PUSH3 0x461BCD PUSH1 0xE5 SHL DUP2 MSTORE PUSH1 0x4 ADD PUSH2 0xAFC SWAP1 PUSH2 0x55F5 JUMP JUMPDEST DUP1 PUSH2 0x1237 DUP2 PUSH2 0x5620 JUMP JUMPDEST SWAP2 POP POP PUSH2 0x1169 JUMP JUMPDEST PUSH2 0x1247 PUSH2 0x3307 JUMP JUMPDEST PUSH2 0x1251 PUSH1 0x0 PUSH2 0x34F0 JUMP JUMPDEST JUMP JUMPDEST PUSH4 0xFFFFFFFF DUP1 DUP3 AND PUSH1 0x0 SWAP1 DUP2 MSTORE PUSH1 0xDB PUSH1 0x20 SWAP1 DUP2 MSTORE PUSH1 0x40 DUP1 DUP4 KECCAK256 DUP2 MLOAD PUSH2 0x3E0 DUP2 ADD SWAP1 SWAP3 MSTORE DUP1 SLOAD SWAP1 SWAP5 AND DUP2 MSTORE PUSH1 0x1 DUP5 ADD DUP1 SLOAD SWAP4 SWAP5 DUP6 SWAP5 SWAP3 SWAP4 SWAP1 SWAP3 SWAP1 DUP5 ADD SWAP2 SWAP1 PUSH2 0x1299 SWAP1 PUSH2 0x571E JUMP JUMPDEST DUP1 PUSH1 0x1F ADD PUSH1 0x20 DUP1 SWAP2 DIV MUL PUSH1 0x20 ADD PUSH1 0x40 MLOAD SWAP1 DUP2 ADD PUSH1 0x40 MSTORE DUP1 SWAP3 SWAP2 SWAP1 DUP2 DUP2 MSTORE PUSH1 0x20 ADD DUP3 DUP1 SLOAD PUSH2 0x12C5 SWAP1 PUSH2 0x571E JUMP JUMPDEST DUP1 ISZERO PUSH2 0x1312 JUMPI DUP1 PUSH1 0x1F LT PUSH2 0x12E7 JUMPI PUSH2 0x100 DUP1 DUP4 SLOAD DIV MUL DUP4 MSTORE SWAP2 PUSH1 0x20 ADD SWAP2 PUSH2 0x1312 JUMP JUMPDEST DUP3 ADD SWAP2 SWAP1 PUSH1 0x0 MSTORE PUSH1 0x20 PUSH1 0x0 KECCAK256 SWAP1 JUMPDEST DUP2 SLOAD DUP2 MSTORE SWAP1 PUSH1 0x1 ADD SWAP1 PUSH1 0x20 ADD DUP1 DUP4 GT PUSH2 0x12F5 JUMPI DUP3 SWAP1 SUB PUSH1 0x1F AND DUP3 ADD SWAP2 JUMPDEST POP POP POP SWAP2 DUP4 MSTORE POP POP PUSH1 0x2 DUP3 ADD SLOAD PUSH1 0xFF DUP2 AND ISZERO ISZERO PUSH1 0x20 DUP1 DUP5 ADD SWAP2 SWAP1 SWAP2 MSTORE PUSH2 0x100 SWAP1 SWAP2 DIV PUSH1 0x1 PUSH1 0x1 PUSH1 0xA0 SHL SUB AND PUSH1 0x40 DUP1 DUP5 ADD SWAP2 SWAP1 SWAP2 MSTORE PUSH1 0x3 DUP5 ADD SLOAD PUSH1 0x60 DUP5 ADD MSTORE PUSH1 0x4 DUP5 ADD SLOAD PUSH1 0x80 DUP5 ADD MSTORE PUSH1 0x5 DUP5 ADD SLOAD PUSH1 0xA0 DUP5 ADD MSTORE PUSH1 0x6 DUP5 ADD DUP1 SLOAD DUP3 MLOAD DUP2 DUP6 MUL DUP2 ADD DUP6 ADD SWAP1 SWAP4 MSTORE DUP1 DUP4 MSTORE PUSH1 0xC0 SWAP1 SWAP5 ADD SWAP4 SWAP2 SWAP3 SWAP1 SWAP2 SWAP1 DUP4 ADD DUP3 DUP3 DUP1 ISZERO PUSH2 0x13DF JUMPI PUSH1 0x20 MUL DUP3 ADD SWAP2 SWAP1 PUSH1 0x0 MSTORE PUSH1 0x20 PUSH1 0x0 KECCAK256 SWAP1 PUSH1 0x0 SWAP1 JUMPDEST DUP3 DUP3 SWAP1 SLOAD SWAP1 PUSH2 0x100 EXP SWAP1 DIV PUSH4 0xFFFFFFFF AND PUSH4 0xFFFFFFFF AND DUP2 MSTORE PUSH1 0x20 ADD SWAP1 PUSH1 0x4 ADD SWAP1 PUSH1 0x20 DUP3 PUSH1 0x3 ADD DIV SWAP3 DUP4 ADD SWAP3 PUSH1 0x1 SUB DUP3 MUL SWAP2 POP DUP1 DUP5 GT PUSH2 0x13A2 JUMPI SWAP1 POP JUMPDEST POP POP POP SWAP2 DUP4 MSTORE POP POP PUSH1 0x7 DUP3 ADD SLOAD PUSH4 0xFFFFFFFF AND PUSH1 0x20 DUP1 DUP4 ADD SWAP2 SWAP1 SWAP2 MSTORE PUSH1 0x8 DUP4 ADD DUP1 SLOAD PUSH1 0x40 DUP1 MLOAD DUP3 DUP6 MUL DUP2 ADD DUP6 ADD DUP3 MSTORE DUP3 DUP2 MSTORE SWAP5 ADD SWAP4 SWAP3 DUP4 ADD DUP3 DUP3 DUP1 ISZERO PUSH2 0x1470 JUMPI PUSH1 0x20 MUL DUP3 ADD SWAP2 SWAP1 PUSH1 0x0 MSTORE PUSH1 0x20 PUSH1 0x0 KECCAK256 SWAP1 PUSH1 0x0 SWAP1 JUMPDEST DUP3 DUP3 SWAP1 SLOAD SWAP1 PUSH2 0x100 EXP SWAP1 DIV PUSH4 0xFFFFFFFF AND PUSH4 0xFFFFFFFF AND DUP2 MSTORE PUSH1 0x20 ADD SWAP1 PUSH1 0x4 ADD SWAP1 PUSH1 0x20 DUP3 PUSH1 0x3 ADD DIV SWAP3 DUP4 ADD SWAP3 PUSH1 0x1 SUB DUP3 MUL SWAP2 POP DUP1 DUP5 GT PUSH2 0x1433 JUMPI SWAP1 POP JUMPDEST POP POP POP POP POP DUP2 MSTORE PUSH1 0x20 ADD PUSH1 0x9 DUP3 ADD DUP1 SLOAD DUP1 PUSH1 0x20 MUL PUSH1 0x20 ADD PUSH1 0x40 MLOAD SWAP1 DUP2 ADD PUSH1 0x40 MSTORE DUP1 SWAP3 SWAP2 SWAP1 DUP2 DUP2 MSTORE PUSH1 0x20 ADD DUP3 DUP1 SLOAD DUP1 ISZERO PUSH2 0x14F4 JUMPI PUSH1 0x20 MUL DUP3 ADD SWAP2 SWAP1 PUSH1 0x0 MSTORE PUSH1 0x20 PUSH1 0x0 KECCAK256 SWAP1 PUSH1 0x0 SWAP1 JUMPDEST DUP3 DUP3 SWAP1 SLOAD SWAP1 PUSH2 0x100 EXP SWAP1 DIV PUSH4 0xFFFFFFFF AND PUSH4 0xFFFFFFFF AND DUP2 MSTORE PUSH1 0x20 ADD SWAP1 PUSH1 0x4 ADD SWAP1 PUSH1 0x20 DUP3 PUSH1 0x3 ADD DIV SWAP3 DUP4 ADD SWAP3 PUSH1 0x1 SUB DUP3 MUL SWAP2 POP DUP1 DUP5 GT PUSH2 0x14B7 JUMPI SWAP1 POP JUMPDEST POP POP POP POP POP DUP2 MSTORE PUSH1 0x20 ADD PUSH1 0xA DUP3 ADD DUP1 SLOAD DUP1 PUSH1 0x20 MUL PUSH1 0x20 ADD PUSH1 0x40 MLOAD SWAP1 DUP2 ADD PUSH1 0x40 MSTORE DUP1 SWAP3 SWAP2 SWAP1 DUP2 DUP2 MSTORE PUSH1 0x20 ADD DUP3 DUP1 SLOAD DUP1 ISZERO PUSH2 0x1578 JUMPI PUSH1 0x20 MUL DUP3 ADD SWAP2 SWAP1 PUSH1 0x0 MSTORE PUSH1 0x20 PUSH1 0x0 KECCAK256 SWAP1 PUSH1 0x0 SWAP1 JUMPDEST DUP3 DUP3 SWAP1 SLOAD SWAP1 PUSH2 0x100 EXP SWAP1 DIV PUSH4 0xFFFFFFFF AND PUSH4 0xFFFFFFFF AND DUP2 MSTORE PUSH1 0x20 ADD SWAP1 PUSH1 0x4 ADD SWAP1 PUSH1 0x20 DUP3 PUSH1 0x3 ADD DIV SWAP3 DUP4 ADD SWAP3 PUSH1 0x1 SUB DUP3 MUL SWAP2 POP DUP1 DUP5 GT PUSH2 0x153B JUMPI SWAP1 POP JUMPDEST POP POP POP SWAP2 DUP4 MSTORE POP POP PUSH1 0xB DUP3 ADD SLOAD PUSH1 0x20 DUP3 ADD MSTORE PUSH1 0xC DUP3 ADD SLOAD PUSH1 0x40 DUP3 ADD MSTORE PUSH1 0xD DUP3 ADD SLOAD PUSH1 0x60 DUP3 ADD MSTORE PUSH1 0xE DUP3 ADD SLOAD PUSH1 0x80 DUP3 ADD MSTORE PUSH1 0xF DUP3 ADD SLOAD PUSH1 0xA0 DUP3 ADD MSTORE PUSH1 0x10 DUP3 ADD SLOAD PUSH1 0xC0 DUP3 ADD MSTORE PUSH1 0x11 DUP3 ADD SLOAD PUSH1 0xE0 DUP3 ADD MSTORE PUSH1 0x12 DUP3 ADD SLOAD PUSH2 0x100 DUP3 ADD MSTORE PUSH1 0x13 DUP3 ADD SLOAD PUSH1 0xFF AND PUSH2 0x120 DUP3 ADD MSTORE PUSH1 0x14 DUP3 ADD SLOAD PUSH2 0x140 DUP3 ADD MSTORE PUSH1 0x15 DUP3 ADD SLOAD PUSH2 0x160 DUP3 ADD MSTORE PUSH1 0x16 DUP3 ADD SLOAD PUSH2 0x180 DUP3 ADD MSTORE PUSH1 0x17 DUP3 ADD SLOAD PUSH2 0x1A0 DUP3 ADD MSTORE PUSH1 0x18 DUP3 ADD SLOAD PUSH2 0x1C0 DUP3 ADD MSTORE PUSH1 0x19 DUP3 ADD SLOAD PUSH2 0x1E0 DUP3 ADD MSTORE PUSH1 0x1A DUP3 ADD SLOAD PUSH2 0x200 DUP3 ADD MSTORE PUSH1 0x1B DUP3 ADD SLOAD PUSH2 0x220 DUP3 ADD MSTORE PUSH1 0x1C DUP3 ADD SLOAD PUSH2 0x240 DUP3 ADD MSTORE PUSH1 0x1D SWAP1 SWAP2 ADD SLOAD PUSH2 0x260 SWAP1 SWAP2 ADD MSTORE SWAP1 POP PUSH2 0x165A DUP2 PUSH2 0x3542 JUMP JUMPDEST PUSH1 0xFF AND SWAP4 SWAP3 POP POP POP JUMP JUMPDEST PUSH1 0xCA DUP2 DUP2 SLOAD DUP2 LT PUSH2 0x1674 JUMPI PUSH1 0x0 DUP1 REVERT JUMPDEST SWAP1 PUSH1 0x0 MSTORE PUSH1 0x20 PUSH1 0x0 KECCAK256 SWAP1 PUSH1 0x10 SWAP2 DUP3 DUP3 DIV ADD SWAP2 SWAP1 MOD PUSH1 0x2 MUL SWAP2 POP SLOAD SWAP1 PUSH2 0x100 EXP SWAP1 DIV PUSH2 0xFFFF AND DUP2 JUMP JUMPDEST PUSH1 0x0 JUMPDEST PUSH1 0xDE SLOAD PUSH1 0xFF DUP3 AND LT ISZERO PUSH2 0xA34 JUMPI PUSH1 0xDE DUP2 PUSH1 0xFF AND DUP2 SLOAD DUP2 LT PUSH2 0x16C2 JUMPI PUSH2 0x16C2 PUSH2 0x55B6 JUMP JUMPDEST PUSH1 0x0 SWAP2 DUP3 MSTORE PUSH1 0x20 SWAP1 SWAP2 KECCAK256 ADD SLOAD PUSH1 0x1 PUSH1 0x1 PUSH1 0xA0 SHL SUB AND CALLER SUB PUSH2 0x1770 JUMPI PUSH1 0x0 JUMPDEST PUSH4 0xFFFFFFFF DUP2 AND DUP4 GT ISZERO PUSH2 0xF30 JUMPI PUSH1 0x0 PUSH1 0xDB PUSH1 0x0 DUP7 DUP7 DUP6 PUSH4 0xFFFFFFFF AND DUP2 DUP2 LT PUSH2 0x170C JUMPI PUSH2 0x170C PUSH2 0x55B6 JUMP JUMPDEST SWAP1 POP PUSH1 0x20 MUL ADD PUSH1 0x20 DUP2 ADD SWAP1 PUSH2 0x1721 SWAP2 SWAP1 PUSH2 0x5011 JUMP JUMPDEST PUSH4 0xFFFFFFFF AND DUP2 MSTORE PUSH1 0x20 DUP1 DUP3 ADD SWAP3 SWAP1 SWAP3 MSTORE PUSH1 0x40 SWAP1 DUP2 ADD PUSH1 0x0 SWAP1 DUP2 KECCAK256 DUP3 MLOAD SWAP2 DUP3 MSTORE SWAP3 DUP2 ADD SWAP2 DUP3 SWAP1 MSTORE MLOAD SWAP2 SWAP3 POP PUSH2 0x175B SWAP2 PUSH1 0x8 DUP5 ADD SWAP2 SWAP1 PUSH2 0x4C9F JUMP JUMPDEST POP POP DUP1 DUP1 PUSH2 0x1768 SWAP1 PUSH2 0x56FB JUMP JUMPDEST SWAP2 POP POP PUSH2 0x16E0 JUMP JUMPDEST PUSH1 0xDE SLOAD PUSH2 0x177F SWAP1 PUSH1 0x1 SWAP1 PUSH2 0x55E2 JUMP JUMPDEST DUP2 PUSH1 0xFF AND SUB PUSH2 0x17D1 JUMPI PUSH1 0xDE DUP2 PUSH1 0xFF AND DUP2 SLOAD DUP2 LT PUSH2 0x179E JUMPI PUSH2 0x179E PUSH2 0x55B6 JUMP JUMPDEST PUSH1 0x0 SWAP2 DUP3 MSTORE PUSH1 0x20 SWAP1 SWAP2 KECCAK256 ADD SLOAD PUSH1 0x1 PUSH1 0x1 PUSH1 0xA0 SHL SUB AND CALLER EQ PUSH2 0x17D1 JUMPI PUSH1 0x40 MLOAD PUSH3 0x461BCD PUSH1 0xE5 SHL DUP2 MSTORE PUSH1 0x4 ADD PUSH2 0xAFC SWAP1 PUSH2 0x55F5 JUMP JUMPDEST DUP1 PUSH2 0x17DB DUP2 PUSH2 0x5620 JUMP JUMPDEST SWAP2 POP POP PUSH2 0x169F JUMP JUMPDEST PUSH1 0x0 SLOAD PUSH2 0x100 SWAP1 DIV PUSH1 0xFF AND ISZERO DUP1 DUP1 ISZERO PUSH2 0x1803 JUMPI POP PUSH1 0x0 SLOAD PUSH1 0x1 PUSH1 0xFF SWAP1 SWAP2 AND LT JUMPDEST DUP1 PUSH2 0x1824 JUMPI POP PUSH2 0x1812 ADDRESS PUSH2 0x35E9 JUMP JUMPDEST ISZERO DUP1 ISZERO PUSH2 0x1824 JUMPI POP PUSH1 0x0 SLOAD PUSH1 0xFF AND PUSH1 0x1 EQ JUMPDEST PUSH2 0x1887 JUMPI PUSH1 0x40 MLOAD PUSH3 0x461BCD PUSH1 0xE5 SHL DUP2 MSTORE PUSH1 0x20 PUSH1 0x4 DUP3 ADD MSTORE PUSH1 0x2E PUSH1 0x24 DUP3 ADD MSTORE PUSH32 0x496E697469616C697A61626C653A20636F6E747261637420697320616C726561 PUSH1 0x44 DUP3 ADD MSTORE PUSH14 0x191E481A5B9A5D1A585B1A5E9959 PUSH1 0x92 SHL PUSH1 0x64 DUP3 ADD MSTORE PUSH1 0x84 ADD PUSH2 0xAFC JUMP JUMPDEST PUSH1 0x0 DUP1 SLOAD PUSH1 0xFF NOT AND PUSH1 0x1 OR SWAP1 SSTORE DUP1 ISZERO PUSH2 0x18AA JUMPI PUSH1 0x0 DUP1 SLOAD PUSH2 0xFF00 NOT AND PUSH2 0x100 OR SWAP1 SSTORE JUMPDEST PUSH1 0xC9 DUP1 SLOAD PUSH1 0x1 PUSH1 0x1 PUSH1 0xA0 SHL SUB NOT AND PUSH20 0x286D6392042B4D7180FD6D20F8D35C8776815774 OR SWAP1 SSTORE PUSH1 0xCB DUP1 SLOAD PUSH2 0xFFFF NOT AND PUSH2 0x3E8 OR SWAP1 SSTORE PUSH1 0x40 DUP1 MLOAD PUSH2 0x3A0 DUP2 ADD DUP3 MSTORE PUSH1 0x64 DUP2 MSTORE PUSH1 0x46 PUSH1 0x20 DUP3 ADD MSTORE PUSH1 0x32 SWAP2 DUP2 ADD DUP3 SWAP1 MSTORE PUSH1 0x60 DUP2 ADD DUP3 SWAP1 MSTORE PUSH1 0x80 DUP2 ADD DUP3 SWAP1 MSTORE PUSH1 0xA0 DUP2 ADD DUP3 SWAP1 MSTORE PUSH1 0xC0 DUP2 ADD DUP3 SWAP1 MSTORE PUSH1 0xE0 DUP2 ADD DUP3 SWAP1 MSTORE PUSH2 0x100 DUP2 ADD DUP3 SWAP1 MSTORE PUSH2 0x120 DUP2 ADD DUP3 SWAP1 MSTORE PUSH2 0x140 DUP2 ADD DUP3 SWAP1 MSTORE PUSH2 0x160 DUP2 ADD DUP3 SWAP1 MSTORE PUSH2 0x180 DUP2 ADD DUP3 SWAP1 MSTORE PUSH2 0x1A0 DUP2 ADD DUP3 SWAP1 MSTORE PUSH2 0x1C0 DUP2 ADD DUP3 SWAP1 MSTORE PUSH2 0x1E0 DUP2 ADD DUP3 SWAP1 MSTORE PUSH2 0x200 DUP2 ADD DUP3 SWAP1 MSTORE PUSH2 0x220 DUP2 ADD DUP3 SWAP1 MSTORE PUSH2 0x240 DUP2 ADD SWAP2 SWAP1 SWAP2 MSTORE PUSH1 0x14 PUSH2 0x260 DUP3 ADD DUP2 SWAP1 MSTORE PUSH2 0x280 DUP3 ADD DUP2 SWAP1 MSTORE PUSH2 0x2A0 DUP3 ADD DUP2 SWAP1 MSTORE PUSH2 0x2C0 DUP3 ADD DUP2 SWAP1 MSTORE PUSH2 0x2E0 DUP3 ADD DUP2 SWAP1 MSTORE PUSH2 0x300 DUP3 ADD DUP2 SWAP1 MSTORE PUSH2 0x320 DUP3 ADD DUP2 SWAP1 MSTORE PUSH2 0x340 DUP3 ADD DUP2 SWAP1 MSTORE PUSH2 0x360 DUP3 ADD DUP2 SWAP1 MSTORE PUSH2 0x380 DUP3 ADD MSTORE PUSH2 0x19D7 SWAP1 PUSH1 0xCA SWAP1 PUSH1 0x1D PUSH2 0x4D4E JUMP JUMPDEST POP PUSH1 0xCB DUP1 SLOAD PUSH3 0xFF0000 NOT AND PUSH3 0x320000 OR SWAP1 SSTORE PUSH8 0xDE0B6B3A7640000 PUSH1 0xCC SSTORE PUSH1 0xD4 DUP1 SLOAD PUSH4 0xFF00FFFF NOT AND PUSH4 0x2000001 OR SWAP1 SSTORE PUSH1 0xD1 DUP1 SLOAD PUSH2 0xFFFF PUSH1 0x60 SHL NOT AND PUSH1 0x7D PUSH1 0x63 SHL OR SWAP1 SSTORE PUSH4 0x20F5800 PUSH1 0xD2 SSTORE PUSH1 0x14 PUSH1 0xD3 SSTORE PUSH3 0x278D00 PUSH1 0xD7 SSTORE PUSH2 0x1A38 PUSH2 0x35F8 JUMP JUMPDEST PUSH2 0x1A40 PUSH2 0x3627 JUMP JUMPDEST DUP1 ISZERO PUSH2 0xB89 JUMPI PUSH1 0x0 DUP1 SLOAD PUSH2 0xFF00 NOT AND SWAP1 SSTORE PUSH1 0x40 MLOAD PUSH1 0x1 DUP2 MSTORE PUSH32 0x7F26B83FF96E1F2B6A682F133852F6798A09C465DA95921460CEFB3847402498 SWAP1 PUSH1 0x20 ADD PUSH1 0x40 MLOAD DUP1 SWAP2 SUB SWAP1 LOG1 POP JUMP JUMPDEST PUSH1 0x0 JUMPDEST PUSH1 0xDE SLOAD PUSH1 0xFF DUP3 AND LT ISZERO PUSH2 0xB17 JUMPI PUSH1 0xDE DUP2 PUSH1 0xFF AND DUP2 SLOAD DUP2 LT PUSH2 0x1AAE JUMPI PUSH2 0x1AAE PUSH2 0x55B6 JUMP JUMPDEST PUSH1 0x0 SWAP2 DUP3 MSTORE PUSH1 0x20 SWAP1 SWAP2 KECCAK256 ADD SLOAD PUSH1 0x1 PUSH1 0x1 PUSH1 0xA0 SHL SUB AND CALLER SUB PUSH2 0x1B31 JUMPI PUSH1 0xD8 DUP1 SLOAD PUSH1 0x1 DUP2 DUP2 ADD SWAP1 SWAP3 SSTORE PUSH32 0x5320AD99A619A90804CD2EFE3A5CF0AC1AC5C41AD9FF2C61CF699EFDAD771096 ADD DUP1 SLOAD PUSH1 0x1 PUSH1 0x1 PUSH1 0xA0 SHL SUB DUP6 AND PUSH1 0x1 PUSH1 0x1 PUSH1 0xA0 SHL SUB NOT SWAP1 SWAP2 AND DUP2 OR SWAP1 SWAP2 SSTORE PUSH1 0x0 SWAP1 DUP2 MSTORE PUSH1 0xDA PUSH1 0x20 MSTORE PUSH1 0x40 SWAP1 KECCAK256 DUP1 SLOAD PUSH1 0xFF NOT AND SWAP1 SWAP2 OR SWAP1 SSTORE POP POP JUMP JUMPDEST PUSH1 0xDE SLOAD PUSH2 0x1B40 SWAP1 PUSH1 0x1 SWAP1 PUSH2 0x55E2 JUMP JUMPDEST DUP2 PUSH1 0xFF AND SUB PUSH2 0x1B92 JUMPI PUSH1 0xDE DUP2 PUSH1 0xFF AND DUP2 SLOAD DUP2 LT PUSH2 0x1B5F JUMPI PUSH2 0x1B5F PUSH2 0x55B6 JUMP JUMPDEST PUSH1 0x0 SWAP2 DUP3 MSTORE PUSH1 0x20 SWAP1 SWAP2 KECCAK256 ADD SLOAD PUSH1 0x1 PUSH1 0x1 PUSH1 0xA0 SHL SUB AND CALLER EQ PUSH2 0x1B92 JUMPI PUSH1 0x40 MLOAD PUSH3 0x461BCD PUSH1 0xE5 SHL DUP2 MSTORE PUSH1 0x4 ADD PUSH2 0xAFC SWAP1 PUSH2 0x55F5 JUMP JUMPDEST DUP1 PUSH2 0x1B9C DUP2 PUSH2 0x5620 JUMP JUMPDEST SWAP2 POP POP PUSH2 0x1A8B JUMP JUMPDEST PUSH2 0x1BAC PUSH2 0x3307 JUMP JUMPDEST PUSH1 0x40 MLOAD PUSH4 0xA9059CBB PUSH1 0xE0 SHL DUP2 MSTORE CALLER PUSH1 0x4 DUP3 ADD MSTORE PUSH1 0x24 DUP2 ADD DUP3 SWAP1 MSTORE PUSH1 0x1 PUSH1 0x1 PUSH1 0xA0 SHL SUB DUP4 AND SWAP1 PUSH4 0xA9059CBB SWAP1 PUSH1 0x44 ADD PUSH1 0x20 PUSH1 0x40 MLOAD DUP1 DUP4 SUB DUP2 PUSH1 0x0 DUP8 GAS CALL ISZERO DUP1 ISZERO PUSH2 0x1BF9 JUMPI RETURNDATASIZE PUSH1 0x0 DUP1 RETURNDATACOPY RETURNDATASIZE PUSH1 0x0 REVERT JUMPDEST POP POP POP POP PUSH1 0x40 MLOAD RETURNDATASIZE PUSH1 0x1F NOT PUSH1 0x1F DUP3 ADD AND DUP3 ADD DUP1 PUSH1 0x40 MSTORE POP DUP2 ADD SWAP1 PUSH2 0xA34 SWAP2 SWAP1 PUSH2 0x5758 JUMP JUMPDEST PUSH4 0xFFFFFFFF DUP1 DUP3 AND PUSH1 0x0 SWAP1 DUP2 MSTORE PUSH1 0xDB PUSH1 0x20 SWAP1 DUP2 MSTORE PUSH1 0x40 DUP1 DUP4 KECCAK256 DUP2 MLOAD PUSH2 0x3E0 DUP2 ADD SWAP1 SWAP3 MSTORE DUP1 SLOAD SWAP1 SWAP5 AND DUP2 MSTORE PUSH1 0x1 DUP5 ADD DUP1 SLOAD SWAP4 SWAP5 DUP6 SWAP5 SWAP3 SWAP4 SWAP1 SWAP3 SWAP1 DUP5 ADD SWAP2 SWAP1 PUSH2 0x1C63 SWAP1 PUSH2 0x571E JUMP JUMPDEST DUP1 PUSH1 0x1F ADD PUSH1 0x20 DUP1 SWAP2 DIV MUL PUSH1 0x20 ADD PUSH1 0x40 MLOAD SWAP1 DUP2 ADD PUSH1 0x40 MSTORE DUP1 SWAP3 SWAP2 SWAP1 DUP2 DUP2 MSTORE PUSH1 0x20 ADD DUP3 DUP1 SLOAD PUSH2 0x1C8F SWAP1 PUSH2 0x571E JUMP JUMPDEST DUP1 ISZERO PUSH2 0x1CDC JUMPI DUP1 PUSH1 0x1F LT PUSH2 0x1CB1 JUMPI PUSH2 0x100 DUP1 DUP4 SLOAD DIV MUL DUP4 MSTORE SWAP2 PUSH1 0x20 ADD SWAP2 PUSH2 0x1CDC JUMP JUMPDEST DUP3 ADD SWAP2 SWAP1 PUSH1 0x0 MSTORE PUSH1 0x20 PUSH1 0x0 KECCAK256 SWAP1 JUMPDEST DUP2 SLOAD DUP2 MSTORE SWAP1 PUSH1 0x1 ADD SWAP1 PUSH1 0x20 ADD DUP1 DUP4 GT PUSH2 0x1CBF JUMPI DUP3 SWAP1 SUB PUSH1 0x1F AND DUP3 ADD SWAP2 JUMPDEST POP POP POP SWAP2 DUP4 MSTORE POP POP PUSH1 0x2 DUP3 ADD SLOAD PUSH1 0xFF DUP2 AND ISZERO ISZERO PUSH1 0x20 DUP1 DUP5 ADD SWAP2 SWAP1 SWAP2 MSTORE PUSH2 0x100 SWAP1 SWAP2 DIV PUSH1 0x1 PUSH1 0x1 PUSH1 0xA0 SHL SUB AND PUSH1 0x40 DUP1 DUP5 ADD SWAP2 SWAP1 SWAP2 MSTORE PUSH1 0x3 DUP5 ADD SLOAD PUSH1 0x60 DUP5 ADD MSTORE PUSH1 0x4 DUP5 ADD SLOAD PUSH1 0x80 DUP5 ADD MSTORE PUSH1 0x5 DUP5 ADD SLOAD PUSH1 0xA0 DUP5 ADD MSTORE PUSH1 0x6 DUP5 ADD DUP1 SLOAD DUP3 MLOAD DUP2 DUP6 MUL DUP2 ADD DUP6 ADD SWAP1 SWAP4 MSTORE DUP1 DUP4 MSTORE PUSH1 0xC0 SWAP1 SWAP5 ADD SWAP4 SWAP2 SWAP3 SWAP1 SWAP2 SWAP1 DUP4 ADD DUP3 DUP3 DUP1 ISZERO PUSH2 0x1DA9 JUMPI PUSH1 0x20 MUL DUP3 ADD SWAP2 SWAP1 PUSH1 0x0 MSTORE PUSH1 0x20 PUSH1 0x0 KECCAK256 SWAP1 PUSH1 0x0 SWAP1 JUMPDEST DUP3 DUP3 SWAP1 SLOAD SWAP1 PUSH2 0x100 EXP SWAP1 DIV PUSH4 0xFFFFFFFF AND PUSH4 0xFFFFFFFF AND DUP2 MSTORE PUSH1 0x20 ADD SWAP1 PUSH1 0x4 ADD SWAP1 PUSH1 0x20 DUP3 PUSH1 0x3 ADD DIV SWAP3 DUP4 ADD SWAP3 PUSH1 0x1 SUB DUP3 MUL SWAP2 POP DUP1 DUP5 GT PUSH2 0x1D6C JUMPI SWAP1 POP JUMPDEST POP POP POP SWAP2 DUP4 MSTORE POP POP PUSH1 0x7 DUP3 ADD SLOAD PUSH4 0xFFFFFFFF AND PUSH1 0x20 DUP1 DUP4 ADD SWAP2 SWAP1 SWAP2 MSTORE PUSH1 0x8 DUP4 ADD DUP1 SLOAD PUSH1 0x40 DUP1 MLOAD DUP3 DUP6 MUL DUP2 ADD DUP6 ADD DUP3 MSTORE DUP3 DUP2 MSTORE SWAP5 ADD SWAP4 SWAP3 DUP4 ADD DUP3 DUP3 DUP1 ISZERO PUSH2 0x1E3A JUMPI PUSH1 0x20 MUL DUP3 ADD SWAP2 SWAP1 PUSH1 0x0 MSTORE PUSH1 0x20 PUSH1 0x0 KECCAK256 SWAP1 PUSH1 0x0 SWAP1 JUMPDEST DUP3 DUP3 SWAP1 SLOAD SWAP1 PUSH2 0x100 EXP SWAP1 DIV PUSH4 0xFFFFFFFF AND PUSH4 0xFFFFFFFF AND DUP2 MSTORE PUSH1 0x20 ADD SWAP1 PUSH1 0x4 ADD SWAP1 PUSH1 0x20 DUP3 PUSH1 0x3 ADD DIV SWAP3 DUP4 ADD SWAP3 PUSH1 0x1 SUB DUP3 MUL SWAP2 POP DUP1 DUP5 GT PUSH2 0x1DFD JUMPI SWAP1 POP JUMPDEST POP POP POP POP POP DUP2 MSTORE PUSH1 0x20 ADD PUSH1 0x9 DUP3 ADD DUP1 SLOAD DUP1 PUSH1 0x20 MUL PUSH1 0x20 ADD PUSH1 0x40 MLOAD SWAP1 DUP2 ADD PUSH1 0x40 MSTORE DUP1 SWAP3 SWAP2 SWAP1 DUP2 DUP2 MSTORE PUSH1 0x20 ADD DUP3 DUP1 SLOAD DUP1 ISZERO PUSH2 0x1EBE JUMPI PUSH1 0x20 MUL DUP3 ADD SWAP2 SWAP1 PUSH1 0x0 MSTORE PUSH1 0x20 PUSH1 0x0 KECCAK256 SWAP1 PUSH1 0x0 SWAP1 JUMPDEST DUP3 DUP3 SWAP1 SLOAD SWAP1 PUSH2 0x100 EXP SWAP1 DIV PUSH4 0xFFFFFFFF AND PUSH4 0xFFFFFFFF AND DUP2 MSTORE PUSH1 0x20 ADD SWAP1 PUSH1 0x4 ADD SWAP1 PUSH1 0x20 DUP3 PUSH1 0x3 ADD DIV SWAP3 DUP4 ADD SWAP3 PUSH1 0x1 SUB DUP3 MUL SWAP2 POP DUP1 DUP5 GT PUSH2 0x1E81 JUMPI SWAP1 POP JUMPDEST POP POP POP POP POP DUP2 MSTORE PUSH1 0x20 ADD PUSH1 0xA DUP3 ADD DUP1 SLOAD DUP1 PUSH1 0x20 MUL PUSH1 0x20 ADD PUSH1 0x40 MLOAD SWAP1 DUP2 ADD PUSH1 0x40 MSTORE DUP1 SWAP3 SWAP2 SWAP1 DUP2 DUP2 MSTORE PUSH1 0x20 ADD DUP3 DUP1 SLOAD DUP1 ISZERO PUSH2 0x1F42 JUMPI PUSH1 0x20 MUL DUP3 ADD SWAP2 SWAP1 PUSH1 0x0 MSTORE PUSH1 0x20 PUSH1 0x0 KECCAK256 SWAP1 PUSH1 0x0 SWAP1 JUMPDEST DUP3 DUP3 SWAP1 SLOAD SWAP1 PUSH2 0x100 EXP SWAP1 DIV PUSH4 0xFFFFFFFF AND PUSH4 0xFFFFFFFF AND DUP2 MSTORE PUSH1 0x20 ADD SWAP1 PUSH1 0x4 ADD SWAP1 PUSH1 0x20 DUP3 PUSH1 0x3 ADD DIV SWAP3 DUP4 ADD SWAP3 PUSH1 0x1 SUB DUP3 MUL SWAP2 POP DUP1 DUP5 GT PUSH2 0x1F05 JUMPI SWAP1 POP JUMPDEST POP POP POP SWAP2 DUP4 MSTORE POP POP PUSH1 0xB DUP3 ADD SLOAD PUSH1 0x20 DUP3 ADD MSTORE PUSH1 0xC DUP3 ADD SLOAD PUSH1 0x40 DUP3 ADD MSTORE PUSH1 0xD DUP3 ADD SLOAD PUSH1 0x60 DUP3 ADD MSTORE PUSH1 0xE DUP3 ADD SLOAD PUSH1 0x80 DUP3 ADD MSTORE PUSH1 0xF DUP3 ADD SLOAD PUSH1 0xA0 DUP3 ADD MSTORE PUSH1 0x10 DUP3 ADD SLOAD PUSH1 0xC0 DUP3 ADD MSTORE PUSH1 0x11 DUP3 ADD SLOAD PUSH1 0xE0 DUP3 ADD MSTORE PUSH1 0x12 DUP3 ADD SLOAD PUSH2 0x100 DUP3 ADD MSTORE PUSH1 0x13 DUP3 ADD SLOAD PUSH1 0xFF AND PUSH2 0x120 DUP3 ADD MSTORE PUSH1 0x14 DUP3 ADD SLOAD PUSH2 0x140 DUP3 ADD MSTORE PUSH1 0x15 DUP3 ADD SLOAD PUSH2 0x160 DUP3 ADD MSTORE PUSH1 0x16 DUP3 ADD SLOAD PUSH2 0x180 DUP3 ADD MSTORE PUSH1 0x17 DUP3 ADD SLOAD PUSH2 0x1A0 DUP3 ADD MSTORE PUSH1 0x18 DUP3 ADD SLOAD PUSH2 0x1C0 DUP3 ADD MSTORE PUSH1 0x19 DUP3 ADD SLOAD PUSH2 0x1E0 DUP3 ADD MSTORE PUSH1 0x1A DUP3 ADD SLOAD PUSH2 0x200 DUP3 ADD MSTORE PUSH1 0x1B DUP3 ADD SLOAD PUSH2 0x220 DUP3 ADD MSTORE PUSH1 0x1C DUP3 ADD SLOAD PUSH2 0x240 DUP3 ADD MSTORE PUSH1 0x1D SWAP1 SWAP2 ADD SLOAD PUSH2 0x260 SWAP1 SWAP2 ADD MSTORE SWAP1 POP PUSH2 0x2024 DUP2 PUSH2 0x364E JUMP JUMPDEST SWAP4 SWAP3 POP POP POP JUMP JUMPDEST PUSH1 0xCC SLOAD CALLVALUE SWAP1 PUSH2 0x2039 SWAP1 PUSH2 0x368B JUMP JUMPDEST DUP2 LT ISZERO PUSH2 0x209C JUMPI PUSH1 0x40 MLOAD PUSH3 0x461BCD PUSH1 0xE5 SHL DUP2 MSTORE PUSH1 0x20 PUSH1 0x4 DUP3 ADD MSTORE PUSH1 0x2B PUSH1 0x24 DUP3 ADD MSTORE PUSH32 0x56616C75652073686F756C6420626520677265617465207468656E206D696E43 PUSH1 0x44 DUP3 ADD MSTORE PUSH11 0x37B73A3934B13ABA34B7B7 PUSH1 0xA9 SHL PUSH1 0x64 DUP3 ADD MSTORE PUSH1 0x84 ADD PUSH2 0xAFC JUMP JUMPDEST CALLER PUSH1 0x0 PUSH2 0x20A8 DUP4 PUSH2 0x3721 JUMP JUMPDEST PUSH1 0xD1 SLOAD SWAP1 SWAP2 POP TIMESTAMP SWAP1 PUSH1 0x0 SWAP1 PUSH2 0x20CB SWAP1 PUSH1 0x1 PUSH1 0x40 SHL SWAP1 DIV PUSH4 0xFFFFFFFF AND PUSH1 0x1 PUSH2 0x56D7 JUMP JUMPDEST PUSH4 0xFFFFFFFF DUP8 AND PUSH1 0x0 SWAP1 DUP2 MSTORE PUSH1 0xDB PUSH1 0x20 MSTORE PUSH1 0x40 SWAP1 KECCAK256 PUSH1 0x2 DUP2 ADD SLOAD SWAP2 SWAP3 POP SWAP1 PUSH1 0x1 PUSH1 0x1 PUSH1 0xA0 SHL SUB DUP7 DUP2 AND PUSH2 0x100 SWAP1 SWAP3 DIV AND EQ PUSH2 0x2118 JUMPI PUSH1 0x40 MLOAD PUSH3 0x461BCD PUSH1 0xE5 SHL DUP2 MSTORE PUSH1 0x4 ADD PUSH2 0xAFC SWAP1 PUSH2 0x577A JUMP JUMPDEST PUSH1 0xD4 SLOAD PUSH1 0xFF AND ISZERO PUSH2 0x212F JUMPI PUSH2 0x212F DUP8 DUP4 DUP7 DUP7 PUSH2 0x37AE JUMP JUMPDEST PUSH2 0x213A DUP8 DUP6 DUP6 PUSH2 0x38A0 JUMP JUMPDEST POP POP POP POP POP POP POP JUMP JUMPDEST PUSH1 0x0 JUMPDEST PUSH1 0xDE SLOAD PUSH1 0xFF DUP3 AND LT ISZERO PUSH2 0x24C5 JUMPI PUSH1 0xDE DUP2 PUSH1 0xFF AND DUP2 SLOAD DUP2 LT PUSH2 0x2169 JUMPI PUSH2 0x2169 PUSH2 0x55B6 JUMP JUMPDEST PUSH1 0x0 SWAP2 DUP3 MSTORE PUSH1 0x20 SWAP1 SWAP2 KECCAK256 ADD SLOAD PUSH1 0x1 PUSH1 0x1 PUSH1 0xA0 SHL SUB AND CALLER SUB PUSH2 0x2452 JUMPI PUSH1 0x0 JUMPDEST PUSH2 0xFFFF DUP2 AND DUP9 GT ISZERO PUSH2 0x244C JUMPI PUSH1 0x0 PUSH1 0xDB PUSH1 0x0 DUP12 DUP12 DUP6 PUSH2 0xFFFF AND DUP2 DUP2 LT PUSH2 0x21AF JUMPI PUSH2 0x21AF PUSH2 0x55B6 JUMP JUMPDEST SWAP1 POP PUSH1 0x20 MUL ADD PUSH1 0x20 DUP2 ADD SWAP1 PUSH2 0x21C4 SWAP2 SWAP1 PUSH2 0x5011 JUMP JUMPDEST PUSH4 0xFFFFFFFF AND PUSH4 0xFFFFFFFF AND DUP2 MSTORE PUSH1 0x20 ADD SWAP1 DUP2 MSTORE PUSH1 0x20 ADD PUSH1 0x0 KECCAK256 SWAP1 POP PUSH1 0x0 PUSH1 0xDA PUSH1 0x0 DUP11 DUP11 DUP7 PUSH2 0xFFFF AND DUP2 DUP2 LT PUSH2 0x21FC JUMPI PUSH2 0x21FC PUSH2 0x55B6 JUMP JUMPDEST SWAP1 POP PUSH1 0x20 MUL ADD PUSH1 0x20 DUP2 ADD SWAP1 PUSH2 0x2211 SWAP2 SWAP1 PUSH2 0x4E3F JUMP JUMPDEST PUSH1 0x1 PUSH1 0x1 PUSH1 0xA0 SHL SUB AND PUSH1 0x1 PUSH1 0x1 PUSH1 0xA0 SHL SUB AND DUP2 MSTORE PUSH1 0x20 ADD SWAP1 DUP2 MSTORE PUSH1 0x20 ADD PUSH1 0x0 KECCAK256 SWAP1 POP DUP11 DUP11 DUP5 PUSH2 0xFFFF AND DUP2 DUP2 LT PUSH2 0x2249 JUMPI PUSH2 0x2249 PUSH2 0x55B6 JUMP JUMPDEST SWAP1 POP PUSH1 0x20 MUL ADD PUSH1 0x20 DUP2 ADD SWAP1 PUSH2 0x225E SWAP2 SWAP1 PUSH2 0x5011 JUMP JUMPDEST DUP3 SLOAD PUSH4 0xFFFFFFFF NOT AND PUSH4 0xFFFFFFFF SWAP2 SWAP1 SWAP2 AND OR DUP3 SSTORE DUP5 MLOAD DUP6 SWAP1 PUSH2 0xFFFF DUP6 AND SWAP1 DUP2 LT PUSH2 0x228B JUMPI PUSH2 0x228B PUSH2 0x55B6 JUMP JUMPDEST PUSH1 0x20 MUL PUSH1 0x20 ADD ADD MLOAD DUP3 PUSH1 0x1 ADD SWAP1 DUP2 PUSH2 0x22A3 SWAP2 SWAP1 PUSH2 0x57F7 JUMP JUMPDEST POP DUP1 PUSH1 0x1 ADD DUP12 DUP12 DUP6 PUSH2 0xFFFF AND DUP2 DUP2 LT PUSH2 0x22BE JUMPI PUSH2 0x22BE PUSH2 0x55B6 JUMP JUMPDEST SWAP1 POP PUSH1 0x20 MUL ADD PUSH1 0x20 DUP2 ADD SWAP1 PUSH2 0x22D3 SWAP2 SWAP1 PUSH2 0x5011 JUMP JUMPDEST DUP2 SLOAD PUSH1 0x1 DUP2 ADD DUP4 SSTORE PUSH1 0x0 SWAP3 DUP4 MSTORE PUSH1 0x20 SWAP1 SWAP3 KECCAK256 PUSH1 0x8 DUP4 DIV ADD DUP1 SLOAD PUSH1 0x7 SWAP1 SWAP4 AND PUSH1 0x4 MUL PUSH2 0x100 EXP PUSH4 0xFFFFFFFF DUP2 DUP2 MUL NOT SWAP1 SWAP5 AND SWAP3 SWAP1 SWAP4 AND SWAP3 SWAP1 SWAP3 MUL OR SWAP1 SSTORE DUP9 DUP9 PUSH2 0xFFFF DUP6 AND DUP2 DUP2 LT PUSH2 0x2325 JUMPI PUSH2 0x2325 PUSH2 0x55B6 JUMP JUMPDEST SWAP1 POP PUSH1 0x20 MUL ADD PUSH1 0x20 DUP2 ADD SWAP1 PUSH2 0x233A SWAP2 SWAP1 PUSH2 0x4E3F JUMP JUMPDEST DUP3 PUSH1 0x2 ADD PUSH1 0x1 PUSH2 0x100 EXP DUP2 SLOAD DUP2 PUSH1 0x1 PUSH1 0x1 PUSH1 0xA0 SHL SUB MUL NOT AND SWAP1 DUP4 PUSH1 0x1 PUSH1 0x1 PUSH1 0xA0 SHL SUB AND MUL OR SWAP1 SSTORE POP DUP7 DUP7 DUP5 PUSH2 0xFFFF AND DUP2 DUP2 LT PUSH2 0x2378 JUMPI PUSH2 0x2378 PUSH2 0x55B6 JUMP JUMPDEST SWAP1 POP PUSH1 0x20 MUL ADD PUSH1 0x20 DUP2 ADD SWAP1 PUSH2 0x238D SWAP2 SWAP1 PUSH2 0x5011 JUMP JUMPDEST PUSH1 0x7 DUP4 ADD DUP1 SLOAD PUSH4 0xFFFFFFFF NOT AND PUSH4 0xFFFFFFFF SWAP3 SWAP1 SWAP3 AND SWAP2 SWAP1 SWAP2 OR SWAP1 SSTORE DUP7 DUP7 PUSH2 0xFFFF DUP6 AND DUP2 DUP2 LT PUSH2 0x23BF JUMPI PUSH2 0x23BF PUSH2 0x55B6 JUMP JUMPDEST SWAP1 POP PUSH1 0x20 MUL ADD PUSH1 0x20 DUP2 ADD SWAP1 PUSH2 0x23D4 SWAP2 SWAP1 PUSH2 0x5011 JUMP JUMPDEST PUSH4 0xFFFFFFFF AND DUP12 DUP12 DUP6 PUSH2 0xFFFF AND DUP2 DUP2 LT PUSH2 0x23F0 JUMPI PUSH2 0x23F0 PUSH2 0x55B6 JUMP JUMPDEST SWAP1 POP PUSH1 0x20 MUL ADD PUSH1 0x20 DUP2 ADD SWAP1 PUSH2 0x2405 SWAP2 SWAP1 PUSH2 0x5011 JUMP JUMPDEST PUSH4 0xFFFFFFFF AND PUSH32 0x9D714438BA618019CC2B8621DCD2550337E162BE58654470EA30D48479FE8320 PUSH1 0x40 MLOAD PUSH1 0x40 MLOAD DUP1 SWAP2 SUB SWAP1 LOG3 POP POP DUP1 DUP1 PUSH2 0x2444 SWAP1 PUSH2 0x58B6 JUMP JUMPDEST SWAP2 POP POP PUSH2 0x2187 JUMP JUMPDEST POP PUSH2 0x24C5 JUMP JUMPDEST PUSH1 0xDE SLOAD PUSH2 0x2461 SWAP1 PUSH1 0x1 SWAP1 PUSH2 0x55E2 JUMP JUMPDEST DUP2 PUSH1 0xFF AND SUB PUSH2 0x24B3 JUMPI PUSH1 0xDE DUP2 PUSH1 0xFF AND DUP2 SLOAD DUP2 LT PUSH2 0x2480 JUMPI PUSH2 0x2480 PUSH2 0x55B6 JUMP JUMPDEST PUSH1 0x0 SWAP2 DUP3 MSTORE PUSH1 0x20 SWAP1 SWAP2 KECCAK256 ADD SLOAD PUSH1 0x1 PUSH1 0x1 PUSH1 0xA0 SHL SUB AND CALLER EQ PUSH2 0x24B3 JUMPI PUSH1 0x40 MLOAD PUSH3 0x461BCD PUSH1 0xE5 SHL DUP2 MSTORE PUSH1 0x4 ADD PUSH2 0xAFC SWAP1 PUSH2 0x55F5 JUMP JUMPDEST DUP1 PUSH2 0x24BD DUP2 PUSH2 0x5620 JUMP JUMPDEST SWAP2 POP POP PUSH2 0x2146 JUMP JUMPDEST POP POP POP POP POP POP POP POP JUMP JUMPDEST PUSH4 0xFFFFFFFF DUP2 AND PUSH1 0x0 SWAP1 DUP2 MSTORE PUSH1 0xDB PUSH1 0x20 MSTORE PUSH1 0x40 DUP2 KECCAK256 DUP2 PUSH2 0x24EE DUP5 PUSH2 0x39BC JUMP JUMPDEST SWAP1 POP DUP2 PUSH1 0x1A ADD SLOAD DUP2 DUP4 PUSH1 0x19 ADD SLOAD PUSH2 0x2505 SWAP2 SWAP1 PUSH2 0x58CD JUMP JUMPDEST GT PUSH2 0x2512 JUMPI DUP1 SWAP3 POP PUSH2 0x252C JUMP JUMPDEST PUSH1 0x0 DUP3 PUSH1 0x19 ADD SLOAD DUP4 PUSH1 0x1A ADD SLOAD PUSH2 0x2528 SWAP2 SWAP1 PUSH2 0x55E2 JUMP JUMPDEST SWAP4 POP POP JUMPDEST POP POP SWAP2 SWAP1 POP JUMP JUMPDEST PUSH1 0x0 JUMPDEST PUSH1 0xDE SLOAD PUSH1 0xFF DUP3 AND LT ISZERO PUSH2 0x273F JUMPI PUSH1 0xDE DUP2 PUSH1 0xFF AND DUP2 SLOAD DUP2 LT PUSH2 0x2559 JUMPI PUSH2 0x2559 PUSH2 0x55B6 JUMP JUMPDEST PUSH1 0x0 SWAP2 DUP3 MSTORE PUSH1 0x20 SWAP1 SWAP2 KECCAK256 ADD SLOAD PUSH1 0x1 PUSH1 0x1 PUSH1 0xA0 SHL SUB AND CALLER SUB PUSH2 0x26CC JUMPI PUSH1 0x0 JUMPDEST DUP13 DUP2 LT ISZERO PUSH2 0x26C6 JUMPI PUSH1 0xD1 DUP1 SLOAD PUSH1 0x1 PUSH1 0x40 SHL SWAP1 DIV PUSH4 0xFFFFFFFF AND SWAP1 PUSH1 0x8 PUSH2 0x259C DUP4 PUSH2 0x56FB JUMP JUMPDEST SWAP2 SWAP1 PUSH2 0x100 EXP DUP2 SLOAD DUP2 PUSH4 0xFFFFFFFF MUL NOT AND SWAP1 DUP4 PUSH4 0xFFFFFFFF AND MUL OR SWAP1 SSTORE POP POP PUSH1 0x0 DUP13 DUP13 DUP4 DUP2 DUP2 LT PUSH2 0x25CF JUMPI PUSH2 0x25CF PUSH2 0x55B6 JUMP JUMPDEST SWAP1 POP PUSH1 0x20 MUL ADD CALLDATALOAD GT ISZERO PUSH2 0x26B4 JUMPI PUSH1 0x0 DUP13 DUP13 DUP4 DUP2 DUP2 LT PUSH2 0x25F0 JUMPI PUSH2 0x25F0 PUSH2 0x55B6 JUMP JUMPDEST SWAP1 POP PUSH1 0x20 MUL ADD CALLDATALOAD PUSH1 0x3 PUSH2 0x2603 SWAP2 SWAP1 PUSH2 0x58E0 JUMP JUMPDEST SWAP1 POP PUSH2 0x26B2 DUP16 DUP16 DUP5 DUP2 DUP2 LT PUSH2 0x261A JUMPI PUSH2 0x261A PUSH2 0x55B6 JUMP JUMPDEST SWAP1 POP PUSH1 0x20 MUL ADD PUSH1 0x20 DUP2 ADD SWAP1 PUSH2 0x262F SWAP2 SWAP1 PUSH2 0x5011 JUMP JUMPDEST DUP15 DUP15 DUP6 DUP2 DUP2 LT PUSH2 0x2641 JUMPI PUSH2 0x2641 PUSH2 0x55B6 JUMP JUMPDEST SWAP1 POP PUSH1 0x20 MUL ADD CALLDATALOAD DUP14 DUP14 DUP7 DUP2 DUP2 LT PUSH2 0x265A JUMPI PUSH2 0x265A PUSH2 0x55B6 JUMP JUMPDEST SWAP1 POP PUSH1 0x20 MUL ADD CALLDATALOAD DUP5 DUP14 DUP14 DUP9 DUP2 DUP2 LT PUSH2 0x2674 JUMPI PUSH2 0x2674 PUSH2 0x55B6 JUMP JUMPDEST SWAP1 POP PUSH1 0x20 MUL ADD CALLDATALOAD DUP13 DUP13 DUP10 DUP2 DUP2 LT PUSH2 0x268D JUMPI PUSH2 0x268D PUSH2 0x55B6 JUMP JUMPDEST SWAP1 POP PUSH1 0x20 MUL ADD CALLDATALOAD DUP12 DUP12 DUP11 DUP2 DUP2 LT PUSH2 0x26A6 JUMPI PUSH2 0x26A6 PUSH2 0x55B6 JUMP JUMPDEST SWAP1 POP PUSH1 0x20 MUL ADD CALLDATALOAD PUSH2 0x3EB4 JUMP JUMPDEST POP JUMPDEST DUP1 PUSH2 0x26BE DUP2 PUSH2 0x58F7 JUMP JUMPDEST SWAP2 POP POP PUSH2 0x2577 JUMP JUMPDEST POP PUSH2 0x273F JUMP JUMPDEST PUSH1 0xDE SLOAD PUSH2 0x26DB SWAP1 PUSH1 0x1 SWAP1 PUSH2 0x55E2 JUMP JUMPDEST DUP2 PUSH1 0xFF AND SUB PUSH2 0x272D JUMPI PUSH1 0xDE DUP2 PUSH1 0xFF AND DUP2 SLOAD DUP2 LT PUSH2 0x26FA JUMPI PUSH2 0x26FA PUSH2 0x55B6 JUMP JUMPDEST PUSH1 0x0 SWAP2 DUP3 MSTORE PUSH1 0x20 SWAP1 SWAP2 KECCAK256 ADD SLOAD PUSH1 0x1 PUSH1 0x1 PUSH1 0xA0 SHL SUB AND CALLER EQ PUSH2 0x272D JUMPI PUSH1 0x40 MLOAD PUSH3 0x461BCD PUSH1 0xE5 SHL DUP2 MSTORE PUSH1 0x4 ADD PUSH2 0xAFC SWAP1 PUSH2 0x55F5 JUMP JUMPDEST DUP1 PUSH2 0x2737 DUP2 PUSH2 0x5620 JUMP JUMPDEST SWAP2 POP POP PUSH2 0x2536 JUMP JUMPDEST POP POP POP POP POP POP POP POP POP POP POP POP POP JUMP JUMPDEST PUSH1 0x0 JUMPDEST PUSH1 0xDE SLOAD PUSH1 0xFF DUP3 AND LT ISZERO PUSH2 0xB17 JUMPI PUSH1 0xDE DUP2 PUSH1 0xFF AND DUP2 SLOAD DUP2 LT PUSH2 0x2774 JUMPI PUSH2 0x2774 PUSH2 0x55B6 JUMP JUMPDEST PUSH1 0x0 SWAP2 DUP3 MSTORE PUSH1 0x20 SWAP1 SWAP2 KECCAK256 ADD SLOAD PUSH1 0x1 PUSH1 0x1 PUSH1 0xA0 SHL SUB AND CALLER SUB PUSH2 0x28B0 JUMPI PUSH1 0x1 PUSH1 0x1 PUSH1 0xA0 SHL SUB DUP3 AND PUSH1 0x0 SWAP1 DUP2 MSTORE PUSH1 0xDA PUSH1 0x20 MSTORE PUSH1 0x40 DUP2 KECCAK256 DUP1 SLOAD PUSH1 0xFF NOT AND SWAP1 SSTORE PUSH1 0xD8 SLOAD SWAP1 JUMPDEST DUP2 DUP2 LT ISZERO PUSH2 0xF30 JUMPI DUP4 PUSH1 0x1 PUSH1 0x1 PUSH1 0xA0 SHL SUB AND PUSH1 0xD8 DUP3 DUP2 SLOAD DUP2 LT PUSH2 0x27D9 JUMPI PUSH2 0x27D9 PUSH2 0x55B6 JUMP JUMPDEST PUSH1 0x0 SWAP2 DUP3 MSTORE PUSH1 0x20 SWAP1 SWAP2 KECCAK256 ADD SLOAD PUSH1 0x1 PUSH1 0x1 PUSH1 0xA0 SHL SUB AND SUB PUSH2 0x289E JUMPI PUSH1 0xD8 PUSH2 0x2800 PUSH1 0x1 DUP5 PUSH2 0x55E2 JUMP JUMPDEST DUP2 SLOAD DUP2 LT PUSH2 0x2810 JUMPI PUSH2 0x2810 PUSH2 0x55B6 JUMP JUMPDEST PUSH1 0x0 SWAP2 DUP3 MSTORE PUSH1 0x20 SWAP1 SWAP2 KECCAK256 ADD SLOAD PUSH1 0xD8 DUP1 SLOAD PUSH1 0x1 PUSH1 0x1 PUSH1 0xA0 SHL SUB SWAP1 SWAP3 AND SWAP2 DUP4 SWAP1 DUP2 LT PUSH2 0x283C JUMPI PUSH2 0x283C PUSH2 0x55B6 JUMP JUMPDEST SWAP1 PUSH1 0x0 MSTORE PUSH1 0x20 PUSH1 0x0 KECCAK256 ADD PUSH1 0x0 PUSH2 0x100 EXP DUP2 SLOAD DUP2 PUSH1 0x1 PUSH1 0x1 PUSH1 0xA0 SHL SUB MUL NOT AND SWAP1 DUP4 PUSH1 0x1 PUSH1 0x1 PUSH1 0xA0 SHL SUB AND MUL OR SWAP1 SSTORE POP PUSH1 0xD8 DUP1 SLOAD DUP1 PUSH2 0x287B JUMPI PUSH2 0x287B PUSH2 0x5910 JUMP JUMPDEST PUSH1 0x0 DUP3 DUP2 MSTORE PUSH1 0x20 SWAP1 KECCAK256 DUP2 ADD PUSH1 0x0 NOT SWAP1 DUP2 ADD DUP1 SLOAD PUSH1 0x1 PUSH1 0x1 PUSH1 0xA0 SHL SUB NOT AND SWAP1 SSTORE ADD SWAP1 SSTORE JUMPDEST DUP1 PUSH2 0x28A8 DUP2 PUSH2 0x58F7 JUMP JUMPDEST SWAP2 POP POP PUSH2 0x27B4 JUMP JUMPDEST PUSH1 0xDE SLOAD PUSH2 0x28BF SWAP1 PUSH1 0x1 SWAP1 PUSH2 0x55E2 JUMP JUMPDEST DUP2 PUSH1 0xFF AND SUB PUSH2 0x2911 JUMPI PUSH1 0xDE DUP2 PUSH1 0xFF AND DUP2 SLOAD DUP2 LT PUSH2 0x28DE JUMPI PUSH2 0x28DE PUSH2 0x55B6 JUMP JUMPDEST PUSH1 0x0 SWAP2 DUP3 MSTORE PUSH1 0x20 SWAP1 SWAP2 KECCAK256 ADD SLOAD PUSH1 0x1 PUSH1 0x1 PUSH1 0xA0 SHL SUB AND CALLER EQ PUSH2 0x2911 JUMPI PUSH1 0x40 MLOAD PUSH3 0x461BCD PUSH1 0xE5 SHL DUP2 MSTORE PUSH1 0x4 ADD PUSH2 0xAFC SWAP1 PUSH2 0x55F5 JUMP JUMPDEST DUP1 PUSH2 0x291B DUP2 PUSH2 0x5620 JUMP JUMPDEST SWAP2 POP POP PUSH2 0x2751 JUMP JUMPDEST CALLVALUE PUSH1 0x0 PUSH2 0x292F DUP3 PUSH2 0x3721 JUMP JUMPDEST SWAP1 POP PUSH2 0x293C PUSH1 0xCC SLOAD PUSH2 0x368B JUMP JUMPDEST DUP3 LT ISZERO PUSH2 0x298B JUMPI PUSH1 0x40 MLOAD PUSH3 0x461BCD PUSH1 0xE5 SHL DUP2 MSTORE PUSH1 0x20 PUSH1 0x4 DUP3 ADD MSTORE PUSH1 0x1F PUSH1 0x24 DUP3 ADD MSTORE PUSH32 0x56616C75652073686F756C6420626520677265617465207468656E2031303000 PUSH1 0x44 DUP3 ADD MSTORE PUSH1 0x64 ADD PUSH2 0xAFC JUMP JUMPDEST PUSH1 0xD1 SLOAD CALLER SWAP1 TIMESTAMP SWAP1 PUSH1 0x0 SWAP1 PUSH2 0x29AD SWAP1 PUSH1 0x1 PUSH1 0x20 SHL SWAP1 DIV PUSH4 0xFFFFFFFF AND PUSH1 0x1 PUSH2 0x56D7 JUMP JUMPDEST PUSH1 0xD1 SLOAD SWAP1 SWAP2 POP PUSH1 0x0 SWAP1 PUSH2 0x29CE SWAP1 PUSH1 0x1 PUSH1 0x40 SHL SWAP1 DIV PUSH4 0xFFFFFFFF AND PUSH1 0x1 PUSH2 0x56D7 JUMP JUMPDEST PUSH1 0x1 PUSH1 0x1 PUSH1 0xA0 SHL SUB DUP6 AND PUSH1 0x0 SWAP1 DUP2 MSTORE PUSH1 0xDA PUSH1 0x20 MSTORE PUSH1 0x40 SWAP1 KECCAK256 PUSH1 0xD4 SLOAD SWAP2 SWAP3 POP SWAP1 PUSH1 0xFF AND ISZERO PUSH2 0x2A01 JUMPI PUSH2 0x2A01 DUP4 DUP4 DUP9 DUP8 PUSH2 0x37AE JUMP JUMPDEST PUSH2 0x2A48 DUP4 PUSH1 0x40 MLOAD DUP1 PUSH1 0x20 ADD PUSH1 0x40 MSTORE DUP1 PUSH1 0x0 DUP2 MSTORE POP DUP11 PUSH1 0x40 MLOAD DUP1 PUSH1 0x20 ADD PUSH1 0x40 MSTORE DUP1 PUSH1 0x0 DUP2 MSTORE POP DUP10 DUP12 DUP13 PUSH1 0x3 PUSH2 0x2A35 SWAP2 SWAP1 PUSH2 0x58E0 JUMP JUMPDEST PUSH1 0xCB SLOAD DUP13 SWAP1 PUSH3 0x10000 SWAP1 DIV PUSH1 0xFF AND PUSH2 0x4023 JUMP JUMPDEST PUSH1 0x1 SWAP1 DUP2 ADD DUP1 SLOAD SWAP2 DUP3 ADD DUP2 SSTORE PUSH1 0x0 SWAP1 DUP2 MSTORE PUSH1 0x20 SWAP1 KECCAK256 PUSH1 0x8 DUP3 DIV ADD DUP1 SLOAD PUSH1 0x7 SWAP1 SWAP3 AND PUSH1 0x4 MUL PUSH2 0x100 EXP PUSH4 0xFFFFFFFF DUP2 DUP2 MUL NOT SWAP1 SWAP4 AND SWAP5 SWAP1 SWAP3 AND SWAP2 SWAP1 SWAP2 MUL SWAP3 SWAP1 SWAP3 OR SWAP1 SWAP2 SSTORE POP POP POP POP POP POP JUMP JUMPDEST PUSH4 0xFFFFFFFF DUP2 AND PUSH1 0x0 SWAP1 DUP2 MSTORE PUSH1 0xDB PUSH1 0x20 SWAP1 DUP2 MSTORE PUSH1 0x40 DUP1 DUP4 KECCAK256 PUSH1 0x6 ADD DUP1 SLOAD DUP3 MLOAD DUP2 DUP6 MUL DUP2 ADD DUP6 ADD SWAP1 SWAP4 MSTORE DUP1 DUP4 MSTORE DUP5 SWAP4 DUP4 ADD DUP3 DUP3 DUP1 ISZERO PUSH2 0x2B1C JUMPI PUSH1 0x20 MUL DUP3 ADD SWAP2 SWAP1 PUSH1 0x0 MSTORE PUSH1 0x20 PUSH1 0x0 KECCAK256 SWAP1 PUSH1 0x0 SWAP1 JUMPDEST DUP3 DUP3 SWAP1 SLOAD SWAP1 PUSH2 0x100 EXP SWAP1 DIV PUSH4 0xFFFFFFFF AND PUSH4 0xFFFFFFFF AND DUP2 MSTORE PUSH1 0x20 ADD SWAP1 PUSH1 0x4 ADD SWAP1 PUSH1 0x20 DUP3 PUSH1 0x3 ADD DIV SWAP3 DUP4 ADD SWAP3 PUSH1 0x1 SUB DUP3 MUL SWAP2 POP DUP1 DUP5 GT PUSH2 0x2ADF JUMPI SWAP1 POP JUMPDEST POP POP POP POP POP SWAP1 POP PUSH1 0x0 DUP1 JUMPDEST DUP3 MLOAD DUP2 PUSH2 0xFFFF AND LT ISZERO PUSH2 0x2BA2 JUMPI PUSH1 0x0 PUSH1 0xDC PUSH1 0x0 DUP6 DUP5 PUSH2 0xFFFF AND DUP2 MLOAD DUP2 LT PUSH2 0x2B50 JUMPI PUSH2 0x2B50 PUSH2 0x55B6 JUMP JUMPDEST PUSH1 0x20 SWAP1 DUP2 MUL SWAP2 SWAP1 SWAP2 ADD DUP2 ADD MLOAD PUSH4 0xFFFFFFFF AND DUP3 MSTORE DUP2 ADD SWAP2 SWAP1 SWAP2 MSTORE PUSH1 0x40 ADD PUSH1 0x0 KECCAK256 DUP1 SLOAD SWAP1 SWAP2 POP PUSH1 0xFF AND ISZERO PUSH2 0x2B8F JUMPI PUSH1 0x1 DUP2 ADD SLOAD PUSH2 0x2B8C SWAP1 DUP5 PUSH2 0x58CD JUMP JUMPDEST SWAP3 POP JUMPDEST POP DUP1 PUSH2 0x2B9A DUP2 PUSH2 0x58B6 JUMP JUMPDEST SWAP2 POP POP PUSH2 0x2B27 JUMP JUMPDEST POP SWAP4 SWAP3 POP POP POP JUMP JUMPDEST PUSH2 0x2BB2 PUSH2 0x3307 JUMP JUMPDEST PUSH1 0x1 PUSH1 0x1 PUSH1 0xA0 SHL SUB DUP2 AND PUSH2 0x2C17 JUMPI PUSH1 0x40 MLOAD PUSH3 0x461BCD PUSH1 0xE5 SHL DUP2 MSTORE PUSH1 0x20 PUSH1 0x4 DUP3 ADD MSTORE PUSH1 0x26 PUSH1 0x24 DUP3 ADD MSTORE PUSH32 0x4F776E61626C653A206E6577206F776E657220697320746865207A65726F2061 PUSH1 0x44 DUP3 ADD MSTORE PUSH6 0x646472657373 PUSH1 0xD0 SHL PUSH1 0x64 DUP3 ADD MSTORE PUSH1 0x84 ADD PUSH2 0xAFC JUMP JUMPDEST PUSH2 0xB89 DUP2 PUSH2 0x34F0 JUMP JUMPDEST PUSH4 0xFFFFFFFF DUP3 AND PUSH1 0x0 SWAP1 DUP2 MSTORE PUSH1 0xDB PUSH1 0x20 MSTORE PUSH1 0x40 SWAP1 KECCAK256 PUSH1 0x2 DUP2 ADD SLOAD PUSH2 0x100 SWAP1 DIV PUSH1 0x1 PUSH1 0x1 PUSH1 0xA0 SHL SUB AND CALLER EQ PUSH2 0x2C66 JUMPI PUSH1 0x40 MLOAD PUSH3 0x461BCD PUSH1 0xE5 SHL DUP2 MSTORE PUSH1 0x4 ADD PUSH2 0xAFC SWAP1 PUSH2 0x577A JUMP JUMPDEST PUSH1 0x0 PUSH2 0x2C71 DUP3 PUSH2 0x42FA JUMP JUMPDEST PUSH1 0x18 DUP4 ADD SLOAD SWAP1 SWAP2 POP PUSH2 0x2C83 DUP2 DUP4 PUSH2 0x55E2 JUMP JUMPDEST DUP5 GT ISZERO PUSH2 0x2CE5 JUMPI PUSH1 0x40 MLOAD PUSH3 0x461BCD PUSH1 0xE5 SHL DUP2 MSTORE PUSH1 0x20 PUSH1 0x4 DUP3 ADD MSTORE PUSH1 0x2A PUSH1 0x24 DUP3 ADD MSTORE PUSH32 0x506C6561736520656E7465722076616C7565206C657373207468656E20796F75 PUSH1 0x44 DUP3 ADD MSTORE PUSH10 0x39103130B630B731B297 PUSH1 0xB1 SHL PUSH1 0x64 DUP3 ADD MSTORE PUSH1 0x84 ADD PUSH2 0xAFC JUMP JUMPDEST DUP4 DUP4 PUSH1 0x18 ADD PUSH1 0x0 DUP3 DUP3 SLOAD PUSH2 0x2CF9 SWAP2 SWAP1 PUSH2 0x58CD JUMP JUMPDEST SWAP1 SWAP2 SSTORE POP CALLER SWAP1 POP PUSH2 0x8FC PUSH2 0x2D0C DUP7 PUSH2 0x368B JUMP JUMPDEST PUSH1 0x40 MLOAD DUP2 ISZERO SWAP1 SWAP3 MUL SWAP2 PUSH1 0x0 DUP2 DUP2 DUP2 DUP6 DUP9 DUP9 CALL SWAP4 POP POP POP POP ISZERO DUP1 ISZERO PUSH2 0x2D34 JUMPI RETURNDATASIZE PUSH1 0x0 DUP1 RETURNDATACOPY RETURNDATASIZE PUSH1 0x0 REVERT JUMPDEST POP POP POP POP POP POP JUMP JUMPDEST PUSH2 0x2E3F PUSH1 0x40 MLOAD DUP1 PUSH2 0x3E0 ADD PUSH1 0x40 MSTORE DUP1 PUSH1 0x0 PUSH4 0xFFFFFFFF AND DUP2 MSTORE PUSH1 0x20 ADD PUSH1 0x60 DUP2 MSTORE PUSH1 0x20 ADD PUSH1 0x0 ISZERO ISZERO DUP2 MSTORE PUSH1 0x20 ADD PUSH1 0x0 PUSH1 0x1 PUSH1 0x1 PUSH1 0xA0 SHL SUB AND DUP2 MSTORE PUSH1 0x20 ADD PUSH1 0x0 DUP2 MSTORE PUSH1 0x20 ADD PUSH1 0x0 DUP2 MSTORE PUSH1 0x20 ADD PUSH1 0x0 DUP2 MSTORE PUSH1 0x20 ADD PUSH1 0x60 DUP2 MSTORE PUSH1 0x20 ADD PUSH1 0x0 PUSH4 0xFFFFFFFF AND DUP2 MSTORE PUSH1 0x20 ADD PUSH1 0x60 DUP2 MSTORE PUSH1 0x20 ADD PUSH1 0x60 DUP2 MSTORE PUSH1 0x20 ADD PUSH1 0x60 DUP2 MSTORE PUSH1 0x20 ADD PUSH1 0x0 DUP2 MSTORE PUSH1 0x20 ADD PUSH1 0x0 DUP2 MSTORE PUSH1 0x20 ADD PUSH1 0x0 DUP2 MSTORE PUSH1 0x20 ADD PUSH1 0x0 DUP2 MSTORE PUSH1 0x20 ADD PUSH1 0x0 DUP2 MSTORE PUSH1 0x20 ADD PUSH1 0x0 DUP2 MSTORE PUSH1 0x20 ADD PUSH1 0x0 DUP2 MSTORE PUSH1 0x20 ADD PUSH1 0x0 DUP2 MSTORE PUSH1 0x20 ADD PUSH1 0x0 PUSH1 0xFF AND DUP2 MSTORE PUSH1 0x20 ADD PUSH1 0x0 DUP2 MSTORE PUSH1 0x20 ADD PUSH1 0x0 DUP2 MSTORE PUSH1 0x20 ADD PUSH1 0x0 DUP2 MSTORE PUSH1 0x20 ADD PUSH1 0x0 DUP2 MSTORE PUSH1 0x20 ADD PUSH1 0x0 DUP2 MSTORE PUSH1 0x20 ADD PUSH1 0x0 DUP2 MSTORE PUSH1 0x20 ADD PUSH1 0x0 DUP2 MSTORE PUSH1 0x20 ADD PUSH1 0x0 DUP2 MSTORE PUSH1 0x20 ADD PUSH1 0x0 DUP2 MSTORE PUSH1 0x20 ADD PUSH1 0x0 DUP2 MSTORE POP SWAP1 JUMP JUMPDEST PUSH4 0xFFFFFFFF DUP1 DUP4 AND PUSH1 0x0 SWAP1 DUP2 MSTORE PUSH1 0xDB PUSH1 0x20 SWAP1 DUP2 MSTORE PUSH1 0x40 SWAP2 DUP3 SWAP1 KECCAK256 DUP3 MLOAD PUSH2 0x3E0 DUP2 ADD SWAP1 SWAP4 MSTORE DUP1 SLOAD SWAP1 SWAP4 AND DUP3 MSTORE PUSH1 0x1 DUP4 ADD DUP1 SLOAD SWAP3 SWAP4 SWAP3 SWAP2 DUP5 ADD SWAP2 PUSH2 0x2E80 SWAP1 PUSH2 0x571E JUMP JUMPDEST DUP1 PUSH1 0x1F ADD PUSH1 0x20 DUP1 SWAP2 DIV MUL PUSH1 0x20 ADD PUSH1 0x40 MLOAD SWAP1 DUP2 ADD PUSH1 0x40 MSTORE DUP1 SWAP3 SWAP2 SWAP1 DUP2 DUP2 MSTORE PUSH1 0x20 ADD DUP3 DUP1 SLOAD PUSH2 0x2EAC SWAP1 PUSH2 0x571E JUMP JUMPDEST DUP1 ISZERO PUSH2 0x2EF9 JUMPI DUP1 PUSH1 0x1F LT PUSH2 0x2ECE JUMPI PUSH2 0x100 DUP1 DUP4 SLOAD DIV MUL DUP4 MSTORE SWAP2 PUSH1 0x20 ADD SWAP2 PUSH2 0x2EF9 JUMP JUMPDEST DUP3 ADD SWAP2 SWAP1 PUSH1 0x0 MSTORE PUSH1 0x20 PUSH1 0x0 KECCAK256 SWAP1 JUMPDEST DUP2 SLOAD DUP2 MSTORE SWAP1 PUSH1 0x1 ADD SWAP1 PUSH1 0x20 ADD DUP1 DUP4 GT PUSH2 0x2EDC JUMPI DUP3 SWAP1 SUB PUSH1 0x1F AND DUP3 ADD SWAP2 JUMPDEST POP POP POP SWAP2 DUP4 MSTORE POP POP PUSH1 0x2 DUP3 ADD SLOAD PUSH1 0xFF DUP2 AND ISZERO ISZERO PUSH1 0x20 DUP1 DUP5 ADD SWAP2 SWAP1 SWAP2 MSTORE PUSH2 0x100 SWAP1 SWAP2 DIV PUSH1 0x1 PUSH1 0x1 PUSH1 0xA0 SHL SUB AND PUSH1 0x40 DUP1 DUP5 ADD SWAP2 SWAP1 SWAP2 MSTORE PUSH1 0x3 DUP5 ADD SLOAD PUSH1 0x60 DUP5 ADD MSTORE PUSH1 0x4 DUP5 ADD SLOAD PUSH1 0x80 DUP5 ADD MSTORE PUSH1 0x5 DUP5 ADD SLOAD PUSH1 0xA0 DUP5 ADD MSTORE PUSH1 0x6 DUP5 ADD DUP1 SLOAD DUP3 MLOAD DUP2 DUP6 MUL DUP2 ADD DUP6 ADD SWAP1 SWAP4 MSTORE DUP1 DUP4 MSTORE PUSH1 0xC0 SWAP1 SWAP5 ADD SWAP4 SWAP2 SWAP3 SWAP1 SWAP2 SWAP1 DUP4 ADD DUP3 DUP3 DUP1 ISZERO PUSH2 0x2FC6 JUMPI PUSH1 0x20 MUL DUP3 ADD SWAP2 SWAP1 PUSH1 0x0 MSTORE PUSH1 0x20 PUSH1 0x0 KECCAK256 SWAP1 PUSH1 0x0 SWAP1 JUMPDEST DUP3 DUP3 SWAP1 SLOAD SWAP1 PUSH2 0x100 EXP SWAP1 DIV PUSH4 0xFFFFFFFF AND PUSH4 0xFFFFFFFF AND DUP2 MSTORE PUSH1 0x20 ADD SWAP1 PUSH1 0x4 ADD SWAP1 PUSH1 0x20 DUP3 PUSH1 0x3 ADD DIV SWAP3 DUP4 ADD SWAP3 PUSH1 0x1 SUB DUP3 MUL SWAP2 POP DUP1 DUP5 GT PUSH2 0x2F89 JUMPI SWAP1 POP JUMPDEST POP POP POP SWAP2 DUP4 MSTORE POP POP PUSH1 0x7 DUP3 ADD SLOAD PUSH4 0xFFFFFFFF AND PUSH1 0x20 DUP1 DUP4 ADD SWAP2 SWAP1 SWAP2 MSTORE PUSH1 0x8 DUP4 ADD DUP1 SLOAD PUSH1 0x40 DUP1 MLOAD DUP3 DUP6 MUL DUP2 ADD DUP6 ADD DUP3 MSTORE DUP3 DUP2 MSTORE SWAP5 ADD SWAP4 SWAP3 DUP4 ADD DUP3 DUP3 DUP1 ISZERO PUSH2 0x3057 JUMPI PUSH1 0x20 MUL DUP3 ADD SWAP2 SWAP1 PUSH1 0x0 MSTORE PUSH1 0x20 PUSH1 0x0 KECCAK256 SWAP1 PUSH1 0x0 SWAP1 JUMPDEST DUP3 DUP3 SWAP1 SLOAD SWAP1 PUSH2 0x100 EXP SWAP1 DIV PUSH4 0xFFFFFFFF AND PUSH4 0xFFFFFFFF AND DUP2 MSTORE PUSH1 0x20 ADD SWAP1 PUSH1 0x4 ADD SWAP1 PUSH1 0x20 DUP3 PUSH1 0x3 ADD DIV SWAP3 DUP4 ADD SWAP3 PUSH1 0x1 SUB DUP3 MUL SWAP2 POP DUP1 DUP5 GT PUSH2 0x301A JUMPI SWAP1 POP JUMPDEST POP POP POP POP POP DUP2 MSTORE PUSH1 0x20 ADD PUSH1 0x9 DUP3 ADD DUP1 SLOAD DUP1 PUSH1 0x20 MUL PUSH1 0x20 ADD PUSH1 0x40 MLOAD SWAP1 DUP2 ADD PUSH1 0x40 MSTORE DUP1 SWAP3 SWAP2 SWAP1 DUP2 DUP2 MSTORE PUSH1 0x20 ADD DUP3 DUP1 SLOAD DUP1 ISZERO PUSH2 0x30DB JUMPI PUSH1 0x20 MUL DUP3 ADD SWAP2 SWAP1 PUSH1 0x0 MSTORE PUSH1 0x20 PUSH1 0x0 KECCAK256 SWAP1 PUSH1 0x0 SWAP1 JUMPDEST DUP3 DUP3 SWAP1 SLOAD SWAP1 PUSH2 0x100 EXP SWAP1 DIV PUSH4 0xFFFFFFFF AND PUSH4 0xFFFFFFFF AND DUP2 MSTORE PUSH1 0x20 ADD SWAP1 PUSH1 0x4 ADD SWAP1 PUSH1 0x20 DUP3 PUSH1 0x3 ADD DIV SWAP3 DUP4 ADD SWAP3 PUSH1 0x1 SUB DUP3 MUL SWAP2 POP DUP1 DUP5 GT PUSH2 0x309E JUMPI SWAP1 POP JUMPDEST POP POP POP POP POP DUP2 MSTORE PUSH1 0x20 ADD PUSH1 0xA DUP3 ADD DUP1 SLOAD DUP1 PUSH1 0x20 MUL PUSH1 0x20 ADD PUSH1 0x40 MLOAD SWAP1 DUP2 ADD PUSH1 0x40 MSTORE DUP1 SWAP3 SWAP2 SWAP1 DUP2 DUP2 MSTORE PUSH1 0x20 ADD DUP3 DUP1 SLOAD DUP1 ISZERO PUSH2 0x315F JUMPI PUSH1 0x20 MUL DUP3 ADD SWAP2 SWAP1 PUSH1 0x0 MSTORE PUSH1 0x20 PUSH1 0x0 KECCAK256 SWAP1 PUSH1 0x0 SWAP1 JUMPDEST DUP3 DUP3 SWAP1 SLOAD SWAP1 PUSH2 0x100 EXP SWAP1 DIV PUSH4 0xFFFFFFFF AND PUSH4 0xFFFFFFFF AND DUP2 MSTORE PUSH1 0x20 ADD SWAP1 PUSH1 0x4 ADD SWAP1 PUSH1 0x20 DUP3 PUSH1 0x3 ADD DIV SWAP3 DUP4 ADD SWAP3 PUSH1 0x1 SUB DUP3 MUL SWAP2 POP DUP1 DUP5 GT PUSH2 0x3122 JUMPI SWAP1 POP JUMPDEST POP POP POP SWAP2 DUP4 MSTORE POP POP PUSH1 0xB DUP3 ADD SLOAD PUSH1 0x20 DUP3 ADD MSTORE PUSH1 0xC DUP3 ADD SLOAD PUSH1 0x40 DUP3 ADD MSTORE PUSH1 0xD DUP3 ADD SLOAD PUSH1 0x60 DUP3 ADD MSTORE PUSH1 0xE DUP3 ADD SLOAD PUSH1 0x80 DUP3 ADD MSTORE PUSH1 0xF DUP3 ADD SLOAD PUSH1 0xA0 DUP3 ADD MSTORE PUSH1 0x10 DUP3 ADD SLOAD PUSH1 0xC0 DUP3 ADD MSTORE PUSH1 0x11 DUP3 ADD SLOAD PUSH1 0xE0 DUP3 ADD MSTORE PUSH1 0x12 DUP3 ADD SLOAD PUSH2 0x100 DUP3 ADD MSTORE PUSH1 0x13 DUP3 ADD SLOAD PUSH1 0xFF AND PUSH2 0x120 DUP3 ADD MSTORE PUSH1 0x14 DUP3 ADD SLOAD PUSH2 0x140 DUP3 ADD MSTORE PUSH1 0x15 DUP3 ADD SLOAD PUSH2 0x160 DUP3 ADD MSTORE PUSH1 0x16 DUP3 ADD SLOAD PUSH2 0x180 DUP3 ADD MSTORE PUSH1 0x17 DUP3 ADD SLOAD PUSH2 0x1A0 DUP3 ADD MSTORE PUSH1 0x18 DUP3 ADD SLOAD PUSH2 0x1C0 DUP3 ADD MSTORE PUSH1 0x19 DUP3 ADD SLOAD PUSH2 0x1E0 DUP3 ADD MSTORE PUSH1 0x1A DUP3 ADD SLOAD PUSH2 0x200 DUP3 ADD MSTORE PUSH1 0x1B DUP3 ADD SLOAD PUSH2 0x220 DUP3 ADD MSTORE PUSH1 0x1C DUP3 ADD SLOAD PUSH2 0x240 DUP3 ADD MSTORE PUSH1 0x1D SWAP1 SWAP2 ADD SLOAD PUSH2 0x260 SWAP1 SWAP2 ADD MSTORE SWAP3 SWAP2 POP POP JUMP JUMPDEST PUSH1 0x40 DUP1 MLOAD DUP1 DUP3 ADD SWAP1 SWAP2 MSTORE PUSH1 0x0 DUP2 MSTORE PUSH1 0x60 PUSH1 0x20 DUP3 ADD MSTORE PUSH1 0x1 PUSH1 0x1 PUSH1 0xA0 SHL SUB DUP3 AND PUSH1 0x0 SWAP1 DUP2 MSTORE PUSH1 0xDA PUSH1 0x20 SWAP1 DUP2 MSTORE PUSH1 0x40 SWAP2 DUP3 SWAP1 KECCAK256 DUP3 MLOAD DUP1 DUP5 ADD DUP5 MSTORE DUP2 SLOAD PUSH1 0xFF AND ISZERO ISZERO DUP2 MSTORE PUSH1 0x1 DUP3 ADD DUP1 SLOAD DUP6 MLOAD DUP2 DUP7 MUL DUP2 ADD DUP7 ADD SWAP1 SWAP7 MSTORE DUP1 DUP7 MSTORE SWAP2 SWAP5 SWAP3 SWAP4 DUP6 DUP2 ADD SWAP4 SWAP3 SWAP1 DUP4 ADD DUP3 DUP3 DUP1 ISZERO PUSH2 0x32F7 JUMPI PUSH1 0x20 MUL DUP3 ADD SWAP2 SWAP1 PUSH1 0x0 MSTORE PUSH1 0x20 PUSH1 0x0 KECCAK256 SWAP1 PUSH1 0x0 SWAP1 JUMPDEST DUP3 DUP3 SWAP1 SLOAD SWAP1 PUSH2 0x100 EXP SWAP1 DIV PUSH4 0xFFFFFFFF AND PUSH4 0xFFFFFFFF AND DUP2 MSTORE PUSH1 0x20 ADD SWAP1 PUSH1 0x4 ADD SWAP1 PUSH1 0x20 DUP3 PUSH1 0x3 ADD DIV SWAP3 DUP4 ADD SWAP3 PUSH1 0x1 SUB DUP3 MUL SWAP2 POP DUP1 DUP5 GT PUSH2 0x32BA JUMPI SWAP1 POP JUMPDEST POP POP POP POP POP DUP2 MSTORE POP POP SWAP1 POP SWAP2 SWAP1 POP JUMP JUMPDEST PUSH1 0x33 SLOAD PUSH1 0x1 PUSH1 0x1 PUSH1 0xA0 SHL SUB AND CALLER EQ PUSH2 0x1251 JUMPI PUSH1 0x40 MLOAD PUSH3 0x461BCD PUSH1 0xE5 SHL DUP2 MSTORE PUSH1 0x20 PUSH1 0x4 DUP3 ADD DUP2 SWAP1 MSTORE PUSH1 0x24 DUP3 ADD MSTORE PUSH32 0x4F776E61626C653A2063616C6C6572206973206E6F7420746865206F776E6572 PUSH1 0x44 DUP3 ADD MSTORE PUSH1 0x64 ADD PUSH2 0xAFC JUMP JUMPDEST PUSH1 0x0 DUP1 MLOAD PUSH1 0x20 PUSH2 0x59DC DUP4 CODECOPY DUP2 MLOAD SWAP2 MSTORE SLOAD PUSH1 0x1 PUSH1 0x1 PUSH1 0xA0 SHL SUB AND SWAP1 JUMP JUMPDEST PUSH2 0xB89 PUSH2 0x3307 JUMP JUMPDEST PUSH32 0x4910FDFA16FED3260ED0E7147F7CC6DA11A60208B5B9406D12A635614FFD9143 SLOAD PUSH1 0xFF AND ISZERO PUSH2 0x33B8 JUMPI PUSH2 0xA34 DUP4 PUSH2 0x4322 JUMP JUMPDEST DUP3 PUSH1 0x1 PUSH1 0x1 PUSH1 0xA0 SHL SUB AND PUSH4 0x52D1902D PUSH1 0x40 MLOAD DUP2 PUSH4 0xFFFFFFFF AND PUSH1 0xE0 SHL DUP2 MSTORE PUSH1 0x4 ADD PUSH1 0x20 PUSH1 0x40 MLOAD DUP1 DUP4 SUB DUP2 DUP7 GAS STATICCALL SWAP3 POP POP POP DUP1 ISZERO PUSH2 0x3412 JUMPI POP PUSH1 0x40 DUP1 MLOAD PUSH1 0x1F RETURNDATASIZE SWAP1 DUP2 ADD PUSH1 0x1F NOT AND DUP3 ADD SWAP1 SWAP3 MSTORE PUSH2 0x340F SWAP2 DUP2 ADD SWAP1 PUSH2 0x5926 JUMP JUMPDEST PUSH1 0x1 JUMPDEST PUSH2 0x3475 JUMPI PUSH1 0x40 MLOAD PUSH3 0x461BCD PUSH1 0xE5 SHL DUP2 MSTORE PUSH1 0x20 PUSH1 0x4 DUP3 ADD MSTORE PUSH1 0x2E PUSH1 0x24 DUP3 ADD MSTORE PUSH32 0x45524331393637557067726164653A206E657720696D706C656D656E74617469 PUSH1 0x44 DUP3 ADD MSTORE PUSH14 0x6F6E206973206E6F742055555053 PUSH1 0x90 SHL PUSH1 0x64 DUP3 ADD MSTORE PUSH1 0x84 ADD PUSH2 0xAFC JUMP JUMPDEST PUSH1 0x0 DUP1 MLOAD PUSH1 0x20 PUSH2 0x59DC DUP4 CODECOPY DUP2 MLOAD SWAP2 MSTORE DUP2 EQ PUSH2 0x34E4 JUMPI PUSH1 0x40 MLOAD PUSH3 0x461BCD PUSH1 0xE5 SHL DUP2 MSTORE PUSH1 0x20 PUSH1 0x4 DUP3 ADD MSTORE PUSH1 0x29 PUSH1 0x24 DUP3 ADD MSTORE PUSH32 0x45524331393637557067726164653A20756E737570706F727465642070726F78 PUSH1 0x44 DUP3 ADD MSTORE PUSH9 0x1A58589B1955555251 PUSH1 0xBA SHL PUSH1 0x64 DUP3 ADD MSTORE PUSH1 0x84 ADD PUSH2 0xAFC JUMP JUMPDEST POP PUSH2 0xA34 DUP4 DUP4 DUP4 PUSH2 0x43BC JUMP JUMPDEST PUSH1 0x33 DUP1 SLOAD PUSH1 0x1 PUSH1 0x1 PUSH1 0xA0 SHL SUB DUP4 DUP2 AND PUSH1 0x1 PUSH1 0x1 PUSH1 0xA0 SHL SUB NOT DUP4 AND DUP2 OR SWAP1 SWAP4 SSTORE PUSH1 0x40 MLOAD SWAP2 AND SWAP2 SWAP1 DUP3 SWAP1 PUSH32 0x8BE0079C531659141344CD1FD0A4F28419497F9722A3DAAFE3B4186F6B6457E0 SWAP1 PUSH1 0x0 SWAP1 LOG3 POP POP JUMP JUMPDEST PUSH1 0xD9 SLOAD PUSH1 0x0 SWAP1 PUSH1 0xFF AND DUP2 JUMPDEST DUP2 PUSH1 0xFF AND DUP2 PUSH1 0xFF AND LT ISZERO PUSH2 0x252C JUMPI PUSH1 0xFF DUP2 AND PUSH1 0x0 SWAP1 DUP2 MSTORE PUSH1 0xDD PUSH1 0x20 MSTORE PUSH1 0x40 SWAP1 KECCAK256 PUSH1 0x1 ADD SLOAD PUSH2 0x180 DUP6 ADD MLOAD LT DUP1 ISZERO SWAP1 PUSH2 0x359F JUMPI POP PUSH1 0xFF DUP2 AND PUSH1 0x0 SWAP1 DUP2 MSTORE PUSH1 0xDD PUSH1 0x20 MSTORE PUSH1 0x40 SWAP1 KECCAK256 PUSH1 0x2 ADD SLOAD PUSH2 0x1C0 DUP6 ADD MLOAD LT ISZERO JUMPDEST DUP1 ISZERO PUSH2 0x35C5 JUMPI POP PUSH1 0xFF DUP2 AND PUSH1 0x0 SWAP1 DUP2 MSTORE PUSH1 0xDD PUSH1 0x20 MSTORE PUSH1 0x40 SWAP1 KECCAK256 PUSH1 0x3 ADD SLOAD PUSH2 0x200 DUP6 ADD MLOAD LT ISZERO JUMPDEST ISZERO PUSH2 0x35D2 JUMPI DUP1 SWAP3 POP PUSH2 0x35D7 JUMP JUMPDEST PUSH2 0x252C JUMP JUMPDEST DUP1 PUSH2 0x35E1 DUP2 PUSH2 0x5620 JUMP JUMPDEST SWAP2 POP POP PUSH2 0x354D JUMP JUMPDEST PUSH1 0x1 PUSH1 0x1 PUSH1 0xA0 SHL SUB AND EXTCODESIZE ISZERO ISZERO SWAP1 JUMP JUMPDEST PUSH1 0x0 SLOAD PUSH2 0x100 SWAP1 DIV PUSH1 0xFF AND PUSH2 0x361F JUMPI PUSH1 0x40 MLOAD PUSH3 0x461BCD PUSH1 0xE5 SHL DUP2 MSTORE PUSH1 0x4 ADD PUSH2 0xAFC SWAP1 PUSH2 0x593F JUMP JUMPDEST PUSH2 0x1251 PUSH2 0x43E1 JUMP JUMPDEST PUSH1 0x0 SLOAD PUSH2 0x100 SWAP1 DIV PUSH1 0xFF AND PUSH2 0x1251 JUMPI PUSH1 0x40 MLOAD PUSH3 0x461BCD PUSH1 0xE5 SHL DUP2 MSTORE PUSH1 0x4 ADD PUSH2 0xAFC SWAP1 PUSH2 0x593F JUMP JUMPDEST PUSH2 0x120 DUP2 ADD MLOAD MLOAD PUSH1 0x0 SWAP1 DUP2 DUP2 ISZERO PUSH2 0x2024 JUMPI PUSH1 0xD4 SLOAD PUSH1 0x1 SWAP1 PUSH2 0x3679 SWAP1 PUSH4 0x1000000 SWAP1 DIV PUSH1 0xFF AND DUP5 PUSH2 0x58E0 JUMP JUMPDEST PUSH2 0x3683 SWAP2 SWAP1 PUSH2 0x55E2 JUMP JUMPDEST SWAP5 SWAP4 POP POP POP POP JUMP JUMPDEST PUSH1 0x0 DUP1 PUSH1 0xC9 PUSH1 0x0 SWAP1 SLOAD SWAP1 PUSH2 0x100 EXP SWAP1 DIV PUSH1 0x1 PUSH1 0x1 PUSH1 0xA0 SHL SUB AND PUSH1 0x1 PUSH1 0x1 PUSH1 0xA0 SHL SUB AND PUSH4 0xE1AA6036 PUSH1 0x40 MLOAD DUP2 PUSH4 0xFFFFFFFF AND PUSH1 0xE0 SHL DUP2 MSTORE PUSH1 0x4 ADD PUSH1 0x20 PUSH1 0x40 MLOAD DUP1 DUP4 SUB DUP2 DUP7 GAS STATICCALL ISZERO DUP1 ISZERO PUSH2 0x36E1 JUMPI RETURNDATASIZE PUSH1 0x0 DUP1 RETURNDATACOPY RETURNDATASIZE PUSH1 0x0 REVERT JUMPDEST POP POP POP POP PUSH1 0x40 MLOAD RETURNDATASIZE PUSH1 0x1F NOT PUSH1 0x1F DUP3 ADD AND DUP3 ADD DUP1 PUSH1 0x40 MSTORE POP DUP2 ADD SWAP1 PUSH2 0x3705 SWAP2 SWAP1 PUSH2 0x5926 JUMP JUMPDEST PUSH2 0x3717 DUP5 PUSH8 0xDE0B6B3A7640000 PUSH2 0x58E0 JUMP JUMPDEST PUSH2 0x2024 SWAP2 SWAP1 PUSH2 0x598A JUMP JUMPDEST PUSH1 0x0 DUP1 PUSH8 0xDE0B6B3A7640000 PUSH1 0xC9 PUSH1 0x0 SWAP1 SLOAD SWAP1 PUSH2 0x100 EXP SWAP1 DIV PUSH1 0x1 PUSH1 0x1 PUSH1 0xA0 SHL SUB AND PUSH1 0x1 PUSH1 0x1 PUSH1 0xA0 SHL SUB AND PUSH4 0xE1AA6036 PUSH1 0x40 MLOAD DUP2 PUSH4 0xFFFFFFFF AND PUSH1 0xE0 SHL DUP2 MSTORE PUSH1 0x4 ADD PUSH1 0x20 PUSH1 0x40 MLOAD DUP1 DUP4 SUB DUP2 DUP7 GAS STATICCALL ISZERO DUP1 ISZERO PUSH2 0x3780 JUMPI RETURNDATASIZE PUSH1 0x0 DUP1 RETURNDATACOPY RETURNDATASIZE PUSH1 0x0 REVERT JUMPDEST POP POP POP POP PUSH1 0x40 MLOAD RETURNDATASIZE PUSH1 0x1F NOT PUSH1 0x1F DUP3 ADD AND DUP3 ADD DUP1 PUSH1 0x40 MSTORE POP DUP2 ADD SWAP1 PUSH2 0x37A4 SWAP2 SWAP1 PUSH2 0x5926 JUMP JUMPDEST PUSH2 0x3717 SWAP1 DUP6 PUSH2 0x58E0 JUMP JUMPDEST PUSH4 0xFFFFFFFF DUP4 DUP2 AND PUSH1 0x0 DUP2 DUP2 MSTORE PUSH1 0xDC PUSH1 0x20 SWAP1 DUP2 MSTORE PUSH1 0x40 DUP1 DUP4 KECCAK256 DUP10 DUP7 AND DUP1 DUP6 MSTORE PUSH1 0xDB DUP5 MSTORE SWAP2 DUP5 KECCAK256 DUP2 SLOAD PUSH1 0x1 PUSH5 0xFFFFFFFFFF NOT SWAP1 SWAP2 AND PUSH2 0x100 SWAP5 DUP6 MUL OR DUP2 OR DUP4 SSTORE DUP1 DUP4 ADD DUP11 SWAP1 SSTORE PUSH1 0xD1 DUP1 SLOAD PUSH1 0x2 DUP6 ADD DUP1 SLOAD PUSH1 0x1 PUSH1 0x60 SHL SWAP1 SWAP3 DIV PUSH2 0xFFFF AND PUSH2 0xFFFF NOT SWAP1 SWAP3 AND SWAP2 SWAP1 SWAP2 OR SWAP1 SSTORE PUSH1 0x3 DUP5 ADD DUP11 SWAP1 SSTORE PUSH1 0xD2 SLOAD PUSH1 0x4 DUP1 DUP7 ADD SWAP2 SWAP1 SWAP2 SSTORE PUSH1 0x6 DUP5 ADD DUP1 SLOAD SWAP4 DUP5 ADD DUP2 SSTORE DUP9 MSTORE SWAP6 SWAP1 SWAP7 KECCAK256 PUSH1 0x8 DUP1 DUP4 DIV SWAP1 SWAP2 ADD DUP1 SLOAD PUSH1 0x7 SWAP1 SWAP4 AND SWAP1 SWAP7 MUL SWAP1 SWAP5 EXP DUP1 DUP10 MUL NOT SWAP1 SWAP2 AND SWAP7 MUL SWAP6 SWAP1 SWAP6 OR SWAP1 SWAP3 SSTORE DUP3 SLOAD SWAP2 SWAP5 PUSH1 0x1 PUSH1 0x40 SHL SWAP1 SWAP3 DIV SWAP1 SWAP2 AND SWAP2 SWAP1 PUSH2 0x3879 DUP4 PUSH2 0x56FB JUMP JUMPDEST SWAP2 SWAP1 PUSH2 0x100 EXP DUP2 SLOAD DUP2 PUSH4 0xFFFFFFFF MUL NOT AND SWAP1 DUP4 PUSH4 0xFFFFFFFF AND MUL OR SWAP1 SSTORE POP POP POP POP POP POP POP POP JUMP JUMPDEST PUSH1 0xCB SLOAD PUSH4 0xFFFFFFFF DUP5 AND PUSH1 0x0 SWAP1 DUP2 MSTORE PUSH1 0xDB PUSH1 0x20 MSTORE PUSH1 0x40 SWAP1 KECCAK256 PUSH3 0x10000 SWAP1 SWAP2 DIV PUSH1 0xFF AND SWAP1 PUSH2 0x38CE DUP5 PUSH1 0x2 PUSH2 0x58E0 JUMP JUMPDEST DUP2 PUSH1 0x1A ADD DUP2 SWAP1 SSTORE POP DUP4 DUP2 PUSH1 0xB ADD PUSH1 0x0 DUP3 DUP3 SLOAD PUSH2 0x38EA SWAP2 SWAP1 PUSH2 0x58CD JUMP JUMPDEST SWAP3 POP POP DUP2 SWAP1 SSTORE POP DUP4 DUP2 PUSH1 0x17 ADD PUSH1 0x0 DUP3 DUP3 SLOAD PUSH2 0x3905 SWAP2 SWAP1 PUSH2 0x58CD JUMP JUMPDEST SWAP1 SWAP2 SSTORE POP PUSH1 0x0 SWAP1 POP JUMPDEST DUP3 DUP2 LT ISZERO PUSH2 0x2D34 JUMPI PUSH1 0x7 DUP3 ADD SLOAD PUSH4 0xFFFFFFFF SWAP1 DUP2 AND PUSH1 0x0 DUP2 DUP2 MSTORE PUSH1 0xDB PUSH1 0x20 MSTORE PUSH1 0x40 DUP2 KECCAK256 DUP1 SLOAD SWAP3 SWAP4 SWAP1 SWAP3 AND SWAP1 SUB PUSH2 0x3945 JUMPI POP POP PUSH2 0x2D34 JUMP JUMPDEST DUP3 PUSH1 0x0 SUB PUSH2 0x3967 JUMPI DUP7 DUP2 PUSH1 0xD ADD PUSH1 0x0 DUP3 DUP3 SLOAD PUSH2 0x3961 SWAP2 SWAP1 PUSH2 0x58CD JUMP JUMPDEST SWAP1 SWAP2 SSTORE POP POP JUMPDEST DUP7 DUP2 PUSH1 0xF ADD PUSH1 0x0 DUP3 DUP3 SLOAD PUSH2 0x397B SWAP2 SWAP1 PUSH2 0x58CD JUMP JUMPDEST SWAP1 SWAP2 SSTORE POP POP PUSH1 0xD4 SLOAD PUSH2 0x100 SWAP1 DIV PUSH1 0xFF AND ISZERO PUSH2 0x399C JUMPI PUSH2 0x399C DUP2 DUP4 DUP10 DUP10 PUSH2 0x4411 JUMP JUMPDEST PUSH2 0x39A6 DUP8 DUP8 PUSH2 0x4AA5 JUMP JUMPDEST SWAP3 POP DUP2 SWAP1 POP PUSH2 0x39B4 DUP2 PUSH2 0x58F7 JUMP JUMPDEST SWAP2 POP POP PUSH2 0x390E JUMP JUMPDEST PUSH4 0xFFFFFFFF DUP1 DUP3 AND PUSH1 0x0 SWAP1 DUP2 MSTORE PUSH1 0xDB PUSH1 0x20 SWAP1 DUP2 MSTORE PUSH1 0x40 DUP1 DUP4 KECCAK256 DUP2 MLOAD PUSH2 0x3E0 DUP2 ADD SWAP1 SWAP3 MSTORE DUP1 SLOAD SWAP1 SWAP5 AND DUP2 MSTORE PUSH1 0x1 DUP5 ADD DUP1 SLOAD SWAP4 SWAP5 DUP6 SWAP5 SWAP3 SWAP4 SWAP1 SWAP3 SWAP1 DUP5 ADD SWAP2 SWAP1 PUSH2 0x3A02 SWAP1 PUSH2 0x571E JUMP JUMPDEST DUP1 PUSH1 0x1F ADD PUSH1 0x20 DUP1 SWAP2 DIV MUL PUSH1 0x20 ADD PUSH1 0x40 MLOAD SWAP1 DUP2 ADD PUSH1 0x40 MSTORE DUP1 SWAP3 SWAP2 SWAP1 DUP2 DUP2 MSTORE PUSH1 0x20 ADD DUP3 DUP1 SLOAD PUSH2 0x3A2E SWAP1 PUSH2 0x571E JUMP JUMPDEST DUP1 ISZERO PUSH2 0x3A7B JUMPI DUP1 PUSH1 0x1F LT PUSH2 0x3A50 JUMPI PUSH2 0x100 DUP1 DUP4 SLOAD DIV MUL DUP4 MSTORE SWAP2 PUSH1 0x20 ADD SWAP2 PUSH2 0x3A7B JUMP JUMPDEST DUP3 ADD SWAP2 SWAP1 PUSH1 0x0 MSTORE PUSH1 0x20 PUSH1 0x0 KECCAK256 SWAP1 JUMPDEST DUP2 SLOAD DUP2 MSTORE SWAP1 PUSH1 0x1 ADD SWAP1 PUSH1 0x20 ADD DUP1 DUP4 GT PUSH2 0x3A5E JUMPI DUP3 SWAP1 SUB PUSH1 0x1F AND DUP3 ADD SWAP2 JUMPDEST POP POP POP SWAP2 DUP4 MSTORE POP POP PUSH1 0x2 DUP3 ADD SLOAD PUSH1 0xFF DUP2 AND ISZERO ISZERO PUSH1 0x20 DUP1 DUP5 ADD SWAP2 SWAP1 SWAP2 MSTORE PUSH2 0x100 SWAP1 SWAP2 DIV PUSH1 0x1 PUSH1 0x1 PUSH1 0xA0 SHL SUB AND PUSH1 0x40 DUP1 DUP5 ADD SWAP2 SWAP1 SWAP2 MSTORE PUSH1 0x3 DUP5 ADD SLOAD PUSH1 0x60 DUP5 ADD MSTORE PUSH1 0x4 DUP5 ADD SLOAD PUSH1 0x80 DUP5 ADD MSTORE PUSH1 0x5 DUP5 ADD SLOAD PUSH1 0xA0 DUP5 ADD MSTORE PUSH1 0x6 DUP5 ADD DUP1 SLOAD DUP3 MLOAD DUP2 DUP6 MUL DUP2 ADD DUP6 ADD SWAP1 SWAP4 MSTORE DUP1 DUP4 MSTORE PUSH1 0xC0 SWAP1 SWAP5 ADD SWAP4 SWAP2 SWAP3 SWAP1 SWAP2 SWAP1 DUP4 ADD DUP3 DUP3 DUP1 ISZERO PUSH2 0x3B48 JUMPI PUSH1 0x20 MUL DUP3 ADD SWAP2 SWAP1 PUSH1 0x0 MSTORE PUSH1 0x20 PUSH1 0x0 KECCAK256 SWAP1 PUSH1 0x0 SWAP1 JUMPDEST DUP3 DUP3 SWAP1 SLOAD SWAP1 PUSH2 0x100 EXP SWAP1 DIV PUSH4 0xFFFFFFFF AND PUSH4 0xFFFFFFFF AND DUP2 MSTORE PUSH1 0x20 ADD SWAP1 PUSH1 0x4 ADD SWAP1 PUSH1 0x20 DUP3 PUSH1 0x3 ADD DIV SWAP3 DUP4 ADD SWAP3 PUSH1 0x1 SUB DUP3 MUL SWAP2 POP DUP1 DUP5 GT PUSH2 0x3B0B JUMPI SWAP1 POP JUMPDEST POP POP POP SWAP2 DUP4 MSTORE POP POP PUSH1 0x7 DUP3 ADD SLOAD PUSH4 0xFFFFFFFF AND PUSH1 0x20 DUP1 DUP4 ADD SWAP2 SWAP1 SWAP2 MSTORE PUSH1 0x8 DUP4 ADD DUP1 SLOAD PUSH1 0x40 DUP1 MLOAD DUP3 DUP6 MUL DUP2 ADD DUP6 ADD DUP3 MSTORE DUP3 DUP2 MSTORE SWAP5 ADD SWAP4 SWAP3 DUP4 ADD DUP3 DUP3 DUP1 ISZERO PUSH2 0x3BD9 JUMPI PUSH1 0x20 MUL DUP3 ADD SWAP2 SWAP1 PUSH1 0x0 MSTORE PUSH1 0x20 PUSH1 0x0 KECCAK256 SWAP1 PUSH1 0x0 SWAP1 JUMPDEST DUP3 DUP3 SWAP1 SLOAD SWAP1 PUSH2 0x100 EXP SWAP1 DIV PUSH4 0xFFFFFFFF AND PUSH4 0xFFFFFFFF AND DUP2 MSTORE PUSH1 0x20 ADD SWAP1 PUSH1 0x4 ADD SWAP1 PUSH1 0x20 DUP3 PUSH1 0x3 ADD DIV SWAP3 DUP4 ADD SWAP3 PUSH1 0x1 SUB DUP3 MUL SWAP2 POP DUP1 DUP5 GT PUSH2 0x3B9C JUMPI SWAP1 POP JUMPDEST POP POP POP POP POP DUP2 MSTORE PUSH1 0x20 ADD PUSH1 0x9 DUP3 ADD DUP1 SLOAD DUP1 PUSH1 0x20 MUL PUSH1 0x20 ADD PUSH1 0x40 MLOAD SWAP1 DUP2 ADD PUSH1 0x40 MSTORE DUP1 SWAP3 SWAP2 SWAP1 DUP2 DUP2 MSTORE PUSH1 0x20 ADD DUP3 DUP1 SLOAD DUP1 ISZERO PUSH2 0x3C5D JUMPI PUSH1 0x20 MUL DUP3 ADD SWAP2 SWAP1 PUSH1 0x0 MSTORE PUSH1 0x20 PUSH1 0x0 KECCAK256 SWAP1 PUSH1 0x0 SWAP1 JUMPDEST DUP3 DUP3 SWAP1 SLOAD SWAP1 PUSH2 0x100 EXP SWAP1 DIV PUSH4 0xFFFFFFFF AND PUSH4 0xFFFFFFFF AND DUP2 MSTORE PUSH1 0x20 ADD SWAP1 PUSH1 0x4 ADD SWAP1 PUSH1 0x20 DUP3 PUSH1 0x3 ADD DIV SWAP3 DUP4 ADD SWAP3 PUSH1 0x1 SUB DUP3 MUL SWAP2 POP DUP1 DUP5 GT PUSH2 0x3C20 JUMPI SWAP1 POP JUMPDEST POP POP POP POP POP DUP2 MSTORE PUSH1 0x20 ADD PUSH1 0xA DUP3 ADD DUP1 SLOAD DUP1 PUSH1 0x20 MUL PUSH1 0x20 ADD PUSH1 0x40 MLOAD SWAP1 DUP2 ADD PUSH1 0x40 MSTORE DUP1 SWAP3 SWAP2 SWAP1 DUP2 DUP2 MSTORE PUSH1 0x20 ADD DUP3 DUP1 SLOAD DUP1 ISZERO PUSH2 0x3CE1 JUMPI PUSH1 0x20 MUL DUP3 ADD SWAP2 SWAP1 PUSH1 0x0 MSTORE PUSH1 0x20 PUSH1 0x0 KECCAK256 SWAP1 PUSH1 0x0 SWAP1 JUMPDEST DUP3 DUP3 SWAP1 SLOAD SWAP1 PUSH2 0x100 EXP SWAP1 DIV PUSH4 0xFFFFFFFF AND PUSH4 0xFFFFFFFF AND DUP2 MSTORE PUSH1 0x20 ADD SWAP1 PUSH1 0x4 ADD SWAP1 PUSH1 0x20 DUP3 PUSH1 0x3 ADD DIV SWAP3 DUP4 ADD SWAP3 PUSH1 0x1 SUB DUP3 MUL SWAP2 POP DUP1 DUP5 GT PUSH2 0x3CA4 JUMPI SWAP1 POP JUMPDEST POP POP POP SWAP2 DUP4 MSTORE POP POP PUSH1 0xB DUP3 ADD SLOAD PUSH1 0x20 DUP3 ADD MSTORE PUSH1 0xC DUP3 ADD SLOAD PUSH1 0x40 DUP3 ADD MSTORE PUSH1 0xD DUP3 ADD SLOAD PUSH1 0x60 DUP3 ADD MSTORE PUSH1 0xE DUP3 ADD SLOAD PUSH1 0x80 DUP3 ADD MSTORE PUSH1 0xF DUP3 ADD SLOAD PUSH1 0xA0 DUP3 ADD MSTORE PUSH1 0x10 DUP3 ADD SLOAD PUSH1 0xC0 DUP3 ADD MSTORE PUSH1 0x11 DUP3 ADD SLOAD PUSH1 0xE0 DUP1 DUP4 ADD SWAP2 SWAP1 SWAP2 MSTORE PUSH1 0x12 DUP4 ADD SLOAD PUSH2 0x100 DUP4 ADD MSTORE PUSH1 0x13 DUP4 ADD SLOAD PUSH1 0xFF AND PUSH2 0x120 DUP4 ADD MSTORE PUSH1 0x14 DUP4 ADD SLOAD PUSH2 0x140 DUP4 ADD MSTORE PUSH1 0x15 DUP4 ADD SLOAD PUSH2 0x160 DUP4 ADD MSTORE PUSH1 0x16 DUP4 ADD SLOAD PUSH2 0x180 DUP4 ADD MSTORE PUSH1 0x17 DUP4 ADD SLOAD PUSH2 0x1A0 DUP4 ADD MSTORE PUSH1 0x18 DUP4 ADD SLOAD PUSH2 0x1C0 DUP4 ADD MSTORE PUSH1 0x19 DUP4 ADD SLOAD PUSH2 0x1E0 DUP4 ADD MSTORE PUSH1 0x1A DUP4 ADD SLOAD PUSH2 0x200 DUP4 ADD MSTORE PUSH1 0x1B DUP4 ADD SLOAD PUSH2 0x220 DUP4 ADD MSTORE PUSH1 0x1C DUP4 ADD SLOAD PUSH2 0x240 DUP4 ADD MSTORE PUSH1 0x1D SWAP1 SWAP3 ADD SLOAD PUSH2 0x260 SWAP1 SWAP2 ADD MSTORE DUP2 ADD MLOAD DUP1 MLOAD SWAP2 SWAP3 POP SWAP1 PUSH1 0x0 JUMPDEST DUP2 DUP2 PUSH2 0xFFFF AND LT ISZERO PUSH2 0x3E9A JUMPI PUSH1 0x0 PUSH1 0xDC PUSH1 0x0 DUP6 DUP5 PUSH2 0xFFFF AND DUP2 MLOAD DUP2 LT PUSH2 0x3DF0 JUMPI PUSH2 0x3DF0 PUSH2 0x55B6 JUMP JUMPDEST PUSH1 0x20 SWAP1 DUP2 MUL SWAP2 SWAP1 SWAP2 ADD DUP2 ADD MLOAD PUSH4 0xFFFFFFFF AND DUP3 MSTORE DUP2 ADD SWAP2 SWAP1 SWAP2 MSTORE PUSH1 0x40 ADD PUSH1 0x0 SWAP1 DUP2 KECCAK256 PUSH1 0xD2 SLOAD PUSH1 0xCB SLOAD PUSH1 0xD1 SLOAD PUSH1 0x1 DUP5 ADD SLOAD SWAP4 SWAP6 POP TIMESTAMP SWAP5 SWAP4 PUSH2 0xFFFF SWAP3 DUP4 AND SWAP3 PUSH2 0x3E3F SWAP3 PUSH1 0x1 PUSH1 0x60 SHL SWAP1 DIV AND SWAP1 PUSH2 0x58E0 JUMP JUMPDEST PUSH2 0x3E49 SWAP2 SWAP1 PUSH2 0x598A JUMP JUMPDEST PUSH2 0x3E53 SWAP2 SWAP1 PUSH2 0x598A JUMP JUMPDEST SWAP1 POP PUSH1 0x0 DUP4 PUSH1 0x3 ADD SLOAD DUP4 PUSH2 0x3E67 SWAP2 SWAP1 PUSH2 0x55E2 JUMP JUMPDEST SWAP1 POP PUSH2 0x3E77 DUP2 DUP6 PUSH1 0x4 ADD SLOAD PUSH2 0x4ADF JUMP JUMPDEST PUSH2 0x3E81 SWAP1 DUP4 PUSH2 0x58E0 JUMP JUMPDEST SWAP9 POP POP POP POP POP DUP1 DUP1 PUSH2 0x3E92 SWAP1 PUSH2 0x58B6 JUMP JUMPDEST SWAP2 POP POP PUSH2 0x3DC8 JUMP JUMPDEST POP PUSH2 0x3A0 DUP4 ADD MLOAD PUSH2 0x3EAB SWAP1 DUP6 PUSH2 0x55E2 JUMP JUMPDEST POP POP POP POP SWAP2 SWAP1 POP JUMP JUMPDEST PUSH4 0xFFFFFFFF DUP8 AND PUSH1 0x0 SWAP1 DUP2 MSTORE PUSH1 0xDB PUSH1 0x20 MSTORE PUSH1 0x40 SWAP1 KECCAK256 PUSH1 0xCB SLOAD PUSH1 0x3 DUP3 ADD DUP5 SWAP1 SSTORE PUSH1 0x4 DUP3 ADD DUP4 SWAP1 SSTORE PUSH1 0xC DUP3 ADD DUP9 SWAP1 SSTORE PUSH1 0x15 DUP3 ADD DUP8 SWAP1 SSTORE PUSH1 0x18 DUP3 ADD DUP6 SWAP1 SSTORE PUSH1 0x19 DUP3 ADD DUP8 SWAP1 SSTORE PUSH1 0x1A DUP3 ADD DUP7 SWAP1 SSTORE PUSH1 0xD4 SLOAD PUSH1 0xFF PUSH3 0x10000 SWAP1 SWAP3 DIV DUP3 AND SWAP2 AND ISZERO PUSH2 0x3F2F JUMPI PUSH1 0xD1 SLOAD PUSH2 0x3F2F SWAP1 DUP11 SWAP1 PUSH1 0x1 PUSH1 0x40 SHL SWAP1 DIV PUSH4 0xFFFFFFFF AND DUP11 TIMESTAMP PUSH2 0x37AE JUMP JUMPDEST PUSH1 0x0 JUMPDEST DUP2 PUSH1 0xFF AND DUP2 PUSH1 0xFF AND LT ISZERO PUSH2 0x4017 JUMPI PUSH1 0x7 DUP4 ADD SLOAD PUSH4 0xFFFFFFFF SWAP1 DUP2 AND PUSH1 0x0 DUP2 DUP2 MSTORE PUSH1 0xDB PUSH1 0x20 MSTORE PUSH1 0x40 DUP2 KECCAK256 DUP1 SLOAD SWAP3 SWAP4 SWAP1 SWAP3 AND SWAP1 SUB PUSH2 0x3F6F JUMPI POP POP PUSH2 0x4017 JUMP JUMPDEST DUP3 PUSH1 0xFF AND PUSH1 0x0 SUB PUSH2 0x3F94 JUMPI DUP11 DUP2 PUSH1 0xE ADD PUSH1 0x0 DUP3 DUP3 SLOAD PUSH2 0x3F8E SWAP2 SWAP1 PUSH2 0x58CD JUMP JUMPDEST SWAP1 SWAP2 SSTORE POP POP JUMPDEST DUP11 DUP2 PUSH1 0x10 ADD PUSH1 0x0 DUP3 DUP3 SLOAD PUSH2 0x3FA8 SWAP2 SWAP1 PUSH2 0x58CD JUMP JUMPDEST SWAP3 POP POP DUP2 SWAP1 SSTORE POP DUP1 PUSH1 0x9 ADD DUP13 SWAP1 DUP1 PUSH1 0x1 DUP2 SLOAD ADD DUP1 DUP3 SSTORE DUP1 SWAP2 POP POP PUSH1 0x1 SWAP1 SUB SWAP1 PUSH1 0x0 MSTORE PUSH1 0x20 PUSH1 0x0 KECCAK256 SWAP1 PUSH1 0x8 SWAP2 DUP3 DUP3 DIV ADD SWAP2 SWAP1 MOD PUSH1 0x4 MUL SWAP1 SWAP2 SWAP1 SWAP2 SWAP1 SWAP2 PUSH2 0x100 EXP DUP2 SLOAD DUP2 PUSH4 0xFFFFFFFF MUL NOT AND SWAP1 DUP4 PUSH4 0xFFFFFFFF AND MUL OR SWAP1 SSTORE POP DUP1 SWAP5 POP POP POP DUP1 DUP1 PUSH2 0x400F SWAP1 PUSH2 0x5620 JUMP JUMPDEST SWAP2 POP POP PUSH2 0x3F32 JUMP JUMPDEST POP POP POP POP POP POP POP POP POP POP JUMP JUMPDEST PUSH4 0xFFFFFFFF DUP10 DUP2 AND PUSH1 0x0 DUP2 DUP2 MSTORE PUSH1 0xDB PUSH1 0x20 MSTORE PUSH1 0x40 DUP2 KECCAK256 DUP1 SLOAD PUSH4 0xFFFFFFFF NOT SWAP1 DUP2 AND SWAP1 SWAP4 OR DUP2 SSTORE PUSH1 0x7 DUP2 ADD DUP1 SLOAD SWAP1 SWAP4 AND SWAP4 DUP12 AND SWAP4 SWAP1 SWAP4 OR SWAP1 SWAP2 SSTORE PUSH1 0x2 DUP3 ADD DUP1 SLOAD PUSH2 0x100 PUSH1 0x1 PUSH1 0xA8 SHL SUB NOT AND PUSH2 0x100 PUSH1 0x1 PUSH1 0x1 PUSH1 0xA0 SHL SUB DUP11 AND MUL OR SWAP1 SSTORE PUSH1 0x3 DUP3 ADD DUP5 SWAP1 SSTORE PUSH1 0x4 DUP3 ADD DUP5 SWAP1 SSTORE PUSH1 0x1A DUP3 ADD DUP6 SWAP1 SSTORE PUSH1 0xB DUP3 ADD DUP1 SLOAD DUP8 SWAP3 SWAP1 PUSH2 0x40A7 SWAP1 DUP5 SWAP1 PUSH2 0x58CD JUMP JUMPDEST SWAP1 SWAP2 SSTORE POP POP PUSH1 0x1 DUP2 ADD PUSH2 0x40BA DUP11 DUP3 PUSH2 0x57F7 JUMP JUMPDEST POP PUSH1 0x0 JUMPDEST DUP3 PUSH1 0xFF AND DUP2 PUSH1 0xFF AND LT ISZERO PUSH2 0x42B1 JUMPI PUSH1 0x7 DUP3 ADD SLOAD PUSH4 0xFFFFFFFF SWAP1 DUP2 AND PUSH1 0x0 DUP2 DUP2 MSTORE PUSH1 0xDB PUSH1 0x20 MSTORE PUSH1 0x40 DUP2 KECCAK256 DUP1 SLOAD SWAP3 SWAP4 SWAP1 SWAP3 AND SWAP1 SUB PUSH2 0x40FB JUMPI POP POP PUSH2 0x42B1 JUMP JUMPDEST DUP3 PUSH1 0xFF AND PUSH1 0x0 SUB PUSH2 0x4184 JUMPI DUP8 DUP2 PUSH1 0xD ADD PUSH1 0x0 DUP3 DUP3 SLOAD PUSH2 0x411A SWAP2 SWAP1 PUSH2 0x58CD JUMP JUMPDEST SWAP3 POP POP DUP2 SWAP1 SSTORE POP DUP1 PUSH1 0x8 ADD DUP14 SWAP1 DUP1 PUSH1 0x1 DUP2 SLOAD ADD DUP1 DUP3 SSTORE DUP1 SWAP2 POP POP PUSH1 0x1 SWAP1 SUB SWAP1 PUSH1 0x0 MSTORE PUSH1 0x20 PUSH1 0x0 KECCAK256 SWAP1 PUSH1 0x8 SWAP2 DUP3 DUP3 DIV ADD SWAP2 SWAP1 MOD PUSH1 0x4 MUL SWAP1 SWAP2 SWAP1 SWAP2 SWAP1 SWAP2 PUSH2 0x100 EXP DUP2 SLOAD DUP2 PUSH4 0xFFFFFFFF MUL NOT AND SWAP1 DUP4 PUSH4 0xFFFFFFFF AND MUL OR SWAP1 SSTORE POP DUP10 DUP2 PUSH1 0x1 ADD SWAP1 DUP2 PUSH2 0x4182 SWAP2 SWAP1 PUSH2 0x57F7 JUMP JUMPDEST POP JUMPDEST DUP8 DUP2 PUSH1 0xF ADD PUSH1 0x0 DUP3 DUP3 SLOAD PUSH2 0x4198 SWAP2 SWAP1 PUSH2 0x58CD JUMP JUMPDEST SWAP3 POP POP DUP2 SWAP1 SSTORE POP DUP1 PUSH1 0x9 ADD DUP14 SWAP1 DUP1 PUSH1 0x1 DUP2 SLOAD ADD DUP1 DUP3 SSTORE DUP1 SWAP2 POP POP PUSH1 0x1 SWAP1 SUB SWAP1 PUSH1 0x0 MSTORE PUSH1 0x20 PUSH1 0x0 KECCAK256 SWAP1 PUSH1 0x8 SWAP2 DUP3 DUP3 DIV ADD SWAP2 SWAP1 MOD PUSH1 0x4 MUL SWAP1 SWAP2 SWAP1 SWAP2 SWAP1 SWAP2 PUSH2 0x100 EXP DUP2 SLOAD DUP2 PUSH4 0xFFFFFFFF MUL NOT AND SWAP1 DUP4 PUSH4 0xFFFFFFFF AND MUL OR SWAP1 SSTORE POP DUP13 PUSH4 0xFFFFFFFF AND DUP12 PUSH4 0xFFFFFFFF AND DUP3 PUSH1 0x2 ADD PUSH1 0x1 SWAP1 SLOAD SWAP1 PUSH2 0x100 EXP SWAP1 DIV PUSH1 0x1 PUSH1 0x1 PUSH1 0xA0 SHL SUB AND PUSH1 0x1 PUSH1 0x1 PUSH1 0xA0 SHL SUB AND PUSH32 0xA7FAFC728EC30E34DC1E1276496BF3EB44CA7494679DA969455289E6A8F0F1F6 DUP8 PUSH1 0x7 ADD PUSH1 0x0 SWAP1 SLOAD SWAP1 PUSH2 0x100 EXP SWAP1 DIV PUSH4 0xFFFFFFFF AND PUSH1 0x40 MLOAD PUSH2 0x426D SWAP2 SWAP1 PUSH4 0xFFFFFFFF SWAP2 SWAP1 SWAP2 AND DUP2 MSTORE PUSH1 0x20 ADD SWAP1 JUMP JUMPDEST PUSH1 0x40 MLOAD DUP1 SWAP2 SUB SWAP1 LOG4 PUSH1 0xD4 SLOAD PUSH2 0x100 SWAP1 DIV PUSH1 0xFF AND ISZERO PUSH2 0x4291 JUMPI PUSH2 0x4291 DUP2 DUP4 DUP11 DUP10 PUSH2 0x4411 JUMP JUMPDEST PUSH2 0x429B DUP9 DUP8 PUSH2 0x4AA5 JUMP JUMPDEST SWAP3 POP DUP2 SWAP1 POP PUSH2 0x42A9 DUP2 PUSH2 0x5620 JUMP JUMPDEST SWAP2 POP POP PUSH2 0x40BE JUMP JUMPDEST POP PUSH1 0xD1 DUP1 SLOAD PUSH1 0x1 PUSH1 0x20 SHL SWAP1 DIV PUSH4 0xFFFFFFFF AND SWAP1 PUSH1 0x4 PUSH2 0x42CF DUP4 PUSH2 0x56FB JUMP JUMPDEST SWAP2 SWAP1 PUSH2 0x100 EXP DUP2 SLOAD DUP2 PUSH4 0xFFFFFFFF MUL NOT AND SWAP1 DUP4 PUSH4 0xFFFFFFFF AND MUL OR SWAP1 SSTORE POP POP POP POP POP POP POP POP POP POP POP POP JUMP JUMPDEST PUSH1 0x0 DUP2 PUSH1 0x1A ADD SLOAD DUP3 PUSH1 0x19 ADD SLOAD LT ISZERO PUSH2 0x4316 JUMPI DUP2 PUSH1 0x19 ADD SLOAD PUSH2 0x431C JUMP JUMPDEST DUP2 PUSH1 0x1A ADD SLOAD JUMPDEST SWAP3 SWAP2 POP POP JUMP JUMPDEST PUSH2 0x432B DUP2 PUSH2 0x35E9 JUMP JUMPDEST PUSH2 0x438D JUMPI PUSH1 0x40 MLOAD PUSH3 0x461BCD PUSH1 0xE5 SHL DUP2 MSTORE PUSH1 0x20 PUSH1 0x4 DUP3 ADD MSTORE PUSH1 0x2D PUSH1 0x24 DUP3 ADD MSTORE PUSH32 0x455243313936373A206E657720696D706C656D656E746174696F6E206973206E PUSH1 0x44 DUP3 ADD MSTORE PUSH13 0x1BDD08184818DBDB9D1C9858DD PUSH1 0x9A SHL PUSH1 0x64 DUP3 ADD MSTORE PUSH1 0x84 ADD PUSH2 0xAFC JUMP JUMPDEST PUSH1 0x0 DUP1 MLOAD PUSH1 0x20 PUSH2 0x59DC DUP4 CODECOPY DUP2 MLOAD SWAP2 MSTORE DUP1 SLOAD PUSH1 0x1 PUSH1 0x1 PUSH1 0xA0 SHL SUB NOT AND PUSH1 0x1 PUSH1 0x1 PUSH1 0xA0 SHL SUB SWAP3 SWAP1 SWAP3 AND SWAP2 SWAP1 SWAP2 OR SWAP1 SSTORE JUMP JUMPDEST PUSH2 0x43C5 DUP4 PUSH2 0x4AF7 JUMP JUMPDEST PUSH1 0x0 DUP3 MLOAD GT DUP1 PUSH2 0x43D2 JUMPI POP DUP1 JUMPDEST ISZERO PUSH2 0xA34 JUMPI PUSH2 0xF30 DUP4 DUP4 PUSH2 0x4B37 JUMP JUMPDEST PUSH1 0x0 SLOAD PUSH2 0x100 SWAP1 DIV PUSH1 0xFF AND PUSH2 0x4408 JUMPI PUSH1 0x40 MLOAD PUSH3 0x461BCD PUSH1 0xE5 SHL DUP2 MSTORE PUSH1 0x4 ADD PUSH2 0xAFC SWAP1 PUSH2 0x593F JUMP JUMPDEST PUSH2 0x1251 CALLER PUSH2 0x34F0 JUMP JUMPDEST PUSH1 0x13 DUP5 ADD SLOAD PUSH1 0x40 DUP1 MLOAD PUSH2 0x3E0 DUP2 ADD SWAP1 SWAP2 MSTORE DUP6 SLOAD PUSH4 0xFFFFFFFF AND DUP2 MSTORE PUSH1 0x1 DUP7 ADD DUP1 SLOAD PUSH1 0xFF SWAP1 SWAP4 AND SWAP3 PUSH2 0x4809 SWAP3 SWAP2 DUP9 SWAP2 PUSH1 0x20 DUP5 ADD SWAP2 SWAP1 PUSH2 0x444E SWAP1 PUSH2 0x571E JUMP JUMPDEST DUP1 PUSH1 0x1F ADD PUSH1 0x20 DUP1 SWAP2 DIV MUL PUSH1 0x20 ADD PUSH1 0x40 MLOAD SWAP1 DUP2 ADD PUSH1 0x40 MSTORE DUP1 SWAP3 SWAP2 SWAP1 DUP2 DUP2 MSTORE PUSH1 0x20 ADD DUP3 DUP1 SLOAD PUSH2 0x447A SWAP1 PUSH2 0x571E JUMP JUMPDEST DUP1 ISZERO PUSH2 0x44C7 JUMPI DUP1 PUSH1 0x1F LT PUSH2 0x449C JUMPI PUSH2 0x100 DUP1 DUP4 SLOAD DIV MUL DUP4 MSTORE SWAP2 PUSH1 0x20 ADD SWAP2 PUSH2 0x44C7 JUMP JUMPDEST DUP3 ADD SWAP2 SWAP1 PUSH1 0x0 MSTORE PUSH1 0x20 PUSH1 0x0 KECCAK256 SWAP1 JUMPDEST DUP2 SLOAD DUP2 MSTORE SWAP1 PUSH1 0x1 ADD SWAP1 PUSH1 0x20 ADD DUP1 DUP4 GT PUSH2 0x44AA JUMPI DUP3 SWAP1 SUB PUSH1 0x1F AND DUP3 ADD SWAP2 JUMPDEST POP POP POP SWAP2 DUP4 MSTORE POP POP PUSH1 0x2 DUP3 ADD SLOAD PUSH1 0xFF DUP2 AND ISZERO ISZERO PUSH1 0x20 DUP1 DUP5 ADD SWAP2 SWAP1 SWAP2 MSTORE PUSH2 0x100 SWAP1 SWAP2 DIV PUSH1 0x1 PUSH1 0x1 PUSH1 0xA0 SHL SUB AND PUSH1 0x40 DUP1 DUP5 ADD SWAP2 SWAP1 SWAP2 MSTORE PUSH1 0x3 DUP5 ADD SLOAD PUSH1 0x60 DUP5 ADD MSTORE PUSH1 0x4 DUP5 ADD SLOAD PUSH1 0x80 DUP5 ADD MSTORE PUSH1 0x5 DUP5 ADD SLOAD PUSH1 0xA0 DUP5 ADD MSTORE PUSH1 0x6 DUP5 ADD DUP1 SLOAD DUP3 MLOAD DUP2 DUP6 MUL DUP2 ADD DUP6 ADD SWAP1 SWAP4 MSTORE DUP1 DUP4 MSTORE PUSH1 0xC0 SWAP1 SWAP5 ADD SWAP4 SWAP2 SWAP3 SWAP1 SWAP2 SWAP1 DUP4 ADD DUP3 DUP3 DUP1 ISZERO PUSH2 0x4594 JUMPI PUSH1 0x20 MUL DUP3 ADD SWAP2 SWAP1 PUSH1 0x0 MSTORE PUSH1 0x20 PUSH1 0x0 KECCAK256 SWAP1 PUSH1 0x0 SWAP1 JUMPDEST DUP3 DUP3 SWAP1 SLOAD SWAP1 PUSH2 0x100 EXP SWAP1 DIV PUSH4 0xFFFFFFFF AND PUSH4 0xFFFFFFFF AND DUP2 MSTORE PUSH1 0x20 ADD SWAP1 PUSH1 0x4 ADD SWAP1 PUSH1 0x20 DUP3 PUSH1 0x3 ADD DIV SWAP3 DUP4 ADD SWAP3 PUSH1 0x1 SUB DUP3 MUL SWAP2 POP DUP1 DUP5 GT PUSH2 0x4557 JUMPI SWAP1 POP JUMPDEST POP POP POP SWAP2 DUP4 MSTORE POP POP PUSH1 0x7 DUP3 ADD SLOAD PUSH4 0xFFFFFFFF AND PUSH1 0x20 DUP1 DUP4 ADD SWAP2 SWAP1 SWAP2 MSTORE PUSH1 0x8 DUP4 ADD DUP1 SLOAD PUSH1 0x40 DUP1 MLOAD DUP3 DUP6 MUL DUP2 ADD DUP6 ADD DUP3 MSTORE DUP3 DUP2 MSTORE SWAP5 ADD SWAP4 SWAP3 DUP4 ADD DUP3 DUP3 DUP1 ISZERO PUSH2 0x4625 JUMPI PUSH1 0x20 MUL DUP3 ADD SWAP2 SWAP1 PUSH1 0x0 MSTORE PUSH1 0x20 PUSH1 0x0 KECCAK256 SWAP1 PUSH1 0x0 SWAP1 JUMPDEST DUP3 DUP3 SWAP1 SLOAD SWAP1 PUSH2 0x100 EXP SWAP1 DIV PUSH4 0xFFFFFFFF AND PUSH4 0xFFFFFFFF AND DUP2 MSTORE PUSH1 0x20 ADD SWAP1 PUSH1 0x4 ADD SWAP1 PUSH1 0x20 DUP3 PUSH1 0x3 ADD DIV SWAP3 DUP4 ADD SWAP3 PUSH1 0x1 SUB DUP3 MUL SWAP2 POP DUP1 DUP5 GT PUSH2 0x45E8 JUMPI SWAP1 POP JUMPDEST POP POP POP POP POP DUP2 MSTORE PUSH1 0x20 ADD PUSH1 0x9 DUP3 ADD DUP1 SLOAD DUP1 PUSH1 0x20 MUL PUSH1 0x20 ADD PUSH1 0x40 MLOAD SWAP1 DUP2 ADD PUSH1 0x40 MSTORE DUP1 SWAP3 SWAP2 SWAP1 DUP2 DUP2 MSTORE PUSH1 0x20 ADD DUP3 DUP1 SLOAD DUP1 ISZERO PUSH2 0x46A9 JUMPI PUSH1 0x20 MUL DUP3 ADD SWAP2 SWAP1 PUSH1 0x0 MSTORE PUSH1 0x20 PUSH1 0x0 KECCAK256 SWAP1 PUSH1 0x0 SWAP1 JUMPDEST DUP3 DUP3 SWAP1 SLOAD SWAP1 PUSH2 0x100 EXP SWAP1 DIV PUSH4 0xFFFFFFFF AND PUSH4 0xFFFFFFFF AND DUP2 MSTORE PUSH1 0x20 ADD SWAP1 PUSH1 0x4 ADD SWAP1 PUSH1 0x20 DUP3 PUSH1 0x3 ADD DIV SWAP3 DUP4 ADD SWAP3 PUSH1 0x1 SUB DUP3 MUL SWAP2 POP DUP1 DUP5 GT PUSH2 0x466C JUMPI SWAP1 POP JUMPDEST POP POP POP POP POP DUP2 MSTORE PUSH1 0x20 ADD PUSH1 0xA DUP3 ADD DUP1 SLOAD DUP1 PUSH1 0x20 MUL PUSH1 0x20 ADD PUSH1 0x40 MLOAD SWAP1 DUP2 ADD PUSH1 0x40 MSTORE DUP1 SWAP3 SWAP2 SWAP1 DUP2 DUP2 MSTORE PUSH1 0x20 ADD DUP3 DUP1 SLOAD DUP1 ISZERO PUSH2 0x472D JUMPI PUSH1 0x20 MUL DUP3 ADD SWAP2 SWAP1 PUSH1 0x0 MSTORE PUSH1 0x20 PUSH1 0x0 KECCAK256 SWAP1 PUSH1 0x0 SWAP1 JUMPDEST DUP3 DUP3 SWAP1 SLOAD SWAP1 PUSH2 0x100 EXP SWAP1 DIV PUSH4 0xFFFFFFFF AND PUSH4 0xFFFFFFFF AND DUP2 MSTORE PUSH1 0x20 ADD SWAP1 PUSH1 0x4 ADD SWAP1 PUSH1 0x20 DUP3 PUSH1 0x3 ADD DIV SWAP3 DUP4 ADD SWAP3 PUSH1 0x1 SUB DUP3 MUL SWAP2 POP DUP1 DUP5 GT PUSH2 0x46F0 JUMPI SWAP1 POP JUMPDEST POP POP POP SWAP2 DUP4 MSTORE POP POP PUSH1 0xB DUP3 ADD SLOAD PUSH1 0x20 DUP3 ADD MSTORE PUSH1 0xC DUP3 ADD SLOAD PUSH1 0x40 DUP3 ADD MSTORE PUSH1 0xD DUP3 ADD SLOAD PUSH1 0x60 DUP3 ADD MSTORE PUSH1 0xE DUP3 ADD SLOAD PUSH1 0x80 DUP3 ADD MSTORE PUSH1 0xF DUP3 ADD SLOAD PUSH1 0xA0 DUP3 ADD MSTORE PUSH1 0x10 DUP3 ADD SLOAD PUSH1 0xC0 DUP3 ADD MSTORE PUSH1 0x11 DUP3 ADD SLOAD PUSH1 0xE0 DUP3 ADD MSTORE PUSH1 0x12 DUP3 ADD SLOAD PUSH2 0x100 DUP3 ADD MSTORE PUSH1 0x13 DUP3 ADD SLOAD PUSH1 0xFF AND PUSH2 0x120 DUP3 ADD MSTORE PUSH1 0x14 DUP3 ADD SLOAD PUSH2 0x140 DUP3 ADD MSTORE PUSH1 0x15 DUP3 ADD SLOAD PUSH2 0x160 DUP3 ADD MSTORE PUSH1 0x16 DUP3 ADD SLOAD PUSH2 0x180 DUP3 ADD MSTORE PUSH1 0x17 DUP3 ADD SLOAD PUSH2 0x1A0 DUP3 ADD MSTORE PUSH1 0x18 DUP3 ADD SLOAD PUSH2 0x1C0 DUP3 ADD MSTORE PUSH1 0x19 DUP3 ADD SLOAD PUSH2 0x1E0 DUP3 ADD MSTORE PUSH1 0x1A DUP3 ADD SLOAD PUSH2 0x200 DUP3 ADD MSTORE PUSH1 0x1B DUP3 ADD SLOAD PUSH2 0x220 DUP3 ADD MSTORE PUSH1 0x1C DUP3 ADD SLOAD PUSH2 0x240 DUP3 ADD MSTORE PUSH1 0x1D SWAP1 SWAP2 ADD SLOAD PUSH2 0x260 SWAP1 SWAP2 ADD MSTORE PUSH2 0x3542 JUMP JUMPDEST PUSH1 0xFF AND GT ISZERO PUSH2 0xF30 JUMPI PUSH1 0x40 DUP1 MLOAD PUSH2 0x3E0 DUP2 ADD SWAP1 SWAP2 MSTORE DUP5 SLOAD PUSH4 0xFFFFFFFF AND DUP2 MSTORE PUSH1 0x1 DUP6 ADD DUP1 SLOAD PUSH2 0x4844 SWAP3 SWAP2 DUP8 SWAP2 PUSH1 0x20 DUP5 ADD SWAP2 SWAP1 PUSH2 0x444E SWAP1 PUSH2 0x571E JUMP JUMPDEST PUSH1 0x13 DUP6 ADD DUP1 SLOAD PUSH1 0xFF NOT AND PUSH1 0xFF SWAP3 DUP4 AND SWAP1 DUP2 OR DUP3 SSTORE PUSH1 0x0 SWAP1 DUP2 MSTORE PUSH1 0xDD PUSH1 0x20 SWAP1 DUP2 MSTORE PUSH1 0x40 DUP1 DUP4 KECCAK256 PUSH1 0x9 SWAP1 DUP2 ADD DUP1 SLOAD PUSH1 0x1 DUP2 DUP2 ADD DUP4 SSTORE SWAP2 DUP7 MSTORE SWAP4 DUP6 KECCAK256 PUSH1 0x8 DUP6 DIV ADD DUP1 SLOAD PUSH1 0x7 SWAP1 SWAP6 AND PUSH1 0x4 MUL PUSH2 0x100 EXP PUSH4 0xFFFFFFFF DUP2 DUP2 MUL NOT SWAP1 SWAP7 AND SWAP6 DUP13 AND MUL SWAP5 SWAP1 SWAP5 OR SWAP1 SWAP4 SSTORE SWAP4 SLOAD SWAP1 SWAP5 AND DUP3 MSTORE SWAP3 SWAP1 KECCAK256 ADD SLOAD PUSH2 0x48BD SWAP2 SWAP1 PUSH2 0x55E2 JUMP JUMPDEST PUSH1 0x14 DUP6 ADD DUP2 SWAP1 SSTORE PUSH1 0x13 DUP6 ADD SLOAD PUSH1 0x40 DUP1 MLOAD PUSH4 0xFFFFFFFF DUP8 AND DUP2 MSTORE PUSH1 0x20 DUP2 ADD SWAP4 SWAP1 SWAP4 MSTORE PUSH1 0xFF SWAP1 SWAP2 AND DUP3 DUP3 ADD MSTORE MLOAD PUSH32 0xB0D3A9C683344E744A1AE3DB383F75A8A01851282C5FE97D6159C1392A2E2A0A SWAP2 DUP2 SWAP1 SUB PUSH1 0x60 ADD SWAP1 LOG1 PUSH1 0x40 DUP1 MLOAD PUSH2 0x3E0 DUP2 ADD SWAP1 SWAP2 MSTORE DUP5 SLOAD PUSH4 0xFFFFFFFF AND DUP2 MSTORE PUSH1 0x1 DUP6 ADD DUP1 SLOAD PUSH1 0xDD SWAP3 PUSH1 0x0 SWAP3 PUSH2 0x4948 SWAP3 DUP10 SWAP2 PUSH1 0x20 DUP5 ADD SWAP2 PUSH2 0x444E SWAP1 PUSH2 0x571E JUMP JUMPDEST PUSH1 0xFF SWAP1 DUP2 AND DUP3 MSTORE PUSH1 0x20 DUP3 ADD SWAP3 SWAP1 SWAP3 MSTORE PUSH1 0x40 ADD PUSH1 0x0 KECCAK256 PUSH1 0x8 ADD SLOAD PUSH2 0x100 SWAP1 DIV AND ISZERO PUSH2 0x4A0C JUMPI PUSH1 0x40 DUP1 MLOAD PUSH2 0x3E0 DUP2 ADD SWAP1 SWAP2 MSTORE DUP5 SLOAD PUSH4 0xFFFFFFFF AND DUP2 MSTORE PUSH1 0x1 DUP6 ADD DUP1 SLOAD PUSH1 0xDD SWAP3 PUSH1 0x0 SWAP3 PUSH2 0x49A2 SWAP3 DUP10 SWAP2 PUSH1 0x20 DUP5 ADD SWAP2 PUSH2 0x444E SWAP1 PUSH2 0x571E JUMP JUMPDEST PUSH1 0xFF AND PUSH1 0xFF AND DUP2 MSTORE PUSH1 0x20 ADD SWAP1 DUP2 MSTORE PUSH1 0x20 ADD PUSH1 0x0 KECCAK256 PUSH1 0x7 ADD SLOAD DUP5 PUSH1 0x12 ADD SLOAD PUSH2 0x49C9 SWAP2 SWAP1 PUSH2 0x58CD JUMP JUMPDEST DUP2 GT ISZERO PUSH2 0x49F8 JUMPI DUP1 DUP5 PUSH1 0x12 ADD DUP2 SWAP1 SSTORE POP DUP2 DUP5 PUSH1 0x11 ADD PUSH1 0x0 DUP3 DUP3 SLOAD PUSH2 0x49ED SWAP2 SWAP1 PUSH2 0x58CD JUMP JUMPDEST SWAP1 SWAP2 SSTORE POP PUSH2 0xF30 SWAP1 POP JUMP JUMPDEST DUP2 DUP5 PUSH1 0x11 ADD PUSH1 0x0 DUP3 DUP3 SLOAD PUSH2 0x49ED SWAP2 SWAP1 PUSH2 0x58CD JUMP JUMPDEST PUSH1 0xD4 SLOAD PUSH2 0x100 SWAP1 DIV PUSH1 0xFF AND ISZERO PUSH2 0xF30 JUMPI PUSH1 0x13 DUP5 ADD SLOAD PUSH1 0xFF AND PUSH1 0x0 SWAP1 DUP2 MSTORE PUSH1 0xDD PUSH1 0x20 MSTORE PUSH1 0x40 SWAP1 KECCAK256 PUSH1 0x5 ADD SLOAD PUSH2 0x4A41 SWAP1 DUP6 SWAP1 PUSH2 0x4C29 JUMP JUMPDEST PUSH1 0x13 DUP5 ADD SLOAD PUSH1 0xFF SWAP1 DUP2 AND PUSH1 0x0 SWAP1 DUP2 MSTORE PUSH1 0xDD PUSH1 0x20 SWAP1 DUP2 MSTORE PUSH1 0x40 SWAP2 DUP3 SWAP1 KECCAK256 PUSH1 0x5 DUP2 ADD SLOAD SWAP1 SLOAD SWAP3 MLOAD SWAP3 SWAP1 SWAP4 AND DUP3 MSTORE PUSH4 0xFFFFFFFF DUP7 AND SWAP2 PUSH32 0x94B6D3D19CC40938E685EF6A1F6476B53EF65295AB094A044E74405A8D0BD05B SWAP2 ADD PUSH1 0x40 MLOAD DUP1 SWAP2 SUB SWAP1 LOG3 POP POP POP POP JUMP JUMPDEST PUSH1 0xD7 SLOAD PUSH1 0xD6 SLOAD PUSH2 0x4AB5 SWAP2 SWAP1 PUSH2 0x58CD JUMP JUMPDEST DUP2 GT ISZERO PUSH2 0x4AC4 JUMPI PUSH1 0xD6 SSTORE PUSH1 0xD5 SSTORE JUMP JUMPDEST DUP2 PUSH1 0xD5 PUSH1 0x0 DUP3 DUP3 SLOAD PUSH2 0x4AD6 SWAP2 SWAP1 PUSH2 0x58CD JUMP JUMPDEST SWAP1 SWAP2 SSTORE POP POP POP POP JUMP JUMPDEST PUSH1 0x0 DUP2 DUP4 GT ISZERO PUSH2 0x4AF0 JUMPI POP DUP1 PUSH2 0x431C JUMP JUMPDEST POP SWAP1 SWAP2 SWAP1 POP JUMP JUMPDEST PUSH2 0x4B00 DUP2 PUSH2 0x4322 JUMP JUMPDEST PUSH1 0x40 MLOAD PUSH1 0x1 PUSH1 0x1 PUSH1 0xA0 SHL SUB DUP3 AND SWAP1 PUSH32 0xBC7CD75A20EE27FD9ADEBAB32041F755214DBC6BFFA90CC0225B39DA2E5C2D3B SWAP1 PUSH1 0x0 SWAP1 LOG2 POP JUMP JUMPDEST PUSH1 0x60 PUSH2 0x4B42 DUP4 PUSH2 0x35E9 JUMP JUMPDEST PUSH2 0x4B9D JUMPI PUSH1 0x40 MLOAD PUSH3 0x461BCD PUSH1 0xE5 SHL DUP2 MSTORE PUSH1 0x20 PUSH1 0x4 DUP3 ADD MSTORE PUSH1 0x26 PUSH1 0x24 DUP3 ADD MSTORE PUSH32 0x416464726573733A2064656C65676174652063616C6C20746F206E6F6E2D636F PUSH1 0x44 DUP3 ADD MSTORE PUSH6 0x1B9D1C9858DD PUSH1 0xD2 SHL PUSH1 0x64 DUP3 ADD MSTORE PUSH1 0x84 ADD PUSH2 0xAFC JUMP JUMPDEST PUSH1 0x0 DUP1 DUP5 PUSH1 0x1 PUSH1 0x1 PUSH1 0xA0 SHL SUB AND DUP5 PUSH1 0x40 MLOAD PUSH2 0x4BB8 SWAP2 SWAP1 PUSH2 0x59AC JUMP JUMPDEST PUSH1 0x0 PUSH1 0x40 MLOAD DUP1 DUP4 SUB DUP2 DUP6 GAS DELEGATECALL SWAP2 POP POP RETURNDATASIZE DUP1 PUSH1 0x0 DUP2 EQ PUSH2 0x4BF3 JUMPI PUSH1 0x40 MLOAD SWAP2 POP PUSH1 0x1F NOT PUSH1 0x3F RETURNDATASIZE ADD AND DUP3 ADD PUSH1 0x40 MSTORE RETURNDATASIZE DUP3 MSTORE RETURNDATASIZE PUSH1 0x0 PUSH1 0x20 DUP5 ADD RETURNDATACOPY PUSH2 0x4BF8 JUMP JUMPDEST PUSH1 0x60 SWAP2 POP JUMPDEST POP SWAP2 POP SWAP2 POP PUSH2 0x4C20 DUP3 DUP3 PUSH1 0x40 MLOAD DUP1 PUSH1 0x60 ADD PUSH1 0x40 MSTORE DUP1 PUSH1 0x27 DUP2 MSTORE PUSH1 0x20 ADD PUSH2 0x59FC PUSH1 0x27 SWAP2 CODECOPY PUSH2 0x4C61 JUMP JUMPDEST SWAP6 SWAP5 POP POP POP POP POP JUMP JUMPDEST DUP2 PUSH1 0x1A ADD SLOAD DUP2 DUP4 PUSH1 0x19 ADD SLOAD PUSH2 0x4C3E SWAP2 SWAP1 PUSH2 0x58CD JUMP JUMPDEST LT PUSH2 0x4C51 JUMPI PUSH1 0x1A DUP3 ADD SLOAD PUSH1 0x19 DUP4 ADD SSTORE POP POP JUMP JUMPDEST DUP1 DUP3 PUSH1 0x19 ADD SLOAD PUSH2 0xA34 SWAP2 SWAP1 PUSH2 0x58CD JUMP JUMPDEST PUSH1 0x60 DUP4 ISZERO PUSH2 0x4C70 JUMPI POP DUP2 PUSH2 0x2024 JUMP JUMPDEST PUSH2 0x2024 DUP4 DUP4 DUP2 MLOAD ISZERO PUSH2 0x4C85 JUMPI DUP2 MLOAD DUP1 DUP4 PUSH1 0x20 ADD REVERT JUMPDEST DUP1 PUSH1 0x40 MLOAD PUSH3 0x461BCD PUSH1 0xE5 SHL DUP2 MSTORE PUSH1 0x4 ADD PUSH2 0xAFC SWAP2 SWAP1 PUSH2 0x59C8 JUMP JUMPDEST DUP3 DUP1 SLOAD DUP3 DUP3 SSTORE SWAP1 PUSH1 0x0 MSTORE PUSH1 0x20 PUSH1 0x0 KECCAK256 SWAP1 PUSH1 0x7 ADD PUSH1 0x8 SWAP1 DIV DUP2 ADD SWAP3 DUP3 ISZERO PUSH2 0x4D3E JUMPI SWAP2 PUSH1 0x20 MUL DUP3 ADD PUSH1 0x0 JUMPDEST DUP4 DUP3 GT ISZERO PUSH2 0x4D0C JUMPI DUP4 MLOAD DUP4 DUP3 PUSH2 0x100 EXP DUP2 SLOAD DUP2 PUSH4 0xFFFFFFFF MUL NOT AND SWAP1 DUP4 PUSH4 0xFFFFFFFF AND MUL OR SWAP1 SSTORE POP SWAP3 PUSH1 0x20 ADD SWAP3 PUSH1 0x4 ADD PUSH1 0x20 DUP2 PUSH1 0x3 ADD DIV SWAP3 DUP4 ADD SWAP3 PUSH1 0x1 SUB MUL PUSH2 0x4CC8 JUMP JUMPDEST DUP1 ISZERO PUSH2 0x4D3C JUMPI DUP3 DUP2 PUSH2 0x100 EXP DUP2 SLOAD SWAP1 PUSH4 0xFFFFFFFF MUL NOT AND SWAP1 SSTORE PUSH1 0x4 ADD PUSH1 0x20 DUP2 PUSH1 0x3 ADD DIV SWAP3 DUP4 ADD SWAP3 PUSH1 0x1 SUB MUL PUSH2 0x4D0C JUMP JUMPDEST POP JUMPDEST POP PUSH2 0x4D4A SWAP3 SWAP2 POP PUSH2 0x4DE4 JUMP JUMPDEST POP SWAP1 JUMP JUMPDEST DUP3 DUP1 SLOAD DUP3 DUP3 SSTORE SWAP1 PUSH1 0x0 MSTORE PUSH1 0x20 PUSH1 0x0 KECCAK256 SWAP1 PUSH1 0xF ADD PUSH1 0x10 SWAP1 DIV DUP2 ADD SWAP3 DUP3 ISZERO PUSH2 0x4D3E JUMPI SWAP2 PUSH1 0x20 MUL DUP3 ADD PUSH1 0x0 JUMPDEST DUP4 DUP3 GT ISZERO PUSH2 0x4DB6 JUMPI DUP4 MLOAD DUP4 DUP3 PUSH2 0x100 EXP DUP2 SLOAD DUP2 PUSH2 0xFFFF MUL NOT AND SWAP1 DUP4 PUSH1 0xFF AND MUL OR SWAP1 SSTORE POP SWAP3 PUSH1 0x20 ADD SWAP3 PUSH1 0x2 ADD PUSH1 0x20 DUP2 PUSH1 0x1 ADD DIV SWAP3 DUP4 ADD SWAP3 PUSH1 0x1 SUB MUL PUSH2 0x4D77 JUMP JUMPDEST DUP1 ISZERO PUSH2 0x4D3C JUMPI DUP3 DUP2 PUSH2 0x100 EXP DUP2 SLOAD SWAP1 PUSH2 0xFFFF MUL NOT AND SWAP1 SSTORE PUSH1 0x2 ADD PUSH1 0x20 DUP2 PUSH1 0x1 ADD DIV SWAP3 DUP4 ADD SWAP3 PUSH1 0x1 SUB MUL PUSH2 0x4DB6 JUMP JUMPDEST JUMPDEST DUP1 DUP3 GT ISZERO PUSH2 0x4D4A JUMPI PUSH1 0x0 DUP2 SSTORE PUSH1 0x1 ADD PUSH2 0x4DE5 JUMP JUMPDEST DUP1 CALLDATALOAD PUSH1 0x1 PUSH1 0x1 PUSH1 0xA0 SHL SUB DUP2 AND DUP2 EQ PUSH2 0x4E10 JUMPI PUSH1 0x0 DUP1 REVERT JUMPDEST SWAP2 SWAP1 POP JUMP JUMPDEST PUSH1 0x0 DUP1 PUSH1 0x40 DUP4 DUP6 SUB SLT ISZERO PUSH2 0x4E28 JUMPI PUSH1 0x0 DUP1 REVERT JUMPDEST PUSH2 0x4E31 DUP4 PUSH2 0x4DF9 JUMP JUMPDEST SWAP5 PUSH1 0x20 SWAP4 SWAP1 SWAP4 ADD CALLDATALOAD SWAP4 POP POP POP JUMP JUMPDEST PUSH1 0x0 PUSH1 0x20 DUP3 DUP5 SUB SLT ISZERO PUSH2 0x4E51 JUMPI PUSH1 0x0 DUP1 REVERT JUMPDEST PUSH2 0x2024 DUP3 PUSH2 0x4DF9 JUMP JUMPDEST PUSH1 0x0 PUSH1 0x20 DUP3 DUP5 SUB SLT ISZERO PUSH2 0x4E6C JUMPI PUSH1 0x0 DUP1 REVERT JUMPDEST POP CALLDATALOAD SWAP2 SWAP1 POP JUMP JUMPDEST PUSH1 0x0 DUP1 DUP4 PUSH1 0x1F DUP5 ADD SLT PUSH2 0x4E85 JUMPI PUSH1 0x0 DUP1 REVERT JUMPDEST POP DUP2 CALLDATALOAD PUSH1 0x1 PUSH1 0x1 PUSH1 0x40 SHL SUB DUP2 GT ISZERO PUSH2 0x4E9C JUMPI PUSH1 0x0 DUP1 REVERT JUMPDEST PUSH1 0x20 DUP4 ADD SWAP2 POP DUP4 PUSH1 0x20 DUP3 PUSH1 0x5 SHL DUP6 ADD ADD GT ISZERO PUSH2 0x4EB7 JUMPI PUSH1 0x0 DUP1 REVERT JUMPDEST SWAP3 POP SWAP3 SWAP1 POP JUMP JUMPDEST PUSH1 0x0 DUP1 PUSH1 0x20 DUP4 DUP6 SUB SLT ISZERO PUSH2 0x4ED1 JUMPI PUSH1 0x0 DUP1 REVERT JUMPDEST DUP3 CALLDATALOAD PUSH1 0x1 PUSH1 0x1 PUSH1 0x40 SHL SUB DUP2 GT ISZERO PUSH2 0x4EE7 JUMPI PUSH1 0x0 DUP1 REVERT JUMPDEST PUSH2 0x4EF3 DUP6 DUP3 DUP7 ADD PUSH2 0x4E73 JUMP JUMPDEST SWAP1 SWAP7 SWAP1 SWAP6 POP SWAP4 POP POP POP POP JUMP JUMPDEST PUSH4 0x4E487B71 PUSH1 0xE0 SHL PUSH1 0x0 MSTORE PUSH1 0x41 PUSH1 0x4 MSTORE PUSH1 0x24 PUSH1 0x0 REVERT JUMPDEST PUSH1 0x40 MLOAD PUSH1 0x1F DUP3 ADD PUSH1 0x1F NOT AND DUP2 ADD PUSH1 0x1 PUSH1 0x1 PUSH1 0x40 SHL SUB DUP2 GT DUP3 DUP3 LT OR ISZERO PUSH2 0x4F3D JUMPI PUSH2 0x4F3D PUSH2 0x4EFF JUMP JUMPDEST PUSH1 0x40 MSTORE SWAP2 SWAP1 POP JUMP JUMPDEST PUSH1 0x0 PUSH1 0x1 PUSH1 0x1 PUSH1 0x40 SHL SUB DUP4 GT ISZERO PUSH2 0x4F5E JUMPI PUSH2 0x4F5E PUSH2 0x4EFF JUMP JUMPDEST PUSH2 0x4F71 PUSH1 0x1F DUP5 ADD PUSH1 0x1F NOT AND PUSH1 0x20 ADD PUSH2 0x4F15 JUMP JUMPDEST SWAP1 POP DUP3 DUP2 MSTORE DUP4 DUP4 DUP4 ADD GT ISZERO PUSH2 0x4F85 JUMPI PUSH1 0x0 DUP1 REVERT JUMPDEST DUP3 DUP3 PUSH1 0x20 DUP4 ADD CALLDATACOPY PUSH1 0x0 PUSH1 0x20 DUP5 DUP4 ADD ADD MSTORE SWAP4 SWAP3 POP POP POP JUMP JUMPDEST PUSH1 0x0 DUP1 PUSH1 0x40 DUP4 DUP6 SUB SLT ISZERO PUSH2 0x4FAF JUMPI PUSH1 0x0 DUP1 REVERT JUMPDEST PUSH2 0x4FB8 DUP4 PUSH2 0x4DF9 JUMP JUMPDEST SWAP2 POP PUSH1 0x20 DUP4 ADD CALLDATALOAD PUSH1 0x1 PUSH1 0x1 PUSH1 0x40 SHL SUB DUP2 GT ISZERO PUSH2 0x4FD3 JUMPI PUSH1 0x0 DUP1 REVERT JUMPDEST DUP4 ADD PUSH1 0x1F DUP2 ADD DUP6 SGT PUSH2 0x4FE4 JUMPI PUSH1 0x0 DUP1 REVERT JUMPDEST PUSH2 0x4FF3 DUP6 DUP3 CALLDATALOAD PUSH1 0x20 DUP5 ADD PUSH2 0x4F45 JUMP JUMPDEST SWAP2 POP POP SWAP3 POP SWAP3 SWAP1 POP JUMP JUMPDEST DUP1 CALLDATALOAD PUSH4 0xFFFFFFFF DUP2 AND DUP2 EQ PUSH2 0x4E10 JUMPI PUSH1 0x0 DUP1 REVERT JUMPDEST PUSH1 0x0 PUSH1 0x20 DUP3 DUP5 SUB SLT ISZERO PUSH2 0x5023 JUMPI PUSH1 0x0 DUP1 REVERT JUMPDEST PUSH2 0x2024 DUP3 PUSH2 0x4FFD JUMP JUMPDEST PUSH1 0x0 DUP1 PUSH1 0x0 DUP1 PUSH1 0x0 DUP1 PUSH1 0x0 PUSH1 0x80 DUP9 DUP11 SUB SLT ISZERO PUSH2 0x5047 JUMPI PUSH1 0x0 DUP1 REVERT JUMPDEST PUSH1 0x1 PUSH1 0x1 PUSH1 0x40 SHL SUB DUP1 DUP10 CALLDATALOAD GT ISZERO PUSH2 0x505D JUMPI PUSH1 0x0 DUP1 REVERT JUMPDEST PUSH2 0x506A DUP11 DUP11 CALLDATALOAD DUP12 ADD PUSH2 0x4E73 JUMP JUMPDEST SWAP1 SWAP9 POP SWAP7 POP PUSH1 0x20 DUP10 ADD CALLDATALOAD DUP2 LT ISZERO PUSH2 0x5080 JUMPI PUSH1 0x0 DUP1 REVERT JUMPDEST PUSH2 0x5090 DUP11 PUSH1 0x20 DUP12 ADD CALLDATALOAD DUP12 ADD PUSH2 0x4E73 JUMP JUMPDEST SWAP1 SWAP7 POP SWAP5 POP PUSH1 0x40 DUP10 ADD CALLDATALOAD DUP2 LT ISZERO PUSH2 0x50A6 JUMPI PUSH1 0x0 DUP1 REVERT JUMPDEST PUSH2 0x50B6 DUP11 PUSH1 0x40 DUP12 ADD CALLDATALOAD DUP12 ADD PUSH2 0x4E73 JUMP JUMPDEST SWAP1 SWAP5 POP SWAP3 POP PUSH1 0x60 DUP10 ADD CALLDATALOAD DUP2 LT ISZERO PUSH2 0x50CC JUMPI PUSH1 0x0 DUP1 REVERT JUMPDEST PUSH1 0x60 DUP10 ADD CALLDATALOAD DUP10 ADD DUP11 PUSH1 0x1F DUP3 ADD SLT PUSH2 0x50E2 JUMPI PUSH1 0x0 DUP1 REVERT JUMPDEST DUP2 DUP2 CALLDATALOAD GT ISZERO PUSH2 0x50F3 JUMPI PUSH2 0x50F3 PUSH2 0x4EFF JUMP JUMPDEST PUSH2 0x5103 PUSH1 0x20 DUP3 CALLDATALOAD PUSH1 0x5 SHL ADD PUSH2 0x4F15 JUMP JUMPDEST DUP2 CALLDATALOAD DUP1 DUP3 MSTORE PUSH1 0x20 DUP1 DUP4 ADD SWAP3 SWAP2 PUSH1 0x5 SHL DUP5 ADD ADD DUP14 DUP2 GT ISZERO PUSH2 0x5122 JUMPI PUSH1 0x0 DUP1 REVERT JUMPDEST PUSH1 0x20 DUP5 ADD JUMPDEST DUP2 DUP2 LT ISZERO PUSH2 0x5173 JUMPI DUP6 DUP2 CALLDATALOAD GT ISZERO PUSH2 0x513D JUMPI PUSH1 0x0 DUP1 REVERT JUMPDEST DUP15 PUSH1 0x3F DUP3 CALLDATALOAD DUP8 ADD ADD SLT PUSH2 0x514F JUMPI PUSH1 0x0 DUP1 REVERT JUMPDEST PUSH2 0x5165 DUP16 DUP3 CALLDATALOAD DUP8 ADD PUSH1 0x20 DUP2 ADD CALLDATALOAD SWAP1 PUSH1 0x40 ADD PUSH2 0x4F45 JUMP JUMPDEST DUP5 MSTORE PUSH1 0x20 SWAP4 DUP5 ADD SWAP4 ADD PUSH2 0x5127 JUMP JUMPDEST POP POP DUP1 SWAP5 POP POP POP POP POP SWAP3 SWAP6 SWAP9 SWAP2 SWAP5 SWAP8 POP SWAP3 SWAP6 POP JUMP JUMPDEST PUSH1 0x0 DUP1 PUSH1 0x0 DUP1 PUSH1 0x0 DUP1 PUSH1 0x0 DUP1 PUSH1 0x0 DUP1 PUSH1 0x0 DUP1 PUSH1 0xC0 DUP14 DUP16 SUB SLT ISZERO PUSH2 0x51AA JUMPI PUSH1 0x0 DUP1 REVERT JUMPDEST PUSH1 0x1 PUSH1 0x1 PUSH1 0x40 SHL SUB DUP14 CALLDATALOAD GT ISZERO PUSH2 0x51BF JUMPI PUSH1 0x0 DUP1 REVERT JUMPDEST PUSH2 0x51CC DUP15 DUP15 CALLDATALOAD DUP16 ADD PUSH2 0x4E73 JUMP JUMPDEST SWAP1 SWAP13 POP SWAP11 POP PUSH1 0x1 PUSH1 0x1 PUSH1 0x40 SHL SUB PUSH1 0x20 DUP15 ADD CALLDATALOAD GT ISZERO PUSH2 0x51E9 JUMPI PUSH1 0x0 DUP1 REVERT JUMPDEST PUSH2 0x51F9 DUP15 PUSH1 0x20 DUP16 ADD CALLDATALOAD DUP16 ADD PUSH2 0x4E73 JUMP JUMPDEST SWAP1 SWAP11 POP SWAP9 POP PUSH1 0x1 PUSH1 0x1 PUSH1 0x40 SHL SUB PUSH1 0x40 DUP15 ADD CALLDATALOAD GT ISZERO PUSH2 0x5216 JUMPI PUSH1 0x0 DUP1 REVERT JUMPDEST PUSH2 0x5226 DUP15 PUSH1 0x40 DUP16 ADD CALLDATALOAD DUP16 ADD PUSH2 0x4E73 JUMP JUMPDEST SWAP1 SWAP9 POP SWAP7 POP PUSH1 0x1 PUSH1 0x1 PUSH1 0x40 SHL SUB PUSH1 0x60 DUP15 ADD CALLDATALOAD GT ISZERO PUSH2 0x5243 JUMPI PUSH1 0x0 DUP1 REVERT JUMPDEST PUSH2 0x5253 DUP15 PUSH1 0x60 DUP16 ADD CALLDATALOAD DUP16 ADD PUSH2 0x4E73 JUMP JUMPDEST SWAP1 SWAP7 POP SWAP5 POP PUSH1 0x1 PUSH1 0x1 PUSH1 0x40 SHL SUB PUSH1 0x80 DUP15 ADD CALLDATALOAD GT ISZERO PUSH2 0x5270 JUMPI PUSH1 0x0 DUP1 REVERT JUMPDEST PUSH2 0x5280 DUP15 PUSH1 0x80 DUP16 ADD CALLDATALOAD DUP16 ADD PUSH2 0x4E73 JUMP JUMPDEST SWAP1 SWAP5 POP SWAP3 POP PUSH1 0x1 PUSH1 0x1 PUSH1 0x40 SHL SUB PUSH1 0xA0 DUP15 ADD CALLDATALOAD GT ISZERO PUSH2 0x529D JUMPI PUSH1 0x0 DUP1 REVERT JUMPDEST PUSH2 0x52AD DUP15 PUSH1 0xA0 DUP16 ADD CALLDATALOAD DUP16 ADD PUSH2 0x4E73 JUMP JUMPDEST DUP2 SWAP4 POP DUP1 SWAP3 POP POP POP SWAP3 SWAP6 SWAP9 SWAP12 POP SWAP3 SWAP6 SWAP9 SWAP12 POP SWAP3 SWAP6 SWAP9 SWAP12 JUMP JUMPDEST PUSH1 0x0 DUP1 PUSH1 0x40 DUP4 DUP6 SUB SLT ISZERO PUSH2 0x52D8 JUMPI PUSH1 0x0 DUP1 REVERT JUMPDEST PUSH2 0x4E31 DUP4 PUSH2 0x4FFD JUMP JUMPDEST PUSH1 0x0 JUMPDEST DUP4 DUP2 LT ISZERO PUSH2 0x52FC JUMPI DUP2 DUP2 ADD MLOAD DUP4 DUP3 ADD MSTORE PUSH1 0x20 ADD PUSH2 0x52E4 JUMP JUMPDEST POP POP PUSH1 0x0 SWAP2 ADD MSTORE JUMP JUMPDEST PUSH1 0x0 DUP2 MLOAD DUP1 DUP5 MSTORE PUSH2 0x531D DUP2 PUSH1 0x20 DUP7 ADD PUSH1 0x20 DUP7 ADD PUSH2 0x52E1 JUMP JUMPDEST PUSH1 0x1F ADD PUSH1 0x1F NOT AND SWAP3 SWAP1 SWAP3 ADD PUSH1 0x20 ADD SWAP3 SWAP2 POP POP JUMP JUMPDEST PUSH1 0x0 DUP2 MLOAD DUP1 DUP5 MSTORE PUSH1 0x20 DUP1 DUP6 ADD SWAP5 POP DUP1 DUP5 ADD PUSH1 0x0 JUMPDEST DUP4 DUP2 LT ISZERO PUSH2 0x5367 JUMPI DUP2 MLOAD PUSH4 0xFFFFFFFF AND DUP8 MSTORE SWAP6 DUP3 ADD SWAP6 SWAP1 DUP3 ADD SWAP1 PUSH1 0x1 ADD PUSH2 0x5345 JUMP JUMPDEST POP SWAP5 SWAP6 SWAP5 POP POP POP POP POP JUMP JUMPDEST PUSH1 0x20 DUP2 MSTORE PUSH2 0x5389 PUSH1 0x20 DUP3 ADD DUP4 MLOAD PUSH4 0xFFFFFFFF AND SWAP1 MSTORE JUMP JUMPDEST PUSH1 0x0 PUSH1 0x20 DUP4 ADD MLOAD PUSH2 0x3E0 DUP1 PUSH1 0x40 DUP6 ADD MSTORE PUSH2 0x53A7 PUSH2 0x400 DUP6 ADD DUP4 PUSH2 0x5305 JUMP JUMPDEST SWAP2 POP PUSH1 0x40 DUP6 ADD MLOAD PUSH2 0x53BC PUSH1 0x60 DUP7 ADD DUP3 ISZERO ISZERO SWAP1 MSTORE JUMP JUMPDEST POP PUSH1 0x60 DUP6 ADD MLOAD PUSH1 0x1 PUSH1 0x1 PUSH1 0xA0 SHL SUB DUP2 AND PUSH1 0x80 DUP7 ADD MSTORE POP PUSH1 0x80 DUP6 ADD MLOAD PUSH1 0xA0 DUP6 ADD MSTORE PUSH1 0xA0 DUP6 ADD MLOAD PUSH1 0xC0 DUP6 ADD MSTORE PUSH1 0xC0 DUP6 ADD MLOAD PUSH1 0xE0 DUP6 ADD MSTORE PUSH1 0xE0 DUP6 ADD MLOAD PUSH1 0x1F NOT PUSH2 0x100 DUP2 DUP8 DUP7 SUB ADD DUP2 DUP9 ADD MSTORE PUSH2 0x540E DUP6 DUP5 PUSH2 0x5331 JUMP JUMPDEST SWAP5 POP DUP1 DUP9 ADD MLOAD SWAP3 POP POP PUSH2 0x120 PUSH2 0x542B DUP2 DUP9 ADD DUP5 PUSH4 0xFFFFFFFF AND SWAP1 MSTORE JUMP JUMPDEST DUP1 DUP9 ADD MLOAD SWAP3 POP POP PUSH2 0x140 DUP2 DUP8 DUP7 SUB ADD DUP2 DUP9 ADD MSTORE PUSH2 0x5448 DUP6 DUP5 PUSH2 0x5331 JUMP JUMPDEST SWAP5 POP DUP1 DUP9 ADD MLOAD SWAP3 POP POP PUSH2 0x160 DUP2 DUP8 DUP7 SUB ADD DUP2 DUP9 ADD MSTORE PUSH2 0x5467 DUP6 DUP5 PUSH2 0x5331 JUMP JUMPDEST SWAP5 POP DUP1 DUP9 ADD MLOAD SWAP3 POP POP PUSH2 0x180 DUP2 DUP8 DUP7 SUB ADD DUP2 DUP9 ADD MSTORE PUSH2 0x5486 DUP6 DUP5 PUSH2 0x5331 JUMP JUMPDEST SWAP1 DUP9 ADD MLOAD PUSH2 0x1A0 DUP9 DUP2 ADD SWAP2 SWAP1 SWAP2 MSTORE DUP9 ADD MLOAD PUSH2 0x1C0 DUP1 DUP10 ADD SWAP2 SWAP1 SWAP2 MSTORE DUP9 ADD MLOAD PUSH2 0x1E0 DUP1 DUP10 ADD SWAP2 SWAP1 SWAP2 MSTORE DUP9 ADD MLOAD PUSH2 0x200 DUP1 DUP10 ADD SWAP2 SWAP1 SWAP2 MSTORE DUP9 ADD MLOAD PUSH2 0x220 DUP1 DUP10 ADD SWAP2 SWAP1 SWAP2 MSTORE DUP9 ADD MLOAD PUSH2 0x240 DUP1 DUP10 ADD SWAP2 SWAP1 SWAP2 MSTORE DUP9 ADD MLOAD PUSH2 0x260 DUP1 DUP10 ADD SWAP2 SWAP1 SWAP2 MSTORE DUP9 ADD MLOAD PUSH2 0x280 DUP1 DUP10 ADD SWAP2 SWAP1 SWAP2 MSTORE DUP9 ADD MLOAD SWAP1 SWAP5 POP SWAP2 POP PUSH2 0x2A0 SWAP1 POP PUSH2 0x550A DUP2 DUP8 ADD DUP4 PUSH1 0xFF AND SWAP1 MSTORE JUMP JUMPDEST DUP7 ADD MLOAD PUSH2 0x2C0 DUP7 DUP2 ADD SWAP2 SWAP1 SWAP2 MSTORE DUP7 ADD MLOAD PUSH2 0x2E0 DUP1 DUP8 ADD SWAP2 SWAP1 SWAP2 MSTORE DUP7 ADD MLOAD PUSH2 0x300 DUP1 DUP8 ADD SWAP2 SWAP1 SWAP2 MSTORE DUP7 ADD MLOAD PUSH2 0x320 DUP1 DUP8 ADD SWAP2 SWAP1 SWAP2 MSTORE DUP7 ADD MLOAD PUSH2 0x340 DUP1 DUP8 ADD SWAP2 SWAP1 SWAP2 MSTORE DUP7 ADD MLOAD PUSH2 0x360 DUP1 DUP8 ADD SWAP2 SWAP1 SWAP2 MSTORE DUP7 ADD MLOAD PUSH2 0x380 DUP1 DUP8 ADD SWAP2 SWAP1 SWAP2 MSTORE DUP7 ADD MLOAD PUSH2 0x3A0 DUP1 DUP8 ADD SWAP2 SWAP1 SWAP2 MSTORE DUP7 ADD MLOAD PUSH2 0x3C0 DUP1 DUP8 ADD SWAP2 SWAP1 SWAP2 MSTORE SWAP1 SWAP6 ADD MLOAD SWAP4 ADD SWAP3 SWAP1 SWAP3 MSTORE POP SWAP2 SWAP1 POP JUMP JUMPDEST PUSH1 0x20 DUP2 MSTORE DUP2 MLOAD ISZERO ISZERO PUSH1 0x20 DUP3 ADD MSTORE PUSH1 0x0 PUSH1 0x20 DUP4 ADD MLOAD PUSH1 0x40 DUP1 DUP5 ADD MSTORE PUSH2 0x3683 PUSH1 0x60 DUP5 ADD DUP3 PUSH2 0x5331 JUMP JUMPDEST PUSH4 0x4E487B71 PUSH1 0xE0 SHL PUSH1 0x0 MSTORE PUSH1 0x32 PUSH1 0x4 MSTORE PUSH1 0x24 PUSH1 0x0 REVERT JUMPDEST PUSH4 0x4E487B71 PUSH1 0xE0 SHL PUSH1 0x0 MSTORE PUSH1 0x11 PUSH1 0x4 MSTORE PUSH1 0x24 PUSH1 0x0 REVERT JUMPDEST DUP2 DUP2 SUB DUP2 DUP2 GT ISZERO PUSH2 0x431C JUMPI PUSH2 0x431C PUSH2 0x55CC JUMP JUMPDEST PUSH1 0x20 DUP1 DUP3 MSTORE PUSH1 0x11 SWAP1 DUP3 ADD MSTORE PUSH17 0x2CB7BA9030B932903737BA1030B236B4B7 PUSH1 0x79 SHL PUSH1 0x40 DUP3 ADD MSTORE PUSH1 0x60 ADD SWAP1 JUMP JUMPDEST PUSH1 0x0 PUSH1 0xFF DUP3 AND PUSH1 0xFF DUP2 SUB PUSH2 0x5636 JUMPI PUSH2 0x5636 PUSH2 0x55CC JUMP JUMPDEST PUSH1 0x1 ADD SWAP3 SWAP2 POP POP JUMP JUMPDEST PUSH1 0x20 DUP1 DUP3 MSTORE PUSH1 0x2C SWAP1 DUP3 ADD MSTORE PUSH32 0x46756E6374696F6E206D7573742062652063616C6C6564207468726F75676820 PUSH1 0x40 DUP3 ADD MSTORE PUSH12 0x19195B1959D85D1958D85B1B PUSH1 0xA2 SHL PUSH1 0x60 DUP3 ADD MSTORE PUSH1 0x80 ADD SWAP1 JUMP JUMPDEST PUSH1 0x20 DUP1 DUP3 MSTORE PUSH1 0x2C SWAP1 DUP3 ADD MSTORE PUSH32 0x46756E6374696F6E206D7573742062652063616C6C6564207468726F75676820 PUSH1 0x40 DUP3 ADD MSTORE PUSH12 0x6163746976652070726F7879 PUSH1 0xA0 SHL PUSH1 0x60 DUP3 ADD MSTORE PUSH1 0x80 ADD SWAP1 JUMP JUMPDEST PUSH4 0xFFFFFFFF DUP2 DUP2 AND DUP4 DUP3 AND ADD SWAP1 DUP1 DUP3 GT ISZERO PUSH2 0x56F4 JUMPI PUSH2 0x56F4 PUSH2 0x55CC JUMP JUMPDEST POP SWAP3 SWAP2 POP POP JUMP JUMPDEST PUSH1 0x0 PUSH4 0xFFFFFFFF DUP1 DUP4 AND DUP2 DUP2 SUB PUSH2 0x5714 JUMPI PUSH2 0x5714 PUSH2 0x55CC JUMP JUMPDEST PUSH1 0x1 ADD SWAP4 SWAP3 POP POP POP JUMP JUMPDEST PUSH1 0x1 DUP2 DUP2 SHR SWAP1 DUP3 AND DUP1 PUSH2 0x5732 JUMPI PUSH1 0x7F DUP3 AND SWAP2 POP JUMPDEST PUSH1 0x20 DUP3 LT DUP2 SUB PUSH2 0x5752 JUMPI PUSH4 0x4E487B71 PUSH1 0xE0 SHL PUSH1 0x0 MSTORE PUSH1 0x22 PUSH1 0x4 MSTORE PUSH1 0x24 PUSH1 0x0 REVERT JUMPDEST POP SWAP2 SWAP1 POP JUMP JUMPDEST PUSH1 0x0 PUSH1 0x20 DUP3 DUP5 SUB SLT ISZERO PUSH2 0x576A JUMPI PUSH1 0x0 DUP1 REVERT JUMPDEST DUP2 MLOAD DUP1 ISZERO ISZERO DUP2 EQ PUSH2 0x2024 JUMPI PUSH1 0x0 DUP1 REVERT JUMPDEST PUSH1 0x20 DUP1 DUP3 MSTORE PUSH1 0x1D SWAP1 DUP3 ADD MSTORE PUSH32 0x596F7520617265206E6F74206F776E6572206F6620746869732069642E000000 PUSH1 0x40 DUP3 ADD MSTORE PUSH1 0x60 ADD SWAP1 JUMP JUMPDEST PUSH1 0x1F DUP3 GT ISZERO PUSH2 0xA34 JUMPI PUSH1 0x0 DUP2 DUP2 MSTORE PUSH1 0x20 DUP2 KECCAK256 PUSH1 0x1F DUP6 ADD PUSH1 0x5 SHR DUP2 ADD PUSH1 0x20 DUP7 LT ISZERO PUSH2 0x57D8 JUMPI POP DUP1 JUMPDEST PUSH1 0x1F DUP6 ADD PUSH1 0x5 SHR DUP3 ADD SWAP2 POP JUMPDEST DUP2 DUP2 LT ISZERO PUSH2 0x2D34 JUMPI DUP3 DUP2 SSTORE PUSH1 0x1 ADD PUSH2 0x57E4 JUMP JUMPDEST DUP2 MLOAD PUSH1 0x1 PUSH1 0x1 PUSH1 0x40 SHL SUB DUP2 GT ISZERO PUSH2 0x5810 JUMPI PUSH2 0x5810 PUSH2 0x4EFF JUMP JUMPDEST PUSH2 0x5824 DUP2 PUSH2 0x581E DUP5 SLOAD PUSH2 0x571E JUMP JUMPDEST DUP5 PUSH2 0x57B1 JUMP JUMPDEST PUSH1 0x20 DUP1 PUSH1 0x1F DUP4 GT PUSH1 0x1 DUP2 EQ PUSH2 0x5859 JUMPI PUSH1 0x0 DUP5 ISZERO PUSH2 0x5841 JUMPI POP DUP6 DUP4 ADD MLOAD JUMPDEST PUSH1 0x0 NOT PUSH1 0x3 DUP7 SWAP1 SHL SHR NOT AND PUSH1 0x1 DUP6 SWAP1 SHL OR DUP6 SSTORE PUSH2 0x2D34 JUMP JUMPDEST PUSH1 0x0 DUP6 DUP2 MSTORE PUSH1 0x20 DUP2 KECCAK256 PUSH1 0x1F NOT DUP7 AND SWAP2 JUMPDEST DUP3 DUP2 LT ISZERO PUSH2 0x5888 JUMPI DUP9 DUP7 ADD MLOAD DUP3 SSTORE SWAP5 DUP5 ADD SWAP5 PUSH1 0x1 SWAP1 SWAP2 ADD SWAP1 DUP5 ADD PUSH2 0x5869 JUMP JUMPDEST POP DUP6 DUP3 LT ISZERO PUSH2 0x58A6 JUMPI DUP8 DUP6 ADD MLOAD PUSH1 0x0 NOT PUSH1 0x3 DUP9 SWAP1 SHL PUSH1 0xF8 AND SHR NOT AND DUP2 SSTORE JUMPDEST POP POP POP POP POP PUSH1 0x1 SWAP1 DUP2 SHL ADD SWAP1 SSTORE POP JUMP JUMPDEST PUSH1 0x0 PUSH2 0xFFFF DUP1 DUP4 AND DUP2 DUP2 SUB PUSH2 0x5714 JUMPI PUSH2 0x5714 PUSH2 0x55CC JUMP JUMPDEST DUP1 DUP3 ADD DUP1 DUP3 GT ISZERO PUSH2 0x431C JUMPI PUSH2 0x431C PUSH2 0x55CC JUMP JUMPDEST DUP1 DUP3 MUL DUP2 ISZERO DUP3 DUP3 DIV DUP5 EQ OR PUSH2 0x431C JUMPI PUSH2 0x431C PUSH2 0x55CC JUMP JUMPDEST PUSH1 0x0 PUSH1 0x1 DUP3 ADD PUSH2 0x5909 JUMPI PUSH2 0x5909 PUSH2 0x55CC JUMP JUMPDEST POP PUSH1 0x1 ADD SWAP1 JUMP JUMPDEST PUSH4 0x4E487B71 PUSH1 0xE0 SHL PUSH1 0x0 MSTORE PUSH1 0x31 PUSH1 0x4 MSTORE PUSH1 0x24 PUSH1 0x0 REVERT JUMPDEST PUSH1 0x0 PUSH1 0x20 DUP3 DUP5 SUB SLT ISZERO PUSH2 0x5938 JUMPI PUSH1 0x0 DUP1 REVERT JUMPDEST POP MLOAD SWAP2 SWAP1 POP JUMP JUMPDEST PUSH1 0x20 DUP1 DUP3 MSTORE PUSH1 0x2B SWAP1 DUP3 ADD MSTORE PUSH32 0x496E697469616C697A61626C653A20636F6E7472616374206973206E6F742069 PUSH1 0x40 DUP3 ADD MSTORE PUSH11 0x6E697469616C697A696E67 PUSH1 0xA8 SHL PUSH1 0x60 DUP3 ADD MSTORE PUSH1 0x80 ADD SWAP1 JUMP JUMPDEST PUSH1 0x0 DUP3 PUSH2 0x59A7 JUMPI PUSH4 0x4E487B71 PUSH1 0xE0 SHL PUSH1 0x0 MSTORE PUSH1 0x12 PUSH1 0x4 MSTORE PUSH1 0x24 PUSH1 0x0 REVERT JUMPDEST POP DIV SWAP1 JUMP JUMPDEST PUSH1 0x0 DUP3 MLOAD PUSH2 0x59BE DUP2 DUP5 PUSH1 0x20 DUP8 ADD PUSH2 0x52E1 JUMP JUMPDEST SWAP2 SWAP1 SWAP2 ADD SWAP3 SWAP2 POP POP JUMP JUMPDEST PUSH1 0x20 DUP2 MSTORE PUSH1 0x0 PUSH2 0x2024 PUSH1 0x20 DUP4 ADD DUP5 PUSH2 0x5305 JUMP INVALID CALLDATASIZE ADDMOD SWAP5 LOG1 EXTCODESIZE LOG1 LOG3 0x21 MOD PUSH8 0xC828492DB98DCA3E KECCAK256 PUSH23 0xCC3735A920A3CA505D382BBC416464726573733A206C6F PUSH24 0x2D6C6576656C2064656C65676174652063616C6C20666169 PUSH13 0x6564A2646970667358221220E8 PUSH25 0xD42F7CCFD54770F100B4DAB68B25C320B83503422D9ACABDD5 0xE8 SWAP12 0xEA 0xA5 MUL PUSH5 0x736F6C6343 STOP ADDMOD GT STOP CALLER "},"methodIdentifiers":{"_disabledUsersList(uint256)":"1f7f83ba","activateID(uint32)":"e5682e38","addTeamAddress(uint32[])":"49b32504","admins(uint256)":"14bfd6d0","claimBalance(uint32,uint256)":"f31a2d0f","companyTurnoverTimeLimit()":"f41bfeef","companyTurnoverTimeStamp()":"2ed421d2","companyTurnoverWithTimeLimit()":"22f88b52","decimals()":"313ce567","disableUserAdmin(address)":"9f4e8398","getIDAccount(uint32)":"f830e57b","getIDRoyaltyClubLevel(uint32)":"76a68e84","getPriceOracleContract()":"2913497b","getROIAccount(uint32)":"c3ab5ebf","getUserAccount(address)":"fb47e016","getUserIDTotalROI(uint32)":"bf46de63","getUserTotalActiveROIValue(uint32)":"ea62f715","getUserUnlockCount(uint32)":"b47181d3","initialize()":"8129fc1c","isPayROI()":"af2f39d1","isPayRoyaltyClubBonus()":"fafc9597","isUserDisabledByAdmin(address)":"538ffe0c","levelRates(uint256)":"7879b5ef","maxLevelsCount()":"8df05d9c","minContributionInUSD()":"96ed6b85","owner()":"8da5cb5b","packagesCount()":"18e10bff","proxiableUUID()":"52d1902d","removeRefereeArray(uint32[])":"7f2f4a91","removeUserFromDisableList(address)":"e52356f3","renounceOwnership()":"715018a6","royaltyClubPackageCount()":"a28a3686","sendETHAdmin(address,uint256)":"0b243dad","setAdmin(address)":"704b6c02","setMinContribution(uint256)":"473b0d46","setPriceOracleContract(address)":"0efdbb6a","topUpID(uint32)":"b92d18c1","totalIDs()":"5e701d86","totalROIIDs()":"a1b80175","totalROIPaidUSD()":"6dc8afc5","totalReferralPaidUSD()":"1dc209ff","totalRoyaltyClubBonusPaidETH()":"09de82cd","totalRoyaltyClubBonusPaidUSD()":"7a026935","totalUsers()":"bff1f9e1","transferOwnership(address)":"f2fde38b","updateIDOldIDtoAddress(uint32[],address[],uint32[],string[])":"bc09161b","updateTotalIDs(uint32)":"70d9e081","updateUserIDDataOldAdmin(uint32[],uint256[],uint256[],uint256[],uint256[],uint256[])":"db003b2a","upgradeTo(address)":"3659cfe6","upgradeToAndCall(address,bytes)":"4f1ef286","withdrawETHAdmin()":"35759788","withdrawTokensAdmin(address,uint256)":"a0b6105f"}},"storageLayout":{"storage":[{"astId":527,"contract":"contracts/ReferralV2Upgradeable.sol:ReferralV2Upgradeable","label":"_initialized","offset":0,"slot":"0","type":"t_uint8"},{"astId":530,"contract":"contracts/ReferralV2Upgradeable.sol:ReferralV2Upgradeable","label":"_initializing","offset":1,"slot":"0","type":"t_bool"},{"astId":1228,"contract":"contracts/ReferralV2Upgradeable.sol:ReferralV2Upgradeable","label":"__gap","offset":0,"slot":"1","type":"t_array(t_uint256)50_storage"},{"astId":10,"contract":"contracts/ReferralV2Upgradeable.sol:ReferralV2Upgradeable","label":"_owner","offset":0,"slot":"51","type":"t_address"},{"astId":130,"contract":"contracts/ReferralV2Upgradeable.sol:ReferralV2Upgradeable","label":"__gap","offset":0,"slot":"52","type":"t_array(t_uint256)49_storage"},{"astId":509,"contract":"contracts/ReferralV2Upgradeable.sol:ReferralV2Upgradeable","label":"__gap","offset":0,"slot":"101","type":"t_array(t_uint256)50_storage"},{"astId":824,"contract":"contracts/ReferralV2Upgradeable.sol:ReferralV2Upgradeable","label":"__gap","offset":0,"slot":"151","type":"t_array(t_uint256)50_storage"},{"astId":1317,"contract":"contracts/ReferralV2Upgradeable.sol:ReferralV2Upgradeable","label":"_priceOracleContract","offset":0,"slot":"201","type":"t_address"},{"astId":1320,"contract":"contracts/ReferralV2Upgradeable.sol:ReferralV2Upgradeable","label":"levelRates","offset":0,"slot":"202","type":"t_array(t_uint16)dyn_storage"},{"astId":1322,"contract":"contracts/ReferralV2Upgradeable.sol:ReferralV2Upgradeable","label":"decimals","offset":0,"slot":"203","type":"t_uint16"},{"astId":1324,"contract":"contracts/ReferralV2Upgradeable.sol:ReferralV2Upgradeable","label":"maxLevelsCount","offset":2,"slot":"203","type":"t_uint8"},{"astId":1326,"contract":"contracts/ReferralV2Upgradeable.sol:ReferralV2Upgradeable","label":"minContributionInUSD","offset":0,"slot":"204","type":"t_uint256"},{"astId":1328,"contract":"contracts/ReferralV2Upgradeable.sol:ReferralV2Upgradeable","label":"totalRoyaltyClubBonusPaidUSD","offset":0,"slot":"205","type":"t_uint256"},{"astId":1330,"contract":"contracts/ReferralV2Upgradeable.sol:ReferralV2Upgradeable","label":"totalRoyaltyClubBonusPaidETH","offset":0,"slot":"206","type":"t_uint256"},{"astId":1332,"contract":"contracts/ReferralV2Upgradeable.sol:ReferralV2Upgradeable","label":"totalReferralPaidUSD","offset":0,"slot":"207","type":"t_uint256"},{"astId":1334,"contract":"contracts/ReferralV2Upgradeable.sol:ReferralV2Upgradeable","label":"totalROIPaidUSD","offset":0,"slot":"208","type":"t_uint256"},{"astId":1336,"contract":"contracts/ReferralV2Upgradeable.sol:ReferralV2Upgradeable","label":"totalUsers","offset":0,"slot":"209","type":"t_uint32"},{"astId":1338,"contract":"contracts/ReferralV2Upgradeable.sol:ReferralV2Upgradeable","label":"totalIDs","offset":4,"slot":"209","type":"t_uint32"},{"astId":1340,"contract":"contracts/ReferralV2Upgradeable.sol:ReferralV2Upgradeable","label":"totalROIIDs","offset":8,"slot":"209","type":"t_uint32"},{"astId":1342,"contract":"contracts/ReferralV2Upgradeable.sol:ReferralV2Upgradeable","label":"_roiRate","offset":12,"slot":"209","type":"t_uint16"},{"astId":1344,"contract":"contracts/ReferralV2Upgradeable.sol:ReferralV2Upgradeable","label":"_roiDuration","offset":0,"slot":"210","type":"t_uint256"},{"astId":1346,"contract":"contracts/ReferralV2Upgradeable.sol:ReferralV2Upgradeable","label":"_roiClaimTimelimit","offset":0,"slot":"211","type":"t_uint256"},{"astId":1348,"contract":"contracts/ReferralV2Upgradeable.sol:ReferralV2Upgradeable","label":"isPayROI","offset":0,"slot":"212","type":"t_bool"},{"astId":1350,"contract":"contracts/ReferralV2Upgradeable.sol:ReferralV2Upgradeable","label":"isPayRoyaltyClubBonus","offset":1,"slot":"212","type":"t_bool"},{"astId":1352,"contract":"contracts/ReferralV2Upgradeable.sol:ReferralV2Upgradeable","label":"royaltyClubPackageCount","offset":2,"slot":"212","type":"t_uint8"},{"astId":1354,"contract":"contracts/ReferralV2Upgradeable.sol:ReferralV2Upgradeable","label":"_userLevelUnlockMultiplier","offset":3,"slot":"212","type":"t_uint8"},{"astId":1356,"contract":"contracts/ReferralV2Upgradeable.sol:ReferralV2Upgradeable","label":"companyTurnoverWithTimeLimit","offset":0,"slot":"213","type":"t_uint256"},{"astId":1358,"contract":"contracts/ReferralV2Upgradeable.sol:ReferralV2Upgradeable","label":"companyTurnoverTimeStamp","offset":0,"slot":"214","type":"t_uint256"},{"astId":1360,"contract":"contracts/ReferralV2Upgradeable.sol:ReferralV2Upgradeable","label":"companyTurnoverTimeLimit","offset":0,"slot":"215","type":"t_uint256"},{"astId":1363,"contract":"contracts/ReferralV2Upgradeable.sol:ReferralV2Upgradeable","label":"_disabledUsersList","offset":0,"slot":"216","type":"t_array(t_address)dyn_storage"},{"astId":1475,"contract":"contracts/ReferralV2Upgradeable.sol:ReferralV2Upgradeable","label":"packagesCount","offset":0,"slot":"217","type":"t_uint8"},{"astId":1480,"contract":"contracts/ReferralV2Upgradeable.sol:ReferralV2Upgradeable","label":"accounts","offset":0,"slot":"218","type":"t_mapping(t_address,t_struct(StructAccount)1369_storage)"},{"astId":1485,"contract":"contracts/ReferralV2Upgradeable.sol:ReferralV2Upgradeable","label":"ids","offset":0,"slot":"219","type":"t_mapping(t_uint32,t_struct(StructID)1436_storage)"},{"astId":1490,"contract":"contracts/ReferralV2Upgradeable.sol:ReferralV2Upgradeable","label":"rois","offset":0,"slot":"220","type":"t_mapping(t_uint32,t_struct(StructROI)1449_storage)"},{"astId":1495,"contract":"contracts/ReferralV2Upgradeable.sol:ReferralV2Upgradeable","label":"packages","offset":0,"slot":"221","type":"t_mapping(t_uint8,t_struct(StructPackages)1473_storage)"},{"astId":1677,"contract":"contracts/ReferralV2Upgradeable.sol:ReferralV2Upgradeable","label":"admins","offset":0,"slot":"222","type":"t_array(t_address)dyn_storage"}],"types":{"t_address":{"encoding":"inplace","label":"address","numberOfBytes":"20"},"t_array(t_address)dyn_storage":{"base":"t_address","encoding":"dynamic_array","label":"address[]","numberOfBytes":"32"},"t_array(t_uint16)dyn_storage":{"base":"t_uint16","encoding":"dynamic_array","label":"uint16[]","numberOfBytes":"32"},"t_array(t_uint256)49_storage":{"base":"t_uint256","encoding":"inplace","label":"uint256[49]","numberOfBytes":"1568"},"t_array(t_uint256)50_storage":{"base":"t_uint256","encoding":"inplace","label":"uint256[50]","numberOfBytes":"1600"},"t_array(t_uint32)dyn_storage":{"base":"t_uint32","encoding":"dynamic_array","label":"uint32[]","numberOfBytes":"32"},"t_bool":{"encoding":"inplace","label":"bool","numberOfBytes":"1"},"t_mapping(t_address,t_struct(StructAccount)1369_storage)":{"encoding":"mapping","key":"t_address","label":"mapping(address => struct ReferralV2Upgradeable.StructAccount)","numberOfBytes":"32","value":"t_struct(StructAccount)1369_storage"},"t_mapping(t_uint32,t_struct(StructID)1436_storage)":{"encoding":"mapping","key":"t_uint32","label":"mapping(uint32 => struct ReferralV2Upgradeable.StructID)","numberOfBytes":"32","value":"t_struct(StructID)1436_storage"},"t_mapping(t_uint32,t_struct(StructROI)1449_storage)":{"encoding":"mapping","key":"t_uint32","label":"mapping(uint32 => struct ReferralV2Upgradeable.StructROI)","numberOfBytes":"32","value":"t_struct(StructROI)1449_storage"},"t_mapping(t_uint8,t_struct(StructPackages)1473_storage)":{"encoding":"mapping","key":"t_uint8","label":"mapping(uint8 => struct ReferralV2Upgradeable.StructPackages)","numberOfBytes":"32","value":"t_struct(StructPackages)1473_storage"},"t_string_storage":{"encoding":"bytes","label":"string","numberOfBytes":"32"},"t_struct(StructAccount)1369_storage":{"encoding":"inplace","label":"struct ReferralV2Upgradeable.StructAccount","members":[{"astId":1365,"contract":"contracts/ReferralV2Upgradeable.sol:ReferralV2Upgradeable","label":"isDisabled","offset":0,"slot":"0","type":"t_bool"},{"astId":1368,"contract":"contracts/ReferralV2Upgradeable.sol:ReferralV2Upgradeable","label":"accountIDs","offset":0,"slot":"1","type":"t_array(t_uint32)dyn_storage"}],"numberOfBytes":"64"},"t_struct(StructID)1436_storage":{"encoding":"inplace","label":"struct ReferralV2Upgradeable.StructID","members":[{"astId":1371,"contract":"contracts/ReferralV2Upgradeable.sol:ReferralV2Upgradeable","label":"id","offset":0,"slot":"0","type":"t_uint32"},{"astId":1373,"contract":"contracts/ReferralV2Upgradeable.sol:ReferralV2Upgradeable","label":"oldID","offset":0,"slot":"1","type":"t_string_storage"},{"astId":1375,"contract":"contracts/ReferralV2Upgradeable.sol:ReferralV2Upgradeable","label":"isDisabled","offset":0,"slot":"2","type":"t_bool"},{"astId":1377,"contract":"contracts/ReferralV2Upgradeable.sol:ReferralV2Upgradeable","label":"owner","offset":1,"slot":"2","type":"t_address"},{"astId":1379,"contract":"contracts/ReferralV2Upgradeable.sol:ReferralV2Upgradeable","label":"joiningTime","offset":0,"slot":"3","type":"t_uint256"},{"astId":1381,"contract":"contracts/ReferralV2Upgradeable.sol:ReferralV2Upgradeable","label":"activationTime","offset":0,"slot":"4","type":"t_uint256"},{"astId":1383,"contract":"contracts/ReferralV2Upgradeable.sol:ReferralV2Upgradeable","label":"deactivateTime","offset":0,"slot":"5","type":"t_uint256"},{"astId":1386,"contract":"contracts/ReferralV2Upgradeable.sol:ReferralV2Upgradeable","label":"roiIDs","offset":0,"slot":"6","type":"t_array(t_uint32)dyn_storage"},{"astId":1388,"contract":"contracts/ReferralV2Upgradeable.sol:ReferralV2Upgradeable","label":"refererID","offset":0,"slot":"7","type":"t_uint32"},{"astId":1391,"contract":"contracts/ReferralV2Upgradeable.sol:ReferralV2Upgradeable","label":"refereeIDs","offset":0,"slot":"8","type":"t_array(t_uint32)dyn_storage"},{"astId":1394,"contract":"contracts/ReferralV2Upgradeable.sol:ReferralV2Upgradeable","label":"teamIDs","offset":0,"slot":"9","type":"t_array(t_uint32)dyn_storage"},{"astId":1397,"contract":"contracts/ReferralV2Upgradeable.sol:ReferralV2Upgradeable","label":"teamLevel","offset":0,"slot":"10","type":"t_array(t_uint32)dyn_storage"},{"astId":1399,"contract":"contracts/ReferralV2Upgradeable.sol:ReferralV2Upgradeable","label":"selfBusinessUSD","offset":0,"slot":"11","type":"t_uint256"},{"astId":1401,"contract":"contracts/ReferralV2Upgradeable.sol:ReferralV2Upgradeable","label":"selfBusinessUSDOld","offset":0,"slot":"12","type":"t_uint256"},{"astId":1403,"contract":"contracts/ReferralV2Upgradeable.sol:ReferralV2Upgradeable","label":"directBusinessUSD","offset":0,"slot":"13","type":"t_uint256"},{"astId":1405,"contract":"contracts/ReferralV2Upgradeable.sol:ReferralV2Upgradeable","label":"directBusinessUSDOld","offset":0,"slot":"14","type":"t_uint256"},{"astId":1407,"contract":"contracts/ReferralV2Upgradeable.sol:ReferralV2Upgradeable","label":"teamBusinessUSD","offset":0,"slot":"15","type":"t_uint256"},{"astId":1409,"contract":"contracts/ReferralV2Upgradeable.sol:ReferralV2Upgradeable","label":"teamBusinessUSDOld","offset":0,"slot":"16","type":"t_uint256"},{"astId":1411,"contract":"contracts/ReferralV2Upgradeable.sol:ReferralV2Upgradeable","label":"royaltyClubBusinessUSD","offset":0,"slot":"17","type":"t_uint256"},{"astId":1413,"contract":"contracts/ReferralV2Upgradeable.sol:ReferralV2Upgradeable","label":"timeStampRoyaltyClub","offset":0,"slot":"18","type":"t_uint256"},{"astId":1415,"contract":"contracts/ReferralV2Upgradeable.sol:ReferralV2Upgradeable","label":"royaltyClubPackageID","offset":0,"slot":"19","type":"t_uint8"},{"astId":1417,"contract":"contracts/ReferralV2Upgradeable.sol:ReferralV2Upgradeable","label":"royaltyClubListIndex","offset":0,"slot":"20","type":"t_uint256"},{"astId":1419,"contract":"contracts/ReferralV2Upgradeable.sol:ReferralV2Upgradeable","label":"referralPaidUSD","offset":0,"slot":"21","type":"t_uint256"},{"astId":1421,"contract":"contracts/ReferralV2Upgradeable.sol:ReferralV2Upgradeable","label":"rewardPaidRoyaltyClubUSD","offset":0,"slot":"22","type":"t_uint256"},{"astId":1423,"contract":"contracts/ReferralV2Upgradeable.sol:ReferralV2Upgradeable","label":"topUpUSD","offset":0,"slot":"23","type":"t_uint256"},{"astId":1425,"contract":"contracts/ReferralV2Upgradeable.sol:ReferralV2Upgradeable","label":"balanceClaimedUSD","offset":0,"slot":"24","type":"t_uint256"},{"astId":1427,"contract":"contracts/ReferralV2Upgradeable.sol:ReferralV2Upgradeable","label":"limitBalanceUSD","offset":0,"slot":"25","type":"t_uint256"},{"astId":1429,"contract":"contracts/ReferralV2Upgradeable.sol:ReferralV2Upgradeable","label":"maxLimitAmount","offset":0,"slot":"26","type":"t_uint256"},{"astId":1431,"contract":"contracts/ReferralV2Upgradeable.sol:ReferralV2Upgradeable","label":"totalROIClaimedUSD","offset":0,"slot":"27","type":"t_uint256"},{"astId":1433,"contract":"contracts/ReferralV2Upgradeable.sol:ReferralV2Upgradeable","label":"roiClaimedUSD","offset":0,"slot":"28","type":"t_uint256"},{"astId":1435,"contract":"contracts/ReferralV2Upgradeable.sol:ReferralV2Upgradeable","label":"roiClaimTimestamp","offset":0,"slot":"29","type":"t_uint256"}],"numberOfBytes":"960"},"t_struct(StructPackages)1473_storage":{"encoding":"inplace","label":"struct ReferralV2Upgradeable.StructPackages","members":[{"astId":1451,"contract":"contracts/ReferralV2Upgradeable.sol:ReferralV2Upgradeable","label":"packageID","offset":0,"slot":"0","type":"t_uint8"},{"astId":1453,"contract":"contracts/ReferralV2Upgradeable.sol:ReferralV2Upgradeable","label":"selfBusinessUSD","offset":0,"slot":"1","type":"t_uint256"},{"astId":1455,"contract":"contracts/ReferralV2Upgradeable.sol:ReferralV2Upgradeable","label":"directBusinessUSD","offset":0,"slot":"2","type":"t_uint256"},{"astId":1457,"contract":"contracts/ReferralV2Upgradeable.sol:ReferralV2Upgradeable","label":"teamBusinessUSD","offset":0,"slot":"3","type":"t_uint256"},{"astId":1459,"contract":"contracts/ReferralV2Upgradeable.sol:ReferralV2Upgradeable","label":"rankName","offset":0,"slot":"4","type":"t_string_storage"},{"astId":1461,"contract":"contracts/ReferralV2Upgradeable.sol:ReferralV2Upgradeable","label":"reward","offset":0,"slot":"5","type":"t_uint256"},{"astId":1463,"contract":"contracts/ReferralV2Upgradeable.sol:ReferralV2Upgradeable","label":"businessLimit","offset":0,"slot":"6","type":"t_uint256"},{"astId":1465,"contract":"contracts/ReferralV2Upgradeable.sol:ReferralV2Upgradeable","label":"timeLimit","offset":0,"slot":"7","type":"t_uint256"},{"astId":1467,"contract":"contracts/ReferralV2Upgradeable.sol:ReferralV2Upgradeable","label":"isOneTimeRewardPaid","offset":0,"slot":"8","type":"t_bool"},{"astId":1469,"contract":"contracts/ReferralV2Upgradeable.sol:ReferralV2Upgradeable","label":"isPayReccursive","offset":1,"slot":"8","type":"t_bool"},{"astId":1472,"contract":"contracts/ReferralV2Upgradeable.sol:ReferralV2Upgradeable","label":"achieversList","offset":0,"slot":"9","type":"t_array(t_uint32)dyn_storage"}],"numberOfBytes":"320"},"t_struct(StructROI)1449_storage":{"encoding":"inplace","label":"struct ReferralV2Upgradeable.StructROI","members":[{"astId":1438,"contract":"contracts/ReferralV2Upgradeable.sol:ReferralV2Upgradeable","label":"isActive","offset":0,"slot":"0","type":"t_bool"},{"astId":1440,"contract":"contracts/ReferralV2Upgradeable.sol:ReferralV2Upgradeable","label":"ownerID","offset":1,"slot":"0","type":"t_uint32"},{"astId":1442,"contract":"contracts/ReferralV2Upgradeable.sol:ReferralV2Upgradeable","label":"valueInUSD","offset":0,"slot":"1","type":"t_uint256"},{"astId":1444,"contract":"contracts/ReferralV2Upgradeable.sol:ReferralV2Upgradeable","label":"roiRate","offset":0,"slot":"2","type":"t_uint16"},{"astId":1446,"contract":"contracts/ReferralV2Upgradeable.sol:ReferralV2Upgradeable","label":"startTime","offset":0,"slot":"3","type":"t_uint256"},{"astId":1448,"contract":"contracts/ReferralV2Upgradeable.sol:ReferralV2Upgradeable","label":"duration","offset":0,"slot":"4","type":"t_uint256"}],"numberOfBytes":"160"},"t_uint16":{"encoding":"inplace","label":"uint16","numberOfBytes":"2"},"t_uint256":{"encoding":"inplace","label":"uint256","numberOfBytes":"32"},"t_uint32":{"encoding":"inplace","label":"uint32","numberOfBytes":"4"},"t_uint8":{"encoding":"inplace","label":"uint8","numberOfBytes":"1"}}}}}}