{"contracts/ReferralV2Upgradeable.sol":{"ReferralV2Upgradeable":{"abi":[{"anonymous":false,"inputs":[{"indexed":false,"internalType":"address","name":"ownerAddress","type":"address"},{"indexed":false,"internalType":"uint256","name":"id","type":"uint256"},{"indexed":false,"internalType":"uint256","name":"idIndex","type":"uint256"}],"name":"AccountInfoIDAttached","type":"event"},{"anonymous":false,"inputs":[{"indexed":false,"internalType":"uint256","name":"userID","type":"uint256"},{"indexed":false,"internalType":"uint256","name":"index","type":"uint256"},{"indexed":false,"internalType":"uint256","name":"rank","type":"uint256"}],"name":"AddedInRoyaltyClubList","type":"event"},{"anonymous":false,"inputs":[{"indexed":false,"internalType":"address","name":"previousAdmin","type":"address"},{"indexed":false,"internalType":"address","name":"newAdmin","type":"address"}],"name":"AdminChanged","type":"event"},{"anonymous":false,"inputs":[{"indexed":true,"internalType":"address","name":"beacon","type":"address"}],"name":"BeaconUpgraded","type":"event"},{"anonymous":false,"inputs":[{"indexed":false,"internalType":"uint256","name":"id","type":"uint256"},{"indexed":false,"internalType":"string","name":"reason","type":"string"}],"name":"IDDeactivated","type":"event"},{"anonymous":false,"inputs":[{"indexed":false,"internalType":"uint8","name":"version","type":"uint8"}],"name":"Initialized","type":"event"},{"anonymous":false,"inputs":[{"indexed":true,"internalType":"address","name":"previousOwner","type":"address"},{"indexed":true,"internalType":"address","name":"newOwner","type":"address"}],"name":"OwnershipTransferred","type":"event"},{"anonymous":false,"inputs":[{"indexed":false,"internalType":"uint256","name":"packageID","type":"uint256"}],"name":"PackageAdded","type":"event"},{"anonymous":false,"inputs":[{"indexed":false,"internalType":"uint256","name":"packageID","type":"uint256"}],"name":"PackageRemoved","type":"event"},{"anonymous":false,"inputs":[{"indexed":false,"internalType":"uint256","name":"packageID","type":"uint256"}],"name":"PackageUpdated","type":"event"},{"anonymous":false,"inputs":[{"indexed":true,"internalType":"uint256","name":"userID","type":"uint256"},{"indexed":true,"internalType":"uint256","name":"reward","type":"uint256"}],"name":"ROIClaimed","type":"event"},{"anonymous":false,"inputs":[{"indexed":true,"internalType":"uint256","name":"refererID","type":"uint256"},{"indexed":true,"internalType":"uint256","name":"level","type":"uint256"},{"indexed":true,"internalType":"string","name":"reason","type":"string"}],"name":"ReferralNotPaid","type":"event"},{"anonymous":false,"inputs":[{"indexed":true,"internalType":"uint256","name":"refereeID","type":"uint256"},{"indexed":true,"internalType":"uint256","name":"referrerID","type":"uint256"},{"indexed":true,"internalType":"uint256","name":"amount","type":"uint256"},{"indexed":false,"internalType":"uint256","name":"level","type":"uint256"}],"name":"ReferralRewardPaid","type":"event"},{"anonymous":false,"inputs":[{"indexed":true,"internalType":"address","name":"refereeID","type":"address"},{"indexed":true,"internalType":"address","name":"referrerID","type":"address"},{"indexed":true,"internalType":"string","name":"reason","type":"string"}],"name":"RegisterRefererFailed","type":"event"},{"anonymous":false,"inputs":[{"indexed":true,"internalType":"uint256","name":"id","type":"uint256"},{"indexed":true,"internalType":"uint256","name":"refererID","type":"uint256"}],"name":"RegisteredReferer","type":"event"},{"anonymous":false,"inputs":[{"indexed":true,"internalType":"address","name":"parent","type":"address"},{"indexed":false,"internalType":"uint256","name":"parentAccountID","type":"uint256"},{"indexed":true,"internalType":"uint256","name":"referrerID","type":"uint256"},{"indexed":true,"internalType":"uint256","name":"refereeID","type":"uint256"}],"name":"RegisteredTeamAddress","type":"event"},{"anonymous":false,"inputs":[{"indexed":false,"internalType":"uint256","name":"packageID","type":"uint256"},{"indexed":true,"internalType":"uint256","name":"userID","type":"uint256"},{"indexed":true,"internalType":"uint256","name":"amount","type":"uint256"}],"name":"RoyaltyClubBonusPaid","type":"event"},{"anonymous":false,"inputs":[{"indexed":true,"internalType":"address","name":"implementation","type":"address"}],"name":"Upgraded","type":"event"},{"inputs":[{"internalType":"uint256","name":"","type":"uint256"}],"name":"_disabledUsersList","outputs":[{"internalType":"address","name":"","type":"address"}],"stateMutability":"view","type":"function"},{"inputs":[{"internalType":"uint32","name":"_refererID","type":"uint32"}],"name":"activateID","outputs":[],"stateMutability":"payable","type":"function"},{"inputs":[{"internalType":"uint32[]","name":"_userID","type":"uint32[]"}],"name":"addTeamAddress","outputs":[],"stateMutability":"nonpayable","type":"function"},{"inputs":[{"internalType":"uint256","name":"","type":"uint256"}],"name":"admins","outputs":[{"internalType":"address","name":"","type":"address"}],"stateMutability":"view","type":"function"},{"inputs":[{"internalType":"uint32","name":"_id","type":"uint32"},{"internalType":"uint256","name":"_valueInUSD","type":"uint256"}],"name":"claimBalance","outputs":[],"stateMutability":"nonpayable","type":"function"},{"inputs":[],"name":"companyTurnoverTimeLimit","outputs":[{"internalType":"uint256","name":"","type":"uint256"}],"stateMutability":"view","type":"function"},{"inputs":[],"name":"companyTurnoverTimeStamp","outputs":[{"internalType":"uint256","name":"","type":"uint256"}],"stateMutability":"view","type":"function"},{"inputs":[],"name":"companyTurnoverWithTimeLimit","outputs":[{"internalType":"uint256","name":"","type":"uint256"}],"stateMutability":"view","type":"function"},{"inputs":[],"name":"decimals","outputs":[{"internalType":"uint16","name":"","type":"uint16"}],"stateMutability":"view","type":"function"},{"inputs":[{"internalType":"address","name":"_userAddress","type":"address"}],"name":"disableUserAdmin","outputs":[],"stateMutability":"nonpayable","type":"function"},{"inputs":[{"internalType":"uint32","name":"_id","type":"uint32"}],"name":"getIDAccount","outputs":[{"components":[{"internalType":"uint32","name":"id","type":"uint32"},{"internalType":"string","name":"oldID","type":"string"},{"internalType":"bool","name":"isDisabled","type":"bool"},{"internalType":"address","name":"owner","type":"address"},{"internalType":"uint256","name":"joiningTime","type":"uint256"},{"internalType":"uint256","name":"activationTime","type":"uint256"},{"internalType":"uint256","name":"deactivateTime","type":"uint256"},{"internalType":"uint32[]","name":"roiIDs","type":"uint32[]"},{"internalType":"uint32","name":"refererID","type":"uint32"},{"internalType":"uint32[]","name":"refereeIDs","type":"uint32[]"},{"internalType":"uint32[]","name":"teamIDs","type":"uint32[]"},{"internalType":"uint32[]","name":"teamLevel","type":"uint32[]"},{"internalType":"uint256","name":"selfBusinessUSD","type":"uint256"},{"internalType":"uint256","name":"selfBusinessUSDOld","type":"uint256"},{"internalType":"uint256","name":"directBusinessUSD","type":"uint256"},{"internalType":"uint256","name":"directBusinessUSDOld","type":"uint256"},{"internalType":"uint256","name":"teamBusinessUSD","type":"uint256"},{"internalType":"uint256","name":"teamBusinessUSDOld","type":"uint256"},{"internalType":"uint256","name":"royaltyClubBusinessUSD","type":"uint256"},{"internalType":"uint256","name":"timeStampRoyaltyClub","type":"uint256"},{"internalType":"uint8","name":"royaltyClubPackageID","type":"uint8"},{"internalType":"uint256","name":"royaltyClubListIndex","type":"uint256"},{"internalType":"uint256","name":"referralPaidUSD","type":"uint256"},{"internalType":"uint256","name":"rewardPaidRoyaltyClubUSD","type":"uint256"},{"internalType":"uint256","name":"topUpUSD","type":"uint256"},{"internalType":"uint256","name":"balanceClaimedUSD","type":"uint256"},{"internalType":"uint256","name":"limitBalanceUSD","type":"uint256"},{"internalType":"uint256","name":"maxLimitAmount","type":"uint256"},{"internalType":"uint256","name":"totalROIClaimedUSD","type":"uint256"},{"internalType":"uint256","name":"roiClaimedUSD","type":"uint256"},{"internalType":"uint256","name":"roiClaimTimestamp","type":"uint256"}],"internalType":"struct ReferralV2Upgradeable.StructID","name":"","type":"tuple"}],"stateMutability":"view","type":"function"},{"inputs":[{"internalType":"uint32","name":"_id","type":"uint32"}],"name":"getIDRoyaltyClubLevel","outputs":[{"internalType":"uint256","name":"","type":"uint256"}],"stateMutability":"view","type":"function"},{"inputs":[],"name":"getPriceOracleContract","outputs":[{"internalType":"address","name":"","type":"address"}],"stateMutability":"view","type":"function"},{"inputs":[{"internalType":"uint32","name":"_roiID","type":"uint32"}],"name":"getROIAccount","outputs":[{"components":[{"internalType":"bool","name":"isActive","type":"bool"},{"internalType":"uint32","name":"ownerID","type":"uint32"},{"internalType":"uint256","name":"valueInUSD","type":"uint256"},{"internalType":"uint16","name":"roiRate","type":"uint16"},{"internalType":"uint256","name":"startTime","type":"uint256"},{"internalType":"uint256","name":"duration","type":"uint256"}],"internalType":"struct ReferralV2Upgradeable.StructROI","name":"","type":"tuple"}],"stateMutability":"view","type":"function"},{"inputs":[{"internalType":"address","name":"_address","type":"address"}],"name":"getUserAccount","outputs":[{"components":[{"internalType":"bool","name":"isDisabled","type":"bool"},{"internalType":"uint32[]","name":"accountIDs","type":"uint32[]"}],"internalType":"struct ReferralV2Upgradeable.StructAccount","name":"","type":"tuple"}],"stateMutability":"view","type":"function"},{"inputs":[{"internalType":"uint32","name":"_id","type":"uint32"}],"name":"getUserIDTotalROI","outputs":[{"internalType":"uint256","name":"roi","type":"uint256"}],"stateMutability":"view","type":"function"},{"inputs":[{"internalType":"uint32","name":"_id","type":"uint32"}],"name":"getUserTotalActiveROIValue","outputs":[{"internalType":"uint256","name":"","type":"uint256"}],"stateMutability":"view","type":"function"},{"inputs":[{"internalType":"uint32","name":"_id","type":"uint32"}],"name":"getUserUnlockCount","outputs":[{"internalType":"uint256","name":"","type":"uint256"}],"stateMutability":"view","type":"function"},{"inputs":[],"name":"initialize","outputs":[],"stateMutability":"nonpayable","type":"function"},{"inputs":[],"name":"isPayROI","outputs":[{"internalType":"bool","name":"","type":"bool"}],"stateMutability":"view","type":"function"},{"inputs":[],"name":"isPayRoyaltyClubBonus","outputs":[{"internalType":"bool","name":"","type":"bool"}],"stateMutability":"view","type":"function"},{"inputs":[{"internalType":"address","name":"_userAddress","type":"address"}],"name":"isUserDisabledByAdmin","outputs":[{"internalType":"bool","name":"","type":"bool"}],"stateMutability":"view","type":"function"},{"inputs":[{"internalType":"uint256","name":"","type":"uint256"}],"name":"levelRates","outputs":[{"internalType":"uint16","name":"","type":"uint16"}],"stateMutability":"view","type":"function"},{"inputs":[],"name":"maxLevelsCount","outputs":[{"internalType":"uint8","name":"","type":"uint8"}],"stateMutability":"view","type":"function"},{"inputs":[],"name":"minContributionInUSD","outputs":[{"internalType":"uint256","name":"","type":"uint256"}],"stateMutability":"view","type":"function"},{"inputs":[],"name":"owner","outputs":[{"internalType":"address","name":"","type":"address"}],"stateMutability":"view","type":"function"},{"inputs":[],"name":"packagesCount","outputs":[{"internalType":"uint8","name":"","type":"uint8"}],"stateMutability":"view","type":"function"},{"inputs":[],"name":"proxiableUUID","outputs":[{"internalType":"bytes32","name":"","type":"bytes32"}],"stateMutability":"view","type":"function"},{"inputs":[{"internalType":"uint32[]","name":"_userID","type":"uint32[]"}],"name":"removeRefereeArray","outputs":[],"stateMutability":"nonpayable","type":"function"},{"inputs":[{"internalType":"address","name":"_userAddress","type":"address"}],"name":"removeUserFromDisableList","outputs":[],"stateMutability":"nonpayable","type":"function"},{"inputs":[],"name":"renounceOwnership","outputs":[],"stateMutability":"nonpayable","type":"function"},{"inputs":[],"name":"royaltyClubPackageCount","outputs":[{"internalType":"uint8","name":"","type":"uint8"}],"stateMutability":"view","type":"function"},{"inputs":[{"internalType":"address","name":"_address","type":"address"},{"internalType":"uint256","name":"_value","type":"uint256"}],"name":"sendETHAdmin","outputs":[],"stateMutability":"nonpayable","type":"function"},{"inputs":[{"internalType":"address","name":"_adminAddress","type":"address"}],"name":"setAdmin","outputs":[],"stateMutability":"nonpayable","type":"function"},{"inputs":[{"internalType":"address","name":"_contractAddress","type":"address"}],"name":"setPriceOracleContract","outputs":[],"stateMutability":"nonpayable","type":"function"},{"inputs":[{"internalType":"uint32","name":"_id","type":"uint32"}],"name":"topUpID","outputs":[],"stateMutability":"payable","type":"function"},{"inputs":[],"name":"totalIDs","outputs":[{"internalType":"uint32","name":"","type":"uint32"}],"stateMutability":"view","type":"function"},{"inputs":[],"name":"totalROIIDs","outputs":[{"internalType":"uint32","name":"","type":"uint32"}],"stateMutability":"view","type":"function"},{"inputs":[],"name":"totalROIPaidUSD","outputs":[{"internalType":"uint256","name":"","type":"uint256"}],"stateMutability":"view","type":"function"},{"inputs":[],"name":"totalReferralPaidUSD","outputs":[{"internalType":"uint256","name":"","type":"uint256"}],"stateMutability":"view","type":"function"},{"inputs":[],"name":"totalRoyaltyClubBonusPaidETH","outputs":[{"internalType":"uint256","name":"","type":"uint256"}],"stateMutability":"view","type":"function"},{"inputs":[],"name":"totalRoyaltyClubBonusPaidUSD","outputs":[{"internalType":"uint256","name":"","type":"uint256"}],"stateMutability":"view","type":"function"},{"inputs":[],"name":"totalUsers","outputs":[{"internalType":"uint32","name":"","type":"uint32"}],"stateMutability":"view","type":"function"},{"inputs":[{"internalType":"address","name":"newOwner","type":"address"}],"name":"transferOwnership","outputs":[],"stateMutability":"nonpayable","type":"function"},{"inputs":[{"internalType":"uint32[]","name":"_userID","type":"uint32[]"},{"internalType":"address[]","name":"_userAddress","type":"address[]"},{"internalType":"uint32[]","name":"_referrerID","type":"uint32[]"},{"internalType":"string[]","name":"_oldID","type":"string[]"}],"name":"updateIDOldIDtoAddress","outputs":[],"stateMutability":"nonpayable","type":"function"},{"inputs":[{"internalType":"uint32","name":"_value","type":"uint32"}],"name":"updateTotalIDs","outputs":[],"stateMutability":"nonpayable","type":"function"},{"inputs":[{"internalType":"uint32[]","name":"_userID","type":"uint32[]"},{"internalType":"uint256[]","name":"_totalTopUp","type":"uint256[]"},{"internalType":"uint256[]","name":"_limitBalanceUSD","type":"uint256[]"},{"internalType":"uint256[]","name":"_balanceClaimedUSD","type":"uint256[]"},{"internalType":"uint256[]","name":"_joiningTime","type":"uint256[]"},{"internalType":"uint256[]","name":"_activationTime","type":"uint256[]"}],"name":"updateUserIDDataOldAdmin","outputs":[],"stateMutability":"nonpayable","type":"function"},{"inputs":[{"internalType":"address","name":"newImplementation","type":"address"}],"name":"upgradeTo","outputs":[],"stateMutability":"nonpayable","type":"function"},{"inputs":[{"internalType":"address","name":"newImplementation","type":"address"},{"internalType":"bytes","name":"data","type":"bytes"}],"name":"upgradeToAndCall","outputs":[],"stateMutability":"payable","type":"function"},{"inputs":[],"name":"withdrawETHAdmin","outputs":[],"stateMutability":"nonpayable","type":"function"},{"inputs":[{"internalType":"address","name":"_tokenAddress","type":"address"},{"internalType":"uint256","name":"_value","type":"uint256"}],"name":"withdrawTokensAdmin","outputs":[],"stateMutability":"nonpayable","type":"function"},{"stateMutability":"payable","type":"receive"}],"evm":{"bytecode":{"linkReferences":{},"object":"60a06040523060805234801561001457600080fd5b506080516157366200004d60003960008181610b6b01528181610bab01528181610f7b01528181610fbb015261103301526157366000f3fe6080604052600436106102785760003560e01c80637f2f4a9111610150578063bf46de63116100bc578063bf46de631461073b578063bff1f9e11461075b578063c3ab5ebf14610778578063db003b2a14610889578063e52356f3146108a9578063e5682e38146108c9578063ea62f715146108dc578063f2fde38b146108fc578063f31a2d0f1461091c578063f41bfeef1461093c578063f830e57b14610952578063fafc95971461097f578063fb47e0161461099e57600080fd5b80637f2f4a91146105c15780638129fc1c146105e15780638da5cb5b146105f65780638df05d9c1461061457806396ed6b85146106345780639f4e83981461064a578063a0b6105f1461066a578063a1b801751461068a578063a28a3686146106ae578063af2f39d1146106ce578063b47181d3146106e8578063b92d18c114610708578063bc09161b1461071b57600080fd5b80633659cfe6116101ef5780633659cfe61461041657806349b32504146104365780634f1ef2861461045657806352d1902d14610469578063538ffe0c1461047e5780635e701d86146104c75780636dc8afc514610500578063704b6c021461051657806370d9e08114610536578063715018a61461055657806376a68e841461056b5780637879b5ef1461058b5780637a026935146105ab57600080fd5b806309de82cd146102845780630b243dad146102ad5780630efdbb6a146102cf57806314bfd6d0146102ef57806318e10bff146103275780631dc209ff146103535780631f7f83ba1461036957806322f88b52146103895780632913497b1461039f5780632ed421d2146103bd578063313ce567146103d3578063357597881461040157600080fd5b3661027f57005b600080fd5b34801561029057600080fd5b5061029a60ce5481565b6040519081526020015b60405180910390f35b3480156102b957600080fd5b506102cd6102c8366004614af3565b6109cb565b005b3480156102db57600080fd5b506102cd6102ea366004614b1d565b610a0e565b3480156102fb57600080fd5b5061030f61030a366004614b38565b610af0565b6040516001600160a01b0390911681526020016102a4565b34801561033357600080fd5b5060d9546103419060ff1681565b60405160ff90911681526020016102a4565b34801561035f57600080fd5b5061029a60cf5481565b34801561037557600080fd5b5061030f610384366004614b38565b610b1a565b34801561039557600080fd5b5061029a60d55481565b3480156103ab57600080fd5b5060c9546001600160a01b031661030f565b3480156103c957600080fd5b5061029a60d65481565b3480156103df57600080fd5b5060cb546103ee9061ffff1681565b60405161ffff90911681526020016102a4565b34801561040d57600080fd5b506102cd610b2a565b34801561042257600080fd5b506102cd610431366004614b1d565b610b61565b34801561044257600080fd5b506102cd610451366004614b9c565b610c26565b6102cd610464366004614c7a565b610f71565b34801561047557600080fd5b5061029a611026565b34801561048a57600080fd5b506104b7610499366004614b1d565b6001600160a01b0316600090815260da602052604090205460ff1690565b60405190151581526020016102a4565b3480156104d357600080fd5b5060d1546104eb90600160201b900463ffffffff1681565b60405163ffffffff90911681526020016102a4565b34801561050c57600080fd5b5061029a60d05481565b34801561052257600080fd5b506102cd610531366004614b1d565b6110d4565b34801561054257600080fd5b506102cd610551366004614cef565b61112e565b34801561056257600080fd5b506102cd611207565b34801561057757600080fd5b5061029a610586366004614cef565b61121b565b34801561059757600080fd5b506103ee6105a6366004614b38565b61162c565b3480156105b757600080fd5b5061029a60cd5481565b3480156105cd57600080fd5b506102cd6105dc366004614b9c565b611664565b3480156105ed57600080fd5b506102cd6117ab565b34801561060257600080fd5b506033546001600160a01b031661030f565b34801561062057600080fd5b5060cb546103419062010000900460ff1681565b34801561064057600080fd5b5061029a60cc5481565b34801561065657600080fd5b506102cd610665366004614b1d565b611a50565b34801561067657600080fd5b506102cd610685366004614af3565b611b6c565b34801561069657600080fd5b5060d1546104eb90600160401b900463ffffffff1681565b3480156106ba57600080fd5b5060d4546103419062010000900460ff1681565b3480156106da57600080fd5b5060d4546104b79060ff1681565b3480156106f457600080fd5b5061029a610703366004614cef565b611be5565b6102cd610716366004614cef565b611ff3565b34801561072757600080fd5b506102cd610736366004614d0a565b61210b565b34801561074757600080fd5b5061029a610756366004614cef565b612497565b34801561076757600080fd5b5060d1546104eb9063ffffffff1681565b34801561078457600080fd5b50610831610793366004614cef565b6040805160c081018252600080825260208201819052918101829052606081018290526080810182905260a08101919091525063ffffffff908116600090815260dc6020908152604091829020825160c081018452815460ff811615158252610100900490941691840191909152600181015491830191909152600281015461ffff166060830152600381015460808301526004015460a082015290565b6040516102a49190600060c08201905082511515825263ffffffff60208401511660208301526040830151604083015261ffff60608401511660608301526080830151608083015260a083015160a083015292915050565b34801561089557600080fd5b506102cd6108a4366004614e66565b6124fb565b3480156108b557600080fd5b506102cd6108c4366004614b1d565b612716565b6102cd6108d7366004614cef565b6128eb565b3480156108e857600080fd5b5061029a6108f7366004614cef565b612a48565b34801561090857600080fd5b506102cd610917366004614b1d565b612b5f565b34801561092857600080fd5b506102cd610937366004614fa3565b612bd5565b34801561094857600080fd5b5061029a60d75481565b34801561095e57600080fd5b5061097261096d366004614cef565b612cf1565b6040516102a49190615050565b34801561098b57600080fd5b5060d4546104b790610100900460ff1681565b3480156109aa57600080fd5b506109be6109b9366004614b1d565b6131f1565b6040516102a4919061526d565b6109d36132bc565b6040516001600160a01b0383169082156108fc029083906000818181858888f19350505050158015610a09573d6000803e3d6000fd5b505050565b60005b60de5460ff82161015610aec5760de8160ff1681548110610a3457610a34615294565b6000918252602090912001546001600160a01b03163303610a705760c980546001600160a01b0384166001600160a01b03199091161790555050565b60de54610a7f906001906152c0565b8160ff1603610ada5760de8160ff1681548110610a9e57610a9e615294565b6000918252602090912001546001600160a01b03163314610ada5760405162461bcd60e51b8152600401610ad1906152d3565b60405180910390fd5b80610ae4816152fe565b915050610a11565b5050565b60de8181548110610b0057600080fd5b6000918252602090912001546001600160a01b0316905081565b60d88181548110610b0057600080fd5b610b326132bc565b60405133904780156108fc02916000818181858888f19350505050158015610b5e573d6000803e3d6000fd5b50565b6001600160a01b037f0000000000000000000000000000000000000000000000000000000000000000163003610ba95760405162461bcd60e51b8152600401610ad19061531d565b7f00000000000000000000000000000000000000000000000000000000000000006001600160a01b0316610bdb613316565b6001600160a01b031614610c015760405162461bcd60e51b8152600401610ad190615369565b610c0a81613332565b60408051600080825260208201909252610b5e9183919061333a565b60005b60de5460ff82161015610a095760de8160ff1681548110610c4c57610c4c615294565b6000918252602090912001546001600160a01b03163303610efe5760005b63ffffffff8116831115610ef857600060db600086868563ffffffff16818110610c9657610c96615294565b9050602002016020810190610cab9190614cef565b63ffffffff1681526020810191909152604001600090812060cb5490925062010000900460ff16905b8160ff168163ffffffff161015610ee257600783015463ffffffff908116600081815260db60205260408120919284169003610d78578060080189898863ffffffff16818110610d2657610d26615294565b9050602002016020810190610d3b9190614cef565b8154600181018355600092835260209092206008830401805460079093166004026101000a63ffffffff8181021990941692909316929092021790555b845463ffffffff16600003610d8e575050610ee2565b8060090189898863ffffffff16818110610daa57610daa615294565b9050602002016020810190610dbf9190614cef565b815460018082018455600093845260209093206008820401805460079092166004026101000a63ffffffff818102199093169390921691909102919091179055600a820190610e0f9085906153b5565b8154600181018355600092835260209092206008830401805460079093166004026101000a63ffffffff8181021990941692841602919091179055899089908816818110610e5f57610e5f615294565b9050602002016020810190610e749190614cef565b6002820154825460405163ffffffff9182168152928116929085169161010090046001600160a01b0316907fa7fafc728ec30e34dc1e1276496bf3eb44ca7494679da969455289e6a8f0f1f69060200160405180910390a49350819050610eda816153d9565b915050610cd4565b5050508080610ef0906153d9565b915050610c6a565b50505050565b60de54610f0d906001906152c0565b8160ff1603610f5f5760de8160ff1681548110610f2c57610f2c615294565b6000918252602090912001546001600160a01b03163314610f5f5760405162461bcd60e51b8152600401610ad1906152d3565b80610f69816152fe565b915050610c29565b6001600160a01b037f0000000000000000000000000000000000000000000000000000000000000000163003610fb95760405162461bcd60e51b8152600401610ad19061531d565b7f00000000000000000000000000000000000000000000000000000000000000006001600160a01b0316610feb613316565b6001600160a01b0316146110115760405162461bcd60e51b8152600401610ad190615369565b61101a82613332565b610aec8282600161333a565b6000306001600160a01b037f000000000000000000000000000000000000000000000000000000000000000016146110c15760405162461bcd60e51b815260206004820152603860248201527f555550535570677261646561626c653a206d757374206e6f742062652063616c6044820152771b1959081d1a1c9bdd59da0819195b1959d85d1958d85b1b60421b6064820152608401610ad1565b506000805160206156ba83398151915290565b6110dc6132bc565b60de80546001810182556000919091527ffae8130c0619f84b4b44f01b84806f04e82e536d70e05f2356977fa318aecc1a0180546001600160a01b0319166001600160a01b0392909216919091179055565b60005b60de5460ff82161015610aec5760de8160ff168154811061115457611154615294565b6000918252602090912001546001600160a01b031633036111945760d1805463ffffffff8416600160201b0267ffffffff00000000199091161790555050565b60de546111a3906001906152c0565b8160ff16036111f55760de8160ff16815481106111c2576111c2615294565b6000918252602090912001546001600160a01b031633146111f55760405162461bcd60e51b8152600401610ad1906152d3565b806111ff816152fe565b915050611131565b61120f6132bc565b61121960006134a5565b565b63ffffffff808216600090815260db6020908152604080832081516103e081019092528054909416815260018401805493948594929390929084019190611261906153fc565b80601f016020809104026020016040519081016040528092919081815260200182805461128d906153fc565b80156112da5780601f106112af576101008083540402835291602001916112da565b820191906000526020600020905b8154815290600101906020018083116112bd57829003601f168201915b5050509183525050600282015460ff811615156020808401919091526101009091046001600160a01b03166040808401919091526003840154606084015260048401546080840152600584015460a084015260068401805482518185028101850190935280835260c09094019391929091908301828280156113a757602002820191906000526020600020906000905b82829054906101000a900463ffffffff1663ffffffff168152602001906004019060208260030104928301926001038202915080841161136a5790505b5050509183525050600782015463ffffffff16602080830191909152600883018054604080518285028101850182528281529401939283018282801561143857602002820191906000526020600020906000905b82829054906101000a900463ffffffff1663ffffffff16815260200190600401906020826003010492830192600103820291508084116113fb5790505b50505050508152602001600982018054806020026020016040519081016040528092919081815260200182805480156114bc57602002820191906000526020600020906000905b82829054906101000a900463ffffffff1663ffffffff168152602001906004019060208260030104928301926001038202915080841161147f5790505b50505050508152602001600a820180548060200260200160405190810160405280929190818152602001828054801561154057602002820191906000526020600020906000905b82829054906101000a900463ffffffff1663ffffffff16815260200190600401906020826003010492830192600103820291508084116115035790505b5050509183525050600b8201546020820152600c8201546040820152600d8201546060820152600e8201546080820152600f82015460a0820152601082015460c0820152601182015460e08201526012820154610100820152601382015460ff1661012082015260148201546101408201526015820154610160820152601682015461018082015260178201546101a082015260188201546101c082015260198201546101e0820152601a820154610200820152601b820154610220820152601c820154610240820152601d90910154610260909101529050611622816134f7565b60ff169392505050565b60ca818154811061163c57600080fd5b9060005260206000209060109182820401919006600202915054906101000a900461ffff1681565b60005b60de5460ff82161015610a095760de8160ff168154811061168a5761168a615294565b6000918252602090912001546001600160a01b031633036117385760005b63ffffffff8116831115610ef857600060db600086868563ffffffff168181106116d4576116d4615294565b90506020020160208101906116e99190614cef565b63ffffffff16815260208082019290925260409081016000908120825191825292810191829052519192506117239160088401919061497d565b50508080611730906153d9565b9150506116a8565b60de54611747906001906152c0565b8160ff16036117995760de8160ff168154811061176657611766615294565b6000918252602090912001546001600160a01b031633146117995760405162461bcd60e51b8152600401610ad1906152d3565b806117a3816152fe565b915050611667565b600054610100900460ff16158080156117cb5750600054600160ff909116105b806117ec57506117da3061359e565b1580156117ec575060005460ff166001145b61184f5760405162461bcd60e51b815260206004820152602e60248201527f496e697469616c697a61626c653a20636f6e747261637420697320616c72656160448201526d191e481a5b9a5d1a585b1a5e995960921b6064820152608401610ad1565b6000805460ff191660011790558015611872576000805461ff0019166101001790555b60c980546001600160a01b03191673286d6392042b4d7180fd6d20f8d35c877681577417905560cb805461ffff19166103e8179055604080516103a08101825260648152604660208201526032918101829052606081018290526080810182905260a0810182905260c0810182905260e08101829052610100810182905261012081018290526101408101829052610160810182905261018081018290526101a081018290526101c081018290526101e08101829052610200810182905261022081018290526102408101919091526014610260820181905261028082018190526102a082018190526102c082018190526102e08201819052610300820181905261032082018190526103408201819052610360820181905261038082015261199f9060ca90601d614a2c565b5060cb805462ff0000191662320000179055670de0b6b3a764000060cc5560d4805463ff00ffff1916630200000117905560d1805461ffff60601b1916607d60631b17905563020f580060d255601460d35562278d0060d755611a006135ad565b611a086135dc565b8015610b5e576000805461ff0019169055604051600181527f7f26b83ff96e1f2b6a682f133852f6798a09c465da95921460cefb38474024989060200160405180910390a150565b60005b60de5460ff82161015610aec5760de8160ff1681548110611a7657611a76615294565b6000918252602090912001546001600160a01b03163303611af95760d8805460018181019092557f5320ad99a619a90804cd2efe3a5cf0ac1ac5c41ad9ff2c61cf699efdad7710960180546001600160a01b0385166001600160a01b03199091168117909155600090815260da60205260409020805460ff191690911790555050565b60de54611b08906001906152c0565b8160ff1603611b5a5760de8160ff1681548110611b2757611b27615294565b6000918252602090912001546001600160a01b03163314611b5a5760405162461bcd60e51b8152600401610ad1906152d3565b80611b64816152fe565b915050611a53565b611b746132bc565b60405163a9059cbb60e01b8152336004820152602481018290526001600160a01b0383169063a9059cbb906044016020604051808303816000875af1158015611bc1573d6000803e3d6000fd5b505050506040513d601f19601f82011682018060405250810190610a099190615436565b63ffffffff808216600090815260db6020908152604080832081516103e081019092528054909416815260018401805493948594929390929084019190611c2b906153fc565b80601f0160208091040260200160405190810160405280929190818152602001828054611c57906153fc565b8015611ca45780601f10611c7957610100808354040283529160200191611ca4565b820191906000526020600020905b815481529060010190602001808311611c8757829003601f168201915b5050509183525050600282015460ff811615156020808401919091526101009091046001600160a01b03166040808401919091526003840154606084015260048401546080840152600584015460a084015260068401805482518185028101850190935280835260c0909401939192909190830182828015611d7157602002820191906000526020600020906000905b82829054906101000a900463ffffffff1663ffffffff1681526020019060040190602082600301049283019260010382029150808411611d345790505b5050509183525050600782015463ffffffff166020808301919091526008830180546040805182850281018501825282815294019392830182828015611e0257602002820191906000526020600020906000905b82829054906101000a900463ffffffff1663ffffffff1681526020019060040190602082600301049283019260010382029150808411611dc55790505b5050505050815260200160098201805480602002602001604051908101604052809291908181526020018280548015611e8657602002820191906000526020600020906000905b82829054906101000a900463ffffffff1663ffffffff1681526020019060040190602082600301049283019260010382029150808411611e495790505b50505050508152602001600a8201805480602002602001604051908101604052809291908181526020018280548015611f0a57602002820191906000526020600020906000905b82829054906101000a900463ffffffff1663ffffffff1681526020019060040190602082600301049283019260010382029150808411611ecd5790505b5050509183525050600b8201546020820152600c8201546040820152600d8201546060820152600e8201546080820152600f82015460a0820152601082015460c0820152601182015460e08201526012820154610100820152601382015460ff1661012082015260148201546101408201526015820154610160820152601682015461018082015260178201546101a082015260188201546101c082015260198201546101e0820152601a820154610200820152601b820154610220820152601c820154610240820152601d90910154610260909101529050611fec81613603565b9392505050565b60cc54349061200190613640565b8110156120645760405162461bcd60e51b815260206004820152602b60248201527f56616c75652073686f756c6420626520677265617465207468656e206d696e4360448201526a37b73a3934b13aba34b7b760a91b6064820152608401610ad1565b336000612070836136d6565b60d154909150429060009061209390600160401b900463ffffffff1660016153b5565b63ffffffff8716600090815260db602052604090206002810154919250906001600160a01b0386811661010090920416146120e05760405162461bcd60e51b8152600401610ad190615458565b60d45460ff16156120f7576120f787838686613763565b612102878585613855565b50505050505050565b60005b60de5460ff8216101561248d5760de8160ff168154811061213157612131615294565b6000918252602090912001546001600160a01b0316330361241a5760005b61ffff811688111561241457600060db60008b8b8561ffff1681811061217757612177615294565b905060200201602081019061218c9190614cef565b63ffffffff1663ffffffff1681526020019081526020016000209050600060da60008a8a8661ffff168181106121c4576121c4615294565b90506020020160208101906121d99190614b1d565b6001600160a01b03166001600160a01b0316815260200190815260200160002090508a8a8461ffff1681811061221157612211615294565b90506020020160208101906122269190614cef565b825463ffffffff191663ffffffff919091161782558451859061ffff851690811061225357612253615294565b602002602001015182600101908161226b91906154d5565b50806001018b8b8561ffff1681811061228657612286615294565b905060200201602081019061229b9190614cef565b8154600181018355600092835260209092206008830401805460079093166004026101000a63ffffffff818102199094169290931692909202179055888861ffff85168181106122ed576122ed615294565b90506020020160208101906123029190614b1d565b8260020160016101000a8154816001600160a01b0302191690836001600160a01b0316021790555086868461ffff1681811061234057612340615294565b90506020020160208101906123559190614cef565b60078301805463ffffffff191663ffffffff92909216919091179055868661ffff851681811061238757612387615294565b905060200201602081019061239c9190614cef565b63ffffffff168b8b8561ffff168181106123b8576123b8615294565b90506020020160208101906123cd9190614cef565b63ffffffff167f9d714438ba618019cc2b8621dcd2550337e162be58654470ea30d48479fe832060405160405180910390a35050808061240c90615594565b91505061214f565b5061248d565b60de54612429906001906152c0565b8160ff160361247b5760de8160ff168154811061244857612448615294565b6000918252602090912001546001600160a01b0316331461247b5760405162461bcd60e51b8152600401610ad1906152d3565b80612485816152fe565b91505061210e565b5050505050505050565b63ffffffff8116600090815260db60205260408120816124b684613971565b905081601a01548183601901546124cd91906155ab565b116124da578092506124f4565b6000826019015483601a01546124f091906152c0565b9350505b5050919050565b60005b60de5460ff821610156127075760de8160ff168154811061252157612521615294565b6000918252602090912001546001600160a01b031633036126945760005b8c81101561268e5760d18054600160401b900463ffffffff16906008612564836153d9565b91906101000a81548163ffffffff021916908363ffffffff1602179055505060008c8c8381811061259757612597615294565b90506020020135111561267c5760008c8c838181106125b8576125b8615294565b9050602002013560036125cb91906155be565b905061267a8f8f848181106125e2576125e2615294565b90506020020160208101906125f79190614cef565b8e8e8581811061260957612609615294565b905060200201358d8d8681811061262257612622615294565b90506020020135848d8d8881811061263c5761263c615294565b905060200201358c8c8981811061265557612655615294565b905060200201358b8b8a81811061266e5761266e615294565b90506020020135613e69565b505b80612686816155d5565b91505061253f565b50612707565b60de546126a3906001906152c0565b8160ff16036126f55760de8160ff16815481106126c2576126c2615294565b6000918252602090912001546001600160a01b031633146126f55760405162461bcd60e51b8152600401610ad1906152d3565b806126ff816152fe565b9150506124fe565b50505050505050505050505050565b60005b60de5460ff82161015610aec5760de8160ff168154811061273c5761273c615294565b6000918252602090912001546001600160a01b03163303612878576001600160a01b038216600090815260da60205260408120805460ff1916905560d854905b81811015610ef857836001600160a01b031660d882815481106127a1576127a1615294565b6000918252602090912001546001600160a01b0316036128665760d86127c86001846152c0565b815481106127d8576127d8615294565b60009182526020909120015460d880546001600160a01b03909216918390811061280457612804615294565b9060005260206000200160006101000a8154816001600160a01b0302191690836001600160a01b0316021790555060d8805480612843576128436155ee565b600082815260209020810160001990810180546001600160a01b03191690550190555b80612870816155d5565b91505061277c565b60de54612887906001906152c0565b8160ff16036128d95760de8160ff16815481106128a6576128a6615294565b6000918252602090912001546001600160a01b031633146128d95760405162461bcd60e51b8152600401610ad1906152d3565b806128e3816152fe565b915050612719565b3460006128f7826136d6565b905061290460cc54613640565b8210156129535760405162461bcd60e51b815260206004820152601f60248201527f56616c75652073686f756c6420626520677265617465207468656e20313030006044820152606401610ad1565b60d1543390429060009061297590600160201b900463ffffffff1660016153b5565b60d15490915060009061299690600160401b900463ffffffff1660016153b5565b6001600160a01b038516600090815260da6020526040902060d4549192509060ff16156129c9576129c983838887613763565b6129fd83604051806020016040528060008152508a60405180602001604052806000815250898b8c600361210291906155be565b6001908101805491820181556000908152602090206008820401805460079092166004026101000a63ffffffff81810219909316949092169190910292909217909155505050505050565b63ffffffff8116600090815260db6020908152604080832060060180548251818502810185019093528083528493830182828015612ad157602002820191906000526020600020906000905b82829054906101000a900463ffffffff1663ffffffff1681526020019060040190602082600301049283019260010382029150808411612a945790505b505050505090506000805b82518161ffff161015612b5757600060dc6000858461ffff1681518110612b0557612b05615294565b60209081029190910181015163ffffffff168252810191909152604001600020805490915060ff1615612b44576001810154612b4190846155ab565b92505b5080612b4f81615594565b915050612adc565b509392505050565b612b676132bc565b6001600160a01b038116612bcc5760405162461bcd60e51b815260206004820152602660248201527f4f776e61626c653a206e6577206f776e657220697320746865207a65726f206160448201526564647265737360d01b6064820152608401610ad1565b610b5e816134a5565b63ffffffff8216600090815260db60205260409020600281015461010090046001600160a01b03163314612c1b5760405162461bcd60e51b8152600401610ad190615458565b6000612c2682613fd8565b6018830154909150612c3881836152c0565b841115612c9a5760405162461bcd60e51b815260206004820152602a60248201527f506c6561736520656e7465722076616c7565206c657373207468656e20796f7560448201526939103130b630b731b29760b11b6064820152608401610ad1565b83836018016000828254612cae91906155ab565b909155503390506108fc612cc186613640565b6040518115909202916000818181858888f19350505050158015612ce9573d6000803e3d6000fd5b505050505050565b612df4604051806103e00160405280600063ffffffff1681526020016060815260200160001515815260200160006001600160a01b0316815260200160008152602001600081526020016000815260200160608152602001600063ffffffff1681526020016060815260200160608152602001606081526020016000815260200160008152602001600081526020016000815260200160008152602001600081526020016000815260200160008152602001600060ff168152602001600081526020016000815260200160008152602001600081526020016000815260200160008152602001600081526020016000815260200160008152602001600081525090565b63ffffffff808316600090815260db602090815260409182902082516103e081019093528054909316825260018301805492939291840191612e35906153fc565b80601f0160208091040260200160405190810160405280929190818152602001828054612e61906153fc565b8015612eae5780601f10612e8357610100808354040283529160200191612eae565b820191906000526020600020905b815481529060010190602001808311612e9157829003601f168201915b5050509183525050600282015460ff811615156020808401919091526101009091046001600160a01b03166040808401919091526003840154606084015260048401546080840152600584015460a084015260068401805482518185028101850190935280835260c0909401939192909190830182828015612f7b57602002820191906000526020600020906000905b82829054906101000a900463ffffffff1663ffffffff1681526020019060040190602082600301049283019260010382029150808411612f3e5790505b5050509183525050600782015463ffffffff16602080830191909152600883018054604080518285028101850182528281529401939283018282801561300c57602002820191906000526020600020906000905b82829054906101000a900463ffffffff1663ffffffff1681526020019060040190602082600301049283019260010382029150808411612fcf5790505b505050505081526020016009820180548060200260200160405190810160405280929190818152602001828054801561309057602002820191906000526020600020906000905b82829054906101000a900463ffffffff1663ffffffff16815260200190600401906020826003010492830192600103820291508084116130535790505b50505050508152602001600a820180548060200260200160405190810160405280929190818152602001828054801561311457602002820191906000526020600020906000905b82829054906101000a900463ffffffff1663ffffffff16815260200190600401906020826003010492830192600103820291508084116130d75790505b5050509183525050600b8201546020820152600c8201546040820152600d8201546060820152600e8201546080820152600f82015460a0820152601082015460c0820152601182015460e08201526012820154610100820152601382015460ff1661012082015260148201546101408201526015820154610160820152601682015461018082015260178201546101a082015260188201546101c082015260198201546101e0820152601a820154610200820152601b820154610220820152601c820154610240820152601d909101546102609091015292915050565b6040805180820190915260008152606060208201526001600160a01b038216600090815260da602090815260409182902082518084018452815460ff1615158152600182018054855181860281018601909652808652919492938581019392908301828280156132ac57602002820191906000526020600020906000905b82829054906101000a900463ffffffff1663ffffffff168152602001906004019060208260030104928301926001038202915080841161326f5790505b5050505050815250509050919050565b6033546001600160a01b031633146112195760405162461bcd60e51b815260206004820181905260248201527f4f776e61626c653a2063616c6c6572206973206e6f7420746865206f776e65726044820152606401610ad1565b6000805160206156ba833981519152546001600160a01b031690565b610b5e6132bc565b7f4910fdfa16fed3260ed0e7147f7cc6da11a60208b5b9406d12a635614ffd91435460ff161561336d57610a0983614000565b826001600160a01b03166352d1902d6040518163ffffffff1660e01b8152600401602060405180830381865afa9250505080156133c7575060408051601f3d908101601f191682019092526133c491810190615604565b60015b61342a5760405162461bcd60e51b815260206004820152602e60248201527f45524331393637557067726164653a206e657720696d706c656d656e7461746960448201526d6f6e206973206e6f74205555505360901b6064820152608401610ad1565b6000805160206156ba83398151915281146134995760405162461bcd60e51b815260206004820152602960248201527f45524331393637557067726164653a20756e737570706f727465642070726f786044820152681a58589b195555525160ba1b6064820152608401610ad1565b50610a0983838361409a565b603380546001600160a01b038381166001600160a01b0319831681179093556040519116919082907f8be0079c531659141344cd1fd0a4f28419497f9722a3daafe3b4186f6b6457e090600090a35050565b60d95460009060ff16815b8160ff168160ff1610156124f45760ff8116600090815260dd602052604090206001015461018085015110801590613554575060ff8116600090815260dd60205260409020600201546101c085015110155b801561357a575060ff8116600090815260dd602052604090206003015461020085015110155b156135875780925061358c565b6124f4565b80613596816152fe565b915050613502565b6001600160a01b03163b151590565b600054610100900460ff166135d45760405162461bcd60e51b8152600401610ad19061561d565b6112196140bf565b600054610100900460ff166112195760405162461bcd60e51b8152600401610ad19061561d565b61012081015151600090818115611fec5760d45460019061362e906301000000900460ff16846155be565b61363891906152c0565b949350505050565b60008060c960009054906101000a90046001600160a01b03166001600160a01b031663e1aa60366040518163ffffffff1660e01b8152600401602060405180830381865afa158015613696573d6000803e3d6000fd5b505050506040513d601f19601f820116820180604052508101906136ba9190615604565b6136cc84670de0b6b3a76400006155be565b611fec9190615668565b600080670de0b6b3a764000060c960009054906101000a90046001600160a01b03166001600160a01b031663e1aa60366040518163ffffffff1660e01b8152600401602060405180830381865afa158015613735573d6000803e3d6000fd5b505050506040513d601f19601f820116820180604052508101906137599190615604565b6136cc90856155be565b63ffffffff838116600081815260dc6020908152604080832089861680855260db84529184208154600164ffffffffff1990911661010094850217811783558083018a905560d18054600285018054600160601b90920461ffff1661ffff19909216919091179055600384018a905560d254600480860191909155600684018054938401815588529590962060088083049091018054600790931690960290940a8089021990911696029590951790925582549194600160401b909204909116919061382e836153d9565b91906101000a81548163ffffffff021916908363ffffffff16021790555050505050505050565b60cb5463ffffffff8416600090815260db602052604090206201000090910460ff16906138838460026155be565b81601a01819055508381600b01600082825461389f91906155ab565b92505081905550838160170160008282546138ba91906155ab565b90915550600090505b82811015612ce957600782015463ffffffff908116600081815260db602052604081208054929390921690036138fa575050612ce9565b8260000361391c578681600d01600082825461391691906155ab565b90915550505b8681600f01600082825461393091906155ab565b909155505060d454610100900460ff161561395157613951818389896140ef565b61395b8787614783565b9250819050613969816155d5565b9150506138c3565b63ffffffff808216600090815260db6020908152604080832081516103e0810190925280549094168152600184018054939485949293909290840191906139b7906153fc565b80601f01602080910402602001604051908101604052809291908181526020018280546139e3906153fc565b8015613a305780601f10613a0557610100808354040283529160200191613a30565b820191906000526020600020905b815481529060010190602001808311613a1357829003601f168201915b5050509183525050600282015460ff811615156020808401919091526101009091046001600160a01b03166040808401919091526003840154606084015260048401546080840152600584015460a084015260068401805482518185028101850190935280835260c0909401939192909190830182828015613afd57602002820191906000526020600020906000905b82829054906101000a900463ffffffff1663ffffffff1681526020019060040190602082600301049283019260010382029150808411613ac05790505b5050509183525050600782015463ffffffff166020808301919091526008830180546040805182850281018501825282815294019392830182828015613b8e57602002820191906000526020600020906000905b82829054906101000a900463ffffffff1663ffffffff1681526020019060040190602082600301049283019260010382029150808411613b515790505b5050505050815260200160098201805480602002602001604051908101604052809291908181526020018280548015613c1257602002820191906000526020600020906000905b82829054906101000a900463ffffffff1663ffffffff1681526020019060040190602082600301049283019260010382029150808411613bd55790505b50505050508152602001600a8201805480602002602001604051908101604052809291908181526020018280548015613c9657602002820191906000526020600020906000905b82829054906101000a900463ffffffff1663ffffffff1681526020019060040190602082600301049283019260010382029150808411613c595790505b5050509183525050600b8201546020820152600c8201546040820152600d8201546060820152600e8201546080820152600f82015460a0820152601082015460c0820152601182015460e0808301919091526012830154610100830152601383015460ff1661012083015260148301546101408301526015830154610160830152601683015461018083015260178301546101a083015260188301546101c083015260198301546101e0830152601a830154610200830152601b830154610220830152601c830154610240830152601d909201546102609091015281015180519192509060005b818161ffff161015613e4f57600060dc6000858461ffff1681518110613da557613da5615294565b60209081029190910181015163ffffffff168252810191909152604001600090812060d25460cb5460d154600184015493955042949361ffff92831692613df492600160601b900416906155be565b613dfe9190615668565b613e089190615668565b90506000836003015483613e1c91906152c0565b9050613e2c8185600401546147bd565b613e3690836155be565b9850505050508080613e4790615594565b915050613d7d565b506103a0830151613e6090856152c0565b50505050919050565b63ffffffff8716600090815260db6020526040902060cb546003820184905560048201839055600c8201889055601582018790556018820185905560198201879055601a820186905560d45460ff620100009092048216911615613ee45760d154613ee4908a90600160401b900463ffffffff168a42613763565b60005b8160ff168160ff161015613fcc57600783015463ffffffff908116600081815260db60205260408120805492939092169003613f24575050613fcc565b8260ff16600003613f49578a81600e016000828254613f4391906155ab565b90915550505b8a816010016000828254613f5d91906155ab565b92505081905550806009018c90806001815401808255809150506001900390600052602060002090600891828204019190066004029091909190916101000a81548163ffffffff021916908363ffffffff16021790555080945050508080613fc4906152fe565b915050613ee7565b50505050505050505050565b600081601a015482601901541015613ff4578160190154613ffa565b81601a01545b92915050565b6140098161359e565b61406b5760405162461bcd60e51b815260206004820152602d60248201527f455243313936373a206e657720696d706c656d656e746174696f6e206973206e60448201526c1bdd08184818dbdb9d1c9858dd609a1b6064820152608401610ad1565b6000805160206156ba83398151915280546001600160a01b0319166001600160a01b0392909216919091179055565b6140a3836147d5565b6000825111806140b05750805b15610a0957610ef88383614815565b600054610100900460ff166140e65760405162461bcd60e51b8152600401610ad19061561d565b611219336134a5565b6013840154604080516103e08101909152855463ffffffff16815260018601805460ff909316926144e79291889160208401919061412c906153fc565b80601f0160208091040260200160405190810160405280929190818152602001828054614158906153fc565b80156141a55780601f1061417a576101008083540402835291602001916141a5565b820191906000526020600020905b81548152906001019060200180831161418857829003601f168201915b5050509183525050600282015460ff811615156020808401919091526101009091046001600160a01b03166040808401919091526003840154606084015260048401546080840152600584015460a084015260068401805482518185028101850190935280835260c090940193919290919083018282801561427257602002820191906000526020600020906000905b82829054906101000a900463ffffffff1663ffffffff16815260200190600401906020826003010492830192600103820291508084116142355790505b5050509183525050600782015463ffffffff16602080830191909152600883018054604080518285028101850182528281529401939283018282801561430357602002820191906000526020600020906000905b82829054906101000a900463ffffffff1663ffffffff16815260200190600401906020826003010492830192600103820291508084116142c65790505b505050505081526020016009820180548060200260200160405190810160405280929190818152602001828054801561438757602002820191906000526020600020906000905b82829054906101000a900463ffffffff1663ffffffff168152602001906004019060208260030104928301926001038202915080841161434a5790505b50505050508152602001600a820180548060200260200160405190810160405280929190818152602001828054801561440b57602002820191906000526020600020906000905b82829054906101000a900463ffffffff1663ffffffff16815260200190600401906020826003010492830192600103820291508084116143ce5790505b5050509183525050600b8201546020820152600c8201546040820152600d8201546060820152600e8201546080820152600f82015460a0820152601082015460c0820152601182015460e08201526012820154610100820152601382015460ff1661012082015260148201546101408201526015820154610160820152601682015461018082015260178201546101a082015260188201546101c082015260198201546101e0820152601a820154610200820152601b820154610220820152601c820154610240820152601d90910154610260909101526134f7565b60ff161115610ef857604080516103e08101909152845463ffffffff1681526001850180546145229291879160208401919061412c906153fc565b60138501805460ff191660ff9283169081178255600090815260dd6020908152604080832060099081018054600181810183559186529385206008850401805460079095166004026101000a63ffffffff81810219909616958c16029490941790935593549094168252929020015461459b91906152c0565b6014850181905560138501546040805163ffffffff87168152602081019390935260ff90911682820152517fb0d3a9c683344e744a1ae3db383f75a8a01851282c5fe97d6159c1392a2e2a0a9181900360600190a1604080516103e08101909152845463ffffffff16815260018501805460dd92600092614626928991602084019161412c906153fc565b60ff9081168252602082019290925260400160002060080154610100900416156146ea57604080516103e08101909152845463ffffffff16815260018501805460dd92600092614680928991602084019161412c906153fc565b60ff1660ff1681526020019081526020016000206007015484601201546146a791906155ab565b8111156146d657808460120181905550818460110160008282546146cb91906155ab565b90915550610ef89050565b818460110160008282546146cb91906155ab565b60d454610100900460ff1615610ef857601384015460ff16600090815260dd602052604090206005015461471f908590614907565b601384015460ff908116600090815260dd602090815260409182902060058101549054925192909316825263ffffffff8616917f94b6d3d19cc40938e685ef6a1f6476b53ef65295ab094a044e74405a8d0bd05b910160405180910390a350505050565b60d75460d65461479391906155ab565b8111156147a25760d65560d555565b8160d560008282546147b491906155ab565b90915550505050565b6000818311156147ce575080613ffa565b5090919050565b6147de81614000565b6040516001600160a01b038216907fbc7cd75a20ee27fd9adebab32041f755214dbc6bffa90cc0225b39da2e5c2d3b90600090a250565b60606148208361359e565b61487b5760405162461bcd60e51b815260206004820152602660248201527f416464726573733a2064656c65676174652063616c6c20746f206e6f6e2d636f6044820152651b9d1c9858dd60d21b6064820152608401610ad1565b600080846001600160a01b031684604051614896919061568a565b600060405180830381855af49150503d80600081146148d1576040519150601f19603f3d011682016040523d82523d6000602084013e6148d6565b606091505b50915091506148fe82826040518060600160405280602781526020016156da6027913961493f565b95945050505050565b81601a015481836019015461491c91906155ab565b1061492f57601a82015460198301555050565b808260190154610a0991906155ab565b6060831561494e575081611fec565b611fec83838151156149635781518083602001fd5b8060405162461bcd60e51b8152600401610ad191906156a6565b82805482825590600052602060002090600701600890048101928215614a1c5791602002820160005b838211156149ea57835183826101000a81548163ffffffff021916908363ffffffff16021790555092602001926004016020816003010492830192600103026149a6565b8015614a1a5782816101000a81549063ffffffff02191690556004016020816003010492830192600103026149ea565b505b50614a28929150614ac2565b5090565b82805482825590600052602060002090600f01601090048101928215614a1c5791602002820160005b83821115614a9457835183826101000a81548161ffff021916908360ff1602179055509260200192600201602081600101049283019260010302614a55565b8015614a1a5782816101000a81549061ffff0219169055600201602081600101049283019260010302614a94565b5b80821115614a285760008155600101614ac3565b80356001600160a01b0381168114614aee57600080fd5b919050565b60008060408385031215614b0657600080fd5b614b0f83614ad7565b946020939093013593505050565b600060208284031215614b2f57600080fd5b611fec82614ad7565b600060208284031215614b4a57600080fd5b5035919050565b60008083601f840112614b6357600080fd5b5081356001600160401b03811115614b7a57600080fd5b6020830191508360208260051b8501011115614b9557600080fd5b9250929050565b60008060208385031215614baf57600080fd5b82356001600160401b03811115614bc557600080fd5b614bd185828601614b51565b90969095509350505050565b634e487b7160e01b600052604160045260246000fd5b604051601f8201601f191681016001600160401b0381118282101715614c1b57614c1b614bdd565b604052919050565b60006001600160401b03831115614c3c57614c3c614bdd565b614c4f601f8401601f1916602001614bf3565b9050828152838383011115614c6357600080fd5b828260208301376000602084830101529392505050565b60008060408385031215614c8d57600080fd5b614c9683614ad7565b915060208301356001600160401b03811115614cb157600080fd5b8301601f81018513614cc257600080fd5b614cd185823560208401614c23565b9150509250929050565b803563ffffffff81168114614aee57600080fd5b600060208284031215614d0157600080fd5b611fec82614cdb565b60008060008060008060006080888a031215614d2557600080fd5b6001600160401b038089351115614d3b57600080fd5b614d488a8a358b01614b51565b90985096506020890135811015614d5e57600080fd5b614d6e8a60208b01358b01614b51565b90965094506040890135811015614d8457600080fd5b614d948a60408b01358b01614b51565b90945092506060890135811015614daa57600080fd5b606089013589018a601f820112614dc057600080fd5b8181351115614dd157614dd1614bdd565b614de16020823560051b01614bf3565b81358082526020808301929160051b8401018d811115614e0057600080fd5b602084015b81811015614e51578581351115614e1b57600080fd5b8e603f823587010112614e2d57600080fd5b614e438f82358701602081013590604001614c23565b845260209384019301614e05565b50508094505050505092959891949750929550565b60008060008060008060008060008060008060c08d8f031215614e8857600080fd5b6001600160401b038d351115614e9d57600080fd5b614eaa8e8e358f01614b51565b909c509a506001600160401b0360208e01351115614ec757600080fd5b614ed78e60208f01358f01614b51565b909a5098506001600160401b0360408e01351115614ef457600080fd5b614f048e60408f01358f01614b51565b90985096506001600160401b0360608e01351115614f2157600080fd5b614f318e60608f01358f01614b51565b90965094506001600160401b0360808e01351115614f4e57600080fd5b614f5e8e60808f01358f01614b51565b90945092506001600160401b0360a08e01351115614f7b57600080fd5b614f8b8e60a08f01358f01614b51565b81935080925050509295989b509295989b509295989b565b60008060408385031215614fb657600080fd5b614b0f83614cdb565b60005b83811015614fda578181015183820152602001614fc2565b50506000910152565b60008151808452614ffb816020860160208601614fbf565b601f01601f19169290920160200192915050565b600081518084526020808501945080840160005b8381101561504557815163ffffffff1687529582019590820190600101615023565b509495945050505050565b6020815261506760208201835163ffffffff169052565b600060208301516103e0806040850152615085610400850183614fe3565b9150604085015161509a606086018215159052565b5060608501516001600160a01b038116608086015250608085015160a085015260a085015160c085015260c085015160e085015260e0850151601f196101008187860301818801526150ec858461500f565b9450808801519250506101206151098188018463ffffffff169052565b80880151925050610140818786030181880152615126858461500f565b945080880151925050610160818786030181880152615145858461500f565b945080880151925050610180818786030181880152615164858461500f565b908801516101a0888101919091528801516101c0808901919091528801516101e080890191909152880151610200808901919091528801516102208089019190915288015161024080890191909152880151610260808901919091528801516102808089019190915288015190945091506102a090506151e88187018360ff169052565b8601516102c0868101919091528601516102e08087019190915286015161030080870191909152860151610320808701919091528601516103408087019190915286015161036080870191909152860151610380808701919091528601516103a0808701919091528601516103c0808701919091529095015193019290925250919050565b6020815281511515602082015260006020830151604080840152613638606084018261500f565b634e487b7160e01b600052603260045260246000fd5b634e487b7160e01b600052601160045260246000fd5b81810381811115613ffa57613ffa6152aa565b6020808252601190820152702cb7ba9030b932903737ba1030b236b4b760791b604082015260600190565b600060ff821660ff8103615314576153146152aa565b60010192915050565b6020808252602c908201527f46756e6374696f6e206d7573742062652063616c6c6564207468726f7567682060408201526b19195b1959d85d1958d85b1b60a21b606082015260800190565b6020808252602c908201527f46756e6374696f6e206d7573742062652063616c6c6564207468726f7567682060408201526b6163746976652070726f787960a01b606082015260800190565b63ffffffff8181168382160190808211156153d2576153d26152aa565b5092915050565b600063ffffffff8083168181036153f2576153f26152aa565b6001019392505050565b600181811c9082168061541057607f821691505b60208210810361543057634e487b7160e01b600052602260045260246000fd5b50919050565b60006020828403121561544857600080fd5b81518015158114611fec57600080fd5b6020808252601d908201527f596f7520617265206e6f74206f776e6572206f6620746869732069642e000000604082015260600190565b601f821115610a0957600081815260208120601f850160051c810160208610156154b65750805b601f850160051c820191505b81811015612ce9578281556001016154c2565b81516001600160401b038111156154ee576154ee614bdd565b615502816154fc84546153fc565b8461548f565b602080601f831160018114615537576000841561551f5750858301515b600019600386901b1c1916600185901b178555612ce9565b600085815260208120601f198616915b8281101561556657888601518255948401946001909101908401615547565b50858210156155845787850151600019600388901b60f8161c191681555b5050505050600190811b01905550565b600061ffff8083168181036153f2576153f26152aa565b80820180821115613ffa57613ffa6152aa565b8082028115828204841417613ffa57613ffa6152aa565b6000600182016155e7576155e76152aa565b5060010190565b634e487b7160e01b600052603160045260246000fd5b60006020828403121561561657600080fd5b5051919050565b6020808252602b908201527f496e697469616c697a61626c653a20636f6e7472616374206973206e6f74206960408201526a6e697469616c697a696e6760a81b606082015260800190565b60008261568557634e487b7160e01b600052601260045260246000fd5b500490565b6000825161569c818460208701614fbf565b9190910192915050565b602081526000611fec6020830184614fe356fe360894a13ba1a3210667c828492db98dca3e2076cc3735a920a3ca505d382bbc416464726573733a206c6f772d6c6576656c2064656c65676174652063616c6c206661696c6564a26469706673582212206e69caabe36098d9a1c4428bbeb0175eb077db06b05f51d012efeb5f7090a7bf64736f6c63430008110033","opcodes":"PUSH1 0xA0 PUSH1 0x40 MSTORE ADDRESS PUSH1 0x80 MSTORE CALLVALUE DUP1 ISZERO PUSH2 0x14 JUMPI PUSH1 0x0 DUP1 REVERT JUMPDEST POP PUSH1 0x80 MLOAD PUSH2 0x5736 PUSH3 0x4D PUSH1 0x0 CODECOPY PUSH1 0x0 DUP2 DUP2 PUSH2 0xB6B ADD MSTORE DUP2 DUP2 PUSH2 0xBAB ADD MSTORE DUP2 DUP2 PUSH2 0xF7B ADD MSTORE DUP2 DUP2 PUSH2 0xFBB ADD MSTORE PUSH2 0x1033 ADD MSTORE PUSH2 0x5736 PUSH1 0x0 RETURN INVALID PUSH1 0x80 PUSH1 0x40 MSTORE PUSH1 0x4 CALLDATASIZE LT PUSH2 0x278 JUMPI PUSH1 0x0 CALLDATALOAD PUSH1 0xE0 SHR DUP1 PUSH4 0x7F2F4A91 GT PUSH2 0x150 JUMPI DUP1 PUSH4 0xBF46DE63 GT PUSH2 0xBC JUMPI DUP1 PUSH4 0xBF46DE63 EQ PUSH2 0x73B JUMPI DUP1 PUSH4 0xBFF1F9E1 EQ PUSH2 0x75B JUMPI DUP1 PUSH4 0xC3AB5EBF EQ PUSH2 0x778 JUMPI DUP1 PUSH4 0xDB003B2A EQ PUSH2 0x889 JUMPI DUP1 PUSH4 0xE52356F3 EQ PUSH2 0x8A9 JUMPI DUP1 PUSH4 0xE5682E38 EQ PUSH2 0x8C9 JUMPI DUP1 PUSH4 0xEA62F715 EQ PUSH2 0x8DC JUMPI DUP1 PUSH4 0xF2FDE38B EQ PUSH2 0x8FC JUMPI DUP1 PUSH4 0xF31A2D0F EQ PUSH2 0x91C JUMPI DUP1 PUSH4 0xF41BFEEF EQ PUSH2 0x93C JUMPI DUP1 PUSH4 0xF830E57B EQ PUSH2 0x952 JUMPI DUP1 PUSH4 0xFAFC9597 EQ PUSH2 0x97F JUMPI DUP1 PUSH4 0xFB47E016 EQ PUSH2 0x99E JUMPI PUSH1 0x0 DUP1 REVERT JUMPDEST DUP1 PUSH4 0x7F2F4A91 EQ PUSH2 0x5C1 JUMPI DUP1 PUSH4 0x8129FC1C EQ PUSH2 0x5E1 JUMPI DUP1 PUSH4 0x8DA5CB5B EQ PUSH2 0x5F6 JUMPI DUP1 PUSH4 0x8DF05D9C EQ PUSH2 0x614 JUMPI DUP1 PUSH4 0x96ED6B85 EQ PUSH2 0x634 JUMPI DUP1 PUSH4 0x9F4E8398 EQ PUSH2 0x64A JUMPI DUP1 PUSH4 0xA0B6105F EQ PUSH2 0x66A JUMPI DUP1 PUSH4 0xA1B80175 EQ PUSH2 0x68A JUMPI DUP1 PUSH4 0xA28A3686 EQ PUSH2 0x6AE JUMPI DUP1 PUSH4 0xAF2F39D1 EQ PUSH2 0x6CE JUMPI DUP1 PUSH4 0xB47181D3 EQ PUSH2 0x6E8 JUMPI DUP1 PUSH4 0xB92D18C1 EQ PUSH2 0x708 JUMPI DUP1 PUSH4 0xBC09161B EQ PUSH2 0x71B JUMPI PUSH1 0x0 DUP1 REVERT JUMPDEST DUP1 PUSH4 0x3659CFE6 GT PUSH2 0x1EF JUMPI DUP1 PUSH4 0x3659CFE6 EQ PUSH2 0x416 JUMPI DUP1 PUSH4 0x49B32504 EQ PUSH2 0x436 JUMPI DUP1 PUSH4 0x4F1EF286 EQ PUSH2 0x456 JUMPI DUP1 PUSH4 0x52D1902D EQ PUSH2 0x469 JUMPI DUP1 PUSH4 0x538FFE0C EQ PUSH2 0x47E JUMPI DUP1 PUSH4 0x5E701D86 EQ PUSH2 0x4C7 JUMPI DUP1 PUSH4 0x6DC8AFC5 EQ PUSH2 0x500 JUMPI DUP1 PUSH4 0x704B6C02 EQ PUSH2 0x516 JUMPI DUP1 PUSH4 0x70D9E081 EQ PUSH2 0x536 JUMPI DUP1 PUSH4 0x715018A6 EQ PUSH2 0x556 JUMPI DUP1 PUSH4 0x76A68E84 EQ PUSH2 0x56B JUMPI DUP1 PUSH4 0x7879B5EF EQ PUSH2 0x58B JUMPI DUP1 PUSH4 0x7A026935 EQ PUSH2 0x5AB JUMPI PUSH1 0x0 DUP1 REVERT JUMPDEST DUP1 PUSH4 0x9DE82CD EQ PUSH2 0x284 JUMPI DUP1 PUSH4 0xB243DAD EQ PUSH2 0x2AD JUMPI DUP1 PUSH4 0xEFDBB6A EQ PUSH2 0x2CF JUMPI DUP1 PUSH4 0x14BFD6D0 EQ PUSH2 0x2EF JUMPI DUP1 PUSH4 0x18E10BFF EQ PUSH2 0x327 JUMPI DUP1 PUSH4 0x1DC209FF EQ PUSH2 0x353 JUMPI DUP1 PUSH4 0x1F7F83BA EQ PUSH2 0x369 JUMPI DUP1 PUSH4 0x22F88B52 EQ PUSH2 0x389 JUMPI DUP1 PUSH4 0x2913497B EQ PUSH2 0x39F JUMPI DUP1 PUSH4 0x2ED421D2 EQ PUSH2 0x3BD JUMPI DUP1 PUSH4 0x313CE567 EQ PUSH2 0x3D3 JUMPI DUP1 PUSH4 0x35759788 EQ PUSH2 0x401 JUMPI PUSH1 0x0 DUP1 REVERT JUMPDEST CALLDATASIZE PUSH2 0x27F JUMPI STOP JUMPDEST PUSH1 0x0 DUP1 REVERT JUMPDEST CALLVALUE DUP1 ISZERO PUSH2 0x290 JUMPI PUSH1 0x0 DUP1 REVERT JUMPDEST POP PUSH2 0x29A PUSH1 0xCE SLOAD DUP2 JUMP JUMPDEST PUSH1 0x40 MLOAD SWAP1 DUP2 MSTORE PUSH1 0x20 ADD JUMPDEST PUSH1 0x40 MLOAD DUP1 SWAP2 SUB SWAP1 RETURN JUMPDEST CALLVALUE DUP1 ISZERO PUSH2 0x2B9 JUMPI PUSH1 0x0 DUP1 REVERT JUMPDEST POP PUSH2 0x2CD PUSH2 0x2C8 CALLDATASIZE PUSH1 0x4 PUSH2 0x4AF3 JUMP JUMPDEST PUSH2 0x9CB JUMP JUMPDEST STOP JUMPDEST CALLVALUE DUP1 ISZERO PUSH2 0x2DB JUMPI PUSH1 0x0 DUP1 REVERT JUMPDEST POP PUSH2 0x2CD PUSH2 0x2EA CALLDATASIZE PUSH1 0x4 PUSH2 0x4B1D JUMP JUMPDEST PUSH2 0xA0E JUMP JUMPDEST CALLVALUE DUP1 ISZERO PUSH2 0x2FB JUMPI PUSH1 0x0 DUP1 REVERT JUMPDEST POP PUSH2 0x30F PUSH2 0x30A CALLDATASIZE PUSH1 0x4 PUSH2 0x4B38 JUMP JUMPDEST PUSH2 0xAF0 JUMP JUMPDEST PUSH1 0x40 MLOAD PUSH1 0x1 PUSH1 0x1 PUSH1 0xA0 SHL SUB SWAP1 SWAP2 AND DUP2 MSTORE PUSH1 0x20 ADD PUSH2 0x2A4 JUMP JUMPDEST CALLVALUE DUP1 ISZERO PUSH2 0x333 JUMPI PUSH1 0x0 DUP1 REVERT JUMPDEST POP PUSH1 0xD9 SLOAD PUSH2 0x341 SWAP1 PUSH1 0xFF AND DUP2 JUMP JUMPDEST PUSH1 0x40 MLOAD PUSH1 0xFF SWAP1 SWAP2 AND DUP2 MSTORE PUSH1 0x20 ADD PUSH2 0x2A4 JUMP JUMPDEST CALLVALUE DUP1 ISZERO PUSH2 0x35F JUMPI PUSH1 0x0 DUP1 REVERT JUMPDEST POP PUSH2 0x29A PUSH1 0xCF SLOAD DUP2 JUMP JUMPDEST CALLVALUE DUP1 ISZERO PUSH2 0x375 JUMPI PUSH1 0x0 DUP1 REVERT JUMPDEST POP PUSH2 0x30F PUSH2 0x384 CALLDATASIZE PUSH1 0x4 PUSH2 0x4B38 JUMP JUMPDEST PUSH2 0xB1A JUMP JUMPDEST CALLVALUE DUP1 ISZERO PUSH2 0x395 JUMPI PUSH1 0x0 DUP1 REVERT JUMPDEST POP PUSH2 0x29A PUSH1 0xD5 SLOAD DUP2 JUMP JUMPDEST CALLVALUE DUP1 ISZERO PUSH2 0x3AB JUMPI PUSH1 0x0 DUP1 REVERT JUMPDEST POP PUSH1 0xC9 SLOAD PUSH1 0x1 PUSH1 0x1 PUSH1 0xA0 SHL SUB AND PUSH2 0x30F JUMP JUMPDEST CALLVALUE DUP1 ISZERO PUSH2 0x3C9 JUMPI PUSH1 0x0 DUP1 REVERT JUMPDEST POP PUSH2 0x29A PUSH1 0xD6 SLOAD DUP2 JUMP JUMPDEST CALLVALUE DUP1 ISZERO PUSH2 0x3DF JUMPI PUSH1 0x0 DUP1 REVERT JUMPDEST POP PUSH1 0xCB SLOAD PUSH2 0x3EE SWAP1 PUSH2 0xFFFF AND DUP2 JUMP JUMPDEST PUSH1 0x40 MLOAD PUSH2 0xFFFF SWAP1 SWAP2 AND DUP2 MSTORE PUSH1 0x20 ADD PUSH2 0x2A4 JUMP JUMPDEST CALLVALUE DUP1 ISZERO PUSH2 0x40D JUMPI PUSH1 0x0 DUP1 REVERT JUMPDEST POP PUSH2 0x2CD PUSH2 0xB2A JUMP JUMPDEST CALLVALUE DUP1 ISZERO PUSH2 0x422 JUMPI PUSH1 0x0 DUP1 REVERT JUMPDEST POP PUSH2 0x2CD PUSH2 0x431 CALLDATASIZE PUSH1 0x4 PUSH2 0x4B1D JUMP JUMPDEST PUSH2 0xB61 JUMP JUMPDEST CALLVALUE DUP1 ISZERO PUSH2 0x442 JUMPI PUSH1 0x0 DUP1 REVERT JUMPDEST POP PUSH2 0x2CD PUSH2 0x451 CALLDATASIZE PUSH1 0x4 PUSH2 0x4B9C JUMP JUMPDEST PUSH2 0xC26 JUMP JUMPDEST PUSH2 0x2CD PUSH2 0x464 CALLDATASIZE PUSH1 0x4 PUSH2 0x4C7A JUMP JUMPDEST PUSH2 0xF71 JUMP JUMPDEST CALLVALUE DUP1 ISZERO PUSH2 0x475 JUMPI PUSH1 0x0 DUP1 REVERT JUMPDEST POP PUSH2 0x29A PUSH2 0x1026 JUMP JUMPDEST CALLVALUE DUP1 ISZERO PUSH2 0x48A JUMPI PUSH1 0x0 DUP1 REVERT JUMPDEST POP PUSH2 0x4B7 PUSH2 0x499 CALLDATASIZE PUSH1 0x4 PUSH2 0x4B1D JUMP JUMPDEST PUSH1 0x1 PUSH1 0x1 PUSH1 0xA0 SHL SUB AND PUSH1 0x0 SWAP1 DUP2 MSTORE PUSH1 0xDA PUSH1 0x20 MSTORE PUSH1 0x40 SWAP1 KECCAK256 SLOAD PUSH1 0xFF AND SWAP1 JUMP JUMPDEST PUSH1 0x40 MLOAD SWAP1 ISZERO ISZERO DUP2 MSTORE PUSH1 0x20 ADD PUSH2 0x2A4 JUMP JUMPDEST CALLVALUE DUP1 ISZERO PUSH2 0x4D3 JUMPI PUSH1 0x0 DUP1 REVERT JUMPDEST POP PUSH1 0xD1 SLOAD PUSH2 0x4EB SWAP1 PUSH1 0x1 PUSH1 0x20 SHL SWAP1 DIV PUSH4 0xFFFFFFFF AND DUP2 JUMP JUMPDEST PUSH1 0x40 MLOAD PUSH4 0xFFFFFFFF SWAP1 SWAP2 AND DUP2 MSTORE PUSH1 0x20 ADD PUSH2 0x2A4 JUMP JUMPDEST CALLVALUE DUP1 ISZERO PUSH2 0x50C JUMPI PUSH1 0x0 DUP1 REVERT JUMPDEST POP PUSH2 0x29A PUSH1 0xD0 SLOAD DUP2 JUMP JUMPDEST CALLVALUE DUP1 ISZERO PUSH2 0x522 JUMPI PUSH1 0x0 DUP1 REVERT JUMPDEST POP PUSH2 0x2CD PUSH2 0x531 CALLDATASIZE PUSH1 0x4 PUSH2 0x4B1D JUMP JUMPDEST PUSH2 0x10D4 JUMP JUMPDEST CALLVALUE DUP1 ISZERO PUSH2 0x542 JUMPI PUSH1 0x0 DUP1 REVERT JUMPDEST POP PUSH2 0x2CD PUSH2 0x551 CALLDATASIZE PUSH1 0x4 PUSH2 0x4CEF JUMP JUMPDEST PUSH2 0x112E JUMP JUMPDEST CALLVALUE DUP1 ISZERO PUSH2 0x562 JUMPI PUSH1 0x0 DUP1 REVERT JUMPDEST POP PUSH2 0x2CD PUSH2 0x1207 JUMP JUMPDEST CALLVALUE DUP1 ISZERO PUSH2 0x577 JUMPI PUSH1 0x0 DUP1 REVERT JUMPDEST POP PUSH2 0x29A PUSH2 0x586 CALLDATASIZE PUSH1 0x4 PUSH2 0x4CEF JUMP JUMPDEST PUSH2 0x121B JUMP JUMPDEST CALLVALUE DUP1 ISZERO PUSH2 0x597 JUMPI PUSH1 0x0 DUP1 REVERT JUMPDEST POP PUSH2 0x3EE PUSH2 0x5A6 CALLDATASIZE PUSH1 0x4 PUSH2 0x4B38 JUMP JUMPDEST PUSH2 0x162C JUMP JUMPDEST CALLVALUE DUP1 ISZERO PUSH2 0x5B7 JUMPI PUSH1 0x0 DUP1 REVERT JUMPDEST POP PUSH2 0x29A PUSH1 0xCD SLOAD DUP2 JUMP JUMPDEST CALLVALUE DUP1 ISZERO PUSH2 0x5CD JUMPI PUSH1 0x0 DUP1 REVERT JUMPDEST POP PUSH2 0x2CD PUSH2 0x5DC CALLDATASIZE PUSH1 0x4 PUSH2 0x4B9C JUMP JUMPDEST PUSH2 0x1664 JUMP JUMPDEST CALLVALUE DUP1 ISZERO PUSH2 0x5ED JUMPI PUSH1 0x0 DUP1 REVERT JUMPDEST POP PUSH2 0x2CD PUSH2 0x17AB JUMP JUMPDEST CALLVALUE DUP1 ISZERO PUSH2 0x602 JUMPI PUSH1 0x0 DUP1 REVERT JUMPDEST POP PUSH1 0x33 SLOAD PUSH1 0x1 PUSH1 0x1 PUSH1 0xA0 SHL SUB AND PUSH2 0x30F JUMP JUMPDEST CALLVALUE DUP1 ISZERO PUSH2 0x620 JUMPI PUSH1 0x0 DUP1 REVERT JUMPDEST POP PUSH1 0xCB SLOAD PUSH2 0x341 SWAP1 PUSH3 0x10000 SWAP1 DIV PUSH1 0xFF AND DUP2 JUMP JUMPDEST CALLVALUE DUP1 ISZERO PUSH2 0x640 JUMPI PUSH1 0x0 DUP1 REVERT JUMPDEST POP PUSH2 0x29A PUSH1 0xCC SLOAD DUP2 JUMP JUMPDEST CALLVALUE DUP1 ISZERO PUSH2 0x656 JUMPI PUSH1 0x0 DUP1 REVERT JUMPDEST POP PUSH2 0x2CD PUSH2 0x665 CALLDATASIZE PUSH1 0x4 PUSH2 0x4B1D JUMP JUMPDEST PUSH2 0x1A50 JUMP JUMPDEST CALLVALUE DUP1 ISZERO PUSH2 0x676 JUMPI PUSH1 0x0 DUP1 REVERT JUMPDEST POP PUSH2 0x2CD PUSH2 0x685 CALLDATASIZE PUSH1 0x4 PUSH2 0x4AF3 JUMP JUMPDEST PUSH2 0x1B6C JUMP JUMPDEST CALLVALUE DUP1 ISZERO PUSH2 0x696 JUMPI PUSH1 0x0 DUP1 REVERT JUMPDEST POP PUSH1 0xD1 SLOAD PUSH2 0x4EB SWAP1 PUSH1 0x1 PUSH1 0x40 SHL SWAP1 DIV PUSH4 0xFFFFFFFF AND DUP2 JUMP JUMPDEST CALLVALUE DUP1 ISZERO PUSH2 0x6BA JUMPI PUSH1 0x0 DUP1 REVERT JUMPDEST POP PUSH1 0xD4 SLOAD PUSH2 0x341 SWAP1 PUSH3 0x10000 SWAP1 DIV PUSH1 0xFF AND DUP2 JUMP JUMPDEST CALLVALUE DUP1 ISZERO PUSH2 0x6DA JUMPI PUSH1 0x0 DUP1 REVERT JUMPDEST POP PUSH1 0xD4 SLOAD PUSH2 0x4B7 SWAP1 PUSH1 0xFF AND DUP2 JUMP JUMPDEST CALLVALUE DUP1 ISZERO PUSH2 0x6F4 JUMPI PUSH1 0x0 DUP1 REVERT JUMPDEST POP PUSH2 0x29A PUSH2 0x703 CALLDATASIZE PUSH1 0x4 PUSH2 0x4CEF JUMP JUMPDEST PUSH2 0x1BE5 JUMP JUMPDEST PUSH2 0x2CD PUSH2 0x716 CALLDATASIZE PUSH1 0x4 PUSH2 0x4CEF JUMP JUMPDEST PUSH2 0x1FF3 JUMP JUMPDEST CALLVALUE DUP1 ISZERO PUSH2 0x727 JUMPI PUSH1 0x0 DUP1 REVERT JUMPDEST POP PUSH2 0x2CD PUSH2 0x736 CALLDATASIZE PUSH1 0x4 PUSH2 0x4D0A JUMP JUMPDEST PUSH2 0x210B JUMP JUMPDEST CALLVALUE DUP1 ISZERO PUSH2 0x747 JUMPI PUSH1 0x0 DUP1 REVERT JUMPDEST POP PUSH2 0x29A PUSH2 0x756 CALLDATASIZE PUSH1 0x4 PUSH2 0x4CEF JUMP JUMPDEST PUSH2 0x2497 JUMP JUMPDEST CALLVALUE DUP1 ISZERO PUSH2 0x767 JUMPI PUSH1 0x0 DUP1 REVERT JUMPDEST POP PUSH1 0xD1 SLOAD PUSH2 0x4EB SWAP1 PUSH4 0xFFFFFFFF AND DUP2 JUMP JUMPDEST CALLVALUE DUP1 ISZERO PUSH2 0x784 JUMPI PUSH1 0x0 DUP1 REVERT JUMPDEST POP PUSH2 0x831 PUSH2 0x793 CALLDATASIZE PUSH1 0x4 PUSH2 0x4CEF JUMP JUMPDEST PUSH1 0x40 DUP1 MLOAD PUSH1 0xC0 DUP2 ADD DUP3 MSTORE PUSH1 0x0 DUP1 DUP3 MSTORE PUSH1 0x20 DUP3 ADD DUP2 SWAP1 MSTORE SWAP2 DUP2 ADD DUP3 SWAP1 MSTORE PUSH1 0x60 DUP2 ADD DUP3 SWAP1 MSTORE PUSH1 0x80 DUP2 ADD DUP3 SWAP1 MSTORE PUSH1 0xA0 DUP2 ADD SWAP2 SWAP1 SWAP2 MSTORE POP PUSH4 0xFFFFFFFF SWAP1 DUP2 AND PUSH1 0x0 SWAP1 DUP2 MSTORE PUSH1 0xDC PUSH1 0x20 SWAP1 DUP2 MSTORE PUSH1 0x40 SWAP2 DUP3 SWAP1 KECCAK256 DUP3 MLOAD PUSH1 0xC0 DUP2 ADD DUP5 MSTORE DUP2 SLOAD PUSH1 0xFF DUP2 AND ISZERO ISZERO DUP3 MSTORE PUSH2 0x100 SWAP1 DIV SWAP1 SWAP5 AND SWAP2 DUP5 ADD SWAP2 SWAP1 SWAP2 MSTORE PUSH1 0x1 DUP2 ADD SLOAD SWAP2 DUP4 ADD SWAP2 SWAP1 SWAP2 MSTORE PUSH1 0x2 DUP2 ADD SLOAD PUSH2 0xFFFF AND PUSH1 0x60 DUP4 ADD MSTORE PUSH1 0x3 DUP2 ADD SLOAD PUSH1 0x80 DUP4 ADD MSTORE PUSH1 0x4 ADD SLOAD PUSH1 0xA0 DUP3 ADD MSTORE SWAP1 JUMP JUMPDEST PUSH1 0x40 MLOAD PUSH2 0x2A4 SWAP2 SWAP1 PUSH1 0x0 PUSH1 0xC0 DUP3 ADD SWAP1 POP DUP3 MLOAD ISZERO ISZERO DUP3 MSTORE PUSH4 0xFFFFFFFF PUSH1 0x20 DUP5 ADD MLOAD AND PUSH1 0x20 DUP4 ADD MSTORE PUSH1 0x40 DUP4 ADD MLOAD PUSH1 0x40 DUP4 ADD MSTORE PUSH2 0xFFFF PUSH1 0x60 DUP5 ADD MLOAD AND PUSH1 0x60 DUP4 ADD MSTORE PUSH1 0x80 DUP4 ADD MLOAD PUSH1 0x80 DUP4 ADD MSTORE PUSH1 0xA0 DUP4 ADD MLOAD PUSH1 0xA0 DUP4 ADD MSTORE SWAP3 SWAP2 POP POP JUMP JUMPDEST CALLVALUE DUP1 ISZERO PUSH2 0x895 JUMPI PUSH1 0x0 DUP1 REVERT JUMPDEST POP PUSH2 0x2CD PUSH2 0x8A4 CALLDATASIZE PUSH1 0x4 PUSH2 0x4E66 JUMP JUMPDEST PUSH2 0x24FB JUMP JUMPDEST CALLVALUE DUP1 ISZERO PUSH2 0x8B5 JUMPI PUSH1 0x0 DUP1 REVERT JUMPDEST POP PUSH2 0x2CD PUSH2 0x8C4 CALLDATASIZE PUSH1 0x4 PUSH2 0x4B1D JUMP JUMPDEST PUSH2 0x2716 JUMP JUMPDEST PUSH2 0x2CD PUSH2 0x8D7 CALLDATASIZE PUSH1 0x4 PUSH2 0x4CEF JUMP JUMPDEST PUSH2 0x28EB JUMP JUMPDEST CALLVALUE DUP1 ISZERO PUSH2 0x8E8 JUMPI PUSH1 0x0 DUP1 REVERT JUMPDEST POP PUSH2 0x29A PUSH2 0x8F7 CALLDATASIZE PUSH1 0x4 PUSH2 0x4CEF JUMP JUMPDEST PUSH2 0x2A48 JUMP JUMPDEST CALLVALUE DUP1 ISZERO PUSH2 0x908 JUMPI PUSH1 0x0 DUP1 REVERT JUMPDEST POP PUSH2 0x2CD PUSH2 0x917 CALLDATASIZE PUSH1 0x4 PUSH2 0x4B1D JUMP JUMPDEST PUSH2 0x2B5F JUMP JUMPDEST CALLVALUE DUP1 ISZERO PUSH2 0x928 JUMPI PUSH1 0x0 DUP1 REVERT JUMPDEST POP PUSH2 0x2CD PUSH2 0x937 CALLDATASIZE PUSH1 0x4 PUSH2 0x4FA3 JUMP JUMPDEST PUSH2 0x2BD5 JUMP JUMPDEST CALLVALUE DUP1 ISZERO PUSH2 0x948 JUMPI PUSH1 0x0 DUP1 REVERT JUMPDEST POP PUSH2 0x29A PUSH1 0xD7 SLOAD DUP2 JUMP JUMPDEST CALLVALUE DUP1 ISZERO PUSH2 0x95E JUMPI PUSH1 0x0 DUP1 REVERT JUMPDEST POP PUSH2 0x972 PUSH2 0x96D CALLDATASIZE PUSH1 0x4 PUSH2 0x4CEF JUMP JUMPDEST PUSH2 0x2CF1 JUMP JUMPDEST PUSH1 0x40 MLOAD PUSH2 0x2A4 SWAP2 SWAP1 PUSH2 0x5050 JUMP JUMPDEST CALLVALUE DUP1 ISZERO PUSH2 0x98B JUMPI PUSH1 0x0 DUP1 REVERT JUMPDEST POP PUSH1 0xD4 SLOAD PUSH2 0x4B7 SWAP1 PUSH2 0x100 SWAP1 DIV PUSH1 0xFF AND DUP2 JUMP JUMPDEST CALLVALUE DUP1 ISZERO PUSH2 0x9AA JUMPI PUSH1 0x0 DUP1 REVERT JUMPDEST POP PUSH2 0x9BE PUSH2 0x9B9 CALLDATASIZE PUSH1 0x4 PUSH2 0x4B1D JUMP JUMPDEST PUSH2 0x31F1 JUMP JUMPDEST PUSH1 0x40 MLOAD PUSH2 0x2A4 SWAP2 SWAP1 PUSH2 0x526D JUMP JUMPDEST PUSH2 0x9D3 PUSH2 0x32BC JUMP JUMPDEST PUSH1 0x40 MLOAD PUSH1 0x1 PUSH1 0x1 PUSH1 0xA0 SHL SUB DUP4 AND SWAP1 DUP3 ISZERO PUSH2 0x8FC MUL SWAP1 DUP4 SWAP1 PUSH1 0x0 DUP2 DUP2 DUP2 DUP6 DUP9 DUP9 CALL SWAP4 POP POP POP POP ISZERO DUP1 ISZERO PUSH2 0xA09 JUMPI RETURNDATASIZE PUSH1 0x0 DUP1 RETURNDATACOPY RETURNDATASIZE PUSH1 0x0 REVERT JUMPDEST POP POP POP JUMP JUMPDEST PUSH1 0x0 JUMPDEST PUSH1 0xDE SLOAD PUSH1 0xFF DUP3 AND LT ISZERO PUSH2 0xAEC JUMPI PUSH1 0xDE DUP2 PUSH1 0xFF AND DUP2 SLOAD DUP2 LT PUSH2 0xA34 JUMPI PUSH2 0xA34 PUSH2 0x5294 JUMP JUMPDEST PUSH1 0x0 SWAP2 DUP3 MSTORE PUSH1 0x20 SWAP1 SWAP2 KECCAK256 ADD SLOAD PUSH1 0x1 PUSH1 0x1 PUSH1 0xA0 SHL SUB AND CALLER SUB PUSH2 0xA70 JUMPI PUSH1 0xC9 DUP1 SLOAD PUSH1 0x1 PUSH1 0x1 PUSH1 0xA0 SHL SUB DUP5 AND PUSH1 0x1 PUSH1 0x1 PUSH1 0xA0 SHL SUB NOT SWAP1 SWAP2 AND OR SWAP1 SSTORE POP POP JUMP JUMPDEST PUSH1 0xDE SLOAD PUSH2 0xA7F SWAP1 PUSH1 0x1 SWAP1 PUSH2 0x52C0 JUMP JUMPDEST DUP2 PUSH1 0xFF AND SUB PUSH2 0xADA JUMPI PUSH1 0xDE DUP2 PUSH1 0xFF AND DUP2 SLOAD DUP2 LT PUSH2 0xA9E JUMPI PUSH2 0xA9E PUSH2 0x5294 JUMP JUMPDEST PUSH1 0x0 SWAP2 DUP3 MSTORE PUSH1 0x20 SWAP1 SWAP2 KECCAK256 ADD SLOAD PUSH1 0x1 PUSH1 0x1 PUSH1 0xA0 SHL SUB AND CALLER EQ PUSH2 0xADA JUMPI PUSH1 0x40 MLOAD PUSH3 0x461BCD PUSH1 0xE5 SHL DUP2 MSTORE PUSH1 0x4 ADD PUSH2 0xAD1 SWAP1 PUSH2 0x52D3 JUMP JUMPDEST PUSH1 0x40 MLOAD DUP1 SWAP2 SUB SWAP1 REVERT JUMPDEST DUP1 PUSH2 0xAE4 DUP2 PUSH2 0x52FE JUMP JUMPDEST SWAP2 POP POP PUSH2 0xA11 JUMP JUMPDEST POP POP JUMP JUMPDEST PUSH1 0xDE DUP2 DUP2 SLOAD DUP2 LT PUSH2 0xB00 JUMPI PUSH1 0x0 DUP1 REVERT JUMPDEST PUSH1 0x0 SWAP2 DUP3 MSTORE PUSH1 0x20 SWAP1 SWAP2 KECCAK256 ADD SLOAD PUSH1 0x1 PUSH1 0x1 PUSH1 0xA0 SHL SUB AND SWAP1 POP DUP2 JUMP JUMPDEST PUSH1 0xD8 DUP2 DUP2 SLOAD DUP2 LT PUSH2 0xB00 JUMPI PUSH1 0x0 DUP1 REVERT JUMPDEST PUSH2 0xB32 PUSH2 0x32BC JUMP JUMPDEST PUSH1 0x40 MLOAD CALLER SWAP1 SELFBALANCE DUP1 ISZERO PUSH2 0x8FC MUL SWAP2 PUSH1 0x0 DUP2 DUP2 DUP2 DUP6 DUP9 DUP9 CALL SWAP4 POP POP POP POP ISZERO DUP1 ISZERO PUSH2 0xB5E JUMPI RETURNDATASIZE PUSH1 0x0 DUP1 RETURNDATACOPY RETURNDATASIZE PUSH1 0x0 REVERT JUMPDEST POP JUMP JUMPDEST PUSH1 0x1 PUSH1 0x1 PUSH1 0xA0 SHL SUB PUSH32 0x0 AND ADDRESS SUB PUSH2 0xBA9 JUMPI PUSH1 0x40 MLOAD PUSH3 0x461BCD PUSH1 0xE5 SHL DUP2 MSTORE PUSH1 0x4 ADD PUSH2 0xAD1 SWAP1 PUSH2 0x531D JUMP JUMPDEST PUSH32 0x0 PUSH1 0x1 PUSH1 0x1 PUSH1 0xA0 SHL SUB AND PUSH2 0xBDB PUSH2 0x3316 JUMP JUMPDEST PUSH1 0x1 PUSH1 0x1 PUSH1 0xA0 SHL SUB AND EQ PUSH2 0xC01 JUMPI PUSH1 0x40 MLOAD PUSH3 0x461BCD PUSH1 0xE5 SHL DUP2 MSTORE PUSH1 0x4 ADD PUSH2 0xAD1 SWAP1 PUSH2 0x5369 JUMP JUMPDEST PUSH2 0xC0A DUP2 PUSH2 0x3332 JUMP JUMPDEST PUSH1 0x40 DUP1 MLOAD PUSH1 0x0 DUP1 DUP3 MSTORE PUSH1 0x20 DUP3 ADD SWAP1 SWAP3 MSTORE PUSH2 0xB5E SWAP2 DUP4 SWAP2 SWAP1 PUSH2 0x333A JUMP JUMPDEST PUSH1 0x0 JUMPDEST PUSH1 0xDE SLOAD PUSH1 0xFF DUP3 AND LT ISZERO PUSH2 0xA09 JUMPI PUSH1 0xDE DUP2 PUSH1 0xFF AND DUP2 SLOAD DUP2 LT PUSH2 0xC4C JUMPI PUSH2 0xC4C PUSH2 0x5294 JUMP JUMPDEST PUSH1 0x0 SWAP2 DUP3 MSTORE PUSH1 0x20 SWAP1 SWAP2 KECCAK256 ADD SLOAD PUSH1 0x1 PUSH1 0x1 PUSH1 0xA0 SHL SUB AND CALLER SUB PUSH2 0xEFE JUMPI PUSH1 0x0 JUMPDEST PUSH4 0xFFFFFFFF DUP2 AND DUP4 GT ISZERO PUSH2 0xEF8 JUMPI PUSH1 0x0 PUSH1 0xDB PUSH1 0x0 DUP7 DUP7 DUP6 PUSH4 0xFFFFFFFF AND DUP2 DUP2 LT PUSH2 0xC96 JUMPI PUSH2 0xC96 PUSH2 0x5294 JUMP JUMPDEST SWAP1 POP PUSH1 0x20 MUL ADD PUSH1 0x20 DUP2 ADD SWAP1 PUSH2 0xCAB SWAP2 SWAP1 PUSH2 0x4CEF JUMP JUMPDEST PUSH4 0xFFFFFFFF AND DUP2 MSTORE PUSH1 0x20 DUP2 ADD SWAP2 SWAP1 SWAP2 MSTORE PUSH1 0x40 ADD PUSH1 0x0 SWAP1 DUP2 KECCAK256 PUSH1 0xCB SLOAD SWAP1 SWAP3 POP PUSH3 0x10000 SWAP1 DIV PUSH1 0xFF AND SWAP1 JUMPDEST DUP2 PUSH1 0xFF AND DUP2 PUSH4 0xFFFFFFFF AND LT ISZERO PUSH2 0xEE2 JUMPI PUSH1 0x7 DUP4 ADD SLOAD PUSH4 0xFFFFFFFF SWAP1 DUP2 AND PUSH1 0x0 DUP2 DUP2 MSTORE PUSH1 0xDB PUSH1 0x20 MSTORE PUSH1 0x40 DUP2 KECCAK256 SWAP2 SWAP3 DUP5 AND SWAP1 SUB PUSH2 0xD78 JUMPI DUP1 PUSH1 0x8 ADD DUP10 DUP10 DUP9 PUSH4 0xFFFFFFFF AND DUP2 DUP2 LT PUSH2 0xD26 JUMPI PUSH2 0xD26 PUSH2 0x5294 JUMP JUMPDEST SWAP1 POP PUSH1 0x20 MUL ADD PUSH1 0x20 DUP2 ADD SWAP1 PUSH2 0xD3B SWAP2 SWAP1 PUSH2 0x4CEF JUMP JUMPDEST DUP2 SLOAD PUSH1 0x1 DUP2 ADD DUP4 SSTORE PUSH1 0x0 SWAP3 DUP4 MSTORE PUSH1 0x20 SWAP1 SWAP3 KECCAK256 PUSH1 0x8 DUP4 DIV ADD DUP1 SLOAD PUSH1 0x7 SWAP1 SWAP4 AND PUSH1 0x4 MUL PUSH2 0x100 EXP PUSH4 0xFFFFFFFF DUP2 DUP2 MUL NOT SWAP1 SWAP5 AND SWAP3 SWAP1 SWAP4 AND SWAP3 SWAP1 SWAP3 MUL OR SWAP1 SSTORE JUMPDEST DUP5 SLOAD PUSH4 0xFFFFFFFF AND PUSH1 0x0 SUB PUSH2 0xD8E JUMPI POP POP PUSH2 0xEE2 JUMP JUMPDEST DUP1 PUSH1 0x9 ADD DUP10 DUP10 DUP9 PUSH4 0xFFFFFFFF AND DUP2 DUP2 LT PUSH2 0xDAA JUMPI PUSH2 0xDAA PUSH2 0x5294 JUMP JUMPDEST SWAP1 POP PUSH1 0x20 MUL ADD PUSH1 0x20 DUP2 ADD SWAP1 PUSH2 0xDBF SWAP2 SWAP1 PUSH2 0x4CEF JUMP JUMPDEST DUP2 SLOAD PUSH1 0x1 DUP1 DUP3 ADD DUP5 SSTORE PUSH1 0x0 SWAP4 DUP5 MSTORE PUSH1 0x20 SWAP1 SWAP4 KECCAK256 PUSH1 0x8 DUP3 DIV ADD DUP1 SLOAD PUSH1 0x7 SWAP1 SWAP3 AND PUSH1 0x4 MUL PUSH2 0x100 EXP PUSH4 0xFFFFFFFF DUP2 DUP2 MUL NOT SWAP1 SWAP4 AND SWAP4 SWAP1 SWAP3 AND SWAP2 SWAP1 SWAP2 MUL SWAP2 SWAP1 SWAP2 OR SWAP1 SSTORE PUSH1 0xA DUP3 ADD SWAP1 PUSH2 0xE0F SWAP1 DUP6 SWAP1 PUSH2 0x53B5 JUMP JUMPDEST DUP2 SLOAD PUSH1 0x1 DUP2 ADD DUP4 SSTORE PUSH1 0x0 SWAP3 DUP4 MSTORE PUSH1 0x20 SWAP1 SWAP3 KECCAK256 PUSH1 0x8 DUP4 DIV ADD DUP1 SLOAD PUSH1 0x7 SWAP1 SWAP4 AND PUSH1 0x4 MUL PUSH2 0x100 EXP PUSH4 0xFFFFFFFF DUP2 DUP2 MUL NOT SWAP1 SWAP5 AND SWAP3 DUP5 AND MUL SWAP2 SWAP1 SWAP2 OR SWAP1 SSTORE DUP10 SWAP1 DUP10 SWAP1 DUP9 AND DUP2 DUP2 LT PUSH2 0xE5F JUMPI PUSH2 0xE5F PUSH2 0x5294 JUMP JUMPDEST SWAP1 POP PUSH1 0x20 MUL ADD PUSH1 0x20 DUP2 ADD SWAP1 PUSH2 0xE74 SWAP2 SWAP1 PUSH2 0x4CEF JUMP JUMPDEST PUSH1 0x2 DUP3 ADD SLOAD DUP3 SLOAD PUSH1 0x40 MLOAD PUSH4 0xFFFFFFFF SWAP2 DUP3 AND DUP2 MSTORE SWAP3 DUP2 AND SWAP3 SWAP1 DUP6 AND SWAP2 PUSH2 0x100 SWAP1 DIV PUSH1 0x1 PUSH1 0x1 PUSH1 0xA0 SHL SUB AND SWAP1 PUSH32 0xA7FAFC728EC30E34DC1E1276496BF3EB44CA7494679DA969455289E6A8F0F1F6 SWAP1 PUSH1 0x20 ADD PUSH1 0x40 MLOAD DUP1 SWAP2 SUB SWAP1 LOG4 SWAP4 POP DUP2 SWAP1 POP PUSH2 0xEDA DUP2 PUSH2 0x53D9 JUMP JUMPDEST SWAP2 POP POP PUSH2 0xCD4 JUMP JUMPDEST POP POP POP DUP1 DUP1 PUSH2 0xEF0 SWAP1 PUSH2 0x53D9 JUMP JUMPDEST SWAP2 POP POP PUSH2 0xC6A JUMP JUMPDEST POP POP POP POP JUMP JUMPDEST PUSH1 0xDE SLOAD PUSH2 0xF0D SWAP1 PUSH1 0x1 SWAP1 PUSH2 0x52C0 JUMP JUMPDEST DUP2 PUSH1 0xFF AND SUB PUSH2 0xF5F JUMPI PUSH1 0xDE DUP2 PUSH1 0xFF AND DUP2 SLOAD DUP2 LT PUSH2 0xF2C JUMPI PUSH2 0xF2C PUSH2 0x5294 JUMP JUMPDEST PUSH1 0x0 SWAP2 DUP3 MSTORE PUSH1 0x20 SWAP1 SWAP2 KECCAK256 ADD SLOAD PUSH1 0x1 PUSH1 0x1 PUSH1 0xA0 SHL SUB AND CALLER EQ PUSH2 0xF5F JUMPI PUSH1 0x40 MLOAD PUSH3 0x461BCD PUSH1 0xE5 SHL DUP2 MSTORE PUSH1 0x4 ADD PUSH2 0xAD1 SWAP1 PUSH2 0x52D3 JUMP JUMPDEST DUP1 PUSH2 0xF69 DUP2 PUSH2 0x52FE JUMP JUMPDEST SWAP2 POP POP PUSH2 0xC29 JUMP JUMPDEST PUSH1 0x1 PUSH1 0x1 PUSH1 0xA0 SHL SUB PUSH32 0x0 AND ADDRESS SUB PUSH2 0xFB9 JUMPI PUSH1 0x40 MLOAD PUSH3 0x461BCD PUSH1 0xE5 SHL DUP2 MSTORE PUSH1 0x4 ADD PUSH2 0xAD1 SWAP1 PUSH2 0x531D JUMP JUMPDEST PUSH32 0x0 PUSH1 0x1 PUSH1 0x1 PUSH1 0xA0 SHL SUB AND PUSH2 0xFEB PUSH2 0x3316 JUMP JUMPDEST PUSH1 0x1 PUSH1 0x1 PUSH1 0xA0 SHL SUB AND EQ PUSH2 0x1011 JUMPI PUSH1 0x40 MLOAD PUSH3 0x461BCD PUSH1 0xE5 SHL DUP2 MSTORE PUSH1 0x4 ADD PUSH2 0xAD1 SWAP1 PUSH2 0x5369 JUMP JUMPDEST PUSH2 0x101A DUP3 PUSH2 0x3332 JUMP JUMPDEST PUSH2 0xAEC DUP3 DUP3 PUSH1 0x1 PUSH2 0x333A JUMP JUMPDEST PUSH1 0x0 ADDRESS PUSH1 0x1 PUSH1 0x1 PUSH1 0xA0 SHL SUB PUSH32 0x0 AND EQ PUSH2 0x10C1 JUMPI PUSH1 0x40 MLOAD PUSH3 0x461BCD PUSH1 0xE5 SHL DUP2 MSTORE PUSH1 0x20 PUSH1 0x4 DUP3 ADD MSTORE PUSH1 0x38 PUSH1 0x24 DUP3 ADD MSTORE PUSH32 0x555550535570677261646561626C653A206D757374206E6F742062652063616C PUSH1 0x44 DUP3 ADD MSTORE PUSH24 0x1B1959081D1A1C9BDD59DA0819195B1959D85D1958D85B1B PUSH1 0x42 SHL PUSH1 0x64 DUP3 ADD MSTORE PUSH1 0x84 ADD PUSH2 0xAD1 JUMP JUMPDEST POP PUSH1 0x0 DUP1 MLOAD PUSH1 0x20 PUSH2 0x56BA DUP4 CODECOPY DUP2 MLOAD SWAP2 MSTORE SWAP1 JUMP JUMPDEST PUSH2 0x10DC PUSH2 0x32BC JUMP JUMPDEST PUSH1 0xDE DUP1 SLOAD PUSH1 0x1 DUP2 ADD DUP3 SSTORE PUSH1 0x0 SWAP2 SWAP1 SWAP2 MSTORE PUSH32 0xFAE8130C0619F84B4B44F01B84806F04E82E536D70E05F2356977FA318AECC1A ADD DUP1 SLOAD PUSH1 0x1 PUSH1 0x1 PUSH1 0xA0 SHL SUB NOT AND PUSH1 0x1 PUSH1 0x1 PUSH1 0xA0 SHL SUB SWAP3 SWAP1 SWAP3 AND SWAP2 SWAP1 SWAP2 OR SWAP1 SSTORE JUMP JUMPDEST PUSH1 0x0 JUMPDEST PUSH1 0xDE SLOAD PUSH1 0xFF DUP3 AND LT ISZERO PUSH2 0xAEC JUMPI PUSH1 0xDE DUP2 PUSH1 0xFF AND DUP2 SLOAD DUP2 LT PUSH2 0x1154 JUMPI PUSH2 0x1154 PUSH2 0x5294 JUMP JUMPDEST PUSH1 0x0 SWAP2 DUP3 MSTORE PUSH1 0x20 SWAP1 SWAP2 KECCAK256 ADD SLOAD PUSH1 0x1 PUSH1 0x1 PUSH1 0xA0 SHL SUB AND CALLER SUB PUSH2 0x1194 JUMPI PUSH1 0xD1 DUP1 SLOAD PUSH4 0xFFFFFFFF DUP5 AND PUSH1 0x1 PUSH1 0x20 SHL MUL PUSH8 0xFFFFFFFF00000000 NOT SWAP1 SWAP2 AND OR SWAP1 SSTORE POP POP JUMP JUMPDEST PUSH1 0xDE SLOAD PUSH2 0x11A3 SWAP1 PUSH1 0x1 SWAP1 PUSH2 0x52C0 JUMP JUMPDEST DUP2 PUSH1 0xFF AND SUB PUSH2 0x11F5 JUMPI PUSH1 0xDE DUP2 PUSH1 0xFF AND DUP2 SLOAD DUP2 LT PUSH2 0x11C2 JUMPI PUSH2 0x11C2 PUSH2 0x5294 JUMP JUMPDEST PUSH1 0x0 SWAP2 DUP3 MSTORE PUSH1 0x20 SWAP1 SWAP2 KECCAK256 ADD SLOAD PUSH1 0x1 PUSH1 0x1 PUSH1 0xA0 SHL SUB AND CALLER EQ PUSH2 0x11F5 JUMPI PUSH1 0x40 MLOAD PUSH3 0x461BCD PUSH1 0xE5 SHL DUP2 MSTORE PUSH1 0x4 ADD PUSH2 0xAD1 SWAP1 PUSH2 0x52D3 JUMP JUMPDEST DUP1 PUSH2 0x11FF DUP2 PUSH2 0x52FE JUMP JUMPDEST SWAP2 POP POP PUSH2 0x1131 JUMP JUMPDEST PUSH2 0x120F PUSH2 0x32BC JUMP JUMPDEST PUSH2 0x1219 PUSH1 0x0 PUSH2 0x34A5 JUMP JUMPDEST JUMP JUMPDEST PUSH4 0xFFFFFFFF DUP1 DUP3 AND PUSH1 0x0 SWAP1 DUP2 MSTORE PUSH1 0xDB PUSH1 0x20 SWAP1 DUP2 MSTORE PUSH1 0x40 DUP1 DUP4 KECCAK256 DUP2 MLOAD PUSH2 0x3E0 DUP2 ADD SWAP1 SWAP3 MSTORE DUP1 SLOAD SWAP1 SWAP5 AND DUP2 MSTORE PUSH1 0x1 DUP5 ADD DUP1 SLOAD SWAP4 SWAP5 DUP6 SWAP5 SWAP3 SWAP4 SWAP1 SWAP3 SWAP1 DUP5 ADD SWAP2 SWAP1 PUSH2 0x1261 SWAP1 PUSH2 0x53FC JUMP JUMPDEST DUP1 PUSH1 0x1F ADD PUSH1 0x20 DUP1 SWAP2 DIV MUL PUSH1 0x20 ADD PUSH1 0x40 MLOAD SWAP1 DUP2 ADD PUSH1 0x40 MSTORE DUP1 SWAP3 SWAP2 SWAP1 DUP2 DUP2 MSTORE PUSH1 0x20 ADD DUP3 DUP1 SLOAD PUSH2 0x128D SWAP1 PUSH2 0x53FC JUMP JUMPDEST DUP1 ISZERO PUSH2 0x12DA JUMPI DUP1 PUSH1 0x1F LT PUSH2 0x12AF JUMPI PUSH2 0x100 DUP1 DUP4 SLOAD DIV MUL DUP4 MSTORE SWAP2 PUSH1 0x20 ADD SWAP2 PUSH2 0x12DA JUMP JUMPDEST DUP3 ADD SWAP2 SWAP1 PUSH1 0x0 MSTORE PUSH1 0x20 PUSH1 0x0 KECCAK256 SWAP1 JUMPDEST DUP2 SLOAD DUP2 MSTORE SWAP1 PUSH1 0x1 ADD SWAP1 PUSH1 0x20 ADD DUP1 DUP4 GT PUSH2 0x12BD JUMPI DUP3 SWAP1 SUB PUSH1 0x1F AND DUP3 ADD SWAP2 JUMPDEST POP POP POP SWAP2 DUP4 MSTORE POP POP PUSH1 0x2 DUP3 ADD SLOAD PUSH1 0xFF DUP2 AND ISZERO ISZERO PUSH1 0x20 DUP1 DUP5 ADD SWAP2 SWAP1 SWAP2 MSTORE PUSH2 0x100 SWAP1 SWAP2 DIV PUSH1 0x1 PUSH1 0x1 PUSH1 0xA0 SHL SUB AND PUSH1 0x40 DUP1 DUP5 ADD SWAP2 SWAP1 SWAP2 MSTORE PUSH1 0x3 DUP5 ADD SLOAD PUSH1 0x60 DUP5 ADD MSTORE PUSH1 0x4 DUP5 ADD SLOAD PUSH1 0x80 DUP5 ADD MSTORE PUSH1 0x5 DUP5 ADD SLOAD PUSH1 0xA0 DUP5 ADD MSTORE PUSH1 0x6 DUP5 ADD DUP1 SLOAD DUP3 MLOAD DUP2 DUP6 MUL DUP2 ADD DUP6 ADD SWAP1 SWAP4 MSTORE DUP1 DUP4 MSTORE PUSH1 0xC0 SWAP1 SWAP5 ADD SWAP4 SWAP2 SWAP3 SWAP1 SWAP2 SWAP1 DUP4 ADD DUP3 DUP3 DUP1 ISZERO PUSH2 0x13A7 JUMPI PUSH1 0x20 MUL DUP3 ADD SWAP2 SWAP1 PUSH1 0x0 MSTORE PUSH1 0x20 PUSH1 0x0 KECCAK256 SWAP1 PUSH1 0x0 SWAP1 JUMPDEST DUP3 DUP3 SWAP1 SLOAD SWAP1 PUSH2 0x100 EXP SWAP1 DIV PUSH4 0xFFFFFFFF AND PUSH4 0xFFFFFFFF AND DUP2 MSTORE PUSH1 0x20 ADD SWAP1 PUSH1 0x4 ADD SWAP1 PUSH1 0x20 DUP3 PUSH1 0x3 ADD DIV SWAP3 DUP4 ADD SWAP3 PUSH1 0x1 SUB DUP3 MUL SWAP2 POP DUP1 DUP5 GT PUSH2 0x136A JUMPI SWAP1 POP JUMPDEST POP POP POP SWAP2 DUP4 MSTORE POP POP PUSH1 0x7 DUP3 ADD SLOAD PUSH4 0xFFFFFFFF AND PUSH1 0x20 DUP1 DUP4 ADD SWAP2 SWAP1 SWAP2 MSTORE PUSH1 0x8 DUP4 ADD DUP1 SLOAD PUSH1 0x40 DUP1 MLOAD DUP3 DUP6 MUL DUP2 ADD DUP6 ADD DUP3 MSTORE DUP3 DUP2 MSTORE SWAP5 ADD SWAP4 SWAP3 DUP4 ADD DUP3 DUP3 DUP1 ISZERO PUSH2 0x1438 JUMPI PUSH1 0x20 MUL DUP3 ADD SWAP2 SWAP1 PUSH1 0x0 MSTORE PUSH1 0x20 PUSH1 0x0 KECCAK256 SWAP1 PUSH1 0x0 SWAP1 JUMPDEST DUP3 DUP3 SWAP1 SLOAD SWAP1 PUSH2 0x100 EXP SWAP1 DIV PUSH4 0xFFFFFFFF AND PUSH4 0xFFFFFFFF AND DUP2 MSTORE PUSH1 0x20 ADD SWAP1 PUSH1 0x4 ADD SWAP1 PUSH1 0x20 DUP3 PUSH1 0x3 ADD DIV SWAP3 DUP4 ADD SWAP3 PUSH1 0x1 SUB DUP3 MUL SWAP2 POP DUP1 DUP5 GT PUSH2 0x13FB JUMPI SWAP1 POP JUMPDEST POP POP POP POP POP DUP2 MSTORE PUSH1 0x20 ADD PUSH1 0x9 DUP3 ADD DUP1 SLOAD DUP1 PUSH1 0x20 MUL PUSH1 0x20 ADD PUSH1 0x40 MLOAD SWAP1 DUP2 ADD PUSH1 0x40 MSTORE DUP1 SWAP3 SWAP2 SWAP1 DUP2 DUP2 MSTORE PUSH1 0x20 ADD DUP3 DUP1 SLOAD DUP1 ISZERO PUSH2 0x14BC JUMPI PUSH1 0x20 MUL DUP3 ADD SWAP2 SWAP1 PUSH1 0x0 MSTORE PUSH1 0x20 PUSH1 0x0 KECCAK256 SWAP1 PUSH1 0x0 SWAP1 JUMPDEST DUP3 DUP3 SWAP1 SLOAD SWAP1 PUSH2 0x100 EXP SWAP1 DIV PUSH4 0xFFFFFFFF AND PUSH4 0xFFFFFFFF AND DUP2 MSTORE PUSH1 0x20 ADD SWAP1 PUSH1 0x4 ADD SWAP1 PUSH1 0x20 DUP3 PUSH1 0x3 ADD DIV SWAP3 DUP4 ADD SWAP3 PUSH1 0x1 SUB DUP3 MUL SWAP2 POP DUP1 DUP5 GT PUSH2 0x147F JUMPI SWAP1 POP JUMPDEST POP POP POP POP POP DUP2 MSTORE PUSH1 0x20 ADD PUSH1 0xA DUP3 ADD DUP1 SLOAD DUP1 PUSH1 0x20 MUL PUSH1 0x20 ADD PUSH1 0x40 MLOAD SWAP1 DUP2 ADD PUSH1 0x40 MSTORE DUP1 SWAP3 SWAP2 SWAP1 DUP2 DUP2 MSTORE PUSH1 0x20 ADD DUP3 DUP1 SLOAD DUP1 ISZERO PUSH2 0x1540 JUMPI PUSH1 0x20 MUL DUP3 ADD SWAP2 SWAP1 PUSH1 0x0 MSTORE PUSH1 0x20 PUSH1 0x0 KECCAK256 SWAP1 PUSH1 0x0 SWAP1 JUMPDEST DUP3 DUP3 SWAP1 SLOAD SWAP1 PUSH2 0x100 EXP SWAP1 DIV PUSH4 0xFFFFFFFF AND PUSH4 0xFFFFFFFF AND DUP2 MSTORE PUSH1 0x20 ADD SWAP1 PUSH1 0x4 ADD SWAP1 PUSH1 0x20 DUP3 PUSH1 0x3 ADD DIV SWAP3 DUP4 ADD SWAP3 PUSH1 0x1 SUB DUP3 MUL SWAP2 POP DUP1 DUP5 GT PUSH2 0x1503 JUMPI SWAP1 POP JUMPDEST POP POP POP SWAP2 DUP4 MSTORE POP POP PUSH1 0xB DUP3 ADD SLOAD PUSH1 0x20 DUP3 ADD MSTORE PUSH1 0xC DUP3 ADD SLOAD PUSH1 0x40 DUP3 ADD MSTORE PUSH1 0xD DUP3 ADD SLOAD PUSH1 0x60 DUP3 ADD MSTORE PUSH1 0xE DUP3 ADD SLOAD PUSH1 0x80 DUP3 ADD MSTORE PUSH1 0xF DUP3 ADD SLOAD PUSH1 0xA0 DUP3 ADD MSTORE PUSH1 0x10 DUP3 ADD SLOAD PUSH1 0xC0 DUP3 ADD MSTORE PUSH1 0x11 DUP3 ADD SLOAD PUSH1 0xE0 DUP3 ADD MSTORE PUSH1 0x12 DUP3 ADD SLOAD PUSH2 0x100 DUP3 ADD MSTORE PUSH1 0x13 DUP3 ADD SLOAD PUSH1 0xFF AND PUSH2 0x120 DUP3 ADD MSTORE PUSH1 0x14 DUP3 ADD SLOAD PUSH2 0x140 DUP3 ADD MSTORE PUSH1 0x15 DUP3 ADD SLOAD PUSH2 0x160 DUP3 ADD MSTORE PUSH1 0x16 DUP3 ADD SLOAD PUSH2 0x180 DUP3 ADD MSTORE PUSH1 0x17 DUP3 ADD SLOAD PUSH2 0x1A0 DUP3 ADD MSTORE PUSH1 0x18 DUP3 ADD SLOAD PUSH2 0x1C0 DUP3 ADD MSTORE PUSH1 0x19 DUP3 ADD SLOAD PUSH2 0x1E0 DUP3 ADD MSTORE PUSH1 0x1A DUP3 ADD SLOAD PUSH2 0x200 DUP3 ADD MSTORE PUSH1 0x1B DUP3 ADD SLOAD PUSH2 0x220 DUP3 ADD MSTORE PUSH1 0x1C DUP3 ADD SLOAD PUSH2 0x240 DUP3 ADD MSTORE PUSH1 0x1D SWAP1 SWAP2 ADD SLOAD PUSH2 0x260 SWAP1 SWAP2 ADD MSTORE SWAP1 POP PUSH2 0x1622 DUP2 PUSH2 0x34F7 JUMP JUMPDEST PUSH1 0xFF AND SWAP4 SWAP3 POP POP POP JUMP JUMPDEST PUSH1 0xCA DUP2 DUP2 SLOAD DUP2 LT PUSH2 0x163C JUMPI PUSH1 0x0 DUP1 REVERT JUMPDEST SWAP1 PUSH1 0x0 MSTORE PUSH1 0x20 PUSH1 0x0 KECCAK256 SWAP1 PUSH1 0x10 SWAP2 DUP3 DUP3 DIV ADD SWAP2 SWAP1 MOD PUSH1 0x2 MUL SWAP2 POP SLOAD SWAP1 PUSH2 0x100 EXP SWAP1 DIV PUSH2 0xFFFF AND DUP2 JUMP JUMPDEST PUSH1 0x0 JUMPDEST PUSH1 0xDE SLOAD PUSH1 0xFF DUP3 AND LT ISZERO PUSH2 0xA09 JUMPI PUSH1 0xDE DUP2 PUSH1 0xFF AND DUP2 SLOAD DUP2 LT PUSH2 0x168A JUMPI PUSH2 0x168A PUSH2 0x5294 JUMP JUMPDEST PUSH1 0x0 SWAP2 DUP3 MSTORE PUSH1 0x20 SWAP1 SWAP2 KECCAK256 ADD SLOAD PUSH1 0x1 PUSH1 0x1 PUSH1 0xA0 SHL SUB AND CALLER SUB PUSH2 0x1738 JUMPI PUSH1 0x0 JUMPDEST PUSH4 0xFFFFFFFF DUP2 AND DUP4 GT ISZERO PUSH2 0xEF8 JUMPI PUSH1 0x0 PUSH1 0xDB PUSH1 0x0 DUP7 DUP7 DUP6 PUSH4 0xFFFFFFFF AND DUP2 DUP2 LT PUSH2 0x16D4 JUMPI PUSH2 0x16D4 PUSH2 0x5294 JUMP JUMPDEST SWAP1 POP PUSH1 0x20 MUL ADD PUSH1 0x20 DUP2 ADD SWAP1 PUSH2 0x16E9 SWAP2 SWAP1 PUSH2 0x4CEF JUMP JUMPDEST PUSH4 0xFFFFFFFF AND DUP2 MSTORE PUSH1 0x20 DUP1 DUP3 ADD SWAP3 SWAP1 SWAP3 MSTORE PUSH1 0x40 SWAP1 DUP2 ADD PUSH1 0x0 SWAP1 DUP2 KECCAK256 DUP3 MLOAD SWAP2 DUP3 MSTORE SWAP3 DUP2 ADD SWAP2 DUP3 SWAP1 MSTORE MLOAD SWAP2 SWAP3 POP PUSH2 0x1723 SWAP2 PUSH1 0x8 DUP5 ADD SWAP2 SWAP1 PUSH2 0x497D JUMP JUMPDEST POP POP DUP1 DUP1 PUSH2 0x1730 SWAP1 PUSH2 0x53D9 JUMP JUMPDEST SWAP2 POP POP PUSH2 0x16A8 JUMP JUMPDEST PUSH1 0xDE SLOAD PUSH2 0x1747 SWAP1 PUSH1 0x1 SWAP1 PUSH2 0x52C0 JUMP JUMPDEST DUP2 PUSH1 0xFF AND SUB PUSH2 0x1799 JUMPI PUSH1 0xDE DUP2 PUSH1 0xFF AND DUP2 SLOAD DUP2 LT PUSH2 0x1766 JUMPI PUSH2 0x1766 PUSH2 0x5294 JUMP JUMPDEST PUSH1 0x0 SWAP2 DUP3 MSTORE PUSH1 0x20 SWAP1 SWAP2 KECCAK256 ADD SLOAD PUSH1 0x1 PUSH1 0x1 PUSH1 0xA0 SHL SUB AND CALLER EQ PUSH2 0x1799 JUMPI PUSH1 0x40 MLOAD PUSH3 0x461BCD PUSH1 0xE5 SHL DUP2 MSTORE PUSH1 0x4 ADD PUSH2 0xAD1 SWAP1 PUSH2 0x52D3 JUMP JUMPDEST DUP1 PUSH2 0x17A3 DUP2 PUSH2 0x52FE JUMP JUMPDEST SWAP2 POP POP PUSH2 0x1667 JUMP JUMPDEST PUSH1 0x0 SLOAD PUSH2 0x100 SWAP1 DIV PUSH1 0xFF AND ISZERO DUP1 DUP1 ISZERO PUSH2 0x17CB JUMPI POP PUSH1 0x0 SLOAD PUSH1 0x1 PUSH1 0xFF SWAP1 SWAP2 AND LT JUMPDEST DUP1 PUSH2 0x17EC JUMPI POP PUSH2 0x17DA ADDRESS PUSH2 0x359E JUMP JUMPDEST ISZERO DUP1 ISZERO PUSH2 0x17EC JUMPI POP PUSH1 0x0 SLOAD PUSH1 0xFF AND PUSH1 0x1 EQ JUMPDEST PUSH2 0x184F JUMPI PUSH1 0x40 MLOAD PUSH3 0x461BCD PUSH1 0xE5 SHL DUP2 MSTORE PUSH1 0x20 PUSH1 0x4 DUP3 ADD MSTORE PUSH1 0x2E PUSH1 0x24 DUP3 ADD MSTORE PUSH32 0x496E697469616C697A61626C653A20636F6E747261637420697320616C726561 PUSH1 0x44 DUP3 ADD MSTORE PUSH14 0x191E481A5B9A5D1A585B1A5E9959 PUSH1 0x92 SHL PUSH1 0x64 DUP3 ADD MSTORE PUSH1 0x84 ADD PUSH2 0xAD1 JUMP JUMPDEST PUSH1 0x0 DUP1 SLOAD PUSH1 0xFF NOT AND PUSH1 0x1 OR SWAP1 SSTORE DUP1 ISZERO PUSH2 0x1872 JUMPI PUSH1 0x0 DUP1 SLOAD PUSH2 0xFF00 NOT AND PUSH2 0x100 OR SWAP1 SSTORE JUMPDEST PUSH1 0xC9 DUP1 SLOAD PUSH1 0x1 PUSH1 0x1 PUSH1 0xA0 SHL SUB NOT AND PUSH20 0x286D6392042B4D7180FD6D20F8D35C8776815774 OR SWAP1 SSTORE PUSH1 0xCB DUP1 SLOAD PUSH2 0xFFFF NOT AND PUSH2 0x3E8 OR SWAP1 SSTORE PUSH1 0x40 DUP1 MLOAD PUSH2 0x3A0 DUP2 ADD DUP3 MSTORE PUSH1 0x64 DUP2 MSTORE PUSH1 0x46 PUSH1 0x20 DUP3 ADD MSTORE PUSH1 0x32 SWAP2 DUP2 ADD DUP3 SWAP1 MSTORE PUSH1 0x60 DUP2 ADD DUP3 SWAP1 MSTORE PUSH1 0x80 DUP2 ADD DUP3 SWAP1 MSTORE PUSH1 0xA0 DUP2 ADD DUP3 SWAP1 MSTORE PUSH1 0xC0 DUP2 ADD DUP3 SWAP1 MSTORE PUSH1 0xE0 DUP2 ADD DUP3 SWAP1 MSTORE PUSH2 0x100 DUP2 ADD DUP3 SWAP1 MSTORE PUSH2 0x120 DUP2 ADD DUP3 SWAP1 MSTORE PUSH2 0x140 DUP2 ADD DUP3 SWAP1 MSTORE PUSH2 0x160 DUP2 ADD DUP3 SWAP1 MSTORE PUSH2 0x180 DUP2 ADD DUP3 SWAP1 MSTORE PUSH2 0x1A0 DUP2 ADD DUP3 SWAP1 MSTORE PUSH2 0x1C0 DUP2 ADD DUP3 SWAP1 MSTORE PUSH2 0x1E0 DUP2 ADD DUP3 SWAP1 MSTORE PUSH2 0x200 DUP2 ADD DUP3 SWAP1 MSTORE PUSH2 0x220 DUP2 ADD DUP3 SWAP1 MSTORE PUSH2 0x240 DUP2 ADD SWAP2 SWAP1 SWAP2 MSTORE PUSH1 0x14 PUSH2 0x260 DUP3 ADD DUP2 SWAP1 MSTORE PUSH2 0x280 DUP3 ADD DUP2 SWAP1 MSTORE PUSH2 0x2A0 DUP3 ADD DUP2 SWAP1 MSTORE PUSH2 0x2C0 DUP3 ADD DUP2 SWAP1 MSTORE PUSH2 0x2E0 DUP3 ADD DUP2 SWAP1 MSTORE PUSH2 0x300 DUP3 ADD DUP2 SWAP1 MSTORE PUSH2 0x320 DUP3 ADD DUP2 SWAP1 MSTORE PUSH2 0x340 DUP3 ADD DUP2 SWAP1 MSTORE PUSH2 0x360 DUP3 ADD DUP2 SWAP1 MSTORE PUSH2 0x380 DUP3 ADD MSTORE PUSH2 0x199F SWAP1 PUSH1 0xCA SWAP1 PUSH1 0x1D PUSH2 0x4A2C JUMP JUMPDEST POP PUSH1 0xCB DUP1 SLOAD PUSH3 0xFF0000 NOT AND PUSH3 0x320000 OR SWAP1 SSTORE PUSH8 0xDE0B6B3A7640000 PUSH1 0xCC SSTORE PUSH1 0xD4 DUP1 SLOAD PUSH4 0xFF00FFFF NOT AND PUSH4 0x2000001 OR SWAP1 SSTORE PUSH1 0xD1 DUP1 SLOAD PUSH2 0xFFFF PUSH1 0x60 SHL NOT AND PUSH1 0x7D PUSH1 0x63 SHL OR SWAP1 SSTORE PUSH4 0x20F5800 PUSH1 0xD2 SSTORE PUSH1 0x14 PUSH1 0xD3 SSTORE PUSH3 0x278D00 PUSH1 0xD7 SSTORE PUSH2 0x1A00 PUSH2 0x35AD JUMP JUMPDEST PUSH2 0x1A08 PUSH2 0x35DC JUMP JUMPDEST DUP1 ISZERO PUSH2 0xB5E JUMPI PUSH1 0x0 DUP1 SLOAD PUSH2 0xFF00 NOT AND SWAP1 SSTORE PUSH1 0x40 MLOAD PUSH1 0x1 DUP2 MSTORE PUSH32 0x7F26B83FF96E1F2B6A682F133852F6798A09C465DA95921460CEFB3847402498 SWAP1 PUSH1 0x20 ADD PUSH1 0x40 MLOAD DUP1 SWAP2 SUB SWAP1 LOG1 POP JUMP JUMPDEST PUSH1 0x0 JUMPDEST PUSH1 0xDE SLOAD PUSH1 0xFF DUP3 AND LT ISZERO PUSH2 0xAEC JUMPI PUSH1 0xDE DUP2 PUSH1 0xFF AND DUP2 SLOAD DUP2 LT PUSH2 0x1A76 JUMPI PUSH2 0x1A76 PUSH2 0x5294 JUMP JUMPDEST PUSH1 0x0 SWAP2 DUP3 MSTORE PUSH1 0x20 SWAP1 SWAP2 KECCAK256 ADD SLOAD PUSH1 0x1 PUSH1 0x1 PUSH1 0xA0 SHL SUB AND CALLER SUB PUSH2 0x1AF9 JUMPI PUSH1 0xD8 DUP1 SLOAD PUSH1 0x1 DUP2 DUP2 ADD SWAP1 SWAP3 SSTORE PUSH32 0x5320AD99A619A90804CD2EFE3A5CF0AC1AC5C41AD9FF2C61CF699EFDAD771096 ADD DUP1 SLOAD PUSH1 0x1 PUSH1 0x1 PUSH1 0xA0 SHL SUB DUP6 AND PUSH1 0x1 PUSH1 0x1 PUSH1 0xA0 SHL SUB NOT SWAP1 SWAP2 AND DUP2 OR SWAP1 SWAP2 SSTORE PUSH1 0x0 SWAP1 DUP2 MSTORE PUSH1 0xDA PUSH1 0x20 MSTORE PUSH1 0x40 SWAP1 KECCAK256 DUP1 SLOAD PUSH1 0xFF NOT AND SWAP1 SWAP2 OR SWAP1 SSTORE POP POP JUMP JUMPDEST PUSH1 0xDE SLOAD PUSH2 0x1B08 SWAP1 PUSH1 0x1 SWAP1 PUSH2 0x52C0 JUMP JUMPDEST DUP2 PUSH1 0xFF AND SUB PUSH2 0x1B5A JUMPI PUSH1 0xDE DUP2 PUSH1 0xFF AND DUP2 SLOAD DUP2 LT PUSH2 0x1B27 JUMPI PUSH2 0x1B27 PUSH2 0x5294 JUMP JUMPDEST PUSH1 0x0 SWAP2 DUP3 MSTORE PUSH1 0x20 SWAP1 SWAP2 KECCAK256 ADD SLOAD PUSH1 0x1 PUSH1 0x1 PUSH1 0xA0 SHL SUB AND CALLER EQ PUSH2 0x1B5A JUMPI PUSH1 0x40 MLOAD PUSH3 0x461BCD PUSH1 0xE5 SHL DUP2 MSTORE PUSH1 0x4 ADD PUSH2 0xAD1 SWAP1 PUSH2 0x52D3 JUMP JUMPDEST DUP1 PUSH2 0x1B64 DUP2 PUSH2 0x52FE JUMP JUMPDEST SWAP2 POP POP PUSH2 0x1A53 JUMP JUMPDEST PUSH2 0x1B74 PUSH2 0x32BC JUMP JUMPDEST PUSH1 0x40 MLOAD PUSH4 0xA9059CBB PUSH1 0xE0 SHL DUP2 MSTORE CALLER PUSH1 0x4 DUP3 ADD MSTORE PUSH1 0x24 DUP2 ADD DUP3 SWAP1 MSTORE PUSH1 0x1 PUSH1 0x1 PUSH1 0xA0 SHL SUB DUP4 AND SWAP1 PUSH4 0xA9059CBB SWAP1 PUSH1 0x44 ADD PUSH1 0x20 PUSH1 0x40 MLOAD DUP1 DUP4 SUB DUP2 PUSH1 0x0 DUP8 GAS CALL ISZERO DUP1 ISZERO PUSH2 0x1BC1 JUMPI RETURNDATASIZE PUSH1 0x0 DUP1 RETURNDATACOPY RETURNDATASIZE PUSH1 0x0 REVERT JUMPDEST POP POP POP POP PUSH1 0x40 MLOAD RETURNDATASIZE PUSH1 0x1F NOT PUSH1 0x1F DUP3 ADD AND DUP3 ADD DUP1 PUSH1 0x40 MSTORE POP DUP2 ADD SWAP1 PUSH2 0xA09 SWAP2 SWAP1 PUSH2 0x5436 JUMP JUMPDEST PUSH4 0xFFFFFFFF DUP1 DUP3 AND PUSH1 0x0 SWAP1 DUP2 MSTORE PUSH1 0xDB PUSH1 0x20 SWAP1 DUP2 MSTORE PUSH1 0x40 DUP1 DUP4 KECCAK256 DUP2 MLOAD PUSH2 0x3E0 DUP2 ADD SWAP1 SWAP3 MSTORE DUP1 SLOAD SWAP1 SWAP5 AND DUP2 MSTORE PUSH1 0x1 DUP5 ADD DUP1 SLOAD SWAP4 SWAP5 DUP6 SWAP5 SWAP3 SWAP4 SWAP1 SWAP3 SWAP1 DUP5 ADD SWAP2 SWAP1 PUSH2 0x1C2B SWAP1 PUSH2 0x53FC JUMP JUMPDEST DUP1 PUSH1 0x1F ADD PUSH1 0x20 DUP1 SWAP2 DIV MUL PUSH1 0x20 ADD PUSH1 0x40 MLOAD SWAP1 DUP2 ADD PUSH1 0x40 MSTORE DUP1 SWAP3 SWAP2 SWAP1 DUP2 DUP2 MSTORE PUSH1 0x20 ADD DUP3 DUP1 SLOAD PUSH2 0x1C57 SWAP1 PUSH2 0x53FC JUMP JUMPDEST DUP1 ISZERO PUSH2 0x1CA4 JUMPI DUP1 PUSH1 0x1F LT PUSH2 0x1C79 JUMPI PUSH2 0x100 DUP1 DUP4 SLOAD DIV MUL DUP4 MSTORE SWAP2 PUSH1 0x20 ADD SWAP2 PUSH2 0x1CA4 JUMP JUMPDEST DUP3 ADD SWAP2 SWAP1 PUSH1 0x0 MSTORE PUSH1 0x20 PUSH1 0x0 KECCAK256 SWAP1 JUMPDEST DUP2 SLOAD DUP2 MSTORE SWAP1 PUSH1 0x1 ADD SWAP1 PUSH1 0x20 ADD DUP1 DUP4 GT PUSH2 0x1C87 JUMPI DUP3 SWAP1 SUB PUSH1 0x1F AND DUP3 ADD SWAP2 JUMPDEST POP POP POP SWAP2 DUP4 MSTORE POP POP PUSH1 0x2 DUP3 ADD SLOAD PUSH1 0xFF DUP2 AND ISZERO ISZERO PUSH1 0x20 DUP1 DUP5 ADD SWAP2 SWAP1 SWAP2 MSTORE PUSH2 0x100 SWAP1 SWAP2 DIV PUSH1 0x1 PUSH1 0x1 PUSH1 0xA0 SHL SUB AND PUSH1 0x40 DUP1 DUP5 ADD SWAP2 SWAP1 SWAP2 MSTORE PUSH1 0x3 DUP5 ADD SLOAD PUSH1 0x60 DUP5 ADD MSTORE PUSH1 0x4 DUP5 ADD SLOAD PUSH1 0x80 DUP5 ADD MSTORE PUSH1 0x5 DUP5 ADD SLOAD PUSH1 0xA0 DUP5 ADD MSTORE PUSH1 0x6 DUP5 ADD DUP1 SLOAD DUP3 MLOAD DUP2 DUP6 MUL DUP2 ADD DUP6 ADD SWAP1 SWAP4 MSTORE DUP1 DUP4 MSTORE PUSH1 0xC0 SWAP1 SWAP5 ADD SWAP4 SWAP2 SWAP3 SWAP1 SWAP2 SWAP1 DUP4 ADD DUP3 DUP3 DUP1 ISZERO PUSH2 0x1D71 JUMPI PUSH1 0x20 MUL DUP3 ADD SWAP2 SWAP1 PUSH1 0x0 MSTORE PUSH1 0x20 PUSH1 0x0 KECCAK256 SWAP1 PUSH1 0x0 SWAP1 JUMPDEST DUP3 DUP3 SWAP1 SLOAD SWAP1 PUSH2 0x100 EXP SWAP1 DIV PUSH4 0xFFFFFFFF AND PUSH4 0xFFFFFFFF AND DUP2 MSTORE PUSH1 0x20 ADD SWAP1 PUSH1 0x4 ADD SWAP1 PUSH1 0x20 DUP3 PUSH1 0x3 ADD DIV SWAP3 DUP4 ADD SWAP3 PUSH1 0x1 SUB DUP3 MUL SWAP2 POP DUP1 DUP5 GT PUSH2 0x1D34 JUMPI SWAP1 POP JUMPDEST POP POP POP SWAP2 DUP4 MSTORE POP POP PUSH1 0x7 DUP3 ADD SLOAD PUSH4 0xFFFFFFFF AND PUSH1 0x20 DUP1 DUP4 ADD SWAP2 SWAP1 SWAP2 MSTORE PUSH1 0x8 DUP4 ADD DUP1 SLOAD PUSH1 0x40 DUP1 MLOAD DUP3 DUP6 MUL DUP2 ADD DUP6 ADD DUP3 MSTORE DUP3 DUP2 MSTORE SWAP5 ADD SWAP4 SWAP3 DUP4 ADD DUP3 DUP3 DUP1 ISZERO PUSH2 0x1E02 JUMPI PUSH1 0x20 MUL DUP3 ADD SWAP2 SWAP1 PUSH1 0x0 MSTORE PUSH1 0x20 PUSH1 0x0 KECCAK256 SWAP1 PUSH1 0x0 SWAP1 JUMPDEST DUP3 DUP3 SWAP1 SLOAD SWAP1 PUSH2 0x100 EXP SWAP1 DIV PUSH4 0xFFFFFFFF AND PUSH4 0xFFFFFFFF AND DUP2 MSTORE PUSH1 0x20 ADD SWAP1 PUSH1 0x4 ADD SWAP1 PUSH1 0x20 DUP3 PUSH1 0x3 ADD DIV SWAP3 DUP4 ADD SWAP3 PUSH1 0x1 SUB DUP3 MUL SWAP2 POP DUP1 DUP5 GT PUSH2 0x1DC5 JUMPI SWAP1 POP JUMPDEST POP POP POP POP POP DUP2 MSTORE PUSH1 0x20 ADD PUSH1 0x9 DUP3 ADD DUP1 SLOAD DUP1 PUSH1 0x20 MUL PUSH1 0x20 ADD PUSH1 0x40 MLOAD SWAP1 DUP2 ADD PUSH1 0x40 MSTORE DUP1 SWAP3 SWAP2 SWAP1 DUP2 DUP2 MSTORE PUSH1 0x20 ADD DUP3 DUP1 SLOAD DUP1 ISZERO PUSH2 0x1E86 JUMPI PUSH1 0x20 MUL DUP3 ADD SWAP2 SWAP1 PUSH1 0x0 MSTORE PUSH1 0x20 PUSH1 0x0 KECCAK256 SWAP1 PUSH1 0x0 SWAP1 JUMPDEST DUP3 DUP3 SWAP1 SLOAD SWAP1 PUSH2 0x100 EXP SWAP1 DIV PUSH4 0xFFFFFFFF AND PUSH4 0xFFFFFFFF AND DUP2 MSTORE PUSH1 0x20 ADD SWAP1 PUSH1 0x4 ADD SWAP1 PUSH1 0x20 DUP3 PUSH1 0x3 ADD DIV SWAP3 DUP4 ADD SWAP3 PUSH1 0x1 SUB DUP3 MUL SWAP2 POP DUP1 DUP5 GT PUSH2 0x1E49 JUMPI SWAP1 POP JUMPDEST POP POP POP POP POP DUP2 MSTORE PUSH1 0x20 ADD PUSH1 0xA DUP3 ADD DUP1 SLOAD DUP1 PUSH1 0x20 MUL PUSH1 0x20 ADD PUSH1 0x40 MLOAD SWAP1 DUP2 ADD PUSH1 0x40 MSTORE DUP1 SWAP3 SWAP2 SWAP1 DUP2 DUP2 MSTORE PUSH1 0x20 ADD DUP3 DUP1 SLOAD DUP1 ISZERO PUSH2 0x1F0A JUMPI PUSH1 0x20 MUL DUP3 ADD SWAP2 SWAP1 PUSH1 0x0 MSTORE PUSH1 0x20 PUSH1 0x0 KECCAK256 SWAP1 PUSH1 0x0 SWAP1 JUMPDEST DUP3 DUP3 SWAP1 SLOAD SWAP1 PUSH2 0x100 EXP SWAP1 DIV PUSH4 0xFFFFFFFF AND PUSH4 0xFFFFFFFF AND DUP2 MSTORE PUSH1 0x20 ADD SWAP1 PUSH1 0x4 ADD SWAP1 PUSH1 0x20 DUP3 PUSH1 0x3 ADD DIV SWAP3 DUP4 ADD SWAP3 PUSH1 0x1 SUB DUP3 MUL SWAP2 POP DUP1 DUP5 GT PUSH2 0x1ECD JUMPI SWAP1 POP JUMPDEST POP POP POP SWAP2 DUP4 MSTORE POP POP PUSH1 0xB DUP3 ADD SLOAD PUSH1 0x20 DUP3 ADD MSTORE PUSH1 0xC DUP3 ADD SLOAD PUSH1 0x40 DUP3 ADD MSTORE PUSH1 0xD DUP3 ADD SLOAD PUSH1 0x60 DUP3 ADD MSTORE PUSH1 0xE DUP3 ADD SLOAD PUSH1 0x80 DUP3 ADD MSTORE PUSH1 0xF DUP3 ADD SLOAD PUSH1 0xA0 DUP3 ADD MSTORE PUSH1 0x10 DUP3 ADD SLOAD PUSH1 0xC0 DUP3 ADD MSTORE PUSH1 0x11 DUP3 ADD SLOAD PUSH1 0xE0 DUP3 ADD MSTORE PUSH1 0x12 DUP3 ADD SLOAD PUSH2 0x100 DUP3 ADD MSTORE PUSH1 0x13 DUP3 ADD SLOAD PUSH1 0xFF AND PUSH2 0x120 DUP3 ADD MSTORE PUSH1 0x14 DUP3 ADD SLOAD PUSH2 0x140 DUP3 ADD MSTORE PUSH1 0x15 DUP3 ADD SLOAD PUSH2 0x160 DUP3 ADD MSTORE PUSH1 0x16 DUP3 ADD SLOAD PUSH2 0x180 DUP3 ADD MSTORE PUSH1 0x17 DUP3 ADD SLOAD PUSH2 0x1A0 DUP3 ADD MSTORE PUSH1 0x18 DUP3 ADD SLOAD PUSH2 0x1C0 DUP3 ADD MSTORE PUSH1 0x19 DUP3 ADD SLOAD PUSH2 0x1E0 DUP3 ADD MSTORE PUSH1 0x1A DUP3 ADD SLOAD PUSH2 0x200 DUP3 ADD MSTORE PUSH1 0x1B DUP3 ADD SLOAD PUSH2 0x220 DUP3 ADD MSTORE PUSH1 0x1C DUP3 ADD SLOAD PUSH2 0x240 DUP3 ADD MSTORE PUSH1 0x1D SWAP1 SWAP2 ADD SLOAD PUSH2 0x260 SWAP1 SWAP2 ADD MSTORE SWAP1 POP PUSH2 0x1FEC DUP2 PUSH2 0x3603 JUMP JUMPDEST SWAP4 SWAP3 POP POP POP JUMP JUMPDEST PUSH1 0xCC SLOAD CALLVALUE SWAP1 PUSH2 0x2001 SWAP1 PUSH2 0x3640 JUMP JUMPDEST DUP2 LT ISZERO PUSH2 0x2064 JUMPI PUSH1 0x40 MLOAD PUSH3 0x461BCD PUSH1 0xE5 SHL DUP2 MSTORE PUSH1 0x20 PUSH1 0x4 DUP3 ADD MSTORE PUSH1 0x2B PUSH1 0x24 DUP3 ADD MSTORE PUSH32 0x56616C75652073686F756C6420626520677265617465207468656E206D696E43 PUSH1 0x44 DUP3 ADD MSTORE PUSH11 0x37B73A3934B13ABA34B7B7 PUSH1 0xA9 SHL PUSH1 0x64 DUP3 ADD MSTORE PUSH1 0x84 ADD PUSH2 0xAD1 JUMP JUMPDEST CALLER PUSH1 0x0 PUSH2 0x2070 DUP4 PUSH2 0x36D6 JUMP JUMPDEST PUSH1 0xD1 SLOAD SWAP1 SWAP2 POP TIMESTAMP SWAP1 PUSH1 0x0 SWAP1 PUSH2 0x2093 SWAP1 PUSH1 0x1 PUSH1 0x40 SHL SWAP1 DIV PUSH4 0xFFFFFFFF AND PUSH1 0x1 PUSH2 0x53B5 JUMP JUMPDEST PUSH4 0xFFFFFFFF DUP8 AND PUSH1 0x0 SWAP1 DUP2 MSTORE PUSH1 0xDB PUSH1 0x20 MSTORE PUSH1 0x40 SWAP1 KECCAK256 PUSH1 0x2 DUP2 ADD SLOAD SWAP2 SWAP3 POP SWAP1 PUSH1 0x1 PUSH1 0x1 PUSH1 0xA0 SHL SUB DUP7 DUP2 AND PUSH2 0x100 SWAP1 SWAP3 DIV AND EQ PUSH2 0x20E0 JUMPI PUSH1 0x40 MLOAD PUSH3 0x461BCD PUSH1 0xE5 SHL DUP2 MSTORE PUSH1 0x4 ADD PUSH2 0xAD1 SWAP1 PUSH2 0x5458 JUMP JUMPDEST PUSH1 0xD4 SLOAD PUSH1 0xFF AND ISZERO PUSH2 0x20F7 JUMPI PUSH2 0x20F7 DUP8 DUP4 DUP7 DUP7 PUSH2 0x3763 JUMP JUMPDEST PUSH2 0x2102 DUP8 DUP6 DUP6 PUSH2 0x3855 JUMP JUMPDEST POP POP POP POP POP POP POP JUMP JUMPDEST PUSH1 0x0 JUMPDEST PUSH1 0xDE SLOAD PUSH1 0xFF DUP3 AND LT ISZERO PUSH2 0x248D JUMPI PUSH1 0xDE DUP2 PUSH1 0xFF AND DUP2 SLOAD DUP2 LT PUSH2 0x2131 JUMPI PUSH2 0x2131 PUSH2 0x5294 JUMP JUMPDEST PUSH1 0x0 SWAP2 DUP3 MSTORE PUSH1 0x20 SWAP1 SWAP2 KECCAK256 ADD SLOAD PUSH1 0x1 PUSH1 0x1 PUSH1 0xA0 SHL SUB AND CALLER SUB PUSH2 0x241A JUMPI PUSH1 0x0 JUMPDEST PUSH2 0xFFFF DUP2 AND DUP9 GT ISZERO PUSH2 0x2414 JUMPI PUSH1 0x0 PUSH1 0xDB PUSH1 0x0 DUP12 DUP12 DUP6 PUSH2 0xFFFF AND DUP2 DUP2 LT PUSH2 0x2177 JUMPI PUSH2 0x2177 PUSH2 0x5294 JUMP JUMPDEST SWAP1 POP PUSH1 0x20 MUL ADD PUSH1 0x20 DUP2 ADD SWAP1 PUSH2 0x218C SWAP2 SWAP1 PUSH2 0x4CEF JUMP JUMPDEST PUSH4 0xFFFFFFFF AND PUSH4 0xFFFFFFFF AND DUP2 MSTORE PUSH1 0x20 ADD SWAP1 DUP2 MSTORE PUSH1 0x20 ADD PUSH1 0x0 KECCAK256 SWAP1 POP PUSH1 0x0 PUSH1 0xDA PUSH1 0x0 DUP11 DUP11 DUP7 PUSH2 0xFFFF AND DUP2 DUP2 LT PUSH2 0x21C4 JUMPI PUSH2 0x21C4 PUSH2 0x5294 JUMP JUMPDEST SWAP1 POP PUSH1 0x20 MUL ADD PUSH1 0x20 DUP2 ADD SWAP1 PUSH2 0x21D9 SWAP2 SWAP1 PUSH2 0x4B1D JUMP JUMPDEST PUSH1 0x1 PUSH1 0x1 PUSH1 0xA0 SHL SUB AND PUSH1 0x1 PUSH1 0x1 PUSH1 0xA0 SHL SUB AND DUP2 MSTORE PUSH1 0x20 ADD SWAP1 DUP2 MSTORE PUSH1 0x20 ADD PUSH1 0x0 KECCAK256 SWAP1 POP DUP11 DUP11 DUP5 PUSH2 0xFFFF AND DUP2 DUP2 LT PUSH2 0x2211 JUMPI PUSH2 0x2211 PUSH2 0x5294 JUMP JUMPDEST SWAP1 POP PUSH1 0x20 MUL ADD PUSH1 0x20 DUP2 ADD SWAP1 PUSH2 0x2226 SWAP2 SWAP1 PUSH2 0x4CEF JUMP JUMPDEST DUP3 SLOAD PUSH4 0xFFFFFFFF NOT AND PUSH4 0xFFFFFFFF SWAP2 SWAP1 SWAP2 AND OR DUP3 SSTORE DUP5 MLOAD DUP6 SWAP1 PUSH2 0xFFFF DUP6 AND SWAP1 DUP2 LT PUSH2 0x2253 JUMPI PUSH2 0x2253 PUSH2 0x5294 JUMP JUMPDEST PUSH1 0x20 MUL PUSH1 0x20 ADD ADD MLOAD DUP3 PUSH1 0x1 ADD SWAP1 DUP2 PUSH2 0x226B SWAP2 SWAP1 PUSH2 0x54D5 JUMP JUMPDEST POP DUP1 PUSH1 0x1 ADD DUP12 DUP12 DUP6 PUSH2 0xFFFF AND DUP2 DUP2 LT PUSH2 0x2286 JUMPI PUSH2 0x2286 PUSH2 0x5294 JUMP JUMPDEST SWAP1 POP PUSH1 0x20 MUL ADD PUSH1 0x20 DUP2 ADD SWAP1 PUSH2 0x229B SWAP2 SWAP1 PUSH2 0x4CEF JUMP JUMPDEST DUP2 SLOAD PUSH1 0x1 DUP2 ADD DUP4 SSTORE PUSH1 0x0 SWAP3 DUP4 MSTORE PUSH1 0x20 SWAP1 SWAP3 KECCAK256 PUSH1 0x8 DUP4 DIV ADD DUP1 SLOAD PUSH1 0x7 SWAP1 SWAP4 AND PUSH1 0x4 MUL PUSH2 0x100 EXP PUSH4 0xFFFFFFFF DUP2 DUP2 MUL NOT SWAP1 SWAP5 AND SWAP3 SWAP1 SWAP4 AND SWAP3 SWAP1 SWAP3 MUL OR SWAP1 SSTORE DUP9 DUP9 PUSH2 0xFFFF DUP6 AND DUP2 DUP2 LT PUSH2 0x22ED JUMPI PUSH2 0x22ED PUSH2 0x5294 JUMP JUMPDEST SWAP1 POP PUSH1 0x20 MUL ADD PUSH1 0x20 DUP2 ADD SWAP1 PUSH2 0x2302 SWAP2 SWAP1 PUSH2 0x4B1D JUMP JUMPDEST DUP3 PUSH1 0x2 ADD PUSH1 0x1 PUSH2 0x100 EXP DUP2 SLOAD DUP2 PUSH1 0x1 PUSH1 0x1 PUSH1 0xA0 SHL SUB MUL NOT AND SWAP1 DUP4 PUSH1 0x1 PUSH1 0x1 PUSH1 0xA0 SHL SUB AND MUL OR SWAP1 SSTORE POP DUP7 DUP7 DUP5 PUSH2 0xFFFF AND DUP2 DUP2 LT PUSH2 0x2340 JUMPI PUSH2 0x2340 PUSH2 0x5294 JUMP JUMPDEST SWAP1 POP PUSH1 0x20 MUL ADD PUSH1 0x20 DUP2 ADD SWAP1 PUSH2 0x2355 SWAP2 SWAP1 PUSH2 0x4CEF JUMP JUMPDEST PUSH1 0x7 DUP4 ADD DUP1 SLOAD PUSH4 0xFFFFFFFF NOT AND PUSH4 0xFFFFFFFF SWAP3 SWAP1 SWAP3 AND SWAP2 SWAP1 SWAP2 OR SWAP1 SSTORE DUP7 DUP7 PUSH2 0xFFFF DUP6 AND DUP2 DUP2 LT PUSH2 0x2387 JUMPI PUSH2 0x2387 PUSH2 0x5294 JUMP JUMPDEST SWAP1 POP PUSH1 0x20 MUL ADD PUSH1 0x20 DUP2 ADD SWAP1 PUSH2 0x239C SWAP2 SWAP1 PUSH2 0x4CEF JUMP JUMPDEST PUSH4 0xFFFFFFFF AND DUP12 DUP12 DUP6 PUSH2 0xFFFF AND DUP2 DUP2 LT PUSH2 0x23B8 JUMPI PUSH2 0x23B8 PUSH2 0x5294 JUMP JUMPDEST SWAP1 POP PUSH1 0x20 MUL ADD PUSH1 0x20 DUP2 ADD SWAP1 PUSH2 0x23CD SWAP2 SWAP1 PUSH2 0x4CEF JUMP JUMPDEST PUSH4 0xFFFFFFFF AND PUSH32 0x9D714438BA618019CC2B8621DCD2550337E162BE58654470EA30D48479FE8320 PUSH1 0x40 MLOAD PUSH1 0x40 MLOAD DUP1 SWAP2 SUB SWAP1 LOG3 POP POP DUP1 DUP1 PUSH2 0x240C SWAP1 PUSH2 0x5594 JUMP JUMPDEST SWAP2 POP POP PUSH2 0x214F JUMP JUMPDEST POP PUSH2 0x248D JUMP JUMPDEST PUSH1 0xDE SLOAD PUSH2 0x2429 SWAP1 PUSH1 0x1 SWAP1 PUSH2 0x52C0 JUMP JUMPDEST DUP2 PUSH1 0xFF AND SUB PUSH2 0x247B JUMPI PUSH1 0xDE DUP2 PUSH1 0xFF AND DUP2 SLOAD DUP2 LT PUSH2 0x2448 JUMPI PUSH2 0x2448 PUSH2 0x5294 JUMP JUMPDEST PUSH1 0x0 SWAP2 DUP3 MSTORE PUSH1 0x20 SWAP1 SWAP2 KECCAK256 ADD SLOAD PUSH1 0x1 PUSH1 0x1 PUSH1 0xA0 SHL SUB AND CALLER EQ PUSH2 0x247B JUMPI PUSH1 0x40 MLOAD PUSH3 0x461BCD PUSH1 0xE5 SHL DUP2 MSTORE PUSH1 0x4 ADD PUSH2 0xAD1 SWAP1 PUSH2 0x52D3 JUMP JUMPDEST DUP1 PUSH2 0x2485 DUP2 PUSH2 0x52FE JUMP JUMPDEST SWAP2 POP POP PUSH2 0x210E JUMP JUMPDEST POP POP POP POP POP POP POP POP JUMP JUMPDEST PUSH4 0xFFFFFFFF DUP2 AND PUSH1 0x0 SWAP1 DUP2 MSTORE PUSH1 0xDB PUSH1 0x20 MSTORE PUSH1 0x40 DUP2 KECCAK256 DUP2 PUSH2 0x24B6 DUP5 PUSH2 0x3971 JUMP JUMPDEST SWAP1 POP DUP2 PUSH1 0x1A ADD SLOAD DUP2 DUP4 PUSH1 0x19 ADD SLOAD PUSH2 0x24CD SWAP2 SWAP1 PUSH2 0x55AB JUMP JUMPDEST GT PUSH2 0x24DA JUMPI DUP1 SWAP3 POP PUSH2 0x24F4 JUMP JUMPDEST PUSH1 0x0 DUP3 PUSH1 0x19 ADD SLOAD DUP4 PUSH1 0x1A ADD SLOAD PUSH2 0x24F0 SWAP2 SWAP1 PUSH2 0x52C0 JUMP JUMPDEST SWAP4 POP POP JUMPDEST POP POP SWAP2 SWAP1 POP JUMP JUMPDEST PUSH1 0x0 JUMPDEST PUSH1 0xDE SLOAD PUSH1 0xFF DUP3 AND LT ISZERO PUSH2 0x2707 JUMPI PUSH1 0xDE DUP2 PUSH1 0xFF AND DUP2 SLOAD DUP2 LT PUSH2 0x2521 JUMPI PUSH2 0x2521 PUSH2 0x5294 JUMP JUMPDEST PUSH1 0x0 SWAP2 DUP3 MSTORE PUSH1 0x20 SWAP1 SWAP2 KECCAK256 ADD SLOAD PUSH1 0x1 PUSH1 0x1 PUSH1 0xA0 SHL SUB AND CALLER SUB PUSH2 0x2694 JUMPI PUSH1 0x0 JUMPDEST DUP13 DUP2 LT ISZERO PUSH2 0x268E JUMPI PUSH1 0xD1 DUP1 SLOAD PUSH1 0x1 PUSH1 0x40 SHL SWAP1 DIV PUSH4 0xFFFFFFFF AND SWAP1 PUSH1 0x8 PUSH2 0x2564 DUP4 PUSH2 0x53D9 JUMP JUMPDEST SWAP2 SWAP1 PUSH2 0x100 EXP DUP2 SLOAD DUP2 PUSH4 0xFFFFFFFF MUL NOT AND SWAP1 DUP4 PUSH4 0xFFFFFFFF AND MUL OR SWAP1 SSTORE POP POP PUSH1 0x0 DUP13 DUP13 DUP4 DUP2 DUP2 LT PUSH2 0x2597 JUMPI PUSH2 0x2597 PUSH2 0x5294 JUMP JUMPDEST SWAP1 POP PUSH1 0x20 MUL ADD CALLDATALOAD GT ISZERO PUSH2 0x267C JUMPI PUSH1 0x0 DUP13 DUP13 DUP4 DUP2 DUP2 LT PUSH2 0x25B8 JUMPI PUSH2 0x25B8 PUSH2 0x5294 JUMP JUMPDEST SWAP1 POP PUSH1 0x20 MUL ADD CALLDATALOAD PUSH1 0x3 PUSH2 0x25CB SWAP2 SWAP1 PUSH2 0x55BE JUMP JUMPDEST SWAP1 POP PUSH2 0x267A DUP16 DUP16 DUP5 DUP2 DUP2 LT PUSH2 0x25E2 JUMPI PUSH2 0x25E2 PUSH2 0x5294 JUMP JUMPDEST SWAP1 POP PUSH1 0x20 MUL ADD PUSH1 0x20 DUP2 ADD SWAP1 PUSH2 0x25F7 SWAP2 SWAP1 PUSH2 0x4CEF JUMP JUMPDEST DUP15 DUP15 DUP6 DUP2 DUP2 LT PUSH2 0x2609 JUMPI PUSH2 0x2609 PUSH2 0x5294 JUMP JUMPDEST SWAP1 POP PUSH1 0x20 MUL ADD CALLDATALOAD DUP14 DUP14 DUP7 DUP2 DUP2 LT PUSH2 0x2622 JUMPI PUSH2 0x2622 PUSH2 0x5294 JUMP JUMPDEST SWAP1 POP PUSH1 0x20 MUL ADD CALLDATALOAD DUP5 DUP14 DUP14 DUP9 DUP2 DUP2 LT PUSH2 0x263C JUMPI PUSH2 0x263C PUSH2 0x5294 JUMP JUMPDEST SWAP1 POP PUSH1 0x20 MUL ADD CALLDATALOAD DUP13 DUP13 DUP10 DUP2 DUP2 LT PUSH2 0x2655 JUMPI PUSH2 0x2655 PUSH2 0x5294 JUMP JUMPDEST SWAP1 POP PUSH1 0x20 MUL ADD CALLDATALOAD DUP12 DUP12 DUP11 DUP2 DUP2 LT PUSH2 0x266E JUMPI PUSH2 0x266E PUSH2 0x5294 JUMP JUMPDEST SWAP1 POP PUSH1 0x20 MUL ADD CALLDATALOAD PUSH2 0x3E69 JUMP JUMPDEST POP JUMPDEST DUP1 PUSH2 0x2686 DUP2 PUSH2 0x55D5 JUMP JUMPDEST SWAP2 POP POP PUSH2 0x253F JUMP JUMPDEST POP PUSH2 0x2707 JUMP JUMPDEST PUSH1 0xDE SLOAD PUSH2 0x26A3 SWAP1 PUSH1 0x1 SWAP1 PUSH2 0x52C0 JUMP JUMPDEST DUP2 PUSH1 0xFF AND SUB PUSH2 0x26F5 JUMPI PUSH1 0xDE DUP2 PUSH1 0xFF AND DUP2 SLOAD DUP2 LT PUSH2 0x26C2 JUMPI PUSH2 0x26C2 PUSH2 0x5294 JUMP JUMPDEST PUSH1 0x0 SWAP2 DUP3 MSTORE PUSH1 0x20 SWAP1 SWAP2 KECCAK256 ADD SLOAD PUSH1 0x1 PUSH1 0x1 PUSH1 0xA0 SHL SUB AND CALLER EQ PUSH2 0x26F5 JUMPI PUSH1 0x40 MLOAD PUSH3 0x461BCD PUSH1 0xE5 SHL DUP2 MSTORE PUSH1 0x4 ADD PUSH2 0xAD1 SWAP1 PUSH2 0x52D3 JUMP JUMPDEST DUP1 PUSH2 0x26FF DUP2 PUSH2 0x52FE JUMP JUMPDEST SWAP2 POP POP PUSH2 0x24FE JUMP JUMPDEST POP POP POP POP POP POP POP POP POP POP POP POP POP JUMP JUMPDEST PUSH1 0x0 JUMPDEST PUSH1 0xDE SLOAD PUSH1 0xFF DUP3 AND LT ISZERO PUSH2 0xAEC JUMPI PUSH1 0xDE DUP2 PUSH1 0xFF AND DUP2 SLOAD DUP2 LT PUSH2 0x273C JUMPI PUSH2 0x273C PUSH2 0x5294 JUMP JUMPDEST PUSH1 0x0 SWAP2 DUP3 MSTORE PUSH1 0x20 SWAP1 SWAP2 KECCAK256 ADD SLOAD PUSH1 0x1 PUSH1 0x1 PUSH1 0xA0 SHL SUB AND CALLER SUB PUSH2 0x2878 JUMPI PUSH1 0x1 PUSH1 0x1 PUSH1 0xA0 SHL SUB DUP3 AND PUSH1 0x0 SWAP1 DUP2 MSTORE PUSH1 0xDA PUSH1 0x20 MSTORE PUSH1 0x40 DUP2 KECCAK256 DUP1 SLOAD PUSH1 0xFF NOT AND SWAP1 SSTORE PUSH1 0xD8 SLOAD SWAP1 JUMPDEST DUP2 DUP2 LT ISZERO PUSH2 0xEF8 JUMPI DUP4 PUSH1 0x1 PUSH1 0x1 PUSH1 0xA0 SHL SUB AND PUSH1 0xD8 DUP3 DUP2 SLOAD DUP2 LT PUSH2 0x27A1 JUMPI PUSH2 0x27A1 PUSH2 0x5294 JUMP JUMPDEST PUSH1 0x0 SWAP2 DUP3 MSTORE PUSH1 0x20 SWAP1 SWAP2 KECCAK256 ADD SLOAD PUSH1 0x1 PUSH1 0x1 PUSH1 0xA0 SHL SUB AND SUB PUSH2 0x2866 JUMPI PUSH1 0xD8 PUSH2 0x27C8 PUSH1 0x1 DUP5 PUSH2 0x52C0 JUMP JUMPDEST DUP2 SLOAD DUP2 LT PUSH2 0x27D8 JUMPI PUSH2 0x27D8 PUSH2 0x5294 JUMP JUMPDEST PUSH1 0x0 SWAP2 DUP3 MSTORE PUSH1 0x20 SWAP1 SWAP2 KECCAK256 ADD SLOAD PUSH1 0xD8 DUP1 SLOAD PUSH1 0x1 PUSH1 0x1 PUSH1 0xA0 SHL SUB SWAP1 SWAP3 AND SWAP2 DUP4 SWAP1 DUP2 LT PUSH2 0x2804 JUMPI PUSH2 0x2804 PUSH2 0x5294 JUMP JUMPDEST SWAP1 PUSH1 0x0 MSTORE PUSH1 0x20 PUSH1 0x0 KECCAK256 ADD PUSH1 0x0 PUSH2 0x100 EXP DUP2 SLOAD DUP2 PUSH1 0x1 PUSH1 0x1 PUSH1 0xA0 SHL SUB MUL NOT AND SWAP1 DUP4 PUSH1 0x1 PUSH1 0x1 PUSH1 0xA0 SHL SUB AND MUL OR SWAP1 SSTORE POP PUSH1 0xD8 DUP1 SLOAD DUP1 PUSH2 0x2843 JUMPI PUSH2 0x2843 PUSH2 0x55EE JUMP JUMPDEST PUSH1 0x0 DUP3 DUP2 MSTORE PUSH1 0x20 SWAP1 KECCAK256 DUP2 ADD PUSH1 0x0 NOT SWAP1 DUP2 ADD DUP1 SLOAD PUSH1 0x1 PUSH1 0x1 PUSH1 0xA0 SHL SUB NOT AND SWAP1 SSTORE ADD SWAP1 SSTORE JUMPDEST DUP1 PUSH2 0x2870 DUP2 PUSH2 0x55D5 JUMP JUMPDEST SWAP2 POP POP PUSH2 0x277C JUMP JUMPDEST PUSH1 0xDE SLOAD PUSH2 0x2887 SWAP1 PUSH1 0x1 SWAP1 PUSH2 0x52C0 JUMP JUMPDEST DUP2 PUSH1 0xFF AND SUB PUSH2 0x28D9 JUMPI PUSH1 0xDE DUP2 PUSH1 0xFF AND DUP2 SLOAD DUP2 LT PUSH2 0x28A6 JUMPI PUSH2 0x28A6 PUSH2 0x5294 JUMP JUMPDEST PUSH1 0x0 SWAP2 DUP3 MSTORE PUSH1 0x20 SWAP1 SWAP2 KECCAK256 ADD SLOAD PUSH1 0x1 PUSH1 0x1 PUSH1 0xA0 SHL SUB AND CALLER EQ PUSH2 0x28D9 JUMPI PUSH1 0x40 MLOAD PUSH3 0x461BCD PUSH1 0xE5 SHL DUP2 MSTORE PUSH1 0x4 ADD PUSH2 0xAD1 SWAP1 PUSH2 0x52D3 JUMP JUMPDEST DUP1 PUSH2 0x28E3 DUP2 PUSH2 0x52FE JUMP JUMPDEST SWAP2 POP POP PUSH2 0x2719 JUMP JUMPDEST CALLVALUE PUSH1 0x0 PUSH2 0x28F7 DUP3 PUSH2 0x36D6 JUMP JUMPDEST SWAP1 POP PUSH2 0x2904 PUSH1 0xCC SLOAD PUSH2 0x3640 JUMP JUMPDEST DUP3 LT ISZERO PUSH2 0x2953 JUMPI PUSH1 0x40 MLOAD PUSH3 0x461BCD PUSH1 0xE5 SHL DUP2 MSTORE PUSH1 0x20 PUSH1 0x4 DUP3 ADD MSTORE PUSH1 0x1F PUSH1 0x24 DUP3 ADD MSTORE PUSH32 0x56616C75652073686F756C6420626520677265617465207468656E2031303000 PUSH1 0x44 DUP3 ADD MSTORE PUSH1 0x64 ADD PUSH2 0xAD1 JUMP JUMPDEST PUSH1 0xD1 SLOAD CALLER SWAP1 TIMESTAMP SWAP1 PUSH1 0x0 SWAP1 PUSH2 0x2975 SWAP1 PUSH1 0x1 PUSH1 0x20 SHL SWAP1 DIV PUSH4 0xFFFFFFFF AND PUSH1 0x1 PUSH2 0x53B5 JUMP JUMPDEST PUSH1 0xD1 SLOAD SWAP1 SWAP2 POP PUSH1 0x0 SWAP1 PUSH2 0x2996 SWAP1 PUSH1 0x1 PUSH1 0x40 SHL SWAP1 DIV PUSH4 0xFFFFFFFF AND PUSH1 0x1 PUSH2 0x53B5 JUMP JUMPDEST PUSH1 0x1 PUSH1 0x1 PUSH1 0xA0 SHL SUB DUP6 AND PUSH1 0x0 SWAP1 DUP2 MSTORE PUSH1 0xDA PUSH1 0x20 MSTORE PUSH1 0x40 SWAP1 KECCAK256 PUSH1 0xD4 SLOAD SWAP2 SWAP3 POP SWAP1 PUSH1 0xFF AND ISZERO PUSH2 0x29C9 JUMPI PUSH2 0x29C9 DUP4 DUP4 DUP9 DUP8 PUSH2 0x3763 JUMP JUMPDEST PUSH2 0x29FD DUP4 PUSH1 0x40 MLOAD DUP1 PUSH1 0x20 ADD PUSH1 0x40 MSTORE DUP1 PUSH1 0x0 DUP2 MSTORE POP DUP11 PUSH1 0x40 MLOAD DUP1 PUSH1 0x20 ADD PUSH1 0x40 MSTORE DUP1 PUSH1 0x0 DUP2 MSTORE POP DUP10 DUP12 DUP13 PUSH1 0x3 PUSH2 0x2102 SWAP2 SWAP1 PUSH2 0x55BE JUMP JUMPDEST PUSH1 0x1 SWAP1 DUP2 ADD DUP1 SLOAD SWAP2 DUP3 ADD DUP2 SSTORE PUSH1 0x0 SWAP1 DUP2 MSTORE PUSH1 0x20 SWAP1 KECCAK256 PUSH1 0x8 DUP3 DIV ADD DUP1 SLOAD PUSH1 0x7 SWAP1 SWAP3 AND PUSH1 0x4 MUL PUSH2 0x100 EXP PUSH4 0xFFFFFFFF DUP2 DUP2 MUL NOT SWAP1 SWAP4 AND SWAP5 SWAP1 SWAP3 AND SWAP2 SWAP1 SWAP2 MUL SWAP3 SWAP1 SWAP3 OR SWAP1 SWAP2 SSTORE POP POP POP POP POP POP JUMP JUMPDEST PUSH4 0xFFFFFFFF DUP2 AND PUSH1 0x0 SWAP1 DUP2 MSTORE PUSH1 0xDB PUSH1 0x20 SWAP1 DUP2 MSTORE PUSH1 0x40 DUP1 DUP4 KECCAK256 PUSH1 0x6 ADD DUP1 SLOAD DUP3 MLOAD DUP2 DUP6 MUL DUP2 ADD DUP6 ADD SWAP1 SWAP4 MSTORE DUP1 DUP4 MSTORE DUP5 SWAP4 DUP4 ADD DUP3 DUP3 DUP1 ISZERO PUSH2 0x2AD1 JUMPI PUSH1 0x20 MUL DUP3 ADD SWAP2 SWAP1 PUSH1 0x0 MSTORE PUSH1 0x20 PUSH1 0x0 KECCAK256 SWAP1 PUSH1 0x0 SWAP1 JUMPDEST DUP3 DUP3 SWAP1 SLOAD SWAP1 PUSH2 0x100 EXP SWAP1 DIV PUSH4 0xFFFFFFFF AND PUSH4 0xFFFFFFFF AND DUP2 MSTORE PUSH1 0x20 ADD SWAP1 PUSH1 0x4 ADD SWAP1 PUSH1 0x20 DUP3 PUSH1 0x3 ADD DIV SWAP3 DUP4 ADD SWAP3 PUSH1 0x1 SUB DUP3 MUL SWAP2 POP DUP1 DUP5 GT PUSH2 0x2A94 JUMPI SWAP1 POP JUMPDEST POP POP POP POP POP SWAP1 POP PUSH1 0x0 DUP1 JUMPDEST DUP3 MLOAD DUP2 PUSH2 0xFFFF AND LT ISZERO PUSH2 0x2B57 JUMPI PUSH1 0x0 PUSH1 0xDC PUSH1 0x0 DUP6 DUP5 PUSH2 0xFFFF AND DUP2 MLOAD DUP2 LT PUSH2 0x2B05 JUMPI PUSH2 0x2B05 PUSH2 0x5294 JUMP JUMPDEST PUSH1 0x20 SWAP1 DUP2 MUL SWAP2 SWAP1 SWAP2 ADD DUP2 ADD MLOAD PUSH4 0xFFFFFFFF AND DUP3 MSTORE DUP2 ADD SWAP2 SWAP1 SWAP2 MSTORE PUSH1 0x40 ADD PUSH1 0x0 KECCAK256 DUP1 SLOAD SWAP1 SWAP2 POP PUSH1 0xFF AND ISZERO PUSH2 0x2B44 JUMPI PUSH1 0x1 DUP2 ADD SLOAD PUSH2 0x2B41 SWAP1 DUP5 PUSH2 0x55AB JUMP JUMPDEST SWAP3 POP JUMPDEST POP DUP1 PUSH2 0x2B4F DUP2 PUSH2 0x5594 JUMP JUMPDEST SWAP2 POP POP PUSH2 0x2ADC JUMP JUMPDEST POP SWAP4 SWAP3 POP POP POP JUMP JUMPDEST PUSH2 0x2B67 PUSH2 0x32BC JUMP JUMPDEST PUSH1 0x1 PUSH1 0x1 PUSH1 0xA0 SHL SUB DUP2 AND PUSH2 0x2BCC JUMPI PUSH1 0x40 MLOAD PUSH3 0x461BCD PUSH1 0xE5 SHL DUP2 MSTORE PUSH1 0x20 PUSH1 0x4 DUP3 ADD MSTORE PUSH1 0x26 PUSH1 0x24 DUP3 ADD MSTORE PUSH32 0x4F776E61626C653A206E6577206F776E657220697320746865207A65726F2061 PUSH1 0x44 DUP3 ADD MSTORE PUSH6 0x646472657373 PUSH1 0xD0 SHL PUSH1 0x64 DUP3 ADD MSTORE PUSH1 0x84 ADD PUSH2 0xAD1 JUMP JUMPDEST PUSH2 0xB5E DUP2 PUSH2 0x34A5 JUMP JUMPDEST PUSH4 0xFFFFFFFF DUP3 AND PUSH1 0x0 SWAP1 DUP2 MSTORE PUSH1 0xDB PUSH1 0x20 MSTORE PUSH1 0x40 SWAP1 KECCAK256 PUSH1 0x2 DUP2 ADD SLOAD PUSH2 0x100 SWAP1 DIV PUSH1 0x1 PUSH1 0x1 PUSH1 0xA0 SHL SUB AND CALLER EQ PUSH2 0x2C1B JUMPI PUSH1 0x40 MLOAD PUSH3 0x461BCD PUSH1 0xE5 SHL DUP2 MSTORE PUSH1 0x4 ADD PUSH2 0xAD1 SWAP1 PUSH2 0x5458 JUMP JUMPDEST PUSH1 0x0 PUSH2 0x2C26 DUP3 PUSH2 0x3FD8 JUMP JUMPDEST PUSH1 0x18 DUP4 ADD SLOAD SWAP1 SWAP2 POP PUSH2 0x2C38 DUP2 DUP4 PUSH2 0x52C0 JUMP JUMPDEST DUP5 GT ISZERO PUSH2 0x2C9A JUMPI PUSH1 0x40 MLOAD PUSH3 0x461BCD PUSH1 0xE5 SHL DUP2 MSTORE PUSH1 0x20 PUSH1 0x4 DUP3 ADD MSTORE PUSH1 0x2A PUSH1 0x24 DUP3 ADD MSTORE PUSH32 0x506C6561736520656E7465722076616C7565206C657373207468656E20796F75 PUSH1 0x44 DUP3 ADD MSTORE PUSH10 0x39103130B630B731B297 PUSH1 0xB1 SHL PUSH1 0x64 DUP3 ADD MSTORE PUSH1 0x84 ADD PUSH2 0xAD1 JUMP JUMPDEST DUP4 DUP4 PUSH1 0x18 ADD PUSH1 0x0 DUP3 DUP3 SLOAD PUSH2 0x2CAE SWAP2 SWAP1 PUSH2 0x55AB JUMP JUMPDEST SWAP1 SWAP2 SSTORE POP CALLER SWAP1 POP PUSH2 0x8FC PUSH2 0x2CC1 DUP7 PUSH2 0x3640 JUMP JUMPDEST PUSH1 0x40 MLOAD DUP2 ISZERO SWAP1 SWAP3 MUL SWAP2 PUSH1 0x0 DUP2 DUP2 DUP2 DUP6 DUP9 DUP9 CALL SWAP4 POP POP POP POP ISZERO DUP1 ISZERO PUSH2 0x2CE9 JUMPI RETURNDATASIZE PUSH1 0x0 DUP1 RETURNDATACOPY RETURNDATASIZE PUSH1 0x0 REVERT JUMPDEST POP POP POP POP POP POP JUMP JUMPDEST PUSH2 0x2DF4 PUSH1 0x40 MLOAD DUP1 PUSH2 0x3E0 ADD PUSH1 0x40 MSTORE DUP1 PUSH1 0x0 PUSH4 0xFFFFFFFF AND DUP2 MSTORE PUSH1 0x20 ADD PUSH1 0x60 DUP2 MSTORE PUSH1 0x20 ADD PUSH1 0x0 ISZERO ISZERO DUP2 MSTORE PUSH1 0x20 ADD PUSH1 0x0 PUSH1 0x1 PUSH1 0x1 PUSH1 0xA0 SHL SUB AND DUP2 MSTORE PUSH1 0x20 ADD PUSH1 0x0 DUP2 MSTORE PUSH1 0x20 ADD PUSH1 0x0 DUP2 MSTORE PUSH1 0x20 ADD PUSH1 0x0 DUP2 MSTORE PUSH1 0x20 ADD PUSH1 0x60 DUP2 MSTORE PUSH1 0x20 ADD PUSH1 0x0 PUSH4 0xFFFFFFFF AND DUP2 MSTORE PUSH1 0x20 ADD PUSH1 0x60 DUP2 MSTORE PUSH1 0x20 ADD PUSH1 0x60 DUP2 MSTORE PUSH1 0x20 ADD PUSH1 0x60 DUP2 MSTORE PUSH1 0x20 ADD PUSH1 0x0 DUP2 MSTORE PUSH1 0x20 ADD PUSH1 0x0 DUP2 MSTORE PUSH1 0x20 ADD PUSH1 0x0 DUP2 MSTORE PUSH1 0x20 ADD PUSH1 0x0 DUP2 MSTORE PUSH1 0x20 ADD PUSH1 0x0 DUP2 MSTORE PUSH1 0x20 ADD PUSH1 0x0 DUP2 MSTORE PUSH1 0x20 ADD PUSH1 0x0 DUP2 MSTORE PUSH1 0x20 ADD PUSH1 0x0 DUP2 MSTORE PUSH1 0x20 ADD PUSH1 0x0 PUSH1 0xFF AND DUP2 MSTORE PUSH1 0x20 ADD PUSH1 0x0 DUP2 MSTORE PUSH1 0x20 ADD PUSH1 0x0 DUP2 MSTORE PUSH1 0x20 ADD PUSH1 0x0 DUP2 MSTORE PUSH1 0x20 ADD PUSH1 0x0 DUP2 MSTORE PUSH1 0x20 ADD PUSH1 0x0 DUP2 MSTORE PUSH1 0x20 ADD PUSH1 0x0 DUP2 MSTORE PUSH1 0x20 ADD PUSH1 0x0 DUP2 MSTORE PUSH1 0x20 ADD PUSH1 0x0 DUP2 MSTORE PUSH1 0x20 ADD PUSH1 0x0 DUP2 MSTORE PUSH1 0x20 ADD PUSH1 0x0 DUP2 MSTORE POP SWAP1 JUMP JUMPDEST PUSH4 0xFFFFFFFF DUP1 DUP4 AND PUSH1 0x0 SWAP1 DUP2 MSTORE PUSH1 0xDB PUSH1 0x20 SWAP1 DUP2 MSTORE PUSH1 0x40 SWAP2 DUP3 SWAP1 KECCAK256 DUP3 MLOAD PUSH2 0x3E0 DUP2 ADD SWAP1 SWAP4 MSTORE DUP1 SLOAD SWAP1 SWAP4 AND DUP3 MSTORE PUSH1 0x1 DUP4 ADD DUP1 SLOAD SWAP3 SWAP4 SWAP3 SWAP2 DUP5 ADD SWAP2 PUSH2 0x2E35 SWAP1 PUSH2 0x53FC JUMP JUMPDEST DUP1 PUSH1 0x1F ADD PUSH1 0x20 DUP1 SWAP2 DIV MUL PUSH1 0x20 ADD PUSH1 0x40 MLOAD SWAP1 DUP2 ADD PUSH1 0x40 MSTORE DUP1 SWAP3 SWAP2 SWAP1 DUP2 DUP2 MSTORE PUSH1 0x20 ADD DUP3 DUP1 SLOAD PUSH2 0x2E61 SWAP1 PUSH2 0x53FC JUMP JUMPDEST DUP1 ISZERO PUSH2 0x2EAE JUMPI DUP1 PUSH1 0x1F LT PUSH2 0x2E83 JUMPI PUSH2 0x100 DUP1 DUP4 SLOAD DIV MUL DUP4 MSTORE SWAP2 PUSH1 0x20 ADD SWAP2 PUSH2 0x2EAE JUMP JUMPDEST DUP3 ADD SWAP2 SWAP1 PUSH1 0x0 MSTORE PUSH1 0x20 PUSH1 0x0 KECCAK256 SWAP1 JUMPDEST DUP2 SLOAD DUP2 MSTORE SWAP1 PUSH1 0x1 ADD SWAP1 PUSH1 0x20 ADD DUP1 DUP4 GT PUSH2 0x2E91 JUMPI DUP3 SWAP1 SUB PUSH1 0x1F AND DUP3 ADD SWAP2 JUMPDEST POP POP POP SWAP2 DUP4 MSTORE POP POP PUSH1 0x2 DUP3 ADD SLOAD PUSH1 0xFF DUP2 AND ISZERO ISZERO PUSH1 0x20 DUP1 DUP5 ADD SWAP2 SWAP1 SWAP2 MSTORE PUSH2 0x100 SWAP1 SWAP2 DIV PUSH1 0x1 PUSH1 0x1 PUSH1 0xA0 SHL SUB AND PUSH1 0x40 DUP1 DUP5 ADD SWAP2 SWAP1 SWAP2 MSTORE PUSH1 0x3 DUP5 ADD SLOAD PUSH1 0x60 DUP5 ADD MSTORE PUSH1 0x4 DUP5 ADD SLOAD PUSH1 0x80 DUP5 ADD MSTORE PUSH1 0x5 DUP5 ADD SLOAD PUSH1 0xA0 DUP5 ADD MSTORE PUSH1 0x6 DUP5 ADD DUP1 SLOAD DUP3 MLOAD DUP2 DUP6 MUL DUP2 ADD DUP6 ADD SWAP1 SWAP4 MSTORE DUP1 DUP4 MSTORE PUSH1 0xC0 SWAP1 SWAP5 ADD SWAP4 SWAP2 SWAP3 SWAP1 SWAP2 SWAP1 DUP4 ADD DUP3 DUP3 DUP1 ISZERO PUSH2 0x2F7B JUMPI PUSH1 0x20 MUL DUP3 ADD SWAP2 SWAP1 PUSH1 0x0 MSTORE PUSH1 0x20 PUSH1 0x0 KECCAK256 SWAP1 PUSH1 0x0 SWAP1 JUMPDEST DUP3 DUP3 SWAP1 SLOAD SWAP1 PUSH2 0x100 EXP SWAP1 DIV PUSH4 0xFFFFFFFF AND PUSH4 0xFFFFFFFF AND DUP2 MSTORE PUSH1 0x20 ADD SWAP1 PUSH1 0x4 ADD SWAP1 PUSH1 0x20 DUP3 PUSH1 0x3 ADD DIV SWAP3 DUP4 ADD SWAP3 PUSH1 0x1 SUB DUP3 MUL SWAP2 POP DUP1 DUP5 GT PUSH2 0x2F3E JUMPI SWAP1 POP JUMPDEST POP POP POP SWAP2 DUP4 MSTORE POP POP PUSH1 0x7 DUP3 ADD SLOAD PUSH4 0xFFFFFFFF AND PUSH1 0x20 DUP1 DUP4 ADD SWAP2 SWAP1 SWAP2 MSTORE PUSH1 0x8 DUP4 ADD DUP1 SLOAD PUSH1 0x40 DUP1 MLOAD DUP3 DUP6 MUL DUP2 ADD DUP6 ADD DUP3 MSTORE DUP3 DUP2 MSTORE SWAP5 ADD SWAP4 SWAP3 DUP4 ADD DUP3 DUP3 DUP1 ISZERO PUSH2 0x300C JUMPI PUSH1 0x20 MUL DUP3 ADD SWAP2 SWAP1 PUSH1 0x0 MSTORE PUSH1 0x20 PUSH1 0x0 KECCAK256 SWAP1 PUSH1 0x0 SWAP1 JUMPDEST DUP3 DUP3 SWAP1 SLOAD SWAP1 PUSH2 0x100 EXP SWAP1 DIV PUSH4 0xFFFFFFFF AND PUSH4 0xFFFFFFFF AND DUP2 MSTORE PUSH1 0x20 ADD SWAP1 PUSH1 0x4 ADD SWAP1 PUSH1 0x20 DUP3 PUSH1 0x3 ADD DIV SWAP3 DUP4 ADD SWAP3 PUSH1 0x1 SUB DUP3 MUL SWAP2 POP DUP1 DUP5 GT PUSH2 0x2FCF JUMPI SWAP1 POP JUMPDEST POP POP POP POP POP DUP2 MSTORE PUSH1 0x20 ADD PUSH1 0x9 DUP3 ADD DUP1 SLOAD DUP1 PUSH1 0x20 MUL PUSH1 0x20 ADD PUSH1 0x40 MLOAD SWAP1 DUP2 ADD PUSH1 0x40 MSTORE DUP1 SWAP3 SWAP2 SWAP1 DUP2 DUP2 MSTORE PUSH1 0x20 ADD DUP3 DUP1 SLOAD DUP1 ISZERO PUSH2 0x3090 JUMPI PUSH1 0x20 MUL DUP3 ADD SWAP2 SWAP1 PUSH1 0x0 MSTORE PUSH1 0x20 PUSH1 0x0 KECCAK256 SWAP1 PUSH1 0x0 SWAP1 JUMPDEST DUP3 DUP3 SWAP1 SLOAD SWAP1 PUSH2 0x100 EXP SWAP1 DIV PUSH4 0xFFFFFFFF AND PUSH4 0xFFFFFFFF AND DUP2 MSTORE PUSH1 0x20 ADD SWAP1 PUSH1 0x4 ADD SWAP1 PUSH1 0x20 DUP3 PUSH1 0x3 ADD DIV SWAP3 DUP4 ADD SWAP3 PUSH1 0x1 SUB DUP3 MUL SWAP2 POP DUP1 DUP5 GT PUSH2 0x3053 JUMPI SWAP1 POP JUMPDEST POP POP POP POP POP DUP2 MSTORE PUSH1 0x20 ADD PUSH1 0xA DUP3 ADD DUP1 SLOAD DUP1 PUSH1 0x20 MUL PUSH1 0x20 ADD PUSH1 0x40 MLOAD SWAP1 DUP2 ADD PUSH1 0x40 MSTORE DUP1 SWAP3 SWAP2 SWAP1 DUP2 DUP2 MSTORE PUSH1 0x20 ADD DUP3 DUP1 SLOAD DUP1 ISZERO PUSH2 0x3114 JUMPI PUSH1 0x20 MUL DUP3 ADD SWAP2 SWAP1 PUSH1 0x0 MSTORE PUSH1 0x20 PUSH1 0x0 KECCAK256 SWAP1 PUSH1 0x0 SWAP1 JUMPDEST DUP3 DUP3 SWAP1 SLOAD SWAP1 PUSH2 0x100 EXP SWAP1 DIV PUSH4 0xFFFFFFFF AND PUSH4 0xFFFFFFFF AND DUP2 MSTORE PUSH1 0x20 ADD SWAP1 PUSH1 0x4 ADD SWAP1 PUSH1 0x20 DUP3 PUSH1 0x3 ADD DIV SWAP3 DUP4 ADD SWAP3 PUSH1 0x1 SUB DUP3 MUL SWAP2 POP DUP1 DUP5 GT PUSH2 0x30D7 JUMPI SWAP1 POP JUMPDEST POP POP POP SWAP2 DUP4 MSTORE POP POP PUSH1 0xB DUP3 ADD SLOAD PUSH1 0x20 DUP3 ADD MSTORE PUSH1 0xC DUP3 ADD SLOAD PUSH1 0x40 DUP3 ADD MSTORE PUSH1 0xD DUP3 ADD SLOAD PUSH1 0x60 DUP3 ADD MSTORE PUSH1 0xE DUP3 ADD SLOAD PUSH1 0x80 DUP3 ADD MSTORE PUSH1 0xF DUP3 ADD SLOAD PUSH1 0xA0 DUP3 ADD MSTORE PUSH1 0x10 DUP3 ADD SLOAD PUSH1 0xC0 DUP3 ADD MSTORE PUSH1 0x11 DUP3 ADD SLOAD PUSH1 0xE0 DUP3 ADD MSTORE PUSH1 0x12 DUP3 ADD SLOAD PUSH2 0x100 DUP3 ADD MSTORE PUSH1 0x13 DUP3 ADD SLOAD PUSH1 0xFF AND PUSH2 0x120 DUP3 ADD MSTORE PUSH1 0x14 DUP3 ADD SLOAD PUSH2 0x140 DUP3 ADD MSTORE PUSH1 0x15 DUP3 ADD SLOAD PUSH2 0x160 DUP3 ADD MSTORE PUSH1 0x16 DUP3 ADD SLOAD PUSH2 0x180 DUP3 ADD MSTORE PUSH1 0x17 DUP3 ADD SLOAD PUSH2 0x1A0 DUP3 ADD MSTORE PUSH1 0x18 DUP3 ADD SLOAD PUSH2 0x1C0 DUP3 ADD MSTORE PUSH1 0x19 DUP3 ADD SLOAD PUSH2 0x1E0 DUP3 ADD MSTORE PUSH1 0x1A DUP3 ADD SLOAD PUSH2 0x200 DUP3 ADD MSTORE PUSH1 0x1B DUP3 ADD SLOAD PUSH2 0x220 DUP3 ADD MSTORE PUSH1 0x1C DUP3 ADD SLOAD PUSH2 0x240 DUP3 ADD MSTORE PUSH1 0x1D SWAP1 SWAP2 ADD SLOAD PUSH2 0x260 SWAP1 SWAP2 ADD MSTORE SWAP3 SWAP2 POP POP JUMP JUMPDEST PUSH1 0x40 DUP1 MLOAD DUP1 DUP3 ADD SWAP1 SWAP2 MSTORE PUSH1 0x0 DUP2 MSTORE PUSH1 0x60 PUSH1 0x20 DUP3 ADD MSTORE PUSH1 0x1 PUSH1 0x1 PUSH1 0xA0 SHL SUB DUP3 AND PUSH1 0x0 SWAP1 DUP2 MSTORE PUSH1 0xDA PUSH1 0x20 SWAP1 DUP2 MSTORE PUSH1 0x40 SWAP2 DUP3 SWAP1 KECCAK256 DUP3 MLOAD DUP1 DUP5 ADD DUP5 MSTORE DUP2 SLOAD PUSH1 0xFF AND ISZERO ISZERO DUP2 MSTORE PUSH1 0x1 DUP3 ADD DUP1 SLOAD DUP6 MLOAD DUP2 DUP7 MUL DUP2 ADD DUP7 ADD SWAP1 SWAP7 MSTORE DUP1 DUP7 MSTORE SWAP2 SWAP5 SWAP3 SWAP4 DUP6 DUP2 ADD SWAP4 SWAP3 SWAP1 DUP4 ADD DUP3 DUP3 DUP1 ISZERO PUSH2 0x32AC JUMPI PUSH1 0x20 MUL DUP3 ADD SWAP2 SWAP1 PUSH1 0x0 MSTORE PUSH1 0x20 PUSH1 0x0 KECCAK256 SWAP1 PUSH1 0x0 SWAP1 JUMPDEST DUP3 DUP3 SWAP1 SLOAD SWAP1 PUSH2 0x100 EXP SWAP1 DIV PUSH4 0xFFFFFFFF AND PUSH4 0xFFFFFFFF AND DUP2 MSTORE PUSH1 0x20 ADD SWAP1 PUSH1 0x4 ADD SWAP1 PUSH1 0x20 DUP3 PUSH1 0x3 ADD DIV SWAP3 DUP4 ADD SWAP3 PUSH1 0x1 SUB DUP3 MUL SWAP2 POP DUP1 DUP5 GT PUSH2 0x326F JUMPI SWAP1 POP JUMPDEST POP POP POP POP POP DUP2 MSTORE POP POP SWAP1 POP SWAP2 SWAP1 POP JUMP JUMPDEST PUSH1 0x33 SLOAD PUSH1 0x1 PUSH1 0x1 PUSH1 0xA0 SHL SUB AND CALLER EQ PUSH2 0x1219 JUMPI PUSH1 0x40 MLOAD PUSH3 0x461BCD PUSH1 0xE5 SHL DUP2 MSTORE PUSH1 0x20 PUSH1 0x4 DUP3 ADD DUP2 SWAP1 MSTORE PUSH1 0x24 DUP3 ADD MSTORE PUSH32 0x4F776E61626C653A2063616C6C6572206973206E6F7420746865206F776E6572 PUSH1 0x44 DUP3 ADD MSTORE PUSH1 0x64 ADD PUSH2 0xAD1 JUMP JUMPDEST PUSH1 0x0 DUP1 MLOAD PUSH1 0x20 PUSH2 0x56BA DUP4 CODECOPY DUP2 MLOAD SWAP2 MSTORE SLOAD PUSH1 0x1 PUSH1 0x1 PUSH1 0xA0 SHL SUB AND SWAP1 JUMP JUMPDEST PUSH2 0xB5E PUSH2 0x32BC JUMP JUMPDEST PUSH32 0x4910FDFA16FED3260ED0E7147F7CC6DA11A60208B5B9406D12A635614FFD9143 SLOAD PUSH1 0xFF AND ISZERO PUSH2 0x336D JUMPI PUSH2 0xA09 DUP4 PUSH2 0x4000 JUMP JUMPDEST DUP3 PUSH1 0x1 PUSH1 0x1 PUSH1 0xA0 SHL SUB AND PUSH4 0x52D1902D PUSH1 0x40 MLOAD DUP2 PUSH4 0xFFFFFFFF AND PUSH1 0xE0 SHL DUP2 MSTORE PUSH1 0x4 ADD PUSH1 0x20 PUSH1 0x40 MLOAD DUP1 DUP4 SUB DUP2 DUP7 GAS STATICCALL SWAP3 POP POP POP DUP1 ISZERO PUSH2 0x33C7 JUMPI POP PUSH1 0x40 DUP1 MLOAD PUSH1 0x1F RETURNDATASIZE SWAP1 DUP2 ADD PUSH1 0x1F NOT AND DUP3 ADD SWAP1 SWAP3 MSTORE PUSH2 0x33C4 SWAP2 DUP2 ADD SWAP1 PUSH2 0x5604 JUMP JUMPDEST PUSH1 0x1 JUMPDEST PUSH2 0x342A JUMPI PUSH1 0x40 MLOAD PUSH3 0x461BCD PUSH1 0xE5 SHL DUP2 MSTORE PUSH1 0x20 PUSH1 0x4 DUP3 ADD MSTORE PUSH1 0x2E PUSH1 0x24 DUP3 ADD MSTORE PUSH32 0x45524331393637557067726164653A206E657720696D706C656D656E74617469 PUSH1 0x44 DUP3 ADD MSTORE PUSH14 0x6F6E206973206E6F742055555053 PUSH1 0x90 SHL PUSH1 0x64 DUP3 ADD MSTORE PUSH1 0x84 ADD PUSH2 0xAD1 JUMP JUMPDEST PUSH1 0x0 DUP1 MLOAD PUSH1 0x20 PUSH2 0x56BA DUP4 CODECOPY DUP2 MLOAD SWAP2 MSTORE DUP2 EQ PUSH2 0x3499 JUMPI PUSH1 0x40 MLOAD PUSH3 0x461BCD PUSH1 0xE5 SHL DUP2 MSTORE PUSH1 0x20 PUSH1 0x4 DUP3 ADD MSTORE PUSH1 0x29 PUSH1 0x24 DUP3 ADD MSTORE PUSH32 0x45524331393637557067726164653A20756E737570706F727465642070726F78 PUSH1 0x44 DUP3 ADD MSTORE PUSH9 0x1A58589B1955555251 PUSH1 0xBA SHL PUSH1 0x64 DUP3 ADD MSTORE PUSH1 0x84 ADD PUSH2 0xAD1 JUMP JUMPDEST POP PUSH2 0xA09 DUP4 DUP4 DUP4 PUSH2 0x409A JUMP JUMPDEST PUSH1 0x33 DUP1 SLOAD PUSH1 0x1 PUSH1 0x1 PUSH1 0xA0 SHL SUB DUP4 DUP2 AND PUSH1 0x1 PUSH1 0x1 PUSH1 0xA0 SHL SUB NOT DUP4 AND DUP2 OR SWAP1 SWAP4 SSTORE PUSH1 0x40 MLOAD SWAP2 AND SWAP2 SWAP1 DUP3 SWAP1 PUSH32 0x8BE0079C531659141344CD1FD0A4F28419497F9722A3DAAFE3B4186F6B6457E0 SWAP1 PUSH1 0x0 SWAP1 LOG3 POP POP JUMP JUMPDEST PUSH1 0xD9 SLOAD PUSH1 0x0 SWAP1 PUSH1 0xFF AND DUP2 JUMPDEST DUP2 PUSH1 0xFF AND DUP2 PUSH1 0xFF AND LT ISZERO PUSH2 0x24F4 JUMPI PUSH1 0xFF DUP2 AND PUSH1 0x0 SWAP1 DUP2 MSTORE PUSH1 0xDD PUSH1 0x20 MSTORE PUSH1 0x40 SWAP1 KECCAK256 PUSH1 0x1 ADD SLOAD PUSH2 0x180 DUP6 ADD MLOAD LT DUP1 ISZERO SWAP1 PUSH2 0x3554 JUMPI POP PUSH1 0xFF DUP2 AND PUSH1 0x0 SWAP1 DUP2 MSTORE PUSH1 0xDD PUSH1 0x20 MSTORE PUSH1 0x40 SWAP1 KECCAK256 PUSH1 0x2 ADD SLOAD PUSH2 0x1C0 DUP6 ADD MLOAD LT ISZERO JUMPDEST DUP1 ISZERO PUSH2 0x357A JUMPI POP PUSH1 0xFF DUP2 AND PUSH1 0x0 SWAP1 DUP2 MSTORE PUSH1 0xDD PUSH1 0x20 MSTORE PUSH1 0x40 SWAP1 KECCAK256 PUSH1 0x3 ADD SLOAD PUSH2 0x200 DUP6 ADD MLOAD LT ISZERO JUMPDEST ISZERO PUSH2 0x3587 JUMPI DUP1 SWAP3 POP PUSH2 0x358C JUMP JUMPDEST PUSH2 0x24F4 JUMP JUMPDEST DUP1 PUSH2 0x3596 DUP2 PUSH2 0x52FE JUMP JUMPDEST SWAP2 POP POP PUSH2 0x3502 JUMP JUMPDEST PUSH1 0x1 PUSH1 0x1 PUSH1 0xA0 SHL SUB AND EXTCODESIZE ISZERO ISZERO SWAP1 JUMP JUMPDEST PUSH1 0x0 SLOAD PUSH2 0x100 SWAP1 DIV PUSH1 0xFF AND PUSH2 0x35D4 JUMPI PUSH1 0x40 MLOAD PUSH3 0x461BCD PUSH1 0xE5 SHL DUP2 MSTORE PUSH1 0x4 ADD PUSH2 0xAD1 SWAP1 PUSH2 0x561D JUMP JUMPDEST PUSH2 0x1219 PUSH2 0x40BF JUMP JUMPDEST PUSH1 0x0 SLOAD PUSH2 0x100 SWAP1 DIV PUSH1 0xFF AND PUSH2 0x1219 JUMPI PUSH1 0x40 MLOAD PUSH3 0x461BCD PUSH1 0xE5 SHL DUP2 MSTORE PUSH1 0x4 ADD PUSH2 0xAD1 SWAP1 PUSH2 0x561D JUMP JUMPDEST PUSH2 0x120 DUP2 ADD MLOAD MLOAD PUSH1 0x0 SWAP1 DUP2 DUP2 ISZERO PUSH2 0x1FEC JUMPI PUSH1 0xD4 SLOAD PUSH1 0x1 SWAP1 PUSH2 0x362E SWAP1 PUSH4 0x1000000 SWAP1 DIV PUSH1 0xFF AND DUP5 PUSH2 0x55BE JUMP JUMPDEST PUSH2 0x3638 SWAP2 SWAP1 PUSH2 0x52C0 JUMP JUMPDEST SWAP5 SWAP4 POP POP POP POP JUMP JUMPDEST PUSH1 0x0 DUP1 PUSH1 0xC9 PUSH1 0x0 SWAP1 SLOAD SWAP1 PUSH2 0x100 EXP SWAP1 DIV PUSH1 0x1 PUSH1 0x1 PUSH1 0xA0 SHL SUB AND PUSH1 0x1 PUSH1 0x1 PUSH1 0xA0 SHL SUB AND PUSH4 0xE1AA6036 PUSH1 0x40 MLOAD DUP2 PUSH4 0xFFFFFFFF AND PUSH1 0xE0 SHL DUP2 MSTORE PUSH1 0x4 ADD PUSH1 0x20 PUSH1 0x40 MLOAD DUP1 DUP4 SUB DUP2 DUP7 GAS STATICCALL ISZERO DUP1 ISZERO PUSH2 0x3696 JUMPI RETURNDATASIZE PUSH1 0x0 DUP1 RETURNDATACOPY RETURNDATASIZE PUSH1 0x0 REVERT JUMPDEST POP POP POP POP PUSH1 0x40 MLOAD RETURNDATASIZE PUSH1 0x1F NOT PUSH1 0x1F DUP3 ADD AND DUP3 ADD DUP1 PUSH1 0x40 MSTORE POP DUP2 ADD SWAP1 PUSH2 0x36BA SWAP2 SWAP1 PUSH2 0x5604 JUMP JUMPDEST PUSH2 0x36CC DUP5 PUSH8 0xDE0B6B3A7640000 PUSH2 0x55BE JUMP JUMPDEST PUSH2 0x1FEC SWAP2 SWAP1 PUSH2 0x5668 JUMP JUMPDEST PUSH1 0x0 DUP1 PUSH8 0xDE0B6B3A7640000 PUSH1 0xC9 PUSH1 0x0 SWAP1 SLOAD SWAP1 PUSH2 0x100 EXP SWAP1 DIV PUSH1 0x1 PUSH1 0x1 PUSH1 0xA0 SHL SUB AND PUSH1 0x1 PUSH1 0x1 PUSH1 0xA0 SHL SUB AND PUSH4 0xE1AA6036 PUSH1 0x40 MLOAD DUP2 PUSH4 0xFFFFFFFF AND PUSH1 0xE0 SHL DUP2 MSTORE PUSH1 0x4 ADD PUSH1 0x20 PUSH1 0x40 MLOAD DUP1 DUP4 SUB DUP2 DUP7 GAS STATICCALL ISZERO DUP1 ISZERO PUSH2 0x3735 JUMPI RETURNDATASIZE PUSH1 0x0 DUP1 RETURNDATACOPY RETURNDATASIZE PUSH1 0x0 REVERT JUMPDEST POP POP POP POP PUSH1 0x40 MLOAD RETURNDATASIZE PUSH1 0x1F NOT PUSH1 0x1F DUP3 ADD AND DUP3 ADD DUP1 PUSH1 0x40 MSTORE POP DUP2 ADD SWAP1 PUSH2 0x3759 SWAP2 SWAP1 PUSH2 0x5604 JUMP JUMPDEST PUSH2 0x36CC SWAP1 DUP6 PUSH2 0x55BE JUMP JUMPDEST PUSH4 0xFFFFFFFF DUP4 DUP2 AND PUSH1 0x0 DUP2 DUP2 MSTORE PUSH1 0xDC PUSH1 0x20 SWAP1 DUP2 MSTORE PUSH1 0x40 DUP1 DUP4 KECCAK256 DUP10 DUP7 AND DUP1 DUP6 MSTORE PUSH1 0xDB DUP5 MSTORE SWAP2 DUP5 KECCAK256 DUP2 SLOAD PUSH1 0x1 PUSH5 0xFFFFFFFFFF NOT SWAP1 SWAP2 AND PUSH2 0x100 SWAP5 DUP6 MUL OR DUP2 OR DUP4 SSTORE DUP1 DUP4 ADD DUP11 SWAP1 SSTORE PUSH1 0xD1 DUP1 SLOAD PUSH1 0x2 DUP6 ADD DUP1 SLOAD PUSH1 0x1 PUSH1 0x60 SHL SWAP1 SWAP3 DIV PUSH2 0xFFFF AND PUSH2 0xFFFF NOT SWAP1 SWAP3 AND SWAP2 SWAP1 SWAP2 OR SWAP1 SSTORE PUSH1 0x3 DUP5 ADD DUP11 SWAP1 SSTORE PUSH1 0xD2 SLOAD PUSH1 0x4 DUP1 DUP7 ADD SWAP2 SWAP1 SWAP2 SSTORE PUSH1 0x6 DUP5 ADD DUP1 SLOAD SWAP4 DUP5 ADD DUP2 SSTORE DUP9 MSTORE SWAP6 SWAP1 SWAP7 KECCAK256 PUSH1 0x8 DUP1 DUP4 DIV SWAP1 SWAP2 ADD DUP1 SLOAD PUSH1 0x7 SWAP1 SWAP4 AND SWAP1 SWAP7 MUL SWAP1 SWAP5 EXP DUP1 DUP10 MUL NOT SWAP1 SWAP2 AND SWAP7 MUL SWAP6 SWAP1 SWAP6 OR SWAP1 SWAP3 SSTORE DUP3 SLOAD SWAP2 SWAP5 PUSH1 0x1 PUSH1 0x40 SHL SWAP1 SWAP3 DIV SWAP1 SWAP2 AND SWAP2 SWAP1 PUSH2 0x382E DUP4 PUSH2 0x53D9 JUMP JUMPDEST SWAP2 SWAP1 PUSH2 0x100 EXP DUP2 SLOAD DUP2 PUSH4 0xFFFFFFFF MUL NOT AND SWAP1 DUP4 PUSH4 0xFFFFFFFF AND MUL OR SWAP1 SSTORE POP POP POP POP POP POP POP POP JUMP JUMPDEST PUSH1 0xCB SLOAD PUSH4 0xFFFFFFFF DUP5 AND PUSH1 0x0 SWAP1 DUP2 MSTORE PUSH1 0xDB PUSH1 0x20 MSTORE PUSH1 0x40 SWAP1 KECCAK256 PUSH3 0x10000 SWAP1 SWAP2 DIV PUSH1 0xFF AND SWAP1 PUSH2 0x3883 DUP5 PUSH1 0x2 PUSH2 0x55BE JUMP JUMPDEST DUP2 PUSH1 0x1A ADD DUP2 SWAP1 SSTORE POP DUP4 DUP2 PUSH1 0xB ADD PUSH1 0x0 DUP3 DUP3 SLOAD PUSH2 0x389F SWAP2 SWAP1 PUSH2 0x55AB JUMP JUMPDEST SWAP3 POP POP DUP2 SWAP1 SSTORE POP DUP4 DUP2 PUSH1 0x17 ADD PUSH1 0x0 DUP3 DUP3 SLOAD PUSH2 0x38BA SWAP2 SWAP1 PUSH2 0x55AB JUMP JUMPDEST SWAP1 SWAP2 SSTORE POP PUSH1 0x0 SWAP1 POP JUMPDEST DUP3 DUP2 LT ISZERO PUSH2 0x2CE9 JUMPI PUSH1 0x7 DUP3 ADD SLOAD PUSH4 0xFFFFFFFF SWAP1 DUP2 AND PUSH1 0x0 DUP2 DUP2 MSTORE PUSH1 0xDB PUSH1 0x20 MSTORE PUSH1 0x40 DUP2 KECCAK256 DUP1 SLOAD SWAP3 SWAP4 SWAP1 SWAP3 AND SWAP1 SUB PUSH2 0x38FA JUMPI POP POP PUSH2 0x2CE9 JUMP JUMPDEST DUP3 PUSH1 0x0 SUB PUSH2 0x391C JUMPI DUP7 DUP2 PUSH1 0xD ADD PUSH1 0x0 DUP3 DUP3 SLOAD PUSH2 0x3916 SWAP2 SWAP1 PUSH2 0x55AB JUMP JUMPDEST SWAP1 SWAP2 SSTORE POP POP JUMPDEST DUP7 DUP2 PUSH1 0xF ADD PUSH1 0x0 DUP3 DUP3 SLOAD PUSH2 0x3930 SWAP2 SWAP1 PUSH2 0x55AB JUMP JUMPDEST SWAP1 SWAP2 SSTORE POP POP PUSH1 0xD4 SLOAD PUSH2 0x100 SWAP1 DIV PUSH1 0xFF AND ISZERO PUSH2 0x3951 JUMPI PUSH2 0x3951 DUP2 DUP4 DUP10 DUP10 PUSH2 0x40EF JUMP JUMPDEST PUSH2 0x395B DUP8 DUP8 PUSH2 0x4783 JUMP JUMPDEST SWAP3 POP DUP2 SWAP1 POP PUSH2 0x3969 DUP2 PUSH2 0x55D5 JUMP JUMPDEST SWAP2 POP POP PUSH2 0x38C3 JUMP JUMPDEST PUSH4 0xFFFFFFFF DUP1 DUP3 AND PUSH1 0x0 SWAP1 DUP2 MSTORE PUSH1 0xDB PUSH1 0x20 SWAP1 DUP2 MSTORE PUSH1 0x40 DUP1 DUP4 KECCAK256 DUP2 MLOAD PUSH2 0x3E0 DUP2 ADD SWAP1 SWAP3 MSTORE DUP1 SLOAD SWAP1 SWAP5 AND DUP2 MSTORE PUSH1 0x1 DUP5 ADD DUP1 SLOAD SWAP4 SWAP5 DUP6 SWAP5 SWAP3 SWAP4 SWAP1 SWAP3 SWAP1 DUP5 ADD SWAP2 SWAP1 PUSH2 0x39B7 SWAP1 PUSH2 0x53FC JUMP JUMPDEST DUP1 PUSH1 0x1F ADD PUSH1 0x20 DUP1 SWAP2 DIV MUL PUSH1 0x20 ADD PUSH1 0x40 MLOAD SWAP1 DUP2 ADD PUSH1 0x40 MSTORE DUP1 SWAP3 SWAP2 SWAP1 DUP2 DUP2 MSTORE PUSH1 0x20 ADD DUP3 DUP1 SLOAD PUSH2 0x39E3 SWAP1 PUSH2 0x53FC JUMP JUMPDEST DUP1 ISZERO PUSH2 0x3A30 JUMPI DUP1 PUSH1 0x1F LT PUSH2 0x3A05 JUMPI PUSH2 0x100 DUP1 DUP4 SLOAD DIV MUL DUP4 MSTORE SWAP2 PUSH1 0x20 ADD SWAP2 PUSH2 0x3A30 JUMP JUMPDEST DUP3 ADD SWAP2 SWAP1 PUSH1 0x0 MSTORE PUSH1 0x20 PUSH1 0x0 KECCAK256 SWAP1 JUMPDEST DUP2 SLOAD DUP2 MSTORE SWAP1 PUSH1 0x1 ADD SWAP1 PUSH1 0x20 ADD DUP1 DUP4 GT PUSH2 0x3A13 JUMPI DUP3 SWAP1 SUB PUSH1 0x1F AND DUP3 ADD SWAP2 JUMPDEST POP POP POP SWAP2 DUP4 MSTORE POP POP PUSH1 0x2 DUP3 ADD SLOAD PUSH1 0xFF DUP2 AND ISZERO ISZERO PUSH1 0x20 DUP1 DUP5 ADD SWAP2 SWAP1 SWAP2 MSTORE PUSH2 0x100 SWAP1 SWAP2 DIV PUSH1 0x1 PUSH1 0x1 PUSH1 0xA0 SHL SUB AND PUSH1 0x40 DUP1 DUP5 ADD SWAP2 SWAP1 SWAP2 MSTORE PUSH1 0x3 DUP5 ADD SLOAD PUSH1 0x60 DUP5 ADD MSTORE PUSH1 0x4 DUP5 ADD SLOAD PUSH1 0x80 DUP5 ADD MSTORE PUSH1 0x5 DUP5 ADD SLOAD PUSH1 0xA0 DUP5 ADD MSTORE PUSH1 0x6 DUP5 ADD DUP1 SLOAD DUP3 MLOAD DUP2 DUP6 MUL DUP2 ADD DUP6 ADD SWAP1 SWAP4 MSTORE DUP1 DUP4 MSTORE PUSH1 0xC0 SWAP1 SWAP5 ADD SWAP4 SWAP2 SWAP3 SWAP1 SWAP2 SWAP1 DUP4 ADD DUP3 DUP3 DUP1 ISZERO PUSH2 0x3AFD JUMPI PUSH1 0x20 MUL DUP3 ADD SWAP2 SWAP1 PUSH1 0x0 MSTORE PUSH1 0x20 PUSH1 0x0 KECCAK256 SWAP1 PUSH1 0x0 SWAP1 JUMPDEST DUP3 DUP3 SWAP1 SLOAD SWAP1 PUSH2 0x100 EXP SWAP1 DIV PUSH4 0xFFFFFFFF AND PUSH4 0xFFFFFFFF AND DUP2 MSTORE PUSH1 0x20 ADD SWAP1 PUSH1 0x4 ADD SWAP1 PUSH1 0x20 DUP3 PUSH1 0x3 ADD DIV SWAP3 DUP4 ADD SWAP3 PUSH1 0x1 SUB DUP3 MUL SWAP2 POP DUP1 DUP5 GT PUSH2 0x3AC0 JUMPI SWAP1 POP JUMPDEST POP POP POP SWAP2 DUP4 MSTORE POP POP PUSH1 0x7 DUP3 ADD SLOAD PUSH4 0xFFFFFFFF AND PUSH1 0x20 DUP1 DUP4 ADD SWAP2 SWAP1 SWAP2 MSTORE PUSH1 0x8 DUP4 ADD DUP1 SLOAD PUSH1 0x40 DUP1 MLOAD DUP3 DUP6 MUL DUP2 ADD DUP6 ADD DUP3 MSTORE DUP3 DUP2 MSTORE SWAP5 ADD SWAP4 SWAP3 DUP4 ADD DUP3 DUP3 DUP1 ISZERO PUSH2 0x3B8E JUMPI PUSH1 0x20 MUL DUP3 ADD SWAP2 SWAP1 PUSH1 0x0 MSTORE PUSH1 0x20 PUSH1 0x0 KECCAK256 SWAP1 PUSH1 0x0 SWAP1 JUMPDEST DUP3 DUP3 SWAP1 SLOAD SWAP1 PUSH2 0x100 EXP SWAP1 DIV PUSH4 0xFFFFFFFF AND PUSH4 0xFFFFFFFF AND DUP2 MSTORE PUSH1 0x20 ADD SWAP1 PUSH1 0x4 ADD SWAP1 PUSH1 0x20 DUP3 PUSH1 0x3 ADD DIV SWAP3 DUP4 ADD SWAP3 PUSH1 0x1 SUB DUP3 MUL SWAP2 POP DUP1 DUP5 GT PUSH2 0x3B51 JUMPI SWAP1 POP JUMPDEST POP POP POP POP POP DUP2 MSTORE PUSH1 0x20 ADD PUSH1 0x9 DUP3 ADD DUP1 SLOAD DUP1 PUSH1 0x20 MUL PUSH1 0x20 ADD PUSH1 0x40 MLOAD SWAP1 DUP2 ADD PUSH1 0x40 MSTORE DUP1 SWAP3 SWAP2 SWAP1 DUP2 DUP2 MSTORE PUSH1 0x20 ADD DUP3 DUP1 SLOAD DUP1 ISZERO PUSH2 0x3C12 JUMPI PUSH1 0x20 MUL DUP3 ADD SWAP2 SWAP1 PUSH1 0x0 MSTORE PUSH1 0x20 PUSH1 0x0 KECCAK256 SWAP1 PUSH1 0x0 SWAP1 JUMPDEST DUP3 DUP3 SWAP1 SLOAD SWAP1 PUSH2 0x100 EXP SWAP1 DIV PUSH4 0xFFFFFFFF AND PUSH4 0xFFFFFFFF AND DUP2 MSTORE PUSH1 0x20 ADD SWAP1 PUSH1 0x4 ADD SWAP1 PUSH1 0x20 DUP3 PUSH1 0x3 ADD DIV SWAP3 DUP4 ADD SWAP3 PUSH1 0x1 SUB DUP3 MUL SWAP2 POP DUP1 DUP5 GT PUSH2 0x3BD5 JUMPI SWAP1 POP JUMPDEST POP POP POP POP POP DUP2 MSTORE PUSH1 0x20 ADD PUSH1 0xA DUP3 ADD DUP1 SLOAD DUP1 PUSH1 0x20 MUL PUSH1 0x20 ADD PUSH1 0x40 MLOAD SWAP1 DUP2 ADD PUSH1 0x40 MSTORE DUP1 SWAP3 SWAP2 SWAP1 DUP2 DUP2 MSTORE PUSH1 0x20 ADD DUP3 DUP1 SLOAD DUP1 ISZERO PUSH2 0x3C96 JUMPI PUSH1 0x20 MUL DUP3 ADD SWAP2 SWAP1 PUSH1 0x0 MSTORE PUSH1 0x20 PUSH1 0x0 KECCAK256 SWAP1 PUSH1 0x0 SWAP1 JUMPDEST DUP3 DUP3 SWAP1 SLOAD SWAP1 PUSH2 0x100 EXP SWAP1 DIV PUSH4 0xFFFFFFFF AND PUSH4 0xFFFFFFFF AND DUP2 MSTORE PUSH1 0x20 ADD SWAP1 PUSH1 0x4 ADD SWAP1 PUSH1 0x20 DUP3 PUSH1 0x3 ADD DIV SWAP3 DUP4 ADD SWAP3 PUSH1 0x1 SUB DUP3 MUL SWAP2 POP DUP1 DUP5 GT PUSH2 0x3C59 JUMPI SWAP1 POP JUMPDEST POP POP POP SWAP2 DUP4 MSTORE POP POP PUSH1 0xB DUP3 ADD SLOAD PUSH1 0x20 DUP3 ADD MSTORE PUSH1 0xC DUP3 ADD SLOAD PUSH1 0x40 DUP3 ADD MSTORE PUSH1 0xD DUP3 ADD SLOAD PUSH1 0x60 DUP3 ADD MSTORE PUSH1 0xE DUP3 ADD SLOAD PUSH1 0x80 DUP3 ADD MSTORE PUSH1 0xF DUP3 ADD SLOAD PUSH1 0xA0 DUP3 ADD MSTORE PUSH1 0x10 DUP3 ADD SLOAD PUSH1 0xC0 DUP3 ADD MSTORE PUSH1 0x11 DUP3 ADD SLOAD PUSH1 0xE0 DUP1 DUP4 ADD SWAP2 SWAP1 SWAP2 MSTORE PUSH1 0x12 DUP4 ADD SLOAD PUSH2 0x100 DUP4 ADD MSTORE PUSH1 0x13 DUP4 ADD SLOAD PUSH1 0xFF AND PUSH2 0x120 DUP4 ADD MSTORE PUSH1 0x14 DUP4 ADD SLOAD PUSH2 0x140 DUP4 ADD MSTORE PUSH1 0x15 DUP4 ADD SLOAD PUSH2 0x160 DUP4 ADD MSTORE PUSH1 0x16 DUP4 ADD SLOAD PUSH2 0x180 DUP4 ADD MSTORE PUSH1 0x17 DUP4 ADD SLOAD PUSH2 0x1A0 DUP4 ADD MSTORE PUSH1 0x18 DUP4 ADD SLOAD PUSH2 0x1C0 DUP4 ADD MSTORE PUSH1 0x19 DUP4 ADD SLOAD PUSH2 0x1E0 DUP4 ADD MSTORE PUSH1 0x1A DUP4 ADD SLOAD PUSH2 0x200 DUP4 ADD MSTORE PUSH1 0x1B DUP4 ADD SLOAD PUSH2 0x220 DUP4 ADD MSTORE PUSH1 0x1C DUP4 ADD SLOAD PUSH2 0x240 DUP4 ADD MSTORE PUSH1 0x1D SWAP1 SWAP3 ADD SLOAD PUSH2 0x260 SWAP1 SWAP2 ADD MSTORE DUP2 ADD MLOAD DUP1 MLOAD SWAP2 SWAP3 POP SWAP1 PUSH1 0x0 JUMPDEST DUP2 DUP2 PUSH2 0xFFFF AND LT ISZERO PUSH2 0x3E4F JUMPI PUSH1 0x0 PUSH1 0xDC PUSH1 0x0 DUP6 DUP5 PUSH2 0xFFFF AND DUP2 MLOAD DUP2 LT PUSH2 0x3DA5 JUMPI PUSH2 0x3DA5 PUSH2 0x5294 JUMP JUMPDEST PUSH1 0x20 SWAP1 DUP2 MUL SWAP2 SWAP1 SWAP2 ADD DUP2 ADD MLOAD PUSH4 0xFFFFFFFF AND DUP3 MSTORE DUP2 ADD SWAP2 SWAP1 SWAP2 MSTORE PUSH1 0x40 ADD PUSH1 0x0 SWAP1 DUP2 KECCAK256 PUSH1 0xD2 SLOAD PUSH1 0xCB SLOAD PUSH1 0xD1 SLOAD PUSH1 0x1 DUP5 ADD SLOAD SWAP4 SWAP6 POP TIMESTAMP SWAP5 SWAP4 PUSH2 0xFFFF SWAP3 DUP4 AND SWAP3 PUSH2 0x3DF4 SWAP3 PUSH1 0x1 PUSH1 0x60 SHL SWAP1 DIV AND SWAP1 PUSH2 0x55BE JUMP JUMPDEST PUSH2 0x3DFE SWAP2 SWAP1 PUSH2 0x5668 JUMP JUMPDEST PUSH2 0x3E08 SWAP2 SWAP1 PUSH2 0x5668 JUMP JUMPDEST SWAP1 POP PUSH1 0x0 DUP4 PUSH1 0x3 ADD SLOAD DUP4 PUSH2 0x3E1C SWAP2 SWAP1 PUSH2 0x52C0 JUMP JUMPDEST SWAP1 POP PUSH2 0x3E2C DUP2 DUP6 PUSH1 0x4 ADD SLOAD PUSH2 0x47BD JUMP JUMPDEST PUSH2 0x3E36 SWAP1 DUP4 PUSH2 0x55BE JUMP JUMPDEST SWAP9 POP POP POP POP POP DUP1 DUP1 PUSH2 0x3E47 SWAP1 PUSH2 0x5594 JUMP JUMPDEST SWAP2 POP POP PUSH2 0x3D7D JUMP JUMPDEST POP PUSH2 0x3A0 DUP4 ADD MLOAD PUSH2 0x3E60 SWAP1 DUP6 PUSH2 0x52C0 JUMP JUMPDEST POP POP POP POP SWAP2 SWAP1 POP JUMP JUMPDEST PUSH4 0xFFFFFFFF DUP8 AND PUSH1 0x0 SWAP1 DUP2 MSTORE PUSH1 0xDB PUSH1 0x20 MSTORE PUSH1 0x40 SWAP1 KECCAK256 PUSH1 0xCB SLOAD PUSH1 0x3 DUP3 ADD DUP5 SWAP1 SSTORE PUSH1 0x4 DUP3 ADD DUP4 SWAP1 SSTORE PUSH1 0xC DUP3 ADD DUP9 SWAP1 SSTORE PUSH1 0x15 DUP3 ADD DUP8 SWAP1 SSTORE PUSH1 0x18 DUP3 ADD DUP6 SWAP1 SSTORE PUSH1 0x19 DUP3 ADD DUP8 SWAP1 SSTORE PUSH1 0x1A DUP3 ADD DUP7 SWAP1 SSTORE PUSH1 0xD4 SLOAD PUSH1 0xFF PUSH3 0x10000 SWAP1 SWAP3 DIV DUP3 AND SWAP2 AND ISZERO PUSH2 0x3EE4 JUMPI PUSH1 0xD1 SLOAD PUSH2 0x3EE4 SWAP1 DUP11 SWAP1 PUSH1 0x1 PUSH1 0x40 SHL SWAP1 DIV PUSH4 0xFFFFFFFF AND DUP11 TIMESTAMP PUSH2 0x3763 JUMP JUMPDEST PUSH1 0x0 JUMPDEST DUP2 PUSH1 0xFF AND DUP2 PUSH1 0xFF AND LT ISZERO PUSH2 0x3FCC JUMPI PUSH1 0x7 DUP4 ADD SLOAD PUSH4 0xFFFFFFFF SWAP1 DUP2 AND PUSH1 0x0 DUP2 DUP2 MSTORE PUSH1 0xDB PUSH1 0x20 MSTORE PUSH1 0x40 DUP2 KECCAK256 DUP1 SLOAD SWAP3 SWAP4 SWAP1 SWAP3 AND SWAP1 SUB PUSH2 0x3F24 JUMPI POP POP PUSH2 0x3FCC JUMP JUMPDEST DUP3 PUSH1 0xFF AND PUSH1 0x0 SUB PUSH2 0x3F49 JUMPI DUP11 DUP2 PUSH1 0xE ADD PUSH1 0x0 DUP3 DUP3 SLOAD PUSH2 0x3F43 SWAP2 SWAP1 PUSH2 0x55AB JUMP JUMPDEST SWAP1 SWAP2 SSTORE POP POP JUMPDEST DUP11 DUP2 PUSH1 0x10 ADD PUSH1 0x0 DUP3 DUP3 SLOAD PUSH2 0x3F5D SWAP2 SWAP1 PUSH2 0x55AB JUMP JUMPDEST SWAP3 POP POP DUP2 SWAP1 SSTORE POP DUP1 PUSH1 0x9 ADD DUP13 SWAP1 DUP1 PUSH1 0x1 DUP2 SLOAD ADD DUP1 DUP3 SSTORE DUP1 SWAP2 POP POP PUSH1 0x1 SWAP1 SUB SWAP1 PUSH1 0x0 MSTORE PUSH1 0x20 PUSH1 0x0 KECCAK256 SWAP1 PUSH1 0x8 SWAP2 DUP3 DUP3 DIV ADD SWAP2 SWAP1 MOD PUSH1 0x4 MUL SWAP1 SWAP2 SWAP1 SWAP2 SWAP1 SWAP2 PUSH2 0x100 EXP DUP2 SLOAD DUP2 PUSH4 0xFFFFFFFF MUL NOT AND SWAP1 DUP4 PUSH4 0xFFFFFFFF AND MUL OR SWAP1 SSTORE POP DUP1 SWAP5 POP POP POP DUP1 DUP1 PUSH2 0x3FC4 SWAP1 PUSH2 0x52FE JUMP JUMPDEST SWAP2 POP POP PUSH2 0x3EE7 JUMP JUMPDEST POP POP POP POP POP POP POP POP POP POP JUMP JUMPDEST PUSH1 0x0 DUP2 PUSH1 0x1A ADD SLOAD DUP3 PUSH1 0x19 ADD SLOAD LT ISZERO PUSH2 0x3FF4 JUMPI DUP2 PUSH1 0x19 ADD SLOAD PUSH2 0x3FFA JUMP JUMPDEST DUP2 PUSH1 0x1A ADD SLOAD JUMPDEST SWAP3 SWAP2 POP POP JUMP JUMPDEST PUSH2 0x4009 DUP2 PUSH2 0x359E JUMP JUMPDEST PUSH2 0x406B JUMPI PUSH1 0x40 MLOAD PUSH3 0x461BCD PUSH1 0xE5 SHL DUP2 MSTORE PUSH1 0x20 PUSH1 0x4 DUP3 ADD MSTORE PUSH1 0x2D PUSH1 0x24 DUP3 ADD MSTORE PUSH32 0x455243313936373A206E657720696D706C656D656E746174696F6E206973206E PUSH1 0x44 DUP3 ADD MSTORE PUSH13 0x1BDD08184818DBDB9D1C9858DD PUSH1 0x9A SHL PUSH1 0x64 DUP3 ADD MSTORE PUSH1 0x84 ADD PUSH2 0xAD1 JUMP JUMPDEST PUSH1 0x0 DUP1 MLOAD PUSH1 0x20 PUSH2 0x56BA DUP4 CODECOPY DUP2 MLOAD SWAP2 MSTORE DUP1 SLOAD PUSH1 0x1 PUSH1 0x1 PUSH1 0xA0 SHL SUB NOT AND PUSH1 0x1 PUSH1 0x1 PUSH1 0xA0 SHL SUB SWAP3 SWAP1 SWAP3 AND SWAP2 SWAP1 SWAP2 OR SWAP1 SSTORE JUMP JUMPDEST PUSH2 0x40A3 DUP4 PUSH2 0x47D5 JUMP JUMPDEST PUSH1 0x0 DUP3 MLOAD GT DUP1 PUSH2 0x40B0 JUMPI POP DUP1 JUMPDEST ISZERO PUSH2 0xA09 JUMPI PUSH2 0xEF8 DUP4 DUP4 PUSH2 0x4815 JUMP JUMPDEST PUSH1 0x0 SLOAD PUSH2 0x100 SWAP1 DIV PUSH1 0xFF AND PUSH2 0x40E6 JUMPI PUSH1 0x40 MLOAD PUSH3 0x461BCD PUSH1 0xE5 SHL DUP2 MSTORE PUSH1 0x4 ADD PUSH2 0xAD1 SWAP1 PUSH2 0x561D JUMP JUMPDEST PUSH2 0x1219 CALLER PUSH2 0x34A5 JUMP JUMPDEST PUSH1 0x13 DUP5 ADD SLOAD PUSH1 0x40 DUP1 MLOAD PUSH2 0x3E0 DUP2 ADD SWAP1 SWAP2 MSTORE DUP6 SLOAD PUSH4 0xFFFFFFFF AND DUP2 MSTORE PUSH1 0x1 DUP7 ADD DUP1 SLOAD PUSH1 0xFF SWAP1 SWAP4 AND SWAP3 PUSH2 0x44E7 SWAP3 SWAP2 DUP9 SWAP2 PUSH1 0x20 DUP5 ADD SWAP2 SWAP1 PUSH2 0x412C SWAP1 PUSH2 0x53FC JUMP JUMPDEST DUP1 PUSH1 0x1F ADD PUSH1 0x20 DUP1 SWAP2 DIV MUL PUSH1 0x20 ADD PUSH1 0x40 MLOAD SWAP1 DUP2 ADD PUSH1 0x40 MSTORE DUP1 SWAP3 SWAP2 SWAP1 DUP2 DUP2 MSTORE PUSH1 0x20 ADD DUP3 DUP1 SLOAD PUSH2 0x4158 SWAP1 PUSH2 0x53FC JUMP JUMPDEST DUP1 ISZERO PUSH2 0x41A5 JUMPI DUP1 PUSH1 0x1F LT PUSH2 0x417A JUMPI PUSH2 0x100 DUP1 DUP4 SLOAD DIV MUL DUP4 MSTORE SWAP2 PUSH1 0x20 ADD SWAP2 PUSH2 0x41A5 JUMP JUMPDEST DUP3 ADD SWAP2 SWAP1 PUSH1 0x0 MSTORE PUSH1 0x20 PUSH1 0x0 KECCAK256 SWAP1 JUMPDEST DUP2 SLOAD DUP2 MSTORE SWAP1 PUSH1 0x1 ADD SWAP1 PUSH1 0x20 ADD DUP1 DUP4 GT PUSH2 0x4188 JUMPI DUP3 SWAP1 SUB PUSH1 0x1F AND DUP3 ADD SWAP2 JUMPDEST POP POP POP SWAP2 DUP4 MSTORE POP POP PUSH1 0x2 DUP3 ADD SLOAD PUSH1 0xFF DUP2 AND ISZERO ISZERO PUSH1 0x20 DUP1 DUP5 ADD SWAP2 SWAP1 SWAP2 MSTORE PUSH2 0x100 SWAP1 SWAP2 DIV PUSH1 0x1 PUSH1 0x1 PUSH1 0xA0 SHL SUB AND PUSH1 0x40 DUP1 DUP5 ADD SWAP2 SWAP1 SWAP2 MSTORE PUSH1 0x3 DUP5 ADD SLOAD PUSH1 0x60 DUP5 ADD MSTORE PUSH1 0x4 DUP5 ADD SLOAD PUSH1 0x80 DUP5 ADD MSTORE PUSH1 0x5 DUP5 ADD SLOAD PUSH1 0xA0 DUP5 ADD MSTORE PUSH1 0x6 DUP5 ADD DUP1 SLOAD DUP3 MLOAD DUP2 DUP6 MUL DUP2 ADD DUP6 ADD SWAP1 SWAP4 MSTORE DUP1 DUP4 MSTORE PUSH1 0xC0 SWAP1 SWAP5 ADD SWAP4 SWAP2 SWAP3 SWAP1 SWAP2 SWAP1 DUP4 ADD DUP3 DUP3 DUP1 ISZERO PUSH2 0x4272 JUMPI PUSH1 0x20 MUL DUP3 ADD SWAP2 SWAP1 PUSH1 0x0 MSTORE PUSH1 0x20 PUSH1 0x0 KECCAK256 SWAP1 PUSH1 0x0 SWAP1 JUMPDEST DUP3 DUP3 SWAP1 SLOAD SWAP1 PUSH2 0x100 EXP SWAP1 DIV PUSH4 0xFFFFFFFF AND PUSH4 0xFFFFFFFF AND DUP2 MSTORE PUSH1 0x20 ADD SWAP1 PUSH1 0x4 ADD SWAP1 PUSH1 0x20 DUP3 PUSH1 0x3 ADD DIV SWAP3 DUP4 ADD SWAP3 PUSH1 0x1 SUB DUP3 MUL SWAP2 POP DUP1 DUP5 GT PUSH2 0x4235 JUMPI SWAP1 POP JUMPDEST POP POP POP SWAP2 DUP4 MSTORE POP POP PUSH1 0x7 DUP3 ADD SLOAD PUSH4 0xFFFFFFFF AND PUSH1 0x20 DUP1 DUP4 ADD SWAP2 SWAP1 SWAP2 MSTORE PUSH1 0x8 DUP4 ADD DUP1 SLOAD PUSH1 0x40 DUP1 MLOAD DUP3 DUP6 MUL DUP2 ADD DUP6 ADD DUP3 MSTORE DUP3 DUP2 MSTORE SWAP5 ADD SWAP4 SWAP3 DUP4 ADD DUP3 DUP3 DUP1 ISZERO PUSH2 0x4303 JUMPI PUSH1 0x20 MUL DUP3 ADD SWAP2 SWAP1 PUSH1 0x0 MSTORE PUSH1 0x20 PUSH1 0x0 KECCAK256 SWAP1 PUSH1 0x0 SWAP1 JUMPDEST DUP3 DUP3 SWAP1 SLOAD SWAP1 PUSH2 0x100 EXP SWAP1 DIV PUSH4 0xFFFFFFFF AND PUSH4 0xFFFFFFFF AND DUP2 MSTORE PUSH1 0x20 ADD SWAP1 PUSH1 0x4 ADD SWAP1 PUSH1 0x20 DUP3 PUSH1 0x3 ADD DIV SWAP3 DUP4 ADD SWAP3 PUSH1 0x1 SUB DUP3 MUL SWAP2 POP DUP1 DUP5 GT PUSH2 0x42C6 JUMPI SWAP1 POP JUMPDEST POP POP POP POP POP DUP2 MSTORE PUSH1 0x20 ADD PUSH1 0x9 DUP3 ADD DUP1 SLOAD DUP1 PUSH1 0x20 MUL PUSH1 0x20 ADD PUSH1 0x40 MLOAD SWAP1 DUP2 ADD PUSH1 0x40 MSTORE DUP1 SWAP3 SWAP2 SWAP1 DUP2 DUP2 MSTORE PUSH1 0x20 ADD DUP3 DUP1 SLOAD DUP1 ISZERO PUSH2 0x4387 JUMPI PUSH1 0x20 MUL DUP3 ADD SWAP2 SWAP1 PUSH1 0x0 MSTORE PUSH1 0x20 PUSH1 0x0 KECCAK256 SWAP1 PUSH1 0x0 SWAP1 JUMPDEST DUP3 DUP3 SWAP1 SLOAD SWAP1 PUSH2 0x100 EXP SWAP1 DIV PUSH4 0xFFFFFFFF AND PUSH4 0xFFFFFFFF AND DUP2 MSTORE PUSH1 0x20 ADD SWAP1 PUSH1 0x4 ADD SWAP1 PUSH1 0x20 DUP3 PUSH1 0x3 ADD DIV SWAP3 DUP4 ADD SWAP3 PUSH1 0x1 SUB DUP3 MUL SWAP2 POP DUP1 DUP5 GT PUSH2 0x434A JUMPI SWAP1 POP JUMPDEST POP POP POP POP POP DUP2 MSTORE PUSH1 0x20 ADD PUSH1 0xA DUP3 ADD DUP1 SLOAD DUP1 PUSH1 0x20 MUL PUSH1 0x20 ADD PUSH1 0x40 MLOAD SWAP1 DUP2 ADD PUSH1 0x40 MSTORE DUP1 SWAP3 SWAP2 SWAP1 DUP2 DUP2 MSTORE PUSH1 0x20 ADD DUP3 DUP1 SLOAD DUP1 ISZERO PUSH2 0x440B JUMPI PUSH1 0x20 MUL DUP3 ADD SWAP2 SWAP1 PUSH1 0x0 MSTORE PUSH1 0x20 PUSH1 0x0 KECCAK256 SWAP1 PUSH1 0x0 SWAP1 JUMPDEST DUP3 DUP3 SWAP1 SLOAD SWAP1 PUSH2 0x100 EXP SWAP1 DIV PUSH4 0xFFFFFFFF AND PUSH4 0xFFFFFFFF AND DUP2 MSTORE PUSH1 0x20 ADD SWAP1 PUSH1 0x4 ADD SWAP1 PUSH1 0x20 DUP3 PUSH1 0x3 ADD DIV SWAP3 DUP4 ADD SWAP3 PUSH1 0x1 SUB DUP3 MUL SWAP2 POP DUP1 DUP5 GT PUSH2 0x43CE JUMPI SWAP1 POP JUMPDEST POP POP POP SWAP2 DUP4 MSTORE POP POP PUSH1 0xB DUP3 ADD SLOAD PUSH1 0x20 DUP3 ADD MSTORE PUSH1 0xC DUP3 ADD SLOAD PUSH1 0x40 DUP3 ADD MSTORE PUSH1 0xD DUP3 ADD SLOAD PUSH1 0x60 DUP3 ADD MSTORE PUSH1 0xE DUP3 ADD SLOAD PUSH1 0x80 DUP3 ADD MSTORE PUSH1 0xF DUP3 ADD SLOAD PUSH1 0xA0 DUP3 ADD MSTORE PUSH1 0x10 DUP3 ADD SLOAD PUSH1 0xC0 DUP3 ADD MSTORE PUSH1 0x11 DUP3 ADD SLOAD PUSH1 0xE0 DUP3 ADD MSTORE PUSH1 0x12 DUP3 ADD SLOAD PUSH2 0x100 DUP3 ADD MSTORE PUSH1 0x13 DUP3 ADD SLOAD PUSH1 0xFF AND PUSH2 0x120 DUP3 ADD MSTORE PUSH1 0x14 DUP3 ADD SLOAD PUSH2 0x140 DUP3 ADD MSTORE PUSH1 0x15 DUP3 ADD SLOAD PUSH2 0x160 DUP3 ADD MSTORE PUSH1 0x16 DUP3 ADD SLOAD PUSH2 0x180 DUP3 ADD MSTORE PUSH1 0x17 DUP3 ADD SLOAD PUSH2 0x1A0 DUP3 ADD MSTORE PUSH1 0x18 DUP3 ADD SLOAD PUSH2 0x1C0 DUP3 ADD MSTORE PUSH1 0x19 DUP3 ADD SLOAD PUSH2 0x1E0 DUP3 ADD MSTORE PUSH1 0x1A DUP3 ADD SLOAD PUSH2 0x200 DUP3 ADD MSTORE PUSH1 0x1B DUP3 ADD SLOAD PUSH2 0x220 DUP3 ADD MSTORE PUSH1 0x1C DUP3 ADD SLOAD PUSH2 0x240 DUP3 ADD MSTORE PUSH1 0x1D SWAP1 SWAP2 ADD SLOAD PUSH2 0x260 SWAP1 SWAP2 ADD MSTORE PUSH2 0x34F7 JUMP JUMPDEST PUSH1 0xFF AND GT ISZERO PUSH2 0xEF8 JUMPI PUSH1 0x40 DUP1 MLOAD PUSH2 0x3E0 DUP2 ADD SWAP1 SWAP2 MSTORE DUP5 SLOAD PUSH4 0xFFFFFFFF AND DUP2 MSTORE PUSH1 0x1 DUP6 ADD DUP1 SLOAD PUSH2 0x4522 SWAP3 SWAP2 DUP8 SWAP2 PUSH1 0x20 DUP5 ADD SWAP2 SWAP1 PUSH2 0x412C SWAP1 PUSH2 0x53FC JUMP JUMPDEST PUSH1 0x13 DUP6 ADD DUP1 SLOAD PUSH1 0xFF NOT AND PUSH1 0xFF SWAP3 DUP4 AND SWAP1 DUP2 OR DUP3 SSTORE PUSH1 0x0 SWAP1 DUP2 MSTORE PUSH1 0xDD PUSH1 0x20 SWAP1 DUP2 MSTORE PUSH1 0x40 DUP1 DUP4 KECCAK256 PUSH1 0x9 SWAP1 DUP2 ADD DUP1 SLOAD PUSH1 0x1 DUP2 DUP2 ADD DUP4 SSTORE SWAP2 DUP7 MSTORE SWAP4 DUP6 KECCAK256 PUSH1 0x8 DUP6 DIV ADD DUP1 SLOAD PUSH1 0x7 SWAP1 SWAP6 AND PUSH1 0x4 MUL PUSH2 0x100 EXP PUSH4 0xFFFFFFFF DUP2 DUP2 MUL NOT SWAP1 SWAP7 AND SWAP6 DUP13 AND MUL SWAP5 SWAP1 SWAP5 OR SWAP1 SWAP4 SSTORE SWAP4 SLOAD SWAP1 SWAP5 AND DUP3 MSTORE SWAP3 SWAP1 KECCAK256 ADD SLOAD PUSH2 0x459B SWAP2 SWAP1 PUSH2 0x52C0 JUMP JUMPDEST PUSH1 0x14 DUP6 ADD DUP2 SWAP1 SSTORE PUSH1 0x13 DUP6 ADD SLOAD PUSH1 0x40 DUP1 MLOAD PUSH4 0xFFFFFFFF DUP8 AND DUP2 MSTORE PUSH1 0x20 DUP2 ADD SWAP4 SWAP1 SWAP4 MSTORE PUSH1 0xFF SWAP1 SWAP2 AND DUP3 DUP3 ADD MSTORE MLOAD PUSH32 0xB0D3A9C683344E744A1AE3DB383F75A8A01851282C5FE97D6159C1392A2E2A0A SWAP2 DUP2 SWAP1 SUB PUSH1 0x60 ADD SWAP1 LOG1 PUSH1 0x40 DUP1 MLOAD PUSH2 0x3E0 DUP2 ADD SWAP1 SWAP2 MSTORE DUP5 SLOAD PUSH4 0xFFFFFFFF AND DUP2 MSTORE PUSH1 0x1 DUP6 ADD DUP1 SLOAD PUSH1 0xDD SWAP3 PUSH1 0x0 SWAP3 PUSH2 0x4626 SWAP3 DUP10 SWAP2 PUSH1 0x20 DUP5 ADD SWAP2 PUSH2 0x412C SWAP1 PUSH2 0x53FC JUMP JUMPDEST PUSH1 0xFF SWAP1 DUP2 AND DUP3 MSTORE PUSH1 0x20 DUP3 ADD SWAP3 SWAP1 SWAP3 MSTORE PUSH1 0x40 ADD PUSH1 0x0 KECCAK256 PUSH1 0x8 ADD SLOAD PUSH2 0x100 SWAP1 DIV AND ISZERO PUSH2 0x46EA JUMPI PUSH1 0x40 DUP1 MLOAD PUSH2 0x3E0 DUP2 ADD SWAP1 SWAP2 MSTORE DUP5 SLOAD PUSH4 0xFFFFFFFF AND DUP2 MSTORE PUSH1 0x1 DUP6 ADD DUP1 SLOAD PUSH1 0xDD SWAP3 PUSH1 0x0 SWAP3 PUSH2 0x4680 SWAP3 DUP10 SWAP2 PUSH1 0x20 DUP5 ADD SWAP2 PUSH2 0x412C SWAP1 PUSH2 0x53FC JUMP JUMPDEST PUSH1 0xFF AND PUSH1 0xFF AND DUP2 MSTORE PUSH1 0x20 ADD SWAP1 DUP2 MSTORE PUSH1 0x20 ADD PUSH1 0x0 KECCAK256 PUSH1 0x7 ADD SLOAD DUP5 PUSH1 0x12 ADD SLOAD PUSH2 0x46A7 SWAP2 SWAP1 PUSH2 0x55AB JUMP JUMPDEST DUP2 GT ISZERO PUSH2 0x46D6 JUMPI DUP1 DUP5 PUSH1 0x12 ADD DUP2 SWAP1 SSTORE POP DUP2 DUP5 PUSH1 0x11 ADD PUSH1 0x0 DUP3 DUP3 SLOAD PUSH2 0x46CB SWAP2 SWAP1 PUSH2 0x55AB JUMP JUMPDEST SWAP1 SWAP2 SSTORE POP PUSH2 0xEF8 SWAP1 POP JUMP JUMPDEST DUP2 DUP5 PUSH1 0x11 ADD PUSH1 0x0 DUP3 DUP3 SLOAD PUSH2 0x46CB SWAP2 SWAP1 PUSH2 0x55AB JUMP JUMPDEST PUSH1 0xD4 SLOAD PUSH2 0x100 SWAP1 DIV PUSH1 0xFF AND ISZERO PUSH2 0xEF8 JUMPI PUSH1 0x13 DUP5 ADD SLOAD PUSH1 0xFF AND PUSH1 0x0 SWAP1 DUP2 MSTORE PUSH1 0xDD PUSH1 0x20 MSTORE PUSH1 0x40 SWAP1 KECCAK256 PUSH1 0x5 ADD SLOAD PUSH2 0x471F SWAP1 DUP6 SWAP1 PUSH2 0x4907 JUMP JUMPDEST PUSH1 0x13 DUP5 ADD SLOAD PUSH1 0xFF SWAP1 DUP2 AND PUSH1 0x0 SWAP1 DUP2 MSTORE PUSH1 0xDD PUSH1 0x20 SWAP1 DUP2 MSTORE PUSH1 0x40 SWAP2 DUP3 SWAP1 KECCAK256 PUSH1 0x5 DUP2 ADD SLOAD SWAP1 SLOAD SWAP3 MLOAD SWAP3 SWAP1 SWAP4 AND DUP3 MSTORE PUSH4 0xFFFFFFFF DUP7 AND SWAP2 PUSH32 0x94B6D3D19CC40938E685EF6A1F6476B53EF65295AB094A044E74405A8D0BD05B SWAP2 ADD PUSH1 0x40 MLOAD DUP1 SWAP2 SUB SWAP1 LOG3 POP POP POP POP JUMP JUMPDEST PUSH1 0xD7 SLOAD PUSH1 0xD6 SLOAD PUSH2 0x4793 SWAP2 SWAP1 PUSH2 0x55AB JUMP JUMPDEST DUP2 GT ISZERO PUSH2 0x47A2 JUMPI PUSH1 0xD6 SSTORE PUSH1 0xD5 SSTORE JUMP JUMPDEST DUP2 PUSH1 0xD5 PUSH1 0x0 DUP3 DUP3 SLOAD PUSH2 0x47B4 SWAP2 SWAP1 PUSH2 0x55AB JUMP JUMPDEST SWAP1 SWAP2 SSTORE POP POP POP POP JUMP JUMPDEST PUSH1 0x0 DUP2 DUP4 GT ISZERO PUSH2 0x47CE JUMPI POP DUP1 PUSH2 0x3FFA JUMP JUMPDEST POP SWAP1 SWAP2 SWAP1 POP JUMP JUMPDEST PUSH2 0x47DE DUP2 PUSH2 0x4000 JUMP JUMPDEST PUSH1 0x40 MLOAD PUSH1 0x1 PUSH1 0x1 PUSH1 0xA0 SHL SUB DUP3 AND SWAP1 PUSH32 0xBC7CD75A20EE27FD9ADEBAB32041F755214DBC6BFFA90CC0225B39DA2E5C2D3B SWAP1 PUSH1 0x0 SWAP1 LOG2 POP JUMP JUMPDEST PUSH1 0x60 PUSH2 0x4820 DUP4 PUSH2 0x359E JUMP JUMPDEST PUSH2 0x487B JUMPI PUSH1 0x40 MLOAD PUSH3 0x461BCD PUSH1 0xE5 SHL DUP2 MSTORE PUSH1 0x20 PUSH1 0x4 DUP3 ADD MSTORE PUSH1 0x26 PUSH1 0x24 DUP3 ADD MSTORE PUSH32 0x416464726573733A2064656C65676174652063616C6C20746F206E6F6E2D636F PUSH1 0x44 DUP3 ADD MSTORE PUSH6 0x1B9D1C9858DD PUSH1 0xD2 SHL PUSH1 0x64 DUP3 ADD MSTORE PUSH1 0x84 ADD PUSH2 0xAD1 JUMP JUMPDEST PUSH1 0x0 DUP1 DUP5 PUSH1 0x1 PUSH1 0x1 PUSH1 0xA0 SHL SUB AND DUP5 PUSH1 0x40 MLOAD PUSH2 0x4896 SWAP2 SWAP1 PUSH2 0x568A JUMP JUMPDEST PUSH1 0x0 PUSH1 0x40 MLOAD DUP1 DUP4 SUB DUP2 DUP6 GAS DELEGATECALL SWAP2 POP POP RETURNDATASIZE DUP1 PUSH1 0x0 DUP2 EQ PUSH2 0x48D1 JUMPI PUSH1 0x40 MLOAD SWAP2 POP PUSH1 0x1F NOT PUSH1 0x3F RETURNDATASIZE ADD AND DUP3 ADD PUSH1 0x40 MSTORE RETURNDATASIZE DUP3 MSTORE RETURNDATASIZE PUSH1 0x0 PUSH1 0x20 DUP5 ADD RETURNDATACOPY PUSH2 0x48D6 JUMP JUMPDEST PUSH1 0x60 SWAP2 POP JUMPDEST POP SWAP2 POP SWAP2 POP PUSH2 0x48FE DUP3 DUP3 PUSH1 0x40 MLOAD DUP1 PUSH1 0x60 ADD PUSH1 0x40 MSTORE DUP1 PUSH1 0x27 DUP2 MSTORE PUSH1 0x20 ADD PUSH2 0x56DA PUSH1 0x27 SWAP2 CODECOPY PUSH2 0x493F JUMP JUMPDEST SWAP6 SWAP5 POP POP POP POP POP JUMP JUMPDEST DUP2 PUSH1 0x1A ADD SLOAD DUP2 DUP4 PUSH1 0x19 ADD SLOAD PUSH2 0x491C SWAP2 SWAP1 PUSH2 0x55AB JUMP JUMPDEST LT PUSH2 0x492F JUMPI PUSH1 0x1A DUP3 ADD SLOAD PUSH1 0x19 DUP4 ADD SSTORE POP POP JUMP JUMPDEST DUP1 DUP3 PUSH1 0x19 ADD SLOAD PUSH2 0xA09 SWAP2 SWAP1 PUSH2 0x55AB JUMP JUMPDEST PUSH1 0x60 DUP4 ISZERO PUSH2 0x494E JUMPI POP DUP2 PUSH2 0x1FEC JUMP JUMPDEST PUSH2 0x1FEC DUP4 DUP4 DUP2 MLOAD ISZERO PUSH2 0x4963 JUMPI DUP2 MLOAD DUP1 DUP4 PUSH1 0x20 ADD REVERT JUMPDEST DUP1 PUSH1 0x40 MLOAD PUSH3 0x461BCD PUSH1 0xE5 SHL DUP2 MSTORE PUSH1 0x4 ADD PUSH2 0xAD1 SWAP2 SWAP1 PUSH2 0x56A6 JUMP JUMPDEST DUP3 DUP1 SLOAD DUP3 DUP3 SSTORE SWAP1 PUSH1 0x0 MSTORE PUSH1 0x20 PUSH1 0x0 KECCAK256 SWAP1 PUSH1 0x7 ADD PUSH1 0x8 SWAP1 DIV DUP2 ADD SWAP3 DUP3 ISZERO PUSH2 0x4A1C JUMPI SWAP2 PUSH1 0x20 MUL DUP3 ADD PUSH1 0x0 JUMPDEST DUP4 DUP3 GT ISZERO PUSH2 0x49EA JUMPI DUP4 MLOAD DUP4 DUP3 PUSH2 0x100 EXP DUP2 SLOAD DUP2 PUSH4 0xFFFFFFFF MUL NOT AND SWAP1 DUP4 PUSH4 0xFFFFFFFF AND MUL OR SWAP1 SSTORE POP SWAP3 PUSH1 0x20 ADD SWAP3 PUSH1 0x4 ADD PUSH1 0x20 DUP2 PUSH1 0x3 ADD DIV SWAP3 DUP4 ADD SWAP3 PUSH1 0x1 SUB MUL PUSH2 0x49A6 JUMP JUMPDEST DUP1 ISZERO PUSH2 0x4A1A JUMPI DUP3 DUP2 PUSH2 0x100 EXP DUP2 SLOAD SWAP1 PUSH4 0xFFFFFFFF MUL NOT AND SWAP1 SSTORE PUSH1 0x4 ADD PUSH1 0x20 DUP2 PUSH1 0x3 ADD DIV SWAP3 DUP4 ADD SWAP3 PUSH1 0x1 SUB MUL PUSH2 0x49EA JUMP JUMPDEST POP JUMPDEST POP PUSH2 0x4A28 SWAP3 SWAP2 POP PUSH2 0x4AC2 JUMP JUMPDEST POP SWAP1 JUMP JUMPDEST DUP3 DUP1 SLOAD DUP3 DUP3 SSTORE SWAP1 PUSH1 0x0 MSTORE PUSH1 0x20 PUSH1 0x0 KECCAK256 SWAP1 PUSH1 0xF ADD PUSH1 0x10 SWAP1 DIV DUP2 ADD SWAP3 DUP3 ISZERO PUSH2 0x4A1C JUMPI SWAP2 PUSH1 0x20 MUL DUP3 ADD PUSH1 0x0 JUMPDEST DUP4 DUP3 GT ISZERO PUSH2 0x4A94 JUMPI DUP4 MLOAD DUP4 DUP3 PUSH2 0x100 EXP DUP2 SLOAD DUP2 PUSH2 0xFFFF MUL NOT AND SWAP1 DUP4 PUSH1 0xFF AND MUL OR SWAP1 SSTORE POP SWAP3 PUSH1 0x20 ADD SWAP3 PUSH1 0x2 ADD PUSH1 0x20 DUP2 PUSH1 0x1 ADD DIV SWAP3 DUP4 ADD SWAP3 PUSH1 0x1 SUB MUL PUSH2 0x4A55 JUMP JUMPDEST DUP1 ISZERO PUSH2 0x4A1A JUMPI DUP3 DUP2 PUSH2 0x100 EXP DUP2 SLOAD SWAP1 PUSH2 0xFFFF MUL NOT AND SWAP1 SSTORE PUSH1 0x2 ADD PUSH1 0x20 DUP2 PUSH1 0x1 ADD DIV SWAP3 DUP4 ADD SWAP3 PUSH1 0x1 SUB MUL PUSH2 0x4A94 JUMP JUMPDEST JUMPDEST DUP1 DUP3 GT ISZERO PUSH2 0x4A28 JUMPI PUSH1 0x0 DUP2 SSTORE PUSH1 0x1 ADD PUSH2 0x4AC3 JUMP JUMPDEST DUP1 CALLDATALOAD PUSH1 0x1 PUSH1 0x1 PUSH1 0xA0 SHL SUB DUP2 AND DUP2 EQ PUSH2 0x4AEE JUMPI PUSH1 0x0 DUP1 REVERT JUMPDEST SWAP2 SWAP1 POP JUMP JUMPDEST PUSH1 0x0 DUP1 PUSH1 0x40 DUP4 DUP6 SUB SLT ISZERO PUSH2 0x4B06 JUMPI PUSH1 0x0 DUP1 REVERT JUMPDEST PUSH2 0x4B0F DUP4 PUSH2 0x4AD7 JUMP JUMPDEST SWAP5 PUSH1 0x20 SWAP4 SWAP1 SWAP4 ADD CALLDATALOAD SWAP4 POP POP POP JUMP JUMPDEST PUSH1 0x0 PUSH1 0x20 DUP3 DUP5 SUB SLT ISZERO PUSH2 0x4B2F JUMPI PUSH1 0x0 DUP1 REVERT JUMPDEST PUSH2 0x1FEC DUP3 PUSH2 0x4AD7 JUMP JUMPDEST PUSH1 0x0 PUSH1 0x20 DUP3 DUP5 SUB SLT ISZERO PUSH2 0x4B4A JUMPI PUSH1 0x0 DUP1 REVERT JUMPDEST POP CALLDATALOAD SWAP2 SWAP1 POP JUMP JUMPDEST PUSH1 0x0 DUP1 DUP4 PUSH1 0x1F DUP5 ADD SLT PUSH2 0x4B63 JUMPI PUSH1 0x0 DUP1 REVERT JUMPDEST POP DUP2 CALLDATALOAD PUSH1 0x1 PUSH1 0x1 PUSH1 0x40 SHL SUB DUP2 GT ISZERO PUSH2 0x4B7A JUMPI PUSH1 0x0 DUP1 REVERT JUMPDEST PUSH1 0x20 DUP4 ADD SWAP2 POP DUP4 PUSH1 0x20 DUP3 PUSH1 0x5 SHL DUP6 ADD ADD GT ISZERO PUSH2 0x4B95 JUMPI PUSH1 0x0 DUP1 REVERT JUMPDEST SWAP3 POP SWAP3 SWAP1 POP JUMP JUMPDEST PUSH1 0x0 DUP1 PUSH1 0x20 DUP4 DUP6 SUB SLT ISZERO PUSH2 0x4BAF JUMPI PUSH1 0x0 DUP1 REVERT JUMPDEST DUP3 CALLDATALOAD PUSH1 0x1 PUSH1 0x1 PUSH1 0x40 SHL SUB DUP2 GT ISZERO PUSH2 0x4BC5 JUMPI PUSH1 0x0 DUP1 REVERT JUMPDEST PUSH2 0x4BD1 DUP6 DUP3 DUP7 ADD PUSH2 0x4B51 JUMP JUMPDEST SWAP1 SWAP7 SWAP1 SWAP6 POP SWAP4 POP POP POP POP JUMP JUMPDEST PUSH4 0x4E487B71 PUSH1 0xE0 SHL PUSH1 0x0 MSTORE PUSH1 0x41 PUSH1 0x4 MSTORE PUSH1 0x24 PUSH1 0x0 REVERT JUMPDEST PUSH1 0x40 MLOAD PUSH1 0x1F DUP3 ADD PUSH1 0x1F NOT AND DUP2 ADD PUSH1 0x1 PUSH1 0x1 PUSH1 0x40 SHL SUB DUP2 GT DUP3 DUP3 LT OR ISZERO PUSH2 0x4C1B JUMPI PUSH2 0x4C1B PUSH2 0x4BDD JUMP JUMPDEST PUSH1 0x40 MSTORE SWAP2 SWAP1 POP JUMP JUMPDEST PUSH1 0x0 PUSH1 0x1 PUSH1 0x1 PUSH1 0x40 SHL SUB DUP4 GT ISZERO PUSH2 0x4C3C JUMPI PUSH2 0x4C3C PUSH2 0x4BDD JUMP JUMPDEST PUSH2 0x4C4F PUSH1 0x1F DUP5 ADD PUSH1 0x1F NOT AND PUSH1 0x20 ADD PUSH2 0x4BF3 JUMP JUMPDEST SWAP1 POP DUP3 DUP2 MSTORE DUP4 DUP4 DUP4 ADD GT ISZERO PUSH2 0x4C63 JUMPI PUSH1 0x0 DUP1 REVERT JUMPDEST DUP3 DUP3 PUSH1 0x20 DUP4 ADD CALLDATACOPY PUSH1 0x0 PUSH1 0x20 DUP5 DUP4 ADD ADD MSTORE SWAP4 SWAP3 POP POP POP JUMP JUMPDEST PUSH1 0x0 DUP1 PUSH1 0x40 DUP4 DUP6 SUB SLT ISZERO PUSH2 0x4C8D JUMPI PUSH1 0x0 DUP1 REVERT JUMPDEST PUSH2 0x4C96 DUP4 PUSH2 0x4AD7 JUMP JUMPDEST SWAP2 POP PUSH1 0x20 DUP4 ADD CALLDATALOAD PUSH1 0x1 PUSH1 0x1 PUSH1 0x40 SHL SUB DUP2 GT ISZERO PUSH2 0x4CB1 JUMPI PUSH1 0x0 DUP1 REVERT JUMPDEST DUP4 ADD PUSH1 0x1F DUP2 ADD DUP6 SGT PUSH2 0x4CC2 JUMPI PUSH1 0x0 DUP1 REVERT JUMPDEST PUSH2 0x4CD1 DUP6 DUP3 CALLDATALOAD PUSH1 0x20 DUP5 ADD PUSH2 0x4C23 JUMP JUMPDEST SWAP2 POP POP SWAP3 POP SWAP3 SWAP1 POP JUMP JUMPDEST DUP1 CALLDATALOAD PUSH4 0xFFFFFFFF DUP2 AND DUP2 EQ PUSH2 0x4AEE JUMPI PUSH1 0x0 DUP1 REVERT JUMPDEST PUSH1 0x0 PUSH1 0x20 DUP3 DUP5 SUB SLT ISZERO PUSH2 0x4D01 JUMPI PUSH1 0x0 DUP1 REVERT JUMPDEST PUSH2 0x1FEC DUP3 PUSH2 0x4CDB JUMP JUMPDEST PUSH1 0x0 DUP1 PUSH1 0x0 DUP1 PUSH1 0x0 DUP1 PUSH1 0x0 PUSH1 0x80 DUP9 DUP11 SUB SLT ISZERO PUSH2 0x4D25 JUMPI PUSH1 0x0 DUP1 REVERT JUMPDEST PUSH1 0x1 PUSH1 0x1 PUSH1 0x40 SHL SUB DUP1 DUP10 CALLDATALOAD GT ISZERO PUSH2 0x4D3B JUMPI PUSH1 0x0 DUP1 REVERT JUMPDEST PUSH2 0x4D48 DUP11 DUP11 CALLDATALOAD DUP12 ADD PUSH2 0x4B51 JUMP JUMPDEST SWAP1 SWAP9 POP SWAP7 POP PUSH1 0x20 DUP10 ADD CALLDATALOAD DUP2 LT ISZERO PUSH2 0x4D5E JUMPI PUSH1 0x0 DUP1 REVERT JUMPDEST PUSH2 0x4D6E DUP11 PUSH1 0x20 DUP12 ADD CALLDATALOAD DUP12 ADD PUSH2 0x4B51 JUMP JUMPDEST SWAP1 SWAP7 POP SWAP5 POP PUSH1 0x40 DUP10 ADD CALLDATALOAD DUP2 LT ISZERO PUSH2 0x4D84 JUMPI PUSH1 0x0 DUP1 REVERT JUMPDEST PUSH2 0x4D94 DUP11 PUSH1 0x40 DUP12 ADD CALLDATALOAD DUP12 ADD PUSH2 0x4B51 JUMP JUMPDEST SWAP1 SWAP5 POP SWAP3 POP PUSH1 0x60 DUP10 ADD CALLDATALOAD DUP2 LT ISZERO PUSH2 0x4DAA JUMPI PUSH1 0x0 DUP1 REVERT JUMPDEST PUSH1 0x60 DUP10 ADD CALLDATALOAD DUP10 ADD DUP11 PUSH1 0x1F DUP3 ADD SLT PUSH2 0x4DC0 JUMPI PUSH1 0x0 DUP1 REVERT JUMPDEST DUP2 DUP2 CALLDATALOAD GT ISZERO PUSH2 0x4DD1 JUMPI PUSH2 0x4DD1 PUSH2 0x4BDD JUMP JUMPDEST PUSH2 0x4DE1 PUSH1 0x20 DUP3 CALLDATALOAD PUSH1 0x5 SHL ADD PUSH2 0x4BF3 JUMP JUMPDEST DUP2 CALLDATALOAD DUP1 DUP3 MSTORE PUSH1 0x20 DUP1 DUP4 ADD SWAP3 SWAP2 PUSH1 0x5 SHL DUP5 ADD ADD DUP14 DUP2 GT ISZERO PUSH2 0x4E00 JUMPI PUSH1 0x0 DUP1 REVERT JUMPDEST PUSH1 0x20 DUP5 ADD JUMPDEST DUP2 DUP2 LT ISZERO PUSH2 0x4E51 JUMPI DUP6 DUP2 CALLDATALOAD GT ISZERO PUSH2 0x4E1B JUMPI PUSH1 0x0 DUP1 REVERT JUMPDEST DUP15 PUSH1 0x3F DUP3 CALLDATALOAD DUP8 ADD ADD SLT PUSH2 0x4E2D JUMPI PUSH1 0x0 DUP1 REVERT JUMPDEST PUSH2 0x4E43 DUP16 DUP3 CALLDATALOAD DUP8 ADD PUSH1 0x20 DUP2 ADD CALLDATALOAD SWAP1 PUSH1 0x40 ADD PUSH2 0x4C23 JUMP JUMPDEST DUP5 MSTORE PUSH1 0x20 SWAP4 DUP5 ADD SWAP4 ADD PUSH2 0x4E05 JUMP JUMPDEST POP POP DUP1 SWAP5 POP POP POP POP POP SWAP3 SWAP6 SWAP9 SWAP2 SWAP5 SWAP8 POP SWAP3 SWAP6 POP JUMP JUMPDEST PUSH1 0x0 DUP1 PUSH1 0x0 DUP1 PUSH1 0x0 DUP1 PUSH1 0x0 DUP1 PUSH1 0x0 DUP1 PUSH1 0x0 DUP1 PUSH1 0xC0 DUP14 DUP16 SUB SLT ISZERO PUSH2 0x4E88 JUMPI PUSH1 0x0 DUP1 REVERT JUMPDEST PUSH1 0x1 PUSH1 0x1 PUSH1 0x40 SHL SUB DUP14 CALLDATALOAD GT ISZERO PUSH2 0x4E9D JUMPI PUSH1 0x0 DUP1 REVERT JUMPDEST PUSH2 0x4EAA DUP15 DUP15 CALLDATALOAD DUP16 ADD PUSH2 0x4B51 JUMP JUMPDEST SWAP1 SWAP13 POP SWAP11 POP PUSH1 0x1 PUSH1 0x1 PUSH1 0x40 SHL SUB PUSH1 0x20 DUP15 ADD CALLDATALOAD GT ISZERO PUSH2 0x4EC7 JUMPI PUSH1 0x0 DUP1 REVERT JUMPDEST PUSH2 0x4ED7 DUP15 PUSH1 0x20 DUP16 ADD CALLDATALOAD DUP16 ADD PUSH2 0x4B51 JUMP JUMPDEST SWAP1 SWAP11 POP SWAP9 POP PUSH1 0x1 PUSH1 0x1 PUSH1 0x40 SHL SUB PUSH1 0x40 DUP15 ADD CALLDATALOAD GT ISZERO PUSH2 0x4EF4 JUMPI PUSH1 0x0 DUP1 REVERT JUMPDEST PUSH2 0x4F04 DUP15 PUSH1 0x40 DUP16 ADD CALLDATALOAD DUP16 ADD PUSH2 0x4B51 JUMP JUMPDEST SWAP1 SWAP9 POP SWAP7 POP PUSH1 0x1 PUSH1 0x1 PUSH1 0x40 SHL SUB PUSH1 0x60 DUP15 ADD CALLDATALOAD GT ISZERO PUSH2 0x4F21 JUMPI PUSH1 0x0 DUP1 REVERT JUMPDEST PUSH2 0x4F31 DUP15 PUSH1 0x60 DUP16 ADD CALLDATALOAD DUP16 ADD PUSH2 0x4B51 JUMP JUMPDEST SWAP1 SWAP7 POP SWAP5 POP PUSH1 0x1 PUSH1 0x1 PUSH1 0x40 SHL SUB PUSH1 0x80 DUP15 ADD CALLDATALOAD GT ISZERO PUSH2 0x4F4E JUMPI PUSH1 0x0 DUP1 REVERT JUMPDEST PUSH2 0x4F5E DUP15 PUSH1 0x80 DUP16 ADD CALLDATALOAD DUP16 ADD PUSH2 0x4B51 JUMP JUMPDEST SWAP1 SWAP5 POP SWAP3 POP PUSH1 0x1 PUSH1 0x1 PUSH1 0x40 SHL SUB PUSH1 0xA0 DUP15 ADD CALLDATALOAD GT ISZERO PUSH2 0x4F7B JUMPI PUSH1 0x0 DUP1 REVERT JUMPDEST PUSH2 0x4F8B DUP15 PUSH1 0xA0 DUP16 ADD CALLDATALOAD DUP16 ADD PUSH2 0x4B51 JUMP JUMPDEST DUP2 SWAP4 POP DUP1 SWAP3 POP POP POP SWAP3 SWAP6 SWAP9 SWAP12 POP SWAP3 SWAP6 SWAP9 SWAP12 POP SWAP3 SWAP6 SWAP9 SWAP12 JUMP JUMPDEST PUSH1 0x0 DUP1 PUSH1 0x40 DUP4 DUP6 SUB SLT ISZERO PUSH2 0x4FB6 JUMPI PUSH1 0x0 DUP1 REVERT JUMPDEST PUSH2 0x4B0F DUP4 PUSH2 0x4CDB JUMP JUMPDEST PUSH1 0x0 JUMPDEST DUP4 DUP2 LT ISZERO PUSH2 0x4FDA JUMPI DUP2 DUP2 ADD MLOAD DUP4 DUP3 ADD MSTORE PUSH1 0x20 ADD PUSH2 0x4FC2 JUMP JUMPDEST POP POP PUSH1 0x0 SWAP2 ADD MSTORE JUMP JUMPDEST PUSH1 0x0 DUP2 MLOAD DUP1 DUP5 MSTORE PUSH2 0x4FFB DUP2 PUSH1 0x20 DUP7 ADD PUSH1 0x20 DUP7 ADD PUSH2 0x4FBF JUMP JUMPDEST PUSH1 0x1F ADD PUSH1 0x1F NOT AND SWAP3 SWAP1 SWAP3 ADD PUSH1 0x20 ADD SWAP3 SWAP2 POP POP JUMP JUMPDEST PUSH1 0x0 DUP2 MLOAD DUP1 DUP5 MSTORE PUSH1 0x20 DUP1 DUP6 ADD SWAP5 POP DUP1 DUP5 ADD PUSH1 0x0 JUMPDEST DUP4 DUP2 LT ISZERO PUSH2 0x5045 JUMPI DUP2 MLOAD PUSH4 0xFFFFFFFF AND DUP8 MSTORE SWAP6 DUP3 ADD SWAP6 SWAP1 DUP3 ADD SWAP1 PUSH1 0x1 ADD PUSH2 0x5023 JUMP JUMPDEST POP SWAP5 SWAP6 SWAP5 POP POP POP POP POP JUMP JUMPDEST PUSH1 0x20 DUP2 MSTORE PUSH2 0x5067 PUSH1 0x20 DUP3 ADD DUP4 MLOAD PUSH4 0xFFFFFFFF AND SWAP1 MSTORE JUMP JUMPDEST PUSH1 0x0 PUSH1 0x20 DUP4 ADD MLOAD PUSH2 0x3E0 DUP1 PUSH1 0x40 DUP6 ADD MSTORE PUSH2 0x5085 PUSH2 0x400 DUP6 ADD DUP4 PUSH2 0x4FE3 JUMP JUMPDEST SWAP2 POP PUSH1 0x40 DUP6 ADD MLOAD PUSH2 0x509A PUSH1 0x60 DUP7 ADD DUP3 ISZERO ISZERO SWAP1 MSTORE JUMP JUMPDEST POP PUSH1 0x60 DUP6 ADD MLOAD PUSH1 0x1 PUSH1 0x1 PUSH1 0xA0 SHL SUB DUP2 AND PUSH1 0x80 DUP7 ADD MSTORE POP PUSH1 0x80 DUP6 ADD MLOAD PUSH1 0xA0 DUP6 ADD MSTORE PUSH1 0xA0 DUP6 ADD MLOAD PUSH1 0xC0 DUP6 ADD MSTORE PUSH1 0xC0 DUP6 ADD MLOAD PUSH1 0xE0 DUP6 ADD MSTORE PUSH1 0xE0 DUP6 ADD MLOAD PUSH1 0x1F NOT PUSH2 0x100 DUP2 DUP8 DUP7 SUB ADD DUP2 DUP9 ADD MSTORE PUSH2 0x50EC DUP6 DUP5 PUSH2 0x500F JUMP JUMPDEST SWAP5 POP DUP1 DUP9 ADD MLOAD SWAP3 POP POP PUSH2 0x120 PUSH2 0x5109 DUP2 DUP9 ADD DUP5 PUSH4 0xFFFFFFFF AND SWAP1 MSTORE JUMP JUMPDEST DUP1 DUP9 ADD MLOAD SWAP3 POP POP PUSH2 0x140 DUP2 DUP8 DUP7 SUB ADD DUP2 DUP9 ADD MSTORE PUSH2 0x5126 DUP6 DUP5 PUSH2 0x500F JUMP JUMPDEST SWAP5 POP DUP1 DUP9 ADD MLOAD SWAP3 POP POP PUSH2 0x160 DUP2 DUP8 DUP7 SUB ADD DUP2 DUP9 ADD MSTORE PUSH2 0x5145 DUP6 DUP5 PUSH2 0x500F JUMP JUMPDEST SWAP5 POP DUP1 DUP9 ADD MLOAD SWAP3 POP POP PUSH2 0x180 DUP2 DUP8 DUP7 SUB ADD DUP2 DUP9 ADD MSTORE PUSH2 0x5164 DUP6 DUP5 PUSH2 0x500F JUMP JUMPDEST SWAP1 DUP9 ADD MLOAD PUSH2 0x1A0 DUP9 DUP2 ADD SWAP2 SWAP1 SWAP2 MSTORE DUP9 ADD MLOAD PUSH2 0x1C0 DUP1 DUP10 ADD SWAP2 SWAP1 SWAP2 MSTORE DUP9 ADD MLOAD PUSH2 0x1E0 DUP1 DUP10 ADD SWAP2 SWAP1 SWAP2 MSTORE DUP9 ADD MLOAD PUSH2 0x200 DUP1 DUP10 ADD SWAP2 SWAP1 SWAP2 MSTORE DUP9 ADD MLOAD PUSH2 0x220 DUP1 DUP10 ADD SWAP2 SWAP1 SWAP2 MSTORE DUP9 ADD MLOAD PUSH2 0x240 DUP1 DUP10 ADD SWAP2 SWAP1 SWAP2 MSTORE DUP9 ADD MLOAD PUSH2 0x260 DUP1 DUP10 ADD SWAP2 SWAP1 SWAP2 MSTORE DUP9 ADD MLOAD PUSH2 0x280 DUP1 DUP10 ADD SWAP2 SWAP1 SWAP2 MSTORE DUP9 ADD MLOAD SWAP1 SWAP5 POP SWAP2 POP PUSH2 0x2A0 SWAP1 POP PUSH2 0x51E8 DUP2 DUP8 ADD DUP4 PUSH1 0xFF AND SWAP1 MSTORE JUMP JUMPDEST DUP7 ADD MLOAD PUSH2 0x2C0 DUP7 DUP2 ADD SWAP2 SWAP1 SWAP2 MSTORE DUP7 ADD MLOAD PUSH2 0x2E0 DUP1 DUP8 ADD SWAP2 SWAP1 SWAP2 MSTORE DUP7 ADD MLOAD PUSH2 0x300 DUP1 DUP8 ADD SWAP2 SWAP1 SWAP2 MSTORE DUP7 ADD MLOAD PUSH2 0x320 DUP1 DUP8 ADD SWAP2 SWAP1 SWAP2 MSTORE DUP7 ADD MLOAD PUSH2 0x340 DUP1 DUP8 ADD SWAP2 SWAP1 SWAP2 MSTORE DUP7 ADD MLOAD PUSH2 0x360 DUP1 DUP8 ADD SWAP2 SWAP1 SWAP2 MSTORE DUP7 ADD MLOAD PUSH2 0x380 DUP1 DUP8 ADD SWAP2 SWAP1 SWAP2 MSTORE DUP7 ADD MLOAD PUSH2 0x3A0 DUP1 DUP8 ADD SWAP2 SWAP1 SWAP2 MSTORE DUP7 ADD MLOAD PUSH2 0x3C0 DUP1 DUP8 ADD SWAP2 SWAP1 SWAP2 MSTORE SWAP1 SWAP6 ADD MLOAD SWAP4 ADD SWAP3 SWAP1 SWAP3 MSTORE POP SWAP2 SWAP1 POP JUMP JUMPDEST PUSH1 0x20 DUP2 MSTORE DUP2 MLOAD ISZERO ISZERO PUSH1 0x20 DUP3 ADD MSTORE PUSH1 0x0 PUSH1 0x20 DUP4 ADD MLOAD PUSH1 0x40 DUP1 DUP5 ADD MSTORE PUSH2 0x3638 PUSH1 0x60 DUP5 ADD DUP3 PUSH2 0x500F JUMP JUMPDEST PUSH4 0x4E487B71 PUSH1 0xE0 SHL PUSH1 0x0 MSTORE PUSH1 0x32 PUSH1 0x4 MSTORE PUSH1 0x24 PUSH1 0x0 REVERT JUMPDEST PUSH4 0x4E487B71 PUSH1 0xE0 SHL PUSH1 0x0 MSTORE PUSH1 0x11 PUSH1 0x4 MSTORE PUSH1 0x24 PUSH1 0x0 REVERT JUMPDEST DUP2 DUP2 SUB DUP2 DUP2 GT ISZERO PUSH2 0x3FFA JUMPI PUSH2 0x3FFA PUSH2 0x52AA JUMP JUMPDEST PUSH1 0x20 DUP1 DUP3 MSTORE PUSH1 0x11 SWAP1 DUP3 ADD MSTORE PUSH17 0x2CB7BA9030B932903737BA1030B236B4B7 PUSH1 0x79 SHL PUSH1 0x40 DUP3 ADD MSTORE PUSH1 0x60 ADD SWAP1 JUMP JUMPDEST PUSH1 0x0 PUSH1 0xFF DUP3 AND PUSH1 0xFF DUP2 SUB PUSH2 0x5314 JUMPI PUSH2 0x5314 PUSH2 0x52AA JUMP JUMPDEST PUSH1 0x1 ADD SWAP3 SWAP2 POP POP JUMP JUMPDEST PUSH1 0x20 DUP1 DUP3 MSTORE PUSH1 0x2C SWAP1 DUP3 ADD MSTORE PUSH32 0x46756E6374696F6E206D7573742062652063616C6C6564207468726F75676820 PUSH1 0x40 DUP3 ADD MSTORE PUSH12 0x19195B1959D85D1958D85B1B PUSH1 0xA2 SHL PUSH1 0x60 DUP3 ADD MSTORE PUSH1 0x80 ADD SWAP1 JUMP JUMPDEST PUSH1 0x20 DUP1 DUP3 MSTORE PUSH1 0x2C SWAP1 DUP3 ADD MSTORE PUSH32 0x46756E6374696F6E206D7573742062652063616C6C6564207468726F75676820 PUSH1 0x40 DUP3 ADD MSTORE PUSH12 0x6163746976652070726F7879 PUSH1 0xA0 SHL PUSH1 0x60 DUP3 ADD MSTORE PUSH1 0x80 ADD SWAP1 JUMP JUMPDEST PUSH4 0xFFFFFFFF DUP2 DUP2 AND DUP4 DUP3 AND ADD SWAP1 DUP1 DUP3 GT ISZERO PUSH2 0x53D2 JUMPI PUSH2 0x53D2 PUSH2 0x52AA JUMP JUMPDEST POP SWAP3 SWAP2 POP POP JUMP JUMPDEST PUSH1 0x0 PUSH4 0xFFFFFFFF DUP1 DUP4 AND DUP2 DUP2 SUB PUSH2 0x53F2 JUMPI PUSH2 0x53F2 PUSH2 0x52AA JUMP JUMPDEST PUSH1 0x1 ADD SWAP4 SWAP3 POP POP POP JUMP JUMPDEST PUSH1 0x1 DUP2 DUP2 SHR SWAP1 DUP3 AND DUP1 PUSH2 0x5410 JUMPI PUSH1 0x7F DUP3 AND SWAP2 POP JUMPDEST PUSH1 0x20 DUP3 LT DUP2 SUB PUSH2 0x5430 JUMPI PUSH4 0x4E487B71 PUSH1 0xE0 SHL PUSH1 0x0 MSTORE PUSH1 0x22 PUSH1 0x4 MSTORE PUSH1 0x24 PUSH1 0x0 REVERT JUMPDEST POP SWAP2 SWAP1 POP JUMP JUMPDEST PUSH1 0x0 PUSH1 0x20 DUP3 DUP5 SUB SLT ISZERO PUSH2 0x5448 JUMPI PUSH1 0x0 DUP1 REVERT JUMPDEST DUP2 MLOAD DUP1 ISZERO ISZERO DUP2 EQ PUSH2 0x1FEC JUMPI PUSH1 0x0 DUP1 REVERT JUMPDEST PUSH1 0x20 DUP1 DUP3 MSTORE PUSH1 0x1D SWAP1 DUP3 ADD MSTORE PUSH32 0x596F7520617265206E6F74206F776E6572206F6620746869732069642E000000 PUSH1 0x40 DUP3 ADD MSTORE PUSH1 0x60 ADD SWAP1 JUMP JUMPDEST PUSH1 0x1F DUP3 GT ISZERO PUSH2 0xA09 JUMPI PUSH1 0x0 DUP2 DUP2 MSTORE PUSH1 0x20 DUP2 KECCAK256 PUSH1 0x1F DUP6 ADD PUSH1 0x5 SHR DUP2 ADD PUSH1 0x20 DUP7 LT ISZERO PUSH2 0x54B6 JUMPI POP DUP1 JUMPDEST PUSH1 0x1F DUP6 ADD PUSH1 0x5 SHR DUP3 ADD SWAP2 POP JUMPDEST DUP2 DUP2 LT ISZERO PUSH2 0x2CE9 JUMPI DUP3 DUP2 SSTORE PUSH1 0x1 ADD PUSH2 0x54C2 JUMP JUMPDEST DUP2 MLOAD PUSH1 0x1 PUSH1 0x1 PUSH1 0x40 SHL SUB DUP2 GT ISZERO PUSH2 0x54EE JUMPI PUSH2 0x54EE PUSH2 0x4BDD JUMP JUMPDEST PUSH2 0x5502 DUP2 PUSH2 0x54FC DUP5 SLOAD PUSH2 0x53FC JUMP JUMPDEST DUP5 PUSH2 0x548F JUMP JUMPDEST PUSH1 0x20 DUP1 PUSH1 0x1F DUP4 GT PUSH1 0x1 DUP2 EQ PUSH2 0x5537 JUMPI PUSH1 0x0 DUP5 ISZERO PUSH2 0x551F JUMPI POP DUP6 DUP4 ADD MLOAD JUMPDEST PUSH1 0x0 NOT PUSH1 0x3 DUP7 SWAP1 SHL SHR NOT AND PUSH1 0x1 DUP6 SWAP1 SHL OR DUP6 SSTORE PUSH2 0x2CE9 JUMP JUMPDEST PUSH1 0x0 DUP6 DUP2 MSTORE PUSH1 0x20 DUP2 KECCAK256 PUSH1 0x1F NOT DUP7 AND SWAP2 JUMPDEST DUP3 DUP2 LT ISZERO PUSH2 0x5566 JUMPI DUP9 DUP7 ADD MLOAD DUP3 SSTORE SWAP5 DUP5 ADD SWAP5 PUSH1 0x1 SWAP1 SWAP2 ADD SWAP1 DUP5 ADD PUSH2 0x5547 JUMP JUMPDEST POP DUP6 DUP3 LT ISZERO PUSH2 0x5584 JUMPI DUP8 DUP6 ADD MLOAD PUSH1 0x0 NOT PUSH1 0x3 DUP9 SWAP1 SHL PUSH1 0xF8 AND SHR NOT AND DUP2 SSTORE JUMPDEST POP POP POP POP POP PUSH1 0x1 SWAP1 DUP2 SHL ADD SWAP1 SSTORE POP JUMP JUMPDEST PUSH1 0x0 PUSH2 0xFFFF DUP1 DUP4 AND DUP2 DUP2 SUB PUSH2 0x53F2 JUMPI PUSH2 0x53F2 PUSH2 0x52AA JUMP JUMPDEST DUP1 DUP3 ADD DUP1 DUP3 GT ISZERO PUSH2 0x3FFA JUMPI PUSH2 0x3FFA PUSH2 0x52AA JUMP JUMPDEST DUP1 DUP3 MUL DUP2 ISZERO DUP3 DUP3 DIV DUP5 EQ OR PUSH2 0x3FFA JUMPI PUSH2 0x3FFA PUSH2 0x52AA JUMP JUMPDEST PUSH1 0x0 PUSH1 0x1 DUP3 ADD PUSH2 0x55E7 JUMPI PUSH2 0x55E7 PUSH2 0x52AA JUMP JUMPDEST POP PUSH1 0x1 ADD SWAP1 JUMP JUMPDEST PUSH4 0x4E487B71 PUSH1 0xE0 SHL PUSH1 0x0 MSTORE PUSH1 0x31 PUSH1 0x4 MSTORE PUSH1 0x24 PUSH1 0x0 REVERT JUMPDEST PUSH1 0x0 PUSH1 0x20 DUP3 DUP5 SUB SLT ISZERO PUSH2 0x5616 JUMPI PUSH1 0x0 DUP1 REVERT JUMPDEST POP MLOAD SWAP2 SWAP1 POP JUMP JUMPDEST PUSH1 0x20 DUP1 DUP3 MSTORE PUSH1 0x2B SWAP1 DUP3 ADD MSTORE PUSH32 0x496E697469616C697A61626C653A20636F6E7472616374206973206E6F742069 PUSH1 0x40 DUP3 ADD MSTORE PUSH11 0x6E697469616C697A696E67 PUSH1 0xA8 SHL PUSH1 0x60 DUP3 ADD MSTORE PUSH1 0x80 ADD SWAP1 JUMP JUMPDEST PUSH1 0x0 DUP3 PUSH2 0x5685 JUMPI PUSH4 0x4E487B71 PUSH1 0xE0 SHL PUSH1 0x0 MSTORE PUSH1 0x12 PUSH1 0x4 MSTORE PUSH1 0x24 PUSH1 0x0 REVERT JUMPDEST POP DIV SWAP1 JUMP JUMPDEST PUSH1 0x0 DUP3 MLOAD PUSH2 0x569C DUP2 DUP5 PUSH1 0x20 DUP8 ADD PUSH2 0x4FBF JUMP JUMPDEST SWAP2 SWAP1 SWAP2 ADD SWAP3 SWAP2 POP POP JUMP JUMPDEST PUSH1 0x20 DUP2 MSTORE PUSH1 0x0 PUSH2 0x1FEC PUSH1 0x20 DUP4 ADD DUP5 PUSH2 0x4FE3 JUMP INVALID CALLDATASIZE ADDMOD SWAP5 LOG1 EXTCODESIZE LOG1 LOG3 0x21 MOD PUSH8 0xC828492DB98DCA3E KECCAK256 PUSH23 0xCC3735A920A3CA505D382BBC416464726573733A206C6F PUSH24 0x2D6C6576656C2064656C65676174652063616C6C20666169 PUSH13 0x6564A26469706673582212206E PUSH10 0xCAABE36098D9A1C4428B 0xBE 0xB0 OR 0x5E 0xB0 PUSH24 0xDB06B05F51D012EFEB5F7090A7BF64736F6C634300081100 CALLER "},"methodIdentifiers":{"_disabledUsersList(uint256)":"1f7f83ba","activateID(uint32)":"e5682e38","addTeamAddress(uint32[])":"49b32504","admins(uint256)":"14bfd6d0","claimBalance(uint32,uint256)":"f31a2d0f","companyTurnoverTimeLimit()":"f41bfeef","companyTurnoverTimeStamp()":"2ed421d2","companyTurnoverWithTimeLimit()":"22f88b52","decimals()":"313ce567","disableUserAdmin(address)":"9f4e8398","getIDAccount(uint32)":"f830e57b","getIDRoyaltyClubLevel(uint32)":"76a68e84","getPriceOracleContract()":"2913497b","getROIAccount(uint32)":"c3ab5ebf","getUserAccount(address)":"fb47e016","getUserIDTotalROI(uint32)":"bf46de63","getUserTotalActiveROIValue(uint32)":"ea62f715","getUserUnlockCount(uint32)":"b47181d3","initialize()":"8129fc1c","isPayROI()":"af2f39d1","isPayRoyaltyClubBonus()":"fafc9597","isUserDisabledByAdmin(address)":"538ffe0c","levelRates(uint256)":"7879b5ef","maxLevelsCount()":"8df05d9c","minContributionInUSD()":"96ed6b85","owner()":"8da5cb5b","packagesCount()":"18e10bff","proxiableUUID()":"52d1902d","removeRefereeArray(uint32[])":"7f2f4a91","removeUserFromDisableList(address)":"e52356f3","renounceOwnership()":"715018a6","royaltyClubPackageCount()":"a28a3686","sendETHAdmin(address,uint256)":"0b243dad","setAdmin(address)":"704b6c02","setPriceOracleContract(address)":"0efdbb6a","topUpID(uint32)":"b92d18c1","totalIDs()":"5e701d86","totalROIIDs()":"a1b80175","totalROIPaidUSD()":"6dc8afc5","totalReferralPaidUSD()":"1dc209ff","totalRoyaltyClubBonusPaidETH()":"09de82cd","totalRoyaltyClubBonusPaidUSD()":"7a026935","totalUsers()":"bff1f9e1","transferOwnership(address)":"f2fde38b","updateIDOldIDtoAddress(uint32[],address[],uint32[],string[])":"bc09161b","updateTotalIDs(uint32)":"70d9e081","updateUserIDDataOldAdmin(uint32[],uint256[],uint256[],uint256[],uint256[],uint256[])":"db003b2a","upgradeTo(address)":"3659cfe6","upgradeToAndCall(address,bytes)":"4f1ef286","withdrawETHAdmin()":"35759788","withdrawTokensAdmin(address,uint256)":"a0b6105f"}},"storageLayout":{"storage":[{"astId":527,"contract":"contracts/ReferralV2Upgradeable.sol:ReferralV2Upgradeable","label":"_initialized","offset":0,"slot":"0","type":"t_uint8"},{"astId":530,"contract":"contracts/ReferralV2Upgradeable.sol:ReferralV2Upgradeable","label":"_initializing","offset":1,"slot":"0","type":"t_bool"},{"astId":1228,"contract":"contracts/ReferralV2Upgradeable.sol:ReferralV2Upgradeable","label":"__gap","offset":0,"slot":"1","type":"t_array(t_uint256)50_storage"},{"astId":10,"contract":"contracts/ReferralV2Upgradeable.sol:ReferralV2Upgradeable","label":"_owner","offset":0,"slot":"51","type":"t_address"},{"astId":130,"contract":"contracts/ReferralV2Upgradeable.sol:ReferralV2Upgradeable","label":"__gap","offset":0,"slot":"52","type":"t_array(t_uint256)49_storage"},{"astId":509,"contract":"contracts/ReferralV2Upgradeable.sol:ReferralV2Upgradeable","label":"__gap","offset":0,"slot":"101","type":"t_array(t_uint256)50_storage"},{"astId":824,"contract":"contracts/ReferralV2Upgradeable.sol:ReferralV2Upgradeable","label":"__gap","offset":0,"slot":"151","type":"t_array(t_uint256)50_storage"},{"astId":1309,"contract":"contracts/ReferralV2Upgradeable.sol:ReferralV2Upgradeable","label":"_priceOracleContract","offset":0,"slot":"201","type":"t_address"},{"astId":1312,"contract":"contracts/ReferralV2Upgradeable.sol:ReferralV2Upgradeable","label":"levelRates","offset":0,"slot":"202","type":"t_array(t_uint16)dyn_storage"},{"astId":1314,"contract":"contracts/ReferralV2Upgradeable.sol:ReferralV2Upgradeable","label":"decimals","offset":0,"slot":"203","type":"t_uint16"},{"astId":1316,"contract":"contracts/ReferralV2Upgradeable.sol:ReferralV2Upgradeable","label":"maxLevelsCount","offset":2,"slot":"203","type":"t_uint8"},{"astId":1318,"contract":"contracts/ReferralV2Upgradeable.sol:ReferralV2Upgradeable","label":"minContributionInUSD","offset":0,"slot":"204","type":"t_uint256"},{"astId":1320,"contract":"contracts/ReferralV2Upgradeable.sol:ReferralV2Upgradeable","label":"totalRoyaltyClubBonusPaidUSD","offset":0,"slot":"205","type":"t_uint256"},{"astId":1322,"contract":"contracts/ReferralV2Upgradeable.sol:ReferralV2Upgradeable","label":"totalRoyaltyClubBonusPaidETH","offset":0,"slot":"206","type":"t_uint256"},{"astId":1324,"contract":"contracts/ReferralV2Upgradeable.sol:ReferralV2Upgradeable","label":"totalReferralPaidUSD","offset":0,"slot":"207","type":"t_uint256"},{"astId":1326,"contract":"contracts/ReferralV2Upgradeable.sol:ReferralV2Upgradeable","label":"totalROIPaidUSD","offset":0,"slot":"208","type":"t_uint256"},{"astId":1328,"contract":"contracts/ReferralV2Upgradeable.sol:ReferralV2Upgradeable","label":"totalUsers","offset":0,"slot":"209","type":"t_uint32"},{"astId":1330,"contract":"contracts/ReferralV2Upgradeable.sol:ReferralV2Upgradeable","label":"totalIDs","offset":4,"slot":"209","type":"t_uint32"},{"astId":1332,"contract":"contracts/ReferralV2Upgradeable.sol:ReferralV2Upgradeable","label":"totalROIIDs","offset":8,"slot":"209","type":"t_uint32"},{"astId":1334,"contract":"contracts/ReferralV2Upgradeable.sol:ReferralV2Upgradeable","label":"_roiRate","offset":12,"slot":"209","type":"t_uint16"},{"astId":1336,"contract":"contracts/ReferralV2Upgradeable.sol:ReferralV2Upgradeable","label":"_roiDuration","offset":0,"slot":"210","type":"t_uint256"},{"astId":1338,"contract":"contracts/ReferralV2Upgradeable.sol:ReferralV2Upgradeable","label":"_roiClaimTimelimit","offset":0,"slot":"211","type":"t_uint256"},{"astId":1340,"contract":"contracts/ReferralV2Upgradeable.sol:ReferralV2Upgradeable","label":"isPayROI","offset":0,"slot":"212","type":"t_bool"},{"astId":1342,"contract":"contracts/ReferralV2Upgradeable.sol:ReferralV2Upgradeable","label":"isPayRoyaltyClubBonus","offset":1,"slot":"212","type":"t_bool"},{"astId":1344,"contract":"contracts/ReferralV2Upgradeable.sol:ReferralV2Upgradeable","label":"royaltyClubPackageCount","offset":2,"slot":"212","type":"t_uint8"},{"astId":1346,"contract":"contracts/ReferralV2Upgradeable.sol:ReferralV2Upgradeable","label":"_userLevelUnlockMultiplier","offset":3,"slot":"212","type":"t_uint8"},{"astId":1348,"contract":"contracts/ReferralV2Upgradeable.sol:ReferralV2Upgradeable","label":"companyTurnoverWithTimeLimit","offset":0,"slot":"213","type":"t_uint256"},{"astId":1350,"contract":"contracts/ReferralV2Upgradeable.sol:ReferralV2Upgradeable","label":"companyTurnoverTimeStamp","offset":0,"slot":"214","type":"t_uint256"},{"astId":1352,"contract":"contracts/ReferralV2Upgradeable.sol:ReferralV2Upgradeable","label":"companyTurnoverTimeLimit","offset":0,"slot":"215","type":"t_uint256"},{"astId":1355,"contract":"contracts/ReferralV2Upgradeable.sol:ReferralV2Upgradeable","label":"_disabledUsersList","offset":0,"slot":"216","type":"t_array(t_address)dyn_storage"},{"astId":1467,"contract":"contracts/ReferralV2Upgradeable.sol:ReferralV2Upgradeable","label":"packagesCount","offset":0,"slot":"217","type":"t_uint8"},{"astId":1472,"contract":"contracts/ReferralV2Upgradeable.sol:ReferralV2Upgradeable","label":"accounts","offset":0,"slot":"218","type":"t_mapping(t_address,t_struct(StructAccount)1361_storage)"},{"astId":1477,"contract":"contracts/ReferralV2Upgradeable.sol:ReferralV2Upgradeable","label":"ids","offset":0,"slot":"219","type":"t_mapping(t_uint32,t_struct(StructID)1428_storage)"},{"astId":1482,"contract":"contracts/ReferralV2Upgradeable.sol:ReferralV2Upgradeable","label":"rois","offset":0,"slot":"220","type":"t_mapping(t_uint32,t_struct(StructROI)1441_storage)"},{"astId":1487,"contract":"contracts/ReferralV2Upgradeable.sol:ReferralV2Upgradeable","label":"packages","offset":0,"slot":"221","type":"t_mapping(t_uint8,t_struct(StructPackages)1465_storage)"},{"astId":1669,"contract":"contracts/ReferralV2Upgradeable.sol:ReferralV2Upgradeable","label":"admins","offset":0,"slot":"222","type":"t_array(t_address)dyn_storage"}],"types":{"t_address":{"encoding":"inplace","label":"address","numberOfBytes":"20"},"t_array(t_address)dyn_storage":{"base":"t_address","encoding":"dynamic_array","label":"address[]","numberOfBytes":"32"},"t_array(t_uint16)dyn_storage":{"base":"t_uint16","encoding":"dynamic_array","label":"uint16[]","numberOfBytes":"32"},"t_array(t_uint256)49_storage":{"base":"t_uint256","encoding":"inplace","label":"uint256[49]","numberOfBytes":"1568"},"t_array(t_uint256)50_storage":{"base":"t_uint256","encoding":"inplace","label":"uint256[50]","numberOfBytes":"1600"},"t_array(t_uint32)dyn_storage":{"base":"t_uint32","encoding":"dynamic_array","label":"uint32[]","numberOfBytes":"32"},"t_bool":{"encoding":"inplace","label":"bool","numberOfBytes":"1"},"t_mapping(t_address,t_struct(StructAccount)1361_storage)":{"encoding":"mapping","key":"t_address","label":"mapping(address => struct ReferralV2Upgradeable.StructAccount)","numberOfBytes":"32","value":"t_struct(StructAccount)1361_storage"},"t_mapping(t_uint32,t_struct(StructID)1428_storage)":{"encoding":"mapping","key":"t_uint32","label":"mapping(uint32 => struct ReferralV2Upgradeable.StructID)","numberOfBytes":"32","value":"t_struct(StructID)1428_storage"},"t_mapping(t_uint32,t_struct(StructROI)1441_storage)":{"encoding":"mapping","key":"t_uint32","label":"mapping(uint32 => struct ReferralV2Upgradeable.StructROI)","numberOfBytes":"32","value":"t_struct(StructROI)1441_storage"},"t_mapping(t_uint8,t_struct(StructPackages)1465_storage)":{"encoding":"mapping","key":"t_uint8","label":"mapping(uint8 => struct ReferralV2Upgradeable.StructPackages)","numberOfBytes":"32","value":"t_struct(StructPackages)1465_storage"},"t_string_storage":{"encoding":"bytes","label":"string","numberOfBytes":"32"},"t_struct(StructAccount)1361_storage":{"encoding":"inplace","label":"struct ReferralV2Upgradeable.StructAccount","members":[{"astId":1357,"contract":"contracts/ReferralV2Upgradeable.sol:ReferralV2Upgradeable","label":"isDisabled","offset":0,"slot":"0","type":"t_bool"},{"astId":1360,"contract":"contracts/ReferralV2Upgradeable.sol:ReferralV2Upgradeable","label":"accountIDs","offset":0,"slot":"1","type":"t_array(t_uint32)dyn_storage"}],"numberOfBytes":"64"},"t_struct(StructID)1428_storage":{"encoding":"inplace","label":"struct ReferralV2Upgradeable.StructID","members":[{"astId":1363,"contract":"contracts/ReferralV2Upgradeable.sol:ReferralV2Upgradeable","label":"id","offset":0,"slot":"0","type":"t_uint32"},{"astId":1365,"contract":"contracts/ReferralV2Upgradeable.sol:ReferralV2Upgradeable","label":"oldID","offset":0,"slot":"1","type":"t_string_storage"},{"astId":1367,"contract":"contracts/ReferralV2Upgradeable.sol:ReferralV2Upgradeable","label":"isDisabled","offset":0,"slot":"2","type":"t_bool"},{"astId":1369,"contract":"contracts/ReferralV2Upgradeable.sol:ReferralV2Upgradeable","label":"owner","offset":1,"slot":"2","type":"t_address"},{"astId":1371,"contract":"contracts/ReferralV2Upgradeable.sol:ReferralV2Upgradeable","label":"joiningTime","offset":0,"slot":"3","type":"t_uint256"},{"astId":1373,"contract":"contracts/ReferralV2Upgradeable.sol:ReferralV2Upgradeable","label":"activationTime","offset":0,"slot":"4","type":"t_uint256"},{"astId":1375,"contract":"contracts/ReferralV2Upgradeable.sol:ReferralV2Upgradeable","label":"deactivateTime","offset":0,"slot":"5","type":"t_uint256"},{"astId":1378,"contract":"contracts/ReferralV2Upgradeable.sol:ReferralV2Upgradeable","label":"roiIDs","offset":0,"slot":"6","type":"t_array(t_uint32)dyn_storage"},{"astId":1380,"contract":"contracts/ReferralV2Upgradeable.sol:ReferralV2Upgradeable","label":"refererID","offset":0,"slot":"7","type":"t_uint32"},{"astId":1383,"contract":"contracts/ReferralV2Upgradeable.sol:ReferralV2Upgradeable","label":"refereeIDs","offset":0,"slot":"8","type":"t_array(t_uint32)dyn_storage"},{"astId":1386,"contract":"contracts/ReferralV2Upgradeable.sol:ReferralV2Upgradeable","label":"teamIDs","offset":0,"slot":"9","type":"t_array(t_uint32)dyn_storage"},{"astId":1389,"contract":"contracts/ReferralV2Upgradeable.sol:ReferralV2Upgradeable","label":"teamLevel","offset":0,"slot":"10","type":"t_array(t_uint32)dyn_storage"},{"astId":1391,"contract":"contracts/ReferralV2Upgradeable.sol:ReferralV2Upgradeable","label":"selfBusinessUSD","offset":0,"slot":"11","type":"t_uint256"},{"astId":1393,"contract":"contracts/ReferralV2Upgradeable.sol:ReferralV2Upgradeable","label":"selfBusinessUSDOld","offset":0,"slot":"12","type":"t_uint256"},{"astId":1395,"contract":"contracts/ReferralV2Upgradeable.sol:ReferralV2Upgradeable","label":"directBusinessUSD","offset":0,"slot":"13","type":"t_uint256"},{"astId":1397,"contract":"contracts/ReferralV2Upgradeable.sol:ReferralV2Upgradeable","label":"directBusinessUSDOld","offset":0,"slot":"14","type":"t_uint256"},{"astId":1399,"contract":"contracts/ReferralV2Upgradeable.sol:ReferralV2Upgradeable","label":"teamBusinessUSD","offset":0,"slot":"15","type":"t_uint256"},{"astId":1401,"contract":"contracts/ReferralV2Upgradeable.sol:ReferralV2Upgradeable","label":"teamBusinessUSDOld","offset":0,"slot":"16","type":"t_uint256"},{"astId":1403,"contract":"contracts/ReferralV2Upgradeable.sol:ReferralV2Upgradeable","label":"royaltyClubBusinessUSD","offset":0,"slot":"17","type":"t_uint256"},{"astId":1405,"contract":"contracts/ReferralV2Upgradeable.sol:ReferralV2Upgradeable","label":"timeStampRoyaltyClub","offset":0,"slot":"18","type":"t_uint256"},{"astId":1407,"contract":"contracts/ReferralV2Upgradeable.sol:ReferralV2Upgradeable","label":"royaltyClubPackageID","offset":0,"slot":"19","type":"t_uint8"},{"astId":1409,"contract":"contracts/ReferralV2Upgradeable.sol:ReferralV2Upgradeable","label":"royaltyClubListIndex","offset":0,"slot":"20","type":"t_uint256"},{"astId":1411,"contract":"contracts/ReferralV2Upgradeable.sol:ReferralV2Upgradeable","label":"referralPaidUSD","offset":0,"slot":"21","type":"t_uint256"},{"astId":1413,"contract":"contracts/ReferralV2Upgradeable.sol:ReferralV2Upgradeable","label":"rewardPaidRoyaltyClubUSD","offset":0,"slot":"22","type":"t_uint256"},{"astId":1415,"contract":"contracts/ReferralV2Upgradeable.sol:ReferralV2Upgradeable","label":"topUpUSD","offset":0,"slot":"23","type":"t_uint256"},{"astId":1417,"contract":"contracts/ReferralV2Upgradeable.sol:ReferralV2Upgradeable","label":"balanceClaimedUSD","offset":0,"slot":"24","type":"t_uint256"},{"astId":1419,"contract":"contracts/ReferralV2Upgradeable.sol:ReferralV2Upgradeable","label":"limitBalanceUSD","offset":0,"slot":"25","type":"t_uint256"},{"astId":1421,"contract":"contracts/ReferralV2Upgradeable.sol:ReferralV2Upgradeable","label":"maxLimitAmount","offset":0,"slot":"26","type":"t_uint256"},{"astId":1423,"contract":"contracts/ReferralV2Upgradeable.sol:ReferralV2Upgradeable","label":"totalROIClaimedUSD","offset":0,"slot":"27","type":"t_uint256"},{"astId":1425,"contract":"contracts/ReferralV2Upgradeable.sol:ReferralV2Upgradeable","label":"roiClaimedUSD","offset":0,"slot":"28","type":"t_uint256"},{"astId":1427,"contract":"contracts/ReferralV2Upgradeable.sol:ReferralV2Upgradeable","label":"roiClaimTimestamp","offset":0,"slot":"29","type":"t_uint256"}],"numberOfBytes":"960"},"t_struct(StructPackages)1465_storage":{"encoding":"inplace","label":"struct ReferralV2Upgradeable.StructPackages","members":[{"astId":1443,"contract":"contracts/ReferralV2Upgradeable.sol:ReferralV2Upgradeable","label":"packageID","offset":0,"slot":"0","type":"t_uint8"},{"astId":1445,"contract":"contracts/ReferralV2Upgradeable.sol:ReferralV2Upgradeable","label":"selfBusinessUSD","offset":0,"slot":"1","type":"t_uint256"},{"astId":1447,"contract":"contracts/ReferralV2Upgradeable.sol:ReferralV2Upgradeable","label":"directBusinessUSD","offset":0,"slot":"2","type":"t_uint256"},{"astId":1449,"contract":"contracts/ReferralV2Upgradeable.sol:ReferralV2Upgradeable","label":"teamBusinessUSD","offset":0,"slot":"3","type":"t_uint256"},{"astId":1451,"contract":"contracts/ReferralV2Upgradeable.sol:ReferralV2Upgradeable","label":"rankName","offset":0,"slot":"4","type":"t_string_storage"},{"astId":1453,"contract":"contracts/ReferralV2Upgradeable.sol:ReferralV2Upgradeable","label":"reward","offset":0,"slot":"5","type":"t_uint256"},{"astId":1455,"contract":"contracts/ReferralV2Upgradeable.sol:ReferralV2Upgradeable","label":"businessLimit","offset":0,"slot":"6","type":"t_uint256"},{"astId":1457,"contract":"contracts/ReferralV2Upgradeable.sol:ReferralV2Upgradeable","label":"timeLimit","offset":0,"slot":"7","type":"t_uint256"},{"astId":1459,"contract":"contracts/ReferralV2Upgradeable.sol:ReferralV2Upgradeable","label":"isOneTimeRewardPaid","offset":0,"slot":"8","type":"t_bool"},{"astId":1461,"contract":"contracts/ReferralV2Upgradeable.sol:ReferralV2Upgradeable","label":"isPayReccursive","offset":1,"slot":"8","type":"t_bool"},{"astId":1464,"contract":"contracts/ReferralV2Upgradeable.sol:ReferralV2Upgradeable","label":"achieversList","offset":0,"slot":"9","type":"t_array(t_uint32)dyn_storage"}],"numberOfBytes":"320"},"t_struct(StructROI)1441_storage":{"encoding":"inplace","label":"struct ReferralV2Upgradeable.StructROI","members":[{"astId":1430,"contract":"contracts/ReferralV2Upgradeable.sol:ReferralV2Upgradeable","label":"isActive","offset":0,"slot":"0","type":"t_bool"},{"astId":1432,"contract":"contracts/ReferralV2Upgradeable.sol:ReferralV2Upgradeable","label":"ownerID","offset":1,"slot":"0","type":"t_uint32"},{"astId":1434,"contract":"contracts/ReferralV2Upgradeable.sol:ReferralV2Upgradeable","label":"valueInUSD","offset":0,"slot":"1","type":"t_uint256"},{"astId":1436,"contract":"contracts/ReferralV2Upgradeable.sol:ReferralV2Upgradeable","label":"roiRate","offset":0,"slot":"2","type":"t_uint16"},{"astId":1438,"contract":"contracts/ReferralV2Upgradeable.sol:ReferralV2Upgradeable","label":"startTime","offset":0,"slot":"3","type":"t_uint256"},{"astId":1440,"contract":"contracts/ReferralV2Upgradeable.sol:ReferralV2Upgradeable","label":"duration","offset":0,"slot":"4","type":"t_uint256"}],"numberOfBytes":"160"},"t_uint16":{"encoding":"inplace","label":"uint16","numberOfBytes":"2"},"t_uint256":{"encoding":"inplace","label":"uint256","numberOfBytes":"32"},"t_uint32":{"encoding":"inplace","label":"uint32","numberOfBytes":"4"},"t_uint8":{"encoding":"inplace","label":"uint8","numberOfBytes":"1"}}}}}}