{"contracts/FutureSecureWalletUpgradeable.sol":{"FutureSecureWalletV1Upgradeable":{"abi":[{"anonymous":false,"inputs":[{"indexed":false,"internalType":"address","name":"previousAdmin","type":"address"},{"indexed":false,"internalType":"address","name":"newAdmin","type":"address"}],"name":"AdminChanged","type":"event"},{"anonymous":false,"inputs":[{"indexed":true,"internalType":"address","name":"beacon","type":"address"}],"name":"BeaconUpgraded","type":"event"},{"anonymous":false,"inputs":[{"indexed":true,"internalType":"address","name":"userAddress","type":"address"},{"indexed":true,"internalType":"uint256","name":"value","type":"uint256"},{"indexed":true,"internalType":"uint256","name":"stakingID","type":"uint256"}],"name":"IDUnStaked","type":"event"},{"anonymous":false,"inputs":[{"indexed":false,"internalType":"uint8","name":"version","type":"uint8"}],"name":"Initialized","type":"event"},{"anonymous":false,"inputs":[{"indexed":true,"internalType":"address","name":"previousOwner","type":"address"},{"indexed":true,"internalType":"address","name":"newOwner","type":"address"}],"name":"OwnershipTransferred","type":"event"},{"anonymous":false,"inputs":[{"indexed":false,"internalType":"address","name":"account","type":"address"}],"name":"Paused","type":"event"},{"anonymous":false,"inputs":[{"indexed":true,"internalType":"address","name":"userAddress","type":"address"},{"indexed":false,"internalType":"uint256","name":"amount","type":"uint256"}],"name":"PrincipalClaimed","type":"event"},{"anonymous":false,"inputs":[{"indexed":true,"internalType":"address","name":"userAddress","type":"address"},{"indexed":true,"internalType":"uint256","name":"valueStaked","type":"uint256"},{"indexed":true,"internalType":"uint256","name":"duration","type":"uint256"},{"indexed":false,"internalType":"uint256","name":"stakingID","type":"uint256"}],"name":"Stake","type":"event"},{"anonymous":false,"inputs":[{"indexed":true,"internalType":"address","name":"userAddress","type":"address"},{"indexed":true,"internalType":"uint256","name":"reward","type":"uint256"}],"name":"StakingRewardClaimed","type":"event"},{"anonymous":false,"inputs":[{"indexed":true,"internalType":"address","name":"userAddress","type":"address"},{"indexed":true,"internalType":"uint256","name":"value","type":"uint256"}],"name":"UnStaked","type":"event"},{"anonymous":false,"inputs":[{"indexed":false,"internalType":"address","name":"account","type":"address"}],"name":"Unpaused","type":"event"},{"anonymous":false,"inputs":[{"indexed":true,"internalType":"address","name":"implementation","type":"address"}],"name":"Upgraded","type":"event"},{"inputs":[],"name":"activeStakersList","outputs":[{"internalType":"address[]","name":"","type":"address[]"}],"stateMutability":"view","type":"function"},{"inputs":[{"internalType":"uint256","name":"","type":"uint256"}],"name":"admins","outputs":[{"internalType":"address","name":"","type":"address"}],"stateMutability":"view","type":"function"},{"inputs":[],"name":"allStakersList","outputs":[{"internalType":"address[]","name":"","type":"address[]"}],"stateMutability":"view","type":"function"},{"inputs":[],"name":"claimStakingReward","outputs":[],"stateMutability":"nonpayable","type":"function"},{"inputs":[{"internalType":"address[]","name":"_userAddress","type":"address[]"}],"name":"disableAccounts","outputs":[],"stateMutability":"nonpayable","type":"function"},{"inputs":[{"internalType":"address[]","name":"_userAddress","type":"address[]"}],"name":"enableAccounts","outputs":[],"stateMutability":"nonpayable","type":"function"},{"inputs":[],"name":"getActiveStakingIDs","outputs":[{"internalType":"uint256[]","name":"","type":"uint256[]"}],"stateMutability":"view","type":"function"},{"inputs":[],"name":"getDisabledAccountsList","outputs":[{"internalType":"address[]","name":"","type":"address[]"}],"stateMutability":"view","type":"function"},{"inputs":[],"name":"getStakingCappings","outputs":[{"internalType":"uint256","name":"stakingRewardRate","type":"uint256"},{"internalType":"uint256","name":"stakingDuration","type":"uint256"},{"internalType":"uint256","name":"stakingRewardClaimTimeLimit","type":"uint256"}],"stateMutability":"view","type":"function"},{"inputs":[{"internalType":"address","name":"_userAddress","type":"address"}],"name":"getStakingTimeEndTime","outputs":[{"internalType":"uint256","name":"time","type":"uint256"}],"stateMutability":"view","type":"function"},{"inputs":[],"name":"getTotalStakingRewardDistributed","outputs":[{"internalType":"uint256","name":"_tokenRewards","type":"uint256"}],"stateMutability":"view","type":"function"},{"inputs":[],"name":"getTotalValueStaked","outputs":[{"internalType":"uint256","name":"token","type":"uint256"}],"stateMutability":"view","type":"function"},{"inputs":[{"internalType":"address","name":"_userAddress","type":"address"}],"name":"getUserAllStakingsRewards","outputs":[{"internalType":"uint256","name":"","type":"uint256"}],"stateMutability":"view","type":"function"},{"inputs":[{"internalType":"address","name":"_userAddress","type":"address"}],"name":"getUserStakingIDs","outputs":[{"internalType":"uint256[]","name":"","type":"uint256[]"}],"stateMutability":"view","type":"function"},{"inputs":[{"internalType":"address","name":"_userAddress","type":"address"}],"name":"getUserTotalRewardClaimedToken","outputs":[{"internalType":"uint256","name":"","type":"uint256"}],"stateMutability":"view","type":"function"},{"inputs":[{"internalType":"address","name":"_userAddress","type":"address"}],"name":"getUserTotalValueStaked","outputs":[{"internalType":"uint256","name":"token","type":"uint256"}],"stateMutability":"view","type":"function"},{"inputs":[{"internalType":"address","name":"_userAddress","type":"address"}],"name":"getUserUnStakeValue","outputs":[{"internalType":"uint256","name":"","type":"uint256"}],"stateMutability":"view","type":"function"},{"inputs":[],"name":"initialize","outputs":[],"stateMutability":"nonpayable","type":"function"},{"inputs":[{"internalType":"address","name":"_userAddress","type":"address"}],"name":"isAccountDisabled","outputs":[{"internalType":"bool","name":"","type":"bool"}],"stateMutability":"view","type":"function"},{"inputs":[{"internalType":"address","name":"_userAddress","type":"address"}],"name":"isStaked","outputs":[{"internalType":"bool","name":"","type":"bool"}],"stateMutability":"view","type":"function"},{"inputs":[],"name":"owner","outputs":[{"internalType":"address","name":"","type":"address"}],"stateMutability":"view","type":"function"},{"inputs":[],"name":"pause","outputs":[],"stateMutability":"nonpayable","type":"function"},{"inputs":[],"name":"paused","outputs":[{"internalType":"bool","name":"","type":"bool"}],"stateMutability":"view","type":"function"},{"inputs":[],"name":"proxiableUUID","outputs":[{"internalType":"bytes32","name":"","type":"bytes32"}],"stateMutability":"view","type":"function"},{"inputs":[],"name":"renounceOwnership","outputs":[],"stateMutability":"nonpayable","type":"function"},{"inputs":[{"internalType":"uint256","name":"_valueInDays","type":"uint256"}],"name":"setStakingDuration","outputs":[],"stateMutability":"nonpayable","type":"function"},{"inputs":[{"internalType":"uint256","name":"_valueInDays","type":"uint256"}],"name":"setStakingRewardClaimTimeLimity","outputs":[],"stateMutability":"nonpayable","type":"function"},{"inputs":[{"internalType":"uint16","name":"_valueInPer","type":"uint16"}],"name":"setStakingRewardRate","outputs":[],"stateMutability":"nonpayable","type":"function"},{"inputs":[{"internalType":"address","name":"_userAddress","type":"address"},{"internalType":"uint256","name":"_value","type":"uint256"}],"name":"stakeByAdmin","outputs":[],"stateMutability":"nonpayable","type":"function"},{"inputs":[{"internalType":"uint256","name":"_stakingID","type":"uint256"}],"name":"stakeInfoMap","outputs":[{"components":[{"internalType":"bool","name":"isStaked","type":"bool"},{"internalType":"uint32","name":"id","type":"uint32"},{"internalType":"address","name":"owner","type":"address"},{"internalType":"uint256","name":"value","type":"uint256"},{"internalType":"uint16","name":"rewardRate","type":"uint16"},{"internalType":"uint256","name":"startTime","type":"uint256"},{"internalType":"uint256","name":"duration","type":"uint256"}],"internalType":"struct FutureSecureWalletV1Upgradeable.StakeInfo","name":"","type":"tuple"}],"stateMutability":"view","type":"function"},{"inputs":[{"internalType":"address","name":"newOwner","type":"address"}],"name":"transferOwnership","outputs":[],"stateMutability":"nonpayable","type":"function"},{"inputs":[],"name":"unStake","outputs":[],"stateMutability":"nonpayable","type":"function"},{"inputs":[],"name":"unpause","outputs":[],"stateMutability":"nonpayable","type":"function"},{"inputs":[{"internalType":"address","name":"newImplementation","type":"address"}],"name":"upgradeTo","outputs":[],"stateMutability":"nonpayable","type":"function"},{"inputs":[{"internalType":"address","name":"newImplementation","type":"address"},{"internalType":"bytes","name":"data","type":"bytes"}],"name":"upgradeToAndCall","outputs":[],"stateMutability":"payable","type":"function"},{"inputs":[{"internalType":"address","name":"_userAddress","type":"address"}],"name":"userAccountMap","outputs":[{"components":[{"internalType":"uint256[]","name":"stakingIDs","type":"uint256[]"},{"internalType":"bool","name":"isDisabled","type":"bool"},{"internalType":"uint256","name":"rewardClaimedTimestamp","type":"uint256"},{"internalType":"uint256","name":"rewardClaimed","type":"uint256"}],"internalType":"struct FutureSecureWalletV1Upgradeable.Account","name":"","type":"tuple"}],"stateMutability":"view","type":"function"},{"inputs":[{"internalType":"address","name":"_receiver","type":"address"},{"internalType":"uint256","name":"_value","type":"uint256"}],"name":"withdrawNativeFunds","outputs":[{"internalType":"bool","name":"","type":"bool"}],"stateMutability":"nonpayable","type":"function"},{"inputs":[{"internalType":"address","name":"_tokenAddress","type":"address"},{"internalType":"address","name":"_receiver","type":"address"},{"internalType":"uint256","name":"_value","type":"uint256"}],"name":"withdrawTokens","outputs":[{"internalType":"bool","name":"","type":"bool"}],"stateMutability":"nonpayable","type":"function"},{"stateMutability":"payable","type":"receive"}],"evm":{"bytecode":{"linkReferences":{},"object":"60a06040523060805234801561001457600080fd5b50608051612f6761004c60003960008181610b4101528181610b8a01528181610d4d01528181610d8d0152610e200152612f676000f3fe6080604052600436106102295760003560e01c80636f51b20b11610123578063a40b5891116100ab578063dba4358c1161006f578063dba4358c1461077c578063deede65414610791578063e3a51f58146107a6578063f2fde38b146107de578063f807438f146107fe57600080fd5b8063a40b5891146105ac578063a7566b75146105e9578063afc695ce14610725578063ba4f678e1461073a578063c06a53881461076757600080fd5b80637ce574bf116100f25780637ce574bf1461052f5780638129fc1c146105445780638456cb59146105595780638da5cb5b1461056e5780639c3fe28a1461058c57600080fd5b80636f51b20b146104c35780636f72693b146104f0578063715018a61461050557806373cf575a1461051a57600080fd5b806352d1902d116101b15780635f869714116101755780635f869714146104095780636177fd181461042957806366e5e570146104495780636a50eefa146104835780636a8ca691146104a357600080fd5b806352d1902d1461037c57806353bdadea146103915780635c975abb146103b15780635cbfd021146103c95780635e35359e146103e957600080fd5b80632955f37d116101f85780632955f37d146102f25780633659cfe6146103125780633b09098f146103345780633f4ba83a146103545780634f1ef2861461036957600080fd5b806314bfd6d014610235578063260cb4e91461027257806326792aca1461029457806326ed1af0146102c457600080fd5b3661023057005b600080fd5b34801561024157600080fd5b5061025561025036600461296b565b61081e565b6040516001600160a01b0390911681526020015b60405180910390f35b34801561027e57600080fd5b50610287610849565b6040516102699190612984565b3480156102a057600080fd5b506102b46102af3660046129e1565b6109c5565b6040519015158152602001610269565b3480156102d057600080fd5b506102e46102df366004612a0b565b610a11565b604051908152602001610269565b3480156102fe57600080fd5b506102e461030d366004612a0b565b610a1c565b34801561031e57600080fd5b5061033261032d366004612a0b565b610b37565b005b34801561034057600080fd5b5061033261034f366004612a26565b610c1f565b34801561036057600080fd5b50610332610d31565b610332610377366004612ab1565b610d43565b34801561038857600080fd5b506102e4610e13565b34801561039d57600080fd5b506103326103ac366004612a26565b610ec6565b3480156103bd57600080fd5b5060335460ff166102b4565b3480156103d557600080fd5b506103326103e436600461296b565b610fcc565b3480156103f557600080fd5b506102b4610404366004612b73565b611068565b34801561041557600080fd5b506102e4610424366004612a0b565b6110f2565b34801561043557600080fd5b506102b4610444366004612a0b565b6111d0565b34801561045557600080fd5b506102e4610464366004612a0b565b6001600160a01b03166000908152610103602052604090206003015490565b34801561048f57600080fd5b5061033261049e3660046129e1565b611257565b3480156104af57600080fd5b506103326104be36600461296b565b6112f8565b3480156104cf57600080fd5b506104e36104de366004612a0b565b611394565b6040516102699190612bea565b3480156104fc57600080fd5b506104e3611401565b34801561051157600080fd5b506103326114b6565b34801561052657600080fd5b506103326114c8565b34801561053b57600080fd5b5060fe546102e4565b34801561055057600080fd5b506103326115d3565b34801561056557600080fd5b50610332611738565b34801561057a57600080fd5b506065546001600160a01b0316610255565b34801561059857600080fd5b506102e46105a7366004612a0b565b611748565b3480156105b857600080fd5b506102b46105c7366004612a0b565b6001600160a01b03166000908152610103602052604090206001015460ff1690565b3480156105f557600080fd5b506106bf61060436600461296b565b6040805160e081018252600080825260208201819052918101829052606081018290526080810182905260a0810182905260c08101919091525060009081526101046020908152604091829020825160e081018452815460ff811615158252610100810463ffffffff1693820193909352650100000000009092046001600160a01b03169282019290925260018201546060820152600282015461ffff166080820152600382015460a082015260049091015460c082015290565b604051610269919081511515815260208083015163ffffffff16908201526040808301516001600160a01b0316908201526060808301519082015260808083015161ffff169082015260a0808301519082015260c0918201519181019190915260e00190565b34801561073157600080fd5b5061033261176a565b34801561074657600080fd5b5061075a610755366004612a0b565b611912565b6040516102699190612bfd565b34801561077357600080fd5b506102876119dd565b34801561078857600080fd5b50610287611b31565b34801561079d57600080fd5b5060fd546102e4565b3480156107b257600080fd5b5060ff5461010054610101546040805161ffff9094168452602084019290925290820152606001610269565b3480156107ea57600080fd5b506103326107f9366004612a0b565b611c95565b34801561080a57600080fd5b50610332610819366004612c45565b611d0b565b610102818154811061082f57600080fd5b6000918252602090912001546001600160a01b0316905081565b6000808052610103602090815260fc80546040805182850281018501909152818152606094937ff167d7e9ac6011f0b837eaede5176b30419264c8a43ec5db1d59bf93c98c1f7f93859390918301828280156108ce57602002820191906000526020600020905b81546001600160a01b031681526001909101906020018083116108b0575b5050505050905060008151905060008167ffffffffffffffff8111156108f6576108f6612a9b565b60405190808252806020026020018201604052801561091f578160200160208202803683370190505b5090506000805b838110156109b95784818151811061094057610940612c69565b602002602001015196506109548388611dab565b15156001146109a75760018087015460ff16151590036109a7578683838151811061098157610981612c69565b6001600160a01b0390921660209283029190910190910152816109a381612c95565b9250505b806109b181612c95565b915050610926565b50909695505050505050565b60006109cf611e10565b6040516001600160a01b0384169083156108fc029084906000818181858888f19350505050158015610a05573d6000803e3d6000fd5b50600190505b92915050565b6000610a0b82611e6a565b6001600160a01b0381166000908152610103602090815260408083208151815460a0948102820185019093526080810183815242948694929392849291849190840182828015610a8b57602002820191906000526020600020905b815481526020019060010190808311610a77575b505050918352505060018281015460ff1615156020830152600283015460408301526003909201546060909101528151805192935060009261010492849291610ad49190612cae565b81518110610ae457610ae4612c69565b602002602001015181526020019081526020016000209050600081600401548260030154610b129190612cc1565b83515190915015801590610b2557508084105b15610b2e578094505b50505050919050565b6001600160a01b037f0000000000000000000000000000000000000000000000000000000000000000163003610b885760405162461bcd60e51b8152600401610b7f90612cd4565b60405180910390fd5b7f00000000000000000000000000000000000000000000000000000000000000006001600160a01b0316610bd1600080516020612eeb833981519152546001600160a01b031690565b6001600160a01b031614610bf75760405162461bcd60e51b8152600401610b7f90612d20565b610c0081611f6f565b60408051600080825260208201909252610c1c91839190611f77565b50565b60fb54604051630935e01b60e21b81523360048201526001600160a01b03909116906324d7806c90602401602060405180830381865afa158015610c67573d6000803e3d6000fd5b505050506040513d601f19601f82011682018060405250810190610c8b9190612d6c565b610ca75760405162461bcd60e51b8152600401610b7f90612d8e565b60008080526101036020527ff167d7e9ac6011f0b837eaede5176b30419264c8a43ec5db1d59bf93c98c1f7f82825b81811015610d2957858582818110610cf057610cf0612c69565b9050602002016020810190610d059190612a0b565b6001848101805460ff19169091179055935080610d2181612c95565b915050610cd6565b505050505050565b610d39611e10565b610d416120e7565b565b6001600160a01b037f0000000000000000000000000000000000000000000000000000000000000000163003610d8b5760405162461bcd60e51b8152600401610b7f90612cd4565b7f00000000000000000000000000000000000000000000000000000000000000006001600160a01b0316610dd4600080516020612eeb833981519152546001600160a01b031690565b6001600160a01b031614610dfa5760405162461bcd60e51b8152600401610b7f90612d20565b610e0382611f6f565b610e0f82826001611f77565b5050565b6000306001600160a01b037f00000000000000000000000000000000000000000000000000000000000000001614610eb35760405162461bcd60e51b815260206004820152603860248201527f555550535570677261646561626c653a206d757374206e6f742062652063616c60448201527f6c6564207468726f7567682064656c656761746563616c6c00000000000000006064820152608401610b7f565b50600080516020612eeb83398151915290565b60fb54604051630935e01b60e21b81523360048201526001600160a01b03909116906324d7806c90602401602060405180830381865afa158015610f0e573d6000803e3d6000fd5b505050506040513d601f19601f82011682018060405250810190610f329190612d6c565b610f4e5760405162461bcd60e51b8152600401610b7f90612d8e565b60008080526101036020527ff167d7e9ac6011f0b837eaede5176b30419264c8a43ec5db1d59bf93c98c1f7f82825b81811015610d2957858582818110610f9757610f97612c69565b9050602002016020810190610fac9190612a0b565b60018401805460ff19169055935080610fc481612c95565b915050610f7d565b60fb54604051630935e01b60e21b81523360048201526001600160a01b03909116906324d7806c90602401602060405180830381865afa158015611014573d6000803e3d6000fd5b505050506040513d601f19601f820116820180604052508101906110389190612d6c565b6110545760405162461bcd60e51b8152600401610b7f90612d8e565b6110618162015180612db9565b6101015550565b6000611072611e10565b60405163a9059cbb60e01b81526001600160a01b0384811660048301526024820184905285169063a9059cbb906044016020604051808303816000875af11580156110c1573d6000803e3d6000fd5b505050506040513d601f19601f820116820180604052508101906110e59190612d6c565b50600190505b9392505050565b6001600160a01b03811660009081526101036020908152604080832080548251818502810185019093528083529092849291849183018282801561115557602002820191906000526020600020905b815481526020019060010190808311611141575b505083519394506000925050505b81811015610b2e576000610104600085848151811061118457611184612c69565b6020908102919091018101518252810191909152604001600020805490915060ff16156111bd5760018101546111ba9087612cc1565b95505b50806111c881612c95565b915050611163565b6001600160a01b0381166000908152610103602052604081208054429190839061010490829061120290600190612cae565b815260200190815260200160002090506000816004015482600301546112289190612cc1565b83549091501580159061123a57508084105b1561124b5750600195945050505050565b50600095945050505050565b60fb54604051630935e01b60e21b81523360048201526001600160a01b03909116906324d7806c90602401602060405180830381865afa15801561129f573d6000803e3d6000fd5b505050506040513d601f19601f820116820180604052508101906112c39190612d6c565b6112df5760405162461bcd60e51b8152600401610b7f90612d8e565b60ff5461010054610e0f918491849161ffff1690612139565b60fb54604051630935e01b60e21b81523360048201526001600160a01b03909116906324d7806c90602401602060405180830381865afa158015611340573d6000803e3d6000fd5b505050506040513d601f19601f820116820180604052508101906113649190612d6c565b6113805760405162461bcd60e51b8152600401610b7f90612d8e565b61138d8162015180612db9565b6101005550565b6001600160a01b038116600090815261010360209081526040918290208054835181840281018401909452808452606093928301828280156113f557602002820191906000526020600020905b8154815260200190600101908083116113e1575b50505050509050919050565b60fc5460609060008167ffffffffffffffff81111561142257611422612a9b565b60405190808252806020026020018201604052801561144b578160200160208202803683370190505b50905060005b828110156114af57600081815261010460205260409020805460ff16151560010361149c57811561149c578183838151811061148f5761148f612c69565b6020026020010181815250505b50806114a781612c95565b915050611451565b5092915050565b6114be611e10565b610d41600061228b565b3360008181526101036020526040812060038101549091906114e9836122dd565b6114f39190612cae565b9050808260030160008282546115099190612cc1565b9091555050426002830155600061151f8461233e565b90506001600160a01b0384166108fc6115388484612cc1565b6040518115909202916000818181858888f19350505050158015611560573d6000803e3d6000fd5b5060405182906001600160a01b038616907f6dd401e61ba732582a5eba3d54ccc3afb3609cd3ac1a166d1d36f75fc0aedcda90600090a360405181906001600160a01b038616907f79d3df6837cc49ff0e09fd3258e6e45594e0703445bb06825e9d75156eaee8f090600090a350505050565b600054610100900460ff16158080156115f35750600054600160ff909116105b8061160d5750303b15801561160d575060005460ff166001145b6116705760405162461bcd60e51b815260206004820152602e60248201527f496e697469616c697a61626c653a20636f6e747261637420697320616c72656160448201526d191e481a5b9a5d1a585b1a5e995960921b6064820152608401610b7f565b6000805460ff191660011790558015611693576000805461ff0019166101001790555b60fb80546001600160a01b031916730b8bf5feb9fca57d9c5d27185ddf3017e99a2d3617905560ff805461ffff1916603c1790556301e133806101005562278d00610101556116e0612489565b6116e86124b8565b6116f06124e7565b8015610c1c576000805461ff0019169055604051600181527f7f26b83ff96e1f2b6a682f133852f6798a09c465da95921460cefb38474024989060200160405180910390a150565b611740611e10565b610d4161250e565b6001600160a01b038116600090815261010360205260408120610a0b906122dd565b33600081815261010360205260408120600381015490919061178b836122dd565b6117959190612cae565b9050600081116117e75760405162461bcd60e51b815260206004820152601c60248201527f596f752068617665206e6f207374616b696e67206f7220656e646564000000006044820152606401610b7f565b6001820154429060ff16156118565760405162461bcd60e51b815260206004820152602f60248201527f596f7572206163636f756e742069732064697361626c65642e20506c6561736560448201526e1031b7b73a30b1ba1030b236b4b71760891b6064820152608401610b7f565b8061010154846002015461186a9190612cc1565b116118c95760405162461bcd60e51b815260206004820152602960248201527f596f752063616e6e6f7420636c61696d20726577617264206265666f7265207460448201526834b6b2b634b6b4ba1760b91b6064820152608401610b7f565b6118d58484848461254b565b6040516001600160a01b0385169083156108fc029084906000818181858888f1935050505015801561190b573d6000803e3d6000fd5b5050505050565b61193f60405180608001604052806060815260200160001515815260200160008152602001600081525090565b6001600160a01b038216600090815261010360209081526040918290208251815460a0938102820184019094526080810184815290939192849284918401828280156119aa57602002820191906000526020600020905b815481526020019060010190808311611996575b5050509183525050600182015460ff16151560208201526002820154604082015260039091015460609091015292915050565b6060600060fc805480602002602001604051908101604052809291908181526020018280548015611a3757602002820191906000526020600020905b81546001600160a01b03168152600190910190602001808311611a19575b5050505050905060008151905060008167ffffffffffffffff811115611a5f57611a5f612a9b565b604051908082528060200260200182016040528015611a88578160200160208202803683370190505b5090506000805b83811015611b2757611aba83868381518110611aad57611aad612c69565b6020026020010151611dab565b1515600114611b1557848181518110611ad557611ad5612c69565b6020026020010151838381518110611aef57611aef612c69565b6001600160a01b039092166020928302919091019091015281611b1181612c95565b9250505b80611b1f81612c95565b915050611a8f565b5090949350505050565b6060600060fc805480602002602001604051908101604052809291908181526020018280548015611b8b57602002820191906000526020600020905b81546001600160a01b03168152600190910190602001808311611b6d575b5050505050905060008151905060008167ffffffffffffffff811115611bb357611bb3612a9b565b604051908082528060200260200182016040528015611bdc578160200160208202803683370190505b5090506000805b83811015611b2757611c0183868381518110611aad57611aad612c69565b1515600114611c8357611c2c858281518110611c1f57611c1f612c69565b60200260200101516111d0565b15611c8357848181518110611c4357611c43612c69565b6020026020010151838381518110611c5d57611c5d612c69565b6001600160a01b039092166020928302919091019091015281611c7f81612c95565b9250505b80611c8d81612c95565b915050611be3565b611c9d611e10565b6001600160a01b038116611d025760405162461bcd60e51b815260206004820152602660248201527f4f776e61626c653a206e6577206f776e657220697320746865207a65726f206160448201526564647265737360d01b6064820152608401610b7f565b610c1c8161228b565b60fb54604051630935e01b60e21b81523360048201526001600160a01b03909116906324d7806c90602401602060405180830381865afa158015611d53573d6000803e3d6000fd5b505050506040513d601f19601f82011682018060405250810190611d779190612d6c565b611d935760405162461bcd60e51b8152600401610b7f90612d8e565b60ff805461ffff191661ffff92909216919091179055565b6000805b8351811015611e0657826001600160a01b0316848281518110611dd457611dd4612c69565b60200260200101516001600160a01b031603611df4576001915050610a0b565b80611dfe81612c95565b915050611daf565b5060009392505050565b6065546001600160a01b03163314610d415760405162461bcd60e51b815260206004820181905260248201527f4f776e61626c653a2063616c6c6572206973206e6f7420746865206f776e65726044820152606401610b7f565b6001600160a01b038116600090815261010360209081526040808320805482518185028101850190935280835290928492918491830182828015611ecd57602002820191906000526020600020905b815481526020019060010190808311611eb9575b5050835193945042925060009150505b82811015611f655760006101046000868481518110611efe57611efe612c69565b6020908102919091018101518252810191909152604001600020805490915060ff1615611f52578281600401548260030154611f3a9190612cc1565b1115611f52576001810154611f4f9088612cc1565b96505b5080611f5d81612c95565b915050611edd565b5050505050919050565b610c1c611e10565b7f4910fdfa16fed3260ed0e7147f7cc6da11a60208b5b9406d12a635614ffd91435460ff1615611faf57611faa836125a7565b505050565b826001600160a01b03166352d1902d6040518163ffffffff1660e01b8152600401602060405180830381865afa925050508015612009575060408051601f3d908101601f1916820190925261200691810190612dd0565b60015b61206c5760405162461bcd60e51b815260206004820152602e60248201527f45524331393637557067726164653a206e657720696d706c656d656e7461746960448201526d6f6e206973206e6f74205555505360901b6064820152608401610b7f565b600080516020612eeb83398151915281146120db5760405162461bcd60e51b815260206004820152602960248201527f45524331393637557067726164653a20756e737570706f727465642070726f786044820152681a58589b195555525160ba1b6064820152608401610b7f565b50611faa838383612643565b6120ef61266e565b6033805460ff191690557f5db9ee0a495bf2e6ff9c91a7834c1ba4fdd244a5e8aa4e537bd38aeae4b073aa335b6040516001600160a01b03909116815260200160405180910390a1565b60fc8054600180820183557f371f36870d18f32a11fea0f144b021c8b407bb50f8e0267c711123f454b963c090910180546001600160a01b0319166001600160a01b038816908117909155915460008381526101036020908152604080832063ffffffff8516808552610104845291842081548088018355828652938520909301829055825464ffffffffff191661010090920260ff191691909117851765010000000000600160c81b0319166501000000000090960295909517815542600382018190556004820187905593810188905560028101805461ffff191661ffff891617905560fd805493959391928992612234908490612cc1565b909155505060405163ffffffff85168152859088906001600160a01b038b16907ff556991011e831bcfac4f406d547e5e32cdd98267efab83935230d5f8d02c4469060200160405180910390a45050505050505050565b606580546001600160a01b038381166001600160a01b0319831681179093556040519116919082907f8be0079c531659141344cd1fd0a4f28419497f9722a3daafe3b4186f6b6457e090600090a35050565b8054600090815b818161ffff16101561233757612319848261ffff168154811061230957612309612c69565b90600052602060002001546126b7565b6123239084612cc1565b92508061232f81612de9565b9150506122e4565b5050919050565b6001600160a01b0381166000908152610103602090815260408083208054825181850281018501909352808352909284929184918301828280156123a157602002820191906000526020600020905b81548152602001906001019080831161238d575b5050835193945042925060009150505b82811015611f6557600061010460008684815181106123d2576123d2612c69565b6020908102919091018101518252810191909152604001600020805490915060ff161561247657828160040154826003015461240e9190612cc1565b11156124765760018101546124239088612cc1565b815460ff1916808355600183015460405192995061010090910463ffffffff16916001600160a01b038b16907f091b6bc9d0d839f20a931895d4778e195eef19985b93ae2f0e25b67e4812521f90600090a45b508061248181612c95565b9150506123b1565b600054610100900460ff166124b05760405162461bcd60e51b8152600401610b7f90612e0a565b610d4161273a565b600054610100900460ff166124df5760405162461bcd60e51b8152600401610b7f90612e0a565b610d4161276d565b600054610100900460ff16610d415760405162461bcd60e51b8152600401610b7f90612e0a565b61251661279d565b6033805460ff191660011790557f62e78cea01bee320cd4e420270b5ea74000d11b0c9f74754ebdbfc544b05a25861211c3390565b8183600301600082825461255f9190612cc1565b90915550506002830181905560405182906001600160a01b038616907f6dd401e61ba732582a5eba3d54ccc3afb3609cd3ac1a166d1d36f75fc0aedcda90600090a350505050565b6001600160a01b0381163b6126145760405162461bcd60e51b815260206004820152602d60248201527f455243313936373a206e657720696d706c656d656e746174696f6e206973206e60448201526c1bdd08184818dbdb9d1c9858dd609a1b6064820152608401610b7f565b600080516020612eeb83398151915280546001600160a01b0319166001600160a01b0392909216919091179055565b61264c836127e3565b6000825111806126595750805b15611faa576126688383612823565b50505050565b60335460ff16610d415760405162461bcd60e51b815260206004820152601460248201527314185d5cd8589b194e881b9bdd081c185d5cd95960621b6044820152606401610b7f565b600081815261010460205260408120600381015442919083906126da9084612cae565b6004830154600284015460018501549293506000926064916127029161ffff90911690612db9565b61270c9190612e55565b6127169190612e55565b9050612726828460040154612917565b6127309082612db9565b9695505050505050565b600054610100900460ff166127615760405162461bcd60e51b8152600401610b7f90612e0a565b6033805460ff19169055565b600054610100900460ff166127945760405162461bcd60e51b8152600401610b7f90612e0a565b610d413361228b565b60335460ff1615610d415760405162461bcd60e51b815260206004820152601060248201526f14185d5cd8589b194e881c185d5cd95960821b6044820152606401610b7f565b6127ec816125a7565b6040516001600160a01b038216907fbc7cd75a20ee27fd9adebab32041f755214dbc6bffa90cc0225b39da2e5c2d3b90600090a250565b60606001600160a01b0383163b61288b5760405162461bcd60e51b815260206004820152602660248201527f416464726573733a2064656c65676174652063616c6c20746f206e6f6e2d636f6044820152651b9d1c9858dd60d21b6064820152608401610b7f565b600080846001600160a01b0316846040516128a69190612e9b565b600060405180830381855af49150503d80600081146128e1576040519150601f19603f3d011682016040523d82523d6000602084013e6128e6565b606091505b509150915061290e8282604051806060016040528060278152602001612f0b6027913961292d565b95945050505050565b600081831061292657816110eb565b5090919050565b6060831561293c5750816110eb565b6110eb83838151156129515781518083602001fd5b8060405162461bcd60e51b8152600401610b7f9190612eb7565b60006020828403121561297d57600080fd5b5035919050565b6020808252825182820181905260009190848201906040850190845b818110156109b95783516001600160a01b0316835292840192918401916001016129a0565b80356001600160a01b03811681146129dc57600080fd5b919050565b600080604083850312156129f457600080fd5b6129fd836129c5565b946020939093013593505050565b600060208284031215612a1d57600080fd5b6110eb826129c5565b60008060208385031215612a3957600080fd5b823567ffffffffffffffff80821115612a5157600080fd5b818501915085601f830112612a6557600080fd5b813581811115612a7457600080fd5b8660208260051b8501011115612a8957600080fd5b60209290920196919550909350505050565b634e487b7160e01b600052604160045260246000fd5b60008060408385031215612ac457600080fd5b612acd836129c5565b9150602083013567ffffffffffffffff80821115612aea57600080fd5b818501915085601f830112612afe57600080fd5b813581811115612b1057612b10612a9b565b604051601f8201601f19908116603f01168101908382118183101715612b3857612b38612a9b565b81604052828152886020848701011115612b5157600080fd5b8260208601602083013760006020848301015280955050505050509250929050565b600080600060608486031215612b8857600080fd5b612b91846129c5565b9250612b9f602085016129c5565b9150604084013590509250925092565b600081518084526020808501945080840160005b83811015612bdf57815187529582019590820190600101612bc3565b509495945050505050565b6020815260006110eb6020830184612baf565b602081526000825160806020840152612c1960a0840182612baf565b905060208401511515604084015260408401516060840152606084015160808401528091505092915050565b600060208284031215612c5757600080fd5b813561ffff811681146110eb57600080fd5b634e487b7160e01b600052603260045260246000fd5b634e487b7160e01b600052601160045260246000fd5b600060018201612ca757612ca7612c7f565b5060010190565b81810381811115610a0b57610a0b612c7f565b80820180821115610a0b57610a0b612c7f565b6020808252602c908201527f46756e6374696f6e206d7573742062652063616c6c6564207468726f7567682060408201526b19195b1959d85d1958d85b1b60a21b606082015260800190565b6020808252602c908201527f46756e6374696f6e206d7573742062652063616c6c6564207468726f7567682060408201526b6163746976652070726f787960a01b606082015260800190565b600060208284031215612d7e57600080fd5b815180151581146110eb57600080fd5b6020808252601190820152702cb7ba9030b932903737ba1030b236b4b760791b604082015260600190565b8082028115828204841417610a0b57610a0b612c7f565b600060208284031215612de257600080fd5b5051919050565b600061ffff808316818103612e0057612e00612c7f565b6001019392505050565b6020808252602b908201527f496e697469616c697a61626c653a20636f6e7472616374206973206e6f74206960408201526a6e697469616c697a696e6760a81b606082015260800190565b600082612e7257634e487b7160e01b600052601260045260246000fd5b500490565b60005b83811015612e92578181015183820152602001612e7a565b50506000910152565b60008251612ead818460208701612e77565b9190910192915050565b6020815260008251806020840152612ed6816040850160208701612e77565b601f01601f1916919091016040019291505056fe360894a13ba1a3210667c828492db98dca3e2076cc3735a920a3ca505d382bbc416464726573733a206c6f772d6c6576656c2064656c65676174652063616c6c206661696c6564a26469706673582212204464a9e310e0c2882b1b79fef51126851a2145f4159cca0590defad025d6dd3c64736f6c63430008120033","opcodes":"PUSH1 0xA0 PUSH1 0x40 MSTORE ADDRESS PUSH1 0x80 MSTORE CALLVALUE DUP1 ISZERO PUSH2 0x14 JUMPI PUSH1 0x0 DUP1 REVERT JUMPDEST POP PUSH1 0x80 MLOAD PUSH2 0x2F67 PUSH2 0x4C PUSH1 0x0 CODECOPY PUSH1 0x0 DUP2 DUP2 PUSH2 0xB41 ADD MSTORE DUP2 DUP2 PUSH2 0xB8A ADD MSTORE DUP2 DUP2 PUSH2 0xD4D ADD MSTORE DUP2 DUP2 PUSH2 0xD8D ADD MSTORE PUSH2 0xE20 ADD MSTORE PUSH2 0x2F67 PUSH1 0x0 RETURN INVALID PUSH1 0x80 PUSH1 0x40 MSTORE PUSH1 0x4 CALLDATASIZE LT PUSH2 0x229 JUMPI PUSH1 0x0 CALLDATALOAD PUSH1 0xE0 SHR DUP1 PUSH4 0x6F51B20B GT PUSH2 0x123 JUMPI DUP1 PUSH4 0xA40B5891 GT PUSH2 0xAB JUMPI DUP1 PUSH4 0xDBA4358C GT PUSH2 0x6F JUMPI DUP1 PUSH4 0xDBA4358C EQ PUSH2 0x77C JUMPI DUP1 PUSH4 0xDEEDE654 EQ PUSH2 0x791 JUMPI DUP1 PUSH4 0xE3A51F58 EQ PUSH2 0x7A6 JUMPI DUP1 PUSH4 0xF2FDE38B EQ PUSH2 0x7DE JUMPI DUP1 PUSH4 0xF807438F EQ PUSH2 0x7FE JUMPI PUSH1 0x0 DUP1 REVERT JUMPDEST DUP1 PUSH4 0xA40B5891 EQ PUSH2 0x5AC JUMPI DUP1 PUSH4 0xA7566B75 EQ PUSH2 0x5E9 JUMPI DUP1 PUSH4 0xAFC695CE EQ PUSH2 0x725 JUMPI DUP1 PUSH4 0xBA4F678E EQ PUSH2 0x73A JUMPI DUP1 PUSH4 0xC06A5388 EQ PUSH2 0x767 JUMPI PUSH1 0x0 DUP1 REVERT JUMPDEST DUP1 PUSH4 0x7CE574BF GT PUSH2 0xF2 JUMPI DUP1 PUSH4 0x7CE574BF EQ PUSH2 0x52F JUMPI DUP1 PUSH4 0x8129FC1C EQ PUSH2 0x544 JUMPI DUP1 PUSH4 0x8456CB59 EQ PUSH2 0x559 JUMPI DUP1 PUSH4 0x8DA5CB5B EQ PUSH2 0x56E JUMPI DUP1 PUSH4 0x9C3FE28A EQ PUSH2 0x58C JUMPI PUSH1 0x0 DUP1 REVERT JUMPDEST DUP1 PUSH4 0x6F51B20B EQ PUSH2 0x4C3 JUMPI DUP1 PUSH4 0x6F72693B EQ PUSH2 0x4F0 JUMPI DUP1 PUSH4 0x715018A6 EQ PUSH2 0x505 JUMPI DUP1 PUSH4 0x73CF575A EQ PUSH2 0x51A JUMPI PUSH1 0x0 DUP1 REVERT JUMPDEST DUP1 PUSH4 0x52D1902D GT PUSH2 0x1B1 JUMPI DUP1 PUSH4 0x5F869714 GT PUSH2 0x175 JUMPI DUP1 PUSH4 0x5F869714 EQ PUSH2 0x409 JUMPI DUP1 PUSH4 0x6177FD18 EQ PUSH2 0x429 JUMPI DUP1 PUSH4 0x66E5E570 EQ PUSH2 0x449 JUMPI DUP1 PUSH4 0x6A50EEFA EQ PUSH2 0x483 JUMPI DUP1 PUSH4 0x6A8CA691 EQ PUSH2 0x4A3 JUMPI PUSH1 0x0 DUP1 REVERT JUMPDEST DUP1 PUSH4 0x52D1902D EQ PUSH2 0x37C JUMPI DUP1 PUSH4 0x53BDADEA EQ PUSH2 0x391 JUMPI DUP1 PUSH4 0x5C975ABB EQ PUSH2 0x3B1 JUMPI DUP1 PUSH4 0x5CBFD021 EQ PUSH2 0x3C9 JUMPI DUP1 PUSH4 0x5E35359E EQ PUSH2 0x3E9 JUMPI PUSH1 0x0 DUP1 REVERT JUMPDEST DUP1 PUSH4 0x2955F37D GT PUSH2 0x1F8 JUMPI DUP1 PUSH4 0x2955F37D EQ PUSH2 0x2F2 JUMPI DUP1 PUSH4 0x3659CFE6 EQ PUSH2 0x312 JUMPI DUP1 PUSH4 0x3B09098F EQ PUSH2 0x334 JUMPI DUP1 PUSH4 0x3F4BA83A EQ PUSH2 0x354 JUMPI DUP1 PUSH4 0x4F1EF286 EQ PUSH2 0x369 JUMPI PUSH1 0x0 DUP1 REVERT JUMPDEST DUP1 PUSH4 0x14BFD6D0 EQ PUSH2 0x235 JUMPI DUP1 PUSH4 0x260CB4E9 EQ PUSH2 0x272 JUMPI DUP1 PUSH4 0x26792ACA EQ PUSH2 0x294 JUMPI DUP1 PUSH4 0x26ED1AF0 EQ PUSH2 0x2C4 JUMPI PUSH1 0x0 DUP1 REVERT JUMPDEST CALLDATASIZE PUSH2 0x230 JUMPI STOP JUMPDEST PUSH1 0x0 DUP1 REVERT JUMPDEST CALLVALUE DUP1 ISZERO PUSH2 0x241 JUMPI PUSH1 0x0 DUP1 REVERT JUMPDEST POP PUSH2 0x255 PUSH2 0x250 CALLDATASIZE PUSH1 0x4 PUSH2 0x296B JUMP JUMPDEST PUSH2 0x81E JUMP JUMPDEST PUSH1 0x40 MLOAD PUSH1 0x1 PUSH1 0x1 PUSH1 0xA0 SHL SUB SWAP1 SWAP2 AND DUP2 MSTORE PUSH1 0x20 ADD JUMPDEST PUSH1 0x40 MLOAD DUP1 SWAP2 SUB SWAP1 RETURN JUMPDEST CALLVALUE DUP1 ISZERO PUSH2 0x27E JUMPI PUSH1 0x0 DUP1 REVERT JUMPDEST POP PUSH2 0x287 PUSH2 0x849 JUMP JUMPDEST PUSH1 0x40 MLOAD PUSH2 0x269 SWAP2 SWAP1 PUSH2 0x2984 JUMP JUMPDEST CALLVALUE DUP1 ISZERO PUSH2 0x2A0 JUMPI PUSH1 0x0 DUP1 REVERT JUMPDEST POP PUSH2 0x2B4 PUSH2 0x2AF CALLDATASIZE PUSH1 0x4 PUSH2 0x29E1 JUMP JUMPDEST PUSH2 0x9C5 JUMP JUMPDEST PUSH1 0x40 MLOAD SWAP1 ISZERO ISZERO DUP2 MSTORE PUSH1 0x20 ADD PUSH2 0x269 JUMP JUMPDEST CALLVALUE DUP1 ISZERO PUSH2 0x2D0 JUMPI PUSH1 0x0 DUP1 REVERT JUMPDEST POP PUSH2 0x2E4 PUSH2 0x2DF CALLDATASIZE PUSH1 0x4 PUSH2 0x2A0B JUMP JUMPDEST PUSH2 0xA11 JUMP JUMPDEST PUSH1 0x40 MLOAD SWAP1 DUP2 MSTORE PUSH1 0x20 ADD PUSH2 0x269 JUMP JUMPDEST CALLVALUE DUP1 ISZERO PUSH2 0x2FE JUMPI PUSH1 0x0 DUP1 REVERT JUMPDEST POP PUSH2 0x2E4 PUSH2 0x30D CALLDATASIZE PUSH1 0x4 PUSH2 0x2A0B JUMP JUMPDEST PUSH2 0xA1C JUMP JUMPDEST CALLVALUE DUP1 ISZERO PUSH2 0x31E JUMPI PUSH1 0x0 DUP1 REVERT JUMPDEST POP PUSH2 0x332 PUSH2 0x32D CALLDATASIZE PUSH1 0x4 PUSH2 0x2A0B JUMP JUMPDEST PUSH2 0xB37 JUMP JUMPDEST STOP JUMPDEST CALLVALUE DUP1 ISZERO PUSH2 0x340 JUMPI PUSH1 0x0 DUP1 REVERT JUMPDEST POP PUSH2 0x332 PUSH2 0x34F CALLDATASIZE PUSH1 0x4 PUSH2 0x2A26 JUMP JUMPDEST PUSH2 0xC1F JUMP JUMPDEST CALLVALUE DUP1 ISZERO PUSH2 0x360 JUMPI PUSH1 0x0 DUP1 REVERT JUMPDEST POP PUSH2 0x332 PUSH2 0xD31 JUMP JUMPDEST PUSH2 0x332 PUSH2 0x377 CALLDATASIZE PUSH1 0x4 PUSH2 0x2AB1 JUMP JUMPDEST PUSH2 0xD43 JUMP JUMPDEST CALLVALUE DUP1 ISZERO PUSH2 0x388 JUMPI PUSH1 0x0 DUP1 REVERT JUMPDEST POP PUSH2 0x2E4 PUSH2 0xE13 JUMP JUMPDEST CALLVALUE DUP1 ISZERO PUSH2 0x39D JUMPI PUSH1 0x0 DUP1 REVERT JUMPDEST POP PUSH2 0x332 PUSH2 0x3AC CALLDATASIZE PUSH1 0x4 PUSH2 0x2A26 JUMP JUMPDEST PUSH2 0xEC6 JUMP JUMPDEST CALLVALUE DUP1 ISZERO PUSH2 0x3BD JUMPI PUSH1 0x0 DUP1 REVERT JUMPDEST POP PUSH1 0x33 SLOAD PUSH1 0xFF AND PUSH2 0x2B4 JUMP JUMPDEST CALLVALUE DUP1 ISZERO PUSH2 0x3D5 JUMPI PUSH1 0x0 DUP1 REVERT JUMPDEST POP PUSH2 0x332 PUSH2 0x3E4 CALLDATASIZE PUSH1 0x4 PUSH2 0x296B JUMP JUMPDEST PUSH2 0xFCC JUMP JUMPDEST CALLVALUE DUP1 ISZERO PUSH2 0x3F5 JUMPI PUSH1 0x0 DUP1 REVERT JUMPDEST POP PUSH2 0x2B4 PUSH2 0x404 CALLDATASIZE PUSH1 0x4 PUSH2 0x2B73 JUMP JUMPDEST PUSH2 0x1068 JUMP JUMPDEST CALLVALUE DUP1 ISZERO PUSH2 0x415 JUMPI PUSH1 0x0 DUP1 REVERT JUMPDEST POP PUSH2 0x2E4 PUSH2 0x424 CALLDATASIZE PUSH1 0x4 PUSH2 0x2A0B JUMP JUMPDEST PUSH2 0x10F2 JUMP JUMPDEST CALLVALUE DUP1 ISZERO PUSH2 0x435 JUMPI PUSH1 0x0 DUP1 REVERT JUMPDEST POP PUSH2 0x2B4 PUSH2 0x444 CALLDATASIZE PUSH1 0x4 PUSH2 0x2A0B JUMP JUMPDEST PUSH2 0x11D0 JUMP JUMPDEST CALLVALUE DUP1 ISZERO PUSH2 0x455 JUMPI PUSH1 0x0 DUP1 REVERT JUMPDEST POP PUSH2 0x2E4 PUSH2 0x464 CALLDATASIZE PUSH1 0x4 PUSH2 0x2A0B JUMP JUMPDEST PUSH1 0x1 PUSH1 0x1 PUSH1 0xA0 SHL SUB AND PUSH1 0x0 SWAP1 DUP2 MSTORE PUSH2 0x103 PUSH1 0x20 MSTORE PUSH1 0x40 SWAP1 KECCAK256 PUSH1 0x3 ADD SLOAD SWAP1 JUMP JUMPDEST CALLVALUE DUP1 ISZERO PUSH2 0x48F JUMPI PUSH1 0x0 DUP1 REVERT JUMPDEST POP PUSH2 0x332 PUSH2 0x49E CALLDATASIZE PUSH1 0x4 PUSH2 0x29E1 JUMP JUMPDEST PUSH2 0x1257 JUMP JUMPDEST CALLVALUE DUP1 ISZERO PUSH2 0x4AF JUMPI PUSH1 0x0 DUP1 REVERT JUMPDEST POP PUSH2 0x332 PUSH2 0x4BE CALLDATASIZE PUSH1 0x4 PUSH2 0x296B JUMP JUMPDEST PUSH2 0x12F8 JUMP JUMPDEST CALLVALUE DUP1 ISZERO PUSH2 0x4CF JUMPI PUSH1 0x0 DUP1 REVERT JUMPDEST POP PUSH2 0x4E3 PUSH2 0x4DE CALLDATASIZE PUSH1 0x4 PUSH2 0x2A0B JUMP JUMPDEST PUSH2 0x1394 JUMP JUMPDEST PUSH1 0x40 MLOAD PUSH2 0x269 SWAP2 SWAP1 PUSH2 0x2BEA JUMP JUMPDEST CALLVALUE DUP1 ISZERO PUSH2 0x4FC JUMPI PUSH1 0x0 DUP1 REVERT JUMPDEST POP PUSH2 0x4E3 PUSH2 0x1401 JUMP JUMPDEST CALLVALUE DUP1 ISZERO PUSH2 0x511 JUMPI PUSH1 0x0 DUP1 REVERT JUMPDEST POP PUSH2 0x332 PUSH2 0x14B6 JUMP JUMPDEST CALLVALUE DUP1 ISZERO PUSH2 0x526 JUMPI PUSH1 0x0 DUP1 REVERT JUMPDEST POP PUSH2 0x332 PUSH2 0x14C8 JUMP JUMPDEST CALLVALUE DUP1 ISZERO PUSH2 0x53B JUMPI PUSH1 0x0 DUP1 REVERT JUMPDEST POP PUSH1 0xFE SLOAD PUSH2 0x2E4 JUMP JUMPDEST CALLVALUE DUP1 ISZERO PUSH2 0x550 JUMPI PUSH1 0x0 DUP1 REVERT JUMPDEST POP PUSH2 0x332 PUSH2 0x15D3 JUMP JUMPDEST CALLVALUE DUP1 ISZERO PUSH2 0x565 JUMPI PUSH1 0x0 DUP1 REVERT JUMPDEST POP PUSH2 0x332 PUSH2 0x1738 JUMP JUMPDEST CALLVALUE DUP1 ISZERO PUSH2 0x57A JUMPI PUSH1 0x0 DUP1 REVERT JUMPDEST POP PUSH1 0x65 SLOAD PUSH1 0x1 PUSH1 0x1 PUSH1 0xA0 SHL SUB AND PUSH2 0x255 JUMP JUMPDEST CALLVALUE DUP1 ISZERO PUSH2 0x598 JUMPI PUSH1 0x0 DUP1 REVERT JUMPDEST POP PUSH2 0x2E4 PUSH2 0x5A7 CALLDATASIZE PUSH1 0x4 PUSH2 0x2A0B JUMP JUMPDEST PUSH2 0x1748 JUMP JUMPDEST CALLVALUE DUP1 ISZERO PUSH2 0x5B8 JUMPI PUSH1 0x0 DUP1 REVERT JUMPDEST POP PUSH2 0x2B4 PUSH2 0x5C7 CALLDATASIZE PUSH1 0x4 PUSH2 0x2A0B JUMP JUMPDEST PUSH1 0x1 PUSH1 0x1 PUSH1 0xA0 SHL SUB AND PUSH1 0x0 SWAP1 DUP2 MSTORE PUSH2 0x103 PUSH1 0x20 MSTORE PUSH1 0x40 SWAP1 KECCAK256 PUSH1 0x1 ADD SLOAD PUSH1 0xFF AND SWAP1 JUMP JUMPDEST CALLVALUE DUP1 ISZERO PUSH2 0x5F5 JUMPI PUSH1 0x0 DUP1 REVERT JUMPDEST POP PUSH2 0x6BF PUSH2 0x604 CALLDATASIZE PUSH1 0x4 PUSH2 0x296B JUMP JUMPDEST PUSH1 0x40 DUP1 MLOAD PUSH1 0xE0 DUP2 ADD DUP3 MSTORE PUSH1 0x0 DUP1 DUP3 MSTORE PUSH1 0x20 DUP3 ADD DUP2 SWAP1 MSTORE SWAP2 DUP2 ADD DUP3 SWAP1 MSTORE PUSH1 0x60 DUP2 ADD DUP3 SWAP1 MSTORE PUSH1 0x80 DUP2 ADD DUP3 SWAP1 MSTORE PUSH1 0xA0 DUP2 ADD DUP3 SWAP1 MSTORE PUSH1 0xC0 DUP2 ADD SWAP2 SWAP1 SWAP2 MSTORE POP PUSH1 0x0 SWAP1 DUP2 MSTORE PUSH2 0x104 PUSH1 0x20 SWAP1 DUP2 MSTORE PUSH1 0x40 SWAP2 DUP3 SWAP1 KECCAK256 DUP3 MLOAD PUSH1 0xE0 DUP2 ADD DUP5 MSTORE DUP2 SLOAD PUSH1 0xFF DUP2 AND ISZERO ISZERO DUP3 MSTORE PUSH2 0x100 DUP2 DIV PUSH4 0xFFFFFFFF AND SWAP4 DUP3 ADD SWAP4 SWAP1 SWAP4 MSTORE PUSH6 0x10000000000 SWAP1 SWAP3 DIV PUSH1 0x1 PUSH1 0x1 PUSH1 0xA0 SHL SUB AND SWAP3 DUP3 ADD SWAP3 SWAP1 SWAP3 MSTORE PUSH1 0x1 DUP3 ADD SLOAD PUSH1 0x60 DUP3 ADD MSTORE PUSH1 0x2 DUP3 ADD SLOAD PUSH2 0xFFFF AND PUSH1 0x80 DUP3 ADD MSTORE PUSH1 0x3 DUP3 ADD SLOAD PUSH1 0xA0 DUP3 ADD MSTORE PUSH1 0x4 SWAP1 SWAP2 ADD SLOAD PUSH1 0xC0 DUP3 ADD MSTORE SWAP1 JUMP JUMPDEST PUSH1 0x40 MLOAD PUSH2 0x269 SWAP2 SWAP1 DUP2 MLOAD ISZERO ISZERO DUP2 MSTORE PUSH1 0x20 DUP1 DUP4 ADD MLOAD PUSH4 0xFFFFFFFF AND SWAP1 DUP3 ADD MSTORE PUSH1 0x40 DUP1 DUP4 ADD MLOAD PUSH1 0x1 PUSH1 0x1 PUSH1 0xA0 SHL SUB AND SWAP1 DUP3 ADD MSTORE PUSH1 0x60 DUP1 DUP4 ADD MLOAD SWAP1 DUP3 ADD MSTORE PUSH1 0x80 DUP1 DUP4 ADD MLOAD PUSH2 0xFFFF AND SWAP1 DUP3 ADD MSTORE PUSH1 0xA0 DUP1 DUP4 ADD MLOAD SWAP1 DUP3 ADD MSTORE PUSH1 0xC0 SWAP2 DUP3 ADD MLOAD SWAP2 DUP2 ADD SWAP2 SWAP1 SWAP2 MSTORE PUSH1 0xE0 ADD SWAP1 JUMP JUMPDEST CALLVALUE DUP1 ISZERO PUSH2 0x731 JUMPI PUSH1 0x0 DUP1 REVERT JUMPDEST POP PUSH2 0x332 PUSH2 0x176A JUMP JUMPDEST CALLVALUE DUP1 ISZERO PUSH2 0x746 JUMPI PUSH1 0x0 DUP1 REVERT JUMPDEST POP PUSH2 0x75A PUSH2 0x755 CALLDATASIZE PUSH1 0x4 PUSH2 0x2A0B JUMP JUMPDEST PUSH2 0x1912 JUMP JUMPDEST PUSH1 0x40 MLOAD PUSH2 0x269 SWAP2 SWAP1 PUSH2 0x2BFD JUMP JUMPDEST CALLVALUE DUP1 ISZERO PUSH2 0x773 JUMPI PUSH1 0x0 DUP1 REVERT JUMPDEST POP PUSH2 0x287 PUSH2 0x19DD JUMP JUMPDEST CALLVALUE DUP1 ISZERO PUSH2 0x788 JUMPI PUSH1 0x0 DUP1 REVERT JUMPDEST POP PUSH2 0x287 PUSH2 0x1B31 JUMP JUMPDEST CALLVALUE DUP1 ISZERO PUSH2 0x79D JUMPI PUSH1 0x0 DUP1 REVERT JUMPDEST POP PUSH1 0xFD SLOAD PUSH2 0x2E4 JUMP JUMPDEST CALLVALUE DUP1 ISZERO PUSH2 0x7B2 JUMPI PUSH1 0x0 DUP1 REVERT JUMPDEST POP PUSH1 0xFF SLOAD PUSH2 0x100 SLOAD PUSH2 0x101 SLOAD PUSH1 0x40 DUP1 MLOAD PUSH2 0xFFFF SWAP1 SWAP5 AND DUP5 MSTORE PUSH1 0x20 DUP5 ADD SWAP3 SWAP1 SWAP3 MSTORE SWAP1 DUP3 ADD MSTORE PUSH1 0x60 ADD PUSH2 0x269 JUMP JUMPDEST CALLVALUE DUP1 ISZERO PUSH2 0x7EA JUMPI PUSH1 0x0 DUP1 REVERT JUMPDEST POP PUSH2 0x332 PUSH2 0x7F9 CALLDATASIZE PUSH1 0x4 PUSH2 0x2A0B JUMP JUMPDEST PUSH2 0x1C95 JUMP JUMPDEST CALLVALUE DUP1 ISZERO PUSH2 0x80A JUMPI PUSH1 0x0 DUP1 REVERT JUMPDEST POP PUSH2 0x332 PUSH2 0x819 CALLDATASIZE PUSH1 0x4 PUSH2 0x2C45 JUMP JUMPDEST PUSH2 0x1D0B JUMP JUMPDEST PUSH2 0x102 DUP2 DUP2 SLOAD DUP2 LT PUSH2 0x82F JUMPI PUSH1 0x0 DUP1 REVERT JUMPDEST PUSH1 0x0 SWAP2 DUP3 MSTORE PUSH1 0x20 SWAP1 SWAP2 KECCAK256 ADD SLOAD PUSH1 0x1 PUSH1 0x1 PUSH1 0xA0 SHL SUB AND SWAP1 POP DUP2 JUMP JUMPDEST PUSH1 0x0 DUP1 DUP1 MSTORE PUSH2 0x103 PUSH1 0x20 SWAP1 DUP2 MSTORE PUSH1 0xFC DUP1 SLOAD PUSH1 0x40 DUP1 MLOAD DUP3 DUP6 MUL DUP2 ADD DUP6 ADD SWAP1 SWAP2 MSTORE DUP2 DUP2 MSTORE PUSH1 0x60 SWAP5 SWAP4 PUSH32 0xF167D7E9AC6011F0B837EAEDE5176B30419264C8A43EC5DB1D59BF93C98C1F7F SWAP4 DUP6 SWAP4 SWAP1 SWAP2 DUP4 ADD DUP3 DUP3 DUP1 ISZERO PUSH2 0x8CE JUMPI PUSH1 0x20 MUL DUP3 ADD SWAP2 SWAP1 PUSH1 0x0 MSTORE PUSH1 0x20 PUSH1 0x0 KECCAK256 SWAP1 JUMPDEST DUP2 SLOAD PUSH1 0x1 PUSH1 0x1 PUSH1 0xA0 SHL SUB AND DUP2 MSTORE PUSH1 0x1 SWAP1 SWAP2 ADD SWAP1 PUSH1 0x20 ADD DUP1 DUP4 GT PUSH2 0x8B0 JUMPI JUMPDEST POP POP POP POP POP SWAP1 POP PUSH1 0x0 DUP2 MLOAD SWAP1 POP PUSH1 0x0 DUP2 PUSH8 0xFFFFFFFFFFFFFFFF DUP2 GT ISZERO PUSH2 0x8F6 JUMPI PUSH2 0x8F6 PUSH2 0x2A9B JUMP JUMPDEST PUSH1 0x40 MLOAD SWAP1 DUP1 DUP3 MSTORE DUP1 PUSH1 0x20 MUL PUSH1 0x20 ADD DUP3 ADD PUSH1 0x40 MSTORE DUP1 ISZERO PUSH2 0x91F JUMPI DUP2 PUSH1 0x20 ADD PUSH1 0x20 DUP3 MUL DUP1 CALLDATASIZE DUP4 CALLDATACOPY ADD SWAP1 POP JUMPDEST POP SWAP1 POP PUSH1 0x0 DUP1 JUMPDEST DUP4 DUP2 LT ISZERO PUSH2 0x9B9 JUMPI DUP5 DUP2 DUP2 MLOAD DUP2 LT PUSH2 0x940 JUMPI PUSH2 0x940 PUSH2 0x2C69 JUMP JUMPDEST PUSH1 0x20 MUL PUSH1 0x20 ADD ADD MLOAD SWAP7 POP PUSH2 0x954 DUP4 DUP9 PUSH2 0x1DAB JUMP JUMPDEST ISZERO ISZERO PUSH1 0x1 EQ PUSH2 0x9A7 JUMPI PUSH1 0x1 DUP1 DUP8 ADD SLOAD PUSH1 0xFF AND ISZERO ISZERO SWAP1 SUB PUSH2 0x9A7 JUMPI DUP7 DUP4 DUP4 DUP2 MLOAD DUP2 LT PUSH2 0x981 JUMPI PUSH2 0x981 PUSH2 0x2C69 JUMP JUMPDEST PUSH1 0x1 PUSH1 0x1 PUSH1 0xA0 SHL SUB SWAP1 SWAP3 AND PUSH1 0x20 SWAP3 DUP4 MUL SWAP2 SWAP1 SWAP2 ADD SWAP1 SWAP2 ADD MSTORE DUP2 PUSH2 0x9A3 DUP2 PUSH2 0x2C95 JUMP JUMPDEST SWAP3 POP POP JUMPDEST DUP1 PUSH2 0x9B1 DUP2 PUSH2 0x2C95 JUMP JUMPDEST SWAP2 POP POP PUSH2 0x926 JUMP JUMPDEST POP SWAP1 SWAP7 SWAP6 POP POP POP POP POP POP JUMP JUMPDEST PUSH1 0x0 PUSH2 0x9CF PUSH2 0x1E10 JUMP JUMPDEST PUSH1 0x40 MLOAD PUSH1 0x1 PUSH1 0x1 PUSH1 0xA0 SHL SUB DUP5 AND SWAP1 DUP4 ISZERO PUSH2 0x8FC MUL SWAP1 DUP5 SWAP1 PUSH1 0x0 DUP2 DUP2 DUP2 DUP6 DUP9 DUP9 CALL SWAP4 POP POP POP POP ISZERO DUP1 ISZERO PUSH2 0xA05 JUMPI RETURNDATASIZE PUSH1 0x0 DUP1 RETURNDATACOPY RETURNDATASIZE PUSH1 0x0 REVERT JUMPDEST POP PUSH1 0x1 SWAP1 POP JUMPDEST SWAP3 SWAP2 POP POP JUMP JUMPDEST PUSH1 0x0 PUSH2 0xA0B DUP3 PUSH2 0x1E6A JUMP JUMPDEST PUSH1 0x1 PUSH1 0x1 PUSH1 0xA0 SHL SUB DUP2 AND PUSH1 0x0 SWAP1 DUP2 MSTORE PUSH2 0x103 PUSH1 0x20 SWAP1 DUP2 MSTORE PUSH1 0x40 DUP1 DUP4 KECCAK256 DUP2 MLOAD DUP2 SLOAD PUSH1 0xA0 SWAP5 DUP2 MUL DUP3 ADD DUP6 ADD SWAP1 SWAP4 MSTORE PUSH1 0x80 DUP2 ADD DUP4 DUP2 MSTORE TIMESTAMP SWAP5 DUP7 SWAP5 SWAP3 SWAP4 SWAP3 DUP5 SWAP3 SWAP2 DUP5 SWAP2 SWAP1 DUP5 ADD DUP3 DUP3 DUP1 ISZERO PUSH2 0xA8B JUMPI PUSH1 0x20 MUL DUP3 ADD SWAP2 SWAP1 PUSH1 0x0 MSTORE PUSH1 0x20 PUSH1 0x0 KECCAK256 SWAP1 JUMPDEST DUP2 SLOAD DUP2 MSTORE PUSH1 0x20 ADD SWAP1 PUSH1 0x1 ADD SWAP1 DUP1 DUP4 GT PUSH2 0xA77 JUMPI JUMPDEST POP POP POP SWAP2 DUP4 MSTORE POP POP PUSH1 0x1 DUP3 DUP2 ADD SLOAD PUSH1 0xFF AND ISZERO ISZERO PUSH1 0x20 DUP4 ADD MSTORE PUSH1 0x2 DUP4 ADD SLOAD PUSH1 0x40 DUP4 ADD MSTORE PUSH1 0x3 SWAP1 SWAP3 ADD SLOAD PUSH1 0x60 SWAP1 SWAP2 ADD MSTORE DUP2 MLOAD DUP1 MLOAD SWAP3 SWAP4 POP PUSH1 0x0 SWAP3 PUSH2 0x104 SWAP3 DUP5 SWAP3 SWAP2 PUSH2 0xAD4 SWAP2 SWAP1 PUSH2 0x2CAE JUMP JUMPDEST DUP2 MLOAD DUP2 LT PUSH2 0xAE4 JUMPI PUSH2 0xAE4 PUSH2 0x2C69 JUMP JUMPDEST PUSH1 0x20 MUL PUSH1 0x20 ADD ADD MLOAD DUP2 MSTORE PUSH1 0x20 ADD SWAP1 DUP2 MSTORE PUSH1 0x20 ADD PUSH1 0x0 KECCAK256 SWAP1 POP PUSH1 0x0 DUP2 PUSH1 0x4 ADD SLOAD DUP3 PUSH1 0x3 ADD SLOAD PUSH2 0xB12 SWAP2 SWAP1 PUSH2 0x2CC1 JUMP JUMPDEST DUP4 MLOAD MLOAD SWAP1 SWAP2 POP ISZERO DUP1 ISZERO SWAP1 PUSH2 0xB25 JUMPI POP DUP1 DUP5 LT JUMPDEST ISZERO PUSH2 0xB2E JUMPI DUP1 SWAP5 POP JUMPDEST POP POP POP POP SWAP2 SWAP1 POP JUMP JUMPDEST PUSH1 0x1 PUSH1 0x1 PUSH1 0xA0 SHL SUB PUSH32 0x0 AND ADDRESS SUB PUSH2 0xB88 JUMPI PUSH1 0x40 MLOAD PUSH3 0x461BCD PUSH1 0xE5 SHL DUP2 MSTORE PUSH1 0x4 ADD PUSH2 0xB7F SWAP1 PUSH2 0x2CD4 JUMP JUMPDEST PUSH1 0x40 MLOAD DUP1 SWAP2 SUB SWAP1 REVERT JUMPDEST PUSH32 0x0 PUSH1 0x1 PUSH1 0x1 PUSH1 0xA0 SHL SUB AND PUSH2 0xBD1 PUSH1 0x0 DUP1 MLOAD PUSH1 0x20 PUSH2 0x2EEB DUP4 CODECOPY DUP2 MLOAD SWAP2 MSTORE SLOAD PUSH1 0x1 PUSH1 0x1 PUSH1 0xA0 SHL SUB AND SWAP1 JUMP JUMPDEST PUSH1 0x1 PUSH1 0x1 PUSH1 0xA0 SHL SUB AND EQ PUSH2 0xBF7 JUMPI PUSH1 0x40 MLOAD PUSH3 0x461BCD PUSH1 0xE5 SHL DUP2 MSTORE PUSH1 0x4 ADD PUSH2 0xB7F SWAP1 PUSH2 0x2D20 JUMP JUMPDEST PUSH2 0xC00 DUP2 PUSH2 0x1F6F JUMP JUMPDEST PUSH1 0x40 DUP1 MLOAD PUSH1 0x0 DUP1 DUP3 MSTORE PUSH1 0x20 DUP3 ADD SWAP1 SWAP3 MSTORE PUSH2 0xC1C SWAP2 DUP4 SWAP2 SWAP1 PUSH2 0x1F77 JUMP JUMPDEST POP JUMP JUMPDEST PUSH1 0xFB SLOAD PUSH1 0x40 MLOAD PUSH4 0x935E01B PUSH1 0xE2 SHL DUP2 MSTORE CALLER PUSH1 0x4 DUP3 ADD MSTORE PUSH1 0x1 PUSH1 0x1 PUSH1 0xA0 SHL SUB SWAP1 SWAP2 AND SWAP1 PUSH4 0x24D7806C SWAP1 PUSH1 0x24 ADD PUSH1 0x20 PUSH1 0x40 MLOAD DUP1 DUP4 SUB DUP2 DUP7 GAS STATICCALL ISZERO DUP1 ISZERO PUSH2 0xC67 JUMPI RETURNDATASIZE PUSH1 0x0 DUP1 RETURNDATACOPY RETURNDATASIZE PUSH1 0x0 REVERT JUMPDEST POP POP POP POP PUSH1 0x40 MLOAD RETURNDATASIZE PUSH1 0x1F NOT PUSH1 0x1F DUP3 ADD AND DUP3 ADD DUP1 PUSH1 0x40 MSTORE POP DUP2 ADD SWAP1 PUSH2 0xC8B SWAP2 SWAP1 PUSH2 0x2D6C JUMP JUMPDEST PUSH2 0xCA7 JUMPI PUSH1 0x40 MLOAD PUSH3 0x461BCD PUSH1 0xE5 SHL DUP2 MSTORE PUSH1 0x4 ADD PUSH2 0xB7F SWAP1 PUSH2 0x2D8E JUMP JUMPDEST PUSH1 0x0 DUP1 DUP1 MSTORE PUSH2 0x103 PUSH1 0x20 MSTORE PUSH32 0xF167D7E9AC6011F0B837EAEDE5176B30419264C8A43EC5DB1D59BF93C98C1F7F DUP3 DUP3 JUMPDEST DUP2 DUP2 LT ISZERO PUSH2 0xD29 JUMPI DUP6 DUP6 DUP3 DUP2 DUP2 LT PUSH2 0xCF0 JUMPI PUSH2 0xCF0 PUSH2 0x2C69 JUMP JUMPDEST SWAP1 POP PUSH1 0x20 MUL ADD PUSH1 0x20 DUP2 ADD SWAP1 PUSH2 0xD05 SWAP2 SWAP1 PUSH2 0x2A0B JUMP JUMPDEST PUSH1 0x1 DUP5 DUP2 ADD DUP1 SLOAD PUSH1 0xFF NOT AND SWAP1 SWAP2 OR SWAP1 SSTORE SWAP4 POP DUP1 PUSH2 0xD21 DUP2 PUSH2 0x2C95 JUMP JUMPDEST SWAP2 POP POP PUSH2 0xCD6 JUMP JUMPDEST POP POP POP POP POP POP JUMP JUMPDEST PUSH2 0xD39 PUSH2 0x1E10 JUMP JUMPDEST PUSH2 0xD41 PUSH2 0x20E7 JUMP JUMPDEST JUMP JUMPDEST PUSH1 0x1 PUSH1 0x1 PUSH1 0xA0 SHL SUB PUSH32 0x0 AND ADDRESS SUB PUSH2 0xD8B JUMPI PUSH1 0x40 MLOAD PUSH3 0x461BCD PUSH1 0xE5 SHL DUP2 MSTORE PUSH1 0x4 ADD PUSH2 0xB7F SWAP1 PUSH2 0x2CD4 JUMP JUMPDEST PUSH32 0x0 PUSH1 0x1 PUSH1 0x1 PUSH1 0xA0 SHL SUB AND PUSH2 0xDD4 PUSH1 0x0 DUP1 MLOAD PUSH1 0x20 PUSH2 0x2EEB DUP4 CODECOPY DUP2 MLOAD SWAP2 MSTORE SLOAD PUSH1 0x1 PUSH1 0x1 PUSH1 0xA0 SHL SUB AND SWAP1 JUMP JUMPDEST PUSH1 0x1 PUSH1 0x1 PUSH1 0xA0 SHL SUB AND EQ PUSH2 0xDFA JUMPI PUSH1 0x40 MLOAD PUSH3 0x461BCD PUSH1 0xE5 SHL DUP2 MSTORE PUSH1 0x4 ADD PUSH2 0xB7F SWAP1 PUSH2 0x2D20 JUMP JUMPDEST PUSH2 0xE03 DUP3 PUSH2 0x1F6F JUMP JUMPDEST PUSH2 0xE0F DUP3 DUP3 PUSH1 0x1 PUSH2 0x1F77 JUMP JUMPDEST POP POP JUMP JUMPDEST PUSH1 0x0 ADDRESS PUSH1 0x1 PUSH1 0x1 PUSH1 0xA0 SHL SUB PUSH32 0x0 AND EQ PUSH2 0xEB3 JUMPI PUSH1 0x40 MLOAD PUSH3 0x461BCD PUSH1 0xE5 SHL DUP2 MSTORE PUSH1 0x20 PUSH1 0x4 DUP3 ADD MSTORE PUSH1 0x38 PUSH1 0x24 DUP3 ADD MSTORE PUSH32 0x555550535570677261646561626C653A206D757374206E6F742062652063616C PUSH1 0x44 DUP3 ADD MSTORE PUSH32 0x6C6564207468726F7567682064656C656761746563616C6C0000000000000000 PUSH1 0x64 DUP3 ADD MSTORE PUSH1 0x84 ADD PUSH2 0xB7F JUMP JUMPDEST POP PUSH1 0x0 DUP1 MLOAD PUSH1 0x20 PUSH2 0x2EEB DUP4 CODECOPY DUP2 MLOAD SWAP2 MSTORE SWAP1 JUMP JUMPDEST PUSH1 0xFB SLOAD PUSH1 0x40 MLOAD PUSH4 0x935E01B PUSH1 0xE2 SHL DUP2 MSTORE CALLER PUSH1 0x4 DUP3 ADD MSTORE PUSH1 0x1 PUSH1 0x1 PUSH1 0xA0 SHL SUB SWAP1 SWAP2 AND SWAP1 PUSH4 0x24D7806C SWAP1 PUSH1 0x24 ADD PUSH1 0x20 PUSH1 0x40 MLOAD DUP1 DUP4 SUB DUP2 DUP7 GAS STATICCALL ISZERO DUP1 ISZERO PUSH2 0xF0E JUMPI RETURNDATASIZE PUSH1 0x0 DUP1 RETURNDATACOPY RETURNDATASIZE PUSH1 0x0 REVERT JUMPDEST POP POP POP POP PUSH1 0x40 MLOAD RETURNDATASIZE PUSH1 0x1F NOT PUSH1 0x1F DUP3 ADD AND DUP3 ADD DUP1 PUSH1 0x40 MSTORE POP DUP2 ADD SWAP1 PUSH2 0xF32 SWAP2 SWAP1 PUSH2 0x2D6C JUMP JUMPDEST PUSH2 0xF4E JUMPI PUSH1 0x40 MLOAD PUSH3 0x461BCD PUSH1 0xE5 SHL DUP2 MSTORE PUSH1 0x4 ADD PUSH2 0xB7F SWAP1 PUSH2 0x2D8E JUMP JUMPDEST PUSH1 0x0 DUP1 DUP1 MSTORE PUSH2 0x103 PUSH1 0x20 MSTORE PUSH32 0xF167D7E9AC6011F0B837EAEDE5176B30419264C8A43EC5DB1D59BF93C98C1F7F DUP3 DUP3 JUMPDEST DUP2 DUP2 LT ISZERO PUSH2 0xD29 JUMPI DUP6 DUP6 DUP3 DUP2 DUP2 LT PUSH2 0xF97 JUMPI PUSH2 0xF97 PUSH2 0x2C69 JUMP JUMPDEST SWAP1 POP PUSH1 0x20 MUL ADD PUSH1 0x20 DUP2 ADD SWAP1 PUSH2 0xFAC SWAP2 SWAP1 PUSH2 0x2A0B JUMP JUMPDEST PUSH1 0x1 DUP5 ADD DUP1 SLOAD PUSH1 0xFF NOT AND SWAP1 SSTORE SWAP4 POP DUP1 PUSH2 0xFC4 DUP2 PUSH2 0x2C95 JUMP JUMPDEST SWAP2 POP POP PUSH2 0xF7D JUMP JUMPDEST PUSH1 0xFB SLOAD PUSH1 0x40 MLOAD PUSH4 0x935E01B PUSH1 0xE2 SHL DUP2 MSTORE CALLER PUSH1 0x4 DUP3 ADD MSTORE PUSH1 0x1 PUSH1 0x1 PUSH1 0xA0 SHL SUB SWAP1 SWAP2 AND SWAP1 PUSH4 0x24D7806C SWAP1 PUSH1 0x24 ADD PUSH1 0x20 PUSH1 0x40 MLOAD DUP1 DUP4 SUB DUP2 DUP7 GAS STATICCALL ISZERO DUP1 ISZERO PUSH2 0x1014 JUMPI RETURNDATASIZE PUSH1 0x0 DUP1 RETURNDATACOPY RETURNDATASIZE PUSH1 0x0 REVERT JUMPDEST POP POP POP POP PUSH1 0x40 MLOAD RETURNDATASIZE PUSH1 0x1F NOT PUSH1 0x1F DUP3 ADD AND DUP3 ADD DUP1 PUSH1 0x40 MSTORE POP DUP2 ADD SWAP1 PUSH2 0x1038 SWAP2 SWAP1 PUSH2 0x2D6C JUMP JUMPDEST PUSH2 0x1054 JUMPI PUSH1 0x40 MLOAD PUSH3 0x461BCD PUSH1 0xE5 SHL DUP2 MSTORE PUSH1 0x4 ADD PUSH2 0xB7F SWAP1 PUSH2 0x2D8E JUMP JUMPDEST PUSH2 0x1061 DUP2 PUSH3 0x15180 PUSH2 0x2DB9 JUMP JUMPDEST PUSH2 0x101 SSTORE POP JUMP JUMPDEST PUSH1 0x0 PUSH2 0x1072 PUSH2 0x1E10 JUMP JUMPDEST PUSH1 0x40 MLOAD PUSH4 0xA9059CBB PUSH1 0xE0 SHL DUP2 MSTORE PUSH1 0x1 PUSH1 0x1 PUSH1 0xA0 SHL SUB DUP5 DUP2 AND PUSH1 0x4 DUP4 ADD MSTORE PUSH1 0x24 DUP3 ADD DUP5 SWAP1 MSTORE DUP6 AND SWAP1 PUSH4 0xA9059CBB SWAP1 PUSH1 0x44 ADD PUSH1 0x20 PUSH1 0x40 MLOAD DUP1 DUP4 SUB DUP2 PUSH1 0x0 DUP8 GAS CALL ISZERO DUP1 ISZERO PUSH2 0x10C1 JUMPI RETURNDATASIZE PUSH1 0x0 DUP1 RETURNDATACOPY RETURNDATASIZE PUSH1 0x0 REVERT JUMPDEST POP POP POP POP PUSH1 0x40 MLOAD RETURNDATASIZE PUSH1 0x1F NOT PUSH1 0x1F DUP3 ADD AND DUP3 ADD DUP1 PUSH1 0x40 MSTORE POP DUP2 ADD SWAP1 PUSH2 0x10E5 SWAP2 SWAP1 PUSH2 0x2D6C JUMP JUMPDEST POP PUSH1 0x1 SWAP1 POP JUMPDEST SWAP4 SWAP3 POP POP POP JUMP JUMPDEST PUSH1 0x1 PUSH1 0x1 PUSH1 0xA0 SHL SUB DUP2 AND PUSH1 0x0 SWAP1 DUP2 MSTORE PUSH2 0x103 PUSH1 0x20 SWAP1 DUP2 MSTORE PUSH1 0x40 DUP1 DUP4 KECCAK256 DUP1 SLOAD DUP3 MLOAD DUP2 DUP6 MUL DUP2 ADD DUP6 ADD SWAP1 SWAP4 MSTORE DUP1 DUP4 MSTORE SWAP1 SWAP3 DUP5 SWAP3 SWAP2 DUP5 SWAP2 DUP4 ADD DUP3 DUP3 DUP1 ISZERO PUSH2 0x1155 JUMPI PUSH1 0x20 MUL DUP3 ADD SWAP2 SWAP1 PUSH1 0x0 MSTORE PUSH1 0x20 PUSH1 0x0 KECCAK256 SWAP1 JUMPDEST DUP2 SLOAD DUP2 MSTORE PUSH1 0x20 ADD SWAP1 PUSH1 0x1 ADD SWAP1 DUP1 DUP4 GT PUSH2 0x1141 JUMPI JUMPDEST POP POP DUP4 MLOAD SWAP4 SWAP5 POP PUSH1 0x0 SWAP3 POP POP POP JUMPDEST DUP2 DUP2 LT ISZERO PUSH2 0xB2E JUMPI PUSH1 0x0 PUSH2 0x104 PUSH1 0x0 DUP6 DUP5 DUP2 MLOAD DUP2 LT PUSH2 0x1184 JUMPI PUSH2 0x1184 PUSH2 0x2C69 JUMP JUMPDEST PUSH1 0x20 SWAP1 DUP2 MUL SWAP2 SWAP1 SWAP2 ADD DUP2 ADD MLOAD DUP3 MSTORE DUP2 ADD SWAP2 SWAP1 SWAP2 MSTORE PUSH1 0x40 ADD PUSH1 0x0 KECCAK256 DUP1 SLOAD SWAP1 SWAP2 POP PUSH1 0xFF AND ISZERO PUSH2 0x11BD JUMPI PUSH1 0x1 DUP2 ADD SLOAD PUSH2 0x11BA SWAP1 DUP8 PUSH2 0x2CC1 JUMP JUMPDEST SWAP6 POP JUMPDEST POP DUP1 PUSH2 0x11C8 DUP2 PUSH2 0x2C95 JUMP JUMPDEST SWAP2 POP POP PUSH2 0x1163 JUMP JUMPDEST PUSH1 0x1 PUSH1 0x1 PUSH1 0xA0 SHL SUB DUP2 AND PUSH1 0x0 SWAP1 DUP2 MSTORE PUSH2 0x103 PUSH1 0x20 MSTORE PUSH1 0x40 DUP2 KECCAK256 DUP1 SLOAD TIMESTAMP SWAP2 SWAP1 DUP4 SWAP1 PUSH2 0x104 SWAP1 DUP3 SWAP1 PUSH2 0x1202 SWAP1 PUSH1 0x1 SWAP1 PUSH2 0x2CAE JUMP JUMPDEST DUP2 MSTORE PUSH1 0x20 ADD SWAP1 DUP2 MSTORE PUSH1 0x20 ADD PUSH1 0x0 KECCAK256 SWAP1 POP PUSH1 0x0 DUP2 PUSH1 0x4 ADD SLOAD DUP3 PUSH1 0x3 ADD SLOAD PUSH2 0x1228 SWAP2 SWAP1 PUSH2 0x2CC1 JUMP JUMPDEST DUP4 SLOAD SWAP1 SWAP2 POP ISZERO DUP1 ISZERO SWAP1 PUSH2 0x123A JUMPI POP DUP1 DUP5 LT JUMPDEST ISZERO PUSH2 0x124B JUMPI POP PUSH1 0x1 SWAP6 SWAP5 POP POP POP POP POP JUMP JUMPDEST POP PUSH1 0x0 SWAP6 SWAP5 POP POP POP POP POP JUMP JUMPDEST PUSH1 0xFB SLOAD PUSH1 0x40 MLOAD PUSH4 0x935E01B PUSH1 0xE2 SHL DUP2 MSTORE CALLER PUSH1 0x4 DUP3 ADD MSTORE PUSH1 0x1 PUSH1 0x1 PUSH1 0xA0 SHL SUB SWAP1 SWAP2 AND SWAP1 PUSH4 0x24D7806C SWAP1 PUSH1 0x24 ADD PUSH1 0x20 PUSH1 0x40 MLOAD DUP1 DUP4 SUB DUP2 DUP7 GAS STATICCALL ISZERO DUP1 ISZERO PUSH2 0x129F JUMPI RETURNDATASIZE PUSH1 0x0 DUP1 RETURNDATACOPY RETURNDATASIZE PUSH1 0x0 REVERT JUMPDEST POP POP POP POP PUSH1 0x40 MLOAD RETURNDATASIZE PUSH1 0x1F NOT PUSH1 0x1F DUP3 ADD AND DUP3 ADD DUP1 PUSH1 0x40 MSTORE POP DUP2 ADD SWAP1 PUSH2 0x12C3 SWAP2 SWAP1 PUSH2 0x2D6C JUMP JUMPDEST PUSH2 0x12DF JUMPI PUSH1 0x40 MLOAD PUSH3 0x461BCD PUSH1 0xE5 SHL DUP2 MSTORE PUSH1 0x4 ADD PUSH2 0xB7F SWAP1 PUSH2 0x2D8E JUMP JUMPDEST PUSH1 0xFF SLOAD PUSH2 0x100 SLOAD PUSH2 0xE0F SWAP2 DUP5 SWAP2 DUP5 SWAP2 PUSH2 0xFFFF AND SWAP1 PUSH2 0x2139 JUMP JUMPDEST PUSH1 0xFB SLOAD PUSH1 0x40 MLOAD PUSH4 0x935E01B PUSH1 0xE2 SHL DUP2 MSTORE CALLER PUSH1 0x4 DUP3 ADD MSTORE PUSH1 0x1 PUSH1 0x1 PUSH1 0xA0 SHL SUB SWAP1 SWAP2 AND SWAP1 PUSH4 0x24D7806C SWAP1 PUSH1 0x24 ADD PUSH1 0x20 PUSH1 0x40 MLOAD DUP1 DUP4 SUB DUP2 DUP7 GAS STATICCALL ISZERO DUP1 ISZERO PUSH2 0x1340 JUMPI RETURNDATASIZE PUSH1 0x0 DUP1 RETURNDATACOPY RETURNDATASIZE PUSH1 0x0 REVERT JUMPDEST POP POP POP POP PUSH1 0x40 MLOAD RETURNDATASIZE PUSH1 0x1F NOT PUSH1 0x1F DUP3 ADD AND DUP3 ADD DUP1 PUSH1 0x40 MSTORE POP DUP2 ADD SWAP1 PUSH2 0x1364 SWAP2 SWAP1 PUSH2 0x2D6C JUMP JUMPDEST PUSH2 0x1380 JUMPI PUSH1 0x40 MLOAD PUSH3 0x461BCD PUSH1 0xE5 SHL DUP2 MSTORE PUSH1 0x4 ADD PUSH2 0xB7F SWAP1 PUSH2 0x2D8E JUMP JUMPDEST PUSH2 0x138D DUP2 PUSH3 0x15180 PUSH2 0x2DB9 JUMP JUMPDEST PUSH2 0x100 SSTORE POP JUMP JUMPDEST PUSH1 0x1 PUSH1 0x1 PUSH1 0xA0 SHL SUB DUP2 AND PUSH1 0x0 SWAP1 DUP2 MSTORE PUSH2 0x103 PUSH1 0x20 SWAP1 DUP2 MSTORE PUSH1 0x40 SWAP2 DUP3 SWAP1 KECCAK256 DUP1 SLOAD DUP4 MLOAD DUP2 DUP5 MUL DUP2 ADD DUP5 ADD SWAP1 SWAP5 MSTORE DUP1 DUP5 MSTORE PUSH1 0x60 SWAP4 SWAP3 DUP4 ADD DUP3 DUP3 DUP1 ISZERO PUSH2 0x13F5 JUMPI PUSH1 0x20 MUL DUP3 ADD SWAP2 SWAP1 PUSH1 0x0 MSTORE PUSH1 0x20 PUSH1 0x0 KECCAK256 SWAP1 JUMPDEST DUP2 SLOAD DUP2 MSTORE PUSH1 0x20 ADD SWAP1 PUSH1 0x1 ADD SWAP1 DUP1 DUP4 GT PUSH2 0x13E1 JUMPI JUMPDEST POP POP POP POP POP SWAP1 POP SWAP2 SWAP1 POP JUMP JUMPDEST PUSH1 0xFC SLOAD PUSH1 0x60 SWAP1 PUSH1 0x0 DUP2 PUSH8 0xFFFFFFFFFFFFFFFF DUP2 GT ISZERO PUSH2 0x1422 JUMPI PUSH2 0x1422 PUSH2 0x2A9B JUMP JUMPDEST PUSH1 0x40 MLOAD SWAP1 DUP1 DUP3 MSTORE DUP1 PUSH1 0x20 MUL PUSH1 0x20 ADD DUP3 ADD PUSH1 0x40 MSTORE DUP1 ISZERO PUSH2 0x144B JUMPI DUP2 PUSH1 0x20 ADD PUSH1 0x20 DUP3 MUL DUP1 CALLDATASIZE DUP4 CALLDATACOPY ADD SWAP1 POP JUMPDEST POP SWAP1 POP PUSH1 0x0 JUMPDEST DUP3 DUP2 LT ISZERO PUSH2 0x14AF JUMPI PUSH1 0x0 DUP2 DUP2 MSTORE PUSH2 0x104 PUSH1 0x20 MSTORE PUSH1 0x40 SWAP1 KECCAK256 DUP1 SLOAD PUSH1 0xFF AND ISZERO ISZERO PUSH1 0x1 SUB PUSH2 0x149C JUMPI DUP2 ISZERO PUSH2 0x149C JUMPI DUP2 DUP4 DUP4 DUP2 MLOAD DUP2 LT PUSH2 0x148F JUMPI PUSH2 0x148F PUSH2 0x2C69 JUMP JUMPDEST PUSH1 0x20 MUL PUSH1 0x20 ADD ADD DUP2 DUP2 MSTORE POP POP JUMPDEST POP DUP1 PUSH2 0x14A7 DUP2 PUSH2 0x2C95 JUMP JUMPDEST SWAP2 POP POP PUSH2 0x1451 JUMP JUMPDEST POP SWAP3 SWAP2 POP POP JUMP JUMPDEST PUSH2 0x14BE PUSH2 0x1E10 JUMP JUMPDEST PUSH2 0xD41 PUSH1 0x0 PUSH2 0x228B JUMP JUMPDEST CALLER PUSH1 0x0 DUP2 DUP2 MSTORE PUSH2 0x103 PUSH1 0x20 MSTORE PUSH1 0x40 DUP2 KECCAK256 PUSH1 0x3 DUP2 ADD SLOAD SWAP1 SWAP2 SWAP1 PUSH2 0x14E9 DUP4 PUSH2 0x22DD JUMP JUMPDEST PUSH2 0x14F3 SWAP2 SWAP1 PUSH2 0x2CAE JUMP JUMPDEST SWAP1 POP DUP1 DUP3 PUSH1 0x3 ADD PUSH1 0x0 DUP3 DUP3 SLOAD PUSH2 0x1509 SWAP2 SWAP1 PUSH2 0x2CC1 JUMP JUMPDEST SWAP1 SWAP2 SSTORE POP POP TIMESTAMP PUSH1 0x2 DUP4 ADD SSTORE PUSH1 0x0 PUSH2 0x151F DUP5 PUSH2 0x233E JUMP JUMPDEST SWAP1 POP PUSH1 0x1 PUSH1 0x1 PUSH1 0xA0 SHL SUB DUP5 AND PUSH2 0x8FC PUSH2 0x1538 DUP5 DUP5 PUSH2 0x2CC1 JUMP JUMPDEST PUSH1 0x40 MLOAD DUP2 ISZERO SWAP1 SWAP3 MUL SWAP2 PUSH1 0x0 DUP2 DUP2 DUP2 DUP6 DUP9 DUP9 CALL SWAP4 POP POP POP POP ISZERO DUP1 ISZERO PUSH2 0x1560 JUMPI RETURNDATASIZE PUSH1 0x0 DUP1 RETURNDATACOPY RETURNDATASIZE PUSH1 0x0 REVERT JUMPDEST POP PUSH1 0x40 MLOAD DUP3 SWAP1 PUSH1 0x1 PUSH1 0x1 PUSH1 0xA0 SHL SUB DUP7 AND SWAP1 PUSH32 0x6DD401E61BA732582A5EBA3D54CCC3AFB3609CD3AC1A166D1D36F75FC0AEDCDA SWAP1 PUSH1 0x0 SWAP1 LOG3 PUSH1 0x40 MLOAD DUP2 SWAP1 PUSH1 0x1 PUSH1 0x1 PUSH1 0xA0 SHL SUB DUP7 AND SWAP1 PUSH32 0x79D3DF6837CC49FF0E09FD3258E6E45594E0703445BB06825E9D75156EAEE8F0 SWAP1 PUSH1 0x0 SWAP1 LOG3 POP POP POP POP JUMP JUMPDEST PUSH1 0x0 SLOAD PUSH2 0x100 SWAP1 DIV PUSH1 0xFF AND ISZERO DUP1 DUP1 ISZERO PUSH2 0x15F3 JUMPI POP PUSH1 0x0 SLOAD PUSH1 0x1 PUSH1 0xFF SWAP1 SWAP2 AND LT JUMPDEST DUP1 PUSH2 0x160D JUMPI POP ADDRESS EXTCODESIZE ISZERO DUP1 ISZERO PUSH2 0x160D JUMPI POP PUSH1 0x0 SLOAD PUSH1 0xFF AND PUSH1 0x1 EQ JUMPDEST PUSH2 0x1670 JUMPI PUSH1 0x40 MLOAD PUSH3 0x461BCD PUSH1 0xE5 SHL DUP2 MSTORE PUSH1 0x20 PUSH1 0x4 DUP3 ADD MSTORE PUSH1 0x2E PUSH1 0x24 DUP3 ADD MSTORE PUSH32 0x496E697469616C697A61626C653A20636F6E747261637420697320616C726561 PUSH1 0x44 DUP3 ADD MSTORE PUSH14 0x191E481A5B9A5D1A585B1A5E9959 PUSH1 0x92 SHL PUSH1 0x64 DUP3 ADD MSTORE PUSH1 0x84 ADD PUSH2 0xB7F JUMP JUMPDEST PUSH1 0x0 DUP1 SLOAD PUSH1 0xFF NOT AND PUSH1 0x1 OR SWAP1 SSTORE DUP1 ISZERO PUSH2 0x1693 JUMPI PUSH1 0x0 DUP1 SLOAD PUSH2 0xFF00 NOT AND PUSH2 0x100 OR SWAP1 SSTORE JUMPDEST PUSH1 0xFB DUP1 SLOAD PUSH1 0x1 PUSH1 0x1 PUSH1 0xA0 SHL SUB NOT AND PUSH20 0xB8BF5FEB9FCA57D9C5D27185DDF3017E99A2D36 OR SWAP1 SSTORE PUSH1 0xFF DUP1 SLOAD PUSH2 0xFFFF NOT AND PUSH1 0x3C OR SWAP1 SSTORE PUSH4 0x1E13380 PUSH2 0x100 SSTORE PUSH3 0x278D00 PUSH2 0x101 SSTORE PUSH2 0x16E0 PUSH2 0x2489 JUMP JUMPDEST PUSH2 0x16E8 PUSH2 0x24B8 JUMP JUMPDEST PUSH2 0x16F0 PUSH2 0x24E7 JUMP JUMPDEST DUP1 ISZERO PUSH2 0xC1C JUMPI PUSH1 0x0 DUP1 SLOAD PUSH2 0xFF00 NOT AND SWAP1 SSTORE PUSH1 0x40 MLOAD PUSH1 0x1 DUP2 MSTORE PUSH32 0x7F26B83FF96E1F2B6A682F133852F6798A09C465DA95921460CEFB3847402498 SWAP1 PUSH1 0x20 ADD PUSH1 0x40 MLOAD DUP1 SWAP2 SUB SWAP1 LOG1 POP JUMP JUMPDEST PUSH2 0x1740 PUSH2 0x1E10 JUMP JUMPDEST PUSH2 0xD41 PUSH2 0x250E JUMP JUMPDEST PUSH1 0x1 PUSH1 0x1 PUSH1 0xA0 SHL SUB DUP2 AND PUSH1 0x0 SWAP1 DUP2 MSTORE PUSH2 0x103 PUSH1 0x20 MSTORE PUSH1 0x40 DUP2 KECCAK256 PUSH2 0xA0B SWAP1 PUSH2 0x22DD JUMP JUMPDEST CALLER PUSH1 0x0 DUP2 DUP2 MSTORE PUSH2 0x103 PUSH1 0x20 MSTORE PUSH1 0x40 DUP2 KECCAK256 PUSH1 0x3 DUP2 ADD SLOAD SWAP1 SWAP2 SWAP1 PUSH2 0x178B DUP4 PUSH2 0x22DD JUMP JUMPDEST PUSH2 0x1795 SWAP2 SWAP1 PUSH2 0x2CAE JUMP JUMPDEST SWAP1 POP PUSH1 0x0 DUP2 GT PUSH2 0x17E7 JUMPI PUSH1 0x40 MLOAD PUSH3 0x461BCD PUSH1 0xE5 SHL DUP2 MSTORE PUSH1 0x20 PUSH1 0x4 DUP3 ADD MSTORE PUSH1 0x1C PUSH1 0x24 DUP3 ADD MSTORE PUSH32 0x596F752068617665206E6F207374616B696E67206F7220656E64656400000000 PUSH1 0x44 DUP3 ADD MSTORE PUSH1 0x64 ADD PUSH2 0xB7F JUMP JUMPDEST PUSH1 0x1 DUP3 ADD SLOAD TIMESTAMP SWAP1 PUSH1 0xFF AND ISZERO PUSH2 0x1856 JUMPI PUSH1 0x40 MLOAD PUSH3 0x461BCD PUSH1 0xE5 SHL DUP2 MSTORE PUSH1 0x20 PUSH1 0x4 DUP3 ADD MSTORE PUSH1 0x2F PUSH1 0x24 DUP3 ADD MSTORE PUSH32 0x596F7572206163636F756E742069732064697361626C65642E20506C65617365 PUSH1 0x44 DUP3 ADD MSTORE PUSH15 0x1031B7B73A30B1BA1030B236B4B717 PUSH1 0x89 SHL PUSH1 0x64 DUP3 ADD MSTORE PUSH1 0x84 ADD PUSH2 0xB7F JUMP JUMPDEST DUP1 PUSH2 0x101 SLOAD DUP5 PUSH1 0x2 ADD SLOAD PUSH2 0x186A SWAP2 SWAP1 PUSH2 0x2CC1 JUMP JUMPDEST GT PUSH2 0x18C9 JUMPI PUSH1 0x40 MLOAD PUSH3 0x461BCD PUSH1 0xE5 SHL DUP2 MSTORE PUSH1 0x20 PUSH1 0x4 DUP3 ADD MSTORE PUSH1 0x29 PUSH1 0x24 DUP3 ADD MSTORE PUSH32 0x596F752063616E6E6F7420636C61696D20726577617264206265666F72652074 PUSH1 0x44 DUP3 ADD MSTORE PUSH9 0x34B6B2B634B6B4BA17 PUSH1 0xB9 SHL PUSH1 0x64 DUP3 ADD MSTORE PUSH1 0x84 ADD PUSH2 0xB7F JUMP JUMPDEST PUSH2 0x18D5 DUP5 DUP5 DUP5 DUP5 PUSH2 0x254B JUMP JUMPDEST PUSH1 0x40 MLOAD PUSH1 0x1 PUSH1 0x1 PUSH1 0xA0 SHL SUB DUP6 AND SWAP1 DUP4 ISZERO PUSH2 0x8FC MUL SWAP1 DUP5 SWAP1 PUSH1 0x0 DUP2 DUP2 DUP2 DUP6 DUP9 DUP9 CALL SWAP4 POP POP POP POP ISZERO DUP1 ISZERO PUSH2 0x190B JUMPI RETURNDATASIZE PUSH1 0x0 DUP1 RETURNDATACOPY RETURNDATASIZE PUSH1 0x0 REVERT JUMPDEST POP POP POP POP POP JUMP JUMPDEST PUSH2 0x193F PUSH1 0x40 MLOAD DUP1 PUSH1 0x80 ADD PUSH1 0x40 MSTORE DUP1 PUSH1 0x60 DUP2 MSTORE PUSH1 0x20 ADD PUSH1 0x0 ISZERO ISZERO DUP2 MSTORE PUSH1 0x20 ADD PUSH1 0x0 DUP2 MSTORE PUSH1 0x20 ADD PUSH1 0x0 DUP2 MSTORE POP SWAP1 JUMP JUMPDEST PUSH1 0x1 PUSH1 0x1 PUSH1 0xA0 SHL SUB DUP3 AND PUSH1 0x0 SWAP1 DUP2 MSTORE PUSH2 0x103 PUSH1 0x20 SWAP1 DUP2 MSTORE PUSH1 0x40 SWAP2 DUP3 SWAP1 KECCAK256 DUP3 MLOAD DUP2 SLOAD PUSH1 0xA0 SWAP4 DUP2 MUL DUP3 ADD DUP5 ADD SWAP1 SWAP5 MSTORE PUSH1 0x80 DUP2 ADD DUP5 DUP2 MSTORE SWAP1 SWAP4 SWAP2 SWAP3 DUP5 SWAP3 DUP5 SWAP2 DUP5 ADD DUP3 DUP3 DUP1 ISZERO PUSH2 0x19AA JUMPI PUSH1 0x20 MUL DUP3 ADD SWAP2 SWAP1 PUSH1 0x0 MSTORE PUSH1 0x20 PUSH1 0x0 KECCAK256 SWAP1 JUMPDEST DUP2 SLOAD DUP2 MSTORE PUSH1 0x20 ADD SWAP1 PUSH1 0x1 ADD SWAP1 DUP1 DUP4 GT PUSH2 0x1996 JUMPI JUMPDEST POP POP POP SWAP2 DUP4 MSTORE POP POP PUSH1 0x1 DUP3 ADD SLOAD PUSH1 0xFF AND ISZERO ISZERO PUSH1 0x20 DUP3 ADD MSTORE PUSH1 0x2 DUP3 ADD SLOAD PUSH1 0x40 DUP3 ADD MSTORE PUSH1 0x3 SWAP1 SWAP2 ADD SLOAD PUSH1 0x60 SWAP1 SWAP2 ADD MSTORE SWAP3 SWAP2 POP POP JUMP JUMPDEST PUSH1 0x60 PUSH1 0x0 PUSH1 0xFC DUP1 SLOAD DUP1 PUSH1 0x20 MUL PUSH1 0x20 ADD PUSH1 0x40 MLOAD SWAP1 DUP2 ADD PUSH1 0x40 MSTORE DUP1 SWAP3 SWAP2 SWAP1 DUP2 DUP2 MSTORE PUSH1 0x20 ADD DUP3 DUP1 SLOAD DUP1 ISZERO PUSH2 0x1A37 JUMPI PUSH1 0x20 MUL DUP3 ADD SWAP2 SWAP1 PUSH1 0x0 MSTORE PUSH1 0x20 PUSH1 0x0 KECCAK256 SWAP1 JUMPDEST DUP2 SLOAD PUSH1 0x1 PUSH1 0x1 PUSH1 0xA0 SHL SUB AND DUP2 MSTORE PUSH1 0x1 SWAP1 SWAP2 ADD SWAP1 PUSH1 0x20 ADD DUP1 DUP4 GT PUSH2 0x1A19 JUMPI JUMPDEST POP POP POP POP POP SWAP1 POP PUSH1 0x0 DUP2 MLOAD SWAP1 POP PUSH1 0x0 DUP2 PUSH8 0xFFFFFFFFFFFFFFFF DUP2 GT ISZERO PUSH2 0x1A5F JUMPI PUSH2 0x1A5F PUSH2 0x2A9B JUMP JUMPDEST PUSH1 0x40 MLOAD SWAP1 DUP1 DUP3 MSTORE DUP1 PUSH1 0x20 MUL PUSH1 0x20 ADD DUP3 ADD PUSH1 0x40 MSTORE DUP1 ISZERO PUSH2 0x1A88 JUMPI DUP2 PUSH1 0x20 ADD PUSH1 0x20 DUP3 MUL DUP1 CALLDATASIZE DUP4 CALLDATACOPY ADD SWAP1 POP JUMPDEST POP SWAP1 POP PUSH1 0x0 DUP1 JUMPDEST DUP4 DUP2 LT ISZERO PUSH2 0x1B27 JUMPI PUSH2 0x1ABA DUP4 DUP7 DUP4 DUP2 MLOAD DUP2 LT PUSH2 0x1AAD JUMPI PUSH2 0x1AAD PUSH2 0x2C69 JUMP JUMPDEST PUSH1 0x20 MUL PUSH1 0x20 ADD ADD MLOAD PUSH2 0x1DAB JUMP JUMPDEST ISZERO ISZERO PUSH1 0x1 EQ PUSH2 0x1B15 JUMPI DUP5 DUP2 DUP2 MLOAD DUP2 LT PUSH2 0x1AD5 JUMPI PUSH2 0x1AD5 PUSH2 0x2C69 JUMP JUMPDEST PUSH1 0x20 MUL PUSH1 0x20 ADD ADD MLOAD DUP4 DUP4 DUP2 MLOAD DUP2 LT PUSH2 0x1AEF JUMPI PUSH2 0x1AEF PUSH2 0x2C69 JUMP JUMPDEST PUSH1 0x1 PUSH1 0x1 PUSH1 0xA0 SHL SUB SWAP1 SWAP3 AND PUSH1 0x20 SWAP3 DUP4 MUL SWAP2 SWAP1 SWAP2 ADD SWAP1 SWAP2 ADD MSTORE DUP2 PUSH2 0x1B11 DUP2 PUSH2 0x2C95 JUMP JUMPDEST SWAP3 POP POP JUMPDEST DUP1 PUSH2 0x1B1F DUP2 PUSH2 0x2C95 JUMP JUMPDEST SWAP2 POP POP PUSH2 0x1A8F JUMP JUMPDEST POP SWAP1 SWAP5 SWAP4 POP POP POP POP JUMP JUMPDEST PUSH1 0x60 PUSH1 0x0 PUSH1 0xFC DUP1 SLOAD DUP1 PUSH1 0x20 MUL PUSH1 0x20 ADD PUSH1 0x40 MLOAD SWAP1 DUP2 ADD PUSH1 0x40 MSTORE DUP1 SWAP3 SWAP2 SWAP1 DUP2 DUP2 MSTORE PUSH1 0x20 ADD DUP3 DUP1 SLOAD DUP1 ISZERO PUSH2 0x1B8B JUMPI PUSH1 0x20 MUL DUP3 ADD SWAP2 SWAP1 PUSH1 0x0 MSTORE PUSH1 0x20 PUSH1 0x0 KECCAK256 SWAP1 JUMPDEST DUP2 SLOAD PUSH1 0x1 PUSH1 0x1 PUSH1 0xA0 SHL SUB AND DUP2 MSTORE PUSH1 0x1 SWAP1 SWAP2 ADD SWAP1 PUSH1 0x20 ADD DUP1 DUP4 GT PUSH2 0x1B6D JUMPI JUMPDEST POP POP POP POP POP SWAP1 POP PUSH1 0x0 DUP2 MLOAD SWAP1 POP PUSH1 0x0 DUP2 PUSH8 0xFFFFFFFFFFFFFFFF DUP2 GT ISZERO PUSH2 0x1BB3 JUMPI PUSH2 0x1BB3 PUSH2 0x2A9B JUMP JUMPDEST PUSH1 0x40 MLOAD SWAP1 DUP1 DUP3 MSTORE DUP1 PUSH1 0x20 MUL PUSH1 0x20 ADD DUP3 ADD PUSH1 0x40 MSTORE DUP1 ISZERO PUSH2 0x1BDC JUMPI DUP2 PUSH1 0x20 ADD PUSH1 0x20 DUP3 MUL DUP1 CALLDATASIZE DUP4 CALLDATACOPY ADD SWAP1 POP JUMPDEST POP SWAP1 POP PUSH1 0x0 DUP1 JUMPDEST DUP4 DUP2 LT ISZERO PUSH2 0x1B27 JUMPI PUSH2 0x1C01 DUP4 DUP7 DUP4 DUP2 MLOAD DUP2 LT PUSH2 0x1AAD JUMPI PUSH2 0x1AAD PUSH2 0x2C69 JUMP JUMPDEST ISZERO ISZERO PUSH1 0x1 EQ PUSH2 0x1C83 JUMPI PUSH2 0x1C2C DUP6 DUP3 DUP2 MLOAD DUP2 LT PUSH2 0x1C1F JUMPI PUSH2 0x1C1F PUSH2 0x2C69 JUMP JUMPDEST PUSH1 0x20 MUL PUSH1 0x20 ADD ADD MLOAD PUSH2 0x11D0 JUMP JUMPDEST ISZERO PUSH2 0x1C83 JUMPI DUP5 DUP2 DUP2 MLOAD DUP2 LT PUSH2 0x1C43 JUMPI PUSH2 0x1C43 PUSH2 0x2C69 JUMP JUMPDEST PUSH1 0x20 MUL PUSH1 0x20 ADD ADD MLOAD DUP4 DUP4 DUP2 MLOAD DUP2 LT PUSH2 0x1C5D JUMPI PUSH2 0x1C5D PUSH2 0x2C69 JUMP JUMPDEST PUSH1 0x1 PUSH1 0x1 PUSH1 0xA0 SHL SUB SWAP1 SWAP3 AND PUSH1 0x20 SWAP3 DUP4 MUL SWAP2 SWAP1 SWAP2 ADD SWAP1 SWAP2 ADD MSTORE DUP2 PUSH2 0x1C7F DUP2 PUSH2 0x2C95 JUMP JUMPDEST SWAP3 POP POP JUMPDEST DUP1 PUSH2 0x1C8D DUP2 PUSH2 0x2C95 JUMP JUMPDEST SWAP2 POP POP PUSH2 0x1BE3 JUMP JUMPDEST PUSH2 0x1C9D PUSH2 0x1E10 JUMP JUMPDEST PUSH1 0x1 PUSH1 0x1 PUSH1 0xA0 SHL SUB DUP2 AND PUSH2 0x1D02 JUMPI PUSH1 0x40 MLOAD PUSH3 0x461BCD PUSH1 0xE5 SHL DUP2 MSTORE PUSH1 0x20 PUSH1 0x4 DUP3 ADD MSTORE PUSH1 0x26 PUSH1 0x24 DUP3 ADD MSTORE PUSH32 0x4F776E61626C653A206E6577206F776E657220697320746865207A65726F2061 PUSH1 0x44 DUP3 ADD MSTORE PUSH6 0x646472657373 PUSH1 0xD0 SHL PUSH1 0x64 DUP3 ADD MSTORE PUSH1 0x84 ADD PUSH2 0xB7F JUMP JUMPDEST PUSH2 0xC1C DUP2 PUSH2 0x228B JUMP JUMPDEST PUSH1 0xFB SLOAD PUSH1 0x40 MLOAD PUSH4 0x935E01B PUSH1 0xE2 SHL DUP2 MSTORE CALLER PUSH1 0x4 DUP3 ADD MSTORE PUSH1 0x1 PUSH1 0x1 PUSH1 0xA0 SHL SUB SWAP1 SWAP2 AND SWAP1 PUSH4 0x24D7806C SWAP1 PUSH1 0x24 ADD PUSH1 0x20 PUSH1 0x40 MLOAD DUP1 DUP4 SUB DUP2 DUP7 GAS STATICCALL ISZERO DUP1 ISZERO PUSH2 0x1D53 JUMPI RETURNDATASIZE PUSH1 0x0 DUP1 RETURNDATACOPY RETURNDATASIZE PUSH1 0x0 REVERT JUMPDEST POP POP POP POP PUSH1 0x40 MLOAD RETURNDATASIZE PUSH1 0x1F NOT PUSH1 0x1F DUP3 ADD AND DUP3 ADD DUP1 PUSH1 0x40 MSTORE POP DUP2 ADD SWAP1 PUSH2 0x1D77 SWAP2 SWAP1 PUSH2 0x2D6C JUMP JUMPDEST PUSH2 0x1D93 JUMPI PUSH1 0x40 MLOAD PUSH3 0x461BCD PUSH1 0xE5 SHL DUP2 MSTORE PUSH1 0x4 ADD PUSH2 0xB7F SWAP1 PUSH2 0x2D8E JUMP JUMPDEST PUSH1 0xFF DUP1 SLOAD PUSH2 0xFFFF NOT AND PUSH2 0xFFFF SWAP3 SWAP1 SWAP3 AND SWAP2 SWAP1 SWAP2 OR SWAP1 SSTORE JUMP JUMPDEST PUSH1 0x0 DUP1 JUMPDEST DUP4 MLOAD DUP2 LT ISZERO PUSH2 0x1E06 JUMPI DUP3 PUSH1 0x1 PUSH1 0x1 PUSH1 0xA0 SHL SUB AND DUP5 DUP3 DUP2 MLOAD DUP2 LT PUSH2 0x1DD4 JUMPI PUSH2 0x1DD4 PUSH2 0x2C69 JUMP JUMPDEST PUSH1 0x20 MUL PUSH1 0x20 ADD ADD MLOAD PUSH1 0x1 PUSH1 0x1 PUSH1 0xA0 SHL SUB AND SUB PUSH2 0x1DF4 JUMPI PUSH1 0x1 SWAP2 POP POP PUSH2 0xA0B JUMP JUMPDEST DUP1 PUSH2 0x1DFE DUP2 PUSH2 0x2C95 JUMP JUMPDEST SWAP2 POP POP PUSH2 0x1DAF JUMP JUMPDEST POP PUSH1 0x0 SWAP4 SWAP3 POP POP POP JUMP JUMPDEST PUSH1 0x65 SLOAD PUSH1 0x1 PUSH1 0x1 PUSH1 0xA0 SHL SUB AND CALLER EQ PUSH2 0xD41 JUMPI PUSH1 0x40 MLOAD PUSH3 0x461BCD PUSH1 0xE5 SHL DUP2 MSTORE PUSH1 0x20 PUSH1 0x4 DUP3 ADD DUP2 SWAP1 MSTORE PUSH1 0x24 DUP3 ADD MSTORE PUSH32 0x4F776E61626C653A2063616C6C6572206973206E6F7420746865206F776E6572 PUSH1 0x44 DUP3 ADD MSTORE PUSH1 0x64 ADD PUSH2 0xB7F JUMP JUMPDEST PUSH1 0x1 PUSH1 0x1 PUSH1 0xA0 SHL SUB DUP2 AND PUSH1 0x0 SWAP1 DUP2 MSTORE PUSH2 0x103 PUSH1 0x20 SWAP1 DUP2 MSTORE PUSH1 0x40 DUP1 DUP4 KECCAK256 DUP1 SLOAD DUP3 MLOAD DUP2 DUP6 MUL DUP2 ADD DUP6 ADD SWAP1 SWAP4 MSTORE DUP1 DUP4 MSTORE SWAP1 SWAP3 DUP5 SWAP3 SWAP2 DUP5 SWAP2 DUP4 ADD DUP3 DUP3 DUP1 ISZERO PUSH2 0x1ECD JUMPI PUSH1 0x20 MUL DUP3 ADD SWAP2 SWAP1 PUSH1 0x0 MSTORE PUSH1 0x20 PUSH1 0x0 KECCAK256 SWAP1 JUMPDEST DUP2 SLOAD DUP2 MSTORE PUSH1 0x20 ADD SWAP1 PUSH1 0x1 ADD SWAP1 DUP1 DUP4 GT PUSH2 0x1EB9 JUMPI JUMPDEST POP POP DUP4 MLOAD SWAP4 SWAP5 POP TIMESTAMP SWAP3 POP PUSH1 0x0 SWAP2 POP POP JUMPDEST DUP3 DUP2 LT ISZERO PUSH2 0x1F65 JUMPI PUSH1 0x0 PUSH2 0x104 PUSH1 0x0 DUP7 DUP5 DUP2 MLOAD DUP2 LT PUSH2 0x1EFE JUMPI PUSH2 0x1EFE PUSH2 0x2C69 JUMP JUMPDEST PUSH1 0x20 SWAP1 DUP2 MUL SWAP2 SWAP1 SWAP2 ADD DUP2 ADD MLOAD DUP3 MSTORE DUP2 ADD SWAP2 SWAP1 SWAP2 MSTORE PUSH1 0x40 ADD PUSH1 0x0 KECCAK256 DUP1 SLOAD SWAP1 SWAP2 POP PUSH1 0xFF AND ISZERO PUSH2 0x1F52 JUMPI DUP3 DUP2 PUSH1 0x4 ADD SLOAD DUP3 PUSH1 0x3 ADD SLOAD PUSH2 0x1F3A SWAP2 SWAP1 PUSH2 0x2CC1 JUMP JUMPDEST GT ISZERO PUSH2 0x1F52 JUMPI PUSH1 0x1 DUP2 ADD SLOAD PUSH2 0x1F4F SWAP1 DUP9 PUSH2 0x2CC1 JUMP JUMPDEST SWAP7 POP JUMPDEST POP DUP1 PUSH2 0x1F5D DUP2 PUSH2 0x2C95 JUMP JUMPDEST SWAP2 POP POP PUSH2 0x1EDD JUMP JUMPDEST POP POP POP POP POP SWAP2 SWAP1 POP JUMP JUMPDEST PUSH2 0xC1C PUSH2 0x1E10 JUMP JUMPDEST PUSH32 0x4910FDFA16FED3260ED0E7147F7CC6DA11A60208B5B9406D12A635614FFD9143 SLOAD PUSH1 0xFF AND ISZERO PUSH2 0x1FAF JUMPI PUSH2 0x1FAA DUP4 PUSH2 0x25A7 JUMP JUMPDEST POP POP POP JUMP JUMPDEST DUP3 PUSH1 0x1 PUSH1 0x1 PUSH1 0xA0 SHL SUB AND PUSH4 0x52D1902D PUSH1 0x40 MLOAD DUP2 PUSH4 0xFFFFFFFF AND PUSH1 0xE0 SHL DUP2 MSTORE PUSH1 0x4 ADD PUSH1 0x20 PUSH1 0x40 MLOAD DUP1 DUP4 SUB DUP2 DUP7 GAS STATICCALL SWAP3 POP POP POP DUP1 ISZERO PUSH2 0x2009 JUMPI POP PUSH1 0x40 DUP1 MLOAD PUSH1 0x1F RETURNDATASIZE SWAP1 DUP2 ADD PUSH1 0x1F NOT AND DUP3 ADD SWAP1 SWAP3 MSTORE PUSH2 0x2006 SWAP2 DUP2 ADD SWAP1 PUSH2 0x2DD0 JUMP JUMPDEST PUSH1 0x1 JUMPDEST PUSH2 0x206C JUMPI PUSH1 0x40 MLOAD PUSH3 0x461BCD PUSH1 0xE5 SHL DUP2 MSTORE PUSH1 0x20 PUSH1 0x4 DUP3 ADD MSTORE PUSH1 0x2E PUSH1 0x24 DUP3 ADD MSTORE PUSH32 0x45524331393637557067726164653A206E657720696D706C656D656E74617469 PUSH1 0x44 DUP3 ADD MSTORE PUSH14 0x6F6E206973206E6F742055555053 PUSH1 0x90 SHL PUSH1 0x64 DUP3 ADD MSTORE PUSH1 0x84 ADD PUSH2 0xB7F JUMP JUMPDEST PUSH1 0x0 DUP1 MLOAD PUSH1 0x20 PUSH2 0x2EEB DUP4 CODECOPY DUP2 MLOAD SWAP2 MSTORE DUP2 EQ PUSH2 0x20DB JUMPI PUSH1 0x40 MLOAD PUSH3 0x461BCD PUSH1 0xE5 SHL DUP2 MSTORE PUSH1 0x20 PUSH1 0x4 DUP3 ADD MSTORE PUSH1 0x29 PUSH1 0x24 DUP3 ADD MSTORE PUSH32 0x45524331393637557067726164653A20756E737570706F727465642070726F78 PUSH1 0x44 DUP3 ADD MSTORE PUSH9 0x1A58589B1955555251 PUSH1 0xBA SHL PUSH1 0x64 DUP3 ADD MSTORE PUSH1 0x84 ADD PUSH2 0xB7F JUMP JUMPDEST POP PUSH2 0x1FAA DUP4 DUP4 DUP4 PUSH2 0x2643 JUMP JUMPDEST PUSH2 0x20EF PUSH2 0x266E JUMP JUMPDEST PUSH1 0x33 DUP1 SLOAD PUSH1 0xFF NOT AND SWAP1 SSTORE PUSH32 0x5DB9EE0A495BF2E6FF9C91A7834C1BA4FDD244A5E8AA4E537BD38AEAE4B073AA CALLER JUMPDEST PUSH1 0x40 MLOAD PUSH1 0x1 PUSH1 0x1 PUSH1 0xA0 SHL SUB SWAP1 SWAP2 AND DUP2 MSTORE PUSH1 0x20 ADD PUSH1 0x40 MLOAD DUP1 SWAP2 SUB SWAP1 LOG1 JUMP JUMPDEST PUSH1 0xFC DUP1 SLOAD PUSH1 0x1 DUP1 DUP3 ADD DUP4 SSTORE PUSH32 0x371F36870D18F32A11FEA0F144B021C8B407BB50F8E0267C711123F454B963C0 SWAP1 SWAP2 ADD DUP1 SLOAD PUSH1 0x1 PUSH1 0x1 PUSH1 0xA0 SHL SUB NOT AND PUSH1 0x1 PUSH1 0x1 PUSH1 0xA0 SHL SUB DUP9 AND SWAP1 DUP2 OR SWAP1 SWAP2 SSTORE SWAP2 SLOAD PUSH1 0x0 DUP4 DUP2 MSTORE PUSH2 0x103 PUSH1 0x20 SWAP1 DUP2 MSTORE PUSH1 0x40 DUP1 DUP4 KECCAK256 PUSH4 0xFFFFFFFF DUP6 AND DUP1 DUP6 MSTORE PUSH2 0x104 DUP5 MSTORE SWAP2 DUP5 KECCAK256 DUP2 SLOAD DUP1 DUP9 ADD DUP4 SSTORE DUP3 DUP7 MSTORE SWAP4 DUP6 KECCAK256 SWAP1 SWAP4 ADD DUP3 SWAP1 SSTORE DUP3 SLOAD PUSH5 0xFFFFFFFFFF NOT AND PUSH2 0x100 SWAP1 SWAP3 MUL PUSH1 0xFF NOT AND SWAP2 SWAP1 SWAP2 OR DUP6 OR PUSH6 0x10000000000 PUSH1 0x1 PUSH1 0xC8 SHL SUB NOT AND PUSH6 0x10000000000 SWAP1 SWAP7 MUL SWAP6 SWAP1 SWAP6 OR DUP2 SSTORE TIMESTAMP PUSH1 0x3 DUP3 ADD DUP2 SWAP1 SSTORE PUSH1 0x4 DUP3 ADD DUP8 SWAP1 SSTORE SWAP4 DUP2 ADD DUP9 SWAP1 SSTORE PUSH1 0x2 DUP2 ADD DUP1 SLOAD PUSH2 0xFFFF NOT AND PUSH2 0xFFFF DUP10 AND OR SWAP1 SSTORE PUSH1 0xFD DUP1 SLOAD SWAP4 SWAP6 SWAP4 SWAP2 SWAP3 DUP10 SWAP3 PUSH2 0x2234 SWAP1 DUP5 SWAP1 PUSH2 0x2CC1 JUMP JUMPDEST SWAP1 SWAP2 SSTORE POP POP PUSH1 0x40 MLOAD PUSH4 0xFFFFFFFF DUP6 AND DUP2 MSTORE DUP6 SWAP1 DUP9 SWAP1 PUSH1 0x1 PUSH1 0x1 PUSH1 0xA0 SHL SUB DUP12 AND SWAP1 PUSH32 0xF556991011E831BCFAC4F406D547E5E32CDD98267EFAB83935230D5F8D02C446 SWAP1 PUSH1 0x20 ADD PUSH1 0x40 MLOAD DUP1 SWAP2 SUB SWAP1 LOG4 POP POP POP POP POP POP POP POP JUMP JUMPDEST PUSH1 0x65 DUP1 SLOAD PUSH1 0x1 PUSH1 0x1 PUSH1 0xA0 SHL SUB DUP4 DUP2 AND PUSH1 0x1 PUSH1 0x1 PUSH1 0xA0 SHL SUB NOT DUP4 AND DUP2 OR SWAP1 SWAP4 SSTORE PUSH1 0x40 MLOAD SWAP2 AND SWAP2 SWAP1 DUP3 SWAP1 PUSH32 0x8BE0079C531659141344CD1FD0A4F28419497F9722A3DAAFE3B4186F6B6457E0 SWAP1 PUSH1 0x0 SWAP1 LOG3 POP POP JUMP JUMPDEST DUP1 SLOAD PUSH1 0x0 SWAP1 DUP2 JUMPDEST DUP2 DUP2 PUSH2 0xFFFF AND LT ISZERO PUSH2 0x2337 JUMPI PUSH2 0x2319 DUP5 DUP3 PUSH2 0xFFFF AND DUP2 SLOAD DUP2 LT PUSH2 0x2309 JUMPI PUSH2 0x2309 PUSH2 0x2C69 JUMP JUMPDEST SWAP1 PUSH1 0x0 MSTORE PUSH1 0x20 PUSH1 0x0 KECCAK256 ADD SLOAD PUSH2 0x26B7 JUMP JUMPDEST PUSH2 0x2323 SWAP1 DUP5 PUSH2 0x2CC1 JUMP JUMPDEST SWAP3 POP DUP1 PUSH2 0x232F DUP2 PUSH2 0x2DE9 JUMP JUMPDEST SWAP2 POP POP PUSH2 0x22E4 JUMP JUMPDEST POP POP SWAP2 SWAP1 POP JUMP JUMPDEST PUSH1 0x1 PUSH1 0x1 PUSH1 0xA0 SHL SUB DUP2 AND PUSH1 0x0 SWAP1 DUP2 MSTORE PUSH2 0x103 PUSH1 0x20 SWAP1 DUP2 MSTORE PUSH1 0x40 DUP1 DUP4 KECCAK256 DUP1 SLOAD DUP3 MLOAD DUP2 DUP6 MUL DUP2 ADD DUP6 ADD SWAP1 SWAP4 MSTORE DUP1 DUP4 MSTORE SWAP1 SWAP3 DUP5 SWAP3 SWAP2 DUP5 SWAP2 DUP4 ADD DUP3 DUP3 DUP1 ISZERO PUSH2 0x23A1 JUMPI PUSH1 0x20 MUL DUP3 ADD SWAP2 SWAP1 PUSH1 0x0 MSTORE PUSH1 0x20 PUSH1 0x0 KECCAK256 SWAP1 JUMPDEST DUP2 SLOAD DUP2 MSTORE PUSH1 0x20 ADD SWAP1 PUSH1 0x1 ADD SWAP1 DUP1 DUP4 GT PUSH2 0x238D JUMPI JUMPDEST POP POP DUP4 MLOAD SWAP4 SWAP5 POP TIMESTAMP SWAP3 POP PUSH1 0x0 SWAP2 POP POP JUMPDEST DUP3 DUP2 LT ISZERO PUSH2 0x1F65 JUMPI PUSH1 0x0 PUSH2 0x104 PUSH1 0x0 DUP7 DUP5 DUP2 MLOAD DUP2 LT PUSH2 0x23D2 JUMPI PUSH2 0x23D2 PUSH2 0x2C69 JUMP JUMPDEST PUSH1 0x20 SWAP1 DUP2 MUL SWAP2 SWAP1 SWAP2 ADD DUP2 ADD MLOAD DUP3 MSTORE DUP2 ADD SWAP2 SWAP1 SWAP2 MSTORE PUSH1 0x40 ADD PUSH1 0x0 KECCAK256 DUP1 SLOAD SWAP1 SWAP2 POP PUSH1 0xFF AND ISZERO PUSH2 0x2476 JUMPI DUP3 DUP2 PUSH1 0x4 ADD SLOAD DUP3 PUSH1 0x3 ADD SLOAD PUSH2 0x240E SWAP2 SWAP1 PUSH2 0x2CC1 JUMP JUMPDEST GT ISZERO PUSH2 0x2476 JUMPI PUSH1 0x1 DUP2 ADD SLOAD PUSH2 0x2423 SWAP1 DUP9 PUSH2 0x2CC1 JUMP JUMPDEST DUP2 SLOAD PUSH1 0xFF NOT AND DUP1 DUP4 SSTORE PUSH1 0x1 DUP4 ADD SLOAD PUSH1 0x40 MLOAD SWAP3 SWAP10 POP PUSH2 0x100 SWAP1 SWAP2 DIV PUSH4 0xFFFFFFFF AND SWAP2 PUSH1 0x1 PUSH1 0x1 PUSH1 0xA0 SHL SUB DUP12 AND SWAP1 PUSH32 0x91B6BC9D0D839F20A931895D4778E195EEF19985B93AE2F0E25B67E4812521F SWAP1 PUSH1 0x0 SWAP1 LOG4 JUMPDEST POP DUP1 PUSH2 0x2481 DUP2 PUSH2 0x2C95 JUMP JUMPDEST SWAP2 POP POP PUSH2 0x23B1 JUMP JUMPDEST PUSH1 0x0 SLOAD PUSH2 0x100 SWAP1 DIV PUSH1 0xFF AND PUSH2 0x24B0 JUMPI PUSH1 0x40 MLOAD PUSH3 0x461BCD PUSH1 0xE5 SHL DUP2 MSTORE PUSH1 0x4 ADD PUSH2 0xB7F SWAP1 PUSH2 0x2E0A JUMP JUMPDEST PUSH2 0xD41 PUSH2 0x273A JUMP JUMPDEST PUSH1 0x0 SLOAD PUSH2 0x100 SWAP1 DIV PUSH1 0xFF AND PUSH2 0x24DF JUMPI PUSH1 0x40 MLOAD PUSH3 0x461BCD PUSH1 0xE5 SHL DUP2 MSTORE PUSH1 0x4 ADD PUSH2 0xB7F SWAP1 PUSH2 0x2E0A JUMP JUMPDEST PUSH2 0xD41 PUSH2 0x276D JUMP JUMPDEST PUSH1 0x0 SLOAD PUSH2 0x100 SWAP1 DIV PUSH1 0xFF AND PUSH2 0xD41 JUMPI PUSH1 0x40 MLOAD PUSH3 0x461BCD PUSH1 0xE5 SHL DUP2 MSTORE PUSH1 0x4 ADD PUSH2 0xB7F SWAP1 PUSH2 0x2E0A JUMP JUMPDEST PUSH2 0x2516 PUSH2 0x279D JUMP JUMPDEST PUSH1 0x33 DUP1 SLOAD PUSH1 0xFF NOT AND PUSH1 0x1 OR SWAP1 SSTORE PUSH32 0x62E78CEA01BEE320CD4E420270B5EA74000D11B0C9F74754EBDBFC544B05A258 PUSH2 0x211C CALLER SWAP1 JUMP JUMPDEST DUP2 DUP4 PUSH1 0x3 ADD PUSH1 0x0 DUP3 DUP3 SLOAD PUSH2 0x255F SWAP2 SWAP1 PUSH2 0x2CC1 JUMP JUMPDEST SWAP1 SWAP2 SSTORE POP POP PUSH1 0x2 DUP4 ADD DUP2 SWAP1 SSTORE PUSH1 0x40 MLOAD DUP3 SWAP1 PUSH1 0x1 PUSH1 0x1 PUSH1 0xA0 SHL SUB DUP7 AND SWAP1 PUSH32 0x6DD401E61BA732582A5EBA3D54CCC3AFB3609CD3AC1A166D1D36F75FC0AEDCDA SWAP1 PUSH1 0x0 SWAP1 LOG3 POP POP POP POP JUMP JUMPDEST PUSH1 0x1 PUSH1 0x1 PUSH1 0xA0 SHL SUB DUP2 AND EXTCODESIZE PUSH2 0x2614 JUMPI PUSH1 0x40 MLOAD PUSH3 0x461BCD PUSH1 0xE5 SHL DUP2 MSTORE PUSH1 0x20 PUSH1 0x4 DUP3 ADD MSTORE PUSH1 0x2D PUSH1 0x24 DUP3 ADD MSTORE PUSH32 0x455243313936373A206E657720696D706C656D656E746174696F6E206973206E PUSH1 0x44 DUP3 ADD MSTORE PUSH13 0x1BDD08184818DBDB9D1C9858DD PUSH1 0x9A SHL PUSH1 0x64 DUP3 ADD MSTORE PUSH1 0x84 ADD PUSH2 0xB7F JUMP JUMPDEST PUSH1 0x0 DUP1 MLOAD PUSH1 0x20 PUSH2 0x2EEB DUP4 CODECOPY DUP2 MLOAD SWAP2 MSTORE DUP1 SLOAD PUSH1 0x1 PUSH1 0x1 PUSH1 0xA0 SHL SUB NOT AND PUSH1 0x1 PUSH1 0x1 PUSH1 0xA0 SHL SUB SWAP3 SWAP1 SWAP3 AND SWAP2 SWAP1 SWAP2 OR SWAP1 SSTORE JUMP JUMPDEST PUSH2 0x264C DUP4 PUSH2 0x27E3 JUMP JUMPDEST PUSH1 0x0 DUP3 MLOAD GT DUP1 PUSH2 0x2659 JUMPI POP DUP1 JUMPDEST ISZERO PUSH2 0x1FAA JUMPI PUSH2 0x2668 DUP4 DUP4 PUSH2 0x2823 JUMP JUMPDEST POP POP POP POP JUMP JUMPDEST PUSH1 0x33 SLOAD PUSH1 0xFF AND PUSH2 0xD41 JUMPI PUSH1 0x40 MLOAD PUSH3 0x461BCD PUSH1 0xE5 SHL DUP2 MSTORE PUSH1 0x20 PUSH1 0x4 DUP3 ADD MSTORE PUSH1 0x14 PUSH1 0x24 DUP3 ADD MSTORE PUSH20 0x14185D5CD8589B194E881B9BDD081C185D5CD959 PUSH1 0x62 SHL PUSH1 0x44 DUP3 ADD MSTORE PUSH1 0x64 ADD PUSH2 0xB7F JUMP JUMPDEST PUSH1 0x0 DUP2 DUP2 MSTORE PUSH2 0x104 PUSH1 0x20 MSTORE PUSH1 0x40 DUP2 KECCAK256 PUSH1 0x3 DUP2 ADD SLOAD TIMESTAMP SWAP2 SWAP1 DUP4 SWAP1 PUSH2 0x26DA SWAP1 DUP5 PUSH2 0x2CAE JUMP JUMPDEST PUSH1 0x4 DUP4 ADD SLOAD PUSH1 0x2 DUP5 ADD SLOAD PUSH1 0x1 DUP6 ADD SLOAD SWAP3 SWAP4 POP PUSH1 0x0 SWAP3 PUSH1 0x64 SWAP2 PUSH2 0x2702 SWAP2 PUSH2 0xFFFF SWAP1 SWAP2 AND SWAP1 PUSH2 0x2DB9 JUMP JUMPDEST PUSH2 0x270C SWAP2 SWAP1 PUSH2 0x2E55 JUMP JUMPDEST PUSH2 0x2716 SWAP2 SWAP1 PUSH2 0x2E55 JUMP JUMPDEST SWAP1 POP PUSH2 0x2726 DUP3 DUP5 PUSH1 0x4 ADD SLOAD PUSH2 0x2917 JUMP JUMPDEST PUSH2 0x2730 SWAP1 DUP3 PUSH2 0x2DB9 JUMP JUMPDEST SWAP7 SWAP6 POP POP POP POP POP POP JUMP JUMPDEST PUSH1 0x0 SLOAD PUSH2 0x100 SWAP1 DIV PUSH1 0xFF AND PUSH2 0x2761 JUMPI PUSH1 0x40 MLOAD PUSH3 0x461BCD PUSH1 0xE5 SHL DUP2 MSTORE PUSH1 0x4 ADD PUSH2 0xB7F SWAP1 PUSH2 0x2E0A JUMP JUMPDEST PUSH1 0x33 DUP1 SLOAD PUSH1 0xFF NOT AND SWAP1 SSTORE JUMP JUMPDEST PUSH1 0x0 SLOAD PUSH2 0x100 SWAP1 DIV PUSH1 0xFF AND PUSH2 0x2794 JUMPI PUSH1 0x40 MLOAD PUSH3 0x461BCD PUSH1 0xE5 SHL DUP2 MSTORE PUSH1 0x4 ADD PUSH2 0xB7F SWAP1 PUSH2 0x2E0A JUMP JUMPDEST PUSH2 0xD41 CALLER PUSH2 0x228B JUMP JUMPDEST PUSH1 0x33 SLOAD PUSH1 0xFF AND ISZERO PUSH2 0xD41 JUMPI PUSH1 0x40 MLOAD PUSH3 0x461BCD PUSH1 0xE5 SHL DUP2 MSTORE PUSH1 0x20 PUSH1 0x4 DUP3 ADD MSTORE PUSH1 0x10 PUSH1 0x24 DUP3 ADD MSTORE PUSH16 0x14185D5CD8589B194E881C185D5CD959 PUSH1 0x82 SHL PUSH1 0x44 DUP3 ADD MSTORE PUSH1 0x64 ADD PUSH2 0xB7F JUMP JUMPDEST PUSH2 0x27EC DUP2 PUSH2 0x25A7 JUMP JUMPDEST PUSH1 0x40 MLOAD PUSH1 0x1 PUSH1 0x1 PUSH1 0xA0 SHL SUB DUP3 AND SWAP1 PUSH32 0xBC7CD75A20EE27FD9ADEBAB32041F755214DBC6BFFA90CC0225B39DA2E5C2D3B SWAP1 PUSH1 0x0 SWAP1 LOG2 POP JUMP JUMPDEST PUSH1 0x60 PUSH1 0x1 PUSH1 0x1 PUSH1 0xA0 SHL SUB DUP4 AND EXTCODESIZE PUSH2 0x288B JUMPI PUSH1 0x40 MLOAD PUSH3 0x461BCD PUSH1 0xE5 SHL DUP2 MSTORE PUSH1 0x20 PUSH1 0x4 DUP3 ADD MSTORE PUSH1 0x26 PUSH1 0x24 DUP3 ADD MSTORE PUSH32 0x416464726573733A2064656C65676174652063616C6C20746F206E6F6E2D636F PUSH1 0x44 DUP3 ADD MSTORE PUSH6 0x1B9D1C9858DD PUSH1 0xD2 SHL PUSH1 0x64 DUP3 ADD MSTORE PUSH1 0x84 ADD PUSH2 0xB7F JUMP JUMPDEST PUSH1 0x0 DUP1 DUP5 PUSH1 0x1 PUSH1 0x1 PUSH1 0xA0 SHL SUB AND DUP5 PUSH1 0x40 MLOAD PUSH2 0x28A6 SWAP2 SWAP1 PUSH2 0x2E9B JUMP JUMPDEST PUSH1 0x0 PUSH1 0x40 MLOAD DUP1 DUP4 SUB DUP2 DUP6 GAS DELEGATECALL SWAP2 POP POP RETURNDATASIZE DUP1 PUSH1 0x0 DUP2 EQ PUSH2 0x28E1 JUMPI PUSH1 0x40 MLOAD SWAP2 POP PUSH1 0x1F NOT PUSH1 0x3F RETURNDATASIZE ADD AND DUP3 ADD PUSH1 0x40 MSTORE RETURNDATASIZE DUP3 MSTORE RETURNDATASIZE PUSH1 0x0 PUSH1 0x20 DUP5 ADD RETURNDATACOPY PUSH2 0x28E6 JUMP JUMPDEST PUSH1 0x60 SWAP2 POP JUMPDEST POP SWAP2 POP SWAP2 POP PUSH2 0x290E DUP3 DUP3 PUSH1 0x40 MLOAD DUP1 PUSH1 0x60 ADD PUSH1 0x40 MSTORE DUP1 PUSH1 0x27 DUP2 MSTORE PUSH1 0x20 ADD PUSH2 0x2F0B PUSH1 0x27 SWAP2 CODECOPY PUSH2 0x292D JUMP JUMPDEST SWAP6 SWAP5 POP POP POP POP POP JUMP JUMPDEST PUSH1 0x0 DUP2 DUP4 LT PUSH2 0x2926 JUMPI DUP2 PUSH2 0x10EB JUMP JUMPDEST POP SWAP1 SWAP2 SWAP1 POP JUMP JUMPDEST PUSH1 0x60 DUP4 ISZERO PUSH2 0x293C JUMPI POP DUP2 PUSH2 0x10EB JUMP JUMPDEST PUSH2 0x10EB DUP4 DUP4 DUP2 MLOAD ISZERO PUSH2 0x2951 JUMPI DUP2 MLOAD DUP1 DUP4 PUSH1 0x20 ADD REVERT JUMPDEST DUP1 PUSH1 0x40 MLOAD PUSH3 0x461BCD PUSH1 0xE5 SHL DUP2 MSTORE PUSH1 0x4 ADD PUSH2 0xB7F SWAP2 SWAP1 PUSH2 0x2EB7 JUMP JUMPDEST PUSH1 0x0 PUSH1 0x20 DUP3 DUP5 SUB SLT ISZERO PUSH2 0x297D JUMPI PUSH1 0x0 DUP1 REVERT JUMPDEST POP CALLDATALOAD SWAP2 SWAP1 POP JUMP JUMPDEST PUSH1 0x20 DUP1 DUP3 MSTORE DUP3 MLOAD DUP3 DUP3 ADD DUP2 SWAP1 MSTORE PUSH1 0x0 SWAP2 SWAP1 DUP5 DUP3 ADD SWAP1 PUSH1 0x40 DUP6 ADD SWAP1 DUP5 JUMPDEST DUP2 DUP2 LT ISZERO PUSH2 0x9B9 JUMPI DUP4 MLOAD PUSH1 0x1 PUSH1 0x1 PUSH1 0xA0 SHL SUB AND DUP4 MSTORE SWAP3 DUP5 ADD SWAP3 SWAP2 DUP5 ADD SWAP2 PUSH1 0x1 ADD PUSH2 0x29A0 JUMP JUMPDEST DUP1 CALLDATALOAD PUSH1 0x1 PUSH1 0x1 PUSH1 0xA0 SHL SUB DUP2 AND DUP2 EQ PUSH2 0x29DC JUMPI PUSH1 0x0 DUP1 REVERT JUMPDEST SWAP2 SWAP1 POP JUMP JUMPDEST PUSH1 0x0 DUP1 PUSH1 0x40 DUP4 DUP6 SUB SLT ISZERO PUSH2 0x29F4 JUMPI PUSH1 0x0 DUP1 REVERT JUMPDEST PUSH2 0x29FD DUP4 PUSH2 0x29C5 JUMP JUMPDEST SWAP5 PUSH1 0x20 SWAP4 SWAP1 SWAP4 ADD CALLDATALOAD SWAP4 POP POP POP JUMP JUMPDEST PUSH1 0x0 PUSH1 0x20 DUP3 DUP5 SUB SLT ISZERO PUSH2 0x2A1D JUMPI PUSH1 0x0 DUP1 REVERT JUMPDEST PUSH2 0x10EB DUP3 PUSH2 0x29C5 JUMP JUMPDEST PUSH1 0x0 DUP1 PUSH1 0x20 DUP4 DUP6 SUB SLT ISZERO PUSH2 0x2A39 JUMPI PUSH1 0x0 DUP1 REVERT JUMPDEST DUP3 CALLDATALOAD PUSH8 0xFFFFFFFFFFFFFFFF DUP1 DUP3 GT ISZERO PUSH2 0x2A51 JUMPI PUSH1 0x0 DUP1 REVERT JUMPDEST DUP2 DUP6 ADD SWAP2 POP DUP6 PUSH1 0x1F DUP4 ADD SLT PUSH2 0x2A65 JUMPI PUSH1 0x0 DUP1 REVERT JUMPDEST DUP2 CALLDATALOAD DUP2 DUP2 GT ISZERO PUSH2 0x2A74 JUMPI PUSH1 0x0 DUP1 REVERT JUMPDEST DUP7 PUSH1 0x20 DUP3 PUSH1 0x5 SHL DUP6 ADD ADD GT ISZERO PUSH2 0x2A89 JUMPI PUSH1 0x0 DUP1 REVERT JUMPDEST PUSH1 0x20 SWAP3 SWAP1 SWAP3 ADD SWAP7 SWAP2 SWAP6 POP SWAP1 SWAP4 POP POP POP POP JUMP JUMPDEST PUSH4 0x4E487B71 PUSH1 0xE0 SHL PUSH1 0x0 MSTORE PUSH1 0x41 PUSH1 0x4 MSTORE PUSH1 0x24 PUSH1 0x0 REVERT JUMPDEST PUSH1 0x0 DUP1 PUSH1 0x40 DUP4 DUP6 SUB SLT ISZERO PUSH2 0x2AC4 JUMPI PUSH1 0x0 DUP1 REVERT JUMPDEST PUSH2 0x2ACD DUP4 PUSH2 0x29C5 JUMP JUMPDEST SWAP2 POP PUSH1 0x20 DUP4 ADD CALLDATALOAD PUSH8 0xFFFFFFFFFFFFFFFF DUP1 DUP3 GT ISZERO PUSH2 0x2AEA JUMPI PUSH1 0x0 DUP1 REVERT JUMPDEST DUP2 DUP6 ADD SWAP2 POP DUP6 PUSH1 0x1F DUP4 ADD SLT PUSH2 0x2AFE JUMPI PUSH1 0x0 DUP1 REVERT JUMPDEST DUP2 CALLDATALOAD DUP2 DUP2 GT ISZERO PUSH2 0x2B10 JUMPI PUSH2 0x2B10 PUSH2 0x2A9B JUMP JUMPDEST PUSH1 0x40 MLOAD PUSH1 0x1F DUP3 ADD PUSH1 0x1F NOT SWAP1 DUP2 AND PUSH1 0x3F ADD AND DUP2 ADD SWAP1 DUP4 DUP3 GT DUP2 DUP4 LT OR ISZERO PUSH2 0x2B38 JUMPI PUSH2 0x2B38 PUSH2 0x2A9B JUMP JUMPDEST DUP2 PUSH1 0x40 MSTORE DUP3 DUP2 MSTORE DUP9 PUSH1 0x20 DUP5 DUP8 ADD ADD GT ISZERO PUSH2 0x2B51 JUMPI PUSH1 0x0 DUP1 REVERT JUMPDEST DUP3 PUSH1 0x20 DUP7 ADD PUSH1 0x20 DUP4 ADD CALLDATACOPY PUSH1 0x0 PUSH1 0x20 DUP5 DUP4 ADD ADD MSTORE DUP1 SWAP6 POP POP POP POP POP POP SWAP3 POP SWAP3 SWAP1 POP JUMP JUMPDEST PUSH1 0x0 DUP1 PUSH1 0x0 PUSH1 0x60 DUP5 DUP7 SUB SLT ISZERO PUSH2 0x2B88 JUMPI PUSH1 0x0 DUP1 REVERT JUMPDEST PUSH2 0x2B91 DUP5 PUSH2 0x29C5 JUMP JUMPDEST SWAP3 POP PUSH2 0x2B9F PUSH1 0x20 DUP6 ADD PUSH2 0x29C5 JUMP JUMPDEST SWAP2 POP PUSH1 0x40 DUP5 ADD CALLDATALOAD SWAP1 POP SWAP3 POP SWAP3 POP SWAP3 JUMP JUMPDEST PUSH1 0x0 DUP2 MLOAD DUP1 DUP5 MSTORE PUSH1 0x20 DUP1 DUP6 ADD SWAP5 POP DUP1 DUP5 ADD PUSH1 0x0 JUMPDEST DUP4 DUP2 LT ISZERO PUSH2 0x2BDF JUMPI DUP2 MLOAD DUP8 MSTORE SWAP6 DUP3 ADD SWAP6 SWAP1 DUP3 ADD SWAP1 PUSH1 0x1 ADD PUSH2 0x2BC3 JUMP JUMPDEST POP SWAP5 SWAP6 SWAP5 POP POP POP POP POP JUMP JUMPDEST PUSH1 0x20 DUP2 MSTORE PUSH1 0x0 PUSH2 0x10EB PUSH1 0x20 DUP4 ADD DUP5 PUSH2 0x2BAF JUMP JUMPDEST PUSH1 0x20 DUP2 MSTORE PUSH1 0x0 DUP3 MLOAD PUSH1 0x80 PUSH1 0x20 DUP5 ADD MSTORE PUSH2 0x2C19 PUSH1 0xA0 DUP5 ADD DUP3 PUSH2 0x2BAF JUMP JUMPDEST SWAP1 POP PUSH1 0x20 DUP5 ADD MLOAD ISZERO ISZERO PUSH1 0x40 DUP5 ADD MSTORE PUSH1 0x40 DUP5 ADD MLOAD PUSH1 0x60 DUP5 ADD MSTORE PUSH1 0x60 DUP5 ADD MLOAD PUSH1 0x80 DUP5 ADD MSTORE DUP1 SWAP2 POP POP SWAP3 SWAP2 POP POP JUMP JUMPDEST PUSH1 0x0 PUSH1 0x20 DUP3 DUP5 SUB SLT ISZERO PUSH2 0x2C57 JUMPI PUSH1 0x0 DUP1 REVERT JUMPDEST DUP2 CALLDATALOAD PUSH2 0xFFFF DUP2 AND DUP2 EQ PUSH2 0x10EB JUMPI PUSH1 0x0 DUP1 REVERT JUMPDEST PUSH4 0x4E487B71 PUSH1 0xE0 SHL PUSH1 0x0 MSTORE PUSH1 0x32 PUSH1 0x4 MSTORE PUSH1 0x24 PUSH1 0x0 REVERT JUMPDEST PUSH4 0x4E487B71 PUSH1 0xE0 SHL PUSH1 0x0 MSTORE PUSH1 0x11 PUSH1 0x4 MSTORE PUSH1 0x24 PUSH1 0x0 REVERT JUMPDEST PUSH1 0x0 PUSH1 0x1 DUP3 ADD PUSH2 0x2CA7 JUMPI PUSH2 0x2CA7 PUSH2 0x2C7F JUMP JUMPDEST POP PUSH1 0x1 ADD SWAP1 JUMP JUMPDEST DUP2 DUP2 SUB DUP2 DUP2 GT ISZERO PUSH2 0xA0B JUMPI PUSH2 0xA0B PUSH2 0x2C7F JUMP JUMPDEST DUP1 DUP3 ADD DUP1 DUP3 GT ISZERO PUSH2 0xA0B JUMPI PUSH2 0xA0B PUSH2 0x2C7F JUMP JUMPDEST PUSH1 0x20 DUP1 DUP3 MSTORE PUSH1 0x2C SWAP1 DUP3 ADD MSTORE PUSH32 0x46756E6374696F6E206D7573742062652063616C6C6564207468726F75676820 PUSH1 0x40 DUP3 ADD MSTORE PUSH12 0x19195B1959D85D1958D85B1B PUSH1 0xA2 SHL PUSH1 0x60 DUP3 ADD MSTORE PUSH1 0x80 ADD SWAP1 JUMP JUMPDEST PUSH1 0x20 DUP1 DUP3 MSTORE PUSH1 0x2C SWAP1 DUP3 ADD MSTORE PUSH32 0x46756E6374696F6E206D7573742062652063616C6C6564207468726F75676820 PUSH1 0x40 DUP3 ADD MSTORE PUSH12 0x6163746976652070726F7879 PUSH1 0xA0 SHL PUSH1 0x60 DUP3 ADD MSTORE PUSH1 0x80 ADD SWAP1 JUMP JUMPDEST PUSH1 0x0 PUSH1 0x20 DUP3 DUP5 SUB SLT ISZERO PUSH2 0x2D7E JUMPI PUSH1 0x0 DUP1 REVERT JUMPDEST DUP2 MLOAD DUP1 ISZERO ISZERO DUP2 EQ PUSH2 0x10EB JUMPI PUSH1 0x0 DUP1 REVERT JUMPDEST PUSH1 0x20 DUP1 DUP3 MSTORE PUSH1 0x11 SWAP1 DUP3 ADD MSTORE PUSH17 0x2CB7BA9030B932903737BA1030B236B4B7 PUSH1 0x79 SHL PUSH1 0x40 DUP3 ADD MSTORE PUSH1 0x60 ADD SWAP1 JUMP JUMPDEST DUP1 DUP3 MUL DUP2 ISZERO DUP3 DUP3 DIV DUP5 EQ OR PUSH2 0xA0B JUMPI PUSH2 0xA0B PUSH2 0x2C7F JUMP JUMPDEST PUSH1 0x0 PUSH1 0x20 DUP3 DUP5 SUB SLT ISZERO PUSH2 0x2DE2 JUMPI PUSH1 0x0 DUP1 REVERT JUMPDEST POP MLOAD SWAP2 SWAP1 POP JUMP JUMPDEST PUSH1 0x0 PUSH2 0xFFFF DUP1 DUP4 AND DUP2 DUP2 SUB PUSH2 0x2E00 JUMPI PUSH2 0x2E00 PUSH2 0x2C7F JUMP JUMPDEST PUSH1 0x1 ADD SWAP4 SWAP3 POP POP POP JUMP JUMPDEST PUSH1 0x20 DUP1 DUP3 MSTORE PUSH1 0x2B SWAP1 DUP3 ADD MSTORE PUSH32 0x496E697469616C697A61626C653A20636F6E7472616374206973206E6F742069 PUSH1 0x40 DUP3 ADD MSTORE PUSH11 0x6E697469616C697A696E67 PUSH1 0xA8 SHL PUSH1 0x60 DUP3 ADD MSTORE PUSH1 0x80 ADD SWAP1 JUMP JUMPDEST PUSH1 0x0 DUP3 PUSH2 0x2E72 JUMPI PUSH4 0x4E487B71 PUSH1 0xE0 SHL PUSH1 0x0 MSTORE PUSH1 0x12 PUSH1 0x4 MSTORE PUSH1 0x24 PUSH1 0x0 REVERT JUMPDEST POP DIV SWAP1 JUMP JUMPDEST PUSH1 0x0 JUMPDEST DUP4 DUP2 LT ISZERO PUSH2 0x2E92 JUMPI DUP2 DUP2 ADD MLOAD DUP4 DUP3 ADD MSTORE PUSH1 0x20 ADD PUSH2 0x2E7A JUMP JUMPDEST POP POP PUSH1 0x0 SWAP2 ADD MSTORE JUMP JUMPDEST PUSH1 0x0 DUP3 MLOAD PUSH2 0x2EAD DUP2 DUP5 PUSH1 0x20 DUP8 ADD PUSH2 0x2E77 JUMP JUMPDEST SWAP2 SWAP1 SWAP2 ADD SWAP3 SWAP2 POP POP JUMP JUMPDEST PUSH1 0x20 DUP2 MSTORE PUSH1 0x0 DUP3 MLOAD DUP1 PUSH1 0x20 DUP5 ADD MSTORE PUSH2 0x2ED6 DUP2 PUSH1 0x40 DUP6 ADD PUSH1 0x20 DUP8 ADD PUSH2 0x2E77 JUMP JUMPDEST PUSH1 0x1F ADD PUSH1 0x1F NOT AND SWAP2 SWAP1 SWAP2 ADD PUSH1 0x40 ADD SWAP3 SWAP2 POP POP JUMP INVALID CALLDATASIZE ADDMOD SWAP5 LOG1 EXTCODESIZE LOG1 LOG3 0x21 MOD PUSH8 0xC828492DB98DCA3E KECCAK256 PUSH23 0xCC3735A920A3CA505D382BBC416464726573733A206C6F PUSH24 0x2D6C6576656C2064656C65676174652063616C6C20666169 PUSH13 0x6564A264697066735822122044 PUSH5 0xA9E310E0C2 DUP9 0x2B SHL PUSH26 0xFEF51126851A2145F4159CCA0590DEFAD025D6DD3C64736F6C63 NUMBER STOP ADDMOD SLT STOP CALLER "},"methodIdentifiers":{"activeStakersList()":"dba4358c","admins(uint256)":"14bfd6d0","allStakersList()":"c06a5388","claimStakingReward()":"afc695ce","disableAccounts(address[])":"3b09098f","enableAccounts(address[])":"53bdadea","getActiveStakingIDs()":"6f72693b","getDisabledAccountsList()":"260cb4e9","getStakingCappings()":"e3a51f58","getStakingTimeEndTime(address)":"2955f37d","getTotalStakingRewardDistributed()":"7ce574bf","getTotalValueStaked()":"deede654","getUserAllStakingsRewards(address)":"9c3fe28a","getUserStakingIDs(address)":"6f51b20b","getUserTotalRewardClaimedToken(address)":"66e5e570","getUserTotalValueStaked(address)":"5f869714","getUserUnStakeValue(address)":"26ed1af0","initialize()":"8129fc1c","isAccountDisabled(address)":"a40b5891","isStaked(address)":"6177fd18","owner()":"8da5cb5b","pause()":"8456cb59","paused()":"5c975abb","proxiableUUID()":"52d1902d","renounceOwnership()":"715018a6","setStakingDuration(uint256)":"6a8ca691","setStakingRewardClaimTimeLimity(uint256)":"5cbfd021","setStakingRewardRate(uint16)":"f807438f","stakeByAdmin(address,uint256)":"6a50eefa","stakeInfoMap(uint256)":"a7566b75","transferOwnership(address)":"f2fde38b","unStake()":"73cf575a","unpause()":"3f4ba83a","upgradeTo(address)":"3659cfe6","upgradeToAndCall(address,bytes)":"4f1ef286","userAccountMap(address)":"ba4f678e","withdrawNativeFunds(address,uint256)":"26792aca","withdrawTokens(address,address,uint256)":"5e35359e"}},"storageLayout":{"storage":[{"astId":527,"contract":"contracts/FutureSecureWalletUpgradeable.sol:FutureSecureWalletV1Upgradeable","label":"_initialized","offset":0,"slot":"0","type":"t_uint8"},{"astId":530,"contract":"contracts/FutureSecureWalletUpgradeable.sol:FutureSecureWalletV1Upgradeable","label":"_initializing","offset":1,"slot":"0","type":"t_bool"},{"astId":1355,"contract":"contracts/FutureSecureWalletUpgradeable.sol:FutureSecureWalletV1Upgradeable","label":"__gap","offset":0,"slot":"1","type":"t_array(t_uint256)50_storage"},{"astId":846,"contract":"contracts/FutureSecureWalletUpgradeable.sol:FutureSecureWalletV1Upgradeable","label":"_paused","offset":0,"slot":"51","type":"t_bool"},{"astId":951,"contract":"contracts/FutureSecureWalletUpgradeable.sol:FutureSecureWalletV1Upgradeable","label":"__gap","offset":0,"slot":"52","type":"t_array(t_uint256)49_storage"},{"astId":10,"contract":"contracts/FutureSecureWalletUpgradeable.sol:FutureSecureWalletV1Upgradeable","label":"_owner","offset":0,"slot":"101","type":"t_address"},{"astId":130,"contract":"contracts/FutureSecureWalletUpgradeable.sol:FutureSecureWalletV1Upgradeable","label":"__gap","offset":0,"slot":"102","type":"t_array(t_uint256)49_storage"},{"astId":509,"contract":"contracts/FutureSecureWalletUpgradeable.sol:FutureSecureWalletV1Upgradeable","label":"__gap","offset":0,"slot":"151","type":"t_array(t_uint256)50_storage"},{"astId":824,"contract":"contracts/FutureSecureWalletUpgradeable.sol:FutureSecureWalletV1Upgradeable","label":"__gap","offset":0,"slot":"201","type":"t_array(t_uint256)50_storage"},{"astId":1441,"contract":"contracts/FutureSecureWalletUpgradeable.sol:FutureSecureWalletV1Upgradeable","label":"_variablesContract","offset":0,"slot":"251","type":"t_address"},{"astId":1444,"contract":"contracts/FutureSecureWalletUpgradeable.sol:FutureSecureWalletV1Upgradeable","label":"_stakers","offset":0,"slot":"252","type":"t_array(t_address)dyn_storage"},{"astId":1446,"contract":"contracts/FutureSecureWalletUpgradeable.sol:FutureSecureWalletV1Upgradeable","label":"_valueStaked","offset":0,"slot":"253","type":"t_uint256"},{"astId":1448,"contract":"contracts/FutureSecureWalletUpgradeable.sol:FutureSecureWalletV1Upgradeable","label":"_rewardDistributed","offset":0,"slot":"254","type":"t_uint256"},{"astId":1450,"contract":"contracts/FutureSecureWalletUpgradeable.sol:FutureSecureWalletV1Upgradeable","label":"_stakingRewardRate","offset":0,"slot":"255","type":"t_uint16"},{"astId":1452,"contract":"contracts/FutureSecureWalletUpgradeable.sol:FutureSecureWalletV1Upgradeable","label":"_stakingDuration","offset":0,"slot":"256","type":"t_uint256"},{"astId":1454,"contract":"contracts/FutureSecureWalletUpgradeable.sol:FutureSecureWalletV1Upgradeable","label":"_stakingRewardClaimTimeLimit","offset":0,"slot":"257","type":"t_uint256"},{"astId":1457,"contract":"contracts/FutureSecureWalletUpgradeable.sol:FutureSecureWalletV1Upgradeable","label":"admins","offset":0,"slot":"258","type":"t_array(t_address)dyn_storage"},{"astId":1487,"contract":"contracts/FutureSecureWalletUpgradeable.sol:FutureSecureWalletV1Upgradeable","label":"account","offset":0,"slot":"259","type":"t_mapping(t_address,t_struct(Account)1467_storage)"},{"astId":1492,"contract":"contracts/FutureSecureWalletUpgradeable.sol:FutureSecureWalletV1Upgradeable","label":"stakeInfo","offset":0,"slot":"260","type":"t_mapping(t_uint256,t_struct(StakeInfo)1482_storage)"}],"types":{"t_address":{"encoding":"inplace","label":"address","numberOfBytes":"20"},"t_array(t_address)dyn_storage":{"base":"t_address","encoding":"dynamic_array","label":"address[]","numberOfBytes":"32"},"t_array(t_uint256)49_storage":{"base":"t_uint256","encoding":"inplace","label":"uint256[49]","numberOfBytes":"1568"},"t_array(t_uint256)50_storage":{"base":"t_uint256","encoding":"inplace","label":"uint256[50]","numberOfBytes":"1600"},"t_array(t_uint256)dyn_storage":{"base":"t_uint256","encoding":"dynamic_array","label":"uint256[]","numberOfBytes":"32"},"t_bool":{"encoding":"inplace","label":"bool","numberOfBytes":"1"},"t_mapping(t_address,t_struct(Account)1467_storage)":{"encoding":"mapping","key":"t_address","label":"mapping(address => struct FutureSecureWalletV1Upgradeable.Account)","numberOfBytes":"32","value":"t_struct(Account)1467_storage"},"t_mapping(t_uint256,t_struct(StakeInfo)1482_storage)":{"encoding":"mapping","key":"t_uint256","label":"mapping(uint256 => struct FutureSecureWalletV1Upgradeable.StakeInfo)","numberOfBytes":"32","value":"t_struct(StakeInfo)1482_storage"},"t_struct(Account)1467_storage":{"encoding":"inplace","label":"struct FutureSecureWalletV1Upgradeable.Account","members":[{"astId":1460,"contract":"contracts/FutureSecureWalletUpgradeable.sol:FutureSecureWalletV1Upgradeable","label":"stakingIDs","offset":0,"slot":"0","type":"t_array(t_uint256)dyn_storage"},{"astId":1462,"contract":"contracts/FutureSecureWalletUpgradeable.sol:FutureSecureWalletV1Upgradeable","label":"isDisabled","offset":0,"slot":"1","type":"t_bool"},{"astId":1464,"contract":"contracts/FutureSecureWalletUpgradeable.sol:FutureSecureWalletV1Upgradeable","label":"rewardClaimedTimestamp","offset":0,"slot":"2","type":"t_uint256"},{"astId":1466,"contract":"contracts/FutureSecureWalletUpgradeable.sol:FutureSecureWalletV1Upgradeable","label":"rewardClaimed","offset":0,"slot":"3","type":"t_uint256"}],"numberOfBytes":"128"},"t_struct(StakeInfo)1482_storage":{"encoding":"inplace","label":"struct FutureSecureWalletV1Upgradeable.StakeInfo","members":[{"astId":1469,"contract":"contracts/FutureSecureWalletUpgradeable.sol:FutureSecureWalletV1Upgradeable","label":"isStaked","offset":0,"slot":"0","type":"t_bool"},{"astId":1471,"contract":"contracts/FutureSecureWalletUpgradeable.sol:FutureSecureWalletV1Upgradeable","label":"id","offset":1,"slot":"0","type":"t_uint32"},{"astId":1473,"contract":"contracts/FutureSecureWalletUpgradeable.sol:FutureSecureWalletV1Upgradeable","label":"owner","offset":5,"slot":"0","type":"t_address"},{"astId":1475,"contract":"contracts/FutureSecureWalletUpgradeable.sol:FutureSecureWalletV1Upgradeable","label":"value","offset":0,"slot":"1","type":"t_uint256"},{"astId":1477,"contract":"contracts/FutureSecureWalletUpgradeable.sol:FutureSecureWalletV1Upgradeable","label":"rewardRate","offset":0,"slot":"2","type":"t_uint16"},{"astId":1479,"contract":"contracts/FutureSecureWalletUpgradeable.sol:FutureSecureWalletV1Upgradeable","label":"startTime","offset":0,"slot":"3","type":"t_uint256"},{"astId":1481,"contract":"contracts/FutureSecureWalletUpgradeable.sol:FutureSecureWalletV1Upgradeable","label":"duration","offset":0,"slot":"4","type":"t_uint256"}],"numberOfBytes":"160"},"t_uint16":{"encoding":"inplace","label":"uint16","numberOfBytes":"2"},"t_uint256":{"encoding":"inplace","label":"uint256","numberOfBytes":"32"},"t_uint32":{"encoding":"inplace","label":"uint32","numberOfBytes":"4"},"t_uint8":{"encoding":"inplace","label":"uint8","numberOfBytes":"1"}}}}}}