{"contracts/ROIV1Upgradeable.sol":{"ROIV1Upgradeable":{"abi":[{"anonymous":false,"inputs":[{"indexed":false,"internalType":"address","name":"previousAdmin","type":"address"},{"indexed":false,"internalType":"address","name":"newAdmin","type":"address"}],"name":"AdminChanged","type":"event"},{"anonymous":false,"inputs":[{"indexed":true,"internalType":"address","name":"beacon","type":"address"}],"name":"BeaconUpgraded","type":"event"},{"anonymous":false,"inputs":[{"indexed":false,"internalType":"uint8","name":"version","type":"uint8"}],"name":"Initialized","type":"event"},{"anonymous":false,"inputs":[{"indexed":true,"internalType":"address","name":"previousOwner","type":"address"},{"indexed":true,"internalType":"address","name":"newOwner","type":"address"}],"name":"OwnershipTransferred","type":"event"},{"anonymous":false,"inputs":[{"indexed":false,"internalType":"uint32","name":"_owner","type":"uint32"},{"indexed":false,"internalType":"uint32","name":"_roiId","type":"uint32"},{"indexed":false,"internalType":"uint256","name":"_value","type":"uint256"},{"indexed":false,"internalType":"uint16","name":"_rewardRate","type":"uint16"}],"name":"ROIActivated","type":"event"},{"anonymous":false,"inputs":[{"indexed":true,"internalType":"uint256","name":"_owner","type":"uint256"},{"indexed":true,"internalType":"uint256","name":"_rewardRate","type":"uint256"}],"name":"ROIClaimed","type":"event"},{"anonymous":false,"inputs":[{"indexed":false,"internalType":"uint32","name":"_owner","type":"uint32"},{"indexed":false,"internalType":"uint32","name":"_roiId","type":"uint32"}],"name":"ROIDeactivated","type":"event"},{"anonymous":false,"inputs":[{"indexed":true,"internalType":"address","name":"implementation","type":"address"}],"name":"Upgraded","type":"event"},{"inputs":[],"name":"_roiClaimTimelimit","outputs":[{"internalType":"uint256","name":"","type":"uint256"}],"stateMutability":"view","type":"function"},{"inputs":[],"name":"_roiDuration","outputs":[{"internalType":"uint256","name":"","type":"uint256"}],"stateMutability":"view","type":"function"},{"inputs":[],"name":"_roiRate","outputs":[{"internalType":"uint16","name":"","type":"uint16"}],"stateMutability":"view","type":"function"},{"inputs":[{"internalType":"uint32","name":"_ownerId","type":"uint32"},{"internalType":"uint256","name":"_value","type":"uint256"},{"internalType":"uint256","name":"_startTime","type":"uint256"},{"internalType":"uint256","name":"_resetTime","type":"uint256"},{"internalType":"uint256","name":"_duration","type":"uint256"}],"name":"activateROIAdmin","outputs":[{"internalType":"uint32","name":"","type":"uint32"}],"stateMutability":"nonpayable","type":"function"},{"inputs":[{"internalType":"uint32","name":"_id","type":"uint32"}],"name":"claimROI","outputs":[{"internalType":"uint256","name":"","type":"uint256"}],"stateMutability":"nonpayable","type":"function"},{"inputs":[{"internalType":"uint32","name":"_id","type":"uint32"}],"name":"claimROIAdmin","outputs":[{"internalType":"uint256","name":"","type":"uint256"}],"stateMutability":"nonpayable","type":"function"},{"inputs":[],"name":"decimals","outputs":[{"internalType":"uint16","name":"","type":"uint16"}],"stateMutability":"view","type":"function"},{"inputs":[{"internalType":"uint32","name":"_roiID","type":"uint32"}],"name":"getROIAccount","outputs":[{"components":[{"internalType":"uint32","name":"id","type":"uint32"},{"internalType":"uint32","name":"ownerId","type":"uint32"},{"internalType":"uint256","name":"value","type":"uint256"},{"internalType":"uint16","name":"roiRate","type":"uint16"},{"internalType":"uint256","name":"startTime","type":"uint256"},{"internalType":"uint256","name":"resetTime","type":"uint256"},{"internalType":"uint256","name":"endTime","type":"uint256"}],"internalType":"struct ROIV1Upgradeable.StructROI","name":"","type":"tuple"}],"stateMutability":"view","type":"function"},{"inputs":[{"internalType":"uint32","name":"_id","type":"uint32"}],"name":"getUserIDTotalROI","outputs":[{"internalType":"uint256","name":"","type":"uint256"}],"stateMutability":"view","type":"function"},{"inputs":[{"internalType":"uint32","name":"_id","type":"uint32"}],"name":"getUserTotalActiveROIValue","outputs":[{"internalType":"uint256","name":"roiTotalValue","type":"uint256"}],"stateMutability":"view","type":"function"},{"inputs":[],"name":"initialize","outputs":[],"stateMutability":"nonpayable","type":"function"},{"inputs":[],"name":"isPayROI","outputs":[{"internalType":"bool","name":"","type":"bool"}],"stateMutability":"view","type":"function"},{"inputs":[{"internalType":"uint32","name":"_roiId","type":"uint32"}],"name":"isROIActive","outputs":[{"internalType":"bool","name":"","type":"bool"}],"stateMutability":"view","type":"function"},{"inputs":[],"name":"owner","outputs":[{"internalType":"address","name":"","type":"address"}],"stateMutability":"view","type":"function"},{"inputs":[],"name":"proxiableUUID","outputs":[{"internalType":"bytes32","name":"","type":"bytes32"}],"stateMutability":"view","type":"function"},{"inputs":[],"name":"renounceOwnership","outputs":[],"stateMutability":"nonpayable","type":"function"},{"inputs":[{"internalType":"address","name":"_address","type":"address"},{"internalType":"uint256","name":"_value","type":"uint256"}],"name":"sendETHAdmin","outputs":[],"stateMutability":"nonpayable","type":"function"},{"inputs":[{"internalType":"uint16","name":"_roiRateInDecimals","type":"uint16"},{"internalType":"uint256","name":"_durationInDays","type":"uint256"},{"internalType":"uint256","name":"_roiClaimTimelimitInSeconds","type":"uint256"}],"name":"setROIAdmin","outputs":[],"stateMutability":"nonpayable","type":"function"},{"inputs":[{"internalType":"uint32","name":"_count","type":"uint32"}],"name":"setROIIDCount","outputs":[],"stateMutability":"nonpayable","type":"function"},{"inputs":[],"name":"totalROIIDs","outputs":[{"internalType":"uint32","name":"","type":"uint32"}],"stateMutability":"view","type":"function"},{"inputs":[],"name":"totalROIPaid","outputs":[{"internalType":"uint256","name":"","type":"uint256"}],"stateMutability":"view","type":"function"},{"inputs":[],"name":"totalROIValue","outputs":[{"internalType":"uint256","name":"","type":"uint256"}],"stateMutability":"view","type":"function"},{"inputs":[{"internalType":"address","name":"newOwner","type":"address"}],"name":"transferOwnership","outputs":[],"stateMutability":"nonpayable","type":"function"},{"inputs":[{"internalType":"address","name":"newImplementation","type":"address"}],"name":"upgradeTo","outputs":[],"stateMutability":"nonpayable","type":"function"},{"inputs":[{"internalType":"address","name":"newImplementation","type":"address"},{"internalType":"bytes","name":"data","type":"bytes"}],"name":"upgradeToAndCall","outputs":[],"stateMutability":"payable","type":"function"},{"inputs":[],"name":"withdrawETHAdmin","outputs":[],"stateMutability":"nonpayable","type":"function"},{"inputs":[{"internalType":"address","name":"_tokenAddress","type":"address"},{"internalType":"uint256","name":"_value","type":"uint256"}],"name":"withdrawTokensAdmin","outputs":[],"stateMutability":"nonpayable","type":"function"},{"stateMutability":"payable","type":"receive"}],"evm":{"bytecode":{"linkReferences":{},"object":"60a06040523060805234801561001457600080fd5b5060805161292161004c600039600081816105e20152818161062b015281816106c701528181610707015261079a01526129216000f3fe6080604052600436106101a05760003560e01c806381b0e086116100ec578063bf46de631161008a578063d895af2c11610064578063d895af2c146104e8578063ea62f71514610508578063eaec636414610528578063f2fde38b1461053e57600080fd5b8063bf46de6314610424578063c3ab5ebf14610444578063d275f14e146104c857600080fd5b8063a0b6105f116100c6578063a0b6105f14610390578063a1b80175146103b0578063abab358f146103e9578063af2f39d11461040a57600080fd5b806381b0e086146103325780638da5cb5b146103485780639a9e3c421461037057600080fd5b806352d1902d11610159578063715018a611610133578063715018a6146102d2578063770ceeb1146102e75780637e09c75e146103075780638129fc1c1461031d57600080fd5b806352d1902d1461026d578063536c3c6b1461028257806355332a85146102a257600080fd5b80630b243dad146101ac57806330abbcc5146101ce578063313ce567146101f757806335759788146102255780633659cfe61461023a5780634f1ef2861461025a57600080fd5b366101a757005b600080fd5b3480156101b857600080fd5b506101cc6101c7366004611f70565b61055e565b005b3480156101da57600080fd5b506101e460ca5481565b6040519081526020015b60405180910390f35b34801561020357600080fd5b5060cc546102129061ffff1681565b60405161ffff90911681526020016101ee565b34801561023157600080fd5b506101cc6105a1565b34801561024657600080fd5b506101cc610255366004611f9c565b6105d8565b6101cc610268366004612052565b6106bd565b34801561027957600080fd5b506101e461078d565b34801561028e57600080fd5b506101e461029d3660046120f7565b610840565b3480156102ae57600080fd5b506102c26102bd3660046120f7565b6109bf565b60405190151581526020016101ee565b3480156102de57600080fd5b506101cc6109d0565b3480156102f357600080fd5b506101e46103023660046120f7565b6109e4565b34801561031357600080fd5b506101e460ce5481565b34801561032957600080fd5b506101cc610c09565b34801561033e57600080fd5b506101e460cd5481565b34801561035457600080fd5b506033546040516001600160a01b0390911681526020016101ee565b34801561037c57600080fd5b506101cc61038b366004612114565b610d6a565b34801561039c57600080fd5b506101cc6103ab366004611f70565b610e21565b3480156103bc57600080fd5b5060c9546103d490600160a01b900463ffffffff1681565b60405163ffffffff90911681526020016101ee565b3480156103f557600080fd5b5060cc546102129062010000900461ffff1681565b34801561041657600080fd5b5060cf546102c29060ff1681565b34801561043057600080fd5b506101e461043f3660046120f7565b610e9a565b34801561045057600080fd5b5061046461045f3660046120f7565b610ea6565b6040516101ee9190600060e08201905063ffffffff808451168352806020850151166020840152506040830151604083015261ffff60608401511660608301526080830151608083015260a083015160a083015260c083015160c083015292915050565b3480156104d457600080fd5b506103d46104e3366004612150565b610f6c565b3480156104f457600080fd5b506101cc6105033660046120f7565b61100c565b34801561051457600080fd5b506101e46105233660046120f7565b6110ba565b34801561053457600080fd5b506101e460cb5481565b34801561054a57600080fd5b506101cc610559366004611f9c565b61129f565b610566611315565b6040516001600160a01b0383169082156108fc029083906000818181858888f1935050505015801561059c573d6000803e3d6000fd5b505050565b6105a9611315565b60405133904780156108fc02916000818181858888f193505050501580156105d5573d6000803e3d6000fd5b50565b6001600160a01b037f00000000000000000000000000000000000000000000000000000000000000001630036106295760405162461bcd60e51b815260040161062090612194565b60405180910390fd5b7f00000000000000000000000000000000000000000000000000000000000000006001600160a01b03166106726000805160206128a5833981519152546001600160a01b031690565b6001600160a01b0316146106985760405162461bcd60e51b8152600401610620906121e0565b6106a18161136f565b604080516000808252602082019092526105d591839190611377565b6001600160a01b037f00000000000000000000000000000000000000000000000000000000000000001630036107055760405162461bcd60e51b815260040161062090612194565b7f00000000000000000000000000000000000000000000000000000000000000006001600160a01b031661074e6000805160206128a5833981519152546001600160a01b031690565b6001600160a01b0316146107745760405162461bcd60e51b8152600401610620906121e0565b61077d8261136f565b61078982826001611377565b5050565b6000306001600160a01b037f0000000000000000000000000000000000000000000000000000000000000000161461082d5760405162461bcd60e51b815260206004820152603860248201527f555550535570677261646561626c653a206d757374206e6f742062652063616c60448201527f6c6564207468726f7567682064656c656761746563616c6c00000000000000006064820152608401610620565b506000805160206128a583398151915290565b60c954604051630935e01b60e21b81523360048201526000916001600160a01b0316906324d7806c90602401602060405180830381865afa158015610889573d6000803e3d6000fd5b505050506040513d601f19601f820116820180604052508101906108ad919061223c565b6108c95760405162461bcd60e51b815260040161062090612257565b60c9546040805163011a216360e51b815290516000926001600160a01b0316916323442c609160048083019260209291908290030181865afa158015610913573d6000803e3d6000fd5b505050506040513d601f19601f8201168201806040525081019061093791906122a7565b604051632100978960e01b815263ffffffff851660048201526001600160a01b039190911690632100978990602401600060405180830381865afa158015610983573d6000803e3d6000fd5b505050506040513d6000823e601f3d908101601f191682016040526109ab919081019061243f565b90506109b6816114e2565b9150505b919050565b60006109ca826117d1565b92915050565b6109d8611315565b6109e2600061185d565b565b60008060c960009054906101000a90046001600160a01b03166001600160a01b03166323442c606040518163ffffffff1660e01b8152600401602060405180830381865afa158015610a3a573d6000803e3d6000fd5b505050506040513d601f19601f82011682018060405250810190610a5e91906122a7565b604051632100978960e01b815263ffffffff851660048201526001600160a01b039190911690632100978990602401600060405180830381865afa158015610aaa573d6000803e3d6000fd5b505050506040513d6000823e601f3d908101601f19168201604052610ad2919081019061243f565b905080608001516001600160a01b0316336001600160a01b031614610b395760405162461bcd60e51b815260206004820152601d60248201527f596f7520617265206e6f74206f776e6572206f6620746869732069642e0000006044820152606401610620565b60ce54816103c00151610b4c919061271e565b421015610bad5760405162461bcd60e51b815260206004820152602960248201527f596f757220726f6920636c61696d2074696d656c696d6974206973206e6f742060448201526837bb32b9103cb2ba1760b91b6064820152608401610620565b80610420015115610c005760405162461bcd60e51b815260206004820152601960248201527f4163636f756e742064697361626c65642062792061646d696e000000000000006044820152606401610620565b6109b6816114e2565b600054610100900460ff1615808015610c295750600054600160ff909116105b80610c435750303b158015610c43575060005460ff166001145b610ca65760405162461bcd60e51b815260206004820152602e60248201527f496e697469616c697a61626c653a20636f6e747261637420697320616c72656160448201526d191e481a5b9a5d1a585b1a5e995960921b6064820152608401610620565b6000805460ff191660011790558015610cc9576000805461ff0019166101001790555b60c980546001600160a01b031916730b8bf5feb9fca57d9c5d27185ddf3017e99a2d3617905560cc8054620503e863ffffffff199091161790556201518060ce5563020f580060cd55610d1a6118af565b610d226118de565b80156105d5576000805461ff0019169055604051600181527f7f26b83ff96e1f2b6a682f133852f6798a09c465da95921460cefb38474024989060200160405180910390a150565b60c954604051630935e01b60e21b81523360048201526001600160a01b03909116906324d7806c90602401602060405180830381865afa158015610db2573d6000803e3d6000fd5b505050506040513d601f19601f82011682018060405250810190610dd6919061223c565b610df25760405162461bcd60e51b815260040161062090612257565b60cc805463ffff000019166201000061ffff861602179055610e178262015180612731565b60cd5560ce555050565b610e29611315565b60405163a9059cbb60e01b8152336004820152602481018290526001600160a01b0383169063a9059cbb906044016020604051808303816000875af1158015610e76573d6000803e3d6000fd5b505050506040513d601f19601f8201168201806040525081019061059c919061223c565b60006109ca8242611905565b610ef66040518060e00160405280600063ffffffff168152602001600063ffffffff16815260200160008152602001600061ffff1681526020016000815260200160008152602001600081525090565b5063ffffffff908116600090815260d06020908152604091829020825160e08101845281548086168252640100000000900490941691840191909152600181015491830191909152600281015461ffff16606083015260038101546080830152600481015460a08301526005015460c082015290565b60c954604051630935e01b60e21b81523360048201526000916001600160a01b0316906324d7806c90602401602060405180830381865afa158015610fb5573d6000803e3d6000fd5b505050506040513d601f19601f82011682018060405250810190610fd9919061223c565b610ff55760405162461bcd60e51b815260040161062090612257565b6110028686868686611b38565b9695505050505050565b60c954604051630935e01b60e21b81523360048201526001600160a01b03909116906324d7806c90602401602060405180830381865afa158015611054573d6000803e3d6000fd5b505050506040513d601f19601f82011682018060405250810190611078919061223c565b6110945760405162461bcd60e51b815260040161062090612257565b60c9805463ffffffff909216600160a01b0263ffffffff60a01b19909216919091179055565b60008060c960009054906101000a90046001600160a01b03166001600160a01b03166323442c606040518163ffffffff1660e01b8152600401602060405180830381865afa158015611110573d6000803e3d6000fd5b505050506040513d601f19601f8201168201806040525081019061113491906122a7565b604051632100978960e01b815263ffffffff851660048201526001600160a01b039190911690632100978990602401600060405180830381865afa158015611180573d6000803e3d6000fd5b505050506040513d6000823e601f3d908101601f191682016040526111a8919081019061243f565b61038081015180516102e083015192935090916111c6906002612731565b836102c001511080156111d95750600081115b80156111e85750826104200151155b156112925760005b818161ffff16101561128c57600060d06000858461ffff168151811061121857611218612748565b602002602001015163ffffffff1663ffffffff1681526020019081526020016000209050611262848361ffff168151811061125557611255612748565b60200260200101516117d1565b15611279576001810154611276908761271e565b95505b50806112848161275e565b9150506111f0565b50611297565b600093505b505050919050565b6112a7611315565b6001600160a01b03811661130c5760405162461bcd60e51b815260206004820152602660248201527f4f776e61626c653a206e6577206f776e657220697320746865207a65726f206160448201526564647265737360d01b6064820152608401610620565b6105d58161185d565b6033546001600160a01b031633146109e25760405162461bcd60e51b815260206004820181905260248201527f4f776e61626c653a2063616c6c6572206973206e6f7420746865206f776e65726044820152606401610620565b6105d5611315565b7f4910fdfa16fed3260ed0e7147f7cc6da11a60208b5b9406d12a635614ffd91435460ff16156113aa5761059c83611c4f565b826001600160a01b03166352d1902d6040518163ffffffff1660e01b8152600401602060405180830381865afa925050508015611404575060408051601f3d908101601f191682019092526114019181019061277f565b60015b6114675760405162461bcd60e51b815260206004820152602e60248201527f45524331393637557067726164653a206e657720696d706c656d656e7461746960448201526d6f6e206973206e6f74205555505360901b6064820152608401610620565b6000805160206128a583398151915281146114d65760405162461bcd60e51b815260206004820152602960248201527f45524331393637557067726164653a20756e737570706f727465642070726f786044820152681a58589b195555525160ba1b6064820152608401610620565b5061059c838383611ceb565b8051600090429082906114f59083611905565b9050836102e0015160026115099190612731565b846102c001511115801561153c57506102e0840151611529906002612731565b81856102c0015161153a919061271e565b105b15611561578092508260ca6000828254611556919061271e565b909155506115bf9050565b6102e0840151611572906002612731565b846102c00151116115bf576000846102c00151856102e0015160026115979190612731565b6115a19190612798565b90508093508060ca60008282546115b8919061271e565b9091555050505b82156117c05760c960009054906101000a90046001600160a01b03166001600160a01b03166323442c606040518163ffffffff1660e01b8152600401602060405180830381865afa158015611618573d6000803e3d6000fd5b505050506040513d601f19601f8201168201806040525081019061163c91906122a7565b845160405163284eb62960e11b815263ffffffff9091166004820152602481018590526001600160a01b03919091169063509d6c5290604401600060405180830381600087803b15801561168f57600080fd5b505af11580156116a3573d6000803e3d6000fd5b5050505060c960009054906101000a90046001600160a01b03166001600160a01b03166323442c606040518163ffffffff1660e01b8152600401602060405180830381865afa1580156116fa573d6000803e3d6000fd5b505050506040513d601f19601f8201168201806040525081019061171e91906122a7565b845160405163498b3e5560e01b81526004810186905263ffffffff90911660248201526001600160a01b03919091169063498b3e5590604401600060405180830381600087803b15801561177157600080fd5b505af1158015611785573d6000803e3d6000fd5b5050855160405186935063ffffffff90911691507f7cd8783637a6bf8d3b4b69973a28720cfb0f5abc55d8b85dde1732d8f22c0efc90600090a35b6117ca8483611d16565b5050919050565b63ffffffff808216600090815260d060209081526040808320815160e08101835281548087168252640100000000900490951692850192909252600182015490840152600281015461ffff16606084015260038101546080840152600481015460a08401526005015460c083018190529091904210156118545750600192915050565b50600092915050565b603380546001600160a01b038381166001600160a01b0319831681179093556040519116919082907f8be0079c531659141344cd1fd0a4f28419497f9722a3daafe3b4186f6b6457e090600090a35050565b600054610100900460ff166118d65760405162461bcd60e51b8152600401610620906127ab565b6109e2611dad565b600054610100900460ff166109e25760405162461bcd60e51b8152600401610620906127ab565b60008060c960009054906101000a90046001600160a01b03166001600160a01b03166323442c606040518163ffffffff1660e01b8152600401602060405180830381865afa15801561195b573d6000803e3d6000fd5b505050506040513d601f19601f8201168201806040525081019061197f91906122a7565b604051632100978960e01b815263ffffffff861660048201526001600160a01b039190911690632100978990602401600060405180830381865afa1580156119cb573d6000803e3d6000fd5b505050506040513d6000823e601f3d908101601f191682016040526119f3919081019061243f565b61038081015180516102e08301519293509091611a11906002612731565b836102c00151108015611a245750600081115b8015611a335750826104200151155b15611b2a5760005b818161ffff161015611b2457600060d06000858461ffff1681518110611a6357611a63612748565b602002602001015163ffffffff1663ffffffff1681526020019081526020016000209050611aa0848361ffff168151811061125557611255612748565b15611b115760cc54600182015460009161ffff80821692611aca9262010000900490911690612731565b611ad491906127f6565b90506000826004015489611ae89190612798565b905062015180611af88284612731565b611b0291906127f6565b611b0c908961271e565b975050505b5080611b1c8161275e565b915050611a3b565b50611b2f565b600093505b50505092915050565b60c980546000918291600160a01b900463ffffffff16906014611b5a83612818565b91906101000a81548163ffffffff021916908363ffffffff1602179055509050600060d06000836001611b8d9190612831565b63ffffffff16815260208101919091526040016000209050611bb0826001612831565b815463ffffffff8a81166401000000000267ffffffffffffffff199092169216919091171781556001810187905560cc5460028201805461ffff191661ffff62010000909304929092169190911790556003810186905560048101859055611c18848761271e565b81600501819055508660cb6000828254611c32919061271e565b90915550611c439050826001612831565b98975050505050505050565b6001600160a01b0381163b611cbc5760405162461bcd60e51b815260206004820152602d60248201527f455243313936373a206e657720696d706c656d656e746174696f6e206973206e60448201526c1bdd08184818dbdb9d1c9858dd609a1b6064820152608401610620565b6000805160206128a583398151915280546001600160a01b0319166001600160a01b0392909216919091179055565b611cf483611ddd565b600082511180611d015750805b1561059c57611d108383611e1d565b50505050565b610380820151805160005b818161ffff161015611da657600060d06000858461ffff1681518110611d4957611d49612748565b602002602001015163ffffffff1663ffffffff1681526020019081526020016000209050611d86848361ffff168151811061125557611255612748565b15611d9357600481018590555b5080611d9e8161275e565b915050611d21565b5050505050565b600054610100900460ff16611dd45760405162461bcd60e51b8152600401610620906127ab565b6109e23361185d565b611de681611c4f565b6040516001600160a01b038216907fbc7cd75a20ee27fd9adebab32041f755214dbc6bffa90cc0225b39da2e5c2d3b90600090a250565b60606001600160a01b0383163b611e855760405162461bcd60e51b815260206004820152602660248201527f416464726573733a2064656c65676174652063616c6c20746f206e6f6e2d636f6044820152651b9d1c9858dd60d21b6064820152608401610620565b600080846001600160a01b031684604051611ea09190612855565b600060405180830381855af49150503d8060008114611edb576040519150601f19603f3d011682016040523d82523d6000602084013e611ee0565b606091505b5091509150611f0882826040518060600160405280602781526020016128c560279139611f11565b95945050505050565b60608315611f20575081611f2a565b611f2a8383611f31565b9392505050565b815115611f415781518083602001fd5b8060405162461bcd60e51b81526004016106209190612871565b6001600160a01b03811681146105d557600080fd5b60008060408385031215611f8357600080fd5b8235611f8e81611f5b565b946020939093013593505050565b600060208284031215611fae57600080fd5b8135611f2a81611f5b565b634e487b7160e01b600052604160045260246000fd5b604051610480810167ffffffffffffffff81118282101715611ff357611ff3611fb9565b60405290565b604051601f8201601f1916810167ffffffffffffffff8111828210171561202257612022611fb9565b604052919050565b600067ffffffffffffffff82111561204457612044611fb9565b50601f01601f191660200190565b6000806040838503121561206557600080fd5b823561207081611f5b565b9150602083013567ffffffffffffffff81111561208c57600080fd5b8301601f8101851361209d57600080fd5b80356120b06120ab8261202a565b611ff9565b8181528660208385010111156120c557600080fd5b816020840160208301376000602083830101528093505050509250929050565b63ffffffff811681146105d557600080fd5b60006020828403121561210957600080fd5b8135611f2a816120e5565b60008060006060848603121561212957600080fd5b833561ffff8116811461213b57600080fd5b95602085013595506040909401359392505050565b600080600080600060a0868803121561216857600080fd5b8535612173816120e5565b97602087013597506040870135966060810135965060800135945092505050565b6020808252602c908201527f46756e6374696f6e206d7573742062652063616c6c6564207468726f7567682060408201526b19195b1959d85d1958d85b1b60a21b606082015260800190565b6020808252602c908201527f46756e6374696f6e206d7573742062652063616c6c6564207468726f7567682060408201526b6163746976652070726f787960a01b606082015260800190565b805180151581146109ba57600080fd5b60006020828403121561224e57600080fd5b611f2a8261222c565b60208082526025908201527f4f6e6c792041646d696e2063616e2061636365737320746869732066756e637460408201526434b7b7171760d91b606082015260800190565b80516109ba81611f5b565b6000602082840312156122b957600080fd5b8151611f2a81611f5b565b80516109ba816120e5565b60005b838110156122ea5781810151838201526020016122d2565b50506000910152565b600082601f83011261230457600080fd5b81516123126120ab8261202a565b81815284602083860101111561232757600080fd5b6123388260208301602087016122cf565b949350505050565b600067ffffffffffffffff82111561235a5761235a611fb9565b5060051b60200190565b600082601f83011261237557600080fd5b815160206123856120ab83612340565b82815260059290921b840181019181810190868411156123a457600080fd5b8286015b848110156123c85780516123bb816120e5565b83529183019183016123a8565b509695505050505050565b600082601f8301126123e457600080fd5b815160206123f46120ab83612340565b82815260059290921b8401810191818101908684111561241357600080fd5b8286015b848110156123c85780518352918301918301612417565b805160ff811681146109ba57600080fd5b60006020828403121561245157600080fd5b815167ffffffffffffffff8082111561246957600080fd5b90830190610480828603121561247e57600080fd5b612486611fcf565b61248f836122c4565b81526020830151828111156124a357600080fd5b6124af878286016122f3565b602083015250604083015160408201526124cb6060840161222c565b60608201526124dc6080840161229c565b60808201526124ed60a084016122c4565b60a08201526124fe60c0840161222c565b60c082015260e08301518281111561251557600080fd5b61252187828601612364565b60e083015250610100808401518381111561253b57600080fd5b61254788828701612364565b828401525050610120808401518381111561256157600080fd5b61256d88828701612364565b828401525050610140808401518381111561258757600080fd5b612593888287016123d3565b9183019190915250610160838101519082015261018080840151908201526101a080840151908201526101c080840151908201526101e0808401519082015261020080840151908201526102208084015190820152610240808401519082015261026061260181850161242e565b908201526102806126138482016122c4565b908201526102a083810151908201526102c080840151908201526102e080840151908201526103008084015190820152610320808401519082015261034080840151908201526103608084015190820152610380808401518381111561267857600080fd5b61268488828701612364565b91830191909152506103a083810151908201526103c080840151908201526103e0808401519082015261040091506126bd82840161222c565b8282015261042091506126d182840161222c565b8282015261044091506126e582840161222c565b8282015261046091506126f982840161222c565b91810191909152949350505050565b634e487b7160e01b600052601160045260246000fd5b808201808211156109ca576109ca612708565b80820281158282048414176109ca576109ca612708565b634e487b7160e01b600052603260045260246000fd5b600061ffff80831681810361277557612775612708565b6001019392505050565b60006020828403121561279157600080fd5b5051919050565b818103818111156109ca576109ca612708565b6020808252602b908201527f496e697469616c697a61626c653a20636f6e7472616374206973206e6f74206960408201526a6e697469616c697a696e6760a81b606082015260800190565b60008261281357634e487b7160e01b600052601260045260246000fd5b500490565b600063ffffffff80831681810361277557612775612708565b63ffffffff81811683821601908082111561284e5761284e612708565b5092915050565b600082516128678184602087016122cf565b9190910192915050565b60208152600082518060208401526128908160408501602087016122cf565b601f01601f1916919091016040019291505056fe360894a13ba1a3210667c828492db98dca3e2076cc3735a920a3ca505d382bbc416464726573733a206c6f772d6c6576656c2064656c65676174652063616c6c206661696c6564a2646970667358221220971d03c1e7fe9d229dc02d1ceb162538d26f3b2bd7fb7b222458341580977be264736f6c63430008120033","opcodes":"PUSH1 0xA0 PUSH1 0x40 MSTORE ADDRESS PUSH1 0x80 MSTORE CALLVALUE DUP1 ISZERO PUSH2 0x14 JUMPI PUSH1 0x0 DUP1 REVERT JUMPDEST POP PUSH1 0x80 MLOAD PUSH2 0x2921 PUSH2 0x4C PUSH1 0x0 CODECOPY PUSH1 0x0 DUP2 DUP2 PUSH2 0x5E2 ADD MSTORE DUP2 DUP2 PUSH2 0x62B ADD MSTORE DUP2 DUP2 PUSH2 0x6C7 ADD MSTORE DUP2 DUP2 PUSH2 0x707 ADD MSTORE PUSH2 0x79A ADD MSTORE PUSH2 0x2921 PUSH1 0x0 RETURN INVALID PUSH1 0x80 PUSH1 0x40 MSTORE PUSH1 0x4 CALLDATASIZE LT PUSH2 0x1A0 JUMPI PUSH1 0x0 CALLDATALOAD PUSH1 0xE0 SHR DUP1 PUSH4 0x81B0E086 GT PUSH2 0xEC JUMPI DUP1 PUSH4 0xBF46DE63 GT PUSH2 0x8A JUMPI DUP1 PUSH4 0xD895AF2C GT PUSH2 0x64 JUMPI DUP1 PUSH4 0xD895AF2C EQ PUSH2 0x4E8 JUMPI DUP1 PUSH4 0xEA62F715 EQ PUSH2 0x508 JUMPI DUP1 PUSH4 0xEAEC6364 EQ PUSH2 0x528 JUMPI DUP1 PUSH4 0xF2FDE38B EQ PUSH2 0x53E JUMPI PUSH1 0x0 DUP1 REVERT JUMPDEST DUP1 PUSH4 0xBF46DE63 EQ PUSH2 0x424 JUMPI DUP1 PUSH4 0xC3AB5EBF EQ PUSH2 0x444 JUMPI DUP1 PUSH4 0xD275F14E EQ PUSH2 0x4C8 JUMPI PUSH1 0x0 DUP1 REVERT JUMPDEST DUP1 PUSH4 0xA0B6105F GT PUSH2 0xC6 JUMPI DUP1 PUSH4 0xA0B6105F EQ PUSH2 0x390 JUMPI DUP1 PUSH4 0xA1B80175 EQ PUSH2 0x3B0 JUMPI DUP1 PUSH4 0xABAB358F EQ PUSH2 0x3E9 JUMPI DUP1 PUSH4 0xAF2F39D1 EQ PUSH2 0x40A JUMPI PUSH1 0x0 DUP1 REVERT JUMPDEST DUP1 PUSH4 0x81B0E086 EQ PUSH2 0x332 JUMPI DUP1 PUSH4 0x8DA5CB5B EQ PUSH2 0x348 JUMPI DUP1 PUSH4 0x9A9E3C42 EQ PUSH2 0x370 JUMPI PUSH1 0x0 DUP1 REVERT JUMPDEST DUP1 PUSH4 0x52D1902D GT PUSH2 0x159 JUMPI DUP1 PUSH4 0x715018A6 GT PUSH2 0x133 JUMPI DUP1 PUSH4 0x715018A6 EQ PUSH2 0x2D2 JUMPI DUP1 PUSH4 0x770CEEB1 EQ PUSH2 0x2E7 JUMPI DUP1 PUSH4 0x7E09C75E EQ PUSH2 0x307 JUMPI DUP1 PUSH4 0x8129FC1C EQ PUSH2 0x31D JUMPI PUSH1 0x0 DUP1 REVERT JUMPDEST DUP1 PUSH4 0x52D1902D EQ PUSH2 0x26D JUMPI DUP1 PUSH4 0x536C3C6B EQ PUSH2 0x282 JUMPI DUP1 PUSH4 0x55332A85 EQ PUSH2 0x2A2 JUMPI PUSH1 0x0 DUP1 REVERT JUMPDEST DUP1 PUSH4 0xB243DAD EQ PUSH2 0x1AC JUMPI DUP1 PUSH4 0x30ABBCC5 EQ PUSH2 0x1CE JUMPI DUP1 PUSH4 0x313CE567 EQ PUSH2 0x1F7 JUMPI DUP1 PUSH4 0x35759788 EQ PUSH2 0x225 JUMPI DUP1 PUSH4 0x3659CFE6 EQ PUSH2 0x23A JUMPI DUP1 PUSH4 0x4F1EF286 EQ PUSH2 0x25A JUMPI PUSH1 0x0 DUP1 REVERT JUMPDEST CALLDATASIZE PUSH2 0x1A7 JUMPI STOP JUMPDEST PUSH1 0x0 DUP1 REVERT JUMPDEST CALLVALUE DUP1 ISZERO PUSH2 0x1B8 JUMPI PUSH1 0x0 DUP1 REVERT JUMPDEST POP PUSH2 0x1CC PUSH2 0x1C7 CALLDATASIZE PUSH1 0x4 PUSH2 0x1F70 JUMP JUMPDEST PUSH2 0x55E JUMP JUMPDEST STOP JUMPDEST CALLVALUE DUP1 ISZERO PUSH2 0x1DA JUMPI PUSH1 0x0 DUP1 REVERT JUMPDEST POP PUSH2 0x1E4 PUSH1 0xCA SLOAD DUP2 JUMP JUMPDEST PUSH1 0x40 MLOAD SWAP1 DUP2 MSTORE PUSH1 0x20 ADD JUMPDEST PUSH1 0x40 MLOAD DUP1 SWAP2 SUB SWAP1 RETURN JUMPDEST CALLVALUE DUP1 ISZERO PUSH2 0x203 JUMPI PUSH1 0x0 DUP1 REVERT JUMPDEST POP PUSH1 0xCC SLOAD PUSH2 0x212 SWAP1 PUSH2 0xFFFF AND DUP2 JUMP JUMPDEST PUSH1 0x40 MLOAD PUSH2 0xFFFF SWAP1 SWAP2 AND DUP2 MSTORE PUSH1 0x20 ADD PUSH2 0x1EE JUMP JUMPDEST CALLVALUE DUP1 ISZERO PUSH2 0x231 JUMPI PUSH1 0x0 DUP1 REVERT JUMPDEST POP PUSH2 0x1CC PUSH2 0x5A1 JUMP JUMPDEST CALLVALUE DUP1 ISZERO PUSH2 0x246 JUMPI PUSH1 0x0 DUP1 REVERT JUMPDEST POP PUSH2 0x1CC PUSH2 0x255 CALLDATASIZE PUSH1 0x4 PUSH2 0x1F9C JUMP JUMPDEST PUSH2 0x5D8 JUMP JUMPDEST PUSH2 0x1CC PUSH2 0x268 CALLDATASIZE PUSH1 0x4 PUSH2 0x2052 JUMP JUMPDEST PUSH2 0x6BD JUMP JUMPDEST CALLVALUE DUP1 ISZERO PUSH2 0x279 JUMPI PUSH1 0x0 DUP1 REVERT JUMPDEST POP PUSH2 0x1E4 PUSH2 0x78D JUMP JUMPDEST CALLVALUE DUP1 ISZERO PUSH2 0x28E JUMPI PUSH1 0x0 DUP1 REVERT JUMPDEST POP PUSH2 0x1E4 PUSH2 0x29D CALLDATASIZE PUSH1 0x4 PUSH2 0x20F7 JUMP JUMPDEST PUSH2 0x840 JUMP JUMPDEST CALLVALUE DUP1 ISZERO PUSH2 0x2AE JUMPI PUSH1 0x0 DUP1 REVERT JUMPDEST POP PUSH2 0x2C2 PUSH2 0x2BD CALLDATASIZE PUSH1 0x4 PUSH2 0x20F7 JUMP JUMPDEST PUSH2 0x9BF JUMP JUMPDEST PUSH1 0x40 MLOAD SWAP1 ISZERO ISZERO DUP2 MSTORE PUSH1 0x20 ADD PUSH2 0x1EE JUMP JUMPDEST CALLVALUE DUP1 ISZERO PUSH2 0x2DE JUMPI PUSH1 0x0 DUP1 REVERT JUMPDEST POP PUSH2 0x1CC PUSH2 0x9D0 JUMP JUMPDEST CALLVALUE DUP1 ISZERO PUSH2 0x2F3 JUMPI PUSH1 0x0 DUP1 REVERT JUMPDEST POP PUSH2 0x1E4 PUSH2 0x302 CALLDATASIZE PUSH1 0x4 PUSH2 0x20F7 JUMP JUMPDEST PUSH2 0x9E4 JUMP JUMPDEST CALLVALUE DUP1 ISZERO PUSH2 0x313 JUMPI PUSH1 0x0 DUP1 REVERT JUMPDEST POP PUSH2 0x1E4 PUSH1 0xCE SLOAD DUP2 JUMP JUMPDEST CALLVALUE DUP1 ISZERO PUSH2 0x329 JUMPI PUSH1 0x0 DUP1 REVERT JUMPDEST POP PUSH2 0x1CC PUSH2 0xC09 JUMP JUMPDEST CALLVALUE DUP1 ISZERO PUSH2 0x33E JUMPI PUSH1 0x0 DUP1 REVERT JUMPDEST POP PUSH2 0x1E4 PUSH1 0xCD SLOAD DUP2 JUMP JUMPDEST CALLVALUE DUP1 ISZERO PUSH2 0x354 JUMPI PUSH1 0x0 DUP1 REVERT JUMPDEST POP PUSH1 0x33 SLOAD PUSH1 0x40 MLOAD PUSH1 0x1 PUSH1 0x1 PUSH1 0xA0 SHL SUB SWAP1 SWAP2 AND DUP2 MSTORE PUSH1 0x20 ADD PUSH2 0x1EE JUMP JUMPDEST CALLVALUE DUP1 ISZERO PUSH2 0x37C JUMPI PUSH1 0x0 DUP1 REVERT JUMPDEST POP PUSH2 0x1CC PUSH2 0x38B CALLDATASIZE PUSH1 0x4 PUSH2 0x2114 JUMP JUMPDEST PUSH2 0xD6A JUMP JUMPDEST CALLVALUE DUP1 ISZERO PUSH2 0x39C JUMPI PUSH1 0x0 DUP1 REVERT JUMPDEST POP PUSH2 0x1CC PUSH2 0x3AB CALLDATASIZE PUSH1 0x4 PUSH2 0x1F70 JUMP JUMPDEST PUSH2 0xE21 JUMP JUMPDEST CALLVALUE DUP1 ISZERO PUSH2 0x3BC JUMPI PUSH1 0x0 DUP1 REVERT JUMPDEST POP PUSH1 0xC9 SLOAD PUSH2 0x3D4 SWAP1 PUSH1 0x1 PUSH1 0xA0 SHL SWAP1 DIV PUSH4 0xFFFFFFFF AND DUP2 JUMP JUMPDEST PUSH1 0x40 MLOAD PUSH4 0xFFFFFFFF SWAP1 SWAP2 AND DUP2 MSTORE PUSH1 0x20 ADD PUSH2 0x1EE JUMP JUMPDEST CALLVALUE DUP1 ISZERO PUSH2 0x3F5 JUMPI PUSH1 0x0 DUP1 REVERT JUMPDEST POP PUSH1 0xCC SLOAD PUSH2 0x212 SWAP1 PUSH3 0x10000 SWAP1 DIV PUSH2 0xFFFF AND DUP2 JUMP JUMPDEST CALLVALUE DUP1 ISZERO PUSH2 0x416 JUMPI PUSH1 0x0 DUP1 REVERT JUMPDEST POP PUSH1 0xCF SLOAD PUSH2 0x2C2 SWAP1 PUSH1 0xFF AND DUP2 JUMP JUMPDEST CALLVALUE DUP1 ISZERO PUSH2 0x430 JUMPI PUSH1 0x0 DUP1 REVERT JUMPDEST POP PUSH2 0x1E4 PUSH2 0x43F CALLDATASIZE PUSH1 0x4 PUSH2 0x20F7 JUMP JUMPDEST PUSH2 0xE9A JUMP JUMPDEST CALLVALUE DUP1 ISZERO PUSH2 0x450 JUMPI PUSH1 0x0 DUP1 REVERT JUMPDEST POP PUSH2 0x464 PUSH2 0x45F CALLDATASIZE PUSH1 0x4 PUSH2 0x20F7 JUMP JUMPDEST PUSH2 0xEA6 JUMP JUMPDEST PUSH1 0x40 MLOAD PUSH2 0x1EE SWAP2 SWAP1 PUSH1 0x0 PUSH1 0xE0 DUP3 ADD SWAP1 POP PUSH4 0xFFFFFFFF DUP1 DUP5 MLOAD AND DUP4 MSTORE DUP1 PUSH1 0x20 DUP6 ADD MLOAD AND PUSH1 0x20 DUP5 ADD MSTORE POP PUSH1 0x40 DUP4 ADD MLOAD PUSH1 0x40 DUP4 ADD MSTORE PUSH2 0xFFFF PUSH1 0x60 DUP5 ADD MLOAD AND PUSH1 0x60 DUP4 ADD MSTORE PUSH1 0x80 DUP4 ADD MLOAD PUSH1 0x80 DUP4 ADD MSTORE PUSH1 0xA0 DUP4 ADD MLOAD PUSH1 0xA0 DUP4 ADD MSTORE PUSH1 0xC0 DUP4 ADD MLOAD PUSH1 0xC0 DUP4 ADD MSTORE SWAP3 SWAP2 POP POP JUMP JUMPDEST CALLVALUE DUP1 ISZERO PUSH2 0x4D4 JUMPI PUSH1 0x0 DUP1 REVERT JUMPDEST POP PUSH2 0x3D4 PUSH2 0x4E3 CALLDATASIZE PUSH1 0x4 PUSH2 0x2150 JUMP JUMPDEST PUSH2 0xF6C JUMP JUMPDEST CALLVALUE DUP1 ISZERO PUSH2 0x4F4 JUMPI PUSH1 0x0 DUP1 REVERT JUMPDEST POP PUSH2 0x1CC PUSH2 0x503 CALLDATASIZE PUSH1 0x4 PUSH2 0x20F7 JUMP JUMPDEST PUSH2 0x100C JUMP JUMPDEST CALLVALUE DUP1 ISZERO PUSH2 0x514 JUMPI PUSH1 0x0 DUP1 REVERT JUMPDEST POP PUSH2 0x1E4 PUSH2 0x523 CALLDATASIZE PUSH1 0x4 PUSH2 0x20F7 JUMP JUMPDEST PUSH2 0x10BA JUMP JUMPDEST CALLVALUE DUP1 ISZERO PUSH2 0x534 JUMPI PUSH1 0x0 DUP1 REVERT JUMPDEST POP PUSH2 0x1E4 PUSH1 0xCB SLOAD DUP2 JUMP JUMPDEST CALLVALUE DUP1 ISZERO PUSH2 0x54A JUMPI PUSH1 0x0 DUP1 REVERT JUMPDEST POP PUSH2 0x1CC PUSH2 0x559 CALLDATASIZE PUSH1 0x4 PUSH2 0x1F9C JUMP JUMPDEST PUSH2 0x129F JUMP JUMPDEST PUSH2 0x566 PUSH2 0x1315 JUMP JUMPDEST PUSH1 0x40 MLOAD PUSH1 0x1 PUSH1 0x1 PUSH1 0xA0 SHL SUB DUP4 AND SWAP1 DUP3 ISZERO PUSH2 0x8FC MUL SWAP1 DUP4 SWAP1 PUSH1 0x0 DUP2 DUP2 DUP2 DUP6 DUP9 DUP9 CALL SWAP4 POP POP POP POP ISZERO DUP1 ISZERO PUSH2 0x59C JUMPI RETURNDATASIZE PUSH1 0x0 DUP1 RETURNDATACOPY RETURNDATASIZE PUSH1 0x0 REVERT JUMPDEST POP POP POP JUMP JUMPDEST PUSH2 0x5A9 PUSH2 0x1315 JUMP JUMPDEST PUSH1 0x40 MLOAD CALLER SWAP1 SELFBALANCE DUP1 ISZERO PUSH2 0x8FC MUL SWAP2 PUSH1 0x0 DUP2 DUP2 DUP2 DUP6 DUP9 DUP9 CALL SWAP4 POP POP POP POP ISZERO DUP1 ISZERO PUSH2 0x5D5 JUMPI RETURNDATASIZE PUSH1 0x0 DUP1 RETURNDATACOPY RETURNDATASIZE PUSH1 0x0 REVERT JUMPDEST POP JUMP JUMPDEST PUSH1 0x1 PUSH1 0x1 PUSH1 0xA0 SHL SUB PUSH32 0x0 AND ADDRESS SUB PUSH2 0x629 JUMPI PUSH1 0x40 MLOAD PUSH3 0x461BCD PUSH1 0xE5 SHL DUP2 MSTORE PUSH1 0x4 ADD PUSH2 0x620 SWAP1 PUSH2 0x2194 JUMP JUMPDEST PUSH1 0x40 MLOAD DUP1 SWAP2 SUB SWAP1 REVERT JUMPDEST PUSH32 0x0 PUSH1 0x1 PUSH1 0x1 PUSH1 0xA0 SHL SUB AND PUSH2 0x672 PUSH1 0x0 DUP1 MLOAD PUSH1 0x20 PUSH2 0x28A5 DUP4 CODECOPY DUP2 MLOAD SWAP2 MSTORE SLOAD PUSH1 0x1 PUSH1 0x1 PUSH1 0xA0 SHL SUB AND SWAP1 JUMP JUMPDEST PUSH1 0x1 PUSH1 0x1 PUSH1 0xA0 SHL SUB AND EQ PUSH2 0x698 JUMPI PUSH1 0x40 MLOAD PUSH3 0x461BCD PUSH1 0xE5 SHL DUP2 MSTORE PUSH1 0x4 ADD PUSH2 0x620 SWAP1 PUSH2 0x21E0 JUMP JUMPDEST PUSH2 0x6A1 DUP2 PUSH2 0x136F JUMP JUMPDEST PUSH1 0x40 DUP1 MLOAD PUSH1 0x0 DUP1 DUP3 MSTORE PUSH1 0x20 DUP3 ADD SWAP1 SWAP3 MSTORE PUSH2 0x5D5 SWAP2 DUP4 SWAP2 SWAP1 PUSH2 0x1377 JUMP JUMPDEST PUSH1 0x1 PUSH1 0x1 PUSH1 0xA0 SHL SUB PUSH32 0x0 AND ADDRESS SUB PUSH2 0x705 JUMPI PUSH1 0x40 MLOAD PUSH3 0x461BCD PUSH1 0xE5 SHL DUP2 MSTORE PUSH1 0x4 ADD PUSH2 0x620 SWAP1 PUSH2 0x2194 JUMP JUMPDEST PUSH32 0x0 PUSH1 0x1 PUSH1 0x1 PUSH1 0xA0 SHL SUB AND PUSH2 0x74E PUSH1 0x0 DUP1 MLOAD PUSH1 0x20 PUSH2 0x28A5 DUP4 CODECOPY DUP2 MLOAD SWAP2 MSTORE SLOAD PUSH1 0x1 PUSH1 0x1 PUSH1 0xA0 SHL SUB AND SWAP1 JUMP JUMPDEST PUSH1 0x1 PUSH1 0x1 PUSH1 0xA0 SHL SUB AND EQ PUSH2 0x774 JUMPI PUSH1 0x40 MLOAD PUSH3 0x461BCD PUSH1 0xE5 SHL DUP2 MSTORE PUSH1 0x4 ADD PUSH2 0x620 SWAP1 PUSH2 0x21E0 JUMP JUMPDEST PUSH2 0x77D DUP3 PUSH2 0x136F JUMP JUMPDEST PUSH2 0x789 DUP3 DUP3 PUSH1 0x1 PUSH2 0x1377 JUMP JUMPDEST POP POP JUMP JUMPDEST PUSH1 0x0 ADDRESS PUSH1 0x1 PUSH1 0x1 PUSH1 0xA0 SHL SUB PUSH32 0x0 AND EQ PUSH2 0x82D JUMPI PUSH1 0x40 MLOAD PUSH3 0x461BCD PUSH1 0xE5 SHL DUP2 MSTORE PUSH1 0x20 PUSH1 0x4 DUP3 ADD MSTORE PUSH1 0x38 PUSH1 0x24 DUP3 ADD MSTORE PUSH32 0x555550535570677261646561626C653A206D757374206E6F742062652063616C PUSH1 0x44 DUP3 ADD MSTORE PUSH32 0x6C6564207468726F7567682064656C656761746563616C6C0000000000000000 PUSH1 0x64 DUP3 ADD MSTORE PUSH1 0x84 ADD PUSH2 0x620 JUMP JUMPDEST POP PUSH1 0x0 DUP1 MLOAD PUSH1 0x20 PUSH2 0x28A5 DUP4 CODECOPY DUP2 MLOAD SWAP2 MSTORE SWAP1 JUMP JUMPDEST PUSH1 0xC9 SLOAD PUSH1 0x40 MLOAD PUSH4 0x935E01B PUSH1 0xE2 SHL DUP2 MSTORE CALLER PUSH1 0x4 DUP3 ADD MSTORE PUSH1 0x0 SWAP2 PUSH1 0x1 PUSH1 0x1 PUSH1 0xA0 SHL SUB AND SWAP1 PUSH4 0x24D7806C SWAP1 PUSH1 0x24 ADD PUSH1 0x20 PUSH1 0x40 MLOAD DUP1 DUP4 SUB DUP2 DUP7 GAS STATICCALL ISZERO DUP1 ISZERO PUSH2 0x889 JUMPI RETURNDATASIZE PUSH1 0x0 DUP1 RETURNDATACOPY RETURNDATASIZE PUSH1 0x0 REVERT JUMPDEST POP POP POP POP PUSH1 0x40 MLOAD RETURNDATASIZE PUSH1 0x1F NOT PUSH1 0x1F DUP3 ADD AND DUP3 ADD DUP1 PUSH1 0x40 MSTORE POP DUP2 ADD SWAP1 PUSH2 0x8AD SWAP2 SWAP1 PUSH2 0x223C JUMP JUMPDEST PUSH2 0x8C9 JUMPI PUSH1 0x40 MLOAD PUSH3 0x461BCD PUSH1 0xE5 SHL DUP2 MSTORE PUSH1 0x4 ADD PUSH2 0x620 SWAP1 PUSH2 0x2257 JUMP JUMPDEST PUSH1 0xC9 SLOAD PUSH1 0x40 DUP1 MLOAD PUSH4 0x11A2163 PUSH1 0xE5 SHL DUP2 MSTORE SWAP1 MLOAD PUSH1 0x0 SWAP3 PUSH1 0x1 PUSH1 0x1 PUSH1 0xA0 SHL SUB AND SWAP2 PUSH4 0x23442C60 SWAP2 PUSH1 0x4 DUP1 DUP4 ADD SWAP3 PUSH1 0x20 SWAP3 SWAP2 SWAP1 DUP3 SWAP1 SUB ADD DUP2 DUP7 GAS STATICCALL ISZERO DUP1 ISZERO PUSH2 0x913 JUMPI RETURNDATASIZE PUSH1 0x0 DUP1 RETURNDATACOPY RETURNDATASIZE PUSH1 0x0 REVERT JUMPDEST POP POP POP POP PUSH1 0x40 MLOAD RETURNDATASIZE PUSH1 0x1F NOT PUSH1 0x1F DUP3 ADD AND DUP3 ADD DUP1 PUSH1 0x40 MSTORE POP DUP2 ADD SWAP1 PUSH2 0x937 SWAP2 SWAP1 PUSH2 0x22A7 JUMP JUMPDEST PUSH1 0x40 MLOAD PUSH4 0x21009789 PUSH1 0xE0 SHL DUP2 MSTORE PUSH4 0xFFFFFFFF DUP6 AND PUSH1 0x4 DUP3 ADD MSTORE PUSH1 0x1 PUSH1 0x1 PUSH1 0xA0 SHL SUB SWAP2 SWAP1 SWAP2 AND SWAP1 PUSH4 0x21009789 SWAP1 PUSH1 0x24 ADD PUSH1 0x0 PUSH1 0x40 MLOAD DUP1 DUP4 SUB DUP2 DUP7 GAS STATICCALL ISZERO DUP1 ISZERO PUSH2 0x983 JUMPI RETURNDATASIZE PUSH1 0x0 DUP1 RETURNDATACOPY RETURNDATASIZE PUSH1 0x0 REVERT JUMPDEST POP POP POP POP PUSH1 0x40 MLOAD RETURNDATASIZE PUSH1 0x0 DUP3 RETURNDATACOPY PUSH1 0x1F RETURNDATASIZE SWAP1 DUP2 ADD PUSH1 0x1F NOT AND DUP3 ADD PUSH1 0x40 MSTORE PUSH2 0x9AB SWAP2 SWAP1 DUP2 ADD SWAP1 PUSH2 0x243F JUMP JUMPDEST SWAP1 POP PUSH2 0x9B6 DUP2 PUSH2 0x14E2 JUMP JUMPDEST SWAP2 POP POP JUMPDEST SWAP2 SWAP1 POP JUMP JUMPDEST PUSH1 0x0 PUSH2 0x9CA DUP3 PUSH2 0x17D1 JUMP JUMPDEST SWAP3 SWAP2 POP POP JUMP JUMPDEST PUSH2 0x9D8 PUSH2 0x1315 JUMP JUMPDEST PUSH2 0x9E2 PUSH1 0x0 PUSH2 0x185D JUMP JUMPDEST JUMP JUMPDEST PUSH1 0x0 DUP1 PUSH1 0xC9 PUSH1 0x0 SWAP1 SLOAD SWAP1 PUSH2 0x100 EXP SWAP1 DIV PUSH1 0x1 PUSH1 0x1 PUSH1 0xA0 SHL SUB AND PUSH1 0x1 PUSH1 0x1 PUSH1 0xA0 SHL SUB AND PUSH4 0x23442C60 PUSH1 0x40 MLOAD DUP2 PUSH4 0xFFFFFFFF AND PUSH1 0xE0 SHL DUP2 MSTORE PUSH1 0x4 ADD PUSH1 0x20 PUSH1 0x40 MLOAD DUP1 DUP4 SUB DUP2 DUP7 GAS STATICCALL ISZERO DUP1 ISZERO PUSH2 0xA3A JUMPI RETURNDATASIZE PUSH1 0x0 DUP1 RETURNDATACOPY RETURNDATASIZE PUSH1 0x0 REVERT JUMPDEST POP POP POP POP PUSH1 0x40 MLOAD RETURNDATASIZE PUSH1 0x1F NOT PUSH1 0x1F DUP3 ADD AND DUP3 ADD DUP1 PUSH1 0x40 MSTORE POP DUP2 ADD SWAP1 PUSH2 0xA5E SWAP2 SWAP1 PUSH2 0x22A7 JUMP JUMPDEST PUSH1 0x40 MLOAD PUSH4 0x21009789 PUSH1 0xE0 SHL DUP2 MSTORE PUSH4 0xFFFFFFFF DUP6 AND PUSH1 0x4 DUP3 ADD MSTORE PUSH1 0x1 PUSH1 0x1 PUSH1 0xA0 SHL SUB SWAP2 SWAP1 SWAP2 AND SWAP1 PUSH4 0x21009789 SWAP1 PUSH1 0x24 ADD PUSH1 0x0 PUSH1 0x40 MLOAD DUP1 DUP4 SUB DUP2 DUP7 GAS STATICCALL ISZERO DUP1 ISZERO PUSH2 0xAAA JUMPI RETURNDATASIZE PUSH1 0x0 DUP1 RETURNDATACOPY RETURNDATASIZE PUSH1 0x0 REVERT JUMPDEST POP POP POP POP PUSH1 0x40 MLOAD RETURNDATASIZE PUSH1 0x0 DUP3 RETURNDATACOPY PUSH1 0x1F RETURNDATASIZE SWAP1 DUP2 ADD PUSH1 0x1F NOT AND DUP3 ADD PUSH1 0x40 MSTORE PUSH2 0xAD2 SWAP2 SWAP1 DUP2 ADD SWAP1 PUSH2 0x243F JUMP JUMPDEST SWAP1 POP DUP1 PUSH1 0x80 ADD MLOAD PUSH1 0x1 PUSH1 0x1 PUSH1 0xA0 SHL SUB AND CALLER PUSH1 0x1 PUSH1 0x1 PUSH1 0xA0 SHL SUB AND EQ PUSH2 0xB39 JUMPI PUSH1 0x40 MLOAD PUSH3 0x461BCD PUSH1 0xE5 SHL DUP2 MSTORE PUSH1 0x20 PUSH1 0x4 DUP3 ADD MSTORE PUSH1 0x1D PUSH1 0x24 DUP3 ADD MSTORE PUSH32 0x596F7520617265206E6F74206F776E6572206F6620746869732069642E000000 PUSH1 0x44 DUP3 ADD MSTORE PUSH1 0x64 ADD PUSH2 0x620 JUMP JUMPDEST PUSH1 0xCE SLOAD DUP2 PUSH2 0x3C0 ADD MLOAD PUSH2 0xB4C SWAP2 SWAP1 PUSH2 0x271E JUMP JUMPDEST TIMESTAMP LT ISZERO PUSH2 0xBAD JUMPI PUSH1 0x40 MLOAD PUSH3 0x461BCD PUSH1 0xE5 SHL DUP2 MSTORE PUSH1 0x20 PUSH1 0x4 DUP3 ADD MSTORE PUSH1 0x29 PUSH1 0x24 DUP3 ADD MSTORE PUSH32 0x596F757220726F6920636C61696D2074696D656C696D6974206973206E6F7420 PUSH1 0x44 DUP3 ADD MSTORE PUSH9 0x37BB32B9103CB2BA17 PUSH1 0xB9 SHL PUSH1 0x64 DUP3 ADD MSTORE PUSH1 0x84 ADD PUSH2 0x620 JUMP JUMPDEST DUP1 PUSH2 0x420 ADD MLOAD ISZERO PUSH2 0xC00 JUMPI PUSH1 0x40 MLOAD PUSH3 0x461BCD PUSH1 0xE5 SHL DUP2 MSTORE PUSH1 0x20 PUSH1 0x4 DUP3 ADD MSTORE PUSH1 0x19 PUSH1 0x24 DUP3 ADD MSTORE PUSH32 0x4163636F756E742064697361626C65642062792061646D696E00000000000000 PUSH1 0x44 DUP3 ADD MSTORE PUSH1 0x64 ADD PUSH2 0x620 JUMP JUMPDEST PUSH2 0x9B6 DUP2 PUSH2 0x14E2 JUMP JUMPDEST PUSH1 0x0 SLOAD PUSH2 0x100 SWAP1 DIV PUSH1 0xFF AND ISZERO DUP1 DUP1 ISZERO PUSH2 0xC29 JUMPI POP PUSH1 0x0 SLOAD PUSH1 0x1 PUSH1 0xFF SWAP1 SWAP2 AND LT JUMPDEST DUP1 PUSH2 0xC43 JUMPI POP ADDRESS EXTCODESIZE ISZERO DUP1 ISZERO PUSH2 0xC43 JUMPI POP PUSH1 0x0 SLOAD PUSH1 0xFF AND PUSH1 0x1 EQ JUMPDEST PUSH2 0xCA6 JUMPI PUSH1 0x40 MLOAD PUSH3 0x461BCD PUSH1 0xE5 SHL DUP2 MSTORE PUSH1 0x20 PUSH1 0x4 DUP3 ADD MSTORE PUSH1 0x2E PUSH1 0x24 DUP3 ADD MSTORE PUSH32 0x496E697469616C697A61626C653A20636F6E747261637420697320616C726561 PUSH1 0x44 DUP3 ADD MSTORE PUSH14 0x191E481A5B9A5D1A585B1A5E9959 PUSH1 0x92 SHL PUSH1 0x64 DUP3 ADD MSTORE PUSH1 0x84 ADD PUSH2 0x620 JUMP JUMPDEST PUSH1 0x0 DUP1 SLOAD PUSH1 0xFF NOT AND PUSH1 0x1 OR SWAP1 SSTORE DUP1 ISZERO PUSH2 0xCC9 JUMPI PUSH1 0x0 DUP1 SLOAD PUSH2 0xFF00 NOT AND PUSH2 0x100 OR SWAP1 SSTORE JUMPDEST PUSH1 0xC9 DUP1 SLOAD PUSH1 0x1 PUSH1 0x1 PUSH1 0xA0 SHL SUB NOT AND PUSH20 0xB8BF5FEB9FCA57D9C5D27185DDF3017E99A2D36 OR SWAP1 SSTORE PUSH1 0xCC DUP1 SLOAD PUSH3 0x503E8 PUSH4 0xFFFFFFFF NOT SWAP1 SWAP2 AND OR SWAP1 SSTORE PUSH3 0x15180 PUSH1 0xCE SSTORE PUSH4 0x20F5800 PUSH1 0xCD SSTORE PUSH2 0xD1A PUSH2 0x18AF JUMP JUMPDEST PUSH2 0xD22 PUSH2 0x18DE JUMP JUMPDEST DUP1 ISZERO PUSH2 0x5D5 JUMPI PUSH1 0x0 DUP1 SLOAD PUSH2 0xFF00 NOT AND SWAP1 SSTORE PUSH1 0x40 MLOAD PUSH1 0x1 DUP2 MSTORE PUSH32 0x7F26B83FF96E1F2B6A682F133852F6798A09C465DA95921460CEFB3847402498 SWAP1 PUSH1 0x20 ADD PUSH1 0x40 MLOAD DUP1 SWAP2 SUB SWAP1 LOG1 POP JUMP JUMPDEST PUSH1 0xC9 SLOAD PUSH1 0x40 MLOAD PUSH4 0x935E01B PUSH1 0xE2 SHL DUP2 MSTORE CALLER PUSH1 0x4 DUP3 ADD MSTORE PUSH1 0x1 PUSH1 0x1 PUSH1 0xA0 SHL SUB SWAP1 SWAP2 AND SWAP1 PUSH4 0x24D7806C SWAP1 PUSH1 0x24 ADD PUSH1 0x20 PUSH1 0x40 MLOAD DUP1 DUP4 SUB DUP2 DUP7 GAS STATICCALL ISZERO DUP1 ISZERO PUSH2 0xDB2 JUMPI RETURNDATASIZE PUSH1 0x0 DUP1 RETURNDATACOPY RETURNDATASIZE PUSH1 0x0 REVERT JUMPDEST POP POP POP POP PUSH1 0x40 MLOAD RETURNDATASIZE PUSH1 0x1F NOT PUSH1 0x1F DUP3 ADD AND DUP3 ADD DUP1 PUSH1 0x40 MSTORE POP DUP2 ADD SWAP1 PUSH2 0xDD6 SWAP2 SWAP1 PUSH2 0x223C JUMP JUMPDEST PUSH2 0xDF2 JUMPI PUSH1 0x40 MLOAD PUSH3 0x461BCD PUSH1 0xE5 SHL DUP2 MSTORE PUSH1 0x4 ADD PUSH2 0x620 SWAP1 PUSH2 0x2257 JUMP JUMPDEST PUSH1 0xCC DUP1 SLOAD PUSH4 0xFFFF0000 NOT AND PUSH3 0x10000 PUSH2 0xFFFF DUP7 AND MUL OR SWAP1 SSTORE PUSH2 0xE17 DUP3 PUSH3 0x15180 PUSH2 0x2731 JUMP JUMPDEST PUSH1 0xCD SSTORE PUSH1 0xCE SSTORE POP POP JUMP JUMPDEST PUSH2 0xE29 PUSH2 0x1315 JUMP JUMPDEST PUSH1 0x40 MLOAD PUSH4 0xA9059CBB PUSH1 0xE0 SHL DUP2 MSTORE CALLER PUSH1 0x4 DUP3 ADD MSTORE PUSH1 0x24 DUP2 ADD DUP3 SWAP1 MSTORE PUSH1 0x1 PUSH1 0x1 PUSH1 0xA0 SHL SUB DUP4 AND SWAP1 PUSH4 0xA9059CBB SWAP1 PUSH1 0x44 ADD PUSH1 0x20 PUSH1 0x40 MLOAD DUP1 DUP4 SUB DUP2 PUSH1 0x0 DUP8 GAS CALL ISZERO DUP1 ISZERO PUSH2 0xE76 JUMPI RETURNDATASIZE PUSH1 0x0 DUP1 RETURNDATACOPY RETURNDATASIZE PUSH1 0x0 REVERT JUMPDEST POP POP POP POP PUSH1 0x40 MLOAD RETURNDATASIZE PUSH1 0x1F NOT PUSH1 0x1F DUP3 ADD AND DUP3 ADD DUP1 PUSH1 0x40 MSTORE POP DUP2 ADD SWAP1 PUSH2 0x59C SWAP2 SWAP1 PUSH2 0x223C JUMP JUMPDEST PUSH1 0x0 PUSH2 0x9CA DUP3 TIMESTAMP PUSH2 0x1905 JUMP JUMPDEST PUSH2 0xEF6 PUSH1 0x40 MLOAD DUP1 PUSH1 0xE0 ADD PUSH1 0x40 MSTORE DUP1 PUSH1 0x0 PUSH4 0xFFFFFFFF AND DUP2 MSTORE PUSH1 0x20 ADD PUSH1 0x0 PUSH4 0xFFFFFFFF AND DUP2 MSTORE PUSH1 0x20 ADD PUSH1 0x0 DUP2 MSTORE PUSH1 0x20 ADD PUSH1 0x0 PUSH2 0xFFFF AND DUP2 MSTORE PUSH1 0x20 ADD PUSH1 0x0 DUP2 MSTORE PUSH1 0x20 ADD PUSH1 0x0 DUP2 MSTORE PUSH1 0x20 ADD PUSH1 0x0 DUP2 MSTORE POP SWAP1 JUMP JUMPDEST POP PUSH4 0xFFFFFFFF SWAP1 DUP2 AND PUSH1 0x0 SWAP1 DUP2 MSTORE PUSH1 0xD0 PUSH1 0x20 SWAP1 DUP2 MSTORE PUSH1 0x40 SWAP2 DUP3 SWAP1 KECCAK256 DUP3 MLOAD PUSH1 0xE0 DUP2 ADD DUP5 MSTORE DUP2 SLOAD DUP1 DUP7 AND DUP3 MSTORE PUSH5 0x100000000 SWAP1 DIV SWAP1 SWAP5 AND SWAP2 DUP5 ADD SWAP2 SWAP1 SWAP2 MSTORE PUSH1 0x1 DUP2 ADD SLOAD SWAP2 DUP4 ADD SWAP2 SWAP1 SWAP2 MSTORE PUSH1 0x2 DUP2 ADD SLOAD PUSH2 0xFFFF AND PUSH1 0x60 DUP4 ADD MSTORE PUSH1 0x3 DUP2 ADD SLOAD PUSH1 0x80 DUP4 ADD MSTORE PUSH1 0x4 DUP2 ADD SLOAD PUSH1 0xA0 DUP4 ADD MSTORE PUSH1 0x5 ADD SLOAD PUSH1 0xC0 DUP3 ADD MSTORE SWAP1 JUMP JUMPDEST PUSH1 0xC9 SLOAD PUSH1 0x40 MLOAD PUSH4 0x935E01B PUSH1 0xE2 SHL DUP2 MSTORE CALLER PUSH1 0x4 DUP3 ADD MSTORE PUSH1 0x0 SWAP2 PUSH1 0x1 PUSH1 0x1 PUSH1 0xA0 SHL SUB AND SWAP1 PUSH4 0x24D7806C SWAP1 PUSH1 0x24 ADD PUSH1 0x20 PUSH1 0x40 MLOAD DUP1 DUP4 SUB DUP2 DUP7 GAS STATICCALL ISZERO DUP1 ISZERO PUSH2 0xFB5 JUMPI RETURNDATASIZE PUSH1 0x0 DUP1 RETURNDATACOPY RETURNDATASIZE PUSH1 0x0 REVERT JUMPDEST POP POP POP POP PUSH1 0x40 MLOAD RETURNDATASIZE PUSH1 0x1F NOT PUSH1 0x1F DUP3 ADD AND DUP3 ADD DUP1 PUSH1 0x40 MSTORE POP DUP2 ADD SWAP1 PUSH2 0xFD9 SWAP2 SWAP1 PUSH2 0x223C JUMP JUMPDEST PUSH2 0xFF5 JUMPI PUSH1 0x40 MLOAD PUSH3 0x461BCD PUSH1 0xE5 SHL DUP2 MSTORE PUSH1 0x4 ADD PUSH2 0x620 SWAP1 PUSH2 0x2257 JUMP JUMPDEST PUSH2 0x1002 DUP7 DUP7 DUP7 DUP7 DUP7 PUSH2 0x1B38 JUMP JUMPDEST SWAP7 SWAP6 POP POP POP POP POP POP JUMP JUMPDEST PUSH1 0xC9 SLOAD PUSH1 0x40 MLOAD PUSH4 0x935E01B PUSH1 0xE2 SHL DUP2 MSTORE CALLER PUSH1 0x4 DUP3 ADD MSTORE PUSH1 0x1 PUSH1 0x1 PUSH1 0xA0 SHL SUB SWAP1 SWAP2 AND SWAP1 PUSH4 0x24D7806C SWAP1 PUSH1 0x24 ADD PUSH1 0x20 PUSH1 0x40 MLOAD DUP1 DUP4 SUB DUP2 DUP7 GAS STATICCALL ISZERO DUP1 ISZERO PUSH2 0x1054 JUMPI RETURNDATASIZE PUSH1 0x0 DUP1 RETURNDATACOPY RETURNDATASIZE PUSH1 0x0 REVERT JUMPDEST POP POP POP POP PUSH1 0x40 MLOAD RETURNDATASIZE PUSH1 0x1F NOT PUSH1 0x1F DUP3 ADD AND DUP3 ADD DUP1 PUSH1 0x40 MSTORE POP DUP2 ADD SWAP1 PUSH2 0x1078 SWAP2 SWAP1 PUSH2 0x223C JUMP JUMPDEST PUSH2 0x1094 JUMPI PUSH1 0x40 MLOAD PUSH3 0x461BCD PUSH1 0xE5 SHL DUP2 MSTORE PUSH1 0x4 ADD PUSH2 0x620 SWAP1 PUSH2 0x2257 JUMP JUMPDEST PUSH1 0xC9 DUP1 SLOAD PUSH4 0xFFFFFFFF SWAP1 SWAP3 AND PUSH1 0x1 PUSH1 0xA0 SHL MUL PUSH4 0xFFFFFFFF PUSH1 0xA0 SHL NOT SWAP1 SWAP3 AND SWAP2 SWAP1 SWAP2 OR SWAP1 SSTORE JUMP JUMPDEST PUSH1 0x0 DUP1 PUSH1 0xC9 PUSH1 0x0 SWAP1 SLOAD SWAP1 PUSH2 0x100 EXP SWAP1 DIV PUSH1 0x1 PUSH1 0x1 PUSH1 0xA0 SHL SUB AND PUSH1 0x1 PUSH1 0x1 PUSH1 0xA0 SHL SUB AND PUSH4 0x23442C60 PUSH1 0x40 MLOAD DUP2 PUSH4 0xFFFFFFFF AND PUSH1 0xE0 SHL DUP2 MSTORE PUSH1 0x4 ADD PUSH1 0x20 PUSH1 0x40 MLOAD DUP1 DUP4 SUB DUP2 DUP7 GAS STATICCALL ISZERO DUP1 ISZERO PUSH2 0x1110 JUMPI RETURNDATASIZE PUSH1 0x0 DUP1 RETURNDATACOPY RETURNDATASIZE PUSH1 0x0 REVERT JUMPDEST POP POP POP POP PUSH1 0x40 MLOAD RETURNDATASIZE PUSH1 0x1F NOT PUSH1 0x1F DUP3 ADD AND DUP3 ADD DUP1 PUSH1 0x40 MSTORE POP DUP2 ADD SWAP1 PUSH2 0x1134 SWAP2 SWAP1 PUSH2 0x22A7 JUMP JUMPDEST PUSH1 0x40 MLOAD PUSH4 0x21009789 PUSH1 0xE0 SHL DUP2 MSTORE PUSH4 0xFFFFFFFF DUP6 AND PUSH1 0x4 DUP3 ADD MSTORE PUSH1 0x1 PUSH1 0x1 PUSH1 0xA0 SHL SUB SWAP2 SWAP1 SWAP2 AND SWAP1 PUSH4 0x21009789 SWAP1 PUSH1 0x24 ADD PUSH1 0x0 PUSH1 0x40 MLOAD DUP1 DUP4 SUB DUP2 DUP7 GAS STATICCALL ISZERO DUP1 ISZERO PUSH2 0x1180 JUMPI RETURNDATASIZE PUSH1 0x0 DUP1 RETURNDATACOPY RETURNDATASIZE PUSH1 0x0 REVERT JUMPDEST POP POP POP POP PUSH1 0x40 MLOAD RETURNDATASIZE PUSH1 0x0 DUP3 RETURNDATACOPY PUSH1 0x1F RETURNDATASIZE SWAP1 DUP2 ADD PUSH1 0x1F NOT AND DUP3 ADD PUSH1 0x40 MSTORE PUSH2 0x11A8 SWAP2 SWAP1 DUP2 ADD SWAP1 PUSH2 0x243F JUMP JUMPDEST PUSH2 0x380 DUP2 ADD MLOAD DUP1 MLOAD PUSH2 0x2E0 DUP4 ADD MLOAD SWAP3 SWAP4 POP SWAP1 SWAP2 PUSH2 0x11C6 SWAP1 PUSH1 0x2 PUSH2 0x2731 JUMP JUMPDEST DUP4 PUSH2 0x2C0 ADD MLOAD LT DUP1 ISZERO PUSH2 0x11D9 JUMPI POP PUSH1 0x0 DUP2 GT JUMPDEST DUP1 ISZERO PUSH2 0x11E8 JUMPI POP DUP3 PUSH2 0x420 ADD MLOAD ISZERO JUMPDEST ISZERO PUSH2 0x1292 JUMPI PUSH1 0x0 JUMPDEST DUP2 DUP2 PUSH2 0xFFFF AND LT ISZERO PUSH2 0x128C JUMPI PUSH1 0x0 PUSH1 0xD0 PUSH1 0x0 DUP6 DUP5 PUSH2 0xFFFF AND DUP2 MLOAD DUP2 LT PUSH2 0x1218 JUMPI PUSH2 0x1218 PUSH2 0x2748 JUMP JUMPDEST PUSH1 0x20 MUL PUSH1 0x20 ADD ADD MLOAD PUSH4 0xFFFFFFFF AND PUSH4 0xFFFFFFFF AND DUP2 MSTORE PUSH1 0x20 ADD SWAP1 DUP2 MSTORE PUSH1 0x20 ADD PUSH1 0x0 KECCAK256 SWAP1 POP PUSH2 0x1262 DUP5 DUP4 PUSH2 0xFFFF AND DUP2 MLOAD DUP2 LT PUSH2 0x1255 JUMPI PUSH2 0x1255 PUSH2 0x2748 JUMP JUMPDEST PUSH1 0x20 MUL PUSH1 0x20 ADD ADD MLOAD PUSH2 0x17D1 JUMP JUMPDEST ISZERO PUSH2 0x1279 JUMPI PUSH1 0x1 DUP2 ADD SLOAD PUSH2 0x1276 SWAP1 DUP8 PUSH2 0x271E JUMP JUMPDEST SWAP6 POP JUMPDEST POP DUP1 PUSH2 0x1284 DUP2 PUSH2 0x275E JUMP JUMPDEST SWAP2 POP POP PUSH2 0x11F0 JUMP JUMPDEST POP PUSH2 0x1297 JUMP JUMPDEST PUSH1 0x0 SWAP4 POP JUMPDEST POP POP POP SWAP2 SWAP1 POP JUMP JUMPDEST PUSH2 0x12A7 PUSH2 0x1315 JUMP JUMPDEST PUSH1 0x1 PUSH1 0x1 PUSH1 0xA0 SHL SUB DUP2 AND PUSH2 0x130C JUMPI PUSH1 0x40 MLOAD PUSH3 0x461BCD PUSH1 0xE5 SHL DUP2 MSTORE PUSH1 0x20 PUSH1 0x4 DUP3 ADD MSTORE PUSH1 0x26 PUSH1 0x24 DUP3 ADD MSTORE PUSH32 0x4F776E61626C653A206E6577206F776E657220697320746865207A65726F2061 PUSH1 0x44 DUP3 ADD MSTORE PUSH6 0x646472657373 PUSH1 0xD0 SHL PUSH1 0x64 DUP3 ADD MSTORE PUSH1 0x84 ADD PUSH2 0x620 JUMP JUMPDEST PUSH2 0x5D5 DUP2 PUSH2 0x185D JUMP JUMPDEST PUSH1 0x33 SLOAD PUSH1 0x1 PUSH1 0x1 PUSH1 0xA0 SHL SUB AND CALLER EQ PUSH2 0x9E2 JUMPI PUSH1 0x40 MLOAD PUSH3 0x461BCD PUSH1 0xE5 SHL DUP2 MSTORE PUSH1 0x20 PUSH1 0x4 DUP3 ADD DUP2 SWAP1 MSTORE PUSH1 0x24 DUP3 ADD MSTORE PUSH32 0x4F776E61626C653A2063616C6C6572206973206E6F7420746865206F776E6572 PUSH1 0x44 DUP3 ADD MSTORE PUSH1 0x64 ADD PUSH2 0x620 JUMP JUMPDEST PUSH2 0x5D5 PUSH2 0x1315 JUMP JUMPDEST PUSH32 0x4910FDFA16FED3260ED0E7147F7CC6DA11A60208B5B9406D12A635614FFD9143 SLOAD PUSH1 0xFF AND ISZERO PUSH2 0x13AA JUMPI PUSH2 0x59C DUP4 PUSH2 0x1C4F JUMP JUMPDEST DUP3 PUSH1 0x1 PUSH1 0x1 PUSH1 0xA0 SHL SUB AND PUSH4 0x52D1902D PUSH1 0x40 MLOAD DUP2 PUSH4 0xFFFFFFFF AND PUSH1 0xE0 SHL DUP2 MSTORE PUSH1 0x4 ADD PUSH1 0x20 PUSH1 0x40 MLOAD DUP1 DUP4 SUB DUP2 DUP7 GAS STATICCALL SWAP3 POP POP POP DUP1 ISZERO PUSH2 0x1404 JUMPI POP PUSH1 0x40 DUP1 MLOAD PUSH1 0x1F RETURNDATASIZE SWAP1 DUP2 ADD PUSH1 0x1F NOT AND DUP3 ADD SWAP1 SWAP3 MSTORE PUSH2 0x1401 SWAP2 DUP2 ADD SWAP1 PUSH2 0x277F JUMP JUMPDEST PUSH1 0x1 JUMPDEST PUSH2 0x1467 JUMPI PUSH1 0x40 MLOAD PUSH3 0x461BCD PUSH1 0xE5 SHL DUP2 MSTORE PUSH1 0x20 PUSH1 0x4 DUP3 ADD MSTORE PUSH1 0x2E PUSH1 0x24 DUP3 ADD MSTORE PUSH32 0x45524331393637557067726164653A206E657720696D706C656D656E74617469 PUSH1 0x44 DUP3 ADD MSTORE PUSH14 0x6F6E206973206E6F742055555053 PUSH1 0x90 SHL PUSH1 0x64 DUP3 ADD MSTORE PUSH1 0x84 ADD PUSH2 0x620 JUMP JUMPDEST PUSH1 0x0 DUP1 MLOAD PUSH1 0x20 PUSH2 0x28A5 DUP4 CODECOPY DUP2 MLOAD SWAP2 MSTORE DUP2 EQ PUSH2 0x14D6 JUMPI PUSH1 0x40 MLOAD PUSH3 0x461BCD PUSH1 0xE5 SHL DUP2 MSTORE PUSH1 0x20 PUSH1 0x4 DUP3 ADD MSTORE PUSH1 0x29 PUSH1 0x24 DUP3 ADD MSTORE PUSH32 0x45524331393637557067726164653A20756E737570706F727465642070726F78 PUSH1 0x44 DUP3 ADD MSTORE PUSH9 0x1A58589B1955555251 PUSH1 0xBA SHL PUSH1 0x64 DUP3 ADD MSTORE PUSH1 0x84 ADD PUSH2 0x620 JUMP JUMPDEST POP PUSH2 0x59C DUP4 DUP4 DUP4 PUSH2 0x1CEB JUMP JUMPDEST DUP1 MLOAD PUSH1 0x0 SWAP1 TIMESTAMP SWAP1 DUP3 SWAP1 PUSH2 0x14F5 SWAP1 DUP4 PUSH2 0x1905 JUMP JUMPDEST SWAP1 POP DUP4 PUSH2 0x2E0 ADD MLOAD PUSH1 0x2 PUSH2 0x1509 SWAP2 SWAP1 PUSH2 0x2731 JUMP JUMPDEST DUP5 PUSH2 0x2C0 ADD MLOAD GT ISZERO DUP1 ISZERO PUSH2 0x153C JUMPI POP PUSH2 0x2E0 DUP5 ADD MLOAD PUSH2 0x1529 SWAP1 PUSH1 0x2 PUSH2 0x2731 JUMP JUMPDEST DUP2 DUP6 PUSH2 0x2C0 ADD MLOAD PUSH2 0x153A SWAP2 SWAP1 PUSH2 0x271E JUMP JUMPDEST LT JUMPDEST ISZERO PUSH2 0x1561 JUMPI DUP1 SWAP3 POP DUP3 PUSH1 0xCA PUSH1 0x0 DUP3 DUP3 SLOAD PUSH2 0x1556 SWAP2 SWAP1 PUSH2 0x271E JUMP JUMPDEST SWAP1 SWAP2 SSTORE POP PUSH2 0x15BF SWAP1 POP JUMP JUMPDEST PUSH2 0x2E0 DUP5 ADD MLOAD PUSH2 0x1572 SWAP1 PUSH1 0x2 PUSH2 0x2731 JUMP JUMPDEST DUP5 PUSH2 0x2C0 ADD MLOAD GT PUSH2 0x15BF JUMPI PUSH1 0x0 DUP5 PUSH2 0x2C0 ADD MLOAD DUP6 PUSH2 0x2E0 ADD MLOAD PUSH1 0x2 PUSH2 0x1597 SWAP2 SWAP1 PUSH2 0x2731 JUMP JUMPDEST PUSH2 0x15A1 SWAP2 SWAP1 PUSH2 0x2798 JUMP JUMPDEST SWAP1 POP DUP1 SWAP4 POP DUP1 PUSH1 0xCA PUSH1 0x0 DUP3 DUP3 SLOAD PUSH2 0x15B8 SWAP2 SWAP1 PUSH2 0x271E JUMP JUMPDEST SWAP1 SWAP2 SSTORE POP POP POP JUMPDEST DUP3 ISZERO PUSH2 0x17C0 JUMPI PUSH1 0xC9 PUSH1 0x0 SWAP1 SLOAD SWAP1 PUSH2 0x100 EXP SWAP1 DIV PUSH1 0x1 PUSH1 0x1 PUSH1 0xA0 SHL SUB AND PUSH1 0x1 PUSH1 0x1 PUSH1 0xA0 SHL SUB AND PUSH4 0x23442C60 PUSH1 0x40 MLOAD DUP2 PUSH4 0xFFFFFFFF AND PUSH1 0xE0 SHL DUP2 MSTORE PUSH1 0x4 ADD PUSH1 0x20 PUSH1 0x40 MLOAD DUP1 DUP4 SUB DUP2 DUP7 GAS STATICCALL ISZERO DUP1 ISZERO PUSH2 0x1618 JUMPI RETURNDATASIZE PUSH1 0x0 DUP1 RETURNDATACOPY RETURNDATASIZE PUSH1 0x0 REVERT JUMPDEST POP POP POP POP PUSH1 0x40 MLOAD RETURNDATASIZE PUSH1 0x1F NOT PUSH1 0x1F DUP3 ADD AND DUP3 ADD DUP1 PUSH1 0x40 MSTORE POP DUP2 ADD SWAP1 PUSH2 0x163C SWAP2 SWAP1 PUSH2 0x22A7 JUMP JUMPDEST DUP5 MLOAD PUSH1 0x40 MLOAD PUSH4 0x284EB629 PUSH1 0xE1 SHL DUP2 MSTORE PUSH4 0xFFFFFFFF SWAP1 SWAP2 AND PUSH1 0x4 DUP3 ADD MSTORE PUSH1 0x24 DUP2 ADD DUP6 SWAP1 MSTORE PUSH1 0x1 PUSH1 0x1 PUSH1 0xA0 SHL SUB SWAP2 SWAP1 SWAP2 AND SWAP1 PUSH4 0x509D6C52 SWAP1 PUSH1 0x44 ADD PUSH1 0x0 PUSH1 0x40 MLOAD DUP1 DUP4 SUB DUP2 PUSH1 0x0 DUP8 DUP1 EXTCODESIZE ISZERO DUP1 ISZERO PUSH2 0x168F JUMPI PUSH1 0x0 DUP1 REVERT JUMPDEST POP GAS CALL ISZERO DUP1 ISZERO PUSH2 0x16A3 JUMPI RETURNDATASIZE PUSH1 0x0 DUP1 RETURNDATACOPY RETURNDATASIZE PUSH1 0x0 REVERT JUMPDEST POP POP POP POP PUSH1 0xC9 PUSH1 0x0 SWAP1 SLOAD SWAP1 PUSH2 0x100 EXP SWAP1 DIV PUSH1 0x1 PUSH1 0x1 PUSH1 0xA0 SHL SUB AND PUSH1 0x1 PUSH1 0x1 PUSH1 0xA0 SHL SUB AND PUSH4 0x23442C60 PUSH1 0x40 MLOAD DUP2 PUSH4 0xFFFFFFFF AND PUSH1 0xE0 SHL DUP2 MSTORE PUSH1 0x4 ADD PUSH1 0x20 PUSH1 0x40 MLOAD DUP1 DUP4 SUB DUP2 DUP7 GAS STATICCALL ISZERO DUP1 ISZERO PUSH2 0x16FA JUMPI RETURNDATASIZE PUSH1 0x0 DUP1 RETURNDATACOPY RETURNDATASIZE PUSH1 0x0 REVERT JUMPDEST POP POP POP POP PUSH1 0x40 MLOAD RETURNDATASIZE PUSH1 0x1F NOT PUSH1 0x1F DUP3 ADD AND DUP3 ADD DUP1 PUSH1 0x40 MSTORE POP DUP2 ADD SWAP1 PUSH2 0x171E SWAP2 SWAP1 PUSH2 0x22A7 JUMP JUMPDEST DUP5 MLOAD PUSH1 0x40 MLOAD PUSH4 0x498B3E55 PUSH1 0xE0 SHL DUP2 MSTORE PUSH1 0x4 DUP2 ADD DUP7 SWAP1 MSTORE PUSH4 0xFFFFFFFF SWAP1 SWAP2 AND PUSH1 0x24 DUP3 ADD MSTORE PUSH1 0x1 PUSH1 0x1 PUSH1 0xA0 SHL SUB SWAP2 SWAP1 SWAP2 AND SWAP1 PUSH4 0x498B3E55 SWAP1 PUSH1 0x44 ADD PUSH1 0x0 PUSH1 0x40 MLOAD DUP1 DUP4 SUB DUP2 PUSH1 0x0 DUP8 DUP1 EXTCODESIZE ISZERO DUP1 ISZERO PUSH2 0x1771 JUMPI PUSH1 0x0 DUP1 REVERT JUMPDEST POP GAS CALL ISZERO DUP1 ISZERO PUSH2 0x1785 JUMPI RETURNDATASIZE PUSH1 0x0 DUP1 RETURNDATACOPY RETURNDATASIZE PUSH1 0x0 REVERT JUMPDEST POP POP DUP6 MLOAD PUSH1 0x40 MLOAD DUP7 SWAP4 POP PUSH4 0xFFFFFFFF SWAP1 SWAP2 AND SWAP2 POP PUSH32 0x7CD8783637A6BF8D3B4B69973A28720CFB0F5ABC55D8B85DDE1732D8F22C0EFC SWAP1 PUSH1 0x0 SWAP1 LOG3 JUMPDEST PUSH2 0x17CA DUP5 DUP4 PUSH2 0x1D16 JUMP JUMPDEST POP POP SWAP2 SWAP1 POP JUMP JUMPDEST PUSH4 0xFFFFFFFF DUP1 DUP3 AND PUSH1 0x0 SWAP1 DUP2 MSTORE PUSH1 0xD0 PUSH1 0x20 SWAP1 DUP2 MSTORE PUSH1 0x40 DUP1 DUP4 KECCAK256 DUP2 MLOAD PUSH1 0xE0 DUP2 ADD DUP4 MSTORE DUP2 SLOAD DUP1 DUP8 AND DUP3 MSTORE PUSH5 0x100000000 SWAP1 DIV SWAP1 SWAP6 AND SWAP3 DUP6 ADD SWAP3 SWAP1 SWAP3 MSTORE PUSH1 0x1 DUP3 ADD SLOAD SWAP1 DUP5 ADD MSTORE PUSH1 0x2 DUP2 ADD SLOAD PUSH2 0xFFFF AND PUSH1 0x60 DUP5 ADD MSTORE PUSH1 0x3 DUP2 ADD SLOAD PUSH1 0x80 DUP5 ADD MSTORE PUSH1 0x4 DUP2 ADD SLOAD PUSH1 0xA0 DUP5 ADD MSTORE PUSH1 0x5 ADD SLOAD PUSH1 0xC0 DUP4 ADD DUP2 SWAP1 MSTORE SWAP1 SWAP2 SWAP1 TIMESTAMP LT ISZERO PUSH2 0x1854 JUMPI POP PUSH1 0x1 SWAP3 SWAP2 POP POP JUMP JUMPDEST POP PUSH1 0x0 SWAP3 SWAP2 POP POP JUMP JUMPDEST PUSH1 0x33 DUP1 SLOAD PUSH1 0x1 PUSH1 0x1 PUSH1 0xA0 SHL SUB DUP4 DUP2 AND PUSH1 0x1 PUSH1 0x1 PUSH1 0xA0 SHL SUB NOT DUP4 AND DUP2 OR SWAP1 SWAP4 SSTORE PUSH1 0x40 MLOAD SWAP2 AND SWAP2 SWAP1 DUP3 SWAP1 PUSH32 0x8BE0079C531659141344CD1FD0A4F28419497F9722A3DAAFE3B4186F6B6457E0 SWAP1 PUSH1 0x0 SWAP1 LOG3 POP POP JUMP JUMPDEST PUSH1 0x0 SLOAD PUSH2 0x100 SWAP1 DIV PUSH1 0xFF AND PUSH2 0x18D6 JUMPI PUSH1 0x40 MLOAD PUSH3 0x461BCD PUSH1 0xE5 SHL DUP2 MSTORE PUSH1 0x4 ADD PUSH2 0x620 SWAP1 PUSH2 0x27AB JUMP JUMPDEST PUSH2 0x9E2 PUSH2 0x1DAD JUMP JUMPDEST PUSH1 0x0 SLOAD PUSH2 0x100 SWAP1 DIV PUSH1 0xFF AND PUSH2 0x9E2 JUMPI PUSH1 0x40 MLOAD PUSH3 0x461BCD PUSH1 0xE5 SHL DUP2 MSTORE PUSH1 0x4 ADD PUSH2 0x620 SWAP1 PUSH2 0x27AB JUMP JUMPDEST PUSH1 0x0 DUP1 PUSH1 0xC9 PUSH1 0x0 SWAP1 SLOAD SWAP1 PUSH2 0x100 EXP SWAP1 DIV PUSH1 0x1 PUSH1 0x1 PUSH1 0xA0 SHL SUB AND PUSH1 0x1 PUSH1 0x1 PUSH1 0xA0 SHL SUB AND PUSH4 0x23442C60 PUSH1 0x40 MLOAD DUP2 PUSH4 0xFFFFFFFF AND PUSH1 0xE0 SHL DUP2 MSTORE PUSH1 0x4 ADD PUSH1 0x20 PUSH1 0x40 MLOAD DUP1 DUP4 SUB DUP2 DUP7 GAS STATICCALL ISZERO DUP1 ISZERO PUSH2 0x195B JUMPI RETURNDATASIZE PUSH1 0x0 DUP1 RETURNDATACOPY RETURNDATASIZE PUSH1 0x0 REVERT JUMPDEST POP POP POP POP PUSH1 0x40 MLOAD RETURNDATASIZE PUSH1 0x1F NOT PUSH1 0x1F DUP3 ADD AND DUP3 ADD DUP1 PUSH1 0x40 MSTORE POP DUP2 ADD SWAP1 PUSH2 0x197F SWAP2 SWAP1 PUSH2 0x22A7 JUMP JUMPDEST PUSH1 0x40 MLOAD PUSH4 0x21009789 PUSH1 0xE0 SHL DUP2 MSTORE PUSH4 0xFFFFFFFF DUP7 AND PUSH1 0x4 DUP3 ADD MSTORE PUSH1 0x1 PUSH1 0x1 PUSH1 0xA0 SHL SUB SWAP2 SWAP1 SWAP2 AND SWAP1 PUSH4 0x21009789 SWAP1 PUSH1 0x24 ADD PUSH1 0x0 PUSH1 0x40 MLOAD DUP1 DUP4 SUB DUP2 DUP7 GAS STATICCALL ISZERO DUP1 ISZERO PUSH2 0x19CB JUMPI RETURNDATASIZE PUSH1 0x0 DUP1 RETURNDATACOPY RETURNDATASIZE PUSH1 0x0 REVERT JUMPDEST POP POP POP POP PUSH1 0x40 MLOAD RETURNDATASIZE PUSH1 0x0 DUP3 RETURNDATACOPY PUSH1 0x1F RETURNDATASIZE SWAP1 DUP2 ADD PUSH1 0x1F NOT AND DUP3 ADD PUSH1 0x40 MSTORE PUSH2 0x19F3 SWAP2 SWAP1 DUP2 ADD SWAP1 PUSH2 0x243F JUMP JUMPDEST PUSH2 0x380 DUP2 ADD MLOAD DUP1 MLOAD PUSH2 0x2E0 DUP4 ADD MLOAD SWAP3 SWAP4 POP SWAP1 SWAP2 PUSH2 0x1A11 SWAP1 PUSH1 0x2 PUSH2 0x2731 JUMP JUMPDEST DUP4 PUSH2 0x2C0 ADD MLOAD LT DUP1 ISZERO PUSH2 0x1A24 JUMPI POP PUSH1 0x0 DUP2 GT JUMPDEST DUP1 ISZERO PUSH2 0x1A33 JUMPI POP DUP3 PUSH2 0x420 ADD MLOAD ISZERO JUMPDEST ISZERO PUSH2 0x1B2A JUMPI PUSH1 0x0 JUMPDEST DUP2 DUP2 PUSH2 0xFFFF AND LT ISZERO PUSH2 0x1B24 JUMPI PUSH1 0x0 PUSH1 0xD0 PUSH1 0x0 DUP6 DUP5 PUSH2 0xFFFF AND DUP2 MLOAD DUP2 LT PUSH2 0x1A63 JUMPI PUSH2 0x1A63 PUSH2 0x2748 JUMP JUMPDEST PUSH1 0x20 MUL PUSH1 0x20 ADD ADD MLOAD PUSH4 0xFFFFFFFF AND PUSH4 0xFFFFFFFF AND DUP2 MSTORE PUSH1 0x20 ADD SWAP1 DUP2 MSTORE PUSH1 0x20 ADD PUSH1 0x0 KECCAK256 SWAP1 POP PUSH2 0x1AA0 DUP5 DUP4 PUSH2 0xFFFF AND DUP2 MLOAD DUP2 LT PUSH2 0x1255 JUMPI PUSH2 0x1255 PUSH2 0x2748 JUMP JUMPDEST ISZERO PUSH2 0x1B11 JUMPI PUSH1 0xCC SLOAD PUSH1 0x1 DUP3 ADD SLOAD PUSH1 0x0 SWAP2 PUSH2 0xFFFF DUP1 DUP3 AND SWAP3 PUSH2 0x1ACA SWAP3 PUSH3 0x10000 SWAP1 DIV SWAP1 SWAP2 AND SWAP1 PUSH2 0x2731 JUMP JUMPDEST PUSH2 0x1AD4 SWAP2 SWAP1 PUSH2 0x27F6 JUMP JUMPDEST SWAP1 POP PUSH1 0x0 DUP3 PUSH1 0x4 ADD SLOAD DUP10 PUSH2 0x1AE8 SWAP2 SWAP1 PUSH2 0x2798 JUMP JUMPDEST SWAP1 POP PUSH3 0x15180 PUSH2 0x1AF8 DUP3 DUP5 PUSH2 0x2731 JUMP JUMPDEST PUSH2 0x1B02 SWAP2 SWAP1 PUSH2 0x27F6 JUMP JUMPDEST PUSH2 0x1B0C SWAP1 DUP10 PUSH2 0x271E JUMP JUMPDEST SWAP8 POP POP POP JUMPDEST POP DUP1 PUSH2 0x1B1C DUP2 PUSH2 0x275E JUMP JUMPDEST SWAP2 POP POP PUSH2 0x1A3B JUMP JUMPDEST POP PUSH2 0x1B2F JUMP JUMPDEST PUSH1 0x0 SWAP4 POP JUMPDEST POP POP POP SWAP3 SWAP2 POP POP JUMP JUMPDEST PUSH1 0xC9 DUP1 SLOAD PUSH1 0x0 SWAP2 DUP3 SWAP2 PUSH1 0x1 PUSH1 0xA0 SHL SWAP1 DIV PUSH4 0xFFFFFFFF AND SWAP1 PUSH1 0x14 PUSH2 0x1B5A DUP4 PUSH2 0x2818 JUMP JUMPDEST SWAP2 SWAP1 PUSH2 0x100 EXP DUP2 SLOAD DUP2 PUSH4 0xFFFFFFFF MUL NOT AND SWAP1 DUP4 PUSH4 0xFFFFFFFF AND MUL OR SWAP1 SSTORE POP SWAP1 POP PUSH1 0x0 PUSH1 0xD0 PUSH1 0x0 DUP4 PUSH1 0x1 PUSH2 0x1B8D SWAP2 SWAP1 PUSH2 0x2831 JUMP JUMPDEST PUSH4 0xFFFFFFFF AND DUP2 MSTORE PUSH1 0x20 DUP2 ADD SWAP2 SWAP1 SWAP2 MSTORE PUSH1 0x40 ADD PUSH1 0x0 KECCAK256 SWAP1 POP PUSH2 0x1BB0 DUP3 PUSH1 0x1 PUSH2 0x2831 JUMP JUMPDEST DUP2 SLOAD PUSH4 0xFFFFFFFF DUP11 DUP2 AND PUSH5 0x100000000 MUL PUSH8 0xFFFFFFFFFFFFFFFF NOT SWAP1 SWAP3 AND SWAP3 AND SWAP2 SWAP1 SWAP2 OR OR DUP2 SSTORE PUSH1 0x1 DUP2 ADD DUP8 SWAP1 SSTORE PUSH1 0xCC SLOAD PUSH1 0x2 DUP3 ADD DUP1 SLOAD PUSH2 0xFFFF NOT AND PUSH2 0xFFFF PUSH3 0x10000 SWAP1 SWAP4 DIV SWAP3 SWAP1 SWAP3 AND SWAP2 SWAP1 SWAP2 OR SWAP1 SSTORE PUSH1 0x3 DUP2 ADD DUP7 SWAP1 SSTORE PUSH1 0x4 DUP2 ADD DUP6 SWAP1 SSTORE PUSH2 0x1C18 DUP5 DUP8 PUSH2 0x271E JUMP JUMPDEST DUP2 PUSH1 0x5 ADD DUP2 SWAP1 SSTORE POP DUP7 PUSH1 0xCB PUSH1 0x0 DUP3 DUP3 SLOAD PUSH2 0x1C32 SWAP2 SWAP1 PUSH2 0x271E JUMP JUMPDEST SWAP1 SWAP2 SSTORE POP PUSH2 0x1C43 SWAP1 POP DUP3 PUSH1 0x1 PUSH2 0x2831 JUMP JUMPDEST SWAP9 SWAP8 POP POP POP POP POP POP POP POP JUMP JUMPDEST PUSH1 0x1 PUSH1 0x1 PUSH1 0xA0 SHL SUB DUP2 AND EXTCODESIZE PUSH2 0x1CBC JUMPI PUSH1 0x40 MLOAD PUSH3 0x461BCD PUSH1 0xE5 SHL DUP2 MSTORE PUSH1 0x20 PUSH1 0x4 DUP3 ADD MSTORE PUSH1 0x2D PUSH1 0x24 DUP3 ADD MSTORE PUSH32 0x455243313936373A206E657720696D706C656D656E746174696F6E206973206E PUSH1 0x44 DUP3 ADD MSTORE PUSH13 0x1BDD08184818DBDB9D1C9858DD PUSH1 0x9A SHL PUSH1 0x64 DUP3 ADD MSTORE PUSH1 0x84 ADD PUSH2 0x620 JUMP JUMPDEST PUSH1 0x0 DUP1 MLOAD PUSH1 0x20 PUSH2 0x28A5 DUP4 CODECOPY DUP2 MLOAD SWAP2 MSTORE DUP1 SLOAD PUSH1 0x1 PUSH1 0x1 PUSH1 0xA0 SHL SUB NOT AND PUSH1 0x1 PUSH1 0x1 PUSH1 0xA0 SHL SUB SWAP3 SWAP1 SWAP3 AND SWAP2 SWAP1 SWAP2 OR SWAP1 SSTORE JUMP JUMPDEST PUSH2 0x1CF4 DUP4 PUSH2 0x1DDD JUMP JUMPDEST PUSH1 0x0 DUP3 MLOAD GT DUP1 PUSH2 0x1D01 JUMPI POP DUP1 JUMPDEST ISZERO PUSH2 0x59C JUMPI PUSH2 0x1D10 DUP4 DUP4 PUSH2 0x1E1D JUMP JUMPDEST POP POP POP POP JUMP JUMPDEST PUSH2 0x380 DUP3 ADD MLOAD DUP1 MLOAD PUSH1 0x0 JUMPDEST DUP2 DUP2 PUSH2 0xFFFF AND LT ISZERO PUSH2 0x1DA6 JUMPI PUSH1 0x0 PUSH1 0xD0 PUSH1 0x0 DUP6 DUP5 PUSH2 0xFFFF AND DUP2 MLOAD DUP2 LT PUSH2 0x1D49 JUMPI PUSH2 0x1D49 PUSH2 0x2748 JUMP JUMPDEST PUSH1 0x20 MUL PUSH1 0x20 ADD ADD MLOAD PUSH4 0xFFFFFFFF AND PUSH4 0xFFFFFFFF AND DUP2 MSTORE PUSH1 0x20 ADD SWAP1 DUP2 MSTORE PUSH1 0x20 ADD PUSH1 0x0 KECCAK256 SWAP1 POP PUSH2 0x1D86 DUP5 DUP4 PUSH2 0xFFFF AND DUP2 MLOAD DUP2 LT PUSH2 0x1255 JUMPI PUSH2 0x1255 PUSH2 0x2748 JUMP JUMPDEST ISZERO PUSH2 0x1D93 JUMPI PUSH1 0x4 DUP2 ADD DUP6 SWAP1 SSTORE JUMPDEST POP DUP1 PUSH2 0x1D9E DUP2 PUSH2 0x275E JUMP JUMPDEST SWAP2 POP POP PUSH2 0x1D21 JUMP JUMPDEST POP POP POP POP POP JUMP JUMPDEST PUSH1 0x0 SLOAD PUSH2 0x100 SWAP1 DIV PUSH1 0xFF AND PUSH2 0x1DD4 JUMPI PUSH1 0x40 MLOAD PUSH3 0x461BCD PUSH1 0xE5 SHL DUP2 MSTORE PUSH1 0x4 ADD PUSH2 0x620 SWAP1 PUSH2 0x27AB JUMP JUMPDEST PUSH2 0x9E2 CALLER PUSH2 0x185D JUMP JUMPDEST PUSH2 0x1DE6 DUP2 PUSH2 0x1C4F JUMP JUMPDEST PUSH1 0x40 MLOAD PUSH1 0x1 PUSH1 0x1 PUSH1 0xA0 SHL SUB DUP3 AND SWAP1 PUSH32 0xBC7CD75A20EE27FD9ADEBAB32041F755214DBC6BFFA90CC0225B39DA2E5C2D3B SWAP1 PUSH1 0x0 SWAP1 LOG2 POP JUMP JUMPDEST PUSH1 0x60 PUSH1 0x1 PUSH1 0x1 PUSH1 0xA0 SHL SUB DUP4 AND EXTCODESIZE PUSH2 0x1E85 JUMPI PUSH1 0x40 MLOAD PUSH3 0x461BCD PUSH1 0xE5 SHL DUP2 MSTORE PUSH1 0x20 PUSH1 0x4 DUP3 ADD MSTORE PUSH1 0x26 PUSH1 0x24 DUP3 ADD MSTORE PUSH32 0x416464726573733A2064656C65676174652063616C6C20746F206E6F6E2D636F PUSH1 0x44 DUP3 ADD MSTORE PUSH6 0x1B9D1C9858DD PUSH1 0xD2 SHL PUSH1 0x64 DUP3 ADD MSTORE PUSH1 0x84 ADD PUSH2 0x620 JUMP JUMPDEST PUSH1 0x0 DUP1 DUP5 PUSH1 0x1 PUSH1 0x1 PUSH1 0xA0 SHL SUB AND DUP5 PUSH1 0x40 MLOAD PUSH2 0x1EA0 SWAP2 SWAP1 PUSH2 0x2855 JUMP JUMPDEST PUSH1 0x0 PUSH1 0x40 MLOAD DUP1 DUP4 SUB DUP2 DUP6 GAS DELEGATECALL SWAP2 POP POP RETURNDATASIZE DUP1 PUSH1 0x0 DUP2 EQ PUSH2 0x1EDB JUMPI PUSH1 0x40 MLOAD SWAP2 POP PUSH1 0x1F NOT PUSH1 0x3F RETURNDATASIZE ADD AND DUP3 ADD PUSH1 0x40 MSTORE RETURNDATASIZE DUP3 MSTORE RETURNDATASIZE PUSH1 0x0 PUSH1 0x20 DUP5 ADD RETURNDATACOPY PUSH2 0x1EE0 JUMP JUMPDEST PUSH1 0x60 SWAP2 POP JUMPDEST POP SWAP2 POP SWAP2 POP PUSH2 0x1F08 DUP3 DUP3 PUSH1 0x40 MLOAD DUP1 PUSH1 0x60 ADD PUSH1 0x40 MSTORE DUP1 PUSH1 0x27 DUP2 MSTORE PUSH1 0x20 ADD PUSH2 0x28C5 PUSH1 0x27 SWAP2 CODECOPY PUSH2 0x1F11 JUMP JUMPDEST SWAP6 SWAP5 POP POP POP POP POP JUMP JUMPDEST PUSH1 0x60 DUP4 ISZERO PUSH2 0x1F20 JUMPI POP DUP2 PUSH2 0x1F2A JUMP JUMPDEST PUSH2 0x1F2A DUP4 DUP4 PUSH2 0x1F31 JUMP JUMPDEST SWAP4 SWAP3 POP POP POP JUMP JUMPDEST DUP2 MLOAD ISZERO PUSH2 0x1F41 JUMPI DUP2 MLOAD DUP1 DUP4 PUSH1 0x20 ADD REVERT JUMPDEST DUP1 PUSH1 0x40 MLOAD PUSH3 0x461BCD PUSH1 0xE5 SHL DUP2 MSTORE PUSH1 0x4 ADD PUSH2 0x620 SWAP2 SWAP1 PUSH2 0x2871 JUMP JUMPDEST PUSH1 0x1 PUSH1 0x1 PUSH1 0xA0 SHL SUB DUP2 AND DUP2 EQ PUSH2 0x5D5 JUMPI PUSH1 0x0 DUP1 REVERT JUMPDEST PUSH1 0x0 DUP1 PUSH1 0x40 DUP4 DUP6 SUB SLT ISZERO PUSH2 0x1F83 JUMPI PUSH1 0x0 DUP1 REVERT JUMPDEST DUP3 CALLDATALOAD PUSH2 0x1F8E DUP2 PUSH2 0x1F5B JUMP JUMPDEST SWAP5 PUSH1 0x20 SWAP4 SWAP1 SWAP4 ADD CALLDATALOAD SWAP4 POP POP POP JUMP JUMPDEST PUSH1 0x0 PUSH1 0x20 DUP3 DUP5 SUB SLT ISZERO PUSH2 0x1FAE JUMPI PUSH1 0x0 DUP1 REVERT JUMPDEST DUP2 CALLDATALOAD PUSH2 0x1F2A DUP2 PUSH2 0x1F5B JUMP JUMPDEST PUSH4 0x4E487B71 PUSH1 0xE0 SHL PUSH1 0x0 MSTORE PUSH1 0x41 PUSH1 0x4 MSTORE PUSH1 0x24 PUSH1 0x0 REVERT JUMPDEST PUSH1 0x40 MLOAD PUSH2 0x480 DUP2 ADD PUSH8 0xFFFFFFFFFFFFFFFF DUP2 GT DUP3 DUP3 LT OR ISZERO PUSH2 0x1FF3 JUMPI PUSH2 0x1FF3 PUSH2 0x1FB9 JUMP JUMPDEST PUSH1 0x40 MSTORE SWAP1 JUMP JUMPDEST PUSH1 0x40 MLOAD PUSH1 0x1F DUP3 ADD PUSH1 0x1F NOT AND DUP2 ADD PUSH8 0xFFFFFFFFFFFFFFFF DUP2 GT DUP3 DUP3 LT OR ISZERO PUSH2 0x2022 JUMPI PUSH2 0x2022 PUSH2 0x1FB9 JUMP JUMPDEST PUSH1 0x40 MSTORE SWAP2 SWAP1 POP JUMP JUMPDEST PUSH1 0x0 PUSH8 0xFFFFFFFFFFFFFFFF DUP3 GT ISZERO PUSH2 0x2044 JUMPI PUSH2 0x2044 PUSH2 0x1FB9 JUMP JUMPDEST POP PUSH1 0x1F ADD PUSH1 0x1F NOT AND PUSH1 0x20 ADD SWAP1 JUMP JUMPDEST PUSH1 0x0 DUP1 PUSH1 0x40 DUP4 DUP6 SUB SLT ISZERO PUSH2 0x2065 JUMPI PUSH1 0x0 DUP1 REVERT JUMPDEST DUP3 CALLDATALOAD PUSH2 0x2070 DUP2 PUSH2 0x1F5B JUMP JUMPDEST SWAP2 POP PUSH1 0x20 DUP4 ADD CALLDATALOAD PUSH8 0xFFFFFFFFFFFFFFFF DUP2 GT ISZERO PUSH2 0x208C JUMPI PUSH1 0x0 DUP1 REVERT JUMPDEST DUP4 ADD PUSH1 0x1F DUP2 ADD DUP6 SGT PUSH2 0x209D JUMPI PUSH1 0x0 DUP1 REVERT JUMPDEST DUP1 CALLDATALOAD PUSH2 0x20B0 PUSH2 0x20AB DUP3 PUSH2 0x202A JUMP JUMPDEST PUSH2 0x1FF9 JUMP JUMPDEST DUP2 DUP2 MSTORE DUP7 PUSH1 0x20 DUP4 DUP6 ADD ADD GT ISZERO PUSH2 0x20C5 JUMPI PUSH1 0x0 DUP1 REVERT JUMPDEST DUP2 PUSH1 0x20 DUP5 ADD PUSH1 0x20 DUP4 ADD CALLDATACOPY PUSH1 0x0 PUSH1 0x20 DUP4 DUP4 ADD ADD MSTORE DUP1 SWAP4 POP POP POP POP SWAP3 POP SWAP3 SWAP1 POP JUMP JUMPDEST PUSH4 0xFFFFFFFF DUP2 AND DUP2 EQ PUSH2 0x5D5 JUMPI PUSH1 0x0 DUP1 REVERT JUMPDEST PUSH1 0x0 PUSH1 0x20 DUP3 DUP5 SUB SLT ISZERO PUSH2 0x2109 JUMPI PUSH1 0x0 DUP1 REVERT JUMPDEST DUP2 CALLDATALOAD PUSH2 0x1F2A DUP2 PUSH2 0x20E5 JUMP JUMPDEST PUSH1 0x0 DUP1 PUSH1 0x0 PUSH1 0x60 DUP5 DUP7 SUB SLT ISZERO PUSH2 0x2129 JUMPI PUSH1 0x0 DUP1 REVERT JUMPDEST DUP4 CALLDATALOAD PUSH2 0xFFFF DUP2 AND DUP2 EQ PUSH2 0x213B JUMPI PUSH1 0x0 DUP1 REVERT JUMPDEST SWAP6 PUSH1 0x20 DUP6 ADD CALLDATALOAD SWAP6 POP PUSH1 0x40 SWAP1 SWAP5 ADD CALLDATALOAD SWAP4 SWAP3 POP POP POP JUMP JUMPDEST PUSH1 0x0 DUP1 PUSH1 0x0 DUP1 PUSH1 0x0 PUSH1 0xA0 DUP7 DUP9 SUB SLT ISZERO PUSH2 0x2168 JUMPI PUSH1 0x0 DUP1 REVERT JUMPDEST DUP6 CALLDATALOAD PUSH2 0x2173 DUP2 PUSH2 0x20E5 JUMP JUMPDEST SWAP8 PUSH1 0x20 DUP8 ADD CALLDATALOAD SWAP8 POP PUSH1 0x40 DUP8 ADD CALLDATALOAD SWAP7 PUSH1 0x60 DUP2 ADD CALLDATALOAD SWAP7 POP PUSH1 0x80 ADD CALLDATALOAD SWAP5 POP SWAP3 POP POP POP JUMP JUMPDEST PUSH1 0x20 DUP1 DUP3 MSTORE PUSH1 0x2C SWAP1 DUP3 ADD MSTORE PUSH32 0x46756E6374696F6E206D7573742062652063616C6C6564207468726F75676820 PUSH1 0x40 DUP3 ADD MSTORE PUSH12 0x19195B1959D85D1958D85B1B PUSH1 0xA2 SHL PUSH1 0x60 DUP3 ADD MSTORE PUSH1 0x80 ADD SWAP1 JUMP JUMPDEST PUSH1 0x20 DUP1 DUP3 MSTORE PUSH1 0x2C SWAP1 DUP3 ADD MSTORE PUSH32 0x46756E6374696F6E206D7573742062652063616C6C6564207468726F75676820 PUSH1 0x40 DUP3 ADD MSTORE PUSH12 0x6163746976652070726F7879 PUSH1 0xA0 SHL PUSH1 0x60 DUP3 ADD MSTORE PUSH1 0x80 ADD SWAP1 JUMP JUMPDEST DUP1 MLOAD DUP1 ISZERO ISZERO DUP2 EQ PUSH2 0x9BA JUMPI PUSH1 0x0 DUP1 REVERT JUMPDEST PUSH1 0x0 PUSH1 0x20 DUP3 DUP5 SUB SLT ISZERO PUSH2 0x224E JUMPI PUSH1 0x0 DUP1 REVERT JUMPDEST PUSH2 0x1F2A DUP3 PUSH2 0x222C JUMP JUMPDEST PUSH1 0x20 DUP1 DUP3 MSTORE PUSH1 0x25 SWAP1 DUP3 ADD MSTORE PUSH32 0x4F6E6C792041646D696E2063616E2061636365737320746869732066756E6374 PUSH1 0x40 DUP3 ADD MSTORE PUSH5 0x34B7B71717 PUSH1 0xD9 SHL PUSH1 0x60 DUP3 ADD MSTORE PUSH1 0x80 ADD SWAP1 JUMP JUMPDEST DUP1 MLOAD PUSH2 0x9BA DUP2 PUSH2 0x1F5B JUMP JUMPDEST PUSH1 0x0 PUSH1 0x20 DUP3 DUP5 SUB SLT ISZERO PUSH2 0x22B9 JUMPI PUSH1 0x0 DUP1 REVERT JUMPDEST DUP2 MLOAD PUSH2 0x1F2A DUP2 PUSH2 0x1F5B JUMP JUMPDEST DUP1 MLOAD PUSH2 0x9BA DUP2 PUSH2 0x20E5 JUMP JUMPDEST PUSH1 0x0 JUMPDEST DUP4 DUP2 LT ISZERO PUSH2 0x22EA JUMPI DUP2 DUP2 ADD MLOAD DUP4 DUP3 ADD MSTORE PUSH1 0x20 ADD PUSH2 0x22D2 JUMP JUMPDEST POP POP PUSH1 0x0 SWAP2 ADD MSTORE JUMP JUMPDEST PUSH1 0x0 DUP3 PUSH1 0x1F DUP4 ADD SLT PUSH2 0x2304 JUMPI PUSH1 0x0 DUP1 REVERT JUMPDEST DUP2 MLOAD PUSH2 0x2312 PUSH2 0x20AB DUP3 PUSH2 0x202A JUMP JUMPDEST DUP2 DUP2 MSTORE DUP5 PUSH1 0x20 DUP4 DUP7 ADD ADD GT ISZERO PUSH2 0x2327 JUMPI PUSH1 0x0 DUP1 REVERT JUMPDEST PUSH2 0x2338 DUP3 PUSH1 0x20 DUP4 ADD PUSH1 0x20 DUP8 ADD PUSH2 0x22CF JUMP JUMPDEST SWAP5 SWAP4 POP POP POP POP JUMP JUMPDEST PUSH1 0x0 PUSH8 0xFFFFFFFFFFFFFFFF DUP3 GT ISZERO PUSH2 0x235A JUMPI PUSH2 0x235A PUSH2 0x1FB9 JUMP JUMPDEST POP PUSH1 0x5 SHL PUSH1 0x20 ADD SWAP1 JUMP JUMPDEST PUSH1 0x0 DUP3 PUSH1 0x1F DUP4 ADD SLT PUSH2 0x2375 JUMPI PUSH1 0x0 DUP1 REVERT JUMPDEST DUP2 MLOAD PUSH1 0x20 PUSH2 0x2385 PUSH2 0x20AB DUP4 PUSH2 0x2340 JUMP JUMPDEST DUP3 DUP2 MSTORE PUSH1 0x5 SWAP3 SWAP1 SWAP3 SHL DUP5 ADD DUP2 ADD SWAP2 DUP2 DUP2 ADD SWAP1 DUP7 DUP5 GT ISZERO PUSH2 0x23A4 JUMPI PUSH1 0x0 DUP1 REVERT JUMPDEST DUP3 DUP7 ADD JUMPDEST DUP5 DUP2 LT ISZERO PUSH2 0x23C8 JUMPI DUP1 MLOAD PUSH2 0x23BB DUP2 PUSH2 0x20E5 JUMP JUMPDEST DUP4 MSTORE SWAP2 DUP4 ADD SWAP2 DUP4 ADD PUSH2 0x23A8 JUMP JUMPDEST POP SWAP7 SWAP6 POP POP POP POP POP POP JUMP JUMPDEST PUSH1 0x0 DUP3 PUSH1 0x1F DUP4 ADD SLT PUSH2 0x23E4 JUMPI PUSH1 0x0 DUP1 REVERT JUMPDEST DUP2 MLOAD PUSH1 0x20 PUSH2 0x23F4 PUSH2 0x20AB DUP4 PUSH2 0x2340 JUMP JUMPDEST DUP3 DUP2 MSTORE PUSH1 0x5 SWAP3 SWAP1 SWAP3 SHL DUP5 ADD DUP2 ADD SWAP2 DUP2 DUP2 ADD SWAP1 DUP7 DUP5 GT ISZERO PUSH2 0x2413 JUMPI PUSH1 0x0 DUP1 REVERT JUMPDEST DUP3 DUP7 ADD JUMPDEST DUP5 DUP2 LT ISZERO PUSH2 0x23C8 JUMPI DUP1 MLOAD DUP4 MSTORE SWAP2 DUP4 ADD SWAP2 DUP4 ADD PUSH2 0x2417 JUMP JUMPDEST DUP1 MLOAD PUSH1 0xFF DUP2 AND DUP2 EQ PUSH2 0x9BA JUMPI PUSH1 0x0 DUP1 REVERT JUMPDEST PUSH1 0x0 PUSH1 0x20 DUP3 DUP5 SUB SLT ISZERO PUSH2 0x2451 JUMPI PUSH1 0x0 DUP1 REVERT JUMPDEST DUP2 MLOAD PUSH8 0xFFFFFFFFFFFFFFFF DUP1 DUP3 GT ISZERO PUSH2 0x2469 JUMPI PUSH1 0x0 DUP1 REVERT JUMPDEST SWAP1 DUP4 ADD SWAP1 PUSH2 0x480 DUP3 DUP7 SUB SLT ISZERO PUSH2 0x247E JUMPI PUSH1 0x0 DUP1 REVERT JUMPDEST PUSH2 0x2486 PUSH2 0x1FCF JUMP JUMPDEST PUSH2 0x248F DUP4 PUSH2 0x22C4 JUMP JUMPDEST DUP2 MSTORE PUSH1 0x20 DUP4 ADD MLOAD DUP3 DUP2 GT ISZERO PUSH2 0x24A3 JUMPI PUSH1 0x0 DUP1 REVERT JUMPDEST PUSH2 0x24AF DUP8 DUP3 DUP7 ADD PUSH2 0x22F3 JUMP JUMPDEST PUSH1 0x20 DUP4 ADD MSTORE POP PUSH1 0x40 DUP4 ADD MLOAD PUSH1 0x40 DUP3 ADD MSTORE PUSH2 0x24CB PUSH1 0x60 DUP5 ADD PUSH2 0x222C JUMP JUMPDEST PUSH1 0x60 DUP3 ADD MSTORE PUSH2 0x24DC PUSH1 0x80 DUP5 ADD PUSH2 0x229C JUMP JUMPDEST PUSH1 0x80 DUP3 ADD MSTORE PUSH2 0x24ED PUSH1 0xA0 DUP5 ADD PUSH2 0x22C4 JUMP JUMPDEST PUSH1 0xA0 DUP3 ADD MSTORE PUSH2 0x24FE PUSH1 0xC0 DUP5 ADD PUSH2 0x222C JUMP JUMPDEST PUSH1 0xC0 DUP3 ADD MSTORE PUSH1 0xE0 DUP4 ADD MLOAD DUP3 DUP2 GT ISZERO PUSH2 0x2515 JUMPI PUSH1 0x0 DUP1 REVERT JUMPDEST PUSH2 0x2521 DUP8 DUP3 DUP7 ADD PUSH2 0x2364 JUMP JUMPDEST PUSH1 0xE0 DUP4 ADD MSTORE POP PUSH2 0x100 DUP1 DUP5 ADD MLOAD DUP4 DUP2 GT ISZERO PUSH2 0x253B JUMPI PUSH1 0x0 DUP1 REVERT JUMPDEST PUSH2 0x2547 DUP9 DUP3 DUP8 ADD PUSH2 0x2364 JUMP JUMPDEST DUP3 DUP5 ADD MSTORE POP POP PUSH2 0x120 DUP1 DUP5 ADD MLOAD DUP4 DUP2 GT ISZERO PUSH2 0x2561 JUMPI PUSH1 0x0 DUP1 REVERT JUMPDEST PUSH2 0x256D DUP9 DUP3 DUP8 ADD PUSH2 0x2364 JUMP JUMPDEST DUP3 DUP5 ADD MSTORE POP POP PUSH2 0x140 DUP1 DUP5 ADD MLOAD DUP4 DUP2 GT ISZERO PUSH2 0x2587 JUMPI PUSH1 0x0 DUP1 REVERT JUMPDEST PUSH2 0x2593 DUP9 DUP3 DUP8 ADD PUSH2 0x23D3 JUMP JUMPDEST SWAP2 DUP4 ADD SWAP2 SWAP1 SWAP2 MSTORE POP PUSH2 0x160 DUP4 DUP2 ADD MLOAD SWAP1 DUP3 ADD MSTORE PUSH2 0x180 DUP1 DUP5 ADD MLOAD SWAP1 DUP3 ADD MSTORE PUSH2 0x1A0 DUP1 DUP5 ADD MLOAD SWAP1 DUP3 ADD MSTORE PUSH2 0x1C0 DUP1 DUP5 ADD MLOAD SWAP1 DUP3 ADD MSTORE PUSH2 0x1E0 DUP1 DUP5 ADD MLOAD SWAP1 DUP3 ADD MSTORE PUSH2 0x200 DUP1 DUP5 ADD MLOAD SWAP1 DUP3 ADD MSTORE PUSH2 0x220 DUP1 DUP5 ADD MLOAD SWAP1 DUP3 ADD MSTORE PUSH2 0x240 DUP1 DUP5 ADD MLOAD SWAP1 DUP3 ADD MSTORE PUSH2 0x260 PUSH2 0x2601 DUP2 DUP6 ADD PUSH2 0x242E JUMP JUMPDEST SWAP1 DUP3 ADD MSTORE PUSH2 0x280 PUSH2 0x2613 DUP5 DUP3 ADD PUSH2 0x22C4 JUMP JUMPDEST SWAP1 DUP3 ADD MSTORE PUSH2 0x2A0 DUP4 DUP2 ADD MLOAD SWAP1 DUP3 ADD MSTORE PUSH2 0x2C0 DUP1 DUP5 ADD MLOAD SWAP1 DUP3 ADD MSTORE PUSH2 0x2E0 DUP1 DUP5 ADD MLOAD SWAP1 DUP3 ADD MSTORE PUSH2 0x300 DUP1 DUP5 ADD MLOAD SWAP1 DUP3 ADD MSTORE PUSH2 0x320 DUP1 DUP5 ADD MLOAD SWAP1 DUP3 ADD MSTORE PUSH2 0x340 DUP1 DUP5 ADD MLOAD SWAP1 DUP3 ADD MSTORE PUSH2 0x360 DUP1 DUP5 ADD MLOAD SWAP1 DUP3 ADD MSTORE PUSH2 0x380 DUP1 DUP5 ADD MLOAD DUP4 DUP2 GT ISZERO PUSH2 0x2678 JUMPI PUSH1 0x0 DUP1 REVERT JUMPDEST PUSH2 0x2684 DUP9 DUP3 DUP8 ADD PUSH2 0x2364 JUMP JUMPDEST SWAP2 DUP4 ADD SWAP2 SWAP1 SWAP2 MSTORE POP PUSH2 0x3A0 DUP4 DUP2 ADD MLOAD SWAP1 DUP3 ADD MSTORE PUSH2 0x3C0 DUP1 DUP5 ADD MLOAD SWAP1 DUP3 ADD MSTORE PUSH2 0x3E0 DUP1 DUP5 ADD MLOAD SWAP1 DUP3 ADD MSTORE PUSH2 0x400 SWAP2 POP PUSH2 0x26BD DUP3 DUP5 ADD PUSH2 0x222C JUMP JUMPDEST DUP3 DUP3 ADD MSTORE PUSH2 0x420 SWAP2 POP PUSH2 0x26D1 DUP3 DUP5 ADD PUSH2 0x222C JUMP JUMPDEST DUP3 DUP3 ADD MSTORE PUSH2 0x440 SWAP2 POP PUSH2 0x26E5 DUP3 DUP5 ADD PUSH2 0x222C JUMP JUMPDEST DUP3 DUP3 ADD MSTORE PUSH2 0x460 SWAP2 POP PUSH2 0x26F9 DUP3 DUP5 ADD PUSH2 0x222C JUMP JUMPDEST SWAP2 DUP2 ADD SWAP2 SWAP1 SWAP2 MSTORE SWAP5 SWAP4 POP POP POP POP JUMP JUMPDEST PUSH4 0x4E487B71 PUSH1 0xE0 SHL PUSH1 0x0 MSTORE PUSH1 0x11 PUSH1 0x4 MSTORE PUSH1 0x24 PUSH1 0x0 REVERT JUMPDEST DUP1 DUP3 ADD DUP1 DUP3 GT ISZERO PUSH2 0x9CA JUMPI PUSH2 0x9CA PUSH2 0x2708 JUMP JUMPDEST DUP1 DUP3 MUL DUP2 ISZERO DUP3 DUP3 DIV DUP5 EQ OR PUSH2 0x9CA JUMPI PUSH2 0x9CA PUSH2 0x2708 JUMP JUMPDEST PUSH4 0x4E487B71 PUSH1 0xE0 SHL PUSH1 0x0 MSTORE PUSH1 0x32 PUSH1 0x4 MSTORE PUSH1 0x24 PUSH1 0x0 REVERT JUMPDEST PUSH1 0x0 PUSH2 0xFFFF DUP1 DUP4 AND DUP2 DUP2 SUB PUSH2 0x2775 JUMPI PUSH2 0x2775 PUSH2 0x2708 JUMP JUMPDEST PUSH1 0x1 ADD SWAP4 SWAP3 POP POP POP JUMP JUMPDEST PUSH1 0x0 PUSH1 0x20 DUP3 DUP5 SUB SLT ISZERO PUSH2 0x2791 JUMPI PUSH1 0x0 DUP1 REVERT JUMPDEST POP MLOAD SWAP2 SWAP1 POP JUMP JUMPDEST DUP2 DUP2 SUB DUP2 DUP2 GT ISZERO PUSH2 0x9CA JUMPI PUSH2 0x9CA PUSH2 0x2708 JUMP JUMPDEST PUSH1 0x20 DUP1 DUP3 MSTORE PUSH1 0x2B SWAP1 DUP3 ADD MSTORE PUSH32 0x496E697469616C697A61626C653A20636F6E7472616374206973206E6F742069 PUSH1 0x40 DUP3 ADD MSTORE PUSH11 0x6E697469616C697A696E67 PUSH1 0xA8 SHL PUSH1 0x60 DUP3 ADD MSTORE PUSH1 0x80 ADD SWAP1 JUMP JUMPDEST PUSH1 0x0 DUP3 PUSH2 0x2813 JUMPI PUSH4 0x4E487B71 PUSH1 0xE0 SHL PUSH1 0x0 MSTORE PUSH1 0x12 PUSH1 0x4 MSTORE PUSH1 0x24 PUSH1 0x0 REVERT JUMPDEST POP DIV SWAP1 JUMP JUMPDEST PUSH1 0x0 PUSH4 0xFFFFFFFF DUP1 DUP4 AND DUP2 DUP2 SUB PUSH2 0x2775 JUMPI PUSH2 0x2775 PUSH2 0x2708 JUMP JUMPDEST PUSH4 0xFFFFFFFF DUP2 DUP2 AND DUP4 DUP3 AND ADD SWAP1 DUP1 DUP3 GT ISZERO PUSH2 0x284E JUMPI PUSH2 0x284E PUSH2 0x2708 JUMP JUMPDEST POP SWAP3 SWAP2 POP POP JUMP JUMPDEST PUSH1 0x0 DUP3 MLOAD PUSH2 0x2867 DUP2 DUP5 PUSH1 0x20 DUP8 ADD PUSH2 0x22CF JUMP JUMPDEST SWAP2 SWAP1 SWAP2 ADD SWAP3 SWAP2 POP POP JUMP JUMPDEST PUSH1 0x20 DUP2 MSTORE PUSH1 0x0 DUP3 MLOAD DUP1 PUSH1 0x20 DUP5 ADD MSTORE PUSH2 0x2890 DUP2 PUSH1 0x40 DUP6 ADD PUSH1 0x20 DUP8 ADD PUSH2 0x22CF JUMP JUMPDEST PUSH1 0x1F ADD PUSH1 0x1F NOT AND SWAP2 SWAP1 SWAP2 ADD PUSH1 0x40 ADD SWAP3 SWAP2 POP POP JUMP INVALID CALLDATASIZE ADDMOD SWAP5 LOG1 EXTCODESIZE LOG1 LOG3 0x21 MOD PUSH8 0xC828492DB98DCA3E KECCAK256 PUSH23 0xCC3735A920A3CA505D382BBC416464726573733A206C6F PUSH24 0x2D6C6576656C2064656C65676174652063616C6C20666169 PUSH13 0x6564A264697066735822122097 SAR SUB 0xC1 0xE7 INVALID SWAP14 0x22 SWAP14 0xC0 0x2D SHR 0xEB AND 0x25 CODESIZE 0xD2 PUSH16 0x3B2BD7FB7B222458341580977BE26473 PUSH16 0x6C634300081200330000000000000000 "},"methodIdentifiers":{"_roiClaimTimelimit()":"7e09c75e","_roiDuration()":"81b0e086","_roiRate()":"abab358f","activateROIAdmin(uint32,uint256,uint256,uint256,uint256)":"d275f14e","claimROI(uint32)":"770ceeb1","claimROIAdmin(uint32)":"536c3c6b","decimals()":"313ce567","getROIAccount(uint32)":"c3ab5ebf","getUserIDTotalROI(uint32)":"bf46de63","getUserTotalActiveROIValue(uint32)":"ea62f715","initialize()":"8129fc1c","isPayROI()":"af2f39d1","isROIActive(uint32)":"55332a85","owner()":"8da5cb5b","proxiableUUID()":"52d1902d","renounceOwnership()":"715018a6","sendETHAdmin(address,uint256)":"0b243dad","setROIAdmin(uint16,uint256,uint256)":"9a9e3c42","setROIIDCount(uint32)":"d895af2c","totalROIIDs()":"a1b80175","totalROIPaid()":"30abbcc5","totalROIValue()":"eaec6364","transferOwnership(address)":"f2fde38b","upgradeTo(address)":"3659cfe6","upgradeToAndCall(address,bytes)":"4f1ef286","withdrawETHAdmin()":"35759788","withdrawTokensAdmin(address,uint256)":"a0b6105f"}},"storageLayout":{"storage":[{"astId":527,"contract":"contracts/ROIV1Upgradeable.sol:ROIV1Upgradeable","label":"_initialized","offset":0,"slot":"0","type":"t_uint8"},{"astId":530,"contract":"contracts/ROIV1Upgradeable.sol:ROIV1Upgradeable","label":"_initializing","offset":1,"slot":"0","type":"t_bool"},{"astId":1228,"contract":"contracts/ROIV1Upgradeable.sol:ROIV1Upgradeable","label":"__gap","offset":0,"slot":"1","type":"t_array(t_uint256)50_storage"},{"astId":10,"contract":"contracts/ROIV1Upgradeable.sol:ROIV1Upgradeable","label":"_owner","offset":0,"slot":"51","type":"t_address"},{"astId":130,"contract":"contracts/ROIV1Upgradeable.sol:ROIV1Upgradeable","label":"__gap","offset":0,"slot":"52","type":"t_array(t_uint256)49_storage"},{"astId":509,"contract":"contracts/ROIV1Upgradeable.sol:ROIV1Upgradeable","label":"__gap","offset":0,"slot":"101","type":"t_array(t_uint256)50_storage"},{"astId":824,"contract":"contracts/ROIV1Upgradeable.sol:ROIV1Upgradeable","label":"__gap","offset":0,"slot":"151","type":"t_array(t_uint256)50_storage"},{"astId":1435,"contract":"contracts/ROIV1Upgradeable.sol:ROIV1Upgradeable","label":"_variablesContract","offset":0,"slot":"201","type":"t_address"},{"astId":1437,"contract":"contracts/ROIV1Upgradeable.sol:ROIV1Upgradeable","label":"totalROIIDs","offset":20,"slot":"201","type":"t_uint32"},{"astId":1439,"contract":"contracts/ROIV1Upgradeable.sol:ROIV1Upgradeable","label":"totalROIPaid","offset":0,"slot":"202","type":"t_uint256"},{"astId":1441,"contract":"contracts/ROIV1Upgradeable.sol:ROIV1Upgradeable","label":"totalROIValue","offset":0,"slot":"203","type":"t_uint256"},{"astId":1443,"contract":"contracts/ROIV1Upgradeable.sol:ROIV1Upgradeable","label":"decimals","offset":0,"slot":"204","type":"t_uint16"},{"astId":1445,"contract":"contracts/ROIV1Upgradeable.sol:ROIV1Upgradeable","label":"_roiRate","offset":2,"slot":"204","type":"t_uint16"},{"astId":1447,"contract":"contracts/ROIV1Upgradeable.sol:ROIV1Upgradeable","label":"_roiDuration","offset":0,"slot":"205","type":"t_uint256"},{"astId":1449,"contract":"contracts/ROIV1Upgradeable.sol:ROIV1Upgradeable","label":"_roiClaimTimelimit","offset":0,"slot":"206","type":"t_uint256"},{"astId":1451,"contract":"contracts/ROIV1Upgradeable.sol:ROIV1Upgradeable","label":"isPayROI","offset":0,"slot":"207","type":"t_bool"},{"astId":1471,"contract":"contracts/ROIV1Upgradeable.sol:ROIV1Upgradeable","label":"rois","offset":0,"slot":"208","type":"t_mapping(t_uint32,t_struct(StructROI)1466_storage)"}],"types":{"t_address":{"encoding":"inplace","label":"address","numberOfBytes":"20"},"t_array(t_uint256)49_storage":{"base":"t_uint256","encoding":"inplace","label":"uint256[49]","numberOfBytes":"1568"},"t_array(t_uint256)50_storage":{"base":"t_uint256","encoding":"inplace","label":"uint256[50]","numberOfBytes":"1600"},"t_bool":{"encoding":"inplace","label":"bool","numberOfBytes":"1"},"t_mapping(t_uint32,t_struct(StructROI)1466_storage)":{"encoding":"mapping","key":"t_uint32","label":"mapping(uint32 => struct ROIV1Upgradeable.StructROI)","numberOfBytes":"32","value":"t_struct(StructROI)1466_storage"},"t_struct(StructROI)1466_storage":{"encoding":"inplace","label":"struct ROIV1Upgradeable.StructROI","members":[{"astId":1453,"contract":"contracts/ROIV1Upgradeable.sol:ROIV1Upgradeable","label":"id","offset":0,"slot":"0","type":"t_uint32"},{"astId":1455,"contract":"contracts/ROIV1Upgradeable.sol:ROIV1Upgradeable","label":"ownerId","offset":4,"slot":"0","type":"t_uint32"},{"astId":1457,"contract":"contracts/ROIV1Upgradeable.sol:ROIV1Upgradeable","label":"value","offset":0,"slot":"1","type":"t_uint256"},{"astId":1459,"contract":"contracts/ROIV1Upgradeable.sol:ROIV1Upgradeable","label":"roiRate","offset":0,"slot":"2","type":"t_uint16"},{"astId":1461,"contract":"contracts/ROIV1Upgradeable.sol:ROIV1Upgradeable","label":"startTime","offset":0,"slot":"3","type":"t_uint256"},{"astId":1463,"contract":"contracts/ROIV1Upgradeable.sol:ROIV1Upgradeable","label":"resetTime","offset":0,"slot":"4","type":"t_uint256"},{"astId":1465,"contract":"contracts/ROIV1Upgradeable.sol:ROIV1Upgradeable","label":"endTime","offset":0,"slot":"5","type":"t_uint256"}],"numberOfBytes":"192"},"t_uint16":{"encoding":"inplace","label":"uint16","numberOfBytes":"2"},"t_uint256":{"encoding":"inplace","label":"uint256","numberOfBytes":"32"},"t_uint32":{"encoding":"inplace","label":"uint32","numberOfBytes":"4"},"t_uint8":{"encoding":"inplace","label":"uint8","numberOfBytes":"1"}}}}}}