{"contracts/ReferralV4Upgradeable.sol":{"ReferralV4Upgradeable":{"abi":[{"anonymous":false,"inputs":[{"indexed":false,"internalType":"uint32","name":"id","type":"uint32"}],"name":"ActivatedId","type":"event"},{"anonymous":false,"inputs":[{"indexed":false,"internalType":"uint32","name":"id","type":"uint32"},{"indexed":false,"internalType":"uint32","name":"index","type":"uint32"},{"indexed":false,"internalType":"uint8","name":"rank","type":"uint8"}],"name":"AddedInRoyaltyClubList","type":"event"},{"anonymous":false,"inputs":[{"indexed":false,"internalType":"address","name":"previousAdmin","type":"address"},{"indexed":false,"internalType":"address","name":"newAdmin","type":"address"}],"name":"AdminChanged","type":"event"},{"anonymous":false,"inputs":[{"indexed":true,"internalType":"address","name":"beacon","type":"address"}],"name":"BeaconUpgraded","type":"event"},{"anonymous":false,"inputs":[{"indexed":false,"internalType":"uint32","name":"id","type":"uint32"},{"indexed":false,"internalType":"string","name":"reason","type":"string"}],"name":"DeactivatedId","type":"event"},{"anonymous":false,"inputs":[{"indexed":false,"internalType":"uint8","name":"version","type":"uint8"}],"name":"Initialized","type":"event"},{"anonymous":false,"inputs":[{"indexed":false,"internalType":"uint32","name":"id","type":"uint32"},{"indexed":false,"internalType":"address","name":"owner","type":"address"}],"name":"OwnerChangedId","type":"event"},{"anonymous":false,"inputs":[{"indexed":true,"internalType":"address","name":"previousOwner","type":"address"},{"indexed":true,"internalType":"address","name":"newOwner","type":"address"}],"name":"OwnershipTransferred","type":"event"},{"anonymous":false,"inputs":[{"indexed":false,"internalType":"uint8","name":"packageId","type":"uint8"}],"name":"PackageAdded","type":"event"},{"anonymous":false,"inputs":[{"indexed":false,"internalType":"uint8","name":"packageId","type":"uint8"}],"name":"PackageRemoved","type":"event"},{"anonymous":false,"inputs":[{"indexed":false,"internalType":"uint8","name":"packageId","type":"uint8"}],"name":"PackageUpdated","type":"event"},{"anonymous":false,"inputs":[{"indexed":true,"internalType":"uint32","name":"refererId","type":"uint32"},{"indexed":true,"internalType":"uint8","name":"level","type":"uint8"},{"indexed":true,"internalType":"string","name":"reason","type":"string"}],"name":"ReferralNotPaid","type":"event"},{"anonymous":false,"inputs":[{"indexed":true,"internalType":"uint32","name":"refereeId","type":"uint32"},{"indexed":true,"internalType":"uint32","name":"referrerId","type":"uint32"},{"indexed":true,"internalType":"uint256","name":"amount","type":"uint256"},{"indexed":false,"internalType":"uint8","name":"level","type":"uint8"}],"name":"ReferralRewardPaid","type":"event"},{"anonymous":false,"inputs":[{"indexed":true,"internalType":"address","name":"refereeId","type":"address"},{"indexed":true,"internalType":"address","name":"referrerId","type":"address"},{"indexed":true,"internalType":"string","name":"reason","type":"string"}],"name":"RegisterRefererFailed","type":"event"},{"anonymous":false,"inputs":[{"indexed":true,"internalType":"uint32","name":"id","type":"uint32"},{"indexed":true,"internalType":"uint32","name":"refererId","type":"uint32"}],"name":"RegisteredReferer","type":"event"},{"anonymous":false,"inputs":[{"indexed":true,"internalType":"uint32","name":"refereeId","type":"uint32"},{"indexed":true,"internalType":"uint32","name":"referrerId","type":"uint32"},{"indexed":true,"internalType":"uint32","name":"parentAccountId","type":"uint32"}],"name":"RegisteredTeamAddress","type":"event"},{"anonymous":false,"inputs":[{"indexed":true,"internalType":"uint32","name":"userid","type":"uint32"},{"indexed":true,"internalType":"uint8","name":"packageId","type":"uint8"},{"indexed":true,"internalType":"uint256","name":"amount","type":"uint256"}],"name":"RoyaltyClubBonusPaid","type":"event"},{"anonymous":false,"inputs":[{"indexed":true,"internalType":"address","name":"implementation","type":"address"}],"name":"Upgraded","type":"event"},{"inputs":[{"internalType":"uint32","name":"_refererId","type":"uint32"}],"name":"activateId","outputs":[],"stateMutability":"payable","type":"function"},{"inputs":[{"internalType":"address","name":"_userAddress","type":"address"},{"internalType":"uint32","name":"_refererId","type":"uint32"},{"internalType":"uint256","name":"_valueInUSD","type":"uint256"},{"internalType":"uint256","name":"_activationTime","type":"uint256"},{"internalType":"uint256","name":"_roiStartTime","type":"uint256"},{"internalType":"uint256","name":"_roiResetTime","type":"uint256"},{"internalType":"uint256","name":"_roiDurationInDays","type":"uint256"}],"name":"activateIdAdmin","outputs":[],"stateMutability":"nonpayable","type":"function"},{"inputs":[{"internalType":"uint32","name":"_id","type":"uint32"}],"name":"claimBalance","outputs":[],"stateMutability":"nonpayable","type":"function"},{"inputs":[],"name":"companyTurnoverTimeLimit","outputs":[{"internalType":"uint256","name":"","type":"uint256"}],"stateMutability":"view","type":"function"},{"inputs":[],"name":"companyTurnoverTimeStamp","outputs":[{"internalType":"uint256","name":"","type":"uint256"}],"stateMutability":"view","type":"function"},{"inputs":[],"name":"companyTurnoverWithTimeLimit","outputs":[{"internalType":"uint256","name":"","type":"uint256"}],"stateMutability":"view","type":"function"},{"inputs":[],"name":"decimals","outputs":[{"internalType":"uint16","name":"","type":"uint16"}],"stateMutability":"view","type":"function"},{"inputs":[{"internalType":"address","name":"_userAddress","type":"address"}],"name":"disableUserAdmin","outputs":[],"stateMutability":"nonpayable","type":"function"},{"inputs":[{"internalType":"uint256","name":"","type":"uint256"}],"name":"disabledUsersList","outputs":[{"internalType":"address","name":"","type":"address"}],"stateMutability":"view","type":"function"},{"inputs":[],"name":"futureScureWalletContribution","outputs":[{"internalType":"uint8","name":"","type":"uint8"}],"stateMutability":"view","type":"function"},{"inputs":[{"internalType":"uint8","name":"_packageId","type":"uint8"}],"name":"getAchieversList","outputs":[{"internalType":"uint32[]","name":"","type":"uint32[]"}],"stateMutability":"view","type":"function"},{"inputs":[{"internalType":"uint32","name":"_id","type":"uint32"}],"name":"getIdAccount","outputs":[{"components":[{"internalType":"uint32","name":"id","type":"uint32"},{"internalType":"string","name":"oldId","type":"string"},{"internalType":"uint256","name":"joiningTime","type":"uint256"},{"internalType":"bool","name":"isAddedToUserList","type":"bool"},{"internalType":"address","name":"owner","type":"address"},{"internalType":"uint32","name":"refererId","type":"uint32"},{"internalType":"bool","name":"hasUpline","type":"bool"},{"internalType":"uint32[]","name":"refereeIds","type":"uint32[]"},{"internalType":"uint32[]","name":"teamIds","type":"uint32[]"},{"internalType":"uint32[]","name":"teamLevel","type":"uint32[]"},{"internalType":"uint256[]","name":"selfBusinessArray","type":"uint256[]"},{"internalType":"uint256","name":"selfBusiness","type":"uint256"},{"internalType":"uint256","name":"selfBusinessOld","type":"uint256"},{"internalType":"uint256","name":"directBusiness","type":"uint256"},{"internalType":"uint256","name":"directBusinessOld","type":"uint256"},{"internalType":"uint256","name":"teamBusiness","type":"uint256"},{"internalType":"uint256","name":"teamBusinessOld","type":"uint256"},{"internalType":"uint256","name":"royaltyClubBusiness","type":"uint256"},{"internalType":"uint256","name":"timeStampRoyaltyClub","type":"uint256"},{"internalType":"uint8","name":"royaltyClubPackageId","type":"uint8"},{"internalType":"uint32","name":"royaltyClubListIndex","type":"uint32"},{"internalType":"uint256","name":"royaltyClubRewardPaid","type":"uint256"},{"internalType":"uint256","name":"topUpIncome","type":"uint256"},{"internalType":"uint256","name":"topUp","type":"uint256"},{"internalType":"uint256","name":"maxLimit","type":"uint256"},{"internalType":"uint256","name":"activationTime","type":"uint256"},{"internalType":"uint256","name":"deactivationTime","type":"uint256"},{"internalType":"uint256","name":"referralPaid","type":"uint256"},{"internalType":"uint32[]","name":"roiIds","type":"uint32[]"},{"internalType":"uint256","name":"roiPaid","type":"uint256"},{"internalType":"uint256","name":"roiClaimedTime","type":"uint256"},{"internalType":"uint256","name":"walletBalance","type":"uint256"},{"internalType":"bool","name":"isActive","type":"bool"},{"internalType":"bool","name":"isROIDisabled","type":"bool"},{"internalType":"bool","name":"isIdVisibilityDisabled","type":"bool"},{"internalType":"bool","name":"canWindraw","type":"bool"}],"internalType":"struct ReferralV4Upgradeable.StructId","name":"","type":"tuple"}],"stateMutability":"view","type":"function"},{"inputs":[{"internalType":"uint32","name":"_id","type":"uint32"}],"name":"getIdLimits","outputs":[{"internalType":"uint256","name":"topUpIncome","type":"uint256"},{"internalType":"uint256","name":"topUp","type":"uint256"},{"internalType":"uint256","name":"maxLimit","type":"uint256"}],"stateMutability":"view","type":"function"},{"inputs":[{"internalType":"uint32","name":"_id","type":"uint32"}],"name":"getIdRoyaltyClubLevel","outputs":[{"internalType":"uint256","name":"","type":"uint256"}],"stateMutability":"view","type":"function"},{"inputs":[],"name":"getMinContributionETH","outputs":[{"internalType":"uint256","name":"","type":"uint256"}],"stateMutability":"view","type":"function"},{"inputs":[{"internalType":"uint8","name":"_packageId","type":"uint8"}],"name":"getRoyaltyClubPackageInfo","outputs":[{"components":[{"internalType":"uint8","name":"packageId","type":"uint8"},{"internalType":"uint256","name":"selfBusiness","type":"uint256"},{"internalType":"uint256","name":"directBusiness","type":"uint256"},{"internalType":"uint256","name":"teamBusiness","type":"uint256"},{"internalType":"string","name":"rankName","type":"string"},{"internalType":"uint256","name":"reward","type":"uint256"},{"internalType":"uint256","name":"businessLimit","type":"uint256"},{"internalType":"uint256","name":"timeLimit","type":"uint256"},{"internalType":"bool","name":"isPayReccursive","type":"bool"},{"internalType":"uint32[]","name":"achieversList","type":"uint32[]"}],"internalType":"struct ReferralV4Upgradeable.StructPackages","name":"","type":"tuple"}],"stateMutability":"view","type":"function"},{"inputs":[{"internalType":"address","name":"_address","type":"address"}],"name":"getUserAccount","outputs":[{"components":[{"internalType":"bool","name":"isActive","type":"bool"},{"internalType":"uint32[]","name":"accountIds","type":"uint32[]"},{"internalType":"string","name":"userName","type":"string"}],"internalType":"struct ReferralV4Upgradeable.StructAccount","name":"","type":"tuple"}],"stateMutability":"view","type":"function"},{"inputs":[{"internalType":"uint32","name":"_id","type":"uint32"},{"internalType":"uint256","name":"_valueInDecimals","type":"uint256"}],"name":"increaseBalanceAdmin","outputs":[],"stateMutability":"nonpayable","type":"function"},{"inputs":[{"internalType":"uint32","name":"_id","type":"uint32"},{"internalType":"uint256","name":"_value","type":"uint256"}],"name":"increaseIdTopIncome","outputs":[],"stateMutability":"nonpayable","type":"function"},{"inputs":[],"name":"initialize","outputs":[],"stateMutability":"nonpayable","type":"function"},{"inputs":[],"name":"isActivateROI","outputs":[{"internalType":"bool","name":"","type":"bool"}],"stateMutability":"view","type":"function"},{"inputs":[],"name":"isPayReferral","outputs":[{"internalType":"bool","name":"","type":"bool"}],"stateMutability":"view","type":"function"},{"inputs":[],"name":"isPayRoyaltyClubBonus","outputs":[{"internalType":"bool","name":"","type":"bool"}],"stateMutability":"view","type":"function"},{"inputs":[{"internalType":"uint256","name":"","type":"uint256"}],"name":"levelRates","outputs":[{"internalType":"uint16","name":"","type":"uint16"}],"stateMutability":"view","type":"function"},{"inputs":[],"name":"maxLevels","outputs":[{"internalType":"uint8","name":"","type":"uint8"}],"stateMutability":"view","type":"function"},{"inputs":[],"name":"minContributionUSD","outputs":[{"internalType":"uint256","name":"","type":"uint256"}],"stateMutability":"view","type":"function"},{"inputs":[],"name":"owner","outputs":[{"internalType":"address","name":"","type":"address"}],"stateMutability":"view","type":"function"},{"inputs":[],"name":"packagesCount","outputs":[{"internalType":"uint8","name":"","type":"uint8"}],"stateMutability":"view","type":"function"},{"inputs":[{"internalType":"uint256","name":"_value","type":"uint256"},{"internalType":"uint32","name":"_id","type":"uint32"}],"name":"payReferralAdmin","outputs":[],"stateMutability":"nonpayable","type":"function"},{"inputs":[],"name":"proxiableUUID","outputs":[{"internalType":"bytes32","name":"","type":"bytes32"}],"stateMutability":"view","type":"function"},{"inputs":[],"name":"renounceOwnership","outputs":[],"stateMutability":"nonpayable","type":"function"},{"inputs":[],"name":"royaltyClubPackageCount","outputs":[{"internalType":"uint8","name":"","type":"uint8"}],"stateMutability":"view","type":"function"},{"inputs":[{"internalType":"address","name":"_address","type":"address"},{"internalType":"uint256","name":"_value","type":"uint256"}],"name":"sendETHAdmin","outputs":[],"stateMutability":"nonpayable","type":"function"},{"inputs":[{"internalType":"uint16","name":"_value","type":"uint16"}],"name":"setLevelDecimals","outputs":[],"stateMutability":"nonpayable","type":"function"},{"inputs":[{"internalType":"uint8[]","name":"_value","type":"uint8[]"}],"name":"setLevelRates","outputs":[],"stateMutability":"nonpayable","type":"function"},{"inputs":[{"internalType":"uint8","name":"_valueDecimals","type":"uint8"}],"name":"setMaxLevelsAdmin","outputs":[],"stateMutability":"nonpayable","type":"function"},{"inputs":[{"internalType":"uint256","name":"_valueInUSD","type":"uint256"}],"name":"setMinContribution","outputs":[],"stateMutability":"nonpayable","type":"function"},{"inputs":[{"internalType":"uint8","name":"packageId","type":"uint8"},{"internalType":"uint256","name":"selfBusiness","type":"uint256"},{"internalType":"uint256","name":"directBusiness","type":"uint256"},{"internalType":"uint256","name":"teamBusiness","type":"uint256"},{"internalType":"string","name":"rankName","type":"string"},{"internalType":"uint256","name":"reward","type":"uint256"},{"internalType":"uint256","name":"businessLimit","type":"uint256"},{"internalType":"uint256","name":"timeLimit","type":"uint256"},{"internalType":"bool","name":"isPayReccursive","type":"bool"}],"name":"setRoyaltyClubPackage","outputs":[],"stateMutability":"nonpayable","type":"function"},{"inputs":[{"internalType":"uint8","name":"_valueDecimals","type":"uint8"}],"name":"setRoyaltyPackageCount","outputs":[],"stateMutability":"nonpayable","type":"function"},{"inputs":[{"internalType":"uint32","name":"_id","type":"uint32"}],"name":"topUpId","outputs":[],"stateMutability":"payable","type":"function"},{"inputs":[],"name":"totalIds","outputs":[{"internalType":"uint32","name":"","type":"uint32"}],"stateMutability":"view","type":"function"},{"inputs":[],"name":"totalReferralPaid","outputs":[{"internalType":"uint256","name":"","type":"uint256"}],"stateMutability":"view","type":"function"},{"inputs":[],"name":"totalRoyaltyClubBonusPaid","outputs":[{"internalType":"uint256","name":"","type":"uint256"}],"stateMutability":"view","type":"function"},{"inputs":[{"internalType":"address","name":"newOwner","type":"address"}],"name":"transferOwnership","outputs":[],"stateMutability":"nonpayable","type":"function"},{"inputs":[{"internalType":"uint32","name":"_id","type":"uint32"},{"internalType":"uint256","name":"_value","type":"uint256"}],"name":"updateIdWhenClaimROI","outputs":[],"stateMutability":"nonpayable","type":"function"},{"inputs":[{"internalType":"uint32","name":"_value","type":"uint32"}],"name":"updateTotalIds","outputs":[],"stateMutability":"nonpayable","type":"function"},{"inputs":[{"internalType":"address","name":"newImplementation","type":"address"}],"name":"upgradeTo","outputs":[],"stateMutability":"nonpayable","type":"function"},{"inputs":[{"internalType":"address","name":"newImplementation","type":"address"},{"internalType":"bytes","name":"data","type":"bytes"}],"name":"upgradeToAndCall","outputs":[],"stateMutability":"payable","type":"function"},{"inputs":[{"internalType":"uint256","name":"","type":"uint256"}],"name":"users","outputs":[{"internalType":"address","name":"","type":"address"}],"stateMutability":"view","type":"function"},{"inputs":[],"name":"withdrawETHAdmin","outputs":[],"stateMutability":"nonpayable","type":"function"},{"inputs":[{"internalType":"address","name":"_tokenAddress","type":"address"},{"internalType":"uint256","name":"_value","type":"uint256"}],"name":"withdrawTokensAdmin","outputs":[],"stateMutability":"nonpayable","type":"function"},{"stateMutability":"payable","type":"receive"}],"evm":{"bytecode":{"linkReferences":{},"object":"60a06040523060805234801561001457600080fd5b50608051615f936200004d600039600081816113cf0152818161140f01528181611b3601528181611b760152611cfd0152615f936000f3fe6080604052600436106102e85760003560e01c80636f38e410116101905780639f4e8398116100dc578063cd21364d11610095578063f396673c1161006f578063f396673c146108f4578063f41bfeef14610914578063fafc95971461092a578063fb47e0161461094c57600080fd5b8063cd21364d14610894578063e1c715ba146108b4578063f2fde38b146108d457600080fd5b80639f4e8398146107eb578063a0b6105f1461080b578063a152b0f01461082b578063a28a36861461083e578063a43ae40814610861578063bcb93f9b1461088157600080fd5b80637cf97c8c116101495780638af925dc116101235780638af925dc1461077d5780638da5cb5b146107975780638f84de85146107b5578063987dd4a7146107cb57600080fd5b80637cf97c8c146107325780638129fc1c14610752578063852ff2fd1461076757600080fd5b80636f38e4101461066b5780637084431f1461068b578063715018a6146106ba5780637879b5ef146106cf5780637bdbf996146106ef5780637c5994861461071c57600080fd5b8063365b98b21161024f5780634b5102b811610208578063509d6c52116101e2578063509d6c52146105f657806352d1902d146106165780635979369a1461062b5780636ccc10ae1461064b57600080fd5b80634b5102b8146105885780634e6e93a3146105a85780634f1ef286146105e357600080fd5b8063365b98b2146104b6578063390a5ba5146104d65780633eff2def14610508578063473b0d4614610528578063498b3e55146105485780634a7508221461056857600080fd5b806322f88b52116102a157806322f88b52146104075780632ed421d21461041d578063300825b514610433578063313ce5671461045357806335759788146104815780633659cfe61461049657600080fd5b8063012da720146102f45780630b243dad1461032a5780631319cff91461034c57806318e10bff146103845780631f9e65e4146103b757806321009789146103da57600080fd5b366102ef57005b600080fd5b34801561030057600080fd5b5061031461030f3660046152c0565b610979565b60405161032191906152db565b60405180910390f35b34801561033657600080fd5b5061034a61034536600461533a565b610a0e565b005b34801561035857600080fd5b5061036c610367366004615366565b610a51565b6040516001600160a01b039091168152602001610321565b34801561039057600080fd5b5060d5546103a5906301000000900460ff1681565b60405160ff9091168152602001610321565b3480156103c357600080fd5b506103cc610a7b565b604051908152602001610321565b3480156103e657600080fd5b506103fa6103f5366004615391565b610a8d565b604051610321919061546f565b34801561041357600080fd5b506103cc60d05481565b34801561042957600080fd5b506103cc60d15481565b34801561043f57600080fd5b5061034a61044e366004615391565b61106e565b34801561045f57600080fd5b5060cb5461046e9061ffff1681565b60405161ffff9091168152602001610321565b34801561048d57600080fd5b5061034a61138e565b3480156104a257600080fd5b5061034a6104b1366004615707565b6113c5565b3480156104c257600080fd5b5061036c6104d1366004615366565b6114a1565b3480156104e257600080fd5b5060cf546104f39063ffffffff1681565b60405163ffffffff9091168152602001610321565b34801561051457600080fd5b5061034a6105233660046152c0565b6114b1565b34801561053457600080fd5b5061034a610543366004615366565b6114d7565b34801561055457600080fd5b5061034a610563366004615724565b6114e4565b34801561057457600080fd5b5061034a6105833660046157f9565b61158a565b34801561059457600080fd5b5061034a6105a33660046152c0565b61163a565b3480156105b457600080fd5b506105c86105c3366004615391565b611662565b60408051938452602084019290925290820152606001610321565b61034a6105f13660046158a6565b611b2c565b34801561060257600080fd5b5061034a61061136600461590a565b611bf8565b34801561062257600080fd5b506103cc611cf0565b34801561063757600080fd5b5061034a610646366004615391565b611da3565b34801561065757600080fd5b5061034a61066636600461590a565b611e47565b34801561067757600080fd5b5060cb546103a59062010000900460ff1681565b34801561069757600080fd5b5060d5546106aa90610100900460ff1681565b6040519015158152602001610321565b3480156106c657600080fd5b5061034a611eee565b3480156106db57600080fd5b5061046e6106ea366004615366565b611f02565b3480156106fb57600080fd5b5061070f61070a3660046152c0565b611f3a565b6040516103219190615928565b34801561072857600080fd5b506103cc60ce5481565b34801561073e57600080fd5b5061034a61074d3660046159d6565b612139565b34801561075e57600080fd5b5061034a612408565b34801561077357600080fd5b506103cc60cd5481565b34801561078957600080fd5b5060d5546106aa9060ff1681565b3480156107a357600080fd5b506033546001600160a01b031661036c565b3480156107c157600080fd5b506103cc60cc5481565b3480156107d757600080fd5b506103cc6107e6366004615391565b6126a0565b3480156107f757600080fd5b5061034a610806366004615707565b612b5f565b34801561081757600080fd5b5061034a61082636600461533a565b612c08565b61034a610839366004615391565b612c81565b34801561084a57600080fd5b5060cf546103a59065010000000000900460ff1681565b34801561086d57600080fd5b5061034a61087c366004615a38565b612f19565b61034a61088f366004615391565b612f39565b3480156108a057600080fd5b5060d5546103a59062010000900460ff1681565b3480156108c057600080fd5b5061034a6108cf366004615a5c565b6131d2565b3480156108e057600080fd5b5061034a6108ef366004615707565b6131e6565b34801561090057600080fd5b5061034a61090f36600461590a565b61325c565b34801561092057600080fd5b506103cc60d25481565b34801561093657600080fd5b5060cf546106aa90640100000000900460ff1681565b34801561095857600080fd5b5061096c610967366004615707565b613327565b6040516103219190615ad1565b60ff8116600090815260d86020908152604091829020600901805483518184028101840190945280845260609392830182828015610a0257602002820191906000526020600020906000905b82829054906101000a900463ffffffff1663ffffffff16815260200190600401906020826003010492830192600103820291508084116109c55790505b50505050509050919050565b610a1661348d565b6040516001600160a01b0383169082156108fc029083906000818181858888f19350505050158015610a4c573d6000803e3d6000fd5b505050565b60d38181548110610a6157600080fd5b6000918252602090912001546001600160a01b0316905081565b6000610a8860cc546134e7565b905090565b610bc3604051806104800160405280600063ffffffff168152602001606081526020016000815260200160001515815260200160006001600160a01b03168152602001600063ffffffff168152602001600015158152602001606081526020016060815260200160608152602001606081526020016000815260200160008152602001600081526020016000815260200160008152602001600081526020016000815260200160008152602001600060ff168152602001600063ffffffff16815260200160008152602001600081526020016000815260200160008152602001600081526020016000815260200160008152602001606081526020016000815260200160008152602001600081526020016000151581526020016000151581526020016000151581526020016000151581525090565b63ffffffff808316600090815260d76020908152604091829020825161048081019093528054909316825260018301805492939291840191610c0490615b16565b80601f0160208091040260200160405190810160405280929190818152602001828054610c3090615b16565b8015610c7d5780601f10610c5257610100808354040283529160200191610c7d565b820191906000526020600020905b815481529060010190602001808311610c6057829003601f168201915b50505091835250506002820154602080830191909152600383015460ff80821615156040808601919091526001600160a01b03610100840416606086015263ffffffff600160a81b8404166080860152600160c81b90920416151560a084015260048401805482518185028101850190935280835260c0909401939192909190830182828015610d5857602002820191906000526020600020906000905b82829054906101000a900463ffffffff1663ffffffff1681526020019060040190602082600301049283019260010382029150808411610d1b5790505b5050505050815260200160058201805480602002602001604051908101604052809291908181526020018280548015610ddc57602002820191906000526020600020906000905b82829054906101000a900463ffffffff1663ffffffff1681526020019060040190602082600301049283019260010382029150808411610d9f5790505b5050505050815260200160068201805480602002602001604051908101604052809291908181526020018280548015610e6057602002820191906000526020600020906000905b82829054906101000a900463ffffffff1663ffffffff1681526020019060040190602082600301049283019260010382029150808411610e235790505b5050505050815260200160078201805480602002602001604051908101604052809291908181526020018280548015610eb857602002820191906000526020600020905b815481526020019060010190808311610ea4575b505050918352505060088201546020808301919091526009830154604080840191909152600a8401546060840152600b8401546080840152600c84015460a0840152600d84015460c0840152600e84015460e0840152600f84015461010080850191909152601085015460ff81166101208601520463ffffffff166101408401526011840154610160840152601284015461018084015260138401546101a084015260148401546101c084015260158401546101e08401526016840154610200840152601784015461022084015260188401805482518185028101850190935280835261024090940193919290919083018282801561100257602002820191906000526020600020906000905b82829054906101000a900463ffffffff1663ffffffff1681526020019060040190602082600301049283019260010382029150808411610fc55790505b505050918352505060198201546020820152601a8201546040820152601b8201546060820152601c9091015460ff8082161515608084015261010082048116151560a08401526201000082048116151560c0840152630100000090910416151560e09091015292915050565b63ffffffff8116600090815260d760205260409081902060c9549151630935e01b60e21b815233600482015290916001600160a01b0316906324d7806c90602401602060405180830381865afa1580156110cc573d6000803e3d6000fd5b505050506040513d601f19601f820116820180604052508101906110f09190615b50565b61122f57600381015461010090046001600160a01b0316331461115a5760405162461bcd60e51b815260206004820152601d60248201527f596f7520617265206e6f74206f776e6572206f6620746869732069642e00000060448201526064015b60405180910390fd5b678ac7230489e8000081601b015410156111c25760405162461bcd60e51b8152602060048201526024808201527f42616c616e6365206973206c657373207468616e206d696e20776974686472616044820152633bb0b61760e11b6064820152608401611151565b601c8101546301000000900460ff1661122f5760405162461bcd60e51b815260206004820152602960248201527f54686973206964207769746864726177206973206e6f7420656e61626c656420604482015268313c9030b236b4b71760b91b6064820152608401611151565b601b81015460d5546000906064906112509062010000900460ff1684615b83565b61125a9190615b9a565b905060c960009054906101000a90046001600160a01b03166001600160a01b031662f9cc666040518163ffffffff1660e01b8152600401602060405180830381865afa1580156112ae573d6000803e3d6000fd5b505050506040513d601f19601f820116820180604052508101906112d29190615bbc565b6003840154604051633528777d60e11b81526001600160a01b036101009092048216600482015260248101849052911690636a50eefa90604401600060405180830381600087803b15801561132657600080fd5b505af115801561133a573d6000803e3d6000fd5b503392506108fc915061135790506113528486615bd9565b6134e7565b6040518115909202916000818181858888f1935050505015801561137f573d6000803e3d6000fd5b5082601b016000905550505050565b61139661348d565b60405133904780156108fc02916000818181858888f193505050501580156113c2573d6000803e3d6000fd5b50565b6001600160a01b037f000000000000000000000000000000000000000000000000000000000000000016300361140d5760405162461bcd60e51b815260040161115190615bec565b7f00000000000000000000000000000000000000000000000000000000000000006001600160a01b0316611456600080516020615f17833981519152546001600160a01b031690565b6001600160a01b03161461147c5760405162461bcd60e51b815260040161115190615c38565b611485816135e5565b604080516000808252602082019092526113c2918391906135ed565b60d48181548110610a6157600080fd5b6114b961348d565b60cb805460ff909216620100000262ff000019909216919091179055565b6114df61348d565b60cc55565b60c954604051630935e01b60e21b81523360048201526001600160a01b03909116906324d7806c90602401602060405180830381865afa15801561152c573d6000803e3d6000fd5b505050506040513d601f19601f820116820180604052508101906115509190615b50565b61156c5760405162461bcd60e51b815260040161115190615c84565b60d554610100900460ff1615611586576115868282613758565b5050565b61159261348d565b60ff8916600081815260d860205260409020805460ff19169091178155600181018990556002810188905560038101879055600481016115d28782615cfe565b5060058101859055600681018490556007810183905560088101805460ff191683151517905560405160ff8b1681527f9a2f17868083013e19d4c26d2af13543606bc680c21c994d7648d3a0510164c99060200160405180910390a150505050505050505050565b61164261348d565b60d5805460ff90921663010000000263ff00000019909216919091179055565b63ffffffff808216600090815260d7602090815260408083208151610480810190925280549094168152600184018054939485948594859493908401916116a890615b16565b80601f01602080910402602001604051908101604052809291908181526020018280546116d490615b16565b80156117215780601f106116f657610100808354040283529160200191611721565b820191906000526020600020905b81548152906001019060200180831161170457829003601f168201915b50505091835250506002820154602080830191909152600383015460ff80821615156040808601919091526001600160a01b03610100840416606086015263ffffffff600160a81b8404166080860152600160c81b90920416151560a084015260048401805482518185028101850190935280835260c09094019391929091908301828280156117fc57602002820191906000526020600020906000905b82829054906101000a900463ffffffff1663ffffffff16815260200190600401906020826003010492830192600103820291508084116117bf5790505b505050505081526020016005820180548060200260200160405190810160405280929190818152602001828054801561188057602002820191906000526020600020906000905b82829054906101000a900463ffffffff1663ffffffff16815260200190600401906020826003010492830192600103820291508084116118435790505b505050505081526020016006820180548060200260200160405190810160405280929190818152602001828054801561190457602002820191906000526020600020906000905b82829054906101000a900463ffffffff1663ffffffff16815260200190600401906020826003010492830192600103820291508084116118c75790505b505050505081526020016007820180548060200260200160405190810160405280929190818152602001828054801561195c57602002820191906000526020600020905b815481526020019060010190808311611948575b505050918352505060088201546020808301919091526009830154604080840191909152600a8401546060840152600b8401546080840152600c84015460a0840152600d84015460c0840152600e84015460e0840152600f84015461010080850191909152601085015460ff81166101208601520463ffffffff166101408401526011840154610160840152601284015461018084015260138401546101a084015260148401546101c084015260158401546101e084015260168401546102008401526017840154610220840152601884018054825181850281018501909352808352610240909401939192909190830182828015611aa657602002820191906000526020600020906000905b82829054906101000a900463ffffffff1663ffffffff1681526020019060040190602082600301049283019260010382029150808411611a695790505b505050918352505060198201546020820152601a8201546040820152601b8201546060820152601c9091015460ff8082161515608084015261010082048116151560a08401526201000082048116151560c0840152630100000090910416151560e0909101526102c08101516102e0820151610300909201519097919650945092505050565b6001600160a01b037f0000000000000000000000000000000000000000000000000000000000000000163003611b745760405162461bcd60e51b815260040161115190615bec565b7f00000000000000000000000000000000000000000000000000000000000000006001600160a01b0316611bbd600080516020615f17833981519152546001600160a01b031690565b6001600160a01b031614611be35760405162461bcd60e51b815260040161115190615c38565b611bec826135e5565b611586828260016135ed565b60c954604051630935e01b60e21b81523360048201526001600160a01b03909116906324d7806c90602401602060405180830381865afa158015611c40573d6000803e3d6000fd5b505050506040513d601f19601f82011682018060405250810190611c649190615b50565b611c805760405162461bcd60e51b815260040161115190615c84565b63ffffffff8216600090815260d76020526040812042601a82015560198101805491928492611cb0908490615dbe565b9250508190555081816012016000828254611ccb9190615dbe565b925050819055508181601b016000828254611ce69190615dbe565b9091555050505050565b6000306001600160a01b037f00000000000000000000000000000000000000000000000000000000000000001614611d905760405162461bcd60e51b815260206004820152603860248201527f555550535570677261646561626c653a206d757374206e6f742062652063616c60448201527f6c6564207468726f7567682064656c656761746563616c6c00000000000000006064820152608401611151565b50600080516020615f1783398151915290565b60c954604051630935e01b60e21b81523360048201526001600160a01b03909116906324d7806c90602401602060405180830381865afa158015611deb573d6000803e3d6000fd5b505050506040513d601f19601f82011682018060405250810190611e0f9190615b50565b611e2b5760405162461bcd60e51b815260040161115190615c84565b60cf805463ffffffff191663ffffffff92909216919091179055565b60c954604051630935e01b60e21b81523360048201526001600160a01b03909116906324d7806c90602401602060405180830381865afa158015611e8f573d6000803e3d6000fd5b505050506040513d601f19601f82011682018060405250810190611eb39190615b50565b611ecf5760405162461bcd60e51b815260040161115190615c84565b63ffffffff8216600090815260d760205260409020610a4c8183613e8f565b611ef661348d565b611f006000613f19565b565b60ca8181548110611f1257600080fd5b9060005260206000209060109182820401919006600202915054906101000a900461ffff1681565b611f95604051806101400160405280600060ff16815260200160008152602001600081526020016000815260200160608152602001600081526020016000815260200160008152602001600015158152602001606081525090565b60ff808316600090815260d860209081526040918290208251610140810184528154909416845260018101549184019190915260028101549183019190915260038101546060830152600481018054608084019190611ff390615b16565b80601f016020809104026020016040519081016040528092919081815260200182805461201f90615b16565b801561206c5780601f106120415761010080835404028352916020019161206c565b820191906000526020600020905b81548152906001019060200180831161204f57829003601f168201915b505050505081526020016005820154815260200160068201548152602001600782015481526020016008820160009054906101000a900460ff161515151581526020016009820180548060200260200160405190810160405280929190818152602001828054801561212957602002820191906000526020600020906000905b82829054906101000a900463ffffffff1663ffffffff16815260200190600401906020826003010492830192600103820291508084116120ec5790505b5050505050815250509050919050565b60c954604051630935e01b60e21b81523360048201526001600160a01b03909116906324d7806c90602401602060405180830381865afa158015612181573d6000803e3d6000fd5b505050506040513d601f19601f820116820180604052508101906121a59190615b50565b6121c15760405162461bcd60e51b815260040161115190615c84565b60cf546000906121d89063ffffffff166001615dd1565b6001600160a01b038916600090815260d66020908152604080832063ffffffff8516845260d79092529091209192509061222e818b858c8c61221b816003615b83565b60cb548e9062010000900460ff16613f6b565b60d55460ff161561238d5760c954604080516344846f9d60e11b815290516000926001600160a01b031691638908df3a9160048083019260209291908290030181865afa158015612283573d6000803e3d6000fd5b505050506040513d601f19601f820116820180604052508101906122a79190615bbc565b6001600160a01b031663d275f14e858b8a8a6122c68b62015180615b83565b6040516001600160e01b031960e088901b16815263ffffffff959095166004860152602485019390935260448401919091526064830152608482015260a4016020604051808303816000875af1158015612324573d6000803e3d6000fd5b505050506040513d601f19601f820116820180604052508101906123489190615df5565b601883018054600181018255600091825260209091206008820401805460079092166004026101000a63ffffffff818102199093169390921691909102919091179055505b6001828101805491820181556000908152602081206008830401805460079093166004026101000a63ffffffff818102199094168785169190910217905560cf805490921691906123dd83615e12565b91906101000a81548163ffffffff021916908363ffffffff1602179055505050505050505050505050565b600054610100900460ff16158080156124285750600054600160ff909116105b806124425750303b158015612442575060005460ff166001145b6124a55760405162461bcd60e51b815260206004820152602e60248201527f496e697469616c697a61626c653a20636f6e747261637420697320616c72656160448201526d191e481a5b9a5d1a585b1a5e995960921b6064820152608401611151565b6000805460ff1916600117905580156124c8576000805461ff0019166101001790555b60c980546001600160a01b031916730b8bf5feb9fca57d9c5d27185ddf3017e99a2d3617905560cb805461ffff19166103e8179055604080516103a08101825260648152604660208201526032918101829052606081018290526080810182905260a0810182905260c0810182905260e08101829052610100810182905261012081018290526101408101829052610160810182905261018081018290526101a081018290526101c081018290526101e08101829052610200810182905261022081018290526102408101919091526014610260820181905261028082018190526102a082018190526102c082018190526102e0820181905261030082018190526103208201819052610340820181905261036082018190526103808201526125f59060ca90601d6150e5565b5060cb805462ff000019166232000017905568056bc75e2d6310000060cc5560cf8054660200000000000066ff00ff000000001990911617905560d5805462278d0060d25562ffffff19166214010117905561264f61428e565b6126576142bd565b80156113c2576000805461ff0019169055604051600181527f7f26b83ff96e1f2b6a682f133852f6798a09c465da95921460cefb3847402498906020015b60405180910390a150565b63ffffffff808216600090815260d7602090815260408083208151610480810190925280549094168152600184018054939485949293909290840191906126e690615b16565b80601f016020809104026020016040519081016040528092919081815260200182805461271290615b16565b801561275f5780601f106127345761010080835404028352916020019161275f565b820191906000526020600020905b81548152906001019060200180831161274257829003601f168201915b50505091835250506002820154602080830191909152600383015460ff80821615156040808601919091526001600160a01b03610100840416606086015263ffffffff600160a81b8404166080860152600160c81b90920416151560a084015260048401805482518185028101850190935280835260c090940193919290919083018282801561283a57602002820191906000526020600020906000905b82829054906101000a900463ffffffff1663ffffffff16815260200190600401906020826003010492830192600103820291508084116127fd5790505b50505050508152602001600582018054806020026020016040519081016040528092919081815260200182805480156128be57602002820191906000526020600020906000905b82829054906101000a900463ffffffff1663ffffffff16815260200190600401906020826003010492830192600103820291508084116128815790505b505050505081526020016006820180548060200260200160405190810160405280929190818152602001828054801561294257602002820191906000526020600020906000905b82829054906101000a900463ffffffff1663ffffffff16815260200190600401906020826003010492830192600103820291508084116129055790505b505050505081526020016007820180548060200260200160405190810160405280929190818152602001828054801561299a57602002820191906000526020600020905b815481526020019060010190808311612986575b505050918352505060088201546020808301919091526009830154604080840191909152600a8401546060840152600b8401546080840152600c84015460a0840152600d84015460c0840152600e84015460e0840152600f84015461010080850191909152601085015460ff81166101208601520463ffffffff166101408401526011840154610160840152601284015461018084015260138401546101a084015260148401546101c084015260158401546101e084015260168401546102008401526017840154610220840152601884018054825181850281018501909352808352610240909401939192909190830182828015612ae457602002820191906000526020600020906000905b82829054906101000a900463ffffffff1663ffffffff1681526020019060040190602082600301049283019260010382029150808411612aa75790505b505050918352505060198201546020820152601a8201546040820152601b8201546060820152601c9091015460ff8082161515608084015261010082048116151560a08401526201000082048116151560c0840152630100000090910416151560e0909101529050612b55816142e4565b60ff169392505050565b60c954604051630935e01b60e21b81523360048201526001600160a01b03909116906324d7806c90602401602060405180830381865afa158015612ba7573d6000803e3d6000fd5b505050506040513d601f19601f82011682018060405250810190612bcb9190615b50565b612be75760405162461bcd60e51b815260040161115190615c84565b6001600160a01b0316600090815260d660205260409020805460ff19169055565b612c1061348d565b60405163a9059cbb60e01b8152336004820152602481018290526001600160a01b0383169063a9059cbb906044016020604051808303816000875af1158015612c5d573d6000803e3d6000fd5b505050506040513d601f19601f82011682018060405250810190610a4c9190615b50565b346000612c8d82614399565b905060cc54811015612ce15760405162461bcd60e51b815260206004820152601f60248201527f56616c7565206c657373207468656e206d696e436f6e747269627574696f6e006044820152606401611151565b63ffffffff8316600090815260d7602052604081203391429190612d06856003615b83565b82601201548360140154612d1a9190615bd9565b612d249190615dbe565b90506000600383601401546002612d3b9190615b83565b612d459190615b9a565b836012015410612d56576000612d8e565b60038360120154600385601401546002612d709190615b83565b612d7a9190615b9a565b612d849190615bd9565b612d8e9190615b9a565b9050612db383868a60008a878a60cb60029054906101000a900460ff1660ff16613f6b565b60d55460ff1615612f0f5760c954604080516344846f9d60e11b815290516000926001600160a01b031691638908df3a9160048083019260209291908290030181865afa158015612e08573d6000803e3d6000fd5b505050506040513d601f19601f82011682018060405250810190612e2c9190615bbc565b6001600160a01b031663d275f14e8a612e45858b615dbe565b6040516001600160e01b031960e085901b16815263ffffffff9290921660048301526024820152604481018890526064810188905263020f5800608482015260a4016020604051808303816000875af1158015612ea6573d6000803e3d6000fd5b505050506040513d601f19601f82011682018060405250810190612eca9190615df5565b601885018054600181018255600091825260209091206008820401805460079092166004026101000a63ffffffff818102199093169390921691909102919091179055505b5050505050505050565b612f2161348d565b60cb805461ffff191661ffff92909216919091179055565b346000612f4582614399565b905060cc54811015612f995760405162461bcd60e51b815260206004820152601f60248201527f56616c7565206c657373207468656e206d696e436f6e747269627574696f6e006044820152606401611151565b60cf5433904290600090612fb49063ffffffff166001615dd1565b6001600160a01b038416600090815260d66020908152604080832063ffffffff8516845260d79092529091209192509061300a8186858b8a612ff7816003615b83565b60cb548b9062010000900460ff16613f6b565b60d55460ff16156131595760c954604080516344846f9d60e11b815290516000926001600160a01b031691638908df3a9160048083019260209291908290030181865afa15801561305f573d6000803e3d6000fd5b505050506040513d601f19601f820116820180604052508101906130839190615bbc565b60405163693af8a760e11b815263ffffffff8616600482015260248101899052604481018790526064810187905263020f580060848201526001600160a01b03919091169063d275f14e9060a4016020604051808303816000875af11580156130f0573d6000803e3d6000fd5b505050506040513d601f19601f820116820180604052508101906131149190615df5565b601883018054600181018255600091825260209091206008820401805460079092166004026101000a63ffffffff818102199093169390921691909102919091179055505b6001828101805491820181556000908152602081206008830401805460079093166004026101000a63ffffffff818102199094168785169190910217905560cf805490921691906131a983615e12565b91906101000a81548163ffffffff021916908363ffffffff160217905550505050505050505050565b6131da61348d565b610a4c60ca838361518d565b6131ee61348d565b6001600160a01b0381166132535760405162461bcd60e51b815260206004820152602660248201527f4f776e61626c653a206e6577206f776e657220697320746865207a65726f206160448201526564647265737360d01b6064820152608401611151565b6113c281613f19565b60c954604051630935e01b60e21b81523360048201526001600160a01b03909116906324d7806c90602401602060405180830381865afa1580156132a4573d6000803e3d6000fd5b505050506040513d601f19601f820116820180604052508101906132c89190615b50565b6132e45760405162461bcd60e51b815260040161115190615c84565b6132f681670de0b6b3a7640000615b83565b63ffffffff8316600090815260d760205260408120601b01805490919061331e908490615dbe565b90915550505050565b61334d604051806060016040528060001515815260200160608152602001606081525090565b6001600160a01b038216600090815260d660209081526040918290208251606081018452815460ff1615158152600182018054855181860281018601909652808652919492938581019392908301828280156133f457602002820191906000526020600020906000905b82829054906101000a900463ffffffff1663ffffffff16815260200190600401906020826003010492830192600103820291508084116133b75790505b5050505050815260200160028201805461340d90615b16565b80601f016020809104026020016040519081016040528092919081815260200182805461343990615b16565b80156121295780601f1061345b57610100808354040283529160200191612129565b820191906000526020600020905b81548152906001019060200180831161346957505050919092525091949350505050565b6033546001600160a01b03163314611f005760405162461bcd60e51b815260206004820181905260248201527f4f776e61626c653a2063616c6c6572206973206e6f7420746865206f776e65726044820152606401611151565b60008060c960009054906101000a90046001600160a01b03166001600160a01b0316632913497b6040518163ffffffff1660e01b8152600401602060405180830381865afa15801561353d573d6000803e3d6000fd5b505050506040513d601f19601f820116820180604052508101906135619190615bbc565b6001600160a01b031663e1aa60366040518163ffffffff1660e01b8152600401602060405180830381865afa15801561359e573d6000803e3d6000fd5b505050506040513d601f19601f820116820180604052508101906135c29190615e35565b6135d484670de0b6b3a7640000615b83565b6135de9190615b9a565b9392505050565b6113c261348d565b7f4910fdfa16fed3260ed0e7147f7cc6da11a60208b5b9406d12a635614ffd91435460ff161561362057610a4c83614487565b826001600160a01b03166352d1902d6040518163ffffffff1660e01b8152600401602060405180830381865afa92505050801561367a575060408051601f3d908101601f1916820190925261367791810190615e35565b60015b6136dd5760405162461bcd60e51b815260206004820152602e60248201527f45524331393637557067726164653a206e657720696d706c656d656e7461746960448201526d6f6e206973206e6f74205555505360901b6064820152608401611151565b600080516020615f17833981519152811461374c5760405162461bcd60e51b815260206004820152602960248201527f45524331393637557067726164653a20756e737570706f727465642070726f786044820152681a58589b195555525160ba1b6064820152608401611151565b50610a4c838383614523565b600060ca8054806020026020016040519081016040528092919081815260200182805480156137ce57602002820191906000526020600020906000905b82829054906101000a900461ffff1661ffff16815260200190600201906020826001010492830192600103820291508084116137955790505b5050835163ffffffff8716600090815260d7602052604081209596509094935091508190505b8360ff168160ff161015613e6f57600383015463ffffffff600160a81b9091048116600081815260d760205260408120805492939092169003613838575050613e6f565b6138418161454e565b156138b95760405172149959995c995c881a5cc8111a5cd8589b1959606a1b81526013015b60405190819003902061387a846001615e4e565b60ff168363ffffffff167f915ed47901013ad29e90ede828f72888f54bd58cea141b0c6967498165382eb560405160405180910390a49350613e5d9050565b604080516104808101909152815463ffffffff168152600182018054613d54929184916020840191906138eb90615b16565b80601f016020809104026020016040519081016040528092919081815260200182805461391790615b16565b80156139645780601f1061393957610100808354040283529160200191613964565b820191906000526020600020905b81548152906001019060200180831161394757829003601f168201915b50505091835250506002820154602080830191909152600383015460ff80821615156040808601919091526001600160a01b03610100840416606086015263ffffffff600160a81b8404166080860152600160c81b90920416151560a084015260048401805482518185028101850190935280835260c0909401939192909190830182828015613a3f57602002820191906000526020600020906000905b82829054906101000a900463ffffffff1663ffffffff1681526020019060040190602082600301049283019260010382029150808411613a025790505b5050505050815260200160058201805480602002602001604051908101604052809291908181526020018280548015613ac357602002820191906000526020600020906000905b82829054906101000a900463ffffffff1663ffffffff1681526020019060040190602082600301049283019260010382029150808411613a865790505b5050505050815260200160068201805480602002602001604051908101604052809291908181526020018280548015613b4757602002820191906000526020600020906000905b82829054906101000a900463ffffffff1663ffffffff1681526020019060040190602082600301049283019260010382029150808411613b0a5790505b5050505050815260200160078201805480602002602001604051908101604052809291908181526020018280548015613b9f57602002820191906000526020600020905b815481526020019060010190808311613b8b575b505050918352505060088201546020808301919091526009830154604080840191909152600a8401546060840152600b8401546080840152600c84015460a0840152600d84015460c0840152600e84015460e0840152600f84015461010080850191909152601085015460ff81166101208601520463ffffffff166101408401526011840154610160840152601284015461018084015260138401546101a084015260148401546101c084015260158401546101e084015260168401546102008401526017840154610220840152601884018054825181850281018501909352808352610240909401939192909190830182828015613ce957602002820191906000526020600020906000905b82829054906101000a900463ffffffff1663ffffffff1681526020019060040190602082600301049283019260010382029150808411613cac5790505b505050918352505060198201546020820152601a8201546040820152601b8201546060820152601c9091015460ff8082161515608084015261010082048116151560a08401526201000082048116151560c0840152630100000090910416151560e0909101526146cf565b613d5f846001615e4e565b60ff161115613d96576040517f446f776e6c696e65206c6576656c73206c696d697420726561636865640000008152601d01613866565b60cb54875160009161ffff1690899060ff8716908110613db857613db8615e67565b602002602001015161ffff168b613dcf9190615b83565b613dd99190615b9a565b905080826017016000828254613def9190615dbe565b90915550613dff90508282613e8f565b613e098186615dbe565b94508063ffffffff808516908b167ff8fb9b5ab69a0208214661678427c6b48abf457f53605d1f559d17452f1eea11613e43886001615e4e565b60405160ff909116815260200160405180910390a4509350505b80613e6781615e7d565b9150506137f4565b508060ce6000828254613e829190615dbe565b9091555050505050505050565b8160140154818360120154613ea49190615dbe565b11613ee35780826012016000828254613ebd9190615dbe565b925050819055508082601b016000828254613ed89190615dbe565b909155506115869050565b81601201548260140154613ef79190615bd9565b82601b016000828254613f0a9190615dbe565b9091555061158690508261470e565b603380546001600160a01b038381166001600160a01b0319831681179093556040519116919082907f8be0079c531659141344cd1fd0a4f28419497f9722a3daafe3b4186f6b6457e090600090a35050565b875463ffffffff16600003613f8e57875463ffffffff191663ffffffff87161788555b601c88015460ff16613faa57601c8801805460ff191660011790555b600388015460ff166140025760d480546001810182556000919091527f9780e26d96b1f2a9a18ef8fc72d589dbf03ef788137b64f43897e83a91e7feec0180546001600160a01b0319166001600160a01b0389161790555b600388015461010090046001600160a01b031661403c57600388018054610100600160a81b0319166101006001600160a01b038a16021790555b876002015460000361405057600288018290555b6003880154600160c81b900460ff166140945760038801805460ff60c81b1963ffffffff8816600160a81b021664ffffffffff60a81b1990911617600160c81b1790555b600060128901556140a6600384615b9a565b601389015560148801839055600788018054600181018255600091825260208220018590556008890180548692906140df908490615dbe565b909155505060158801829055604080516000815260208101918290525161410a9160188b01916151f8565b5060005b818160ff16101561428357600389015463ffffffff600160a81b9091048116600081815260d76020526040812080549293909216900361414f575050614283565b8260ff166000036141b1578681600a01600082825461416e9190615dbe565b909155505060048181018054600181018255600091825260209091206008820401805460079092169092026101000a63ffffffff81810219909216918c16021790555b8681600c0160008282546141c59190615dbe565b909155505063ffffffff881615614245576005810180546001810182556000918252602082206008820401805460079092166004026101000a63ffffffff818102199093168d841691820217909155835460405190831693928c16927f3ec54e926fe5dd86406fe57832ff318517aed2a5cfbeacfb90a5e9489483ae4b91a45b60cf54640100000000900460ff1615614263576142638188876147b6565b61426d8786614f10565b995081905061427b81615e7d565b91505061410e565b505050505050505050565b600054610100900460ff166142b55760405162461bcd60e51b815260040161115190615e9c565b611f00614f41565b600054610100900460ff16611f005760405162461bcd60e51b815260040161115190615e9c565b60d5546000906301000000900460ff16815b8160ff168160ff1610156143925760ff8116600090815260d8602052604090206001015461016085015110801590614348575060ff8116600090815260d860205260409020600201546101a085015110155b801561436e575060ff8116600090815260d860205260409020600301546101e085015110155b1561437b57809250614380565b614392565b8061438a81615e7d565b9150506142f6565b5050919050565b600080670de0b6b3a764000060c960009054906101000a90046001600160a01b03166001600160a01b0316632913497b6040518163ffffffff1660e01b8152600401602060405180830381865afa1580156143f8573d6000803e3d6000fd5b505050506040513d601f19601f8201168201806040525081019061441c9190615bbc565b6001600160a01b031663e1aa60366040518163ffffffff1660e01b8152600401602060405180830381865afa158015614459573d6000803e3d6000fd5b505050506040513d601f19601f8201168201806040525081019061447d9190615e35565b6135d49085615b83565b6001600160a01b0381163b6144f45760405162461bcd60e51b815260206004820152602d60248201527f455243313936373a206e657720696d706c656d656e746174696f6e206973206e60448201526c1bdd08184818dbdb9d1c9858dd609a1b6064820152608401611151565b600080516020615f1783398151915280546001600160a01b0319166001600160a01b0392909216919091179055565b61452c83614f71565b6000825111806145395750805b15610a4c576145488383614fb1565b50505050565b601c81015460009060ff16158061456d57508160140154826012015410155b1561457a57506001919050565b6018820154158015906146ba575060c960009054906101000a90046001600160a01b03166001600160a01b0316638908df3a6040518163ffffffff1660e01b8152600401602060405180830381865afa1580156145db573d6000803e3d6000fd5b505050506040513d601f19601f820116820180604052508101906145ff9190615bbc565b6001600160a01b03166355332a8583601801600185601801805490506146259190615bd9565b8154811061463557614635615e67565b6000918252602090912060088204015460405160e084901b6001600160e01b0319168152600790921660049081026101000a90910463ffffffff1690820152602401602060405180830381865afa158015614694573d6000803e3d6000fd5b505050506040513d601f19601f820116820180604052508101906146b89190615b50565b155b156146c757506001919050565b506000919050565b60e0810151516000908181156135de5760cf546001906146fc906601000000000000900460ff1684615b83565b6147069190615bd9565b949350505050565b601c8101805460ff1916905560408051600081526020810191829052516147399160188401916151f8565b5060006012820181905560138201819055601482015542601682015580546040805163ffffffff9092168252602082018190526011908201527013585e08131a5b5a5d0814995858da1959607a1b60608201527fce8ab8f2ac6a94861f9740fa1fed3e6d13a85dfd8a4833bf96f3a0055ba7fb6f90608001612695565b6010830154604080516104808101909152845463ffffffff16815260018501805460ff90931692614c5c929187916020840191906147f390615b16565b80601f016020809104026020016040519081016040528092919081815260200182805461481f90615b16565b801561486c5780601f106148415761010080835404028352916020019161486c565b820191906000526020600020905b81548152906001019060200180831161484f57829003601f168201915b50505091835250506002820154602080830191909152600383015460ff80821615156040808601919091526001600160a01b03610100840416606086015263ffffffff600160a81b8404166080860152600160c81b90920416151560a084015260048401805482518185028101850190935280835260c090940193919290919083018282801561494757602002820191906000526020600020906000905b82829054906101000a900463ffffffff1663ffffffff168152602001906004019060208260030104928301926001038202915080841161490a5790505b50505050508152602001600582018054806020026020016040519081016040528092919081815260200182805480156149cb57602002820191906000526020600020906000905b82829054906101000a900463ffffffff1663ffffffff168152602001906004019060208260030104928301926001038202915080841161498e5790505b5050505050815260200160068201805480602002602001604051908101604052809291908181526020018280548015614a4f57602002820191906000526020600020906000905b82829054906101000a900463ffffffff1663ffffffff1681526020019060040190602082600301049283019260010382029150808411614a125790505b5050505050815260200160078201805480602002602001604051908101604052809291908181526020018280548015614aa757602002820191906000526020600020905b815481526020019060010190808311614a93575b505050918352505060088201546020808301919091526009830154604080840191909152600a8401546060840152600b8401546080840152600c84015460a0840152600d84015460c0840152600e84015460e0840152600f84015461010080850191909152601085015460ff81166101208601520463ffffffff166101408401526011840154610160840152601284015461018084015260138401546101a084015260148401546101c084015260158401546101e084015260168401546102008401526017840154610220840152601884018054825181850281018501909352808352610240909401939192909190830182828015614bf157602002820191906000526020600020906000905b82829054906101000a900463ffffffff1663ffffffff1681526020019060040190602082600301049283019260010382029150808411614bb45790505b505050918352505060198201546020820152601a8201546040820152601b8201546060820152601c9091015460ff8082161515608084015261010082048116151560a08401526201000082048116151560c0840152630100000090910416151560e0909101526142e4565b60ff161115610a4c57604080516104808101909152835463ffffffff168152600184018054614c97929186916020840191906147f390615b16565b60108401805460ff191660ff9283169081178255600090815260d860209081526040808320885460099182018054600181810183559187529486206008860401805463ffffffff60079097166004026101000a8781021990911696909316909202949094179055935490941682529290200154614d149190615bd9565b60108401805464ffffffff0019811661010063ffffffff948516810291821793849055875460408051918716825291909404909416602084015260ff918216911617918101919091527f4d3af8f60ffd033b575846f894122f2342b39bc9a90da98d0a966128702b568d9060600160405180910390a1604080516104808101909152835463ffffffff16815260018401805460d892600092614dc092889160208401916147f390615b16565b60ff90811682526020820192909252604001600020600801541615614e7f57604080516104808101909152835463ffffffff16815260018401805460d892600092614e1592889160208401916147f390615b16565b60ff1660ff1681526020019081526020016000206007015483600f0154614e3c9190615dbe565b811115614e6b578083600f01819055508183600e016000828254614e609190615dbe565b90915550610a4c9050565b8183600e016000828254614e609190615dbe565b60cf54640100000000900460ff1615610a4c57601083015460ff16600090815260d86020526040902060050154614eb7908490613e8f565b601083015460ff908116600090815260d8602052604080822060058101549054875492519194169263ffffffff909216917fdeaf5b294f5016988108257045fc779d7d01e05a4ecdc4df70f62d5a799e053b91a4505050565b60d25460d154614f209190615dbe565b811115614f2f5760d15560d055565b8160d0600082825461331e9190615dbe565b600054610100900460ff16614f685760405162461bcd60e51b815260040161115190615e9c565b611f0033613f19565b614f7a81614487565b6040516001600160a01b038216907fbc7cd75a20ee27fd9adebab32041f755214dbc6bffa90cc0225b39da2e5c2d3b90600090a250565b60606001600160a01b0383163b6150195760405162461bcd60e51b815260206004820152602660248201527f416464726573733a2064656c65676174652063616c6c20746f206e6f6e2d636f6044820152651b9d1c9858dd60d21b6064820152608401611151565b600080846001600160a01b0316846040516150349190615ee7565b600060405180830381855af49150503d806000811461506f576040519150601f19603f3d011682016040523d82523d6000602084013e615074565b606091505b509150915061509c8282604051806060016040528060278152602001615f37602791396150a7565b925050505b92915050565b606083156150b65750816135de565b6135de83838151156150cb5781518083602001fd5b8060405162461bcd60e51b81526004016111519190615f03565b82805482825590600052602060002090600f0160109004810192821561517d5791602002820160005b8382111561514d57835183826101000a81548161ffff021916908360ff160217905550926020019260020160208160010104928301926001030261510e565b801561517b5782816101000a81549061ffff021916905560020160208160010104928301926001030261514d565b505b50615189929150615295565b5090565b82805482825590600052602060002090600f0160109004810192821561517d5791602002820160005b8382111561514d57833560ff1683826101000a81548161ffff021916908360ff16021790555092602001926002016020816001010492830192600103026151b6565b8280548282559060005260206000209060070160089004810192821561517d5791602002820160005b8382111561526557835183826101000a81548163ffffffff021916908363ffffffff1602179055509260200192600401602081600301049283019260010302615221565b801561517b5782816101000a81549063ffffffff0219169055600401602081600301049283019260010302615265565b5b808211156151895760008155600101615296565b803560ff811681146152bb57600080fd5b919050565b6000602082840312156152d257600080fd5b6135de826152aa565b6020808252825182820181905260009190848201906040850190845b8181101561531957835163ffffffff16835292840192918401916001016152f7565b50909695505050505050565b6001600160a01b03811681146113c257600080fd5b6000806040838503121561534d57600080fd5b823561535881615325565b946020939093013593505050565b60006020828403121561537857600080fd5b5035919050565b63ffffffff811681146113c257600080fd5b6000602082840312156153a357600080fd5b81356135de8161537f565b60005b838110156153c95781810151838201526020016153b1565b50506000910152565b600081518084526153ea8160208601602086016153ae565b601f01601f19169290920160200192915050565b600081518084526020808501945080840160005b8381101561543457815163ffffffff1687529582019590820190600101615412565b509495945050505050565b600081518084526020808501945080840160005b8381101561543457815187529582019590820190600101615453565b6020815261548660208201835163ffffffff169052565b600060208301516104808060408501526154a46104a08501836153d2565b91506040850151606085015260608501516154c3608086018215159052565b5060808501516001600160a01b03811660a08601525060a085015163ffffffff811660c08601525060c085015180151560e08601525060e0850151601f1961010081878603018188015261551785846153fe565b94508088015192505061012081878603018188015261553685846153fe565b94508088015192505061014081878603018188015261555585846153fe565b945080880151925050610160818786030181880152615574858461543f565b90880151610180888101919091528801516101a0808901919091528801516101c0808901919091528801516101e0808901919091528801516102008089019190915288015161022080890191909152880151610240808901919091528801516102608089019190915288015190945091506102806155f68188018460ff169052565b87015191506102a061560f8782018463ffffffff169052565b8701516102c0878101919091528701516102e080880191909152870151610300808801919091528701516103208088019190915287015161034080880191909152870151610360808801919091528701516103808088019190915287015186850382016103a08089019190915290925061568985846153fe565b908801516103c0888101919091528801516103e08089019190915288015161040080890191909152880151909450915061042090506156cb8187018315159052565b86015190506104406156e08682018315159052565b86015190506104606156f58682018315159052565b90950151151593019290925250919050565b60006020828403121561571957600080fd5b81356135de81615325565b6000806040838503121561573757600080fd5b8235915060208301356157498161537f565b809150509250929050565b634e487b7160e01b600052604160045260246000fd5b600067ffffffffffffffff8084111561578557615785615754565b604051601f8501601f19908116603f011681019082821181831017156157ad576157ad615754565b816040528093508581528686860111156157c657600080fd5b858560208301376000602087830101525050509392505050565b80151581146113c257600080fd5b80356152bb816157e0565b60008060008060008060008060006101208a8c03121561581857600080fd5b6158218a6152aa565b985060208a0135975060408a0135965060608a0135955060808a013567ffffffffffffffff81111561585257600080fd5b8a01601f81018c1361586357600080fd5b6158728c82356020840161576a565b95505060a08a0135935060c08a0135925060e08a013591506158976101008b016157ee565b90509295985092959850929598565b600080604083850312156158b957600080fd5b82356158c481615325565b9150602083013567ffffffffffffffff8111156158e057600080fd5b8301601f810185136158f157600080fd5b6159008582356020840161576a565b9150509250929050565b6000806040838503121561591d57600080fd5b82356153588161537f565b6020815261593c60208201835160ff169052565b602082015160408201526040820151606082015260608201516080820152600060808301516101408060a08501526159786101608501836153d2565b915060a085015160c085015260c085015160e085015260e08501516101008181870152808701519150506101206159b28187018315159052565b860151858403601f19018387015290506159cc83826153fe565b9695505050505050565b600080600080600080600060e0888a0312156159f157600080fd5b87356159fc81615325565b96506020880135615a0c8161537f565b96999698505050506040850135946060810135946080820135945060a0820135935060c0909101359150565b600060208284031215615a4a57600080fd5b813561ffff811681146135de57600080fd5b60008060208385031215615a6f57600080fd5b823567ffffffffffffffff80821115615a8757600080fd5b818501915085601f830112615a9b57600080fd5b813581811115615aaa57600080fd5b8660208260051b8501011115615abf57600080fd5b60209290920196919550909350505050565b602081528151151560208201526000602083015160606040840152615af960808401826153fe565b90506040840151601f1984830301606085015261509c82826153d2565b600181811c90821680615b2a57607f821691505b602082108103615b4a57634e487b7160e01b600052602260045260246000fd5b50919050565b600060208284031215615b6257600080fd5b81516135de816157e0565b634e487b7160e01b600052601160045260246000fd5b80820281158282048414176150a1576150a1615b6d565b600082615bb757634e487b7160e01b600052601260045260246000fd5b500490565b600060208284031215615bce57600080fd5b81516135de81615325565b818103818111156150a1576150a1615b6d565b6020808252602c908201527f46756e6374696f6e206d7573742062652063616c6c6564207468726f7567682060408201526b19195b1959d85d1958d85b1b60a21b606082015260800190565b6020808252602c908201527f46756e6374696f6e206d7573742062652063616c6c6564207468726f7567682060408201526b6163746976652070726f787960a01b606082015260800190565b6020808252601290820152712cb7ba9030b932903737ba1030b236b4b71760711b604082015260600190565b601f821115610a4c57600081815260208120601f850160051c81016020861015615cd75750805b601f850160051c820191505b81811015615cf657828155600101615ce3565b505050505050565b815167ffffffffffffffff811115615d1857615d18615754565b615d2c81615d268454615b16565b84615cb0565b602080601f831160018114615d615760008415615d495750858301515b600019600386901b1c1916600185901b178555615cf6565b600085815260208120601f198616915b82811015615d9057888601518255948401946001909101908401615d71565b5085821015615dae5787850151600019600388901b60f8161c191681555b5050505050600190811b01905550565b808201808211156150a1576150a1615b6d565b63ffffffff818116838216019080821115615dee57615dee615b6d565b5092915050565b600060208284031215615e0757600080fd5b81516135de8161537f565b600063ffffffff808316818103615e2b57615e2b615b6d565b6001019392505050565b600060208284031215615e4757600080fd5b5051919050565b60ff81811683821601908111156150a1576150a1615b6d565b634e487b7160e01b600052603260045260246000fd5b600060ff821660ff8103615e9357615e93615b6d565b60010192915050565b6020808252602b908201527f496e697469616c697a61626c653a20636f6e7472616374206973206e6f74206960408201526a6e697469616c697a696e6760a81b606082015260800190565b60008251615ef98184602087016153ae565b9190910192915050565b6020815260006135de60208301846153d256fe360894a13ba1a3210667c828492db98dca3e2076cc3735a920a3ca505d382bbc416464726573733a206c6f772d6c6576656c2064656c65676174652063616c6c206661696c6564a264697066735822122017ccbe508d1f45fc6b90832910b68f242b67113d0291a0309cfa3ce6e6fbf3fe64736f6c63430008120033","opcodes":"PUSH1 0xA0 PUSH1 0x40 MSTORE ADDRESS PUSH1 0x80 MSTORE CALLVALUE DUP1 ISZERO PUSH2 0x14 JUMPI PUSH1 0x0 DUP1 REVERT JUMPDEST POP PUSH1 0x80 MLOAD PUSH2 0x5F93 PUSH3 0x4D PUSH1 0x0 CODECOPY PUSH1 0x0 DUP2 DUP2 PUSH2 0x13CF ADD MSTORE DUP2 DUP2 PUSH2 0x140F ADD MSTORE DUP2 DUP2 PUSH2 0x1B36 ADD MSTORE DUP2 DUP2 PUSH2 0x1B76 ADD MSTORE PUSH2 0x1CFD ADD MSTORE PUSH2 0x5F93 PUSH1 0x0 RETURN INVALID PUSH1 0x80 PUSH1 0x40 MSTORE PUSH1 0x4 CALLDATASIZE LT PUSH2 0x2E8 JUMPI PUSH1 0x0 CALLDATALOAD PUSH1 0xE0 SHR DUP1 PUSH4 0x6F38E410 GT PUSH2 0x190 JUMPI DUP1 PUSH4 0x9F4E8398 GT PUSH2 0xDC JUMPI DUP1 PUSH4 0xCD21364D GT PUSH2 0x95 JUMPI DUP1 PUSH4 0xF396673C GT PUSH2 0x6F JUMPI DUP1 PUSH4 0xF396673C EQ PUSH2 0x8F4 JUMPI DUP1 PUSH4 0xF41BFEEF EQ PUSH2 0x914 JUMPI DUP1 PUSH4 0xFAFC9597 EQ PUSH2 0x92A JUMPI DUP1 PUSH4 0xFB47E016 EQ PUSH2 0x94C JUMPI PUSH1 0x0 DUP1 REVERT JUMPDEST DUP1 PUSH4 0xCD21364D EQ PUSH2 0x894 JUMPI DUP1 PUSH4 0xE1C715BA EQ PUSH2 0x8B4 JUMPI DUP1 PUSH4 0xF2FDE38B EQ PUSH2 0x8D4 JUMPI PUSH1 0x0 DUP1 REVERT JUMPDEST DUP1 PUSH4 0x9F4E8398 EQ PUSH2 0x7EB JUMPI DUP1 PUSH4 0xA0B6105F EQ PUSH2 0x80B JUMPI DUP1 PUSH4 0xA152B0F0 EQ PUSH2 0x82B JUMPI DUP1 PUSH4 0xA28A3686 EQ PUSH2 0x83E JUMPI DUP1 PUSH4 0xA43AE408 EQ PUSH2 0x861 JUMPI DUP1 PUSH4 0xBCB93F9B EQ PUSH2 0x881 JUMPI PUSH1 0x0 DUP1 REVERT JUMPDEST DUP1 PUSH4 0x7CF97C8C GT PUSH2 0x149 JUMPI DUP1 PUSH4 0x8AF925DC GT PUSH2 0x123 JUMPI DUP1 PUSH4 0x8AF925DC EQ PUSH2 0x77D JUMPI DUP1 PUSH4 0x8DA5CB5B EQ PUSH2 0x797 JUMPI DUP1 PUSH4 0x8F84DE85 EQ PUSH2 0x7B5 JUMPI DUP1 PUSH4 0x987DD4A7 EQ PUSH2 0x7CB JUMPI PUSH1 0x0 DUP1 REVERT JUMPDEST DUP1 PUSH4 0x7CF97C8C EQ PUSH2 0x732 JUMPI DUP1 PUSH4 0x8129FC1C EQ PUSH2 0x752 JUMPI DUP1 PUSH4 0x852FF2FD EQ PUSH2 0x767 JUMPI PUSH1 0x0 DUP1 REVERT JUMPDEST DUP1 PUSH4 0x6F38E410 EQ PUSH2 0x66B JUMPI DUP1 PUSH4 0x7084431F EQ PUSH2 0x68B JUMPI DUP1 PUSH4 0x715018A6 EQ PUSH2 0x6BA JUMPI DUP1 PUSH4 0x7879B5EF EQ PUSH2 0x6CF JUMPI DUP1 PUSH4 0x7BDBF996 EQ PUSH2 0x6EF JUMPI DUP1 PUSH4 0x7C599486 EQ PUSH2 0x71C JUMPI PUSH1 0x0 DUP1 REVERT JUMPDEST DUP1 PUSH4 0x365B98B2 GT PUSH2 0x24F JUMPI DUP1 PUSH4 0x4B5102B8 GT PUSH2 0x208 JUMPI DUP1 PUSH4 0x509D6C52 GT PUSH2 0x1E2 JUMPI DUP1 PUSH4 0x509D6C52 EQ PUSH2 0x5F6 JUMPI DUP1 PUSH4 0x52D1902D EQ PUSH2 0x616 JUMPI DUP1 PUSH4 0x5979369A EQ PUSH2 0x62B JUMPI DUP1 PUSH4 0x6CCC10AE EQ PUSH2 0x64B JUMPI PUSH1 0x0 DUP1 REVERT JUMPDEST DUP1 PUSH4 0x4B5102B8 EQ PUSH2 0x588 JUMPI DUP1 PUSH4 0x4E6E93A3 EQ PUSH2 0x5A8 JUMPI DUP1 PUSH4 0x4F1EF286 EQ PUSH2 0x5E3 JUMPI PUSH1 0x0 DUP1 REVERT JUMPDEST DUP1 PUSH4 0x365B98B2 EQ PUSH2 0x4B6 JUMPI DUP1 PUSH4 0x390A5BA5 EQ PUSH2 0x4D6 JUMPI DUP1 PUSH4 0x3EFF2DEF EQ PUSH2 0x508 JUMPI DUP1 PUSH4 0x473B0D46 EQ PUSH2 0x528 JUMPI DUP1 PUSH4 0x498B3E55 EQ PUSH2 0x548 JUMPI DUP1 PUSH4 0x4A750822 EQ PUSH2 0x568 JUMPI PUSH1 0x0 DUP1 REVERT JUMPDEST DUP1 PUSH4 0x22F88B52 GT PUSH2 0x2A1 JUMPI DUP1 PUSH4 0x22F88B52 EQ PUSH2 0x407 JUMPI DUP1 PUSH4 0x2ED421D2 EQ PUSH2 0x41D JUMPI DUP1 PUSH4 0x300825B5 EQ PUSH2 0x433 JUMPI DUP1 PUSH4 0x313CE567 EQ PUSH2 0x453 JUMPI DUP1 PUSH4 0x35759788 EQ PUSH2 0x481 JUMPI DUP1 PUSH4 0x3659CFE6 EQ PUSH2 0x496 JUMPI PUSH1 0x0 DUP1 REVERT JUMPDEST DUP1 PUSH4 0x12DA720 EQ PUSH2 0x2F4 JUMPI DUP1 PUSH4 0xB243DAD EQ PUSH2 0x32A JUMPI DUP1 PUSH4 0x1319CFF9 EQ PUSH2 0x34C JUMPI DUP1 PUSH4 0x18E10BFF EQ PUSH2 0x384 JUMPI DUP1 PUSH4 0x1F9E65E4 EQ PUSH2 0x3B7 JUMPI DUP1 PUSH4 0x21009789 EQ PUSH2 0x3DA JUMPI PUSH1 0x0 DUP1 REVERT JUMPDEST CALLDATASIZE PUSH2 0x2EF JUMPI STOP JUMPDEST PUSH1 0x0 DUP1 REVERT JUMPDEST CALLVALUE DUP1 ISZERO PUSH2 0x300 JUMPI PUSH1 0x0 DUP1 REVERT JUMPDEST POP PUSH2 0x314 PUSH2 0x30F CALLDATASIZE PUSH1 0x4 PUSH2 0x52C0 JUMP JUMPDEST PUSH2 0x979 JUMP JUMPDEST PUSH1 0x40 MLOAD PUSH2 0x321 SWAP2 SWAP1 PUSH2 0x52DB JUMP JUMPDEST PUSH1 0x40 MLOAD DUP1 SWAP2 SUB SWAP1 RETURN JUMPDEST CALLVALUE DUP1 ISZERO PUSH2 0x336 JUMPI PUSH1 0x0 DUP1 REVERT JUMPDEST POP PUSH2 0x34A PUSH2 0x345 CALLDATASIZE PUSH1 0x4 PUSH2 0x533A JUMP JUMPDEST PUSH2 0xA0E JUMP JUMPDEST STOP JUMPDEST CALLVALUE DUP1 ISZERO PUSH2 0x358 JUMPI PUSH1 0x0 DUP1 REVERT JUMPDEST POP PUSH2 0x36C PUSH2 0x367 CALLDATASIZE PUSH1 0x4 PUSH2 0x5366 JUMP JUMPDEST PUSH2 0xA51 JUMP JUMPDEST PUSH1 0x40 MLOAD PUSH1 0x1 PUSH1 0x1 PUSH1 0xA0 SHL SUB SWAP1 SWAP2 AND DUP2 MSTORE PUSH1 0x20 ADD PUSH2 0x321 JUMP JUMPDEST CALLVALUE DUP1 ISZERO PUSH2 0x390 JUMPI PUSH1 0x0 DUP1 REVERT JUMPDEST POP PUSH1 0xD5 SLOAD PUSH2 0x3A5 SWAP1 PUSH4 0x1000000 SWAP1 DIV PUSH1 0xFF AND DUP2 JUMP JUMPDEST PUSH1 0x40 MLOAD PUSH1 0xFF SWAP1 SWAP2 AND DUP2 MSTORE PUSH1 0x20 ADD PUSH2 0x321 JUMP JUMPDEST CALLVALUE DUP1 ISZERO PUSH2 0x3C3 JUMPI PUSH1 0x0 DUP1 REVERT JUMPDEST POP PUSH2 0x3CC PUSH2 0xA7B JUMP JUMPDEST PUSH1 0x40 MLOAD SWAP1 DUP2 MSTORE PUSH1 0x20 ADD PUSH2 0x321 JUMP JUMPDEST CALLVALUE DUP1 ISZERO PUSH2 0x3E6 JUMPI PUSH1 0x0 DUP1 REVERT JUMPDEST POP PUSH2 0x3FA PUSH2 0x3F5 CALLDATASIZE PUSH1 0x4 PUSH2 0x5391 JUMP JUMPDEST PUSH2 0xA8D JUMP JUMPDEST PUSH1 0x40 MLOAD PUSH2 0x321 SWAP2 SWAP1 PUSH2 0x546F JUMP JUMPDEST CALLVALUE DUP1 ISZERO PUSH2 0x413 JUMPI PUSH1 0x0 DUP1 REVERT JUMPDEST POP PUSH2 0x3CC PUSH1 0xD0 SLOAD DUP2 JUMP JUMPDEST CALLVALUE DUP1 ISZERO PUSH2 0x429 JUMPI PUSH1 0x0 DUP1 REVERT JUMPDEST POP PUSH2 0x3CC PUSH1 0xD1 SLOAD DUP2 JUMP JUMPDEST CALLVALUE DUP1 ISZERO PUSH2 0x43F JUMPI PUSH1 0x0 DUP1 REVERT JUMPDEST POP PUSH2 0x34A PUSH2 0x44E CALLDATASIZE PUSH1 0x4 PUSH2 0x5391 JUMP JUMPDEST PUSH2 0x106E JUMP JUMPDEST CALLVALUE DUP1 ISZERO PUSH2 0x45F JUMPI PUSH1 0x0 DUP1 REVERT JUMPDEST POP PUSH1 0xCB SLOAD PUSH2 0x46E SWAP1 PUSH2 0xFFFF AND DUP2 JUMP JUMPDEST PUSH1 0x40 MLOAD PUSH2 0xFFFF SWAP1 SWAP2 AND DUP2 MSTORE PUSH1 0x20 ADD PUSH2 0x321 JUMP JUMPDEST CALLVALUE DUP1 ISZERO PUSH2 0x48D JUMPI PUSH1 0x0 DUP1 REVERT JUMPDEST POP PUSH2 0x34A PUSH2 0x138E JUMP JUMPDEST CALLVALUE DUP1 ISZERO PUSH2 0x4A2 JUMPI PUSH1 0x0 DUP1 REVERT JUMPDEST POP PUSH2 0x34A PUSH2 0x4B1 CALLDATASIZE PUSH1 0x4 PUSH2 0x5707 JUMP JUMPDEST PUSH2 0x13C5 JUMP JUMPDEST CALLVALUE DUP1 ISZERO PUSH2 0x4C2 JUMPI PUSH1 0x0 DUP1 REVERT JUMPDEST POP PUSH2 0x36C PUSH2 0x4D1 CALLDATASIZE PUSH1 0x4 PUSH2 0x5366 JUMP JUMPDEST PUSH2 0x14A1 JUMP JUMPDEST CALLVALUE DUP1 ISZERO PUSH2 0x4E2 JUMPI PUSH1 0x0 DUP1 REVERT JUMPDEST POP PUSH1 0xCF SLOAD PUSH2 0x4F3 SWAP1 PUSH4 0xFFFFFFFF AND DUP2 JUMP JUMPDEST PUSH1 0x40 MLOAD PUSH4 0xFFFFFFFF SWAP1 SWAP2 AND DUP2 MSTORE PUSH1 0x20 ADD PUSH2 0x321 JUMP JUMPDEST CALLVALUE DUP1 ISZERO PUSH2 0x514 JUMPI PUSH1 0x0 DUP1 REVERT JUMPDEST POP PUSH2 0x34A PUSH2 0x523 CALLDATASIZE PUSH1 0x4 PUSH2 0x52C0 JUMP JUMPDEST PUSH2 0x14B1 JUMP JUMPDEST CALLVALUE DUP1 ISZERO PUSH2 0x534 JUMPI PUSH1 0x0 DUP1 REVERT JUMPDEST POP PUSH2 0x34A PUSH2 0x543 CALLDATASIZE PUSH1 0x4 PUSH2 0x5366 JUMP JUMPDEST PUSH2 0x14D7 JUMP JUMPDEST CALLVALUE DUP1 ISZERO PUSH2 0x554 JUMPI PUSH1 0x0 DUP1 REVERT JUMPDEST POP PUSH2 0x34A PUSH2 0x563 CALLDATASIZE PUSH1 0x4 PUSH2 0x5724 JUMP JUMPDEST PUSH2 0x14E4 JUMP JUMPDEST CALLVALUE DUP1 ISZERO PUSH2 0x574 JUMPI PUSH1 0x0 DUP1 REVERT JUMPDEST POP PUSH2 0x34A PUSH2 0x583 CALLDATASIZE PUSH1 0x4 PUSH2 0x57F9 JUMP JUMPDEST PUSH2 0x158A JUMP JUMPDEST CALLVALUE DUP1 ISZERO PUSH2 0x594 JUMPI PUSH1 0x0 DUP1 REVERT JUMPDEST POP PUSH2 0x34A PUSH2 0x5A3 CALLDATASIZE PUSH1 0x4 PUSH2 0x52C0 JUMP JUMPDEST PUSH2 0x163A JUMP JUMPDEST CALLVALUE DUP1 ISZERO PUSH2 0x5B4 JUMPI PUSH1 0x0 DUP1 REVERT JUMPDEST POP PUSH2 0x5C8 PUSH2 0x5C3 CALLDATASIZE PUSH1 0x4 PUSH2 0x5391 JUMP JUMPDEST PUSH2 0x1662 JUMP JUMPDEST PUSH1 0x40 DUP1 MLOAD SWAP4 DUP5 MSTORE PUSH1 0x20 DUP5 ADD SWAP3 SWAP1 SWAP3 MSTORE SWAP1 DUP3 ADD MSTORE PUSH1 0x60 ADD PUSH2 0x321 JUMP JUMPDEST PUSH2 0x34A PUSH2 0x5F1 CALLDATASIZE PUSH1 0x4 PUSH2 0x58A6 JUMP JUMPDEST PUSH2 0x1B2C JUMP JUMPDEST CALLVALUE DUP1 ISZERO PUSH2 0x602 JUMPI PUSH1 0x0 DUP1 REVERT JUMPDEST POP PUSH2 0x34A PUSH2 0x611 CALLDATASIZE PUSH1 0x4 PUSH2 0x590A JUMP JUMPDEST PUSH2 0x1BF8 JUMP JUMPDEST CALLVALUE DUP1 ISZERO PUSH2 0x622 JUMPI PUSH1 0x0 DUP1 REVERT JUMPDEST POP PUSH2 0x3CC PUSH2 0x1CF0 JUMP JUMPDEST CALLVALUE DUP1 ISZERO PUSH2 0x637 JUMPI PUSH1 0x0 DUP1 REVERT JUMPDEST POP PUSH2 0x34A PUSH2 0x646 CALLDATASIZE PUSH1 0x4 PUSH2 0x5391 JUMP JUMPDEST PUSH2 0x1DA3 JUMP JUMPDEST CALLVALUE DUP1 ISZERO PUSH2 0x657 JUMPI PUSH1 0x0 DUP1 REVERT JUMPDEST POP PUSH2 0x34A PUSH2 0x666 CALLDATASIZE PUSH1 0x4 PUSH2 0x590A JUMP JUMPDEST PUSH2 0x1E47 JUMP JUMPDEST CALLVALUE DUP1 ISZERO PUSH2 0x677 JUMPI PUSH1 0x0 DUP1 REVERT JUMPDEST POP PUSH1 0xCB SLOAD PUSH2 0x3A5 SWAP1 PUSH3 0x10000 SWAP1 DIV PUSH1 0xFF AND DUP2 JUMP JUMPDEST CALLVALUE DUP1 ISZERO PUSH2 0x697 JUMPI PUSH1 0x0 DUP1 REVERT JUMPDEST POP PUSH1 0xD5 SLOAD PUSH2 0x6AA SWAP1 PUSH2 0x100 SWAP1 DIV PUSH1 0xFF AND DUP2 JUMP JUMPDEST PUSH1 0x40 MLOAD SWAP1 ISZERO ISZERO DUP2 MSTORE PUSH1 0x20 ADD PUSH2 0x321 JUMP JUMPDEST CALLVALUE DUP1 ISZERO PUSH2 0x6C6 JUMPI PUSH1 0x0 DUP1 REVERT JUMPDEST POP PUSH2 0x34A PUSH2 0x1EEE JUMP JUMPDEST CALLVALUE DUP1 ISZERO PUSH2 0x6DB JUMPI PUSH1 0x0 DUP1 REVERT JUMPDEST POP PUSH2 0x46E PUSH2 0x6EA CALLDATASIZE PUSH1 0x4 PUSH2 0x5366 JUMP JUMPDEST PUSH2 0x1F02 JUMP JUMPDEST CALLVALUE DUP1 ISZERO PUSH2 0x6FB JUMPI PUSH1 0x0 DUP1 REVERT JUMPDEST POP PUSH2 0x70F PUSH2 0x70A CALLDATASIZE PUSH1 0x4 PUSH2 0x52C0 JUMP JUMPDEST PUSH2 0x1F3A JUMP JUMPDEST PUSH1 0x40 MLOAD PUSH2 0x321 SWAP2 SWAP1 PUSH2 0x5928 JUMP JUMPDEST CALLVALUE DUP1 ISZERO PUSH2 0x728 JUMPI PUSH1 0x0 DUP1 REVERT JUMPDEST POP PUSH2 0x3CC PUSH1 0xCE SLOAD DUP2 JUMP JUMPDEST CALLVALUE DUP1 ISZERO PUSH2 0x73E JUMPI PUSH1 0x0 DUP1 REVERT JUMPDEST POP PUSH2 0x34A PUSH2 0x74D CALLDATASIZE PUSH1 0x4 PUSH2 0x59D6 JUMP JUMPDEST PUSH2 0x2139 JUMP JUMPDEST CALLVALUE DUP1 ISZERO PUSH2 0x75E JUMPI PUSH1 0x0 DUP1 REVERT JUMPDEST POP PUSH2 0x34A PUSH2 0x2408 JUMP JUMPDEST CALLVALUE DUP1 ISZERO PUSH2 0x773 JUMPI PUSH1 0x0 DUP1 REVERT JUMPDEST POP PUSH2 0x3CC PUSH1 0xCD SLOAD DUP2 JUMP JUMPDEST CALLVALUE DUP1 ISZERO PUSH2 0x789 JUMPI PUSH1 0x0 DUP1 REVERT JUMPDEST POP PUSH1 0xD5 SLOAD PUSH2 0x6AA SWAP1 PUSH1 0xFF AND DUP2 JUMP JUMPDEST CALLVALUE DUP1 ISZERO PUSH2 0x7A3 JUMPI PUSH1 0x0 DUP1 REVERT JUMPDEST POP PUSH1 0x33 SLOAD PUSH1 0x1 PUSH1 0x1 PUSH1 0xA0 SHL SUB AND PUSH2 0x36C JUMP JUMPDEST CALLVALUE DUP1 ISZERO PUSH2 0x7C1 JUMPI PUSH1 0x0 DUP1 REVERT JUMPDEST POP PUSH2 0x3CC PUSH1 0xCC SLOAD DUP2 JUMP JUMPDEST CALLVALUE DUP1 ISZERO PUSH2 0x7D7 JUMPI PUSH1 0x0 DUP1 REVERT JUMPDEST POP PUSH2 0x3CC PUSH2 0x7E6 CALLDATASIZE PUSH1 0x4 PUSH2 0x5391 JUMP JUMPDEST PUSH2 0x26A0 JUMP JUMPDEST CALLVALUE DUP1 ISZERO PUSH2 0x7F7 JUMPI PUSH1 0x0 DUP1 REVERT JUMPDEST POP PUSH2 0x34A PUSH2 0x806 CALLDATASIZE PUSH1 0x4 PUSH2 0x5707 JUMP JUMPDEST PUSH2 0x2B5F JUMP JUMPDEST CALLVALUE DUP1 ISZERO PUSH2 0x817 JUMPI PUSH1 0x0 DUP1 REVERT JUMPDEST POP PUSH2 0x34A PUSH2 0x826 CALLDATASIZE PUSH1 0x4 PUSH2 0x533A JUMP JUMPDEST PUSH2 0x2C08 JUMP JUMPDEST PUSH2 0x34A PUSH2 0x839 CALLDATASIZE PUSH1 0x4 PUSH2 0x5391 JUMP JUMPDEST PUSH2 0x2C81 JUMP JUMPDEST CALLVALUE DUP1 ISZERO PUSH2 0x84A JUMPI PUSH1 0x0 DUP1 REVERT JUMPDEST POP PUSH1 0xCF SLOAD PUSH2 0x3A5 SWAP1 PUSH6 0x10000000000 SWAP1 DIV PUSH1 0xFF AND DUP2 JUMP JUMPDEST CALLVALUE DUP1 ISZERO PUSH2 0x86D JUMPI PUSH1 0x0 DUP1 REVERT JUMPDEST POP PUSH2 0x34A PUSH2 0x87C CALLDATASIZE PUSH1 0x4 PUSH2 0x5A38 JUMP JUMPDEST PUSH2 0x2F19 JUMP JUMPDEST PUSH2 0x34A PUSH2 0x88F CALLDATASIZE PUSH1 0x4 PUSH2 0x5391 JUMP JUMPDEST PUSH2 0x2F39 JUMP JUMPDEST CALLVALUE DUP1 ISZERO PUSH2 0x8A0 JUMPI PUSH1 0x0 DUP1 REVERT JUMPDEST POP PUSH1 0xD5 SLOAD PUSH2 0x3A5 SWAP1 PUSH3 0x10000 SWAP1 DIV PUSH1 0xFF AND DUP2 JUMP JUMPDEST CALLVALUE DUP1 ISZERO PUSH2 0x8C0 JUMPI PUSH1 0x0 DUP1 REVERT JUMPDEST POP PUSH2 0x34A PUSH2 0x8CF CALLDATASIZE PUSH1 0x4 PUSH2 0x5A5C JUMP JUMPDEST PUSH2 0x31D2 JUMP JUMPDEST CALLVALUE DUP1 ISZERO PUSH2 0x8E0 JUMPI PUSH1 0x0 DUP1 REVERT JUMPDEST POP PUSH2 0x34A PUSH2 0x8EF CALLDATASIZE PUSH1 0x4 PUSH2 0x5707 JUMP JUMPDEST PUSH2 0x31E6 JUMP JUMPDEST CALLVALUE DUP1 ISZERO PUSH2 0x900 JUMPI PUSH1 0x0 DUP1 REVERT JUMPDEST POP PUSH2 0x34A PUSH2 0x90F CALLDATASIZE PUSH1 0x4 PUSH2 0x590A JUMP JUMPDEST PUSH2 0x325C JUMP JUMPDEST CALLVALUE DUP1 ISZERO PUSH2 0x920 JUMPI PUSH1 0x0 DUP1 REVERT JUMPDEST POP PUSH2 0x3CC PUSH1 0xD2 SLOAD DUP2 JUMP JUMPDEST CALLVALUE DUP1 ISZERO PUSH2 0x936 JUMPI PUSH1 0x0 DUP1 REVERT JUMPDEST POP PUSH1 0xCF SLOAD PUSH2 0x6AA SWAP1 PUSH5 0x100000000 SWAP1 DIV PUSH1 0xFF AND DUP2 JUMP JUMPDEST CALLVALUE DUP1 ISZERO PUSH2 0x958 JUMPI PUSH1 0x0 DUP1 REVERT JUMPDEST POP PUSH2 0x96C PUSH2 0x967 CALLDATASIZE PUSH1 0x4 PUSH2 0x5707 JUMP JUMPDEST PUSH2 0x3327 JUMP JUMPDEST PUSH1 0x40 MLOAD PUSH2 0x321 SWAP2 SWAP1 PUSH2 0x5AD1 JUMP JUMPDEST PUSH1 0xFF DUP2 AND PUSH1 0x0 SWAP1 DUP2 MSTORE PUSH1 0xD8 PUSH1 0x20 SWAP1 DUP2 MSTORE PUSH1 0x40 SWAP2 DUP3 SWAP1 KECCAK256 PUSH1 0x9 ADD DUP1 SLOAD DUP4 MLOAD DUP2 DUP5 MUL DUP2 ADD DUP5 ADD SWAP1 SWAP5 MSTORE DUP1 DUP5 MSTORE PUSH1 0x60 SWAP4 SWAP3 DUP4 ADD DUP3 DUP3 DUP1 ISZERO PUSH2 0xA02 JUMPI PUSH1 0x20 MUL DUP3 ADD SWAP2 SWAP1 PUSH1 0x0 MSTORE PUSH1 0x20 PUSH1 0x0 KECCAK256 SWAP1 PUSH1 0x0 SWAP1 JUMPDEST DUP3 DUP3 SWAP1 SLOAD SWAP1 PUSH2 0x100 EXP SWAP1 DIV PUSH4 0xFFFFFFFF AND PUSH4 0xFFFFFFFF AND DUP2 MSTORE PUSH1 0x20 ADD SWAP1 PUSH1 0x4 ADD SWAP1 PUSH1 0x20 DUP3 PUSH1 0x3 ADD DIV SWAP3 DUP4 ADD SWAP3 PUSH1 0x1 SUB DUP3 MUL SWAP2 POP DUP1 DUP5 GT PUSH2 0x9C5 JUMPI SWAP1 POP JUMPDEST POP POP POP POP POP SWAP1 POP SWAP2 SWAP1 POP JUMP JUMPDEST PUSH2 0xA16 PUSH2 0x348D JUMP JUMPDEST PUSH1 0x40 MLOAD PUSH1 0x1 PUSH1 0x1 PUSH1 0xA0 SHL SUB DUP4 AND SWAP1 DUP3 ISZERO PUSH2 0x8FC MUL SWAP1 DUP4 SWAP1 PUSH1 0x0 DUP2 DUP2 DUP2 DUP6 DUP9 DUP9 CALL SWAP4 POP POP POP POP ISZERO DUP1 ISZERO PUSH2 0xA4C JUMPI RETURNDATASIZE PUSH1 0x0 DUP1 RETURNDATACOPY RETURNDATASIZE PUSH1 0x0 REVERT JUMPDEST POP POP POP JUMP JUMPDEST PUSH1 0xD3 DUP2 DUP2 SLOAD DUP2 LT PUSH2 0xA61 JUMPI PUSH1 0x0 DUP1 REVERT JUMPDEST PUSH1 0x0 SWAP2 DUP3 MSTORE PUSH1 0x20 SWAP1 SWAP2 KECCAK256 ADD SLOAD PUSH1 0x1 PUSH1 0x1 PUSH1 0xA0 SHL SUB AND SWAP1 POP DUP2 JUMP JUMPDEST PUSH1 0x0 PUSH2 0xA88 PUSH1 0xCC SLOAD PUSH2 0x34E7 JUMP JUMPDEST SWAP1 POP SWAP1 JUMP JUMPDEST PUSH2 0xBC3 PUSH1 0x40 MLOAD DUP1 PUSH2 0x480 ADD PUSH1 0x40 MSTORE DUP1 PUSH1 0x0 PUSH4 0xFFFFFFFF AND DUP2 MSTORE PUSH1 0x20 ADD PUSH1 0x60 DUP2 MSTORE PUSH1 0x20 ADD PUSH1 0x0 DUP2 MSTORE PUSH1 0x20 ADD PUSH1 0x0 ISZERO ISZERO DUP2 MSTORE PUSH1 0x20 ADD PUSH1 0x0 PUSH1 0x1 PUSH1 0x1 PUSH1 0xA0 SHL SUB AND DUP2 MSTORE PUSH1 0x20 ADD PUSH1 0x0 PUSH4 0xFFFFFFFF AND DUP2 MSTORE PUSH1 0x20 ADD PUSH1 0x0 ISZERO ISZERO DUP2 MSTORE PUSH1 0x20 ADD PUSH1 0x60 DUP2 MSTORE PUSH1 0x20 ADD PUSH1 0x60 DUP2 MSTORE PUSH1 0x20 ADD PUSH1 0x60 DUP2 MSTORE PUSH1 0x20 ADD PUSH1 0x60 DUP2 MSTORE PUSH1 0x20 ADD PUSH1 0x0 DUP2 MSTORE PUSH1 0x20 ADD PUSH1 0x0 DUP2 MSTORE PUSH1 0x20 ADD PUSH1 0x0 DUP2 MSTORE PUSH1 0x20 ADD PUSH1 0x0 DUP2 MSTORE PUSH1 0x20 ADD PUSH1 0x0 DUP2 MSTORE PUSH1 0x20 ADD PUSH1 0x0 DUP2 MSTORE PUSH1 0x20 ADD PUSH1 0x0 DUP2 MSTORE PUSH1 0x20 ADD PUSH1 0x0 DUP2 MSTORE PUSH1 0x20 ADD PUSH1 0x0 PUSH1 0xFF AND DUP2 MSTORE PUSH1 0x20 ADD PUSH1 0x0 PUSH4 0xFFFFFFFF AND DUP2 MSTORE PUSH1 0x20 ADD PUSH1 0x0 DUP2 MSTORE PUSH1 0x20 ADD PUSH1 0x0 DUP2 MSTORE PUSH1 0x20 ADD PUSH1 0x0 DUP2 MSTORE PUSH1 0x20 ADD PUSH1 0x0 DUP2 MSTORE PUSH1 0x20 ADD PUSH1 0x0 DUP2 MSTORE PUSH1 0x20 ADD PUSH1 0x0 DUP2 MSTORE PUSH1 0x20 ADD PUSH1 0x0 DUP2 MSTORE PUSH1 0x20 ADD PUSH1 0x60 DUP2 MSTORE PUSH1 0x20 ADD PUSH1 0x0 DUP2 MSTORE PUSH1 0x20 ADD PUSH1 0x0 DUP2 MSTORE PUSH1 0x20 ADD PUSH1 0x0 DUP2 MSTORE PUSH1 0x20 ADD PUSH1 0x0 ISZERO ISZERO DUP2 MSTORE PUSH1 0x20 ADD PUSH1 0x0 ISZERO ISZERO DUP2 MSTORE PUSH1 0x20 ADD PUSH1 0x0 ISZERO ISZERO DUP2 MSTORE PUSH1 0x20 ADD PUSH1 0x0 ISZERO ISZERO DUP2 MSTORE POP SWAP1 JUMP JUMPDEST PUSH4 0xFFFFFFFF DUP1 DUP4 AND PUSH1 0x0 SWAP1 DUP2 MSTORE PUSH1 0xD7 PUSH1 0x20 SWAP1 DUP2 MSTORE PUSH1 0x40 SWAP2 DUP3 SWAP1 KECCAK256 DUP3 MLOAD PUSH2 0x480 DUP2 ADD SWAP1 SWAP4 MSTORE DUP1 SLOAD SWAP1 SWAP4 AND DUP3 MSTORE PUSH1 0x1 DUP4 ADD DUP1 SLOAD SWAP3 SWAP4 SWAP3 SWAP2 DUP5 ADD SWAP2 PUSH2 0xC04 SWAP1 PUSH2 0x5B16 JUMP JUMPDEST DUP1 PUSH1 0x1F ADD PUSH1 0x20 DUP1 SWAP2 DIV MUL PUSH1 0x20 ADD PUSH1 0x40 MLOAD SWAP1 DUP2 ADD PUSH1 0x40 MSTORE DUP1 SWAP3 SWAP2 SWAP1 DUP2 DUP2 MSTORE PUSH1 0x20 ADD DUP3 DUP1 SLOAD PUSH2 0xC30 SWAP1 PUSH2 0x5B16 JUMP JUMPDEST DUP1 ISZERO PUSH2 0xC7D JUMPI DUP1 PUSH1 0x1F LT PUSH2 0xC52 JUMPI PUSH2 0x100 DUP1 DUP4 SLOAD DIV MUL DUP4 MSTORE SWAP2 PUSH1 0x20 ADD SWAP2 PUSH2 0xC7D JUMP JUMPDEST DUP3 ADD SWAP2 SWAP1 PUSH1 0x0 MSTORE PUSH1 0x20 PUSH1 0x0 KECCAK256 SWAP1 JUMPDEST DUP2 SLOAD DUP2 MSTORE SWAP1 PUSH1 0x1 ADD SWAP1 PUSH1 0x20 ADD DUP1 DUP4 GT PUSH2 0xC60 JUMPI DUP3 SWAP1 SUB PUSH1 0x1F AND DUP3 ADD SWAP2 JUMPDEST POP POP POP SWAP2 DUP4 MSTORE POP POP PUSH1 0x2 DUP3 ADD SLOAD PUSH1 0x20 DUP1 DUP4 ADD SWAP2 SWAP1 SWAP2 MSTORE PUSH1 0x3 DUP4 ADD SLOAD PUSH1 0xFF DUP1 DUP3 AND ISZERO ISZERO PUSH1 0x40 DUP1 DUP7 ADD SWAP2 SWAP1 SWAP2 MSTORE PUSH1 0x1 PUSH1 0x1 PUSH1 0xA0 SHL SUB PUSH2 0x100 DUP5 DIV AND PUSH1 0x60 DUP7 ADD MSTORE PUSH4 0xFFFFFFFF PUSH1 0x1 PUSH1 0xA8 SHL DUP5 DIV AND PUSH1 0x80 DUP7 ADD MSTORE PUSH1 0x1 PUSH1 0xC8 SHL SWAP1 SWAP3 DIV AND ISZERO ISZERO PUSH1 0xA0 DUP5 ADD MSTORE PUSH1 0x4 DUP5 ADD DUP1 SLOAD DUP3 MLOAD DUP2 DUP6 MUL DUP2 ADD DUP6 ADD SWAP1 SWAP4 MSTORE DUP1 DUP4 MSTORE PUSH1 0xC0 SWAP1 SWAP5 ADD SWAP4 SWAP2 SWAP3 SWAP1 SWAP2 SWAP1 DUP4 ADD DUP3 DUP3 DUP1 ISZERO PUSH2 0xD58 JUMPI PUSH1 0x20 MUL DUP3 ADD SWAP2 SWAP1 PUSH1 0x0 MSTORE PUSH1 0x20 PUSH1 0x0 KECCAK256 SWAP1 PUSH1 0x0 SWAP1 JUMPDEST DUP3 DUP3 SWAP1 SLOAD SWAP1 PUSH2 0x100 EXP SWAP1 DIV PUSH4 0xFFFFFFFF AND PUSH4 0xFFFFFFFF AND DUP2 MSTORE PUSH1 0x20 ADD SWAP1 PUSH1 0x4 ADD SWAP1 PUSH1 0x20 DUP3 PUSH1 0x3 ADD DIV SWAP3 DUP4 ADD SWAP3 PUSH1 0x1 SUB DUP3 MUL SWAP2 POP DUP1 DUP5 GT PUSH2 0xD1B JUMPI SWAP1 POP JUMPDEST POP POP POP POP POP DUP2 MSTORE PUSH1 0x20 ADD PUSH1 0x5 DUP3 ADD DUP1 SLOAD DUP1 PUSH1 0x20 MUL PUSH1 0x20 ADD PUSH1 0x40 MLOAD SWAP1 DUP2 ADD PUSH1 0x40 MSTORE DUP1 SWAP3 SWAP2 SWAP1 DUP2 DUP2 MSTORE PUSH1 0x20 ADD DUP3 DUP1 SLOAD DUP1 ISZERO PUSH2 0xDDC JUMPI PUSH1 0x20 MUL DUP3 ADD SWAP2 SWAP1 PUSH1 0x0 MSTORE PUSH1 0x20 PUSH1 0x0 KECCAK256 SWAP1 PUSH1 0x0 SWAP1 JUMPDEST DUP3 DUP3 SWAP1 SLOAD SWAP1 PUSH2 0x100 EXP SWAP1 DIV PUSH4 0xFFFFFFFF AND PUSH4 0xFFFFFFFF AND DUP2 MSTORE PUSH1 0x20 ADD SWAP1 PUSH1 0x4 ADD SWAP1 PUSH1 0x20 DUP3 PUSH1 0x3 ADD DIV SWAP3 DUP4 ADD SWAP3 PUSH1 0x1 SUB DUP3 MUL SWAP2 POP DUP1 DUP5 GT PUSH2 0xD9F JUMPI SWAP1 POP JUMPDEST POP POP POP POP POP DUP2 MSTORE PUSH1 0x20 ADD PUSH1 0x6 DUP3 ADD DUP1 SLOAD DUP1 PUSH1 0x20 MUL PUSH1 0x20 ADD PUSH1 0x40 MLOAD SWAP1 DUP2 ADD PUSH1 0x40 MSTORE DUP1 SWAP3 SWAP2 SWAP1 DUP2 DUP2 MSTORE PUSH1 0x20 ADD DUP3 DUP1 SLOAD DUP1 ISZERO PUSH2 0xE60 JUMPI PUSH1 0x20 MUL DUP3 ADD SWAP2 SWAP1 PUSH1 0x0 MSTORE PUSH1 0x20 PUSH1 0x0 KECCAK256 SWAP1 PUSH1 0x0 SWAP1 JUMPDEST DUP3 DUP3 SWAP1 SLOAD SWAP1 PUSH2 0x100 EXP SWAP1 DIV PUSH4 0xFFFFFFFF AND PUSH4 0xFFFFFFFF AND DUP2 MSTORE PUSH1 0x20 ADD SWAP1 PUSH1 0x4 ADD SWAP1 PUSH1 0x20 DUP3 PUSH1 0x3 ADD DIV SWAP3 DUP4 ADD SWAP3 PUSH1 0x1 SUB DUP3 MUL SWAP2 POP DUP1 DUP5 GT PUSH2 0xE23 JUMPI SWAP1 POP JUMPDEST POP POP POP POP POP DUP2 MSTORE PUSH1 0x20 ADD PUSH1 0x7 DUP3 ADD DUP1 SLOAD DUP1 PUSH1 0x20 MUL PUSH1 0x20 ADD PUSH1 0x40 MLOAD SWAP1 DUP2 ADD PUSH1 0x40 MSTORE DUP1 SWAP3 SWAP2 SWAP1 DUP2 DUP2 MSTORE PUSH1 0x20 ADD DUP3 DUP1 SLOAD DUP1 ISZERO PUSH2 0xEB8 JUMPI PUSH1 0x20 MUL DUP3 ADD SWAP2 SWAP1 PUSH1 0x0 MSTORE PUSH1 0x20 PUSH1 0x0 KECCAK256 SWAP1 JUMPDEST DUP2 SLOAD DUP2 MSTORE PUSH1 0x20 ADD SWAP1 PUSH1 0x1 ADD SWAP1 DUP1 DUP4 GT PUSH2 0xEA4 JUMPI JUMPDEST POP POP POP SWAP2 DUP4 MSTORE POP POP PUSH1 0x8 DUP3 ADD SLOAD PUSH1 0x20 DUP1 DUP4 ADD SWAP2 SWAP1 SWAP2 MSTORE PUSH1 0x9 DUP4 ADD SLOAD PUSH1 0x40 DUP1 DUP5 ADD SWAP2 SWAP1 SWAP2 MSTORE PUSH1 0xA DUP5 ADD SLOAD PUSH1 0x60 DUP5 ADD MSTORE PUSH1 0xB DUP5 ADD SLOAD PUSH1 0x80 DUP5 ADD MSTORE PUSH1 0xC DUP5 ADD SLOAD PUSH1 0xA0 DUP5 ADD MSTORE PUSH1 0xD DUP5 ADD SLOAD PUSH1 0xC0 DUP5 ADD MSTORE PUSH1 0xE DUP5 ADD SLOAD PUSH1 0xE0 DUP5 ADD MSTORE PUSH1 0xF DUP5 ADD SLOAD PUSH2 0x100 DUP1 DUP6 ADD SWAP2 SWAP1 SWAP2 MSTORE PUSH1 0x10 DUP6 ADD SLOAD PUSH1 0xFF DUP2 AND PUSH2 0x120 DUP7 ADD MSTORE DIV PUSH4 0xFFFFFFFF AND PUSH2 0x140 DUP5 ADD MSTORE PUSH1 0x11 DUP5 ADD SLOAD PUSH2 0x160 DUP5 ADD MSTORE PUSH1 0x12 DUP5 ADD SLOAD PUSH2 0x180 DUP5 ADD MSTORE PUSH1 0x13 DUP5 ADD SLOAD PUSH2 0x1A0 DUP5 ADD MSTORE PUSH1 0x14 DUP5 ADD SLOAD PUSH2 0x1C0 DUP5 ADD MSTORE PUSH1 0x15 DUP5 ADD SLOAD PUSH2 0x1E0 DUP5 ADD MSTORE PUSH1 0x16 DUP5 ADD SLOAD PUSH2 0x200 DUP5 ADD MSTORE PUSH1 0x17 DUP5 ADD SLOAD PUSH2 0x220 DUP5 ADD MSTORE PUSH1 0x18 DUP5 ADD DUP1 SLOAD DUP3 MLOAD DUP2 DUP6 MUL DUP2 ADD DUP6 ADD SWAP1 SWAP4 MSTORE DUP1 DUP4 MSTORE PUSH2 0x240 SWAP1 SWAP5 ADD SWAP4 SWAP2 SWAP3 SWAP1 SWAP2 SWAP1 DUP4 ADD DUP3 DUP3 DUP1 ISZERO PUSH2 0x1002 JUMPI PUSH1 0x20 MUL DUP3 ADD SWAP2 SWAP1 PUSH1 0x0 MSTORE PUSH1 0x20 PUSH1 0x0 KECCAK256 SWAP1 PUSH1 0x0 SWAP1 JUMPDEST DUP3 DUP3 SWAP1 SLOAD SWAP1 PUSH2 0x100 EXP SWAP1 DIV PUSH4 0xFFFFFFFF AND PUSH4 0xFFFFFFFF AND DUP2 MSTORE PUSH1 0x20 ADD SWAP1 PUSH1 0x4 ADD SWAP1 PUSH1 0x20 DUP3 PUSH1 0x3 ADD DIV SWAP3 DUP4 ADD SWAP3 PUSH1 0x1 SUB DUP3 MUL SWAP2 POP DUP1 DUP5 GT PUSH2 0xFC5 JUMPI SWAP1 POP JUMPDEST POP POP POP SWAP2 DUP4 MSTORE POP POP PUSH1 0x19 DUP3 ADD SLOAD PUSH1 0x20 DUP3 ADD MSTORE PUSH1 0x1A DUP3 ADD SLOAD PUSH1 0x40 DUP3 ADD MSTORE PUSH1 0x1B DUP3 ADD SLOAD PUSH1 0x60 DUP3 ADD MSTORE PUSH1 0x1C SWAP1 SWAP2 ADD SLOAD PUSH1 0xFF DUP1 DUP3 AND ISZERO ISZERO PUSH1 0x80 DUP5 ADD MSTORE PUSH2 0x100 DUP3 DIV DUP2 AND ISZERO ISZERO PUSH1 0xA0 DUP5 ADD MSTORE PUSH3 0x10000 DUP3 DIV DUP2 AND ISZERO ISZERO PUSH1 0xC0 DUP5 ADD MSTORE PUSH4 0x1000000 SWAP1 SWAP2 DIV AND ISZERO ISZERO PUSH1 0xE0 SWAP1 SWAP2 ADD MSTORE SWAP3 SWAP2 POP POP JUMP JUMPDEST PUSH4 0xFFFFFFFF DUP2 AND PUSH1 0x0 SWAP1 DUP2 MSTORE PUSH1 0xD7 PUSH1 0x20 MSTORE PUSH1 0x40 SWAP1 DUP2 SWAP1 KECCAK256 PUSH1 0xC9 SLOAD SWAP2 MLOAD PUSH4 0x935E01B PUSH1 0xE2 SHL DUP2 MSTORE CALLER PUSH1 0x4 DUP3 ADD MSTORE SWAP1 SWAP2 PUSH1 0x1 PUSH1 0x1 PUSH1 0xA0 SHL SUB AND SWAP1 PUSH4 0x24D7806C SWAP1 PUSH1 0x24 ADD PUSH1 0x20 PUSH1 0x40 MLOAD DUP1 DUP4 SUB DUP2 DUP7 GAS STATICCALL ISZERO DUP1 ISZERO PUSH2 0x10CC JUMPI RETURNDATASIZE PUSH1 0x0 DUP1 RETURNDATACOPY RETURNDATASIZE PUSH1 0x0 REVERT JUMPDEST POP POP POP POP PUSH1 0x40 MLOAD RETURNDATASIZE PUSH1 0x1F NOT PUSH1 0x1F DUP3 ADD AND DUP3 ADD DUP1 PUSH1 0x40 MSTORE POP DUP2 ADD SWAP1 PUSH2 0x10F0 SWAP2 SWAP1 PUSH2 0x5B50 JUMP JUMPDEST PUSH2 0x122F JUMPI PUSH1 0x3 DUP2 ADD SLOAD PUSH2 0x100 SWAP1 DIV PUSH1 0x1 PUSH1 0x1 PUSH1 0xA0 SHL SUB AND CALLER EQ PUSH2 0x115A JUMPI PUSH1 0x40 MLOAD PUSH3 0x461BCD PUSH1 0xE5 SHL DUP2 MSTORE PUSH1 0x20 PUSH1 0x4 DUP3 ADD MSTORE PUSH1 0x1D PUSH1 0x24 DUP3 ADD MSTORE PUSH32 0x596F7520617265206E6F74206F776E6572206F6620746869732069642E000000 PUSH1 0x44 DUP3 ADD MSTORE PUSH1 0x64 ADD JUMPDEST PUSH1 0x40 MLOAD DUP1 SWAP2 SUB SWAP1 REVERT JUMPDEST PUSH8 0x8AC7230489E80000 DUP2 PUSH1 0x1B ADD SLOAD LT ISZERO PUSH2 0x11C2 JUMPI PUSH1 0x40 MLOAD PUSH3 0x461BCD PUSH1 0xE5 SHL DUP2 MSTORE PUSH1 0x20 PUSH1 0x4 DUP3 ADD MSTORE PUSH1 0x24 DUP1 DUP3 ADD MSTORE PUSH32 0x42616C616E6365206973206C657373207468616E206D696E2077697468647261 PUSH1 0x44 DUP3 ADD MSTORE PUSH4 0x3BB0B617 PUSH1 0xE1 SHL PUSH1 0x64 DUP3 ADD MSTORE PUSH1 0x84 ADD PUSH2 0x1151 JUMP JUMPDEST PUSH1 0x1C DUP2 ADD SLOAD PUSH4 0x1000000 SWAP1 DIV PUSH1 0xFF AND PUSH2 0x122F JUMPI PUSH1 0x40 MLOAD PUSH3 0x461BCD PUSH1 0xE5 SHL DUP2 MSTORE PUSH1 0x20 PUSH1 0x4 DUP3 ADD MSTORE PUSH1 0x29 PUSH1 0x24 DUP3 ADD MSTORE PUSH32 0x54686973206964207769746864726177206973206E6F7420656E61626C656420 PUSH1 0x44 DUP3 ADD MSTORE PUSH9 0x313C9030B236B4B717 PUSH1 0xB9 SHL PUSH1 0x64 DUP3 ADD MSTORE PUSH1 0x84 ADD PUSH2 0x1151 JUMP JUMPDEST PUSH1 0x1B DUP2 ADD SLOAD PUSH1 0xD5 SLOAD PUSH1 0x0 SWAP1 PUSH1 0x64 SWAP1 PUSH2 0x1250 SWAP1 PUSH3 0x10000 SWAP1 DIV PUSH1 0xFF AND DUP5 PUSH2 0x5B83 JUMP JUMPDEST PUSH2 0x125A SWAP2 SWAP1 PUSH2 0x5B9A JUMP JUMPDEST SWAP1 POP PUSH1 0xC9 PUSH1 0x0 SWAP1 SLOAD SWAP1 PUSH2 0x100 EXP SWAP1 DIV PUSH1 0x1 PUSH1 0x1 PUSH1 0xA0 SHL SUB AND PUSH1 0x1 PUSH1 0x1 PUSH1 0xA0 SHL SUB AND PUSH3 0xF9CC66 PUSH1 0x40 MLOAD DUP2 PUSH4 0xFFFFFFFF AND PUSH1 0xE0 SHL DUP2 MSTORE PUSH1 0x4 ADD PUSH1 0x20 PUSH1 0x40 MLOAD DUP1 DUP4 SUB DUP2 DUP7 GAS STATICCALL ISZERO DUP1 ISZERO PUSH2 0x12AE JUMPI RETURNDATASIZE PUSH1 0x0 DUP1 RETURNDATACOPY RETURNDATASIZE PUSH1 0x0 REVERT JUMPDEST POP POP POP POP PUSH1 0x40 MLOAD RETURNDATASIZE PUSH1 0x1F NOT PUSH1 0x1F DUP3 ADD AND DUP3 ADD DUP1 PUSH1 0x40 MSTORE POP DUP2 ADD SWAP1 PUSH2 0x12D2 SWAP2 SWAP1 PUSH2 0x5BBC JUMP JUMPDEST PUSH1 0x3 DUP5 ADD SLOAD PUSH1 0x40 MLOAD PUSH4 0x3528777D PUSH1 0xE1 SHL DUP2 MSTORE PUSH1 0x1 PUSH1 0x1 PUSH1 0xA0 SHL SUB PUSH2 0x100 SWAP1 SWAP3 DIV DUP3 AND PUSH1 0x4 DUP3 ADD MSTORE PUSH1 0x24 DUP2 ADD DUP5 SWAP1 MSTORE SWAP2 AND SWAP1 PUSH4 0x6A50EEFA SWAP1 PUSH1 0x44 ADD PUSH1 0x0 PUSH1 0x40 MLOAD DUP1 DUP4 SUB DUP2 PUSH1 0x0 DUP8 DUP1 EXTCODESIZE ISZERO DUP1 ISZERO PUSH2 0x1326 JUMPI PUSH1 0x0 DUP1 REVERT JUMPDEST POP GAS CALL ISZERO DUP1 ISZERO PUSH2 0x133A JUMPI RETURNDATASIZE PUSH1 0x0 DUP1 RETURNDATACOPY RETURNDATASIZE PUSH1 0x0 REVERT JUMPDEST POP CALLER SWAP3 POP PUSH2 0x8FC SWAP2 POP PUSH2 0x1357 SWAP1 POP PUSH2 0x1352 DUP5 DUP7 PUSH2 0x5BD9 JUMP JUMPDEST PUSH2 0x34E7 JUMP JUMPDEST PUSH1 0x40 MLOAD DUP2 ISZERO SWAP1 SWAP3 MUL SWAP2 PUSH1 0x0 DUP2 DUP2 DUP2 DUP6 DUP9 DUP9 CALL SWAP4 POP POP POP POP ISZERO DUP1 ISZERO PUSH2 0x137F JUMPI RETURNDATASIZE PUSH1 0x0 DUP1 RETURNDATACOPY RETURNDATASIZE PUSH1 0x0 REVERT JUMPDEST POP DUP3 PUSH1 0x1B ADD PUSH1 0x0 SWAP1 SSTORE POP POP POP POP JUMP JUMPDEST PUSH2 0x1396 PUSH2 0x348D JUMP JUMPDEST PUSH1 0x40 MLOAD CALLER SWAP1 SELFBALANCE DUP1 ISZERO PUSH2 0x8FC MUL SWAP2 PUSH1 0x0 DUP2 DUP2 DUP2 DUP6 DUP9 DUP9 CALL SWAP4 POP POP POP POP ISZERO DUP1 ISZERO PUSH2 0x13C2 JUMPI RETURNDATASIZE PUSH1 0x0 DUP1 RETURNDATACOPY RETURNDATASIZE PUSH1 0x0 REVERT JUMPDEST POP JUMP JUMPDEST PUSH1 0x1 PUSH1 0x1 PUSH1 0xA0 SHL SUB PUSH32 0x0 AND ADDRESS SUB PUSH2 0x140D JUMPI PUSH1 0x40 MLOAD PUSH3 0x461BCD PUSH1 0xE5 SHL DUP2 MSTORE PUSH1 0x4 ADD PUSH2 0x1151 SWAP1 PUSH2 0x5BEC JUMP JUMPDEST PUSH32 0x0 PUSH1 0x1 PUSH1 0x1 PUSH1 0xA0 SHL SUB AND PUSH2 0x1456 PUSH1 0x0 DUP1 MLOAD PUSH1 0x20 PUSH2 0x5F17 DUP4 CODECOPY DUP2 MLOAD SWAP2 MSTORE SLOAD PUSH1 0x1 PUSH1 0x1 PUSH1 0xA0 SHL SUB AND SWAP1 JUMP JUMPDEST PUSH1 0x1 PUSH1 0x1 PUSH1 0xA0 SHL SUB AND EQ PUSH2 0x147C JUMPI PUSH1 0x40 MLOAD PUSH3 0x461BCD PUSH1 0xE5 SHL DUP2 MSTORE PUSH1 0x4 ADD PUSH2 0x1151 SWAP1 PUSH2 0x5C38 JUMP JUMPDEST PUSH2 0x1485 DUP2 PUSH2 0x35E5 JUMP JUMPDEST PUSH1 0x40 DUP1 MLOAD PUSH1 0x0 DUP1 DUP3 MSTORE PUSH1 0x20 DUP3 ADD SWAP1 SWAP3 MSTORE PUSH2 0x13C2 SWAP2 DUP4 SWAP2 SWAP1 PUSH2 0x35ED JUMP JUMPDEST PUSH1 0xD4 DUP2 DUP2 SLOAD DUP2 LT PUSH2 0xA61 JUMPI PUSH1 0x0 DUP1 REVERT JUMPDEST PUSH2 0x14B9 PUSH2 0x348D JUMP JUMPDEST PUSH1 0xCB DUP1 SLOAD PUSH1 0xFF SWAP1 SWAP3 AND PUSH3 0x10000 MUL PUSH3 0xFF0000 NOT SWAP1 SWAP3 AND SWAP2 SWAP1 SWAP2 OR SWAP1 SSTORE JUMP JUMPDEST PUSH2 0x14DF PUSH2 0x348D JUMP JUMPDEST PUSH1 0xCC SSTORE JUMP JUMPDEST PUSH1 0xC9 SLOAD PUSH1 0x40 MLOAD PUSH4 0x935E01B PUSH1 0xE2 SHL DUP2 MSTORE CALLER PUSH1 0x4 DUP3 ADD MSTORE PUSH1 0x1 PUSH1 0x1 PUSH1 0xA0 SHL SUB SWAP1 SWAP2 AND SWAP1 PUSH4 0x24D7806C SWAP1 PUSH1 0x24 ADD PUSH1 0x20 PUSH1 0x40 MLOAD DUP1 DUP4 SUB DUP2 DUP7 GAS STATICCALL ISZERO DUP1 ISZERO PUSH2 0x152C JUMPI RETURNDATASIZE PUSH1 0x0 DUP1 RETURNDATACOPY RETURNDATASIZE PUSH1 0x0 REVERT JUMPDEST POP POP POP POP PUSH1 0x40 MLOAD RETURNDATASIZE PUSH1 0x1F NOT PUSH1 0x1F DUP3 ADD AND DUP3 ADD DUP1 PUSH1 0x40 MSTORE POP DUP2 ADD SWAP1 PUSH2 0x1550 SWAP2 SWAP1 PUSH2 0x5B50 JUMP JUMPDEST PUSH2 0x156C JUMPI PUSH1 0x40 MLOAD PUSH3 0x461BCD PUSH1 0xE5 SHL DUP2 MSTORE PUSH1 0x4 ADD PUSH2 0x1151 SWAP1 PUSH2 0x5C84 JUMP JUMPDEST PUSH1 0xD5 SLOAD PUSH2 0x100 SWAP1 DIV PUSH1 0xFF AND ISZERO PUSH2 0x1586 JUMPI PUSH2 0x1586 DUP3 DUP3 PUSH2 0x3758 JUMP JUMPDEST POP POP JUMP JUMPDEST PUSH2 0x1592 PUSH2 0x348D JUMP JUMPDEST PUSH1 0xFF DUP10 AND PUSH1 0x0 DUP2 DUP2 MSTORE PUSH1 0xD8 PUSH1 0x20 MSTORE PUSH1 0x40 SWAP1 KECCAK256 DUP1 SLOAD PUSH1 0xFF NOT AND SWAP1 SWAP2 OR DUP2 SSTORE PUSH1 0x1 DUP2 ADD DUP10 SWAP1 SSTORE PUSH1 0x2 DUP2 ADD DUP9 SWAP1 SSTORE PUSH1 0x3 DUP2 ADD DUP8 SWAP1 SSTORE PUSH1 0x4 DUP2 ADD PUSH2 0x15D2 DUP8 DUP3 PUSH2 0x5CFE JUMP JUMPDEST POP PUSH1 0x5 DUP2 ADD DUP6 SWAP1 SSTORE PUSH1 0x6 DUP2 ADD DUP5 SWAP1 SSTORE PUSH1 0x7 DUP2 ADD DUP4 SWAP1 SSTORE PUSH1 0x8 DUP2 ADD DUP1 SLOAD PUSH1 0xFF NOT AND DUP4 ISZERO ISZERO OR SWAP1 SSTORE PUSH1 0x40 MLOAD PUSH1 0xFF DUP12 AND DUP2 MSTORE PUSH32 0x9A2F17868083013E19D4C26D2AF13543606BC680C21C994D7648D3A0510164C9 SWAP1 PUSH1 0x20 ADD PUSH1 0x40 MLOAD DUP1 SWAP2 SUB SWAP1 LOG1 POP POP POP POP POP POP POP POP POP POP JUMP JUMPDEST PUSH2 0x1642 PUSH2 0x348D JUMP JUMPDEST PUSH1 0xD5 DUP1 SLOAD PUSH1 0xFF SWAP1 SWAP3 AND PUSH4 0x1000000 MUL PUSH4 0xFF000000 NOT SWAP1 SWAP3 AND SWAP2 SWAP1 SWAP2 OR SWAP1 SSTORE JUMP JUMPDEST PUSH4 0xFFFFFFFF DUP1 DUP3 AND PUSH1 0x0 SWAP1 DUP2 MSTORE PUSH1 0xD7 PUSH1 0x20 SWAP1 DUP2 MSTORE PUSH1 0x40 DUP1 DUP4 KECCAK256 DUP2 MLOAD PUSH2 0x480 DUP2 ADD SWAP1 SWAP3 MSTORE DUP1 SLOAD SWAP1 SWAP5 AND DUP2 MSTORE PUSH1 0x1 DUP5 ADD DUP1 SLOAD SWAP4 SWAP5 DUP6 SWAP5 DUP6 SWAP5 DUP6 SWAP5 SWAP4 SWAP1 DUP5 ADD SWAP2 PUSH2 0x16A8 SWAP1 PUSH2 0x5B16 JUMP JUMPDEST DUP1 PUSH1 0x1F ADD PUSH1 0x20 DUP1 SWAP2 DIV MUL PUSH1 0x20 ADD PUSH1 0x40 MLOAD SWAP1 DUP2 ADD PUSH1 0x40 MSTORE DUP1 SWAP3 SWAP2 SWAP1 DUP2 DUP2 MSTORE PUSH1 0x20 ADD DUP3 DUP1 SLOAD PUSH2 0x16D4 SWAP1 PUSH2 0x5B16 JUMP JUMPDEST DUP1 ISZERO PUSH2 0x1721 JUMPI DUP1 PUSH1 0x1F LT PUSH2 0x16F6 JUMPI PUSH2 0x100 DUP1 DUP4 SLOAD DIV MUL DUP4 MSTORE SWAP2 PUSH1 0x20 ADD SWAP2 PUSH2 0x1721 JUMP JUMPDEST DUP3 ADD SWAP2 SWAP1 PUSH1 0x0 MSTORE PUSH1 0x20 PUSH1 0x0 KECCAK256 SWAP1 JUMPDEST DUP2 SLOAD DUP2 MSTORE SWAP1 PUSH1 0x1 ADD SWAP1 PUSH1 0x20 ADD DUP1 DUP4 GT PUSH2 0x1704 JUMPI DUP3 SWAP1 SUB PUSH1 0x1F AND DUP3 ADD SWAP2 JUMPDEST POP POP POP SWAP2 DUP4 MSTORE POP POP PUSH1 0x2 DUP3 ADD SLOAD PUSH1 0x20 DUP1 DUP4 ADD SWAP2 SWAP1 SWAP2 MSTORE PUSH1 0x3 DUP4 ADD SLOAD PUSH1 0xFF DUP1 DUP3 AND ISZERO ISZERO PUSH1 0x40 DUP1 DUP7 ADD SWAP2 SWAP1 SWAP2 MSTORE PUSH1 0x1 PUSH1 0x1 PUSH1 0xA0 SHL SUB PUSH2 0x100 DUP5 DIV AND PUSH1 0x60 DUP7 ADD MSTORE PUSH4 0xFFFFFFFF PUSH1 0x1 PUSH1 0xA8 SHL DUP5 DIV AND PUSH1 0x80 DUP7 ADD MSTORE PUSH1 0x1 PUSH1 0xC8 SHL SWAP1 SWAP3 DIV AND ISZERO ISZERO PUSH1 0xA0 DUP5 ADD MSTORE PUSH1 0x4 DUP5 ADD DUP1 SLOAD DUP3 MLOAD DUP2 DUP6 MUL DUP2 ADD DUP6 ADD SWAP1 SWAP4 MSTORE DUP1 DUP4 MSTORE PUSH1 0xC0 SWAP1 SWAP5 ADD SWAP4 SWAP2 SWAP3 SWAP1 SWAP2 SWAP1 DUP4 ADD DUP3 DUP3 DUP1 ISZERO PUSH2 0x17FC JUMPI PUSH1 0x20 MUL DUP3 ADD SWAP2 SWAP1 PUSH1 0x0 MSTORE PUSH1 0x20 PUSH1 0x0 KECCAK256 SWAP1 PUSH1 0x0 SWAP1 JUMPDEST DUP3 DUP3 SWAP1 SLOAD SWAP1 PUSH2 0x100 EXP SWAP1 DIV PUSH4 0xFFFFFFFF AND PUSH4 0xFFFFFFFF AND DUP2 MSTORE PUSH1 0x20 ADD SWAP1 PUSH1 0x4 ADD SWAP1 PUSH1 0x20 DUP3 PUSH1 0x3 ADD DIV SWAP3 DUP4 ADD SWAP3 PUSH1 0x1 SUB DUP3 MUL SWAP2 POP DUP1 DUP5 GT PUSH2 0x17BF JUMPI SWAP1 POP JUMPDEST POP POP POP POP POP DUP2 MSTORE PUSH1 0x20 ADD PUSH1 0x5 DUP3 ADD DUP1 SLOAD DUP1 PUSH1 0x20 MUL PUSH1 0x20 ADD PUSH1 0x40 MLOAD SWAP1 DUP2 ADD PUSH1 0x40 MSTORE DUP1 SWAP3 SWAP2 SWAP1 DUP2 DUP2 MSTORE PUSH1 0x20 ADD DUP3 DUP1 SLOAD DUP1 ISZERO PUSH2 0x1880 JUMPI PUSH1 0x20 MUL DUP3 ADD SWAP2 SWAP1 PUSH1 0x0 MSTORE PUSH1 0x20 PUSH1 0x0 KECCAK256 SWAP1 PUSH1 0x0 SWAP1 JUMPDEST DUP3 DUP3 SWAP1 SLOAD SWAP1 PUSH2 0x100 EXP SWAP1 DIV PUSH4 0xFFFFFFFF AND PUSH4 0xFFFFFFFF AND DUP2 MSTORE PUSH1 0x20 ADD SWAP1 PUSH1 0x4 ADD SWAP1 PUSH1 0x20 DUP3 PUSH1 0x3 ADD DIV SWAP3 DUP4 ADD SWAP3 PUSH1 0x1 SUB DUP3 MUL SWAP2 POP DUP1 DUP5 GT PUSH2 0x1843 JUMPI SWAP1 POP JUMPDEST POP POP POP POP POP DUP2 MSTORE PUSH1 0x20 ADD PUSH1 0x6 DUP3 ADD DUP1 SLOAD DUP1 PUSH1 0x20 MUL PUSH1 0x20 ADD PUSH1 0x40 MLOAD SWAP1 DUP2 ADD PUSH1 0x40 MSTORE DUP1 SWAP3 SWAP2 SWAP1 DUP2 DUP2 MSTORE PUSH1 0x20 ADD DUP3 DUP1 SLOAD DUP1 ISZERO PUSH2 0x1904 JUMPI PUSH1 0x20 MUL DUP3 ADD SWAP2 SWAP1 PUSH1 0x0 MSTORE PUSH1 0x20 PUSH1 0x0 KECCAK256 SWAP1 PUSH1 0x0 SWAP1 JUMPDEST DUP3 DUP3 SWAP1 SLOAD SWAP1 PUSH2 0x100 EXP SWAP1 DIV PUSH4 0xFFFFFFFF AND PUSH4 0xFFFFFFFF AND DUP2 MSTORE PUSH1 0x20 ADD SWAP1 PUSH1 0x4 ADD SWAP1 PUSH1 0x20 DUP3 PUSH1 0x3 ADD DIV SWAP3 DUP4 ADD SWAP3 PUSH1 0x1 SUB DUP3 MUL SWAP2 POP DUP1 DUP5 GT PUSH2 0x18C7 JUMPI SWAP1 POP JUMPDEST POP POP POP POP POP DUP2 MSTORE PUSH1 0x20 ADD PUSH1 0x7 DUP3 ADD DUP1 SLOAD DUP1 PUSH1 0x20 MUL PUSH1 0x20 ADD PUSH1 0x40 MLOAD SWAP1 DUP2 ADD PUSH1 0x40 MSTORE DUP1 SWAP3 SWAP2 SWAP1 DUP2 DUP2 MSTORE PUSH1 0x20 ADD DUP3 DUP1 SLOAD DUP1 ISZERO PUSH2 0x195C JUMPI PUSH1 0x20 MUL DUP3 ADD SWAP2 SWAP1 PUSH1 0x0 MSTORE PUSH1 0x20 PUSH1 0x0 KECCAK256 SWAP1 JUMPDEST DUP2 SLOAD DUP2 MSTORE PUSH1 0x20 ADD SWAP1 PUSH1 0x1 ADD SWAP1 DUP1 DUP4 GT PUSH2 0x1948 JUMPI JUMPDEST POP POP POP SWAP2 DUP4 MSTORE POP POP PUSH1 0x8 DUP3 ADD SLOAD PUSH1 0x20 DUP1 DUP4 ADD SWAP2 SWAP1 SWAP2 MSTORE PUSH1 0x9 DUP4 ADD SLOAD PUSH1 0x40 DUP1 DUP5 ADD SWAP2 SWAP1 SWAP2 MSTORE PUSH1 0xA DUP5 ADD SLOAD PUSH1 0x60 DUP5 ADD MSTORE PUSH1 0xB DUP5 ADD SLOAD PUSH1 0x80 DUP5 ADD MSTORE PUSH1 0xC DUP5 ADD SLOAD PUSH1 0xA0 DUP5 ADD MSTORE PUSH1 0xD DUP5 ADD SLOAD PUSH1 0xC0 DUP5 ADD MSTORE PUSH1 0xE DUP5 ADD SLOAD PUSH1 0xE0 DUP5 ADD MSTORE PUSH1 0xF DUP5 ADD SLOAD PUSH2 0x100 DUP1 DUP6 ADD SWAP2 SWAP1 SWAP2 MSTORE PUSH1 0x10 DUP6 ADD SLOAD PUSH1 0xFF DUP2 AND PUSH2 0x120 DUP7 ADD MSTORE DIV PUSH4 0xFFFFFFFF AND PUSH2 0x140 DUP5 ADD MSTORE PUSH1 0x11 DUP5 ADD SLOAD PUSH2 0x160 DUP5 ADD MSTORE PUSH1 0x12 DUP5 ADD SLOAD PUSH2 0x180 DUP5 ADD MSTORE PUSH1 0x13 DUP5 ADD SLOAD PUSH2 0x1A0 DUP5 ADD MSTORE PUSH1 0x14 DUP5 ADD SLOAD PUSH2 0x1C0 DUP5 ADD MSTORE PUSH1 0x15 DUP5 ADD SLOAD PUSH2 0x1E0 DUP5 ADD MSTORE PUSH1 0x16 DUP5 ADD SLOAD PUSH2 0x200 DUP5 ADD MSTORE PUSH1 0x17 DUP5 ADD SLOAD PUSH2 0x220 DUP5 ADD MSTORE PUSH1 0x18 DUP5 ADD DUP1 SLOAD DUP3 MLOAD DUP2 DUP6 MUL DUP2 ADD DUP6 ADD SWAP1 SWAP4 MSTORE DUP1 DUP4 MSTORE PUSH2 0x240 SWAP1 SWAP5 ADD SWAP4 SWAP2 SWAP3 SWAP1 SWAP2 SWAP1 DUP4 ADD DUP3 DUP3 DUP1 ISZERO PUSH2 0x1AA6 JUMPI PUSH1 0x20 MUL DUP3 ADD SWAP2 SWAP1 PUSH1 0x0 MSTORE PUSH1 0x20 PUSH1 0x0 KECCAK256 SWAP1 PUSH1 0x0 SWAP1 JUMPDEST DUP3 DUP3 SWAP1 SLOAD SWAP1 PUSH2 0x100 EXP SWAP1 DIV PUSH4 0xFFFFFFFF AND PUSH4 0xFFFFFFFF AND DUP2 MSTORE PUSH1 0x20 ADD SWAP1 PUSH1 0x4 ADD SWAP1 PUSH1 0x20 DUP3 PUSH1 0x3 ADD DIV SWAP3 DUP4 ADD SWAP3 PUSH1 0x1 SUB DUP3 MUL SWAP2 POP DUP1 DUP5 GT PUSH2 0x1A69 JUMPI SWAP1 POP JUMPDEST POP POP POP SWAP2 DUP4 MSTORE POP POP PUSH1 0x19 DUP3 ADD SLOAD PUSH1 0x20 DUP3 ADD MSTORE PUSH1 0x1A DUP3 ADD SLOAD PUSH1 0x40 DUP3 ADD MSTORE PUSH1 0x1B DUP3 ADD SLOAD PUSH1 0x60 DUP3 ADD MSTORE PUSH1 0x1C SWAP1 SWAP2 ADD SLOAD PUSH1 0xFF DUP1 DUP3 AND ISZERO ISZERO PUSH1 0x80 DUP5 ADD MSTORE PUSH2 0x100 DUP3 DIV DUP2 AND ISZERO ISZERO PUSH1 0xA0 DUP5 ADD MSTORE PUSH3 0x10000 DUP3 DIV DUP2 AND ISZERO ISZERO PUSH1 0xC0 DUP5 ADD MSTORE PUSH4 0x1000000 SWAP1 SWAP2 DIV AND ISZERO ISZERO PUSH1 0xE0 SWAP1 SWAP2 ADD MSTORE PUSH2 0x2C0 DUP2 ADD MLOAD PUSH2 0x2E0 DUP3 ADD MLOAD PUSH2 0x300 SWAP1 SWAP3 ADD MLOAD SWAP1 SWAP8 SWAP2 SWAP7 POP SWAP5 POP SWAP3 POP POP POP JUMP JUMPDEST PUSH1 0x1 PUSH1 0x1 PUSH1 0xA0 SHL SUB PUSH32 0x0 AND ADDRESS SUB PUSH2 0x1B74 JUMPI PUSH1 0x40 MLOAD PUSH3 0x461BCD PUSH1 0xE5 SHL DUP2 MSTORE PUSH1 0x4 ADD PUSH2 0x1151 SWAP1 PUSH2 0x5BEC JUMP JUMPDEST PUSH32 0x0 PUSH1 0x1 PUSH1 0x1 PUSH1 0xA0 SHL SUB AND PUSH2 0x1BBD PUSH1 0x0 DUP1 MLOAD PUSH1 0x20 PUSH2 0x5F17 DUP4 CODECOPY DUP2 MLOAD SWAP2 MSTORE SLOAD PUSH1 0x1 PUSH1 0x1 PUSH1 0xA0 SHL SUB AND SWAP1 JUMP JUMPDEST PUSH1 0x1 PUSH1 0x1 PUSH1 0xA0 SHL SUB AND EQ PUSH2 0x1BE3 JUMPI PUSH1 0x40 MLOAD PUSH3 0x461BCD PUSH1 0xE5 SHL DUP2 MSTORE PUSH1 0x4 ADD PUSH2 0x1151 SWAP1 PUSH2 0x5C38 JUMP JUMPDEST PUSH2 0x1BEC DUP3 PUSH2 0x35E5 JUMP JUMPDEST PUSH2 0x1586 DUP3 DUP3 PUSH1 0x1 PUSH2 0x35ED JUMP JUMPDEST PUSH1 0xC9 SLOAD PUSH1 0x40 MLOAD PUSH4 0x935E01B PUSH1 0xE2 SHL DUP2 MSTORE CALLER PUSH1 0x4 DUP3 ADD MSTORE PUSH1 0x1 PUSH1 0x1 PUSH1 0xA0 SHL SUB SWAP1 SWAP2 AND SWAP1 PUSH4 0x24D7806C SWAP1 PUSH1 0x24 ADD PUSH1 0x20 PUSH1 0x40 MLOAD DUP1 DUP4 SUB DUP2 DUP7 GAS STATICCALL ISZERO DUP1 ISZERO PUSH2 0x1C40 JUMPI RETURNDATASIZE PUSH1 0x0 DUP1 RETURNDATACOPY RETURNDATASIZE PUSH1 0x0 REVERT JUMPDEST POP POP POP POP PUSH1 0x40 MLOAD RETURNDATASIZE PUSH1 0x1F NOT PUSH1 0x1F DUP3 ADD AND DUP3 ADD DUP1 PUSH1 0x40 MSTORE POP DUP2 ADD SWAP1 PUSH2 0x1C64 SWAP2 SWAP1 PUSH2 0x5B50 JUMP JUMPDEST PUSH2 0x1C80 JUMPI PUSH1 0x40 MLOAD PUSH3 0x461BCD PUSH1 0xE5 SHL DUP2 MSTORE PUSH1 0x4 ADD PUSH2 0x1151 SWAP1 PUSH2 0x5C84 JUMP JUMPDEST PUSH4 0xFFFFFFFF DUP3 AND PUSH1 0x0 SWAP1 DUP2 MSTORE PUSH1 0xD7 PUSH1 0x20 MSTORE PUSH1 0x40 DUP2 KECCAK256 TIMESTAMP PUSH1 0x1A DUP3 ADD SSTORE PUSH1 0x19 DUP2 ADD DUP1 SLOAD SWAP2 SWAP3 DUP5 SWAP3 PUSH2 0x1CB0 SWAP1 DUP5 SWAP1 PUSH2 0x5DBE JUMP JUMPDEST SWAP3 POP POP DUP2 SWAP1 SSTORE POP DUP2 DUP2 PUSH1 0x12 ADD PUSH1 0x0 DUP3 DUP3 SLOAD PUSH2 0x1CCB SWAP2 SWAP1 PUSH2 0x5DBE JUMP JUMPDEST SWAP3 POP POP DUP2 SWAP1 SSTORE POP DUP2 DUP2 PUSH1 0x1B ADD PUSH1 0x0 DUP3 DUP3 SLOAD PUSH2 0x1CE6 SWAP2 SWAP1 PUSH2 0x5DBE JUMP JUMPDEST SWAP1 SWAP2 SSTORE POP POP POP POP POP JUMP JUMPDEST PUSH1 0x0 ADDRESS PUSH1 0x1 PUSH1 0x1 PUSH1 0xA0 SHL SUB PUSH32 0x0 AND EQ PUSH2 0x1D90 JUMPI PUSH1 0x40 MLOAD PUSH3 0x461BCD PUSH1 0xE5 SHL DUP2 MSTORE PUSH1 0x20 PUSH1 0x4 DUP3 ADD MSTORE PUSH1 0x38 PUSH1 0x24 DUP3 ADD MSTORE PUSH32 0x555550535570677261646561626C653A206D757374206E6F742062652063616C PUSH1 0x44 DUP3 ADD MSTORE PUSH32 0x6C6564207468726F7567682064656C656761746563616C6C0000000000000000 PUSH1 0x64 DUP3 ADD MSTORE PUSH1 0x84 ADD PUSH2 0x1151 JUMP JUMPDEST POP PUSH1 0x0 DUP1 MLOAD PUSH1 0x20 PUSH2 0x5F17 DUP4 CODECOPY DUP2 MLOAD SWAP2 MSTORE SWAP1 JUMP JUMPDEST PUSH1 0xC9 SLOAD PUSH1 0x40 MLOAD PUSH4 0x935E01B PUSH1 0xE2 SHL DUP2 MSTORE CALLER PUSH1 0x4 DUP3 ADD MSTORE PUSH1 0x1 PUSH1 0x1 PUSH1 0xA0 SHL SUB SWAP1 SWAP2 AND SWAP1 PUSH4 0x24D7806C SWAP1 PUSH1 0x24 ADD PUSH1 0x20 PUSH1 0x40 MLOAD DUP1 DUP4 SUB DUP2 DUP7 GAS STATICCALL ISZERO DUP1 ISZERO PUSH2 0x1DEB JUMPI RETURNDATASIZE PUSH1 0x0 DUP1 RETURNDATACOPY RETURNDATASIZE PUSH1 0x0 REVERT JUMPDEST POP POP POP POP PUSH1 0x40 MLOAD RETURNDATASIZE PUSH1 0x1F NOT PUSH1 0x1F DUP3 ADD AND DUP3 ADD DUP1 PUSH1 0x40 MSTORE POP DUP2 ADD SWAP1 PUSH2 0x1E0F SWAP2 SWAP1 PUSH2 0x5B50 JUMP JUMPDEST PUSH2 0x1E2B JUMPI PUSH1 0x40 MLOAD PUSH3 0x461BCD PUSH1 0xE5 SHL DUP2 MSTORE PUSH1 0x4 ADD PUSH2 0x1151 SWAP1 PUSH2 0x5C84 JUMP JUMPDEST PUSH1 0xCF DUP1 SLOAD PUSH4 0xFFFFFFFF NOT AND PUSH4 0xFFFFFFFF SWAP3 SWAP1 SWAP3 AND SWAP2 SWAP1 SWAP2 OR SWAP1 SSTORE JUMP JUMPDEST PUSH1 0xC9 SLOAD PUSH1 0x40 MLOAD PUSH4 0x935E01B PUSH1 0xE2 SHL DUP2 MSTORE CALLER PUSH1 0x4 DUP3 ADD MSTORE PUSH1 0x1 PUSH1 0x1 PUSH1 0xA0 SHL SUB SWAP1 SWAP2 AND SWAP1 PUSH4 0x24D7806C SWAP1 PUSH1 0x24 ADD PUSH1 0x20 PUSH1 0x40 MLOAD DUP1 DUP4 SUB DUP2 DUP7 GAS STATICCALL ISZERO DUP1 ISZERO PUSH2 0x1E8F JUMPI RETURNDATASIZE PUSH1 0x0 DUP1 RETURNDATACOPY RETURNDATASIZE PUSH1 0x0 REVERT JUMPDEST POP POP POP POP PUSH1 0x40 MLOAD RETURNDATASIZE PUSH1 0x1F NOT PUSH1 0x1F DUP3 ADD AND DUP3 ADD DUP1 PUSH1 0x40 MSTORE POP DUP2 ADD SWAP1 PUSH2 0x1EB3 SWAP2 SWAP1 PUSH2 0x5B50 JUMP JUMPDEST PUSH2 0x1ECF JUMPI PUSH1 0x40 MLOAD PUSH3 0x461BCD PUSH1 0xE5 SHL DUP2 MSTORE PUSH1 0x4 ADD PUSH2 0x1151 SWAP1 PUSH2 0x5C84 JUMP JUMPDEST PUSH4 0xFFFFFFFF DUP3 AND PUSH1 0x0 SWAP1 DUP2 MSTORE PUSH1 0xD7 PUSH1 0x20 MSTORE PUSH1 0x40 SWAP1 KECCAK256 PUSH2 0xA4C DUP2 DUP4 PUSH2 0x3E8F JUMP JUMPDEST PUSH2 0x1EF6 PUSH2 0x348D JUMP JUMPDEST PUSH2 0x1F00 PUSH1 0x0 PUSH2 0x3F19 JUMP JUMPDEST JUMP JUMPDEST PUSH1 0xCA DUP2 DUP2 SLOAD DUP2 LT PUSH2 0x1F12 JUMPI PUSH1 0x0 DUP1 REVERT JUMPDEST SWAP1 PUSH1 0x0 MSTORE PUSH1 0x20 PUSH1 0x0 KECCAK256 SWAP1 PUSH1 0x10 SWAP2 DUP3 DUP3 DIV ADD SWAP2 SWAP1 MOD PUSH1 0x2 MUL SWAP2 POP SLOAD SWAP1 PUSH2 0x100 EXP SWAP1 DIV PUSH2 0xFFFF AND DUP2 JUMP JUMPDEST PUSH2 0x1F95 PUSH1 0x40 MLOAD DUP1 PUSH2 0x140 ADD PUSH1 0x40 MSTORE DUP1 PUSH1 0x0 PUSH1 0xFF AND DUP2 MSTORE PUSH1 0x20 ADD PUSH1 0x0 DUP2 MSTORE PUSH1 0x20 ADD PUSH1 0x0 DUP2 MSTORE PUSH1 0x20 ADD PUSH1 0x0 DUP2 MSTORE PUSH1 0x20 ADD PUSH1 0x60 DUP2 MSTORE PUSH1 0x20 ADD PUSH1 0x0 DUP2 MSTORE PUSH1 0x20 ADD PUSH1 0x0 DUP2 MSTORE PUSH1 0x20 ADD PUSH1 0x0 DUP2 MSTORE PUSH1 0x20 ADD PUSH1 0x0 ISZERO ISZERO DUP2 MSTORE PUSH1 0x20 ADD PUSH1 0x60 DUP2 MSTORE POP SWAP1 JUMP JUMPDEST PUSH1 0xFF DUP1 DUP4 AND PUSH1 0x0 SWAP1 DUP2 MSTORE PUSH1 0xD8 PUSH1 0x20 SWAP1 DUP2 MSTORE PUSH1 0x40 SWAP2 DUP3 SWAP1 KECCAK256 DUP3 MLOAD PUSH2 0x140 DUP2 ADD DUP5 MSTORE DUP2 SLOAD SWAP1 SWAP5 AND DUP5 MSTORE PUSH1 0x1 DUP2 ADD SLOAD SWAP2 DUP5 ADD SWAP2 SWAP1 SWAP2 MSTORE PUSH1 0x2 DUP2 ADD SLOAD SWAP2 DUP4 ADD SWAP2 SWAP1 SWAP2 MSTORE PUSH1 0x3 DUP2 ADD SLOAD PUSH1 0x60 DUP4 ADD MSTORE PUSH1 0x4 DUP2 ADD DUP1 SLOAD PUSH1 0x80 DUP5 ADD SWAP2 SWAP1 PUSH2 0x1FF3 SWAP1 PUSH2 0x5B16 JUMP JUMPDEST DUP1 PUSH1 0x1F ADD PUSH1 0x20 DUP1 SWAP2 DIV MUL PUSH1 0x20 ADD PUSH1 0x40 MLOAD SWAP1 DUP2 ADD PUSH1 0x40 MSTORE DUP1 SWAP3 SWAP2 SWAP1 DUP2 DUP2 MSTORE PUSH1 0x20 ADD DUP3 DUP1 SLOAD PUSH2 0x201F SWAP1 PUSH2 0x5B16 JUMP JUMPDEST DUP1 ISZERO PUSH2 0x206C JUMPI DUP1 PUSH1 0x1F LT PUSH2 0x2041 JUMPI PUSH2 0x100 DUP1 DUP4 SLOAD DIV MUL DUP4 MSTORE SWAP2 PUSH1 0x20 ADD SWAP2 PUSH2 0x206C JUMP JUMPDEST DUP3 ADD SWAP2 SWAP1 PUSH1 0x0 MSTORE PUSH1 0x20 PUSH1 0x0 KECCAK256 SWAP1 JUMPDEST DUP2 SLOAD DUP2 MSTORE SWAP1 PUSH1 0x1 ADD SWAP1 PUSH1 0x20 ADD DUP1 DUP4 GT PUSH2 0x204F JUMPI DUP3 SWAP1 SUB PUSH1 0x1F AND DUP3 ADD SWAP2 JUMPDEST POP POP POP POP POP DUP2 MSTORE PUSH1 0x20 ADD PUSH1 0x5 DUP3 ADD SLOAD DUP2 MSTORE PUSH1 0x20 ADD PUSH1 0x6 DUP3 ADD SLOAD DUP2 MSTORE PUSH1 0x20 ADD PUSH1 0x7 DUP3 ADD SLOAD DUP2 MSTORE PUSH1 0x20 ADD PUSH1 0x8 DUP3 ADD PUSH1 0x0 SWAP1 SLOAD SWAP1 PUSH2 0x100 EXP SWAP1 DIV PUSH1 0xFF AND ISZERO ISZERO ISZERO ISZERO DUP2 MSTORE PUSH1 0x20 ADD PUSH1 0x9 DUP3 ADD DUP1 SLOAD DUP1 PUSH1 0x20 MUL PUSH1 0x20 ADD PUSH1 0x40 MLOAD SWAP1 DUP2 ADD PUSH1 0x40 MSTORE DUP1 SWAP3 SWAP2 SWAP1 DUP2 DUP2 MSTORE PUSH1 0x20 ADD DUP3 DUP1 SLOAD DUP1 ISZERO PUSH2 0x2129 JUMPI PUSH1 0x20 MUL DUP3 ADD SWAP2 SWAP1 PUSH1 0x0 MSTORE PUSH1 0x20 PUSH1 0x0 KECCAK256 SWAP1 PUSH1 0x0 SWAP1 JUMPDEST DUP3 DUP3 SWAP1 SLOAD SWAP1 PUSH2 0x100 EXP SWAP1 DIV PUSH4 0xFFFFFFFF AND PUSH4 0xFFFFFFFF AND DUP2 MSTORE PUSH1 0x20 ADD SWAP1 PUSH1 0x4 ADD SWAP1 PUSH1 0x20 DUP3 PUSH1 0x3 ADD DIV SWAP3 DUP4 ADD SWAP3 PUSH1 0x1 SUB DUP3 MUL SWAP2 POP DUP1 DUP5 GT PUSH2 0x20EC JUMPI SWAP1 POP JUMPDEST POP POP POP POP POP DUP2 MSTORE POP POP SWAP1 POP SWAP2 SWAP1 POP JUMP JUMPDEST PUSH1 0xC9 SLOAD PUSH1 0x40 MLOAD PUSH4 0x935E01B PUSH1 0xE2 SHL DUP2 MSTORE CALLER PUSH1 0x4 DUP3 ADD MSTORE PUSH1 0x1 PUSH1 0x1 PUSH1 0xA0 SHL SUB SWAP1 SWAP2 AND SWAP1 PUSH4 0x24D7806C SWAP1 PUSH1 0x24 ADD PUSH1 0x20 PUSH1 0x40 MLOAD DUP1 DUP4 SUB DUP2 DUP7 GAS STATICCALL ISZERO DUP1 ISZERO PUSH2 0x2181 JUMPI RETURNDATASIZE PUSH1 0x0 DUP1 RETURNDATACOPY RETURNDATASIZE PUSH1 0x0 REVERT JUMPDEST POP POP POP POP PUSH1 0x40 MLOAD RETURNDATASIZE PUSH1 0x1F NOT PUSH1 0x1F DUP3 ADD AND DUP3 ADD DUP1 PUSH1 0x40 MSTORE POP DUP2 ADD SWAP1 PUSH2 0x21A5 SWAP2 SWAP1 PUSH2 0x5B50 JUMP JUMPDEST PUSH2 0x21C1 JUMPI PUSH1 0x40 MLOAD PUSH3 0x461BCD PUSH1 0xE5 SHL DUP2 MSTORE PUSH1 0x4 ADD PUSH2 0x1151 SWAP1 PUSH2 0x5C84 JUMP JUMPDEST PUSH1 0xCF SLOAD PUSH1 0x0 SWAP1 PUSH2 0x21D8 SWAP1 PUSH4 0xFFFFFFFF AND PUSH1 0x1 PUSH2 0x5DD1 JUMP JUMPDEST PUSH1 0x1 PUSH1 0x1 PUSH1 0xA0 SHL SUB DUP10 AND PUSH1 0x0 SWAP1 DUP2 MSTORE PUSH1 0xD6 PUSH1 0x20 SWAP1 DUP2 MSTORE PUSH1 0x40 DUP1 DUP4 KECCAK256 PUSH4 0xFFFFFFFF DUP6 AND DUP5 MSTORE PUSH1 0xD7 SWAP1 SWAP3 MSTORE SWAP1 SWAP2 KECCAK256 SWAP2 SWAP3 POP SWAP1 PUSH2 0x222E DUP2 DUP12 DUP6 DUP13 DUP13 PUSH2 0x221B DUP2 PUSH1 0x3 PUSH2 0x5B83 JUMP JUMPDEST PUSH1 0xCB SLOAD DUP15 SWAP1 PUSH3 0x10000 SWAP1 DIV PUSH1 0xFF AND PUSH2 0x3F6B JUMP JUMPDEST PUSH1 0xD5 SLOAD PUSH1 0xFF AND ISZERO PUSH2 0x238D JUMPI PUSH1 0xC9 SLOAD PUSH1 0x40 DUP1 MLOAD PUSH4 0x44846F9D PUSH1 0xE1 SHL DUP2 MSTORE SWAP1 MLOAD PUSH1 0x0 SWAP3 PUSH1 0x1 PUSH1 0x1 PUSH1 0xA0 SHL SUB AND SWAP2 PUSH4 0x8908DF3A SWAP2 PUSH1 0x4 DUP1 DUP4 ADD SWAP3 PUSH1 0x20 SWAP3 SWAP2 SWAP1 DUP3 SWAP1 SUB ADD DUP2 DUP7 GAS STATICCALL ISZERO DUP1 ISZERO PUSH2 0x2283 JUMPI RETURNDATASIZE PUSH1 0x0 DUP1 RETURNDATACOPY RETURNDATASIZE PUSH1 0x0 REVERT JUMPDEST POP POP POP POP PUSH1 0x40 MLOAD RETURNDATASIZE PUSH1 0x1F NOT PUSH1 0x1F DUP3 ADD AND DUP3 ADD DUP1 PUSH1 0x40 MSTORE POP DUP2 ADD SWAP1 PUSH2 0x22A7 SWAP2 SWAP1 PUSH2 0x5BBC JUMP JUMPDEST PUSH1 0x1 PUSH1 0x1 PUSH1 0xA0 SHL SUB AND PUSH4 0xD275F14E DUP6 DUP12 DUP11 DUP11 PUSH2 0x22C6 DUP12 PUSH3 0x15180 PUSH2 0x5B83 JUMP JUMPDEST PUSH1 0x40 MLOAD PUSH1 0x1 PUSH1 0x1 PUSH1 0xE0 SHL SUB NOT PUSH1 0xE0 DUP9 SWAP1 SHL AND DUP2 MSTORE PUSH4 0xFFFFFFFF SWAP6 SWAP1 SWAP6 AND PUSH1 0x4 DUP7 ADD MSTORE PUSH1 0x24 DUP6 ADD SWAP4 SWAP1 SWAP4 MSTORE PUSH1 0x44 DUP5 ADD SWAP2 SWAP1 SWAP2 MSTORE PUSH1 0x64 DUP4 ADD MSTORE PUSH1 0x84 DUP3 ADD MSTORE PUSH1 0xA4 ADD PUSH1 0x20 PUSH1 0x40 MLOAD DUP1 DUP4 SUB DUP2 PUSH1 0x0 DUP8 GAS CALL ISZERO DUP1 ISZERO PUSH2 0x2324 JUMPI RETURNDATASIZE PUSH1 0x0 DUP1 RETURNDATACOPY RETURNDATASIZE PUSH1 0x0 REVERT JUMPDEST POP POP POP POP PUSH1 0x40 MLOAD RETURNDATASIZE PUSH1 0x1F NOT PUSH1 0x1F DUP3 ADD AND DUP3 ADD DUP1 PUSH1 0x40 MSTORE POP DUP2 ADD SWAP1 PUSH2 0x2348 SWAP2 SWAP1 PUSH2 0x5DF5 JUMP JUMPDEST PUSH1 0x18 DUP4 ADD DUP1 SLOAD PUSH1 0x1 DUP2 ADD DUP3 SSTORE PUSH1 0x0 SWAP2 DUP3 MSTORE PUSH1 0x20 SWAP1 SWAP2 KECCAK256 PUSH1 0x8 DUP3 DIV ADD DUP1 SLOAD PUSH1 0x7 SWAP1 SWAP3 AND PUSH1 0x4 MUL PUSH2 0x100 EXP PUSH4 0xFFFFFFFF DUP2 DUP2 MUL NOT SWAP1 SWAP4 AND SWAP4 SWAP1 SWAP3 AND SWAP2 SWAP1 SWAP2 MUL SWAP2 SWAP1 SWAP2 OR SWAP1 SSTORE POP JUMPDEST PUSH1 0x1 DUP3 DUP2 ADD DUP1 SLOAD SWAP2 DUP3 ADD DUP2 SSTORE PUSH1 0x0 SWAP1 DUP2 MSTORE PUSH1 0x20 DUP2 KECCAK256 PUSH1 0x8 DUP4 DIV ADD DUP1 SLOAD PUSH1 0x7 SWAP1 SWAP4 AND PUSH1 0x4 MUL PUSH2 0x100 EXP PUSH4 0xFFFFFFFF DUP2 DUP2 MUL NOT SWAP1 SWAP5 AND DUP8 DUP6 AND SWAP2 SWAP1 SWAP2 MUL OR SWAP1 SSTORE PUSH1 0xCF DUP1 SLOAD SWAP1 SWAP3 AND SWAP2 SWAP1 PUSH2 0x23DD DUP4 PUSH2 0x5E12 JUMP JUMPDEST SWAP2 SWAP1 PUSH2 0x100 EXP DUP2 SLOAD DUP2 PUSH4 0xFFFFFFFF MUL NOT AND SWAP1 DUP4 PUSH4 0xFFFFFFFF AND MUL OR SWAP1 SSTORE POP POP POP POP POP POP POP POP POP POP POP POP JUMP JUMPDEST PUSH1 0x0 SLOAD PUSH2 0x100 SWAP1 DIV PUSH1 0xFF AND ISZERO DUP1 DUP1 ISZERO PUSH2 0x2428 JUMPI POP PUSH1 0x0 SLOAD PUSH1 0x1 PUSH1 0xFF SWAP1 SWAP2 AND LT JUMPDEST DUP1 PUSH2 0x2442 JUMPI POP ADDRESS EXTCODESIZE ISZERO DUP1 ISZERO PUSH2 0x2442 JUMPI POP PUSH1 0x0 SLOAD PUSH1 0xFF AND PUSH1 0x1 EQ JUMPDEST PUSH2 0x24A5 JUMPI PUSH1 0x40 MLOAD PUSH3 0x461BCD PUSH1 0xE5 SHL DUP2 MSTORE PUSH1 0x20 PUSH1 0x4 DUP3 ADD MSTORE PUSH1 0x2E PUSH1 0x24 DUP3 ADD MSTORE PUSH32 0x496E697469616C697A61626C653A20636F6E747261637420697320616C726561 PUSH1 0x44 DUP3 ADD MSTORE PUSH14 0x191E481A5B9A5D1A585B1A5E9959 PUSH1 0x92 SHL PUSH1 0x64 DUP3 ADD MSTORE PUSH1 0x84 ADD PUSH2 0x1151 JUMP JUMPDEST PUSH1 0x0 DUP1 SLOAD PUSH1 0xFF NOT AND PUSH1 0x1 OR SWAP1 SSTORE DUP1 ISZERO PUSH2 0x24C8 JUMPI PUSH1 0x0 DUP1 SLOAD PUSH2 0xFF00 NOT AND PUSH2 0x100 OR SWAP1 SSTORE JUMPDEST PUSH1 0xC9 DUP1 SLOAD PUSH1 0x1 PUSH1 0x1 PUSH1 0xA0 SHL SUB NOT AND PUSH20 0xB8BF5FEB9FCA57D9C5D27185DDF3017E99A2D36 OR SWAP1 SSTORE PUSH1 0xCB DUP1 SLOAD PUSH2 0xFFFF NOT AND PUSH2 0x3E8 OR SWAP1 SSTORE PUSH1 0x40 DUP1 MLOAD PUSH2 0x3A0 DUP2 ADD DUP3 MSTORE PUSH1 0x64 DUP2 MSTORE PUSH1 0x46 PUSH1 0x20 DUP3 ADD MSTORE PUSH1 0x32 SWAP2 DUP2 ADD DUP3 SWAP1 MSTORE PUSH1 0x60 DUP2 ADD DUP3 SWAP1 MSTORE PUSH1 0x80 DUP2 ADD DUP3 SWAP1 MSTORE PUSH1 0xA0 DUP2 ADD DUP3 SWAP1 MSTORE PUSH1 0xC0 DUP2 ADD DUP3 SWAP1 MSTORE PUSH1 0xE0 DUP2 ADD DUP3 SWAP1 MSTORE PUSH2 0x100 DUP2 ADD DUP3 SWAP1 MSTORE PUSH2 0x120 DUP2 ADD DUP3 SWAP1 MSTORE PUSH2 0x140 DUP2 ADD DUP3 SWAP1 MSTORE PUSH2 0x160 DUP2 ADD DUP3 SWAP1 MSTORE PUSH2 0x180 DUP2 ADD DUP3 SWAP1 MSTORE PUSH2 0x1A0 DUP2 ADD DUP3 SWAP1 MSTORE PUSH2 0x1C0 DUP2 ADD DUP3 SWAP1 MSTORE PUSH2 0x1E0 DUP2 ADD DUP3 SWAP1 MSTORE PUSH2 0x200 DUP2 ADD DUP3 SWAP1 MSTORE PUSH2 0x220 DUP2 ADD DUP3 SWAP1 MSTORE PUSH2 0x240 DUP2 ADD SWAP2 SWAP1 SWAP2 MSTORE PUSH1 0x14 PUSH2 0x260 DUP3 ADD DUP2 SWAP1 MSTORE PUSH2 0x280 DUP3 ADD DUP2 SWAP1 MSTORE PUSH2 0x2A0 DUP3 ADD DUP2 SWAP1 MSTORE PUSH2 0x2C0 DUP3 ADD DUP2 SWAP1 MSTORE PUSH2 0x2E0 DUP3 ADD DUP2 SWAP1 MSTORE PUSH2 0x300 DUP3 ADD DUP2 SWAP1 MSTORE PUSH2 0x320 DUP3 ADD DUP2 SWAP1 MSTORE PUSH2 0x340 DUP3 ADD DUP2 SWAP1 MSTORE PUSH2 0x360 DUP3 ADD DUP2 SWAP1 MSTORE PUSH2 0x380 DUP3 ADD MSTORE PUSH2 0x25F5 SWAP1 PUSH1 0xCA SWAP1 PUSH1 0x1D PUSH2 0x50E5 JUMP JUMPDEST POP PUSH1 0xCB DUP1 SLOAD PUSH3 0xFF0000 NOT AND PUSH3 0x320000 OR SWAP1 SSTORE PUSH9 0x56BC75E2D63100000 PUSH1 0xCC SSTORE PUSH1 0xCF DUP1 SLOAD PUSH7 0x2000000000000 PUSH7 0xFF00FF00000000 NOT SWAP1 SWAP2 AND OR SWAP1 SSTORE PUSH1 0xD5 DUP1 SLOAD PUSH3 0x278D00 PUSH1 0xD2 SSTORE PUSH3 0xFFFFFF NOT AND PUSH3 0x140101 OR SWAP1 SSTORE PUSH2 0x264F PUSH2 0x428E JUMP JUMPDEST PUSH2 0x2657 PUSH2 0x42BD JUMP JUMPDEST DUP1 ISZERO PUSH2 0x13C2 JUMPI PUSH1 0x0 DUP1 SLOAD PUSH2 0xFF00 NOT AND SWAP1 SSTORE PUSH1 0x40 MLOAD PUSH1 0x1 DUP2 MSTORE PUSH32 0x7F26B83FF96E1F2B6A682F133852F6798A09C465DA95921460CEFB3847402498 SWAP1 PUSH1 0x20 ADD JUMPDEST PUSH1 0x40 MLOAD DUP1 SWAP2 SUB SWAP1 LOG1 POP JUMP JUMPDEST PUSH4 0xFFFFFFFF DUP1 DUP3 AND PUSH1 0x0 SWAP1 DUP2 MSTORE PUSH1 0xD7 PUSH1 0x20 SWAP1 DUP2 MSTORE PUSH1 0x40 DUP1 DUP4 KECCAK256 DUP2 MLOAD PUSH2 0x480 DUP2 ADD SWAP1 SWAP3 MSTORE DUP1 SLOAD SWAP1 SWAP5 AND DUP2 MSTORE PUSH1 0x1 DUP5 ADD DUP1 SLOAD SWAP4 SWAP5 DUP6 SWAP5 SWAP3 SWAP4 SWAP1 SWAP3 SWAP1 DUP5 ADD SWAP2 SWAP1 PUSH2 0x26E6 SWAP1 PUSH2 0x5B16 JUMP JUMPDEST DUP1 PUSH1 0x1F ADD PUSH1 0x20 DUP1 SWAP2 DIV MUL PUSH1 0x20 ADD PUSH1 0x40 MLOAD SWAP1 DUP2 ADD PUSH1 0x40 MSTORE DUP1 SWAP3 SWAP2 SWAP1 DUP2 DUP2 MSTORE PUSH1 0x20 ADD DUP3 DUP1 SLOAD PUSH2 0x2712 SWAP1 PUSH2 0x5B16 JUMP JUMPDEST DUP1 ISZERO PUSH2 0x275F JUMPI DUP1 PUSH1 0x1F LT PUSH2 0x2734 JUMPI PUSH2 0x100 DUP1 DUP4 SLOAD DIV MUL DUP4 MSTORE SWAP2 PUSH1 0x20 ADD SWAP2 PUSH2 0x275F JUMP JUMPDEST DUP3 ADD SWAP2 SWAP1 PUSH1 0x0 MSTORE PUSH1 0x20 PUSH1 0x0 KECCAK256 SWAP1 JUMPDEST DUP2 SLOAD DUP2 MSTORE SWAP1 PUSH1 0x1 ADD SWAP1 PUSH1 0x20 ADD DUP1 DUP4 GT PUSH2 0x2742 JUMPI DUP3 SWAP1 SUB PUSH1 0x1F AND DUP3 ADD SWAP2 JUMPDEST POP POP POP SWAP2 DUP4 MSTORE POP POP PUSH1 0x2 DUP3 ADD SLOAD PUSH1 0x20 DUP1 DUP4 ADD SWAP2 SWAP1 SWAP2 MSTORE PUSH1 0x3 DUP4 ADD SLOAD PUSH1 0xFF DUP1 DUP3 AND ISZERO ISZERO PUSH1 0x40 DUP1 DUP7 ADD SWAP2 SWAP1 SWAP2 MSTORE PUSH1 0x1 PUSH1 0x1 PUSH1 0xA0 SHL SUB PUSH2 0x100 DUP5 DIV AND PUSH1 0x60 DUP7 ADD MSTORE PUSH4 0xFFFFFFFF PUSH1 0x1 PUSH1 0xA8 SHL DUP5 DIV AND PUSH1 0x80 DUP7 ADD MSTORE PUSH1 0x1 PUSH1 0xC8 SHL SWAP1 SWAP3 DIV AND ISZERO ISZERO PUSH1 0xA0 DUP5 ADD MSTORE PUSH1 0x4 DUP5 ADD DUP1 SLOAD DUP3 MLOAD DUP2 DUP6 MUL DUP2 ADD DUP6 ADD SWAP1 SWAP4 MSTORE DUP1 DUP4 MSTORE PUSH1 0xC0 SWAP1 SWAP5 ADD SWAP4 SWAP2 SWAP3 SWAP1 SWAP2 SWAP1 DUP4 ADD DUP3 DUP3 DUP1 ISZERO PUSH2 0x283A JUMPI PUSH1 0x20 MUL DUP3 ADD SWAP2 SWAP1 PUSH1 0x0 MSTORE PUSH1 0x20 PUSH1 0x0 KECCAK256 SWAP1 PUSH1 0x0 SWAP1 JUMPDEST DUP3 DUP3 SWAP1 SLOAD SWAP1 PUSH2 0x100 EXP SWAP1 DIV PUSH4 0xFFFFFFFF AND PUSH4 0xFFFFFFFF AND DUP2 MSTORE PUSH1 0x20 ADD SWAP1 PUSH1 0x4 ADD SWAP1 PUSH1 0x20 DUP3 PUSH1 0x3 ADD DIV SWAP3 DUP4 ADD SWAP3 PUSH1 0x1 SUB DUP3 MUL SWAP2 POP DUP1 DUP5 GT PUSH2 0x27FD JUMPI SWAP1 POP JUMPDEST POP POP POP POP POP DUP2 MSTORE PUSH1 0x20 ADD PUSH1 0x5 DUP3 ADD DUP1 SLOAD DUP1 PUSH1 0x20 MUL PUSH1 0x20 ADD PUSH1 0x40 MLOAD SWAP1 DUP2 ADD PUSH1 0x40 MSTORE DUP1 SWAP3 SWAP2 SWAP1 DUP2 DUP2 MSTORE PUSH1 0x20 ADD DUP3 DUP1 SLOAD DUP1 ISZERO PUSH2 0x28BE JUMPI PUSH1 0x20 MUL DUP3 ADD SWAP2 SWAP1 PUSH1 0x0 MSTORE PUSH1 0x20 PUSH1 0x0 KECCAK256 SWAP1 PUSH1 0x0 SWAP1 JUMPDEST DUP3 DUP3 SWAP1 SLOAD SWAP1 PUSH2 0x100 EXP SWAP1 DIV PUSH4 0xFFFFFFFF AND PUSH4 0xFFFFFFFF AND DUP2 MSTORE PUSH1 0x20 ADD SWAP1 PUSH1 0x4 ADD SWAP1 PUSH1 0x20 DUP3 PUSH1 0x3 ADD DIV SWAP3 DUP4 ADD SWAP3 PUSH1 0x1 SUB DUP3 MUL SWAP2 POP DUP1 DUP5 GT PUSH2 0x2881 JUMPI SWAP1 POP JUMPDEST POP POP POP POP POP DUP2 MSTORE PUSH1 0x20 ADD PUSH1 0x6 DUP3 ADD DUP1 SLOAD DUP1 PUSH1 0x20 MUL PUSH1 0x20 ADD PUSH1 0x40 MLOAD SWAP1 DUP2 ADD PUSH1 0x40 MSTORE DUP1 SWAP3 SWAP2 SWAP1 DUP2 DUP2 MSTORE PUSH1 0x20 ADD DUP3 DUP1 SLOAD DUP1 ISZERO PUSH2 0x2942 JUMPI PUSH1 0x20 MUL DUP3 ADD SWAP2 SWAP1 PUSH1 0x0 MSTORE PUSH1 0x20 PUSH1 0x0 KECCAK256 SWAP1 PUSH1 0x0 SWAP1 JUMPDEST DUP3 DUP3 SWAP1 SLOAD SWAP1 PUSH2 0x100 EXP SWAP1 DIV PUSH4 0xFFFFFFFF AND PUSH4 0xFFFFFFFF AND DUP2 MSTORE PUSH1 0x20 ADD SWAP1 PUSH1 0x4 ADD SWAP1 PUSH1 0x20 DUP3 PUSH1 0x3 ADD DIV SWAP3 DUP4 ADD SWAP3 PUSH1 0x1 SUB DUP3 MUL SWAP2 POP DUP1 DUP5 GT PUSH2 0x2905 JUMPI SWAP1 POP JUMPDEST POP POP POP POP POP DUP2 MSTORE PUSH1 0x20 ADD PUSH1 0x7 DUP3 ADD DUP1 SLOAD DUP1 PUSH1 0x20 MUL PUSH1 0x20 ADD PUSH1 0x40 MLOAD SWAP1 DUP2 ADD PUSH1 0x40 MSTORE DUP1 SWAP3 SWAP2 SWAP1 DUP2 DUP2 MSTORE PUSH1 0x20 ADD DUP3 DUP1 SLOAD DUP1 ISZERO PUSH2 0x299A JUMPI PUSH1 0x20 MUL DUP3 ADD SWAP2 SWAP1 PUSH1 0x0 MSTORE PUSH1 0x20 PUSH1 0x0 KECCAK256 SWAP1 JUMPDEST DUP2 SLOAD DUP2 MSTORE PUSH1 0x20 ADD SWAP1 PUSH1 0x1 ADD SWAP1 DUP1 DUP4 GT PUSH2 0x2986 JUMPI JUMPDEST POP POP POP SWAP2 DUP4 MSTORE POP POP PUSH1 0x8 DUP3 ADD SLOAD PUSH1 0x20 DUP1 DUP4 ADD SWAP2 SWAP1 SWAP2 MSTORE PUSH1 0x9 DUP4 ADD SLOAD PUSH1 0x40 DUP1 DUP5 ADD SWAP2 SWAP1 SWAP2 MSTORE PUSH1 0xA DUP5 ADD SLOAD PUSH1 0x60 DUP5 ADD MSTORE PUSH1 0xB DUP5 ADD SLOAD PUSH1 0x80 DUP5 ADD MSTORE PUSH1 0xC DUP5 ADD SLOAD PUSH1 0xA0 DUP5 ADD MSTORE PUSH1 0xD DUP5 ADD SLOAD PUSH1 0xC0 DUP5 ADD MSTORE PUSH1 0xE DUP5 ADD SLOAD PUSH1 0xE0 DUP5 ADD MSTORE PUSH1 0xF DUP5 ADD SLOAD PUSH2 0x100 DUP1 DUP6 ADD SWAP2 SWAP1 SWAP2 MSTORE PUSH1 0x10 DUP6 ADD SLOAD PUSH1 0xFF DUP2 AND PUSH2 0x120 DUP7 ADD MSTORE DIV PUSH4 0xFFFFFFFF AND PUSH2 0x140 DUP5 ADD MSTORE PUSH1 0x11 DUP5 ADD SLOAD PUSH2 0x160 DUP5 ADD MSTORE PUSH1 0x12 DUP5 ADD SLOAD PUSH2 0x180 DUP5 ADD MSTORE PUSH1 0x13 DUP5 ADD SLOAD PUSH2 0x1A0 DUP5 ADD MSTORE PUSH1 0x14 DUP5 ADD SLOAD PUSH2 0x1C0 DUP5 ADD MSTORE PUSH1 0x15 DUP5 ADD SLOAD PUSH2 0x1E0 DUP5 ADD MSTORE PUSH1 0x16 DUP5 ADD SLOAD PUSH2 0x200 DUP5 ADD MSTORE PUSH1 0x17 DUP5 ADD SLOAD PUSH2 0x220 DUP5 ADD MSTORE PUSH1 0x18 DUP5 ADD DUP1 SLOAD DUP3 MLOAD DUP2 DUP6 MUL DUP2 ADD DUP6 ADD SWAP1 SWAP4 MSTORE DUP1 DUP4 MSTORE PUSH2 0x240 SWAP1 SWAP5 ADD SWAP4 SWAP2 SWAP3 SWAP1 SWAP2 SWAP1 DUP4 ADD DUP3 DUP3 DUP1 ISZERO PUSH2 0x2AE4 JUMPI PUSH1 0x20 MUL DUP3 ADD SWAP2 SWAP1 PUSH1 0x0 MSTORE PUSH1 0x20 PUSH1 0x0 KECCAK256 SWAP1 PUSH1 0x0 SWAP1 JUMPDEST DUP3 DUP3 SWAP1 SLOAD SWAP1 PUSH2 0x100 EXP SWAP1 DIV PUSH4 0xFFFFFFFF AND PUSH4 0xFFFFFFFF AND DUP2 MSTORE PUSH1 0x20 ADD SWAP1 PUSH1 0x4 ADD SWAP1 PUSH1 0x20 DUP3 PUSH1 0x3 ADD DIV SWAP3 DUP4 ADD SWAP3 PUSH1 0x1 SUB DUP3 MUL SWAP2 POP DUP1 DUP5 GT PUSH2 0x2AA7 JUMPI SWAP1 POP JUMPDEST POP POP POP SWAP2 DUP4 MSTORE POP POP PUSH1 0x19 DUP3 ADD SLOAD PUSH1 0x20 DUP3 ADD MSTORE PUSH1 0x1A DUP3 ADD SLOAD PUSH1 0x40 DUP3 ADD MSTORE PUSH1 0x1B DUP3 ADD SLOAD PUSH1 0x60 DUP3 ADD MSTORE PUSH1 0x1C SWAP1 SWAP2 ADD SLOAD PUSH1 0xFF DUP1 DUP3 AND ISZERO ISZERO PUSH1 0x80 DUP5 ADD MSTORE PUSH2 0x100 DUP3 DIV DUP2 AND ISZERO ISZERO PUSH1 0xA0 DUP5 ADD MSTORE PUSH3 0x10000 DUP3 DIV DUP2 AND ISZERO ISZERO PUSH1 0xC0 DUP5 ADD MSTORE PUSH4 0x1000000 SWAP1 SWAP2 DIV AND ISZERO ISZERO PUSH1 0xE0 SWAP1 SWAP2 ADD MSTORE SWAP1 POP PUSH2 0x2B55 DUP2 PUSH2 0x42E4 JUMP JUMPDEST PUSH1 0xFF AND SWAP4 SWAP3 POP POP POP JUMP JUMPDEST PUSH1 0xC9 SLOAD PUSH1 0x40 MLOAD PUSH4 0x935E01B PUSH1 0xE2 SHL DUP2 MSTORE CALLER PUSH1 0x4 DUP3 ADD MSTORE PUSH1 0x1 PUSH1 0x1 PUSH1 0xA0 SHL SUB SWAP1 SWAP2 AND SWAP1 PUSH4 0x24D7806C SWAP1 PUSH1 0x24 ADD PUSH1 0x20 PUSH1 0x40 MLOAD DUP1 DUP4 SUB DUP2 DUP7 GAS STATICCALL ISZERO DUP1 ISZERO PUSH2 0x2BA7 JUMPI RETURNDATASIZE PUSH1 0x0 DUP1 RETURNDATACOPY RETURNDATASIZE PUSH1 0x0 REVERT JUMPDEST POP POP POP POP PUSH1 0x40 MLOAD RETURNDATASIZE PUSH1 0x1F NOT PUSH1 0x1F DUP3 ADD AND DUP3 ADD DUP1 PUSH1 0x40 MSTORE POP DUP2 ADD SWAP1 PUSH2 0x2BCB SWAP2 SWAP1 PUSH2 0x5B50 JUMP JUMPDEST PUSH2 0x2BE7 JUMPI PUSH1 0x40 MLOAD PUSH3 0x461BCD PUSH1 0xE5 SHL DUP2 MSTORE PUSH1 0x4 ADD PUSH2 0x1151 SWAP1 PUSH2 0x5C84 JUMP JUMPDEST PUSH1 0x1 PUSH1 0x1 PUSH1 0xA0 SHL SUB AND PUSH1 0x0 SWAP1 DUP2 MSTORE PUSH1 0xD6 PUSH1 0x20 MSTORE PUSH1 0x40 SWAP1 KECCAK256 DUP1 SLOAD PUSH1 0xFF NOT AND SWAP1 SSTORE JUMP JUMPDEST PUSH2 0x2C10 PUSH2 0x348D JUMP JUMPDEST PUSH1 0x40 MLOAD PUSH4 0xA9059CBB PUSH1 0xE0 SHL DUP2 MSTORE CALLER PUSH1 0x4 DUP3 ADD MSTORE PUSH1 0x24 DUP2 ADD DUP3 SWAP1 MSTORE PUSH1 0x1 PUSH1 0x1 PUSH1 0xA0 SHL SUB DUP4 AND SWAP1 PUSH4 0xA9059CBB SWAP1 PUSH1 0x44 ADD PUSH1 0x20 PUSH1 0x40 MLOAD DUP1 DUP4 SUB DUP2 PUSH1 0x0 DUP8 GAS CALL ISZERO DUP1 ISZERO PUSH2 0x2C5D JUMPI RETURNDATASIZE PUSH1 0x0 DUP1 RETURNDATACOPY RETURNDATASIZE PUSH1 0x0 REVERT JUMPDEST POP POP POP POP PUSH1 0x40 MLOAD RETURNDATASIZE PUSH1 0x1F NOT PUSH1 0x1F DUP3 ADD AND DUP3 ADD DUP1 PUSH1 0x40 MSTORE POP DUP2 ADD SWAP1 PUSH2 0xA4C SWAP2 SWAP1 PUSH2 0x5B50 JUMP JUMPDEST CALLVALUE PUSH1 0x0 PUSH2 0x2C8D DUP3 PUSH2 0x4399 JUMP JUMPDEST SWAP1 POP PUSH1 0xCC SLOAD DUP2 LT ISZERO PUSH2 0x2CE1 JUMPI PUSH1 0x40 MLOAD PUSH3 0x461BCD PUSH1 0xE5 SHL DUP2 MSTORE PUSH1 0x20 PUSH1 0x4 DUP3 ADD MSTORE PUSH1 0x1F PUSH1 0x24 DUP3 ADD MSTORE PUSH32 0x56616C7565206C657373207468656E206D696E436F6E747269627574696F6E00 PUSH1 0x44 DUP3 ADD MSTORE PUSH1 0x64 ADD PUSH2 0x1151 JUMP JUMPDEST PUSH4 0xFFFFFFFF DUP4 AND PUSH1 0x0 SWAP1 DUP2 MSTORE PUSH1 0xD7 PUSH1 0x20 MSTORE PUSH1 0x40 DUP2 KECCAK256 CALLER SWAP2 TIMESTAMP SWAP2 SWAP1 PUSH2 0x2D06 DUP6 PUSH1 0x3 PUSH2 0x5B83 JUMP JUMPDEST DUP3 PUSH1 0x12 ADD SLOAD DUP4 PUSH1 0x14 ADD SLOAD PUSH2 0x2D1A SWAP2 SWAP1 PUSH2 0x5BD9 JUMP JUMPDEST PUSH2 0x2D24 SWAP2 SWAP1 PUSH2 0x5DBE JUMP JUMPDEST SWAP1 POP PUSH1 0x0 PUSH1 0x3 DUP4 PUSH1 0x14 ADD SLOAD PUSH1 0x2 PUSH2 0x2D3B SWAP2 SWAP1 PUSH2 0x5B83 JUMP JUMPDEST PUSH2 0x2D45 SWAP2 SWAP1 PUSH2 0x5B9A JUMP JUMPDEST DUP4 PUSH1 0x12 ADD SLOAD LT PUSH2 0x2D56 JUMPI PUSH1 0x0 PUSH2 0x2D8E JUMP JUMPDEST PUSH1 0x3 DUP4 PUSH1 0x12 ADD SLOAD PUSH1 0x3 DUP6 PUSH1 0x14 ADD SLOAD PUSH1 0x2 PUSH2 0x2D70 SWAP2 SWAP1 PUSH2 0x5B83 JUMP JUMPDEST PUSH2 0x2D7A SWAP2 SWAP1 PUSH2 0x5B9A JUMP JUMPDEST PUSH2 0x2D84 SWAP2 SWAP1 PUSH2 0x5BD9 JUMP JUMPDEST PUSH2 0x2D8E SWAP2 SWAP1 PUSH2 0x5B9A JUMP JUMPDEST SWAP1 POP PUSH2 0x2DB3 DUP4 DUP7 DUP11 PUSH1 0x0 DUP11 DUP8 DUP11 PUSH1 0xCB PUSH1 0x2 SWAP1 SLOAD SWAP1 PUSH2 0x100 EXP SWAP1 DIV PUSH1 0xFF AND PUSH1 0xFF AND PUSH2 0x3F6B JUMP JUMPDEST PUSH1 0xD5 SLOAD PUSH1 0xFF AND ISZERO PUSH2 0x2F0F JUMPI PUSH1 0xC9 SLOAD PUSH1 0x40 DUP1 MLOAD PUSH4 0x44846F9D PUSH1 0xE1 SHL DUP2 MSTORE SWAP1 MLOAD PUSH1 0x0 SWAP3 PUSH1 0x1 PUSH1 0x1 PUSH1 0xA0 SHL SUB AND SWAP2 PUSH4 0x8908DF3A SWAP2 PUSH1 0x4 DUP1 DUP4 ADD SWAP3 PUSH1 0x20 SWAP3 SWAP2 SWAP1 DUP3 SWAP1 SUB ADD DUP2 DUP7 GAS STATICCALL ISZERO DUP1 ISZERO PUSH2 0x2E08 JUMPI RETURNDATASIZE PUSH1 0x0 DUP1 RETURNDATACOPY RETURNDATASIZE PUSH1 0x0 REVERT JUMPDEST POP POP POP POP PUSH1 0x40 MLOAD RETURNDATASIZE PUSH1 0x1F NOT PUSH1 0x1F DUP3 ADD AND DUP3 ADD DUP1 PUSH1 0x40 MSTORE POP DUP2 ADD SWAP1 PUSH2 0x2E2C SWAP2 SWAP1 PUSH2 0x5BBC JUMP JUMPDEST PUSH1 0x1 PUSH1 0x1 PUSH1 0xA0 SHL SUB AND PUSH4 0xD275F14E DUP11 PUSH2 0x2E45 DUP6 DUP12 PUSH2 0x5DBE JUMP JUMPDEST PUSH1 0x40 MLOAD PUSH1 0x1 PUSH1 0x1 PUSH1 0xE0 SHL SUB NOT PUSH1 0xE0 DUP6 SWAP1 SHL AND DUP2 MSTORE PUSH4 0xFFFFFFFF SWAP3 SWAP1 SWAP3 AND PUSH1 0x4 DUP4 ADD MSTORE PUSH1 0x24 DUP3 ADD MSTORE PUSH1 0x44 DUP2 ADD DUP9 SWAP1 MSTORE PUSH1 0x64 DUP2 ADD DUP9 SWAP1 MSTORE PUSH4 0x20F5800 PUSH1 0x84 DUP3 ADD MSTORE PUSH1 0xA4 ADD PUSH1 0x20 PUSH1 0x40 MLOAD DUP1 DUP4 SUB DUP2 PUSH1 0x0 DUP8 GAS CALL ISZERO DUP1 ISZERO PUSH2 0x2EA6 JUMPI RETURNDATASIZE PUSH1 0x0 DUP1 RETURNDATACOPY RETURNDATASIZE PUSH1 0x0 REVERT JUMPDEST POP POP POP POP PUSH1 0x40 MLOAD RETURNDATASIZE PUSH1 0x1F NOT PUSH1 0x1F DUP3 ADD AND DUP3 ADD DUP1 PUSH1 0x40 MSTORE POP DUP2 ADD SWAP1 PUSH2 0x2ECA SWAP2 SWAP1 PUSH2 0x5DF5 JUMP JUMPDEST PUSH1 0x18 DUP6 ADD DUP1 SLOAD PUSH1 0x1 DUP2 ADD DUP3 SSTORE PUSH1 0x0 SWAP2 DUP3 MSTORE PUSH1 0x20 SWAP1 SWAP2 KECCAK256 PUSH1 0x8 DUP3 DIV ADD DUP1 SLOAD PUSH1 0x7 SWAP1 SWAP3 AND PUSH1 0x4 MUL PUSH2 0x100 EXP PUSH4 0xFFFFFFFF DUP2 DUP2 MUL NOT SWAP1 SWAP4 AND SWAP4 SWAP1 SWAP3 AND SWAP2 SWAP1 SWAP2 MUL SWAP2 SWAP1 SWAP2 OR SWAP1 SSTORE POP JUMPDEST POP POP POP POP POP POP POP POP JUMP JUMPDEST PUSH2 0x2F21 PUSH2 0x348D JUMP JUMPDEST PUSH1 0xCB DUP1 SLOAD PUSH2 0xFFFF NOT AND PUSH2 0xFFFF SWAP3 SWAP1 SWAP3 AND SWAP2 SWAP1 SWAP2 OR SWAP1 SSTORE JUMP JUMPDEST CALLVALUE PUSH1 0x0 PUSH2 0x2F45 DUP3 PUSH2 0x4399 JUMP JUMPDEST SWAP1 POP PUSH1 0xCC SLOAD DUP2 LT ISZERO PUSH2 0x2F99 JUMPI PUSH1 0x40 MLOAD PUSH3 0x461BCD PUSH1 0xE5 SHL DUP2 MSTORE PUSH1 0x20 PUSH1 0x4 DUP3 ADD MSTORE PUSH1 0x1F PUSH1 0x24 DUP3 ADD MSTORE PUSH32 0x56616C7565206C657373207468656E206D696E436F6E747269627574696F6E00 PUSH1 0x44 DUP3 ADD MSTORE PUSH1 0x64 ADD PUSH2 0x1151 JUMP JUMPDEST PUSH1 0xCF SLOAD CALLER SWAP1 TIMESTAMP SWAP1 PUSH1 0x0 SWAP1 PUSH2 0x2FB4 SWAP1 PUSH4 0xFFFFFFFF AND PUSH1 0x1 PUSH2 0x5DD1 JUMP JUMPDEST PUSH1 0x1 PUSH1 0x1 PUSH1 0xA0 SHL SUB DUP5 AND PUSH1 0x0 SWAP1 DUP2 MSTORE PUSH1 0xD6 PUSH1 0x20 SWAP1 DUP2 MSTORE PUSH1 0x40 DUP1 DUP4 KECCAK256 PUSH4 0xFFFFFFFF DUP6 AND DUP5 MSTORE PUSH1 0xD7 SWAP1 SWAP3 MSTORE SWAP1 SWAP2 KECCAK256 SWAP2 SWAP3 POP SWAP1 PUSH2 0x300A DUP2 DUP7 DUP6 DUP12 DUP11 PUSH2 0x2FF7 DUP2 PUSH1 0x3 PUSH2 0x5B83 JUMP JUMPDEST PUSH1 0xCB SLOAD DUP12 SWAP1 PUSH3 0x10000 SWAP1 DIV PUSH1 0xFF AND PUSH2 0x3F6B JUMP JUMPDEST PUSH1 0xD5 SLOAD PUSH1 0xFF AND ISZERO PUSH2 0x3159 JUMPI PUSH1 0xC9 SLOAD PUSH1 0x40 DUP1 MLOAD PUSH4 0x44846F9D PUSH1 0xE1 SHL DUP2 MSTORE SWAP1 MLOAD PUSH1 0x0 SWAP3 PUSH1 0x1 PUSH1 0x1 PUSH1 0xA0 SHL SUB AND SWAP2 PUSH4 0x8908DF3A SWAP2 PUSH1 0x4 DUP1 DUP4 ADD SWAP3 PUSH1 0x20 SWAP3 SWAP2 SWAP1 DUP3 SWAP1 SUB ADD DUP2 DUP7 GAS STATICCALL ISZERO DUP1 ISZERO PUSH2 0x305F JUMPI RETURNDATASIZE PUSH1 0x0 DUP1 RETURNDATACOPY RETURNDATASIZE PUSH1 0x0 REVERT JUMPDEST POP POP POP POP PUSH1 0x40 MLOAD RETURNDATASIZE PUSH1 0x1F NOT PUSH1 0x1F DUP3 ADD AND DUP3 ADD DUP1 PUSH1 0x40 MSTORE POP DUP2 ADD SWAP1 PUSH2 0x3083 SWAP2 SWAP1 PUSH2 0x5BBC JUMP JUMPDEST PUSH1 0x40 MLOAD PUSH4 0x693AF8A7 PUSH1 0xE1 SHL DUP2 MSTORE PUSH4 0xFFFFFFFF DUP7 AND PUSH1 0x4 DUP3 ADD MSTORE PUSH1 0x24 DUP2 ADD DUP10 SWAP1 MSTORE PUSH1 0x44 DUP2 ADD DUP8 SWAP1 MSTORE PUSH1 0x64 DUP2 ADD DUP8 SWAP1 MSTORE PUSH4 0x20F5800 PUSH1 0x84 DUP3 ADD MSTORE PUSH1 0x1 PUSH1 0x1 PUSH1 0xA0 SHL SUB SWAP2 SWAP1 SWAP2 AND SWAP1 PUSH4 0xD275F14E SWAP1 PUSH1 0xA4 ADD PUSH1 0x20 PUSH1 0x40 MLOAD DUP1 DUP4 SUB DUP2 PUSH1 0x0 DUP8 GAS CALL ISZERO DUP1 ISZERO PUSH2 0x30F0 JUMPI RETURNDATASIZE PUSH1 0x0 DUP1 RETURNDATACOPY RETURNDATASIZE PUSH1 0x0 REVERT JUMPDEST POP POP POP POP PUSH1 0x40 MLOAD RETURNDATASIZE PUSH1 0x1F NOT PUSH1 0x1F DUP3 ADD AND DUP3 ADD DUP1 PUSH1 0x40 MSTORE POP DUP2 ADD SWAP1 PUSH2 0x3114 SWAP2 SWAP1 PUSH2 0x5DF5 JUMP JUMPDEST PUSH1 0x18 DUP4 ADD DUP1 SLOAD PUSH1 0x1 DUP2 ADD DUP3 SSTORE PUSH1 0x0 SWAP2 DUP3 MSTORE PUSH1 0x20 SWAP1 SWAP2 KECCAK256 PUSH1 0x8 DUP3 DIV ADD DUP1 SLOAD PUSH1 0x7 SWAP1 SWAP3 AND PUSH1 0x4 MUL PUSH2 0x100 EXP PUSH4 0xFFFFFFFF DUP2 DUP2 MUL NOT SWAP1 SWAP4 AND SWAP4 SWAP1 SWAP3 AND SWAP2 SWAP1 SWAP2 MUL SWAP2 SWAP1 SWAP2 OR SWAP1 SSTORE POP JUMPDEST PUSH1 0x1 DUP3 DUP2 ADD DUP1 SLOAD SWAP2 DUP3 ADD DUP2 SSTORE PUSH1 0x0 SWAP1 DUP2 MSTORE PUSH1 0x20 DUP2 KECCAK256 PUSH1 0x8 DUP4 DIV ADD DUP1 SLOAD PUSH1 0x7 SWAP1 SWAP4 AND PUSH1 0x4 MUL PUSH2 0x100 EXP PUSH4 0xFFFFFFFF DUP2 DUP2 MUL NOT SWAP1 SWAP5 AND DUP8 DUP6 AND SWAP2 SWAP1 SWAP2 MUL OR SWAP1 SSTORE PUSH1 0xCF DUP1 SLOAD SWAP1 SWAP3 AND SWAP2 SWAP1 PUSH2 0x31A9 DUP4 PUSH2 0x5E12 JUMP JUMPDEST SWAP2 SWAP1 PUSH2 0x100 EXP DUP2 SLOAD DUP2 PUSH4 0xFFFFFFFF MUL NOT AND SWAP1 DUP4 PUSH4 0xFFFFFFFF AND MUL OR SWAP1 SSTORE POP POP POP POP POP POP POP POP POP POP JUMP JUMPDEST PUSH2 0x31DA PUSH2 0x348D JUMP JUMPDEST PUSH2 0xA4C PUSH1 0xCA DUP4 DUP4 PUSH2 0x518D JUMP JUMPDEST PUSH2 0x31EE PUSH2 0x348D JUMP JUMPDEST PUSH1 0x1 PUSH1 0x1 PUSH1 0xA0 SHL SUB DUP2 AND PUSH2 0x3253 JUMPI PUSH1 0x40 MLOAD PUSH3 0x461BCD PUSH1 0xE5 SHL DUP2 MSTORE PUSH1 0x20 PUSH1 0x4 DUP3 ADD MSTORE PUSH1 0x26 PUSH1 0x24 DUP3 ADD MSTORE PUSH32 0x4F776E61626C653A206E6577206F776E657220697320746865207A65726F2061 PUSH1 0x44 DUP3 ADD MSTORE PUSH6 0x646472657373 PUSH1 0xD0 SHL PUSH1 0x64 DUP3 ADD MSTORE PUSH1 0x84 ADD PUSH2 0x1151 JUMP JUMPDEST PUSH2 0x13C2 DUP2 PUSH2 0x3F19 JUMP JUMPDEST PUSH1 0xC9 SLOAD PUSH1 0x40 MLOAD PUSH4 0x935E01B PUSH1 0xE2 SHL DUP2 MSTORE CALLER PUSH1 0x4 DUP3 ADD MSTORE PUSH1 0x1 PUSH1 0x1 PUSH1 0xA0 SHL SUB SWAP1 SWAP2 AND SWAP1 PUSH4 0x24D7806C SWAP1 PUSH1 0x24 ADD PUSH1 0x20 PUSH1 0x40 MLOAD DUP1 DUP4 SUB DUP2 DUP7 GAS STATICCALL ISZERO DUP1 ISZERO PUSH2 0x32A4 JUMPI RETURNDATASIZE PUSH1 0x0 DUP1 RETURNDATACOPY RETURNDATASIZE PUSH1 0x0 REVERT JUMPDEST POP POP POP POP PUSH1 0x40 MLOAD RETURNDATASIZE PUSH1 0x1F NOT PUSH1 0x1F DUP3 ADD AND DUP3 ADD DUP1 PUSH1 0x40 MSTORE POP DUP2 ADD SWAP1 PUSH2 0x32C8 SWAP2 SWAP1 PUSH2 0x5B50 JUMP JUMPDEST PUSH2 0x32E4 JUMPI PUSH1 0x40 MLOAD PUSH3 0x461BCD PUSH1 0xE5 SHL DUP2 MSTORE PUSH1 0x4 ADD PUSH2 0x1151 SWAP1 PUSH2 0x5C84 JUMP JUMPDEST PUSH2 0x32F6 DUP2 PUSH8 0xDE0B6B3A7640000 PUSH2 0x5B83 JUMP JUMPDEST PUSH4 0xFFFFFFFF DUP4 AND PUSH1 0x0 SWAP1 DUP2 MSTORE PUSH1 0xD7 PUSH1 0x20 MSTORE PUSH1 0x40 DUP2 KECCAK256 PUSH1 0x1B ADD DUP1 SLOAD SWAP1 SWAP2 SWAP1 PUSH2 0x331E SWAP1 DUP5 SWAP1 PUSH2 0x5DBE JUMP JUMPDEST SWAP1 SWAP2 SSTORE POP POP POP POP JUMP JUMPDEST PUSH2 0x334D PUSH1 0x40 MLOAD DUP1 PUSH1 0x60 ADD PUSH1 0x40 MSTORE DUP1 PUSH1 0x0 ISZERO ISZERO DUP2 MSTORE PUSH1 0x20 ADD PUSH1 0x60 DUP2 MSTORE PUSH1 0x20 ADD PUSH1 0x60 DUP2 MSTORE POP SWAP1 JUMP JUMPDEST PUSH1 0x1 PUSH1 0x1 PUSH1 0xA0 SHL SUB DUP3 AND PUSH1 0x0 SWAP1 DUP2 MSTORE PUSH1 0xD6 PUSH1 0x20 SWAP1 DUP2 MSTORE PUSH1 0x40 SWAP2 DUP3 SWAP1 KECCAK256 DUP3 MLOAD PUSH1 0x60 DUP2 ADD DUP5 MSTORE DUP2 SLOAD PUSH1 0xFF AND ISZERO ISZERO DUP2 MSTORE PUSH1 0x1 DUP3 ADD DUP1 SLOAD DUP6 MLOAD DUP2 DUP7 MUL DUP2 ADD DUP7 ADD SWAP1 SWAP7 MSTORE DUP1 DUP7 MSTORE SWAP2 SWAP5 SWAP3 SWAP4 DUP6 DUP2 ADD SWAP4 SWAP3 SWAP1 DUP4 ADD DUP3 DUP3 DUP1 ISZERO PUSH2 0x33F4 JUMPI PUSH1 0x20 MUL DUP3 ADD SWAP2 SWAP1 PUSH1 0x0 MSTORE PUSH1 0x20 PUSH1 0x0 KECCAK256 SWAP1 PUSH1 0x0 SWAP1 JUMPDEST DUP3 DUP3 SWAP1 SLOAD SWAP1 PUSH2 0x100 EXP SWAP1 DIV PUSH4 0xFFFFFFFF AND PUSH4 0xFFFFFFFF AND DUP2 MSTORE PUSH1 0x20 ADD SWAP1 PUSH1 0x4 ADD SWAP1 PUSH1 0x20 DUP3 PUSH1 0x3 ADD DIV SWAP3 DUP4 ADD SWAP3 PUSH1 0x1 SUB DUP3 MUL SWAP2 POP DUP1 DUP5 GT PUSH2 0x33B7 JUMPI SWAP1 POP JUMPDEST POP POP POP POP POP DUP2 MSTORE PUSH1 0x20 ADD PUSH1 0x2 DUP3 ADD DUP1 SLOAD PUSH2 0x340D SWAP1 PUSH2 0x5B16 JUMP JUMPDEST DUP1 PUSH1 0x1F ADD PUSH1 0x20 DUP1 SWAP2 DIV MUL PUSH1 0x20 ADD PUSH1 0x40 MLOAD SWAP1 DUP2 ADD PUSH1 0x40 MSTORE DUP1 SWAP3 SWAP2 SWAP1 DUP2 DUP2 MSTORE PUSH1 0x20 ADD DUP3 DUP1 SLOAD PUSH2 0x3439 SWAP1 PUSH2 0x5B16 JUMP JUMPDEST DUP1 ISZERO PUSH2 0x2129 JUMPI DUP1 PUSH1 0x1F LT PUSH2 0x345B JUMPI PUSH2 0x100 DUP1 DUP4 SLOAD DIV MUL DUP4 MSTORE SWAP2 PUSH1 0x20 ADD SWAP2 PUSH2 0x2129 JUMP JUMPDEST DUP3 ADD SWAP2 SWAP1 PUSH1 0x0 MSTORE PUSH1 0x20 PUSH1 0x0 KECCAK256 SWAP1 JUMPDEST DUP2 SLOAD DUP2 MSTORE SWAP1 PUSH1 0x1 ADD SWAP1 PUSH1 0x20 ADD DUP1 DUP4 GT PUSH2 0x3469 JUMPI POP POP POP SWAP2 SWAP1 SWAP3 MSTORE POP SWAP2 SWAP5 SWAP4 POP POP POP POP JUMP JUMPDEST PUSH1 0x33 SLOAD PUSH1 0x1 PUSH1 0x1 PUSH1 0xA0 SHL SUB AND CALLER EQ PUSH2 0x1F00 JUMPI PUSH1 0x40 MLOAD PUSH3 0x461BCD PUSH1 0xE5 SHL DUP2 MSTORE PUSH1 0x20 PUSH1 0x4 DUP3 ADD DUP2 SWAP1 MSTORE PUSH1 0x24 DUP3 ADD MSTORE PUSH32 0x4F776E61626C653A2063616C6C6572206973206E6F7420746865206F776E6572 PUSH1 0x44 DUP3 ADD MSTORE PUSH1 0x64 ADD PUSH2 0x1151 JUMP JUMPDEST PUSH1 0x0 DUP1 PUSH1 0xC9 PUSH1 0x0 SWAP1 SLOAD SWAP1 PUSH2 0x100 EXP SWAP1 DIV PUSH1 0x1 PUSH1 0x1 PUSH1 0xA0 SHL SUB AND PUSH1 0x1 PUSH1 0x1 PUSH1 0xA0 SHL SUB AND PUSH4 0x2913497B PUSH1 0x40 MLOAD DUP2 PUSH4 0xFFFFFFFF AND PUSH1 0xE0 SHL DUP2 MSTORE PUSH1 0x4 ADD PUSH1 0x20 PUSH1 0x40 MLOAD DUP1 DUP4 SUB DUP2 DUP7 GAS STATICCALL ISZERO DUP1 ISZERO PUSH2 0x353D JUMPI RETURNDATASIZE PUSH1 0x0 DUP1 RETURNDATACOPY RETURNDATASIZE PUSH1 0x0 REVERT JUMPDEST POP POP POP POP PUSH1 0x40 MLOAD RETURNDATASIZE PUSH1 0x1F NOT PUSH1 0x1F DUP3 ADD AND DUP3 ADD DUP1 PUSH1 0x40 MSTORE POP DUP2 ADD SWAP1 PUSH2 0x3561 SWAP2 SWAP1 PUSH2 0x5BBC JUMP JUMPDEST PUSH1 0x1 PUSH1 0x1 PUSH1 0xA0 SHL SUB AND PUSH4 0xE1AA6036 PUSH1 0x40 MLOAD DUP2 PUSH4 0xFFFFFFFF AND PUSH1 0xE0 SHL DUP2 MSTORE PUSH1 0x4 ADD PUSH1 0x20 PUSH1 0x40 MLOAD DUP1 DUP4 SUB DUP2 DUP7 GAS STATICCALL ISZERO DUP1 ISZERO PUSH2 0x359E JUMPI RETURNDATASIZE PUSH1 0x0 DUP1 RETURNDATACOPY RETURNDATASIZE PUSH1 0x0 REVERT JUMPDEST POP POP POP POP PUSH1 0x40 MLOAD RETURNDATASIZE PUSH1 0x1F NOT PUSH1 0x1F DUP3 ADD AND DUP3 ADD DUP1 PUSH1 0x40 MSTORE POP DUP2 ADD SWAP1 PUSH2 0x35C2 SWAP2 SWAP1 PUSH2 0x5E35 JUMP JUMPDEST PUSH2 0x35D4 DUP5 PUSH8 0xDE0B6B3A7640000 PUSH2 0x5B83 JUMP JUMPDEST PUSH2 0x35DE SWAP2 SWAP1 PUSH2 0x5B9A JUMP JUMPDEST SWAP4 SWAP3 POP POP POP JUMP JUMPDEST PUSH2 0x13C2 PUSH2 0x348D JUMP JUMPDEST PUSH32 0x4910FDFA16FED3260ED0E7147F7CC6DA11A60208B5B9406D12A635614FFD9143 SLOAD PUSH1 0xFF AND ISZERO PUSH2 0x3620 JUMPI PUSH2 0xA4C DUP4 PUSH2 0x4487 JUMP JUMPDEST DUP3 PUSH1 0x1 PUSH1 0x1 PUSH1 0xA0 SHL SUB AND PUSH4 0x52D1902D PUSH1 0x40 MLOAD DUP2 PUSH4 0xFFFFFFFF AND PUSH1 0xE0 SHL DUP2 MSTORE PUSH1 0x4 ADD PUSH1 0x20 PUSH1 0x40 MLOAD DUP1 DUP4 SUB DUP2 DUP7 GAS STATICCALL SWAP3 POP POP POP DUP1 ISZERO PUSH2 0x367A JUMPI POP PUSH1 0x40 DUP1 MLOAD PUSH1 0x1F RETURNDATASIZE SWAP1 DUP2 ADD PUSH1 0x1F NOT AND DUP3 ADD SWAP1 SWAP3 MSTORE PUSH2 0x3677 SWAP2 DUP2 ADD SWAP1 PUSH2 0x5E35 JUMP JUMPDEST PUSH1 0x1 JUMPDEST PUSH2 0x36DD JUMPI PUSH1 0x40 MLOAD PUSH3 0x461BCD PUSH1 0xE5 SHL DUP2 MSTORE PUSH1 0x20 PUSH1 0x4 DUP3 ADD MSTORE PUSH1 0x2E PUSH1 0x24 DUP3 ADD MSTORE PUSH32 0x45524331393637557067726164653A206E657720696D706C656D656E74617469 PUSH1 0x44 DUP3 ADD MSTORE PUSH14 0x6F6E206973206E6F742055555053 PUSH1 0x90 SHL PUSH1 0x64 DUP3 ADD MSTORE PUSH1 0x84 ADD PUSH2 0x1151 JUMP JUMPDEST PUSH1 0x0 DUP1 MLOAD PUSH1 0x20 PUSH2 0x5F17 DUP4 CODECOPY DUP2 MLOAD SWAP2 MSTORE DUP2 EQ PUSH2 0x374C JUMPI PUSH1 0x40 MLOAD PUSH3 0x461BCD PUSH1 0xE5 SHL DUP2 MSTORE PUSH1 0x20 PUSH1 0x4 DUP3 ADD MSTORE PUSH1 0x29 PUSH1 0x24 DUP3 ADD MSTORE PUSH32 0x45524331393637557067726164653A20756E737570706F727465642070726F78 PUSH1 0x44 DUP3 ADD MSTORE PUSH9 0x1A58589B1955555251 PUSH1 0xBA SHL PUSH1 0x64 DUP3 ADD MSTORE PUSH1 0x84 ADD PUSH2 0x1151 JUMP JUMPDEST POP PUSH2 0xA4C DUP4 DUP4 DUP4 PUSH2 0x4523 JUMP JUMPDEST PUSH1 0x0 PUSH1 0xCA DUP1 SLOAD DUP1 PUSH1 0x20 MUL PUSH1 0x20 ADD PUSH1 0x40 MLOAD SWAP1 DUP2 ADD PUSH1 0x40 MSTORE DUP1 SWAP3 SWAP2 SWAP1 DUP2 DUP2 MSTORE PUSH1 0x20 ADD DUP3 DUP1 SLOAD DUP1 ISZERO PUSH2 0x37CE JUMPI PUSH1 0x20 MUL DUP3 ADD SWAP2 SWAP1 PUSH1 0x0 MSTORE PUSH1 0x20 PUSH1 0x0 KECCAK256 SWAP1 PUSH1 0x0 SWAP1 JUMPDEST DUP3 DUP3 SWAP1 SLOAD SWAP1 PUSH2 0x100 EXP SWAP1 DIV PUSH2 0xFFFF AND PUSH2 0xFFFF AND DUP2 MSTORE PUSH1 0x20 ADD SWAP1 PUSH1 0x2 ADD SWAP1 PUSH1 0x20 DUP3 PUSH1 0x1 ADD DIV SWAP3 DUP4 ADD SWAP3 PUSH1 0x1 SUB DUP3 MUL SWAP2 POP DUP1 DUP5 GT PUSH2 0x3795 JUMPI SWAP1 POP JUMPDEST POP POP DUP4 MLOAD PUSH4 0xFFFFFFFF DUP8 AND PUSH1 0x0 SWAP1 DUP2 MSTORE PUSH1 0xD7 PUSH1 0x20 MSTORE PUSH1 0x40 DUP2 KECCAK256 SWAP6 SWAP7 POP SWAP1 SWAP5 SWAP4 POP SWAP2 POP DUP2 SWAP1 POP JUMPDEST DUP4 PUSH1 0xFF AND DUP2 PUSH1 0xFF AND LT ISZERO PUSH2 0x3E6F JUMPI PUSH1 0x3 DUP4 ADD SLOAD PUSH4 0xFFFFFFFF PUSH1 0x1 PUSH1 0xA8 SHL SWAP1 SWAP2 DIV DUP2 AND PUSH1 0x0 DUP2 DUP2 MSTORE PUSH1 0xD7 PUSH1 0x20 MSTORE PUSH1 0x40 DUP2 KECCAK256 DUP1 SLOAD SWAP3 SWAP4 SWAP1 SWAP3 AND SWAP1 SUB PUSH2 0x3838 JUMPI POP POP PUSH2 0x3E6F JUMP JUMPDEST PUSH2 0x3841 DUP2 PUSH2 0x454E JUMP JUMPDEST ISZERO PUSH2 0x38B9 JUMPI PUSH1 0x40 MLOAD PUSH19 0x149959995C995C881A5CC8111A5CD8589B1959 PUSH1 0x6A SHL DUP2 MSTORE PUSH1 0x13 ADD JUMPDEST PUSH1 0x40 MLOAD SWAP1 DUP2 SWAP1 SUB SWAP1 KECCAK256 PUSH2 0x387A DUP5 PUSH1 0x1 PUSH2 0x5E4E JUMP JUMPDEST PUSH1 0xFF AND DUP4 PUSH4 0xFFFFFFFF AND PUSH32 0x915ED47901013AD29E90EDE828F72888F54BD58CEA141B0C6967498165382EB5 PUSH1 0x40 MLOAD PUSH1 0x40 MLOAD DUP1 SWAP2 SUB SWAP1 LOG4 SWAP4 POP PUSH2 0x3E5D SWAP1 POP JUMP JUMPDEST PUSH1 0x40 DUP1 MLOAD PUSH2 0x480 DUP2 ADD SWAP1 SWAP2 MSTORE DUP2 SLOAD PUSH4 0xFFFFFFFF AND DUP2 MSTORE PUSH1 0x1 DUP3 ADD DUP1 SLOAD PUSH2 0x3D54 SWAP3 SWAP2 DUP5 SWAP2 PUSH1 0x20 DUP5 ADD SWAP2 SWAP1 PUSH2 0x38EB SWAP1 PUSH2 0x5B16 JUMP JUMPDEST DUP1 PUSH1 0x1F ADD PUSH1 0x20 DUP1 SWAP2 DIV MUL PUSH1 0x20 ADD PUSH1 0x40 MLOAD SWAP1 DUP2 ADD PUSH1 0x40 MSTORE DUP1 SWAP3 SWAP2 SWAP1 DUP2 DUP2 MSTORE PUSH1 0x20 ADD DUP3 DUP1 SLOAD PUSH2 0x3917 SWAP1 PUSH2 0x5B16 JUMP JUMPDEST DUP1 ISZERO PUSH2 0x3964 JUMPI DUP1 PUSH1 0x1F LT PUSH2 0x3939 JUMPI PUSH2 0x100 DUP1 DUP4 SLOAD DIV MUL DUP4 MSTORE SWAP2 PUSH1 0x20 ADD SWAP2 PUSH2 0x3964 JUMP JUMPDEST DUP3 ADD SWAP2 SWAP1 PUSH1 0x0 MSTORE PUSH1 0x20 PUSH1 0x0 KECCAK256 SWAP1 JUMPDEST DUP2 SLOAD DUP2 MSTORE SWAP1 PUSH1 0x1 ADD SWAP1 PUSH1 0x20 ADD DUP1 DUP4 GT PUSH2 0x3947 JUMPI DUP3 SWAP1 SUB PUSH1 0x1F AND DUP3 ADD SWAP2 JUMPDEST POP POP POP SWAP2 DUP4 MSTORE POP POP PUSH1 0x2 DUP3 ADD SLOAD PUSH1 0x20 DUP1 DUP4 ADD SWAP2 SWAP1 SWAP2 MSTORE PUSH1 0x3 DUP4 ADD SLOAD PUSH1 0xFF DUP1 DUP3 AND ISZERO ISZERO PUSH1 0x40 DUP1 DUP7 ADD SWAP2 SWAP1 SWAP2 MSTORE PUSH1 0x1 PUSH1 0x1 PUSH1 0xA0 SHL SUB PUSH2 0x100 DUP5 DIV AND PUSH1 0x60 DUP7 ADD MSTORE PUSH4 0xFFFFFFFF PUSH1 0x1 PUSH1 0xA8 SHL DUP5 DIV AND PUSH1 0x80 DUP7 ADD MSTORE PUSH1 0x1 PUSH1 0xC8 SHL SWAP1 SWAP3 DIV AND ISZERO ISZERO PUSH1 0xA0 DUP5 ADD MSTORE PUSH1 0x4 DUP5 ADD DUP1 SLOAD DUP3 MLOAD DUP2 DUP6 MUL DUP2 ADD DUP6 ADD SWAP1 SWAP4 MSTORE DUP1 DUP4 MSTORE PUSH1 0xC0 SWAP1 SWAP5 ADD SWAP4 SWAP2 SWAP3 SWAP1 SWAP2 SWAP1 DUP4 ADD DUP3 DUP3 DUP1 ISZERO PUSH2 0x3A3F JUMPI PUSH1 0x20 MUL DUP3 ADD SWAP2 SWAP1 PUSH1 0x0 MSTORE PUSH1 0x20 PUSH1 0x0 KECCAK256 SWAP1 PUSH1 0x0 SWAP1 JUMPDEST DUP3 DUP3 SWAP1 SLOAD SWAP1 PUSH2 0x100 EXP SWAP1 DIV PUSH4 0xFFFFFFFF AND PUSH4 0xFFFFFFFF AND DUP2 MSTORE PUSH1 0x20 ADD SWAP1 PUSH1 0x4 ADD SWAP1 PUSH1 0x20 DUP3 PUSH1 0x3 ADD DIV SWAP3 DUP4 ADD SWAP3 PUSH1 0x1 SUB DUP3 MUL SWAP2 POP DUP1 DUP5 GT PUSH2 0x3A02 JUMPI SWAP1 POP JUMPDEST POP POP POP POP POP DUP2 MSTORE PUSH1 0x20 ADD PUSH1 0x5 DUP3 ADD DUP1 SLOAD DUP1 PUSH1 0x20 MUL PUSH1 0x20 ADD PUSH1 0x40 MLOAD SWAP1 DUP2 ADD PUSH1 0x40 MSTORE DUP1 SWAP3 SWAP2 SWAP1 DUP2 DUP2 MSTORE PUSH1 0x20 ADD DUP3 DUP1 SLOAD DUP1 ISZERO PUSH2 0x3AC3 JUMPI PUSH1 0x20 MUL DUP3 ADD SWAP2 SWAP1 PUSH1 0x0 MSTORE PUSH1 0x20 PUSH1 0x0 KECCAK256 SWAP1 PUSH1 0x0 SWAP1 JUMPDEST DUP3 DUP3 SWAP1 SLOAD SWAP1 PUSH2 0x100 EXP SWAP1 DIV PUSH4 0xFFFFFFFF AND PUSH4 0xFFFFFFFF AND DUP2 MSTORE PUSH1 0x20 ADD SWAP1 PUSH1 0x4 ADD SWAP1 PUSH1 0x20 DUP3 PUSH1 0x3 ADD DIV SWAP3 DUP4 ADD SWAP3 PUSH1 0x1 SUB DUP3 MUL SWAP2 POP DUP1 DUP5 GT PUSH2 0x3A86 JUMPI SWAP1 POP JUMPDEST POP POP POP POP POP DUP2 MSTORE PUSH1 0x20 ADD PUSH1 0x6 DUP3 ADD DUP1 SLOAD DUP1 PUSH1 0x20 MUL PUSH1 0x20 ADD PUSH1 0x40 MLOAD SWAP1 DUP2 ADD PUSH1 0x40 MSTORE DUP1 SWAP3 SWAP2 SWAP1 DUP2 DUP2 MSTORE PUSH1 0x20 ADD DUP3 DUP1 SLOAD DUP1 ISZERO PUSH2 0x3B47 JUMPI PUSH1 0x20 MUL DUP3 ADD SWAP2 SWAP1 PUSH1 0x0 MSTORE PUSH1 0x20 PUSH1 0x0 KECCAK256 SWAP1 PUSH1 0x0 SWAP1 JUMPDEST DUP3 DUP3 SWAP1 SLOAD SWAP1 PUSH2 0x100 EXP SWAP1 DIV PUSH4 0xFFFFFFFF AND PUSH4 0xFFFFFFFF AND DUP2 MSTORE PUSH1 0x20 ADD SWAP1 PUSH1 0x4 ADD SWAP1 PUSH1 0x20 DUP3 PUSH1 0x3 ADD DIV SWAP3 DUP4 ADD SWAP3 PUSH1 0x1 SUB DUP3 MUL SWAP2 POP DUP1 DUP5 GT PUSH2 0x3B0A JUMPI SWAP1 POP JUMPDEST POP POP POP POP POP DUP2 MSTORE PUSH1 0x20 ADD PUSH1 0x7 DUP3 ADD DUP1 SLOAD DUP1 PUSH1 0x20 MUL PUSH1 0x20 ADD PUSH1 0x40 MLOAD SWAP1 DUP2 ADD PUSH1 0x40 MSTORE DUP1 SWAP3 SWAP2 SWAP1 DUP2 DUP2 MSTORE PUSH1 0x20 ADD DUP3 DUP1 SLOAD DUP1 ISZERO PUSH2 0x3B9F JUMPI PUSH1 0x20 MUL DUP3 ADD SWAP2 SWAP1 PUSH1 0x0 MSTORE PUSH1 0x20 PUSH1 0x0 KECCAK256 SWAP1 JUMPDEST DUP2 SLOAD DUP2 MSTORE PUSH1 0x20 ADD SWAP1 PUSH1 0x1 ADD SWAP1 DUP1 DUP4 GT PUSH2 0x3B8B JUMPI JUMPDEST POP POP POP SWAP2 DUP4 MSTORE POP POP PUSH1 0x8 DUP3 ADD SLOAD PUSH1 0x20 DUP1 DUP4 ADD SWAP2 SWAP1 SWAP2 MSTORE PUSH1 0x9 DUP4 ADD SLOAD PUSH1 0x40 DUP1 DUP5 ADD SWAP2 SWAP1 SWAP2 MSTORE PUSH1 0xA DUP5 ADD SLOAD PUSH1 0x60 DUP5 ADD MSTORE PUSH1 0xB DUP5 ADD SLOAD PUSH1 0x80 DUP5 ADD MSTORE PUSH1 0xC DUP5 ADD SLOAD PUSH1 0xA0 DUP5 ADD MSTORE PUSH1 0xD DUP5 ADD SLOAD PUSH1 0xC0 DUP5 ADD MSTORE PUSH1 0xE DUP5 ADD SLOAD PUSH1 0xE0 DUP5 ADD MSTORE PUSH1 0xF DUP5 ADD SLOAD PUSH2 0x100 DUP1 DUP6 ADD SWAP2 SWAP1 SWAP2 MSTORE PUSH1 0x10 DUP6 ADD SLOAD PUSH1 0xFF DUP2 AND PUSH2 0x120 DUP7 ADD MSTORE DIV PUSH4 0xFFFFFFFF AND PUSH2 0x140 DUP5 ADD MSTORE PUSH1 0x11 DUP5 ADD SLOAD PUSH2 0x160 DUP5 ADD MSTORE PUSH1 0x12 DUP5 ADD SLOAD PUSH2 0x180 DUP5 ADD MSTORE PUSH1 0x13 DUP5 ADD SLOAD PUSH2 0x1A0 DUP5 ADD MSTORE PUSH1 0x14 DUP5 ADD SLOAD PUSH2 0x1C0 DUP5 ADD MSTORE PUSH1 0x15 DUP5 ADD SLOAD PUSH2 0x1E0 DUP5 ADD MSTORE PUSH1 0x16 DUP5 ADD SLOAD PUSH2 0x200 DUP5 ADD MSTORE PUSH1 0x17 DUP5 ADD SLOAD PUSH2 0x220 DUP5 ADD MSTORE PUSH1 0x18 DUP5 ADD DUP1 SLOAD DUP3 MLOAD DUP2 DUP6 MUL DUP2 ADD DUP6 ADD SWAP1 SWAP4 MSTORE DUP1 DUP4 MSTORE PUSH2 0x240 SWAP1 SWAP5 ADD SWAP4 SWAP2 SWAP3 SWAP1 SWAP2 SWAP1 DUP4 ADD DUP3 DUP3 DUP1 ISZERO PUSH2 0x3CE9 JUMPI PUSH1 0x20 MUL DUP3 ADD SWAP2 SWAP1 PUSH1 0x0 MSTORE PUSH1 0x20 PUSH1 0x0 KECCAK256 SWAP1 PUSH1 0x0 SWAP1 JUMPDEST DUP3 DUP3 SWAP1 SLOAD SWAP1 PUSH2 0x100 EXP SWAP1 DIV PUSH4 0xFFFFFFFF AND PUSH4 0xFFFFFFFF AND DUP2 MSTORE PUSH1 0x20 ADD SWAP1 PUSH1 0x4 ADD SWAP1 PUSH1 0x20 DUP3 PUSH1 0x3 ADD DIV SWAP3 DUP4 ADD SWAP3 PUSH1 0x1 SUB DUP3 MUL SWAP2 POP DUP1 DUP5 GT PUSH2 0x3CAC JUMPI SWAP1 POP JUMPDEST POP POP POP SWAP2 DUP4 MSTORE POP POP PUSH1 0x19 DUP3 ADD SLOAD PUSH1 0x20 DUP3 ADD MSTORE PUSH1 0x1A DUP3 ADD SLOAD PUSH1 0x40 DUP3 ADD MSTORE PUSH1 0x1B DUP3 ADD SLOAD PUSH1 0x60 DUP3 ADD MSTORE PUSH1 0x1C SWAP1 SWAP2 ADD SLOAD PUSH1 0xFF DUP1 DUP3 AND ISZERO ISZERO PUSH1 0x80 DUP5 ADD MSTORE PUSH2 0x100 DUP3 DIV DUP2 AND ISZERO ISZERO PUSH1 0xA0 DUP5 ADD MSTORE PUSH3 0x10000 DUP3 DIV DUP2 AND ISZERO ISZERO PUSH1 0xC0 DUP5 ADD MSTORE PUSH4 0x1000000 SWAP1 SWAP2 DIV AND ISZERO ISZERO PUSH1 0xE0 SWAP1 SWAP2 ADD MSTORE PUSH2 0x46CF JUMP JUMPDEST PUSH2 0x3D5F DUP5 PUSH1 0x1 PUSH2 0x5E4E JUMP JUMPDEST PUSH1 0xFF AND GT ISZERO PUSH2 0x3D96 JUMPI PUSH1 0x40 MLOAD PUSH32 0x446F776E6C696E65206C6576656C73206C696D69742072656163686564000000 DUP2 MSTORE PUSH1 0x1D ADD PUSH2 0x3866 JUMP JUMPDEST PUSH1 0xCB SLOAD DUP8 MLOAD PUSH1 0x0 SWAP2 PUSH2 0xFFFF AND SWAP1 DUP10 SWAP1 PUSH1 0xFF DUP8 AND SWAP1 DUP2 LT PUSH2 0x3DB8 JUMPI PUSH2 0x3DB8 PUSH2 0x5E67 JUMP JUMPDEST PUSH1 0x20 MUL PUSH1 0x20 ADD ADD MLOAD PUSH2 0xFFFF AND DUP12 PUSH2 0x3DCF SWAP2 SWAP1 PUSH2 0x5B83 JUMP JUMPDEST PUSH2 0x3DD9 SWAP2 SWAP1 PUSH2 0x5B9A JUMP JUMPDEST SWAP1 POP DUP1 DUP3 PUSH1 0x17 ADD PUSH1 0x0 DUP3 DUP3 SLOAD PUSH2 0x3DEF SWAP2 SWAP1 PUSH2 0x5DBE JUMP JUMPDEST SWAP1 SWAP2 SSTORE POP PUSH2 0x3DFF SWAP1 POP DUP3 DUP3 PUSH2 0x3E8F JUMP JUMPDEST PUSH2 0x3E09 DUP2 DUP7 PUSH2 0x5DBE JUMP JUMPDEST SWAP5 POP DUP1 PUSH4 0xFFFFFFFF DUP1 DUP6 AND SWAP1 DUP12 AND PUSH32 0xF8FB9B5AB69A0208214661678427C6B48ABF457F53605D1F559D17452F1EEA11 PUSH2 0x3E43 DUP9 PUSH1 0x1 PUSH2 0x5E4E JUMP JUMPDEST PUSH1 0x40 MLOAD PUSH1 0xFF SWAP1 SWAP2 AND DUP2 MSTORE PUSH1 0x20 ADD PUSH1 0x40 MLOAD DUP1 SWAP2 SUB SWAP1 LOG4 POP SWAP4 POP POP JUMPDEST DUP1 PUSH2 0x3E67 DUP2 PUSH2 0x5E7D JUMP JUMPDEST SWAP2 POP POP PUSH2 0x37F4 JUMP JUMPDEST POP DUP1 PUSH1 0xCE PUSH1 0x0 DUP3 DUP3 SLOAD PUSH2 0x3E82 SWAP2 SWAP1 PUSH2 0x5DBE JUMP JUMPDEST SWAP1 SWAP2 SSTORE POP POP POP POP POP POP POP POP JUMP JUMPDEST DUP2 PUSH1 0x14 ADD SLOAD DUP2 DUP4 PUSH1 0x12 ADD SLOAD PUSH2 0x3EA4 SWAP2 SWAP1 PUSH2 0x5DBE JUMP JUMPDEST GT PUSH2 0x3EE3 JUMPI DUP1 DUP3 PUSH1 0x12 ADD PUSH1 0x0 DUP3 DUP3 SLOAD PUSH2 0x3EBD SWAP2 SWAP1 PUSH2 0x5DBE JUMP JUMPDEST SWAP3 POP POP DUP2 SWAP1 SSTORE POP DUP1 DUP3 PUSH1 0x1B ADD PUSH1 0x0 DUP3 DUP3 SLOAD PUSH2 0x3ED8 SWAP2 SWAP1 PUSH2 0x5DBE JUMP JUMPDEST SWAP1 SWAP2 SSTORE POP PUSH2 0x1586 SWAP1 POP JUMP JUMPDEST DUP2 PUSH1 0x12 ADD SLOAD DUP3 PUSH1 0x14 ADD SLOAD PUSH2 0x3EF7 SWAP2 SWAP1 PUSH2 0x5BD9 JUMP JUMPDEST DUP3 PUSH1 0x1B ADD PUSH1 0x0 DUP3 DUP3 SLOAD PUSH2 0x3F0A SWAP2 SWAP1 PUSH2 0x5DBE JUMP JUMPDEST SWAP1 SWAP2 SSTORE POP PUSH2 0x1586 SWAP1 POP DUP3 PUSH2 0x470E JUMP JUMPDEST PUSH1 0x33 DUP1 SLOAD PUSH1 0x1 PUSH1 0x1 PUSH1 0xA0 SHL SUB DUP4 DUP2 AND PUSH1 0x1 PUSH1 0x1 PUSH1 0xA0 SHL SUB NOT DUP4 AND DUP2 OR SWAP1 SWAP4 SSTORE PUSH1 0x40 MLOAD SWAP2 AND SWAP2 SWAP1 DUP3 SWAP1 PUSH32 0x8BE0079C531659141344CD1FD0A4F28419497F9722A3DAAFE3B4186F6B6457E0 SWAP1 PUSH1 0x0 SWAP1 LOG3 POP POP JUMP JUMPDEST DUP8 SLOAD PUSH4 0xFFFFFFFF AND PUSH1 0x0 SUB PUSH2 0x3F8E JUMPI DUP8 SLOAD PUSH4 0xFFFFFFFF NOT AND PUSH4 0xFFFFFFFF DUP8 AND OR DUP9 SSTORE JUMPDEST PUSH1 0x1C DUP9 ADD SLOAD PUSH1 0xFF AND PUSH2 0x3FAA JUMPI PUSH1 0x1C DUP9 ADD DUP1 SLOAD PUSH1 0xFF NOT AND PUSH1 0x1 OR SWAP1 SSTORE JUMPDEST PUSH1 0x3 DUP9 ADD SLOAD PUSH1 0xFF AND PUSH2 0x4002 JUMPI PUSH1 0xD4 DUP1 SLOAD PUSH1 0x1 DUP2 ADD DUP3 SSTORE PUSH1 0x0 SWAP2 SWAP1 SWAP2 MSTORE PUSH32 0x9780E26D96B1F2A9A18EF8FC72D589DBF03EF788137B64F43897E83A91E7FEEC ADD DUP1 SLOAD PUSH1 0x1 PUSH1 0x1 PUSH1 0xA0 SHL SUB NOT AND PUSH1 0x1 PUSH1 0x1 PUSH1 0xA0 SHL SUB DUP10 AND OR SWAP1 SSTORE JUMPDEST PUSH1 0x3 DUP9 ADD SLOAD PUSH2 0x100 SWAP1 DIV PUSH1 0x1 PUSH1 0x1 PUSH1 0xA0 SHL SUB AND PUSH2 0x403C JUMPI PUSH1 0x3 DUP9 ADD DUP1 SLOAD PUSH2 0x100 PUSH1 0x1 PUSH1 0xA8 SHL SUB NOT AND PUSH2 0x100 PUSH1 0x1 PUSH1 0x1 PUSH1 0xA0 SHL SUB DUP11 AND MUL OR SWAP1 SSTORE JUMPDEST DUP8 PUSH1 0x2 ADD SLOAD PUSH1 0x0 SUB PUSH2 0x4050 JUMPI PUSH1 0x2 DUP9 ADD DUP3 SWAP1 SSTORE JUMPDEST PUSH1 0x3 DUP9 ADD SLOAD PUSH1 0x1 PUSH1 0xC8 SHL SWAP1 DIV PUSH1 0xFF AND PUSH2 0x4094 JUMPI PUSH1 0x3 DUP9 ADD DUP1 SLOAD PUSH1 0xFF PUSH1 0xC8 SHL NOT PUSH4 0xFFFFFFFF DUP9 AND PUSH1 0x1 PUSH1 0xA8 SHL MUL AND PUSH5 0xFFFFFFFFFF PUSH1 0xA8 SHL NOT SWAP1 SWAP2 AND OR PUSH1 0x1 PUSH1 0xC8 SHL OR SWAP1 SSTORE JUMPDEST PUSH1 0x0 PUSH1 0x12 DUP10 ADD SSTORE PUSH2 0x40A6 PUSH1 0x3 DUP5 PUSH2 0x5B9A JUMP JUMPDEST PUSH1 0x13 DUP10 ADD SSTORE PUSH1 0x14 DUP9 ADD DUP4 SWAP1 SSTORE PUSH1 0x7 DUP9 ADD DUP1 SLOAD PUSH1 0x1 DUP2 ADD DUP3 SSTORE PUSH1 0x0 SWAP2 DUP3 MSTORE PUSH1 0x20 DUP3 KECCAK256 ADD DUP6 SWAP1 SSTORE PUSH1 0x8 DUP10 ADD DUP1 SLOAD DUP7 SWAP3 SWAP1 PUSH2 0x40DF SWAP1 DUP5 SWAP1 PUSH2 0x5DBE JUMP JUMPDEST SWAP1 SWAP2 SSTORE POP POP PUSH1 0x15 DUP9 ADD DUP3 SWAP1 SSTORE PUSH1 0x40 DUP1 MLOAD PUSH1 0x0 DUP2 MSTORE PUSH1 0x20 DUP2 ADD SWAP2 DUP3 SWAP1 MSTORE MLOAD PUSH2 0x410A SWAP2 PUSH1 0x18 DUP12 ADD SWAP2 PUSH2 0x51F8 JUMP JUMPDEST POP PUSH1 0x0 JUMPDEST DUP2 DUP2 PUSH1 0xFF AND LT ISZERO PUSH2 0x4283 JUMPI PUSH1 0x3 DUP10 ADD SLOAD PUSH4 0xFFFFFFFF PUSH1 0x1 PUSH1 0xA8 SHL SWAP1 SWAP2 DIV DUP2 AND PUSH1 0x0 DUP2 DUP2 MSTORE PUSH1 0xD7 PUSH1 0x20 MSTORE PUSH1 0x40 DUP2 KECCAK256 DUP1 SLOAD SWAP3 SWAP4 SWAP1 SWAP3 AND SWAP1 SUB PUSH2 0x414F JUMPI POP POP PUSH2 0x4283 JUMP JUMPDEST DUP3 PUSH1 0xFF AND PUSH1 0x0 SUB PUSH2 0x41B1 JUMPI DUP7 DUP2 PUSH1 0xA ADD PUSH1 0x0 DUP3 DUP3 SLOAD PUSH2 0x416E SWAP2 SWAP1 PUSH2 0x5DBE JUMP JUMPDEST SWAP1 SWAP2 SSTORE POP POP PUSH1 0x4 DUP2 DUP2 ADD DUP1 SLOAD PUSH1 0x1 DUP2 ADD DUP3 SSTORE PUSH1 0x0 SWAP2 DUP3 MSTORE PUSH1 0x20 SWAP1 SWAP2 KECCAK256 PUSH1 0x8 DUP3 DIV ADD DUP1 SLOAD PUSH1 0x7 SWAP1 SWAP3 AND SWAP1 SWAP3 MUL PUSH2 0x100 EXP PUSH4 0xFFFFFFFF DUP2 DUP2 MUL NOT SWAP1 SWAP3 AND SWAP2 DUP13 AND MUL OR SWAP1 SSTORE JUMPDEST DUP7 DUP2 PUSH1 0xC ADD PUSH1 0x0 DUP3 DUP3 SLOAD PUSH2 0x41C5 SWAP2 SWAP1 PUSH2 0x5DBE JUMP JUMPDEST SWAP1 SWAP2 SSTORE POP POP PUSH4 0xFFFFFFFF DUP9 AND ISZERO PUSH2 0x4245 JUMPI PUSH1 0x5 DUP2 ADD DUP1 SLOAD PUSH1 0x1 DUP2 ADD DUP3 SSTORE PUSH1 0x0 SWAP2 DUP3 MSTORE PUSH1 0x20 DUP3 KECCAK256 PUSH1 0x8 DUP3 DIV ADD DUP1 SLOAD PUSH1 0x7 SWAP1 SWAP3 AND PUSH1 0x4 MUL PUSH2 0x100 EXP PUSH4 0xFFFFFFFF DUP2 DUP2 MUL NOT SWAP1 SWAP4 AND DUP14 DUP5 AND SWAP2 DUP3 MUL OR SWAP1 SWAP2 SSTORE DUP4 SLOAD PUSH1 0x40 MLOAD SWAP1 DUP4 AND SWAP4 SWAP3 DUP13 AND SWAP3 PUSH32 0x3EC54E926FE5DD86406FE57832FF318517AED2A5CFBEACFB90A5E9489483AE4B SWAP2 LOG4 JUMPDEST PUSH1 0xCF SLOAD PUSH5 0x100000000 SWAP1 DIV PUSH1 0xFF AND ISZERO PUSH2 0x4263 JUMPI PUSH2 0x4263 DUP2 DUP9 DUP8 PUSH2 0x47B6 JUMP JUMPDEST PUSH2 0x426D DUP8 DUP7 PUSH2 0x4F10 JUMP JUMPDEST SWAP10 POP DUP2 SWAP1 POP PUSH2 0x427B DUP2 PUSH2 0x5E7D JUMP JUMPDEST SWAP2 POP POP PUSH2 0x410E JUMP JUMPDEST POP POP POP POP POP POP POP POP POP JUMP JUMPDEST PUSH1 0x0 SLOAD PUSH2 0x100 SWAP1 DIV PUSH1 0xFF AND PUSH2 0x42B5 JUMPI PUSH1 0x40 MLOAD PUSH3 0x461BCD PUSH1 0xE5 SHL DUP2 MSTORE PUSH1 0x4 ADD PUSH2 0x1151 SWAP1 PUSH2 0x5E9C JUMP JUMPDEST PUSH2 0x1F00 PUSH2 0x4F41 JUMP JUMPDEST PUSH1 0x0 SLOAD PUSH2 0x100 SWAP1 DIV PUSH1 0xFF AND PUSH2 0x1F00 JUMPI PUSH1 0x40 MLOAD PUSH3 0x461BCD PUSH1 0xE5 SHL DUP2 MSTORE PUSH1 0x4 ADD PUSH2 0x1151 SWAP1 PUSH2 0x5E9C JUMP JUMPDEST PUSH1 0xD5 SLOAD PUSH1 0x0 SWAP1 PUSH4 0x1000000 SWAP1 DIV PUSH1 0xFF AND DUP2 JUMPDEST DUP2 PUSH1 0xFF AND DUP2 PUSH1 0xFF AND LT ISZERO PUSH2 0x4392 JUMPI PUSH1 0xFF DUP2 AND PUSH1 0x0 SWAP1 DUP2 MSTORE PUSH1 0xD8 PUSH1 0x20 MSTORE PUSH1 0x40 SWAP1 KECCAK256 PUSH1 0x1 ADD SLOAD PUSH2 0x160 DUP6 ADD MLOAD LT DUP1 ISZERO SWAP1 PUSH2 0x4348 JUMPI POP PUSH1 0xFF DUP2 AND PUSH1 0x0 SWAP1 DUP2 MSTORE PUSH1 0xD8 PUSH1 0x20 MSTORE PUSH1 0x40 SWAP1 KECCAK256 PUSH1 0x2 ADD SLOAD PUSH2 0x1A0 DUP6 ADD MLOAD LT ISZERO JUMPDEST DUP1 ISZERO PUSH2 0x436E JUMPI POP PUSH1 0xFF DUP2 AND PUSH1 0x0 SWAP1 DUP2 MSTORE PUSH1 0xD8 PUSH1 0x20 MSTORE PUSH1 0x40 SWAP1 KECCAK256 PUSH1 0x3 ADD SLOAD PUSH2 0x1E0 DUP6 ADD MLOAD LT ISZERO JUMPDEST ISZERO PUSH2 0x437B JUMPI DUP1 SWAP3 POP PUSH2 0x4380 JUMP JUMPDEST PUSH2 0x4392 JUMP JUMPDEST DUP1 PUSH2 0x438A DUP2 PUSH2 0x5E7D JUMP JUMPDEST SWAP2 POP POP PUSH2 0x42F6 JUMP JUMPDEST POP POP SWAP2 SWAP1 POP JUMP JUMPDEST PUSH1 0x0 DUP1 PUSH8 0xDE0B6B3A7640000 PUSH1 0xC9 PUSH1 0x0 SWAP1 SLOAD SWAP1 PUSH2 0x100 EXP SWAP1 DIV PUSH1 0x1 PUSH1 0x1 PUSH1 0xA0 SHL SUB AND PUSH1 0x1 PUSH1 0x1 PUSH1 0xA0 SHL SUB AND PUSH4 0x2913497B PUSH1 0x40 MLOAD DUP2 PUSH4 0xFFFFFFFF AND PUSH1 0xE0 SHL DUP2 MSTORE PUSH1 0x4 ADD PUSH1 0x20 PUSH1 0x40 MLOAD DUP1 DUP4 SUB DUP2 DUP7 GAS STATICCALL ISZERO DUP1 ISZERO PUSH2 0x43F8 JUMPI RETURNDATASIZE PUSH1 0x0 DUP1 RETURNDATACOPY RETURNDATASIZE PUSH1 0x0 REVERT JUMPDEST POP POP POP POP PUSH1 0x40 MLOAD RETURNDATASIZE PUSH1 0x1F NOT PUSH1 0x1F DUP3 ADD AND DUP3 ADD DUP1 PUSH1 0x40 MSTORE POP DUP2 ADD SWAP1 PUSH2 0x441C SWAP2 SWAP1 PUSH2 0x5BBC JUMP JUMPDEST PUSH1 0x1 PUSH1 0x1 PUSH1 0xA0 SHL SUB AND PUSH4 0xE1AA6036 PUSH1 0x40 MLOAD DUP2 PUSH4 0xFFFFFFFF AND PUSH1 0xE0 SHL DUP2 MSTORE PUSH1 0x4 ADD PUSH1 0x20 PUSH1 0x40 MLOAD DUP1 DUP4 SUB DUP2 DUP7 GAS STATICCALL ISZERO DUP1 ISZERO PUSH2 0x4459 JUMPI RETURNDATASIZE PUSH1 0x0 DUP1 RETURNDATACOPY RETURNDATASIZE PUSH1 0x0 REVERT JUMPDEST POP POP POP POP PUSH1 0x40 MLOAD RETURNDATASIZE PUSH1 0x1F NOT PUSH1 0x1F DUP3 ADD AND DUP3 ADD DUP1 PUSH1 0x40 MSTORE POP DUP2 ADD SWAP1 PUSH2 0x447D SWAP2 SWAP1 PUSH2 0x5E35 JUMP JUMPDEST PUSH2 0x35D4 SWAP1 DUP6 PUSH2 0x5B83 JUMP JUMPDEST PUSH1 0x1 PUSH1 0x1 PUSH1 0xA0 SHL SUB DUP2 AND EXTCODESIZE PUSH2 0x44F4 JUMPI PUSH1 0x40 MLOAD PUSH3 0x461BCD PUSH1 0xE5 SHL DUP2 MSTORE PUSH1 0x20 PUSH1 0x4 DUP3 ADD MSTORE PUSH1 0x2D PUSH1 0x24 DUP3 ADD MSTORE PUSH32 0x455243313936373A206E657720696D706C656D656E746174696F6E206973206E PUSH1 0x44 DUP3 ADD MSTORE PUSH13 0x1BDD08184818DBDB9D1C9858DD PUSH1 0x9A SHL PUSH1 0x64 DUP3 ADD MSTORE PUSH1 0x84 ADD PUSH2 0x1151 JUMP JUMPDEST PUSH1 0x0 DUP1 MLOAD PUSH1 0x20 PUSH2 0x5F17 DUP4 CODECOPY DUP2 MLOAD SWAP2 MSTORE DUP1 SLOAD PUSH1 0x1 PUSH1 0x1 PUSH1 0xA0 SHL SUB NOT AND PUSH1 0x1 PUSH1 0x1 PUSH1 0xA0 SHL SUB SWAP3 SWAP1 SWAP3 AND SWAP2 SWAP1 SWAP2 OR SWAP1 SSTORE JUMP JUMPDEST PUSH2 0x452C DUP4 PUSH2 0x4F71 JUMP JUMPDEST PUSH1 0x0 DUP3 MLOAD GT DUP1 PUSH2 0x4539 JUMPI POP DUP1 JUMPDEST ISZERO PUSH2 0xA4C JUMPI PUSH2 0x4548 DUP4 DUP4 PUSH2 0x4FB1 JUMP JUMPDEST POP POP POP POP JUMP JUMPDEST PUSH1 0x1C DUP2 ADD SLOAD PUSH1 0x0 SWAP1 PUSH1 0xFF AND ISZERO DUP1 PUSH2 0x456D JUMPI POP DUP2 PUSH1 0x14 ADD SLOAD DUP3 PUSH1 0x12 ADD SLOAD LT ISZERO JUMPDEST ISZERO PUSH2 0x457A JUMPI POP PUSH1 0x1 SWAP2 SWAP1 POP JUMP JUMPDEST PUSH1 0x18 DUP3 ADD SLOAD ISZERO DUP1 ISZERO SWAP1 PUSH2 0x46BA JUMPI POP PUSH1 0xC9 PUSH1 0x0 SWAP1 SLOAD SWAP1 PUSH2 0x100 EXP SWAP1 DIV PUSH1 0x1 PUSH1 0x1 PUSH1 0xA0 SHL SUB AND PUSH1 0x1 PUSH1 0x1 PUSH1 0xA0 SHL SUB AND PUSH4 0x8908DF3A PUSH1 0x40 MLOAD DUP2 PUSH4 0xFFFFFFFF AND PUSH1 0xE0 SHL DUP2 MSTORE PUSH1 0x4 ADD PUSH1 0x20 PUSH1 0x40 MLOAD DUP1 DUP4 SUB DUP2 DUP7 GAS STATICCALL ISZERO DUP1 ISZERO PUSH2 0x45DB JUMPI RETURNDATASIZE PUSH1 0x0 DUP1 RETURNDATACOPY RETURNDATASIZE PUSH1 0x0 REVERT JUMPDEST POP POP POP POP PUSH1 0x40 MLOAD RETURNDATASIZE PUSH1 0x1F NOT PUSH1 0x1F DUP3 ADD AND DUP3 ADD DUP1 PUSH1 0x40 MSTORE POP DUP2 ADD SWAP1 PUSH2 0x45FF SWAP2 SWAP1 PUSH2 0x5BBC JUMP JUMPDEST PUSH1 0x1 PUSH1 0x1 PUSH1 0xA0 SHL SUB AND PUSH4 0x55332A85 DUP4 PUSH1 0x18 ADD PUSH1 0x1 DUP6 PUSH1 0x18 ADD DUP1 SLOAD SWAP1 POP PUSH2 0x4625 SWAP2 SWAP1 PUSH2 0x5BD9 JUMP JUMPDEST DUP2 SLOAD DUP2 LT PUSH2 0x4635 JUMPI PUSH2 0x4635 PUSH2 0x5E67 JUMP JUMPDEST PUSH1 0x0 SWAP2 DUP3 MSTORE PUSH1 0x20 SWAP1 SWAP2 KECCAK256 PUSH1 0x8 DUP3 DIV ADD SLOAD PUSH1 0x40 MLOAD PUSH1 0xE0 DUP5 SWAP1 SHL PUSH1 0x1 PUSH1 0x1 PUSH1 0xE0 SHL SUB NOT AND DUP2 MSTORE PUSH1 0x7 SWAP1 SWAP3 AND PUSH1 0x4 SWAP1 DUP2 MUL PUSH2 0x100 EXP SWAP1 SWAP2 DIV PUSH4 0xFFFFFFFF AND SWAP1 DUP3 ADD MSTORE PUSH1 0x24 ADD PUSH1 0x20 PUSH1 0x40 MLOAD DUP1 DUP4 SUB DUP2 DUP7 GAS STATICCALL ISZERO DUP1 ISZERO PUSH2 0x4694 JUMPI RETURNDATASIZE PUSH1 0x0 DUP1 RETURNDATACOPY RETURNDATASIZE PUSH1 0x0 REVERT JUMPDEST POP POP POP POP PUSH1 0x40 MLOAD RETURNDATASIZE PUSH1 0x1F NOT PUSH1 0x1F DUP3 ADD AND DUP3 ADD DUP1 PUSH1 0x40 MSTORE POP DUP2 ADD SWAP1 PUSH2 0x46B8 SWAP2 SWAP1 PUSH2 0x5B50 JUMP JUMPDEST ISZERO JUMPDEST ISZERO PUSH2 0x46C7 JUMPI POP PUSH1 0x1 SWAP2 SWAP1 POP JUMP JUMPDEST POP PUSH1 0x0 SWAP2 SWAP1 POP JUMP JUMPDEST PUSH1 0xE0 DUP2 ADD MLOAD MLOAD PUSH1 0x0 SWAP1 DUP2 DUP2 ISZERO PUSH2 0x35DE JUMPI PUSH1 0xCF SLOAD PUSH1 0x1 SWAP1 PUSH2 0x46FC SWAP1 PUSH7 0x1000000000000 SWAP1 DIV PUSH1 0xFF AND DUP5 PUSH2 0x5B83 JUMP JUMPDEST PUSH2 0x4706 SWAP2 SWAP1 PUSH2 0x5BD9 JUMP JUMPDEST SWAP5 SWAP4 POP POP POP POP JUMP JUMPDEST PUSH1 0x1C DUP2 ADD DUP1 SLOAD PUSH1 0xFF NOT AND SWAP1 SSTORE PUSH1 0x40 DUP1 MLOAD PUSH1 0x0 DUP2 MSTORE PUSH1 0x20 DUP2 ADD SWAP2 DUP3 SWAP1 MSTORE MLOAD PUSH2 0x4739 SWAP2 PUSH1 0x18 DUP5 ADD SWAP2 PUSH2 0x51F8 JUMP JUMPDEST POP PUSH1 0x0 PUSH1 0x12 DUP3 ADD DUP2 SWAP1 SSTORE PUSH1 0x13 DUP3 ADD DUP2 SWAP1 SSTORE PUSH1 0x14 DUP3 ADD SSTORE TIMESTAMP PUSH1 0x16 DUP3 ADD SSTORE DUP1 SLOAD PUSH1 0x40 DUP1 MLOAD PUSH4 0xFFFFFFFF SWAP1 SWAP3 AND DUP3 MSTORE PUSH1 0x20 DUP3 ADD DUP2 SWAP1 MSTORE PUSH1 0x11 SWAP1 DUP3 ADD MSTORE PUSH17 0x13585E08131A5B5A5D0814995858DA1959 PUSH1 0x7A SHL PUSH1 0x60 DUP3 ADD MSTORE PUSH32 0xCE8AB8F2AC6A94861F9740FA1FED3E6D13A85DFD8A4833BF96F3A0055BA7FB6F SWAP1 PUSH1 0x80 ADD PUSH2 0x2695 JUMP JUMPDEST PUSH1 0x10 DUP4 ADD SLOAD PUSH1 0x40 DUP1 MLOAD PUSH2 0x480 DUP2 ADD SWAP1 SWAP2 MSTORE DUP5 SLOAD PUSH4 0xFFFFFFFF AND DUP2 MSTORE PUSH1 0x1 DUP6 ADD DUP1 SLOAD PUSH1 0xFF SWAP1 SWAP4 AND SWAP3 PUSH2 0x4C5C SWAP3 SWAP2 DUP8 SWAP2 PUSH1 0x20 DUP5 ADD SWAP2 SWAP1 PUSH2 0x47F3 SWAP1 PUSH2 0x5B16 JUMP JUMPDEST DUP1 PUSH1 0x1F ADD PUSH1 0x20 DUP1 SWAP2 DIV MUL PUSH1 0x20 ADD PUSH1 0x40 MLOAD SWAP1 DUP2 ADD PUSH1 0x40 MSTORE DUP1 SWAP3 SWAP2 SWAP1 DUP2 DUP2 MSTORE PUSH1 0x20 ADD DUP3 DUP1 SLOAD PUSH2 0x481F SWAP1 PUSH2 0x5B16 JUMP JUMPDEST DUP1 ISZERO PUSH2 0x486C JUMPI DUP1 PUSH1 0x1F LT PUSH2 0x4841 JUMPI PUSH2 0x100 DUP1 DUP4 SLOAD DIV MUL DUP4 MSTORE SWAP2 PUSH1 0x20 ADD SWAP2 PUSH2 0x486C JUMP JUMPDEST DUP3 ADD SWAP2 SWAP1 PUSH1 0x0 MSTORE PUSH1 0x20 PUSH1 0x0 KECCAK256 SWAP1 JUMPDEST DUP2 SLOAD DUP2 MSTORE SWAP1 PUSH1 0x1 ADD SWAP1 PUSH1 0x20 ADD DUP1 DUP4 GT PUSH2 0x484F JUMPI DUP3 SWAP1 SUB PUSH1 0x1F AND DUP3 ADD SWAP2 JUMPDEST POP POP POP SWAP2 DUP4 MSTORE POP POP PUSH1 0x2 DUP3 ADD SLOAD PUSH1 0x20 DUP1 DUP4 ADD SWAP2 SWAP1 SWAP2 MSTORE PUSH1 0x3 DUP4 ADD SLOAD PUSH1 0xFF DUP1 DUP3 AND ISZERO ISZERO PUSH1 0x40 DUP1 DUP7 ADD SWAP2 SWAP1 SWAP2 MSTORE PUSH1 0x1 PUSH1 0x1 PUSH1 0xA0 SHL SUB PUSH2 0x100 DUP5 DIV AND PUSH1 0x60 DUP7 ADD MSTORE PUSH4 0xFFFFFFFF PUSH1 0x1 PUSH1 0xA8 SHL DUP5 DIV AND PUSH1 0x80 DUP7 ADD MSTORE PUSH1 0x1 PUSH1 0xC8 SHL SWAP1 SWAP3 DIV AND ISZERO ISZERO PUSH1 0xA0 DUP5 ADD MSTORE PUSH1 0x4 DUP5 ADD DUP1 SLOAD DUP3 MLOAD DUP2 DUP6 MUL DUP2 ADD DUP6 ADD SWAP1 SWAP4 MSTORE DUP1 DUP4 MSTORE PUSH1 0xC0 SWAP1 SWAP5 ADD SWAP4 SWAP2 SWAP3 SWAP1 SWAP2 SWAP1 DUP4 ADD DUP3 DUP3 DUP1 ISZERO PUSH2 0x4947 JUMPI PUSH1 0x20 MUL DUP3 ADD SWAP2 SWAP1 PUSH1 0x0 MSTORE PUSH1 0x20 PUSH1 0x0 KECCAK256 SWAP1 PUSH1 0x0 SWAP1 JUMPDEST DUP3 DUP3 SWAP1 SLOAD SWAP1 PUSH2 0x100 EXP SWAP1 DIV PUSH4 0xFFFFFFFF AND PUSH4 0xFFFFFFFF AND DUP2 MSTORE PUSH1 0x20 ADD SWAP1 PUSH1 0x4 ADD SWAP1 PUSH1 0x20 DUP3 PUSH1 0x3 ADD DIV SWAP3 DUP4 ADD SWAP3 PUSH1 0x1 SUB DUP3 MUL SWAP2 POP DUP1 DUP5 GT PUSH2 0x490A JUMPI SWAP1 POP JUMPDEST POP POP POP POP POP DUP2 MSTORE PUSH1 0x20 ADD PUSH1 0x5 DUP3 ADD DUP1 SLOAD DUP1 PUSH1 0x20 MUL PUSH1 0x20 ADD PUSH1 0x40 MLOAD SWAP1 DUP2 ADD PUSH1 0x40 MSTORE DUP1 SWAP3 SWAP2 SWAP1 DUP2 DUP2 MSTORE PUSH1 0x20 ADD DUP3 DUP1 SLOAD DUP1 ISZERO PUSH2 0x49CB JUMPI PUSH1 0x20 MUL DUP3 ADD SWAP2 SWAP1 PUSH1 0x0 MSTORE PUSH1 0x20 PUSH1 0x0 KECCAK256 SWAP1 PUSH1 0x0 SWAP1 JUMPDEST DUP3 DUP3 SWAP1 SLOAD SWAP1 PUSH2 0x100 EXP SWAP1 DIV PUSH4 0xFFFFFFFF AND PUSH4 0xFFFFFFFF AND DUP2 MSTORE PUSH1 0x20 ADD SWAP1 PUSH1 0x4 ADD SWAP1 PUSH1 0x20 DUP3 PUSH1 0x3 ADD DIV SWAP3 DUP4 ADD SWAP3 PUSH1 0x1 SUB DUP3 MUL SWAP2 POP DUP1 DUP5 GT PUSH2 0x498E JUMPI SWAP1 POP JUMPDEST POP POP POP POP POP DUP2 MSTORE PUSH1 0x20 ADD PUSH1 0x6 DUP3 ADD DUP1 SLOAD DUP1 PUSH1 0x20 MUL PUSH1 0x20 ADD PUSH1 0x40 MLOAD SWAP1 DUP2 ADD PUSH1 0x40 MSTORE DUP1 SWAP3 SWAP2 SWAP1 DUP2 DUP2 MSTORE PUSH1 0x20 ADD DUP3 DUP1 SLOAD DUP1 ISZERO PUSH2 0x4A4F JUMPI PUSH1 0x20 MUL DUP3 ADD SWAP2 SWAP1 PUSH1 0x0 MSTORE PUSH1 0x20 PUSH1 0x0 KECCAK256 SWAP1 PUSH1 0x0 SWAP1 JUMPDEST DUP3 DUP3 SWAP1 SLOAD SWAP1 PUSH2 0x100 EXP SWAP1 DIV PUSH4 0xFFFFFFFF AND PUSH4 0xFFFFFFFF AND DUP2 MSTORE PUSH1 0x20 ADD SWAP1 PUSH1 0x4 ADD SWAP1 PUSH1 0x20 DUP3 PUSH1 0x3 ADD DIV SWAP3 DUP4 ADD SWAP3 PUSH1 0x1 SUB DUP3 MUL SWAP2 POP DUP1 DUP5 GT PUSH2 0x4A12 JUMPI SWAP1 POP JUMPDEST POP POP POP POP POP DUP2 MSTORE PUSH1 0x20 ADD PUSH1 0x7 DUP3 ADD DUP1 SLOAD DUP1 PUSH1 0x20 MUL PUSH1 0x20 ADD PUSH1 0x40 MLOAD SWAP1 DUP2 ADD PUSH1 0x40 MSTORE DUP1 SWAP3 SWAP2 SWAP1 DUP2 DUP2 MSTORE PUSH1 0x20 ADD DUP3 DUP1 SLOAD DUP1 ISZERO PUSH2 0x4AA7 JUMPI PUSH1 0x20 MUL DUP3 ADD SWAP2 SWAP1 PUSH1 0x0 MSTORE PUSH1 0x20 PUSH1 0x0 KECCAK256 SWAP1 JUMPDEST DUP2 SLOAD DUP2 MSTORE PUSH1 0x20 ADD SWAP1 PUSH1 0x1 ADD SWAP1 DUP1 DUP4 GT PUSH2 0x4A93 JUMPI JUMPDEST POP POP POP SWAP2 DUP4 MSTORE POP POP PUSH1 0x8 DUP3 ADD SLOAD PUSH1 0x20 DUP1 DUP4 ADD SWAP2 SWAP1 SWAP2 MSTORE PUSH1 0x9 DUP4 ADD SLOAD PUSH1 0x40 DUP1 DUP5 ADD SWAP2 SWAP1 SWAP2 MSTORE PUSH1 0xA DUP5 ADD SLOAD PUSH1 0x60 DUP5 ADD MSTORE PUSH1 0xB DUP5 ADD SLOAD PUSH1 0x80 DUP5 ADD MSTORE PUSH1 0xC DUP5 ADD SLOAD PUSH1 0xA0 DUP5 ADD MSTORE PUSH1 0xD DUP5 ADD SLOAD PUSH1 0xC0 DUP5 ADD MSTORE PUSH1 0xE DUP5 ADD SLOAD PUSH1 0xE0 DUP5 ADD MSTORE PUSH1 0xF DUP5 ADD SLOAD PUSH2 0x100 DUP1 DUP6 ADD SWAP2 SWAP1 SWAP2 MSTORE PUSH1 0x10 DUP6 ADD SLOAD PUSH1 0xFF DUP2 AND PUSH2 0x120 DUP7 ADD MSTORE DIV PUSH4 0xFFFFFFFF AND PUSH2 0x140 DUP5 ADD MSTORE PUSH1 0x11 DUP5 ADD SLOAD PUSH2 0x160 DUP5 ADD MSTORE PUSH1 0x12 DUP5 ADD SLOAD PUSH2 0x180 DUP5 ADD MSTORE PUSH1 0x13 DUP5 ADD SLOAD PUSH2 0x1A0 DUP5 ADD MSTORE PUSH1 0x14 DUP5 ADD SLOAD PUSH2 0x1C0 DUP5 ADD MSTORE PUSH1 0x15 DUP5 ADD SLOAD PUSH2 0x1E0 DUP5 ADD MSTORE PUSH1 0x16 DUP5 ADD SLOAD PUSH2 0x200 DUP5 ADD MSTORE PUSH1 0x17 DUP5 ADD SLOAD PUSH2 0x220 DUP5 ADD MSTORE PUSH1 0x18 DUP5 ADD DUP1 SLOAD DUP3 MLOAD DUP2 DUP6 MUL DUP2 ADD DUP6 ADD SWAP1 SWAP4 MSTORE DUP1 DUP4 MSTORE PUSH2 0x240 SWAP1 SWAP5 ADD SWAP4 SWAP2 SWAP3 SWAP1 SWAP2 SWAP1 DUP4 ADD DUP3 DUP3 DUP1 ISZERO PUSH2 0x4BF1 JUMPI PUSH1 0x20 MUL DUP3 ADD SWAP2 SWAP1 PUSH1 0x0 MSTORE PUSH1 0x20 PUSH1 0x0 KECCAK256 SWAP1 PUSH1 0x0 SWAP1 JUMPDEST DUP3 DUP3 SWAP1 SLOAD SWAP1 PUSH2 0x100 EXP SWAP1 DIV PUSH4 0xFFFFFFFF AND PUSH4 0xFFFFFFFF AND DUP2 MSTORE PUSH1 0x20 ADD SWAP1 PUSH1 0x4 ADD SWAP1 PUSH1 0x20 DUP3 PUSH1 0x3 ADD DIV SWAP3 DUP4 ADD SWAP3 PUSH1 0x1 SUB DUP3 MUL SWAP2 POP DUP1 DUP5 GT PUSH2 0x4BB4 JUMPI SWAP1 POP JUMPDEST POP POP POP SWAP2 DUP4 MSTORE POP POP PUSH1 0x19 DUP3 ADD SLOAD PUSH1 0x20 DUP3 ADD MSTORE PUSH1 0x1A DUP3 ADD SLOAD PUSH1 0x40 DUP3 ADD MSTORE PUSH1 0x1B DUP3 ADD SLOAD PUSH1 0x60 DUP3 ADD MSTORE PUSH1 0x1C SWAP1 SWAP2 ADD SLOAD PUSH1 0xFF DUP1 DUP3 AND ISZERO ISZERO PUSH1 0x80 DUP5 ADD MSTORE PUSH2 0x100 DUP3 DIV DUP2 AND ISZERO ISZERO PUSH1 0xA0 DUP5 ADD MSTORE PUSH3 0x10000 DUP3 DIV DUP2 AND ISZERO ISZERO PUSH1 0xC0 DUP5 ADD MSTORE PUSH4 0x1000000 SWAP1 SWAP2 DIV AND ISZERO ISZERO PUSH1 0xE0 SWAP1 SWAP2 ADD MSTORE PUSH2 0x42E4 JUMP JUMPDEST PUSH1 0xFF AND GT ISZERO PUSH2 0xA4C JUMPI PUSH1 0x40 DUP1 MLOAD PUSH2 0x480 DUP2 ADD SWAP1 SWAP2 MSTORE DUP4 SLOAD PUSH4 0xFFFFFFFF AND DUP2 MSTORE PUSH1 0x1 DUP5 ADD DUP1 SLOAD PUSH2 0x4C97 SWAP3 SWAP2 DUP7 SWAP2 PUSH1 0x20 DUP5 ADD SWAP2 SWAP1 PUSH2 0x47F3 SWAP1 PUSH2 0x5B16 JUMP JUMPDEST PUSH1 0x10 DUP5 ADD DUP1 SLOAD PUSH1 0xFF NOT AND PUSH1 0xFF SWAP3 DUP4 AND SWAP1 DUP2 OR DUP3 SSTORE PUSH1 0x0 SWAP1 DUP2 MSTORE PUSH1 0xD8 PUSH1 0x20 SWAP1 DUP2 MSTORE PUSH1 0x40 DUP1 DUP4 KECCAK256 DUP9 SLOAD PUSH1 0x9 SWAP2 DUP3 ADD DUP1 SLOAD PUSH1 0x1 DUP2 DUP2 ADD DUP4 SSTORE SWAP2 DUP8 MSTORE SWAP5 DUP7 KECCAK256 PUSH1 0x8 DUP7 DIV ADD DUP1 SLOAD PUSH4 0xFFFFFFFF PUSH1 0x7 SWAP1 SWAP8 AND PUSH1 0x4 MUL PUSH2 0x100 EXP DUP8 DUP2 MUL NOT SWAP1 SWAP2 AND SWAP7 SWAP1 SWAP4 AND SWAP1 SWAP3 MUL SWAP5 SWAP1 SWAP5 OR SWAP1 SSTORE SWAP4 SLOAD SWAP1 SWAP5 AND DUP3 MSTORE SWAP3 SWAP1 KECCAK256 ADD SLOAD PUSH2 0x4D14 SWAP2 SWAP1 PUSH2 0x5BD9 JUMP JUMPDEST PUSH1 0x10 DUP5 ADD DUP1 SLOAD PUSH5 0xFFFFFFFF00 NOT DUP2 AND PUSH2 0x100 PUSH4 0xFFFFFFFF SWAP5 DUP6 AND DUP2 MUL SWAP2 DUP3 OR SWAP4 DUP5 SWAP1 SSTORE DUP8 SLOAD PUSH1 0x40 DUP1 MLOAD SWAP2 DUP8 AND DUP3 MSTORE SWAP2 SWAP1 SWAP5 DIV SWAP1 SWAP5 AND PUSH1 0x20 DUP5 ADD MSTORE PUSH1 0xFF SWAP2 DUP3 AND SWAP2 AND OR SWAP2 DUP2 ADD SWAP2 SWAP1 SWAP2 MSTORE PUSH32 0x4D3AF8F60FFD033B575846F894122F2342B39BC9A90DA98D0A966128702B568D SWAP1 PUSH1 0x60 ADD PUSH1 0x40 MLOAD DUP1 SWAP2 SUB SWAP1 LOG1 PUSH1 0x40 DUP1 MLOAD PUSH2 0x480 DUP2 ADD SWAP1 SWAP2 MSTORE DUP4 SLOAD PUSH4 0xFFFFFFFF AND DUP2 MSTORE PUSH1 0x1 DUP5 ADD DUP1 SLOAD PUSH1 0xD8 SWAP3 PUSH1 0x0 SWAP3 PUSH2 0x4DC0 SWAP3 DUP9 SWAP2 PUSH1 0x20 DUP5 ADD SWAP2 PUSH2 0x47F3 SWAP1 PUSH2 0x5B16 JUMP JUMPDEST PUSH1 0xFF SWAP1 DUP2 AND DUP3 MSTORE PUSH1 0x20 DUP3 ADD SWAP3 SWAP1 SWAP3 MSTORE PUSH1 0x40 ADD PUSH1 0x0 KECCAK256 PUSH1 0x8 ADD SLOAD AND ISZERO PUSH2 0x4E7F JUMPI PUSH1 0x40 DUP1 MLOAD PUSH2 0x480 DUP2 ADD SWAP1 SWAP2 MSTORE DUP4 SLOAD PUSH4 0xFFFFFFFF AND DUP2 MSTORE PUSH1 0x1 DUP5 ADD DUP1 SLOAD PUSH1 0xD8 SWAP3 PUSH1 0x0 SWAP3 PUSH2 0x4E15 SWAP3 DUP9 SWAP2 PUSH1 0x20 DUP5 ADD SWAP2 PUSH2 0x47F3 SWAP1 PUSH2 0x5B16 JUMP JUMPDEST PUSH1 0xFF AND PUSH1 0xFF AND DUP2 MSTORE PUSH1 0x20 ADD SWAP1 DUP2 MSTORE PUSH1 0x20 ADD PUSH1 0x0 KECCAK256 PUSH1 0x7 ADD SLOAD DUP4 PUSH1 0xF ADD SLOAD PUSH2 0x4E3C SWAP2 SWAP1 PUSH2 0x5DBE JUMP JUMPDEST DUP2 GT ISZERO PUSH2 0x4E6B JUMPI DUP1 DUP4 PUSH1 0xF ADD DUP2 SWAP1 SSTORE POP DUP2 DUP4 PUSH1 0xE ADD PUSH1 0x0 DUP3 DUP3 SLOAD PUSH2 0x4E60 SWAP2 SWAP1 PUSH2 0x5DBE JUMP JUMPDEST SWAP1 SWAP2 SSTORE POP PUSH2 0xA4C SWAP1 POP JUMP JUMPDEST DUP2 DUP4 PUSH1 0xE ADD PUSH1 0x0 DUP3 DUP3 SLOAD PUSH2 0x4E60 SWAP2 SWAP1 PUSH2 0x5DBE JUMP JUMPDEST PUSH1 0xCF SLOAD PUSH5 0x100000000 SWAP1 DIV PUSH1 0xFF AND ISZERO PUSH2 0xA4C JUMPI PUSH1 0x10 DUP4 ADD SLOAD PUSH1 0xFF AND PUSH1 0x0 SWAP1 DUP2 MSTORE PUSH1 0xD8 PUSH1 0x20 MSTORE PUSH1 0x40 SWAP1 KECCAK256 PUSH1 0x5 ADD SLOAD PUSH2 0x4EB7 SWAP1 DUP5 SWAP1 PUSH2 0x3E8F JUMP JUMPDEST PUSH1 0x10 DUP4 ADD SLOAD PUSH1 0xFF SWAP1 DUP2 AND PUSH1 0x0 SWAP1 DUP2 MSTORE PUSH1 0xD8 PUSH1 0x20 MSTORE PUSH1 0x40 DUP1 DUP3 KECCAK256 PUSH1 0x5 DUP2 ADD SLOAD SWAP1 SLOAD DUP8 SLOAD SWAP3 MLOAD SWAP2 SWAP5 AND SWAP3 PUSH4 0xFFFFFFFF SWAP1 SWAP3 AND SWAP2 PUSH32 0xDEAF5B294F5016988108257045FC779D7D01E05A4ECDC4DF70F62D5A799E053B SWAP2 LOG4 POP POP POP JUMP JUMPDEST PUSH1 0xD2 SLOAD PUSH1 0xD1 SLOAD PUSH2 0x4F20 SWAP2 SWAP1 PUSH2 0x5DBE JUMP JUMPDEST DUP2 GT ISZERO PUSH2 0x4F2F JUMPI PUSH1 0xD1 SSTORE PUSH1 0xD0 SSTORE JUMP JUMPDEST DUP2 PUSH1 0xD0 PUSH1 0x0 DUP3 DUP3 SLOAD PUSH2 0x331E SWAP2 SWAP1 PUSH2 0x5DBE JUMP JUMPDEST PUSH1 0x0 SLOAD PUSH2 0x100 SWAP1 DIV PUSH1 0xFF AND PUSH2 0x4F68 JUMPI PUSH1 0x40 MLOAD PUSH3 0x461BCD PUSH1 0xE5 SHL DUP2 MSTORE PUSH1 0x4 ADD PUSH2 0x1151 SWAP1 PUSH2 0x5E9C JUMP JUMPDEST PUSH2 0x1F00 CALLER PUSH2 0x3F19 JUMP JUMPDEST PUSH2 0x4F7A DUP2 PUSH2 0x4487 JUMP JUMPDEST PUSH1 0x40 MLOAD PUSH1 0x1 PUSH1 0x1 PUSH1 0xA0 SHL SUB DUP3 AND SWAP1 PUSH32 0xBC7CD75A20EE27FD9ADEBAB32041F755214DBC6BFFA90CC0225B39DA2E5C2D3B SWAP1 PUSH1 0x0 SWAP1 LOG2 POP JUMP JUMPDEST PUSH1 0x60 PUSH1 0x1 PUSH1 0x1 PUSH1 0xA0 SHL SUB DUP4 AND EXTCODESIZE PUSH2 0x5019 JUMPI PUSH1 0x40 MLOAD PUSH3 0x461BCD PUSH1 0xE5 SHL DUP2 MSTORE PUSH1 0x20 PUSH1 0x4 DUP3 ADD MSTORE PUSH1 0x26 PUSH1 0x24 DUP3 ADD MSTORE PUSH32 0x416464726573733A2064656C65676174652063616C6C20746F206E6F6E2D636F PUSH1 0x44 DUP3 ADD MSTORE PUSH6 0x1B9D1C9858DD PUSH1 0xD2 SHL PUSH1 0x64 DUP3 ADD MSTORE PUSH1 0x84 ADD PUSH2 0x1151 JUMP JUMPDEST PUSH1 0x0 DUP1 DUP5 PUSH1 0x1 PUSH1 0x1 PUSH1 0xA0 SHL SUB AND DUP5 PUSH1 0x40 MLOAD PUSH2 0x5034 SWAP2 SWAP1 PUSH2 0x5EE7 JUMP JUMPDEST PUSH1 0x0 PUSH1 0x40 MLOAD DUP1 DUP4 SUB DUP2 DUP6 GAS DELEGATECALL SWAP2 POP POP RETURNDATASIZE DUP1 PUSH1 0x0 DUP2 EQ PUSH2 0x506F JUMPI PUSH1 0x40 MLOAD SWAP2 POP PUSH1 0x1F NOT PUSH1 0x3F RETURNDATASIZE ADD AND DUP3 ADD PUSH1 0x40 MSTORE RETURNDATASIZE DUP3 MSTORE RETURNDATASIZE PUSH1 0x0 PUSH1 0x20 DUP5 ADD RETURNDATACOPY PUSH2 0x5074 JUMP JUMPDEST PUSH1 0x60 SWAP2 POP JUMPDEST POP SWAP2 POP SWAP2 POP PUSH2 0x509C DUP3 DUP3 PUSH1 0x40 MLOAD DUP1 PUSH1 0x60 ADD PUSH1 0x40 MSTORE DUP1 PUSH1 0x27 DUP2 MSTORE PUSH1 0x20 ADD PUSH2 0x5F37 PUSH1 0x27 SWAP2 CODECOPY PUSH2 0x50A7 JUMP JUMPDEST SWAP3 POP POP POP JUMPDEST SWAP3 SWAP2 POP POP JUMP JUMPDEST PUSH1 0x60 DUP4 ISZERO PUSH2 0x50B6 JUMPI POP DUP2 PUSH2 0x35DE JUMP JUMPDEST PUSH2 0x35DE DUP4 DUP4 DUP2 MLOAD ISZERO PUSH2 0x50CB JUMPI DUP2 MLOAD DUP1 DUP4 PUSH1 0x20 ADD REVERT JUMPDEST DUP1 PUSH1 0x40 MLOAD PUSH3 0x461BCD PUSH1 0xE5 SHL DUP2 MSTORE PUSH1 0x4 ADD PUSH2 0x1151 SWAP2 SWAP1 PUSH2 0x5F03 JUMP JUMPDEST DUP3 DUP1 SLOAD DUP3 DUP3 SSTORE SWAP1 PUSH1 0x0 MSTORE PUSH1 0x20 PUSH1 0x0 KECCAK256 SWAP1 PUSH1 0xF ADD PUSH1 0x10 SWAP1 DIV DUP2 ADD SWAP3 DUP3 ISZERO PUSH2 0x517D JUMPI SWAP2 PUSH1 0x20 MUL DUP3 ADD PUSH1 0x0 JUMPDEST DUP4 DUP3 GT ISZERO PUSH2 0x514D JUMPI DUP4 MLOAD DUP4 DUP3 PUSH2 0x100 EXP DUP2 SLOAD DUP2 PUSH2 0xFFFF MUL NOT AND SWAP1 DUP4 PUSH1 0xFF AND MUL OR SWAP1 SSTORE POP SWAP3 PUSH1 0x20 ADD SWAP3 PUSH1 0x2 ADD PUSH1 0x20 DUP2 PUSH1 0x1 ADD DIV SWAP3 DUP4 ADD SWAP3 PUSH1 0x1 SUB MUL PUSH2 0x510E JUMP JUMPDEST DUP1 ISZERO PUSH2 0x517B JUMPI DUP3 DUP2 PUSH2 0x100 EXP DUP2 SLOAD SWAP1 PUSH2 0xFFFF MUL NOT AND SWAP1 SSTORE PUSH1 0x2 ADD PUSH1 0x20 DUP2 PUSH1 0x1 ADD DIV SWAP3 DUP4 ADD SWAP3 PUSH1 0x1 SUB MUL PUSH2 0x514D JUMP JUMPDEST POP JUMPDEST POP PUSH2 0x5189 SWAP3 SWAP2 POP PUSH2 0x5295 JUMP JUMPDEST POP SWAP1 JUMP JUMPDEST DUP3 DUP1 SLOAD DUP3 DUP3 SSTORE SWAP1 PUSH1 0x0 MSTORE PUSH1 0x20 PUSH1 0x0 KECCAK256 SWAP1 PUSH1 0xF ADD PUSH1 0x10 SWAP1 DIV DUP2 ADD SWAP3 DUP3 ISZERO PUSH2 0x517D JUMPI SWAP2 PUSH1 0x20 MUL DUP3 ADD PUSH1 0x0 JUMPDEST DUP4 DUP3 GT ISZERO PUSH2 0x514D JUMPI DUP4 CALLDATALOAD PUSH1 0xFF AND DUP4 DUP3 PUSH2 0x100 EXP DUP2 SLOAD DUP2 PUSH2 0xFFFF MUL NOT AND SWAP1 DUP4 PUSH1 0xFF AND MUL OR SWAP1 SSTORE POP SWAP3 PUSH1 0x20 ADD SWAP3 PUSH1 0x2 ADD PUSH1 0x20 DUP2 PUSH1 0x1 ADD DIV SWAP3 DUP4 ADD SWAP3 PUSH1 0x1 SUB MUL PUSH2 0x51B6 JUMP JUMPDEST DUP3 DUP1 SLOAD DUP3 DUP3 SSTORE SWAP1 PUSH1 0x0 MSTORE PUSH1 0x20 PUSH1 0x0 KECCAK256 SWAP1 PUSH1 0x7 ADD PUSH1 0x8 SWAP1 DIV DUP2 ADD SWAP3 DUP3 ISZERO PUSH2 0x517D JUMPI SWAP2 PUSH1 0x20 MUL DUP3 ADD PUSH1 0x0 JUMPDEST DUP4 DUP3 GT ISZERO PUSH2 0x5265 JUMPI DUP4 MLOAD DUP4 DUP3 PUSH2 0x100 EXP DUP2 SLOAD DUP2 PUSH4 0xFFFFFFFF MUL NOT AND SWAP1 DUP4 PUSH4 0xFFFFFFFF AND MUL OR SWAP1 SSTORE POP SWAP3 PUSH1 0x20 ADD SWAP3 PUSH1 0x4 ADD PUSH1 0x20 DUP2 PUSH1 0x3 ADD DIV SWAP3 DUP4 ADD SWAP3 PUSH1 0x1 SUB MUL PUSH2 0x5221 JUMP JUMPDEST DUP1 ISZERO PUSH2 0x517B JUMPI DUP3 DUP2 PUSH2 0x100 EXP DUP2 SLOAD SWAP1 PUSH4 0xFFFFFFFF MUL NOT AND SWAP1 SSTORE PUSH1 0x4 ADD PUSH1 0x20 DUP2 PUSH1 0x3 ADD DIV SWAP3 DUP4 ADD SWAP3 PUSH1 0x1 SUB MUL PUSH2 0x5265 JUMP JUMPDEST JUMPDEST DUP1 DUP3 GT ISZERO PUSH2 0x5189 JUMPI PUSH1 0x0 DUP2 SSTORE PUSH1 0x1 ADD PUSH2 0x5296 JUMP JUMPDEST DUP1 CALLDATALOAD PUSH1 0xFF DUP2 AND DUP2 EQ PUSH2 0x52BB JUMPI PUSH1 0x0 DUP1 REVERT JUMPDEST SWAP2 SWAP1 POP JUMP JUMPDEST PUSH1 0x0 PUSH1 0x20 DUP3 DUP5 SUB SLT ISZERO PUSH2 0x52D2 JUMPI PUSH1 0x0 DUP1 REVERT JUMPDEST PUSH2 0x35DE DUP3 PUSH2 0x52AA JUMP JUMPDEST PUSH1 0x20 DUP1 DUP3 MSTORE DUP3 MLOAD DUP3 DUP3 ADD DUP2 SWAP1 MSTORE PUSH1 0x0 SWAP2 SWAP1 DUP5 DUP3 ADD SWAP1 PUSH1 0x40 DUP6 ADD SWAP1 DUP5 JUMPDEST DUP2 DUP2 LT ISZERO PUSH2 0x5319 JUMPI DUP4 MLOAD PUSH4 0xFFFFFFFF AND DUP4 MSTORE SWAP3 DUP5 ADD SWAP3 SWAP2 DUP5 ADD SWAP2 PUSH1 0x1 ADD PUSH2 0x52F7 JUMP JUMPDEST POP SWAP1 SWAP7 SWAP6 POP POP POP POP POP POP JUMP JUMPDEST PUSH1 0x1 PUSH1 0x1 PUSH1 0xA0 SHL SUB DUP2 AND DUP2 EQ PUSH2 0x13C2 JUMPI PUSH1 0x0 DUP1 REVERT JUMPDEST PUSH1 0x0 DUP1 PUSH1 0x40 DUP4 DUP6 SUB SLT ISZERO PUSH2 0x534D JUMPI PUSH1 0x0 DUP1 REVERT JUMPDEST DUP3 CALLDATALOAD PUSH2 0x5358 DUP2 PUSH2 0x5325 JUMP JUMPDEST SWAP5 PUSH1 0x20 SWAP4 SWAP1 SWAP4 ADD CALLDATALOAD SWAP4 POP POP POP JUMP JUMPDEST PUSH1 0x0 PUSH1 0x20 DUP3 DUP5 SUB SLT ISZERO PUSH2 0x5378 JUMPI PUSH1 0x0 DUP1 REVERT JUMPDEST POP CALLDATALOAD SWAP2 SWAP1 POP JUMP JUMPDEST PUSH4 0xFFFFFFFF DUP2 AND DUP2 EQ PUSH2 0x13C2 JUMPI PUSH1 0x0 DUP1 REVERT JUMPDEST PUSH1 0x0 PUSH1 0x20 DUP3 DUP5 SUB SLT ISZERO PUSH2 0x53A3 JUMPI PUSH1 0x0 DUP1 REVERT JUMPDEST DUP2 CALLDATALOAD PUSH2 0x35DE DUP2 PUSH2 0x537F JUMP JUMPDEST PUSH1 0x0 JUMPDEST DUP4 DUP2 LT ISZERO PUSH2 0x53C9 JUMPI DUP2 DUP2 ADD MLOAD DUP4 DUP3 ADD MSTORE PUSH1 0x20 ADD PUSH2 0x53B1 JUMP JUMPDEST POP POP PUSH1 0x0 SWAP2 ADD MSTORE JUMP JUMPDEST PUSH1 0x0 DUP2 MLOAD DUP1 DUP5 MSTORE PUSH2 0x53EA DUP2 PUSH1 0x20 DUP7 ADD PUSH1 0x20 DUP7 ADD PUSH2 0x53AE JUMP JUMPDEST PUSH1 0x1F ADD PUSH1 0x1F NOT AND SWAP3 SWAP1 SWAP3 ADD PUSH1 0x20 ADD SWAP3 SWAP2 POP POP JUMP JUMPDEST PUSH1 0x0 DUP2 MLOAD DUP1 DUP5 MSTORE PUSH1 0x20 DUP1 DUP6 ADD SWAP5 POP DUP1 DUP5 ADD PUSH1 0x0 JUMPDEST DUP4 DUP2 LT ISZERO PUSH2 0x5434 JUMPI DUP2 MLOAD PUSH4 0xFFFFFFFF AND DUP8 MSTORE SWAP6 DUP3 ADD SWAP6 SWAP1 DUP3 ADD SWAP1 PUSH1 0x1 ADD PUSH2 0x5412 JUMP JUMPDEST POP SWAP5 SWAP6 SWAP5 POP POP POP POP POP JUMP JUMPDEST PUSH1 0x0 DUP2 MLOAD DUP1 DUP5 MSTORE PUSH1 0x20 DUP1 DUP6 ADD SWAP5 POP DUP1 DUP5 ADD PUSH1 0x0 JUMPDEST DUP4 DUP2 LT ISZERO PUSH2 0x5434 JUMPI DUP2 MLOAD DUP8 MSTORE SWAP6 DUP3 ADD SWAP6 SWAP1 DUP3 ADD SWAP1 PUSH1 0x1 ADD PUSH2 0x5453 JUMP JUMPDEST PUSH1 0x20 DUP2 MSTORE PUSH2 0x5486 PUSH1 0x20 DUP3 ADD DUP4 MLOAD PUSH4 0xFFFFFFFF AND SWAP1 MSTORE JUMP JUMPDEST PUSH1 0x0 PUSH1 0x20 DUP4 ADD MLOAD PUSH2 0x480 DUP1 PUSH1 0x40 DUP6 ADD MSTORE PUSH2 0x54A4 PUSH2 0x4A0 DUP6 ADD DUP4 PUSH2 0x53D2 JUMP JUMPDEST SWAP2 POP PUSH1 0x40 DUP6 ADD MLOAD PUSH1 0x60 DUP6 ADD MSTORE PUSH1 0x60 DUP6 ADD MLOAD PUSH2 0x54C3 PUSH1 0x80 DUP7 ADD DUP3 ISZERO ISZERO SWAP1 MSTORE JUMP JUMPDEST POP PUSH1 0x80 DUP6 ADD MLOAD PUSH1 0x1 PUSH1 0x1 PUSH1 0xA0 SHL SUB DUP2 AND PUSH1 0xA0 DUP7 ADD MSTORE POP PUSH1 0xA0 DUP6 ADD MLOAD PUSH4 0xFFFFFFFF DUP2 AND PUSH1 0xC0 DUP7 ADD MSTORE POP PUSH1 0xC0 DUP6 ADD MLOAD DUP1 ISZERO ISZERO PUSH1 0xE0 DUP7 ADD MSTORE POP PUSH1 0xE0 DUP6 ADD MLOAD PUSH1 0x1F NOT PUSH2 0x100 DUP2 DUP8 DUP7 SUB ADD DUP2 DUP9 ADD MSTORE PUSH2 0x5517 DUP6 DUP5 PUSH2 0x53FE JUMP JUMPDEST SWAP5 POP DUP1 DUP9 ADD MLOAD SWAP3 POP POP PUSH2 0x120 DUP2 DUP8 DUP7 SUB ADD DUP2 DUP9 ADD MSTORE PUSH2 0x5536 DUP6 DUP5 PUSH2 0x53FE JUMP JUMPDEST SWAP5 POP DUP1 DUP9 ADD MLOAD SWAP3 POP POP PUSH2 0x140 DUP2 DUP8 DUP7 SUB ADD DUP2 DUP9 ADD MSTORE PUSH2 0x5555 DUP6 DUP5 PUSH2 0x53FE JUMP JUMPDEST SWAP5 POP DUP1 DUP9 ADD MLOAD SWAP3 POP POP PUSH2 0x160 DUP2 DUP8 DUP7 SUB ADD DUP2 DUP9 ADD MSTORE PUSH2 0x5574 DUP6 DUP5 PUSH2 0x543F JUMP JUMPDEST SWAP1 DUP9 ADD MLOAD PUSH2 0x180 DUP9 DUP2 ADD SWAP2 SWAP1 SWAP2 MSTORE DUP9 ADD MLOAD PUSH2 0x1A0 DUP1 DUP10 ADD SWAP2 SWAP1 SWAP2 MSTORE DUP9 ADD MLOAD PUSH2 0x1C0 DUP1 DUP10 ADD SWAP2 SWAP1 SWAP2 MSTORE DUP9 ADD MLOAD PUSH2 0x1E0 DUP1 DUP10 ADD SWAP2 SWAP1 SWAP2 MSTORE DUP9 ADD MLOAD PUSH2 0x200 DUP1 DUP10 ADD SWAP2 SWAP1 SWAP2 MSTORE DUP9 ADD MLOAD PUSH2 0x220 DUP1 DUP10 ADD SWAP2 SWAP1 SWAP2 MSTORE DUP9 ADD MLOAD PUSH2 0x240 DUP1 DUP10 ADD SWAP2 SWAP1 SWAP2 MSTORE DUP9 ADD MLOAD PUSH2 0x260 DUP1 DUP10 ADD SWAP2 SWAP1 SWAP2 MSTORE DUP9 ADD MLOAD SWAP1 SWAP5 POP SWAP2 POP PUSH2 0x280 PUSH2 0x55F6 DUP2 DUP9 ADD DUP5 PUSH1 0xFF AND SWAP1 MSTORE JUMP JUMPDEST DUP8 ADD MLOAD SWAP2 POP PUSH2 0x2A0 PUSH2 0x560F DUP8 DUP3 ADD DUP5 PUSH4 0xFFFFFFFF AND SWAP1 MSTORE JUMP JUMPDEST DUP8 ADD MLOAD PUSH2 0x2C0 DUP8 DUP2 ADD SWAP2 SWAP1 SWAP2 MSTORE DUP8 ADD MLOAD PUSH2 0x2E0 DUP1 DUP9 ADD SWAP2 SWAP1 SWAP2 MSTORE DUP8 ADD MLOAD PUSH2 0x300 DUP1 DUP9 ADD SWAP2 SWAP1 SWAP2 MSTORE DUP8 ADD MLOAD PUSH2 0x320 DUP1 DUP9 ADD SWAP2 SWAP1 SWAP2 MSTORE DUP8 ADD MLOAD PUSH2 0x340 DUP1 DUP9 ADD SWAP2 SWAP1 SWAP2 MSTORE DUP8 ADD MLOAD PUSH2 0x360 DUP1 DUP9 ADD SWAP2 SWAP1 SWAP2 MSTORE DUP8 ADD MLOAD PUSH2 0x380 DUP1 DUP9 ADD SWAP2 SWAP1 SWAP2 MSTORE DUP8 ADD MLOAD DUP7 DUP6 SUB DUP3 ADD PUSH2 0x3A0 DUP1 DUP10 ADD SWAP2 SWAP1 SWAP2 MSTORE SWAP1 SWAP3 POP PUSH2 0x5689 DUP6 DUP5 PUSH2 0x53FE JUMP JUMPDEST SWAP1 DUP9 ADD MLOAD PUSH2 0x3C0 DUP9 DUP2 ADD SWAP2 SWAP1 SWAP2 MSTORE DUP9 ADD MLOAD PUSH2 0x3E0 DUP1 DUP10 ADD SWAP2 SWAP1 SWAP2 MSTORE DUP9 ADD MLOAD PUSH2 0x400 DUP1 DUP10 ADD SWAP2 SWAP1 SWAP2 MSTORE DUP9 ADD MLOAD SWAP1 SWAP5 POP SWAP2 POP PUSH2 0x420 SWAP1 POP PUSH2 0x56CB DUP2 DUP8 ADD DUP4 ISZERO ISZERO SWAP1 MSTORE JUMP JUMPDEST DUP7 ADD MLOAD SWAP1 POP PUSH2 0x440 PUSH2 0x56E0 DUP7 DUP3 ADD DUP4 ISZERO ISZERO SWAP1 MSTORE JUMP JUMPDEST DUP7 ADD MLOAD SWAP1 POP PUSH2 0x460 PUSH2 0x56F5 DUP7 DUP3 ADD DUP4 ISZERO ISZERO SWAP1 MSTORE JUMP JUMPDEST SWAP1 SWAP6 ADD MLOAD ISZERO ISZERO SWAP4 ADD SWAP3 SWAP1 SWAP3 MSTORE POP SWAP2 SWAP1 POP JUMP JUMPDEST PUSH1 0x0 PUSH1 0x20 DUP3 DUP5 SUB SLT ISZERO PUSH2 0x5719 JUMPI PUSH1 0x0 DUP1 REVERT JUMPDEST DUP2 CALLDATALOAD PUSH2 0x35DE DUP2 PUSH2 0x5325 JUMP JUMPDEST PUSH1 0x0 DUP1 PUSH1 0x40 DUP4 DUP6 SUB SLT ISZERO PUSH2 0x5737 JUMPI PUSH1 0x0 DUP1 REVERT JUMPDEST DUP3 CALLDATALOAD SWAP2 POP PUSH1 0x20 DUP4 ADD CALLDATALOAD PUSH2 0x5749 DUP2 PUSH2 0x537F JUMP JUMPDEST DUP1 SWAP2 POP POP SWAP3 POP SWAP3 SWAP1 POP JUMP JUMPDEST PUSH4 0x4E487B71 PUSH1 0xE0 SHL PUSH1 0x0 MSTORE PUSH1 0x41 PUSH1 0x4 MSTORE PUSH1 0x24 PUSH1 0x0 REVERT JUMPDEST PUSH1 0x0 PUSH8 0xFFFFFFFFFFFFFFFF DUP1 DUP5 GT ISZERO PUSH2 0x5785 JUMPI PUSH2 0x5785 PUSH2 0x5754 JUMP JUMPDEST PUSH1 0x40 MLOAD PUSH1 0x1F DUP6 ADD PUSH1 0x1F NOT SWAP1 DUP2 AND PUSH1 0x3F ADD AND DUP2 ADD SWAP1 DUP3 DUP3 GT DUP2 DUP4 LT OR ISZERO PUSH2 0x57AD JUMPI PUSH2 0x57AD PUSH2 0x5754 JUMP JUMPDEST DUP2 PUSH1 0x40 MSTORE DUP1 SWAP4 POP DUP6 DUP2 MSTORE DUP7 DUP7 DUP7 ADD GT ISZERO PUSH2 0x57C6 JUMPI PUSH1 0x0 DUP1 REVERT JUMPDEST DUP6 DUP6 PUSH1 0x20 DUP4 ADD CALLDATACOPY PUSH1 0x0 PUSH1 0x20 DUP8 DUP4 ADD ADD MSTORE POP POP POP SWAP4 SWAP3 POP POP POP JUMP JUMPDEST DUP1 ISZERO ISZERO DUP2 EQ PUSH2 0x13C2 JUMPI PUSH1 0x0 DUP1 REVERT JUMPDEST DUP1 CALLDATALOAD PUSH2 0x52BB DUP2 PUSH2 0x57E0 JUMP JUMPDEST PUSH1 0x0 DUP1 PUSH1 0x0 DUP1 PUSH1 0x0 DUP1 PUSH1 0x0 DUP1 PUSH1 0x0 PUSH2 0x120 DUP11 DUP13 SUB SLT ISZERO PUSH2 0x5818 JUMPI PUSH1 0x0 DUP1 REVERT JUMPDEST PUSH2 0x5821 DUP11 PUSH2 0x52AA JUMP JUMPDEST SWAP9 POP PUSH1 0x20 DUP11 ADD CALLDATALOAD SWAP8 POP PUSH1 0x40 DUP11 ADD CALLDATALOAD SWAP7 POP PUSH1 0x60 DUP11 ADD CALLDATALOAD SWAP6 POP PUSH1 0x80 DUP11 ADD CALLDATALOAD PUSH8 0xFFFFFFFFFFFFFFFF DUP2 GT ISZERO PUSH2 0x5852 JUMPI PUSH1 0x0 DUP1 REVERT JUMPDEST DUP11 ADD PUSH1 0x1F DUP2 ADD DUP13 SGT PUSH2 0x5863 JUMPI PUSH1 0x0 DUP1 REVERT JUMPDEST PUSH2 0x5872 DUP13 DUP3 CALLDATALOAD PUSH1 0x20 DUP5 ADD PUSH2 0x576A JUMP JUMPDEST SWAP6 POP POP PUSH1 0xA0 DUP11 ADD CALLDATALOAD SWAP4 POP PUSH1 0xC0 DUP11 ADD CALLDATALOAD SWAP3 POP PUSH1 0xE0 DUP11 ADD CALLDATALOAD SWAP2 POP PUSH2 0x5897 PUSH2 0x100 DUP12 ADD PUSH2 0x57EE JUMP JUMPDEST SWAP1 POP SWAP3 SWAP6 SWAP9 POP SWAP3 SWAP6 SWAP9 POP SWAP3 SWAP6 SWAP9 JUMP JUMPDEST PUSH1 0x0 DUP1 PUSH1 0x40 DUP4 DUP6 SUB SLT ISZERO PUSH2 0x58B9 JUMPI PUSH1 0x0 DUP1 REVERT JUMPDEST DUP3 CALLDATALOAD PUSH2 0x58C4 DUP2 PUSH2 0x5325 JUMP JUMPDEST SWAP2 POP PUSH1 0x20 DUP4 ADD CALLDATALOAD PUSH8 0xFFFFFFFFFFFFFFFF DUP2 GT ISZERO PUSH2 0x58E0 JUMPI PUSH1 0x0 DUP1 REVERT JUMPDEST DUP4 ADD PUSH1 0x1F DUP2 ADD DUP6 SGT PUSH2 0x58F1 JUMPI PUSH1 0x0 DUP1 REVERT JUMPDEST PUSH2 0x5900 DUP6 DUP3 CALLDATALOAD PUSH1 0x20 DUP5 ADD PUSH2 0x576A JUMP JUMPDEST SWAP2 POP POP SWAP3 POP SWAP3 SWAP1 POP JUMP JUMPDEST PUSH1 0x0 DUP1 PUSH1 0x40 DUP4 DUP6 SUB SLT ISZERO PUSH2 0x591D JUMPI PUSH1 0x0 DUP1 REVERT JUMPDEST DUP3 CALLDATALOAD PUSH2 0x5358 DUP2 PUSH2 0x537F JUMP JUMPDEST PUSH1 0x20 DUP2 MSTORE PUSH2 0x593C PUSH1 0x20 DUP3 ADD DUP4 MLOAD PUSH1 0xFF AND SWAP1 MSTORE JUMP JUMPDEST PUSH1 0x20 DUP3 ADD MLOAD PUSH1 0x40 DUP3 ADD MSTORE PUSH1 0x40 DUP3 ADD MLOAD PUSH1 0x60 DUP3 ADD MSTORE PUSH1 0x60 DUP3 ADD MLOAD PUSH1 0x80 DUP3 ADD MSTORE PUSH1 0x0 PUSH1 0x80 DUP4 ADD MLOAD PUSH2 0x140 DUP1 PUSH1 0xA0 DUP6 ADD MSTORE PUSH2 0x5978 PUSH2 0x160 DUP6 ADD DUP4 PUSH2 0x53D2 JUMP JUMPDEST SWAP2 POP PUSH1 0xA0 DUP6 ADD MLOAD PUSH1 0xC0 DUP6 ADD MSTORE PUSH1 0xC0 DUP6 ADD MLOAD PUSH1 0xE0 DUP6 ADD MSTORE PUSH1 0xE0 DUP6 ADD MLOAD PUSH2 0x100 DUP2 DUP2 DUP8 ADD MSTORE DUP1 DUP8 ADD MLOAD SWAP2 POP POP PUSH2 0x120 PUSH2 0x59B2 DUP2 DUP8 ADD DUP4 ISZERO ISZERO SWAP1 MSTORE JUMP JUMPDEST DUP7 ADD MLOAD DUP6 DUP5 SUB PUSH1 0x1F NOT ADD DUP4 DUP8 ADD MSTORE SWAP1 POP PUSH2 0x59CC DUP4 DUP3 PUSH2 0x53FE JUMP JUMPDEST SWAP7 SWAP6 POP POP POP POP POP POP JUMP JUMPDEST PUSH1 0x0 DUP1 PUSH1 0x0 DUP1 PUSH1 0x0 DUP1 PUSH1 0x0 PUSH1 0xE0 DUP9 DUP11 SUB SLT ISZERO PUSH2 0x59F1 JUMPI PUSH1 0x0 DUP1 REVERT JUMPDEST DUP8 CALLDATALOAD PUSH2 0x59FC DUP2 PUSH2 0x5325 JUMP JUMPDEST SWAP7 POP PUSH1 0x20 DUP9 ADD CALLDATALOAD PUSH2 0x5A0C DUP2 PUSH2 0x537F JUMP JUMPDEST SWAP7 SWAP10 SWAP7 SWAP9 POP POP POP POP PUSH1 0x40 DUP6 ADD CALLDATALOAD SWAP5 PUSH1 0x60 DUP2 ADD CALLDATALOAD SWAP5 PUSH1 0x80 DUP3 ADD CALLDATALOAD SWAP5 POP PUSH1 0xA0 DUP3 ADD CALLDATALOAD SWAP4 POP PUSH1 0xC0 SWAP1 SWAP2 ADD CALLDATALOAD SWAP2 POP JUMP JUMPDEST PUSH1 0x0 PUSH1 0x20 DUP3 DUP5 SUB SLT ISZERO PUSH2 0x5A4A JUMPI PUSH1 0x0 DUP1 REVERT JUMPDEST DUP2 CALLDATALOAD PUSH2 0xFFFF DUP2 AND DUP2 EQ PUSH2 0x35DE JUMPI PUSH1 0x0 DUP1 REVERT JUMPDEST PUSH1 0x0 DUP1 PUSH1 0x20 DUP4 DUP6 SUB SLT ISZERO PUSH2 0x5A6F JUMPI PUSH1 0x0 DUP1 REVERT JUMPDEST DUP3 CALLDATALOAD PUSH8 0xFFFFFFFFFFFFFFFF DUP1 DUP3 GT ISZERO PUSH2 0x5A87 JUMPI PUSH1 0x0 DUP1 REVERT JUMPDEST DUP2 DUP6 ADD SWAP2 POP DUP6 PUSH1 0x1F DUP4 ADD SLT PUSH2 0x5A9B JUMPI PUSH1 0x0 DUP1 REVERT JUMPDEST DUP2 CALLDATALOAD DUP2 DUP2 GT ISZERO PUSH2 0x5AAA JUMPI PUSH1 0x0 DUP1 REVERT JUMPDEST DUP7 PUSH1 0x20 DUP3 PUSH1 0x5 SHL DUP6 ADD ADD GT ISZERO PUSH2 0x5ABF JUMPI PUSH1 0x0 DUP1 REVERT JUMPDEST PUSH1 0x20 SWAP3 SWAP1 SWAP3 ADD SWAP7 SWAP2 SWAP6 POP SWAP1 SWAP4 POP POP POP POP JUMP JUMPDEST PUSH1 0x20 DUP2 MSTORE DUP2 MLOAD ISZERO ISZERO PUSH1 0x20 DUP3 ADD MSTORE PUSH1 0x0 PUSH1 0x20 DUP4 ADD MLOAD PUSH1 0x60 PUSH1 0x40 DUP5 ADD MSTORE PUSH2 0x5AF9 PUSH1 0x80 DUP5 ADD DUP3 PUSH2 0x53FE JUMP JUMPDEST SWAP1 POP PUSH1 0x40 DUP5 ADD MLOAD PUSH1 0x1F NOT DUP5 DUP4 SUB ADD PUSH1 0x60 DUP6 ADD MSTORE PUSH2 0x509C DUP3 DUP3 PUSH2 0x53D2 JUMP JUMPDEST PUSH1 0x1 DUP2 DUP2 SHR SWAP1 DUP3 AND DUP1 PUSH2 0x5B2A JUMPI PUSH1 0x7F DUP3 AND SWAP2 POP JUMPDEST PUSH1 0x20 DUP3 LT DUP2 SUB PUSH2 0x5B4A JUMPI PUSH4 0x4E487B71 PUSH1 0xE0 SHL PUSH1 0x0 MSTORE PUSH1 0x22 PUSH1 0x4 MSTORE PUSH1 0x24 PUSH1 0x0 REVERT JUMPDEST POP SWAP2 SWAP1 POP JUMP JUMPDEST PUSH1 0x0 PUSH1 0x20 DUP3 DUP5 SUB SLT ISZERO PUSH2 0x5B62 JUMPI PUSH1 0x0 DUP1 REVERT JUMPDEST DUP2 MLOAD PUSH2 0x35DE DUP2 PUSH2 0x57E0 JUMP JUMPDEST PUSH4 0x4E487B71 PUSH1 0xE0 SHL PUSH1 0x0 MSTORE PUSH1 0x11 PUSH1 0x4 MSTORE PUSH1 0x24 PUSH1 0x0 REVERT JUMPDEST DUP1 DUP3 MUL DUP2 ISZERO DUP3 DUP3 DIV DUP5 EQ OR PUSH2 0x50A1 JUMPI PUSH2 0x50A1 PUSH2 0x5B6D JUMP JUMPDEST PUSH1 0x0 DUP3 PUSH2 0x5BB7 JUMPI PUSH4 0x4E487B71 PUSH1 0xE0 SHL PUSH1 0x0 MSTORE PUSH1 0x12 PUSH1 0x4 MSTORE PUSH1 0x24 PUSH1 0x0 REVERT JUMPDEST POP DIV SWAP1 JUMP JUMPDEST PUSH1 0x0 PUSH1 0x20 DUP3 DUP5 SUB SLT ISZERO PUSH2 0x5BCE JUMPI PUSH1 0x0 DUP1 REVERT JUMPDEST DUP2 MLOAD PUSH2 0x35DE DUP2 PUSH2 0x5325 JUMP JUMPDEST DUP2 DUP2 SUB DUP2 DUP2 GT ISZERO PUSH2 0x50A1 JUMPI PUSH2 0x50A1 PUSH2 0x5B6D JUMP JUMPDEST PUSH1 0x20 DUP1 DUP3 MSTORE PUSH1 0x2C SWAP1 DUP3 ADD MSTORE PUSH32 0x46756E6374696F6E206D7573742062652063616C6C6564207468726F75676820 PUSH1 0x40 DUP3 ADD MSTORE PUSH12 0x19195B1959D85D1958D85B1B PUSH1 0xA2 SHL PUSH1 0x60 DUP3 ADD MSTORE PUSH1 0x80 ADD SWAP1 JUMP JUMPDEST PUSH1 0x20 DUP1 DUP3 MSTORE PUSH1 0x2C SWAP1 DUP3 ADD MSTORE PUSH32 0x46756E6374696F6E206D7573742062652063616C6C6564207468726F75676820 PUSH1 0x40 DUP3 ADD MSTORE PUSH12 0x6163746976652070726F7879 PUSH1 0xA0 SHL PUSH1 0x60 DUP3 ADD MSTORE PUSH1 0x80 ADD SWAP1 JUMP JUMPDEST PUSH1 0x20 DUP1 DUP3 MSTORE PUSH1 0x12 SWAP1 DUP3 ADD MSTORE PUSH18 0x2CB7BA9030B932903737BA1030B236B4B717 PUSH1 0x71 SHL PUSH1 0x40 DUP3 ADD MSTORE PUSH1 0x60 ADD SWAP1 JUMP JUMPDEST PUSH1 0x1F DUP3 GT ISZERO PUSH2 0xA4C JUMPI PUSH1 0x0 DUP2 DUP2 MSTORE PUSH1 0x20 DUP2 KECCAK256 PUSH1 0x1F DUP6 ADD PUSH1 0x5 SHR DUP2 ADD PUSH1 0x20 DUP7 LT ISZERO PUSH2 0x5CD7 JUMPI POP DUP1 JUMPDEST PUSH1 0x1F DUP6 ADD PUSH1 0x5 SHR DUP3 ADD SWAP2 POP JUMPDEST DUP2 DUP2 LT ISZERO PUSH2 0x5CF6 JUMPI DUP3 DUP2 SSTORE PUSH1 0x1 ADD PUSH2 0x5CE3 JUMP JUMPDEST POP POP POP POP POP POP JUMP JUMPDEST DUP2 MLOAD PUSH8 0xFFFFFFFFFFFFFFFF DUP2 GT ISZERO PUSH2 0x5D18 JUMPI PUSH2 0x5D18 PUSH2 0x5754 JUMP JUMPDEST PUSH2 0x5D2C DUP2 PUSH2 0x5D26 DUP5 SLOAD PUSH2 0x5B16 JUMP JUMPDEST DUP5 PUSH2 0x5CB0 JUMP JUMPDEST PUSH1 0x20 DUP1 PUSH1 0x1F DUP4 GT PUSH1 0x1 DUP2 EQ PUSH2 0x5D61 JUMPI PUSH1 0x0 DUP5 ISZERO PUSH2 0x5D49 JUMPI POP DUP6 DUP4 ADD MLOAD JUMPDEST PUSH1 0x0 NOT PUSH1 0x3 DUP7 SWAP1 SHL SHR NOT AND PUSH1 0x1 DUP6 SWAP1 SHL OR DUP6 SSTORE PUSH2 0x5CF6 JUMP JUMPDEST PUSH1 0x0 DUP6 DUP2 MSTORE PUSH1 0x20 DUP2 KECCAK256 PUSH1 0x1F NOT DUP7 AND SWAP2 JUMPDEST DUP3 DUP2 LT ISZERO PUSH2 0x5D90 JUMPI DUP9 DUP7 ADD MLOAD DUP3 SSTORE SWAP5 DUP5 ADD SWAP5 PUSH1 0x1 SWAP1 SWAP2 ADD SWAP1 DUP5 ADD PUSH2 0x5D71 JUMP JUMPDEST POP DUP6 DUP3 LT ISZERO PUSH2 0x5DAE JUMPI DUP8 DUP6 ADD MLOAD PUSH1 0x0 NOT PUSH1 0x3 DUP9 SWAP1 SHL PUSH1 0xF8 AND SHR NOT AND DUP2 SSTORE JUMPDEST POP POP POP POP POP PUSH1 0x1 SWAP1 DUP2 SHL ADD SWAP1 SSTORE POP JUMP JUMPDEST DUP1 DUP3 ADD DUP1 DUP3 GT ISZERO PUSH2 0x50A1 JUMPI PUSH2 0x50A1 PUSH2 0x5B6D JUMP JUMPDEST PUSH4 0xFFFFFFFF DUP2 DUP2 AND DUP4 DUP3 AND ADD SWAP1 DUP1 DUP3 GT ISZERO PUSH2 0x5DEE JUMPI PUSH2 0x5DEE PUSH2 0x5B6D JUMP JUMPDEST POP SWAP3 SWAP2 POP POP JUMP JUMPDEST PUSH1 0x0 PUSH1 0x20 DUP3 DUP5 SUB SLT ISZERO PUSH2 0x5E07 JUMPI PUSH1 0x0 DUP1 REVERT JUMPDEST DUP2 MLOAD PUSH2 0x35DE DUP2 PUSH2 0x537F JUMP JUMPDEST PUSH1 0x0 PUSH4 0xFFFFFFFF DUP1 DUP4 AND DUP2 DUP2 SUB PUSH2 0x5E2B JUMPI PUSH2 0x5E2B PUSH2 0x5B6D JUMP JUMPDEST PUSH1 0x1 ADD SWAP4 SWAP3 POP POP POP JUMP JUMPDEST PUSH1 0x0 PUSH1 0x20 DUP3 DUP5 SUB SLT ISZERO PUSH2 0x5E47 JUMPI PUSH1 0x0 DUP1 REVERT JUMPDEST POP MLOAD SWAP2 SWAP1 POP JUMP JUMPDEST PUSH1 0xFF DUP2 DUP2 AND DUP4 DUP3 AND ADD SWAP1 DUP2 GT ISZERO PUSH2 0x50A1 JUMPI PUSH2 0x50A1 PUSH2 0x5B6D JUMP JUMPDEST PUSH4 0x4E487B71 PUSH1 0xE0 SHL PUSH1 0x0 MSTORE PUSH1 0x32 PUSH1 0x4 MSTORE PUSH1 0x24 PUSH1 0x0 REVERT JUMPDEST PUSH1 0x0 PUSH1 0xFF DUP3 AND PUSH1 0xFF DUP2 SUB PUSH2 0x5E93 JUMPI PUSH2 0x5E93 PUSH2 0x5B6D JUMP JUMPDEST PUSH1 0x1 ADD SWAP3 SWAP2 POP POP JUMP JUMPDEST PUSH1 0x20 DUP1 DUP3 MSTORE PUSH1 0x2B SWAP1 DUP3 ADD MSTORE PUSH32 0x496E697469616C697A61626C653A20636F6E7472616374206973206E6F742069 PUSH1 0x40 DUP3 ADD MSTORE PUSH11 0x6E697469616C697A696E67 PUSH1 0xA8 SHL PUSH1 0x60 DUP3 ADD MSTORE PUSH1 0x80 ADD SWAP1 JUMP JUMPDEST PUSH1 0x0 DUP3 MLOAD PUSH2 0x5EF9 DUP2 DUP5 PUSH1 0x20 DUP8 ADD PUSH2 0x53AE JUMP JUMPDEST SWAP2 SWAP1 SWAP2 ADD SWAP3 SWAP2 POP POP JUMP JUMPDEST PUSH1 0x20 DUP2 MSTORE PUSH1 0x0 PUSH2 0x35DE PUSH1 0x20 DUP4 ADD DUP5 PUSH2 0x53D2 JUMP INVALID CALLDATASIZE ADDMOD SWAP5 LOG1 EXTCODESIZE LOG1 LOG3 0x21 MOD PUSH8 0xC828492DB98DCA3E KECCAK256 PUSH23 0xCC3735A920A3CA505D382BBC416464726573733A206C6F PUSH24 0x2D6C6576656C2064656C65676174652063616C6C20666169 PUSH13 0x6564A264697066735822122017 0xCC 0xBE POP DUP14 0x1F GASLIMIT 0xFC PUSH12 0x90832910B68F242B67113D02 SWAP2 LOG0 ADDRESS SWAP13 STATICCALL EXTCODECOPY 0xE6 0xE6 0xFB RETURN INVALID PUSH5 0x736F6C6343 STOP ADDMOD SLT STOP CALLER "},"methodIdentifiers":{"activateId(uint32)":"bcb93f9b","activateIdAdmin(address,uint32,uint256,uint256,uint256,uint256,uint256)":"7cf97c8c","claimBalance(uint32)":"300825b5","companyTurnoverTimeLimit()":"f41bfeef","companyTurnoverTimeStamp()":"2ed421d2","companyTurnoverWithTimeLimit()":"22f88b52","decimals()":"313ce567","disableUserAdmin(address)":"9f4e8398","disabledUsersList(uint256)":"1319cff9","futureScureWalletContribution()":"cd21364d","getAchieversList(uint8)":"012da720","getIdAccount(uint32)":"21009789","getIdLimits(uint32)":"4e6e93a3","getIdRoyaltyClubLevel(uint32)":"987dd4a7","getMinContributionETH()":"1f9e65e4","getRoyaltyClubPackageInfo(uint8)":"7bdbf996","getUserAccount(address)":"fb47e016","increaseBalanceAdmin(uint32,uint256)":"f396673c","increaseIdTopIncome(uint32,uint256)":"6ccc10ae","initialize()":"8129fc1c","isActivateROI()":"8af925dc","isPayReferral()":"7084431f","isPayRoyaltyClubBonus()":"fafc9597","levelRates(uint256)":"7879b5ef","maxLevels()":"6f38e410","minContributionUSD()":"8f84de85","owner()":"8da5cb5b","packagesCount()":"18e10bff","payReferralAdmin(uint256,uint32)":"498b3e55","proxiableUUID()":"52d1902d","renounceOwnership()":"715018a6","royaltyClubPackageCount()":"a28a3686","sendETHAdmin(address,uint256)":"0b243dad","setLevelDecimals(uint16)":"a43ae408","setLevelRates(uint8[])":"e1c715ba","setMaxLevelsAdmin(uint8)":"3eff2def","setMinContribution(uint256)":"473b0d46","setRoyaltyClubPackage(uint8,uint256,uint256,uint256,string,uint256,uint256,uint256,bool)":"4a750822","setRoyaltyPackageCount(uint8)":"4b5102b8","topUpId(uint32)":"a152b0f0","totalIds()":"390a5ba5","totalReferralPaid()":"7c599486","totalRoyaltyClubBonusPaid()":"852ff2fd","transferOwnership(address)":"f2fde38b","updateIdWhenClaimROI(uint32,uint256)":"509d6c52","updateTotalIds(uint32)":"5979369a","upgradeTo(address)":"3659cfe6","upgradeToAndCall(address,bytes)":"4f1ef286","users(uint256)":"365b98b2","withdrawETHAdmin()":"35759788","withdrawTokensAdmin(address,uint256)":"a0b6105f"}},"storageLayout":{"storage":[{"astId":527,"contract":"contracts/ReferralV4Upgradeable.sol:ReferralV4Upgradeable","label":"_initialized","offset":0,"slot":"0","type":"t_uint8"},{"astId":530,"contract":"contracts/ReferralV4Upgradeable.sol:ReferralV4Upgradeable","label":"_initializing","offset":1,"slot":"0","type":"t_bool"},{"astId":1228,"contract":"contracts/ReferralV4Upgradeable.sol:ReferralV4Upgradeable","label":"__gap","offset":0,"slot":"1","type":"t_array(t_uint256)50_storage"},{"astId":10,"contract":"contracts/ReferralV4Upgradeable.sol:ReferralV4Upgradeable","label":"_owner","offset":0,"slot":"51","type":"t_address"},{"astId":130,"contract":"contracts/ReferralV4Upgradeable.sol:ReferralV4Upgradeable","label":"__gap","offset":0,"slot":"52","type":"t_array(t_uint256)49_storage"},{"astId":509,"contract":"contracts/ReferralV4Upgradeable.sol:ReferralV4Upgradeable","label":"__gap","offset":0,"slot":"101","type":"t_array(t_uint256)50_storage"},{"astId":824,"contract":"contracts/ReferralV4Upgradeable.sol:ReferralV4Upgradeable","label":"__gap","offset":0,"slot":"151","type":"t_array(t_uint256)50_storage"},{"astId":1363,"contract":"contracts/ReferralV4Upgradeable.sol:ReferralV4Upgradeable","label":"_variablesContract","offset":0,"slot":"201","type":"t_address"},{"astId":1366,"contract":"contracts/ReferralV4Upgradeable.sol:ReferralV4Upgradeable","label":"levelRates","offset":0,"slot":"202","type":"t_array(t_uint16)dyn_storage"},{"astId":1368,"contract":"contracts/ReferralV4Upgradeable.sol:ReferralV4Upgradeable","label":"decimals","offset":0,"slot":"203","type":"t_uint16"},{"astId":1370,"contract":"contracts/ReferralV4Upgradeable.sol:ReferralV4Upgradeable","label":"maxLevels","offset":2,"slot":"203","type":"t_uint8"},{"astId":1372,"contract":"contracts/ReferralV4Upgradeable.sol:ReferralV4Upgradeable","label":"minContributionUSD","offset":0,"slot":"204","type":"t_uint256"},{"astId":1374,"contract":"contracts/ReferralV4Upgradeable.sol:ReferralV4Upgradeable","label":"totalRoyaltyClubBonusPaid","offset":0,"slot":"205","type":"t_uint256"},{"astId":1376,"contract":"contracts/ReferralV4Upgradeable.sol:ReferralV4Upgradeable","label":"totalReferralPaid","offset":0,"slot":"206","type":"t_uint256"},{"astId":1378,"contract":"contracts/ReferralV4Upgradeable.sol:ReferralV4Upgradeable","label":"totalIds","offset":0,"slot":"207","type":"t_uint32"},{"astId":1380,"contract":"contracts/ReferralV4Upgradeable.sol:ReferralV4Upgradeable","label":"isPayRoyaltyClubBonus","offset":4,"slot":"207","type":"t_bool"},{"astId":1382,"contract":"contracts/ReferralV4Upgradeable.sol:ReferralV4Upgradeable","label":"royaltyClubPackageCount","offset":5,"slot":"207","type":"t_uint8"},{"astId":1384,"contract":"contracts/ReferralV4Upgradeable.sol:ReferralV4Upgradeable","label":"_userLevelUnlockMultiplier","offset":6,"slot":"207","type":"t_uint8"},{"astId":1386,"contract":"contracts/ReferralV4Upgradeable.sol:ReferralV4Upgradeable","label":"companyTurnoverWithTimeLimit","offset":0,"slot":"208","type":"t_uint256"},{"astId":1388,"contract":"contracts/ReferralV4Upgradeable.sol:ReferralV4Upgradeable","label":"companyTurnoverTimeStamp","offset":0,"slot":"209","type":"t_uint256"},{"astId":1390,"contract":"contracts/ReferralV4Upgradeable.sol:ReferralV4Upgradeable","label":"companyTurnoverTimeLimit","offset":0,"slot":"210","type":"t_uint256"},{"astId":1393,"contract":"contracts/ReferralV4Upgradeable.sol:ReferralV4Upgradeable","label":"disabledUsersList","offset":0,"slot":"211","type":"t_array(t_address)dyn_storage"},{"astId":1396,"contract":"contracts/ReferralV4Upgradeable.sol:ReferralV4Upgradeable","label":"users","offset":0,"slot":"212","type":"t_array(t_address)dyn_storage"},{"astId":1398,"contract":"contracts/ReferralV4Upgradeable.sol:ReferralV4Upgradeable","label":"isActivateROI","offset":0,"slot":"213","type":"t_bool"},{"astId":1400,"contract":"contracts/ReferralV4Upgradeable.sol:ReferralV4Upgradeable","label":"isPayReferral","offset":1,"slot":"213","type":"t_bool"},{"astId":1402,"contract":"contracts/ReferralV4Upgradeable.sol:ReferralV4Upgradeable","label":"futureScureWalletContribution","offset":2,"slot":"213","type":"t_uint8"},{"astId":1512,"contract":"contracts/ReferralV4Upgradeable.sol:ReferralV4Upgradeable","label":"packagesCount","offset":3,"slot":"213","type":"t_uint8"},{"astId":1517,"contract":"contracts/ReferralV4Upgradeable.sol:ReferralV4Upgradeable","label":"accounts","offset":0,"slot":"214","type":"t_mapping(t_address,t_struct(StructAccount)1410_storage)"},{"astId":1522,"contract":"contracts/ReferralV4Upgradeable.sol:ReferralV4Upgradeable","label":"ids","offset":0,"slot":"215","type":"t_mapping(t_uint32,t_struct(StructId)1488_storage)"},{"astId":1527,"contract":"contracts/ReferralV4Upgradeable.sol:ReferralV4Upgradeable","label":"packages","offset":0,"slot":"216","type":"t_mapping(t_uint8,t_struct(StructPackages)1510_storage)"}],"types":{"t_address":{"encoding":"inplace","label":"address","numberOfBytes":"20"},"t_array(t_address)dyn_storage":{"base":"t_address","encoding":"dynamic_array","label":"address[]","numberOfBytes":"32"},"t_array(t_uint16)dyn_storage":{"base":"t_uint16","encoding":"dynamic_array","label":"uint16[]","numberOfBytes":"32"},"t_array(t_uint256)49_storage":{"base":"t_uint256","encoding":"inplace","label":"uint256[49]","numberOfBytes":"1568"},"t_array(t_uint256)50_storage":{"base":"t_uint256","encoding":"inplace","label":"uint256[50]","numberOfBytes":"1600"},"t_array(t_uint256)dyn_storage":{"base":"t_uint256","encoding":"dynamic_array","label":"uint256[]","numberOfBytes":"32"},"t_array(t_uint32)dyn_storage":{"base":"t_uint32","encoding":"dynamic_array","label":"uint32[]","numberOfBytes":"32"},"t_bool":{"encoding":"inplace","label":"bool","numberOfBytes":"1"},"t_mapping(t_address,t_struct(StructAccount)1410_storage)":{"encoding":"mapping","key":"t_address","label":"mapping(address => struct ReferralV4Upgradeable.StructAccount)","numberOfBytes":"32","value":"t_struct(StructAccount)1410_storage"},"t_mapping(t_uint32,t_struct(StructId)1488_storage)":{"encoding":"mapping","key":"t_uint32","label":"mapping(uint32 => struct ReferralV4Upgradeable.StructId)","numberOfBytes":"32","value":"t_struct(StructId)1488_storage"},"t_mapping(t_uint8,t_struct(StructPackages)1510_storage)":{"encoding":"mapping","key":"t_uint8","label":"mapping(uint8 => struct ReferralV4Upgradeable.StructPackages)","numberOfBytes":"32","value":"t_struct(StructPackages)1510_storage"},"t_string_storage":{"encoding":"bytes","label":"string","numberOfBytes":"32"},"t_struct(StructAccount)1410_storage":{"encoding":"inplace","label":"struct ReferralV4Upgradeable.StructAccount","members":[{"astId":1404,"contract":"contracts/ReferralV4Upgradeable.sol:ReferralV4Upgradeable","label":"isActive","offset":0,"slot":"0","type":"t_bool"},{"astId":1407,"contract":"contracts/ReferralV4Upgradeable.sol:ReferralV4Upgradeable","label":"accountIds","offset":0,"slot":"1","type":"t_array(t_uint32)dyn_storage"},{"astId":1409,"contract":"contracts/ReferralV4Upgradeable.sol:ReferralV4Upgradeable","label":"userName","offset":0,"slot":"2","type":"t_string_storage"}],"numberOfBytes":"96"},"t_struct(StructId)1488_storage":{"encoding":"inplace","label":"struct ReferralV4Upgradeable.StructId","members":[{"astId":1412,"contract":"contracts/ReferralV4Upgradeable.sol:ReferralV4Upgradeable","label":"id","offset":0,"slot":"0","type":"t_uint32"},{"astId":1414,"contract":"contracts/ReferralV4Upgradeable.sol:ReferralV4Upgradeable","label":"oldId","offset":0,"slot":"1","type":"t_string_storage"},{"astId":1416,"contract":"contracts/ReferralV4Upgradeable.sol:ReferralV4Upgradeable","label":"joiningTime","offset":0,"slot":"2","type":"t_uint256"},{"astId":1418,"contract":"contracts/ReferralV4Upgradeable.sol:ReferralV4Upgradeable","label":"isAddedToUserList","offset":0,"slot":"3","type":"t_bool"},{"astId":1420,"contract":"contracts/ReferralV4Upgradeable.sol:ReferralV4Upgradeable","label":"owner","offset":1,"slot":"3","type":"t_address"},{"astId":1422,"contract":"contracts/ReferralV4Upgradeable.sol:ReferralV4Upgradeable","label":"refererId","offset":21,"slot":"3","type":"t_uint32"},{"astId":1424,"contract":"contracts/ReferralV4Upgradeable.sol:ReferralV4Upgradeable","label":"hasUpline","offset":25,"slot":"3","type":"t_bool"},{"astId":1427,"contract":"contracts/ReferralV4Upgradeable.sol:ReferralV4Upgradeable","label":"refereeIds","offset":0,"slot":"4","type":"t_array(t_uint32)dyn_storage"},{"astId":1430,"contract":"contracts/ReferralV4Upgradeable.sol:ReferralV4Upgradeable","label":"teamIds","offset":0,"slot":"5","type":"t_array(t_uint32)dyn_storage"},{"astId":1433,"contract":"contracts/ReferralV4Upgradeable.sol:ReferralV4Upgradeable","label":"teamLevel","offset":0,"slot":"6","type":"t_array(t_uint32)dyn_storage"},{"astId":1436,"contract":"contracts/ReferralV4Upgradeable.sol:ReferralV4Upgradeable","label":"selfBusinessArray","offset":0,"slot":"7","type":"t_array(t_uint256)dyn_storage"},{"astId":1438,"contract":"contracts/ReferralV4Upgradeable.sol:ReferralV4Upgradeable","label":"selfBusiness","offset":0,"slot":"8","type":"t_uint256"},{"astId":1440,"contract":"contracts/ReferralV4Upgradeable.sol:ReferralV4Upgradeable","label":"selfBusinessOld","offset":0,"slot":"9","type":"t_uint256"},{"astId":1442,"contract":"contracts/ReferralV4Upgradeable.sol:ReferralV4Upgradeable","label":"directBusiness","offset":0,"slot":"10","type":"t_uint256"},{"astId":1444,"contract":"contracts/ReferralV4Upgradeable.sol:ReferralV4Upgradeable","label":"directBusinessOld","offset":0,"slot":"11","type":"t_uint256"},{"astId":1446,"contract":"contracts/ReferralV4Upgradeable.sol:ReferralV4Upgradeable","label":"teamBusiness","offset":0,"slot":"12","type":"t_uint256"},{"astId":1448,"contract":"contracts/ReferralV4Upgradeable.sol:ReferralV4Upgradeable","label":"teamBusinessOld","offset":0,"slot":"13","type":"t_uint256"},{"astId":1450,"contract":"contracts/ReferralV4Upgradeable.sol:ReferralV4Upgradeable","label":"royaltyClubBusiness","offset":0,"slot":"14","type":"t_uint256"},{"astId":1452,"contract":"contracts/ReferralV4Upgradeable.sol:ReferralV4Upgradeable","label":"timeStampRoyaltyClub","offset":0,"slot":"15","type":"t_uint256"},{"astId":1454,"contract":"contracts/ReferralV4Upgradeable.sol:ReferralV4Upgradeable","label":"royaltyClubPackageId","offset":0,"slot":"16","type":"t_uint8"},{"astId":1456,"contract":"contracts/ReferralV4Upgradeable.sol:ReferralV4Upgradeable","label":"royaltyClubListIndex","offset":1,"slot":"16","type":"t_uint32"},{"astId":1458,"contract":"contracts/ReferralV4Upgradeable.sol:ReferralV4Upgradeable","label":"royaltyClubRewardPaid","offset":0,"slot":"17","type":"t_uint256"},{"astId":1460,"contract":"contracts/ReferralV4Upgradeable.sol:ReferralV4Upgradeable","label":"topUpIncome","offset":0,"slot":"18","type":"t_uint256"},{"astId":1462,"contract":"contracts/ReferralV4Upgradeable.sol:ReferralV4Upgradeable","label":"topUp","offset":0,"slot":"19","type":"t_uint256"},{"astId":1464,"contract":"contracts/ReferralV4Upgradeable.sol:ReferralV4Upgradeable","label":"maxLimit","offset":0,"slot":"20","type":"t_uint256"},{"astId":1466,"contract":"contracts/ReferralV4Upgradeable.sol:ReferralV4Upgradeable","label":"activationTime","offset":0,"slot":"21","type":"t_uint256"},{"astId":1468,"contract":"contracts/ReferralV4Upgradeable.sol:ReferralV4Upgradeable","label":"deactivationTime","offset":0,"slot":"22","type":"t_uint256"},{"astId":1470,"contract":"contracts/ReferralV4Upgradeable.sol:ReferralV4Upgradeable","label":"referralPaid","offset":0,"slot":"23","type":"t_uint256"},{"astId":1473,"contract":"contracts/ReferralV4Upgradeable.sol:ReferralV4Upgradeable","label":"roiIds","offset":0,"slot":"24","type":"t_array(t_uint32)dyn_storage"},{"astId":1475,"contract":"contracts/ReferralV4Upgradeable.sol:ReferralV4Upgradeable","label":"roiPaid","offset":0,"slot":"25","type":"t_uint256"},{"astId":1477,"contract":"contracts/ReferralV4Upgradeable.sol:ReferralV4Upgradeable","label":"roiClaimedTime","offset":0,"slot":"26","type":"t_uint256"},{"astId":1479,"contract":"contracts/ReferralV4Upgradeable.sol:ReferralV4Upgradeable","label":"walletBalance","offset":0,"slot":"27","type":"t_uint256"},{"astId":1481,"contract":"contracts/ReferralV4Upgradeable.sol:ReferralV4Upgradeable","label":"isActive","offset":0,"slot":"28","type":"t_bool"},{"astId":1483,"contract":"contracts/ReferralV4Upgradeable.sol:ReferralV4Upgradeable","label":"isROIDisabled","offset":1,"slot":"28","type":"t_bool"},{"astId":1485,"contract":"contracts/ReferralV4Upgradeable.sol:ReferralV4Upgradeable","label":"isIdVisibilityDisabled","offset":2,"slot":"28","type":"t_bool"},{"astId":1487,"contract":"contracts/ReferralV4Upgradeable.sol:ReferralV4Upgradeable","label":"canWindraw","offset":3,"slot":"28","type":"t_bool"}],"numberOfBytes":"928"},"t_struct(StructPackages)1510_storage":{"encoding":"inplace","label":"struct ReferralV4Upgradeable.StructPackages","members":[{"astId":1490,"contract":"contracts/ReferralV4Upgradeable.sol:ReferralV4Upgradeable","label":"packageId","offset":0,"slot":"0","type":"t_uint8"},{"astId":1492,"contract":"contracts/ReferralV4Upgradeable.sol:ReferralV4Upgradeable","label":"selfBusiness","offset":0,"slot":"1","type":"t_uint256"},{"astId":1494,"contract":"contracts/ReferralV4Upgradeable.sol:ReferralV4Upgradeable","label":"directBusiness","offset":0,"slot":"2","type":"t_uint256"},{"astId":1496,"contract":"contracts/ReferralV4Upgradeable.sol:ReferralV4Upgradeable","label":"teamBusiness","offset":0,"slot":"3","type":"t_uint256"},{"astId":1498,"contract":"contracts/ReferralV4Upgradeable.sol:ReferralV4Upgradeable","label":"rankName","offset":0,"slot":"4","type":"t_string_storage"},{"astId":1500,"contract":"contracts/ReferralV4Upgradeable.sol:ReferralV4Upgradeable","label":"reward","offset":0,"slot":"5","type":"t_uint256"},{"astId":1502,"contract":"contracts/ReferralV4Upgradeable.sol:ReferralV4Upgradeable","label":"businessLimit","offset":0,"slot":"6","type":"t_uint256"},{"astId":1504,"contract":"contracts/ReferralV4Upgradeable.sol:ReferralV4Upgradeable","label":"timeLimit","offset":0,"slot":"7","type":"t_uint256"},{"astId":1506,"contract":"contracts/ReferralV4Upgradeable.sol:ReferralV4Upgradeable","label":"isPayReccursive","offset":0,"slot":"8","type":"t_bool"},{"astId":1509,"contract":"contracts/ReferralV4Upgradeable.sol:ReferralV4Upgradeable","label":"achieversList","offset":0,"slot":"9","type":"t_array(t_uint32)dyn_storage"}],"numberOfBytes":"320"},"t_uint16":{"encoding":"inplace","label":"uint16","numberOfBytes":"2"},"t_uint256":{"encoding":"inplace","label":"uint256","numberOfBytes":"32"},"t_uint32":{"encoding":"inplace","label":"uint32","numberOfBytes":"4"},"t_uint8":{"encoding":"inplace","label":"uint8","numberOfBytes":"1"}}}}}}