{"contracts/ReferralV3Upgradeable.sol":{"ReferralV3Upgradeable":{"abi":[{"anonymous":false,"inputs":[{"indexed":false,"internalType":"address","name":"ownerAddress","type":"address"},{"indexed":false,"internalType":"uint256","name":"id","type":"uint256"},{"indexed":false,"internalType":"uint256","name":"idIndex","type":"uint256"}],"name":"AccountInfoIDAttached","type":"event"},{"anonymous":false,"inputs":[{"indexed":false,"internalType":"uint256","name":"userID","type":"uint256"},{"indexed":false,"internalType":"uint256","name":"index","type":"uint256"},{"indexed":false,"internalType":"uint256","name":"rank","type":"uint256"}],"name":"AddedInRoyaltyClubList","type":"event"},{"anonymous":false,"inputs":[{"indexed":false,"internalType":"address","name":"previousAdmin","type":"address"},{"indexed":false,"internalType":"address","name":"newAdmin","type":"address"}],"name":"AdminChanged","type":"event"},{"anonymous":false,"inputs":[{"indexed":true,"internalType":"address","name":"beacon","type":"address"}],"name":"BeaconUpgraded","type":"event"},{"anonymous":false,"inputs":[{"indexed":false,"internalType":"uint256","name":"id","type":"uint256"},{"indexed":false,"internalType":"string","name":"reason","type":"string"}],"name":"IDDeactivated","type":"event"},{"anonymous":false,"inputs":[{"indexed":false,"internalType":"uint8","name":"version","type":"uint8"}],"name":"Initialized","type":"event"},{"anonymous":false,"inputs":[{"indexed":true,"internalType":"address","name":"previousOwner","type":"address"},{"indexed":true,"internalType":"address","name":"newOwner","type":"address"}],"name":"OwnershipTransferred","type":"event"},{"anonymous":false,"inputs":[{"indexed":false,"internalType":"uint256","name":"packageID","type":"uint256"}],"name":"PackageAdded","type":"event"},{"anonymous":false,"inputs":[{"indexed":false,"internalType":"uint256","name":"packageID","type":"uint256"}],"name":"PackageRemoved","type":"event"},{"anonymous":false,"inputs":[{"indexed":false,"internalType":"uint256","name":"packageID","type":"uint256"}],"name":"PackageUpdated","type":"event"},{"anonymous":false,"inputs":[{"indexed":true,"internalType":"uint256","name":"userID","type":"uint256"},{"indexed":true,"internalType":"uint256","name":"reward","type":"uint256"}],"name":"ROIClaimed","type":"event"},{"anonymous":false,"inputs":[{"indexed":true,"internalType":"uint256","name":"refererID","type":"uint256"},{"indexed":true,"internalType":"uint256","name":"level","type":"uint256"},{"indexed":true,"internalType":"string","name":"reason","type":"string"}],"name":"ReferralNotPaid","type":"event"},{"anonymous":false,"inputs":[{"indexed":true,"internalType":"uint256","name":"refereeID","type":"uint256"},{"indexed":true,"internalType":"uint256","name":"referrerID","type":"uint256"},{"indexed":true,"internalType":"uint256","name":"amount","type":"uint256"},{"indexed":false,"internalType":"uint256","name":"level","type":"uint256"}],"name":"ReferralRewardPaid","type":"event"},{"anonymous":false,"inputs":[{"indexed":true,"internalType":"address","name":"refereeID","type":"address"},{"indexed":true,"internalType":"address","name":"referrerID","type":"address"},{"indexed":true,"internalType":"string","name":"reason","type":"string"}],"name":"RegisterRefererFailed","type":"event"},{"anonymous":false,"inputs":[{"indexed":true,"internalType":"uint256","name":"id","type":"uint256"},{"indexed":true,"internalType":"uint256","name":"refererID","type":"uint256"}],"name":"RegisteredReferer","type":"event"},{"anonymous":false,"inputs":[{"indexed":true,"internalType":"address","name":"parent","type":"address"},{"indexed":false,"internalType":"uint256","name":"parentAccountID","type":"uint256"},{"indexed":true,"internalType":"uint256","name":"referrerID","type":"uint256"},{"indexed":true,"internalType":"uint256","name":"refereeID","type":"uint256"}],"name":"RegisteredTeamAddress","type":"event"},{"anonymous":false,"inputs":[{"indexed":false,"internalType":"uint256","name":"packageID","type":"uint256"},{"indexed":true,"internalType":"uint256","name":"userID","type":"uint256"},{"indexed":true,"internalType":"uint256","name":"amount","type":"uint256"}],"name":"RoyaltyClubBonusPaid","type":"event"},{"anonymous":false,"inputs":[{"indexed":true,"internalType":"address","name":"implementation","type":"address"}],"name":"Upgraded","type":"event"},{"inputs":[{"internalType":"uint256","name":"","type":"uint256"}],"name":"_disabledUsersList","outputs":[{"internalType":"address","name":"","type":"address"}],"stateMutability":"view","type":"function"},{"inputs":[{"internalType":"uint32","name":"_refererID","type":"uint32"}],"name":"activateID","outputs":[],"stateMutability":"payable","type":"function"},{"inputs":[{"internalType":"uint256","name":"","type":"uint256"}],"name":"admins","outputs":[{"internalType":"address","name":"","type":"address"}],"stateMutability":"view","type":"function"},{"inputs":[{"internalType":"uint32","name":"_id","type":"uint32"},{"internalType":"uint256","name":"_value","type":"uint256"}],"name":"claimBalance","outputs":[],"stateMutability":"nonpayable","type":"function"},{"inputs":[],"name":"companyTurnoverTimeLimit","outputs":[{"internalType":"uint256","name":"","type":"uint256"}],"stateMutability":"view","type":"function"},{"inputs":[],"name":"companyTurnoverTimeStamp","outputs":[{"internalType":"uint256","name":"","type":"uint256"}],"stateMutability":"view","type":"function"},{"inputs":[],"name":"companyTurnoverWithTimeLimit","outputs":[{"internalType":"uint256","name":"","type":"uint256"}],"stateMutability":"view","type":"function"},{"inputs":[],"name":"decimals","outputs":[{"internalType":"uint16","name":"","type":"uint16"}],"stateMutability":"view","type":"function"},{"inputs":[{"internalType":"address","name":"_userAddress","type":"address"}],"name":"disableUserAdmin","outputs":[],"stateMutability":"nonpayable","type":"function"},{"inputs":[{"internalType":"uint32","name":"_id","type":"uint32"}],"name":"getIDAccount","outputs":[{"components":[{"internalType":"uint32","name":"id","type":"uint32"},{"internalType":"string","name":"oldID","type":"string"},{"internalType":"bool","name":"isActive","type":"bool"},{"internalType":"address","name":"owner","type":"address"},{"internalType":"uint256","name":"joiningTime","type":"uint256"},{"internalType":"uint256","name":"deactivateTime","type":"uint256"},{"internalType":"uint32","name":"refererID","type":"uint32"},{"internalType":"uint32[]","name":"refereeIDs","type":"uint32[]"},{"internalType":"uint32[]","name":"teamIDs","type":"uint32[]"},{"internalType":"uint32[]","name":"teamLevel","type":"uint32[]"},{"internalType":"uint256","name":"selfBusiness","type":"uint256"},{"internalType":"uint256","name":"selfBusinessOld","type":"uint256"},{"internalType":"uint256","name":"directBusiness","type":"uint256"},{"internalType":"uint256","name":"directBusinessOld","type":"uint256"},{"internalType":"uint256","name":"teamBusiness","type":"uint256"},{"internalType":"uint256","name":"teamBusinessOld","type":"uint256"},{"internalType":"uint256","name":"royaltyClubBusiness","type":"uint256"},{"internalType":"uint256","name":"timeStampRoyaltyClub","type":"uint256"},{"internalType":"uint8","name":"royaltyClubPackageID","type":"uint8"},{"internalType":"uint256","name":"royaltyClubListIndex","type":"uint256"},{"internalType":"uint256","name":"referralPaid","type":"uint256"},{"internalType":"uint256","name":"rewardPaidRoyaltyClub","type":"uint256"},{"internalType":"uint256","name":"totalTopUp","type":"uint256"},{"internalType":"uint256","name":"totalIncome","type":"uint256"},{"internalType":"uint256","name":"totalMaxLimitAmount","type":"uint256"},{"internalType":"uint256","name":"currentTopUp","type":"uint256"},{"internalType":"uint256","name":"currentTopUpTime","type":"uint256"},{"internalType":"uint256","name":"totalROIClaimed","type":"uint256"},{"internalType":"uint32[]","name":"roiIDs","type":"uint32[]"},{"internalType":"uint256","name":"roiClaimed","type":"uint256"},{"internalType":"uint256","name":"roiClaimedTimestamp","type":"uint256"},{"internalType":"uint256","name":"balanceClaimed","type":"uint256"}],"internalType":"struct ReferralV3Upgradeable.StructID","name":"","type":"tuple"}],"stateMutability":"view","type":"function"},{"inputs":[{"internalType":"uint32","name":"_id","type":"uint32"}],"name":"getIDRewardPaid","outputs":[{"internalType":"uint256","name":"referralPaid","type":"uint256"},{"internalType":"uint256","name":"totalROIClaimed","type":"uint256"},{"internalType":"uint256","name":"rewardPaidRoyaltyClub","type":"uint256"},{"internalType":"uint256","name":"totalRewardPaid","type":"uint256"}],"stateMutability":"view","type":"function"},{"inputs":[{"internalType":"uint32","name":"_id","type":"uint32"}],"name":"getIDRoyaltyClubLevel","outputs":[{"internalType":"uint256","name":"","type":"uint256"}],"stateMutability":"view","type":"function"},{"inputs":[{"internalType":"uint32","name":"_id","type":"uint32"}],"name":"getIDTeam","outputs":[{"internalType":"uint32[]","name":"teamIDs","type":"uint32[]"},{"internalType":"uint32[]","name":"teamLevels","type":"uint32[]"},{"internalType":"uint256","name":"teamCount","type":"uint256"}],"stateMutability":"view","type":"function"},{"inputs":[{"internalType":"uint32","name":"_id","type":"uint32"}],"name":"getIDTotalBusiness","outputs":[{"internalType":"uint256","name":"selfBusiness","type":"uint256"},{"internalType":"uint256","name":"selfBusinessOld","type":"uint256"},{"internalType":"uint256","name":"directBusiness","type":"uint256"},{"internalType":"uint256","name":"directBusinessOld","type":"uint256"},{"internalType":"uint256","name":"teamBusiness","type":"uint256"},{"internalType":"uint256","name":"teamBusinessOld","type":"uint256"}],"stateMutability":"view","type":"function"},{"inputs":[],"name":"getMinContributionETH","outputs":[{"internalType":"uint256","name":"","type":"uint256"}],"stateMutability":"view","type":"function"},{"inputs":[],"name":"getPriceOracleContract","outputs":[{"internalType":"address","name":"","type":"address"}],"stateMutability":"view","type":"function"},{"inputs":[{"internalType":"uint32","name":"_roiID","type":"uint32"}],"name":"getROIAccount","outputs":[{"components":[{"internalType":"uint32","name":"id","type":"uint32"},{"internalType":"bool","name":"isActive","type":"bool"},{"internalType":"uint32","name":"ownerID","type":"uint32"},{"internalType":"uint256","name":"value","type":"uint256"},{"internalType":"uint16","name":"roiRate","type":"uint16"},{"internalType":"uint256","name":"startTime","type":"uint256"}],"internalType":"struct ReferralV3Upgradeable.StructROI","name":"","type":"tuple"}],"stateMutability":"view","type":"function"},{"inputs":[{"internalType":"address","name":"_address","type":"address"}],"name":"getUserAccount","outputs":[{"components":[{"internalType":"bool","name":"isDisabled","type":"bool"},{"internalType":"uint32[]","name":"accountIDs","type":"uint32[]"}],"internalType":"struct ReferralV3Upgradeable.StructAccount","name":"","type":"tuple"}],"stateMutability":"view","type":"function"},{"inputs":[{"internalType":"uint32","name":"_id","type":"uint32"}],"name":"getUserIDTotalROI","outputs":[{"internalType":"uint256","name":"","type":"uint256"}],"stateMutability":"view","type":"function"},{"inputs":[{"internalType":"uint32","name":"_id","type":"uint32"}],"name":"getUserTotalActiveROIValue","outputs":[{"internalType":"uint256","name":"","type":"uint256"}],"stateMutability":"view","type":"function"},{"inputs":[{"internalType":"uint32","name":"_id","type":"uint32"}],"name":"getUserUnlockCount","outputs":[{"internalType":"uint256","name":"","type":"uint256"}],"stateMutability":"view","type":"function"},{"inputs":[],"name":"initialize","outputs":[],"stateMutability":"nonpayable","type":"function"},{"inputs":[],"name":"isPayROI","outputs":[{"internalType":"bool","name":"","type":"bool"}],"stateMutability":"view","type":"function"},{"inputs":[],"name":"isPayRoyaltyClubBonus","outputs":[{"internalType":"bool","name":"","type":"bool"}],"stateMutability":"view","type":"function"},{"inputs":[{"internalType":"address","name":"_userAddress","type":"address"}],"name":"isUserDisabledByAdmin","outputs":[{"internalType":"bool","name":"","type":"bool"}],"stateMutability":"view","type":"function"},{"inputs":[{"internalType":"uint256","name":"","type":"uint256"}],"name":"levelRates","outputs":[{"internalType":"uint16","name":"","type":"uint16"}],"stateMutability":"view","type":"function"},{"inputs":[],"name":"maxLevelsCount","outputs":[{"internalType":"uint8","name":"","type":"uint8"}],"stateMutability":"view","type":"function"},{"inputs":[],"name":"minContributionIn","outputs":[{"internalType":"uint256","name":"","type":"uint256"}],"stateMutability":"view","type":"function"},{"inputs":[],"name":"minContributionInUSD","outputs":[{"internalType":"uint256","name":"","type":"uint256"}],"stateMutability":"view","type":"function"},{"inputs":[],"name":"owner","outputs":[{"internalType":"address","name":"","type":"address"}],"stateMutability":"view","type":"function"},{"inputs":[],"name":"packagesCount","outputs":[{"internalType":"uint8","name":"","type":"uint8"}],"stateMutability":"view","type":"function"},{"inputs":[],"name":"proxiableUUID","outputs":[{"internalType":"bytes32","name":"","type":"bytes32"}],"stateMutability":"view","type":"function"},{"inputs":[{"internalType":"address","name":"_userAddress","type":"address"}],"name":"removeUserFromDisableList","outputs":[],"stateMutability":"nonpayable","type":"function"},{"inputs":[],"name":"renounceOwnership","outputs":[],"stateMutability":"nonpayable","type":"function"},{"inputs":[],"name":"royaltyClubPackageCount","outputs":[{"internalType":"uint8","name":"","type":"uint8"}],"stateMutability":"view","type":"function"},{"inputs":[{"internalType":"address","name":"_address","type":"address"},{"internalType":"uint256","name":"_value","type":"uint256"}],"name":"sendETHAdmin","outputs":[],"stateMutability":"nonpayable","type":"function"},{"inputs":[{"internalType":"address","name":"_adminAddress","type":"address"}],"name":"setAdmin","outputs":[],"stateMutability":"nonpayable","type":"function"},{"inputs":[{"internalType":"uint256","name":"_valueInUSD","type":"uint256"}],"name":"setMinContribution","outputs":[],"stateMutability":"nonpayable","type":"function"},{"inputs":[{"internalType":"address","name":"_contractAddress","type":"address"}],"name":"setPriceOracleContract","outputs":[],"stateMutability":"nonpayable","type":"function"},{"inputs":[{"internalType":"uint16","name":"_roiRateInDecimals","type":"uint16"},{"internalType":"uint256","name":"_roiDurationInDays","type":"uint256"},{"internalType":"uint256","name":"_roiClaimTimelimitInSeconds","type":"uint256"}],"name":"setROI","outputs":[],"stateMutability":"nonpayable","type":"function"},{"inputs":[{"internalType":"uint32","name":"_count","type":"uint32"}],"name":"setROIIDCount","outputs":[],"stateMutability":"nonpayable","type":"function"},{"inputs":[],"name":"totalIDs","outputs":[{"internalType":"uint32","name":"","type":"uint32"}],"stateMutability":"view","type":"function"},{"inputs":[],"name":"totalROIIDs","outputs":[{"internalType":"uint32","name":"","type":"uint32"}],"stateMutability":"view","type":"function"},{"inputs":[],"name":"totalROIPaid","outputs":[{"internalType":"uint256","name":"","type":"uint256"}],"stateMutability":"view","type":"function"},{"inputs":[],"name":"totalReferralPaid","outputs":[{"internalType":"uint256","name":"","type":"uint256"}],"stateMutability":"view","type":"function"},{"inputs":[],"name":"totalRoyaltyClubBonusPaid","outputs":[{"internalType":"uint256","name":"","type":"uint256"}],"stateMutability":"view","type":"function"},{"inputs":[],"name":"totalRoyaltyClubBonusPaidETH","outputs":[{"internalType":"uint256","name":"","type":"uint256"}],"stateMutability":"view","type":"function"},{"inputs":[],"name":"totalUsers","outputs":[{"internalType":"uint32","name":"","type":"uint32"}],"stateMutability":"view","type":"function"},{"inputs":[{"internalType":"address","name":"newOwner","type":"address"}],"name":"transferOwnership","outputs":[],"stateMutability":"nonpayable","type":"function"},{"inputs":[{"internalType":"uint32","name":"_from","type":"uint32"},{"internalType":"uint32","name":"_to","type":"uint32"},{"internalType":"uint256[]","name":"_topUp","type":"uint256[]"}],"name":"updateCurrentTopUp","outputs":[],"stateMutability":"nonpayable","type":"function"},{"inputs":[{"internalType":"uint32","name":"_value","type":"uint32"}],"name":"updateTotalIDs","outputs":[],"stateMutability":"nonpayable","type":"function"},{"inputs":[{"internalType":"address","name":"newImplementation","type":"address"}],"name":"upgradeTo","outputs":[],"stateMutability":"nonpayable","type":"function"},{"inputs":[{"internalType":"address","name":"newImplementation","type":"address"},{"internalType":"bytes","name":"data","type":"bytes"}],"name":"upgradeToAndCall","outputs":[],"stateMutability":"payable","type":"function"},{"inputs":[],"name":"withdrawETHAdmin","outputs":[],"stateMutability":"nonpayable","type":"function"},{"inputs":[{"internalType":"address","name":"_tokenAddress","type":"address"},{"internalType":"uint256","name":"_value","type":"uint256"}],"name":"withdrawTokensAdmin","outputs":[],"stateMutability":"nonpayable","type":"function"},{"stateMutability":"payable","type":"receive"}],"evm":{"bytecode":{"linkReferences":{},"object":"60a06040523060805234801561001457600080fd5b506080516156526200004d60003960008181610f1101528181610f5101528181610ffa0152818161103a01526110c901526156526000f3fe6080604052600436106103545760003560e01c80637c599486116101c6578063bff1f9e1116100f7578063f229b4d511610095578063f41bfeef1161006f578063f41bfeef14610b35578063f830e57b14610b4b578063fafc959714610b78578063fb47e01614610b9757600080fd5b8063f229b4d514610ab5578063f2fde38b14610af5578063f31a2d0f14610b1557600080fd5b8063d895af2c116100d1578063d895af2c14610a42578063e52356f314610a62578063e5682e3814610a82578063ea62f71514610a9557600080fd5b8063bff1f9e1146108e4578063c3ab5ebf14610901578063c82801ca14610a2257600080fd5b8063a0506aed11610164578063a28a36861161013e578063a28a36861461086a578063af2f39d11461088a578063b47181d3146108a4578063bf46de63146108c457600080fd5b8063a0506aed146107f7578063a0b6105f14610826578063a1b801751461084657600080fd5b80638da5cb5b116101a05780638da5cb5b146107835780638df05d9c146107a157806396ed6b85146107c15780639f4e8398146107d757600080fd5b80637c599486146107425780638129fc1c14610758578063852ff2fd1461076d57600080fd5b8063347976c4116102a0578063538ffe0c1161023e57806370d9e0811161021857806370d9e081146106cd578063715018a6146106ed57806376a68e84146107025780637879b5ef1461072257600080fd5b8063538ffe0c1461062a5780635e701d8614610673578063704b6c02146106ad57600080fd5b80633659cfe61161027a5780633659cfe6146105c2578063473b0d46146105e25780634f1ef2861461060257806352d1902d1461061557600080fd5b8063347976c41461050857806335715f6f1461058d57806335759788146105ad57600080fd5b80631f7f83ba1161030d5780632913497b116102e75780632913497b146104905780632ed421d2146104ae57806330abbcc5146104c4578063313ce567146104da57600080fd5b80631f7f83ba146104455780631f9e65e41461046557806322f88b521461047a57600080fd5b806309de82cd146103605780630b243dad146103895780630efdbb6a146103ab57806314bfd6d0146103cb57806318e10bff146104035780631c961c051461042f57600080fd5b3661035b57005b600080fd5b34801561036c57600080fd5b5061037660ce5481565b6040519081526020015b60405180910390f35b34801561039557600080fd5b506103a96103a4366004614d35565b610bc4565b005b3480156103b757600080fd5b506103a96103c6366004614d5f565b610c07565b3480156103d757600080fd5b506103eb6103e6366004614d7a565b610ce9565b6040516001600160a01b039091168152602001610380565b34801561040f57600080fd5b5060d95461041d9060ff1681565b60405160ff9091168152602001610380565b34801561043b57600080fd5b5061037660cc5481565b34801561045157600080fd5b506103eb610460366004614d7a565b610d13565b34801561047157600080fd5b50610376610d23565b34801561048657600080fd5b5061037660d55481565b34801561049c57600080fd5b5060c9546001600160a01b03166103eb565b3480156104ba57600080fd5b5061037660d65481565b3480156104d057600080fd5b5061037660d05481565b3480156104e657600080fd5b5060cb546104f59061ffff1681565b60405161ffff9091168152602001610380565b34801561051457600080fd5b50610560610523366004614da7565b63ffffffff16600090815260db602052604090206009810154600a820154600b830154600c840154600d850154600e909501549395929491939092565b604080519687526020870195909552938501929092526060840152608083015260a082015260c001610380565b34801561059957600080fd5b506103a96105a8366004614e09565b610d35565b3480156105b957600080fd5b506103a9610ed0565b3480156105ce57600080fd5b506103a96105dd366004614d5f565b610f07565b3480156105ee57600080fd5b506103a96105fd366004614d7a565b610fe3565b6103a9610610366004614ed2565b610ff0565b34801561062157600080fd5b506103766110bc565b34801561063657600080fd5b50610663610645366004614d5f565b6001600160a01b0316600090815260da602052604090205460ff1690565b6040519015158152602001610380565b34801561067f57600080fd5b5060d15461069890640100000000900463ffffffff1681565b60405163ffffffff9091168152602001610380565b3480156106b957600080fd5b506103a96106c8366004614d5f565b61116f565b3480156106d957600080fd5b506103a96106e8366004614da7565b6111c9565b3480156106f957600080fd5b506103a96112a3565b34801561070e57600080fd5b5061037661071d366004614da7565b6112b7565b34801561072e57600080fd5b506104f561073d366004614d7a565b6116d8565b34801561074e57600080fd5b5061037660cf5481565b34801561076457600080fd5b506103a9611710565b34801561077957600080fd5b5061037660cd5481565b34801561078f57600080fd5b506033546001600160a01b03166103eb565b3480156107ad57600080fd5b5060cb5461041d9062010000900460ff1681565b3480156107cd57600080fd5b5061037660df5481565b3480156107e357600080fd5b506103a96107f2366004614d5f565b6119b1565b34801561080357600080fd5b50610817610812366004614da7565b611acd565b60405161038093929190614fb9565b34801561083257600080fd5b506103a9610841366004614d35565b611efa565b34801561085257600080fd5b5060d15461069890600160401b900463ffffffff1681565b34801561087657600080fd5b5060d45461041d9062010000900460ff1681565b34801561089657600080fd5b5060d4546106639060ff1681565b3480156108b057600080fd5b506103766108bf366004614da7565b611f73565b3480156108d057600080fd5b506103766108df366004614da7565b612391565b3480156108f057600080fd5b5060d1546106989063ffffffff1681565b34801561090d57600080fd5b506109c661091c366004614da7565b6040805160c081018252600080825260208201819052918101829052606081018290526080810182905260a08101919091525063ffffffff908116600090815260dc6020908152604091829020825160c0810184528154808616825260ff640100000000820416151593820193909352650100000000009092049093169181019190915260018201546060820152600282015461ffff16608082015260039091015460a082015290565b6040516103809190600060c08201905063ffffffff808451168352602084015115156020840152806040850151166040840152506060830151606083015261ffff608084015116608083015260a083015160a083015292915050565b348015610a2e57600080fd5b506103a9610a3d366004614fef565b6123a2565b348015610a4e57600080fd5b506103a9610a5d366004614da7565b61248a565b348015610a6e57600080fd5b506103a9610a7d366004614d5f565b612567565b6103a9610a90366004614da7565b61273c565b348015610aa157600080fd5b50610376610ab0366004614da7565b61289f565b348015610ac157600080fd5b50610ad5610ad0366004614da7565b6129c4565b604080519485526020850193909352918301526060820152608001610380565b348015610b0157600080fd5b506103a9610b10366004614d5f565b612e0f565b348015610b2157600080fd5b506103a9610b3036600461502b565b612e85565b348015610b4157600080fd5b5061037660d75481565b348015610b5757600080fd5b50610b6b610b66366004614da7565b612fd1565b6040516103809190615097565b348015610b8457600080fd5b5060d45461066390610100900460ff1681565b348015610ba357600080fd5b50610bb7610bb2366004614d5f565b6134e9565b60405161038091906152c5565b610bcc6135b4565b6040516001600160a01b0383169082156108fc029083906000818181858888f19350505050158015610c02573d6000803e3d6000fd5b505050565b60005b60de5460ff82161015610ce55760de8160ff1681548110610c2d57610c2d6152ec565b6000918252602090912001546001600160a01b03163303610c695760c980546001600160a01b0384166001600160a01b03199091161790555050565b60de54610c7890600190615318565b8160ff1603610cd35760de8160ff1681548110610c9757610c976152ec565b6000918252602090912001546001600160a01b03163314610cd35760405162461bcd60e51b8152600401610cca9061532b565b60405180910390fd5b80610cdd81615356565b915050610c0a565b5050565b60de8181548110610cf957600080fd5b6000918252602090912001546001600160a01b0316905081565b60d88181548110610cf957600080fd5b6000610d3060df5461360e565b905090565b60005b60de5460ff82161015610eca5760de8160ff1681548110610d5b57610d5b6152ec565b6000918252602090912001546001600160a01b03163303610e5757600042855b8563ffffffff168163ffffffff1611610e4f5760d18054600091600160401b90910463ffffffff16906008610daf83615375565b91906101000a81548163ffffffff021916908363ffffffff16021790555090506000868563ffffffff1681518110610de957610de96152ec565b602002602001015190506000811115610e2d5763ffffffff8316600090815260db602052604090206018810182905560198101859055610e2b848484886136a4565b505b84610e3781615375565b95505050508080610e4790615375565b915050610d7b565b505050610eca565b60de54610e6690600190615318565b8160ff1603610eb85760de8160ff1681548110610e8557610e856152ec565b6000918252602090912001546001600160a01b03163314610eb85760405162461bcd60e51b8152600401610cca9061532b565b80610ec281615356565b915050610d38565b50505050565b610ed86135b4565b60405133904780156108fc02916000818181858888f19350505050158015610f04573d6000803e3d6000fd5b50565b6001600160a01b037f0000000000000000000000000000000000000000000000000000000000000000163003610f4f5760405162461bcd60e51b8152600401610cca90615398565b7f00000000000000000000000000000000000000000000000000000000000000006001600160a01b0316610f986000805160206155d6833981519152546001600160a01b031690565b6001600160a01b031614610fbe5760405162461bcd60e51b8152600401610cca906153e4565b610fc78161375a565b60408051600080825260208201909252610f0491839190613762565b610feb6135b4565b60df55565b6001600160a01b037f00000000000000000000000000000000000000000000000000000000000000001630036110385760405162461bcd60e51b8152600401610cca90615398565b7f00000000000000000000000000000000000000000000000000000000000000006001600160a01b03166110816000805160206155d6833981519152546001600160a01b031690565b6001600160a01b0316146110a75760405162461bcd60e51b8152600401610cca906153e4565b6110b08261375a565b610ce582826001613762565b6000306001600160a01b037f0000000000000000000000000000000000000000000000000000000000000000161461115c5760405162461bcd60e51b815260206004820152603860248201527f555550535570677261646561626c653a206d757374206e6f742062652063616c60448201527f6c6564207468726f7567682064656c656761746563616c6c00000000000000006064820152608401610cca565b506000805160206155d683398151915290565b6111776135b4565b60de80546001810182556000919091527ffae8130c0619f84b4b44f01b84806f04e82e536d70e05f2356977fa318aecc1a0180546001600160a01b0319166001600160a01b0392909216919091179055565b60005b60de5460ff82161015610ce55760de8160ff16815481106111ef576111ef6152ec565b6000918252602090912001546001600160a01b031633036112305760d1805463ffffffff84166401000000000267ffffffff00000000199091161790555050565b60de5461123f90600190615318565b8160ff16036112915760de8160ff168154811061125e5761125e6152ec565b6000918252602090912001546001600160a01b031633146112915760405162461bcd60e51b8152600401610cca9061532b565b8061129b81615356565b9150506111cc565b6112ab6135b4565b6112b560006138cd565b565b63ffffffff808216600090815260db602090815260408083208151610400810190925280549094168152600184018054939485949293909290840191906112fd90615430565b80601f016020809104026020016040519081016040528092919081815260200182805461132990615430565b80156113765780601f1061134b57610100808354040283529160200191611376565b820191906000526020600020905b81548152906001019060200180831161135957829003601f168201915b5050509183525050600282015460ff811615156020808401919091526101009091046001600160a01b03166040808401919091526003840154606084015260048401546080840152600584015463ffffffff1660a084015260068401805482518185028101850190935280835260c090940193919290919083018282801561144957602002820191906000526020600020906000905b82829054906101000a900463ffffffff1663ffffffff168152602001906004019060208260030104928301926001038202915080841161140c5790505b50505050508152602001600782018054806020026020016040519081016040528092919081815260200182805480156114cd57602002820191906000526020600020906000905b82829054906101000a900463ffffffff1663ffffffff16815260200190600401906020826003010492830192600103820291508084116114905790505b505050505081526020016008820180548060200260200160405190810160405280929190818152602001828054801561155157602002820191906000526020600020906000905b82829054906101000a900463ffffffff1663ffffffff16815260200190600401906020826003010492830192600103820291508084116115145790505b5050505050815260200160098201548152602001600a8201548152602001600b8201548152602001600c8201548152602001600d8201548152602001600e8201548152602001600f8201548152602001601082015481526020016011820160009054906101000a900460ff1660ff1660ff1681526020016012820154815260200160138201548152602001601482015481526020016015820154815260200160168201548152602001601782015481526020016018820154815260200160198201548152602001601a8201548152602001601b820180548060200260200160405190810160405280929190818152602001828054801561169c57602002820191906000526020600020906000905b82829054906101000a900463ffffffff1663ffffffff168152602001906004019060208260030104928301926001038202915080841161165f5790505b50505050508152602001601c8201548152602001601d8201548152602001601e8201548152505090506116ce8161391f565b60ff169392505050565b60ca81815481106116e857600080fd5b9060005260206000209060109182820401919006600202915054906101000a900461ffff1681565b600054610100900460ff16158080156117305750600054600160ff909116105b8061174a5750303b15801561174a575060005460ff166001145b6117ad5760405162461bcd60e51b815260206004820152602e60248201527f496e697469616c697a61626c653a20636f6e747261637420697320616c72656160448201526d191e481a5b9a5d1a585b1a5e995960921b6064820152608401610cca565b6000805460ff1916600117905580156117d0576000805461ff0019166101001790555b60c980546001600160a01b03191673286d6392042b4d7180fd6d20f8d35c877681577417905560cb805461ffff19166103e8179055604080516103a08101825260648152604660208201526032918101829052606081018290526080810182905260a0810182905260c0810182905260e08101829052610100810182905261012081018290526101408101829052610160810182905261018081018290526101a081018290526101c081018290526101e08101829052610200810182905261022081018290526102408101919091526014610260820181905261028082018190526102a082018190526102c082018190526102e0820181905261030082018190526103208201819052610340820181905261036082018190526103808201526118fd9060ca90601d614c5c565b5060cb805462ff000019166232000017905568056bc75e2d6310000060df5560d4805463ff00ffff1916630200000117905560d1805461ffff60601b1916607d60631b17905563020f580060d2556201518060d35562278d0060d7556119616139cd565b6119696139fc565b8015610f04576000805461ff0019169055604051600181527f7f26b83ff96e1f2b6a682f133852f6798a09c465da95921460cefb38474024989060200160405180910390a150565b60005b60de5460ff82161015610ce55760de8160ff16815481106119d7576119d76152ec565b6000918252602090912001546001600160a01b03163303611a5a5760d8805460018181019092557f5320ad99a619a90804cd2efe3a5cf0ac1ac5c41ad9ff2c61cf699efdad7710960180546001600160a01b0385166001600160a01b03199091168117909155600090815260da60205260409020805460ff191690911790555050565b60de54611a6990600190615318565b8160ff1603611abb5760de8160ff1681548110611a8857611a886152ec565b6000918252602090912001546001600160a01b03163314611abb5760405162461bcd60e51b8152600401610cca9061532b565b80611ac581615356565b9150506119b4565b63ffffffff808216600090815260db60209081526040808320815161040081019092528054909416815260018401805460609586959485949391929084019190611b1690615430565b80601f0160208091040260200160405190810160405280929190818152602001828054611b4290615430565b8015611b8f5780601f10611b6457610100808354040283529160200191611b8f565b820191906000526020600020905b815481529060010190602001808311611b7257829003601f168201915b5050509183525050600282015460ff811615156020808401919091526101009091046001600160a01b03166040808401919091526003840154606084015260048401546080840152600584015463ffffffff1660a084015260068401805482518185028101850190935280835260c0909401939192909190830182828015611c6257602002820191906000526020600020906000905b82829054906101000a900463ffffffff1663ffffffff1681526020019060040190602082600301049283019260010382029150808411611c255790505b5050505050815260200160078201805480602002602001604051908101604052809291908181526020018280548015611ce657602002820191906000526020600020906000905b82829054906101000a900463ffffffff1663ffffffff1681526020019060040190602082600301049283019260010382029150808411611ca95790505b5050505050815260200160088201805480602002602001604051908101604052809291908181526020018280548015611d6a57602002820191906000526020600020906000905b82829054906101000a900463ffffffff1663ffffffff1681526020019060040190602082600301049283019260010382029150808411611d2d5790505b5050505050815260200160098201548152602001600a8201548152602001600b8201548152602001600c8201548152602001600d8201548152602001600e8201548152602001600f8201548152602001601082015481526020016011820160009054906101000a900460ff1660ff1660ff1681526020016012820154815260200160138201548152602001601482015481526020016015820154815260200160168201548152602001601782015481526020016018820154815260200160198201548152602001601a8201548152602001601b8201805480602002602001604051908101604052809291908181526020018280548015611eb557602002820191906000526020600020906000905b82829054906101000a900463ffffffff1663ffffffff1681526020019060040190602082600301049283019260010382029150808411611e785790505b50505050508152602001601c8201548152602001601d8201548152602001601e8201548152505090508061010001519350806101200151925083519150509193909250565b611f026135b4565b60405163a9059cbb60e01b8152336004820152602481018290526001600160a01b0383169063a9059cbb906044016020604051808303816000875af1158015611f4f573d6000803e3d6000fd5b505050506040513d601f19601f82011682018060405250810190610c02919061546a565b63ffffffff808216600090815260db60209081526040808320815161040081019092528054909416815260018401805493948594929390929084019190611fb990615430565b80601f0160208091040260200160405190810160405280929190818152602001828054611fe590615430565b80156120325780601f1061200757610100808354040283529160200191612032565b820191906000526020600020905b81548152906001019060200180831161201557829003601f168201915b5050509183525050600282015460ff811615156020808401919091526101009091046001600160a01b03166040808401919091526003840154606084015260048401546080840152600584015463ffffffff1660a084015260068401805482518185028101850190935280835260c090940193919290919083018282801561210557602002820191906000526020600020906000905b82829054906101000a900463ffffffff1663ffffffff16815260200190600401906020826003010492830192600103820291508084116120c85790505b505050505081526020016007820180548060200260200160405190810160405280929190818152602001828054801561218957602002820191906000526020600020906000905b82829054906101000a900463ffffffff1663ffffffff168152602001906004019060208260030104928301926001038202915080841161214c5790505b505050505081526020016008820180548060200260200160405190810160405280929190818152602001828054801561220d57602002820191906000526020600020906000905b82829054906101000a900463ffffffff1663ffffffff16815260200190600401906020826003010492830192600103820291508084116121d05790505b5050505050815260200160098201548152602001600a8201548152602001600b8201548152602001600c8201548152602001600d8201548152602001600e8201548152602001600f8201548152602001601082015481526020016011820160009054906101000a900460ff1660ff1660ff1681526020016012820154815260200160138201548152602001601482015481526020016015820154815260200160168201548152602001601782015481526020016018820154815260200160198201548152602001601a8201548152602001601b820180548060200260200160405190810160405280929190818152602001828054801561235857602002820191906000526020600020906000905b82829054906101000a900463ffffffff1663ffffffff168152602001906004019060208260030104928301926001038202915080841161231b5790505b50505050508152602001601c8201548152602001601d8201548152602001601e82015481525050905061238a81613a23565b9392505050565b600061239c82613a5f565b92915050565b60005b60de5460ff82161015610eca5760de8160ff16815481106123c8576123c86152ec565b6000918252602090912001546001600160a01b031633036124175760d1805461ffff60601b1916600160601b61ffff87160217905561240a836201518061548c565b60d25560d3829055610eca565b60de5461242690600190615318565b8160ff16036124785760de8160ff1681548110612445576124456152ec565b6000918252602090912001546001600160a01b031633146124785760405162461bcd60e51b8152600401610cca9061532b565b8061248281615356565b9150506123a5565b60005b60de5460ff82161015610ce55760de8160ff16815481106124b0576124b06152ec565b6000918252602090912001546001600160a01b031633036124f45760d1805463ffffffff8416600160401b026bffffffff0000000000000000199091161790555050565b60de5461250390600190615318565b8160ff16036125555760de8160ff1681548110612522576125226152ec565b6000918252602090912001546001600160a01b031633146125555760405162461bcd60e51b8152600401610cca9061532b565b8061255f81615356565b91505061248d565b60005b60de5460ff82161015610ce55760de8160ff168154811061258d5761258d6152ec565b6000918252602090912001546001600160a01b031633036126c9576001600160a01b038216600090815260da60205260408120805460ff1916905560d854905b81811015610eca57836001600160a01b031660d882815481106125f2576125f26152ec565b6000918252602090912001546001600160a01b0316036126b75760d8612619600184615318565b81548110612629576126296152ec565b60009182526020909120015460d880546001600160a01b039092169183908110612655576126556152ec565b9060005260206000200160006101000a8154816001600160a01b0302191690836001600160a01b0316021790555060d8805480612694576126946154a3565b600082815260209020810160001990810180546001600160a01b03191690550190555b806126c1816154b9565b9150506125cd565b60de546126d890600190615318565b8160ff160361272a5760de8160ff16815481106126f7576126f76152ec565b6000918252602090912001546001600160a01b0316331461272a5760405162461bcd60e51b8152600401610cca9061532b565b8061273481615356565b91505061256a565b34600061274882613f9f565b905060df5481101561279c5760405162461bcd60e51b815260206004820152601f60248201527f56616c7565206c657373207468656e206d696e436f6e747269627574696f6e006044820152606401610cca565b60d154339042906000906127bf90640100000000900463ffffffff1660016154d2565b60d18054919250600091600160401b900463ffffffff169060086127e283615375565b825463ffffffff9182166101009390930a92830291909202199091161790556001600160a01b038516600090815260da6020526040902060d4549192509060ff161561283457612834838388876136a4565b61285485848a898860cb60029054906101000a900460ff1660ff1661402c565b6001908101805491820181556000908152602090206008820401805460079092166004026101000a63ffffffff81810219909316949092169190910292909217909155505050505050565b63ffffffff8116600090815260db60209081526040808320601b018054825181850281018501909352808352849383018282801561292857602002820191906000526020600020906000905b82829054906101000a900463ffffffff1663ffffffff16815260200190600401906020826003010492830192600103820291508084116128eb5790505b505050505090506000805b82518161ffff1610156129bc57600060dc6000858461ffff168151811061295c5761295c6152ec565b602002602001015163ffffffff1663ffffffff16815260200190815260200160002090508060000160049054906101000a900460ff16156129a95760018101546129a690846154f6565b92505b50806129b481615509565b915050612933565b509392505050565b63ffffffff808216600090815260db6020908152604080832081516104008101909252805490941681526001840180549394859485948594859490939291840191612a0e90615430565b80601f0160208091040260200160405190810160405280929190818152602001828054612a3a90615430565b8015612a875780601f10612a5c57610100808354040283529160200191612a87565b820191906000526020600020905b815481529060010190602001808311612a6a57829003601f168201915b5050509183525050600282015460ff811615156020808401919091526101009091046001600160a01b03166040808401919091526003840154606084015260048401546080840152600584015463ffffffff1660a084015260068401805482518185028101850190935280835260c0909401939192909190830182828015612b5a57602002820191906000526020600020906000905b82829054906101000a900463ffffffff1663ffffffff1681526020019060040190602082600301049283019260010382029150808411612b1d5790505b5050505050815260200160078201805480602002602001604051908101604052809291908181526020018280548015612bde57602002820191906000526020600020906000905b82829054906101000a900463ffffffff1663ffffffff1681526020019060040190602082600301049283019260010382029150808411612ba15790505b5050505050815260200160088201805480602002602001604051908101604052809291908181526020018280548015612c6257602002820191906000526020600020906000905b82829054906101000a900463ffffffff1663ffffffff1681526020019060040190602082600301049283019260010382029150808411612c255790505b5050505050815260200160098201548152602001600a8201548152602001600b8201548152602001600c8201548152602001600d8201548152602001600e8201548152602001600f8201548152602001601082015481526020016011820160009054906101000a900460ff1660ff1660ff1681526020016012820154815260200160138201548152602001601482015481526020016015820154815260200160168201548152602001601782015481526020016018820154815260200160198201548152602001601a8201548152602001601b8201805480602002602001604051908101604052809291908181526020018280548015612dad57602002820191906000526020600020906000905b82829054906101000a900463ffffffff1663ffffffff1681526020019060040190602082600301049283019260010382029150808411612d705790505b50505050508152602001601c8201548152602001601d8201548152602001601e82015481525050905080610280015194508061036001519350806102a001519250828486612dfb91906154f6565b612e0591906154f6565b9150509193509193565b612e176135b4565b6001600160a01b038116612e7c5760405162461bcd60e51b815260206004820152602660248201527f4f776e61626c653a206e6577206f776e657220697320746865207a65726f206160448201526564647265737360d01b6064820152608401610cca565b610f04816138cd565b63ffffffff8216600090815260db60205260409020600281015461010090046001600160a01b03163314612efb5760405162461bcd60e51b815260206004820152601d60248201527f596f7520617265206e6f74206f776e6572206f6620746869732069642e0000006044820152606401610cca565b6000612f06826142bf565b601e830154909150612f188183615318565b841115612f7a5760405162461bcd60e51b815260206004820152602a60248201527f506c6561736520656e7465722076616c7565206c657373207468656e20796f7560448201526939103130b630b731b29760b11b6064820152608401610cca565b8383601e016000828254612f8e91906154f6565b909155503390506108fc612fa18661360e565b6040518115909202916000818181858888f19350505050158015612fc9573d6000803e3d6000fd5b505050505050565b6130db604051806104000160405280600063ffffffff1681526020016060815260200160001515815260200160006001600160a01b031681526020016000815260200160008152602001600063ffffffff1681526020016060815260200160608152602001606081526020016000815260200160008152602001600081526020016000815260200160008152602001600081526020016000815260200160008152602001600060ff168152602001600081526020016000815260200160008152602001600081526020016000815260200160008152602001600081526020016000815260200160008152602001606081526020016000815260200160008152602001600081525090565b63ffffffff808316600090815260db602090815260409182902082516104008101909352805490931682526001830180549293929184019161311c90615430565b80601f016020809104026020016040519081016040528092919081815260200182805461314890615430565b80156131955780601f1061316a57610100808354040283529160200191613195565b820191906000526020600020905b81548152906001019060200180831161317857829003601f168201915b5050509183525050600282015460ff811615156020808401919091526101009091046001600160a01b03166040808401919091526003840154606084015260048401546080840152600584015463ffffffff1660a084015260068401805482518185028101850190935280835260c090940193919290919083018282801561326857602002820191906000526020600020906000905b82829054906101000a900463ffffffff1663ffffffff168152602001906004019060208260030104928301926001038202915080841161322b5790505b50505050508152602001600782018054806020026020016040519081016040528092919081815260200182805480156132ec57602002820191906000526020600020906000905b82829054906101000a900463ffffffff1663ffffffff16815260200190600401906020826003010492830192600103820291508084116132af5790505b505050505081526020016008820180548060200260200160405190810160405280929190818152602001828054801561337057602002820191906000526020600020906000905b82829054906101000a900463ffffffff1663ffffffff16815260200190600401906020826003010492830192600103820291508084116133335790505b5050505050815260200160098201548152602001600a8201548152602001600b8201548152602001600c8201548152602001600d8201548152602001600e8201548152602001600f8201548152602001601082015481526020016011820160009054906101000a900460ff1660ff1660ff1681526020016012820154815260200160138201548152602001601482015481526020016015820154815260200160168201548152602001601782015481526020016018820154815260200160198201548152602001601a8201548152602001601b82018054806020026020016040519081016040528092919081815260200182805480156134bb57602002820191906000526020600020906000905b82829054906101000a900463ffffffff1663ffffffff168152602001906004019060208260030104928301926001038202915080841161347e5790505b50505050508152602001601c8201548152602001601d8201548152602001601e820154815250509050919050565b6040805180820190915260008152606060208201526001600160a01b038216600090815260da602090815260409182902082518084018452815460ff1615158152600182018054855181860281018601909652808652919492938581019392908301828280156135a457602002820191906000526020600020906000905b82829054906101000a900463ffffffff1663ffffffff16815260200190600401906020826003010492830192600103820291508084116135675790505b5050505050815250509050919050565b6033546001600160a01b031633146112b55760405162461bcd60e51b815260206004820181905260248201527f4f776e61626c653a2063616c6c6572206973206e6f7420746865206f776e65726044820152606401610cca565b60008060c960009054906101000a90046001600160a01b03166001600160a01b031663e1aa60366040518163ffffffff1660e01b8152600401602060405180830381865afa158015613664573d6000803e3d6000fd5b505050506040513d601f19601f820116820180604052508101906136889190615520565b61369a84670de0b6b3a764000061548c565b61238a9190615539565b63ffffffff928316600081815260dc6020908152604080832097871680845260db835290832088546501000000000090920268ffffffffff00000000199092169190911764010000000017885560018089019690965560d15460028901805461ffff191661ffff600160601b90930492909216919091179055600390970193909355601b90950180549384018155855293206008820401805460079092166004026101000a938402939092021916919091179055565b610f046135b4565b7f4910fdfa16fed3260ed0e7147f7cc6da11a60208b5b9406d12a635614ffd91435460ff161561379557610c02836142e3565b826001600160a01b03166352d1902d6040518163ffffffff1660e01b8152600401602060405180830381865afa9250505080156137ef575060408051601f3d908101601f191682019092526137ec91810190615520565b60015b6138525760405162461bcd60e51b815260206004820152602e60248201527f45524331393637557067726164653a206e657720696d706c656d656e7461746960448201526d6f6e206973206e6f74205555505360901b6064820152608401610cca565b6000805160206155d683398151915281146138c15760405162461bcd60e51b815260206004820152602960248201527f45524331393637557067726164653a20756e737570706f727465642070726f786044820152681a58589b195555525160ba1b6064820152608401610cca565b50610c0283838361437f565b603380546001600160a01b038381166001600160a01b0319831681179093556040519116919082907f8be0079c531659141344cd1fd0a4f28419497f9722a3daafe3b4186f6b6457e090600090a35050565b60d95460009060ff16815b8160ff168160ff1610156139c65760ff8116600090815260dd60205260409020600101546101408501511080159061397c575060ff8116600090815260dd602052604090206002015461018085015110155b80156139a2575060ff8116600090815260dd60205260409020600301546101c085015110155b156139af578092506139b4565b6139c6565b806139be81615356565b91505061392a565b5050919050565b600054610100900460ff166139f45760405162461bcd60e51b8152600401610cca9061555b565b6112b56143a4565b600054610100900460ff166112b55760405162461bcd60e51b8152600401610cca9061555b565b60e08101515160009081811561238a5760d454600190613a4d906301000000900460ff168461548c565b613a579190615318565b949350505050565b63ffffffff808216600090815260db60209081526040808320815161040081019092528054909416815260018401805493948594929390929084019190613aa590615430565b80601f0160208091040260200160405190810160405280929190818152602001828054613ad190615430565b8015613b1e5780601f10613af357610100808354040283529160200191613b1e565b820191906000526020600020905b815481529060010190602001808311613b0157829003601f168201915b5050509183525050600282015460ff811615156020808401919091526101009091046001600160a01b03166040808401919091526003840154606084015260048401546080840152600584015463ffffffff1660a084015260068401805482518185028101850190935280835260c0909401939192909190830182828015613bf157602002820191906000526020600020906000905b82829054906101000a900463ffffffff1663ffffffff1681526020019060040190602082600301049283019260010382029150808411613bb45790505b5050505050815260200160078201805480602002602001604051908101604052809291908181526020018280548015613c7557602002820191906000526020600020906000905b82829054906101000a900463ffffffff1663ffffffff1681526020019060040190602082600301049283019260010382029150808411613c385790505b5050505050815260200160088201805480602002602001604051908101604052809291908181526020018280548015613cf957602002820191906000526020600020906000905b82829054906101000a900463ffffffff1663ffffffff1681526020019060040190602082600301049283019260010382029150808411613cbc5790505b5050505050815260200160098201548152602001600a8201548152602001600b8201548152602001600c8201548152602001600d8201548152602001600e8201548152602001600f8201548152602001601082015481526020016011820160009054906101000a900460ff1660ff1660ff1681526020016012820154815260200160138201548152602001601482015481526020016015820154815260200160168201548152602001601782015481526020016018820154815260200160198201548152602001601a8201548152602001601b8201805480602002602001604051908101604052809291908181526020018280548015613e4457602002820191906000526020600020906000905b82829054906101000a900463ffffffff1663ffffffff1681526020019060040190602082600301049283019260010382029150808411613e075790505b5050509183525050601c8201546020820152601d8201546040820152601e9091015460609091015261038081015180516102c08301519293509091613e8a90600261548c565b836102e00151108015613e9d5750600081115b15613f925760005b818161ffff161015613f8c57600060dc6000858461ffff1681518110613ecd57613ecd6152ec565b602002602001015163ffffffff1663ffffffff16815260200190815260200160002090508060000160049054906101000a900460ff1615613f795760cb5460d154600183015460009261ffff90811692613f3292600160601b9091049091169061548c565b613f3c9190615539565b90506000826003015442613f509190615318565b905062015180613f60828461548c565b613f6a9190615539565b613f7490896154f6565b975050505b5080613f8481615509565b915050613ea5565b50613f97565b600093505b505050919050565b600080670de0b6b3a764000060c960009054906101000a90046001600160a01b03166001600160a01b031663e1aa60366040518163ffffffff1660e01b8152600401602060405180830381865afa158015613ffe573d6000803e3d6000fd5b505050506040513d601f19601f820116820180604052508101906140229190615520565b61369a908561548c565b63ffffffff858116600081815260db60205260409020805463ffffffff1990811690921781556002810180546001600160a81b0319166101006001600160a01b038c16021760011790556003808201869055600582018054909316938816939093179091559061409d90859061548c565b8160170160008282546140b091906154f6565b92505081905550838160090160008282546140cb91906154f6565b92505081905550838160150160008282546140e691906154f6565b90915550506019810183905560005b828160ff16101561427857600582015463ffffffff908116600081815260db6020526040812080549293909216900361412f575050614278565b8260ff16600003614193578681600b01600082825461414e91906154f6565b9091555050600681018054600181018255600091825260209091206008820401805460079092166004026101000a63ffffffff81810219909316928c16029190911790555b8681600d0160008282546141a791906154f6565b9091555050600781810180546001810182556000918252602091829020600882040180549190931660040261010090810a63ffffffff818102199093168e841691820217909455600285015460058901546040519084168152928d16939190046001600160a01b0316917fa7fafc728ec30e34dc1e1276496bf3eb44ca7494679da969455289e6a8f0f1f6910160405180910390a460d454610100900460ff161561425857614258818389896143d4565b6142628787614a78565b925081905061427081615356565b9150506140f5565b5060d18054640100000000900463ffffffff1690600461429783615375565b91906101000a81548163ffffffff021916908363ffffffff1602179055505050505050505050565b60008160170154826016015410156142db57816016015461239c565b506017015490565b6001600160a01b0381163b6143505760405162461bcd60e51b815260206004820152602d60248201527f455243313936373a206e657720696d706c656d656e746174696f6e206973206e60448201526c1bdd08184818dbdb9d1c9858dd609a1b6064820152608401610cca565b6000805160206155d683398151915280546001600160a01b0319166001600160a01b0392909216919091179055565b61438883614ab2565b6000825111806143955750805b15610c0257610eca8383614af2565b600054610100900460ff166143cb5760405162461bcd60e51b8152600401610cca9061555b565b6112b5336138cd565b6011840154604080516104008101909152855463ffffffff16815260018601805460ff909316926147dc9291889160208401919061441190615430565b80601f016020809104026020016040519081016040528092919081815260200182805461443d90615430565b801561448a5780601f1061445f5761010080835404028352916020019161448a565b820191906000526020600020905b81548152906001019060200180831161446d57829003601f168201915b5050509183525050600282015460ff811615156020808401919091526101009091046001600160a01b03166040808401919091526003840154606084015260048401546080840152600584015463ffffffff1660a084015260068401805482518185028101850190935280835260c090940193919290919083018282801561455d57602002820191906000526020600020906000905b82829054906101000a900463ffffffff1663ffffffff16815260200190600401906020826003010492830192600103820291508084116145205790505b50505050508152602001600782018054806020026020016040519081016040528092919081815260200182805480156145e157602002820191906000526020600020906000905b82829054906101000a900463ffffffff1663ffffffff16815260200190600401906020826003010492830192600103820291508084116145a45790505b505050505081526020016008820180548060200260200160405190810160405280929190818152602001828054801561466557602002820191906000526020600020906000905b82829054906101000a900463ffffffff1663ffffffff16815260200190600401906020826003010492830192600103820291508084116146285790505b5050505050815260200160098201548152602001600a8201548152602001600b8201548152602001600c8201548152602001600d8201548152602001600e8201548152602001600f8201548152602001601082015481526020016011820160009054906101000a900460ff1660ff1660ff1681526020016012820154815260200160138201548152602001601482015481526020016015820154815260200160168201548152602001601782015481526020016018820154815260200160198201548152602001601a8201548152602001601b82018054806020026020016040519081016040528092919081815260200182805480156147b057602002820191906000526020600020906000905b82829054906101000a900463ffffffff1663ffffffff16815260200190600401906020826003010492830192600103820291508084116147735790505b50505050508152602001601c8201548152602001601d8201548152602001601e8201548152505061391f565b60ff161115610eca57604080516104008101909152845463ffffffff1681526001850180546148179291879160208401919061441190615430565b60118501805460ff191660ff9283169081178255600090815260dd6020908152604080832060099081018054600181810183559186529385206008850401805460079095166004026101000a63ffffffff81810219909616958c1602949094179093559354909416825292902001546148909190615318565b6012850181905560118501546040805163ffffffff87168152602081019390935260ff90911682820152517fb0d3a9c683344e744a1ae3db383f75a8a01851282c5fe97d6159c1392a2e2a0a9181900360600190a1604080516104008101909152845463ffffffff16815260018501805460dd9260009261491b928991602084019161441190615430565b60ff9081168252602082019290925260400160002060080154610100900416156149df57604080516104008101909152845463ffffffff16815260018501805460dd92600092614975928991602084019161441190615430565b60ff1660ff16815260200190815260200160002060070154846010015461499c91906154f6565b8111156149cb578084601001819055508184600f0160008282546149c091906154f6565b90915550610eca9050565b8184600f0160008282546149c091906154f6565b60d454610100900460ff1615610eca57601184015460ff16600090815260dd6020526040902060050154614a14908590614be6565b601184015460ff908116600090815260dd602090815260409182902060058101549054925192909316825263ffffffff8616917f94b6d3d19cc40938e685ef6a1f6476b53ef65295ab094a044e74405a8d0bd05b910160405180910390a350505050565b60d75460d654614a8891906154f6565b811115614a975760d65560d555565b8160d56000828254614aa991906154f6565b90915550505050565b614abb816142e3565b6040516001600160a01b038216907fbc7cd75a20ee27fd9adebab32041f755214dbc6bffa90cc0225b39da2e5c2d3b90600090a250565b60606001600160a01b0383163b614b5a5760405162461bcd60e51b815260206004820152602660248201527f416464726573733a2064656c65676174652063616c6c20746f206e6f6e2d636f6044820152651b9d1c9858dd60d21b6064820152608401610cca565b600080846001600160a01b031684604051614b7591906155a6565b600060405180830381855af49150503d8060008114614bb0576040519150601f19603f3d011682016040523d82523d6000602084013e614bb5565b606091505b5091509150614bdd82826040518060600160405280602781526020016155f660279139614c1e565b95945050505050565b8160170154818360160154614bfb91906154f6565b10614c0e57601782015460168301555050565b808260160154610c0291906154f6565b60608315614c2d57508161238a565b61238a8383815115614c425781518083602001fd5b8060405162461bcd60e51b8152600401610cca91906155c2565b82805482825590600052602060002090600f01601090048101928215614cf45791602002820160005b83821115614cc457835183826101000a81548161ffff021916908360ff1602179055509260200192600201602081600101049283019260010302614c85565b8015614cf25782816101000a81549061ffff0219169055600201602081600101049283019260010302614cc4565b505b50614d00929150614d04565b5090565b5b80821115614d005760008155600101614d05565b80356001600160a01b0381168114614d3057600080fd5b919050565b60008060408385031215614d4857600080fd5b614d5183614d19565b946020939093013593505050565b600060208284031215614d7157600080fd5b61238a82614d19565b600060208284031215614d8c57600080fd5b5035919050565b803563ffffffff81168114614d3057600080fd5b600060208284031215614db957600080fd5b61238a82614d93565b634e487b7160e01b600052604160045260246000fd5b604051601f8201601f1916810167ffffffffffffffff81118282101715614e0157614e01614dc2565b604052919050565b600080600060608486031215614e1e57600080fd5b614e2784614d93565b92506020614e36818601614d93565b9250604085013567ffffffffffffffff80821115614e5357600080fd5b818701915087601f830112614e6757600080fd5b813581811115614e7957614e79614dc2565b8060051b9150614e8a848301614dd8565b818152918301840191848101908a841115614ea457600080fd5b938501935b83851015614ec257843582529385019390850190614ea9565b8096505050505050509250925092565b60008060408385031215614ee557600080fd5b614eee83614d19565b915060208084013567ffffffffffffffff80821115614f0c57600080fd5b818601915086601f830112614f2057600080fd5b813581811115614f3257614f32614dc2565b614f44601f8201601f19168501614dd8565b91508082528784828501011115614f5a57600080fd5b80848401858401376000848284010152508093505050509250929050565b600081518084526020808501945080840160005b83811015614fae57815163ffffffff1687529582019590820190600101614f8c565b509495945050505050565b606081526000614fcc6060830186614f78565b8281036020840152614fde8186614f78565b915050826040830152949350505050565b60008060006060848603121561500457600080fd5b833561ffff8116811461501657600080fd5b95602085013595506040909401359392505050565b6000806040838503121561503e57600080fd5b614d5183614d93565b60005b8381101561506257818101518382015260200161504a565b50506000910152565b60008151808452615083816020860160208601615047565b601f01601f19169290920160200192915050565b602081526150ae60208201835163ffffffff169052565b600060208301516104008060408501526150cc61042085018361506b565b915060408501516150e1606086018215159052565b5060608501516001600160a01b038116608086015250608085015160a085015260a085015160c085015260c085015161512260e086018263ffffffff169052565b5060e0850151601f196101008187860301818801526151418584614f78565b9450808801519250506101208187860301818801526151608584614f78565b94508088015192505061014081878603018188015261517f8584614f78565b9088015161016088810191909152880151610180808901919091528801516101a0808901919091528801516101c0808901919091528801516101e08089019190915288015161020080890191909152880151610220808901919091528801516102408089019190915288015190945091506102606152018188018460ff169052565b870151610280878101919091528701516102a0808801919091528701516102c0808801919091528701516102e080880191909152870151610300808801919091528701516103208088019190915287015161034080880191909152870151610360808801919091528701516103808088019190915287015186850382016103a0808901919091529092506152958584614f78565b908801516103c0888101919091528801516103e08089019190915290970151929095019190915250929392505050565b6020815281511515602082015260006020830151604080840152613a576060840182614f78565b634e487b7160e01b600052603260045260246000fd5b634e487b7160e01b600052601160045260246000fd5b8181038181111561239c5761239c615302565b6020808252601190820152702cb7ba9030b932903737ba1030b236b4b760791b604082015260600190565b600060ff821660ff810361536c5761536c615302565b60010192915050565b600063ffffffff80831681810361538e5761538e615302565b6001019392505050565b6020808252602c908201527f46756e6374696f6e206d7573742062652063616c6c6564207468726f7567682060408201526b19195b1959d85d1958d85b1b60a21b606082015260800190565b6020808252602c908201527f46756e6374696f6e206d7573742062652063616c6c6564207468726f7567682060408201526b6163746976652070726f787960a01b606082015260800190565b600181811c9082168061544457607f821691505b60208210810361546457634e487b7160e01b600052602260045260246000fd5b50919050565b60006020828403121561547c57600080fd5b8151801515811461238a57600080fd5b808202811582820484141761239c5761239c615302565b634e487b7160e01b600052603160045260246000fd5b6000600182016154cb576154cb615302565b5060010190565b63ffffffff8181168382160190808211156154ef576154ef615302565b5092915050565b8082018082111561239c5761239c615302565b600061ffff80831681810361538e5761538e615302565b60006020828403121561553257600080fd5b5051919050565b60008261555657634e487b7160e01b600052601260045260246000fd5b500490565b6020808252602b908201527f496e697469616c697a61626c653a20636f6e7472616374206973206e6f74206960408201526a6e697469616c697a696e6760a81b606082015260800190565b600082516155b8818460208701615047565b9190910192915050565b60208152600061238a602083018461506b56fe360894a13ba1a3210667c828492db98dca3e2076cc3735a920a3ca505d382bbc416464726573733a206c6f772d6c6576656c2064656c65676174652063616c6c206661696c6564a264697066735822122042e2889aa8dee0a9cfc58b7cc4d88f0a5737afb91a03f6eecce01e0d6f122a7064736f6c63430008110033","opcodes":"PUSH1 0xA0 PUSH1 0x40 MSTORE ADDRESS PUSH1 0x80 MSTORE CALLVALUE DUP1 ISZERO PUSH2 0x14 JUMPI PUSH1 0x0 DUP1 REVERT JUMPDEST POP PUSH1 0x80 MLOAD PUSH2 0x5652 PUSH3 0x4D PUSH1 0x0 CODECOPY PUSH1 0x0 DUP2 DUP2 PUSH2 0xF11 ADD MSTORE DUP2 DUP2 PUSH2 0xF51 ADD MSTORE DUP2 DUP2 PUSH2 0xFFA ADD MSTORE DUP2 DUP2 PUSH2 0x103A ADD MSTORE PUSH2 0x10C9 ADD MSTORE PUSH2 0x5652 PUSH1 0x0 RETURN INVALID PUSH1 0x80 PUSH1 0x40 MSTORE PUSH1 0x4 CALLDATASIZE LT PUSH2 0x354 JUMPI PUSH1 0x0 CALLDATALOAD PUSH1 0xE0 SHR DUP1 PUSH4 0x7C599486 GT PUSH2 0x1C6 JUMPI DUP1 PUSH4 0xBFF1F9E1 GT PUSH2 0xF7 JUMPI DUP1 PUSH4 0xF229B4D5 GT PUSH2 0x95 JUMPI DUP1 PUSH4 0xF41BFEEF GT PUSH2 0x6F JUMPI DUP1 PUSH4 0xF41BFEEF EQ PUSH2 0xB35 JUMPI DUP1 PUSH4 0xF830E57B EQ PUSH2 0xB4B JUMPI DUP1 PUSH4 0xFAFC9597 EQ PUSH2 0xB78 JUMPI DUP1 PUSH4 0xFB47E016 EQ PUSH2 0xB97 JUMPI PUSH1 0x0 DUP1 REVERT JUMPDEST DUP1 PUSH4 0xF229B4D5 EQ PUSH2 0xAB5 JUMPI DUP1 PUSH4 0xF2FDE38B EQ PUSH2 0xAF5 JUMPI DUP1 PUSH4 0xF31A2D0F EQ PUSH2 0xB15 JUMPI PUSH1 0x0 DUP1 REVERT JUMPDEST DUP1 PUSH4 0xD895AF2C GT PUSH2 0xD1 JUMPI DUP1 PUSH4 0xD895AF2C EQ PUSH2 0xA42 JUMPI DUP1 PUSH4 0xE52356F3 EQ PUSH2 0xA62 JUMPI DUP1 PUSH4 0xE5682E38 EQ PUSH2 0xA82 JUMPI DUP1 PUSH4 0xEA62F715 EQ PUSH2 0xA95 JUMPI PUSH1 0x0 DUP1 REVERT JUMPDEST DUP1 PUSH4 0xBFF1F9E1 EQ PUSH2 0x8E4 JUMPI DUP1 PUSH4 0xC3AB5EBF EQ PUSH2 0x901 JUMPI DUP1 PUSH4 0xC82801CA EQ PUSH2 0xA22 JUMPI PUSH1 0x0 DUP1 REVERT JUMPDEST DUP1 PUSH4 0xA0506AED GT PUSH2 0x164 JUMPI DUP1 PUSH4 0xA28A3686 GT PUSH2 0x13E JUMPI DUP1 PUSH4 0xA28A3686 EQ PUSH2 0x86A JUMPI DUP1 PUSH4 0xAF2F39D1 EQ PUSH2 0x88A JUMPI DUP1 PUSH4 0xB47181D3 EQ PUSH2 0x8A4 JUMPI DUP1 PUSH4 0xBF46DE63 EQ PUSH2 0x8C4 JUMPI PUSH1 0x0 DUP1 REVERT JUMPDEST DUP1 PUSH4 0xA0506AED EQ PUSH2 0x7F7 JUMPI DUP1 PUSH4 0xA0B6105F EQ PUSH2 0x826 JUMPI DUP1 PUSH4 0xA1B80175 EQ PUSH2 0x846 JUMPI PUSH1 0x0 DUP1 REVERT JUMPDEST DUP1 PUSH4 0x8DA5CB5B GT PUSH2 0x1A0 JUMPI DUP1 PUSH4 0x8DA5CB5B EQ PUSH2 0x783 JUMPI DUP1 PUSH4 0x8DF05D9C EQ PUSH2 0x7A1 JUMPI DUP1 PUSH4 0x96ED6B85 EQ PUSH2 0x7C1 JUMPI DUP1 PUSH4 0x9F4E8398 EQ PUSH2 0x7D7 JUMPI PUSH1 0x0 DUP1 REVERT JUMPDEST DUP1 PUSH4 0x7C599486 EQ PUSH2 0x742 JUMPI DUP1 PUSH4 0x8129FC1C EQ PUSH2 0x758 JUMPI DUP1 PUSH4 0x852FF2FD EQ PUSH2 0x76D JUMPI PUSH1 0x0 DUP1 REVERT JUMPDEST DUP1 PUSH4 0x347976C4 GT PUSH2 0x2A0 JUMPI DUP1 PUSH4 0x538FFE0C GT PUSH2 0x23E JUMPI DUP1 PUSH4 0x70D9E081 GT PUSH2 0x218 JUMPI DUP1 PUSH4 0x70D9E081 EQ PUSH2 0x6CD JUMPI DUP1 PUSH4 0x715018A6 EQ PUSH2 0x6ED JUMPI DUP1 PUSH4 0x76A68E84 EQ PUSH2 0x702 JUMPI DUP1 PUSH4 0x7879B5EF EQ PUSH2 0x722 JUMPI PUSH1 0x0 DUP1 REVERT JUMPDEST DUP1 PUSH4 0x538FFE0C EQ PUSH2 0x62A JUMPI DUP1 PUSH4 0x5E701D86 EQ PUSH2 0x673 JUMPI DUP1 PUSH4 0x704B6C02 EQ PUSH2 0x6AD JUMPI PUSH1 0x0 DUP1 REVERT JUMPDEST DUP1 PUSH4 0x3659CFE6 GT PUSH2 0x27A JUMPI DUP1 PUSH4 0x3659CFE6 EQ PUSH2 0x5C2 JUMPI DUP1 PUSH4 0x473B0D46 EQ PUSH2 0x5E2 JUMPI DUP1 PUSH4 0x4F1EF286 EQ PUSH2 0x602 JUMPI DUP1 PUSH4 0x52D1902D EQ PUSH2 0x615 JUMPI PUSH1 0x0 DUP1 REVERT JUMPDEST DUP1 PUSH4 0x347976C4 EQ PUSH2 0x508 JUMPI DUP1 PUSH4 0x35715F6F EQ PUSH2 0x58D JUMPI DUP1 PUSH4 0x35759788 EQ PUSH2 0x5AD JUMPI PUSH1 0x0 DUP1 REVERT JUMPDEST DUP1 PUSH4 0x1F7F83BA GT PUSH2 0x30D JUMPI DUP1 PUSH4 0x2913497B GT PUSH2 0x2E7 JUMPI DUP1 PUSH4 0x2913497B EQ PUSH2 0x490 JUMPI DUP1 PUSH4 0x2ED421D2 EQ PUSH2 0x4AE JUMPI DUP1 PUSH4 0x30ABBCC5 EQ PUSH2 0x4C4 JUMPI DUP1 PUSH4 0x313CE567 EQ PUSH2 0x4DA JUMPI PUSH1 0x0 DUP1 REVERT JUMPDEST DUP1 PUSH4 0x1F7F83BA EQ PUSH2 0x445 JUMPI DUP1 PUSH4 0x1F9E65E4 EQ PUSH2 0x465 JUMPI DUP1 PUSH4 0x22F88B52 EQ PUSH2 0x47A JUMPI PUSH1 0x0 DUP1 REVERT JUMPDEST DUP1 PUSH4 0x9DE82CD EQ PUSH2 0x360 JUMPI DUP1 PUSH4 0xB243DAD EQ PUSH2 0x389 JUMPI DUP1 PUSH4 0xEFDBB6A EQ PUSH2 0x3AB JUMPI DUP1 PUSH4 0x14BFD6D0 EQ PUSH2 0x3CB JUMPI DUP1 PUSH4 0x18E10BFF EQ PUSH2 0x403 JUMPI DUP1 PUSH4 0x1C961C05 EQ PUSH2 0x42F JUMPI PUSH1 0x0 DUP1 REVERT JUMPDEST CALLDATASIZE PUSH2 0x35B JUMPI STOP JUMPDEST PUSH1 0x0 DUP1 REVERT JUMPDEST CALLVALUE DUP1 ISZERO PUSH2 0x36C JUMPI PUSH1 0x0 DUP1 REVERT JUMPDEST POP PUSH2 0x376 PUSH1 0xCE SLOAD DUP2 JUMP JUMPDEST PUSH1 0x40 MLOAD SWAP1 DUP2 MSTORE PUSH1 0x20 ADD JUMPDEST PUSH1 0x40 MLOAD DUP1 SWAP2 SUB SWAP1 RETURN JUMPDEST CALLVALUE DUP1 ISZERO PUSH2 0x395 JUMPI PUSH1 0x0 DUP1 REVERT JUMPDEST POP PUSH2 0x3A9 PUSH2 0x3A4 CALLDATASIZE PUSH1 0x4 PUSH2 0x4D35 JUMP JUMPDEST PUSH2 0xBC4 JUMP JUMPDEST STOP JUMPDEST CALLVALUE DUP1 ISZERO PUSH2 0x3B7 JUMPI PUSH1 0x0 DUP1 REVERT JUMPDEST POP PUSH2 0x3A9 PUSH2 0x3C6 CALLDATASIZE PUSH1 0x4 PUSH2 0x4D5F JUMP JUMPDEST PUSH2 0xC07 JUMP JUMPDEST CALLVALUE DUP1 ISZERO PUSH2 0x3D7 JUMPI PUSH1 0x0 DUP1 REVERT JUMPDEST POP PUSH2 0x3EB PUSH2 0x3E6 CALLDATASIZE PUSH1 0x4 PUSH2 0x4D7A JUMP JUMPDEST PUSH2 0xCE9 JUMP JUMPDEST PUSH1 0x40 MLOAD PUSH1 0x1 PUSH1 0x1 PUSH1 0xA0 SHL SUB SWAP1 SWAP2 AND DUP2 MSTORE PUSH1 0x20 ADD PUSH2 0x380 JUMP JUMPDEST CALLVALUE DUP1 ISZERO PUSH2 0x40F JUMPI PUSH1 0x0 DUP1 REVERT JUMPDEST POP PUSH1 0xD9 SLOAD PUSH2 0x41D SWAP1 PUSH1 0xFF AND DUP2 JUMP JUMPDEST PUSH1 0x40 MLOAD PUSH1 0xFF SWAP1 SWAP2 AND DUP2 MSTORE PUSH1 0x20 ADD PUSH2 0x380 JUMP JUMPDEST CALLVALUE DUP1 ISZERO PUSH2 0x43B JUMPI PUSH1 0x0 DUP1 REVERT JUMPDEST POP PUSH2 0x376 PUSH1 0xCC SLOAD DUP2 JUMP JUMPDEST CALLVALUE DUP1 ISZERO PUSH2 0x451 JUMPI PUSH1 0x0 DUP1 REVERT JUMPDEST POP PUSH2 0x3EB PUSH2 0x460 CALLDATASIZE PUSH1 0x4 PUSH2 0x4D7A JUMP JUMPDEST PUSH2 0xD13 JUMP JUMPDEST CALLVALUE DUP1 ISZERO PUSH2 0x471 JUMPI PUSH1 0x0 DUP1 REVERT JUMPDEST POP PUSH2 0x376 PUSH2 0xD23 JUMP JUMPDEST CALLVALUE DUP1 ISZERO PUSH2 0x486 JUMPI PUSH1 0x0 DUP1 REVERT JUMPDEST POP PUSH2 0x376 PUSH1 0xD5 SLOAD DUP2 JUMP JUMPDEST CALLVALUE DUP1 ISZERO PUSH2 0x49C JUMPI PUSH1 0x0 DUP1 REVERT JUMPDEST POP PUSH1 0xC9 SLOAD PUSH1 0x1 PUSH1 0x1 PUSH1 0xA0 SHL SUB AND PUSH2 0x3EB JUMP JUMPDEST CALLVALUE DUP1 ISZERO PUSH2 0x4BA JUMPI PUSH1 0x0 DUP1 REVERT JUMPDEST POP PUSH2 0x376 PUSH1 0xD6 SLOAD DUP2 JUMP JUMPDEST CALLVALUE DUP1 ISZERO PUSH2 0x4D0 JUMPI PUSH1 0x0 DUP1 REVERT JUMPDEST POP PUSH2 0x376 PUSH1 0xD0 SLOAD DUP2 JUMP JUMPDEST CALLVALUE DUP1 ISZERO PUSH2 0x4E6 JUMPI PUSH1 0x0 DUP1 REVERT JUMPDEST POP PUSH1 0xCB SLOAD PUSH2 0x4F5 SWAP1 PUSH2 0xFFFF AND DUP2 JUMP JUMPDEST PUSH1 0x40 MLOAD PUSH2 0xFFFF SWAP1 SWAP2 AND DUP2 MSTORE PUSH1 0x20 ADD PUSH2 0x380 JUMP JUMPDEST CALLVALUE DUP1 ISZERO PUSH2 0x514 JUMPI PUSH1 0x0 DUP1 REVERT JUMPDEST POP PUSH2 0x560 PUSH2 0x523 CALLDATASIZE PUSH1 0x4 PUSH2 0x4DA7 JUMP JUMPDEST PUSH4 0xFFFFFFFF AND PUSH1 0x0 SWAP1 DUP2 MSTORE PUSH1 0xDB PUSH1 0x20 MSTORE PUSH1 0x40 SWAP1 KECCAK256 PUSH1 0x9 DUP2 ADD SLOAD PUSH1 0xA DUP3 ADD SLOAD PUSH1 0xB DUP4 ADD SLOAD PUSH1 0xC DUP5 ADD SLOAD PUSH1 0xD DUP6 ADD SLOAD PUSH1 0xE SWAP1 SWAP6 ADD SLOAD SWAP4 SWAP6 SWAP3 SWAP5 SWAP2 SWAP4 SWAP1 SWAP3 JUMP JUMPDEST PUSH1 0x40 DUP1 MLOAD SWAP7 DUP8 MSTORE PUSH1 0x20 DUP8 ADD SWAP6 SWAP1 SWAP6 MSTORE SWAP4 DUP6 ADD SWAP3 SWAP1 SWAP3 MSTORE PUSH1 0x60 DUP5 ADD MSTORE PUSH1 0x80 DUP4 ADD MSTORE PUSH1 0xA0 DUP3 ADD MSTORE PUSH1 0xC0 ADD PUSH2 0x380 JUMP JUMPDEST CALLVALUE DUP1 ISZERO PUSH2 0x599 JUMPI PUSH1 0x0 DUP1 REVERT JUMPDEST POP PUSH2 0x3A9 PUSH2 0x5A8 CALLDATASIZE PUSH1 0x4 PUSH2 0x4E09 JUMP JUMPDEST PUSH2 0xD35 JUMP JUMPDEST CALLVALUE DUP1 ISZERO PUSH2 0x5B9 JUMPI PUSH1 0x0 DUP1 REVERT JUMPDEST POP PUSH2 0x3A9 PUSH2 0xED0 JUMP JUMPDEST CALLVALUE DUP1 ISZERO PUSH2 0x5CE JUMPI PUSH1 0x0 DUP1 REVERT JUMPDEST POP PUSH2 0x3A9 PUSH2 0x5DD CALLDATASIZE PUSH1 0x4 PUSH2 0x4D5F JUMP JUMPDEST PUSH2 0xF07 JUMP JUMPDEST CALLVALUE DUP1 ISZERO PUSH2 0x5EE JUMPI PUSH1 0x0 DUP1 REVERT JUMPDEST POP PUSH2 0x3A9 PUSH2 0x5FD CALLDATASIZE PUSH1 0x4 PUSH2 0x4D7A JUMP JUMPDEST PUSH2 0xFE3 JUMP JUMPDEST PUSH2 0x3A9 PUSH2 0x610 CALLDATASIZE PUSH1 0x4 PUSH2 0x4ED2 JUMP JUMPDEST PUSH2 0xFF0 JUMP JUMPDEST CALLVALUE DUP1 ISZERO PUSH2 0x621 JUMPI PUSH1 0x0 DUP1 REVERT JUMPDEST POP PUSH2 0x376 PUSH2 0x10BC JUMP JUMPDEST CALLVALUE DUP1 ISZERO PUSH2 0x636 JUMPI PUSH1 0x0 DUP1 REVERT JUMPDEST POP PUSH2 0x663 PUSH2 0x645 CALLDATASIZE PUSH1 0x4 PUSH2 0x4D5F JUMP JUMPDEST PUSH1 0x1 PUSH1 0x1 PUSH1 0xA0 SHL SUB AND PUSH1 0x0 SWAP1 DUP2 MSTORE PUSH1 0xDA PUSH1 0x20 MSTORE PUSH1 0x40 SWAP1 KECCAK256 SLOAD PUSH1 0xFF AND SWAP1 JUMP JUMPDEST PUSH1 0x40 MLOAD SWAP1 ISZERO ISZERO DUP2 MSTORE PUSH1 0x20 ADD PUSH2 0x380 JUMP JUMPDEST CALLVALUE DUP1 ISZERO PUSH2 0x67F JUMPI PUSH1 0x0 DUP1 REVERT JUMPDEST POP PUSH1 0xD1 SLOAD PUSH2 0x698 SWAP1 PUSH5 0x100000000 SWAP1 DIV PUSH4 0xFFFFFFFF AND DUP2 JUMP JUMPDEST PUSH1 0x40 MLOAD PUSH4 0xFFFFFFFF SWAP1 SWAP2 AND DUP2 MSTORE PUSH1 0x20 ADD PUSH2 0x380 JUMP JUMPDEST CALLVALUE DUP1 ISZERO PUSH2 0x6B9 JUMPI PUSH1 0x0 DUP1 REVERT JUMPDEST POP PUSH2 0x3A9 PUSH2 0x6C8 CALLDATASIZE PUSH1 0x4 PUSH2 0x4D5F JUMP JUMPDEST PUSH2 0x116F JUMP JUMPDEST CALLVALUE DUP1 ISZERO PUSH2 0x6D9 JUMPI PUSH1 0x0 DUP1 REVERT JUMPDEST POP PUSH2 0x3A9 PUSH2 0x6E8 CALLDATASIZE PUSH1 0x4 PUSH2 0x4DA7 JUMP JUMPDEST PUSH2 0x11C9 JUMP JUMPDEST CALLVALUE DUP1 ISZERO PUSH2 0x6F9 JUMPI PUSH1 0x0 DUP1 REVERT JUMPDEST POP PUSH2 0x3A9 PUSH2 0x12A3 JUMP JUMPDEST CALLVALUE DUP1 ISZERO PUSH2 0x70E JUMPI PUSH1 0x0 DUP1 REVERT JUMPDEST POP PUSH2 0x376 PUSH2 0x71D CALLDATASIZE PUSH1 0x4 PUSH2 0x4DA7 JUMP JUMPDEST PUSH2 0x12B7 JUMP JUMPDEST CALLVALUE DUP1 ISZERO PUSH2 0x72E JUMPI PUSH1 0x0 DUP1 REVERT JUMPDEST POP PUSH2 0x4F5 PUSH2 0x73D CALLDATASIZE PUSH1 0x4 PUSH2 0x4D7A JUMP JUMPDEST PUSH2 0x16D8 JUMP JUMPDEST CALLVALUE DUP1 ISZERO PUSH2 0x74E JUMPI PUSH1 0x0 DUP1 REVERT JUMPDEST POP PUSH2 0x376 PUSH1 0xCF SLOAD DUP2 JUMP JUMPDEST CALLVALUE DUP1 ISZERO PUSH2 0x764 JUMPI PUSH1 0x0 DUP1 REVERT JUMPDEST POP PUSH2 0x3A9 PUSH2 0x1710 JUMP JUMPDEST CALLVALUE DUP1 ISZERO PUSH2 0x779 JUMPI PUSH1 0x0 DUP1 REVERT JUMPDEST POP PUSH2 0x376 PUSH1 0xCD SLOAD DUP2 JUMP JUMPDEST CALLVALUE DUP1 ISZERO PUSH2 0x78F JUMPI PUSH1 0x0 DUP1 REVERT JUMPDEST POP PUSH1 0x33 SLOAD PUSH1 0x1 PUSH1 0x1 PUSH1 0xA0 SHL SUB AND PUSH2 0x3EB JUMP JUMPDEST CALLVALUE DUP1 ISZERO PUSH2 0x7AD JUMPI PUSH1 0x0 DUP1 REVERT JUMPDEST POP PUSH1 0xCB SLOAD PUSH2 0x41D SWAP1 PUSH3 0x10000 SWAP1 DIV PUSH1 0xFF AND DUP2 JUMP JUMPDEST CALLVALUE DUP1 ISZERO PUSH2 0x7CD JUMPI PUSH1 0x0 DUP1 REVERT JUMPDEST POP PUSH2 0x376 PUSH1 0xDF SLOAD DUP2 JUMP JUMPDEST CALLVALUE DUP1 ISZERO PUSH2 0x7E3 JUMPI PUSH1 0x0 DUP1 REVERT JUMPDEST POP PUSH2 0x3A9 PUSH2 0x7F2 CALLDATASIZE PUSH1 0x4 PUSH2 0x4D5F JUMP JUMPDEST PUSH2 0x19B1 JUMP JUMPDEST CALLVALUE DUP1 ISZERO PUSH2 0x803 JUMPI PUSH1 0x0 DUP1 REVERT JUMPDEST POP PUSH2 0x817 PUSH2 0x812 CALLDATASIZE PUSH1 0x4 PUSH2 0x4DA7 JUMP JUMPDEST PUSH2 0x1ACD JUMP JUMPDEST PUSH1 0x40 MLOAD PUSH2 0x380 SWAP4 SWAP3 SWAP2 SWAP1 PUSH2 0x4FB9 JUMP JUMPDEST CALLVALUE DUP1 ISZERO PUSH2 0x832 JUMPI PUSH1 0x0 DUP1 REVERT JUMPDEST POP PUSH2 0x3A9 PUSH2 0x841 CALLDATASIZE PUSH1 0x4 PUSH2 0x4D35 JUMP JUMPDEST PUSH2 0x1EFA JUMP JUMPDEST CALLVALUE DUP1 ISZERO PUSH2 0x852 JUMPI PUSH1 0x0 DUP1 REVERT JUMPDEST POP PUSH1 0xD1 SLOAD PUSH2 0x698 SWAP1 PUSH1 0x1 PUSH1 0x40 SHL SWAP1 DIV PUSH4 0xFFFFFFFF AND DUP2 JUMP JUMPDEST CALLVALUE DUP1 ISZERO PUSH2 0x876 JUMPI PUSH1 0x0 DUP1 REVERT JUMPDEST POP PUSH1 0xD4 SLOAD PUSH2 0x41D SWAP1 PUSH3 0x10000 SWAP1 DIV PUSH1 0xFF AND DUP2 JUMP JUMPDEST CALLVALUE DUP1 ISZERO PUSH2 0x896 JUMPI PUSH1 0x0 DUP1 REVERT JUMPDEST POP PUSH1 0xD4 SLOAD PUSH2 0x663 SWAP1 PUSH1 0xFF AND DUP2 JUMP JUMPDEST CALLVALUE DUP1 ISZERO PUSH2 0x8B0 JUMPI PUSH1 0x0 DUP1 REVERT JUMPDEST POP PUSH2 0x376 PUSH2 0x8BF CALLDATASIZE PUSH1 0x4 PUSH2 0x4DA7 JUMP JUMPDEST PUSH2 0x1F73 JUMP JUMPDEST CALLVALUE DUP1 ISZERO PUSH2 0x8D0 JUMPI PUSH1 0x0 DUP1 REVERT JUMPDEST POP PUSH2 0x376 PUSH2 0x8DF CALLDATASIZE PUSH1 0x4 PUSH2 0x4DA7 JUMP JUMPDEST PUSH2 0x2391 JUMP JUMPDEST CALLVALUE DUP1 ISZERO PUSH2 0x8F0 JUMPI PUSH1 0x0 DUP1 REVERT JUMPDEST POP PUSH1 0xD1 SLOAD PUSH2 0x698 SWAP1 PUSH4 0xFFFFFFFF AND DUP2 JUMP JUMPDEST CALLVALUE DUP1 ISZERO PUSH2 0x90D JUMPI PUSH1 0x0 DUP1 REVERT JUMPDEST POP PUSH2 0x9C6 PUSH2 0x91C CALLDATASIZE PUSH1 0x4 PUSH2 0x4DA7 JUMP JUMPDEST PUSH1 0x40 DUP1 MLOAD PUSH1 0xC0 DUP2 ADD DUP3 MSTORE PUSH1 0x0 DUP1 DUP3 MSTORE PUSH1 0x20 DUP3 ADD DUP2 SWAP1 MSTORE SWAP2 DUP2 ADD DUP3 SWAP1 MSTORE PUSH1 0x60 DUP2 ADD DUP3 SWAP1 MSTORE PUSH1 0x80 DUP2 ADD DUP3 SWAP1 MSTORE PUSH1 0xA0 DUP2 ADD SWAP2 SWAP1 SWAP2 MSTORE POP PUSH4 0xFFFFFFFF SWAP1 DUP2 AND PUSH1 0x0 SWAP1 DUP2 MSTORE PUSH1 0xDC PUSH1 0x20 SWAP1 DUP2 MSTORE PUSH1 0x40 SWAP2 DUP3 SWAP1 KECCAK256 DUP3 MLOAD PUSH1 0xC0 DUP2 ADD DUP5 MSTORE DUP2 SLOAD DUP1 DUP7 AND DUP3 MSTORE PUSH1 0xFF PUSH5 0x100000000 DUP3 DIV AND ISZERO ISZERO SWAP4 DUP3 ADD SWAP4 SWAP1 SWAP4 MSTORE PUSH6 0x10000000000 SWAP1 SWAP3 DIV SWAP1 SWAP4 AND SWAP2 DUP2 ADD SWAP2 SWAP1 SWAP2 MSTORE PUSH1 0x1 DUP3 ADD SLOAD PUSH1 0x60 DUP3 ADD MSTORE PUSH1 0x2 DUP3 ADD SLOAD PUSH2 0xFFFF AND PUSH1 0x80 DUP3 ADD MSTORE PUSH1 0x3 SWAP1 SWAP2 ADD SLOAD PUSH1 0xA0 DUP3 ADD MSTORE SWAP1 JUMP JUMPDEST PUSH1 0x40 MLOAD PUSH2 0x380 SWAP2 SWAP1 PUSH1 0x0 PUSH1 0xC0 DUP3 ADD SWAP1 POP PUSH4 0xFFFFFFFF DUP1 DUP5 MLOAD AND DUP4 MSTORE PUSH1 0x20 DUP5 ADD MLOAD ISZERO ISZERO PUSH1 0x20 DUP5 ADD MSTORE DUP1 PUSH1 0x40 DUP6 ADD MLOAD AND PUSH1 0x40 DUP5 ADD MSTORE POP PUSH1 0x60 DUP4 ADD MLOAD PUSH1 0x60 DUP4 ADD MSTORE PUSH2 0xFFFF PUSH1 0x80 DUP5 ADD MLOAD AND PUSH1 0x80 DUP4 ADD MSTORE PUSH1 0xA0 DUP4 ADD MLOAD PUSH1 0xA0 DUP4 ADD MSTORE SWAP3 SWAP2 POP POP JUMP JUMPDEST CALLVALUE DUP1 ISZERO PUSH2 0xA2E JUMPI PUSH1 0x0 DUP1 REVERT JUMPDEST POP PUSH2 0x3A9 PUSH2 0xA3D CALLDATASIZE PUSH1 0x4 PUSH2 0x4FEF JUMP JUMPDEST PUSH2 0x23A2 JUMP JUMPDEST CALLVALUE DUP1 ISZERO PUSH2 0xA4E JUMPI PUSH1 0x0 DUP1 REVERT JUMPDEST POP PUSH2 0x3A9 PUSH2 0xA5D CALLDATASIZE PUSH1 0x4 PUSH2 0x4DA7 JUMP JUMPDEST PUSH2 0x248A JUMP JUMPDEST CALLVALUE DUP1 ISZERO PUSH2 0xA6E JUMPI PUSH1 0x0 DUP1 REVERT JUMPDEST POP PUSH2 0x3A9 PUSH2 0xA7D CALLDATASIZE PUSH1 0x4 PUSH2 0x4D5F JUMP JUMPDEST PUSH2 0x2567 JUMP JUMPDEST PUSH2 0x3A9 PUSH2 0xA90 CALLDATASIZE PUSH1 0x4 PUSH2 0x4DA7 JUMP JUMPDEST PUSH2 0x273C JUMP JUMPDEST CALLVALUE DUP1 ISZERO PUSH2 0xAA1 JUMPI PUSH1 0x0 DUP1 REVERT JUMPDEST POP PUSH2 0x376 PUSH2 0xAB0 CALLDATASIZE PUSH1 0x4 PUSH2 0x4DA7 JUMP JUMPDEST PUSH2 0x289F JUMP JUMPDEST CALLVALUE DUP1 ISZERO PUSH2 0xAC1 JUMPI PUSH1 0x0 DUP1 REVERT JUMPDEST POP PUSH2 0xAD5 PUSH2 0xAD0 CALLDATASIZE PUSH1 0x4 PUSH2 0x4DA7 JUMP JUMPDEST PUSH2 0x29C4 JUMP JUMPDEST PUSH1 0x40 DUP1 MLOAD SWAP5 DUP6 MSTORE PUSH1 0x20 DUP6 ADD SWAP4 SWAP1 SWAP4 MSTORE SWAP2 DUP4 ADD MSTORE PUSH1 0x60 DUP3 ADD MSTORE PUSH1 0x80 ADD PUSH2 0x380 JUMP JUMPDEST CALLVALUE DUP1 ISZERO PUSH2 0xB01 JUMPI PUSH1 0x0 DUP1 REVERT JUMPDEST POP PUSH2 0x3A9 PUSH2 0xB10 CALLDATASIZE PUSH1 0x4 PUSH2 0x4D5F JUMP JUMPDEST PUSH2 0x2E0F JUMP JUMPDEST CALLVALUE DUP1 ISZERO PUSH2 0xB21 JUMPI PUSH1 0x0 DUP1 REVERT JUMPDEST POP PUSH2 0x3A9 PUSH2 0xB30 CALLDATASIZE PUSH1 0x4 PUSH2 0x502B JUMP JUMPDEST PUSH2 0x2E85 JUMP JUMPDEST CALLVALUE DUP1 ISZERO PUSH2 0xB41 JUMPI PUSH1 0x0 DUP1 REVERT JUMPDEST POP PUSH2 0x376 PUSH1 0xD7 SLOAD DUP2 JUMP JUMPDEST CALLVALUE DUP1 ISZERO PUSH2 0xB57 JUMPI PUSH1 0x0 DUP1 REVERT JUMPDEST POP PUSH2 0xB6B PUSH2 0xB66 CALLDATASIZE PUSH1 0x4 PUSH2 0x4DA7 JUMP JUMPDEST PUSH2 0x2FD1 JUMP JUMPDEST PUSH1 0x40 MLOAD PUSH2 0x380 SWAP2 SWAP1 PUSH2 0x5097 JUMP JUMPDEST CALLVALUE DUP1 ISZERO PUSH2 0xB84 JUMPI PUSH1 0x0 DUP1 REVERT JUMPDEST POP PUSH1 0xD4 SLOAD PUSH2 0x663 SWAP1 PUSH2 0x100 SWAP1 DIV PUSH1 0xFF AND DUP2 JUMP JUMPDEST CALLVALUE DUP1 ISZERO PUSH2 0xBA3 JUMPI PUSH1 0x0 DUP1 REVERT JUMPDEST POP PUSH2 0xBB7 PUSH2 0xBB2 CALLDATASIZE PUSH1 0x4 PUSH2 0x4D5F JUMP JUMPDEST PUSH2 0x34E9 JUMP JUMPDEST PUSH1 0x40 MLOAD PUSH2 0x380 SWAP2 SWAP1 PUSH2 0x52C5 JUMP JUMPDEST PUSH2 0xBCC PUSH2 0x35B4 JUMP JUMPDEST PUSH1 0x40 MLOAD PUSH1 0x1 PUSH1 0x1 PUSH1 0xA0 SHL SUB DUP4 AND SWAP1 DUP3 ISZERO PUSH2 0x8FC MUL SWAP1 DUP4 SWAP1 PUSH1 0x0 DUP2 DUP2 DUP2 DUP6 DUP9 DUP9 CALL SWAP4 POP POP POP POP ISZERO DUP1 ISZERO PUSH2 0xC02 JUMPI RETURNDATASIZE PUSH1 0x0 DUP1 RETURNDATACOPY RETURNDATASIZE PUSH1 0x0 REVERT JUMPDEST POP POP POP JUMP JUMPDEST PUSH1 0x0 JUMPDEST PUSH1 0xDE SLOAD PUSH1 0xFF DUP3 AND LT ISZERO PUSH2 0xCE5 JUMPI PUSH1 0xDE DUP2 PUSH1 0xFF AND DUP2 SLOAD DUP2 LT PUSH2 0xC2D JUMPI PUSH2 0xC2D PUSH2 0x52EC JUMP JUMPDEST PUSH1 0x0 SWAP2 DUP3 MSTORE PUSH1 0x20 SWAP1 SWAP2 KECCAK256 ADD SLOAD PUSH1 0x1 PUSH1 0x1 PUSH1 0xA0 SHL SUB AND CALLER SUB PUSH2 0xC69 JUMPI PUSH1 0xC9 DUP1 SLOAD PUSH1 0x1 PUSH1 0x1 PUSH1 0xA0 SHL SUB DUP5 AND PUSH1 0x1 PUSH1 0x1 PUSH1 0xA0 SHL SUB NOT SWAP1 SWAP2 AND OR SWAP1 SSTORE POP POP JUMP JUMPDEST PUSH1 0xDE SLOAD PUSH2 0xC78 SWAP1 PUSH1 0x1 SWAP1 PUSH2 0x5318 JUMP JUMPDEST DUP2 PUSH1 0xFF AND SUB PUSH2 0xCD3 JUMPI PUSH1 0xDE DUP2 PUSH1 0xFF AND DUP2 SLOAD DUP2 LT PUSH2 0xC97 JUMPI PUSH2 0xC97 PUSH2 0x52EC JUMP JUMPDEST PUSH1 0x0 SWAP2 DUP3 MSTORE PUSH1 0x20 SWAP1 SWAP2 KECCAK256 ADD SLOAD PUSH1 0x1 PUSH1 0x1 PUSH1 0xA0 SHL SUB AND CALLER EQ PUSH2 0xCD3 JUMPI PUSH1 0x40 MLOAD PUSH3 0x461BCD PUSH1 0xE5 SHL DUP2 MSTORE PUSH1 0x4 ADD PUSH2 0xCCA SWAP1 PUSH2 0x532B JUMP JUMPDEST PUSH1 0x40 MLOAD DUP1 SWAP2 SUB SWAP1 REVERT JUMPDEST DUP1 PUSH2 0xCDD DUP2 PUSH2 0x5356 JUMP JUMPDEST SWAP2 POP POP PUSH2 0xC0A JUMP JUMPDEST POP POP JUMP JUMPDEST PUSH1 0xDE DUP2 DUP2 SLOAD DUP2 LT PUSH2 0xCF9 JUMPI PUSH1 0x0 DUP1 REVERT JUMPDEST PUSH1 0x0 SWAP2 DUP3 MSTORE PUSH1 0x20 SWAP1 SWAP2 KECCAK256 ADD SLOAD PUSH1 0x1 PUSH1 0x1 PUSH1 0xA0 SHL SUB AND SWAP1 POP DUP2 JUMP JUMPDEST PUSH1 0xD8 DUP2 DUP2 SLOAD DUP2 LT PUSH2 0xCF9 JUMPI PUSH1 0x0 DUP1 REVERT JUMPDEST PUSH1 0x0 PUSH2 0xD30 PUSH1 0xDF SLOAD PUSH2 0x360E JUMP JUMPDEST SWAP1 POP SWAP1 JUMP JUMPDEST PUSH1 0x0 JUMPDEST PUSH1 0xDE SLOAD PUSH1 0xFF DUP3 AND LT ISZERO PUSH2 0xECA JUMPI PUSH1 0xDE DUP2 PUSH1 0xFF AND DUP2 SLOAD DUP2 LT PUSH2 0xD5B JUMPI PUSH2 0xD5B PUSH2 0x52EC JUMP JUMPDEST PUSH1 0x0 SWAP2 DUP3 MSTORE PUSH1 0x20 SWAP1 SWAP2 KECCAK256 ADD SLOAD PUSH1 0x1 PUSH1 0x1 PUSH1 0xA0 SHL SUB AND CALLER SUB PUSH2 0xE57 JUMPI PUSH1 0x0 TIMESTAMP DUP6 JUMPDEST DUP6 PUSH4 0xFFFFFFFF AND DUP2 PUSH4 0xFFFFFFFF AND GT PUSH2 0xE4F JUMPI PUSH1 0xD1 DUP1 SLOAD PUSH1 0x0 SWAP2 PUSH1 0x1 PUSH1 0x40 SHL SWAP1 SWAP2 DIV PUSH4 0xFFFFFFFF AND SWAP1 PUSH1 0x8 PUSH2 0xDAF DUP4 PUSH2 0x5375 JUMP JUMPDEST SWAP2 SWAP1 PUSH2 0x100 EXP DUP2 SLOAD DUP2 PUSH4 0xFFFFFFFF MUL NOT AND SWAP1 DUP4 PUSH4 0xFFFFFFFF AND MUL OR SWAP1 SSTORE POP SWAP1 POP PUSH1 0x0 DUP7 DUP6 PUSH4 0xFFFFFFFF AND DUP2 MLOAD DUP2 LT PUSH2 0xDE9 JUMPI PUSH2 0xDE9 PUSH2 0x52EC JUMP JUMPDEST PUSH1 0x20 MUL PUSH1 0x20 ADD ADD MLOAD SWAP1 POP PUSH1 0x0 DUP2 GT ISZERO PUSH2 0xE2D JUMPI PUSH4 0xFFFFFFFF DUP4 AND PUSH1 0x0 SWAP1 DUP2 MSTORE PUSH1 0xDB PUSH1 0x20 MSTORE PUSH1 0x40 SWAP1 KECCAK256 PUSH1 0x18 DUP2 ADD DUP3 SWAP1 SSTORE PUSH1 0x19 DUP2 ADD DUP6 SWAP1 SSTORE PUSH2 0xE2B DUP5 DUP5 DUP5 DUP9 PUSH2 0x36A4 JUMP JUMPDEST POP JUMPDEST DUP5 PUSH2 0xE37 DUP2 PUSH2 0x5375 JUMP JUMPDEST SWAP6 POP POP POP POP DUP1 DUP1 PUSH2 0xE47 SWAP1 PUSH2 0x5375 JUMP JUMPDEST SWAP2 POP POP PUSH2 0xD7B JUMP JUMPDEST POP POP POP PUSH2 0xECA JUMP JUMPDEST PUSH1 0xDE SLOAD PUSH2 0xE66 SWAP1 PUSH1 0x1 SWAP1 PUSH2 0x5318 JUMP JUMPDEST DUP2 PUSH1 0xFF AND SUB PUSH2 0xEB8 JUMPI PUSH1 0xDE DUP2 PUSH1 0xFF AND DUP2 SLOAD DUP2 LT PUSH2 0xE85 JUMPI PUSH2 0xE85 PUSH2 0x52EC JUMP JUMPDEST PUSH1 0x0 SWAP2 DUP3 MSTORE PUSH1 0x20 SWAP1 SWAP2 KECCAK256 ADD SLOAD PUSH1 0x1 PUSH1 0x1 PUSH1 0xA0 SHL SUB AND CALLER EQ PUSH2 0xEB8 JUMPI PUSH1 0x40 MLOAD PUSH3 0x461BCD PUSH1 0xE5 SHL DUP2 MSTORE PUSH1 0x4 ADD PUSH2 0xCCA SWAP1 PUSH2 0x532B JUMP JUMPDEST DUP1 PUSH2 0xEC2 DUP2 PUSH2 0x5356 JUMP JUMPDEST SWAP2 POP POP PUSH2 0xD38 JUMP JUMPDEST POP POP POP POP JUMP JUMPDEST PUSH2 0xED8 PUSH2 0x35B4 JUMP JUMPDEST PUSH1 0x40 MLOAD CALLER SWAP1 SELFBALANCE DUP1 ISZERO PUSH2 0x8FC MUL SWAP2 PUSH1 0x0 DUP2 DUP2 DUP2 DUP6 DUP9 DUP9 CALL SWAP4 POP POP POP POP ISZERO DUP1 ISZERO PUSH2 0xF04 JUMPI RETURNDATASIZE PUSH1 0x0 DUP1 RETURNDATACOPY RETURNDATASIZE PUSH1 0x0 REVERT JUMPDEST POP JUMP JUMPDEST PUSH1 0x1 PUSH1 0x1 PUSH1 0xA0 SHL SUB PUSH32 0x0 AND ADDRESS SUB PUSH2 0xF4F JUMPI PUSH1 0x40 MLOAD PUSH3 0x461BCD PUSH1 0xE5 SHL DUP2 MSTORE PUSH1 0x4 ADD PUSH2 0xCCA SWAP1 PUSH2 0x5398 JUMP JUMPDEST PUSH32 0x0 PUSH1 0x1 PUSH1 0x1 PUSH1 0xA0 SHL SUB AND PUSH2 0xF98 PUSH1 0x0 DUP1 MLOAD PUSH1 0x20 PUSH2 0x55D6 DUP4 CODECOPY DUP2 MLOAD SWAP2 MSTORE SLOAD PUSH1 0x1 PUSH1 0x1 PUSH1 0xA0 SHL SUB AND SWAP1 JUMP JUMPDEST PUSH1 0x1 PUSH1 0x1 PUSH1 0xA0 SHL SUB AND EQ PUSH2 0xFBE JUMPI PUSH1 0x40 MLOAD PUSH3 0x461BCD PUSH1 0xE5 SHL DUP2 MSTORE PUSH1 0x4 ADD PUSH2 0xCCA SWAP1 PUSH2 0x53E4 JUMP JUMPDEST PUSH2 0xFC7 DUP2 PUSH2 0x375A JUMP JUMPDEST PUSH1 0x40 DUP1 MLOAD PUSH1 0x0 DUP1 DUP3 MSTORE PUSH1 0x20 DUP3 ADD SWAP1 SWAP3 MSTORE PUSH2 0xF04 SWAP2 DUP4 SWAP2 SWAP1 PUSH2 0x3762 JUMP JUMPDEST PUSH2 0xFEB PUSH2 0x35B4 JUMP JUMPDEST PUSH1 0xDF SSTORE JUMP JUMPDEST PUSH1 0x1 PUSH1 0x1 PUSH1 0xA0 SHL SUB PUSH32 0x0 AND ADDRESS SUB PUSH2 0x1038 JUMPI PUSH1 0x40 MLOAD PUSH3 0x461BCD PUSH1 0xE5 SHL DUP2 MSTORE PUSH1 0x4 ADD PUSH2 0xCCA SWAP1 PUSH2 0x5398 JUMP JUMPDEST PUSH32 0x0 PUSH1 0x1 PUSH1 0x1 PUSH1 0xA0 SHL SUB AND PUSH2 0x1081 PUSH1 0x0 DUP1 MLOAD PUSH1 0x20 PUSH2 0x55D6 DUP4 CODECOPY DUP2 MLOAD SWAP2 MSTORE SLOAD PUSH1 0x1 PUSH1 0x1 PUSH1 0xA0 SHL SUB AND SWAP1 JUMP JUMPDEST PUSH1 0x1 PUSH1 0x1 PUSH1 0xA0 SHL SUB AND EQ PUSH2 0x10A7 JUMPI PUSH1 0x40 MLOAD PUSH3 0x461BCD PUSH1 0xE5 SHL DUP2 MSTORE PUSH1 0x4 ADD PUSH2 0xCCA SWAP1 PUSH2 0x53E4 JUMP JUMPDEST PUSH2 0x10B0 DUP3 PUSH2 0x375A JUMP JUMPDEST PUSH2 0xCE5 DUP3 DUP3 PUSH1 0x1 PUSH2 0x3762 JUMP JUMPDEST PUSH1 0x0 ADDRESS PUSH1 0x1 PUSH1 0x1 PUSH1 0xA0 SHL SUB PUSH32 0x0 AND EQ PUSH2 0x115C JUMPI PUSH1 0x40 MLOAD PUSH3 0x461BCD PUSH1 0xE5 SHL DUP2 MSTORE PUSH1 0x20 PUSH1 0x4 DUP3 ADD MSTORE PUSH1 0x38 PUSH1 0x24 DUP3 ADD MSTORE PUSH32 0x555550535570677261646561626C653A206D757374206E6F742062652063616C PUSH1 0x44 DUP3 ADD MSTORE PUSH32 0x6C6564207468726F7567682064656C656761746563616C6C0000000000000000 PUSH1 0x64 DUP3 ADD MSTORE PUSH1 0x84 ADD PUSH2 0xCCA JUMP JUMPDEST POP PUSH1 0x0 DUP1 MLOAD PUSH1 0x20 PUSH2 0x55D6 DUP4 CODECOPY DUP2 MLOAD SWAP2 MSTORE SWAP1 JUMP JUMPDEST PUSH2 0x1177 PUSH2 0x35B4 JUMP JUMPDEST PUSH1 0xDE DUP1 SLOAD PUSH1 0x1 DUP2 ADD DUP3 SSTORE PUSH1 0x0 SWAP2 SWAP1 SWAP2 MSTORE PUSH32 0xFAE8130C0619F84B4B44F01B84806F04E82E536D70E05F2356977FA318AECC1A ADD DUP1 SLOAD PUSH1 0x1 PUSH1 0x1 PUSH1 0xA0 SHL SUB NOT AND PUSH1 0x1 PUSH1 0x1 PUSH1 0xA0 SHL SUB SWAP3 SWAP1 SWAP3 AND SWAP2 SWAP1 SWAP2 OR SWAP1 SSTORE JUMP JUMPDEST PUSH1 0x0 JUMPDEST PUSH1 0xDE SLOAD PUSH1 0xFF DUP3 AND LT ISZERO PUSH2 0xCE5 JUMPI PUSH1 0xDE DUP2 PUSH1 0xFF AND DUP2 SLOAD DUP2 LT PUSH2 0x11EF JUMPI PUSH2 0x11EF PUSH2 0x52EC JUMP JUMPDEST PUSH1 0x0 SWAP2 DUP3 MSTORE PUSH1 0x20 SWAP1 SWAP2 KECCAK256 ADD SLOAD PUSH1 0x1 PUSH1 0x1 PUSH1 0xA0 SHL SUB AND CALLER SUB PUSH2 0x1230 JUMPI PUSH1 0xD1 DUP1 SLOAD PUSH4 0xFFFFFFFF DUP5 AND PUSH5 0x100000000 MUL PUSH8 0xFFFFFFFF00000000 NOT SWAP1 SWAP2 AND OR SWAP1 SSTORE POP POP JUMP JUMPDEST PUSH1 0xDE SLOAD PUSH2 0x123F SWAP1 PUSH1 0x1 SWAP1 PUSH2 0x5318 JUMP JUMPDEST DUP2 PUSH1 0xFF AND SUB PUSH2 0x1291 JUMPI PUSH1 0xDE DUP2 PUSH1 0xFF AND DUP2 SLOAD DUP2 LT PUSH2 0x125E JUMPI PUSH2 0x125E PUSH2 0x52EC JUMP JUMPDEST PUSH1 0x0 SWAP2 DUP3 MSTORE PUSH1 0x20 SWAP1 SWAP2 KECCAK256 ADD SLOAD PUSH1 0x1 PUSH1 0x1 PUSH1 0xA0 SHL SUB AND CALLER EQ PUSH2 0x1291 JUMPI PUSH1 0x40 MLOAD PUSH3 0x461BCD PUSH1 0xE5 SHL DUP2 MSTORE PUSH1 0x4 ADD PUSH2 0xCCA SWAP1 PUSH2 0x532B JUMP JUMPDEST DUP1 PUSH2 0x129B DUP2 PUSH2 0x5356 JUMP JUMPDEST SWAP2 POP POP PUSH2 0x11CC JUMP JUMPDEST PUSH2 0x12AB PUSH2 0x35B4 JUMP JUMPDEST PUSH2 0x12B5 PUSH1 0x0 PUSH2 0x38CD JUMP JUMPDEST JUMP JUMPDEST PUSH4 0xFFFFFFFF DUP1 DUP3 AND PUSH1 0x0 SWAP1 DUP2 MSTORE PUSH1 0xDB PUSH1 0x20 SWAP1 DUP2 MSTORE PUSH1 0x40 DUP1 DUP4 KECCAK256 DUP2 MLOAD PUSH2 0x400 DUP2 ADD SWAP1 SWAP3 MSTORE DUP1 SLOAD SWAP1 SWAP5 AND DUP2 MSTORE PUSH1 0x1 DUP5 ADD DUP1 SLOAD SWAP4 SWAP5 DUP6 SWAP5 SWAP3 SWAP4 SWAP1 SWAP3 SWAP1 DUP5 ADD SWAP2 SWAP1 PUSH2 0x12FD SWAP1 PUSH2 0x5430 JUMP JUMPDEST DUP1 PUSH1 0x1F ADD PUSH1 0x20 DUP1 SWAP2 DIV MUL PUSH1 0x20 ADD PUSH1 0x40 MLOAD SWAP1 DUP2 ADD PUSH1 0x40 MSTORE DUP1 SWAP3 SWAP2 SWAP1 DUP2 DUP2 MSTORE PUSH1 0x20 ADD DUP3 DUP1 SLOAD PUSH2 0x1329 SWAP1 PUSH2 0x5430 JUMP JUMPDEST DUP1 ISZERO PUSH2 0x1376 JUMPI DUP1 PUSH1 0x1F LT PUSH2 0x134B JUMPI PUSH2 0x100 DUP1 DUP4 SLOAD DIV MUL DUP4 MSTORE SWAP2 PUSH1 0x20 ADD SWAP2 PUSH2 0x1376 JUMP JUMPDEST DUP3 ADD SWAP2 SWAP1 PUSH1 0x0 MSTORE PUSH1 0x20 PUSH1 0x0 KECCAK256 SWAP1 JUMPDEST DUP2 SLOAD DUP2 MSTORE SWAP1 PUSH1 0x1 ADD SWAP1 PUSH1 0x20 ADD DUP1 DUP4 GT PUSH2 0x1359 JUMPI DUP3 SWAP1 SUB PUSH1 0x1F AND DUP3 ADD SWAP2 JUMPDEST POP POP POP SWAP2 DUP4 MSTORE POP POP PUSH1 0x2 DUP3 ADD SLOAD PUSH1 0xFF DUP2 AND ISZERO ISZERO PUSH1 0x20 DUP1 DUP5 ADD SWAP2 SWAP1 SWAP2 MSTORE PUSH2 0x100 SWAP1 SWAP2 DIV PUSH1 0x1 PUSH1 0x1 PUSH1 0xA0 SHL SUB AND PUSH1 0x40 DUP1 DUP5 ADD SWAP2 SWAP1 SWAP2 MSTORE PUSH1 0x3 DUP5 ADD SLOAD PUSH1 0x60 DUP5 ADD MSTORE PUSH1 0x4 DUP5 ADD SLOAD PUSH1 0x80 DUP5 ADD MSTORE PUSH1 0x5 DUP5 ADD SLOAD PUSH4 0xFFFFFFFF AND PUSH1 0xA0 DUP5 ADD MSTORE PUSH1 0x6 DUP5 ADD DUP1 SLOAD DUP3 MLOAD DUP2 DUP6 MUL DUP2 ADD DUP6 ADD SWAP1 SWAP4 MSTORE DUP1 DUP4 MSTORE PUSH1 0xC0 SWAP1 SWAP5 ADD SWAP4 SWAP2 SWAP3 SWAP1 SWAP2 SWAP1 DUP4 ADD DUP3 DUP3 DUP1 ISZERO PUSH2 0x1449 JUMPI PUSH1 0x20 MUL DUP3 ADD SWAP2 SWAP1 PUSH1 0x0 MSTORE PUSH1 0x20 PUSH1 0x0 KECCAK256 SWAP1 PUSH1 0x0 SWAP1 JUMPDEST DUP3 DUP3 SWAP1 SLOAD SWAP1 PUSH2 0x100 EXP SWAP1 DIV PUSH4 0xFFFFFFFF AND PUSH4 0xFFFFFFFF AND DUP2 MSTORE PUSH1 0x20 ADD SWAP1 PUSH1 0x4 ADD SWAP1 PUSH1 0x20 DUP3 PUSH1 0x3 ADD DIV SWAP3 DUP4 ADD SWAP3 PUSH1 0x1 SUB DUP3 MUL SWAP2 POP DUP1 DUP5 GT PUSH2 0x140C JUMPI SWAP1 POP JUMPDEST POP POP POP POP POP DUP2 MSTORE PUSH1 0x20 ADD PUSH1 0x7 DUP3 ADD DUP1 SLOAD DUP1 PUSH1 0x20 MUL PUSH1 0x20 ADD PUSH1 0x40 MLOAD SWAP1 DUP2 ADD PUSH1 0x40 MSTORE DUP1 SWAP3 SWAP2 SWAP1 DUP2 DUP2 MSTORE PUSH1 0x20 ADD DUP3 DUP1 SLOAD DUP1 ISZERO PUSH2 0x14CD JUMPI PUSH1 0x20 MUL DUP3 ADD SWAP2 SWAP1 PUSH1 0x0 MSTORE PUSH1 0x20 PUSH1 0x0 KECCAK256 SWAP1 PUSH1 0x0 SWAP1 JUMPDEST DUP3 DUP3 SWAP1 SLOAD SWAP1 PUSH2 0x100 EXP SWAP1 DIV PUSH4 0xFFFFFFFF AND PUSH4 0xFFFFFFFF AND DUP2 MSTORE PUSH1 0x20 ADD SWAP1 PUSH1 0x4 ADD SWAP1 PUSH1 0x20 DUP3 PUSH1 0x3 ADD DIV SWAP3 DUP4 ADD SWAP3 PUSH1 0x1 SUB DUP3 MUL SWAP2 POP DUP1 DUP5 GT PUSH2 0x1490 JUMPI SWAP1 POP JUMPDEST POP POP POP POP POP DUP2 MSTORE PUSH1 0x20 ADD PUSH1 0x8 DUP3 ADD DUP1 SLOAD DUP1 PUSH1 0x20 MUL PUSH1 0x20 ADD PUSH1 0x40 MLOAD SWAP1 DUP2 ADD PUSH1 0x40 MSTORE DUP1 SWAP3 SWAP2 SWAP1 DUP2 DUP2 MSTORE PUSH1 0x20 ADD DUP3 DUP1 SLOAD DUP1 ISZERO PUSH2 0x1551 JUMPI PUSH1 0x20 MUL DUP3 ADD SWAP2 SWAP1 PUSH1 0x0 MSTORE PUSH1 0x20 PUSH1 0x0 KECCAK256 SWAP1 PUSH1 0x0 SWAP1 JUMPDEST DUP3 DUP3 SWAP1 SLOAD SWAP1 PUSH2 0x100 EXP SWAP1 DIV PUSH4 0xFFFFFFFF AND PUSH4 0xFFFFFFFF AND DUP2 MSTORE PUSH1 0x20 ADD SWAP1 PUSH1 0x4 ADD SWAP1 PUSH1 0x20 DUP3 PUSH1 0x3 ADD DIV SWAP3 DUP4 ADD SWAP3 PUSH1 0x1 SUB DUP3 MUL SWAP2 POP DUP1 DUP5 GT PUSH2 0x1514 JUMPI SWAP1 POP JUMPDEST POP POP POP POP POP DUP2 MSTORE PUSH1 0x20 ADD PUSH1 0x9 DUP3 ADD SLOAD DUP2 MSTORE PUSH1 0x20 ADD PUSH1 0xA DUP3 ADD SLOAD DUP2 MSTORE PUSH1 0x20 ADD PUSH1 0xB DUP3 ADD SLOAD DUP2 MSTORE PUSH1 0x20 ADD PUSH1 0xC DUP3 ADD SLOAD DUP2 MSTORE PUSH1 0x20 ADD PUSH1 0xD DUP3 ADD SLOAD DUP2 MSTORE PUSH1 0x20 ADD PUSH1 0xE DUP3 ADD SLOAD DUP2 MSTORE PUSH1 0x20 ADD PUSH1 0xF DUP3 ADD SLOAD DUP2 MSTORE PUSH1 0x20 ADD PUSH1 0x10 DUP3 ADD SLOAD DUP2 MSTORE PUSH1 0x20 ADD PUSH1 0x11 DUP3 ADD PUSH1 0x0 SWAP1 SLOAD SWAP1 PUSH2 0x100 EXP SWAP1 DIV PUSH1 0xFF AND PUSH1 0xFF AND PUSH1 0xFF AND DUP2 MSTORE PUSH1 0x20 ADD PUSH1 0x12 DUP3 ADD SLOAD DUP2 MSTORE PUSH1 0x20 ADD PUSH1 0x13 DUP3 ADD SLOAD DUP2 MSTORE PUSH1 0x20 ADD PUSH1 0x14 DUP3 ADD SLOAD DUP2 MSTORE PUSH1 0x20 ADD PUSH1 0x15 DUP3 ADD SLOAD DUP2 MSTORE PUSH1 0x20 ADD PUSH1 0x16 DUP3 ADD SLOAD DUP2 MSTORE PUSH1 0x20 ADD PUSH1 0x17 DUP3 ADD SLOAD DUP2 MSTORE PUSH1 0x20 ADD PUSH1 0x18 DUP3 ADD SLOAD DUP2 MSTORE PUSH1 0x20 ADD PUSH1 0x19 DUP3 ADD SLOAD DUP2 MSTORE PUSH1 0x20 ADD PUSH1 0x1A DUP3 ADD SLOAD DUP2 MSTORE PUSH1 0x20 ADD PUSH1 0x1B DUP3 ADD DUP1 SLOAD DUP1 PUSH1 0x20 MUL PUSH1 0x20 ADD PUSH1 0x40 MLOAD SWAP1 DUP2 ADD PUSH1 0x40 MSTORE DUP1 SWAP3 SWAP2 SWAP1 DUP2 DUP2 MSTORE PUSH1 0x20 ADD DUP3 DUP1 SLOAD DUP1 ISZERO PUSH2 0x169C JUMPI PUSH1 0x20 MUL DUP3 ADD SWAP2 SWAP1 PUSH1 0x0 MSTORE PUSH1 0x20 PUSH1 0x0 KECCAK256 SWAP1 PUSH1 0x0 SWAP1 JUMPDEST DUP3 DUP3 SWAP1 SLOAD SWAP1 PUSH2 0x100 EXP SWAP1 DIV PUSH4 0xFFFFFFFF AND PUSH4 0xFFFFFFFF AND DUP2 MSTORE PUSH1 0x20 ADD SWAP1 PUSH1 0x4 ADD SWAP1 PUSH1 0x20 DUP3 PUSH1 0x3 ADD DIV SWAP3 DUP4 ADD SWAP3 PUSH1 0x1 SUB DUP3 MUL SWAP2 POP DUP1 DUP5 GT PUSH2 0x165F JUMPI SWAP1 POP JUMPDEST POP POP POP POP POP DUP2 MSTORE PUSH1 0x20 ADD PUSH1 0x1C DUP3 ADD SLOAD DUP2 MSTORE PUSH1 0x20 ADD PUSH1 0x1D DUP3 ADD SLOAD DUP2 MSTORE PUSH1 0x20 ADD PUSH1 0x1E DUP3 ADD SLOAD DUP2 MSTORE POP POP SWAP1 POP PUSH2 0x16CE DUP2 PUSH2 0x391F JUMP JUMPDEST PUSH1 0xFF AND SWAP4 SWAP3 POP POP POP JUMP JUMPDEST PUSH1 0xCA DUP2 DUP2 SLOAD DUP2 LT PUSH2 0x16E8 JUMPI PUSH1 0x0 DUP1 REVERT JUMPDEST SWAP1 PUSH1 0x0 MSTORE PUSH1 0x20 PUSH1 0x0 KECCAK256 SWAP1 PUSH1 0x10 SWAP2 DUP3 DUP3 DIV ADD SWAP2 SWAP1 MOD PUSH1 0x2 MUL SWAP2 POP SLOAD SWAP1 PUSH2 0x100 EXP SWAP1 DIV PUSH2 0xFFFF AND DUP2 JUMP JUMPDEST PUSH1 0x0 SLOAD PUSH2 0x100 SWAP1 DIV PUSH1 0xFF AND ISZERO DUP1 DUP1 ISZERO PUSH2 0x1730 JUMPI POP PUSH1 0x0 SLOAD PUSH1 0x1 PUSH1 0xFF SWAP1 SWAP2 AND LT JUMPDEST DUP1 PUSH2 0x174A JUMPI POP ADDRESS EXTCODESIZE ISZERO DUP1 ISZERO PUSH2 0x174A JUMPI POP PUSH1 0x0 SLOAD PUSH1 0xFF AND PUSH1 0x1 EQ JUMPDEST PUSH2 0x17AD JUMPI PUSH1 0x40 MLOAD PUSH3 0x461BCD PUSH1 0xE5 SHL DUP2 MSTORE PUSH1 0x20 PUSH1 0x4 DUP3 ADD MSTORE PUSH1 0x2E PUSH1 0x24 DUP3 ADD MSTORE PUSH32 0x496E697469616C697A61626C653A20636F6E747261637420697320616C726561 PUSH1 0x44 DUP3 ADD MSTORE PUSH14 0x191E481A5B9A5D1A585B1A5E9959 PUSH1 0x92 SHL PUSH1 0x64 DUP3 ADD MSTORE PUSH1 0x84 ADD PUSH2 0xCCA JUMP JUMPDEST PUSH1 0x0 DUP1 SLOAD PUSH1 0xFF NOT AND PUSH1 0x1 OR SWAP1 SSTORE DUP1 ISZERO PUSH2 0x17D0 JUMPI PUSH1 0x0 DUP1 SLOAD PUSH2 0xFF00 NOT AND PUSH2 0x100 OR SWAP1 SSTORE JUMPDEST PUSH1 0xC9 DUP1 SLOAD PUSH1 0x1 PUSH1 0x1 PUSH1 0xA0 SHL SUB NOT AND PUSH20 0x286D6392042B4D7180FD6D20F8D35C8776815774 OR SWAP1 SSTORE PUSH1 0xCB DUP1 SLOAD PUSH2 0xFFFF NOT AND PUSH2 0x3E8 OR SWAP1 SSTORE PUSH1 0x40 DUP1 MLOAD PUSH2 0x3A0 DUP2 ADD DUP3 MSTORE PUSH1 0x64 DUP2 MSTORE PUSH1 0x46 PUSH1 0x20 DUP3 ADD MSTORE PUSH1 0x32 SWAP2 DUP2 ADD DUP3 SWAP1 MSTORE PUSH1 0x60 DUP2 ADD DUP3 SWAP1 MSTORE PUSH1 0x80 DUP2 ADD DUP3 SWAP1 MSTORE PUSH1 0xA0 DUP2 ADD DUP3 SWAP1 MSTORE PUSH1 0xC0 DUP2 ADD DUP3 SWAP1 MSTORE PUSH1 0xE0 DUP2 ADD DUP3 SWAP1 MSTORE PUSH2 0x100 DUP2 ADD DUP3 SWAP1 MSTORE PUSH2 0x120 DUP2 ADD DUP3 SWAP1 MSTORE PUSH2 0x140 DUP2 ADD DUP3 SWAP1 MSTORE PUSH2 0x160 DUP2 ADD DUP3 SWAP1 MSTORE PUSH2 0x180 DUP2 ADD DUP3 SWAP1 MSTORE PUSH2 0x1A0 DUP2 ADD DUP3 SWAP1 MSTORE PUSH2 0x1C0 DUP2 ADD DUP3 SWAP1 MSTORE PUSH2 0x1E0 DUP2 ADD DUP3 SWAP1 MSTORE PUSH2 0x200 DUP2 ADD DUP3 SWAP1 MSTORE PUSH2 0x220 DUP2 ADD DUP3 SWAP1 MSTORE PUSH2 0x240 DUP2 ADD SWAP2 SWAP1 SWAP2 MSTORE PUSH1 0x14 PUSH2 0x260 DUP3 ADD DUP2 SWAP1 MSTORE PUSH2 0x280 DUP3 ADD DUP2 SWAP1 MSTORE PUSH2 0x2A0 DUP3 ADD DUP2 SWAP1 MSTORE PUSH2 0x2C0 DUP3 ADD DUP2 SWAP1 MSTORE PUSH2 0x2E0 DUP3 ADD DUP2 SWAP1 MSTORE PUSH2 0x300 DUP3 ADD DUP2 SWAP1 MSTORE PUSH2 0x320 DUP3 ADD DUP2 SWAP1 MSTORE PUSH2 0x340 DUP3 ADD DUP2 SWAP1 MSTORE PUSH2 0x360 DUP3 ADD DUP2 SWAP1 MSTORE PUSH2 0x380 DUP3 ADD MSTORE PUSH2 0x18FD SWAP1 PUSH1 0xCA SWAP1 PUSH1 0x1D PUSH2 0x4C5C JUMP JUMPDEST POP PUSH1 0xCB DUP1 SLOAD PUSH3 0xFF0000 NOT AND PUSH3 0x320000 OR SWAP1 SSTORE PUSH9 0x56BC75E2D63100000 PUSH1 0xDF SSTORE PUSH1 0xD4 DUP1 SLOAD PUSH4 0xFF00FFFF NOT AND PUSH4 0x2000001 OR SWAP1 SSTORE PUSH1 0xD1 DUP1 SLOAD PUSH2 0xFFFF PUSH1 0x60 SHL NOT AND PUSH1 0x7D PUSH1 0x63 SHL OR SWAP1 SSTORE PUSH4 0x20F5800 PUSH1 0xD2 SSTORE PUSH3 0x15180 PUSH1 0xD3 SSTORE PUSH3 0x278D00 PUSH1 0xD7 SSTORE PUSH2 0x1961 PUSH2 0x39CD JUMP JUMPDEST PUSH2 0x1969 PUSH2 0x39FC JUMP JUMPDEST DUP1 ISZERO PUSH2 0xF04 JUMPI PUSH1 0x0 DUP1 SLOAD PUSH2 0xFF00 NOT AND SWAP1 SSTORE PUSH1 0x40 MLOAD PUSH1 0x1 DUP2 MSTORE PUSH32 0x7F26B83FF96E1F2B6A682F133852F6798A09C465DA95921460CEFB3847402498 SWAP1 PUSH1 0x20 ADD PUSH1 0x40 MLOAD DUP1 SWAP2 SUB SWAP1 LOG1 POP JUMP JUMPDEST PUSH1 0x0 JUMPDEST PUSH1 0xDE SLOAD PUSH1 0xFF DUP3 AND LT ISZERO PUSH2 0xCE5 JUMPI PUSH1 0xDE DUP2 PUSH1 0xFF AND DUP2 SLOAD DUP2 LT PUSH2 0x19D7 JUMPI PUSH2 0x19D7 PUSH2 0x52EC JUMP JUMPDEST PUSH1 0x0 SWAP2 DUP3 MSTORE PUSH1 0x20 SWAP1 SWAP2 KECCAK256 ADD SLOAD PUSH1 0x1 PUSH1 0x1 PUSH1 0xA0 SHL SUB AND CALLER SUB PUSH2 0x1A5A JUMPI PUSH1 0xD8 DUP1 SLOAD PUSH1 0x1 DUP2 DUP2 ADD SWAP1 SWAP3 SSTORE PUSH32 0x5320AD99A619A90804CD2EFE3A5CF0AC1AC5C41AD9FF2C61CF699EFDAD771096 ADD DUP1 SLOAD PUSH1 0x1 PUSH1 0x1 PUSH1 0xA0 SHL SUB DUP6 AND PUSH1 0x1 PUSH1 0x1 PUSH1 0xA0 SHL SUB NOT SWAP1 SWAP2 AND DUP2 OR SWAP1 SWAP2 SSTORE PUSH1 0x0 SWAP1 DUP2 MSTORE PUSH1 0xDA PUSH1 0x20 MSTORE PUSH1 0x40 SWAP1 KECCAK256 DUP1 SLOAD PUSH1 0xFF NOT AND SWAP1 SWAP2 OR SWAP1 SSTORE POP POP JUMP JUMPDEST PUSH1 0xDE SLOAD PUSH2 0x1A69 SWAP1 PUSH1 0x1 SWAP1 PUSH2 0x5318 JUMP JUMPDEST DUP2 PUSH1 0xFF AND SUB PUSH2 0x1ABB JUMPI PUSH1 0xDE DUP2 PUSH1 0xFF AND DUP2 SLOAD DUP2 LT PUSH2 0x1A88 JUMPI PUSH2 0x1A88 PUSH2 0x52EC JUMP JUMPDEST PUSH1 0x0 SWAP2 DUP3 MSTORE PUSH1 0x20 SWAP1 SWAP2 KECCAK256 ADD SLOAD PUSH1 0x1 PUSH1 0x1 PUSH1 0xA0 SHL SUB AND CALLER EQ PUSH2 0x1ABB JUMPI PUSH1 0x40 MLOAD PUSH3 0x461BCD PUSH1 0xE5 SHL DUP2 MSTORE PUSH1 0x4 ADD PUSH2 0xCCA SWAP1 PUSH2 0x532B JUMP JUMPDEST DUP1 PUSH2 0x1AC5 DUP2 PUSH2 0x5356 JUMP JUMPDEST SWAP2 POP POP PUSH2 0x19B4 JUMP JUMPDEST PUSH4 0xFFFFFFFF DUP1 DUP3 AND PUSH1 0x0 SWAP1 DUP2 MSTORE PUSH1 0xDB PUSH1 0x20 SWAP1 DUP2 MSTORE PUSH1 0x40 DUP1 DUP4 KECCAK256 DUP2 MLOAD PUSH2 0x400 DUP2 ADD SWAP1 SWAP3 MSTORE DUP1 SLOAD SWAP1 SWAP5 AND DUP2 MSTORE PUSH1 0x1 DUP5 ADD DUP1 SLOAD PUSH1 0x60 SWAP6 DUP7 SWAP6 SWAP5 DUP6 SWAP5 SWAP4 SWAP2 SWAP3 SWAP1 DUP5 ADD SWAP2 SWAP1 PUSH2 0x1B16 SWAP1 PUSH2 0x5430 JUMP JUMPDEST DUP1 PUSH1 0x1F ADD PUSH1 0x20 DUP1 SWAP2 DIV MUL PUSH1 0x20 ADD PUSH1 0x40 MLOAD SWAP1 DUP2 ADD PUSH1 0x40 MSTORE DUP1 SWAP3 SWAP2 SWAP1 DUP2 DUP2 MSTORE PUSH1 0x20 ADD DUP3 DUP1 SLOAD PUSH2 0x1B42 SWAP1 PUSH2 0x5430 JUMP JUMPDEST DUP1 ISZERO PUSH2 0x1B8F JUMPI DUP1 PUSH1 0x1F LT PUSH2 0x1B64 JUMPI PUSH2 0x100 DUP1 DUP4 SLOAD DIV MUL DUP4 MSTORE SWAP2 PUSH1 0x20 ADD SWAP2 PUSH2 0x1B8F JUMP JUMPDEST DUP3 ADD SWAP2 SWAP1 PUSH1 0x0 MSTORE PUSH1 0x20 PUSH1 0x0 KECCAK256 SWAP1 JUMPDEST DUP2 SLOAD DUP2 MSTORE SWAP1 PUSH1 0x1 ADD SWAP1 PUSH1 0x20 ADD DUP1 DUP4 GT PUSH2 0x1B72 JUMPI DUP3 SWAP1 SUB PUSH1 0x1F AND DUP3 ADD SWAP2 JUMPDEST POP POP POP SWAP2 DUP4 MSTORE POP POP PUSH1 0x2 DUP3 ADD SLOAD PUSH1 0xFF DUP2 AND ISZERO ISZERO PUSH1 0x20 DUP1 DUP5 ADD SWAP2 SWAP1 SWAP2 MSTORE PUSH2 0x100 SWAP1 SWAP2 DIV PUSH1 0x1 PUSH1 0x1 PUSH1 0xA0 SHL SUB AND PUSH1 0x40 DUP1 DUP5 ADD SWAP2 SWAP1 SWAP2 MSTORE PUSH1 0x3 DUP5 ADD SLOAD PUSH1 0x60 DUP5 ADD MSTORE PUSH1 0x4 DUP5 ADD SLOAD PUSH1 0x80 DUP5 ADD MSTORE PUSH1 0x5 DUP5 ADD SLOAD PUSH4 0xFFFFFFFF AND PUSH1 0xA0 DUP5 ADD MSTORE PUSH1 0x6 DUP5 ADD DUP1 SLOAD DUP3 MLOAD DUP2 DUP6 MUL DUP2 ADD DUP6 ADD SWAP1 SWAP4 MSTORE DUP1 DUP4 MSTORE PUSH1 0xC0 SWAP1 SWAP5 ADD SWAP4 SWAP2 SWAP3 SWAP1 SWAP2 SWAP1 DUP4 ADD DUP3 DUP3 DUP1 ISZERO PUSH2 0x1C62 JUMPI PUSH1 0x20 MUL DUP3 ADD SWAP2 SWAP1 PUSH1 0x0 MSTORE PUSH1 0x20 PUSH1 0x0 KECCAK256 SWAP1 PUSH1 0x0 SWAP1 JUMPDEST DUP3 DUP3 SWAP1 SLOAD SWAP1 PUSH2 0x100 EXP SWAP1 DIV PUSH4 0xFFFFFFFF AND PUSH4 0xFFFFFFFF AND DUP2 MSTORE PUSH1 0x20 ADD SWAP1 PUSH1 0x4 ADD SWAP1 PUSH1 0x20 DUP3 PUSH1 0x3 ADD DIV SWAP3 DUP4 ADD SWAP3 PUSH1 0x1 SUB DUP3 MUL SWAP2 POP DUP1 DUP5 GT PUSH2 0x1C25 JUMPI SWAP1 POP JUMPDEST POP POP POP POP POP DUP2 MSTORE PUSH1 0x20 ADD PUSH1 0x7 DUP3 ADD DUP1 SLOAD DUP1 PUSH1 0x20 MUL PUSH1 0x20 ADD PUSH1 0x40 MLOAD SWAP1 DUP2 ADD PUSH1 0x40 MSTORE DUP1 SWAP3 SWAP2 SWAP1 DUP2 DUP2 MSTORE PUSH1 0x20 ADD DUP3 DUP1 SLOAD DUP1 ISZERO PUSH2 0x1CE6 JUMPI PUSH1 0x20 MUL DUP3 ADD SWAP2 SWAP1 PUSH1 0x0 MSTORE PUSH1 0x20 PUSH1 0x0 KECCAK256 SWAP1 PUSH1 0x0 SWAP1 JUMPDEST DUP3 DUP3 SWAP1 SLOAD SWAP1 PUSH2 0x100 EXP SWAP1 DIV PUSH4 0xFFFFFFFF AND PUSH4 0xFFFFFFFF AND DUP2 MSTORE PUSH1 0x20 ADD SWAP1 PUSH1 0x4 ADD SWAP1 PUSH1 0x20 DUP3 PUSH1 0x3 ADD DIV SWAP3 DUP4 ADD SWAP3 PUSH1 0x1 SUB DUP3 MUL SWAP2 POP DUP1 DUP5 GT PUSH2 0x1CA9 JUMPI SWAP1 POP JUMPDEST POP POP POP POP POP DUP2 MSTORE PUSH1 0x20 ADD PUSH1 0x8 DUP3 ADD DUP1 SLOAD DUP1 PUSH1 0x20 MUL PUSH1 0x20 ADD PUSH1 0x40 MLOAD SWAP1 DUP2 ADD PUSH1 0x40 MSTORE DUP1 SWAP3 SWAP2 SWAP1 DUP2 DUP2 MSTORE PUSH1 0x20 ADD DUP3 DUP1 SLOAD DUP1 ISZERO PUSH2 0x1D6A JUMPI PUSH1 0x20 MUL DUP3 ADD SWAP2 SWAP1 PUSH1 0x0 MSTORE PUSH1 0x20 PUSH1 0x0 KECCAK256 SWAP1 PUSH1 0x0 SWAP1 JUMPDEST DUP3 DUP3 SWAP1 SLOAD SWAP1 PUSH2 0x100 EXP SWAP1 DIV PUSH4 0xFFFFFFFF AND PUSH4 0xFFFFFFFF AND DUP2 MSTORE PUSH1 0x20 ADD SWAP1 PUSH1 0x4 ADD SWAP1 PUSH1 0x20 DUP3 PUSH1 0x3 ADD DIV SWAP3 DUP4 ADD SWAP3 PUSH1 0x1 SUB DUP3 MUL SWAP2 POP DUP1 DUP5 GT PUSH2 0x1D2D JUMPI SWAP1 POP JUMPDEST POP POP POP POP POP DUP2 MSTORE PUSH1 0x20 ADD PUSH1 0x9 DUP3 ADD SLOAD DUP2 MSTORE PUSH1 0x20 ADD PUSH1 0xA DUP3 ADD SLOAD DUP2 MSTORE PUSH1 0x20 ADD PUSH1 0xB DUP3 ADD SLOAD DUP2 MSTORE PUSH1 0x20 ADD PUSH1 0xC DUP3 ADD SLOAD DUP2 MSTORE PUSH1 0x20 ADD PUSH1 0xD DUP3 ADD SLOAD DUP2 MSTORE PUSH1 0x20 ADD PUSH1 0xE DUP3 ADD SLOAD DUP2 MSTORE PUSH1 0x20 ADD PUSH1 0xF DUP3 ADD SLOAD DUP2 MSTORE PUSH1 0x20 ADD PUSH1 0x10 DUP3 ADD SLOAD DUP2 MSTORE PUSH1 0x20 ADD PUSH1 0x11 DUP3 ADD PUSH1 0x0 SWAP1 SLOAD SWAP1 PUSH2 0x100 EXP SWAP1 DIV PUSH1 0xFF AND PUSH1 0xFF AND PUSH1 0xFF AND DUP2 MSTORE PUSH1 0x20 ADD PUSH1 0x12 DUP3 ADD SLOAD DUP2 MSTORE PUSH1 0x20 ADD PUSH1 0x13 DUP3 ADD SLOAD DUP2 MSTORE PUSH1 0x20 ADD PUSH1 0x14 DUP3 ADD SLOAD DUP2 MSTORE PUSH1 0x20 ADD PUSH1 0x15 DUP3 ADD SLOAD DUP2 MSTORE PUSH1 0x20 ADD PUSH1 0x16 DUP3 ADD SLOAD DUP2 MSTORE PUSH1 0x20 ADD PUSH1 0x17 DUP3 ADD SLOAD DUP2 MSTORE PUSH1 0x20 ADD PUSH1 0x18 DUP3 ADD SLOAD DUP2 MSTORE PUSH1 0x20 ADD PUSH1 0x19 DUP3 ADD SLOAD DUP2 MSTORE PUSH1 0x20 ADD PUSH1 0x1A DUP3 ADD SLOAD DUP2 MSTORE PUSH1 0x20 ADD PUSH1 0x1B DUP3 ADD DUP1 SLOAD DUP1 PUSH1 0x20 MUL PUSH1 0x20 ADD PUSH1 0x40 MLOAD SWAP1 DUP2 ADD PUSH1 0x40 MSTORE DUP1 SWAP3 SWAP2 SWAP1 DUP2 DUP2 MSTORE PUSH1 0x20 ADD DUP3 DUP1 SLOAD DUP1 ISZERO PUSH2 0x1EB5 JUMPI PUSH1 0x20 MUL DUP3 ADD SWAP2 SWAP1 PUSH1 0x0 MSTORE PUSH1 0x20 PUSH1 0x0 KECCAK256 SWAP1 PUSH1 0x0 SWAP1 JUMPDEST DUP3 DUP3 SWAP1 SLOAD SWAP1 PUSH2 0x100 EXP SWAP1 DIV PUSH4 0xFFFFFFFF AND PUSH4 0xFFFFFFFF AND DUP2 MSTORE PUSH1 0x20 ADD SWAP1 PUSH1 0x4 ADD SWAP1 PUSH1 0x20 DUP3 PUSH1 0x3 ADD DIV SWAP3 DUP4 ADD SWAP3 PUSH1 0x1 SUB DUP3 MUL SWAP2 POP DUP1 DUP5 GT PUSH2 0x1E78 JUMPI SWAP1 POP JUMPDEST POP POP POP POP POP DUP2 MSTORE PUSH1 0x20 ADD PUSH1 0x1C DUP3 ADD SLOAD DUP2 MSTORE PUSH1 0x20 ADD PUSH1 0x1D DUP3 ADD SLOAD DUP2 MSTORE PUSH1 0x20 ADD PUSH1 0x1E DUP3 ADD SLOAD DUP2 MSTORE POP POP SWAP1 POP DUP1 PUSH2 0x100 ADD MLOAD SWAP4 POP DUP1 PUSH2 0x120 ADD MLOAD SWAP3 POP DUP4 MLOAD SWAP2 POP POP SWAP2 SWAP4 SWAP1 SWAP3 POP JUMP JUMPDEST PUSH2 0x1F02 PUSH2 0x35B4 JUMP JUMPDEST PUSH1 0x40 MLOAD PUSH4 0xA9059CBB PUSH1 0xE0 SHL DUP2 MSTORE CALLER PUSH1 0x4 DUP3 ADD MSTORE PUSH1 0x24 DUP2 ADD DUP3 SWAP1 MSTORE PUSH1 0x1 PUSH1 0x1 PUSH1 0xA0 SHL SUB DUP4 AND SWAP1 PUSH4 0xA9059CBB SWAP1 PUSH1 0x44 ADD PUSH1 0x20 PUSH1 0x40 MLOAD DUP1 DUP4 SUB DUP2 PUSH1 0x0 DUP8 GAS CALL ISZERO DUP1 ISZERO PUSH2 0x1F4F JUMPI RETURNDATASIZE PUSH1 0x0 DUP1 RETURNDATACOPY RETURNDATASIZE PUSH1 0x0 REVERT JUMPDEST POP POP POP POP PUSH1 0x40 MLOAD RETURNDATASIZE PUSH1 0x1F NOT PUSH1 0x1F DUP3 ADD AND DUP3 ADD DUP1 PUSH1 0x40 MSTORE POP DUP2 ADD SWAP1 PUSH2 0xC02 SWAP2 SWAP1 PUSH2 0x546A JUMP JUMPDEST PUSH4 0xFFFFFFFF DUP1 DUP3 AND PUSH1 0x0 SWAP1 DUP2 MSTORE PUSH1 0xDB PUSH1 0x20 SWAP1 DUP2 MSTORE PUSH1 0x40 DUP1 DUP4 KECCAK256 DUP2 MLOAD PUSH2 0x400 DUP2 ADD SWAP1 SWAP3 MSTORE DUP1 SLOAD SWAP1 SWAP5 AND DUP2 MSTORE PUSH1 0x1 DUP5 ADD DUP1 SLOAD SWAP4 SWAP5 DUP6 SWAP5 SWAP3 SWAP4 SWAP1 SWAP3 SWAP1 DUP5 ADD SWAP2 SWAP1 PUSH2 0x1FB9 SWAP1 PUSH2 0x5430 JUMP JUMPDEST DUP1 PUSH1 0x1F ADD PUSH1 0x20 DUP1 SWAP2 DIV MUL PUSH1 0x20 ADD PUSH1 0x40 MLOAD SWAP1 DUP2 ADD PUSH1 0x40 MSTORE DUP1 SWAP3 SWAP2 SWAP1 DUP2 DUP2 MSTORE PUSH1 0x20 ADD DUP3 DUP1 SLOAD PUSH2 0x1FE5 SWAP1 PUSH2 0x5430 JUMP JUMPDEST DUP1 ISZERO PUSH2 0x2032 JUMPI DUP1 PUSH1 0x1F LT PUSH2 0x2007 JUMPI PUSH2 0x100 DUP1 DUP4 SLOAD DIV MUL DUP4 MSTORE SWAP2 PUSH1 0x20 ADD SWAP2 PUSH2 0x2032 JUMP JUMPDEST DUP3 ADD SWAP2 SWAP1 PUSH1 0x0 MSTORE PUSH1 0x20 PUSH1 0x0 KECCAK256 SWAP1 JUMPDEST DUP2 SLOAD DUP2 MSTORE SWAP1 PUSH1 0x1 ADD SWAP1 PUSH1 0x20 ADD DUP1 DUP4 GT PUSH2 0x2015 JUMPI DUP3 SWAP1 SUB PUSH1 0x1F AND DUP3 ADD SWAP2 JUMPDEST POP POP POP SWAP2 DUP4 MSTORE POP POP PUSH1 0x2 DUP3 ADD SLOAD PUSH1 0xFF DUP2 AND ISZERO ISZERO PUSH1 0x20 DUP1 DUP5 ADD SWAP2 SWAP1 SWAP2 MSTORE PUSH2 0x100 SWAP1 SWAP2 DIV PUSH1 0x1 PUSH1 0x1 PUSH1 0xA0 SHL SUB AND PUSH1 0x40 DUP1 DUP5 ADD SWAP2 SWAP1 SWAP2 MSTORE PUSH1 0x3 DUP5 ADD SLOAD PUSH1 0x60 DUP5 ADD MSTORE PUSH1 0x4 DUP5 ADD SLOAD PUSH1 0x80 DUP5 ADD MSTORE PUSH1 0x5 DUP5 ADD SLOAD PUSH4 0xFFFFFFFF AND PUSH1 0xA0 DUP5 ADD MSTORE PUSH1 0x6 DUP5 ADD DUP1 SLOAD DUP3 MLOAD DUP2 DUP6 MUL DUP2 ADD DUP6 ADD SWAP1 SWAP4 MSTORE DUP1 DUP4 MSTORE PUSH1 0xC0 SWAP1 SWAP5 ADD SWAP4 SWAP2 SWAP3 SWAP1 SWAP2 SWAP1 DUP4 ADD DUP3 DUP3 DUP1 ISZERO PUSH2 0x2105 JUMPI PUSH1 0x20 MUL DUP3 ADD SWAP2 SWAP1 PUSH1 0x0 MSTORE PUSH1 0x20 PUSH1 0x0 KECCAK256 SWAP1 PUSH1 0x0 SWAP1 JUMPDEST DUP3 DUP3 SWAP1 SLOAD SWAP1 PUSH2 0x100 EXP SWAP1 DIV PUSH4 0xFFFFFFFF AND PUSH4 0xFFFFFFFF AND DUP2 MSTORE PUSH1 0x20 ADD SWAP1 PUSH1 0x4 ADD SWAP1 PUSH1 0x20 DUP3 PUSH1 0x3 ADD DIV SWAP3 DUP4 ADD SWAP3 PUSH1 0x1 SUB DUP3 MUL SWAP2 POP DUP1 DUP5 GT PUSH2 0x20C8 JUMPI SWAP1 POP JUMPDEST POP POP POP POP POP DUP2 MSTORE PUSH1 0x20 ADD PUSH1 0x7 DUP3 ADD DUP1 SLOAD DUP1 PUSH1 0x20 MUL PUSH1 0x20 ADD PUSH1 0x40 MLOAD SWAP1 DUP2 ADD PUSH1 0x40 MSTORE DUP1 SWAP3 SWAP2 SWAP1 DUP2 DUP2 MSTORE PUSH1 0x20 ADD DUP3 DUP1 SLOAD DUP1 ISZERO PUSH2 0x2189 JUMPI PUSH1 0x20 MUL DUP3 ADD SWAP2 SWAP1 PUSH1 0x0 MSTORE PUSH1 0x20 PUSH1 0x0 KECCAK256 SWAP1 PUSH1 0x0 SWAP1 JUMPDEST DUP3 DUP3 SWAP1 SLOAD SWAP1 PUSH2 0x100 EXP SWAP1 DIV PUSH4 0xFFFFFFFF AND PUSH4 0xFFFFFFFF AND DUP2 MSTORE PUSH1 0x20 ADD SWAP1 PUSH1 0x4 ADD SWAP1 PUSH1 0x20 DUP3 PUSH1 0x3 ADD DIV SWAP3 DUP4 ADD SWAP3 PUSH1 0x1 SUB DUP3 MUL SWAP2 POP DUP1 DUP5 GT PUSH2 0x214C JUMPI SWAP1 POP JUMPDEST POP POP POP POP POP DUP2 MSTORE PUSH1 0x20 ADD PUSH1 0x8 DUP3 ADD DUP1 SLOAD DUP1 PUSH1 0x20 MUL PUSH1 0x20 ADD PUSH1 0x40 MLOAD SWAP1 DUP2 ADD PUSH1 0x40 MSTORE DUP1 SWAP3 SWAP2 SWAP1 DUP2 DUP2 MSTORE PUSH1 0x20 ADD DUP3 DUP1 SLOAD DUP1 ISZERO PUSH2 0x220D JUMPI PUSH1 0x20 MUL DUP3 ADD SWAP2 SWAP1 PUSH1 0x0 MSTORE PUSH1 0x20 PUSH1 0x0 KECCAK256 SWAP1 PUSH1 0x0 SWAP1 JUMPDEST DUP3 DUP3 SWAP1 SLOAD SWAP1 PUSH2 0x100 EXP SWAP1 DIV PUSH4 0xFFFFFFFF AND PUSH4 0xFFFFFFFF AND DUP2 MSTORE PUSH1 0x20 ADD SWAP1 PUSH1 0x4 ADD SWAP1 PUSH1 0x20 DUP3 PUSH1 0x3 ADD DIV SWAP3 DUP4 ADD SWAP3 PUSH1 0x1 SUB DUP3 MUL SWAP2 POP DUP1 DUP5 GT PUSH2 0x21D0 JUMPI SWAP1 POP JUMPDEST POP POP POP POP POP DUP2 MSTORE PUSH1 0x20 ADD PUSH1 0x9 DUP3 ADD SLOAD DUP2 MSTORE PUSH1 0x20 ADD PUSH1 0xA DUP3 ADD SLOAD DUP2 MSTORE PUSH1 0x20 ADD PUSH1 0xB DUP3 ADD SLOAD DUP2 MSTORE PUSH1 0x20 ADD PUSH1 0xC DUP3 ADD SLOAD DUP2 MSTORE PUSH1 0x20 ADD PUSH1 0xD DUP3 ADD SLOAD DUP2 MSTORE PUSH1 0x20 ADD PUSH1 0xE DUP3 ADD SLOAD DUP2 MSTORE PUSH1 0x20 ADD PUSH1 0xF DUP3 ADD SLOAD DUP2 MSTORE PUSH1 0x20 ADD PUSH1 0x10 DUP3 ADD SLOAD DUP2 MSTORE PUSH1 0x20 ADD PUSH1 0x11 DUP3 ADD PUSH1 0x0 SWAP1 SLOAD SWAP1 PUSH2 0x100 EXP SWAP1 DIV PUSH1 0xFF AND PUSH1 0xFF AND PUSH1 0xFF AND DUP2 MSTORE PUSH1 0x20 ADD PUSH1 0x12 DUP3 ADD SLOAD DUP2 MSTORE PUSH1 0x20 ADD PUSH1 0x13 DUP3 ADD SLOAD DUP2 MSTORE PUSH1 0x20 ADD PUSH1 0x14 DUP3 ADD SLOAD DUP2 MSTORE PUSH1 0x20 ADD PUSH1 0x15 DUP3 ADD SLOAD DUP2 MSTORE PUSH1 0x20 ADD PUSH1 0x16 DUP3 ADD SLOAD DUP2 MSTORE PUSH1 0x20 ADD PUSH1 0x17 DUP3 ADD SLOAD DUP2 MSTORE PUSH1 0x20 ADD PUSH1 0x18 DUP3 ADD SLOAD DUP2 MSTORE PUSH1 0x20 ADD PUSH1 0x19 DUP3 ADD SLOAD DUP2 MSTORE PUSH1 0x20 ADD PUSH1 0x1A DUP3 ADD SLOAD DUP2 MSTORE PUSH1 0x20 ADD PUSH1 0x1B DUP3 ADD DUP1 SLOAD DUP1 PUSH1 0x20 MUL PUSH1 0x20 ADD PUSH1 0x40 MLOAD SWAP1 DUP2 ADD PUSH1 0x40 MSTORE DUP1 SWAP3 SWAP2 SWAP1 DUP2 DUP2 MSTORE PUSH1 0x20 ADD DUP3 DUP1 SLOAD DUP1 ISZERO PUSH2 0x2358 JUMPI PUSH1 0x20 MUL DUP3 ADD SWAP2 SWAP1 PUSH1 0x0 MSTORE PUSH1 0x20 PUSH1 0x0 KECCAK256 SWAP1 PUSH1 0x0 SWAP1 JUMPDEST DUP3 DUP3 SWAP1 SLOAD SWAP1 PUSH2 0x100 EXP SWAP1 DIV PUSH4 0xFFFFFFFF AND PUSH4 0xFFFFFFFF AND DUP2 MSTORE PUSH1 0x20 ADD SWAP1 PUSH1 0x4 ADD SWAP1 PUSH1 0x20 DUP3 PUSH1 0x3 ADD DIV SWAP3 DUP4 ADD SWAP3 PUSH1 0x1 SUB DUP3 MUL SWAP2 POP DUP1 DUP5 GT PUSH2 0x231B JUMPI SWAP1 POP JUMPDEST POP POP POP POP POP DUP2 MSTORE PUSH1 0x20 ADD PUSH1 0x1C DUP3 ADD SLOAD DUP2 MSTORE PUSH1 0x20 ADD PUSH1 0x1D DUP3 ADD SLOAD DUP2 MSTORE PUSH1 0x20 ADD PUSH1 0x1E DUP3 ADD SLOAD DUP2 MSTORE POP POP SWAP1 POP PUSH2 0x238A DUP2 PUSH2 0x3A23 JUMP JUMPDEST SWAP4 SWAP3 POP POP POP JUMP JUMPDEST PUSH1 0x0 PUSH2 0x239C DUP3 PUSH2 0x3A5F JUMP JUMPDEST SWAP3 SWAP2 POP POP JUMP JUMPDEST PUSH1 0x0 JUMPDEST PUSH1 0xDE SLOAD PUSH1 0xFF DUP3 AND LT ISZERO PUSH2 0xECA JUMPI PUSH1 0xDE DUP2 PUSH1 0xFF AND DUP2 SLOAD DUP2 LT PUSH2 0x23C8 JUMPI PUSH2 0x23C8 PUSH2 0x52EC JUMP JUMPDEST PUSH1 0x0 SWAP2 DUP3 MSTORE PUSH1 0x20 SWAP1 SWAP2 KECCAK256 ADD SLOAD PUSH1 0x1 PUSH1 0x1 PUSH1 0xA0 SHL SUB AND CALLER SUB PUSH2 0x2417 JUMPI PUSH1 0xD1 DUP1 SLOAD PUSH2 0xFFFF PUSH1 0x60 SHL NOT AND PUSH1 0x1 PUSH1 0x60 SHL PUSH2 0xFFFF DUP8 AND MUL OR SWAP1 SSTORE PUSH2 0x240A DUP4 PUSH3 0x15180 PUSH2 0x548C JUMP JUMPDEST PUSH1 0xD2 SSTORE PUSH1 0xD3 DUP3 SWAP1 SSTORE PUSH2 0xECA JUMP JUMPDEST PUSH1 0xDE SLOAD PUSH2 0x2426 SWAP1 PUSH1 0x1 SWAP1 PUSH2 0x5318 JUMP JUMPDEST DUP2 PUSH1 0xFF AND SUB PUSH2 0x2478 JUMPI PUSH1 0xDE DUP2 PUSH1 0xFF AND DUP2 SLOAD DUP2 LT PUSH2 0x2445 JUMPI PUSH2 0x2445 PUSH2 0x52EC JUMP JUMPDEST PUSH1 0x0 SWAP2 DUP3 MSTORE PUSH1 0x20 SWAP1 SWAP2 KECCAK256 ADD SLOAD PUSH1 0x1 PUSH1 0x1 PUSH1 0xA0 SHL SUB AND CALLER EQ PUSH2 0x2478 JUMPI PUSH1 0x40 MLOAD PUSH3 0x461BCD PUSH1 0xE5 SHL DUP2 MSTORE PUSH1 0x4 ADD PUSH2 0xCCA SWAP1 PUSH2 0x532B JUMP JUMPDEST DUP1 PUSH2 0x2482 DUP2 PUSH2 0x5356 JUMP JUMPDEST SWAP2 POP POP PUSH2 0x23A5 JUMP JUMPDEST PUSH1 0x0 JUMPDEST PUSH1 0xDE SLOAD PUSH1 0xFF DUP3 AND LT ISZERO PUSH2 0xCE5 JUMPI PUSH1 0xDE DUP2 PUSH1 0xFF AND DUP2 SLOAD DUP2 LT PUSH2 0x24B0 JUMPI PUSH2 0x24B0 PUSH2 0x52EC JUMP JUMPDEST PUSH1 0x0 SWAP2 DUP3 MSTORE PUSH1 0x20 SWAP1 SWAP2 KECCAK256 ADD SLOAD PUSH1 0x1 PUSH1 0x1 PUSH1 0xA0 SHL SUB AND CALLER SUB PUSH2 0x24F4 JUMPI PUSH1 0xD1 DUP1 SLOAD PUSH4 0xFFFFFFFF DUP5 AND PUSH1 0x1 PUSH1 0x40 SHL MUL PUSH12 0xFFFFFFFF0000000000000000 NOT SWAP1 SWAP2 AND OR SWAP1 SSTORE POP POP JUMP JUMPDEST PUSH1 0xDE SLOAD PUSH2 0x2503 SWAP1 PUSH1 0x1 SWAP1 PUSH2 0x5318 JUMP JUMPDEST DUP2 PUSH1 0xFF AND SUB PUSH2 0x2555 JUMPI PUSH1 0xDE DUP2 PUSH1 0xFF AND DUP2 SLOAD DUP2 LT PUSH2 0x2522 JUMPI PUSH2 0x2522 PUSH2 0x52EC JUMP JUMPDEST PUSH1 0x0 SWAP2 DUP3 MSTORE PUSH1 0x20 SWAP1 SWAP2 KECCAK256 ADD SLOAD PUSH1 0x1 PUSH1 0x1 PUSH1 0xA0 SHL SUB AND CALLER EQ PUSH2 0x2555 JUMPI PUSH1 0x40 MLOAD PUSH3 0x461BCD PUSH1 0xE5 SHL DUP2 MSTORE PUSH1 0x4 ADD PUSH2 0xCCA SWAP1 PUSH2 0x532B JUMP JUMPDEST DUP1 PUSH2 0x255F DUP2 PUSH2 0x5356 JUMP JUMPDEST SWAP2 POP POP PUSH2 0x248D JUMP JUMPDEST PUSH1 0x0 JUMPDEST PUSH1 0xDE SLOAD PUSH1 0xFF DUP3 AND LT ISZERO PUSH2 0xCE5 JUMPI PUSH1 0xDE DUP2 PUSH1 0xFF AND DUP2 SLOAD DUP2 LT PUSH2 0x258D JUMPI PUSH2 0x258D PUSH2 0x52EC JUMP JUMPDEST PUSH1 0x0 SWAP2 DUP3 MSTORE PUSH1 0x20 SWAP1 SWAP2 KECCAK256 ADD SLOAD PUSH1 0x1 PUSH1 0x1 PUSH1 0xA0 SHL SUB AND CALLER SUB PUSH2 0x26C9 JUMPI PUSH1 0x1 PUSH1 0x1 PUSH1 0xA0 SHL SUB DUP3 AND PUSH1 0x0 SWAP1 DUP2 MSTORE PUSH1 0xDA PUSH1 0x20 MSTORE PUSH1 0x40 DUP2 KECCAK256 DUP1 SLOAD PUSH1 0xFF NOT AND SWAP1 SSTORE PUSH1 0xD8 SLOAD SWAP1 JUMPDEST DUP2 DUP2 LT ISZERO PUSH2 0xECA JUMPI DUP4 PUSH1 0x1 PUSH1 0x1 PUSH1 0xA0 SHL SUB AND PUSH1 0xD8 DUP3 DUP2 SLOAD DUP2 LT PUSH2 0x25F2 JUMPI PUSH2 0x25F2 PUSH2 0x52EC JUMP JUMPDEST PUSH1 0x0 SWAP2 DUP3 MSTORE PUSH1 0x20 SWAP1 SWAP2 KECCAK256 ADD SLOAD PUSH1 0x1 PUSH1 0x1 PUSH1 0xA0 SHL SUB AND SUB PUSH2 0x26B7 JUMPI PUSH1 0xD8 PUSH2 0x2619 PUSH1 0x1 DUP5 PUSH2 0x5318 JUMP JUMPDEST DUP2 SLOAD DUP2 LT PUSH2 0x2629 JUMPI PUSH2 0x2629 PUSH2 0x52EC JUMP JUMPDEST PUSH1 0x0 SWAP2 DUP3 MSTORE PUSH1 0x20 SWAP1 SWAP2 KECCAK256 ADD SLOAD PUSH1 0xD8 DUP1 SLOAD PUSH1 0x1 PUSH1 0x1 PUSH1 0xA0 SHL SUB SWAP1 SWAP3 AND SWAP2 DUP4 SWAP1 DUP2 LT PUSH2 0x2655 JUMPI PUSH2 0x2655 PUSH2 0x52EC JUMP JUMPDEST SWAP1 PUSH1 0x0 MSTORE PUSH1 0x20 PUSH1 0x0 KECCAK256 ADD PUSH1 0x0 PUSH2 0x100 EXP DUP2 SLOAD DUP2 PUSH1 0x1 PUSH1 0x1 PUSH1 0xA0 SHL SUB MUL NOT AND SWAP1 DUP4 PUSH1 0x1 PUSH1 0x1 PUSH1 0xA0 SHL SUB AND MUL OR SWAP1 SSTORE POP PUSH1 0xD8 DUP1 SLOAD DUP1 PUSH2 0x2694 JUMPI PUSH2 0x2694 PUSH2 0x54A3 JUMP JUMPDEST PUSH1 0x0 DUP3 DUP2 MSTORE PUSH1 0x20 SWAP1 KECCAK256 DUP2 ADD PUSH1 0x0 NOT SWAP1 DUP2 ADD DUP1 SLOAD PUSH1 0x1 PUSH1 0x1 PUSH1 0xA0 SHL SUB NOT AND SWAP1 SSTORE ADD SWAP1 SSTORE JUMPDEST DUP1 PUSH2 0x26C1 DUP2 PUSH2 0x54B9 JUMP JUMPDEST SWAP2 POP POP PUSH2 0x25CD JUMP JUMPDEST PUSH1 0xDE SLOAD PUSH2 0x26D8 SWAP1 PUSH1 0x1 SWAP1 PUSH2 0x5318 JUMP JUMPDEST DUP2 PUSH1 0xFF AND SUB PUSH2 0x272A JUMPI PUSH1 0xDE DUP2 PUSH1 0xFF AND DUP2 SLOAD DUP2 LT PUSH2 0x26F7 JUMPI PUSH2 0x26F7 PUSH2 0x52EC JUMP JUMPDEST PUSH1 0x0 SWAP2 DUP3 MSTORE PUSH1 0x20 SWAP1 SWAP2 KECCAK256 ADD SLOAD PUSH1 0x1 PUSH1 0x1 PUSH1 0xA0 SHL SUB AND CALLER EQ PUSH2 0x272A JUMPI PUSH1 0x40 MLOAD PUSH3 0x461BCD PUSH1 0xE5 SHL DUP2 MSTORE PUSH1 0x4 ADD PUSH2 0xCCA SWAP1 PUSH2 0x532B JUMP JUMPDEST DUP1 PUSH2 0x2734 DUP2 PUSH2 0x5356 JUMP JUMPDEST SWAP2 POP POP PUSH2 0x256A JUMP JUMPDEST CALLVALUE PUSH1 0x0 PUSH2 0x2748 DUP3 PUSH2 0x3F9F JUMP JUMPDEST SWAP1 POP PUSH1 0xDF SLOAD DUP2 LT ISZERO PUSH2 0x279C JUMPI PUSH1 0x40 MLOAD PUSH3 0x461BCD PUSH1 0xE5 SHL DUP2 MSTORE PUSH1 0x20 PUSH1 0x4 DUP3 ADD MSTORE PUSH1 0x1F PUSH1 0x24 DUP3 ADD MSTORE PUSH32 0x56616C7565206C657373207468656E206D696E436F6E747269627574696F6E00 PUSH1 0x44 DUP3 ADD MSTORE PUSH1 0x64 ADD PUSH2 0xCCA JUMP JUMPDEST PUSH1 0xD1 SLOAD CALLER SWAP1 TIMESTAMP SWAP1 PUSH1 0x0 SWAP1 PUSH2 0x27BF SWAP1 PUSH5 0x100000000 SWAP1 DIV PUSH4 0xFFFFFFFF AND PUSH1 0x1 PUSH2 0x54D2 JUMP JUMPDEST PUSH1 0xD1 DUP1 SLOAD SWAP2 SWAP3 POP PUSH1 0x0 SWAP2 PUSH1 0x1 PUSH1 0x40 SHL SWAP1 DIV PUSH4 0xFFFFFFFF AND SWAP1 PUSH1 0x8 PUSH2 0x27E2 DUP4 PUSH2 0x5375 JUMP JUMPDEST DUP3 SLOAD PUSH4 0xFFFFFFFF SWAP2 DUP3 AND PUSH2 0x100 SWAP4 SWAP1 SWAP4 EXP SWAP3 DUP4 MUL SWAP2 SWAP1 SWAP3 MUL NOT SWAP1 SWAP2 AND OR SWAP1 SSTORE PUSH1 0x1 PUSH1 0x1 PUSH1 0xA0 SHL SUB DUP6 AND PUSH1 0x0 SWAP1 DUP2 MSTORE PUSH1 0xDA PUSH1 0x20 MSTORE PUSH1 0x40 SWAP1 KECCAK256 PUSH1 0xD4 SLOAD SWAP2 SWAP3 POP SWAP1 PUSH1 0xFF AND ISZERO PUSH2 0x2834 JUMPI PUSH2 0x2834 DUP4 DUP4 DUP9 DUP8 PUSH2 0x36A4 JUMP JUMPDEST PUSH2 0x2854 DUP6 DUP5 DUP11 DUP10 DUP9 PUSH1 0xCB PUSH1 0x2 SWAP1 SLOAD SWAP1 PUSH2 0x100 EXP SWAP1 DIV PUSH1 0xFF AND PUSH1 0xFF AND PUSH2 0x402C JUMP JUMPDEST PUSH1 0x1 SWAP1 DUP2 ADD DUP1 SLOAD SWAP2 DUP3 ADD DUP2 SSTORE PUSH1 0x0 SWAP1 DUP2 MSTORE PUSH1 0x20 SWAP1 KECCAK256 PUSH1 0x8 DUP3 DIV ADD DUP1 SLOAD PUSH1 0x7 SWAP1 SWAP3 AND PUSH1 0x4 MUL PUSH2 0x100 EXP PUSH4 0xFFFFFFFF DUP2 DUP2 MUL NOT SWAP1 SWAP4 AND SWAP5 SWAP1 SWAP3 AND SWAP2 SWAP1 SWAP2 MUL SWAP3 SWAP1 SWAP3 OR SWAP1 SWAP2 SSTORE POP POP POP POP POP POP JUMP JUMPDEST PUSH4 0xFFFFFFFF DUP2 AND PUSH1 0x0 SWAP1 DUP2 MSTORE PUSH1 0xDB PUSH1 0x20 SWAP1 DUP2 MSTORE PUSH1 0x40 DUP1 DUP4 KECCAK256 PUSH1 0x1B ADD DUP1 SLOAD DUP3 MLOAD DUP2 DUP6 MUL DUP2 ADD DUP6 ADD SWAP1 SWAP4 MSTORE DUP1 DUP4 MSTORE DUP5 SWAP4 DUP4 ADD DUP3 DUP3 DUP1 ISZERO PUSH2 0x2928 JUMPI PUSH1 0x20 MUL DUP3 ADD SWAP2 SWAP1 PUSH1 0x0 MSTORE PUSH1 0x20 PUSH1 0x0 KECCAK256 SWAP1 PUSH1 0x0 SWAP1 JUMPDEST DUP3 DUP3 SWAP1 SLOAD SWAP1 PUSH2 0x100 EXP SWAP1 DIV PUSH4 0xFFFFFFFF AND PUSH4 0xFFFFFFFF AND DUP2 MSTORE PUSH1 0x20 ADD SWAP1 PUSH1 0x4 ADD SWAP1 PUSH1 0x20 DUP3 PUSH1 0x3 ADD DIV SWAP3 DUP4 ADD SWAP3 PUSH1 0x1 SUB DUP3 MUL SWAP2 POP DUP1 DUP5 GT PUSH2 0x28EB JUMPI SWAP1 POP JUMPDEST POP POP POP POP POP SWAP1 POP PUSH1 0x0 DUP1 JUMPDEST DUP3 MLOAD DUP2 PUSH2 0xFFFF AND LT ISZERO PUSH2 0x29BC JUMPI PUSH1 0x0 PUSH1 0xDC PUSH1 0x0 DUP6 DUP5 PUSH2 0xFFFF AND DUP2 MLOAD DUP2 LT PUSH2 0x295C JUMPI PUSH2 0x295C PUSH2 0x52EC JUMP JUMPDEST PUSH1 0x20 MUL PUSH1 0x20 ADD ADD MLOAD PUSH4 0xFFFFFFFF AND PUSH4 0xFFFFFFFF AND DUP2 MSTORE PUSH1 0x20 ADD SWAP1 DUP2 MSTORE PUSH1 0x20 ADD PUSH1 0x0 KECCAK256 SWAP1 POP DUP1 PUSH1 0x0 ADD PUSH1 0x4 SWAP1 SLOAD SWAP1 PUSH2 0x100 EXP SWAP1 DIV PUSH1 0xFF AND ISZERO PUSH2 0x29A9 JUMPI PUSH1 0x1 DUP2 ADD SLOAD PUSH2 0x29A6 SWAP1 DUP5 PUSH2 0x54F6 JUMP JUMPDEST SWAP3 POP JUMPDEST POP DUP1 PUSH2 0x29B4 DUP2 PUSH2 0x5509 JUMP JUMPDEST SWAP2 POP POP PUSH2 0x2933 JUMP JUMPDEST POP SWAP4 SWAP3 POP POP POP JUMP JUMPDEST PUSH4 0xFFFFFFFF DUP1 DUP3 AND PUSH1 0x0 SWAP1 DUP2 MSTORE PUSH1 0xDB PUSH1 0x20 SWAP1 DUP2 MSTORE PUSH1 0x40 DUP1 DUP4 KECCAK256 DUP2 MLOAD PUSH2 0x400 DUP2 ADD SWAP1 SWAP3 MSTORE DUP1 SLOAD SWAP1 SWAP5 AND DUP2 MSTORE PUSH1 0x1 DUP5 ADD DUP1 SLOAD SWAP4 SWAP5 DUP6 SWAP5 DUP6 SWAP5 DUP6 SWAP5 DUP6 SWAP5 SWAP1 SWAP4 SWAP3 SWAP2 DUP5 ADD SWAP2 PUSH2 0x2A0E SWAP1 PUSH2 0x5430 JUMP JUMPDEST DUP1 PUSH1 0x1F ADD PUSH1 0x20 DUP1 SWAP2 DIV MUL PUSH1 0x20 ADD PUSH1 0x40 MLOAD SWAP1 DUP2 ADD PUSH1 0x40 MSTORE DUP1 SWAP3 SWAP2 SWAP1 DUP2 DUP2 MSTORE PUSH1 0x20 ADD DUP3 DUP1 SLOAD PUSH2 0x2A3A SWAP1 PUSH2 0x5430 JUMP JUMPDEST DUP1 ISZERO PUSH2 0x2A87 JUMPI DUP1 PUSH1 0x1F LT PUSH2 0x2A5C JUMPI PUSH2 0x100 DUP1 DUP4 SLOAD DIV MUL DUP4 MSTORE SWAP2 PUSH1 0x20 ADD SWAP2 PUSH2 0x2A87 JUMP JUMPDEST DUP3 ADD SWAP2 SWAP1 PUSH1 0x0 MSTORE PUSH1 0x20 PUSH1 0x0 KECCAK256 SWAP1 JUMPDEST DUP2 SLOAD DUP2 MSTORE SWAP1 PUSH1 0x1 ADD SWAP1 PUSH1 0x20 ADD DUP1 DUP4 GT PUSH2 0x2A6A JUMPI DUP3 SWAP1 SUB PUSH1 0x1F AND DUP3 ADD SWAP2 JUMPDEST POP POP POP SWAP2 DUP4 MSTORE POP POP PUSH1 0x2 DUP3 ADD SLOAD PUSH1 0xFF DUP2 AND ISZERO ISZERO PUSH1 0x20 DUP1 DUP5 ADD SWAP2 SWAP1 SWAP2 MSTORE PUSH2 0x100 SWAP1 SWAP2 DIV PUSH1 0x1 PUSH1 0x1 PUSH1 0xA0 SHL SUB AND PUSH1 0x40 DUP1 DUP5 ADD SWAP2 SWAP1 SWAP2 MSTORE PUSH1 0x3 DUP5 ADD SLOAD PUSH1 0x60 DUP5 ADD MSTORE PUSH1 0x4 DUP5 ADD SLOAD PUSH1 0x80 DUP5 ADD MSTORE PUSH1 0x5 DUP5 ADD SLOAD PUSH4 0xFFFFFFFF AND PUSH1 0xA0 DUP5 ADD MSTORE PUSH1 0x6 DUP5 ADD DUP1 SLOAD DUP3 MLOAD DUP2 DUP6 MUL DUP2 ADD DUP6 ADD SWAP1 SWAP4 MSTORE DUP1 DUP4 MSTORE PUSH1 0xC0 SWAP1 SWAP5 ADD SWAP4 SWAP2 SWAP3 SWAP1 SWAP2 SWAP1 DUP4 ADD DUP3 DUP3 DUP1 ISZERO PUSH2 0x2B5A JUMPI PUSH1 0x20 MUL DUP3 ADD SWAP2 SWAP1 PUSH1 0x0 MSTORE PUSH1 0x20 PUSH1 0x0 KECCAK256 SWAP1 PUSH1 0x0 SWAP1 JUMPDEST DUP3 DUP3 SWAP1 SLOAD SWAP1 PUSH2 0x100 EXP SWAP1 DIV PUSH4 0xFFFFFFFF AND PUSH4 0xFFFFFFFF AND DUP2 MSTORE PUSH1 0x20 ADD SWAP1 PUSH1 0x4 ADD SWAP1 PUSH1 0x20 DUP3 PUSH1 0x3 ADD DIV SWAP3 DUP4 ADD SWAP3 PUSH1 0x1 SUB DUP3 MUL SWAP2 POP DUP1 DUP5 GT PUSH2 0x2B1D JUMPI SWAP1 POP JUMPDEST POP POP POP POP POP DUP2 MSTORE PUSH1 0x20 ADD PUSH1 0x7 DUP3 ADD DUP1 SLOAD DUP1 PUSH1 0x20 MUL PUSH1 0x20 ADD PUSH1 0x40 MLOAD SWAP1 DUP2 ADD PUSH1 0x40 MSTORE DUP1 SWAP3 SWAP2 SWAP1 DUP2 DUP2 MSTORE PUSH1 0x20 ADD DUP3 DUP1 SLOAD DUP1 ISZERO PUSH2 0x2BDE JUMPI PUSH1 0x20 MUL DUP3 ADD SWAP2 SWAP1 PUSH1 0x0 MSTORE PUSH1 0x20 PUSH1 0x0 KECCAK256 SWAP1 PUSH1 0x0 SWAP1 JUMPDEST DUP3 DUP3 SWAP1 SLOAD SWAP1 PUSH2 0x100 EXP SWAP1 DIV PUSH4 0xFFFFFFFF AND PUSH4 0xFFFFFFFF AND DUP2 MSTORE PUSH1 0x20 ADD SWAP1 PUSH1 0x4 ADD SWAP1 PUSH1 0x20 DUP3 PUSH1 0x3 ADD DIV SWAP3 DUP4 ADD SWAP3 PUSH1 0x1 SUB DUP3 MUL SWAP2 POP DUP1 DUP5 GT PUSH2 0x2BA1 JUMPI SWAP1 POP JUMPDEST POP POP POP POP POP DUP2 MSTORE PUSH1 0x20 ADD PUSH1 0x8 DUP3 ADD DUP1 SLOAD DUP1 PUSH1 0x20 MUL PUSH1 0x20 ADD PUSH1 0x40 MLOAD SWAP1 DUP2 ADD PUSH1 0x40 MSTORE DUP1 SWAP3 SWAP2 SWAP1 DUP2 DUP2 MSTORE PUSH1 0x20 ADD DUP3 DUP1 SLOAD DUP1 ISZERO PUSH2 0x2C62 JUMPI PUSH1 0x20 MUL DUP3 ADD SWAP2 SWAP1 PUSH1 0x0 MSTORE PUSH1 0x20 PUSH1 0x0 KECCAK256 SWAP1 PUSH1 0x0 SWAP1 JUMPDEST DUP3 DUP3 SWAP1 SLOAD SWAP1 PUSH2 0x100 EXP SWAP1 DIV PUSH4 0xFFFFFFFF AND PUSH4 0xFFFFFFFF AND DUP2 MSTORE PUSH1 0x20 ADD SWAP1 PUSH1 0x4 ADD SWAP1 PUSH1 0x20 DUP3 PUSH1 0x3 ADD DIV SWAP3 DUP4 ADD SWAP3 PUSH1 0x1 SUB DUP3 MUL SWAP2 POP DUP1 DUP5 GT PUSH2 0x2C25 JUMPI SWAP1 POP JUMPDEST POP POP POP POP POP DUP2 MSTORE PUSH1 0x20 ADD PUSH1 0x9 DUP3 ADD SLOAD DUP2 MSTORE PUSH1 0x20 ADD PUSH1 0xA DUP3 ADD SLOAD DUP2 MSTORE PUSH1 0x20 ADD PUSH1 0xB DUP3 ADD SLOAD DUP2 MSTORE PUSH1 0x20 ADD PUSH1 0xC DUP3 ADD SLOAD DUP2 MSTORE PUSH1 0x20 ADD PUSH1 0xD DUP3 ADD SLOAD DUP2 MSTORE PUSH1 0x20 ADD PUSH1 0xE DUP3 ADD SLOAD DUP2 MSTORE PUSH1 0x20 ADD PUSH1 0xF DUP3 ADD SLOAD DUP2 MSTORE PUSH1 0x20 ADD PUSH1 0x10 DUP3 ADD SLOAD DUP2 MSTORE PUSH1 0x20 ADD PUSH1 0x11 DUP3 ADD PUSH1 0x0 SWAP1 SLOAD SWAP1 PUSH2 0x100 EXP SWAP1 DIV PUSH1 0xFF AND PUSH1 0xFF AND PUSH1 0xFF AND DUP2 MSTORE PUSH1 0x20 ADD PUSH1 0x12 DUP3 ADD SLOAD DUP2 MSTORE PUSH1 0x20 ADD PUSH1 0x13 DUP3 ADD SLOAD DUP2 MSTORE PUSH1 0x20 ADD PUSH1 0x14 DUP3 ADD SLOAD DUP2 MSTORE PUSH1 0x20 ADD PUSH1 0x15 DUP3 ADD SLOAD DUP2 MSTORE PUSH1 0x20 ADD PUSH1 0x16 DUP3 ADD SLOAD DUP2 MSTORE PUSH1 0x20 ADD PUSH1 0x17 DUP3 ADD SLOAD DUP2 MSTORE PUSH1 0x20 ADD PUSH1 0x18 DUP3 ADD SLOAD DUP2 MSTORE PUSH1 0x20 ADD PUSH1 0x19 DUP3 ADD SLOAD DUP2 MSTORE PUSH1 0x20 ADD PUSH1 0x1A DUP3 ADD SLOAD DUP2 MSTORE PUSH1 0x20 ADD PUSH1 0x1B DUP3 ADD DUP1 SLOAD DUP1 PUSH1 0x20 MUL PUSH1 0x20 ADD PUSH1 0x40 MLOAD SWAP1 DUP2 ADD PUSH1 0x40 MSTORE DUP1 SWAP3 SWAP2 SWAP1 DUP2 DUP2 MSTORE PUSH1 0x20 ADD DUP3 DUP1 SLOAD DUP1 ISZERO PUSH2 0x2DAD JUMPI PUSH1 0x20 MUL DUP3 ADD SWAP2 SWAP1 PUSH1 0x0 MSTORE PUSH1 0x20 PUSH1 0x0 KECCAK256 SWAP1 PUSH1 0x0 SWAP1 JUMPDEST DUP3 DUP3 SWAP1 SLOAD SWAP1 PUSH2 0x100 EXP SWAP1 DIV PUSH4 0xFFFFFFFF AND PUSH4 0xFFFFFFFF AND DUP2 MSTORE PUSH1 0x20 ADD SWAP1 PUSH1 0x4 ADD SWAP1 PUSH1 0x20 DUP3 PUSH1 0x3 ADD DIV SWAP3 DUP4 ADD SWAP3 PUSH1 0x1 SUB DUP3 MUL SWAP2 POP DUP1 DUP5 GT PUSH2 0x2D70 JUMPI SWAP1 POP JUMPDEST POP POP POP POP POP DUP2 MSTORE PUSH1 0x20 ADD PUSH1 0x1C DUP3 ADD SLOAD DUP2 MSTORE PUSH1 0x20 ADD PUSH1 0x1D DUP3 ADD SLOAD DUP2 MSTORE PUSH1 0x20 ADD PUSH1 0x1E DUP3 ADD SLOAD DUP2 MSTORE POP POP SWAP1 POP DUP1 PUSH2 0x280 ADD MLOAD SWAP5 POP DUP1 PUSH2 0x360 ADD MLOAD SWAP4 POP DUP1 PUSH2 0x2A0 ADD MLOAD SWAP3 POP DUP3 DUP5 DUP7 PUSH2 0x2DFB SWAP2 SWAP1 PUSH2 0x54F6 JUMP JUMPDEST PUSH2 0x2E05 SWAP2 SWAP1 PUSH2 0x54F6 JUMP JUMPDEST SWAP2 POP POP SWAP2 SWAP4 POP SWAP2 SWAP4 JUMP JUMPDEST PUSH2 0x2E17 PUSH2 0x35B4 JUMP JUMPDEST PUSH1 0x1 PUSH1 0x1 PUSH1 0xA0 SHL SUB DUP2 AND PUSH2 0x2E7C JUMPI PUSH1 0x40 MLOAD PUSH3 0x461BCD PUSH1 0xE5 SHL DUP2 MSTORE PUSH1 0x20 PUSH1 0x4 DUP3 ADD MSTORE PUSH1 0x26 PUSH1 0x24 DUP3 ADD MSTORE PUSH32 0x4F776E61626C653A206E6577206F776E657220697320746865207A65726F2061 PUSH1 0x44 DUP3 ADD MSTORE PUSH6 0x646472657373 PUSH1 0xD0 SHL PUSH1 0x64 DUP3 ADD MSTORE PUSH1 0x84 ADD PUSH2 0xCCA JUMP JUMPDEST PUSH2 0xF04 DUP2 PUSH2 0x38CD JUMP JUMPDEST PUSH4 0xFFFFFFFF DUP3 AND PUSH1 0x0 SWAP1 DUP2 MSTORE PUSH1 0xDB PUSH1 0x20 MSTORE PUSH1 0x40 SWAP1 KECCAK256 PUSH1 0x2 DUP2 ADD SLOAD PUSH2 0x100 SWAP1 DIV PUSH1 0x1 PUSH1 0x1 PUSH1 0xA0 SHL SUB AND CALLER EQ PUSH2 0x2EFB JUMPI PUSH1 0x40 MLOAD PUSH3 0x461BCD PUSH1 0xE5 SHL DUP2 MSTORE PUSH1 0x20 PUSH1 0x4 DUP3 ADD MSTORE PUSH1 0x1D PUSH1 0x24 DUP3 ADD MSTORE PUSH32 0x596F7520617265206E6F74206F776E6572206F6620746869732069642E000000 PUSH1 0x44 DUP3 ADD MSTORE PUSH1 0x64 ADD PUSH2 0xCCA JUMP JUMPDEST PUSH1 0x0 PUSH2 0x2F06 DUP3 PUSH2 0x42BF JUMP JUMPDEST PUSH1 0x1E DUP4 ADD SLOAD SWAP1 SWAP2 POP PUSH2 0x2F18 DUP2 DUP4 PUSH2 0x5318 JUMP JUMPDEST DUP5 GT ISZERO PUSH2 0x2F7A JUMPI PUSH1 0x40 MLOAD PUSH3 0x461BCD PUSH1 0xE5 SHL DUP2 MSTORE PUSH1 0x20 PUSH1 0x4 DUP3 ADD MSTORE PUSH1 0x2A PUSH1 0x24 DUP3 ADD MSTORE PUSH32 0x506C6561736520656E7465722076616C7565206C657373207468656E20796F75 PUSH1 0x44 DUP3 ADD MSTORE PUSH10 0x39103130B630B731B297 PUSH1 0xB1 SHL PUSH1 0x64 DUP3 ADD MSTORE PUSH1 0x84 ADD PUSH2 0xCCA JUMP JUMPDEST DUP4 DUP4 PUSH1 0x1E ADD PUSH1 0x0 DUP3 DUP3 SLOAD PUSH2 0x2F8E SWAP2 SWAP1 PUSH2 0x54F6 JUMP JUMPDEST SWAP1 SWAP2 SSTORE POP CALLER SWAP1 POP PUSH2 0x8FC PUSH2 0x2FA1 DUP7 PUSH2 0x360E JUMP JUMPDEST PUSH1 0x40 MLOAD DUP2 ISZERO SWAP1 SWAP3 MUL SWAP2 PUSH1 0x0 DUP2 DUP2 DUP2 DUP6 DUP9 DUP9 CALL SWAP4 POP POP POP POP ISZERO DUP1 ISZERO PUSH2 0x2FC9 JUMPI RETURNDATASIZE PUSH1 0x0 DUP1 RETURNDATACOPY RETURNDATASIZE PUSH1 0x0 REVERT JUMPDEST POP POP POP POP POP POP JUMP JUMPDEST PUSH2 0x30DB PUSH1 0x40 MLOAD DUP1 PUSH2 0x400 ADD PUSH1 0x40 MSTORE DUP1 PUSH1 0x0 PUSH4 0xFFFFFFFF AND DUP2 MSTORE PUSH1 0x20 ADD PUSH1 0x60 DUP2 MSTORE PUSH1 0x20 ADD PUSH1 0x0 ISZERO ISZERO DUP2 MSTORE PUSH1 0x20 ADD PUSH1 0x0 PUSH1 0x1 PUSH1 0x1 PUSH1 0xA0 SHL SUB AND DUP2 MSTORE PUSH1 0x20 ADD PUSH1 0x0 DUP2 MSTORE PUSH1 0x20 ADD PUSH1 0x0 DUP2 MSTORE PUSH1 0x20 ADD PUSH1 0x0 PUSH4 0xFFFFFFFF AND DUP2 MSTORE PUSH1 0x20 ADD PUSH1 0x60 DUP2 MSTORE PUSH1 0x20 ADD PUSH1 0x60 DUP2 MSTORE PUSH1 0x20 ADD PUSH1 0x60 DUP2 MSTORE PUSH1 0x20 ADD PUSH1 0x0 DUP2 MSTORE PUSH1 0x20 ADD PUSH1 0x0 DUP2 MSTORE PUSH1 0x20 ADD PUSH1 0x0 DUP2 MSTORE PUSH1 0x20 ADD PUSH1 0x0 DUP2 MSTORE PUSH1 0x20 ADD PUSH1 0x0 DUP2 MSTORE PUSH1 0x20 ADD PUSH1 0x0 DUP2 MSTORE PUSH1 0x20 ADD PUSH1 0x0 DUP2 MSTORE PUSH1 0x20 ADD PUSH1 0x0 DUP2 MSTORE PUSH1 0x20 ADD PUSH1 0x0 PUSH1 0xFF AND DUP2 MSTORE PUSH1 0x20 ADD PUSH1 0x0 DUP2 MSTORE PUSH1 0x20 ADD PUSH1 0x0 DUP2 MSTORE PUSH1 0x20 ADD PUSH1 0x0 DUP2 MSTORE PUSH1 0x20 ADD PUSH1 0x0 DUP2 MSTORE PUSH1 0x20 ADD PUSH1 0x0 DUP2 MSTORE PUSH1 0x20 ADD PUSH1 0x0 DUP2 MSTORE PUSH1 0x20 ADD PUSH1 0x0 DUP2 MSTORE PUSH1 0x20 ADD PUSH1 0x0 DUP2 MSTORE PUSH1 0x20 ADD PUSH1 0x0 DUP2 MSTORE PUSH1 0x20 ADD PUSH1 0x60 DUP2 MSTORE PUSH1 0x20 ADD PUSH1 0x0 DUP2 MSTORE PUSH1 0x20 ADD PUSH1 0x0 DUP2 MSTORE PUSH1 0x20 ADD PUSH1 0x0 DUP2 MSTORE POP SWAP1 JUMP JUMPDEST PUSH4 0xFFFFFFFF DUP1 DUP4 AND PUSH1 0x0 SWAP1 DUP2 MSTORE PUSH1 0xDB PUSH1 0x20 SWAP1 DUP2 MSTORE PUSH1 0x40 SWAP2 DUP3 SWAP1 KECCAK256 DUP3 MLOAD PUSH2 0x400 DUP2 ADD SWAP1 SWAP4 MSTORE DUP1 SLOAD SWAP1 SWAP4 AND DUP3 MSTORE PUSH1 0x1 DUP4 ADD DUP1 SLOAD SWAP3 SWAP4 SWAP3 SWAP2 DUP5 ADD SWAP2 PUSH2 0x311C SWAP1 PUSH2 0x5430 JUMP JUMPDEST DUP1 PUSH1 0x1F ADD PUSH1 0x20 DUP1 SWAP2 DIV MUL PUSH1 0x20 ADD PUSH1 0x40 MLOAD SWAP1 DUP2 ADD PUSH1 0x40 MSTORE DUP1 SWAP3 SWAP2 SWAP1 DUP2 DUP2 MSTORE PUSH1 0x20 ADD DUP3 DUP1 SLOAD PUSH2 0x3148 SWAP1 PUSH2 0x5430 JUMP JUMPDEST DUP1 ISZERO PUSH2 0x3195 JUMPI DUP1 PUSH1 0x1F LT PUSH2 0x316A JUMPI PUSH2 0x100 DUP1 DUP4 SLOAD DIV MUL DUP4 MSTORE SWAP2 PUSH1 0x20 ADD SWAP2 PUSH2 0x3195 JUMP JUMPDEST DUP3 ADD SWAP2 SWAP1 PUSH1 0x0 MSTORE PUSH1 0x20 PUSH1 0x0 KECCAK256 SWAP1 JUMPDEST DUP2 SLOAD DUP2 MSTORE SWAP1 PUSH1 0x1 ADD SWAP1 PUSH1 0x20 ADD DUP1 DUP4 GT PUSH2 0x3178 JUMPI DUP3 SWAP1 SUB PUSH1 0x1F AND DUP3 ADD SWAP2 JUMPDEST POP POP POP SWAP2 DUP4 MSTORE POP POP PUSH1 0x2 DUP3 ADD SLOAD PUSH1 0xFF DUP2 AND ISZERO ISZERO PUSH1 0x20 DUP1 DUP5 ADD SWAP2 SWAP1 SWAP2 MSTORE PUSH2 0x100 SWAP1 SWAP2 DIV PUSH1 0x1 PUSH1 0x1 PUSH1 0xA0 SHL SUB AND PUSH1 0x40 DUP1 DUP5 ADD SWAP2 SWAP1 SWAP2 MSTORE PUSH1 0x3 DUP5 ADD SLOAD PUSH1 0x60 DUP5 ADD MSTORE PUSH1 0x4 DUP5 ADD SLOAD PUSH1 0x80 DUP5 ADD MSTORE PUSH1 0x5 DUP5 ADD SLOAD PUSH4 0xFFFFFFFF AND PUSH1 0xA0 DUP5 ADD MSTORE PUSH1 0x6 DUP5 ADD DUP1 SLOAD DUP3 MLOAD DUP2 DUP6 MUL DUP2 ADD DUP6 ADD SWAP1 SWAP4 MSTORE DUP1 DUP4 MSTORE PUSH1 0xC0 SWAP1 SWAP5 ADD SWAP4 SWAP2 SWAP3 SWAP1 SWAP2 SWAP1 DUP4 ADD DUP3 DUP3 DUP1 ISZERO PUSH2 0x3268 JUMPI PUSH1 0x20 MUL DUP3 ADD SWAP2 SWAP1 PUSH1 0x0 MSTORE PUSH1 0x20 PUSH1 0x0 KECCAK256 SWAP1 PUSH1 0x0 SWAP1 JUMPDEST DUP3 DUP3 SWAP1 SLOAD SWAP1 PUSH2 0x100 EXP SWAP1 DIV PUSH4 0xFFFFFFFF AND PUSH4 0xFFFFFFFF AND DUP2 MSTORE PUSH1 0x20 ADD SWAP1 PUSH1 0x4 ADD SWAP1 PUSH1 0x20 DUP3 PUSH1 0x3 ADD DIV SWAP3 DUP4 ADD SWAP3 PUSH1 0x1 SUB DUP3 MUL SWAP2 POP DUP1 DUP5 GT PUSH2 0x322B JUMPI SWAP1 POP JUMPDEST POP POP POP POP POP DUP2 MSTORE PUSH1 0x20 ADD PUSH1 0x7 DUP3 ADD DUP1 SLOAD DUP1 PUSH1 0x20 MUL PUSH1 0x20 ADD PUSH1 0x40 MLOAD SWAP1 DUP2 ADD PUSH1 0x40 MSTORE DUP1 SWAP3 SWAP2 SWAP1 DUP2 DUP2 MSTORE PUSH1 0x20 ADD DUP3 DUP1 SLOAD DUP1 ISZERO PUSH2 0x32EC JUMPI PUSH1 0x20 MUL DUP3 ADD SWAP2 SWAP1 PUSH1 0x0 MSTORE PUSH1 0x20 PUSH1 0x0 KECCAK256 SWAP1 PUSH1 0x0 SWAP1 JUMPDEST DUP3 DUP3 SWAP1 SLOAD SWAP1 PUSH2 0x100 EXP SWAP1 DIV PUSH4 0xFFFFFFFF AND PUSH4 0xFFFFFFFF AND DUP2 MSTORE PUSH1 0x20 ADD SWAP1 PUSH1 0x4 ADD SWAP1 PUSH1 0x20 DUP3 PUSH1 0x3 ADD DIV SWAP3 DUP4 ADD SWAP3 PUSH1 0x1 SUB DUP3 MUL SWAP2 POP DUP1 DUP5 GT PUSH2 0x32AF JUMPI SWAP1 POP JUMPDEST POP POP POP POP POP DUP2 MSTORE PUSH1 0x20 ADD PUSH1 0x8 DUP3 ADD DUP1 SLOAD DUP1 PUSH1 0x20 MUL PUSH1 0x20 ADD PUSH1 0x40 MLOAD SWAP1 DUP2 ADD PUSH1 0x40 MSTORE DUP1 SWAP3 SWAP2 SWAP1 DUP2 DUP2 MSTORE PUSH1 0x20 ADD DUP3 DUP1 SLOAD DUP1 ISZERO PUSH2 0x3370 JUMPI PUSH1 0x20 MUL DUP3 ADD SWAP2 SWAP1 PUSH1 0x0 MSTORE PUSH1 0x20 PUSH1 0x0 KECCAK256 SWAP1 PUSH1 0x0 SWAP1 JUMPDEST DUP3 DUP3 SWAP1 SLOAD SWAP1 PUSH2 0x100 EXP SWAP1 DIV PUSH4 0xFFFFFFFF AND PUSH4 0xFFFFFFFF AND DUP2 MSTORE PUSH1 0x20 ADD SWAP1 PUSH1 0x4 ADD SWAP1 PUSH1 0x20 DUP3 PUSH1 0x3 ADD DIV SWAP3 DUP4 ADD SWAP3 PUSH1 0x1 SUB DUP3 MUL SWAP2 POP DUP1 DUP5 GT PUSH2 0x3333 JUMPI SWAP1 POP JUMPDEST POP POP POP POP POP DUP2 MSTORE PUSH1 0x20 ADD PUSH1 0x9 DUP3 ADD SLOAD DUP2 MSTORE PUSH1 0x20 ADD PUSH1 0xA DUP3 ADD SLOAD DUP2 MSTORE PUSH1 0x20 ADD PUSH1 0xB DUP3 ADD SLOAD DUP2 MSTORE PUSH1 0x20 ADD PUSH1 0xC DUP3 ADD SLOAD DUP2 MSTORE PUSH1 0x20 ADD PUSH1 0xD DUP3 ADD SLOAD DUP2 MSTORE PUSH1 0x20 ADD PUSH1 0xE DUP3 ADD SLOAD DUP2 MSTORE PUSH1 0x20 ADD PUSH1 0xF DUP3 ADD SLOAD DUP2 MSTORE PUSH1 0x20 ADD PUSH1 0x10 DUP3 ADD SLOAD DUP2 MSTORE PUSH1 0x20 ADD PUSH1 0x11 DUP3 ADD PUSH1 0x0 SWAP1 SLOAD SWAP1 PUSH2 0x100 EXP SWAP1 DIV PUSH1 0xFF AND PUSH1 0xFF AND PUSH1 0xFF AND DUP2 MSTORE PUSH1 0x20 ADD PUSH1 0x12 DUP3 ADD SLOAD DUP2 MSTORE PUSH1 0x20 ADD PUSH1 0x13 DUP3 ADD SLOAD DUP2 MSTORE PUSH1 0x20 ADD PUSH1 0x14 DUP3 ADD SLOAD DUP2 MSTORE PUSH1 0x20 ADD PUSH1 0x15 DUP3 ADD SLOAD DUP2 MSTORE PUSH1 0x20 ADD PUSH1 0x16 DUP3 ADD SLOAD DUP2 MSTORE PUSH1 0x20 ADD PUSH1 0x17 DUP3 ADD SLOAD DUP2 MSTORE PUSH1 0x20 ADD PUSH1 0x18 DUP3 ADD SLOAD DUP2 MSTORE PUSH1 0x20 ADD PUSH1 0x19 DUP3 ADD SLOAD DUP2 MSTORE PUSH1 0x20 ADD PUSH1 0x1A DUP3 ADD SLOAD DUP2 MSTORE PUSH1 0x20 ADD PUSH1 0x1B DUP3 ADD DUP1 SLOAD DUP1 PUSH1 0x20 MUL PUSH1 0x20 ADD PUSH1 0x40 MLOAD SWAP1 DUP2 ADD PUSH1 0x40 MSTORE DUP1 SWAP3 SWAP2 SWAP1 DUP2 DUP2 MSTORE PUSH1 0x20 ADD DUP3 DUP1 SLOAD DUP1 ISZERO PUSH2 0x34BB JUMPI PUSH1 0x20 MUL DUP3 ADD SWAP2 SWAP1 PUSH1 0x0 MSTORE PUSH1 0x20 PUSH1 0x0 KECCAK256 SWAP1 PUSH1 0x0 SWAP1 JUMPDEST DUP3 DUP3 SWAP1 SLOAD SWAP1 PUSH2 0x100 EXP SWAP1 DIV PUSH4 0xFFFFFFFF AND PUSH4 0xFFFFFFFF AND DUP2 MSTORE PUSH1 0x20 ADD SWAP1 PUSH1 0x4 ADD SWAP1 PUSH1 0x20 DUP3 PUSH1 0x3 ADD DIV SWAP3 DUP4 ADD SWAP3 PUSH1 0x1 SUB DUP3 MUL SWAP2 POP DUP1 DUP5 GT PUSH2 0x347E JUMPI SWAP1 POP JUMPDEST POP POP POP POP POP DUP2 MSTORE PUSH1 0x20 ADD PUSH1 0x1C DUP3 ADD SLOAD DUP2 MSTORE PUSH1 0x20 ADD PUSH1 0x1D DUP3 ADD SLOAD DUP2 MSTORE PUSH1 0x20 ADD PUSH1 0x1E DUP3 ADD SLOAD DUP2 MSTORE POP POP SWAP1 POP SWAP2 SWAP1 POP JUMP JUMPDEST PUSH1 0x40 DUP1 MLOAD DUP1 DUP3 ADD SWAP1 SWAP2 MSTORE PUSH1 0x0 DUP2 MSTORE PUSH1 0x60 PUSH1 0x20 DUP3 ADD MSTORE PUSH1 0x1 PUSH1 0x1 PUSH1 0xA0 SHL SUB DUP3 AND PUSH1 0x0 SWAP1 DUP2 MSTORE PUSH1 0xDA PUSH1 0x20 SWAP1 DUP2 MSTORE PUSH1 0x40 SWAP2 DUP3 SWAP1 KECCAK256 DUP3 MLOAD DUP1 DUP5 ADD DUP5 MSTORE DUP2 SLOAD PUSH1 0xFF AND ISZERO ISZERO DUP2 MSTORE PUSH1 0x1 DUP3 ADD DUP1 SLOAD DUP6 MLOAD DUP2 DUP7 MUL DUP2 ADD DUP7 ADD SWAP1 SWAP7 MSTORE DUP1 DUP7 MSTORE SWAP2 SWAP5 SWAP3 SWAP4 DUP6 DUP2 ADD SWAP4 SWAP3 SWAP1 DUP4 ADD DUP3 DUP3 DUP1 ISZERO PUSH2 0x35A4 JUMPI PUSH1 0x20 MUL DUP3 ADD SWAP2 SWAP1 PUSH1 0x0 MSTORE PUSH1 0x20 PUSH1 0x0 KECCAK256 SWAP1 PUSH1 0x0 SWAP1 JUMPDEST DUP3 DUP3 SWAP1 SLOAD SWAP1 PUSH2 0x100 EXP SWAP1 DIV PUSH4 0xFFFFFFFF AND PUSH4 0xFFFFFFFF AND DUP2 MSTORE PUSH1 0x20 ADD SWAP1 PUSH1 0x4 ADD SWAP1 PUSH1 0x20 DUP3 PUSH1 0x3 ADD DIV SWAP3 DUP4 ADD SWAP3 PUSH1 0x1 SUB DUP3 MUL SWAP2 POP DUP1 DUP5 GT PUSH2 0x3567 JUMPI SWAP1 POP JUMPDEST POP POP POP POP POP DUP2 MSTORE POP POP SWAP1 POP SWAP2 SWAP1 POP JUMP JUMPDEST PUSH1 0x33 SLOAD PUSH1 0x1 PUSH1 0x1 PUSH1 0xA0 SHL SUB AND CALLER EQ PUSH2 0x12B5 JUMPI PUSH1 0x40 MLOAD PUSH3 0x461BCD PUSH1 0xE5 SHL DUP2 MSTORE PUSH1 0x20 PUSH1 0x4 DUP3 ADD DUP2 SWAP1 MSTORE PUSH1 0x24 DUP3 ADD MSTORE PUSH32 0x4F776E61626C653A2063616C6C6572206973206E6F7420746865206F776E6572 PUSH1 0x44 DUP3 ADD MSTORE PUSH1 0x64 ADD PUSH2 0xCCA JUMP JUMPDEST PUSH1 0x0 DUP1 PUSH1 0xC9 PUSH1 0x0 SWAP1 SLOAD SWAP1 PUSH2 0x100 EXP SWAP1 DIV PUSH1 0x1 PUSH1 0x1 PUSH1 0xA0 SHL SUB AND PUSH1 0x1 PUSH1 0x1 PUSH1 0xA0 SHL SUB AND PUSH4 0xE1AA6036 PUSH1 0x40 MLOAD DUP2 PUSH4 0xFFFFFFFF AND PUSH1 0xE0 SHL DUP2 MSTORE PUSH1 0x4 ADD PUSH1 0x20 PUSH1 0x40 MLOAD DUP1 DUP4 SUB DUP2 DUP7 GAS STATICCALL ISZERO DUP1 ISZERO PUSH2 0x3664 JUMPI RETURNDATASIZE PUSH1 0x0 DUP1 RETURNDATACOPY RETURNDATASIZE PUSH1 0x0 REVERT JUMPDEST POP POP POP POP PUSH1 0x40 MLOAD RETURNDATASIZE PUSH1 0x1F NOT PUSH1 0x1F DUP3 ADD AND DUP3 ADD DUP1 PUSH1 0x40 MSTORE POP DUP2 ADD SWAP1 PUSH2 0x3688 SWAP2 SWAP1 PUSH2 0x5520 JUMP JUMPDEST PUSH2 0x369A DUP5 PUSH8 0xDE0B6B3A7640000 PUSH2 0x548C JUMP JUMPDEST PUSH2 0x238A SWAP2 SWAP1 PUSH2 0x5539 JUMP JUMPDEST PUSH4 0xFFFFFFFF SWAP3 DUP4 AND PUSH1 0x0 DUP2 DUP2 MSTORE PUSH1 0xDC PUSH1 0x20 SWAP1 DUP2 MSTORE PUSH1 0x40 DUP1 DUP4 KECCAK256 SWAP8 DUP8 AND DUP1 DUP5 MSTORE PUSH1 0xDB DUP4 MSTORE SWAP1 DUP4 KECCAK256 DUP9 SLOAD PUSH6 0x10000000000 SWAP1 SWAP3 MUL PUSH9 0xFFFFFFFFFF00000000 NOT SWAP1 SWAP3 AND SWAP2 SWAP1 SWAP2 OR PUSH5 0x100000000 OR DUP9 SSTORE PUSH1 0x1 DUP1 DUP10 ADD SWAP7 SWAP1 SWAP7 SSTORE PUSH1 0xD1 SLOAD PUSH1 0x2 DUP10 ADD DUP1 SLOAD PUSH2 0xFFFF NOT AND PUSH2 0xFFFF PUSH1 0x1 PUSH1 0x60 SHL SWAP1 SWAP4 DIV SWAP3 SWAP1 SWAP3 AND SWAP2 SWAP1 SWAP2 OR SWAP1 SSTORE PUSH1 0x3 SWAP1 SWAP8 ADD SWAP4 SWAP1 SWAP4 SSTORE PUSH1 0x1B SWAP1 SWAP6 ADD DUP1 SLOAD SWAP4 DUP5 ADD DUP2 SSTORE DUP6 MSTORE SWAP4 KECCAK256 PUSH1 0x8 DUP3 DIV ADD DUP1 SLOAD PUSH1 0x7 SWAP1 SWAP3 AND PUSH1 0x4 MUL PUSH2 0x100 EXP SWAP4 DUP5 MUL SWAP4 SWAP1 SWAP3 MUL NOT AND SWAP2 SWAP1 SWAP2 OR SWAP1 SSTORE JUMP JUMPDEST PUSH2 0xF04 PUSH2 0x35B4 JUMP JUMPDEST PUSH32 0x4910FDFA16FED3260ED0E7147F7CC6DA11A60208B5B9406D12A635614FFD9143 SLOAD PUSH1 0xFF AND ISZERO PUSH2 0x3795 JUMPI PUSH2 0xC02 DUP4 PUSH2 0x42E3 JUMP JUMPDEST DUP3 PUSH1 0x1 PUSH1 0x1 PUSH1 0xA0 SHL SUB AND PUSH4 0x52D1902D PUSH1 0x40 MLOAD DUP2 PUSH4 0xFFFFFFFF AND PUSH1 0xE0 SHL DUP2 MSTORE PUSH1 0x4 ADD PUSH1 0x20 PUSH1 0x40 MLOAD DUP1 DUP4 SUB DUP2 DUP7 GAS STATICCALL SWAP3 POP POP POP DUP1 ISZERO PUSH2 0x37EF JUMPI POP PUSH1 0x40 DUP1 MLOAD PUSH1 0x1F RETURNDATASIZE SWAP1 DUP2 ADD PUSH1 0x1F NOT AND DUP3 ADD SWAP1 SWAP3 MSTORE PUSH2 0x37EC SWAP2 DUP2 ADD SWAP1 PUSH2 0x5520 JUMP JUMPDEST PUSH1 0x1 JUMPDEST PUSH2 0x3852 JUMPI PUSH1 0x40 MLOAD PUSH3 0x461BCD PUSH1 0xE5 SHL DUP2 MSTORE PUSH1 0x20 PUSH1 0x4 DUP3 ADD MSTORE PUSH1 0x2E PUSH1 0x24 DUP3 ADD MSTORE PUSH32 0x45524331393637557067726164653A206E657720696D706C656D656E74617469 PUSH1 0x44 DUP3 ADD MSTORE PUSH14 0x6F6E206973206E6F742055555053 PUSH1 0x90 SHL PUSH1 0x64 DUP3 ADD MSTORE PUSH1 0x84 ADD PUSH2 0xCCA JUMP JUMPDEST PUSH1 0x0 DUP1 MLOAD PUSH1 0x20 PUSH2 0x55D6 DUP4 CODECOPY DUP2 MLOAD SWAP2 MSTORE DUP2 EQ PUSH2 0x38C1 JUMPI PUSH1 0x40 MLOAD PUSH3 0x461BCD PUSH1 0xE5 SHL DUP2 MSTORE PUSH1 0x20 PUSH1 0x4 DUP3 ADD MSTORE PUSH1 0x29 PUSH1 0x24 DUP3 ADD MSTORE PUSH32 0x45524331393637557067726164653A20756E737570706F727465642070726F78 PUSH1 0x44 DUP3 ADD MSTORE PUSH9 0x1A58589B1955555251 PUSH1 0xBA SHL PUSH1 0x64 DUP3 ADD MSTORE PUSH1 0x84 ADD PUSH2 0xCCA JUMP JUMPDEST POP PUSH2 0xC02 DUP4 DUP4 DUP4 PUSH2 0x437F JUMP JUMPDEST PUSH1 0x33 DUP1 SLOAD PUSH1 0x1 PUSH1 0x1 PUSH1 0xA0 SHL SUB DUP4 DUP2 AND PUSH1 0x1 PUSH1 0x1 PUSH1 0xA0 SHL SUB NOT DUP4 AND DUP2 OR SWAP1 SWAP4 SSTORE PUSH1 0x40 MLOAD SWAP2 AND SWAP2 SWAP1 DUP3 SWAP1 PUSH32 0x8BE0079C531659141344CD1FD0A4F28419497F9722A3DAAFE3B4186F6B6457E0 SWAP1 PUSH1 0x0 SWAP1 LOG3 POP POP JUMP JUMPDEST PUSH1 0xD9 SLOAD PUSH1 0x0 SWAP1 PUSH1 0xFF AND DUP2 JUMPDEST DUP2 PUSH1 0xFF AND DUP2 PUSH1 0xFF AND LT ISZERO PUSH2 0x39C6 JUMPI PUSH1 0xFF DUP2 AND PUSH1 0x0 SWAP1 DUP2 MSTORE PUSH1 0xDD PUSH1 0x20 MSTORE PUSH1 0x40 SWAP1 KECCAK256 PUSH1 0x1 ADD SLOAD PUSH2 0x140 DUP6 ADD MLOAD LT DUP1 ISZERO SWAP1 PUSH2 0x397C JUMPI POP PUSH1 0xFF DUP2 AND PUSH1 0x0 SWAP1 DUP2 MSTORE PUSH1 0xDD PUSH1 0x20 MSTORE PUSH1 0x40 SWAP1 KECCAK256 PUSH1 0x2 ADD SLOAD PUSH2 0x180 DUP6 ADD MLOAD LT ISZERO JUMPDEST DUP1 ISZERO PUSH2 0x39A2 JUMPI POP PUSH1 0xFF DUP2 AND PUSH1 0x0 SWAP1 DUP2 MSTORE PUSH1 0xDD PUSH1 0x20 MSTORE PUSH1 0x40 SWAP1 KECCAK256 PUSH1 0x3 ADD SLOAD PUSH2 0x1C0 DUP6 ADD MLOAD LT ISZERO JUMPDEST ISZERO PUSH2 0x39AF JUMPI DUP1 SWAP3 POP PUSH2 0x39B4 JUMP JUMPDEST PUSH2 0x39C6 JUMP JUMPDEST DUP1 PUSH2 0x39BE DUP2 PUSH2 0x5356 JUMP JUMPDEST SWAP2 POP POP PUSH2 0x392A JUMP JUMPDEST POP POP SWAP2 SWAP1 POP JUMP JUMPDEST PUSH1 0x0 SLOAD PUSH2 0x100 SWAP1 DIV PUSH1 0xFF AND PUSH2 0x39F4 JUMPI PUSH1 0x40 MLOAD PUSH3 0x461BCD PUSH1 0xE5 SHL DUP2 MSTORE PUSH1 0x4 ADD PUSH2 0xCCA SWAP1 PUSH2 0x555B JUMP JUMPDEST PUSH2 0x12B5 PUSH2 0x43A4 JUMP JUMPDEST PUSH1 0x0 SLOAD PUSH2 0x100 SWAP1 DIV PUSH1 0xFF AND PUSH2 0x12B5 JUMPI PUSH1 0x40 MLOAD PUSH3 0x461BCD PUSH1 0xE5 SHL DUP2 MSTORE PUSH1 0x4 ADD PUSH2 0xCCA SWAP1 PUSH2 0x555B JUMP JUMPDEST PUSH1 0xE0 DUP2 ADD MLOAD MLOAD PUSH1 0x0 SWAP1 DUP2 DUP2 ISZERO PUSH2 0x238A JUMPI PUSH1 0xD4 SLOAD PUSH1 0x1 SWAP1 PUSH2 0x3A4D SWAP1 PUSH4 0x1000000 SWAP1 DIV PUSH1 0xFF AND DUP5 PUSH2 0x548C JUMP JUMPDEST PUSH2 0x3A57 SWAP2 SWAP1 PUSH2 0x5318 JUMP JUMPDEST SWAP5 SWAP4 POP POP POP POP JUMP JUMPDEST PUSH4 0xFFFFFFFF DUP1 DUP3 AND PUSH1 0x0 SWAP1 DUP2 MSTORE PUSH1 0xDB PUSH1 0x20 SWAP1 DUP2 MSTORE PUSH1 0x40 DUP1 DUP4 KECCAK256 DUP2 MLOAD PUSH2 0x400 DUP2 ADD SWAP1 SWAP3 MSTORE DUP1 SLOAD SWAP1 SWAP5 AND DUP2 MSTORE PUSH1 0x1 DUP5 ADD DUP1 SLOAD SWAP4 SWAP5 DUP6 SWAP5 SWAP3 SWAP4 SWAP1 SWAP3 SWAP1 DUP5 ADD SWAP2 SWAP1 PUSH2 0x3AA5 SWAP1 PUSH2 0x5430 JUMP JUMPDEST DUP1 PUSH1 0x1F ADD PUSH1 0x20 DUP1 SWAP2 DIV MUL PUSH1 0x20 ADD PUSH1 0x40 MLOAD SWAP1 DUP2 ADD PUSH1 0x40 MSTORE DUP1 SWAP3 SWAP2 SWAP1 DUP2 DUP2 MSTORE PUSH1 0x20 ADD DUP3 DUP1 SLOAD PUSH2 0x3AD1 SWAP1 PUSH2 0x5430 JUMP JUMPDEST DUP1 ISZERO PUSH2 0x3B1E JUMPI DUP1 PUSH1 0x1F LT PUSH2 0x3AF3 JUMPI PUSH2 0x100 DUP1 DUP4 SLOAD DIV MUL DUP4 MSTORE SWAP2 PUSH1 0x20 ADD SWAP2 PUSH2 0x3B1E JUMP JUMPDEST DUP3 ADD SWAP2 SWAP1 PUSH1 0x0 MSTORE PUSH1 0x20 PUSH1 0x0 KECCAK256 SWAP1 JUMPDEST DUP2 SLOAD DUP2 MSTORE SWAP1 PUSH1 0x1 ADD SWAP1 PUSH1 0x20 ADD DUP1 DUP4 GT PUSH2 0x3B01 JUMPI DUP3 SWAP1 SUB PUSH1 0x1F AND DUP3 ADD SWAP2 JUMPDEST POP POP POP SWAP2 DUP4 MSTORE POP POP PUSH1 0x2 DUP3 ADD SLOAD PUSH1 0xFF DUP2 AND ISZERO ISZERO PUSH1 0x20 DUP1 DUP5 ADD SWAP2 SWAP1 SWAP2 MSTORE PUSH2 0x100 SWAP1 SWAP2 DIV PUSH1 0x1 PUSH1 0x1 PUSH1 0xA0 SHL SUB AND PUSH1 0x40 DUP1 DUP5 ADD SWAP2 SWAP1 SWAP2 MSTORE PUSH1 0x3 DUP5 ADD SLOAD PUSH1 0x60 DUP5 ADD MSTORE PUSH1 0x4 DUP5 ADD SLOAD PUSH1 0x80 DUP5 ADD MSTORE PUSH1 0x5 DUP5 ADD SLOAD PUSH4 0xFFFFFFFF AND PUSH1 0xA0 DUP5 ADD MSTORE PUSH1 0x6 DUP5 ADD DUP1 SLOAD DUP3 MLOAD DUP2 DUP6 MUL DUP2 ADD DUP6 ADD SWAP1 SWAP4 MSTORE DUP1 DUP4 MSTORE PUSH1 0xC0 SWAP1 SWAP5 ADD SWAP4 SWAP2 SWAP3 SWAP1 SWAP2 SWAP1 DUP4 ADD DUP3 DUP3 DUP1 ISZERO PUSH2 0x3BF1 JUMPI PUSH1 0x20 MUL DUP3 ADD SWAP2 SWAP1 PUSH1 0x0 MSTORE PUSH1 0x20 PUSH1 0x0 KECCAK256 SWAP1 PUSH1 0x0 SWAP1 JUMPDEST DUP3 DUP3 SWAP1 SLOAD SWAP1 PUSH2 0x100 EXP SWAP1 DIV PUSH4 0xFFFFFFFF AND PUSH4 0xFFFFFFFF AND DUP2 MSTORE PUSH1 0x20 ADD SWAP1 PUSH1 0x4 ADD SWAP1 PUSH1 0x20 DUP3 PUSH1 0x3 ADD DIV SWAP3 DUP4 ADD SWAP3 PUSH1 0x1 SUB DUP3 MUL SWAP2 POP DUP1 DUP5 GT PUSH2 0x3BB4 JUMPI SWAP1 POP JUMPDEST POP POP POP POP POP DUP2 MSTORE PUSH1 0x20 ADD PUSH1 0x7 DUP3 ADD DUP1 SLOAD DUP1 PUSH1 0x20 MUL PUSH1 0x20 ADD PUSH1 0x40 MLOAD SWAP1 DUP2 ADD PUSH1 0x40 MSTORE DUP1 SWAP3 SWAP2 SWAP1 DUP2 DUP2 MSTORE PUSH1 0x20 ADD DUP3 DUP1 SLOAD DUP1 ISZERO PUSH2 0x3C75 JUMPI PUSH1 0x20 MUL DUP3 ADD SWAP2 SWAP1 PUSH1 0x0 MSTORE PUSH1 0x20 PUSH1 0x0 KECCAK256 SWAP1 PUSH1 0x0 SWAP1 JUMPDEST DUP3 DUP3 SWAP1 SLOAD SWAP1 PUSH2 0x100 EXP SWAP1 DIV PUSH4 0xFFFFFFFF AND PUSH4 0xFFFFFFFF AND DUP2 MSTORE PUSH1 0x20 ADD SWAP1 PUSH1 0x4 ADD SWAP1 PUSH1 0x20 DUP3 PUSH1 0x3 ADD DIV SWAP3 DUP4 ADD SWAP3 PUSH1 0x1 SUB DUP3 MUL SWAP2 POP DUP1 DUP5 GT PUSH2 0x3C38 JUMPI SWAP1 POP JUMPDEST POP POP POP POP POP DUP2 MSTORE PUSH1 0x20 ADD PUSH1 0x8 DUP3 ADD DUP1 SLOAD DUP1 PUSH1 0x20 MUL PUSH1 0x20 ADD PUSH1 0x40 MLOAD SWAP1 DUP2 ADD PUSH1 0x40 MSTORE DUP1 SWAP3 SWAP2 SWAP1 DUP2 DUP2 MSTORE PUSH1 0x20 ADD DUP3 DUP1 SLOAD DUP1 ISZERO PUSH2 0x3CF9 JUMPI PUSH1 0x20 MUL DUP3 ADD SWAP2 SWAP1 PUSH1 0x0 MSTORE PUSH1 0x20 PUSH1 0x0 KECCAK256 SWAP1 PUSH1 0x0 SWAP1 JUMPDEST DUP3 DUP3 SWAP1 SLOAD SWAP1 PUSH2 0x100 EXP SWAP1 DIV PUSH4 0xFFFFFFFF AND PUSH4 0xFFFFFFFF AND DUP2 MSTORE PUSH1 0x20 ADD SWAP1 PUSH1 0x4 ADD SWAP1 PUSH1 0x20 DUP3 PUSH1 0x3 ADD DIV SWAP3 DUP4 ADD SWAP3 PUSH1 0x1 SUB DUP3 MUL SWAP2 POP DUP1 DUP5 GT PUSH2 0x3CBC JUMPI SWAP1 POP JUMPDEST POP POP POP POP POP DUP2 MSTORE PUSH1 0x20 ADD PUSH1 0x9 DUP3 ADD SLOAD DUP2 MSTORE PUSH1 0x20 ADD PUSH1 0xA DUP3 ADD SLOAD DUP2 MSTORE PUSH1 0x20 ADD PUSH1 0xB DUP3 ADD SLOAD DUP2 MSTORE PUSH1 0x20 ADD PUSH1 0xC DUP3 ADD SLOAD DUP2 MSTORE PUSH1 0x20 ADD PUSH1 0xD DUP3 ADD SLOAD DUP2 MSTORE PUSH1 0x20 ADD PUSH1 0xE DUP3 ADD SLOAD DUP2 MSTORE PUSH1 0x20 ADD PUSH1 0xF DUP3 ADD SLOAD DUP2 MSTORE PUSH1 0x20 ADD PUSH1 0x10 DUP3 ADD SLOAD DUP2 MSTORE PUSH1 0x20 ADD PUSH1 0x11 DUP3 ADD PUSH1 0x0 SWAP1 SLOAD SWAP1 PUSH2 0x100 EXP SWAP1 DIV PUSH1 0xFF AND PUSH1 0xFF AND PUSH1 0xFF AND DUP2 MSTORE PUSH1 0x20 ADD PUSH1 0x12 DUP3 ADD SLOAD DUP2 MSTORE PUSH1 0x20 ADD PUSH1 0x13 DUP3 ADD SLOAD DUP2 MSTORE PUSH1 0x20 ADD PUSH1 0x14 DUP3 ADD SLOAD DUP2 MSTORE PUSH1 0x20 ADD PUSH1 0x15 DUP3 ADD SLOAD DUP2 MSTORE PUSH1 0x20 ADD PUSH1 0x16 DUP3 ADD SLOAD DUP2 MSTORE PUSH1 0x20 ADD PUSH1 0x17 DUP3 ADD SLOAD DUP2 MSTORE PUSH1 0x20 ADD PUSH1 0x18 DUP3 ADD SLOAD DUP2 MSTORE PUSH1 0x20 ADD PUSH1 0x19 DUP3 ADD SLOAD DUP2 MSTORE PUSH1 0x20 ADD PUSH1 0x1A DUP3 ADD SLOAD DUP2 MSTORE PUSH1 0x20 ADD PUSH1 0x1B DUP3 ADD DUP1 SLOAD DUP1 PUSH1 0x20 MUL PUSH1 0x20 ADD PUSH1 0x40 MLOAD SWAP1 DUP2 ADD PUSH1 0x40 MSTORE DUP1 SWAP3 SWAP2 SWAP1 DUP2 DUP2 MSTORE PUSH1 0x20 ADD DUP3 DUP1 SLOAD DUP1 ISZERO PUSH2 0x3E44 JUMPI PUSH1 0x20 MUL DUP3 ADD SWAP2 SWAP1 PUSH1 0x0 MSTORE PUSH1 0x20 PUSH1 0x0 KECCAK256 SWAP1 PUSH1 0x0 SWAP1 JUMPDEST DUP3 DUP3 SWAP1 SLOAD SWAP1 PUSH2 0x100 EXP SWAP1 DIV PUSH4 0xFFFFFFFF AND PUSH4 0xFFFFFFFF AND DUP2 MSTORE PUSH1 0x20 ADD SWAP1 PUSH1 0x4 ADD SWAP1 PUSH1 0x20 DUP3 PUSH1 0x3 ADD DIV SWAP3 DUP4 ADD SWAP3 PUSH1 0x1 SUB DUP3 MUL SWAP2 POP DUP1 DUP5 GT PUSH2 0x3E07 JUMPI SWAP1 POP JUMPDEST POP POP POP SWAP2 DUP4 MSTORE POP POP PUSH1 0x1C DUP3 ADD SLOAD PUSH1 0x20 DUP3 ADD MSTORE PUSH1 0x1D DUP3 ADD SLOAD PUSH1 0x40 DUP3 ADD MSTORE PUSH1 0x1E SWAP1 SWAP2 ADD SLOAD PUSH1 0x60 SWAP1 SWAP2 ADD MSTORE PUSH2 0x380 DUP2 ADD MLOAD DUP1 MLOAD PUSH2 0x2C0 DUP4 ADD MLOAD SWAP3 SWAP4 POP SWAP1 SWAP2 PUSH2 0x3E8A SWAP1 PUSH1 0x2 PUSH2 0x548C JUMP JUMPDEST DUP4 PUSH2 0x2E0 ADD MLOAD LT DUP1 ISZERO PUSH2 0x3E9D JUMPI POP PUSH1 0x0 DUP2 GT JUMPDEST ISZERO PUSH2 0x3F92 JUMPI PUSH1 0x0 JUMPDEST DUP2 DUP2 PUSH2 0xFFFF AND LT ISZERO PUSH2 0x3F8C JUMPI PUSH1 0x0 PUSH1 0xDC PUSH1 0x0 DUP6 DUP5 PUSH2 0xFFFF AND DUP2 MLOAD DUP2 LT PUSH2 0x3ECD JUMPI PUSH2 0x3ECD PUSH2 0x52EC JUMP JUMPDEST PUSH1 0x20 MUL PUSH1 0x20 ADD ADD MLOAD PUSH4 0xFFFFFFFF AND PUSH4 0xFFFFFFFF AND DUP2 MSTORE PUSH1 0x20 ADD SWAP1 DUP2 MSTORE PUSH1 0x20 ADD PUSH1 0x0 KECCAK256 SWAP1 POP DUP1 PUSH1 0x0 ADD PUSH1 0x4 SWAP1 SLOAD SWAP1 PUSH2 0x100 EXP SWAP1 DIV PUSH1 0xFF AND ISZERO PUSH2 0x3F79 JUMPI PUSH1 0xCB SLOAD PUSH1 0xD1 SLOAD PUSH1 0x1 DUP4 ADD SLOAD PUSH1 0x0 SWAP3 PUSH2 0xFFFF SWAP1 DUP2 AND SWAP3 PUSH2 0x3F32 SWAP3 PUSH1 0x1 PUSH1 0x60 SHL SWAP1 SWAP2 DIV SWAP1 SWAP2 AND SWAP1 PUSH2 0x548C JUMP JUMPDEST PUSH2 0x3F3C SWAP2 SWAP1 PUSH2 0x5539 JUMP JUMPDEST SWAP1 POP PUSH1 0x0 DUP3 PUSH1 0x3 ADD SLOAD TIMESTAMP PUSH2 0x3F50 SWAP2 SWAP1 PUSH2 0x5318 JUMP JUMPDEST SWAP1 POP PUSH3 0x15180 PUSH2 0x3F60 DUP3 DUP5 PUSH2 0x548C JUMP JUMPDEST PUSH2 0x3F6A SWAP2 SWAP1 PUSH2 0x5539 JUMP JUMPDEST PUSH2 0x3F74 SWAP1 DUP10 PUSH2 0x54F6 JUMP JUMPDEST SWAP8 POP POP POP JUMPDEST POP DUP1 PUSH2 0x3F84 DUP2 PUSH2 0x5509 JUMP JUMPDEST SWAP2 POP POP PUSH2 0x3EA5 JUMP JUMPDEST POP PUSH2 0x3F97 JUMP JUMPDEST PUSH1 0x0 SWAP4 POP JUMPDEST POP POP POP SWAP2 SWAP1 POP JUMP JUMPDEST PUSH1 0x0 DUP1 PUSH8 0xDE0B6B3A7640000 PUSH1 0xC9 PUSH1 0x0 SWAP1 SLOAD SWAP1 PUSH2 0x100 EXP SWAP1 DIV PUSH1 0x1 PUSH1 0x1 PUSH1 0xA0 SHL SUB AND PUSH1 0x1 PUSH1 0x1 PUSH1 0xA0 SHL SUB AND PUSH4 0xE1AA6036 PUSH1 0x40 MLOAD DUP2 PUSH4 0xFFFFFFFF AND PUSH1 0xE0 SHL DUP2 MSTORE PUSH1 0x4 ADD PUSH1 0x20 PUSH1 0x40 MLOAD DUP1 DUP4 SUB DUP2 DUP7 GAS STATICCALL ISZERO DUP1 ISZERO PUSH2 0x3FFE JUMPI RETURNDATASIZE PUSH1 0x0 DUP1 RETURNDATACOPY RETURNDATASIZE PUSH1 0x0 REVERT JUMPDEST POP POP POP POP PUSH1 0x40 MLOAD RETURNDATASIZE PUSH1 0x1F NOT PUSH1 0x1F DUP3 ADD AND DUP3 ADD DUP1 PUSH1 0x40 MSTORE POP DUP2 ADD SWAP1 PUSH2 0x4022 SWAP2 SWAP1 PUSH2 0x5520 JUMP JUMPDEST PUSH2 0x369A SWAP1 DUP6 PUSH2 0x548C JUMP JUMPDEST PUSH4 0xFFFFFFFF DUP6 DUP2 AND PUSH1 0x0 DUP2 DUP2 MSTORE PUSH1 0xDB PUSH1 0x20 MSTORE PUSH1 0x40 SWAP1 KECCAK256 DUP1 SLOAD PUSH4 0xFFFFFFFF NOT SWAP1 DUP2 AND SWAP1 SWAP3 OR DUP2 SSTORE PUSH1 0x2 DUP2 ADD DUP1 SLOAD PUSH1 0x1 PUSH1 0x1 PUSH1 0xA8 SHL SUB NOT AND PUSH2 0x100 PUSH1 0x1 PUSH1 0x1 PUSH1 0xA0 SHL SUB DUP13 AND MUL OR PUSH1 0x1 OR SWAP1 SSTORE PUSH1 0x3 DUP1 DUP3 ADD DUP7 SWAP1 SSTORE PUSH1 0x5 DUP3 ADD DUP1 SLOAD SWAP1 SWAP4 AND SWAP4 DUP9 AND SWAP4 SWAP1 SWAP4 OR SWAP1 SWAP2 SSTORE SWAP1 PUSH2 0x409D SWAP1 DUP6 SWAP1 PUSH2 0x548C JUMP JUMPDEST DUP2 PUSH1 0x17 ADD PUSH1 0x0 DUP3 DUP3 SLOAD PUSH2 0x40B0 SWAP2 SWAP1 PUSH2 0x54F6 JUMP JUMPDEST SWAP3 POP POP DUP2 SWAP1 SSTORE POP DUP4 DUP2 PUSH1 0x9 ADD PUSH1 0x0 DUP3 DUP3 SLOAD PUSH2 0x40CB SWAP2 SWAP1 PUSH2 0x54F6 JUMP JUMPDEST SWAP3 POP POP DUP2 SWAP1 SSTORE POP DUP4 DUP2 PUSH1 0x15 ADD PUSH1 0x0 DUP3 DUP3 SLOAD PUSH2 0x40E6 SWAP2 SWAP1 PUSH2 0x54F6 JUMP JUMPDEST SWAP1 SWAP2 SSTORE POP POP PUSH1 0x19 DUP2 ADD DUP4 SWAP1 SSTORE PUSH1 0x0 JUMPDEST DUP3 DUP2 PUSH1 0xFF AND LT ISZERO PUSH2 0x4278 JUMPI PUSH1 0x5 DUP3 ADD SLOAD PUSH4 0xFFFFFFFF SWAP1 DUP2 AND PUSH1 0x0 DUP2 DUP2 MSTORE PUSH1 0xDB PUSH1 0x20 MSTORE PUSH1 0x40 DUP2 KECCAK256 DUP1 SLOAD SWAP3 SWAP4 SWAP1 SWAP3 AND SWAP1 SUB PUSH2 0x412F JUMPI POP POP PUSH2 0x4278 JUMP JUMPDEST DUP3 PUSH1 0xFF AND PUSH1 0x0 SUB PUSH2 0x4193 JUMPI DUP7 DUP2 PUSH1 0xB ADD PUSH1 0x0 DUP3 DUP3 SLOAD PUSH2 0x414E SWAP2 SWAP1 PUSH2 0x54F6 JUMP JUMPDEST SWAP1 SWAP2 SSTORE POP POP PUSH1 0x6 DUP2 ADD DUP1 SLOAD PUSH1 0x1 DUP2 ADD DUP3 SSTORE PUSH1 0x0 SWAP2 DUP3 MSTORE PUSH1 0x20 SWAP1 SWAP2 KECCAK256 PUSH1 0x8 DUP3 DIV ADD DUP1 SLOAD PUSH1 0x7 SWAP1 SWAP3 AND PUSH1 0x4 MUL PUSH2 0x100 EXP PUSH4 0xFFFFFFFF DUP2 DUP2 MUL NOT SWAP1 SWAP4 AND SWAP3 DUP13 AND MUL SWAP2 SWAP1 SWAP2 OR SWAP1 SSTORE JUMPDEST DUP7 DUP2 PUSH1 0xD ADD PUSH1 0x0 DUP3 DUP3 SLOAD PUSH2 0x41A7 SWAP2 SWAP1 PUSH2 0x54F6 JUMP JUMPDEST SWAP1 SWAP2 SSTORE POP POP PUSH1 0x7 DUP2 DUP2 ADD DUP1 SLOAD PUSH1 0x1 DUP2 ADD DUP3 SSTORE PUSH1 0x0 SWAP2 DUP3 MSTORE PUSH1 0x20 SWAP2 DUP3 SWAP1 KECCAK256 PUSH1 0x8 DUP3 DIV ADD DUP1 SLOAD SWAP2 SWAP1 SWAP4 AND PUSH1 0x4 MUL PUSH2 0x100 SWAP1 DUP2 EXP PUSH4 0xFFFFFFFF DUP2 DUP2 MUL NOT SWAP1 SWAP4 AND DUP15 DUP5 AND SWAP2 DUP3 MUL OR SWAP1 SWAP5 SSTORE PUSH1 0x2 DUP6 ADD SLOAD PUSH1 0x5 DUP10 ADD SLOAD PUSH1 0x40 MLOAD SWAP1 DUP5 AND DUP2 MSTORE SWAP3 DUP14 AND SWAP4 SWAP2 SWAP1 DIV PUSH1 0x1 PUSH1 0x1 PUSH1 0xA0 SHL SUB AND SWAP2 PUSH32 0xA7FAFC728EC30E34DC1E1276496BF3EB44CA7494679DA969455289E6A8F0F1F6 SWAP2 ADD PUSH1 0x40 MLOAD DUP1 SWAP2 SUB SWAP1 LOG4 PUSH1 0xD4 SLOAD PUSH2 0x100 SWAP1 DIV PUSH1 0xFF AND ISZERO PUSH2 0x4258 JUMPI PUSH2 0x4258 DUP2 DUP4 DUP10 DUP10 PUSH2 0x43D4 JUMP JUMPDEST PUSH2 0x4262 DUP8 DUP8 PUSH2 0x4A78 JUMP JUMPDEST SWAP3 POP DUP2 SWAP1 POP PUSH2 0x4270 DUP2 PUSH2 0x5356 JUMP JUMPDEST SWAP2 POP POP PUSH2 0x40F5 JUMP JUMPDEST POP PUSH1 0xD1 DUP1 SLOAD PUSH5 0x100000000 SWAP1 DIV PUSH4 0xFFFFFFFF AND SWAP1 PUSH1 0x4 PUSH2 0x4297 DUP4 PUSH2 0x5375 JUMP JUMPDEST SWAP2 SWAP1 PUSH2 0x100 EXP DUP2 SLOAD DUP2 PUSH4 0xFFFFFFFF MUL NOT AND SWAP1 DUP4 PUSH4 0xFFFFFFFF AND MUL OR SWAP1 SSTORE POP POP POP POP POP POP POP POP POP JUMP JUMPDEST PUSH1 0x0 DUP2 PUSH1 0x17 ADD SLOAD DUP3 PUSH1 0x16 ADD SLOAD LT ISZERO PUSH2 0x42DB JUMPI DUP2 PUSH1 0x16 ADD SLOAD PUSH2 0x239C JUMP JUMPDEST POP PUSH1 0x17 ADD SLOAD SWAP1 JUMP JUMPDEST PUSH1 0x1 PUSH1 0x1 PUSH1 0xA0 SHL SUB DUP2 AND EXTCODESIZE PUSH2 0x4350 JUMPI PUSH1 0x40 MLOAD PUSH3 0x461BCD PUSH1 0xE5 SHL DUP2 MSTORE PUSH1 0x20 PUSH1 0x4 DUP3 ADD MSTORE PUSH1 0x2D PUSH1 0x24 DUP3 ADD MSTORE PUSH32 0x455243313936373A206E657720696D706C656D656E746174696F6E206973206E PUSH1 0x44 DUP3 ADD MSTORE PUSH13 0x1BDD08184818DBDB9D1C9858DD PUSH1 0x9A SHL PUSH1 0x64 DUP3 ADD MSTORE PUSH1 0x84 ADD PUSH2 0xCCA JUMP JUMPDEST PUSH1 0x0 DUP1 MLOAD PUSH1 0x20 PUSH2 0x55D6 DUP4 CODECOPY DUP2 MLOAD SWAP2 MSTORE DUP1 SLOAD PUSH1 0x1 PUSH1 0x1 PUSH1 0xA0 SHL SUB NOT AND PUSH1 0x1 PUSH1 0x1 PUSH1 0xA0 SHL SUB SWAP3 SWAP1 SWAP3 AND SWAP2 SWAP1 SWAP2 OR SWAP1 SSTORE JUMP JUMPDEST PUSH2 0x4388 DUP4 PUSH2 0x4AB2 JUMP JUMPDEST PUSH1 0x0 DUP3 MLOAD GT DUP1 PUSH2 0x4395 JUMPI POP DUP1 JUMPDEST ISZERO PUSH2 0xC02 JUMPI PUSH2 0xECA DUP4 DUP4 PUSH2 0x4AF2 JUMP JUMPDEST PUSH1 0x0 SLOAD PUSH2 0x100 SWAP1 DIV PUSH1 0xFF AND PUSH2 0x43CB JUMPI PUSH1 0x40 MLOAD PUSH3 0x461BCD PUSH1 0xE5 SHL DUP2 MSTORE PUSH1 0x4 ADD PUSH2 0xCCA SWAP1 PUSH2 0x555B JUMP JUMPDEST PUSH2 0x12B5 CALLER PUSH2 0x38CD JUMP JUMPDEST PUSH1 0x11 DUP5 ADD SLOAD PUSH1 0x40 DUP1 MLOAD PUSH2 0x400 DUP2 ADD SWAP1 SWAP2 MSTORE DUP6 SLOAD PUSH4 0xFFFFFFFF AND DUP2 MSTORE PUSH1 0x1 DUP7 ADD DUP1 SLOAD PUSH1 0xFF SWAP1 SWAP4 AND SWAP3 PUSH2 0x47DC SWAP3 SWAP2 DUP9 SWAP2 PUSH1 0x20 DUP5 ADD SWAP2 SWAP1 PUSH2 0x4411 SWAP1 PUSH2 0x5430 JUMP JUMPDEST DUP1 PUSH1 0x1F ADD PUSH1 0x20 DUP1 SWAP2 DIV MUL PUSH1 0x20 ADD PUSH1 0x40 MLOAD SWAP1 DUP2 ADD PUSH1 0x40 MSTORE DUP1 SWAP3 SWAP2 SWAP1 DUP2 DUP2 MSTORE PUSH1 0x20 ADD DUP3 DUP1 SLOAD PUSH2 0x443D SWAP1 PUSH2 0x5430 JUMP JUMPDEST DUP1 ISZERO PUSH2 0x448A JUMPI DUP1 PUSH1 0x1F LT PUSH2 0x445F JUMPI PUSH2 0x100 DUP1 DUP4 SLOAD DIV MUL DUP4 MSTORE SWAP2 PUSH1 0x20 ADD SWAP2 PUSH2 0x448A JUMP JUMPDEST DUP3 ADD SWAP2 SWAP1 PUSH1 0x0 MSTORE PUSH1 0x20 PUSH1 0x0 KECCAK256 SWAP1 JUMPDEST DUP2 SLOAD DUP2 MSTORE SWAP1 PUSH1 0x1 ADD SWAP1 PUSH1 0x20 ADD DUP1 DUP4 GT PUSH2 0x446D JUMPI DUP3 SWAP1 SUB PUSH1 0x1F AND DUP3 ADD SWAP2 JUMPDEST POP POP POP SWAP2 DUP4 MSTORE POP POP PUSH1 0x2 DUP3 ADD SLOAD PUSH1 0xFF DUP2 AND ISZERO ISZERO PUSH1 0x20 DUP1 DUP5 ADD SWAP2 SWAP1 SWAP2 MSTORE PUSH2 0x100 SWAP1 SWAP2 DIV PUSH1 0x1 PUSH1 0x1 PUSH1 0xA0 SHL SUB AND PUSH1 0x40 DUP1 DUP5 ADD SWAP2 SWAP1 SWAP2 MSTORE PUSH1 0x3 DUP5 ADD SLOAD PUSH1 0x60 DUP5 ADD MSTORE PUSH1 0x4 DUP5 ADD SLOAD PUSH1 0x80 DUP5 ADD MSTORE PUSH1 0x5 DUP5 ADD SLOAD PUSH4 0xFFFFFFFF AND PUSH1 0xA0 DUP5 ADD MSTORE PUSH1 0x6 DUP5 ADD DUP1 SLOAD DUP3 MLOAD DUP2 DUP6 MUL DUP2 ADD DUP6 ADD SWAP1 SWAP4 MSTORE DUP1 DUP4 MSTORE PUSH1 0xC0 SWAP1 SWAP5 ADD SWAP4 SWAP2 SWAP3 SWAP1 SWAP2 SWAP1 DUP4 ADD DUP3 DUP3 DUP1 ISZERO PUSH2 0x455D JUMPI PUSH1 0x20 MUL DUP3 ADD SWAP2 SWAP1 PUSH1 0x0 MSTORE PUSH1 0x20 PUSH1 0x0 KECCAK256 SWAP1 PUSH1 0x0 SWAP1 JUMPDEST DUP3 DUP3 SWAP1 SLOAD SWAP1 PUSH2 0x100 EXP SWAP1 DIV PUSH4 0xFFFFFFFF AND PUSH4 0xFFFFFFFF AND DUP2 MSTORE PUSH1 0x20 ADD SWAP1 PUSH1 0x4 ADD SWAP1 PUSH1 0x20 DUP3 PUSH1 0x3 ADD DIV SWAP3 DUP4 ADD SWAP3 PUSH1 0x1 SUB DUP3 MUL SWAP2 POP DUP1 DUP5 GT PUSH2 0x4520 JUMPI SWAP1 POP JUMPDEST POP POP POP POP POP DUP2 MSTORE PUSH1 0x20 ADD PUSH1 0x7 DUP3 ADD DUP1 SLOAD DUP1 PUSH1 0x20 MUL PUSH1 0x20 ADD PUSH1 0x40 MLOAD SWAP1 DUP2 ADD PUSH1 0x40 MSTORE DUP1 SWAP3 SWAP2 SWAP1 DUP2 DUP2 MSTORE PUSH1 0x20 ADD DUP3 DUP1 SLOAD DUP1 ISZERO PUSH2 0x45E1 JUMPI PUSH1 0x20 MUL DUP3 ADD SWAP2 SWAP1 PUSH1 0x0 MSTORE PUSH1 0x20 PUSH1 0x0 KECCAK256 SWAP1 PUSH1 0x0 SWAP1 JUMPDEST DUP3 DUP3 SWAP1 SLOAD SWAP1 PUSH2 0x100 EXP SWAP1 DIV PUSH4 0xFFFFFFFF AND PUSH4 0xFFFFFFFF AND DUP2 MSTORE PUSH1 0x20 ADD SWAP1 PUSH1 0x4 ADD SWAP1 PUSH1 0x20 DUP3 PUSH1 0x3 ADD DIV SWAP3 DUP4 ADD SWAP3 PUSH1 0x1 SUB DUP3 MUL SWAP2 POP DUP1 DUP5 GT PUSH2 0x45A4 JUMPI SWAP1 POP JUMPDEST POP POP POP POP POP DUP2 MSTORE PUSH1 0x20 ADD PUSH1 0x8 DUP3 ADD DUP1 SLOAD DUP1 PUSH1 0x20 MUL PUSH1 0x20 ADD PUSH1 0x40 MLOAD SWAP1 DUP2 ADD PUSH1 0x40 MSTORE DUP1 SWAP3 SWAP2 SWAP1 DUP2 DUP2 MSTORE PUSH1 0x20 ADD DUP3 DUP1 SLOAD DUP1 ISZERO PUSH2 0x4665 JUMPI PUSH1 0x20 MUL DUP3 ADD SWAP2 SWAP1 PUSH1 0x0 MSTORE PUSH1 0x20 PUSH1 0x0 KECCAK256 SWAP1 PUSH1 0x0 SWAP1 JUMPDEST DUP3 DUP3 SWAP1 SLOAD SWAP1 PUSH2 0x100 EXP SWAP1 DIV PUSH4 0xFFFFFFFF AND PUSH4 0xFFFFFFFF AND DUP2 MSTORE PUSH1 0x20 ADD SWAP1 PUSH1 0x4 ADD SWAP1 PUSH1 0x20 DUP3 PUSH1 0x3 ADD DIV SWAP3 DUP4 ADD SWAP3 PUSH1 0x1 SUB DUP3 MUL SWAP2 POP DUP1 DUP5 GT PUSH2 0x4628 JUMPI SWAP1 POP JUMPDEST POP POP POP POP POP DUP2 MSTORE PUSH1 0x20 ADD PUSH1 0x9 DUP3 ADD SLOAD DUP2 MSTORE PUSH1 0x20 ADD PUSH1 0xA DUP3 ADD SLOAD DUP2 MSTORE PUSH1 0x20 ADD PUSH1 0xB DUP3 ADD SLOAD DUP2 MSTORE PUSH1 0x20 ADD PUSH1 0xC DUP3 ADD SLOAD DUP2 MSTORE PUSH1 0x20 ADD PUSH1 0xD DUP3 ADD SLOAD DUP2 MSTORE PUSH1 0x20 ADD PUSH1 0xE DUP3 ADD SLOAD DUP2 MSTORE PUSH1 0x20 ADD PUSH1 0xF DUP3 ADD SLOAD DUP2 MSTORE PUSH1 0x20 ADD PUSH1 0x10 DUP3 ADD SLOAD DUP2 MSTORE PUSH1 0x20 ADD PUSH1 0x11 DUP3 ADD PUSH1 0x0 SWAP1 SLOAD SWAP1 PUSH2 0x100 EXP SWAP1 DIV PUSH1 0xFF AND PUSH1 0xFF AND PUSH1 0xFF AND DUP2 MSTORE PUSH1 0x20 ADD PUSH1 0x12 DUP3 ADD SLOAD DUP2 MSTORE PUSH1 0x20 ADD PUSH1 0x13 DUP3 ADD SLOAD DUP2 MSTORE PUSH1 0x20 ADD PUSH1 0x14 DUP3 ADD SLOAD DUP2 MSTORE PUSH1 0x20 ADD PUSH1 0x15 DUP3 ADD SLOAD DUP2 MSTORE PUSH1 0x20 ADD PUSH1 0x16 DUP3 ADD SLOAD DUP2 MSTORE PUSH1 0x20 ADD PUSH1 0x17 DUP3 ADD SLOAD DUP2 MSTORE PUSH1 0x20 ADD PUSH1 0x18 DUP3 ADD SLOAD DUP2 MSTORE PUSH1 0x20 ADD PUSH1 0x19 DUP3 ADD SLOAD DUP2 MSTORE PUSH1 0x20 ADD PUSH1 0x1A DUP3 ADD SLOAD DUP2 MSTORE PUSH1 0x20 ADD PUSH1 0x1B DUP3 ADD DUP1 SLOAD DUP1 PUSH1 0x20 MUL PUSH1 0x20 ADD PUSH1 0x40 MLOAD SWAP1 DUP2 ADD PUSH1 0x40 MSTORE DUP1 SWAP3 SWAP2 SWAP1 DUP2 DUP2 MSTORE PUSH1 0x20 ADD DUP3 DUP1 SLOAD DUP1 ISZERO PUSH2 0x47B0 JUMPI PUSH1 0x20 MUL DUP3 ADD SWAP2 SWAP1 PUSH1 0x0 MSTORE PUSH1 0x20 PUSH1 0x0 KECCAK256 SWAP1 PUSH1 0x0 SWAP1 JUMPDEST DUP3 DUP3 SWAP1 SLOAD SWAP1 PUSH2 0x100 EXP SWAP1 DIV PUSH4 0xFFFFFFFF AND PUSH4 0xFFFFFFFF AND DUP2 MSTORE PUSH1 0x20 ADD SWAP1 PUSH1 0x4 ADD SWAP1 PUSH1 0x20 DUP3 PUSH1 0x3 ADD DIV SWAP3 DUP4 ADD SWAP3 PUSH1 0x1 SUB DUP3 MUL SWAP2 POP DUP1 DUP5 GT PUSH2 0x4773 JUMPI SWAP1 POP JUMPDEST POP POP POP POP POP DUP2 MSTORE PUSH1 0x20 ADD PUSH1 0x1C DUP3 ADD SLOAD DUP2 MSTORE PUSH1 0x20 ADD PUSH1 0x1D DUP3 ADD SLOAD DUP2 MSTORE PUSH1 0x20 ADD PUSH1 0x1E DUP3 ADD SLOAD DUP2 MSTORE POP POP PUSH2 0x391F JUMP JUMPDEST PUSH1 0xFF AND GT ISZERO PUSH2 0xECA JUMPI PUSH1 0x40 DUP1 MLOAD PUSH2 0x400 DUP2 ADD SWAP1 SWAP2 MSTORE DUP5 SLOAD PUSH4 0xFFFFFFFF AND DUP2 MSTORE PUSH1 0x1 DUP6 ADD DUP1 SLOAD PUSH2 0x4817 SWAP3 SWAP2 DUP8 SWAP2 PUSH1 0x20 DUP5 ADD SWAP2 SWAP1 PUSH2 0x4411 SWAP1 PUSH2 0x5430 JUMP JUMPDEST PUSH1 0x11 DUP6 ADD DUP1 SLOAD PUSH1 0xFF NOT AND PUSH1 0xFF SWAP3 DUP4 AND SWAP1 DUP2 OR DUP3 SSTORE PUSH1 0x0 SWAP1 DUP2 MSTORE PUSH1 0xDD PUSH1 0x20 SWAP1 DUP2 MSTORE PUSH1 0x40 DUP1 DUP4 KECCAK256 PUSH1 0x9 SWAP1 DUP2 ADD DUP1 SLOAD PUSH1 0x1 DUP2 DUP2 ADD DUP4 SSTORE SWAP2 DUP7 MSTORE SWAP4 DUP6 KECCAK256 PUSH1 0x8 DUP6 DIV ADD DUP1 SLOAD PUSH1 0x7 SWAP1 SWAP6 AND PUSH1 0x4 MUL PUSH2 0x100 EXP PUSH4 0xFFFFFFFF DUP2 DUP2 MUL NOT SWAP1 SWAP7 AND SWAP6 DUP13 AND MUL SWAP5 SWAP1 SWAP5 OR SWAP1 SWAP4 SSTORE SWAP4 SLOAD SWAP1 SWAP5 AND DUP3 MSTORE SWAP3 SWAP1 KECCAK256 ADD SLOAD PUSH2 0x4890 SWAP2 SWAP1 PUSH2 0x5318 JUMP JUMPDEST PUSH1 0x12 DUP6 ADD DUP2 SWAP1 SSTORE PUSH1 0x11 DUP6 ADD SLOAD PUSH1 0x40 DUP1 MLOAD PUSH4 0xFFFFFFFF DUP8 AND DUP2 MSTORE PUSH1 0x20 DUP2 ADD SWAP4 SWAP1 SWAP4 MSTORE PUSH1 0xFF SWAP1 SWAP2 AND DUP3 DUP3 ADD MSTORE MLOAD PUSH32 0xB0D3A9C683344E744A1AE3DB383F75A8A01851282C5FE97D6159C1392A2E2A0A SWAP2 DUP2 SWAP1 SUB PUSH1 0x60 ADD SWAP1 LOG1 PUSH1 0x40 DUP1 MLOAD PUSH2 0x400 DUP2 ADD SWAP1 SWAP2 MSTORE DUP5 SLOAD PUSH4 0xFFFFFFFF AND DUP2 MSTORE PUSH1 0x1 DUP6 ADD DUP1 SLOAD PUSH1 0xDD SWAP3 PUSH1 0x0 SWAP3 PUSH2 0x491B SWAP3 DUP10 SWAP2 PUSH1 0x20 DUP5 ADD SWAP2 PUSH2 0x4411 SWAP1 PUSH2 0x5430 JUMP JUMPDEST PUSH1 0xFF SWAP1 DUP2 AND DUP3 MSTORE PUSH1 0x20 DUP3 ADD SWAP3 SWAP1 SWAP3 MSTORE PUSH1 0x40 ADD PUSH1 0x0 KECCAK256 PUSH1 0x8 ADD SLOAD PUSH2 0x100 SWAP1 DIV AND ISZERO PUSH2 0x49DF JUMPI PUSH1 0x40 DUP1 MLOAD PUSH2 0x400 DUP2 ADD SWAP1 SWAP2 MSTORE DUP5 SLOAD PUSH4 0xFFFFFFFF AND DUP2 MSTORE PUSH1 0x1 DUP6 ADD DUP1 SLOAD PUSH1 0xDD SWAP3 PUSH1 0x0 SWAP3 PUSH2 0x4975 SWAP3 DUP10 SWAP2 PUSH1 0x20 DUP5 ADD SWAP2 PUSH2 0x4411 SWAP1 PUSH2 0x5430 JUMP JUMPDEST PUSH1 0xFF AND PUSH1 0xFF AND DUP2 MSTORE PUSH1 0x20 ADD SWAP1 DUP2 MSTORE PUSH1 0x20 ADD PUSH1 0x0 KECCAK256 PUSH1 0x7 ADD SLOAD DUP5 PUSH1 0x10 ADD SLOAD PUSH2 0x499C SWAP2 SWAP1 PUSH2 0x54F6 JUMP JUMPDEST DUP2 GT ISZERO PUSH2 0x49CB JUMPI DUP1 DUP5 PUSH1 0x10 ADD DUP2 SWAP1 SSTORE POP DUP2 DUP5 PUSH1 0xF ADD PUSH1 0x0 DUP3 DUP3 SLOAD PUSH2 0x49C0 SWAP2 SWAP1 PUSH2 0x54F6 JUMP JUMPDEST SWAP1 SWAP2 SSTORE POP PUSH2 0xECA SWAP1 POP JUMP JUMPDEST DUP2 DUP5 PUSH1 0xF ADD PUSH1 0x0 DUP3 DUP3 SLOAD PUSH2 0x49C0 SWAP2 SWAP1 PUSH2 0x54F6 JUMP JUMPDEST PUSH1 0xD4 SLOAD PUSH2 0x100 SWAP1 DIV PUSH1 0xFF AND ISZERO PUSH2 0xECA JUMPI PUSH1 0x11 DUP5 ADD SLOAD PUSH1 0xFF AND PUSH1 0x0 SWAP1 DUP2 MSTORE PUSH1 0xDD PUSH1 0x20 MSTORE PUSH1 0x40 SWAP1 KECCAK256 PUSH1 0x5 ADD SLOAD PUSH2 0x4A14 SWAP1 DUP6 SWAP1 PUSH2 0x4BE6 JUMP JUMPDEST PUSH1 0x11 DUP5 ADD SLOAD PUSH1 0xFF SWAP1 DUP2 AND PUSH1 0x0 SWAP1 DUP2 MSTORE PUSH1 0xDD PUSH1 0x20 SWAP1 DUP2 MSTORE PUSH1 0x40 SWAP2 DUP3 SWAP1 KECCAK256 PUSH1 0x5 DUP2 ADD SLOAD SWAP1 SLOAD SWAP3 MLOAD SWAP3 SWAP1 SWAP4 AND DUP3 MSTORE PUSH4 0xFFFFFFFF DUP7 AND SWAP2 PUSH32 0x94B6D3D19CC40938E685EF6A1F6476B53EF65295AB094A044E74405A8D0BD05B SWAP2 ADD PUSH1 0x40 MLOAD DUP1 SWAP2 SUB SWAP1 LOG3 POP POP POP POP JUMP JUMPDEST PUSH1 0xD7 SLOAD PUSH1 0xD6 SLOAD PUSH2 0x4A88 SWAP2 SWAP1 PUSH2 0x54F6 JUMP JUMPDEST DUP2 GT ISZERO PUSH2 0x4A97 JUMPI PUSH1 0xD6 SSTORE PUSH1 0xD5 SSTORE JUMP JUMPDEST DUP2 PUSH1 0xD5 PUSH1 0x0 DUP3 DUP3 SLOAD PUSH2 0x4AA9 SWAP2 SWAP1 PUSH2 0x54F6 JUMP JUMPDEST SWAP1 SWAP2 SSTORE POP POP POP POP JUMP JUMPDEST PUSH2 0x4ABB DUP2 PUSH2 0x42E3 JUMP JUMPDEST PUSH1 0x40 MLOAD PUSH1 0x1 PUSH1 0x1 PUSH1 0xA0 SHL SUB DUP3 AND SWAP1 PUSH32 0xBC7CD75A20EE27FD9ADEBAB32041F755214DBC6BFFA90CC0225B39DA2E5C2D3B SWAP1 PUSH1 0x0 SWAP1 LOG2 POP JUMP JUMPDEST PUSH1 0x60 PUSH1 0x1 PUSH1 0x1 PUSH1 0xA0 SHL SUB DUP4 AND EXTCODESIZE PUSH2 0x4B5A JUMPI PUSH1 0x40 MLOAD PUSH3 0x461BCD PUSH1 0xE5 SHL DUP2 MSTORE PUSH1 0x20 PUSH1 0x4 DUP3 ADD MSTORE PUSH1 0x26 PUSH1 0x24 DUP3 ADD MSTORE PUSH32 0x416464726573733A2064656C65676174652063616C6C20746F206E6F6E2D636F PUSH1 0x44 DUP3 ADD MSTORE PUSH6 0x1B9D1C9858DD PUSH1 0xD2 SHL PUSH1 0x64 DUP3 ADD MSTORE PUSH1 0x84 ADD PUSH2 0xCCA JUMP JUMPDEST PUSH1 0x0 DUP1 DUP5 PUSH1 0x1 PUSH1 0x1 PUSH1 0xA0 SHL SUB AND DUP5 PUSH1 0x40 MLOAD PUSH2 0x4B75 SWAP2 SWAP1 PUSH2 0x55A6 JUMP JUMPDEST PUSH1 0x0 PUSH1 0x40 MLOAD DUP1 DUP4 SUB DUP2 DUP6 GAS DELEGATECALL SWAP2 POP POP RETURNDATASIZE DUP1 PUSH1 0x0 DUP2 EQ PUSH2 0x4BB0 JUMPI PUSH1 0x40 MLOAD SWAP2 POP PUSH1 0x1F NOT PUSH1 0x3F RETURNDATASIZE ADD AND DUP3 ADD PUSH1 0x40 MSTORE RETURNDATASIZE DUP3 MSTORE RETURNDATASIZE PUSH1 0x0 PUSH1 0x20 DUP5 ADD RETURNDATACOPY PUSH2 0x4BB5 JUMP JUMPDEST PUSH1 0x60 SWAP2 POP JUMPDEST POP SWAP2 POP SWAP2 POP PUSH2 0x4BDD DUP3 DUP3 PUSH1 0x40 MLOAD DUP1 PUSH1 0x60 ADD PUSH1 0x40 MSTORE DUP1 PUSH1 0x27 DUP2 MSTORE PUSH1 0x20 ADD PUSH2 0x55F6 PUSH1 0x27 SWAP2 CODECOPY PUSH2 0x4C1E JUMP JUMPDEST SWAP6 SWAP5 POP POP POP POP POP JUMP JUMPDEST DUP2 PUSH1 0x17 ADD SLOAD DUP2 DUP4 PUSH1 0x16 ADD SLOAD PUSH2 0x4BFB SWAP2 SWAP1 PUSH2 0x54F6 JUMP JUMPDEST LT PUSH2 0x4C0E JUMPI PUSH1 0x17 DUP3 ADD SLOAD PUSH1 0x16 DUP4 ADD SSTORE POP POP JUMP JUMPDEST DUP1 DUP3 PUSH1 0x16 ADD SLOAD PUSH2 0xC02 SWAP2 SWAP1 PUSH2 0x54F6 JUMP JUMPDEST PUSH1 0x60 DUP4 ISZERO PUSH2 0x4C2D JUMPI POP DUP2 PUSH2 0x238A JUMP JUMPDEST PUSH2 0x238A DUP4 DUP4 DUP2 MLOAD ISZERO PUSH2 0x4C42 JUMPI DUP2 MLOAD DUP1 DUP4 PUSH1 0x20 ADD REVERT JUMPDEST DUP1 PUSH1 0x40 MLOAD PUSH3 0x461BCD PUSH1 0xE5 SHL DUP2 MSTORE PUSH1 0x4 ADD PUSH2 0xCCA SWAP2 SWAP1 PUSH2 0x55C2 JUMP JUMPDEST DUP3 DUP1 SLOAD DUP3 DUP3 SSTORE SWAP1 PUSH1 0x0 MSTORE PUSH1 0x20 PUSH1 0x0 KECCAK256 SWAP1 PUSH1 0xF ADD PUSH1 0x10 SWAP1 DIV DUP2 ADD SWAP3 DUP3 ISZERO PUSH2 0x4CF4 JUMPI SWAP2 PUSH1 0x20 MUL DUP3 ADD PUSH1 0x0 JUMPDEST DUP4 DUP3 GT ISZERO PUSH2 0x4CC4 JUMPI DUP4 MLOAD DUP4 DUP3 PUSH2 0x100 EXP DUP2 SLOAD DUP2 PUSH2 0xFFFF MUL NOT AND SWAP1 DUP4 PUSH1 0xFF AND MUL OR SWAP1 SSTORE POP SWAP3 PUSH1 0x20 ADD SWAP3 PUSH1 0x2 ADD PUSH1 0x20 DUP2 PUSH1 0x1 ADD DIV SWAP3 DUP4 ADD SWAP3 PUSH1 0x1 SUB MUL PUSH2 0x4C85 JUMP JUMPDEST DUP1 ISZERO PUSH2 0x4CF2 JUMPI DUP3 DUP2 PUSH2 0x100 EXP DUP2 SLOAD SWAP1 PUSH2 0xFFFF MUL NOT AND SWAP1 SSTORE PUSH1 0x2 ADD PUSH1 0x20 DUP2 PUSH1 0x1 ADD DIV SWAP3 DUP4 ADD SWAP3 PUSH1 0x1 SUB MUL PUSH2 0x4CC4 JUMP JUMPDEST POP JUMPDEST POP PUSH2 0x4D00 SWAP3 SWAP2 POP PUSH2 0x4D04 JUMP JUMPDEST POP SWAP1 JUMP JUMPDEST JUMPDEST DUP1 DUP3 GT ISZERO PUSH2 0x4D00 JUMPI PUSH1 0x0 DUP2 SSTORE PUSH1 0x1 ADD PUSH2 0x4D05 JUMP JUMPDEST DUP1 CALLDATALOAD PUSH1 0x1 PUSH1 0x1 PUSH1 0xA0 SHL SUB DUP2 AND DUP2 EQ PUSH2 0x4D30 JUMPI PUSH1 0x0 DUP1 REVERT JUMPDEST SWAP2 SWAP1 POP JUMP JUMPDEST PUSH1 0x0 DUP1 PUSH1 0x40 DUP4 DUP6 SUB SLT ISZERO PUSH2 0x4D48 JUMPI PUSH1 0x0 DUP1 REVERT JUMPDEST PUSH2 0x4D51 DUP4 PUSH2 0x4D19 JUMP JUMPDEST SWAP5 PUSH1 0x20 SWAP4 SWAP1 SWAP4 ADD CALLDATALOAD SWAP4 POP POP POP JUMP JUMPDEST PUSH1 0x0 PUSH1 0x20 DUP3 DUP5 SUB SLT ISZERO PUSH2 0x4D71 JUMPI PUSH1 0x0 DUP1 REVERT JUMPDEST PUSH2 0x238A DUP3 PUSH2 0x4D19 JUMP JUMPDEST PUSH1 0x0 PUSH1 0x20 DUP3 DUP5 SUB SLT ISZERO PUSH2 0x4D8C JUMPI PUSH1 0x0 DUP1 REVERT JUMPDEST POP CALLDATALOAD SWAP2 SWAP1 POP JUMP JUMPDEST DUP1 CALLDATALOAD PUSH4 0xFFFFFFFF DUP2 AND DUP2 EQ PUSH2 0x4D30 JUMPI PUSH1 0x0 DUP1 REVERT JUMPDEST PUSH1 0x0 PUSH1 0x20 DUP3 DUP5 SUB SLT ISZERO PUSH2 0x4DB9 JUMPI PUSH1 0x0 DUP1 REVERT JUMPDEST PUSH2 0x238A DUP3 PUSH2 0x4D93 JUMP JUMPDEST PUSH4 0x4E487B71 PUSH1 0xE0 SHL PUSH1 0x0 MSTORE PUSH1 0x41 PUSH1 0x4 MSTORE PUSH1 0x24 PUSH1 0x0 REVERT JUMPDEST PUSH1 0x40 MLOAD PUSH1 0x1F DUP3 ADD PUSH1 0x1F NOT AND DUP2 ADD PUSH8 0xFFFFFFFFFFFFFFFF DUP2 GT DUP3 DUP3 LT OR ISZERO PUSH2 0x4E01 JUMPI PUSH2 0x4E01 PUSH2 0x4DC2 JUMP JUMPDEST PUSH1 0x40 MSTORE SWAP2 SWAP1 POP JUMP JUMPDEST PUSH1 0x0 DUP1 PUSH1 0x0 PUSH1 0x60 DUP5 DUP7 SUB SLT ISZERO PUSH2 0x4E1E JUMPI PUSH1 0x0 DUP1 REVERT JUMPDEST PUSH2 0x4E27 DUP5 PUSH2 0x4D93 JUMP JUMPDEST SWAP3 POP PUSH1 0x20 PUSH2 0x4E36 DUP2 DUP7 ADD PUSH2 0x4D93 JUMP JUMPDEST SWAP3 POP PUSH1 0x40 DUP6 ADD CALLDATALOAD PUSH8 0xFFFFFFFFFFFFFFFF DUP1 DUP3 GT ISZERO PUSH2 0x4E53 JUMPI PUSH1 0x0 DUP1 REVERT JUMPDEST DUP2 DUP8 ADD SWAP2 POP DUP8 PUSH1 0x1F DUP4 ADD SLT PUSH2 0x4E67 JUMPI PUSH1 0x0 DUP1 REVERT JUMPDEST DUP2 CALLDATALOAD DUP2 DUP2 GT ISZERO PUSH2 0x4E79 JUMPI PUSH2 0x4E79 PUSH2 0x4DC2 JUMP JUMPDEST DUP1 PUSH1 0x5 SHL SWAP2 POP PUSH2 0x4E8A DUP5 DUP4 ADD PUSH2 0x4DD8 JUMP JUMPDEST DUP2 DUP2 MSTORE SWAP2 DUP4 ADD DUP5 ADD SWAP2 DUP5 DUP2 ADD SWAP1 DUP11 DUP5 GT ISZERO PUSH2 0x4EA4 JUMPI PUSH1 0x0 DUP1 REVERT JUMPDEST SWAP4 DUP6 ADD SWAP4 JUMPDEST DUP4 DUP6 LT ISZERO PUSH2 0x4EC2 JUMPI DUP5 CALLDATALOAD DUP3 MSTORE SWAP4 DUP6 ADD SWAP4 SWAP1 DUP6 ADD SWAP1 PUSH2 0x4EA9 JUMP JUMPDEST DUP1 SWAP7 POP POP POP POP POP POP POP SWAP3 POP SWAP3 POP SWAP3 JUMP JUMPDEST PUSH1 0x0 DUP1 PUSH1 0x40 DUP4 DUP6 SUB SLT ISZERO PUSH2 0x4EE5 JUMPI PUSH1 0x0 DUP1 REVERT JUMPDEST PUSH2 0x4EEE DUP4 PUSH2 0x4D19 JUMP JUMPDEST SWAP2 POP PUSH1 0x20 DUP1 DUP5 ADD CALLDATALOAD PUSH8 0xFFFFFFFFFFFFFFFF DUP1 DUP3 GT ISZERO PUSH2 0x4F0C JUMPI PUSH1 0x0 DUP1 REVERT JUMPDEST DUP2 DUP7 ADD SWAP2 POP DUP7 PUSH1 0x1F DUP4 ADD SLT PUSH2 0x4F20 JUMPI PUSH1 0x0 DUP1 REVERT JUMPDEST DUP2 CALLDATALOAD DUP2 DUP2 GT ISZERO PUSH2 0x4F32 JUMPI PUSH2 0x4F32 PUSH2 0x4DC2 JUMP JUMPDEST PUSH2 0x4F44 PUSH1 0x1F DUP3 ADD PUSH1 0x1F NOT AND DUP6 ADD PUSH2 0x4DD8 JUMP JUMPDEST SWAP2 POP DUP1 DUP3 MSTORE DUP8 DUP5 DUP3 DUP6 ADD ADD GT ISZERO PUSH2 0x4F5A JUMPI PUSH1 0x0 DUP1 REVERT JUMPDEST DUP1 DUP5 DUP5 ADD DUP6 DUP5 ADD CALLDATACOPY PUSH1 0x0 DUP5 DUP3 DUP5 ADD ADD MSTORE POP DUP1 SWAP4 POP POP POP POP SWAP3 POP SWAP3 SWAP1 POP JUMP JUMPDEST PUSH1 0x0 DUP2 MLOAD DUP1 DUP5 MSTORE PUSH1 0x20 DUP1 DUP6 ADD SWAP5 POP DUP1 DUP5 ADD PUSH1 0x0 JUMPDEST DUP4 DUP2 LT ISZERO PUSH2 0x4FAE JUMPI DUP2 MLOAD PUSH4 0xFFFFFFFF AND DUP8 MSTORE SWAP6 DUP3 ADD SWAP6 SWAP1 DUP3 ADD SWAP1 PUSH1 0x1 ADD PUSH2 0x4F8C JUMP JUMPDEST POP SWAP5 SWAP6 SWAP5 POP POP POP POP POP JUMP JUMPDEST PUSH1 0x60 DUP2 MSTORE PUSH1 0x0 PUSH2 0x4FCC PUSH1 0x60 DUP4 ADD DUP7 PUSH2 0x4F78 JUMP JUMPDEST DUP3 DUP2 SUB PUSH1 0x20 DUP5 ADD MSTORE PUSH2 0x4FDE DUP2 DUP7 PUSH2 0x4F78 JUMP JUMPDEST SWAP2 POP POP DUP3 PUSH1 0x40 DUP4 ADD MSTORE SWAP5 SWAP4 POP POP POP POP JUMP JUMPDEST PUSH1 0x0 DUP1 PUSH1 0x0 PUSH1 0x60 DUP5 DUP7 SUB SLT ISZERO PUSH2 0x5004 JUMPI PUSH1 0x0 DUP1 REVERT JUMPDEST DUP4 CALLDATALOAD PUSH2 0xFFFF DUP2 AND DUP2 EQ PUSH2 0x5016 JUMPI PUSH1 0x0 DUP1 REVERT JUMPDEST SWAP6 PUSH1 0x20 DUP6 ADD CALLDATALOAD SWAP6 POP PUSH1 0x40 SWAP1 SWAP5 ADD CALLDATALOAD SWAP4 SWAP3 POP POP POP JUMP JUMPDEST PUSH1 0x0 DUP1 PUSH1 0x40 DUP4 DUP6 SUB SLT ISZERO PUSH2 0x503E JUMPI PUSH1 0x0 DUP1 REVERT JUMPDEST PUSH2 0x4D51 DUP4 PUSH2 0x4D93 JUMP JUMPDEST PUSH1 0x0 JUMPDEST DUP4 DUP2 LT ISZERO PUSH2 0x5062 JUMPI DUP2 DUP2 ADD MLOAD DUP4 DUP3 ADD MSTORE PUSH1 0x20 ADD PUSH2 0x504A JUMP JUMPDEST POP POP PUSH1 0x0 SWAP2 ADD MSTORE JUMP JUMPDEST PUSH1 0x0 DUP2 MLOAD DUP1 DUP5 MSTORE PUSH2 0x5083 DUP2 PUSH1 0x20 DUP7 ADD PUSH1 0x20 DUP7 ADD PUSH2 0x5047 JUMP JUMPDEST PUSH1 0x1F ADD PUSH1 0x1F NOT AND SWAP3 SWAP1 SWAP3 ADD PUSH1 0x20 ADD SWAP3 SWAP2 POP POP JUMP JUMPDEST PUSH1 0x20 DUP2 MSTORE PUSH2 0x50AE PUSH1 0x20 DUP3 ADD DUP4 MLOAD PUSH4 0xFFFFFFFF AND SWAP1 MSTORE JUMP JUMPDEST PUSH1 0x0 PUSH1 0x20 DUP4 ADD MLOAD PUSH2 0x400 DUP1 PUSH1 0x40 DUP6 ADD MSTORE PUSH2 0x50CC PUSH2 0x420 DUP6 ADD DUP4 PUSH2 0x506B JUMP JUMPDEST SWAP2 POP PUSH1 0x40 DUP6 ADD MLOAD PUSH2 0x50E1 PUSH1 0x60 DUP7 ADD DUP3 ISZERO ISZERO SWAP1 MSTORE JUMP JUMPDEST POP PUSH1 0x60 DUP6 ADD MLOAD PUSH1 0x1 PUSH1 0x1 PUSH1 0xA0 SHL SUB DUP2 AND PUSH1 0x80 DUP7 ADD MSTORE POP PUSH1 0x80 DUP6 ADD MLOAD PUSH1 0xA0 DUP6 ADD MSTORE PUSH1 0xA0 DUP6 ADD MLOAD PUSH1 0xC0 DUP6 ADD MSTORE PUSH1 0xC0 DUP6 ADD MLOAD PUSH2 0x5122 PUSH1 0xE0 DUP7 ADD DUP3 PUSH4 0xFFFFFFFF AND SWAP1 MSTORE JUMP JUMPDEST POP PUSH1 0xE0 DUP6 ADD MLOAD PUSH1 0x1F NOT PUSH2 0x100 DUP2 DUP8 DUP7 SUB ADD DUP2 DUP9 ADD MSTORE PUSH2 0x5141 DUP6 DUP5 PUSH2 0x4F78 JUMP JUMPDEST SWAP5 POP DUP1 DUP9 ADD MLOAD SWAP3 POP POP PUSH2 0x120 DUP2 DUP8 DUP7 SUB ADD DUP2 DUP9 ADD MSTORE PUSH2 0x5160 DUP6 DUP5 PUSH2 0x4F78 JUMP JUMPDEST SWAP5 POP DUP1 DUP9 ADD MLOAD SWAP3 POP POP PUSH2 0x140 DUP2 DUP8 DUP7 SUB ADD DUP2 DUP9 ADD MSTORE PUSH2 0x517F DUP6 DUP5 PUSH2 0x4F78 JUMP JUMPDEST SWAP1 DUP9 ADD MLOAD PUSH2 0x160 DUP9 DUP2 ADD SWAP2 SWAP1 SWAP2 MSTORE DUP9 ADD MLOAD PUSH2 0x180 DUP1 DUP10 ADD SWAP2 SWAP1 SWAP2 MSTORE DUP9 ADD MLOAD PUSH2 0x1A0 DUP1 DUP10 ADD SWAP2 SWAP1 SWAP2 MSTORE DUP9 ADD MLOAD PUSH2 0x1C0 DUP1 DUP10 ADD SWAP2 SWAP1 SWAP2 MSTORE DUP9 ADD MLOAD PUSH2 0x1E0 DUP1 DUP10 ADD SWAP2 SWAP1 SWAP2 MSTORE DUP9 ADD MLOAD PUSH2 0x200 DUP1 DUP10 ADD SWAP2 SWAP1 SWAP2 MSTORE DUP9 ADD MLOAD PUSH2 0x220 DUP1 DUP10 ADD SWAP2 SWAP1 SWAP2 MSTORE DUP9 ADD MLOAD PUSH2 0x240 DUP1 DUP10 ADD SWAP2 SWAP1 SWAP2 MSTORE DUP9 ADD MLOAD SWAP1 SWAP5 POP SWAP2 POP PUSH2 0x260 PUSH2 0x5201 DUP2 DUP9 ADD DUP5 PUSH1 0xFF AND SWAP1 MSTORE JUMP JUMPDEST DUP8 ADD MLOAD PUSH2 0x280 DUP8 DUP2 ADD SWAP2 SWAP1 SWAP2 MSTORE DUP8 ADD MLOAD PUSH2 0x2A0 DUP1 DUP9 ADD SWAP2 SWAP1 SWAP2 MSTORE DUP8 ADD MLOAD PUSH2 0x2C0 DUP1 DUP9 ADD SWAP2 SWAP1 SWAP2 MSTORE DUP8 ADD MLOAD PUSH2 0x2E0 DUP1 DUP9 ADD SWAP2 SWAP1 SWAP2 MSTORE DUP8 ADD MLOAD PUSH2 0x300 DUP1 DUP9 ADD SWAP2 SWAP1 SWAP2 MSTORE DUP8 ADD MLOAD PUSH2 0x320 DUP1 DUP9 ADD SWAP2 SWAP1 SWAP2 MSTORE DUP8 ADD MLOAD PUSH2 0x340 DUP1 DUP9 ADD SWAP2 SWAP1 SWAP2 MSTORE DUP8 ADD MLOAD PUSH2 0x360 DUP1 DUP9 ADD SWAP2 SWAP1 SWAP2 MSTORE DUP8 ADD MLOAD PUSH2 0x380 DUP1 DUP9 ADD SWAP2 SWAP1 SWAP2 MSTORE DUP8 ADD MLOAD DUP7 DUP6 SUB DUP3 ADD PUSH2 0x3A0 DUP1 DUP10 ADD SWAP2 SWAP1 SWAP2 MSTORE SWAP1 SWAP3 POP PUSH2 0x5295 DUP6 DUP5 PUSH2 0x4F78 JUMP JUMPDEST SWAP1 DUP9 ADD MLOAD PUSH2 0x3C0 DUP9 DUP2 ADD SWAP2 SWAP1 SWAP2 MSTORE DUP9 ADD MLOAD PUSH2 0x3E0 DUP1 DUP10 ADD SWAP2 SWAP1 SWAP2 MSTORE SWAP1 SWAP8 ADD MLOAD SWAP3 SWAP1 SWAP6 ADD SWAP2 SWAP1 SWAP2 MSTORE POP SWAP3 SWAP4 SWAP3 POP POP POP JUMP JUMPDEST PUSH1 0x20 DUP2 MSTORE DUP2 MLOAD ISZERO ISZERO PUSH1 0x20 DUP3 ADD MSTORE PUSH1 0x0 PUSH1 0x20 DUP4 ADD MLOAD PUSH1 0x40 DUP1 DUP5 ADD MSTORE PUSH2 0x3A57 PUSH1 0x60 DUP5 ADD DUP3 PUSH2 0x4F78 JUMP JUMPDEST PUSH4 0x4E487B71 PUSH1 0xE0 SHL PUSH1 0x0 MSTORE PUSH1 0x32 PUSH1 0x4 MSTORE PUSH1 0x24 PUSH1 0x0 REVERT JUMPDEST PUSH4 0x4E487B71 PUSH1 0xE0 SHL PUSH1 0x0 MSTORE PUSH1 0x11 PUSH1 0x4 MSTORE PUSH1 0x24 PUSH1 0x0 REVERT JUMPDEST DUP2 DUP2 SUB DUP2 DUP2 GT ISZERO PUSH2 0x239C JUMPI PUSH2 0x239C PUSH2 0x5302 JUMP JUMPDEST PUSH1 0x20 DUP1 DUP3 MSTORE PUSH1 0x11 SWAP1 DUP3 ADD MSTORE PUSH17 0x2CB7BA9030B932903737BA1030B236B4B7 PUSH1 0x79 SHL PUSH1 0x40 DUP3 ADD MSTORE PUSH1 0x60 ADD SWAP1 JUMP JUMPDEST PUSH1 0x0 PUSH1 0xFF DUP3 AND PUSH1 0xFF DUP2 SUB PUSH2 0x536C JUMPI PUSH2 0x536C PUSH2 0x5302 JUMP JUMPDEST PUSH1 0x1 ADD SWAP3 SWAP2 POP POP JUMP JUMPDEST PUSH1 0x0 PUSH4 0xFFFFFFFF DUP1 DUP4 AND DUP2 DUP2 SUB PUSH2 0x538E JUMPI PUSH2 0x538E PUSH2 0x5302 JUMP JUMPDEST PUSH1 0x1 ADD SWAP4 SWAP3 POP POP POP JUMP JUMPDEST PUSH1 0x20 DUP1 DUP3 MSTORE PUSH1 0x2C SWAP1 DUP3 ADD MSTORE PUSH32 0x46756E6374696F6E206D7573742062652063616C6C6564207468726F75676820 PUSH1 0x40 DUP3 ADD MSTORE PUSH12 0x19195B1959D85D1958D85B1B PUSH1 0xA2 SHL PUSH1 0x60 DUP3 ADD MSTORE PUSH1 0x80 ADD SWAP1 JUMP JUMPDEST PUSH1 0x20 DUP1 DUP3 MSTORE PUSH1 0x2C SWAP1 DUP3 ADD MSTORE PUSH32 0x46756E6374696F6E206D7573742062652063616C6C6564207468726F75676820 PUSH1 0x40 DUP3 ADD MSTORE PUSH12 0x6163746976652070726F7879 PUSH1 0xA0 SHL PUSH1 0x60 DUP3 ADD MSTORE PUSH1 0x80 ADD SWAP1 JUMP JUMPDEST PUSH1 0x1 DUP2 DUP2 SHR SWAP1 DUP3 AND DUP1 PUSH2 0x5444 JUMPI PUSH1 0x7F DUP3 AND SWAP2 POP JUMPDEST PUSH1 0x20 DUP3 LT DUP2 SUB PUSH2 0x5464 JUMPI PUSH4 0x4E487B71 PUSH1 0xE0 SHL PUSH1 0x0 MSTORE PUSH1 0x22 PUSH1 0x4 MSTORE PUSH1 0x24 PUSH1 0x0 REVERT JUMPDEST POP SWAP2 SWAP1 POP JUMP JUMPDEST PUSH1 0x0 PUSH1 0x20 DUP3 DUP5 SUB SLT ISZERO PUSH2 0x547C JUMPI PUSH1 0x0 DUP1 REVERT JUMPDEST DUP2 MLOAD DUP1 ISZERO ISZERO DUP2 EQ PUSH2 0x238A JUMPI PUSH1 0x0 DUP1 REVERT JUMPDEST DUP1 DUP3 MUL DUP2 ISZERO DUP3 DUP3 DIV DUP5 EQ OR PUSH2 0x239C JUMPI PUSH2 0x239C PUSH2 0x5302 JUMP JUMPDEST PUSH4 0x4E487B71 PUSH1 0xE0 SHL PUSH1 0x0 MSTORE PUSH1 0x31 PUSH1 0x4 MSTORE PUSH1 0x24 PUSH1 0x0 REVERT JUMPDEST PUSH1 0x0 PUSH1 0x1 DUP3 ADD PUSH2 0x54CB JUMPI PUSH2 0x54CB PUSH2 0x5302 JUMP JUMPDEST POP PUSH1 0x1 ADD SWAP1 JUMP JUMPDEST PUSH4 0xFFFFFFFF DUP2 DUP2 AND DUP4 DUP3 AND ADD SWAP1 DUP1 DUP3 GT ISZERO PUSH2 0x54EF JUMPI PUSH2 0x54EF PUSH2 0x5302 JUMP JUMPDEST POP SWAP3 SWAP2 POP POP JUMP JUMPDEST DUP1 DUP3 ADD DUP1 DUP3 GT ISZERO PUSH2 0x239C JUMPI PUSH2 0x239C PUSH2 0x5302 JUMP JUMPDEST PUSH1 0x0 PUSH2 0xFFFF DUP1 DUP4 AND DUP2 DUP2 SUB PUSH2 0x538E JUMPI PUSH2 0x538E PUSH2 0x5302 JUMP JUMPDEST PUSH1 0x0 PUSH1 0x20 DUP3 DUP5 SUB SLT ISZERO PUSH2 0x5532 JUMPI PUSH1 0x0 DUP1 REVERT JUMPDEST POP MLOAD SWAP2 SWAP1 POP JUMP JUMPDEST PUSH1 0x0 DUP3 PUSH2 0x5556 JUMPI PUSH4 0x4E487B71 PUSH1 0xE0 SHL PUSH1 0x0 MSTORE PUSH1 0x12 PUSH1 0x4 MSTORE PUSH1 0x24 PUSH1 0x0 REVERT JUMPDEST POP DIV SWAP1 JUMP JUMPDEST PUSH1 0x20 DUP1 DUP3 MSTORE PUSH1 0x2B SWAP1 DUP3 ADD MSTORE PUSH32 0x496E697469616C697A61626C653A20636F6E7472616374206973206E6F742069 PUSH1 0x40 DUP3 ADD MSTORE PUSH11 0x6E697469616C697A696E67 PUSH1 0xA8 SHL PUSH1 0x60 DUP3 ADD MSTORE PUSH1 0x80 ADD SWAP1 JUMP JUMPDEST PUSH1 0x0 DUP3 MLOAD PUSH2 0x55B8 DUP2 DUP5 PUSH1 0x20 DUP8 ADD PUSH2 0x5047 JUMP JUMPDEST SWAP2 SWAP1 SWAP2 ADD SWAP3 SWAP2 POP POP JUMP JUMPDEST PUSH1 0x20 DUP2 MSTORE PUSH1 0x0 PUSH2 0x238A PUSH1 0x20 DUP4 ADD DUP5 PUSH2 0x506B JUMP INVALID CALLDATASIZE ADDMOD SWAP5 LOG1 EXTCODESIZE LOG1 LOG3 0x21 MOD PUSH8 0xC828492DB98DCA3E KECCAK256 PUSH23 0xCC3735A920A3CA505D382BBC416464726573733A206C6F PUSH24 0x2D6C6576656C2064656C65676174652063616C6C20666169 PUSH13 0x6564A264697066735822122042 0xE2 DUP9 SWAP11 0xA8 0xDE 0xE0 0xA9 0xCF 0xC5 DUP12 PUSH29 0xC4D88F0A5737AFB91A03F6EECCE01E0D6F122A7064736F6C6343000811 STOP CALLER "},"methodIdentifiers":{"_disabledUsersList(uint256)":"1f7f83ba","activateID(uint32)":"e5682e38","admins(uint256)":"14bfd6d0","claimBalance(uint32,uint256)":"f31a2d0f","companyTurnoverTimeLimit()":"f41bfeef","companyTurnoverTimeStamp()":"2ed421d2","companyTurnoverWithTimeLimit()":"22f88b52","decimals()":"313ce567","disableUserAdmin(address)":"9f4e8398","getIDAccount(uint32)":"f830e57b","getIDRewardPaid(uint32)":"f229b4d5","getIDRoyaltyClubLevel(uint32)":"76a68e84","getIDTeam(uint32)":"a0506aed","getIDTotalBusiness(uint32)":"347976c4","getMinContributionETH()":"1f9e65e4","getPriceOracleContract()":"2913497b","getROIAccount(uint32)":"c3ab5ebf","getUserAccount(address)":"fb47e016","getUserIDTotalROI(uint32)":"bf46de63","getUserTotalActiveROIValue(uint32)":"ea62f715","getUserUnlockCount(uint32)":"b47181d3","initialize()":"8129fc1c","isPayROI()":"af2f39d1","isPayRoyaltyClubBonus()":"fafc9597","isUserDisabledByAdmin(address)":"538ffe0c","levelRates(uint256)":"7879b5ef","maxLevelsCount()":"8df05d9c","minContributionIn()":"1c961c05","minContributionInUSD()":"96ed6b85","owner()":"8da5cb5b","packagesCount()":"18e10bff","proxiableUUID()":"52d1902d","removeUserFromDisableList(address)":"e52356f3","renounceOwnership()":"715018a6","royaltyClubPackageCount()":"a28a3686","sendETHAdmin(address,uint256)":"0b243dad","setAdmin(address)":"704b6c02","setMinContribution(uint256)":"473b0d46","setPriceOracleContract(address)":"0efdbb6a","setROI(uint16,uint256,uint256)":"c82801ca","setROIIDCount(uint32)":"d895af2c","totalIDs()":"5e701d86","totalROIIDs()":"a1b80175","totalROIPaid()":"30abbcc5","totalReferralPaid()":"7c599486","totalRoyaltyClubBonusPaid()":"852ff2fd","totalRoyaltyClubBonusPaidETH()":"09de82cd","totalUsers()":"bff1f9e1","transferOwnership(address)":"f2fde38b","updateCurrentTopUp(uint32,uint32,uint256[])":"35715f6f","updateTotalIDs(uint32)":"70d9e081","upgradeTo(address)":"3659cfe6","upgradeToAndCall(address,bytes)":"4f1ef286","withdrawETHAdmin()":"35759788","withdrawTokensAdmin(address,uint256)":"a0b6105f"}},"storageLayout":{"storage":[{"astId":527,"contract":"contracts/ReferralV3Upgradeable.sol:ReferralV3Upgradeable","label":"_initialized","offset":0,"slot":"0","type":"t_uint8"},{"astId":530,"contract":"contracts/ReferralV3Upgradeable.sol:ReferralV3Upgradeable","label":"_initializing","offset":1,"slot":"0","type":"t_bool"},{"astId":1228,"contract":"contracts/ReferralV3Upgradeable.sol:ReferralV3Upgradeable","label":"__gap","offset":0,"slot":"1","type":"t_array(t_uint256)50_storage"},{"astId":10,"contract":"contracts/ReferralV3Upgradeable.sol:ReferralV3Upgradeable","label":"_owner","offset":0,"slot":"51","type":"t_address"},{"astId":130,"contract":"contracts/ReferralV3Upgradeable.sol:ReferralV3Upgradeable","label":"__gap","offset":0,"slot":"52","type":"t_array(t_uint256)49_storage"},{"astId":509,"contract":"contracts/ReferralV3Upgradeable.sol:ReferralV3Upgradeable","label":"__gap","offset":0,"slot":"101","type":"t_array(t_uint256)50_storage"},{"astId":824,"contract":"contracts/ReferralV3Upgradeable.sol:ReferralV3Upgradeable","label":"__gap","offset":0,"slot":"151","type":"t_array(t_uint256)50_storage"},{"astId":1317,"contract":"contracts/ReferralV3Upgradeable.sol:ReferralV3Upgradeable","label":"_priceOracleContract","offset":0,"slot":"201","type":"t_address"},{"astId":1320,"contract":"contracts/ReferralV3Upgradeable.sol:ReferralV3Upgradeable","label":"levelRates","offset":0,"slot":"202","type":"t_array(t_uint16)dyn_storage"},{"astId":1322,"contract":"contracts/ReferralV3Upgradeable.sol:ReferralV3Upgradeable","label":"decimals","offset":0,"slot":"203","type":"t_uint16"},{"astId":1324,"contract":"contracts/ReferralV3Upgradeable.sol:ReferralV3Upgradeable","label":"maxLevelsCount","offset":2,"slot":"203","type":"t_uint8"},{"astId":1326,"contract":"contracts/ReferralV3Upgradeable.sol:ReferralV3Upgradeable","label":"minContributionIn","offset":0,"slot":"204","type":"t_uint256"},{"astId":1328,"contract":"contracts/ReferralV3Upgradeable.sol:ReferralV3Upgradeable","label":"totalRoyaltyClubBonusPaid","offset":0,"slot":"205","type":"t_uint256"},{"astId":1330,"contract":"contracts/ReferralV3Upgradeable.sol:ReferralV3Upgradeable","label":"totalRoyaltyClubBonusPaidETH","offset":0,"slot":"206","type":"t_uint256"},{"astId":1332,"contract":"contracts/ReferralV3Upgradeable.sol:ReferralV3Upgradeable","label":"totalReferralPaid","offset":0,"slot":"207","type":"t_uint256"},{"astId":1334,"contract":"contracts/ReferralV3Upgradeable.sol:ReferralV3Upgradeable","label":"totalROIPaid","offset":0,"slot":"208","type":"t_uint256"},{"astId":1336,"contract":"contracts/ReferralV3Upgradeable.sol:ReferralV3Upgradeable","label":"totalUsers","offset":0,"slot":"209","type":"t_uint32"},{"astId":1338,"contract":"contracts/ReferralV3Upgradeable.sol:ReferralV3Upgradeable","label":"totalIDs","offset":4,"slot":"209","type":"t_uint32"},{"astId":1340,"contract":"contracts/ReferralV3Upgradeable.sol:ReferralV3Upgradeable","label":"totalROIIDs","offset":8,"slot":"209","type":"t_uint32"},{"astId":1342,"contract":"contracts/ReferralV3Upgradeable.sol:ReferralV3Upgradeable","label":"_roiRate","offset":12,"slot":"209","type":"t_uint16"},{"astId":1344,"contract":"contracts/ReferralV3Upgradeable.sol:ReferralV3Upgradeable","label":"_roiDuration","offset":0,"slot":"210","type":"t_uint256"},{"astId":1346,"contract":"contracts/ReferralV3Upgradeable.sol:ReferralV3Upgradeable","label":"_roiClaimTimelimit","offset":0,"slot":"211","type":"t_uint256"},{"astId":1348,"contract":"contracts/ReferralV3Upgradeable.sol:ReferralV3Upgradeable","label":"isPayROI","offset":0,"slot":"212","type":"t_bool"},{"astId":1350,"contract":"contracts/ReferralV3Upgradeable.sol:ReferralV3Upgradeable","label":"isPayRoyaltyClubBonus","offset":1,"slot":"212","type":"t_bool"},{"astId":1352,"contract":"contracts/ReferralV3Upgradeable.sol:ReferralV3Upgradeable","label":"royaltyClubPackageCount","offset":2,"slot":"212","type":"t_uint8"},{"astId":1354,"contract":"contracts/ReferralV3Upgradeable.sol:ReferralV3Upgradeable","label":"_userLevelUnlockMultiplier","offset":3,"slot":"212","type":"t_uint8"},{"astId":1356,"contract":"contracts/ReferralV3Upgradeable.sol:ReferralV3Upgradeable","label":"companyTurnoverWithTimeLimit","offset":0,"slot":"213","type":"t_uint256"},{"astId":1358,"contract":"contracts/ReferralV3Upgradeable.sol:ReferralV3Upgradeable","label":"companyTurnoverTimeStamp","offset":0,"slot":"214","type":"t_uint256"},{"astId":1360,"contract":"contracts/ReferralV3Upgradeable.sol:ReferralV3Upgradeable","label":"companyTurnoverTimeLimit","offset":0,"slot":"215","type":"t_uint256"},{"astId":1363,"contract":"contracts/ReferralV3Upgradeable.sol:ReferralV3Upgradeable","label":"_disabledUsersList","offset":0,"slot":"216","type":"t_array(t_address)dyn_storage"},{"astId":1477,"contract":"contracts/ReferralV3Upgradeable.sol:ReferralV3Upgradeable","label":"packagesCount","offset":0,"slot":"217","type":"t_uint8"},{"astId":1482,"contract":"contracts/ReferralV3Upgradeable.sol:ReferralV3Upgradeable","label":"accounts","offset":0,"slot":"218","type":"t_mapping(t_address,t_struct(StructAccount)1369_storage)"},{"astId":1487,"contract":"contracts/ReferralV3Upgradeable.sol:ReferralV3Upgradeable","label":"ids","offset":0,"slot":"219","type":"t_mapping(t_uint32,t_struct(StructID)1438_storage)"},{"astId":1492,"contract":"contracts/ReferralV3Upgradeable.sol:ReferralV3Upgradeable","label":"rois","offset":0,"slot":"220","type":"t_mapping(t_uint32,t_struct(StructROI)1451_storage)"},{"astId":1497,"contract":"contracts/ReferralV3Upgradeable.sol:ReferralV3Upgradeable","label":"packages","offset":0,"slot":"221","type":"t_mapping(t_uint8,t_struct(StructPackages)1475_storage)"},{"astId":1679,"contract":"contracts/ReferralV3Upgradeable.sol:ReferralV3Upgradeable","label":"admins","offset":0,"slot":"222","type":"t_array(t_address)dyn_storage"},{"astId":1681,"contract":"contracts/ReferralV3Upgradeable.sol:ReferralV3Upgradeable","label":"minContributionInUSD","offset":0,"slot":"223","type":"t_uint256"}],"types":{"t_address":{"encoding":"inplace","label":"address","numberOfBytes":"20"},"t_array(t_address)dyn_storage":{"base":"t_address","encoding":"dynamic_array","label":"address[]","numberOfBytes":"32"},"t_array(t_uint16)dyn_storage":{"base":"t_uint16","encoding":"dynamic_array","label":"uint16[]","numberOfBytes":"32"},"t_array(t_uint256)49_storage":{"base":"t_uint256","encoding":"inplace","label":"uint256[49]","numberOfBytes":"1568"},"t_array(t_uint256)50_storage":{"base":"t_uint256","encoding":"inplace","label":"uint256[50]","numberOfBytes":"1600"},"t_array(t_uint32)dyn_storage":{"base":"t_uint32","encoding":"dynamic_array","label":"uint32[]","numberOfBytes":"32"},"t_bool":{"encoding":"inplace","label":"bool","numberOfBytes":"1"},"t_mapping(t_address,t_struct(StructAccount)1369_storage)":{"encoding":"mapping","key":"t_address","label":"mapping(address => struct ReferralV3Upgradeable.StructAccount)","numberOfBytes":"32","value":"t_struct(StructAccount)1369_storage"},"t_mapping(t_uint32,t_struct(StructID)1438_storage)":{"encoding":"mapping","key":"t_uint32","label":"mapping(uint32 => struct ReferralV3Upgradeable.StructID)","numberOfBytes":"32","value":"t_struct(StructID)1438_storage"},"t_mapping(t_uint32,t_struct(StructROI)1451_storage)":{"encoding":"mapping","key":"t_uint32","label":"mapping(uint32 => struct ReferralV3Upgradeable.StructROI)","numberOfBytes":"32","value":"t_struct(StructROI)1451_storage"},"t_mapping(t_uint8,t_struct(StructPackages)1475_storage)":{"encoding":"mapping","key":"t_uint8","label":"mapping(uint8 => struct ReferralV3Upgradeable.StructPackages)","numberOfBytes":"32","value":"t_struct(StructPackages)1475_storage"},"t_string_storage":{"encoding":"bytes","label":"string","numberOfBytes":"32"},"t_struct(StructAccount)1369_storage":{"encoding":"inplace","label":"struct ReferralV3Upgradeable.StructAccount","members":[{"astId":1365,"contract":"contracts/ReferralV3Upgradeable.sol:ReferralV3Upgradeable","label":"isDisabled","offset":0,"slot":"0","type":"t_bool"},{"astId":1368,"contract":"contracts/ReferralV3Upgradeable.sol:ReferralV3Upgradeable","label":"accountIDs","offset":0,"slot":"1","type":"t_array(t_uint32)dyn_storage"}],"numberOfBytes":"64"},"t_struct(StructID)1438_storage":{"encoding":"inplace","label":"struct ReferralV3Upgradeable.StructID","members":[{"astId":1371,"contract":"contracts/ReferralV3Upgradeable.sol:ReferralV3Upgradeable","label":"id","offset":0,"slot":"0","type":"t_uint32"},{"astId":1373,"contract":"contracts/ReferralV3Upgradeable.sol:ReferralV3Upgradeable","label":"oldID","offset":0,"slot":"1","type":"t_string_storage"},{"astId":1375,"contract":"contracts/ReferralV3Upgradeable.sol:ReferralV3Upgradeable","label":"isActive","offset":0,"slot":"2","type":"t_bool"},{"astId":1377,"contract":"contracts/ReferralV3Upgradeable.sol:ReferralV3Upgradeable","label":"owner","offset":1,"slot":"2","type":"t_address"},{"astId":1379,"contract":"contracts/ReferralV3Upgradeable.sol:ReferralV3Upgradeable","label":"joiningTime","offset":0,"slot":"3","type":"t_uint256"},{"astId":1381,"contract":"contracts/ReferralV3Upgradeable.sol:ReferralV3Upgradeable","label":"deactivateTime","offset":0,"slot":"4","type":"t_uint256"},{"astId":1383,"contract":"contracts/ReferralV3Upgradeable.sol:ReferralV3Upgradeable","label":"refererID","offset":0,"slot":"5","type":"t_uint32"},{"astId":1386,"contract":"contracts/ReferralV3Upgradeable.sol:ReferralV3Upgradeable","label":"refereeIDs","offset":0,"slot":"6","type":"t_array(t_uint32)dyn_storage"},{"astId":1389,"contract":"contracts/ReferralV3Upgradeable.sol:ReferralV3Upgradeable","label":"teamIDs","offset":0,"slot":"7","type":"t_array(t_uint32)dyn_storage"},{"astId":1392,"contract":"contracts/ReferralV3Upgradeable.sol:ReferralV3Upgradeable","label":"teamLevel","offset":0,"slot":"8","type":"t_array(t_uint32)dyn_storage"},{"astId":1394,"contract":"contracts/ReferralV3Upgradeable.sol:ReferralV3Upgradeable","label":"selfBusiness","offset":0,"slot":"9","type":"t_uint256"},{"astId":1396,"contract":"contracts/ReferralV3Upgradeable.sol:ReferralV3Upgradeable","label":"selfBusinessOld","offset":0,"slot":"10","type":"t_uint256"},{"astId":1398,"contract":"contracts/ReferralV3Upgradeable.sol:ReferralV3Upgradeable","label":"directBusiness","offset":0,"slot":"11","type":"t_uint256"},{"astId":1400,"contract":"contracts/ReferralV3Upgradeable.sol:ReferralV3Upgradeable","label":"directBusinessOld","offset":0,"slot":"12","type":"t_uint256"},{"astId":1402,"contract":"contracts/ReferralV3Upgradeable.sol:ReferralV3Upgradeable","label":"teamBusiness","offset":0,"slot":"13","type":"t_uint256"},{"astId":1404,"contract":"contracts/ReferralV3Upgradeable.sol:ReferralV3Upgradeable","label":"teamBusinessOld","offset":0,"slot":"14","type":"t_uint256"},{"astId":1406,"contract":"contracts/ReferralV3Upgradeable.sol:ReferralV3Upgradeable","label":"royaltyClubBusiness","offset":0,"slot":"15","type":"t_uint256"},{"astId":1408,"contract":"contracts/ReferralV3Upgradeable.sol:ReferralV3Upgradeable","label":"timeStampRoyaltyClub","offset":0,"slot":"16","type":"t_uint256"},{"astId":1410,"contract":"contracts/ReferralV3Upgradeable.sol:ReferralV3Upgradeable","label":"royaltyClubPackageID","offset":0,"slot":"17","type":"t_uint8"},{"astId":1412,"contract":"contracts/ReferralV3Upgradeable.sol:ReferralV3Upgradeable","label":"royaltyClubListIndex","offset":0,"slot":"18","type":"t_uint256"},{"astId":1414,"contract":"contracts/ReferralV3Upgradeable.sol:ReferralV3Upgradeable","label":"referralPaid","offset":0,"slot":"19","type":"t_uint256"},{"astId":1416,"contract":"contracts/ReferralV3Upgradeable.sol:ReferralV3Upgradeable","label":"rewardPaidRoyaltyClub","offset":0,"slot":"20","type":"t_uint256"},{"astId":1418,"contract":"contracts/ReferralV3Upgradeable.sol:ReferralV3Upgradeable","label":"totalTopUp","offset":0,"slot":"21","type":"t_uint256"},{"astId":1420,"contract":"contracts/ReferralV3Upgradeable.sol:ReferralV3Upgradeable","label":"totalIncome","offset":0,"slot":"22","type":"t_uint256"},{"astId":1422,"contract":"contracts/ReferralV3Upgradeable.sol:ReferralV3Upgradeable","label":"totalMaxLimitAmount","offset":0,"slot":"23","type":"t_uint256"},{"astId":1424,"contract":"contracts/ReferralV3Upgradeable.sol:ReferralV3Upgradeable","label":"currentTopUp","offset":0,"slot":"24","type":"t_uint256"},{"astId":1426,"contract":"contracts/ReferralV3Upgradeable.sol:ReferralV3Upgradeable","label":"currentTopUpTime","offset":0,"slot":"25","type":"t_uint256"},{"astId":1428,"contract":"contracts/ReferralV3Upgradeable.sol:ReferralV3Upgradeable","label":"totalROIClaimed","offset":0,"slot":"26","type":"t_uint256"},{"astId":1431,"contract":"contracts/ReferralV3Upgradeable.sol:ReferralV3Upgradeable","label":"roiIDs","offset":0,"slot":"27","type":"t_array(t_uint32)dyn_storage"},{"astId":1433,"contract":"contracts/ReferralV3Upgradeable.sol:ReferralV3Upgradeable","label":"roiClaimed","offset":0,"slot":"28","type":"t_uint256"},{"astId":1435,"contract":"contracts/ReferralV3Upgradeable.sol:ReferralV3Upgradeable","label":"roiClaimedTimestamp","offset":0,"slot":"29","type":"t_uint256"},{"astId":1437,"contract":"contracts/ReferralV3Upgradeable.sol:ReferralV3Upgradeable","label":"balanceClaimed","offset":0,"slot":"30","type":"t_uint256"}],"numberOfBytes":"992"},"t_struct(StructPackages)1475_storage":{"encoding":"inplace","label":"struct ReferralV3Upgradeable.StructPackages","members":[{"astId":1453,"contract":"contracts/ReferralV3Upgradeable.sol:ReferralV3Upgradeable","label":"packageID","offset":0,"slot":"0","type":"t_uint8"},{"astId":1455,"contract":"contracts/ReferralV3Upgradeable.sol:ReferralV3Upgradeable","label":"selfBusiness","offset":0,"slot":"1","type":"t_uint256"},{"astId":1457,"contract":"contracts/ReferralV3Upgradeable.sol:ReferralV3Upgradeable","label":"directBusiness","offset":0,"slot":"2","type":"t_uint256"},{"astId":1459,"contract":"contracts/ReferralV3Upgradeable.sol:ReferralV3Upgradeable","label":"teamBusiness","offset":0,"slot":"3","type":"t_uint256"},{"astId":1461,"contract":"contracts/ReferralV3Upgradeable.sol:ReferralV3Upgradeable","label":"rankName","offset":0,"slot":"4","type":"t_string_storage"},{"astId":1463,"contract":"contracts/ReferralV3Upgradeable.sol:ReferralV3Upgradeable","label":"reward","offset":0,"slot":"5","type":"t_uint256"},{"astId":1465,"contract":"contracts/ReferralV3Upgradeable.sol:ReferralV3Upgradeable","label":"businessLimit","offset":0,"slot":"6","type":"t_uint256"},{"astId":1467,"contract":"contracts/ReferralV3Upgradeable.sol:ReferralV3Upgradeable","label":"timeLimit","offset":0,"slot":"7","type":"t_uint256"},{"astId":1469,"contract":"contracts/ReferralV3Upgradeable.sol:ReferralV3Upgradeable","label":"isOneTimeRewardPaid","offset":0,"slot":"8","type":"t_bool"},{"astId":1471,"contract":"contracts/ReferralV3Upgradeable.sol:ReferralV3Upgradeable","label":"isPayReccursive","offset":1,"slot":"8","type":"t_bool"},{"astId":1474,"contract":"contracts/ReferralV3Upgradeable.sol:ReferralV3Upgradeable","label":"achieversList","offset":0,"slot":"9","type":"t_array(t_uint32)dyn_storage"}],"numberOfBytes":"320"},"t_struct(StructROI)1451_storage":{"encoding":"inplace","label":"struct ReferralV3Upgradeable.StructROI","members":[{"astId":1440,"contract":"contracts/ReferralV3Upgradeable.sol:ReferralV3Upgradeable","label":"id","offset":0,"slot":"0","type":"t_uint32"},{"astId":1442,"contract":"contracts/ReferralV3Upgradeable.sol:ReferralV3Upgradeable","label":"isActive","offset":4,"slot":"0","type":"t_bool"},{"astId":1444,"contract":"contracts/ReferralV3Upgradeable.sol:ReferralV3Upgradeable","label":"ownerID","offset":5,"slot":"0","type":"t_uint32"},{"astId":1446,"contract":"contracts/ReferralV3Upgradeable.sol:ReferralV3Upgradeable","label":"value","offset":0,"slot":"1","type":"t_uint256"},{"astId":1448,"contract":"contracts/ReferralV3Upgradeable.sol:ReferralV3Upgradeable","label":"roiRate","offset":0,"slot":"2","type":"t_uint16"},{"astId":1450,"contract":"contracts/ReferralV3Upgradeable.sol:ReferralV3Upgradeable","label":"startTime","offset":0,"slot":"3","type":"t_uint256"}],"numberOfBytes":"128"},"t_uint16":{"encoding":"inplace","label":"uint16","numberOfBytes":"2"},"t_uint256":{"encoding":"inplace","label":"uint256","numberOfBytes":"32"},"t_uint32":{"encoding":"inplace","label":"uint32","numberOfBytes":"4"},"t_uint8":{"encoding":"inplace","label":"uint8","numberOfBytes":"1"}}}}}}