{"contracts/ReferralV4Upgradeable.sol":{"ReferralV4Upgradeable":{"abi":[{"anonymous":false,"inputs":[{"indexed":false,"internalType":"uint32","name":"id","type":"uint32"}],"name":"ActivatedId","type":"event"},{"anonymous":false,"inputs":[{"indexed":false,"internalType":"uint32","name":"id","type":"uint32"},{"indexed":false,"internalType":"uint32","name":"index","type":"uint32"},{"indexed":false,"internalType":"uint8","name":"rank","type":"uint8"}],"name":"AddedInRoyaltyClubList","type":"event"},{"anonymous":false,"inputs":[{"indexed":false,"internalType":"address","name":"previousAdmin","type":"address"},{"indexed":false,"internalType":"address","name":"newAdmin","type":"address"}],"name":"AdminChanged","type":"event"},{"anonymous":false,"inputs":[{"indexed":false,"internalType":"address","name":"userAddress","type":"address"},{"indexed":false,"internalType":"uint32","name":"id","type":"uint32"},{"indexed":false,"internalType":"uint256","name":"value","type":"uint256"}],"name":"BalanceClaimed","type":"event"},{"anonymous":false,"inputs":[{"indexed":true,"internalType":"address","name":"beacon","type":"address"}],"name":"BeaconUpgraded","type":"event"},{"anonymous":false,"inputs":[{"indexed":false,"internalType":"uint32","name":"id","type":"uint32"},{"indexed":false,"internalType":"string","name":"reason","type":"string"}],"name":"DeactivatedId","type":"event"},{"anonymous":false,"inputs":[{"indexed":false,"internalType":"uint8","name":"version","type":"uint8"}],"name":"Initialized","type":"event"},{"anonymous":false,"inputs":[{"indexed":false,"internalType":"uint32","name":"id","type":"uint32"},{"indexed":false,"internalType":"address","name":"owner","type":"address"}],"name":"OwnerChangedId","type":"event"},{"anonymous":false,"inputs":[{"indexed":true,"internalType":"address","name":"previousOwner","type":"address"},{"indexed":true,"internalType":"address","name":"newOwner","type":"address"}],"name":"OwnershipTransferred","type":"event"},{"anonymous":false,"inputs":[{"indexed":false,"internalType":"uint8","name":"packageId","type":"uint8"}],"name":"PackageAdded","type":"event"},{"anonymous":false,"inputs":[{"indexed":false,"internalType":"uint8","name":"packageId","type":"uint8"}],"name":"PackageRemoved","type":"event"},{"anonymous":false,"inputs":[{"indexed":false,"internalType":"uint8","name":"packageId","type":"uint8"}],"name":"PackageUpdated","type":"event"},{"anonymous":false,"inputs":[{"indexed":true,"internalType":"uint32","name":"refererId","type":"uint32"},{"indexed":true,"internalType":"uint8","name":"level","type":"uint8"},{"indexed":true,"internalType":"string","name":"reason","type":"string"}],"name":"ReferralNotPaid","type":"event"},{"anonymous":false,"inputs":[{"indexed":true,"internalType":"uint32","name":"refereeId","type":"uint32"},{"indexed":true,"internalType":"uint32","name":"referrerId","type":"uint32"},{"indexed":true,"internalType":"uint256","name":"amount","type":"uint256"},{"indexed":false,"internalType":"uint8","name":"level","type":"uint8"}],"name":"ReferralRewardPaid","type":"event"},{"anonymous":false,"inputs":[{"indexed":true,"internalType":"address","name":"refereeId","type":"address"},{"indexed":true,"internalType":"address","name":"referrerId","type":"address"},{"indexed":true,"internalType":"string","name":"reason","type":"string"}],"name":"RegisterRefererFailed","type":"event"},{"anonymous":false,"inputs":[{"indexed":true,"internalType":"uint32","name":"id","type":"uint32"},{"indexed":true,"internalType":"uint32","name":"refererId","type":"uint32"}],"name":"RegisteredReferer","type":"event"},{"anonymous":false,"inputs":[{"indexed":true,"internalType":"uint32","name":"refereeId","type":"uint32"},{"indexed":true,"internalType":"uint32","name":"referrerId","type":"uint32"},{"indexed":true,"internalType":"uint32","name":"parentAccountId","type":"uint32"}],"name":"RegisteredTeamAddress","type":"event"},{"anonymous":false,"inputs":[{"indexed":true,"internalType":"uint32","name":"userid","type":"uint32"},{"indexed":true,"internalType":"uint8","name":"packageId","type":"uint8"},{"indexed":true,"internalType":"uint256","name":"amount","type":"uint256"}],"name":"RoyaltyClubBonusPaid","type":"event"},{"anonymous":false,"inputs":[{"indexed":true,"internalType":"address","name":"implementation","type":"address"}],"name":"Upgraded","type":"event"},{"inputs":[{"internalType":"uint32","name":"_refererId","type":"uint32"}],"name":"activateId","outputs":[],"stateMutability":"payable","type":"function"},{"inputs":[{"internalType":"address","name":"_userAddress","type":"address"},{"internalType":"uint32","name":"_refererId","type":"uint32"},{"internalType":"uint256","name":"_valueInUSD","type":"uint256"},{"internalType":"uint256","name":"_activationTime","type":"uint256"},{"internalType":"uint256","name":"_roiStartTime","type":"uint256"},{"internalType":"uint256","name":"_roiResetTime","type":"uint256"},{"internalType":"uint256","name":"_roiDurationInDays","type":"uint256"}],"name":"activateIdAdmin","outputs":[],"stateMutability":"nonpayable","type":"function"},{"inputs":[{"internalType":"uint32","name":"_referrerId","type":"uint32"},{"internalType":"uint32","name":"_id","type":"uint32"}],"name":"changeUpline","outputs":[],"stateMutability":"nonpayable","type":"function"},{"inputs":[{"internalType":"uint32","name":"_id","type":"uint32"}],"name":"claimBalance","outputs":[],"stateMutability":"nonpayable","type":"function"},{"inputs":[],"name":"companyTurnoverTimeLimit","outputs":[{"internalType":"uint256","name":"","type":"uint256"}],"stateMutability":"view","type":"function"},{"inputs":[],"name":"companyTurnoverTimeStamp","outputs":[{"internalType":"uint256","name":"","type":"uint256"}],"stateMutability":"view","type":"function"},{"inputs":[],"name":"companyTurnoverWithTimeLimit","outputs":[{"internalType":"uint256","name":"","type":"uint256"}],"stateMutability":"view","type":"function"},{"inputs":[],"name":"decimals","outputs":[{"internalType":"uint16","name":"","type":"uint16"}],"stateMutability":"view","type":"function"},{"inputs":[{"internalType":"address","name":"_userAddress","type":"address"},{"internalType":"uint32","name":"_id","type":"uint32"}],"name":"detachIdFromAddressAdmin","outputs":[],"stateMutability":"nonpayable","type":"function"},{"inputs":[{"internalType":"uint256","name":"","type":"uint256"}],"name":"disabledUsersList","outputs":[{"internalType":"address","name":"","type":"address"}],"stateMutability":"view","type":"function"},{"inputs":[],"name":"futureScureWalletContribution","outputs":[{"internalType":"uint8","name":"","type":"uint8"}],"stateMutability":"view","type":"function"},{"inputs":[{"internalType":"uint8","name":"_packageId","type":"uint8"}],"name":"getAchieversList","outputs":[{"internalType":"uint32[]","name":"","type":"uint32[]"}],"stateMutability":"view","type":"function"},{"inputs":[{"internalType":"uint32","name":"_id","type":"uint32"}],"name":"getIdAccount","outputs":[{"components":[{"internalType":"uint32","name":"id","type":"uint32"},{"internalType":"string","name":"oldId","type":"string"},{"internalType":"uint256","name":"joiningTime","type":"uint256"},{"internalType":"bool","name":"isAddedToUserList","type":"bool"},{"internalType":"address","name":"owner","type":"address"},{"internalType":"uint32","name":"refererId","type":"uint32"},{"internalType":"bool","name":"hasUpline","type":"bool"},{"internalType":"uint32[]","name":"refereeIds","type":"uint32[]"},{"internalType":"uint32[]","name":"teamIds","type":"uint32[]"},{"internalType":"uint32[]","name":"teamLevel","type":"uint32[]"},{"internalType":"uint256[]","name":"selfBusinessArray","type":"uint256[]"},{"internalType":"uint256","name":"selfBusiness","type":"uint256"},{"internalType":"uint256","name":"selfBusinessOld","type":"uint256"},{"internalType":"uint256","name":"directBusiness","type":"uint256"},{"internalType":"uint256","name":"directBusinessOld","type":"uint256"},{"internalType":"uint256","name":"teamBusiness","type":"uint256"},{"internalType":"uint256","name":"teamBusinessOld","type":"uint256"},{"internalType":"uint256","name":"royaltyClubBusiness","type":"uint256"},{"internalType":"uint256","name":"timeStampRoyaltyClub","type":"uint256"},{"internalType":"uint8","name":"royaltyClubPackageId","type":"uint8"},{"internalType":"uint32","name":"royaltyClubListIndex","type":"uint32"},{"internalType":"uint256","name":"royaltyClubRewardPaid","type":"uint256"},{"internalType":"uint256","name":"topUpIncome","type":"uint256"},{"internalType":"uint256","name":"topUp","type":"uint256"},{"internalType":"uint256","name":"maxLimit","type":"uint256"},{"internalType":"uint256","name":"activationTime","type":"uint256"},{"internalType":"uint256","name":"deactivationTime","type":"uint256"},{"internalType":"uint256","name":"referralPaid","type":"uint256"},{"internalType":"uint32[]","name":"roiIds","type":"uint32[]"},{"internalType":"uint256","name":"roiPaid","type":"uint256"},{"internalType":"uint256","name":"roiClaimedTime","type":"uint256"},{"internalType":"uint256","name":"walletBalance","type":"uint256"},{"internalType":"bool","name":"isActive","type":"bool"},{"internalType":"bool","name":"isROIDisabled","type":"bool"},{"internalType":"bool","name":"isIdVisibilityDisabled","type":"bool"},{"internalType":"bool","name":"canWindraw","type":"bool"}],"internalType":"struct ReferralV4Upgradeable.StructId","name":"","type":"tuple"}],"stateMutability":"view","type":"function"},{"inputs":[{"internalType":"uint32","name":"_id","type":"uint32"}],"name":"getIdLimits","outputs":[{"internalType":"uint256","name":"topUpIncome","type":"uint256"},{"internalType":"uint256","name":"topUp","type":"uint256"},{"internalType":"uint256","name":"maxLimit","type":"uint256"}],"stateMutability":"view","type":"function"},{"inputs":[],"name":"getMinContributionETH","outputs":[{"internalType":"uint256","name":"","type":"uint256"}],"stateMutability":"view","type":"function"},{"inputs":[{"internalType":"uint8","name":"_packageId","type":"uint8"}],"name":"getRoyaltyClubPackageInfo","outputs":[{"components":[{"internalType":"uint8","name":"packageId","type":"uint8"},{"internalType":"uint256","name":"selfBusiness","type":"uint256"},{"internalType":"uint256","name":"directBusiness","type":"uint256"},{"internalType":"uint256","name":"teamBusiness","type":"uint256"},{"internalType":"string","name":"rankName","type":"string"},{"internalType":"uint256","name":"reward","type":"uint256"},{"internalType":"uint256","name":"businessLimit","type":"uint256"},{"internalType":"uint256","name":"timeLimit","type":"uint256"},{"internalType":"bool","name":"isPayReccursive","type":"bool"},{"internalType":"uint32[]","name":"achieversList","type":"uint32[]"}],"internalType":"struct ReferralV4Upgradeable.StructPackages","name":"","type":"tuple"}],"stateMutability":"view","type":"function"},{"inputs":[{"internalType":"address","name":"_address","type":"address"}],"name":"getUserAccount","outputs":[{"components":[{"internalType":"bool","name":"isActive","type":"bool"},{"internalType":"uint32[]","name":"accountIds","type":"uint32[]"},{"internalType":"string","name":"userName","type":"string"}],"internalType":"struct ReferralV4Upgradeable.StructAccount","name":"","type":"tuple"}],"stateMutability":"view","type":"function"},{"inputs":[{"internalType":"uint32","name":"_id","type":"uint32"},{"internalType":"uint256","name":"_value","type":"uint256"}],"name":"increaseIdTopIncome","outputs":[],"stateMutability":"nonpayable","type":"function"},{"inputs":[],"name":"initialize","outputs":[],"stateMutability":"nonpayable","type":"function"},{"inputs":[],"name":"isActivateROI","outputs":[{"internalType":"bool","name":"","type":"bool"}],"stateMutability":"view","type":"function"},{"inputs":[],"name":"isPayReferral","outputs":[{"internalType":"bool","name":"","type":"bool"}],"stateMutability":"view","type":"function"},{"inputs":[],"name":"isPayRoyaltyClubBonus","outputs":[{"internalType":"bool","name":"","type":"bool"}],"stateMutability":"view","type":"function"},{"inputs":[{"internalType":"uint256","name":"","type":"uint256"}],"name":"levelRates","outputs":[{"internalType":"uint16","name":"","type":"uint16"}],"stateMutability":"view","type":"function"},{"inputs":[],"name":"maxLevels","outputs":[{"internalType":"uint8","name":"","type":"uint8"}],"stateMutability":"view","type":"function"},{"inputs":[],"name":"minContributionUSD","outputs":[{"internalType":"uint256","name":"","type":"uint256"}],"stateMutability":"view","type":"function"},{"inputs":[],"name":"owner","outputs":[{"internalType":"address","name":"","type":"address"}],"stateMutability":"view","type":"function"},{"inputs":[],"name":"packagesCount","outputs":[{"internalType":"uint8","name":"","type":"uint8"}],"stateMutability":"view","type":"function"},{"inputs":[{"internalType":"uint256","name":"_value","type":"uint256"},{"internalType":"uint32","name":"_id","type":"uint32"}],"name":"payReferralAdmin","outputs":[],"stateMutability":"nonpayable","type":"function"},{"inputs":[],"name":"proxiableUUID","outputs":[{"internalType":"bytes32","name":"","type":"bytes32"}],"stateMutability":"view","type":"function"},{"inputs":[],"name":"renounceOwnership","outputs":[],"stateMutability":"nonpayable","type":"function"},{"inputs":[],"name":"royaltyClubPackageCount","outputs":[{"internalType":"uint8","name":"","type":"uint8"}],"stateMutability":"view","type":"function"},{"inputs":[{"internalType":"uint32[]","name":"_id","type":"uint32[]"},{"internalType":"address[]","name":"_userAddress","type":"address[]"}],"name":"setIdOwnerAddressAdmin","outputs":[],"stateMutability":"nonpayable","type":"function"},{"inputs":[{"internalType":"uint16","name":"_value","type":"uint16"}],"name":"setLevelDecimals","outputs":[],"stateMutability":"nonpayable","type":"function"},{"inputs":[{"internalType":"uint8[]","name":"_value","type":"uint8[]"}],"name":"setLevelRates","outputs":[],"stateMutability":"nonpayable","type":"function"},{"inputs":[{"internalType":"uint8","name":"_valueDecimals","type":"uint8"}],"name":"setMaxLevelsAdmin","outputs":[],"stateMutability":"nonpayable","type":"function"},{"inputs":[{"internalType":"address[]","name":"_userAddress","type":"address[]"},{"internalType":"bool[]","name":"_trueOrFalse","type":"bool[]"}],"name":"setVisibilityOfAddressAdmin","outputs":[],"stateMutability":"nonpayable","type":"function"},{"inputs":[{"internalType":"uint32[]","name":"_id","type":"uint32[]"},{"internalType":"bool[]","name":"_trueOrFalse","type":"bool[]"}],"name":"setWithdrawalStatusAdmin","outputs":[],"stateMutability":"nonpayable","type":"function"},{"inputs":[{"internalType":"uint32","name":"_id","type":"uint32"}],"name":"topUpId","outputs":[],"stateMutability":"payable","type":"function"},{"inputs":[],"name":"totalBalanceClaimed","outputs":[{"internalType":"uint256","name":"","type":"uint256"}],"stateMutability":"view","type":"function"},{"inputs":[],"name":"totalIds","outputs":[{"internalType":"uint32","name":"","type":"uint32"}],"stateMutability":"view","type":"function"},{"inputs":[],"name":"totalReferralPaid","outputs":[{"internalType":"uint256","name":"","type":"uint256"}],"stateMutability":"view","type":"function"},{"inputs":[],"name":"totalRoyaltyClubBonusPaid","outputs":[{"internalType":"uint256","name":"","type":"uint256"}],"stateMutability":"view","type":"function"},{"inputs":[{"internalType":"address","name":"newOwner","type":"address"}],"name":"transferOwnership","outputs":[],"stateMutability":"nonpayable","type":"function"},{"inputs":[{"internalType":"uint32","name":"_id","type":"uint32"},{"internalType":"uint256","name":"_value","type":"uint256"}],"name":"updateIdWhenClaimROI","outputs":[],"stateMutability":"nonpayable","type":"function"},{"inputs":[{"internalType":"address","name":"newImplementation","type":"address"}],"name":"upgradeTo","outputs":[],"stateMutability":"nonpayable","type":"function"},{"inputs":[{"internalType":"address","name":"newImplementation","type":"address"},{"internalType":"bytes","name":"data","type":"bytes"}],"name":"upgradeToAndCall","outputs":[],"stateMutability":"payable","type":"function"},{"inputs":[{"internalType":"uint256","name":"","type":"uint256"}],"name":"users","outputs":[{"internalType":"address","name":"","type":"address"}],"stateMutability":"view","type":"function"},{"stateMutability":"payable","type":"receive"}],"evm":{"bytecode":{"linkReferences":{},"object":"60a06040523060805234801561001457600080fd5b50608051615eaa6200004d600039600081816112fa0152818161133a0152818161197f015281816119bf0152611b1b0152615eaa6000f3fe60806040526004361061028c5760003560e01c8063715018a61161015a578063a152b0f0116100c1578063e1c715ba1161007a578063e1c715ba146107d9578063f07690c6146107f9578063f2fde38b14610819578063f41bfeef14610839578063fafc95971461084f578063fb47e0161461087157600080fd5b8063a152b0f01461073a578063a28a36861461074d578063a43ae40814610770578063b580a7a114610790578063bcb93f9b146107a6578063cd21364d146107b957600080fd5b8063852ff2fd11610113578063852ff2fd1461069657806386851e0c146106ac5780638af925dc146106cc5780638da5cb5b146106e65780638f84de85146107045780638f8d20901461071a57600080fd5b8063715018a6146105e95780637879b5ef146105fe5780637bdbf9961461061e5780637c5994861461064b5780637cf97c8c146106615780638129fc1c1461068157600080fd5b8063390a5ba5116101fe57806352d1902d116101b757806352d1902d14610525578063648484ac1461053a5780636ccc10ae1461055a5780636de3a95c1461057a5780636f38e4101461059a5780637084431f146105ba57600080fd5b8063390a5ba5146104455780633eff2def14610477578063498b3e55146104975780634e6e93a3146104b75780634f1ef286146104f2578063509d6c521461050557600080fd5b806322f88b521161025057806322f88b52146103895780632ed421d21461039f578063300825b5146103b5578063313ce567146103d75780633659cfe614610405578063365b98b21461042557600080fd5b8063012da720146102985780631319cff9146102ce57806318e10bff146103065780631f9e65e414610339578063210097891461035c57600080fd5b3661029357005b600080fd5b3480156102a457600080fd5b506102b86102b33660046152ae565b61089e565b6040516102c591906152d1565b60405180910390f35b3480156102da57600080fd5b506102ee6102e936600461531b565b610933565b6040516001600160a01b0390911681526020016102c5565b34801561031257600080fd5b5060d554610327906301000000900460ff1681565b60405160ff90911681526020016102c5565b34801561034557600080fd5b5061034e61095d565b6040519081526020016102c5565b34801561036857600080fd5b5061037c610377366004615346565b61096f565b6040516102c59190615424565b34801561039557600080fd5b5061034e60d05481565b3480156103ab57600080fd5b5061034e60d15481565b3480156103c157600080fd5b506103d56103d0366004615346565b610f50565b005b3480156103e357600080fd5b5060cb546103f29061ffff1681565b60405161ffff90911681526020016102c5565b34801561041157600080fd5b506103d56104203660046156d1565b6112f0565b34801561043157600080fd5b506102ee61044036600461531b565b6113cf565b34801561045157600080fd5b5060cf546104629063ffffffff1681565b60405163ffffffff90911681526020016102c5565b34801561048357600080fd5b506103d56104923660046152ae565b6113df565b3480156104a357600080fd5b506103d56104b23660046156ee565b611405565b3480156104c357600080fd5b506104d76104d2366004615346565b6114ab565b604080519384526020840192909252908201526060016102c5565b6103d5610500366004615734565b611975565b34801561051157600080fd5b506103d56105203660046157f8565b611a41565b34801561053157600080fd5b5061034e611b0e565b34801561054657600080fd5b506103d5610555366004615824565b611bc1565b34801561056657600080fd5b506103d56105753660046157f8565b612078565b34801561058657600080fd5b506103d561059536600461589e565b61211f565b3480156105a657600080fd5b5060cb546103279062010000900460ff1681565b3480156105c657600080fd5b5060d5546105d990610100900460ff1681565b60405190151581526020016102c5565b3480156105f557600080fd5b506103d56123a8565b34801561060a57600080fd5b506103f261061936600461531b565b6123bc565b34801561062a57600080fd5b5061063e6106393660046152ae565b6123f4565b6040516102c5919061590a565b34801561065757600080fd5b5061034e60ce5481565b34801561066d57600080fd5b506103d561067c3660046159b8565b6125f3565b34801561068d57600080fd5b506103d5612929565b3480156106a257600080fd5b5061034e60cd5481565b3480156106b857600080fd5b506103d56106c736600461589e565b612bc1565b3480156106d857600080fd5b5060d5546105d99060ff1681565b3480156106f257600080fd5b506033546001600160a01b03166102ee565b34801561071057600080fd5b5061034e60cc5481565b34801561072657600080fd5b506103d561073536600461589e565b612cec565b6103d5610748366004615346565b612e22565b34801561075957600080fd5b5060cf546103279065010000000000900460ff1681565b34801561077c57600080fd5b506103d561078b366004615a1a565b6130ba565b34801561079c57600080fd5b5061034e60d95481565b6103d56107b4366004615346565b6130da565b3480156107c557600080fd5b5060d5546103279062010000900460ff1681565b3480156107e557600080fd5b506103d56107f4366004615a3e565b61337e565b34801561080557600080fd5b506103d5610814366004615a80565b613392565b34801561082557600080fd5b506103d56108343660046156d1565b6135da565b34801561084557600080fd5b5061034e60d25481565b34801561085b57600080fd5b5060cf546105d990640100000000900460ff1681565b34801561087d57600080fd5b5061089161088c3660046156d1565b613650565b6040516102c59190615a9e565b60ff8116600090815260d8602090815260409182902060090180548351818402810184019094528084526060939283018282801561092757602002820191906000526020600020906000905b82829054906101000a900463ffffffff1663ffffffff16815260200190600401906020826003010492830192600103820291508084116108ea5790505b50505050509050919050565b60d3818154811061094357600080fd5b6000918252602090912001546001600160a01b0316905081565b600061096a60cc546137b6565b905090565b610aa5604051806104800160405280600063ffffffff168152602001606081526020016000815260200160001515815260200160006001600160a01b03168152602001600063ffffffff168152602001600015158152602001606081526020016060815260200160608152602001606081526020016000815260200160008152602001600081526020016000815260200160008152602001600081526020016000815260200160008152602001600060ff168152602001600063ffffffff16815260200160008152602001600081526020016000815260200160008152602001600081526020016000815260200160008152602001606081526020016000815260200160008152602001600081526020016000151581526020016000151581526020016000151581526020016000151581525090565b63ffffffff808316600090815260d76020908152604091829020825161048081019093528054909316825260018301805492939291840191610ae690615ae3565b80601f0160208091040260200160405190810160405280929190818152602001828054610b1290615ae3565b8015610b5f5780601f10610b3457610100808354040283529160200191610b5f565b820191906000526020600020905b815481529060010190602001808311610b4257829003601f168201915b50505091835250506002820154602080830191909152600383015460ff80821615156040808601919091526001600160a01b03610100840416606086015263ffffffff600160a81b8404166080860152600160c81b90920416151560a084015260048401805482518185028101850190935280835260c0909401939192909190830182828015610c3a57602002820191906000526020600020906000905b82829054906101000a900463ffffffff1663ffffffff1681526020019060040190602082600301049283019260010382029150808411610bfd5790505b5050505050815260200160058201805480602002602001604051908101604052809291908181526020018280548015610cbe57602002820191906000526020600020906000905b82829054906101000a900463ffffffff1663ffffffff1681526020019060040190602082600301049283019260010382029150808411610c815790505b5050505050815260200160068201805480602002602001604051908101604052809291908181526020018280548015610d4257602002820191906000526020600020906000905b82829054906101000a900463ffffffff1663ffffffff1681526020019060040190602082600301049283019260010382029150808411610d055790505b5050505050815260200160078201805480602002602001604051908101604052809291908181526020018280548015610d9a57602002820191906000526020600020905b815481526020019060010190808311610d86575b505050918352505060088201546020808301919091526009830154604080840191909152600a8401546060840152600b8401546080840152600c84015460a0840152600d84015460c0840152600e84015460e0840152600f84015461010080850191909152601085015460ff81166101208601520463ffffffff166101408401526011840154610160840152601284015461018084015260138401546101a084015260148401546101c084015260158401546101e084015260168401546102008401526017840154610220840152601884018054825181850281018501909352808352610240909401939192909190830182828015610ee457602002820191906000526020600020906000905b82829054906101000a900463ffffffff1663ffffffff1681526020019060040190602082600301049283019260010382029150808411610ea75790505b505050918352505060198201546020820152601a8201546040820152601b8201546060820152601c9091015460ff8082161515608084015261010082048116151560a08401526201000082048116151560c0840152630100000090910416151560e09091015292915050565b63ffffffff8116600090815260d760205260409081902060c9549151630935e01b60e21b815233600482015290916001600160a01b0316906324d7806c90602401602060405180830381865afa158015610fae573d6000803e3d6000fd5b505050506040513d601f19601f82011682018060405250810190610fd29190615b2b565b61111157600381015461010090046001600160a01b0316331461103c5760405162461bcd60e51b815260206004820152601d60248201527f596f7520617265206e6f74206f776e6572206f6620746869732069642e00000060448201526064015b60405180910390fd5b678ac7230489e8000081601b015410156110a45760405162461bcd60e51b8152602060048201526024808201527f42616c616e6365206973206c657373207468616e206d696e20776974686472616044820152633bb0b61760e11b6064820152608401611033565b601c8101546301000000900460ff166111115760405162461bcd60e51b815260206004820152602960248201527f54686973206964207769746864726177206973206e6f7420656e61626c656420604482015268313c9030b236b4b71760b91b6064820152608401611033565b601b81015460d5546000906064906111329062010000900460ff1684615b5e565b61113c9190615b75565b905060c960009054906101000a90046001600160a01b03166001600160a01b031662f9cc666040518163ffffffff1660e01b8152600401602060405180830381865afa158015611190573d6000803e3d6000fd5b505050506040513d601f19601f820116820180604052508101906111b49190615b97565b6003840154604051633528777d60e11b81526001600160a01b036101009092048216600482015260248101849052911690636a50eefa90604401600060405180830381600087803b15801561120857600080fd5b505af115801561121c573d6000803e3d6000fd5b50505050600383015461010090046001600160a01b03166108fc6112486112438486615bb4565b6137b6565b6040518115909202916000818181858888f19350505050158015611270573d6000803e3d6000fd5b506003830154604080516101009092046001600160a01b0316825263ffffffff8616602083015281018390527fe4e35e8042dd75278192e3907fc781c7cecd755fdbf27ab88c3f3ee36e697e3b9060600160405180910390a18160d960008282546112db9190615bc7565b9250508190555082601b016000905550505050565b6001600160a01b037f00000000000000000000000000000000000000000000000000000000000000001630036113385760405162461bcd60e51b815260040161103390615bda565b7f00000000000000000000000000000000000000000000000000000000000000006001600160a01b0316611381600080516020615e2e833981519152546001600160a01b031690565b6001600160a01b0316146113a75760405162461bcd60e51b815260040161103390615c26565b6113b0816138b4565b604080516000808252602082019092526113cc918391906138bc565b50565b60d4818154811061094357600080fd5b6113e7613a27565b60cb805460ff909216620100000262ff000019909216919091179055565b60c954604051630935e01b60e21b81523360048201526001600160a01b03909116906324d7806c90602401602060405180830381865afa15801561144d573d6000803e3d6000fd5b505050506040513d601f19601f820116820180604052508101906114719190615b2b565b61148d5760405162461bcd60e51b815260040161103390615c72565b60d554610100900460ff16156114a7576114a78282613a81565b5050565b63ffffffff808216600090815260d7602090815260408083208151610480810190925280549094168152600184018054939485948594859493908401916114f190615ae3565b80601f016020809104026020016040519081016040528092919081815260200182805461151d90615ae3565b801561156a5780601f1061153f5761010080835404028352916020019161156a565b820191906000526020600020905b81548152906001019060200180831161154d57829003601f168201915b50505091835250506002820154602080830191909152600383015460ff80821615156040808601919091526001600160a01b03610100840416606086015263ffffffff600160a81b8404166080860152600160c81b90920416151560a084015260048401805482518185028101850190935280835260c090940193919290919083018282801561164557602002820191906000526020600020906000905b82829054906101000a900463ffffffff1663ffffffff16815260200190600401906020826003010492830192600103820291508084116116085790505b50505050508152602001600582018054806020026020016040519081016040528092919081815260200182805480156116c957602002820191906000526020600020906000905b82829054906101000a900463ffffffff1663ffffffff168152602001906004019060208260030104928301926001038202915080841161168c5790505b505050505081526020016006820180548060200260200160405190810160405280929190818152602001828054801561174d57602002820191906000526020600020906000905b82829054906101000a900463ffffffff1663ffffffff16815260200190600401906020826003010492830192600103820291508084116117105790505b50505050508152602001600782018054806020026020016040519081016040528092919081815260200182805480156117a557602002820191906000526020600020905b815481526020019060010190808311611791575b505050918352505060088201546020808301919091526009830154604080840191909152600a8401546060840152600b8401546080840152600c84015460a0840152600d84015460c0840152600e84015460e0840152600f84015461010080850191909152601085015460ff81166101208601520463ffffffff166101408401526011840154610160840152601284015461018084015260138401546101a084015260148401546101c084015260158401546101e0840152601684015461020084015260178401546102208401526018840180548251818502810185019093528083526102409094019391929091908301828280156118ef57602002820191906000526020600020906000905b82829054906101000a900463ffffffff1663ffffffff16815260200190600401906020826003010492830192600103820291508084116118b25790505b505050918352505060198201546020820152601a8201546040820152601b8201546060820152601c9091015460ff8082161515608084015261010082048116151560a08401526201000082048116151560c0840152630100000090910416151560e0909101526102c08101516102e0820151610300909201519097919650945092505050565b6001600160a01b037f00000000000000000000000000000000000000000000000000000000000000001630036119bd5760405162461bcd60e51b815260040161103390615bda565b7f00000000000000000000000000000000000000000000000000000000000000006001600160a01b0316611a06600080516020615e2e833981519152546001600160a01b031690565b6001600160a01b031614611a2c5760405162461bcd60e51b815260040161103390615c26565b611a35826138b4565b6114a7828260016138bc565b60c954604051630935e01b60e21b81523360048201526001600160a01b03909116906324d7806c90602401602060405180830381865afa158015611a89573d6000803e3d6000fd5b505050506040513d601f19601f82011682018060405250810190611aad9190615b2b565b611ac95760405162461bcd60e51b815260040161103390615c72565b63ffffffff8216600090815260d76020526040812042601a82015560198101805491928492611af9908490615bc7565b90915550611b0990508183613e55565b505050565b6000306001600160a01b037f00000000000000000000000000000000000000000000000000000000000000001614611bae5760405162461bcd60e51b815260206004820152603860248201527f555550535570677261646561626c653a206d757374206e6f742062652063616c60448201527f6c6564207468726f7567682064656c656761746563616c6c00000000000000006064820152608401611033565b50600080516020615e2e83398151915290565b60c954604051630935e01b60e21b81523360048201526001600160a01b03909116906324d7806c90602401602060405180830381865afa158015611c09573d6000803e3d6000fd5b505050506040513d601f19601f82011682018060405250810190611c2d9190615b2b565b611c495760405162461bcd60e51b815260040161103390615c72565b63ffffffff818116600090815260d760205260408082206003810154600160a81b90049093168252812060cb5490916201000090910460ff16905b600583015461ffff82161015611ef857600483015461ffff8216108015611cec57508463ffffffff16836004018261ffff1681548110611cc657611cc6615c9e565b6000918252602090912060088204015460079091166004026101000a900463ffffffff16145b15611dc757600483018054611d0390600190615bb4565b81548110611d1357611d13615c9e565b90600052602060002090600891828204019190066004029054906101000a900463ffffffff16836004018261ffff1681548110611d5257611d52615c9e565b90600052602060002090600891828204019190066004026101000a81548163ffffffff021916908363ffffffff16021790555082600401805480611d9857611d98615cb4565b600082815260209020600860001990920191820401805463ffffffff600460078516026101000a021916905590555b8463ffffffff16836005018261ffff1681548110611de757611de7615c9e565b6000918252602090912060088204015460079091166004026101000a900463ffffffff1603611ee657600583018054611e2290600190615bb4565b81548110611e3257611e32615c9e565b90600052602060002090600891828204019190066004029054906101000a900463ffffffff16836005018261ffff1681548110611e7157611e71615c9e565b90600052602060002090600891828204019190066004026101000a81548163ffffffff021916908363ffffffff16021790555082600501805480611eb757611eb7615cb4565b600082815260209020600860001990920191820401805463ffffffff600460078516026101000a021916905590555b80611ef081615cca565b915050611c84565b5060038301805463ffffffff60a81b1916600160a81b63ffffffff88160217905560005b8160ff168160ff1610156120705763ffffffff808716600090815260d76020526040812080549092169003611f515750612070565b8160ff16600003611f9a5760048181018054600181018255600091825260209091206008820401805460079092169092026101000a63ffffffff81810219909216918916021790555b60058101805460018082018355600092835260209092206008820401805460079092166004026101000a63ffffffff81810219909316928a16029190911790556006820190611fea908490615ceb565b81546001810183556000928352602083206008820401805463ffffffff60079093166004026101000a8381021990911660ff9490941602929092179091558254604051908216928a8316928a16917f3ec54e926fe5dd86406fe57832ff318517aed2a5cfbeacfb90a5e9489483ae4b9190a493508061206881615d04565b915050611f1c565b505050505050565b60c954604051630935e01b60e21b81523360048201526001600160a01b03909116906324d7806c90602401602060405180830381865afa1580156120c0573d6000803e3d6000fd5b505050506040513d601f19601f820116820180604052508101906120e49190615b2b565b6121005760405162461bcd60e51b815260040161103390615c72565b63ffffffff8216600090815260d760205260409020611b098183613e55565b60c954604051630935e01b60e21b81523360048201526001600160a01b03909116906324d7806c90602401602060405180830381865afa158015612167573d6000803e3d6000fd5b505050506040513d601f19601f8201168201806040525081019061218b9190615b2b565b6121a75760405162461bcd60e51b815260040161103390615c72565b60005b61ffff81168411156123a15761223b60d7600087878561ffff168181106121d3576121d3615c9e565b90506020020160208101906121e89190615346565b63ffffffff16815260208101919091526040016000206003015461010090046001600160a01b0316868661ffff851681811061222657612226615c9e565b90506020020160208101906108149190615346565b82828261ffff1681811061225157612251615c9e565b905060200201602081019061226691906156d1565b60d7600087878561ffff1681811061228057612280615c9e565b90506020020160208101906122959190615346565b63ffffffff1663ffffffff16815260200190815260200160002060030160016101000a8154816001600160a01b0302191690836001600160a01b0316021790555060d6600084848461ffff168181106122f0576122f0615c9e565b905060200201602081019061230591906156d1565b6001600160a01b03166001600160a01b0316815260200190815260200160002060010185858361ffff1681811061233e5761233e615c9e565b90506020020160208101906123539190615346565b8154600181018355600092835260209092206008830401805460079093166004026101000a63ffffffff8181021990941692909316929092021790558061239981615cca565b9150506121aa565b5050505050565b6123b0613a27565b6123ba6000613edf565b565b60ca81815481106123cc57600080fd5b9060005260206000209060109182820401919006600202915054906101000a900461ffff1681565b61244f604051806101400160405280600060ff16815260200160008152602001600081526020016000815260200160608152602001600081526020016000815260200160008152602001600015158152602001606081525090565b60ff808316600090815260d8602090815260409182902082516101408101845281549094168452600181015491840191909152600281015491830191909152600381015460608301526004810180546080840191906124ad90615ae3565b80601f01602080910402602001604051908101604052809291908181526020018280546124d990615ae3565b80156125265780601f106124fb57610100808354040283529160200191612526565b820191906000526020600020905b81548152906001019060200180831161250957829003601f168201915b505050505081526020016005820154815260200160068201548152602001600782015481526020016008820160009054906101000a900460ff16151515158152602001600982018054806020026020016040519081016040528092919081815260200182805480156125e357602002820191906000526020600020906000905b82829054906101000a900463ffffffff1663ffffffff16815260200190600401906020826003010492830192600103820291508084116125a65790505b5050505050815250509050919050565b60c954604051630935e01b60e21b81523360048201526001600160a01b03909116906324d7806c90602401602060405180830381865afa15801561263b573d6000803e3d6000fd5b505050506040513d601f19601f8201168201806040525081019061265f9190615b2b565b61267b5760405162461bcd60e51b815260040161103390615c72565b60cf546000906126929063ffffffff166001615d23565b6001600160a01b038916600090815260d66020908152604080832063ffffffff8516845260d79092529091209192509042612718828c868d6126dc8e670de0b6b3a7640000615b5e565b6126ee8f670de0b6b3a7640000615b5e565b6126f9906003615b5e565b8e15612705578e612707565b875b60cb5462010000900460ff16613f31565b60d55460ff16156128a25760c954604080516344846f9d60e11b815290516000926001600160a01b031691638908df3a9160048083019260209291908290030181865afa15801561276d573d6000803e3d6000fd5b505050506040513d601f19601f820116820180604052508101906127919190615b97565b6001600160a01b031663d275f14e866127b28d670de0b6b3a7640000615b5e565b8b156127be578b6127c0565b855b8b156127cc578b6127ce565b865b6127db8c62015180615b5e565b6040516001600160e01b031960e088901b16815263ffffffff959095166004860152602485019390935260448401919091526064830152608482015260a4016020604051808303816000875af1158015612839573d6000803e3d6000fd5b505050506040513d601f19601f8201168201806040525081019061285d9190615d47565b601884018054600181018255600091825260209091206008820401805460079092166004026101000a63ffffffff818102199093169390921691909102919091179055505b6001838101805480830182556000918252602082206008820401805460079092166004026101000a63ffffffff8181021990931689841691909102179055855460ff1916909217855560cf805490921691906128fd83615d64565b91906101000a81548163ffffffff021916908363ffffffff160217905550505050505050505050505050565b600054610100900460ff16158080156129495750600054600160ff909116105b806129635750303b158015612963575060005460ff166001145b6129c65760405162461bcd60e51b815260206004820152602e60248201527f496e697469616c697a61626c653a20636f6e747261637420697320616c72656160448201526d191e481a5b9a5d1a585b1a5e995960921b6064820152608401611033565b6000805460ff1916600117905580156129e9576000805461ff0019166101001790555b60c980546001600160a01b031916730b8bf5feb9fca57d9c5d27185ddf3017e99a2d3617905560cb805461ffff19166103e8179055604080516103a08101825260648152604660208201526032918101829052606081018290526080810182905260a0810182905260c0810182905260e08101829052610100810182905261012081018290526101408101829052610160810182905261018081018290526101a081018290526101c081018290526101e08101829052610200810182905261022081018290526102408101919091526014610260820181905261028082018190526102a082018190526102c082018190526102e082018190526103008201819052610320820181905261034082018190526103608201819052610380820152612b169060ca90601d6150e9565b5060cb805462ff000019166232000017905568056bc75e2d6310000060cc5560cf8054660200000000000066ff00ff000000001990911617905560d5805462278d0060d25562ffffff191662140101179055612b706142c8565b612b786142f7565b80156113cc576000805461ff0019169055604051600181527f7f26b83ff96e1f2b6a682f133852f6798a09c465da95921460cefb3847402498906020015b60405180910390a150565b60c954604051630935e01b60e21b81523360048201526001600160a01b03909116906324d7806c90602401602060405180830381865afa158015612c09573d6000803e3d6000fd5b505050506040513d601f19601f82011682018060405250810190612c2d9190615b2b565b612c495760405162461bcd60e51b815260040161103390615c72565b60005b61ffff81168411156123a15782828261ffff16818110612c6e57612c6e615c9e565b9050602002016020810190612c839190615d7d565b60d6600087878561ffff16818110612c9d57612c9d615c9e565b9050602002016020810190612cb291906156d1565b6001600160a01b031681526020810191909152604001600020805460ff191691151591909117905580612ce481615cca565b915050612c4c565b60c954604051630935e01b60e21b81523360048201526001600160a01b03909116906324d7806c90602401602060405180830381865afa158015612d34573d6000803e3d6000fd5b505050506040513d601f19601f82011682018060405250810190612d589190615b2b565b612d745760405162461bcd60e51b815260040161103390615c72565b60005b61ffff81168411156123a15782828261ffff16818110612d9957612d99615c9e565b9050602002016020810190612dae9190615d7d565b60d7600087878561ffff16818110612dc857612dc8615c9e565b9050602002016020810190612ddd9190615346565b63ffffffff1681526020810191909152604001600020601c01805491151563010000000263ff0000001990921691909117905580612e1a81615cca565b915050612d77565b346000612e2e8261431e565b905060cc54811015612e825760405162461bcd60e51b815260206004820152601f60248201527f56616c7565206c657373207468656e206d696e436f6e747269627574696f6e006044820152606401611033565b63ffffffff8316600090815260d7602052604081203391429190612ea7856003615b5e565b82601201548360140154612ebb9190615bb4565b612ec59190615bc7565b90506000600383601401546002612edc9190615b5e565b612ee69190615b75565b836012015410612ef7576000612f2f565b60038360120154600385601401546002612f119190615b5e565b612f1b9190615b75565b612f259190615bb4565b612f2f9190615b75565b9050612f5483868a60008a878a60cb60029054906101000a900460ff1660ff16613f31565b60d55460ff16156130b05760c954604080516344846f9d60e11b815290516000926001600160a01b031691638908df3a9160048083019260209291908290030181865afa158015612fa9573d6000803e3d6000fd5b505050506040513d601f19601f82011682018060405250810190612fcd9190615b97565b6001600160a01b031663d275f14e8a612fe6858b615bc7565b6040516001600160e01b031960e085901b16815263ffffffff9290921660048301526024820152604481018890526064810188905263020f5800608482015260a4016020604051808303816000875af1158015613047573d6000803e3d6000fd5b505050506040513d601f19601f8201168201806040525081019061306b9190615d47565b601885018054600181018255600091825260209091206008820401805460079092166004026101000a63ffffffff818102199093169390921691909102919091179055505b5050505050505050565b6130c2613a27565b60cb805461ffff191661ffff92909216919091179055565b3460006130e68261431e565b905060cc5481101561313a5760405162461bcd60e51b815260206004820152601f60248201527f56616c7565206c657373207468656e206d696e436f6e747269627574696f6e006044820152606401611033565b60cf54339042906000906131559063ffffffff166001615d23565b6001600160a01b038416600090815260d66020908152604080832063ffffffff8516845260d7909252909120919250906131ab8186858b8a613198816003615b5e565b60cb548b9062010000900460ff16613f31565b60d55460ff16156132fa5760c954604080516344846f9d60e11b815290516000926001600160a01b031691638908df3a9160048083019260209291908290030181865afa158015613200573d6000803e3d6000fd5b505050506040513d601f19601f820116820180604052508101906132249190615b97565b60405163693af8a760e11b815263ffffffff8616600482015260248101899052604481018790526064810187905263020f580060848201526001600160a01b03919091169063d275f14e9060a4016020604051808303816000875af1158015613291573d6000803e3d6000fd5b505050506040513d601f19601f820116820180604052508101906132b59190615d47565b601883018054600181018255600091825260209091206008820401805460079092166004026101000a63ffffffff818102199093169390921691909102919091179055505b6001828101805480830182556000918252602082206008820401805460079092166004026101000a63ffffffff8181021990931688841691909102179055845460ff1916909217845560cf8054909216919061335583615d64565b91906101000a81548163ffffffff021916908363ffffffff160217905550505050505050505050565b613386613a27565b611b0960ca8383615191565b60c954604051630935e01b60e21b81523360048201526001600160a01b03909116906324d7806c90602401602060405180830381865afa1580156133da573d6000803e3d6000fd5b505050506040513d601f19601f820116820180604052508101906133fe9190615b2b565b61341a5760405162461bcd60e51b815260040161103390615c72565b6001600160a01b038216600090815260d6602090815260408083206001810180548351818602810186019094528084529194939091908301828280156134ab57602002820191906000526020600020906000905b82829054906101000a900463ffffffff1663ffffffff168152602001906004019060208260030104928301926001038202915080841161346e5790505b5050505050905060005b81518161ffff1610156123a1578363ffffffff16828261ffff16815181106134df576134df615c9e565b602002602001015163ffffffff16036135c85760018084018054909161350491615bb4565b8154811061351457613514615c9e565b90600052602060002090600891828204019190066004029054906101000a900463ffffffff16836001018261ffff168154811061355357613553615c9e565b90600052602060002090600891828204019190066004026101000a81548163ffffffff021916908363ffffffff1602179055508260010180548061359957613599615cb4565b600082815260209020600860001990920191820401805463ffffffff600460078516026101000a021916905590555b806135d281615cca565b9150506134b5565b6135e2613a27565b6001600160a01b0381166136475760405162461bcd60e51b815260206004820152602660248201527f4f776e61626c653a206e6577206f776e657220697320746865207a65726f206160448201526564647265737360d01b6064820152608401611033565b6113cc81613edf565b613676604051806060016040528060001515815260200160608152602001606081525090565b6001600160a01b038216600090815260d660209081526040918290208251606081018452815460ff16151581526001820180548551818602810186019096528086529194929385810193929083018282801561371d57602002820191906000526020600020906000905b82829054906101000a900463ffffffff1663ffffffff16815260200190600401906020826003010492830192600103820291508084116136e05790505b5050505050815260200160028201805461373690615ae3565b80601f016020809104026020016040519081016040528092919081815260200182805461376290615ae3565b80156125e35780601f10613784576101008083540402835291602001916125e3565b820191906000526020600020905b81548152906001019060200180831161379257505050919092525091949350505050565b60008060c960009054906101000a90046001600160a01b03166001600160a01b0316632913497b6040518163ffffffff1660e01b8152600401602060405180830381865afa15801561380c573d6000803e3d6000fd5b505050506040513d601f19601f820116820180604052508101906138309190615b97565b6001600160a01b031663e1aa60366040518163ffffffff1660e01b8152600401602060405180830381865afa15801561386d573d6000803e3d6000fd5b505050506040513d601f19601f820116820180604052508101906138919190615d9a565b6138a384670de0b6b3a7640000615b5e565b6138ad9190615b75565b9392505050565b6113cc613a27565b7f4910fdfa16fed3260ed0e7147f7cc6da11a60208b5b9406d12a635614ffd91435460ff16156138ef57611b098361440c565b826001600160a01b03166352d1902d6040518163ffffffff1660e01b8152600401602060405180830381865afa925050508015613949575060408051601f3d908101601f1916820190925261394691810190615d9a565b60015b6139ac5760405162461bcd60e51b815260206004820152602e60248201527f45524331393637557067726164653a206e657720696d706c656d656e7461746960448201526d6f6e206973206e6f74205555505360901b6064820152608401611033565b600080516020615e2e8339815191528114613a1b5760405162461bcd60e51b815260206004820152602960248201527f45524331393637557067726164653a20756e737570706f727465642070726f786044820152681a58589b195555525160ba1b6064820152608401611033565b50611b098383836144a8565b6033546001600160a01b031633146123ba5760405162461bcd60e51b815260206004820181905260248201527f4f776e61626c653a2063616c6c6572206973206e6f7420746865206f776e65726044820152606401611033565b600060ca805480602002602001604051908101604052809291908181526020018280548015613af757602002820191906000526020600020906000905b82829054906101000a900461ffff1661ffff1681526020019060020190602082600101049283019260010382029150808411613abe5790505b5050835163ffffffff8716600090815260d7602052604081209596509094935091508190505b8360ff168160ff161015613e3557600383015463ffffffff600160a81b9091048116600081815260d760205260408120805492939092169003613bc8576040516f2932b0b1b432b2103a379034b210181760811b81526010015b604051908190039020613b8b846001615ceb565b60ff168363ffffffff167f915ed47901013ad29e90ede828f72888f54bd58cea141b0c6967498165382eb560405160405180910390a45050613e35565b600381015463ffffffff808416600160a81b9092041603613c1b576040517f53656c6620526566657220696420776f6e27742067657420726566657272616c8152601760f91b6020820152602101613b77565b613c24816144d3565b15613c9b5760405172149959995c995c881a5cc8111a5cd8589b1959606a1b8152601301604051908190039020613c5c846001615ceb565b60ff168363ffffffff167f915ed47901013ad29e90ede828f72888f54bd58cea141b0c6967498165382eb560405160405180910390a49350613e239050565b600481015415801590613cde575060cf54600482015460ff80861692600192613cd292660100000000000090920490911690615b5e565b613cdc9190615bb4565b115b15613dab5760cb54875160009161ffff1690899060ff8716908110613d0557613d05615c9e565b602002602001015161ffff168b613d1c9190615b5e565b613d269190615b75565b905080826017016000828254613d3c9190615bc7565b90915550613d4c90508282613e55565b613d568186615bc7565b94508063ffffffff808516908b167ff8fb9b5ab69a0208214661678427c6b48abf457f53605d1f559d17452f1eea11613d90886001615ceb565b60405160ff909116815260200160405180910390a450613e1f565b6040517f446f776e6c696e65206c6576656c73206c696d697420726561636865640000008152601d01604051908190039020613de8846001615ceb565b60ff168363ffffffff167f915ed47901013ad29e90ede828f72888f54bd58cea141b0c6967498165382eb560405160405180910390a45b9350505b80613e2d81615d04565b915050613b1d565b508060ce6000828254613e489190615bc7565b9091555050505050505050565b8160140154818360120154613e6a9190615bc7565b11613ea95780826012016000828254613e839190615bc7565b925050819055508082601b016000828254613e9e9190615bc7565b909155506114a79050565b81601201548260140154613ebd9190615bb4565b82601b016000828254613ed09190615bc7565b909155506114a7905082614654565b603380546001600160a01b038381166001600160a01b0319831681179093556040519116919082907f8be0079c531659141344cd1fd0a4f28419497f9722a3daafe3b4186f6b6457e090600090a35050565b875463ffffffff16600003613f5457875463ffffffff191663ffffffff87161788555b601c88015460ff16613f7057601c8801805460ff191660011790555b600388015460ff16613fd85760d48054600180820183556000929092527f9780e26d96b1f2a9a18ef8fc72d589dbf03ef788137b64f43897e83a91e7feec0180546001600160a01b0319166001600160a01b038a1617905560038901805460ff191690911790555b600388015461010090046001600160a01b031661401257600388018054610100600160a81b0319166101006001600160a01b038a16021790555b876002015460000361402657600288018290555b60006012890155614038600384615b75565b60138901556014880183905560078801805460018101825560009182526020822001859055600889018054869290614071908490615bc7565b909155505060158801829055604080516000815260208101918290525161409c9160188b01916151fc565b50601c8801805463ff0000001916630100000017905560005b818160ff1610156142bd57600389015463ffffffff600160a81b9091048116600081815260d7602052604081208054929390921690036140f65750506142bd565b8260ff166000036141a1578681600a0160008282546141159190615bc7565b909155505060038b0154600160c81b900460ff166141a15760038b01805460ff60c81b1963ffffffff808c16600160a81b029190911664ffffffffff60a81b1990921691909117600160c81b179091556004808301805460018101825560009182526020909120600882040180548d851660079093169093026101000a91820291909302199091161790555b8681600c0160008282546141b59190615bc7565b909155505063ffffffff8816156142895760058101805460018082018355600092835260209092206008820401805460079092166004026101000a63ffffffff81810219909316928d16029190911790556006820190614216908590615ceb565b81546001810183556000928352602083206008820401805463ffffffff60079093166004026101000a8381021990911660ff9490941602929092179091558254604051908216928b8316928d16917f3ec54e926fe5dd86406fe57832ff318517aed2a5cfbeacfb90a5e9489483ae4b9190a45b60cf54640100000000900460ff16156142a7576142a78188876146fc565b99508190506142b581615d04565b9150506140b5565b506130b08483614e56565b600054610100900460ff166142ef5760405162461bcd60e51b815260040161103390615db3565b6123ba614e90565b600054610100900460ff166123ba5760405162461bcd60e51b815260040161103390615db3565b600080670de0b6b3a764000060c960009054906101000a90046001600160a01b03166001600160a01b0316632913497b6040518163ffffffff1660e01b8152600401602060405180830381865afa15801561437d573d6000803e3d6000fd5b505050506040513d601f19601f820116820180604052508101906143a19190615b97565b6001600160a01b031663e1aa60366040518163ffffffff1660e01b8152600401602060405180830381865afa1580156143de573d6000803e3d6000fd5b505050506040513d601f19601f820116820180604052508101906144029190615d9a565b6138a39085615b5e565b6001600160a01b0381163b6144795760405162461bcd60e51b815260206004820152602d60248201527f455243313936373a206e657720696d706c656d656e746174696f6e206973206e60448201526c1bdd08184818dbdb9d1c9858dd609a1b6064820152608401611033565b600080516020615e2e83398151915280546001600160a01b0319166001600160a01b0392909216919091179055565b6144b183614ec0565b6000825111806144be5750805b15611b09576144cd8383614f00565b50505050565b601c81015460009060ff1615806144f257508160140154826012015410155b156144ff57506001919050565b60188201541580159061463f575060c960009054906101000a90046001600160a01b03166001600160a01b0316638908df3a6040518163ffffffff1660e01b8152600401602060405180830381865afa158015614560573d6000803e3d6000fd5b505050506040513d601f19601f820116820180604052508101906145849190615b97565b6001600160a01b03166355332a8583601801600185601801805490506145aa9190615bb4565b815481106145ba576145ba615c9e565b6000918252602090912060088204015460405160e084901b6001600160e01b0319168152600790921660049081026101000a90910463ffffffff1690820152602401602060405180830381865afa158015614619573d6000803e3d6000fd5b505050506040513d601f19601f8201168201806040525081019061463d9190615b2b565b155b1561464c57506001919050565b506000919050565b601c8101805460ff19169055604080516000815260208101918290525161467f9160188401916151fc565b5060006012820181905560138201819055601482015542601682015580546040805163ffffffff9092168252602082018190526011908201527013585e08131a5b5a5d0814995858da1959607a1b60608201527fce8ab8f2ac6a94861f9740fa1fed3e6d13a85dfd8a4833bf96f3a0055ba7fb6f90608001612bb6565b6010830154604080516104808101909152845463ffffffff16815260018501805460ff90931692614ba29291879160208401919061473990615ae3565b80601f016020809104026020016040519081016040528092919081815260200182805461476590615ae3565b80156147b25780601f10614787576101008083540402835291602001916147b2565b820191906000526020600020905b81548152906001019060200180831161479557829003601f168201915b50505091835250506002820154602080830191909152600383015460ff80821615156040808601919091526001600160a01b03610100840416606086015263ffffffff600160a81b8404166080860152600160c81b90920416151560a084015260048401805482518185028101850190935280835260c090940193919290919083018282801561488d57602002820191906000526020600020906000905b82829054906101000a900463ffffffff1663ffffffff16815260200190600401906020826003010492830192600103820291508084116148505790505b505050505081526020016005820180548060200260200160405190810160405280929190818152602001828054801561491157602002820191906000526020600020906000905b82829054906101000a900463ffffffff1663ffffffff16815260200190600401906020826003010492830192600103820291508084116148d45790505b505050505081526020016006820180548060200260200160405190810160405280929190818152602001828054801561499557602002820191906000526020600020906000905b82829054906101000a900463ffffffff1663ffffffff16815260200190600401906020826003010492830192600103820291508084116149585790505b50505050508152602001600782018054806020026020016040519081016040528092919081815260200182805480156149ed57602002820191906000526020600020905b8154815260200190600101908083116149d9575b505050918352505060088201546020808301919091526009830154604080840191909152600a8401546060840152600b8401546080840152600c84015460a0840152600d84015460c0840152600e84015460e0840152600f84015461010080850191909152601085015460ff81166101208601520463ffffffff166101408401526011840154610160840152601284015461018084015260138401546101a084015260148401546101c084015260158401546101e084015260168401546102008401526017840154610220840152601884018054825181850281018501909352808352610240909401939192909190830182828015614b3757602002820191906000526020600020906000905b82829054906101000a900463ffffffff1663ffffffff1681526020019060040190602082600301049283019260010382029150808411614afa5790505b505050918352505060198201546020820152601a8201546040820152601b8201546060820152601c9091015460ff8082161515608084015261010082048116151560a08401526201000082048116151560c0840152630100000090910416151560e090910152614ff6565b60ff161115611b0957604080516104808101909152835463ffffffff168152600184018054614bdd9291869160208401919061473990615ae3565b60108401805460ff191660ff9283169081178255600090815260d860209081526040808320885460099182018054600181810183559187529486206008860401805463ffffffff60079097166004026101000a8781021990911696909316909202949094179055935490941682529290200154614c5a9190615bb4565b60108401805464ffffffff0019811661010063ffffffff948516810291821793849055875460408051918716825291909404909416602084015260ff918216911617918101919091527f4d3af8f60ffd033b575846f894122f2342b39bc9a90da98d0a966128702b568d9060600160405180910390a1604080516104808101909152835463ffffffff16815260018401805460d892600092614d06928891602084019161473990615ae3565b60ff90811682526020820192909252604001600020600801541615614dc557604080516104808101909152835463ffffffff16815260018401805460d892600092614d5b928891602084019161473990615ae3565b60ff1660ff1681526020019081526020016000206007015483600f0154614d829190615bc7565b811115614db1578083600f01819055508183600e016000828254614da69190615bc7565b90915550611b099050565b8183600e016000828254614da69190615bc7565b60cf54640100000000900460ff1615611b0957601083015460ff16600090815260d86020526040902060050154614dfd908490613e55565b601083015460ff908116600090815260d8602052604080822060058101549054875492519194169263ffffffff909216917fdeaf5b294f5016988108257045fc779d7d01e05a4ecdc4df70f62d5a799e053b91a4505050565b60d25460d154614e669190615bc7565b811115614e755760d15560d055565b8160d06000828254614e879190615bc7565b90915550505050565b600054610100900460ff16614eb75760405162461bcd60e51b815260040161103390615db3565b6123ba33613edf565b614ec98161440c565b6040516001600160a01b038216907fbc7cd75a20ee27fd9adebab32041f755214dbc6bffa90cc0225b39da2e5c2d3b90600090a250565b60606001600160a01b0383163b614f685760405162461bcd60e51b815260206004820152602660248201527f416464726573733a2064656c65676174652063616c6c20746f206e6f6e2d636f6044820152651b9d1c9858dd60d21b6064820152608401611033565b600080846001600160a01b031684604051614f839190615dfe565b600060405180830381855af49150503d8060008114614fbe576040519150601f19603f3d011682016040523d82523d6000602084013e614fc3565b606091505b5091509150614feb8282604051806060016040528060278152602001615e4e602791396150ab565b925050505b92915050565b60d5546000906301000000900460ff16815b8160ff168160ff1610156150a45760ff8116600090815260d860205260409020600101546101608501511080159061505a575060ff8116600090815260d860205260409020600201546101a085015110155b8015615080575060ff8116600090815260d860205260409020600301546101e085015110155b1561508d57809250615092565b6150a4565b8061509c81615d04565b915050615008565b5050919050565b606083156150ba5750816138ad565b6138ad83838151156150cf5781518083602001fd5b8060405162461bcd60e51b81526004016110339190615e1a565b82805482825590600052602060002090600f016010900481019282156151815791602002820160005b8382111561515157835183826101000a81548161ffff021916908360ff1602179055509260200192600201602081600101049283019260010302615112565b801561517f5782816101000a81549061ffff0219169055600201602081600101049283019260010302615151565b505b5061518d929150615299565b5090565b82805482825590600052602060002090600f016010900481019282156151815791602002820160005b8382111561515157833560ff1683826101000a81548161ffff021916908360ff16021790555092602001926002016020816001010492830192600103026151ba565b828054828255906000526020600020906007016008900481019282156151815791602002820160005b8382111561526957835183826101000a81548163ffffffff021916908363ffffffff1602179055509260200192600401602081600301049283019260010302615225565b801561517f5782816101000a81549063ffffffff0219169055600401602081600301049283019260010302615269565b5b8082111561518d576000815560010161529a565b6000602082840312156152c057600080fd5b813560ff811681146138ad57600080fd5b6020808252825182820181905260009190848201906040850190845b8181101561530f57835163ffffffff16835292840192918401916001016152ed565b50909695505050505050565b60006020828403121561532d57600080fd5b5035919050565b63ffffffff811681146113cc57600080fd5b60006020828403121561535857600080fd5b81356138ad81615334565b60005b8381101561537e578181015183820152602001615366565b50506000910152565b6000815180845261539f816020860160208601615363565b601f01601f19169290920160200192915050565b600081518084526020808501945080840160005b838110156153e957815163ffffffff16875295820195908201906001016153c7565b509495945050505050565b600081518084526020808501945080840160005b838110156153e957815187529582019590820190600101615408565b6020815261543b60208201835163ffffffff169052565b600060208301516104808060408501526154596104a0850183615387565b9150604085015160608501526060850151615478608086018215159052565b5060808501516001600160a01b03811660a08601525060a085015163ffffffff811660c08601525060c085015180151560e08601525060e0850151601f196101008187860301818801526154cc85846153b3565b9450808801519250506101208187860301818801526154eb85846153b3565b94508088015192505061014081878603018188015261550a85846153b3565b94508088015192505061016081878603018188015261552985846153f4565b90880151610180888101919091528801516101a0808901919091528801516101c0808901919091528801516101e0808901919091528801516102008089019190915288015161022080890191909152880151610240808901919091528801516102608089019190915288015190945091506102806155ab8188018460ff169052565b87015191506102a06155c48782018463ffffffff169052565b8701516102c0878101919091528701516102e080880191909152870151610300808801919091528701516103208088019190915287015161034080880191909152870151610360808801919091528701516103808088019190915287015186850382016103a08089019190915290925061563e85846153b3565b908801516103c0888101919091528801516103e08089019190915288015161040080890191909152880151909450915061042090506156808187018315159052565b86015190506104406156958682018315159052565b86015190506104606156aa8682018315159052565b90950151151593019290925250919050565b6001600160a01b03811681146113cc57600080fd5b6000602082840312156156e357600080fd5b81356138ad816156bc565b6000806040838503121561570157600080fd5b82359150602083013561571381615334565b809150509250929050565b634e487b7160e01b600052604160045260246000fd5b6000806040838503121561574757600080fd5b8235615752816156bc565b9150602083013567ffffffffffffffff8082111561576f57600080fd5b818501915085601f83011261578357600080fd5b8135818111156157955761579561571e565b604051601f8201601f19908116603f011681019083821181831017156157bd576157bd61571e565b816040528281528860208487010111156157d657600080fd5b8260208601602083013760006020848301015280955050505050509250929050565b6000806040838503121561580b57600080fd5b823561581681615334565b946020939093013593505050565b6000806040838503121561583757600080fd5b823561584281615334565b9150602083013561571381615334565b60008083601f84011261586457600080fd5b50813567ffffffffffffffff81111561587c57600080fd5b6020830191508360208260051b850101111561589757600080fd5b9250929050565b600080600080604085870312156158b457600080fd5b843567ffffffffffffffff808211156158cc57600080fd5b6158d888838901615852565b909650945060208701359150808211156158f157600080fd5b506158fe87828801615852565b95989497509550505050565b6020815261591e60208201835160ff169052565b602082015160408201526040820151606082015260608201516080820152600060808301516101408060a085015261595a610160850183615387565b915060a085015160c085015260c085015160e085015260e08501516101008181870152808701519150506101206159948187018315159052565b860151858403601f19018387015290506159ae83826153b3565b9695505050505050565b600080600080600080600060e0888a0312156159d357600080fd5b87356159de816156bc565b965060208801356159ee81615334565b96999698505050506040850135946060810135946080820135945060a0820135935060c0909101359150565b600060208284031215615a2c57600080fd5b813561ffff811681146138ad57600080fd5b60008060208385031215615a5157600080fd5b823567ffffffffffffffff811115615a6857600080fd5b615a7485828601615852565b90969095509350505050565b60008060408385031215615a9357600080fd5b8235615842816156bc565b602081528151151560208201526000602083015160606040840152615ac660808401826153b3565b90506040840151601f19848303016060850152614feb8282615387565b600181811c90821680615af757607f821691505b602082108103615b1757634e487b7160e01b600052602260045260246000fd5b50919050565b80151581146113cc57600080fd5b600060208284031215615b3d57600080fd5b81516138ad81615b1d565b634e487b7160e01b600052601160045260246000fd5b8082028115828204841417614ff057614ff0615b48565b600082615b9257634e487b7160e01b600052601260045260246000fd5b500490565b600060208284031215615ba957600080fd5b81516138ad816156bc565b81810381811115614ff057614ff0615b48565b80820180821115614ff057614ff0615b48565b6020808252602c908201527f46756e6374696f6e206d7573742062652063616c6c6564207468726f7567682060408201526b19195b1959d85d1958d85b1b60a21b606082015260800190565b6020808252602c908201527f46756e6374696f6e206d7573742062652063616c6c6564207468726f7567682060408201526b6163746976652070726f787960a01b606082015260800190565b6020808252601290820152712cb7ba9030b932903737ba1030b236b4b71760711b604082015260600190565b634e487b7160e01b600052603260045260246000fd5b634e487b7160e01b600052603160045260246000fd5b600061ffff808316818103615ce157615ce1615b48565b6001019392505050565b60ff8181168382160190811115614ff057614ff0615b48565b600060ff821660ff8103615d1a57615d1a615b48565b60010192915050565b63ffffffff818116838216019080821115615d4057615d40615b48565b5092915050565b600060208284031215615d5957600080fd5b81516138ad81615334565b600063ffffffff808316818103615ce157615ce1615b48565b600060208284031215615d8f57600080fd5b81356138ad81615b1d565b600060208284031215615dac57600080fd5b5051919050565b6020808252602b908201527f496e697469616c697a61626c653a20636f6e7472616374206973206e6f74206960408201526a6e697469616c697a696e6760a81b606082015260800190565b60008251615e10818460208701615363565b9190910192915050565b6020815260006138ad602083018461538756fe360894a13ba1a3210667c828492db98dca3e2076cc3735a920a3ca505d382bbc416464726573733a206c6f772d6c6576656c2064656c65676174652063616c6c206661696c6564a2646970667358221220a902a4cc06d128c741c874a0bb568dfa12e2456a0927b2673a58b50cd4b78ce164736f6c63430008120033","opcodes":"PUSH1 0xA0 PUSH1 0x40 MSTORE ADDRESS PUSH1 0x80 MSTORE CALLVALUE DUP1 ISZERO PUSH2 0x14 JUMPI PUSH1 0x0 DUP1 REVERT JUMPDEST POP PUSH1 0x80 MLOAD PUSH2 0x5EAA PUSH3 0x4D PUSH1 0x0 CODECOPY PUSH1 0x0 DUP2 DUP2 PUSH2 0x12FA ADD MSTORE DUP2 DUP2 PUSH2 0x133A ADD MSTORE DUP2 DUP2 PUSH2 0x197F ADD MSTORE DUP2 DUP2 PUSH2 0x19BF ADD MSTORE PUSH2 0x1B1B ADD MSTORE PUSH2 0x5EAA PUSH1 0x0 RETURN INVALID PUSH1 0x80 PUSH1 0x40 MSTORE PUSH1 0x4 CALLDATASIZE LT PUSH2 0x28C JUMPI PUSH1 0x0 CALLDATALOAD PUSH1 0xE0 SHR DUP1 PUSH4 0x715018A6 GT PUSH2 0x15A JUMPI DUP1 PUSH4 0xA152B0F0 GT PUSH2 0xC1 JUMPI DUP1 PUSH4 0xE1C715BA GT PUSH2 0x7A JUMPI DUP1 PUSH4 0xE1C715BA EQ PUSH2 0x7D9 JUMPI DUP1 PUSH4 0xF07690C6 EQ PUSH2 0x7F9 JUMPI DUP1 PUSH4 0xF2FDE38B EQ PUSH2 0x819 JUMPI DUP1 PUSH4 0xF41BFEEF EQ PUSH2 0x839 JUMPI DUP1 PUSH4 0xFAFC9597 EQ PUSH2 0x84F JUMPI DUP1 PUSH4 0xFB47E016 EQ PUSH2 0x871 JUMPI PUSH1 0x0 DUP1 REVERT JUMPDEST DUP1 PUSH4 0xA152B0F0 EQ PUSH2 0x73A JUMPI DUP1 PUSH4 0xA28A3686 EQ PUSH2 0x74D JUMPI DUP1 PUSH4 0xA43AE408 EQ PUSH2 0x770 JUMPI DUP1 PUSH4 0xB580A7A1 EQ PUSH2 0x790 JUMPI DUP1 PUSH4 0xBCB93F9B EQ PUSH2 0x7A6 JUMPI DUP1 PUSH4 0xCD21364D EQ PUSH2 0x7B9 JUMPI PUSH1 0x0 DUP1 REVERT JUMPDEST DUP1 PUSH4 0x852FF2FD GT PUSH2 0x113 JUMPI DUP1 PUSH4 0x852FF2FD EQ PUSH2 0x696 JUMPI DUP1 PUSH4 0x86851E0C EQ PUSH2 0x6AC JUMPI DUP1 PUSH4 0x8AF925DC EQ PUSH2 0x6CC JUMPI DUP1 PUSH4 0x8DA5CB5B EQ PUSH2 0x6E6 JUMPI DUP1 PUSH4 0x8F84DE85 EQ PUSH2 0x704 JUMPI DUP1 PUSH4 0x8F8D2090 EQ PUSH2 0x71A JUMPI PUSH1 0x0 DUP1 REVERT JUMPDEST DUP1 PUSH4 0x715018A6 EQ PUSH2 0x5E9 JUMPI DUP1 PUSH4 0x7879B5EF EQ PUSH2 0x5FE JUMPI DUP1 PUSH4 0x7BDBF996 EQ PUSH2 0x61E JUMPI DUP1 PUSH4 0x7C599486 EQ PUSH2 0x64B JUMPI DUP1 PUSH4 0x7CF97C8C EQ PUSH2 0x661 JUMPI DUP1 PUSH4 0x8129FC1C EQ PUSH2 0x681 JUMPI PUSH1 0x0 DUP1 REVERT JUMPDEST DUP1 PUSH4 0x390A5BA5 GT PUSH2 0x1FE JUMPI DUP1 PUSH4 0x52D1902D GT PUSH2 0x1B7 JUMPI DUP1 PUSH4 0x52D1902D EQ PUSH2 0x525 JUMPI DUP1 PUSH4 0x648484AC EQ PUSH2 0x53A JUMPI DUP1 PUSH4 0x6CCC10AE EQ PUSH2 0x55A JUMPI DUP1 PUSH4 0x6DE3A95C EQ PUSH2 0x57A JUMPI DUP1 PUSH4 0x6F38E410 EQ PUSH2 0x59A JUMPI DUP1 PUSH4 0x7084431F EQ PUSH2 0x5BA JUMPI PUSH1 0x0 DUP1 REVERT JUMPDEST DUP1 PUSH4 0x390A5BA5 EQ PUSH2 0x445 JUMPI DUP1 PUSH4 0x3EFF2DEF EQ PUSH2 0x477 JUMPI DUP1 PUSH4 0x498B3E55 EQ PUSH2 0x497 JUMPI DUP1 PUSH4 0x4E6E93A3 EQ PUSH2 0x4B7 JUMPI DUP1 PUSH4 0x4F1EF286 EQ PUSH2 0x4F2 JUMPI DUP1 PUSH4 0x509D6C52 EQ PUSH2 0x505 JUMPI PUSH1 0x0 DUP1 REVERT JUMPDEST DUP1 PUSH4 0x22F88B52 GT PUSH2 0x250 JUMPI DUP1 PUSH4 0x22F88B52 EQ PUSH2 0x389 JUMPI DUP1 PUSH4 0x2ED421D2 EQ PUSH2 0x39F JUMPI DUP1 PUSH4 0x300825B5 EQ PUSH2 0x3B5 JUMPI DUP1 PUSH4 0x313CE567 EQ PUSH2 0x3D7 JUMPI DUP1 PUSH4 0x3659CFE6 EQ PUSH2 0x405 JUMPI DUP1 PUSH4 0x365B98B2 EQ PUSH2 0x425 JUMPI PUSH1 0x0 DUP1 REVERT JUMPDEST DUP1 PUSH4 0x12DA720 EQ PUSH2 0x298 JUMPI DUP1 PUSH4 0x1319CFF9 EQ PUSH2 0x2CE JUMPI DUP1 PUSH4 0x18E10BFF EQ PUSH2 0x306 JUMPI DUP1 PUSH4 0x1F9E65E4 EQ PUSH2 0x339 JUMPI DUP1 PUSH4 0x21009789 EQ PUSH2 0x35C JUMPI PUSH1 0x0 DUP1 REVERT JUMPDEST CALLDATASIZE PUSH2 0x293 JUMPI STOP JUMPDEST PUSH1 0x0 DUP1 REVERT JUMPDEST CALLVALUE DUP1 ISZERO PUSH2 0x2A4 JUMPI PUSH1 0x0 DUP1 REVERT JUMPDEST POP PUSH2 0x2B8 PUSH2 0x2B3 CALLDATASIZE PUSH1 0x4 PUSH2 0x52AE JUMP JUMPDEST PUSH2 0x89E JUMP JUMPDEST PUSH1 0x40 MLOAD PUSH2 0x2C5 SWAP2 SWAP1 PUSH2 0x52D1 JUMP JUMPDEST PUSH1 0x40 MLOAD DUP1 SWAP2 SUB SWAP1 RETURN JUMPDEST CALLVALUE DUP1 ISZERO PUSH2 0x2DA JUMPI PUSH1 0x0 DUP1 REVERT JUMPDEST POP PUSH2 0x2EE PUSH2 0x2E9 CALLDATASIZE PUSH1 0x4 PUSH2 0x531B JUMP JUMPDEST PUSH2 0x933 JUMP JUMPDEST PUSH1 0x40 MLOAD PUSH1 0x1 PUSH1 0x1 PUSH1 0xA0 SHL SUB SWAP1 SWAP2 AND DUP2 MSTORE PUSH1 0x20 ADD PUSH2 0x2C5 JUMP JUMPDEST CALLVALUE DUP1 ISZERO PUSH2 0x312 JUMPI PUSH1 0x0 DUP1 REVERT JUMPDEST POP PUSH1 0xD5 SLOAD PUSH2 0x327 SWAP1 PUSH4 0x1000000 SWAP1 DIV PUSH1 0xFF AND DUP2 JUMP JUMPDEST PUSH1 0x40 MLOAD PUSH1 0xFF SWAP1 SWAP2 AND DUP2 MSTORE PUSH1 0x20 ADD PUSH2 0x2C5 JUMP JUMPDEST CALLVALUE DUP1 ISZERO PUSH2 0x345 JUMPI PUSH1 0x0 DUP1 REVERT JUMPDEST POP PUSH2 0x34E PUSH2 0x95D JUMP JUMPDEST PUSH1 0x40 MLOAD SWAP1 DUP2 MSTORE PUSH1 0x20 ADD PUSH2 0x2C5 JUMP JUMPDEST CALLVALUE DUP1 ISZERO PUSH2 0x368 JUMPI PUSH1 0x0 DUP1 REVERT JUMPDEST POP PUSH2 0x37C PUSH2 0x377 CALLDATASIZE PUSH1 0x4 PUSH2 0x5346 JUMP JUMPDEST PUSH2 0x96F JUMP JUMPDEST PUSH1 0x40 MLOAD PUSH2 0x2C5 SWAP2 SWAP1 PUSH2 0x5424 JUMP JUMPDEST CALLVALUE DUP1 ISZERO PUSH2 0x395 JUMPI PUSH1 0x0 DUP1 REVERT JUMPDEST POP PUSH2 0x34E PUSH1 0xD0 SLOAD DUP2 JUMP JUMPDEST CALLVALUE DUP1 ISZERO PUSH2 0x3AB JUMPI PUSH1 0x0 DUP1 REVERT JUMPDEST POP PUSH2 0x34E PUSH1 0xD1 SLOAD DUP2 JUMP JUMPDEST CALLVALUE DUP1 ISZERO PUSH2 0x3C1 JUMPI PUSH1 0x0 DUP1 REVERT JUMPDEST POP PUSH2 0x3D5 PUSH2 0x3D0 CALLDATASIZE PUSH1 0x4 PUSH2 0x5346 JUMP JUMPDEST PUSH2 0xF50 JUMP JUMPDEST STOP JUMPDEST CALLVALUE DUP1 ISZERO PUSH2 0x3E3 JUMPI PUSH1 0x0 DUP1 REVERT JUMPDEST POP PUSH1 0xCB SLOAD PUSH2 0x3F2 SWAP1 PUSH2 0xFFFF AND DUP2 JUMP JUMPDEST PUSH1 0x40 MLOAD PUSH2 0xFFFF SWAP1 SWAP2 AND DUP2 MSTORE PUSH1 0x20 ADD PUSH2 0x2C5 JUMP JUMPDEST CALLVALUE DUP1 ISZERO PUSH2 0x411 JUMPI PUSH1 0x0 DUP1 REVERT JUMPDEST POP PUSH2 0x3D5 PUSH2 0x420 CALLDATASIZE PUSH1 0x4 PUSH2 0x56D1 JUMP JUMPDEST PUSH2 0x12F0 JUMP JUMPDEST CALLVALUE DUP1 ISZERO PUSH2 0x431 JUMPI PUSH1 0x0 DUP1 REVERT JUMPDEST POP PUSH2 0x2EE PUSH2 0x440 CALLDATASIZE PUSH1 0x4 PUSH2 0x531B JUMP JUMPDEST PUSH2 0x13CF JUMP JUMPDEST CALLVALUE DUP1 ISZERO PUSH2 0x451 JUMPI PUSH1 0x0 DUP1 REVERT JUMPDEST POP PUSH1 0xCF SLOAD PUSH2 0x462 SWAP1 PUSH4 0xFFFFFFFF AND DUP2 JUMP JUMPDEST PUSH1 0x40 MLOAD PUSH4 0xFFFFFFFF SWAP1 SWAP2 AND DUP2 MSTORE PUSH1 0x20 ADD PUSH2 0x2C5 JUMP JUMPDEST CALLVALUE DUP1 ISZERO PUSH2 0x483 JUMPI PUSH1 0x0 DUP1 REVERT JUMPDEST POP PUSH2 0x3D5 PUSH2 0x492 CALLDATASIZE PUSH1 0x4 PUSH2 0x52AE JUMP JUMPDEST PUSH2 0x13DF JUMP JUMPDEST CALLVALUE DUP1 ISZERO PUSH2 0x4A3 JUMPI PUSH1 0x0 DUP1 REVERT JUMPDEST POP PUSH2 0x3D5 PUSH2 0x4B2 CALLDATASIZE PUSH1 0x4 PUSH2 0x56EE JUMP JUMPDEST PUSH2 0x1405 JUMP JUMPDEST CALLVALUE DUP1 ISZERO PUSH2 0x4C3 JUMPI PUSH1 0x0 DUP1 REVERT JUMPDEST POP PUSH2 0x4D7 PUSH2 0x4D2 CALLDATASIZE PUSH1 0x4 PUSH2 0x5346 JUMP JUMPDEST PUSH2 0x14AB JUMP JUMPDEST PUSH1 0x40 DUP1 MLOAD SWAP4 DUP5 MSTORE PUSH1 0x20 DUP5 ADD SWAP3 SWAP1 SWAP3 MSTORE SWAP1 DUP3 ADD MSTORE PUSH1 0x60 ADD PUSH2 0x2C5 JUMP JUMPDEST PUSH2 0x3D5 PUSH2 0x500 CALLDATASIZE PUSH1 0x4 PUSH2 0x5734 JUMP JUMPDEST PUSH2 0x1975 JUMP JUMPDEST CALLVALUE DUP1 ISZERO PUSH2 0x511 JUMPI PUSH1 0x0 DUP1 REVERT JUMPDEST POP PUSH2 0x3D5 PUSH2 0x520 CALLDATASIZE PUSH1 0x4 PUSH2 0x57F8 JUMP JUMPDEST PUSH2 0x1A41 JUMP JUMPDEST CALLVALUE DUP1 ISZERO PUSH2 0x531 JUMPI PUSH1 0x0 DUP1 REVERT JUMPDEST POP PUSH2 0x34E PUSH2 0x1B0E JUMP JUMPDEST CALLVALUE DUP1 ISZERO PUSH2 0x546 JUMPI PUSH1 0x0 DUP1 REVERT JUMPDEST POP PUSH2 0x3D5 PUSH2 0x555 CALLDATASIZE PUSH1 0x4 PUSH2 0x5824 JUMP JUMPDEST PUSH2 0x1BC1 JUMP JUMPDEST CALLVALUE DUP1 ISZERO PUSH2 0x566 JUMPI PUSH1 0x0 DUP1 REVERT JUMPDEST POP PUSH2 0x3D5 PUSH2 0x575 CALLDATASIZE PUSH1 0x4 PUSH2 0x57F8 JUMP JUMPDEST PUSH2 0x2078 JUMP JUMPDEST CALLVALUE DUP1 ISZERO PUSH2 0x586 JUMPI PUSH1 0x0 DUP1 REVERT JUMPDEST POP PUSH2 0x3D5 PUSH2 0x595 CALLDATASIZE PUSH1 0x4 PUSH2 0x589E JUMP JUMPDEST PUSH2 0x211F JUMP JUMPDEST CALLVALUE DUP1 ISZERO PUSH2 0x5A6 JUMPI PUSH1 0x0 DUP1 REVERT JUMPDEST POP PUSH1 0xCB SLOAD PUSH2 0x327 SWAP1 PUSH3 0x10000 SWAP1 DIV PUSH1 0xFF AND DUP2 JUMP JUMPDEST CALLVALUE DUP1 ISZERO PUSH2 0x5C6 JUMPI PUSH1 0x0 DUP1 REVERT JUMPDEST POP PUSH1 0xD5 SLOAD PUSH2 0x5D9 SWAP1 PUSH2 0x100 SWAP1 DIV PUSH1 0xFF AND DUP2 JUMP JUMPDEST PUSH1 0x40 MLOAD SWAP1 ISZERO ISZERO DUP2 MSTORE PUSH1 0x20 ADD PUSH2 0x2C5 JUMP JUMPDEST CALLVALUE DUP1 ISZERO PUSH2 0x5F5 JUMPI PUSH1 0x0 DUP1 REVERT JUMPDEST POP PUSH2 0x3D5 PUSH2 0x23A8 JUMP JUMPDEST CALLVALUE DUP1 ISZERO PUSH2 0x60A JUMPI PUSH1 0x0 DUP1 REVERT JUMPDEST POP PUSH2 0x3F2 PUSH2 0x619 CALLDATASIZE PUSH1 0x4 PUSH2 0x531B JUMP JUMPDEST PUSH2 0x23BC JUMP JUMPDEST CALLVALUE DUP1 ISZERO PUSH2 0x62A JUMPI PUSH1 0x0 DUP1 REVERT JUMPDEST POP PUSH2 0x63E PUSH2 0x639 CALLDATASIZE PUSH1 0x4 PUSH2 0x52AE JUMP JUMPDEST PUSH2 0x23F4 JUMP JUMPDEST PUSH1 0x40 MLOAD PUSH2 0x2C5 SWAP2 SWAP1 PUSH2 0x590A JUMP JUMPDEST CALLVALUE DUP1 ISZERO PUSH2 0x657 JUMPI PUSH1 0x0 DUP1 REVERT JUMPDEST POP PUSH2 0x34E PUSH1 0xCE SLOAD DUP2 JUMP JUMPDEST CALLVALUE DUP1 ISZERO PUSH2 0x66D JUMPI PUSH1 0x0 DUP1 REVERT JUMPDEST POP PUSH2 0x3D5 PUSH2 0x67C CALLDATASIZE PUSH1 0x4 PUSH2 0x59B8 JUMP JUMPDEST PUSH2 0x25F3 JUMP JUMPDEST CALLVALUE DUP1 ISZERO PUSH2 0x68D JUMPI PUSH1 0x0 DUP1 REVERT JUMPDEST POP PUSH2 0x3D5 PUSH2 0x2929 JUMP JUMPDEST CALLVALUE DUP1 ISZERO PUSH2 0x6A2 JUMPI PUSH1 0x0 DUP1 REVERT JUMPDEST POP PUSH2 0x34E PUSH1 0xCD SLOAD DUP2 JUMP JUMPDEST CALLVALUE DUP1 ISZERO PUSH2 0x6B8 JUMPI PUSH1 0x0 DUP1 REVERT JUMPDEST POP PUSH2 0x3D5 PUSH2 0x6C7 CALLDATASIZE PUSH1 0x4 PUSH2 0x589E JUMP JUMPDEST PUSH2 0x2BC1 JUMP JUMPDEST CALLVALUE DUP1 ISZERO PUSH2 0x6D8 JUMPI PUSH1 0x0 DUP1 REVERT JUMPDEST POP PUSH1 0xD5 SLOAD PUSH2 0x5D9 SWAP1 PUSH1 0xFF AND DUP2 JUMP JUMPDEST CALLVALUE DUP1 ISZERO PUSH2 0x6F2 JUMPI PUSH1 0x0 DUP1 REVERT JUMPDEST POP PUSH1 0x33 SLOAD PUSH1 0x1 PUSH1 0x1 PUSH1 0xA0 SHL SUB AND PUSH2 0x2EE JUMP JUMPDEST CALLVALUE DUP1 ISZERO PUSH2 0x710 JUMPI PUSH1 0x0 DUP1 REVERT JUMPDEST POP PUSH2 0x34E PUSH1 0xCC SLOAD DUP2 JUMP JUMPDEST CALLVALUE DUP1 ISZERO PUSH2 0x726 JUMPI PUSH1 0x0 DUP1 REVERT JUMPDEST POP PUSH2 0x3D5 PUSH2 0x735 CALLDATASIZE PUSH1 0x4 PUSH2 0x589E JUMP JUMPDEST PUSH2 0x2CEC JUMP JUMPDEST PUSH2 0x3D5 PUSH2 0x748 CALLDATASIZE PUSH1 0x4 PUSH2 0x5346 JUMP JUMPDEST PUSH2 0x2E22 JUMP JUMPDEST CALLVALUE DUP1 ISZERO PUSH2 0x759 JUMPI PUSH1 0x0 DUP1 REVERT JUMPDEST POP PUSH1 0xCF SLOAD PUSH2 0x327 SWAP1 PUSH6 0x10000000000 SWAP1 DIV PUSH1 0xFF AND DUP2 JUMP JUMPDEST CALLVALUE DUP1 ISZERO PUSH2 0x77C JUMPI PUSH1 0x0 DUP1 REVERT JUMPDEST POP PUSH2 0x3D5 PUSH2 0x78B CALLDATASIZE PUSH1 0x4 PUSH2 0x5A1A JUMP JUMPDEST PUSH2 0x30BA JUMP JUMPDEST CALLVALUE DUP1 ISZERO PUSH2 0x79C JUMPI PUSH1 0x0 DUP1 REVERT JUMPDEST POP PUSH2 0x34E PUSH1 0xD9 SLOAD DUP2 JUMP JUMPDEST PUSH2 0x3D5 PUSH2 0x7B4 CALLDATASIZE PUSH1 0x4 PUSH2 0x5346 JUMP JUMPDEST PUSH2 0x30DA JUMP JUMPDEST CALLVALUE DUP1 ISZERO PUSH2 0x7C5 JUMPI PUSH1 0x0 DUP1 REVERT JUMPDEST POP PUSH1 0xD5 SLOAD PUSH2 0x327 SWAP1 PUSH3 0x10000 SWAP1 DIV PUSH1 0xFF AND DUP2 JUMP JUMPDEST CALLVALUE DUP1 ISZERO PUSH2 0x7E5 JUMPI PUSH1 0x0 DUP1 REVERT JUMPDEST POP PUSH2 0x3D5 PUSH2 0x7F4 CALLDATASIZE PUSH1 0x4 PUSH2 0x5A3E JUMP JUMPDEST PUSH2 0x337E JUMP JUMPDEST CALLVALUE DUP1 ISZERO PUSH2 0x805 JUMPI PUSH1 0x0 DUP1 REVERT JUMPDEST POP PUSH2 0x3D5 PUSH2 0x814 CALLDATASIZE PUSH1 0x4 PUSH2 0x5A80 JUMP JUMPDEST PUSH2 0x3392 JUMP JUMPDEST CALLVALUE DUP1 ISZERO PUSH2 0x825 JUMPI PUSH1 0x0 DUP1 REVERT JUMPDEST POP PUSH2 0x3D5 PUSH2 0x834 CALLDATASIZE PUSH1 0x4 PUSH2 0x56D1 JUMP JUMPDEST PUSH2 0x35DA JUMP JUMPDEST CALLVALUE DUP1 ISZERO PUSH2 0x845 JUMPI PUSH1 0x0 DUP1 REVERT JUMPDEST POP PUSH2 0x34E PUSH1 0xD2 SLOAD DUP2 JUMP JUMPDEST CALLVALUE DUP1 ISZERO PUSH2 0x85B JUMPI PUSH1 0x0 DUP1 REVERT JUMPDEST POP PUSH1 0xCF SLOAD PUSH2 0x5D9 SWAP1 PUSH5 0x100000000 SWAP1 DIV PUSH1 0xFF AND DUP2 JUMP JUMPDEST CALLVALUE DUP1 ISZERO PUSH2 0x87D JUMPI PUSH1 0x0 DUP1 REVERT JUMPDEST POP PUSH2 0x891 PUSH2 0x88C CALLDATASIZE PUSH1 0x4 PUSH2 0x56D1 JUMP JUMPDEST PUSH2 0x3650 JUMP JUMPDEST PUSH1 0x40 MLOAD PUSH2 0x2C5 SWAP2 SWAP1 PUSH2 0x5A9E JUMP JUMPDEST PUSH1 0xFF DUP2 AND PUSH1 0x0 SWAP1 DUP2 MSTORE PUSH1 0xD8 PUSH1 0x20 SWAP1 DUP2 MSTORE PUSH1 0x40 SWAP2 DUP3 SWAP1 KECCAK256 PUSH1 0x9 ADD DUP1 SLOAD DUP4 MLOAD DUP2 DUP5 MUL DUP2 ADD DUP5 ADD SWAP1 SWAP5 MSTORE DUP1 DUP5 MSTORE PUSH1 0x60 SWAP4 SWAP3 DUP4 ADD DUP3 DUP3 DUP1 ISZERO PUSH2 0x927 JUMPI PUSH1 0x20 MUL DUP3 ADD SWAP2 SWAP1 PUSH1 0x0 MSTORE PUSH1 0x20 PUSH1 0x0 KECCAK256 SWAP1 PUSH1 0x0 SWAP1 JUMPDEST DUP3 DUP3 SWAP1 SLOAD SWAP1 PUSH2 0x100 EXP SWAP1 DIV PUSH4 0xFFFFFFFF AND PUSH4 0xFFFFFFFF AND DUP2 MSTORE PUSH1 0x20 ADD SWAP1 PUSH1 0x4 ADD SWAP1 PUSH1 0x20 DUP3 PUSH1 0x3 ADD DIV SWAP3 DUP4 ADD SWAP3 PUSH1 0x1 SUB DUP3 MUL SWAP2 POP DUP1 DUP5 GT PUSH2 0x8EA JUMPI SWAP1 POP JUMPDEST POP POP POP POP POP SWAP1 POP SWAP2 SWAP1 POP JUMP JUMPDEST PUSH1 0xD3 DUP2 DUP2 SLOAD DUP2 LT PUSH2 0x943 JUMPI PUSH1 0x0 DUP1 REVERT JUMPDEST PUSH1 0x0 SWAP2 DUP3 MSTORE PUSH1 0x20 SWAP1 SWAP2 KECCAK256 ADD SLOAD PUSH1 0x1 PUSH1 0x1 PUSH1 0xA0 SHL SUB AND SWAP1 POP DUP2 JUMP JUMPDEST PUSH1 0x0 PUSH2 0x96A PUSH1 0xCC SLOAD PUSH2 0x37B6 JUMP JUMPDEST SWAP1 POP SWAP1 JUMP JUMPDEST PUSH2 0xAA5 PUSH1 0x40 MLOAD DUP1 PUSH2 0x480 ADD PUSH1 0x40 MSTORE DUP1 PUSH1 0x0 PUSH4 0xFFFFFFFF AND DUP2 MSTORE PUSH1 0x20 ADD PUSH1 0x60 DUP2 MSTORE PUSH1 0x20 ADD PUSH1 0x0 DUP2 MSTORE PUSH1 0x20 ADD PUSH1 0x0 ISZERO ISZERO DUP2 MSTORE PUSH1 0x20 ADD PUSH1 0x0 PUSH1 0x1 PUSH1 0x1 PUSH1 0xA0 SHL SUB AND DUP2 MSTORE PUSH1 0x20 ADD PUSH1 0x0 PUSH4 0xFFFFFFFF AND DUP2 MSTORE PUSH1 0x20 ADD PUSH1 0x0 ISZERO ISZERO DUP2 MSTORE PUSH1 0x20 ADD PUSH1 0x60 DUP2 MSTORE PUSH1 0x20 ADD PUSH1 0x60 DUP2 MSTORE PUSH1 0x20 ADD PUSH1 0x60 DUP2 MSTORE PUSH1 0x20 ADD PUSH1 0x60 DUP2 MSTORE PUSH1 0x20 ADD PUSH1 0x0 DUP2 MSTORE PUSH1 0x20 ADD PUSH1 0x0 DUP2 MSTORE PUSH1 0x20 ADD PUSH1 0x0 DUP2 MSTORE PUSH1 0x20 ADD PUSH1 0x0 DUP2 MSTORE PUSH1 0x20 ADD PUSH1 0x0 DUP2 MSTORE PUSH1 0x20 ADD PUSH1 0x0 DUP2 MSTORE PUSH1 0x20 ADD PUSH1 0x0 DUP2 MSTORE PUSH1 0x20 ADD PUSH1 0x0 DUP2 MSTORE PUSH1 0x20 ADD PUSH1 0x0 PUSH1 0xFF AND DUP2 MSTORE PUSH1 0x20 ADD PUSH1 0x0 PUSH4 0xFFFFFFFF AND DUP2 MSTORE PUSH1 0x20 ADD PUSH1 0x0 DUP2 MSTORE PUSH1 0x20 ADD PUSH1 0x0 DUP2 MSTORE PUSH1 0x20 ADD PUSH1 0x0 DUP2 MSTORE PUSH1 0x20 ADD PUSH1 0x0 DUP2 MSTORE PUSH1 0x20 ADD PUSH1 0x0 DUP2 MSTORE PUSH1 0x20 ADD PUSH1 0x0 DUP2 MSTORE PUSH1 0x20 ADD PUSH1 0x0 DUP2 MSTORE PUSH1 0x20 ADD PUSH1 0x60 DUP2 MSTORE PUSH1 0x20 ADD PUSH1 0x0 DUP2 MSTORE PUSH1 0x20 ADD PUSH1 0x0 DUP2 MSTORE PUSH1 0x20 ADD PUSH1 0x0 DUP2 MSTORE PUSH1 0x20 ADD PUSH1 0x0 ISZERO ISZERO DUP2 MSTORE PUSH1 0x20 ADD PUSH1 0x0 ISZERO ISZERO DUP2 MSTORE PUSH1 0x20 ADD PUSH1 0x0 ISZERO ISZERO DUP2 MSTORE PUSH1 0x20 ADD PUSH1 0x0 ISZERO ISZERO DUP2 MSTORE POP SWAP1 JUMP JUMPDEST PUSH4 0xFFFFFFFF DUP1 DUP4 AND PUSH1 0x0 SWAP1 DUP2 MSTORE PUSH1 0xD7 PUSH1 0x20 SWAP1 DUP2 MSTORE PUSH1 0x40 SWAP2 DUP3 SWAP1 KECCAK256 DUP3 MLOAD PUSH2 0x480 DUP2 ADD SWAP1 SWAP4 MSTORE DUP1 SLOAD SWAP1 SWAP4 AND DUP3 MSTORE PUSH1 0x1 DUP4 ADD DUP1 SLOAD SWAP3 SWAP4 SWAP3 SWAP2 DUP5 ADD SWAP2 PUSH2 0xAE6 SWAP1 PUSH2 0x5AE3 JUMP JUMPDEST DUP1 PUSH1 0x1F ADD PUSH1 0x20 DUP1 SWAP2 DIV MUL PUSH1 0x20 ADD PUSH1 0x40 MLOAD SWAP1 DUP2 ADD PUSH1 0x40 MSTORE DUP1 SWAP3 SWAP2 SWAP1 DUP2 DUP2 MSTORE PUSH1 0x20 ADD DUP3 DUP1 SLOAD PUSH2 0xB12 SWAP1 PUSH2 0x5AE3 JUMP JUMPDEST DUP1 ISZERO PUSH2 0xB5F JUMPI DUP1 PUSH1 0x1F LT PUSH2 0xB34 JUMPI PUSH2 0x100 DUP1 DUP4 SLOAD DIV MUL DUP4 MSTORE SWAP2 PUSH1 0x20 ADD SWAP2 PUSH2 0xB5F JUMP JUMPDEST DUP3 ADD SWAP2 SWAP1 PUSH1 0x0 MSTORE PUSH1 0x20 PUSH1 0x0 KECCAK256 SWAP1 JUMPDEST DUP2 SLOAD DUP2 MSTORE SWAP1 PUSH1 0x1 ADD SWAP1 PUSH1 0x20 ADD DUP1 DUP4 GT PUSH2 0xB42 JUMPI DUP3 SWAP1 SUB PUSH1 0x1F AND DUP3 ADD SWAP2 JUMPDEST POP POP POP SWAP2 DUP4 MSTORE POP POP PUSH1 0x2 DUP3 ADD SLOAD PUSH1 0x20 DUP1 DUP4 ADD SWAP2 SWAP1 SWAP2 MSTORE PUSH1 0x3 DUP4 ADD SLOAD PUSH1 0xFF DUP1 DUP3 AND ISZERO ISZERO PUSH1 0x40 DUP1 DUP7 ADD SWAP2 SWAP1 SWAP2 MSTORE PUSH1 0x1 PUSH1 0x1 PUSH1 0xA0 SHL SUB PUSH2 0x100 DUP5 DIV AND PUSH1 0x60 DUP7 ADD MSTORE PUSH4 0xFFFFFFFF PUSH1 0x1 PUSH1 0xA8 SHL DUP5 DIV AND PUSH1 0x80 DUP7 ADD MSTORE PUSH1 0x1 PUSH1 0xC8 SHL SWAP1 SWAP3 DIV AND ISZERO ISZERO PUSH1 0xA0 DUP5 ADD MSTORE PUSH1 0x4 DUP5 ADD DUP1 SLOAD DUP3 MLOAD DUP2 DUP6 MUL DUP2 ADD DUP6 ADD SWAP1 SWAP4 MSTORE DUP1 DUP4 MSTORE PUSH1 0xC0 SWAP1 SWAP5 ADD SWAP4 SWAP2 SWAP3 SWAP1 SWAP2 SWAP1 DUP4 ADD DUP3 DUP3 DUP1 ISZERO PUSH2 0xC3A JUMPI PUSH1 0x20 MUL DUP3 ADD SWAP2 SWAP1 PUSH1 0x0 MSTORE PUSH1 0x20 PUSH1 0x0 KECCAK256 SWAP1 PUSH1 0x0 SWAP1 JUMPDEST DUP3 DUP3 SWAP1 SLOAD SWAP1 PUSH2 0x100 EXP SWAP1 DIV PUSH4 0xFFFFFFFF AND PUSH4 0xFFFFFFFF AND DUP2 MSTORE PUSH1 0x20 ADD SWAP1 PUSH1 0x4 ADD SWAP1 PUSH1 0x20 DUP3 PUSH1 0x3 ADD DIV SWAP3 DUP4 ADD SWAP3 PUSH1 0x1 SUB DUP3 MUL SWAP2 POP DUP1 DUP5 GT PUSH2 0xBFD JUMPI SWAP1 POP JUMPDEST POP POP POP POP POP DUP2 MSTORE PUSH1 0x20 ADD PUSH1 0x5 DUP3 ADD DUP1 SLOAD DUP1 PUSH1 0x20 MUL PUSH1 0x20 ADD PUSH1 0x40 MLOAD SWAP1 DUP2 ADD PUSH1 0x40 MSTORE DUP1 SWAP3 SWAP2 SWAP1 DUP2 DUP2 MSTORE PUSH1 0x20 ADD DUP3 DUP1 SLOAD DUP1 ISZERO PUSH2 0xCBE JUMPI PUSH1 0x20 MUL DUP3 ADD SWAP2 SWAP1 PUSH1 0x0 MSTORE PUSH1 0x20 PUSH1 0x0 KECCAK256 SWAP1 PUSH1 0x0 SWAP1 JUMPDEST DUP3 DUP3 SWAP1 SLOAD SWAP1 PUSH2 0x100 EXP SWAP1 DIV PUSH4 0xFFFFFFFF AND PUSH4 0xFFFFFFFF AND DUP2 MSTORE PUSH1 0x20 ADD SWAP1 PUSH1 0x4 ADD SWAP1 PUSH1 0x20 DUP3 PUSH1 0x3 ADD DIV SWAP3 DUP4 ADD SWAP3 PUSH1 0x1 SUB DUP3 MUL SWAP2 POP DUP1 DUP5 GT PUSH2 0xC81 JUMPI SWAP1 POP JUMPDEST POP POP POP POP POP DUP2 MSTORE PUSH1 0x20 ADD PUSH1 0x6 DUP3 ADD DUP1 SLOAD DUP1 PUSH1 0x20 MUL PUSH1 0x20 ADD PUSH1 0x40 MLOAD SWAP1 DUP2 ADD PUSH1 0x40 MSTORE DUP1 SWAP3 SWAP2 SWAP1 DUP2 DUP2 MSTORE PUSH1 0x20 ADD DUP3 DUP1 SLOAD DUP1 ISZERO PUSH2 0xD42 JUMPI PUSH1 0x20 MUL DUP3 ADD SWAP2 SWAP1 PUSH1 0x0 MSTORE PUSH1 0x20 PUSH1 0x0 KECCAK256 SWAP1 PUSH1 0x0 SWAP1 JUMPDEST DUP3 DUP3 SWAP1 SLOAD SWAP1 PUSH2 0x100 EXP SWAP1 DIV PUSH4 0xFFFFFFFF AND PUSH4 0xFFFFFFFF AND DUP2 MSTORE PUSH1 0x20 ADD SWAP1 PUSH1 0x4 ADD SWAP1 PUSH1 0x20 DUP3 PUSH1 0x3 ADD DIV SWAP3 DUP4 ADD SWAP3 PUSH1 0x1 SUB DUP3 MUL SWAP2 POP DUP1 DUP5 GT PUSH2 0xD05 JUMPI SWAP1 POP JUMPDEST POP POP POP POP POP DUP2 MSTORE PUSH1 0x20 ADD PUSH1 0x7 DUP3 ADD DUP1 SLOAD DUP1 PUSH1 0x20 MUL PUSH1 0x20 ADD PUSH1 0x40 MLOAD SWAP1 DUP2 ADD PUSH1 0x40 MSTORE DUP1 SWAP3 SWAP2 SWAP1 DUP2 DUP2 MSTORE PUSH1 0x20 ADD DUP3 DUP1 SLOAD DUP1 ISZERO PUSH2 0xD9A JUMPI PUSH1 0x20 MUL DUP3 ADD SWAP2 SWAP1 PUSH1 0x0 MSTORE PUSH1 0x20 PUSH1 0x0 KECCAK256 SWAP1 JUMPDEST DUP2 SLOAD DUP2 MSTORE PUSH1 0x20 ADD SWAP1 PUSH1 0x1 ADD SWAP1 DUP1 DUP4 GT PUSH2 0xD86 JUMPI JUMPDEST POP POP POP SWAP2 DUP4 MSTORE POP POP PUSH1 0x8 DUP3 ADD SLOAD PUSH1 0x20 DUP1 DUP4 ADD SWAP2 SWAP1 SWAP2 MSTORE PUSH1 0x9 DUP4 ADD SLOAD PUSH1 0x40 DUP1 DUP5 ADD SWAP2 SWAP1 SWAP2 MSTORE PUSH1 0xA DUP5 ADD SLOAD PUSH1 0x60 DUP5 ADD MSTORE PUSH1 0xB DUP5 ADD SLOAD PUSH1 0x80 DUP5 ADD MSTORE PUSH1 0xC DUP5 ADD SLOAD PUSH1 0xA0 DUP5 ADD MSTORE PUSH1 0xD DUP5 ADD SLOAD PUSH1 0xC0 DUP5 ADD MSTORE PUSH1 0xE DUP5 ADD SLOAD PUSH1 0xE0 DUP5 ADD MSTORE PUSH1 0xF DUP5 ADD SLOAD PUSH2 0x100 DUP1 DUP6 ADD SWAP2 SWAP1 SWAP2 MSTORE PUSH1 0x10 DUP6 ADD SLOAD PUSH1 0xFF DUP2 AND PUSH2 0x120 DUP7 ADD MSTORE DIV PUSH4 0xFFFFFFFF AND PUSH2 0x140 DUP5 ADD MSTORE PUSH1 0x11 DUP5 ADD SLOAD PUSH2 0x160 DUP5 ADD MSTORE PUSH1 0x12 DUP5 ADD SLOAD PUSH2 0x180 DUP5 ADD MSTORE PUSH1 0x13 DUP5 ADD SLOAD PUSH2 0x1A0 DUP5 ADD MSTORE PUSH1 0x14 DUP5 ADD SLOAD PUSH2 0x1C0 DUP5 ADD MSTORE PUSH1 0x15 DUP5 ADD SLOAD PUSH2 0x1E0 DUP5 ADD MSTORE PUSH1 0x16 DUP5 ADD SLOAD PUSH2 0x200 DUP5 ADD MSTORE PUSH1 0x17 DUP5 ADD SLOAD PUSH2 0x220 DUP5 ADD MSTORE PUSH1 0x18 DUP5 ADD DUP1 SLOAD DUP3 MLOAD DUP2 DUP6 MUL DUP2 ADD DUP6 ADD SWAP1 SWAP4 MSTORE DUP1 DUP4 MSTORE PUSH2 0x240 SWAP1 SWAP5 ADD SWAP4 SWAP2 SWAP3 SWAP1 SWAP2 SWAP1 DUP4 ADD DUP3 DUP3 DUP1 ISZERO PUSH2 0xEE4 JUMPI PUSH1 0x20 MUL DUP3 ADD SWAP2 SWAP1 PUSH1 0x0 MSTORE PUSH1 0x20 PUSH1 0x0 KECCAK256 SWAP1 PUSH1 0x0 SWAP1 JUMPDEST DUP3 DUP3 SWAP1 SLOAD SWAP1 PUSH2 0x100 EXP SWAP1 DIV PUSH4 0xFFFFFFFF AND PUSH4 0xFFFFFFFF AND DUP2 MSTORE PUSH1 0x20 ADD SWAP1 PUSH1 0x4 ADD SWAP1 PUSH1 0x20 DUP3 PUSH1 0x3 ADD DIV SWAP3 DUP4 ADD SWAP3 PUSH1 0x1 SUB DUP3 MUL SWAP2 POP DUP1 DUP5 GT PUSH2 0xEA7 JUMPI SWAP1 POP JUMPDEST POP POP POP SWAP2 DUP4 MSTORE POP POP PUSH1 0x19 DUP3 ADD SLOAD PUSH1 0x20 DUP3 ADD MSTORE PUSH1 0x1A DUP3 ADD SLOAD PUSH1 0x40 DUP3 ADD MSTORE PUSH1 0x1B DUP3 ADD SLOAD PUSH1 0x60 DUP3 ADD MSTORE PUSH1 0x1C SWAP1 SWAP2 ADD SLOAD PUSH1 0xFF DUP1 DUP3 AND ISZERO ISZERO PUSH1 0x80 DUP5 ADD MSTORE PUSH2 0x100 DUP3 DIV DUP2 AND ISZERO ISZERO PUSH1 0xA0 DUP5 ADD MSTORE PUSH3 0x10000 DUP3 DIV DUP2 AND ISZERO ISZERO PUSH1 0xC0 DUP5 ADD MSTORE PUSH4 0x1000000 SWAP1 SWAP2 DIV AND ISZERO ISZERO PUSH1 0xE0 SWAP1 SWAP2 ADD MSTORE SWAP3 SWAP2 POP POP JUMP JUMPDEST PUSH4 0xFFFFFFFF DUP2 AND PUSH1 0x0 SWAP1 DUP2 MSTORE PUSH1 0xD7 PUSH1 0x20 MSTORE PUSH1 0x40 SWAP1 DUP2 SWAP1 KECCAK256 PUSH1 0xC9 SLOAD SWAP2 MLOAD PUSH4 0x935E01B PUSH1 0xE2 SHL DUP2 MSTORE CALLER PUSH1 0x4 DUP3 ADD MSTORE SWAP1 SWAP2 PUSH1 0x1 PUSH1 0x1 PUSH1 0xA0 SHL SUB AND SWAP1 PUSH4 0x24D7806C SWAP1 PUSH1 0x24 ADD PUSH1 0x20 PUSH1 0x40 MLOAD DUP1 DUP4 SUB DUP2 DUP7 GAS STATICCALL ISZERO DUP1 ISZERO PUSH2 0xFAE JUMPI RETURNDATASIZE PUSH1 0x0 DUP1 RETURNDATACOPY RETURNDATASIZE PUSH1 0x0 REVERT JUMPDEST POP POP POP POP PUSH1 0x40 MLOAD RETURNDATASIZE PUSH1 0x1F NOT PUSH1 0x1F DUP3 ADD AND DUP3 ADD DUP1 PUSH1 0x40 MSTORE POP DUP2 ADD SWAP1 PUSH2 0xFD2 SWAP2 SWAP1 PUSH2 0x5B2B JUMP JUMPDEST PUSH2 0x1111 JUMPI PUSH1 0x3 DUP2 ADD SLOAD PUSH2 0x100 SWAP1 DIV PUSH1 0x1 PUSH1 0x1 PUSH1 0xA0 SHL SUB AND CALLER EQ PUSH2 0x103C JUMPI PUSH1 0x40 MLOAD PUSH3 0x461BCD PUSH1 0xE5 SHL DUP2 MSTORE PUSH1 0x20 PUSH1 0x4 DUP3 ADD MSTORE PUSH1 0x1D PUSH1 0x24 DUP3 ADD MSTORE PUSH32 0x596F7520617265206E6F74206F776E6572206F6620746869732069642E000000 PUSH1 0x44 DUP3 ADD MSTORE PUSH1 0x64 ADD JUMPDEST PUSH1 0x40 MLOAD DUP1 SWAP2 SUB SWAP1 REVERT JUMPDEST PUSH8 0x8AC7230489E80000 DUP2 PUSH1 0x1B ADD SLOAD LT ISZERO PUSH2 0x10A4 JUMPI PUSH1 0x40 MLOAD PUSH3 0x461BCD PUSH1 0xE5 SHL DUP2 MSTORE PUSH1 0x20 PUSH1 0x4 DUP3 ADD MSTORE PUSH1 0x24 DUP1 DUP3 ADD MSTORE PUSH32 0x42616C616E6365206973206C657373207468616E206D696E2077697468647261 PUSH1 0x44 DUP3 ADD MSTORE PUSH4 0x3BB0B617 PUSH1 0xE1 SHL PUSH1 0x64 DUP3 ADD MSTORE PUSH1 0x84 ADD PUSH2 0x1033 JUMP JUMPDEST PUSH1 0x1C DUP2 ADD SLOAD PUSH4 0x1000000 SWAP1 DIV PUSH1 0xFF AND PUSH2 0x1111 JUMPI PUSH1 0x40 MLOAD PUSH3 0x461BCD PUSH1 0xE5 SHL DUP2 MSTORE PUSH1 0x20 PUSH1 0x4 DUP3 ADD MSTORE PUSH1 0x29 PUSH1 0x24 DUP3 ADD MSTORE PUSH32 0x54686973206964207769746864726177206973206E6F7420656E61626C656420 PUSH1 0x44 DUP3 ADD MSTORE PUSH9 0x313C9030B236B4B717 PUSH1 0xB9 SHL PUSH1 0x64 DUP3 ADD MSTORE PUSH1 0x84 ADD PUSH2 0x1033 JUMP JUMPDEST PUSH1 0x1B DUP2 ADD SLOAD PUSH1 0xD5 SLOAD PUSH1 0x0 SWAP1 PUSH1 0x64 SWAP1 PUSH2 0x1132 SWAP1 PUSH3 0x10000 SWAP1 DIV PUSH1 0xFF AND DUP5 PUSH2 0x5B5E JUMP JUMPDEST PUSH2 0x113C SWAP2 SWAP1 PUSH2 0x5B75 JUMP JUMPDEST SWAP1 POP PUSH1 0xC9 PUSH1 0x0 SWAP1 SLOAD SWAP1 PUSH2 0x100 EXP SWAP1 DIV PUSH1 0x1 PUSH1 0x1 PUSH1 0xA0 SHL SUB AND PUSH1 0x1 PUSH1 0x1 PUSH1 0xA0 SHL SUB AND PUSH3 0xF9CC66 PUSH1 0x40 MLOAD DUP2 PUSH4 0xFFFFFFFF AND PUSH1 0xE0 SHL DUP2 MSTORE PUSH1 0x4 ADD PUSH1 0x20 PUSH1 0x40 MLOAD DUP1 DUP4 SUB DUP2 DUP7 GAS STATICCALL ISZERO DUP1 ISZERO PUSH2 0x1190 JUMPI RETURNDATASIZE PUSH1 0x0 DUP1 RETURNDATACOPY RETURNDATASIZE PUSH1 0x0 REVERT JUMPDEST POP POP POP POP PUSH1 0x40 MLOAD RETURNDATASIZE PUSH1 0x1F NOT PUSH1 0x1F DUP3 ADD AND DUP3 ADD DUP1 PUSH1 0x40 MSTORE POP DUP2 ADD SWAP1 PUSH2 0x11B4 SWAP2 SWAP1 PUSH2 0x5B97 JUMP JUMPDEST PUSH1 0x3 DUP5 ADD SLOAD PUSH1 0x40 MLOAD PUSH4 0x3528777D PUSH1 0xE1 SHL DUP2 MSTORE PUSH1 0x1 PUSH1 0x1 PUSH1 0xA0 SHL SUB PUSH2 0x100 SWAP1 SWAP3 DIV DUP3 AND PUSH1 0x4 DUP3 ADD MSTORE PUSH1 0x24 DUP2 ADD DUP5 SWAP1 MSTORE SWAP2 AND SWAP1 PUSH4 0x6A50EEFA SWAP1 PUSH1 0x44 ADD PUSH1 0x0 PUSH1 0x40 MLOAD DUP1 DUP4 SUB DUP2 PUSH1 0x0 DUP8 DUP1 EXTCODESIZE ISZERO DUP1 ISZERO PUSH2 0x1208 JUMPI PUSH1 0x0 DUP1 REVERT JUMPDEST POP GAS CALL ISZERO DUP1 ISZERO PUSH2 0x121C JUMPI RETURNDATASIZE PUSH1 0x0 DUP1 RETURNDATACOPY RETURNDATASIZE PUSH1 0x0 REVERT JUMPDEST POP POP POP POP PUSH1 0x3 DUP4 ADD SLOAD PUSH2 0x100 SWAP1 DIV PUSH1 0x1 PUSH1 0x1 PUSH1 0xA0 SHL SUB AND PUSH2 0x8FC PUSH2 0x1248 PUSH2 0x1243 DUP5 DUP7 PUSH2 0x5BB4 JUMP JUMPDEST PUSH2 0x37B6 JUMP JUMPDEST PUSH1 0x40 MLOAD DUP2 ISZERO SWAP1 SWAP3 MUL SWAP2 PUSH1 0x0 DUP2 DUP2 DUP2 DUP6 DUP9 DUP9 CALL SWAP4 POP POP POP POP ISZERO DUP1 ISZERO PUSH2 0x1270 JUMPI RETURNDATASIZE PUSH1 0x0 DUP1 RETURNDATACOPY RETURNDATASIZE PUSH1 0x0 REVERT JUMPDEST POP PUSH1 0x3 DUP4 ADD SLOAD PUSH1 0x40 DUP1 MLOAD PUSH2 0x100 SWAP1 SWAP3 DIV PUSH1 0x1 PUSH1 0x1 PUSH1 0xA0 SHL SUB AND DUP3 MSTORE PUSH4 0xFFFFFFFF DUP7 AND PUSH1 0x20 DUP4 ADD MSTORE DUP2 ADD DUP4 SWAP1 MSTORE PUSH32 0xE4E35E8042DD75278192E3907FC781C7CECD755FDBF27AB88C3F3EE36E697E3B SWAP1 PUSH1 0x60 ADD PUSH1 0x40 MLOAD DUP1 SWAP2 SUB SWAP1 LOG1 DUP2 PUSH1 0xD9 PUSH1 0x0 DUP3 DUP3 SLOAD PUSH2 0x12DB SWAP2 SWAP1 PUSH2 0x5BC7 JUMP JUMPDEST SWAP3 POP POP DUP2 SWAP1 SSTORE POP DUP3 PUSH1 0x1B ADD PUSH1 0x0 SWAP1 SSTORE POP POP POP POP JUMP JUMPDEST PUSH1 0x1 PUSH1 0x1 PUSH1 0xA0 SHL SUB PUSH32 0x0 AND ADDRESS SUB PUSH2 0x1338 JUMPI PUSH1 0x40 MLOAD PUSH3 0x461BCD PUSH1 0xE5 SHL DUP2 MSTORE PUSH1 0x4 ADD PUSH2 0x1033 SWAP1 PUSH2 0x5BDA JUMP JUMPDEST PUSH32 0x0 PUSH1 0x1 PUSH1 0x1 PUSH1 0xA0 SHL SUB AND PUSH2 0x1381 PUSH1 0x0 DUP1 MLOAD PUSH1 0x20 PUSH2 0x5E2E DUP4 CODECOPY DUP2 MLOAD SWAP2 MSTORE SLOAD PUSH1 0x1 PUSH1 0x1 PUSH1 0xA0 SHL SUB AND SWAP1 JUMP JUMPDEST PUSH1 0x1 PUSH1 0x1 PUSH1 0xA0 SHL SUB AND EQ PUSH2 0x13A7 JUMPI PUSH1 0x40 MLOAD PUSH3 0x461BCD PUSH1 0xE5 SHL DUP2 MSTORE PUSH1 0x4 ADD PUSH2 0x1033 SWAP1 PUSH2 0x5C26 JUMP JUMPDEST PUSH2 0x13B0 DUP2 PUSH2 0x38B4 JUMP JUMPDEST PUSH1 0x40 DUP1 MLOAD PUSH1 0x0 DUP1 DUP3 MSTORE PUSH1 0x20 DUP3 ADD SWAP1 SWAP3 MSTORE PUSH2 0x13CC SWAP2 DUP4 SWAP2 SWAP1 PUSH2 0x38BC JUMP JUMPDEST POP JUMP JUMPDEST PUSH1 0xD4 DUP2 DUP2 SLOAD DUP2 LT PUSH2 0x943 JUMPI PUSH1 0x0 DUP1 REVERT JUMPDEST PUSH2 0x13E7 PUSH2 0x3A27 JUMP JUMPDEST PUSH1 0xCB DUP1 SLOAD PUSH1 0xFF SWAP1 SWAP3 AND PUSH3 0x10000 MUL PUSH3 0xFF0000 NOT SWAP1 SWAP3 AND SWAP2 SWAP1 SWAP2 OR SWAP1 SSTORE JUMP JUMPDEST PUSH1 0xC9 SLOAD PUSH1 0x40 MLOAD PUSH4 0x935E01B PUSH1 0xE2 SHL DUP2 MSTORE CALLER PUSH1 0x4 DUP3 ADD MSTORE PUSH1 0x1 PUSH1 0x1 PUSH1 0xA0 SHL SUB SWAP1 SWAP2 AND SWAP1 PUSH4 0x24D7806C SWAP1 PUSH1 0x24 ADD PUSH1 0x20 PUSH1 0x40 MLOAD DUP1 DUP4 SUB DUP2 DUP7 GAS STATICCALL ISZERO DUP1 ISZERO PUSH2 0x144D JUMPI RETURNDATASIZE PUSH1 0x0 DUP1 RETURNDATACOPY RETURNDATASIZE PUSH1 0x0 REVERT JUMPDEST POP POP POP POP PUSH1 0x40 MLOAD RETURNDATASIZE PUSH1 0x1F NOT PUSH1 0x1F DUP3 ADD AND DUP3 ADD DUP1 PUSH1 0x40 MSTORE POP DUP2 ADD SWAP1 PUSH2 0x1471 SWAP2 SWAP1 PUSH2 0x5B2B JUMP JUMPDEST PUSH2 0x148D JUMPI PUSH1 0x40 MLOAD PUSH3 0x461BCD PUSH1 0xE5 SHL DUP2 MSTORE PUSH1 0x4 ADD PUSH2 0x1033 SWAP1 PUSH2 0x5C72 JUMP JUMPDEST PUSH1 0xD5 SLOAD PUSH2 0x100 SWAP1 DIV PUSH1 0xFF AND ISZERO PUSH2 0x14A7 JUMPI PUSH2 0x14A7 DUP3 DUP3 PUSH2 0x3A81 JUMP JUMPDEST POP POP JUMP JUMPDEST PUSH4 0xFFFFFFFF DUP1 DUP3 AND PUSH1 0x0 SWAP1 DUP2 MSTORE PUSH1 0xD7 PUSH1 0x20 SWAP1 DUP2 MSTORE PUSH1 0x40 DUP1 DUP4 KECCAK256 DUP2 MLOAD PUSH2 0x480 DUP2 ADD SWAP1 SWAP3 MSTORE DUP1 SLOAD SWAP1 SWAP5 AND DUP2 MSTORE PUSH1 0x1 DUP5 ADD DUP1 SLOAD SWAP4 SWAP5 DUP6 SWAP5 DUP6 SWAP5 DUP6 SWAP5 SWAP4 SWAP1 DUP5 ADD SWAP2 PUSH2 0x14F1 SWAP1 PUSH2 0x5AE3 JUMP JUMPDEST DUP1 PUSH1 0x1F ADD PUSH1 0x20 DUP1 SWAP2 DIV MUL PUSH1 0x20 ADD PUSH1 0x40 MLOAD SWAP1 DUP2 ADD PUSH1 0x40 MSTORE DUP1 SWAP3 SWAP2 SWAP1 DUP2 DUP2 MSTORE PUSH1 0x20 ADD DUP3 DUP1 SLOAD PUSH2 0x151D SWAP1 PUSH2 0x5AE3 JUMP JUMPDEST DUP1 ISZERO PUSH2 0x156A JUMPI DUP1 PUSH1 0x1F LT PUSH2 0x153F JUMPI PUSH2 0x100 DUP1 DUP4 SLOAD DIV MUL DUP4 MSTORE SWAP2 PUSH1 0x20 ADD SWAP2 PUSH2 0x156A JUMP JUMPDEST DUP3 ADD SWAP2 SWAP1 PUSH1 0x0 MSTORE PUSH1 0x20 PUSH1 0x0 KECCAK256 SWAP1 JUMPDEST DUP2 SLOAD DUP2 MSTORE SWAP1 PUSH1 0x1 ADD SWAP1 PUSH1 0x20 ADD DUP1 DUP4 GT PUSH2 0x154D JUMPI DUP3 SWAP1 SUB PUSH1 0x1F AND DUP3 ADD SWAP2 JUMPDEST POP POP POP SWAP2 DUP4 MSTORE POP POP PUSH1 0x2 DUP3 ADD SLOAD PUSH1 0x20 DUP1 DUP4 ADD SWAP2 SWAP1 SWAP2 MSTORE PUSH1 0x3 DUP4 ADD SLOAD PUSH1 0xFF DUP1 DUP3 AND ISZERO ISZERO PUSH1 0x40 DUP1 DUP7 ADD SWAP2 SWAP1 SWAP2 MSTORE PUSH1 0x1 PUSH1 0x1 PUSH1 0xA0 SHL SUB PUSH2 0x100 DUP5 DIV AND PUSH1 0x60 DUP7 ADD MSTORE PUSH4 0xFFFFFFFF PUSH1 0x1 PUSH1 0xA8 SHL DUP5 DIV AND PUSH1 0x80 DUP7 ADD MSTORE PUSH1 0x1 PUSH1 0xC8 SHL SWAP1 SWAP3 DIV AND ISZERO ISZERO PUSH1 0xA0 DUP5 ADD MSTORE PUSH1 0x4 DUP5 ADD DUP1 SLOAD DUP3 MLOAD DUP2 DUP6 MUL DUP2 ADD DUP6 ADD SWAP1 SWAP4 MSTORE DUP1 DUP4 MSTORE PUSH1 0xC0 SWAP1 SWAP5 ADD SWAP4 SWAP2 SWAP3 SWAP1 SWAP2 SWAP1 DUP4 ADD DUP3 DUP3 DUP1 ISZERO PUSH2 0x1645 JUMPI PUSH1 0x20 MUL DUP3 ADD SWAP2 SWAP1 PUSH1 0x0 MSTORE PUSH1 0x20 PUSH1 0x0 KECCAK256 SWAP1 PUSH1 0x0 SWAP1 JUMPDEST DUP3 DUP3 SWAP1 SLOAD SWAP1 PUSH2 0x100 EXP SWAP1 DIV PUSH4 0xFFFFFFFF AND PUSH4 0xFFFFFFFF AND DUP2 MSTORE PUSH1 0x20 ADD SWAP1 PUSH1 0x4 ADD SWAP1 PUSH1 0x20 DUP3 PUSH1 0x3 ADD DIV SWAP3 DUP4 ADD SWAP3 PUSH1 0x1 SUB DUP3 MUL SWAP2 POP DUP1 DUP5 GT PUSH2 0x1608 JUMPI SWAP1 POP JUMPDEST POP POP POP POP POP DUP2 MSTORE PUSH1 0x20 ADD PUSH1 0x5 DUP3 ADD DUP1 SLOAD DUP1 PUSH1 0x20 MUL PUSH1 0x20 ADD PUSH1 0x40 MLOAD SWAP1 DUP2 ADD PUSH1 0x40 MSTORE DUP1 SWAP3 SWAP2 SWAP1 DUP2 DUP2 MSTORE PUSH1 0x20 ADD DUP3 DUP1 SLOAD DUP1 ISZERO PUSH2 0x16C9 JUMPI PUSH1 0x20 MUL DUP3 ADD SWAP2 SWAP1 PUSH1 0x0 MSTORE PUSH1 0x20 PUSH1 0x0 KECCAK256 SWAP1 PUSH1 0x0 SWAP1 JUMPDEST DUP3 DUP3 SWAP1 SLOAD SWAP1 PUSH2 0x100 EXP SWAP1 DIV PUSH4 0xFFFFFFFF AND PUSH4 0xFFFFFFFF AND DUP2 MSTORE PUSH1 0x20 ADD SWAP1 PUSH1 0x4 ADD SWAP1 PUSH1 0x20 DUP3 PUSH1 0x3 ADD DIV SWAP3 DUP4 ADD SWAP3 PUSH1 0x1 SUB DUP3 MUL SWAP2 POP DUP1 DUP5 GT PUSH2 0x168C JUMPI SWAP1 POP JUMPDEST POP POP POP POP POP DUP2 MSTORE PUSH1 0x20 ADD PUSH1 0x6 DUP3 ADD DUP1 SLOAD DUP1 PUSH1 0x20 MUL PUSH1 0x20 ADD PUSH1 0x40 MLOAD SWAP1 DUP2 ADD PUSH1 0x40 MSTORE DUP1 SWAP3 SWAP2 SWAP1 DUP2 DUP2 MSTORE PUSH1 0x20 ADD DUP3 DUP1 SLOAD DUP1 ISZERO PUSH2 0x174D JUMPI PUSH1 0x20 MUL DUP3 ADD SWAP2 SWAP1 PUSH1 0x0 MSTORE PUSH1 0x20 PUSH1 0x0 KECCAK256 SWAP1 PUSH1 0x0 SWAP1 JUMPDEST DUP3 DUP3 SWAP1 SLOAD SWAP1 PUSH2 0x100 EXP SWAP1 DIV PUSH4 0xFFFFFFFF AND PUSH4 0xFFFFFFFF AND DUP2 MSTORE PUSH1 0x20 ADD SWAP1 PUSH1 0x4 ADD SWAP1 PUSH1 0x20 DUP3 PUSH1 0x3 ADD DIV SWAP3 DUP4 ADD SWAP3 PUSH1 0x1 SUB DUP3 MUL SWAP2 POP DUP1 DUP5 GT PUSH2 0x1710 JUMPI SWAP1 POP JUMPDEST POP POP POP POP POP DUP2 MSTORE PUSH1 0x20 ADD PUSH1 0x7 DUP3 ADD DUP1 SLOAD DUP1 PUSH1 0x20 MUL PUSH1 0x20 ADD PUSH1 0x40 MLOAD SWAP1 DUP2 ADD PUSH1 0x40 MSTORE DUP1 SWAP3 SWAP2 SWAP1 DUP2 DUP2 MSTORE PUSH1 0x20 ADD DUP3 DUP1 SLOAD DUP1 ISZERO PUSH2 0x17A5 JUMPI PUSH1 0x20 MUL DUP3 ADD SWAP2 SWAP1 PUSH1 0x0 MSTORE PUSH1 0x20 PUSH1 0x0 KECCAK256 SWAP1 JUMPDEST DUP2 SLOAD DUP2 MSTORE PUSH1 0x20 ADD SWAP1 PUSH1 0x1 ADD SWAP1 DUP1 DUP4 GT PUSH2 0x1791 JUMPI JUMPDEST POP POP POP SWAP2 DUP4 MSTORE POP POP PUSH1 0x8 DUP3 ADD SLOAD PUSH1 0x20 DUP1 DUP4 ADD SWAP2 SWAP1 SWAP2 MSTORE PUSH1 0x9 DUP4 ADD SLOAD PUSH1 0x40 DUP1 DUP5 ADD SWAP2 SWAP1 SWAP2 MSTORE PUSH1 0xA DUP5 ADD SLOAD PUSH1 0x60 DUP5 ADD MSTORE PUSH1 0xB DUP5 ADD SLOAD PUSH1 0x80 DUP5 ADD MSTORE PUSH1 0xC DUP5 ADD SLOAD PUSH1 0xA0 DUP5 ADD MSTORE PUSH1 0xD DUP5 ADD SLOAD PUSH1 0xC0 DUP5 ADD MSTORE PUSH1 0xE DUP5 ADD SLOAD PUSH1 0xE0 DUP5 ADD MSTORE PUSH1 0xF DUP5 ADD SLOAD PUSH2 0x100 DUP1 DUP6 ADD SWAP2 SWAP1 SWAP2 MSTORE PUSH1 0x10 DUP6 ADD SLOAD PUSH1 0xFF DUP2 AND PUSH2 0x120 DUP7 ADD MSTORE DIV PUSH4 0xFFFFFFFF AND PUSH2 0x140 DUP5 ADD MSTORE PUSH1 0x11 DUP5 ADD SLOAD PUSH2 0x160 DUP5 ADD MSTORE PUSH1 0x12 DUP5 ADD SLOAD PUSH2 0x180 DUP5 ADD MSTORE PUSH1 0x13 DUP5 ADD SLOAD PUSH2 0x1A0 DUP5 ADD MSTORE PUSH1 0x14 DUP5 ADD SLOAD PUSH2 0x1C0 DUP5 ADD MSTORE PUSH1 0x15 DUP5 ADD SLOAD PUSH2 0x1E0 DUP5 ADD MSTORE PUSH1 0x16 DUP5 ADD SLOAD PUSH2 0x200 DUP5 ADD MSTORE PUSH1 0x17 DUP5 ADD SLOAD PUSH2 0x220 DUP5 ADD MSTORE PUSH1 0x18 DUP5 ADD DUP1 SLOAD DUP3 MLOAD DUP2 DUP6 MUL DUP2 ADD DUP6 ADD SWAP1 SWAP4 MSTORE DUP1 DUP4 MSTORE PUSH2 0x240 SWAP1 SWAP5 ADD SWAP4 SWAP2 SWAP3 SWAP1 SWAP2 SWAP1 DUP4 ADD DUP3 DUP3 DUP1 ISZERO PUSH2 0x18EF JUMPI PUSH1 0x20 MUL DUP3 ADD SWAP2 SWAP1 PUSH1 0x0 MSTORE PUSH1 0x20 PUSH1 0x0 KECCAK256 SWAP1 PUSH1 0x0 SWAP1 JUMPDEST DUP3 DUP3 SWAP1 SLOAD SWAP1 PUSH2 0x100 EXP SWAP1 DIV PUSH4 0xFFFFFFFF AND PUSH4 0xFFFFFFFF AND DUP2 MSTORE PUSH1 0x20 ADD SWAP1 PUSH1 0x4 ADD SWAP1 PUSH1 0x20 DUP3 PUSH1 0x3 ADD DIV SWAP3 DUP4 ADD SWAP3 PUSH1 0x1 SUB DUP3 MUL SWAP2 POP DUP1 DUP5 GT PUSH2 0x18B2 JUMPI SWAP1 POP JUMPDEST POP POP POP SWAP2 DUP4 MSTORE POP POP PUSH1 0x19 DUP3 ADD SLOAD PUSH1 0x20 DUP3 ADD MSTORE PUSH1 0x1A DUP3 ADD SLOAD PUSH1 0x40 DUP3 ADD MSTORE PUSH1 0x1B DUP3 ADD SLOAD PUSH1 0x60 DUP3 ADD MSTORE PUSH1 0x1C SWAP1 SWAP2 ADD SLOAD PUSH1 0xFF DUP1 DUP3 AND ISZERO ISZERO PUSH1 0x80 DUP5 ADD MSTORE PUSH2 0x100 DUP3 DIV DUP2 AND ISZERO ISZERO PUSH1 0xA0 DUP5 ADD MSTORE PUSH3 0x10000 DUP3 DIV DUP2 AND ISZERO ISZERO PUSH1 0xC0 DUP5 ADD MSTORE PUSH4 0x1000000 SWAP1 SWAP2 DIV AND ISZERO ISZERO PUSH1 0xE0 SWAP1 SWAP2 ADD MSTORE PUSH2 0x2C0 DUP2 ADD MLOAD PUSH2 0x2E0 DUP3 ADD MLOAD PUSH2 0x300 SWAP1 SWAP3 ADD MLOAD SWAP1 SWAP8 SWAP2 SWAP7 POP SWAP5 POP SWAP3 POP POP POP JUMP JUMPDEST PUSH1 0x1 PUSH1 0x1 PUSH1 0xA0 SHL SUB PUSH32 0x0 AND ADDRESS SUB PUSH2 0x19BD JUMPI PUSH1 0x40 MLOAD PUSH3 0x461BCD PUSH1 0xE5 SHL DUP2 MSTORE PUSH1 0x4 ADD PUSH2 0x1033 SWAP1 PUSH2 0x5BDA JUMP JUMPDEST PUSH32 0x0 PUSH1 0x1 PUSH1 0x1 PUSH1 0xA0 SHL SUB AND PUSH2 0x1A06 PUSH1 0x0 DUP1 MLOAD PUSH1 0x20 PUSH2 0x5E2E DUP4 CODECOPY DUP2 MLOAD SWAP2 MSTORE SLOAD PUSH1 0x1 PUSH1 0x1 PUSH1 0xA0 SHL SUB AND SWAP1 JUMP JUMPDEST PUSH1 0x1 PUSH1 0x1 PUSH1 0xA0 SHL SUB AND EQ PUSH2 0x1A2C JUMPI PUSH1 0x40 MLOAD PUSH3 0x461BCD PUSH1 0xE5 SHL DUP2 MSTORE PUSH1 0x4 ADD PUSH2 0x1033 SWAP1 PUSH2 0x5C26 JUMP JUMPDEST PUSH2 0x1A35 DUP3 PUSH2 0x38B4 JUMP JUMPDEST PUSH2 0x14A7 DUP3 DUP3 PUSH1 0x1 PUSH2 0x38BC JUMP JUMPDEST PUSH1 0xC9 SLOAD PUSH1 0x40 MLOAD PUSH4 0x935E01B PUSH1 0xE2 SHL DUP2 MSTORE CALLER PUSH1 0x4 DUP3 ADD MSTORE PUSH1 0x1 PUSH1 0x1 PUSH1 0xA0 SHL SUB SWAP1 SWAP2 AND SWAP1 PUSH4 0x24D7806C SWAP1 PUSH1 0x24 ADD PUSH1 0x20 PUSH1 0x40 MLOAD DUP1 DUP4 SUB DUP2 DUP7 GAS STATICCALL ISZERO DUP1 ISZERO PUSH2 0x1A89 JUMPI RETURNDATASIZE PUSH1 0x0 DUP1 RETURNDATACOPY RETURNDATASIZE PUSH1 0x0 REVERT JUMPDEST POP POP POP POP PUSH1 0x40 MLOAD RETURNDATASIZE PUSH1 0x1F NOT PUSH1 0x1F DUP3 ADD AND DUP3 ADD DUP1 PUSH1 0x40 MSTORE POP DUP2 ADD SWAP1 PUSH2 0x1AAD SWAP2 SWAP1 PUSH2 0x5B2B JUMP JUMPDEST PUSH2 0x1AC9 JUMPI PUSH1 0x40 MLOAD PUSH3 0x461BCD PUSH1 0xE5 SHL DUP2 MSTORE PUSH1 0x4 ADD PUSH2 0x1033 SWAP1 PUSH2 0x5C72 JUMP JUMPDEST PUSH4 0xFFFFFFFF DUP3 AND PUSH1 0x0 SWAP1 DUP2 MSTORE PUSH1 0xD7 PUSH1 0x20 MSTORE PUSH1 0x40 DUP2 KECCAK256 TIMESTAMP PUSH1 0x1A DUP3 ADD SSTORE PUSH1 0x19 DUP2 ADD DUP1 SLOAD SWAP2 SWAP3 DUP5 SWAP3 PUSH2 0x1AF9 SWAP1 DUP5 SWAP1 PUSH2 0x5BC7 JUMP JUMPDEST SWAP1 SWAP2 SSTORE POP PUSH2 0x1B09 SWAP1 POP DUP2 DUP4 PUSH2 0x3E55 JUMP JUMPDEST POP POP POP JUMP JUMPDEST PUSH1 0x0 ADDRESS PUSH1 0x1 PUSH1 0x1 PUSH1 0xA0 SHL SUB PUSH32 0x0 AND EQ PUSH2 0x1BAE JUMPI PUSH1 0x40 MLOAD PUSH3 0x461BCD PUSH1 0xE5 SHL DUP2 MSTORE PUSH1 0x20 PUSH1 0x4 DUP3 ADD MSTORE PUSH1 0x38 PUSH1 0x24 DUP3 ADD MSTORE PUSH32 0x555550535570677261646561626C653A206D757374206E6F742062652063616C PUSH1 0x44 DUP3 ADD MSTORE PUSH32 0x6C6564207468726F7567682064656C656761746563616C6C0000000000000000 PUSH1 0x64 DUP3 ADD MSTORE PUSH1 0x84 ADD PUSH2 0x1033 JUMP JUMPDEST POP PUSH1 0x0 DUP1 MLOAD PUSH1 0x20 PUSH2 0x5E2E DUP4 CODECOPY DUP2 MLOAD SWAP2 MSTORE SWAP1 JUMP JUMPDEST PUSH1 0xC9 SLOAD PUSH1 0x40 MLOAD PUSH4 0x935E01B PUSH1 0xE2 SHL DUP2 MSTORE CALLER PUSH1 0x4 DUP3 ADD MSTORE PUSH1 0x1 PUSH1 0x1 PUSH1 0xA0 SHL SUB SWAP1 SWAP2 AND SWAP1 PUSH4 0x24D7806C SWAP1 PUSH1 0x24 ADD PUSH1 0x20 PUSH1 0x40 MLOAD DUP1 DUP4 SUB DUP2 DUP7 GAS STATICCALL ISZERO DUP1 ISZERO PUSH2 0x1C09 JUMPI RETURNDATASIZE PUSH1 0x0 DUP1 RETURNDATACOPY RETURNDATASIZE PUSH1 0x0 REVERT JUMPDEST POP POP POP POP PUSH1 0x40 MLOAD RETURNDATASIZE PUSH1 0x1F NOT PUSH1 0x1F DUP3 ADD AND DUP3 ADD DUP1 PUSH1 0x40 MSTORE POP DUP2 ADD SWAP1 PUSH2 0x1C2D SWAP2 SWAP1 PUSH2 0x5B2B JUMP JUMPDEST PUSH2 0x1C49 JUMPI PUSH1 0x40 MLOAD PUSH3 0x461BCD PUSH1 0xE5 SHL DUP2 MSTORE PUSH1 0x4 ADD PUSH2 0x1033 SWAP1 PUSH2 0x5C72 JUMP JUMPDEST PUSH4 0xFFFFFFFF DUP2 DUP2 AND PUSH1 0x0 SWAP1 DUP2 MSTORE PUSH1 0xD7 PUSH1 0x20 MSTORE PUSH1 0x40 DUP1 DUP3 KECCAK256 PUSH1 0x3 DUP2 ADD SLOAD PUSH1 0x1 PUSH1 0xA8 SHL SWAP1 DIV SWAP1 SWAP4 AND DUP3 MSTORE DUP2 KECCAK256 PUSH1 0xCB SLOAD SWAP1 SWAP2 PUSH3 0x10000 SWAP1 SWAP2 DIV PUSH1 0xFF AND SWAP1 JUMPDEST PUSH1 0x5 DUP4 ADD SLOAD PUSH2 0xFFFF DUP3 AND LT ISZERO PUSH2 0x1EF8 JUMPI PUSH1 0x4 DUP4 ADD SLOAD PUSH2 0xFFFF DUP3 AND LT DUP1 ISZERO PUSH2 0x1CEC JUMPI POP DUP5 PUSH4 0xFFFFFFFF AND DUP4 PUSH1 0x4 ADD DUP3 PUSH2 0xFFFF AND DUP2 SLOAD DUP2 LT PUSH2 0x1CC6 JUMPI PUSH2 0x1CC6 PUSH2 0x5C9E JUMP JUMPDEST PUSH1 0x0 SWAP2 DUP3 MSTORE PUSH1 0x20 SWAP1 SWAP2 KECCAK256 PUSH1 0x8 DUP3 DIV ADD SLOAD PUSH1 0x7 SWAP1 SWAP2 AND PUSH1 0x4 MUL PUSH2 0x100 EXP SWAP1 DIV PUSH4 0xFFFFFFFF AND EQ JUMPDEST ISZERO PUSH2 0x1DC7 JUMPI PUSH1 0x4 DUP4 ADD DUP1 SLOAD PUSH2 0x1D03 SWAP1 PUSH1 0x1 SWAP1 PUSH2 0x5BB4 JUMP JUMPDEST DUP2 SLOAD DUP2 LT PUSH2 0x1D13 JUMPI PUSH2 0x1D13 PUSH2 0x5C9E JUMP JUMPDEST SWAP1 PUSH1 0x0 MSTORE PUSH1 0x20 PUSH1 0x0 KECCAK256 SWAP1 PUSH1 0x8 SWAP2 DUP3 DUP3 DIV ADD SWAP2 SWAP1 MOD PUSH1 0x4 MUL SWAP1 SLOAD SWAP1 PUSH2 0x100 EXP SWAP1 DIV PUSH4 0xFFFFFFFF AND DUP4 PUSH1 0x4 ADD DUP3 PUSH2 0xFFFF AND DUP2 SLOAD DUP2 LT PUSH2 0x1D52 JUMPI PUSH2 0x1D52 PUSH2 0x5C9E JUMP JUMPDEST SWAP1 PUSH1 0x0 MSTORE PUSH1 0x20 PUSH1 0x0 KECCAK256 SWAP1 PUSH1 0x8 SWAP2 DUP3 DUP3 DIV ADD SWAP2 SWAP1 MOD PUSH1 0x4 MUL PUSH2 0x100 EXP DUP2 SLOAD DUP2 PUSH4 0xFFFFFFFF MUL NOT AND SWAP1 DUP4 PUSH4 0xFFFFFFFF AND MUL OR SWAP1 SSTORE POP DUP3 PUSH1 0x4 ADD DUP1 SLOAD DUP1 PUSH2 0x1D98 JUMPI PUSH2 0x1D98 PUSH2 0x5CB4 JUMP JUMPDEST PUSH1 0x0 DUP3 DUP2 MSTORE PUSH1 0x20 SWAP1 KECCAK256 PUSH1 0x8 PUSH1 0x0 NOT SWAP1 SWAP3 ADD SWAP2 DUP3 DIV ADD DUP1 SLOAD PUSH4 0xFFFFFFFF PUSH1 0x4 PUSH1 0x7 DUP6 AND MUL PUSH2 0x100 EXP MUL NOT AND SWAP1 SSTORE SWAP1 SSTORE JUMPDEST DUP5 PUSH4 0xFFFFFFFF AND DUP4 PUSH1 0x5 ADD DUP3 PUSH2 0xFFFF AND DUP2 SLOAD DUP2 LT PUSH2 0x1DE7 JUMPI PUSH2 0x1DE7 PUSH2 0x5C9E JUMP JUMPDEST PUSH1 0x0 SWAP2 DUP3 MSTORE PUSH1 0x20 SWAP1 SWAP2 KECCAK256 PUSH1 0x8 DUP3 DIV ADD SLOAD PUSH1 0x7 SWAP1 SWAP2 AND PUSH1 0x4 MUL PUSH2 0x100 EXP SWAP1 DIV PUSH4 0xFFFFFFFF AND SUB PUSH2 0x1EE6 JUMPI PUSH1 0x5 DUP4 ADD DUP1 SLOAD PUSH2 0x1E22 SWAP1 PUSH1 0x1 SWAP1 PUSH2 0x5BB4 JUMP JUMPDEST DUP2 SLOAD DUP2 LT PUSH2 0x1E32 JUMPI PUSH2 0x1E32 PUSH2 0x5C9E JUMP JUMPDEST SWAP1 PUSH1 0x0 MSTORE PUSH1 0x20 PUSH1 0x0 KECCAK256 SWAP1 PUSH1 0x8 SWAP2 DUP3 DUP3 DIV ADD SWAP2 SWAP1 MOD PUSH1 0x4 MUL SWAP1 SLOAD SWAP1 PUSH2 0x100 EXP SWAP1 DIV PUSH4 0xFFFFFFFF AND DUP4 PUSH1 0x5 ADD DUP3 PUSH2 0xFFFF AND DUP2 SLOAD DUP2 LT PUSH2 0x1E71 JUMPI PUSH2 0x1E71 PUSH2 0x5C9E JUMP JUMPDEST SWAP1 PUSH1 0x0 MSTORE PUSH1 0x20 PUSH1 0x0 KECCAK256 SWAP1 PUSH1 0x8 SWAP2 DUP3 DUP3 DIV ADD SWAP2 SWAP1 MOD PUSH1 0x4 MUL PUSH2 0x100 EXP DUP2 SLOAD DUP2 PUSH4 0xFFFFFFFF MUL NOT AND SWAP1 DUP4 PUSH4 0xFFFFFFFF AND MUL OR SWAP1 SSTORE POP DUP3 PUSH1 0x5 ADD DUP1 SLOAD DUP1 PUSH2 0x1EB7 JUMPI PUSH2 0x1EB7 PUSH2 0x5CB4 JUMP JUMPDEST PUSH1 0x0 DUP3 DUP2 MSTORE PUSH1 0x20 SWAP1 KECCAK256 PUSH1 0x8 PUSH1 0x0 NOT SWAP1 SWAP3 ADD SWAP2 DUP3 DIV ADD DUP1 SLOAD PUSH4 0xFFFFFFFF PUSH1 0x4 PUSH1 0x7 DUP6 AND MUL PUSH2 0x100 EXP MUL NOT AND SWAP1 SSTORE SWAP1 SSTORE JUMPDEST DUP1 PUSH2 0x1EF0 DUP2 PUSH2 0x5CCA JUMP JUMPDEST SWAP2 POP POP PUSH2 0x1C84 JUMP JUMPDEST POP PUSH1 0x3 DUP4 ADD DUP1 SLOAD PUSH4 0xFFFFFFFF PUSH1 0xA8 SHL NOT AND PUSH1 0x1 PUSH1 0xA8 SHL PUSH4 0xFFFFFFFF DUP9 AND MUL OR SWAP1 SSTORE PUSH1 0x0 JUMPDEST DUP2 PUSH1 0xFF AND DUP2 PUSH1 0xFF AND LT ISZERO PUSH2 0x2070 JUMPI PUSH4 0xFFFFFFFF DUP1 DUP8 AND PUSH1 0x0 SWAP1 DUP2 MSTORE PUSH1 0xD7 PUSH1 0x20 MSTORE PUSH1 0x40 DUP2 KECCAK256 DUP1 SLOAD SWAP1 SWAP3 AND SWAP1 SUB PUSH2 0x1F51 JUMPI POP PUSH2 0x2070 JUMP JUMPDEST DUP2 PUSH1 0xFF AND PUSH1 0x0 SUB PUSH2 0x1F9A JUMPI PUSH1 0x4 DUP2 DUP2 ADD DUP1 SLOAD PUSH1 0x1 DUP2 ADD DUP3 SSTORE PUSH1 0x0 SWAP2 DUP3 MSTORE PUSH1 0x20 SWAP1 SWAP2 KECCAK256 PUSH1 0x8 DUP3 DIV ADD DUP1 SLOAD PUSH1 0x7 SWAP1 SWAP3 AND SWAP1 SWAP3 MUL PUSH2 0x100 EXP PUSH4 0xFFFFFFFF DUP2 DUP2 MUL NOT SWAP1 SWAP3 AND SWAP2 DUP10 AND MUL OR SWAP1 SSTORE JUMPDEST PUSH1 0x5 DUP2 ADD DUP1 SLOAD PUSH1 0x1 DUP1 DUP3 ADD DUP4 SSTORE PUSH1 0x0 SWAP3 DUP4 MSTORE PUSH1 0x20 SWAP1 SWAP3 KECCAK256 PUSH1 0x8 DUP3 DIV ADD DUP1 SLOAD PUSH1 0x7 SWAP1 SWAP3 AND PUSH1 0x4 MUL PUSH2 0x100 EXP PUSH4 0xFFFFFFFF DUP2 DUP2 MUL NOT SWAP1 SWAP4 AND SWAP3 DUP11 AND MUL SWAP2 SWAP1 SWAP2 OR SWAP1 SSTORE PUSH1 0x6 DUP3 ADD SWAP1 PUSH2 0x1FEA SWAP1 DUP5 SWAP1 PUSH2 0x5CEB JUMP JUMPDEST DUP2 SLOAD PUSH1 0x1 DUP2 ADD DUP4 SSTORE PUSH1 0x0 SWAP3 DUP4 MSTORE PUSH1 0x20 DUP4 KECCAK256 PUSH1 0x8 DUP3 DIV ADD DUP1 SLOAD PUSH4 0xFFFFFFFF PUSH1 0x7 SWAP1 SWAP4 AND PUSH1 0x4 MUL PUSH2 0x100 EXP DUP4 DUP2 MUL NOT SWAP1 SWAP2 AND PUSH1 0xFF SWAP5 SWAP1 SWAP5 AND MUL SWAP3 SWAP1 SWAP3 OR SWAP1 SWAP2 SSTORE DUP3 SLOAD PUSH1 0x40 MLOAD SWAP1 DUP3 AND SWAP3 DUP11 DUP4 AND SWAP3 DUP11 AND SWAP2 PUSH32 0x3EC54E926FE5DD86406FE57832FF318517AED2A5CFBEACFB90A5E9489483AE4B SWAP2 SWAP1 LOG4 SWAP4 POP DUP1 PUSH2 0x2068 DUP2 PUSH2 0x5D04 JUMP JUMPDEST SWAP2 POP POP PUSH2 0x1F1C JUMP JUMPDEST POP POP POP POP POP POP JUMP JUMPDEST PUSH1 0xC9 SLOAD PUSH1 0x40 MLOAD PUSH4 0x935E01B PUSH1 0xE2 SHL DUP2 MSTORE CALLER PUSH1 0x4 DUP3 ADD MSTORE PUSH1 0x1 PUSH1 0x1 PUSH1 0xA0 SHL SUB SWAP1 SWAP2 AND SWAP1 PUSH4 0x24D7806C SWAP1 PUSH1 0x24 ADD PUSH1 0x20 PUSH1 0x40 MLOAD DUP1 DUP4 SUB DUP2 DUP7 GAS STATICCALL ISZERO DUP1 ISZERO PUSH2 0x20C0 JUMPI RETURNDATASIZE PUSH1 0x0 DUP1 RETURNDATACOPY RETURNDATASIZE PUSH1 0x0 REVERT JUMPDEST POP POP POP POP PUSH1 0x40 MLOAD RETURNDATASIZE PUSH1 0x1F NOT PUSH1 0x1F DUP3 ADD AND DUP3 ADD DUP1 PUSH1 0x40 MSTORE POP DUP2 ADD SWAP1 PUSH2 0x20E4 SWAP2 SWAP1 PUSH2 0x5B2B JUMP JUMPDEST PUSH2 0x2100 JUMPI PUSH1 0x40 MLOAD PUSH3 0x461BCD PUSH1 0xE5 SHL DUP2 MSTORE PUSH1 0x4 ADD PUSH2 0x1033 SWAP1 PUSH2 0x5C72 JUMP JUMPDEST PUSH4 0xFFFFFFFF DUP3 AND PUSH1 0x0 SWAP1 DUP2 MSTORE PUSH1 0xD7 PUSH1 0x20 MSTORE PUSH1 0x40 SWAP1 KECCAK256 PUSH2 0x1B09 DUP2 DUP4 PUSH2 0x3E55 JUMP JUMPDEST PUSH1 0xC9 SLOAD PUSH1 0x40 MLOAD PUSH4 0x935E01B PUSH1 0xE2 SHL DUP2 MSTORE CALLER PUSH1 0x4 DUP3 ADD MSTORE PUSH1 0x1 PUSH1 0x1 PUSH1 0xA0 SHL SUB SWAP1 SWAP2 AND SWAP1 PUSH4 0x24D7806C SWAP1 PUSH1 0x24 ADD PUSH1 0x20 PUSH1 0x40 MLOAD DUP1 DUP4 SUB DUP2 DUP7 GAS STATICCALL ISZERO DUP1 ISZERO PUSH2 0x2167 JUMPI RETURNDATASIZE PUSH1 0x0 DUP1 RETURNDATACOPY RETURNDATASIZE PUSH1 0x0 REVERT JUMPDEST POP POP POP POP PUSH1 0x40 MLOAD RETURNDATASIZE PUSH1 0x1F NOT PUSH1 0x1F DUP3 ADD AND DUP3 ADD DUP1 PUSH1 0x40 MSTORE POP DUP2 ADD SWAP1 PUSH2 0x218B SWAP2 SWAP1 PUSH2 0x5B2B JUMP JUMPDEST PUSH2 0x21A7 JUMPI PUSH1 0x40 MLOAD PUSH3 0x461BCD PUSH1 0xE5 SHL DUP2 MSTORE PUSH1 0x4 ADD PUSH2 0x1033 SWAP1 PUSH2 0x5C72 JUMP JUMPDEST PUSH1 0x0 JUMPDEST PUSH2 0xFFFF DUP2 AND DUP5 GT ISZERO PUSH2 0x23A1 JUMPI PUSH2 0x223B PUSH1 0xD7 PUSH1 0x0 DUP8 DUP8 DUP6 PUSH2 0xFFFF AND DUP2 DUP2 LT PUSH2 0x21D3 JUMPI PUSH2 0x21D3 PUSH2 0x5C9E JUMP JUMPDEST SWAP1 POP PUSH1 0x20 MUL ADD PUSH1 0x20 DUP2 ADD SWAP1 PUSH2 0x21E8 SWAP2 SWAP1 PUSH2 0x5346 JUMP JUMPDEST PUSH4 0xFFFFFFFF AND DUP2 MSTORE PUSH1 0x20 DUP2 ADD SWAP2 SWAP1 SWAP2 MSTORE PUSH1 0x40 ADD PUSH1 0x0 KECCAK256 PUSH1 0x3 ADD SLOAD PUSH2 0x100 SWAP1 DIV PUSH1 0x1 PUSH1 0x1 PUSH1 0xA0 SHL SUB AND DUP7 DUP7 PUSH2 0xFFFF DUP6 AND DUP2 DUP2 LT PUSH2 0x2226 JUMPI PUSH2 0x2226 PUSH2 0x5C9E JUMP JUMPDEST SWAP1 POP PUSH1 0x20 MUL ADD PUSH1 0x20 DUP2 ADD SWAP1 PUSH2 0x814 SWAP2 SWAP1 PUSH2 0x5346 JUMP JUMPDEST DUP3 DUP3 DUP3 PUSH2 0xFFFF AND DUP2 DUP2 LT PUSH2 0x2251 JUMPI PUSH2 0x2251 PUSH2 0x5C9E JUMP JUMPDEST SWAP1 POP PUSH1 0x20 MUL ADD PUSH1 0x20 DUP2 ADD SWAP1 PUSH2 0x2266 SWAP2 SWAP1 PUSH2 0x56D1 JUMP JUMPDEST PUSH1 0xD7 PUSH1 0x0 DUP8 DUP8 DUP6 PUSH2 0xFFFF AND DUP2 DUP2 LT PUSH2 0x2280 JUMPI PUSH2 0x2280 PUSH2 0x5C9E JUMP JUMPDEST SWAP1 POP PUSH1 0x20 MUL ADD PUSH1 0x20 DUP2 ADD SWAP1 PUSH2 0x2295 SWAP2 SWAP1 PUSH2 0x5346 JUMP JUMPDEST PUSH4 0xFFFFFFFF AND PUSH4 0xFFFFFFFF AND DUP2 MSTORE PUSH1 0x20 ADD SWAP1 DUP2 MSTORE PUSH1 0x20 ADD PUSH1 0x0 KECCAK256 PUSH1 0x3 ADD PUSH1 0x1 PUSH2 0x100 EXP DUP2 SLOAD DUP2 PUSH1 0x1 PUSH1 0x1 PUSH1 0xA0 SHL SUB MUL NOT AND SWAP1 DUP4 PUSH1 0x1 PUSH1 0x1 PUSH1 0xA0 SHL SUB AND MUL OR SWAP1 SSTORE POP PUSH1 0xD6 PUSH1 0x0 DUP5 DUP5 DUP5 PUSH2 0xFFFF AND DUP2 DUP2 LT PUSH2 0x22F0 JUMPI PUSH2 0x22F0 PUSH2 0x5C9E JUMP JUMPDEST SWAP1 POP PUSH1 0x20 MUL ADD PUSH1 0x20 DUP2 ADD SWAP1 PUSH2 0x2305 SWAP2 SWAP1 PUSH2 0x56D1 JUMP JUMPDEST PUSH1 0x1 PUSH1 0x1 PUSH1 0xA0 SHL SUB AND PUSH1 0x1 PUSH1 0x1 PUSH1 0xA0 SHL SUB AND DUP2 MSTORE PUSH1 0x20 ADD SWAP1 DUP2 MSTORE PUSH1 0x20 ADD PUSH1 0x0 KECCAK256 PUSH1 0x1 ADD DUP6 DUP6 DUP4 PUSH2 0xFFFF AND DUP2 DUP2 LT PUSH2 0x233E JUMPI PUSH2 0x233E PUSH2 0x5C9E JUMP JUMPDEST SWAP1 POP PUSH1 0x20 MUL ADD PUSH1 0x20 DUP2 ADD SWAP1 PUSH2 0x2353 SWAP2 SWAP1 PUSH2 0x5346 JUMP JUMPDEST DUP2 SLOAD PUSH1 0x1 DUP2 ADD DUP4 SSTORE PUSH1 0x0 SWAP3 DUP4 MSTORE PUSH1 0x20 SWAP1 SWAP3 KECCAK256 PUSH1 0x8 DUP4 DIV ADD DUP1 SLOAD PUSH1 0x7 SWAP1 SWAP4 AND PUSH1 0x4 MUL PUSH2 0x100 EXP PUSH4 0xFFFFFFFF DUP2 DUP2 MUL NOT SWAP1 SWAP5 AND SWAP3 SWAP1 SWAP4 AND SWAP3 SWAP1 SWAP3 MUL OR SWAP1 SSTORE DUP1 PUSH2 0x2399 DUP2 PUSH2 0x5CCA JUMP JUMPDEST SWAP2 POP POP PUSH2 0x21AA JUMP JUMPDEST POP POP POP POP POP JUMP JUMPDEST PUSH2 0x23B0 PUSH2 0x3A27 JUMP JUMPDEST PUSH2 0x23BA PUSH1 0x0 PUSH2 0x3EDF JUMP JUMPDEST JUMP JUMPDEST PUSH1 0xCA DUP2 DUP2 SLOAD DUP2 LT PUSH2 0x23CC JUMPI PUSH1 0x0 DUP1 REVERT JUMPDEST SWAP1 PUSH1 0x0 MSTORE PUSH1 0x20 PUSH1 0x0 KECCAK256 SWAP1 PUSH1 0x10 SWAP2 DUP3 DUP3 DIV ADD SWAP2 SWAP1 MOD PUSH1 0x2 MUL SWAP2 POP SLOAD SWAP1 PUSH2 0x100 EXP SWAP1 DIV PUSH2 0xFFFF AND DUP2 JUMP JUMPDEST PUSH2 0x244F PUSH1 0x40 MLOAD DUP1 PUSH2 0x140 ADD PUSH1 0x40 MSTORE DUP1 PUSH1 0x0 PUSH1 0xFF AND DUP2 MSTORE PUSH1 0x20 ADD PUSH1 0x0 DUP2 MSTORE PUSH1 0x20 ADD PUSH1 0x0 DUP2 MSTORE PUSH1 0x20 ADD PUSH1 0x0 DUP2 MSTORE PUSH1 0x20 ADD PUSH1 0x60 DUP2 MSTORE PUSH1 0x20 ADD PUSH1 0x0 DUP2 MSTORE PUSH1 0x20 ADD PUSH1 0x0 DUP2 MSTORE PUSH1 0x20 ADD PUSH1 0x0 DUP2 MSTORE PUSH1 0x20 ADD PUSH1 0x0 ISZERO ISZERO DUP2 MSTORE PUSH1 0x20 ADD PUSH1 0x60 DUP2 MSTORE POP SWAP1 JUMP JUMPDEST PUSH1 0xFF DUP1 DUP4 AND PUSH1 0x0 SWAP1 DUP2 MSTORE PUSH1 0xD8 PUSH1 0x20 SWAP1 DUP2 MSTORE PUSH1 0x40 SWAP2 DUP3 SWAP1 KECCAK256 DUP3 MLOAD PUSH2 0x140 DUP2 ADD DUP5 MSTORE DUP2 SLOAD SWAP1 SWAP5 AND DUP5 MSTORE PUSH1 0x1 DUP2 ADD SLOAD SWAP2 DUP5 ADD SWAP2 SWAP1 SWAP2 MSTORE PUSH1 0x2 DUP2 ADD SLOAD SWAP2 DUP4 ADD SWAP2 SWAP1 SWAP2 MSTORE PUSH1 0x3 DUP2 ADD SLOAD PUSH1 0x60 DUP4 ADD MSTORE PUSH1 0x4 DUP2 ADD DUP1 SLOAD PUSH1 0x80 DUP5 ADD SWAP2 SWAP1 PUSH2 0x24AD SWAP1 PUSH2 0x5AE3 JUMP JUMPDEST DUP1 PUSH1 0x1F ADD PUSH1 0x20 DUP1 SWAP2 DIV MUL PUSH1 0x20 ADD PUSH1 0x40 MLOAD SWAP1 DUP2 ADD PUSH1 0x40 MSTORE DUP1 SWAP3 SWAP2 SWAP1 DUP2 DUP2 MSTORE PUSH1 0x20 ADD DUP3 DUP1 SLOAD PUSH2 0x24D9 SWAP1 PUSH2 0x5AE3 JUMP JUMPDEST DUP1 ISZERO PUSH2 0x2526 JUMPI DUP1 PUSH1 0x1F LT PUSH2 0x24FB JUMPI PUSH2 0x100 DUP1 DUP4 SLOAD DIV MUL DUP4 MSTORE SWAP2 PUSH1 0x20 ADD SWAP2 PUSH2 0x2526 JUMP JUMPDEST DUP3 ADD SWAP2 SWAP1 PUSH1 0x0 MSTORE PUSH1 0x20 PUSH1 0x0 KECCAK256 SWAP1 JUMPDEST DUP2 SLOAD DUP2 MSTORE SWAP1 PUSH1 0x1 ADD SWAP1 PUSH1 0x20 ADD DUP1 DUP4 GT PUSH2 0x2509 JUMPI DUP3 SWAP1 SUB PUSH1 0x1F AND DUP3 ADD SWAP2 JUMPDEST POP POP POP POP POP DUP2 MSTORE PUSH1 0x20 ADD PUSH1 0x5 DUP3 ADD SLOAD DUP2 MSTORE PUSH1 0x20 ADD PUSH1 0x6 DUP3 ADD SLOAD DUP2 MSTORE PUSH1 0x20 ADD PUSH1 0x7 DUP3 ADD SLOAD DUP2 MSTORE PUSH1 0x20 ADD PUSH1 0x8 DUP3 ADD PUSH1 0x0 SWAP1 SLOAD SWAP1 PUSH2 0x100 EXP SWAP1 DIV PUSH1 0xFF AND ISZERO ISZERO ISZERO ISZERO DUP2 MSTORE PUSH1 0x20 ADD PUSH1 0x9 DUP3 ADD DUP1 SLOAD DUP1 PUSH1 0x20 MUL PUSH1 0x20 ADD PUSH1 0x40 MLOAD SWAP1 DUP2 ADD PUSH1 0x40 MSTORE DUP1 SWAP3 SWAP2 SWAP1 DUP2 DUP2 MSTORE PUSH1 0x20 ADD DUP3 DUP1 SLOAD DUP1 ISZERO PUSH2 0x25E3 JUMPI PUSH1 0x20 MUL DUP3 ADD SWAP2 SWAP1 PUSH1 0x0 MSTORE PUSH1 0x20 PUSH1 0x0 KECCAK256 SWAP1 PUSH1 0x0 SWAP1 JUMPDEST DUP3 DUP3 SWAP1 SLOAD SWAP1 PUSH2 0x100 EXP SWAP1 DIV PUSH4 0xFFFFFFFF AND PUSH4 0xFFFFFFFF AND DUP2 MSTORE PUSH1 0x20 ADD SWAP1 PUSH1 0x4 ADD SWAP1 PUSH1 0x20 DUP3 PUSH1 0x3 ADD DIV SWAP3 DUP4 ADD SWAP3 PUSH1 0x1 SUB DUP3 MUL SWAP2 POP DUP1 DUP5 GT PUSH2 0x25A6 JUMPI SWAP1 POP JUMPDEST POP POP POP POP POP DUP2 MSTORE POP POP SWAP1 POP SWAP2 SWAP1 POP JUMP JUMPDEST PUSH1 0xC9 SLOAD PUSH1 0x40 MLOAD PUSH4 0x935E01B PUSH1 0xE2 SHL DUP2 MSTORE CALLER PUSH1 0x4 DUP3 ADD MSTORE PUSH1 0x1 PUSH1 0x1 PUSH1 0xA0 SHL SUB SWAP1 SWAP2 AND SWAP1 PUSH4 0x24D7806C SWAP1 PUSH1 0x24 ADD PUSH1 0x20 PUSH1 0x40 MLOAD DUP1 DUP4 SUB DUP2 DUP7 GAS STATICCALL ISZERO DUP1 ISZERO PUSH2 0x263B JUMPI RETURNDATASIZE PUSH1 0x0 DUP1 RETURNDATACOPY RETURNDATASIZE PUSH1 0x0 REVERT JUMPDEST POP POP POP POP PUSH1 0x40 MLOAD RETURNDATASIZE PUSH1 0x1F NOT PUSH1 0x1F DUP3 ADD AND DUP3 ADD DUP1 PUSH1 0x40 MSTORE POP DUP2 ADD SWAP1 PUSH2 0x265F SWAP2 SWAP1 PUSH2 0x5B2B JUMP JUMPDEST PUSH2 0x267B JUMPI PUSH1 0x40 MLOAD PUSH3 0x461BCD PUSH1 0xE5 SHL DUP2 MSTORE PUSH1 0x4 ADD PUSH2 0x1033 SWAP1 PUSH2 0x5C72 JUMP JUMPDEST PUSH1 0xCF SLOAD PUSH1 0x0 SWAP1 PUSH2 0x2692 SWAP1 PUSH4 0xFFFFFFFF AND PUSH1 0x1 PUSH2 0x5D23 JUMP JUMPDEST PUSH1 0x1 PUSH1 0x1 PUSH1 0xA0 SHL SUB DUP10 AND PUSH1 0x0 SWAP1 DUP2 MSTORE PUSH1 0xD6 PUSH1 0x20 SWAP1 DUP2 MSTORE PUSH1 0x40 DUP1 DUP4 KECCAK256 PUSH4 0xFFFFFFFF DUP6 AND DUP5 MSTORE PUSH1 0xD7 SWAP1 SWAP3 MSTORE SWAP1 SWAP2 KECCAK256 SWAP2 SWAP3 POP SWAP1 TIMESTAMP PUSH2 0x2718 DUP3 DUP13 DUP7 DUP14 PUSH2 0x26DC DUP15 PUSH8 0xDE0B6B3A7640000 PUSH2 0x5B5E JUMP JUMPDEST PUSH2 0x26EE DUP16 PUSH8 0xDE0B6B3A7640000 PUSH2 0x5B5E JUMP JUMPDEST PUSH2 0x26F9 SWAP1 PUSH1 0x3 PUSH2 0x5B5E JUMP JUMPDEST DUP15 ISZERO PUSH2 0x2705 JUMPI DUP15 PUSH2 0x2707 JUMP JUMPDEST DUP8 JUMPDEST PUSH1 0xCB SLOAD PUSH3 0x10000 SWAP1 DIV PUSH1 0xFF AND PUSH2 0x3F31 JUMP JUMPDEST PUSH1 0xD5 SLOAD PUSH1 0xFF AND ISZERO PUSH2 0x28A2 JUMPI PUSH1 0xC9 SLOAD PUSH1 0x40 DUP1 MLOAD PUSH4 0x44846F9D PUSH1 0xE1 SHL DUP2 MSTORE SWAP1 MLOAD PUSH1 0x0 SWAP3 PUSH1 0x1 PUSH1 0x1 PUSH1 0xA0 SHL SUB AND SWAP2 PUSH4 0x8908DF3A SWAP2 PUSH1 0x4 DUP1 DUP4 ADD SWAP3 PUSH1 0x20 SWAP3 SWAP2 SWAP1 DUP3 SWAP1 SUB ADD DUP2 DUP7 GAS STATICCALL ISZERO DUP1 ISZERO PUSH2 0x276D JUMPI RETURNDATASIZE PUSH1 0x0 DUP1 RETURNDATACOPY RETURNDATASIZE PUSH1 0x0 REVERT JUMPDEST POP POP POP POP PUSH1 0x40 MLOAD RETURNDATASIZE PUSH1 0x1F NOT PUSH1 0x1F DUP3 ADD AND DUP3 ADD DUP1 PUSH1 0x40 MSTORE POP DUP2 ADD SWAP1 PUSH2 0x2791 SWAP2 SWAP1 PUSH2 0x5B97 JUMP JUMPDEST PUSH1 0x1 PUSH1 0x1 PUSH1 0xA0 SHL SUB AND PUSH4 0xD275F14E DUP7 PUSH2 0x27B2 DUP14 PUSH8 0xDE0B6B3A7640000 PUSH2 0x5B5E JUMP JUMPDEST DUP12 ISZERO PUSH2 0x27BE JUMPI DUP12 PUSH2 0x27C0 JUMP JUMPDEST DUP6 JUMPDEST DUP12 ISZERO PUSH2 0x27CC JUMPI DUP12 PUSH2 0x27CE JUMP JUMPDEST DUP7 JUMPDEST PUSH2 0x27DB DUP13 PUSH3 0x15180 PUSH2 0x5B5E JUMP JUMPDEST PUSH1 0x40 MLOAD PUSH1 0x1 PUSH1 0x1 PUSH1 0xE0 SHL SUB NOT PUSH1 0xE0 DUP9 SWAP1 SHL AND DUP2 MSTORE PUSH4 0xFFFFFFFF SWAP6 SWAP1 SWAP6 AND PUSH1 0x4 DUP7 ADD MSTORE PUSH1 0x24 DUP6 ADD SWAP4 SWAP1 SWAP4 MSTORE PUSH1 0x44 DUP5 ADD SWAP2 SWAP1 SWAP2 MSTORE PUSH1 0x64 DUP4 ADD MSTORE PUSH1 0x84 DUP3 ADD MSTORE PUSH1 0xA4 ADD PUSH1 0x20 PUSH1 0x40 MLOAD DUP1 DUP4 SUB DUP2 PUSH1 0x0 DUP8 GAS CALL ISZERO DUP1 ISZERO PUSH2 0x2839 JUMPI RETURNDATASIZE PUSH1 0x0 DUP1 RETURNDATACOPY RETURNDATASIZE PUSH1 0x0 REVERT JUMPDEST POP POP POP POP PUSH1 0x40 MLOAD RETURNDATASIZE PUSH1 0x1F NOT PUSH1 0x1F DUP3 ADD AND DUP3 ADD DUP1 PUSH1 0x40 MSTORE POP DUP2 ADD SWAP1 PUSH2 0x285D SWAP2 SWAP1 PUSH2 0x5D47 JUMP JUMPDEST PUSH1 0x18 DUP5 ADD DUP1 SLOAD PUSH1 0x1 DUP2 ADD DUP3 SSTORE PUSH1 0x0 SWAP2 DUP3 MSTORE PUSH1 0x20 SWAP1 SWAP2 KECCAK256 PUSH1 0x8 DUP3 DIV ADD DUP1 SLOAD PUSH1 0x7 SWAP1 SWAP3 AND PUSH1 0x4 MUL PUSH2 0x100 EXP PUSH4 0xFFFFFFFF DUP2 DUP2 MUL NOT SWAP1 SWAP4 AND SWAP4 SWAP1 SWAP3 AND SWAP2 SWAP1 SWAP2 MUL SWAP2 SWAP1 SWAP2 OR SWAP1 SSTORE POP JUMPDEST PUSH1 0x1 DUP4 DUP2 ADD DUP1 SLOAD DUP1 DUP4 ADD DUP3 SSTORE PUSH1 0x0 SWAP2 DUP3 MSTORE PUSH1 0x20 DUP3 KECCAK256 PUSH1 0x8 DUP3 DIV ADD DUP1 SLOAD PUSH1 0x7 SWAP1 SWAP3 AND PUSH1 0x4 MUL PUSH2 0x100 EXP PUSH4 0xFFFFFFFF DUP2 DUP2 MUL NOT SWAP1 SWAP4 AND DUP10 DUP5 AND SWAP2 SWAP1 SWAP2 MUL OR SWAP1 SSTORE DUP6 SLOAD PUSH1 0xFF NOT AND SWAP1 SWAP3 OR DUP6 SSTORE PUSH1 0xCF DUP1 SLOAD SWAP1 SWAP3 AND SWAP2 SWAP1 PUSH2 0x28FD DUP4 PUSH2 0x5D64 JUMP JUMPDEST SWAP2 SWAP1 PUSH2 0x100 EXP DUP2 SLOAD DUP2 PUSH4 0xFFFFFFFF MUL NOT AND SWAP1 DUP4 PUSH4 0xFFFFFFFF AND MUL OR SWAP1 SSTORE POP POP POP POP POP POP POP POP POP POP POP POP POP JUMP JUMPDEST PUSH1 0x0 SLOAD PUSH2 0x100 SWAP1 DIV PUSH1 0xFF AND ISZERO DUP1 DUP1 ISZERO PUSH2 0x2949 JUMPI POP PUSH1 0x0 SLOAD PUSH1 0x1 PUSH1 0xFF SWAP1 SWAP2 AND LT JUMPDEST DUP1 PUSH2 0x2963 JUMPI POP ADDRESS EXTCODESIZE ISZERO DUP1 ISZERO PUSH2 0x2963 JUMPI POP PUSH1 0x0 SLOAD PUSH1 0xFF AND PUSH1 0x1 EQ JUMPDEST PUSH2 0x29C6 JUMPI PUSH1 0x40 MLOAD PUSH3 0x461BCD PUSH1 0xE5 SHL DUP2 MSTORE PUSH1 0x20 PUSH1 0x4 DUP3 ADD MSTORE PUSH1 0x2E PUSH1 0x24 DUP3 ADD MSTORE PUSH32 0x496E697469616C697A61626C653A20636F6E747261637420697320616C726561 PUSH1 0x44 DUP3 ADD MSTORE PUSH14 0x191E481A5B9A5D1A585B1A5E9959 PUSH1 0x92 SHL PUSH1 0x64 DUP3 ADD MSTORE PUSH1 0x84 ADD PUSH2 0x1033 JUMP JUMPDEST PUSH1 0x0 DUP1 SLOAD PUSH1 0xFF NOT AND PUSH1 0x1 OR SWAP1 SSTORE DUP1 ISZERO PUSH2 0x29E9 JUMPI PUSH1 0x0 DUP1 SLOAD PUSH2 0xFF00 NOT AND PUSH2 0x100 OR SWAP1 SSTORE JUMPDEST PUSH1 0xC9 DUP1 SLOAD PUSH1 0x1 PUSH1 0x1 PUSH1 0xA0 SHL SUB NOT AND PUSH20 0xB8BF5FEB9FCA57D9C5D27185DDF3017E99A2D36 OR SWAP1 SSTORE PUSH1 0xCB DUP1 SLOAD PUSH2 0xFFFF NOT AND PUSH2 0x3E8 OR SWAP1 SSTORE PUSH1 0x40 DUP1 MLOAD PUSH2 0x3A0 DUP2 ADD DUP3 MSTORE PUSH1 0x64 DUP2 MSTORE PUSH1 0x46 PUSH1 0x20 DUP3 ADD MSTORE PUSH1 0x32 SWAP2 DUP2 ADD DUP3 SWAP1 MSTORE PUSH1 0x60 DUP2 ADD DUP3 SWAP1 MSTORE PUSH1 0x80 DUP2 ADD DUP3 SWAP1 MSTORE PUSH1 0xA0 DUP2 ADD DUP3 SWAP1 MSTORE PUSH1 0xC0 DUP2 ADD DUP3 SWAP1 MSTORE PUSH1 0xE0 DUP2 ADD DUP3 SWAP1 MSTORE PUSH2 0x100 DUP2 ADD DUP3 SWAP1 MSTORE PUSH2 0x120 DUP2 ADD DUP3 SWAP1 MSTORE PUSH2 0x140 DUP2 ADD DUP3 SWAP1 MSTORE PUSH2 0x160 DUP2 ADD DUP3 SWAP1 MSTORE PUSH2 0x180 DUP2 ADD DUP3 SWAP1 MSTORE PUSH2 0x1A0 DUP2 ADD DUP3 SWAP1 MSTORE PUSH2 0x1C0 DUP2 ADD DUP3 SWAP1 MSTORE PUSH2 0x1E0 DUP2 ADD DUP3 SWAP1 MSTORE PUSH2 0x200 DUP2 ADD DUP3 SWAP1 MSTORE PUSH2 0x220 DUP2 ADD DUP3 SWAP1 MSTORE PUSH2 0x240 DUP2 ADD SWAP2 SWAP1 SWAP2 MSTORE PUSH1 0x14 PUSH2 0x260 DUP3 ADD DUP2 SWAP1 MSTORE PUSH2 0x280 DUP3 ADD DUP2 SWAP1 MSTORE PUSH2 0x2A0 DUP3 ADD DUP2 SWAP1 MSTORE PUSH2 0x2C0 DUP3 ADD DUP2 SWAP1 MSTORE PUSH2 0x2E0 DUP3 ADD DUP2 SWAP1 MSTORE PUSH2 0x300 DUP3 ADD DUP2 SWAP1 MSTORE PUSH2 0x320 DUP3 ADD DUP2 SWAP1 MSTORE PUSH2 0x340 DUP3 ADD DUP2 SWAP1 MSTORE PUSH2 0x360 DUP3 ADD DUP2 SWAP1 MSTORE PUSH2 0x380 DUP3 ADD MSTORE PUSH2 0x2B16 SWAP1 PUSH1 0xCA SWAP1 PUSH1 0x1D PUSH2 0x50E9 JUMP JUMPDEST POP PUSH1 0xCB DUP1 SLOAD PUSH3 0xFF0000 NOT AND PUSH3 0x320000 OR SWAP1 SSTORE PUSH9 0x56BC75E2D63100000 PUSH1 0xCC SSTORE PUSH1 0xCF DUP1 SLOAD PUSH7 0x2000000000000 PUSH7 0xFF00FF00000000 NOT SWAP1 SWAP2 AND OR SWAP1 SSTORE PUSH1 0xD5 DUP1 SLOAD PUSH3 0x278D00 PUSH1 0xD2 SSTORE PUSH3 0xFFFFFF NOT AND PUSH3 0x140101 OR SWAP1 SSTORE PUSH2 0x2B70 PUSH2 0x42C8 JUMP JUMPDEST PUSH2 0x2B78 PUSH2 0x42F7 JUMP JUMPDEST DUP1 ISZERO PUSH2 0x13CC JUMPI PUSH1 0x0 DUP1 SLOAD PUSH2 0xFF00 NOT AND SWAP1 SSTORE PUSH1 0x40 MLOAD PUSH1 0x1 DUP2 MSTORE PUSH32 0x7F26B83FF96E1F2B6A682F133852F6798A09C465DA95921460CEFB3847402498 SWAP1 PUSH1 0x20 ADD JUMPDEST PUSH1 0x40 MLOAD DUP1 SWAP2 SUB SWAP1 LOG1 POP JUMP JUMPDEST PUSH1 0xC9 SLOAD PUSH1 0x40 MLOAD PUSH4 0x935E01B PUSH1 0xE2 SHL DUP2 MSTORE CALLER PUSH1 0x4 DUP3 ADD MSTORE PUSH1 0x1 PUSH1 0x1 PUSH1 0xA0 SHL SUB SWAP1 SWAP2 AND SWAP1 PUSH4 0x24D7806C SWAP1 PUSH1 0x24 ADD PUSH1 0x20 PUSH1 0x40 MLOAD DUP1 DUP4 SUB DUP2 DUP7 GAS STATICCALL ISZERO DUP1 ISZERO PUSH2 0x2C09 JUMPI RETURNDATASIZE PUSH1 0x0 DUP1 RETURNDATACOPY RETURNDATASIZE PUSH1 0x0 REVERT JUMPDEST POP POP POP POP PUSH1 0x40 MLOAD RETURNDATASIZE PUSH1 0x1F NOT PUSH1 0x1F DUP3 ADD AND DUP3 ADD DUP1 PUSH1 0x40 MSTORE POP DUP2 ADD SWAP1 PUSH2 0x2C2D SWAP2 SWAP1 PUSH2 0x5B2B JUMP JUMPDEST PUSH2 0x2C49 JUMPI PUSH1 0x40 MLOAD PUSH3 0x461BCD PUSH1 0xE5 SHL DUP2 MSTORE PUSH1 0x4 ADD PUSH2 0x1033 SWAP1 PUSH2 0x5C72 JUMP JUMPDEST PUSH1 0x0 JUMPDEST PUSH2 0xFFFF DUP2 AND DUP5 GT ISZERO PUSH2 0x23A1 JUMPI DUP3 DUP3 DUP3 PUSH2 0xFFFF AND DUP2 DUP2 LT PUSH2 0x2C6E JUMPI PUSH2 0x2C6E PUSH2 0x5C9E JUMP JUMPDEST SWAP1 POP PUSH1 0x20 MUL ADD PUSH1 0x20 DUP2 ADD SWAP1 PUSH2 0x2C83 SWAP2 SWAP1 PUSH2 0x5D7D JUMP JUMPDEST PUSH1 0xD6 PUSH1 0x0 DUP8 DUP8 DUP6 PUSH2 0xFFFF AND DUP2 DUP2 LT PUSH2 0x2C9D JUMPI PUSH2 0x2C9D PUSH2 0x5C9E JUMP JUMPDEST SWAP1 POP PUSH1 0x20 MUL ADD PUSH1 0x20 DUP2 ADD SWAP1 PUSH2 0x2CB2 SWAP2 SWAP1 PUSH2 0x56D1 JUMP JUMPDEST PUSH1 0x1 PUSH1 0x1 PUSH1 0xA0 SHL SUB AND DUP2 MSTORE PUSH1 0x20 DUP2 ADD SWAP2 SWAP1 SWAP2 MSTORE PUSH1 0x40 ADD PUSH1 0x0 KECCAK256 DUP1 SLOAD PUSH1 0xFF NOT AND SWAP2 ISZERO ISZERO SWAP2 SWAP1 SWAP2 OR SWAP1 SSTORE DUP1 PUSH2 0x2CE4 DUP2 PUSH2 0x5CCA JUMP JUMPDEST SWAP2 POP POP PUSH2 0x2C4C JUMP JUMPDEST PUSH1 0xC9 SLOAD PUSH1 0x40 MLOAD PUSH4 0x935E01B PUSH1 0xE2 SHL DUP2 MSTORE CALLER PUSH1 0x4 DUP3 ADD MSTORE PUSH1 0x1 PUSH1 0x1 PUSH1 0xA0 SHL SUB SWAP1 SWAP2 AND SWAP1 PUSH4 0x24D7806C SWAP1 PUSH1 0x24 ADD PUSH1 0x20 PUSH1 0x40 MLOAD DUP1 DUP4 SUB DUP2 DUP7 GAS STATICCALL ISZERO DUP1 ISZERO PUSH2 0x2D34 JUMPI RETURNDATASIZE PUSH1 0x0 DUP1 RETURNDATACOPY RETURNDATASIZE PUSH1 0x0 REVERT JUMPDEST POP POP POP POP PUSH1 0x40 MLOAD RETURNDATASIZE PUSH1 0x1F NOT PUSH1 0x1F DUP3 ADD AND DUP3 ADD DUP1 PUSH1 0x40 MSTORE POP DUP2 ADD SWAP1 PUSH2 0x2D58 SWAP2 SWAP1 PUSH2 0x5B2B JUMP JUMPDEST PUSH2 0x2D74 JUMPI PUSH1 0x40 MLOAD PUSH3 0x461BCD PUSH1 0xE5 SHL DUP2 MSTORE PUSH1 0x4 ADD PUSH2 0x1033 SWAP1 PUSH2 0x5C72 JUMP JUMPDEST PUSH1 0x0 JUMPDEST PUSH2 0xFFFF DUP2 AND DUP5 GT ISZERO PUSH2 0x23A1 JUMPI DUP3 DUP3 DUP3 PUSH2 0xFFFF AND DUP2 DUP2 LT PUSH2 0x2D99 JUMPI PUSH2 0x2D99 PUSH2 0x5C9E JUMP JUMPDEST SWAP1 POP PUSH1 0x20 MUL ADD PUSH1 0x20 DUP2 ADD SWAP1 PUSH2 0x2DAE SWAP2 SWAP1 PUSH2 0x5D7D JUMP JUMPDEST PUSH1 0xD7 PUSH1 0x0 DUP8 DUP8 DUP6 PUSH2 0xFFFF AND DUP2 DUP2 LT PUSH2 0x2DC8 JUMPI PUSH2 0x2DC8 PUSH2 0x5C9E JUMP JUMPDEST SWAP1 POP PUSH1 0x20 MUL ADD PUSH1 0x20 DUP2 ADD SWAP1 PUSH2 0x2DDD SWAP2 SWAP1 PUSH2 0x5346 JUMP JUMPDEST PUSH4 0xFFFFFFFF AND DUP2 MSTORE PUSH1 0x20 DUP2 ADD SWAP2 SWAP1 SWAP2 MSTORE PUSH1 0x40 ADD PUSH1 0x0 KECCAK256 PUSH1 0x1C ADD DUP1 SLOAD SWAP2 ISZERO ISZERO PUSH4 0x1000000 MUL PUSH4 0xFF000000 NOT SWAP1 SWAP3 AND SWAP2 SWAP1 SWAP2 OR SWAP1 SSTORE DUP1 PUSH2 0x2E1A DUP2 PUSH2 0x5CCA JUMP JUMPDEST SWAP2 POP POP PUSH2 0x2D77 JUMP JUMPDEST CALLVALUE PUSH1 0x0 PUSH2 0x2E2E DUP3 PUSH2 0x431E JUMP JUMPDEST SWAP1 POP PUSH1 0xCC SLOAD DUP2 LT ISZERO PUSH2 0x2E82 JUMPI PUSH1 0x40 MLOAD PUSH3 0x461BCD PUSH1 0xE5 SHL DUP2 MSTORE PUSH1 0x20 PUSH1 0x4 DUP3 ADD MSTORE PUSH1 0x1F PUSH1 0x24 DUP3 ADD MSTORE PUSH32 0x56616C7565206C657373207468656E206D696E436F6E747269627574696F6E00 PUSH1 0x44 DUP3 ADD MSTORE PUSH1 0x64 ADD PUSH2 0x1033 JUMP JUMPDEST PUSH4 0xFFFFFFFF DUP4 AND PUSH1 0x0 SWAP1 DUP2 MSTORE PUSH1 0xD7 PUSH1 0x20 MSTORE PUSH1 0x40 DUP2 KECCAK256 CALLER SWAP2 TIMESTAMP SWAP2 SWAP1 PUSH2 0x2EA7 DUP6 PUSH1 0x3 PUSH2 0x5B5E JUMP JUMPDEST DUP3 PUSH1 0x12 ADD SLOAD DUP4 PUSH1 0x14 ADD SLOAD PUSH2 0x2EBB SWAP2 SWAP1 PUSH2 0x5BB4 JUMP JUMPDEST PUSH2 0x2EC5 SWAP2 SWAP1 PUSH2 0x5BC7 JUMP JUMPDEST SWAP1 POP PUSH1 0x0 PUSH1 0x3 DUP4 PUSH1 0x14 ADD SLOAD PUSH1 0x2 PUSH2 0x2EDC SWAP2 SWAP1 PUSH2 0x5B5E JUMP JUMPDEST PUSH2 0x2EE6 SWAP2 SWAP1 PUSH2 0x5B75 JUMP JUMPDEST DUP4 PUSH1 0x12 ADD SLOAD LT PUSH2 0x2EF7 JUMPI PUSH1 0x0 PUSH2 0x2F2F JUMP JUMPDEST PUSH1 0x3 DUP4 PUSH1 0x12 ADD SLOAD PUSH1 0x3 DUP6 PUSH1 0x14 ADD SLOAD PUSH1 0x2 PUSH2 0x2F11 SWAP2 SWAP1 PUSH2 0x5B5E JUMP JUMPDEST PUSH2 0x2F1B SWAP2 SWAP1 PUSH2 0x5B75 JUMP JUMPDEST PUSH2 0x2F25 SWAP2 SWAP1 PUSH2 0x5BB4 JUMP JUMPDEST PUSH2 0x2F2F SWAP2 SWAP1 PUSH2 0x5B75 JUMP JUMPDEST SWAP1 POP PUSH2 0x2F54 DUP4 DUP7 DUP11 PUSH1 0x0 DUP11 DUP8 DUP11 PUSH1 0xCB PUSH1 0x2 SWAP1 SLOAD SWAP1 PUSH2 0x100 EXP SWAP1 DIV PUSH1 0xFF AND PUSH1 0xFF AND PUSH2 0x3F31 JUMP JUMPDEST PUSH1 0xD5 SLOAD PUSH1 0xFF AND ISZERO PUSH2 0x30B0 JUMPI PUSH1 0xC9 SLOAD PUSH1 0x40 DUP1 MLOAD PUSH4 0x44846F9D PUSH1 0xE1 SHL DUP2 MSTORE SWAP1 MLOAD PUSH1 0x0 SWAP3 PUSH1 0x1 PUSH1 0x1 PUSH1 0xA0 SHL SUB AND SWAP2 PUSH4 0x8908DF3A SWAP2 PUSH1 0x4 DUP1 DUP4 ADD SWAP3 PUSH1 0x20 SWAP3 SWAP2 SWAP1 DUP3 SWAP1 SUB ADD DUP2 DUP7 GAS STATICCALL ISZERO DUP1 ISZERO PUSH2 0x2FA9 JUMPI RETURNDATASIZE PUSH1 0x0 DUP1 RETURNDATACOPY RETURNDATASIZE PUSH1 0x0 REVERT JUMPDEST POP POP POP POP PUSH1 0x40 MLOAD RETURNDATASIZE PUSH1 0x1F NOT PUSH1 0x1F DUP3 ADD AND DUP3 ADD DUP1 PUSH1 0x40 MSTORE POP DUP2 ADD SWAP1 PUSH2 0x2FCD SWAP2 SWAP1 PUSH2 0x5B97 JUMP JUMPDEST PUSH1 0x1 PUSH1 0x1 PUSH1 0xA0 SHL SUB AND PUSH4 0xD275F14E DUP11 PUSH2 0x2FE6 DUP6 DUP12 PUSH2 0x5BC7 JUMP JUMPDEST PUSH1 0x40 MLOAD PUSH1 0x1 PUSH1 0x1 PUSH1 0xE0 SHL SUB NOT PUSH1 0xE0 DUP6 SWAP1 SHL AND DUP2 MSTORE PUSH4 0xFFFFFFFF SWAP3 SWAP1 SWAP3 AND PUSH1 0x4 DUP4 ADD MSTORE PUSH1 0x24 DUP3 ADD MSTORE PUSH1 0x44 DUP2 ADD DUP9 SWAP1 MSTORE PUSH1 0x64 DUP2 ADD DUP9 SWAP1 MSTORE PUSH4 0x20F5800 PUSH1 0x84 DUP3 ADD MSTORE PUSH1 0xA4 ADD PUSH1 0x20 PUSH1 0x40 MLOAD DUP1 DUP4 SUB DUP2 PUSH1 0x0 DUP8 GAS CALL ISZERO DUP1 ISZERO PUSH2 0x3047 JUMPI RETURNDATASIZE PUSH1 0x0 DUP1 RETURNDATACOPY RETURNDATASIZE PUSH1 0x0 REVERT JUMPDEST POP POP POP POP PUSH1 0x40 MLOAD RETURNDATASIZE PUSH1 0x1F NOT PUSH1 0x1F DUP3 ADD AND DUP3 ADD DUP1 PUSH1 0x40 MSTORE POP DUP2 ADD SWAP1 PUSH2 0x306B SWAP2 SWAP1 PUSH2 0x5D47 JUMP JUMPDEST PUSH1 0x18 DUP6 ADD DUP1 SLOAD PUSH1 0x1 DUP2 ADD DUP3 SSTORE PUSH1 0x0 SWAP2 DUP3 MSTORE PUSH1 0x20 SWAP1 SWAP2 KECCAK256 PUSH1 0x8 DUP3 DIV ADD DUP1 SLOAD PUSH1 0x7 SWAP1 SWAP3 AND PUSH1 0x4 MUL PUSH2 0x100 EXP PUSH4 0xFFFFFFFF DUP2 DUP2 MUL NOT SWAP1 SWAP4 AND SWAP4 SWAP1 SWAP3 AND SWAP2 SWAP1 SWAP2 MUL SWAP2 SWAP1 SWAP2 OR SWAP1 SSTORE POP JUMPDEST POP POP POP POP POP POP POP POP JUMP JUMPDEST PUSH2 0x30C2 PUSH2 0x3A27 JUMP JUMPDEST PUSH1 0xCB DUP1 SLOAD PUSH2 0xFFFF NOT AND PUSH2 0xFFFF SWAP3 SWAP1 SWAP3 AND SWAP2 SWAP1 SWAP2 OR SWAP1 SSTORE JUMP JUMPDEST CALLVALUE PUSH1 0x0 PUSH2 0x30E6 DUP3 PUSH2 0x431E JUMP JUMPDEST SWAP1 POP PUSH1 0xCC SLOAD DUP2 LT ISZERO PUSH2 0x313A JUMPI PUSH1 0x40 MLOAD PUSH3 0x461BCD PUSH1 0xE5 SHL DUP2 MSTORE PUSH1 0x20 PUSH1 0x4 DUP3 ADD MSTORE PUSH1 0x1F PUSH1 0x24 DUP3 ADD MSTORE PUSH32 0x56616C7565206C657373207468656E206D696E436F6E747269627574696F6E00 PUSH1 0x44 DUP3 ADD MSTORE PUSH1 0x64 ADD PUSH2 0x1033 JUMP JUMPDEST PUSH1 0xCF SLOAD CALLER SWAP1 TIMESTAMP SWAP1 PUSH1 0x0 SWAP1 PUSH2 0x3155 SWAP1 PUSH4 0xFFFFFFFF AND PUSH1 0x1 PUSH2 0x5D23 JUMP JUMPDEST PUSH1 0x1 PUSH1 0x1 PUSH1 0xA0 SHL SUB DUP5 AND PUSH1 0x0 SWAP1 DUP2 MSTORE PUSH1 0xD6 PUSH1 0x20 SWAP1 DUP2 MSTORE PUSH1 0x40 DUP1 DUP4 KECCAK256 PUSH4 0xFFFFFFFF DUP6 AND DUP5 MSTORE PUSH1 0xD7 SWAP1 SWAP3 MSTORE SWAP1 SWAP2 KECCAK256 SWAP2 SWAP3 POP SWAP1 PUSH2 0x31AB DUP2 DUP7 DUP6 DUP12 DUP11 PUSH2 0x3198 DUP2 PUSH1 0x3 PUSH2 0x5B5E JUMP JUMPDEST PUSH1 0xCB SLOAD DUP12 SWAP1 PUSH3 0x10000 SWAP1 DIV PUSH1 0xFF AND PUSH2 0x3F31 JUMP JUMPDEST PUSH1 0xD5 SLOAD PUSH1 0xFF AND ISZERO PUSH2 0x32FA JUMPI PUSH1 0xC9 SLOAD PUSH1 0x40 DUP1 MLOAD PUSH4 0x44846F9D PUSH1 0xE1 SHL DUP2 MSTORE SWAP1 MLOAD PUSH1 0x0 SWAP3 PUSH1 0x1 PUSH1 0x1 PUSH1 0xA0 SHL SUB AND SWAP2 PUSH4 0x8908DF3A SWAP2 PUSH1 0x4 DUP1 DUP4 ADD SWAP3 PUSH1 0x20 SWAP3 SWAP2 SWAP1 DUP3 SWAP1 SUB ADD DUP2 DUP7 GAS STATICCALL ISZERO DUP1 ISZERO PUSH2 0x3200 JUMPI RETURNDATASIZE PUSH1 0x0 DUP1 RETURNDATACOPY RETURNDATASIZE PUSH1 0x0 REVERT JUMPDEST POP POP POP POP PUSH1 0x40 MLOAD RETURNDATASIZE PUSH1 0x1F NOT PUSH1 0x1F DUP3 ADD AND DUP3 ADD DUP1 PUSH1 0x40 MSTORE POP DUP2 ADD SWAP1 PUSH2 0x3224 SWAP2 SWAP1 PUSH2 0x5B97 JUMP JUMPDEST PUSH1 0x40 MLOAD PUSH4 0x693AF8A7 PUSH1 0xE1 SHL DUP2 MSTORE PUSH4 0xFFFFFFFF DUP7 AND PUSH1 0x4 DUP3 ADD MSTORE PUSH1 0x24 DUP2 ADD DUP10 SWAP1 MSTORE PUSH1 0x44 DUP2 ADD DUP8 SWAP1 MSTORE PUSH1 0x64 DUP2 ADD DUP8 SWAP1 MSTORE PUSH4 0x20F5800 PUSH1 0x84 DUP3 ADD MSTORE PUSH1 0x1 PUSH1 0x1 PUSH1 0xA0 SHL SUB SWAP2 SWAP1 SWAP2 AND SWAP1 PUSH4 0xD275F14E SWAP1 PUSH1 0xA4 ADD PUSH1 0x20 PUSH1 0x40 MLOAD DUP1 DUP4 SUB DUP2 PUSH1 0x0 DUP8 GAS CALL ISZERO DUP1 ISZERO PUSH2 0x3291 JUMPI RETURNDATASIZE PUSH1 0x0 DUP1 RETURNDATACOPY RETURNDATASIZE PUSH1 0x0 REVERT JUMPDEST POP POP POP POP PUSH1 0x40 MLOAD RETURNDATASIZE PUSH1 0x1F NOT PUSH1 0x1F DUP3 ADD AND DUP3 ADD DUP1 PUSH1 0x40 MSTORE POP DUP2 ADD SWAP1 PUSH2 0x32B5 SWAP2 SWAP1 PUSH2 0x5D47 JUMP JUMPDEST PUSH1 0x18 DUP4 ADD DUP1 SLOAD PUSH1 0x1 DUP2 ADD DUP3 SSTORE PUSH1 0x0 SWAP2 DUP3 MSTORE PUSH1 0x20 SWAP1 SWAP2 KECCAK256 PUSH1 0x8 DUP3 DIV ADD DUP1 SLOAD PUSH1 0x7 SWAP1 SWAP3 AND PUSH1 0x4 MUL PUSH2 0x100 EXP PUSH4 0xFFFFFFFF DUP2 DUP2 MUL NOT SWAP1 SWAP4 AND SWAP4 SWAP1 SWAP3 AND SWAP2 SWAP1 SWAP2 MUL SWAP2 SWAP1 SWAP2 OR SWAP1 SSTORE POP JUMPDEST PUSH1 0x1 DUP3 DUP2 ADD DUP1 SLOAD DUP1 DUP4 ADD DUP3 SSTORE PUSH1 0x0 SWAP2 DUP3 MSTORE PUSH1 0x20 DUP3 KECCAK256 PUSH1 0x8 DUP3 DIV ADD DUP1 SLOAD PUSH1 0x7 SWAP1 SWAP3 AND PUSH1 0x4 MUL PUSH2 0x100 EXP PUSH4 0xFFFFFFFF DUP2 DUP2 MUL NOT SWAP1 SWAP4 AND DUP9 DUP5 AND SWAP2 SWAP1 SWAP2 MUL OR SWAP1 SSTORE DUP5 SLOAD PUSH1 0xFF NOT AND SWAP1 SWAP3 OR DUP5 SSTORE PUSH1 0xCF DUP1 SLOAD SWAP1 SWAP3 AND SWAP2 SWAP1 PUSH2 0x3355 DUP4 PUSH2 0x5D64 JUMP JUMPDEST SWAP2 SWAP1 PUSH2 0x100 EXP DUP2 SLOAD DUP2 PUSH4 0xFFFFFFFF MUL NOT AND SWAP1 DUP4 PUSH4 0xFFFFFFFF AND MUL OR SWAP1 SSTORE POP POP POP POP POP POP POP POP POP POP JUMP JUMPDEST PUSH2 0x3386 PUSH2 0x3A27 JUMP JUMPDEST PUSH2 0x1B09 PUSH1 0xCA DUP4 DUP4 PUSH2 0x5191 JUMP JUMPDEST PUSH1 0xC9 SLOAD PUSH1 0x40 MLOAD PUSH4 0x935E01B PUSH1 0xE2 SHL DUP2 MSTORE CALLER PUSH1 0x4 DUP3 ADD MSTORE PUSH1 0x1 PUSH1 0x1 PUSH1 0xA0 SHL SUB SWAP1 SWAP2 AND SWAP1 PUSH4 0x24D7806C SWAP1 PUSH1 0x24 ADD PUSH1 0x20 PUSH1 0x40 MLOAD DUP1 DUP4 SUB DUP2 DUP7 GAS STATICCALL ISZERO DUP1 ISZERO PUSH2 0x33DA JUMPI RETURNDATASIZE PUSH1 0x0 DUP1 RETURNDATACOPY RETURNDATASIZE PUSH1 0x0 REVERT JUMPDEST POP POP POP POP PUSH1 0x40 MLOAD RETURNDATASIZE PUSH1 0x1F NOT PUSH1 0x1F DUP3 ADD AND DUP3 ADD DUP1 PUSH1 0x40 MSTORE POP DUP2 ADD SWAP1 PUSH2 0x33FE SWAP2 SWAP1 PUSH2 0x5B2B JUMP JUMPDEST PUSH2 0x341A JUMPI PUSH1 0x40 MLOAD PUSH3 0x461BCD PUSH1 0xE5 SHL DUP2 MSTORE PUSH1 0x4 ADD PUSH2 0x1033 SWAP1 PUSH2 0x5C72 JUMP JUMPDEST PUSH1 0x1 PUSH1 0x1 PUSH1 0xA0 SHL SUB DUP3 AND PUSH1 0x0 SWAP1 DUP2 MSTORE PUSH1 0xD6 PUSH1 0x20 SWAP1 DUP2 MSTORE PUSH1 0x40 DUP1 DUP4 KECCAK256 PUSH1 0x1 DUP2 ADD DUP1 SLOAD DUP4 MLOAD DUP2 DUP7 MUL DUP2 ADD DUP7 ADD SWAP1 SWAP5 MSTORE DUP1 DUP5 MSTORE SWAP2 SWAP5 SWAP4 SWAP1 SWAP2 SWAP1 DUP4 ADD DUP3 DUP3 DUP1 ISZERO PUSH2 0x34AB JUMPI PUSH1 0x20 MUL DUP3 ADD SWAP2 SWAP1 PUSH1 0x0 MSTORE PUSH1 0x20 PUSH1 0x0 KECCAK256 SWAP1 PUSH1 0x0 SWAP1 JUMPDEST DUP3 DUP3 SWAP1 SLOAD SWAP1 PUSH2 0x100 EXP SWAP1 DIV PUSH4 0xFFFFFFFF AND PUSH4 0xFFFFFFFF AND DUP2 MSTORE PUSH1 0x20 ADD SWAP1 PUSH1 0x4 ADD SWAP1 PUSH1 0x20 DUP3 PUSH1 0x3 ADD DIV SWAP3 DUP4 ADD SWAP3 PUSH1 0x1 SUB DUP3 MUL SWAP2 POP DUP1 DUP5 GT PUSH2 0x346E JUMPI SWAP1 POP JUMPDEST POP POP POP POP POP SWAP1 POP PUSH1 0x0 JUMPDEST DUP2 MLOAD DUP2 PUSH2 0xFFFF AND LT ISZERO PUSH2 0x23A1 JUMPI DUP4 PUSH4 0xFFFFFFFF AND DUP3 DUP3 PUSH2 0xFFFF AND DUP2 MLOAD DUP2 LT PUSH2 0x34DF JUMPI PUSH2 0x34DF PUSH2 0x5C9E JUMP JUMPDEST PUSH1 0x20 MUL PUSH1 0x20 ADD ADD MLOAD PUSH4 0xFFFFFFFF AND SUB PUSH2 0x35C8 JUMPI PUSH1 0x1 DUP1 DUP5 ADD DUP1 SLOAD SWAP1 SWAP2 PUSH2 0x3504 SWAP2 PUSH2 0x5BB4 JUMP JUMPDEST DUP2 SLOAD DUP2 LT PUSH2 0x3514 JUMPI PUSH2 0x3514 PUSH2 0x5C9E JUMP JUMPDEST SWAP1 PUSH1 0x0 MSTORE PUSH1 0x20 PUSH1 0x0 KECCAK256 SWAP1 PUSH1 0x8 SWAP2 DUP3 DUP3 DIV ADD SWAP2 SWAP1 MOD PUSH1 0x4 MUL SWAP1 SLOAD SWAP1 PUSH2 0x100 EXP SWAP1 DIV PUSH4 0xFFFFFFFF AND DUP4 PUSH1 0x1 ADD DUP3 PUSH2 0xFFFF AND DUP2 SLOAD DUP2 LT PUSH2 0x3553 JUMPI PUSH2 0x3553 PUSH2 0x5C9E JUMP JUMPDEST SWAP1 PUSH1 0x0 MSTORE PUSH1 0x20 PUSH1 0x0 KECCAK256 SWAP1 PUSH1 0x8 SWAP2 DUP3 DUP3 DIV ADD SWAP2 SWAP1 MOD PUSH1 0x4 MUL PUSH2 0x100 EXP DUP2 SLOAD DUP2 PUSH4 0xFFFFFFFF MUL NOT AND SWAP1 DUP4 PUSH4 0xFFFFFFFF AND MUL OR SWAP1 SSTORE POP DUP3 PUSH1 0x1 ADD DUP1 SLOAD DUP1 PUSH2 0x3599 JUMPI PUSH2 0x3599 PUSH2 0x5CB4 JUMP JUMPDEST PUSH1 0x0 DUP3 DUP2 MSTORE PUSH1 0x20 SWAP1 KECCAK256 PUSH1 0x8 PUSH1 0x0 NOT SWAP1 SWAP3 ADD SWAP2 DUP3 DIV ADD DUP1 SLOAD PUSH4 0xFFFFFFFF PUSH1 0x4 PUSH1 0x7 DUP6 AND MUL PUSH2 0x100 EXP MUL NOT AND SWAP1 SSTORE SWAP1 SSTORE JUMPDEST DUP1 PUSH2 0x35D2 DUP2 PUSH2 0x5CCA JUMP JUMPDEST SWAP2 POP POP PUSH2 0x34B5 JUMP JUMPDEST PUSH2 0x35E2 PUSH2 0x3A27 JUMP JUMPDEST PUSH1 0x1 PUSH1 0x1 PUSH1 0xA0 SHL SUB DUP2 AND PUSH2 0x3647 JUMPI PUSH1 0x40 MLOAD PUSH3 0x461BCD PUSH1 0xE5 SHL DUP2 MSTORE PUSH1 0x20 PUSH1 0x4 DUP3 ADD MSTORE PUSH1 0x26 PUSH1 0x24 DUP3 ADD MSTORE PUSH32 0x4F776E61626C653A206E6577206F776E657220697320746865207A65726F2061 PUSH1 0x44 DUP3 ADD MSTORE PUSH6 0x646472657373 PUSH1 0xD0 SHL PUSH1 0x64 DUP3 ADD MSTORE PUSH1 0x84 ADD PUSH2 0x1033 JUMP JUMPDEST PUSH2 0x13CC DUP2 PUSH2 0x3EDF JUMP JUMPDEST PUSH2 0x3676 PUSH1 0x40 MLOAD DUP1 PUSH1 0x60 ADD PUSH1 0x40 MSTORE DUP1 PUSH1 0x0 ISZERO ISZERO DUP2 MSTORE PUSH1 0x20 ADD PUSH1 0x60 DUP2 MSTORE PUSH1 0x20 ADD PUSH1 0x60 DUP2 MSTORE POP SWAP1 JUMP JUMPDEST PUSH1 0x1 PUSH1 0x1 PUSH1 0xA0 SHL SUB DUP3 AND PUSH1 0x0 SWAP1 DUP2 MSTORE PUSH1 0xD6 PUSH1 0x20 SWAP1 DUP2 MSTORE PUSH1 0x40 SWAP2 DUP3 SWAP1 KECCAK256 DUP3 MLOAD PUSH1 0x60 DUP2 ADD DUP5 MSTORE DUP2 SLOAD PUSH1 0xFF AND ISZERO ISZERO DUP2 MSTORE PUSH1 0x1 DUP3 ADD DUP1 SLOAD DUP6 MLOAD DUP2 DUP7 MUL DUP2 ADD DUP7 ADD SWAP1 SWAP7 MSTORE DUP1 DUP7 MSTORE SWAP2 SWAP5 SWAP3 SWAP4 DUP6 DUP2 ADD SWAP4 SWAP3 SWAP1 DUP4 ADD DUP3 DUP3 DUP1 ISZERO PUSH2 0x371D JUMPI PUSH1 0x20 MUL DUP3 ADD SWAP2 SWAP1 PUSH1 0x0 MSTORE PUSH1 0x20 PUSH1 0x0 KECCAK256 SWAP1 PUSH1 0x0 SWAP1 JUMPDEST DUP3 DUP3 SWAP1 SLOAD SWAP1 PUSH2 0x100 EXP SWAP1 DIV PUSH4 0xFFFFFFFF AND PUSH4 0xFFFFFFFF AND DUP2 MSTORE PUSH1 0x20 ADD SWAP1 PUSH1 0x4 ADD SWAP1 PUSH1 0x20 DUP3 PUSH1 0x3 ADD DIV SWAP3 DUP4 ADD SWAP3 PUSH1 0x1 SUB DUP3 MUL SWAP2 POP DUP1 DUP5 GT PUSH2 0x36E0 JUMPI SWAP1 POP JUMPDEST POP POP POP POP POP DUP2 MSTORE PUSH1 0x20 ADD PUSH1 0x2 DUP3 ADD DUP1 SLOAD PUSH2 0x3736 SWAP1 PUSH2 0x5AE3 JUMP JUMPDEST DUP1 PUSH1 0x1F ADD PUSH1 0x20 DUP1 SWAP2 DIV MUL PUSH1 0x20 ADD PUSH1 0x40 MLOAD SWAP1 DUP2 ADD PUSH1 0x40 MSTORE DUP1 SWAP3 SWAP2 SWAP1 DUP2 DUP2 MSTORE PUSH1 0x20 ADD DUP3 DUP1 SLOAD PUSH2 0x3762 SWAP1 PUSH2 0x5AE3 JUMP JUMPDEST DUP1 ISZERO PUSH2 0x25E3 JUMPI DUP1 PUSH1 0x1F LT PUSH2 0x3784 JUMPI PUSH2 0x100 DUP1 DUP4 SLOAD DIV MUL DUP4 MSTORE SWAP2 PUSH1 0x20 ADD SWAP2 PUSH2 0x25E3 JUMP JUMPDEST DUP3 ADD SWAP2 SWAP1 PUSH1 0x0 MSTORE PUSH1 0x20 PUSH1 0x0 KECCAK256 SWAP1 JUMPDEST DUP2 SLOAD DUP2 MSTORE SWAP1 PUSH1 0x1 ADD SWAP1 PUSH1 0x20 ADD DUP1 DUP4 GT PUSH2 0x3792 JUMPI POP POP POP SWAP2 SWAP1 SWAP3 MSTORE POP SWAP2 SWAP5 SWAP4 POP POP POP POP JUMP JUMPDEST PUSH1 0x0 DUP1 PUSH1 0xC9 PUSH1 0x0 SWAP1 SLOAD SWAP1 PUSH2 0x100 EXP SWAP1 DIV PUSH1 0x1 PUSH1 0x1 PUSH1 0xA0 SHL SUB AND PUSH1 0x1 PUSH1 0x1 PUSH1 0xA0 SHL SUB AND PUSH4 0x2913497B PUSH1 0x40 MLOAD DUP2 PUSH4 0xFFFFFFFF AND PUSH1 0xE0 SHL DUP2 MSTORE PUSH1 0x4 ADD PUSH1 0x20 PUSH1 0x40 MLOAD DUP1 DUP4 SUB DUP2 DUP7 GAS STATICCALL ISZERO DUP1 ISZERO PUSH2 0x380C JUMPI RETURNDATASIZE PUSH1 0x0 DUP1 RETURNDATACOPY RETURNDATASIZE PUSH1 0x0 REVERT JUMPDEST POP POP POP POP PUSH1 0x40 MLOAD RETURNDATASIZE PUSH1 0x1F NOT PUSH1 0x1F DUP3 ADD AND DUP3 ADD DUP1 PUSH1 0x40 MSTORE POP DUP2 ADD SWAP1 PUSH2 0x3830 SWAP2 SWAP1 PUSH2 0x5B97 JUMP JUMPDEST PUSH1 0x1 PUSH1 0x1 PUSH1 0xA0 SHL SUB AND PUSH4 0xE1AA6036 PUSH1 0x40 MLOAD DUP2 PUSH4 0xFFFFFFFF AND PUSH1 0xE0 SHL DUP2 MSTORE PUSH1 0x4 ADD PUSH1 0x20 PUSH1 0x40 MLOAD DUP1 DUP4 SUB DUP2 DUP7 GAS STATICCALL ISZERO DUP1 ISZERO PUSH2 0x386D JUMPI RETURNDATASIZE PUSH1 0x0 DUP1 RETURNDATACOPY RETURNDATASIZE PUSH1 0x0 REVERT JUMPDEST POP POP POP POP PUSH1 0x40 MLOAD RETURNDATASIZE PUSH1 0x1F NOT PUSH1 0x1F DUP3 ADD AND DUP3 ADD DUP1 PUSH1 0x40 MSTORE POP DUP2 ADD SWAP1 PUSH2 0x3891 SWAP2 SWAP1 PUSH2 0x5D9A JUMP JUMPDEST PUSH2 0x38A3 DUP5 PUSH8 0xDE0B6B3A7640000 PUSH2 0x5B5E JUMP JUMPDEST PUSH2 0x38AD SWAP2 SWAP1 PUSH2 0x5B75 JUMP JUMPDEST SWAP4 SWAP3 POP POP POP JUMP JUMPDEST PUSH2 0x13CC PUSH2 0x3A27 JUMP JUMPDEST PUSH32 0x4910FDFA16FED3260ED0E7147F7CC6DA11A60208B5B9406D12A635614FFD9143 SLOAD PUSH1 0xFF AND ISZERO PUSH2 0x38EF JUMPI PUSH2 0x1B09 DUP4 PUSH2 0x440C JUMP JUMPDEST DUP3 PUSH1 0x1 PUSH1 0x1 PUSH1 0xA0 SHL SUB AND PUSH4 0x52D1902D PUSH1 0x40 MLOAD DUP2 PUSH4 0xFFFFFFFF AND PUSH1 0xE0 SHL DUP2 MSTORE PUSH1 0x4 ADD PUSH1 0x20 PUSH1 0x40 MLOAD DUP1 DUP4 SUB DUP2 DUP7 GAS STATICCALL SWAP3 POP POP POP DUP1 ISZERO PUSH2 0x3949 JUMPI POP PUSH1 0x40 DUP1 MLOAD PUSH1 0x1F RETURNDATASIZE SWAP1 DUP2 ADD PUSH1 0x1F NOT AND DUP3 ADD SWAP1 SWAP3 MSTORE PUSH2 0x3946 SWAP2 DUP2 ADD SWAP1 PUSH2 0x5D9A JUMP JUMPDEST PUSH1 0x1 JUMPDEST PUSH2 0x39AC JUMPI PUSH1 0x40 MLOAD PUSH3 0x461BCD PUSH1 0xE5 SHL DUP2 MSTORE PUSH1 0x20 PUSH1 0x4 DUP3 ADD MSTORE PUSH1 0x2E PUSH1 0x24 DUP3 ADD MSTORE PUSH32 0x45524331393637557067726164653A206E657720696D706C656D656E74617469 PUSH1 0x44 DUP3 ADD MSTORE PUSH14 0x6F6E206973206E6F742055555053 PUSH1 0x90 SHL PUSH1 0x64 DUP3 ADD MSTORE PUSH1 0x84 ADD PUSH2 0x1033 JUMP JUMPDEST PUSH1 0x0 DUP1 MLOAD PUSH1 0x20 PUSH2 0x5E2E DUP4 CODECOPY DUP2 MLOAD SWAP2 MSTORE DUP2 EQ PUSH2 0x3A1B JUMPI PUSH1 0x40 MLOAD PUSH3 0x461BCD PUSH1 0xE5 SHL DUP2 MSTORE PUSH1 0x20 PUSH1 0x4 DUP3 ADD MSTORE PUSH1 0x29 PUSH1 0x24 DUP3 ADD MSTORE PUSH32 0x45524331393637557067726164653A20756E737570706F727465642070726F78 PUSH1 0x44 DUP3 ADD MSTORE PUSH9 0x1A58589B1955555251 PUSH1 0xBA SHL PUSH1 0x64 DUP3 ADD MSTORE PUSH1 0x84 ADD PUSH2 0x1033 JUMP JUMPDEST POP PUSH2 0x1B09 DUP4 DUP4 DUP4 PUSH2 0x44A8 JUMP JUMPDEST PUSH1 0x33 SLOAD PUSH1 0x1 PUSH1 0x1 PUSH1 0xA0 SHL SUB AND CALLER EQ PUSH2 0x23BA JUMPI PUSH1 0x40 MLOAD PUSH3 0x461BCD PUSH1 0xE5 SHL DUP2 MSTORE PUSH1 0x20 PUSH1 0x4 DUP3 ADD DUP2 SWAP1 MSTORE PUSH1 0x24 DUP3 ADD MSTORE PUSH32 0x4F776E61626C653A2063616C6C6572206973206E6F7420746865206F776E6572 PUSH1 0x44 DUP3 ADD MSTORE PUSH1 0x64 ADD PUSH2 0x1033 JUMP JUMPDEST PUSH1 0x0 PUSH1 0xCA DUP1 SLOAD DUP1 PUSH1 0x20 MUL PUSH1 0x20 ADD PUSH1 0x40 MLOAD SWAP1 DUP2 ADD PUSH1 0x40 MSTORE DUP1 SWAP3 SWAP2 SWAP1 DUP2 DUP2 MSTORE PUSH1 0x20 ADD DUP3 DUP1 SLOAD DUP1 ISZERO PUSH2 0x3AF7 JUMPI PUSH1 0x20 MUL DUP3 ADD SWAP2 SWAP1 PUSH1 0x0 MSTORE PUSH1 0x20 PUSH1 0x0 KECCAK256 SWAP1 PUSH1 0x0 SWAP1 JUMPDEST DUP3 DUP3 SWAP1 SLOAD SWAP1 PUSH2 0x100 EXP SWAP1 DIV PUSH2 0xFFFF AND PUSH2 0xFFFF AND DUP2 MSTORE PUSH1 0x20 ADD SWAP1 PUSH1 0x2 ADD SWAP1 PUSH1 0x20 DUP3 PUSH1 0x1 ADD DIV SWAP3 DUP4 ADD SWAP3 PUSH1 0x1 SUB DUP3 MUL SWAP2 POP DUP1 DUP5 GT PUSH2 0x3ABE JUMPI SWAP1 POP JUMPDEST POP POP DUP4 MLOAD PUSH4 0xFFFFFFFF DUP8 AND PUSH1 0x0 SWAP1 DUP2 MSTORE PUSH1 0xD7 PUSH1 0x20 MSTORE PUSH1 0x40 DUP2 KECCAK256 SWAP6 SWAP7 POP SWAP1 SWAP5 SWAP4 POP SWAP2 POP DUP2 SWAP1 POP JUMPDEST DUP4 PUSH1 0xFF AND DUP2 PUSH1 0xFF AND LT ISZERO PUSH2 0x3E35 JUMPI PUSH1 0x3 DUP4 ADD SLOAD PUSH4 0xFFFFFFFF PUSH1 0x1 PUSH1 0xA8 SHL SWAP1 SWAP2 DIV DUP2 AND PUSH1 0x0 DUP2 DUP2 MSTORE PUSH1 0xD7 PUSH1 0x20 MSTORE PUSH1 0x40 DUP2 KECCAK256 DUP1 SLOAD SWAP3 SWAP4 SWAP1 SWAP3 AND SWAP1 SUB PUSH2 0x3BC8 JUMPI PUSH1 0x40 MLOAD PUSH16 0x2932B0B1B432B2103A379034B2101817 PUSH1 0x81 SHL DUP2 MSTORE PUSH1 0x10 ADD JUMPDEST PUSH1 0x40 MLOAD SWAP1 DUP2 SWAP1 SUB SWAP1 KECCAK256 PUSH2 0x3B8B DUP5 PUSH1 0x1 PUSH2 0x5CEB JUMP JUMPDEST PUSH1 0xFF AND DUP4 PUSH4 0xFFFFFFFF AND PUSH32 0x915ED47901013AD29E90EDE828F72888F54BD58CEA141B0C6967498165382EB5 PUSH1 0x40 MLOAD PUSH1 0x40 MLOAD DUP1 SWAP2 SUB SWAP1 LOG4 POP POP PUSH2 0x3E35 JUMP JUMPDEST PUSH1 0x3 DUP2 ADD SLOAD PUSH4 0xFFFFFFFF DUP1 DUP5 AND PUSH1 0x1 PUSH1 0xA8 SHL SWAP1 SWAP3 DIV AND SUB PUSH2 0x3C1B JUMPI PUSH1 0x40 MLOAD PUSH32 0x53656C6620526566657220696420776F6E27742067657420726566657272616C DUP2 MSTORE PUSH1 0x17 PUSH1 0xF9 SHL PUSH1 0x20 DUP3 ADD MSTORE PUSH1 0x21 ADD PUSH2 0x3B77 JUMP JUMPDEST PUSH2 0x3C24 DUP2 PUSH2 0x44D3 JUMP JUMPDEST ISZERO PUSH2 0x3C9B JUMPI PUSH1 0x40 MLOAD PUSH19 0x149959995C995C881A5CC8111A5CD8589B1959 PUSH1 0x6A SHL DUP2 MSTORE PUSH1 0x13 ADD PUSH1 0x40 MLOAD SWAP1 DUP2 SWAP1 SUB SWAP1 KECCAK256 PUSH2 0x3C5C DUP5 PUSH1 0x1 PUSH2 0x5CEB JUMP JUMPDEST PUSH1 0xFF AND DUP4 PUSH4 0xFFFFFFFF AND PUSH32 0x915ED47901013AD29E90EDE828F72888F54BD58CEA141B0C6967498165382EB5 PUSH1 0x40 MLOAD PUSH1 0x40 MLOAD DUP1 SWAP2 SUB SWAP1 LOG4 SWAP4 POP PUSH2 0x3E23 SWAP1 POP JUMP JUMPDEST PUSH1 0x4 DUP2 ADD SLOAD ISZERO DUP1 ISZERO SWAP1 PUSH2 0x3CDE JUMPI POP PUSH1 0xCF SLOAD PUSH1 0x4 DUP3 ADD SLOAD PUSH1 0xFF DUP1 DUP7 AND SWAP3 PUSH1 0x1 SWAP3 PUSH2 0x3CD2 SWAP3 PUSH7 0x1000000000000 SWAP1 SWAP3 DIV SWAP1 SWAP2 AND SWAP1 PUSH2 0x5B5E JUMP JUMPDEST PUSH2 0x3CDC SWAP2 SWAP1 PUSH2 0x5BB4 JUMP JUMPDEST GT JUMPDEST ISZERO PUSH2 0x3DAB JUMPI PUSH1 0xCB SLOAD DUP8 MLOAD PUSH1 0x0 SWAP2 PUSH2 0xFFFF AND SWAP1 DUP10 SWAP1 PUSH1 0xFF DUP8 AND SWAP1 DUP2 LT PUSH2 0x3D05 JUMPI PUSH2 0x3D05 PUSH2 0x5C9E JUMP JUMPDEST PUSH1 0x20 MUL PUSH1 0x20 ADD ADD MLOAD PUSH2 0xFFFF AND DUP12 PUSH2 0x3D1C SWAP2 SWAP1 PUSH2 0x5B5E JUMP JUMPDEST PUSH2 0x3D26 SWAP2 SWAP1 PUSH2 0x5B75 JUMP JUMPDEST SWAP1 POP DUP1 DUP3 PUSH1 0x17 ADD PUSH1 0x0 DUP3 DUP3 SLOAD PUSH2 0x3D3C SWAP2 SWAP1 PUSH2 0x5BC7 JUMP JUMPDEST SWAP1 SWAP2 SSTORE POP PUSH2 0x3D4C SWAP1 POP DUP3 DUP3 PUSH2 0x3E55 JUMP JUMPDEST PUSH2 0x3D56 DUP2 DUP7 PUSH2 0x5BC7 JUMP JUMPDEST SWAP5 POP DUP1 PUSH4 0xFFFFFFFF DUP1 DUP6 AND SWAP1 DUP12 AND PUSH32 0xF8FB9B5AB69A0208214661678427C6B48ABF457F53605D1F559D17452F1EEA11 PUSH2 0x3D90 DUP9 PUSH1 0x1 PUSH2 0x5CEB JUMP JUMPDEST PUSH1 0x40 MLOAD PUSH1 0xFF SWAP1 SWAP2 AND DUP2 MSTORE PUSH1 0x20 ADD PUSH1 0x40 MLOAD DUP1 SWAP2 SUB SWAP1 LOG4 POP PUSH2 0x3E1F JUMP JUMPDEST PUSH1 0x40 MLOAD PUSH32 0x446F776E6C696E65206C6576656C73206C696D69742072656163686564000000 DUP2 MSTORE PUSH1 0x1D ADD PUSH1 0x40 MLOAD SWAP1 DUP2 SWAP1 SUB SWAP1 KECCAK256 PUSH2 0x3DE8 DUP5 PUSH1 0x1 PUSH2 0x5CEB JUMP JUMPDEST PUSH1 0xFF AND DUP4 PUSH4 0xFFFFFFFF AND PUSH32 0x915ED47901013AD29E90EDE828F72888F54BD58CEA141B0C6967498165382EB5 PUSH1 0x40 MLOAD PUSH1 0x40 MLOAD DUP1 SWAP2 SUB SWAP1 LOG4 JUMPDEST SWAP4 POP POP JUMPDEST DUP1 PUSH2 0x3E2D DUP2 PUSH2 0x5D04 JUMP JUMPDEST SWAP2 POP POP PUSH2 0x3B1D JUMP JUMPDEST POP DUP1 PUSH1 0xCE PUSH1 0x0 DUP3 DUP3 SLOAD PUSH2 0x3E48 SWAP2 SWAP1 PUSH2 0x5BC7 JUMP JUMPDEST SWAP1 SWAP2 SSTORE POP POP POP POP POP POP POP POP JUMP JUMPDEST DUP2 PUSH1 0x14 ADD SLOAD DUP2 DUP4 PUSH1 0x12 ADD SLOAD PUSH2 0x3E6A SWAP2 SWAP1 PUSH2 0x5BC7 JUMP JUMPDEST GT PUSH2 0x3EA9 JUMPI DUP1 DUP3 PUSH1 0x12 ADD PUSH1 0x0 DUP3 DUP3 SLOAD PUSH2 0x3E83 SWAP2 SWAP1 PUSH2 0x5BC7 JUMP JUMPDEST SWAP3 POP POP DUP2 SWAP1 SSTORE POP DUP1 DUP3 PUSH1 0x1B ADD PUSH1 0x0 DUP3 DUP3 SLOAD PUSH2 0x3E9E SWAP2 SWAP1 PUSH2 0x5BC7 JUMP JUMPDEST SWAP1 SWAP2 SSTORE POP PUSH2 0x14A7 SWAP1 POP JUMP JUMPDEST DUP2 PUSH1 0x12 ADD SLOAD DUP3 PUSH1 0x14 ADD SLOAD PUSH2 0x3EBD SWAP2 SWAP1 PUSH2 0x5BB4 JUMP JUMPDEST DUP3 PUSH1 0x1B ADD PUSH1 0x0 DUP3 DUP3 SLOAD PUSH2 0x3ED0 SWAP2 SWAP1 PUSH2 0x5BC7 JUMP JUMPDEST SWAP1 SWAP2 SSTORE POP PUSH2 0x14A7 SWAP1 POP DUP3 PUSH2 0x4654 JUMP JUMPDEST PUSH1 0x33 DUP1 SLOAD PUSH1 0x1 PUSH1 0x1 PUSH1 0xA0 SHL SUB DUP4 DUP2 AND PUSH1 0x1 PUSH1 0x1 PUSH1 0xA0 SHL SUB NOT DUP4 AND DUP2 OR SWAP1 SWAP4 SSTORE PUSH1 0x40 MLOAD SWAP2 AND SWAP2 SWAP1 DUP3 SWAP1 PUSH32 0x8BE0079C531659141344CD1FD0A4F28419497F9722A3DAAFE3B4186F6B6457E0 SWAP1 PUSH1 0x0 SWAP1 LOG3 POP POP JUMP JUMPDEST DUP8 SLOAD PUSH4 0xFFFFFFFF AND PUSH1 0x0 SUB PUSH2 0x3F54 JUMPI DUP8 SLOAD PUSH4 0xFFFFFFFF NOT AND PUSH4 0xFFFFFFFF DUP8 AND OR DUP9 SSTORE JUMPDEST PUSH1 0x1C DUP9 ADD SLOAD PUSH1 0xFF AND PUSH2 0x3F70 JUMPI PUSH1 0x1C DUP9 ADD DUP1 SLOAD PUSH1 0xFF NOT AND PUSH1 0x1 OR SWAP1 SSTORE JUMPDEST PUSH1 0x3 DUP9 ADD SLOAD PUSH1 0xFF AND PUSH2 0x3FD8 JUMPI PUSH1 0xD4 DUP1 SLOAD PUSH1 0x1 DUP1 DUP3 ADD DUP4 SSTORE PUSH1 0x0 SWAP3 SWAP1 SWAP3 MSTORE PUSH32 0x9780E26D96B1F2A9A18EF8FC72D589DBF03EF788137B64F43897E83A91E7FEEC ADD DUP1 SLOAD PUSH1 0x1 PUSH1 0x1 PUSH1 0xA0 SHL SUB NOT AND PUSH1 0x1 PUSH1 0x1 PUSH1 0xA0 SHL SUB DUP11 AND OR SWAP1 SSTORE PUSH1 0x3 DUP10 ADD DUP1 SLOAD PUSH1 0xFF NOT AND SWAP1 SWAP2 OR SWAP1 SSTORE JUMPDEST PUSH1 0x3 DUP9 ADD SLOAD PUSH2 0x100 SWAP1 DIV PUSH1 0x1 PUSH1 0x1 PUSH1 0xA0 SHL SUB AND PUSH2 0x4012 JUMPI PUSH1 0x3 DUP9 ADD DUP1 SLOAD PUSH2 0x100 PUSH1 0x1 PUSH1 0xA8 SHL SUB NOT AND PUSH2 0x100 PUSH1 0x1 PUSH1 0x1 PUSH1 0xA0 SHL SUB DUP11 AND MUL OR SWAP1 SSTORE JUMPDEST DUP8 PUSH1 0x2 ADD SLOAD PUSH1 0x0 SUB PUSH2 0x4026 JUMPI PUSH1 0x2 DUP9 ADD DUP3 SWAP1 SSTORE JUMPDEST PUSH1 0x0 PUSH1 0x12 DUP10 ADD SSTORE PUSH2 0x4038 PUSH1 0x3 DUP5 PUSH2 0x5B75 JUMP JUMPDEST PUSH1 0x13 DUP10 ADD SSTORE PUSH1 0x14 DUP9 ADD DUP4 SWAP1 SSTORE PUSH1 0x7 DUP9 ADD DUP1 SLOAD PUSH1 0x1 DUP2 ADD DUP3 SSTORE PUSH1 0x0 SWAP2 DUP3 MSTORE PUSH1 0x20 DUP3 KECCAK256 ADD DUP6 SWAP1 SSTORE PUSH1 0x8 DUP10 ADD DUP1 SLOAD DUP7 SWAP3 SWAP1 PUSH2 0x4071 SWAP1 DUP5 SWAP1 PUSH2 0x5BC7 JUMP JUMPDEST SWAP1 SWAP2 SSTORE POP POP PUSH1 0x15 DUP9 ADD DUP3 SWAP1 SSTORE PUSH1 0x40 DUP1 MLOAD PUSH1 0x0 DUP2 MSTORE PUSH1 0x20 DUP2 ADD SWAP2 DUP3 SWAP1 MSTORE MLOAD PUSH2 0x409C SWAP2 PUSH1 0x18 DUP12 ADD SWAP2 PUSH2 0x51FC JUMP JUMPDEST POP PUSH1 0x1C DUP9 ADD DUP1 SLOAD PUSH4 0xFF000000 NOT AND PUSH4 0x1000000 OR SWAP1 SSTORE PUSH1 0x0 JUMPDEST DUP2 DUP2 PUSH1 0xFF AND LT ISZERO PUSH2 0x42BD JUMPI PUSH1 0x3 DUP10 ADD SLOAD PUSH4 0xFFFFFFFF PUSH1 0x1 PUSH1 0xA8 SHL SWAP1 SWAP2 DIV DUP2 AND PUSH1 0x0 DUP2 DUP2 MSTORE PUSH1 0xD7 PUSH1 0x20 MSTORE PUSH1 0x40 DUP2 KECCAK256 DUP1 SLOAD SWAP3 SWAP4 SWAP1 SWAP3 AND SWAP1 SUB PUSH2 0x40F6 JUMPI POP POP PUSH2 0x42BD JUMP JUMPDEST DUP3 PUSH1 0xFF AND PUSH1 0x0 SUB PUSH2 0x41A1 JUMPI DUP7 DUP2 PUSH1 0xA ADD PUSH1 0x0 DUP3 DUP3 SLOAD PUSH2 0x4115 SWAP2 SWAP1 PUSH2 0x5BC7 JUMP JUMPDEST SWAP1 SWAP2 SSTORE POP POP PUSH1 0x3 DUP12 ADD SLOAD PUSH1 0x1 PUSH1 0xC8 SHL SWAP1 DIV PUSH1 0xFF AND PUSH2 0x41A1 JUMPI PUSH1 0x3 DUP12 ADD DUP1 SLOAD PUSH1 0xFF PUSH1 0xC8 SHL NOT PUSH4 0xFFFFFFFF DUP1 DUP13 AND PUSH1 0x1 PUSH1 0xA8 SHL MUL SWAP2 SWAP1 SWAP2 AND PUSH5 0xFFFFFFFFFF PUSH1 0xA8 SHL NOT SWAP1 SWAP3 AND SWAP2 SWAP1 SWAP2 OR PUSH1 0x1 PUSH1 0xC8 SHL OR SWAP1 SWAP2 SSTORE PUSH1 0x4 DUP1 DUP4 ADD DUP1 SLOAD PUSH1 0x1 DUP2 ADD DUP3 SSTORE PUSH1 0x0 SWAP2 DUP3 MSTORE PUSH1 0x20 SWAP1 SWAP2 KECCAK256 PUSH1 0x8 DUP3 DIV ADD DUP1 SLOAD DUP14 DUP6 AND PUSH1 0x7 SWAP1 SWAP4 AND SWAP1 SWAP4 MUL PUSH2 0x100 EXP SWAP2 DUP3 MUL SWAP2 SWAP1 SWAP4 MUL NOT SWAP1 SWAP2 AND OR SWAP1 SSTORE JUMPDEST DUP7 DUP2 PUSH1 0xC ADD PUSH1 0x0 DUP3 DUP3 SLOAD PUSH2 0x41B5 SWAP2 SWAP1 PUSH2 0x5BC7 JUMP JUMPDEST SWAP1 SWAP2 SSTORE POP POP PUSH4 0xFFFFFFFF DUP9 AND ISZERO PUSH2 0x4289 JUMPI PUSH1 0x5 DUP2 ADD DUP1 SLOAD PUSH1 0x1 DUP1 DUP3 ADD DUP4 SSTORE PUSH1 0x0 SWAP3 DUP4 MSTORE PUSH1 0x20 SWAP1 SWAP3 KECCAK256 PUSH1 0x8 DUP3 DIV ADD DUP1 SLOAD PUSH1 0x7 SWAP1 SWAP3 AND PUSH1 0x4 MUL PUSH2 0x100 EXP PUSH4 0xFFFFFFFF DUP2 DUP2 MUL NOT SWAP1 SWAP4 AND SWAP3 DUP14 AND MUL SWAP2 SWAP1 SWAP2 OR SWAP1 SSTORE PUSH1 0x6 DUP3 ADD SWAP1 PUSH2 0x4216 SWAP1 DUP6 SWAP1 PUSH2 0x5CEB JUMP JUMPDEST DUP2 SLOAD PUSH1 0x1 DUP2 ADD DUP4 SSTORE PUSH1 0x0 SWAP3 DUP4 MSTORE PUSH1 0x20 DUP4 KECCAK256 PUSH1 0x8 DUP3 DIV ADD DUP1 SLOAD PUSH4 0xFFFFFFFF PUSH1 0x7 SWAP1 SWAP4 AND PUSH1 0x4 MUL PUSH2 0x100 EXP DUP4 DUP2 MUL NOT SWAP1 SWAP2 AND PUSH1 0xFF SWAP5 SWAP1 SWAP5 AND MUL SWAP3 SWAP1 SWAP3 OR SWAP1 SWAP2 SSTORE DUP3 SLOAD PUSH1 0x40 MLOAD SWAP1 DUP3 AND SWAP3 DUP12 DUP4 AND SWAP3 DUP14 AND SWAP2 PUSH32 0x3EC54E926FE5DD86406FE57832FF318517AED2A5CFBEACFB90A5E9489483AE4B SWAP2 SWAP1 LOG4 JUMPDEST PUSH1 0xCF SLOAD PUSH5 0x100000000 SWAP1 DIV PUSH1 0xFF AND ISZERO PUSH2 0x42A7 JUMPI PUSH2 0x42A7 DUP2 DUP9 DUP8 PUSH2 0x46FC JUMP JUMPDEST SWAP10 POP DUP2 SWAP1 POP PUSH2 0x42B5 DUP2 PUSH2 0x5D04 JUMP JUMPDEST SWAP2 POP POP PUSH2 0x40B5 JUMP JUMPDEST POP PUSH2 0x30B0 DUP5 DUP4 PUSH2 0x4E56 JUMP JUMPDEST PUSH1 0x0 SLOAD PUSH2 0x100 SWAP1 DIV PUSH1 0xFF AND PUSH2 0x42EF JUMPI PUSH1 0x40 MLOAD PUSH3 0x461BCD PUSH1 0xE5 SHL DUP2 MSTORE PUSH1 0x4 ADD PUSH2 0x1033 SWAP1 PUSH2 0x5DB3 JUMP JUMPDEST PUSH2 0x23BA PUSH2 0x4E90 JUMP JUMPDEST PUSH1 0x0 SLOAD PUSH2 0x100 SWAP1 DIV PUSH1 0xFF AND PUSH2 0x23BA JUMPI PUSH1 0x40 MLOAD PUSH3 0x461BCD PUSH1 0xE5 SHL DUP2 MSTORE PUSH1 0x4 ADD PUSH2 0x1033 SWAP1 PUSH2 0x5DB3 JUMP JUMPDEST PUSH1 0x0 DUP1 PUSH8 0xDE0B6B3A7640000 PUSH1 0xC9 PUSH1 0x0 SWAP1 SLOAD SWAP1 PUSH2 0x100 EXP SWAP1 DIV PUSH1 0x1 PUSH1 0x1 PUSH1 0xA0 SHL SUB AND PUSH1 0x1 PUSH1 0x1 PUSH1 0xA0 SHL SUB AND PUSH4 0x2913497B PUSH1 0x40 MLOAD DUP2 PUSH4 0xFFFFFFFF AND PUSH1 0xE0 SHL DUP2 MSTORE PUSH1 0x4 ADD PUSH1 0x20 PUSH1 0x40 MLOAD DUP1 DUP4 SUB DUP2 DUP7 GAS STATICCALL ISZERO DUP1 ISZERO PUSH2 0x437D JUMPI RETURNDATASIZE PUSH1 0x0 DUP1 RETURNDATACOPY RETURNDATASIZE PUSH1 0x0 REVERT JUMPDEST POP POP POP POP PUSH1 0x40 MLOAD RETURNDATASIZE PUSH1 0x1F NOT PUSH1 0x1F DUP3 ADD AND DUP3 ADD DUP1 PUSH1 0x40 MSTORE POP DUP2 ADD SWAP1 PUSH2 0x43A1 SWAP2 SWAP1 PUSH2 0x5B97 JUMP JUMPDEST PUSH1 0x1 PUSH1 0x1 PUSH1 0xA0 SHL SUB AND PUSH4 0xE1AA6036 PUSH1 0x40 MLOAD DUP2 PUSH4 0xFFFFFFFF AND PUSH1 0xE0 SHL DUP2 MSTORE PUSH1 0x4 ADD PUSH1 0x20 PUSH1 0x40 MLOAD DUP1 DUP4 SUB DUP2 DUP7 GAS STATICCALL ISZERO DUP1 ISZERO PUSH2 0x43DE JUMPI RETURNDATASIZE PUSH1 0x0 DUP1 RETURNDATACOPY RETURNDATASIZE PUSH1 0x0 REVERT JUMPDEST POP POP POP POP PUSH1 0x40 MLOAD RETURNDATASIZE PUSH1 0x1F NOT PUSH1 0x1F DUP3 ADD AND DUP3 ADD DUP1 PUSH1 0x40 MSTORE POP DUP2 ADD SWAP1 PUSH2 0x4402 SWAP2 SWAP1 PUSH2 0x5D9A JUMP JUMPDEST PUSH2 0x38A3 SWAP1 DUP6 PUSH2 0x5B5E JUMP JUMPDEST PUSH1 0x1 PUSH1 0x1 PUSH1 0xA0 SHL SUB DUP2 AND EXTCODESIZE PUSH2 0x4479 JUMPI PUSH1 0x40 MLOAD PUSH3 0x461BCD PUSH1 0xE5 SHL DUP2 MSTORE PUSH1 0x20 PUSH1 0x4 DUP3 ADD MSTORE PUSH1 0x2D PUSH1 0x24 DUP3 ADD MSTORE PUSH32 0x455243313936373A206E657720696D706C656D656E746174696F6E206973206E PUSH1 0x44 DUP3 ADD MSTORE PUSH13 0x1BDD08184818DBDB9D1C9858DD PUSH1 0x9A SHL PUSH1 0x64 DUP3 ADD MSTORE PUSH1 0x84 ADD PUSH2 0x1033 JUMP JUMPDEST PUSH1 0x0 DUP1 MLOAD PUSH1 0x20 PUSH2 0x5E2E DUP4 CODECOPY DUP2 MLOAD SWAP2 MSTORE DUP1 SLOAD PUSH1 0x1 PUSH1 0x1 PUSH1 0xA0 SHL SUB NOT AND PUSH1 0x1 PUSH1 0x1 PUSH1 0xA0 SHL SUB SWAP3 SWAP1 SWAP3 AND SWAP2 SWAP1 SWAP2 OR SWAP1 SSTORE JUMP JUMPDEST PUSH2 0x44B1 DUP4 PUSH2 0x4EC0 JUMP JUMPDEST PUSH1 0x0 DUP3 MLOAD GT DUP1 PUSH2 0x44BE JUMPI POP DUP1 JUMPDEST ISZERO PUSH2 0x1B09 JUMPI PUSH2 0x44CD DUP4 DUP4 PUSH2 0x4F00 JUMP JUMPDEST POP POP POP POP JUMP JUMPDEST PUSH1 0x1C DUP2 ADD SLOAD PUSH1 0x0 SWAP1 PUSH1 0xFF AND ISZERO DUP1 PUSH2 0x44F2 JUMPI POP DUP2 PUSH1 0x14 ADD SLOAD DUP3 PUSH1 0x12 ADD SLOAD LT ISZERO JUMPDEST ISZERO PUSH2 0x44FF JUMPI POP PUSH1 0x1 SWAP2 SWAP1 POP JUMP JUMPDEST PUSH1 0x18 DUP3 ADD SLOAD ISZERO DUP1 ISZERO SWAP1 PUSH2 0x463F JUMPI POP PUSH1 0xC9 PUSH1 0x0 SWAP1 SLOAD SWAP1 PUSH2 0x100 EXP SWAP1 DIV PUSH1 0x1 PUSH1 0x1 PUSH1 0xA0 SHL SUB AND PUSH1 0x1 PUSH1 0x1 PUSH1 0xA0 SHL SUB AND PUSH4 0x8908DF3A PUSH1 0x40 MLOAD DUP2 PUSH4 0xFFFFFFFF AND PUSH1 0xE0 SHL DUP2 MSTORE PUSH1 0x4 ADD PUSH1 0x20 PUSH1 0x40 MLOAD DUP1 DUP4 SUB DUP2 DUP7 GAS STATICCALL ISZERO DUP1 ISZERO PUSH2 0x4560 JUMPI RETURNDATASIZE PUSH1 0x0 DUP1 RETURNDATACOPY RETURNDATASIZE PUSH1 0x0 REVERT JUMPDEST POP POP POP POP PUSH1 0x40 MLOAD RETURNDATASIZE PUSH1 0x1F NOT PUSH1 0x1F DUP3 ADD AND DUP3 ADD DUP1 PUSH1 0x40 MSTORE POP DUP2 ADD SWAP1 PUSH2 0x4584 SWAP2 SWAP1 PUSH2 0x5B97 JUMP JUMPDEST PUSH1 0x1 PUSH1 0x1 PUSH1 0xA0 SHL SUB AND PUSH4 0x55332A85 DUP4 PUSH1 0x18 ADD PUSH1 0x1 DUP6 PUSH1 0x18 ADD DUP1 SLOAD SWAP1 POP PUSH2 0x45AA SWAP2 SWAP1 PUSH2 0x5BB4 JUMP JUMPDEST DUP2 SLOAD DUP2 LT PUSH2 0x45BA JUMPI PUSH2 0x45BA PUSH2 0x5C9E JUMP JUMPDEST PUSH1 0x0 SWAP2 DUP3 MSTORE PUSH1 0x20 SWAP1 SWAP2 KECCAK256 PUSH1 0x8 DUP3 DIV ADD SLOAD PUSH1 0x40 MLOAD PUSH1 0xE0 DUP5 SWAP1 SHL PUSH1 0x1 PUSH1 0x1 PUSH1 0xE0 SHL SUB NOT AND DUP2 MSTORE PUSH1 0x7 SWAP1 SWAP3 AND PUSH1 0x4 SWAP1 DUP2 MUL PUSH2 0x100 EXP SWAP1 SWAP2 DIV PUSH4 0xFFFFFFFF AND SWAP1 DUP3 ADD MSTORE PUSH1 0x24 ADD PUSH1 0x20 PUSH1 0x40 MLOAD DUP1 DUP4 SUB DUP2 DUP7 GAS STATICCALL ISZERO DUP1 ISZERO PUSH2 0x4619 JUMPI RETURNDATASIZE PUSH1 0x0 DUP1 RETURNDATACOPY RETURNDATASIZE PUSH1 0x0 REVERT JUMPDEST POP POP POP POP PUSH1 0x40 MLOAD RETURNDATASIZE PUSH1 0x1F NOT PUSH1 0x1F DUP3 ADD AND DUP3 ADD DUP1 PUSH1 0x40 MSTORE POP DUP2 ADD SWAP1 PUSH2 0x463D SWAP2 SWAP1 PUSH2 0x5B2B JUMP JUMPDEST ISZERO JUMPDEST ISZERO PUSH2 0x464C JUMPI POP PUSH1 0x1 SWAP2 SWAP1 POP JUMP JUMPDEST POP PUSH1 0x0 SWAP2 SWAP1 POP JUMP JUMPDEST PUSH1 0x1C DUP2 ADD DUP1 SLOAD PUSH1 0xFF NOT AND SWAP1 SSTORE PUSH1 0x40 DUP1 MLOAD PUSH1 0x0 DUP2 MSTORE PUSH1 0x20 DUP2 ADD SWAP2 DUP3 SWAP1 MSTORE MLOAD PUSH2 0x467F SWAP2 PUSH1 0x18 DUP5 ADD SWAP2 PUSH2 0x51FC JUMP JUMPDEST POP PUSH1 0x0 PUSH1 0x12 DUP3 ADD DUP2 SWAP1 SSTORE PUSH1 0x13 DUP3 ADD DUP2 SWAP1 SSTORE PUSH1 0x14 DUP3 ADD SSTORE TIMESTAMP PUSH1 0x16 DUP3 ADD SSTORE DUP1 SLOAD PUSH1 0x40 DUP1 MLOAD PUSH4 0xFFFFFFFF SWAP1 SWAP3 AND DUP3 MSTORE PUSH1 0x20 DUP3 ADD DUP2 SWAP1 MSTORE PUSH1 0x11 SWAP1 DUP3 ADD MSTORE PUSH17 0x13585E08131A5B5A5D0814995858DA1959 PUSH1 0x7A SHL PUSH1 0x60 DUP3 ADD MSTORE PUSH32 0xCE8AB8F2AC6A94861F9740FA1FED3E6D13A85DFD8A4833BF96F3A0055BA7FB6F SWAP1 PUSH1 0x80 ADD PUSH2 0x2BB6 JUMP JUMPDEST PUSH1 0x10 DUP4 ADD SLOAD PUSH1 0x40 DUP1 MLOAD PUSH2 0x480 DUP2 ADD SWAP1 SWAP2 MSTORE DUP5 SLOAD PUSH4 0xFFFFFFFF AND DUP2 MSTORE PUSH1 0x1 DUP6 ADD DUP1 SLOAD PUSH1 0xFF SWAP1 SWAP4 AND SWAP3 PUSH2 0x4BA2 SWAP3 SWAP2 DUP8 SWAP2 PUSH1 0x20 DUP5 ADD SWAP2 SWAP1 PUSH2 0x4739 SWAP1 PUSH2 0x5AE3 JUMP JUMPDEST DUP1 PUSH1 0x1F ADD PUSH1 0x20 DUP1 SWAP2 DIV MUL PUSH1 0x20 ADD PUSH1 0x40 MLOAD SWAP1 DUP2 ADD PUSH1 0x40 MSTORE DUP1 SWAP3 SWAP2 SWAP1 DUP2 DUP2 MSTORE PUSH1 0x20 ADD DUP3 DUP1 SLOAD PUSH2 0x4765 SWAP1 PUSH2 0x5AE3 JUMP JUMPDEST DUP1 ISZERO PUSH2 0x47B2 JUMPI DUP1 PUSH1 0x1F LT PUSH2 0x4787 JUMPI PUSH2 0x100 DUP1 DUP4 SLOAD DIV MUL DUP4 MSTORE SWAP2 PUSH1 0x20 ADD SWAP2 PUSH2 0x47B2 JUMP JUMPDEST DUP3 ADD SWAP2 SWAP1 PUSH1 0x0 MSTORE PUSH1 0x20 PUSH1 0x0 KECCAK256 SWAP1 JUMPDEST DUP2 SLOAD DUP2 MSTORE SWAP1 PUSH1 0x1 ADD SWAP1 PUSH1 0x20 ADD DUP1 DUP4 GT PUSH2 0x4795 JUMPI DUP3 SWAP1 SUB PUSH1 0x1F AND DUP3 ADD SWAP2 JUMPDEST POP POP POP SWAP2 DUP4 MSTORE POP POP PUSH1 0x2 DUP3 ADD SLOAD PUSH1 0x20 DUP1 DUP4 ADD SWAP2 SWAP1 SWAP2 MSTORE PUSH1 0x3 DUP4 ADD SLOAD PUSH1 0xFF DUP1 DUP3 AND ISZERO ISZERO PUSH1 0x40 DUP1 DUP7 ADD SWAP2 SWAP1 SWAP2 MSTORE PUSH1 0x1 PUSH1 0x1 PUSH1 0xA0 SHL SUB PUSH2 0x100 DUP5 DIV AND PUSH1 0x60 DUP7 ADD MSTORE PUSH4 0xFFFFFFFF PUSH1 0x1 PUSH1 0xA8 SHL DUP5 DIV AND PUSH1 0x80 DUP7 ADD MSTORE PUSH1 0x1 PUSH1 0xC8 SHL SWAP1 SWAP3 DIV AND ISZERO ISZERO PUSH1 0xA0 DUP5 ADD MSTORE PUSH1 0x4 DUP5 ADD DUP1 SLOAD DUP3 MLOAD DUP2 DUP6 MUL DUP2 ADD DUP6 ADD SWAP1 SWAP4 MSTORE DUP1 DUP4 MSTORE PUSH1 0xC0 SWAP1 SWAP5 ADD SWAP4 SWAP2 SWAP3 SWAP1 SWAP2 SWAP1 DUP4 ADD DUP3 DUP3 DUP1 ISZERO PUSH2 0x488D JUMPI PUSH1 0x20 MUL DUP3 ADD SWAP2 SWAP1 PUSH1 0x0 MSTORE PUSH1 0x20 PUSH1 0x0 KECCAK256 SWAP1 PUSH1 0x0 SWAP1 JUMPDEST DUP3 DUP3 SWAP1 SLOAD SWAP1 PUSH2 0x100 EXP SWAP1 DIV PUSH4 0xFFFFFFFF AND PUSH4 0xFFFFFFFF AND DUP2 MSTORE PUSH1 0x20 ADD SWAP1 PUSH1 0x4 ADD SWAP1 PUSH1 0x20 DUP3 PUSH1 0x3 ADD DIV SWAP3 DUP4 ADD SWAP3 PUSH1 0x1 SUB DUP3 MUL SWAP2 POP DUP1 DUP5 GT PUSH2 0x4850 JUMPI SWAP1 POP JUMPDEST POP POP POP POP POP DUP2 MSTORE PUSH1 0x20 ADD PUSH1 0x5 DUP3 ADD DUP1 SLOAD DUP1 PUSH1 0x20 MUL PUSH1 0x20 ADD PUSH1 0x40 MLOAD SWAP1 DUP2 ADD PUSH1 0x40 MSTORE DUP1 SWAP3 SWAP2 SWAP1 DUP2 DUP2 MSTORE PUSH1 0x20 ADD DUP3 DUP1 SLOAD DUP1 ISZERO PUSH2 0x4911 JUMPI PUSH1 0x20 MUL DUP3 ADD SWAP2 SWAP1 PUSH1 0x0 MSTORE PUSH1 0x20 PUSH1 0x0 KECCAK256 SWAP1 PUSH1 0x0 SWAP1 JUMPDEST DUP3 DUP3 SWAP1 SLOAD SWAP1 PUSH2 0x100 EXP SWAP1 DIV PUSH4 0xFFFFFFFF AND PUSH4 0xFFFFFFFF AND DUP2 MSTORE PUSH1 0x20 ADD SWAP1 PUSH1 0x4 ADD SWAP1 PUSH1 0x20 DUP3 PUSH1 0x3 ADD DIV SWAP3 DUP4 ADD SWAP3 PUSH1 0x1 SUB DUP3 MUL SWAP2 POP DUP1 DUP5 GT PUSH2 0x48D4 JUMPI SWAP1 POP JUMPDEST POP POP POP POP POP DUP2 MSTORE PUSH1 0x20 ADD PUSH1 0x6 DUP3 ADD DUP1 SLOAD DUP1 PUSH1 0x20 MUL PUSH1 0x20 ADD PUSH1 0x40 MLOAD SWAP1 DUP2 ADD PUSH1 0x40 MSTORE DUP1 SWAP3 SWAP2 SWAP1 DUP2 DUP2 MSTORE PUSH1 0x20 ADD DUP3 DUP1 SLOAD DUP1 ISZERO PUSH2 0x4995 JUMPI PUSH1 0x20 MUL DUP3 ADD SWAP2 SWAP1 PUSH1 0x0 MSTORE PUSH1 0x20 PUSH1 0x0 KECCAK256 SWAP1 PUSH1 0x0 SWAP1 JUMPDEST DUP3 DUP3 SWAP1 SLOAD SWAP1 PUSH2 0x100 EXP SWAP1 DIV PUSH4 0xFFFFFFFF AND PUSH4 0xFFFFFFFF AND DUP2 MSTORE PUSH1 0x20 ADD SWAP1 PUSH1 0x4 ADD SWAP1 PUSH1 0x20 DUP3 PUSH1 0x3 ADD DIV SWAP3 DUP4 ADD SWAP3 PUSH1 0x1 SUB DUP3 MUL SWAP2 POP DUP1 DUP5 GT PUSH2 0x4958 JUMPI SWAP1 POP JUMPDEST POP POP POP POP POP DUP2 MSTORE PUSH1 0x20 ADD PUSH1 0x7 DUP3 ADD DUP1 SLOAD DUP1 PUSH1 0x20 MUL PUSH1 0x20 ADD PUSH1 0x40 MLOAD SWAP1 DUP2 ADD PUSH1 0x40 MSTORE DUP1 SWAP3 SWAP2 SWAP1 DUP2 DUP2 MSTORE PUSH1 0x20 ADD DUP3 DUP1 SLOAD DUP1 ISZERO PUSH2 0x49ED JUMPI PUSH1 0x20 MUL DUP3 ADD SWAP2 SWAP1 PUSH1 0x0 MSTORE PUSH1 0x20 PUSH1 0x0 KECCAK256 SWAP1 JUMPDEST DUP2 SLOAD DUP2 MSTORE PUSH1 0x20 ADD SWAP1 PUSH1 0x1 ADD SWAP1 DUP1 DUP4 GT PUSH2 0x49D9 JUMPI JUMPDEST POP POP POP SWAP2 DUP4 MSTORE POP POP PUSH1 0x8 DUP3 ADD SLOAD PUSH1 0x20 DUP1 DUP4 ADD SWAP2 SWAP1 SWAP2 MSTORE PUSH1 0x9 DUP4 ADD SLOAD PUSH1 0x40 DUP1 DUP5 ADD SWAP2 SWAP1 SWAP2 MSTORE PUSH1 0xA DUP5 ADD SLOAD PUSH1 0x60 DUP5 ADD MSTORE PUSH1 0xB DUP5 ADD SLOAD PUSH1 0x80 DUP5 ADD MSTORE PUSH1 0xC DUP5 ADD SLOAD PUSH1 0xA0 DUP5 ADD MSTORE PUSH1 0xD DUP5 ADD SLOAD PUSH1 0xC0 DUP5 ADD MSTORE PUSH1 0xE DUP5 ADD SLOAD PUSH1 0xE0 DUP5 ADD MSTORE PUSH1 0xF DUP5 ADD SLOAD PUSH2 0x100 DUP1 DUP6 ADD SWAP2 SWAP1 SWAP2 MSTORE PUSH1 0x10 DUP6 ADD SLOAD PUSH1 0xFF DUP2 AND PUSH2 0x120 DUP7 ADD MSTORE DIV PUSH4 0xFFFFFFFF AND PUSH2 0x140 DUP5 ADD MSTORE PUSH1 0x11 DUP5 ADD SLOAD PUSH2 0x160 DUP5 ADD MSTORE PUSH1 0x12 DUP5 ADD SLOAD PUSH2 0x180 DUP5 ADD MSTORE PUSH1 0x13 DUP5 ADD SLOAD PUSH2 0x1A0 DUP5 ADD MSTORE PUSH1 0x14 DUP5 ADD SLOAD PUSH2 0x1C0 DUP5 ADD MSTORE PUSH1 0x15 DUP5 ADD SLOAD PUSH2 0x1E0 DUP5 ADD MSTORE PUSH1 0x16 DUP5 ADD SLOAD PUSH2 0x200 DUP5 ADD MSTORE PUSH1 0x17 DUP5 ADD SLOAD PUSH2 0x220 DUP5 ADD MSTORE PUSH1 0x18 DUP5 ADD DUP1 SLOAD DUP3 MLOAD DUP2 DUP6 MUL DUP2 ADD DUP6 ADD SWAP1 SWAP4 MSTORE DUP1 DUP4 MSTORE PUSH2 0x240 SWAP1 SWAP5 ADD SWAP4 SWAP2 SWAP3 SWAP1 SWAP2 SWAP1 DUP4 ADD DUP3 DUP3 DUP1 ISZERO PUSH2 0x4B37 JUMPI PUSH1 0x20 MUL DUP3 ADD SWAP2 SWAP1 PUSH1 0x0 MSTORE PUSH1 0x20 PUSH1 0x0 KECCAK256 SWAP1 PUSH1 0x0 SWAP1 JUMPDEST DUP3 DUP3 SWAP1 SLOAD SWAP1 PUSH2 0x100 EXP SWAP1 DIV PUSH4 0xFFFFFFFF AND PUSH4 0xFFFFFFFF AND DUP2 MSTORE PUSH1 0x20 ADD SWAP1 PUSH1 0x4 ADD SWAP1 PUSH1 0x20 DUP3 PUSH1 0x3 ADD DIV SWAP3 DUP4 ADD SWAP3 PUSH1 0x1 SUB DUP3 MUL SWAP2 POP DUP1 DUP5 GT PUSH2 0x4AFA JUMPI SWAP1 POP JUMPDEST POP POP POP SWAP2 DUP4 MSTORE POP POP PUSH1 0x19 DUP3 ADD SLOAD PUSH1 0x20 DUP3 ADD MSTORE PUSH1 0x1A DUP3 ADD SLOAD PUSH1 0x40 DUP3 ADD MSTORE PUSH1 0x1B DUP3 ADD SLOAD PUSH1 0x60 DUP3 ADD MSTORE PUSH1 0x1C SWAP1 SWAP2 ADD SLOAD PUSH1 0xFF DUP1 DUP3 AND ISZERO ISZERO PUSH1 0x80 DUP5 ADD MSTORE PUSH2 0x100 DUP3 DIV DUP2 AND ISZERO ISZERO PUSH1 0xA0 DUP5 ADD MSTORE PUSH3 0x10000 DUP3 DIV DUP2 AND ISZERO ISZERO PUSH1 0xC0 DUP5 ADD MSTORE PUSH4 0x1000000 SWAP1 SWAP2 DIV AND ISZERO ISZERO PUSH1 0xE0 SWAP1 SWAP2 ADD MSTORE PUSH2 0x4FF6 JUMP JUMPDEST PUSH1 0xFF AND GT ISZERO PUSH2 0x1B09 JUMPI PUSH1 0x40 DUP1 MLOAD PUSH2 0x480 DUP2 ADD SWAP1 SWAP2 MSTORE DUP4 SLOAD PUSH4 0xFFFFFFFF AND DUP2 MSTORE PUSH1 0x1 DUP5 ADD DUP1 SLOAD PUSH2 0x4BDD SWAP3 SWAP2 DUP7 SWAP2 PUSH1 0x20 DUP5 ADD SWAP2 SWAP1 PUSH2 0x4739 SWAP1 PUSH2 0x5AE3 JUMP JUMPDEST PUSH1 0x10 DUP5 ADD DUP1 SLOAD PUSH1 0xFF NOT AND PUSH1 0xFF SWAP3 DUP4 AND SWAP1 DUP2 OR DUP3 SSTORE PUSH1 0x0 SWAP1 DUP2 MSTORE PUSH1 0xD8 PUSH1 0x20 SWAP1 DUP2 MSTORE PUSH1 0x40 DUP1 DUP4 KECCAK256 DUP9 SLOAD PUSH1 0x9 SWAP2 DUP3 ADD DUP1 SLOAD PUSH1 0x1 DUP2 DUP2 ADD DUP4 SSTORE SWAP2 DUP8 MSTORE SWAP5 DUP7 KECCAK256 PUSH1 0x8 DUP7 DIV ADD DUP1 SLOAD PUSH4 0xFFFFFFFF PUSH1 0x7 SWAP1 SWAP8 AND PUSH1 0x4 MUL PUSH2 0x100 EXP DUP8 DUP2 MUL NOT SWAP1 SWAP2 AND SWAP7 SWAP1 SWAP4 AND SWAP1 SWAP3 MUL SWAP5 SWAP1 SWAP5 OR SWAP1 SSTORE SWAP4 SLOAD SWAP1 SWAP5 AND DUP3 MSTORE SWAP3 SWAP1 KECCAK256 ADD SLOAD PUSH2 0x4C5A SWAP2 SWAP1 PUSH2 0x5BB4 JUMP JUMPDEST PUSH1 0x10 DUP5 ADD DUP1 SLOAD PUSH5 0xFFFFFFFF00 NOT DUP2 AND PUSH2 0x100 PUSH4 0xFFFFFFFF SWAP5 DUP6 AND DUP2 MUL SWAP2 DUP3 OR SWAP4 DUP5 SWAP1 SSTORE DUP8 SLOAD PUSH1 0x40 DUP1 MLOAD SWAP2 DUP8 AND DUP3 MSTORE SWAP2 SWAP1 SWAP5 DIV SWAP1 SWAP5 AND PUSH1 0x20 DUP5 ADD MSTORE PUSH1 0xFF SWAP2 DUP3 AND SWAP2 AND OR SWAP2 DUP2 ADD SWAP2 SWAP1 SWAP2 MSTORE PUSH32 0x4D3AF8F60FFD033B575846F894122F2342B39BC9A90DA98D0A966128702B568D SWAP1 PUSH1 0x60 ADD PUSH1 0x40 MLOAD DUP1 SWAP2 SUB SWAP1 LOG1 PUSH1 0x40 DUP1 MLOAD PUSH2 0x480 DUP2 ADD SWAP1 SWAP2 MSTORE DUP4 SLOAD PUSH4 0xFFFFFFFF AND DUP2 MSTORE PUSH1 0x1 DUP5 ADD DUP1 SLOAD PUSH1 0xD8 SWAP3 PUSH1 0x0 SWAP3 PUSH2 0x4D06 SWAP3 DUP9 SWAP2 PUSH1 0x20 DUP5 ADD SWAP2 PUSH2 0x4739 SWAP1 PUSH2 0x5AE3 JUMP JUMPDEST PUSH1 0xFF SWAP1 DUP2 AND DUP3 MSTORE PUSH1 0x20 DUP3 ADD SWAP3 SWAP1 SWAP3 MSTORE PUSH1 0x40 ADD PUSH1 0x0 KECCAK256 PUSH1 0x8 ADD SLOAD AND ISZERO PUSH2 0x4DC5 JUMPI PUSH1 0x40 DUP1 MLOAD PUSH2 0x480 DUP2 ADD SWAP1 SWAP2 MSTORE DUP4 SLOAD PUSH4 0xFFFFFFFF AND DUP2 MSTORE PUSH1 0x1 DUP5 ADD DUP1 SLOAD PUSH1 0xD8 SWAP3 PUSH1 0x0 SWAP3 PUSH2 0x4D5B SWAP3 DUP9 SWAP2 PUSH1 0x20 DUP5 ADD SWAP2 PUSH2 0x4739 SWAP1 PUSH2 0x5AE3 JUMP JUMPDEST PUSH1 0xFF AND PUSH1 0xFF AND DUP2 MSTORE PUSH1 0x20 ADD SWAP1 DUP2 MSTORE PUSH1 0x20 ADD PUSH1 0x0 KECCAK256 PUSH1 0x7 ADD SLOAD DUP4 PUSH1 0xF ADD SLOAD PUSH2 0x4D82 SWAP2 SWAP1 PUSH2 0x5BC7 JUMP JUMPDEST DUP2 GT ISZERO PUSH2 0x4DB1 JUMPI DUP1 DUP4 PUSH1 0xF ADD DUP2 SWAP1 SSTORE POP DUP2 DUP4 PUSH1 0xE ADD PUSH1 0x0 DUP3 DUP3 SLOAD PUSH2 0x4DA6 SWAP2 SWAP1 PUSH2 0x5BC7 JUMP JUMPDEST SWAP1 SWAP2 SSTORE POP PUSH2 0x1B09 SWAP1 POP JUMP JUMPDEST DUP2 DUP4 PUSH1 0xE ADD PUSH1 0x0 DUP3 DUP3 SLOAD PUSH2 0x4DA6 SWAP2 SWAP1 PUSH2 0x5BC7 JUMP JUMPDEST PUSH1 0xCF SLOAD PUSH5 0x100000000 SWAP1 DIV PUSH1 0xFF AND ISZERO PUSH2 0x1B09 JUMPI PUSH1 0x10 DUP4 ADD SLOAD PUSH1 0xFF AND PUSH1 0x0 SWAP1 DUP2 MSTORE PUSH1 0xD8 PUSH1 0x20 MSTORE PUSH1 0x40 SWAP1 KECCAK256 PUSH1 0x5 ADD SLOAD PUSH2 0x4DFD SWAP1 DUP5 SWAP1 PUSH2 0x3E55 JUMP JUMPDEST PUSH1 0x10 DUP4 ADD SLOAD PUSH1 0xFF SWAP1 DUP2 AND PUSH1 0x0 SWAP1 DUP2 MSTORE PUSH1 0xD8 PUSH1 0x20 MSTORE PUSH1 0x40 DUP1 DUP3 KECCAK256 PUSH1 0x5 DUP2 ADD SLOAD SWAP1 SLOAD DUP8 SLOAD SWAP3 MLOAD SWAP2 SWAP5 AND SWAP3 PUSH4 0xFFFFFFFF SWAP1 SWAP3 AND SWAP2 PUSH32 0xDEAF5B294F5016988108257045FC779D7D01E05A4ECDC4DF70F62D5A799E053B SWAP2 LOG4 POP POP POP JUMP JUMPDEST PUSH1 0xD2 SLOAD PUSH1 0xD1 SLOAD PUSH2 0x4E66 SWAP2 SWAP1 PUSH2 0x5BC7 JUMP JUMPDEST DUP2 GT ISZERO PUSH2 0x4E75 JUMPI PUSH1 0xD1 SSTORE PUSH1 0xD0 SSTORE JUMP JUMPDEST DUP2 PUSH1 0xD0 PUSH1 0x0 DUP3 DUP3 SLOAD PUSH2 0x4E87 SWAP2 SWAP1 PUSH2 0x5BC7 JUMP JUMPDEST SWAP1 SWAP2 SSTORE POP POP POP POP JUMP JUMPDEST PUSH1 0x0 SLOAD PUSH2 0x100 SWAP1 DIV PUSH1 0xFF AND PUSH2 0x4EB7 JUMPI PUSH1 0x40 MLOAD PUSH3 0x461BCD PUSH1 0xE5 SHL DUP2 MSTORE PUSH1 0x4 ADD PUSH2 0x1033 SWAP1 PUSH2 0x5DB3 JUMP JUMPDEST PUSH2 0x23BA CALLER PUSH2 0x3EDF JUMP JUMPDEST PUSH2 0x4EC9 DUP2 PUSH2 0x440C JUMP JUMPDEST PUSH1 0x40 MLOAD PUSH1 0x1 PUSH1 0x1 PUSH1 0xA0 SHL SUB DUP3 AND SWAP1 PUSH32 0xBC7CD75A20EE27FD9ADEBAB32041F755214DBC6BFFA90CC0225B39DA2E5C2D3B SWAP1 PUSH1 0x0 SWAP1 LOG2 POP JUMP JUMPDEST PUSH1 0x60 PUSH1 0x1 PUSH1 0x1 PUSH1 0xA0 SHL SUB DUP4 AND EXTCODESIZE PUSH2 0x4F68 JUMPI PUSH1 0x40 MLOAD PUSH3 0x461BCD PUSH1 0xE5 SHL DUP2 MSTORE PUSH1 0x20 PUSH1 0x4 DUP3 ADD MSTORE PUSH1 0x26 PUSH1 0x24 DUP3 ADD MSTORE PUSH32 0x416464726573733A2064656C65676174652063616C6C20746F206E6F6E2D636F PUSH1 0x44 DUP3 ADD MSTORE PUSH6 0x1B9D1C9858DD PUSH1 0xD2 SHL PUSH1 0x64 DUP3 ADD MSTORE PUSH1 0x84 ADD PUSH2 0x1033 JUMP JUMPDEST PUSH1 0x0 DUP1 DUP5 PUSH1 0x1 PUSH1 0x1 PUSH1 0xA0 SHL SUB AND DUP5 PUSH1 0x40 MLOAD PUSH2 0x4F83 SWAP2 SWAP1 PUSH2 0x5DFE JUMP JUMPDEST PUSH1 0x0 PUSH1 0x40 MLOAD DUP1 DUP4 SUB DUP2 DUP6 GAS DELEGATECALL SWAP2 POP POP RETURNDATASIZE DUP1 PUSH1 0x0 DUP2 EQ PUSH2 0x4FBE JUMPI PUSH1 0x40 MLOAD SWAP2 POP PUSH1 0x1F NOT PUSH1 0x3F RETURNDATASIZE ADD AND DUP3 ADD PUSH1 0x40 MSTORE RETURNDATASIZE DUP3 MSTORE RETURNDATASIZE PUSH1 0x0 PUSH1 0x20 DUP5 ADD RETURNDATACOPY PUSH2 0x4FC3 JUMP JUMPDEST PUSH1 0x60 SWAP2 POP JUMPDEST POP SWAP2 POP SWAP2 POP PUSH2 0x4FEB DUP3 DUP3 PUSH1 0x40 MLOAD DUP1 PUSH1 0x60 ADD PUSH1 0x40 MSTORE DUP1 PUSH1 0x27 DUP2 MSTORE PUSH1 0x20 ADD PUSH2 0x5E4E PUSH1 0x27 SWAP2 CODECOPY PUSH2 0x50AB JUMP JUMPDEST SWAP3 POP POP POP JUMPDEST SWAP3 SWAP2 POP POP JUMP JUMPDEST PUSH1 0xD5 SLOAD PUSH1 0x0 SWAP1 PUSH4 0x1000000 SWAP1 DIV PUSH1 0xFF AND DUP2 JUMPDEST DUP2 PUSH1 0xFF AND DUP2 PUSH1 0xFF AND LT ISZERO PUSH2 0x50A4 JUMPI PUSH1 0xFF DUP2 AND PUSH1 0x0 SWAP1 DUP2 MSTORE PUSH1 0xD8 PUSH1 0x20 MSTORE PUSH1 0x40 SWAP1 KECCAK256 PUSH1 0x1 ADD SLOAD PUSH2 0x160 DUP6 ADD MLOAD LT DUP1 ISZERO SWAP1 PUSH2 0x505A JUMPI POP PUSH1 0xFF DUP2 AND PUSH1 0x0 SWAP1 DUP2 MSTORE PUSH1 0xD8 PUSH1 0x20 MSTORE PUSH1 0x40 SWAP1 KECCAK256 PUSH1 0x2 ADD SLOAD PUSH2 0x1A0 DUP6 ADD MLOAD LT ISZERO JUMPDEST DUP1 ISZERO PUSH2 0x5080 JUMPI POP PUSH1 0xFF DUP2 AND PUSH1 0x0 SWAP1 DUP2 MSTORE PUSH1 0xD8 PUSH1 0x20 MSTORE PUSH1 0x40 SWAP1 KECCAK256 PUSH1 0x3 ADD SLOAD PUSH2 0x1E0 DUP6 ADD MLOAD LT ISZERO JUMPDEST ISZERO PUSH2 0x508D JUMPI DUP1 SWAP3 POP PUSH2 0x5092 JUMP JUMPDEST PUSH2 0x50A4 JUMP JUMPDEST DUP1 PUSH2 0x509C DUP2 PUSH2 0x5D04 JUMP JUMPDEST SWAP2 POP POP PUSH2 0x5008 JUMP JUMPDEST POP POP SWAP2 SWAP1 POP JUMP JUMPDEST PUSH1 0x60 DUP4 ISZERO PUSH2 0x50BA JUMPI POP DUP2 PUSH2 0x38AD JUMP JUMPDEST PUSH2 0x38AD DUP4 DUP4 DUP2 MLOAD ISZERO PUSH2 0x50CF JUMPI DUP2 MLOAD DUP1 DUP4 PUSH1 0x20 ADD REVERT JUMPDEST DUP1 PUSH1 0x40 MLOAD PUSH3 0x461BCD PUSH1 0xE5 SHL DUP2 MSTORE PUSH1 0x4 ADD PUSH2 0x1033 SWAP2 SWAP1 PUSH2 0x5E1A JUMP JUMPDEST DUP3 DUP1 SLOAD DUP3 DUP3 SSTORE SWAP1 PUSH1 0x0 MSTORE PUSH1 0x20 PUSH1 0x0 KECCAK256 SWAP1 PUSH1 0xF ADD PUSH1 0x10 SWAP1 DIV DUP2 ADD SWAP3 DUP3 ISZERO PUSH2 0x5181 JUMPI SWAP2 PUSH1 0x20 MUL DUP3 ADD PUSH1 0x0 JUMPDEST DUP4 DUP3 GT ISZERO PUSH2 0x5151 JUMPI DUP4 MLOAD DUP4 DUP3 PUSH2 0x100 EXP DUP2 SLOAD DUP2 PUSH2 0xFFFF MUL NOT AND SWAP1 DUP4 PUSH1 0xFF AND MUL OR SWAP1 SSTORE POP SWAP3 PUSH1 0x20 ADD SWAP3 PUSH1 0x2 ADD PUSH1 0x20 DUP2 PUSH1 0x1 ADD DIV SWAP3 DUP4 ADD SWAP3 PUSH1 0x1 SUB MUL PUSH2 0x5112 JUMP JUMPDEST DUP1 ISZERO PUSH2 0x517F JUMPI DUP3 DUP2 PUSH2 0x100 EXP DUP2 SLOAD SWAP1 PUSH2 0xFFFF MUL NOT AND SWAP1 SSTORE PUSH1 0x2 ADD PUSH1 0x20 DUP2 PUSH1 0x1 ADD DIV SWAP3 DUP4 ADD SWAP3 PUSH1 0x1 SUB MUL PUSH2 0x5151 JUMP JUMPDEST POP JUMPDEST POP PUSH2 0x518D SWAP3 SWAP2 POP PUSH2 0x5299 JUMP JUMPDEST POP SWAP1 JUMP JUMPDEST DUP3 DUP1 SLOAD DUP3 DUP3 SSTORE SWAP1 PUSH1 0x0 MSTORE PUSH1 0x20 PUSH1 0x0 KECCAK256 SWAP1 PUSH1 0xF ADD PUSH1 0x10 SWAP1 DIV DUP2 ADD SWAP3 DUP3 ISZERO PUSH2 0x5181 JUMPI SWAP2 PUSH1 0x20 MUL DUP3 ADD PUSH1 0x0 JUMPDEST DUP4 DUP3 GT ISZERO PUSH2 0x5151 JUMPI DUP4 CALLDATALOAD PUSH1 0xFF AND DUP4 DUP3 PUSH2 0x100 EXP DUP2 SLOAD DUP2 PUSH2 0xFFFF MUL NOT AND SWAP1 DUP4 PUSH1 0xFF AND MUL OR SWAP1 SSTORE POP SWAP3 PUSH1 0x20 ADD SWAP3 PUSH1 0x2 ADD PUSH1 0x20 DUP2 PUSH1 0x1 ADD DIV SWAP3 DUP4 ADD SWAP3 PUSH1 0x1 SUB MUL PUSH2 0x51BA JUMP JUMPDEST DUP3 DUP1 SLOAD DUP3 DUP3 SSTORE SWAP1 PUSH1 0x0 MSTORE PUSH1 0x20 PUSH1 0x0 KECCAK256 SWAP1 PUSH1 0x7 ADD PUSH1 0x8 SWAP1 DIV DUP2 ADD SWAP3 DUP3 ISZERO PUSH2 0x5181 JUMPI SWAP2 PUSH1 0x20 MUL DUP3 ADD PUSH1 0x0 JUMPDEST DUP4 DUP3 GT ISZERO PUSH2 0x5269 JUMPI DUP4 MLOAD DUP4 DUP3 PUSH2 0x100 EXP DUP2 SLOAD DUP2 PUSH4 0xFFFFFFFF MUL NOT AND SWAP1 DUP4 PUSH4 0xFFFFFFFF AND MUL OR SWAP1 SSTORE POP SWAP3 PUSH1 0x20 ADD SWAP3 PUSH1 0x4 ADD PUSH1 0x20 DUP2 PUSH1 0x3 ADD DIV SWAP3 DUP4 ADD SWAP3 PUSH1 0x1 SUB MUL PUSH2 0x5225 JUMP JUMPDEST DUP1 ISZERO PUSH2 0x517F JUMPI DUP3 DUP2 PUSH2 0x100 EXP DUP2 SLOAD SWAP1 PUSH4 0xFFFFFFFF MUL NOT AND SWAP1 SSTORE PUSH1 0x4 ADD PUSH1 0x20 DUP2 PUSH1 0x3 ADD DIV SWAP3 DUP4 ADD SWAP3 PUSH1 0x1 SUB MUL PUSH2 0x5269 JUMP JUMPDEST JUMPDEST DUP1 DUP3 GT ISZERO PUSH2 0x518D JUMPI PUSH1 0x0 DUP2 SSTORE PUSH1 0x1 ADD PUSH2 0x529A JUMP JUMPDEST PUSH1 0x0 PUSH1 0x20 DUP3 DUP5 SUB SLT ISZERO PUSH2 0x52C0 JUMPI PUSH1 0x0 DUP1 REVERT JUMPDEST DUP2 CALLDATALOAD PUSH1 0xFF DUP2 AND DUP2 EQ PUSH2 0x38AD JUMPI PUSH1 0x0 DUP1 REVERT JUMPDEST PUSH1 0x20 DUP1 DUP3 MSTORE DUP3 MLOAD DUP3 DUP3 ADD DUP2 SWAP1 MSTORE PUSH1 0x0 SWAP2 SWAP1 DUP5 DUP3 ADD SWAP1 PUSH1 0x40 DUP6 ADD SWAP1 DUP5 JUMPDEST DUP2 DUP2 LT ISZERO PUSH2 0x530F JUMPI DUP4 MLOAD PUSH4 0xFFFFFFFF AND DUP4 MSTORE SWAP3 DUP5 ADD SWAP3 SWAP2 DUP5 ADD SWAP2 PUSH1 0x1 ADD PUSH2 0x52ED JUMP JUMPDEST POP SWAP1 SWAP7 SWAP6 POP POP POP POP POP POP JUMP JUMPDEST PUSH1 0x0 PUSH1 0x20 DUP3 DUP5 SUB SLT ISZERO PUSH2 0x532D JUMPI PUSH1 0x0 DUP1 REVERT JUMPDEST POP CALLDATALOAD SWAP2 SWAP1 POP JUMP JUMPDEST PUSH4 0xFFFFFFFF DUP2 AND DUP2 EQ PUSH2 0x13CC JUMPI PUSH1 0x0 DUP1 REVERT JUMPDEST PUSH1 0x0 PUSH1 0x20 DUP3 DUP5 SUB SLT ISZERO PUSH2 0x5358 JUMPI PUSH1 0x0 DUP1 REVERT JUMPDEST DUP2 CALLDATALOAD PUSH2 0x38AD DUP2 PUSH2 0x5334 JUMP JUMPDEST PUSH1 0x0 JUMPDEST DUP4 DUP2 LT ISZERO PUSH2 0x537E JUMPI DUP2 DUP2 ADD MLOAD DUP4 DUP3 ADD MSTORE PUSH1 0x20 ADD PUSH2 0x5366 JUMP JUMPDEST POP POP PUSH1 0x0 SWAP2 ADD MSTORE JUMP JUMPDEST PUSH1 0x0 DUP2 MLOAD DUP1 DUP5 MSTORE PUSH2 0x539F DUP2 PUSH1 0x20 DUP7 ADD PUSH1 0x20 DUP7 ADD PUSH2 0x5363 JUMP JUMPDEST PUSH1 0x1F ADD PUSH1 0x1F NOT AND SWAP3 SWAP1 SWAP3 ADD PUSH1 0x20 ADD SWAP3 SWAP2 POP POP JUMP JUMPDEST PUSH1 0x0 DUP2 MLOAD DUP1 DUP5 MSTORE PUSH1 0x20 DUP1 DUP6 ADD SWAP5 POP DUP1 DUP5 ADD PUSH1 0x0 JUMPDEST DUP4 DUP2 LT ISZERO PUSH2 0x53E9 JUMPI DUP2 MLOAD PUSH4 0xFFFFFFFF AND DUP8 MSTORE SWAP6 DUP3 ADD SWAP6 SWAP1 DUP3 ADD SWAP1 PUSH1 0x1 ADD PUSH2 0x53C7 JUMP JUMPDEST POP SWAP5 SWAP6 SWAP5 POP POP POP POP POP JUMP JUMPDEST PUSH1 0x0 DUP2 MLOAD DUP1 DUP5 MSTORE PUSH1 0x20 DUP1 DUP6 ADD SWAP5 POP DUP1 DUP5 ADD PUSH1 0x0 JUMPDEST DUP4 DUP2 LT ISZERO PUSH2 0x53E9 JUMPI DUP2 MLOAD DUP8 MSTORE SWAP6 DUP3 ADD SWAP6 SWAP1 DUP3 ADD SWAP1 PUSH1 0x1 ADD PUSH2 0x5408 JUMP JUMPDEST PUSH1 0x20 DUP2 MSTORE PUSH2 0x543B PUSH1 0x20 DUP3 ADD DUP4 MLOAD PUSH4 0xFFFFFFFF AND SWAP1 MSTORE JUMP JUMPDEST PUSH1 0x0 PUSH1 0x20 DUP4 ADD MLOAD PUSH2 0x480 DUP1 PUSH1 0x40 DUP6 ADD MSTORE PUSH2 0x5459 PUSH2 0x4A0 DUP6 ADD DUP4 PUSH2 0x5387 JUMP JUMPDEST SWAP2 POP PUSH1 0x40 DUP6 ADD MLOAD PUSH1 0x60 DUP6 ADD MSTORE PUSH1 0x60 DUP6 ADD MLOAD PUSH2 0x5478 PUSH1 0x80 DUP7 ADD DUP3 ISZERO ISZERO SWAP1 MSTORE JUMP JUMPDEST POP PUSH1 0x80 DUP6 ADD MLOAD PUSH1 0x1 PUSH1 0x1 PUSH1 0xA0 SHL SUB DUP2 AND PUSH1 0xA0 DUP7 ADD MSTORE POP PUSH1 0xA0 DUP6 ADD MLOAD PUSH4 0xFFFFFFFF DUP2 AND PUSH1 0xC0 DUP7 ADD MSTORE POP PUSH1 0xC0 DUP6 ADD MLOAD DUP1 ISZERO ISZERO PUSH1 0xE0 DUP7 ADD MSTORE POP PUSH1 0xE0 DUP6 ADD MLOAD PUSH1 0x1F NOT PUSH2 0x100 DUP2 DUP8 DUP7 SUB ADD DUP2 DUP9 ADD MSTORE PUSH2 0x54CC DUP6 DUP5 PUSH2 0x53B3 JUMP JUMPDEST SWAP5 POP DUP1 DUP9 ADD MLOAD SWAP3 POP POP PUSH2 0x120 DUP2 DUP8 DUP7 SUB ADD DUP2 DUP9 ADD MSTORE PUSH2 0x54EB DUP6 DUP5 PUSH2 0x53B3 JUMP JUMPDEST SWAP5 POP DUP1 DUP9 ADD MLOAD SWAP3 POP POP PUSH2 0x140 DUP2 DUP8 DUP7 SUB ADD DUP2 DUP9 ADD MSTORE PUSH2 0x550A DUP6 DUP5 PUSH2 0x53B3 JUMP JUMPDEST SWAP5 POP DUP1 DUP9 ADD MLOAD SWAP3 POP POP PUSH2 0x160 DUP2 DUP8 DUP7 SUB ADD DUP2 DUP9 ADD MSTORE PUSH2 0x5529 DUP6 DUP5 PUSH2 0x53F4 JUMP JUMPDEST SWAP1 DUP9 ADD MLOAD PUSH2 0x180 DUP9 DUP2 ADD SWAP2 SWAP1 SWAP2 MSTORE DUP9 ADD MLOAD PUSH2 0x1A0 DUP1 DUP10 ADD SWAP2 SWAP1 SWAP2 MSTORE DUP9 ADD MLOAD PUSH2 0x1C0 DUP1 DUP10 ADD SWAP2 SWAP1 SWAP2 MSTORE DUP9 ADD MLOAD PUSH2 0x1E0 DUP1 DUP10 ADD SWAP2 SWAP1 SWAP2 MSTORE DUP9 ADD MLOAD PUSH2 0x200 DUP1 DUP10 ADD SWAP2 SWAP1 SWAP2 MSTORE DUP9 ADD MLOAD PUSH2 0x220 DUP1 DUP10 ADD SWAP2 SWAP1 SWAP2 MSTORE DUP9 ADD MLOAD PUSH2 0x240 DUP1 DUP10 ADD SWAP2 SWAP1 SWAP2 MSTORE DUP9 ADD MLOAD PUSH2 0x260 DUP1 DUP10 ADD SWAP2 SWAP1 SWAP2 MSTORE DUP9 ADD MLOAD SWAP1 SWAP5 POP SWAP2 POP PUSH2 0x280 PUSH2 0x55AB DUP2 DUP9 ADD DUP5 PUSH1 0xFF AND SWAP1 MSTORE JUMP JUMPDEST DUP8 ADD MLOAD SWAP2 POP PUSH2 0x2A0 PUSH2 0x55C4 DUP8 DUP3 ADD DUP5 PUSH4 0xFFFFFFFF AND SWAP1 MSTORE JUMP JUMPDEST DUP8 ADD MLOAD PUSH2 0x2C0 DUP8 DUP2 ADD SWAP2 SWAP1 SWAP2 MSTORE DUP8 ADD MLOAD PUSH2 0x2E0 DUP1 DUP9 ADD SWAP2 SWAP1 SWAP2 MSTORE DUP8 ADD MLOAD PUSH2 0x300 DUP1 DUP9 ADD SWAP2 SWAP1 SWAP2 MSTORE DUP8 ADD MLOAD PUSH2 0x320 DUP1 DUP9 ADD SWAP2 SWAP1 SWAP2 MSTORE DUP8 ADD MLOAD PUSH2 0x340 DUP1 DUP9 ADD SWAP2 SWAP1 SWAP2 MSTORE DUP8 ADD MLOAD PUSH2 0x360 DUP1 DUP9 ADD SWAP2 SWAP1 SWAP2 MSTORE DUP8 ADD MLOAD PUSH2 0x380 DUP1 DUP9 ADD SWAP2 SWAP1 SWAP2 MSTORE DUP8 ADD MLOAD DUP7 DUP6 SUB DUP3 ADD PUSH2 0x3A0 DUP1 DUP10 ADD SWAP2 SWAP1 SWAP2 MSTORE SWAP1 SWAP3 POP PUSH2 0x563E DUP6 DUP5 PUSH2 0x53B3 JUMP JUMPDEST SWAP1 DUP9 ADD MLOAD PUSH2 0x3C0 DUP9 DUP2 ADD SWAP2 SWAP1 SWAP2 MSTORE DUP9 ADD MLOAD PUSH2 0x3E0 DUP1 DUP10 ADD SWAP2 SWAP1 SWAP2 MSTORE DUP9 ADD MLOAD PUSH2 0x400 DUP1 DUP10 ADD SWAP2 SWAP1 SWAP2 MSTORE DUP9 ADD MLOAD SWAP1 SWAP5 POP SWAP2 POP PUSH2 0x420 SWAP1 POP PUSH2 0x5680 DUP2 DUP8 ADD DUP4 ISZERO ISZERO SWAP1 MSTORE JUMP JUMPDEST DUP7 ADD MLOAD SWAP1 POP PUSH2 0x440 PUSH2 0x5695 DUP7 DUP3 ADD DUP4 ISZERO ISZERO SWAP1 MSTORE JUMP JUMPDEST DUP7 ADD MLOAD SWAP1 POP PUSH2 0x460 PUSH2 0x56AA DUP7 DUP3 ADD DUP4 ISZERO ISZERO SWAP1 MSTORE JUMP JUMPDEST SWAP1 SWAP6 ADD MLOAD ISZERO ISZERO SWAP4 ADD SWAP3 SWAP1 SWAP3 MSTORE POP SWAP2 SWAP1 POP JUMP JUMPDEST PUSH1 0x1 PUSH1 0x1 PUSH1 0xA0 SHL SUB DUP2 AND DUP2 EQ PUSH2 0x13CC JUMPI PUSH1 0x0 DUP1 REVERT JUMPDEST PUSH1 0x0 PUSH1 0x20 DUP3 DUP5 SUB SLT ISZERO PUSH2 0x56E3 JUMPI PUSH1 0x0 DUP1 REVERT JUMPDEST DUP2 CALLDATALOAD PUSH2 0x38AD DUP2 PUSH2 0x56BC JUMP JUMPDEST PUSH1 0x0 DUP1 PUSH1 0x40 DUP4 DUP6 SUB SLT ISZERO PUSH2 0x5701 JUMPI PUSH1 0x0 DUP1 REVERT JUMPDEST DUP3 CALLDATALOAD SWAP2 POP PUSH1 0x20 DUP4 ADD CALLDATALOAD PUSH2 0x5713 DUP2 PUSH2 0x5334 JUMP JUMPDEST DUP1 SWAP2 POP POP SWAP3 POP SWAP3 SWAP1 POP JUMP JUMPDEST PUSH4 0x4E487B71 PUSH1 0xE0 SHL PUSH1 0x0 MSTORE PUSH1 0x41 PUSH1 0x4 MSTORE PUSH1 0x24 PUSH1 0x0 REVERT JUMPDEST PUSH1 0x0 DUP1 PUSH1 0x40 DUP4 DUP6 SUB SLT ISZERO PUSH2 0x5747 JUMPI PUSH1 0x0 DUP1 REVERT JUMPDEST DUP3 CALLDATALOAD PUSH2 0x5752 DUP2 PUSH2 0x56BC JUMP JUMPDEST SWAP2 POP PUSH1 0x20 DUP4 ADD CALLDATALOAD PUSH8 0xFFFFFFFFFFFFFFFF DUP1 DUP3 GT ISZERO PUSH2 0x576F JUMPI PUSH1 0x0 DUP1 REVERT JUMPDEST DUP2 DUP6 ADD SWAP2 POP DUP6 PUSH1 0x1F DUP4 ADD SLT PUSH2 0x5783 JUMPI PUSH1 0x0 DUP1 REVERT JUMPDEST DUP2 CALLDATALOAD DUP2 DUP2 GT ISZERO PUSH2 0x5795 JUMPI PUSH2 0x5795 PUSH2 0x571E JUMP JUMPDEST PUSH1 0x40 MLOAD PUSH1 0x1F DUP3 ADD PUSH1 0x1F NOT SWAP1 DUP2 AND PUSH1 0x3F ADD AND DUP2 ADD SWAP1 DUP4 DUP3 GT DUP2 DUP4 LT OR ISZERO PUSH2 0x57BD JUMPI PUSH2 0x57BD PUSH2 0x571E JUMP JUMPDEST DUP2 PUSH1 0x40 MSTORE DUP3 DUP2 MSTORE DUP9 PUSH1 0x20 DUP5 DUP8 ADD ADD GT ISZERO PUSH2 0x57D6 JUMPI PUSH1 0x0 DUP1 REVERT JUMPDEST DUP3 PUSH1 0x20 DUP7 ADD PUSH1 0x20 DUP4 ADD CALLDATACOPY PUSH1 0x0 PUSH1 0x20 DUP5 DUP4 ADD ADD MSTORE DUP1 SWAP6 POP POP POP POP POP POP SWAP3 POP SWAP3 SWAP1 POP JUMP JUMPDEST PUSH1 0x0 DUP1 PUSH1 0x40 DUP4 DUP6 SUB SLT ISZERO PUSH2 0x580B JUMPI PUSH1 0x0 DUP1 REVERT JUMPDEST DUP3 CALLDATALOAD PUSH2 0x5816 DUP2 PUSH2 0x5334 JUMP JUMPDEST SWAP5 PUSH1 0x20 SWAP4 SWAP1 SWAP4 ADD CALLDATALOAD SWAP4 POP POP POP JUMP JUMPDEST PUSH1 0x0 DUP1 PUSH1 0x40 DUP4 DUP6 SUB SLT ISZERO PUSH2 0x5837 JUMPI PUSH1 0x0 DUP1 REVERT JUMPDEST DUP3 CALLDATALOAD PUSH2 0x5842 DUP2 PUSH2 0x5334 JUMP JUMPDEST SWAP2 POP PUSH1 0x20 DUP4 ADD CALLDATALOAD PUSH2 0x5713 DUP2 PUSH2 0x5334 JUMP JUMPDEST PUSH1 0x0 DUP1 DUP4 PUSH1 0x1F DUP5 ADD SLT PUSH2 0x5864 JUMPI PUSH1 0x0 DUP1 REVERT JUMPDEST POP DUP2 CALLDATALOAD PUSH8 0xFFFFFFFFFFFFFFFF DUP2 GT ISZERO PUSH2 0x587C JUMPI PUSH1 0x0 DUP1 REVERT JUMPDEST PUSH1 0x20 DUP4 ADD SWAP2 POP DUP4 PUSH1 0x20 DUP3 PUSH1 0x5 SHL DUP6 ADD ADD GT ISZERO PUSH2 0x5897 JUMPI PUSH1 0x0 DUP1 REVERT JUMPDEST SWAP3 POP SWAP3 SWAP1 POP JUMP JUMPDEST PUSH1 0x0 DUP1 PUSH1 0x0 DUP1 PUSH1 0x40 DUP6 DUP8 SUB SLT ISZERO PUSH2 0x58B4 JUMPI PUSH1 0x0 DUP1 REVERT JUMPDEST DUP5 CALLDATALOAD PUSH8 0xFFFFFFFFFFFFFFFF DUP1 DUP3 GT ISZERO PUSH2 0x58CC JUMPI PUSH1 0x0 DUP1 REVERT JUMPDEST PUSH2 0x58D8 DUP9 DUP4 DUP10 ADD PUSH2 0x5852 JUMP JUMPDEST SWAP1 SWAP7 POP SWAP5 POP PUSH1 0x20 DUP8 ADD CALLDATALOAD SWAP2 POP DUP1 DUP3 GT ISZERO PUSH2 0x58F1 JUMPI PUSH1 0x0 DUP1 REVERT JUMPDEST POP PUSH2 0x58FE DUP8 DUP3 DUP9 ADD PUSH2 0x5852 JUMP JUMPDEST SWAP6 SWAP9 SWAP5 SWAP8 POP SWAP6 POP POP POP POP JUMP JUMPDEST PUSH1 0x20 DUP2 MSTORE PUSH2 0x591E PUSH1 0x20 DUP3 ADD DUP4 MLOAD PUSH1 0xFF AND SWAP1 MSTORE JUMP JUMPDEST PUSH1 0x20 DUP3 ADD MLOAD PUSH1 0x40 DUP3 ADD MSTORE PUSH1 0x40 DUP3 ADD MLOAD PUSH1 0x60 DUP3 ADD MSTORE PUSH1 0x60 DUP3 ADD MLOAD PUSH1 0x80 DUP3 ADD MSTORE PUSH1 0x0 PUSH1 0x80 DUP4 ADD MLOAD PUSH2 0x140 DUP1 PUSH1 0xA0 DUP6 ADD MSTORE PUSH2 0x595A PUSH2 0x160 DUP6 ADD DUP4 PUSH2 0x5387 JUMP JUMPDEST SWAP2 POP PUSH1 0xA0 DUP6 ADD MLOAD PUSH1 0xC0 DUP6 ADD MSTORE PUSH1 0xC0 DUP6 ADD MLOAD PUSH1 0xE0 DUP6 ADD MSTORE PUSH1 0xE0 DUP6 ADD MLOAD PUSH2 0x100 DUP2 DUP2 DUP8 ADD MSTORE DUP1 DUP8 ADD MLOAD SWAP2 POP POP PUSH2 0x120 PUSH2 0x5994 DUP2 DUP8 ADD DUP4 ISZERO ISZERO SWAP1 MSTORE JUMP JUMPDEST DUP7 ADD MLOAD DUP6 DUP5 SUB PUSH1 0x1F NOT ADD DUP4 DUP8 ADD MSTORE SWAP1 POP PUSH2 0x59AE DUP4 DUP3 PUSH2 0x53B3 JUMP JUMPDEST SWAP7 SWAP6 POP POP POP POP POP POP JUMP JUMPDEST PUSH1 0x0 DUP1 PUSH1 0x0 DUP1 PUSH1 0x0 DUP1 PUSH1 0x0 PUSH1 0xE0 DUP9 DUP11 SUB SLT ISZERO PUSH2 0x59D3 JUMPI PUSH1 0x0 DUP1 REVERT JUMPDEST DUP8 CALLDATALOAD PUSH2 0x59DE DUP2 PUSH2 0x56BC JUMP JUMPDEST SWAP7 POP PUSH1 0x20 DUP9 ADD CALLDATALOAD PUSH2 0x59EE DUP2 PUSH2 0x5334 JUMP JUMPDEST SWAP7 SWAP10 SWAP7 SWAP9 POP POP POP POP PUSH1 0x40 DUP6 ADD CALLDATALOAD SWAP5 PUSH1 0x60 DUP2 ADD CALLDATALOAD SWAP5 PUSH1 0x80 DUP3 ADD CALLDATALOAD SWAP5 POP PUSH1 0xA0 DUP3 ADD CALLDATALOAD SWAP4 POP PUSH1 0xC0 SWAP1 SWAP2 ADD CALLDATALOAD SWAP2 POP JUMP JUMPDEST PUSH1 0x0 PUSH1 0x20 DUP3 DUP5 SUB SLT ISZERO PUSH2 0x5A2C JUMPI PUSH1 0x0 DUP1 REVERT JUMPDEST DUP2 CALLDATALOAD PUSH2 0xFFFF DUP2 AND DUP2 EQ PUSH2 0x38AD JUMPI PUSH1 0x0 DUP1 REVERT JUMPDEST PUSH1 0x0 DUP1 PUSH1 0x20 DUP4 DUP6 SUB SLT ISZERO PUSH2 0x5A51 JUMPI PUSH1 0x0 DUP1 REVERT JUMPDEST DUP3 CALLDATALOAD PUSH8 0xFFFFFFFFFFFFFFFF DUP2 GT ISZERO PUSH2 0x5A68 JUMPI PUSH1 0x0 DUP1 REVERT JUMPDEST PUSH2 0x5A74 DUP6 DUP3 DUP7 ADD PUSH2 0x5852 JUMP JUMPDEST SWAP1 SWAP7 SWAP1 SWAP6 POP SWAP4 POP POP POP POP JUMP JUMPDEST PUSH1 0x0 DUP1 PUSH1 0x40 DUP4 DUP6 SUB SLT ISZERO PUSH2 0x5A93 JUMPI PUSH1 0x0 DUP1 REVERT JUMPDEST DUP3 CALLDATALOAD PUSH2 0x5842 DUP2 PUSH2 0x56BC JUMP JUMPDEST PUSH1 0x20 DUP2 MSTORE DUP2 MLOAD ISZERO ISZERO PUSH1 0x20 DUP3 ADD MSTORE PUSH1 0x0 PUSH1 0x20 DUP4 ADD MLOAD PUSH1 0x60 PUSH1 0x40 DUP5 ADD MSTORE PUSH2 0x5AC6 PUSH1 0x80 DUP5 ADD DUP3 PUSH2 0x53B3 JUMP JUMPDEST SWAP1 POP PUSH1 0x40 DUP5 ADD MLOAD PUSH1 0x1F NOT DUP5 DUP4 SUB ADD PUSH1 0x60 DUP6 ADD MSTORE PUSH2 0x4FEB DUP3 DUP3 PUSH2 0x5387 JUMP JUMPDEST PUSH1 0x1 DUP2 DUP2 SHR SWAP1 DUP3 AND DUP1 PUSH2 0x5AF7 JUMPI PUSH1 0x7F DUP3 AND SWAP2 POP JUMPDEST PUSH1 0x20 DUP3 LT DUP2 SUB PUSH2 0x5B17 JUMPI PUSH4 0x4E487B71 PUSH1 0xE0 SHL PUSH1 0x0 MSTORE PUSH1 0x22 PUSH1 0x4 MSTORE PUSH1 0x24 PUSH1 0x0 REVERT JUMPDEST POP SWAP2 SWAP1 POP JUMP JUMPDEST DUP1 ISZERO ISZERO DUP2 EQ PUSH2 0x13CC JUMPI PUSH1 0x0 DUP1 REVERT JUMPDEST PUSH1 0x0 PUSH1 0x20 DUP3 DUP5 SUB SLT ISZERO PUSH2 0x5B3D JUMPI PUSH1 0x0 DUP1 REVERT JUMPDEST DUP2 MLOAD PUSH2 0x38AD DUP2 PUSH2 0x5B1D JUMP JUMPDEST PUSH4 0x4E487B71 PUSH1 0xE0 SHL PUSH1 0x0 MSTORE PUSH1 0x11 PUSH1 0x4 MSTORE PUSH1 0x24 PUSH1 0x0 REVERT JUMPDEST DUP1 DUP3 MUL DUP2 ISZERO DUP3 DUP3 DIV DUP5 EQ OR PUSH2 0x4FF0 JUMPI PUSH2 0x4FF0 PUSH2 0x5B48 JUMP JUMPDEST PUSH1 0x0 DUP3 PUSH2 0x5B92 JUMPI PUSH4 0x4E487B71 PUSH1 0xE0 SHL PUSH1 0x0 MSTORE PUSH1 0x12 PUSH1 0x4 MSTORE PUSH1 0x24 PUSH1 0x0 REVERT JUMPDEST POP DIV SWAP1 JUMP JUMPDEST PUSH1 0x0 PUSH1 0x20 DUP3 DUP5 SUB SLT ISZERO PUSH2 0x5BA9 JUMPI PUSH1 0x0 DUP1 REVERT JUMPDEST DUP2 MLOAD PUSH2 0x38AD DUP2 PUSH2 0x56BC JUMP JUMPDEST DUP2 DUP2 SUB DUP2 DUP2 GT ISZERO PUSH2 0x4FF0 JUMPI PUSH2 0x4FF0 PUSH2 0x5B48 JUMP JUMPDEST DUP1 DUP3 ADD DUP1 DUP3 GT ISZERO PUSH2 0x4FF0 JUMPI PUSH2 0x4FF0 PUSH2 0x5B48 JUMP JUMPDEST PUSH1 0x20 DUP1 DUP3 MSTORE PUSH1 0x2C SWAP1 DUP3 ADD MSTORE PUSH32 0x46756E6374696F6E206D7573742062652063616C6C6564207468726F75676820 PUSH1 0x40 DUP3 ADD MSTORE PUSH12 0x19195B1959D85D1958D85B1B PUSH1 0xA2 SHL PUSH1 0x60 DUP3 ADD MSTORE PUSH1 0x80 ADD SWAP1 JUMP JUMPDEST PUSH1 0x20 DUP1 DUP3 MSTORE PUSH1 0x2C SWAP1 DUP3 ADD MSTORE PUSH32 0x46756E6374696F6E206D7573742062652063616C6C6564207468726F75676820 PUSH1 0x40 DUP3 ADD MSTORE PUSH12 0x6163746976652070726F7879 PUSH1 0xA0 SHL PUSH1 0x60 DUP3 ADD MSTORE PUSH1 0x80 ADD SWAP1 JUMP JUMPDEST PUSH1 0x20 DUP1 DUP3 MSTORE PUSH1 0x12 SWAP1 DUP3 ADD MSTORE PUSH18 0x2CB7BA9030B932903737BA1030B236B4B717 PUSH1 0x71 SHL PUSH1 0x40 DUP3 ADD MSTORE PUSH1 0x60 ADD SWAP1 JUMP JUMPDEST PUSH4 0x4E487B71 PUSH1 0xE0 SHL PUSH1 0x0 MSTORE PUSH1 0x32 PUSH1 0x4 MSTORE PUSH1 0x24 PUSH1 0x0 REVERT JUMPDEST PUSH4 0x4E487B71 PUSH1 0xE0 SHL PUSH1 0x0 MSTORE PUSH1 0x31 PUSH1 0x4 MSTORE PUSH1 0x24 PUSH1 0x0 REVERT JUMPDEST PUSH1 0x0 PUSH2 0xFFFF DUP1 DUP4 AND DUP2 DUP2 SUB PUSH2 0x5CE1 JUMPI PUSH2 0x5CE1 PUSH2 0x5B48 JUMP JUMPDEST PUSH1 0x1 ADD SWAP4 SWAP3 POP POP POP JUMP JUMPDEST PUSH1 0xFF DUP2 DUP2 AND DUP4 DUP3 AND ADD SWAP1 DUP2 GT ISZERO PUSH2 0x4FF0 JUMPI PUSH2 0x4FF0 PUSH2 0x5B48 JUMP JUMPDEST PUSH1 0x0 PUSH1 0xFF DUP3 AND PUSH1 0xFF DUP2 SUB PUSH2 0x5D1A JUMPI PUSH2 0x5D1A PUSH2 0x5B48 JUMP JUMPDEST PUSH1 0x1 ADD SWAP3 SWAP2 POP POP JUMP JUMPDEST PUSH4 0xFFFFFFFF DUP2 DUP2 AND DUP4 DUP3 AND ADD SWAP1 DUP1 DUP3 GT ISZERO PUSH2 0x5D40 JUMPI PUSH2 0x5D40 PUSH2 0x5B48 JUMP JUMPDEST POP SWAP3 SWAP2 POP POP JUMP JUMPDEST PUSH1 0x0 PUSH1 0x20 DUP3 DUP5 SUB SLT ISZERO PUSH2 0x5D59 JUMPI PUSH1 0x0 DUP1 REVERT JUMPDEST DUP2 MLOAD PUSH2 0x38AD DUP2 PUSH2 0x5334 JUMP JUMPDEST PUSH1 0x0 PUSH4 0xFFFFFFFF DUP1 DUP4 AND DUP2 DUP2 SUB PUSH2 0x5CE1 JUMPI PUSH2 0x5CE1 PUSH2 0x5B48 JUMP JUMPDEST PUSH1 0x0 PUSH1 0x20 DUP3 DUP5 SUB SLT ISZERO PUSH2 0x5D8F JUMPI PUSH1 0x0 DUP1 REVERT JUMPDEST DUP2 CALLDATALOAD PUSH2 0x38AD DUP2 PUSH2 0x5B1D JUMP JUMPDEST PUSH1 0x0 PUSH1 0x20 DUP3 DUP5 SUB SLT ISZERO PUSH2 0x5DAC JUMPI PUSH1 0x0 DUP1 REVERT JUMPDEST POP MLOAD SWAP2 SWAP1 POP JUMP JUMPDEST PUSH1 0x20 DUP1 DUP3 MSTORE PUSH1 0x2B SWAP1 DUP3 ADD MSTORE PUSH32 0x496E697469616C697A61626C653A20636F6E7472616374206973206E6F742069 PUSH1 0x40 DUP3 ADD MSTORE PUSH11 0x6E697469616C697A696E67 PUSH1 0xA8 SHL PUSH1 0x60 DUP3 ADD MSTORE PUSH1 0x80 ADD SWAP1 JUMP JUMPDEST PUSH1 0x0 DUP3 MLOAD PUSH2 0x5E10 DUP2 DUP5 PUSH1 0x20 DUP8 ADD PUSH2 0x5363 JUMP JUMPDEST SWAP2 SWAP1 SWAP2 ADD SWAP3 SWAP2 POP POP JUMP JUMPDEST PUSH1 0x20 DUP2 MSTORE PUSH1 0x0 PUSH2 0x38AD PUSH1 0x20 DUP4 ADD DUP5 PUSH2 0x5387 JUMP INVALID CALLDATASIZE ADDMOD SWAP5 LOG1 EXTCODESIZE LOG1 LOG3 0x21 MOD PUSH8 0xC828492DB98DCA3E KECCAK256 PUSH23 0xCC3735A920A3CA505D382BBC416464726573733A206C6F PUSH24 0x2D6C6576656C2064656C65676174652063616C6C20666169 PUSH13 0x6564A2646970667358221220A9 MUL LOG4 0xCC MOD 0xD1 0x28 0xC7 COINBASE 0xC8 PUSH21 0xA0BB568DFA12E2456A0927B2673A58B50CD4B78CE1 PUSH5 0x736F6C6343 STOP ADDMOD SLT STOP CALLER "},"methodIdentifiers":{"activateId(uint32)":"bcb93f9b","activateIdAdmin(address,uint32,uint256,uint256,uint256,uint256,uint256)":"7cf97c8c","changeUpline(uint32,uint32)":"648484ac","claimBalance(uint32)":"300825b5","companyTurnoverTimeLimit()":"f41bfeef","companyTurnoverTimeStamp()":"2ed421d2","companyTurnoverWithTimeLimit()":"22f88b52","decimals()":"313ce567","detachIdFromAddressAdmin(address,uint32)":"f07690c6","disabledUsersList(uint256)":"1319cff9","futureScureWalletContribution()":"cd21364d","getAchieversList(uint8)":"012da720","getIdAccount(uint32)":"21009789","getIdLimits(uint32)":"4e6e93a3","getMinContributionETH()":"1f9e65e4","getRoyaltyClubPackageInfo(uint8)":"7bdbf996","getUserAccount(address)":"fb47e016","increaseIdTopIncome(uint32,uint256)":"6ccc10ae","initialize()":"8129fc1c","isActivateROI()":"8af925dc","isPayReferral()":"7084431f","isPayRoyaltyClubBonus()":"fafc9597","levelRates(uint256)":"7879b5ef","maxLevels()":"6f38e410","minContributionUSD()":"8f84de85","owner()":"8da5cb5b","packagesCount()":"18e10bff","payReferralAdmin(uint256,uint32)":"498b3e55","proxiableUUID()":"52d1902d","renounceOwnership()":"715018a6","royaltyClubPackageCount()":"a28a3686","setIdOwnerAddressAdmin(uint32[],address[])":"6de3a95c","setLevelDecimals(uint16)":"a43ae408","setLevelRates(uint8[])":"e1c715ba","setMaxLevelsAdmin(uint8)":"3eff2def","setVisibilityOfAddressAdmin(address[],bool[])":"86851e0c","setWithdrawalStatusAdmin(uint32[],bool[])":"8f8d2090","topUpId(uint32)":"a152b0f0","totalBalanceClaimed()":"b580a7a1","totalIds()":"390a5ba5","totalReferralPaid()":"7c599486","totalRoyaltyClubBonusPaid()":"852ff2fd","transferOwnership(address)":"f2fde38b","updateIdWhenClaimROI(uint32,uint256)":"509d6c52","upgradeTo(address)":"3659cfe6","upgradeToAndCall(address,bytes)":"4f1ef286","users(uint256)":"365b98b2"}},"storageLayout":{"storage":[{"astId":527,"contract":"contracts/ReferralV4Upgradeable.sol:ReferralV4Upgradeable","label":"_initialized","offset":0,"slot":"0","type":"t_uint8"},{"astId":530,"contract":"contracts/ReferralV4Upgradeable.sol:ReferralV4Upgradeable","label":"_initializing","offset":1,"slot":"0","type":"t_bool"},{"astId":1228,"contract":"contracts/ReferralV4Upgradeable.sol:ReferralV4Upgradeable","label":"__gap","offset":0,"slot":"1","type":"t_array(t_uint256)50_storage"},{"astId":10,"contract":"contracts/ReferralV4Upgradeable.sol:ReferralV4Upgradeable","label":"_owner","offset":0,"slot":"51","type":"t_address"},{"astId":130,"contract":"contracts/ReferralV4Upgradeable.sol:ReferralV4Upgradeable","label":"__gap","offset":0,"slot":"52","type":"t_array(t_uint256)49_storage"},{"astId":509,"contract":"contracts/ReferralV4Upgradeable.sol:ReferralV4Upgradeable","label":"__gap","offset":0,"slot":"101","type":"t_array(t_uint256)50_storage"},{"astId":824,"contract":"contracts/ReferralV4Upgradeable.sol:ReferralV4Upgradeable","label":"__gap","offset":0,"slot":"151","type":"t_array(t_uint256)50_storage"},{"astId":4961,"contract":"contracts/ReferralV4Upgradeable.sol:ReferralV4Upgradeable","label":"_variablesContract","offset":0,"slot":"201","type":"t_address"},{"astId":4964,"contract":"contracts/ReferralV4Upgradeable.sol:ReferralV4Upgradeable","label":"levelRates","offset":0,"slot":"202","type":"t_array(t_uint16)dyn_storage"},{"astId":4966,"contract":"contracts/ReferralV4Upgradeable.sol:ReferralV4Upgradeable","label":"decimals","offset":0,"slot":"203","type":"t_uint16"},{"astId":4968,"contract":"contracts/ReferralV4Upgradeable.sol:ReferralV4Upgradeable","label":"maxLevels","offset":2,"slot":"203","type":"t_uint8"},{"astId":4970,"contract":"contracts/ReferralV4Upgradeable.sol:ReferralV4Upgradeable","label":"minContributionUSD","offset":0,"slot":"204","type":"t_uint256"},{"astId":4972,"contract":"contracts/ReferralV4Upgradeable.sol:ReferralV4Upgradeable","label":"totalRoyaltyClubBonusPaid","offset":0,"slot":"205","type":"t_uint256"},{"astId":4974,"contract":"contracts/ReferralV4Upgradeable.sol:ReferralV4Upgradeable","label":"totalReferralPaid","offset":0,"slot":"206","type":"t_uint256"},{"astId":4976,"contract":"contracts/ReferralV4Upgradeable.sol:ReferralV4Upgradeable","label":"totalIds","offset":0,"slot":"207","type":"t_uint32"},{"astId":4978,"contract":"contracts/ReferralV4Upgradeable.sol:ReferralV4Upgradeable","label":"isPayRoyaltyClubBonus","offset":4,"slot":"207","type":"t_bool"},{"astId":4980,"contract":"contracts/ReferralV4Upgradeable.sol:ReferralV4Upgradeable","label":"royaltyClubPackageCount","offset":5,"slot":"207","type":"t_uint8"},{"astId":4982,"contract":"contracts/ReferralV4Upgradeable.sol:ReferralV4Upgradeable","label":"_userLevelUnlockMultiplier","offset":6,"slot":"207","type":"t_uint8"},{"astId":4984,"contract":"contracts/ReferralV4Upgradeable.sol:ReferralV4Upgradeable","label":"companyTurnoverWithTimeLimit","offset":0,"slot":"208","type":"t_uint256"},{"astId":4986,"contract":"contracts/ReferralV4Upgradeable.sol:ReferralV4Upgradeable","label":"companyTurnoverTimeStamp","offset":0,"slot":"209","type":"t_uint256"},{"astId":4988,"contract":"contracts/ReferralV4Upgradeable.sol:ReferralV4Upgradeable","label":"companyTurnoverTimeLimit","offset":0,"slot":"210","type":"t_uint256"},{"astId":4991,"contract":"contracts/ReferralV4Upgradeable.sol:ReferralV4Upgradeable","label":"disabledUsersList","offset":0,"slot":"211","type":"t_array(t_address)dyn_storage"},{"astId":4994,"contract":"contracts/ReferralV4Upgradeable.sol:ReferralV4Upgradeable","label":"users","offset":0,"slot":"212","type":"t_array(t_address)dyn_storage"},{"astId":4996,"contract":"contracts/ReferralV4Upgradeable.sol:ReferralV4Upgradeable","label":"isActivateROI","offset":0,"slot":"213","type":"t_bool"},{"astId":4998,"contract":"contracts/ReferralV4Upgradeable.sol:ReferralV4Upgradeable","label":"isPayReferral","offset":1,"slot":"213","type":"t_bool"},{"astId":5000,"contract":"contracts/ReferralV4Upgradeable.sol:ReferralV4Upgradeable","label":"futureScureWalletContribution","offset":2,"slot":"213","type":"t_uint8"},{"astId":5110,"contract":"contracts/ReferralV4Upgradeable.sol:ReferralV4Upgradeable","label":"packagesCount","offset":3,"slot":"213","type":"t_uint8"},{"astId":5115,"contract":"contracts/ReferralV4Upgradeable.sol:ReferralV4Upgradeable","label":"accounts","offset":0,"slot":"214","type":"t_mapping(t_address,t_struct(StructAccount)5008_storage)"},{"astId":5120,"contract":"contracts/ReferralV4Upgradeable.sol:ReferralV4Upgradeable","label":"ids","offset":0,"slot":"215","type":"t_mapping(t_uint32,t_struct(StructId)5086_storage)"},{"astId":5125,"contract":"contracts/ReferralV4Upgradeable.sol:ReferralV4Upgradeable","label":"packages","offset":0,"slot":"216","type":"t_mapping(t_uint8,t_struct(StructPackages)5108_storage)"},{"astId":5219,"contract":"contracts/ReferralV4Upgradeable.sol:ReferralV4Upgradeable","label":"totalBalanceClaimed","offset":0,"slot":"217","type":"t_uint256"}],"types":{"t_address":{"encoding":"inplace","label":"address","numberOfBytes":"20"},"t_array(t_address)dyn_storage":{"base":"t_address","encoding":"dynamic_array","label":"address[]","numberOfBytes":"32"},"t_array(t_uint16)dyn_storage":{"base":"t_uint16","encoding":"dynamic_array","label":"uint16[]","numberOfBytes":"32"},"t_array(t_uint256)49_storage":{"base":"t_uint256","encoding":"inplace","label":"uint256[49]","numberOfBytes":"1568"},"t_array(t_uint256)50_storage":{"base":"t_uint256","encoding":"inplace","label":"uint256[50]","numberOfBytes":"1600"},"t_array(t_uint256)dyn_storage":{"base":"t_uint256","encoding":"dynamic_array","label":"uint256[]","numberOfBytes":"32"},"t_array(t_uint32)dyn_storage":{"base":"t_uint32","encoding":"dynamic_array","label":"uint32[]","numberOfBytes":"32"},"t_bool":{"encoding":"inplace","label":"bool","numberOfBytes":"1"},"t_mapping(t_address,t_struct(StructAccount)5008_storage)":{"encoding":"mapping","key":"t_address","label":"mapping(address => struct ReferralV4Upgradeable.StructAccount)","numberOfBytes":"32","value":"t_struct(StructAccount)5008_storage"},"t_mapping(t_uint32,t_struct(StructId)5086_storage)":{"encoding":"mapping","key":"t_uint32","label":"mapping(uint32 => struct ReferralV4Upgradeable.StructId)","numberOfBytes":"32","value":"t_struct(StructId)5086_storage"},"t_mapping(t_uint8,t_struct(StructPackages)5108_storage)":{"encoding":"mapping","key":"t_uint8","label":"mapping(uint8 => struct ReferralV4Upgradeable.StructPackages)","numberOfBytes":"32","value":"t_struct(StructPackages)5108_storage"},"t_string_storage":{"encoding":"bytes","label":"string","numberOfBytes":"32"},"t_struct(StructAccount)5008_storage":{"encoding":"inplace","label":"struct ReferralV4Upgradeable.StructAccount","members":[{"astId":5002,"contract":"contracts/ReferralV4Upgradeable.sol:ReferralV4Upgradeable","label":"isActive","offset":0,"slot":"0","type":"t_bool"},{"astId":5005,"contract":"contracts/ReferralV4Upgradeable.sol:ReferralV4Upgradeable","label":"accountIds","offset":0,"slot":"1","type":"t_array(t_uint32)dyn_storage"},{"astId":5007,"contract":"contracts/ReferralV4Upgradeable.sol:ReferralV4Upgradeable","label":"userName","offset":0,"slot":"2","type":"t_string_storage"}],"numberOfBytes":"96"},"t_struct(StructId)5086_storage":{"encoding":"inplace","label":"struct ReferralV4Upgradeable.StructId","members":[{"astId":5010,"contract":"contracts/ReferralV4Upgradeable.sol:ReferralV4Upgradeable","label":"id","offset":0,"slot":"0","type":"t_uint32"},{"astId":5012,"contract":"contracts/ReferralV4Upgradeable.sol:ReferralV4Upgradeable","label":"oldId","offset":0,"slot":"1","type":"t_string_storage"},{"astId":5014,"contract":"contracts/ReferralV4Upgradeable.sol:ReferralV4Upgradeable","label":"joiningTime","offset":0,"slot":"2","type":"t_uint256"},{"astId":5016,"contract":"contracts/ReferralV4Upgradeable.sol:ReferralV4Upgradeable","label":"isAddedToUserList","offset":0,"slot":"3","type":"t_bool"},{"astId":5018,"contract":"contracts/ReferralV4Upgradeable.sol:ReferralV4Upgradeable","label":"owner","offset":1,"slot":"3","type":"t_address"},{"astId":5020,"contract":"contracts/ReferralV4Upgradeable.sol:ReferralV4Upgradeable","label":"refererId","offset":21,"slot":"3","type":"t_uint32"},{"astId":5022,"contract":"contracts/ReferralV4Upgradeable.sol:ReferralV4Upgradeable","label":"hasUpline","offset":25,"slot":"3","type":"t_bool"},{"astId":5025,"contract":"contracts/ReferralV4Upgradeable.sol:ReferralV4Upgradeable","label":"refereeIds","offset":0,"slot":"4","type":"t_array(t_uint32)dyn_storage"},{"astId":5028,"contract":"contracts/ReferralV4Upgradeable.sol:ReferralV4Upgradeable","label":"teamIds","offset":0,"slot":"5","type":"t_array(t_uint32)dyn_storage"},{"astId":5031,"contract":"contracts/ReferralV4Upgradeable.sol:ReferralV4Upgradeable","label":"teamLevel","offset":0,"slot":"6","type":"t_array(t_uint32)dyn_storage"},{"astId":5034,"contract":"contracts/ReferralV4Upgradeable.sol:ReferralV4Upgradeable","label":"selfBusinessArray","offset":0,"slot":"7","type":"t_array(t_uint256)dyn_storage"},{"astId":5036,"contract":"contracts/ReferralV4Upgradeable.sol:ReferralV4Upgradeable","label":"selfBusiness","offset":0,"slot":"8","type":"t_uint256"},{"astId":5038,"contract":"contracts/ReferralV4Upgradeable.sol:ReferralV4Upgradeable","label":"selfBusinessOld","offset":0,"slot":"9","type":"t_uint256"},{"astId":5040,"contract":"contracts/ReferralV4Upgradeable.sol:ReferralV4Upgradeable","label":"directBusiness","offset":0,"slot":"10","type":"t_uint256"},{"astId":5042,"contract":"contracts/ReferralV4Upgradeable.sol:ReferralV4Upgradeable","label":"directBusinessOld","offset":0,"slot":"11","type":"t_uint256"},{"astId":5044,"contract":"contracts/ReferralV4Upgradeable.sol:ReferralV4Upgradeable","label":"teamBusiness","offset":0,"slot":"12","type":"t_uint256"},{"astId":5046,"contract":"contracts/ReferralV4Upgradeable.sol:ReferralV4Upgradeable","label":"teamBusinessOld","offset":0,"slot":"13","type":"t_uint256"},{"astId":5048,"contract":"contracts/ReferralV4Upgradeable.sol:ReferralV4Upgradeable","label":"royaltyClubBusiness","offset":0,"slot":"14","type":"t_uint256"},{"astId":5050,"contract":"contracts/ReferralV4Upgradeable.sol:ReferralV4Upgradeable","label":"timeStampRoyaltyClub","offset":0,"slot":"15","type":"t_uint256"},{"astId":5052,"contract":"contracts/ReferralV4Upgradeable.sol:ReferralV4Upgradeable","label":"royaltyClubPackageId","offset":0,"slot":"16","type":"t_uint8"},{"astId":5054,"contract":"contracts/ReferralV4Upgradeable.sol:ReferralV4Upgradeable","label":"royaltyClubListIndex","offset":1,"slot":"16","type":"t_uint32"},{"astId":5056,"contract":"contracts/ReferralV4Upgradeable.sol:ReferralV4Upgradeable","label":"royaltyClubRewardPaid","offset":0,"slot":"17","type":"t_uint256"},{"astId":5058,"contract":"contracts/ReferralV4Upgradeable.sol:ReferralV4Upgradeable","label":"topUpIncome","offset":0,"slot":"18","type":"t_uint256"},{"astId":5060,"contract":"contracts/ReferralV4Upgradeable.sol:ReferralV4Upgradeable","label":"topUp","offset":0,"slot":"19","type":"t_uint256"},{"astId":5062,"contract":"contracts/ReferralV4Upgradeable.sol:ReferralV4Upgradeable","label":"maxLimit","offset":0,"slot":"20","type":"t_uint256"},{"astId":5064,"contract":"contracts/ReferralV4Upgradeable.sol:ReferralV4Upgradeable","label":"activationTime","offset":0,"slot":"21","type":"t_uint256"},{"astId":5066,"contract":"contracts/ReferralV4Upgradeable.sol:ReferralV4Upgradeable","label":"deactivationTime","offset":0,"slot":"22","type":"t_uint256"},{"astId":5068,"contract":"contracts/ReferralV4Upgradeable.sol:ReferralV4Upgradeable","label":"referralPaid","offset":0,"slot":"23","type":"t_uint256"},{"astId":5071,"contract":"contracts/ReferralV4Upgradeable.sol:ReferralV4Upgradeable","label":"roiIds","offset":0,"slot":"24","type":"t_array(t_uint32)dyn_storage"},{"astId":5073,"contract":"contracts/ReferralV4Upgradeable.sol:ReferralV4Upgradeable","label":"roiPaid","offset":0,"slot":"25","type":"t_uint256"},{"astId":5075,"contract":"contracts/ReferralV4Upgradeable.sol:ReferralV4Upgradeable","label":"roiClaimedTime","offset":0,"slot":"26","type":"t_uint256"},{"astId":5077,"contract":"contracts/ReferralV4Upgradeable.sol:ReferralV4Upgradeable","label":"walletBalance","offset":0,"slot":"27","type":"t_uint256"},{"astId":5079,"contract":"contracts/ReferralV4Upgradeable.sol:ReferralV4Upgradeable","label":"isActive","offset":0,"slot":"28","type":"t_bool"},{"astId":5081,"contract":"contracts/ReferralV4Upgradeable.sol:ReferralV4Upgradeable","label":"isROIDisabled","offset":1,"slot":"28","type":"t_bool"},{"astId":5083,"contract":"contracts/ReferralV4Upgradeable.sol:ReferralV4Upgradeable","label":"isIdVisibilityDisabled","offset":2,"slot":"28","type":"t_bool"},{"astId":5085,"contract":"contracts/ReferralV4Upgradeable.sol:ReferralV4Upgradeable","label":"canWindraw","offset":3,"slot":"28","type":"t_bool"}],"numberOfBytes":"928"},"t_struct(StructPackages)5108_storage":{"encoding":"inplace","label":"struct ReferralV4Upgradeable.StructPackages","members":[{"astId":5088,"contract":"contracts/ReferralV4Upgradeable.sol:ReferralV4Upgradeable","label":"packageId","offset":0,"slot":"0","type":"t_uint8"},{"astId":5090,"contract":"contracts/ReferralV4Upgradeable.sol:ReferralV4Upgradeable","label":"selfBusiness","offset":0,"slot":"1","type":"t_uint256"},{"astId":5092,"contract":"contracts/ReferralV4Upgradeable.sol:ReferralV4Upgradeable","label":"directBusiness","offset":0,"slot":"2","type":"t_uint256"},{"astId":5094,"contract":"contracts/ReferralV4Upgradeable.sol:ReferralV4Upgradeable","label":"teamBusiness","offset":0,"slot":"3","type":"t_uint256"},{"astId":5096,"contract":"contracts/ReferralV4Upgradeable.sol:ReferralV4Upgradeable","label":"rankName","offset":0,"slot":"4","type":"t_string_storage"},{"astId":5098,"contract":"contracts/ReferralV4Upgradeable.sol:ReferralV4Upgradeable","label":"reward","offset":0,"slot":"5","type":"t_uint256"},{"astId":5100,"contract":"contracts/ReferralV4Upgradeable.sol:ReferralV4Upgradeable","label":"businessLimit","offset":0,"slot":"6","type":"t_uint256"},{"astId":5102,"contract":"contracts/ReferralV4Upgradeable.sol:ReferralV4Upgradeable","label":"timeLimit","offset":0,"slot":"7","type":"t_uint256"},{"astId":5104,"contract":"contracts/ReferralV4Upgradeable.sol:ReferralV4Upgradeable","label":"isPayReccursive","offset":0,"slot":"8","type":"t_bool"},{"astId":5107,"contract":"contracts/ReferralV4Upgradeable.sol:ReferralV4Upgradeable","label":"achieversList","offset":0,"slot":"9","type":"t_array(t_uint32)dyn_storage"}],"numberOfBytes":"320"},"t_uint16":{"encoding":"inplace","label":"uint16","numberOfBytes":"2"},"t_uint256":{"encoding":"inplace","label":"uint256","numberOfBytes":"32"},"t_uint32":{"encoding":"inplace","label":"uint32","numberOfBytes":"4"},"t_uint8":{"encoding":"inplace","label":"uint8","numberOfBytes":"1"}}}}}}