{"contracts/ReferralV4Upgradeable.sol":{"ReferralV4Upgradeable":{"abi":[{"anonymous":false,"inputs":[{"indexed":false,"internalType":"uint32","name":"id","type":"uint32"}],"name":"ActivatedId","type":"event"},{"anonymous":false,"inputs":[{"indexed":false,"internalType":"uint32","name":"id","type":"uint32"},{"indexed":false,"internalType":"uint32","name":"index","type":"uint32"},{"indexed":false,"internalType":"uint8","name":"rank","type":"uint8"}],"name":"AddedInRoyaltyClubList","type":"event"},{"anonymous":false,"inputs":[{"indexed":false,"internalType":"address","name":"previousAdmin","type":"address"},{"indexed":false,"internalType":"address","name":"newAdmin","type":"address"}],"name":"AdminChanged","type":"event"},{"anonymous":false,"inputs":[{"indexed":true,"internalType":"address","name":"beacon","type":"address"}],"name":"BeaconUpgraded","type":"event"},{"anonymous":false,"inputs":[{"indexed":false,"internalType":"uint32","name":"id","type":"uint32"},{"indexed":false,"internalType":"string","name":"reason","type":"string"}],"name":"DeactivatedId","type":"event"},{"anonymous":false,"inputs":[{"indexed":false,"internalType":"uint8","name":"version","type":"uint8"}],"name":"Initialized","type":"event"},{"anonymous":false,"inputs":[{"indexed":false,"internalType":"uint32","name":"id","type":"uint32"},{"indexed":false,"internalType":"address","name":"owner","type":"address"}],"name":"OwnerChangedId","type":"event"},{"anonymous":false,"inputs":[{"indexed":true,"internalType":"address","name":"previousOwner","type":"address"},{"indexed":true,"internalType":"address","name":"newOwner","type":"address"}],"name":"OwnershipTransferred","type":"event"},{"anonymous":false,"inputs":[{"indexed":false,"internalType":"uint8","name":"packageId","type":"uint8"}],"name":"PackageAdded","type":"event"},{"anonymous":false,"inputs":[{"indexed":false,"internalType":"uint8","name":"packageId","type":"uint8"}],"name":"PackageRemoved","type":"event"},{"anonymous":false,"inputs":[{"indexed":false,"internalType":"uint8","name":"packageId","type":"uint8"}],"name":"PackageUpdated","type":"event"},{"anonymous":false,"inputs":[{"indexed":true,"internalType":"uint32","name":"refererId","type":"uint32"},{"indexed":true,"internalType":"uint8","name":"level","type":"uint8"},{"indexed":true,"internalType":"string","name":"reason","type":"string"}],"name":"ReferralNotPaid","type":"event"},{"anonymous":false,"inputs":[{"indexed":true,"internalType":"uint32","name":"refereeId","type":"uint32"},{"indexed":true,"internalType":"uint32","name":"referrerId","type":"uint32"},{"indexed":true,"internalType":"uint256","name":"amount","type":"uint256"},{"indexed":false,"internalType":"uint8","name":"level","type":"uint8"}],"name":"ReferralRewardPaid","type":"event"},{"anonymous":false,"inputs":[{"indexed":true,"internalType":"address","name":"refereeId","type":"address"},{"indexed":true,"internalType":"address","name":"referrerId","type":"address"},{"indexed":true,"internalType":"string","name":"reason","type":"string"}],"name":"RegisterRefererFailed","type":"event"},{"anonymous":false,"inputs":[{"indexed":true,"internalType":"uint32","name":"id","type":"uint32"},{"indexed":true,"internalType":"uint32","name":"refererId","type":"uint32"}],"name":"RegisteredReferer","type":"event"},{"anonymous":false,"inputs":[{"indexed":true,"internalType":"uint32","name":"refereeId","type":"uint32"},{"indexed":true,"internalType":"uint32","name":"referrerId","type":"uint32"},{"indexed":true,"internalType":"uint32","name":"parentAccountId","type":"uint32"}],"name":"RegisteredTeamAddress","type":"event"},{"anonymous":false,"inputs":[{"indexed":true,"internalType":"uint32","name":"userid","type":"uint32"},{"indexed":true,"internalType":"uint8","name":"packageId","type":"uint8"},{"indexed":true,"internalType":"uint256","name":"amount","type":"uint256"}],"name":"RoyaltyClubBonusPaid","type":"event"},{"anonymous":false,"inputs":[{"indexed":true,"internalType":"address","name":"implementation","type":"address"}],"name":"Upgraded","type":"event"},{"inputs":[{"internalType":"uint32","name":"_refererId","type":"uint32"}],"name":"activateId","outputs":[],"stateMutability":"payable","type":"function"},{"inputs":[{"internalType":"uint32","name":"_id","type":"uint32"},{"internalType":"uint256","name":"_valueInUSD","type":"uint256"}],"name":"claimBalance","outputs":[],"stateMutability":"nonpayable","type":"function"},{"inputs":[],"name":"companyTurnoverTimeLimit","outputs":[{"internalType":"uint256","name":"","type":"uint256"}],"stateMutability":"view","type":"function"},{"inputs":[],"name":"companyTurnoverTimeStamp","outputs":[{"internalType":"uint256","name":"","type":"uint256"}],"stateMutability":"view","type":"function"},{"inputs":[],"name":"companyTurnoverWithTimeLimit","outputs":[{"internalType":"uint256","name":"","type":"uint256"}],"stateMutability":"view","type":"function"},{"inputs":[],"name":"decimals","outputs":[{"internalType":"uint16","name":"","type":"uint16"}],"stateMutability":"view","type":"function"},{"inputs":[{"internalType":"address","name":"_userAddress","type":"address"}],"name":"disableUserAdmin","outputs":[],"stateMutability":"nonpayable","type":"function"},{"inputs":[{"internalType":"uint256","name":"","type":"uint256"}],"name":"disabledUsersList","outputs":[{"internalType":"address","name":"","type":"address"}],"stateMutability":"view","type":"function"},{"inputs":[],"name":"futureScureWalletContribution","outputs":[{"internalType":"uint8","name":"","type":"uint8"}],"stateMutability":"view","type":"function"},{"inputs":[{"internalType":"uint8","name":"_packageId","type":"uint8"}],"name":"getAchieversList","outputs":[{"internalType":"uint32[]","name":"","type":"uint32[]"}],"stateMutability":"view","type":"function"},{"inputs":[{"internalType":"uint32","name":"_id","type":"uint32"}],"name":"getIdAccount","outputs":[{"components":[{"internalType":"uint32","name":"id","type":"uint32"},{"internalType":"string","name":"oldId","type":"string"},{"internalType":"uint256","name":"joiningTime","type":"uint256"},{"internalType":"bool","name":"isAddedToUserList","type":"bool"},{"internalType":"address","name":"owner","type":"address"},{"internalType":"uint32","name":"refererId","type":"uint32"},{"internalType":"bool","name":"hasUpline","type":"bool"},{"internalType":"uint32[]","name":"refereeIds","type":"uint32[]"},{"internalType":"uint32[]","name":"teamIds","type":"uint32[]"},{"internalType":"uint32[]","name":"teamLevel","type":"uint32[]"},{"internalType":"uint256[]","name":"selfBusinessArray","type":"uint256[]"},{"internalType":"uint256","name":"selfBusiness","type":"uint256"},{"internalType":"uint256","name":"selfBusinessOld","type":"uint256"},{"internalType":"uint256","name":"directBusiness","type":"uint256"},{"internalType":"uint256","name":"directBusinessOld","type":"uint256"},{"internalType":"uint256","name":"teamBusiness","type":"uint256"},{"internalType":"uint256","name":"teamBusinessOld","type":"uint256"},{"internalType":"uint256","name":"royaltyClubBusiness","type":"uint256"},{"internalType":"uint256","name":"timeStampRoyaltyClub","type":"uint256"},{"internalType":"uint8","name":"royaltyClubPackageId","type":"uint8"},{"internalType":"uint32","name":"royaltyClubListIndex","type":"uint32"},{"internalType":"uint256","name":"royaltyClubRewardPaid","type":"uint256"},{"internalType":"uint256","name":"topUpIncome","type":"uint256"},{"internalType":"uint256","name":"topUp","type":"uint256"},{"internalType":"uint256","name":"maxLimit","type":"uint256"},{"internalType":"uint256","name":"activationTime","type":"uint256"},{"internalType":"uint256","name":"deactivationTime","type":"uint256"},{"internalType":"uint256","name":"referralPaid","type":"uint256"},{"internalType":"uint32[]","name":"roiIds","type":"uint32[]"},{"internalType":"uint256","name":"roiPaid","type":"uint256"},{"internalType":"uint256","name":"roiClaimedTime","type":"uint256"},{"internalType":"uint256","name":"walletBalance","type":"uint256"},{"internalType":"bool","name":"isActive","type":"bool"},{"internalType":"bool","name":"isROIDisabled","type":"bool"},{"internalType":"bool","name":"isIdVisibilityDisabled","type":"bool"},{"internalType":"bool","name":"canWindraw","type":"bool"}],"internalType":"struct ReferralV4Upgradeable.StructId","name":"","type":"tuple"}],"stateMutability":"view","type":"function"},{"inputs":[{"internalType":"uint32","name":"_id","type":"uint32"}],"name":"getIdLimits","outputs":[{"internalType":"uint256","name":"topUpIncome","type":"uint256"},{"internalType":"uint256","name":"topUp","type":"uint256"},{"internalType":"uint256","name":"maxLimit","type":"uint256"}],"stateMutability":"view","type":"function"},{"inputs":[{"internalType":"uint32","name":"_id","type":"uint32"}],"name":"getIdRoyaltyClubLevel","outputs":[{"internalType":"uint256","name":"","type":"uint256"}],"stateMutability":"view","type":"function"},{"inputs":[],"name":"getMinContributionETH","outputs":[{"internalType":"uint256","name":"","type":"uint256"}],"stateMutability":"view","type":"function"},{"inputs":[{"internalType":"uint8","name":"_packageId","type":"uint8"}],"name":"getRoyaltyClubPackageInfo","outputs":[{"components":[{"internalType":"uint8","name":"packageId","type":"uint8"},{"internalType":"uint256","name":"selfBusiness","type":"uint256"},{"internalType":"uint256","name":"directBusiness","type":"uint256"},{"internalType":"uint256","name":"teamBusiness","type":"uint256"},{"internalType":"string","name":"rankName","type":"string"},{"internalType":"uint256","name":"reward","type":"uint256"},{"internalType":"uint256","name":"businessLimit","type":"uint256"},{"internalType":"uint256","name":"timeLimit","type":"uint256"},{"internalType":"bool","name":"isPayReccursive","type":"bool"},{"internalType":"uint32[]","name":"achieversList","type":"uint32[]"}],"internalType":"struct ReferralV4Upgradeable.StructPackages","name":"","type":"tuple"}],"stateMutability":"view","type":"function"},{"inputs":[{"internalType":"address","name":"_address","type":"address"}],"name":"getUserAccount","outputs":[{"components":[{"internalType":"bool","name":"isActive","type":"bool"},{"internalType":"uint32[]","name":"accountIds","type":"uint32[]"},{"internalType":"string","name":"userName","type":"string"}],"internalType":"struct ReferralV4Upgradeable.StructAccount","name":"","type":"tuple"}],"stateMutability":"view","type":"function"},{"inputs":[{"internalType":"uint32","name":"_id","type":"uint32"}],"name":"getUserUnlockCount","outputs":[{"internalType":"uint256","name":"","type":"uint256"}],"stateMutability":"view","type":"function"},{"inputs":[{"internalType":"uint32","name":"_id","type":"uint32"},{"internalType":"uint256","name":"_value","type":"uint256"}],"name":"increaseIdTopIncome","outputs":[],"stateMutability":"nonpayable","type":"function"},{"inputs":[],"name":"initialize","outputs":[],"stateMutability":"nonpayable","type":"function"},{"inputs":[],"name":"isActivateROI","outputs":[{"internalType":"bool","name":"","type":"bool"}],"stateMutability":"view","type":"function"},{"inputs":[],"name":"isPayReferral","outputs":[{"internalType":"bool","name":"","type":"bool"}],"stateMutability":"view","type":"function"},{"inputs":[],"name":"isPayRoyaltyClubBonus","outputs":[{"internalType":"bool","name":"","type":"bool"}],"stateMutability":"view","type":"function"},{"inputs":[{"internalType":"address","name":"_userAddress","type":"address"}],"name":"isUserDisabledByAdmin","outputs":[{"internalType":"bool","name":"","type":"bool"}],"stateMutability":"view","type":"function"},{"inputs":[{"internalType":"uint256","name":"","type":"uint256"}],"name":"levelRates","outputs":[{"internalType":"uint16","name":"","type":"uint16"}],"stateMutability":"view","type":"function"},{"inputs":[],"name":"maxLevels","outputs":[{"internalType":"uint8","name":"","type":"uint8"}],"stateMutability":"view","type":"function"},{"inputs":[],"name":"minContributionUSD","outputs":[{"internalType":"uint256","name":"","type":"uint256"}],"stateMutability":"view","type":"function"},{"inputs":[],"name":"owner","outputs":[{"internalType":"address","name":"","type":"address"}],"stateMutability":"view","type":"function"},{"inputs":[],"name":"packagesCount","outputs":[{"internalType":"uint8","name":"","type":"uint8"}],"stateMutability":"view","type":"function"},{"inputs":[{"internalType":"uint256","name":"_value","type":"uint256"},{"internalType":"uint32","name":"_id","type":"uint32"}],"name":"payReferralAdmin","outputs":[],"stateMutability":"nonpayable","type":"function"},{"inputs":[],"name":"proxiableUUID","outputs":[{"internalType":"bytes32","name":"","type":"bytes32"}],"stateMutability":"view","type":"function"},{"inputs":[],"name":"renounceOwnership","outputs":[],"stateMutability":"nonpayable","type":"function"},{"inputs":[],"name":"royaltyClubPackageCount","outputs":[{"internalType":"uint8","name":"","type":"uint8"}],"stateMutability":"view","type":"function"},{"inputs":[{"internalType":"address","name":"_address","type":"address"},{"internalType":"uint256","name":"_value","type":"uint256"}],"name":"sendETHAdmin","outputs":[],"stateMutability":"nonpayable","type":"function"},{"inputs":[{"internalType":"uint16","name":"_value","type":"uint16"}],"name":"setLevelDecimals","outputs":[],"stateMutability":"nonpayable","type":"function"},{"inputs":[{"internalType":"uint8[]","name":"_value","type":"uint8[]"}],"name":"setLevelRates","outputs":[],"stateMutability":"nonpayable","type":"function"},{"inputs":[{"internalType":"uint8","name":"_valueDecimals","type":"uint8"}],"name":"setMaxLevelsAdmin","outputs":[],"stateMutability":"nonpayable","type":"function"},{"inputs":[{"internalType":"uint256","name":"_valueInUSD","type":"uint256"}],"name":"setMinContribution","outputs":[],"stateMutability":"nonpayable","type":"function"},{"inputs":[{"internalType":"uint8","name":"packageId","type":"uint8"},{"internalType":"uint256","name":"selfBusiness","type":"uint256"},{"internalType":"uint256","name":"directBusiness","type":"uint256"},{"internalType":"uint256","name":"teamBusiness","type":"uint256"},{"internalType":"string","name":"rankName","type":"string"},{"internalType":"uint256","name":"reward","type":"uint256"},{"internalType":"uint256","name":"businessLimit","type":"uint256"},{"internalType":"uint256","name":"timeLimit","type":"uint256"},{"internalType":"bool","name":"isPayReccursive","type":"bool"}],"name":"setRoyaltyClubPackage","outputs":[],"stateMutability":"nonpayable","type":"function"},{"inputs":[{"internalType":"uint8","name":"_valueDecimals","type":"uint8"}],"name":"setRoyaltyPackageCount","outputs":[],"stateMutability":"nonpayable","type":"function"},{"inputs":[{"internalType":"uint32","name":"_id","type":"uint32"}],"name":"topUpId","outputs":[],"stateMutability":"payable","type":"function"},{"inputs":[],"name":"totalIds","outputs":[{"internalType":"uint32","name":"","type":"uint32"}],"stateMutability":"view","type":"function"},{"inputs":[],"name":"totalReferralPaid","outputs":[{"internalType":"uint256","name":"","type":"uint256"}],"stateMutability":"view","type":"function"},{"inputs":[],"name":"totalRoyaltyClubBonusPaid","outputs":[{"internalType":"uint256","name":"","type":"uint256"}],"stateMutability":"view","type":"function"},{"inputs":[{"internalType":"address","name":"newOwner","type":"address"}],"name":"transferOwnership","outputs":[],"stateMutability":"nonpayable","type":"function"},{"inputs":[{"internalType":"uint32","name":"_id","type":"uint32"},{"internalType":"uint256","name":"_value","type":"uint256"}],"name":"updateIdWhenClaimROI","outputs":[],"stateMutability":"nonpayable","type":"function"},{"inputs":[{"internalType":"uint32","name":"_value","type":"uint32"}],"name":"updateTotalIds","outputs":[],"stateMutability":"nonpayable","type":"function"},{"inputs":[{"internalType":"address","name":"newImplementation","type":"address"}],"name":"upgradeTo","outputs":[],"stateMutability":"nonpayable","type":"function"},{"inputs":[{"internalType":"address","name":"newImplementation","type":"address"},{"internalType":"bytes","name":"data","type":"bytes"}],"name":"upgradeToAndCall","outputs":[],"stateMutability":"payable","type":"function"},{"inputs":[{"internalType":"uint256","name":"","type":"uint256"}],"name":"users","outputs":[{"internalType":"address","name":"","type":"address"}],"stateMutability":"view","type":"function"},{"inputs":[],"name":"withdrawETHAdmin","outputs":[],"stateMutability":"nonpayable","type":"function"},{"inputs":[{"internalType":"address","name":"_tokenAddress","type":"address"},{"internalType":"uint256","name":"_value","type":"uint256"}],"name":"withdrawTokensAdmin","outputs":[],"stateMutability":"nonpayable","type":"function"},{"stateMutability":"payable","type":"receive"}],"evm":{"bytecode":{"linkReferences":{},"object":"60a06040523060805234801561001457600080fd5b50608051615f916200004d600039600081816110c801528181611111015281816118380152818161187801526119ff0152615f916000f3fe6080604052600436106102e85760003560e01c80636f38e41011610190578063a0b6105f116100dc578063cd21364d11610095578063f31a2d0f1161006f578063f31a2d0f1461090d578063f41bfeef1461092d578063fafc959714610943578063fb47e0161461096557600080fd5b8063cd21364d146108ad578063e1c715ba146108cd578063f2fde38b146108ed57600080fd5b8063a0b6105f14610804578063a152b0f014610824578063a28a368614610837578063a43ae4081461085a578063b47181d31461087a578063bcb93f9b1461089a57600080fd5b80638129fc1c116101495780638da5cb5b116101235780638da5cb5b146107905780638f84de85146107ae578063987dd4a7146107c45780639f4e8398146107e457600080fd5b80638129fc1c1461074b578063852ff2fd146107605780638af925dc1461077657600080fd5b80636f38e410146106945780637084431f146106b4578063715018a6146106d35780637879b5ef146106e85780637bdbf996146107085780637c5994861461073557600080fd5b8063390a5ba51161024f5780634e6e93a31161020857806352d1902d116101e257806352d1902d146105f6578063538ffe0c1461060b5780635979369a146106545780636ccc10ae1461067457600080fd5b80634e6e93a3146105885780634f1ef286146105c3578063509d6c52146105d657600080fd5b8063390a5ba5146104b65780633eff2def146104e8578063473b0d4614610508578063498b3e55146105285780634a750822146105485780634b5102b81461056857600080fd5b806322f88b52116102a157806322f88b52146104075780632ed421d21461041d578063313ce5671461043357806335759788146104615780633659cfe614610476578063365b98b21461049657600080fd5b8063012da720146102f45780630b243dad1461032a5780631319cff91461034c57806318e10bff146103845780631f9e65e4146103b757806321009789146103da57600080fd5b366102ef57005b600080fd5b34801561030057600080fd5b5061031461030f366004615320565b610992565b604051610321919061533b565b60405180910390f35b34801561033657600080fd5b5061034a61034536600461539a565b610a27565b005b34801561035857600080fd5b5061036c6103673660046153c6565b610a6a565b6040516001600160a01b039091168152602001610321565b34801561039057600080fd5b5060d5546103a5906301000000900460ff1681565b60405160ff9091168152602001610321565b3480156103c357600080fd5b506103cc610a94565b604051908152602001610321565b3480156103e657600080fd5b506103fa6103f53660046153f1565b610aa6565b60405161032191906154cf565b34801561041357600080fd5b506103cc60d05481565b34801561042957600080fd5b506103cc60d15481565b34801561043f57600080fd5b5060cb5461044e9061ffff1681565b60405161ffff9091168152602001610321565b34801561046d57600080fd5b5061034a611087565b34801561048257600080fd5b5061034a610491366004615767565b6110be565b3480156104a257600080fd5b5061036c6104b13660046153c6565b6111a3565b3480156104c257600080fd5b5060cf546104d39063ffffffff1681565b60405163ffffffff9091168152602001610321565b3480156104f457600080fd5b5061034a610503366004615320565b6111b3565b34801561051457600080fd5b5061034a6105233660046153c6565b6111d9565b34801561053457600080fd5b5061034a610543366004615784565b6111e6565b34801561055457600080fd5b5061034a610563366004615859565b61128c565b34801561057457600080fd5b5061034a610583366004615320565b61133c565b34801561059457600080fd5b506105a86105a33660046153f1565b611364565b60408051938452602084019290925290820152606001610321565b61034a6105d1366004615906565b61182e565b3480156105e257600080fd5b5061034a6105f136600461596a565b6118fa565b34801561060257600080fd5b506103cc6119f2565b34801561061757600080fd5b50610644610626366004615767565b6001600160a01b0316600090815260d6602052604090205460ff1690565b6040519015158152602001610321565b34801561066057600080fd5b5061034a61066f3660046153f1565b611aa5565b34801561068057600080fd5b5061034a61068f36600461596a565b611b49565b3480156106a057600080fd5b5060cb546103a59062010000900460ff1681565b3480156106c057600080fd5b5060d55461064490610100900460ff1681565b3480156106df57600080fd5b5061034a611bf0565b3480156106f457600080fd5b5061044e6107033660046153c6565b611c04565b34801561071457600080fd5b50610728610723366004615320565b611c3c565b6040516103219190615988565b34801561074157600080fd5b506103cc60ce5481565b34801561075757600080fd5b5061034a611e3b565b34801561076c57600080fd5b506103cc60cd5481565b34801561078257600080fd5b5060d5546106449060ff1681565b34801561079c57600080fd5b506033546001600160a01b031661036c565b3480156107ba57600080fd5b506103cc60cc5481565b3480156107d057600080fd5b506103cc6107df3660046153f1565b6120d3565b3480156107f057600080fd5b5061034a6107ff366004615767565b612592565b34801561081057600080fd5b5061034a61081f36600461539a565b61263b565b61034a6108323660046153f1565b6126b4565b34801561084357600080fd5b5060cf546103a59065010000000000900460ff1681565b34801561086657600080fd5b5061034a610875366004615a36565b6128d1565b34801561088657600080fd5b506103cc6108953660046153f1565b6128f1565b61034a6108a83660046153f1565b612dad565b3480156108b957600080fd5b5060d5546103a59062010000900460ff1681565b3480156108d957600080fd5b5061034a6108e8366004615a5a565b61306b565b3480156108f957600080fd5b5061034a610908366004615767565b61307f565b34801561091957600080fd5b5061034a61092836600461596a565b6130f5565b34801561093957600080fd5b506103cc60d25481565b34801561094f57600080fd5b5060cf5461064490640100000000900460ff1681565b34801561097157600080fd5b50610985610980366004615767565b613385565b6040516103219190615acf565b60ff8116600090815260d86020908152604091829020600901805483518184028101840190945280845260609392830182828015610a1b57602002820191906000526020600020906000905b82829054906101000a900463ffffffff1663ffffffff16815260200190600401906020826003010492830192600103820291508084116109de5790505b50505050509050919050565b610a2f6134eb565b6040516001600160a01b0383169082156108fc029083906000818181858888f19350505050158015610a65573d6000803e3d6000fd5b505050565b60d38181548110610a7a57600080fd5b6000918252602090912001546001600160a01b0316905081565b6000610aa160cc54613545565b905090565b610bdc604051806104800160405280600063ffffffff168152602001606081526020016000815260200160001515815260200160006001600160a01b03168152602001600063ffffffff168152602001600015158152602001606081526020016060815260200160608152602001606081526020016000815260200160008152602001600081526020016000815260200160008152602001600081526020016000815260200160008152602001600060ff168152602001600063ffffffff16815260200160008152602001600081526020016000815260200160008152602001600081526020016000815260200160008152602001606081526020016000815260200160008152602001600081526020016000151581526020016000151581526020016000151581526020016000151581525090565b63ffffffff808316600090815260d76020908152604091829020825161048081019093528054909316825260018301805492939291840191610c1d90615b14565b80601f0160208091040260200160405190810160405280929190818152602001828054610c4990615b14565b8015610c965780601f10610c6b57610100808354040283529160200191610c96565b820191906000526020600020905b815481529060010190602001808311610c7957829003601f168201915b50505091835250506002820154602080830191909152600383015460ff80821615156040808601919091526001600160a01b03610100840416606086015263ffffffff600160a81b8404166080860152600160c81b90920416151560a084015260048401805482518185028101850190935280835260c0909401939192909190830182828015610d7157602002820191906000526020600020906000905b82829054906101000a900463ffffffff1663ffffffff1681526020019060040190602082600301049283019260010382029150808411610d345790505b5050505050815260200160058201805480602002602001604051908101604052809291908181526020018280548015610df557602002820191906000526020600020906000905b82829054906101000a900463ffffffff1663ffffffff1681526020019060040190602082600301049283019260010382029150808411610db85790505b5050505050815260200160068201805480602002602001604051908101604052809291908181526020018280548015610e7957602002820191906000526020600020906000905b82829054906101000a900463ffffffff1663ffffffff1681526020019060040190602082600301049283019260010382029150808411610e3c5790505b5050505050815260200160078201805480602002602001604051908101604052809291908181526020018280548015610ed157602002820191906000526020600020905b815481526020019060010190808311610ebd575b505050918352505060088201546020808301919091526009830154604080840191909152600a8401546060840152600b8401546080840152600c84015460a0840152600d84015460c0840152600e84015460e0840152600f84015461010080850191909152601085015460ff81166101208601520463ffffffff166101408401526011840154610160840152601284015461018084015260138401546101a084015260148401546101c084015260158401546101e08401526016840154610200840152601784015461022084015260188401805482518185028101850190935280835261024090940193919290919083018282801561101b57602002820191906000526020600020906000905b82829054906101000a900463ffffffff1663ffffffff1681526020019060040190602082600301049283019260010382029150808411610fde5790505b505050918352505060198201546020820152601a8201546040820152601b8201546060820152601c9091015460ff8082161515608084015261010082048116151560a08401526201000082048116151560c0840152630100000090910416151560e09091015292915050565b61108f6134eb565b60405133904780156108fc02916000818181858888f193505050501580156110bb573d6000803e3d6000fd5b50565b6001600160a01b037f000000000000000000000000000000000000000000000000000000000000000016300361110f5760405162461bcd60e51b815260040161110690615b4e565b60405180910390fd5b7f00000000000000000000000000000000000000000000000000000000000000006001600160a01b0316611158600080516020615f15833981519152546001600160a01b031690565b6001600160a01b03161461117e5760405162461bcd60e51b815260040161110690615b9a565b6111878161363c565b604080516000808252602082019092526110bb91839190613644565b60d48181548110610a7a57600080fd5b6111bb6134eb565b60cb805460ff909216620100000262ff000019909216919091179055565b6111e16134eb565b60cc55565b60c954604051630935e01b60e21b81523360048201526001600160a01b03909116906324d7806c90602401602060405180830381865afa15801561122e573d6000803e3d6000fd5b505050506040513d601f19601f820116820180604052508101906112529190615be6565b61126e5760405162461bcd60e51b815260040161110690615c03565b60d554610100900460ff16156112885761128882826137af565b5050565b6112946134eb565b60ff8916600081815260d860205260409020805460ff19169091178155600181018990556002810188905560038101879055600481016112d48782615c7d565b5060058101859055600681018490556007810183905560088101805460ff191683151517905560405160ff8b1681527f9a2f17868083013e19d4c26d2af13543606bc680c21c994d7648d3a0510164c99060200160405180910390a150505050505050505050565b6113446134eb565b60d5805460ff90921663010000000263ff00000019909216919091179055565b63ffffffff808216600090815260d7602090815260408083208151610480810190925280549094168152600184018054939485948594859493908401916113aa90615b14565b80601f01602080910402602001604051908101604052809291908181526020018280546113d690615b14565b80156114235780601f106113f857610100808354040283529160200191611423565b820191906000526020600020905b81548152906001019060200180831161140657829003601f168201915b50505091835250506002820154602080830191909152600383015460ff80821615156040808601919091526001600160a01b03610100840416606086015263ffffffff600160a81b8404166080860152600160c81b90920416151560a084015260048401805482518185028101850190935280835260c09094019391929091908301828280156114fe57602002820191906000526020600020906000905b82829054906101000a900463ffffffff1663ffffffff16815260200190600401906020826003010492830192600103820291508084116114c15790505b505050505081526020016005820180548060200260200160405190810160405280929190818152602001828054801561158257602002820191906000526020600020906000905b82829054906101000a900463ffffffff1663ffffffff16815260200190600401906020826003010492830192600103820291508084116115455790505b505050505081526020016006820180548060200260200160405190810160405280929190818152602001828054801561160657602002820191906000526020600020906000905b82829054906101000a900463ffffffff1663ffffffff16815260200190600401906020826003010492830192600103820291508084116115c95790505b505050505081526020016007820180548060200260200160405190810160405280929190818152602001828054801561165e57602002820191906000526020600020905b81548152602001906001019080831161164a575b505050918352505060088201546020808301919091526009830154604080840191909152600a8401546060840152600b8401546080840152600c84015460a0840152600d84015460c0840152600e84015460e0840152600f84015461010080850191909152601085015460ff81166101208601520463ffffffff166101408401526011840154610160840152601284015461018084015260138401546101a084015260148401546101c084015260158401546101e0840152601684015461020084015260178401546102208401526018840180548251818502810185019093528083526102409094019391929091908301828280156117a857602002820191906000526020600020906000905b82829054906101000a900463ffffffff1663ffffffff168152602001906004019060208260030104928301926001038202915080841161176b5790505b505050918352505060198201546020820152601a8201546040820152601b8201546060820152601c9091015460ff8082161515608084015261010082048116151560a08401526201000082048116151560c0840152630100000090910416151560e0909101526102c08101516102e0820151610300909201519097919650945092505050565b6001600160a01b037f00000000000000000000000000000000000000000000000000000000000000001630036118765760405162461bcd60e51b815260040161110690615b4e565b7f00000000000000000000000000000000000000000000000000000000000000006001600160a01b03166118bf600080516020615f15833981519152546001600160a01b031690565b6001600160a01b0316146118e55760405162461bcd60e51b815260040161110690615b9a565b6118ee8261363c565b61128882826001613644565b60c954604051630935e01b60e21b81523360048201526001600160a01b03909116906324d7806c90602401602060405180830381865afa158015611942573d6000803e3d6000fd5b505050506040513d601f19601f820116820180604052508101906119669190615be6565b6119825760405162461bcd60e51b815260040161110690615c03565b63ffffffff8216600090815260d76020526040812042601a820155601981018054919284926119b2908490615d53565b92505081905550818160120160008282546119cd9190615d53565b925050819055508181601b0160008282546119e89190615d53565b9091555050505050565b6000306001600160a01b037f00000000000000000000000000000000000000000000000000000000000000001614611a925760405162461bcd60e51b815260206004820152603860248201527f555550535570677261646561626c653a206d757374206e6f742062652063616c60448201527f6c6564207468726f7567682064656c656761746563616c6c00000000000000006064820152608401611106565b50600080516020615f1583398151915290565b60c954604051630935e01b60e21b81523360048201526001600160a01b03909116906324d7806c90602401602060405180830381865afa158015611aed573d6000803e3d6000fd5b505050506040513d601f19601f82011682018060405250810190611b119190615be6565b611b2d5760405162461bcd60e51b815260040161110690615c03565b60cf805463ffffffff191663ffffffff92909216919091179055565b60c954604051630935e01b60e21b81523360048201526001600160a01b03909116906324d7806c90602401602060405180830381865afa158015611b91573d6000803e3d6000fd5b505050506040513d601f19601f82011682018060405250810190611bb59190615be6565b611bd15760405162461bcd60e51b815260040161110690615c03565b63ffffffff8216600090815260d760205260409020610a658183613ee6565b611bf86134eb565b611c026000613f70565b565b60ca8181548110611c1457600080fd5b9060005260206000209060109182820401919006600202915054906101000a900461ffff1681565b611c97604051806101400160405280600060ff16815260200160008152602001600081526020016000815260200160608152602001600081526020016000815260200160008152602001600015158152602001606081525090565b60ff808316600090815260d860209081526040918290208251610140810184528154909416845260018101549184019190915260028101549183019190915260038101546060830152600481018054608084019190611cf590615b14565b80601f0160208091040260200160405190810160405280929190818152602001828054611d2190615b14565b8015611d6e5780601f10611d4357610100808354040283529160200191611d6e565b820191906000526020600020905b815481529060010190602001808311611d5157829003601f168201915b505050505081526020016005820154815260200160068201548152602001600782015481526020016008820160009054906101000a900460ff1615151515815260200160098201805480602002602001604051908101604052809291908181526020018280548015611e2b57602002820191906000526020600020906000905b82829054906101000a900463ffffffff1663ffffffff1681526020019060040190602082600301049283019260010382029150808411611dee5790505b5050505050815250509050919050565b600054610100900460ff1615808015611e5b5750600054600160ff909116105b80611e755750303b158015611e75575060005460ff166001145b611ed85760405162461bcd60e51b815260206004820152602e60248201527f496e697469616c697a61626c653a20636f6e747261637420697320616c72656160448201526d191e481a5b9a5d1a585b1a5e995960921b6064820152608401611106565b6000805460ff191660011790558015611efb576000805461ff0019166101001790555b60c980546001600160a01b031916737ecf19c95f2639cf0183639dba852fade713eefc17905560cb805461ffff19166103e8179055604080516103a08101825260648152604660208201526032918101829052606081018290526080810182905260a0810182905260c0810182905260e08101829052610100810182905261012081018290526101408101829052610160810182905261018081018290526101a081018290526101c081018290526101e08101829052610200810182905261022081018290526102408101919091526014610260820181905261028082018190526102a082018190526102c082018190526102e0820181905261030082018190526103208201819052610340820181905261036082018190526103808201526120289060ca90601d615145565b5060cb805462ff000019166232000017905568056bc75e2d6310000060cc5560cf8054660200000000000066ff00ff000000001990911617905560d5805462278d0060d25562ffffff191662140101179055612082613fc2565b61208a613ff1565b80156110bb576000805461ff0019169055604051600181527f7f26b83ff96e1f2b6a682f133852f6798a09c465da95921460cefb3847402498906020015b60405180910390a150565b63ffffffff808216600090815260d76020908152604080832081516104808101909252805490941681526001840180549394859492939092908401919061211990615b14565b80601f016020809104026020016040519081016040528092919081815260200182805461214590615b14565b80156121925780601f1061216757610100808354040283529160200191612192565b820191906000526020600020905b81548152906001019060200180831161217557829003601f168201915b50505091835250506002820154602080830191909152600383015460ff80821615156040808601919091526001600160a01b03610100840416606086015263ffffffff600160a81b8404166080860152600160c81b90920416151560a084015260048401805482518185028101850190935280835260c090940193919290919083018282801561226d57602002820191906000526020600020906000905b82829054906101000a900463ffffffff1663ffffffff16815260200190600401906020826003010492830192600103820291508084116122305790505b50505050508152602001600582018054806020026020016040519081016040528092919081815260200182805480156122f157602002820191906000526020600020906000905b82829054906101000a900463ffffffff1663ffffffff16815260200190600401906020826003010492830192600103820291508084116122b45790505b505050505081526020016006820180548060200260200160405190810160405280929190818152602001828054801561237557602002820191906000526020600020906000905b82829054906101000a900463ffffffff1663ffffffff16815260200190600401906020826003010492830192600103820291508084116123385790505b50505050508152602001600782018054806020026020016040519081016040528092919081815260200182805480156123cd57602002820191906000526020600020905b8154815260200190600101908083116123b9575b505050918352505060088201546020808301919091526009830154604080840191909152600a8401546060840152600b8401546080840152600c84015460a0840152600d84015460c0840152600e84015460e0840152600f84015461010080850191909152601085015460ff81166101208601520463ffffffff166101408401526011840154610160840152601284015461018084015260138401546101a084015260148401546101c084015260158401546101e08401526016840154610200840152601784015461022084015260188401805482518185028101850190935280835261024090940193919290919083018282801561251757602002820191906000526020600020906000905b82829054906101000a900463ffffffff1663ffffffff16815260200190600401906020826003010492830192600103820291508084116124da5790505b505050918352505060198201546020820152601a8201546040820152601b8201546060820152601c9091015460ff8082161515608084015261010082048116151560a08401526201000082048116151560c0840152630100000090910416151560e090910152905061258881614018565b60ff169392505050565b60c954604051630935e01b60e21b81523360048201526001600160a01b03909116906324d7806c90602401602060405180830381865afa1580156125da573d6000803e3d6000fd5b505050506040513d601f19601f820116820180604052508101906125fe9190615be6565b61261a5760405162461bcd60e51b815260040161110690615c03565b6001600160a01b0316600090815260d660205260409020805460ff19169055565b6126436134eb565b60405163a9059cbb60e01b8152336004820152602481018290526001600160a01b0383169063a9059cbb906044016020604051808303816000875af1158015612690573d6000803e3d6000fd5b505050506040513d601f19601f82011682018060405250810190610a659190615be6565b3460006126c0826140cd565b905060cc548110156127145760405162461bcd60e51b815260206004820152601f60248201527f56616c7565206c657373207468656e206d696e436f6e747269627574696f6e006044820152606401611106565b63ffffffff8316600090815260d7602052604081203391429190612739856003615d66565b8260120154836014015461274d9190615d7d565b6127579190615d53565b905061277c828589600089868960cb60029054906101000a900460ff1660ff166141bb565b60d55460ff16156128c85760c954604080516344846f9d60e11b815290516000926001600160a01b031691638908df3a9160048083019260209291908290030181865afa1580156127d1573d6000803e3d6000fd5b505050506040513d601f19601f820116820180604052508101906127f59190615d90565b6001600160a01b03166398c7438e8961280f600386615dad565b6040516001600160e01b031960e085901b16815263ffffffff9290921660048301526024820152604481018790526064016020604051808303816000875af115801561285f573d6000803e3d6000fd5b505050506040513d601f19601f820116820180604052508101906128839190615dcf565b601884018054600181018255600091825260209091206008820401805460079092166004026101000a63ffffffff818102199093169390921691909102919091179055505b50505050505050565b6128d96134eb565b60cb805461ffff191661ffff92909216919091179055565b63ffffffff808216600090815260d76020908152604080832081516104808101909252805490941681526001840180549394859492939092908401919061293790615b14565b80601f016020809104026020016040519081016040528092919081815260200182805461296390615b14565b80156129b05780601f10612985576101008083540402835291602001916129b0565b820191906000526020600020905b81548152906001019060200180831161299357829003601f168201915b50505091835250506002820154602080830191909152600383015460ff80821615156040808601919091526001600160a01b03610100840416606086015263ffffffff600160a81b8404166080860152600160c81b90920416151560a084015260048401805482518185028101850190935280835260c0909401939192909190830182828015612a8b57602002820191906000526020600020906000905b82829054906101000a900463ffffffff1663ffffffff1681526020019060040190602082600301049283019260010382029150808411612a4e5790505b5050505050815260200160058201805480602002602001604051908101604052809291908181526020018280548015612b0f57602002820191906000526020600020906000905b82829054906101000a900463ffffffff1663ffffffff1681526020019060040190602082600301049283019260010382029150808411612ad25790505b5050505050815260200160068201805480602002602001604051908101604052809291908181526020018280548015612b9357602002820191906000526020600020906000905b82829054906101000a900463ffffffff1663ffffffff1681526020019060040190602082600301049283019260010382029150808411612b565790505b5050505050815260200160078201805480602002602001604051908101604052809291908181526020018280548015612beb57602002820191906000526020600020905b815481526020019060010190808311612bd7575b505050918352505060088201546020808301919091526009830154604080840191909152600a8401546060840152600b8401546080840152600c84015460a0840152600d84015460c0840152600e84015460e0840152600f84015461010080850191909152601085015460ff81166101208601520463ffffffff166101408401526011840154610160840152601284015461018084015260138401546101a084015260148401546101c084015260158401546101e084015260168401546102008401526017840154610220840152601884018054825181850281018501909352808352610240909401939192909190830182828015612d3557602002820191906000526020600020906000905b82829054906101000a900463ffffffff1663ffffffff1681526020019060040190602082600301049283019260010382029150808411612cf85790505b505050918352505060198201546020820152601a8201546040820152601b8201546060820152601c9091015460ff8082161515608084015261010082048116151560a08401526201000082048116151560c0840152630100000090910416151560e0909101529050612da6816144de565b9392505050565b346000612db9826140cd565b905060cc54811015612e0d5760405162461bcd60e51b815260206004820152601f60248201527f56616c7565206c657373207468656e206d696e436f6e747269627574696f6e006044820152606401611106565b60cf5433904290600090612e289063ffffffff166001615dec565b6001600160a01b038416600090815260d66020908152604080832063ffffffff8516845260d790925282209293509190612e63876003615d66565b82601201548360140154612e779190615d7d565b612e819190615d53565b9050612ea58287868c8b868b60cb60029054906101000a900460ff1660ff166141bb565b60d55460ff1615612ff15760c954604080516344846f9d60e11b815290516000926001600160a01b031691638908df3a9160048083019260209291908290030181865afa158015612efa573d6000803e3d6000fd5b505050506040513d601f19601f82011682018060405250810190612f1e9190615d90565b6001600160a01b03166398c7438e86612f38600386615dad565b6040516001600160e01b031960e085901b16815263ffffffff9290921660048301526024820152604481018990526064016020604051808303816000875af1158015612f88573d6000803e3d6000fd5b505050506040513d601f19601f82011682018060405250810190612fac9190615dcf565b601884018054600181018255600091825260209091206008820401805460079092166004026101000a63ffffffff818102199093169390921691909102919091179055505b6001838101805491820181556000908152602081206008830401805460079093166004026101000a63ffffffff818102199094168885169190910217905560cf8054909216919061304183615e10565b91906101000a81548163ffffffff021916908363ffffffff16021790555050505050505050505050565b6130736134eb565b610a6560ca83836151ed565b6130876134eb565b6001600160a01b0381166130ec5760405162461bcd60e51b815260206004820152602660248201527f4f776e61626c653a206e6577206f776e657220697320746865207a65726f206160448201526564647265737360d01b6064820152608401611106565b6110bb81613f70565b63ffffffff8216600090815260d760205260409020600381015461010090046001600160a01b0316331461316b5760405162461bcd60e51b815260206004820152601d60248201527f596f7520617265206e6f74206f776e6572206f6620746869732069642e0000006044820152606401611106565b80601b01548210156131bf5760405162461bcd60e51b815260206004820152601b60248201527f76616c75652067726561746572207468616e2062616c616e63652e00000000006044820152606401611106565b601c8101546301000000900460ff1661321a5760405162461bcd60e51b815260206004820152601760248201527f5769746864726177206973206e6f7420656e61626c65640000000000000000006044820152606401611106565b8181601b01600082825461322e9190615d7d565b909155505060d55460009060649061324f9062010000900460ff1685615d66565b6132599190615dad565b905060c960009054906101000a90046001600160a01b03166001600160a01b031662f9cc666040518163ffffffff1660e01b8152600401602060405180830381865afa1580156132ad573d6000803e3d6000fd5b505050506040513d601f19601f820116820180604052508101906132d19190615d90565b6003830154604051633528777d60e11b81526001600160a01b036101009092048216600482015260248101849052911690636a50eefa90604401600060405180830381600087803b15801561332557600080fd5b505af1158015613339573d6000803e3d6000fd5b503392506108fc915061335690506133518487615d7d565b613545565b6040518115909202916000818181858888f1935050505015801561337e573d6000803e3d6000fd5b5050505050565b6133ab604051806060016040528060001515815260200160608152602001606081525090565b6001600160a01b038216600090815260d660209081526040918290208251606081018452815460ff16151581526001820180548551818602810186019096528086529194929385810193929083018282801561345257602002820191906000526020600020906000905b82829054906101000a900463ffffffff1663ffffffff16815260200190600401906020826003010492830192600103820291508084116134155790505b5050505050815260200160028201805461346b90615b14565b80601f016020809104026020016040519081016040528092919081815260200182805461349790615b14565b8015611e2b5780601f106134b957610100808354040283529160200191611e2b565b820191906000526020600020905b8154815290600101906020018083116134c757505050919092525091949350505050565b6033546001600160a01b03163314611c025760405162461bcd60e51b815260206004820181905260248201527f4f776e61626c653a2063616c6c6572206973206e6f7420746865206f776e65726044820152606401611106565b60008060c960009054906101000a90046001600160a01b03166001600160a01b0316632913497b6040518163ffffffff1660e01b8152600401602060405180830381865afa15801561359b573d6000803e3d6000fd5b505050506040513d601f19601f820116820180604052508101906135bf9190615d90565b6001600160a01b031663e1aa60366040518163ffffffff1660e01b8152600401602060405180830381865afa1580156135fc573d6000803e3d6000fd5b505050506040513d601f19601f820116820180604052508101906136209190615e33565b61363284670de0b6b3a7640000615d66565b612da69190615dad565b6110bb6134eb565b7f4910fdfa16fed3260ed0e7147f7cc6da11a60208b5b9406d12a635614ffd91435460ff161561367757610a658361451d565b826001600160a01b03166352d1902d6040518163ffffffff1660e01b8152600401602060405180830381865afa9250505080156136d1575060408051601f3d908101601f191682019092526136ce91810190615e33565b60015b6137345760405162461bcd60e51b815260206004820152602e60248201527f45524331393637557067726164653a206e657720696d706c656d656e7461746960448201526d6f6e206973206e6f74205555505360901b6064820152608401611106565b600080516020615f1583398151915281146137a35760405162461bcd60e51b815260206004820152602960248201527f45524331393637557067726164653a20756e737570706f727465642070726f786044820152681a58589b195555525160ba1b6064820152608401611106565b50610a658383836145b9565b600060ca80548060200260200160405190810160405280929190818152602001828054801561382557602002820191906000526020600020906000905b82829054906101000a900461ffff1661ffff16815260200190600201906020826001010492830192600103820291508084116137ec5790505b5050835163ffffffff8716600090815260d7602052604081209596509094935091508190505b8360ff168160ff161015613ec657600383015463ffffffff600160a81b9091048116600081815260d76020526040812080549293909216900361388f575050613ec6565b613898816145e4565b156139105760405172149959995c995c881a5cc8111a5cd8589b1959606a1b81526013015b6040519081900390206138d1846001615e4c565b60ff168363ffffffff167f915ed47901013ad29e90ede828f72888f54bd58cea141b0c6967498165382eb560405160405180910390a49350613eb49050565b604080516104808101909152815463ffffffff168152600182018054613dab9291849160208401919061394290615b14565b80601f016020809104026020016040519081016040528092919081815260200182805461396e90615b14565b80156139bb5780601f10613990576101008083540402835291602001916139bb565b820191906000526020600020905b81548152906001019060200180831161399e57829003601f168201915b50505091835250506002820154602080830191909152600383015460ff80821615156040808601919091526001600160a01b03610100840416606086015263ffffffff600160a81b8404166080860152600160c81b90920416151560a084015260048401805482518185028101850190935280835260c0909401939192909190830182828015613a9657602002820191906000526020600020906000905b82829054906101000a900463ffffffff1663ffffffff1681526020019060040190602082600301049283019260010382029150808411613a595790505b5050505050815260200160058201805480602002602001604051908101604052809291908181526020018280548015613b1a57602002820191906000526020600020906000905b82829054906101000a900463ffffffff1663ffffffff1681526020019060040190602082600301049283019260010382029150808411613add5790505b5050505050815260200160068201805480602002602001604051908101604052809291908181526020018280548015613b9e57602002820191906000526020600020906000905b82829054906101000a900463ffffffff1663ffffffff1681526020019060040190602082600301049283019260010382029150808411613b615790505b5050505050815260200160078201805480602002602001604051908101604052809291908181526020018280548015613bf657602002820191906000526020600020905b815481526020019060010190808311613be2575b505050918352505060088201546020808301919091526009830154604080840191909152600a8401546060840152600b8401546080840152600c84015460a0840152600d84015460c0840152600e84015460e0840152600f84015461010080850191909152601085015460ff81166101208601520463ffffffff166101408401526011840154610160840152601284015461018084015260138401546101a084015260148401546101c084015260158401546101e084015260168401546102008401526017840154610220840152601884018054825181850281018501909352808352610240909401939192909190830182828015613d4057602002820191906000526020600020906000905b82829054906101000a900463ffffffff1663ffffffff1681526020019060040190602082600301049283019260010382029150808411613d035790505b505050918352505060198201546020820152601a8201546040820152601b8201546060820152601c9091015460ff8082161515608084015261010082048116151560a08401526201000082048116151560c0840152630100000090910416151560e0909101526144de565b613db6846001615e4c565b60ff161115613ded576040517f446f776e6c696e65206c6576656c73206c696d697420726561636865640000008152601d016138bd565b60cb54875160009161ffff1690899060ff8716908110613e0f57613e0f615e65565b602002602001015161ffff168b613e269190615d66565b613e309190615dad565b905080826017016000828254613e469190615d53565b90915550613e5690508282613ee6565b613e608186615d53565b94508063ffffffff808516908b167ff8fb9b5ab69a0208214661678427c6b48abf457f53605d1f559d17452f1eea11613e9a886001615e4c565b60405160ff909116815260200160405180910390a4509350505b80613ebe81615e7b565b91505061384b565b508060ce6000828254613ed99190615d53565b9091555050505050505050565b8160140154818360120154613efb9190615d53565b11613f3a5780826012016000828254613f149190615d53565b925050819055508082601b016000828254613f2f9190615d53565b909155506112889050565b81601201548260140154613f4e9190615d7d565b82601b016000828254613f619190615d53565b90915550611288905082614765565b603380546001600160a01b038381166001600160a01b0319831681179093556040519116919082907f8be0079c531659141344cd1fd0a4f28419497f9722a3daafe3b4186f6b6457e090600090a35050565b600054610100900460ff16613fe95760405162461bcd60e51b815260040161110690615e9a565b611c0261480d565b600054610100900460ff16611c025760405162461bcd60e51b815260040161110690615e9a565b60d5546000906301000000900460ff16815b8160ff168160ff1610156140c65760ff8116600090815260d860205260409020600101546101608501511080159061407c575060ff8116600090815260d860205260409020600201546101a085015110155b80156140a2575060ff8116600090815260d860205260409020600301546101e085015110155b156140af578092506140b4565b6140c6565b806140be81615e7b565b91505061402a565b5050919050565b600080670de0b6b3a764000060c960009054906101000a90046001600160a01b03166001600160a01b0316632913497b6040518163ffffffff1660e01b8152600401602060405180830381865afa15801561412c573d6000803e3d6000fd5b505050506040513d601f19601f820116820180604052508101906141509190615d90565b6001600160a01b031663e1aa60366040518163ffffffff1660e01b8152600401602060405180830381865afa15801561418d573d6000803e3d6000fd5b505050506040513d601f19601f820116820180604052508101906141b19190615e33565b6136329085615d66565b875463ffffffff166000036141de57875463ffffffff191663ffffffff87161788555b601c88015460ff166141fa57601c8801805460ff191660011790555b600388015460ff166142525760d480546001810182556000919091527f9780e26d96b1f2a9a18ef8fc72d589dbf03ef788137b64f43897e83a91e7feec0180546001600160a01b0319166001600160a01b0389161790555b600388015461010090046001600160a01b031661428c57600388018054610100600160a81b0319166101006001600160a01b038a16021790555b87600201546000036142a057600288018290555b6003880154600160c81b900460ff166142e45760038801805460ff60c81b1963ffffffff8816600160a81b021664ffffffffff60a81b1990911617600160c81b1790555b600060128901556142f6600384615dad565b6013890155601488018390556007880180546001810182556000918252602082200185905560088901805486929061432f908490615d53565b909155505060158801829055604080516000815260208101918290525161435a9160188b0191615258565b5060005b818160ff1610156144d357600389015463ffffffff600160a81b9091048116600081815260d76020526040812080549293909216900361439f5750506144d3565b8260ff16600003614401578681600a0160008282546143be9190615d53565b909155505060048181018054600181018255600091825260209091206008820401805460079092169092026101000a63ffffffff81810219909216918c16021790555b8681600c0160008282546144159190615d53565b909155505063ffffffff881615614495576005810180546001810182556000918252602082206008820401805460079092166004026101000a63ffffffff818102199093168d841691820217909155835460405190831693928c16927f3ec54e926fe5dd86406fe57832ff318517aed2a5cfbeacfb90a5e9489483ae4b91a45b60cf54640100000000900460ff16156144b3576144b381888761483d565b6144bd8786614f97565b99508190506144cb81615e7b565b91505061435e565b505050505050505050565b60e081015151600090818115612da65760cf5460019061450b906601000000000000900460ff1684615d66565b6145159190615d7d565b949350505050565b6001600160a01b0381163b61458a5760405162461bcd60e51b815260206004820152602d60248201527f455243313936373a206e657720696d706c656d656e746174696f6e206973206e60448201526c1bdd08184818dbdb9d1c9858dd609a1b6064820152608401611106565b600080516020615f1583398151915280546001600160a01b0319166001600160a01b0392909216919091179055565b6145c283614fd1565b6000825111806145cf5750805b15610a65576145de8383615011565b50505050565b601c81015460009060ff16158061460357508160140154826012015410155b1561461057506001919050565b601882015415801590614750575060c960009054906101000a90046001600160a01b03166001600160a01b0316638908df3a6040518163ffffffff1660e01b8152600401602060405180830381865afa158015614671573d6000803e3d6000fd5b505050506040513d601f19601f820116820180604052508101906146959190615d90565b6001600160a01b03166355332a8583601801600185601801805490506146bb9190615d7d565b815481106146cb576146cb615e65565b6000918252602090912060088204015460405160e084901b6001600160e01b0319168152600790921660049081026101000a90910463ffffffff1690820152602401602060405180830381865afa15801561472a573d6000803e3d6000fd5b505050506040513d601f19601f8201168201806040525081019061474e9190615be6565b155b1561475d57506001919050565b506000919050565b601c8101805460ff191690556040805160008152602081019182905251614790916018840191615258565b5060006012820181905560138201819055601482015542601682015580546040805163ffffffff9092168252602082018190526011908201527013585e08131a5b5a5d0814995858da1959607a1b60608201527fce8ab8f2ac6a94861f9740fa1fed3e6d13a85dfd8a4833bf96f3a0055ba7fb6f906080016120c8565b600054610100900460ff166148345760405162461bcd60e51b815260040161110690615e9a565b611c0233613f70565b6010830154604080516104808101909152845463ffffffff16815260018501805460ff90931692614ce39291879160208401919061487a90615b14565b80601f01602080910402602001604051908101604052809291908181526020018280546148a690615b14565b80156148f35780601f106148c8576101008083540402835291602001916148f3565b820191906000526020600020905b8154815290600101906020018083116148d657829003601f168201915b50505091835250506002820154602080830191909152600383015460ff80821615156040808601919091526001600160a01b03610100840416606086015263ffffffff600160a81b8404166080860152600160c81b90920416151560a084015260048401805482518185028101850190935280835260c09094019391929091908301828280156149ce57602002820191906000526020600020906000905b82829054906101000a900463ffffffff1663ffffffff16815260200190600401906020826003010492830192600103820291508084116149915790505b5050505050815260200160058201805480602002602001604051908101604052809291908181526020018280548015614a5257602002820191906000526020600020906000905b82829054906101000a900463ffffffff1663ffffffff1681526020019060040190602082600301049283019260010382029150808411614a155790505b5050505050815260200160068201805480602002602001604051908101604052809291908181526020018280548015614ad657602002820191906000526020600020906000905b82829054906101000a900463ffffffff1663ffffffff1681526020019060040190602082600301049283019260010382029150808411614a995790505b5050505050815260200160078201805480602002602001604051908101604052809291908181526020018280548015614b2e57602002820191906000526020600020905b815481526020019060010190808311614b1a575b505050918352505060088201546020808301919091526009830154604080840191909152600a8401546060840152600b8401546080840152600c84015460a0840152600d84015460c0840152600e84015460e0840152600f84015461010080850191909152601085015460ff81166101208601520463ffffffff166101408401526011840154610160840152601284015461018084015260138401546101a084015260148401546101c084015260158401546101e084015260168401546102008401526017840154610220840152601884018054825181850281018501909352808352610240909401939192909190830182828015614c7857602002820191906000526020600020906000905b82829054906101000a900463ffffffff1663ffffffff1681526020019060040190602082600301049283019260010382029150808411614c3b5790505b505050918352505060198201546020820152601a8201546040820152601b8201546060820152601c9091015460ff8082161515608084015261010082048116151560a08401526201000082048116151560c0840152630100000090910416151560e090910152614018565b60ff161115610a6557604080516104808101909152835463ffffffff168152600184018054614d1e9291869160208401919061487a90615b14565b60108401805460ff191660ff9283169081178255600090815260d860209081526040808320885460099182018054600181810183559187529486206008860401805463ffffffff60079097166004026101000a8781021990911696909316909202949094179055935490941682529290200154614d9b9190615d7d565b60108401805464ffffffff0019811661010063ffffffff948516810291821793849055875460408051918716825291909404909416602084015260ff918216911617918101919091527f4d3af8f60ffd033b575846f894122f2342b39bc9a90da98d0a966128702b568d9060600160405180910390a1604080516104808101909152835463ffffffff16815260018401805460d892600092614e47928891602084019161487a90615b14565b60ff90811682526020820192909252604001600020600801541615614f0657604080516104808101909152835463ffffffff16815260018401805460d892600092614e9c928891602084019161487a90615b14565b60ff1660ff1681526020019081526020016000206007015483600f0154614ec39190615d53565b811115614ef2578083600f01819055508183600e016000828254614ee79190615d53565b90915550610a659050565b8183600e016000828254614ee79190615d53565b60cf54640100000000900460ff1615610a6557601083015460ff16600090815260d86020526040902060050154614f3e908490613ee6565b601083015460ff908116600090815260d8602052604080822060058101549054875492519194169263ffffffff909216917fdeaf5b294f5016988108257045fc779d7d01e05a4ecdc4df70f62d5a799e053b91a4505050565b60d25460d154614fa79190615d53565b811115614fb65760d15560d055565b8160d06000828254614fc89190615d53565b90915550505050565b614fda8161451d565b6040516001600160a01b038216907fbc7cd75a20ee27fd9adebab32041f755214dbc6bffa90cc0225b39da2e5c2d3b90600090a250565b60606001600160a01b0383163b6150795760405162461bcd60e51b815260206004820152602660248201527f416464726573733a2064656c65676174652063616c6c20746f206e6f6e2d636f6044820152651b9d1c9858dd60d21b6064820152608401611106565b600080846001600160a01b0316846040516150949190615ee5565b600060405180830381855af49150503d80600081146150cf576040519150601f19603f3d011682016040523d82523d6000602084013e6150d4565b606091505b50915091506150fc8282604051806060016040528060278152602001615f3560279139615107565b925050505b92915050565b60608315615116575081612da6565b612da6838381511561512b5781518083602001fd5b8060405162461bcd60e51b81526004016111069190615f01565b82805482825590600052602060002090600f016010900481019282156151dd5791602002820160005b838211156151ad57835183826101000a81548161ffff021916908360ff160217905550926020019260020160208160010104928301926001030261516e565b80156151db5782816101000a81549061ffff02191690556002016020816001010492830192600103026151ad565b505b506151e99291506152f5565b5090565b82805482825590600052602060002090600f016010900481019282156151dd5791602002820160005b838211156151ad57833560ff1683826101000a81548161ffff021916908360ff1602179055509260200192600201602081600101049283019260010302615216565b828054828255906000526020600020906007016008900481019282156151dd5791602002820160005b838211156152c557835183826101000a81548163ffffffff021916908363ffffffff1602179055509260200192600401602081600301049283019260010302615281565b80156151db5782816101000a81549063ffffffff02191690556004016020816003010492830192600103026152c5565b5b808211156151e957600081556001016152f6565b803560ff8116811461531b57600080fd5b919050565b60006020828403121561533257600080fd5b612da68261530a565b6020808252825182820181905260009190848201906040850190845b8181101561537957835163ffffffff1683529284019291840191600101615357565b50909695505050505050565b6001600160a01b03811681146110bb57600080fd5b600080604083850312156153ad57600080fd5b82356153b881615385565b946020939093013593505050565b6000602082840312156153d857600080fd5b5035919050565b63ffffffff811681146110bb57600080fd5b60006020828403121561540357600080fd5b8135612da6816153df565b60005b83811015615429578181015183820152602001615411565b50506000910152565b6000815180845261544a81602086016020860161540e565b601f01601f19169290920160200192915050565b600081518084526020808501945080840160005b8381101561549457815163ffffffff1687529582019590820190600101615472565b509495945050505050565b600081518084526020808501945080840160005b83811015615494578151875295820195908201906001016154b3565b602081526154e660208201835163ffffffff169052565b600060208301516104808060408501526155046104a0850183615432565b9150604085015160608501526060850151615523608086018215159052565b5060808501516001600160a01b03811660a08601525060a085015163ffffffff811660c08601525060c085015180151560e08601525060e0850151601f19610100818786030181880152615577858461545e565b945080880151925050610120818786030181880152615596858461545e565b9450808801519250506101408187860301818801526155b5858461545e565b9450808801519250506101608187860301818801526155d4858461549f565b90880151610180888101919091528801516101a0808901919091528801516101c0808901919091528801516101e0808901919091528801516102008089019190915288015161022080890191909152880151610240808901919091528801516102608089019190915288015190945091506102806156568188018460ff169052565b87015191506102a061566f8782018463ffffffff169052565b8701516102c0878101919091528701516102e080880191909152870151610300808801919091528701516103208088019190915287015161034080880191909152870151610360808801919091528701516103808088019190915287015186850382016103a0808901919091529092506156e9858461545e565b908801516103c0888101919091528801516103e080890191909152880151610400808901919091528801519094509150610420905061572b8187018315159052565b86015190506104406157408682018315159052565b86015190506104606157558682018315159052565b90950151151593019290925250919050565b60006020828403121561577957600080fd5b8135612da681615385565b6000806040838503121561579757600080fd5b8235915060208301356157a9816153df565b809150509250929050565b634e487b7160e01b600052604160045260246000fd5b600067ffffffffffffffff808411156157e5576157e56157b4565b604051601f8501601f19908116603f0116810190828211818310171561580d5761580d6157b4565b8160405280935085815286868601111561582657600080fd5b858560208301376000602087830101525050509392505050565b80151581146110bb57600080fd5b803561531b81615840565b60008060008060008060008060006101208a8c03121561587857600080fd5b6158818a61530a565b985060208a0135975060408a0135965060608a0135955060808a013567ffffffffffffffff8111156158b257600080fd5b8a01601f81018c136158c357600080fd5b6158d28c8235602084016157ca565b95505060a08a0135935060c08a0135925060e08a013591506158f76101008b0161584e565b90509295985092959850929598565b6000806040838503121561591957600080fd5b823561592481615385565b9150602083013567ffffffffffffffff81111561594057600080fd5b8301601f8101851361595157600080fd5b615960858235602084016157ca565b9150509250929050565b6000806040838503121561597d57600080fd5b82356153b8816153df565b6020815261599c60208201835160ff169052565b602082015160408201526040820151606082015260608201516080820152600060808301516101408060a08501526159d8610160850183615432565b915060a085015160c085015260c085015160e085015260e0850151610100818187015280870151915050610120615a128187018315159052565b860151858403601f1901838701529050615a2c838261545e565b9695505050505050565b600060208284031215615a4857600080fd5b813561ffff81168114612da657600080fd5b60008060208385031215615a6d57600080fd5b823567ffffffffffffffff80821115615a8557600080fd5b818501915085601f830112615a9957600080fd5b813581811115615aa857600080fd5b8660208260051b8501011115615abd57600080fd5b60209290920196919550909350505050565b602081528151151560208201526000602083015160606040840152615af7608084018261545e565b90506040840151601f198483030160608501526150fc8282615432565b600181811c90821680615b2857607f821691505b602082108103615b4857634e487b7160e01b600052602260045260246000fd5b50919050565b6020808252602c908201527f46756e6374696f6e206d7573742062652063616c6c6564207468726f7567682060408201526b19195b1959d85d1958d85b1b60a21b606082015260800190565b6020808252602c908201527f46756e6374696f6e206d7573742062652063616c6c6564207468726f7567682060408201526b6163746976652070726f787960a01b606082015260800190565b600060208284031215615bf857600080fd5b8151612da681615840565b6020808252601290820152712cb7ba9030b932903737ba1030b236b4b71760711b604082015260600190565b601f821115610a6557600081815260208120601f850160051c81016020861015615c565750805b601f850160051c820191505b81811015615c7557828155600101615c62565b505050505050565b815167ffffffffffffffff811115615c9757615c976157b4565b615cab81615ca58454615b14565b84615c2f565b602080601f831160018114615ce05760008415615cc85750858301515b600019600386901b1c1916600185901b178555615c75565b600085815260208120601f198616915b82811015615d0f57888601518255948401946001909101908401615cf0565b5085821015615d2d5787850151600019600388901b60f8161c191681555b5050505050600190811b01905550565b634e487b7160e01b600052601160045260246000fd5b8082018082111561510157615101615d3d565b808202811582820484141761510157615101615d3d565b8181038181111561510157615101615d3d565b600060208284031215615da257600080fd5b8151612da681615385565b600082615dca57634e487b7160e01b600052601260045260246000fd5b500490565b600060208284031215615de157600080fd5b8151612da6816153df565b63ffffffff818116838216019080821115615e0957615e09615d3d565b5092915050565b600063ffffffff808316818103615e2957615e29615d3d565b6001019392505050565b600060208284031215615e4557600080fd5b5051919050565b60ff818116838216019081111561510157615101615d3d565b634e487b7160e01b600052603260045260246000fd5b600060ff821660ff8103615e9157615e91615d3d565b60010192915050565b6020808252602b908201527f496e697469616c697a61626c653a20636f6e7472616374206973206e6f74206960408201526a6e697469616c697a696e6760a81b606082015260800190565b60008251615ef781846020870161540e565b9190910192915050565b602081526000612da6602083018461543256fe360894a13ba1a3210667c828492db98dca3e2076cc3735a920a3ca505d382bbc416464726573733a206c6f772d6c6576656c2064656c65676174652063616c6c206661696c6564a264697066735822122040134b7f8961cf24da58ff90f85cf9fb9aeb1e636b2347e50dbbf12553513f8664736f6c63430008110033","opcodes":"PUSH1 0xA0 PUSH1 0x40 MSTORE ADDRESS PUSH1 0x80 MSTORE CALLVALUE DUP1 ISZERO PUSH2 0x14 JUMPI PUSH1 0x0 DUP1 REVERT JUMPDEST POP PUSH1 0x80 MLOAD PUSH2 0x5F91 PUSH3 0x4D PUSH1 0x0 CODECOPY PUSH1 0x0 DUP2 DUP2 PUSH2 0x10C8 ADD MSTORE DUP2 DUP2 PUSH2 0x1111 ADD MSTORE DUP2 DUP2 PUSH2 0x1838 ADD MSTORE DUP2 DUP2 PUSH2 0x1878 ADD MSTORE PUSH2 0x19FF ADD MSTORE PUSH2 0x5F91 PUSH1 0x0 RETURN INVALID PUSH1 0x80 PUSH1 0x40 MSTORE PUSH1 0x4 CALLDATASIZE LT PUSH2 0x2E8 JUMPI PUSH1 0x0 CALLDATALOAD PUSH1 0xE0 SHR DUP1 PUSH4 0x6F38E410 GT PUSH2 0x190 JUMPI DUP1 PUSH4 0xA0B6105F GT PUSH2 0xDC JUMPI DUP1 PUSH4 0xCD21364D GT PUSH2 0x95 JUMPI DUP1 PUSH4 0xF31A2D0F GT PUSH2 0x6F JUMPI DUP1 PUSH4 0xF31A2D0F EQ PUSH2 0x90D JUMPI DUP1 PUSH4 0xF41BFEEF EQ PUSH2 0x92D JUMPI DUP1 PUSH4 0xFAFC9597 EQ PUSH2 0x943 JUMPI DUP1 PUSH4 0xFB47E016 EQ PUSH2 0x965 JUMPI PUSH1 0x0 DUP1 REVERT JUMPDEST DUP1 PUSH4 0xCD21364D EQ PUSH2 0x8AD JUMPI DUP1 PUSH4 0xE1C715BA EQ PUSH2 0x8CD JUMPI DUP1 PUSH4 0xF2FDE38B EQ PUSH2 0x8ED JUMPI PUSH1 0x0 DUP1 REVERT JUMPDEST DUP1 PUSH4 0xA0B6105F EQ PUSH2 0x804 JUMPI DUP1 PUSH4 0xA152B0F0 EQ PUSH2 0x824 JUMPI DUP1 PUSH4 0xA28A3686 EQ PUSH2 0x837 JUMPI DUP1 PUSH4 0xA43AE408 EQ PUSH2 0x85A JUMPI DUP1 PUSH4 0xB47181D3 EQ PUSH2 0x87A JUMPI DUP1 PUSH4 0xBCB93F9B EQ PUSH2 0x89A JUMPI PUSH1 0x0 DUP1 REVERT JUMPDEST DUP1 PUSH4 0x8129FC1C GT PUSH2 0x149 JUMPI DUP1 PUSH4 0x8DA5CB5B GT PUSH2 0x123 JUMPI DUP1 PUSH4 0x8DA5CB5B EQ PUSH2 0x790 JUMPI DUP1 PUSH4 0x8F84DE85 EQ PUSH2 0x7AE JUMPI DUP1 PUSH4 0x987DD4A7 EQ PUSH2 0x7C4 JUMPI DUP1 PUSH4 0x9F4E8398 EQ PUSH2 0x7E4 JUMPI PUSH1 0x0 DUP1 REVERT JUMPDEST DUP1 PUSH4 0x8129FC1C EQ PUSH2 0x74B JUMPI DUP1 PUSH4 0x852FF2FD EQ PUSH2 0x760 JUMPI DUP1 PUSH4 0x8AF925DC EQ PUSH2 0x776 JUMPI PUSH1 0x0 DUP1 REVERT JUMPDEST DUP1 PUSH4 0x6F38E410 EQ PUSH2 0x694 JUMPI DUP1 PUSH4 0x7084431F EQ PUSH2 0x6B4 JUMPI DUP1 PUSH4 0x715018A6 EQ PUSH2 0x6D3 JUMPI DUP1 PUSH4 0x7879B5EF EQ PUSH2 0x6E8 JUMPI DUP1 PUSH4 0x7BDBF996 EQ PUSH2 0x708 JUMPI DUP1 PUSH4 0x7C599486 EQ PUSH2 0x735 JUMPI PUSH1 0x0 DUP1 REVERT JUMPDEST DUP1 PUSH4 0x390A5BA5 GT PUSH2 0x24F JUMPI DUP1 PUSH4 0x4E6E93A3 GT PUSH2 0x208 JUMPI DUP1 PUSH4 0x52D1902D GT PUSH2 0x1E2 JUMPI DUP1 PUSH4 0x52D1902D EQ PUSH2 0x5F6 JUMPI DUP1 PUSH4 0x538FFE0C EQ PUSH2 0x60B JUMPI DUP1 PUSH4 0x5979369A EQ PUSH2 0x654 JUMPI DUP1 PUSH4 0x6CCC10AE EQ PUSH2 0x674 JUMPI PUSH1 0x0 DUP1 REVERT JUMPDEST DUP1 PUSH4 0x4E6E93A3 EQ PUSH2 0x588 JUMPI DUP1 PUSH4 0x4F1EF286 EQ PUSH2 0x5C3 JUMPI DUP1 PUSH4 0x509D6C52 EQ PUSH2 0x5D6 JUMPI PUSH1 0x0 DUP1 REVERT JUMPDEST DUP1 PUSH4 0x390A5BA5 EQ PUSH2 0x4B6 JUMPI DUP1 PUSH4 0x3EFF2DEF EQ PUSH2 0x4E8 JUMPI DUP1 PUSH4 0x473B0D46 EQ PUSH2 0x508 JUMPI DUP1 PUSH4 0x498B3E55 EQ PUSH2 0x528 JUMPI DUP1 PUSH4 0x4A750822 EQ PUSH2 0x548 JUMPI DUP1 PUSH4 0x4B5102B8 EQ PUSH2 0x568 JUMPI PUSH1 0x0 DUP1 REVERT JUMPDEST DUP1 PUSH4 0x22F88B52 GT PUSH2 0x2A1 JUMPI DUP1 PUSH4 0x22F88B52 EQ PUSH2 0x407 JUMPI DUP1 PUSH4 0x2ED421D2 EQ PUSH2 0x41D JUMPI DUP1 PUSH4 0x313CE567 EQ PUSH2 0x433 JUMPI DUP1 PUSH4 0x35759788 EQ PUSH2 0x461 JUMPI DUP1 PUSH4 0x3659CFE6 EQ PUSH2 0x476 JUMPI DUP1 PUSH4 0x365B98B2 EQ PUSH2 0x496 JUMPI PUSH1 0x0 DUP1 REVERT JUMPDEST DUP1 PUSH4 0x12DA720 EQ PUSH2 0x2F4 JUMPI DUP1 PUSH4 0xB243DAD EQ PUSH2 0x32A JUMPI DUP1 PUSH4 0x1319CFF9 EQ PUSH2 0x34C JUMPI DUP1 PUSH4 0x18E10BFF EQ PUSH2 0x384 JUMPI DUP1 PUSH4 0x1F9E65E4 EQ PUSH2 0x3B7 JUMPI DUP1 PUSH4 0x21009789 EQ PUSH2 0x3DA JUMPI PUSH1 0x0 DUP1 REVERT JUMPDEST CALLDATASIZE PUSH2 0x2EF JUMPI STOP JUMPDEST PUSH1 0x0 DUP1 REVERT JUMPDEST CALLVALUE DUP1 ISZERO PUSH2 0x300 JUMPI PUSH1 0x0 DUP1 REVERT JUMPDEST POP PUSH2 0x314 PUSH2 0x30F CALLDATASIZE PUSH1 0x4 PUSH2 0x5320 JUMP JUMPDEST PUSH2 0x992 JUMP JUMPDEST PUSH1 0x40 MLOAD PUSH2 0x321 SWAP2 SWAP1 PUSH2 0x533B JUMP JUMPDEST PUSH1 0x40 MLOAD DUP1 SWAP2 SUB SWAP1 RETURN JUMPDEST CALLVALUE DUP1 ISZERO PUSH2 0x336 JUMPI PUSH1 0x0 DUP1 REVERT JUMPDEST POP PUSH2 0x34A PUSH2 0x345 CALLDATASIZE PUSH1 0x4 PUSH2 0x539A JUMP JUMPDEST PUSH2 0xA27 JUMP JUMPDEST STOP JUMPDEST CALLVALUE DUP1 ISZERO PUSH2 0x358 JUMPI PUSH1 0x0 DUP1 REVERT JUMPDEST POP PUSH2 0x36C PUSH2 0x367 CALLDATASIZE PUSH1 0x4 PUSH2 0x53C6 JUMP JUMPDEST PUSH2 0xA6A JUMP JUMPDEST PUSH1 0x40 MLOAD PUSH1 0x1 PUSH1 0x1 PUSH1 0xA0 SHL SUB SWAP1 SWAP2 AND DUP2 MSTORE PUSH1 0x20 ADD PUSH2 0x321 JUMP JUMPDEST CALLVALUE DUP1 ISZERO PUSH2 0x390 JUMPI PUSH1 0x0 DUP1 REVERT JUMPDEST POP PUSH1 0xD5 SLOAD PUSH2 0x3A5 SWAP1 PUSH4 0x1000000 SWAP1 DIV PUSH1 0xFF AND DUP2 JUMP JUMPDEST PUSH1 0x40 MLOAD PUSH1 0xFF SWAP1 SWAP2 AND DUP2 MSTORE PUSH1 0x20 ADD PUSH2 0x321 JUMP JUMPDEST CALLVALUE DUP1 ISZERO PUSH2 0x3C3 JUMPI PUSH1 0x0 DUP1 REVERT JUMPDEST POP PUSH2 0x3CC PUSH2 0xA94 JUMP JUMPDEST PUSH1 0x40 MLOAD SWAP1 DUP2 MSTORE PUSH1 0x20 ADD PUSH2 0x321 JUMP JUMPDEST CALLVALUE DUP1 ISZERO PUSH2 0x3E6 JUMPI PUSH1 0x0 DUP1 REVERT JUMPDEST POP PUSH2 0x3FA PUSH2 0x3F5 CALLDATASIZE PUSH1 0x4 PUSH2 0x53F1 JUMP JUMPDEST PUSH2 0xAA6 JUMP JUMPDEST PUSH1 0x40 MLOAD PUSH2 0x321 SWAP2 SWAP1 PUSH2 0x54CF JUMP JUMPDEST CALLVALUE DUP1 ISZERO PUSH2 0x413 JUMPI PUSH1 0x0 DUP1 REVERT JUMPDEST POP PUSH2 0x3CC PUSH1 0xD0 SLOAD DUP2 JUMP JUMPDEST CALLVALUE DUP1 ISZERO PUSH2 0x429 JUMPI PUSH1 0x0 DUP1 REVERT JUMPDEST POP PUSH2 0x3CC PUSH1 0xD1 SLOAD DUP2 JUMP JUMPDEST CALLVALUE DUP1 ISZERO PUSH2 0x43F JUMPI PUSH1 0x0 DUP1 REVERT JUMPDEST POP PUSH1 0xCB SLOAD PUSH2 0x44E SWAP1 PUSH2 0xFFFF AND DUP2 JUMP JUMPDEST PUSH1 0x40 MLOAD PUSH2 0xFFFF SWAP1 SWAP2 AND DUP2 MSTORE PUSH1 0x20 ADD PUSH2 0x321 JUMP JUMPDEST CALLVALUE DUP1 ISZERO PUSH2 0x46D JUMPI PUSH1 0x0 DUP1 REVERT JUMPDEST POP PUSH2 0x34A PUSH2 0x1087 JUMP JUMPDEST CALLVALUE DUP1 ISZERO PUSH2 0x482 JUMPI PUSH1 0x0 DUP1 REVERT JUMPDEST POP PUSH2 0x34A PUSH2 0x491 CALLDATASIZE PUSH1 0x4 PUSH2 0x5767 JUMP JUMPDEST PUSH2 0x10BE JUMP JUMPDEST CALLVALUE DUP1 ISZERO PUSH2 0x4A2 JUMPI PUSH1 0x0 DUP1 REVERT JUMPDEST POP PUSH2 0x36C PUSH2 0x4B1 CALLDATASIZE PUSH1 0x4 PUSH2 0x53C6 JUMP JUMPDEST PUSH2 0x11A3 JUMP JUMPDEST CALLVALUE DUP1 ISZERO PUSH2 0x4C2 JUMPI PUSH1 0x0 DUP1 REVERT JUMPDEST POP PUSH1 0xCF SLOAD PUSH2 0x4D3 SWAP1 PUSH4 0xFFFFFFFF AND DUP2 JUMP JUMPDEST PUSH1 0x40 MLOAD PUSH4 0xFFFFFFFF SWAP1 SWAP2 AND DUP2 MSTORE PUSH1 0x20 ADD PUSH2 0x321 JUMP JUMPDEST CALLVALUE DUP1 ISZERO PUSH2 0x4F4 JUMPI PUSH1 0x0 DUP1 REVERT JUMPDEST POP PUSH2 0x34A PUSH2 0x503 CALLDATASIZE PUSH1 0x4 PUSH2 0x5320 JUMP JUMPDEST PUSH2 0x11B3 JUMP JUMPDEST CALLVALUE DUP1 ISZERO PUSH2 0x514 JUMPI PUSH1 0x0 DUP1 REVERT JUMPDEST POP PUSH2 0x34A PUSH2 0x523 CALLDATASIZE PUSH1 0x4 PUSH2 0x53C6 JUMP JUMPDEST PUSH2 0x11D9 JUMP JUMPDEST CALLVALUE DUP1 ISZERO PUSH2 0x534 JUMPI PUSH1 0x0 DUP1 REVERT JUMPDEST POP PUSH2 0x34A PUSH2 0x543 CALLDATASIZE PUSH1 0x4 PUSH2 0x5784 JUMP JUMPDEST PUSH2 0x11E6 JUMP JUMPDEST CALLVALUE DUP1 ISZERO PUSH2 0x554 JUMPI PUSH1 0x0 DUP1 REVERT JUMPDEST POP PUSH2 0x34A PUSH2 0x563 CALLDATASIZE PUSH1 0x4 PUSH2 0x5859 JUMP JUMPDEST PUSH2 0x128C JUMP JUMPDEST CALLVALUE DUP1 ISZERO PUSH2 0x574 JUMPI PUSH1 0x0 DUP1 REVERT JUMPDEST POP PUSH2 0x34A PUSH2 0x583 CALLDATASIZE PUSH1 0x4 PUSH2 0x5320 JUMP JUMPDEST PUSH2 0x133C JUMP JUMPDEST CALLVALUE DUP1 ISZERO PUSH2 0x594 JUMPI PUSH1 0x0 DUP1 REVERT JUMPDEST POP PUSH2 0x5A8 PUSH2 0x5A3 CALLDATASIZE PUSH1 0x4 PUSH2 0x53F1 JUMP JUMPDEST PUSH2 0x1364 JUMP JUMPDEST PUSH1 0x40 DUP1 MLOAD SWAP4 DUP5 MSTORE PUSH1 0x20 DUP5 ADD SWAP3 SWAP1 SWAP3 MSTORE SWAP1 DUP3 ADD MSTORE PUSH1 0x60 ADD PUSH2 0x321 JUMP JUMPDEST PUSH2 0x34A PUSH2 0x5D1 CALLDATASIZE PUSH1 0x4 PUSH2 0x5906 JUMP JUMPDEST PUSH2 0x182E JUMP JUMPDEST CALLVALUE DUP1 ISZERO PUSH2 0x5E2 JUMPI PUSH1 0x0 DUP1 REVERT JUMPDEST POP PUSH2 0x34A PUSH2 0x5F1 CALLDATASIZE PUSH1 0x4 PUSH2 0x596A JUMP JUMPDEST PUSH2 0x18FA JUMP JUMPDEST CALLVALUE DUP1 ISZERO PUSH2 0x602 JUMPI PUSH1 0x0 DUP1 REVERT JUMPDEST POP PUSH2 0x3CC PUSH2 0x19F2 JUMP JUMPDEST CALLVALUE DUP1 ISZERO PUSH2 0x617 JUMPI PUSH1 0x0 DUP1 REVERT JUMPDEST POP PUSH2 0x644 PUSH2 0x626 CALLDATASIZE PUSH1 0x4 PUSH2 0x5767 JUMP JUMPDEST PUSH1 0x1 PUSH1 0x1 PUSH1 0xA0 SHL SUB AND PUSH1 0x0 SWAP1 DUP2 MSTORE PUSH1 0xD6 PUSH1 0x20 MSTORE PUSH1 0x40 SWAP1 KECCAK256 SLOAD PUSH1 0xFF AND SWAP1 JUMP JUMPDEST PUSH1 0x40 MLOAD SWAP1 ISZERO ISZERO DUP2 MSTORE PUSH1 0x20 ADD PUSH2 0x321 JUMP JUMPDEST CALLVALUE DUP1 ISZERO PUSH2 0x660 JUMPI PUSH1 0x0 DUP1 REVERT JUMPDEST POP PUSH2 0x34A PUSH2 0x66F CALLDATASIZE PUSH1 0x4 PUSH2 0x53F1 JUMP JUMPDEST PUSH2 0x1AA5 JUMP JUMPDEST CALLVALUE DUP1 ISZERO PUSH2 0x680 JUMPI PUSH1 0x0 DUP1 REVERT JUMPDEST POP PUSH2 0x34A PUSH2 0x68F CALLDATASIZE PUSH1 0x4 PUSH2 0x596A JUMP JUMPDEST PUSH2 0x1B49 JUMP JUMPDEST CALLVALUE DUP1 ISZERO PUSH2 0x6A0 JUMPI PUSH1 0x0 DUP1 REVERT JUMPDEST POP PUSH1 0xCB SLOAD PUSH2 0x3A5 SWAP1 PUSH3 0x10000 SWAP1 DIV PUSH1 0xFF AND DUP2 JUMP JUMPDEST CALLVALUE DUP1 ISZERO PUSH2 0x6C0 JUMPI PUSH1 0x0 DUP1 REVERT JUMPDEST POP PUSH1 0xD5 SLOAD PUSH2 0x644 SWAP1 PUSH2 0x100 SWAP1 DIV PUSH1 0xFF AND DUP2 JUMP JUMPDEST CALLVALUE DUP1 ISZERO PUSH2 0x6DF JUMPI PUSH1 0x0 DUP1 REVERT JUMPDEST POP PUSH2 0x34A PUSH2 0x1BF0 JUMP JUMPDEST CALLVALUE DUP1 ISZERO PUSH2 0x6F4 JUMPI PUSH1 0x0 DUP1 REVERT JUMPDEST POP PUSH2 0x44E PUSH2 0x703 CALLDATASIZE PUSH1 0x4 PUSH2 0x53C6 JUMP JUMPDEST PUSH2 0x1C04 JUMP JUMPDEST CALLVALUE DUP1 ISZERO PUSH2 0x714 JUMPI PUSH1 0x0 DUP1 REVERT JUMPDEST POP PUSH2 0x728 PUSH2 0x723 CALLDATASIZE PUSH1 0x4 PUSH2 0x5320 JUMP JUMPDEST PUSH2 0x1C3C JUMP JUMPDEST PUSH1 0x40 MLOAD PUSH2 0x321 SWAP2 SWAP1 PUSH2 0x5988 JUMP JUMPDEST CALLVALUE DUP1 ISZERO PUSH2 0x741 JUMPI PUSH1 0x0 DUP1 REVERT JUMPDEST POP PUSH2 0x3CC PUSH1 0xCE SLOAD DUP2 JUMP JUMPDEST CALLVALUE DUP1 ISZERO PUSH2 0x757 JUMPI PUSH1 0x0 DUP1 REVERT JUMPDEST POP PUSH2 0x34A PUSH2 0x1E3B JUMP JUMPDEST CALLVALUE DUP1 ISZERO PUSH2 0x76C JUMPI PUSH1 0x0 DUP1 REVERT JUMPDEST POP PUSH2 0x3CC PUSH1 0xCD SLOAD DUP2 JUMP JUMPDEST CALLVALUE DUP1 ISZERO PUSH2 0x782 JUMPI PUSH1 0x0 DUP1 REVERT JUMPDEST POP PUSH1 0xD5 SLOAD PUSH2 0x644 SWAP1 PUSH1 0xFF AND DUP2 JUMP JUMPDEST CALLVALUE DUP1 ISZERO PUSH2 0x79C JUMPI PUSH1 0x0 DUP1 REVERT JUMPDEST POP PUSH1 0x33 SLOAD PUSH1 0x1 PUSH1 0x1 PUSH1 0xA0 SHL SUB AND PUSH2 0x36C JUMP JUMPDEST CALLVALUE DUP1 ISZERO PUSH2 0x7BA JUMPI PUSH1 0x0 DUP1 REVERT JUMPDEST POP PUSH2 0x3CC PUSH1 0xCC SLOAD DUP2 JUMP JUMPDEST CALLVALUE DUP1 ISZERO PUSH2 0x7D0 JUMPI PUSH1 0x0 DUP1 REVERT JUMPDEST POP PUSH2 0x3CC PUSH2 0x7DF CALLDATASIZE PUSH1 0x4 PUSH2 0x53F1 JUMP JUMPDEST PUSH2 0x20D3 JUMP JUMPDEST CALLVALUE DUP1 ISZERO PUSH2 0x7F0 JUMPI PUSH1 0x0 DUP1 REVERT JUMPDEST POP PUSH2 0x34A PUSH2 0x7FF CALLDATASIZE PUSH1 0x4 PUSH2 0x5767 JUMP JUMPDEST PUSH2 0x2592 JUMP JUMPDEST CALLVALUE DUP1 ISZERO PUSH2 0x810 JUMPI PUSH1 0x0 DUP1 REVERT JUMPDEST POP PUSH2 0x34A PUSH2 0x81F CALLDATASIZE PUSH1 0x4 PUSH2 0x539A JUMP JUMPDEST PUSH2 0x263B JUMP JUMPDEST PUSH2 0x34A PUSH2 0x832 CALLDATASIZE PUSH1 0x4 PUSH2 0x53F1 JUMP JUMPDEST PUSH2 0x26B4 JUMP JUMPDEST CALLVALUE DUP1 ISZERO PUSH2 0x843 JUMPI PUSH1 0x0 DUP1 REVERT JUMPDEST POP PUSH1 0xCF SLOAD PUSH2 0x3A5 SWAP1 PUSH6 0x10000000000 SWAP1 DIV PUSH1 0xFF AND DUP2 JUMP JUMPDEST CALLVALUE DUP1 ISZERO PUSH2 0x866 JUMPI PUSH1 0x0 DUP1 REVERT JUMPDEST POP PUSH2 0x34A PUSH2 0x875 CALLDATASIZE PUSH1 0x4 PUSH2 0x5A36 JUMP JUMPDEST PUSH2 0x28D1 JUMP JUMPDEST CALLVALUE DUP1 ISZERO PUSH2 0x886 JUMPI PUSH1 0x0 DUP1 REVERT JUMPDEST POP PUSH2 0x3CC PUSH2 0x895 CALLDATASIZE PUSH1 0x4 PUSH2 0x53F1 JUMP JUMPDEST PUSH2 0x28F1 JUMP JUMPDEST PUSH2 0x34A PUSH2 0x8A8 CALLDATASIZE PUSH1 0x4 PUSH2 0x53F1 JUMP JUMPDEST PUSH2 0x2DAD JUMP JUMPDEST CALLVALUE DUP1 ISZERO PUSH2 0x8B9 JUMPI PUSH1 0x0 DUP1 REVERT JUMPDEST POP PUSH1 0xD5 SLOAD PUSH2 0x3A5 SWAP1 PUSH3 0x10000 SWAP1 DIV PUSH1 0xFF AND DUP2 JUMP JUMPDEST CALLVALUE DUP1 ISZERO PUSH2 0x8D9 JUMPI PUSH1 0x0 DUP1 REVERT JUMPDEST POP PUSH2 0x34A PUSH2 0x8E8 CALLDATASIZE PUSH1 0x4 PUSH2 0x5A5A JUMP JUMPDEST PUSH2 0x306B JUMP JUMPDEST CALLVALUE DUP1 ISZERO PUSH2 0x8F9 JUMPI PUSH1 0x0 DUP1 REVERT JUMPDEST POP PUSH2 0x34A PUSH2 0x908 CALLDATASIZE PUSH1 0x4 PUSH2 0x5767 JUMP JUMPDEST PUSH2 0x307F JUMP JUMPDEST CALLVALUE DUP1 ISZERO PUSH2 0x919 JUMPI PUSH1 0x0 DUP1 REVERT JUMPDEST POP PUSH2 0x34A PUSH2 0x928 CALLDATASIZE PUSH1 0x4 PUSH2 0x596A JUMP JUMPDEST PUSH2 0x30F5 JUMP JUMPDEST CALLVALUE DUP1 ISZERO PUSH2 0x939 JUMPI PUSH1 0x0 DUP1 REVERT JUMPDEST POP PUSH2 0x3CC PUSH1 0xD2 SLOAD DUP2 JUMP JUMPDEST CALLVALUE DUP1 ISZERO PUSH2 0x94F JUMPI PUSH1 0x0 DUP1 REVERT JUMPDEST POP PUSH1 0xCF SLOAD PUSH2 0x644 SWAP1 PUSH5 0x100000000 SWAP1 DIV PUSH1 0xFF AND DUP2 JUMP JUMPDEST CALLVALUE DUP1 ISZERO PUSH2 0x971 JUMPI PUSH1 0x0 DUP1 REVERT JUMPDEST POP PUSH2 0x985 PUSH2 0x980 CALLDATASIZE PUSH1 0x4 PUSH2 0x5767 JUMP JUMPDEST PUSH2 0x3385 JUMP JUMPDEST PUSH1 0x40 MLOAD PUSH2 0x321 SWAP2 SWAP1 PUSH2 0x5ACF JUMP JUMPDEST PUSH1 0xFF DUP2 AND PUSH1 0x0 SWAP1 DUP2 MSTORE PUSH1 0xD8 PUSH1 0x20 SWAP1 DUP2 MSTORE PUSH1 0x40 SWAP2 DUP3 SWAP1 KECCAK256 PUSH1 0x9 ADD DUP1 SLOAD DUP4 MLOAD DUP2 DUP5 MUL DUP2 ADD DUP5 ADD SWAP1 SWAP5 MSTORE DUP1 DUP5 MSTORE PUSH1 0x60 SWAP4 SWAP3 DUP4 ADD DUP3 DUP3 DUP1 ISZERO PUSH2 0xA1B JUMPI PUSH1 0x20 MUL DUP3 ADD SWAP2 SWAP1 PUSH1 0x0 MSTORE PUSH1 0x20 PUSH1 0x0 KECCAK256 SWAP1 PUSH1 0x0 SWAP1 JUMPDEST DUP3 DUP3 SWAP1 SLOAD SWAP1 PUSH2 0x100 EXP SWAP1 DIV PUSH4 0xFFFFFFFF AND PUSH4 0xFFFFFFFF AND DUP2 MSTORE PUSH1 0x20 ADD SWAP1 PUSH1 0x4 ADD SWAP1 PUSH1 0x20 DUP3 PUSH1 0x3 ADD DIV SWAP3 DUP4 ADD SWAP3 PUSH1 0x1 SUB DUP3 MUL SWAP2 POP DUP1 DUP5 GT PUSH2 0x9DE JUMPI SWAP1 POP JUMPDEST POP POP POP POP POP SWAP1 POP SWAP2 SWAP1 POP JUMP JUMPDEST PUSH2 0xA2F PUSH2 0x34EB JUMP JUMPDEST PUSH1 0x40 MLOAD PUSH1 0x1 PUSH1 0x1 PUSH1 0xA0 SHL SUB DUP4 AND SWAP1 DUP3 ISZERO PUSH2 0x8FC MUL SWAP1 DUP4 SWAP1 PUSH1 0x0 DUP2 DUP2 DUP2 DUP6 DUP9 DUP9 CALL SWAP4 POP POP POP POP ISZERO DUP1 ISZERO PUSH2 0xA65 JUMPI RETURNDATASIZE PUSH1 0x0 DUP1 RETURNDATACOPY RETURNDATASIZE PUSH1 0x0 REVERT JUMPDEST POP POP POP JUMP JUMPDEST PUSH1 0xD3 DUP2 DUP2 SLOAD DUP2 LT PUSH2 0xA7A JUMPI PUSH1 0x0 DUP1 REVERT JUMPDEST PUSH1 0x0 SWAP2 DUP3 MSTORE PUSH1 0x20 SWAP1 SWAP2 KECCAK256 ADD SLOAD PUSH1 0x1 PUSH1 0x1 PUSH1 0xA0 SHL SUB AND SWAP1 POP DUP2 JUMP JUMPDEST PUSH1 0x0 PUSH2 0xAA1 PUSH1 0xCC SLOAD PUSH2 0x3545 JUMP JUMPDEST SWAP1 POP SWAP1 JUMP JUMPDEST PUSH2 0xBDC PUSH1 0x40 MLOAD DUP1 PUSH2 0x480 ADD PUSH1 0x40 MSTORE DUP1 PUSH1 0x0 PUSH4 0xFFFFFFFF AND DUP2 MSTORE PUSH1 0x20 ADD PUSH1 0x60 DUP2 MSTORE PUSH1 0x20 ADD PUSH1 0x0 DUP2 MSTORE PUSH1 0x20 ADD PUSH1 0x0 ISZERO ISZERO DUP2 MSTORE PUSH1 0x20 ADD PUSH1 0x0 PUSH1 0x1 PUSH1 0x1 PUSH1 0xA0 SHL SUB AND DUP2 MSTORE PUSH1 0x20 ADD PUSH1 0x0 PUSH4 0xFFFFFFFF AND DUP2 MSTORE PUSH1 0x20 ADD PUSH1 0x0 ISZERO ISZERO DUP2 MSTORE PUSH1 0x20 ADD PUSH1 0x60 DUP2 MSTORE PUSH1 0x20 ADD PUSH1 0x60 DUP2 MSTORE PUSH1 0x20 ADD PUSH1 0x60 DUP2 MSTORE PUSH1 0x20 ADD PUSH1 0x60 DUP2 MSTORE PUSH1 0x20 ADD PUSH1 0x0 DUP2 MSTORE PUSH1 0x20 ADD PUSH1 0x0 DUP2 MSTORE PUSH1 0x20 ADD PUSH1 0x0 DUP2 MSTORE PUSH1 0x20 ADD PUSH1 0x0 DUP2 MSTORE PUSH1 0x20 ADD PUSH1 0x0 DUP2 MSTORE PUSH1 0x20 ADD PUSH1 0x0 DUP2 MSTORE PUSH1 0x20 ADD PUSH1 0x0 DUP2 MSTORE PUSH1 0x20 ADD PUSH1 0x0 DUP2 MSTORE PUSH1 0x20 ADD PUSH1 0x0 PUSH1 0xFF AND DUP2 MSTORE PUSH1 0x20 ADD PUSH1 0x0 PUSH4 0xFFFFFFFF AND DUP2 MSTORE PUSH1 0x20 ADD PUSH1 0x0 DUP2 MSTORE PUSH1 0x20 ADD PUSH1 0x0 DUP2 MSTORE PUSH1 0x20 ADD PUSH1 0x0 DUP2 MSTORE PUSH1 0x20 ADD PUSH1 0x0 DUP2 MSTORE PUSH1 0x20 ADD PUSH1 0x0 DUP2 MSTORE PUSH1 0x20 ADD PUSH1 0x0 DUP2 MSTORE PUSH1 0x20 ADD PUSH1 0x0 DUP2 MSTORE PUSH1 0x20 ADD PUSH1 0x60 DUP2 MSTORE PUSH1 0x20 ADD PUSH1 0x0 DUP2 MSTORE PUSH1 0x20 ADD PUSH1 0x0 DUP2 MSTORE PUSH1 0x20 ADD PUSH1 0x0 DUP2 MSTORE PUSH1 0x20 ADD PUSH1 0x0 ISZERO ISZERO DUP2 MSTORE PUSH1 0x20 ADD PUSH1 0x0 ISZERO ISZERO DUP2 MSTORE PUSH1 0x20 ADD PUSH1 0x0 ISZERO ISZERO DUP2 MSTORE PUSH1 0x20 ADD PUSH1 0x0 ISZERO ISZERO DUP2 MSTORE POP SWAP1 JUMP JUMPDEST PUSH4 0xFFFFFFFF DUP1 DUP4 AND PUSH1 0x0 SWAP1 DUP2 MSTORE PUSH1 0xD7 PUSH1 0x20 SWAP1 DUP2 MSTORE PUSH1 0x40 SWAP2 DUP3 SWAP1 KECCAK256 DUP3 MLOAD PUSH2 0x480 DUP2 ADD SWAP1 SWAP4 MSTORE DUP1 SLOAD SWAP1 SWAP4 AND DUP3 MSTORE PUSH1 0x1 DUP4 ADD DUP1 SLOAD SWAP3 SWAP4 SWAP3 SWAP2 DUP5 ADD SWAP2 PUSH2 0xC1D SWAP1 PUSH2 0x5B14 JUMP JUMPDEST DUP1 PUSH1 0x1F ADD PUSH1 0x20 DUP1 SWAP2 DIV MUL PUSH1 0x20 ADD PUSH1 0x40 MLOAD SWAP1 DUP2 ADD PUSH1 0x40 MSTORE DUP1 SWAP3 SWAP2 SWAP1 DUP2 DUP2 MSTORE PUSH1 0x20 ADD DUP3 DUP1 SLOAD PUSH2 0xC49 SWAP1 PUSH2 0x5B14 JUMP JUMPDEST DUP1 ISZERO PUSH2 0xC96 JUMPI DUP1 PUSH1 0x1F LT PUSH2 0xC6B JUMPI PUSH2 0x100 DUP1 DUP4 SLOAD DIV MUL DUP4 MSTORE SWAP2 PUSH1 0x20 ADD SWAP2 PUSH2 0xC96 JUMP JUMPDEST DUP3 ADD SWAP2 SWAP1 PUSH1 0x0 MSTORE PUSH1 0x20 PUSH1 0x0 KECCAK256 SWAP1 JUMPDEST DUP2 SLOAD DUP2 MSTORE SWAP1 PUSH1 0x1 ADD SWAP1 PUSH1 0x20 ADD DUP1 DUP4 GT PUSH2 0xC79 JUMPI DUP3 SWAP1 SUB PUSH1 0x1F AND DUP3 ADD SWAP2 JUMPDEST POP POP POP SWAP2 DUP4 MSTORE POP POP PUSH1 0x2 DUP3 ADD SLOAD PUSH1 0x20 DUP1 DUP4 ADD SWAP2 SWAP1 SWAP2 MSTORE PUSH1 0x3 DUP4 ADD SLOAD PUSH1 0xFF DUP1 DUP3 AND ISZERO ISZERO PUSH1 0x40 DUP1 DUP7 ADD SWAP2 SWAP1 SWAP2 MSTORE PUSH1 0x1 PUSH1 0x1 PUSH1 0xA0 SHL SUB PUSH2 0x100 DUP5 DIV AND PUSH1 0x60 DUP7 ADD MSTORE PUSH4 0xFFFFFFFF PUSH1 0x1 PUSH1 0xA8 SHL DUP5 DIV AND PUSH1 0x80 DUP7 ADD MSTORE PUSH1 0x1 PUSH1 0xC8 SHL SWAP1 SWAP3 DIV AND ISZERO ISZERO PUSH1 0xA0 DUP5 ADD MSTORE PUSH1 0x4 DUP5 ADD DUP1 SLOAD DUP3 MLOAD DUP2 DUP6 MUL DUP2 ADD DUP6 ADD SWAP1 SWAP4 MSTORE DUP1 DUP4 MSTORE PUSH1 0xC0 SWAP1 SWAP5 ADD SWAP4 SWAP2 SWAP3 SWAP1 SWAP2 SWAP1 DUP4 ADD DUP3 DUP3 DUP1 ISZERO PUSH2 0xD71 JUMPI PUSH1 0x20 MUL DUP3 ADD SWAP2 SWAP1 PUSH1 0x0 MSTORE PUSH1 0x20 PUSH1 0x0 KECCAK256 SWAP1 PUSH1 0x0 SWAP1 JUMPDEST DUP3 DUP3 SWAP1 SLOAD SWAP1 PUSH2 0x100 EXP SWAP1 DIV PUSH4 0xFFFFFFFF AND PUSH4 0xFFFFFFFF AND DUP2 MSTORE PUSH1 0x20 ADD SWAP1 PUSH1 0x4 ADD SWAP1 PUSH1 0x20 DUP3 PUSH1 0x3 ADD DIV SWAP3 DUP4 ADD SWAP3 PUSH1 0x1 SUB DUP3 MUL SWAP2 POP DUP1 DUP5 GT PUSH2 0xD34 JUMPI SWAP1 POP JUMPDEST POP POP POP POP POP DUP2 MSTORE PUSH1 0x20 ADD PUSH1 0x5 DUP3 ADD DUP1 SLOAD DUP1 PUSH1 0x20 MUL PUSH1 0x20 ADD PUSH1 0x40 MLOAD SWAP1 DUP2 ADD PUSH1 0x40 MSTORE DUP1 SWAP3 SWAP2 SWAP1 DUP2 DUP2 MSTORE PUSH1 0x20 ADD DUP3 DUP1 SLOAD DUP1 ISZERO PUSH2 0xDF5 JUMPI PUSH1 0x20 MUL DUP3 ADD SWAP2 SWAP1 PUSH1 0x0 MSTORE PUSH1 0x20 PUSH1 0x0 KECCAK256 SWAP1 PUSH1 0x0 SWAP1 JUMPDEST DUP3 DUP3 SWAP1 SLOAD SWAP1 PUSH2 0x100 EXP SWAP1 DIV PUSH4 0xFFFFFFFF AND PUSH4 0xFFFFFFFF AND DUP2 MSTORE PUSH1 0x20 ADD SWAP1 PUSH1 0x4 ADD SWAP1 PUSH1 0x20 DUP3 PUSH1 0x3 ADD DIV SWAP3 DUP4 ADD SWAP3 PUSH1 0x1 SUB DUP3 MUL SWAP2 POP DUP1 DUP5 GT PUSH2 0xDB8 JUMPI SWAP1 POP JUMPDEST POP POP POP POP POP DUP2 MSTORE PUSH1 0x20 ADD PUSH1 0x6 DUP3 ADD DUP1 SLOAD DUP1 PUSH1 0x20 MUL PUSH1 0x20 ADD PUSH1 0x40 MLOAD SWAP1 DUP2 ADD PUSH1 0x40 MSTORE DUP1 SWAP3 SWAP2 SWAP1 DUP2 DUP2 MSTORE PUSH1 0x20 ADD DUP3 DUP1 SLOAD DUP1 ISZERO PUSH2 0xE79 JUMPI PUSH1 0x20 MUL DUP3 ADD SWAP2 SWAP1 PUSH1 0x0 MSTORE PUSH1 0x20 PUSH1 0x0 KECCAK256 SWAP1 PUSH1 0x0 SWAP1 JUMPDEST DUP3 DUP3 SWAP1 SLOAD SWAP1 PUSH2 0x100 EXP SWAP1 DIV PUSH4 0xFFFFFFFF AND PUSH4 0xFFFFFFFF AND DUP2 MSTORE PUSH1 0x20 ADD SWAP1 PUSH1 0x4 ADD SWAP1 PUSH1 0x20 DUP3 PUSH1 0x3 ADD DIV SWAP3 DUP4 ADD SWAP3 PUSH1 0x1 SUB DUP3 MUL SWAP2 POP DUP1 DUP5 GT PUSH2 0xE3C JUMPI SWAP1 POP JUMPDEST POP POP POP POP POP DUP2 MSTORE PUSH1 0x20 ADD PUSH1 0x7 DUP3 ADD DUP1 SLOAD DUP1 PUSH1 0x20 MUL PUSH1 0x20 ADD PUSH1 0x40 MLOAD SWAP1 DUP2 ADD PUSH1 0x40 MSTORE DUP1 SWAP3 SWAP2 SWAP1 DUP2 DUP2 MSTORE PUSH1 0x20 ADD DUP3 DUP1 SLOAD DUP1 ISZERO PUSH2 0xED1 JUMPI PUSH1 0x20 MUL DUP3 ADD SWAP2 SWAP1 PUSH1 0x0 MSTORE PUSH1 0x20 PUSH1 0x0 KECCAK256 SWAP1 JUMPDEST DUP2 SLOAD DUP2 MSTORE PUSH1 0x20 ADD SWAP1 PUSH1 0x1 ADD SWAP1 DUP1 DUP4 GT PUSH2 0xEBD JUMPI JUMPDEST POP POP POP SWAP2 DUP4 MSTORE POP POP PUSH1 0x8 DUP3 ADD SLOAD PUSH1 0x20 DUP1 DUP4 ADD SWAP2 SWAP1 SWAP2 MSTORE PUSH1 0x9 DUP4 ADD SLOAD PUSH1 0x40 DUP1 DUP5 ADD SWAP2 SWAP1 SWAP2 MSTORE PUSH1 0xA DUP5 ADD SLOAD PUSH1 0x60 DUP5 ADD MSTORE PUSH1 0xB DUP5 ADD SLOAD PUSH1 0x80 DUP5 ADD MSTORE PUSH1 0xC DUP5 ADD SLOAD PUSH1 0xA0 DUP5 ADD MSTORE PUSH1 0xD DUP5 ADD SLOAD PUSH1 0xC0 DUP5 ADD MSTORE PUSH1 0xE DUP5 ADD SLOAD PUSH1 0xE0 DUP5 ADD MSTORE PUSH1 0xF DUP5 ADD SLOAD PUSH2 0x100 DUP1 DUP6 ADD SWAP2 SWAP1 SWAP2 MSTORE PUSH1 0x10 DUP6 ADD SLOAD PUSH1 0xFF DUP2 AND PUSH2 0x120 DUP7 ADD MSTORE DIV PUSH4 0xFFFFFFFF AND PUSH2 0x140 DUP5 ADD MSTORE PUSH1 0x11 DUP5 ADD SLOAD PUSH2 0x160 DUP5 ADD MSTORE PUSH1 0x12 DUP5 ADD SLOAD PUSH2 0x180 DUP5 ADD MSTORE PUSH1 0x13 DUP5 ADD SLOAD PUSH2 0x1A0 DUP5 ADD MSTORE PUSH1 0x14 DUP5 ADD SLOAD PUSH2 0x1C0 DUP5 ADD MSTORE PUSH1 0x15 DUP5 ADD SLOAD PUSH2 0x1E0 DUP5 ADD MSTORE PUSH1 0x16 DUP5 ADD SLOAD PUSH2 0x200 DUP5 ADD MSTORE PUSH1 0x17 DUP5 ADD SLOAD PUSH2 0x220 DUP5 ADD MSTORE PUSH1 0x18 DUP5 ADD DUP1 SLOAD DUP3 MLOAD DUP2 DUP6 MUL DUP2 ADD DUP6 ADD SWAP1 SWAP4 MSTORE DUP1 DUP4 MSTORE PUSH2 0x240 SWAP1 SWAP5 ADD SWAP4 SWAP2 SWAP3 SWAP1 SWAP2 SWAP1 DUP4 ADD DUP3 DUP3 DUP1 ISZERO PUSH2 0x101B JUMPI PUSH1 0x20 MUL DUP3 ADD SWAP2 SWAP1 PUSH1 0x0 MSTORE PUSH1 0x20 PUSH1 0x0 KECCAK256 SWAP1 PUSH1 0x0 SWAP1 JUMPDEST DUP3 DUP3 SWAP1 SLOAD SWAP1 PUSH2 0x100 EXP SWAP1 DIV PUSH4 0xFFFFFFFF AND PUSH4 0xFFFFFFFF AND DUP2 MSTORE PUSH1 0x20 ADD SWAP1 PUSH1 0x4 ADD SWAP1 PUSH1 0x20 DUP3 PUSH1 0x3 ADD DIV SWAP3 DUP4 ADD SWAP3 PUSH1 0x1 SUB DUP3 MUL SWAP2 POP DUP1 DUP5 GT PUSH2 0xFDE JUMPI SWAP1 POP JUMPDEST POP POP POP SWAP2 DUP4 MSTORE POP POP PUSH1 0x19 DUP3 ADD SLOAD PUSH1 0x20 DUP3 ADD MSTORE PUSH1 0x1A DUP3 ADD SLOAD PUSH1 0x40 DUP3 ADD MSTORE PUSH1 0x1B DUP3 ADD SLOAD PUSH1 0x60 DUP3 ADD MSTORE PUSH1 0x1C SWAP1 SWAP2 ADD SLOAD PUSH1 0xFF DUP1 DUP3 AND ISZERO ISZERO PUSH1 0x80 DUP5 ADD MSTORE PUSH2 0x100 DUP3 DIV DUP2 AND ISZERO ISZERO PUSH1 0xA0 DUP5 ADD MSTORE PUSH3 0x10000 DUP3 DIV DUP2 AND ISZERO ISZERO PUSH1 0xC0 DUP5 ADD MSTORE PUSH4 0x1000000 SWAP1 SWAP2 DIV AND ISZERO ISZERO PUSH1 0xE0 SWAP1 SWAP2 ADD MSTORE SWAP3 SWAP2 POP POP JUMP JUMPDEST PUSH2 0x108F PUSH2 0x34EB JUMP JUMPDEST PUSH1 0x40 MLOAD CALLER SWAP1 SELFBALANCE DUP1 ISZERO PUSH2 0x8FC MUL SWAP2 PUSH1 0x0 DUP2 DUP2 DUP2 DUP6 DUP9 DUP9 CALL SWAP4 POP POP POP POP ISZERO DUP1 ISZERO PUSH2 0x10BB JUMPI RETURNDATASIZE PUSH1 0x0 DUP1 RETURNDATACOPY RETURNDATASIZE PUSH1 0x0 REVERT JUMPDEST POP JUMP JUMPDEST PUSH1 0x1 PUSH1 0x1 PUSH1 0xA0 SHL SUB PUSH32 0x0 AND ADDRESS SUB PUSH2 0x110F JUMPI PUSH1 0x40 MLOAD PUSH3 0x461BCD PUSH1 0xE5 SHL DUP2 MSTORE PUSH1 0x4 ADD PUSH2 0x1106 SWAP1 PUSH2 0x5B4E JUMP JUMPDEST PUSH1 0x40 MLOAD DUP1 SWAP2 SUB SWAP1 REVERT JUMPDEST PUSH32 0x0 PUSH1 0x1 PUSH1 0x1 PUSH1 0xA0 SHL SUB AND PUSH2 0x1158 PUSH1 0x0 DUP1 MLOAD PUSH1 0x20 PUSH2 0x5F15 DUP4 CODECOPY DUP2 MLOAD SWAP2 MSTORE SLOAD PUSH1 0x1 PUSH1 0x1 PUSH1 0xA0 SHL SUB AND SWAP1 JUMP JUMPDEST PUSH1 0x1 PUSH1 0x1 PUSH1 0xA0 SHL SUB AND EQ PUSH2 0x117E JUMPI PUSH1 0x40 MLOAD PUSH3 0x461BCD PUSH1 0xE5 SHL DUP2 MSTORE PUSH1 0x4 ADD PUSH2 0x1106 SWAP1 PUSH2 0x5B9A JUMP JUMPDEST PUSH2 0x1187 DUP2 PUSH2 0x363C JUMP JUMPDEST PUSH1 0x40 DUP1 MLOAD PUSH1 0x0 DUP1 DUP3 MSTORE PUSH1 0x20 DUP3 ADD SWAP1 SWAP3 MSTORE PUSH2 0x10BB SWAP2 DUP4 SWAP2 SWAP1 PUSH2 0x3644 JUMP JUMPDEST PUSH1 0xD4 DUP2 DUP2 SLOAD DUP2 LT PUSH2 0xA7A JUMPI PUSH1 0x0 DUP1 REVERT JUMPDEST PUSH2 0x11BB PUSH2 0x34EB JUMP JUMPDEST PUSH1 0xCB DUP1 SLOAD PUSH1 0xFF SWAP1 SWAP3 AND PUSH3 0x10000 MUL PUSH3 0xFF0000 NOT SWAP1 SWAP3 AND SWAP2 SWAP1 SWAP2 OR SWAP1 SSTORE JUMP JUMPDEST PUSH2 0x11E1 PUSH2 0x34EB JUMP JUMPDEST PUSH1 0xCC SSTORE JUMP JUMPDEST PUSH1 0xC9 SLOAD PUSH1 0x40 MLOAD PUSH4 0x935E01B PUSH1 0xE2 SHL DUP2 MSTORE CALLER PUSH1 0x4 DUP3 ADD MSTORE PUSH1 0x1 PUSH1 0x1 PUSH1 0xA0 SHL SUB SWAP1 SWAP2 AND SWAP1 PUSH4 0x24D7806C SWAP1 PUSH1 0x24 ADD PUSH1 0x20 PUSH1 0x40 MLOAD DUP1 DUP4 SUB DUP2 DUP7 GAS STATICCALL ISZERO DUP1 ISZERO PUSH2 0x122E JUMPI RETURNDATASIZE PUSH1 0x0 DUP1 RETURNDATACOPY RETURNDATASIZE PUSH1 0x0 REVERT JUMPDEST POP POP POP POP PUSH1 0x40 MLOAD RETURNDATASIZE PUSH1 0x1F NOT PUSH1 0x1F DUP3 ADD AND DUP3 ADD DUP1 PUSH1 0x40 MSTORE POP DUP2 ADD SWAP1 PUSH2 0x1252 SWAP2 SWAP1 PUSH2 0x5BE6 JUMP JUMPDEST PUSH2 0x126E JUMPI PUSH1 0x40 MLOAD PUSH3 0x461BCD PUSH1 0xE5 SHL DUP2 MSTORE PUSH1 0x4 ADD PUSH2 0x1106 SWAP1 PUSH2 0x5C03 JUMP JUMPDEST PUSH1 0xD5 SLOAD PUSH2 0x100 SWAP1 DIV PUSH1 0xFF AND ISZERO PUSH2 0x1288 JUMPI PUSH2 0x1288 DUP3 DUP3 PUSH2 0x37AF JUMP JUMPDEST POP POP JUMP JUMPDEST PUSH2 0x1294 PUSH2 0x34EB JUMP JUMPDEST PUSH1 0xFF DUP10 AND PUSH1 0x0 DUP2 DUP2 MSTORE PUSH1 0xD8 PUSH1 0x20 MSTORE PUSH1 0x40 SWAP1 KECCAK256 DUP1 SLOAD PUSH1 0xFF NOT AND SWAP1 SWAP2 OR DUP2 SSTORE PUSH1 0x1 DUP2 ADD DUP10 SWAP1 SSTORE PUSH1 0x2 DUP2 ADD DUP9 SWAP1 SSTORE PUSH1 0x3 DUP2 ADD DUP8 SWAP1 SSTORE PUSH1 0x4 DUP2 ADD PUSH2 0x12D4 DUP8 DUP3 PUSH2 0x5C7D JUMP JUMPDEST POP PUSH1 0x5 DUP2 ADD DUP6 SWAP1 SSTORE PUSH1 0x6 DUP2 ADD DUP5 SWAP1 SSTORE PUSH1 0x7 DUP2 ADD DUP4 SWAP1 SSTORE PUSH1 0x8 DUP2 ADD DUP1 SLOAD PUSH1 0xFF NOT AND DUP4 ISZERO ISZERO OR SWAP1 SSTORE PUSH1 0x40 MLOAD PUSH1 0xFF DUP12 AND DUP2 MSTORE PUSH32 0x9A2F17868083013E19D4C26D2AF13543606BC680C21C994D7648D3A0510164C9 SWAP1 PUSH1 0x20 ADD PUSH1 0x40 MLOAD DUP1 SWAP2 SUB SWAP1 LOG1 POP POP POP POP POP POP POP POP POP POP JUMP JUMPDEST PUSH2 0x1344 PUSH2 0x34EB JUMP JUMPDEST PUSH1 0xD5 DUP1 SLOAD PUSH1 0xFF SWAP1 SWAP3 AND PUSH4 0x1000000 MUL PUSH4 0xFF000000 NOT SWAP1 SWAP3 AND SWAP2 SWAP1 SWAP2 OR SWAP1 SSTORE JUMP JUMPDEST PUSH4 0xFFFFFFFF DUP1 DUP3 AND PUSH1 0x0 SWAP1 DUP2 MSTORE PUSH1 0xD7 PUSH1 0x20 SWAP1 DUP2 MSTORE PUSH1 0x40 DUP1 DUP4 KECCAK256 DUP2 MLOAD PUSH2 0x480 DUP2 ADD SWAP1 SWAP3 MSTORE DUP1 SLOAD SWAP1 SWAP5 AND DUP2 MSTORE PUSH1 0x1 DUP5 ADD DUP1 SLOAD SWAP4 SWAP5 DUP6 SWAP5 DUP6 SWAP5 DUP6 SWAP5 SWAP4 SWAP1 DUP5 ADD SWAP2 PUSH2 0x13AA SWAP1 PUSH2 0x5B14 JUMP JUMPDEST DUP1 PUSH1 0x1F ADD PUSH1 0x20 DUP1 SWAP2 DIV MUL PUSH1 0x20 ADD PUSH1 0x40 MLOAD SWAP1 DUP2 ADD PUSH1 0x40 MSTORE DUP1 SWAP3 SWAP2 SWAP1 DUP2 DUP2 MSTORE PUSH1 0x20 ADD DUP3 DUP1 SLOAD PUSH2 0x13D6 SWAP1 PUSH2 0x5B14 JUMP JUMPDEST DUP1 ISZERO PUSH2 0x1423 JUMPI DUP1 PUSH1 0x1F LT PUSH2 0x13F8 JUMPI PUSH2 0x100 DUP1 DUP4 SLOAD DIV MUL DUP4 MSTORE SWAP2 PUSH1 0x20 ADD SWAP2 PUSH2 0x1423 JUMP JUMPDEST DUP3 ADD SWAP2 SWAP1 PUSH1 0x0 MSTORE PUSH1 0x20 PUSH1 0x0 KECCAK256 SWAP1 JUMPDEST DUP2 SLOAD DUP2 MSTORE SWAP1 PUSH1 0x1 ADD SWAP1 PUSH1 0x20 ADD DUP1 DUP4 GT PUSH2 0x1406 JUMPI DUP3 SWAP1 SUB PUSH1 0x1F AND DUP3 ADD SWAP2 JUMPDEST POP POP POP SWAP2 DUP4 MSTORE POP POP PUSH1 0x2 DUP3 ADD SLOAD PUSH1 0x20 DUP1 DUP4 ADD SWAP2 SWAP1 SWAP2 MSTORE PUSH1 0x3 DUP4 ADD SLOAD PUSH1 0xFF DUP1 DUP3 AND ISZERO ISZERO PUSH1 0x40 DUP1 DUP7 ADD SWAP2 SWAP1 SWAP2 MSTORE PUSH1 0x1 PUSH1 0x1 PUSH1 0xA0 SHL SUB PUSH2 0x100 DUP5 DIV AND PUSH1 0x60 DUP7 ADD MSTORE PUSH4 0xFFFFFFFF PUSH1 0x1 PUSH1 0xA8 SHL DUP5 DIV AND PUSH1 0x80 DUP7 ADD MSTORE PUSH1 0x1 PUSH1 0xC8 SHL SWAP1 SWAP3 DIV AND ISZERO ISZERO PUSH1 0xA0 DUP5 ADD MSTORE PUSH1 0x4 DUP5 ADD DUP1 SLOAD DUP3 MLOAD DUP2 DUP6 MUL DUP2 ADD DUP6 ADD SWAP1 SWAP4 MSTORE DUP1 DUP4 MSTORE PUSH1 0xC0 SWAP1 SWAP5 ADD SWAP4 SWAP2 SWAP3 SWAP1 SWAP2 SWAP1 DUP4 ADD DUP3 DUP3 DUP1 ISZERO PUSH2 0x14FE JUMPI PUSH1 0x20 MUL DUP3 ADD SWAP2 SWAP1 PUSH1 0x0 MSTORE PUSH1 0x20 PUSH1 0x0 KECCAK256 SWAP1 PUSH1 0x0 SWAP1 JUMPDEST DUP3 DUP3 SWAP1 SLOAD SWAP1 PUSH2 0x100 EXP SWAP1 DIV PUSH4 0xFFFFFFFF AND PUSH4 0xFFFFFFFF AND DUP2 MSTORE PUSH1 0x20 ADD SWAP1 PUSH1 0x4 ADD SWAP1 PUSH1 0x20 DUP3 PUSH1 0x3 ADD DIV SWAP3 DUP4 ADD SWAP3 PUSH1 0x1 SUB DUP3 MUL SWAP2 POP DUP1 DUP5 GT PUSH2 0x14C1 JUMPI SWAP1 POP JUMPDEST POP POP POP POP POP DUP2 MSTORE PUSH1 0x20 ADD PUSH1 0x5 DUP3 ADD DUP1 SLOAD DUP1 PUSH1 0x20 MUL PUSH1 0x20 ADD PUSH1 0x40 MLOAD SWAP1 DUP2 ADD PUSH1 0x40 MSTORE DUP1 SWAP3 SWAP2 SWAP1 DUP2 DUP2 MSTORE PUSH1 0x20 ADD DUP3 DUP1 SLOAD DUP1 ISZERO PUSH2 0x1582 JUMPI PUSH1 0x20 MUL DUP3 ADD SWAP2 SWAP1 PUSH1 0x0 MSTORE PUSH1 0x20 PUSH1 0x0 KECCAK256 SWAP1 PUSH1 0x0 SWAP1 JUMPDEST DUP3 DUP3 SWAP1 SLOAD SWAP1 PUSH2 0x100 EXP SWAP1 DIV PUSH4 0xFFFFFFFF AND PUSH4 0xFFFFFFFF AND DUP2 MSTORE PUSH1 0x20 ADD SWAP1 PUSH1 0x4 ADD SWAP1 PUSH1 0x20 DUP3 PUSH1 0x3 ADD DIV SWAP3 DUP4 ADD SWAP3 PUSH1 0x1 SUB DUP3 MUL SWAP2 POP DUP1 DUP5 GT PUSH2 0x1545 JUMPI SWAP1 POP JUMPDEST POP POP POP POP POP DUP2 MSTORE PUSH1 0x20 ADD PUSH1 0x6 DUP3 ADD DUP1 SLOAD DUP1 PUSH1 0x20 MUL PUSH1 0x20 ADD PUSH1 0x40 MLOAD SWAP1 DUP2 ADD PUSH1 0x40 MSTORE DUP1 SWAP3 SWAP2 SWAP1 DUP2 DUP2 MSTORE PUSH1 0x20 ADD DUP3 DUP1 SLOAD DUP1 ISZERO PUSH2 0x1606 JUMPI PUSH1 0x20 MUL DUP3 ADD SWAP2 SWAP1 PUSH1 0x0 MSTORE PUSH1 0x20 PUSH1 0x0 KECCAK256 SWAP1 PUSH1 0x0 SWAP1 JUMPDEST DUP3 DUP3 SWAP1 SLOAD SWAP1 PUSH2 0x100 EXP SWAP1 DIV PUSH4 0xFFFFFFFF AND PUSH4 0xFFFFFFFF AND DUP2 MSTORE PUSH1 0x20 ADD SWAP1 PUSH1 0x4 ADD SWAP1 PUSH1 0x20 DUP3 PUSH1 0x3 ADD DIV SWAP3 DUP4 ADD SWAP3 PUSH1 0x1 SUB DUP3 MUL SWAP2 POP DUP1 DUP5 GT PUSH2 0x15C9 JUMPI SWAP1 POP JUMPDEST POP POP POP POP POP DUP2 MSTORE PUSH1 0x20 ADD PUSH1 0x7 DUP3 ADD DUP1 SLOAD DUP1 PUSH1 0x20 MUL PUSH1 0x20 ADD PUSH1 0x40 MLOAD SWAP1 DUP2 ADD PUSH1 0x40 MSTORE DUP1 SWAP3 SWAP2 SWAP1 DUP2 DUP2 MSTORE PUSH1 0x20 ADD DUP3 DUP1 SLOAD DUP1 ISZERO PUSH2 0x165E JUMPI PUSH1 0x20 MUL DUP3 ADD SWAP2 SWAP1 PUSH1 0x0 MSTORE PUSH1 0x20 PUSH1 0x0 KECCAK256 SWAP1 JUMPDEST DUP2 SLOAD DUP2 MSTORE PUSH1 0x20 ADD SWAP1 PUSH1 0x1 ADD SWAP1 DUP1 DUP4 GT PUSH2 0x164A JUMPI JUMPDEST POP POP POP SWAP2 DUP4 MSTORE POP POP PUSH1 0x8 DUP3 ADD SLOAD PUSH1 0x20 DUP1 DUP4 ADD SWAP2 SWAP1 SWAP2 MSTORE PUSH1 0x9 DUP4 ADD SLOAD PUSH1 0x40 DUP1 DUP5 ADD SWAP2 SWAP1 SWAP2 MSTORE PUSH1 0xA DUP5 ADD SLOAD PUSH1 0x60 DUP5 ADD MSTORE PUSH1 0xB DUP5 ADD SLOAD PUSH1 0x80 DUP5 ADD MSTORE PUSH1 0xC DUP5 ADD SLOAD PUSH1 0xA0 DUP5 ADD MSTORE PUSH1 0xD DUP5 ADD SLOAD PUSH1 0xC0 DUP5 ADD MSTORE PUSH1 0xE DUP5 ADD SLOAD PUSH1 0xE0 DUP5 ADD MSTORE PUSH1 0xF DUP5 ADD SLOAD PUSH2 0x100 DUP1 DUP6 ADD SWAP2 SWAP1 SWAP2 MSTORE PUSH1 0x10 DUP6 ADD SLOAD PUSH1 0xFF DUP2 AND PUSH2 0x120 DUP7 ADD MSTORE DIV PUSH4 0xFFFFFFFF AND PUSH2 0x140 DUP5 ADD MSTORE PUSH1 0x11 DUP5 ADD SLOAD PUSH2 0x160 DUP5 ADD MSTORE PUSH1 0x12 DUP5 ADD SLOAD PUSH2 0x180 DUP5 ADD MSTORE PUSH1 0x13 DUP5 ADD SLOAD PUSH2 0x1A0 DUP5 ADD MSTORE PUSH1 0x14 DUP5 ADD SLOAD PUSH2 0x1C0 DUP5 ADD MSTORE PUSH1 0x15 DUP5 ADD SLOAD PUSH2 0x1E0 DUP5 ADD MSTORE PUSH1 0x16 DUP5 ADD SLOAD PUSH2 0x200 DUP5 ADD MSTORE PUSH1 0x17 DUP5 ADD SLOAD PUSH2 0x220 DUP5 ADD MSTORE PUSH1 0x18 DUP5 ADD DUP1 SLOAD DUP3 MLOAD DUP2 DUP6 MUL DUP2 ADD DUP6 ADD SWAP1 SWAP4 MSTORE DUP1 DUP4 MSTORE PUSH2 0x240 SWAP1 SWAP5 ADD SWAP4 SWAP2 SWAP3 SWAP1 SWAP2 SWAP1 DUP4 ADD DUP3 DUP3 DUP1 ISZERO PUSH2 0x17A8 JUMPI PUSH1 0x20 MUL DUP3 ADD SWAP2 SWAP1 PUSH1 0x0 MSTORE PUSH1 0x20 PUSH1 0x0 KECCAK256 SWAP1 PUSH1 0x0 SWAP1 JUMPDEST DUP3 DUP3 SWAP1 SLOAD SWAP1 PUSH2 0x100 EXP SWAP1 DIV PUSH4 0xFFFFFFFF AND PUSH4 0xFFFFFFFF AND DUP2 MSTORE PUSH1 0x20 ADD SWAP1 PUSH1 0x4 ADD SWAP1 PUSH1 0x20 DUP3 PUSH1 0x3 ADD DIV SWAP3 DUP4 ADD SWAP3 PUSH1 0x1 SUB DUP3 MUL SWAP2 POP DUP1 DUP5 GT PUSH2 0x176B JUMPI SWAP1 POP JUMPDEST POP POP POP SWAP2 DUP4 MSTORE POP POP PUSH1 0x19 DUP3 ADD SLOAD PUSH1 0x20 DUP3 ADD MSTORE PUSH1 0x1A DUP3 ADD SLOAD PUSH1 0x40 DUP3 ADD MSTORE PUSH1 0x1B DUP3 ADD SLOAD PUSH1 0x60 DUP3 ADD MSTORE PUSH1 0x1C SWAP1 SWAP2 ADD SLOAD PUSH1 0xFF DUP1 DUP3 AND ISZERO ISZERO PUSH1 0x80 DUP5 ADD MSTORE PUSH2 0x100 DUP3 DIV DUP2 AND ISZERO ISZERO PUSH1 0xA0 DUP5 ADD MSTORE PUSH3 0x10000 DUP3 DIV DUP2 AND ISZERO ISZERO PUSH1 0xC0 DUP5 ADD MSTORE PUSH4 0x1000000 SWAP1 SWAP2 DIV AND ISZERO ISZERO PUSH1 0xE0 SWAP1 SWAP2 ADD MSTORE PUSH2 0x2C0 DUP2 ADD MLOAD PUSH2 0x2E0 DUP3 ADD MLOAD PUSH2 0x300 SWAP1 SWAP3 ADD MLOAD SWAP1 SWAP8 SWAP2 SWAP7 POP SWAP5 POP SWAP3 POP POP POP JUMP JUMPDEST PUSH1 0x1 PUSH1 0x1 PUSH1 0xA0 SHL SUB PUSH32 0x0 AND ADDRESS SUB PUSH2 0x1876 JUMPI PUSH1 0x40 MLOAD PUSH3 0x461BCD PUSH1 0xE5 SHL DUP2 MSTORE PUSH1 0x4 ADD PUSH2 0x1106 SWAP1 PUSH2 0x5B4E JUMP JUMPDEST PUSH32 0x0 PUSH1 0x1 PUSH1 0x1 PUSH1 0xA0 SHL SUB AND PUSH2 0x18BF PUSH1 0x0 DUP1 MLOAD PUSH1 0x20 PUSH2 0x5F15 DUP4 CODECOPY DUP2 MLOAD SWAP2 MSTORE SLOAD PUSH1 0x1 PUSH1 0x1 PUSH1 0xA0 SHL SUB AND SWAP1 JUMP JUMPDEST PUSH1 0x1 PUSH1 0x1 PUSH1 0xA0 SHL SUB AND EQ PUSH2 0x18E5 JUMPI PUSH1 0x40 MLOAD PUSH3 0x461BCD PUSH1 0xE5 SHL DUP2 MSTORE PUSH1 0x4 ADD PUSH2 0x1106 SWAP1 PUSH2 0x5B9A JUMP JUMPDEST PUSH2 0x18EE DUP3 PUSH2 0x363C JUMP JUMPDEST PUSH2 0x1288 DUP3 DUP3 PUSH1 0x1 PUSH2 0x3644 JUMP JUMPDEST PUSH1 0xC9 SLOAD PUSH1 0x40 MLOAD PUSH4 0x935E01B PUSH1 0xE2 SHL DUP2 MSTORE CALLER PUSH1 0x4 DUP3 ADD MSTORE PUSH1 0x1 PUSH1 0x1 PUSH1 0xA0 SHL SUB SWAP1 SWAP2 AND SWAP1 PUSH4 0x24D7806C SWAP1 PUSH1 0x24 ADD PUSH1 0x20 PUSH1 0x40 MLOAD DUP1 DUP4 SUB DUP2 DUP7 GAS STATICCALL ISZERO DUP1 ISZERO PUSH2 0x1942 JUMPI RETURNDATASIZE PUSH1 0x0 DUP1 RETURNDATACOPY RETURNDATASIZE PUSH1 0x0 REVERT JUMPDEST POP POP POP POP PUSH1 0x40 MLOAD RETURNDATASIZE PUSH1 0x1F NOT PUSH1 0x1F DUP3 ADD AND DUP3 ADD DUP1 PUSH1 0x40 MSTORE POP DUP2 ADD SWAP1 PUSH2 0x1966 SWAP2 SWAP1 PUSH2 0x5BE6 JUMP JUMPDEST PUSH2 0x1982 JUMPI PUSH1 0x40 MLOAD PUSH3 0x461BCD PUSH1 0xE5 SHL DUP2 MSTORE PUSH1 0x4 ADD PUSH2 0x1106 SWAP1 PUSH2 0x5C03 JUMP JUMPDEST PUSH4 0xFFFFFFFF DUP3 AND PUSH1 0x0 SWAP1 DUP2 MSTORE PUSH1 0xD7 PUSH1 0x20 MSTORE PUSH1 0x40 DUP2 KECCAK256 TIMESTAMP PUSH1 0x1A DUP3 ADD SSTORE PUSH1 0x19 DUP2 ADD DUP1 SLOAD SWAP2 SWAP3 DUP5 SWAP3 PUSH2 0x19B2 SWAP1 DUP5 SWAP1 PUSH2 0x5D53 JUMP JUMPDEST SWAP3 POP POP DUP2 SWAP1 SSTORE POP DUP2 DUP2 PUSH1 0x12 ADD PUSH1 0x0 DUP3 DUP3 SLOAD PUSH2 0x19CD SWAP2 SWAP1 PUSH2 0x5D53 JUMP JUMPDEST SWAP3 POP POP DUP2 SWAP1 SSTORE POP DUP2 DUP2 PUSH1 0x1B ADD PUSH1 0x0 DUP3 DUP3 SLOAD PUSH2 0x19E8 SWAP2 SWAP1 PUSH2 0x5D53 JUMP JUMPDEST SWAP1 SWAP2 SSTORE POP POP POP POP POP JUMP JUMPDEST PUSH1 0x0 ADDRESS PUSH1 0x1 PUSH1 0x1 PUSH1 0xA0 SHL SUB PUSH32 0x0 AND EQ PUSH2 0x1A92 JUMPI PUSH1 0x40 MLOAD PUSH3 0x461BCD PUSH1 0xE5 SHL DUP2 MSTORE PUSH1 0x20 PUSH1 0x4 DUP3 ADD MSTORE PUSH1 0x38 PUSH1 0x24 DUP3 ADD MSTORE PUSH32 0x555550535570677261646561626C653A206D757374206E6F742062652063616C PUSH1 0x44 DUP3 ADD MSTORE PUSH32 0x6C6564207468726F7567682064656C656761746563616C6C0000000000000000 PUSH1 0x64 DUP3 ADD MSTORE PUSH1 0x84 ADD PUSH2 0x1106 JUMP JUMPDEST POP PUSH1 0x0 DUP1 MLOAD PUSH1 0x20 PUSH2 0x5F15 DUP4 CODECOPY DUP2 MLOAD SWAP2 MSTORE SWAP1 JUMP JUMPDEST PUSH1 0xC9 SLOAD PUSH1 0x40 MLOAD PUSH4 0x935E01B PUSH1 0xE2 SHL DUP2 MSTORE CALLER PUSH1 0x4 DUP3 ADD MSTORE PUSH1 0x1 PUSH1 0x1 PUSH1 0xA0 SHL SUB SWAP1 SWAP2 AND SWAP1 PUSH4 0x24D7806C SWAP1 PUSH1 0x24 ADD PUSH1 0x20 PUSH1 0x40 MLOAD DUP1 DUP4 SUB DUP2 DUP7 GAS STATICCALL ISZERO DUP1 ISZERO PUSH2 0x1AED JUMPI RETURNDATASIZE PUSH1 0x0 DUP1 RETURNDATACOPY RETURNDATASIZE PUSH1 0x0 REVERT JUMPDEST POP POP POP POP PUSH1 0x40 MLOAD RETURNDATASIZE PUSH1 0x1F NOT PUSH1 0x1F DUP3 ADD AND DUP3 ADD DUP1 PUSH1 0x40 MSTORE POP DUP2 ADD SWAP1 PUSH2 0x1B11 SWAP2 SWAP1 PUSH2 0x5BE6 JUMP JUMPDEST PUSH2 0x1B2D JUMPI PUSH1 0x40 MLOAD PUSH3 0x461BCD PUSH1 0xE5 SHL DUP2 MSTORE PUSH1 0x4 ADD PUSH2 0x1106 SWAP1 PUSH2 0x5C03 JUMP JUMPDEST PUSH1 0xCF DUP1 SLOAD PUSH4 0xFFFFFFFF NOT AND PUSH4 0xFFFFFFFF SWAP3 SWAP1 SWAP3 AND SWAP2 SWAP1 SWAP2 OR SWAP1 SSTORE JUMP JUMPDEST PUSH1 0xC9 SLOAD PUSH1 0x40 MLOAD PUSH4 0x935E01B PUSH1 0xE2 SHL DUP2 MSTORE CALLER PUSH1 0x4 DUP3 ADD MSTORE PUSH1 0x1 PUSH1 0x1 PUSH1 0xA0 SHL SUB SWAP1 SWAP2 AND SWAP1 PUSH4 0x24D7806C SWAP1 PUSH1 0x24 ADD PUSH1 0x20 PUSH1 0x40 MLOAD DUP1 DUP4 SUB DUP2 DUP7 GAS STATICCALL ISZERO DUP1 ISZERO PUSH2 0x1B91 JUMPI RETURNDATASIZE PUSH1 0x0 DUP1 RETURNDATACOPY RETURNDATASIZE PUSH1 0x0 REVERT JUMPDEST POP POP POP POP PUSH1 0x40 MLOAD RETURNDATASIZE PUSH1 0x1F NOT PUSH1 0x1F DUP3 ADD AND DUP3 ADD DUP1 PUSH1 0x40 MSTORE POP DUP2 ADD SWAP1 PUSH2 0x1BB5 SWAP2 SWAP1 PUSH2 0x5BE6 JUMP JUMPDEST PUSH2 0x1BD1 JUMPI PUSH1 0x40 MLOAD PUSH3 0x461BCD PUSH1 0xE5 SHL DUP2 MSTORE PUSH1 0x4 ADD PUSH2 0x1106 SWAP1 PUSH2 0x5C03 JUMP JUMPDEST PUSH4 0xFFFFFFFF DUP3 AND PUSH1 0x0 SWAP1 DUP2 MSTORE PUSH1 0xD7 PUSH1 0x20 MSTORE PUSH1 0x40 SWAP1 KECCAK256 PUSH2 0xA65 DUP2 DUP4 PUSH2 0x3EE6 JUMP JUMPDEST PUSH2 0x1BF8 PUSH2 0x34EB JUMP JUMPDEST PUSH2 0x1C02 PUSH1 0x0 PUSH2 0x3F70 JUMP JUMPDEST JUMP JUMPDEST PUSH1 0xCA DUP2 DUP2 SLOAD DUP2 LT PUSH2 0x1C14 JUMPI PUSH1 0x0 DUP1 REVERT JUMPDEST SWAP1 PUSH1 0x0 MSTORE PUSH1 0x20 PUSH1 0x0 KECCAK256 SWAP1 PUSH1 0x10 SWAP2 DUP3 DUP3 DIV ADD SWAP2 SWAP1 MOD PUSH1 0x2 MUL SWAP2 POP SLOAD SWAP1 PUSH2 0x100 EXP SWAP1 DIV PUSH2 0xFFFF AND DUP2 JUMP JUMPDEST PUSH2 0x1C97 PUSH1 0x40 MLOAD DUP1 PUSH2 0x140 ADD PUSH1 0x40 MSTORE DUP1 PUSH1 0x0 PUSH1 0xFF AND DUP2 MSTORE PUSH1 0x20 ADD PUSH1 0x0 DUP2 MSTORE PUSH1 0x20 ADD PUSH1 0x0 DUP2 MSTORE PUSH1 0x20 ADD PUSH1 0x0 DUP2 MSTORE PUSH1 0x20 ADD PUSH1 0x60 DUP2 MSTORE PUSH1 0x20 ADD PUSH1 0x0 DUP2 MSTORE PUSH1 0x20 ADD PUSH1 0x0 DUP2 MSTORE PUSH1 0x20 ADD PUSH1 0x0 DUP2 MSTORE PUSH1 0x20 ADD PUSH1 0x0 ISZERO ISZERO DUP2 MSTORE PUSH1 0x20 ADD PUSH1 0x60 DUP2 MSTORE POP SWAP1 JUMP JUMPDEST PUSH1 0xFF DUP1 DUP4 AND PUSH1 0x0 SWAP1 DUP2 MSTORE PUSH1 0xD8 PUSH1 0x20 SWAP1 DUP2 MSTORE PUSH1 0x40 SWAP2 DUP3 SWAP1 KECCAK256 DUP3 MLOAD PUSH2 0x140 DUP2 ADD DUP5 MSTORE DUP2 SLOAD SWAP1 SWAP5 AND DUP5 MSTORE PUSH1 0x1 DUP2 ADD SLOAD SWAP2 DUP5 ADD SWAP2 SWAP1 SWAP2 MSTORE PUSH1 0x2 DUP2 ADD SLOAD SWAP2 DUP4 ADD SWAP2 SWAP1 SWAP2 MSTORE PUSH1 0x3 DUP2 ADD SLOAD PUSH1 0x60 DUP4 ADD MSTORE PUSH1 0x4 DUP2 ADD DUP1 SLOAD PUSH1 0x80 DUP5 ADD SWAP2 SWAP1 PUSH2 0x1CF5 SWAP1 PUSH2 0x5B14 JUMP JUMPDEST DUP1 PUSH1 0x1F ADD PUSH1 0x20 DUP1 SWAP2 DIV MUL PUSH1 0x20 ADD PUSH1 0x40 MLOAD SWAP1 DUP2 ADD PUSH1 0x40 MSTORE DUP1 SWAP3 SWAP2 SWAP1 DUP2 DUP2 MSTORE PUSH1 0x20 ADD DUP3 DUP1 SLOAD PUSH2 0x1D21 SWAP1 PUSH2 0x5B14 JUMP JUMPDEST DUP1 ISZERO PUSH2 0x1D6E JUMPI DUP1 PUSH1 0x1F LT PUSH2 0x1D43 JUMPI PUSH2 0x100 DUP1 DUP4 SLOAD DIV MUL DUP4 MSTORE SWAP2 PUSH1 0x20 ADD SWAP2 PUSH2 0x1D6E JUMP JUMPDEST DUP3 ADD SWAP2 SWAP1 PUSH1 0x0 MSTORE PUSH1 0x20 PUSH1 0x0 KECCAK256 SWAP1 JUMPDEST DUP2 SLOAD DUP2 MSTORE SWAP1 PUSH1 0x1 ADD SWAP1 PUSH1 0x20 ADD DUP1 DUP4 GT PUSH2 0x1D51 JUMPI DUP3 SWAP1 SUB PUSH1 0x1F AND DUP3 ADD SWAP2 JUMPDEST POP POP POP POP POP DUP2 MSTORE PUSH1 0x20 ADD PUSH1 0x5 DUP3 ADD SLOAD DUP2 MSTORE PUSH1 0x20 ADD PUSH1 0x6 DUP3 ADD SLOAD DUP2 MSTORE PUSH1 0x20 ADD PUSH1 0x7 DUP3 ADD SLOAD DUP2 MSTORE PUSH1 0x20 ADD PUSH1 0x8 DUP3 ADD PUSH1 0x0 SWAP1 SLOAD SWAP1 PUSH2 0x100 EXP SWAP1 DIV PUSH1 0xFF AND ISZERO ISZERO ISZERO ISZERO DUP2 MSTORE PUSH1 0x20 ADD PUSH1 0x9 DUP3 ADD DUP1 SLOAD DUP1 PUSH1 0x20 MUL PUSH1 0x20 ADD PUSH1 0x40 MLOAD SWAP1 DUP2 ADD PUSH1 0x40 MSTORE DUP1 SWAP3 SWAP2 SWAP1 DUP2 DUP2 MSTORE PUSH1 0x20 ADD DUP3 DUP1 SLOAD DUP1 ISZERO PUSH2 0x1E2B JUMPI PUSH1 0x20 MUL DUP3 ADD SWAP2 SWAP1 PUSH1 0x0 MSTORE PUSH1 0x20 PUSH1 0x0 KECCAK256 SWAP1 PUSH1 0x0 SWAP1 JUMPDEST DUP3 DUP3 SWAP1 SLOAD SWAP1 PUSH2 0x100 EXP SWAP1 DIV PUSH4 0xFFFFFFFF AND PUSH4 0xFFFFFFFF AND DUP2 MSTORE PUSH1 0x20 ADD SWAP1 PUSH1 0x4 ADD SWAP1 PUSH1 0x20 DUP3 PUSH1 0x3 ADD DIV SWAP3 DUP4 ADD SWAP3 PUSH1 0x1 SUB DUP3 MUL SWAP2 POP DUP1 DUP5 GT PUSH2 0x1DEE JUMPI SWAP1 POP JUMPDEST POP POP POP POP POP DUP2 MSTORE POP POP SWAP1 POP SWAP2 SWAP1 POP JUMP JUMPDEST PUSH1 0x0 SLOAD PUSH2 0x100 SWAP1 DIV PUSH1 0xFF AND ISZERO DUP1 DUP1 ISZERO PUSH2 0x1E5B JUMPI POP PUSH1 0x0 SLOAD PUSH1 0x1 PUSH1 0xFF SWAP1 SWAP2 AND LT JUMPDEST DUP1 PUSH2 0x1E75 JUMPI POP ADDRESS EXTCODESIZE ISZERO DUP1 ISZERO PUSH2 0x1E75 JUMPI POP PUSH1 0x0 SLOAD PUSH1 0xFF AND PUSH1 0x1 EQ JUMPDEST PUSH2 0x1ED8 JUMPI PUSH1 0x40 MLOAD PUSH3 0x461BCD PUSH1 0xE5 SHL DUP2 MSTORE PUSH1 0x20 PUSH1 0x4 DUP3 ADD MSTORE PUSH1 0x2E PUSH1 0x24 DUP3 ADD MSTORE PUSH32 0x496E697469616C697A61626C653A20636F6E747261637420697320616C726561 PUSH1 0x44 DUP3 ADD MSTORE PUSH14 0x191E481A5B9A5D1A585B1A5E9959 PUSH1 0x92 SHL PUSH1 0x64 DUP3 ADD MSTORE PUSH1 0x84 ADD PUSH2 0x1106 JUMP JUMPDEST PUSH1 0x0 DUP1 SLOAD PUSH1 0xFF NOT AND PUSH1 0x1 OR SWAP1 SSTORE DUP1 ISZERO PUSH2 0x1EFB JUMPI PUSH1 0x0 DUP1 SLOAD PUSH2 0xFF00 NOT AND PUSH2 0x100 OR SWAP1 SSTORE JUMPDEST PUSH1 0xC9 DUP1 SLOAD PUSH1 0x1 PUSH1 0x1 PUSH1 0xA0 SHL SUB NOT AND PUSH20 0x7ECF19C95F2639CF0183639DBA852FADE713EEFC OR SWAP1 SSTORE PUSH1 0xCB DUP1 SLOAD PUSH2 0xFFFF NOT AND PUSH2 0x3E8 OR SWAP1 SSTORE PUSH1 0x40 DUP1 MLOAD PUSH2 0x3A0 DUP2 ADD DUP3 MSTORE PUSH1 0x64 DUP2 MSTORE PUSH1 0x46 PUSH1 0x20 DUP3 ADD MSTORE PUSH1 0x32 SWAP2 DUP2 ADD DUP3 SWAP1 MSTORE PUSH1 0x60 DUP2 ADD DUP3 SWAP1 MSTORE PUSH1 0x80 DUP2 ADD DUP3 SWAP1 MSTORE PUSH1 0xA0 DUP2 ADD DUP3 SWAP1 MSTORE PUSH1 0xC0 DUP2 ADD DUP3 SWAP1 MSTORE PUSH1 0xE0 DUP2 ADD DUP3 SWAP1 MSTORE PUSH2 0x100 DUP2 ADD DUP3 SWAP1 MSTORE PUSH2 0x120 DUP2 ADD DUP3 SWAP1 MSTORE PUSH2 0x140 DUP2 ADD DUP3 SWAP1 MSTORE PUSH2 0x160 DUP2 ADD DUP3 SWAP1 MSTORE PUSH2 0x180 DUP2 ADD DUP3 SWAP1 MSTORE PUSH2 0x1A0 DUP2 ADD DUP3 SWAP1 MSTORE PUSH2 0x1C0 DUP2 ADD DUP3 SWAP1 MSTORE PUSH2 0x1E0 DUP2 ADD DUP3 SWAP1 MSTORE PUSH2 0x200 DUP2 ADD DUP3 SWAP1 MSTORE PUSH2 0x220 DUP2 ADD DUP3 SWAP1 MSTORE PUSH2 0x240 DUP2 ADD SWAP2 SWAP1 SWAP2 MSTORE PUSH1 0x14 PUSH2 0x260 DUP3 ADD DUP2 SWAP1 MSTORE PUSH2 0x280 DUP3 ADD DUP2 SWAP1 MSTORE PUSH2 0x2A0 DUP3 ADD DUP2 SWAP1 MSTORE PUSH2 0x2C0 DUP3 ADD DUP2 SWAP1 MSTORE PUSH2 0x2E0 DUP3 ADD DUP2 SWAP1 MSTORE PUSH2 0x300 DUP3 ADD DUP2 SWAP1 MSTORE PUSH2 0x320 DUP3 ADD DUP2 SWAP1 MSTORE PUSH2 0x340 DUP3 ADD DUP2 SWAP1 MSTORE PUSH2 0x360 DUP3 ADD DUP2 SWAP1 MSTORE PUSH2 0x380 DUP3 ADD MSTORE PUSH2 0x2028 SWAP1 PUSH1 0xCA SWAP1 PUSH1 0x1D PUSH2 0x5145 JUMP JUMPDEST POP PUSH1 0xCB DUP1 SLOAD PUSH3 0xFF0000 NOT AND PUSH3 0x320000 OR SWAP1 SSTORE PUSH9 0x56BC75E2D63100000 PUSH1 0xCC SSTORE PUSH1 0xCF DUP1 SLOAD PUSH7 0x2000000000000 PUSH7 0xFF00FF00000000 NOT SWAP1 SWAP2 AND OR SWAP1 SSTORE PUSH1 0xD5 DUP1 SLOAD PUSH3 0x278D00 PUSH1 0xD2 SSTORE PUSH3 0xFFFFFF NOT AND PUSH3 0x140101 OR SWAP1 SSTORE PUSH2 0x2082 PUSH2 0x3FC2 JUMP JUMPDEST PUSH2 0x208A PUSH2 0x3FF1 JUMP JUMPDEST DUP1 ISZERO PUSH2 0x10BB JUMPI PUSH1 0x0 DUP1 SLOAD PUSH2 0xFF00 NOT AND SWAP1 SSTORE PUSH1 0x40 MLOAD PUSH1 0x1 DUP2 MSTORE PUSH32 0x7F26B83FF96E1F2B6A682F133852F6798A09C465DA95921460CEFB3847402498 SWAP1 PUSH1 0x20 ADD JUMPDEST PUSH1 0x40 MLOAD DUP1 SWAP2 SUB SWAP1 LOG1 POP JUMP JUMPDEST PUSH4 0xFFFFFFFF DUP1 DUP3 AND PUSH1 0x0 SWAP1 DUP2 MSTORE PUSH1 0xD7 PUSH1 0x20 SWAP1 DUP2 MSTORE PUSH1 0x40 DUP1 DUP4 KECCAK256 DUP2 MLOAD PUSH2 0x480 DUP2 ADD SWAP1 SWAP3 MSTORE DUP1 SLOAD SWAP1 SWAP5 AND DUP2 MSTORE PUSH1 0x1 DUP5 ADD DUP1 SLOAD SWAP4 SWAP5 DUP6 SWAP5 SWAP3 SWAP4 SWAP1 SWAP3 SWAP1 DUP5 ADD SWAP2 SWAP1 PUSH2 0x2119 SWAP1 PUSH2 0x5B14 JUMP JUMPDEST DUP1 PUSH1 0x1F ADD PUSH1 0x20 DUP1 SWAP2 DIV MUL PUSH1 0x20 ADD PUSH1 0x40 MLOAD SWAP1 DUP2 ADD PUSH1 0x40 MSTORE DUP1 SWAP3 SWAP2 SWAP1 DUP2 DUP2 MSTORE PUSH1 0x20 ADD DUP3 DUP1 SLOAD PUSH2 0x2145 SWAP1 PUSH2 0x5B14 JUMP JUMPDEST DUP1 ISZERO PUSH2 0x2192 JUMPI DUP1 PUSH1 0x1F LT PUSH2 0x2167 JUMPI PUSH2 0x100 DUP1 DUP4 SLOAD DIV MUL DUP4 MSTORE SWAP2 PUSH1 0x20 ADD SWAP2 PUSH2 0x2192 JUMP JUMPDEST DUP3 ADD SWAP2 SWAP1 PUSH1 0x0 MSTORE PUSH1 0x20 PUSH1 0x0 KECCAK256 SWAP1 JUMPDEST DUP2 SLOAD DUP2 MSTORE SWAP1 PUSH1 0x1 ADD SWAP1 PUSH1 0x20 ADD DUP1 DUP4 GT PUSH2 0x2175 JUMPI DUP3 SWAP1 SUB PUSH1 0x1F AND DUP3 ADD SWAP2 JUMPDEST POP POP POP SWAP2 DUP4 MSTORE POP POP PUSH1 0x2 DUP3 ADD SLOAD PUSH1 0x20 DUP1 DUP4 ADD SWAP2 SWAP1 SWAP2 MSTORE PUSH1 0x3 DUP4 ADD SLOAD PUSH1 0xFF DUP1 DUP3 AND ISZERO ISZERO PUSH1 0x40 DUP1 DUP7 ADD SWAP2 SWAP1 SWAP2 MSTORE PUSH1 0x1 PUSH1 0x1 PUSH1 0xA0 SHL SUB PUSH2 0x100 DUP5 DIV AND PUSH1 0x60 DUP7 ADD MSTORE PUSH4 0xFFFFFFFF PUSH1 0x1 PUSH1 0xA8 SHL DUP5 DIV AND PUSH1 0x80 DUP7 ADD MSTORE PUSH1 0x1 PUSH1 0xC8 SHL SWAP1 SWAP3 DIV AND ISZERO ISZERO PUSH1 0xA0 DUP5 ADD MSTORE PUSH1 0x4 DUP5 ADD DUP1 SLOAD DUP3 MLOAD DUP2 DUP6 MUL DUP2 ADD DUP6 ADD SWAP1 SWAP4 MSTORE DUP1 DUP4 MSTORE PUSH1 0xC0 SWAP1 SWAP5 ADD SWAP4 SWAP2 SWAP3 SWAP1 SWAP2 SWAP1 DUP4 ADD DUP3 DUP3 DUP1 ISZERO PUSH2 0x226D JUMPI PUSH1 0x20 MUL DUP3 ADD SWAP2 SWAP1 PUSH1 0x0 MSTORE PUSH1 0x20 PUSH1 0x0 KECCAK256 SWAP1 PUSH1 0x0 SWAP1 JUMPDEST DUP3 DUP3 SWAP1 SLOAD SWAP1 PUSH2 0x100 EXP SWAP1 DIV PUSH4 0xFFFFFFFF AND PUSH4 0xFFFFFFFF AND DUP2 MSTORE PUSH1 0x20 ADD SWAP1 PUSH1 0x4 ADD SWAP1 PUSH1 0x20 DUP3 PUSH1 0x3 ADD DIV SWAP3 DUP4 ADD SWAP3 PUSH1 0x1 SUB DUP3 MUL SWAP2 POP DUP1 DUP5 GT PUSH2 0x2230 JUMPI SWAP1 POP JUMPDEST POP POP POP POP POP DUP2 MSTORE PUSH1 0x20 ADD PUSH1 0x5 DUP3 ADD DUP1 SLOAD DUP1 PUSH1 0x20 MUL PUSH1 0x20 ADD PUSH1 0x40 MLOAD SWAP1 DUP2 ADD PUSH1 0x40 MSTORE DUP1 SWAP3 SWAP2 SWAP1 DUP2 DUP2 MSTORE PUSH1 0x20 ADD DUP3 DUP1 SLOAD DUP1 ISZERO PUSH2 0x22F1 JUMPI PUSH1 0x20 MUL DUP3 ADD SWAP2 SWAP1 PUSH1 0x0 MSTORE PUSH1 0x20 PUSH1 0x0 KECCAK256 SWAP1 PUSH1 0x0 SWAP1 JUMPDEST DUP3 DUP3 SWAP1 SLOAD SWAP1 PUSH2 0x100 EXP SWAP1 DIV PUSH4 0xFFFFFFFF AND PUSH4 0xFFFFFFFF AND DUP2 MSTORE PUSH1 0x20 ADD SWAP1 PUSH1 0x4 ADD SWAP1 PUSH1 0x20 DUP3 PUSH1 0x3 ADD DIV SWAP3 DUP4 ADD SWAP3 PUSH1 0x1 SUB DUP3 MUL SWAP2 POP DUP1 DUP5 GT PUSH2 0x22B4 JUMPI SWAP1 POP JUMPDEST POP POP POP POP POP DUP2 MSTORE PUSH1 0x20 ADD PUSH1 0x6 DUP3 ADD DUP1 SLOAD DUP1 PUSH1 0x20 MUL PUSH1 0x20 ADD PUSH1 0x40 MLOAD SWAP1 DUP2 ADD PUSH1 0x40 MSTORE DUP1 SWAP3 SWAP2 SWAP1 DUP2 DUP2 MSTORE PUSH1 0x20 ADD DUP3 DUP1 SLOAD DUP1 ISZERO PUSH2 0x2375 JUMPI PUSH1 0x20 MUL DUP3 ADD SWAP2 SWAP1 PUSH1 0x0 MSTORE PUSH1 0x20 PUSH1 0x0 KECCAK256 SWAP1 PUSH1 0x0 SWAP1 JUMPDEST DUP3 DUP3 SWAP1 SLOAD SWAP1 PUSH2 0x100 EXP SWAP1 DIV PUSH4 0xFFFFFFFF AND PUSH4 0xFFFFFFFF AND DUP2 MSTORE PUSH1 0x20 ADD SWAP1 PUSH1 0x4 ADD SWAP1 PUSH1 0x20 DUP3 PUSH1 0x3 ADD DIV SWAP3 DUP4 ADD SWAP3 PUSH1 0x1 SUB DUP3 MUL SWAP2 POP DUP1 DUP5 GT PUSH2 0x2338 JUMPI SWAP1 POP JUMPDEST POP POP POP POP POP DUP2 MSTORE PUSH1 0x20 ADD PUSH1 0x7 DUP3 ADD DUP1 SLOAD DUP1 PUSH1 0x20 MUL PUSH1 0x20 ADD PUSH1 0x40 MLOAD SWAP1 DUP2 ADD PUSH1 0x40 MSTORE DUP1 SWAP3 SWAP2 SWAP1 DUP2 DUP2 MSTORE PUSH1 0x20 ADD DUP3 DUP1 SLOAD DUP1 ISZERO PUSH2 0x23CD JUMPI PUSH1 0x20 MUL DUP3 ADD SWAP2 SWAP1 PUSH1 0x0 MSTORE PUSH1 0x20 PUSH1 0x0 KECCAK256 SWAP1 JUMPDEST DUP2 SLOAD DUP2 MSTORE PUSH1 0x20 ADD SWAP1 PUSH1 0x1 ADD SWAP1 DUP1 DUP4 GT PUSH2 0x23B9 JUMPI JUMPDEST POP POP POP SWAP2 DUP4 MSTORE POP POP PUSH1 0x8 DUP3 ADD SLOAD PUSH1 0x20 DUP1 DUP4 ADD SWAP2 SWAP1 SWAP2 MSTORE PUSH1 0x9 DUP4 ADD SLOAD PUSH1 0x40 DUP1 DUP5 ADD SWAP2 SWAP1 SWAP2 MSTORE PUSH1 0xA DUP5 ADD SLOAD PUSH1 0x60 DUP5 ADD MSTORE PUSH1 0xB DUP5 ADD SLOAD PUSH1 0x80 DUP5 ADD MSTORE PUSH1 0xC DUP5 ADD SLOAD PUSH1 0xA0 DUP5 ADD MSTORE PUSH1 0xD DUP5 ADD SLOAD PUSH1 0xC0 DUP5 ADD MSTORE PUSH1 0xE DUP5 ADD SLOAD PUSH1 0xE0 DUP5 ADD MSTORE PUSH1 0xF DUP5 ADD SLOAD PUSH2 0x100 DUP1 DUP6 ADD SWAP2 SWAP1 SWAP2 MSTORE PUSH1 0x10 DUP6 ADD SLOAD PUSH1 0xFF DUP2 AND PUSH2 0x120 DUP7 ADD MSTORE DIV PUSH4 0xFFFFFFFF AND PUSH2 0x140 DUP5 ADD MSTORE PUSH1 0x11 DUP5 ADD SLOAD PUSH2 0x160 DUP5 ADD MSTORE PUSH1 0x12 DUP5 ADD SLOAD PUSH2 0x180 DUP5 ADD MSTORE PUSH1 0x13 DUP5 ADD SLOAD PUSH2 0x1A0 DUP5 ADD MSTORE PUSH1 0x14 DUP5 ADD SLOAD PUSH2 0x1C0 DUP5 ADD MSTORE PUSH1 0x15 DUP5 ADD SLOAD PUSH2 0x1E0 DUP5 ADD MSTORE PUSH1 0x16 DUP5 ADD SLOAD PUSH2 0x200 DUP5 ADD MSTORE PUSH1 0x17 DUP5 ADD SLOAD PUSH2 0x220 DUP5 ADD MSTORE PUSH1 0x18 DUP5 ADD DUP1 SLOAD DUP3 MLOAD DUP2 DUP6 MUL DUP2 ADD DUP6 ADD SWAP1 SWAP4 MSTORE DUP1 DUP4 MSTORE PUSH2 0x240 SWAP1 SWAP5 ADD SWAP4 SWAP2 SWAP3 SWAP1 SWAP2 SWAP1 DUP4 ADD DUP3 DUP3 DUP1 ISZERO PUSH2 0x2517 JUMPI PUSH1 0x20 MUL DUP3 ADD SWAP2 SWAP1 PUSH1 0x0 MSTORE PUSH1 0x20 PUSH1 0x0 KECCAK256 SWAP1 PUSH1 0x0 SWAP1 JUMPDEST DUP3 DUP3 SWAP1 SLOAD SWAP1 PUSH2 0x100 EXP SWAP1 DIV PUSH4 0xFFFFFFFF AND PUSH4 0xFFFFFFFF AND DUP2 MSTORE PUSH1 0x20 ADD SWAP1 PUSH1 0x4 ADD SWAP1 PUSH1 0x20 DUP3 PUSH1 0x3 ADD DIV SWAP3 DUP4 ADD SWAP3 PUSH1 0x1 SUB DUP3 MUL SWAP2 POP DUP1 DUP5 GT PUSH2 0x24DA JUMPI SWAP1 POP JUMPDEST POP POP POP SWAP2 DUP4 MSTORE POP POP PUSH1 0x19 DUP3 ADD SLOAD PUSH1 0x20 DUP3 ADD MSTORE PUSH1 0x1A DUP3 ADD SLOAD PUSH1 0x40 DUP3 ADD MSTORE PUSH1 0x1B DUP3 ADD SLOAD PUSH1 0x60 DUP3 ADD MSTORE PUSH1 0x1C SWAP1 SWAP2 ADD SLOAD PUSH1 0xFF DUP1 DUP3 AND ISZERO ISZERO PUSH1 0x80 DUP5 ADD MSTORE PUSH2 0x100 DUP3 DIV DUP2 AND ISZERO ISZERO PUSH1 0xA0 DUP5 ADD MSTORE PUSH3 0x10000 DUP3 DIV DUP2 AND ISZERO ISZERO PUSH1 0xC0 DUP5 ADD MSTORE PUSH4 0x1000000 SWAP1 SWAP2 DIV AND ISZERO ISZERO PUSH1 0xE0 SWAP1 SWAP2 ADD MSTORE SWAP1 POP PUSH2 0x2588 DUP2 PUSH2 0x4018 JUMP JUMPDEST PUSH1 0xFF AND SWAP4 SWAP3 POP POP POP JUMP JUMPDEST PUSH1 0xC9 SLOAD PUSH1 0x40 MLOAD PUSH4 0x935E01B PUSH1 0xE2 SHL DUP2 MSTORE CALLER PUSH1 0x4 DUP3 ADD MSTORE PUSH1 0x1 PUSH1 0x1 PUSH1 0xA0 SHL SUB SWAP1 SWAP2 AND SWAP1 PUSH4 0x24D7806C SWAP1 PUSH1 0x24 ADD PUSH1 0x20 PUSH1 0x40 MLOAD DUP1 DUP4 SUB DUP2 DUP7 GAS STATICCALL ISZERO DUP1 ISZERO PUSH2 0x25DA JUMPI RETURNDATASIZE PUSH1 0x0 DUP1 RETURNDATACOPY RETURNDATASIZE PUSH1 0x0 REVERT JUMPDEST POP POP POP POP PUSH1 0x40 MLOAD RETURNDATASIZE PUSH1 0x1F NOT PUSH1 0x1F DUP3 ADD AND DUP3 ADD DUP1 PUSH1 0x40 MSTORE POP DUP2 ADD SWAP1 PUSH2 0x25FE SWAP2 SWAP1 PUSH2 0x5BE6 JUMP JUMPDEST PUSH2 0x261A JUMPI PUSH1 0x40 MLOAD PUSH3 0x461BCD PUSH1 0xE5 SHL DUP2 MSTORE PUSH1 0x4 ADD PUSH2 0x1106 SWAP1 PUSH2 0x5C03 JUMP JUMPDEST PUSH1 0x1 PUSH1 0x1 PUSH1 0xA0 SHL SUB AND PUSH1 0x0 SWAP1 DUP2 MSTORE PUSH1 0xD6 PUSH1 0x20 MSTORE PUSH1 0x40 SWAP1 KECCAK256 DUP1 SLOAD PUSH1 0xFF NOT AND SWAP1 SSTORE JUMP JUMPDEST PUSH2 0x2643 PUSH2 0x34EB JUMP JUMPDEST PUSH1 0x40 MLOAD PUSH4 0xA9059CBB PUSH1 0xE0 SHL DUP2 MSTORE CALLER PUSH1 0x4 DUP3 ADD MSTORE PUSH1 0x24 DUP2 ADD DUP3 SWAP1 MSTORE PUSH1 0x1 PUSH1 0x1 PUSH1 0xA0 SHL SUB DUP4 AND SWAP1 PUSH4 0xA9059CBB SWAP1 PUSH1 0x44 ADD PUSH1 0x20 PUSH1 0x40 MLOAD DUP1 DUP4 SUB DUP2 PUSH1 0x0 DUP8 GAS CALL ISZERO DUP1 ISZERO PUSH2 0x2690 JUMPI RETURNDATASIZE PUSH1 0x0 DUP1 RETURNDATACOPY RETURNDATASIZE PUSH1 0x0 REVERT JUMPDEST POP POP POP POP PUSH1 0x40 MLOAD RETURNDATASIZE PUSH1 0x1F NOT PUSH1 0x1F DUP3 ADD AND DUP3 ADD DUP1 PUSH1 0x40 MSTORE POP DUP2 ADD SWAP1 PUSH2 0xA65 SWAP2 SWAP1 PUSH2 0x5BE6 JUMP JUMPDEST CALLVALUE PUSH1 0x0 PUSH2 0x26C0 DUP3 PUSH2 0x40CD JUMP JUMPDEST SWAP1 POP PUSH1 0xCC SLOAD DUP2 LT ISZERO PUSH2 0x2714 JUMPI PUSH1 0x40 MLOAD PUSH3 0x461BCD PUSH1 0xE5 SHL DUP2 MSTORE PUSH1 0x20 PUSH1 0x4 DUP3 ADD MSTORE PUSH1 0x1F PUSH1 0x24 DUP3 ADD MSTORE PUSH32 0x56616C7565206C657373207468656E206D696E436F6E747269627574696F6E00 PUSH1 0x44 DUP3 ADD MSTORE PUSH1 0x64 ADD PUSH2 0x1106 JUMP JUMPDEST PUSH4 0xFFFFFFFF DUP4 AND PUSH1 0x0 SWAP1 DUP2 MSTORE PUSH1 0xD7 PUSH1 0x20 MSTORE PUSH1 0x40 DUP2 KECCAK256 CALLER SWAP2 TIMESTAMP SWAP2 SWAP1 PUSH2 0x2739 DUP6 PUSH1 0x3 PUSH2 0x5D66 JUMP JUMPDEST DUP3 PUSH1 0x12 ADD SLOAD DUP4 PUSH1 0x14 ADD SLOAD PUSH2 0x274D SWAP2 SWAP1 PUSH2 0x5D7D JUMP JUMPDEST PUSH2 0x2757 SWAP2 SWAP1 PUSH2 0x5D53 JUMP JUMPDEST SWAP1 POP PUSH2 0x277C DUP3 DUP6 DUP10 PUSH1 0x0 DUP10 DUP7 DUP10 PUSH1 0xCB PUSH1 0x2 SWAP1 SLOAD SWAP1 PUSH2 0x100 EXP SWAP1 DIV PUSH1 0xFF AND PUSH1 0xFF AND PUSH2 0x41BB JUMP JUMPDEST PUSH1 0xD5 SLOAD PUSH1 0xFF AND ISZERO PUSH2 0x28C8 JUMPI PUSH1 0xC9 SLOAD PUSH1 0x40 DUP1 MLOAD PUSH4 0x44846F9D PUSH1 0xE1 SHL DUP2 MSTORE SWAP1 MLOAD PUSH1 0x0 SWAP3 PUSH1 0x1 PUSH1 0x1 PUSH1 0xA0 SHL SUB AND SWAP2 PUSH4 0x8908DF3A SWAP2 PUSH1 0x4 DUP1 DUP4 ADD SWAP3 PUSH1 0x20 SWAP3 SWAP2 SWAP1 DUP3 SWAP1 SUB ADD DUP2 DUP7 GAS STATICCALL ISZERO DUP1 ISZERO PUSH2 0x27D1 JUMPI RETURNDATASIZE PUSH1 0x0 DUP1 RETURNDATACOPY RETURNDATASIZE PUSH1 0x0 REVERT JUMPDEST POP POP POP POP PUSH1 0x40 MLOAD RETURNDATASIZE PUSH1 0x1F NOT PUSH1 0x1F DUP3 ADD AND DUP3 ADD DUP1 PUSH1 0x40 MSTORE POP DUP2 ADD SWAP1 PUSH2 0x27F5 SWAP2 SWAP1 PUSH2 0x5D90 JUMP JUMPDEST PUSH1 0x1 PUSH1 0x1 PUSH1 0xA0 SHL SUB AND PUSH4 0x98C7438E DUP10 PUSH2 0x280F PUSH1 0x3 DUP7 PUSH2 0x5DAD JUMP JUMPDEST PUSH1 0x40 MLOAD PUSH1 0x1 PUSH1 0x1 PUSH1 0xE0 SHL SUB NOT PUSH1 0xE0 DUP6 SWAP1 SHL AND DUP2 MSTORE PUSH4 0xFFFFFFFF SWAP3 SWAP1 SWAP3 AND PUSH1 0x4 DUP4 ADD MSTORE PUSH1 0x24 DUP3 ADD MSTORE PUSH1 0x44 DUP2 ADD DUP8 SWAP1 MSTORE PUSH1 0x64 ADD PUSH1 0x20 PUSH1 0x40 MLOAD DUP1 DUP4 SUB DUP2 PUSH1 0x0 DUP8 GAS CALL ISZERO DUP1 ISZERO PUSH2 0x285F JUMPI RETURNDATASIZE PUSH1 0x0 DUP1 RETURNDATACOPY RETURNDATASIZE PUSH1 0x0 REVERT JUMPDEST POP POP POP POP PUSH1 0x40 MLOAD RETURNDATASIZE PUSH1 0x1F NOT PUSH1 0x1F DUP3 ADD AND DUP3 ADD DUP1 PUSH1 0x40 MSTORE POP DUP2 ADD SWAP1 PUSH2 0x2883 SWAP2 SWAP1 PUSH2 0x5DCF JUMP JUMPDEST PUSH1 0x18 DUP5 ADD DUP1 SLOAD PUSH1 0x1 DUP2 ADD DUP3 SSTORE PUSH1 0x0 SWAP2 DUP3 MSTORE PUSH1 0x20 SWAP1 SWAP2 KECCAK256 PUSH1 0x8 DUP3 DIV ADD DUP1 SLOAD PUSH1 0x7 SWAP1 SWAP3 AND PUSH1 0x4 MUL PUSH2 0x100 EXP PUSH4 0xFFFFFFFF DUP2 DUP2 MUL NOT SWAP1 SWAP4 AND SWAP4 SWAP1 SWAP3 AND SWAP2 SWAP1 SWAP2 MUL SWAP2 SWAP1 SWAP2 OR SWAP1 SSTORE POP JUMPDEST POP POP POP POP POP POP POP JUMP JUMPDEST PUSH2 0x28D9 PUSH2 0x34EB JUMP JUMPDEST PUSH1 0xCB DUP1 SLOAD PUSH2 0xFFFF NOT AND PUSH2 0xFFFF SWAP3 SWAP1 SWAP3 AND SWAP2 SWAP1 SWAP2 OR SWAP1 SSTORE JUMP JUMPDEST PUSH4 0xFFFFFFFF DUP1 DUP3 AND PUSH1 0x0 SWAP1 DUP2 MSTORE PUSH1 0xD7 PUSH1 0x20 SWAP1 DUP2 MSTORE PUSH1 0x40 DUP1 DUP4 KECCAK256 DUP2 MLOAD PUSH2 0x480 DUP2 ADD SWAP1 SWAP3 MSTORE DUP1 SLOAD SWAP1 SWAP5 AND DUP2 MSTORE PUSH1 0x1 DUP5 ADD DUP1 SLOAD SWAP4 SWAP5 DUP6 SWAP5 SWAP3 SWAP4 SWAP1 SWAP3 SWAP1 DUP5 ADD SWAP2 SWAP1 PUSH2 0x2937 SWAP1 PUSH2 0x5B14 JUMP JUMPDEST DUP1 PUSH1 0x1F ADD PUSH1 0x20 DUP1 SWAP2 DIV MUL PUSH1 0x20 ADD PUSH1 0x40 MLOAD SWAP1 DUP2 ADD PUSH1 0x40 MSTORE DUP1 SWAP3 SWAP2 SWAP1 DUP2 DUP2 MSTORE PUSH1 0x20 ADD DUP3 DUP1 SLOAD PUSH2 0x2963 SWAP1 PUSH2 0x5B14 JUMP JUMPDEST DUP1 ISZERO PUSH2 0x29B0 JUMPI DUP1 PUSH1 0x1F LT PUSH2 0x2985 JUMPI PUSH2 0x100 DUP1 DUP4 SLOAD DIV MUL DUP4 MSTORE SWAP2 PUSH1 0x20 ADD SWAP2 PUSH2 0x29B0 JUMP JUMPDEST DUP3 ADD SWAP2 SWAP1 PUSH1 0x0 MSTORE PUSH1 0x20 PUSH1 0x0 KECCAK256 SWAP1 JUMPDEST DUP2 SLOAD DUP2 MSTORE SWAP1 PUSH1 0x1 ADD SWAP1 PUSH1 0x20 ADD DUP1 DUP4 GT PUSH2 0x2993 JUMPI DUP3 SWAP1 SUB PUSH1 0x1F AND DUP3 ADD SWAP2 JUMPDEST POP POP POP SWAP2 DUP4 MSTORE POP POP PUSH1 0x2 DUP3 ADD SLOAD PUSH1 0x20 DUP1 DUP4 ADD SWAP2 SWAP1 SWAP2 MSTORE PUSH1 0x3 DUP4 ADD SLOAD PUSH1 0xFF DUP1 DUP3 AND ISZERO ISZERO PUSH1 0x40 DUP1 DUP7 ADD SWAP2 SWAP1 SWAP2 MSTORE PUSH1 0x1 PUSH1 0x1 PUSH1 0xA0 SHL SUB PUSH2 0x100 DUP5 DIV AND PUSH1 0x60 DUP7 ADD MSTORE PUSH4 0xFFFFFFFF PUSH1 0x1 PUSH1 0xA8 SHL DUP5 DIV AND PUSH1 0x80 DUP7 ADD MSTORE PUSH1 0x1 PUSH1 0xC8 SHL SWAP1 SWAP3 DIV AND ISZERO ISZERO PUSH1 0xA0 DUP5 ADD MSTORE PUSH1 0x4 DUP5 ADD DUP1 SLOAD DUP3 MLOAD DUP2 DUP6 MUL DUP2 ADD DUP6 ADD SWAP1 SWAP4 MSTORE DUP1 DUP4 MSTORE PUSH1 0xC0 SWAP1 SWAP5 ADD SWAP4 SWAP2 SWAP3 SWAP1 SWAP2 SWAP1 DUP4 ADD DUP3 DUP3 DUP1 ISZERO PUSH2 0x2A8B JUMPI PUSH1 0x20 MUL DUP3 ADD SWAP2 SWAP1 PUSH1 0x0 MSTORE PUSH1 0x20 PUSH1 0x0 KECCAK256 SWAP1 PUSH1 0x0 SWAP1 JUMPDEST DUP3 DUP3 SWAP1 SLOAD SWAP1 PUSH2 0x100 EXP SWAP1 DIV PUSH4 0xFFFFFFFF AND PUSH4 0xFFFFFFFF AND DUP2 MSTORE PUSH1 0x20 ADD SWAP1 PUSH1 0x4 ADD SWAP1 PUSH1 0x20 DUP3 PUSH1 0x3 ADD DIV SWAP3 DUP4 ADD SWAP3 PUSH1 0x1 SUB DUP3 MUL SWAP2 POP DUP1 DUP5 GT PUSH2 0x2A4E JUMPI SWAP1 POP JUMPDEST POP POP POP POP POP DUP2 MSTORE PUSH1 0x20 ADD PUSH1 0x5 DUP3 ADD DUP1 SLOAD DUP1 PUSH1 0x20 MUL PUSH1 0x20 ADD PUSH1 0x40 MLOAD SWAP1 DUP2 ADD PUSH1 0x40 MSTORE DUP1 SWAP3 SWAP2 SWAP1 DUP2 DUP2 MSTORE PUSH1 0x20 ADD DUP3 DUP1 SLOAD DUP1 ISZERO PUSH2 0x2B0F JUMPI PUSH1 0x20 MUL DUP3 ADD SWAP2 SWAP1 PUSH1 0x0 MSTORE PUSH1 0x20 PUSH1 0x0 KECCAK256 SWAP1 PUSH1 0x0 SWAP1 JUMPDEST DUP3 DUP3 SWAP1 SLOAD SWAP1 PUSH2 0x100 EXP SWAP1 DIV PUSH4 0xFFFFFFFF AND PUSH4 0xFFFFFFFF AND DUP2 MSTORE PUSH1 0x20 ADD SWAP1 PUSH1 0x4 ADD SWAP1 PUSH1 0x20 DUP3 PUSH1 0x3 ADD DIV SWAP3 DUP4 ADD SWAP3 PUSH1 0x1 SUB DUP3 MUL SWAP2 POP DUP1 DUP5 GT PUSH2 0x2AD2 JUMPI SWAP1 POP JUMPDEST POP POP POP POP POP DUP2 MSTORE PUSH1 0x20 ADD PUSH1 0x6 DUP3 ADD DUP1 SLOAD DUP1 PUSH1 0x20 MUL PUSH1 0x20 ADD PUSH1 0x40 MLOAD SWAP1 DUP2 ADD PUSH1 0x40 MSTORE DUP1 SWAP3 SWAP2 SWAP1 DUP2 DUP2 MSTORE PUSH1 0x20 ADD DUP3 DUP1 SLOAD DUP1 ISZERO PUSH2 0x2B93 JUMPI PUSH1 0x20 MUL DUP3 ADD SWAP2 SWAP1 PUSH1 0x0 MSTORE PUSH1 0x20 PUSH1 0x0 KECCAK256 SWAP1 PUSH1 0x0 SWAP1 JUMPDEST DUP3 DUP3 SWAP1 SLOAD SWAP1 PUSH2 0x100 EXP SWAP1 DIV PUSH4 0xFFFFFFFF AND PUSH4 0xFFFFFFFF AND DUP2 MSTORE PUSH1 0x20 ADD SWAP1 PUSH1 0x4 ADD SWAP1 PUSH1 0x20 DUP3 PUSH1 0x3 ADD DIV SWAP3 DUP4 ADD SWAP3 PUSH1 0x1 SUB DUP3 MUL SWAP2 POP DUP1 DUP5 GT PUSH2 0x2B56 JUMPI SWAP1 POP JUMPDEST POP POP POP POP POP DUP2 MSTORE PUSH1 0x20 ADD PUSH1 0x7 DUP3 ADD DUP1 SLOAD DUP1 PUSH1 0x20 MUL PUSH1 0x20 ADD PUSH1 0x40 MLOAD SWAP1 DUP2 ADD PUSH1 0x40 MSTORE DUP1 SWAP3 SWAP2 SWAP1 DUP2 DUP2 MSTORE PUSH1 0x20 ADD DUP3 DUP1 SLOAD DUP1 ISZERO PUSH2 0x2BEB JUMPI PUSH1 0x20 MUL DUP3 ADD SWAP2 SWAP1 PUSH1 0x0 MSTORE PUSH1 0x20 PUSH1 0x0 KECCAK256 SWAP1 JUMPDEST DUP2 SLOAD DUP2 MSTORE PUSH1 0x20 ADD SWAP1 PUSH1 0x1 ADD SWAP1 DUP1 DUP4 GT PUSH2 0x2BD7 JUMPI JUMPDEST POP POP POP SWAP2 DUP4 MSTORE POP POP PUSH1 0x8 DUP3 ADD SLOAD PUSH1 0x20 DUP1 DUP4 ADD SWAP2 SWAP1 SWAP2 MSTORE PUSH1 0x9 DUP4 ADD SLOAD PUSH1 0x40 DUP1 DUP5 ADD SWAP2 SWAP1 SWAP2 MSTORE PUSH1 0xA DUP5 ADD SLOAD PUSH1 0x60 DUP5 ADD MSTORE PUSH1 0xB DUP5 ADD SLOAD PUSH1 0x80 DUP5 ADD MSTORE PUSH1 0xC DUP5 ADD SLOAD PUSH1 0xA0 DUP5 ADD MSTORE PUSH1 0xD DUP5 ADD SLOAD PUSH1 0xC0 DUP5 ADD MSTORE PUSH1 0xE DUP5 ADD SLOAD PUSH1 0xE0 DUP5 ADD MSTORE PUSH1 0xF DUP5 ADD SLOAD PUSH2 0x100 DUP1 DUP6 ADD SWAP2 SWAP1 SWAP2 MSTORE PUSH1 0x10 DUP6 ADD SLOAD PUSH1 0xFF DUP2 AND PUSH2 0x120 DUP7 ADD MSTORE DIV PUSH4 0xFFFFFFFF AND PUSH2 0x140 DUP5 ADD MSTORE PUSH1 0x11 DUP5 ADD SLOAD PUSH2 0x160 DUP5 ADD MSTORE PUSH1 0x12 DUP5 ADD SLOAD PUSH2 0x180 DUP5 ADD MSTORE PUSH1 0x13 DUP5 ADD SLOAD PUSH2 0x1A0 DUP5 ADD MSTORE PUSH1 0x14 DUP5 ADD SLOAD PUSH2 0x1C0 DUP5 ADD MSTORE PUSH1 0x15 DUP5 ADD SLOAD PUSH2 0x1E0 DUP5 ADD MSTORE PUSH1 0x16 DUP5 ADD SLOAD PUSH2 0x200 DUP5 ADD MSTORE PUSH1 0x17 DUP5 ADD SLOAD PUSH2 0x220 DUP5 ADD MSTORE PUSH1 0x18 DUP5 ADD DUP1 SLOAD DUP3 MLOAD DUP2 DUP6 MUL DUP2 ADD DUP6 ADD SWAP1 SWAP4 MSTORE DUP1 DUP4 MSTORE PUSH2 0x240 SWAP1 SWAP5 ADD SWAP4 SWAP2 SWAP3 SWAP1 SWAP2 SWAP1 DUP4 ADD DUP3 DUP3 DUP1 ISZERO PUSH2 0x2D35 JUMPI PUSH1 0x20 MUL DUP3 ADD SWAP2 SWAP1 PUSH1 0x0 MSTORE PUSH1 0x20 PUSH1 0x0 KECCAK256 SWAP1 PUSH1 0x0 SWAP1 JUMPDEST DUP3 DUP3 SWAP1 SLOAD SWAP1 PUSH2 0x100 EXP SWAP1 DIV PUSH4 0xFFFFFFFF AND PUSH4 0xFFFFFFFF AND DUP2 MSTORE PUSH1 0x20 ADD SWAP1 PUSH1 0x4 ADD SWAP1 PUSH1 0x20 DUP3 PUSH1 0x3 ADD DIV SWAP3 DUP4 ADD SWAP3 PUSH1 0x1 SUB DUP3 MUL SWAP2 POP DUP1 DUP5 GT PUSH2 0x2CF8 JUMPI SWAP1 POP JUMPDEST POP POP POP SWAP2 DUP4 MSTORE POP POP PUSH1 0x19 DUP3 ADD SLOAD PUSH1 0x20 DUP3 ADD MSTORE PUSH1 0x1A DUP3 ADD SLOAD PUSH1 0x40 DUP3 ADD MSTORE PUSH1 0x1B DUP3 ADD SLOAD PUSH1 0x60 DUP3 ADD MSTORE PUSH1 0x1C SWAP1 SWAP2 ADD SLOAD PUSH1 0xFF DUP1 DUP3 AND ISZERO ISZERO PUSH1 0x80 DUP5 ADD MSTORE PUSH2 0x100 DUP3 DIV DUP2 AND ISZERO ISZERO PUSH1 0xA0 DUP5 ADD MSTORE PUSH3 0x10000 DUP3 DIV DUP2 AND ISZERO ISZERO PUSH1 0xC0 DUP5 ADD MSTORE PUSH4 0x1000000 SWAP1 SWAP2 DIV AND ISZERO ISZERO PUSH1 0xE0 SWAP1 SWAP2 ADD MSTORE SWAP1 POP PUSH2 0x2DA6 DUP2 PUSH2 0x44DE JUMP JUMPDEST SWAP4 SWAP3 POP POP POP JUMP JUMPDEST CALLVALUE PUSH1 0x0 PUSH2 0x2DB9 DUP3 PUSH2 0x40CD JUMP JUMPDEST SWAP1 POP PUSH1 0xCC SLOAD DUP2 LT ISZERO PUSH2 0x2E0D JUMPI PUSH1 0x40 MLOAD PUSH3 0x461BCD PUSH1 0xE5 SHL DUP2 MSTORE PUSH1 0x20 PUSH1 0x4 DUP3 ADD MSTORE PUSH1 0x1F PUSH1 0x24 DUP3 ADD MSTORE PUSH32 0x56616C7565206C657373207468656E206D696E436F6E747269627574696F6E00 PUSH1 0x44 DUP3 ADD MSTORE PUSH1 0x64 ADD PUSH2 0x1106 JUMP JUMPDEST PUSH1 0xCF SLOAD CALLER SWAP1 TIMESTAMP SWAP1 PUSH1 0x0 SWAP1 PUSH2 0x2E28 SWAP1 PUSH4 0xFFFFFFFF AND PUSH1 0x1 PUSH2 0x5DEC JUMP JUMPDEST PUSH1 0x1 PUSH1 0x1 PUSH1 0xA0 SHL SUB DUP5 AND PUSH1 0x0 SWAP1 DUP2 MSTORE PUSH1 0xD6 PUSH1 0x20 SWAP1 DUP2 MSTORE PUSH1 0x40 DUP1 DUP4 KECCAK256 PUSH4 0xFFFFFFFF DUP6 AND DUP5 MSTORE PUSH1 0xD7 SWAP1 SWAP3 MSTORE DUP3 KECCAK256 SWAP3 SWAP4 POP SWAP2 SWAP1 PUSH2 0x2E63 DUP8 PUSH1 0x3 PUSH2 0x5D66 JUMP JUMPDEST DUP3 PUSH1 0x12 ADD SLOAD DUP4 PUSH1 0x14 ADD SLOAD PUSH2 0x2E77 SWAP2 SWAP1 PUSH2 0x5D7D JUMP JUMPDEST PUSH2 0x2E81 SWAP2 SWAP1 PUSH2 0x5D53 JUMP JUMPDEST SWAP1 POP PUSH2 0x2EA5 DUP3 DUP8 DUP7 DUP13 DUP12 DUP7 DUP12 PUSH1 0xCB PUSH1 0x2 SWAP1 SLOAD SWAP1 PUSH2 0x100 EXP SWAP1 DIV PUSH1 0xFF AND PUSH1 0xFF AND PUSH2 0x41BB JUMP JUMPDEST PUSH1 0xD5 SLOAD PUSH1 0xFF AND ISZERO PUSH2 0x2FF1 JUMPI PUSH1 0xC9 SLOAD PUSH1 0x40 DUP1 MLOAD PUSH4 0x44846F9D PUSH1 0xE1 SHL DUP2 MSTORE SWAP1 MLOAD PUSH1 0x0 SWAP3 PUSH1 0x1 PUSH1 0x1 PUSH1 0xA0 SHL SUB AND SWAP2 PUSH4 0x8908DF3A SWAP2 PUSH1 0x4 DUP1 DUP4 ADD SWAP3 PUSH1 0x20 SWAP3 SWAP2 SWAP1 DUP3 SWAP1 SUB ADD DUP2 DUP7 GAS STATICCALL ISZERO DUP1 ISZERO PUSH2 0x2EFA JUMPI RETURNDATASIZE PUSH1 0x0 DUP1 RETURNDATACOPY RETURNDATASIZE PUSH1 0x0 REVERT JUMPDEST POP POP POP POP PUSH1 0x40 MLOAD RETURNDATASIZE PUSH1 0x1F NOT PUSH1 0x1F DUP3 ADD AND DUP3 ADD DUP1 PUSH1 0x40 MSTORE POP DUP2 ADD SWAP1 PUSH2 0x2F1E SWAP2 SWAP1 PUSH2 0x5D90 JUMP JUMPDEST PUSH1 0x1 PUSH1 0x1 PUSH1 0xA0 SHL SUB AND PUSH4 0x98C7438E DUP7 PUSH2 0x2F38 PUSH1 0x3 DUP7 PUSH2 0x5DAD JUMP JUMPDEST PUSH1 0x40 MLOAD PUSH1 0x1 PUSH1 0x1 PUSH1 0xE0 SHL SUB NOT PUSH1 0xE0 DUP6 SWAP1 SHL AND DUP2 MSTORE PUSH4 0xFFFFFFFF SWAP3 SWAP1 SWAP3 AND PUSH1 0x4 DUP4 ADD MSTORE PUSH1 0x24 DUP3 ADD MSTORE PUSH1 0x44 DUP2 ADD DUP10 SWAP1 MSTORE PUSH1 0x64 ADD PUSH1 0x20 PUSH1 0x40 MLOAD DUP1 DUP4 SUB DUP2 PUSH1 0x0 DUP8 GAS CALL ISZERO DUP1 ISZERO PUSH2 0x2F88 JUMPI RETURNDATASIZE PUSH1 0x0 DUP1 RETURNDATACOPY RETURNDATASIZE PUSH1 0x0 REVERT JUMPDEST POP POP POP POP PUSH1 0x40 MLOAD RETURNDATASIZE PUSH1 0x1F NOT PUSH1 0x1F DUP3 ADD AND DUP3 ADD DUP1 PUSH1 0x40 MSTORE POP DUP2 ADD SWAP1 PUSH2 0x2FAC SWAP2 SWAP1 PUSH2 0x5DCF JUMP JUMPDEST PUSH1 0x18 DUP5 ADD DUP1 SLOAD PUSH1 0x1 DUP2 ADD DUP3 SSTORE PUSH1 0x0 SWAP2 DUP3 MSTORE PUSH1 0x20 SWAP1 SWAP2 KECCAK256 PUSH1 0x8 DUP3 DIV ADD DUP1 SLOAD PUSH1 0x7 SWAP1 SWAP3 AND PUSH1 0x4 MUL PUSH2 0x100 EXP PUSH4 0xFFFFFFFF DUP2 DUP2 MUL NOT SWAP1 SWAP4 AND SWAP4 SWAP1 SWAP3 AND SWAP2 SWAP1 SWAP2 MUL SWAP2 SWAP1 SWAP2 OR SWAP1 SSTORE POP JUMPDEST PUSH1 0x1 DUP4 DUP2 ADD DUP1 SLOAD SWAP2 DUP3 ADD DUP2 SSTORE PUSH1 0x0 SWAP1 DUP2 MSTORE PUSH1 0x20 DUP2 KECCAK256 PUSH1 0x8 DUP4 DIV ADD DUP1 SLOAD PUSH1 0x7 SWAP1 SWAP4 AND PUSH1 0x4 MUL PUSH2 0x100 EXP PUSH4 0xFFFFFFFF DUP2 DUP2 MUL NOT SWAP1 SWAP5 AND DUP9 DUP6 AND SWAP2 SWAP1 SWAP2 MUL OR SWAP1 SSTORE PUSH1 0xCF DUP1 SLOAD SWAP1 SWAP3 AND SWAP2 SWAP1 PUSH2 0x3041 DUP4 PUSH2 0x5E10 JUMP JUMPDEST SWAP2 SWAP1 PUSH2 0x100 EXP DUP2 SLOAD DUP2 PUSH4 0xFFFFFFFF MUL NOT AND SWAP1 DUP4 PUSH4 0xFFFFFFFF AND MUL OR SWAP1 SSTORE POP POP POP POP POP POP POP POP POP POP POP JUMP JUMPDEST PUSH2 0x3073 PUSH2 0x34EB JUMP JUMPDEST PUSH2 0xA65 PUSH1 0xCA DUP4 DUP4 PUSH2 0x51ED JUMP JUMPDEST PUSH2 0x3087 PUSH2 0x34EB JUMP JUMPDEST PUSH1 0x1 PUSH1 0x1 PUSH1 0xA0 SHL SUB DUP2 AND PUSH2 0x30EC JUMPI PUSH1 0x40 MLOAD PUSH3 0x461BCD PUSH1 0xE5 SHL DUP2 MSTORE PUSH1 0x20 PUSH1 0x4 DUP3 ADD MSTORE PUSH1 0x26 PUSH1 0x24 DUP3 ADD MSTORE PUSH32 0x4F776E61626C653A206E6577206F776E657220697320746865207A65726F2061 PUSH1 0x44 DUP3 ADD MSTORE PUSH6 0x646472657373 PUSH1 0xD0 SHL PUSH1 0x64 DUP3 ADD MSTORE PUSH1 0x84 ADD PUSH2 0x1106 JUMP JUMPDEST PUSH2 0x10BB DUP2 PUSH2 0x3F70 JUMP JUMPDEST PUSH4 0xFFFFFFFF DUP3 AND PUSH1 0x0 SWAP1 DUP2 MSTORE PUSH1 0xD7 PUSH1 0x20 MSTORE PUSH1 0x40 SWAP1 KECCAK256 PUSH1 0x3 DUP2 ADD SLOAD PUSH2 0x100 SWAP1 DIV PUSH1 0x1 PUSH1 0x1 PUSH1 0xA0 SHL SUB AND CALLER EQ PUSH2 0x316B JUMPI PUSH1 0x40 MLOAD PUSH3 0x461BCD PUSH1 0xE5 SHL DUP2 MSTORE PUSH1 0x20 PUSH1 0x4 DUP3 ADD MSTORE PUSH1 0x1D PUSH1 0x24 DUP3 ADD MSTORE PUSH32 0x596F7520617265206E6F74206F776E6572206F6620746869732069642E000000 PUSH1 0x44 DUP3 ADD MSTORE PUSH1 0x64 ADD PUSH2 0x1106 JUMP JUMPDEST DUP1 PUSH1 0x1B ADD SLOAD DUP3 LT ISZERO PUSH2 0x31BF JUMPI PUSH1 0x40 MLOAD PUSH3 0x461BCD PUSH1 0xE5 SHL DUP2 MSTORE PUSH1 0x20 PUSH1 0x4 DUP3 ADD MSTORE PUSH1 0x1B PUSH1 0x24 DUP3 ADD MSTORE PUSH32 0x76616C75652067726561746572207468616E2062616C616E63652E0000000000 PUSH1 0x44 DUP3 ADD MSTORE PUSH1 0x64 ADD PUSH2 0x1106 JUMP JUMPDEST PUSH1 0x1C DUP2 ADD SLOAD PUSH4 0x1000000 SWAP1 DIV PUSH1 0xFF AND PUSH2 0x321A JUMPI PUSH1 0x40 MLOAD PUSH3 0x461BCD PUSH1 0xE5 SHL DUP2 MSTORE PUSH1 0x20 PUSH1 0x4 DUP3 ADD MSTORE PUSH1 0x17 PUSH1 0x24 DUP3 ADD MSTORE PUSH32 0x5769746864726177206973206E6F7420656E61626C6564000000000000000000 PUSH1 0x44 DUP3 ADD MSTORE PUSH1 0x64 ADD PUSH2 0x1106 JUMP JUMPDEST DUP2 DUP2 PUSH1 0x1B ADD PUSH1 0x0 DUP3 DUP3 SLOAD PUSH2 0x322E SWAP2 SWAP1 PUSH2 0x5D7D JUMP JUMPDEST SWAP1 SWAP2 SSTORE POP POP PUSH1 0xD5 SLOAD PUSH1 0x0 SWAP1 PUSH1 0x64 SWAP1 PUSH2 0x324F SWAP1 PUSH3 0x10000 SWAP1 DIV PUSH1 0xFF AND DUP6 PUSH2 0x5D66 JUMP JUMPDEST PUSH2 0x3259 SWAP2 SWAP1 PUSH2 0x5DAD JUMP JUMPDEST SWAP1 POP PUSH1 0xC9 PUSH1 0x0 SWAP1 SLOAD SWAP1 PUSH2 0x100 EXP SWAP1 DIV PUSH1 0x1 PUSH1 0x1 PUSH1 0xA0 SHL SUB AND PUSH1 0x1 PUSH1 0x1 PUSH1 0xA0 SHL SUB AND PUSH3 0xF9CC66 PUSH1 0x40 MLOAD DUP2 PUSH4 0xFFFFFFFF AND PUSH1 0xE0 SHL DUP2 MSTORE PUSH1 0x4 ADD PUSH1 0x20 PUSH1 0x40 MLOAD DUP1 DUP4 SUB DUP2 DUP7 GAS STATICCALL ISZERO DUP1 ISZERO PUSH2 0x32AD JUMPI RETURNDATASIZE PUSH1 0x0 DUP1 RETURNDATACOPY RETURNDATASIZE PUSH1 0x0 REVERT JUMPDEST POP POP POP POP PUSH1 0x40 MLOAD RETURNDATASIZE PUSH1 0x1F NOT PUSH1 0x1F DUP3 ADD AND DUP3 ADD DUP1 PUSH1 0x40 MSTORE POP DUP2 ADD SWAP1 PUSH2 0x32D1 SWAP2 SWAP1 PUSH2 0x5D90 JUMP JUMPDEST PUSH1 0x3 DUP4 ADD SLOAD PUSH1 0x40 MLOAD PUSH4 0x3528777D PUSH1 0xE1 SHL DUP2 MSTORE PUSH1 0x1 PUSH1 0x1 PUSH1 0xA0 SHL SUB PUSH2 0x100 SWAP1 SWAP3 DIV DUP3 AND PUSH1 0x4 DUP3 ADD MSTORE PUSH1 0x24 DUP2 ADD DUP5 SWAP1 MSTORE SWAP2 AND SWAP1 PUSH4 0x6A50EEFA SWAP1 PUSH1 0x44 ADD PUSH1 0x0 PUSH1 0x40 MLOAD DUP1 DUP4 SUB DUP2 PUSH1 0x0 DUP8 DUP1 EXTCODESIZE ISZERO DUP1 ISZERO PUSH2 0x3325 JUMPI PUSH1 0x0 DUP1 REVERT JUMPDEST POP GAS CALL ISZERO DUP1 ISZERO PUSH2 0x3339 JUMPI RETURNDATASIZE PUSH1 0x0 DUP1 RETURNDATACOPY RETURNDATASIZE PUSH1 0x0 REVERT JUMPDEST POP CALLER SWAP3 POP PUSH2 0x8FC SWAP2 POP PUSH2 0x3356 SWAP1 POP PUSH2 0x3351 DUP5 DUP8 PUSH2 0x5D7D JUMP JUMPDEST PUSH2 0x3545 JUMP JUMPDEST PUSH1 0x40 MLOAD DUP2 ISZERO SWAP1 SWAP3 MUL SWAP2 PUSH1 0x0 DUP2 DUP2 DUP2 DUP6 DUP9 DUP9 CALL SWAP4 POP POP POP POP ISZERO DUP1 ISZERO PUSH2 0x337E JUMPI RETURNDATASIZE PUSH1 0x0 DUP1 RETURNDATACOPY RETURNDATASIZE PUSH1 0x0 REVERT JUMPDEST POP POP POP POP POP JUMP JUMPDEST PUSH2 0x33AB PUSH1 0x40 MLOAD DUP1 PUSH1 0x60 ADD PUSH1 0x40 MSTORE DUP1 PUSH1 0x0 ISZERO ISZERO DUP2 MSTORE PUSH1 0x20 ADD PUSH1 0x60 DUP2 MSTORE PUSH1 0x20 ADD PUSH1 0x60 DUP2 MSTORE POP SWAP1 JUMP JUMPDEST PUSH1 0x1 PUSH1 0x1 PUSH1 0xA0 SHL SUB DUP3 AND PUSH1 0x0 SWAP1 DUP2 MSTORE PUSH1 0xD6 PUSH1 0x20 SWAP1 DUP2 MSTORE PUSH1 0x40 SWAP2 DUP3 SWAP1 KECCAK256 DUP3 MLOAD PUSH1 0x60 DUP2 ADD DUP5 MSTORE DUP2 SLOAD PUSH1 0xFF AND ISZERO ISZERO DUP2 MSTORE PUSH1 0x1 DUP3 ADD DUP1 SLOAD DUP6 MLOAD DUP2 DUP7 MUL DUP2 ADD DUP7 ADD SWAP1 SWAP7 MSTORE DUP1 DUP7 MSTORE SWAP2 SWAP5 SWAP3 SWAP4 DUP6 DUP2 ADD SWAP4 SWAP3 SWAP1 DUP4 ADD DUP3 DUP3 DUP1 ISZERO PUSH2 0x3452 JUMPI PUSH1 0x20 MUL DUP3 ADD SWAP2 SWAP1 PUSH1 0x0 MSTORE PUSH1 0x20 PUSH1 0x0 KECCAK256 SWAP1 PUSH1 0x0 SWAP1 JUMPDEST DUP3 DUP3 SWAP1 SLOAD SWAP1 PUSH2 0x100 EXP SWAP1 DIV PUSH4 0xFFFFFFFF AND PUSH4 0xFFFFFFFF AND DUP2 MSTORE PUSH1 0x20 ADD SWAP1 PUSH1 0x4 ADD SWAP1 PUSH1 0x20 DUP3 PUSH1 0x3 ADD DIV SWAP3 DUP4 ADD SWAP3 PUSH1 0x1 SUB DUP3 MUL SWAP2 POP DUP1 DUP5 GT PUSH2 0x3415 JUMPI SWAP1 POP JUMPDEST POP POP POP POP POP DUP2 MSTORE PUSH1 0x20 ADD PUSH1 0x2 DUP3 ADD DUP1 SLOAD PUSH2 0x346B SWAP1 PUSH2 0x5B14 JUMP JUMPDEST DUP1 PUSH1 0x1F ADD PUSH1 0x20 DUP1 SWAP2 DIV MUL PUSH1 0x20 ADD PUSH1 0x40 MLOAD SWAP1 DUP2 ADD PUSH1 0x40 MSTORE DUP1 SWAP3 SWAP2 SWAP1 DUP2 DUP2 MSTORE PUSH1 0x20 ADD DUP3 DUP1 SLOAD PUSH2 0x3497 SWAP1 PUSH2 0x5B14 JUMP JUMPDEST DUP1 ISZERO PUSH2 0x1E2B JUMPI DUP1 PUSH1 0x1F LT PUSH2 0x34B9 JUMPI PUSH2 0x100 DUP1 DUP4 SLOAD DIV MUL DUP4 MSTORE SWAP2 PUSH1 0x20 ADD SWAP2 PUSH2 0x1E2B JUMP JUMPDEST DUP3 ADD SWAP2 SWAP1 PUSH1 0x0 MSTORE PUSH1 0x20 PUSH1 0x0 KECCAK256 SWAP1 JUMPDEST DUP2 SLOAD DUP2 MSTORE SWAP1 PUSH1 0x1 ADD SWAP1 PUSH1 0x20 ADD DUP1 DUP4 GT PUSH2 0x34C7 JUMPI POP POP POP SWAP2 SWAP1 SWAP3 MSTORE POP SWAP2 SWAP5 SWAP4 POP POP POP POP JUMP JUMPDEST PUSH1 0x33 SLOAD PUSH1 0x1 PUSH1 0x1 PUSH1 0xA0 SHL SUB AND CALLER EQ PUSH2 0x1C02 JUMPI PUSH1 0x40 MLOAD PUSH3 0x461BCD PUSH1 0xE5 SHL DUP2 MSTORE PUSH1 0x20 PUSH1 0x4 DUP3 ADD DUP2 SWAP1 MSTORE PUSH1 0x24 DUP3 ADD MSTORE PUSH32 0x4F776E61626C653A2063616C6C6572206973206E6F7420746865206F776E6572 PUSH1 0x44 DUP3 ADD MSTORE PUSH1 0x64 ADD PUSH2 0x1106 JUMP JUMPDEST PUSH1 0x0 DUP1 PUSH1 0xC9 PUSH1 0x0 SWAP1 SLOAD SWAP1 PUSH2 0x100 EXP SWAP1 DIV PUSH1 0x1 PUSH1 0x1 PUSH1 0xA0 SHL SUB AND PUSH1 0x1 PUSH1 0x1 PUSH1 0xA0 SHL SUB AND PUSH4 0x2913497B PUSH1 0x40 MLOAD DUP2 PUSH4 0xFFFFFFFF AND PUSH1 0xE0 SHL DUP2 MSTORE PUSH1 0x4 ADD PUSH1 0x20 PUSH1 0x40 MLOAD DUP1 DUP4 SUB DUP2 DUP7 GAS STATICCALL ISZERO DUP1 ISZERO PUSH2 0x359B JUMPI RETURNDATASIZE PUSH1 0x0 DUP1 RETURNDATACOPY RETURNDATASIZE PUSH1 0x0 REVERT JUMPDEST POP POP POP POP PUSH1 0x40 MLOAD RETURNDATASIZE PUSH1 0x1F NOT PUSH1 0x1F DUP3 ADD AND DUP3 ADD DUP1 PUSH1 0x40 MSTORE POP DUP2 ADD SWAP1 PUSH2 0x35BF SWAP2 SWAP1 PUSH2 0x5D90 JUMP JUMPDEST PUSH1 0x1 PUSH1 0x1 PUSH1 0xA0 SHL SUB AND PUSH4 0xE1AA6036 PUSH1 0x40 MLOAD DUP2 PUSH4 0xFFFFFFFF AND PUSH1 0xE0 SHL DUP2 MSTORE PUSH1 0x4 ADD PUSH1 0x20 PUSH1 0x40 MLOAD DUP1 DUP4 SUB DUP2 DUP7 GAS STATICCALL ISZERO DUP1 ISZERO PUSH2 0x35FC JUMPI RETURNDATASIZE PUSH1 0x0 DUP1 RETURNDATACOPY RETURNDATASIZE PUSH1 0x0 REVERT JUMPDEST POP POP POP POP PUSH1 0x40 MLOAD RETURNDATASIZE PUSH1 0x1F NOT PUSH1 0x1F DUP3 ADD AND DUP3 ADD DUP1 PUSH1 0x40 MSTORE POP DUP2 ADD SWAP1 PUSH2 0x3620 SWAP2 SWAP1 PUSH2 0x5E33 JUMP JUMPDEST PUSH2 0x3632 DUP5 PUSH8 0xDE0B6B3A7640000 PUSH2 0x5D66 JUMP JUMPDEST PUSH2 0x2DA6 SWAP2 SWAP1 PUSH2 0x5DAD JUMP JUMPDEST PUSH2 0x10BB PUSH2 0x34EB JUMP JUMPDEST PUSH32 0x4910FDFA16FED3260ED0E7147F7CC6DA11A60208B5B9406D12A635614FFD9143 SLOAD PUSH1 0xFF AND ISZERO PUSH2 0x3677 JUMPI PUSH2 0xA65 DUP4 PUSH2 0x451D JUMP JUMPDEST DUP3 PUSH1 0x1 PUSH1 0x1 PUSH1 0xA0 SHL SUB AND PUSH4 0x52D1902D PUSH1 0x40 MLOAD DUP2 PUSH4 0xFFFFFFFF AND PUSH1 0xE0 SHL DUP2 MSTORE PUSH1 0x4 ADD PUSH1 0x20 PUSH1 0x40 MLOAD DUP1 DUP4 SUB DUP2 DUP7 GAS STATICCALL SWAP3 POP POP POP DUP1 ISZERO PUSH2 0x36D1 JUMPI POP PUSH1 0x40 DUP1 MLOAD PUSH1 0x1F RETURNDATASIZE SWAP1 DUP2 ADD PUSH1 0x1F NOT AND DUP3 ADD SWAP1 SWAP3 MSTORE PUSH2 0x36CE SWAP2 DUP2 ADD SWAP1 PUSH2 0x5E33 JUMP JUMPDEST PUSH1 0x1 JUMPDEST PUSH2 0x3734 JUMPI PUSH1 0x40 MLOAD PUSH3 0x461BCD PUSH1 0xE5 SHL DUP2 MSTORE PUSH1 0x20 PUSH1 0x4 DUP3 ADD MSTORE PUSH1 0x2E PUSH1 0x24 DUP3 ADD MSTORE PUSH32 0x45524331393637557067726164653A206E657720696D706C656D656E74617469 PUSH1 0x44 DUP3 ADD MSTORE PUSH14 0x6F6E206973206E6F742055555053 PUSH1 0x90 SHL PUSH1 0x64 DUP3 ADD MSTORE PUSH1 0x84 ADD PUSH2 0x1106 JUMP JUMPDEST PUSH1 0x0 DUP1 MLOAD PUSH1 0x20 PUSH2 0x5F15 DUP4 CODECOPY DUP2 MLOAD SWAP2 MSTORE DUP2 EQ PUSH2 0x37A3 JUMPI PUSH1 0x40 MLOAD PUSH3 0x461BCD PUSH1 0xE5 SHL DUP2 MSTORE PUSH1 0x20 PUSH1 0x4 DUP3 ADD MSTORE PUSH1 0x29 PUSH1 0x24 DUP3 ADD MSTORE PUSH32 0x45524331393637557067726164653A20756E737570706F727465642070726F78 PUSH1 0x44 DUP3 ADD MSTORE PUSH9 0x1A58589B1955555251 PUSH1 0xBA SHL PUSH1 0x64 DUP3 ADD MSTORE PUSH1 0x84 ADD PUSH2 0x1106 JUMP JUMPDEST POP PUSH2 0xA65 DUP4 DUP4 DUP4 PUSH2 0x45B9 JUMP JUMPDEST PUSH1 0x0 PUSH1 0xCA DUP1 SLOAD DUP1 PUSH1 0x20 MUL PUSH1 0x20 ADD PUSH1 0x40 MLOAD SWAP1 DUP2 ADD PUSH1 0x40 MSTORE DUP1 SWAP3 SWAP2 SWAP1 DUP2 DUP2 MSTORE PUSH1 0x20 ADD DUP3 DUP1 SLOAD DUP1 ISZERO PUSH2 0x3825 JUMPI PUSH1 0x20 MUL DUP3 ADD SWAP2 SWAP1 PUSH1 0x0 MSTORE PUSH1 0x20 PUSH1 0x0 KECCAK256 SWAP1 PUSH1 0x0 SWAP1 JUMPDEST DUP3 DUP3 SWAP1 SLOAD SWAP1 PUSH2 0x100 EXP SWAP1 DIV PUSH2 0xFFFF AND PUSH2 0xFFFF AND DUP2 MSTORE PUSH1 0x20 ADD SWAP1 PUSH1 0x2 ADD SWAP1 PUSH1 0x20 DUP3 PUSH1 0x1 ADD DIV SWAP3 DUP4 ADD SWAP3 PUSH1 0x1 SUB DUP3 MUL SWAP2 POP DUP1 DUP5 GT PUSH2 0x37EC JUMPI SWAP1 POP JUMPDEST POP POP DUP4 MLOAD PUSH4 0xFFFFFFFF DUP8 AND PUSH1 0x0 SWAP1 DUP2 MSTORE PUSH1 0xD7 PUSH1 0x20 MSTORE PUSH1 0x40 DUP2 KECCAK256 SWAP6 SWAP7 POP SWAP1 SWAP5 SWAP4 POP SWAP2 POP DUP2 SWAP1 POP JUMPDEST DUP4 PUSH1 0xFF AND DUP2 PUSH1 0xFF AND LT ISZERO PUSH2 0x3EC6 JUMPI PUSH1 0x3 DUP4 ADD SLOAD PUSH4 0xFFFFFFFF PUSH1 0x1 PUSH1 0xA8 SHL SWAP1 SWAP2 DIV DUP2 AND PUSH1 0x0 DUP2 DUP2 MSTORE PUSH1 0xD7 PUSH1 0x20 MSTORE PUSH1 0x40 DUP2 KECCAK256 DUP1 SLOAD SWAP3 SWAP4 SWAP1 SWAP3 AND SWAP1 SUB PUSH2 0x388F JUMPI POP POP PUSH2 0x3EC6 JUMP JUMPDEST PUSH2 0x3898 DUP2 PUSH2 0x45E4 JUMP JUMPDEST ISZERO PUSH2 0x3910 JUMPI PUSH1 0x40 MLOAD PUSH19 0x149959995C995C881A5CC8111A5CD8589B1959 PUSH1 0x6A SHL DUP2 MSTORE PUSH1 0x13 ADD JUMPDEST PUSH1 0x40 MLOAD SWAP1 DUP2 SWAP1 SUB SWAP1 KECCAK256 PUSH2 0x38D1 DUP5 PUSH1 0x1 PUSH2 0x5E4C JUMP JUMPDEST PUSH1 0xFF AND DUP4 PUSH4 0xFFFFFFFF AND PUSH32 0x915ED47901013AD29E90EDE828F72888F54BD58CEA141B0C6967498165382EB5 PUSH1 0x40 MLOAD PUSH1 0x40 MLOAD DUP1 SWAP2 SUB SWAP1 LOG4 SWAP4 POP PUSH2 0x3EB4 SWAP1 POP JUMP JUMPDEST PUSH1 0x40 DUP1 MLOAD PUSH2 0x480 DUP2 ADD SWAP1 SWAP2 MSTORE DUP2 SLOAD PUSH4 0xFFFFFFFF AND DUP2 MSTORE PUSH1 0x1 DUP3 ADD DUP1 SLOAD PUSH2 0x3DAB SWAP3 SWAP2 DUP5 SWAP2 PUSH1 0x20 DUP5 ADD SWAP2 SWAP1 PUSH2 0x3942 SWAP1 PUSH2 0x5B14 JUMP JUMPDEST DUP1 PUSH1 0x1F ADD PUSH1 0x20 DUP1 SWAP2 DIV MUL PUSH1 0x20 ADD PUSH1 0x40 MLOAD SWAP1 DUP2 ADD PUSH1 0x40 MSTORE DUP1 SWAP3 SWAP2 SWAP1 DUP2 DUP2 MSTORE PUSH1 0x20 ADD DUP3 DUP1 SLOAD PUSH2 0x396E SWAP1 PUSH2 0x5B14 JUMP JUMPDEST DUP1 ISZERO PUSH2 0x39BB JUMPI DUP1 PUSH1 0x1F LT PUSH2 0x3990 JUMPI PUSH2 0x100 DUP1 DUP4 SLOAD DIV MUL DUP4 MSTORE SWAP2 PUSH1 0x20 ADD SWAP2 PUSH2 0x39BB JUMP JUMPDEST DUP3 ADD SWAP2 SWAP1 PUSH1 0x0 MSTORE PUSH1 0x20 PUSH1 0x0 KECCAK256 SWAP1 JUMPDEST DUP2 SLOAD DUP2 MSTORE SWAP1 PUSH1 0x1 ADD SWAP1 PUSH1 0x20 ADD DUP1 DUP4 GT PUSH2 0x399E JUMPI DUP3 SWAP1 SUB PUSH1 0x1F AND DUP3 ADD SWAP2 JUMPDEST POP POP POP SWAP2 DUP4 MSTORE POP POP PUSH1 0x2 DUP3 ADD SLOAD PUSH1 0x20 DUP1 DUP4 ADD SWAP2 SWAP1 SWAP2 MSTORE PUSH1 0x3 DUP4 ADD SLOAD PUSH1 0xFF DUP1 DUP3 AND ISZERO ISZERO PUSH1 0x40 DUP1 DUP7 ADD SWAP2 SWAP1 SWAP2 MSTORE PUSH1 0x1 PUSH1 0x1 PUSH1 0xA0 SHL SUB PUSH2 0x100 DUP5 DIV AND PUSH1 0x60 DUP7 ADD MSTORE PUSH4 0xFFFFFFFF PUSH1 0x1 PUSH1 0xA8 SHL DUP5 DIV AND PUSH1 0x80 DUP7 ADD MSTORE PUSH1 0x1 PUSH1 0xC8 SHL SWAP1 SWAP3 DIV AND ISZERO ISZERO PUSH1 0xA0 DUP5 ADD MSTORE PUSH1 0x4 DUP5 ADD DUP1 SLOAD DUP3 MLOAD DUP2 DUP6 MUL DUP2 ADD DUP6 ADD SWAP1 SWAP4 MSTORE DUP1 DUP4 MSTORE PUSH1 0xC0 SWAP1 SWAP5 ADD SWAP4 SWAP2 SWAP3 SWAP1 SWAP2 SWAP1 DUP4 ADD DUP3 DUP3 DUP1 ISZERO PUSH2 0x3A96 JUMPI PUSH1 0x20 MUL DUP3 ADD SWAP2 SWAP1 PUSH1 0x0 MSTORE PUSH1 0x20 PUSH1 0x0 KECCAK256 SWAP1 PUSH1 0x0 SWAP1 JUMPDEST DUP3 DUP3 SWAP1 SLOAD SWAP1 PUSH2 0x100 EXP SWAP1 DIV PUSH4 0xFFFFFFFF AND PUSH4 0xFFFFFFFF AND DUP2 MSTORE PUSH1 0x20 ADD SWAP1 PUSH1 0x4 ADD SWAP1 PUSH1 0x20 DUP3 PUSH1 0x3 ADD DIV SWAP3 DUP4 ADD SWAP3 PUSH1 0x1 SUB DUP3 MUL SWAP2 POP DUP1 DUP5 GT PUSH2 0x3A59 JUMPI SWAP1 POP JUMPDEST POP POP POP POP POP DUP2 MSTORE PUSH1 0x20 ADD PUSH1 0x5 DUP3 ADD DUP1 SLOAD DUP1 PUSH1 0x20 MUL PUSH1 0x20 ADD PUSH1 0x40 MLOAD SWAP1 DUP2 ADD PUSH1 0x40 MSTORE DUP1 SWAP3 SWAP2 SWAP1 DUP2 DUP2 MSTORE PUSH1 0x20 ADD DUP3 DUP1 SLOAD DUP1 ISZERO PUSH2 0x3B1A JUMPI PUSH1 0x20 MUL DUP3 ADD SWAP2 SWAP1 PUSH1 0x0 MSTORE PUSH1 0x20 PUSH1 0x0 KECCAK256 SWAP1 PUSH1 0x0 SWAP1 JUMPDEST DUP3 DUP3 SWAP1 SLOAD SWAP1 PUSH2 0x100 EXP SWAP1 DIV PUSH4 0xFFFFFFFF AND PUSH4 0xFFFFFFFF AND DUP2 MSTORE PUSH1 0x20 ADD SWAP1 PUSH1 0x4 ADD SWAP1 PUSH1 0x20 DUP3 PUSH1 0x3 ADD DIV SWAP3 DUP4 ADD SWAP3 PUSH1 0x1 SUB DUP3 MUL SWAP2 POP DUP1 DUP5 GT PUSH2 0x3ADD JUMPI SWAP1 POP JUMPDEST POP POP POP POP POP DUP2 MSTORE PUSH1 0x20 ADD PUSH1 0x6 DUP3 ADD DUP1 SLOAD DUP1 PUSH1 0x20 MUL PUSH1 0x20 ADD PUSH1 0x40 MLOAD SWAP1 DUP2 ADD PUSH1 0x40 MSTORE DUP1 SWAP3 SWAP2 SWAP1 DUP2 DUP2 MSTORE PUSH1 0x20 ADD DUP3 DUP1 SLOAD DUP1 ISZERO PUSH2 0x3B9E JUMPI PUSH1 0x20 MUL DUP3 ADD SWAP2 SWAP1 PUSH1 0x0 MSTORE PUSH1 0x20 PUSH1 0x0 KECCAK256 SWAP1 PUSH1 0x0 SWAP1 JUMPDEST DUP3 DUP3 SWAP1 SLOAD SWAP1 PUSH2 0x100 EXP SWAP1 DIV PUSH4 0xFFFFFFFF AND PUSH4 0xFFFFFFFF AND DUP2 MSTORE PUSH1 0x20 ADD SWAP1 PUSH1 0x4 ADD SWAP1 PUSH1 0x20 DUP3 PUSH1 0x3 ADD DIV SWAP3 DUP4 ADD SWAP3 PUSH1 0x1 SUB DUP3 MUL SWAP2 POP DUP1 DUP5 GT PUSH2 0x3B61 JUMPI SWAP1 POP JUMPDEST POP POP POP POP POP DUP2 MSTORE PUSH1 0x20 ADD PUSH1 0x7 DUP3 ADD DUP1 SLOAD DUP1 PUSH1 0x20 MUL PUSH1 0x20 ADD PUSH1 0x40 MLOAD SWAP1 DUP2 ADD PUSH1 0x40 MSTORE DUP1 SWAP3 SWAP2 SWAP1 DUP2 DUP2 MSTORE PUSH1 0x20 ADD DUP3 DUP1 SLOAD DUP1 ISZERO PUSH2 0x3BF6 JUMPI PUSH1 0x20 MUL DUP3 ADD SWAP2 SWAP1 PUSH1 0x0 MSTORE PUSH1 0x20 PUSH1 0x0 KECCAK256 SWAP1 JUMPDEST DUP2 SLOAD DUP2 MSTORE PUSH1 0x20 ADD SWAP1 PUSH1 0x1 ADD SWAP1 DUP1 DUP4 GT PUSH2 0x3BE2 JUMPI JUMPDEST POP POP POP SWAP2 DUP4 MSTORE POP POP PUSH1 0x8 DUP3 ADD SLOAD PUSH1 0x20 DUP1 DUP4 ADD SWAP2 SWAP1 SWAP2 MSTORE PUSH1 0x9 DUP4 ADD SLOAD PUSH1 0x40 DUP1 DUP5 ADD SWAP2 SWAP1 SWAP2 MSTORE PUSH1 0xA DUP5 ADD SLOAD PUSH1 0x60 DUP5 ADD MSTORE PUSH1 0xB DUP5 ADD SLOAD PUSH1 0x80 DUP5 ADD MSTORE PUSH1 0xC DUP5 ADD SLOAD PUSH1 0xA0 DUP5 ADD MSTORE PUSH1 0xD DUP5 ADD SLOAD PUSH1 0xC0 DUP5 ADD MSTORE PUSH1 0xE DUP5 ADD SLOAD PUSH1 0xE0 DUP5 ADD MSTORE PUSH1 0xF DUP5 ADD SLOAD PUSH2 0x100 DUP1 DUP6 ADD SWAP2 SWAP1 SWAP2 MSTORE PUSH1 0x10 DUP6 ADD SLOAD PUSH1 0xFF DUP2 AND PUSH2 0x120 DUP7 ADD MSTORE DIV PUSH4 0xFFFFFFFF AND PUSH2 0x140 DUP5 ADD MSTORE PUSH1 0x11 DUP5 ADD SLOAD PUSH2 0x160 DUP5 ADD MSTORE PUSH1 0x12 DUP5 ADD SLOAD PUSH2 0x180 DUP5 ADD MSTORE PUSH1 0x13 DUP5 ADD SLOAD PUSH2 0x1A0 DUP5 ADD MSTORE PUSH1 0x14 DUP5 ADD SLOAD PUSH2 0x1C0 DUP5 ADD MSTORE PUSH1 0x15 DUP5 ADD SLOAD PUSH2 0x1E0 DUP5 ADD MSTORE PUSH1 0x16 DUP5 ADD SLOAD PUSH2 0x200 DUP5 ADD MSTORE PUSH1 0x17 DUP5 ADD SLOAD PUSH2 0x220 DUP5 ADD MSTORE PUSH1 0x18 DUP5 ADD DUP1 SLOAD DUP3 MLOAD DUP2 DUP6 MUL DUP2 ADD DUP6 ADD SWAP1 SWAP4 MSTORE DUP1 DUP4 MSTORE PUSH2 0x240 SWAP1 SWAP5 ADD SWAP4 SWAP2 SWAP3 SWAP1 SWAP2 SWAP1 DUP4 ADD DUP3 DUP3 DUP1 ISZERO PUSH2 0x3D40 JUMPI PUSH1 0x20 MUL DUP3 ADD SWAP2 SWAP1 PUSH1 0x0 MSTORE PUSH1 0x20 PUSH1 0x0 KECCAK256 SWAP1 PUSH1 0x0 SWAP1 JUMPDEST DUP3 DUP3 SWAP1 SLOAD SWAP1 PUSH2 0x100 EXP SWAP1 DIV PUSH4 0xFFFFFFFF AND PUSH4 0xFFFFFFFF AND DUP2 MSTORE PUSH1 0x20 ADD SWAP1 PUSH1 0x4 ADD SWAP1 PUSH1 0x20 DUP3 PUSH1 0x3 ADD DIV SWAP3 DUP4 ADD SWAP3 PUSH1 0x1 SUB DUP3 MUL SWAP2 POP DUP1 DUP5 GT PUSH2 0x3D03 JUMPI SWAP1 POP JUMPDEST POP POP POP SWAP2 DUP4 MSTORE POP POP PUSH1 0x19 DUP3 ADD SLOAD PUSH1 0x20 DUP3 ADD MSTORE PUSH1 0x1A DUP3 ADD SLOAD PUSH1 0x40 DUP3 ADD MSTORE PUSH1 0x1B DUP3 ADD SLOAD PUSH1 0x60 DUP3 ADD MSTORE PUSH1 0x1C SWAP1 SWAP2 ADD SLOAD PUSH1 0xFF DUP1 DUP3 AND ISZERO ISZERO PUSH1 0x80 DUP5 ADD MSTORE PUSH2 0x100 DUP3 DIV DUP2 AND ISZERO ISZERO PUSH1 0xA0 DUP5 ADD MSTORE PUSH3 0x10000 DUP3 DIV DUP2 AND ISZERO ISZERO PUSH1 0xC0 DUP5 ADD MSTORE PUSH4 0x1000000 SWAP1 SWAP2 DIV AND ISZERO ISZERO PUSH1 0xE0 SWAP1 SWAP2 ADD MSTORE PUSH2 0x44DE JUMP JUMPDEST PUSH2 0x3DB6 DUP5 PUSH1 0x1 PUSH2 0x5E4C JUMP JUMPDEST PUSH1 0xFF AND GT ISZERO PUSH2 0x3DED JUMPI PUSH1 0x40 MLOAD PUSH32 0x446F776E6C696E65206C6576656C73206C696D69742072656163686564000000 DUP2 MSTORE PUSH1 0x1D ADD PUSH2 0x38BD JUMP JUMPDEST PUSH1 0xCB SLOAD DUP8 MLOAD PUSH1 0x0 SWAP2 PUSH2 0xFFFF AND SWAP1 DUP10 SWAP1 PUSH1 0xFF DUP8 AND SWAP1 DUP2 LT PUSH2 0x3E0F JUMPI PUSH2 0x3E0F PUSH2 0x5E65 JUMP JUMPDEST PUSH1 0x20 MUL PUSH1 0x20 ADD ADD MLOAD PUSH2 0xFFFF AND DUP12 PUSH2 0x3E26 SWAP2 SWAP1 PUSH2 0x5D66 JUMP JUMPDEST PUSH2 0x3E30 SWAP2 SWAP1 PUSH2 0x5DAD JUMP JUMPDEST SWAP1 POP DUP1 DUP3 PUSH1 0x17 ADD PUSH1 0x0 DUP3 DUP3 SLOAD PUSH2 0x3E46 SWAP2 SWAP1 PUSH2 0x5D53 JUMP JUMPDEST SWAP1 SWAP2 SSTORE POP PUSH2 0x3E56 SWAP1 POP DUP3 DUP3 PUSH2 0x3EE6 JUMP JUMPDEST PUSH2 0x3E60 DUP2 DUP7 PUSH2 0x5D53 JUMP JUMPDEST SWAP5 POP DUP1 PUSH4 0xFFFFFFFF DUP1 DUP6 AND SWAP1 DUP12 AND PUSH32 0xF8FB9B5AB69A0208214661678427C6B48ABF457F53605D1F559D17452F1EEA11 PUSH2 0x3E9A DUP9 PUSH1 0x1 PUSH2 0x5E4C JUMP JUMPDEST PUSH1 0x40 MLOAD PUSH1 0xFF SWAP1 SWAP2 AND DUP2 MSTORE PUSH1 0x20 ADD PUSH1 0x40 MLOAD DUP1 SWAP2 SUB SWAP1 LOG4 POP SWAP4 POP POP JUMPDEST DUP1 PUSH2 0x3EBE DUP2 PUSH2 0x5E7B JUMP JUMPDEST SWAP2 POP POP PUSH2 0x384B JUMP JUMPDEST POP DUP1 PUSH1 0xCE PUSH1 0x0 DUP3 DUP3 SLOAD PUSH2 0x3ED9 SWAP2 SWAP1 PUSH2 0x5D53 JUMP JUMPDEST SWAP1 SWAP2 SSTORE POP POP POP POP POP POP POP POP JUMP JUMPDEST DUP2 PUSH1 0x14 ADD SLOAD DUP2 DUP4 PUSH1 0x12 ADD SLOAD PUSH2 0x3EFB SWAP2 SWAP1 PUSH2 0x5D53 JUMP JUMPDEST GT PUSH2 0x3F3A JUMPI DUP1 DUP3 PUSH1 0x12 ADD PUSH1 0x0 DUP3 DUP3 SLOAD PUSH2 0x3F14 SWAP2 SWAP1 PUSH2 0x5D53 JUMP JUMPDEST SWAP3 POP POP DUP2 SWAP1 SSTORE POP DUP1 DUP3 PUSH1 0x1B ADD PUSH1 0x0 DUP3 DUP3 SLOAD PUSH2 0x3F2F SWAP2 SWAP1 PUSH2 0x5D53 JUMP JUMPDEST SWAP1 SWAP2 SSTORE POP PUSH2 0x1288 SWAP1 POP JUMP JUMPDEST DUP2 PUSH1 0x12 ADD SLOAD DUP3 PUSH1 0x14 ADD SLOAD PUSH2 0x3F4E SWAP2 SWAP1 PUSH2 0x5D7D JUMP JUMPDEST DUP3 PUSH1 0x1B ADD PUSH1 0x0 DUP3 DUP3 SLOAD PUSH2 0x3F61 SWAP2 SWAP1 PUSH2 0x5D53 JUMP JUMPDEST SWAP1 SWAP2 SSTORE POP PUSH2 0x1288 SWAP1 POP DUP3 PUSH2 0x4765 JUMP JUMPDEST PUSH1 0x33 DUP1 SLOAD PUSH1 0x1 PUSH1 0x1 PUSH1 0xA0 SHL SUB DUP4 DUP2 AND PUSH1 0x1 PUSH1 0x1 PUSH1 0xA0 SHL SUB NOT DUP4 AND DUP2 OR SWAP1 SWAP4 SSTORE PUSH1 0x40 MLOAD SWAP2 AND SWAP2 SWAP1 DUP3 SWAP1 PUSH32 0x8BE0079C531659141344CD1FD0A4F28419497F9722A3DAAFE3B4186F6B6457E0 SWAP1 PUSH1 0x0 SWAP1 LOG3 POP POP JUMP JUMPDEST PUSH1 0x0 SLOAD PUSH2 0x100 SWAP1 DIV PUSH1 0xFF AND PUSH2 0x3FE9 JUMPI PUSH1 0x40 MLOAD PUSH3 0x461BCD PUSH1 0xE5 SHL DUP2 MSTORE PUSH1 0x4 ADD PUSH2 0x1106 SWAP1 PUSH2 0x5E9A JUMP JUMPDEST PUSH2 0x1C02 PUSH2 0x480D JUMP JUMPDEST PUSH1 0x0 SLOAD PUSH2 0x100 SWAP1 DIV PUSH1 0xFF AND PUSH2 0x1C02 JUMPI PUSH1 0x40 MLOAD PUSH3 0x461BCD PUSH1 0xE5 SHL DUP2 MSTORE PUSH1 0x4 ADD PUSH2 0x1106 SWAP1 PUSH2 0x5E9A JUMP JUMPDEST PUSH1 0xD5 SLOAD PUSH1 0x0 SWAP1 PUSH4 0x1000000 SWAP1 DIV PUSH1 0xFF AND DUP2 JUMPDEST DUP2 PUSH1 0xFF AND DUP2 PUSH1 0xFF AND LT ISZERO PUSH2 0x40C6 JUMPI PUSH1 0xFF DUP2 AND PUSH1 0x0 SWAP1 DUP2 MSTORE PUSH1 0xD8 PUSH1 0x20 MSTORE PUSH1 0x40 SWAP1 KECCAK256 PUSH1 0x1 ADD SLOAD PUSH2 0x160 DUP6 ADD MLOAD LT DUP1 ISZERO SWAP1 PUSH2 0x407C JUMPI POP PUSH1 0xFF DUP2 AND PUSH1 0x0 SWAP1 DUP2 MSTORE PUSH1 0xD8 PUSH1 0x20 MSTORE PUSH1 0x40 SWAP1 KECCAK256 PUSH1 0x2 ADD SLOAD PUSH2 0x1A0 DUP6 ADD MLOAD LT ISZERO JUMPDEST DUP1 ISZERO PUSH2 0x40A2 JUMPI POP PUSH1 0xFF DUP2 AND PUSH1 0x0 SWAP1 DUP2 MSTORE PUSH1 0xD8 PUSH1 0x20 MSTORE PUSH1 0x40 SWAP1 KECCAK256 PUSH1 0x3 ADD SLOAD PUSH2 0x1E0 DUP6 ADD MLOAD LT ISZERO JUMPDEST ISZERO PUSH2 0x40AF JUMPI DUP1 SWAP3 POP PUSH2 0x40B4 JUMP JUMPDEST PUSH2 0x40C6 JUMP JUMPDEST DUP1 PUSH2 0x40BE DUP2 PUSH2 0x5E7B JUMP JUMPDEST SWAP2 POP POP PUSH2 0x402A JUMP JUMPDEST POP POP SWAP2 SWAP1 POP JUMP JUMPDEST PUSH1 0x0 DUP1 PUSH8 0xDE0B6B3A7640000 PUSH1 0xC9 PUSH1 0x0 SWAP1 SLOAD SWAP1 PUSH2 0x100 EXP SWAP1 DIV PUSH1 0x1 PUSH1 0x1 PUSH1 0xA0 SHL SUB AND PUSH1 0x1 PUSH1 0x1 PUSH1 0xA0 SHL SUB AND PUSH4 0x2913497B PUSH1 0x40 MLOAD DUP2 PUSH4 0xFFFFFFFF AND PUSH1 0xE0 SHL DUP2 MSTORE PUSH1 0x4 ADD PUSH1 0x20 PUSH1 0x40 MLOAD DUP1 DUP4 SUB DUP2 DUP7 GAS STATICCALL ISZERO DUP1 ISZERO PUSH2 0x412C JUMPI RETURNDATASIZE PUSH1 0x0 DUP1 RETURNDATACOPY RETURNDATASIZE PUSH1 0x0 REVERT JUMPDEST POP POP POP POP PUSH1 0x40 MLOAD RETURNDATASIZE PUSH1 0x1F NOT PUSH1 0x1F DUP3 ADD AND DUP3 ADD DUP1 PUSH1 0x40 MSTORE POP DUP2 ADD SWAP1 PUSH2 0x4150 SWAP2 SWAP1 PUSH2 0x5D90 JUMP JUMPDEST PUSH1 0x1 PUSH1 0x1 PUSH1 0xA0 SHL SUB AND PUSH4 0xE1AA6036 PUSH1 0x40 MLOAD DUP2 PUSH4 0xFFFFFFFF AND PUSH1 0xE0 SHL DUP2 MSTORE PUSH1 0x4 ADD PUSH1 0x20 PUSH1 0x40 MLOAD DUP1 DUP4 SUB DUP2 DUP7 GAS STATICCALL ISZERO DUP1 ISZERO PUSH2 0x418D JUMPI RETURNDATASIZE PUSH1 0x0 DUP1 RETURNDATACOPY RETURNDATASIZE PUSH1 0x0 REVERT JUMPDEST POP POP POP POP PUSH1 0x40 MLOAD RETURNDATASIZE PUSH1 0x1F NOT PUSH1 0x1F DUP3 ADD AND DUP3 ADD DUP1 PUSH1 0x40 MSTORE POP DUP2 ADD SWAP1 PUSH2 0x41B1 SWAP2 SWAP1 PUSH2 0x5E33 JUMP JUMPDEST PUSH2 0x3632 SWAP1 DUP6 PUSH2 0x5D66 JUMP JUMPDEST DUP8 SLOAD PUSH4 0xFFFFFFFF AND PUSH1 0x0 SUB PUSH2 0x41DE JUMPI DUP8 SLOAD PUSH4 0xFFFFFFFF NOT AND PUSH4 0xFFFFFFFF DUP8 AND OR DUP9 SSTORE JUMPDEST PUSH1 0x1C DUP9 ADD SLOAD PUSH1 0xFF AND PUSH2 0x41FA JUMPI PUSH1 0x1C DUP9 ADD DUP1 SLOAD PUSH1 0xFF NOT AND PUSH1 0x1 OR SWAP1 SSTORE JUMPDEST PUSH1 0x3 DUP9 ADD SLOAD PUSH1 0xFF AND PUSH2 0x4252 JUMPI PUSH1 0xD4 DUP1 SLOAD PUSH1 0x1 DUP2 ADD DUP3 SSTORE PUSH1 0x0 SWAP2 SWAP1 SWAP2 MSTORE PUSH32 0x9780E26D96B1F2A9A18EF8FC72D589DBF03EF788137B64F43897E83A91E7FEEC ADD DUP1 SLOAD PUSH1 0x1 PUSH1 0x1 PUSH1 0xA0 SHL SUB NOT AND PUSH1 0x1 PUSH1 0x1 PUSH1 0xA0 SHL SUB DUP10 AND OR SWAP1 SSTORE JUMPDEST PUSH1 0x3 DUP9 ADD SLOAD PUSH2 0x100 SWAP1 DIV PUSH1 0x1 PUSH1 0x1 PUSH1 0xA0 SHL SUB AND PUSH2 0x428C JUMPI PUSH1 0x3 DUP9 ADD DUP1 SLOAD PUSH2 0x100 PUSH1 0x1 PUSH1 0xA8 SHL SUB NOT AND PUSH2 0x100 PUSH1 0x1 PUSH1 0x1 PUSH1 0xA0 SHL SUB DUP11 AND MUL OR SWAP1 SSTORE JUMPDEST DUP8 PUSH1 0x2 ADD SLOAD PUSH1 0x0 SUB PUSH2 0x42A0 JUMPI PUSH1 0x2 DUP9 ADD DUP3 SWAP1 SSTORE JUMPDEST PUSH1 0x3 DUP9 ADD SLOAD PUSH1 0x1 PUSH1 0xC8 SHL SWAP1 DIV PUSH1 0xFF AND PUSH2 0x42E4 JUMPI PUSH1 0x3 DUP9 ADD DUP1 SLOAD PUSH1 0xFF PUSH1 0xC8 SHL NOT PUSH4 0xFFFFFFFF DUP9 AND PUSH1 0x1 PUSH1 0xA8 SHL MUL AND PUSH5 0xFFFFFFFFFF PUSH1 0xA8 SHL NOT SWAP1 SWAP2 AND OR PUSH1 0x1 PUSH1 0xC8 SHL OR SWAP1 SSTORE JUMPDEST PUSH1 0x0 PUSH1 0x12 DUP10 ADD SSTORE PUSH2 0x42F6 PUSH1 0x3 DUP5 PUSH2 0x5DAD JUMP JUMPDEST PUSH1 0x13 DUP10 ADD SSTORE PUSH1 0x14 DUP9 ADD DUP4 SWAP1 SSTORE PUSH1 0x7 DUP9 ADD DUP1 SLOAD PUSH1 0x1 DUP2 ADD DUP3 SSTORE PUSH1 0x0 SWAP2 DUP3 MSTORE PUSH1 0x20 DUP3 KECCAK256 ADD DUP6 SWAP1 SSTORE PUSH1 0x8 DUP10 ADD DUP1 SLOAD DUP7 SWAP3 SWAP1 PUSH2 0x432F SWAP1 DUP5 SWAP1 PUSH2 0x5D53 JUMP JUMPDEST SWAP1 SWAP2 SSTORE POP POP PUSH1 0x15 DUP9 ADD DUP3 SWAP1 SSTORE PUSH1 0x40 DUP1 MLOAD PUSH1 0x0 DUP2 MSTORE PUSH1 0x20 DUP2 ADD SWAP2 DUP3 SWAP1 MSTORE MLOAD PUSH2 0x435A SWAP2 PUSH1 0x18 DUP12 ADD SWAP2 PUSH2 0x5258 JUMP JUMPDEST POP PUSH1 0x0 JUMPDEST DUP2 DUP2 PUSH1 0xFF AND LT ISZERO PUSH2 0x44D3 JUMPI PUSH1 0x3 DUP10 ADD SLOAD PUSH4 0xFFFFFFFF PUSH1 0x1 PUSH1 0xA8 SHL SWAP1 SWAP2 DIV DUP2 AND PUSH1 0x0 DUP2 DUP2 MSTORE PUSH1 0xD7 PUSH1 0x20 MSTORE PUSH1 0x40 DUP2 KECCAK256 DUP1 SLOAD SWAP3 SWAP4 SWAP1 SWAP3 AND SWAP1 SUB PUSH2 0x439F JUMPI POP POP PUSH2 0x44D3 JUMP JUMPDEST DUP3 PUSH1 0xFF AND PUSH1 0x0 SUB PUSH2 0x4401 JUMPI DUP7 DUP2 PUSH1 0xA ADD PUSH1 0x0 DUP3 DUP3 SLOAD PUSH2 0x43BE SWAP2 SWAP1 PUSH2 0x5D53 JUMP JUMPDEST SWAP1 SWAP2 SSTORE POP POP PUSH1 0x4 DUP2 DUP2 ADD DUP1 SLOAD PUSH1 0x1 DUP2 ADD DUP3 SSTORE PUSH1 0x0 SWAP2 DUP3 MSTORE PUSH1 0x20 SWAP1 SWAP2 KECCAK256 PUSH1 0x8 DUP3 DIV ADD DUP1 SLOAD PUSH1 0x7 SWAP1 SWAP3 AND SWAP1 SWAP3 MUL PUSH2 0x100 EXP PUSH4 0xFFFFFFFF DUP2 DUP2 MUL NOT SWAP1 SWAP3 AND SWAP2 DUP13 AND MUL OR SWAP1 SSTORE JUMPDEST DUP7 DUP2 PUSH1 0xC ADD PUSH1 0x0 DUP3 DUP3 SLOAD PUSH2 0x4415 SWAP2 SWAP1 PUSH2 0x5D53 JUMP JUMPDEST SWAP1 SWAP2 SSTORE POP POP PUSH4 0xFFFFFFFF DUP9 AND ISZERO PUSH2 0x4495 JUMPI PUSH1 0x5 DUP2 ADD DUP1 SLOAD PUSH1 0x1 DUP2 ADD DUP3 SSTORE PUSH1 0x0 SWAP2 DUP3 MSTORE PUSH1 0x20 DUP3 KECCAK256 PUSH1 0x8 DUP3 DIV ADD DUP1 SLOAD PUSH1 0x7 SWAP1 SWAP3 AND PUSH1 0x4 MUL PUSH2 0x100 EXP PUSH4 0xFFFFFFFF DUP2 DUP2 MUL NOT SWAP1 SWAP4 AND DUP14 DUP5 AND SWAP2 DUP3 MUL OR SWAP1 SWAP2 SSTORE DUP4 SLOAD PUSH1 0x40 MLOAD SWAP1 DUP4 AND SWAP4 SWAP3 DUP13 AND SWAP3 PUSH32 0x3EC54E926FE5DD86406FE57832FF318517AED2A5CFBEACFB90A5E9489483AE4B SWAP2 LOG4 JUMPDEST PUSH1 0xCF SLOAD PUSH5 0x100000000 SWAP1 DIV PUSH1 0xFF AND ISZERO PUSH2 0x44B3 JUMPI PUSH2 0x44B3 DUP2 DUP9 DUP8 PUSH2 0x483D JUMP JUMPDEST PUSH2 0x44BD DUP8 DUP7 PUSH2 0x4F97 JUMP JUMPDEST SWAP10 POP DUP2 SWAP1 POP PUSH2 0x44CB DUP2 PUSH2 0x5E7B JUMP JUMPDEST SWAP2 POP POP PUSH2 0x435E JUMP JUMPDEST POP POP POP POP POP POP POP POP POP JUMP JUMPDEST PUSH1 0xE0 DUP2 ADD MLOAD MLOAD PUSH1 0x0 SWAP1 DUP2 DUP2 ISZERO PUSH2 0x2DA6 JUMPI PUSH1 0xCF SLOAD PUSH1 0x1 SWAP1 PUSH2 0x450B SWAP1 PUSH7 0x1000000000000 SWAP1 DIV PUSH1 0xFF AND DUP5 PUSH2 0x5D66 JUMP JUMPDEST PUSH2 0x4515 SWAP2 SWAP1 PUSH2 0x5D7D JUMP JUMPDEST SWAP5 SWAP4 POP POP POP POP JUMP JUMPDEST PUSH1 0x1 PUSH1 0x1 PUSH1 0xA0 SHL SUB DUP2 AND EXTCODESIZE PUSH2 0x458A JUMPI PUSH1 0x40 MLOAD PUSH3 0x461BCD PUSH1 0xE5 SHL DUP2 MSTORE PUSH1 0x20 PUSH1 0x4 DUP3 ADD MSTORE PUSH1 0x2D PUSH1 0x24 DUP3 ADD MSTORE PUSH32 0x455243313936373A206E657720696D706C656D656E746174696F6E206973206E PUSH1 0x44 DUP3 ADD MSTORE PUSH13 0x1BDD08184818DBDB9D1C9858DD PUSH1 0x9A SHL PUSH1 0x64 DUP3 ADD MSTORE PUSH1 0x84 ADD PUSH2 0x1106 JUMP JUMPDEST PUSH1 0x0 DUP1 MLOAD PUSH1 0x20 PUSH2 0x5F15 DUP4 CODECOPY DUP2 MLOAD SWAP2 MSTORE DUP1 SLOAD PUSH1 0x1 PUSH1 0x1 PUSH1 0xA0 SHL SUB NOT AND PUSH1 0x1 PUSH1 0x1 PUSH1 0xA0 SHL SUB SWAP3 SWAP1 SWAP3 AND SWAP2 SWAP1 SWAP2 OR SWAP1 SSTORE JUMP JUMPDEST PUSH2 0x45C2 DUP4 PUSH2 0x4FD1 JUMP JUMPDEST PUSH1 0x0 DUP3 MLOAD GT DUP1 PUSH2 0x45CF JUMPI POP DUP1 JUMPDEST ISZERO PUSH2 0xA65 JUMPI PUSH2 0x45DE DUP4 DUP4 PUSH2 0x5011 JUMP JUMPDEST POP POP POP POP JUMP JUMPDEST PUSH1 0x1C DUP2 ADD SLOAD PUSH1 0x0 SWAP1 PUSH1 0xFF AND ISZERO DUP1 PUSH2 0x4603 JUMPI POP DUP2 PUSH1 0x14 ADD SLOAD DUP3 PUSH1 0x12 ADD SLOAD LT ISZERO JUMPDEST ISZERO PUSH2 0x4610 JUMPI POP PUSH1 0x1 SWAP2 SWAP1 POP JUMP JUMPDEST PUSH1 0x18 DUP3 ADD SLOAD ISZERO DUP1 ISZERO SWAP1 PUSH2 0x4750 JUMPI POP PUSH1 0xC9 PUSH1 0x0 SWAP1 SLOAD SWAP1 PUSH2 0x100 EXP SWAP1 DIV PUSH1 0x1 PUSH1 0x1 PUSH1 0xA0 SHL SUB AND PUSH1 0x1 PUSH1 0x1 PUSH1 0xA0 SHL SUB AND PUSH4 0x8908DF3A PUSH1 0x40 MLOAD DUP2 PUSH4 0xFFFFFFFF AND PUSH1 0xE0 SHL DUP2 MSTORE PUSH1 0x4 ADD PUSH1 0x20 PUSH1 0x40 MLOAD DUP1 DUP4 SUB DUP2 DUP7 GAS STATICCALL ISZERO DUP1 ISZERO PUSH2 0x4671 JUMPI RETURNDATASIZE PUSH1 0x0 DUP1 RETURNDATACOPY RETURNDATASIZE PUSH1 0x0 REVERT JUMPDEST POP POP POP POP PUSH1 0x40 MLOAD RETURNDATASIZE PUSH1 0x1F NOT PUSH1 0x1F DUP3 ADD AND DUP3 ADD DUP1 PUSH1 0x40 MSTORE POP DUP2 ADD SWAP1 PUSH2 0x4695 SWAP2 SWAP1 PUSH2 0x5D90 JUMP JUMPDEST PUSH1 0x1 PUSH1 0x1 PUSH1 0xA0 SHL SUB AND PUSH4 0x55332A85 DUP4 PUSH1 0x18 ADD PUSH1 0x1 DUP6 PUSH1 0x18 ADD DUP1 SLOAD SWAP1 POP PUSH2 0x46BB SWAP2 SWAP1 PUSH2 0x5D7D JUMP JUMPDEST DUP2 SLOAD DUP2 LT PUSH2 0x46CB JUMPI PUSH2 0x46CB PUSH2 0x5E65 JUMP JUMPDEST PUSH1 0x0 SWAP2 DUP3 MSTORE PUSH1 0x20 SWAP1 SWAP2 KECCAK256 PUSH1 0x8 DUP3 DIV ADD SLOAD PUSH1 0x40 MLOAD PUSH1 0xE0 DUP5 SWAP1 SHL PUSH1 0x1 PUSH1 0x1 PUSH1 0xE0 SHL SUB NOT AND DUP2 MSTORE PUSH1 0x7 SWAP1 SWAP3 AND PUSH1 0x4 SWAP1 DUP2 MUL PUSH2 0x100 EXP SWAP1 SWAP2 DIV PUSH4 0xFFFFFFFF AND SWAP1 DUP3 ADD MSTORE PUSH1 0x24 ADD PUSH1 0x20 PUSH1 0x40 MLOAD DUP1 DUP4 SUB DUP2 DUP7 GAS STATICCALL ISZERO DUP1 ISZERO PUSH2 0x472A JUMPI RETURNDATASIZE PUSH1 0x0 DUP1 RETURNDATACOPY RETURNDATASIZE PUSH1 0x0 REVERT JUMPDEST POP POP POP POP PUSH1 0x40 MLOAD RETURNDATASIZE PUSH1 0x1F NOT PUSH1 0x1F DUP3 ADD AND DUP3 ADD DUP1 PUSH1 0x40 MSTORE POP DUP2 ADD SWAP1 PUSH2 0x474E SWAP2 SWAP1 PUSH2 0x5BE6 JUMP JUMPDEST ISZERO JUMPDEST ISZERO PUSH2 0x475D JUMPI POP PUSH1 0x1 SWAP2 SWAP1 POP JUMP JUMPDEST POP PUSH1 0x0 SWAP2 SWAP1 POP JUMP JUMPDEST PUSH1 0x1C DUP2 ADD DUP1 SLOAD PUSH1 0xFF NOT AND SWAP1 SSTORE PUSH1 0x40 DUP1 MLOAD PUSH1 0x0 DUP2 MSTORE PUSH1 0x20 DUP2 ADD SWAP2 DUP3 SWAP1 MSTORE MLOAD PUSH2 0x4790 SWAP2 PUSH1 0x18 DUP5 ADD SWAP2 PUSH2 0x5258 JUMP JUMPDEST POP PUSH1 0x0 PUSH1 0x12 DUP3 ADD DUP2 SWAP1 SSTORE PUSH1 0x13 DUP3 ADD DUP2 SWAP1 SSTORE PUSH1 0x14 DUP3 ADD SSTORE TIMESTAMP PUSH1 0x16 DUP3 ADD SSTORE DUP1 SLOAD PUSH1 0x40 DUP1 MLOAD PUSH4 0xFFFFFFFF SWAP1 SWAP3 AND DUP3 MSTORE PUSH1 0x20 DUP3 ADD DUP2 SWAP1 MSTORE PUSH1 0x11 SWAP1 DUP3 ADD MSTORE PUSH17 0x13585E08131A5B5A5D0814995858DA1959 PUSH1 0x7A SHL PUSH1 0x60 DUP3 ADD MSTORE PUSH32 0xCE8AB8F2AC6A94861F9740FA1FED3E6D13A85DFD8A4833BF96F3A0055BA7FB6F SWAP1 PUSH1 0x80 ADD PUSH2 0x20C8 JUMP JUMPDEST PUSH1 0x0 SLOAD PUSH2 0x100 SWAP1 DIV PUSH1 0xFF AND PUSH2 0x4834 JUMPI PUSH1 0x40 MLOAD PUSH3 0x461BCD PUSH1 0xE5 SHL DUP2 MSTORE PUSH1 0x4 ADD PUSH2 0x1106 SWAP1 PUSH2 0x5E9A JUMP JUMPDEST PUSH2 0x1C02 CALLER PUSH2 0x3F70 JUMP JUMPDEST PUSH1 0x10 DUP4 ADD SLOAD PUSH1 0x40 DUP1 MLOAD PUSH2 0x480 DUP2 ADD SWAP1 SWAP2 MSTORE DUP5 SLOAD PUSH4 0xFFFFFFFF AND DUP2 MSTORE PUSH1 0x1 DUP6 ADD DUP1 SLOAD PUSH1 0xFF SWAP1 SWAP4 AND SWAP3 PUSH2 0x4CE3 SWAP3 SWAP2 DUP8 SWAP2 PUSH1 0x20 DUP5 ADD SWAP2 SWAP1 PUSH2 0x487A SWAP1 PUSH2 0x5B14 JUMP JUMPDEST DUP1 PUSH1 0x1F ADD PUSH1 0x20 DUP1 SWAP2 DIV MUL PUSH1 0x20 ADD PUSH1 0x40 MLOAD SWAP1 DUP2 ADD PUSH1 0x40 MSTORE DUP1 SWAP3 SWAP2 SWAP1 DUP2 DUP2 MSTORE PUSH1 0x20 ADD DUP3 DUP1 SLOAD PUSH2 0x48A6 SWAP1 PUSH2 0x5B14 JUMP JUMPDEST DUP1 ISZERO PUSH2 0x48F3 JUMPI DUP1 PUSH1 0x1F LT PUSH2 0x48C8 JUMPI PUSH2 0x100 DUP1 DUP4 SLOAD DIV MUL DUP4 MSTORE SWAP2 PUSH1 0x20 ADD SWAP2 PUSH2 0x48F3 JUMP JUMPDEST DUP3 ADD SWAP2 SWAP1 PUSH1 0x0 MSTORE PUSH1 0x20 PUSH1 0x0 KECCAK256 SWAP1 JUMPDEST DUP2 SLOAD DUP2 MSTORE SWAP1 PUSH1 0x1 ADD SWAP1 PUSH1 0x20 ADD DUP1 DUP4 GT PUSH2 0x48D6 JUMPI DUP3 SWAP1 SUB PUSH1 0x1F AND DUP3 ADD SWAP2 JUMPDEST POP POP POP SWAP2 DUP4 MSTORE POP POP PUSH1 0x2 DUP3 ADD SLOAD PUSH1 0x20 DUP1 DUP4 ADD SWAP2 SWAP1 SWAP2 MSTORE PUSH1 0x3 DUP4 ADD SLOAD PUSH1 0xFF DUP1 DUP3 AND ISZERO ISZERO PUSH1 0x40 DUP1 DUP7 ADD SWAP2 SWAP1 SWAP2 MSTORE PUSH1 0x1 PUSH1 0x1 PUSH1 0xA0 SHL SUB PUSH2 0x100 DUP5 DIV AND PUSH1 0x60 DUP7 ADD MSTORE PUSH4 0xFFFFFFFF PUSH1 0x1 PUSH1 0xA8 SHL DUP5 DIV AND PUSH1 0x80 DUP7 ADD MSTORE PUSH1 0x1 PUSH1 0xC8 SHL SWAP1 SWAP3 DIV AND ISZERO ISZERO PUSH1 0xA0 DUP5 ADD MSTORE PUSH1 0x4 DUP5 ADD DUP1 SLOAD DUP3 MLOAD DUP2 DUP6 MUL DUP2 ADD DUP6 ADD SWAP1 SWAP4 MSTORE DUP1 DUP4 MSTORE PUSH1 0xC0 SWAP1 SWAP5 ADD SWAP4 SWAP2 SWAP3 SWAP1 SWAP2 SWAP1 DUP4 ADD DUP3 DUP3 DUP1 ISZERO PUSH2 0x49CE JUMPI PUSH1 0x20 MUL DUP3 ADD SWAP2 SWAP1 PUSH1 0x0 MSTORE PUSH1 0x20 PUSH1 0x0 KECCAK256 SWAP1 PUSH1 0x0 SWAP1 JUMPDEST DUP3 DUP3 SWAP1 SLOAD SWAP1 PUSH2 0x100 EXP SWAP1 DIV PUSH4 0xFFFFFFFF AND PUSH4 0xFFFFFFFF AND DUP2 MSTORE PUSH1 0x20 ADD SWAP1 PUSH1 0x4 ADD SWAP1 PUSH1 0x20 DUP3 PUSH1 0x3 ADD DIV SWAP3 DUP4 ADD SWAP3 PUSH1 0x1 SUB DUP3 MUL SWAP2 POP DUP1 DUP5 GT PUSH2 0x4991 JUMPI SWAP1 POP JUMPDEST POP POP POP POP POP DUP2 MSTORE PUSH1 0x20 ADD PUSH1 0x5 DUP3 ADD DUP1 SLOAD DUP1 PUSH1 0x20 MUL PUSH1 0x20 ADD PUSH1 0x40 MLOAD SWAP1 DUP2 ADD PUSH1 0x40 MSTORE DUP1 SWAP3 SWAP2 SWAP1 DUP2 DUP2 MSTORE PUSH1 0x20 ADD DUP3 DUP1 SLOAD DUP1 ISZERO PUSH2 0x4A52 JUMPI PUSH1 0x20 MUL DUP3 ADD SWAP2 SWAP1 PUSH1 0x0 MSTORE PUSH1 0x20 PUSH1 0x0 KECCAK256 SWAP1 PUSH1 0x0 SWAP1 JUMPDEST DUP3 DUP3 SWAP1 SLOAD SWAP1 PUSH2 0x100 EXP SWAP1 DIV PUSH4 0xFFFFFFFF AND PUSH4 0xFFFFFFFF AND DUP2 MSTORE PUSH1 0x20 ADD SWAP1 PUSH1 0x4 ADD SWAP1 PUSH1 0x20 DUP3 PUSH1 0x3 ADD DIV SWAP3 DUP4 ADD SWAP3 PUSH1 0x1 SUB DUP3 MUL SWAP2 POP DUP1 DUP5 GT PUSH2 0x4A15 JUMPI SWAP1 POP JUMPDEST POP POP POP POP POP DUP2 MSTORE PUSH1 0x20 ADD PUSH1 0x6 DUP3 ADD DUP1 SLOAD DUP1 PUSH1 0x20 MUL PUSH1 0x20 ADD PUSH1 0x40 MLOAD SWAP1 DUP2 ADD PUSH1 0x40 MSTORE DUP1 SWAP3 SWAP2 SWAP1 DUP2 DUP2 MSTORE PUSH1 0x20 ADD DUP3 DUP1 SLOAD DUP1 ISZERO PUSH2 0x4AD6 JUMPI PUSH1 0x20 MUL DUP3 ADD SWAP2 SWAP1 PUSH1 0x0 MSTORE PUSH1 0x20 PUSH1 0x0 KECCAK256 SWAP1 PUSH1 0x0 SWAP1 JUMPDEST DUP3 DUP3 SWAP1 SLOAD SWAP1 PUSH2 0x100 EXP SWAP1 DIV PUSH4 0xFFFFFFFF AND PUSH4 0xFFFFFFFF AND DUP2 MSTORE PUSH1 0x20 ADD SWAP1 PUSH1 0x4 ADD SWAP1 PUSH1 0x20 DUP3 PUSH1 0x3 ADD DIV SWAP3 DUP4 ADD SWAP3 PUSH1 0x1 SUB DUP3 MUL SWAP2 POP DUP1 DUP5 GT PUSH2 0x4A99 JUMPI SWAP1 POP JUMPDEST POP POP POP POP POP DUP2 MSTORE PUSH1 0x20 ADD PUSH1 0x7 DUP3 ADD DUP1 SLOAD DUP1 PUSH1 0x20 MUL PUSH1 0x20 ADD PUSH1 0x40 MLOAD SWAP1 DUP2 ADD PUSH1 0x40 MSTORE DUP1 SWAP3 SWAP2 SWAP1 DUP2 DUP2 MSTORE PUSH1 0x20 ADD DUP3 DUP1 SLOAD DUP1 ISZERO PUSH2 0x4B2E JUMPI PUSH1 0x20 MUL DUP3 ADD SWAP2 SWAP1 PUSH1 0x0 MSTORE PUSH1 0x20 PUSH1 0x0 KECCAK256 SWAP1 JUMPDEST DUP2 SLOAD DUP2 MSTORE PUSH1 0x20 ADD SWAP1 PUSH1 0x1 ADD SWAP1 DUP1 DUP4 GT PUSH2 0x4B1A JUMPI JUMPDEST POP POP POP SWAP2 DUP4 MSTORE POP POP PUSH1 0x8 DUP3 ADD SLOAD PUSH1 0x20 DUP1 DUP4 ADD SWAP2 SWAP1 SWAP2 MSTORE PUSH1 0x9 DUP4 ADD SLOAD PUSH1 0x40 DUP1 DUP5 ADD SWAP2 SWAP1 SWAP2 MSTORE PUSH1 0xA DUP5 ADD SLOAD PUSH1 0x60 DUP5 ADD MSTORE PUSH1 0xB DUP5 ADD SLOAD PUSH1 0x80 DUP5 ADD MSTORE PUSH1 0xC DUP5 ADD SLOAD PUSH1 0xA0 DUP5 ADD MSTORE PUSH1 0xD DUP5 ADD SLOAD PUSH1 0xC0 DUP5 ADD MSTORE PUSH1 0xE DUP5 ADD SLOAD PUSH1 0xE0 DUP5 ADD MSTORE PUSH1 0xF DUP5 ADD SLOAD PUSH2 0x100 DUP1 DUP6 ADD SWAP2 SWAP1 SWAP2 MSTORE PUSH1 0x10 DUP6 ADD SLOAD PUSH1 0xFF DUP2 AND PUSH2 0x120 DUP7 ADD MSTORE DIV PUSH4 0xFFFFFFFF AND PUSH2 0x140 DUP5 ADD MSTORE PUSH1 0x11 DUP5 ADD SLOAD PUSH2 0x160 DUP5 ADD MSTORE PUSH1 0x12 DUP5 ADD SLOAD PUSH2 0x180 DUP5 ADD MSTORE PUSH1 0x13 DUP5 ADD SLOAD PUSH2 0x1A0 DUP5 ADD MSTORE PUSH1 0x14 DUP5 ADD SLOAD PUSH2 0x1C0 DUP5 ADD MSTORE PUSH1 0x15 DUP5 ADD SLOAD PUSH2 0x1E0 DUP5 ADD MSTORE PUSH1 0x16 DUP5 ADD SLOAD PUSH2 0x200 DUP5 ADD MSTORE PUSH1 0x17 DUP5 ADD SLOAD PUSH2 0x220 DUP5 ADD MSTORE PUSH1 0x18 DUP5 ADD DUP1 SLOAD DUP3 MLOAD DUP2 DUP6 MUL DUP2 ADD DUP6 ADD SWAP1 SWAP4 MSTORE DUP1 DUP4 MSTORE PUSH2 0x240 SWAP1 SWAP5 ADD SWAP4 SWAP2 SWAP3 SWAP1 SWAP2 SWAP1 DUP4 ADD DUP3 DUP3 DUP1 ISZERO PUSH2 0x4C78 JUMPI PUSH1 0x20 MUL DUP3 ADD SWAP2 SWAP1 PUSH1 0x0 MSTORE PUSH1 0x20 PUSH1 0x0 KECCAK256 SWAP1 PUSH1 0x0 SWAP1 JUMPDEST DUP3 DUP3 SWAP1 SLOAD SWAP1 PUSH2 0x100 EXP SWAP1 DIV PUSH4 0xFFFFFFFF AND PUSH4 0xFFFFFFFF AND DUP2 MSTORE PUSH1 0x20 ADD SWAP1 PUSH1 0x4 ADD SWAP1 PUSH1 0x20 DUP3 PUSH1 0x3 ADD DIV SWAP3 DUP4 ADD SWAP3 PUSH1 0x1 SUB DUP3 MUL SWAP2 POP DUP1 DUP5 GT PUSH2 0x4C3B JUMPI SWAP1 POP JUMPDEST POP POP POP SWAP2 DUP4 MSTORE POP POP PUSH1 0x19 DUP3 ADD SLOAD PUSH1 0x20 DUP3 ADD MSTORE PUSH1 0x1A DUP3 ADD SLOAD PUSH1 0x40 DUP3 ADD MSTORE PUSH1 0x1B DUP3 ADD SLOAD PUSH1 0x60 DUP3 ADD MSTORE PUSH1 0x1C SWAP1 SWAP2 ADD SLOAD PUSH1 0xFF DUP1 DUP3 AND ISZERO ISZERO PUSH1 0x80 DUP5 ADD MSTORE PUSH2 0x100 DUP3 DIV DUP2 AND ISZERO ISZERO PUSH1 0xA0 DUP5 ADD MSTORE PUSH3 0x10000 DUP3 DIV DUP2 AND ISZERO ISZERO PUSH1 0xC0 DUP5 ADD MSTORE PUSH4 0x1000000 SWAP1 SWAP2 DIV AND ISZERO ISZERO PUSH1 0xE0 SWAP1 SWAP2 ADD MSTORE PUSH2 0x4018 JUMP JUMPDEST PUSH1 0xFF AND GT ISZERO PUSH2 0xA65 JUMPI PUSH1 0x40 DUP1 MLOAD PUSH2 0x480 DUP2 ADD SWAP1 SWAP2 MSTORE DUP4 SLOAD PUSH4 0xFFFFFFFF AND DUP2 MSTORE PUSH1 0x1 DUP5 ADD DUP1 SLOAD PUSH2 0x4D1E SWAP3 SWAP2 DUP7 SWAP2 PUSH1 0x20 DUP5 ADD SWAP2 SWAP1 PUSH2 0x487A SWAP1 PUSH2 0x5B14 JUMP JUMPDEST PUSH1 0x10 DUP5 ADD DUP1 SLOAD PUSH1 0xFF NOT AND PUSH1 0xFF SWAP3 DUP4 AND SWAP1 DUP2 OR DUP3 SSTORE PUSH1 0x0 SWAP1 DUP2 MSTORE PUSH1 0xD8 PUSH1 0x20 SWAP1 DUP2 MSTORE PUSH1 0x40 DUP1 DUP4 KECCAK256 DUP9 SLOAD PUSH1 0x9 SWAP2 DUP3 ADD DUP1 SLOAD PUSH1 0x1 DUP2 DUP2 ADD DUP4 SSTORE SWAP2 DUP8 MSTORE SWAP5 DUP7 KECCAK256 PUSH1 0x8 DUP7 DIV ADD DUP1 SLOAD PUSH4 0xFFFFFFFF PUSH1 0x7 SWAP1 SWAP8 AND PUSH1 0x4 MUL PUSH2 0x100 EXP DUP8 DUP2 MUL NOT SWAP1 SWAP2 AND SWAP7 SWAP1 SWAP4 AND SWAP1 SWAP3 MUL SWAP5 SWAP1 SWAP5 OR SWAP1 SSTORE SWAP4 SLOAD SWAP1 SWAP5 AND DUP3 MSTORE SWAP3 SWAP1 KECCAK256 ADD SLOAD PUSH2 0x4D9B SWAP2 SWAP1 PUSH2 0x5D7D JUMP JUMPDEST PUSH1 0x10 DUP5 ADD DUP1 SLOAD PUSH5 0xFFFFFFFF00 NOT DUP2 AND PUSH2 0x100 PUSH4 0xFFFFFFFF SWAP5 DUP6 AND DUP2 MUL SWAP2 DUP3 OR SWAP4 DUP5 SWAP1 SSTORE DUP8 SLOAD PUSH1 0x40 DUP1 MLOAD SWAP2 DUP8 AND DUP3 MSTORE SWAP2 SWAP1 SWAP5 DIV SWAP1 SWAP5 AND PUSH1 0x20 DUP5 ADD MSTORE PUSH1 0xFF SWAP2 DUP3 AND SWAP2 AND OR SWAP2 DUP2 ADD SWAP2 SWAP1 SWAP2 MSTORE PUSH32 0x4D3AF8F60FFD033B575846F894122F2342B39BC9A90DA98D0A966128702B568D SWAP1 PUSH1 0x60 ADD PUSH1 0x40 MLOAD DUP1 SWAP2 SUB SWAP1 LOG1 PUSH1 0x40 DUP1 MLOAD PUSH2 0x480 DUP2 ADD SWAP1 SWAP2 MSTORE DUP4 SLOAD PUSH4 0xFFFFFFFF AND DUP2 MSTORE PUSH1 0x1 DUP5 ADD DUP1 SLOAD PUSH1 0xD8 SWAP3 PUSH1 0x0 SWAP3 PUSH2 0x4E47 SWAP3 DUP9 SWAP2 PUSH1 0x20 DUP5 ADD SWAP2 PUSH2 0x487A SWAP1 PUSH2 0x5B14 JUMP JUMPDEST PUSH1 0xFF SWAP1 DUP2 AND DUP3 MSTORE PUSH1 0x20 DUP3 ADD SWAP3 SWAP1 SWAP3 MSTORE PUSH1 0x40 ADD PUSH1 0x0 KECCAK256 PUSH1 0x8 ADD SLOAD AND ISZERO PUSH2 0x4F06 JUMPI PUSH1 0x40 DUP1 MLOAD PUSH2 0x480 DUP2 ADD SWAP1 SWAP2 MSTORE DUP4 SLOAD PUSH4 0xFFFFFFFF AND DUP2 MSTORE PUSH1 0x1 DUP5 ADD DUP1 SLOAD PUSH1 0xD8 SWAP3 PUSH1 0x0 SWAP3 PUSH2 0x4E9C SWAP3 DUP9 SWAP2 PUSH1 0x20 DUP5 ADD SWAP2 PUSH2 0x487A SWAP1 PUSH2 0x5B14 JUMP JUMPDEST PUSH1 0xFF AND PUSH1 0xFF AND DUP2 MSTORE PUSH1 0x20 ADD SWAP1 DUP2 MSTORE PUSH1 0x20 ADD PUSH1 0x0 KECCAK256 PUSH1 0x7 ADD SLOAD DUP4 PUSH1 0xF ADD SLOAD PUSH2 0x4EC3 SWAP2 SWAP1 PUSH2 0x5D53 JUMP JUMPDEST DUP2 GT ISZERO PUSH2 0x4EF2 JUMPI DUP1 DUP4 PUSH1 0xF ADD DUP2 SWAP1 SSTORE POP DUP2 DUP4 PUSH1 0xE ADD PUSH1 0x0 DUP3 DUP3 SLOAD PUSH2 0x4EE7 SWAP2 SWAP1 PUSH2 0x5D53 JUMP JUMPDEST SWAP1 SWAP2 SSTORE POP PUSH2 0xA65 SWAP1 POP JUMP JUMPDEST DUP2 DUP4 PUSH1 0xE ADD PUSH1 0x0 DUP3 DUP3 SLOAD PUSH2 0x4EE7 SWAP2 SWAP1 PUSH2 0x5D53 JUMP JUMPDEST PUSH1 0xCF SLOAD PUSH5 0x100000000 SWAP1 DIV PUSH1 0xFF AND ISZERO PUSH2 0xA65 JUMPI PUSH1 0x10 DUP4 ADD SLOAD PUSH1 0xFF AND PUSH1 0x0 SWAP1 DUP2 MSTORE PUSH1 0xD8 PUSH1 0x20 MSTORE PUSH1 0x40 SWAP1 KECCAK256 PUSH1 0x5 ADD SLOAD PUSH2 0x4F3E SWAP1 DUP5 SWAP1 PUSH2 0x3EE6 JUMP JUMPDEST PUSH1 0x10 DUP4 ADD SLOAD PUSH1 0xFF SWAP1 DUP2 AND PUSH1 0x0 SWAP1 DUP2 MSTORE PUSH1 0xD8 PUSH1 0x20 MSTORE PUSH1 0x40 DUP1 DUP3 KECCAK256 PUSH1 0x5 DUP2 ADD SLOAD SWAP1 SLOAD DUP8 SLOAD SWAP3 MLOAD SWAP2 SWAP5 AND SWAP3 PUSH4 0xFFFFFFFF SWAP1 SWAP3 AND SWAP2 PUSH32 0xDEAF5B294F5016988108257045FC779D7D01E05A4ECDC4DF70F62D5A799E053B SWAP2 LOG4 POP POP POP JUMP JUMPDEST PUSH1 0xD2 SLOAD PUSH1 0xD1 SLOAD PUSH2 0x4FA7 SWAP2 SWAP1 PUSH2 0x5D53 JUMP JUMPDEST DUP2 GT ISZERO PUSH2 0x4FB6 JUMPI PUSH1 0xD1 SSTORE PUSH1 0xD0 SSTORE JUMP JUMPDEST DUP2 PUSH1 0xD0 PUSH1 0x0 DUP3 DUP3 SLOAD PUSH2 0x4FC8 SWAP2 SWAP1 PUSH2 0x5D53 JUMP JUMPDEST SWAP1 SWAP2 SSTORE POP POP POP POP JUMP JUMPDEST PUSH2 0x4FDA DUP2 PUSH2 0x451D JUMP JUMPDEST PUSH1 0x40 MLOAD PUSH1 0x1 PUSH1 0x1 PUSH1 0xA0 SHL SUB DUP3 AND SWAP1 PUSH32 0xBC7CD75A20EE27FD9ADEBAB32041F755214DBC6BFFA90CC0225B39DA2E5C2D3B SWAP1 PUSH1 0x0 SWAP1 LOG2 POP JUMP JUMPDEST PUSH1 0x60 PUSH1 0x1 PUSH1 0x1 PUSH1 0xA0 SHL SUB DUP4 AND EXTCODESIZE PUSH2 0x5079 JUMPI PUSH1 0x40 MLOAD PUSH3 0x461BCD PUSH1 0xE5 SHL DUP2 MSTORE PUSH1 0x20 PUSH1 0x4 DUP3 ADD MSTORE PUSH1 0x26 PUSH1 0x24 DUP3 ADD MSTORE PUSH32 0x416464726573733A2064656C65676174652063616C6C20746F206E6F6E2D636F PUSH1 0x44 DUP3 ADD MSTORE PUSH6 0x1B9D1C9858DD PUSH1 0xD2 SHL PUSH1 0x64 DUP3 ADD MSTORE PUSH1 0x84 ADD PUSH2 0x1106 JUMP JUMPDEST PUSH1 0x0 DUP1 DUP5 PUSH1 0x1 PUSH1 0x1 PUSH1 0xA0 SHL SUB AND DUP5 PUSH1 0x40 MLOAD PUSH2 0x5094 SWAP2 SWAP1 PUSH2 0x5EE5 JUMP JUMPDEST PUSH1 0x0 PUSH1 0x40 MLOAD DUP1 DUP4 SUB DUP2 DUP6 GAS DELEGATECALL SWAP2 POP POP RETURNDATASIZE DUP1 PUSH1 0x0 DUP2 EQ PUSH2 0x50CF JUMPI PUSH1 0x40 MLOAD SWAP2 POP PUSH1 0x1F NOT PUSH1 0x3F RETURNDATASIZE ADD AND DUP3 ADD PUSH1 0x40 MSTORE RETURNDATASIZE DUP3 MSTORE RETURNDATASIZE PUSH1 0x0 PUSH1 0x20 DUP5 ADD RETURNDATACOPY PUSH2 0x50D4 JUMP JUMPDEST PUSH1 0x60 SWAP2 POP JUMPDEST POP SWAP2 POP SWAP2 POP PUSH2 0x50FC DUP3 DUP3 PUSH1 0x40 MLOAD DUP1 PUSH1 0x60 ADD PUSH1 0x40 MSTORE DUP1 PUSH1 0x27 DUP2 MSTORE PUSH1 0x20 ADD PUSH2 0x5F35 PUSH1 0x27 SWAP2 CODECOPY PUSH2 0x5107 JUMP JUMPDEST SWAP3 POP POP POP JUMPDEST SWAP3 SWAP2 POP POP JUMP JUMPDEST PUSH1 0x60 DUP4 ISZERO PUSH2 0x5116 JUMPI POP DUP2 PUSH2 0x2DA6 JUMP JUMPDEST PUSH2 0x2DA6 DUP4 DUP4 DUP2 MLOAD ISZERO PUSH2 0x512B JUMPI DUP2 MLOAD DUP1 DUP4 PUSH1 0x20 ADD REVERT JUMPDEST DUP1 PUSH1 0x40 MLOAD PUSH3 0x461BCD PUSH1 0xE5 SHL DUP2 MSTORE PUSH1 0x4 ADD PUSH2 0x1106 SWAP2 SWAP1 PUSH2 0x5F01 JUMP JUMPDEST DUP3 DUP1 SLOAD DUP3 DUP3 SSTORE SWAP1 PUSH1 0x0 MSTORE PUSH1 0x20 PUSH1 0x0 KECCAK256 SWAP1 PUSH1 0xF ADD PUSH1 0x10 SWAP1 DIV DUP2 ADD SWAP3 DUP3 ISZERO PUSH2 0x51DD JUMPI SWAP2 PUSH1 0x20 MUL DUP3 ADD PUSH1 0x0 JUMPDEST DUP4 DUP3 GT ISZERO PUSH2 0x51AD JUMPI DUP4 MLOAD DUP4 DUP3 PUSH2 0x100 EXP DUP2 SLOAD DUP2 PUSH2 0xFFFF MUL NOT AND SWAP1 DUP4 PUSH1 0xFF AND MUL OR SWAP1 SSTORE POP SWAP3 PUSH1 0x20 ADD SWAP3 PUSH1 0x2 ADD PUSH1 0x20 DUP2 PUSH1 0x1 ADD DIV SWAP3 DUP4 ADD SWAP3 PUSH1 0x1 SUB MUL PUSH2 0x516E JUMP JUMPDEST DUP1 ISZERO PUSH2 0x51DB JUMPI DUP3 DUP2 PUSH2 0x100 EXP DUP2 SLOAD SWAP1 PUSH2 0xFFFF MUL NOT AND SWAP1 SSTORE PUSH1 0x2 ADD PUSH1 0x20 DUP2 PUSH1 0x1 ADD DIV SWAP3 DUP4 ADD SWAP3 PUSH1 0x1 SUB MUL PUSH2 0x51AD JUMP JUMPDEST POP JUMPDEST POP PUSH2 0x51E9 SWAP3 SWAP2 POP PUSH2 0x52F5 JUMP JUMPDEST POP SWAP1 JUMP JUMPDEST DUP3 DUP1 SLOAD DUP3 DUP3 SSTORE SWAP1 PUSH1 0x0 MSTORE PUSH1 0x20 PUSH1 0x0 KECCAK256 SWAP1 PUSH1 0xF ADD PUSH1 0x10 SWAP1 DIV DUP2 ADD SWAP3 DUP3 ISZERO PUSH2 0x51DD JUMPI SWAP2 PUSH1 0x20 MUL DUP3 ADD PUSH1 0x0 JUMPDEST DUP4 DUP3 GT ISZERO PUSH2 0x51AD JUMPI DUP4 CALLDATALOAD PUSH1 0xFF AND DUP4 DUP3 PUSH2 0x100 EXP DUP2 SLOAD DUP2 PUSH2 0xFFFF MUL NOT AND SWAP1 DUP4 PUSH1 0xFF AND MUL OR SWAP1 SSTORE POP SWAP3 PUSH1 0x20 ADD SWAP3 PUSH1 0x2 ADD PUSH1 0x20 DUP2 PUSH1 0x1 ADD DIV SWAP3 DUP4 ADD SWAP3 PUSH1 0x1 SUB MUL PUSH2 0x5216 JUMP JUMPDEST DUP3 DUP1 SLOAD DUP3 DUP3 SSTORE SWAP1 PUSH1 0x0 MSTORE PUSH1 0x20 PUSH1 0x0 KECCAK256 SWAP1 PUSH1 0x7 ADD PUSH1 0x8 SWAP1 DIV DUP2 ADD SWAP3 DUP3 ISZERO PUSH2 0x51DD JUMPI SWAP2 PUSH1 0x20 MUL DUP3 ADD PUSH1 0x0 JUMPDEST DUP4 DUP3 GT ISZERO PUSH2 0x52C5 JUMPI DUP4 MLOAD DUP4 DUP3 PUSH2 0x100 EXP DUP2 SLOAD DUP2 PUSH4 0xFFFFFFFF MUL NOT AND SWAP1 DUP4 PUSH4 0xFFFFFFFF AND MUL OR SWAP1 SSTORE POP SWAP3 PUSH1 0x20 ADD SWAP3 PUSH1 0x4 ADD PUSH1 0x20 DUP2 PUSH1 0x3 ADD DIV SWAP3 DUP4 ADD SWAP3 PUSH1 0x1 SUB MUL PUSH2 0x5281 JUMP JUMPDEST DUP1 ISZERO PUSH2 0x51DB JUMPI DUP3 DUP2 PUSH2 0x100 EXP DUP2 SLOAD SWAP1 PUSH4 0xFFFFFFFF MUL NOT AND SWAP1 SSTORE PUSH1 0x4 ADD PUSH1 0x20 DUP2 PUSH1 0x3 ADD DIV SWAP3 DUP4 ADD SWAP3 PUSH1 0x1 SUB MUL PUSH2 0x52C5 JUMP JUMPDEST JUMPDEST DUP1 DUP3 GT ISZERO PUSH2 0x51E9 JUMPI PUSH1 0x0 DUP2 SSTORE PUSH1 0x1 ADD PUSH2 0x52F6 JUMP JUMPDEST DUP1 CALLDATALOAD PUSH1 0xFF DUP2 AND DUP2 EQ PUSH2 0x531B JUMPI PUSH1 0x0 DUP1 REVERT JUMPDEST SWAP2 SWAP1 POP JUMP JUMPDEST PUSH1 0x0 PUSH1 0x20 DUP3 DUP5 SUB SLT ISZERO PUSH2 0x5332 JUMPI PUSH1 0x0 DUP1 REVERT JUMPDEST PUSH2 0x2DA6 DUP3 PUSH2 0x530A JUMP JUMPDEST PUSH1 0x20 DUP1 DUP3 MSTORE DUP3 MLOAD DUP3 DUP3 ADD DUP2 SWAP1 MSTORE PUSH1 0x0 SWAP2 SWAP1 DUP5 DUP3 ADD SWAP1 PUSH1 0x40 DUP6 ADD SWAP1 DUP5 JUMPDEST DUP2 DUP2 LT ISZERO PUSH2 0x5379 JUMPI DUP4 MLOAD PUSH4 0xFFFFFFFF AND DUP4 MSTORE SWAP3 DUP5 ADD SWAP3 SWAP2 DUP5 ADD SWAP2 PUSH1 0x1 ADD PUSH2 0x5357 JUMP JUMPDEST POP SWAP1 SWAP7 SWAP6 POP POP POP POP POP POP JUMP JUMPDEST PUSH1 0x1 PUSH1 0x1 PUSH1 0xA0 SHL SUB DUP2 AND DUP2 EQ PUSH2 0x10BB JUMPI PUSH1 0x0 DUP1 REVERT JUMPDEST PUSH1 0x0 DUP1 PUSH1 0x40 DUP4 DUP6 SUB SLT ISZERO PUSH2 0x53AD JUMPI PUSH1 0x0 DUP1 REVERT JUMPDEST DUP3 CALLDATALOAD PUSH2 0x53B8 DUP2 PUSH2 0x5385 JUMP JUMPDEST SWAP5 PUSH1 0x20 SWAP4 SWAP1 SWAP4 ADD CALLDATALOAD SWAP4 POP POP POP JUMP JUMPDEST PUSH1 0x0 PUSH1 0x20 DUP3 DUP5 SUB SLT ISZERO PUSH2 0x53D8 JUMPI PUSH1 0x0 DUP1 REVERT JUMPDEST POP CALLDATALOAD SWAP2 SWAP1 POP JUMP JUMPDEST PUSH4 0xFFFFFFFF DUP2 AND DUP2 EQ PUSH2 0x10BB JUMPI PUSH1 0x0 DUP1 REVERT JUMPDEST PUSH1 0x0 PUSH1 0x20 DUP3 DUP5 SUB SLT ISZERO PUSH2 0x5403 JUMPI PUSH1 0x0 DUP1 REVERT JUMPDEST DUP2 CALLDATALOAD PUSH2 0x2DA6 DUP2 PUSH2 0x53DF JUMP JUMPDEST PUSH1 0x0 JUMPDEST DUP4 DUP2 LT ISZERO PUSH2 0x5429 JUMPI DUP2 DUP2 ADD MLOAD DUP4 DUP3 ADD MSTORE PUSH1 0x20 ADD PUSH2 0x5411 JUMP JUMPDEST POP POP PUSH1 0x0 SWAP2 ADD MSTORE JUMP JUMPDEST PUSH1 0x0 DUP2 MLOAD DUP1 DUP5 MSTORE PUSH2 0x544A DUP2 PUSH1 0x20 DUP7 ADD PUSH1 0x20 DUP7 ADD PUSH2 0x540E JUMP JUMPDEST PUSH1 0x1F ADD PUSH1 0x1F NOT AND SWAP3 SWAP1 SWAP3 ADD PUSH1 0x20 ADD SWAP3 SWAP2 POP POP JUMP JUMPDEST PUSH1 0x0 DUP2 MLOAD DUP1 DUP5 MSTORE PUSH1 0x20 DUP1 DUP6 ADD SWAP5 POP DUP1 DUP5 ADD PUSH1 0x0 JUMPDEST DUP4 DUP2 LT ISZERO PUSH2 0x5494 JUMPI DUP2 MLOAD PUSH4 0xFFFFFFFF AND DUP8 MSTORE SWAP6 DUP3 ADD SWAP6 SWAP1 DUP3 ADD SWAP1 PUSH1 0x1 ADD PUSH2 0x5472 JUMP JUMPDEST POP SWAP5 SWAP6 SWAP5 POP POP POP POP POP JUMP JUMPDEST PUSH1 0x0 DUP2 MLOAD DUP1 DUP5 MSTORE PUSH1 0x20 DUP1 DUP6 ADD SWAP5 POP DUP1 DUP5 ADD PUSH1 0x0 JUMPDEST DUP4 DUP2 LT ISZERO PUSH2 0x5494 JUMPI DUP2 MLOAD DUP8 MSTORE SWAP6 DUP3 ADD SWAP6 SWAP1 DUP3 ADD SWAP1 PUSH1 0x1 ADD PUSH2 0x54B3 JUMP JUMPDEST PUSH1 0x20 DUP2 MSTORE PUSH2 0x54E6 PUSH1 0x20 DUP3 ADD DUP4 MLOAD PUSH4 0xFFFFFFFF AND SWAP1 MSTORE JUMP JUMPDEST PUSH1 0x0 PUSH1 0x20 DUP4 ADD MLOAD PUSH2 0x480 DUP1 PUSH1 0x40 DUP6 ADD MSTORE PUSH2 0x5504 PUSH2 0x4A0 DUP6 ADD DUP4 PUSH2 0x5432 JUMP JUMPDEST SWAP2 POP PUSH1 0x40 DUP6 ADD MLOAD PUSH1 0x60 DUP6 ADD MSTORE PUSH1 0x60 DUP6 ADD MLOAD PUSH2 0x5523 PUSH1 0x80 DUP7 ADD DUP3 ISZERO ISZERO SWAP1 MSTORE JUMP JUMPDEST POP PUSH1 0x80 DUP6 ADD MLOAD PUSH1 0x1 PUSH1 0x1 PUSH1 0xA0 SHL SUB DUP2 AND PUSH1 0xA0 DUP7 ADD MSTORE POP PUSH1 0xA0 DUP6 ADD MLOAD PUSH4 0xFFFFFFFF DUP2 AND PUSH1 0xC0 DUP7 ADD MSTORE POP PUSH1 0xC0 DUP6 ADD MLOAD DUP1 ISZERO ISZERO PUSH1 0xE0 DUP7 ADD MSTORE POP PUSH1 0xE0 DUP6 ADD MLOAD PUSH1 0x1F NOT PUSH2 0x100 DUP2 DUP8 DUP7 SUB ADD DUP2 DUP9 ADD MSTORE PUSH2 0x5577 DUP6 DUP5 PUSH2 0x545E JUMP JUMPDEST SWAP5 POP DUP1 DUP9 ADD MLOAD SWAP3 POP POP PUSH2 0x120 DUP2 DUP8 DUP7 SUB ADD DUP2 DUP9 ADD MSTORE PUSH2 0x5596 DUP6 DUP5 PUSH2 0x545E JUMP JUMPDEST SWAP5 POP DUP1 DUP9 ADD MLOAD SWAP3 POP POP PUSH2 0x140 DUP2 DUP8 DUP7 SUB ADD DUP2 DUP9 ADD MSTORE PUSH2 0x55B5 DUP6 DUP5 PUSH2 0x545E JUMP JUMPDEST SWAP5 POP DUP1 DUP9 ADD MLOAD SWAP3 POP POP PUSH2 0x160 DUP2 DUP8 DUP7 SUB ADD DUP2 DUP9 ADD MSTORE PUSH2 0x55D4 DUP6 DUP5 PUSH2 0x549F JUMP JUMPDEST SWAP1 DUP9 ADD MLOAD PUSH2 0x180 DUP9 DUP2 ADD SWAP2 SWAP1 SWAP2 MSTORE DUP9 ADD MLOAD PUSH2 0x1A0 DUP1 DUP10 ADD SWAP2 SWAP1 SWAP2 MSTORE DUP9 ADD MLOAD PUSH2 0x1C0 DUP1 DUP10 ADD SWAP2 SWAP1 SWAP2 MSTORE DUP9 ADD MLOAD PUSH2 0x1E0 DUP1 DUP10 ADD SWAP2 SWAP1 SWAP2 MSTORE DUP9 ADD MLOAD PUSH2 0x200 DUP1 DUP10 ADD SWAP2 SWAP1 SWAP2 MSTORE DUP9 ADD MLOAD PUSH2 0x220 DUP1 DUP10 ADD SWAP2 SWAP1 SWAP2 MSTORE DUP9 ADD MLOAD PUSH2 0x240 DUP1 DUP10 ADD SWAP2 SWAP1 SWAP2 MSTORE DUP9 ADD MLOAD PUSH2 0x260 DUP1 DUP10 ADD SWAP2 SWAP1 SWAP2 MSTORE DUP9 ADD MLOAD SWAP1 SWAP5 POP SWAP2 POP PUSH2 0x280 PUSH2 0x5656 DUP2 DUP9 ADD DUP5 PUSH1 0xFF AND SWAP1 MSTORE JUMP JUMPDEST DUP8 ADD MLOAD SWAP2 POP PUSH2 0x2A0 PUSH2 0x566F DUP8 DUP3 ADD DUP5 PUSH4 0xFFFFFFFF AND SWAP1 MSTORE JUMP JUMPDEST DUP8 ADD MLOAD PUSH2 0x2C0 DUP8 DUP2 ADD SWAP2 SWAP1 SWAP2 MSTORE DUP8 ADD MLOAD PUSH2 0x2E0 DUP1 DUP9 ADD SWAP2 SWAP1 SWAP2 MSTORE DUP8 ADD MLOAD PUSH2 0x300 DUP1 DUP9 ADD SWAP2 SWAP1 SWAP2 MSTORE DUP8 ADD MLOAD PUSH2 0x320 DUP1 DUP9 ADD SWAP2 SWAP1 SWAP2 MSTORE DUP8 ADD MLOAD PUSH2 0x340 DUP1 DUP9 ADD SWAP2 SWAP1 SWAP2 MSTORE DUP8 ADD MLOAD PUSH2 0x360 DUP1 DUP9 ADD SWAP2 SWAP1 SWAP2 MSTORE DUP8 ADD MLOAD PUSH2 0x380 DUP1 DUP9 ADD SWAP2 SWAP1 SWAP2 MSTORE DUP8 ADD MLOAD DUP7 DUP6 SUB DUP3 ADD PUSH2 0x3A0 DUP1 DUP10 ADD SWAP2 SWAP1 SWAP2 MSTORE SWAP1 SWAP3 POP PUSH2 0x56E9 DUP6 DUP5 PUSH2 0x545E JUMP JUMPDEST SWAP1 DUP9 ADD MLOAD PUSH2 0x3C0 DUP9 DUP2 ADD SWAP2 SWAP1 SWAP2 MSTORE DUP9 ADD MLOAD PUSH2 0x3E0 DUP1 DUP10 ADD SWAP2 SWAP1 SWAP2 MSTORE DUP9 ADD MLOAD PUSH2 0x400 DUP1 DUP10 ADD SWAP2 SWAP1 SWAP2 MSTORE DUP9 ADD MLOAD SWAP1 SWAP5 POP SWAP2 POP PUSH2 0x420 SWAP1 POP PUSH2 0x572B DUP2 DUP8 ADD DUP4 ISZERO ISZERO SWAP1 MSTORE JUMP JUMPDEST DUP7 ADD MLOAD SWAP1 POP PUSH2 0x440 PUSH2 0x5740 DUP7 DUP3 ADD DUP4 ISZERO ISZERO SWAP1 MSTORE JUMP JUMPDEST DUP7 ADD MLOAD SWAP1 POP PUSH2 0x460 PUSH2 0x5755 DUP7 DUP3 ADD DUP4 ISZERO ISZERO SWAP1 MSTORE JUMP JUMPDEST SWAP1 SWAP6 ADD MLOAD ISZERO ISZERO SWAP4 ADD SWAP3 SWAP1 SWAP3 MSTORE POP SWAP2 SWAP1 POP JUMP JUMPDEST PUSH1 0x0 PUSH1 0x20 DUP3 DUP5 SUB SLT ISZERO PUSH2 0x5779 JUMPI PUSH1 0x0 DUP1 REVERT JUMPDEST DUP2 CALLDATALOAD PUSH2 0x2DA6 DUP2 PUSH2 0x5385 JUMP JUMPDEST PUSH1 0x0 DUP1 PUSH1 0x40 DUP4 DUP6 SUB SLT ISZERO PUSH2 0x5797 JUMPI PUSH1 0x0 DUP1 REVERT JUMPDEST DUP3 CALLDATALOAD SWAP2 POP PUSH1 0x20 DUP4 ADD CALLDATALOAD PUSH2 0x57A9 DUP2 PUSH2 0x53DF JUMP JUMPDEST DUP1 SWAP2 POP POP SWAP3 POP SWAP3 SWAP1 POP JUMP JUMPDEST PUSH4 0x4E487B71 PUSH1 0xE0 SHL PUSH1 0x0 MSTORE PUSH1 0x41 PUSH1 0x4 MSTORE PUSH1 0x24 PUSH1 0x0 REVERT JUMPDEST PUSH1 0x0 PUSH8 0xFFFFFFFFFFFFFFFF DUP1 DUP5 GT ISZERO PUSH2 0x57E5 JUMPI PUSH2 0x57E5 PUSH2 0x57B4 JUMP JUMPDEST PUSH1 0x40 MLOAD PUSH1 0x1F DUP6 ADD PUSH1 0x1F NOT SWAP1 DUP2 AND PUSH1 0x3F ADD AND DUP2 ADD SWAP1 DUP3 DUP3 GT DUP2 DUP4 LT OR ISZERO PUSH2 0x580D JUMPI PUSH2 0x580D PUSH2 0x57B4 JUMP JUMPDEST DUP2 PUSH1 0x40 MSTORE DUP1 SWAP4 POP DUP6 DUP2 MSTORE DUP7 DUP7 DUP7 ADD GT ISZERO PUSH2 0x5826 JUMPI PUSH1 0x0 DUP1 REVERT JUMPDEST DUP6 DUP6 PUSH1 0x20 DUP4 ADD CALLDATACOPY PUSH1 0x0 PUSH1 0x20 DUP8 DUP4 ADD ADD MSTORE POP POP POP SWAP4 SWAP3 POP POP POP JUMP JUMPDEST DUP1 ISZERO ISZERO DUP2 EQ PUSH2 0x10BB JUMPI PUSH1 0x0 DUP1 REVERT JUMPDEST DUP1 CALLDATALOAD PUSH2 0x531B DUP2 PUSH2 0x5840 JUMP JUMPDEST PUSH1 0x0 DUP1 PUSH1 0x0 DUP1 PUSH1 0x0 DUP1 PUSH1 0x0 DUP1 PUSH1 0x0 PUSH2 0x120 DUP11 DUP13 SUB SLT ISZERO PUSH2 0x5878 JUMPI PUSH1 0x0 DUP1 REVERT JUMPDEST PUSH2 0x5881 DUP11 PUSH2 0x530A JUMP JUMPDEST SWAP9 POP PUSH1 0x20 DUP11 ADD CALLDATALOAD SWAP8 POP PUSH1 0x40 DUP11 ADD CALLDATALOAD SWAP7 POP PUSH1 0x60 DUP11 ADD CALLDATALOAD SWAP6 POP PUSH1 0x80 DUP11 ADD CALLDATALOAD PUSH8 0xFFFFFFFFFFFFFFFF DUP2 GT ISZERO PUSH2 0x58B2 JUMPI PUSH1 0x0 DUP1 REVERT JUMPDEST DUP11 ADD PUSH1 0x1F DUP2 ADD DUP13 SGT PUSH2 0x58C3 JUMPI PUSH1 0x0 DUP1 REVERT JUMPDEST PUSH2 0x58D2 DUP13 DUP3 CALLDATALOAD PUSH1 0x20 DUP5 ADD PUSH2 0x57CA JUMP JUMPDEST SWAP6 POP POP PUSH1 0xA0 DUP11 ADD CALLDATALOAD SWAP4 POP PUSH1 0xC0 DUP11 ADD CALLDATALOAD SWAP3 POP PUSH1 0xE0 DUP11 ADD CALLDATALOAD SWAP2 POP PUSH2 0x58F7 PUSH2 0x100 DUP12 ADD PUSH2 0x584E JUMP JUMPDEST SWAP1 POP SWAP3 SWAP6 SWAP9 POP SWAP3 SWAP6 SWAP9 POP SWAP3 SWAP6 SWAP9 JUMP JUMPDEST PUSH1 0x0 DUP1 PUSH1 0x40 DUP4 DUP6 SUB SLT ISZERO PUSH2 0x5919 JUMPI PUSH1 0x0 DUP1 REVERT JUMPDEST DUP3 CALLDATALOAD PUSH2 0x5924 DUP2 PUSH2 0x5385 JUMP JUMPDEST SWAP2 POP PUSH1 0x20 DUP4 ADD CALLDATALOAD PUSH8 0xFFFFFFFFFFFFFFFF DUP2 GT ISZERO PUSH2 0x5940 JUMPI PUSH1 0x0 DUP1 REVERT JUMPDEST DUP4 ADD PUSH1 0x1F DUP2 ADD DUP6 SGT PUSH2 0x5951 JUMPI PUSH1 0x0 DUP1 REVERT JUMPDEST PUSH2 0x5960 DUP6 DUP3 CALLDATALOAD PUSH1 0x20 DUP5 ADD PUSH2 0x57CA JUMP JUMPDEST SWAP2 POP POP SWAP3 POP SWAP3 SWAP1 POP JUMP JUMPDEST PUSH1 0x0 DUP1 PUSH1 0x40 DUP4 DUP6 SUB SLT ISZERO PUSH2 0x597D JUMPI PUSH1 0x0 DUP1 REVERT JUMPDEST DUP3 CALLDATALOAD PUSH2 0x53B8 DUP2 PUSH2 0x53DF JUMP JUMPDEST PUSH1 0x20 DUP2 MSTORE PUSH2 0x599C PUSH1 0x20 DUP3 ADD DUP4 MLOAD PUSH1 0xFF AND SWAP1 MSTORE JUMP JUMPDEST PUSH1 0x20 DUP3 ADD MLOAD PUSH1 0x40 DUP3 ADD MSTORE PUSH1 0x40 DUP3 ADD MLOAD PUSH1 0x60 DUP3 ADD MSTORE PUSH1 0x60 DUP3 ADD MLOAD PUSH1 0x80 DUP3 ADD MSTORE PUSH1 0x0 PUSH1 0x80 DUP4 ADD MLOAD PUSH2 0x140 DUP1 PUSH1 0xA0 DUP6 ADD MSTORE PUSH2 0x59D8 PUSH2 0x160 DUP6 ADD DUP4 PUSH2 0x5432 JUMP JUMPDEST SWAP2 POP PUSH1 0xA0 DUP6 ADD MLOAD PUSH1 0xC0 DUP6 ADD MSTORE PUSH1 0xC0 DUP6 ADD MLOAD PUSH1 0xE0 DUP6 ADD MSTORE PUSH1 0xE0 DUP6 ADD MLOAD PUSH2 0x100 DUP2 DUP2 DUP8 ADD MSTORE DUP1 DUP8 ADD MLOAD SWAP2 POP POP PUSH2 0x120 PUSH2 0x5A12 DUP2 DUP8 ADD DUP4 ISZERO ISZERO SWAP1 MSTORE JUMP JUMPDEST DUP7 ADD MLOAD DUP6 DUP5 SUB PUSH1 0x1F NOT ADD DUP4 DUP8 ADD MSTORE SWAP1 POP PUSH2 0x5A2C DUP4 DUP3 PUSH2 0x545E JUMP JUMPDEST SWAP7 SWAP6 POP POP POP POP POP POP JUMP JUMPDEST PUSH1 0x0 PUSH1 0x20 DUP3 DUP5 SUB SLT ISZERO PUSH2 0x5A48 JUMPI PUSH1 0x0 DUP1 REVERT JUMPDEST DUP2 CALLDATALOAD PUSH2 0xFFFF DUP2 AND DUP2 EQ PUSH2 0x2DA6 JUMPI PUSH1 0x0 DUP1 REVERT JUMPDEST PUSH1 0x0 DUP1 PUSH1 0x20 DUP4 DUP6 SUB SLT ISZERO PUSH2 0x5A6D JUMPI PUSH1 0x0 DUP1 REVERT JUMPDEST DUP3 CALLDATALOAD PUSH8 0xFFFFFFFFFFFFFFFF DUP1 DUP3 GT ISZERO PUSH2 0x5A85 JUMPI PUSH1 0x0 DUP1 REVERT JUMPDEST DUP2 DUP6 ADD SWAP2 POP DUP6 PUSH1 0x1F DUP4 ADD SLT PUSH2 0x5A99 JUMPI PUSH1 0x0 DUP1 REVERT JUMPDEST DUP2 CALLDATALOAD DUP2 DUP2 GT ISZERO PUSH2 0x5AA8 JUMPI PUSH1 0x0 DUP1 REVERT JUMPDEST DUP7 PUSH1 0x20 DUP3 PUSH1 0x5 SHL DUP6 ADD ADD GT ISZERO PUSH2 0x5ABD JUMPI PUSH1 0x0 DUP1 REVERT JUMPDEST PUSH1 0x20 SWAP3 SWAP1 SWAP3 ADD SWAP7 SWAP2 SWAP6 POP SWAP1 SWAP4 POP POP POP POP JUMP JUMPDEST PUSH1 0x20 DUP2 MSTORE DUP2 MLOAD ISZERO ISZERO PUSH1 0x20 DUP3 ADD MSTORE PUSH1 0x0 PUSH1 0x20 DUP4 ADD MLOAD PUSH1 0x60 PUSH1 0x40 DUP5 ADD MSTORE PUSH2 0x5AF7 PUSH1 0x80 DUP5 ADD DUP3 PUSH2 0x545E JUMP JUMPDEST SWAP1 POP PUSH1 0x40 DUP5 ADD MLOAD PUSH1 0x1F NOT DUP5 DUP4 SUB ADD PUSH1 0x60 DUP6 ADD MSTORE PUSH2 0x50FC DUP3 DUP3 PUSH2 0x5432 JUMP JUMPDEST PUSH1 0x1 DUP2 DUP2 SHR SWAP1 DUP3 AND DUP1 PUSH2 0x5B28 JUMPI PUSH1 0x7F DUP3 AND SWAP2 POP JUMPDEST PUSH1 0x20 DUP3 LT DUP2 SUB PUSH2 0x5B48 JUMPI PUSH4 0x4E487B71 PUSH1 0xE0 SHL PUSH1 0x0 MSTORE PUSH1 0x22 PUSH1 0x4 MSTORE PUSH1 0x24 PUSH1 0x0 REVERT JUMPDEST POP SWAP2 SWAP1 POP JUMP JUMPDEST PUSH1 0x20 DUP1 DUP3 MSTORE PUSH1 0x2C SWAP1 DUP3 ADD MSTORE PUSH32 0x46756E6374696F6E206D7573742062652063616C6C6564207468726F75676820 PUSH1 0x40 DUP3 ADD MSTORE PUSH12 0x19195B1959D85D1958D85B1B PUSH1 0xA2 SHL PUSH1 0x60 DUP3 ADD MSTORE PUSH1 0x80 ADD SWAP1 JUMP JUMPDEST PUSH1 0x20 DUP1 DUP3 MSTORE PUSH1 0x2C SWAP1 DUP3 ADD MSTORE PUSH32 0x46756E6374696F6E206D7573742062652063616C6C6564207468726F75676820 PUSH1 0x40 DUP3 ADD MSTORE PUSH12 0x6163746976652070726F7879 PUSH1 0xA0 SHL PUSH1 0x60 DUP3 ADD MSTORE PUSH1 0x80 ADD SWAP1 JUMP JUMPDEST PUSH1 0x0 PUSH1 0x20 DUP3 DUP5 SUB SLT ISZERO PUSH2 0x5BF8 JUMPI PUSH1 0x0 DUP1 REVERT JUMPDEST DUP2 MLOAD PUSH2 0x2DA6 DUP2 PUSH2 0x5840 JUMP JUMPDEST PUSH1 0x20 DUP1 DUP3 MSTORE PUSH1 0x12 SWAP1 DUP3 ADD MSTORE PUSH18 0x2CB7BA9030B932903737BA1030B236B4B717 PUSH1 0x71 SHL PUSH1 0x40 DUP3 ADD MSTORE PUSH1 0x60 ADD SWAP1 JUMP JUMPDEST PUSH1 0x1F DUP3 GT ISZERO PUSH2 0xA65 JUMPI PUSH1 0x0 DUP2 DUP2 MSTORE PUSH1 0x20 DUP2 KECCAK256 PUSH1 0x1F DUP6 ADD PUSH1 0x5 SHR DUP2 ADD PUSH1 0x20 DUP7 LT ISZERO PUSH2 0x5C56 JUMPI POP DUP1 JUMPDEST PUSH1 0x1F DUP6 ADD PUSH1 0x5 SHR DUP3 ADD SWAP2 POP JUMPDEST DUP2 DUP2 LT ISZERO PUSH2 0x5C75 JUMPI DUP3 DUP2 SSTORE PUSH1 0x1 ADD PUSH2 0x5C62 JUMP JUMPDEST POP POP POP POP POP POP JUMP JUMPDEST DUP2 MLOAD PUSH8 0xFFFFFFFFFFFFFFFF DUP2 GT ISZERO PUSH2 0x5C97 JUMPI PUSH2 0x5C97 PUSH2 0x57B4 JUMP JUMPDEST PUSH2 0x5CAB DUP2 PUSH2 0x5CA5 DUP5 SLOAD PUSH2 0x5B14 JUMP JUMPDEST DUP5 PUSH2 0x5C2F JUMP JUMPDEST PUSH1 0x20 DUP1 PUSH1 0x1F DUP4 GT PUSH1 0x1 DUP2 EQ PUSH2 0x5CE0 JUMPI PUSH1 0x0 DUP5 ISZERO PUSH2 0x5CC8 JUMPI POP DUP6 DUP4 ADD MLOAD JUMPDEST PUSH1 0x0 NOT PUSH1 0x3 DUP7 SWAP1 SHL SHR NOT AND PUSH1 0x1 DUP6 SWAP1 SHL OR DUP6 SSTORE PUSH2 0x5C75 JUMP JUMPDEST PUSH1 0x0 DUP6 DUP2 MSTORE PUSH1 0x20 DUP2 KECCAK256 PUSH1 0x1F NOT DUP7 AND SWAP2 JUMPDEST DUP3 DUP2 LT ISZERO PUSH2 0x5D0F JUMPI DUP9 DUP7 ADD MLOAD DUP3 SSTORE SWAP5 DUP5 ADD SWAP5 PUSH1 0x1 SWAP1 SWAP2 ADD SWAP1 DUP5 ADD PUSH2 0x5CF0 JUMP JUMPDEST POP DUP6 DUP3 LT ISZERO PUSH2 0x5D2D JUMPI DUP8 DUP6 ADD MLOAD PUSH1 0x0 NOT PUSH1 0x3 DUP9 SWAP1 SHL PUSH1 0xF8 AND SHR NOT AND DUP2 SSTORE JUMPDEST POP POP POP POP POP PUSH1 0x1 SWAP1 DUP2 SHL ADD SWAP1 SSTORE POP JUMP JUMPDEST PUSH4 0x4E487B71 PUSH1 0xE0 SHL PUSH1 0x0 MSTORE PUSH1 0x11 PUSH1 0x4 MSTORE PUSH1 0x24 PUSH1 0x0 REVERT JUMPDEST DUP1 DUP3 ADD DUP1 DUP3 GT ISZERO PUSH2 0x5101 JUMPI PUSH2 0x5101 PUSH2 0x5D3D JUMP JUMPDEST DUP1 DUP3 MUL DUP2 ISZERO DUP3 DUP3 DIV DUP5 EQ OR PUSH2 0x5101 JUMPI PUSH2 0x5101 PUSH2 0x5D3D JUMP JUMPDEST DUP2 DUP2 SUB DUP2 DUP2 GT ISZERO PUSH2 0x5101 JUMPI PUSH2 0x5101 PUSH2 0x5D3D JUMP JUMPDEST PUSH1 0x0 PUSH1 0x20 DUP3 DUP5 SUB SLT ISZERO PUSH2 0x5DA2 JUMPI PUSH1 0x0 DUP1 REVERT JUMPDEST DUP2 MLOAD PUSH2 0x2DA6 DUP2 PUSH2 0x5385 JUMP JUMPDEST PUSH1 0x0 DUP3 PUSH2 0x5DCA JUMPI PUSH4 0x4E487B71 PUSH1 0xE0 SHL PUSH1 0x0 MSTORE PUSH1 0x12 PUSH1 0x4 MSTORE PUSH1 0x24 PUSH1 0x0 REVERT JUMPDEST POP DIV SWAP1 JUMP JUMPDEST PUSH1 0x0 PUSH1 0x20 DUP3 DUP5 SUB SLT ISZERO PUSH2 0x5DE1 JUMPI PUSH1 0x0 DUP1 REVERT JUMPDEST DUP2 MLOAD PUSH2 0x2DA6 DUP2 PUSH2 0x53DF JUMP JUMPDEST PUSH4 0xFFFFFFFF DUP2 DUP2 AND DUP4 DUP3 AND ADD SWAP1 DUP1 DUP3 GT ISZERO PUSH2 0x5E09 JUMPI PUSH2 0x5E09 PUSH2 0x5D3D JUMP JUMPDEST POP SWAP3 SWAP2 POP POP JUMP JUMPDEST PUSH1 0x0 PUSH4 0xFFFFFFFF DUP1 DUP4 AND DUP2 DUP2 SUB PUSH2 0x5E29 JUMPI PUSH2 0x5E29 PUSH2 0x5D3D JUMP JUMPDEST PUSH1 0x1 ADD SWAP4 SWAP3 POP POP POP JUMP JUMPDEST PUSH1 0x0 PUSH1 0x20 DUP3 DUP5 SUB SLT ISZERO PUSH2 0x5E45 JUMPI PUSH1 0x0 DUP1 REVERT JUMPDEST POP MLOAD SWAP2 SWAP1 POP JUMP JUMPDEST PUSH1 0xFF DUP2 DUP2 AND DUP4 DUP3 AND ADD SWAP1 DUP2 GT ISZERO PUSH2 0x5101 JUMPI PUSH2 0x5101 PUSH2 0x5D3D JUMP JUMPDEST PUSH4 0x4E487B71 PUSH1 0xE0 SHL PUSH1 0x0 MSTORE PUSH1 0x32 PUSH1 0x4 MSTORE PUSH1 0x24 PUSH1 0x0 REVERT JUMPDEST PUSH1 0x0 PUSH1 0xFF DUP3 AND PUSH1 0xFF DUP2 SUB PUSH2 0x5E91 JUMPI PUSH2 0x5E91 PUSH2 0x5D3D JUMP JUMPDEST PUSH1 0x1 ADD SWAP3 SWAP2 POP POP JUMP JUMPDEST PUSH1 0x20 DUP1 DUP3 MSTORE PUSH1 0x2B SWAP1 DUP3 ADD MSTORE PUSH32 0x496E697469616C697A61626C653A20636F6E7472616374206973206E6F742069 PUSH1 0x40 DUP3 ADD MSTORE PUSH11 0x6E697469616C697A696E67 PUSH1 0xA8 SHL PUSH1 0x60 DUP3 ADD MSTORE PUSH1 0x80 ADD SWAP1 JUMP JUMPDEST PUSH1 0x0 DUP3 MLOAD PUSH2 0x5EF7 DUP2 DUP5 PUSH1 0x20 DUP8 ADD PUSH2 0x540E JUMP JUMPDEST SWAP2 SWAP1 SWAP2 ADD SWAP3 SWAP2 POP POP JUMP JUMPDEST PUSH1 0x20 DUP2 MSTORE PUSH1 0x0 PUSH2 0x2DA6 PUSH1 0x20 DUP4 ADD DUP5 PUSH2 0x5432 JUMP INVALID CALLDATASIZE ADDMOD SWAP5 LOG1 EXTCODESIZE LOG1 LOG3 0x21 MOD PUSH8 0xC828492DB98DCA3E KECCAK256 PUSH23 0xCC3735A920A3CA505D382BBC416464726573733A206C6F PUSH24 0x2D6C6576656C2064656C65676174652063616C6C20666169 PUSH13 0x6564A264697066735822122040 SGT 0x4B PUSH32 0x8961CF24DA58FF90F85CF9FB9AEB1E636B2347E50DBBF12553513F8664736F6C PUSH4 0x43000811 STOP CALLER "},"methodIdentifiers":{"activateId(uint32)":"bcb93f9b","claimBalance(uint32,uint256)":"f31a2d0f","companyTurnoverTimeLimit()":"f41bfeef","companyTurnoverTimeStamp()":"2ed421d2","companyTurnoverWithTimeLimit()":"22f88b52","decimals()":"313ce567","disableUserAdmin(address)":"9f4e8398","disabledUsersList(uint256)":"1319cff9","futureScureWalletContribution()":"cd21364d","getAchieversList(uint8)":"012da720","getIdAccount(uint32)":"21009789","getIdLimits(uint32)":"4e6e93a3","getIdRoyaltyClubLevel(uint32)":"987dd4a7","getMinContributionETH()":"1f9e65e4","getRoyaltyClubPackageInfo(uint8)":"7bdbf996","getUserAccount(address)":"fb47e016","getUserUnlockCount(uint32)":"b47181d3","increaseIdTopIncome(uint32,uint256)":"6ccc10ae","initialize()":"8129fc1c","isActivateROI()":"8af925dc","isPayReferral()":"7084431f","isPayRoyaltyClubBonus()":"fafc9597","isUserDisabledByAdmin(address)":"538ffe0c","levelRates(uint256)":"7879b5ef","maxLevels()":"6f38e410","minContributionUSD()":"8f84de85","owner()":"8da5cb5b","packagesCount()":"18e10bff","payReferralAdmin(uint256,uint32)":"498b3e55","proxiableUUID()":"52d1902d","renounceOwnership()":"715018a6","royaltyClubPackageCount()":"a28a3686","sendETHAdmin(address,uint256)":"0b243dad","setLevelDecimals(uint16)":"a43ae408","setLevelRates(uint8[])":"e1c715ba","setMaxLevelsAdmin(uint8)":"3eff2def","setMinContribution(uint256)":"473b0d46","setRoyaltyClubPackage(uint8,uint256,uint256,uint256,string,uint256,uint256,uint256,bool)":"4a750822","setRoyaltyPackageCount(uint8)":"4b5102b8","topUpId(uint32)":"a152b0f0","totalIds()":"390a5ba5","totalReferralPaid()":"7c599486","totalRoyaltyClubBonusPaid()":"852ff2fd","transferOwnership(address)":"f2fde38b","updateIdWhenClaimROI(uint32,uint256)":"509d6c52","updateTotalIds(uint32)":"5979369a","upgradeTo(address)":"3659cfe6","upgradeToAndCall(address,bytes)":"4f1ef286","users(uint256)":"365b98b2","withdrawETHAdmin()":"35759788","withdrawTokensAdmin(address,uint256)":"a0b6105f"}},"storageLayout":{"storage":[{"astId":527,"contract":"contracts/ReferralV4Upgradeable.sol:ReferralV4Upgradeable","label":"_initialized","offset":0,"slot":"0","type":"t_uint8"},{"astId":530,"contract":"contracts/ReferralV4Upgradeable.sol:ReferralV4Upgradeable","label":"_initializing","offset":1,"slot":"0","type":"t_bool"},{"astId":1228,"contract":"contracts/ReferralV4Upgradeable.sol:ReferralV4Upgradeable","label":"__gap","offset":0,"slot":"1","type":"t_array(t_uint256)50_storage"},{"astId":10,"contract":"contracts/ReferralV4Upgradeable.sol:ReferralV4Upgradeable","label":"_owner","offset":0,"slot":"51","type":"t_address"},{"astId":130,"contract":"contracts/ReferralV4Upgradeable.sol:ReferralV4Upgradeable","label":"__gap","offset":0,"slot":"52","type":"t_array(t_uint256)49_storage"},{"astId":509,"contract":"contracts/ReferralV4Upgradeable.sol:ReferralV4Upgradeable","label":"__gap","offset":0,"slot":"101","type":"t_array(t_uint256)50_storage"},{"astId":824,"contract":"contracts/ReferralV4Upgradeable.sol:ReferralV4Upgradeable","label":"__gap","offset":0,"slot":"151","type":"t_array(t_uint256)50_storage"},{"astId":2324,"contract":"contracts/ReferralV4Upgradeable.sol:ReferralV4Upgradeable","label":"_variablesContract","offset":0,"slot":"201","type":"t_address"},{"astId":2327,"contract":"contracts/ReferralV4Upgradeable.sol:ReferralV4Upgradeable","label":"levelRates","offset":0,"slot":"202","type":"t_array(t_uint16)dyn_storage"},{"astId":2329,"contract":"contracts/ReferralV4Upgradeable.sol:ReferralV4Upgradeable","label":"decimals","offset":0,"slot":"203","type":"t_uint16"},{"astId":2331,"contract":"contracts/ReferralV4Upgradeable.sol:ReferralV4Upgradeable","label":"maxLevels","offset":2,"slot":"203","type":"t_uint8"},{"astId":2333,"contract":"contracts/ReferralV4Upgradeable.sol:ReferralV4Upgradeable","label":"minContributionUSD","offset":0,"slot":"204","type":"t_uint256"},{"astId":2335,"contract":"contracts/ReferralV4Upgradeable.sol:ReferralV4Upgradeable","label":"totalRoyaltyClubBonusPaid","offset":0,"slot":"205","type":"t_uint256"},{"astId":2337,"contract":"contracts/ReferralV4Upgradeable.sol:ReferralV4Upgradeable","label":"totalReferralPaid","offset":0,"slot":"206","type":"t_uint256"},{"astId":2339,"contract":"contracts/ReferralV4Upgradeable.sol:ReferralV4Upgradeable","label":"totalIds","offset":0,"slot":"207","type":"t_uint32"},{"astId":2341,"contract":"contracts/ReferralV4Upgradeable.sol:ReferralV4Upgradeable","label":"isPayRoyaltyClubBonus","offset":4,"slot":"207","type":"t_bool"},{"astId":2343,"contract":"contracts/ReferralV4Upgradeable.sol:ReferralV4Upgradeable","label":"royaltyClubPackageCount","offset":5,"slot":"207","type":"t_uint8"},{"astId":2345,"contract":"contracts/ReferralV4Upgradeable.sol:ReferralV4Upgradeable","label":"_userLevelUnlockMultiplier","offset":6,"slot":"207","type":"t_uint8"},{"astId":2347,"contract":"contracts/ReferralV4Upgradeable.sol:ReferralV4Upgradeable","label":"companyTurnoverWithTimeLimit","offset":0,"slot":"208","type":"t_uint256"},{"astId":2349,"contract":"contracts/ReferralV4Upgradeable.sol:ReferralV4Upgradeable","label":"companyTurnoverTimeStamp","offset":0,"slot":"209","type":"t_uint256"},{"astId":2351,"contract":"contracts/ReferralV4Upgradeable.sol:ReferralV4Upgradeable","label":"companyTurnoverTimeLimit","offset":0,"slot":"210","type":"t_uint256"},{"astId":2354,"contract":"contracts/ReferralV4Upgradeable.sol:ReferralV4Upgradeable","label":"disabledUsersList","offset":0,"slot":"211","type":"t_array(t_address)dyn_storage"},{"astId":2357,"contract":"contracts/ReferralV4Upgradeable.sol:ReferralV4Upgradeable","label":"users","offset":0,"slot":"212","type":"t_array(t_address)dyn_storage"},{"astId":2359,"contract":"contracts/ReferralV4Upgradeable.sol:ReferralV4Upgradeable","label":"isActivateROI","offset":0,"slot":"213","type":"t_bool"},{"astId":2361,"contract":"contracts/ReferralV4Upgradeable.sol:ReferralV4Upgradeable","label":"isPayReferral","offset":1,"slot":"213","type":"t_bool"},{"astId":2363,"contract":"contracts/ReferralV4Upgradeable.sol:ReferralV4Upgradeable","label":"futureScureWalletContribution","offset":2,"slot":"213","type":"t_uint8"},{"astId":2473,"contract":"contracts/ReferralV4Upgradeable.sol:ReferralV4Upgradeable","label":"packagesCount","offset":3,"slot":"213","type":"t_uint8"},{"astId":2478,"contract":"contracts/ReferralV4Upgradeable.sol:ReferralV4Upgradeable","label":"accounts","offset":0,"slot":"214","type":"t_mapping(t_address,t_struct(StructAccount)2371_storage)"},{"astId":2483,"contract":"contracts/ReferralV4Upgradeable.sol:ReferralV4Upgradeable","label":"ids","offset":0,"slot":"215","type":"t_mapping(t_uint32,t_struct(StructId)2449_storage)"},{"astId":2488,"contract":"contracts/ReferralV4Upgradeable.sol:ReferralV4Upgradeable","label":"packages","offset":0,"slot":"216","type":"t_mapping(t_uint8,t_struct(StructPackages)2471_storage)"}],"types":{"t_address":{"encoding":"inplace","label":"address","numberOfBytes":"20"},"t_array(t_address)dyn_storage":{"base":"t_address","encoding":"dynamic_array","label":"address[]","numberOfBytes":"32"},"t_array(t_uint16)dyn_storage":{"base":"t_uint16","encoding":"dynamic_array","label":"uint16[]","numberOfBytes":"32"},"t_array(t_uint256)49_storage":{"base":"t_uint256","encoding":"inplace","label":"uint256[49]","numberOfBytes":"1568"},"t_array(t_uint256)50_storage":{"base":"t_uint256","encoding":"inplace","label":"uint256[50]","numberOfBytes":"1600"},"t_array(t_uint256)dyn_storage":{"base":"t_uint256","encoding":"dynamic_array","label":"uint256[]","numberOfBytes":"32"},"t_array(t_uint32)dyn_storage":{"base":"t_uint32","encoding":"dynamic_array","label":"uint32[]","numberOfBytes":"32"},"t_bool":{"encoding":"inplace","label":"bool","numberOfBytes":"1"},"t_mapping(t_address,t_struct(StructAccount)2371_storage)":{"encoding":"mapping","key":"t_address","label":"mapping(address => struct ReferralV4Upgradeable.StructAccount)","numberOfBytes":"32","value":"t_struct(StructAccount)2371_storage"},"t_mapping(t_uint32,t_struct(StructId)2449_storage)":{"encoding":"mapping","key":"t_uint32","label":"mapping(uint32 => struct ReferralV4Upgradeable.StructId)","numberOfBytes":"32","value":"t_struct(StructId)2449_storage"},"t_mapping(t_uint8,t_struct(StructPackages)2471_storage)":{"encoding":"mapping","key":"t_uint8","label":"mapping(uint8 => struct ReferralV4Upgradeable.StructPackages)","numberOfBytes":"32","value":"t_struct(StructPackages)2471_storage"},"t_string_storage":{"encoding":"bytes","label":"string","numberOfBytes":"32"},"t_struct(StructAccount)2371_storage":{"encoding":"inplace","label":"struct ReferralV4Upgradeable.StructAccount","members":[{"astId":2365,"contract":"contracts/ReferralV4Upgradeable.sol:ReferralV4Upgradeable","label":"isActive","offset":0,"slot":"0","type":"t_bool"},{"astId":2368,"contract":"contracts/ReferralV4Upgradeable.sol:ReferralV4Upgradeable","label":"accountIds","offset":0,"slot":"1","type":"t_array(t_uint32)dyn_storage"},{"astId":2370,"contract":"contracts/ReferralV4Upgradeable.sol:ReferralV4Upgradeable","label":"userName","offset":0,"slot":"2","type":"t_string_storage"}],"numberOfBytes":"96"},"t_struct(StructId)2449_storage":{"encoding":"inplace","label":"struct ReferralV4Upgradeable.StructId","members":[{"astId":2373,"contract":"contracts/ReferralV4Upgradeable.sol:ReferralV4Upgradeable","label":"id","offset":0,"slot":"0","type":"t_uint32"},{"astId":2375,"contract":"contracts/ReferralV4Upgradeable.sol:ReferralV4Upgradeable","label":"oldId","offset":0,"slot":"1","type":"t_string_storage"},{"astId":2377,"contract":"contracts/ReferralV4Upgradeable.sol:ReferralV4Upgradeable","label":"joiningTime","offset":0,"slot":"2","type":"t_uint256"},{"astId":2379,"contract":"contracts/ReferralV4Upgradeable.sol:ReferralV4Upgradeable","label":"isAddedToUserList","offset":0,"slot":"3","type":"t_bool"},{"astId":2381,"contract":"contracts/ReferralV4Upgradeable.sol:ReferralV4Upgradeable","label":"owner","offset":1,"slot":"3","type":"t_address"},{"astId":2383,"contract":"contracts/ReferralV4Upgradeable.sol:ReferralV4Upgradeable","label":"refererId","offset":21,"slot":"3","type":"t_uint32"},{"astId":2385,"contract":"contracts/ReferralV4Upgradeable.sol:ReferralV4Upgradeable","label":"hasUpline","offset":25,"slot":"3","type":"t_bool"},{"astId":2388,"contract":"contracts/ReferralV4Upgradeable.sol:ReferralV4Upgradeable","label":"refereeIds","offset":0,"slot":"4","type":"t_array(t_uint32)dyn_storage"},{"astId":2391,"contract":"contracts/ReferralV4Upgradeable.sol:ReferralV4Upgradeable","label":"teamIds","offset":0,"slot":"5","type":"t_array(t_uint32)dyn_storage"},{"astId":2394,"contract":"contracts/ReferralV4Upgradeable.sol:ReferralV4Upgradeable","label":"teamLevel","offset":0,"slot":"6","type":"t_array(t_uint32)dyn_storage"},{"astId":2397,"contract":"contracts/ReferralV4Upgradeable.sol:ReferralV4Upgradeable","label":"selfBusinessArray","offset":0,"slot":"7","type":"t_array(t_uint256)dyn_storage"},{"astId":2399,"contract":"contracts/ReferralV4Upgradeable.sol:ReferralV4Upgradeable","label":"selfBusiness","offset":0,"slot":"8","type":"t_uint256"},{"astId":2401,"contract":"contracts/ReferralV4Upgradeable.sol:ReferralV4Upgradeable","label":"selfBusinessOld","offset":0,"slot":"9","type":"t_uint256"},{"astId":2403,"contract":"contracts/ReferralV4Upgradeable.sol:ReferralV4Upgradeable","label":"directBusiness","offset":0,"slot":"10","type":"t_uint256"},{"astId":2405,"contract":"contracts/ReferralV4Upgradeable.sol:ReferralV4Upgradeable","label":"directBusinessOld","offset":0,"slot":"11","type":"t_uint256"},{"astId":2407,"contract":"contracts/ReferralV4Upgradeable.sol:ReferralV4Upgradeable","label":"teamBusiness","offset":0,"slot":"12","type":"t_uint256"},{"astId":2409,"contract":"contracts/ReferralV4Upgradeable.sol:ReferralV4Upgradeable","label":"teamBusinessOld","offset":0,"slot":"13","type":"t_uint256"},{"astId":2411,"contract":"contracts/ReferralV4Upgradeable.sol:ReferralV4Upgradeable","label":"royaltyClubBusiness","offset":0,"slot":"14","type":"t_uint256"},{"astId":2413,"contract":"contracts/ReferralV4Upgradeable.sol:ReferralV4Upgradeable","label":"timeStampRoyaltyClub","offset":0,"slot":"15","type":"t_uint256"},{"astId":2415,"contract":"contracts/ReferralV4Upgradeable.sol:ReferralV4Upgradeable","label":"royaltyClubPackageId","offset":0,"slot":"16","type":"t_uint8"},{"astId":2417,"contract":"contracts/ReferralV4Upgradeable.sol:ReferralV4Upgradeable","label":"royaltyClubListIndex","offset":1,"slot":"16","type":"t_uint32"},{"astId":2419,"contract":"contracts/ReferralV4Upgradeable.sol:ReferralV4Upgradeable","label":"royaltyClubRewardPaid","offset":0,"slot":"17","type":"t_uint256"},{"astId":2421,"contract":"contracts/ReferralV4Upgradeable.sol:ReferralV4Upgradeable","label":"topUpIncome","offset":0,"slot":"18","type":"t_uint256"},{"astId":2423,"contract":"contracts/ReferralV4Upgradeable.sol:ReferralV4Upgradeable","label":"topUp","offset":0,"slot":"19","type":"t_uint256"},{"astId":2425,"contract":"contracts/ReferralV4Upgradeable.sol:ReferralV4Upgradeable","label":"maxLimit","offset":0,"slot":"20","type":"t_uint256"},{"astId":2427,"contract":"contracts/ReferralV4Upgradeable.sol:ReferralV4Upgradeable","label":"activationTime","offset":0,"slot":"21","type":"t_uint256"},{"astId":2429,"contract":"contracts/ReferralV4Upgradeable.sol:ReferralV4Upgradeable","label":"deactivationTime","offset":0,"slot":"22","type":"t_uint256"},{"astId":2431,"contract":"contracts/ReferralV4Upgradeable.sol:ReferralV4Upgradeable","label":"referralPaid","offset":0,"slot":"23","type":"t_uint256"},{"astId":2434,"contract":"contracts/ReferralV4Upgradeable.sol:ReferralV4Upgradeable","label":"roiIds","offset":0,"slot":"24","type":"t_array(t_uint32)dyn_storage"},{"astId":2436,"contract":"contracts/ReferralV4Upgradeable.sol:ReferralV4Upgradeable","label":"roiPaid","offset":0,"slot":"25","type":"t_uint256"},{"astId":2438,"contract":"contracts/ReferralV4Upgradeable.sol:ReferralV4Upgradeable","label":"roiClaimedTime","offset":0,"slot":"26","type":"t_uint256"},{"astId":2440,"contract":"contracts/ReferralV4Upgradeable.sol:ReferralV4Upgradeable","label":"walletBalance","offset":0,"slot":"27","type":"t_uint256"},{"astId":2442,"contract":"contracts/ReferralV4Upgradeable.sol:ReferralV4Upgradeable","label":"isActive","offset":0,"slot":"28","type":"t_bool"},{"astId":2444,"contract":"contracts/ReferralV4Upgradeable.sol:ReferralV4Upgradeable","label":"isROIDisabled","offset":1,"slot":"28","type":"t_bool"},{"astId":2446,"contract":"contracts/ReferralV4Upgradeable.sol:ReferralV4Upgradeable","label":"isIdVisibilityDisabled","offset":2,"slot":"28","type":"t_bool"},{"astId":2448,"contract":"contracts/ReferralV4Upgradeable.sol:ReferralV4Upgradeable","label":"canWindraw","offset":3,"slot":"28","type":"t_bool"}],"numberOfBytes":"928"},"t_struct(StructPackages)2471_storage":{"encoding":"inplace","label":"struct ReferralV4Upgradeable.StructPackages","members":[{"astId":2451,"contract":"contracts/ReferralV4Upgradeable.sol:ReferralV4Upgradeable","label":"packageId","offset":0,"slot":"0","type":"t_uint8"},{"astId":2453,"contract":"contracts/ReferralV4Upgradeable.sol:ReferralV4Upgradeable","label":"selfBusiness","offset":0,"slot":"1","type":"t_uint256"},{"astId":2455,"contract":"contracts/ReferralV4Upgradeable.sol:ReferralV4Upgradeable","label":"directBusiness","offset":0,"slot":"2","type":"t_uint256"},{"astId":2457,"contract":"contracts/ReferralV4Upgradeable.sol:ReferralV4Upgradeable","label":"teamBusiness","offset":0,"slot":"3","type":"t_uint256"},{"astId":2459,"contract":"contracts/ReferralV4Upgradeable.sol:ReferralV4Upgradeable","label":"rankName","offset":0,"slot":"4","type":"t_string_storage"},{"astId":2461,"contract":"contracts/ReferralV4Upgradeable.sol:ReferralV4Upgradeable","label":"reward","offset":0,"slot":"5","type":"t_uint256"},{"astId":2463,"contract":"contracts/ReferralV4Upgradeable.sol:ReferralV4Upgradeable","label":"businessLimit","offset":0,"slot":"6","type":"t_uint256"},{"astId":2465,"contract":"contracts/ReferralV4Upgradeable.sol:ReferralV4Upgradeable","label":"timeLimit","offset":0,"slot":"7","type":"t_uint256"},{"astId":2467,"contract":"contracts/ReferralV4Upgradeable.sol:ReferralV4Upgradeable","label":"isPayReccursive","offset":0,"slot":"8","type":"t_bool"},{"astId":2470,"contract":"contracts/ReferralV4Upgradeable.sol:ReferralV4Upgradeable","label":"achieversList","offset":0,"slot":"9","type":"t_array(t_uint32)dyn_storage"}],"numberOfBytes":"320"},"t_uint16":{"encoding":"inplace","label":"uint16","numberOfBytes":"2"},"t_uint256":{"encoding":"inplace","label":"uint256","numberOfBytes":"32"},"t_uint32":{"encoding":"inplace","label":"uint32","numberOfBytes":"4"},"t_uint8":{"encoding":"inplace","label":"uint8","numberOfBytes":"1"}}}}}}