{
  "_format": "hh-sol-artifact-1",
  "contractName": "ReferralV3Upgradeable",
  "sourceName": "contracts/SwapUpgradeable.sol",
  "abi": [
    {
      "anonymous": false,
      "inputs": [
        {
          "indexed": false,
          "internalType": "uint32",
          "name": "id",
          "type": "uint32"
        }
      ],
      "name": "ActivatedId",
      "type": "event"
    },
    {
      "anonymous": false,
      "inputs": [
        {
          "indexed": false,
          "internalType": "address",
          "name": "previousAdmin",
          "type": "address"
        },
        {
          "indexed": false,
          "internalType": "address",
          "name": "newAdmin",
          "type": "address"
        }
      ],
      "name": "AdminChanged",
      "type": "event"
    },
    {
      "anonymous": false,
      "inputs": [
        {
          "indexed": true,
          "internalType": "address",
          "name": "beacon",
          "type": "address"
        }
      ],
      "name": "BeaconUpgraded",
      "type": "event"
    },
    {
      "anonymous": false,
      "inputs": [
        {
          "indexed": false,
          "internalType": "uint32",
          "name": "id",
          "type": "uint32"
        },
        {
          "indexed": false,
          "internalType": "string",
          "name": "reason",
          "type": "string"
        }
      ],
      "name": "DeactivatedId",
      "type": "event"
    },
    {
      "anonymous": false,
      "inputs": [
        {
          "indexed": false,
          "internalType": "uint8",
          "name": "version",
          "type": "uint8"
        }
      ],
      "name": "Initialized",
      "type": "event"
    },
    {
      "anonymous": false,
      "inputs": [
        {
          "indexed": true,
          "internalType": "address",
          "name": "previousOwner",
          "type": "address"
        },
        {
          "indexed": true,
          "internalType": "address",
          "name": "newOwner",
          "type": "address"
        }
      ],
      "name": "OwnershipTransferred",
      "type": "event"
    },
    {
      "anonymous": false,
      "inputs": [
        {
          "indexed": false,
          "internalType": "uint256",
          "name": "amountIn",
          "type": "uint256"
        },
        {
          "indexed": false,
          "internalType": "uint256",
          "name": "amountOut",
          "type": "uint256"
        },
        {
          "indexed": false,
          "internalType": "string",
          "name": "currencyIn",
          "type": "string"
        }
      ],
      "name": "Swap",
      "type": "event"
    },
    {
      "anonymous": false,
      "inputs": [
        {
          "indexed": true,
          "internalType": "address",
          "name": "implementation",
          "type": "address"
        }
      ],
      "name": "Upgraded",
      "type": "event"
    },
    {
      "inputs": [],
      "name": "activateId",
      "outputs": [],
      "stateMutability": "nonpayable",
      "type": "function"
    },
    {
      "inputs": [],
      "name": "getMinContributionETH",
      "outputs": [
        {
          "internalType": "uint256",
          "name": "",
          "type": "uint256"
        }
      ],
      "stateMutability": "view",
      "type": "function"
    },
    {
      "inputs": [
        {
          "internalType": "address",
          "name": "_address",
          "type": "address"
        }
      ],
      "name": "getUserAccount",
      "outputs": [
        {
          "components": [
            {
              "internalType": "bool",
              "name": "isActive",
              "type": "bool"
            },
            {
              "internalType": "uint32[]",
              "name": "accountIds",
              "type": "uint32[]"
            }
          ],
          "internalType": "struct ReferralV3Upgradeable.StructAccount",
          "name": "",
          "type": "tuple"
        }
      ],
      "stateMutability": "view",
      "type": "function"
    },
    {
      "inputs": [],
      "name": "initialize",
      "outputs": [],
      "stateMutability": "nonpayable",
      "type": "function"
    },
    {
      "inputs": [],
      "name": "owner",
      "outputs": [
        {
          "internalType": "address",
          "name": "",
          "type": "address"
        }
      ],
      "stateMutability": "view",
      "type": "function"
    },
    {
      "inputs": [],
      "name": "proxiableUUID",
      "outputs": [
        {
          "internalType": "bytes32",
          "name": "",
          "type": "bytes32"
        }
      ],
      "stateMutability": "view",
      "type": "function"
    },
    {
      "inputs": [],
      "name": "renounceOwnership",
      "outputs": [],
      "stateMutability": "nonpayable",
      "type": "function"
    },
    {
      "inputs": [
        {
          "internalType": "address",
          "name": "_address",
          "type": "address"
        },
        {
          "internalType": "uint256",
          "name": "_value",
          "type": "uint256"
        }
      ],
      "name": "sendETHAdmin",
      "outputs": [],
      "stateMutability": "nonpayable",
      "type": "function"
    },
    {
      "inputs": [
        {
          "internalType": "uint256",
          "name": "_valueInUSD",
          "type": "uint256"
        }
      ],
      "name": "setMinContribution",
      "outputs": [],
      "stateMutability": "nonpayable",
      "type": "function"
    },
    {
      "inputs": [],
      "name": "swap",
      "outputs": [],
      "stateMutability": "nonpayable",
      "type": "function"
    },
    {
      "inputs": [],
      "name": "topUpId",
      "outputs": [],
      "stateMutability": "nonpayable",
      "type": "function"
    },
    {
      "inputs": [
        {
          "internalType": "address",
          "name": "newOwner",
          "type": "address"
        }
      ],
      "name": "transferOwnership",
      "outputs": [],
      "stateMutability": "nonpayable",
      "type": "function"
    },
    {
      "inputs": [
        {
          "internalType": "address",
          "name": "newImplementation",
          "type": "address"
        }
      ],
      "name": "upgradeTo",
      "outputs": [],
      "stateMutability": "nonpayable",
      "type": "function"
    },
    {
      "inputs": [
        {
          "internalType": "address",
          "name": "newImplementation",
          "type": "address"
        },
        {
          "internalType": "bytes",
          "name": "data",
          "type": "bytes"
        }
      ],
      "name": "upgradeToAndCall",
      "outputs": [],
      "stateMutability": "payable",
      "type": "function"
    },
    {
      "inputs": [],
      "name": "withdrawETHAdmin",
      "outputs": [],
      "stateMutability": "nonpayable",
      "type": "function"
    },
    {
      "inputs": [
        {
          "internalType": "address",
          "name": "_tokenAddress",
          "type": "address"
        },
        {
          "internalType": "uint256",
          "name": "_value",
          "type": "uint256"
        }
      ],
      "name": "withdrawTokensAdmin",
      "outputs": [],
      "stateMutability": "nonpayable",
      "type": "function"
    },
    {
      "stateMutability": "payable",
      "type": "receive"
    }
  ],
  "bytecode": "0x60a06040523060805234801561001457600080fd5b506080516112c361004c6000396000818161032d015281816103760152818161041f0152818161045f01526104f201526112c36000f3fe6080604052600436106100f75760003560e01c806352d1902d1161008a5780638da5cb5b116100595780638da5cb5b14610200578063a0b6105f14610228578063f2fde38b14610248578063fb47e0161461026857600080fd5b806352d1902d146101c1578063715018a6146101d65780638119c065146101255780638129fc1c146101eb57600080fd5b806335759788116100c657806335759788146101595780633659cfe61461016e578063473b0d461461018e5780634f1ef286146101ae57600080fd5b80630b243dad14610103578063158732ca146101255780631f9e65e4146101315780632cfdb2731461012557600080fd5b366100fe57005b600080fd5b34801561010f57600080fd5b5061012361011e366004610eb5565b610295565b005b34801561012357600080fd5b34801561013d57600080fd5b506101466102da565b6040519081526020015b60405180910390f35b34801561016557600080fd5b506101236102ec565b34801561017a57600080fd5b50610123610189366004610ee1565b610323565b34801561019a57600080fd5b506101236101a9366004610efe565b610408565b6101236101bc366004610f2d565b610415565b3480156101cd57600080fd5b506101466104e5565b3480156101e257600080fd5b50610123610598565b3480156101f757600080fd5b506101236105aa565b34801561020c57600080fd5b506033546040516001600160a01b039091168152602001610150565b34801561023457600080fd5b50610123610243366004610eb5565b610708565b34801561025457600080fd5b50610123610263366004610ee1565b610781565b34801561027457600080fd5b50610288610283366004610ee1565b6107f7565b6040516101509190610ff1565b61029d6108c2565b6040516001600160a01b0383169082156108fc029083906000818181858888f193505050501580156102d3573d6000803e3d6000fd5b505050565b565b60006102e760ca5461091c565b905090565b6102f46108c2565b60405133904780156108fc02916000818181858888f19350505050158015610320573d6000803e3d6000fd5b50565b6001600160a01b037f00000000000000000000000000000000000000000000000000000000000000001630036103745760405162461bcd60e51b815260040161036b90611051565b60405180910390fd5b7f00000000000000000000000000000000000000000000000000000000000000006001600160a01b03166103bd600080516020611247833981519152546001600160a01b031690565b6001600160a01b0316146103e35760405162461bcd60e51b815260040161036b9061109d565b6103ec81610a1a565b6040805160008082526020820190925261032091839190610a22565b6104106108c2565b60ca55565b6001600160a01b037f000000000000000000000000000000000000000000000000000000000000000016300361045d5760405162461bcd60e51b815260040161036b90611051565b7f00000000000000000000000000000000000000000000000000000000000000006001600160a01b03166104a6600080516020611247833981519152546001600160a01b031690565b6001600160a01b0316146104cc5760405162461bcd60e51b815260040161036b9061109d565b6104d582610a1a565b6104e182826001610a22565b5050565b6000306001600160a01b037f000000000000000000000000000000000000000000000000000000000000000016146105855760405162461bcd60e51b815260206004820152603860248201527f555550535570677261646561626c653a206d757374206e6f742062652063616c60448201527f6c6564207468726f7567682064656c656761746563616c6c0000000000000000606482015260840161036b565b5060008051602061124783398151915290565b6105a06108c2565b6102d86000610b8d565b600054610100900460ff16158080156105ca5750600054600160ff909116105b806105e45750303b1580156105e4575060005460ff166001145b6106475760405162461bcd60e51b815260206004820152602e60248201527f496e697469616c697a61626c653a20636f6e747261637420697320616c72656160448201526d191e481a5b9a5d1a585b1a5e995960921b606482015260840161036b565b6000805460ff19166001179055801561066a576000805461ff0019166101001790555b60c980546001600160a01b03191673286d6392042b4d7180fd6d20f8d35c877681577417905568056bc75e2d6310000060ca5560cb80546201010162ffffff199091161790556106b8610bdf565b6106c0610c0e565b8015610320576000805461ff0019169055604051600181527f7f26b83ff96e1f2b6a682f133852f6798a09c465da95921460cefb38474024989060200160405180910390a150565b6107106108c2565b60405163a9059cbb60e01b8152336004820152602481018290526001600160a01b0383169063a9059cbb906044016020604051808303816000875af115801561075d573d6000803e3d6000fd5b505050506040513d601f19601f820116820180604052508101906102d391906110e9565b6107896108c2565b6001600160a01b0381166107ee5760405162461bcd60e51b815260206004820152602660248201527f4f776e61626c653a206e6577206f776e657220697320746865207a65726f206160448201526564647265737360d01b606482015260840161036b565b61032081610b8d565b6040805180820190915260008152606060208201526001600160a01b038216600090815260d0602090815260409182902082518084018452815460ff1615158152600182018054855181860281018601909652808652919492938581019392908301828280156108b257602002820191906000526020600020906000905b82829054906101000a900463ffffffff1663ffffffff16815260200190600401906020826003010492830192600103820291508084116108755790505b5050505050815250509050919050565b6033546001600160a01b031633146102d85760405162461bcd60e51b815260206004820181905260248201527f4f776e61626c653a2063616c6c6572206973206e6f7420746865206f776e6572604482015260640161036b565b60008060c960009054906101000a90046001600160a01b03166001600160a01b0316632913497b6040518163ffffffff1660e01b8152600401602060405180830381865afa158015610972573d6000803e3d6000fd5b505050506040513d601f19601f82011682018060405250810190610996919061110b565b6001600160a01b031663e1aa60366040518163ffffffff1660e01b8152600401602060405180830381865afa1580156109d3573d6000803e3d6000fd5b505050506040513d601f19601f820116820180604052508101906109f79190611128565b610a0984670de0b6b3a7640000611141565b610a139190611166565b9392505050565b6103206108c2565b7f4910fdfa16fed3260ed0e7147f7cc6da11a60208b5b9406d12a635614ffd91435460ff1615610a55576102d383610c35565b826001600160a01b03166352d1902d6040518163ffffffff1660e01b8152600401602060405180830381865afa925050508015610aaf575060408051601f3d908101601f19168201909252610aac91810190611128565b60015b610b125760405162461bcd60e51b815260206004820152602e60248201527f45524331393637557067726164653a206e657720696d706c656d656e7461746960448201526d6f6e206973206e6f74205555505360901b606482015260840161036b565b6000805160206112478339815191528114610b815760405162461bcd60e51b815260206004820152602960248201527f45524331393637557067726164653a20756e737570706f727465642070726f786044820152681a58589b195555525160ba1b606482015260840161036b565b506102d3838383610cd1565b603380546001600160a01b038381166001600160a01b0319831681179093556040519116919082907f8be0079c531659141344cd1fd0a4f28419497f9722a3daafe3b4186f6b6457e090600090a35050565b600054610100900460ff16610c065760405162461bcd60e51b815260040161036b90611188565b6102d8610cfc565b600054610100900460ff166102d85760405162461bcd60e51b815260040161036b90611188565b6001600160a01b0381163b610ca25760405162461bcd60e51b815260206004820152602d60248201527f455243313936373a206e657720696d706c656d656e746174696f6e206973206e60448201526c1bdd08184818dbdb9d1c9858dd609a1b606482015260840161036b565b60008051602061124783398151915280546001600160a01b0319166001600160a01b0392909216919091179055565b610cda83610d2c565b600082511180610ce75750805b156102d357610cf68383610d6c565b50505050565b600054610100900460ff16610d235760405162461bcd60e51b815260040161036b90611188565b6102d833610b8d565b610d3581610c35565b6040516001600160a01b038216907fbc7cd75a20ee27fd9adebab32041f755214dbc6bffa90cc0225b39da2e5c2d3b90600090a250565b60606001600160a01b0383163b610dd45760405162461bcd60e51b815260206004820152602660248201527f416464726573733a2064656c65676174652063616c6c20746f206e6f6e2d636f6044820152651b9d1c9858dd60d21b606482015260840161036b565b600080846001600160a01b031684604051610def91906111f7565b600060405180830381855af49150503d8060008114610e2a576040519150601f19603f3d011682016040523d82523d6000602084013e610e2f565b606091505b5091509150610e57828260405180606001604052806027815260200161126760279139610e62565b925050505b92915050565b60608315610e71575081610a13565b610a138383815115610e865781518083602001fd5b8060405162461bcd60e51b815260040161036b9190611213565b6001600160a01b038116811461032057600080fd5b60008060408385031215610ec857600080fd5b8235610ed381610ea0565b946020939093013593505050565b600060208284031215610ef357600080fd5b8135610a1381610ea0565b600060208284031215610f1057600080fd5b5035919050565b634e487b7160e01b600052604160045260246000fd5b60008060408385031215610f4057600080fd5b8235610f4b81610ea0565b9150602083013567ffffffffffffffff80821115610f6857600080fd5b818501915085601f830112610f7c57600080fd5b813581811115610f8e57610f8e610f17565b604051601f8201601f19908116603f01168101908382118183101715610fb657610fb6610f17565b81604052828152886020848701011115610fcf57600080fd5b8260208601602083013760006020848301015280955050505050509250929050565b602080825282511515828201528281015160408084015280516060840181905260009291820190839060808601905b8083101561104657835163ffffffff168252928401926001929092019190840190611020565b509695505050505050565b6020808252602c908201527f46756e6374696f6e206d7573742062652063616c6c6564207468726f7567682060408201526b19195b1959d85d1958d85b1b60a21b606082015260800190565b6020808252602c908201527f46756e6374696f6e206d7573742062652063616c6c6564207468726f7567682060408201526b6163746976652070726f787960a01b606082015260800190565b6000602082840312156110fb57600080fd5b81518015158114610a1357600080fd5b60006020828403121561111d57600080fd5b8151610a1381610ea0565b60006020828403121561113a57600080fd5b5051919050565b8082028115828204841417610e5c57634e487b7160e01b600052601160045260246000fd5b60008261118357634e487b7160e01b600052601260045260246000fd5b500490565b6020808252602b908201527f496e697469616c697a61626c653a20636f6e7472616374206973206e6f74206960408201526a6e697469616c697a696e6760a81b606082015260800190565b60005b838110156111ee5781810151838201526020016111d6565b50506000910152565b600082516112098184602087016111d3565b9190910192915050565b60208152600082518060208401526112328160408501602087016111d3565b601f01601f1916919091016040019291505056fe360894a13ba1a3210667c828492db98dca3e2076cc3735a920a3ca505d382bbc416464726573733a206c6f772d6c6576656c2064656c65676174652063616c6c206661696c6564a2646970667358221220c54bf70448fce536f48d0856589d4d3e0d6e48d91a296fc58c3a5ccec17131a064736f6c63430008110033",
  "linkReferences": {},
  "deployedLinkReferences": {}
}