{
  "_format": "hh-sol-artifact-1",
  "contractName": "PriceOracleUpgradeable",
  "sourceName": "contracts/PriceOracleUpgradeable.sol",
  "abi": [
    {
      "anonymous": false,
      "inputs": [
        {
          "indexed": false,
          "internalType": "address",
          "name": "previousAdmin",
          "type": "address"
        },
        {
          "indexed": false,
          "internalType": "address",
          "name": "newAdmin",
          "type": "address"
        }
      ],
      "name": "AdminChanged",
      "type": "event"
    },
    {
      "anonymous": false,
      "inputs": [
        {
          "indexed": true,
          "internalType": "address",
          "name": "beacon",
          "type": "address"
        }
      ],
      "name": "BeaconUpgraded",
      "type": "event"
    },
    {
      "anonymous": false,
      "inputs": [
        {
          "indexed": false,
          "internalType": "uint8",
          "name": "version",
          "type": "uint8"
        }
      ],
      "name": "Initialized",
      "type": "event"
    },
    {
      "anonymous": false,
      "inputs": [
        {
          "indexed": true,
          "internalType": "address",
          "name": "previousOwner",
          "type": "address"
        },
        {
          "indexed": true,
          "internalType": "address",
          "name": "newOwner",
          "type": "address"
        }
      ],
      "name": "OwnershipTransferred",
      "type": "event"
    },
    {
      "anonymous": false,
      "inputs": [
        {
          "indexed": true,
          "internalType": "address",
          "name": "implementation",
          "type": "address"
        }
      ],
      "name": "Upgraded",
      "type": "event"
    },
    {
      "inputs": [],
      "name": "getCurrencyDecimals",
      "outputs": [
        {
          "internalType": "uint8",
          "name": "",
          "type": "uint8"
        }
      ],
      "stateMutability": "view",
      "type": "function"
    },
    {
      "inputs": [],
      "name": "getPriceInUSD",
      "outputs": [
        {
          "internalType": "uint256",
          "name": "",
          "type": "uint256"
        }
      ],
      "stateMutability": "view",
      "type": "function"
    },
    {
      "inputs": [],
      "name": "initialize",
      "outputs": [],
      "stateMutability": "nonpayable",
      "type": "function"
    },
    {
      "inputs": [],
      "name": "owner",
      "outputs": [
        {
          "internalType": "address",
          "name": "",
          "type": "address"
        }
      ],
      "stateMutability": "view",
      "type": "function"
    },
    {
      "inputs": [],
      "name": "proxiableUUID",
      "outputs": [
        {
          "internalType": "bytes32",
          "name": "",
          "type": "bytes32"
        }
      ],
      "stateMutability": "view",
      "type": "function"
    },
    {
      "inputs": [],
      "name": "renounceOwnership",
      "outputs": [],
      "stateMutability": "nonpayable",
      "type": "function"
    },
    {
      "inputs": [
        {
          "internalType": "uint8",
          "name": "_valueInDecimals",
          "type": "uint8"
        }
      ],
      "name": "setCurrencyDecimals",
      "outputs": [],
      "stateMutability": "nonpayable",
      "type": "function"
    },
    {
      "inputs": [
        {
          "internalType": "uint256",
          "name": "_valueInWei",
          "type": "uint256"
        }
      ],
      "name": "setPriceInUSD",
      "outputs": [],
      "stateMutability": "nonpayable",
      "type": "function"
    },
    {
      "inputs": [
        {
          "internalType": "address",
          "name": "newOwner",
          "type": "address"
        }
      ],
      "name": "transferOwnership",
      "outputs": [],
      "stateMutability": "nonpayable",
      "type": "function"
    },
    {
      "inputs": [
        {
          "internalType": "address",
          "name": "newImplementation",
          "type": "address"
        }
      ],
      "name": "upgradeTo",
      "outputs": [],
      "stateMutability": "nonpayable",
      "type": "function"
    },
    {
      "inputs": [
        {
          "internalType": "address",
          "name": "newImplementation",
          "type": "address"
        },
        {
          "internalType": "bytes",
          "name": "data",
          "type": "bytes"
        }
      ],
      "name": "upgradeToAndCall",
      "outputs": [],
      "stateMutability": "payable",
      "type": "function"
    }
  ],
  "bytecode": "0x60a06040523060805234801561001457600080fd5b50608051610e5e61004c600039600081816101f10152818161023a015281816102f70152818161033701526103ca0152610e5e6000f3fe60806040526004361061009c5760003560e01c8063715018a611610064578063715018a6146101405780638129fc1c146101555780638da5cb5b1461016a578063d03a404514610192578063e1aa6036146101b2578063f2fde38b146101c757600080fd5b80633659cfe6146100a15780633b0c0852146100c35780634f1ef286146100e357806352d1902d146100f65780635391c6001461011e575b600080fd5b3480156100ad57600080fd5b506100c16100bc366004610b43565b6101e7565b005b3480156100cf57600080fd5b506100c16100de366004610b5e565b6102cf565b6100c16100f1366004610b97565b6102ed565b34801561010257600080fd5b5061010b6103bd565b6040519081526020015b60405180910390f35b34801561012a57600080fd5b5060ca5460405160ff9091168152602001610115565b34801561014c57600080fd5b506100c1610470565b34801561016157600080fd5b506100c1610484565b34801561017657600080fd5b506033546040516001600160a01b039091168152602001610115565b34801561019e57600080fd5b506100c16101ad366004610c59565b6105b5565b3480156101be57600080fd5b5060c95461010b565b3480156101d357600080fd5b506100c16101e2366004610b43565b6105c2565b6001600160a01b037f00000000000000000000000000000000000000000000000000000000000000001630036102385760405162461bcd60e51b815260040161022f90610c72565b60405180910390fd5b7f00000000000000000000000000000000000000000000000000000000000000006001600160a01b0316610281600080516020610de2833981519152546001600160a01b031690565b6001600160a01b0316146102a75760405162461bcd60e51b815260040161022f90610cbe565b6102b081610638565b604080516000808252602082019092526102cc91839190610640565b50565b6102d76107b0565b60ca805460ff191660ff92909216919091179055565b6001600160a01b037f00000000000000000000000000000000000000000000000000000000000000001630036103355760405162461bcd60e51b815260040161022f90610c72565b7f00000000000000000000000000000000000000000000000000000000000000006001600160a01b031661037e600080516020610de2833981519152546001600160a01b031690565b6001600160a01b0316146103a45760405162461bcd60e51b815260040161022f90610cbe565b6103ad82610638565b6103b982826001610640565b5050565b6000306001600160a01b037f0000000000000000000000000000000000000000000000000000000000000000161461045d5760405162461bcd60e51b815260206004820152603860248201527f555550535570677261646561626c653a206d757374206e6f742062652063616c60448201527f6c6564207468726f7567682064656c656761746563616c6c0000000000000000606482015260840161022f565b50600080516020610de283398151915290565b6104786107b0565b610482600061080a565b565b600054610100900460ff16158080156104a45750600054600160ff909116105b806104be5750303b1580156104be575060005460ff166001145b6105215760405162461bcd60e51b815260206004820152602e60248201527f496e697469616c697a61626c653a20636f6e747261637420697320616c72656160448201526d191e481a5b9a5d1a585b1a5e995960921b606482015260840161022f565b6000805460ff191660011790558015610544576000805461ff0019166101001790555b6768155a43676e000060c95560ca805460ff1916601217905561056561085c565b61056d61088b565b80156102cc576000805461ff0019169055604051600181527f7f26b83ff96e1f2b6a682f133852f6798a09c465da95921460cefb38474024989060200160405180910390a150565b6105bd6107b0565b60c955565b6105ca6107b0565b6001600160a01b03811661062f5760405162461bcd60e51b815260206004820152602660248201527f4f776e61626c653a206e6577206f776e657220697320746865207a65726f206160448201526564647265737360d01b606482015260840161022f565b6102cc8161080a565b6102cc6107b0565b7f4910fdfa16fed3260ed0e7147f7cc6da11a60208b5b9406d12a635614ffd91435460ff161561067857610673836108b2565b505050565b826001600160a01b03166352d1902d6040518163ffffffff1660e01b8152600401602060405180830381865afa9250505080156106d2575060408051601f3d908101601f191682019092526106cf91810190610d0a565b60015b6107355760405162461bcd60e51b815260206004820152602e60248201527f45524331393637557067726164653a206e657720696d706c656d656e7461746960448201526d6f6e206973206e6f74205555505360901b606482015260840161022f565b600080516020610de283398151915281146107a45760405162461bcd60e51b815260206004820152602960248201527f45524331393637557067726164653a20756e737570706f727465642070726f786044820152681a58589b195555525160ba1b606482015260840161022f565b5061067383838361094e565b6033546001600160a01b031633146104825760405162461bcd60e51b815260206004820181905260248201527f4f776e61626c653a2063616c6c6572206973206e6f7420746865206f776e6572604482015260640161022f565b603380546001600160a01b038381166001600160a01b0319831681179093556040519116919082907f8be0079c531659141344cd1fd0a4f28419497f9722a3daafe3b4186f6b6457e090600090a35050565b600054610100900460ff166108835760405162461bcd60e51b815260040161022f90610d23565b610482610979565b600054610100900460ff166104825760405162461bcd60e51b815260040161022f90610d23565b6001600160a01b0381163b61091f5760405162461bcd60e51b815260206004820152602d60248201527f455243313936373a206e657720696d706c656d656e746174696f6e206973206e60448201526c1bdd08184818dbdb9d1c9858dd609a1b606482015260840161022f565b600080516020610de283398151915280546001600160a01b0319166001600160a01b0392909216919091179055565b610957836109a9565b6000825111806109645750805b156106735761097383836109e9565b50505050565b600054610100900460ff166109a05760405162461bcd60e51b815260040161022f90610d23565b6104823361080a565b6109b2816108b2565b6040516001600160a01b038216907fbc7cd75a20ee27fd9adebab32041f755214dbc6bffa90cc0225b39da2e5c2d3b90600090a250565b60606001600160a01b0383163b610a515760405162461bcd60e51b815260206004820152602660248201527f416464726573733a2064656c65676174652063616c6c20746f206e6f6e2d636f6044820152651b9d1c9858dd60d21b606482015260840161022f565b600080846001600160a01b031684604051610a6c9190610d92565b600060405180830381855af49150503d8060008114610aa7576040519150601f19603f3d011682016040523d82523d6000602084013e610aac565b606091505b5091509150610ad48282604051806060016040528060278152602001610e0260279139610add565b95945050505050565b60608315610aec575081610af6565b610af68383610afd565b9392505050565b815115610b0d5781518083602001fd5b8060405162461bcd60e51b815260040161022f9190610dae565b80356001600160a01b0381168114610b3e57600080fd5b919050565b600060208284031215610b5557600080fd5b610af682610b27565b600060208284031215610b7057600080fd5b813560ff81168114610af657600080fd5b634e487b7160e01b600052604160045260246000fd5b60008060408385031215610baa57600080fd5b610bb383610b27565b9150602083013567ffffffffffffffff80821115610bd057600080fd5b818501915085601f830112610be457600080fd5b813581811115610bf657610bf6610b81565b604051601f8201601f19908116603f01168101908382118183101715610c1e57610c1e610b81565b81604052828152886020848701011115610c3757600080fd5b8260208601602083013760006020848301015280955050505050509250929050565b600060208284031215610c6b57600080fd5b5035919050565b6020808252602c908201527f46756e6374696f6e206d7573742062652063616c6c6564207468726f7567682060408201526b19195b1959d85d1958d85b1b60a21b606082015260800190565b6020808252602c908201527f46756e6374696f6e206d7573742062652063616c6c6564207468726f7567682060408201526b6163746976652070726f787960a01b606082015260800190565b600060208284031215610d1c57600080fd5b5051919050565b6020808252602b908201527f496e697469616c697a61626c653a20636f6e7472616374206973206e6f74206960408201526a6e697469616c697a696e6760a81b606082015260800190565b60005b83811015610d89578181015183820152602001610d71565b50506000910152565b60008251610da4818460208701610d6e565b9190910192915050565b6020815260008251806020840152610dcd816040850160208701610d6e565b601f01601f1916919091016040019291505056fe360894a13ba1a3210667c828492db98dca3e2076cc3735a920a3ca505d382bbc416464726573733a206c6f772d6c6576656c2064656c65676174652063616c6c206661696c6564a26469706673582212205907ffefd0095a5fe85a2b429e626d2531b71d42fbfeb8dd9fbea24432bd9d2e64736f6c63430008120033",
  "linkReferences": {},
  "deployedLinkReferences": {}
}