{
  "_format": "hh-sol-artifact-1",
  "contractName": "PriceOracleUpgradeable",
  "sourceName": "contracts/PriceOracleUpgradeable.sol",
  "abi": [
    {
      "anonymous": false,
      "inputs": [
        {
          "indexed": false,
          "internalType": "address",
          "name": "previousAdmin",
          "type": "address"
        },
        {
          "indexed": false,
          "internalType": "address",
          "name": "newAdmin",
          "type": "address"
        }
      ],
      "name": "AdminChanged",
      "type": "event"
    },
    {
      "anonymous": false,
      "inputs": [
        {
          "indexed": true,
          "internalType": "address",
          "name": "beacon",
          "type": "address"
        }
      ],
      "name": "BeaconUpgraded",
      "type": "event"
    },
    {
      "anonymous": false,
      "inputs": [
        {
          "indexed": false,
          "internalType": "uint8",
          "name": "version",
          "type": "uint8"
        }
      ],
      "name": "Initialized",
      "type": "event"
    },
    {
      "anonymous": false,
      "inputs": [
        {
          "indexed": true,
          "internalType": "address",
          "name": "previousOwner",
          "type": "address"
        },
        {
          "indexed": true,
          "internalType": "address",
          "name": "newOwner",
          "type": "address"
        }
      ],
      "name": "OwnershipTransferred",
      "type": "event"
    },
    {
      "anonymous": false,
      "inputs": [
        {
          "indexed": true,
          "internalType": "address",
          "name": "implementation",
          "type": "address"
        }
      ],
      "name": "Upgraded",
      "type": "event"
    },
    {
      "inputs": [],
      "name": "getCurrencyDecimals",
      "outputs": [
        {
          "internalType": "uint8",
          "name": "",
          "type": "uint8"
        }
      ],
      "stateMutability": "view",
      "type": "function"
    },
    {
      "inputs": [],
      "name": "getPriceInUSD",
      "outputs": [
        {
          "internalType": "uint256",
          "name": "",
          "type": "uint256"
        }
      ],
      "stateMutability": "view",
      "type": "function"
    },
    {
      "inputs": [],
      "name": "initialize",
      "outputs": [],
      "stateMutability": "nonpayable",
      "type": "function"
    },
    {
      "inputs": [],
      "name": "owner",
      "outputs": [
        {
          "internalType": "address",
          "name": "",
          "type": "address"
        }
      ],
      "stateMutability": "view",
      "type": "function"
    },
    {
      "inputs": [],
      "name": "proxiableUUID",
      "outputs": [
        {
          "internalType": "bytes32",
          "name": "",
          "type": "bytes32"
        }
      ],
      "stateMutability": "view",
      "type": "function"
    },
    {
      "inputs": [],
      "name": "renounceOwnership",
      "outputs": [],
      "stateMutability": "nonpayable",
      "type": "function"
    },
    {
      "inputs": [
        {
          "internalType": "uint8",
          "name": "_valueInDecimals",
          "type": "uint8"
        }
      ],
      "name": "setCurrencyDecimals",
      "outputs": [],
      "stateMutability": "nonpayable",
      "type": "function"
    },
    {
      "inputs": [
        {
          "internalType": "uint256",
          "name": "_valueInWei",
          "type": "uint256"
        }
      ],
      "name": "setPriceInUSD",
      "outputs": [],
      "stateMutability": "nonpayable",
      "type": "function"
    },
    {
      "inputs": [
        {
          "internalType": "address",
          "name": "newOwner",
          "type": "address"
        }
      ],
      "name": "transferOwnership",
      "outputs": [],
      "stateMutability": "nonpayable",
      "type": "function"
    },
    {
      "inputs": [
        {
          "internalType": "address",
          "name": "newImplementation",
          "type": "address"
        }
      ],
      "name": "upgradeTo",
      "outputs": [],
      "stateMutability": "nonpayable",
      "type": "function"
    },
    {
      "inputs": [
        {
          "internalType": "address",
          "name": "newImplementation",
          "type": "address"
        },
        {
          "internalType": "bytes",
          "name": "data",
          "type": "bytes"
        }
      ],
      "name": "upgradeToAndCall",
      "outputs": [],
      "stateMutability": "payable",
      "type": "function"
    }
  ],
  "bytecode": "0x60a06040523060805234801561001457600080fd5b50608051610e4a61004c600039600081816101e10152818161022a015281816102d001528181610310015261038c0152610e4a6000f3fe60806040526004361061008c5760003560e01c80633659cfe6146100915780633b0c0852146100b35780634f1ef286146100d357806352d1902d146100e65780635391c6001461010e578063715018a6146101305780638129fc1c146101455780638da5cb5b1461015a578063d03a404514610182578063e1aa6036146101a2578063f2fde38b146101b7575b600080fd5b34801561009d57600080fd5b506100b16100ac366004610b2f565b6101d7565b005b3480156100bf57600080fd5b506100b16100ce366004610b4a565b6102a8565b6100b16100e1366004610b83565b6102c6565b3480156100f257600080fd5b506100fb61037f565b6040519081526020015b60405180910390f35b34801561011a57600080fd5b5060ca5460405160ff9091168152602001610105565b34801561013c57600080fd5b506100b161042d565b34801561015157600080fd5b506100b1610441565b34801561016657600080fd5b506033546040516001600160a01b039091168152602001610105565b34801561018e57600080fd5b506100b161019d366004610c45565b61057a565b3480156101ae57600080fd5b5060c9546100fb565b3480156101c357600080fd5b506100b16101d2366004610b2f565b610587565b6001600160a01b037f00000000000000000000000000000000000000000000000000000000000000001630036102285760405162461bcd60e51b815260040161021f90610c5e565b60405180910390fd5b7f00000000000000000000000000000000000000000000000000000000000000006001600160a01b031661025a6105fd565b6001600160a01b0316146102805760405162461bcd60e51b815260040161021f90610caa565b61028981610619565b604080516000808252602082019092526102a591839190610621565b50565b6102b0610791565b60ca805460ff191660ff92909216919091179055565b6001600160a01b037f000000000000000000000000000000000000000000000000000000000000000016300361030e5760405162461bcd60e51b815260040161021f90610c5e565b7f00000000000000000000000000000000000000000000000000000000000000006001600160a01b03166103406105fd565b6001600160a01b0316146103665760405162461bcd60e51b815260040161021f90610caa565b61036f82610619565b61037b82826001610621565b5050565b6000306001600160a01b037f0000000000000000000000000000000000000000000000000000000000000000161461041a5760405162461bcd60e51b815260206004820152603860248201527f555550535570677261646561626c653a206d757374206e6f742062652063616c6044820152771b1959081d1a1c9bdd59da0819195b1959d85d1958d85b1b60421b606482015260840161021f565b50600080516020610dce83398151915290565b610435610791565b61043f60006107eb565b565b600054610100900460ff16158080156104615750600054600160ff909116105b8061048257506104703061083d565b158015610482575060005460ff166001145b6104e55760405162461bcd60e51b815260206004820152602e60248201527f496e697469616c697a61626c653a20636f6e747261637420697320616c72656160448201526d191e481a5b9a5d1a585b1a5e995960921b606482015260840161021f565b6000805460ff191660011790558015610508576000805461ff0019166101001790555b68022b1c8c1227a0000060c95560ca805460ff1916601217905561052a61084c565b61053261087b565b80156102a5576000805461ff0019169055604051600181527f7f26b83ff96e1f2b6a682f133852f6798a09c465da95921460cefb38474024989060200160405180910390a150565b610582610791565b60c955565b61058f610791565b6001600160a01b0381166105f45760405162461bcd60e51b815260206004820152602660248201527f4f776e61626c653a206e6577206f776e657220697320746865207a65726f206160448201526564647265737360d01b606482015260840161021f565b6102a5816107eb565b600080516020610dce833981519152546001600160a01b031690565b6102a5610791565b7f4910fdfa16fed3260ed0e7147f7cc6da11a60208b5b9406d12a635614ffd91435460ff161561065957610654836108a2565b505050565b826001600160a01b03166352d1902d6040518163ffffffff1660e01b8152600401602060405180830381865afa9250505080156106b3575060408051601f3d908101601f191682019092526106b091810190610cf6565b60015b6107165760405162461bcd60e51b815260206004820152602e60248201527f45524331393637557067726164653a206e657720696d706c656d656e7461746960448201526d6f6e206973206e6f74205555505360901b606482015260840161021f565b600080516020610dce83398151915281146107855760405162461bcd60e51b815260206004820152602960248201527f45524331393637557067726164653a20756e737570706f727465642070726f786044820152681a58589b195555525160ba1b606482015260840161021f565b5061065483838361093c565b6033546001600160a01b0316331461043f5760405162461bcd60e51b815260206004820181905260248201527f4f776e61626c653a2063616c6c6572206973206e6f7420746865206f776e6572604482015260640161021f565b603380546001600160a01b038381166001600160a01b0319831681179093556040519116919082907f8be0079c531659141344cd1fd0a4f28419497f9722a3daafe3b4186f6b6457e090600090a35050565b6001600160a01b03163b151590565b600054610100900460ff166108735760405162461bcd60e51b815260040161021f90610d0f565b61043f610967565b600054610100900460ff1661043f5760405162461bcd60e51b815260040161021f90610d0f565b6108ab8161083d565b61090d5760405162461bcd60e51b815260206004820152602d60248201527f455243313936373a206e657720696d706c656d656e746174696f6e206973206e60448201526c1bdd08184818dbdb9d1c9858dd609a1b606482015260840161021f565b600080516020610dce83398151915280546001600160a01b0319166001600160a01b0392909216919091179055565b61094583610997565b6000825111806109525750805b156106545761096183836109d7565b50505050565b600054610100900460ff1661098e5760405162461bcd60e51b815260040161021f90610d0f565b61043f336107eb565b6109a0816108a2565b6040516001600160a01b038216907fbc7cd75a20ee27fd9adebab32041f755214dbc6bffa90cc0225b39da2e5c2d3b90600090a250565b60606109e28361083d565b610a3d5760405162461bcd60e51b815260206004820152602660248201527f416464726573733a2064656c65676174652063616c6c20746f206e6f6e2d636f6044820152651b9d1c9858dd60d21b606482015260840161021f565b600080846001600160a01b031684604051610a589190610d7e565b600060405180830381855af49150503d8060008114610a93576040519150601f19603f3d011682016040523d82523d6000602084013e610a98565b606091505b5091509150610ac08282604051806060016040528060278152602001610dee60279139610ac9565b95945050505050565b60608315610ad8575081610ae2565b610ae28383610ae9565b9392505050565b815115610af95781518083602001fd5b8060405162461bcd60e51b815260040161021f9190610d9a565b80356001600160a01b0381168114610b2a57600080fd5b919050565b600060208284031215610b4157600080fd5b610ae282610b13565b600060208284031215610b5c57600080fd5b813560ff81168114610ae257600080fd5b634e487b7160e01b600052604160045260246000fd5b60008060408385031215610b9657600080fd5b610b9f83610b13565b9150602083013567ffffffffffffffff80821115610bbc57600080fd5b818501915085601f830112610bd057600080fd5b813581811115610be257610be2610b6d565b604051601f8201601f19908116603f01168101908382118183101715610c0a57610c0a610b6d565b81604052828152886020848701011115610c2357600080fd5b8260208601602083013760006020848301015280955050505050509250929050565b600060208284031215610c5757600080fd5b5035919050565b6020808252602c908201527f46756e6374696f6e206d7573742062652063616c6c6564207468726f7567682060408201526b19195b1959d85d1958d85b1b60a21b606082015260800190565b6020808252602c908201527f46756e6374696f6e206d7573742062652063616c6c6564207468726f7567682060408201526b6163746976652070726f787960a01b606082015260800190565b600060208284031215610d0857600080fd5b5051919050565b6020808252602b908201527f496e697469616c697a61626c653a20636f6e7472616374206973206e6f74206960408201526a6e697469616c697a696e6760a81b606082015260800190565b60005b83811015610d75578181015183820152602001610d5d565b50506000910152565b60008251610d90818460208701610d5a565b9190910192915050565b6020815260008251806020840152610db9816040850160208701610d5a565b601f01601f1916919091016040019291505056fe360894a13ba1a3210667c828492db98dca3e2076cc3735a920a3ca505d382bbc416464726573733a206c6f772d6c6576656c2064656c65676174652063616c6c206661696c6564a2646970667358221220bd6827771db31624708c571a3f40b0a987585819320df24e952fca5a2a2ea4d564736f6c63430008110033",
  "linkReferences": {},
  "deployedLinkReferences": {}
}