{
  "_format": "hh-sol-artifact-1",
  "contractName": "VariablesV2Upgradeable",
  "sourceName": "contracts/VariablesV2Upgradeable.sol",
  "abi": [
    {
      "anonymous": false,
      "inputs": [
        {
          "indexed": false,
          "internalType": "address",
          "name": "previousAdmin",
          "type": "address"
        },
        {
          "indexed": false,
          "internalType": "address",
          "name": "newAdmin",
          "type": "address"
        }
      ],
      "name": "AdminChanged",
      "type": "event"
    },
    {
      "anonymous": false,
      "inputs": [
        {
          "indexed": true,
          "internalType": "address",
          "name": "beacon",
          "type": "address"
        }
      ],
      "name": "BeaconUpgraded",
      "type": "event"
    },
    {
      "anonymous": false,
      "inputs": [
        {
          "indexed": false,
          "internalType": "uint8",
          "name": "version",
          "type": "uint8"
        }
      ],
      "name": "Initialized",
      "type": "event"
    },
    {
      "anonymous": false,
      "inputs": [
        {
          "indexed": true,
          "internalType": "address",
          "name": "previousOwner",
          "type": "address"
        },
        {
          "indexed": true,
          "internalType": "address",
          "name": "newOwner",
          "type": "address"
        }
      ],
      "name": "OwnershipTransferred",
      "type": "event"
    },
    {
      "anonymous": false,
      "inputs": [
        {
          "indexed": true,
          "internalType": "address",
          "name": "implementation",
          "type": "address"
        }
      ],
      "name": "Upgraded",
      "type": "event"
    },
    {
      "inputs": [],
      "name": "adminFees",
      "outputs": [
        {
          "internalType": "uint256",
          "name": "",
          "type": "uint256"
        }
      ],
      "stateMutability": "view",
      "type": "function"
    },
    {
      "inputs": [],
      "name": "getAdminsList",
      "outputs": [
        {
          "internalType": "address[]",
          "name": "",
          "type": "address[]"
        }
      ],
      "stateMutability": "view",
      "type": "function"
    },
    {
      "inputs": [],
      "name": "getFutureSecureWalletContract",
      "outputs": [
        {
          "internalType": "address",
          "name": "",
          "type": "address"
        }
      ],
      "stateMutability": "view",
      "type": "function"
    },
    {
      "inputs": [],
      "name": "getMyUSDContract",
      "outputs": [
        {
          "internalType": "address",
          "name": "",
          "type": "address"
        }
      ],
      "stateMutability": "view",
      "type": "function"
    },
    {
      "inputs": [],
      "name": "getPresaleContract",
      "outputs": [
        {
          "internalType": "address",
          "name": "",
          "type": "address"
        }
      ],
      "stateMutability": "view",
      "type": "function"
    },
    {
      "inputs": [],
      "name": "getPriceOracleContract",
      "outputs": [
        {
          "internalType": "address",
          "name": "",
          "type": "address"
        }
      ],
      "stateMutability": "view",
      "type": "function"
    },
    {
      "inputs": [],
      "name": "getROIContract",
      "outputs": [
        {
          "internalType": "address",
          "name": "",
          "type": "address"
        }
      ],
      "stateMutability": "view",
      "type": "function"
    },
    {
      "inputs": [],
      "name": "getReferralContract",
      "outputs": [
        {
          "internalType": "address",
          "name": "",
          "type": "address"
        }
      ],
      "stateMutability": "view",
      "type": "function"
    },
    {
      "inputs": [],
      "name": "getRewardContract",
      "outputs": [
        {
          "internalType": "address",
          "name": "",
          "type": "address"
        }
      ],
      "stateMutability": "view",
      "type": "function"
    },
    {
      "inputs": [],
      "name": "getRewardContractOwner",
      "outputs": [
        {
          "internalType": "address",
          "name": "",
          "type": "address"
        }
      ],
      "stateMutability": "view",
      "type": "function"
    },
    {
      "inputs": [],
      "name": "getStakingContract",
      "outputs": [
        {
          "internalType": "address",
          "name": "",
          "type": "address"
        }
      ],
      "stateMutability": "view",
      "type": "function"
    },
    {
      "inputs": [],
      "name": "getSwapContract",
      "outputs": [
        {
          "internalType": "address",
          "name": "",
          "type": "address"
        }
      ],
      "stateMutability": "view",
      "type": "function"
    },
    {
      "inputs": [],
      "name": "getTokenContract",
      "outputs": [
        {
          "internalType": "address",
          "name": "",
          "type": "address"
        }
      ],
      "stateMutability": "view",
      "type": "function"
    },
    {
      "inputs": [],
      "name": "getTokenContractOwner",
      "outputs": [
        {
          "internalType": "address",
          "name": "",
          "type": "address"
        }
      ],
      "stateMutability": "view",
      "type": "function"
    },
    {
      "inputs": [],
      "name": "getUSDTContract",
      "outputs": [
        {
          "internalType": "address",
          "name": "",
          "type": "address"
        }
      ],
      "stateMutability": "view",
      "type": "function"
    },
    {
      "inputs": [],
      "name": "getUniswapV2RouterContract",
      "outputs": [
        {
          "internalType": "address",
          "name": "",
          "type": "address"
        }
      ],
      "stateMutability": "view",
      "type": "function"
    },
    {
      "inputs": [],
      "name": "initialize",
      "outputs": [],
      "stateMutability": "nonpayable",
      "type": "function"
    },
    {
      "inputs": [
        {
          "internalType": "address",
          "name": "_address",
          "type": "address"
        }
      ],
      "name": "isAdmin",
      "outputs": [
        {
          "internalType": "bool",
          "name": "",
          "type": "bool"
        }
      ],
      "stateMutability": "view",
      "type": "function"
    },
    {
      "inputs": [],
      "name": "owner",
      "outputs": [
        {
          "internalType": "address",
          "name": "",
          "type": "address"
        }
      ],
      "stateMutability": "view",
      "type": "function"
    },
    {
      "inputs": [],
      "name": "proxiableUUID",
      "outputs": [
        {
          "internalType": "bytes32",
          "name": "",
          "type": "bytes32"
        }
      ],
      "stateMutability": "view",
      "type": "function"
    },
    {
      "inputs": [
        {
          "internalType": "address[]",
          "name": "_addressToRemove",
          "type": "address[]"
        }
      ],
      "name": "removeAdmin",
      "outputs": [],
      "stateMutability": "nonpayable",
      "type": "function"
    },
    {
      "inputs": [],
      "name": "renounceOwnership",
      "outputs": [],
      "stateMutability": "nonpayable",
      "type": "function"
    },
    {
      "inputs": [],
      "name": "resetAdmin",
      "outputs": [],
      "stateMutability": "nonpayable",
      "type": "function"
    },
    {
      "inputs": [
        {
          "internalType": "address[]",
          "name": "_adminAddress",
          "type": "address[]"
        }
      ],
      "name": "setAdmin",
      "outputs": [],
      "stateMutability": "nonpayable",
      "type": "function"
    },
    {
      "inputs": [
        {
          "internalType": "uint256",
          "name": "_valueInWei",
          "type": "uint256"
        }
      ],
      "name": "setAdminFees",
      "outputs": [],
      "stateMutability": "nonpayable",
      "type": "function"
    },
    {
      "inputs": [
        {
          "internalType": "address",
          "name": "priceOracleContract",
          "type": "address"
        },
        {
          "internalType": "address",
          "name": "swapContract",
          "type": "address"
        },
        {
          "internalType": "address",
          "name": "referralContract",
          "type": "address"
        },
        {
          "internalType": "address",
          "name": "futureSecureWalletContract",
          "type": "address"
        },
        {
          "internalType": "address",
          "name": "roiContract",
          "type": "address"
        },
        {
          "internalType": "address",
          "name": "myUSDContract",
          "type": "address"
        }
      ],
      "name": "setContract2",
      "outputs": [],
      "stateMutability": "nonpayable",
      "type": "function"
    },
    {
      "inputs": [
        {
          "internalType": "address",
          "name": "presaleContract",
          "type": "address"
        },
        {
          "internalType": "address",
          "name": "stakingContract",
          "type": "address"
        },
        {
          "internalType": "address",
          "name": "tokenContract",
          "type": "address"
        },
        {
          "internalType": "address",
          "name": "usdtContract",
          "type": "address"
        },
        {
          "internalType": "address",
          "name": "rewardContract",
          "type": "address"
        },
        {
          "internalType": "address",
          "name": "uniswapV2Router",
          "type": "address"
        },
        {
          "internalType": "address",
          "name": "tokenContractOwner",
          "type": "address"
        },
        {
          "internalType": "address",
          "name": "rewardContractOwner",
          "type": "address"
        }
      ],
      "name": "setContracts",
      "outputs": [],
      "stateMutability": "nonpayable",
      "type": "function"
    },
    {
      "inputs": [
        {
          "internalType": "address",
          "name": "newOwner",
          "type": "address"
        }
      ],
      "name": "transferOwnership",
      "outputs": [],
      "stateMutability": "nonpayable",
      "type": "function"
    },
    {
      "inputs": [
        {
          "internalType": "address",
          "name": "newImplementation",
          "type": "address"
        }
      ],
      "name": "upgradeTo",
      "outputs": [],
      "stateMutability": "nonpayable",
      "type": "function"
    },
    {
      "inputs": [
        {
          "internalType": "address",
          "name": "newImplementation",
          "type": "address"
        },
        {
          "internalType": "bytes",
          "name": "data",
          "type": "bytes"
        }
      ],
      "name": "upgradeToAndCall",
      "outputs": [],
      "stateMutability": "payable",
      "type": "function"
    }
  ],
  "bytecode": "0x60a06040523060805234801561001457600080fd5b50608051611a1661004c6000396000818161069a015281816106e301528181610782015281816107c201526108550152611a166000f3fe6080604052600436106101cc5760003560e01c80638da5cb5b116100f7578063ae876f6111610095578063d11bdeaf11610064578063d11bdeaf146104ec578063da09e7771461050a578063f1012b4514610528578063f2fde38b1461054657600080fd5b8063ae876f611461046e578063b0616c181461048e578063b8bf3b70146104ae578063c339d0bf146104cc57600080fd5b80639ad8d6f7116100d15780639ad8d6f7146103f2578063a4d3b7d414610412578063a8baf6dd14610432578063aba2227e1461045057600080fd5b80638da5cb5b146103985780638e68dce4146103b65780639038a3ce146103d457600080fd5b80633659cfe61161016f578063715018a61161013e578063715018a61461033b5780638129fc1c1461035057806385b59933146103655780638908df3a1461037a57600080fd5b80633659cfe6146102d25780634bc92d6c146102f45780634f1ef2861461031357806352d1902d1461032657600080fd5b806324d7806c116101ab57806324d7806c1461024857806325afb2b91461027857806328b7bede146102965780632913497b146102b457600080fd5b8062f9cc66146101d1578063181803661461020857806323442c601461022a575b600080fd5b3480156101dd57600080fd5b5060d0546001600160a01b03165b6040516001600160a01b0390911681526020015b60405180910390f35b34801561021457600080fd5b5061021d610566565b6040516101ff91906114a0565b34801561023657600080fd5b5060cd546001600160a01b03166101eb565b34801561025457600080fd5b50610268610263366004611509565b6105c8565b60405190151581526020016101ff565b34801561028457600080fd5b5060d3546001600160a01b03166101eb565b3480156102a257600080fd5b5060d1546001600160a01b03166101eb565b3480156102c057600080fd5b5060cb546001600160a01b03166101eb565b3480156102de57600080fd5b506102f26102ed366004611509565b610690565b005b34801561030057600080fd5b5060c9545b6040519081526020016101ff565b6102f261032136600461153a565b610778565b34801561033257600080fd5b50610305610848565b34801561034757600080fd5b506102f26108fb565b34801561035c57600080fd5b506102f261090f565b34801561037157600080fd5b506102f2610a27565b34801561038657600080fd5b5060cf546001600160a01b03166101eb565b3480156103a457600080fd5b506033546001600160a01b03166101eb565b3480156103c257600080fd5b5060ce546001600160a01b03166101eb565b3480156103e057600080fd5b5060d2546001600160a01b03166101eb565b3480156103fe57600080fd5b506102f261040d3660046115fc565b610a4c565b34801561041e57600080fd5b506102f261042d366004611693565b610bb6565b34801561043e57600080fd5b5060d6546001600160a01b03166101eb565b34801561045c57600080fd5b5060d5546001600160a01b03166101eb565b34801561047a57600080fd5b506102f2610489366004611707565b610cc8565b34801561049a57600080fd5b506102f26104a936600461177c565b610e31565b3480156104ba57600080fd5b5060d7546001600160a01b03166101eb565b3480156104d857600080fd5b506102f26104e7366004611707565b610e3e565b3480156104f857600080fd5b5060d4546001600160a01b03166101eb565b34801561051657600080fd5b5060cc546001600160a01b03166101eb565b34801561053457600080fd5b5060ca546001600160a01b03166101eb565b34801561055257600080fd5b506102f2610561366004611509565b610ec4565b606060d88054806020026020016040519081016040528092919081815260200182805480156105be57602002820191906000526020600020905b81546001600160a01b031681526001909101906020018083116105a0575b5050505050905090565b60008060d880548060200260200160405190810160405280929190818152602001828054801561062157602002820191906000526020600020905b81546001600160a01b03168152600190910190602001808311610603575b5050505050905060005b81518160ff16101561068657818160ff168151811061064c5761064c611795565b60200260200101516001600160a01b0316846001600160a01b031603610676575060019392505050565b61067f816117c1565b905061062b565b5060009392505050565b6001600160a01b037f00000000000000000000000000000000000000000000000000000000000000001630036106e15760405162461bcd60e51b81526004016106d8906117e0565b60405180910390fd5b7f00000000000000000000000000000000000000000000000000000000000000006001600160a01b031661072a60008051602061199a833981519152546001600160a01b031690565b6001600160a01b0316146107505760405162461bcd60e51b81526004016106d89061182c565b61075981610f3a565b6040805160008082526020820190925261077591839190610f42565b50565b6001600160a01b037f00000000000000000000000000000000000000000000000000000000000000001630036107c05760405162461bcd60e51b81526004016106d8906117e0565b7f00000000000000000000000000000000000000000000000000000000000000006001600160a01b031661080960008051602061199a833981519152546001600160a01b031690565b6001600160a01b03161461082f5760405162461bcd60e51b81526004016106d89061182c565b61083882610f3a565b61084482826001610f42565b5050565b6000306001600160a01b037f000000000000000000000000000000000000000000000000000000000000000016146108e85760405162461bcd60e51b815260206004820152603860248201527f555550535570677261646561626c653a206d757374206e6f742062652063616c60448201527f6c6564207468726f7567682064656c656761746563616c6c000000000000000060648201526084016106d8565b5060008051602061199a83398151915290565b6109036110ad565b61090d6000611107565b565b600054610100900460ff161580801561092f5750600054600160ff909116105b806109495750303b158015610949575060005460ff166001145b6109ac5760405162461bcd60e51b815260206004820152602e60248201527f496e697469616c697a61626c653a20636f6e747261637420697320616c72656160448201526d191e481a5b9a5d1a585b1a5e995960921b60648201526084016106d8565b6000805460ff1916600117905580156109cf576000805461ff0019166101001790555b6109d7611159565b6109df611188565b8015610775576000805461ff0019169055604051600181527f7f26b83ff96e1f2b6a682f133852f6798a09c465da95921460cefb38474024989060200160405180910390a150565b610a2f6110ad565b60408051600081526020810191829052516107759160d891611426565b610a546110ad565b6001600160a01b03881615610a7f5760ca80546001600160a01b0319166001600160a01b038a161790555b6001600160a01b03871615610aaa5760ce80546001600160a01b0319166001600160a01b0389161790555b6001600160a01b03861615610ad55760d180546001600160a01b0319166001600160a01b0388161790555b6001600160a01b03851615610b005760d280546001600160a01b0319166001600160a01b0387161790555b6001600160a01b03841615610b2b5760d480546001600160a01b0319166001600160a01b0386161790555b6001600160a01b03831615610b565760d580546001600160a01b0319166001600160a01b0385161790555b6001600160a01b03821615610b815760d680546001600160a01b0319166001600160a01b0384161790555b6001600160a01b03811615610bac5760d780546001600160a01b0319166001600160a01b0383161790555b5050505050505050565b610bbe6110ad565b6001600160a01b03861615610be95760cb80546001600160a01b0319166001600160a01b0388161790555b6001600160a01b03851615610c145760cc80546001600160a01b0319166001600160a01b0387161790555b6001600160a01b03841615610c3f5760cd80546001600160a01b0319166001600160a01b0386161790555b6001600160a01b03831615610c6a5760d080546001600160a01b0319166001600160a01b0385161790555b6001600160a01b03821615610c955760cf80546001600160a01b0319166001600160a01b0384161790555b6001600160a01b03811615610cc05760d380546001600160a01b0319166001600160a01b0383161790555b505050505050565b610cd06110ad565b60005b61ffff8116821115610e2c5760005b60d85461ffff82161015610e195760d88161ffff1681548110610d0757610d07611795565b6000918252602090912001546001600160a01b0316848461ffff8516818110610d3257610d32611795565b9050602002016020810190610d479190611509565b6001600160a01b031603610e075760d88054610d6590600190611878565b81548110610d7557610d75611795565b60009182526020909120015460d880546001600160a01b039092169161ffff8416908110610da557610da5611795565b9060005260206000200160006101000a8154816001600160a01b0302191690836001600160a01b0316021790555060d8805480610de457610de461188b565b600082815260209020810160001990810180546001600160a01b03191690550190555b80610e11816118a1565b915050610ce2565b5080610e24816118a1565b915050610cd3565b505050565b610e396110ad565b60c955565b610e466110ad565b60005b60ff8116821115610e2c5760d883838360ff16818110610e6b57610e6b611795565b9050602002016020810190610e809190611509565b81546001810183556000928352602090922090910180546001600160a01b0319166001600160a01b0390921691909117905580610ebc816117c1565b915050610e49565b610ecc6110ad565b6001600160a01b038116610f315760405162461bcd60e51b815260206004820152602660248201527f4f776e61626c653a206e6577206f776e657220697320746865207a65726f206160448201526564647265737360d01b60648201526084016106d8565b61077581611107565b6107756110ad565b7f4910fdfa16fed3260ed0e7147f7cc6da11a60208b5b9406d12a635614ffd91435460ff1615610f7557610e2c836111af565b826001600160a01b03166352d1902d6040518163ffffffff1660e01b8152600401602060405180830381865afa925050508015610fcf575060408051601f3d908101601f19168201909252610fcc918101906118c2565b60015b6110325760405162461bcd60e51b815260206004820152602e60248201527f45524331393637557067726164653a206e657720696d706c656d656e7461746960448201526d6f6e206973206e6f74205555505360901b60648201526084016106d8565b60008051602061199a83398151915281146110a15760405162461bcd60e51b815260206004820152602960248201527f45524331393637557067726164653a20756e737570706f727465642070726f786044820152681a58589b195555525160ba1b60648201526084016106d8565b50610e2c83838361124b565b6033546001600160a01b0316331461090d5760405162461bcd60e51b815260206004820181905260248201527f4f776e61626c653a2063616c6c6572206973206e6f7420746865206f776e657260448201526064016106d8565b603380546001600160a01b038381166001600160a01b0319831681179093556040519116919082907f8be0079c531659141344cd1fd0a4f28419497f9722a3daafe3b4186f6b6457e090600090a35050565b600054610100900460ff166111805760405162461bcd60e51b81526004016106d8906118db565b61090d611276565b600054610100900460ff1661090d5760405162461bcd60e51b81526004016106d8906118db565b6001600160a01b0381163b61121c5760405162461bcd60e51b815260206004820152602d60248201527f455243313936373a206e657720696d706c656d656e746174696f6e206973206e60448201526c1bdd08184818dbdb9d1c9858dd609a1b60648201526084016106d8565b60008051602061199a83398151915280546001600160a01b0319166001600160a01b0392909216919091179055565b611254836112a6565b6000825111806112615750805b15610e2c5761127083836112e6565b50505050565b600054610100900460ff1661129d5760405162461bcd60e51b81526004016106d8906118db565b61090d33611107565b6112af816111af565b6040516001600160a01b038216907fbc7cd75a20ee27fd9adebab32041f755214dbc6bffa90cc0225b39da2e5c2d3b90600090a250565b60606001600160a01b0383163b61134e5760405162461bcd60e51b815260206004820152602660248201527f416464726573733a2064656c65676174652063616c6c20746f206e6f6e2d636f6044820152651b9d1c9858dd60d21b60648201526084016106d8565b600080846001600160a01b031684604051611369919061194a565b600060405180830381855af49150503d80600081146113a4576040519150601f19603f3d011682016040523d82523d6000602084013e6113a9565b606091505b50915091506113d182826040518060600160405280602781526020016119ba602791396113dc565b925050505b92915050565b606083156113eb5750816113f5565b6113f583836113fc565b9392505050565b81511561140c5781518083602001fd5b8060405162461bcd60e51b81526004016106d89190611966565b82805482825590600052602060002090810192821561147b579160200282015b8281111561147b57825182546001600160a01b0319166001600160a01b03909116178255602090920191600190910190611446565b5061148792915061148b565b5090565b5b80821115611487576000815560010161148c565b6020808252825182820181905260009190848201906040850190845b818110156114e15783516001600160a01b0316835292840192918401916001016114bc565b50909695505050505050565b80356001600160a01b038116811461150457600080fd5b919050565b60006020828403121561151b57600080fd5b6113f5826114ed565b634e487b7160e01b600052604160045260246000fd5b6000806040838503121561154d57600080fd5b611556836114ed565b9150602083013567ffffffffffffffff8082111561157357600080fd5b818501915085601f83011261158757600080fd5b81358181111561159957611599611524565b604051601f8201601f19908116603f011681019083821181831017156115c1576115c1611524565b816040528281528860208487010111156115da57600080fd5b8260208601602083013760006020848301015280955050505050509250929050565b600080600080600080600080610100898b03121561161957600080fd5b611622896114ed565b975061163060208a016114ed565b965061163e60408a016114ed565b955061164c60608a016114ed565b945061165a60808a016114ed565b935061166860a08a016114ed565b925061167660c08a016114ed565b915061168460e08a016114ed565b90509295985092959890939650565b60008060008060008060c087890312156116ac57600080fd5b6116b5876114ed565b95506116c3602088016114ed565b94506116d1604088016114ed565b93506116df606088016114ed565b92506116ed608088016114ed565b91506116fb60a088016114ed565b90509295509295509295565b6000806020838503121561171a57600080fd5b823567ffffffffffffffff8082111561173257600080fd5b818501915085601f83011261174657600080fd5b81358181111561175557600080fd5b8660208260051b850101111561176a57600080fd5b60209290920196919550909350505050565b60006020828403121561178e57600080fd5b5035919050565b634e487b7160e01b600052603260045260246000fd5b634e487b7160e01b600052601160045260246000fd5b600060ff821660ff81036117d7576117d76117ab565b60010192915050565b6020808252602c908201527f46756e6374696f6e206d7573742062652063616c6c6564207468726f7567682060408201526b19195b1959d85d1958d85b1b60a21b606082015260800190565b6020808252602c908201527f46756e6374696f6e206d7573742062652063616c6c6564207468726f7567682060408201526b6163746976652070726f787960a01b606082015260800190565b818103818111156113d6576113d66117ab565b634e487b7160e01b600052603160045260246000fd5b600061ffff8083168181036118b8576118b86117ab565b6001019392505050565b6000602082840312156118d457600080fd5b5051919050565b6020808252602b908201527f496e697469616c697a61626c653a20636f6e7472616374206973206e6f74206960408201526a6e697469616c697a696e6760a81b606082015260800190565b60005b83811015611941578181015183820152602001611929565b50506000910152565b6000825161195c818460208701611926565b9190910192915050565b6020815260008251806020840152611985816040850160208701611926565b601f01601f1916919091016040019291505056fe360894a13ba1a3210667c828492db98dca3e2076cc3735a920a3ca505d382bbc416464726573733a206c6f772d6c6576656c2064656c65676174652063616c6c206661696c6564a26469706673582212204dfe061b35cf24980f6adbae95d9c03b0e362246ce31ef8102e6c59b53af335064736f6c63430008120033",
  "linkReferences": {},
  "deployedLinkReferences": {}
}