{
  "_format": "hh-sol-artifact-1",
  "contractName": "VariablesUpgradeable",
  "sourceName": "contracts/VariablesUpgradeable.sol",
  "abi": [
    {
      "anonymous": false,
      "inputs": [
        {
          "indexed": false,
          "internalType": "address",
          "name": "previousAdmin",
          "type": "address"
        },
        {
          "indexed": false,
          "internalType": "address",
          "name": "newAdmin",
          "type": "address"
        }
      ],
      "name": "AdminChanged",
      "type": "event"
    },
    {
      "anonymous": false,
      "inputs": [
        {
          "indexed": true,
          "internalType": "address",
          "name": "beacon",
          "type": "address"
        }
      ],
      "name": "BeaconUpgraded",
      "type": "event"
    },
    {
      "anonymous": false,
      "inputs": [
        {
          "indexed": false,
          "internalType": "uint8",
          "name": "version",
          "type": "uint8"
        }
      ],
      "name": "Initialized",
      "type": "event"
    },
    {
      "anonymous": false,
      "inputs": [
        {
          "indexed": true,
          "internalType": "address",
          "name": "previousOwner",
          "type": "address"
        },
        {
          "indexed": true,
          "internalType": "address",
          "name": "newOwner",
          "type": "address"
        }
      ],
      "name": "OwnershipTransferred",
      "type": "event"
    },
    {
      "anonymous": false,
      "inputs": [
        {
          "indexed": true,
          "internalType": "address",
          "name": "implementation",
          "type": "address"
        }
      ],
      "name": "Upgraded",
      "type": "event"
    },
    {
      "inputs": [
        {
          "internalType": "address",
          "name": "_userAddress",
          "type": "address"
        },
        {
          "internalType": "uint256",
          "name": "_value",
          "type": "uint256"
        }
      ],
      "name": "decreaseUserBalance",
      "outputs": [],
      "stateMutability": "nonpayable",
      "type": "function"
    },
    {
      "inputs": [],
      "name": "getContracts",
      "outputs": [
        {
          "internalType": "address",
          "name": "presaleContract",
          "type": "address"
        },
        {
          "internalType": "address",
          "name": "referralContract",
          "type": "address"
        },
        {
          "internalType": "address",
          "name": "stakingContract",
          "type": "address"
        },
        {
          "internalType": "address",
          "name": "tokenContract",
          "type": "address"
        },
        {
          "internalType": "address",
          "name": "usdtContract",
          "type": "address"
        },
        {
          "internalType": "address",
          "name": "rewardContract",
          "type": "address"
        }
      ],
      "stateMutability": "view",
      "type": "function"
    },
    {
      "inputs": [],
      "name": "getPresaleContract",
      "outputs": [
        {
          "internalType": "address",
          "name": "",
          "type": "address"
        }
      ],
      "stateMutability": "view",
      "type": "function"
    },
    {
      "inputs": [],
      "name": "getReferralContract",
      "outputs": [
        {
          "internalType": "address",
          "name": "",
          "type": "address"
        }
      ],
      "stateMutability": "view",
      "type": "function"
    },
    {
      "inputs": [],
      "name": "getRewardContract",
      "outputs": [
        {
          "internalType": "address",
          "name": "",
          "type": "address"
        }
      ],
      "stateMutability": "view",
      "type": "function"
    },
    {
      "inputs": [],
      "name": "getStakingContract",
      "outputs": [
        {
          "internalType": "address",
          "name": "",
          "type": "address"
        }
      ],
      "stateMutability": "view",
      "type": "function"
    },
    {
      "inputs": [],
      "name": "getTokenContract",
      "outputs": [
        {
          "internalType": "address",
          "name": "",
          "type": "address"
        }
      ],
      "stateMutability": "view",
      "type": "function"
    },
    {
      "inputs": [],
      "name": "getTokenPriceInUSD",
      "outputs": [
        {
          "internalType": "uint256",
          "name": "",
          "type": "uint256"
        }
      ],
      "stateMutability": "view",
      "type": "function"
    },
    {
      "inputs": [],
      "name": "getUSDTContract",
      "outputs": [
        {
          "internalType": "address",
          "name": "",
          "type": "address"
        }
      ],
      "stateMutability": "view",
      "type": "function"
    },
    {
      "inputs": [
        {
          "internalType": "address",
          "name": "_userAddress",
          "type": "address"
        }
      ],
      "name": "getUserBalance",
      "outputs": [
        {
          "internalType": "uint256",
          "name": "",
          "type": "uint256"
        }
      ],
      "stateMutability": "view",
      "type": "function"
    },
    {
      "inputs": [
        {
          "internalType": "address",
          "name": "_userAddress",
          "type": "address"
        }
      ],
      "name": "getUserBalanceLimit",
      "outputs": [
        {
          "internalType": "uint256",
          "name": "",
          "type": "uint256"
        }
      ],
      "stateMutability": "view",
      "type": "function"
    },
    {
      "inputs": [
        {
          "internalType": "address",
          "name": "_userAddress",
          "type": "address"
        },
        {
          "internalType": "uint256",
          "name": "_value",
          "type": "uint256"
        }
      ],
      "name": "increaseUserBalance",
      "outputs": [],
      "stateMutability": "nonpayable",
      "type": "function"
    },
    {
      "inputs": [],
      "name": "initialize",
      "outputs": [],
      "stateMutability": "nonpayable",
      "type": "function"
    },
    {
      "inputs": [
        {
          "internalType": "address",
          "name": "_userAddress",
          "type": "address"
        }
      ],
      "name": "isUserBalanceLimitReached",
      "outputs": [
        {
          "internalType": "bool",
          "name": "",
          "type": "bool"
        }
      ],
      "stateMutability": "view",
      "type": "function"
    },
    {
      "inputs": [],
      "name": "owner",
      "outputs": [
        {
          "internalType": "address",
          "name": "",
          "type": "address"
        }
      ],
      "stateMutability": "view",
      "type": "function"
    },
    {
      "inputs": [],
      "name": "proxiableUUID",
      "outputs": [
        {
          "internalType": "bytes32",
          "name": "",
          "type": "bytes32"
        }
      ],
      "stateMutability": "view",
      "type": "function"
    },
    {
      "inputs": [],
      "name": "renounceOwnership",
      "outputs": [],
      "stateMutability": "nonpayable",
      "type": "function"
    },
    {
      "inputs": [],
      "name": "rewardContractOwner",
      "outputs": [
        {
          "internalType": "address",
          "name": "",
          "type": "address"
        }
      ],
      "stateMutability": "view",
      "type": "function"
    },
    {
      "inputs": [
        {
          "internalType": "address",
          "name": "_presaleAddress",
          "type": "address"
        }
      ],
      "name": "setPresaleContract",
      "outputs": [],
      "stateMutability": "nonpayable",
      "type": "function"
    },
    {
      "inputs": [
        {
          "internalType": "address",
          "name": "_referralAddress",
          "type": "address"
        }
      ],
      "name": "setReferralContract",
      "outputs": [],
      "stateMutability": "nonpayable",
      "type": "function"
    },
    {
      "inputs": [
        {
          "internalType": "address",
          "name": "_rewardAddress",
          "type": "address"
        }
      ],
      "name": "setRewardContract",
      "outputs": [],
      "stateMutability": "nonpayable",
      "type": "function"
    },
    {
      "inputs": [
        {
          "internalType": "address",
          "name": "_stakingAddress",
          "type": "address"
        }
      ],
      "name": "setSatkingContract",
      "outputs": [],
      "stateMutability": "nonpayable",
      "type": "function"
    },
    {
      "inputs": [
        {
          "internalType": "address",
          "name": "_tokenAddress",
          "type": "address"
        }
      ],
      "name": "setTokenContract",
      "outputs": [],
      "stateMutability": "nonpayable",
      "type": "function"
    },
    {
      "inputs": [
        {
          "internalType": "uint256",
          "name": "_priceInUSDWei",
          "type": "uint256"
        }
      ],
      "name": "setTokenPriceInUSD",
      "outputs": [],
      "stateMutability": "nonpayable",
      "type": "function"
    },
    {
      "inputs": [
        {
          "internalType": "address",
          "name": "_usdtAddress",
          "type": "address"
        }
      ],
      "name": "setUSDTContract",
      "outputs": [],
      "stateMutability": "nonpayable",
      "type": "function"
    },
    {
      "inputs": [
        {
          "internalType": "address",
          "name": "_userAddress",
          "type": "address"
        },
        {
          "internalType": "uint256",
          "name": "_value",
          "type": "uint256"
        }
      ],
      "name": "setUserBalance",
      "outputs": [],
      "stateMutability": "nonpayable",
      "type": "function"
    },
    {
      "inputs": [
        {
          "internalType": "address",
          "name": "_userAddress",
          "type": "address"
        },
        {
          "internalType": "uint256",
          "name": "_valueInWei",
          "type": "uint256"
        }
      ],
      "name": "setUserBalanceLimit",
      "outputs": [],
      "stateMutability": "nonpayable",
      "type": "function"
    },
    {
      "inputs": [
        {
          "internalType": "address",
          "name": "_userAddress",
          "type": "address"
        },
        {
          "internalType": "uint256",
          "name": "_valueInWei",
          "type": "uint256"
        }
      ],
      "name": "setUserInitialBalance",
      "outputs": [],
      "stateMutability": "nonpayable",
      "type": "function"
    },
    {
      "inputs": [],
      "name": "tokenContractInfo",
      "outputs": [
        {
          "internalType": "address",
          "name": "tokenAddress",
          "type": "address"
        },
        {
          "internalType": "string",
          "name": "name",
          "type": "string"
        },
        {
          "internalType": "string",
          "name": "symbol",
          "type": "string"
        },
        {
          "internalType": "uint256",
          "name": "decimals",
          "type": "uint256"
        }
      ],
      "stateMutability": "view",
      "type": "function"
    },
    {
      "inputs": [],
      "name": "tokenContractOwner",
      "outputs": [
        {
          "internalType": "address",
          "name": "",
          "type": "address"
        }
      ],
      "stateMutability": "view",
      "type": "function"
    },
    {
      "inputs": [
        {
          "internalType": "address",
          "name": "newOwner",
          "type": "address"
        }
      ],
      "name": "transferOwnership",
      "outputs": [],
      "stateMutability": "nonpayable",
      "type": "function"
    },
    {
      "inputs": [
        {
          "internalType": "address",
          "name": "newImplementation",
          "type": "address"
        }
      ],
      "name": "upgradeTo",
      "outputs": [],
      "stateMutability": "nonpayable",
      "type": "function"
    },
    {
      "inputs": [
        {
          "internalType": "address",
          "name": "newImplementation",
          "type": "address"
        },
        {
          "internalType": "bytes",
          "name": "data",
          "type": "bytes"
        }
      ],
      "name": "upgradeToAndCall",
      "outputs": [],
      "stateMutability": "payable",
      "type": "function"
    }
  ],
  "bytecode": "0x60a06040523060805234801561001457600080fd5b50608051611b8961004c60003960008181610695015281816106de015281816107e00152818161082001526108dd0152611b896000f3fe6080604052600436106101ee5760003560e01c80638e68dce41161010d578063d11bdeaf116100a0578063eaac40f31161006f578063eaac40f3146105c5578063ec31250f146105e5578063f1012b4514610603578063f2fde38b14610621578063fe1777001461064157600080fd5b8063d11bdeaf1461052e578063d35be7be1461054c578063d8e611d31461056c578063e2f616c0146105a557600080fd5b8063ab96b620116100dc578063ab96b6201461046c578063bbcd5bbe1461048c578063c3a2a93a146104ac578063c9c06e1d1461050e57600080fd5b80638e68dce4146103fb5780639038a3ce14610419578063a8766bc114610437578063a9bbd1141461044c57600080fd5b806352d1902d116101855780637cf99ad6116101545780637cf99ad6146103735780638129fc1c146103a3578063878e17df146103b85780638da5cb5b146103dd57600080fd5b806352d1902d14610309578063591a51331461031e5780635eeb57c01461033e578063715018a61461035e57600080fd5b806345746dd7116101c157806345746dd71461028a57806347734892146102a85780634f1ef286146102d657806351508f0a146102e957600080fd5b806306ad5a47146101f357806323442c601461021557806328b7bede1461024c5780633659cfe61461026a575b600080fd5b3480156101ff57600080fd5b5061021361020e3660046116bd565b610661565b005b34801561022157600080fd5b5060ca546001600160a01b03165b6040516001600160a01b0390911681526020015b60405180910390f35b34801561025857600080fd5b5060cc546001600160a01b031661022f565b34801561027657600080fd5b506102136102853660046116bd565b61068b565b34801561029657600080fd5b5060d1546001600160a01b031661022f565b3480156102b457600080fd5b506102c86102c33660046116bd565b610773565b604051908152602001610243565b6102136102e4366004611747565b6107d6565b3480156102f557600080fd5b506102136103043660046116bd565b6108a6565b34801561031557600080fd5b506102c86108d0565b34801561032a57600080fd5b506102136103393660046117d8565b610983565b34801561034a57600080fd5b50610213610359366004611802565b610a75565b34801561036a57600080fd5b50610213610aee565b34801561037f57600080fd5b5061039361038e3660046116bd565b610b02565b6040519015158152602001610243565b3480156103af57600080fd5b50610213610b3a565b3480156103c457600080fd5b506103cd610ccd565b604051610243949392919061186b565b3480156103e957600080fd5b506033546001600160a01b031661022f565b34801561040757600080fd5b5060cb546001600160a01b031661022f565b34801561042557600080fd5b5060cd546001600160a01b031661022f565b34801561044357600080fd5b5060cf546102c8565b34801561045857600080fd5b506102136104673660046116bd565b610e46565b34801561047857600080fd5b506102136104873660046117d8565b610e70565b34801561049857600080fd5b506102136104a73660046116bd565b610f0b565b3480156104b857600080fd5b5060c95460ca5460cb5460cc5460cd5460ce54604080516001600160a01b0397881681529587166020870152938616938501939093529084166060840152831660808301529190911660a082015260c001610243565b34801561051a57600080fd5b506102136105293660046116bd565b610f35565b34801561053a57600080fd5b5060ce546001600160a01b031661022f565b34801561055857600080fd5b506102136105673660046117d8565b610f5f565b34801561057857600080fd5b506102c86105873660046116bd565b6001600160a01b0316600090815260d3602052604090206002015490565b3480156105b157600080fd5b506102136105c03660046117d8565b610f86565b3480156105d157600080fd5b506102136105e03660046116bd565b611085565b3480156105f157600080fd5b5060d0546001600160a01b031661022f565b34801561060f57600080fd5b5060c9546001600160a01b031661022f565b34801561062d57600080fd5b5061021361063c3660046116bd565b6110af565b34801561064d57600080fd5b5061021361065c3660046117d8565b611125565b6106696111b5565b60ca80546001600160a01b0319166001600160a01b0392909216919091179055565b6001600160a01b037f00000000000000000000000000000000000000000000000000000000000000001630036106dc5760405162461bcd60e51b81526004016106d3906118b3565b60405180910390fd5b7f00000000000000000000000000000000000000000000000000000000000000006001600160a01b0316610725600080516020611b0d833981519152546001600160a01b031690565b6001600160a01b03161461074b5760405162461bcd60e51b81526004016106d3906118ff565b6107548161120f565b6040805160008082526020820190925261077091839190611217565b50565b6001600160a01b038116600090815260d3602052604081206002810154600190910154106107ba57506001600160a01b0316600090815260d3602052604090206002015490565b506001600160a01b0316600090815260d3602052604090205490565b6001600160a01b037f000000000000000000000000000000000000000000000000000000000000000016300361081e5760405162461bcd60e51b81526004016106d3906118b3565b7f00000000000000000000000000000000000000000000000000000000000000006001600160a01b0316610867600080516020611b0d833981519152546001600160a01b031690565b6001600160a01b03161461088d5760405162461bcd60e51b81526004016106d3906118ff565b6108968261120f565b6108a282826001611217565b5050565b6108ae6111b5565b60ce80546001600160a01b0319166001600160a01b0392909216919091179055565b6000306001600160a01b037f000000000000000000000000000000000000000000000000000000000000000016146109705760405162461bcd60e51b815260206004820152603860248201527f555550535570677261646561626c653a206d757374206e6f742062652063616c60448201527f6c6564207468726f7567682064656c656761746563616c6c000000000000000060648201526084016106d3565b50600080516020611b0d83398151915290565b336109966033546001600160a01b031690565b6001600160a01b0316816001600160a01b031614806109c2575060ca546001600160a01b038281169116145b806109da575060cb546001600160a01b038281169116145b6109f65760405162461bcd60e51b81526004016106d39061194b565b6001600160a01b038316600090815260d3602052604081206001018054849290610a219084906119a3565b909155505060d254606490610a3690846119b6565b610a4091906119cd565b6001600160a01b038416600090815260d3602052604081206002018054909190610a6b9084906119a3565b9091555050505050565b33610a886033546001600160a01b031690565b6001600160a01b0316816001600160a01b03161480610ab4575060ca546001600160a01b038281169116145b80610acc575060cb546001600160a01b038281169116145b610ae85760405162461bcd60e51b81526004016106d39061194b565b5060cf55565b610af66111b5565b610b006000611382565b565b6001600160a01b038116600090815260d360205260408120600281015460019091015410610b3257506001919050565b506000919050565b600054610100900460ff1615808015610b5a5750600054600160ff909116105b80610b745750303b158015610b74575060005460ff166001145b610bd75760405162461bcd60e51b815260206004820152602e60248201527f496e697469616c697a61626c653a20636f6e747261637420697320616c72656160448201526d191e481a5b9a5d1a585b1a5e995960921b60648201526084016106d3565b6000805460ff191660011790558015610bfa576000805461ff0019166101001790555b60c980546001600160a01b0319908116730c750b915ef0112b204f0f7e6812be292b9936a290811790925560ca80548216737144552bc1deb1fa1817375c4e66879caad65f0517905560cb805482168317905560cd805482168317905560ce8054909116909117905567de0b6b3a7640000060cf5561012c60d255610c7d6113d4565b610c85611403565b8015610770576000805461ff0019169055604051600181527f7f26b83ff96e1f2b6a682f133852f6798a09c465da95921460cefb38474024989060200160405180910390a150565b60cc54604080516306fdde0360e01b815290516001600160a01b0390921691606091829160009185916306fdde039160048082019286929091908290030181865afa158015610d20573d6000803e3d6000fd5b505050506040513d6000823e601f3d908101601f19168201604052610d4891908101906119ef565b925060cc60009054906101000a90046001600160a01b03166001600160a01b03166395d89b416040518163ffffffff1660e01b8152600401600060405180830381865afa158015610d9d573d6000803e3d6000fd5b505050506040513d6000823e601f3d908101601f19168201604052610dc591908101906119ef565b915060cc60009054906101000a90046001600160a01b03166001600160a01b031663313ce5676040518163ffffffff1660e01b8152600401602060405180830381865afa158015610e1a573d6000803e3d6000fd5b505050506040513d601f19601f82011682018060405250810190610e3e9190611a66565b905090919293565b610e4e6111b5565b60c980546001600160a01b0319166001600160a01b0392909216919091179055565b33610e836033546001600160a01b031690565b6001600160a01b0316816001600160a01b03161480610eaf575060ca546001600160a01b038281169116145b80610ec7575060cb546001600160a01b038281169116145b610ee35760405162461bcd60e51b81526004016106d39061194b565b6001600160a01b038316600090815260d3602052604081208054849290610a6b908490611a7f565b610f136111b5565b60cc80546001600160a01b0319166001600160a01b0392909216919091179055565b610f3d6111b5565b60cb80546001600160a01b0319166001600160a01b0392909216919091179055565b610f676111b5565b6001600160a01b03909116600090815260d36020526040902060020155565b33610f996033546001600160a01b031690565b6001600160a01b0316816001600160a01b03161480610fc5575060ca546001600160a01b038281169116145b80610fdd575060cb546001600160a01b038281169116145b610ff95760405162461bcd60e51b81526004016106d39061194b565b6001600160a01b038316600090815260d36020526040902060028101546001909101546110279084906119a3565b1015611060576001600160a01b038316600090815260d36020526040812080548492906110559084906119a3565b909155506110809050565b6001600160a01b038316600090815260d360205260409020600281015490555b505050565b61108d6111b5565b60cd80546001600160a01b0319166001600160a01b0392909216919091179055565b6110b76111b5565b6001600160a01b03811661111c5760405162461bcd60e51b815260206004820152602660248201527f4f776e61626c653a206e6577206f776e657220697320746865207a65726f206160448201526564647265737360d01b60648201526084016106d3565b61077081611382565b336111386033546001600160a01b031690565b6001600160a01b0316816001600160a01b03161480611164575060ca546001600160a01b038281169116145b8061117c575060cb546001600160a01b038281169116145b6111985760405162461bcd60e51b81526004016106d39061194b565b506001600160a01b03909116600090815260d36020526040902055565b6033546001600160a01b03163314610b005760405162461bcd60e51b815260206004820181905260248201527f4f776e61626c653a2063616c6c6572206973206e6f7420746865206f776e657260448201526064016106d3565b6107706111b5565b7f4910fdfa16fed3260ed0e7147f7cc6da11a60208b5b9406d12a635614ffd91435460ff161561124a576110808361142a565b826001600160a01b03166352d1902d6040518163ffffffff1660e01b8152600401602060405180830381865afa9250505080156112a4575060408051601f3d908101601f191682019092526112a191810190611a66565b60015b6113075760405162461bcd60e51b815260206004820152602e60248201527f45524331393637557067726164653a206e657720696d706c656d656e7461746960448201526d6f6e206973206e6f74205555505360901b60648201526084016106d3565b600080516020611b0d83398151915281146113765760405162461bcd60e51b815260206004820152602960248201527f45524331393637557067726164653a20756e737570706f727465642070726f786044820152681a58589b195555525160ba1b60648201526084016106d3565b506110808383836114c6565b603380546001600160a01b038381166001600160a01b0319831681179093556040519116919082907f8be0079c531659141344cd1fd0a4f28419497f9722a3daafe3b4186f6b6457e090600090a35050565b600054610100900460ff166113fb5760405162461bcd60e51b81526004016106d390611a92565b610b006114f1565b600054610100900460ff16610b005760405162461bcd60e51b81526004016106d390611a92565b6001600160a01b0381163b6114975760405162461bcd60e51b815260206004820152602d60248201527f455243313936373a206e657720696d706c656d656e746174696f6e206973206e60448201526c1bdd08184818dbdb9d1c9858dd609a1b60648201526084016106d3565b600080516020611b0d83398151915280546001600160a01b0319166001600160a01b0392909216919091179055565b6114cf83611521565b6000825111806114dc5750805b15611080576114eb8383611561565b50505050565b600054610100900460ff166115185760405162461bcd60e51b81526004016106d390611a92565b610b0033611382565b61152a8161142a565b6040516001600160a01b038216907fbc7cd75a20ee27fd9adebab32041f755214dbc6bffa90cc0225b39da2e5c2d3b90600090a250565b60606001600160a01b0383163b6115c95760405162461bcd60e51b815260206004820152602660248201527f416464726573733a2064656c65676174652063616c6c20746f206e6f6e2d636f6044820152651b9d1c9858dd60d21b60648201526084016106d3565b600080846001600160a01b0316846040516115e49190611add565b600060405180830381855af49150503d806000811461161f576040519150601f19603f3d011682016040523d82523d6000602084013e611624565b606091505b509150915061164c8282604051806060016040528060278152602001611b2d60279139611657565b925050505b92915050565b60608315611666575081611670565b6116708383611677565b9392505050565b8151156116875781518083602001fd5b8060405162461bcd60e51b81526004016106d39190611af9565b80356001600160a01b03811681146116b857600080fd5b919050565b6000602082840312156116cf57600080fd5b611670826116a1565b634e487b7160e01b600052604160045260246000fd5b604051601f8201601f1916810167ffffffffffffffff81118282101715611717576117176116d8565b604052919050565b600067ffffffffffffffff821115611739576117396116d8565b50601f01601f191660200190565b6000806040838503121561175a57600080fd5b611763836116a1565b9150602083013567ffffffffffffffff81111561177f57600080fd5b8301601f8101851361179057600080fd5b80356117a361179e8261171f565b6116ee565b8181528660208385010111156117b857600080fd5b816020840160208301376000602083830101528093505050509250929050565b600080604083850312156117eb57600080fd5b6117f4836116a1565b946020939093013593505050565b60006020828403121561181457600080fd5b5035919050565b60005b8381101561183657818101518382015260200161181e565b50506000910152565b6000815180845261185781602086016020860161181b565b601f01601f19169290920160200192915050565b6001600160a01b038516815260806020820181905260009061188f9083018661183f565b82810360408401526118a1818661183f565b91505082606083015295945050505050565b6020808252602c908201527f46756e6374696f6e206d7573742062652063616c6c6564207468726f7567682060408201526b19195b1959d85d1958d85b1b60a21b606082015260800190565b6020808252602c908201527f46756e6374696f6e206d7573742062652063616c6c6564207468726f7567682060408201526b6163746976652070726f787960a01b606082015260800190565b60208082526022908201527f4f6e6c792041646d696e732063616e2063616c6c20746869732066756e63746960408201526137b760f11b606082015260800190565b634e487b7160e01b600052601160045260246000fd5b808201808211156116515761165161198d565b80820281158282048414176116515761165161198d565b6000826119ea57634e487b7160e01b600052601260045260246000fd5b500490565b600060208284031215611a0157600080fd5b815167ffffffffffffffff811115611a1857600080fd5b8201601f81018413611a2957600080fd5b8051611a3761179e8261171f565b818152856020838501011115611a4c57600080fd5b611a5d82602083016020860161181b565b95945050505050565b600060208284031215611a7857600080fd5b5051919050565b818103818111156116515761165161198d565b6020808252602b908201527f496e697469616c697a61626c653a20636f6e7472616374206973206e6f74206960408201526a6e697469616c697a696e6760a81b606082015260800190565b60008251611aef81846020870161181b565b9190910192915050565b602081526000611670602083018461183f56fe360894a13ba1a3210667c828492db98dca3e2076cc3735a920a3ca505d382bbc416464726573733a206c6f772d6c6576656c2064656c65676174652063616c6c206661696c6564a26469706673582212203e0f2b4721945465ade244ed8fb5d66c77cec2dafc25975e8d2a390cca616bc264736f6c63430008110033",
  "linkReferences": {},
  "deployedLinkReferences": {}
}