{
  "_format": "hh-sol-artifact-1",
  "contractName": "VariablesUpgradeable",
  "sourceName": "contracts/VariablesUpgradeable.sol",
  "abi": [
    {
      "anonymous": false,
      "inputs": [
        {
          "indexed": false,
          "internalType": "address",
          "name": "previousAdmin",
          "type": "address"
        },
        {
          "indexed": false,
          "internalType": "address",
          "name": "newAdmin",
          "type": "address"
        }
      ],
      "name": "AdminChanged",
      "type": "event"
    },
    {
      "anonymous": false,
      "inputs": [
        {
          "indexed": true,
          "internalType": "address",
          "name": "beacon",
          "type": "address"
        }
      ],
      "name": "BeaconUpgraded",
      "type": "event"
    },
    {
      "anonymous": false,
      "inputs": [
        {
          "indexed": false,
          "internalType": "uint8",
          "name": "version",
          "type": "uint8"
        }
      ],
      "name": "Initialized",
      "type": "event"
    },
    {
      "anonymous": false,
      "inputs": [
        {
          "indexed": true,
          "internalType": "address",
          "name": "previousOwner",
          "type": "address"
        },
        {
          "indexed": true,
          "internalType": "address",
          "name": "newOwner",
          "type": "address"
        }
      ],
      "name": "OwnershipTransferred",
      "type": "event"
    },
    {
      "anonymous": false,
      "inputs": [
        {
          "indexed": true,
          "internalType": "address",
          "name": "implementation",
          "type": "address"
        }
      ],
      "name": "Upgraded",
      "type": "event"
    },
    {
      "inputs": [],
      "name": "adminFees",
      "outputs": [
        {
          "internalType": "uint256",
          "name": "",
          "type": "uint256"
        }
      ],
      "stateMutability": "view",
      "type": "function"
    },
    {
      "inputs": [],
      "name": "getAdminsList",
      "outputs": [
        {
          "internalType": "address[]",
          "name": "",
          "type": "address[]"
        }
      ],
      "stateMutability": "view",
      "type": "function"
    },
    {
      "inputs": [],
      "name": "getFutureSecureWalletContract",
      "outputs": [
        {
          "internalType": "address",
          "name": "",
          "type": "address"
        }
      ],
      "stateMutability": "view",
      "type": "function"
    },
    {
      "inputs": [],
      "name": "getMyUSDContract",
      "outputs": [
        {
          "internalType": "address",
          "name": "",
          "type": "address"
        }
      ],
      "stateMutability": "view",
      "type": "function"
    },
    {
      "inputs": [],
      "name": "getPresaleContract",
      "outputs": [
        {
          "internalType": "address",
          "name": "",
          "type": "address"
        }
      ],
      "stateMutability": "view",
      "type": "function"
    },
    {
      "inputs": [],
      "name": "getPriceOracleContract",
      "outputs": [
        {
          "internalType": "address",
          "name": "",
          "type": "address"
        }
      ],
      "stateMutability": "view",
      "type": "function"
    },
    {
      "inputs": [],
      "name": "getROIContract",
      "outputs": [
        {
          "internalType": "address",
          "name": "",
          "type": "address"
        }
      ],
      "stateMutability": "view",
      "type": "function"
    },
    {
      "inputs": [],
      "name": "getReferralContract",
      "outputs": [
        {
          "internalType": "address",
          "name": "",
          "type": "address"
        }
      ],
      "stateMutability": "view",
      "type": "function"
    },
    {
      "inputs": [],
      "name": "getRewardContract",
      "outputs": [
        {
          "internalType": "address",
          "name": "",
          "type": "address"
        }
      ],
      "stateMutability": "view",
      "type": "function"
    },
    {
      "inputs": [],
      "name": "getRewardContractOwner",
      "outputs": [
        {
          "internalType": "address",
          "name": "",
          "type": "address"
        }
      ],
      "stateMutability": "view",
      "type": "function"
    },
    {
      "inputs": [],
      "name": "getStakingContract",
      "outputs": [
        {
          "internalType": "address",
          "name": "",
          "type": "address"
        }
      ],
      "stateMutability": "view",
      "type": "function"
    },
    {
      "inputs": [],
      "name": "getSwapContract",
      "outputs": [
        {
          "internalType": "address",
          "name": "",
          "type": "address"
        }
      ],
      "stateMutability": "view",
      "type": "function"
    },
    {
      "inputs": [],
      "name": "getTokenContract",
      "outputs": [
        {
          "internalType": "address",
          "name": "",
          "type": "address"
        }
      ],
      "stateMutability": "view",
      "type": "function"
    },
    {
      "inputs": [],
      "name": "getTokenContractOwner",
      "outputs": [
        {
          "internalType": "address",
          "name": "",
          "type": "address"
        }
      ],
      "stateMutability": "view",
      "type": "function"
    },
    {
      "inputs": [],
      "name": "getUSDTContract",
      "outputs": [
        {
          "internalType": "address",
          "name": "",
          "type": "address"
        }
      ],
      "stateMutability": "view",
      "type": "function"
    },
    {
      "inputs": [],
      "name": "getUniswapV2RouterContract",
      "outputs": [
        {
          "internalType": "address",
          "name": "",
          "type": "address"
        }
      ],
      "stateMutability": "view",
      "type": "function"
    },
    {
      "inputs": [],
      "name": "initialize",
      "outputs": [],
      "stateMutability": "nonpayable",
      "type": "function"
    },
    {
      "inputs": [
        {
          "internalType": "address",
          "name": "_address",
          "type": "address"
        }
      ],
      "name": "isAdmin",
      "outputs": [
        {
          "internalType": "bool",
          "name": "",
          "type": "bool"
        }
      ],
      "stateMutability": "view",
      "type": "function"
    },
    {
      "inputs": [],
      "name": "owner",
      "outputs": [
        {
          "internalType": "address",
          "name": "",
          "type": "address"
        }
      ],
      "stateMutability": "view",
      "type": "function"
    },
    {
      "inputs": [],
      "name": "proxiableUUID",
      "outputs": [
        {
          "internalType": "bytes32",
          "name": "",
          "type": "bytes32"
        }
      ],
      "stateMutability": "view",
      "type": "function"
    },
    {
      "inputs": [
        {
          "internalType": "address[]",
          "name": "_addressToRemove",
          "type": "address[]"
        }
      ],
      "name": "removeAdmin",
      "outputs": [],
      "stateMutability": "nonpayable",
      "type": "function"
    },
    {
      "inputs": [],
      "name": "renounceOwnership",
      "outputs": [],
      "stateMutability": "nonpayable",
      "type": "function"
    },
    {
      "inputs": [
        {
          "internalType": "address[]",
          "name": "_adminAddress",
          "type": "address[]"
        }
      ],
      "name": "setAdmin",
      "outputs": [],
      "stateMutability": "nonpayable",
      "type": "function"
    },
    {
      "inputs": [
        {
          "internalType": "uint256",
          "name": "_valueInWei",
          "type": "uint256"
        }
      ],
      "name": "setAdminFees",
      "outputs": [],
      "stateMutability": "nonpayable",
      "type": "function"
    },
    {
      "inputs": [
        {
          "internalType": "address",
          "name": "priceOracleContract",
          "type": "address"
        },
        {
          "internalType": "address",
          "name": "swapContract",
          "type": "address"
        },
        {
          "internalType": "address",
          "name": "referralContract",
          "type": "address"
        },
        {
          "internalType": "address",
          "name": "futureSecureWalletContract",
          "type": "address"
        },
        {
          "internalType": "address",
          "name": "roiContract",
          "type": "address"
        },
        {
          "internalType": "address",
          "name": "myUSDContract",
          "type": "address"
        }
      ],
      "name": "setContract2",
      "outputs": [],
      "stateMutability": "nonpayable",
      "type": "function"
    },
    {
      "inputs": [
        {
          "internalType": "address",
          "name": "presaleContract",
          "type": "address"
        },
        {
          "internalType": "address",
          "name": "stakingContract",
          "type": "address"
        },
        {
          "internalType": "address",
          "name": "tokenContract",
          "type": "address"
        },
        {
          "internalType": "address",
          "name": "usdtContract",
          "type": "address"
        },
        {
          "internalType": "address",
          "name": "rewardContract",
          "type": "address"
        },
        {
          "internalType": "address",
          "name": "uniswapV2Router",
          "type": "address"
        },
        {
          "internalType": "address",
          "name": "tokenContractOwner",
          "type": "address"
        },
        {
          "internalType": "address",
          "name": "rewardContractOwner",
          "type": "address"
        }
      ],
      "name": "setContracts",
      "outputs": [],
      "stateMutability": "nonpayable",
      "type": "function"
    },
    {
      "inputs": [
        {
          "internalType": "address",
          "name": "newOwner",
          "type": "address"
        }
      ],
      "name": "transferOwnership",
      "outputs": [],
      "stateMutability": "nonpayable",
      "type": "function"
    },
    {
      "inputs": [
        {
          "internalType": "address",
          "name": "newImplementation",
          "type": "address"
        }
      ],
      "name": "upgradeTo",
      "outputs": [],
      "stateMutability": "nonpayable",
      "type": "function"
    },
    {
      "inputs": [
        {
          "internalType": "address",
          "name": "newImplementation",
          "type": "address"
        },
        {
          "internalType": "bytes",
          "name": "data",
          "type": "bytes"
        }
      ],
      "name": "upgradeToAndCall",
      "outputs": [],
      "stateMutability": "payable",
      "type": "function"
    }
  ],
  "bytecode": "0x60a06040523060805234801561001457600080fd5b5060805161195761004c6000396000818161067a015281816106c301528181610762015281816107a2015261083501526119576000f3fe6080604052600436106101c15760003560e01c80638da5cb5b116100f7578063ae876f6111610095578063d11bdeaf11610064578063d11bdeaf146104cc578063da09e777146104ea578063f1012b4514610508578063f2fde38b1461052657600080fd5b8063ae876f611461044e578063b0616c181461046e578063b8bf3b701461048e578063c339d0bf146104ac57600080fd5b80639ad8d6f7116100d15780639ad8d6f7146103d2578063a4d3b7d4146103f2578063a8baf6dd14610412578063aba2227e1461043057600080fd5b80638da5cb5b146103785780638e68dce4146103965780639038a3ce146103b457600080fd5b80633659cfe61161016457806352d1902d1161013e57806352d1902d1461031b578063715018a6146103305780638129fc1c146103455780638908df3a1461035a57600080fd5b80633659cfe6146102c75780634bc92d6c146102e95780634f1ef2861461030857600080fd5b806324d7806c116101a057806324d7806c1461023d57806325afb2b91461026d57806328b7bede1461028b5780632913497b146102a957600080fd5b8062f9cc66146101c657806318180366146101fd57806323442c601461021f575b600080fd5b3480156101d257600080fd5b5060d0546001600160a01b03165b6040516001600160a01b0390911681526020015b60405180910390f35b34801561020957600080fd5b50610212610546565b6040516101f491906113e1565b34801561022b57600080fd5b5060cd546001600160a01b03166101e0565b34801561024957600080fd5b5061025d61025836600461144a565b6105a8565b60405190151581526020016101f4565b34801561027957600080fd5b5060d3546001600160a01b03166101e0565b34801561029757600080fd5b5060d1546001600160a01b03166101e0565b3480156102b557600080fd5b5060cb546001600160a01b03166101e0565b3480156102d357600080fd5b506102e76102e236600461144a565b610670565b005b3480156102f557600080fd5b5060c9545b6040519081526020016101f4565b6102e761031636600461147b565b610758565b34801561032757600080fd5b506102fa610828565b34801561033c57600080fd5b506102e76108db565b34801561035157600080fd5b506102e76108ef565b34801561036657600080fd5b5060cf546001600160a01b03166101e0565b34801561038457600080fd5b506033546001600160a01b03166101e0565b3480156103a257600080fd5b5060ce546001600160a01b03166101e0565b3480156103c057600080fd5b5060d2546001600160a01b03166101e0565b3480156103de57600080fd5b506102e76103ed36600461153d565b610a07565b3480156103fe57600080fd5b506102e761040d3660046115d4565b610b71565b34801561041e57600080fd5b5060d6546001600160a01b03166101e0565b34801561043c57600080fd5b5060d5546001600160a01b03166101e0565b34801561045a57600080fd5b506102e7610469366004611648565b610c83565b34801561047a57600080fd5b506102e76104893660046116bd565b610dec565b34801561049a57600080fd5b5060d7546001600160a01b03166101e0565b3480156104b857600080fd5b506102e76104c7366004611648565b610df9565b3480156104d857600080fd5b5060d4546001600160a01b03166101e0565b3480156104f657600080fd5b5060cc546001600160a01b03166101e0565b34801561051457600080fd5b5060ca546001600160a01b03166101e0565b34801561053257600080fd5b506102e761054136600461144a565b610e7f565b606060d880548060200260200160405190810160405280929190818152602001828054801561059e57602002820191906000526020600020905b81546001600160a01b03168152600190910190602001808311610580575b5050505050905090565b60008060d880548060200260200160405190810160405280929190818152602001828054801561060157602002820191906000526020600020905b81546001600160a01b031681526001909101906020018083116105e3575b5050505050905060005b81518160ff16101561066657818160ff168151811061062c5761062c6116d6565b60200260200101516001600160a01b0316846001600160a01b031603610656575060019392505050565b61065f81611702565b905061060b565b5060009392505050565b6001600160a01b037f00000000000000000000000000000000000000000000000000000000000000001630036106c15760405162461bcd60e51b81526004016106b890611721565b60405180910390fd5b7f00000000000000000000000000000000000000000000000000000000000000006001600160a01b031661070a6000805160206118db833981519152546001600160a01b031690565b6001600160a01b0316146107305760405162461bcd60e51b81526004016106b89061176d565b61073981610ef5565b6040805160008082526020820190925261075591839190610efd565b50565b6001600160a01b037f00000000000000000000000000000000000000000000000000000000000000001630036107a05760405162461bcd60e51b81526004016106b890611721565b7f00000000000000000000000000000000000000000000000000000000000000006001600160a01b03166107e96000805160206118db833981519152546001600160a01b031690565b6001600160a01b03161461080f5760405162461bcd60e51b81526004016106b89061176d565b61081882610ef5565b61082482826001610efd565b5050565b6000306001600160a01b037f000000000000000000000000000000000000000000000000000000000000000016146108c85760405162461bcd60e51b815260206004820152603860248201527f555550535570677261646561626c653a206d757374206e6f742062652063616c60448201527f6c6564207468726f7567682064656c656761746563616c6c000000000000000060648201526084016106b8565b506000805160206118db83398151915290565b6108e3611068565b6108ed60006110c2565b565b600054610100900460ff161580801561090f5750600054600160ff909116105b806109295750303b158015610929575060005460ff166001145b61098c5760405162461bcd60e51b815260206004820152602e60248201527f496e697469616c697a61626c653a20636f6e747261637420697320616c72656160448201526d191e481a5b9a5d1a585b1a5e995960921b60648201526084016106b8565b6000805460ff1916600117905580156109af576000805461ff0019166101001790555b6109b7611114565b6109bf611143565b8015610755576000805461ff0019169055604051600181527f7f26b83ff96e1f2b6a682f133852f6798a09c465da95921460cefb38474024989060200160405180910390a150565b610a0f611068565b6001600160a01b03881615610a3a5760ca80546001600160a01b0319166001600160a01b038a161790555b6001600160a01b03871615610a655760ce80546001600160a01b0319166001600160a01b0389161790555b6001600160a01b03861615610a905760d180546001600160a01b0319166001600160a01b0388161790555b6001600160a01b03851615610abb5760d280546001600160a01b0319166001600160a01b0387161790555b6001600160a01b03841615610ae65760d480546001600160a01b0319166001600160a01b0386161790555b6001600160a01b03831615610b115760d580546001600160a01b0319166001600160a01b0385161790555b6001600160a01b03821615610b3c5760d680546001600160a01b0319166001600160a01b0384161790555b6001600160a01b03811615610b675760d780546001600160a01b0319166001600160a01b0383161790555b5050505050505050565b610b79611068565b6001600160a01b03861615610ba45760cb80546001600160a01b0319166001600160a01b0388161790555b6001600160a01b03851615610bcf5760cc80546001600160a01b0319166001600160a01b0387161790555b6001600160a01b03841615610bfa5760cd80546001600160a01b0319166001600160a01b0386161790555b6001600160a01b03831615610c255760d080546001600160a01b0319166001600160a01b0385161790555b6001600160a01b03821615610c505760cf80546001600160a01b0319166001600160a01b0384161790555b6001600160a01b03811615610c7b5760d380546001600160a01b0319166001600160a01b0383161790555b505050505050565b610c8b611068565b60005b61ffff8116821115610de75760005b60d85461ffff82161015610dd45760d88161ffff1681548110610cc257610cc26116d6565b6000918252602090912001546001600160a01b0316848461ffff8516818110610ced57610ced6116d6565b9050602002016020810190610d02919061144a565b6001600160a01b031603610dc25760d88054610d20906001906117b9565b81548110610d3057610d306116d6565b60009182526020909120015460d880546001600160a01b039092169161ffff8416908110610d6057610d606116d6565b9060005260206000200160006101000a8154816001600160a01b0302191690836001600160a01b0316021790555060d8805480610d9f57610d9f6117cc565b600082815260209020810160001990810180546001600160a01b03191690550190555b80610dcc816117e2565b915050610c9d565b5080610ddf816117e2565b915050610c8e565b505050565b610df4611068565b60c955565b610e01611068565b60005b60ff8116821115610de75760d883838360ff16818110610e2657610e266116d6565b9050602002016020810190610e3b919061144a565b81546001810183556000928352602090922090910180546001600160a01b0319166001600160a01b0390921691909117905580610e7781611702565b915050610e04565b610e87611068565b6001600160a01b038116610eec5760405162461bcd60e51b815260206004820152602660248201527f4f776e61626c653a206e6577206f776e657220697320746865207a65726f206160448201526564647265737360d01b60648201526084016106b8565b610755816110c2565b610755611068565b7f4910fdfa16fed3260ed0e7147f7cc6da11a60208b5b9406d12a635614ffd91435460ff1615610f3057610de78361116a565b826001600160a01b03166352d1902d6040518163ffffffff1660e01b8152600401602060405180830381865afa925050508015610f8a575060408051601f3d908101601f19168201909252610f8791810190611803565b60015b610fed5760405162461bcd60e51b815260206004820152602e60248201527f45524331393637557067726164653a206e657720696d706c656d656e7461746960448201526d6f6e206973206e6f74205555505360901b60648201526084016106b8565b6000805160206118db833981519152811461105c5760405162461bcd60e51b815260206004820152602960248201527f45524331393637557067726164653a20756e737570706f727465642070726f786044820152681a58589b195555525160ba1b60648201526084016106b8565b50610de7838383611206565b6033546001600160a01b031633146108ed5760405162461bcd60e51b815260206004820181905260248201527f4f776e61626c653a2063616c6c6572206973206e6f7420746865206f776e657260448201526064016106b8565b603380546001600160a01b038381166001600160a01b0319831681179093556040519116919082907f8be0079c531659141344cd1fd0a4f28419497f9722a3daafe3b4186f6b6457e090600090a35050565b600054610100900460ff1661113b5760405162461bcd60e51b81526004016106b89061181c565b6108ed611231565b600054610100900460ff166108ed5760405162461bcd60e51b81526004016106b89061181c565b6001600160a01b0381163b6111d75760405162461bcd60e51b815260206004820152602d60248201527f455243313936373a206e657720696d706c656d656e746174696f6e206973206e60448201526c1bdd08184818dbdb9d1c9858dd609a1b60648201526084016106b8565b6000805160206118db83398151915280546001600160a01b0319166001600160a01b0392909216919091179055565b61120f83611261565b60008251118061121c5750805b15610de75761122b83836112a1565b50505050565b600054610100900460ff166112585760405162461bcd60e51b81526004016106b89061181c565b6108ed336110c2565b61126a8161116a565b6040516001600160a01b038216907fbc7cd75a20ee27fd9adebab32041f755214dbc6bffa90cc0225b39da2e5c2d3b90600090a250565b60606001600160a01b0383163b6113095760405162461bcd60e51b815260206004820152602660248201527f416464726573733a2064656c65676174652063616c6c20746f206e6f6e2d636f6044820152651b9d1c9858dd60d21b60648201526084016106b8565b600080846001600160a01b031684604051611324919061188b565b600060405180830381855af49150503d806000811461135f576040519150601f19603f3d011682016040523d82523d6000602084013e611364565b606091505b509150915061138c82826040518060600160405280602781526020016118fb60279139611397565b925050505b92915050565b606083156113a65750816113b0565b6113b083836113b7565b9392505050565b8151156113c75781518083602001fd5b8060405162461bcd60e51b81526004016106b891906118a7565b6020808252825182820181905260009190848201906040850190845b818110156114225783516001600160a01b0316835292840192918401916001016113fd565b50909695505050505050565b80356001600160a01b038116811461144557600080fd5b919050565b60006020828403121561145c57600080fd5b6113b08261142e565b634e487b7160e01b600052604160045260246000fd5b6000806040838503121561148e57600080fd5b6114978361142e565b9150602083013567ffffffffffffffff808211156114b457600080fd5b818501915085601f8301126114c857600080fd5b8135818111156114da576114da611465565b604051601f8201601f19908116603f0116810190838211818310171561150257611502611465565b8160405282815288602084870101111561151b57600080fd5b8260208601602083013760006020848301015280955050505050509250929050565b600080600080600080600080610100898b03121561155a57600080fd5b6115638961142e565b975061157160208a0161142e565b965061157f60408a0161142e565b955061158d60608a0161142e565b945061159b60808a0161142e565b93506115a960a08a0161142e565b92506115b760c08a0161142e565b91506115c560e08a0161142e565b90509295985092959890939650565b60008060008060008060c087890312156115ed57600080fd5b6115f68761142e565b95506116046020880161142e565b94506116126040880161142e565b93506116206060880161142e565b925061162e6080880161142e565b915061163c60a0880161142e565b90509295509295509295565b6000806020838503121561165b57600080fd5b823567ffffffffffffffff8082111561167357600080fd5b818501915085601f83011261168757600080fd5b81358181111561169657600080fd5b8660208260051b85010111156116ab57600080fd5b60209290920196919550909350505050565b6000602082840312156116cf57600080fd5b5035919050565b634e487b7160e01b600052603260045260246000fd5b634e487b7160e01b600052601160045260246000fd5b600060ff821660ff8103611718576117186116ec565b60010192915050565b6020808252602c908201527f46756e6374696f6e206d7573742062652063616c6c6564207468726f7567682060408201526b19195b1959d85d1958d85b1b60a21b606082015260800190565b6020808252602c908201527f46756e6374696f6e206d7573742062652063616c6c6564207468726f7567682060408201526b6163746976652070726f787960a01b606082015260800190565b81810381811115611391576113916116ec565b634e487b7160e01b600052603160045260246000fd5b600061ffff8083168181036117f9576117f96116ec565b6001019392505050565b60006020828403121561181557600080fd5b5051919050565b6020808252602b908201527f496e697469616c697a61626c653a20636f6e7472616374206973206e6f74206960408201526a6e697469616c697a696e6760a81b606082015260800190565b60005b8381101561188257818101518382015260200161186a565b50506000910152565b6000825161189d818460208701611867565b9190910192915050565b60208152600082518060208401526118c6816040850160208701611867565b601f01601f1916919091016040019291505056fe360894a13ba1a3210667c828492db98dca3e2076cc3735a920a3ca505d382bbc416464726573733a206c6f772d6c6576656c2064656c65676174652063616c6c206661696c6564a2646970667358221220bdd68941eec0a5d5f452daea10721ba8e5d5f048277e1a6a4407dba8a78353cb64736f6c63430008110033",
  "linkReferences": {},
  "deployedLinkReferences": {}
}