{
  "_format": "hh-sol-artifact-1",
  "contractName": "VariablesUpgradeable",
  "sourceName": "contracts/VariablesUpgradeable.sol",
  "abi": [
    {
      "anonymous": false,
      "inputs": [
        {
          "indexed": false,
          "internalType": "address",
          "name": "previousAdmin",
          "type": "address"
        },
        {
          "indexed": false,
          "internalType": "address",
          "name": "newAdmin",
          "type": "address"
        }
      ],
      "name": "AdminChanged",
      "type": "event"
    },
    {
      "anonymous": false,
      "inputs": [
        {
          "indexed": true,
          "internalType": "address",
          "name": "beacon",
          "type": "address"
        }
      ],
      "name": "BeaconUpgraded",
      "type": "event"
    },
    {
      "anonymous": false,
      "inputs": [
        {
          "indexed": false,
          "internalType": "uint8",
          "name": "version",
          "type": "uint8"
        }
      ],
      "name": "Initialized",
      "type": "event"
    },
    {
      "anonymous": false,
      "inputs": [
        {
          "indexed": true,
          "internalType": "address",
          "name": "previousOwner",
          "type": "address"
        },
        {
          "indexed": true,
          "internalType": "address",
          "name": "newOwner",
          "type": "address"
        }
      ],
      "name": "OwnershipTransferred",
      "type": "event"
    },
    {
      "anonymous": false,
      "inputs": [
        {
          "indexed": true,
          "internalType": "address",
          "name": "implementation",
          "type": "address"
        }
      ],
      "name": "Upgraded",
      "type": "event"
    },
    {
      "inputs": [],
      "name": "adminFees",
      "outputs": [
        {
          "internalType": "uint256",
          "name": "",
          "type": "uint256"
        }
      ],
      "stateMutability": "view",
      "type": "function"
    },
    {
      "inputs": [],
      "name": "initialize",
      "outputs": [],
      "stateMutability": "nonpayable",
      "type": "function"
    },
    {
      "inputs": [],
      "name": "owner",
      "outputs": [
        {
          "internalType": "address",
          "name": "",
          "type": "address"
        }
      ],
      "stateMutability": "view",
      "type": "function"
    },
    {
      "inputs": [],
      "name": "presaleContract",
      "outputs": [
        {
          "internalType": "address",
          "name": "",
          "type": "address"
        }
      ],
      "stateMutability": "view",
      "type": "function"
    },
    {
      "inputs": [],
      "name": "proxiableUUID",
      "outputs": [
        {
          "internalType": "bytes32",
          "name": "",
          "type": "bytes32"
        }
      ],
      "stateMutability": "view",
      "type": "function"
    },
    {
      "inputs": [],
      "name": "referralContract",
      "outputs": [
        {
          "internalType": "address",
          "name": "",
          "type": "address"
        }
      ],
      "stateMutability": "view",
      "type": "function"
    },
    {
      "inputs": [],
      "name": "renounceOwnership",
      "outputs": [],
      "stateMutability": "nonpayable",
      "type": "function"
    },
    {
      "inputs": [],
      "name": "rewardContract",
      "outputs": [
        {
          "internalType": "address",
          "name": "",
          "type": "address"
        }
      ],
      "stateMutability": "view",
      "type": "function"
    },
    {
      "inputs": [],
      "name": "rewardContractOwner",
      "outputs": [
        {
          "internalType": "address",
          "name": "",
          "type": "address"
        }
      ],
      "stateMutability": "view",
      "type": "function"
    },
    {
      "inputs": [
        {
          "internalType": "uint256",
          "name": "_valueInWei",
          "type": "uint256"
        }
      ],
      "name": "setAdminFees",
      "outputs": [],
      "stateMutability": "nonpayable",
      "type": "function"
    },
    {
      "inputs": [
        {
          "internalType": "address",
          "name": "_presale",
          "type": "address"
        },
        {
          "internalType": "address",
          "name": "_referral",
          "type": "address"
        },
        {
          "internalType": "address",
          "name": "_staking",
          "type": "address"
        },
        {
          "internalType": "address",
          "name": "_token",
          "type": "address"
        },
        {
          "internalType": "address",
          "name": "_usdt",
          "type": "address"
        },
        {
          "internalType": "address",
          "name": "_uniswapRouter",
          "type": "address"
        },
        {
          "internalType": "address",
          "name": "_reward",
          "type": "address"
        }
      ],
      "name": "setContractAddress",
      "outputs": [],
      "stateMutability": "nonpayable",
      "type": "function"
    },
    {
      "inputs": [],
      "name": "stakingContract",
      "outputs": [
        {
          "internalType": "address",
          "name": "",
          "type": "address"
        }
      ],
      "stateMutability": "view",
      "type": "function"
    },
    {
      "inputs": [],
      "name": "tokenContract",
      "outputs": [
        {
          "internalType": "address",
          "name": "",
          "type": "address"
        }
      ],
      "stateMutability": "view",
      "type": "function"
    },
    {
      "inputs": [],
      "name": "tokenContractInfo",
      "outputs": [
        {
          "internalType": "address",
          "name": "tokenAddress",
          "type": "address"
        },
        {
          "internalType": "string",
          "name": "name",
          "type": "string"
        },
        {
          "internalType": "string",
          "name": "symbol",
          "type": "string"
        },
        {
          "internalType": "uint256",
          "name": "decimals",
          "type": "uint256"
        }
      ],
      "stateMutability": "view",
      "type": "function"
    },
    {
      "inputs": [],
      "name": "tokenContractOwner",
      "outputs": [
        {
          "internalType": "address",
          "name": "",
          "type": "address"
        }
      ],
      "stateMutability": "view",
      "type": "function"
    },
    {
      "inputs": [
        {
          "internalType": "address",
          "name": "newOwner",
          "type": "address"
        }
      ],
      "name": "transferOwnership",
      "outputs": [],
      "stateMutability": "nonpayable",
      "type": "function"
    },
    {
      "inputs": [],
      "name": "uniswapV2RouterContract",
      "outputs": [
        {
          "internalType": "address",
          "name": "",
          "type": "address"
        }
      ],
      "stateMutability": "view",
      "type": "function"
    },
    {
      "inputs": [
        {
          "internalType": "address",
          "name": "newImplementation",
          "type": "address"
        }
      ],
      "name": "upgradeTo",
      "outputs": [],
      "stateMutability": "nonpayable",
      "type": "function"
    },
    {
      "inputs": [
        {
          "internalType": "address",
          "name": "newImplementation",
          "type": "address"
        },
        {
          "internalType": "bytes",
          "name": "data",
          "type": "bytes"
        }
      ],
      "name": "upgradeToAndCall",
      "outputs": [],
      "stateMutability": "payable",
      "type": "function"
    },
    {
      "inputs": [],
      "name": "usdtContract",
      "outputs": [
        {
          "internalType": "address",
          "name": "",
          "type": "address"
        }
      ],
      "stateMutability": "view",
      "type": "function"
    },
    {
      "inputs": [],
      "name": "variableContract",
      "outputs": [
        {
          "internalType": "address",
          "name": "",
          "type": "address"
        }
      ],
      "stateMutability": "view",
      "type": "function"
    }
  ],
  "bytecode": "0x60a06040523060805234801561001457600080fd5b5060805161140961004c600039600081816104e701528181610530015281816105cf0152818161060f01526106a201526114096000f3fe60806040526004361061012a5760003560e01c8063715018a6116100ab5780638da5cb5b1161006f5780638da5cb5b146102f2578063a50b44bc14610310578063b0616c1814610323578063ec31250f14610343578063ee99205c14610361578063f2fde38b1461037f57600080fd5b8063715018a6146102675780637dad19db1461027c5780638129fc1c1461029a5780638290c4a6146102af578063878e17df146102cd57600080fd5b806352d1902d116100f257806352d1902d146101da57806355a373d6146101ef578063611509231461020d57806363d9df851461022b5780636ea69d621461024957600080fd5b80630678cc101461012f5780633659cfe61461015157806345746dd7146101715780634bc92d6c146101a85780634f1ef286146101c7575b600080fd5b34801561013b57600080fd5b5061014f61014a366004610fa1565b61039f565b005b34801561015d57600080fd5b5061014f61016c366004611027565b6104dd565b34801561017d57600080fd5b5060d1546001600160a01b03165b6040516001600160a01b0390911681526020015b60405180910390f35b3480156101b457600080fd5b5060d2545b60405190815260200161019f565b61014f6101d53660046110b1565b6105c5565b3480156101e657600080fd5b506101b9610695565b3480156101fb57600080fd5b5060cc546001600160a01b031661018b565b34801561021957600080fd5b5060cd546001600160a01b031661018b565b34801561023757600080fd5b5060c9546001600160a01b031661018b565b34801561025557600080fd5b5060ce546001600160a01b031661018b565b34801561027357600080fd5b5061014f610748565b34801561028857600080fd5b5060ca546001600160a01b031661018b565b3480156102a657600080fd5b5061014f61075c565b3480156102bb57600080fd5b5060cf546001600160a01b031661018b565b3480156102d957600080fd5b506102e261089a565b60405161019f9493929190611192565b3480156102fe57600080fd5b506033546001600160a01b031661018b565b34801561031c57600080fd5b503061018b565b34801561032f57600080fd5b5061014f61033e3660046111da565b610a13565b34801561034f57600080fd5b5060d0546001600160a01b031661018b565b34801561036d57600080fd5b5060cb546001600160a01b031661018b565b34801561038b57600080fd5b5061014f61039a366004611027565b610a20565b6103a7610a96565b6001600160a01b038716156103d25760c980546001600160a01b0319166001600160a01b0389161790555b6001600160a01b038616156103fd5760ca80546001600160a01b0319166001600160a01b0388161790555b6001600160a01b038516156104285760cb80546001600160a01b0319166001600160a01b0387161790555b6001600160a01b038416156104535760cc80546001600160a01b0319166001600160a01b0386161790555b6001600160a01b0383161561047e5760cd80546001600160a01b0319166001600160a01b0385161790555b6001600160a01b038216156104a95760cf80546001600160a01b0319166001600160a01b0384161790555b6001600160a01b038116156104d45760ce80546001600160a01b0319166001600160a01b0383161790555b50505050505050565b6001600160a01b037f000000000000000000000000000000000000000000000000000000000000000016300361052e5760405162461bcd60e51b8152600401610525906111f3565b60405180910390fd5b7f00000000000000000000000000000000000000000000000000000000000000006001600160a01b031661057760008051602061138d833981519152546001600160a01b031690565b6001600160a01b03161461059d5760405162461bcd60e51b81526004016105259061123f565b6105a681610af0565b604080516000808252602082019092526105c291839190610af8565b50565b6001600160a01b037f000000000000000000000000000000000000000000000000000000000000000016300361060d5760405162461bcd60e51b8152600401610525906111f3565b7f00000000000000000000000000000000000000000000000000000000000000006001600160a01b031661065660008051602061138d833981519152546001600160a01b031690565b6001600160a01b03161461067c5760405162461bcd60e51b81526004016105259061123f565b61068582610af0565b61069182826001610af8565b5050565b6000306001600160a01b037f000000000000000000000000000000000000000000000000000000000000000016146107355760405162461bcd60e51b815260206004820152603860248201527f555550535570677261646561626c653a206d757374206e6f742062652063616c60448201527f6c6564207468726f7567682064656c656761746563616c6c00000000000000006064820152608401610525565b5060008051602061138d83398151915290565b610750610a96565b61075a6000610c68565b565b600054610100900460ff161580801561077c5750600054600160ff909116105b806107965750303b158015610796575060005460ff166001145b6107f95760405162461bcd60e51b815260206004820152602e60248201527f496e697469616c697a61626c653a20636f6e747261637420697320616c72656160448201526d191e481a5b9a5d1a585b1a5e995960921b6064820152608401610525565b6000805460ff19166001179055801561081c576000805461ff0019166101001790555b60ca80546001600160a01b03191673e82d70137fc7f16dbbb9ef2d6902748e47ccaef217905561084a610cba565b610852610ce9565b80156105c2576000805461ff0019169055604051600181527f7f26b83ff96e1f2b6a682f133852f6798a09c465da95921460cefb38474024989060200160405180910390a150565b60cc54604080516306fdde0360e01b815290516001600160a01b0390921691606091829160009185916306fdde039160048082019286929091908290030181865afa1580156108ed573d6000803e3d6000fd5b505050506040513d6000823e601f3d908101601f19168201604052610915919081019061128b565b925060cc60009054906101000a90046001600160a01b03166001600160a01b03166395d89b416040518163ffffffff1660e01b8152600401600060405180830381865afa15801561096a573d6000803e3d6000fd5b505050506040513d6000823e601f3d908101601f19168201604052610992919081019061128b565b915060cc60009054906101000a90046001600160a01b03166001600160a01b031663313ce5676040518163ffffffff1660e01b8152600401602060405180830381865afa1580156109e7573d6000803e3d6000fd5b505050506040513d601f19601f82011682018060405250810190610a0b91906112f9565b905090919293565b610a1b610a96565b60d255565b610a28610a96565b6001600160a01b038116610a8d5760405162461bcd60e51b815260206004820152602660248201527f4f776e61626c653a206e6577206f776e657220697320746865207a65726f206160448201526564647265737360d01b6064820152608401610525565b6105c281610c68565b6033546001600160a01b0316331461075a5760405162461bcd60e51b815260206004820181905260248201527f4f776e61626c653a2063616c6c6572206973206e6f7420746865206f776e65726044820152606401610525565b6105c2610a96565b7f4910fdfa16fed3260ed0e7147f7cc6da11a60208b5b9406d12a635614ffd91435460ff1615610b3057610b2b83610d10565b505050565b826001600160a01b03166352d1902d6040518163ffffffff1660e01b8152600401602060405180830381865afa925050508015610b8a575060408051601f3d908101601f19168201909252610b87918101906112f9565b60015b610bed5760405162461bcd60e51b815260206004820152602e60248201527f45524331393637557067726164653a206e657720696d706c656d656e7461746960448201526d6f6e206973206e6f74205555505360901b6064820152608401610525565b60008051602061138d8339815191528114610c5c5760405162461bcd60e51b815260206004820152602960248201527f45524331393637557067726164653a20756e737570706f727465642070726f786044820152681a58589b195555525160ba1b6064820152608401610525565b50610b2b838383610dac565b603380546001600160a01b038381166001600160a01b0319831681179093556040519116919082907f8be0079c531659141344cd1fd0a4f28419497f9722a3daafe3b4186f6b6457e090600090a35050565b600054610100900460ff16610ce15760405162461bcd60e51b815260040161052590611312565b61075a610dd7565b600054610100900460ff1661075a5760405162461bcd60e51b815260040161052590611312565b6001600160a01b0381163b610d7d5760405162461bcd60e51b815260206004820152602d60248201527f455243313936373a206e657720696d706c656d656e746174696f6e206973206e60448201526c1bdd08184818dbdb9d1c9858dd609a1b6064820152608401610525565b60008051602061138d83398151915280546001600160a01b0319166001600160a01b0392909216919091179055565b610db583610e07565b600082511180610dc25750805b15610b2b57610dd18383610e47565b50505050565b600054610100900460ff16610dfe5760405162461bcd60e51b815260040161052590611312565b61075a33610c68565b610e1081610d10565b6040516001600160a01b038216907fbc7cd75a20ee27fd9adebab32041f755214dbc6bffa90cc0225b39da2e5c2d3b90600090a250565b60606001600160a01b0383163b610eaf5760405162461bcd60e51b815260206004820152602660248201527f416464726573733a2064656c65676174652063616c6c20746f206e6f6e2d636f6044820152651b9d1c9858dd60d21b6064820152608401610525565b600080846001600160a01b031684604051610eca919061135d565b600060405180830381855af49150503d8060008114610f05576040519150601f19603f3d011682016040523d82523d6000602084013e610f0a565b606091505b5091509150610f3282826040518060600160405280602781526020016113ad60279139610f3b565b95945050505050565b60608315610f4a575081610f54565b610f548383610f5b565b9392505050565b815115610f6b5781518083602001fd5b8060405162461bcd60e51b81526004016105259190611379565b80356001600160a01b0381168114610f9c57600080fd5b919050565b600080600080600080600060e0888a031215610fbc57600080fd5b610fc588610f85565b9650610fd360208901610f85565b9550610fe160408901610f85565b9450610fef60608901610f85565b9350610ffd60808901610f85565b925061100b60a08901610f85565b915061101960c08901610f85565b905092959891949750929550565b60006020828403121561103957600080fd5b610f5482610f85565b634e487b7160e01b600052604160045260246000fd5b604051601f8201601f1916810167ffffffffffffffff8111828210171561108157611081611042565b604052919050565b600067ffffffffffffffff8211156110a3576110a3611042565b50601f01601f191660200190565b600080604083850312156110c457600080fd5b6110cd83610f85565b9150602083013567ffffffffffffffff8111156110e957600080fd5b8301601f810185136110fa57600080fd5b803561110d61110882611089565b611058565b81815286602083850101111561112257600080fd5b816020840160208301376000602083830101528093505050509250929050565b60005b8381101561115d578181015183820152602001611145565b50506000910152565b6000815180845261117e816020860160208601611142565b601f01601f19169290920160200192915050565b6001600160a01b03851681526080602082018190526000906111b690830186611166565b82810360408401526111c88186611166565b91505082606083015295945050505050565b6000602082840312156111ec57600080fd5b5035919050565b6020808252602c908201527f46756e6374696f6e206d7573742062652063616c6c6564207468726f7567682060408201526b19195b1959d85d1958d85b1b60a21b606082015260800190565b6020808252602c908201527f46756e6374696f6e206d7573742062652063616c6c6564207468726f7567682060408201526b6163746976652070726f787960a01b606082015260800190565b60006020828403121561129d57600080fd5b815167ffffffffffffffff8111156112b457600080fd5b8201601f810184136112c557600080fd5b80516112d361110882611089565b8181528560208385010111156112e857600080fd5b610f32826020830160208601611142565b60006020828403121561130b57600080fd5b5051919050565b6020808252602b908201527f496e697469616c697a61626c653a20636f6e7472616374206973206e6f74206960408201526a6e697469616c697a696e6760a81b606082015260800190565b6000825161136f818460208701611142565b9190910192915050565b602081526000610f54602083018461116656fe360894a13ba1a3210667c828492db98dca3e2076cc3735a920a3ca505d382bbc416464726573733a206c6f772d6c6576656c2064656c65676174652063616c6c206661696c6564a26469706673582212204ed88aabb8ee92054f12e55d771579e30a429e034f19c992f380a8a2b2bddb2864736f6c63430008110033",
  "linkReferences": {},
  "deployedLinkReferences": {}
}