{
  "_format": "hh-sol-artifact-1",
  "contractName": "VariablesUpgradeable",
  "sourceName": "contracts/VariablesUpgradeable.sol",
  "abi": [
    {
      "anonymous": false,
      "inputs": [
        {
          "indexed": false,
          "internalType": "address",
          "name": "previousAdmin",
          "type": "address"
        },
        {
          "indexed": false,
          "internalType": "address",
          "name": "newAdmin",
          "type": "address"
        }
      ],
      "name": "AdminChanged",
      "type": "event"
    },
    {
      "anonymous": false,
      "inputs": [
        {
          "indexed": true,
          "internalType": "address",
          "name": "beacon",
          "type": "address"
        }
      ],
      "name": "BeaconUpgraded",
      "type": "event"
    },
    {
      "anonymous": false,
      "inputs": [
        {
          "indexed": false,
          "internalType": "uint8",
          "name": "version",
          "type": "uint8"
        }
      ],
      "name": "Initialized",
      "type": "event"
    },
    {
      "anonymous": false,
      "inputs": [
        {
          "indexed": true,
          "internalType": "address",
          "name": "previousOwner",
          "type": "address"
        },
        {
          "indexed": true,
          "internalType": "address",
          "name": "newOwner",
          "type": "address"
        }
      ],
      "name": "OwnershipTransferred",
      "type": "event"
    },
    {
      "anonymous": false,
      "inputs": [
        {
          "indexed": true,
          "internalType": "address",
          "name": "implementation",
          "type": "address"
        }
      ],
      "name": "Upgraded",
      "type": "event"
    },
    {
      "inputs": [],
      "name": "adminFees",
      "outputs": [
        {
          "internalType": "uint256",
          "name": "",
          "type": "uint256"
        }
      ],
      "stateMutability": "view",
      "type": "function"
    },
    {
      "inputs": [],
      "name": "initialize",
      "outputs": [],
      "stateMutability": "nonpayable",
      "type": "function"
    },
    {
      "inputs": [],
      "name": "owner",
      "outputs": [
        {
          "internalType": "address",
          "name": "",
          "type": "address"
        }
      ],
      "stateMutability": "view",
      "type": "function"
    },
    {
      "inputs": [],
      "name": "presaleContract",
      "outputs": [
        {
          "internalType": "address",
          "name": "",
          "type": "address"
        }
      ],
      "stateMutability": "view",
      "type": "function"
    },
    {
      "inputs": [],
      "name": "proxiableUUID",
      "outputs": [
        {
          "internalType": "bytes32",
          "name": "",
          "type": "bytes32"
        }
      ],
      "stateMutability": "view",
      "type": "function"
    },
    {
      "inputs": [],
      "name": "referralContract",
      "outputs": [
        {
          "internalType": "address",
          "name": "",
          "type": "address"
        }
      ],
      "stateMutability": "view",
      "type": "function"
    },
    {
      "inputs": [],
      "name": "renounceOwnership",
      "outputs": [],
      "stateMutability": "nonpayable",
      "type": "function"
    },
    {
      "inputs": [],
      "name": "rewardContract",
      "outputs": [
        {
          "internalType": "address",
          "name": "",
          "type": "address"
        }
      ],
      "stateMutability": "view",
      "type": "function"
    },
    {
      "inputs": [],
      "name": "rewardContractOwner",
      "outputs": [
        {
          "internalType": "address",
          "name": "",
          "type": "address"
        }
      ],
      "stateMutability": "view",
      "type": "function"
    },
    {
      "inputs": [
        {
          "internalType": "uint256",
          "name": "_valueInWei",
          "type": "uint256"
        }
      ],
      "name": "setAdminFees",
      "outputs": [],
      "stateMutability": "nonpayable",
      "type": "function"
    },
    {
      "inputs": [
        {
          "internalType": "address",
          "name": "_presale",
          "type": "address"
        },
        {
          "internalType": "address",
          "name": "_referral",
          "type": "address"
        },
        {
          "internalType": "address",
          "name": "_staking",
          "type": "address"
        },
        {
          "internalType": "address",
          "name": "_token",
          "type": "address"
        },
        {
          "internalType": "address",
          "name": "_usdt",
          "type": "address"
        },
        {
          "internalType": "address",
          "name": "_uniswapRouter",
          "type": "address"
        },
        {
          "internalType": "address",
          "name": "_reward",
          "type": "address"
        }
      ],
      "name": "setContractAddress",
      "outputs": [],
      "stateMutability": "nonpayable",
      "type": "function"
    },
    {
      "inputs": [],
      "name": "stakingContract",
      "outputs": [
        {
          "internalType": "address",
          "name": "",
          "type": "address"
        }
      ],
      "stateMutability": "view",
      "type": "function"
    },
    {
      "inputs": [],
      "name": "tokenContract",
      "outputs": [
        {
          "internalType": "address",
          "name": "",
          "type": "address"
        }
      ],
      "stateMutability": "view",
      "type": "function"
    },
    {
      "inputs": [],
      "name": "tokenContractInfo",
      "outputs": [
        {
          "internalType": "address",
          "name": "tokenAddress",
          "type": "address"
        },
        {
          "internalType": "string",
          "name": "name",
          "type": "string"
        },
        {
          "internalType": "string",
          "name": "symbol",
          "type": "string"
        },
        {
          "internalType": "uint256",
          "name": "decimals",
          "type": "uint256"
        }
      ],
      "stateMutability": "view",
      "type": "function"
    },
    {
      "inputs": [],
      "name": "tokenContractOwner",
      "outputs": [
        {
          "internalType": "address",
          "name": "",
          "type": "address"
        }
      ],
      "stateMutability": "view",
      "type": "function"
    },
    {
      "inputs": [
        {
          "internalType": "address",
          "name": "newOwner",
          "type": "address"
        }
      ],
      "name": "transferOwnership",
      "outputs": [],
      "stateMutability": "nonpayable",
      "type": "function"
    },
    {
      "inputs": [],
      "name": "uniswapV2RouterContract",
      "outputs": [
        {
          "internalType": "address",
          "name": "",
          "type": "address"
        }
      ],
      "stateMutability": "view",
      "type": "function"
    },
    {
      "inputs": [
        {
          "internalType": "address",
          "name": "newImplementation",
          "type": "address"
        }
      ],
      "name": "upgradeTo",
      "outputs": [],
      "stateMutability": "nonpayable",
      "type": "function"
    },
    {
      "inputs": [
        {
          "internalType": "address",
          "name": "newImplementation",
          "type": "address"
        },
        {
          "internalType": "bytes",
          "name": "data",
          "type": "bytes"
        }
      ],
      "name": "upgradeToAndCall",
      "outputs": [],
      "stateMutability": "payable",
      "type": "function"
    },
    {
      "inputs": [],
      "name": "usdtContract",
      "outputs": [
        {
          "internalType": "address",
          "name": "",
          "type": "address"
        }
      ],
      "stateMutability": "view",
      "type": "function"
    },
    {
      "inputs": [],
      "name": "variableContract",
      "outputs": [
        {
          "internalType": "address",
          "name": "",
          "type": "address"
        }
      ],
      "stateMutability": "view",
      "type": "function"
    }
  ],
  "bytecode": "0x60a06040523060805234801561001457600080fd5b506080516113e061004c600039600081816104c70152818161051001528181610598015281816105d8015261065401526113e06000f3fe60806040526004361061010a5760003560e01c8063715018a61161009b578063715018a6146102475780637dad19db1461025c5780638129fc1c1461027a5780638290c4a61461028f578063878e17df146102ad5780638da5cb5b146102d2578063a50b44bc146102f0578063b0616c1814610303578063ec31250f14610323578063ee99205c14610341578063f2fde38b1461035f57600080fd5b80630678cc101461010f5780633659cfe61461013157806345746dd7146101515780634bc92d6c146101885780634f1ef286146101a757806352d1902d146101ba57806355a373d6146101cf57806361150923146101ed57806363d9df851461020b5780636ea69d6214610229575b600080fd5b34801561011b57600080fd5b5061012f61012a366004610f7c565b61037f565b005b34801561013d57600080fd5b5061012f61014c366004611002565b6104bd565b34801561015d57600080fd5b5060d1546001600160a01b03165b6040516001600160a01b0390911681526020015b60405180910390f35b34801561019457600080fd5b5060d2545b60405190815260200161017f565b61012f6101b536600461108a565b61058e565b3480156101c657600080fd5b50610199610647565b3480156101db57600080fd5b5060cc546001600160a01b031661016b565b3480156101f957600080fd5b5060cd546001600160a01b031661016b565b34801561021757600080fd5b5060c9546001600160a01b031661016b565b34801561023557600080fd5b5060ce546001600160a01b031661016b565b34801561025357600080fd5b5061012f6106f5565b34801561026857600080fd5b5060ca546001600160a01b031661016b565b34801561028657600080fd5b5061012f610709565b34801561029b57600080fd5b5060cf546001600160a01b031661016b565b3480156102b957600080fd5b506102c261084e565b60405161017f949392919061116a565b3480156102de57600080fd5b506033546001600160a01b031661016b565b3480156102fc57600080fd5b503061016b565b34801561030f57600080fd5b5061012f61031e3660046111b2565b6109c7565b34801561032f57600080fd5b5060d0546001600160a01b031661016b565b34801561034d57600080fd5b5060cb546001600160a01b031661016b565b34801561036b57600080fd5b5061012f61037a366004611002565b6109d4565b610387610a4a565b6001600160a01b038716156103b25760c980546001600160a01b0319166001600160a01b0389161790555b6001600160a01b038616156103dd5760ca80546001600160a01b0319166001600160a01b0388161790555b6001600160a01b038516156104085760cb80546001600160a01b0319166001600160a01b0387161790555b6001600160a01b038416156104335760cc80546001600160a01b0319166001600160a01b0386161790555b6001600160a01b0383161561045e5760cd80546001600160a01b0319166001600160a01b0385161790555b6001600160a01b038216156104895760cf80546001600160a01b0319166001600160a01b0384161790555b6001600160a01b038116156104b45760ce80546001600160a01b0319166001600160a01b0383161790555b50505050505050565b6001600160a01b037f000000000000000000000000000000000000000000000000000000000000000016300361050e5760405162461bcd60e51b8152600401610505906111cb565b60405180910390fd5b7f00000000000000000000000000000000000000000000000000000000000000006001600160a01b0316610540610aa4565b6001600160a01b0316146105665760405162461bcd60e51b815260040161050590611217565b61056f81610ac0565b6040805160008082526020820190925261058b91839190610ac8565b50565b6001600160a01b037f00000000000000000000000000000000000000000000000000000000000000001630036105d65760405162461bcd60e51b8152600401610505906111cb565b7f00000000000000000000000000000000000000000000000000000000000000006001600160a01b0316610608610aa4565b6001600160a01b03161461062e5760405162461bcd60e51b815260040161050590611217565b61063782610ac0565b61064382826001610ac8565b5050565b6000306001600160a01b037f000000000000000000000000000000000000000000000000000000000000000016146106e25760405162461bcd60e51b815260206004820152603860248201527f555550535570677261646561626c653a206d757374206e6f742062652063616c6044820152771b1959081d1a1c9bdd59da0819195b1959d85d1958d85b1b60421b6064820152608401610505565b5060008051602061136483398151915290565b6106fd610a4a565b6107076000610c38565b565b600054610100900460ff16158080156107295750600054600160ff909116105b8061074a575061073830610c8a565b15801561074a575060005460ff166001145b6107ad5760405162461bcd60e51b815260206004820152602e60248201527f496e697469616c697a61626c653a20636f6e747261637420697320616c72656160448201526d191e481a5b9a5d1a585b1a5e995960921b6064820152608401610505565b6000805460ff1916600117905580156107d0576000805461ff0019166101001790555b60ca80546001600160a01b03191673e82d70137fc7f16dbbb9ef2d6902748e47ccaef21790556107fe610c99565b610806610cc8565b801561058b576000805461ff0019169055604051600181527f7f26b83ff96e1f2b6a682f133852f6798a09c465da95921460cefb38474024989060200160405180910390a150565b60cc54604080516306fdde0360e01b815290516001600160a01b0390921691606091829160009185916306fdde039160048082019286929091908290030181865afa1580156108a1573d6000803e3d6000fd5b505050506040513d6000823e601f3d908101601f191682016040526108c99190810190611263565b925060cc60009054906101000a90046001600160a01b03166001600160a01b03166395d89b416040518163ffffffff1660e01b8152600401600060405180830381865afa15801561091e573d6000803e3d6000fd5b505050506040513d6000823e601f3d908101601f191682016040526109469190810190611263565b915060cc60009054906101000a90046001600160a01b03166001600160a01b031663313ce5676040518163ffffffff1660e01b8152600401602060405180830381865afa15801561099b573d6000803e3d6000fd5b505050506040513d601f19601f820116820180604052508101906109bf91906112d0565b905090919293565b6109cf610a4a565b60d255565b6109dc610a4a565b6001600160a01b038116610a415760405162461bcd60e51b815260206004820152602660248201527f4f776e61626c653a206e6577206f776e657220697320746865207a65726f206160448201526564647265737360d01b6064820152608401610505565b61058b81610c38565b6033546001600160a01b031633146107075760405162461bcd60e51b815260206004820181905260248201527f4f776e61626c653a2063616c6c6572206973206e6f7420746865206f776e65726044820152606401610505565b600080516020611364833981519152546001600160a01b031690565b61058b610a4a565b7f4910fdfa16fed3260ed0e7147f7cc6da11a60208b5b9406d12a635614ffd91435460ff1615610b0057610afb83610cef565b505050565b826001600160a01b03166352d1902d6040518163ffffffff1660e01b8152600401602060405180830381865afa925050508015610b5a575060408051601f3d908101601f19168201909252610b57918101906112d0565b60015b610bbd5760405162461bcd60e51b815260206004820152602e60248201527f45524331393637557067726164653a206e657720696d706c656d656e7461746960448201526d6f6e206973206e6f74205555505360901b6064820152608401610505565b6000805160206113648339815191528114610c2c5760405162461bcd60e51b815260206004820152602960248201527f45524331393637557067726164653a20756e737570706f727465642070726f786044820152681a58589b195555525160ba1b6064820152608401610505565b50610afb838383610d89565b603380546001600160a01b038381166001600160a01b0319831681179093556040519116919082907f8be0079c531659141344cd1fd0a4f28419497f9722a3daafe3b4186f6b6457e090600090a35050565b6001600160a01b03163b151590565b600054610100900460ff16610cc05760405162461bcd60e51b8152600401610505906112e9565b610707610db4565b600054610100900460ff166107075760405162461bcd60e51b8152600401610505906112e9565b610cf881610c8a565b610d5a5760405162461bcd60e51b815260206004820152602d60248201527f455243313936373a206e657720696d706c656d656e746174696f6e206973206e60448201526c1bdd08184818dbdb9d1c9858dd609a1b6064820152608401610505565b60008051602061136483398151915280546001600160a01b0319166001600160a01b0392909216919091179055565b610d9283610de4565b600082511180610d9f5750805b15610afb57610dae8383610e24565b50505050565b600054610100900460ff16610ddb5760405162461bcd60e51b8152600401610505906112e9565b61070733610c38565b610ded81610cef565b6040516001600160a01b038216907fbc7cd75a20ee27fd9adebab32041f755214dbc6bffa90cc0225b39da2e5c2d3b90600090a250565b6060610e2f83610c8a565b610e8a5760405162461bcd60e51b815260206004820152602660248201527f416464726573733a2064656c65676174652063616c6c20746f206e6f6e2d636f6044820152651b9d1c9858dd60d21b6064820152608401610505565b600080846001600160a01b031684604051610ea59190611334565b600060405180830381855af49150503d8060008114610ee0576040519150601f19603f3d011682016040523d82523d6000602084013e610ee5565b606091505b5091509150610f0d828260405180606001604052806027815260200161138460279139610f16565b95945050505050565b60608315610f25575081610f2f565b610f2f8383610f36565b9392505050565b815115610f465781518083602001fd5b8060405162461bcd60e51b81526004016105059190611350565b80356001600160a01b0381168114610f7757600080fd5b919050565b600080600080600080600060e0888a031215610f9757600080fd5b610fa088610f60565b9650610fae60208901610f60565b9550610fbc60408901610f60565b9450610fca60608901610f60565b9350610fd860808901610f60565b9250610fe660a08901610f60565b9150610ff460c08901610f60565b905092959891949750929550565b60006020828403121561101457600080fd5b610f2f82610f60565b634e487b7160e01b600052604160045260246000fd5b604051601f8201601f191681016001600160401b038111828210171561105b5761105b61101d565b604052919050565b60006001600160401b0382111561107c5761107c61101d565b50601f01601f191660200190565b6000806040838503121561109d57600080fd5b6110a683610f60565b915060208301356001600160401b038111156110c157600080fd5b8301601f810185136110d257600080fd5b80356110e56110e082611063565b611033565b8181528660208385010111156110fa57600080fd5b816020840160208301376000602083830101528093505050509250929050565b60005b8381101561113557818101518382015260200161111d565b50506000910152565b6000815180845261115681602086016020860161111a565b601f01601f19169290920160200192915050565b6001600160a01b038516815260806020820181905260009061118e9083018661113e565b82810360408401526111a0818661113e565b91505082606083015295945050505050565b6000602082840312156111c457600080fd5b5035919050565b6020808252602c908201527f46756e6374696f6e206d7573742062652063616c6c6564207468726f7567682060408201526b19195b1959d85d1958d85b1b60a21b606082015260800190565b6020808252602c908201527f46756e6374696f6e206d7573742062652063616c6c6564207468726f7567682060408201526b6163746976652070726f787960a01b606082015260800190565b60006020828403121561127557600080fd5b81516001600160401b0381111561128b57600080fd5b8201601f8101841361129c57600080fd5b80516112aa6110e082611063565b8181528560208385010111156112bf57600080fd5b610f0d82602083016020860161111a565b6000602082840312156112e257600080fd5b5051919050565b6020808252602b908201527f496e697469616c697a61626c653a20636f6e7472616374206973206e6f74206960408201526a6e697469616c697a696e6760a81b606082015260800190565b6000825161134681846020870161111a565b9190910192915050565b602081526000610f2f602083018461113e56fe360894a13ba1a3210667c828492db98dca3e2076cc3735a920a3ca505d382bbc416464726573733a206c6f772d6c6576656c2064656c65676174652063616c6c206661696c6564a2646970667358221220d02ebdef77a1be7b9f4f7846c6d8847335002c733f21be9d6ec1a1ab2d94d3c964736f6c63430008110033",
  "linkReferences": {},
  "deployedLinkReferences": {}
}