{
  "_format": "hh-sol-artifact-1",
  "contractName": "FutureSecureWalletV1Upgradeable",
  "sourceName": "contracts/FutureSecureWalletUpgradeable.sol",
  "abi": [
    {
      "anonymous": false,
      "inputs": [
        {
          "indexed": false,
          "internalType": "address",
          "name": "previousAdmin",
          "type": "address"
        },
        {
          "indexed": false,
          "internalType": "address",
          "name": "newAdmin",
          "type": "address"
        }
      ],
      "name": "AdminChanged",
      "type": "event"
    },
    {
      "anonymous": false,
      "inputs": [
        {
          "indexed": true,
          "internalType": "address",
          "name": "beacon",
          "type": "address"
        }
      ],
      "name": "BeaconUpgraded",
      "type": "event"
    },
    {
      "anonymous": false,
      "inputs": [
        {
          "indexed": true,
          "internalType": "address",
          "name": "userAddress",
          "type": "address"
        },
        {
          "indexed": true,
          "internalType": "uint256",
          "name": "value",
          "type": "uint256"
        },
        {
          "indexed": true,
          "internalType": "uint256",
          "name": "stakingID",
          "type": "uint256"
        }
      ],
      "name": "IDUnStaked",
      "type": "event"
    },
    {
      "anonymous": false,
      "inputs": [
        {
          "indexed": false,
          "internalType": "uint8",
          "name": "version",
          "type": "uint8"
        }
      ],
      "name": "Initialized",
      "type": "event"
    },
    {
      "anonymous": false,
      "inputs": [
        {
          "indexed": true,
          "internalType": "address",
          "name": "previousOwner",
          "type": "address"
        },
        {
          "indexed": true,
          "internalType": "address",
          "name": "newOwner",
          "type": "address"
        }
      ],
      "name": "OwnershipTransferred",
      "type": "event"
    },
    {
      "anonymous": false,
      "inputs": [
        {
          "indexed": false,
          "internalType": "address",
          "name": "account",
          "type": "address"
        }
      ],
      "name": "Paused",
      "type": "event"
    },
    {
      "anonymous": false,
      "inputs": [
        {
          "indexed": true,
          "internalType": "address",
          "name": "userAddress",
          "type": "address"
        },
        {
          "indexed": false,
          "internalType": "uint256",
          "name": "amount",
          "type": "uint256"
        }
      ],
      "name": "PrincipalClaimed",
      "type": "event"
    },
    {
      "anonymous": false,
      "inputs": [
        {
          "indexed": true,
          "internalType": "address",
          "name": "userAddress",
          "type": "address"
        },
        {
          "indexed": true,
          "internalType": "uint256",
          "name": "valueStaked",
          "type": "uint256"
        },
        {
          "indexed": true,
          "internalType": "uint256",
          "name": "duration",
          "type": "uint256"
        },
        {
          "indexed": false,
          "internalType": "uint256",
          "name": "stakingID",
          "type": "uint256"
        }
      ],
      "name": "Stake",
      "type": "event"
    },
    {
      "anonymous": false,
      "inputs": [
        {
          "indexed": true,
          "internalType": "address",
          "name": "userAddress",
          "type": "address"
        },
        {
          "indexed": true,
          "internalType": "uint256",
          "name": "reward",
          "type": "uint256"
        }
      ],
      "name": "StakingRewardClaimed",
      "type": "event"
    },
    {
      "anonymous": false,
      "inputs": [
        {
          "indexed": true,
          "internalType": "address",
          "name": "userAddress",
          "type": "address"
        },
        {
          "indexed": true,
          "internalType": "uint256",
          "name": "value",
          "type": "uint256"
        }
      ],
      "name": "UnStaked",
      "type": "event"
    },
    {
      "anonymous": false,
      "inputs": [
        {
          "indexed": false,
          "internalType": "address",
          "name": "account",
          "type": "address"
        }
      ],
      "name": "Unpaused",
      "type": "event"
    },
    {
      "anonymous": false,
      "inputs": [
        {
          "indexed": true,
          "internalType": "address",
          "name": "implementation",
          "type": "address"
        }
      ],
      "name": "Upgraded",
      "type": "event"
    },
    {
      "inputs": [],
      "name": "activeStakersList",
      "outputs": [
        {
          "internalType": "address[]",
          "name": "",
          "type": "address[]"
        }
      ],
      "stateMutability": "view",
      "type": "function"
    },
    {
      "inputs": [
        {
          "internalType": "uint256",
          "name": "",
          "type": "uint256"
        }
      ],
      "name": "admins",
      "outputs": [
        {
          "internalType": "address",
          "name": "",
          "type": "address"
        }
      ],
      "stateMutability": "view",
      "type": "function"
    },
    {
      "inputs": [],
      "name": "allStakersList",
      "outputs": [
        {
          "internalType": "address[]",
          "name": "",
          "type": "address[]"
        }
      ],
      "stateMutability": "view",
      "type": "function"
    },
    {
      "inputs": [],
      "name": "claimStakingReward",
      "outputs": [],
      "stateMutability": "nonpayable",
      "type": "function"
    },
    {
      "inputs": [
        {
          "internalType": "address[]",
          "name": "_userAddress",
          "type": "address[]"
        }
      ],
      "name": "disableAccounts",
      "outputs": [],
      "stateMutability": "nonpayable",
      "type": "function"
    },
    {
      "inputs": [
        {
          "internalType": "address[]",
          "name": "_userAddress",
          "type": "address[]"
        }
      ],
      "name": "enableAccounts",
      "outputs": [],
      "stateMutability": "nonpayable",
      "type": "function"
    },
    {
      "inputs": [],
      "name": "getActiveStakingIDs",
      "outputs": [
        {
          "internalType": "uint256[]",
          "name": "",
          "type": "uint256[]"
        }
      ],
      "stateMutability": "view",
      "type": "function"
    },
    {
      "inputs": [],
      "name": "getDisabledAccountsList",
      "outputs": [
        {
          "internalType": "address[]",
          "name": "",
          "type": "address[]"
        }
      ],
      "stateMutability": "view",
      "type": "function"
    },
    {
      "inputs": [],
      "name": "getStakingCappings",
      "outputs": [
        {
          "internalType": "uint256",
          "name": "stakingRewardRate",
          "type": "uint256"
        },
        {
          "internalType": "uint256",
          "name": "stakingDuration",
          "type": "uint256"
        },
        {
          "internalType": "uint256",
          "name": "stakingRewardClaimTimeLimit",
          "type": "uint256"
        }
      ],
      "stateMutability": "view",
      "type": "function"
    },
    {
      "inputs": [
        {
          "internalType": "address",
          "name": "_userAddress",
          "type": "address"
        }
      ],
      "name": "getStakingTimeRemaining",
      "outputs": [
        {
          "internalType": "uint256",
          "name": "time",
          "type": "uint256"
        }
      ],
      "stateMutability": "view",
      "type": "function"
    },
    {
      "inputs": [],
      "name": "getTotalStakingRewardDistributed",
      "outputs": [
        {
          "internalType": "uint256",
          "name": "_tokenRewards",
          "type": "uint256"
        }
      ],
      "stateMutability": "view",
      "type": "function"
    },
    {
      "inputs": [],
      "name": "getTotalValueStaked",
      "outputs": [
        {
          "internalType": "uint256",
          "name": "token",
          "type": "uint256"
        }
      ],
      "stateMutability": "view",
      "type": "function"
    },
    {
      "inputs": [
        {
          "internalType": "address",
          "name": "_userAddress",
          "type": "address"
        }
      ],
      "name": "getUserAllStakingsRewards",
      "outputs": [
        {
          "internalType": "uint256",
          "name": "",
          "type": "uint256"
        }
      ],
      "stateMutability": "view",
      "type": "function"
    },
    {
      "inputs": [
        {
          "internalType": "address",
          "name": "_userAddress",
          "type": "address"
        }
      ],
      "name": "getUserStakingIDs",
      "outputs": [
        {
          "internalType": "uint256[]",
          "name": "",
          "type": "uint256[]"
        }
      ],
      "stateMutability": "view",
      "type": "function"
    },
    {
      "inputs": [
        {
          "internalType": "address",
          "name": "_userAddress",
          "type": "address"
        }
      ],
      "name": "getUserTotalRewardClaimedToken",
      "outputs": [
        {
          "internalType": "uint256",
          "name": "",
          "type": "uint256"
        }
      ],
      "stateMutability": "view",
      "type": "function"
    },
    {
      "inputs": [
        {
          "internalType": "address",
          "name": "_userAddress",
          "type": "address"
        }
      ],
      "name": "getUserTotalValueStaked",
      "outputs": [
        {
          "internalType": "uint256",
          "name": "token",
          "type": "uint256"
        }
      ],
      "stateMutability": "view",
      "type": "function"
    },
    {
      "inputs": [
        {
          "internalType": "address",
          "name": "_userAddress",
          "type": "address"
        }
      ],
      "name": "getUserUnStakeValue",
      "outputs": [
        {
          "internalType": "uint256",
          "name": "",
          "type": "uint256"
        }
      ],
      "stateMutability": "view",
      "type": "function"
    },
    {
      "inputs": [],
      "name": "initialize",
      "outputs": [],
      "stateMutability": "nonpayable",
      "type": "function"
    },
    {
      "inputs": [
        {
          "internalType": "address",
          "name": "_userAddress",
          "type": "address"
        }
      ],
      "name": "isAccountDisabled",
      "outputs": [
        {
          "internalType": "bool",
          "name": "",
          "type": "bool"
        }
      ],
      "stateMutability": "view",
      "type": "function"
    },
    {
      "inputs": [
        {
          "internalType": "address",
          "name": "_userAddress",
          "type": "address"
        }
      ],
      "name": "isStaked",
      "outputs": [
        {
          "internalType": "bool",
          "name": "",
          "type": "bool"
        }
      ],
      "stateMutability": "view",
      "type": "function"
    },
    {
      "inputs": [],
      "name": "owner",
      "outputs": [
        {
          "internalType": "address",
          "name": "",
          "type": "address"
        }
      ],
      "stateMutability": "view",
      "type": "function"
    },
    {
      "inputs": [],
      "name": "pause",
      "outputs": [],
      "stateMutability": "nonpayable",
      "type": "function"
    },
    {
      "inputs": [],
      "name": "paused",
      "outputs": [
        {
          "internalType": "bool",
          "name": "",
          "type": "bool"
        }
      ],
      "stateMutability": "view",
      "type": "function"
    },
    {
      "inputs": [],
      "name": "proxiableUUID",
      "outputs": [
        {
          "internalType": "bytes32",
          "name": "",
          "type": "bytes32"
        }
      ],
      "stateMutability": "view",
      "type": "function"
    },
    {
      "inputs": [],
      "name": "renounceOwnership",
      "outputs": [],
      "stateMutability": "nonpayable",
      "type": "function"
    },
    {
      "inputs": [
        {
          "internalType": "uint256",
          "name": "_valueInDays",
          "type": "uint256"
        }
      ],
      "name": "setStakingDuration",
      "outputs": [],
      "stateMutability": "nonpayable",
      "type": "function"
    },
    {
      "inputs": [
        {
          "internalType": "uint256",
          "name": "_valueInDays",
          "type": "uint256"
        }
      ],
      "name": "setStakingRewardClaimTimeLimity",
      "outputs": [],
      "stateMutability": "nonpayable",
      "type": "function"
    },
    {
      "inputs": [
        {
          "internalType": "uint16",
          "name": "_valueInPer",
          "type": "uint16"
        }
      ],
      "name": "setStakingRewardRate",
      "outputs": [],
      "stateMutability": "nonpayable",
      "type": "function"
    },
    {
      "inputs": [
        {
          "internalType": "address",
          "name": "_userAddress",
          "type": "address"
        },
        {
          "internalType": "uint256",
          "name": "_value",
          "type": "uint256"
        }
      ],
      "name": "stakeByAdmin",
      "outputs": [],
      "stateMutability": "nonpayable",
      "type": "function"
    },
    {
      "inputs": [
        {
          "internalType": "uint256",
          "name": "_stakingID",
          "type": "uint256"
        }
      ],
      "name": "stakeInfoMap",
      "outputs": [
        {
          "components": [
            {
              "internalType": "bool",
              "name": "isStaked",
              "type": "bool"
            },
            {
              "internalType": "uint32",
              "name": "id",
              "type": "uint32"
            },
            {
              "internalType": "address",
              "name": "owner",
              "type": "address"
            },
            {
              "internalType": "uint256",
              "name": "value",
              "type": "uint256"
            },
            {
              "internalType": "uint16",
              "name": "rewardRate",
              "type": "uint16"
            },
            {
              "internalType": "uint256",
              "name": "startTime",
              "type": "uint256"
            },
            {
              "internalType": "uint256",
              "name": "duration",
              "type": "uint256"
            }
          ],
          "internalType": "struct FutureSecureWalletV1Upgradeable.StakeInfo",
          "name": "",
          "type": "tuple"
        }
      ],
      "stateMutability": "view",
      "type": "function"
    },
    {
      "inputs": [
        {
          "internalType": "address",
          "name": "newOwner",
          "type": "address"
        }
      ],
      "name": "transferOwnership",
      "outputs": [],
      "stateMutability": "nonpayable",
      "type": "function"
    },
    {
      "inputs": [],
      "name": "unStake",
      "outputs": [],
      "stateMutability": "nonpayable",
      "type": "function"
    },
    {
      "inputs": [],
      "name": "unpause",
      "outputs": [],
      "stateMutability": "nonpayable",
      "type": "function"
    },
    {
      "inputs": [
        {
          "internalType": "address",
          "name": "newImplementation",
          "type": "address"
        }
      ],
      "name": "upgradeTo",
      "outputs": [],
      "stateMutability": "nonpayable",
      "type": "function"
    },
    {
      "inputs": [
        {
          "internalType": "address",
          "name": "newImplementation",
          "type": "address"
        },
        {
          "internalType": "bytes",
          "name": "data",
          "type": "bytes"
        }
      ],
      "name": "upgradeToAndCall",
      "outputs": [],
      "stateMutability": "payable",
      "type": "function"
    },
    {
      "inputs": [
        {
          "internalType": "address",
          "name": "_userAddress",
          "type": "address"
        }
      ],
      "name": "userAccountMap",
      "outputs": [
        {
          "components": [
            {
              "internalType": "uint256[]",
              "name": "stakingIDs",
              "type": "uint256[]"
            },
            {
              "internalType": "bool",
              "name": "isDisabled",
              "type": "bool"
            },
            {
              "internalType": "uint256",
              "name": "rewardClaimedTimestamp",
              "type": "uint256"
            },
            {
              "internalType": "uint256",
              "name": "rewardClaimed",
              "type": "uint256"
            }
          ],
          "internalType": "struct FutureSecureWalletV1Upgradeable.Account",
          "name": "",
          "type": "tuple"
        }
      ],
      "stateMutability": "view",
      "type": "function"
    },
    {
      "inputs": [
        {
          "internalType": "address",
          "name": "_receiver",
          "type": "address"
        },
        {
          "internalType": "uint256",
          "name": "_value",
          "type": "uint256"
        }
      ],
      "name": "withdrawNativeFunds",
      "outputs": [
        {
          "internalType": "bool",
          "name": "",
          "type": "bool"
        }
      ],
      "stateMutability": "nonpayable",
      "type": "function"
    },
    {
      "inputs": [
        {
          "internalType": "address",
          "name": "_tokenAddress",
          "type": "address"
        },
        {
          "internalType": "address",
          "name": "_receiver",
          "type": "address"
        },
        {
          "internalType": "uint256",
          "name": "_value",
          "type": "uint256"
        }
      ],
      "name": "withdrawTokens",
      "outputs": [
        {
          "internalType": "bool",
          "name": "",
          "type": "bool"
        }
      ],
      "stateMutability": "nonpayable",
      "type": "function"
    },
    {
      "stateMutability": "payable",
      "type": "receive"
    }
  ],
  "bytecode": "0x60a06040523060805234801561001457600080fd5b50608051612f6d61004c60003960008181610a2601528181610a6f01528181610c3201528181610c720152610d050152612f6d6000f3fe6080604052600436106102295760003560e01c80636f72693b11610123578063a40b5891116100ab578063dba4358c1161006f578063dba4358c1461077c578063deede65414610791578063e3a51f58146107a6578063f2fde38b146107de578063f807438f146107fe57600080fd5b8063a40b5891146105ac578063a7566b75146105e9578063afc695ce14610725578063ba4f678e1461073a578063c06a53881461076757600080fd5b80638129fc1c116100f25780638129fc1c146105245780638456cb59146105395780638da5cb5b1461054e5780639c3fe28a1461056c5780639dd41ac11461058c57600080fd5b80636f72693b146104d0578063715018a6146104e557806373cf575a146104fa5780637ce574bf1461050f57600080fd5b806353bdadea116101b15780636177fd18116101755780636177fd181461040957806366e5e570146104295780636a50eefa146104635780636a8ca691146104835780636f51b20b146104a357600080fd5b806353bdadea146103715780635c975abb146103915780635cbfd021146103a95780635e35359e146103c95780635f869714146103e957600080fd5b80633659cfe6116101f85780633659cfe6146102f25780633b09098f146103145780633f4ba83a146103345780634f1ef2861461034957806352d1902d1461035c57600080fd5b806314bfd6d014610235578063260cb4e91461027257806326792aca1461029457806326ed1af0146102c457600080fd5b3661023057005b600080fd5b34801561024157600080fd5b50610255610250366004612971565b61081e565b6040516001600160a01b0390911681526020015b60405180910390f35b34801561027e57600080fd5b50610287610849565b604051610269919061298a565b3480156102a057600080fd5b506102b46102af3660046129e7565b6109c5565b6040519015158152602001610269565b3480156102d057600080fd5b506102e46102df366004612a11565b610a11565b604051908152602001610269565b3480156102fe57600080fd5b5061031261030d366004612a11565b610a1c565b005b34801561032057600080fd5b5061031261032f366004612a2c565b610b04565b34801561034057600080fd5b50610312610c16565b610312610357366004612ab7565b610c28565b34801561036857600080fd5b506102e4610cf8565b34801561037d57600080fd5b5061031261038c366004612a2c565b610dab565b34801561039d57600080fd5b5060335460ff166102b4565b3480156103b557600080fd5b506103126103c4366004612971565b610eb1565b3480156103d557600080fd5b506102b46103e4366004612b79565b610f4d565b3480156103f557600080fd5b506102e4610404366004612a11565b610fd7565b34801561041557600080fd5b506102b4610424366004612a11565b6110be565b34801561043557600080fd5b506102e4610444366004612a11565b6001600160a01b03166000908152610103602052604090206003015490565b34801561046f57600080fd5b5061031261047e3660046129e7565b611145565b34801561048f57600080fd5b5061031261049e366004612971565b6111e6565b3480156104af57600080fd5b506104c36104be366004612a11565b611282565b6040516102699190612bf0565b3480156104dc57600080fd5b506104c36112ef565b3480156104f157600080fd5b506103126113a4565b34801561050657600080fd5b506103126113b6565b34801561051b57600080fd5b5060fe546102e4565b34801561053057600080fd5b506103126114c1565b34801561054557600080fd5b50610312611626565b34801561055a57600080fd5b506065546001600160a01b0316610255565b34801561057857600080fd5b506102e4610587366004612a11565b611636565b34801561059857600080fd5b506102e46105a7366004612a11565b611658565b3480156105b857600080fd5b506102b46105c7366004612a11565b6001600160a01b03166000908152610103602052604090206001015460ff1690565b3480156105f557600080fd5b506106bf610604366004612971565b6040805160e081018252600080825260208201819052918101829052606081018290526080810182905260a0810182905260c08101919091525060009081526101046020908152604091829020825160e081018452815460ff811615158252610100810463ffffffff1693820193909352650100000000009092046001600160a01b03169282019290925260018201546060820152600282015461ffff166080820152600382015460a082015260049091015460c082015290565b604051610269919081511515815260208083015163ffffffff16908201526040808301516001600160a01b0316908201526060808301519082015260808083015161ffff169082015260a0808301519082015260c0918201519181019190915260e00190565b34801561073157600080fd5b5061031261177a565b34801561074657600080fd5b5061075a610755366004612a11565b611922565b6040516102699190612c03565b34801561077357600080fd5b506102876119ed565b34801561078857600080fd5b50610287611b41565b34801561079d57600080fd5b5060fd546102e4565b3480156107b257600080fd5b5060ff5461010054610101546040805161ffff9094168452602084019290925290820152606001610269565b3480156107ea57600080fd5b506103126107f9366004612a11565b611ca5565b34801561080a57600080fd5b50610312610819366004612c4b565b611d1b565b610102818154811061082f57600080fd5b6000918252602090912001546001600160a01b0316905081565b6000808052610103602090815260fc80546040805182850281018501909152818152606094937ff167d7e9ac6011f0b837eaede5176b30419264c8a43ec5db1d59bf93c98c1f7f93859390918301828280156108ce57602002820191906000526020600020905b81546001600160a01b031681526001909101906020018083116108b0575b5050505050905060008151905060008167ffffffffffffffff8111156108f6576108f6612aa1565b60405190808252806020026020018201604052801561091f578160200160208202803683370190505b5090506000805b838110156109b95784818151811061094057610940612c6f565b602002602001015196506109548388611dbb565b15156001146109a75760018087015460ff16151590036109a7578683838151811061098157610981612c6f565b6001600160a01b0390921660209283029190910190910152816109a381612c9b565b9250505b806109b181612c9b565b915050610926565b50909695505050505050565b60006109cf611e20565b6040516001600160a01b0384169083156108fc029084906000818181858888f19350505050158015610a05573d6000803e3d6000fd5b50600190505b92915050565b6000610a0b82611e7a565b6001600160a01b037f0000000000000000000000000000000000000000000000000000000000000000163003610a6d5760405162461bcd60e51b8152600401610a6490612cb4565b60405180910390fd5b7f00000000000000000000000000000000000000000000000000000000000000006001600160a01b0316610ab6600080516020612ef1833981519152546001600160a01b031690565b6001600160a01b031614610adc5760405162461bcd60e51b8152600401610a6490612d00565b610ae581611f7f565b60408051600080825260208201909252610b0191839190611f87565b50565b60fb54604051630935e01b60e21b81523360048201526001600160a01b03909116906324d7806c90602401602060405180830381865afa158015610b4c573d6000803e3d6000fd5b505050506040513d601f19601f82011682018060405250810190610b709190612d4c565b610b8c5760405162461bcd60e51b8152600401610a6490612d6e565b60008080526101036020527ff167d7e9ac6011f0b837eaede5176b30419264c8a43ec5db1d59bf93c98c1f7f82825b81811015610c0e57858582818110610bd557610bd5612c6f565b9050602002016020810190610bea9190612a11565b6001848101805460ff19169091179055935080610c0681612c9b565b915050610bbb565b505050505050565b610c1e611e20565b610c266120f7565b565b6001600160a01b037f0000000000000000000000000000000000000000000000000000000000000000163003610c705760405162461bcd60e51b8152600401610a6490612cb4565b7f00000000000000000000000000000000000000000000000000000000000000006001600160a01b0316610cb9600080516020612ef1833981519152546001600160a01b031690565b6001600160a01b031614610cdf5760405162461bcd60e51b8152600401610a6490612d00565b610ce882611f7f565b610cf482826001611f87565b5050565b6000306001600160a01b037f00000000000000000000000000000000000000000000000000000000000000001614610d985760405162461bcd60e51b815260206004820152603860248201527f555550535570677261646561626c653a206d757374206e6f742062652063616c60448201527f6c6564207468726f7567682064656c656761746563616c6c00000000000000006064820152608401610a64565b50600080516020612ef183398151915290565b60fb54604051630935e01b60e21b81523360048201526001600160a01b03909116906324d7806c90602401602060405180830381865afa158015610df3573d6000803e3d6000fd5b505050506040513d601f19601f82011682018060405250810190610e179190612d4c565b610e335760405162461bcd60e51b8152600401610a6490612d6e565b60008080526101036020527ff167d7e9ac6011f0b837eaede5176b30419264c8a43ec5db1d59bf93c98c1f7f82825b81811015610c0e57858582818110610e7c57610e7c612c6f565b9050602002016020810190610e919190612a11565b60018401805460ff19169055935080610ea981612c9b565b915050610e62565b60fb54604051630935e01b60e21b81523360048201526001600160a01b03909116906324d7806c90602401602060405180830381865afa158015610ef9573d6000803e3d6000fd5b505050506040513d601f19601f82011682018060405250810190610f1d9190612d4c565b610f395760405162461bcd60e51b8152600401610a6490612d6e565b610f468162015180612d99565b6101015550565b6000610f57611e20565b60405163a9059cbb60e01b81526001600160a01b0384811660048301526024820184905285169063a9059cbb906044016020604051808303816000875af1158015610fa6573d6000803e3d6000fd5b505050506040513d601f19601f82011682018060405250810190610fca9190612d4c565b50600190505b9392505050565b6001600160a01b03811660009081526101036020908152604080832080548251818502810185019093528083529092849291849183018282801561103a57602002820191906000526020600020905b815481526020019060010190808311611026575b505083519394506000925050505b818110156110b5576000610104600085848151811061106957611069612c6f565b6020908102919091018101518252810191909152604001600020805490915060ff16156110a257600181015461109f9087612db0565b95505b50806110ad81612c9b565b915050611048565b50505050919050565b6001600160a01b038116600090815261010360205260408120805442919083906101049082906110f090600190612dc3565b815260200190815260200160002090506000816004015482600301546111169190612db0565b83549091501580159061112857508084105b156111395750600195945050505050565b50600095945050505050565b60fb54604051630935e01b60e21b81523360048201526001600160a01b03909116906324d7806c90602401602060405180830381865afa15801561118d573d6000803e3d6000fd5b505050506040513d601f19601f820116820180604052508101906111b19190612d4c565b6111cd5760405162461bcd60e51b8152600401610a6490612d6e565b60ff5461010054610cf4918491849161ffff1690612149565b60fb54604051630935e01b60e21b81523360048201526001600160a01b03909116906324d7806c90602401602060405180830381865afa15801561122e573d6000803e3d6000fd5b505050506040513d601f19601f820116820180604052508101906112529190612d4c565b61126e5760405162461bcd60e51b8152600401610a6490612d6e565b61127b8162015180612d99565b6101005550565b6001600160a01b038116600090815261010360209081526040918290208054835181840281018401909452808452606093928301828280156112e357602002820191906000526020600020905b8154815260200190600101908083116112cf575b50505050509050919050565b60fc5460609060008167ffffffffffffffff81111561131057611310612aa1565b604051908082528060200260200182016040528015611339578160200160208202803683370190505b50905060005b8281101561139d57600081815261010460205260409020805460ff16151560010361138a57811561138a578183838151811061137d5761137d612c6f565b6020026020010181815250505b508061139581612c9b565b91505061133f565b5092915050565b6113ac611e20565b610c26600061229b565b3360008181526101036020526040812060038101549091906113d7836122ed565b6113e19190612dc3565b9050808260030160008282546113f79190612db0565b9091555050426002830155600061140d8461234e565b90506001600160a01b0384166108fc6114268484612db0565b6040518115909202916000818181858888f1935050505015801561144e573d6000803e3d6000fd5b5060405182906001600160a01b038616907f6dd401e61ba732582a5eba3d54ccc3afb3609cd3ac1a166d1d36f75fc0aedcda90600090a360405181906001600160a01b038616907f79d3df6837cc49ff0e09fd3258e6e45594e0703445bb06825e9d75156eaee8f090600090a350505050565b600054610100900460ff16158080156114e15750600054600160ff909116105b806114fb5750303b1580156114fb575060005460ff166001145b61155e5760405162461bcd60e51b815260206004820152602e60248201527f496e697469616c697a61626c653a20636f6e747261637420697320616c72656160448201526d191e481a5b9a5d1a585b1a5e995960921b6064820152608401610a64565b6000805460ff191660011790558015611581576000805461ff0019166101001790555b60fb80546001600160a01b031916730b8bf5feb9fca57d9c5d27185ddf3017e99a2d3617905560ff805461ffff1916603c1790556301e133806101005562278d00610101556115ce612499565b6115d66124c8565b6115de6124f7565b8015610b01576000805461ff0019169055604051600181527f7f26b83ff96e1f2b6a682f133852f6798a09c465da95921460cefb38474024989060200160405180910390a150565b61162e611e20565b610c2661251e565b6001600160a01b038116600090815261010360205260408120610a0b906122ed565b6001600160a01b0381166000908152610103602090815260408083208151815460a09481028201850190935260808101838152429486949293928492918491908401828280156116c757602002820191906000526020600020905b8154815260200190600101908083116116b3575b505050918352505060018281015460ff16151560208301526002830154604083015260039092015460609091015281518051929350600092610104928492916117109190612dc3565b8151811061172057611720612c6f565b60200260200101518152602001908152602001600020905060008160040154826003015461174e9190612db0565b8351519091501580159061176157508084105b156110b5576117708482612dc3565b9695505050505050565b33600081815261010360205260408120600381015490919061179b836122ed565b6117a59190612dc3565b9050600081116117f75760405162461bcd60e51b815260206004820152601c60248201527f596f752068617665206e6f207374616b696e67206f7220656e646564000000006044820152606401610a64565b6001820154429060ff16156118665760405162461bcd60e51b815260206004820152602f60248201527f596f7572206163636f756e742069732064697361626c65642e20506c6561736560448201526e1031b7b73a30b1ba1030b236b4b71760891b6064820152608401610a64565b8061010154846002015461187a9190612db0565b116118d95760405162461bcd60e51b815260206004820152602960248201527f596f752063616e6e6f7420636c61696d20726577617264206265666f7265207460448201526834b6b2b634b6b4ba1760b91b6064820152608401610a64565b6118e58484848461255b565b6040516001600160a01b0385169083156108fc029084906000818181858888f1935050505015801561191b573d6000803e3d6000fd5b5050505050565b61194f60405180608001604052806060815260200160001515815260200160008152602001600081525090565b6001600160a01b038216600090815261010360209081526040918290208251815460a0938102820184019094526080810184815290939192849284918401828280156119ba57602002820191906000526020600020905b8154815260200190600101908083116119a6575b5050509183525050600182015460ff16151560208201526002820154604082015260039091015460609091015292915050565b6060600060fc805480602002602001604051908101604052809291908181526020018280548015611a4757602002820191906000526020600020905b81546001600160a01b03168152600190910190602001808311611a29575b5050505050905060008151905060008167ffffffffffffffff811115611a6f57611a6f612aa1565b604051908082528060200260200182016040528015611a98578160200160208202803683370190505b5090506000805b83811015611b3757611aca83868381518110611abd57611abd612c6f565b6020026020010151611dbb565b1515600114611b2557848181518110611ae557611ae5612c6f565b6020026020010151838381518110611aff57611aff612c6f565b6001600160a01b039092166020928302919091019091015281611b2181612c9b565b9250505b80611b2f81612c9b565b915050611a9f565b5090949350505050565b6060600060fc805480602002602001604051908101604052809291908181526020018280548015611b9b57602002820191906000526020600020905b81546001600160a01b03168152600190910190602001808311611b7d575b5050505050905060008151905060008167ffffffffffffffff811115611bc357611bc3612aa1565b604051908082528060200260200182016040528015611bec578160200160208202803683370190505b5090506000805b83811015611b3757611c1183868381518110611abd57611abd612c6f565b1515600114611c9357611c3c858281518110611c2f57611c2f612c6f565b60200260200101516110be565b15611c9357848181518110611c5357611c53612c6f565b6020026020010151838381518110611c6d57611c6d612c6f565b6001600160a01b039092166020928302919091019091015281611c8f81612c9b565b9250505b80611c9d81612c9b565b915050611bf3565b611cad611e20565b6001600160a01b038116611d125760405162461bcd60e51b815260206004820152602660248201527f4f776e61626c653a206e6577206f776e657220697320746865207a65726f206160448201526564647265737360d01b6064820152608401610a64565b610b018161229b565b60fb54604051630935e01b60e21b81523360048201526001600160a01b03909116906324d7806c90602401602060405180830381865afa158015611d63573d6000803e3d6000fd5b505050506040513d601f19601f82011682018060405250810190611d879190612d4c565b611da35760405162461bcd60e51b8152600401610a6490612d6e565b60ff805461ffff191661ffff92909216919091179055565b6000805b8351811015611e1657826001600160a01b0316848281518110611de457611de4612c6f565b60200260200101516001600160a01b031603611e04576001915050610a0b565b80611e0e81612c9b565b915050611dbf565b5060009392505050565b6065546001600160a01b03163314610c265760405162461bcd60e51b815260206004820181905260248201527f4f776e61626c653a2063616c6c6572206973206e6f7420746865206f776e65726044820152606401610a64565b6001600160a01b038116600090815261010360209081526040808320805482518185028101850190935280835290928492918491830182828015611edd57602002820191906000526020600020905b815481526020019060010190808311611ec9575b5050835193945042925060009150505b82811015611f755760006101046000868481518110611f0e57611f0e612c6f565b6020908102919091018101518252810191909152604001600020805490915060ff1615611f62578281600401548260030154611f4a9190612db0565b1115611f62576001810154611f5f9088612db0565b96505b5080611f6d81612c9b565b915050611eed565b5050505050919050565b610b01611e20565b7f4910fdfa16fed3260ed0e7147f7cc6da11a60208b5b9406d12a635614ffd91435460ff1615611fbf57611fba836125b7565b505050565b826001600160a01b03166352d1902d6040518163ffffffff1660e01b8152600401602060405180830381865afa925050508015612019575060408051601f3d908101601f1916820190925261201691810190612dd6565b60015b61207c5760405162461bcd60e51b815260206004820152602e60248201527f45524331393637557067726164653a206e657720696d706c656d656e7461746960448201526d6f6e206973206e6f74205555505360901b6064820152608401610a64565b600080516020612ef183398151915281146120eb5760405162461bcd60e51b815260206004820152602960248201527f45524331393637557067726164653a20756e737570706f727465642070726f786044820152681a58589b195555525160ba1b6064820152608401610a64565b50611fba838383612653565b6120ff61267e565b6033805460ff191690557f5db9ee0a495bf2e6ff9c91a7834c1ba4fdd244a5e8aa4e537bd38aeae4b073aa335b6040516001600160a01b03909116815260200160405180910390a1565b60fc8054600180820183557f371f36870d18f32a11fea0f144b021c8b407bb50f8e0267c711123f454b963c090910180546001600160a01b0319166001600160a01b038816908117909155915460008381526101036020908152604080832063ffffffff8516808552610104845291842081548088018355828652938520909301829055825464ffffffffff191661010090920260ff191691909117851765010000000000600160c81b0319166501000000000090960295909517815542600382018190556004820187905593810188905560028101805461ffff191661ffff891617905560fd805493959391928992612244908490612db0565b909155505060405163ffffffff85168152859088906001600160a01b038b16907ff556991011e831bcfac4f406d547e5e32cdd98267efab83935230d5f8d02c4469060200160405180910390a45050505050505050565b606580546001600160a01b038381166001600160a01b0319831681179093556040519116919082907f8be0079c531659141344cd1fd0a4f28419497f9722a3daafe3b4186f6b6457e090600090a35050565b8054600090815b818161ffff16101561234757612329848261ffff168154811061231957612319612c6f565b90600052602060002001546126c7565b6123339084612db0565b92508061233f81612def565b9150506122f4565b5050919050565b6001600160a01b0381166000908152610103602090815260408083208054825181850281018501909352808352909284929184918301828280156123b157602002820191906000526020600020905b81548152602001906001019080831161239d575b5050835193945042925060009150505b82811015611f7557600061010460008684815181106123e2576123e2612c6f565b6020908102919091018101518252810191909152604001600020805490915060ff161561248657828160040154826003015461241e9190612db0565b11156124865760018101546124339088612db0565b815460ff1916808355600183015460405192995061010090910463ffffffff16916001600160a01b038b16907f091b6bc9d0d839f20a931895d4778e195eef19985b93ae2f0e25b67e4812521f90600090a45b508061249181612c9b565b9150506123c1565b600054610100900460ff166124c05760405162461bcd60e51b8152600401610a6490612e10565b610c26612740565b600054610100900460ff166124ef5760405162461bcd60e51b8152600401610a6490612e10565b610c26612773565b600054610100900460ff16610c265760405162461bcd60e51b8152600401610a6490612e10565b6125266127a3565b6033805460ff191660011790557f62e78cea01bee320cd4e420270b5ea74000d11b0c9f74754ebdbfc544b05a25861212c3390565b8183600301600082825461256f9190612db0565b90915550506002830181905560405182906001600160a01b038616907f6dd401e61ba732582a5eba3d54ccc3afb3609cd3ac1a166d1d36f75fc0aedcda90600090a350505050565b6001600160a01b0381163b6126245760405162461bcd60e51b815260206004820152602d60248201527f455243313936373a206e657720696d706c656d656e746174696f6e206973206e60448201526c1bdd08184818dbdb9d1c9858dd609a1b6064820152608401610a64565b600080516020612ef183398151915280546001600160a01b0319166001600160a01b0392909216919091179055565b61265c836127e9565b6000825111806126695750805b15611fba576126788383612829565b50505050565b60335460ff16610c265760405162461bcd60e51b815260206004820152601460248201527314185d5cd8589b194e881b9bdd081c185d5cd95960621b6044820152606401610a64565b600081815261010460205260408120600381015442919083906126ea9084612dc3565b6004830154600284015460018501549293506000926064916127129161ffff90911690612d99565b61271c9190612e5b565b6127269190612e5b565b905061273682846004015461291d565b6117709082612d99565b600054610100900460ff166127675760405162461bcd60e51b8152600401610a6490612e10565b6033805460ff19169055565b600054610100900460ff1661279a5760405162461bcd60e51b8152600401610a6490612e10565b610c263361229b565b60335460ff1615610c265760405162461bcd60e51b815260206004820152601060248201526f14185d5cd8589b194e881c185d5cd95960821b6044820152606401610a64565b6127f2816125b7565b6040516001600160a01b038216907fbc7cd75a20ee27fd9adebab32041f755214dbc6bffa90cc0225b39da2e5c2d3b90600090a250565b60606001600160a01b0383163b6128915760405162461bcd60e51b815260206004820152602660248201527f416464726573733a2064656c65676174652063616c6c20746f206e6f6e2d636f6044820152651b9d1c9858dd60d21b6064820152608401610a64565b600080846001600160a01b0316846040516128ac9190612ea1565b600060405180830381855af49150503d80600081146128e7576040519150601f19603f3d011682016040523d82523d6000602084013e6128ec565b606091505b50915091506129148282604051806060016040528060278152602001612f1160279139612933565b95945050505050565b600081831061292c5781610fd0565b5090919050565b60608315612942575081610fd0565b610fd083838151156129575781518083602001fd5b8060405162461bcd60e51b8152600401610a649190612ebd565b60006020828403121561298357600080fd5b5035919050565b6020808252825182820181905260009190848201906040850190845b818110156109b95783516001600160a01b0316835292840192918401916001016129a6565b80356001600160a01b03811681146129e257600080fd5b919050565b600080604083850312156129fa57600080fd5b612a03836129cb565b946020939093013593505050565b600060208284031215612a2357600080fd5b610fd0826129cb565b60008060208385031215612a3f57600080fd5b823567ffffffffffffffff80821115612a5757600080fd5b818501915085601f830112612a6b57600080fd5b813581811115612a7a57600080fd5b8660208260051b8501011115612a8f57600080fd5b60209290920196919550909350505050565b634e487b7160e01b600052604160045260246000fd5b60008060408385031215612aca57600080fd5b612ad3836129cb565b9150602083013567ffffffffffffffff80821115612af057600080fd5b818501915085601f830112612b0457600080fd5b813581811115612b1657612b16612aa1565b604051601f8201601f19908116603f01168101908382118183101715612b3e57612b3e612aa1565b81604052828152886020848701011115612b5757600080fd5b8260208601602083013760006020848301015280955050505050509250929050565b600080600060608486031215612b8e57600080fd5b612b97846129cb565b9250612ba5602085016129cb565b9150604084013590509250925092565b600081518084526020808501945080840160005b83811015612be557815187529582019590820190600101612bc9565b509495945050505050565b602081526000610fd06020830184612bb5565b602081526000825160806020840152612c1f60a0840182612bb5565b905060208401511515604084015260408401516060840152606084015160808401528091505092915050565b600060208284031215612c5d57600080fd5b813561ffff81168114610fd057600080fd5b634e487b7160e01b600052603260045260246000fd5b634e487b7160e01b600052601160045260246000fd5b600060018201612cad57612cad612c85565b5060010190565b6020808252602c908201527f46756e6374696f6e206d7573742062652063616c6c6564207468726f7567682060408201526b19195b1959d85d1958d85b1b60a21b606082015260800190565b6020808252602c908201527f46756e6374696f6e206d7573742062652063616c6c6564207468726f7567682060408201526b6163746976652070726f787960a01b606082015260800190565b600060208284031215612d5e57600080fd5b81518015158114610fd057600080fd5b6020808252601190820152702cb7ba9030b932903737ba1030b236b4b760791b604082015260600190565b8082028115828204841417610a0b57610a0b612c85565b80820180821115610a0b57610a0b612c85565b81810381811115610a0b57610a0b612c85565b600060208284031215612de857600080fd5b5051919050565b600061ffff808316818103612e0657612e06612c85565b6001019392505050565b6020808252602b908201527f496e697469616c697a61626c653a20636f6e7472616374206973206e6f74206960408201526a6e697469616c697a696e6760a81b606082015260800190565b600082612e7857634e487b7160e01b600052601260045260246000fd5b500490565b60005b83811015612e98578181015183820152602001612e80565b50506000910152565b60008251612eb3818460208701612e7d565b9190910192915050565b6020815260008251806020840152612edc816040850160208701612e7d565b601f01601f1916919091016040019291505056fe360894a13ba1a3210667c828492db98dca3e2076cc3735a920a3ca505d382bbc416464726573733a206c6f772d6c6576656c2064656c65676174652063616c6c206661696c6564a26469706673582212204abeac82a0878040f92a6c5cd34bf6b140e5b0354f3bf5609c6a70c69bbe75a064736f6c63430008120033",
  "linkReferences": {},
  "deployedLinkReferences": {}
}