{
  "_format": "hh-sol-artifact-1",
  "contractName": "ReferralV3Upgradeable",
  "sourceName": "contracts/ReferralV3Upgradeable.sol",
  "abi": [
    {
      "anonymous": false,
      "inputs": [
        {
          "indexed": false,
          "internalType": "address",
          "name": "ownerAddress",
          "type": "address"
        },
        {
          "indexed": false,
          "internalType": "uint256",
          "name": "id",
          "type": "uint256"
        },
        {
          "indexed": false,
          "internalType": "uint256",
          "name": "idIndex",
          "type": "uint256"
        }
      ],
      "name": "AccountInfoIDAttached",
      "type": "event"
    },
    {
      "anonymous": false,
      "inputs": [
        {
          "indexed": false,
          "internalType": "uint256",
          "name": "userID",
          "type": "uint256"
        },
        {
          "indexed": false,
          "internalType": "uint256",
          "name": "index",
          "type": "uint256"
        },
        {
          "indexed": false,
          "internalType": "uint256",
          "name": "rank",
          "type": "uint256"
        }
      ],
      "name": "AddedInRoyaltyClubList",
      "type": "event"
    },
    {
      "anonymous": false,
      "inputs": [
        {
          "indexed": false,
          "internalType": "address",
          "name": "previousAdmin",
          "type": "address"
        },
        {
          "indexed": false,
          "internalType": "address",
          "name": "newAdmin",
          "type": "address"
        }
      ],
      "name": "AdminChanged",
      "type": "event"
    },
    {
      "anonymous": false,
      "inputs": [
        {
          "indexed": true,
          "internalType": "address",
          "name": "beacon",
          "type": "address"
        }
      ],
      "name": "BeaconUpgraded",
      "type": "event"
    },
    {
      "anonymous": false,
      "inputs": [
        {
          "indexed": false,
          "internalType": "uint256",
          "name": "id",
          "type": "uint256"
        },
        {
          "indexed": false,
          "internalType": "string",
          "name": "reason",
          "type": "string"
        }
      ],
      "name": "IDDeactivated",
      "type": "event"
    },
    {
      "anonymous": false,
      "inputs": [
        {
          "indexed": false,
          "internalType": "uint8",
          "name": "version",
          "type": "uint8"
        }
      ],
      "name": "Initialized",
      "type": "event"
    },
    {
      "anonymous": false,
      "inputs": [
        {
          "indexed": true,
          "internalType": "address",
          "name": "previousOwner",
          "type": "address"
        },
        {
          "indexed": true,
          "internalType": "address",
          "name": "newOwner",
          "type": "address"
        }
      ],
      "name": "OwnershipTransferred",
      "type": "event"
    },
    {
      "anonymous": false,
      "inputs": [
        {
          "indexed": false,
          "internalType": "uint256",
          "name": "packageID",
          "type": "uint256"
        }
      ],
      "name": "PackageAdded",
      "type": "event"
    },
    {
      "anonymous": false,
      "inputs": [
        {
          "indexed": false,
          "internalType": "uint256",
          "name": "packageID",
          "type": "uint256"
        }
      ],
      "name": "PackageRemoved",
      "type": "event"
    },
    {
      "anonymous": false,
      "inputs": [
        {
          "indexed": false,
          "internalType": "uint256",
          "name": "packageID",
          "type": "uint256"
        }
      ],
      "name": "PackageUpdated",
      "type": "event"
    },
    {
      "anonymous": false,
      "inputs": [
        {
          "indexed": true,
          "internalType": "uint256",
          "name": "userID",
          "type": "uint256"
        },
        {
          "indexed": true,
          "internalType": "uint256",
          "name": "reward",
          "type": "uint256"
        }
      ],
      "name": "ROIClaimed",
      "type": "event"
    },
    {
      "anonymous": false,
      "inputs": [
        {
          "indexed": true,
          "internalType": "uint256",
          "name": "refererID",
          "type": "uint256"
        },
        {
          "indexed": true,
          "internalType": "uint256",
          "name": "level",
          "type": "uint256"
        },
        {
          "indexed": true,
          "internalType": "string",
          "name": "reason",
          "type": "string"
        }
      ],
      "name": "ReferralNotPaid",
      "type": "event"
    },
    {
      "anonymous": false,
      "inputs": [
        {
          "indexed": true,
          "internalType": "uint256",
          "name": "refereeID",
          "type": "uint256"
        },
        {
          "indexed": true,
          "internalType": "uint256",
          "name": "referrerID",
          "type": "uint256"
        },
        {
          "indexed": true,
          "internalType": "uint256",
          "name": "amount",
          "type": "uint256"
        },
        {
          "indexed": false,
          "internalType": "uint256",
          "name": "level",
          "type": "uint256"
        }
      ],
      "name": "ReferralRewardPaid",
      "type": "event"
    },
    {
      "anonymous": false,
      "inputs": [
        {
          "indexed": true,
          "internalType": "address",
          "name": "refereeID",
          "type": "address"
        },
        {
          "indexed": true,
          "internalType": "address",
          "name": "referrerID",
          "type": "address"
        },
        {
          "indexed": true,
          "internalType": "string",
          "name": "reason",
          "type": "string"
        }
      ],
      "name": "RegisterRefererFailed",
      "type": "event"
    },
    {
      "anonymous": false,
      "inputs": [
        {
          "indexed": true,
          "internalType": "uint256",
          "name": "id",
          "type": "uint256"
        },
        {
          "indexed": true,
          "internalType": "uint256",
          "name": "refererID",
          "type": "uint256"
        }
      ],
      "name": "RegisteredReferer",
      "type": "event"
    },
    {
      "anonymous": false,
      "inputs": [
        {
          "indexed": true,
          "internalType": "address",
          "name": "parent",
          "type": "address"
        },
        {
          "indexed": false,
          "internalType": "uint256",
          "name": "parentAccountID",
          "type": "uint256"
        },
        {
          "indexed": true,
          "internalType": "uint256",
          "name": "referrerID",
          "type": "uint256"
        },
        {
          "indexed": true,
          "internalType": "uint256",
          "name": "refereeID",
          "type": "uint256"
        }
      ],
      "name": "RegisteredTeamAddress",
      "type": "event"
    },
    {
      "anonymous": false,
      "inputs": [
        {
          "indexed": false,
          "internalType": "uint256",
          "name": "packageID",
          "type": "uint256"
        },
        {
          "indexed": true,
          "internalType": "uint256",
          "name": "userID",
          "type": "uint256"
        },
        {
          "indexed": true,
          "internalType": "uint256",
          "name": "amount",
          "type": "uint256"
        }
      ],
      "name": "RoyaltyClubBonusPaid",
      "type": "event"
    },
    {
      "anonymous": false,
      "inputs": [
        {
          "indexed": true,
          "internalType": "address",
          "name": "implementation",
          "type": "address"
        }
      ],
      "name": "Upgraded",
      "type": "event"
    },
    {
      "inputs": [
        {
          "internalType": "uint256",
          "name": "",
          "type": "uint256"
        }
      ],
      "name": "_disabledUsersList",
      "outputs": [
        {
          "internalType": "address",
          "name": "",
          "type": "address"
        }
      ],
      "stateMutability": "view",
      "type": "function"
    },
    {
      "inputs": [
        {
          "internalType": "uint32",
          "name": "_refererID",
          "type": "uint32"
        }
      ],
      "name": "activateID",
      "outputs": [],
      "stateMutability": "payable",
      "type": "function"
    },
    {
      "inputs": [
        {
          "internalType": "uint32[]",
          "name": "_userID",
          "type": "uint32[]"
        }
      ],
      "name": "addTeamAddress",
      "outputs": [],
      "stateMutability": "nonpayable",
      "type": "function"
    },
    {
      "inputs": [
        {
          "internalType": "uint256",
          "name": "",
          "type": "uint256"
        }
      ],
      "name": "admins",
      "outputs": [
        {
          "internalType": "address",
          "name": "",
          "type": "address"
        }
      ],
      "stateMutability": "view",
      "type": "function"
    },
    {
      "inputs": [
        {
          "internalType": "uint32",
          "name": "_id",
          "type": "uint32"
        },
        {
          "internalType": "uint256",
          "name": "_value",
          "type": "uint256"
        }
      ],
      "name": "claimBalance",
      "outputs": [],
      "stateMutability": "nonpayable",
      "type": "function"
    },
    {
      "inputs": [],
      "name": "companyTurnoverTimeLimit",
      "outputs": [
        {
          "internalType": "uint256",
          "name": "",
          "type": "uint256"
        }
      ],
      "stateMutability": "view",
      "type": "function"
    },
    {
      "inputs": [],
      "name": "companyTurnoverTimeStamp",
      "outputs": [
        {
          "internalType": "uint256",
          "name": "",
          "type": "uint256"
        }
      ],
      "stateMutability": "view",
      "type": "function"
    },
    {
      "inputs": [],
      "name": "companyTurnoverWithTimeLimit",
      "outputs": [
        {
          "internalType": "uint256",
          "name": "",
          "type": "uint256"
        }
      ],
      "stateMutability": "view",
      "type": "function"
    },
    {
      "inputs": [],
      "name": "decimals",
      "outputs": [
        {
          "internalType": "uint16",
          "name": "",
          "type": "uint16"
        }
      ],
      "stateMutability": "view",
      "type": "function"
    },
    {
      "inputs": [
        {
          "internalType": "uint256",
          "name": "_number",
          "type": "uint256"
        }
      ],
      "name": "deleteAllROIs",
      "outputs": [],
      "stateMutability": "nonpayable",
      "type": "function"
    },
    {
      "inputs": [
        {
          "internalType": "uint32",
          "name": "_from",
          "type": "uint32"
        },
        {
          "internalType": "uint32",
          "name": "_to",
          "type": "uint32"
        }
      ],
      "name": "deleteDirectBusiness",
      "outputs": [],
      "stateMutability": "nonpayable",
      "type": "function"
    },
    {
      "inputs": [
        {
          "internalType": "uint32",
          "name": "_from",
          "type": "uint32"
        },
        {
          "internalType": "uint32",
          "name": "_to",
          "type": "uint32"
        }
      ],
      "name": "deleteROIDetails",
      "outputs": [],
      "stateMutability": "nonpayable",
      "type": "function"
    },
    {
      "inputs": [
        {
          "internalType": "uint32",
          "name": "_from",
          "type": "uint32"
        },
        {
          "internalType": "uint32",
          "name": "_to",
          "type": "uint32"
        }
      ],
      "name": "deleteUserLimit",
      "outputs": [],
      "stateMutability": "nonpayable",
      "type": "function"
    },
    {
      "inputs": [
        {
          "internalType": "address",
          "name": "_userAddress",
          "type": "address"
        }
      ],
      "name": "disableUserAdmin",
      "outputs": [],
      "stateMutability": "nonpayable",
      "type": "function"
    },
    {
      "inputs": [
        {
          "internalType": "uint32",
          "name": "_id",
          "type": "uint32"
        }
      ],
      "name": "getIDAccount",
      "outputs": [
        {
          "components": [
            {
              "internalType": "uint32",
              "name": "id",
              "type": "uint32"
            },
            {
              "internalType": "string",
              "name": "oldID",
              "type": "string"
            },
            {
              "internalType": "bool",
              "name": "isActive",
              "type": "bool"
            },
            {
              "internalType": "address",
              "name": "owner",
              "type": "address"
            },
            {
              "internalType": "uint256",
              "name": "joiningTime",
              "type": "uint256"
            },
            {
              "internalType": "uint256",
              "name": "deactivateTime",
              "type": "uint256"
            },
            {
              "internalType": "uint32",
              "name": "refererID",
              "type": "uint32"
            },
            {
              "internalType": "uint32[]",
              "name": "refereeIDs",
              "type": "uint32[]"
            },
            {
              "internalType": "uint32[]",
              "name": "teamIDs",
              "type": "uint32[]"
            },
            {
              "internalType": "uint32[]",
              "name": "teamLevel",
              "type": "uint32[]"
            },
            {
              "internalType": "uint256",
              "name": "selfBusiness",
              "type": "uint256"
            },
            {
              "internalType": "uint256",
              "name": "selfBusinessOld",
              "type": "uint256"
            },
            {
              "internalType": "uint256",
              "name": "directBusiness",
              "type": "uint256"
            },
            {
              "internalType": "uint256",
              "name": "directBusinessOld",
              "type": "uint256"
            },
            {
              "internalType": "uint256",
              "name": "teamBusiness",
              "type": "uint256"
            },
            {
              "internalType": "uint256",
              "name": "teamBusinessOld",
              "type": "uint256"
            },
            {
              "internalType": "uint256",
              "name": "royaltyClubBusiness",
              "type": "uint256"
            },
            {
              "internalType": "uint256",
              "name": "timeStampRoyaltyClub",
              "type": "uint256"
            },
            {
              "internalType": "uint8",
              "name": "royaltyClubPackageID",
              "type": "uint8"
            },
            {
              "internalType": "uint256",
              "name": "royaltyClubListIndex",
              "type": "uint256"
            },
            {
              "internalType": "uint256",
              "name": "referralPaid",
              "type": "uint256"
            },
            {
              "internalType": "uint256",
              "name": "rewardPaidRoyaltyClub",
              "type": "uint256"
            },
            {
              "internalType": "uint256",
              "name": "totalTopUp",
              "type": "uint256"
            },
            {
              "internalType": "uint256",
              "name": "totalIncome",
              "type": "uint256"
            },
            {
              "internalType": "uint256",
              "name": "totalMaxLimitAmount",
              "type": "uint256"
            },
            {
              "internalType": "uint256",
              "name": "currentTopUp",
              "type": "uint256"
            },
            {
              "internalType": "uint256",
              "name": "currentTopUpTime",
              "type": "uint256"
            },
            {
              "internalType": "uint256",
              "name": "totalROIClaimed",
              "type": "uint256"
            },
            {
              "internalType": "uint32[]",
              "name": "roiIDs",
              "type": "uint32[]"
            },
            {
              "internalType": "uint256",
              "name": "roiClaimed",
              "type": "uint256"
            },
            {
              "internalType": "uint256",
              "name": "roiClaimedTimestamp",
              "type": "uint256"
            },
            {
              "internalType": "uint256",
              "name": "balanceClaimed",
              "type": "uint256"
            }
          ],
          "internalType": "struct ReferralV3Upgradeable.StructID",
          "name": "",
          "type": "tuple"
        }
      ],
      "stateMutability": "view",
      "type": "function"
    },
    {
      "inputs": [],
      "name": "getMinContributionETH",
      "outputs": [
        {
          "internalType": "uint256",
          "name": "",
          "type": "uint256"
        }
      ],
      "stateMutability": "view",
      "type": "function"
    },
    {
      "inputs": [],
      "name": "getPriceOracleContract",
      "outputs": [
        {
          "internalType": "address",
          "name": "",
          "type": "address"
        }
      ],
      "stateMutability": "view",
      "type": "function"
    },
    {
      "inputs": [
        {
          "internalType": "uint32",
          "name": "_roiID",
          "type": "uint32"
        }
      ],
      "name": "getROIAccount",
      "outputs": [
        {
          "components": [
            {
              "internalType": "uint32",
              "name": "id",
              "type": "uint32"
            },
            {
              "internalType": "bool",
              "name": "isActive",
              "type": "bool"
            },
            {
              "internalType": "uint32",
              "name": "ownerID",
              "type": "uint32"
            },
            {
              "internalType": "uint256",
              "name": "value",
              "type": "uint256"
            },
            {
              "internalType": "uint16",
              "name": "roiRate",
              "type": "uint16"
            },
            {
              "internalType": "uint256",
              "name": "startTime",
              "type": "uint256"
            }
          ],
          "internalType": "struct ReferralV3Upgradeable.StructROI",
          "name": "",
          "type": "tuple"
        }
      ],
      "stateMutability": "view",
      "type": "function"
    },
    {
      "inputs": [
        {
          "internalType": "address",
          "name": "_address",
          "type": "address"
        }
      ],
      "name": "getUserAccount",
      "outputs": [
        {
          "components": [
            {
              "internalType": "bool",
              "name": "isDisabled",
              "type": "bool"
            },
            {
              "internalType": "uint32[]",
              "name": "accountIDs",
              "type": "uint32[]"
            }
          ],
          "internalType": "struct ReferralV3Upgradeable.StructAccount",
          "name": "",
          "type": "tuple"
        }
      ],
      "stateMutability": "view",
      "type": "function"
    },
    {
      "inputs": [
        {
          "internalType": "uint32",
          "name": "_id",
          "type": "uint32"
        }
      ],
      "name": "getUserIDTotalROI",
      "outputs": [
        {
          "internalType": "uint256",
          "name": "",
          "type": "uint256"
        }
      ],
      "stateMutability": "view",
      "type": "function"
    },
    {
      "inputs": [
        {
          "internalType": "uint32",
          "name": "_id",
          "type": "uint32"
        }
      ],
      "name": "getUserTotalActiveROIValue",
      "outputs": [
        {
          "internalType": "uint256",
          "name": "",
          "type": "uint256"
        }
      ],
      "stateMutability": "view",
      "type": "function"
    },
    {
      "inputs": [
        {
          "internalType": "uint32",
          "name": "_id",
          "type": "uint32"
        }
      ],
      "name": "getUserUnlockCount",
      "outputs": [
        {
          "internalType": "uint256",
          "name": "",
          "type": "uint256"
        }
      ],
      "stateMutability": "view",
      "type": "function"
    },
    {
      "inputs": [],
      "name": "initialize",
      "outputs": [],
      "stateMutability": "nonpayable",
      "type": "function"
    },
    {
      "inputs": [],
      "name": "isPayROI",
      "outputs": [
        {
          "internalType": "bool",
          "name": "",
          "type": "bool"
        }
      ],
      "stateMutability": "view",
      "type": "function"
    },
    {
      "inputs": [],
      "name": "isPayRoyaltyClubBonus",
      "outputs": [
        {
          "internalType": "bool",
          "name": "",
          "type": "bool"
        }
      ],
      "stateMutability": "view",
      "type": "function"
    },
    {
      "inputs": [
        {
          "internalType": "address",
          "name": "_userAddress",
          "type": "address"
        }
      ],
      "name": "isUserDisabledByAdmin",
      "outputs": [
        {
          "internalType": "bool",
          "name": "",
          "type": "bool"
        }
      ],
      "stateMutability": "view",
      "type": "function"
    },
    {
      "inputs": [
        {
          "internalType": "uint256",
          "name": "",
          "type": "uint256"
        }
      ],
      "name": "levelRates",
      "outputs": [
        {
          "internalType": "uint16",
          "name": "",
          "type": "uint16"
        }
      ],
      "stateMutability": "view",
      "type": "function"
    },
    {
      "inputs": [],
      "name": "maxLevelsCount",
      "outputs": [
        {
          "internalType": "uint8",
          "name": "",
          "type": "uint8"
        }
      ],
      "stateMutability": "view",
      "type": "function"
    },
    {
      "inputs": [],
      "name": "minContributionIn",
      "outputs": [
        {
          "internalType": "uint256",
          "name": "",
          "type": "uint256"
        }
      ],
      "stateMutability": "view",
      "type": "function"
    },
    {
      "inputs": [],
      "name": "owner",
      "outputs": [
        {
          "internalType": "address",
          "name": "",
          "type": "address"
        }
      ],
      "stateMutability": "view",
      "type": "function"
    },
    {
      "inputs": [],
      "name": "packagesCount",
      "outputs": [
        {
          "internalType": "uint8",
          "name": "",
          "type": "uint8"
        }
      ],
      "stateMutability": "view",
      "type": "function"
    },
    {
      "inputs": [],
      "name": "proxiableUUID",
      "outputs": [
        {
          "internalType": "bytes32",
          "name": "",
          "type": "bytes32"
        }
      ],
      "stateMutability": "view",
      "type": "function"
    },
    {
      "inputs": [
        {
          "internalType": "address",
          "name": "_userAddress",
          "type": "address"
        }
      ],
      "name": "removeUserFromDisableList",
      "outputs": [],
      "stateMutability": "nonpayable",
      "type": "function"
    },
    {
      "inputs": [],
      "name": "renounceOwnership",
      "outputs": [],
      "stateMutability": "nonpayable",
      "type": "function"
    },
    {
      "inputs": [],
      "name": "royaltyClubPackageCount",
      "outputs": [
        {
          "internalType": "uint8",
          "name": "",
          "type": "uint8"
        }
      ],
      "stateMutability": "view",
      "type": "function"
    },
    {
      "inputs": [
        {
          "internalType": "address",
          "name": "_address",
          "type": "address"
        },
        {
          "internalType": "uint256",
          "name": "_value",
          "type": "uint256"
        }
      ],
      "name": "sendETHAdmin",
      "outputs": [],
      "stateMutability": "nonpayable",
      "type": "function"
    },
    {
      "inputs": [
        {
          "internalType": "address",
          "name": "_adminAddress",
          "type": "address"
        }
      ],
      "name": "setAdmin",
      "outputs": [],
      "stateMutability": "nonpayable",
      "type": "function"
    },
    {
      "inputs": [
        {
          "internalType": "uint256",
          "name": "_valueWei",
          "type": "uint256"
        }
      ],
      "name": "setMinContribution",
      "outputs": [],
      "stateMutability": "nonpayable",
      "type": "function"
    },
    {
      "inputs": [
        {
          "internalType": "address",
          "name": "_contractAddress",
          "type": "address"
        }
      ],
      "name": "setPriceOracleContract",
      "outputs": [],
      "stateMutability": "nonpayable",
      "type": "function"
    },
    {
      "inputs": [
        {
          "internalType": "uint16",
          "name": "_roiRateInDecimals",
          "type": "uint16"
        },
        {
          "internalType": "uint256",
          "name": "_roiDurationInDays",
          "type": "uint256"
        },
        {
          "internalType": "uint256",
          "name": "_roiClaimTimelimitInSeconds",
          "type": "uint256"
        }
      ],
      "name": "setROI",
      "outputs": [],
      "stateMutability": "nonpayable",
      "type": "function"
    },
    {
      "inputs": [
        {
          "internalType": "uint32",
          "name": "_count",
          "type": "uint32"
        }
      ],
      "name": "setROIIDCount",
      "outputs": [],
      "stateMutability": "nonpayable",
      "type": "function"
    },
    {
      "inputs": [],
      "name": "totalIDs",
      "outputs": [
        {
          "internalType": "uint32",
          "name": "",
          "type": "uint32"
        }
      ],
      "stateMutability": "view",
      "type": "function"
    },
    {
      "inputs": [],
      "name": "totalROIIDs",
      "outputs": [
        {
          "internalType": "uint32",
          "name": "",
          "type": "uint32"
        }
      ],
      "stateMutability": "view",
      "type": "function"
    },
    {
      "inputs": [],
      "name": "totalROIPaid",
      "outputs": [
        {
          "internalType": "uint256",
          "name": "",
          "type": "uint256"
        }
      ],
      "stateMutability": "view",
      "type": "function"
    },
    {
      "inputs": [],
      "name": "totalReferralPaid",
      "outputs": [
        {
          "internalType": "uint256",
          "name": "",
          "type": "uint256"
        }
      ],
      "stateMutability": "view",
      "type": "function"
    },
    {
      "inputs": [],
      "name": "totalRoyaltyClubBonusPaid",
      "outputs": [
        {
          "internalType": "uint256",
          "name": "",
          "type": "uint256"
        }
      ],
      "stateMutability": "view",
      "type": "function"
    },
    {
      "inputs": [],
      "name": "totalRoyaltyClubBonusPaidETH",
      "outputs": [
        {
          "internalType": "uint256",
          "name": "",
          "type": "uint256"
        }
      ],
      "stateMutability": "view",
      "type": "function"
    },
    {
      "inputs": [
        {
          "internalType": "uint32",
          "name": "_id",
          "type": "uint32"
        }
      ],
      "name": "totalTopUpID",
      "outputs": [],
      "stateMutability": "payable",
      "type": "function"
    },
    {
      "inputs": [],
      "name": "totalUsers",
      "outputs": [
        {
          "internalType": "uint32",
          "name": "",
          "type": "uint32"
        }
      ],
      "stateMutability": "view",
      "type": "function"
    },
    {
      "inputs": [
        {
          "internalType": "address",
          "name": "newOwner",
          "type": "address"
        }
      ],
      "name": "transferOwnership",
      "outputs": [],
      "stateMutability": "nonpayable",
      "type": "function"
    },
    {
      "inputs": [
        {
          "internalType": "uint32",
          "name": "_from",
          "type": "uint32"
        },
        {
          "internalType": "uint32",
          "name": "_to",
          "type": "uint32"
        }
      ],
      "name": "updateDirectBusiness",
      "outputs": [],
      "stateMutability": "nonpayable",
      "type": "function"
    },
    {
      "inputs": [
        {
          "internalType": "uint32[]",
          "name": "_id",
          "type": "uint32[]"
        },
        {
          "internalType": "uint256[]",
          "name": "_joiningTime",
          "type": "uint256[]"
        }
      ],
      "name": "updateIDJoinTime",
      "outputs": [],
      "stateMutability": "nonpayable",
      "type": "function"
    },
    {
      "inputs": [
        {
          "internalType": "uint32",
          "name": "_from",
          "type": "uint32"
        },
        {
          "internalType": "uint32",
          "name": "_to",
          "type": "uint32"
        },
        {
          "internalType": "uint256[]",
          "name": "_topUp",
          "type": "uint256[]"
        },
        {
          "internalType": "uint256[]",
          "name": "_activationTime",
          "type": "uint256[]"
        }
      ],
      "name": "updateIDtotalTopUpDetails",
      "outputs": [],
      "stateMutability": "nonpayable",
      "type": "function"
    },
    {
      "inputs": [
        {
          "internalType": "uint32",
          "name": "_from",
          "type": "uint32"
        },
        {
          "internalType": "uint32",
          "name": "_to",
          "type": "uint32"
        }
      ],
      "name": "updateSelfDirectBusiness",
      "outputs": [],
      "stateMutability": "nonpayable",
      "type": "function"
    },
    {
      "inputs": [
        {
          "internalType": "uint32",
          "name": "_value",
          "type": "uint32"
        }
      ],
      "name": "updateTotalIDs",
      "outputs": [],
      "stateMutability": "nonpayable",
      "type": "function"
    },
    {
      "inputs": [
        {
          "internalType": "uint32",
          "name": "_from",
          "type": "uint32"
        },
        {
          "internalType": "uint32",
          "name": "_to",
          "type": "uint32"
        },
        {
          "internalType": "uint256[]",
          "name": "_totalTopUp",
          "type": "uint256[]"
        },
        {
          "internalType": "uint256[]",
          "name": "_totalIncome",
          "type": "uint256[]"
        }
      ],
      "name": "updateUserlimits",
      "outputs": [],
      "stateMutability": "nonpayable",
      "type": "function"
    },
    {
      "inputs": [
        {
          "internalType": "address",
          "name": "newImplementation",
          "type": "address"
        }
      ],
      "name": "upgradeTo",
      "outputs": [],
      "stateMutability": "nonpayable",
      "type": "function"
    },
    {
      "inputs": [
        {
          "internalType": "address",
          "name": "newImplementation",
          "type": "address"
        },
        {
          "internalType": "bytes",
          "name": "data",
          "type": "bytes"
        }
      ],
      "name": "upgradeToAndCall",
      "outputs": [],
      "stateMutability": "payable",
      "type": "function"
    },
    {
      "inputs": [],
      "name": "withdrawETHAdmin",
      "outputs": [],
      "stateMutability": "nonpayable",
      "type": "function"
    },
    {
      "inputs": [
        {
          "internalType": "address",
          "name": "_tokenAddress",
          "type": "address"
        },
        {
          "internalType": "uint256",
          "name": "_value",
          "type": "uint256"
        }
      ],
      "name": "withdrawTokensAdmin",
      "outputs": [],
      "stateMutability": "nonpayable",
      "type": "function"
    },
    {
      "stateMutability": "payable",
      "type": "receive"
    }
  ],
  "bytecode": "0x60a06040523060805234801561001457600080fd5b50608051615e2e6200004d60003960008181610edb01528181610f1b01528181611290015281816112d001526114850152615e2e6000f3fe60806040526004361061039b5760003560e01c80638891df2b116101dc578063cf35728b11610102578063ef2f824f116100a0578063f830e57b1161006f578063f830e57b14610b86578063fafc959714610bb3578063fb47e01614610bd2578063ff4ec1f114610bff57600080fd5b8063ef2f824f14610b10578063f2fde38b14610b30578063f31a2d0f14610b50578063f41bfeef14610b7057600080fd5b8063da1e7c6e116100dc578063da1e7c6e14610a9d578063e52356f314610abd578063e5682e3814610add578063ea62f71514610af057600080fd5b8063cf35728b14610a3d578063d27b9a5014610a5d578063d895af2c14610a7d57600080fd5b8063af2f39d11161017a578063c3ab5ebf11610149578063c3ab5ebf146108bd578063c7464ea4146109dd578063c81ea216146109fd578063c82801ca14610a1d57600080fd5b8063af2f39d114610846578063b47181d314610860578063bf46de6314610880578063bff1f9e1146108a057600080fd5b80639f4e8398116101b65780639f4e8398146107c2578063a0b6105f146107e2578063a1b8017514610802578063a28a36861461082657600080fd5b80638891df2b146107645780638da5cb5b146107845780638df05d9c146107a257600080fd5b80633659cfe6116102c15780635e701d861161025f5780637879b5ef1161022e5780637879b5ef146107035780637c599486146107235780638129fc1c14610739578063852ff2fd1461074e57600080fd5b80635e701d8614610675578063704b6c02146106ae57806370d9e081146106ce578063715018a6146106ee57600080fd5b80634f1ef2861161029b5780634f1ef286146105e45780634f9c5aff146105f757806352d1902d14610617578063538ffe0c1461062c57600080fd5b80633659cfe614610584578063473b0d46146105a457806349b32504146105c457600080fd5b80631f7f83ba116103395780632ed421d2116103085780632ed421d21461051557806330abbcc51461052b578063313ce56714610541578063357597881461056f57600080fd5b80631f7f83ba146104ac5780631f9e65e4146104cc57806322f88b52146104e15780632913497b146104f757600080fd5b806314bfd6d01161037557806314bfd6d01461041257806318e10bff1461044a57806319b8bdf2146104765780631c961c051461049657600080fd5b806309de82cd146103a75780630b243dad146103d05780630efdbb6a146103f257600080fd5b366103a257005b600080fd5b3480156103b357600080fd5b506103bd60ce5481565b6040519081526020015b60405180910390f35b3480156103dc57600080fd5b506103f06103eb36600461522a565b610c12565b005b3480156103fe57600080fd5b506103f061040d366004615254565b610c55565b34801561041e57600080fd5b5061043261042d36600461526f565b610d37565b6040516001600160a01b0390911681526020016103c7565b34801561045657600080fd5b5060d9546104649060ff1681565b60405160ff90911681526020016103c7565b34801561048257600080fd5b506103f061049136600461529c565b610d61565b3480156104a257600080fd5b506103bd60cc5481565b3480156104b857600080fd5b506104326104c736600461526f565b610e78565b3480156104d857600080fd5b506103bd610e88565b3480156104ed57600080fd5b506103bd60d55481565b34801561050357600080fd5b5060c9546001600160a01b0316610432565b34801561052157600080fd5b506103bd60d65481565b34801561053757600080fd5b506103bd60d05481565b34801561054d57600080fd5b5060cb5461055c9061ffff1681565b60405161ffff90911681526020016103c7565b34801561057b57600080fd5b506103f0610e9a565b34801561059057600080fd5b506103f061059f366004615254565b610ed1565b3480156105b057600080fd5b506103f06105bf36600461526f565b610fad565b3480156105d057600080fd5b506103f06105df36600461531b565b610fba565b6103f06105f23660046153a4565b611286565b34801561060357600080fd5b506103f061061236600461529c565b611352565b34801561062357600080fd5b506103bd611478565b34801561063857600080fd5b50610665610647366004615254565b6001600160a01b0316600090815260da602052604090205460ff1690565b60405190151581526020016103c7565b34801561068157600080fd5b5060d15461069990600160201b900463ffffffff1681565b60405163ffffffff90911681526020016103c7565b3480156106ba57600080fd5b506103f06106c9366004615254565b61152b565b3480156106da57600080fd5b506103f06106e936600461544a565b611585565b3480156106fa57600080fd5b506103f061165e565b34801561070f57600080fd5b5061055c61071e36600461526f565b611672565b34801561072f57600080fd5b506103bd60cf5481565b34801561074557600080fd5b506103f06116aa565b34801561075a57600080fd5b506103bd60cd5481565b34801561077057600080fd5b506103f061077f3660046154e5565b61194a565b34801561079057600080fd5b506033546001600160a01b0316610432565b3480156107ae57600080fd5b5060cb546104649062010000900460ff1681565b3480156107ce57600080fd5b506103f06107dd366004615254565b611ad5565b3480156107ee57600080fd5b506103f06107fd36600461522a565b611bf1565b34801561080e57600080fd5b5060d15461069990600160401b900463ffffffff1681565b34801561083257600080fd5b5060d4546104649062010000900460ff1681565b34801561085257600080fd5b5060d4546106659060ff1681565b34801561086c57600080fd5b506103bd61087b36600461544a565b611c6a565b34801561088c57600080fd5b506103bd61089b36600461544a565b612088565b3480156108ac57600080fd5b5060d1546106999063ffffffff1681565b3480156108c957600080fd5b506109816108d836600461544a565b6040805160c081018252600080825260208201819052918101829052606081018290526080810182905260a08101919091525063ffffffff908116600090815260dc6020908152604091829020825160c0810184528154808616825260ff600160201b820416151593820193909352650100000000009092049093169181019190915260018201546060820152600282015461ffff16608082015260039091015460a082015290565b6040516103c79190600060c08201905063ffffffff808451168352602084015115156020840152806040850151166040840152506060830151606083015261ffff608084015116608083015260a083015160a083015292915050565b3480156109e957600080fd5b506103f06109f836600461529c565b612099565b348015610a0957600080fd5b506103f0610a1836600461556a565b612209565b348015610a2957600080fd5b506103f0610a383660046155d6565b612358565b348015610a4957600080fd5b506103f0610a5836600461529c565b612440565b348015610a6957600080fd5b506103f0610a7836600461529c565b612535565b348015610a8957600080fd5b506103f0610a9836600461544a565b612676565b348015610aa957600080fd5b506103f0610ab836600461526f565b61274e565b348015610ac957600080fd5b506103f0610ad8366004615254565b612851565b6103f0610aeb36600461544a565b612a26565b348015610afc57600080fd5b506103bd610b0b36600461544a565b612b96565b348015610b1c57600080fd5b506103f0610b2b366004615612565b612cbb565b348015610b3c57600080fd5b506103f0610b4b366004615254565b612f87565b348015610b5c57600080fd5b506103f0610b6b3660046156a3565b612ffd565b348015610b7c57600080fd5b506103bd60d75481565b348015610b9257600080fd5b50610ba6610ba136600461544a565b613149565b6040516103c79190615750565b348015610bbf57600080fd5b5060d45461066590610100900460ff1681565b348015610bde57600080fd5b50610bf2610bed366004615254565b613661565b6040516103c7919061597e565b6103f0610c0d36600461544a565b61372c565b610c1a61386b565b6040516001600160a01b0383169082156108fc029083906000818181858888f19350505050158015610c50573d6000803e3d6000fd5b505050565b60005b60de5460ff82161015610d335760de8160ff1681548110610c7b57610c7b6159a5565b6000918252602090912001546001600160a01b03163303610cb75760c980546001600160a01b0384166001600160a01b03199091161790555050565b60de54610cc6906001906159d1565b8160ff1603610d215760de8160ff1681548110610ce557610ce56159a5565b6000918252602090912001546001600160a01b03163314610d215760405162461bcd60e51b8152600401610d18906159e4565b60405180910390fd5b80610d2b81615a0f565b915050610c58565b5050565b60de8181548110610d4757600080fd5b6000918252602090912001546001600160a01b0316905081565b60005b60de5460ff82161015610c505760de8160ff1681548110610d8757610d876159a5565b6000918252602090912001546001600160a01b03163303610e0557825b8263ffffffff168163ffffffff161015610dff5763ffffffff8116600090815260db60205260408120601681018290556017810182905560158101829055600a8101829055600c015580610df781615a2e565b915050610da4565b50505050565b60de54610e14906001906159d1565b8160ff1603610e665760de8160ff1681548110610e3357610e336159a5565b6000918252602090912001546001600160a01b03163314610e665760405162461bcd60e51b8152600401610d18906159e4565b80610e7081615a0f565b915050610d64565b60d88181548110610d4757600080fd5b6000610e9560cc546138c5565b905090565b610ea261386b565b60405133904780156108fc02916000818181858888f19350505050158015610ece573d6000803e3d6000fd5b50565b6001600160a01b037f0000000000000000000000000000000000000000000000000000000000000000163003610f195760405162461bcd60e51b8152600401610d1890615a51565b7f00000000000000000000000000000000000000000000000000000000000000006001600160a01b0316610f62600080516020615db2833981519152546001600160a01b031690565b6001600160a01b031614610f885760405162461bcd60e51b8152600401610d1890615a9d565b610f918161395b565b60408051600080825260208201909252610ece91839190613963565b610fb561386b565b60cc55565b60005b60de5460ff82161015610c505760de8160ff1681548110610fe057610fe06159a5565b6000918252602090912001546001600160a01b031633036112135760005b63ffffffff8116831115610dff57600060db600086868563ffffffff1681811061102a5761102a6159a5565b905060200201602081019061103f919061544a565b63ffffffff1681526020810191909152604001600090812060cb5490925062010000900460ff16905b8160ff168163ffffffff1610156111fd57600583015463ffffffff908116600081815260db602052604081208654929390921690036110a85750506111fd565b8060070189898863ffffffff168181106110c4576110c46159a5565b90506020020160208101906110d9919061544a565b815460018082018455600093845260209093206008808304909101805460079093166004026101000a63ffffffff81810219909416949093169290920292909217905582019061112a908590615ae9565b8154600181018355600092835260209092206008830401805460079093166004026101000a63ffffffff818102199094169284160291909117905589908990881681811061117a5761117a6159a5565b905060200201602081019061118f919061544a565b6002820154825460405163ffffffff9182168152928116929085169161010090046001600160a01b0316907fa7fafc728ec30e34dc1e1276496bf3eb44ca7494679da969455289e6a8f0f1f69060200160405180910390a493508190506111f581615a2e565b915050611068565b505050808061120b90615a2e565b915050610ffe565b60de54611222906001906159d1565b8160ff16036112745760de8160ff1681548110611241576112416159a5565b6000918252602090912001546001600160a01b031633146112745760405162461bcd60e51b8152600401610d18906159e4565b8061127e81615a0f565b915050610fbd565b6001600160a01b037f00000000000000000000000000000000000000000000000000000000000000001630036112ce5760405162461bcd60e51b8152600401610d1890615a51565b7f00000000000000000000000000000000000000000000000000000000000000006001600160a01b0316611317600080516020615db2833981519152546001600160a01b031690565b6001600160a01b03161461133d5760405162461bcd60e51b8152600401610d1890615a9d565b6113468261395b565b610d3382826001613963565b60005b60de5460ff82161015610c505760de8160ff1681548110611378576113786159a5565b6000918252602090912001546001600160a01b0316330361140557825b8263ffffffff168163ffffffff161015610dff5763ffffffff808216600090815260db60205260408082206005810154909316825281206015830154600c82018054929391929091906113e9908490615b0d565b92505081905550505080806113fd90615a2e565b915050611395565b60de54611414906001906159d1565b8160ff16036114665760de8160ff1681548110611433576114336159a5565b6000918252602090912001546001600160a01b031633146114665760405162461bcd60e51b8152600401610d18906159e4565b8061147081615a0f565b915050611355565b6000306001600160a01b037f000000000000000000000000000000000000000000000000000000000000000016146115185760405162461bcd60e51b815260206004820152603860248201527f555550535570677261646561626c653a206d757374206e6f742062652063616c60448201527f6c6564207468726f7567682064656c656761746563616c6c00000000000000006064820152608401610d18565b50600080516020615db283398151915290565b61153361386b565b60de80546001810182556000919091527ffae8130c0619f84b4b44f01b84806f04e82e536d70e05f2356977fa318aecc1a0180546001600160a01b0319166001600160a01b0392909216919091179055565b60005b60de5460ff82161015610d335760de8160ff16815481106115ab576115ab6159a5565b6000918252602090912001546001600160a01b031633036115eb5760d1805463ffffffff8416600160201b0267ffffffff00000000199091161790555050565b60de546115fa906001906159d1565b8160ff160361164c5760de8160ff1681548110611619576116196159a5565b6000918252602090912001546001600160a01b0316331461164c5760405162461bcd60e51b8152600401610d18906159e4565b8061165681615a0f565b915050611588565b61166661386b565b6116706000613ace565b565b60ca818154811061168257600080fd5b9060005260206000209060109182820401919006600202915054906101000a900461ffff1681565b600054610100900460ff16158080156116ca5750600054600160ff909116105b806116e45750303b1580156116e4575060005460ff166001145b6117475760405162461bcd60e51b815260206004820152602e60248201527f496e697469616c697a61626c653a20636f6e747261637420697320616c72656160448201526d191e481a5b9a5d1a585b1a5e995960921b6064820152608401610d18565b6000805460ff19166001179055801561176a576000805461ff0019166101001790555b60c980546001600160a01b03191673286d6392042b4d7180fd6d20f8d35c877681577417905560cb805461ffff19166103e8179055604080516103a08101825260648152604660208201526032918101829052606081018290526080810182905260a0810182905260c0810182905260e08101829052610100810182905261012081018290526101408101829052610160810182905261018081018290526101a081018290526101c081018290526101e08101829052610200810182905261022081018290526102408101919091526014610260820181905261028082018190526102a082018190526102c082018190526102e0820181905261030082018190526103208201819052610340820181905261036082018190526103808201526118979060ca90601d6150b4565b5060cb805462ff0000191662320000179055670de0b6b3a764000060cc5560d4805463ff00ffff1916630200000117905560d1805461ffff60601b1916607d60631b17905563020f580060d2556201518060d35562278d0060d7556118fa613b20565b611902613b4f565b8015610ece576000805461ff0019169055604051600181527f7f26b83ff96e1f2b6a682f133852f6798a09c465da95921460cefb38474024989060200160405180910390a150565b60005b60de5460ff82161015611ace5760de8160ff1681548110611970576119706159a5565b6000918252602090912001546001600160a01b03163303611a5b576000855b8563ffffffff168163ffffffff161015611a54576000858363ffffffff16815181106119bd576119bd6159a5565b602002602001015190506000811115611a335763ffffffff808316600090815260db602052604090208651909187919086169081106119fe576119fe6159a5565b60209081029190910101516016820155611a19826003615b20565b601782015560158101829055600a8101829055601e018190555b82611a3d81615a2e565b935050508080611a4c90615a2e565b91505061198f565b5050611ace565b60de54611a6a906001906159d1565b8160ff1603611abc5760de8160ff1681548110611a8957611a896159a5565b6000918252602090912001546001600160a01b03163314611abc5760405162461bcd60e51b8152600401610d18906159e4565b80611ac681615a0f565b91505061194d565b5050505050565b60005b60de5460ff82161015610d335760de8160ff1681548110611afb57611afb6159a5565b6000918252602090912001546001600160a01b03163303611b7e5760d8805460018181019092557f5320ad99a619a90804cd2efe3a5cf0ac1ac5c41ad9ff2c61cf699efdad7710960180546001600160a01b0385166001600160a01b03199091168117909155600090815260da60205260409020805460ff191690911790555050565b60de54611b8d906001906159d1565b8160ff1603611bdf5760de8160ff1681548110611bac57611bac6159a5565b6000918252602090912001546001600160a01b03163314611bdf5760405162461bcd60e51b8152600401610d18906159e4565b80611be981615a0f565b915050611ad8565b611bf961386b565b60405163a9059cbb60e01b8152336004820152602481018290526001600160a01b0383169063a9059cbb906044016020604051808303816000875af1158015611c46573d6000803e3d6000fd5b505050506040513d601f19601f82011682018060405250810190610c509190615b37565b63ffffffff808216600090815260db60209081526040808320815161040081019092528054909416815260018401805493948594929390929084019190611cb090615b59565b80601f0160208091040260200160405190810160405280929190818152602001828054611cdc90615b59565b8015611d295780601f10611cfe57610100808354040283529160200191611d29565b820191906000526020600020905b815481529060010190602001808311611d0c57829003601f168201915b5050509183525050600282015460ff811615156020808401919091526101009091046001600160a01b03166040808401919091526003840154606084015260048401546080840152600584015463ffffffff1660a084015260068401805482518185028101850190935280835260c0909401939192909190830182828015611dfc57602002820191906000526020600020906000905b82829054906101000a900463ffffffff1663ffffffff1681526020019060040190602082600301049283019260010382029150808411611dbf5790505b5050505050815260200160078201805480602002602001604051908101604052809291908181526020018280548015611e8057602002820191906000526020600020906000905b82829054906101000a900463ffffffff1663ffffffff1681526020019060040190602082600301049283019260010382029150808411611e435790505b5050505050815260200160088201805480602002602001604051908101604052809291908181526020018280548015611f0457602002820191906000526020600020906000905b82829054906101000a900463ffffffff1663ffffffff1681526020019060040190602082600301049283019260010382029150808411611ec75790505b5050505050815260200160098201548152602001600a8201548152602001600b8201548152602001600c8201548152602001600d8201548152602001600e8201548152602001600f8201548152602001601082015481526020016011820160009054906101000a900460ff1660ff1660ff1681526020016012820154815260200160138201548152602001601482015481526020016015820154815260200160168201548152602001601782015481526020016018820154815260200160198201548152602001601a8201548152602001601b820180548060200260200160405190810160405280929190818152602001828054801561204f57602002820191906000526020600020906000905b82829054906101000a900463ffffffff1663ffffffff16815260200190600401906020826003010492830192600103820291508084116120125790505b50505050508152602001601c8201548152602001601d8201548152602001601e82015481525050905061208181613b76565b9392505050565b600061209382613bb2565b92915050565b60005b60de5460ff82161015610c505760de8160ff16815481106120bf576120bf6159a5565b6000918252602090912001546001600160a01b0316330361219657825b8263ffffffff168163ffffffff161015610dff5763ffffffff8116600090815260db602090815260408083206019810184905560d1805463ffffffff60401b1916905560dc835281842060038101859055805464ff000000001916815560018101859055601d8201859055805468ffffffff00000000001916815560028101805461ffff19169055825194855292840191829052925161218091601b85019161515c565b505050808061218e90615a2e565b9150506120dc565b60de546121a5906001906159d1565b8160ff16036121f75760de8160ff16815481106121c4576121c46159a5565b6000918252602090912001546001600160a01b031633146121f75760405162461bcd60e51b8152600401610d18906159e4565b8061220181615a0f565b91505061209c565b60005b60de5460ff82161015611ace5760de8160ff168154811061222f5761222f6159a5565b6000918252602090912001546001600160a01b031633036122e55760005b61ffff81168511156122df57600060db600088888561ffff16818110612275576122756159a5565b905060200201602081019061228a919061544a565b63ffffffff1663ffffffff168152602001908152602001600020905084848361ffff168181106122bc576122bc6159a5565b9050602002013581600301819055505080806122d790615b93565b91505061224d565b50611ace565b60de546122f4906001906159d1565b8160ff16036123465760de8160ff1681548110612313576123136159a5565b6000918252602090912001546001600160a01b031633146123465760405162461bcd60e51b8152600401610d18906159e4565b8061235081615a0f565b91505061220c565b60005b60de5460ff82161015610dff5760de8160ff168154811061237e5761237e6159a5565b6000918252602090912001546001600160a01b031633036123cd5760d1805461ffff60601b1916600160601b61ffff8716021790556123c08362015180615b20565b60d25560d3829055610dff565b60de546123dc906001906159d1565b8160ff160361242e5760de8160ff16815481106123fb576123fb6159a5565b6000918252602090912001546001600160a01b0316331461242e5760405162461bcd60e51b8152600401610d18906159e4565b8061243881615a0f565b91505061235b565b60005b60de5460ff82161015610c505760de8160ff1681548110612466576124666159a5565b6000918252602090912001546001600160a01b031633036124c257825b8263ffffffff168163ffffffff161015610dff5763ffffffff8116600090815260db60205260408120600c0155806124ba81615a2e565b915050612483565b60de546124d1906001906159d1565b8160ff16036125235760de8160ff16815481106124f0576124f06159a5565b6000918252602090912001546001600160a01b031633146125235760405162461bcd60e51b8152600401610d18906159e4565b8061252d81615a0f565b915050612443565b60005b60de5460ff82161015610c505760de8160ff168154811061255b5761255b6159a5565b6000918252602090912001546001600160a01b0316330361260357825b8263ffffffff168163ffffffff161015610dff5763ffffffff808216600090815260db60205260408082206005810154909316825290206015820154156125ee576015820154600a830155805463ffffffff16156125ee5781600a015481600c0160008282546125e89190615b0d565b90915550505b505080806125fb90615a2e565b915050612578565b60de54612612906001906159d1565b8160ff16036126645760de8160ff1681548110612631576126316159a5565b6000918252602090912001546001600160a01b031633146126645760405162461bcd60e51b8152600401610d18906159e4565b8061266e81615a0f565b915050612538565b60005b60de5460ff82161015610d335760de8160ff168154811061269c5761269c6159a5565b6000918252602090912001546001600160a01b031633036126db5760d1805463ffffffff8416600160401b0263ffffffff60401b199091161790555050565b60de546126ea906001906159d1565b8160ff160361273c5760de8160ff1681548110612709576127096159a5565b6000918252602090912001546001600160a01b0316331461273c5760405162461bcd60e51b8152600401610d18906159e4565b8061274681615a0f565b915050612679565b60005b60de5460ff82161015610d335760de8160ff1681548110612774576127746159a5565b6000918252602090912001546001600160a01b031633036127de5760005b828161ffff161015610c505761ffff8116600090815260dc60205260408120805468ffffffffff00000000191681556003810182905560010155806127d681615b93565b915050612792565b60de546127ed906001906159d1565b8160ff160361283f5760de8160ff168154811061280c5761280c6159a5565b6000918252602090912001546001600160a01b0316331461283f5760405162461bcd60e51b8152600401610d18906159e4565b8061284981615a0f565b915050612751565b60005b60de5460ff82161015610d335760de8160ff1681548110612877576128776159a5565b6000918252602090912001546001600160a01b031633036129b3576001600160a01b038216600090815260da60205260408120805460ff1916905560d854905b81811015610dff57836001600160a01b031660d882815481106128dc576128dc6159a5565b6000918252602090912001546001600160a01b0316036129a15760d86129036001846159d1565b81548110612913576129136159a5565b60009182526020909120015460d880546001600160a01b03909216918390811061293f5761293f6159a5565b9060005260206000200160006101000a8154816001600160a01b0302191690836001600160a01b0316021790555060d880548061297e5761297e615baa565b600082815260209020810160001990810180546001600160a01b03191690550190555b806129ab81615bc0565b9150506128b7565b60de546129c2906001906159d1565b8160ff1603612a145760de8160ff16815481106129e1576129e16159a5565b6000918252602090912001546001600160a01b03163314612a145760405162461bcd60e51b8152600401610d18906159e4565b80612a1e81615a0f565b915050612854565b346000612a32826140f2565b9050612a3f60cc546138c5565b821015612a8e5760405162461bcd60e51b815260206004820152601f60248201527f56616c75652073686f756c6420626520677265617465207468656e20313030006044820152606401610d18565b60d15433904290600090612ab090600160201b900463ffffffff166001615ae9565b60d154909150600090612ad190600160401b900463ffffffff166001615ae9565b6001600160a01b038516600090815260da6020526040902060d4549192509060ff1615612b0457612b048383888761417f565b612b4b83604051806020016040528060008152508a60405180602001604052806000815250898b8c6003612b389190615b20565b60cb548c9062010000900460ff16614276565b6001908101805491820181556000908152602090206008820401805460079092166004026101000a63ffffffff81810219909316949092169190910292909217909155505050505050565b63ffffffff8116600090815260db60209081526040808320601b0180548251818502810185019093528083528493830182828015612c1f57602002820191906000526020600020906000905b82829054906101000a900463ffffffff1663ffffffff1681526020019060040190602082600301049283019260010382029150808411612be25790505b505050505090506000805b82518161ffff161015612cb357600060dc6000858461ffff1681518110612c5357612c536159a5565b602002602001015163ffffffff1663ffffffff16815260200190815260200160002090508060000160049054906101000a900460ff1615612ca0576001810154612c9d9084615b0d565b92505b5080612cab81615b93565b915050612c2a565b509392505050565b60005b60de5460ff82161015612f7e5760de8160ff1681548110612ce157612ce16159a5565b6000918252602090912001546001600160a01b03163303612f0b5742875b8763ffffffff168163ffffffff161015612f045763ffffffff8116600090815260db6020526040812060d2549091908787612d3b600187615bd9565b63ffffffff16818110612d5057612d506159a5565b90506020020135612d619190615b0d565b905060008260150154118015612d7657508084105b8015612d9457506015820154612d8d906002615b20565b8260160154105b15612eef5786868463ffffffff16818110612db157612db16159a5565b602002919091013560198401555060d18054600091600160401b90910463ffffffff16906008612de083615a2e565b82546101009290920a63ffffffff8181021990931691831602179091558116600090815260dc60205260409020600381018790558054600160201b64ff00000000199091161781559091508a8a612e38600188615bd9565b63ffffffff16818110612e4d57612e4d6159a5565b60209081029290920135600180850191909155601d8701899055835463ffffffff808a16650100000000000268ffffffff00000000001990921691909117855560d1546002909501805461ffff191661ffff600160601b9097049690961695909517909455601b8701805491820181556000908152929092206008830401805494841660046007909416939093026101000a9283029290930219909316179055505b50508080612efc90615a2e565b915050612cff565b5050612f7e565b60de54612f1a906001906159d1565b8160ff1603612f6c5760de8160ff1681548110612f3957612f396159a5565b6000918252602090912001546001600160a01b03163314612f6c5760405162461bcd60e51b8152600401610d18906159e4565b80612f7681615a0f565b915050612cbe565b50505050505050565b612f8f61386b565b6001600160a01b038116612ff45760405162461bcd60e51b815260206004820152602660248201527f4f776e61626c653a206e6577206f776e657220697320746865207a65726f206160448201526564647265737360d01b6064820152608401610d18565b610ece81613ace565b63ffffffff8216600090815260db60205260409020600281015461010090046001600160a01b031633146130735760405162461bcd60e51b815260206004820152601d60248201527f596f7520617265206e6f74206f776e6572206f6620746869732069642e0000006044820152606401610d18565b600061307e8261454d565b601e83015490915061309081836159d1565b8411156130f25760405162461bcd60e51b815260206004820152602a60248201527f506c6561736520656e7465722076616c7565206c657373207468656e20796f7560448201526939103130b630b731b29760b11b6064820152608401610d18565b8383601e0160008282546131069190615b0d565b909155503390506108fc613119866138c5565b6040518115909202916000818181858888f19350505050158015613141573d6000803e3d6000fd5b505050505050565b613253604051806104000160405280600063ffffffff1681526020016060815260200160001515815260200160006001600160a01b031681526020016000815260200160008152602001600063ffffffff1681526020016060815260200160608152602001606081526020016000815260200160008152602001600081526020016000815260200160008152602001600081526020016000815260200160008152602001600060ff168152602001600081526020016000815260200160008152602001600081526020016000815260200160008152602001600081526020016000815260200160008152602001606081526020016000815260200160008152602001600081525090565b63ffffffff808316600090815260db602090815260409182902082516104008101909352805490931682526001830180549293929184019161329490615b59565b80601f01602080910402602001604051908101604052809291908181526020018280546132c090615b59565b801561330d5780601f106132e25761010080835404028352916020019161330d565b820191906000526020600020905b8154815290600101906020018083116132f057829003601f168201915b5050509183525050600282015460ff811615156020808401919091526101009091046001600160a01b03166040808401919091526003840154606084015260048401546080840152600584015463ffffffff1660a084015260068401805482518185028101850190935280835260c09094019391929091908301828280156133e057602002820191906000526020600020906000905b82829054906101000a900463ffffffff1663ffffffff16815260200190600401906020826003010492830192600103820291508084116133a35790505b505050505081526020016007820180548060200260200160405190810160405280929190818152602001828054801561346457602002820191906000526020600020906000905b82829054906101000a900463ffffffff1663ffffffff16815260200190600401906020826003010492830192600103820291508084116134275790505b50505050508152602001600882018054806020026020016040519081016040528092919081815260200182805480156134e857602002820191906000526020600020906000905b82829054906101000a900463ffffffff1663ffffffff16815260200190600401906020826003010492830192600103820291508084116134ab5790505b5050505050815260200160098201548152602001600a8201548152602001600b8201548152602001600c8201548152602001600d8201548152602001600e8201548152602001600f8201548152602001601082015481526020016011820160009054906101000a900460ff1660ff1660ff1681526020016012820154815260200160138201548152602001601482015481526020016015820154815260200160168201548152602001601782015481526020016018820154815260200160198201548152602001601a8201548152602001601b820180548060200260200160405190810160405280929190818152602001828054801561363357602002820191906000526020600020906000905b82829054906101000a900463ffffffff1663ffffffff16815260200190600401906020826003010492830192600103820291508084116135f65790505b50505050508152602001601c8201548152602001601d8201548152602001601e820154815250509050919050565b6040805180820190915260008152606060208201526001600160a01b038216600090815260da602090815260409182902082518084018452815460ff16151581526001820180548551818602810186019096528086529194929385810193929083018282801561371c57602002820191906000526020600020906000905b82829054906101000a900463ffffffff1663ffffffff16815260200190600401906020826003010492830192600103820291508084116136df5790505b5050505050815250509050919050565b60cc54349061373a906138c5565b81101561379d5760405162461bcd60e51b815260206004820152602b60248201527f56616c75652073686f756c6420626520677265617465207468656e206d696e4360448201526a37b73a3934b13aba34b7b760a91b6064820152608401610d18565b3360006137a9836140f2565b60d15490915042906000906137cc90600160401b900463ffffffff166001615ae9565b63ffffffff8716600090815260db602052604090206002810154919250906001600160a01b0386811661010090920416146138495760405162461bcd60e51b815260206004820152601d60248201527f596f7520617265206e6f74206f776e6572206f6620746869732069642e0000006044820152606401610d18565b60d45460ff1615613860576138608783868661417f565b612f7e878585614571565b6033546001600160a01b031633146116705760405162461bcd60e51b815260206004820181905260248201527f4f776e61626c653a2063616c6c6572206973206e6f7420746865206f776e65726044820152606401610d18565b60008060c960009054906101000a90046001600160a01b03166001600160a01b031663801dff416040518163ffffffff1660e01b8152600401602060405180830381865afa15801561391b573d6000803e3d6000fd5b505050506040513d601f19601f8201168201806040525081019061393f9190615bf6565b61395184670de0b6b3a7640000615b20565b6120819190615c0f565b610ece61386b565b7f4910fdfa16fed3260ed0e7147f7cc6da11a60208b5b9406d12a635614ffd91435460ff161561399657610c508361468d565b826001600160a01b03166352d1902d6040518163ffffffff1660e01b8152600401602060405180830381865afa9250505080156139f0575060408051601f3d908101601f191682019092526139ed91810190615bf6565b60015b613a535760405162461bcd60e51b815260206004820152602e60248201527f45524331393637557067726164653a206e657720696d706c656d656e7461746960448201526d6f6e206973206e6f74205555505360901b6064820152608401610d18565b600080516020615db28339815191528114613ac25760405162461bcd60e51b815260206004820152602960248201527f45524331393637557067726164653a20756e737570706f727465642070726f786044820152681a58589b195555525160ba1b6064820152608401610d18565b50610c50838383614729565b603380546001600160a01b038381166001600160a01b0319831681179093556040519116919082907f8be0079c531659141344cd1fd0a4f28419497f9722a3daafe3b4186f6b6457e090600090a35050565b600054610100900460ff16613b475760405162461bcd60e51b8152600401610d1890615c31565b61167061474e565b600054610100900460ff166116705760405162461bcd60e51b8152600401610d1890615c31565b60e0810151516000908181156120815760d454600190613ba0906301000000900460ff1684615b20565b613baa91906159d1565b949350505050565b63ffffffff808216600090815260db60209081526040808320815161040081019092528054909416815260018401805493948594929390929084019190613bf890615b59565b80601f0160208091040260200160405190810160405280929190818152602001828054613c2490615b59565b8015613c715780601f10613c4657610100808354040283529160200191613c71565b820191906000526020600020905b815481529060010190602001808311613c5457829003601f168201915b5050509183525050600282015460ff811615156020808401919091526101009091046001600160a01b03166040808401919091526003840154606084015260048401546080840152600584015463ffffffff1660a084015260068401805482518185028101850190935280835260c0909401939192909190830182828015613d4457602002820191906000526020600020906000905b82829054906101000a900463ffffffff1663ffffffff1681526020019060040190602082600301049283019260010382029150808411613d075790505b5050505050815260200160078201805480602002602001604051908101604052809291908181526020018280548015613dc857602002820191906000526020600020906000905b82829054906101000a900463ffffffff1663ffffffff1681526020019060040190602082600301049283019260010382029150808411613d8b5790505b5050505050815260200160088201805480602002602001604051908101604052809291908181526020018280548015613e4c57602002820191906000526020600020906000905b82829054906101000a900463ffffffff1663ffffffff1681526020019060040190602082600301049283019260010382029150808411613e0f5790505b5050505050815260200160098201548152602001600a8201548152602001600b8201548152602001600c8201548152602001600d8201548152602001600e8201548152602001600f8201548152602001601082015481526020016011820160009054906101000a900460ff1660ff1660ff1681526020016012820154815260200160138201548152602001601482015481526020016015820154815260200160168201548152602001601782015481526020016018820154815260200160198201548152602001601a8201548152602001601b8201805480602002602001604051908101604052809291908181526020018280548015613f9757602002820191906000526020600020906000905b82829054906101000a900463ffffffff1663ffffffff1681526020019060040190602082600301049283019260010382029150808411613f5a5790505b5050509183525050601c8201546020820152601d8201546040820152601e9091015460609091015261038081015180516102c08301519293509091613fdd906002615b20565b836102e00151108015613ff05750600081115b156140e55760005b818161ffff1610156140df57600060dc6000858461ffff1681518110614020576140206159a5565b602002602001015163ffffffff1663ffffffff16815260200190815260200160002090508060000160049054906101000a900460ff16156140cc5760cb5460d154600183015460009261ffff9081169261408592600160601b90910490911690615b20565b61408f9190615c0f565b905060008260030154426140a391906159d1565b9050620151806140b38284615b20565b6140bd9190615c0f565b6140c79089615b0d565b975050505b50806140d781615b93565b915050613ff8565b506140ea565b600093505b505050919050565b600080670de0b6b3a764000060c960009054906101000a90046001600160a01b03166001600160a01b031663801dff416040518163ffffffff1660e01b8152600401602060405180830381865afa158015614151573d6000803e3d6000fd5b505050506040513d601f19601f820116820180604052508101906141759190615bf6565b6139519085615b20565b63ffffffff808416600081815260dc6020908152604080832089861680855260db845291842081546501000000000090930268ffffffffff000000001990931692909217600160201b178155600180820189905560d1805460028401805461ffff191661ffff600160601b9093049290921691909117905560038301899055601b8401805492830181558652939094206008808604909101805460079096166004026101000a9687029688021990951695909517909355815492949093600160401b909304169161424f83615a2e565b91906101000a81548163ffffffff021916908363ffffffff16021790555050505050505050565b63ffffffff898116600081815260db60205260408120805463ffffffff199081169093178155600581018054909316938b1693909317909155600282018054610100600160a81b0319166101006001600160a01b038a16021790556003820184905560198201849055601782018590556009820180548792906142fa908490615b0d565b90915550506001810161430d8a82615cc2565b5060005b8260ff168160ff16101561450457600582015463ffffffff908116600081815260db6020526040812080549293909216900361434e575050614504565b8260ff166000036143d7578781600b01600082825461436d9190615b0d565b92505081905550806006018d90806001815401808255809150506001900390600052602060002090600891828204019190066004029091909190916101000a81548163ffffffff021916908363ffffffff160217905550898160010190816143d59190615cc2565b505b8781600d0160008282546143eb9190615b0d565b92505081905550806007018d90806001815401808255809150506001900390600052602060002090600891828204019190066004029091909190916101000a81548163ffffffff021916908363ffffffff1602179055508c63ffffffff168b63ffffffff168260020160019054906101000a90046001600160a01b03166001600160a01b03167fa7fafc728ec30e34dc1e1276496bf3eb44ca7494679da969455289e6a8f0f1f68760050160009054906101000a900463ffffffff166040516144c0919063ffffffff91909116815260200190565b60405180910390a460d454610100900460ff16156144e4576144e481838a8961477e565b6144ee8887614e22565b92508190506144fc81615a0f565b915050614311565b5060d18054600160201b900463ffffffff1690600461452283615a2e565b91906101000a81548163ffffffff021916908363ffffffff1602179055505050505050505050505050565b6000816017015482601601541015614569578160160154612093565b506017015490565b60cb5463ffffffff8416600090815260db602052604090206201000090910460ff169061459f846002615b20565b8160170181905550838160090160008282546145bb9190615b0d565b92505081905550838160150160008282546145d69190615b0d565b90915550600090505b8281101561314157600582015463ffffffff908116600081815260db60205260408120805492939092169003614616575050613141565b82600003614638578681600b0160008282546146329190615b0d565b90915550505b8681600d01600082825461464c9190615b0d565b909155505060d454610100900460ff161561466d5761466d8183898961477e565b6146778787614e22565b925081905061468581615bc0565b9150506145df565b6001600160a01b0381163b6146fa5760405162461bcd60e51b815260206004820152602d60248201527f455243313936373a206e657720696d706c656d656e746174696f6e206973206e60448201526c1bdd08184818dbdb9d1c9858dd609a1b6064820152608401610d18565b600080516020615db283398151915280546001600160a01b0319166001600160a01b0392909216919091179055565b61473283614e5c565b60008251118061473f5750805b15610c5057610dff8383614e9c565b600054610100900460ff166147755760405162461bcd60e51b8152600401610d1890615c31565b61167033613ace565b6011840154604080516104008101909152855463ffffffff16815260018601805460ff90931692614b86929188916020840191906147bb90615b59565b80601f01602080910402602001604051908101604052809291908181526020018280546147e790615b59565b80156148345780601f1061480957610100808354040283529160200191614834565b820191906000526020600020905b81548152906001019060200180831161481757829003601f168201915b5050509183525050600282015460ff811615156020808401919091526101009091046001600160a01b03166040808401919091526003840154606084015260048401546080840152600584015463ffffffff1660a084015260068401805482518185028101850190935280835260c090940193919290919083018282801561490757602002820191906000526020600020906000905b82829054906101000a900463ffffffff1663ffffffff16815260200190600401906020826003010492830192600103820291508084116148ca5790505b505050505081526020016007820180548060200260200160405190810160405280929190818152602001828054801561498b57602002820191906000526020600020906000905b82829054906101000a900463ffffffff1663ffffffff168152602001906004019060208260030104928301926001038202915080841161494e5790505b5050505050815260200160088201805480602002602001604051908101604052809291908181526020018280548015614a0f57602002820191906000526020600020906000905b82829054906101000a900463ffffffff1663ffffffff16815260200190600401906020826003010492830192600103820291508084116149d25790505b5050505050815260200160098201548152602001600a8201548152602001600b8201548152602001600c8201548152602001600d8201548152602001600e8201548152602001600f8201548152602001601082015481526020016011820160009054906101000a900460ff1660ff1660ff1681526020016012820154815260200160138201548152602001601482015481526020016015820154815260200160168201548152602001601782015481526020016018820154815260200160198201548152602001601a8201548152602001601b8201805480602002602001604051908101604052809291908181526020018280548015614b5a57602002820191906000526020600020906000905b82829054906101000a900463ffffffff1663ffffffff1681526020019060040190602082600301049283019260010382029150808411614b1d5790505b50505050508152602001601c8201548152602001601d8201548152602001601e82015481525050614f90565b60ff161115610dff57604080516104008101909152845463ffffffff168152600185018054614bc1929187916020840191906147bb90615b59565b60118501805460ff191660ff9283169081178255600090815260dd6020908152604080832060099081018054600181810183559186529385206008850401805460079095166004026101000a63ffffffff81810219909616958c160294909417909355935490941682529290200154614c3a91906159d1565b6012850181905560118501546040805163ffffffff87168152602081019390935260ff90911682820152517fb0d3a9c683344e744a1ae3db383f75a8a01851282c5fe97d6159c1392a2e2a0a9181900360600190a1604080516104008101909152845463ffffffff16815260018501805460dd92600092614cc592899160208401916147bb90615b59565b60ff908116825260208201929092526040016000206008015461010090041615614d8957604080516104008101909152845463ffffffff16815260018501805460dd92600092614d1f92899160208401916147bb90615b59565b60ff1660ff168152602001908152602001600020600701548460100154614d469190615b0d565b811115614d75578084601001819055508184600f016000828254614d6a9190615b0d565b90915550610dff9050565b8184600f016000828254614d6a9190615b0d565b60d454610100900460ff1615610dff57601184015460ff16600090815260dd6020526040902060050154614dbe90859061503e565b601184015460ff908116600090815260dd602090815260409182902060058101549054925192909316825263ffffffff8616917f94b6d3d19cc40938e685ef6a1f6476b53ef65295ab094a044e74405a8d0bd05b910160405180910390a350505050565b60d75460d654614e329190615b0d565b811115614e415760d65560d555565b8160d56000828254614e539190615b0d565b90915550505050565b614e658161468d565b6040516001600160a01b038216907fbc7cd75a20ee27fd9adebab32041f755214dbc6bffa90cc0225b39da2e5c2d3b90600090a250565b60606001600160a01b0383163b614f045760405162461bcd60e51b815260206004820152602660248201527f416464726573733a2064656c65676174652063616c6c20746f206e6f6e2d636f6044820152651b9d1c9858dd60d21b6064820152608401610d18565b600080846001600160a01b031684604051614f1f9190615d82565b600060405180830381855af49150503d8060008114614f5a576040519150601f19603f3d011682016040523d82523d6000602084013e614f5f565b606091505b5091509150614f878282604051806060016040528060278152602001615dd260279139615076565b95945050505050565b60d95460009060ff16815b8160ff168160ff1610156150375760ff8116600090815260dd602052604090206001015461014085015110801590614fed575060ff8116600090815260dd602052604090206002015461018085015110155b8015615013575060ff8116600090815260dd60205260409020600301546101c085015110155b1561502057809250615025565b615037565b8061502f81615a0f565b915050614f9b565b5050919050565b81601701548183601601546150539190615b0d565b1061506657601782015460168301555050565b808260160154610c509190615b0d565b60608315615085575081612081565b612081838381511561509a5781518083602001fd5b8060405162461bcd60e51b8152600401610d189190615d9e565b82805482825590600052602060002090600f0160109004810192821561514c5791602002820160005b8382111561511c57835183826101000a81548161ffff021916908360ff16021790555092602001926002016020816001010492830192600103026150dd565b801561514a5782816101000a81549061ffff021916905560020160208160010104928301926001030261511c565b505b506151589291506151f9565b5090565b8280548282559060005260206000209060070160089004810192821561514c5791602002820160005b838211156151c957835183826101000a81548163ffffffff021916908363ffffffff1602179055509260200192600401602081600301049283019260010302615185565b801561514a5782816101000a81549063ffffffff02191690556004016020816003010492830192600103026151c9565b5b8082111561515857600081556001016151fa565b80356001600160a01b038116811461522557600080fd5b919050565b6000806040838503121561523d57600080fd5b6152468361520e565b946020939093013593505050565b60006020828403121561526657600080fd5b6120818261520e565b60006020828403121561528157600080fd5b5035919050565b803563ffffffff8116811461522557600080fd5b600080604083850312156152af57600080fd5b6152b883615288565b91506152c660208401615288565b90509250929050565b60008083601f8401126152e157600080fd5b50813567ffffffffffffffff8111156152f957600080fd5b6020830191508360208260051b850101111561531457600080fd5b9250929050565b6000806020838503121561532e57600080fd5b823567ffffffffffffffff81111561534557600080fd5b615351858286016152cf565b90969095509350505050565b634e487b7160e01b600052604160045260246000fd5b604051601f8201601f1916810167ffffffffffffffff8111828210171561539c5761539c61535d565b604052919050565b600080604083850312156153b757600080fd5b6153c08361520e565b915060208084013567ffffffffffffffff808211156153de57600080fd5b818601915086601f8301126153f257600080fd5b8135818111156154045761540461535d565b615416601f8201601f19168501615373565b9150808252878482850101111561542c57600080fd5b80848401858401376000848284010152508093505050509250929050565b60006020828403121561545c57600080fd5b61208182615288565b600082601f83011261547657600080fd5b8135602067ffffffffffffffff8211156154925761549261535d565b8160051b6154a1828201615373565b92835284810182019282810190878511156154bb57600080fd5b83870192505b848310156154da578235825291830191908301906154c1565b979650505050505050565b600080600080608085870312156154fb57600080fd5b61550485615288565b935061551260208601615288565b9250604085013567ffffffffffffffff8082111561552f57600080fd5b61553b88838901615465565b9350606087013591508082111561555157600080fd5b5061555e87828801615465565b91505092959194509250565b6000806000806040858703121561558057600080fd5b843567ffffffffffffffff8082111561559857600080fd5b6155a4888389016152cf565b909650945060208701359150808211156155bd57600080fd5b506155ca878288016152cf565b95989497509550505050565b6000806000606084860312156155eb57600080fd5b833561ffff811681146155fd57600080fd5b95602085013595506040909401359392505050565b6000806000806000806080878903121561562b57600080fd5b61563487615288565b955061564260208801615288565b9450604087013567ffffffffffffffff8082111561565f57600080fd5b61566b8a838b016152cf565b9096509450606089013591508082111561568457600080fd5b5061569189828a016152cf565b979a9699509497509295939492505050565b600080604083850312156156b657600080fd5b61524683615288565b60005b838110156156da5781810151838201526020016156c2565b50506000910152565b600081518084526156fb8160208601602086016156bf565b601f01601f19169290920160200192915050565b600081518084526020808501945080840160005b8381101561574557815163ffffffff1687529582019590820190600101615723565b509495945050505050565b6020815261576760208201835163ffffffff169052565b600060208301516104008060408501526157856104208501836156e3565b9150604085015161579a606086018215159052565b5060608501516001600160a01b038116608086015250608085015160a085015260a085015160c085015260c08501516157db60e086018263ffffffff169052565b5060e0850151601f196101008187860301818801526157fa858461570f565b945080880151925050610120818786030181880152615819858461570f565b945080880151925050610140818786030181880152615838858461570f565b9088015161016088810191909152880151610180808901919091528801516101a0808901919091528801516101c0808901919091528801516101e08089019190915288015161020080890191909152880151610220808901919091528801516102408089019190915288015190945091506102606158ba8188018460ff169052565b870151610280878101919091528701516102a0808801919091528701516102c0808801919091528701516102e080880191909152870151610300808801919091528701516103208088019190915287015161034080880191909152870151610360808801919091528701516103808088019190915287015186850382016103a08089019190915290925061594e858461570f565b908801516103c0888101919091528801516103e08089019190915290970151929095019190915250929392505050565b6020815281511515602082015260006020830151604080840152613baa606084018261570f565b634e487b7160e01b600052603260045260246000fd5b634e487b7160e01b600052601160045260246000fd5b81810381811115612093576120936159bb565b6020808252601190820152702cb7ba9030b932903737ba1030b236b4b760791b604082015260600190565b600060ff821660ff8103615a2557615a256159bb565b60010192915050565b600063ffffffff808316818103615a4757615a476159bb565b6001019392505050565b6020808252602c908201527f46756e6374696f6e206d7573742062652063616c6c6564207468726f7567682060408201526b19195b1959d85d1958d85b1b60a21b606082015260800190565b6020808252602c908201527f46756e6374696f6e206d7573742062652063616c6c6564207468726f7567682060408201526b6163746976652070726f787960a01b606082015260800190565b63ffffffff818116838216019080821115615b0657615b066159bb565b5092915050565b80820180821115612093576120936159bb565b8082028115828204841417612093576120936159bb565b600060208284031215615b4957600080fd5b8151801515811461208157600080fd5b600181811c90821680615b6d57607f821691505b602082108103615b8d57634e487b7160e01b600052602260045260246000fd5b50919050565b600061ffff808316818103615a4757615a476159bb565b634e487b7160e01b600052603160045260246000fd5b600060018201615bd257615bd26159bb565b5060010190565b63ffffffff828116828216039080821115615b0657615b066159bb565b600060208284031215615c0857600080fd5b5051919050565b600082615c2c57634e487b7160e01b600052601260045260246000fd5b500490565b6020808252602b908201527f496e697469616c697a61626c653a20636f6e7472616374206973206e6f74206960408201526a6e697469616c697a696e6760a81b606082015260800190565b601f821115610c5057600081815260208120601f850160051c81016020861015615ca35750805b601f850160051c820191505b8181101561314157828155600101615caf565b815167ffffffffffffffff811115615cdc57615cdc61535d565b615cf081615cea8454615b59565b84615c7c565b602080601f831160018114615d255760008415615d0d5750858301515b600019600386901b1c1916600185901b178555613141565b600085815260208120601f198616915b82811015615d5457888601518255948401946001909101908401615d35565b5085821015615d725787850151600019600388901b60f8161c191681555b5050505050600190811b01905550565b60008251615d948184602087016156bf565b9190910192915050565b60208152600061208160208301846156e356fe360894a13ba1a3210667c828492db98dca3e2076cc3735a920a3ca505d382bbc416464726573733a206c6f772d6c6576656c2064656c65676174652063616c6c206661696c6564a2646970667358221220c0c3538c2ae13e087e74927f3d3e5bff0ce455c8095f8ae2ccd7b3b2aad7ef2c64736f6c63430008110033",
  "linkReferences": {},
  "deployedLinkReferences": {}
}