{
  "_format": "hh-sol-artifact-1",
  "contractName": "ReferralV3Upgradeable",
  "sourceName": "contracts/ReferralV3Upgradeable.sol",
  "abi": [
    {
      "anonymous": false,
      "inputs": [
        {
          "indexed": false,
          "internalType": "address",
          "name": "ownerAddress",
          "type": "address"
        },
        {
          "indexed": false,
          "internalType": "uint256",
          "name": "id",
          "type": "uint256"
        },
        {
          "indexed": false,
          "internalType": "uint256",
          "name": "idIndex",
          "type": "uint256"
        }
      ],
      "name": "AccountInfoIDAttached",
      "type": "event"
    },
    {
      "anonymous": false,
      "inputs": [
        {
          "indexed": false,
          "internalType": "uint256",
          "name": "userID",
          "type": "uint256"
        },
        {
          "indexed": false,
          "internalType": "uint256",
          "name": "index",
          "type": "uint256"
        },
        {
          "indexed": false,
          "internalType": "uint256",
          "name": "rank",
          "type": "uint256"
        }
      ],
      "name": "AddedInRoyaltyClubList",
      "type": "event"
    },
    {
      "anonymous": false,
      "inputs": [
        {
          "indexed": false,
          "internalType": "address",
          "name": "previousAdmin",
          "type": "address"
        },
        {
          "indexed": false,
          "internalType": "address",
          "name": "newAdmin",
          "type": "address"
        }
      ],
      "name": "AdminChanged",
      "type": "event"
    },
    {
      "anonymous": false,
      "inputs": [
        {
          "indexed": true,
          "internalType": "address",
          "name": "beacon",
          "type": "address"
        }
      ],
      "name": "BeaconUpgraded",
      "type": "event"
    },
    {
      "anonymous": false,
      "inputs": [
        {
          "indexed": false,
          "internalType": "uint256",
          "name": "id",
          "type": "uint256"
        },
        {
          "indexed": false,
          "internalType": "string",
          "name": "reason",
          "type": "string"
        }
      ],
      "name": "IDDeactivated",
      "type": "event"
    },
    {
      "anonymous": false,
      "inputs": [
        {
          "indexed": false,
          "internalType": "uint8",
          "name": "version",
          "type": "uint8"
        }
      ],
      "name": "Initialized",
      "type": "event"
    },
    {
      "anonymous": false,
      "inputs": [
        {
          "indexed": true,
          "internalType": "address",
          "name": "previousOwner",
          "type": "address"
        },
        {
          "indexed": true,
          "internalType": "address",
          "name": "newOwner",
          "type": "address"
        }
      ],
      "name": "OwnershipTransferred",
      "type": "event"
    },
    {
      "anonymous": false,
      "inputs": [
        {
          "indexed": false,
          "internalType": "uint256",
          "name": "packageID",
          "type": "uint256"
        }
      ],
      "name": "PackageAdded",
      "type": "event"
    },
    {
      "anonymous": false,
      "inputs": [
        {
          "indexed": false,
          "internalType": "uint256",
          "name": "packageID",
          "type": "uint256"
        }
      ],
      "name": "PackageRemoved",
      "type": "event"
    },
    {
      "anonymous": false,
      "inputs": [
        {
          "indexed": false,
          "internalType": "uint256",
          "name": "packageID",
          "type": "uint256"
        }
      ],
      "name": "PackageUpdated",
      "type": "event"
    },
    {
      "anonymous": false,
      "inputs": [
        {
          "indexed": true,
          "internalType": "uint256",
          "name": "userID",
          "type": "uint256"
        },
        {
          "indexed": true,
          "internalType": "uint256",
          "name": "reward",
          "type": "uint256"
        }
      ],
      "name": "ROIClaimed",
      "type": "event"
    },
    {
      "anonymous": false,
      "inputs": [
        {
          "indexed": true,
          "internalType": "uint256",
          "name": "refererID",
          "type": "uint256"
        },
        {
          "indexed": true,
          "internalType": "uint256",
          "name": "level",
          "type": "uint256"
        },
        {
          "indexed": true,
          "internalType": "string",
          "name": "reason",
          "type": "string"
        }
      ],
      "name": "ReferralNotPaid",
      "type": "event"
    },
    {
      "anonymous": false,
      "inputs": [
        {
          "indexed": true,
          "internalType": "uint256",
          "name": "refereeID",
          "type": "uint256"
        },
        {
          "indexed": true,
          "internalType": "uint256",
          "name": "referrerID",
          "type": "uint256"
        },
        {
          "indexed": true,
          "internalType": "uint256",
          "name": "amount",
          "type": "uint256"
        },
        {
          "indexed": false,
          "internalType": "uint256",
          "name": "level",
          "type": "uint256"
        }
      ],
      "name": "ReferralRewardPaid",
      "type": "event"
    },
    {
      "anonymous": false,
      "inputs": [
        {
          "indexed": true,
          "internalType": "address",
          "name": "refereeID",
          "type": "address"
        },
        {
          "indexed": true,
          "internalType": "address",
          "name": "referrerID",
          "type": "address"
        },
        {
          "indexed": true,
          "internalType": "string",
          "name": "reason",
          "type": "string"
        }
      ],
      "name": "RegisterRefererFailed",
      "type": "event"
    },
    {
      "anonymous": false,
      "inputs": [
        {
          "indexed": true,
          "internalType": "uint256",
          "name": "id",
          "type": "uint256"
        },
        {
          "indexed": true,
          "internalType": "uint256",
          "name": "refererID",
          "type": "uint256"
        }
      ],
      "name": "RegisteredReferer",
      "type": "event"
    },
    {
      "anonymous": false,
      "inputs": [
        {
          "indexed": true,
          "internalType": "address",
          "name": "parent",
          "type": "address"
        },
        {
          "indexed": false,
          "internalType": "uint256",
          "name": "parentAccountID",
          "type": "uint256"
        },
        {
          "indexed": true,
          "internalType": "uint256",
          "name": "referrerID",
          "type": "uint256"
        },
        {
          "indexed": true,
          "internalType": "uint256",
          "name": "refereeID",
          "type": "uint256"
        }
      ],
      "name": "RegisteredTeamAddress",
      "type": "event"
    },
    {
      "anonymous": false,
      "inputs": [
        {
          "indexed": false,
          "internalType": "uint256",
          "name": "packageID",
          "type": "uint256"
        },
        {
          "indexed": true,
          "internalType": "uint256",
          "name": "userID",
          "type": "uint256"
        },
        {
          "indexed": true,
          "internalType": "uint256",
          "name": "amount",
          "type": "uint256"
        }
      ],
      "name": "RoyaltyClubBonusPaid",
      "type": "event"
    },
    {
      "anonymous": false,
      "inputs": [
        {
          "indexed": true,
          "internalType": "address",
          "name": "implementation",
          "type": "address"
        }
      ],
      "name": "Upgraded",
      "type": "event"
    },
    {
      "inputs": [
        {
          "internalType": "uint256",
          "name": "",
          "type": "uint256"
        }
      ],
      "name": "_disabledUsersList",
      "outputs": [
        {
          "internalType": "address",
          "name": "",
          "type": "address"
        }
      ],
      "stateMutability": "view",
      "type": "function"
    },
    {
      "inputs": [
        {
          "internalType": "uint32",
          "name": "_refererID",
          "type": "uint32"
        }
      ],
      "name": "activateID",
      "outputs": [],
      "stateMutability": "payable",
      "type": "function"
    },
    {
      "inputs": [
        {
          "internalType": "uint32[]",
          "name": "_userID",
          "type": "uint32[]"
        }
      ],
      "name": "addTeamAddress",
      "outputs": [],
      "stateMutability": "nonpayable",
      "type": "function"
    },
    {
      "inputs": [
        {
          "internalType": "uint256",
          "name": "",
          "type": "uint256"
        }
      ],
      "name": "admins",
      "outputs": [
        {
          "internalType": "address",
          "name": "",
          "type": "address"
        }
      ],
      "stateMutability": "view",
      "type": "function"
    },
    {
      "inputs": [
        {
          "internalType": "uint32",
          "name": "_id",
          "type": "uint32"
        },
        {
          "internalType": "uint256",
          "name": "_value",
          "type": "uint256"
        }
      ],
      "name": "claimBalance",
      "outputs": [],
      "stateMutability": "nonpayable",
      "type": "function"
    },
    {
      "inputs": [],
      "name": "companyTurnoverTimeLimit",
      "outputs": [
        {
          "internalType": "uint256",
          "name": "",
          "type": "uint256"
        }
      ],
      "stateMutability": "view",
      "type": "function"
    },
    {
      "inputs": [],
      "name": "companyTurnoverTimeStamp",
      "outputs": [
        {
          "internalType": "uint256",
          "name": "",
          "type": "uint256"
        }
      ],
      "stateMutability": "view",
      "type": "function"
    },
    {
      "inputs": [],
      "name": "companyTurnoverWithTimeLimit",
      "outputs": [
        {
          "internalType": "uint256",
          "name": "",
          "type": "uint256"
        }
      ],
      "stateMutability": "view",
      "type": "function"
    },
    {
      "inputs": [],
      "name": "decimals",
      "outputs": [
        {
          "internalType": "uint16",
          "name": "",
          "type": "uint16"
        }
      ],
      "stateMutability": "view",
      "type": "function"
    },
    {
      "inputs": [
        {
          "internalType": "uint256",
          "name": "_number",
          "type": "uint256"
        }
      ],
      "name": "deleteAllROIs",
      "outputs": [],
      "stateMutability": "nonpayable",
      "type": "function"
    },
    {
      "inputs": [
        {
          "internalType": "uint32",
          "name": "_from",
          "type": "uint32"
        },
        {
          "internalType": "uint32",
          "name": "_to",
          "type": "uint32"
        }
      ],
      "name": "deleteROIDetails",
      "outputs": [],
      "stateMutability": "nonpayable",
      "type": "function"
    },
    {
      "inputs": [
        {
          "internalType": "address",
          "name": "_userAddress",
          "type": "address"
        }
      ],
      "name": "disableUserAdmin",
      "outputs": [],
      "stateMutability": "nonpayable",
      "type": "function"
    },
    {
      "inputs": [
        {
          "internalType": "uint32",
          "name": "_id",
          "type": "uint32"
        }
      ],
      "name": "getIDAccount",
      "outputs": [
        {
          "components": [
            {
              "internalType": "uint32",
              "name": "id",
              "type": "uint32"
            },
            {
              "internalType": "string",
              "name": "oldID",
              "type": "string"
            },
            {
              "internalType": "bool",
              "name": "isActive",
              "type": "bool"
            },
            {
              "internalType": "address",
              "name": "owner",
              "type": "address"
            },
            {
              "internalType": "uint256",
              "name": "joiningTime",
              "type": "uint256"
            },
            {
              "internalType": "uint256",
              "name": "deactivateTime",
              "type": "uint256"
            },
            {
              "internalType": "uint32",
              "name": "refererID",
              "type": "uint32"
            },
            {
              "internalType": "uint32[]",
              "name": "refereeIDs",
              "type": "uint32[]"
            },
            {
              "internalType": "uint32[]",
              "name": "teamIDs",
              "type": "uint32[]"
            },
            {
              "internalType": "uint32[]",
              "name": "teamLevel",
              "type": "uint32[]"
            },
            {
              "internalType": "uint256",
              "name": "selfBusiness",
              "type": "uint256"
            },
            {
              "internalType": "uint256",
              "name": "selfBusinessOld",
              "type": "uint256"
            },
            {
              "internalType": "uint256",
              "name": "directBusiness",
              "type": "uint256"
            },
            {
              "internalType": "uint256",
              "name": "directBusinessOld",
              "type": "uint256"
            },
            {
              "internalType": "uint256",
              "name": "teamBusiness",
              "type": "uint256"
            },
            {
              "internalType": "uint256",
              "name": "teamBusinessOld",
              "type": "uint256"
            },
            {
              "internalType": "uint256",
              "name": "royaltyClubBusiness",
              "type": "uint256"
            },
            {
              "internalType": "uint256",
              "name": "timeStampRoyaltyClub",
              "type": "uint256"
            },
            {
              "internalType": "uint8",
              "name": "royaltyClubPackageID",
              "type": "uint8"
            },
            {
              "internalType": "uint256",
              "name": "royaltyClubListIndex",
              "type": "uint256"
            },
            {
              "internalType": "uint256",
              "name": "referralPaid",
              "type": "uint256"
            },
            {
              "internalType": "uint256",
              "name": "rewardPaidRoyaltyClub",
              "type": "uint256"
            },
            {
              "internalType": "uint256",
              "name": "totalTopUp",
              "type": "uint256"
            },
            {
              "internalType": "uint256",
              "name": "totalIncome",
              "type": "uint256"
            },
            {
              "internalType": "uint256",
              "name": "totalMaxLimitAmount",
              "type": "uint256"
            },
            {
              "internalType": "uint256",
              "name": "currentTopUp",
              "type": "uint256"
            },
            {
              "internalType": "uint256",
              "name": "currentTopUpTime",
              "type": "uint256"
            },
            {
              "internalType": "uint256",
              "name": "totalROIClaimed",
              "type": "uint256"
            },
            {
              "internalType": "uint32[]",
              "name": "roiIDs",
              "type": "uint32[]"
            },
            {
              "internalType": "uint256",
              "name": "roiClaimed",
              "type": "uint256"
            },
            {
              "internalType": "uint256",
              "name": "roiClaimedTimestamp",
              "type": "uint256"
            },
            {
              "internalType": "uint256",
              "name": "balanceClaimed",
              "type": "uint256"
            }
          ],
          "internalType": "struct ReferralV3Upgradeable.StructID",
          "name": "",
          "type": "tuple"
        }
      ],
      "stateMutability": "view",
      "type": "function"
    },
    {
      "inputs": [],
      "name": "getMinContributionETH",
      "outputs": [
        {
          "internalType": "uint256",
          "name": "",
          "type": "uint256"
        }
      ],
      "stateMutability": "view",
      "type": "function"
    },
    {
      "inputs": [],
      "name": "getPriceOracleContract",
      "outputs": [
        {
          "internalType": "address",
          "name": "",
          "type": "address"
        }
      ],
      "stateMutability": "view",
      "type": "function"
    },
    {
      "inputs": [
        {
          "internalType": "uint32",
          "name": "_roiID",
          "type": "uint32"
        }
      ],
      "name": "getROIAccount",
      "outputs": [
        {
          "components": [
            {
              "internalType": "uint32",
              "name": "id",
              "type": "uint32"
            },
            {
              "internalType": "bool",
              "name": "isActive",
              "type": "bool"
            },
            {
              "internalType": "uint32",
              "name": "ownerID",
              "type": "uint32"
            },
            {
              "internalType": "uint256",
              "name": "value",
              "type": "uint256"
            },
            {
              "internalType": "uint16",
              "name": "roiRate",
              "type": "uint16"
            },
            {
              "internalType": "uint256",
              "name": "startTime",
              "type": "uint256"
            }
          ],
          "internalType": "struct ReferralV3Upgradeable.StructROI",
          "name": "",
          "type": "tuple"
        }
      ],
      "stateMutability": "view",
      "type": "function"
    },
    {
      "inputs": [
        {
          "internalType": "address",
          "name": "_address",
          "type": "address"
        }
      ],
      "name": "getUserAccount",
      "outputs": [
        {
          "components": [
            {
              "internalType": "bool",
              "name": "isDisabled",
              "type": "bool"
            },
            {
              "internalType": "uint32[]",
              "name": "accountIDs",
              "type": "uint32[]"
            }
          ],
          "internalType": "struct ReferralV3Upgradeable.StructAccount",
          "name": "",
          "type": "tuple"
        }
      ],
      "stateMutability": "view",
      "type": "function"
    },
    {
      "inputs": [
        {
          "internalType": "uint32",
          "name": "_id",
          "type": "uint32"
        }
      ],
      "name": "getUserIDTotalROI",
      "outputs": [
        {
          "internalType": "uint256",
          "name": "",
          "type": "uint256"
        }
      ],
      "stateMutability": "view",
      "type": "function"
    },
    {
      "inputs": [
        {
          "internalType": "uint32",
          "name": "_id",
          "type": "uint32"
        }
      ],
      "name": "getUserTotalActiveROIValue",
      "outputs": [
        {
          "internalType": "uint256",
          "name": "",
          "type": "uint256"
        }
      ],
      "stateMutability": "view",
      "type": "function"
    },
    {
      "inputs": [
        {
          "internalType": "uint32",
          "name": "_id",
          "type": "uint32"
        }
      ],
      "name": "getUserUnlockCount",
      "outputs": [
        {
          "internalType": "uint256",
          "name": "",
          "type": "uint256"
        }
      ],
      "stateMutability": "view",
      "type": "function"
    },
    {
      "inputs": [],
      "name": "initialize",
      "outputs": [],
      "stateMutability": "nonpayable",
      "type": "function"
    },
    {
      "inputs": [],
      "name": "isPayROI",
      "outputs": [
        {
          "internalType": "bool",
          "name": "",
          "type": "bool"
        }
      ],
      "stateMutability": "view",
      "type": "function"
    },
    {
      "inputs": [],
      "name": "isPayRoyaltyClubBonus",
      "outputs": [
        {
          "internalType": "bool",
          "name": "",
          "type": "bool"
        }
      ],
      "stateMutability": "view",
      "type": "function"
    },
    {
      "inputs": [
        {
          "internalType": "address",
          "name": "_userAddress",
          "type": "address"
        }
      ],
      "name": "isUserDisabledByAdmin",
      "outputs": [
        {
          "internalType": "bool",
          "name": "",
          "type": "bool"
        }
      ],
      "stateMutability": "view",
      "type": "function"
    },
    {
      "inputs": [
        {
          "internalType": "uint256",
          "name": "",
          "type": "uint256"
        }
      ],
      "name": "levelRates",
      "outputs": [
        {
          "internalType": "uint16",
          "name": "",
          "type": "uint16"
        }
      ],
      "stateMutability": "view",
      "type": "function"
    },
    {
      "inputs": [],
      "name": "maxLevelsCount",
      "outputs": [
        {
          "internalType": "uint8",
          "name": "",
          "type": "uint8"
        }
      ],
      "stateMutability": "view",
      "type": "function"
    },
    {
      "inputs": [],
      "name": "minContributionIn",
      "outputs": [
        {
          "internalType": "uint256",
          "name": "",
          "type": "uint256"
        }
      ],
      "stateMutability": "view",
      "type": "function"
    },
    {
      "inputs": [],
      "name": "owner",
      "outputs": [
        {
          "internalType": "address",
          "name": "",
          "type": "address"
        }
      ],
      "stateMutability": "view",
      "type": "function"
    },
    {
      "inputs": [],
      "name": "packagesCount",
      "outputs": [
        {
          "internalType": "uint8",
          "name": "",
          "type": "uint8"
        }
      ],
      "stateMutability": "view",
      "type": "function"
    },
    {
      "inputs": [],
      "name": "proxiableUUID",
      "outputs": [
        {
          "internalType": "bytes32",
          "name": "",
          "type": "bytes32"
        }
      ],
      "stateMutability": "view",
      "type": "function"
    },
    {
      "inputs": [
        {
          "internalType": "address",
          "name": "_userAddress",
          "type": "address"
        }
      ],
      "name": "removeUserFromDisableList",
      "outputs": [],
      "stateMutability": "nonpayable",
      "type": "function"
    },
    {
      "inputs": [],
      "name": "renounceOwnership",
      "outputs": [],
      "stateMutability": "nonpayable",
      "type": "function"
    },
    {
      "inputs": [],
      "name": "royaltyClubPackageCount",
      "outputs": [
        {
          "internalType": "uint8",
          "name": "",
          "type": "uint8"
        }
      ],
      "stateMutability": "view",
      "type": "function"
    },
    {
      "inputs": [
        {
          "internalType": "address",
          "name": "_address",
          "type": "address"
        },
        {
          "internalType": "uint256",
          "name": "_value",
          "type": "uint256"
        }
      ],
      "name": "sendETHAdmin",
      "outputs": [],
      "stateMutability": "nonpayable",
      "type": "function"
    },
    {
      "inputs": [
        {
          "internalType": "address",
          "name": "_adminAddress",
          "type": "address"
        }
      ],
      "name": "setAdmin",
      "outputs": [],
      "stateMutability": "nonpayable",
      "type": "function"
    },
    {
      "inputs": [
        {
          "internalType": "uint256",
          "name": "_valueWei",
          "type": "uint256"
        }
      ],
      "name": "setMinContribution",
      "outputs": [],
      "stateMutability": "nonpayable",
      "type": "function"
    },
    {
      "inputs": [
        {
          "internalType": "address",
          "name": "_contractAddress",
          "type": "address"
        }
      ],
      "name": "setPriceOracleContract",
      "outputs": [],
      "stateMutability": "nonpayable",
      "type": "function"
    },
    {
      "inputs": [
        {
          "internalType": "uint16",
          "name": "_roiRateInDecimals",
          "type": "uint16"
        },
        {
          "internalType": "uint256",
          "name": "_roiDurationInDays",
          "type": "uint256"
        },
        {
          "internalType": "uint256",
          "name": "_roiClaimTimelimitInSeconds",
          "type": "uint256"
        }
      ],
      "name": "setROI",
      "outputs": [],
      "stateMutability": "nonpayable",
      "type": "function"
    },
    {
      "inputs": [
        {
          "internalType": "uint32",
          "name": "_count",
          "type": "uint32"
        }
      ],
      "name": "setROIIDCount",
      "outputs": [],
      "stateMutability": "nonpayable",
      "type": "function"
    },
    {
      "inputs": [],
      "name": "totalIDs",
      "outputs": [
        {
          "internalType": "uint32",
          "name": "",
          "type": "uint32"
        }
      ],
      "stateMutability": "view",
      "type": "function"
    },
    {
      "inputs": [],
      "name": "totalROIIDs",
      "outputs": [
        {
          "internalType": "uint32",
          "name": "",
          "type": "uint32"
        }
      ],
      "stateMutability": "view",
      "type": "function"
    },
    {
      "inputs": [],
      "name": "totalROIPaid",
      "outputs": [
        {
          "internalType": "uint256",
          "name": "",
          "type": "uint256"
        }
      ],
      "stateMutability": "view",
      "type": "function"
    },
    {
      "inputs": [],
      "name": "totalReferralPaid",
      "outputs": [
        {
          "internalType": "uint256",
          "name": "",
          "type": "uint256"
        }
      ],
      "stateMutability": "view",
      "type": "function"
    },
    {
      "inputs": [],
      "name": "totalRoyaltyClubBonusPaid",
      "outputs": [
        {
          "internalType": "uint256",
          "name": "",
          "type": "uint256"
        }
      ],
      "stateMutability": "view",
      "type": "function"
    },
    {
      "inputs": [],
      "name": "totalRoyaltyClubBonusPaidETH",
      "outputs": [
        {
          "internalType": "uint256",
          "name": "",
          "type": "uint256"
        }
      ],
      "stateMutability": "view",
      "type": "function"
    },
    {
      "inputs": [
        {
          "internalType": "uint32",
          "name": "_id",
          "type": "uint32"
        }
      ],
      "name": "totalTopUpID",
      "outputs": [],
      "stateMutability": "payable",
      "type": "function"
    },
    {
      "inputs": [],
      "name": "totalUsers",
      "outputs": [
        {
          "internalType": "uint32",
          "name": "",
          "type": "uint32"
        }
      ],
      "stateMutability": "view",
      "type": "function"
    },
    {
      "inputs": [
        {
          "internalType": "address",
          "name": "newOwner",
          "type": "address"
        }
      ],
      "name": "transferOwnership",
      "outputs": [],
      "stateMutability": "nonpayable",
      "type": "function"
    },
    {
      "inputs": [
        {
          "internalType": "uint32[]",
          "name": "_id",
          "type": "uint32[]"
        },
        {
          "internalType": "uint256[]",
          "name": "_joiningTime",
          "type": "uint256[]"
        }
      ],
      "name": "updateIDJoinTime",
      "outputs": [],
      "stateMutability": "nonpayable",
      "type": "function"
    },
    {
      "inputs": [
        {
          "internalType": "uint32",
          "name": "_from",
          "type": "uint32"
        },
        {
          "internalType": "uint32",
          "name": "_to",
          "type": "uint32"
        },
        {
          "internalType": "uint256[]",
          "name": "_topUp",
          "type": "uint256[]"
        },
        {
          "internalType": "uint256[]",
          "name": "_activationTime",
          "type": "uint256[]"
        }
      ],
      "name": "updateIDtotalTopUpDetails",
      "outputs": [],
      "stateMutability": "nonpayable",
      "type": "function"
    },
    {
      "inputs": [
        {
          "internalType": "uint32",
          "name": "_value",
          "type": "uint32"
        }
      ],
      "name": "updateTotalIDs",
      "outputs": [],
      "stateMutability": "nonpayable",
      "type": "function"
    },
    {
      "inputs": [
        {
          "internalType": "address",
          "name": "newImplementation",
          "type": "address"
        }
      ],
      "name": "upgradeTo",
      "outputs": [],
      "stateMutability": "nonpayable",
      "type": "function"
    },
    {
      "inputs": [
        {
          "internalType": "address",
          "name": "newImplementation",
          "type": "address"
        },
        {
          "internalType": "bytes",
          "name": "data",
          "type": "bytes"
        }
      ],
      "name": "upgradeToAndCall",
      "outputs": [],
      "stateMutability": "payable",
      "type": "function"
    },
    {
      "inputs": [],
      "name": "withdrawETHAdmin",
      "outputs": [],
      "stateMutability": "nonpayable",
      "type": "function"
    },
    {
      "inputs": [
        {
          "internalType": "address",
          "name": "_tokenAddress",
          "type": "address"
        },
        {
          "internalType": "uint256",
          "name": "_value",
          "type": "uint256"
        }
      ],
      "name": "withdrawTokensAdmin",
      "outputs": [],
      "stateMutability": "nonpayable",
      "type": "function"
    },
    {
      "stateMutability": "payable",
      "type": "receive"
    }
  ],
  "bytecode": "0x60a06040523060805234801561001457600080fd5b5060805161563c6200004d60003960008181610cdd01528181610d1d01528181611098015281816110d80152611167015261563c6000f3fe6080604052600436106103545760003560e01c8063852ff2fd116101c6578063c82801ca116100f7578063f2fde38b11610095578063f830e57b1161006f578063f830e57b14610a9f578063fafc959714610acc578063fb47e01614610aeb578063ff4ec1f114610b1857600080fd5b8063f2fde38b14610a49578063f31a2d0f14610a69578063f41bfeef14610a8957600080fd5b8063e52356f3116100d1578063e52356f3146109d6578063e5682e38146109f6578063ea62f71514610a09578063ef2f824f14610a2957600080fd5b8063c82801ca14610976578063d895af2c14610996578063da1e7c6e146109b657600080fd5b8063af2f39d111610164578063bff1f9e11161013e578063bff1f9e1146107f9578063c3ab5ebf14610816578063c7464ea414610936578063c81ea2161461095657600080fd5b8063af2f39d11461079f578063b47181d3146107b9578063bf46de63146107d957600080fd5b80639f4e8398116101a05780639f4e83981461071b578063a0b6105f1461073b578063a1b801751461075b578063a28a36861461077f57600080fd5b8063852ff2fd146106c75780638da5cb5b146106dd5780638df05d9c146106fb57600080fd5b806335759788116102a05780635e701d861161023e578063715018a611610218578063715018a6146106675780637879b5ef1461067c5780637c5994861461069c5780638129fc1c146106b257600080fd5b80635e701d86146105ee578063704b6c021461062757806370d9e0811461064757600080fd5b806349b325041161027a57806349b325041461055d5780634f1ef2861461057d57806352d1902d14610590578063538ffe0c146105a557600080fd5b806335759788146105085780633659cfe61461051d578063473b0d461461053d57600080fd5b80631f7f83ba1161030d5780632913497b116102e75780632913497b146104905780632ed421d2146104ae57806330abbcc5146104c4578063313ce567146104da57600080fd5b80631f7f83ba146104455780631f9e65e41461046557806322f88b521461047a57600080fd5b806309de82cd146103605780630b243dad146103895780630efdbb6a146103ab57806314bfd6d0146103cb57806318e10bff146104035780631c961c051461042f57600080fd5b3661035b57005b600080fd5b34801561036c57600080fd5b5061037660ce5481565b6040519081526020015b60405180910390f35b34801561039557600080fd5b506103a96103a4366004614b52565b610b2b565b005b3480156103b757600080fd5b506103a96103c6366004614b7c565b610b6e565b3480156103d757600080fd5b506103eb6103e6366004614b97565b610c50565b6040516001600160a01b039091168152602001610380565b34801561040f57600080fd5b5060d95461041d9060ff1681565b60405160ff9091168152602001610380565b34801561043b57600080fd5b5061037660cc5481565b34801561045157600080fd5b506103eb610460366004614b97565b610c7a565b34801561047157600080fd5b50610376610c8a565b34801561048657600080fd5b5061037660d55481565b34801561049c57600080fd5b5060c9546001600160a01b03166103eb565b3480156104ba57600080fd5b5061037660d65481565b3480156104d057600080fd5b5061037660d05481565b3480156104e657600080fd5b5060cb546104f59061ffff1681565b60405161ffff9091168152602001610380565b34801561051457600080fd5b506103a9610c9c565b34801561052957600080fd5b506103a9610538366004614b7c565b610cd3565b34801561054957600080fd5b506103a9610558366004614b97565b610daf565b34801561056957600080fd5b506103a9610578366004614bfc565b610dbc565b6103a961058b366004614c54565b61108e565b34801561059c57600080fd5b5061037661115a565b3480156105b157600080fd5b506105de6105c0366004614b7c565b6001600160a01b0316600090815260da602052604090205460ff1690565b6040519015158152602001610380565b3480156105fa57600080fd5b5060d15461061290600160201b900463ffffffff1681565b60405163ffffffff9091168152602001610380565b34801561063357600080fd5b506103a9610642366004614b7c565b61120d565b34801561065357600080fd5b506103a9610662366004614d2a565b611267565b34801561067357600080fd5b506103a9611340565b34801561068857600080fd5b506104f5610697366004614b97565b611354565b3480156106a857600080fd5b5061037660cf5481565b3480156106be57600080fd5b506103a961138c565b3480156106d357600080fd5b5061037660cd5481565b3480156106e957600080fd5b506033546001600160a01b03166103eb565b34801561070757600080fd5b5060cb5461041d9062010000900460ff1681565b34801561072757600080fd5b506103a9610736366004614b7c565b61162c565b34801561074757600080fd5b506103a9610756366004614b52565b611748565b34801561076757600080fd5b5060d15461061290600160401b900463ffffffff1681565b34801561078b57600080fd5b5060d45461041d9062010000900460ff1681565b3480156107ab57600080fd5b5060d4546105de9060ff1681565b3480156107c557600080fd5b506103766107d4366004614d2a565b6117c1565b3480156107e557600080fd5b506103766107f4366004614d2a565b611bdf565b34801561080557600080fd5b5060d1546106129063ffffffff1681565b34801561082257600080fd5b506108da610831366004614d2a565b6040805160c081018252600080825260208201819052918101829052606081018290526080810182905260a08101919091525063ffffffff908116600090815260dc6020908152604091829020825160c0810184528154808616825260ff600160201b820416151593820193909352650100000000009092049093169181019190915260018201546060820152600282015461ffff16608082015260039091015460a082015290565b6040516103809190600060c08201905063ffffffff808451168352602084015115156020840152806040850151166040840152506060830151606083015261ffff608084015116608083015260a083015160a083015292915050565b34801561094257600080fd5b506103a9610951366004614d45565b611bf0565b34801561096257600080fd5b506103a9610971366004614d78565b611d60565b34801561098257600080fd5b506103a9610991366004614de4565b611eb6565b3480156109a257600080fd5b506103a96109b1366004614d2a565b611f9e565b3480156109c257600080fd5b506103a96109d1366004614b97565b612076565b3480156109e257600080fd5b506103a96109f1366004614b7c565b612179565b6103a9610a04366004614d2a565b61234e565b348015610a1557600080fd5b50610376610a24366004614d2a565b6124be565b348015610a3557600080fd5b506103a9610a44366004614e20565b6125e3565b348015610a5557600080fd5b506103a9610a64366004614b7c565b6128af565b348015610a7557600080fd5b506103a9610a84366004614eb1565b612925565b348015610a9557600080fd5b5061037660d75481565b348015610aab57600080fd5b50610abf610aba366004614d2a565b612a71565b6040516103809190614f5e565b348015610ad857600080fd5b5060d4546105de90610100900460ff1681565b348015610af757600080fd5b50610b0b610b06366004614b7c565b612f89565b604051610380919061518c565b6103a9610b26366004614d2a565b613054565b610b33613193565b6040516001600160a01b0383169082156108fc029083906000818181858888f19350505050158015610b69573d6000803e3d6000fd5b505050565b60005b60de5460ff82161015610c4c5760de8160ff1681548110610b9457610b946151b3565b6000918252602090912001546001600160a01b03163303610bd05760c980546001600160a01b0384166001600160a01b03199091161790555050565b60de54610bdf906001906151df565b8160ff1603610c3a5760de8160ff1681548110610bfe57610bfe6151b3565b6000918252602090912001546001600160a01b03163314610c3a5760405162461bcd60e51b8152600401610c31906151f2565b60405180910390fd5b80610c448161521d565b915050610b71565b5050565b60de8181548110610c6057600080fd5b6000918252602090912001546001600160a01b0316905081565b60d88181548110610c6057600080fd5b6000610c9760cc546131ed565b905090565b610ca4613193565b60405133904780156108fc02916000818181858888f19350505050158015610cd0573d6000803e3d6000fd5b50565b6001600160a01b037f0000000000000000000000000000000000000000000000000000000000000000163003610d1b5760405162461bcd60e51b8152600401610c319061523c565b7f00000000000000000000000000000000000000000000000000000000000000006001600160a01b0316610d646000805160206155c0833981519152546001600160a01b031690565b6001600160a01b031614610d8a5760405162461bcd60e51b8152600401610c3190615288565b610d9381613283565b60408051600080825260208201909252610cd09183919061328b565b610db7613193565b60cc55565b60005b60de5460ff82161015610b695760de8160ff1681548110610de257610de26151b3565b6000918252602090912001546001600160a01b0316330361101b5760005b63ffffffff811683111561101557600060db600086868563ffffffff16818110610e2c57610e2c6151b3565b9050602002016020810190610e419190614d2a565b63ffffffff1681526020810191909152604001600090812060cb5490925062010000900460ff16905b8160ff168163ffffffff161015610fff57600583015463ffffffff908116600081815260db60205260408120865492939092169003610eaa575050610fff565b8060070189898863ffffffff16818110610ec657610ec66151b3565b9050602002016020810190610edb9190614d2a565b815460018082018455600093845260209093206008808304909101805460079093166004026101000a63ffffffff818102199094169490931692909202929092179055820190610f2c9085906152d4565b8154600181018355600092835260209092206008830401805460079093166004026101000a63ffffffff8181021990941692841602919091179055899089908816818110610f7c57610f7c6151b3565b9050602002016020810190610f919190614d2a565b6002820154825460405163ffffffff9182168152928116929085169161010090046001600160a01b0316907fa7fafc728ec30e34dc1e1276496bf3eb44ca7494679da969455289e6a8f0f1f69060200160405180910390a49350819050610ff7816152f8565b915050610e6a565b505050808061100d906152f8565b915050610e00565b50505050565b60de5461102a906001906151df565b8160ff160361107c5760de8160ff1681548110611049576110496151b3565b6000918252602090912001546001600160a01b0316331461107c5760405162461bcd60e51b8152600401610c31906151f2565b806110868161521d565b915050610dbf565b6001600160a01b037f00000000000000000000000000000000000000000000000000000000000000001630036110d65760405162461bcd60e51b8152600401610c319061523c565b7f00000000000000000000000000000000000000000000000000000000000000006001600160a01b031661111f6000805160206155c0833981519152546001600160a01b031690565b6001600160a01b0316146111455760405162461bcd60e51b8152600401610c3190615288565b61114e82613283565b610c4c8282600161328b565b6000306001600160a01b037f000000000000000000000000000000000000000000000000000000000000000016146111fa5760405162461bcd60e51b815260206004820152603860248201527f555550535570677261646561626c653a206d757374206e6f742062652063616c60448201527f6c6564207468726f7567682064656c656761746563616c6c00000000000000006064820152608401610c31565b506000805160206155c083398151915290565b611215613193565b60de80546001810182556000919091527ffae8130c0619f84b4b44f01b84806f04e82e536d70e05f2356977fa318aecc1a0180546001600160a01b0319166001600160a01b0392909216919091179055565b60005b60de5460ff82161015610c4c5760de8160ff168154811061128d5761128d6151b3565b6000918252602090912001546001600160a01b031633036112cd5760d1805463ffffffff8416600160201b0267ffffffff00000000199091161790555050565b60de546112dc906001906151df565b8160ff160361132e5760de8160ff16815481106112fb576112fb6151b3565b6000918252602090912001546001600160a01b0316331461132e5760405162461bcd60e51b8152600401610c31906151f2565b806113388161521d565b91505061126a565b611348613193565b61135260006133f6565b565b60ca818154811061136457600080fd5b9060005260206000209060109182820401919006600202915054906101000a900461ffff1681565b600054610100900460ff16158080156113ac5750600054600160ff909116105b806113c65750303b1580156113c6575060005460ff166001145b6114295760405162461bcd60e51b815260206004820152602e60248201527f496e697469616c697a61626c653a20636f6e747261637420697320616c72656160448201526d191e481a5b9a5d1a585b1a5e995960921b6064820152608401610c31565b6000805460ff19166001179055801561144c576000805461ff0019166101001790555b60c980546001600160a01b03191673286d6392042b4d7180fd6d20f8d35c877681577417905560cb805461ffff19166103e8179055604080516103a08101825260648152604660208201526032918101829052606081018290526080810182905260a0810182905260c0810182905260e08101829052610100810182905261012081018290526101408101829052610160810182905261018081018290526101a081018290526101c081018290526101e08101829052610200810182905261022081018290526102408101919091526014610260820181905261028082018190526102a082018190526102c082018190526102e0820181905261030082018190526103208201819052610340820181905261036082018190526103808201526115799060ca90601d6149dc565b5060cb805462ff0000191662320000179055670de0b6b3a764000060cc5560d4805463ff00ffff1916630200000117905560d1805461ffff60601b1916607d60631b17905563020f580060d2556201518060d35562278d0060d7556115dc613448565b6115e4613477565b8015610cd0576000805461ff0019169055604051600181527f7f26b83ff96e1f2b6a682f133852f6798a09c465da95921460cefb38474024989060200160405180910390a150565b60005b60de5460ff82161015610c4c5760de8160ff1681548110611652576116526151b3565b6000918252602090912001546001600160a01b031633036116d55760d8805460018181019092557f5320ad99a619a90804cd2efe3a5cf0ac1ac5c41ad9ff2c61cf699efdad7710960180546001600160a01b0385166001600160a01b03199091168117909155600090815260da60205260409020805460ff191690911790555050565b60de546116e4906001906151df565b8160ff16036117365760de8160ff1681548110611703576117036151b3565b6000918252602090912001546001600160a01b031633146117365760405162461bcd60e51b8152600401610c31906151f2565b806117408161521d565b91505061162f565b611750613193565b60405163a9059cbb60e01b8152336004820152602481018290526001600160a01b0383169063a9059cbb906044016020604051808303816000875af115801561179d573d6000803e3d6000fd5b505050506040513d601f19601f82011682018060405250810190610b69919061531b565b63ffffffff808216600090815260db602090815260408083208151610400810190925280549094168152600184018054939485949293909290840191906118079061533d565b80601f01602080910402602001604051908101604052809291908181526020018280546118339061533d565b80156118805780601f1061185557610100808354040283529160200191611880565b820191906000526020600020905b81548152906001019060200180831161186357829003601f168201915b5050509183525050600282015460ff811615156020808401919091526101009091046001600160a01b03166040808401919091526003840154606084015260048401546080840152600584015463ffffffff1660a084015260068401805482518185028101850190935280835260c090940193919290919083018282801561195357602002820191906000526020600020906000905b82829054906101000a900463ffffffff1663ffffffff16815260200190600401906020826003010492830192600103820291508084116119165790505b50505050508152602001600782018054806020026020016040519081016040528092919081815260200182805480156119d757602002820191906000526020600020906000905b82829054906101000a900463ffffffff1663ffffffff168152602001906004019060208260030104928301926001038202915080841161199a5790505b5050505050815260200160088201805480602002602001604051908101604052809291908181526020018280548015611a5b57602002820191906000526020600020906000905b82829054906101000a900463ffffffff1663ffffffff1681526020019060040190602082600301049283019260010382029150808411611a1e5790505b5050505050815260200160098201548152602001600a8201548152602001600b8201548152602001600c8201548152602001600d8201548152602001600e8201548152602001600f8201548152602001601082015481526020016011820160009054906101000a900460ff1660ff1660ff1681526020016012820154815260200160138201548152602001601482015481526020016015820154815260200160168201548152602001601782015481526020016018820154815260200160198201548152602001601a8201548152602001601b8201805480602002602001604051908101604052809291908181526020018280548015611ba657602002820191906000526020600020906000905b82829054906101000a900463ffffffff1663ffffffff1681526020019060040190602082600301049283019260010382029150808411611b695790505b50505050508152602001601c8201548152602001601d8201548152602001601e820154815250509050611bd88161349e565b9392505050565b6000611bea826134da565b92915050565b60005b60de5460ff82161015610b695760de8160ff1681548110611c1657611c166151b3565b6000918252602090912001546001600160a01b03163303611ced57825b8263ffffffff168163ffffffff1610156110155763ffffffff8116600090815260db602090815260408083206019810184905560d1805463ffffffff60401b1916905560dc835281842060038101859055805464ff000000001916815560018101859055601d8201859055805468ffffffff00000000001916815560028101805461ffff191690558251948552928401918290529251611cd791601b850191614a84565b5050508080611ce5906152f8565b915050611c33565b60de54611cfc906001906151df565b8160ff1603611d4e5760de8160ff1681548110611d1b57611d1b6151b3565b6000918252602090912001546001600160a01b03163314611d4e5760405162461bcd60e51b8152600401610c31906151f2565b80611d588161521d565b915050611bf3565b60005b60de5460ff82161015611eaf5760de8160ff1681548110611d8657611d866151b3565b6000918252602090912001546001600160a01b03163303611e3c5760005b61ffff8116851115611e3657600060db600088888561ffff16818110611dcc57611dcc6151b3565b9050602002016020810190611de19190614d2a565b63ffffffff1663ffffffff168152602001908152602001600020905084848361ffff16818110611e1357611e136151b3565b905060200201358160030181905550508080611e2e90615377565b915050611da4565b50611eaf565b60de54611e4b906001906151df565b8160ff1603611e9d5760de8160ff1681548110611e6a57611e6a6151b3565b6000918252602090912001546001600160a01b03163314611e9d5760405162461bcd60e51b8152600401610c31906151f2565b80611ea78161521d565b915050611d63565b5050505050565b60005b60de5460ff821610156110155760de8160ff1681548110611edc57611edc6151b3565b6000918252602090912001546001600160a01b03163303611f2b5760d1805461ffff60601b1916600160601b61ffff871602179055611f1e836201518061538e565b60d25560d3829055611015565b60de54611f3a906001906151df565b8160ff1603611f8c5760de8160ff1681548110611f5957611f596151b3565b6000918252602090912001546001600160a01b03163314611f8c5760405162461bcd60e51b8152600401610c31906151f2565b80611f968161521d565b915050611eb9565b60005b60de5460ff82161015610c4c5760de8160ff1681548110611fc457611fc46151b3565b6000918252602090912001546001600160a01b031633036120035760d1805463ffffffff8416600160401b0263ffffffff60401b199091161790555050565b60de54612012906001906151df565b8160ff16036120645760de8160ff1681548110612031576120316151b3565b6000918252602090912001546001600160a01b031633146120645760405162461bcd60e51b8152600401610c31906151f2565b8061206e8161521d565b915050611fa1565b60005b60de5460ff82161015610c4c5760de8160ff168154811061209c5761209c6151b3565b6000918252602090912001546001600160a01b031633036121065760005b828161ffff161015610b695761ffff8116600090815260dc60205260408120805468ffffffffff00000000191681556003810182905560010155806120fe81615377565b9150506120ba565b60de54612115906001906151df565b8160ff16036121675760de8160ff1681548110612134576121346151b3565b6000918252602090912001546001600160a01b031633146121675760405162461bcd60e51b8152600401610c31906151f2565b806121718161521d565b915050612079565b60005b60de5460ff82161015610c4c5760de8160ff168154811061219f5761219f6151b3565b6000918252602090912001546001600160a01b031633036122db576001600160a01b038216600090815260da60205260408120805460ff1916905560d854905b8181101561101557836001600160a01b031660d88281548110612204576122046151b3565b6000918252602090912001546001600160a01b0316036122c95760d861222b6001846151df565b8154811061223b5761223b6151b3565b60009182526020909120015460d880546001600160a01b039092169183908110612267576122676151b3565b9060005260206000200160006101000a8154816001600160a01b0302191690836001600160a01b0316021790555060d88054806122a6576122a66153a5565b600082815260209020810160001990810180546001600160a01b03191690550190555b806122d3816153bb565b9150506121df565b60de546122ea906001906151df565b8160ff160361233c5760de8160ff1681548110612309576123096151b3565b6000918252602090912001546001600160a01b0316331461233c5760405162461bcd60e51b8152600401610c31906151f2565b806123468161521d565b91505061217c565b34600061235a82613a1a565b905061236760cc546131ed565b8210156123b65760405162461bcd60e51b815260206004820152601f60248201527f56616c75652073686f756c6420626520677265617465207468656e20313030006044820152606401610c31565b60d154339042906000906123d890600160201b900463ffffffff1660016152d4565b60d1549091506000906123f990600160401b900463ffffffff1660016152d4565b6001600160a01b038516600090815260da6020526040902060d4549192509060ff161561242c5761242c83838887613aa7565b61247383604051806020016040528060008152508a60405180602001604052806000815250898b8c6003612460919061538e565b60cb548c9062010000900460ff16613b9e565b6001908101805491820181556000908152602090206008820401805460079092166004026101000a63ffffffff81810219909316949092169190910292909217909155505050505050565b63ffffffff8116600090815260db60209081526040808320601b018054825181850281018501909352808352849383018282801561254757602002820191906000526020600020906000905b82829054906101000a900463ffffffff1663ffffffff168152602001906004019060208260030104928301926001038202915080841161250a5790505b505050505090506000805b82518161ffff1610156125db57600060dc6000858461ffff168151811061257b5761257b6151b3565b602002602001015163ffffffff1663ffffffff16815260200190815260200160002090508060000160049054906101000a900460ff16156125c85760018101546125c590846153d4565b92505b50806125d381615377565b915050612552565b509392505050565b60005b60de5460ff821610156128a65760de8160ff1681548110612609576126096151b3565b6000918252602090912001546001600160a01b031633036128335742875b8763ffffffff168163ffffffff16101561282c5763ffffffff8116600090815260db6020526040812060d25490919087876126636001876153e7565b63ffffffff16818110612678576126786151b3565b9050602002013561268991906153d4565b90506000826015015411801561269e57508084105b80156126bc575060158201546126b590600261538e565b8260160154105b156128175786868463ffffffff168181106126d9576126d96151b3565b602002919091013560198401555060d18054600091600160401b90910463ffffffff16906008612708836152f8565b82546101009290920a63ffffffff8181021990931691831602179091558116600090815260dc60205260409020600381018790558054600160201b64ff00000000199091161781559091508a8a6127606001886153e7565b63ffffffff16818110612775576127756151b3565b60209081029290920135600180850191909155601d8701899055835463ffffffff808a16650100000000000268ffffffff00000000001990921691909117855560d1546002909501805461ffff191661ffff600160601b9097049690961695909517909455601b8701805491820181556000908152929092206008830401805494841660046007909416939093026101000a9283029290930219909316179055505b50508080612824906152f8565b915050612627565b50506128a6565b60de54612842906001906151df565b8160ff16036128945760de8160ff1681548110612861576128616151b3565b6000918252602090912001546001600160a01b031633146128945760405162461bcd60e51b8152600401610c31906151f2565b8061289e8161521d565b9150506125e6565b50505050505050565b6128b7613193565b6001600160a01b03811661291c5760405162461bcd60e51b815260206004820152602660248201527f4f776e61626c653a206e6577206f776e657220697320746865207a65726f206160448201526564647265737360d01b6064820152608401610c31565b610cd0816133f6565b63ffffffff8216600090815260db60205260409020600281015461010090046001600160a01b0316331461299b5760405162461bcd60e51b815260206004820152601d60248201527f596f7520617265206e6f74206f776e6572206f6620746869732069642e0000006044820152606401610c31565b60006129a682613e75565b601e8301549091506129b881836151df565b841115612a1a5760405162461bcd60e51b815260206004820152602a60248201527f506c6561736520656e7465722076616c7565206c657373207468656e20796f7560448201526939103130b630b731b29760b11b6064820152608401610c31565b8383601e016000828254612a2e91906153d4565b909155503390506108fc612a41866131ed565b6040518115909202916000818181858888f19350505050158015612a69573d6000803e3d6000fd5b505050505050565b612b7b604051806104000160405280600063ffffffff1681526020016060815260200160001515815260200160006001600160a01b031681526020016000815260200160008152602001600063ffffffff1681526020016060815260200160608152602001606081526020016000815260200160008152602001600081526020016000815260200160008152602001600081526020016000815260200160008152602001600060ff168152602001600081526020016000815260200160008152602001600081526020016000815260200160008152602001600081526020016000815260200160008152602001606081526020016000815260200160008152602001600081525090565b63ffffffff808316600090815260db6020908152604091829020825161040081019093528054909316825260018301805492939291840191612bbc9061533d565b80601f0160208091040260200160405190810160405280929190818152602001828054612be89061533d565b8015612c355780601f10612c0a57610100808354040283529160200191612c35565b820191906000526020600020905b815481529060010190602001808311612c1857829003601f168201915b5050509183525050600282015460ff811615156020808401919091526101009091046001600160a01b03166040808401919091526003840154606084015260048401546080840152600584015463ffffffff1660a084015260068401805482518185028101850190935280835260c0909401939192909190830182828015612d0857602002820191906000526020600020906000905b82829054906101000a900463ffffffff1663ffffffff1681526020019060040190602082600301049283019260010382029150808411612ccb5790505b5050505050815260200160078201805480602002602001604051908101604052809291908181526020018280548015612d8c57602002820191906000526020600020906000905b82829054906101000a900463ffffffff1663ffffffff1681526020019060040190602082600301049283019260010382029150808411612d4f5790505b5050505050815260200160088201805480602002602001604051908101604052809291908181526020018280548015612e1057602002820191906000526020600020906000905b82829054906101000a900463ffffffff1663ffffffff1681526020019060040190602082600301049283019260010382029150808411612dd35790505b5050505050815260200160098201548152602001600a8201548152602001600b8201548152602001600c8201548152602001600d8201548152602001600e8201548152602001600f8201548152602001601082015481526020016011820160009054906101000a900460ff1660ff1660ff1681526020016012820154815260200160138201548152602001601482015481526020016015820154815260200160168201548152602001601782015481526020016018820154815260200160198201548152602001601a8201548152602001601b8201805480602002602001604051908101604052809291908181526020018280548015612f5b57602002820191906000526020600020906000905b82829054906101000a900463ffffffff1663ffffffff1681526020019060040190602082600301049283019260010382029150808411612f1e5790505b50505050508152602001601c8201548152602001601d8201548152602001601e820154815250509050919050565b6040805180820190915260008152606060208201526001600160a01b038216600090815260da602090815260409182902082518084018452815460ff16151581526001820180548551818602810186019096528086529194929385810193929083018282801561304457602002820191906000526020600020906000905b82829054906101000a900463ffffffff1663ffffffff16815260200190600401906020826003010492830192600103820291508084116130075790505b5050505050815250509050919050565b60cc543490613062906131ed565b8110156130c55760405162461bcd60e51b815260206004820152602b60248201527f56616c75652073686f756c6420626520677265617465207468656e206d696e4360448201526a37b73a3934b13aba34b7b760a91b6064820152608401610c31565b3360006130d183613a1a565b60d15490915042906000906130f490600160401b900463ffffffff1660016152d4565b63ffffffff8716600090815260db602052604090206002810154919250906001600160a01b0386811661010090920416146131715760405162461bcd60e51b815260206004820152601d60248201527f596f7520617265206e6f74206f776e6572206f6620746869732069642e0000006044820152606401610c31565b60d45460ff16156131885761318887838686613aa7565b6128a6878585613e99565b6033546001600160a01b031633146113525760405162461bcd60e51b815260206004820181905260248201527f4f776e61626c653a2063616c6c6572206973206e6f7420746865206f776e65726044820152606401610c31565b60008060c960009054906101000a90046001600160a01b03166001600160a01b031663801dff416040518163ffffffff1660e01b8152600401602060405180830381865afa158015613243573d6000803e3d6000fd5b505050506040513d601f19601f820116820180604052508101906132679190615404565b61327984670de0b6b3a764000061538e565b611bd8919061541d565b610cd0613193565b7f4910fdfa16fed3260ed0e7147f7cc6da11a60208b5b9406d12a635614ffd91435460ff16156132be57610b6983613fb5565b826001600160a01b03166352d1902d6040518163ffffffff1660e01b8152600401602060405180830381865afa925050508015613318575060408051601f3d908101601f1916820190925261331591810190615404565b60015b61337b5760405162461bcd60e51b815260206004820152602e60248201527f45524331393637557067726164653a206e657720696d706c656d656e7461746960448201526d6f6e206973206e6f74205555505360901b6064820152608401610c31565b6000805160206155c083398151915281146133ea5760405162461bcd60e51b815260206004820152602960248201527f45524331393637557067726164653a20756e737570706f727465642070726f786044820152681a58589b195555525160ba1b6064820152608401610c31565b50610b69838383614051565b603380546001600160a01b038381166001600160a01b0319831681179093556040519116919082907f8be0079c531659141344cd1fd0a4f28419497f9722a3daafe3b4186f6b6457e090600090a35050565b600054610100900460ff1661346f5760405162461bcd60e51b8152600401610c319061543f565b611352614076565b600054610100900460ff166113525760405162461bcd60e51b8152600401610c319061543f565b60e081015151600090818115611bd85760d4546001906134c8906301000000900460ff168461538e565b6134d291906151df565b949350505050565b63ffffffff808216600090815260db602090815260408083208151610400810190925280549094168152600184018054939485949293909290840191906135209061533d565b80601f016020809104026020016040519081016040528092919081815260200182805461354c9061533d565b80156135995780601f1061356e57610100808354040283529160200191613599565b820191906000526020600020905b81548152906001019060200180831161357c57829003601f168201915b5050509183525050600282015460ff811615156020808401919091526101009091046001600160a01b03166040808401919091526003840154606084015260048401546080840152600584015463ffffffff1660a084015260068401805482518185028101850190935280835260c090940193919290919083018282801561366c57602002820191906000526020600020906000905b82829054906101000a900463ffffffff1663ffffffff168152602001906004019060208260030104928301926001038202915080841161362f5790505b50505050508152602001600782018054806020026020016040519081016040528092919081815260200182805480156136f057602002820191906000526020600020906000905b82829054906101000a900463ffffffff1663ffffffff16815260200190600401906020826003010492830192600103820291508084116136b35790505b505050505081526020016008820180548060200260200160405190810160405280929190818152602001828054801561377457602002820191906000526020600020906000905b82829054906101000a900463ffffffff1663ffffffff16815260200190600401906020826003010492830192600103820291508084116137375790505b5050505050815260200160098201548152602001600a8201548152602001600b8201548152602001600c8201548152602001600d8201548152602001600e8201548152602001600f8201548152602001601082015481526020016011820160009054906101000a900460ff1660ff1660ff1681526020016012820154815260200160138201548152602001601482015481526020016015820154815260200160168201548152602001601782015481526020016018820154815260200160198201548152602001601a8201548152602001601b82018054806020026020016040519081016040528092919081815260200182805480156138bf57602002820191906000526020600020906000905b82829054906101000a900463ffffffff1663ffffffff16815260200190600401906020826003010492830192600103820291508084116138825790505b5050509183525050601c8201546020820152601d8201546040820152601e9091015460609091015261038081015180516102c0830151929350909161390590600261538e565b836102e001511080156139185750600081115b15613a0d5760005b818161ffff161015613a0757600060dc6000858461ffff1681518110613948576139486151b3565b602002602001015163ffffffff1663ffffffff16815260200190815260200160002090508060000160049054906101000a900460ff16156139f45760cb5460d154600183015460009261ffff908116926139ad92600160601b9091049091169061538e565b6139b7919061541d565b905060008260030154426139cb91906151df565b9050620151806139db828461538e565b6139e5919061541d565b6139ef90896153d4565b975050505b50806139ff81615377565b915050613920565b50613a12565b600093505b505050919050565b600080670de0b6b3a764000060c960009054906101000a90046001600160a01b03166001600160a01b031663801dff416040518163ffffffff1660e01b8152600401602060405180830381865afa158015613a79573d6000803e3d6000fd5b505050506040513d601f19601f82011682018060405250810190613a9d9190615404565b613279908561538e565b63ffffffff808416600081815260dc6020908152604080832089861680855260db845291842081546501000000000090930268ffffffffff000000001990931692909217600160201b178155600180820189905560d1805460028401805461ffff191661ffff600160601b9093049290921691909117905560038301899055601b8401805492830181558652939094206008808604909101805460079096166004026101000a9687029688021990951695909517909355815492949093600160401b9093041691613b77836152f8565b91906101000a81548163ffffffff021916908363ffffffff16021790555050505050505050565b63ffffffff898116600081815260db60205260408120805463ffffffff199081169093178155600581018054909316938b1693909317909155600282018054610100600160a81b0319166101006001600160a01b038a1602179055600382018490556019820184905560178201859055600982018054879290613c229084906153d4565b909155505060018101613c358a826154d0565b5060005b8260ff168160ff161015613e2c57600582015463ffffffff908116600081815260db60205260408120805492939092169003613c76575050613e2c565b8260ff16600003613cff578781600b016000828254613c9591906153d4565b92505081905550806006018d90806001815401808255809150506001900390600052602060002090600891828204019190066004029091909190916101000a81548163ffffffff021916908363ffffffff16021790555089816001019081613cfd91906154d0565b505b8781600d016000828254613d1391906153d4565b92505081905550806007018d90806001815401808255809150506001900390600052602060002090600891828204019190066004029091909190916101000a81548163ffffffff021916908363ffffffff1602179055508c63ffffffff168b63ffffffff168260020160019054906101000a90046001600160a01b03166001600160a01b03167fa7fafc728ec30e34dc1e1276496bf3eb44ca7494679da969455289e6a8f0f1f68760050160009054906101000a900463ffffffff16604051613de8919063ffffffff91909116815260200190565b60405180910390a460d454610100900460ff1615613e0c57613e0c81838a896140a6565b613e16888761474a565b9250819050613e248161521d565b915050613c39565b5060d18054600160201b900463ffffffff16906004613e4a836152f8565b91906101000a81548163ffffffff021916908363ffffffff1602179055505050505050505050505050565b6000816017015482601601541015613e91578160160154611bea565b506017015490565b60cb5463ffffffff8416600090815260db602052604090206201000090910460ff1690613ec784600261538e565b816017018190555083816009016000828254613ee391906153d4565b9250508190555083816015016000828254613efe91906153d4565b90915550600090505b82811015612a6957600582015463ffffffff908116600081815260db60205260408120805492939092169003613f3e575050612a69565b82600003613f60578681600b016000828254613f5a91906153d4565b90915550505b8681600d016000828254613f7491906153d4565b909155505060d454610100900460ff1615613f9557613f95818389896140a6565b613f9f878761474a565b9250819050613fad816153bb565b915050613f07565b6001600160a01b0381163b6140225760405162461bcd60e51b815260206004820152602d60248201527f455243313936373a206e657720696d706c656d656e746174696f6e206973206e60448201526c1bdd08184818dbdb9d1c9858dd609a1b6064820152608401610c31565b6000805160206155c083398151915280546001600160a01b0319166001600160a01b0392909216919091179055565b61405a83614784565b6000825111806140675750805b15610b695761101583836147c4565b600054610100900460ff1661409d5760405162461bcd60e51b8152600401610c319061543f565b611352336133f6565b6011840154604080516104008101909152855463ffffffff16815260018601805460ff909316926144ae929188916020840191906140e39061533d565b80601f016020809104026020016040519081016040528092919081815260200182805461410f9061533d565b801561415c5780601f106141315761010080835404028352916020019161415c565b820191906000526020600020905b81548152906001019060200180831161413f57829003601f168201915b5050509183525050600282015460ff811615156020808401919091526101009091046001600160a01b03166040808401919091526003840154606084015260048401546080840152600584015463ffffffff1660a084015260068401805482518185028101850190935280835260c090940193919290919083018282801561422f57602002820191906000526020600020906000905b82829054906101000a900463ffffffff1663ffffffff16815260200190600401906020826003010492830192600103820291508084116141f25790505b50505050508152602001600782018054806020026020016040519081016040528092919081815260200182805480156142b357602002820191906000526020600020906000905b82829054906101000a900463ffffffff1663ffffffff16815260200190600401906020826003010492830192600103820291508084116142765790505b505050505081526020016008820180548060200260200160405190810160405280929190818152602001828054801561433757602002820191906000526020600020906000905b82829054906101000a900463ffffffff1663ffffffff16815260200190600401906020826003010492830192600103820291508084116142fa5790505b5050505050815260200160098201548152602001600a8201548152602001600b8201548152602001600c8201548152602001600d8201548152602001600e8201548152602001600f8201548152602001601082015481526020016011820160009054906101000a900460ff1660ff1660ff1681526020016012820154815260200160138201548152602001601482015481526020016015820154815260200160168201548152602001601782015481526020016018820154815260200160198201548152602001601a8201548152602001601b820180548060200260200160405190810160405280929190818152602001828054801561448257602002820191906000526020600020906000905b82829054906101000a900463ffffffff1663ffffffff16815260200190600401906020826003010492830192600103820291508084116144455790505b50505050508152602001601c8201548152602001601d8201548152602001601e820154815250506148b8565b60ff16111561101557604080516104008101909152845463ffffffff1681526001850180546144e9929187916020840191906140e39061533d565b60118501805460ff191660ff9283169081178255600090815260dd6020908152604080832060099081018054600181810183559186529385206008850401805460079095166004026101000a63ffffffff81810219909616958c16029490941790935593549094168252929020015461456291906151df565b6012850181905560118501546040805163ffffffff87168152602081019390935260ff90911682820152517fb0d3a9c683344e744a1ae3db383f75a8a01851282c5fe97d6159c1392a2e2a0a9181900360600190a1604080516104008101909152845463ffffffff16815260018501805460dd926000926145ed92899160208401916140e39061533d565b60ff9081168252602082019290925260400160002060080154610100900416156146b157604080516104008101909152845463ffffffff16815260018501805460dd9260009261464792899160208401916140e39061533d565b60ff1660ff16815260200190815260200160002060070154846010015461466e91906153d4565b81111561469d578084601001819055508184600f01600082825461469291906153d4565b909155506110159050565b8184600f01600082825461469291906153d4565b60d454610100900460ff161561101557601184015460ff16600090815260dd60205260409020600501546146e6908590614966565b601184015460ff908116600090815260dd602090815260409182902060058101549054925192909316825263ffffffff8616917f94b6d3d19cc40938e685ef6a1f6476b53ef65295ab094a044e74405a8d0bd05b910160405180910390a350505050565b60d75460d65461475a91906153d4565b8111156147695760d65560d555565b8160d5600082825461477b91906153d4565b90915550505050565b61478d81613fb5565b6040516001600160a01b038216907fbc7cd75a20ee27fd9adebab32041f755214dbc6bffa90cc0225b39da2e5c2d3b90600090a250565b60606001600160a01b0383163b61482c5760405162461bcd60e51b815260206004820152602660248201527f416464726573733a2064656c65676174652063616c6c20746f206e6f6e2d636f6044820152651b9d1c9858dd60d21b6064820152608401610c31565b600080846001600160a01b0316846040516148479190615590565b600060405180830381855af49150503d8060008114614882576040519150601f19603f3d011682016040523d82523d6000602084013e614887565b606091505b50915091506148af82826040518060600160405280602781526020016155e06027913961499e565b95945050505050565b60d95460009060ff16815b8160ff168160ff16101561495f5760ff8116600090815260dd602052604090206001015461014085015110801590614915575060ff8116600090815260dd602052604090206002015461018085015110155b801561493b575060ff8116600090815260dd60205260409020600301546101c085015110155b156149485780925061494d565b61495f565b806149578161521d565b9150506148c3565b5050919050565b816017015481836016015461497b91906153d4565b1061498e57601782015460168301555050565b808260160154610b6991906153d4565b606083156149ad575081611bd8565b611bd883838151156149c25781518083602001fd5b8060405162461bcd60e51b8152600401610c3191906155ac565b82805482825590600052602060002090600f01601090048101928215614a745791602002820160005b83821115614a4457835183826101000a81548161ffff021916908360ff1602179055509260200192600201602081600101049283019260010302614a05565b8015614a725782816101000a81549061ffff0219169055600201602081600101049283019260010302614a44565b505b50614a80929150614b21565b5090565b82805482825590600052602060002090600701600890048101928215614a745791602002820160005b83821115614af157835183826101000a81548163ffffffff021916908363ffffffff1602179055509260200192600401602081600301049283019260010302614aad565b8015614a725782816101000a81549063ffffffff0219169055600401602081600301049283019260010302614af1565b5b80821115614a805760008155600101614b22565b80356001600160a01b0381168114614b4d57600080fd5b919050565b60008060408385031215614b6557600080fd5b614b6e83614b36565b946020939093013593505050565b600060208284031215614b8e57600080fd5b611bd882614b36565b600060208284031215614ba957600080fd5b5035919050565b60008083601f840112614bc257600080fd5b50813567ffffffffffffffff811115614bda57600080fd5b6020830191508360208260051b8501011115614bf557600080fd5b9250929050565b60008060208385031215614c0f57600080fd5b823567ffffffffffffffff811115614c2657600080fd5b614c3285828601614bb0565b90969095509350505050565b634e487b7160e01b600052604160045260246000fd5b60008060408385031215614c6757600080fd5b614c7083614b36565b9150602083013567ffffffffffffffff80821115614c8d57600080fd5b818501915085601f830112614ca157600080fd5b813581811115614cb357614cb3614c3e565b604051601f8201601f19908116603f01168101908382118183101715614cdb57614cdb614c3e565b81604052828152886020848701011115614cf457600080fd5b8260208601602083013760006020848301015280955050505050509250929050565b803563ffffffff81168114614b4d57600080fd5b600060208284031215614d3c57600080fd5b611bd882614d16565b60008060408385031215614d5857600080fd5b614d6183614d16565b9150614d6f60208401614d16565b90509250929050565b60008060008060408587031215614d8e57600080fd5b843567ffffffffffffffff80821115614da657600080fd5b614db288838901614bb0565b90965094506020870135915080821115614dcb57600080fd5b50614dd887828801614bb0565b95989497509550505050565b600080600060608486031215614df957600080fd5b833561ffff81168114614e0b57600080fd5b95602085013595506040909401359392505050565b60008060008060008060808789031215614e3957600080fd5b614e4287614d16565b9550614e5060208801614d16565b9450604087013567ffffffffffffffff80821115614e6d57600080fd5b614e798a838b01614bb0565b90965094506060890135915080821115614e9257600080fd5b50614e9f89828a01614bb0565b979a9699509497509295939492505050565b60008060408385031215614ec457600080fd5b614b6e83614d16565b60005b83811015614ee8578181015183820152602001614ed0565b50506000910152565b60008151808452614f09816020860160208601614ecd565b601f01601f19169290920160200192915050565b600081518084526020808501945080840160005b83811015614f5357815163ffffffff1687529582019590820190600101614f31565b509495945050505050565b60208152614f7560208201835163ffffffff169052565b60006020830151610400806040850152614f93610420850183614ef1565b91506040850151614fa8606086018215159052565b5060608501516001600160a01b038116608086015250608085015160a085015260a085015160c085015260c0850151614fe960e086018263ffffffff169052565b5060e0850151601f196101008187860301818801526150088584614f1d565b9450808801519250506101208187860301818801526150278584614f1d565b9450808801519250506101408187860301818801526150468584614f1d565b9088015161016088810191909152880151610180808901919091528801516101a0808901919091528801516101c0808901919091528801516101e08089019190915288015161020080890191909152880151610220808901919091528801516102408089019190915288015190945091506102606150c88188018460ff169052565b870151610280878101919091528701516102a0808801919091528701516102c0808801919091528701516102e080880191909152870151610300808801919091528701516103208088019190915287015161034080880191909152870151610360808801919091528701516103808088019190915287015186850382016103a08089019190915290925061515c8584614f1d565b908801516103c0888101919091528801516103e08089019190915290970151929095019190915250929392505050565b60208152815115156020820152600060208301516040808401526134d26060840182614f1d565b634e487b7160e01b600052603260045260246000fd5b634e487b7160e01b600052601160045260246000fd5b81810381811115611bea57611bea6151c9565b6020808252601190820152702cb7ba9030b932903737ba1030b236b4b760791b604082015260600190565b600060ff821660ff8103615233576152336151c9565b60010192915050565b6020808252602c908201527f46756e6374696f6e206d7573742062652063616c6c6564207468726f7567682060408201526b19195b1959d85d1958d85b1b60a21b606082015260800190565b6020808252602c908201527f46756e6374696f6e206d7573742062652063616c6c6564207468726f7567682060408201526b6163746976652070726f787960a01b606082015260800190565b63ffffffff8181168382160190808211156152f1576152f16151c9565b5092915050565b600063ffffffff808316818103615311576153116151c9565b6001019392505050565b60006020828403121561532d57600080fd5b81518015158114611bd857600080fd5b600181811c9082168061535157607f821691505b60208210810361537157634e487b7160e01b600052602260045260246000fd5b50919050565b600061ffff808316818103615311576153116151c9565b8082028115828204841417611bea57611bea6151c9565b634e487b7160e01b600052603160045260246000fd5b6000600182016153cd576153cd6151c9565b5060010190565b80820180821115611bea57611bea6151c9565b63ffffffff8281168282160390808211156152f1576152f16151c9565b60006020828403121561541657600080fd5b5051919050565b60008261543a57634e487b7160e01b600052601260045260246000fd5b500490565b6020808252602b908201527f496e697469616c697a61626c653a20636f6e7472616374206973206e6f74206960408201526a6e697469616c697a696e6760a81b606082015260800190565b601f821115610b6957600081815260208120601f850160051c810160208610156154b15750805b601f850160051c820191505b81811015612a69578281556001016154bd565b815167ffffffffffffffff8111156154ea576154ea614c3e565b6154fe816154f8845461533d565b8461548a565b602080601f831160018114615533576000841561551b5750858301515b600019600386901b1c1916600185901b178555612a69565b600085815260208120601f198616915b8281101561556257888601518255948401946001909101908401615543565b50858210156155805787850151600019600388901b60f8161c191681555b5050505050600190811b01905550565b600082516155a2818460208701614ecd565b9190910192915050565b602081526000611bd86020830184614ef156fe360894a13ba1a3210667c828492db98dca3e2076cc3735a920a3ca505d382bbc416464726573733a206c6f772d6c6576656c2064656c65676174652063616c6c206661696c6564a264697066735822122004745189ab99d5f34fdf86d34fd85efaa8a6aaa6ae0edd5c7e86dac5538bcf6564736f6c63430008110033",
  "linkReferences": {},
  "deployedLinkReferences": {}
}