{
  "_format": "hh-sol-artifact-1",
  "contractName": "ReferralV3Upgradeable",
  "sourceName": "contracts/ReferralV3Upgradeable.sol",
  "abi": [
    {
      "anonymous": false,
      "inputs": [
        {
          "indexed": false,
          "internalType": "address",
          "name": "ownerAddress",
          "type": "address"
        },
        {
          "indexed": false,
          "internalType": "uint256",
          "name": "id",
          "type": "uint256"
        },
        {
          "indexed": false,
          "internalType": "uint256",
          "name": "idIndex",
          "type": "uint256"
        }
      ],
      "name": "AccountInfoIDAttached",
      "type": "event"
    },
    {
      "anonymous": false,
      "inputs": [
        {
          "indexed": false,
          "internalType": "uint256",
          "name": "userID",
          "type": "uint256"
        },
        {
          "indexed": false,
          "internalType": "uint256",
          "name": "index",
          "type": "uint256"
        },
        {
          "indexed": false,
          "internalType": "uint256",
          "name": "rank",
          "type": "uint256"
        }
      ],
      "name": "AddedInRoyaltyClubList",
      "type": "event"
    },
    {
      "anonymous": false,
      "inputs": [
        {
          "indexed": false,
          "internalType": "address",
          "name": "previousAdmin",
          "type": "address"
        },
        {
          "indexed": false,
          "internalType": "address",
          "name": "newAdmin",
          "type": "address"
        }
      ],
      "name": "AdminChanged",
      "type": "event"
    },
    {
      "anonymous": false,
      "inputs": [
        {
          "indexed": true,
          "internalType": "address",
          "name": "beacon",
          "type": "address"
        }
      ],
      "name": "BeaconUpgraded",
      "type": "event"
    },
    {
      "anonymous": false,
      "inputs": [
        {
          "indexed": false,
          "internalType": "uint256",
          "name": "id",
          "type": "uint256"
        },
        {
          "indexed": false,
          "internalType": "string",
          "name": "reason",
          "type": "string"
        }
      ],
      "name": "IDDeactivated",
      "type": "event"
    },
    {
      "anonymous": false,
      "inputs": [
        {
          "indexed": false,
          "internalType": "uint8",
          "name": "version",
          "type": "uint8"
        }
      ],
      "name": "Initialized",
      "type": "event"
    },
    {
      "anonymous": false,
      "inputs": [
        {
          "indexed": true,
          "internalType": "address",
          "name": "previousOwner",
          "type": "address"
        },
        {
          "indexed": true,
          "internalType": "address",
          "name": "newOwner",
          "type": "address"
        }
      ],
      "name": "OwnershipTransferred",
      "type": "event"
    },
    {
      "anonymous": false,
      "inputs": [
        {
          "indexed": false,
          "internalType": "uint256",
          "name": "packageID",
          "type": "uint256"
        }
      ],
      "name": "PackageAdded",
      "type": "event"
    },
    {
      "anonymous": false,
      "inputs": [
        {
          "indexed": false,
          "internalType": "uint256",
          "name": "packageID",
          "type": "uint256"
        }
      ],
      "name": "PackageRemoved",
      "type": "event"
    },
    {
      "anonymous": false,
      "inputs": [
        {
          "indexed": false,
          "internalType": "uint256",
          "name": "packageID",
          "type": "uint256"
        }
      ],
      "name": "PackageUpdated",
      "type": "event"
    },
    {
      "anonymous": false,
      "inputs": [
        {
          "indexed": true,
          "internalType": "uint256",
          "name": "userID",
          "type": "uint256"
        },
        {
          "indexed": true,
          "internalType": "uint256",
          "name": "reward",
          "type": "uint256"
        }
      ],
      "name": "ROIClaimed",
      "type": "event"
    },
    {
      "anonymous": false,
      "inputs": [
        {
          "indexed": true,
          "internalType": "uint256",
          "name": "refererID",
          "type": "uint256"
        },
        {
          "indexed": true,
          "internalType": "uint256",
          "name": "level",
          "type": "uint256"
        },
        {
          "indexed": true,
          "internalType": "string",
          "name": "reason",
          "type": "string"
        }
      ],
      "name": "ReferralNotPaid",
      "type": "event"
    },
    {
      "anonymous": false,
      "inputs": [
        {
          "indexed": true,
          "internalType": "uint256",
          "name": "refereeID",
          "type": "uint256"
        },
        {
          "indexed": true,
          "internalType": "uint256",
          "name": "referrerID",
          "type": "uint256"
        },
        {
          "indexed": true,
          "internalType": "uint256",
          "name": "amount",
          "type": "uint256"
        },
        {
          "indexed": false,
          "internalType": "uint256",
          "name": "level",
          "type": "uint256"
        }
      ],
      "name": "ReferralRewardPaid",
      "type": "event"
    },
    {
      "anonymous": false,
      "inputs": [
        {
          "indexed": true,
          "internalType": "address",
          "name": "refereeID",
          "type": "address"
        },
        {
          "indexed": true,
          "internalType": "address",
          "name": "referrerID",
          "type": "address"
        },
        {
          "indexed": true,
          "internalType": "string",
          "name": "reason",
          "type": "string"
        }
      ],
      "name": "RegisterRefererFailed",
      "type": "event"
    },
    {
      "anonymous": false,
      "inputs": [
        {
          "indexed": true,
          "internalType": "uint256",
          "name": "id",
          "type": "uint256"
        },
        {
          "indexed": true,
          "internalType": "uint256",
          "name": "refererID",
          "type": "uint256"
        }
      ],
      "name": "RegisteredReferer",
      "type": "event"
    },
    {
      "anonymous": false,
      "inputs": [
        {
          "indexed": true,
          "internalType": "address",
          "name": "parent",
          "type": "address"
        },
        {
          "indexed": false,
          "internalType": "uint256",
          "name": "parentAccountID",
          "type": "uint256"
        },
        {
          "indexed": true,
          "internalType": "uint256",
          "name": "referrerID",
          "type": "uint256"
        },
        {
          "indexed": true,
          "internalType": "uint256",
          "name": "refereeID",
          "type": "uint256"
        }
      ],
      "name": "RegisteredTeamAddress",
      "type": "event"
    },
    {
      "anonymous": false,
      "inputs": [
        {
          "indexed": false,
          "internalType": "uint256",
          "name": "packageID",
          "type": "uint256"
        },
        {
          "indexed": true,
          "internalType": "uint256",
          "name": "userID",
          "type": "uint256"
        },
        {
          "indexed": true,
          "internalType": "uint256",
          "name": "amount",
          "type": "uint256"
        }
      ],
      "name": "RoyaltyClubBonusPaid",
      "type": "event"
    },
    {
      "anonymous": false,
      "inputs": [
        {
          "indexed": true,
          "internalType": "address",
          "name": "implementation",
          "type": "address"
        }
      ],
      "name": "Upgraded",
      "type": "event"
    },
    {
      "inputs": [
        {
          "internalType": "uint256",
          "name": "",
          "type": "uint256"
        }
      ],
      "name": "_disabledUsersList",
      "outputs": [
        {
          "internalType": "address",
          "name": "",
          "type": "address"
        }
      ],
      "stateMutability": "view",
      "type": "function"
    },
    {
      "inputs": [
        {
          "internalType": "uint32",
          "name": "_refererID",
          "type": "uint32"
        }
      ],
      "name": "activateID",
      "outputs": [],
      "stateMutability": "payable",
      "type": "function"
    },
    {
      "inputs": [
        {
          "internalType": "uint32[]",
          "name": "_userID",
          "type": "uint32[]"
        }
      ],
      "name": "addTeamAddress",
      "outputs": [],
      "stateMutability": "nonpayable",
      "type": "function"
    },
    {
      "inputs": [
        {
          "internalType": "uint256",
          "name": "",
          "type": "uint256"
        }
      ],
      "name": "admins",
      "outputs": [
        {
          "internalType": "address",
          "name": "",
          "type": "address"
        }
      ],
      "stateMutability": "view",
      "type": "function"
    },
    {
      "inputs": [
        {
          "internalType": "uint32",
          "name": "_id",
          "type": "uint32"
        },
        {
          "internalType": "uint256",
          "name": "_value",
          "type": "uint256"
        }
      ],
      "name": "claimBalance",
      "outputs": [],
      "stateMutability": "nonpayable",
      "type": "function"
    },
    {
      "inputs": [],
      "name": "companyTurnoverTimeLimit",
      "outputs": [
        {
          "internalType": "uint256",
          "name": "",
          "type": "uint256"
        }
      ],
      "stateMutability": "view",
      "type": "function"
    },
    {
      "inputs": [],
      "name": "companyTurnoverTimeStamp",
      "outputs": [
        {
          "internalType": "uint256",
          "name": "",
          "type": "uint256"
        }
      ],
      "stateMutability": "view",
      "type": "function"
    },
    {
      "inputs": [],
      "name": "companyTurnoverWithTimeLimit",
      "outputs": [
        {
          "internalType": "uint256",
          "name": "",
          "type": "uint256"
        }
      ],
      "stateMutability": "view",
      "type": "function"
    },
    {
      "inputs": [],
      "name": "decimals",
      "outputs": [
        {
          "internalType": "uint16",
          "name": "",
          "type": "uint16"
        }
      ],
      "stateMutability": "view",
      "type": "function"
    },
    {
      "inputs": [
        {
          "internalType": "uint256",
          "name": "_number",
          "type": "uint256"
        }
      ],
      "name": "deleteAllROIs",
      "outputs": [],
      "stateMutability": "nonpayable",
      "type": "function"
    },
    {
      "inputs": [
        {
          "internalType": "uint32",
          "name": "_from",
          "type": "uint32"
        },
        {
          "internalType": "uint32",
          "name": "_to",
          "type": "uint32"
        }
      ],
      "name": "deleteDirectBusiness",
      "outputs": [],
      "stateMutability": "nonpayable",
      "type": "function"
    },
    {
      "inputs": [
        {
          "internalType": "uint32",
          "name": "_from",
          "type": "uint32"
        },
        {
          "internalType": "uint32",
          "name": "_to",
          "type": "uint32"
        }
      ],
      "name": "deleteROIDetails",
      "outputs": [],
      "stateMutability": "nonpayable",
      "type": "function"
    },
    {
      "inputs": [
        {
          "internalType": "address",
          "name": "_userAddress",
          "type": "address"
        }
      ],
      "name": "disableUserAdmin",
      "outputs": [],
      "stateMutability": "nonpayable",
      "type": "function"
    },
    {
      "inputs": [
        {
          "internalType": "uint32",
          "name": "_id",
          "type": "uint32"
        }
      ],
      "name": "getIDAccount",
      "outputs": [
        {
          "components": [
            {
              "internalType": "uint32",
              "name": "id",
              "type": "uint32"
            },
            {
              "internalType": "string",
              "name": "oldID",
              "type": "string"
            },
            {
              "internalType": "bool",
              "name": "isActive",
              "type": "bool"
            },
            {
              "internalType": "address",
              "name": "owner",
              "type": "address"
            },
            {
              "internalType": "uint256",
              "name": "joiningTime",
              "type": "uint256"
            },
            {
              "internalType": "uint256",
              "name": "deactivateTime",
              "type": "uint256"
            },
            {
              "internalType": "uint32",
              "name": "refererID",
              "type": "uint32"
            },
            {
              "internalType": "uint32[]",
              "name": "refereeIDs",
              "type": "uint32[]"
            },
            {
              "internalType": "uint32[]",
              "name": "teamIDs",
              "type": "uint32[]"
            },
            {
              "internalType": "uint32[]",
              "name": "teamLevel",
              "type": "uint32[]"
            },
            {
              "internalType": "uint256",
              "name": "selfBusiness",
              "type": "uint256"
            },
            {
              "internalType": "uint256",
              "name": "selfBusinessOld",
              "type": "uint256"
            },
            {
              "internalType": "uint256",
              "name": "directBusiness",
              "type": "uint256"
            },
            {
              "internalType": "uint256",
              "name": "directBusinessOld",
              "type": "uint256"
            },
            {
              "internalType": "uint256",
              "name": "teamBusiness",
              "type": "uint256"
            },
            {
              "internalType": "uint256",
              "name": "teamBusinessOld",
              "type": "uint256"
            },
            {
              "internalType": "uint256",
              "name": "royaltyClubBusiness",
              "type": "uint256"
            },
            {
              "internalType": "uint256",
              "name": "timeStampRoyaltyClub",
              "type": "uint256"
            },
            {
              "internalType": "uint8",
              "name": "royaltyClubPackageID",
              "type": "uint8"
            },
            {
              "internalType": "uint256",
              "name": "royaltyClubListIndex",
              "type": "uint256"
            },
            {
              "internalType": "uint256",
              "name": "referralPaid",
              "type": "uint256"
            },
            {
              "internalType": "uint256",
              "name": "rewardPaidRoyaltyClub",
              "type": "uint256"
            },
            {
              "internalType": "uint256",
              "name": "totalTopUp",
              "type": "uint256"
            },
            {
              "internalType": "uint256",
              "name": "totalIncome",
              "type": "uint256"
            },
            {
              "internalType": "uint256",
              "name": "totalMaxLimitAmount",
              "type": "uint256"
            },
            {
              "internalType": "uint256",
              "name": "currentTopUp",
              "type": "uint256"
            },
            {
              "internalType": "uint256",
              "name": "currentTopUpTime",
              "type": "uint256"
            },
            {
              "internalType": "uint256",
              "name": "totalROIClaimed",
              "type": "uint256"
            },
            {
              "internalType": "uint32[]",
              "name": "roiIDs",
              "type": "uint32[]"
            },
            {
              "internalType": "uint256",
              "name": "roiClaimed",
              "type": "uint256"
            },
            {
              "internalType": "uint256",
              "name": "roiClaimedTimestamp",
              "type": "uint256"
            },
            {
              "internalType": "uint256",
              "name": "balanceClaimed",
              "type": "uint256"
            }
          ],
          "internalType": "struct ReferralV3Upgradeable.StructID",
          "name": "",
          "type": "tuple"
        }
      ],
      "stateMutability": "view",
      "type": "function"
    },
    {
      "inputs": [],
      "name": "getMinContributionETH",
      "outputs": [
        {
          "internalType": "uint256",
          "name": "",
          "type": "uint256"
        }
      ],
      "stateMutability": "view",
      "type": "function"
    },
    {
      "inputs": [],
      "name": "getPriceOracleContract",
      "outputs": [
        {
          "internalType": "address",
          "name": "",
          "type": "address"
        }
      ],
      "stateMutability": "view",
      "type": "function"
    },
    {
      "inputs": [
        {
          "internalType": "uint32",
          "name": "_roiID",
          "type": "uint32"
        }
      ],
      "name": "getROIAccount",
      "outputs": [
        {
          "components": [
            {
              "internalType": "uint32",
              "name": "id",
              "type": "uint32"
            },
            {
              "internalType": "bool",
              "name": "isActive",
              "type": "bool"
            },
            {
              "internalType": "uint32",
              "name": "ownerID",
              "type": "uint32"
            },
            {
              "internalType": "uint256",
              "name": "value",
              "type": "uint256"
            },
            {
              "internalType": "uint16",
              "name": "roiRate",
              "type": "uint16"
            },
            {
              "internalType": "uint256",
              "name": "startTime",
              "type": "uint256"
            }
          ],
          "internalType": "struct ReferralV3Upgradeable.StructROI",
          "name": "",
          "type": "tuple"
        }
      ],
      "stateMutability": "view",
      "type": "function"
    },
    {
      "inputs": [
        {
          "internalType": "address",
          "name": "_address",
          "type": "address"
        }
      ],
      "name": "getUserAccount",
      "outputs": [
        {
          "components": [
            {
              "internalType": "bool",
              "name": "isDisabled",
              "type": "bool"
            },
            {
              "internalType": "uint32[]",
              "name": "accountIDs",
              "type": "uint32[]"
            }
          ],
          "internalType": "struct ReferralV3Upgradeable.StructAccount",
          "name": "",
          "type": "tuple"
        }
      ],
      "stateMutability": "view",
      "type": "function"
    },
    {
      "inputs": [
        {
          "internalType": "uint32",
          "name": "_id",
          "type": "uint32"
        }
      ],
      "name": "getUserIDTotalROI",
      "outputs": [
        {
          "internalType": "uint256",
          "name": "",
          "type": "uint256"
        }
      ],
      "stateMutability": "view",
      "type": "function"
    },
    {
      "inputs": [
        {
          "internalType": "uint32",
          "name": "_id",
          "type": "uint32"
        }
      ],
      "name": "getUserTotalActiveROIValue",
      "outputs": [
        {
          "internalType": "uint256",
          "name": "",
          "type": "uint256"
        }
      ],
      "stateMutability": "view",
      "type": "function"
    },
    {
      "inputs": [
        {
          "internalType": "uint32",
          "name": "_id",
          "type": "uint32"
        }
      ],
      "name": "getUserUnlockCount",
      "outputs": [
        {
          "internalType": "uint256",
          "name": "",
          "type": "uint256"
        }
      ],
      "stateMutability": "view",
      "type": "function"
    },
    {
      "inputs": [],
      "name": "initialize",
      "outputs": [],
      "stateMutability": "nonpayable",
      "type": "function"
    },
    {
      "inputs": [],
      "name": "isPayROI",
      "outputs": [
        {
          "internalType": "bool",
          "name": "",
          "type": "bool"
        }
      ],
      "stateMutability": "view",
      "type": "function"
    },
    {
      "inputs": [],
      "name": "isPayRoyaltyClubBonus",
      "outputs": [
        {
          "internalType": "bool",
          "name": "",
          "type": "bool"
        }
      ],
      "stateMutability": "view",
      "type": "function"
    },
    {
      "inputs": [
        {
          "internalType": "address",
          "name": "_userAddress",
          "type": "address"
        }
      ],
      "name": "isUserDisabledByAdmin",
      "outputs": [
        {
          "internalType": "bool",
          "name": "",
          "type": "bool"
        }
      ],
      "stateMutability": "view",
      "type": "function"
    },
    {
      "inputs": [
        {
          "internalType": "uint256",
          "name": "",
          "type": "uint256"
        }
      ],
      "name": "levelRates",
      "outputs": [
        {
          "internalType": "uint16",
          "name": "",
          "type": "uint16"
        }
      ],
      "stateMutability": "view",
      "type": "function"
    },
    {
      "inputs": [],
      "name": "maxLevelsCount",
      "outputs": [
        {
          "internalType": "uint8",
          "name": "",
          "type": "uint8"
        }
      ],
      "stateMutability": "view",
      "type": "function"
    },
    {
      "inputs": [],
      "name": "minContributionIn",
      "outputs": [
        {
          "internalType": "uint256",
          "name": "",
          "type": "uint256"
        }
      ],
      "stateMutability": "view",
      "type": "function"
    },
    {
      "inputs": [],
      "name": "owner",
      "outputs": [
        {
          "internalType": "address",
          "name": "",
          "type": "address"
        }
      ],
      "stateMutability": "view",
      "type": "function"
    },
    {
      "inputs": [],
      "name": "packagesCount",
      "outputs": [
        {
          "internalType": "uint8",
          "name": "",
          "type": "uint8"
        }
      ],
      "stateMutability": "view",
      "type": "function"
    },
    {
      "inputs": [],
      "name": "proxiableUUID",
      "outputs": [
        {
          "internalType": "bytes32",
          "name": "",
          "type": "bytes32"
        }
      ],
      "stateMutability": "view",
      "type": "function"
    },
    {
      "inputs": [
        {
          "internalType": "address",
          "name": "_userAddress",
          "type": "address"
        }
      ],
      "name": "removeUserFromDisableList",
      "outputs": [],
      "stateMutability": "nonpayable",
      "type": "function"
    },
    {
      "inputs": [],
      "name": "renounceOwnership",
      "outputs": [],
      "stateMutability": "nonpayable",
      "type": "function"
    },
    {
      "inputs": [],
      "name": "royaltyClubPackageCount",
      "outputs": [
        {
          "internalType": "uint8",
          "name": "",
          "type": "uint8"
        }
      ],
      "stateMutability": "view",
      "type": "function"
    },
    {
      "inputs": [
        {
          "internalType": "address",
          "name": "_address",
          "type": "address"
        },
        {
          "internalType": "uint256",
          "name": "_value",
          "type": "uint256"
        }
      ],
      "name": "sendETHAdmin",
      "outputs": [],
      "stateMutability": "nonpayable",
      "type": "function"
    },
    {
      "inputs": [
        {
          "internalType": "address",
          "name": "_adminAddress",
          "type": "address"
        }
      ],
      "name": "setAdmin",
      "outputs": [],
      "stateMutability": "nonpayable",
      "type": "function"
    },
    {
      "inputs": [
        {
          "internalType": "uint256",
          "name": "_valueWei",
          "type": "uint256"
        }
      ],
      "name": "setMinContribution",
      "outputs": [],
      "stateMutability": "nonpayable",
      "type": "function"
    },
    {
      "inputs": [
        {
          "internalType": "address",
          "name": "_contractAddress",
          "type": "address"
        }
      ],
      "name": "setPriceOracleContract",
      "outputs": [],
      "stateMutability": "nonpayable",
      "type": "function"
    },
    {
      "inputs": [
        {
          "internalType": "uint16",
          "name": "_roiRateInDecimals",
          "type": "uint16"
        },
        {
          "internalType": "uint256",
          "name": "_roiDurationInDays",
          "type": "uint256"
        },
        {
          "internalType": "uint256",
          "name": "_roiClaimTimelimitInSeconds",
          "type": "uint256"
        }
      ],
      "name": "setROI",
      "outputs": [],
      "stateMutability": "nonpayable",
      "type": "function"
    },
    {
      "inputs": [
        {
          "internalType": "uint32",
          "name": "_count",
          "type": "uint32"
        }
      ],
      "name": "setROIIDCount",
      "outputs": [],
      "stateMutability": "nonpayable",
      "type": "function"
    },
    {
      "inputs": [],
      "name": "totalIDs",
      "outputs": [
        {
          "internalType": "uint32",
          "name": "",
          "type": "uint32"
        }
      ],
      "stateMutability": "view",
      "type": "function"
    },
    {
      "inputs": [],
      "name": "totalROIIDs",
      "outputs": [
        {
          "internalType": "uint32",
          "name": "",
          "type": "uint32"
        }
      ],
      "stateMutability": "view",
      "type": "function"
    },
    {
      "inputs": [],
      "name": "totalROIPaid",
      "outputs": [
        {
          "internalType": "uint256",
          "name": "",
          "type": "uint256"
        }
      ],
      "stateMutability": "view",
      "type": "function"
    },
    {
      "inputs": [],
      "name": "totalReferralPaid",
      "outputs": [
        {
          "internalType": "uint256",
          "name": "",
          "type": "uint256"
        }
      ],
      "stateMutability": "view",
      "type": "function"
    },
    {
      "inputs": [],
      "name": "totalRoyaltyClubBonusPaid",
      "outputs": [
        {
          "internalType": "uint256",
          "name": "",
          "type": "uint256"
        }
      ],
      "stateMutability": "view",
      "type": "function"
    },
    {
      "inputs": [],
      "name": "totalRoyaltyClubBonusPaidETH",
      "outputs": [
        {
          "internalType": "uint256",
          "name": "",
          "type": "uint256"
        }
      ],
      "stateMutability": "view",
      "type": "function"
    },
    {
      "inputs": [
        {
          "internalType": "uint32",
          "name": "_id",
          "type": "uint32"
        }
      ],
      "name": "totalTopUpID",
      "outputs": [],
      "stateMutability": "payable",
      "type": "function"
    },
    {
      "inputs": [],
      "name": "totalUsers",
      "outputs": [
        {
          "internalType": "uint32",
          "name": "",
          "type": "uint32"
        }
      ],
      "stateMutability": "view",
      "type": "function"
    },
    {
      "inputs": [
        {
          "internalType": "address",
          "name": "newOwner",
          "type": "address"
        }
      ],
      "name": "transferOwnership",
      "outputs": [],
      "stateMutability": "nonpayable",
      "type": "function"
    },
    {
      "inputs": [
        {
          "internalType": "uint32[]",
          "name": "_id",
          "type": "uint32[]"
        },
        {
          "internalType": "uint256[]",
          "name": "_joiningTime",
          "type": "uint256[]"
        }
      ],
      "name": "updateIDJoinTime",
      "outputs": [],
      "stateMutability": "nonpayable",
      "type": "function"
    },
    {
      "inputs": [
        {
          "internalType": "uint32",
          "name": "_from",
          "type": "uint32"
        },
        {
          "internalType": "uint32",
          "name": "_to",
          "type": "uint32"
        }
      ],
      "name": "updateReferralRewards",
      "outputs": [],
      "stateMutability": "nonpayable",
      "type": "function"
    },
    {
      "inputs": [
        {
          "internalType": "uint32",
          "name": "_value",
          "type": "uint32"
        }
      ],
      "name": "updateTotalIDs",
      "outputs": [],
      "stateMutability": "nonpayable",
      "type": "function"
    },
    {
      "inputs": [
        {
          "internalType": "address",
          "name": "newImplementation",
          "type": "address"
        }
      ],
      "name": "upgradeTo",
      "outputs": [],
      "stateMutability": "nonpayable",
      "type": "function"
    },
    {
      "inputs": [
        {
          "internalType": "address",
          "name": "newImplementation",
          "type": "address"
        },
        {
          "internalType": "bytes",
          "name": "data",
          "type": "bytes"
        }
      ],
      "name": "upgradeToAndCall",
      "outputs": [],
      "stateMutability": "payable",
      "type": "function"
    },
    {
      "inputs": [],
      "name": "withdrawETHAdmin",
      "outputs": [],
      "stateMutability": "nonpayable",
      "type": "function"
    },
    {
      "inputs": [
        {
          "internalType": "address",
          "name": "_tokenAddress",
          "type": "address"
        },
        {
          "internalType": "uint256",
          "name": "_value",
          "type": "uint256"
        }
      ],
      "name": "withdrawTokensAdmin",
      "outputs": [],
      "stateMutability": "nonpayable",
      "type": "function"
    },
    {
      "stateMutability": "payable",
      "type": "receive"
    }
  ],
  "bytecode": "0x60a06040523060805234801561001457600080fd5b5060805161551761004c60003960008181610e3601528181610e76015281816111eb0152818161122b01526112ba01526155176000f3fe60806040526004361061036f5760003560e01c8063852ff2fd116101c6578063c82801ca116100f7578063f2fde38b11610095578063f830e57b1161006f578063f830e57b14610adc578063fafc959714610b09578063fb47e01614610b28578063ff4ec1f114610b5557600080fd5b8063f2fde38b14610a86578063f31a2d0f14610aa6578063f41bfeef14610ac657600080fd5b8063da1e7c6e116100d1578063da1e7c6e14610a13578063e52356f314610a33578063e5682e3814610a53578063ea62f71514610a6657600080fd5b8063c82801ca146109b3578063cf35728b146109d3578063d895af2c146109f357600080fd5b8063af2f39d111610164578063bff1f9e11161013e578063bff1f9e114610835578063c3ab5ebf14610852578063c7464ea414610973578063c81ea2161461099357600080fd5b8063af2f39d1146107db578063b47181d3146107f5578063bf46de631461081557600080fd5b80639f4e8398116101a05780639f4e839814610757578063a0b6105f14610777578063a1b8017514610797578063a28a3686146107bb57600080fd5b8063852ff2fd146107035780638da5cb5b146107195780638df05d9c1461073757600080fd5b806335759788116102a05780635e701d861161023e578063715018a611610218578063715018a6146106a35780637879b5ef146106b85780637c599486146106d85780638129fc1c146106ee57600080fd5b80635e701d8614610629578063704b6c021461066357806370d9e0811461068357600080fd5b806349b325041161027a57806349b32504146105985780634f1ef286146105b857806352d1902d146105cb578063538ffe0c146105e057600080fd5b806335759788146105435780633659cfe614610558578063473b0d461461057857600080fd5b80631f9e65e41161030d5780632ed421d2116102e75780632ed421d2146104c957806330abbcc5146104df578063313ce567146104f557806334b66aa91461052357600080fd5b80631f9e65e41461048057806322f88b52146104955780632913497b146104ab57600080fd5b806314bfd6d01161034957806314bfd6d0146103e657806318e10bff1461041e5780631c961c051461044a5780631f7f83ba1461046057600080fd5b806309de82cd1461037b5780630b243dad146103a45780630efdbb6a146103c657600080fd5b3661037657005b600080fd5b34801561038757600080fd5b5061039160ce5481565b6040519081526020015b60405180910390f35b3480156103b057600080fd5b506103c46103bf366004614adb565b610b68565b005b3480156103d257600080fd5b506103c46103e1366004614b05565b610bab565b3480156103f257600080fd5b50610406610401366004614b20565b610c8d565b6040516001600160a01b03909116815260200161039b565b34801561042a57600080fd5b5060d9546104389060ff1681565b60405160ff909116815260200161039b565b34801561045657600080fd5b5061039160cc5481565b34801561046c57600080fd5b5061040661047b366004614b20565b610cb7565b34801561048c57600080fd5b50610391610cc7565b3480156104a157600080fd5b5061039160d55481565b3480156104b757600080fd5b5060c9546001600160a01b0316610406565b3480156104d557600080fd5b5061039160d65481565b3480156104eb57600080fd5b5061039160d05481565b34801561050157600080fd5b5060cb546105109061ffff1681565b60405161ffff909116815260200161039b565b34801561052f57600080fd5b506103c461053e366004614b4d565b610cd9565b34801561054f57600080fd5b506103c4610df5565b34801561056457600080fd5b506103c4610573366004614b05565b610e2c565b34801561058457600080fd5b506103c4610593366004614b20565b610f08565b3480156105a457600080fd5b506103c46105b3366004614bcc565b610f15565b6103c46105c6366004614c24565b6111e1565b3480156105d757600080fd5b506103916112ad565b3480156105ec57600080fd5b506106196105fb366004614b05565b6001600160a01b0316600090815260da602052604090205460ff1690565b604051901515815260200161039b565b34801561063557600080fd5b5060d15461064e90640100000000900463ffffffff1681565b60405163ffffffff909116815260200161039b565b34801561066f57600080fd5b506103c461067e366004614b05565b611360565b34801561068f57600080fd5b506103c461069e366004614ce6565b6113ba565b3480156106af57600080fd5b506103c4611494565b3480156106c457600080fd5b506105106106d3366004614b20565b6114a8565b3480156106e457600080fd5b5061039160cf5481565b3480156106fa57600080fd5b506103c46114e0565b34801561070f57600080fd5b5061039160cd5481565b34801561072557600080fd5b506033546001600160a01b0316610406565b34801561074357600080fd5b5060cb546104389062010000900460ff1681565b34801561076357600080fd5b506103c4610772366004614b05565b611780565b34801561078357600080fd5b506103c4610792366004614adb565b61189c565b3480156107a357600080fd5b5060d15461064e90600160401b900463ffffffff1681565b3480156107c757600080fd5b5060d4546104389062010000900460ff1681565b3480156107e757600080fd5b5060d4546106199060ff1681565b34801561080157600080fd5b50610391610810366004614ce6565b611915565b34801561082157600080fd5b50610391610830366004614ce6565b611d33565b34801561084157600080fd5b5060d15461064e9063ffffffff1681565b34801561085e57600080fd5b5061091761086d366004614ce6565b6040805160c081018252600080825260208201819052918101829052606081018290526080810182905260a08101919091525063ffffffff908116600090815260dc6020908152604091829020825160c0810184528154808616825260ff640100000000820416151593820193909352650100000000009092049093169181019190915260018201546060820152600282015461ffff16608082015260039091015460a082015290565b60405161039b9190600060c08201905063ffffffff808451168352602084015115156020840152806040850151166040840152506060830151606083015261ffff608084015116608083015260a083015160a083015292915050565b34801561097f57600080fd5b506103c461098e366004614b4d565b611d44565b34801561099f57600080fd5b506103c46109ae366004614d01565b611eb4565b3480156109bf57600080fd5b506103c46109ce366004614d6d565b61200a565b3480156109df57600080fd5b506103c46109ee366004614b4d565b6120f2565b3480156109ff57600080fd5b506103c4610a0e366004614ce6565b6121e7565b348015610a1f57600080fd5b506103c4610a2e366004614b20565b6122bf565b348015610a3f57600080fd5b506103c4610a4e366004614b05565b6123c2565b6103c4610a61366004614ce6565b612597565b348015610a7257600080fd5b50610391610a81366004614ce6565b612708565b348015610a9257600080fd5b506103c4610aa1366004614b05565b61282d565b348015610ab257600080fd5b506103c4610ac1366004614da9565b6128a3565b348015610ad257600080fd5b5061039160d75481565b348015610ae857600080fd5b50610afc610af7366004614ce6565b6129ef565b60405161039b9190614e56565b348015610b1557600080fd5b5060d45461061990610100900460ff1681565b348015610b3457600080fd5b50610b48610b43366004614b05565b612f07565b60405161039b9190615084565b6103c4610b63366004614ce6565b612fd2565b610b7061311a565b6040516001600160a01b0383169082156108fc029083906000818181858888f19350505050158015610ba6573d6000803e3d6000fd5b505050565b60005b60de5460ff82161015610c895760de8160ff1681548110610bd157610bd16150ab565b6000918252602090912001546001600160a01b03163303610c0d5760c980546001600160a01b0384166001600160a01b03199091161790555050565b60de54610c1c906001906150d7565b8160ff1603610c775760de8160ff1681548110610c3b57610c3b6150ab565b6000918252602090912001546001600160a01b03163314610c775760405162461bcd60e51b8152600401610c6e906150ea565b60405180910390fd5b80610c8181615115565b915050610bae565b5050565b60de8181548110610c9d57600080fd5b6000918252602090912001546001600160a01b0316905081565b60d88181548110610c9d57600080fd5b6000610cd460cc54613174565b905090565b60005b60de5460ff82161015610ba65760de8160ff1681548110610cff57610cff6150ab565b6000918252602090912001546001600160a01b03163303610d8257825b8263ffffffff168163ffffffff161015610d7c5763ffffffff8116600090815260db60205260408120601681015460138201805492939192909190610d62908490615134565b90915550829150610d74905081615147565b915050610d1c565b50505050565b60de54610d91906001906150d7565b8160ff1603610de35760de8160ff1681548110610db057610db06150ab565b6000918252602090912001546001600160a01b03163314610de35760405162461bcd60e51b8152600401610c6e906150ea565b80610ded81615115565b915050610cdc565b610dfd61311a565b60405133904780156108fc02916000818181858888f19350505050158015610e29573d6000803e3d6000fd5b50565b6001600160a01b037f0000000000000000000000000000000000000000000000000000000000000000163003610e745760405162461bcd60e51b8152600401610c6e9061516a565b7f00000000000000000000000000000000000000000000000000000000000000006001600160a01b0316610ebd60008051602061549b833981519152546001600160a01b031690565b6001600160a01b031614610ee35760405162461bcd60e51b8152600401610c6e906151b6565b610eec8161320a565b60408051600080825260208201909252610e2991839190613212565b610f1061311a565b60cc55565b60005b60de5460ff82161015610ba65760de8160ff1681548110610f3b57610f3b6150ab565b6000918252602090912001546001600160a01b0316330361116e5760005b63ffffffff8116831115610d7c57600060db600086868563ffffffff16818110610f8557610f856150ab565b9050602002016020810190610f9a9190614ce6565b63ffffffff1681526020810191909152604001600090812060cb5490925062010000900460ff16905b8160ff168163ffffffff16101561115857600583015463ffffffff908116600081815260db60205260408120865492939092169003611003575050611158565b8060070189898863ffffffff1681811061101f5761101f6150ab565b90506020020160208101906110349190614ce6565b815460018082018455600093845260209093206008808304909101805460079093166004026101000a63ffffffff818102199094169490931692909202929092179055820190611085908590615202565b8154600181018355600092835260209092206008830401805460079093166004026101000a63ffffffff81810219909416928416029190911790558990899088168181106110d5576110d56150ab565b90506020020160208101906110ea9190614ce6565b6002820154825460405163ffffffff9182168152928116929085169161010090046001600160a01b0316907fa7fafc728ec30e34dc1e1276496bf3eb44ca7494679da969455289e6a8f0f1f69060200160405180910390a4935081905061115081615147565b915050610fc3565b505050808061116690615147565b915050610f59565b60de5461117d906001906150d7565b8160ff16036111cf5760de8160ff168154811061119c5761119c6150ab565b6000918252602090912001546001600160a01b031633146111cf5760405162461bcd60e51b8152600401610c6e906150ea565b806111d981615115565b915050610f18565b6001600160a01b037f00000000000000000000000000000000000000000000000000000000000000001630036112295760405162461bcd60e51b8152600401610c6e9061516a565b7f00000000000000000000000000000000000000000000000000000000000000006001600160a01b031661127260008051602061549b833981519152546001600160a01b031690565b6001600160a01b0316146112985760405162461bcd60e51b8152600401610c6e906151b6565b6112a18261320a565b610c8982826001613212565b6000306001600160a01b037f0000000000000000000000000000000000000000000000000000000000000000161461134d5760405162461bcd60e51b815260206004820152603860248201527f555550535570677261646561626c653a206d757374206e6f742062652063616c60448201527f6c6564207468726f7567682064656c656761746563616c6c00000000000000006064820152608401610c6e565b5060008051602061549b83398151915290565b61136861311a565b60de80546001810182556000919091527ffae8130c0619f84b4b44f01b84806f04e82e536d70e05f2356977fa318aecc1a0180546001600160a01b0319166001600160a01b0392909216919091179055565b60005b60de5460ff82161015610c895760de8160ff16815481106113e0576113e06150ab565b6000918252602090912001546001600160a01b031633036114215760d1805463ffffffff84166401000000000267ffffffff00000000199091161790555050565b60de54611430906001906150d7565b8160ff16036114825760de8160ff168154811061144f5761144f6150ab565b6000918252602090912001546001600160a01b031633146114825760405162461bcd60e51b8152600401610c6e906150ea565b8061148c81615115565b9150506113bd565b61149c61311a565b6114a6600061337d565b565b60ca81815481106114b857600080fd5b9060005260206000209060109182820401919006600202915054906101000a900461ffff1681565b600054610100900460ff16158080156115005750600054600160ff909116105b8061151a5750303b15801561151a575060005460ff166001145b61157d5760405162461bcd60e51b815260206004820152602e60248201527f496e697469616c697a61626c653a20636f6e747261637420697320616c72656160448201526d191e481a5b9a5d1a585b1a5e995960921b6064820152608401610c6e565b6000805460ff1916600117905580156115a0576000805461ff0019166101001790555b60c980546001600160a01b03191673286d6392042b4d7180fd6d20f8d35c877681577417905560cb805461ffff19166103e8179055604080516103a08101825260648152604660208201526032918101829052606081018290526080810182905260a0810182905260c0810182905260e08101829052610100810182905261012081018290526101408101829052610160810182905261018081018290526101a081018290526101c081018290526101e08101829052610200810182905261022081018290526102408101919091526014610260820181905261028082018190526102a082018190526102c082018190526102e0820181905261030082018190526103208201819052610340820181905261036082018190526103808201526116cd9060ca90601d614965565b5060cb805462ff0000191662320000179055670de0b6b3a764000060cc5560d4805463ff00ffff1916630200000117905560d1805461ffff60601b1916607d60631b17905563020f580060d2556201518060d35562278d0060d7556117306133cf565b6117386133fe565b8015610e29576000805461ff0019169055604051600181527f7f26b83ff96e1f2b6a682f133852f6798a09c465da95921460cefb38474024989060200160405180910390a150565b60005b60de5460ff82161015610c895760de8160ff16815481106117a6576117a66150ab565b6000918252602090912001546001600160a01b031633036118295760d8805460018181019092557f5320ad99a619a90804cd2efe3a5cf0ac1ac5c41ad9ff2c61cf699efdad7710960180546001600160a01b0385166001600160a01b03199091168117909155600090815260da60205260409020805460ff191690911790555050565b60de54611838906001906150d7565b8160ff160361188a5760de8160ff1681548110611857576118576150ab565b6000918252602090912001546001600160a01b0316331461188a5760405162461bcd60e51b8152600401610c6e906150ea565b8061189481615115565b915050611783565b6118a461311a565b60405163a9059cbb60e01b8152336004820152602481018290526001600160a01b0383169063a9059cbb906044016020604051808303816000875af11580156118f1573d6000803e3d6000fd5b505050506040513d601f19601f82011682018060405250810190610ba69190615226565b63ffffffff808216600090815260db6020908152604080832081516104008101909252805490941681526001840180549394859492939092908401919061195b90615248565b80601f016020809104026020016040519081016040528092919081815260200182805461198790615248565b80156119d45780601f106119a9576101008083540402835291602001916119d4565b820191906000526020600020905b8154815290600101906020018083116119b757829003601f168201915b5050509183525050600282015460ff811615156020808401919091526101009091046001600160a01b03166040808401919091526003840154606084015260048401546080840152600584015463ffffffff1660a084015260068401805482518185028101850190935280835260c0909401939192909190830182828015611aa757602002820191906000526020600020906000905b82829054906101000a900463ffffffff1663ffffffff1681526020019060040190602082600301049283019260010382029150808411611a6a5790505b5050505050815260200160078201805480602002602001604051908101604052809291908181526020018280548015611b2b57602002820191906000526020600020906000905b82829054906101000a900463ffffffff1663ffffffff1681526020019060040190602082600301049283019260010382029150808411611aee5790505b5050505050815260200160088201805480602002602001604051908101604052809291908181526020018280548015611baf57602002820191906000526020600020906000905b82829054906101000a900463ffffffff1663ffffffff1681526020019060040190602082600301049283019260010382029150808411611b725790505b5050505050815260200160098201548152602001600a8201548152602001600b8201548152602001600c8201548152602001600d8201548152602001600e8201548152602001600f8201548152602001601082015481526020016011820160009054906101000a900460ff1660ff1660ff1681526020016012820154815260200160138201548152602001601482015481526020016015820154815260200160168201548152602001601782015481526020016018820154815260200160198201548152602001601a8201548152602001601b8201805480602002602001604051908101604052809291908181526020018280548015611cfa57602002820191906000526020600020906000905b82829054906101000a900463ffffffff1663ffffffff1681526020019060040190602082600301049283019260010382029150808411611cbd5790505b50505050508152602001601c8201548152602001601d8201548152602001601e820154815250509050611d2c81613425565b9392505050565b6000611d3e82613461565b92915050565b60005b60de5460ff82161015610ba65760de8160ff1681548110611d6a57611d6a6150ab565b6000918252602090912001546001600160a01b03163303611e4157825b8263ffffffff168163ffffffff161015610d7c5763ffffffff8116600090815260db602090815260408083206019810184905560d1805463ffffffff60401b1916905560dc835281842060038101859055805464ff000000001916815560018101859055601d8201859055805468ffffffff00000000001916815560028101805461ffff191690558251948552928401918290529251611e2b91601b850191614a0d565b5050508080611e3990615147565b915050611d87565b60de54611e50906001906150d7565b8160ff1603611ea25760de8160ff1681548110611e6f57611e6f6150ab565b6000918252602090912001546001600160a01b03163314611ea25760405162461bcd60e51b8152600401610c6e906150ea565b80611eac81615115565b915050611d47565b60005b60de5460ff821610156120035760de8160ff1681548110611eda57611eda6150ab565b6000918252602090912001546001600160a01b03163303611f905760005b61ffff8116851115611f8a57600060db600088888561ffff16818110611f2057611f206150ab565b9050602002016020810190611f359190614ce6565b63ffffffff1663ffffffff168152602001908152602001600020905084848361ffff16818110611f6757611f676150ab565b905060200201358160030181905550508080611f8290615282565b915050611ef8565b50612003565b60de54611f9f906001906150d7565b8160ff1603611ff15760de8160ff1681548110611fbe57611fbe6150ab565b6000918252602090912001546001600160a01b03163314611ff15760405162461bcd60e51b8152600401610c6e906150ea565b80611ffb81615115565b915050611eb7565b5050505050565b60005b60de5460ff82161015610d7c5760de8160ff1681548110612030576120306150ab565b6000918252602090912001546001600160a01b0316330361207f5760d1805461ffff60601b1916600160601b61ffff8716021790556120728362015180615299565b60d25560d3829055610d7c565b60de5461208e906001906150d7565b8160ff16036120e05760de8160ff16815481106120ad576120ad6150ab565b6000918252602090912001546001600160a01b031633146120e05760405162461bcd60e51b8152600401610c6e906150ea565b806120ea81615115565b91505061200d565b60005b60de5460ff82161015610ba65760de8160ff1681548110612118576121186150ab565b6000918252602090912001546001600160a01b0316330361217457825b8263ffffffff168163ffffffff161015610d7c5763ffffffff8116600090815260db60205260408120600c01558061216c81615147565b915050612135565b60de54612183906001906150d7565b8160ff16036121d55760de8160ff16815481106121a2576121a26150ab565b6000918252602090912001546001600160a01b031633146121d55760405162461bcd60e51b8152600401610c6e906150ea565b806121df81615115565b9150506120f5565b60005b60de5460ff82161015610c895760de8160ff168154811061220d5761220d6150ab565b6000918252602090912001546001600160a01b0316330361224c5760d1805463ffffffff8416600160401b0263ffffffff60401b199091161790555050565b60de5461225b906001906150d7565b8160ff16036122ad5760de8160ff168154811061227a5761227a6150ab565b6000918252602090912001546001600160a01b031633146122ad5760405162461bcd60e51b8152600401610c6e906150ea565b806122b781615115565b9150506121ea565b60005b60de5460ff82161015610c895760de8160ff16815481106122e5576122e56150ab565b6000918252602090912001546001600160a01b0316330361234f5760005b828161ffff161015610ba65761ffff8116600090815260dc60205260408120805468ffffffffff000000001916815560038101829055600101558061234781615282565b915050612303565b60de5461235e906001906150d7565b8160ff16036123b05760de8160ff168154811061237d5761237d6150ab565b6000918252602090912001546001600160a01b031633146123b05760405162461bcd60e51b8152600401610c6e906150ea565b806123ba81615115565b9150506122c2565b60005b60de5460ff82161015610c895760de8160ff16815481106123e8576123e86150ab565b6000918252602090912001546001600160a01b03163303612524576001600160a01b038216600090815260da60205260408120805460ff1916905560d854905b81811015610d7c57836001600160a01b031660d8828154811061244d5761244d6150ab565b6000918252602090912001546001600160a01b0316036125125760d86124746001846150d7565b81548110612484576124846150ab565b60009182526020909120015460d880546001600160a01b0390921691839081106124b0576124b06150ab565b9060005260206000200160006101000a8154816001600160a01b0302191690836001600160a01b0316021790555060d88054806124ef576124ef6152b0565b600082815260209020810160001990810180546001600160a01b03191690550190555b8061251c816152c6565b915050612428565b60de54612533906001906150d7565b8160ff16036125855760de8160ff1681548110612552576125526150ab565b6000918252602090912001546001600160a01b031633146125855760405162461bcd60e51b8152600401610c6e906150ea565b8061258f81615115565b9150506123c5565b3460006125a3826139a1565b90506125b060cc54613174565b8210156125ff5760405162461bcd60e51b815260206004820152601f60248201527f56616c75652073686f756c6420626520677265617465207468656e20313030006044820152606401610c6e565b60d1543390429060009061262290640100000000900463ffffffff166001615202565b60d15490915060009061264390600160401b900463ffffffff166001615202565b6001600160a01b038516600090815260da6020526040902060d4549192509060ff16156126765761267683838887613a2e565b6126bd83604051806020016040528060008152508a60405180602001604052806000815250898b8c60036126aa9190615299565b60cb548c9062010000900460ff16613b26565b6001908101805491820181556000908152602090206008820401805460079092166004026101000a63ffffffff81810219909316949092169190910292909217909155505050505050565b63ffffffff8116600090815260db60209081526040808320601b018054825181850281018501909352808352849383018282801561279157602002820191906000526020600020906000905b82829054906101000a900463ffffffff1663ffffffff16815260200190600401906020826003010492830192600103820291508084116127545790505b505050505090506000805b82518161ffff16101561282557600060dc6000858461ffff16815181106127c5576127c56150ab565b602002602001015163ffffffff1663ffffffff16815260200190815260200160002090508060000160049054906101000a900460ff161561281257600181015461280f9084615134565b92505b508061281d81615282565b91505061279c565b509392505050565b61283561311a565b6001600160a01b03811661289a5760405162461bcd60e51b815260206004820152602660248201527f4f776e61626c653a206e6577206f776e657220697320746865207a65726f206160448201526564647265737360d01b6064820152608401610c6e565b610e298161337d565b63ffffffff8216600090815260db60205260409020600281015461010090046001600160a01b031633146129195760405162461bcd60e51b815260206004820152601d60248201527f596f7520617265206e6f74206f776e6572206f6620746869732069642e0000006044820152606401610c6e565b600061292482613dfe565b601e83015490915061293681836150d7565b8411156129985760405162461bcd60e51b815260206004820152602a60248201527f506c6561736520656e7465722076616c7565206c657373207468656e20796f7560448201526939103130b630b731b29760b11b6064820152608401610c6e565b8383601e0160008282546129ac9190615134565b909155503390506108fc6129bf86613174565b6040518115909202916000818181858888f193505050501580156129e7573d6000803e3d6000fd5b505050505050565b612af9604051806104000160405280600063ffffffff1681526020016060815260200160001515815260200160006001600160a01b031681526020016000815260200160008152602001600063ffffffff1681526020016060815260200160608152602001606081526020016000815260200160008152602001600081526020016000815260200160008152602001600081526020016000815260200160008152602001600060ff168152602001600081526020016000815260200160008152602001600081526020016000815260200160008152602001600081526020016000815260200160008152602001606081526020016000815260200160008152602001600081525090565b63ffffffff808316600090815260db6020908152604091829020825161040081019093528054909316825260018301805492939291840191612b3a90615248565b80601f0160208091040260200160405190810160405280929190818152602001828054612b6690615248565b8015612bb35780601f10612b8857610100808354040283529160200191612bb3565b820191906000526020600020905b815481529060010190602001808311612b9657829003601f168201915b5050509183525050600282015460ff811615156020808401919091526101009091046001600160a01b03166040808401919091526003840154606084015260048401546080840152600584015463ffffffff1660a084015260068401805482518185028101850190935280835260c0909401939192909190830182828015612c8657602002820191906000526020600020906000905b82829054906101000a900463ffffffff1663ffffffff1681526020019060040190602082600301049283019260010382029150808411612c495790505b5050505050815260200160078201805480602002602001604051908101604052809291908181526020018280548015612d0a57602002820191906000526020600020906000905b82829054906101000a900463ffffffff1663ffffffff1681526020019060040190602082600301049283019260010382029150808411612ccd5790505b5050505050815260200160088201805480602002602001604051908101604052809291908181526020018280548015612d8e57602002820191906000526020600020906000905b82829054906101000a900463ffffffff1663ffffffff1681526020019060040190602082600301049283019260010382029150808411612d515790505b5050505050815260200160098201548152602001600a8201548152602001600b8201548152602001600c8201548152602001600d8201548152602001600e8201548152602001600f8201548152602001601082015481526020016011820160009054906101000a900460ff1660ff1660ff1681526020016012820154815260200160138201548152602001601482015481526020016015820154815260200160168201548152602001601782015481526020016018820154815260200160198201548152602001601a8201548152602001601b8201805480602002602001604051908101604052809291908181526020018280548015612ed957602002820191906000526020600020906000905b82829054906101000a900463ffffffff1663ffffffff1681526020019060040190602082600301049283019260010382029150808411612e9c5790505b50505050508152602001601c8201548152602001601d8201548152602001601e820154815250509050919050565b6040805180820190915260008152606060208201526001600160a01b038216600090815260da602090815260409182902082518084018452815460ff161515815260018201805485518186028101860190965280865291949293858101939290830182828015612fc257602002820191906000526020600020906000905b82829054906101000a900463ffffffff1663ffffffff1681526020019060040190602082600301049283019260010382029150808411612f855790505b5050505050815250509050919050565b60cc543490612fe090613174565b8110156130435760405162461bcd60e51b815260206004820152602b60248201527f56616c75652073686f756c6420626520677265617465207468656e206d696e4360448201526a37b73a3934b13aba34b7b760a91b6064820152608401610c6e565b33600061304f836139a1565b60d154909150429060009061307290600160401b900463ffffffff166001615202565b63ffffffff8716600090815260db602052604090206002810154919250906001600160a01b0386811661010090920416146130ef5760405162461bcd60e51b815260206004820152601d60248201527f596f7520617265206e6f74206f776e6572206f6620746869732069642e0000006044820152606401610c6e565b60d45460ff16156131065761310687838686613a2e565b613111878585613e22565b50505050505050565b6033546001600160a01b031633146114a65760405162461bcd60e51b815260206004820181905260248201527f4f776e61626c653a2063616c6c6572206973206e6f7420746865206f776e65726044820152606401610c6e565b60008060c960009054906101000a90046001600160a01b03166001600160a01b031663801dff416040518163ffffffff1660e01b8152600401602060405180830381865afa1580156131ca573d6000803e3d6000fd5b505050506040513d601f19601f820116820180604052508101906131ee91906152df565b61320084670de0b6b3a7640000615299565b611d2c91906152f8565b610e2961311a565b7f4910fdfa16fed3260ed0e7147f7cc6da11a60208b5b9406d12a635614ffd91435460ff161561324557610ba683613f3e565b826001600160a01b03166352d1902d6040518163ffffffff1660e01b8152600401602060405180830381865afa92505050801561329f575060408051601f3d908101601f1916820190925261329c918101906152df565b60015b6133025760405162461bcd60e51b815260206004820152602e60248201527f45524331393637557067726164653a206e657720696d706c656d656e7461746960448201526d6f6e206973206e6f74205555505360901b6064820152608401610c6e565b60008051602061549b83398151915281146133715760405162461bcd60e51b815260206004820152602960248201527f45524331393637557067726164653a20756e737570706f727465642070726f786044820152681a58589b195555525160ba1b6064820152608401610c6e565b50610ba6838383613fda565b603380546001600160a01b038381166001600160a01b0319831681179093556040519116919082907f8be0079c531659141344cd1fd0a4f28419497f9722a3daafe3b4186f6b6457e090600090a35050565b600054610100900460ff166133f65760405162461bcd60e51b8152600401610c6e9061531a565b6114a6613fff565b600054610100900460ff166114a65760405162461bcd60e51b8152600401610c6e9061531a565b60e081015151600090818115611d2c5760d45460019061344f906301000000900460ff1684615299565b61345991906150d7565b949350505050565b63ffffffff808216600090815260db602090815260408083208151610400810190925280549094168152600184018054939485949293909290840191906134a790615248565b80601f01602080910402602001604051908101604052809291908181526020018280546134d390615248565b80156135205780601f106134f557610100808354040283529160200191613520565b820191906000526020600020905b81548152906001019060200180831161350357829003601f168201915b5050509183525050600282015460ff811615156020808401919091526101009091046001600160a01b03166040808401919091526003840154606084015260048401546080840152600584015463ffffffff1660a084015260068401805482518185028101850190935280835260c09094019391929091908301828280156135f357602002820191906000526020600020906000905b82829054906101000a900463ffffffff1663ffffffff16815260200190600401906020826003010492830192600103820291508084116135b65790505b505050505081526020016007820180548060200260200160405190810160405280929190818152602001828054801561367757602002820191906000526020600020906000905b82829054906101000a900463ffffffff1663ffffffff168152602001906004019060208260030104928301926001038202915080841161363a5790505b50505050508152602001600882018054806020026020016040519081016040528092919081815260200182805480156136fb57602002820191906000526020600020906000905b82829054906101000a900463ffffffff1663ffffffff16815260200190600401906020826003010492830192600103820291508084116136be5790505b5050505050815260200160098201548152602001600a8201548152602001600b8201548152602001600c8201548152602001600d8201548152602001600e8201548152602001600f8201548152602001601082015481526020016011820160009054906101000a900460ff1660ff1660ff1681526020016012820154815260200160138201548152602001601482015481526020016015820154815260200160168201548152602001601782015481526020016018820154815260200160198201548152602001601a8201548152602001601b820180548060200260200160405190810160405280929190818152602001828054801561384657602002820191906000526020600020906000905b82829054906101000a900463ffffffff1663ffffffff16815260200190600401906020826003010492830192600103820291508084116138095790505b5050509183525050601c8201546020820152601d8201546040820152601e9091015460609091015261038081015180516102c0830151929350909161388c906002615299565b836102e0015110801561389f5750600081115b156139945760005b818161ffff16101561398e57600060dc6000858461ffff16815181106138cf576138cf6150ab565b602002602001015163ffffffff1663ffffffff16815260200190815260200160002090508060000160049054906101000a900460ff161561397b5760cb5460d154600183015460009261ffff9081169261393492600160601b90910490911690615299565b61393e91906152f8565b9050600082600301544261395291906150d7565b9050620151806139628284615299565b61396c91906152f8565b6139769089615134565b975050505b508061398681615282565b9150506138a7565b50613999565b600093505b505050919050565b600080670de0b6b3a764000060c960009054906101000a90046001600160a01b03166001600160a01b031663801dff416040518163ffffffff1660e01b8152600401602060405180830381865afa158015613a00573d6000803e3d6000fd5b505050506040513d601f19601f82011682018060405250810190613a2491906152df565b6132009085615299565b63ffffffff808416600081815260dc6020908152604080832089861680855260db845291842081546501000000000090930268ffffffffff000000001990931692909217640100000000178155600180820189905560d1805460028401805461ffff191661ffff600160601b9093049290921691909117905560038301899055601b8401805492830181558652939094206008808604909101805460079096166004026101000a9687029688021990951695909517909355815492949093600160401b9093041691613aff83615147565b91906101000a81548163ffffffff021916908363ffffffff16021790555050505050505050565b63ffffffff898116600081815260db60205260408120805463ffffffff199081169093178155600581018054909316938b1693909317909155600282018054610100600160a81b0319166101006001600160a01b038a1602179055600382018490556019820184905560178201859055600982018054879290613baa908490615134565b909155505060018101613bbd8a826153ab565b5060005b8260ff168160ff161015613db457600582015463ffffffff908116600081815260db60205260408120805492939092169003613bfe575050613db4565b8260ff16600003613c87578781600b016000828254613c1d9190615134565b92505081905550806006018d90806001815401808255809150506001900390600052602060002090600891828204019190066004029091909190916101000a81548163ffffffff021916908363ffffffff16021790555089816001019081613c8591906153ab565b505b8781600d016000828254613c9b9190615134565b92505081905550806007018d90806001815401808255809150506001900390600052602060002090600891828204019190066004029091909190916101000a81548163ffffffff021916908363ffffffff1602179055508c63ffffffff168b63ffffffff168260020160019054906101000a90046001600160a01b03166001600160a01b03167fa7fafc728ec30e34dc1e1276496bf3eb44ca7494679da969455289e6a8f0f1f68760050160009054906101000a900463ffffffff16604051613d70919063ffffffff91909116815260200190565b60405180910390a460d454610100900460ff1615613d9457613d9481838a8961402f565b613d9e88876146d3565b9250819050613dac81615115565b915050613bc1565b5060d18054640100000000900463ffffffff16906004613dd383615147565b91906101000a81548163ffffffff021916908363ffffffff1602179055505050505050505050505050565b6000816017015482601601541015613e1a578160160154611d3e565b506017015490565b60cb5463ffffffff8416600090815260db602052604090206201000090910460ff1690613e50846002615299565b816017018190555083816009016000828254613e6c9190615134565b9250508190555083816015016000828254613e879190615134565b90915550600090505b828110156129e757600582015463ffffffff908116600081815260db60205260408120805492939092169003613ec75750506129e7565b82600003613ee9578681600b016000828254613ee39190615134565b90915550505b8681600d016000828254613efd9190615134565b909155505060d454610100900460ff1615613f1e57613f1e8183898961402f565b613f2887876146d3565b9250819050613f36816152c6565b915050613e90565b6001600160a01b0381163b613fab5760405162461bcd60e51b815260206004820152602d60248201527f455243313936373a206e657720696d706c656d656e746174696f6e206973206e60448201526c1bdd08184818dbdb9d1c9858dd609a1b6064820152608401610c6e565b60008051602061549b83398151915280546001600160a01b0319166001600160a01b0392909216919091179055565b613fe38361470d565b600082511180613ff05750805b15610ba657610d7c838361474d565b600054610100900460ff166140265760405162461bcd60e51b8152600401610c6e9061531a565b6114a63361337d565b6011840154604080516104008101909152855463ffffffff16815260018601805460ff909316926144379291889160208401919061406c90615248565b80601f016020809104026020016040519081016040528092919081815260200182805461409890615248565b80156140e55780601f106140ba576101008083540402835291602001916140e5565b820191906000526020600020905b8154815290600101906020018083116140c857829003601f168201915b5050509183525050600282015460ff811615156020808401919091526101009091046001600160a01b03166040808401919091526003840154606084015260048401546080840152600584015463ffffffff1660a084015260068401805482518185028101850190935280835260c09094019391929091908301828280156141b857602002820191906000526020600020906000905b82829054906101000a900463ffffffff1663ffffffff168152602001906004019060208260030104928301926001038202915080841161417b5790505b505050505081526020016007820180548060200260200160405190810160405280929190818152602001828054801561423c57602002820191906000526020600020906000905b82829054906101000a900463ffffffff1663ffffffff16815260200190600401906020826003010492830192600103820291508084116141ff5790505b50505050508152602001600882018054806020026020016040519081016040528092919081815260200182805480156142c057602002820191906000526020600020906000905b82829054906101000a900463ffffffff1663ffffffff16815260200190600401906020826003010492830192600103820291508084116142835790505b5050505050815260200160098201548152602001600a8201548152602001600b8201548152602001600c8201548152602001600d8201548152602001600e8201548152602001600f8201548152602001601082015481526020016011820160009054906101000a900460ff1660ff1660ff1681526020016012820154815260200160138201548152602001601482015481526020016015820154815260200160168201548152602001601782015481526020016018820154815260200160198201548152602001601a8201548152602001601b820180548060200260200160405190810160405280929190818152602001828054801561440b57602002820191906000526020600020906000905b82829054906101000a900463ffffffff1663ffffffff16815260200190600401906020826003010492830192600103820291508084116143ce5790505b50505050508152602001601c8201548152602001601d8201548152602001601e82015481525050614841565b60ff161115610d7c57604080516104008101909152845463ffffffff1681526001850180546144729291879160208401919061406c90615248565b60118501805460ff191660ff9283169081178255600090815260dd6020908152604080832060099081018054600181810183559186529385206008850401805460079095166004026101000a63ffffffff81810219909616958c1602949094179093559354909416825292902001546144eb91906150d7565b6012850181905560118501546040805163ffffffff87168152602081019390935260ff90911682820152517fb0d3a9c683344e744a1ae3db383f75a8a01851282c5fe97d6159c1392a2e2a0a9181900360600190a1604080516104008101909152845463ffffffff16815260018501805460dd92600092614576928991602084019161406c90615248565b60ff90811682526020820192909252604001600020600801546101009004161561463a57604080516104008101909152845463ffffffff16815260018501805460dd926000926145d0928991602084019161406c90615248565b60ff1660ff1681526020019081526020016000206007015484601001546145f79190615134565b811115614626578084601001819055508184600f01600082825461461b9190615134565b90915550610d7c9050565b8184600f01600082825461461b9190615134565b60d454610100900460ff1615610d7c57601184015460ff16600090815260dd602052604090206005015461466f9085906148ef565b601184015460ff908116600090815260dd602090815260409182902060058101549054925192909316825263ffffffff8616917f94b6d3d19cc40938e685ef6a1f6476b53ef65295ab094a044e74405a8d0bd05b910160405180910390a350505050565b60d75460d6546146e39190615134565b8111156146f25760d65560d555565b8160d560008282546147049190615134565b90915550505050565b61471681613f3e565b6040516001600160a01b038216907fbc7cd75a20ee27fd9adebab32041f755214dbc6bffa90cc0225b39da2e5c2d3b90600090a250565b60606001600160a01b0383163b6147b55760405162461bcd60e51b815260206004820152602660248201527f416464726573733a2064656c65676174652063616c6c20746f206e6f6e2d636f6044820152651b9d1c9858dd60d21b6064820152608401610c6e565b600080846001600160a01b0316846040516147d0919061546b565b600060405180830381855af49150503d806000811461480b576040519150601f19603f3d011682016040523d82523d6000602084013e614810565b606091505b509150915061483882826040518060600160405280602781526020016154bb60279139614927565b95945050505050565b60d95460009060ff16815b8160ff168160ff1610156148e85760ff8116600090815260dd60205260409020600101546101408501511080159061489e575060ff8116600090815260dd602052604090206002015461018085015110155b80156148c4575060ff8116600090815260dd60205260409020600301546101c085015110155b156148d1578092506148d6565b6148e8565b806148e081615115565b91505061484c565b5050919050565b81601701548183601601546149049190615134565b1061491757601782015460168301555050565b808260160154610ba69190615134565b60608315614936575081611d2c565b611d2c838381511561494b5781518083602001fd5b8060405162461bcd60e51b8152600401610c6e9190615487565b82805482825590600052602060002090600f016010900481019282156149fd5791602002820160005b838211156149cd57835183826101000a81548161ffff021916908360ff160217905550926020019260020160208160010104928301926001030261498e565b80156149fb5782816101000a81549061ffff02191690556002016020816001010492830192600103026149cd565b505b50614a09929150614aaa565b5090565b828054828255906000526020600020906007016008900481019282156149fd5791602002820160005b83821115614a7a57835183826101000a81548163ffffffff021916908363ffffffff1602179055509260200192600401602081600301049283019260010302614a36565b80156149fb5782816101000a81549063ffffffff0219169055600401602081600301049283019260010302614a7a565b5b80821115614a095760008155600101614aab565b80356001600160a01b0381168114614ad657600080fd5b919050565b60008060408385031215614aee57600080fd5b614af783614abf565b946020939093013593505050565b600060208284031215614b1757600080fd5b611d2c82614abf565b600060208284031215614b3257600080fd5b5035919050565b803563ffffffff81168114614ad657600080fd5b60008060408385031215614b6057600080fd5b614b6983614b39565b9150614b7760208401614b39565b90509250929050565b60008083601f840112614b9257600080fd5b50813567ffffffffffffffff811115614baa57600080fd5b6020830191508360208260051b8501011115614bc557600080fd5b9250929050565b60008060208385031215614bdf57600080fd5b823567ffffffffffffffff811115614bf657600080fd5b614c0285828601614b80565b90969095509350505050565b634e487b7160e01b600052604160045260246000fd5b60008060408385031215614c3757600080fd5b614c4083614abf565b9150602083013567ffffffffffffffff80821115614c5d57600080fd5b818501915085601f830112614c7157600080fd5b813581811115614c8357614c83614c0e565b604051601f8201601f19908116603f01168101908382118183101715614cab57614cab614c0e565b81604052828152886020848701011115614cc457600080fd5b8260208601602083013760006020848301015280955050505050509250929050565b600060208284031215614cf857600080fd5b611d2c82614b39565b60008060008060408587031215614d1757600080fd5b843567ffffffffffffffff80821115614d2f57600080fd5b614d3b88838901614b80565b90965094506020870135915080821115614d5457600080fd5b50614d6187828801614b80565b95989497509550505050565b600080600060608486031215614d8257600080fd5b833561ffff81168114614d9457600080fd5b95602085013595506040909401359392505050565b60008060408385031215614dbc57600080fd5b614af783614b39565b60005b83811015614de0578181015183820152602001614dc8565b50506000910152565b60008151808452614e01816020860160208601614dc5565b601f01601f19169290920160200192915050565b600081518084526020808501945080840160005b83811015614e4b57815163ffffffff1687529582019590820190600101614e29565b509495945050505050565b60208152614e6d60208201835163ffffffff169052565b60006020830151610400806040850152614e8b610420850183614de9565b91506040850151614ea0606086018215159052565b5060608501516001600160a01b038116608086015250608085015160a085015260a085015160c085015260c0850151614ee160e086018263ffffffff169052565b5060e0850151601f19610100818786030181880152614f008584614e15565b945080880151925050610120818786030181880152614f1f8584614e15565b945080880151925050610140818786030181880152614f3e8584614e15565b9088015161016088810191909152880151610180808901919091528801516101a0808901919091528801516101c0808901919091528801516101e0808901919091528801516102008089019190915288015161022080890191909152880151610240808901919091528801519094509150610260614fc08188018460ff169052565b870151610280878101919091528701516102a0808801919091528701516102c0808801919091528701516102e080880191909152870151610300808801919091528701516103208088019190915287015161034080880191909152870151610360808801919091528701516103808088019190915287015186850382016103a0808901919091529092506150548584614e15565b908801516103c0888101919091528801516103e08089019190915290970151929095019190915250929392505050565b60208152815115156020820152600060208301516040808401526134596060840182614e15565b634e487b7160e01b600052603260045260246000fd5b634e487b7160e01b600052601160045260246000fd5b81810381811115611d3e57611d3e6150c1565b6020808252601190820152702cb7ba9030b932903737ba1030b236b4b760791b604082015260600190565b600060ff821660ff810361512b5761512b6150c1565b60010192915050565b80820180821115611d3e57611d3e6150c1565b600063ffffffff808316818103615160576151606150c1565b6001019392505050565b6020808252602c908201527f46756e6374696f6e206d7573742062652063616c6c6564207468726f7567682060408201526b19195b1959d85d1958d85b1b60a21b606082015260800190565b6020808252602c908201527f46756e6374696f6e206d7573742062652063616c6c6564207468726f7567682060408201526b6163746976652070726f787960a01b606082015260800190565b63ffffffff81811683821601908082111561521f5761521f6150c1565b5092915050565b60006020828403121561523857600080fd5b81518015158114611d2c57600080fd5b600181811c9082168061525c57607f821691505b60208210810361527c57634e487b7160e01b600052602260045260246000fd5b50919050565b600061ffff808316818103615160576151606150c1565b8082028115828204841417611d3e57611d3e6150c1565b634e487b7160e01b600052603160045260246000fd5b6000600182016152d8576152d86150c1565b5060010190565b6000602082840312156152f157600080fd5b5051919050565b60008261531557634e487b7160e01b600052601260045260246000fd5b500490565b6020808252602b908201527f496e697469616c697a61626c653a20636f6e7472616374206973206e6f74206960408201526a6e697469616c697a696e6760a81b606082015260800190565b601f821115610ba657600081815260208120601f850160051c8101602086101561538c5750805b601f850160051c820191505b818110156129e757828155600101615398565b815167ffffffffffffffff8111156153c5576153c5614c0e565b6153d9816153d38454615248565b84615365565b602080601f83116001811461540e57600084156153f65750858301515b600019600386901b1c1916600185901b1785556129e7565b600085815260208120601f198616915b8281101561543d5788860151825594840194600190910190840161541e565b508582101561545b5787850151600019600388901b60f8161c191681555b5050505050600190811b01905550565b6000825161547d818460208701614dc5565b9190910192915050565b602081526000611d2c6020830184614de956fe360894a13ba1a3210667c828492db98dca3e2076cc3735a920a3ca505d382bbc416464726573733a206c6f772d6c6576656c2064656c65676174652063616c6c206661696c6564a26469706673582212201ceb8867810b33f1f9be945c6e69d93211eddef5c0fdc60f1d7636909ec79db364736f6c63430008110033",
  "linkReferences": {},
  "deployedLinkReferences": {}
}