{
  "_format": "hh-sol-artifact-1",
  "contractName": "ReferralV3Upgradeable",
  "sourceName": "contracts/ReferralV3Upgradeable.sol",
  "abi": [
    {
      "anonymous": false,
      "inputs": [
        {
          "indexed": false,
          "internalType": "address",
          "name": "ownerAddress",
          "type": "address"
        },
        {
          "indexed": false,
          "internalType": "uint256",
          "name": "id",
          "type": "uint256"
        },
        {
          "indexed": false,
          "internalType": "uint256",
          "name": "idIndex",
          "type": "uint256"
        }
      ],
      "name": "AccountInfoIDAttached",
      "type": "event"
    },
    {
      "anonymous": false,
      "inputs": [
        {
          "indexed": false,
          "internalType": "uint256",
          "name": "userID",
          "type": "uint256"
        },
        {
          "indexed": false,
          "internalType": "uint256",
          "name": "index",
          "type": "uint256"
        },
        {
          "indexed": false,
          "internalType": "uint256",
          "name": "rank",
          "type": "uint256"
        }
      ],
      "name": "AddedInRoyaltyClubList",
      "type": "event"
    },
    {
      "anonymous": false,
      "inputs": [
        {
          "indexed": false,
          "internalType": "address",
          "name": "previousAdmin",
          "type": "address"
        },
        {
          "indexed": false,
          "internalType": "address",
          "name": "newAdmin",
          "type": "address"
        }
      ],
      "name": "AdminChanged",
      "type": "event"
    },
    {
      "anonymous": false,
      "inputs": [
        {
          "indexed": true,
          "internalType": "address",
          "name": "beacon",
          "type": "address"
        }
      ],
      "name": "BeaconUpgraded",
      "type": "event"
    },
    {
      "anonymous": false,
      "inputs": [
        {
          "indexed": false,
          "internalType": "uint256",
          "name": "id",
          "type": "uint256"
        },
        {
          "indexed": false,
          "internalType": "string",
          "name": "reason",
          "type": "string"
        }
      ],
      "name": "IDDeactivated",
      "type": "event"
    },
    {
      "anonymous": false,
      "inputs": [
        {
          "indexed": false,
          "internalType": "uint8",
          "name": "version",
          "type": "uint8"
        }
      ],
      "name": "Initialized",
      "type": "event"
    },
    {
      "anonymous": false,
      "inputs": [
        {
          "indexed": true,
          "internalType": "address",
          "name": "previousOwner",
          "type": "address"
        },
        {
          "indexed": true,
          "internalType": "address",
          "name": "newOwner",
          "type": "address"
        }
      ],
      "name": "OwnershipTransferred",
      "type": "event"
    },
    {
      "anonymous": false,
      "inputs": [
        {
          "indexed": false,
          "internalType": "uint256",
          "name": "packageID",
          "type": "uint256"
        }
      ],
      "name": "PackageAdded",
      "type": "event"
    },
    {
      "anonymous": false,
      "inputs": [
        {
          "indexed": false,
          "internalType": "uint256",
          "name": "packageID",
          "type": "uint256"
        }
      ],
      "name": "PackageRemoved",
      "type": "event"
    },
    {
      "anonymous": false,
      "inputs": [
        {
          "indexed": false,
          "internalType": "uint256",
          "name": "packageID",
          "type": "uint256"
        }
      ],
      "name": "PackageUpdated",
      "type": "event"
    },
    {
      "anonymous": false,
      "inputs": [
        {
          "indexed": true,
          "internalType": "uint256",
          "name": "userID",
          "type": "uint256"
        },
        {
          "indexed": true,
          "internalType": "uint256",
          "name": "reward",
          "type": "uint256"
        }
      ],
      "name": "ROIClaimed",
      "type": "event"
    },
    {
      "anonymous": false,
      "inputs": [
        {
          "indexed": true,
          "internalType": "uint256",
          "name": "refererID",
          "type": "uint256"
        },
        {
          "indexed": true,
          "internalType": "uint256",
          "name": "level",
          "type": "uint256"
        },
        {
          "indexed": true,
          "internalType": "string",
          "name": "reason",
          "type": "string"
        }
      ],
      "name": "ReferralNotPaid",
      "type": "event"
    },
    {
      "anonymous": false,
      "inputs": [
        {
          "indexed": true,
          "internalType": "uint256",
          "name": "refereeID",
          "type": "uint256"
        },
        {
          "indexed": true,
          "internalType": "uint256",
          "name": "referrerID",
          "type": "uint256"
        },
        {
          "indexed": true,
          "internalType": "uint256",
          "name": "amount",
          "type": "uint256"
        },
        {
          "indexed": false,
          "internalType": "uint256",
          "name": "level",
          "type": "uint256"
        }
      ],
      "name": "ReferralRewardPaid",
      "type": "event"
    },
    {
      "anonymous": false,
      "inputs": [
        {
          "indexed": true,
          "internalType": "address",
          "name": "refereeID",
          "type": "address"
        },
        {
          "indexed": true,
          "internalType": "address",
          "name": "referrerID",
          "type": "address"
        },
        {
          "indexed": true,
          "internalType": "string",
          "name": "reason",
          "type": "string"
        }
      ],
      "name": "RegisterRefererFailed",
      "type": "event"
    },
    {
      "anonymous": false,
      "inputs": [
        {
          "indexed": true,
          "internalType": "uint256",
          "name": "id",
          "type": "uint256"
        },
        {
          "indexed": true,
          "internalType": "uint256",
          "name": "refererID",
          "type": "uint256"
        }
      ],
      "name": "RegisteredReferer",
      "type": "event"
    },
    {
      "anonymous": false,
      "inputs": [
        {
          "indexed": true,
          "internalType": "address",
          "name": "parent",
          "type": "address"
        },
        {
          "indexed": false,
          "internalType": "uint256",
          "name": "parentAccountID",
          "type": "uint256"
        },
        {
          "indexed": true,
          "internalType": "uint256",
          "name": "referrerID",
          "type": "uint256"
        },
        {
          "indexed": true,
          "internalType": "uint256",
          "name": "refereeID",
          "type": "uint256"
        }
      ],
      "name": "RegisteredTeamAddress",
      "type": "event"
    },
    {
      "anonymous": false,
      "inputs": [
        {
          "indexed": false,
          "internalType": "uint256",
          "name": "packageID",
          "type": "uint256"
        },
        {
          "indexed": true,
          "internalType": "uint256",
          "name": "userID",
          "type": "uint256"
        },
        {
          "indexed": true,
          "internalType": "uint256",
          "name": "amount",
          "type": "uint256"
        }
      ],
      "name": "RoyaltyClubBonusPaid",
      "type": "event"
    },
    {
      "anonymous": false,
      "inputs": [
        {
          "indexed": true,
          "internalType": "address",
          "name": "implementation",
          "type": "address"
        }
      ],
      "name": "Upgraded",
      "type": "event"
    },
    {
      "inputs": [
        {
          "internalType": "uint256",
          "name": "",
          "type": "uint256"
        }
      ],
      "name": "_disabledUsersList",
      "outputs": [
        {
          "internalType": "address",
          "name": "",
          "type": "address"
        }
      ],
      "stateMutability": "view",
      "type": "function"
    },
    {
      "inputs": [
        {
          "internalType": "uint32",
          "name": "_refererID",
          "type": "uint32"
        }
      ],
      "name": "activateID",
      "outputs": [],
      "stateMutability": "payable",
      "type": "function"
    },
    {
      "inputs": [
        {
          "internalType": "uint256",
          "name": "",
          "type": "uint256"
        }
      ],
      "name": "admins",
      "outputs": [
        {
          "internalType": "address",
          "name": "",
          "type": "address"
        }
      ],
      "stateMutability": "view",
      "type": "function"
    },
    {
      "inputs": [
        {
          "internalType": "uint32",
          "name": "_id",
          "type": "uint32"
        },
        {
          "internalType": "uint256",
          "name": "_value",
          "type": "uint256"
        }
      ],
      "name": "claimBalance",
      "outputs": [],
      "stateMutability": "nonpayable",
      "type": "function"
    },
    {
      "inputs": [
        {
          "internalType": "uint32",
          "name": "_id",
          "type": "uint32"
        }
      ],
      "name": "claimROI",
      "outputs": [],
      "stateMutability": "nonpayable",
      "type": "function"
    },
    {
      "inputs": [],
      "name": "companyTurnoverTimeLimit",
      "outputs": [
        {
          "internalType": "uint256",
          "name": "",
          "type": "uint256"
        }
      ],
      "stateMutability": "view",
      "type": "function"
    },
    {
      "inputs": [],
      "name": "companyTurnoverTimeStamp",
      "outputs": [
        {
          "internalType": "uint256",
          "name": "",
          "type": "uint256"
        }
      ],
      "stateMutability": "view",
      "type": "function"
    },
    {
      "inputs": [],
      "name": "companyTurnoverWithTimeLimit",
      "outputs": [
        {
          "internalType": "uint256",
          "name": "",
          "type": "uint256"
        }
      ],
      "stateMutability": "view",
      "type": "function"
    },
    {
      "inputs": [],
      "name": "decimals",
      "outputs": [
        {
          "internalType": "uint16",
          "name": "",
          "type": "uint16"
        }
      ],
      "stateMutability": "view",
      "type": "function"
    },
    {
      "inputs": [
        {
          "internalType": "address",
          "name": "_userAddress",
          "type": "address"
        }
      ],
      "name": "disableUserAdmin",
      "outputs": [],
      "stateMutability": "nonpayable",
      "type": "function"
    },
    {
      "inputs": [
        {
          "internalType": "uint32",
          "name": "_id",
          "type": "uint32"
        }
      ],
      "name": "getIDAccount",
      "outputs": [
        {
          "components": [
            {
              "internalType": "uint32",
              "name": "id",
              "type": "uint32"
            },
            {
              "internalType": "string",
              "name": "oldID",
              "type": "string"
            },
            {
              "internalType": "bool",
              "name": "isActive",
              "type": "bool"
            },
            {
              "internalType": "address",
              "name": "owner",
              "type": "address"
            },
            {
              "internalType": "uint256",
              "name": "joiningTime",
              "type": "uint256"
            },
            {
              "internalType": "uint256",
              "name": "deactivateTime",
              "type": "uint256"
            },
            {
              "internalType": "uint32",
              "name": "refererID",
              "type": "uint32"
            },
            {
              "internalType": "uint32[]",
              "name": "refereeIDs",
              "type": "uint32[]"
            },
            {
              "internalType": "uint32[]",
              "name": "teamIDs",
              "type": "uint32[]"
            },
            {
              "internalType": "uint32[]",
              "name": "teamLevel",
              "type": "uint32[]"
            },
            {
              "internalType": "uint256",
              "name": "selfBusiness",
              "type": "uint256"
            },
            {
              "internalType": "uint256",
              "name": "selfBusinessOld",
              "type": "uint256"
            },
            {
              "internalType": "uint256",
              "name": "directBusiness",
              "type": "uint256"
            },
            {
              "internalType": "uint256",
              "name": "directBusinessOld",
              "type": "uint256"
            },
            {
              "internalType": "uint256",
              "name": "teamBusiness",
              "type": "uint256"
            },
            {
              "internalType": "uint256",
              "name": "teamBusinessOld",
              "type": "uint256"
            },
            {
              "internalType": "uint256",
              "name": "royaltyClubBusiness",
              "type": "uint256"
            },
            {
              "internalType": "uint256",
              "name": "timeStampRoyaltyClub",
              "type": "uint256"
            },
            {
              "internalType": "uint8",
              "name": "royaltyClubPackageID",
              "type": "uint8"
            },
            {
              "internalType": "uint256",
              "name": "royaltyClubListIndex",
              "type": "uint256"
            },
            {
              "internalType": "uint256",
              "name": "referralPaid",
              "type": "uint256"
            },
            {
              "internalType": "uint256",
              "name": "rewardPaidRoyaltyClub",
              "type": "uint256"
            },
            {
              "internalType": "uint256",
              "name": "totalTopUp",
              "type": "uint256"
            },
            {
              "internalType": "uint256",
              "name": "totalIncome",
              "type": "uint256"
            },
            {
              "internalType": "uint256",
              "name": "totalMaxLimitAmount",
              "type": "uint256"
            },
            {
              "internalType": "uint256",
              "name": "currentTopUp",
              "type": "uint256"
            },
            {
              "internalType": "uint256",
              "name": "currentTopUpTime",
              "type": "uint256"
            },
            {
              "internalType": "uint256",
              "name": "totalROIClaimed",
              "type": "uint256"
            },
            {
              "internalType": "uint32[]",
              "name": "roiIDs",
              "type": "uint32[]"
            },
            {
              "internalType": "uint256",
              "name": "roiClaimed",
              "type": "uint256"
            },
            {
              "internalType": "uint256",
              "name": "roiClaimedTimestamp",
              "type": "uint256"
            },
            {
              "internalType": "uint256",
              "name": "balanceClaimed",
              "type": "uint256"
            }
          ],
          "internalType": "struct ReferralV3Upgradeable.StructID",
          "name": "",
          "type": "tuple"
        }
      ],
      "stateMutability": "view",
      "type": "function"
    },
    {
      "inputs": [
        {
          "internalType": "uint32",
          "name": "_id",
          "type": "uint32"
        }
      ],
      "name": "getIDRewardPaid",
      "outputs": [
        {
          "internalType": "uint256",
          "name": "referralPaid",
          "type": "uint256"
        },
        {
          "internalType": "uint256",
          "name": "totalROIClaimed",
          "type": "uint256"
        },
        {
          "internalType": "uint256",
          "name": "rewardPaidRoyaltyClub",
          "type": "uint256"
        },
        {
          "internalType": "uint256",
          "name": "totalRewardPaid",
          "type": "uint256"
        }
      ],
      "stateMutability": "view",
      "type": "function"
    },
    {
      "inputs": [
        {
          "internalType": "uint32",
          "name": "_id",
          "type": "uint32"
        }
      ],
      "name": "getIDRoyaltyClubLevel",
      "outputs": [
        {
          "internalType": "uint256",
          "name": "",
          "type": "uint256"
        }
      ],
      "stateMutability": "view",
      "type": "function"
    },
    {
      "inputs": [
        {
          "internalType": "uint32",
          "name": "_id",
          "type": "uint32"
        }
      ],
      "name": "getIDTeam",
      "outputs": [
        {
          "internalType": "uint32[]",
          "name": "teamIDs",
          "type": "uint32[]"
        },
        {
          "internalType": "uint32[]",
          "name": "teamLevels",
          "type": "uint32[]"
        },
        {
          "internalType": "uint256",
          "name": "teamCount",
          "type": "uint256"
        }
      ],
      "stateMutability": "view",
      "type": "function"
    },
    {
      "inputs": [
        {
          "internalType": "uint32",
          "name": "_id",
          "type": "uint32"
        }
      ],
      "name": "getIDTotalBusiness",
      "outputs": [
        {
          "internalType": "uint256",
          "name": "selfBusiness",
          "type": "uint256"
        },
        {
          "internalType": "uint256",
          "name": "selfBusinessOld",
          "type": "uint256"
        },
        {
          "internalType": "uint256",
          "name": "directBusiness",
          "type": "uint256"
        },
        {
          "internalType": "uint256",
          "name": "directBusinessOld",
          "type": "uint256"
        },
        {
          "internalType": "uint256",
          "name": "teamBusiness",
          "type": "uint256"
        },
        {
          "internalType": "uint256",
          "name": "teamBusinessOld",
          "type": "uint256"
        }
      ],
      "stateMutability": "view",
      "type": "function"
    },
    {
      "inputs": [],
      "name": "getMinContributionETH",
      "outputs": [
        {
          "internalType": "uint256",
          "name": "",
          "type": "uint256"
        }
      ],
      "stateMutability": "view",
      "type": "function"
    },
    {
      "inputs": [],
      "name": "getPriceOracleContract",
      "outputs": [
        {
          "internalType": "address",
          "name": "",
          "type": "address"
        }
      ],
      "stateMutability": "view",
      "type": "function"
    },
    {
      "inputs": [
        {
          "internalType": "uint32",
          "name": "_roiID",
          "type": "uint32"
        }
      ],
      "name": "getROIAccount",
      "outputs": [
        {
          "components": [
            {
              "internalType": "uint32",
              "name": "id",
              "type": "uint32"
            },
            {
              "internalType": "bool",
              "name": "isActive",
              "type": "bool"
            },
            {
              "internalType": "uint32",
              "name": "ownerID",
              "type": "uint32"
            },
            {
              "internalType": "uint256",
              "name": "value",
              "type": "uint256"
            },
            {
              "internalType": "uint16",
              "name": "roiRate",
              "type": "uint16"
            },
            {
              "internalType": "uint256",
              "name": "startTime",
              "type": "uint256"
            }
          ],
          "internalType": "struct ReferralV3Upgradeable.StructROI",
          "name": "",
          "type": "tuple"
        }
      ],
      "stateMutability": "view",
      "type": "function"
    },
    {
      "inputs": [
        {
          "internalType": "address",
          "name": "_address",
          "type": "address"
        }
      ],
      "name": "getUserAccount",
      "outputs": [
        {
          "components": [
            {
              "internalType": "bool",
              "name": "isDisabled",
              "type": "bool"
            },
            {
              "internalType": "uint32[]",
              "name": "accountIDs",
              "type": "uint32[]"
            }
          ],
          "internalType": "struct ReferralV3Upgradeable.StructAccount",
          "name": "",
          "type": "tuple"
        }
      ],
      "stateMutability": "view",
      "type": "function"
    },
    {
      "inputs": [
        {
          "internalType": "uint32",
          "name": "_id",
          "type": "uint32"
        }
      ],
      "name": "getUserIDTotalROI",
      "outputs": [
        {
          "internalType": "uint256",
          "name": "",
          "type": "uint256"
        }
      ],
      "stateMutability": "view",
      "type": "function"
    },
    {
      "inputs": [
        {
          "internalType": "uint32",
          "name": "_id",
          "type": "uint32"
        }
      ],
      "name": "getUserTotalActiveROIValue",
      "outputs": [
        {
          "internalType": "uint256",
          "name": "",
          "type": "uint256"
        }
      ],
      "stateMutability": "view",
      "type": "function"
    },
    {
      "inputs": [
        {
          "internalType": "uint32",
          "name": "_id",
          "type": "uint32"
        }
      ],
      "name": "getUserUnlockCount",
      "outputs": [
        {
          "internalType": "uint256",
          "name": "",
          "type": "uint256"
        }
      ],
      "stateMutability": "view",
      "type": "function"
    },
    {
      "inputs": [],
      "name": "initialize",
      "outputs": [],
      "stateMutability": "nonpayable",
      "type": "function"
    },
    {
      "inputs": [],
      "name": "isPayROI",
      "outputs": [
        {
          "internalType": "bool",
          "name": "",
          "type": "bool"
        }
      ],
      "stateMutability": "view",
      "type": "function"
    },
    {
      "inputs": [],
      "name": "isPayRoyaltyClubBonus",
      "outputs": [
        {
          "internalType": "bool",
          "name": "",
          "type": "bool"
        }
      ],
      "stateMutability": "view",
      "type": "function"
    },
    {
      "inputs": [
        {
          "internalType": "address",
          "name": "_userAddress",
          "type": "address"
        }
      ],
      "name": "isUserDisabledByAdmin",
      "outputs": [
        {
          "internalType": "bool",
          "name": "",
          "type": "bool"
        }
      ],
      "stateMutability": "view",
      "type": "function"
    },
    {
      "inputs": [
        {
          "internalType": "uint256",
          "name": "",
          "type": "uint256"
        }
      ],
      "name": "levelRates",
      "outputs": [
        {
          "internalType": "uint16",
          "name": "",
          "type": "uint16"
        }
      ],
      "stateMutability": "view",
      "type": "function"
    },
    {
      "inputs": [],
      "name": "maxLevelsCount",
      "outputs": [
        {
          "internalType": "uint8",
          "name": "",
          "type": "uint8"
        }
      ],
      "stateMutability": "view",
      "type": "function"
    },
    {
      "inputs": [],
      "name": "minContributionIn",
      "outputs": [
        {
          "internalType": "uint256",
          "name": "",
          "type": "uint256"
        }
      ],
      "stateMutability": "view",
      "type": "function"
    },
    {
      "inputs": [],
      "name": "minContributionInUSD",
      "outputs": [
        {
          "internalType": "uint256",
          "name": "",
          "type": "uint256"
        }
      ],
      "stateMutability": "view",
      "type": "function"
    },
    {
      "inputs": [],
      "name": "owner",
      "outputs": [
        {
          "internalType": "address",
          "name": "",
          "type": "address"
        }
      ],
      "stateMutability": "view",
      "type": "function"
    },
    {
      "inputs": [],
      "name": "packagesCount",
      "outputs": [
        {
          "internalType": "uint8",
          "name": "",
          "type": "uint8"
        }
      ],
      "stateMutability": "view",
      "type": "function"
    },
    {
      "inputs": [],
      "name": "proxiableUUID",
      "outputs": [
        {
          "internalType": "bytes32",
          "name": "",
          "type": "bytes32"
        }
      ],
      "stateMutability": "view",
      "type": "function"
    },
    {
      "inputs": [
        {
          "internalType": "address",
          "name": "_userAddress",
          "type": "address"
        }
      ],
      "name": "removeUserFromDisableList",
      "outputs": [],
      "stateMutability": "nonpayable",
      "type": "function"
    },
    {
      "inputs": [],
      "name": "renounceOwnership",
      "outputs": [],
      "stateMutability": "nonpayable",
      "type": "function"
    },
    {
      "inputs": [],
      "name": "royaltyClubPackageCount",
      "outputs": [
        {
          "internalType": "uint8",
          "name": "",
          "type": "uint8"
        }
      ],
      "stateMutability": "view",
      "type": "function"
    },
    {
      "inputs": [
        {
          "internalType": "address",
          "name": "_address",
          "type": "address"
        },
        {
          "internalType": "uint256",
          "name": "_value",
          "type": "uint256"
        }
      ],
      "name": "sendETHAdmin",
      "outputs": [],
      "stateMutability": "nonpayable",
      "type": "function"
    },
    {
      "inputs": [
        {
          "internalType": "address",
          "name": "_adminAddress",
          "type": "address"
        }
      ],
      "name": "setAdmin",
      "outputs": [],
      "stateMutability": "nonpayable",
      "type": "function"
    },
    {
      "inputs": [
        {
          "internalType": "uint256",
          "name": "_valueInUSD",
          "type": "uint256"
        }
      ],
      "name": "setMinContribution",
      "outputs": [],
      "stateMutability": "nonpayable",
      "type": "function"
    },
    {
      "inputs": [
        {
          "internalType": "address",
          "name": "_contractAddress",
          "type": "address"
        }
      ],
      "name": "setPriceOracleContract",
      "outputs": [],
      "stateMutability": "nonpayable",
      "type": "function"
    },
    {
      "inputs": [
        {
          "internalType": "uint16",
          "name": "_roiRateInDecimals",
          "type": "uint16"
        },
        {
          "internalType": "uint256",
          "name": "_roiDurationInDays",
          "type": "uint256"
        },
        {
          "internalType": "uint256",
          "name": "_roiClaimTimelimitInSeconds",
          "type": "uint256"
        }
      ],
      "name": "setROI",
      "outputs": [],
      "stateMutability": "nonpayable",
      "type": "function"
    },
    {
      "inputs": [
        {
          "internalType": "uint32",
          "name": "_count",
          "type": "uint32"
        }
      ],
      "name": "setROIIDCount",
      "outputs": [],
      "stateMutability": "nonpayable",
      "type": "function"
    },
    {
      "inputs": [],
      "name": "totalIDs",
      "outputs": [
        {
          "internalType": "uint32",
          "name": "",
          "type": "uint32"
        }
      ],
      "stateMutability": "view",
      "type": "function"
    },
    {
      "inputs": [],
      "name": "totalROIIDs",
      "outputs": [
        {
          "internalType": "uint32",
          "name": "",
          "type": "uint32"
        }
      ],
      "stateMutability": "view",
      "type": "function"
    },
    {
      "inputs": [],
      "name": "totalROIPaid",
      "outputs": [
        {
          "internalType": "uint256",
          "name": "",
          "type": "uint256"
        }
      ],
      "stateMutability": "view",
      "type": "function"
    },
    {
      "inputs": [],
      "name": "totalReferralPaid",
      "outputs": [
        {
          "internalType": "uint256",
          "name": "",
          "type": "uint256"
        }
      ],
      "stateMutability": "view",
      "type": "function"
    },
    {
      "inputs": [],
      "name": "totalRoyaltyClubBonusPaid",
      "outputs": [
        {
          "internalType": "uint256",
          "name": "",
          "type": "uint256"
        }
      ],
      "stateMutability": "view",
      "type": "function"
    },
    {
      "inputs": [],
      "name": "totalRoyaltyClubBonusPaidETH",
      "outputs": [
        {
          "internalType": "uint256",
          "name": "",
          "type": "uint256"
        }
      ],
      "stateMutability": "view",
      "type": "function"
    },
    {
      "inputs": [],
      "name": "totalUsers",
      "outputs": [
        {
          "internalType": "uint32",
          "name": "",
          "type": "uint32"
        }
      ],
      "stateMutability": "view",
      "type": "function"
    },
    {
      "inputs": [
        {
          "internalType": "address",
          "name": "newOwner",
          "type": "address"
        }
      ],
      "name": "transferOwnership",
      "outputs": [],
      "stateMutability": "nonpayable",
      "type": "function"
    },
    {
      "inputs": [
        {
          "internalType": "uint32",
          "name": "_value",
          "type": "uint32"
        }
      ],
      "name": "updateTotalIDs",
      "outputs": [],
      "stateMutability": "nonpayable",
      "type": "function"
    },
    {
      "inputs": [
        {
          "internalType": "address",
          "name": "newImplementation",
          "type": "address"
        }
      ],
      "name": "upgradeTo",
      "outputs": [],
      "stateMutability": "nonpayable",
      "type": "function"
    },
    {
      "inputs": [
        {
          "internalType": "address",
          "name": "newImplementation",
          "type": "address"
        },
        {
          "internalType": "bytes",
          "name": "data",
          "type": "bytes"
        }
      ],
      "name": "upgradeToAndCall",
      "outputs": [],
      "stateMutability": "payable",
      "type": "function"
    },
    {
      "inputs": [],
      "name": "withdrawETHAdmin",
      "outputs": [],
      "stateMutability": "nonpayable",
      "type": "function"
    },
    {
      "inputs": [
        {
          "internalType": "address",
          "name": "_tokenAddress",
          "type": "address"
        },
        {
          "internalType": "uint256",
          "name": "_value",
          "type": "uint256"
        }
      ],
      "name": "withdrawTokensAdmin",
      "outputs": [],
      "stateMutability": "nonpayable",
      "type": "function"
    },
    {
      "stateMutability": "payable",
      "type": "receive"
    }
  ],
  "bytecode": "0x60a06040523060805234801561001457600080fd5b50608051615e706200004d60003960008181610d7601528181610db601528181610e5f01528181610e9f0152610f2e0152615e706000f3fe6080604052600436106103545760003560e01c80637c599486116101c6578063bff1f9e1116100f7578063f229b4d511610095578063f41bfeef1161006f578063f41bfeef14610b35578063f830e57b14610b4b578063fafc959714610b78578063fb47e01614610b9757600080fd5b8063f229b4d514610ab5578063f2fde38b14610af5578063f31a2d0f14610b1557600080fd5b8063d895af2c116100d1578063d895af2c14610a42578063e52356f314610a62578063e5682e3814610a82578063ea62f71514610a9557600080fd5b8063bff1f9e1146108e4578063c3ab5ebf14610901578063c82801ca14610a2257600080fd5b8063a0506aed11610164578063a28a36861161013e578063a28a36861461086a578063af2f39d11461088a578063b47181d3146108a4578063bf46de63146108c457600080fd5b8063a0506aed146107f7578063a0b6105f14610826578063a1b801751461084657600080fd5b80638da5cb5b116101a05780638da5cb5b146107835780638df05d9c146107a157806396ed6b85146107c15780639f4e8398146107d757600080fd5b80637c599486146107425780638129fc1c14610758578063852ff2fd1461076d57600080fd5b8063347976c4116102a05780635e701d861161023e578063715018a611610218578063715018a6146106cd57806376a68e84146106e2578063770ceeb1146107025780637879b5ef1461072257600080fd5b80635e701d8614610653578063704b6c021461068d57806370d9e081146106ad57600080fd5b8063473b0d461161027a578063473b0d46146105c25780634f1ef286146105e257806352d1902d146105f5578063538ffe0c1461060a57600080fd5b8063347976c414610508578063357597881461058d5780633659cfe6146105a257600080fd5b80631f7f83ba1161030d5780632913497b116102e75780632913497b146104905780632ed421d2146104ae57806330abbcc5146104c4578063313ce567146104da57600080fd5b80631f7f83ba146104455780631f9e65e41461046557806322f88b521461047a57600080fd5b806309de82cd146103605780630b243dad146103895780630efdbb6a146103ab57806314bfd6d0146103cb57806318e10bff146104035780631c961c051461042f57600080fd5b3661035b57005b600080fd5b34801561036c57600080fd5b5061037660ce5481565b6040519081526020015b60405180910390f35b34801561039557600080fd5b506103a96103a4366004615631565b610bc4565b005b3480156103b757600080fd5b506103a96103c636600461565b565b610c07565b3480156103d757600080fd5b506103eb6103e6366004615676565b610ce9565b6040516001600160a01b039091168152602001610380565b34801561040f57600080fd5b5060d95461041d9060ff1681565b60405160ff9091168152602001610380565b34801561043b57600080fd5b5061037660cc5481565b34801561045157600080fd5b506103eb610460366004615676565b610d13565b34801561047157600080fd5b50610376610d23565b34801561048657600080fd5b5061037660d55481565b34801561049c57600080fd5b5060c9546001600160a01b03166103eb565b3480156104ba57600080fd5b5061037660d65481565b3480156104d057600080fd5b5061037660d05481565b3480156104e657600080fd5b5060cb546104f59061ffff1681565b60405161ffff9091168152602001610380565b34801561051457600080fd5b506105606105233660046156a3565b63ffffffff16600090815260db602052604090206009810154600a820154600b830154600c840154600d850154600e909501549395929491939092565b604080519687526020870195909552938501929092526060840152608083015260a082015260c001610380565b34801561059957600080fd5b506103a9610d35565b3480156105ae57600080fd5b506103a96105bd36600461565b565b610d6c565b3480156105ce57600080fd5b506103a96105dd366004615676565b610e48565b6103a96105f03660046156d4565b610e55565b34801561060157600080fd5b50610376610f21565b34801561061657600080fd5b5061064361062536600461565b565b6001600160a01b0316600090815260da602052604090205460ff1690565b6040519015158152602001610380565b34801561065f57600080fd5b5060d15461067890640100000000900463ffffffff1681565b60405163ffffffff9091168152602001610380565b34801561069957600080fd5b506103a96106a836600461565b565b610fd4565b3480156106b957600080fd5b506103a96106c83660046156a3565b61102e565b3480156106d957600080fd5b506103a9611108565b3480156106ee57600080fd5b506103766106fd3660046156a3565b61111c565b34801561070e57600080fd5b506103a961071d3660046156a3565b61153d565b34801561072e57600080fd5b506104f561073d366004615676565b611554565b34801561074e57600080fd5b5061037660cf5481565b34801561076457600080fd5b506103a961158c565b34801561077957600080fd5b5061037660cd5481565b34801561078f57600080fd5b506033546001600160a01b03166103eb565b3480156107ad57600080fd5b5060cb5461041d9062010000900460ff1681565b3480156107cd57600080fd5b5061037660df5481565b3480156107e357600080fd5b506103a96107f236600461565b565b61182d565b34801561080357600080fd5b506108176108123660046156a3565b611949565b604051610380939291906157d7565b34801561083257600080fd5b506103a9610841366004615631565b611d76565b34801561085257600080fd5b5060d15461067890600160401b900463ffffffff1681565b34801561087657600080fd5b5060d45461041d9062010000900460ff1681565b34801561089657600080fd5b5060d4546106439060ff1681565b3480156108b057600080fd5b506103766108bf3660046156a3565b611def565b3480156108d057600080fd5b506103766108df3660046156a3565b61220d565b3480156108f057600080fd5b5060d1546106789063ffffffff1681565b34801561090d57600080fd5b506109c661091c3660046156a3565b6040805160c081018252600080825260208201819052918101829052606081018290526080810182905260a08101919091525063ffffffff908116600090815260dc6020908152604091829020825160c0810184528154808616825260ff640100000000820416151593820193909352650100000000009092049093169181019190915260018201546060820152600282015461ffff16608082015260039091015460a082015290565b6040516103809190600060c08201905063ffffffff808451168352602084015115156020840152806040850151166040840152506060830151606083015261ffff608084015116608083015260a083015160a083015292915050565b348015610a2e57600080fd5b506103a9610a3d36600461580d565b61221e565b348015610a4e57600080fd5b506103a9610a5d3660046156a3565b61230c565b348015610a6e57600080fd5b506103a9610a7d36600461565b565b6123e9565b6103a9610a903660046156a3565b6125be565b348015610aa157600080fd5b50610376610ab03660046156a3565b6127d2565b348015610ac157600080fd5b50610ad5610ad03660046156a3565b6128f7565b604080519485526020850193909352918301526060820152608001610380565b348015610b0157600080fd5b506103a9610b1036600461565b565b612d42565b348015610b2157600080fd5b506103a9610b30366004615849565b612db8565b348015610b4157600080fd5b5061037660d75481565b348015610b5757600080fd5b50610b6b610b663660046156a3565b612f04565b60405161038091906158b5565b348015610b8457600080fd5b5060d45461064390610100900460ff1681565b348015610ba357600080fd5b50610bb7610bb236600461565b565b61341c565b6040516103809190615ae3565b610bcc6134e7565b6040516001600160a01b0383169082156108fc029083906000818181858888f19350505050158015610c02573d6000803e3d6000fd5b505050565b60005b60de5460ff82161015610ce55760de8160ff1681548110610c2d57610c2d615b0a565b6000918252602090912001546001600160a01b03163303610c695760c980546001600160a01b0384166001600160a01b03199091161790555050565b60de54610c7890600190615b36565b8160ff1603610cd35760de8160ff1681548110610c9757610c97615b0a565b6000918252602090912001546001600160a01b03163314610cd35760405162461bcd60e51b8152600401610cca90615b49565b60405180910390fd5b80610cdd81615b74565b915050610c0a565b5050565b60de8181548110610cf957600080fd5b6000918252602090912001546001600160a01b0316905081565b60d88181548110610cf957600080fd5b6000610d3060df54613541565b905090565b610d3d6134e7565b60405133904780156108fc02916000818181858888f19350505050158015610d69573d6000803e3d6000fd5b50565b6001600160a01b037f0000000000000000000000000000000000000000000000000000000000000000163003610db45760405162461bcd60e51b8152600401610cca90615b93565b7f00000000000000000000000000000000000000000000000000000000000000006001600160a01b0316610dfd600080516020615df4833981519152546001600160a01b031690565b6001600160a01b031614610e235760405162461bcd60e51b8152600401610cca90615bdf565b610e2c816135d7565b60408051600080825260208201909252610d69918391906135df565b610e506134e7565b60df55565b6001600160a01b037f0000000000000000000000000000000000000000000000000000000000000000163003610e9d5760405162461bcd60e51b8152600401610cca90615b93565b7f00000000000000000000000000000000000000000000000000000000000000006001600160a01b0316610ee6600080516020615df4833981519152546001600160a01b031690565b6001600160a01b031614610f0c5760405162461bcd60e51b8152600401610cca90615bdf565b610f15826135d7565b610ce5828260016135df565b6000306001600160a01b037f00000000000000000000000000000000000000000000000000000000000000001614610fc15760405162461bcd60e51b815260206004820152603860248201527f555550535570677261646561626c653a206d757374206e6f742062652063616c60448201527f6c6564207468726f7567682064656c656761746563616c6c00000000000000006064820152608401610cca565b50600080516020615df483398151915290565b610fdc6134e7565b60de80546001810182556000919091527ffae8130c0619f84b4b44f01b84806f04e82e536d70e05f2356977fa318aecc1a0180546001600160a01b0319166001600160a01b0392909216919091179055565b60005b60de5460ff82161015610ce55760de8160ff168154811061105457611054615b0a565b6000918252602090912001546001600160a01b031633036110955760d1805463ffffffff84166401000000000267ffffffff00000000199091161790555050565b60de546110a490600190615b36565b8160ff16036110f65760de8160ff16815481106110c3576110c3615b0a565b6000918252602090912001546001600160a01b031633146110f65760405162461bcd60e51b8152600401610cca90615b49565b8061110081615b74565b915050611031565b6111106134e7565b61111a600061374a565b565b63ffffffff808216600090815260db6020908152604080832081516104008101909252805490941681526001840180549394859492939092908401919061116290615c2b565b80601f016020809104026020016040519081016040528092919081815260200182805461118e90615c2b565b80156111db5780601f106111b0576101008083540402835291602001916111db565b820191906000526020600020905b8154815290600101906020018083116111be57829003601f168201915b5050509183525050600282015460ff811615156020808401919091526101009091046001600160a01b03166040808401919091526003840154606084015260048401546080840152600584015463ffffffff1660a084015260068401805482518185028101850190935280835260c09094019391929091908301828280156112ae57602002820191906000526020600020906000905b82829054906101000a900463ffffffff1663ffffffff16815260200190600401906020826003010492830192600103820291508084116112715790505b505050505081526020016007820180548060200260200160405190810160405280929190818152602001828054801561133257602002820191906000526020600020906000905b82829054906101000a900463ffffffff1663ffffffff16815260200190600401906020826003010492830192600103820291508084116112f55790505b50505050508152602001600882018054806020026020016040519081016040528092919081815260200182805480156113b657602002820191906000526020600020906000905b82829054906101000a900463ffffffff1663ffffffff16815260200190600401906020826003010492830192600103820291508084116113795790505b5050505050815260200160098201548152602001600a8201548152602001600b8201548152602001600c8201548152602001600d8201548152602001600e8201548152602001600f8201548152602001601082015481526020016011820160009054906101000a900460ff1660ff1660ff1681526020016012820154815260200160138201548152602001601482015481526020016015820154815260200160168201548152602001601782015481526020016018820154815260200160198201548152602001601a8201548152602001601b820180548060200260200160405190810160405280929190818152602001828054801561150157602002820191906000526020600020906000905b82829054906101000a900463ffffffff1663ffffffff16815260200190600401906020826003010492830192600103820291508084116114c45790505b50505050508152602001601c8201548152602001601d8201548152602001601e8201548152505090506115338161379c565b60ff169392505050565b60006115488261384a565b9050610ce58183613ac3565b60ca818154811061156457600080fd5b9060005260206000209060109182820401919006600202915054906101000a900461ffff1681565b600054610100900460ff16158080156115ac5750600054600160ff909116105b806115c65750303b1580156115c6575060005460ff166001145b6116295760405162461bcd60e51b815260206004820152602e60248201527f496e697469616c697a61626c653a20636f6e747261637420697320616c72656160448201526d191e481a5b9a5d1a585b1a5e995960921b6064820152608401610cca565b6000805460ff19166001179055801561164c576000805461ff0019166101001790555b60c980546001600160a01b03191673286d6392042b4d7180fd6d20f8d35c877681577417905560cb805461ffff19166103e8179055604080516103a08101825260648152604660208201526032918101829052606081018290526080810182905260a0810182905260c0810182905260e08101829052610100810182905261012081018290526101408101829052610160810182905261018081018290526101a081018290526101c081018290526101e08101829052610200810182905261022081018290526102408101919091526014610260820181905261028082018190526102a082018190526102c082018190526102e0820181905261030082018190526103208201819052610340820181905261036082018190526103808201526117799060ca90601d6154bb565b5060cb805462ff000019166232000017905568056bc75e2d6310000060df5560d4805463ff00ffff1916630200000117905560d1805461ffff60601b1916607d60631b17905563020f580060d2556201518060d35562278d0060d7556117dd614140565b6117e561416f565b8015610d69576000805461ff0019169055604051600181527f7f26b83ff96e1f2b6a682f133852f6798a09c465da95921460cefb38474024989060200160405180910390a150565b60005b60de5460ff82161015610ce55760de8160ff168154811061185357611853615b0a565b6000918252602090912001546001600160a01b031633036118d65760d8805460018181019092557f5320ad99a619a90804cd2efe3a5cf0ac1ac5c41ad9ff2c61cf699efdad7710960180546001600160a01b0385166001600160a01b03199091168117909155600090815260da60205260409020805460ff191690911790555050565b60de546118e590600190615b36565b8160ff16036119375760de8160ff168154811061190457611904615b0a565b6000918252602090912001546001600160a01b031633146119375760405162461bcd60e51b8152600401610cca90615b49565b8061194181615b74565b915050611830565b63ffffffff808216600090815260db6020908152604080832081516104008101909252805490941681526001840180546060958695948594939192908401919061199290615c2b565b80601f01602080910402602001604051908101604052809291908181526020018280546119be90615c2b565b8015611a0b5780601f106119e057610100808354040283529160200191611a0b565b820191906000526020600020905b8154815290600101906020018083116119ee57829003601f168201915b5050509183525050600282015460ff811615156020808401919091526101009091046001600160a01b03166040808401919091526003840154606084015260048401546080840152600584015463ffffffff1660a084015260068401805482518185028101850190935280835260c0909401939192909190830182828015611ade57602002820191906000526020600020906000905b82829054906101000a900463ffffffff1663ffffffff1681526020019060040190602082600301049283019260010382029150808411611aa15790505b5050505050815260200160078201805480602002602001604051908101604052809291908181526020018280548015611b6257602002820191906000526020600020906000905b82829054906101000a900463ffffffff1663ffffffff1681526020019060040190602082600301049283019260010382029150808411611b255790505b5050505050815260200160088201805480602002602001604051908101604052809291908181526020018280548015611be657602002820191906000526020600020906000905b82829054906101000a900463ffffffff1663ffffffff1681526020019060040190602082600301049283019260010382029150808411611ba95790505b5050505050815260200160098201548152602001600a8201548152602001600b8201548152602001600c8201548152602001600d8201548152602001600e8201548152602001600f8201548152602001601082015481526020016011820160009054906101000a900460ff1660ff1660ff1681526020016012820154815260200160138201548152602001601482015481526020016015820154815260200160168201548152602001601782015481526020016018820154815260200160198201548152602001601a8201548152602001601b8201805480602002602001604051908101604052809291908181526020018280548015611d3157602002820191906000526020600020906000905b82829054906101000a900463ffffffff1663ffffffff1681526020019060040190602082600301049283019260010382029150808411611cf45790505b50505050508152602001601c8201548152602001601d8201548152602001601e8201548152505090508061010001519350806101200151925083519150509193909250565b611d7e6134e7565b60405163a9059cbb60e01b8152336004820152602481018290526001600160a01b0383169063a9059cbb906044016020604051808303816000875af1158015611dcb573d6000803e3d6000fd5b505050506040513d601f19601f82011682018060405250810190610c029190615c65565b63ffffffff808216600090815260db60209081526040808320815161040081019092528054909416815260018401805493948594929390929084019190611e3590615c2b565b80601f0160208091040260200160405190810160405280929190818152602001828054611e6190615c2b565b8015611eae5780601f10611e8357610100808354040283529160200191611eae565b820191906000526020600020905b815481529060010190602001808311611e9157829003601f168201915b5050509183525050600282015460ff811615156020808401919091526101009091046001600160a01b03166040808401919091526003840154606084015260048401546080840152600584015463ffffffff1660a084015260068401805482518185028101850190935280835260c0909401939192909190830182828015611f8157602002820191906000526020600020906000905b82829054906101000a900463ffffffff1663ffffffff1681526020019060040190602082600301049283019260010382029150808411611f445790505b505050505081526020016007820180548060200260200160405190810160405280929190818152602001828054801561200557602002820191906000526020600020906000905b82829054906101000a900463ffffffff1663ffffffff1681526020019060040190602082600301049283019260010382029150808411611fc85790505b505050505081526020016008820180548060200260200160405190810160405280929190818152602001828054801561208957602002820191906000526020600020906000905b82829054906101000a900463ffffffff1663ffffffff168152602001906004019060208260030104928301926001038202915080841161204c5790505b5050505050815260200160098201548152602001600a8201548152602001600b8201548152602001600c8201548152602001600d8201548152602001600e8201548152602001600f8201548152602001601082015481526020016011820160009054906101000a900460ff1660ff1660ff1681526020016012820154815260200160138201548152602001601482015481526020016015820154815260200160168201548152602001601782015481526020016018820154815260200160198201548152602001601a8201548152602001601b82018054806020026020016040519081016040528092919081815260200182805480156121d457602002820191906000526020600020906000905b82829054906101000a900463ffffffff1663ffffffff16815260200190600401906020826003010492830192600103820291508084116121975790505b50505050508152602001601c8201548152602001601d8201548152602001601e82015481525050905061220681614196565b9392505050565b6000612218826141d2565b92915050565b60005b60de5460ff821610156123065760de8160ff168154811061224457612244615b0a565b6000918252602090912001546001600160a01b031633036122935760d1805461ffff60601b1916600160601b61ffff8716021790556122868362015180615c87565b60d25560d3829055612306565b60de546122a290600190615b36565b8160ff16036122f45760de8160ff16815481106122c1576122c1615b0a565b6000918252602090912001546001600160a01b031633146122f45760405162461bcd60e51b8152600401610cca90615b49565b806122fe81615b74565b915050612221565b50505050565b60005b60de5460ff82161015610ce55760de8160ff168154811061233257612332615b0a565b6000918252602090912001546001600160a01b031633036123765760d1805463ffffffff8416600160401b026bffffffff0000000000000000199091161790555050565b60de5461238590600190615b36565b8160ff16036123d75760de8160ff16815481106123a4576123a4615b0a565b6000918252602090912001546001600160a01b031633146123d75760405162461bcd60e51b8152600401610cca90615b49565b806123e181615b74565b91505061230f565b60005b60de5460ff82161015610ce55760de8160ff168154811061240f5761240f615b0a565b6000918252602090912001546001600160a01b0316330361254b576001600160a01b038216600090815260da60205260408120805460ff1916905560d854905b8181101561230657836001600160a01b031660d8828154811061247457612474615b0a565b6000918252602090912001546001600160a01b0316036125395760d861249b600184615b36565b815481106124ab576124ab615b0a565b60009182526020909120015460d880546001600160a01b0390921691839081106124d7576124d7615b0a565b9060005260206000200160006101000a8154816001600160a01b0302191690836001600160a01b0316021790555060d880548061251657612516615c9e565b600082815260209020810160001990810180546001600160a01b03191690550190555b8061254381615cb4565b91505061244f565b60de5461255a90600190615b36565b8160ff16036125ac5760de8160ff168154811061257957612579615b0a565b6000918252602090912001546001600160a01b031633146125ac5760405162461bcd60e51b8152600401610cca90615b49565b806125b681615b74565b9150506123ec565b3460006125ca82614710565b905060df5481101561261e5760405162461bcd60e51b815260206004820152601f60248201527f56616c7565206c657373207468656e206d696e436f6e747269627574696f6e006044820152606401610cca565b60d1543390429060009061264190640100000000900463ffffffff166001615ccd565b60d18054919250600091600160401b900463ffffffff1690600861266483615cf1565b825463ffffffff9182166101009390930a92830291909202199091161790556001600160a01b038516600090815260da6020526040902060d4549192509060ff1615612767576127678383888763ffffffff928316600081815260dc6020908152604080832097871680845260db835290832088546501000000000090920268ffffffffff00000000199092169190911764010000000017885560018089019690965560d15460028901805461ffff191661ffff600160601b90930492909216919091179055600390970193909355601b90950180549384018155855293206008820401805460079092166004026101000a938402939092021916919091179055565b61278785848a898860cb60029054906101000a900460ff1660ff1661479d565b6001908101805491820181556000908152602090206008820401805460079092166004026101000a63ffffffff81810219909316949092169190910292909217909155505050505050565b63ffffffff8116600090815260db60209081526040808320601b018054825181850281018501909352808352849383018282801561285b57602002820191906000526020600020906000905b82829054906101000a900463ffffffff1663ffffffff168152602001906004019060208260030104928301926001038202915080841161281e5790505b505050505090506000805b82518161ffff1610156128ef57600060dc6000858461ffff168151811061288f5761288f615b0a565b602002602001015163ffffffff1663ffffffff16815260200190815260200160002090508060000160049054906101000a900460ff16156128dc5760018101546128d99084615d14565b92505b50806128e781615d27565b915050612866565b509392505050565b63ffffffff808216600090815260db602090815260408083208151610400810190925280549094168152600184018054939485948594859485949093929184019161294190615c2b565b80601f016020809104026020016040519081016040528092919081815260200182805461296d90615c2b565b80156129ba5780601f1061298f576101008083540402835291602001916129ba565b820191906000526020600020905b81548152906001019060200180831161299d57829003601f168201915b5050509183525050600282015460ff811615156020808401919091526101009091046001600160a01b03166040808401919091526003840154606084015260048401546080840152600584015463ffffffff1660a084015260068401805482518185028101850190935280835260c0909401939192909190830182828015612a8d57602002820191906000526020600020906000905b82829054906101000a900463ffffffff1663ffffffff1681526020019060040190602082600301049283019260010382029150808411612a505790505b5050505050815260200160078201805480602002602001604051908101604052809291908181526020018280548015612b1157602002820191906000526020600020906000905b82829054906101000a900463ffffffff1663ffffffff1681526020019060040190602082600301049283019260010382029150808411612ad45790505b5050505050815260200160088201805480602002602001604051908101604052809291908181526020018280548015612b9557602002820191906000526020600020906000905b82829054906101000a900463ffffffff1663ffffffff1681526020019060040190602082600301049283019260010382029150808411612b585790505b5050505050815260200160098201548152602001600a8201548152602001600b8201548152602001600c8201548152602001600d8201548152602001600e8201548152602001600f8201548152602001601082015481526020016011820160009054906101000a900460ff1660ff1660ff1681526020016012820154815260200160138201548152602001601482015481526020016015820154815260200160168201548152602001601782015481526020016018820154815260200160198201548152602001601a8201548152602001601b8201805480602002602001604051908101604052809291908181526020018280548015612ce057602002820191906000526020600020906000905b82829054906101000a900463ffffffff1663ffffffff1681526020019060040190602082600301049283019260010382029150808411612ca35790505b50505050508152602001601c8201548152602001601d8201548152602001601e82015481525050905080610280015194508061036001519350806102a001519250828486612d2e9190615d14565b612d389190615d14565b9150509193509193565b612d4a6134e7565b6001600160a01b038116612daf5760405162461bcd60e51b815260206004820152602660248201527f4f776e61626c653a206e6577206f776e657220697320746865207a65726f206160448201526564647265737360d01b6064820152608401610cca565b610d698161374a565b63ffffffff8216600090815260db60205260409020600281015461010090046001600160a01b03163314612e2e5760405162461bcd60e51b815260206004820152601d60248201527f596f7520617265206e6f74206f776e6572206f6620746869732069642e0000006044820152606401610cca565b6000612e3982614a30565b601e830154909150612e4b8183615b36565b841115612ead5760405162461bcd60e51b815260206004820152602a60248201527f506c6561736520656e7465722076616c7565206c657373207468656e20796f7560448201526939103130b630b731b29760b11b6064820152608401610cca565b8383601e016000828254612ec19190615d14565b909155503390506108fc612ed486613541565b6040518115909202916000818181858888f19350505050158015612efc573d6000803e3d6000fd5b505050505050565b61300e604051806104000160405280600063ffffffff1681526020016060815260200160001515815260200160006001600160a01b031681526020016000815260200160008152602001600063ffffffff1681526020016060815260200160608152602001606081526020016000815260200160008152602001600081526020016000815260200160008152602001600081526020016000815260200160008152602001600060ff168152602001600081526020016000815260200160008152602001600081526020016000815260200160008152602001600081526020016000815260200160008152602001606081526020016000815260200160008152602001600081525090565b63ffffffff808316600090815260db602090815260409182902082516104008101909352805490931682526001830180549293929184019161304f90615c2b565b80601f016020809104026020016040519081016040528092919081815260200182805461307b90615c2b565b80156130c85780601f1061309d576101008083540402835291602001916130c8565b820191906000526020600020905b8154815290600101906020018083116130ab57829003601f168201915b5050509183525050600282015460ff811615156020808401919091526101009091046001600160a01b03166040808401919091526003840154606084015260048401546080840152600584015463ffffffff1660a084015260068401805482518185028101850190935280835260c090940193919290919083018282801561319b57602002820191906000526020600020906000905b82829054906101000a900463ffffffff1663ffffffff168152602001906004019060208260030104928301926001038202915080841161315e5790505b505050505081526020016007820180548060200260200160405190810160405280929190818152602001828054801561321f57602002820191906000526020600020906000905b82829054906101000a900463ffffffff1663ffffffff16815260200190600401906020826003010492830192600103820291508084116131e25790505b50505050508152602001600882018054806020026020016040519081016040528092919081815260200182805480156132a357602002820191906000526020600020906000905b82829054906101000a900463ffffffff1663ffffffff16815260200190600401906020826003010492830192600103820291508084116132665790505b5050505050815260200160098201548152602001600a8201548152602001600b8201548152602001600c8201548152602001600d8201548152602001600e8201548152602001600f8201548152602001601082015481526020016011820160009054906101000a900460ff1660ff1660ff1681526020016012820154815260200160138201548152602001601482015481526020016015820154815260200160168201548152602001601782015481526020016018820154815260200160198201548152602001601a8201548152602001601b82018054806020026020016040519081016040528092919081815260200182805480156133ee57602002820191906000526020600020906000905b82829054906101000a900463ffffffff1663ffffffff16815260200190600401906020826003010492830192600103820291508084116133b15790505b50505050508152602001601c8201548152602001601d8201548152602001601e820154815250509050919050565b6040805180820190915260008152606060208201526001600160a01b038216600090815260da602090815260409182902082518084018452815460ff1615158152600182018054855181860281018601909652808652919492938581019392908301828280156134d757602002820191906000526020600020906000905b82829054906101000a900463ffffffff1663ffffffff168152602001906004019060208260030104928301926001038202915080841161349a5790505b5050505050815250509050919050565b6033546001600160a01b0316331461111a5760405162461bcd60e51b815260206004820181905260248201527f4f776e61626c653a2063616c6c6572206973206e6f7420746865206f776e65726044820152606401610cca565b60008060c960009054906101000a90046001600160a01b03166001600160a01b031663e1aa60366040518163ffffffff1660e01b8152600401602060405180830381865afa158015613597573d6000803e3d6000fd5b505050506040513d601f19601f820116820180604052508101906135bb9190615d3e565b6135cd84670de0b6b3a7640000615c87565b6122069190615d57565b610d696134e7565b7f4910fdfa16fed3260ed0e7147f7cc6da11a60208b5b9406d12a635614ffd91435460ff161561361257610c0283614a54565b826001600160a01b03166352d1902d6040518163ffffffff1660e01b8152600401602060405180830381865afa92505050801561366c575060408051601f3d908101601f1916820190925261366991810190615d3e565b60015b6136cf5760405162461bcd60e51b815260206004820152602e60248201527f45524331393637557067726164653a206e657720696d706c656d656e7461746960448201526d6f6e206973206e6f74205555505360901b6064820152608401610cca565b600080516020615df4833981519152811461373e5760405162461bcd60e51b815260206004820152602960248201527f45524331393637557067726164653a20756e737570706f727465642070726f786044820152681a58589b195555525160ba1b6064820152608401610cca565b50610c02838383614af0565b603380546001600160a01b038381166001600160a01b0319831681179093556040519116919082907f8be0079c531659141344cd1fd0a4f28419497f9722a3daafe3b4186f6b6457e090600090a35050565b60d95460009060ff16815b8160ff168160ff1610156138435760ff8116600090815260dd6020526040902060010154610140850151108015906137f9575060ff8116600090815260dd602052604090206002015461018085015110155b801561381f575060ff8116600090815260dd60205260409020600301546101c085015110155b1561382c57809250613831565b613843565b8061383b81615b74565b9150506137a7565b5050919050565b63ffffffff8116600090815260db602052604081206002810154429061010090046001600160a01b031633146138c25760405162461bcd60e51b815260206004820152601d60248201527f596f7520617265206e6f74206f776e6572206f6620746869732069642e0000006044820152606401610cca565b60d35482601d01546138d49190615d14565b4210156139335760405162461bcd60e51b815260206004820152602760248201527f596f7520726f6920636c61696d2074696d656c696d6974206973206e6f74206f6044820152660eccae440f2cad60cb1b6064820152608401610cca565b600061393e856141d2565b905082601701548184601601546139559190615d14565b10156139d3578083601601600082825461396f9190615d14565b925050819055508083601c01600082825461398a9190615d14565b9091555050601d83018290556040519093508390819063ffffffff8716907f7cd8783637a6bf8d3b4b69973a28720cfb0f5abc55d8b85dde1732d8f22c0efc90600090a3613abb565b6000836016015484601701546139e99190615b36565b9050836017015484601601819055508084601c016000828254613a0c9190615d14565b9091555050601d8401839055935083613a2484614b15565b604051819063ffffffff8816907f7cd8783637a6bf8d3b4b69973a28720cfb0f5abc55d8b85dde1732d8f22c0efc90600090a383546040805163ffffffff9092168252602082018190526011828201527013585e08131a5b5a5d0814995858da1959607a1b6060830152517f044cea052792fbab534d5bab46ea745cd12cb2253e4c928b3124c1389b3ae22e9181900360800190a1505b505050919050565b600060ca805480602002602001604051908101604052809291908181526020018280548015613b3957602002820191906000526020600020906000905b82829054906101000a900461ffff1661ffff1681526020019060020190602082600101049283019260010382029150808411613b005790505b5050835163ffffffff8716600090815260db602052604081209596509094935091508190505b8381101561412057600583015463ffffffff908116600081815260db60205260408120805492939092169003613b96575050614120565b613b9f81614b3f565b15613c125760405172149959995c995c881a5cc8111a5cd8589b1959606a1b81526013015b604051908190039020613bd8846001615d14565b60405163ffffffff8516907f6bd4a1cb98fe02ede79e45b5749c74ff512165c4fb80ce4045eebef0e4e867dc90600090a4935061410e9050565b604080516104008101909152815463ffffffff16815260018201805461400f92918491602084019190613c4490615c2b565b80601f0160208091040260200160405190810160405280929190818152602001828054613c7090615c2b565b8015613cbd5780601f10613c9257610100808354040283529160200191613cbd565b820191906000526020600020905b815481529060010190602001808311613ca057829003601f168201915b5050509183525050600282015460ff811615156020808401919091526101009091046001600160a01b03166040808401919091526003840154606084015260048401546080840152600584015463ffffffff1660a084015260068401805482518185028101850190935280835260c0909401939192909190830182828015613d9057602002820191906000526020600020906000905b82829054906101000a900463ffffffff1663ffffffff1681526020019060040190602082600301049283019260010382029150808411613d535790505b5050505050815260200160078201805480602002602001604051908101604052809291908181526020018280548015613e1457602002820191906000526020600020906000905b82829054906101000a900463ffffffff1663ffffffff1681526020019060040190602082600301049283019260010382029150808411613dd75790505b5050505050815260200160088201805480602002602001604051908101604052809291908181526020018280548015613e9857602002820191906000526020600020906000905b82829054906101000a900463ffffffff1663ffffffff1681526020019060040190602082600301049283019260010382029150808411613e5b5790505b5050505050815260200160098201548152602001600a8201548152602001600b8201548152602001600c8201548152602001600d8201548152602001600e8201548152602001600f8201548152602001601082015481526020016011820160009054906101000a900460ff1660ff1660ff1681526020016012820154815260200160138201548152602001601482015481526020016015820154815260200160168201548152602001601782015481526020016018820154815260200160198201548152602001601a8201548152602001601b8201805480602002602001604051908101604052809291908181526020018280548015613fe357602002820191906000526020600020906000905b82829054906101000a900463ffffffff1663ffffffff1681526020019060040190602082600301049283019260010382029150808411613fa65790505b50505050508152602001601c8201548152602001601d8201548152602001601e82015481525050614196565b61401a846001615d14565b111561404e576040517f446f776e6c696e65206c6576656c73206c696d697420726561636865640000008152601d01613bc4565b60cb54875160009161ffff169089908690811061406d5761406d615b0a565b602002602001015161ffff168b6140849190615c87565b61408e9190615d57565b9050808260130160008282546140a49190615d14565b909155506140b490508282614c03565b6140be8186615d14565b94508063ffffffff808516908b167f516e026aa0a8e23fcb20eebf31df57c3e9df29f305428f45e22d048a8582dfa06140f8886001615d14565b60405190815260200160405180910390a4509350505b8061411881615cb4565b915050613b5f565b508060cf60008282546141339190615d14565b9091555050505050505050565b600054610100900460ff166141675760405162461bcd60e51b8152600401610cca90615d79565b61111a614c3b565b600054610100900460ff1661111a5760405162461bcd60e51b8152600401610cca90615d79565b60e0810151516000908181156122065760d4546001906141c0906301000000900460ff1684615c87565b6141ca9190615b36565b949350505050565b63ffffffff808216600090815260db6020908152604080832081516104008101909252805490941681526001840180549394859492939092908401919061421890615c2b565b80601f016020809104026020016040519081016040528092919081815260200182805461424490615c2b565b80156142915780601f1061426657610100808354040283529160200191614291565b820191906000526020600020905b81548152906001019060200180831161427457829003601f168201915b5050509183525050600282015460ff811615156020808401919091526101009091046001600160a01b03166040808401919091526003840154606084015260048401546080840152600584015463ffffffff1660a084015260068401805482518185028101850190935280835260c090940193919290919083018282801561436457602002820191906000526020600020906000905b82829054906101000a900463ffffffff1663ffffffff16815260200190600401906020826003010492830192600103820291508084116143275790505b50505050508152602001600782018054806020026020016040519081016040528092919081815260200182805480156143e857602002820191906000526020600020906000905b82829054906101000a900463ffffffff1663ffffffff16815260200190600401906020826003010492830192600103820291508084116143ab5790505b505050505081526020016008820180548060200260200160405190810160405280929190818152602001828054801561446c57602002820191906000526020600020906000905b82829054906101000a900463ffffffff1663ffffffff168152602001906004019060208260030104928301926001038202915080841161442f5790505b5050505050815260200160098201548152602001600a8201548152602001600b8201548152602001600c8201548152602001600d8201548152602001600e8201548152602001600f8201548152602001601082015481526020016011820160009054906101000a900460ff1660ff1660ff1681526020016012820154815260200160138201548152602001601482015481526020016015820154815260200160168201548152602001601782015481526020016018820154815260200160198201548152602001601a8201548152602001601b82018054806020026020016040519081016040528092919081815260200182805480156145b757602002820191906000526020600020906000905b82829054906101000a900463ffffffff1663ffffffff168152602001906004019060208260030104928301926001038202915080841161457a5790505b5050509183525050601c8201546020820152601d8201546040820152601e9091015460609091015261038081015180516102c083015192935090916145fd906002615c87565b836102e001511080156146105750600081115b156147055760005b818161ffff1610156146ff57600060dc6000858461ffff168151811061464057614640615b0a565b602002602001015163ffffffff1663ffffffff16815260200190815260200160002090508060000160049054906101000a900460ff16156146ec5760cb5460d154600183015460009261ffff908116926146a592600160601b90910490911690615c87565b6146af9190615d57565b905060008260030154426146c39190615b36565b9050620151806146d38284615c87565b6146dd9190615d57565b6146e79089615d14565b975050505b50806146f781615d27565b915050614618565b50613abb565b506000949350505050565b600080670de0b6b3a764000060c960009054906101000a90046001600160a01b03166001600160a01b031663e1aa60366040518163ffffffff1660e01b8152600401602060405180830381865afa15801561476f573d6000803e3d6000fd5b505050506040513d601f19601f820116820180604052508101906147939190615d3e565b6135cd9085615c87565b63ffffffff858116600081815260db60205260409020805463ffffffff1990811690921781556002810180546001600160a81b0319166101006001600160a01b038c16021760011790556003808201869055600582018054909316938816939093179091559061480e908590615c87565b8160170160008282546148219190615d14565b925050819055508381600901600082825461483c9190615d14565b92505081905550838160150160008282546148579190615d14565b90915550506019810183905560005b828160ff1610156149e957600582015463ffffffff908116600081815260db602052604081208054929390921690036148a05750506149e9565b8260ff16600003614904578681600b0160008282546148bf9190615d14565b9091555050600681018054600181018255600091825260209091206008820401805460079092166004026101000a63ffffffff81810219909316928c16029190911790555b8681600d0160008282546149189190615d14565b9091555050600781810180546001810182556000918252602091829020600882040180549190931660040261010090810a63ffffffff818102199093168e841691820217909455600285015460058901546040519084168152928d16939190046001600160a01b0316917fa7fafc728ec30e34dc1e1276496bf3eb44ca7494679da969455289e6a8f0f1f6910160405180910390a460d454610100900460ff16156149c9576149c981838989614c6b565b6149d3878761530f565b92508190506149e181615b74565b915050614866565b5060d18054640100000000900463ffffffff16906004614a0883615cf1565b91906101000a81548163ffffffff021916908363ffffffff1602179055505050505050505050565b6000816017015482601601541015614a4c578160160154612218565b506017015490565b6001600160a01b0381163b614ac15760405162461bcd60e51b815260206004820152602d60248201527f455243313936373a206e657720696d706c656d656e746174696f6e206973206e60448201526c1bdd08184818dbdb9d1c9858dd609a1b6064820152608401610cca565b600080516020615df483398151915280546001600160a01b0319166001600160a01b0392909216919091179055565b614af983615349565b600082511180614b065750805b15610c02576123068383615389565b6040805160008152602081019182905251614b3491601b840191615563565b506000601c90910155565b600281015460009060ff1615614b5757506001919050565b8160170154826016015410614b6e57506001919050565b601b82015415614bfb57601b8201805460009160dc91839190614b9390600190615b36565b81548110614ba357614ba3615b0a565b90600052602060002090600891828204019190066004029054906101000a900463ffffffff1663ffffffff1663ffffffff168152602001908152602001600020905042816003015410614bf95750600192915050565b505b506000919050565b8160170154818360160154614c189190615d14565b10614c2b57601782015460168301555050565b808260160154610c029190615d14565b600054610100900460ff16614c625760405162461bcd60e51b8152600401610cca90615d79565b61111a3361374a565b6011840154604080516104008101909152855463ffffffff16815260018601805460ff9093169261507392918891602084019190614ca890615c2b565b80601f0160208091040260200160405190810160405280929190818152602001828054614cd490615c2b565b8015614d215780601f10614cf657610100808354040283529160200191614d21565b820191906000526020600020905b815481529060010190602001808311614d0457829003601f168201915b5050509183525050600282015460ff811615156020808401919091526101009091046001600160a01b03166040808401919091526003840154606084015260048401546080840152600584015463ffffffff1660a084015260068401805482518185028101850190935280835260c0909401939192909190830182828015614df457602002820191906000526020600020906000905b82829054906101000a900463ffffffff1663ffffffff1681526020019060040190602082600301049283019260010382029150808411614db75790505b5050505050815260200160078201805480602002602001604051908101604052809291908181526020018280548015614e7857602002820191906000526020600020906000905b82829054906101000a900463ffffffff1663ffffffff1681526020019060040190602082600301049283019260010382029150808411614e3b5790505b5050505050815260200160088201805480602002602001604051908101604052809291908181526020018280548015614efc57602002820191906000526020600020906000905b82829054906101000a900463ffffffff1663ffffffff1681526020019060040190602082600301049283019260010382029150808411614ebf5790505b5050505050815260200160098201548152602001600a8201548152602001600b8201548152602001600c8201548152602001600d8201548152602001600e8201548152602001600f8201548152602001601082015481526020016011820160009054906101000a900460ff1660ff1660ff1681526020016012820154815260200160138201548152602001601482015481526020016015820154815260200160168201548152602001601782015481526020016018820154815260200160198201548152602001601a8201548152602001601b820180548060200260200160405190810160405280929190818152602001828054801561504757602002820191906000526020600020906000905b82829054906101000a900463ffffffff1663ffffffff168152602001906004019060208260030104928301926001038202915080841161500a5790505b50505050508152602001601c8201548152602001601d8201548152602001601e8201548152505061379c565b60ff16111561230657604080516104008101909152845463ffffffff1681526001850180546150ae92918791602084019190614ca890615c2b565b60118501805460ff191660ff9283169081178255600090815260dd6020908152604080832060099081018054600181810183559186529385206008850401805460079095166004026101000a63ffffffff81810219909616958c1602949094179093559354909416825292902001546151279190615b36565b6012850181905560118501546040805163ffffffff87168152602081019390935260ff90911682820152517fb0d3a9c683344e744a1ae3db383f75a8a01851282c5fe97d6159c1392a2e2a0a9181900360600190a1604080516104008101909152845463ffffffff16815260018501805460dd926000926151b29289916020840191614ca890615c2b565b60ff90811682526020820192909252604001600020600801546101009004161561527657604080516104008101909152845463ffffffff16815260018501805460dd9260009261520c9289916020840191614ca890615c2b565b60ff1660ff1681526020019081526020016000206007015484601001546152339190615d14565b811115615262578084601001819055508184600f0160008282546152579190615d14565b909155506123069050565b8184600f0160008282546152579190615d14565b60d454610100900460ff161561230657601184015460ff16600090815260dd60205260409020600501546152ab908590614c03565b601184015460ff908116600090815260dd602090815260409182902060058101549054925192909316825263ffffffff8616917f94b6d3d19cc40938e685ef6a1f6476b53ef65295ab094a044e74405a8d0bd05b910160405180910390a350505050565b60d75460d65461531f9190615d14565b81111561532e5760d65560d555565b8160d560008282546153409190615d14565b90915550505050565b61535281614a54565b6040516001600160a01b038216907fbc7cd75a20ee27fd9adebab32041f755214dbc6bffa90cc0225b39da2e5c2d3b90600090a250565b60606001600160a01b0383163b6153f15760405162461bcd60e51b815260206004820152602660248201527f416464726573733a2064656c65676174652063616c6c20746f206e6f6e2d636f6044820152651b9d1c9858dd60d21b6064820152608401610cca565b600080846001600160a01b03168460405161540c9190615dc4565b600060405180830381855af49150503d8060008114615447576040519150601f19603f3d011682016040523d82523d6000602084013e61544c565b606091505b50915091506154748282604051806060016040528060278152602001615e146027913961547d565b95945050505050565b6060831561548c575081612206565b61220683838151156154a15781518083602001fd5b8060405162461bcd60e51b8152600401610cca9190615de0565b82805482825590600052602060002090600f016010900481019282156155535791602002820160005b8382111561552357835183826101000a81548161ffff021916908360ff16021790555092602001926002016020816001010492830192600103026154e4565b80156155515782816101000a81549061ffff0219169055600201602081600101049283019260010302615523565b505b5061555f929150615600565b5090565b828054828255906000526020600020906007016008900481019282156155535791602002820160005b838211156155d057835183826101000a81548163ffffffff021916908363ffffffff160217905550926020019260040160208160030104928301926001030261558c565b80156155515782816101000a81549063ffffffff02191690556004016020816003010492830192600103026155d0565b5b8082111561555f5760008155600101615601565b80356001600160a01b038116811461562c57600080fd5b919050565b6000806040838503121561564457600080fd5b61564d83615615565b946020939093013593505050565b60006020828403121561566d57600080fd5b61220682615615565b60006020828403121561568857600080fd5b5035919050565b803563ffffffff8116811461562c57600080fd5b6000602082840312156156b557600080fd5b6122068261568f565b634e487b7160e01b600052604160045260246000fd5b600080604083850312156156e757600080fd5b6156f083615615565b9150602083013567ffffffffffffffff8082111561570d57600080fd5b818501915085601f83011261572157600080fd5b813581811115615733576157336156be565b604051601f8201601f19908116603f0116810190838211818310171561575b5761575b6156be565b8160405282815288602084870101111561577457600080fd5b8260208601602083013760006020848301015280955050505050509250929050565b600081518084526020808501945080840160005b838110156157cc57815163ffffffff16875295820195908201906001016157aa565b509495945050505050565b6060815260006157ea6060830186615796565b82810360208401526157fc8186615796565b915050826040830152949350505050565b60008060006060848603121561582257600080fd5b833561ffff8116811461583457600080fd5b95602085013595506040909401359392505050565b6000806040838503121561585c57600080fd5b61564d8361568f565b60005b83811015615880578181015183820152602001615868565b50506000910152565b600081518084526158a1816020860160208601615865565b601f01601f19169290920160200192915050565b602081526158cc60208201835163ffffffff169052565b600060208301516104008060408501526158ea610420850183615889565b915060408501516158ff606086018215159052565b5060608501516001600160a01b038116608086015250608085015160a085015260a085015160c085015260c085015161594060e086018263ffffffff169052565b5060e0850151601f1961010081878603018188015261595f8584615796565b94508088015192505061012081878603018188015261597e8584615796565b94508088015192505061014081878603018188015261599d8584615796565b9088015161016088810191909152880151610180808901919091528801516101a0808901919091528801516101c0808901919091528801516101e0808901919091528801516102008089019190915288015161022080890191909152880151610240808901919091528801519094509150610260615a1f8188018460ff169052565b870151610280878101919091528701516102a0808801919091528701516102c0808801919091528701516102e080880191909152870151610300808801919091528701516103208088019190915287015161034080880191909152870151610360808801919091528701516103808088019190915287015186850382016103a080890191909152909250615ab38584615796565b908801516103c0888101919091528801516103e08089019190915290970151929095019190915250929392505050565b60208152815115156020820152600060208301516040808401526141ca6060840182615796565b634e487b7160e01b600052603260045260246000fd5b634e487b7160e01b600052601160045260246000fd5b8181038181111561221857612218615b20565b6020808252601190820152702cb7ba9030b932903737ba1030b236b4b760791b604082015260600190565b600060ff821660ff8103615b8a57615b8a615b20565b60010192915050565b6020808252602c908201527f46756e6374696f6e206d7573742062652063616c6c6564207468726f7567682060408201526b19195b1959d85d1958d85b1b60a21b606082015260800190565b6020808252602c908201527f46756e6374696f6e206d7573742062652063616c6c6564207468726f7567682060408201526b6163746976652070726f787960a01b606082015260800190565b600181811c90821680615c3f57607f821691505b602082108103615c5f57634e487b7160e01b600052602260045260246000fd5b50919050565b600060208284031215615c7757600080fd5b8151801515811461220657600080fd5b808202811582820484141761221857612218615b20565b634e487b7160e01b600052603160045260246000fd5b600060018201615cc657615cc6615b20565b5060010190565b63ffffffff818116838216019080821115615cea57615cea615b20565b5092915050565b600063ffffffff808316818103615d0a57615d0a615b20565b6001019392505050565b8082018082111561221857612218615b20565b600061ffff808316818103615d0a57615d0a615b20565b600060208284031215615d5057600080fd5b5051919050565b600082615d7457634e487b7160e01b600052601260045260246000fd5b500490565b6020808252602b908201527f496e697469616c697a61626c653a20636f6e7472616374206973206e6f74206960408201526a6e697469616c697a696e6760a81b606082015260800190565b60008251615dd6818460208701615865565b9190910192915050565b602081526000612206602083018461588956fe360894a13ba1a3210667c828492db98dca3e2076cc3735a920a3ca505d382bbc416464726573733a206c6f772d6c6576656c2064656c65676174652063616c6c206661696c6564a264697066735822122026f763a8e3cd635b9ed4d42dd9970a930c66a89d63f95a0fe0f3fb96f02bdd9264736f6c63430008110033",
  "linkReferences": {},
  "deployedLinkReferences": {}
}