{
  "_format": "hh-sol-artifact-1",
  "contractName": "ReferralV3HelperFunctions",
  "sourceName": "contracts/ReferralV3HelperFunctions.sol",
  "abi": [
    {
      "inputs": [],
      "stateMutability": "nonpayable",
      "type": "constructor"
    },
    {
      "anonymous": false,
      "inputs": [
        {
          "indexed": false,
          "internalType": "address",
          "name": "previousAdmin",
          "type": "address"
        },
        {
          "indexed": false,
          "internalType": "address",
          "name": "newAdmin",
          "type": "address"
        }
      ],
      "name": "AdminChanged",
      "type": "event"
    },
    {
      "anonymous": false,
      "inputs": [
        {
          "indexed": true,
          "internalType": "address",
          "name": "beacon",
          "type": "address"
        }
      ],
      "name": "BeaconUpgraded",
      "type": "event"
    },
    {
      "anonymous": false,
      "inputs": [
        {
          "indexed": false,
          "internalType": "uint8",
          "name": "version",
          "type": "uint8"
        }
      ],
      "name": "Initialized",
      "type": "event"
    },
    {
      "anonymous": false,
      "inputs": [
        {
          "indexed": true,
          "internalType": "address",
          "name": "previousOwner",
          "type": "address"
        },
        {
          "indexed": true,
          "internalType": "address",
          "name": "newOwner",
          "type": "address"
        }
      ],
      "name": "OwnershipTransferred",
      "type": "event"
    },
    {
      "anonymous": false,
      "inputs": [
        {
          "indexed": false,
          "internalType": "address",
          "name": "account",
          "type": "address"
        }
      ],
      "name": "Paused",
      "type": "event"
    },
    {
      "anonymous": false,
      "inputs": [
        {
          "indexed": false,
          "internalType": "address",
          "name": "account",
          "type": "address"
        }
      ],
      "name": "Unpaused",
      "type": "event"
    },
    {
      "anonymous": false,
      "inputs": [
        {
          "indexed": true,
          "internalType": "address",
          "name": "implementation",
          "type": "address"
        }
      ],
      "name": "Upgraded",
      "type": "event"
    },
    {
      "inputs": [],
      "name": "initialize",
      "outputs": [],
      "stateMutability": "nonpayable",
      "type": "function"
    },
    {
      "inputs": [],
      "name": "owner",
      "outputs": [
        {
          "internalType": "address",
          "name": "",
          "type": "address"
        }
      ],
      "stateMutability": "view",
      "type": "function"
    },
    {
      "inputs": [],
      "name": "pause",
      "outputs": [],
      "stateMutability": "nonpayable",
      "type": "function"
    },
    {
      "inputs": [],
      "name": "paused",
      "outputs": [
        {
          "internalType": "bool",
          "name": "",
          "type": "bool"
        }
      ],
      "stateMutability": "view",
      "type": "function"
    },
    {
      "inputs": [],
      "name": "proxiableUUID",
      "outputs": [
        {
          "internalType": "bytes32",
          "name": "",
          "type": "bytes32"
        }
      ],
      "stateMutability": "view",
      "type": "function"
    },
    {
      "inputs": [],
      "name": "renounceOwnership",
      "outputs": [],
      "stateMutability": "nonpayable",
      "type": "function"
    },
    {
      "inputs": [
        {
          "internalType": "address",
          "name": "newOwner",
          "type": "address"
        }
      ],
      "name": "transferOwnership",
      "outputs": [],
      "stateMutability": "nonpayable",
      "type": "function"
    },
    {
      "inputs": [],
      "name": "unpause",
      "outputs": [],
      "stateMutability": "nonpayable",
      "type": "function"
    },
    {
      "inputs": [
        {
          "internalType": "address",
          "name": "newImplementation",
          "type": "address"
        }
      ],
      "name": "upgradeTo",
      "outputs": [],
      "stateMutability": "nonpayable",
      "type": "function"
    },
    {
      "inputs": [
        {
          "internalType": "address",
          "name": "newImplementation",
          "type": "address"
        },
        {
          "internalType": "bytes",
          "name": "data",
          "type": "bytes"
        }
      ],
      "name": "upgradeToAndCall",
      "outputs": [],
      "stateMutability": "payable",
      "type": "function"
    }
  ],
  "bytecode": "0x60a06040523060805234801561001457600080fd5b5061001d610022565b6100e2565b600054610100900460ff161561008e5760405162461bcd60e51b815260206004820152602760248201527f496e697469616c697a61626c653a20636f6e747261637420697320696e697469604482015266616c697a696e6760c81b606482015260840160405180910390fd5b60005460ff90811610156100e0576000805460ff191660ff9081179091556040519081527f7f26b83ff96e1f2b6a682f133852f6798a09c465da95921460cefb38474024989060200160405180910390a15b565b608051610f51610119600039600081816101bc01528181610205015281816102b6015281816102f601526103890152610f516000f3fe6080604052600436106100915760003560e01c8063715018a611610059578063715018a61461012b5780638129fc1c146101405780638456cb59146101555780638da5cb5b1461016a578063f2fde38b1461019257600080fd5b80633659cfe6146100965780633f4ba83a146100b85780634f1ef286146100cd57806352d1902d146100e05780635c975abb14610108575b600080fd5b3480156100a257600080fd5b506100b66100b1366004610c72565b6101b2565b005b3480156100c457600080fd5b506100b661029a565b6100b66100db366004610ca3565b6102ac565b3480156100ec57600080fd5b506100f561037c565b6040519081526020015b60405180910390f35b34801561011457600080fd5b5060335460ff1660405190151581526020016100ff565b34801561013757600080fd5b506100b661042f565b34801561014c57600080fd5b506100b6610441565b34801561016157600080fd5b506100b6610561565b34801561017657600080fd5b506065546040516001600160a01b0390911681526020016100ff565b34801561019e57600080fd5b506100b66101ad366004610c72565b610571565b6001600160a01b037f00000000000000000000000000000000000000000000000000000000000000001630036102035760405162461bcd60e51b81526004016101fa90610d65565b60405180910390fd5b7f00000000000000000000000000000000000000000000000000000000000000006001600160a01b031661024c600080516020610ed5833981519152546001600160a01b031690565b6001600160a01b0316146102725760405162461bcd60e51b81526004016101fa90610db1565b61027b816105e7565b60408051600080825260208201909252610297918391906105ef565b50565b6102a261075f565b6102aa6107b9565b565b6001600160a01b037f00000000000000000000000000000000000000000000000000000000000000001630036102f45760405162461bcd60e51b81526004016101fa90610d65565b7f00000000000000000000000000000000000000000000000000000000000000006001600160a01b031661033d600080516020610ed5833981519152546001600160a01b031690565b6001600160a01b0316146103635760405162461bcd60e51b81526004016101fa90610db1565b61036c826105e7565b610378828260016105ef565b5050565b6000306001600160a01b037f0000000000000000000000000000000000000000000000000000000000000000161461041c5760405162461bcd60e51b815260206004820152603860248201527f555550535570677261646561626c653a206d757374206e6f742062652063616c60448201527f6c6564207468726f7567682064656c656761746563616c6c000000000000000060648201526084016101fa565b50600080516020610ed583398151915290565b61043761075f565b6102aa600061080b565b600054610100900460ff16158080156104615750600054600160ff909116105b8061047b5750303b15801561047b575060005460ff166001145b6104de5760405162461bcd60e51b815260206004820152602e60248201527f496e697469616c697a61626c653a20636f6e747261637420697320616c72656160448201526d191e481a5b9a5d1a585b1a5e995960921b60648201526084016101fa565b6000805460ff191660011790558015610501576000805461ff0019166101001790555b61050961085d565b61051161088c565b6105196108bb565b8015610297576000805461ff0019169055604051600181527f7f26b83ff96e1f2b6a682f133852f6798a09c465da95921460cefb38474024989060200160405180910390a150565b61056961075f565b6102aa6108e2565b61057961075f565b6001600160a01b0381166105de5760405162461bcd60e51b815260206004820152602660248201527f4f776e61626c653a206e6577206f776e657220697320746865207a65726f206160448201526564647265737360d01b60648201526084016101fa565b6102978161080b565b61029761075f565b7f4910fdfa16fed3260ed0e7147f7cc6da11a60208b5b9406d12a635614ffd91435460ff1615610627576106228361091f565b505050565b826001600160a01b03166352d1902d6040518163ffffffff1660e01b8152600401602060405180830381865afa925050508015610681575060408051601f3d908101601f1916820190925261067e91810190610dfd565b60015b6106e45760405162461bcd60e51b815260206004820152602e60248201527f45524331393637557067726164653a206e657720696d706c656d656e7461746960448201526d6f6e206973206e6f74205555505360901b60648201526084016101fa565b600080516020610ed583398151915281146107535760405162461bcd60e51b815260206004820152602960248201527f45524331393637557067726164653a20756e737570706f727465642070726f786044820152681a58589b195555525160ba1b60648201526084016101fa565b506106228383836109bb565b6065546001600160a01b031633146102aa5760405162461bcd60e51b815260206004820181905260248201527f4f776e61626c653a2063616c6c6572206973206e6f7420746865206f776e657260448201526064016101fa565b6107c16109e6565b6033805460ff191690557f5db9ee0a495bf2e6ff9c91a7834c1ba4fdd244a5e8aa4e537bd38aeae4b073aa335b6040516001600160a01b03909116815260200160405180910390a1565b606580546001600160a01b038381166001600160a01b0319831681179093556040519116919082907f8be0079c531659141344cd1fd0a4f28419497f9722a3daafe3b4186f6b6457e090600090a35050565b600054610100900460ff166108845760405162461bcd60e51b81526004016101fa90610e16565b6102aa610a2f565b600054610100900460ff166108b35760405162461bcd60e51b81526004016101fa90610e16565b6102aa610a62565b600054610100900460ff166102aa5760405162461bcd60e51b81526004016101fa90610e16565b6108ea610a92565b6033805460ff191660011790557f62e78cea01bee320cd4e420270b5ea74000d11b0c9f74754ebdbfc544b05a2586107ee3390565b6001600160a01b0381163b61098c5760405162461bcd60e51b815260206004820152602d60248201527f455243313936373a206e657720696d706c656d656e746174696f6e206973206e60448201526c1bdd08184818dbdb9d1c9858dd609a1b60648201526084016101fa565b600080516020610ed583398151915280546001600160a01b0319166001600160a01b0392909216919091179055565b6109c483610ad8565b6000825111806109d15750805b15610622576109e08383610b18565b50505050565b60335460ff166102aa5760405162461bcd60e51b815260206004820152601460248201527314185d5cd8589b194e881b9bdd081c185d5cd95960621b60448201526064016101fa565b600054610100900460ff16610a565760405162461bcd60e51b81526004016101fa90610e16565b6033805460ff19169055565b600054610100900460ff16610a895760405162461bcd60e51b81526004016101fa90610e16565b6102aa3361080b565b60335460ff16156102aa5760405162461bcd60e51b815260206004820152601060248201526f14185d5cd8589b194e881c185d5cd95960821b60448201526064016101fa565b610ae18161091f565b6040516001600160a01b038216907fbc7cd75a20ee27fd9adebab32041f755214dbc6bffa90cc0225b39da2e5c2d3b90600090a250565b60606001600160a01b0383163b610b805760405162461bcd60e51b815260206004820152602660248201527f416464726573733a2064656c65676174652063616c6c20746f206e6f6e2d636f6044820152651b9d1c9858dd60d21b60648201526084016101fa565b600080846001600160a01b031684604051610b9b9190610e85565b600060405180830381855af49150503d8060008114610bd6576040519150601f19603f3d011682016040523d82523d6000602084013e610bdb565b606091505b5091509150610c038282604051806060016040528060278152602001610ef560279139610c0c565b95945050505050565b60608315610c1b575081610c25565b610c258383610c2c565b9392505050565b815115610c3c5781518083602001fd5b8060405162461bcd60e51b81526004016101fa9190610ea1565b80356001600160a01b0381168114610c6d57600080fd5b919050565b600060208284031215610c8457600080fd5b610c2582610c56565b634e487b7160e01b600052604160045260246000fd5b60008060408385031215610cb657600080fd5b610cbf83610c56565b9150602083013567ffffffffffffffff80821115610cdc57600080fd5b818501915085601f830112610cf057600080fd5b813581811115610d0257610d02610c8d565b604051601f8201601f19908116603f01168101908382118183101715610d2a57610d2a610c8d565b81604052828152886020848701011115610d4357600080fd5b8260208601602083013760006020848301015280955050505050509250929050565b6020808252602c908201527f46756e6374696f6e206d7573742062652063616c6c6564207468726f7567682060408201526b19195b1959d85d1958d85b1b60a21b606082015260800190565b6020808252602c908201527f46756e6374696f6e206d7573742062652063616c6c6564207468726f7567682060408201526b6163746976652070726f787960a01b606082015260800190565b600060208284031215610e0f57600080fd5b5051919050565b6020808252602b908201527f496e697469616c697a61626c653a20636f6e7472616374206973206e6f74206960408201526a6e697469616c697a696e6760a81b606082015260800190565b60005b83811015610e7c578181015183820152602001610e64565b50506000910152565b60008251610e97818460208701610e61565b9190910192915050565b6020815260008251806020840152610ec0816040850160208701610e61565b601f01601f1916919091016040019291505056fe360894a13ba1a3210667c828492db98dca3e2076cc3735a920a3ca505d382bbc416464726573733a206c6f772d6c6576656c2064656c65676174652063616c6c206661696c6564a2646970667358221220a640ba94c9297575b94fc0975af23eb325d7c1fb17476a59bef5e8ec649a09ff64736f6c63430008110033",
  "linkReferences": {},
  "deployedLinkReferences": {}
}