{
  "_format": "hh-sol-artifact-1",
  "contractName": "ReferralV4Upgradeable",
  "sourceName": "contracts/ReferralV4Upgradeable.sol",
  "abi": [
    {
      "anonymous": false,
      "inputs": [
        {
          "indexed": false,
          "internalType": "uint32",
          "name": "id",
          "type": "uint32"
        }
      ],
      "name": "ActivatedId",
      "type": "event"
    },
    {
      "anonymous": false,
      "inputs": [
        {
          "indexed": false,
          "internalType": "uint32",
          "name": "id",
          "type": "uint32"
        },
        {
          "indexed": false,
          "internalType": "uint32",
          "name": "index",
          "type": "uint32"
        },
        {
          "indexed": false,
          "internalType": "uint8",
          "name": "rank",
          "type": "uint8"
        }
      ],
      "name": "AddedInRoyaltyClubList",
      "type": "event"
    },
    {
      "anonymous": false,
      "inputs": [
        {
          "indexed": false,
          "internalType": "address",
          "name": "previousAdmin",
          "type": "address"
        },
        {
          "indexed": false,
          "internalType": "address",
          "name": "newAdmin",
          "type": "address"
        }
      ],
      "name": "AdminChanged",
      "type": "event"
    },
    {
      "anonymous": false,
      "inputs": [
        {
          "indexed": true,
          "internalType": "address",
          "name": "beacon",
          "type": "address"
        }
      ],
      "name": "BeaconUpgraded",
      "type": "event"
    },
    {
      "anonymous": false,
      "inputs": [
        {
          "indexed": false,
          "internalType": "uint32",
          "name": "id",
          "type": "uint32"
        },
        {
          "indexed": false,
          "internalType": "string",
          "name": "reason",
          "type": "string"
        }
      ],
      "name": "DeactivatedId",
      "type": "event"
    },
    {
      "anonymous": false,
      "inputs": [
        {
          "indexed": false,
          "internalType": "uint8",
          "name": "version",
          "type": "uint8"
        }
      ],
      "name": "Initialized",
      "type": "event"
    },
    {
      "anonymous": false,
      "inputs": [
        {
          "indexed": false,
          "internalType": "uint32",
          "name": "id",
          "type": "uint32"
        },
        {
          "indexed": false,
          "internalType": "address",
          "name": "owner",
          "type": "address"
        }
      ],
      "name": "OwnerChangedId",
      "type": "event"
    },
    {
      "anonymous": false,
      "inputs": [
        {
          "indexed": true,
          "internalType": "address",
          "name": "previousOwner",
          "type": "address"
        },
        {
          "indexed": true,
          "internalType": "address",
          "name": "newOwner",
          "type": "address"
        }
      ],
      "name": "OwnershipTransferred",
      "type": "event"
    },
    {
      "anonymous": false,
      "inputs": [
        {
          "indexed": false,
          "internalType": "uint8",
          "name": "packageId",
          "type": "uint8"
        }
      ],
      "name": "PackageAdded",
      "type": "event"
    },
    {
      "anonymous": false,
      "inputs": [
        {
          "indexed": false,
          "internalType": "uint8",
          "name": "packageId",
          "type": "uint8"
        }
      ],
      "name": "PackageRemoved",
      "type": "event"
    },
    {
      "anonymous": false,
      "inputs": [
        {
          "indexed": false,
          "internalType": "uint8",
          "name": "packageId",
          "type": "uint8"
        }
      ],
      "name": "PackageUpdated",
      "type": "event"
    },
    {
      "anonymous": false,
      "inputs": [
        {
          "indexed": true,
          "internalType": "uint32",
          "name": "refererId",
          "type": "uint32"
        },
        {
          "indexed": true,
          "internalType": "uint8",
          "name": "level",
          "type": "uint8"
        },
        {
          "indexed": true,
          "internalType": "string",
          "name": "reason",
          "type": "string"
        }
      ],
      "name": "ReferralNotPaid",
      "type": "event"
    },
    {
      "anonymous": false,
      "inputs": [
        {
          "indexed": true,
          "internalType": "uint32",
          "name": "refereeId",
          "type": "uint32"
        },
        {
          "indexed": true,
          "internalType": "uint32",
          "name": "referrerId",
          "type": "uint32"
        },
        {
          "indexed": true,
          "internalType": "uint256",
          "name": "amount",
          "type": "uint256"
        },
        {
          "indexed": false,
          "internalType": "uint8",
          "name": "level",
          "type": "uint8"
        }
      ],
      "name": "ReferralRewardPaid",
      "type": "event"
    },
    {
      "anonymous": false,
      "inputs": [
        {
          "indexed": true,
          "internalType": "address",
          "name": "refereeId",
          "type": "address"
        },
        {
          "indexed": true,
          "internalType": "address",
          "name": "referrerId",
          "type": "address"
        },
        {
          "indexed": true,
          "internalType": "string",
          "name": "reason",
          "type": "string"
        }
      ],
      "name": "RegisterRefererFailed",
      "type": "event"
    },
    {
      "anonymous": false,
      "inputs": [
        {
          "indexed": true,
          "internalType": "uint32",
          "name": "id",
          "type": "uint32"
        },
        {
          "indexed": true,
          "internalType": "uint32",
          "name": "refererId",
          "type": "uint32"
        }
      ],
      "name": "RegisteredReferer",
      "type": "event"
    },
    {
      "anonymous": false,
      "inputs": [
        {
          "indexed": true,
          "internalType": "uint32",
          "name": "refereeId",
          "type": "uint32"
        },
        {
          "indexed": true,
          "internalType": "uint32",
          "name": "referrerId",
          "type": "uint32"
        },
        {
          "indexed": true,
          "internalType": "uint32",
          "name": "parentAccountId",
          "type": "uint32"
        }
      ],
      "name": "RegisteredTeamAddress",
      "type": "event"
    },
    {
      "anonymous": false,
      "inputs": [
        {
          "indexed": true,
          "internalType": "uint32",
          "name": "userid",
          "type": "uint32"
        },
        {
          "indexed": true,
          "internalType": "uint8",
          "name": "packageId",
          "type": "uint8"
        },
        {
          "indexed": true,
          "internalType": "uint256",
          "name": "amount",
          "type": "uint256"
        }
      ],
      "name": "RoyaltyClubBonusPaid",
      "type": "event"
    },
    {
      "anonymous": false,
      "inputs": [
        {
          "indexed": true,
          "internalType": "address",
          "name": "implementation",
          "type": "address"
        }
      ],
      "name": "Upgraded",
      "type": "event"
    },
    {
      "inputs": [
        {
          "internalType": "uint32",
          "name": "_refererId",
          "type": "uint32"
        }
      ],
      "name": "activateId",
      "outputs": [],
      "stateMutability": "payable",
      "type": "function"
    },
    {
      "inputs": [
        {
          "internalType": "address",
          "name": "_userAddress",
          "type": "address"
        },
        {
          "internalType": "uint32",
          "name": "_refererId",
          "type": "uint32"
        },
        {
          "internalType": "uint256",
          "name": "_valueInUSD",
          "type": "uint256"
        },
        {
          "internalType": "uint256",
          "name": "_activationTime",
          "type": "uint256"
        },
        {
          "internalType": "uint256",
          "name": "_roiStartTime",
          "type": "uint256"
        },
        {
          "internalType": "uint256",
          "name": "_roiResetTime",
          "type": "uint256"
        },
        {
          "internalType": "uint256",
          "name": "_roiDurationInDays",
          "type": "uint256"
        }
      ],
      "name": "activateIdAdmin",
      "outputs": [],
      "stateMutability": "nonpayable",
      "type": "function"
    },
    {
      "inputs": [
        {
          "internalType": "uint32",
          "name": "_id",
          "type": "uint32"
        }
      ],
      "name": "claimBalance",
      "outputs": [],
      "stateMutability": "nonpayable",
      "type": "function"
    },
    {
      "inputs": [],
      "name": "companyTurnoverTimeLimit",
      "outputs": [
        {
          "internalType": "uint256",
          "name": "",
          "type": "uint256"
        }
      ],
      "stateMutability": "view",
      "type": "function"
    },
    {
      "inputs": [],
      "name": "companyTurnoverTimeStamp",
      "outputs": [
        {
          "internalType": "uint256",
          "name": "",
          "type": "uint256"
        }
      ],
      "stateMutability": "view",
      "type": "function"
    },
    {
      "inputs": [],
      "name": "companyTurnoverWithTimeLimit",
      "outputs": [
        {
          "internalType": "uint256",
          "name": "",
          "type": "uint256"
        }
      ],
      "stateMutability": "view",
      "type": "function"
    },
    {
      "inputs": [],
      "name": "decimals",
      "outputs": [
        {
          "internalType": "uint16",
          "name": "",
          "type": "uint16"
        }
      ],
      "stateMutability": "view",
      "type": "function"
    },
    {
      "inputs": [
        {
          "internalType": "address",
          "name": "_userAddress",
          "type": "address"
        }
      ],
      "name": "disableUserAdmin",
      "outputs": [],
      "stateMutability": "nonpayable",
      "type": "function"
    },
    {
      "inputs": [
        {
          "internalType": "uint256",
          "name": "",
          "type": "uint256"
        }
      ],
      "name": "disabledUsersList",
      "outputs": [
        {
          "internalType": "address",
          "name": "",
          "type": "address"
        }
      ],
      "stateMutability": "view",
      "type": "function"
    },
    {
      "inputs": [],
      "name": "futureScureWalletContribution",
      "outputs": [
        {
          "internalType": "uint8",
          "name": "",
          "type": "uint8"
        }
      ],
      "stateMutability": "view",
      "type": "function"
    },
    {
      "inputs": [
        {
          "internalType": "uint8",
          "name": "_packageId",
          "type": "uint8"
        }
      ],
      "name": "getAchieversList",
      "outputs": [
        {
          "internalType": "uint32[]",
          "name": "",
          "type": "uint32[]"
        }
      ],
      "stateMutability": "view",
      "type": "function"
    },
    {
      "inputs": [
        {
          "internalType": "uint32",
          "name": "_id",
          "type": "uint32"
        }
      ],
      "name": "getIdAccount",
      "outputs": [
        {
          "components": [
            {
              "internalType": "uint32",
              "name": "id",
              "type": "uint32"
            },
            {
              "internalType": "string",
              "name": "oldId",
              "type": "string"
            },
            {
              "internalType": "uint256",
              "name": "joiningTime",
              "type": "uint256"
            },
            {
              "internalType": "bool",
              "name": "isAddedToUserList",
              "type": "bool"
            },
            {
              "internalType": "address",
              "name": "owner",
              "type": "address"
            },
            {
              "internalType": "uint32",
              "name": "refererId",
              "type": "uint32"
            },
            {
              "internalType": "bool",
              "name": "hasUpline",
              "type": "bool"
            },
            {
              "internalType": "uint32[]",
              "name": "refereeIds",
              "type": "uint32[]"
            },
            {
              "internalType": "uint32[]",
              "name": "teamIds",
              "type": "uint32[]"
            },
            {
              "internalType": "uint32[]",
              "name": "teamLevel",
              "type": "uint32[]"
            },
            {
              "internalType": "uint256[]",
              "name": "selfBusinessArray",
              "type": "uint256[]"
            },
            {
              "internalType": "uint256",
              "name": "selfBusiness",
              "type": "uint256"
            },
            {
              "internalType": "uint256",
              "name": "selfBusinessOld",
              "type": "uint256"
            },
            {
              "internalType": "uint256",
              "name": "directBusiness",
              "type": "uint256"
            },
            {
              "internalType": "uint256",
              "name": "directBusinessOld",
              "type": "uint256"
            },
            {
              "internalType": "uint256",
              "name": "teamBusiness",
              "type": "uint256"
            },
            {
              "internalType": "uint256",
              "name": "teamBusinessOld",
              "type": "uint256"
            },
            {
              "internalType": "uint256",
              "name": "royaltyClubBusiness",
              "type": "uint256"
            },
            {
              "internalType": "uint256",
              "name": "timeStampRoyaltyClub",
              "type": "uint256"
            },
            {
              "internalType": "uint8",
              "name": "royaltyClubPackageId",
              "type": "uint8"
            },
            {
              "internalType": "uint32",
              "name": "royaltyClubListIndex",
              "type": "uint32"
            },
            {
              "internalType": "uint256",
              "name": "royaltyClubRewardPaid",
              "type": "uint256"
            },
            {
              "internalType": "uint256",
              "name": "topUpIncome",
              "type": "uint256"
            },
            {
              "internalType": "uint256",
              "name": "topUp",
              "type": "uint256"
            },
            {
              "internalType": "uint256",
              "name": "maxLimit",
              "type": "uint256"
            },
            {
              "internalType": "uint256",
              "name": "activationTime",
              "type": "uint256"
            },
            {
              "internalType": "uint256",
              "name": "deactivationTime",
              "type": "uint256"
            },
            {
              "internalType": "uint256",
              "name": "referralPaid",
              "type": "uint256"
            },
            {
              "internalType": "uint32[]",
              "name": "roiIds",
              "type": "uint32[]"
            },
            {
              "internalType": "uint256",
              "name": "roiPaid",
              "type": "uint256"
            },
            {
              "internalType": "uint256",
              "name": "roiClaimedTime",
              "type": "uint256"
            },
            {
              "internalType": "uint256",
              "name": "walletBalance",
              "type": "uint256"
            },
            {
              "internalType": "bool",
              "name": "isActive",
              "type": "bool"
            },
            {
              "internalType": "bool",
              "name": "isROIDisabled",
              "type": "bool"
            },
            {
              "internalType": "bool",
              "name": "isIdVisibilityDisabled",
              "type": "bool"
            },
            {
              "internalType": "bool",
              "name": "canWindraw",
              "type": "bool"
            }
          ],
          "internalType": "struct ReferralV4Upgradeable.StructId",
          "name": "",
          "type": "tuple"
        }
      ],
      "stateMutability": "view",
      "type": "function"
    },
    {
      "inputs": [
        {
          "internalType": "uint32",
          "name": "_id",
          "type": "uint32"
        }
      ],
      "name": "getIdLimits",
      "outputs": [
        {
          "internalType": "uint256",
          "name": "topUpIncome",
          "type": "uint256"
        },
        {
          "internalType": "uint256",
          "name": "topUp",
          "type": "uint256"
        },
        {
          "internalType": "uint256",
          "name": "maxLimit",
          "type": "uint256"
        }
      ],
      "stateMutability": "view",
      "type": "function"
    },
    {
      "inputs": [
        {
          "internalType": "uint32",
          "name": "_id",
          "type": "uint32"
        }
      ],
      "name": "getIdRoyaltyClubLevel",
      "outputs": [
        {
          "internalType": "uint256",
          "name": "",
          "type": "uint256"
        }
      ],
      "stateMutability": "view",
      "type": "function"
    },
    {
      "inputs": [],
      "name": "getMinContributionETH",
      "outputs": [
        {
          "internalType": "uint256",
          "name": "",
          "type": "uint256"
        }
      ],
      "stateMutability": "view",
      "type": "function"
    },
    {
      "inputs": [
        {
          "internalType": "uint8",
          "name": "_packageId",
          "type": "uint8"
        }
      ],
      "name": "getRoyaltyClubPackageInfo",
      "outputs": [
        {
          "components": [
            {
              "internalType": "uint8",
              "name": "packageId",
              "type": "uint8"
            },
            {
              "internalType": "uint256",
              "name": "selfBusiness",
              "type": "uint256"
            },
            {
              "internalType": "uint256",
              "name": "directBusiness",
              "type": "uint256"
            },
            {
              "internalType": "uint256",
              "name": "teamBusiness",
              "type": "uint256"
            },
            {
              "internalType": "string",
              "name": "rankName",
              "type": "string"
            },
            {
              "internalType": "uint256",
              "name": "reward",
              "type": "uint256"
            },
            {
              "internalType": "uint256",
              "name": "businessLimit",
              "type": "uint256"
            },
            {
              "internalType": "uint256",
              "name": "timeLimit",
              "type": "uint256"
            },
            {
              "internalType": "bool",
              "name": "isPayReccursive",
              "type": "bool"
            },
            {
              "internalType": "uint32[]",
              "name": "achieversList",
              "type": "uint32[]"
            }
          ],
          "internalType": "struct ReferralV4Upgradeable.StructPackages",
          "name": "",
          "type": "tuple"
        }
      ],
      "stateMutability": "view",
      "type": "function"
    },
    {
      "inputs": [
        {
          "internalType": "address",
          "name": "_address",
          "type": "address"
        }
      ],
      "name": "getUserAccount",
      "outputs": [
        {
          "components": [
            {
              "internalType": "bool",
              "name": "isActive",
              "type": "bool"
            },
            {
              "internalType": "uint32[]",
              "name": "accountIds",
              "type": "uint32[]"
            },
            {
              "internalType": "string",
              "name": "userName",
              "type": "string"
            }
          ],
          "internalType": "struct ReferralV4Upgradeable.StructAccount",
          "name": "",
          "type": "tuple"
        }
      ],
      "stateMutability": "view",
      "type": "function"
    },
    {
      "inputs": [
        {
          "internalType": "uint32",
          "name": "_id",
          "type": "uint32"
        },
        {
          "internalType": "uint256",
          "name": "_valueInDecimals",
          "type": "uint256"
        }
      ],
      "name": "increaseBalanceAdmin",
      "outputs": [],
      "stateMutability": "nonpayable",
      "type": "function"
    },
    {
      "inputs": [
        {
          "internalType": "uint32",
          "name": "_id",
          "type": "uint32"
        },
        {
          "internalType": "uint256",
          "name": "_value",
          "type": "uint256"
        }
      ],
      "name": "increaseIdTopIncome",
      "outputs": [],
      "stateMutability": "nonpayable",
      "type": "function"
    },
    {
      "inputs": [],
      "name": "initialize",
      "outputs": [],
      "stateMutability": "nonpayable",
      "type": "function"
    },
    {
      "inputs": [],
      "name": "isActivateROI",
      "outputs": [
        {
          "internalType": "bool",
          "name": "",
          "type": "bool"
        }
      ],
      "stateMutability": "view",
      "type": "function"
    },
    {
      "inputs": [],
      "name": "isPayReferral",
      "outputs": [
        {
          "internalType": "bool",
          "name": "",
          "type": "bool"
        }
      ],
      "stateMutability": "view",
      "type": "function"
    },
    {
      "inputs": [],
      "name": "isPayRoyaltyClubBonus",
      "outputs": [
        {
          "internalType": "bool",
          "name": "",
          "type": "bool"
        }
      ],
      "stateMutability": "view",
      "type": "function"
    },
    {
      "inputs": [
        {
          "internalType": "uint256",
          "name": "",
          "type": "uint256"
        }
      ],
      "name": "levelRates",
      "outputs": [
        {
          "internalType": "uint16",
          "name": "",
          "type": "uint16"
        }
      ],
      "stateMutability": "view",
      "type": "function"
    },
    {
      "inputs": [],
      "name": "maxLevels",
      "outputs": [
        {
          "internalType": "uint8",
          "name": "",
          "type": "uint8"
        }
      ],
      "stateMutability": "view",
      "type": "function"
    },
    {
      "inputs": [],
      "name": "minContributionUSD",
      "outputs": [
        {
          "internalType": "uint256",
          "name": "",
          "type": "uint256"
        }
      ],
      "stateMutability": "view",
      "type": "function"
    },
    {
      "inputs": [],
      "name": "owner",
      "outputs": [
        {
          "internalType": "address",
          "name": "",
          "type": "address"
        }
      ],
      "stateMutability": "view",
      "type": "function"
    },
    {
      "inputs": [],
      "name": "packagesCount",
      "outputs": [
        {
          "internalType": "uint8",
          "name": "",
          "type": "uint8"
        }
      ],
      "stateMutability": "view",
      "type": "function"
    },
    {
      "inputs": [
        {
          "internalType": "uint256",
          "name": "_value",
          "type": "uint256"
        },
        {
          "internalType": "uint32",
          "name": "_id",
          "type": "uint32"
        }
      ],
      "name": "payReferralAdmin",
      "outputs": [],
      "stateMutability": "nonpayable",
      "type": "function"
    },
    {
      "inputs": [],
      "name": "proxiableUUID",
      "outputs": [
        {
          "internalType": "bytes32",
          "name": "",
          "type": "bytes32"
        }
      ],
      "stateMutability": "view",
      "type": "function"
    },
    {
      "inputs": [],
      "name": "renounceOwnership",
      "outputs": [],
      "stateMutability": "nonpayable",
      "type": "function"
    },
    {
      "inputs": [],
      "name": "royaltyClubPackageCount",
      "outputs": [
        {
          "internalType": "uint8",
          "name": "",
          "type": "uint8"
        }
      ],
      "stateMutability": "view",
      "type": "function"
    },
    {
      "inputs": [
        {
          "internalType": "address",
          "name": "_address",
          "type": "address"
        },
        {
          "internalType": "uint256",
          "name": "_value",
          "type": "uint256"
        }
      ],
      "name": "sendETHAdmin",
      "outputs": [],
      "stateMutability": "nonpayable",
      "type": "function"
    },
    {
      "inputs": [
        {
          "internalType": "uint16",
          "name": "_value",
          "type": "uint16"
        }
      ],
      "name": "setLevelDecimals",
      "outputs": [],
      "stateMutability": "nonpayable",
      "type": "function"
    },
    {
      "inputs": [
        {
          "internalType": "uint8[]",
          "name": "_value",
          "type": "uint8[]"
        }
      ],
      "name": "setLevelRates",
      "outputs": [],
      "stateMutability": "nonpayable",
      "type": "function"
    },
    {
      "inputs": [
        {
          "internalType": "uint8",
          "name": "_valueDecimals",
          "type": "uint8"
        }
      ],
      "name": "setMaxLevelsAdmin",
      "outputs": [],
      "stateMutability": "nonpayable",
      "type": "function"
    },
    {
      "inputs": [
        {
          "internalType": "uint256",
          "name": "_valueInUSD",
          "type": "uint256"
        }
      ],
      "name": "setMinContribution",
      "outputs": [],
      "stateMutability": "nonpayable",
      "type": "function"
    },
    {
      "inputs": [
        {
          "internalType": "uint8",
          "name": "packageId",
          "type": "uint8"
        },
        {
          "internalType": "uint256",
          "name": "selfBusiness",
          "type": "uint256"
        },
        {
          "internalType": "uint256",
          "name": "directBusiness",
          "type": "uint256"
        },
        {
          "internalType": "uint256",
          "name": "teamBusiness",
          "type": "uint256"
        },
        {
          "internalType": "string",
          "name": "rankName",
          "type": "string"
        },
        {
          "internalType": "uint256",
          "name": "reward",
          "type": "uint256"
        },
        {
          "internalType": "uint256",
          "name": "businessLimit",
          "type": "uint256"
        },
        {
          "internalType": "uint256",
          "name": "timeLimit",
          "type": "uint256"
        },
        {
          "internalType": "bool",
          "name": "isPayReccursive",
          "type": "bool"
        }
      ],
      "name": "setRoyaltyClubPackage",
      "outputs": [],
      "stateMutability": "nonpayable",
      "type": "function"
    },
    {
      "inputs": [
        {
          "internalType": "uint8",
          "name": "_valueDecimals",
          "type": "uint8"
        }
      ],
      "name": "setRoyaltyPackageCount",
      "outputs": [],
      "stateMutability": "nonpayable",
      "type": "function"
    },
    {
      "inputs": [
        {
          "internalType": "uint32",
          "name": "_id",
          "type": "uint32"
        }
      ],
      "name": "topUpId",
      "outputs": [],
      "stateMutability": "payable",
      "type": "function"
    },
    {
      "inputs": [],
      "name": "totalIds",
      "outputs": [
        {
          "internalType": "uint32",
          "name": "",
          "type": "uint32"
        }
      ],
      "stateMutability": "view",
      "type": "function"
    },
    {
      "inputs": [],
      "name": "totalReferralPaid",
      "outputs": [
        {
          "internalType": "uint256",
          "name": "",
          "type": "uint256"
        }
      ],
      "stateMutability": "view",
      "type": "function"
    },
    {
      "inputs": [],
      "name": "totalRoyaltyClubBonusPaid",
      "outputs": [
        {
          "internalType": "uint256",
          "name": "",
          "type": "uint256"
        }
      ],
      "stateMutability": "view",
      "type": "function"
    },
    {
      "inputs": [
        {
          "internalType": "address",
          "name": "newOwner",
          "type": "address"
        }
      ],
      "name": "transferOwnership",
      "outputs": [],
      "stateMutability": "nonpayable",
      "type": "function"
    },
    {
      "inputs": [
        {
          "internalType": "uint32",
          "name": "_id",
          "type": "uint32"
        },
        {
          "internalType": "uint256",
          "name": "_value",
          "type": "uint256"
        }
      ],
      "name": "updateIdWhenClaimROI",
      "outputs": [],
      "stateMutability": "nonpayable",
      "type": "function"
    },
    {
      "inputs": [
        {
          "internalType": "uint32",
          "name": "_value",
          "type": "uint32"
        }
      ],
      "name": "updateTotalIds",
      "outputs": [],
      "stateMutability": "nonpayable",
      "type": "function"
    },
    {
      "inputs": [
        {
          "internalType": "address",
          "name": "newImplementation",
          "type": "address"
        }
      ],
      "name": "upgradeTo",
      "outputs": [],
      "stateMutability": "nonpayable",
      "type": "function"
    },
    {
      "inputs": [
        {
          "internalType": "address",
          "name": "newImplementation",
          "type": "address"
        },
        {
          "internalType": "bytes",
          "name": "data",
          "type": "bytes"
        }
      ],
      "name": "upgradeToAndCall",
      "outputs": [],
      "stateMutability": "payable",
      "type": "function"
    },
    {
      "inputs": [
        {
          "internalType": "uint256",
          "name": "",
          "type": "uint256"
        }
      ],
      "name": "users",
      "outputs": [
        {
          "internalType": "address",
          "name": "",
          "type": "address"
        }
      ],
      "stateMutability": "view",
      "type": "function"
    },
    {
      "inputs": [],
      "name": "withdrawETHAdmin",
      "outputs": [],
      "stateMutability": "nonpayable",
      "type": "function"
    },
    {
      "inputs": [
        {
          "internalType": "address",
          "name": "_tokenAddress",
          "type": "address"
        },
        {
          "internalType": "uint256",
          "name": "_value",
          "type": "uint256"
        }
      ],
      "name": "withdrawTokensAdmin",
      "outputs": [],
      "stateMutability": "nonpayable",
      "type": "function"
    },
    {
      "stateMutability": "payable",
      "type": "receive"
    }
  ],
  "bytecode": "0x60a06040523060805234801561001457600080fd5b50608051615f936200004d600039600081816113cf0152818161140f01528181611b3601528181611b760152611cfd0152615f936000f3fe6080604052600436106102e85760003560e01c80636f38e410116101905780639f4e8398116100dc578063cd21364d11610095578063f396673c1161006f578063f396673c146108f4578063f41bfeef14610914578063fafc95971461092a578063fb47e0161461094c57600080fd5b8063cd21364d14610894578063e1c715ba146108b4578063f2fde38b146108d457600080fd5b80639f4e8398146107eb578063a0b6105f1461080b578063a152b0f01461082b578063a28a36861461083e578063a43ae40814610861578063bcb93f9b1461088157600080fd5b80637cf97c8c116101495780638af925dc116101235780638af925dc1461077d5780638da5cb5b146107975780638f84de85146107b5578063987dd4a7146107cb57600080fd5b80637cf97c8c146107325780638129fc1c14610752578063852ff2fd1461076757600080fd5b80636f38e4101461066b5780637084431f1461068b578063715018a6146106ba5780637879b5ef146106cf5780637bdbf996146106ef5780637c5994861461071c57600080fd5b8063365b98b21161024f5780634b5102b811610208578063509d6c52116101e2578063509d6c52146105f657806352d1902d146106165780635979369a1461062b5780636ccc10ae1461064b57600080fd5b80634b5102b8146105885780634e6e93a3146105a85780634f1ef286146105e357600080fd5b8063365b98b2146104b6578063390a5ba5146104d65780633eff2def14610508578063473b0d4614610528578063498b3e55146105485780634a7508221461056857600080fd5b806322f88b52116102a157806322f88b52146104075780632ed421d21461041d578063300825b514610433578063313ce5671461045357806335759788146104815780633659cfe61461049657600080fd5b8063012da720146102f45780630b243dad1461032a5780631319cff91461034c57806318e10bff146103845780631f9e65e4146103b757806321009789146103da57600080fd5b366102ef57005b600080fd5b34801561030057600080fd5b5061031461030f3660046152c0565b610979565b60405161032191906152db565b60405180910390f35b34801561033657600080fd5b5061034a61034536600461533a565b610a0e565b005b34801561035857600080fd5b5061036c610367366004615366565b610a51565b6040516001600160a01b039091168152602001610321565b34801561039057600080fd5b5060d5546103a5906301000000900460ff1681565b60405160ff9091168152602001610321565b3480156103c357600080fd5b506103cc610a7b565b604051908152602001610321565b3480156103e657600080fd5b506103fa6103f5366004615391565b610a8d565b604051610321919061546f565b34801561041357600080fd5b506103cc60d05481565b34801561042957600080fd5b506103cc60d15481565b34801561043f57600080fd5b5061034a61044e366004615391565b61106e565b34801561045f57600080fd5b5060cb5461046e9061ffff1681565b60405161ffff9091168152602001610321565b34801561048d57600080fd5b5061034a61138e565b3480156104a257600080fd5b5061034a6104b1366004615707565b6113c5565b3480156104c257600080fd5b5061036c6104d1366004615366565b6114a1565b3480156104e257600080fd5b5060cf546104f39063ffffffff1681565b60405163ffffffff9091168152602001610321565b34801561051457600080fd5b5061034a6105233660046152c0565b6114b1565b34801561053457600080fd5b5061034a610543366004615366565b6114d7565b34801561055457600080fd5b5061034a610563366004615724565b6114e4565b34801561057457600080fd5b5061034a6105833660046157f9565b61158a565b34801561059457600080fd5b5061034a6105a33660046152c0565b61163a565b3480156105b457600080fd5b506105c86105c3366004615391565b611662565b60408051938452602084019290925290820152606001610321565b61034a6105f13660046158a6565b611b2c565b34801561060257600080fd5b5061034a61061136600461590a565b611bf8565b34801561062257600080fd5b506103cc611cf0565b34801561063757600080fd5b5061034a610646366004615391565b611da3565b34801561065757600080fd5b5061034a61066636600461590a565b611e47565b34801561067757600080fd5b5060cb546103a59062010000900460ff1681565b34801561069757600080fd5b5060d5546106aa90610100900460ff1681565b6040519015158152602001610321565b3480156106c657600080fd5b5061034a611eee565b3480156106db57600080fd5b5061046e6106ea366004615366565b611f02565b3480156106fb57600080fd5b5061070f61070a3660046152c0565b611f3a565b6040516103219190615928565b34801561072857600080fd5b506103cc60ce5481565b34801561073e57600080fd5b5061034a61074d3660046159d6565b612139565b34801561075e57600080fd5b5061034a612408565b34801561077357600080fd5b506103cc60cd5481565b34801561078957600080fd5b5060d5546106aa9060ff1681565b3480156107a357600080fd5b506033546001600160a01b031661036c565b3480156107c157600080fd5b506103cc60cc5481565b3480156107d757600080fd5b506103cc6107e6366004615391565b6126a0565b3480156107f757600080fd5b5061034a610806366004615707565b612b5f565b34801561081757600080fd5b5061034a61082636600461533a565b612c08565b61034a610839366004615391565b612c81565b34801561084a57600080fd5b5060cf546103a59065010000000000900460ff1681565b34801561086d57600080fd5b5061034a61087c366004615a38565b612f19565b61034a61088f366004615391565b612f39565b3480156108a057600080fd5b5060d5546103a59062010000900460ff1681565b3480156108c057600080fd5b5061034a6108cf366004615a5c565b6131d2565b3480156108e057600080fd5b5061034a6108ef366004615707565b6131e6565b34801561090057600080fd5b5061034a61090f36600461590a565b61325c565b34801561092057600080fd5b506103cc60d25481565b34801561093657600080fd5b5060cf546106aa90640100000000900460ff1681565b34801561095857600080fd5b5061096c610967366004615707565b613327565b6040516103219190615ad1565b60ff8116600090815260d86020908152604091829020600901805483518184028101840190945280845260609392830182828015610a0257602002820191906000526020600020906000905b82829054906101000a900463ffffffff1663ffffffff16815260200190600401906020826003010492830192600103820291508084116109c55790505b50505050509050919050565b610a1661348d565b6040516001600160a01b0383169082156108fc029083906000818181858888f19350505050158015610a4c573d6000803e3d6000fd5b505050565b60d38181548110610a6157600080fd5b6000918252602090912001546001600160a01b0316905081565b6000610a8860cc546134e7565b905090565b610bc3604051806104800160405280600063ffffffff168152602001606081526020016000815260200160001515815260200160006001600160a01b03168152602001600063ffffffff168152602001600015158152602001606081526020016060815260200160608152602001606081526020016000815260200160008152602001600081526020016000815260200160008152602001600081526020016000815260200160008152602001600060ff168152602001600063ffffffff16815260200160008152602001600081526020016000815260200160008152602001600081526020016000815260200160008152602001606081526020016000815260200160008152602001600081526020016000151581526020016000151581526020016000151581526020016000151581525090565b63ffffffff808316600090815260d76020908152604091829020825161048081019093528054909316825260018301805492939291840191610c0490615b16565b80601f0160208091040260200160405190810160405280929190818152602001828054610c3090615b16565b8015610c7d5780601f10610c5257610100808354040283529160200191610c7d565b820191906000526020600020905b815481529060010190602001808311610c6057829003601f168201915b50505091835250506002820154602080830191909152600383015460ff80821615156040808601919091526001600160a01b03610100840416606086015263ffffffff600160a81b8404166080860152600160c81b90920416151560a084015260048401805482518185028101850190935280835260c0909401939192909190830182828015610d5857602002820191906000526020600020906000905b82829054906101000a900463ffffffff1663ffffffff1681526020019060040190602082600301049283019260010382029150808411610d1b5790505b5050505050815260200160058201805480602002602001604051908101604052809291908181526020018280548015610ddc57602002820191906000526020600020906000905b82829054906101000a900463ffffffff1663ffffffff1681526020019060040190602082600301049283019260010382029150808411610d9f5790505b5050505050815260200160068201805480602002602001604051908101604052809291908181526020018280548015610e6057602002820191906000526020600020906000905b82829054906101000a900463ffffffff1663ffffffff1681526020019060040190602082600301049283019260010382029150808411610e235790505b5050505050815260200160078201805480602002602001604051908101604052809291908181526020018280548015610eb857602002820191906000526020600020905b815481526020019060010190808311610ea4575b505050918352505060088201546020808301919091526009830154604080840191909152600a8401546060840152600b8401546080840152600c84015460a0840152600d84015460c0840152600e84015460e0840152600f84015461010080850191909152601085015460ff81166101208601520463ffffffff166101408401526011840154610160840152601284015461018084015260138401546101a084015260148401546101c084015260158401546101e08401526016840154610200840152601784015461022084015260188401805482518185028101850190935280835261024090940193919290919083018282801561100257602002820191906000526020600020906000905b82829054906101000a900463ffffffff1663ffffffff1681526020019060040190602082600301049283019260010382029150808411610fc55790505b505050918352505060198201546020820152601a8201546040820152601b8201546060820152601c9091015460ff8082161515608084015261010082048116151560a08401526201000082048116151560c0840152630100000090910416151560e09091015292915050565b63ffffffff8116600090815260d760205260409081902060c9549151630935e01b60e21b815233600482015290916001600160a01b0316906324d7806c90602401602060405180830381865afa1580156110cc573d6000803e3d6000fd5b505050506040513d601f19601f820116820180604052508101906110f09190615b50565b61122f57600381015461010090046001600160a01b0316331461115a5760405162461bcd60e51b815260206004820152601d60248201527f596f7520617265206e6f74206f776e6572206f6620746869732069642e00000060448201526064015b60405180910390fd5b678ac7230489e8000081601b015410156111c25760405162461bcd60e51b8152602060048201526024808201527f42616c616e6365206973206c657373207468616e206d696e20776974686472616044820152633bb0b61760e11b6064820152608401611151565b601c8101546301000000900460ff1661122f5760405162461bcd60e51b815260206004820152602960248201527f54686973206964207769746864726177206973206e6f7420656e61626c656420604482015268313c9030b236b4b71760b91b6064820152608401611151565b601b81015460d5546000906064906112509062010000900460ff1684615b83565b61125a9190615b9a565b905060c960009054906101000a90046001600160a01b03166001600160a01b031662f9cc666040518163ffffffff1660e01b8152600401602060405180830381865afa1580156112ae573d6000803e3d6000fd5b505050506040513d601f19601f820116820180604052508101906112d29190615bbc565b6003840154604051633528777d60e11b81526001600160a01b036101009092048216600482015260248101849052911690636a50eefa90604401600060405180830381600087803b15801561132657600080fd5b505af115801561133a573d6000803e3d6000fd5b503392506108fc915061135790506113528486615bd9565b6134e7565b6040518115909202916000818181858888f1935050505015801561137f573d6000803e3d6000fd5b5082601b016000905550505050565b61139661348d565b60405133904780156108fc02916000818181858888f193505050501580156113c2573d6000803e3d6000fd5b50565b6001600160a01b037f000000000000000000000000000000000000000000000000000000000000000016300361140d5760405162461bcd60e51b815260040161115190615bec565b7f00000000000000000000000000000000000000000000000000000000000000006001600160a01b0316611456600080516020615f17833981519152546001600160a01b031690565b6001600160a01b03161461147c5760405162461bcd60e51b815260040161115190615c38565b611485816135e5565b604080516000808252602082019092526113c2918391906135ed565b60d48181548110610a6157600080fd5b6114b961348d565b60cb805460ff909216620100000262ff000019909216919091179055565b6114df61348d565b60cc55565b60c954604051630935e01b60e21b81523360048201526001600160a01b03909116906324d7806c90602401602060405180830381865afa15801561152c573d6000803e3d6000fd5b505050506040513d601f19601f820116820180604052508101906115509190615b50565b61156c5760405162461bcd60e51b815260040161115190615c84565b60d554610100900460ff1615611586576115868282613758565b5050565b61159261348d565b60ff8916600081815260d860205260409020805460ff19169091178155600181018990556002810188905560038101879055600481016115d28782615cfe565b5060058101859055600681018490556007810183905560088101805460ff191683151517905560405160ff8b1681527f9a2f17868083013e19d4c26d2af13543606bc680c21c994d7648d3a0510164c99060200160405180910390a150505050505050505050565b61164261348d565b60d5805460ff90921663010000000263ff00000019909216919091179055565b63ffffffff808216600090815260d7602090815260408083208151610480810190925280549094168152600184018054939485948594859493908401916116a890615b16565b80601f01602080910402602001604051908101604052809291908181526020018280546116d490615b16565b80156117215780601f106116f657610100808354040283529160200191611721565b820191906000526020600020905b81548152906001019060200180831161170457829003601f168201915b50505091835250506002820154602080830191909152600383015460ff80821615156040808601919091526001600160a01b03610100840416606086015263ffffffff600160a81b8404166080860152600160c81b90920416151560a084015260048401805482518185028101850190935280835260c09094019391929091908301828280156117fc57602002820191906000526020600020906000905b82829054906101000a900463ffffffff1663ffffffff16815260200190600401906020826003010492830192600103820291508084116117bf5790505b505050505081526020016005820180548060200260200160405190810160405280929190818152602001828054801561188057602002820191906000526020600020906000905b82829054906101000a900463ffffffff1663ffffffff16815260200190600401906020826003010492830192600103820291508084116118435790505b505050505081526020016006820180548060200260200160405190810160405280929190818152602001828054801561190457602002820191906000526020600020906000905b82829054906101000a900463ffffffff1663ffffffff16815260200190600401906020826003010492830192600103820291508084116118c75790505b505050505081526020016007820180548060200260200160405190810160405280929190818152602001828054801561195c57602002820191906000526020600020905b815481526020019060010190808311611948575b505050918352505060088201546020808301919091526009830154604080840191909152600a8401546060840152600b8401546080840152600c84015460a0840152600d84015460c0840152600e84015460e0840152600f84015461010080850191909152601085015460ff81166101208601520463ffffffff166101408401526011840154610160840152601284015461018084015260138401546101a084015260148401546101c084015260158401546101e084015260168401546102008401526017840154610220840152601884018054825181850281018501909352808352610240909401939192909190830182828015611aa657602002820191906000526020600020906000905b82829054906101000a900463ffffffff1663ffffffff1681526020019060040190602082600301049283019260010382029150808411611a695790505b505050918352505060198201546020820152601a8201546040820152601b8201546060820152601c9091015460ff8082161515608084015261010082048116151560a08401526201000082048116151560c0840152630100000090910416151560e0909101526102c08101516102e0820151610300909201519097919650945092505050565b6001600160a01b037f0000000000000000000000000000000000000000000000000000000000000000163003611b745760405162461bcd60e51b815260040161115190615bec565b7f00000000000000000000000000000000000000000000000000000000000000006001600160a01b0316611bbd600080516020615f17833981519152546001600160a01b031690565b6001600160a01b031614611be35760405162461bcd60e51b815260040161115190615c38565b611bec826135e5565b611586828260016135ed565b60c954604051630935e01b60e21b81523360048201526001600160a01b03909116906324d7806c90602401602060405180830381865afa158015611c40573d6000803e3d6000fd5b505050506040513d601f19601f82011682018060405250810190611c649190615b50565b611c805760405162461bcd60e51b815260040161115190615c84565b63ffffffff8216600090815260d76020526040812042601a82015560198101805491928492611cb0908490615dbe565b9250508190555081816012016000828254611ccb9190615dbe565b925050819055508181601b016000828254611ce69190615dbe565b9091555050505050565b6000306001600160a01b037f00000000000000000000000000000000000000000000000000000000000000001614611d905760405162461bcd60e51b815260206004820152603860248201527f555550535570677261646561626c653a206d757374206e6f742062652063616c60448201527f6c6564207468726f7567682064656c656761746563616c6c00000000000000006064820152608401611151565b50600080516020615f1783398151915290565b60c954604051630935e01b60e21b81523360048201526001600160a01b03909116906324d7806c90602401602060405180830381865afa158015611deb573d6000803e3d6000fd5b505050506040513d601f19601f82011682018060405250810190611e0f9190615b50565b611e2b5760405162461bcd60e51b815260040161115190615c84565b60cf805463ffffffff191663ffffffff92909216919091179055565b60c954604051630935e01b60e21b81523360048201526001600160a01b03909116906324d7806c90602401602060405180830381865afa158015611e8f573d6000803e3d6000fd5b505050506040513d601f19601f82011682018060405250810190611eb39190615b50565b611ecf5760405162461bcd60e51b815260040161115190615c84565b63ffffffff8216600090815260d760205260409020610a4c8183613e8f565b611ef661348d565b611f006000613f19565b565b60ca8181548110611f1257600080fd5b9060005260206000209060109182820401919006600202915054906101000a900461ffff1681565b611f95604051806101400160405280600060ff16815260200160008152602001600081526020016000815260200160608152602001600081526020016000815260200160008152602001600015158152602001606081525090565b60ff808316600090815260d860209081526040918290208251610140810184528154909416845260018101549184019190915260028101549183019190915260038101546060830152600481018054608084019190611ff390615b16565b80601f016020809104026020016040519081016040528092919081815260200182805461201f90615b16565b801561206c5780601f106120415761010080835404028352916020019161206c565b820191906000526020600020905b81548152906001019060200180831161204f57829003601f168201915b505050505081526020016005820154815260200160068201548152602001600782015481526020016008820160009054906101000a900460ff161515151581526020016009820180548060200260200160405190810160405280929190818152602001828054801561212957602002820191906000526020600020906000905b82829054906101000a900463ffffffff1663ffffffff16815260200190600401906020826003010492830192600103820291508084116120ec5790505b5050505050815250509050919050565b60c954604051630935e01b60e21b81523360048201526001600160a01b03909116906324d7806c90602401602060405180830381865afa158015612181573d6000803e3d6000fd5b505050506040513d601f19601f820116820180604052508101906121a59190615b50565b6121c15760405162461bcd60e51b815260040161115190615c84565b60cf546000906121d89063ffffffff166001615dd1565b6001600160a01b038916600090815260d66020908152604080832063ffffffff8516845260d79092529091209192509061222e818b858c8c61221b816003615b83565b60cb548e9062010000900460ff16613f6b565b60d55460ff161561238d5760c954604080516344846f9d60e11b815290516000926001600160a01b031691638908df3a9160048083019260209291908290030181865afa158015612283573d6000803e3d6000fd5b505050506040513d601f19601f820116820180604052508101906122a79190615bbc565b6001600160a01b031663d275f14e858b8a8a6122c68b62015180615b83565b6040516001600160e01b031960e088901b16815263ffffffff959095166004860152602485019390935260448401919091526064830152608482015260a4016020604051808303816000875af1158015612324573d6000803e3d6000fd5b505050506040513d601f19601f820116820180604052508101906123489190615df5565b601883018054600181018255600091825260209091206008820401805460079092166004026101000a63ffffffff818102199093169390921691909102919091179055505b6001828101805491820181556000908152602081206008830401805460079093166004026101000a63ffffffff818102199094168785169190910217905560cf805490921691906123dd83615e12565b91906101000a81548163ffffffff021916908363ffffffff1602179055505050505050505050505050565b600054610100900460ff16158080156124285750600054600160ff909116105b806124425750303b158015612442575060005460ff166001145b6124a55760405162461bcd60e51b815260206004820152602e60248201527f496e697469616c697a61626c653a20636f6e747261637420697320616c72656160448201526d191e481a5b9a5d1a585b1a5e995960921b6064820152608401611151565b6000805460ff1916600117905580156124c8576000805461ff0019166101001790555b60c980546001600160a01b031916730b8bf5feb9fca57d9c5d27185ddf3017e99a2d3617905560cb805461ffff19166103e8179055604080516103a08101825260648152604660208201526032918101829052606081018290526080810182905260a0810182905260c0810182905260e08101829052610100810182905261012081018290526101408101829052610160810182905261018081018290526101a081018290526101c081018290526101e08101829052610200810182905261022081018290526102408101919091526014610260820181905261028082018190526102a082018190526102c082018190526102e0820181905261030082018190526103208201819052610340820181905261036082018190526103808201526125f59060ca90601d6150e5565b5060cb805462ff000019166232000017905568056bc75e2d6310000060cc5560cf8054660200000000000066ff00ff000000001990911617905560d5805462278d0060d25562ffffff19166214010117905561264f61428e565b6126576142bd565b80156113c2576000805461ff0019169055604051600181527f7f26b83ff96e1f2b6a682f133852f6798a09c465da95921460cefb3847402498906020015b60405180910390a150565b63ffffffff808216600090815260d7602090815260408083208151610480810190925280549094168152600184018054939485949293909290840191906126e690615b16565b80601f016020809104026020016040519081016040528092919081815260200182805461271290615b16565b801561275f5780601f106127345761010080835404028352916020019161275f565b820191906000526020600020905b81548152906001019060200180831161274257829003601f168201915b50505091835250506002820154602080830191909152600383015460ff80821615156040808601919091526001600160a01b03610100840416606086015263ffffffff600160a81b8404166080860152600160c81b90920416151560a084015260048401805482518185028101850190935280835260c090940193919290919083018282801561283a57602002820191906000526020600020906000905b82829054906101000a900463ffffffff1663ffffffff16815260200190600401906020826003010492830192600103820291508084116127fd5790505b50505050508152602001600582018054806020026020016040519081016040528092919081815260200182805480156128be57602002820191906000526020600020906000905b82829054906101000a900463ffffffff1663ffffffff16815260200190600401906020826003010492830192600103820291508084116128815790505b505050505081526020016006820180548060200260200160405190810160405280929190818152602001828054801561294257602002820191906000526020600020906000905b82829054906101000a900463ffffffff1663ffffffff16815260200190600401906020826003010492830192600103820291508084116129055790505b505050505081526020016007820180548060200260200160405190810160405280929190818152602001828054801561299a57602002820191906000526020600020905b815481526020019060010190808311612986575b505050918352505060088201546020808301919091526009830154604080840191909152600a8401546060840152600b8401546080840152600c84015460a0840152600d84015460c0840152600e84015460e0840152600f84015461010080850191909152601085015460ff81166101208601520463ffffffff166101408401526011840154610160840152601284015461018084015260138401546101a084015260148401546101c084015260158401546101e084015260168401546102008401526017840154610220840152601884018054825181850281018501909352808352610240909401939192909190830182828015612ae457602002820191906000526020600020906000905b82829054906101000a900463ffffffff1663ffffffff1681526020019060040190602082600301049283019260010382029150808411612aa75790505b505050918352505060198201546020820152601a8201546040820152601b8201546060820152601c9091015460ff8082161515608084015261010082048116151560a08401526201000082048116151560c0840152630100000090910416151560e0909101529050612b55816142e4565b60ff169392505050565b60c954604051630935e01b60e21b81523360048201526001600160a01b03909116906324d7806c90602401602060405180830381865afa158015612ba7573d6000803e3d6000fd5b505050506040513d601f19601f82011682018060405250810190612bcb9190615b50565b612be75760405162461bcd60e51b815260040161115190615c84565b6001600160a01b0316600090815260d660205260409020805460ff19169055565b612c1061348d565b60405163a9059cbb60e01b8152336004820152602481018290526001600160a01b0383169063a9059cbb906044016020604051808303816000875af1158015612c5d573d6000803e3d6000fd5b505050506040513d601f19601f82011682018060405250810190610a4c9190615b50565b346000612c8d82614399565b905060cc54811015612ce15760405162461bcd60e51b815260206004820152601f60248201527f56616c7565206c657373207468656e206d696e436f6e747269627574696f6e006044820152606401611151565b63ffffffff8316600090815260d7602052604081203391429190612d06856003615b83565b82601201548360140154612d1a9190615bd9565b612d249190615dbe565b90506000600383601401546002612d3b9190615b83565b612d459190615b9a565b836012015410612d56576000612d8e565b60038360120154600385601401546002612d709190615b83565b612d7a9190615b9a565b612d849190615bd9565b612d8e9190615b9a565b9050612db383868a60008a878a60cb60029054906101000a900460ff1660ff16613f6b565b60d55460ff1615612f0f5760c954604080516344846f9d60e11b815290516000926001600160a01b031691638908df3a9160048083019260209291908290030181865afa158015612e08573d6000803e3d6000fd5b505050506040513d601f19601f82011682018060405250810190612e2c9190615bbc565b6001600160a01b031663d275f14e8a612e45858b615dbe565b6040516001600160e01b031960e085901b16815263ffffffff9290921660048301526024820152604481018890526064810188905263020f5800608482015260a4016020604051808303816000875af1158015612ea6573d6000803e3d6000fd5b505050506040513d601f19601f82011682018060405250810190612eca9190615df5565b601885018054600181018255600091825260209091206008820401805460079092166004026101000a63ffffffff818102199093169390921691909102919091179055505b5050505050505050565b612f2161348d565b60cb805461ffff191661ffff92909216919091179055565b346000612f4582614399565b905060cc54811015612f995760405162461bcd60e51b815260206004820152601f60248201527f56616c7565206c657373207468656e206d696e436f6e747269627574696f6e006044820152606401611151565b60cf5433904290600090612fb49063ffffffff166001615dd1565b6001600160a01b038416600090815260d66020908152604080832063ffffffff8516845260d79092529091209192509061300a8186858b8a612ff7816003615b83565b60cb548b9062010000900460ff16613f6b565b60d55460ff16156131595760c954604080516344846f9d60e11b815290516000926001600160a01b031691638908df3a9160048083019260209291908290030181865afa15801561305f573d6000803e3d6000fd5b505050506040513d601f19601f820116820180604052508101906130839190615bbc565b60405163693af8a760e11b815263ffffffff8616600482015260248101899052604481018790526064810187905263020f580060848201526001600160a01b03919091169063d275f14e9060a4016020604051808303816000875af11580156130f0573d6000803e3d6000fd5b505050506040513d601f19601f820116820180604052508101906131149190615df5565b601883018054600181018255600091825260209091206008820401805460079092166004026101000a63ffffffff818102199093169390921691909102919091179055505b6001828101805491820181556000908152602081206008830401805460079093166004026101000a63ffffffff818102199094168785169190910217905560cf805490921691906131a983615e12565b91906101000a81548163ffffffff021916908363ffffffff160217905550505050505050505050565b6131da61348d565b610a4c60ca838361518d565b6131ee61348d565b6001600160a01b0381166132535760405162461bcd60e51b815260206004820152602660248201527f4f776e61626c653a206e6577206f776e657220697320746865207a65726f206160448201526564647265737360d01b6064820152608401611151565b6113c281613f19565b60c954604051630935e01b60e21b81523360048201526001600160a01b03909116906324d7806c90602401602060405180830381865afa1580156132a4573d6000803e3d6000fd5b505050506040513d601f19601f820116820180604052508101906132c89190615b50565b6132e45760405162461bcd60e51b815260040161115190615c84565b6132f681670de0b6b3a7640000615b83565b63ffffffff8316600090815260d760205260408120601b01805490919061331e908490615dbe565b90915550505050565b61334d604051806060016040528060001515815260200160608152602001606081525090565b6001600160a01b038216600090815260d660209081526040918290208251606081018452815460ff1615158152600182018054855181860281018601909652808652919492938581019392908301828280156133f457602002820191906000526020600020906000905b82829054906101000a900463ffffffff1663ffffffff16815260200190600401906020826003010492830192600103820291508084116133b75790505b5050505050815260200160028201805461340d90615b16565b80601f016020809104026020016040519081016040528092919081815260200182805461343990615b16565b80156121295780601f1061345b57610100808354040283529160200191612129565b820191906000526020600020905b81548152906001019060200180831161346957505050919092525091949350505050565b6033546001600160a01b03163314611f005760405162461bcd60e51b815260206004820181905260248201527f4f776e61626c653a2063616c6c6572206973206e6f7420746865206f776e65726044820152606401611151565b60008060c960009054906101000a90046001600160a01b03166001600160a01b0316632913497b6040518163ffffffff1660e01b8152600401602060405180830381865afa15801561353d573d6000803e3d6000fd5b505050506040513d601f19601f820116820180604052508101906135619190615bbc565b6001600160a01b031663e1aa60366040518163ffffffff1660e01b8152600401602060405180830381865afa15801561359e573d6000803e3d6000fd5b505050506040513d601f19601f820116820180604052508101906135c29190615e35565b6135d484670de0b6b3a7640000615b83565b6135de9190615b9a565b9392505050565b6113c261348d565b7f4910fdfa16fed3260ed0e7147f7cc6da11a60208b5b9406d12a635614ffd91435460ff161561362057610a4c83614487565b826001600160a01b03166352d1902d6040518163ffffffff1660e01b8152600401602060405180830381865afa92505050801561367a575060408051601f3d908101601f1916820190925261367791810190615e35565b60015b6136dd5760405162461bcd60e51b815260206004820152602e60248201527f45524331393637557067726164653a206e657720696d706c656d656e7461746960448201526d6f6e206973206e6f74205555505360901b6064820152608401611151565b600080516020615f17833981519152811461374c5760405162461bcd60e51b815260206004820152602960248201527f45524331393637557067726164653a20756e737570706f727465642070726f786044820152681a58589b195555525160ba1b6064820152608401611151565b50610a4c838383614523565b600060ca8054806020026020016040519081016040528092919081815260200182805480156137ce57602002820191906000526020600020906000905b82829054906101000a900461ffff1661ffff16815260200190600201906020826001010492830192600103820291508084116137955790505b5050835163ffffffff8716600090815260d7602052604081209596509094935091508190505b8360ff168160ff161015613e6f57600383015463ffffffff600160a81b9091048116600081815260d760205260408120805492939092169003613838575050613e6f565b6138418161454e565b156138b95760405172149959995c995c881a5cc8111a5cd8589b1959606a1b81526013015b60405190819003902061387a846001615e4e565b60ff168363ffffffff167f915ed47901013ad29e90ede828f72888f54bd58cea141b0c6967498165382eb560405160405180910390a49350613e5d9050565b604080516104808101909152815463ffffffff168152600182018054613d54929184916020840191906138eb90615b16565b80601f016020809104026020016040519081016040528092919081815260200182805461391790615b16565b80156139645780601f1061393957610100808354040283529160200191613964565b820191906000526020600020905b81548152906001019060200180831161394757829003601f168201915b50505091835250506002820154602080830191909152600383015460ff80821615156040808601919091526001600160a01b03610100840416606086015263ffffffff600160a81b8404166080860152600160c81b90920416151560a084015260048401805482518185028101850190935280835260c0909401939192909190830182828015613a3f57602002820191906000526020600020906000905b82829054906101000a900463ffffffff1663ffffffff1681526020019060040190602082600301049283019260010382029150808411613a025790505b5050505050815260200160058201805480602002602001604051908101604052809291908181526020018280548015613ac357602002820191906000526020600020906000905b82829054906101000a900463ffffffff1663ffffffff1681526020019060040190602082600301049283019260010382029150808411613a865790505b5050505050815260200160068201805480602002602001604051908101604052809291908181526020018280548015613b4757602002820191906000526020600020906000905b82829054906101000a900463ffffffff1663ffffffff1681526020019060040190602082600301049283019260010382029150808411613b0a5790505b5050505050815260200160078201805480602002602001604051908101604052809291908181526020018280548015613b9f57602002820191906000526020600020905b815481526020019060010190808311613b8b575b505050918352505060088201546020808301919091526009830154604080840191909152600a8401546060840152600b8401546080840152600c84015460a0840152600d84015460c0840152600e84015460e0840152600f84015461010080850191909152601085015460ff81166101208601520463ffffffff166101408401526011840154610160840152601284015461018084015260138401546101a084015260148401546101c084015260158401546101e084015260168401546102008401526017840154610220840152601884018054825181850281018501909352808352610240909401939192909190830182828015613ce957602002820191906000526020600020906000905b82829054906101000a900463ffffffff1663ffffffff1681526020019060040190602082600301049283019260010382029150808411613cac5790505b505050918352505060198201546020820152601a8201546040820152601b8201546060820152601c9091015460ff8082161515608084015261010082048116151560a08401526201000082048116151560c0840152630100000090910416151560e0909101526146cf565b613d5f846001615e4e565b60ff161115613d96576040517f446f776e6c696e65206c6576656c73206c696d697420726561636865640000008152601d01613866565b60cb54875160009161ffff1690899060ff8716908110613db857613db8615e67565b602002602001015161ffff168b613dcf9190615b83565b613dd99190615b9a565b905080826017016000828254613def9190615dbe565b90915550613dff90508282613e8f565b613e098186615dbe565b94508063ffffffff808516908b167ff8fb9b5ab69a0208214661678427c6b48abf457f53605d1f559d17452f1eea11613e43886001615e4e565b60405160ff909116815260200160405180910390a4509350505b80613e6781615e7d565b9150506137f4565b508060ce6000828254613e829190615dbe565b9091555050505050505050565b8160140154818360120154613ea49190615dbe565b11613ee35780826012016000828254613ebd9190615dbe565b925050819055508082601b016000828254613ed89190615dbe565b909155506115869050565b81601201548260140154613ef79190615bd9565b82601b016000828254613f0a9190615dbe565b9091555061158690508261470e565b603380546001600160a01b038381166001600160a01b0319831681179093556040519116919082907f8be0079c531659141344cd1fd0a4f28419497f9722a3daafe3b4186f6b6457e090600090a35050565b875463ffffffff16600003613f8e57875463ffffffff191663ffffffff87161788555b601c88015460ff16613faa57601c8801805460ff191660011790555b600388015460ff166140025760d480546001810182556000919091527f9780e26d96b1f2a9a18ef8fc72d589dbf03ef788137b64f43897e83a91e7feec0180546001600160a01b0319166001600160a01b0389161790555b600388015461010090046001600160a01b031661403c57600388018054610100600160a81b0319166101006001600160a01b038a16021790555b876002015460000361405057600288018290555b6003880154600160c81b900460ff166140945760038801805460ff60c81b1963ffffffff8816600160a81b021664ffffffffff60a81b1990911617600160c81b1790555b600060128901556140a6600384615b9a565b601389015560148801839055600788018054600181018255600091825260208220018590556008890180548692906140df908490615dbe565b909155505060158801829055604080516000815260208101918290525161410a9160188b01916151f8565b5060005b818160ff16101561428357600389015463ffffffff600160a81b9091048116600081815260d76020526040812080549293909216900361414f575050614283565b8260ff166000036141b1578681600a01600082825461416e9190615dbe565b909155505060048181018054600181018255600091825260209091206008820401805460079092169092026101000a63ffffffff81810219909216918c16021790555b8681600c0160008282546141c59190615dbe565b909155505063ffffffff881615614245576005810180546001810182556000918252602082206008820401805460079092166004026101000a63ffffffff818102199093168d841691820217909155835460405190831693928c16927f3ec54e926fe5dd86406fe57832ff318517aed2a5cfbeacfb90a5e9489483ae4b91a45b60cf54640100000000900460ff1615614263576142638188876147b6565b61426d8786614f10565b995081905061427b81615e7d565b91505061410e565b505050505050505050565b600054610100900460ff166142b55760405162461bcd60e51b815260040161115190615e9c565b611f00614f41565b600054610100900460ff16611f005760405162461bcd60e51b815260040161115190615e9c565b60d5546000906301000000900460ff16815b8160ff168160ff1610156143925760ff8116600090815260d8602052604090206001015461016085015110801590614348575060ff8116600090815260d860205260409020600201546101a085015110155b801561436e575060ff8116600090815260d860205260409020600301546101e085015110155b1561437b57809250614380565b614392565b8061438a81615e7d565b9150506142f6565b5050919050565b600080670de0b6b3a764000060c960009054906101000a90046001600160a01b03166001600160a01b0316632913497b6040518163ffffffff1660e01b8152600401602060405180830381865afa1580156143f8573d6000803e3d6000fd5b505050506040513d601f19601f8201168201806040525081019061441c9190615bbc565b6001600160a01b031663e1aa60366040518163ffffffff1660e01b8152600401602060405180830381865afa158015614459573d6000803e3d6000fd5b505050506040513d601f19601f8201168201806040525081019061447d9190615e35565b6135d49085615b83565b6001600160a01b0381163b6144f45760405162461bcd60e51b815260206004820152602d60248201527f455243313936373a206e657720696d706c656d656e746174696f6e206973206e60448201526c1bdd08184818dbdb9d1c9858dd609a1b6064820152608401611151565b600080516020615f1783398151915280546001600160a01b0319166001600160a01b0392909216919091179055565b61452c83614f71565b6000825111806145395750805b15610a4c576145488383614fb1565b50505050565b601c81015460009060ff16158061456d57508160140154826012015410155b1561457a57506001919050565b6018820154158015906146ba575060c960009054906101000a90046001600160a01b03166001600160a01b0316638908df3a6040518163ffffffff1660e01b8152600401602060405180830381865afa1580156145db573d6000803e3d6000fd5b505050506040513d601f19601f820116820180604052508101906145ff9190615bbc565b6001600160a01b03166355332a8583601801600185601801805490506146259190615bd9565b8154811061463557614635615e67565b6000918252602090912060088204015460405160e084901b6001600160e01b0319168152600790921660049081026101000a90910463ffffffff1690820152602401602060405180830381865afa158015614694573d6000803e3d6000fd5b505050506040513d601f19601f820116820180604052508101906146b89190615b50565b155b156146c757506001919050565b506000919050565b60e0810151516000908181156135de5760cf546001906146fc906601000000000000900460ff1684615b83565b6147069190615bd9565b949350505050565b601c8101805460ff1916905560408051600081526020810191829052516147399160188401916151f8565b5060006012820181905560138201819055601482015542601682015580546040805163ffffffff9092168252602082018190526011908201527013585e08131a5b5a5d0814995858da1959607a1b60608201527fce8ab8f2ac6a94861f9740fa1fed3e6d13a85dfd8a4833bf96f3a0055ba7fb6f90608001612695565b6010830154604080516104808101909152845463ffffffff16815260018501805460ff90931692614c5c929187916020840191906147f390615b16565b80601f016020809104026020016040519081016040528092919081815260200182805461481f90615b16565b801561486c5780601f106148415761010080835404028352916020019161486c565b820191906000526020600020905b81548152906001019060200180831161484f57829003601f168201915b50505091835250506002820154602080830191909152600383015460ff80821615156040808601919091526001600160a01b03610100840416606086015263ffffffff600160a81b8404166080860152600160c81b90920416151560a084015260048401805482518185028101850190935280835260c090940193919290919083018282801561494757602002820191906000526020600020906000905b82829054906101000a900463ffffffff1663ffffffff168152602001906004019060208260030104928301926001038202915080841161490a5790505b50505050508152602001600582018054806020026020016040519081016040528092919081815260200182805480156149cb57602002820191906000526020600020906000905b82829054906101000a900463ffffffff1663ffffffff168152602001906004019060208260030104928301926001038202915080841161498e5790505b5050505050815260200160068201805480602002602001604051908101604052809291908181526020018280548015614a4f57602002820191906000526020600020906000905b82829054906101000a900463ffffffff1663ffffffff1681526020019060040190602082600301049283019260010382029150808411614a125790505b5050505050815260200160078201805480602002602001604051908101604052809291908181526020018280548015614aa757602002820191906000526020600020905b815481526020019060010190808311614a93575b505050918352505060088201546020808301919091526009830154604080840191909152600a8401546060840152600b8401546080840152600c84015460a0840152600d84015460c0840152600e84015460e0840152600f84015461010080850191909152601085015460ff81166101208601520463ffffffff166101408401526011840154610160840152601284015461018084015260138401546101a084015260148401546101c084015260158401546101e084015260168401546102008401526017840154610220840152601884018054825181850281018501909352808352610240909401939192909190830182828015614bf157602002820191906000526020600020906000905b82829054906101000a900463ffffffff1663ffffffff1681526020019060040190602082600301049283019260010382029150808411614bb45790505b505050918352505060198201546020820152601a8201546040820152601b8201546060820152601c9091015460ff8082161515608084015261010082048116151560a08401526201000082048116151560c0840152630100000090910416151560e0909101526142e4565b60ff161115610a4c57604080516104808101909152835463ffffffff168152600184018054614c97929186916020840191906147f390615b16565b60108401805460ff191660ff9283169081178255600090815260d860209081526040808320885460099182018054600181810183559187529486206008860401805463ffffffff60079097166004026101000a8781021990911696909316909202949094179055935490941682529290200154614d149190615bd9565b60108401805464ffffffff0019811661010063ffffffff948516810291821793849055875460408051918716825291909404909416602084015260ff918216911617918101919091527f4d3af8f60ffd033b575846f894122f2342b39bc9a90da98d0a966128702b568d9060600160405180910390a1604080516104808101909152835463ffffffff16815260018401805460d892600092614dc092889160208401916147f390615b16565b60ff90811682526020820192909252604001600020600801541615614e7f57604080516104808101909152835463ffffffff16815260018401805460d892600092614e1592889160208401916147f390615b16565b60ff1660ff1681526020019081526020016000206007015483600f0154614e3c9190615dbe565b811115614e6b578083600f01819055508183600e016000828254614e609190615dbe565b90915550610a4c9050565b8183600e016000828254614e609190615dbe565b60cf54640100000000900460ff1615610a4c57601083015460ff16600090815260d86020526040902060050154614eb7908490613e8f565b601083015460ff908116600090815260d8602052604080822060058101549054875492519194169263ffffffff909216917fdeaf5b294f5016988108257045fc779d7d01e05a4ecdc4df70f62d5a799e053b91a4505050565b60d25460d154614f209190615dbe565b811115614f2f5760d15560d055565b8160d0600082825461331e9190615dbe565b600054610100900460ff16614f685760405162461bcd60e51b815260040161115190615e9c565b611f0033613f19565b614f7a81614487565b6040516001600160a01b038216907fbc7cd75a20ee27fd9adebab32041f755214dbc6bffa90cc0225b39da2e5c2d3b90600090a250565b60606001600160a01b0383163b6150195760405162461bcd60e51b815260206004820152602660248201527f416464726573733a2064656c65676174652063616c6c20746f206e6f6e2d636f6044820152651b9d1c9858dd60d21b6064820152608401611151565b600080846001600160a01b0316846040516150349190615ee7565b600060405180830381855af49150503d806000811461506f576040519150601f19603f3d011682016040523d82523d6000602084013e615074565b606091505b509150915061509c8282604051806060016040528060278152602001615f37602791396150a7565b925050505b92915050565b606083156150b65750816135de565b6135de83838151156150cb5781518083602001fd5b8060405162461bcd60e51b81526004016111519190615f03565b82805482825590600052602060002090600f0160109004810192821561517d5791602002820160005b8382111561514d57835183826101000a81548161ffff021916908360ff160217905550926020019260020160208160010104928301926001030261510e565b801561517b5782816101000a81549061ffff021916905560020160208160010104928301926001030261514d565b505b50615189929150615295565b5090565b82805482825590600052602060002090600f0160109004810192821561517d5791602002820160005b8382111561514d57833560ff1683826101000a81548161ffff021916908360ff16021790555092602001926002016020816001010492830192600103026151b6565b8280548282559060005260206000209060070160089004810192821561517d5791602002820160005b8382111561526557835183826101000a81548163ffffffff021916908363ffffffff1602179055509260200192600401602081600301049283019260010302615221565b801561517b5782816101000a81549063ffffffff0219169055600401602081600301049283019260010302615265565b5b808211156151895760008155600101615296565b803560ff811681146152bb57600080fd5b919050565b6000602082840312156152d257600080fd5b6135de826152aa565b6020808252825182820181905260009190848201906040850190845b8181101561531957835163ffffffff16835292840192918401916001016152f7565b50909695505050505050565b6001600160a01b03811681146113c257600080fd5b6000806040838503121561534d57600080fd5b823561535881615325565b946020939093013593505050565b60006020828403121561537857600080fd5b5035919050565b63ffffffff811681146113c257600080fd5b6000602082840312156153a357600080fd5b81356135de8161537f565b60005b838110156153c95781810151838201526020016153b1565b50506000910152565b600081518084526153ea8160208601602086016153ae565b601f01601f19169290920160200192915050565b600081518084526020808501945080840160005b8381101561543457815163ffffffff1687529582019590820190600101615412565b509495945050505050565b600081518084526020808501945080840160005b8381101561543457815187529582019590820190600101615453565b6020815261548660208201835163ffffffff169052565b600060208301516104808060408501526154a46104a08501836153d2565b91506040850151606085015260608501516154c3608086018215159052565b5060808501516001600160a01b03811660a08601525060a085015163ffffffff811660c08601525060c085015180151560e08601525060e0850151601f1961010081878603018188015261551785846153fe565b94508088015192505061012081878603018188015261553685846153fe565b94508088015192505061014081878603018188015261555585846153fe565b945080880151925050610160818786030181880152615574858461543f565b90880151610180888101919091528801516101a0808901919091528801516101c0808901919091528801516101e0808901919091528801516102008089019190915288015161022080890191909152880151610240808901919091528801516102608089019190915288015190945091506102806155f68188018460ff169052565b87015191506102a061560f8782018463ffffffff169052565b8701516102c0878101919091528701516102e080880191909152870151610300808801919091528701516103208088019190915287015161034080880191909152870151610360808801919091528701516103808088019190915287015186850382016103a08089019190915290925061568985846153fe565b908801516103c0888101919091528801516103e08089019190915288015161040080890191909152880151909450915061042090506156cb8187018315159052565b86015190506104406156e08682018315159052565b86015190506104606156f58682018315159052565b90950151151593019290925250919050565b60006020828403121561571957600080fd5b81356135de81615325565b6000806040838503121561573757600080fd5b8235915060208301356157498161537f565b809150509250929050565b634e487b7160e01b600052604160045260246000fd5b600067ffffffffffffffff8084111561578557615785615754565b604051601f8501601f19908116603f011681019082821181831017156157ad576157ad615754565b816040528093508581528686860111156157c657600080fd5b858560208301376000602087830101525050509392505050565b80151581146113c257600080fd5b80356152bb816157e0565b60008060008060008060008060006101208a8c03121561581857600080fd5b6158218a6152aa565b985060208a0135975060408a0135965060608a0135955060808a013567ffffffffffffffff81111561585257600080fd5b8a01601f81018c1361586357600080fd5b6158728c82356020840161576a565b95505060a08a0135935060c08a0135925060e08a013591506158976101008b016157ee565b90509295985092959850929598565b600080604083850312156158b957600080fd5b82356158c481615325565b9150602083013567ffffffffffffffff8111156158e057600080fd5b8301601f810185136158f157600080fd5b6159008582356020840161576a565b9150509250929050565b6000806040838503121561591d57600080fd5b82356153588161537f565b6020815261593c60208201835160ff169052565b602082015160408201526040820151606082015260608201516080820152600060808301516101408060a08501526159786101608501836153d2565b915060a085015160c085015260c085015160e085015260e08501516101008181870152808701519150506101206159b28187018315159052565b860151858403601f19018387015290506159cc83826153fe565b9695505050505050565b600080600080600080600060e0888a0312156159f157600080fd5b87356159fc81615325565b96506020880135615a0c8161537f565b96999698505050506040850135946060810135946080820135945060a0820135935060c0909101359150565b600060208284031215615a4a57600080fd5b813561ffff811681146135de57600080fd5b60008060208385031215615a6f57600080fd5b823567ffffffffffffffff80821115615a8757600080fd5b818501915085601f830112615a9b57600080fd5b813581811115615aaa57600080fd5b8660208260051b8501011115615abf57600080fd5b60209290920196919550909350505050565b602081528151151560208201526000602083015160606040840152615af960808401826153fe565b90506040840151601f1984830301606085015261509c82826153d2565b600181811c90821680615b2a57607f821691505b602082108103615b4a57634e487b7160e01b600052602260045260246000fd5b50919050565b600060208284031215615b6257600080fd5b81516135de816157e0565b634e487b7160e01b600052601160045260246000fd5b80820281158282048414176150a1576150a1615b6d565b600082615bb757634e487b7160e01b600052601260045260246000fd5b500490565b600060208284031215615bce57600080fd5b81516135de81615325565b818103818111156150a1576150a1615b6d565b6020808252602c908201527f46756e6374696f6e206d7573742062652063616c6c6564207468726f7567682060408201526b19195b1959d85d1958d85b1b60a21b606082015260800190565b6020808252602c908201527f46756e6374696f6e206d7573742062652063616c6c6564207468726f7567682060408201526b6163746976652070726f787960a01b606082015260800190565b6020808252601290820152712cb7ba9030b932903737ba1030b236b4b71760711b604082015260600190565b601f821115610a4c57600081815260208120601f850160051c81016020861015615cd75750805b601f850160051c820191505b81811015615cf657828155600101615ce3565b505050505050565b815167ffffffffffffffff811115615d1857615d18615754565b615d2c81615d268454615b16565b84615cb0565b602080601f831160018114615d615760008415615d495750858301515b600019600386901b1c1916600185901b178555615cf6565b600085815260208120601f198616915b82811015615d9057888601518255948401946001909101908401615d71565b5085821015615dae5787850151600019600388901b60f8161c191681555b5050505050600190811b01905550565b808201808211156150a1576150a1615b6d565b63ffffffff818116838216019080821115615dee57615dee615b6d565b5092915050565b600060208284031215615e0757600080fd5b81516135de8161537f565b600063ffffffff808316818103615e2b57615e2b615b6d565b6001019392505050565b600060208284031215615e4757600080fd5b5051919050565b60ff81811683821601908111156150a1576150a1615b6d565b634e487b7160e01b600052603260045260246000fd5b600060ff821660ff8103615e9357615e93615b6d565b60010192915050565b6020808252602b908201527f496e697469616c697a61626c653a20636f6e7472616374206973206e6f74206960408201526a6e697469616c697a696e6760a81b606082015260800190565b60008251615ef98184602087016153ae565b9190910192915050565b6020815260006135de60208301846153d256fe360894a13ba1a3210667c828492db98dca3e2076cc3735a920a3ca505d382bbc416464726573733a206c6f772d6c6576656c2064656c65676174652063616c6c206661696c6564a264697066735822122017ccbe508d1f45fc6b90832910b68f242b67113d0291a0309cfa3ce6e6fbf3fe64736f6c63430008120033",
  "linkReferences": {},
  "deployedLinkReferences": {}
}