{
  "_format": "hh-sol-artifact-1",
  "contractName": "ReferralV4Upgradeable",
  "sourceName": "contracts/ReferralV4Upgradeable.sol",
  "abi": [
    {
      "anonymous": false,
      "inputs": [
        {
          "indexed": false,
          "internalType": "uint32",
          "name": "id",
          "type": "uint32"
        }
      ],
      "name": "ActivatedId",
      "type": "event"
    },
    {
      "anonymous": false,
      "inputs": [
        {
          "indexed": false,
          "internalType": "uint32",
          "name": "id",
          "type": "uint32"
        },
        {
          "indexed": false,
          "internalType": "uint32",
          "name": "index",
          "type": "uint32"
        },
        {
          "indexed": false,
          "internalType": "uint8",
          "name": "rank",
          "type": "uint8"
        }
      ],
      "name": "AddedInRoyaltyClubList",
      "type": "event"
    },
    {
      "anonymous": false,
      "inputs": [
        {
          "indexed": false,
          "internalType": "address",
          "name": "previousAdmin",
          "type": "address"
        },
        {
          "indexed": false,
          "internalType": "address",
          "name": "newAdmin",
          "type": "address"
        }
      ],
      "name": "AdminChanged",
      "type": "event"
    },
    {
      "anonymous": false,
      "inputs": [
        {
          "indexed": true,
          "internalType": "address",
          "name": "beacon",
          "type": "address"
        }
      ],
      "name": "BeaconUpgraded",
      "type": "event"
    },
    {
      "anonymous": false,
      "inputs": [
        {
          "indexed": false,
          "internalType": "uint32",
          "name": "id",
          "type": "uint32"
        },
        {
          "indexed": false,
          "internalType": "string",
          "name": "reason",
          "type": "string"
        }
      ],
      "name": "DeactivatedId",
      "type": "event"
    },
    {
      "anonymous": false,
      "inputs": [
        {
          "indexed": false,
          "internalType": "uint8",
          "name": "version",
          "type": "uint8"
        }
      ],
      "name": "Initialized",
      "type": "event"
    },
    {
      "anonymous": false,
      "inputs": [
        {
          "indexed": false,
          "internalType": "uint32",
          "name": "id",
          "type": "uint32"
        },
        {
          "indexed": false,
          "internalType": "address",
          "name": "owner",
          "type": "address"
        }
      ],
      "name": "OwnerChangedId",
      "type": "event"
    },
    {
      "anonymous": false,
      "inputs": [
        {
          "indexed": true,
          "internalType": "address",
          "name": "previousOwner",
          "type": "address"
        },
        {
          "indexed": true,
          "internalType": "address",
          "name": "newOwner",
          "type": "address"
        }
      ],
      "name": "OwnershipTransferred",
      "type": "event"
    },
    {
      "anonymous": false,
      "inputs": [
        {
          "indexed": false,
          "internalType": "uint8",
          "name": "packageId",
          "type": "uint8"
        }
      ],
      "name": "PackageAdded",
      "type": "event"
    },
    {
      "anonymous": false,
      "inputs": [
        {
          "indexed": false,
          "internalType": "uint8",
          "name": "packageId",
          "type": "uint8"
        }
      ],
      "name": "PackageRemoved",
      "type": "event"
    },
    {
      "anonymous": false,
      "inputs": [
        {
          "indexed": false,
          "internalType": "uint8",
          "name": "packageId",
          "type": "uint8"
        }
      ],
      "name": "PackageUpdated",
      "type": "event"
    },
    {
      "anonymous": false,
      "inputs": [
        {
          "indexed": true,
          "internalType": "uint32",
          "name": "refererId",
          "type": "uint32"
        },
        {
          "indexed": true,
          "internalType": "uint8",
          "name": "level",
          "type": "uint8"
        },
        {
          "indexed": true,
          "internalType": "string",
          "name": "reason",
          "type": "string"
        }
      ],
      "name": "ReferralNotPaid",
      "type": "event"
    },
    {
      "anonymous": false,
      "inputs": [
        {
          "indexed": true,
          "internalType": "uint32",
          "name": "refereeId",
          "type": "uint32"
        },
        {
          "indexed": true,
          "internalType": "uint32",
          "name": "referrerId",
          "type": "uint32"
        },
        {
          "indexed": true,
          "internalType": "uint256",
          "name": "amount",
          "type": "uint256"
        },
        {
          "indexed": false,
          "internalType": "uint8",
          "name": "level",
          "type": "uint8"
        }
      ],
      "name": "ReferralRewardPaid",
      "type": "event"
    },
    {
      "anonymous": false,
      "inputs": [
        {
          "indexed": true,
          "internalType": "address",
          "name": "refereeId",
          "type": "address"
        },
        {
          "indexed": true,
          "internalType": "address",
          "name": "referrerId",
          "type": "address"
        },
        {
          "indexed": true,
          "internalType": "string",
          "name": "reason",
          "type": "string"
        }
      ],
      "name": "RegisterRefererFailed",
      "type": "event"
    },
    {
      "anonymous": false,
      "inputs": [
        {
          "indexed": true,
          "internalType": "uint32",
          "name": "id",
          "type": "uint32"
        },
        {
          "indexed": true,
          "internalType": "uint32",
          "name": "refererId",
          "type": "uint32"
        }
      ],
      "name": "RegisteredReferer",
      "type": "event"
    },
    {
      "anonymous": false,
      "inputs": [
        {
          "indexed": true,
          "internalType": "uint32",
          "name": "refereeId",
          "type": "uint32"
        },
        {
          "indexed": true,
          "internalType": "uint32",
          "name": "referrerId",
          "type": "uint32"
        },
        {
          "indexed": true,
          "internalType": "uint32",
          "name": "parentAccountId",
          "type": "uint32"
        }
      ],
      "name": "RegisteredTeamAddress",
      "type": "event"
    },
    {
      "anonymous": false,
      "inputs": [
        {
          "indexed": true,
          "internalType": "uint32",
          "name": "userid",
          "type": "uint32"
        },
        {
          "indexed": true,
          "internalType": "uint8",
          "name": "packageId",
          "type": "uint8"
        },
        {
          "indexed": true,
          "internalType": "uint256",
          "name": "amount",
          "type": "uint256"
        }
      ],
      "name": "RoyaltyClubBonusPaid",
      "type": "event"
    },
    {
      "anonymous": false,
      "inputs": [
        {
          "indexed": true,
          "internalType": "address",
          "name": "implementation",
          "type": "address"
        }
      ],
      "name": "Upgraded",
      "type": "event"
    },
    {
      "inputs": [
        {
          "internalType": "uint32",
          "name": "_refererId",
          "type": "uint32"
        }
      ],
      "name": "activateId",
      "outputs": [],
      "stateMutability": "payable",
      "type": "function"
    },
    {
      "inputs": [
        {
          "internalType": "address",
          "name": "_userAddress",
          "type": "address"
        },
        {
          "internalType": "uint32",
          "name": "_refererId",
          "type": "uint32"
        },
        {
          "internalType": "uint256",
          "name": "_valueInUSD",
          "type": "uint256"
        },
        {
          "internalType": "uint256",
          "name": "_activationTime",
          "type": "uint256"
        },
        {
          "internalType": "uint256",
          "name": "_roiStartTime",
          "type": "uint256"
        },
        {
          "internalType": "uint256",
          "name": "_roiResetTime",
          "type": "uint256"
        },
        {
          "internalType": "uint256",
          "name": "_roiDurationInDays",
          "type": "uint256"
        }
      ],
      "name": "activateIdAdmin",
      "outputs": [],
      "stateMutability": "nonpayable",
      "type": "function"
    },
    {
      "inputs": [
        {
          "internalType": "uint32",
          "name": "_id",
          "type": "uint32"
        }
      ],
      "name": "claimBalance",
      "outputs": [],
      "stateMutability": "nonpayable",
      "type": "function"
    },
    {
      "inputs": [],
      "name": "companyTurnoverTimeLimit",
      "outputs": [
        {
          "internalType": "uint256",
          "name": "",
          "type": "uint256"
        }
      ],
      "stateMutability": "view",
      "type": "function"
    },
    {
      "inputs": [],
      "name": "companyTurnoverTimeStamp",
      "outputs": [
        {
          "internalType": "uint256",
          "name": "",
          "type": "uint256"
        }
      ],
      "stateMutability": "view",
      "type": "function"
    },
    {
      "inputs": [],
      "name": "companyTurnoverWithTimeLimit",
      "outputs": [
        {
          "internalType": "uint256",
          "name": "",
          "type": "uint256"
        }
      ],
      "stateMutability": "view",
      "type": "function"
    },
    {
      "inputs": [],
      "name": "decimals",
      "outputs": [
        {
          "internalType": "uint16",
          "name": "",
          "type": "uint16"
        }
      ],
      "stateMutability": "view",
      "type": "function"
    },
    {
      "inputs": [
        {
          "internalType": "uint256",
          "name": "",
          "type": "uint256"
        }
      ],
      "name": "disabledUsersList",
      "outputs": [
        {
          "internalType": "address",
          "name": "",
          "type": "address"
        }
      ],
      "stateMutability": "view",
      "type": "function"
    },
    {
      "inputs": [
        {
          "internalType": "uint32",
          "name": "_from",
          "type": "uint32"
        },
        {
          "internalType": "uint32",
          "name": "_to",
          "type": "uint32"
        },
        {
          "internalType": "bool[]",
          "name": "_value",
          "type": "bool[]"
        }
      ],
      "name": "enableIdWithdrawAdmin",
      "outputs": [],
      "stateMutability": "nonpayable",
      "type": "function"
    },
    {
      "inputs": [],
      "name": "futureScureWalletContribution",
      "outputs": [
        {
          "internalType": "uint8",
          "name": "",
          "type": "uint8"
        }
      ],
      "stateMutability": "view",
      "type": "function"
    },
    {
      "inputs": [
        {
          "internalType": "uint8",
          "name": "_packageId",
          "type": "uint8"
        }
      ],
      "name": "getAchieversList",
      "outputs": [
        {
          "internalType": "uint32[]",
          "name": "",
          "type": "uint32[]"
        }
      ],
      "stateMutability": "view",
      "type": "function"
    },
    {
      "inputs": [
        {
          "internalType": "uint32",
          "name": "_id",
          "type": "uint32"
        }
      ],
      "name": "getIdAccount",
      "outputs": [
        {
          "components": [
            {
              "internalType": "uint32",
              "name": "id",
              "type": "uint32"
            },
            {
              "internalType": "string",
              "name": "oldId",
              "type": "string"
            },
            {
              "internalType": "uint256",
              "name": "joiningTime",
              "type": "uint256"
            },
            {
              "internalType": "bool",
              "name": "isAddedToUserList",
              "type": "bool"
            },
            {
              "internalType": "address",
              "name": "owner",
              "type": "address"
            },
            {
              "internalType": "uint32",
              "name": "refererId",
              "type": "uint32"
            },
            {
              "internalType": "bool",
              "name": "hasUpline",
              "type": "bool"
            },
            {
              "internalType": "uint32[]",
              "name": "refereeIds",
              "type": "uint32[]"
            },
            {
              "internalType": "uint32[]",
              "name": "teamIds",
              "type": "uint32[]"
            },
            {
              "internalType": "uint32[]",
              "name": "teamLevel",
              "type": "uint32[]"
            },
            {
              "internalType": "uint256[]",
              "name": "selfBusinessArray",
              "type": "uint256[]"
            },
            {
              "internalType": "uint256",
              "name": "selfBusiness",
              "type": "uint256"
            },
            {
              "internalType": "uint256",
              "name": "selfBusinessOld",
              "type": "uint256"
            },
            {
              "internalType": "uint256",
              "name": "directBusiness",
              "type": "uint256"
            },
            {
              "internalType": "uint256",
              "name": "directBusinessOld",
              "type": "uint256"
            },
            {
              "internalType": "uint256",
              "name": "teamBusiness",
              "type": "uint256"
            },
            {
              "internalType": "uint256",
              "name": "teamBusinessOld",
              "type": "uint256"
            },
            {
              "internalType": "uint256",
              "name": "royaltyClubBusiness",
              "type": "uint256"
            },
            {
              "internalType": "uint256",
              "name": "timeStampRoyaltyClub",
              "type": "uint256"
            },
            {
              "internalType": "uint8",
              "name": "royaltyClubPackageId",
              "type": "uint8"
            },
            {
              "internalType": "uint32",
              "name": "royaltyClubListIndex",
              "type": "uint32"
            },
            {
              "internalType": "uint256",
              "name": "royaltyClubRewardPaid",
              "type": "uint256"
            },
            {
              "internalType": "uint256",
              "name": "topUpIncome",
              "type": "uint256"
            },
            {
              "internalType": "uint256",
              "name": "topUp",
              "type": "uint256"
            },
            {
              "internalType": "uint256",
              "name": "maxLimit",
              "type": "uint256"
            },
            {
              "internalType": "uint256",
              "name": "activationTime",
              "type": "uint256"
            },
            {
              "internalType": "uint256",
              "name": "deactivationTime",
              "type": "uint256"
            },
            {
              "internalType": "uint256",
              "name": "referralPaid",
              "type": "uint256"
            },
            {
              "internalType": "uint32[]",
              "name": "roiIds",
              "type": "uint32[]"
            },
            {
              "internalType": "uint256",
              "name": "roiPaid",
              "type": "uint256"
            },
            {
              "internalType": "uint256",
              "name": "roiClaimedTime",
              "type": "uint256"
            },
            {
              "internalType": "uint256",
              "name": "walletBalance",
              "type": "uint256"
            },
            {
              "internalType": "bool",
              "name": "isActive",
              "type": "bool"
            },
            {
              "internalType": "bool",
              "name": "isROIDisabled",
              "type": "bool"
            },
            {
              "internalType": "bool",
              "name": "isIdVisibilityDisabled",
              "type": "bool"
            },
            {
              "internalType": "bool",
              "name": "canWindraw",
              "type": "bool"
            }
          ],
          "internalType": "struct ReferralV4Upgradeable.StructId",
          "name": "",
          "type": "tuple"
        }
      ],
      "stateMutability": "view",
      "type": "function"
    },
    {
      "inputs": [
        {
          "internalType": "uint32",
          "name": "_id",
          "type": "uint32"
        }
      ],
      "name": "getIdLimits",
      "outputs": [
        {
          "internalType": "uint256",
          "name": "topUpIncome",
          "type": "uint256"
        },
        {
          "internalType": "uint256",
          "name": "topUp",
          "type": "uint256"
        },
        {
          "internalType": "uint256",
          "name": "maxLimit",
          "type": "uint256"
        }
      ],
      "stateMutability": "view",
      "type": "function"
    },
    {
      "inputs": [],
      "name": "getMinContributionETH",
      "outputs": [
        {
          "internalType": "uint256",
          "name": "",
          "type": "uint256"
        }
      ],
      "stateMutability": "view",
      "type": "function"
    },
    {
      "inputs": [
        {
          "internalType": "uint8",
          "name": "_packageId",
          "type": "uint8"
        }
      ],
      "name": "getRoyaltyClubPackageInfo",
      "outputs": [
        {
          "components": [
            {
              "internalType": "uint8",
              "name": "packageId",
              "type": "uint8"
            },
            {
              "internalType": "uint256",
              "name": "selfBusiness",
              "type": "uint256"
            },
            {
              "internalType": "uint256",
              "name": "directBusiness",
              "type": "uint256"
            },
            {
              "internalType": "uint256",
              "name": "teamBusiness",
              "type": "uint256"
            },
            {
              "internalType": "string",
              "name": "rankName",
              "type": "string"
            },
            {
              "internalType": "uint256",
              "name": "reward",
              "type": "uint256"
            },
            {
              "internalType": "uint256",
              "name": "businessLimit",
              "type": "uint256"
            },
            {
              "internalType": "uint256",
              "name": "timeLimit",
              "type": "uint256"
            },
            {
              "internalType": "bool",
              "name": "isPayReccursive",
              "type": "bool"
            },
            {
              "internalType": "uint32[]",
              "name": "achieversList",
              "type": "uint32[]"
            }
          ],
          "internalType": "struct ReferralV4Upgradeable.StructPackages",
          "name": "",
          "type": "tuple"
        }
      ],
      "stateMutability": "view",
      "type": "function"
    },
    {
      "inputs": [
        {
          "internalType": "address",
          "name": "_address",
          "type": "address"
        }
      ],
      "name": "getUserAccount",
      "outputs": [
        {
          "components": [
            {
              "internalType": "bool",
              "name": "isActive",
              "type": "bool"
            },
            {
              "internalType": "uint32[]",
              "name": "accountIds",
              "type": "uint32[]"
            },
            {
              "internalType": "string",
              "name": "userName",
              "type": "string"
            }
          ],
          "internalType": "struct ReferralV4Upgradeable.StructAccount",
          "name": "",
          "type": "tuple"
        }
      ],
      "stateMutability": "view",
      "type": "function"
    },
    {
      "inputs": [
        {
          "internalType": "uint32",
          "name": "_id",
          "type": "uint32"
        },
        {
          "internalType": "uint256",
          "name": "_value",
          "type": "uint256"
        }
      ],
      "name": "increaseIdTopIncome",
      "outputs": [],
      "stateMutability": "nonpayable",
      "type": "function"
    },
    {
      "inputs": [],
      "name": "initialize",
      "outputs": [],
      "stateMutability": "nonpayable",
      "type": "function"
    },
    {
      "inputs": [],
      "name": "isActivateROI",
      "outputs": [
        {
          "internalType": "bool",
          "name": "",
          "type": "bool"
        }
      ],
      "stateMutability": "view",
      "type": "function"
    },
    {
      "inputs": [],
      "name": "isPayReferral",
      "outputs": [
        {
          "internalType": "bool",
          "name": "",
          "type": "bool"
        }
      ],
      "stateMutability": "view",
      "type": "function"
    },
    {
      "inputs": [],
      "name": "isPayRoyaltyClubBonus",
      "outputs": [
        {
          "internalType": "bool",
          "name": "",
          "type": "bool"
        }
      ],
      "stateMutability": "view",
      "type": "function"
    },
    {
      "inputs": [
        {
          "internalType": "uint256",
          "name": "",
          "type": "uint256"
        }
      ],
      "name": "levelRates",
      "outputs": [
        {
          "internalType": "uint16",
          "name": "",
          "type": "uint16"
        }
      ],
      "stateMutability": "view",
      "type": "function"
    },
    {
      "inputs": [],
      "name": "maxLevels",
      "outputs": [
        {
          "internalType": "uint8",
          "name": "",
          "type": "uint8"
        }
      ],
      "stateMutability": "view",
      "type": "function"
    },
    {
      "inputs": [],
      "name": "minContributionUSD",
      "outputs": [
        {
          "internalType": "uint256",
          "name": "",
          "type": "uint256"
        }
      ],
      "stateMutability": "view",
      "type": "function"
    },
    {
      "inputs": [],
      "name": "owner",
      "outputs": [
        {
          "internalType": "address",
          "name": "",
          "type": "address"
        }
      ],
      "stateMutability": "view",
      "type": "function"
    },
    {
      "inputs": [],
      "name": "packagesCount",
      "outputs": [
        {
          "internalType": "uint8",
          "name": "",
          "type": "uint8"
        }
      ],
      "stateMutability": "view",
      "type": "function"
    },
    {
      "inputs": [
        {
          "internalType": "uint256",
          "name": "_value",
          "type": "uint256"
        },
        {
          "internalType": "uint32",
          "name": "_id",
          "type": "uint32"
        }
      ],
      "name": "payReferralAdmin",
      "outputs": [],
      "stateMutability": "nonpayable",
      "type": "function"
    },
    {
      "inputs": [],
      "name": "proxiableUUID",
      "outputs": [
        {
          "internalType": "bytes32",
          "name": "",
          "type": "bytes32"
        }
      ],
      "stateMutability": "view",
      "type": "function"
    },
    {
      "inputs": [],
      "name": "renounceOwnership",
      "outputs": [],
      "stateMutability": "nonpayable",
      "type": "function"
    },
    {
      "inputs": [],
      "name": "royaltyClubPackageCount",
      "outputs": [
        {
          "internalType": "uint8",
          "name": "",
          "type": "uint8"
        }
      ],
      "stateMutability": "view",
      "type": "function"
    },
    {
      "inputs": [
        {
          "internalType": "address",
          "name": "_address",
          "type": "address"
        },
        {
          "internalType": "uint256",
          "name": "_value",
          "type": "uint256"
        }
      ],
      "name": "sendETHAdmin",
      "outputs": [],
      "stateMutability": "nonpayable",
      "type": "function"
    },
    {
      "inputs": [
        {
          "internalType": "uint32",
          "name": "_from",
          "type": "uint32"
        },
        {
          "internalType": "uint32",
          "name": "_to",
          "type": "uint32"
        },
        {
          "internalType": "bool[]",
          "name": "_value",
          "type": "bool[]"
        }
      ],
      "name": "setIsActiveAdmin",
      "outputs": [],
      "stateMutability": "nonpayable",
      "type": "function"
    },
    {
      "inputs": [
        {
          "internalType": "uint16",
          "name": "_value",
          "type": "uint16"
        }
      ],
      "name": "setLevelDecimals",
      "outputs": [],
      "stateMutability": "nonpayable",
      "type": "function"
    },
    {
      "inputs": [
        {
          "internalType": "uint8[]",
          "name": "_value",
          "type": "uint8[]"
        }
      ],
      "name": "setLevelRates",
      "outputs": [],
      "stateMutability": "nonpayable",
      "type": "function"
    },
    {
      "inputs": [
        {
          "internalType": "uint8",
          "name": "_valueDecimals",
          "type": "uint8"
        }
      ],
      "name": "setMaxLevelsAdmin",
      "outputs": [],
      "stateMutability": "nonpayable",
      "type": "function"
    },
    {
      "inputs": [
        {
          "internalType": "uint256",
          "name": "_valueInUSD",
          "type": "uint256"
        }
      ],
      "name": "setMinContribution",
      "outputs": [],
      "stateMutability": "nonpayable",
      "type": "function"
    },
    {
      "inputs": [
        {
          "internalType": "uint32",
          "name": "_id",
          "type": "uint32"
        }
      ],
      "name": "topUpId",
      "outputs": [],
      "stateMutability": "payable",
      "type": "function"
    },
    {
      "inputs": [],
      "name": "totalIds",
      "outputs": [
        {
          "internalType": "uint32",
          "name": "",
          "type": "uint32"
        }
      ],
      "stateMutability": "view",
      "type": "function"
    },
    {
      "inputs": [],
      "name": "totalReferralPaid",
      "outputs": [
        {
          "internalType": "uint256",
          "name": "",
          "type": "uint256"
        }
      ],
      "stateMutability": "view",
      "type": "function"
    },
    {
      "inputs": [],
      "name": "totalRoyaltyClubBonusPaid",
      "outputs": [
        {
          "internalType": "uint256",
          "name": "",
          "type": "uint256"
        }
      ],
      "stateMutability": "view",
      "type": "function"
    },
    {
      "inputs": [
        {
          "internalType": "address",
          "name": "newOwner",
          "type": "address"
        }
      ],
      "name": "transferOwnership",
      "outputs": [],
      "stateMutability": "nonpayable",
      "type": "function"
    },
    {
      "inputs": [
        {
          "internalType": "uint32",
          "name": "_from",
          "type": "uint32"
        },
        {
          "internalType": "uint32",
          "name": "_to",
          "type": "uint32"
        },
        {
          "internalType": "address[]",
          "name": "_address",
          "type": "address[]"
        }
      ],
      "name": "updateAddressAdmin",
      "outputs": [],
      "stateMutability": "nonpayable",
      "type": "function"
    },
    {
      "inputs": [
        {
          "internalType": "uint32",
          "name": "_id",
          "type": "uint32"
        },
        {
          "internalType": "uint256",
          "name": "_value",
          "type": "uint256"
        }
      ],
      "name": "updateIdWhenClaimROI",
      "outputs": [],
      "stateMutability": "nonpayable",
      "type": "function"
    },
    {
      "inputs": [
        {
          "internalType": "address",
          "name": "newImplementation",
          "type": "address"
        }
      ],
      "name": "upgradeTo",
      "outputs": [],
      "stateMutability": "nonpayable",
      "type": "function"
    },
    {
      "inputs": [
        {
          "internalType": "address",
          "name": "newImplementation",
          "type": "address"
        },
        {
          "internalType": "bytes",
          "name": "data",
          "type": "bytes"
        }
      ],
      "name": "upgradeToAndCall",
      "outputs": [],
      "stateMutability": "payable",
      "type": "function"
    },
    {
      "inputs": [
        {
          "internalType": "uint256",
          "name": "",
          "type": "uint256"
        }
      ],
      "name": "users",
      "outputs": [
        {
          "internalType": "address",
          "name": "",
          "type": "address"
        }
      ],
      "stateMutability": "view",
      "type": "function"
    },
    {
      "inputs": [],
      "name": "withdrawETHAdmin",
      "outputs": [],
      "stateMutability": "nonpayable",
      "type": "function"
    },
    {
      "inputs": [
        {
          "internalType": "address",
          "name": "_tokenAddress",
          "type": "address"
        },
        {
          "internalType": "uint256",
          "name": "_value",
          "type": "uint256"
        }
      ],
      "name": "withdrawTokensAdmin",
      "outputs": [],
      "stateMutability": "nonpayable",
      "type": "function"
    },
    {
      "stateMutability": "payable",
      "type": "receive"
    }
  ],
  "bytecode": "0x60a06040523060805234801561001457600080fd5b50608051615a666200004d6000396000818161132d0152818161136d015281816119bc015281816119fc0152611b830152615a666000f3fe6080604052600436106102975760003560e01c8063715018a61161015a578063a0b6105f116100c1578063db8e64ab1161007a578063db8e64ab14610803578063e1c715ba14610823578063f2fde38b14610843578063f41bfeef14610863578063fafc959714610879578063fb47e0161461089b57600080fd5b8063a0b6105f1461075a578063a152b0f01461077a578063a28a36861461078d578063a43ae408146107b0578063bcb93f9b146107d0578063cd21364d146107e357600080fd5b80638129fc1c116101135780638129fc1c146106c1578063852ff2fd146106d65780638af925dc146106ec5780638c351fac146107065780638da5cb5b146107265780638f84de851461074457600080fd5b8063715018a6146106095780637879b5ef1461061e5780637ade95d31461063e5780637bdbf9961461065e5780637c5994861461068b5780637cf97c8c146106a157600080fd5b8063365b98b2116101fe5780634f1ef286116101b75780634f1ef28614610552578063509d6c521461056557806352d1902d146105855780636ccc10ae1461059a5780636f38e410146105ba5780637084431f146105da57600080fd5b8063365b98b214610465578063390a5ba5146104855780633eff2def146104b7578063473b0d46146104d7578063498b3e55146104f75780634e6e93a31461051757600080fd5b806322f88b521161025057806322f88b52146103b65780632ed421d2146103cc578063300825b5146103e2578063313ce5671461040257806335759788146104305780633659cfe61461044557600080fd5b8063012da720146102a35780630b243dad146102d95780631319cff9146102fb57806318e10bff146103335780631f9e65e414610366578063210097891461038957600080fd5b3661029e57005b600080fd5b3480156102af57600080fd5b506102c36102be366004614eb5565b6108c8565b6040516102d09190614ed8565b60405180910390f35b3480156102e557600080fd5b506102f96102f4366004614f37565b61095d565b005b34801561030757600080fd5b5061031b610316366004614f63565b6109a0565b6040516001600160a01b0390911681526020016102d0565b34801561033f57600080fd5b5060d554610354906301000000900460ff1681565b60405160ff90911681526020016102d0565b34801561037257600080fd5b5061037b6109ca565b6040519081526020016102d0565b34801561039557600080fd5b506103a96103a4366004614f8e565b6109dc565b6040516102d0919061506c565b3480156103c257600080fd5b5061037b60d05481565b3480156103d857600080fd5b5061037b60d15481565b3480156103ee57600080fd5b506102f96103fd366004614f8e565b610fbd565b34801561040e57600080fd5b5060cb5461041d9061ffff1681565b60405161ffff90911681526020016102d0565b34801561043c57600080fd5b506102f96112ec565b34801561045157600080fd5b506102f9610460366004615304565b611323565b34801561047157600080fd5b5061031b610480366004614f63565b6113ff565b34801561049157600080fd5b5060cf546104a29063ffffffff1681565b60405163ffffffff90911681526020016102d0565b3480156104c357600080fd5b506102f96104d2366004614eb5565b61140f565b3480156104e357600080fd5b506102f96104f2366004614f63565b611435565b34801561050357600080fd5b506102f9610512366004615321565b611442565b34801561052357600080fd5b50610537610532366004614f8e565b6114e8565b604080519384526020840192909252908201526060016102d0565b6102f9610560366004615367565b6119b2565b34801561057157600080fd5b506102f961058036600461542b565b611a7e565b34801561059157600080fd5b5061037b611b76565b3480156105a657600080fd5b506102f96105b536600461542b565b611c29565b3480156105c657600080fd5b5060cb546103549062010000900460ff1681565b3480156105e657600080fd5b5060d5546105f990610100900460ff1681565b60405190151581526020016102d0565b34801561061557600080fd5b506102f9611cd0565b34801561062a57600080fd5b5061041d610639366004614f63565b611ce4565b34801561064a57600080fd5b506102f9610659366004615495565b611d1c565b34801561066a57600080fd5b5061067e610679366004614eb5565b611e6a565b6040516102d091906154fa565b34801561069757600080fd5b5061037b60ce5481565b3480156106ad57600080fd5b506102f96106bc3660046155a8565b612069565b3480156106cd57600080fd5b506102f9612338565b3480156106e257600080fd5b5061037b60cd5481565b3480156106f857600080fd5b5060d5546105f99060ff1681565b34801561071257600080fd5b506102f9610721366004615495565b6125d0565b34801561073257600080fd5b506033546001600160a01b031661031b565b34801561075057600080fd5b5061037b60cc5481565b34801561076657600080fd5b506102f9610775366004614f37565b6126ff565b6102f9610788366004614f8e565b612778565b34801561079957600080fd5b5060cf546103549065010000000000900460ff1681565b3480156107bc57600080fd5b506102f96107cb36600461560a565b612a10565b6102f96107de366004614f8e565b612a30565b3480156107ef57600080fd5b5060d5546103549062010000900460ff1681565b34801561080f57600080fd5b506102f961081e366004615495565b612cd4565b34801561082f57600080fd5b506102f961083e36600461562e565b612e36565b34801561084f57600080fd5b506102f961085e366004615304565b612e4a565b34801561086f57600080fd5b5061037b60d25481565b34801561088557600080fd5b5060cf546105f990640100000000900460ff1681565b3480156108a757600080fd5b506108bb6108b6366004615304565b612ec0565b6040516102d09190615670565b60ff8116600090815260d8602090815260409182902060090180548351818402810184019094528084526060939283018282801561095157602002820191906000526020600020906000905b82829054906101000a900463ffffffff1663ffffffff16815260200190600401906020826003010492830192600103820291508084116109145790505b50505050509050919050565b610965613026565b6040516001600160a01b0383169082156108fc029083906000818181858888f1935050505015801561099b573d6000803e3d6000fd5b505050565b60d381815481106109b057600080fd5b6000918252602090912001546001600160a01b0316905081565b60006109d760cc54613080565b905090565b610b12604051806104800160405280600063ffffffff168152602001606081526020016000815260200160001515815260200160006001600160a01b03168152602001600063ffffffff168152602001600015158152602001606081526020016060815260200160608152602001606081526020016000815260200160008152602001600081526020016000815260200160008152602001600081526020016000815260200160008152602001600060ff168152602001600063ffffffff16815260200160008152602001600081526020016000815260200160008152602001600081526020016000815260200160008152602001606081526020016000815260200160008152602001600081526020016000151581526020016000151581526020016000151581526020016000151581525090565b63ffffffff808316600090815260d76020908152604091829020825161048081019093528054909316825260018301805492939291840191610b53906156b5565b80601f0160208091040260200160405190810160405280929190818152602001828054610b7f906156b5565b8015610bcc5780601f10610ba157610100808354040283529160200191610bcc565b820191906000526020600020905b815481529060010190602001808311610baf57829003601f168201915b50505091835250506002820154602080830191909152600383015460ff80821615156040808601919091526001600160a01b03610100840416606086015263ffffffff600160a81b8404166080860152600160c81b90920416151560a084015260048401805482518185028101850190935280835260c0909401939192909190830182828015610ca757602002820191906000526020600020906000905b82829054906101000a900463ffffffff1663ffffffff1681526020019060040190602082600301049283019260010382029150808411610c6a5790505b5050505050815260200160058201805480602002602001604051908101604052809291908181526020018280548015610d2b57602002820191906000526020600020906000905b82829054906101000a900463ffffffff1663ffffffff1681526020019060040190602082600301049283019260010382029150808411610cee5790505b5050505050815260200160068201805480602002602001604051908101604052809291908181526020018280548015610daf57602002820191906000526020600020906000905b82829054906101000a900463ffffffff1663ffffffff1681526020019060040190602082600301049283019260010382029150808411610d725790505b5050505050815260200160078201805480602002602001604051908101604052809291908181526020018280548015610e0757602002820191906000526020600020905b815481526020019060010190808311610df3575b505050918352505060088201546020808301919091526009830154604080840191909152600a8401546060840152600b8401546080840152600c84015460a0840152600d84015460c0840152600e84015460e0840152600f84015461010080850191909152601085015460ff81166101208601520463ffffffff166101408401526011840154610160840152601284015461018084015260138401546101a084015260148401546101c084015260158401546101e084015260168401546102008401526017840154610220840152601884018054825181850281018501909352808352610240909401939192909190830182828015610f5157602002820191906000526020600020906000905b82829054906101000a900463ffffffff1663ffffffff1681526020019060040190602082600301049283019260010382029150808411610f145790505b505050918352505060198201546020820152601a8201546040820152601b8201546060820152601c9091015460ff8082161515608084015261010082048116151560a08401526201000082048116151560c0840152630100000090910416151560e09091015292915050565b63ffffffff8116600090815260d760205260409081902060c9549151630935e01b60e21b815233600482015290916001600160a01b0316906324d7806c90602401602060405180830381865afa15801561101b573d6000803e3d6000fd5b505050506040513d601f19601f8201168201806040525081019061103f91906156fd565b61117e57600381015461010090046001600160a01b031633146110a95760405162461bcd60e51b815260206004820152601d60248201527f596f7520617265206e6f74206f776e6572206f6620746869732069642e00000060448201526064015b60405180910390fd5b678ac7230489e8000081601b015410156111115760405162461bcd60e51b8152602060048201526024808201527f42616c616e6365206973206c657373207468616e206d696e20776974686472616044820152633bb0b61760e11b60648201526084016110a0565b601c8101546301000000900460ff1661117e5760405162461bcd60e51b815260206004820152602960248201527f54686973206964207769746864726177206973206e6f7420656e61626c656420604482015268313c9030b236b4b71760b91b60648201526084016110a0565b601b81015460d55460009060649061119f9062010000900460ff1684615730565b6111a99190615747565b905060c960009054906101000a90046001600160a01b03166001600160a01b031662f9cc666040518163ffffffff1660e01b8152600401602060405180830381865afa1580156111fd573d6000803e3d6000fd5b505050506040513d601f19601f820116820180604052508101906112219190615769565b6003840154604051633528777d60e11b81526001600160a01b036101009092048216600482015260248101849052911690636a50eefa90604401600060405180830381600087803b15801561127557600080fd5b505af1158015611289573d6000803e3d6000fd5b50505050600383015461010090046001600160a01b03166108fc6112b56112b08486615786565b613080565b6040518115909202916000818181858888f193505050501580156112dd573d6000803e3d6000fd5b5082601b016000905550505050565b6112f4613026565b60405133904780156108fc02916000818181858888f19350505050158015611320573d6000803e3d6000fd5b50565b6001600160a01b037f000000000000000000000000000000000000000000000000000000000000000016300361136b5760405162461bcd60e51b81526004016110a090615799565b7f00000000000000000000000000000000000000000000000000000000000000006001600160a01b03166113b46000805160206159ea833981519152546001600160a01b031690565b6001600160a01b0316146113da5760405162461bcd60e51b81526004016110a0906157e5565b6113e38161317e565b6040805160008082526020820190925261132091839190613186565b60d481815481106109b057600080fd5b611417613026565b60cb805460ff909216620100000262ff000019909216919091179055565b61143d613026565b60cc55565b60c954604051630935e01b60e21b81523360048201526001600160a01b03909116906324d7806c90602401602060405180830381865afa15801561148a573d6000803e3d6000fd5b505050506040513d601f19601f820116820180604052508101906114ae91906156fd565b6114ca5760405162461bcd60e51b81526004016110a090615831565b60d554610100900460ff16156114e4576114e482826132f1565b5050565b63ffffffff808216600090815260d76020908152604080832081516104808101909252805490941681526001840180549394859485948594939084019161152e906156b5565b80601f016020809104026020016040519081016040528092919081815260200182805461155a906156b5565b80156115a75780601f1061157c576101008083540402835291602001916115a7565b820191906000526020600020905b81548152906001019060200180831161158a57829003601f168201915b50505091835250506002820154602080830191909152600383015460ff80821615156040808601919091526001600160a01b03610100840416606086015263ffffffff600160a81b8404166080860152600160c81b90920416151560a084015260048401805482518185028101850190935280835260c090940193919290919083018282801561168257602002820191906000526020600020906000905b82829054906101000a900463ffffffff1663ffffffff16815260200190600401906020826003010492830192600103820291508084116116455790505b505050505081526020016005820180548060200260200160405190810160405280929190818152602001828054801561170657602002820191906000526020600020906000905b82829054906101000a900463ffffffff1663ffffffff16815260200190600401906020826003010492830192600103820291508084116116c95790505b505050505081526020016006820180548060200260200160405190810160405280929190818152602001828054801561178a57602002820191906000526020600020906000905b82829054906101000a900463ffffffff1663ffffffff168152602001906004019060208260030104928301926001038202915080841161174d5790505b50505050508152602001600782018054806020026020016040519081016040528092919081815260200182805480156117e257602002820191906000526020600020905b8154815260200190600101908083116117ce575b505050918352505060088201546020808301919091526009830154604080840191909152600a8401546060840152600b8401546080840152600c84015460a0840152600d84015460c0840152600e84015460e0840152600f84015461010080850191909152601085015460ff81166101208601520463ffffffff166101408401526011840154610160840152601284015461018084015260138401546101a084015260148401546101c084015260158401546101e08401526016840154610200840152601784015461022084015260188401805482518185028101850190935280835261024090940193919290919083018282801561192c57602002820191906000526020600020906000905b82829054906101000a900463ffffffff1663ffffffff16815260200190600401906020826003010492830192600103820291508084116118ef5790505b505050918352505060198201546020820152601a8201546040820152601b8201546060820152601c9091015460ff8082161515608084015261010082048116151560a08401526201000082048116151560c0840152630100000090910416151560e0909101526102c08101516102e0820151610300909201519097919650945092505050565b6001600160a01b037f00000000000000000000000000000000000000000000000000000000000000001630036119fa5760405162461bcd60e51b81526004016110a090615799565b7f00000000000000000000000000000000000000000000000000000000000000006001600160a01b0316611a436000805160206159ea833981519152546001600160a01b031690565b6001600160a01b031614611a695760405162461bcd60e51b81526004016110a0906157e5565b611a728261317e565b6114e482826001613186565b60c954604051630935e01b60e21b81523360048201526001600160a01b03909116906324d7806c90602401602060405180830381865afa158015611ac6573d6000803e3d6000fd5b505050506040513d601f19601f82011682018060405250810190611aea91906156fd565b611b065760405162461bcd60e51b81526004016110a090615831565b63ffffffff8216600090815260d76020526040812042601a82015560198101805491928492611b3690849061585d565b9250508190555081816012016000828254611b51919061585d565b925050819055508181601b016000828254611b6c919061585d565b9091555050505050565b6000306001600160a01b037f00000000000000000000000000000000000000000000000000000000000000001614611c165760405162461bcd60e51b815260206004820152603860248201527f555550535570677261646561626c653a206d757374206e6f742062652063616c60448201527f6c6564207468726f7567682064656c656761746563616c6c000000000000000060648201526084016110a0565b506000805160206159ea83398151915290565b60c954604051630935e01b60e21b81523360048201526001600160a01b03909116906324d7806c90602401602060405180830381865afa158015611c71573d6000803e3d6000fd5b505050506040513d601f19601f82011682018060405250810190611c9591906156fd565b611cb15760405162461bcd60e51b81526004016110a090615831565b63ffffffff8216600090815260d76020526040902061099b8183613a28565b611cd8613026565b611ce26000613ab2565b565b60ca8181548110611cf457600080fd5b9060005260206000209060109182820401919006600202915054906101000a900461ffff1681565b60c954604051630935e01b60e21b81523360048201526001600160a01b03909116906324d7806c90602401602060405180830381865afa158015611d64573d6000803e3d6000fd5b505050506040513d601f19601f82011682018060405250810190611d8891906156fd565b611da45760405162461bcd60e51b81526004016110a090615831565b60005b8363ffffffff168563ffffffff1611611e635763ffffffff8516600090815260d760209081526040808320600381015461010090046001600160a01b0316845260d69092529091205460ff1615611e425783838361ffff16818110611e0e57611e0e615870565b9050602002016020810190611e239190615886565b601c8201805491151563010000000263ff000000199092169190911790555b81611e4c816158a3565b925050508480611e5b906158c4565b955050611da7565b5050505050565b611ec5604051806101400160405280600060ff16815260200160008152602001600081526020016000815260200160608152602001600081526020016000815260200160008152602001600015158152602001606081525090565b60ff808316600090815260d860209081526040918290208251610140810184528154909416845260018101549184019190915260028101549183019190915260038101546060830152600481018054608084019190611f23906156b5565b80601f0160208091040260200160405190810160405280929190818152602001828054611f4f906156b5565b8015611f9c5780601f10611f7157610100808354040283529160200191611f9c565b820191906000526020600020905b815481529060010190602001808311611f7f57829003601f168201915b505050505081526020016005820154815260200160068201548152602001600782015481526020016008820160009054906101000a900460ff161515151581526020016009820180548060200260200160405190810160405280929190818152602001828054801561205957602002820191906000526020600020906000905b82829054906101000a900463ffffffff1663ffffffff168152602001906004019060208260030104928301926001038202915080841161201c5790505b5050505050815250509050919050565b60c954604051630935e01b60e21b81523360048201526001600160a01b03909116906324d7806c90602401602060405180830381865afa1580156120b1573d6000803e3d6000fd5b505050506040513d601f19601f820116820180604052508101906120d591906156fd565b6120f15760405162461bcd60e51b81526004016110a090615831565b60cf546000906121089063ffffffff1660016158dd565b6001600160a01b038916600090815260d66020908152604080832063ffffffff8516845260d79092529091209192509061215e818b858c8c61214b816003615730565b60cb548e9062010000900460ff16613b04565b60d55460ff16156122bd5760c954604080516344846f9d60e11b815290516000926001600160a01b031691638908df3a9160048083019260209291908290030181865afa1580156121b3573d6000803e3d6000fd5b505050506040513d601f19601f820116820180604052508101906121d79190615769565b6001600160a01b031663d275f14e858b8a8a6121f68b62015180615730565b6040516001600160e01b031960e088901b16815263ffffffff959095166004860152602485019390935260448401919091526064830152608482015260a4016020604051808303816000875af1158015612254573d6000803e3d6000fd5b505050506040513d601f19601f820116820180604052508101906122789190615901565b601883018054600181018255600091825260209091206008820401805460079092166004026101000a63ffffffff818102199093169390921691909102919091179055505b6001828101805491820181556000908152602081206008830401805460079093166004026101000a63ffffffff818102199094168785169190910217905560cf8054909216919061230d836158c4565b91906101000a81548163ffffffff021916908363ffffffff1602179055505050505050505050505050565b600054610100900460ff16158080156123585750600054600160ff909116105b806123725750303b158015612372575060005460ff166001145b6123d55760405162461bcd60e51b815260206004820152602e60248201527f496e697469616c697a61626c653a20636f6e747261637420697320616c72656160448201526d191e481a5b9a5d1a585b1a5e995960921b60648201526084016110a0565b6000805460ff1916600117905580156123f8576000805461ff0019166101001790555b60c980546001600160a01b031916730b8bf5feb9fca57d9c5d27185ddf3017e99a2d3617905560cb805461ffff19166103e8179055604080516103a08101825260648152604660208201526032918101829052606081018290526080810182905260a0810182905260c0810182905260e08101829052610100810182905261012081018290526101408101829052610160810182905261018081018290526101a081018290526101c081018290526101e08101829052610200810182905261022081018290526102408101919091526014610260820181905261028082018190526102a082018190526102c082018190526102e0820181905261030082018190526103208201819052610340820181905261036082018190526103808201526125259060ca90601d614cf0565b5060cb805462ff000019166232000017905568056bc75e2d6310000060cc5560cf8054660200000000000066ff00ff000000001990911617905560d5805462278d0060d25562ffffff19166214010117905561257f613e90565b612587613ebf565b8015611320576000805461ff0019169055604051600181527f7f26b83ff96e1f2b6a682f133852f6798a09c465da95921460cefb3847402498906020015b60405180910390a150565b60c954604051630935e01b60e21b81523360048201526001600160a01b03909116906324d7806c90602401602060405180830381865afa158015612618573d6000803e3d6000fd5b505050506040513d601f19601f8201168201806040525081019061263c91906156fd565b6126585760405162461bcd60e51b81526004016110a090615831565b60005b8363ffffffff168563ffffffff1611611e635763ffffffff8516600090815260d760205260409020838361ffff841681811061269957612699615870565b90506020020160208101906126ae9190615886565b600382015461010090046001600160a01b0316600090815260d660205260409020805460ff1916911515919091179055816126e8816158a3565b9250505084806126f7906158c4565b95505061265b565b612707613026565b60405163a9059cbb60e01b8152336004820152602481018290526001600160a01b0383169063a9059cbb906044016020604051808303816000875af1158015612754573d6000803e3d6000fd5b505050506040513d601f19601f8201168201806040525081019061099b91906156fd565b34600061278482613ee6565b905060cc548110156127d85760405162461bcd60e51b815260206004820152601f60248201527f56616c7565206c657373207468656e206d696e436f6e747269627574696f6e0060448201526064016110a0565b63ffffffff8316600090815260d76020526040812033914291906127fd856003615730565b826012015483601401546128119190615786565b61281b919061585d565b905060006003836014015460026128329190615730565b61283c9190615747565b83601201541061284d576000612885565b600383601201546003856014015460026128679190615730565b6128719190615747565b61287b9190615786565b6128859190615747565b90506128aa83868a60008a878a60cb60029054906101000a900460ff1660ff16613b04565b60d55460ff1615612a065760c954604080516344846f9d60e11b815290516000926001600160a01b031691638908df3a9160048083019260209291908290030181865afa1580156128ff573d6000803e3d6000fd5b505050506040513d601f19601f820116820180604052508101906129239190615769565b6001600160a01b031663d275f14e8a61293c858b61585d565b6040516001600160e01b031960e085901b16815263ffffffff9290921660048301526024820152604481018890526064810188905263020f5800608482015260a4016020604051808303816000875af115801561299d573d6000803e3d6000fd5b505050506040513d601f19601f820116820180604052508101906129c19190615901565b601885018054600181018255600091825260209091206008820401805460079092166004026101000a63ffffffff818102199093169390921691909102919091179055505b5050505050505050565b612a18613026565b60cb805461ffff191661ffff92909216919091179055565b346000612a3c82613ee6565b905060cc54811015612a905760405162461bcd60e51b815260206004820152601f60248201527f56616c7565206c657373207468656e206d696e436f6e747269627574696f6e0060448201526064016110a0565b60cf5433904290600090612aab9063ffffffff1660016158dd565b6001600160a01b038416600090815260d66020908152604080832063ffffffff8516845260d790925290912091925090612b018186858b8a612aee816003615730565b60cb548b9062010000900460ff16613b04565b60d55460ff1615612c505760c954604080516344846f9d60e11b815290516000926001600160a01b031691638908df3a9160048083019260209291908290030181865afa158015612b56573d6000803e3d6000fd5b505050506040513d601f19601f82011682018060405250810190612b7a9190615769565b60405163693af8a760e11b815263ffffffff8616600482015260248101899052604481018790526064810187905263020f580060848201526001600160a01b03919091169063d275f14e9060a4016020604051808303816000875af1158015612be7573d6000803e3d6000fd5b505050506040513d601f19601f82011682018060405250810190612c0b9190615901565b601883018054600181018255600091825260209091206008820401805460079092166004026101000a63ffffffff818102199093169390921691909102919091179055505b6001828101805480830182556000918252602082206008820401805460079092166004026101000a63ffffffff8181021990931688841691909102179055845460ff1916909217845560cf80549092169190612cab836158c4565b91906101000a81548163ffffffff021916908363ffffffff160217905550505050505050505050565b60c954604051630935e01b60e21b81523360048201526001600160a01b03909116906324d7806c90602401602060405180830381865afa158015612d1c573d6000803e3d6000fd5b505050506040513d601f19601f82011682018060405250810190612d4091906156fd565b612d5c5760405162461bcd60e51b81526004016110a090615831565b60005b8363ffffffff168563ffffffff1611611e635763ffffffff8516600090815260d76020526040812090848461ffff8516818110612d9e57612d9e615870565b9050602002016020810190612db39190615304565b6001600160a01b031614612e155783838361ffff16818110612dd757612dd7615870565b9050602002016020810190612dec9190615304565b8160030160016101000a8154816001600160a01b0302191690836001600160a01b031602179055505b81612e1f816158a3565b925050508480612e2e906158c4565b955050612d5f565b612e3e613026565b61099b60ca8383614d98565b612e52613026565b6001600160a01b038116612eb75760405162461bcd60e51b815260206004820152602660248201527f4f776e61626c653a206e6577206f776e657220697320746865207a65726f206160448201526564647265737360d01b60648201526084016110a0565b61132081613ab2565b612ee6604051806060016040528060001515815260200160608152602001606081525090565b6001600160a01b038216600090815260d660209081526040918290208251606081018452815460ff161515815260018201805485518186028101860190965280865291949293858101939290830182828015612f8d57602002820191906000526020600020906000905b82829054906101000a900463ffffffff1663ffffffff1681526020019060040190602082600301049283019260010382029150808411612f505790505b50505050508152602001600282018054612fa6906156b5565b80601f0160208091040260200160405190810160405280929190818152602001828054612fd2906156b5565b80156120595780601f10612ff457610100808354040283529160200191612059565b820191906000526020600020905b81548152906001019060200180831161300257505050919092525091949350505050565b6033546001600160a01b03163314611ce25760405162461bcd60e51b815260206004820181905260248201527f4f776e61626c653a2063616c6c6572206973206e6f7420746865206f776e657260448201526064016110a0565b60008060c960009054906101000a90046001600160a01b03166001600160a01b0316632913497b6040518163ffffffff1660e01b8152600401602060405180830381865afa1580156130d6573d6000803e3d6000fd5b505050506040513d601f19601f820116820180604052508101906130fa9190615769565b6001600160a01b031663e1aa60366040518163ffffffff1660e01b8152600401602060405180830381865afa158015613137573d6000803e3d6000fd5b505050506040513d601f19601f8201168201806040525081019061315b919061591e565b61316d84670de0b6b3a7640000615730565b6131779190615747565b9392505050565b611320613026565b7f4910fdfa16fed3260ed0e7147f7cc6da11a60208b5b9406d12a635614ffd91435460ff16156131b95761099b83613fd4565b826001600160a01b03166352d1902d6040518163ffffffff1660e01b8152600401602060405180830381865afa925050508015613213575060408051601f3d908101601f191682019092526132109181019061591e565b60015b6132765760405162461bcd60e51b815260206004820152602e60248201527f45524331393637557067726164653a206e657720696d706c656d656e7461746960448201526d6f6e206973206e6f74205555505360901b60648201526084016110a0565b6000805160206159ea83398151915281146132e55760405162461bcd60e51b815260206004820152602960248201527f45524331393637557067726164653a20756e737570706f727465642070726f786044820152681a58589b195555525160ba1b60648201526084016110a0565b5061099b838383614070565b600060ca80548060200260200160405190810160405280929190818152602001828054801561336757602002820191906000526020600020906000905b82829054906101000a900461ffff1661ffff168152602001906002019060208260010104928301926001038202915080841161332e5790505b5050835163ffffffff8716600090815260d7602052604081209596509094935091508190505b8360ff168160ff161015613a0857600383015463ffffffff600160a81b9091048116600081815260d7602052604081208054929390921690036133d1575050613a08565b6133da8161409b565b156134525760405172149959995c995c881a5cc8111a5cd8589b1959606a1b81526013015b604051908190039020613413846001615937565b60ff168363ffffffff167f915ed47901013ad29e90ede828f72888f54bd58cea141b0c6967498165382eb560405160405180910390a493506139f69050565b604080516104808101909152815463ffffffff1681526001820180546138ed92918491602084019190613484906156b5565b80601f01602080910402602001604051908101604052809291908181526020018280546134b0906156b5565b80156134fd5780601f106134d2576101008083540402835291602001916134fd565b820191906000526020600020905b8154815290600101906020018083116134e057829003601f168201915b50505091835250506002820154602080830191909152600383015460ff80821615156040808601919091526001600160a01b03610100840416606086015263ffffffff600160a81b8404166080860152600160c81b90920416151560a084015260048401805482518185028101850190935280835260c09094019391929091908301828280156135d857602002820191906000526020600020906000905b82829054906101000a900463ffffffff1663ffffffff168152602001906004019060208260030104928301926001038202915080841161359b5790505b505050505081526020016005820180548060200260200160405190810160405280929190818152602001828054801561365c57602002820191906000526020600020906000905b82829054906101000a900463ffffffff1663ffffffff168152602001906004019060208260030104928301926001038202915080841161361f5790505b50505050508152602001600682018054806020026020016040519081016040528092919081815260200182805480156136e057602002820191906000526020600020906000905b82829054906101000a900463ffffffff1663ffffffff16815260200190600401906020826003010492830192600103820291508084116136a35790505b505050505081526020016007820180548060200260200160405190810160405280929190818152602001828054801561373857602002820191906000526020600020905b815481526020019060010190808311613724575b505050918352505060088201546020808301919091526009830154604080840191909152600a8401546060840152600b8401546080840152600c84015460a0840152600d84015460c0840152600e84015460e0840152600f84015461010080850191909152601085015460ff81166101208601520463ffffffff166101408401526011840154610160840152601284015461018084015260138401546101a084015260148401546101c084015260158401546101e08401526016840154610200840152601784015461022084015260188401805482518185028101850190935280835261024090940193919290919083018282801561388257602002820191906000526020600020906000905b82829054906101000a900463ffffffff1663ffffffff16815260200190600401906020826003010492830192600103820291508084116138455790505b505050918352505060198201546020820152601a8201546040820152601b8201546060820152601c9091015460ff8082161515608084015261010082048116151560a08401526201000082048116151560c0840152630100000090910416151560e09091015261421c565b6138f8846001615937565b60ff16111561392f576040517f446f776e6c696e65206c6576656c73206c696d697420726561636865640000008152601d016133ff565b60cb54875160009161ffff1690899060ff871690811061395157613951615870565b602002602001015161ffff168b6139689190615730565b6139729190615747565b905080826017016000828254613988919061585d565b9091555061399890508282613a28565b6139a2818661585d565b94508063ffffffff808516908b167ff8fb9b5ab69a0208214661678427c6b48abf457f53605d1f559d17452f1eea116139dc886001615937565b60405160ff909116815260200160405180910390a4509350505b80613a0081615950565b91505061338d565b508060ce6000828254613a1b919061585d565b9091555050505050505050565b8160140154818360120154613a3d919061585d565b11613a7c5780826012016000828254613a56919061585d565b925050819055508082601b016000828254613a71919061585d565b909155506114e49050565b81601201548260140154613a909190615786565b82601b016000828254613aa3919061585d565b909155506114e490508261425b565b603380546001600160a01b038381166001600160a01b0319831681179093556040519116919082907f8be0079c531659141344cd1fd0a4f28419497f9722a3daafe3b4186f6b6457e090600090a35050565b875463ffffffff16600003613b2757875463ffffffff191663ffffffff87161788555b601c88015460ff16613b4357601c8801805460ff191660011790555b600388015460ff16613b9b5760d480546001810182556000919091527f9780e26d96b1f2a9a18ef8fc72d589dbf03ef788137b64f43897e83a91e7feec0180546001600160a01b0319166001600160a01b0389161790555b600388015461010090046001600160a01b0316613bd557600388018054610100600160a81b0319166101006001600160a01b038a16021790555b8760020154600003613be957600288018290555b6003880154600160c81b900460ff16613c2d5760038801805460ff60c81b1963ffffffff8816600160a81b021664ffffffffff60a81b1990911617600160c81b1790555b60006012890155613c3f600384615747565b60138901556014880183905560078801805460018101825560009182526020822001859055600889018054869290613c7890849061585d565b9091555050601588018290556040805160008152602081019182905251613ca39160188b0191614e03565b50601c8801805463ff0000001916630100000017905560005b818160ff161015613e8557600389015463ffffffff600160a81b9091048116600081815260d760205260408120805492939092169003613cfd575050613e85565b8260ff16600003613d5f578681600a016000828254613d1c919061585d565b909155505060048181018054600181018255600091825260209091206008820401805460079092169092026101000a63ffffffff81810219909216918c16021790555b8681600c016000828254613d73919061585d565b909155505063ffffffff881615613e475760058101805460018082018355600092835260209092206008820401805460079092166004026101000a63ffffffff81810219909316928d16029190911790556006820190613dd4908590615937565b81546001810183556000928352602083206008820401805463ffffffff60079093166004026101000a8381021990911660ff9490941602929092179091558254604051908216928b8316928d16917f3ec54e926fe5dd86406fe57832ff318517aed2a5cfbeacfb90a5e9489483ae4b9190a45b60cf54640100000000900460ff1615613e6557613e65818887614303565b613e6f8786614a5d565b9950819050613e7d81615950565b915050613cbc565b505050505050505050565b600054610100900460ff16613eb75760405162461bcd60e51b81526004016110a09061596f565b611ce2614a97565b600054610100900460ff16611ce25760405162461bcd60e51b81526004016110a09061596f565b600080670de0b6b3a764000060c960009054906101000a90046001600160a01b03166001600160a01b0316632913497b6040518163ffffffff1660e01b8152600401602060405180830381865afa158015613f45573d6000803e3d6000fd5b505050506040513d601f19601f82011682018060405250810190613f699190615769565b6001600160a01b031663e1aa60366040518163ffffffff1660e01b8152600401602060405180830381865afa158015613fa6573d6000803e3d6000fd5b505050506040513d601f19601f82011682018060405250810190613fca919061591e565b61316d9085615730565b6001600160a01b0381163b6140415760405162461bcd60e51b815260206004820152602d60248201527f455243313936373a206e657720696d706c656d656e746174696f6e206973206e60448201526c1bdd08184818dbdb9d1c9858dd609a1b60648201526084016110a0565b6000805160206159ea83398151915280546001600160a01b0319166001600160a01b0392909216919091179055565b61407983614ac7565b6000825111806140865750805b1561099b576140958383614b07565b50505050565b601c81015460009060ff1615806140ba57508160140154826012015410155b156140c757506001919050565b601882015415801590614207575060c960009054906101000a90046001600160a01b03166001600160a01b0316638908df3a6040518163ffffffff1660e01b8152600401602060405180830381865afa158015614128573d6000803e3d6000fd5b505050506040513d601f19601f8201168201806040525081019061414c9190615769565b6001600160a01b03166355332a8583601801600185601801805490506141729190615786565b8154811061418257614182615870565b6000918252602090912060088204015460405160e084901b6001600160e01b0319168152600790921660049081026101000a90910463ffffffff1690820152602401602060405180830381865afa1580156141e1573d6000803e3d6000fd5b505050506040513d601f19601f8201168201806040525081019061420591906156fd565b155b1561421457506001919050565b506000919050565b60e0810151516000908181156131775760cf54600190614249906601000000000000900460ff1684615730565b6142539190615786565b949350505050565b601c8101805460ff191690556040805160008152602081019182905251614286916018840191614e03565b5060006012820181905560138201819055601482015542601682015580546040805163ffffffff9092168252602082018190526011908201527013585e08131a5b5a5d0814995858da1959607a1b60608201527fce8ab8f2ac6a94861f9740fa1fed3e6d13a85dfd8a4833bf96f3a0055ba7fb6f906080016125c5565b6010830154604080516104808101909152845463ffffffff16815260018501805460ff909316926147a992918791602084019190614340906156b5565b80601f016020809104026020016040519081016040528092919081815260200182805461436c906156b5565b80156143b95780601f1061438e576101008083540402835291602001916143b9565b820191906000526020600020905b81548152906001019060200180831161439c57829003601f168201915b50505091835250506002820154602080830191909152600383015460ff80821615156040808601919091526001600160a01b03610100840416606086015263ffffffff600160a81b8404166080860152600160c81b90920416151560a084015260048401805482518185028101850190935280835260c090940193919290919083018282801561449457602002820191906000526020600020906000905b82829054906101000a900463ffffffff1663ffffffff16815260200190600401906020826003010492830192600103820291508084116144575790505b505050505081526020016005820180548060200260200160405190810160405280929190818152602001828054801561451857602002820191906000526020600020906000905b82829054906101000a900463ffffffff1663ffffffff16815260200190600401906020826003010492830192600103820291508084116144db5790505b505050505081526020016006820180548060200260200160405190810160405280929190818152602001828054801561459c57602002820191906000526020600020906000905b82829054906101000a900463ffffffff1663ffffffff168152602001906004019060208260030104928301926001038202915080841161455f5790505b50505050508152602001600782018054806020026020016040519081016040528092919081815260200182805480156145f457602002820191906000526020600020905b8154815260200190600101908083116145e0575b505050918352505060088201546020808301919091526009830154604080840191909152600a8401546060840152600b8401546080840152600c84015460a0840152600d84015460c0840152600e84015460e0840152600f84015461010080850191909152601085015460ff81166101208601520463ffffffff166101408401526011840154610160840152601284015461018084015260138401546101a084015260148401546101c084015260158401546101e08401526016840154610200840152601784015461022084015260188401805482518185028101850190935280835261024090940193919290919083018282801561473e57602002820191906000526020600020906000905b82829054906101000a900463ffffffff1663ffffffff16815260200190600401906020826003010492830192600103820291508084116147015790505b505050918352505060198201546020820152601a8201546040820152601b8201546060820152601c9091015460ff8082161515608084015261010082048116151560a08401526201000082048116151560c0840152630100000090910416151560e090910152614bfd565b60ff16111561099b57604080516104808101909152835463ffffffff1681526001840180546147e492918691602084019190614340906156b5565b60108401805460ff191660ff9283169081178255600090815260d860209081526040808320885460099182018054600181810183559187529486206008860401805463ffffffff60079097166004026101000a87810219909116969093169092029490941790559354909416825292902001546148619190615786565b60108401805464ffffffff0019811661010063ffffffff948516810291821793849055875460408051918716825291909404909416602084015260ff918216911617918101919091527f4d3af8f60ffd033b575846f894122f2342b39bc9a90da98d0a966128702b568d9060600160405180910390a1604080516104808101909152835463ffffffff16815260018401805460d89260009261490d9288916020840191614340906156b5565b60ff908116825260208201929092526040016000206008015416156149cc57604080516104808101909152835463ffffffff16815260018401805460d8926000926149629288916020840191614340906156b5565b60ff1660ff1681526020019081526020016000206007015483600f0154614989919061585d565b8111156149b8578083600f01819055508183600e0160008282546149ad919061585d565b9091555061099b9050565b8183600e0160008282546149ad919061585d565b60cf54640100000000900460ff161561099b57601083015460ff16600090815260d86020526040902060050154614a04908490613a28565b601083015460ff908116600090815260d8602052604080822060058101549054875492519194169263ffffffff909216917fdeaf5b294f5016988108257045fc779d7d01e05a4ecdc4df70f62d5a799e053b91a4505050565b60d25460d154614a6d919061585d565b811115614a7c5760d15560d055565b8160d06000828254614a8e919061585d565b90915550505050565b600054610100900460ff16614abe5760405162461bcd60e51b81526004016110a09061596f565b611ce233613ab2565b614ad081613fd4565b6040516001600160a01b038216907fbc7cd75a20ee27fd9adebab32041f755214dbc6bffa90cc0225b39da2e5c2d3b90600090a250565b60606001600160a01b0383163b614b6f5760405162461bcd60e51b815260206004820152602660248201527f416464726573733a2064656c65676174652063616c6c20746f206e6f6e2d636f6044820152651b9d1c9858dd60d21b60648201526084016110a0565b600080846001600160a01b031684604051614b8a91906159ba565b600060405180830381855af49150503d8060008114614bc5576040519150601f19603f3d011682016040523d82523d6000602084013e614bca565b606091505b5091509150614bf28282604051806060016040528060278152602001615a0a60279139614cb2565b925050505b92915050565b60d5546000906301000000900460ff16815b8160ff168160ff161015614cab5760ff8116600090815260d8602052604090206001015461016085015110801590614c61575060ff8116600090815260d860205260409020600201546101a085015110155b8015614c87575060ff8116600090815260d860205260409020600301546101e085015110155b15614c9457809250614c99565b614cab565b80614ca381615950565b915050614c0f565b5050919050565b60608315614cc1575081613177565b6131778383815115614cd65781518083602001fd5b8060405162461bcd60e51b81526004016110a091906159d6565b82805482825590600052602060002090600f01601090048101928215614d885791602002820160005b83821115614d5857835183826101000a81548161ffff021916908360ff1602179055509260200192600201602081600101049283019260010302614d19565b8015614d865782816101000a81549061ffff0219169055600201602081600101049283019260010302614d58565b505b50614d94929150614ea0565b5090565b82805482825590600052602060002090600f01601090048101928215614d885791602002820160005b83821115614d5857833560ff1683826101000a81548161ffff021916908360ff1602179055509260200192600201602081600101049283019260010302614dc1565b82805482825590600052602060002090600701600890048101928215614d885791602002820160005b83821115614e7057835183826101000a81548163ffffffff021916908363ffffffff1602179055509260200192600401602081600301049283019260010302614e2c565b8015614d865782816101000a81549063ffffffff0219169055600401602081600301049283019260010302614e70565b5b80821115614d945760008155600101614ea1565b600060208284031215614ec757600080fd5b813560ff8116811461317757600080fd5b6020808252825182820181905260009190848201906040850190845b81811015614f1657835163ffffffff1683529284019291840191600101614ef4565b50909695505050505050565b6001600160a01b038116811461132057600080fd5b60008060408385031215614f4a57600080fd5b8235614f5581614f22565b946020939093013593505050565b600060208284031215614f7557600080fd5b5035919050565b63ffffffff8116811461132057600080fd5b600060208284031215614fa057600080fd5b813561317781614f7c565b60005b83811015614fc6578181015183820152602001614fae565b50506000910152565b60008151808452614fe7816020860160208601614fab565b601f01601f19169290920160200192915050565b600081518084526020808501945080840160005b8381101561503157815163ffffffff168752958201959082019060010161500f565b509495945050505050565b600081518084526020808501945080840160005b8381101561503157815187529582019590820190600101615050565b6020815261508360208201835163ffffffff169052565b600060208301516104808060408501526150a16104a0850183614fcf565b91506040850151606085015260608501516150c0608086018215159052565b5060808501516001600160a01b03811660a08601525060a085015163ffffffff811660c08601525060c085015180151560e08601525060e0850151601f196101008187860301818801526151148584614ffb565b9450808801519250506101208187860301818801526151338584614ffb565b9450808801519250506101408187860301818801526151528584614ffb565b945080880151925050610160818786030181880152615171858461503c565b90880151610180888101919091528801516101a0808901919091528801516101c0808901919091528801516101e0808901919091528801516102008089019190915288015161022080890191909152880151610240808901919091528801516102608089019190915288015190945091506102806151f38188018460ff169052565b87015191506102a061520c8782018463ffffffff169052565b8701516102c0878101919091528701516102e080880191909152870151610300808801919091528701516103208088019190915287015161034080880191909152870151610360808801919091528701516103808088019190915287015186850382016103a0808901919091529092506152868584614ffb565b908801516103c0888101919091528801516103e08089019190915288015161040080890191909152880151909450915061042090506152c88187018315159052565b86015190506104406152dd8682018315159052565b86015190506104606152f28682018315159052565b90950151151593019290925250919050565b60006020828403121561531657600080fd5b813561317781614f22565b6000806040838503121561533457600080fd5b82359150602083013561534681614f7c565b809150509250929050565b634e487b7160e01b600052604160045260246000fd5b6000806040838503121561537a57600080fd5b823561538581614f22565b9150602083013567ffffffffffffffff808211156153a257600080fd5b818501915085601f8301126153b657600080fd5b8135818111156153c8576153c8615351565b604051601f8201601f19908116603f011681019083821181831017156153f0576153f0615351565b8160405282815288602084870101111561540957600080fd5b8260208601602083013760006020848301015280955050505050509250929050565b6000806040838503121561543e57600080fd5b8235614f5581614f7c565b60008083601f84011261545b57600080fd5b50813567ffffffffffffffff81111561547357600080fd5b6020830191508360208260051b850101111561548e57600080fd5b9250929050565b600080600080606085870312156154ab57600080fd5b84356154b681614f7c565b935060208501356154c681614f7c565b9250604085013567ffffffffffffffff8111156154e257600080fd5b6154ee87828801615449565b95989497509550505050565b6020815261550e60208201835160ff169052565b602082015160408201526040820151606082015260608201516080820152600060808301516101408060a085015261554a610160850183614fcf565b915060a085015160c085015260c085015160e085015260e08501516101008181870152808701519150506101206155848187018315159052565b860151858403601f190183870152905061559e8382614ffb565b9695505050505050565b600080600080600080600060e0888a0312156155c357600080fd5b87356155ce81614f22565b965060208801356155de81614f7c565b96999698505050506040850135946060810135946080820135945060a0820135935060c0909101359150565b60006020828403121561561c57600080fd5b813561ffff8116811461317757600080fd5b6000806020838503121561564157600080fd5b823567ffffffffffffffff81111561565857600080fd5b61566485828601615449565b90969095509350505050565b6020815281511515602082015260006020830151606060408401526156986080840182614ffb565b90506040840151601f19848303016060850152614bf28282614fcf565b600181811c908216806156c957607f821691505b6020821081036156e957634e487b7160e01b600052602260045260246000fd5b50919050565b801515811461132057600080fd5b60006020828403121561570f57600080fd5b8151613177816156ef565b634e487b7160e01b600052601160045260246000fd5b8082028115828204841417614bf757614bf761571a565b60008261576457634e487b7160e01b600052601260045260246000fd5b500490565b60006020828403121561577b57600080fd5b815161317781614f22565b81810381811115614bf757614bf761571a565b6020808252602c908201527f46756e6374696f6e206d7573742062652063616c6c6564207468726f7567682060408201526b19195b1959d85d1958d85b1b60a21b606082015260800190565b6020808252602c908201527f46756e6374696f6e206d7573742062652063616c6c6564207468726f7567682060408201526b6163746976652070726f787960a01b606082015260800190565b6020808252601290820152712cb7ba9030b932903737ba1030b236b4b71760711b604082015260600190565b80820180821115614bf757614bf761571a565b634e487b7160e01b600052603260045260246000fd5b60006020828403121561589857600080fd5b8135613177816156ef565b600061ffff8083168181036158ba576158ba61571a565b6001019392505050565b600063ffffffff8083168181036158ba576158ba61571a565b63ffffffff8181168382160190808211156158fa576158fa61571a565b5092915050565b60006020828403121561591357600080fd5b815161317781614f7c565b60006020828403121561593057600080fd5b5051919050565b60ff8181168382160190811115614bf757614bf761571a565b600060ff821660ff81036159665761596661571a565b60010192915050565b6020808252602b908201527f496e697469616c697a61626c653a20636f6e7472616374206973206e6f74206960408201526a6e697469616c697a696e6760a81b606082015260800190565b600082516159cc818460208701614fab565b9190910192915050565b6020815260006131776020830184614fcf56fe360894a13ba1a3210667c828492db98dca3e2076cc3735a920a3ca505d382bbc416464726573733a206c6f772d6c6576656c2064656c65676174652063616c6c206661696c6564a2646970667358221220e03d9e61293ce921853f4f40ba14b10dfac32e0a7d29192e688bc2dcecf8b59564736f6c63430008120033",
  "linkReferences": {},
  "deployedLinkReferences": {}
}