{
  "_format": "hh-sol-artifact-1",
  "contractName": "ReferralV4Upgradeable",
  "sourceName": "contracts/ReferralV4Upgradeable.sol",
  "abi": [
    {
      "anonymous": false,
      "inputs": [
        {
          "indexed": false,
          "internalType": "uint32",
          "name": "id",
          "type": "uint32"
        }
      ],
      "name": "ActivatedId",
      "type": "event"
    },
    {
      "anonymous": false,
      "inputs": [
        {
          "indexed": false,
          "internalType": "uint32",
          "name": "id",
          "type": "uint32"
        },
        {
          "indexed": false,
          "internalType": "uint32",
          "name": "index",
          "type": "uint32"
        },
        {
          "indexed": false,
          "internalType": "uint8",
          "name": "rank",
          "type": "uint8"
        }
      ],
      "name": "AddedInRoyaltyClubList",
      "type": "event"
    },
    {
      "anonymous": false,
      "inputs": [
        {
          "indexed": false,
          "internalType": "address",
          "name": "previousAdmin",
          "type": "address"
        },
        {
          "indexed": false,
          "internalType": "address",
          "name": "newAdmin",
          "type": "address"
        }
      ],
      "name": "AdminChanged",
      "type": "event"
    },
    {
      "anonymous": false,
      "inputs": [
        {
          "indexed": true,
          "internalType": "address",
          "name": "beacon",
          "type": "address"
        }
      ],
      "name": "BeaconUpgraded",
      "type": "event"
    },
    {
      "anonymous": false,
      "inputs": [
        {
          "indexed": false,
          "internalType": "uint32",
          "name": "id",
          "type": "uint32"
        },
        {
          "indexed": false,
          "internalType": "string",
          "name": "reason",
          "type": "string"
        }
      ],
      "name": "DeactivatedId",
      "type": "event"
    },
    {
      "anonymous": false,
      "inputs": [
        {
          "indexed": false,
          "internalType": "uint8",
          "name": "version",
          "type": "uint8"
        }
      ],
      "name": "Initialized",
      "type": "event"
    },
    {
      "anonymous": false,
      "inputs": [
        {
          "indexed": false,
          "internalType": "uint32",
          "name": "id",
          "type": "uint32"
        },
        {
          "indexed": false,
          "internalType": "address",
          "name": "owner",
          "type": "address"
        }
      ],
      "name": "OwnerChangedId",
      "type": "event"
    },
    {
      "anonymous": false,
      "inputs": [
        {
          "indexed": true,
          "internalType": "address",
          "name": "previousOwner",
          "type": "address"
        },
        {
          "indexed": true,
          "internalType": "address",
          "name": "newOwner",
          "type": "address"
        }
      ],
      "name": "OwnershipTransferred",
      "type": "event"
    },
    {
      "anonymous": false,
      "inputs": [
        {
          "indexed": false,
          "internalType": "uint8",
          "name": "packageId",
          "type": "uint8"
        }
      ],
      "name": "PackageAdded",
      "type": "event"
    },
    {
      "anonymous": false,
      "inputs": [
        {
          "indexed": false,
          "internalType": "uint8",
          "name": "packageId",
          "type": "uint8"
        }
      ],
      "name": "PackageRemoved",
      "type": "event"
    },
    {
      "anonymous": false,
      "inputs": [
        {
          "indexed": false,
          "internalType": "uint8",
          "name": "packageId",
          "type": "uint8"
        }
      ],
      "name": "PackageUpdated",
      "type": "event"
    },
    {
      "anonymous": false,
      "inputs": [
        {
          "indexed": true,
          "internalType": "uint32",
          "name": "refererId",
          "type": "uint32"
        },
        {
          "indexed": true,
          "internalType": "uint8",
          "name": "level",
          "type": "uint8"
        },
        {
          "indexed": true,
          "internalType": "string",
          "name": "reason",
          "type": "string"
        }
      ],
      "name": "ReferralNotPaid",
      "type": "event"
    },
    {
      "anonymous": false,
      "inputs": [
        {
          "indexed": true,
          "internalType": "uint32",
          "name": "refereeId",
          "type": "uint32"
        },
        {
          "indexed": true,
          "internalType": "uint32",
          "name": "referrerId",
          "type": "uint32"
        },
        {
          "indexed": true,
          "internalType": "uint256",
          "name": "amount",
          "type": "uint256"
        },
        {
          "indexed": false,
          "internalType": "uint8",
          "name": "level",
          "type": "uint8"
        }
      ],
      "name": "ReferralRewardPaid",
      "type": "event"
    },
    {
      "anonymous": false,
      "inputs": [
        {
          "indexed": true,
          "internalType": "address",
          "name": "refereeId",
          "type": "address"
        },
        {
          "indexed": true,
          "internalType": "address",
          "name": "referrerId",
          "type": "address"
        },
        {
          "indexed": true,
          "internalType": "string",
          "name": "reason",
          "type": "string"
        }
      ],
      "name": "RegisterRefererFailed",
      "type": "event"
    },
    {
      "anonymous": false,
      "inputs": [
        {
          "indexed": true,
          "internalType": "uint32",
          "name": "id",
          "type": "uint32"
        },
        {
          "indexed": true,
          "internalType": "uint32",
          "name": "refererId",
          "type": "uint32"
        }
      ],
      "name": "RegisteredReferer",
      "type": "event"
    },
    {
      "anonymous": false,
      "inputs": [
        {
          "indexed": true,
          "internalType": "uint32",
          "name": "refereeId",
          "type": "uint32"
        },
        {
          "indexed": true,
          "internalType": "uint32",
          "name": "referrerId",
          "type": "uint32"
        },
        {
          "indexed": true,
          "internalType": "uint32",
          "name": "parentAccountId",
          "type": "uint32"
        }
      ],
      "name": "RegisteredTeamAddress",
      "type": "event"
    },
    {
      "anonymous": false,
      "inputs": [
        {
          "indexed": true,
          "internalType": "uint32",
          "name": "userid",
          "type": "uint32"
        },
        {
          "indexed": true,
          "internalType": "uint8",
          "name": "packageId",
          "type": "uint8"
        },
        {
          "indexed": true,
          "internalType": "uint256",
          "name": "amount",
          "type": "uint256"
        }
      ],
      "name": "RoyaltyClubBonusPaid",
      "type": "event"
    },
    {
      "anonymous": false,
      "inputs": [
        {
          "indexed": true,
          "internalType": "address",
          "name": "implementation",
          "type": "address"
        }
      ],
      "name": "Upgraded",
      "type": "event"
    },
    {
      "inputs": [
        {
          "internalType": "uint32",
          "name": "_refererId",
          "type": "uint32"
        }
      ],
      "name": "activateId",
      "outputs": [],
      "stateMutability": "payable",
      "type": "function"
    },
    {
      "inputs": [
        {
          "internalType": "uint32",
          "name": "_id",
          "type": "uint32"
        },
        {
          "internalType": "uint256",
          "name": "_valueInUSD",
          "type": "uint256"
        }
      ],
      "name": "claimBalance",
      "outputs": [],
      "stateMutability": "nonpayable",
      "type": "function"
    },
    {
      "inputs": [],
      "name": "companyTurnoverTimeLimit",
      "outputs": [
        {
          "internalType": "uint256",
          "name": "",
          "type": "uint256"
        }
      ],
      "stateMutability": "view",
      "type": "function"
    },
    {
      "inputs": [],
      "name": "companyTurnoverTimeStamp",
      "outputs": [
        {
          "internalType": "uint256",
          "name": "",
          "type": "uint256"
        }
      ],
      "stateMutability": "view",
      "type": "function"
    },
    {
      "inputs": [],
      "name": "companyTurnoverWithTimeLimit",
      "outputs": [
        {
          "internalType": "uint256",
          "name": "",
          "type": "uint256"
        }
      ],
      "stateMutability": "view",
      "type": "function"
    },
    {
      "inputs": [],
      "name": "decimals",
      "outputs": [
        {
          "internalType": "uint16",
          "name": "",
          "type": "uint16"
        }
      ],
      "stateMutability": "view",
      "type": "function"
    },
    {
      "inputs": [
        {
          "internalType": "address",
          "name": "_userAddress",
          "type": "address"
        }
      ],
      "name": "disableUserAdmin",
      "outputs": [],
      "stateMutability": "nonpayable",
      "type": "function"
    },
    {
      "inputs": [
        {
          "internalType": "uint256",
          "name": "",
          "type": "uint256"
        }
      ],
      "name": "disabledUsersList",
      "outputs": [
        {
          "internalType": "address",
          "name": "",
          "type": "address"
        }
      ],
      "stateMutability": "view",
      "type": "function"
    },
    {
      "inputs": [],
      "name": "futureScureWalletContribution",
      "outputs": [
        {
          "internalType": "uint8",
          "name": "",
          "type": "uint8"
        }
      ],
      "stateMutability": "view",
      "type": "function"
    },
    {
      "inputs": [
        {
          "internalType": "uint8",
          "name": "_packageId",
          "type": "uint8"
        }
      ],
      "name": "getAchieversList",
      "outputs": [
        {
          "internalType": "uint32[]",
          "name": "",
          "type": "uint32[]"
        }
      ],
      "stateMutability": "view",
      "type": "function"
    },
    {
      "inputs": [
        {
          "internalType": "uint32",
          "name": "_id",
          "type": "uint32"
        }
      ],
      "name": "getIdAccount",
      "outputs": [
        {
          "components": [
            {
              "internalType": "uint32",
              "name": "id",
              "type": "uint32"
            },
            {
              "internalType": "string",
              "name": "oldId",
              "type": "string"
            },
            {
              "internalType": "uint256",
              "name": "joiningTime",
              "type": "uint256"
            },
            {
              "internalType": "bool",
              "name": "isAddedToUserList",
              "type": "bool"
            },
            {
              "internalType": "address",
              "name": "owner",
              "type": "address"
            },
            {
              "internalType": "uint32",
              "name": "refererId",
              "type": "uint32"
            },
            {
              "internalType": "bool",
              "name": "hasUpline",
              "type": "bool"
            },
            {
              "internalType": "uint32[]",
              "name": "refereeIds",
              "type": "uint32[]"
            },
            {
              "internalType": "uint32[]",
              "name": "teamIds",
              "type": "uint32[]"
            },
            {
              "internalType": "uint32[]",
              "name": "teamLevel",
              "type": "uint32[]"
            },
            {
              "internalType": "uint256[]",
              "name": "selfBusinessArray",
              "type": "uint256[]"
            },
            {
              "internalType": "uint256",
              "name": "selfBusiness",
              "type": "uint256"
            },
            {
              "internalType": "uint256",
              "name": "selfBusinessOld",
              "type": "uint256"
            },
            {
              "internalType": "uint256",
              "name": "directBusiness",
              "type": "uint256"
            },
            {
              "internalType": "uint256",
              "name": "directBusinessOld",
              "type": "uint256"
            },
            {
              "internalType": "uint256",
              "name": "teamBusiness",
              "type": "uint256"
            },
            {
              "internalType": "uint256",
              "name": "teamBusinessOld",
              "type": "uint256"
            },
            {
              "internalType": "uint256",
              "name": "royaltyClubBusiness",
              "type": "uint256"
            },
            {
              "internalType": "uint256",
              "name": "timeStampRoyaltyClub",
              "type": "uint256"
            },
            {
              "internalType": "uint8",
              "name": "royaltyClubPackageId",
              "type": "uint8"
            },
            {
              "internalType": "uint32",
              "name": "royaltyClubListIndex",
              "type": "uint32"
            },
            {
              "internalType": "uint256",
              "name": "royaltyClubRewardPaid",
              "type": "uint256"
            },
            {
              "internalType": "uint256",
              "name": "topUpIncome",
              "type": "uint256"
            },
            {
              "internalType": "uint256",
              "name": "topUp",
              "type": "uint256"
            },
            {
              "internalType": "uint256",
              "name": "maxLimit",
              "type": "uint256"
            },
            {
              "internalType": "uint256",
              "name": "activationTime",
              "type": "uint256"
            },
            {
              "internalType": "uint256",
              "name": "deactivationTime",
              "type": "uint256"
            },
            {
              "internalType": "uint256",
              "name": "referralPaid",
              "type": "uint256"
            },
            {
              "internalType": "uint32[]",
              "name": "roiIds",
              "type": "uint32[]"
            },
            {
              "internalType": "uint256",
              "name": "roiPaid",
              "type": "uint256"
            },
            {
              "internalType": "uint256",
              "name": "roiClaimedTime",
              "type": "uint256"
            },
            {
              "internalType": "uint256",
              "name": "walletBalance",
              "type": "uint256"
            },
            {
              "internalType": "bool",
              "name": "isActive",
              "type": "bool"
            },
            {
              "internalType": "bool",
              "name": "isROIDisabled",
              "type": "bool"
            },
            {
              "internalType": "bool",
              "name": "isIdVisibilityDisabled",
              "type": "bool"
            },
            {
              "internalType": "bool",
              "name": "canWindraw",
              "type": "bool"
            }
          ],
          "internalType": "struct ReferralV4Upgradeable.StructId",
          "name": "",
          "type": "tuple"
        }
      ],
      "stateMutability": "view",
      "type": "function"
    },
    {
      "inputs": [
        {
          "internalType": "uint32",
          "name": "_id",
          "type": "uint32"
        }
      ],
      "name": "getIdLimits",
      "outputs": [
        {
          "internalType": "uint256",
          "name": "topUpIncome",
          "type": "uint256"
        },
        {
          "internalType": "uint256",
          "name": "topUp",
          "type": "uint256"
        },
        {
          "internalType": "uint256",
          "name": "maxLimit",
          "type": "uint256"
        }
      ],
      "stateMutability": "view",
      "type": "function"
    },
    {
      "inputs": [
        {
          "internalType": "uint32",
          "name": "_id",
          "type": "uint32"
        }
      ],
      "name": "getIdRoyaltyClubLevel",
      "outputs": [
        {
          "internalType": "uint256",
          "name": "",
          "type": "uint256"
        }
      ],
      "stateMutability": "view",
      "type": "function"
    },
    {
      "inputs": [],
      "name": "getMinContributionETH",
      "outputs": [
        {
          "internalType": "uint256",
          "name": "",
          "type": "uint256"
        }
      ],
      "stateMutability": "view",
      "type": "function"
    },
    {
      "inputs": [
        {
          "internalType": "uint8",
          "name": "_packageId",
          "type": "uint8"
        }
      ],
      "name": "getRoyaltyClubPackageInfo",
      "outputs": [
        {
          "components": [
            {
              "internalType": "uint8",
              "name": "packageId",
              "type": "uint8"
            },
            {
              "internalType": "uint256",
              "name": "selfBusiness",
              "type": "uint256"
            },
            {
              "internalType": "uint256",
              "name": "directBusiness",
              "type": "uint256"
            },
            {
              "internalType": "uint256",
              "name": "teamBusiness",
              "type": "uint256"
            },
            {
              "internalType": "string",
              "name": "rankName",
              "type": "string"
            },
            {
              "internalType": "uint256",
              "name": "reward",
              "type": "uint256"
            },
            {
              "internalType": "uint256",
              "name": "businessLimit",
              "type": "uint256"
            },
            {
              "internalType": "uint256",
              "name": "timeLimit",
              "type": "uint256"
            },
            {
              "internalType": "bool",
              "name": "isPayReccursive",
              "type": "bool"
            },
            {
              "internalType": "uint32[]",
              "name": "achieversList",
              "type": "uint32[]"
            }
          ],
          "internalType": "struct ReferralV4Upgradeable.StructPackages",
          "name": "",
          "type": "tuple"
        }
      ],
      "stateMutability": "view",
      "type": "function"
    },
    {
      "inputs": [
        {
          "internalType": "address",
          "name": "_address",
          "type": "address"
        }
      ],
      "name": "getUserAccount",
      "outputs": [
        {
          "components": [
            {
              "internalType": "bool",
              "name": "isActive",
              "type": "bool"
            },
            {
              "internalType": "uint32[]",
              "name": "accountIds",
              "type": "uint32[]"
            },
            {
              "internalType": "string",
              "name": "userName",
              "type": "string"
            }
          ],
          "internalType": "struct ReferralV4Upgradeable.StructAccount",
          "name": "",
          "type": "tuple"
        }
      ],
      "stateMutability": "view",
      "type": "function"
    },
    {
      "inputs": [
        {
          "internalType": "uint32",
          "name": "_id",
          "type": "uint32"
        }
      ],
      "name": "getUserUnlockCount",
      "outputs": [
        {
          "internalType": "uint256",
          "name": "",
          "type": "uint256"
        }
      ],
      "stateMutability": "view",
      "type": "function"
    },
    {
      "inputs": [
        {
          "internalType": "uint32",
          "name": "_id",
          "type": "uint32"
        },
        {
          "internalType": "uint256",
          "name": "_value",
          "type": "uint256"
        }
      ],
      "name": "increaseIdTopIncome",
      "outputs": [],
      "stateMutability": "nonpayable",
      "type": "function"
    },
    {
      "inputs": [],
      "name": "initialize",
      "outputs": [],
      "stateMutability": "nonpayable",
      "type": "function"
    },
    {
      "inputs": [],
      "name": "isActivateROI",
      "outputs": [
        {
          "internalType": "bool",
          "name": "",
          "type": "bool"
        }
      ],
      "stateMutability": "view",
      "type": "function"
    },
    {
      "inputs": [],
      "name": "isPayReferral",
      "outputs": [
        {
          "internalType": "bool",
          "name": "",
          "type": "bool"
        }
      ],
      "stateMutability": "view",
      "type": "function"
    },
    {
      "inputs": [],
      "name": "isPayRoyaltyClubBonus",
      "outputs": [
        {
          "internalType": "bool",
          "name": "",
          "type": "bool"
        }
      ],
      "stateMutability": "view",
      "type": "function"
    },
    {
      "inputs": [
        {
          "internalType": "address",
          "name": "_userAddress",
          "type": "address"
        }
      ],
      "name": "isUserDisabledByAdmin",
      "outputs": [
        {
          "internalType": "bool",
          "name": "",
          "type": "bool"
        }
      ],
      "stateMutability": "view",
      "type": "function"
    },
    {
      "inputs": [
        {
          "internalType": "uint256",
          "name": "",
          "type": "uint256"
        }
      ],
      "name": "levelRates",
      "outputs": [
        {
          "internalType": "uint16",
          "name": "",
          "type": "uint16"
        }
      ],
      "stateMutability": "view",
      "type": "function"
    },
    {
      "inputs": [],
      "name": "maxLevels",
      "outputs": [
        {
          "internalType": "uint8",
          "name": "",
          "type": "uint8"
        }
      ],
      "stateMutability": "view",
      "type": "function"
    },
    {
      "inputs": [],
      "name": "minContributionUSD",
      "outputs": [
        {
          "internalType": "uint256",
          "name": "",
          "type": "uint256"
        }
      ],
      "stateMutability": "view",
      "type": "function"
    },
    {
      "inputs": [],
      "name": "owner",
      "outputs": [
        {
          "internalType": "address",
          "name": "",
          "type": "address"
        }
      ],
      "stateMutability": "view",
      "type": "function"
    },
    {
      "inputs": [],
      "name": "packagesCount",
      "outputs": [
        {
          "internalType": "uint8",
          "name": "",
          "type": "uint8"
        }
      ],
      "stateMutability": "view",
      "type": "function"
    },
    {
      "inputs": [
        {
          "internalType": "uint256",
          "name": "_value",
          "type": "uint256"
        },
        {
          "internalType": "uint32",
          "name": "_id",
          "type": "uint32"
        }
      ],
      "name": "payReferralAdmin",
      "outputs": [],
      "stateMutability": "nonpayable",
      "type": "function"
    },
    {
      "inputs": [],
      "name": "proxiableUUID",
      "outputs": [
        {
          "internalType": "bytes32",
          "name": "",
          "type": "bytes32"
        }
      ],
      "stateMutability": "view",
      "type": "function"
    },
    {
      "inputs": [],
      "name": "renounceOwnership",
      "outputs": [],
      "stateMutability": "nonpayable",
      "type": "function"
    },
    {
      "inputs": [],
      "name": "royaltyClubPackageCount",
      "outputs": [
        {
          "internalType": "uint8",
          "name": "",
          "type": "uint8"
        }
      ],
      "stateMutability": "view",
      "type": "function"
    },
    {
      "inputs": [
        {
          "internalType": "address",
          "name": "_address",
          "type": "address"
        },
        {
          "internalType": "uint256",
          "name": "_value",
          "type": "uint256"
        }
      ],
      "name": "sendETHAdmin",
      "outputs": [],
      "stateMutability": "nonpayable",
      "type": "function"
    },
    {
      "inputs": [
        {
          "internalType": "uint16",
          "name": "_value",
          "type": "uint16"
        }
      ],
      "name": "setLevelDecimals",
      "outputs": [],
      "stateMutability": "nonpayable",
      "type": "function"
    },
    {
      "inputs": [
        {
          "internalType": "uint8[]",
          "name": "_value",
          "type": "uint8[]"
        }
      ],
      "name": "setLevelRates",
      "outputs": [],
      "stateMutability": "nonpayable",
      "type": "function"
    },
    {
      "inputs": [
        {
          "internalType": "uint8",
          "name": "_valueDecimals",
          "type": "uint8"
        }
      ],
      "name": "setMaxLevelsAdmin",
      "outputs": [],
      "stateMutability": "nonpayable",
      "type": "function"
    },
    {
      "inputs": [
        {
          "internalType": "uint256",
          "name": "_valueInUSD",
          "type": "uint256"
        }
      ],
      "name": "setMinContribution",
      "outputs": [],
      "stateMutability": "nonpayable",
      "type": "function"
    },
    {
      "inputs": [
        {
          "internalType": "uint8",
          "name": "packageId",
          "type": "uint8"
        },
        {
          "internalType": "uint256",
          "name": "selfBusiness",
          "type": "uint256"
        },
        {
          "internalType": "uint256",
          "name": "directBusiness",
          "type": "uint256"
        },
        {
          "internalType": "uint256",
          "name": "teamBusiness",
          "type": "uint256"
        },
        {
          "internalType": "string",
          "name": "rankName",
          "type": "string"
        },
        {
          "internalType": "uint256",
          "name": "reward",
          "type": "uint256"
        },
        {
          "internalType": "uint256",
          "name": "businessLimit",
          "type": "uint256"
        },
        {
          "internalType": "uint256",
          "name": "timeLimit",
          "type": "uint256"
        },
        {
          "internalType": "bool",
          "name": "isPayReccursive",
          "type": "bool"
        }
      ],
      "name": "setRoyaltyClubPackage",
      "outputs": [],
      "stateMutability": "nonpayable",
      "type": "function"
    },
    {
      "inputs": [
        {
          "internalType": "uint8",
          "name": "_valueDecimals",
          "type": "uint8"
        }
      ],
      "name": "setRoyaltyPackageCount",
      "outputs": [],
      "stateMutability": "nonpayable",
      "type": "function"
    },
    {
      "inputs": [
        {
          "internalType": "uint32",
          "name": "_id",
          "type": "uint32"
        }
      ],
      "name": "topUpId",
      "outputs": [],
      "stateMutability": "payable",
      "type": "function"
    },
    {
      "inputs": [],
      "name": "totalIds",
      "outputs": [
        {
          "internalType": "uint32",
          "name": "",
          "type": "uint32"
        }
      ],
      "stateMutability": "view",
      "type": "function"
    },
    {
      "inputs": [],
      "name": "totalReferralPaid",
      "outputs": [
        {
          "internalType": "uint256",
          "name": "",
          "type": "uint256"
        }
      ],
      "stateMutability": "view",
      "type": "function"
    },
    {
      "inputs": [],
      "name": "totalRoyaltyClubBonusPaid",
      "outputs": [
        {
          "internalType": "uint256",
          "name": "",
          "type": "uint256"
        }
      ],
      "stateMutability": "view",
      "type": "function"
    },
    {
      "inputs": [
        {
          "internalType": "address",
          "name": "newOwner",
          "type": "address"
        }
      ],
      "name": "transferOwnership",
      "outputs": [],
      "stateMutability": "nonpayable",
      "type": "function"
    },
    {
      "inputs": [
        {
          "internalType": "uint32",
          "name": "_value",
          "type": "uint32"
        }
      ],
      "name": "updateTotalIds",
      "outputs": [],
      "stateMutability": "nonpayable",
      "type": "function"
    },
    {
      "inputs": [
        {
          "internalType": "address",
          "name": "newImplementation",
          "type": "address"
        }
      ],
      "name": "upgradeTo",
      "outputs": [],
      "stateMutability": "nonpayable",
      "type": "function"
    },
    {
      "inputs": [
        {
          "internalType": "address",
          "name": "newImplementation",
          "type": "address"
        },
        {
          "internalType": "bytes",
          "name": "data",
          "type": "bytes"
        }
      ],
      "name": "upgradeToAndCall",
      "outputs": [],
      "stateMutability": "payable",
      "type": "function"
    },
    {
      "inputs": [
        {
          "internalType": "uint256",
          "name": "",
          "type": "uint256"
        }
      ],
      "name": "users",
      "outputs": [
        {
          "internalType": "address",
          "name": "",
          "type": "address"
        }
      ],
      "stateMutability": "view",
      "type": "function"
    },
    {
      "inputs": [],
      "name": "withdrawETHAdmin",
      "outputs": [],
      "stateMutability": "nonpayable",
      "type": "function"
    },
    {
      "inputs": [
        {
          "internalType": "address",
          "name": "_tokenAddress",
          "type": "address"
        },
        {
          "internalType": "uint256",
          "name": "_value",
          "type": "uint256"
        }
      ],
      "name": "withdrawTokensAdmin",
      "outputs": [],
      "stateMutability": "nonpayable",
      "type": "function"
    },
    {
      "stateMutability": "payable",
      "type": "receive"
    }
  ],
  "bytecode": "0x60a06040523060805234801561001457600080fd5b50608051615e456200004d6000396000818161108d015281816110d6015281816117fd0152818161183d01526118cc0152615e456000f3fe6080604052600436106102cd5760003560e01c80637084431f11610175578063a0b6105f116100dc578063cd21364d11610095578063f31a2d0f1161006f578063f31a2d0f146108d2578063f41bfeef146108f2578063fafc959714610908578063fb47e0161461092a57600080fd5b8063cd21364d14610872578063e1c715ba14610892578063f2fde38b146108b257600080fd5b8063a0b6105f146107c9578063a152b0f0146107e9578063a28a3686146107fc578063a43ae4081461081f578063b47181d31461083f578063bcb93f9b1461085f57600080fd5b8063852ff2fd1161012e578063852ff2fd146107255780638af925dc1461073b5780638da5cb5b146107555780638f84de8514610773578063987dd4a7146107895780639f4e8398146107a957600080fd5b80637084431f14610679578063715018a6146106985780637879b5ef146106ad5780637bdbf996146106cd5780637c599486146106fa5780638129fc1c1461071057600080fd5b8063390a5ba5116102345780634e6e93a3116101ed578063538ffe0c116101c7578063538ffe0c146105d05780635979369a146106195780636ccc10ae146106395780636f38e4101461065957600080fd5b80634e6e93a31461056d5780634f1ef286146105a857806352d1902d146105bb57600080fd5b8063390a5ba51461049b5780633eff2def146104cd578063473b0d46146104ed578063498b3e551461050d5780634a7508221461052d5780634b5102b81461054d57600080fd5b806322f88b521161028657806322f88b52146103ec5780632ed421d214610402578063313ce5671461041857806335759788146104465780633659cfe61461045b578063365b98b21461047b57600080fd5b8063012da720146102d95780630b243dad1461030f5780631319cff91461033157806318e10bff146103695780631f9e65e41461039c57806321009789146103bf57600080fd5b366102d457005b600080fd5b3480156102e557600080fd5b506102f96102f43660046151d4565b610957565b60405161030691906151ef565b60405180910390f35b34801561031b57600080fd5b5061032f61032a36600461524e565b6109ec565b005b34801561033d57600080fd5b5061035161034c36600461527a565b610a2f565b6040516001600160a01b039091168152602001610306565b34801561037557600080fd5b5060d55461038a906301000000900460ff1681565b60405160ff9091168152602001610306565b3480156103a857600080fd5b506103b1610a59565b604051908152602001610306565b3480156103cb57600080fd5b506103df6103da3660046152a5565b610a6b565b6040516103069190615383565b3480156103f857600080fd5b506103b160d05481565b34801561040e57600080fd5b506103b160d15481565b34801561042457600080fd5b5060cb546104339061ffff1681565b60405161ffff9091168152602001610306565b34801561045257600080fd5b5061032f61104c565b34801561046757600080fd5b5061032f61047636600461561b565b611083565b34801561048757600080fd5b5061035161049636600461527a565b611168565b3480156104a757600080fd5b5060cf546104b89063ffffffff1681565b60405163ffffffff9091168152602001610306565b3480156104d957600080fd5b5061032f6104e83660046151d4565b611178565b3480156104f957600080fd5b5061032f61050836600461527a565b61119e565b34801561051957600080fd5b5061032f610528366004615638565b6111ab565b34801561053957600080fd5b5061032f61054836600461570d565b611251565b34801561055957600080fd5b5061032f6105683660046151d4565b611301565b34801561057957600080fd5b5061058d6105883660046152a5565b611329565b60408051938452602084019290925290820152606001610306565b61032f6105b63660046157ba565b6117f3565b3480156105c757600080fd5b506103b16118bf565b3480156105dc57600080fd5b506106096105eb36600461561b565b6001600160a01b0316600090815260d6602052604090205460ff1690565b6040519015158152602001610306565b34801561062557600080fd5b5061032f6106343660046152a5565b611972565b34801561064557600080fd5b5061032f61065436600461581e565b611a16565b34801561066557600080fd5b5060cb5461038a9062010000900460ff1681565b34801561068557600080fd5b5060d55461060990610100900460ff1681565b3480156106a457600080fd5b5061032f611abd565b3480156106b957600080fd5b506104336106c836600461527a565b611ad1565b3480156106d957600080fd5b506106ed6106e83660046151d4565b611b09565b604051610306919061583c565b34801561070657600080fd5b506103b160ce5481565b34801561071c57600080fd5b5061032f611d08565b34801561073157600080fd5b506103b160cd5481565b34801561074757600080fd5b5060d5546106099060ff1681565b34801561076157600080fd5b506033546001600160a01b0316610351565b34801561077f57600080fd5b506103b160cc5481565b34801561079557600080fd5b506103b16107a43660046152a5565b611fa0565b3480156107b557600080fd5b5061032f6107c436600461561b565b61245f565b3480156107d557600080fd5b5061032f6107e436600461524e565b612508565b61032f6107f73660046152a5565b612581565b34801561080857600080fd5b5060cf5461038a9065010000000000900460ff1681565b34801561082b57600080fd5b5061032f61083a3660046158ea565b61279e565b34801561084b57600080fd5b506103b161085a3660046152a5565b6127be565b61032f61086d3660046152a5565b612c7a565b34801561087e57600080fd5b5060d55461038a9062010000900460ff1681565b34801561089e57600080fd5b5061032f6108ad36600461590e565b612f38565b3480156108be57600080fd5b5061032f6108cd36600461561b565b612f4c565b3480156108de57600080fd5b5061032f6108ed36600461581e565b612fc2565b3480156108fe57600080fd5b506103b160d25481565b34801561091457600080fd5b5060cf5461060990640100000000900460ff1681565b34801561093657600080fd5b5061094a61094536600461561b565b613252565b6040516103069190615983565b60ff8116600090815260d860209081526040918290206009018054835181840281018401909452808452606093928301828280156109e057602002820191906000526020600020906000905b82829054906101000a900463ffffffff1663ffffffff16815260200190600401906020826003010492830192600103820291508084116109a35790505b50505050509050919050565b6109f46133b8565b6040516001600160a01b0383169082156108fc029083906000818181858888f19350505050158015610a2a573d6000803e3d6000fd5b505050565b60d38181548110610a3f57600080fd5b6000918252602090912001546001600160a01b0316905081565b6000610a6660cc54613412565b905090565b610ba1604051806104800160405280600063ffffffff168152602001606081526020016000815260200160001515815260200160006001600160a01b03168152602001600063ffffffff168152602001600015158152602001606081526020016060815260200160608152602001606081526020016000815260200160008152602001600081526020016000815260200160008152602001600081526020016000815260200160008152602001600060ff168152602001600063ffffffff16815260200160008152602001600081526020016000815260200160008152602001600081526020016000815260200160008152602001606081526020016000815260200160008152602001600081526020016000151581526020016000151581526020016000151581526020016000151581525090565b63ffffffff808316600090815260d76020908152604091829020825161048081019093528054909316825260018301805492939291840191610be2906159c8565b80601f0160208091040260200160405190810160405280929190818152602001828054610c0e906159c8565b8015610c5b5780601f10610c3057610100808354040283529160200191610c5b565b820191906000526020600020905b815481529060010190602001808311610c3e57829003601f168201915b50505091835250506002820154602080830191909152600383015460ff80821615156040808601919091526001600160a01b03610100840416606086015263ffffffff600160a81b8404166080860152600160c81b90920416151560a084015260048401805482518185028101850190935280835260c0909401939192909190830182828015610d3657602002820191906000526020600020906000905b82829054906101000a900463ffffffff1663ffffffff1681526020019060040190602082600301049283019260010382029150808411610cf95790505b5050505050815260200160058201805480602002602001604051908101604052809291908181526020018280548015610dba57602002820191906000526020600020906000905b82829054906101000a900463ffffffff1663ffffffff1681526020019060040190602082600301049283019260010382029150808411610d7d5790505b5050505050815260200160068201805480602002602001604051908101604052809291908181526020018280548015610e3e57602002820191906000526020600020906000905b82829054906101000a900463ffffffff1663ffffffff1681526020019060040190602082600301049283019260010382029150808411610e015790505b5050505050815260200160078201805480602002602001604051908101604052809291908181526020018280548015610e9657602002820191906000526020600020905b815481526020019060010190808311610e82575b505050918352505060088201546020808301919091526009830154604080840191909152600a8401546060840152600b8401546080840152600c84015460a0840152600d84015460c0840152600e84015460e0840152600f84015461010080850191909152601085015460ff81166101208601520463ffffffff166101408401526011840154610160840152601284015461018084015260138401546101a084015260148401546101c084015260158401546101e084015260168401546102008401526017840154610220840152601884018054825181850281018501909352808352610240909401939192909190830182828015610fe057602002820191906000526020600020906000905b82829054906101000a900463ffffffff1663ffffffff1681526020019060040190602082600301049283019260010382029150808411610fa35790505b505050918352505060198201546020820152601a8201546040820152601b8201546060820152601c9091015460ff8082161515608084015261010082048116151560a08401526201000082048116151560c0840152630100000090910416151560e09091015292915050565b6110546133b8565b60405133904780156108fc02916000818181858888f19350505050158015611080573d6000803e3d6000fd5b50565b6001600160a01b037f00000000000000000000000000000000000000000000000000000000000000001630036110d45760405162461bcd60e51b81526004016110cb90615a02565b60405180910390fd5b7f00000000000000000000000000000000000000000000000000000000000000006001600160a01b031661111d600080516020615dc9833981519152546001600160a01b031690565b6001600160a01b0316146111435760405162461bcd60e51b81526004016110cb90615a4e565b61114c81613509565b6040805160008082526020820190925261108091839190613511565b60d48181548110610a3f57600080fd5b6111806133b8565b60cb805460ff909216620100000262ff000019909216919091179055565b6111a66133b8565b60cc55565b60c954604051630935e01b60e21b81523360048201526001600160a01b03909116906324d7806c90602401602060405180830381865afa1580156111f3573d6000803e3d6000fd5b505050506040513d601f19601f820116820180604052508101906112179190615a9a565b6112335760405162461bcd60e51b81526004016110cb90615ab7565b60d554610100900460ff161561124d5761124d828261367c565b5050565b6112596133b8565b60ff8916600081815260d860205260409020805460ff19169091178155600181018990556002810188905560038101879055600481016112998782615b31565b5060058101859055600681018490556007810183905560088101805460ff191683151517905560405160ff8b1681527f9a2f17868083013e19d4c26d2af13543606bc680c21c994d7648d3a0510164c99060200160405180910390a150505050505050505050565b6113096133b8565b60d5805460ff90921663010000000263ff00000019909216919091179055565b63ffffffff808216600090815260d76020908152604080832081516104808101909252805490941681526001840180549394859485948594939084019161136f906159c8565b80601f016020809104026020016040519081016040528092919081815260200182805461139b906159c8565b80156113e85780601f106113bd576101008083540402835291602001916113e8565b820191906000526020600020905b8154815290600101906020018083116113cb57829003601f168201915b50505091835250506002820154602080830191909152600383015460ff80821615156040808601919091526001600160a01b03610100840416606086015263ffffffff600160a81b8404166080860152600160c81b90920416151560a084015260048401805482518185028101850190935280835260c09094019391929091908301828280156114c357602002820191906000526020600020906000905b82829054906101000a900463ffffffff1663ffffffff16815260200190600401906020826003010492830192600103820291508084116114865790505b505050505081526020016005820180548060200260200160405190810160405280929190818152602001828054801561154757602002820191906000526020600020906000905b82829054906101000a900463ffffffff1663ffffffff168152602001906004019060208260030104928301926001038202915080841161150a5790505b50505050508152602001600682018054806020026020016040519081016040528092919081815260200182805480156115cb57602002820191906000526020600020906000905b82829054906101000a900463ffffffff1663ffffffff168152602001906004019060208260030104928301926001038202915080841161158e5790505b505050505081526020016007820180548060200260200160405190810160405280929190818152602001828054801561162357602002820191906000526020600020905b81548152602001906001019080831161160f575b505050918352505060088201546020808301919091526009830154604080840191909152600a8401546060840152600b8401546080840152600c84015460a0840152600d84015460c0840152600e84015460e0840152600f84015461010080850191909152601085015460ff81166101208601520463ffffffff166101408401526011840154610160840152601284015461018084015260138401546101a084015260148401546101c084015260158401546101e08401526016840154610200840152601784015461022084015260188401805482518185028101850190935280835261024090940193919290919083018282801561176d57602002820191906000526020600020906000905b82829054906101000a900463ffffffff1663ffffffff16815260200190600401906020826003010492830192600103820291508084116117305790505b505050918352505060198201546020820152601a8201546040820152601b8201546060820152601c9091015460ff8082161515608084015261010082048116151560a08401526201000082048116151560c0840152630100000090910416151560e0909101526102c08101516102e0820151610300909201519097919650945092505050565b6001600160a01b037f000000000000000000000000000000000000000000000000000000000000000016300361183b5760405162461bcd60e51b81526004016110cb90615a02565b7f00000000000000000000000000000000000000000000000000000000000000006001600160a01b0316611884600080516020615dc9833981519152546001600160a01b031690565b6001600160a01b0316146118aa5760405162461bcd60e51b81526004016110cb90615a4e565b6118b382613509565b61124d82826001613511565b6000306001600160a01b037f0000000000000000000000000000000000000000000000000000000000000000161461195f5760405162461bcd60e51b815260206004820152603860248201527f555550535570677261646561626c653a206d757374206e6f742062652063616c60448201527f6c6564207468726f7567682064656c656761746563616c6c000000000000000060648201526084016110cb565b50600080516020615dc983398151915290565b60c954604051630935e01b60e21b81523360048201526001600160a01b03909116906324d7806c90602401602060405180830381865afa1580156119ba573d6000803e3d6000fd5b505050506040513d601f19601f820116820180604052508101906119de9190615a9a565b6119fa5760405162461bcd60e51b81526004016110cb90615ab7565b60cf805463ffffffff191663ffffffff92909216919091179055565b60c954604051630935e01b60e21b81523360048201526001600160a01b03909116906324d7806c90602401602060405180830381865afa158015611a5e573d6000803e3d6000fd5b505050506040513d601f19601f82011682018060405250810190611a829190615a9a565b611a9e5760405162461bcd60e51b81526004016110cb90615ab7565b63ffffffff8216600090815260d760205260409020610a2a8183613db3565b611ac56133b8565b611acf6000613e26565b565b60ca8181548110611ae157600080fd5b9060005260206000209060109182820401919006600202915054906101000a900461ffff1681565b611b64604051806101400160405280600060ff16815260200160008152602001600081526020016000815260200160608152602001600081526020016000815260200160008152602001600015158152602001606081525090565b60ff808316600090815260d860209081526040918290208251610140810184528154909416845260018101549184019190915260028101549183019190915260038101546060830152600481018054608084019190611bc2906159c8565b80601f0160208091040260200160405190810160405280929190818152602001828054611bee906159c8565b8015611c3b5780601f10611c1057610100808354040283529160200191611c3b565b820191906000526020600020905b815481529060010190602001808311611c1e57829003601f168201915b505050505081526020016005820154815260200160068201548152602001600782015481526020016008820160009054906101000a900460ff1615151515815260200160098201805480602002602001604051908101604052809291908181526020018280548015611cf857602002820191906000526020600020906000905b82829054906101000a900463ffffffff1663ffffffff1681526020019060040190602082600301049283019260010382029150808411611cbb5790505b5050505050815250509050919050565b600054610100900460ff1615808015611d285750600054600160ff909116105b80611d425750303b158015611d42575060005460ff166001145b611da55760405162461bcd60e51b815260206004820152602e60248201527f496e697469616c697a61626c653a20636f6e747261637420697320616c72656160448201526d191e481a5b9a5d1a585b1a5e995960921b60648201526084016110cb565b6000805460ff191660011790558015611dc8576000805461ff0019166101001790555b60c980546001600160a01b031916737ecf19c95f2639cf0183639dba852fade713eefc17905560cb805461ffff19166103e8179055604080516103a08101825260648152604660208201526032918101829052606081018290526080810182905260a0810182905260c0810182905260e08101829052610100810182905261012081018290526101408101829052610160810182905261018081018290526101a081018290526101c081018290526101e08101829052610200810182905261022081018290526102408101919091526014610260820181905261028082018190526102a082018190526102c082018190526102e082018190526103008201819052610320820181905261034082018190526103608201819052610380820152611ef59060ca90601d614ff9565b5060cb805462ff000019166232000017905568056bc75e2d6310000060cc5560cf8054660200000000000066ff00ff000000001990911617905560d5805462278d0060d25562ffffff191662140101179055611f4f613e78565b611f57613ea7565b8015611080576000805461ff0019169055604051600181527f7f26b83ff96e1f2b6a682f133852f6798a09c465da95921460cefb3847402498906020015b60405180910390a150565b63ffffffff808216600090815260d760209081526040808320815161048081019092528054909416815260018401805493948594929390929084019190611fe6906159c8565b80601f0160208091040260200160405190810160405280929190818152602001828054612012906159c8565b801561205f5780601f106120345761010080835404028352916020019161205f565b820191906000526020600020905b81548152906001019060200180831161204257829003601f168201915b50505091835250506002820154602080830191909152600383015460ff80821615156040808601919091526001600160a01b03610100840416606086015263ffffffff600160a81b8404166080860152600160c81b90920416151560a084015260048401805482518185028101850190935280835260c090940193919290919083018282801561213a57602002820191906000526020600020906000905b82829054906101000a900463ffffffff1663ffffffff16815260200190600401906020826003010492830192600103820291508084116120fd5790505b50505050508152602001600582018054806020026020016040519081016040528092919081815260200182805480156121be57602002820191906000526020600020906000905b82829054906101000a900463ffffffff1663ffffffff16815260200190600401906020826003010492830192600103820291508084116121815790505b505050505081526020016006820180548060200260200160405190810160405280929190818152602001828054801561224257602002820191906000526020600020906000905b82829054906101000a900463ffffffff1663ffffffff16815260200190600401906020826003010492830192600103820291508084116122055790505b505050505081526020016007820180548060200260200160405190810160405280929190818152602001828054801561229a57602002820191906000526020600020905b815481526020019060010190808311612286575b505050918352505060088201546020808301919091526009830154604080840191909152600a8401546060840152600b8401546080840152600c84015460a0840152600d84015460c0840152600e84015460e0840152600f84015461010080850191909152601085015460ff81166101208601520463ffffffff166101408401526011840154610160840152601284015461018084015260138401546101a084015260148401546101c084015260158401546101e0840152601684015461020084015260178401546102208401526018840180548251818502810185019093528083526102409094019391929091908301828280156123e457602002820191906000526020600020906000905b82829054906101000a900463ffffffff1663ffffffff16815260200190600401906020826003010492830192600103820291508084116123a75790505b505050918352505060198201546020820152601a8201546040820152601b8201546060820152601c9091015460ff8082161515608084015261010082048116151560a08401526201000082048116151560c0840152630100000090910416151560e090910152905061245581613ece565b60ff169392505050565b60c954604051630935e01b60e21b81523360048201526001600160a01b03909116906324d7806c90602401602060405180830381865afa1580156124a7573d6000803e3d6000fd5b505050506040513d601f19601f820116820180604052508101906124cb9190615a9a565b6124e75760405162461bcd60e51b81526004016110cb90615ab7565b6001600160a01b0316600090815260d660205260409020805460ff19169055565b6125106133b8565b60405163a9059cbb60e01b8152336004820152602481018290526001600160a01b0383169063a9059cbb906044016020604051808303816000875af115801561255d573d6000803e3d6000fd5b505050506040513d601f19601f82011682018060405250810190610a2a9190615a9a565b34600061258d82613f83565b905060cc548110156125e15760405162461bcd60e51b815260206004820152601f60248201527f56616c7565206c657373207468656e206d696e436f6e747269627574696f6e0060448201526064016110cb565b63ffffffff8316600090815260d7602052604081203391429190612606856003615c07565b8260120154836014015461261a9190615c1e565b6126249190615c31565b9050612649828589600089868960cb60029054906101000a900460ff1660ff16614071565b60d55460ff16156127955760c954604080516344846f9d60e11b815290516000926001600160a01b031691638908df3a9160048083019260209291908290030181865afa15801561269e573d6000803e3d6000fd5b505050506040513d601f19601f820116820180604052508101906126c29190615c44565b6001600160a01b03166398c7438e896126dc600386615c61565b6040516001600160e01b031960e085901b16815263ffffffff9290921660048301526024820152604481018790526064016020604051808303816000875af115801561272c573d6000803e3d6000fd5b505050506040513d601f19601f820116820180604052508101906127509190615c83565b601884018054600181018255600091825260209091206008820401805460079092166004026101000a63ffffffff818102199093169390921691909102919091179055505b50505050505050565b6127a66133b8565b60cb805461ffff191661ffff92909216919091179055565b63ffffffff808216600090815260d760209081526040808320815161048081019092528054909416815260018401805493948594929390929084019190612804906159c8565b80601f0160208091040260200160405190810160405280929190818152602001828054612830906159c8565b801561287d5780601f106128525761010080835404028352916020019161287d565b820191906000526020600020905b81548152906001019060200180831161286057829003601f168201915b50505091835250506002820154602080830191909152600383015460ff80821615156040808601919091526001600160a01b03610100840416606086015263ffffffff600160a81b8404166080860152600160c81b90920416151560a084015260048401805482518185028101850190935280835260c090940193919290919083018282801561295857602002820191906000526020600020906000905b82829054906101000a900463ffffffff1663ffffffff168152602001906004019060208260030104928301926001038202915080841161291b5790505b50505050508152602001600582018054806020026020016040519081016040528092919081815260200182805480156129dc57602002820191906000526020600020906000905b82829054906101000a900463ffffffff1663ffffffff168152602001906004019060208260030104928301926001038202915080841161299f5790505b5050505050815260200160068201805480602002602001604051908101604052809291908181526020018280548015612a6057602002820191906000526020600020906000905b82829054906101000a900463ffffffff1663ffffffff1681526020019060040190602082600301049283019260010382029150808411612a235790505b5050505050815260200160078201805480602002602001604051908101604052809291908181526020018280548015612ab857602002820191906000526020600020905b815481526020019060010190808311612aa4575b505050918352505060088201546020808301919091526009830154604080840191909152600a8401546060840152600b8401546080840152600c84015460a0840152600d84015460c0840152600e84015460e0840152600f84015461010080850191909152601085015460ff81166101208601520463ffffffff166101408401526011840154610160840152601284015461018084015260138401546101a084015260148401546101c084015260158401546101e084015260168401546102008401526017840154610220840152601884018054825181850281018501909352808352610240909401939192909190830182828015612c0257602002820191906000526020600020906000905b82829054906101000a900463ffffffff1663ffffffff1681526020019060040190602082600301049283019260010382029150808411612bc55790505b505050918352505060198201546020820152601a8201546040820152601b8201546060820152601c9091015460ff8082161515608084015261010082048116151560a08401526201000082048116151560c0840152630100000090910416151560e0909101529050612c7381614394565b9392505050565b346000612c8682613f83565b905060cc54811015612cda5760405162461bcd60e51b815260206004820152601f60248201527f56616c7565206c657373207468656e206d696e436f6e747269627574696f6e0060448201526064016110cb565b60cf5433904290600090612cf59063ffffffff166001615ca0565b6001600160a01b038416600090815260d66020908152604080832063ffffffff8516845260d790925282209293509190612d30876003615c07565b82601201548360140154612d449190615c1e565b612d4e9190615c31565b9050612d728287868c8b868b60cb60029054906101000a900460ff1660ff16614071565b60d55460ff1615612ebe5760c954604080516344846f9d60e11b815290516000926001600160a01b031691638908df3a9160048083019260209291908290030181865afa158015612dc7573d6000803e3d6000fd5b505050506040513d601f19601f82011682018060405250810190612deb9190615c44565b6001600160a01b03166398c7438e86612e05600386615c61565b6040516001600160e01b031960e085901b16815263ffffffff9290921660048301526024820152604481018990526064016020604051808303816000875af1158015612e55573d6000803e3d6000fd5b505050506040513d601f19601f82011682018060405250810190612e799190615c83565b601884018054600181018255600091825260209091206008820401805460079092166004026101000a63ffffffff818102199093169390921691909102919091179055505b6001838101805491820181556000908152602081206008830401805460079093166004026101000a63ffffffff818102199094168885169190910217905560cf80549092169190612f0e83615cc4565b91906101000a81548163ffffffff021916908363ffffffff16021790555050505050505050505050565b612f406133b8565b610a2a60ca83836150a1565b612f546133b8565b6001600160a01b038116612fb95760405162461bcd60e51b815260206004820152602660248201527f4f776e61626c653a206e6577206f776e657220697320746865207a65726f206160448201526564647265737360d01b60648201526084016110cb565b61108081613e26565b63ffffffff8216600090815260d760205260409020600381015461010090046001600160a01b031633146130385760405162461bcd60e51b815260206004820152601d60248201527f596f7520617265206e6f74206f776e6572206f6620746869732069642e00000060448201526064016110cb565b80601b015482101561308c5760405162461bcd60e51b815260206004820152601b60248201527f76616c75652067726561746572207468616e2062616c616e63652e000000000060448201526064016110cb565b601c8101546301000000900460ff166130e75760405162461bcd60e51b815260206004820152601760248201527f5769746864726177206973206e6f7420656e61626c656400000000000000000060448201526064016110cb565b8181601b0160008282546130fb9190615c1e565b909155505060d55460009060649061311c9062010000900460ff1685615c07565b6131269190615c61565b905060c960009054906101000a90046001600160a01b03166001600160a01b031662f9cc666040518163ffffffff1660e01b8152600401602060405180830381865afa15801561317a573d6000803e3d6000fd5b505050506040513d601f19601f8201168201806040525081019061319e9190615c44565b6003830154604051633528777d60e11b81526001600160a01b036101009092048216600482015260248101849052911690636a50eefa90604401600060405180830381600087803b1580156131f257600080fd5b505af1158015613206573d6000803e3d6000fd5b503392506108fc9150613223905061321e8487615c1e565b613412565b6040518115909202916000818181858888f1935050505015801561324b573d6000803e3d6000fd5b5050505050565b613278604051806060016040528060001515815260200160608152602001606081525090565b6001600160a01b038216600090815260d660209081526040918290208251606081018452815460ff16151581526001820180548551818602810186019096528086529194929385810193929083018282801561331f57602002820191906000526020600020906000905b82829054906101000a900463ffffffff1663ffffffff16815260200190600401906020826003010492830192600103820291508084116132e25790505b50505050508152602001600282018054613338906159c8565b80601f0160208091040260200160405190810160405280929190818152602001828054613364906159c8565b8015611cf85780601f1061338657610100808354040283529160200191611cf8565b820191906000526020600020905b81548152906001019060200180831161339457505050919092525091949350505050565b6033546001600160a01b03163314611acf5760405162461bcd60e51b815260206004820181905260248201527f4f776e61626c653a2063616c6c6572206973206e6f7420746865206f776e657260448201526064016110cb565b60008060c960009054906101000a90046001600160a01b03166001600160a01b0316632913497b6040518163ffffffff1660e01b8152600401602060405180830381865afa158015613468573d6000803e3d6000fd5b505050506040513d601f19601f8201168201806040525081019061348c9190615c44565b6001600160a01b031663e1aa60366040518163ffffffff1660e01b8152600401602060405180830381865afa1580156134c9573d6000803e3d6000fd5b505050506040513d601f19601f820116820180604052508101906134ed9190615ce7565b6134ff84670de0b6b3a7640000615c07565b612c739190615c61565b6110806133b8565b7f4910fdfa16fed3260ed0e7147f7cc6da11a60208b5b9406d12a635614ffd91435460ff161561354457610a2a836143d3565b826001600160a01b03166352d1902d6040518163ffffffff1660e01b8152600401602060405180830381865afa92505050801561359e575060408051601f3d908101601f1916820190925261359b91810190615ce7565b60015b6136015760405162461bcd60e51b815260206004820152602e60248201527f45524331393637557067726164653a206e657720696d706c656d656e7461746960448201526d6f6e206973206e6f74205555505360901b60648201526084016110cb565b600080516020615dc983398151915281146136705760405162461bcd60e51b815260206004820152602960248201527f45524331393637557067726164653a20756e737570706f727465642070726f786044820152681a58589b195555525160ba1b60648201526084016110cb565b50610a2a83838361446f565b600060ca8054806020026020016040519081016040528092919081815260200182805480156136f257602002820191906000526020600020906000905b82829054906101000a900461ffff1661ffff16815260200190600201906020826001010492830192600103820291508084116136b95790505b5050835163ffffffff8716600090815260d7602052604081209596509094935091508190505b8360ff168160ff161015613d9357600383015463ffffffff600160a81b9091048116600081815260d76020526040812080549293909216900361375c575050613d93565b6137658161449a565b156137dd5760405172149959995c995c881a5cc8111a5cd8589b1959606a1b81526013015b60405190819003902061379e846001615d00565b60ff168363ffffffff167f915ed47901013ad29e90ede828f72888f54bd58cea141b0c6967498165382eb560405160405180910390a49350613d819050565b604080516104808101909152815463ffffffff168152600182018054613c789291849160208401919061380f906159c8565b80601f016020809104026020016040519081016040528092919081815260200182805461383b906159c8565b80156138885780601f1061385d57610100808354040283529160200191613888565b820191906000526020600020905b81548152906001019060200180831161386b57829003601f168201915b50505091835250506002820154602080830191909152600383015460ff80821615156040808601919091526001600160a01b03610100840416606086015263ffffffff600160a81b8404166080860152600160c81b90920416151560a084015260048401805482518185028101850190935280835260c090940193919290919083018282801561396357602002820191906000526020600020906000905b82829054906101000a900463ffffffff1663ffffffff16815260200190600401906020826003010492830192600103820291508084116139265790505b50505050508152602001600582018054806020026020016040519081016040528092919081815260200182805480156139e757602002820191906000526020600020906000905b82829054906101000a900463ffffffff1663ffffffff16815260200190600401906020826003010492830192600103820291508084116139aa5790505b5050505050815260200160068201805480602002602001604051908101604052809291908181526020018280548015613a6b57602002820191906000526020600020906000905b82829054906101000a900463ffffffff1663ffffffff1681526020019060040190602082600301049283019260010382029150808411613a2e5790505b5050505050815260200160078201805480602002602001604051908101604052809291908181526020018280548015613ac357602002820191906000526020600020905b815481526020019060010190808311613aaf575b505050918352505060088201546020808301919091526009830154604080840191909152600a8401546060840152600b8401546080840152600c84015460a0840152600d84015460c0840152600e84015460e0840152600f84015461010080850191909152601085015460ff81166101208601520463ffffffff166101408401526011840154610160840152601284015461018084015260138401546101a084015260148401546101c084015260158401546101e084015260168401546102008401526017840154610220840152601884018054825181850281018501909352808352610240909401939192909190830182828015613c0d57602002820191906000526020600020906000905b82829054906101000a900463ffffffff1663ffffffff1681526020019060040190602082600301049283019260010382029150808411613bd05790505b505050918352505060198201546020820152601a8201546040820152601b8201546060820152601c9091015460ff8082161515608084015261010082048116151560a08401526201000082048116151560c0840152630100000090910416151560e090910152614394565b613c83846001615d00565b60ff161115613cba576040517f446f776e6c696e65206c6576656c73206c696d697420726561636865640000008152601d0161378a565b60cb54875160009161ffff1690899060ff8716908110613cdc57613cdc615d19565b602002602001015161ffff168b613cf39190615c07565b613cfd9190615c61565b905080826017016000828254613d139190615c31565b90915550613d2390508282613db3565b613d2d8186615c31565b94508063ffffffff808516908b167ff8fb9b5ab69a0208214661678427c6b48abf457f53605d1f559d17452f1eea11613d67886001615d00565b60405160ff909116815260200160405180910390a4509350505b80613d8b81615d2f565b915050613718565b508060ce6000828254613da69190615c31565b9091555050505050505050565b8160140154818360120154613dc89190615c31565b10613e0557601482015460128301819055613de39080615c1e565b82601b016000828254613df69190615c31565b9091555061124d905082614619565b808260120154613e159190615c31565b508082601b0154610a2a9190615c31565b603380546001600160a01b038381166001600160a01b0319831681179093556040519116919082907f8be0079c531659141344cd1fd0a4f28419497f9722a3daafe3b4186f6b6457e090600090a35050565b600054610100900460ff16613e9f5760405162461bcd60e51b81526004016110cb90615d4e565b611acf6146c1565b600054610100900460ff16611acf5760405162461bcd60e51b81526004016110cb90615d4e565b60d5546000906301000000900460ff16815b8160ff168160ff161015613f7c5760ff8116600090815260d8602052604090206001015461016085015110801590613f32575060ff8116600090815260d860205260409020600201546101a085015110155b8015613f58575060ff8116600090815260d860205260409020600301546101e085015110155b15613f6557809250613f6a565b613f7c565b80613f7481615d2f565b915050613ee0565b5050919050565b600080670de0b6b3a764000060c960009054906101000a90046001600160a01b03166001600160a01b0316632913497b6040518163ffffffff1660e01b8152600401602060405180830381865afa158015613fe2573d6000803e3d6000fd5b505050506040513d601f19601f820116820180604052508101906140069190615c44565b6001600160a01b031663e1aa60366040518163ffffffff1660e01b8152600401602060405180830381865afa158015614043573d6000803e3d6000fd5b505050506040513d601f19601f820116820180604052508101906140679190615ce7565b6134ff9085615c07565b875463ffffffff1660000361409457875463ffffffff191663ffffffff87161788555b601c88015460ff166140b057601c8801805460ff191660011790555b600388015460ff166141085760d480546001810182556000919091527f9780e26d96b1f2a9a18ef8fc72d589dbf03ef788137b64f43897e83a91e7feec0180546001600160a01b0319166001600160a01b0389161790555b600388015461010090046001600160a01b031661414257600388018054610100600160a81b0319166101006001600160a01b038a16021790555b876002015460000361415657600288018290555b6003880154600160c81b900460ff1661419a5760038801805460ff60c81b1963ffffffff8816600160a81b021664ffffffffff60a81b1990911617600160c81b1790555b600060128901556141ac600384615c61565b601389015560148801839055600788018054600181018255600091825260208220018590556008890180548692906141e5908490615c31565b90915550506015880182905560408051600081526020810191829052516142109160188b019161510c565b5060005b818160ff16101561438957600389015463ffffffff600160a81b9091048116600081815260d760205260408120805492939092169003614255575050614389565b8260ff166000036142b7578681600a0160008282546142749190615c31565b909155505060048181018054600181018255600091825260209091206008820401805460079092169092026101000a63ffffffff81810219909216918c16021790555b8681600c0160008282546142cb9190615c31565b909155505063ffffffff88161561434b576005810180546001810182556000918252602082206008820401805460079092166004026101000a63ffffffff818102199093168d841691820217909155835460405190831693928c16927f3ec54e926fe5dd86406fe57832ff318517aed2a5cfbeacfb90a5e9489483ae4b91a45b60cf54640100000000900460ff1615614369576143698188876146f1565b6143738786614e4b565b995081905061438181615d2f565b915050614214565b505050505050505050565b60e081015151600090818115612c735760cf546001906143c1906601000000000000900460ff1684615c07565b6143cb9190615c1e565b949350505050565b6001600160a01b0381163b6144405760405162461bcd60e51b815260206004820152602d60248201527f455243313936373a206e657720696d706c656d656e746174696f6e206973206e60448201526c1bdd08184818dbdb9d1c9858dd609a1b60648201526084016110cb565b600080516020615dc983398151915280546001600160a01b0319166001600160a01b0392909216919091179055565b61447883614e85565b6000825111806144855750805b15610a2a576144948383614ec5565b50505050565b601c81015460009060ff1615806144b957508160140154826012015410155b156144c657506001919050565b601882015415801590614604575060c960009054906101000a90046001600160a01b03166001600160a01b0316638908df3a6040518163ffffffff1660e01b8152600401602060405180830381865afa158015614527573d6000803e3d6000fd5b505050506040513d601f19601f8201168201806040525081019061454b9190615c44565b6001600160a01b03166355332a8583601801600185601801805490506145719190615c1e565b8154811061458157614581615d19565b6000918252602090912060088204015460405160e084901b6001600160e01b0319168152600790921660049081026101000a90910463ffffffff1690820152602401602060405180830381865afa1580156145e0573d6000803e3d6000fd5b505050506040513d601f19601f820116820180604052508101906146049190615a9a565b1561461157506001919050565b506000919050565b601c8101805460ff19169055604080516000815260208101918290525161464491601884019161510c565b5060006012820181905560138201819055601482015542601682015580546040805163ffffffff9092168252602082018190526011908201527013585e08131a5b5a5d0814995858da1959607a1b60608201527fce8ab8f2ac6a94861f9740fa1fed3e6d13a85dfd8a4833bf96f3a0055ba7fb6f90608001611f95565b600054610100900460ff166146e85760405162461bcd60e51b81526004016110cb90615d4e565b611acf33613e26565b6010830154604080516104808101909152845463ffffffff16815260018501805460ff90931692614b979291879160208401919061472e906159c8565b80601f016020809104026020016040519081016040528092919081815260200182805461475a906159c8565b80156147a75780601f1061477c576101008083540402835291602001916147a7565b820191906000526020600020905b81548152906001019060200180831161478a57829003601f168201915b50505091835250506002820154602080830191909152600383015460ff80821615156040808601919091526001600160a01b03610100840416606086015263ffffffff600160a81b8404166080860152600160c81b90920416151560a084015260048401805482518185028101850190935280835260c090940193919290919083018282801561488257602002820191906000526020600020906000905b82829054906101000a900463ffffffff1663ffffffff16815260200190600401906020826003010492830192600103820291508084116148455790505b505050505081526020016005820180548060200260200160405190810160405280929190818152602001828054801561490657602002820191906000526020600020906000905b82829054906101000a900463ffffffff1663ffffffff16815260200190600401906020826003010492830192600103820291508084116148c95790505b505050505081526020016006820180548060200260200160405190810160405280929190818152602001828054801561498a57602002820191906000526020600020906000905b82829054906101000a900463ffffffff1663ffffffff168152602001906004019060208260030104928301926001038202915080841161494d5790505b50505050508152602001600782018054806020026020016040519081016040528092919081815260200182805480156149e257602002820191906000526020600020905b8154815260200190600101908083116149ce575b505050918352505060088201546020808301919091526009830154604080840191909152600a8401546060840152600b8401546080840152600c84015460a0840152600d84015460c0840152600e84015460e0840152600f84015461010080850191909152601085015460ff81166101208601520463ffffffff166101408401526011840154610160840152601284015461018084015260138401546101a084015260148401546101c084015260158401546101e084015260168401546102008401526017840154610220840152601884018054825181850281018501909352808352610240909401939192909190830182828015614b2c57602002820191906000526020600020906000905b82829054906101000a900463ffffffff1663ffffffff1681526020019060040190602082600301049283019260010382029150808411614aef5790505b505050918352505060198201546020820152601a8201546040820152601b8201546060820152601c9091015460ff8082161515608084015261010082048116151560a08401526201000082048116151560c0840152630100000090910416151560e090910152613ece565b60ff161115610a2a57604080516104808101909152835463ffffffff168152600184018054614bd29291869160208401919061472e906159c8565b60108401805460ff191660ff9283169081178255600090815260d860209081526040808320885460099182018054600181810183559187529486206008860401805463ffffffff60079097166004026101000a8781021990911696909316909202949094179055935490941682529290200154614c4f9190615c1e565b60108401805464ffffffff0019811661010063ffffffff948516810291821793849055875460408051918716825291909404909416602084015260ff918216911617918101919091527f4d3af8f60ffd033b575846f894122f2342b39bc9a90da98d0a966128702b568d9060600160405180910390a1604080516104808101909152835463ffffffff16815260018401805460d892600092614cfb928891602084019161472e906159c8565b60ff90811682526020820192909252604001600020600801541615614dba57604080516104808101909152835463ffffffff16815260018401805460d892600092614d50928891602084019161472e906159c8565b60ff1660ff1681526020019081526020016000206007015483600f0154614d779190615c31565b811115614da6578083600f01819055508183600e016000828254614d9b9190615c31565b90915550610a2a9050565b8183600e016000828254614d9b9190615c31565b60cf54640100000000900460ff1615610a2a57601083015460ff16600090815260d86020526040902060050154614df2908490613db3565b601083015460ff908116600090815260d8602052604080822060058101549054875492519194169263ffffffff909216917fdeaf5b294f5016988108257045fc779d7d01e05a4ecdc4df70f62d5a799e053b91a4505050565b60d25460d154614e5b9190615c31565b811115614e6a5760d15560d055565b8160d06000828254614e7c9190615c31565b90915550505050565b614e8e816143d3565b6040516001600160a01b038216907fbc7cd75a20ee27fd9adebab32041f755214dbc6bffa90cc0225b39da2e5c2d3b90600090a250565b60606001600160a01b0383163b614f2d5760405162461bcd60e51b815260206004820152602660248201527f416464726573733a2064656c65676174652063616c6c20746f206e6f6e2d636f6044820152651b9d1c9858dd60d21b60648201526084016110cb565b600080846001600160a01b031684604051614f489190615d99565b600060405180830381855af49150503d8060008114614f83576040519150601f19603f3d011682016040523d82523d6000602084013e614f88565b606091505b5091509150614fb08282604051806060016040528060278152602001615de960279139614fbb565b925050505b92915050565b60608315614fca575081612c73565b612c738383815115614fdf5781518083602001fd5b8060405162461bcd60e51b81526004016110cb9190615db5565b82805482825590600052602060002090600f016010900481019282156150915791602002820160005b8382111561506157835183826101000a81548161ffff021916908360ff1602179055509260200192600201602081600101049283019260010302615022565b801561508f5782816101000a81549061ffff0219169055600201602081600101049283019260010302615061565b505b5061509d9291506151a9565b5090565b82805482825590600052602060002090600f016010900481019282156150915791602002820160005b8382111561506157833560ff1683826101000a81548161ffff021916908360ff16021790555092602001926002016020816001010492830192600103026150ca565b828054828255906000526020600020906007016008900481019282156150915791602002820160005b8382111561517957835183826101000a81548163ffffffff021916908363ffffffff1602179055509260200192600401602081600301049283019260010302615135565b801561508f5782816101000a81549063ffffffff0219169055600401602081600301049283019260010302615179565b5b8082111561509d57600081556001016151aa565b803560ff811681146151cf57600080fd5b919050565b6000602082840312156151e657600080fd5b612c73826151be565b6020808252825182820181905260009190848201906040850190845b8181101561522d57835163ffffffff168352928401929184019160010161520b565b50909695505050505050565b6001600160a01b038116811461108057600080fd5b6000806040838503121561526157600080fd5b823561526c81615239565b946020939093013593505050565b60006020828403121561528c57600080fd5b5035919050565b63ffffffff8116811461108057600080fd5b6000602082840312156152b757600080fd5b8135612c7381615293565b60005b838110156152dd5781810151838201526020016152c5565b50506000910152565b600081518084526152fe8160208601602086016152c2565b601f01601f19169290920160200192915050565b600081518084526020808501945080840160005b8381101561534857815163ffffffff1687529582019590820190600101615326565b509495945050505050565b600081518084526020808501945080840160005b8381101561534857815187529582019590820190600101615367565b6020815261539a60208201835163ffffffff169052565b600060208301516104808060408501526153b86104a08501836152e6565b91506040850151606085015260608501516153d7608086018215159052565b5060808501516001600160a01b03811660a08601525060a085015163ffffffff811660c08601525060c085015180151560e08601525060e0850151601f1961010081878603018188015261542b8584615312565b94508088015192505061012081878603018188015261544a8584615312565b9450808801519250506101408187860301818801526154698584615312565b9450808801519250506101608187860301818801526154888584615353565b90880151610180888101919091528801516101a0808901919091528801516101c0808901919091528801516101e08089019190915288015161020080890191909152880151610220808901919091528801516102408089019190915288015161026080890191909152880151909450915061028061550a8188018460ff169052565b87015191506102a06155238782018463ffffffff169052565b8701516102c0878101919091528701516102e080880191909152870151610300808801919091528701516103208088019190915287015161034080880191909152870151610360808801919091528701516103808088019190915287015186850382016103a08089019190915290925061559d8584615312565b908801516103c0888101919091528801516103e08089019190915288015161040080890191909152880151909450915061042090506155df8187018315159052565b86015190506104406155f48682018315159052565b86015190506104606156098682018315159052565b90950151151593019290925250919050565b60006020828403121561562d57600080fd5b8135612c7381615239565b6000806040838503121561564b57600080fd5b82359150602083013561565d81615293565b809150509250929050565b634e487b7160e01b600052604160045260246000fd5b600067ffffffffffffffff8084111561569957615699615668565b604051601f8501601f19908116603f011681019082821181831017156156c1576156c1615668565b816040528093508581528686860111156156da57600080fd5b858560208301376000602087830101525050509392505050565b801515811461108057600080fd5b80356151cf816156f4565b60008060008060008060008060006101208a8c03121561572c57600080fd5b6157358a6151be565b985060208a0135975060408a0135965060608a0135955060808a013567ffffffffffffffff81111561576657600080fd5b8a01601f81018c1361577757600080fd5b6157868c82356020840161567e565b95505060a08a0135935060c08a0135925060e08a013591506157ab6101008b01615702565b90509295985092959850929598565b600080604083850312156157cd57600080fd5b82356157d881615239565b9150602083013567ffffffffffffffff8111156157f457600080fd5b8301601f8101851361580557600080fd5b6158148582356020840161567e565b9150509250929050565b6000806040838503121561583157600080fd5b823561526c81615293565b6020815261585060208201835160ff169052565b602082015160408201526040820151606082015260608201516080820152600060808301516101408060a085015261588c6101608501836152e6565b915060a085015160c085015260c085015160e085015260e08501516101008181870152808701519150506101206158c68187018315159052565b860151858403601f19018387015290506158e08382615312565b9695505050505050565b6000602082840312156158fc57600080fd5b813561ffff81168114612c7357600080fd5b6000806020838503121561592157600080fd5b823567ffffffffffffffff8082111561593957600080fd5b818501915085601f83011261594d57600080fd5b81358181111561595c57600080fd5b8660208260051b850101111561597157600080fd5b60209290920196919550909350505050565b6020815281511515602082015260006020830151606060408401526159ab6080840182615312565b90506040840151601f19848303016060850152614fb082826152e6565b600181811c908216806159dc57607f821691505b6020821081036159fc57634e487b7160e01b600052602260045260246000fd5b50919050565b6020808252602c908201527f46756e6374696f6e206d7573742062652063616c6c6564207468726f7567682060408201526b19195b1959d85d1958d85b1b60a21b606082015260800190565b6020808252602c908201527f46756e6374696f6e206d7573742062652063616c6c6564207468726f7567682060408201526b6163746976652070726f787960a01b606082015260800190565b600060208284031215615aac57600080fd5b8151612c73816156f4565b6020808252601290820152712cb7ba9030b932903737ba1030b236b4b71760711b604082015260600190565b601f821115610a2a57600081815260208120601f850160051c81016020861015615b0a5750805b601f850160051c820191505b81811015615b2957828155600101615b16565b505050505050565b815167ffffffffffffffff811115615b4b57615b4b615668565b615b5f81615b5984546159c8565b84615ae3565b602080601f831160018114615b945760008415615b7c5750858301515b600019600386901b1c1916600185901b178555615b29565b600085815260208120601f198616915b82811015615bc357888601518255948401946001909101908401615ba4565b5085821015615be15787850151600019600388901b60f8161c191681555b5050505050600190811b01905550565b634e487b7160e01b600052601160045260246000fd5b8082028115828204841417614fb557614fb5615bf1565b81810381811115614fb557614fb5615bf1565b80820180821115614fb557614fb5615bf1565b600060208284031215615c5657600080fd5b8151612c7381615239565b600082615c7e57634e487b7160e01b600052601260045260246000fd5b500490565b600060208284031215615c9557600080fd5b8151612c7381615293565b63ffffffff818116838216019080821115615cbd57615cbd615bf1565b5092915050565b600063ffffffff808316818103615cdd57615cdd615bf1565b6001019392505050565b600060208284031215615cf957600080fd5b5051919050565b60ff8181168382160190811115614fb557614fb5615bf1565b634e487b7160e01b600052603260045260246000fd5b600060ff821660ff8103615d4557615d45615bf1565b60010192915050565b6020808252602b908201527f496e697469616c697a61626c653a20636f6e7472616374206973206e6f74206960408201526a6e697469616c697a696e6760a81b606082015260800190565b60008251615dab8184602087016152c2565b9190910192915050565b602081526000612c7360208301846152e656fe360894a13ba1a3210667c828492db98dca3e2076cc3735a920a3ca505d382bbc416464726573733a206c6f772d6c6576656c2064656c65676174652063616c6c206661696c6564a264697066735822122093f660e16d7c829be739c8b0379f8ed5cd9deae1759f921b542f9e182d68d3e864736f6c63430008110033",
  "linkReferences": {},
  "deployedLinkReferences": {}
}