{
  "_format": "hh-sol-artifact-1",
  "contractName": "ReferralV4Upgradeable",
  "sourceName": "contracts/ReferralV4Upgradeable.sol",
  "abi": [
    {
      "anonymous": false,
      "inputs": [
        {
          "indexed": false,
          "internalType": "uint32",
          "name": "id",
          "type": "uint32"
        }
      ],
      "name": "ActivatedId",
      "type": "event"
    },
    {
      "anonymous": false,
      "inputs": [
        {
          "indexed": false,
          "internalType": "uint32",
          "name": "id",
          "type": "uint32"
        },
        {
          "indexed": false,
          "internalType": "uint32",
          "name": "index",
          "type": "uint32"
        },
        {
          "indexed": false,
          "internalType": "uint8",
          "name": "rank",
          "type": "uint8"
        }
      ],
      "name": "AddedInRoyaltyClubList",
      "type": "event"
    },
    {
      "anonymous": false,
      "inputs": [
        {
          "indexed": false,
          "internalType": "address",
          "name": "previousAdmin",
          "type": "address"
        },
        {
          "indexed": false,
          "internalType": "address",
          "name": "newAdmin",
          "type": "address"
        }
      ],
      "name": "AdminChanged",
      "type": "event"
    },
    {
      "anonymous": false,
      "inputs": [
        {
          "indexed": true,
          "internalType": "address",
          "name": "beacon",
          "type": "address"
        }
      ],
      "name": "BeaconUpgraded",
      "type": "event"
    },
    {
      "anonymous": false,
      "inputs": [
        {
          "indexed": false,
          "internalType": "uint32",
          "name": "id",
          "type": "uint32"
        },
        {
          "indexed": false,
          "internalType": "string",
          "name": "reason",
          "type": "string"
        }
      ],
      "name": "DeactivatedId",
      "type": "event"
    },
    {
      "anonymous": false,
      "inputs": [
        {
          "indexed": false,
          "internalType": "uint8",
          "name": "version",
          "type": "uint8"
        }
      ],
      "name": "Initialized",
      "type": "event"
    },
    {
      "anonymous": false,
      "inputs": [
        {
          "indexed": false,
          "internalType": "uint32",
          "name": "id",
          "type": "uint32"
        },
        {
          "indexed": false,
          "internalType": "address",
          "name": "owner",
          "type": "address"
        }
      ],
      "name": "OwnerChangedId",
      "type": "event"
    },
    {
      "anonymous": false,
      "inputs": [
        {
          "indexed": true,
          "internalType": "address",
          "name": "previousOwner",
          "type": "address"
        },
        {
          "indexed": true,
          "internalType": "address",
          "name": "newOwner",
          "type": "address"
        }
      ],
      "name": "OwnershipTransferred",
      "type": "event"
    },
    {
      "anonymous": false,
      "inputs": [
        {
          "indexed": false,
          "internalType": "uint8",
          "name": "packageId",
          "type": "uint8"
        }
      ],
      "name": "PackageAdded",
      "type": "event"
    },
    {
      "anonymous": false,
      "inputs": [
        {
          "indexed": false,
          "internalType": "uint8",
          "name": "packageId",
          "type": "uint8"
        }
      ],
      "name": "PackageRemoved",
      "type": "event"
    },
    {
      "anonymous": false,
      "inputs": [
        {
          "indexed": false,
          "internalType": "uint8",
          "name": "packageId",
          "type": "uint8"
        }
      ],
      "name": "PackageUpdated",
      "type": "event"
    },
    {
      "anonymous": false,
      "inputs": [
        {
          "indexed": true,
          "internalType": "uint32",
          "name": "refererId",
          "type": "uint32"
        },
        {
          "indexed": true,
          "internalType": "uint8",
          "name": "level",
          "type": "uint8"
        },
        {
          "indexed": true,
          "internalType": "string",
          "name": "reason",
          "type": "string"
        }
      ],
      "name": "ReferralNotPaid",
      "type": "event"
    },
    {
      "anonymous": false,
      "inputs": [
        {
          "indexed": true,
          "internalType": "uint32",
          "name": "refereeId",
          "type": "uint32"
        },
        {
          "indexed": true,
          "internalType": "uint32",
          "name": "referrerId",
          "type": "uint32"
        },
        {
          "indexed": true,
          "internalType": "uint256",
          "name": "amount",
          "type": "uint256"
        },
        {
          "indexed": false,
          "internalType": "uint8",
          "name": "level",
          "type": "uint8"
        }
      ],
      "name": "ReferralRewardPaid",
      "type": "event"
    },
    {
      "anonymous": false,
      "inputs": [
        {
          "indexed": true,
          "internalType": "address",
          "name": "refereeId",
          "type": "address"
        },
        {
          "indexed": true,
          "internalType": "address",
          "name": "referrerId",
          "type": "address"
        },
        {
          "indexed": true,
          "internalType": "string",
          "name": "reason",
          "type": "string"
        }
      ],
      "name": "RegisterRefererFailed",
      "type": "event"
    },
    {
      "anonymous": false,
      "inputs": [
        {
          "indexed": true,
          "internalType": "uint32",
          "name": "id",
          "type": "uint32"
        },
        {
          "indexed": true,
          "internalType": "uint32",
          "name": "refererId",
          "type": "uint32"
        }
      ],
      "name": "RegisteredReferer",
      "type": "event"
    },
    {
      "anonymous": false,
      "inputs": [
        {
          "indexed": true,
          "internalType": "uint32",
          "name": "refereeId",
          "type": "uint32"
        },
        {
          "indexed": true,
          "internalType": "uint32",
          "name": "referrerId",
          "type": "uint32"
        },
        {
          "indexed": true,
          "internalType": "uint32",
          "name": "parentAccountId",
          "type": "uint32"
        }
      ],
      "name": "RegisteredTeamAddress",
      "type": "event"
    },
    {
      "anonymous": false,
      "inputs": [
        {
          "indexed": true,
          "internalType": "uint32",
          "name": "userid",
          "type": "uint32"
        },
        {
          "indexed": true,
          "internalType": "uint8",
          "name": "packageId",
          "type": "uint8"
        },
        {
          "indexed": true,
          "internalType": "uint256",
          "name": "amount",
          "type": "uint256"
        }
      ],
      "name": "RoyaltyClubBonusPaid",
      "type": "event"
    },
    {
      "anonymous": false,
      "inputs": [
        {
          "indexed": true,
          "internalType": "address",
          "name": "implementation",
          "type": "address"
        }
      ],
      "name": "Upgraded",
      "type": "event"
    },
    {
      "inputs": [
        {
          "internalType": "uint32",
          "name": "_refererId",
          "type": "uint32"
        }
      ],
      "name": "activateId",
      "outputs": [],
      "stateMutability": "payable",
      "type": "function"
    },
    {
      "inputs": [
        {
          "internalType": "address",
          "name": "_userAddress",
          "type": "address"
        },
        {
          "internalType": "uint32",
          "name": "_refererId",
          "type": "uint32"
        },
        {
          "internalType": "uint256",
          "name": "_valueInUSD",
          "type": "uint256"
        },
        {
          "internalType": "uint256",
          "name": "_activationTime",
          "type": "uint256"
        },
        {
          "internalType": "uint256",
          "name": "_roiStartTime",
          "type": "uint256"
        },
        {
          "internalType": "uint256",
          "name": "_roiResetTime",
          "type": "uint256"
        },
        {
          "internalType": "uint256",
          "name": "_roiDurationInDays",
          "type": "uint256"
        }
      ],
      "name": "activateIdAdmin",
      "outputs": [],
      "stateMutability": "nonpayable",
      "type": "function"
    },
    {
      "inputs": [
        {
          "internalType": "uint32",
          "name": "_id",
          "type": "uint32"
        }
      ],
      "name": "claimBalance",
      "outputs": [],
      "stateMutability": "nonpayable",
      "type": "function"
    },
    {
      "inputs": [],
      "name": "companyTurnoverTimeLimit",
      "outputs": [
        {
          "internalType": "uint256",
          "name": "",
          "type": "uint256"
        }
      ],
      "stateMutability": "view",
      "type": "function"
    },
    {
      "inputs": [],
      "name": "companyTurnoverTimeStamp",
      "outputs": [
        {
          "internalType": "uint256",
          "name": "",
          "type": "uint256"
        }
      ],
      "stateMutability": "view",
      "type": "function"
    },
    {
      "inputs": [],
      "name": "companyTurnoverWithTimeLimit",
      "outputs": [
        {
          "internalType": "uint256",
          "name": "",
          "type": "uint256"
        }
      ],
      "stateMutability": "view",
      "type": "function"
    },
    {
      "inputs": [],
      "name": "decimals",
      "outputs": [
        {
          "internalType": "uint16",
          "name": "",
          "type": "uint16"
        }
      ],
      "stateMutability": "view",
      "type": "function"
    },
    {
      "inputs": [
        {
          "internalType": "uint256",
          "name": "",
          "type": "uint256"
        }
      ],
      "name": "disabledUsersList",
      "outputs": [
        {
          "internalType": "address",
          "name": "",
          "type": "address"
        }
      ],
      "stateMutability": "view",
      "type": "function"
    },
    {
      "inputs": [
        {
          "internalType": "uint32",
          "name": "_from",
          "type": "uint32"
        },
        {
          "internalType": "uint32",
          "name": "_to",
          "type": "uint32"
        },
        {
          "internalType": "bool[]",
          "name": "_value",
          "type": "bool[]"
        }
      ],
      "name": "enableIdWithdrawAdmin",
      "outputs": [],
      "stateMutability": "nonpayable",
      "type": "function"
    },
    {
      "inputs": [],
      "name": "futureScureWalletContribution",
      "outputs": [
        {
          "internalType": "uint8",
          "name": "",
          "type": "uint8"
        }
      ],
      "stateMutability": "view",
      "type": "function"
    },
    {
      "inputs": [
        {
          "internalType": "uint8",
          "name": "_packageId",
          "type": "uint8"
        }
      ],
      "name": "getAchieversList",
      "outputs": [
        {
          "internalType": "uint32[]",
          "name": "",
          "type": "uint32[]"
        }
      ],
      "stateMutability": "view",
      "type": "function"
    },
    {
      "inputs": [
        {
          "internalType": "uint32",
          "name": "_id",
          "type": "uint32"
        }
      ],
      "name": "getIdAccount",
      "outputs": [
        {
          "components": [
            {
              "internalType": "uint32",
              "name": "id",
              "type": "uint32"
            },
            {
              "internalType": "string",
              "name": "oldId",
              "type": "string"
            },
            {
              "internalType": "uint256",
              "name": "joiningTime",
              "type": "uint256"
            },
            {
              "internalType": "bool",
              "name": "isAddedToUserList",
              "type": "bool"
            },
            {
              "internalType": "address",
              "name": "owner",
              "type": "address"
            },
            {
              "internalType": "uint32",
              "name": "refererId",
              "type": "uint32"
            },
            {
              "internalType": "bool",
              "name": "hasUpline",
              "type": "bool"
            },
            {
              "internalType": "uint32[]",
              "name": "refereeIds",
              "type": "uint32[]"
            },
            {
              "internalType": "uint32[]",
              "name": "teamIds",
              "type": "uint32[]"
            },
            {
              "internalType": "uint32[]",
              "name": "teamLevel",
              "type": "uint32[]"
            },
            {
              "internalType": "uint256[]",
              "name": "selfBusinessArray",
              "type": "uint256[]"
            },
            {
              "internalType": "uint256",
              "name": "selfBusiness",
              "type": "uint256"
            },
            {
              "internalType": "uint256",
              "name": "selfBusinessOld",
              "type": "uint256"
            },
            {
              "internalType": "uint256",
              "name": "directBusiness",
              "type": "uint256"
            },
            {
              "internalType": "uint256",
              "name": "directBusinessOld",
              "type": "uint256"
            },
            {
              "internalType": "uint256",
              "name": "teamBusiness",
              "type": "uint256"
            },
            {
              "internalType": "uint256",
              "name": "teamBusinessOld",
              "type": "uint256"
            },
            {
              "internalType": "uint256",
              "name": "royaltyClubBusiness",
              "type": "uint256"
            },
            {
              "internalType": "uint256",
              "name": "timeStampRoyaltyClub",
              "type": "uint256"
            },
            {
              "internalType": "uint8",
              "name": "royaltyClubPackageId",
              "type": "uint8"
            },
            {
              "internalType": "uint32",
              "name": "royaltyClubListIndex",
              "type": "uint32"
            },
            {
              "internalType": "uint256",
              "name": "royaltyClubRewardPaid",
              "type": "uint256"
            },
            {
              "internalType": "uint256",
              "name": "topUpIncome",
              "type": "uint256"
            },
            {
              "internalType": "uint256",
              "name": "topUp",
              "type": "uint256"
            },
            {
              "internalType": "uint256",
              "name": "maxLimit",
              "type": "uint256"
            },
            {
              "internalType": "uint256",
              "name": "activationTime",
              "type": "uint256"
            },
            {
              "internalType": "uint256",
              "name": "deactivationTime",
              "type": "uint256"
            },
            {
              "internalType": "uint256",
              "name": "referralPaid",
              "type": "uint256"
            },
            {
              "internalType": "uint32[]",
              "name": "roiIds",
              "type": "uint32[]"
            },
            {
              "internalType": "uint256",
              "name": "roiPaid",
              "type": "uint256"
            },
            {
              "internalType": "uint256",
              "name": "roiClaimedTime",
              "type": "uint256"
            },
            {
              "internalType": "uint256",
              "name": "walletBalance",
              "type": "uint256"
            },
            {
              "internalType": "bool",
              "name": "isActive",
              "type": "bool"
            },
            {
              "internalType": "bool",
              "name": "isROIDisabled",
              "type": "bool"
            },
            {
              "internalType": "bool",
              "name": "isIdVisibilityDisabled",
              "type": "bool"
            },
            {
              "internalType": "bool",
              "name": "canWindraw",
              "type": "bool"
            }
          ],
          "internalType": "struct ReferralV4Upgradeable.StructId",
          "name": "",
          "type": "tuple"
        }
      ],
      "stateMutability": "view",
      "type": "function"
    },
    {
      "inputs": [
        {
          "internalType": "uint32",
          "name": "_id",
          "type": "uint32"
        }
      ],
      "name": "getIdLimits",
      "outputs": [
        {
          "internalType": "uint256",
          "name": "topUpIncome",
          "type": "uint256"
        },
        {
          "internalType": "uint256",
          "name": "topUp",
          "type": "uint256"
        },
        {
          "internalType": "uint256",
          "name": "maxLimit",
          "type": "uint256"
        }
      ],
      "stateMutability": "view",
      "type": "function"
    },
    {
      "inputs": [],
      "name": "getMinContributionETH",
      "outputs": [
        {
          "internalType": "uint256",
          "name": "",
          "type": "uint256"
        }
      ],
      "stateMutability": "view",
      "type": "function"
    },
    {
      "inputs": [
        {
          "internalType": "uint8",
          "name": "_packageId",
          "type": "uint8"
        }
      ],
      "name": "getRoyaltyClubPackageInfo",
      "outputs": [
        {
          "components": [
            {
              "internalType": "uint8",
              "name": "packageId",
              "type": "uint8"
            },
            {
              "internalType": "uint256",
              "name": "selfBusiness",
              "type": "uint256"
            },
            {
              "internalType": "uint256",
              "name": "directBusiness",
              "type": "uint256"
            },
            {
              "internalType": "uint256",
              "name": "teamBusiness",
              "type": "uint256"
            },
            {
              "internalType": "string",
              "name": "rankName",
              "type": "string"
            },
            {
              "internalType": "uint256",
              "name": "reward",
              "type": "uint256"
            },
            {
              "internalType": "uint256",
              "name": "businessLimit",
              "type": "uint256"
            },
            {
              "internalType": "uint256",
              "name": "timeLimit",
              "type": "uint256"
            },
            {
              "internalType": "bool",
              "name": "isPayReccursive",
              "type": "bool"
            },
            {
              "internalType": "uint32[]",
              "name": "achieversList",
              "type": "uint32[]"
            }
          ],
          "internalType": "struct ReferralV4Upgradeable.StructPackages",
          "name": "",
          "type": "tuple"
        }
      ],
      "stateMutability": "view",
      "type": "function"
    },
    {
      "inputs": [
        {
          "internalType": "address",
          "name": "_address",
          "type": "address"
        }
      ],
      "name": "getUserAccount",
      "outputs": [
        {
          "components": [
            {
              "internalType": "bool",
              "name": "isActive",
              "type": "bool"
            },
            {
              "internalType": "uint32[]",
              "name": "accountIds",
              "type": "uint32[]"
            },
            {
              "internalType": "string",
              "name": "userName",
              "type": "string"
            }
          ],
          "internalType": "struct ReferralV4Upgradeable.StructAccount",
          "name": "",
          "type": "tuple"
        }
      ],
      "stateMutability": "view",
      "type": "function"
    },
    {
      "inputs": [
        {
          "internalType": "uint32",
          "name": "_id",
          "type": "uint32"
        },
        {
          "internalType": "uint256",
          "name": "_value",
          "type": "uint256"
        }
      ],
      "name": "increaseIdTopIncome",
      "outputs": [],
      "stateMutability": "nonpayable",
      "type": "function"
    },
    {
      "inputs": [],
      "name": "initialize",
      "outputs": [],
      "stateMutability": "nonpayable",
      "type": "function"
    },
    {
      "inputs": [],
      "name": "isActivateROI",
      "outputs": [
        {
          "internalType": "bool",
          "name": "",
          "type": "bool"
        }
      ],
      "stateMutability": "view",
      "type": "function"
    },
    {
      "inputs": [],
      "name": "isPayReferral",
      "outputs": [
        {
          "internalType": "bool",
          "name": "",
          "type": "bool"
        }
      ],
      "stateMutability": "view",
      "type": "function"
    },
    {
      "inputs": [],
      "name": "isPayRoyaltyClubBonus",
      "outputs": [
        {
          "internalType": "bool",
          "name": "",
          "type": "bool"
        }
      ],
      "stateMutability": "view",
      "type": "function"
    },
    {
      "inputs": [
        {
          "internalType": "uint256",
          "name": "",
          "type": "uint256"
        }
      ],
      "name": "levelRates",
      "outputs": [
        {
          "internalType": "uint16",
          "name": "",
          "type": "uint16"
        }
      ],
      "stateMutability": "view",
      "type": "function"
    },
    {
      "inputs": [],
      "name": "maxLevels",
      "outputs": [
        {
          "internalType": "uint8",
          "name": "",
          "type": "uint8"
        }
      ],
      "stateMutability": "view",
      "type": "function"
    },
    {
      "inputs": [],
      "name": "minContributionUSD",
      "outputs": [
        {
          "internalType": "uint256",
          "name": "",
          "type": "uint256"
        }
      ],
      "stateMutability": "view",
      "type": "function"
    },
    {
      "inputs": [],
      "name": "owner",
      "outputs": [
        {
          "internalType": "address",
          "name": "",
          "type": "address"
        }
      ],
      "stateMutability": "view",
      "type": "function"
    },
    {
      "inputs": [],
      "name": "packagesCount",
      "outputs": [
        {
          "internalType": "uint8",
          "name": "",
          "type": "uint8"
        }
      ],
      "stateMutability": "view",
      "type": "function"
    },
    {
      "inputs": [
        {
          "internalType": "uint256",
          "name": "_value",
          "type": "uint256"
        },
        {
          "internalType": "uint32",
          "name": "_id",
          "type": "uint32"
        }
      ],
      "name": "payReferralAdmin",
      "outputs": [],
      "stateMutability": "nonpayable",
      "type": "function"
    },
    {
      "inputs": [],
      "name": "proxiableUUID",
      "outputs": [
        {
          "internalType": "bytes32",
          "name": "",
          "type": "bytes32"
        }
      ],
      "stateMutability": "view",
      "type": "function"
    },
    {
      "inputs": [],
      "name": "renounceOwnership",
      "outputs": [],
      "stateMutability": "nonpayable",
      "type": "function"
    },
    {
      "inputs": [],
      "name": "royaltyClubPackageCount",
      "outputs": [
        {
          "internalType": "uint8",
          "name": "",
          "type": "uint8"
        }
      ],
      "stateMutability": "view",
      "type": "function"
    },
    {
      "inputs": [
        {
          "internalType": "address",
          "name": "_address",
          "type": "address"
        },
        {
          "internalType": "uint256",
          "name": "_value",
          "type": "uint256"
        }
      ],
      "name": "sendETHAdmin",
      "outputs": [],
      "stateMutability": "nonpayable",
      "type": "function"
    },
    {
      "inputs": [
        {
          "internalType": "uint32",
          "name": "_from",
          "type": "uint32"
        },
        {
          "internalType": "uint32",
          "name": "_to",
          "type": "uint32"
        },
        {
          "internalType": "bool[]",
          "name": "_value",
          "type": "bool[]"
        }
      ],
      "name": "setIsActiveAdmin",
      "outputs": [],
      "stateMutability": "nonpayable",
      "type": "function"
    },
    {
      "inputs": [
        {
          "internalType": "uint16",
          "name": "_value",
          "type": "uint16"
        }
      ],
      "name": "setLevelDecimals",
      "outputs": [],
      "stateMutability": "nonpayable",
      "type": "function"
    },
    {
      "inputs": [
        {
          "internalType": "uint8[]",
          "name": "_value",
          "type": "uint8[]"
        }
      ],
      "name": "setLevelRates",
      "outputs": [],
      "stateMutability": "nonpayable",
      "type": "function"
    },
    {
      "inputs": [
        {
          "internalType": "uint8",
          "name": "_valueDecimals",
          "type": "uint8"
        }
      ],
      "name": "setMaxLevelsAdmin",
      "outputs": [],
      "stateMutability": "nonpayable",
      "type": "function"
    },
    {
      "inputs": [
        {
          "internalType": "uint256",
          "name": "_valueInUSD",
          "type": "uint256"
        }
      ],
      "name": "setMinContribution",
      "outputs": [],
      "stateMutability": "nonpayable",
      "type": "function"
    },
    {
      "inputs": [
        {
          "internalType": "uint32",
          "name": "_id",
          "type": "uint32"
        }
      ],
      "name": "topUpId",
      "outputs": [],
      "stateMutability": "payable",
      "type": "function"
    },
    {
      "inputs": [],
      "name": "totalIds",
      "outputs": [
        {
          "internalType": "uint32",
          "name": "",
          "type": "uint32"
        }
      ],
      "stateMutability": "view",
      "type": "function"
    },
    {
      "inputs": [],
      "name": "totalReferralPaid",
      "outputs": [
        {
          "internalType": "uint256",
          "name": "",
          "type": "uint256"
        }
      ],
      "stateMutability": "view",
      "type": "function"
    },
    {
      "inputs": [],
      "name": "totalRoyaltyClubBonusPaid",
      "outputs": [
        {
          "internalType": "uint256",
          "name": "",
          "type": "uint256"
        }
      ],
      "stateMutability": "view",
      "type": "function"
    },
    {
      "inputs": [
        {
          "internalType": "address",
          "name": "newOwner",
          "type": "address"
        }
      ],
      "name": "transferOwnership",
      "outputs": [],
      "stateMutability": "nonpayable",
      "type": "function"
    },
    {
      "inputs": [
        {
          "internalType": "uint32",
          "name": "_from",
          "type": "uint32"
        },
        {
          "internalType": "uint32",
          "name": "_to",
          "type": "uint32"
        },
        {
          "internalType": "address[]",
          "name": "_address",
          "type": "address[]"
        }
      ],
      "name": "updateAddressAdmin",
      "outputs": [],
      "stateMutability": "nonpayable",
      "type": "function"
    },
    {
      "inputs": [
        {
          "internalType": "uint32",
          "name": "_id",
          "type": "uint32"
        },
        {
          "internalType": "uint256",
          "name": "_value",
          "type": "uint256"
        }
      ],
      "name": "updateIdWhenClaimROI",
      "outputs": [],
      "stateMutability": "nonpayable",
      "type": "function"
    },
    {
      "inputs": [
        {
          "internalType": "address",
          "name": "newImplementation",
          "type": "address"
        }
      ],
      "name": "upgradeTo",
      "outputs": [],
      "stateMutability": "nonpayable",
      "type": "function"
    },
    {
      "inputs": [
        {
          "internalType": "address",
          "name": "newImplementation",
          "type": "address"
        },
        {
          "internalType": "bytes",
          "name": "data",
          "type": "bytes"
        }
      ],
      "name": "upgradeToAndCall",
      "outputs": [],
      "stateMutability": "payable",
      "type": "function"
    },
    {
      "inputs": [
        {
          "internalType": "uint256",
          "name": "",
          "type": "uint256"
        }
      ],
      "name": "users",
      "outputs": [
        {
          "internalType": "address",
          "name": "",
          "type": "address"
        }
      ],
      "stateMutability": "view",
      "type": "function"
    },
    {
      "inputs": [],
      "name": "withdrawETHAdmin",
      "outputs": [],
      "stateMutability": "nonpayable",
      "type": "function"
    },
    {
      "inputs": [
        {
          "internalType": "address",
          "name": "_tokenAddress",
          "type": "address"
        },
        {
          "internalType": "uint256",
          "name": "_value",
          "type": "uint256"
        }
      ],
      "name": "withdrawTokensAdmin",
      "outputs": [],
      "stateMutability": "nonpayable",
      "type": "function"
    },
    {
      "stateMutability": "payable",
      "type": "receive"
    }
  ],
  "bytecode": "0x60a06040523060805234801561001457600080fd5b50608051615a596200004d6000396000818161132d0152818161136d015281816119bc015281816119fc0152611b830152615a596000f3fe6080604052600436106102975760003560e01c8063715018a61161015a578063a0b6105f116100c1578063db8e64ab1161007a578063db8e64ab14610803578063e1c715ba14610823578063f2fde38b14610843578063f41bfeef14610863578063fafc959714610879578063fb47e0161461089b57600080fd5b8063a0b6105f1461075a578063a152b0f01461077a578063a28a36861461078d578063a43ae408146107b0578063bcb93f9b146107d0578063cd21364d146107e357600080fd5b80638129fc1c116101135780638129fc1c146106c1578063852ff2fd146106d65780638af925dc146106ec5780638c351fac146107065780638da5cb5b146107265780638f84de851461074457600080fd5b8063715018a6146106095780637879b5ef1461061e5780637ade95d31461063e5780637bdbf9961461065e5780637c5994861461068b5780637cf97c8c146106a157600080fd5b8063365b98b2116101fe5780634f1ef286116101b75780634f1ef28614610552578063509d6c521461056557806352d1902d146105855780636ccc10ae1461059a5780636f38e410146105ba5780637084431f146105da57600080fd5b8063365b98b214610465578063390a5ba5146104855780633eff2def146104b7578063473b0d46146104d7578063498b3e55146104f75780634e6e93a31461051757600080fd5b806322f88b521161025057806322f88b52146103b65780632ed421d2146103cc578063300825b5146103e2578063313ce5671461040257806335759788146104305780633659cfe61461044557600080fd5b8063012da720146102a35780630b243dad146102d95780631319cff9146102fb57806318e10bff146103335780631f9e65e414610366578063210097891461038957600080fd5b3661029e57005b600080fd5b3480156102af57600080fd5b506102c36102be366004614ea8565b6108c8565b6040516102d09190614ecb565b60405180910390f35b3480156102e557600080fd5b506102f96102f4366004614f2a565b61095d565b005b34801561030757600080fd5b5061031b610316366004614f56565b6109a0565b6040516001600160a01b0390911681526020016102d0565b34801561033f57600080fd5b5060d554610354906301000000900460ff1681565b60405160ff90911681526020016102d0565b34801561037257600080fd5b5061037b6109ca565b6040519081526020016102d0565b34801561039557600080fd5b506103a96103a4366004614f81565b6109dc565b6040516102d0919061505f565b3480156103c257600080fd5b5061037b60d05481565b3480156103d857600080fd5b5061037b60d15481565b3480156103ee57600080fd5b506102f96103fd366004614f81565b610fbd565b34801561040e57600080fd5b5060cb5461041d9061ffff1681565b60405161ffff90911681526020016102d0565b34801561043c57600080fd5b506102f96112ec565b34801561045157600080fd5b506102f96104603660046152f7565b611323565b34801561047157600080fd5b5061031b610480366004614f56565b6113ff565b34801561049157600080fd5b5060cf546104a29063ffffffff1681565b60405163ffffffff90911681526020016102d0565b3480156104c357600080fd5b506102f96104d2366004614ea8565b61140f565b3480156104e357600080fd5b506102f96104f2366004614f56565b611435565b34801561050357600080fd5b506102f9610512366004615314565b611442565b34801561052357600080fd5b50610537610532366004614f81565b6114e8565b604080519384526020840192909252908201526060016102d0565b6102f961056036600461535a565b6119b2565b34801561057157600080fd5b506102f961058036600461541e565b611a7e565b34801561059157600080fd5b5061037b611b76565b3480156105a657600080fd5b506102f96105b536600461541e565b611c29565b3480156105c657600080fd5b5060cb546103549062010000900460ff1681565b3480156105e657600080fd5b5060d5546105f990610100900460ff1681565b60405190151581526020016102d0565b34801561061557600080fd5b506102f9611cd0565b34801561062a57600080fd5b5061041d610639366004614f56565b611ce4565b34801561064a57600080fd5b506102f9610659366004615488565b611d1c565b34801561066a57600080fd5b5061067e610679366004614ea8565b611ea0565b6040516102d091906154ed565b34801561069757600080fd5b5061037b60ce5481565b3480156106ad57600080fd5b506102f96106bc36600461559b565b61209f565b3480156106cd57600080fd5b506102f961236e565b3480156106e257600080fd5b5061037b60cd5481565b3480156106f857600080fd5b5060d5546105f99060ff1681565b34801561071257600080fd5b506102f9610721366004615488565b612606565b34801561073257600080fd5b506033546001600160a01b031661031b565b34801561075057600080fd5b5061037b60cc5481565b34801561076657600080fd5b506102f9610775366004614f2a565b612766565b6102f9610788366004614f81565b6127df565b34801561079957600080fd5b5060cf546103549065010000000000900460ff1681565b3480156107bc57600080fd5b506102f96107cb3660046155fd565b612a77565b6102f96107de366004614f81565b612a97565b3480156107ef57600080fd5b5060d5546103549062010000900460ff1681565b34801561080f57600080fd5b506102f961081e366004615488565b612d30565b34801561082f57600080fd5b506102f961083e366004615621565b612e92565b34801561084f57600080fd5b506102f961085e3660046152f7565b612ea6565b34801561086f57600080fd5b5061037b60d25481565b34801561088557600080fd5b5060cf546105f990640100000000900460ff1681565b3480156108a757600080fd5b506108bb6108b63660046152f7565b612f1c565b6040516102d09190615663565b60ff8116600090815260d8602090815260409182902060090180548351818402810184019094528084526060939283018282801561095157602002820191906000526020600020906000905b82829054906101000a900463ffffffff1663ffffffff16815260200190600401906020826003010492830192600103820291508084116109145790505b50505050509050919050565b610965613082565b6040516001600160a01b0383169082156108fc029083906000818181858888f1935050505015801561099b573d6000803e3d6000fd5b505050565b60d381815481106109b057600080fd5b6000918252602090912001546001600160a01b0316905081565b60006109d760cc546130dc565b905090565b610b12604051806104800160405280600063ffffffff168152602001606081526020016000815260200160001515815260200160006001600160a01b03168152602001600063ffffffff168152602001600015158152602001606081526020016060815260200160608152602001606081526020016000815260200160008152602001600081526020016000815260200160008152602001600081526020016000815260200160008152602001600060ff168152602001600063ffffffff16815260200160008152602001600081526020016000815260200160008152602001600081526020016000815260200160008152602001606081526020016000815260200160008152602001600081526020016000151581526020016000151581526020016000151581526020016000151581525090565b63ffffffff808316600090815260d76020908152604091829020825161048081019093528054909316825260018301805492939291840191610b53906156a8565b80601f0160208091040260200160405190810160405280929190818152602001828054610b7f906156a8565b8015610bcc5780601f10610ba157610100808354040283529160200191610bcc565b820191906000526020600020905b815481529060010190602001808311610baf57829003601f168201915b50505091835250506002820154602080830191909152600383015460ff80821615156040808601919091526001600160a01b03610100840416606086015263ffffffff600160a81b8404166080860152600160c81b90920416151560a084015260048401805482518185028101850190935280835260c0909401939192909190830182828015610ca757602002820191906000526020600020906000905b82829054906101000a900463ffffffff1663ffffffff1681526020019060040190602082600301049283019260010382029150808411610c6a5790505b5050505050815260200160058201805480602002602001604051908101604052809291908181526020018280548015610d2b57602002820191906000526020600020906000905b82829054906101000a900463ffffffff1663ffffffff1681526020019060040190602082600301049283019260010382029150808411610cee5790505b5050505050815260200160068201805480602002602001604051908101604052809291908181526020018280548015610daf57602002820191906000526020600020906000905b82829054906101000a900463ffffffff1663ffffffff1681526020019060040190602082600301049283019260010382029150808411610d725790505b5050505050815260200160078201805480602002602001604051908101604052809291908181526020018280548015610e0757602002820191906000526020600020905b815481526020019060010190808311610df3575b505050918352505060088201546020808301919091526009830154604080840191909152600a8401546060840152600b8401546080840152600c84015460a0840152600d84015460c0840152600e84015460e0840152600f84015461010080850191909152601085015460ff81166101208601520463ffffffff166101408401526011840154610160840152601284015461018084015260138401546101a084015260148401546101c084015260158401546101e084015260168401546102008401526017840154610220840152601884018054825181850281018501909352808352610240909401939192909190830182828015610f5157602002820191906000526020600020906000905b82829054906101000a900463ffffffff1663ffffffff1681526020019060040190602082600301049283019260010382029150808411610f145790505b505050918352505060198201546020820152601a8201546040820152601b8201546060820152601c9091015460ff8082161515608084015261010082048116151560a08401526201000082048116151560c0840152630100000090910416151560e09091015292915050565b63ffffffff8116600090815260d760205260409081902060c9549151630935e01b60e21b815233600482015290916001600160a01b0316906324d7806c90602401602060405180830381865afa15801561101b573d6000803e3d6000fd5b505050506040513d601f19601f8201168201806040525081019061103f91906156f0565b61117e57600381015461010090046001600160a01b031633146110a95760405162461bcd60e51b815260206004820152601d60248201527f596f7520617265206e6f74206f776e6572206f6620746869732069642e00000060448201526064015b60405180910390fd5b678ac7230489e8000081601b015410156111115760405162461bcd60e51b8152602060048201526024808201527f42616c616e6365206973206c657373207468616e206d696e20776974686472616044820152633bb0b61760e11b60648201526084016110a0565b601c8101546301000000900460ff1661117e5760405162461bcd60e51b815260206004820152602960248201527f54686973206964207769746864726177206973206e6f7420656e61626c656420604482015268313c9030b236b4b71760b91b60648201526084016110a0565b601b81015460d55460009060649061119f9062010000900460ff1684615723565b6111a9919061573a565b905060c960009054906101000a90046001600160a01b03166001600160a01b031662f9cc666040518163ffffffff1660e01b8152600401602060405180830381865afa1580156111fd573d6000803e3d6000fd5b505050506040513d601f19601f82011682018060405250810190611221919061575c565b6003840154604051633528777d60e11b81526001600160a01b036101009092048216600482015260248101849052911690636a50eefa90604401600060405180830381600087803b15801561127557600080fd5b505af1158015611289573d6000803e3d6000fd5b50505050600383015461010090046001600160a01b03166108fc6112b56112b08486615779565b6130dc565b6040518115909202916000818181858888f193505050501580156112dd573d6000803e3d6000fd5b5082601b016000905550505050565b6112f4613082565b60405133904780156108fc02916000818181858888f19350505050158015611320573d6000803e3d6000fd5b50565b6001600160a01b037f000000000000000000000000000000000000000000000000000000000000000016300361136b5760405162461bcd60e51b81526004016110a09061578c565b7f00000000000000000000000000000000000000000000000000000000000000006001600160a01b03166113b46000805160206159dd833981519152546001600160a01b031690565b6001600160a01b0316146113da5760405162461bcd60e51b81526004016110a0906157d8565b6113e3816131da565b60408051600080825260208201909252611320918391906131e2565b60d481815481106109b057600080fd5b611417613082565b60cb805460ff909216620100000262ff000019909216919091179055565b61143d613082565b60cc55565b60c954604051630935e01b60e21b81523360048201526001600160a01b03909116906324d7806c90602401602060405180830381865afa15801561148a573d6000803e3d6000fd5b505050506040513d601f19601f820116820180604052508101906114ae91906156f0565b6114ca5760405162461bcd60e51b81526004016110a090615824565b60d554610100900460ff16156114e4576114e4828261334d565b5050565b63ffffffff808216600090815260d76020908152604080832081516104808101909252805490941681526001840180549394859485948594939084019161152e906156a8565b80601f016020809104026020016040519081016040528092919081815260200182805461155a906156a8565b80156115a75780601f1061157c576101008083540402835291602001916115a7565b820191906000526020600020905b81548152906001019060200180831161158a57829003601f168201915b50505091835250506002820154602080830191909152600383015460ff80821615156040808601919091526001600160a01b03610100840416606086015263ffffffff600160a81b8404166080860152600160c81b90920416151560a084015260048401805482518185028101850190935280835260c090940193919290919083018282801561168257602002820191906000526020600020906000905b82829054906101000a900463ffffffff1663ffffffff16815260200190600401906020826003010492830192600103820291508084116116455790505b505050505081526020016005820180548060200260200160405190810160405280929190818152602001828054801561170657602002820191906000526020600020906000905b82829054906101000a900463ffffffff1663ffffffff16815260200190600401906020826003010492830192600103820291508084116116c95790505b505050505081526020016006820180548060200260200160405190810160405280929190818152602001828054801561178a57602002820191906000526020600020906000905b82829054906101000a900463ffffffff1663ffffffff168152602001906004019060208260030104928301926001038202915080841161174d5790505b50505050508152602001600782018054806020026020016040519081016040528092919081815260200182805480156117e257602002820191906000526020600020905b8154815260200190600101908083116117ce575b505050918352505060088201546020808301919091526009830154604080840191909152600a8401546060840152600b8401546080840152600c84015460a0840152600d84015460c0840152600e84015460e0840152600f84015461010080850191909152601085015460ff81166101208601520463ffffffff166101408401526011840154610160840152601284015461018084015260138401546101a084015260148401546101c084015260158401546101e08401526016840154610200840152601784015461022084015260188401805482518185028101850190935280835261024090940193919290919083018282801561192c57602002820191906000526020600020906000905b82829054906101000a900463ffffffff1663ffffffff16815260200190600401906020826003010492830192600103820291508084116118ef5790505b505050918352505060198201546020820152601a8201546040820152601b8201546060820152601c9091015460ff8082161515608084015261010082048116151560a08401526201000082048116151560c0840152630100000090910416151560e0909101526102c08101516102e0820151610300909201519097919650945092505050565b6001600160a01b037f00000000000000000000000000000000000000000000000000000000000000001630036119fa5760405162461bcd60e51b81526004016110a09061578c565b7f00000000000000000000000000000000000000000000000000000000000000006001600160a01b0316611a436000805160206159dd833981519152546001600160a01b031690565b6001600160a01b031614611a695760405162461bcd60e51b81526004016110a0906157d8565b611a72826131da565b6114e4828260016131e2565b60c954604051630935e01b60e21b81523360048201526001600160a01b03909116906324d7806c90602401602060405180830381865afa158015611ac6573d6000803e3d6000fd5b505050506040513d601f19601f82011682018060405250810190611aea91906156f0565b611b065760405162461bcd60e51b81526004016110a090615824565b63ffffffff8216600090815260d76020526040812042601a82015560198101805491928492611b36908490615850565b9250508190555081816012016000828254611b519190615850565b925050819055508181601b016000828254611b6c9190615850565b9091555050505050565b6000306001600160a01b037f00000000000000000000000000000000000000000000000000000000000000001614611c165760405162461bcd60e51b815260206004820152603860248201527f555550535570677261646561626c653a206d757374206e6f742062652063616c60448201527f6c6564207468726f7567682064656c656761746563616c6c000000000000000060648201526084016110a0565b506000805160206159dd83398151915290565b60c954604051630935e01b60e21b81523360048201526001600160a01b03909116906324d7806c90602401602060405180830381865afa158015611c71573d6000803e3d6000fd5b505050506040513d601f19601f82011682018060405250810190611c9591906156f0565b611cb15760405162461bcd60e51b81526004016110a090615824565b63ffffffff8216600090815260d76020526040902061099b8183613a84565b611cd8613082565b611ce26000613b0e565b565b60ca8181548110611cf457600080fd5b9060005260206000209060109182820401919006600202915054906101000a900461ffff1681565b60c954604051630935e01b60e21b81523360048201526001600160a01b03909116906324d7806c90602401602060405180830381865afa158015611d64573d6000803e3d6000fd5b505050506040513d601f19601f82011682018060405250810190611d8891906156f0565b611da45760405162461bcd60e51b81526004016110a090615824565b60005b8363ffffffff168563ffffffff1611611e995763ffffffff8516600090815260d760205260409020838361ffff8416818110611de557611de5615863565b9050602002016020810190611dfa9190615879565b15801590611e295750600381015461010090046001600160a01b0316600090815260d6602052604090205460ff165b15611e785783838361ffff16818110611e4457611e44615863565b9050602002016020810190611e599190615879565b601c8201805491151563010000000263ff000000199092169190911790555b81611e8281615896565b925050508480611e91906158b7565b955050611da7565b5050505050565b611efb604051806101400160405280600060ff16815260200160008152602001600081526020016000815260200160608152602001600081526020016000815260200160008152602001600015158152602001606081525090565b60ff808316600090815260d860209081526040918290208251610140810184528154909416845260018101549184019190915260028101549183019190915260038101546060830152600481018054608084019190611f59906156a8565b80601f0160208091040260200160405190810160405280929190818152602001828054611f85906156a8565b8015611fd25780601f10611fa757610100808354040283529160200191611fd2565b820191906000526020600020905b815481529060010190602001808311611fb557829003601f168201915b505050505081526020016005820154815260200160068201548152602001600782015481526020016008820160009054906101000a900460ff161515151581526020016009820180548060200260200160405190810160405280929190818152602001828054801561208f57602002820191906000526020600020906000905b82829054906101000a900463ffffffff1663ffffffff16815260200190600401906020826003010492830192600103820291508084116120525790505b5050505050815250509050919050565b60c954604051630935e01b60e21b81523360048201526001600160a01b03909116906324d7806c90602401602060405180830381865afa1580156120e7573d6000803e3d6000fd5b505050506040513d601f19601f8201168201806040525081019061210b91906156f0565b6121275760405162461bcd60e51b81526004016110a090615824565b60cf5460009061213e9063ffffffff1660016158d0565b6001600160a01b038916600090815260d66020908152604080832063ffffffff8516845260d790925290912091925090612194818b858c8c612181816003615723565b60cb548e9062010000900460ff16613b60565b60d55460ff16156122f35760c954604080516344846f9d60e11b815290516000926001600160a01b031691638908df3a9160048083019260209291908290030181865afa1580156121e9573d6000803e3d6000fd5b505050506040513d601f19601f8201168201806040525081019061220d919061575c565b6001600160a01b031663d275f14e858b8a8a61222c8b62015180615723565b6040516001600160e01b031960e088901b16815263ffffffff959095166004860152602485019390935260448401919091526064830152608482015260a4016020604051808303816000875af115801561228a573d6000803e3d6000fd5b505050506040513d601f19601f820116820180604052508101906122ae91906158f4565b601883018054600181018255600091825260209091206008820401805460079092166004026101000a63ffffffff818102199093169390921691909102919091179055505b6001828101805491820181556000908152602081206008830401805460079093166004026101000a63ffffffff818102199094168785169190910217905560cf80549092169190612343836158b7565b91906101000a81548163ffffffff021916908363ffffffff1602179055505050505050505050505050565b600054610100900460ff161580801561238e5750600054600160ff909116105b806123a85750303b1580156123a8575060005460ff166001145b61240b5760405162461bcd60e51b815260206004820152602e60248201527f496e697469616c697a61626c653a20636f6e747261637420697320616c72656160448201526d191e481a5b9a5d1a585b1a5e995960921b60648201526084016110a0565b6000805460ff19166001179055801561242e576000805461ff0019166101001790555b60c980546001600160a01b031916730b8bf5feb9fca57d9c5d27185ddf3017e99a2d3617905560cb805461ffff19166103e8179055604080516103a08101825260648152604660208201526032918101829052606081018290526080810182905260a0810182905260c0810182905260e08101829052610100810182905261012081018290526101408101829052610160810182905261018081018290526101a081018290526101c081018290526101e08101829052610200810182905261022081018290526102408101919091526014610260820181905261028082018190526102a082018190526102c082018190526102e08201819052610300820181905261032082018190526103408201819052610360820181905261038082015261255b9060ca90601d614ce3565b5060cb805462ff000019166232000017905568056bc75e2d6310000060cc5560cf8054660200000000000066ff00ff000000001990911617905560d5805462278d0060d25562ffffff1916621401011790556125b5613e83565b6125bd613eb2565b8015611320576000805461ff0019169055604051600181527f7f26b83ff96e1f2b6a682f133852f6798a09c465da95921460cefb3847402498906020015b60405180910390a150565b60c954604051630935e01b60e21b81523360048201526001600160a01b03909116906324d7806c90602401602060405180830381865afa15801561264e573d6000803e3d6000fd5b505050506040513d601f19601f8201168201806040525081019061267291906156f0565b61268e5760405162461bcd60e51b81526004016110a090615824565b60005b8363ffffffff168563ffffffff1611611e995763ffffffff8516600090815260d760205260409020838361ffff84168181106126cf576126cf615863565b90506020020160208101906126e49190615879565b156127455783838361ffff168181106126ff576126ff615863565b90506020020160208101906127149190615879565b600382015461010090046001600160a01b0316600090815260d660205260409020805460ff19169115159190911790555b8161274f81615896565b92505050848061275e906158b7565b955050612691565b61276e613082565b60405163a9059cbb60e01b8152336004820152602481018290526001600160a01b0383169063a9059cbb906044016020604051808303816000875af11580156127bb573d6000803e3d6000fd5b505050506040513d601f19601f8201168201806040525081019061099b91906156f0565b3460006127eb82613ed9565b905060cc5481101561283f5760405162461bcd60e51b815260206004820152601f60248201527f56616c7565206c657373207468656e206d696e436f6e747269627574696f6e0060448201526064016110a0565b63ffffffff8316600090815260d7602052604081203391429190612864856003615723565b826012015483601401546128789190615779565b6128829190615850565b905060006003836014015460026128999190615723565b6128a3919061573a565b8360120154106128b45760006128ec565b600383601201546003856014015460026128ce9190615723565b6128d8919061573a565b6128e29190615779565b6128ec919061573a565b905061291183868a60008a878a60cb60029054906101000a900460ff1660ff16613b60565b60d55460ff1615612a6d5760c954604080516344846f9d60e11b815290516000926001600160a01b031691638908df3a9160048083019260209291908290030181865afa158015612966573d6000803e3d6000fd5b505050506040513d601f19601f8201168201806040525081019061298a919061575c565b6001600160a01b031663d275f14e8a6129a3858b615850565b6040516001600160e01b031960e085901b16815263ffffffff9290921660048301526024820152604481018890526064810188905263020f5800608482015260a4016020604051808303816000875af1158015612a04573d6000803e3d6000fd5b505050506040513d601f19601f82011682018060405250810190612a2891906158f4565b601885018054600181018255600091825260209091206008820401805460079092166004026101000a63ffffffff818102199093169390921691909102919091179055505b5050505050505050565b612a7f613082565b60cb805461ffff191661ffff92909216919091179055565b346000612aa382613ed9565b905060cc54811015612af75760405162461bcd60e51b815260206004820152601f60248201527f56616c7565206c657373207468656e206d696e436f6e747269627574696f6e0060448201526064016110a0565b60cf5433904290600090612b129063ffffffff1660016158d0565b6001600160a01b038416600090815260d66020908152604080832063ffffffff8516845260d790925290912091925090612b688186858b8a612b55816003615723565b60cb548b9062010000900460ff16613b60565b60d55460ff1615612cb75760c954604080516344846f9d60e11b815290516000926001600160a01b031691638908df3a9160048083019260209291908290030181865afa158015612bbd573d6000803e3d6000fd5b505050506040513d601f19601f82011682018060405250810190612be1919061575c565b60405163693af8a760e11b815263ffffffff8616600482015260248101899052604481018790526064810187905263020f580060848201526001600160a01b03919091169063d275f14e9060a4016020604051808303816000875af1158015612c4e573d6000803e3d6000fd5b505050506040513d601f19601f82011682018060405250810190612c7291906158f4565b601883018054600181018255600091825260209091206008820401805460079092166004026101000a63ffffffff818102199093169390921691909102919091179055505b6001828101805491820181556000908152602081206008830401805460079093166004026101000a63ffffffff818102199094168785169190910217905560cf80549092169190612d07836158b7565b91906101000a81548163ffffffff021916908363ffffffff160217905550505050505050505050565b60c954604051630935e01b60e21b81523360048201526001600160a01b03909116906324d7806c90602401602060405180830381865afa158015612d78573d6000803e3d6000fd5b505050506040513d601f19601f82011682018060405250810190612d9c91906156f0565b612db85760405162461bcd60e51b81526004016110a090615824565b60005b8363ffffffff168563ffffffff1611611e995763ffffffff8516600090815260d76020526040812090848461ffff8516818110612dfa57612dfa615863565b9050602002016020810190612e0f91906152f7565b6001600160a01b031614612e715783838361ffff16818110612e3357612e33615863565b9050602002016020810190612e4891906152f7565b8160030160016101000a8154816001600160a01b0302191690836001600160a01b031602179055505b81612e7b81615896565b925050508480612e8a906158b7565b955050612dbb565b612e9a613082565b61099b60ca8383614d8b565b612eae613082565b6001600160a01b038116612f135760405162461bcd60e51b815260206004820152602660248201527f4f776e61626c653a206e6577206f776e657220697320746865207a65726f206160448201526564647265737360d01b60648201526084016110a0565b61132081613b0e565b612f42604051806060016040528060001515815260200160608152602001606081525090565b6001600160a01b038216600090815260d660209081526040918290208251606081018452815460ff161515815260018201805485518186028101860190965280865291949293858101939290830182828015612fe957602002820191906000526020600020906000905b82829054906101000a900463ffffffff1663ffffffff1681526020019060040190602082600301049283019260010382029150808411612fac5790505b50505050508152602001600282018054613002906156a8565b80601f016020809104026020016040519081016040528092919081815260200182805461302e906156a8565b801561208f5780601f106130505761010080835404028352916020019161208f565b820191906000526020600020905b81548152906001019060200180831161305e57505050919092525091949350505050565b6033546001600160a01b03163314611ce25760405162461bcd60e51b815260206004820181905260248201527f4f776e61626c653a2063616c6c6572206973206e6f7420746865206f776e657260448201526064016110a0565b60008060c960009054906101000a90046001600160a01b03166001600160a01b0316632913497b6040518163ffffffff1660e01b8152600401602060405180830381865afa158015613132573d6000803e3d6000fd5b505050506040513d601f19601f82011682018060405250810190613156919061575c565b6001600160a01b031663e1aa60366040518163ffffffff1660e01b8152600401602060405180830381865afa158015613193573d6000803e3d6000fd5b505050506040513d601f19601f820116820180604052508101906131b79190615911565b6131c984670de0b6b3a7640000615723565b6131d3919061573a565b9392505050565b611320613082565b7f4910fdfa16fed3260ed0e7147f7cc6da11a60208b5b9406d12a635614ffd91435460ff16156132155761099b83613fc7565b826001600160a01b03166352d1902d6040518163ffffffff1660e01b8152600401602060405180830381865afa92505050801561326f575060408051601f3d908101601f1916820190925261326c91810190615911565b60015b6132d25760405162461bcd60e51b815260206004820152602e60248201527f45524331393637557067726164653a206e657720696d706c656d656e7461746960448201526d6f6e206973206e6f74205555505360901b60648201526084016110a0565b6000805160206159dd83398151915281146133415760405162461bcd60e51b815260206004820152602960248201527f45524331393637557067726164653a20756e737570706f727465642070726f786044820152681a58589b195555525160ba1b60648201526084016110a0565b5061099b838383614063565b600060ca8054806020026020016040519081016040528092919081815260200182805480156133c357602002820191906000526020600020906000905b82829054906101000a900461ffff1661ffff168152602001906002019060208260010104928301926001038202915080841161338a5790505b5050835163ffffffff8716600090815260d7602052604081209596509094935091508190505b8360ff168160ff161015613a6457600383015463ffffffff600160a81b9091048116600081815260d76020526040812080549293909216900361342d575050613a64565b6134368161408e565b156134ae5760405172149959995c995c881a5cc8111a5cd8589b1959606a1b81526013015b60405190819003902061346f84600161592a565b60ff168363ffffffff167f915ed47901013ad29e90ede828f72888f54bd58cea141b0c6967498165382eb560405160405180910390a49350613a529050565b604080516104808101909152815463ffffffff168152600182018054613949929184916020840191906134e0906156a8565b80601f016020809104026020016040519081016040528092919081815260200182805461350c906156a8565b80156135595780601f1061352e57610100808354040283529160200191613559565b820191906000526020600020905b81548152906001019060200180831161353c57829003601f168201915b50505091835250506002820154602080830191909152600383015460ff80821615156040808601919091526001600160a01b03610100840416606086015263ffffffff600160a81b8404166080860152600160c81b90920416151560a084015260048401805482518185028101850190935280835260c090940193919290919083018282801561363457602002820191906000526020600020906000905b82829054906101000a900463ffffffff1663ffffffff16815260200190600401906020826003010492830192600103820291508084116135f75790505b50505050508152602001600582018054806020026020016040519081016040528092919081815260200182805480156136b857602002820191906000526020600020906000905b82829054906101000a900463ffffffff1663ffffffff168152602001906004019060208260030104928301926001038202915080841161367b5790505b505050505081526020016006820180548060200260200160405190810160405280929190818152602001828054801561373c57602002820191906000526020600020906000905b82829054906101000a900463ffffffff1663ffffffff16815260200190600401906020826003010492830192600103820291508084116136ff5790505b505050505081526020016007820180548060200260200160405190810160405280929190818152602001828054801561379457602002820191906000526020600020905b815481526020019060010190808311613780575b505050918352505060088201546020808301919091526009830154604080840191909152600a8401546060840152600b8401546080840152600c84015460a0840152600d84015460c0840152600e84015460e0840152600f84015461010080850191909152601085015460ff81166101208601520463ffffffff166101408401526011840154610160840152601284015461018084015260138401546101a084015260148401546101c084015260158401546101e0840152601684015461020084015260178401546102208401526018840180548251818502810185019093528083526102409094019391929091908301828280156138de57602002820191906000526020600020906000905b82829054906101000a900463ffffffff1663ffffffff16815260200190600401906020826003010492830192600103820291508084116138a15790505b505050918352505060198201546020820152601a8201546040820152601b8201546060820152601c9091015460ff8082161515608084015261010082048116151560a08401526201000082048116151560c0840152630100000090910416151560e09091015261420f565b61395484600161592a565b60ff16111561398b576040517f446f776e6c696e65206c6576656c73206c696d697420726561636865640000008152601d0161345b565b60cb54875160009161ffff1690899060ff87169081106139ad576139ad615863565b602002602001015161ffff168b6139c49190615723565b6139ce919061573a565b9050808260170160008282546139e49190615850565b909155506139f490508282613a84565b6139fe8186615850565b94508063ffffffff808516908b167ff8fb9b5ab69a0208214661678427c6b48abf457f53605d1f559d17452f1eea11613a3888600161592a565b60405160ff909116815260200160405180910390a4509350505b80613a5c81615943565b9150506133e9565b508060ce6000828254613a779190615850565b9091555050505050505050565b8160140154818360120154613a999190615850565b11613ad85780826012016000828254613ab29190615850565b925050819055508082601b016000828254613acd9190615850565b909155506114e49050565b81601201548260140154613aec9190615779565b82601b016000828254613aff9190615850565b909155506114e490508261424e565b603380546001600160a01b038381166001600160a01b0319831681179093556040519116919082907f8be0079c531659141344cd1fd0a4f28419497f9722a3daafe3b4186f6b6457e090600090a35050565b875463ffffffff16600003613b8357875463ffffffff191663ffffffff87161788555b601c88015460ff16613b9f57601c8801805460ff191660011790555b600388015460ff16613bf75760d480546001810182556000919091527f9780e26d96b1f2a9a18ef8fc72d589dbf03ef788137b64f43897e83a91e7feec0180546001600160a01b0319166001600160a01b0389161790555b600388015461010090046001600160a01b0316613c3157600388018054610100600160a81b0319166101006001600160a01b038a16021790555b8760020154600003613c4557600288018290555b6003880154600160c81b900460ff16613c895760038801805460ff60c81b1963ffffffff8816600160a81b021664ffffffffff60a81b1990911617600160c81b1790555b60006012890155613c9b60038461573a565b60138901556014880183905560078801805460018101825560009182526020822001859055600889018054869290613cd4908490615850565b9091555050601588018290556040805160008152602081019182905251613cff9160188b0191614df6565b5060005b818160ff161015613e7857600389015463ffffffff600160a81b9091048116600081815260d760205260408120805492939092169003613d44575050613e78565b8260ff16600003613da6578681600a016000828254613d639190615850565b909155505060048181018054600181018255600091825260209091206008820401805460079092169092026101000a63ffffffff81810219909216918c16021790555b8681600c016000828254613dba9190615850565b909155505063ffffffff881615613e3a576005810180546001810182556000918252602082206008820401805460079092166004026101000a63ffffffff818102199093168d841691820217909155835460405190831693928c16927f3ec54e926fe5dd86406fe57832ff318517aed2a5cfbeacfb90a5e9489483ae4b91a45b60cf54640100000000900460ff1615613e5857613e588188876142f6565b613e628786614a50565b9950819050613e7081615943565b915050613d03565b505050505050505050565b600054610100900460ff16613eaa5760405162461bcd60e51b81526004016110a090615962565b611ce2614a8a565b600054610100900460ff16611ce25760405162461bcd60e51b81526004016110a090615962565b600080670de0b6b3a764000060c960009054906101000a90046001600160a01b03166001600160a01b0316632913497b6040518163ffffffff1660e01b8152600401602060405180830381865afa158015613f38573d6000803e3d6000fd5b505050506040513d601f19601f82011682018060405250810190613f5c919061575c565b6001600160a01b031663e1aa60366040518163ffffffff1660e01b8152600401602060405180830381865afa158015613f99573d6000803e3d6000fd5b505050506040513d601f19601f82011682018060405250810190613fbd9190615911565b6131c99085615723565b6001600160a01b0381163b6140345760405162461bcd60e51b815260206004820152602d60248201527f455243313936373a206e657720696d706c656d656e746174696f6e206973206e60448201526c1bdd08184818dbdb9d1c9858dd609a1b60648201526084016110a0565b6000805160206159dd83398151915280546001600160a01b0319166001600160a01b0392909216919091179055565b61406c83614aba565b6000825111806140795750805b1561099b576140888383614afa565b50505050565b601c81015460009060ff1615806140ad57508160140154826012015410155b156140ba57506001919050565b6018820154158015906141fa575060c960009054906101000a90046001600160a01b03166001600160a01b0316638908df3a6040518163ffffffff1660e01b8152600401602060405180830381865afa15801561411b573d6000803e3d6000fd5b505050506040513d601f19601f8201168201806040525081019061413f919061575c565b6001600160a01b03166355332a8583601801600185601801805490506141659190615779565b8154811061417557614175615863565b6000918252602090912060088204015460405160e084901b6001600160e01b0319168152600790921660049081026101000a90910463ffffffff1690820152602401602060405180830381865afa1580156141d4573d6000803e3d6000fd5b505050506040513d601f19601f820116820180604052508101906141f891906156f0565b155b1561420757506001919050565b506000919050565b60e0810151516000908181156131d35760cf5460019061423c906601000000000000900460ff1684615723565b6142469190615779565b949350505050565b601c8101805460ff191690556040805160008152602081019182905251614279916018840191614df6565b5060006012820181905560138201819055601482015542601682015580546040805163ffffffff9092168252602082018190526011908201527013585e08131a5b5a5d0814995858da1959607a1b60608201527fce8ab8f2ac6a94861f9740fa1fed3e6d13a85dfd8a4833bf96f3a0055ba7fb6f906080016125fb565b6010830154604080516104808101909152845463ffffffff16815260018501805460ff9093169261479c92918791602084019190614333906156a8565b80601f016020809104026020016040519081016040528092919081815260200182805461435f906156a8565b80156143ac5780601f10614381576101008083540402835291602001916143ac565b820191906000526020600020905b81548152906001019060200180831161438f57829003601f168201915b50505091835250506002820154602080830191909152600383015460ff80821615156040808601919091526001600160a01b03610100840416606086015263ffffffff600160a81b8404166080860152600160c81b90920416151560a084015260048401805482518185028101850190935280835260c090940193919290919083018282801561448757602002820191906000526020600020906000905b82829054906101000a900463ffffffff1663ffffffff168152602001906004019060208260030104928301926001038202915080841161444a5790505b505050505081526020016005820180548060200260200160405190810160405280929190818152602001828054801561450b57602002820191906000526020600020906000905b82829054906101000a900463ffffffff1663ffffffff16815260200190600401906020826003010492830192600103820291508084116144ce5790505b505050505081526020016006820180548060200260200160405190810160405280929190818152602001828054801561458f57602002820191906000526020600020906000905b82829054906101000a900463ffffffff1663ffffffff16815260200190600401906020826003010492830192600103820291508084116145525790505b50505050508152602001600782018054806020026020016040519081016040528092919081815260200182805480156145e757602002820191906000526020600020905b8154815260200190600101908083116145d3575b505050918352505060088201546020808301919091526009830154604080840191909152600a8401546060840152600b8401546080840152600c84015460a0840152600d84015460c0840152600e84015460e0840152600f84015461010080850191909152601085015460ff81166101208601520463ffffffff166101408401526011840154610160840152601284015461018084015260138401546101a084015260148401546101c084015260158401546101e08401526016840154610200840152601784015461022084015260188401805482518185028101850190935280835261024090940193919290919083018282801561473157602002820191906000526020600020906000905b82829054906101000a900463ffffffff1663ffffffff16815260200190600401906020826003010492830192600103820291508084116146f45790505b505050918352505060198201546020820152601a8201546040820152601b8201546060820152601c9091015460ff8082161515608084015261010082048116151560a08401526201000082048116151560c0840152630100000090910416151560e090910152614bf0565b60ff16111561099b57604080516104808101909152835463ffffffff1681526001840180546147d792918691602084019190614333906156a8565b60108401805460ff191660ff9283169081178255600090815260d860209081526040808320885460099182018054600181810183559187529486206008860401805463ffffffff60079097166004026101000a87810219909116969093169092029490941790559354909416825292902001546148549190615779565b60108401805464ffffffff0019811661010063ffffffff948516810291821793849055875460408051918716825291909404909416602084015260ff918216911617918101919091527f4d3af8f60ffd033b575846f894122f2342b39bc9a90da98d0a966128702b568d9060600160405180910390a1604080516104808101909152835463ffffffff16815260018401805460d8926000926149009288916020840191614333906156a8565b60ff908116825260208201929092526040016000206008015416156149bf57604080516104808101909152835463ffffffff16815260018401805460d8926000926149559288916020840191614333906156a8565b60ff1660ff1681526020019081526020016000206007015483600f015461497c9190615850565b8111156149ab578083600f01819055508183600e0160008282546149a09190615850565b9091555061099b9050565b8183600e0160008282546149a09190615850565b60cf54640100000000900460ff161561099b57601083015460ff16600090815260d860205260409020600501546149f7908490613a84565b601083015460ff908116600090815260d8602052604080822060058101549054875492519194169263ffffffff909216917fdeaf5b294f5016988108257045fc779d7d01e05a4ecdc4df70f62d5a799e053b91a4505050565b60d25460d154614a609190615850565b811115614a6f5760d15560d055565b8160d06000828254614a819190615850565b90915550505050565b600054610100900460ff16614ab15760405162461bcd60e51b81526004016110a090615962565b611ce233613b0e565b614ac381613fc7565b6040516001600160a01b038216907fbc7cd75a20ee27fd9adebab32041f755214dbc6bffa90cc0225b39da2e5c2d3b90600090a250565b60606001600160a01b0383163b614b625760405162461bcd60e51b815260206004820152602660248201527f416464726573733a2064656c65676174652063616c6c20746f206e6f6e2d636f6044820152651b9d1c9858dd60d21b60648201526084016110a0565b600080846001600160a01b031684604051614b7d91906159ad565b600060405180830381855af49150503d8060008114614bb8576040519150601f19603f3d011682016040523d82523d6000602084013e614bbd565b606091505b5091509150614be582826040518060600160405280602781526020016159fd60279139614ca5565b925050505b92915050565b60d5546000906301000000900460ff16815b8160ff168160ff161015614c9e5760ff8116600090815260d8602052604090206001015461016085015110801590614c54575060ff8116600090815260d860205260409020600201546101a085015110155b8015614c7a575060ff8116600090815260d860205260409020600301546101e085015110155b15614c8757809250614c8c565b614c9e565b80614c9681615943565b915050614c02565b5050919050565b60608315614cb45750816131d3565b6131d38383815115614cc95781518083602001fd5b8060405162461bcd60e51b81526004016110a091906159c9565b82805482825590600052602060002090600f01601090048101928215614d7b5791602002820160005b83821115614d4b57835183826101000a81548161ffff021916908360ff1602179055509260200192600201602081600101049283019260010302614d0c565b8015614d795782816101000a81549061ffff0219169055600201602081600101049283019260010302614d4b565b505b50614d87929150614e93565b5090565b82805482825590600052602060002090600f01601090048101928215614d7b5791602002820160005b83821115614d4b57833560ff1683826101000a81548161ffff021916908360ff1602179055509260200192600201602081600101049283019260010302614db4565b82805482825590600052602060002090600701600890048101928215614d7b5791602002820160005b83821115614e6357835183826101000a81548163ffffffff021916908363ffffffff1602179055509260200192600401602081600301049283019260010302614e1f565b8015614d795782816101000a81549063ffffffff0219169055600401602081600301049283019260010302614e63565b5b80821115614d875760008155600101614e94565b600060208284031215614eba57600080fd5b813560ff811681146131d357600080fd5b6020808252825182820181905260009190848201906040850190845b81811015614f0957835163ffffffff1683529284019291840191600101614ee7565b50909695505050505050565b6001600160a01b038116811461132057600080fd5b60008060408385031215614f3d57600080fd5b8235614f4881614f15565b946020939093013593505050565b600060208284031215614f6857600080fd5b5035919050565b63ffffffff8116811461132057600080fd5b600060208284031215614f9357600080fd5b81356131d381614f6f565b60005b83811015614fb9578181015183820152602001614fa1565b50506000910152565b60008151808452614fda816020860160208601614f9e565b601f01601f19169290920160200192915050565b600081518084526020808501945080840160005b8381101561502457815163ffffffff1687529582019590820190600101615002565b509495945050505050565b600081518084526020808501945080840160005b8381101561502457815187529582019590820190600101615043565b6020815261507660208201835163ffffffff169052565b600060208301516104808060408501526150946104a0850183614fc2565b91506040850151606085015260608501516150b3608086018215159052565b5060808501516001600160a01b03811660a08601525060a085015163ffffffff811660c08601525060c085015180151560e08601525060e0850151601f196101008187860301818801526151078584614fee565b9450808801519250506101208187860301818801526151268584614fee565b9450808801519250506101408187860301818801526151458584614fee565b945080880151925050610160818786030181880152615164858461502f565b90880151610180888101919091528801516101a0808901919091528801516101c0808901919091528801516101e0808901919091528801516102008089019190915288015161022080890191909152880151610240808901919091528801516102608089019190915288015190945091506102806151e68188018460ff169052565b87015191506102a06151ff8782018463ffffffff169052565b8701516102c0878101919091528701516102e080880191909152870151610300808801919091528701516103208088019190915287015161034080880191909152870151610360808801919091528701516103808088019190915287015186850382016103a0808901919091529092506152798584614fee565b908801516103c0888101919091528801516103e08089019190915288015161040080890191909152880151909450915061042090506152bb8187018315159052565b86015190506104406152d08682018315159052565b86015190506104606152e58682018315159052565b90950151151593019290925250919050565b60006020828403121561530957600080fd5b81356131d381614f15565b6000806040838503121561532757600080fd5b82359150602083013561533981614f6f565b809150509250929050565b634e487b7160e01b600052604160045260246000fd5b6000806040838503121561536d57600080fd5b823561537881614f15565b9150602083013567ffffffffffffffff8082111561539557600080fd5b818501915085601f8301126153a957600080fd5b8135818111156153bb576153bb615344565b604051601f8201601f19908116603f011681019083821181831017156153e3576153e3615344565b816040528281528860208487010111156153fc57600080fd5b8260208601602083013760006020848301015280955050505050509250929050565b6000806040838503121561543157600080fd5b8235614f4881614f6f565b60008083601f84011261544e57600080fd5b50813567ffffffffffffffff81111561546657600080fd5b6020830191508360208260051b850101111561548157600080fd5b9250929050565b6000806000806060858703121561549e57600080fd5b84356154a981614f6f565b935060208501356154b981614f6f565b9250604085013567ffffffffffffffff8111156154d557600080fd5b6154e18782880161543c565b95989497509550505050565b6020815261550160208201835160ff169052565b602082015160408201526040820151606082015260608201516080820152600060808301516101408060a085015261553d610160850183614fc2565b915060a085015160c085015260c085015160e085015260e08501516101008181870152808701519150506101206155778187018315159052565b860151858403601f19018387015290506155918382614fee565b9695505050505050565b600080600080600080600060e0888a0312156155b657600080fd5b87356155c181614f15565b965060208801356155d181614f6f565b96999698505050506040850135946060810135946080820135945060a0820135935060c0909101359150565b60006020828403121561560f57600080fd5b813561ffff811681146131d357600080fd5b6000806020838503121561563457600080fd5b823567ffffffffffffffff81111561564b57600080fd5b6156578582860161543c565b90969095509350505050565b60208152815115156020820152600060208301516060604084015261568b6080840182614fee565b90506040840151601f19848303016060850152614be58282614fc2565b600181811c908216806156bc57607f821691505b6020821081036156dc57634e487b7160e01b600052602260045260246000fd5b50919050565b801515811461132057600080fd5b60006020828403121561570257600080fd5b81516131d3816156e2565b634e487b7160e01b600052601160045260246000fd5b8082028115828204841417614bea57614bea61570d565b60008261575757634e487b7160e01b600052601260045260246000fd5b500490565b60006020828403121561576e57600080fd5b81516131d381614f15565b81810381811115614bea57614bea61570d565b6020808252602c908201527f46756e6374696f6e206d7573742062652063616c6c6564207468726f7567682060408201526b19195b1959d85d1958d85b1b60a21b606082015260800190565b6020808252602c908201527f46756e6374696f6e206d7573742062652063616c6c6564207468726f7567682060408201526b6163746976652070726f787960a01b606082015260800190565b6020808252601290820152712cb7ba9030b932903737ba1030b236b4b71760711b604082015260600190565b80820180821115614bea57614bea61570d565b634e487b7160e01b600052603260045260246000fd5b60006020828403121561588b57600080fd5b81356131d3816156e2565b600061ffff8083168181036158ad576158ad61570d565b6001019392505050565b600063ffffffff8083168181036158ad576158ad61570d565b63ffffffff8181168382160190808211156158ed576158ed61570d565b5092915050565b60006020828403121561590657600080fd5b81516131d381614f6f565b60006020828403121561592357600080fd5b5051919050565b60ff8181168382160190811115614bea57614bea61570d565b600060ff821660ff81036159595761595961570d565b60010192915050565b6020808252602b908201527f496e697469616c697a61626c653a20636f6e7472616374206973206e6f74206960408201526a6e697469616c697a696e6760a81b606082015260800190565b600082516159bf818460208701614f9e565b9190910192915050565b6020815260006131d36020830184614fc256fe360894a13ba1a3210667c828492db98dca3e2076cc3735a920a3ca505d382bbc416464726573733a206c6f772d6c6576656c2064656c65676174652063616c6c206661696c6564a2646970667358221220b191dcca592cec3228f00ee5cf6d5db215b666ed081cd24ed1c89b8bf14ae03964736f6c63430008120033",
  "linkReferences": {},
  "deployedLinkReferences": {}
}