{
  "_format": "hh-sol-artifact-1",
  "contractName": "ReferralV4Upgradeable",
  "sourceName": "contracts/ReferralV4Upgradeable.sol",
  "abi": [
    {
      "anonymous": false,
      "inputs": [
        {
          "indexed": false,
          "internalType": "uint32",
          "name": "id",
          "type": "uint32"
        }
      ],
      "name": "ActivatedId",
      "type": "event"
    },
    {
      "anonymous": false,
      "inputs": [
        {
          "indexed": false,
          "internalType": "uint32",
          "name": "id",
          "type": "uint32"
        },
        {
          "indexed": false,
          "internalType": "uint32",
          "name": "index",
          "type": "uint32"
        },
        {
          "indexed": false,
          "internalType": "uint8",
          "name": "rank",
          "type": "uint8"
        }
      ],
      "name": "AddedInRoyaltyClubList",
      "type": "event"
    },
    {
      "anonymous": false,
      "inputs": [
        {
          "indexed": false,
          "internalType": "address",
          "name": "previousAdmin",
          "type": "address"
        },
        {
          "indexed": false,
          "internalType": "address",
          "name": "newAdmin",
          "type": "address"
        }
      ],
      "name": "AdminChanged",
      "type": "event"
    },
    {
      "anonymous": false,
      "inputs": [
        {
          "indexed": true,
          "internalType": "address",
          "name": "beacon",
          "type": "address"
        }
      ],
      "name": "BeaconUpgraded",
      "type": "event"
    },
    {
      "anonymous": false,
      "inputs": [
        {
          "indexed": false,
          "internalType": "uint32",
          "name": "id",
          "type": "uint32"
        },
        {
          "indexed": false,
          "internalType": "string",
          "name": "reason",
          "type": "string"
        }
      ],
      "name": "DeactivatedId",
      "type": "event"
    },
    {
      "anonymous": false,
      "inputs": [
        {
          "indexed": false,
          "internalType": "uint8",
          "name": "version",
          "type": "uint8"
        }
      ],
      "name": "Initialized",
      "type": "event"
    },
    {
      "anonymous": false,
      "inputs": [
        {
          "indexed": false,
          "internalType": "uint32",
          "name": "id",
          "type": "uint32"
        },
        {
          "indexed": false,
          "internalType": "address",
          "name": "owner",
          "type": "address"
        }
      ],
      "name": "OwnerChangedId",
      "type": "event"
    },
    {
      "anonymous": false,
      "inputs": [
        {
          "indexed": true,
          "internalType": "address",
          "name": "previousOwner",
          "type": "address"
        },
        {
          "indexed": true,
          "internalType": "address",
          "name": "newOwner",
          "type": "address"
        }
      ],
      "name": "OwnershipTransferred",
      "type": "event"
    },
    {
      "anonymous": false,
      "inputs": [
        {
          "indexed": false,
          "internalType": "uint8",
          "name": "packageId",
          "type": "uint8"
        }
      ],
      "name": "PackageAdded",
      "type": "event"
    },
    {
      "anonymous": false,
      "inputs": [
        {
          "indexed": false,
          "internalType": "uint8",
          "name": "packageId",
          "type": "uint8"
        }
      ],
      "name": "PackageRemoved",
      "type": "event"
    },
    {
      "anonymous": false,
      "inputs": [
        {
          "indexed": false,
          "internalType": "uint8",
          "name": "packageId",
          "type": "uint8"
        }
      ],
      "name": "PackageUpdated",
      "type": "event"
    },
    {
      "anonymous": false,
      "inputs": [
        {
          "indexed": true,
          "internalType": "uint32",
          "name": "refererId",
          "type": "uint32"
        },
        {
          "indexed": true,
          "internalType": "uint8",
          "name": "level",
          "type": "uint8"
        },
        {
          "indexed": true,
          "internalType": "string",
          "name": "reason",
          "type": "string"
        }
      ],
      "name": "ReferralNotPaid",
      "type": "event"
    },
    {
      "anonymous": false,
      "inputs": [
        {
          "indexed": true,
          "internalType": "uint32",
          "name": "refereeId",
          "type": "uint32"
        },
        {
          "indexed": true,
          "internalType": "uint32",
          "name": "referrerId",
          "type": "uint32"
        },
        {
          "indexed": true,
          "internalType": "uint256",
          "name": "amount",
          "type": "uint256"
        },
        {
          "indexed": false,
          "internalType": "uint8",
          "name": "level",
          "type": "uint8"
        }
      ],
      "name": "ReferralRewardPaid",
      "type": "event"
    },
    {
      "anonymous": false,
      "inputs": [
        {
          "indexed": true,
          "internalType": "address",
          "name": "refereeId",
          "type": "address"
        },
        {
          "indexed": true,
          "internalType": "address",
          "name": "referrerId",
          "type": "address"
        },
        {
          "indexed": true,
          "internalType": "string",
          "name": "reason",
          "type": "string"
        }
      ],
      "name": "RegisterRefererFailed",
      "type": "event"
    },
    {
      "anonymous": false,
      "inputs": [
        {
          "indexed": true,
          "internalType": "uint32",
          "name": "id",
          "type": "uint32"
        },
        {
          "indexed": true,
          "internalType": "uint32",
          "name": "refererId",
          "type": "uint32"
        }
      ],
      "name": "RegisteredReferer",
      "type": "event"
    },
    {
      "anonymous": false,
      "inputs": [
        {
          "indexed": true,
          "internalType": "uint32",
          "name": "refereeId",
          "type": "uint32"
        },
        {
          "indexed": true,
          "internalType": "uint32",
          "name": "referrerId",
          "type": "uint32"
        },
        {
          "indexed": true,
          "internalType": "uint32",
          "name": "parentAccountId",
          "type": "uint32"
        }
      ],
      "name": "RegisteredTeamAddress",
      "type": "event"
    },
    {
      "anonymous": false,
      "inputs": [
        {
          "indexed": true,
          "internalType": "uint32",
          "name": "userid",
          "type": "uint32"
        },
        {
          "indexed": true,
          "internalType": "uint8",
          "name": "packageId",
          "type": "uint8"
        },
        {
          "indexed": true,
          "internalType": "uint256",
          "name": "amount",
          "type": "uint256"
        }
      ],
      "name": "RoyaltyClubBonusPaid",
      "type": "event"
    },
    {
      "anonymous": false,
      "inputs": [
        {
          "indexed": true,
          "internalType": "address",
          "name": "implementation",
          "type": "address"
        }
      ],
      "name": "Upgraded",
      "type": "event"
    },
    {
      "inputs": [
        {
          "internalType": "uint32",
          "name": "_refererId",
          "type": "uint32"
        }
      ],
      "name": "activateId",
      "outputs": [],
      "stateMutability": "payable",
      "type": "function"
    },
    {
      "inputs": [
        {
          "internalType": "uint32",
          "name": "_id",
          "type": "uint32"
        },
        {
          "internalType": "uint256",
          "name": "_valueInUSD",
          "type": "uint256"
        }
      ],
      "name": "claimBalance",
      "outputs": [],
      "stateMutability": "nonpayable",
      "type": "function"
    },
    {
      "inputs": [],
      "name": "companyTurnoverTimeLimit",
      "outputs": [
        {
          "internalType": "uint256",
          "name": "",
          "type": "uint256"
        }
      ],
      "stateMutability": "view",
      "type": "function"
    },
    {
      "inputs": [],
      "name": "companyTurnoverTimeStamp",
      "outputs": [
        {
          "internalType": "uint256",
          "name": "",
          "type": "uint256"
        }
      ],
      "stateMutability": "view",
      "type": "function"
    },
    {
      "inputs": [],
      "name": "companyTurnoverWithTimeLimit",
      "outputs": [
        {
          "internalType": "uint256",
          "name": "",
          "type": "uint256"
        }
      ],
      "stateMutability": "view",
      "type": "function"
    },
    {
      "inputs": [],
      "name": "decimals",
      "outputs": [
        {
          "internalType": "uint16",
          "name": "",
          "type": "uint16"
        }
      ],
      "stateMutability": "view",
      "type": "function"
    },
    {
      "inputs": [
        {
          "internalType": "address",
          "name": "_userAddress",
          "type": "address"
        }
      ],
      "name": "disableUserAdmin",
      "outputs": [],
      "stateMutability": "nonpayable",
      "type": "function"
    },
    {
      "inputs": [
        {
          "internalType": "uint256",
          "name": "",
          "type": "uint256"
        }
      ],
      "name": "disabledUsersList",
      "outputs": [
        {
          "internalType": "address",
          "name": "",
          "type": "address"
        }
      ],
      "stateMutability": "view",
      "type": "function"
    },
    {
      "inputs": [],
      "name": "futureScureWalletContribution",
      "outputs": [
        {
          "internalType": "uint8",
          "name": "",
          "type": "uint8"
        }
      ],
      "stateMutability": "view",
      "type": "function"
    },
    {
      "inputs": [
        {
          "internalType": "uint8",
          "name": "_packageId",
          "type": "uint8"
        }
      ],
      "name": "getAchieversList",
      "outputs": [
        {
          "internalType": "uint32[]",
          "name": "",
          "type": "uint32[]"
        }
      ],
      "stateMutability": "view",
      "type": "function"
    },
    {
      "inputs": [
        {
          "internalType": "uint32",
          "name": "_id",
          "type": "uint32"
        }
      ],
      "name": "getIdAccount",
      "outputs": [
        {
          "components": [
            {
              "internalType": "uint32",
              "name": "id",
              "type": "uint32"
            },
            {
              "internalType": "string",
              "name": "oldId",
              "type": "string"
            },
            {
              "internalType": "uint256",
              "name": "joiningTime",
              "type": "uint256"
            },
            {
              "internalType": "bool",
              "name": "isAddedToUserList",
              "type": "bool"
            },
            {
              "internalType": "address",
              "name": "owner",
              "type": "address"
            },
            {
              "internalType": "uint32",
              "name": "refererId",
              "type": "uint32"
            },
            {
              "internalType": "bool",
              "name": "hasUpline",
              "type": "bool"
            },
            {
              "internalType": "uint32[]",
              "name": "refereeIds",
              "type": "uint32[]"
            },
            {
              "internalType": "uint32[]",
              "name": "teamIds",
              "type": "uint32[]"
            },
            {
              "internalType": "uint32[]",
              "name": "teamLevel",
              "type": "uint32[]"
            },
            {
              "internalType": "uint256[]",
              "name": "selfBusinessArray",
              "type": "uint256[]"
            },
            {
              "internalType": "uint256",
              "name": "selfBusiness",
              "type": "uint256"
            },
            {
              "internalType": "uint256",
              "name": "selfBusinessOld",
              "type": "uint256"
            },
            {
              "internalType": "uint256",
              "name": "directBusiness",
              "type": "uint256"
            },
            {
              "internalType": "uint256",
              "name": "directBusinessOld",
              "type": "uint256"
            },
            {
              "internalType": "uint256",
              "name": "teamBusiness",
              "type": "uint256"
            },
            {
              "internalType": "uint256",
              "name": "teamBusinessOld",
              "type": "uint256"
            },
            {
              "internalType": "uint256",
              "name": "royaltyClubBusiness",
              "type": "uint256"
            },
            {
              "internalType": "uint256",
              "name": "timeStampRoyaltyClub",
              "type": "uint256"
            },
            {
              "internalType": "uint8",
              "name": "royaltyClubPackageId",
              "type": "uint8"
            },
            {
              "internalType": "uint32",
              "name": "royaltyClubListIndex",
              "type": "uint32"
            },
            {
              "internalType": "uint256",
              "name": "royaltyClubRewardPaid",
              "type": "uint256"
            },
            {
              "internalType": "uint256",
              "name": "topUpIncome",
              "type": "uint256"
            },
            {
              "internalType": "uint256",
              "name": "topUp",
              "type": "uint256"
            },
            {
              "internalType": "uint256",
              "name": "maxLimit",
              "type": "uint256"
            },
            {
              "internalType": "uint256",
              "name": "activationTime",
              "type": "uint256"
            },
            {
              "internalType": "uint256",
              "name": "deactivationTime",
              "type": "uint256"
            },
            {
              "internalType": "uint256",
              "name": "referralPaid",
              "type": "uint256"
            },
            {
              "internalType": "uint32[]",
              "name": "roiIds",
              "type": "uint32[]"
            },
            {
              "internalType": "uint256",
              "name": "roiPaid",
              "type": "uint256"
            },
            {
              "internalType": "uint256",
              "name": "roiClaimedTime",
              "type": "uint256"
            },
            {
              "internalType": "uint256",
              "name": "walletBalance",
              "type": "uint256"
            },
            {
              "internalType": "bool",
              "name": "isActive",
              "type": "bool"
            },
            {
              "internalType": "bool",
              "name": "isROIDisabled",
              "type": "bool"
            },
            {
              "internalType": "bool",
              "name": "isIdVisibilityDisabled",
              "type": "bool"
            },
            {
              "internalType": "bool",
              "name": "canWindraw",
              "type": "bool"
            }
          ],
          "internalType": "struct ReferralV4Upgradeable.StructId",
          "name": "",
          "type": "tuple"
        }
      ],
      "stateMutability": "view",
      "type": "function"
    },
    {
      "inputs": [
        {
          "internalType": "uint32",
          "name": "_id",
          "type": "uint32"
        }
      ],
      "name": "getIdLimits",
      "outputs": [
        {
          "internalType": "uint256",
          "name": "topUpIncome",
          "type": "uint256"
        },
        {
          "internalType": "uint256",
          "name": "topUp",
          "type": "uint256"
        },
        {
          "internalType": "uint256",
          "name": "maxLimit",
          "type": "uint256"
        }
      ],
      "stateMutability": "view",
      "type": "function"
    },
    {
      "inputs": [
        {
          "internalType": "uint32",
          "name": "_id",
          "type": "uint32"
        }
      ],
      "name": "getIdRoyaltyClubLevel",
      "outputs": [
        {
          "internalType": "uint256",
          "name": "",
          "type": "uint256"
        }
      ],
      "stateMutability": "view",
      "type": "function"
    },
    {
      "inputs": [],
      "name": "getMinContributionETH",
      "outputs": [
        {
          "internalType": "uint256",
          "name": "",
          "type": "uint256"
        }
      ],
      "stateMutability": "view",
      "type": "function"
    },
    {
      "inputs": [
        {
          "internalType": "uint8",
          "name": "_packageId",
          "type": "uint8"
        }
      ],
      "name": "getRoyaltyClubPackageInfo",
      "outputs": [
        {
          "components": [
            {
              "internalType": "uint8",
              "name": "packageId",
              "type": "uint8"
            },
            {
              "internalType": "uint256",
              "name": "selfBusiness",
              "type": "uint256"
            },
            {
              "internalType": "uint256",
              "name": "directBusiness",
              "type": "uint256"
            },
            {
              "internalType": "uint256",
              "name": "teamBusiness",
              "type": "uint256"
            },
            {
              "internalType": "string",
              "name": "rankName",
              "type": "string"
            },
            {
              "internalType": "uint256",
              "name": "reward",
              "type": "uint256"
            },
            {
              "internalType": "uint256",
              "name": "businessLimit",
              "type": "uint256"
            },
            {
              "internalType": "uint256",
              "name": "timeLimit",
              "type": "uint256"
            },
            {
              "internalType": "bool",
              "name": "isPayReccursive",
              "type": "bool"
            },
            {
              "internalType": "uint32[]",
              "name": "achieversList",
              "type": "uint32[]"
            }
          ],
          "internalType": "struct ReferralV4Upgradeable.StructPackages",
          "name": "",
          "type": "tuple"
        }
      ],
      "stateMutability": "view",
      "type": "function"
    },
    {
      "inputs": [
        {
          "internalType": "address",
          "name": "_address",
          "type": "address"
        }
      ],
      "name": "getUserAccount",
      "outputs": [
        {
          "components": [
            {
              "internalType": "bool",
              "name": "isActive",
              "type": "bool"
            },
            {
              "internalType": "uint32[]",
              "name": "accountIds",
              "type": "uint32[]"
            },
            {
              "internalType": "string",
              "name": "userName",
              "type": "string"
            }
          ],
          "internalType": "struct ReferralV4Upgradeable.StructAccount",
          "name": "",
          "type": "tuple"
        }
      ],
      "stateMutability": "view",
      "type": "function"
    },
    {
      "inputs": [
        {
          "internalType": "uint32",
          "name": "_id",
          "type": "uint32"
        },
        {
          "internalType": "uint256",
          "name": "_value",
          "type": "uint256"
        }
      ],
      "name": "increaseIdTopIncome",
      "outputs": [],
      "stateMutability": "nonpayable",
      "type": "function"
    },
    {
      "inputs": [],
      "name": "initialize",
      "outputs": [],
      "stateMutability": "nonpayable",
      "type": "function"
    },
    {
      "inputs": [],
      "name": "isActivateROI",
      "outputs": [
        {
          "internalType": "bool",
          "name": "",
          "type": "bool"
        }
      ],
      "stateMutability": "view",
      "type": "function"
    },
    {
      "inputs": [],
      "name": "isPayReferral",
      "outputs": [
        {
          "internalType": "bool",
          "name": "",
          "type": "bool"
        }
      ],
      "stateMutability": "view",
      "type": "function"
    },
    {
      "inputs": [],
      "name": "isPayRoyaltyClubBonus",
      "outputs": [
        {
          "internalType": "bool",
          "name": "",
          "type": "bool"
        }
      ],
      "stateMutability": "view",
      "type": "function"
    },
    {
      "inputs": [
        {
          "internalType": "uint256",
          "name": "",
          "type": "uint256"
        }
      ],
      "name": "levelRates",
      "outputs": [
        {
          "internalType": "uint16",
          "name": "",
          "type": "uint16"
        }
      ],
      "stateMutability": "view",
      "type": "function"
    },
    {
      "inputs": [],
      "name": "maxLevels",
      "outputs": [
        {
          "internalType": "uint8",
          "name": "",
          "type": "uint8"
        }
      ],
      "stateMutability": "view",
      "type": "function"
    },
    {
      "inputs": [],
      "name": "minContributionUSD",
      "outputs": [
        {
          "internalType": "uint256",
          "name": "",
          "type": "uint256"
        }
      ],
      "stateMutability": "view",
      "type": "function"
    },
    {
      "inputs": [],
      "name": "owner",
      "outputs": [
        {
          "internalType": "address",
          "name": "",
          "type": "address"
        }
      ],
      "stateMutability": "view",
      "type": "function"
    },
    {
      "inputs": [],
      "name": "packagesCount",
      "outputs": [
        {
          "internalType": "uint8",
          "name": "",
          "type": "uint8"
        }
      ],
      "stateMutability": "view",
      "type": "function"
    },
    {
      "inputs": [
        {
          "internalType": "uint256",
          "name": "_value",
          "type": "uint256"
        },
        {
          "internalType": "uint32",
          "name": "_id",
          "type": "uint32"
        }
      ],
      "name": "payReferralAdmin",
      "outputs": [],
      "stateMutability": "nonpayable",
      "type": "function"
    },
    {
      "inputs": [],
      "name": "proxiableUUID",
      "outputs": [
        {
          "internalType": "bytes32",
          "name": "",
          "type": "bytes32"
        }
      ],
      "stateMutability": "view",
      "type": "function"
    },
    {
      "inputs": [],
      "name": "renounceOwnership",
      "outputs": [],
      "stateMutability": "nonpayable",
      "type": "function"
    },
    {
      "inputs": [],
      "name": "royaltyClubPackageCount",
      "outputs": [
        {
          "internalType": "uint8",
          "name": "",
          "type": "uint8"
        }
      ],
      "stateMutability": "view",
      "type": "function"
    },
    {
      "inputs": [
        {
          "internalType": "address",
          "name": "_address",
          "type": "address"
        },
        {
          "internalType": "uint256",
          "name": "_value",
          "type": "uint256"
        }
      ],
      "name": "sendETHAdmin",
      "outputs": [],
      "stateMutability": "nonpayable",
      "type": "function"
    },
    {
      "inputs": [
        {
          "internalType": "uint16",
          "name": "_value",
          "type": "uint16"
        }
      ],
      "name": "setLevelDecimals",
      "outputs": [],
      "stateMutability": "nonpayable",
      "type": "function"
    },
    {
      "inputs": [
        {
          "internalType": "uint8[]",
          "name": "_value",
          "type": "uint8[]"
        }
      ],
      "name": "setLevelRates",
      "outputs": [],
      "stateMutability": "nonpayable",
      "type": "function"
    },
    {
      "inputs": [
        {
          "internalType": "uint8",
          "name": "_valueDecimals",
          "type": "uint8"
        }
      ],
      "name": "setMaxLevelsAdmin",
      "outputs": [],
      "stateMutability": "nonpayable",
      "type": "function"
    },
    {
      "inputs": [
        {
          "internalType": "uint256",
          "name": "_valueInUSD",
          "type": "uint256"
        }
      ],
      "name": "setMinContribution",
      "outputs": [],
      "stateMutability": "nonpayable",
      "type": "function"
    },
    {
      "inputs": [
        {
          "internalType": "uint8",
          "name": "packageId",
          "type": "uint8"
        },
        {
          "internalType": "uint256",
          "name": "selfBusiness",
          "type": "uint256"
        },
        {
          "internalType": "uint256",
          "name": "directBusiness",
          "type": "uint256"
        },
        {
          "internalType": "uint256",
          "name": "teamBusiness",
          "type": "uint256"
        },
        {
          "internalType": "string",
          "name": "rankName",
          "type": "string"
        },
        {
          "internalType": "uint256",
          "name": "reward",
          "type": "uint256"
        },
        {
          "internalType": "uint256",
          "name": "businessLimit",
          "type": "uint256"
        },
        {
          "internalType": "uint256",
          "name": "timeLimit",
          "type": "uint256"
        },
        {
          "internalType": "bool",
          "name": "isPayReccursive",
          "type": "bool"
        }
      ],
      "name": "setRoyaltyClubPackage",
      "outputs": [],
      "stateMutability": "nonpayable",
      "type": "function"
    },
    {
      "inputs": [
        {
          "internalType": "uint8",
          "name": "_valueDecimals",
          "type": "uint8"
        }
      ],
      "name": "setRoyaltyPackageCount",
      "outputs": [],
      "stateMutability": "nonpayable",
      "type": "function"
    },
    {
      "inputs": [
        {
          "internalType": "uint32",
          "name": "_id",
          "type": "uint32"
        }
      ],
      "name": "topUpId",
      "outputs": [],
      "stateMutability": "payable",
      "type": "function"
    },
    {
      "inputs": [],
      "name": "totalIds",
      "outputs": [
        {
          "internalType": "uint32",
          "name": "",
          "type": "uint32"
        }
      ],
      "stateMutability": "view",
      "type": "function"
    },
    {
      "inputs": [],
      "name": "totalReferralPaid",
      "outputs": [
        {
          "internalType": "uint256",
          "name": "",
          "type": "uint256"
        }
      ],
      "stateMutability": "view",
      "type": "function"
    },
    {
      "inputs": [],
      "name": "totalRoyaltyClubBonusPaid",
      "outputs": [
        {
          "internalType": "uint256",
          "name": "",
          "type": "uint256"
        }
      ],
      "stateMutability": "view",
      "type": "function"
    },
    {
      "inputs": [
        {
          "internalType": "address",
          "name": "newOwner",
          "type": "address"
        }
      ],
      "name": "transferOwnership",
      "outputs": [],
      "stateMutability": "nonpayable",
      "type": "function"
    },
    {
      "inputs": [
        {
          "internalType": "uint32",
          "name": "_id",
          "type": "uint32"
        },
        {
          "internalType": "uint256",
          "name": "_value",
          "type": "uint256"
        }
      ],
      "name": "updateIdWhenClaimROI",
      "outputs": [],
      "stateMutability": "nonpayable",
      "type": "function"
    },
    {
      "inputs": [
        {
          "internalType": "uint32",
          "name": "_value",
          "type": "uint32"
        }
      ],
      "name": "updateTotalIds",
      "outputs": [],
      "stateMutability": "nonpayable",
      "type": "function"
    },
    {
      "inputs": [
        {
          "internalType": "address",
          "name": "newImplementation",
          "type": "address"
        }
      ],
      "name": "upgradeTo",
      "outputs": [],
      "stateMutability": "nonpayable",
      "type": "function"
    },
    {
      "inputs": [
        {
          "internalType": "address",
          "name": "newImplementation",
          "type": "address"
        },
        {
          "internalType": "bytes",
          "name": "data",
          "type": "bytes"
        }
      ],
      "name": "upgradeToAndCall",
      "outputs": [],
      "stateMutability": "payable",
      "type": "function"
    },
    {
      "inputs": [
        {
          "internalType": "uint256",
          "name": "",
          "type": "uint256"
        }
      ],
      "name": "users",
      "outputs": [
        {
          "internalType": "address",
          "name": "",
          "type": "address"
        }
      ],
      "stateMutability": "view",
      "type": "function"
    },
    {
      "inputs": [],
      "name": "withdrawETHAdmin",
      "outputs": [],
      "stateMutability": "nonpayable",
      "type": "function"
    },
    {
      "inputs": [
        {
          "internalType": "address",
          "name": "_tokenAddress",
          "type": "address"
        },
        {
          "internalType": "uint256",
          "name": "_value",
          "type": "uint256"
        }
      ],
      "name": "withdrawTokensAdmin",
      "outputs": [],
      "stateMutability": "nonpayable",
      "type": "function"
    },
    {
      "stateMutability": "payable",
      "type": "receive"
    }
  ],
  "bytecode": "0x60a06040523060805234801561001457600080fd5b50608051615a6f6200004d6000396000818161103901528181611082015281816117a9015281816117e901526119700152615a6f6000f3fe6080604052600436106102b25760003560e01c80636f38e410116101755780639f4e8398116100dc578063cd21364d11610095578063f31a2d0f1161006f578063f31a2d0f1461087e578063f41bfeef1461089e578063fafc9597146108b4578063fb47e016146108d657600080fd5b8063cd21364d1461081e578063e1c715ba1461083e578063f2fde38b1461085e57600080fd5b80639f4e839814610775578063a0b6105f14610795578063a152b0f0146107b5578063a28a3686146107c8578063a43ae408146107eb578063bcb93f9b1461080b57600080fd5b80638129fc1c1161012e5780638129fc1c146106dc578063852ff2fd146106f15780638af925dc146107075780638da5cb5b146107215780638f84de851461073f578063987dd4a71461075557600080fd5b80636f38e410146106155780637084431f14610635578063715018a6146106645780637879b5ef146106795780637bdbf996146106995780637c599486146106c657600080fd5b8063390a5ba5116102195780634e6e93a3116101d25780634e6e93a3146105525780634f1ef2861461058d578063509d6c52146105a057806352d1902d146105c05780635979369a146105d55780636ccc10ae146105f557600080fd5b8063390a5ba5146104805780633eff2def146104b2578063473b0d46146104d2578063498b3e55146104f25780634a750822146105125780634b5102b81461053257600080fd5b806322f88b521161026b57806322f88b52146103d15780632ed421d2146103e7578063313ce567146103fd578063357597881461042b5780633659cfe614610440578063365b98b21461046057600080fd5b8063012da720146102be5780630b243dad146102f45780631319cff91461031657806318e10bff1461034e5780631f9e65e41461038157806321009789146103a457600080fd5b366102b957005b600080fd5b3480156102ca57600080fd5b506102de6102d9366004614dfe565b610903565b6040516102eb9190614e19565b60405180910390f35b34801561030057600080fd5b5061031461030f366004614e78565b610998565b005b34801561032257600080fd5b50610336610331366004614ea4565b6109db565b6040516001600160a01b0390911681526020016102eb565b34801561035a57600080fd5b5060d55461036f906301000000900460ff1681565b60405160ff90911681526020016102eb565b34801561038d57600080fd5b50610396610a05565b6040519081526020016102eb565b3480156103b057600080fd5b506103c46103bf366004614ecf565b610a17565b6040516102eb9190614fad565b3480156103dd57600080fd5b5061039660d05481565b3480156103f357600080fd5b5061039660d15481565b34801561040957600080fd5b5060cb546104189061ffff1681565b60405161ffff90911681526020016102eb565b34801561043757600080fd5b50610314610ff8565b34801561044c57600080fd5b5061031461045b366004615245565b61102f565b34801561046c57600080fd5b5061033661047b366004614ea4565b611114565b34801561048c57600080fd5b5060cf5461049d9063ffffffff1681565b60405163ffffffff90911681526020016102eb565b3480156104be57600080fd5b506103146104cd366004614dfe565b611124565b3480156104de57600080fd5b506103146104ed366004614ea4565b61114a565b3480156104fe57600080fd5b5061031461050d366004615262565b611157565b34801561051e57600080fd5b5061031461052d366004615337565b6111fd565b34801561053e57600080fd5b5061031461054d366004614dfe565b6112ad565b34801561055e57600080fd5b5061057261056d366004614ecf565b6112d5565b604080519384526020840192909252908201526060016102eb565b61031461059b3660046153e4565b61179f565b3480156105ac57600080fd5b506103146105bb366004615448565b61186b565b3480156105cc57600080fd5b50610396611963565b3480156105e157600080fd5b506103146105f0366004614ecf565b611a16565b34801561060157600080fd5b50610314610610366004615448565b611aba565b34801561062157600080fd5b5060cb5461036f9062010000900460ff1681565b34801561064157600080fd5b5060d55461065490610100900460ff1681565b60405190151581526020016102eb565b34801561067057600080fd5b50610314611b61565b34801561068557600080fd5b50610418610694366004614ea4565b611b75565b3480156106a557600080fd5b506106b96106b4366004614dfe565b611bad565b6040516102eb9190615466565b3480156106d257600080fd5b5061039660ce5481565b3480156106e857600080fd5b50610314611dac565b3480156106fd57600080fd5b5061039660cd5481565b34801561071357600080fd5b5060d5546106549060ff1681565b34801561072d57600080fd5b506033546001600160a01b0316610336565b34801561074b57600080fd5b5061039660cc5481565b34801561076157600080fd5b50610396610770366004614ecf565b612044565b34801561078157600080fd5b50610314610790366004615245565b612503565b3480156107a157600080fd5b506103146107b0366004614e78565b6125ac565b6103146107c3366004614ecf565b612625565b3480156107d457600080fd5b5060cf5461036f9065010000000000900460ff1681565b3480156107f757600080fd5b50610314610806366004615514565b612853565b610314610819366004614ecf565b612873565b34801561082a57600080fd5b5060d55461036f9062010000900460ff1681565b34801561084a57600080fd5b50610314610859366004615538565b612b42565b34801561086a57600080fd5b50610314610879366004615245565b612b56565b34801561088a57600080fd5b50610314610899366004615448565b612bcc565b3480156108aa57600080fd5b5061039660d25481565b3480156108c057600080fd5b5060cf5461065490640100000000900460ff1681565b3480156108e257600080fd5b506108f66108f1366004615245565b612e5c565b6040516102eb91906155ad565b60ff8116600090815260d8602090815260409182902060090180548351818402810184019094528084526060939283018282801561098c57602002820191906000526020600020906000905b82829054906101000a900463ffffffff1663ffffffff168152602001906004019060208260030104928301926001038202915080841161094f5790505b50505050509050919050565b6109a0612fc2565b6040516001600160a01b0383169082156108fc029083906000818181858888f193505050501580156109d6573d6000803e3d6000fd5b505050565b60d381815481106109eb57600080fd5b6000918252602090912001546001600160a01b0316905081565b6000610a1260cc5461301c565b905090565b610b4d604051806104800160405280600063ffffffff168152602001606081526020016000815260200160001515815260200160006001600160a01b03168152602001600063ffffffff168152602001600015158152602001606081526020016060815260200160608152602001606081526020016000815260200160008152602001600081526020016000815260200160008152602001600081526020016000815260200160008152602001600060ff168152602001600063ffffffff16815260200160008152602001600081526020016000815260200160008152602001600081526020016000815260200160008152602001606081526020016000815260200160008152602001600081526020016000151581526020016000151581526020016000151581526020016000151581525090565b63ffffffff808316600090815260d76020908152604091829020825161048081019093528054909316825260018301805492939291840191610b8e906155f2565b80601f0160208091040260200160405190810160405280929190818152602001828054610bba906155f2565b8015610c075780601f10610bdc57610100808354040283529160200191610c07565b820191906000526020600020905b815481529060010190602001808311610bea57829003601f168201915b50505091835250506002820154602080830191909152600383015460ff80821615156040808601919091526001600160a01b03610100840416606086015263ffffffff600160a81b8404166080860152600160c81b90920416151560a084015260048401805482518185028101850190935280835260c0909401939192909190830182828015610ce257602002820191906000526020600020906000905b82829054906101000a900463ffffffff1663ffffffff1681526020019060040190602082600301049283019260010382029150808411610ca55790505b5050505050815260200160058201805480602002602001604051908101604052809291908181526020018280548015610d6657602002820191906000526020600020906000905b82829054906101000a900463ffffffff1663ffffffff1681526020019060040190602082600301049283019260010382029150808411610d295790505b5050505050815260200160068201805480602002602001604051908101604052809291908181526020018280548015610dea57602002820191906000526020600020906000905b82829054906101000a900463ffffffff1663ffffffff1681526020019060040190602082600301049283019260010382029150808411610dad5790505b5050505050815260200160078201805480602002602001604051908101604052809291908181526020018280548015610e4257602002820191906000526020600020905b815481526020019060010190808311610e2e575b505050918352505060088201546020808301919091526009830154604080840191909152600a8401546060840152600b8401546080840152600c84015460a0840152600d84015460c0840152600e84015460e0840152600f84015461010080850191909152601085015460ff81166101208601520463ffffffff166101408401526011840154610160840152601284015461018084015260138401546101a084015260148401546101c084015260158401546101e084015260168401546102008401526017840154610220840152601884018054825181850281018501909352808352610240909401939192909190830182828015610f8c57602002820191906000526020600020906000905b82829054906101000a900463ffffffff1663ffffffff1681526020019060040190602082600301049283019260010382029150808411610f4f5790505b505050918352505060198201546020820152601a8201546040820152601b8201546060820152601c9091015460ff8082161515608084015261010082048116151560a08401526201000082048116151560c0840152630100000090910416151560e09091015292915050565b611000612fc2565b60405133904780156108fc02916000818181858888f1935050505015801561102c573d6000803e3d6000fd5b50565b6001600160a01b037f00000000000000000000000000000000000000000000000000000000000000001630036110805760405162461bcd60e51b81526004016110779061562c565b60405180910390fd5b7f00000000000000000000000000000000000000000000000000000000000000006001600160a01b03166110c96000805160206159f3833981519152546001600160a01b031690565b6001600160a01b0316146110ef5760405162461bcd60e51b815260040161107790615678565b6110f88161311a565b6040805160008082526020820190925261102c91839190613122565b60d481815481106109eb57600080fd5b61112c612fc2565b60cb805460ff909216620100000262ff000019909216919091179055565b611152612fc2565b60cc55565b60c954604051630935e01b60e21b81523360048201526001600160a01b03909116906324d7806c90602401602060405180830381865afa15801561119f573d6000803e3d6000fd5b505050506040513d601f19601f820116820180604052508101906111c391906156c4565b6111df5760405162461bcd60e51b8152600401611077906156e1565b60d554610100900460ff16156111f9576111f9828261328d565b5050565b611205612fc2565b60ff8916600081815260d860205260409020805460ff1916909117815560018101899055600281018890556003810187905560048101611245878261575b565b5060058101859055600681018490556007810183905560088101805460ff191683151517905560405160ff8b1681527f9a2f17868083013e19d4c26d2af13543606bc680c21c994d7648d3a0510164c99060200160405180910390a150505050505050505050565b6112b5612fc2565b60d5805460ff90921663010000000263ff00000019909216919091179055565b63ffffffff808216600090815260d76020908152604080832081516104808101909252805490941681526001840180549394859485948594939084019161131b906155f2565b80601f0160208091040260200160405190810160405280929190818152602001828054611347906155f2565b80156113945780601f1061136957610100808354040283529160200191611394565b820191906000526020600020905b81548152906001019060200180831161137757829003601f168201915b50505091835250506002820154602080830191909152600383015460ff80821615156040808601919091526001600160a01b03610100840416606086015263ffffffff600160a81b8404166080860152600160c81b90920416151560a084015260048401805482518185028101850190935280835260c090940193919290919083018282801561146f57602002820191906000526020600020906000905b82829054906101000a900463ffffffff1663ffffffff16815260200190600401906020826003010492830192600103820291508084116114325790505b50505050508152602001600582018054806020026020016040519081016040528092919081815260200182805480156114f357602002820191906000526020600020906000905b82829054906101000a900463ffffffff1663ffffffff16815260200190600401906020826003010492830192600103820291508084116114b65790505b505050505081526020016006820180548060200260200160405190810160405280929190818152602001828054801561157757602002820191906000526020600020906000905b82829054906101000a900463ffffffff1663ffffffff168152602001906004019060208260030104928301926001038202915080841161153a5790505b50505050508152602001600782018054806020026020016040519081016040528092919081815260200182805480156115cf57602002820191906000526020600020905b8154815260200190600101908083116115bb575b505050918352505060088201546020808301919091526009830154604080840191909152600a8401546060840152600b8401546080840152600c84015460a0840152600d84015460c0840152600e84015460e0840152600f84015461010080850191909152601085015460ff81166101208601520463ffffffff166101408401526011840154610160840152601284015461018084015260138401546101a084015260148401546101c084015260158401546101e08401526016840154610200840152601784015461022084015260188401805482518185028101850190935280835261024090940193919290919083018282801561171957602002820191906000526020600020906000905b82829054906101000a900463ffffffff1663ffffffff16815260200190600401906020826003010492830192600103820291508084116116dc5790505b505050918352505060198201546020820152601a8201546040820152601b8201546060820152601c9091015460ff8082161515608084015261010082048116151560a08401526201000082048116151560c0840152630100000090910416151560e0909101526102c08101516102e0820151610300909201519097919650945092505050565b6001600160a01b037f00000000000000000000000000000000000000000000000000000000000000001630036117e75760405162461bcd60e51b81526004016110779061562c565b7f00000000000000000000000000000000000000000000000000000000000000006001600160a01b03166118306000805160206159f3833981519152546001600160a01b031690565b6001600160a01b0316146118565760405162461bcd60e51b815260040161107790615678565b61185f8261311a565b6111f982826001613122565b60c954604051630935e01b60e21b81523360048201526001600160a01b03909116906324d7806c90602401602060405180830381865afa1580156118b3573d6000803e3d6000fd5b505050506040513d601f19601f820116820180604052508101906118d791906156c4565b6118f35760405162461bcd60e51b8152600401611077906156e1565b63ffffffff8216600090815260d76020526040812042601a82015560198101805491928492611923908490615831565b925050819055508181601201600082825461193e9190615831565b925050819055508181601b0160008282546119599190615831565b9091555050505050565b6000306001600160a01b037f00000000000000000000000000000000000000000000000000000000000000001614611a035760405162461bcd60e51b815260206004820152603860248201527f555550535570677261646561626c653a206d757374206e6f742062652063616c60448201527f6c6564207468726f7567682064656c656761746563616c6c00000000000000006064820152608401611077565b506000805160206159f383398151915290565b60c954604051630935e01b60e21b81523360048201526001600160a01b03909116906324d7806c90602401602060405180830381865afa158015611a5e573d6000803e3d6000fd5b505050506040513d601f19601f82011682018060405250810190611a8291906156c4565b611a9e5760405162461bcd60e51b8152600401611077906156e1565b60cf805463ffffffff191663ffffffff92909216919091179055565b60c954604051630935e01b60e21b81523360048201526001600160a01b03909116906324d7806c90602401602060405180830381865afa158015611b02573d6000803e3d6000fd5b505050506040513d601f19601f82011682018060405250810190611b2691906156c4565b611b425760405162461bcd60e51b8152600401611077906156e1565b63ffffffff8216600090815260d7602052604090206109d681836139c4565b611b69612fc2565b611b736000613a4e565b565b60ca8181548110611b8557600080fd5b9060005260206000209060109182820401919006600202915054906101000a900461ffff1681565b611c08604051806101400160405280600060ff16815260200160008152602001600081526020016000815260200160608152602001600081526020016000815260200160008152602001600015158152602001606081525090565b60ff808316600090815260d860209081526040918290208251610140810184528154909416845260018101549184019190915260028101549183019190915260038101546060830152600481018054608084019190611c66906155f2565b80601f0160208091040260200160405190810160405280929190818152602001828054611c92906155f2565b8015611cdf5780601f10611cb457610100808354040283529160200191611cdf565b820191906000526020600020905b815481529060010190602001808311611cc257829003601f168201915b505050505081526020016005820154815260200160068201548152602001600782015481526020016008820160009054906101000a900460ff1615151515815260200160098201805480602002602001604051908101604052809291908181526020018280548015611d9c57602002820191906000526020600020906000905b82829054906101000a900463ffffffff1663ffffffff1681526020019060040190602082600301049283019260010382029150808411611d5f5790505b5050505050815250509050919050565b600054610100900460ff1615808015611dcc5750600054600160ff909116105b80611de65750303b158015611de6575060005460ff166001145b611e495760405162461bcd60e51b815260206004820152602e60248201527f496e697469616c697a61626c653a20636f6e747261637420697320616c72656160448201526d191e481a5b9a5d1a585b1a5e995960921b6064820152608401611077565b6000805460ff191660011790558015611e6c576000805461ff0019166101001790555b60c980546001600160a01b031916730b8bf5feb9fca57d9c5d27185ddf3017e99a2d3617905560cb805461ffff19166103e8179055604080516103a08101825260648152604660208201526032918101829052606081018290526080810182905260a0810182905260c0810182905260e08101829052610100810182905261012081018290526101408101829052610160810182905261018081018290526101a081018290526101c081018290526101e08101829052610200810182905261022081018290526102408101919091526014610260820181905261028082018190526102a082018190526102c082018190526102e082018190526103008201819052610320820181905261034082018190526103608201819052610380820152611f999060ca90601d614c23565b5060cb805462ff000019166232000017905568056bc75e2d6310000060cc5560cf8054660200000000000066ff00ff000000001990911617905560d5805462278d0060d25562ffffff191662140101179055611ff3613aa0565b611ffb613acf565b801561102c576000805461ff0019169055604051600181527f7f26b83ff96e1f2b6a682f133852f6798a09c465da95921460cefb3847402498906020015b60405180910390a150565b63ffffffff808216600090815260d76020908152604080832081516104808101909252805490941681526001840180549394859492939092908401919061208a906155f2565b80601f01602080910402602001604051908101604052809291908181526020018280546120b6906155f2565b80156121035780601f106120d857610100808354040283529160200191612103565b820191906000526020600020905b8154815290600101906020018083116120e657829003601f168201915b50505091835250506002820154602080830191909152600383015460ff80821615156040808601919091526001600160a01b03610100840416606086015263ffffffff600160a81b8404166080860152600160c81b90920416151560a084015260048401805482518185028101850190935280835260c09094019391929091908301828280156121de57602002820191906000526020600020906000905b82829054906101000a900463ffffffff1663ffffffff16815260200190600401906020826003010492830192600103820291508084116121a15790505b505050505081526020016005820180548060200260200160405190810160405280929190818152602001828054801561226257602002820191906000526020600020906000905b82829054906101000a900463ffffffff1663ffffffff16815260200190600401906020826003010492830192600103820291508084116122255790505b50505050508152602001600682018054806020026020016040519081016040528092919081815260200182805480156122e657602002820191906000526020600020906000905b82829054906101000a900463ffffffff1663ffffffff16815260200190600401906020826003010492830192600103820291508084116122a95790505b505050505081526020016007820180548060200260200160405190810160405280929190818152602001828054801561233e57602002820191906000526020600020905b81548152602001906001019080831161232a575b505050918352505060088201546020808301919091526009830154604080840191909152600a8401546060840152600b8401546080840152600c84015460a0840152600d84015460c0840152600e84015460e0840152600f84015461010080850191909152601085015460ff81166101208601520463ffffffff166101408401526011840154610160840152601284015461018084015260138401546101a084015260148401546101c084015260158401546101e08401526016840154610200840152601784015461022084015260188401805482518185028101850190935280835261024090940193919290919083018282801561248857602002820191906000526020600020906000905b82829054906101000a900463ffffffff1663ffffffff168152602001906004019060208260030104928301926001038202915080841161244b5790505b505050918352505060198201546020820152601a8201546040820152601b8201546060820152601c9091015460ff8082161515608084015261010082048116151560a08401526201000082048116151560c0840152630100000090910416151560e09091015290506124f981613af6565b60ff169392505050565b60c954604051630935e01b60e21b81523360048201526001600160a01b03909116906324d7806c90602401602060405180830381865afa15801561254b573d6000803e3d6000fd5b505050506040513d601f19601f8201168201806040525081019061256f91906156c4565b61258b5760405162461bcd60e51b8152600401611077906156e1565b6001600160a01b0316600090815260d660205260409020805460ff19169055565b6125b4612fc2565b60405163a9059cbb60e01b8152336004820152602481018290526001600160a01b0383169063a9059cbb906044016020604051808303816000875af1158015612601573d6000803e3d6000fd5b505050506040513d601f19601f820116820180604052508101906109d691906156c4565b34600061263182613bab565b905060cc548110156126855760405162461bcd60e51b815260206004820152601f60248201527f56616c7565206c657373207468656e206d696e436f6e747269627574696f6e006044820152606401611077565b63ffffffff8316600090815260d76020526040812033914291906126aa856003615844565b826012015483601401546126be919061585b565b6126c89190615831565b90506126ed828589600089868960cb60029054906101000a900460ff1660ff16613c99565b60d55460ff161561284a5760c954604080516344846f9d60e11b815290516000926001600160a01b031691638908df3a9160048083019260209291908290030181865afa158015612742573d6000803e3d6000fd5b505050506040513d601f19601f82011682018060405250810190612766919061586e565b6001600160a01b031663d275f14e8961278060038661588b565b6040516001600160e01b031960e085901b16815263ffffffff9290921660048301526024820152604481018790526064810187905263020f5800608482015260a4016020604051808303816000875af11580156127e1573d6000803e3d6000fd5b505050506040513d601f19601f8201168201806040525081019061280591906158ad565b601884018054600181018255600091825260209091206008820401805460079092166004026101000a63ffffffff818102199093169390921691909102919091179055505b50505050505050565b61285b612fc2565b60cb805461ffff191661ffff92909216919091179055565b34600061287f82613bab565b905060cc548110156128d35760405162461bcd60e51b815260206004820152601f60248201527f56616c7565206c657373207468656e206d696e436f6e747269627574696f6e006044820152606401611077565b60cf54339042906000906128ee9063ffffffff1660016158ca565b6001600160a01b038416600090815260d66020908152604080832063ffffffff8516845260d790925282209293509190612929876003615844565b8260120154836014015461293d919061585b565b6129479190615831565b905061296b8287868c8b868b60cb60029054906101000a900460ff1660ff16613c99565b60d55460ff1615612ac85760c954604080516344846f9d60e11b815290516000926001600160a01b031691638908df3a9160048083019260209291908290030181865afa1580156129c0573d6000803e3d6000fd5b505050506040513d601f19601f820116820180604052508101906129e4919061586e565b6001600160a01b031663d275f14e866129fe60038661588b565b6040516001600160e01b031960e085901b16815263ffffffff9290921660048301526024820152604481018990526064810189905263020f5800608482015260a4016020604051808303816000875af1158015612a5f573d6000803e3d6000fd5b505050506040513d601f19601f82011682018060405250810190612a8391906158ad565b601884018054600181018255600091825260209091206008820401805460079092166004026101000a63ffffffff818102199093169390921691909102919091179055505b6001838101805491820181556000908152602081206008830401805460079093166004026101000a63ffffffff818102199094168885169190910217905560cf80549092169190612b18836158ee565b91906101000a81548163ffffffff021916908363ffffffff16021790555050505050505050505050565b612b4a612fc2565b6109d660ca8383614ccb565b612b5e612fc2565b6001600160a01b038116612bc35760405162461bcd60e51b815260206004820152602660248201527f4f776e61626c653a206e6577206f776e657220697320746865207a65726f206160448201526564647265737360d01b6064820152608401611077565b61102c81613a4e565b63ffffffff8216600090815260d760205260409020600381015461010090046001600160a01b03163314612c425760405162461bcd60e51b815260206004820152601d60248201527f596f7520617265206e6f74206f776e6572206f6620746869732069642e0000006044820152606401611077565b80601b0154821015612c965760405162461bcd60e51b815260206004820152601b60248201527f76616c75652067726561746572207468616e2062616c616e63652e00000000006044820152606401611077565b601c8101546301000000900460ff16612cf15760405162461bcd60e51b815260206004820152601760248201527f5769746864726177206973206e6f7420656e61626c65640000000000000000006044820152606401611077565b8181601b016000828254612d05919061585b565b909155505060d554600090606490612d269062010000900460ff1685615844565b612d30919061588b565b905060c960009054906101000a90046001600160a01b03166001600160a01b031662f9cc666040518163ffffffff1660e01b8152600401602060405180830381865afa158015612d84573d6000803e3d6000fd5b505050506040513d601f19601f82011682018060405250810190612da8919061586e565b6003830154604051633528777d60e11b81526001600160a01b036101009092048216600482015260248101849052911690636a50eefa90604401600060405180830381600087803b158015612dfc57600080fd5b505af1158015612e10573d6000803e3d6000fd5b503392506108fc9150612e2d9050612e28848761585b565b61301c565b6040518115909202916000818181858888f19350505050158015612e55573d6000803e3d6000fd5b5050505050565b612e82604051806060016040528060001515815260200160608152602001606081525090565b6001600160a01b038216600090815260d660209081526040918290208251606081018452815460ff161515815260018201805485518186028101860190965280865291949293858101939290830182828015612f2957602002820191906000526020600020906000905b82829054906101000a900463ffffffff1663ffffffff1681526020019060040190602082600301049283019260010382029150808411612eec5790505b50505050508152602001600282018054612f42906155f2565b80601f0160208091040260200160405190810160405280929190818152602001828054612f6e906155f2565b8015611d9c5780601f10612f9057610100808354040283529160200191611d9c565b820191906000526020600020905b815481529060010190602001808311612f9e57505050919092525091949350505050565b6033546001600160a01b03163314611b735760405162461bcd60e51b815260206004820181905260248201527f4f776e61626c653a2063616c6c6572206973206e6f7420746865206f776e65726044820152606401611077565b60008060c960009054906101000a90046001600160a01b03166001600160a01b0316632913497b6040518163ffffffff1660e01b8152600401602060405180830381865afa158015613072573d6000803e3d6000fd5b505050506040513d601f19601f82011682018060405250810190613096919061586e565b6001600160a01b031663e1aa60366040518163ffffffff1660e01b8152600401602060405180830381865afa1580156130d3573d6000803e3d6000fd5b505050506040513d601f19601f820116820180604052508101906130f79190615911565b61310984670de0b6b3a7640000615844565b613113919061588b565b9392505050565b61102c612fc2565b7f4910fdfa16fed3260ed0e7147f7cc6da11a60208b5b9406d12a635614ffd91435460ff1615613155576109d683613fbc565b826001600160a01b03166352d1902d6040518163ffffffff1660e01b8152600401602060405180830381865afa9250505080156131af575060408051601f3d908101601f191682019092526131ac91810190615911565b60015b6132125760405162461bcd60e51b815260206004820152602e60248201527f45524331393637557067726164653a206e657720696d706c656d656e7461746960448201526d6f6e206973206e6f74205555505360901b6064820152608401611077565b6000805160206159f383398151915281146132815760405162461bcd60e51b815260206004820152602960248201527f45524331393637557067726164653a20756e737570706f727465642070726f786044820152681a58589b195555525160ba1b6064820152608401611077565b506109d6838383614058565b600060ca80548060200260200160405190810160405280929190818152602001828054801561330357602002820191906000526020600020906000905b82829054906101000a900461ffff1661ffff16815260200190600201906020826001010492830192600103820291508084116132ca5790505b5050835163ffffffff8716600090815260d7602052604081209596509094935091508190505b8360ff168160ff1610156139a457600383015463ffffffff600160a81b9091048116600081815260d76020526040812080549293909216900361336d5750506139a4565b61337681614083565b156133ee5760405172149959995c995c881a5cc8111a5cd8589b1959606a1b81526013015b6040519081900390206133af84600161592a565b60ff168363ffffffff167f915ed47901013ad29e90ede828f72888f54bd58cea141b0c6967498165382eb560405160405180910390a493506139929050565b604080516104808101909152815463ffffffff16815260018201805461388992918491602084019190613420906155f2565b80601f016020809104026020016040519081016040528092919081815260200182805461344c906155f2565b80156134995780601f1061346e57610100808354040283529160200191613499565b820191906000526020600020905b81548152906001019060200180831161347c57829003601f168201915b50505091835250506002820154602080830191909152600383015460ff80821615156040808601919091526001600160a01b03610100840416606086015263ffffffff600160a81b8404166080860152600160c81b90920416151560a084015260048401805482518185028101850190935280835260c090940193919290919083018282801561357457602002820191906000526020600020906000905b82829054906101000a900463ffffffff1663ffffffff16815260200190600401906020826003010492830192600103820291508084116135375790505b50505050508152602001600582018054806020026020016040519081016040528092919081815260200182805480156135f857602002820191906000526020600020906000905b82829054906101000a900463ffffffff1663ffffffff16815260200190600401906020826003010492830192600103820291508084116135bb5790505b505050505081526020016006820180548060200260200160405190810160405280929190818152602001828054801561367c57602002820191906000526020600020906000905b82829054906101000a900463ffffffff1663ffffffff168152602001906004019060208260030104928301926001038202915080841161363f5790505b50505050508152602001600782018054806020026020016040519081016040528092919081815260200182805480156136d457602002820191906000526020600020905b8154815260200190600101908083116136c0575b505050918352505060088201546020808301919091526009830154604080840191909152600a8401546060840152600b8401546080840152600c84015460a0840152600d84015460c0840152600e84015460e0840152600f84015461010080850191909152601085015460ff81166101208601520463ffffffff166101408401526011840154610160840152601284015461018084015260138401546101a084015260148401546101c084015260158401546101e08401526016840154610200840152601784015461022084015260188401805482518185028101850190935280835261024090940193919290919083018282801561381e57602002820191906000526020600020906000905b82829054906101000a900463ffffffff1663ffffffff16815260200190600401906020826003010492830192600103820291508084116137e15790505b505050918352505060198201546020820152601a8201546040820152601b8201546060820152601c9091015460ff8082161515608084015261010082048116151560a08401526201000082048116151560c0840152630100000090910416151560e090910152614204565b61389484600161592a565b60ff1611156138cb576040517f446f776e6c696e65206c6576656c73206c696d697420726561636865640000008152601d0161339b565b60cb54875160009161ffff1690899060ff87169081106138ed576138ed615943565b602002602001015161ffff168b6139049190615844565b61390e919061588b565b9050808260170160008282546139249190615831565b90915550613934905082826139c4565b61393e8186615831565b94508063ffffffff808516908b167ff8fb9b5ab69a0208214661678427c6b48abf457f53605d1f559d17452f1eea1161397888600161592a565b60405160ff909116815260200160405180910390a4509350505b8061399c81615959565b915050613329565b508060ce60008282546139b79190615831565b9091555050505050505050565b81601401548183601201546139d99190615831565b11613a1857808260120160008282546139f29190615831565b925050819055508082601b016000828254613a0d9190615831565b909155506111f99050565b81601201548260140154613a2c919061585b565b82601b016000828254613a3f9190615831565b909155506111f9905082614243565b603380546001600160a01b038381166001600160a01b0319831681179093556040519116919082907f8be0079c531659141344cd1fd0a4f28419497f9722a3daafe3b4186f6b6457e090600090a35050565b600054610100900460ff16613ac75760405162461bcd60e51b815260040161107790615978565b611b736142eb565b600054610100900460ff16611b735760405162461bcd60e51b815260040161107790615978565b60d5546000906301000000900460ff16815b8160ff168160ff161015613ba45760ff8116600090815260d8602052604090206001015461016085015110801590613b5a575060ff8116600090815260d860205260409020600201546101a085015110155b8015613b80575060ff8116600090815260d860205260409020600301546101e085015110155b15613b8d57809250613b92565b613ba4565b80613b9c81615959565b915050613b08565b5050919050565b600080670de0b6b3a764000060c960009054906101000a90046001600160a01b03166001600160a01b0316632913497b6040518163ffffffff1660e01b8152600401602060405180830381865afa158015613c0a573d6000803e3d6000fd5b505050506040513d601f19601f82011682018060405250810190613c2e919061586e565b6001600160a01b031663e1aa60366040518163ffffffff1660e01b8152600401602060405180830381865afa158015613c6b573d6000803e3d6000fd5b505050506040513d601f19601f82011682018060405250810190613c8f9190615911565b6131099085615844565b875463ffffffff16600003613cbc57875463ffffffff191663ffffffff87161788555b601c88015460ff16613cd857601c8801805460ff191660011790555b600388015460ff16613d305760d480546001810182556000919091527f9780e26d96b1f2a9a18ef8fc72d589dbf03ef788137b64f43897e83a91e7feec0180546001600160a01b0319166001600160a01b0389161790555b600388015461010090046001600160a01b0316613d6a57600388018054610100600160a81b0319166101006001600160a01b038a16021790555b8760020154600003613d7e57600288018290555b6003880154600160c81b900460ff16613dc25760038801805460ff60c81b1963ffffffff8816600160a81b021664ffffffffff60a81b1990911617600160c81b1790555b60006012890155613dd460038461588b565b60138901556014880183905560078801805460018101825560009182526020822001859055600889018054869290613e0d908490615831565b9091555050601588018290556040805160008152602081019182905251613e389160188b0191614d36565b5060005b818160ff161015613fb157600389015463ffffffff600160a81b9091048116600081815260d760205260408120805492939092169003613e7d575050613fb1565b8260ff16600003613edf578681600a016000828254613e9c9190615831565b909155505060048181018054600181018255600091825260209091206008820401805460079092169092026101000a63ffffffff81810219909216918c16021790555b8681600c016000828254613ef39190615831565b909155505063ffffffff881615613f73576005810180546001810182556000918252602082206008820401805460079092166004026101000a63ffffffff818102199093168d841691820217909155835460405190831693928c16927f3ec54e926fe5dd86406fe57832ff318517aed2a5cfbeacfb90a5e9489483ae4b91a45b60cf54640100000000900460ff1615613f9157613f9181888761431b565b613f9b8786614a75565b9950819050613fa981615959565b915050613e3c565b505050505050505050565b6001600160a01b0381163b6140295760405162461bcd60e51b815260206004820152602d60248201527f455243313936373a206e657720696d706c656d656e746174696f6e206973206e60448201526c1bdd08184818dbdb9d1c9858dd609a1b6064820152608401611077565b6000805160206159f383398151915280546001600160a01b0319166001600160a01b0392909216919091179055565b61406183614aaf565b60008251118061406e5750805b156109d65761407d8383614aef565b50505050565b601c81015460009060ff1615806140a257508160140154826012015410155b156140af57506001919050565b6018820154158015906141ef575060c960009054906101000a90046001600160a01b03166001600160a01b0316638908df3a6040518163ffffffff1660e01b8152600401602060405180830381865afa158015614110573d6000803e3d6000fd5b505050506040513d601f19601f82011682018060405250810190614134919061586e565b6001600160a01b03166355332a85836018016001856018018054905061415a919061585b565b8154811061416a5761416a615943565b6000918252602090912060088204015460405160e084901b6001600160e01b0319168152600790921660049081026101000a90910463ffffffff1690820152602401602060405180830381865afa1580156141c9573d6000803e3d6000fd5b505050506040513d601f19601f820116820180604052508101906141ed91906156c4565b155b156141fc57506001919050565b506000919050565b60e0810151516000908181156131135760cf54600190614231906601000000000000900460ff1684615844565b61423b919061585b565b949350505050565b601c8101805460ff19169055604080516000815260208101918290525161426e916018840191614d36565b5060006012820181905560138201819055601482015542601682015580546040805163ffffffff9092168252602082018190526011908201527013585e08131a5b5a5d0814995858da1959607a1b60608201527fce8ab8f2ac6a94861f9740fa1fed3e6d13a85dfd8a4833bf96f3a0055ba7fb6f90608001612039565b600054610100900460ff166143125760405162461bcd60e51b815260040161107790615978565b611b7333613a4e565b6010830154604080516104808101909152845463ffffffff16815260018501805460ff909316926147c192918791602084019190614358906155f2565b80601f0160208091040260200160405190810160405280929190818152602001828054614384906155f2565b80156143d15780601f106143a6576101008083540402835291602001916143d1565b820191906000526020600020905b8154815290600101906020018083116143b457829003601f168201915b50505091835250506002820154602080830191909152600383015460ff80821615156040808601919091526001600160a01b03610100840416606086015263ffffffff600160a81b8404166080860152600160c81b90920416151560a084015260048401805482518185028101850190935280835260c09094019391929091908301828280156144ac57602002820191906000526020600020906000905b82829054906101000a900463ffffffff1663ffffffff168152602001906004019060208260030104928301926001038202915080841161446f5790505b505050505081526020016005820180548060200260200160405190810160405280929190818152602001828054801561453057602002820191906000526020600020906000905b82829054906101000a900463ffffffff1663ffffffff16815260200190600401906020826003010492830192600103820291508084116144f35790505b50505050508152602001600682018054806020026020016040519081016040528092919081815260200182805480156145b457602002820191906000526020600020906000905b82829054906101000a900463ffffffff1663ffffffff16815260200190600401906020826003010492830192600103820291508084116145775790505b505050505081526020016007820180548060200260200160405190810160405280929190818152602001828054801561460c57602002820191906000526020600020905b8154815260200190600101908083116145f8575b505050918352505060088201546020808301919091526009830154604080840191909152600a8401546060840152600b8401546080840152600c84015460a0840152600d84015460c0840152600e84015460e0840152600f84015461010080850191909152601085015460ff81166101208601520463ffffffff166101408401526011840154610160840152601284015461018084015260138401546101a084015260148401546101c084015260158401546101e08401526016840154610200840152601784015461022084015260188401805482518185028101850190935280835261024090940193919290919083018282801561475657602002820191906000526020600020906000905b82829054906101000a900463ffffffff1663ffffffff16815260200190600401906020826003010492830192600103820291508084116147195790505b505050918352505060198201546020820152601a8201546040820152601b8201546060820152601c9091015460ff8082161515608084015261010082048116151560a08401526201000082048116151560c0840152630100000090910416151560e090910152613af6565b60ff1611156109d657604080516104808101909152835463ffffffff1681526001840180546147fc92918691602084019190614358906155f2565b60108401805460ff191660ff9283169081178255600090815260d860209081526040808320885460099182018054600181810183559187529486206008860401805463ffffffff60079097166004026101000a8781021990911696909316909202949094179055935490941682529290200154614879919061585b565b60108401805464ffffffff0019811661010063ffffffff948516810291821793849055875460408051918716825291909404909416602084015260ff918216911617918101919091527f4d3af8f60ffd033b575846f894122f2342b39bc9a90da98d0a966128702b568d9060600160405180910390a1604080516104808101909152835463ffffffff16815260018401805460d8926000926149259288916020840191614358906155f2565b60ff908116825260208201929092526040016000206008015416156149e457604080516104808101909152835463ffffffff16815260018401805460d89260009261497a9288916020840191614358906155f2565b60ff1660ff1681526020019081526020016000206007015483600f01546149a19190615831565b8111156149d0578083600f01819055508183600e0160008282546149c59190615831565b909155506109d69050565b8183600e0160008282546149c59190615831565b60cf54640100000000900460ff16156109d657601083015460ff16600090815260d86020526040902060050154614a1c9084906139c4565b601083015460ff908116600090815260d8602052604080822060058101549054875492519194169263ffffffff909216917fdeaf5b294f5016988108257045fc779d7d01e05a4ecdc4df70f62d5a799e053b91a4505050565b60d25460d154614a859190615831565b811115614a945760d15560d055565b8160d06000828254614aa69190615831565b90915550505050565b614ab881613fbc565b6040516001600160a01b038216907fbc7cd75a20ee27fd9adebab32041f755214dbc6bffa90cc0225b39da2e5c2d3b90600090a250565b60606001600160a01b0383163b614b575760405162461bcd60e51b815260206004820152602660248201527f416464726573733a2064656c65676174652063616c6c20746f206e6f6e2d636f6044820152651b9d1c9858dd60d21b6064820152608401611077565b600080846001600160a01b031684604051614b7291906159c3565b600060405180830381855af49150503d8060008114614bad576040519150601f19603f3d011682016040523d82523d6000602084013e614bb2565b606091505b5091509150614bda8282604051806060016040528060278152602001615a1360279139614be5565b925050505b92915050565b60608315614bf4575081613113565b6131138383815115614c095781518083602001fd5b8060405162461bcd60e51b815260040161107791906159df565b82805482825590600052602060002090600f01601090048101928215614cbb5791602002820160005b83821115614c8b57835183826101000a81548161ffff021916908360ff1602179055509260200192600201602081600101049283019260010302614c4c565b8015614cb95782816101000a81549061ffff0219169055600201602081600101049283019260010302614c8b565b505b50614cc7929150614dd3565b5090565b82805482825590600052602060002090600f01601090048101928215614cbb5791602002820160005b83821115614c8b57833560ff1683826101000a81548161ffff021916908360ff1602179055509260200192600201602081600101049283019260010302614cf4565b82805482825590600052602060002090600701600890048101928215614cbb5791602002820160005b83821115614da357835183826101000a81548163ffffffff021916908363ffffffff1602179055509260200192600401602081600301049283019260010302614d5f565b8015614cb95782816101000a81549063ffffffff0219169055600401602081600301049283019260010302614da3565b5b80821115614cc75760008155600101614dd4565b803560ff81168114614df957600080fd5b919050565b600060208284031215614e1057600080fd5b61311382614de8565b6020808252825182820181905260009190848201906040850190845b81811015614e5757835163ffffffff1683529284019291840191600101614e35565b50909695505050505050565b6001600160a01b038116811461102c57600080fd5b60008060408385031215614e8b57600080fd5b8235614e9681614e63565b946020939093013593505050565b600060208284031215614eb657600080fd5b5035919050565b63ffffffff8116811461102c57600080fd5b600060208284031215614ee157600080fd5b813561311381614ebd565b60005b83811015614f07578181015183820152602001614eef565b50506000910152565b60008151808452614f28816020860160208601614eec565b601f01601f19169290920160200192915050565b600081518084526020808501945080840160005b83811015614f7257815163ffffffff1687529582019590820190600101614f50565b509495945050505050565b600081518084526020808501945080840160005b83811015614f7257815187529582019590820190600101614f91565b60208152614fc460208201835163ffffffff169052565b60006020830151610480806040850152614fe26104a0850183614f10565b9150604085015160608501526060850151615001608086018215159052565b5060808501516001600160a01b03811660a08601525060a085015163ffffffff811660c08601525060c085015180151560e08601525060e0850151601f196101008187860301818801526150558584614f3c565b9450808801519250506101208187860301818801526150748584614f3c565b9450808801519250506101408187860301818801526150938584614f3c565b9450808801519250506101608187860301818801526150b28584614f7d565b90880151610180888101919091528801516101a0808901919091528801516101c0808901919091528801516101e0808901919091528801516102008089019190915288015161022080890191909152880151610240808901919091528801516102608089019190915288015190945091506102806151348188018460ff169052565b87015191506102a061514d8782018463ffffffff169052565b8701516102c0878101919091528701516102e080880191909152870151610300808801919091528701516103208088019190915287015161034080880191909152870151610360808801919091528701516103808088019190915287015186850382016103a0808901919091529092506151c78584614f3c565b908801516103c0888101919091528801516103e08089019190915288015161040080890191909152880151909450915061042090506152098187018315159052565b860151905061044061521e8682018315159052565b86015190506104606152338682018315159052565b90950151151593019290925250919050565b60006020828403121561525757600080fd5b813561311381614e63565b6000806040838503121561527557600080fd5b82359150602083013561528781614ebd565b809150509250929050565b634e487b7160e01b600052604160045260246000fd5b600067ffffffffffffffff808411156152c3576152c3615292565b604051601f8501601f19908116603f011681019082821181831017156152eb576152eb615292565b8160405280935085815286868601111561530457600080fd5b858560208301376000602087830101525050509392505050565b801515811461102c57600080fd5b8035614df98161531e565b60008060008060008060008060006101208a8c03121561535657600080fd5b61535f8a614de8565b985060208a0135975060408a0135965060608a0135955060808a013567ffffffffffffffff81111561539057600080fd5b8a01601f81018c136153a157600080fd5b6153b08c8235602084016152a8565b95505060a08a0135935060c08a0135925060e08a013591506153d56101008b0161532c565b90509295985092959850929598565b600080604083850312156153f757600080fd5b823561540281614e63565b9150602083013567ffffffffffffffff81111561541e57600080fd5b8301601f8101851361542f57600080fd5b61543e858235602084016152a8565b9150509250929050565b6000806040838503121561545b57600080fd5b8235614e9681614ebd565b6020815261547a60208201835160ff169052565b602082015160408201526040820151606082015260608201516080820152600060808301516101408060a08501526154b6610160850183614f10565b915060a085015160c085015260c085015160e085015260e08501516101008181870152808701519150506101206154f08187018315159052565b860151858403601f190183870152905061550a8382614f3c565b9695505050505050565b60006020828403121561552657600080fd5b813561ffff8116811461311357600080fd5b6000806020838503121561554b57600080fd5b823567ffffffffffffffff8082111561556357600080fd5b818501915085601f83011261557757600080fd5b81358181111561558657600080fd5b8660208260051b850101111561559b57600080fd5b60209290920196919550909350505050565b6020815281511515602082015260006020830151606060408401526155d56080840182614f3c565b90506040840151601f19848303016060850152614bda8282614f10565b600181811c9082168061560657607f821691505b60208210810361562657634e487b7160e01b600052602260045260246000fd5b50919050565b6020808252602c908201527f46756e6374696f6e206d7573742062652063616c6c6564207468726f7567682060408201526b19195b1959d85d1958d85b1b60a21b606082015260800190565b6020808252602c908201527f46756e6374696f6e206d7573742062652063616c6c6564207468726f7567682060408201526b6163746976652070726f787960a01b606082015260800190565b6000602082840312156156d657600080fd5b81516131138161531e565b6020808252601290820152712cb7ba9030b932903737ba1030b236b4b71760711b604082015260600190565b601f8211156109d657600081815260208120601f850160051c810160208610156157345750805b601f850160051c820191505b8181101561575357828155600101615740565b505050505050565b815167ffffffffffffffff81111561577557615775615292565b6157898161578384546155f2565b8461570d565b602080601f8311600181146157be57600084156157a65750858301515b600019600386901b1c1916600185901b178555615753565b600085815260208120601f198616915b828110156157ed578886015182559484019460019091019084016157ce565b508582101561580b5787850151600019600388901b60f8161c191681555b5050505050600190811b01905550565b634e487b7160e01b600052601160045260246000fd5b80820180821115614bdf57614bdf61581b565b8082028115828204841417614bdf57614bdf61581b565b81810381811115614bdf57614bdf61581b565b60006020828403121561588057600080fd5b815161311381614e63565b6000826158a857634e487b7160e01b600052601260045260246000fd5b500490565b6000602082840312156158bf57600080fd5b815161311381614ebd565b63ffffffff8181168382160190808211156158e7576158e761581b565b5092915050565b600063ffffffff8083168181036159075761590761581b565b6001019392505050565b60006020828403121561592357600080fd5b5051919050565b60ff8181168382160190811115614bdf57614bdf61581b565b634e487b7160e01b600052603260045260246000fd5b600060ff821660ff810361596f5761596f61581b565b60010192915050565b6020808252602b908201527f496e697469616c697a61626c653a20636f6e7472616374206973206e6f74206960408201526a6e697469616c697a696e6760a81b606082015260800190565b600082516159d5818460208701614eec565b9190910192915050565b6020815260006131136020830184614f1056fe360894a13ba1a3210667c828492db98dca3e2076cc3735a920a3ca505d382bbc416464726573733a206c6f772d6c6576656c2064656c65676174652063616c6c206661696c6564a2646970667358221220f2f626c0fa27cb3a0bc605f868a3639269b18a9f0fb86efcccacc434d92b908264736f6c63430008120033",
  "linkReferences": {},
  "deployedLinkReferences": {}
}