{
  "_format": "hh-sol-artifact-1",
  "contractName": "ReferralV4Upgradeable",
  "sourceName": "contracts/ReferralV4Upgradeable.sol",
  "abi": [
    {
      "anonymous": false,
      "inputs": [
        {
          "indexed": false,
          "internalType": "uint32",
          "name": "id",
          "type": "uint32"
        }
      ],
      "name": "ActivatedId",
      "type": "event"
    },
    {
      "anonymous": false,
      "inputs": [
        {
          "indexed": false,
          "internalType": "uint32",
          "name": "id",
          "type": "uint32"
        },
        {
          "indexed": false,
          "internalType": "uint32",
          "name": "index",
          "type": "uint32"
        },
        {
          "indexed": false,
          "internalType": "uint8",
          "name": "rank",
          "type": "uint8"
        }
      ],
      "name": "AddedInRoyaltyClubList",
      "type": "event"
    },
    {
      "anonymous": false,
      "inputs": [
        {
          "indexed": false,
          "internalType": "address",
          "name": "previousAdmin",
          "type": "address"
        },
        {
          "indexed": false,
          "internalType": "address",
          "name": "newAdmin",
          "type": "address"
        }
      ],
      "name": "AdminChanged",
      "type": "event"
    },
    {
      "anonymous": false,
      "inputs": [
        {
          "indexed": true,
          "internalType": "address",
          "name": "beacon",
          "type": "address"
        }
      ],
      "name": "BeaconUpgraded",
      "type": "event"
    },
    {
      "anonymous": false,
      "inputs": [
        {
          "indexed": false,
          "internalType": "uint32",
          "name": "id",
          "type": "uint32"
        },
        {
          "indexed": false,
          "internalType": "string",
          "name": "reason",
          "type": "string"
        }
      ],
      "name": "DeactivatedId",
      "type": "event"
    },
    {
      "anonymous": false,
      "inputs": [
        {
          "indexed": false,
          "internalType": "uint8",
          "name": "version",
          "type": "uint8"
        }
      ],
      "name": "Initialized",
      "type": "event"
    },
    {
      "anonymous": false,
      "inputs": [
        {
          "indexed": false,
          "internalType": "uint32",
          "name": "id",
          "type": "uint32"
        },
        {
          "indexed": false,
          "internalType": "address",
          "name": "owner",
          "type": "address"
        }
      ],
      "name": "OwnerChangedId",
      "type": "event"
    },
    {
      "anonymous": false,
      "inputs": [
        {
          "indexed": true,
          "internalType": "address",
          "name": "previousOwner",
          "type": "address"
        },
        {
          "indexed": true,
          "internalType": "address",
          "name": "newOwner",
          "type": "address"
        }
      ],
      "name": "OwnershipTransferred",
      "type": "event"
    },
    {
      "anonymous": false,
      "inputs": [
        {
          "indexed": false,
          "internalType": "uint8",
          "name": "packageId",
          "type": "uint8"
        }
      ],
      "name": "PackageAdded",
      "type": "event"
    },
    {
      "anonymous": false,
      "inputs": [
        {
          "indexed": false,
          "internalType": "uint8",
          "name": "packageId",
          "type": "uint8"
        }
      ],
      "name": "PackageRemoved",
      "type": "event"
    },
    {
      "anonymous": false,
      "inputs": [
        {
          "indexed": false,
          "internalType": "uint8",
          "name": "packageId",
          "type": "uint8"
        }
      ],
      "name": "PackageUpdated",
      "type": "event"
    },
    {
      "anonymous": false,
      "inputs": [
        {
          "indexed": true,
          "internalType": "uint32",
          "name": "refererId",
          "type": "uint32"
        },
        {
          "indexed": true,
          "internalType": "uint8",
          "name": "level",
          "type": "uint8"
        },
        {
          "indexed": true,
          "internalType": "string",
          "name": "reason",
          "type": "string"
        }
      ],
      "name": "ReferralNotPaid",
      "type": "event"
    },
    {
      "anonymous": false,
      "inputs": [
        {
          "indexed": true,
          "internalType": "uint32",
          "name": "refereeId",
          "type": "uint32"
        },
        {
          "indexed": true,
          "internalType": "uint32",
          "name": "referrerId",
          "type": "uint32"
        },
        {
          "indexed": true,
          "internalType": "uint256",
          "name": "amount",
          "type": "uint256"
        },
        {
          "indexed": false,
          "internalType": "uint8",
          "name": "level",
          "type": "uint8"
        }
      ],
      "name": "ReferralRewardPaid",
      "type": "event"
    },
    {
      "anonymous": false,
      "inputs": [
        {
          "indexed": true,
          "internalType": "address",
          "name": "refereeId",
          "type": "address"
        },
        {
          "indexed": true,
          "internalType": "address",
          "name": "referrerId",
          "type": "address"
        },
        {
          "indexed": true,
          "internalType": "string",
          "name": "reason",
          "type": "string"
        }
      ],
      "name": "RegisterRefererFailed",
      "type": "event"
    },
    {
      "anonymous": false,
      "inputs": [
        {
          "indexed": true,
          "internalType": "uint32",
          "name": "id",
          "type": "uint32"
        },
        {
          "indexed": true,
          "internalType": "uint32",
          "name": "refererId",
          "type": "uint32"
        }
      ],
      "name": "RegisteredReferer",
      "type": "event"
    },
    {
      "anonymous": false,
      "inputs": [
        {
          "indexed": true,
          "internalType": "uint32",
          "name": "refereeId",
          "type": "uint32"
        },
        {
          "indexed": true,
          "internalType": "uint32",
          "name": "referrerId",
          "type": "uint32"
        },
        {
          "indexed": true,
          "internalType": "uint32",
          "name": "parentAccountId",
          "type": "uint32"
        }
      ],
      "name": "RegisteredTeamAddress",
      "type": "event"
    },
    {
      "anonymous": false,
      "inputs": [
        {
          "indexed": true,
          "internalType": "uint32",
          "name": "userid",
          "type": "uint32"
        },
        {
          "indexed": true,
          "internalType": "uint8",
          "name": "packageId",
          "type": "uint8"
        },
        {
          "indexed": true,
          "internalType": "uint256",
          "name": "amount",
          "type": "uint256"
        }
      ],
      "name": "RoyaltyClubBonusPaid",
      "type": "event"
    },
    {
      "anonymous": false,
      "inputs": [
        {
          "indexed": true,
          "internalType": "address",
          "name": "implementation",
          "type": "address"
        }
      ],
      "name": "Upgraded",
      "type": "event"
    },
    {
      "inputs": [
        {
          "internalType": "uint32",
          "name": "_refererId",
          "type": "uint32"
        }
      ],
      "name": "activateId",
      "outputs": [],
      "stateMutability": "payable",
      "type": "function"
    },
    {
      "inputs": [],
      "name": "companyTurnoverTimeLimit",
      "outputs": [
        {
          "internalType": "uint256",
          "name": "",
          "type": "uint256"
        }
      ],
      "stateMutability": "view",
      "type": "function"
    },
    {
      "inputs": [],
      "name": "companyTurnoverTimeStamp",
      "outputs": [
        {
          "internalType": "uint256",
          "name": "",
          "type": "uint256"
        }
      ],
      "stateMutability": "view",
      "type": "function"
    },
    {
      "inputs": [],
      "name": "companyTurnoverWithTimeLimit",
      "outputs": [
        {
          "internalType": "uint256",
          "name": "",
          "type": "uint256"
        }
      ],
      "stateMutability": "view",
      "type": "function"
    },
    {
      "inputs": [],
      "name": "decimals",
      "outputs": [
        {
          "internalType": "uint16",
          "name": "",
          "type": "uint16"
        }
      ],
      "stateMutability": "view",
      "type": "function"
    },
    {
      "inputs": [
        {
          "internalType": "uint256",
          "name": "",
          "type": "uint256"
        }
      ],
      "name": "disabledUsersList",
      "outputs": [
        {
          "internalType": "address",
          "name": "",
          "type": "address"
        }
      ],
      "stateMutability": "view",
      "type": "function"
    },
    {
      "inputs": [],
      "name": "futureScureWalletContribution",
      "outputs": [
        {
          "internalType": "uint8",
          "name": "",
          "type": "uint8"
        }
      ],
      "stateMutability": "view",
      "type": "function"
    },
    {
      "inputs": [
        {
          "internalType": "uint8",
          "name": "_packageId",
          "type": "uint8"
        }
      ],
      "name": "getAchieversList",
      "outputs": [
        {
          "internalType": "uint32[]",
          "name": "",
          "type": "uint32[]"
        }
      ],
      "stateMutability": "view",
      "type": "function"
    },
    {
      "inputs": [
        {
          "internalType": "uint32",
          "name": "_id",
          "type": "uint32"
        }
      ],
      "name": "getIdAccount",
      "outputs": [
        {
          "components": [
            {
              "internalType": "uint32",
              "name": "id",
              "type": "uint32"
            },
            {
              "internalType": "string",
              "name": "oldId",
              "type": "string"
            },
            {
              "internalType": "uint256",
              "name": "joiningTime",
              "type": "uint256"
            },
            {
              "internalType": "bool",
              "name": "isAddedToUserList",
              "type": "bool"
            },
            {
              "internalType": "address",
              "name": "owner",
              "type": "address"
            },
            {
              "internalType": "uint32",
              "name": "refererId",
              "type": "uint32"
            },
            {
              "internalType": "bool",
              "name": "hasUpline",
              "type": "bool"
            },
            {
              "internalType": "uint32[]",
              "name": "refereeIds",
              "type": "uint32[]"
            },
            {
              "internalType": "uint32[]",
              "name": "teamIds",
              "type": "uint32[]"
            },
            {
              "internalType": "uint32[]",
              "name": "teamLevel",
              "type": "uint32[]"
            },
            {
              "internalType": "uint256[]",
              "name": "selfBusinessArray",
              "type": "uint256[]"
            },
            {
              "internalType": "uint256",
              "name": "selfBusiness",
              "type": "uint256"
            },
            {
              "internalType": "uint256",
              "name": "selfBusinessOld",
              "type": "uint256"
            },
            {
              "internalType": "uint256",
              "name": "directBusiness",
              "type": "uint256"
            },
            {
              "internalType": "uint256",
              "name": "directBusinessOld",
              "type": "uint256"
            },
            {
              "internalType": "uint256",
              "name": "teamBusiness",
              "type": "uint256"
            },
            {
              "internalType": "uint256",
              "name": "teamBusinessOld",
              "type": "uint256"
            },
            {
              "internalType": "uint256",
              "name": "royaltyClubBusiness",
              "type": "uint256"
            },
            {
              "internalType": "uint256",
              "name": "timeStampRoyaltyClub",
              "type": "uint256"
            },
            {
              "internalType": "uint8",
              "name": "royaltyClubPackageId",
              "type": "uint8"
            },
            {
              "internalType": "uint32",
              "name": "royaltyClubListIndex",
              "type": "uint32"
            },
            {
              "internalType": "uint256",
              "name": "royaltyClubRewardPaid",
              "type": "uint256"
            },
            {
              "internalType": "uint256",
              "name": "topUpIncome",
              "type": "uint256"
            },
            {
              "internalType": "uint256",
              "name": "topUp",
              "type": "uint256"
            },
            {
              "internalType": "uint256",
              "name": "maxLimit",
              "type": "uint256"
            },
            {
              "internalType": "uint256",
              "name": "activationTime",
              "type": "uint256"
            },
            {
              "internalType": "uint256",
              "name": "deactivationTime",
              "type": "uint256"
            },
            {
              "internalType": "uint256",
              "name": "referralPaid",
              "type": "uint256"
            },
            {
              "internalType": "uint32[]",
              "name": "roiIds",
              "type": "uint32[]"
            },
            {
              "internalType": "uint256",
              "name": "roiPaid",
              "type": "uint256"
            },
            {
              "internalType": "uint256",
              "name": "roiClaimedTime",
              "type": "uint256"
            },
            {
              "internalType": "uint256",
              "name": "walletBalance",
              "type": "uint256"
            },
            {
              "internalType": "bool",
              "name": "isActive",
              "type": "bool"
            },
            {
              "internalType": "bool",
              "name": "isROIDisabled",
              "type": "bool"
            },
            {
              "internalType": "bool",
              "name": "isIdVisibilityDisabled",
              "type": "bool"
            },
            {
              "internalType": "bool",
              "name": "canWindraw",
              "type": "bool"
            }
          ],
          "internalType": "struct ReferralV4Upgradeable.StructId",
          "name": "",
          "type": "tuple"
        }
      ],
      "stateMutability": "view",
      "type": "function"
    },
    {
      "inputs": [
        {
          "internalType": "uint32",
          "name": "_id",
          "type": "uint32"
        }
      ],
      "name": "getIdLimits",
      "outputs": [
        {
          "internalType": "uint256",
          "name": "topUpIncome",
          "type": "uint256"
        },
        {
          "internalType": "uint256",
          "name": "topUp",
          "type": "uint256"
        },
        {
          "internalType": "uint256",
          "name": "maxLimit",
          "type": "uint256"
        }
      ],
      "stateMutability": "view",
      "type": "function"
    },
    {
      "inputs": [
        {
          "internalType": "uint32",
          "name": "_id",
          "type": "uint32"
        }
      ],
      "name": "getIdRoyaltyClubLevel",
      "outputs": [
        {
          "internalType": "uint256",
          "name": "",
          "type": "uint256"
        }
      ],
      "stateMutability": "view",
      "type": "function"
    },
    {
      "inputs": [],
      "name": "getMinContributionETH",
      "outputs": [
        {
          "internalType": "uint256",
          "name": "",
          "type": "uint256"
        }
      ],
      "stateMutability": "view",
      "type": "function"
    },
    {
      "inputs": [
        {
          "internalType": "uint8",
          "name": "_packageId",
          "type": "uint8"
        }
      ],
      "name": "getRoyaltyClubPackageInfo",
      "outputs": [
        {
          "components": [
            {
              "internalType": "uint8",
              "name": "packageId",
              "type": "uint8"
            },
            {
              "internalType": "uint256",
              "name": "selfBusiness",
              "type": "uint256"
            },
            {
              "internalType": "uint256",
              "name": "directBusiness",
              "type": "uint256"
            },
            {
              "internalType": "uint256",
              "name": "teamBusiness",
              "type": "uint256"
            },
            {
              "internalType": "string",
              "name": "rankName",
              "type": "string"
            },
            {
              "internalType": "uint256",
              "name": "reward",
              "type": "uint256"
            },
            {
              "internalType": "uint256",
              "name": "businessLimit",
              "type": "uint256"
            },
            {
              "internalType": "uint256",
              "name": "timeLimit",
              "type": "uint256"
            },
            {
              "internalType": "bool",
              "name": "isPayReccursive",
              "type": "bool"
            },
            {
              "internalType": "uint32[]",
              "name": "achieversList",
              "type": "uint32[]"
            }
          ],
          "internalType": "struct ReferralV4Upgradeable.StructPackages",
          "name": "",
          "type": "tuple"
        }
      ],
      "stateMutability": "view",
      "type": "function"
    },
    {
      "inputs": [
        {
          "internalType": "address",
          "name": "_address",
          "type": "address"
        }
      ],
      "name": "getUserAccount",
      "outputs": [
        {
          "components": [
            {
              "internalType": "bool",
              "name": "isActive",
              "type": "bool"
            },
            {
              "internalType": "uint32[]",
              "name": "accountIds",
              "type": "uint32[]"
            },
            {
              "internalType": "string",
              "name": "userName",
              "type": "string"
            }
          ],
          "internalType": "struct ReferralV4Upgradeable.StructAccount",
          "name": "",
          "type": "tuple"
        }
      ],
      "stateMutability": "view",
      "type": "function"
    },
    {
      "inputs": [
        {
          "internalType": "uint32",
          "name": "_id",
          "type": "uint32"
        }
      ],
      "name": "getUserUnlockCount",
      "outputs": [
        {
          "internalType": "uint256",
          "name": "",
          "type": "uint256"
        }
      ],
      "stateMutability": "view",
      "type": "function"
    },
    {
      "inputs": [
        {
          "internalType": "uint32",
          "name": "_id",
          "type": "uint32"
        },
        {
          "internalType": "uint256",
          "name": "_value",
          "type": "uint256"
        }
      ],
      "name": "increaseIdTopIncome",
      "outputs": [],
      "stateMutability": "nonpayable",
      "type": "function"
    },
    {
      "inputs": [],
      "name": "initialize",
      "outputs": [],
      "stateMutability": "nonpayable",
      "type": "function"
    },
    {
      "inputs": [],
      "name": "isActivateROI",
      "outputs": [
        {
          "internalType": "bool",
          "name": "",
          "type": "bool"
        }
      ],
      "stateMutability": "view",
      "type": "function"
    },
    {
      "inputs": [],
      "name": "isPayReferral",
      "outputs": [
        {
          "internalType": "bool",
          "name": "",
          "type": "bool"
        }
      ],
      "stateMutability": "view",
      "type": "function"
    },
    {
      "inputs": [],
      "name": "isPayRoyaltyClubBonus",
      "outputs": [
        {
          "internalType": "bool",
          "name": "",
          "type": "bool"
        }
      ],
      "stateMutability": "view",
      "type": "function"
    },
    {
      "inputs": [
        {
          "internalType": "uint256",
          "name": "",
          "type": "uint256"
        }
      ],
      "name": "levelRates",
      "outputs": [
        {
          "internalType": "uint16",
          "name": "",
          "type": "uint16"
        }
      ],
      "stateMutability": "view",
      "type": "function"
    },
    {
      "inputs": [],
      "name": "maxLevels",
      "outputs": [
        {
          "internalType": "uint8",
          "name": "",
          "type": "uint8"
        }
      ],
      "stateMutability": "view",
      "type": "function"
    },
    {
      "inputs": [],
      "name": "minContributionUSD",
      "outputs": [
        {
          "internalType": "uint256",
          "name": "",
          "type": "uint256"
        }
      ],
      "stateMutability": "view",
      "type": "function"
    },
    {
      "inputs": [],
      "name": "owner",
      "outputs": [
        {
          "internalType": "address",
          "name": "",
          "type": "address"
        }
      ],
      "stateMutability": "view",
      "type": "function"
    },
    {
      "inputs": [],
      "name": "packagesCount",
      "outputs": [
        {
          "internalType": "uint8",
          "name": "",
          "type": "uint8"
        }
      ],
      "stateMutability": "view",
      "type": "function"
    },
    {
      "inputs": [
        {
          "internalType": "uint256",
          "name": "_value",
          "type": "uint256"
        },
        {
          "internalType": "uint32",
          "name": "_id",
          "type": "uint32"
        }
      ],
      "name": "payReferralAdmin",
      "outputs": [],
      "stateMutability": "nonpayable",
      "type": "function"
    },
    {
      "inputs": [],
      "name": "proxiableUUID",
      "outputs": [
        {
          "internalType": "bytes32",
          "name": "",
          "type": "bytes32"
        }
      ],
      "stateMutability": "view",
      "type": "function"
    },
    {
      "inputs": [],
      "name": "renounceOwnership",
      "outputs": [],
      "stateMutability": "nonpayable",
      "type": "function"
    },
    {
      "inputs": [],
      "name": "royaltyClubPackageCount",
      "outputs": [
        {
          "internalType": "uint8",
          "name": "",
          "type": "uint8"
        }
      ],
      "stateMutability": "view",
      "type": "function"
    },
    {
      "inputs": [
        {
          "internalType": "address",
          "name": "_address",
          "type": "address"
        },
        {
          "internalType": "uint256",
          "name": "_value",
          "type": "uint256"
        }
      ],
      "name": "sendETHAdmin",
      "outputs": [],
      "stateMutability": "nonpayable",
      "type": "function"
    },
    {
      "inputs": [
        {
          "internalType": "uint16",
          "name": "_value",
          "type": "uint16"
        }
      ],
      "name": "setLevelDecimals",
      "outputs": [],
      "stateMutability": "nonpayable",
      "type": "function"
    },
    {
      "inputs": [
        {
          "internalType": "uint8[]",
          "name": "_value",
          "type": "uint8[]"
        }
      ],
      "name": "setLevelRates",
      "outputs": [],
      "stateMutability": "nonpayable",
      "type": "function"
    },
    {
      "inputs": [
        {
          "internalType": "uint8",
          "name": "_valueDecimals",
          "type": "uint8"
        }
      ],
      "name": "setMaxLevelsAdmin",
      "outputs": [],
      "stateMutability": "nonpayable",
      "type": "function"
    },
    {
      "inputs": [
        {
          "internalType": "uint256",
          "name": "_valueInUSD",
          "type": "uint256"
        }
      ],
      "name": "setMinContribution",
      "outputs": [],
      "stateMutability": "nonpayable",
      "type": "function"
    },
    {
      "inputs": [
        {
          "internalType": "uint8",
          "name": "packageId",
          "type": "uint8"
        },
        {
          "internalType": "uint256",
          "name": "selfBusiness",
          "type": "uint256"
        },
        {
          "internalType": "uint256",
          "name": "directBusiness",
          "type": "uint256"
        },
        {
          "internalType": "uint256",
          "name": "teamBusiness",
          "type": "uint256"
        },
        {
          "internalType": "string",
          "name": "rankName",
          "type": "string"
        },
        {
          "internalType": "uint256",
          "name": "reward",
          "type": "uint256"
        },
        {
          "internalType": "uint256",
          "name": "businessLimit",
          "type": "uint256"
        },
        {
          "internalType": "uint256",
          "name": "timeLimit",
          "type": "uint256"
        },
        {
          "internalType": "bool",
          "name": "isPayReccursive",
          "type": "bool"
        }
      ],
      "name": "setRoyaltyClubPackage",
      "outputs": [],
      "stateMutability": "nonpayable",
      "type": "function"
    },
    {
      "inputs": [
        {
          "internalType": "uint8",
          "name": "_valueDecimals",
          "type": "uint8"
        }
      ],
      "name": "setRoyaltyPackageCount",
      "outputs": [],
      "stateMutability": "nonpayable",
      "type": "function"
    },
    {
      "inputs": [
        {
          "internalType": "uint32",
          "name": "_id",
          "type": "uint32"
        }
      ],
      "name": "topUpId",
      "outputs": [],
      "stateMutability": "payable",
      "type": "function"
    },
    {
      "inputs": [],
      "name": "totalIds",
      "outputs": [
        {
          "internalType": "uint32",
          "name": "",
          "type": "uint32"
        }
      ],
      "stateMutability": "view",
      "type": "function"
    },
    {
      "inputs": [],
      "name": "totalReferralPaid",
      "outputs": [
        {
          "internalType": "uint256",
          "name": "",
          "type": "uint256"
        }
      ],
      "stateMutability": "view",
      "type": "function"
    },
    {
      "inputs": [],
      "name": "totalRoyaltyClubBonusPaid",
      "outputs": [
        {
          "internalType": "uint256",
          "name": "",
          "type": "uint256"
        }
      ],
      "stateMutability": "view",
      "type": "function"
    },
    {
      "inputs": [
        {
          "internalType": "address",
          "name": "newOwner",
          "type": "address"
        }
      ],
      "name": "transferOwnership",
      "outputs": [],
      "stateMutability": "nonpayable",
      "type": "function"
    },
    {
      "inputs": [
        {
          "internalType": "uint32",
          "name": "_id",
          "type": "uint32"
        },
        {
          "internalType": "uint256",
          "name": "_value",
          "type": "uint256"
        }
      ],
      "name": "updateIdWhenClaimROI",
      "outputs": [],
      "stateMutability": "nonpayable",
      "type": "function"
    },
    {
      "inputs": [],
      "name": "updateJoiningTime",
      "outputs": [],
      "stateMutability": "nonpayable",
      "type": "function"
    },
    {
      "inputs": [
        {
          "internalType": "uint32",
          "name": "_value",
          "type": "uint32"
        }
      ],
      "name": "updateTotalIds",
      "outputs": [],
      "stateMutability": "nonpayable",
      "type": "function"
    },
    {
      "inputs": [
        {
          "internalType": "address",
          "name": "newImplementation",
          "type": "address"
        }
      ],
      "name": "upgradeTo",
      "outputs": [],
      "stateMutability": "nonpayable",
      "type": "function"
    },
    {
      "inputs": [
        {
          "internalType": "address",
          "name": "newImplementation",
          "type": "address"
        },
        {
          "internalType": "bytes",
          "name": "data",
          "type": "bytes"
        }
      ],
      "name": "upgradeToAndCall",
      "outputs": [],
      "stateMutability": "payable",
      "type": "function"
    },
    {
      "inputs": [
        {
          "internalType": "uint256",
          "name": "",
          "type": "uint256"
        }
      ],
      "name": "users",
      "outputs": [
        {
          "internalType": "address",
          "name": "",
          "type": "address"
        }
      ],
      "stateMutability": "view",
      "type": "function"
    },
    {
      "inputs": [],
      "name": "withdrawETHAdmin",
      "outputs": [],
      "stateMutability": "nonpayable",
      "type": "function"
    },
    {
      "inputs": [
        {
          "internalType": "address",
          "name": "_tokenAddress",
          "type": "address"
        },
        {
          "internalType": "uint256",
          "name": "_value",
          "type": "uint256"
        }
      ],
      "name": "withdrawTokensAdmin",
      "outputs": [],
      "stateMutability": "nonpayable",
      "type": "function"
    },
    {
      "stateMutability": "payable",
      "type": "receive"
    }
  ],
  "bytecode": "0x60a06040523060805234801561001457600080fd5b50608051615c466200004d6000396000818161102e015281816110770152818161179e015281816117de01526119650152615c466000f3fe6080604052600436106102b25760003560e01c80636f38e41011610175578063987dd4a7116100dc578063bcb93f9b11610095578063f2fde38b1161006f578063f2fde38b14610873578063f41bfeef14610893578063fafc9597146108a9578063fb47e016146108cb57600080fd5b8063bcb93f9b14610820578063cd21364d14610833578063e1c715ba1461085357600080fd5b8063987dd4a71461076a578063a0b6105f1461078a578063a152b0f0146107aa578063a28a3686146107bd578063a43ae408146107e0578063b47181d31461080057600080fd5b80637c5994861161012e5780637c599486146106db5780638129fc1c146106f1578063852ff2fd146107065780638af925dc1461071c5780638da5cb5b146107365780638f84de851461075457600080fd5b80636f38e410146106155780637084431f14610635578063715018a61461066457806371b0c873146106795780637879b5ef1461068e5780637bdbf996146106ae57600080fd5b8063390a5ba5116102195780634e6e93a3116101d25780634e6e93a3146105525780634f1ef2861461058d578063509d6c52146105a057806352d1902d146105c05780635979369a146105d55780636ccc10ae146105f557600080fd5b8063390a5ba5146104805780633eff2def146104b2578063473b0d46146104d2578063498b3e55146104f25780634a750822146105125780634b5102b81461053257600080fd5b806322f88b521161026b57806322f88b52146103d15780632ed421d2146103e7578063313ce567146103fd578063357597881461042b5780633659cfe614610440578063365b98b21461046057600080fd5b8063012da720146102be5780630b243dad146102f45780631319cff91461031657806318e10bff1461034e5780631f9e65e41461038157806321009789146103a457600080fd5b366102b957005b600080fd5b3480156102ca57600080fd5b506102de6102d9366004614fd5565b6108f8565b6040516102eb9190614ff0565b60405180910390f35b34801561030057600080fd5b5061031461030f36600461504f565b61098d565b005b34801561032257600080fd5b5061033661033136600461507b565b6109d0565b6040516001600160a01b0390911681526020016102eb565b34801561035a57600080fd5b5060d55461036f906301000000900460ff1681565b60405160ff90911681526020016102eb565b34801561038d57600080fd5b506103966109fa565b6040519081526020016102eb565b3480156103b057600080fd5b506103c46103bf3660046150a6565b610a0c565b6040516102eb9190615184565b3480156103dd57600080fd5b5061039660d05481565b3480156103f357600080fd5b5061039660d15481565b34801561040957600080fd5b5060cb546104189061ffff1681565b60405161ffff90911681526020016102eb565b34801561043757600080fd5b50610314610fed565b34801561044c57600080fd5b5061031461045b36600461541c565b611024565b34801561046c57600080fd5b5061033661047b36600461507b565b611109565b34801561048c57600080fd5b5060cf5461049d9063ffffffff1681565b60405163ffffffff90911681526020016102eb565b3480156104be57600080fd5b506103146104cd366004614fd5565b611119565b3480156104de57600080fd5b506103146104ed36600461507b565b61113f565b3480156104fe57600080fd5b5061031461050d366004615439565b61114c565b34801561051e57600080fd5b5061031461052d36600461550e565b6111f2565b34801561053e57600080fd5b5061031461054d366004614fd5565b6112a2565b34801561055e57600080fd5b5061057261056d3660046150a6565b6112ca565b604080519384526020840192909252908201526060016102eb565b61031461059b3660046155bb565b611794565b3480156105ac57600080fd5b506103146105bb36600461561f565b611860565b3480156105cc57600080fd5b50610396611958565b3480156105e157600080fd5b506103146105f03660046150a6565b611a0b565b34801561060157600080fd5b5061031461061036600461561f565b611aaf565b34801561062157600080fd5b5060cb5461036f9062010000900460ff1681565b34801561064157600080fd5b5060d55461065490610100900460ff1681565b60405190151581526020016102eb565b34801561067057600080fd5b50610314611b56565b34801561068557600080fd5b50610314611b6a565b34801561069a57600080fd5b506104186106a936600461507b565b611bf2565b3480156106ba57600080fd5b506106ce6106c9366004614fd5565b611c2a565b6040516102eb919061563d565b3480156106e757600080fd5b5061039660ce5481565b3480156106fd57600080fd5b50610314611e29565b34801561071257600080fd5b5061039660cd5481565b34801561072857600080fd5b5060d5546106549060ff1681565b34801561074257600080fd5b506033546001600160a01b0316610336565b34801561076057600080fd5b5061039660cc5481565b34801561077657600080fd5b506103966107853660046150a6565b6120c1565b34801561079657600080fd5b506103146107a536600461504f565b612580565b6103146107b83660046150a6565b6125f9565b3480156107c957600080fd5b5060cf5461036f9065010000000000900460ff1681565b3480156107ec57600080fd5b506103146107fb3660046156eb565b612816565b34801561080c57600080fd5b5061039661081b3660046150a6565b612836565b61031461082e3660046150a6565b612cf2565b34801561083f57600080fd5b5060d55461036f9062010000900460ff1681565b34801561085f57600080fd5b5061031461086e36600461570f565b612fb0565b34801561087f57600080fd5b5061031461088e36600461541c565b612fc4565b34801561089f57600080fd5b5061039660d25481565b3480156108b557600080fd5b5060cf5461065490640100000000900460ff1681565b3480156108d757600080fd5b506108eb6108e636600461541c565b61303a565b6040516102eb9190615784565b60ff8116600090815260d8602090815260409182902060090180548351818402810184019094528084526060939283018282801561098157602002820191906000526020600020906000905b82829054906101000a900463ffffffff1663ffffffff16815260200190600401906020826003010492830192600103820291508084116109445790505b50505050509050919050565b6109956131a0565b6040516001600160a01b0383169082156108fc029083906000818181858888f193505050501580156109cb573d6000803e3d6000fd5b505050565b60d381815481106109e057600080fd5b6000918252602090912001546001600160a01b0316905081565b6000610a0760cc546131fa565b905090565b610b42604051806104800160405280600063ffffffff168152602001606081526020016000815260200160001515815260200160006001600160a01b03168152602001600063ffffffff168152602001600015158152602001606081526020016060815260200160608152602001606081526020016000815260200160008152602001600081526020016000815260200160008152602001600081526020016000815260200160008152602001600060ff168152602001600063ffffffff16815260200160008152602001600081526020016000815260200160008152602001600081526020016000815260200160008152602001606081526020016000815260200160008152602001600081526020016000151581526020016000151581526020016000151581526020016000151581525090565b63ffffffff808316600090815260d76020908152604091829020825161048081019093528054909316825260018301805492939291840191610b83906157c9565b80601f0160208091040260200160405190810160405280929190818152602001828054610baf906157c9565b8015610bfc5780601f10610bd157610100808354040283529160200191610bfc565b820191906000526020600020905b815481529060010190602001808311610bdf57829003601f168201915b50505091835250506002820154602080830191909152600383015460ff80821615156040808601919091526001600160a01b03610100840416606086015263ffffffff600160a81b8404166080860152600160c81b90920416151560a084015260048401805482518185028101850190935280835260c0909401939192909190830182828015610cd757602002820191906000526020600020906000905b82829054906101000a900463ffffffff1663ffffffff1681526020019060040190602082600301049283019260010382029150808411610c9a5790505b5050505050815260200160058201805480602002602001604051908101604052809291908181526020018280548015610d5b57602002820191906000526020600020906000905b82829054906101000a900463ffffffff1663ffffffff1681526020019060040190602082600301049283019260010382029150808411610d1e5790505b5050505050815260200160068201805480602002602001604051908101604052809291908181526020018280548015610ddf57602002820191906000526020600020906000905b82829054906101000a900463ffffffff1663ffffffff1681526020019060040190602082600301049283019260010382029150808411610da25790505b5050505050815260200160078201805480602002602001604051908101604052809291908181526020018280548015610e3757602002820191906000526020600020905b815481526020019060010190808311610e23575b505050918352505060088201546020808301919091526009830154604080840191909152600a8401546060840152600b8401546080840152600c84015460a0840152600d84015460c0840152600e84015460e0840152600f84015461010080850191909152601085015460ff81166101208601520463ffffffff166101408401526011840154610160840152601284015461018084015260138401546101a084015260148401546101c084015260158401546101e084015260168401546102008401526017840154610220840152601884018054825181850281018501909352808352610240909401939192909190830182828015610f8157602002820191906000526020600020906000905b82829054906101000a900463ffffffff1663ffffffff1681526020019060040190602082600301049283019260010382029150808411610f445790505b505050918352505060198201546020820152601a8201546040820152601b8201546060820152601c9091015460ff8082161515608084015261010082048116151560a08401526201000082048116151560c0840152630100000090910416151560e09091015292915050565b610ff56131a0565b60405133904780156108fc02916000818181858888f19350505050158015611021573d6000803e3d6000fd5b50565b6001600160a01b037f00000000000000000000000000000000000000000000000000000000000000001630036110755760405162461bcd60e51b815260040161106c90615803565b60405180910390fd5b7f00000000000000000000000000000000000000000000000000000000000000006001600160a01b03166110be600080516020615bca833981519152546001600160a01b031690565b6001600160a01b0316146110e45760405162461bcd60e51b815260040161106c9061584f565b6110ed816132f1565b60408051600080825260208201909252611021918391906132f9565b60d481815481106109e057600080fd5b6111216131a0565b60cb805460ff909216620100000262ff000019909216919091179055565b6111476131a0565b60cc55565b60c954604051630935e01b60e21b81523360048201526001600160a01b03909116906324d7806c90602401602060405180830381865afa158015611194573d6000803e3d6000fd5b505050506040513d601f19601f820116820180604052508101906111b8919061589b565b6111d45760405162461bcd60e51b815260040161106c906158b8565b60d554610100900460ff16156111ee576111ee8282613464565b5050565b6111fa6131a0565b60ff8916600081815260d860205260409020805460ff191690911781556001810189905560028101889055600381018790556004810161123a8782615932565b5060058101859055600681018490556007810183905560088101805460ff191683151517905560405160ff8b1681527f9a2f17868083013e19d4c26d2af13543606bc680c21c994d7648d3a0510164c99060200160405180910390a150505050505050505050565b6112aa6131a0565b60d5805460ff90921663010000000263ff00000019909216919091179055565b63ffffffff808216600090815260d760209081526040808320815161048081019092528054909416815260018401805493948594859485949390840191611310906157c9565b80601f016020809104026020016040519081016040528092919081815260200182805461133c906157c9565b80156113895780601f1061135e57610100808354040283529160200191611389565b820191906000526020600020905b81548152906001019060200180831161136c57829003601f168201915b50505091835250506002820154602080830191909152600383015460ff80821615156040808601919091526001600160a01b03610100840416606086015263ffffffff600160a81b8404166080860152600160c81b90920416151560a084015260048401805482518185028101850190935280835260c090940193919290919083018282801561146457602002820191906000526020600020906000905b82829054906101000a900463ffffffff1663ffffffff16815260200190600401906020826003010492830192600103820291508084116114275790505b50505050508152602001600582018054806020026020016040519081016040528092919081815260200182805480156114e857602002820191906000526020600020906000905b82829054906101000a900463ffffffff1663ffffffff16815260200190600401906020826003010492830192600103820291508084116114ab5790505b505050505081526020016006820180548060200260200160405190810160405280929190818152602001828054801561156c57602002820191906000526020600020906000905b82829054906101000a900463ffffffff1663ffffffff168152602001906004019060208260030104928301926001038202915080841161152f5790505b50505050508152602001600782018054806020026020016040519081016040528092919081815260200182805480156115c457602002820191906000526020600020905b8154815260200190600101908083116115b0575b505050918352505060088201546020808301919091526009830154604080840191909152600a8401546060840152600b8401546080840152600c84015460a0840152600d84015460c0840152600e84015460e0840152600f84015461010080850191909152601085015460ff81166101208601520463ffffffff166101408401526011840154610160840152601284015461018084015260138401546101a084015260148401546101c084015260158401546101e08401526016840154610200840152601784015461022084015260188401805482518185028101850190935280835261024090940193919290919083018282801561170e57602002820191906000526020600020906000905b82829054906101000a900463ffffffff1663ffffffff16815260200190600401906020826003010492830192600103820291508084116116d15790505b505050918352505060198201546020820152601a8201546040820152601b8201546060820152601c9091015460ff8082161515608084015261010082048116151560a08401526201000082048116151560c0840152630100000090910416151560e0909101526102c08101516102e0820151610300909201519097919650945092505050565b6001600160a01b037f00000000000000000000000000000000000000000000000000000000000000001630036117dc5760405162461bcd60e51b815260040161106c90615803565b7f00000000000000000000000000000000000000000000000000000000000000006001600160a01b0316611825600080516020615bca833981519152546001600160a01b031690565b6001600160a01b03161461184b5760405162461bcd60e51b815260040161106c9061584f565b611854826132f1565b6111ee828260016132f9565b60c954604051630935e01b60e21b81523360048201526001600160a01b03909116906324d7806c90602401602060405180830381865afa1580156118a8573d6000803e3d6000fd5b505050506040513d601f19601f820116820180604052508101906118cc919061589b565b6118e85760405162461bcd60e51b815260040161106c906158b8565b63ffffffff8216600090815260d76020526040812042601a82015560198101805491928492611918908490615a08565b92505081905550818160120160008282546119339190615a08565b925050819055508181601b01600082825461194e9190615a08565b9091555050505050565b6000306001600160a01b037f000000000000000000000000000000000000000000000000000000000000000016146119f85760405162461bcd60e51b815260206004820152603860248201527f555550535570677261646561626c653a206d757374206e6f742062652063616c60448201527f6c6564207468726f7567682064656c656761746563616c6c0000000000000000606482015260840161106c565b50600080516020615bca83398151915290565b60c954604051630935e01b60e21b81523360048201526001600160a01b03909116906324d7806c90602401602060405180830381865afa158015611a53573d6000803e3d6000fd5b505050506040513d601f19601f82011682018060405250810190611a77919061589b565b611a935760405162461bcd60e51b815260040161106c906158b8565b60cf805463ffffffff191663ffffffff92909216919091179055565b60c954604051630935e01b60e21b81523360048201526001600160a01b03909116906324d7806c90602401602060405180830381865afa158015611af7573d6000803e3d6000fd5b505050506040513d601f19601f82011682018060405250810190611b1b919061589b565b611b375760405162461bcd60e51b815260040161106c906158b8565b63ffffffff8216600090815260d7602052604090206109cb8183613b9b565b611b5e6131a0565b611b686000613c25565b565b60c954604051630935e01b60e21b81523360048201526001600160a01b03909116906324d7806c90602401602060405180830381865afa158015611bb2573d6000803e3d6000fd5b505050506040513d601f19601f82011682018060405250810190611bd6919061589b565b611b685760405162461bcd60e51b815260040161106c906158b8565b60ca8181548110611c0257600080fd5b9060005260206000209060109182820401919006600202915054906101000a900461ffff1681565b611c85604051806101400160405280600060ff16815260200160008152602001600081526020016000815260200160608152602001600081526020016000815260200160008152602001600015158152602001606081525090565b60ff808316600090815260d860209081526040918290208251610140810184528154909416845260018101549184019190915260028101549183019190915260038101546060830152600481018054608084019190611ce3906157c9565b80601f0160208091040260200160405190810160405280929190818152602001828054611d0f906157c9565b8015611d5c5780601f10611d3157610100808354040283529160200191611d5c565b820191906000526020600020905b815481529060010190602001808311611d3f57829003601f168201915b505050505081526020016005820154815260200160068201548152602001600782015481526020016008820160009054906101000a900460ff1615151515815260200160098201805480602002602001604051908101604052809291908181526020018280548015611e1957602002820191906000526020600020906000905b82829054906101000a900463ffffffff1663ffffffff1681526020019060040190602082600301049283019260010382029150808411611ddc5790505b5050505050815250509050919050565b600054610100900460ff1615808015611e495750600054600160ff909116105b80611e635750303b158015611e63575060005460ff166001145b611ec65760405162461bcd60e51b815260206004820152602e60248201527f496e697469616c697a61626c653a20636f6e747261637420697320616c72656160448201526d191e481a5b9a5d1a585b1a5e995960921b606482015260840161106c565b6000805460ff191660011790558015611ee9576000805461ff0019166101001790555b60c980546001600160a01b031916730b8bf5feb9fca57d9c5d27185ddf3017e99a2d3617905560cb805461ffff19166103e8179055604080516103a08101825260648152604660208201526032918101829052606081018290526080810182905260a0810182905260c0810182905260e08101829052610100810182905261012081018290526101408101829052610160810182905261018081018290526101a081018290526101c081018290526101e08101829052610200810182905261022081018290526102408101919091526014610260820181905261028082018190526102a082018190526102c082018190526102e0820181905261030082018190526103208201819052610340820181905261036082018190526103808201526120169060ca90601d614dfa565b5060cb805462ff000019166232000017905568056bc75e2d6310000060cc5560cf8054660200000000000066ff00ff000000001990911617905560d5805462278d0060d25562ffffff191662140101179055612070613c77565b612078613ca6565b8015611021576000805461ff0019169055604051600181527f7f26b83ff96e1f2b6a682f133852f6798a09c465da95921460cefb3847402498906020015b60405180910390a150565b63ffffffff808216600090815260d760209081526040808320815161048081019092528054909416815260018401805493948594929390929084019190612107906157c9565b80601f0160208091040260200160405190810160405280929190818152602001828054612133906157c9565b80156121805780601f1061215557610100808354040283529160200191612180565b820191906000526020600020905b81548152906001019060200180831161216357829003601f168201915b50505091835250506002820154602080830191909152600383015460ff80821615156040808601919091526001600160a01b03610100840416606086015263ffffffff600160a81b8404166080860152600160c81b90920416151560a084015260048401805482518185028101850190935280835260c090940193919290919083018282801561225b57602002820191906000526020600020906000905b82829054906101000a900463ffffffff1663ffffffff168152602001906004019060208260030104928301926001038202915080841161221e5790505b50505050508152602001600582018054806020026020016040519081016040528092919081815260200182805480156122df57602002820191906000526020600020906000905b82829054906101000a900463ffffffff1663ffffffff16815260200190600401906020826003010492830192600103820291508084116122a25790505b505050505081526020016006820180548060200260200160405190810160405280929190818152602001828054801561236357602002820191906000526020600020906000905b82829054906101000a900463ffffffff1663ffffffff16815260200190600401906020826003010492830192600103820291508084116123265790505b50505050508152602001600782018054806020026020016040519081016040528092919081815260200182805480156123bb57602002820191906000526020600020905b8154815260200190600101908083116123a7575b505050918352505060088201546020808301919091526009830154604080840191909152600a8401546060840152600b8401546080840152600c84015460a0840152600d84015460c0840152600e84015460e0840152600f84015461010080850191909152601085015460ff81166101208601520463ffffffff166101408401526011840154610160840152601284015461018084015260138401546101a084015260148401546101c084015260158401546101e08401526016840154610200840152601784015461022084015260188401805482518185028101850190935280835261024090940193919290919083018282801561250557602002820191906000526020600020906000905b82829054906101000a900463ffffffff1663ffffffff16815260200190600401906020826003010492830192600103820291508084116124c85790505b505050918352505060198201546020820152601a8201546040820152601b8201546060820152601c9091015460ff8082161515608084015261010082048116151560a08401526201000082048116151560c0840152630100000090910416151560e090910152905061257681613ccd565b60ff169392505050565b6125886131a0565b60405163a9059cbb60e01b8152336004820152602481018290526001600160a01b0383169063a9059cbb906044016020604051808303816000875af11580156125d5573d6000803e3d6000fd5b505050506040513d601f19601f820116820180604052508101906109cb919061589b565b34600061260582613d82565b905060cc548110156126595760405162461bcd60e51b815260206004820152601f60248201527f56616c7565206c657373207468656e206d696e436f6e747269627574696f6e00604482015260640161106c565b63ffffffff8316600090815260d760205260408120339142919061267e856003615a1b565b826012015483601401546126929190615a32565b61269c9190615a08565b90506126c1828589600089868960cb60029054906101000a900460ff1660ff16613e70565b60d55460ff161561280d5760c954604080516344846f9d60e11b815290516000926001600160a01b031691638908df3a9160048083019260209291908290030181865afa158015612716573d6000803e3d6000fd5b505050506040513d601f19601f8201168201806040525081019061273a9190615a45565b6001600160a01b03166398c7438e89612754600386615a62565b6040516001600160e01b031960e085901b16815263ffffffff9290921660048301526024820152604481018790526064016020604051808303816000875af11580156127a4573d6000803e3d6000fd5b505050506040513d601f19601f820116820180604052508101906127c89190615a84565b601884018054600181018255600091825260209091206008820401805460079092166004026101000a63ffffffff818102199093169390921691909102919091179055505b50505050505050565b61281e6131a0565b60cb805461ffff191661ffff92909216919091179055565b63ffffffff808216600090815260d76020908152604080832081516104808101909252805490941681526001840180549394859492939092908401919061287c906157c9565b80601f01602080910402602001604051908101604052809291908181526020018280546128a8906157c9565b80156128f55780601f106128ca576101008083540402835291602001916128f5565b820191906000526020600020905b8154815290600101906020018083116128d857829003601f168201915b50505091835250506002820154602080830191909152600383015460ff80821615156040808601919091526001600160a01b03610100840416606086015263ffffffff600160a81b8404166080860152600160c81b90920416151560a084015260048401805482518185028101850190935280835260c09094019391929091908301828280156129d057602002820191906000526020600020906000905b82829054906101000a900463ffffffff1663ffffffff16815260200190600401906020826003010492830192600103820291508084116129935790505b5050505050815260200160058201805480602002602001604051908101604052809291908181526020018280548015612a5457602002820191906000526020600020906000905b82829054906101000a900463ffffffff1663ffffffff1681526020019060040190602082600301049283019260010382029150808411612a175790505b5050505050815260200160068201805480602002602001604051908101604052809291908181526020018280548015612ad857602002820191906000526020600020906000905b82829054906101000a900463ffffffff1663ffffffff1681526020019060040190602082600301049283019260010382029150808411612a9b5790505b5050505050815260200160078201805480602002602001604051908101604052809291908181526020018280548015612b3057602002820191906000526020600020905b815481526020019060010190808311612b1c575b505050918352505060088201546020808301919091526009830154604080840191909152600a8401546060840152600b8401546080840152600c84015460a0840152600d84015460c0840152600e84015460e0840152600f84015461010080850191909152601085015460ff81166101208601520463ffffffff166101408401526011840154610160840152601284015461018084015260138401546101a084015260148401546101c084015260158401546101e084015260168401546102008401526017840154610220840152601884018054825181850281018501909352808352610240909401939192909190830182828015612c7a57602002820191906000526020600020906000905b82829054906101000a900463ffffffff1663ffffffff1681526020019060040190602082600301049283019260010382029150808411612c3d5790505b505050918352505060198201546020820152601a8201546040820152601b8201546060820152601c9091015460ff8082161515608084015261010082048116151560a08401526201000082048116151560c0840152630100000090910416151560e0909101529050612ceb81614193565b9392505050565b346000612cfe82613d82565b905060cc54811015612d525760405162461bcd60e51b815260206004820152601f60248201527f56616c7565206c657373207468656e206d696e436f6e747269627574696f6e00604482015260640161106c565b60cf5433904290600090612d6d9063ffffffff166001615aa1565b6001600160a01b038416600090815260d66020908152604080832063ffffffff8516845260d790925282209293509190612da8876003615a1b565b82601201548360140154612dbc9190615a32565b612dc69190615a08565b9050612dea8287868c8b868b60cb60029054906101000a900460ff1660ff16613e70565b60d55460ff1615612f365760c954604080516344846f9d60e11b815290516000926001600160a01b031691638908df3a9160048083019260209291908290030181865afa158015612e3f573d6000803e3d6000fd5b505050506040513d601f19601f82011682018060405250810190612e639190615a45565b6001600160a01b03166398c7438e86612e7d600386615a62565b6040516001600160e01b031960e085901b16815263ffffffff9290921660048301526024820152604481018990526064016020604051808303816000875af1158015612ecd573d6000803e3d6000fd5b505050506040513d601f19601f82011682018060405250810190612ef19190615a84565b601884018054600181018255600091825260209091206008820401805460079092166004026101000a63ffffffff818102199093169390921691909102919091179055505b6001838101805491820181556000908152602081206008830401805460079093166004026101000a63ffffffff818102199094168885169190910217905560cf80549092169190612f8683615ac5565b91906101000a81548163ffffffff021916908363ffffffff16021790555050505050505050505050565b612fb86131a0565b6109cb60ca8383614ea2565b612fcc6131a0565b6001600160a01b0381166130315760405162461bcd60e51b815260206004820152602660248201527f4f776e61626c653a206e6577206f776e657220697320746865207a65726f206160448201526564647265737360d01b606482015260840161106c565b61102181613c25565b613060604051806060016040528060001515815260200160608152602001606081525090565b6001600160a01b038216600090815260d660209081526040918290208251606081018452815460ff16151581526001820180548551818602810186019096528086529194929385810193929083018282801561310757602002820191906000526020600020906000905b82829054906101000a900463ffffffff1663ffffffff16815260200190600401906020826003010492830192600103820291508084116130ca5790505b50505050508152602001600282018054613120906157c9565b80601f016020809104026020016040519081016040528092919081815260200182805461314c906157c9565b8015611e195780601f1061316e57610100808354040283529160200191611e19565b820191906000526020600020905b81548152906001019060200180831161317c57505050919092525091949350505050565b6033546001600160a01b03163314611b685760405162461bcd60e51b815260206004820181905260248201527f4f776e61626c653a2063616c6c6572206973206e6f7420746865206f776e6572604482015260640161106c565b60008060c960009054906101000a90046001600160a01b03166001600160a01b0316632913497b6040518163ffffffff1660e01b8152600401602060405180830381865afa158015613250573d6000803e3d6000fd5b505050506040513d601f19601f820116820180604052508101906132749190615a45565b6001600160a01b031663e1aa60366040518163ffffffff1660e01b8152600401602060405180830381865afa1580156132b1573d6000803e3d6000fd5b505050506040513d601f19601f820116820180604052508101906132d59190615ae8565b6132e784670de0b6b3a7640000615a1b565b612ceb9190615a62565b6110216131a0565b7f4910fdfa16fed3260ed0e7147f7cc6da11a60208b5b9406d12a635614ffd91435460ff161561332c576109cb836141d2565b826001600160a01b03166352d1902d6040518163ffffffff1660e01b8152600401602060405180830381865afa925050508015613386575060408051601f3d908101601f1916820190925261338391810190615ae8565b60015b6133e95760405162461bcd60e51b815260206004820152602e60248201527f45524331393637557067726164653a206e657720696d706c656d656e7461746960448201526d6f6e206973206e6f74205555505360901b606482015260840161106c565b600080516020615bca83398151915281146134585760405162461bcd60e51b815260206004820152602960248201527f45524331393637557067726164653a20756e737570706f727465642070726f786044820152681a58589b195555525160ba1b606482015260840161106c565b506109cb83838361426e565b600060ca8054806020026020016040519081016040528092919081815260200182805480156134da57602002820191906000526020600020906000905b82829054906101000a900461ffff1661ffff16815260200190600201906020826001010492830192600103820291508084116134a15790505b5050835163ffffffff8716600090815260d7602052604081209596509094935091508190505b8360ff168160ff161015613b7b57600383015463ffffffff600160a81b9091048116600081815260d760205260408120805492939092169003613544575050613b7b565b61354d81614299565b156135c55760405172149959995c995c881a5cc8111a5cd8589b1959606a1b81526013015b604051908190039020613586846001615b01565b60ff168363ffffffff167f915ed47901013ad29e90ede828f72888f54bd58cea141b0c6967498165382eb560405160405180910390a49350613b699050565b604080516104808101909152815463ffffffff168152600182018054613a60929184916020840191906135f7906157c9565b80601f0160208091040260200160405190810160405280929190818152602001828054613623906157c9565b80156136705780601f1061364557610100808354040283529160200191613670565b820191906000526020600020905b81548152906001019060200180831161365357829003601f168201915b50505091835250506002820154602080830191909152600383015460ff80821615156040808601919091526001600160a01b03610100840416606086015263ffffffff600160a81b8404166080860152600160c81b90920416151560a084015260048401805482518185028101850190935280835260c090940193919290919083018282801561374b57602002820191906000526020600020906000905b82829054906101000a900463ffffffff1663ffffffff168152602001906004019060208260030104928301926001038202915080841161370e5790505b50505050508152602001600582018054806020026020016040519081016040528092919081815260200182805480156137cf57602002820191906000526020600020906000905b82829054906101000a900463ffffffff1663ffffffff16815260200190600401906020826003010492830192600103820291508084116137925790505b505050505081526020016006820180548060200260200160405190810160405280929190818152602001828054801561385357602002820191906000526020600020906000905b82829054906101000a900463ffffffff1663ffffffff16815260200190600401906020826003010492830192600103820291508084116138165790505b50505050508152602001600782018054806020026020016040519081016040528092919081815260200182805480156138ab57602002820191906000526020600020905b815481526020019060010190808311613897575b505050918352505060088201546020808301919091526009830154604080840191909152600a8401546060840152600b8401546080840152600c84015460a0840152600d84015460c0840152600e84015460e0840152600f84015461010080850191909152601085015460ff81166101208601520463ffffffff166101408401526011840154610160840152601284015461018084015260138401546101a084015260148401546101c084015260158401546101e0840152601684015461020084015260178401546102208401526018840180548251818502810185019093528083526102409094019391929091908301828280156139f557602002820191906000526020600020906000905b82829054906101000a900463ffffffff1663ffffffff16815260200190600401906020826003010492830192600103820291508084116139b85790505b505050918352505060198201546020820152601a8201546040820152601b8201546060820152601c9091015460ff8082161515608084015261010082048116151560a08401526201000082048116151560c0840152630100000090910416151560e090910152614193565b613a6b846001615b01565b60ff161115613aa2576040517f446f776e6c696e65206c6576656c73206c696d697420726561636865640000008152601d01613572565b60cb54875160009161ffff1690899060ff8716908110613ac457613ac4615b1a565b602002602001015161ffff168b613adb9190615a1b565b613ae59190615a62565b905080826017016000828254613afb9190615a08565b90915550613b0b90508282613b9b565b613b158186615a08565b94508063ffffffff808516908b167ff8fb9b5ab69a0208214661678427c6b48abf457f53605d1f559d17452f1eea11613b4f886001615b01565b60405160ff909116815260200160405180910390a4509350505b80613b7381615b30565b915050613500565b508060ce6000828254613b8e9190615a08565b9091555050505050505050565b8160140154818360120154613bb09190615a08565b11613bef5780826012016000828254613bc99190615a08565b925050819055508082601b016000828254613be49190615a08565b909155506111ee9050565b81601201548260140154613c039190615a32565b82601b016000828254613c169190615a08565b909155506111ee90508261441a565b603380546001600160a01b038381166001600160a01b0319831681179093556040519116919082907f8be0079c531659141344cd1fd0a4f28419497f9722a3daafe3b4186f6b6457e090600090a35050565b600054610100900460ff16613c9e5760405162461bcd60e51b815260040161106c90615b4f565b611b686144c2565b600054610100900460ff16611b685760405162461bcd60e51b815260040161106c90615b4f565b60d5546000906301000000900460ff16815b8160ff168160ff161015613d7b5760ff8116600090815260d8602052604090206001015461016085015110801590613d31575060ff8116600090815260d860205260409020600201546101a085015110155b8015613d57575060ff8116600090815260d860205260409020600301546101e085015110155b15613d6457809250613d69565b613d7b565b80613d7381615b30565b915050613cdf565b5050919050565b600080670de0b6b3a764000060c960009054906101000a90046001600160a01b03166001600160a01b0316632913497b6040518163ffffffff1660e01b8152600401602060405180830381865afa158015613de1573d6000803e3d6000fd5b505050506040513d601f19601f82011682018060405250810190613e059190615a45565b6001600160a01b031663e1aa60366040518163ffffffff1660e01b8152600401602060405180830381865afa158015613e42573d6000803e3d6000fd5b505050506040513d601f19601f82011682018060405250810190613e669190615ae8565b6132e79085615a1b565b875463ffffffff16600003613e9357875463ffffffff191663ffffffff87161788555b601c88015460ff16613eaf57601c8801805460ff191660011790555b600388015460ff16613f075760d480546001810182556000919091527f9780e26d96b1f2a9a18ef8fc72d589dbf03ef788137b64f43897e83a91e7feec0180546001600160a01b0319166001600160a01b0389161790555b600388015461010090046001600160a01b0316613f4157600388018054610100600160a81b0319166101006001600160a01b038a16021790555b8760020154600003613f5557600288018290555b6003880154600160c81b900460ff16613f995760038801805460ff60c81b1963ffffffff8816600160a81b021664ffffffffff60a81b1990911617600160c81b1790555b60006012890155613fab600384615a62565b60138901556014880183905560078801805460018101825560009182526020822001859055600889018054869290613fe4908490615a08565b909155505060158801829055604080516000815260208101918290525161400f9160188b0191614f0d565b5060005b818160ff16101561418857600389015463ffffffff600160a81b9091048116600081815260d760205260408120805492939092169003614054575050614188565b8260ff166000036140b6578681600a0160008282546140739190615a08565b909155505060048181018054600181018255600091825260209091206008820401805460079092169092026101000a63ffffffff81810219909216918c16021790555b8681600c0160008282546140ca9190615a08565b909155505063ffffffff88161561414a576005810180546001810182556000918252602082206008820401805460079092166004026101000a63ffffffff818102199093168d841691820217909155835460405190831693928c16927f3ec54e926fe5dd86406fe57832ff318517aed2a5cfbeacfb90a5e9489483ae4b91a45b60cf54640100000000900460ff1615614168576141688188876144f2565b6141728786614c4c565b995081905061418081615b30565b915050614013565b505050505050505050565b60e081015151600090818115612ceb5760cf546001906141c0906601000000000000900460ff1684615a1b565b6141ca9190615a32565b949350505050565b6001600160a01b0381163b61423f5760405162461bcd60e51b815260206004820152602d60248201527f455243313936373a206e657720696d706c656d656e746174696f6e206973206e60448201526c1bdd08184818dbdb9d1c9858dd609a1b606482015260840161106c565b600080516020615bca83398151915280546001600160a01b0319166001600160a01b0392909216919091179055565b61427783614c86565b6000825111806142845750805b156109cb576142938383614cc6565b50505050565b601c81015460009060ff1615806142b857508160140154826012015410155b156142c557506001919050565b601882015415801590614405575060c960009054906101000a90046001600160a01b03166001600160a01b0316638908df3a6040518163ffffffff1660e01b8152600401602060405180830381865afa158015614326573d6000803e3d6000fd5b505050506040513d601f19601f8201168201806040525081019061434a9190615a45565b6001600160a01b03166355332a8583601801600185601801805490506143709190615a32565b8154811061438057614380615b1a565b6000918252602090912060088204015460405160e084901b6001600160e01b0319168152600790921660049081026101000a90910463ffffffff1690820152602401602060405180830381865afa1580156143df573d6000803e3d6000fd5b505050506040513d601f19601f82011682018060405250810190614403919061589b565b155b1561441257506001919050565b506000919050565b601c8101805460ff191690556040805160008152602081019182905251614445916018840191614f0d565b5060006012820181905560138201819055601482015542601682015580546040805163ffffffff9092168252602082018190526011908201527013585e08131a5b5a5d0814995858da1959607a1b60608201527fce8ab8f2ac6a94861f9740fa1fed3e6d13a85dfd8a4833bf96f3a0055ba7fb6f906080016120b6565b600054610100900460ff166144e95760405162461bcd60e51b815260040161106c90615b4f565b611b6833613c25565b6010830154604080516104808101909152845463ffffffff16815260018501805460ff909316926149989291879160208401919061452f906157c9565b80601f016020809104026020016040519081016040528092919081815260200182805461455b906157c9565b80156145a85780601f1061457d576101008083540402835291602001916145a8565b820191906000526020600020905b81548152906001019060200180831161458b57829003601f168201915b50505091835250506002820154602080830191909152600383015460ff80821615156040808601919091526001600160a01b03610100840416606086015263ffffffff600160a81b8404166080860152600160c81b90920416151560a084015260048401805482518185028101850190935280835260c090940193919290919083018282801561468357602002820191906000526020600020906000905b82829054906101000a900463ffffffff1663ffffffff16815260200190600401906020826003010492830192600103820291508084116146465790505b505050505081526020016005820180548060200260200160405190810160405280929190818152602001828054801561470757602002820191906000526020600020906000905b82829054906101000a900463ffffffff1663ffffffff16815260200190600401906020826003010492830192600103820291508084116146ca5790505b505050505081526020016006820180548060200260200160405190810160405280929190818152602001828054801561478b57602002820191906000526020600020906000905b82829054906101000a900463ffffffff1663ffffffff168152602001906004019060208260030104928301926001038202915080841161474e5790505b50505050508152602001600782018054806020026020016040519081016040528092919081815260200182805480156147e357602002820191906000526020600020905b8154815260200190600101908083116147cf575b505050918352505060088201546020808301919091526009830154604080840191909152600a8401546060840152600b8401546080840152600c84015460a0840152600d84015460c0840152600e84015460e0840152600f84015461010080850191909152601085015460ff81166101208601520463ffffffff166101408401526011840154610160840152601284015461018084015260138401546101a084015260148401546101c084015260158401546101e08401526016840154610200840152601784015461022084015260188401805482518185028101850190935280835261024090940193919290919083018282801561492d57602002820191906000526020600020906000905b82829054906101000a900463ffffffff1663ffffffff16815260200190600401906020826003010492830192600103820291508084116148f05790505b505050918352505060198201546020820152601a8201546040820152601b8201546060820152601c9091015460ff8082161515608084015261010082048116151560a08401526201000082048116151560c0840152630100000090910416151560e090910152613ccd565b60ff1611156109cb57604080516104808101909152835463ffffffff1681526001840180546149d39291869160208401919061452f906157c9565b60108401805460ff191660ff9283169081178255600090815260d860209081526040808320885460099182018054600181810183559187529486206008860401805463ffffffff60079097166004026101000a8781021990911696909316909202949094179055935490941682529290200154614a509190615a32565b60108401805464ffffffff0019811661010063ffffffff948516810291821793849055875460408051918716825291909404909416602084015260ff918216911617918101919091527f4d3af8f60ffd033b575846f894122f2342b39bc9a90da98d0a966128702b568d9060600160405180910390a1604080516104808101909152835463ffffffff16815260018401805460d892600092614afc928891602084019161452f906157c9565b60ff90811682526020820192909252604001600020600801541615614bbb57604080516104808101909152835463ffffffff16815260018401805460d892600092614b51928891602084019161452f906157c9565b60ff1660ff1681526020019081526020016000206007015483600f0154614b789190615a08565b811115614ba7578083600f01819055508183600e016000828254614b9c9190615a08565b909155506109cb9050565b8183600e016000828254614b9c9190615a08565b60cf54640100000000900460ff16156109cb57601083015460ff16600090815260d86020526040902060050154614bf3908490613b9b565b601083015460ff908116600090815260d8602052604080822060058101549054875492519194169263ffffffff909216917fdeaf5b294f5016988108257045fc779d7d01e05a4ecdc4df70f62d5a799e053b91a4505050565b60d25460d154614c5c9190615a08565b811115614c6b5760d15560d055565b8160d06000828254614c7d9190615a08565b90915550505050565b614c8f816141d2565b6040516001600160a01b038216907fbc7cd75a20ee27fd9adebab32041f755214dbc6bffa90cc0225b39da2e5c2d3b90600090a250565b60606001600160a01b0383163b614d2e5760405162461bcd60e51b815260206004820152602660248201527f416464726573733a2064656c65676174652063616c6c20746f206e6f6e2d636f6044820152651b9d1c9858dd60d21b606482015260840161106c565b600080846001600160a01b031684604051614d499190615b9a565b600060405180830381855af49150503d8060008114614d84576040519150601f19603f3d011682016040523d82523d6000602084013e614d89565b606091505b5091509150614db18282604051806060016040528060278152602001615bea60279139614dbc565b925050505b92915050565b60608315614dcb575081612ceb565b612ceb8383815115614de05781518083602001fd5b8060405162461bcd60e51b815260040161106c9190615bb6565b82805482825590600052602060002090600f01601090048101928215614e925791602002820160005b83821115614e6257835183826101000a81548161ffff021916908360ff1602179055509260200192600201602081600101049283019260010302614e23565b8015614e905782816101000a81549061ffff0219169055600201602081600101049283019260010302614e62565b505b50614e9e929150614faa565b5090565b82805482825590600052602060002090600f01601090048101928215614e925791602002820160005b83821115614e6257833560ff1683826101000a81548161ffff021916908360ff1602179055509260200192600201602081600101049283019260010302614ecb565b82805482825590600052602060002090600701600890048101928215614e925791602002820160005b83821115614f7a57835183826101000a81548163ffffffff021916908363ffffffff1602179055509260200192600401602081600301049283019260010302614f36565b8015614e905782816101000a81549063ffffffff0219169055600401602081600301049283019260010302614f7a565b5b80821115614e9e5760008155600101614fab565b803560ff81168114614fd057600080fd5b919050565b600060208284031215614fe757600080fd5b612ceb82614fbf565b6020808252825182820181905260009190848201906040850190845b8181101561502e57835163ffffffff168352928401929184019160010161500c565b50909695505050505050565b6001600160a01b038116811461102157600080fd5b6000806040838503121561506257600080fd5b823561506d8161503a565b946020939093013593505050565b60006020828403121561508d57600080fd5b5035919050565b63ffffffff8116811461102157600080fd5b6000602082840312156150b857600080fd5b8135612ceb81615094565b60005b838110156150de5781810151838201526020016150c6565b50506000910152565b600081518084526150ff8160208601602086016150c3565b601f01601f19169290920160200192915050565b600081518084526020808501945080840160005b8381101561514957815163ffffffff1687529582019590820190600101615127565b509495945050505050565b600081518084526020808501945080840160005b8381101561514957815187529582019590820190600101615168565b6020815261519b60208201835163ffffffff169052565b600060208301516104808060408501526151b96104a08501836150e7565b91506040850151606085015260608501516151d8608086018215159052565b5060808501516001600160a01b03811660a08601525060a085015163ffffffff811660c08601525060c085015180151560e08601525060e0850151601f1961010081878603018188015261522c8584615113565b94508088015192505061012081878603018188015261524b8584615113565b94508088015192505061014081878603018188015261526a8584615113565b9450808801519250506101608187860301818801526152898584615154565b90880151610180888101919091528801516101a0808901919091528801516101c0808901919091528801516101e08089019190915288015161020080890191909152880151610220808901919091528801516102408089019190915288015161026080890191909152880151909450915061028061530b8188018460ff169052565b87015191506102a06153248782018463ffffffff169052565b8701516102c0878101919091528701516102e080880191909152870151610300808801919091528701516103208088019190915287015161034080880191909152870151610360808801919091528701516103808088019190915287015186850382016103a08089019190915290925061539e8584615113565b908801516103c0888101919091528801516103e08089019190915288015161040080890191909152880151909450915061042090506153e08187018315159052565b86015190506104406153f58682018315159052565b860151905061046061540a8682018315159052565b90950151151593019290925250919050565b60006020828403121561542e57600080fd5b8135612ceb8161503a565b6000806040838503121561544c57600080fd5b82359150602083013561545e81615094565b809150509250929050565b634e487b7160e01b600052604160045260246000fd5b600067ffffffffffffffff8084111561549a5761549a615469565b604051601f8501601f19908116603f011681019082821181831017156154c2576154c2615469565b816040528093508581528686860111156154db57600080fd5b858560208301376000602087830101525050509392505050565b801515811461102157600080fd5b8035614fd0816154f5565b60008060008060008060008060006101208a8c03121561552d57600080fd5b6155368a614fbf565b985060208a0135975060408a0135965060608a0135955060808a013567ffffffffffffffff81111561556757600080fd5b8a01601f81018c1361557857600080fd5b6155878c82356020840161547f565b95505060a08a0135935060c08a0135925060e08a013591506155ac6101008b01615503565b90509295985092959850929598565b600080604083850312156155ce57600080fd5b82356155d98161503a565b9150602083013567ffffffffffffffff8111156155f557600080fd5b8301601f8101851361560657600080fd5b6156158582356020840161547f565b9150509250929050565b6000806040838503121561563257600080fd5b823561506d81615094565b6020815261565160208201835160ff169052565b602082015160408201526040820151606082015260608201516080820152600060808301516101408060a085015261568d6101608501836150e7565b915060a085015160c085015260c085015160e085015260e08501516101008181870152808701519150506101206156c78187018315159052565b860151858403601f19018387015290506156e18382615113565b9695505050505050565b6000602082840312156156fd57600080fd5b813561ffff81168114612ceb57600080fd5b6000806020838503121561572257600080fd5b823567ffffffffffffffff8082111561573a57600080fd5b818501915085601f83011261574e57600080fd5b81358181111561575d57600080fd5b8660208260051b850101111561577257600080fd5b60209290920196919550909350505050565b6020815281511515602082015260006020830151606060408401526157ac6080840182615113565b90506040840151601f19848303016060850152614db182826150e7565b600181811c908216806157dd57607f821691505b6020821081036157fd57634e487b7160e01b600052602260045260246000fd5b50919050565b6020808252602c908201527f46756e6374696f6e206d7573742062652063616c6c6564207468726f7567682060408201526b19195b1959d85d1958d85b1b60a21b606082015260800190565b6020808252602c908201527f46756e6374696f6e206d7573742062652063616c6c6564207468726f7567682060408201526b6163746976652070726f787960a01b606082015260800190565b6000602082840312156158ad57600080fd5b8151612ceb816154f5565b6020808252601290820152712cb7ba9030b932903737ba1030b236b4b71760711b604082015260600190565b601f8211156109cb57600081815260208120601f850160051c8101602086101561590b5750805b601f850160051c820191505b8181101561592a57828155600101615917565b505050505050565b815167ffffffffffffffff81111561594c5761594c615469565b6159608161595a84546157c9565b846158e4565b602080601f831160018114615995576000841561597d5750858301515b600019600386901b1c1916600185901b17855561592a565b600085815260208120601f198616915b828110156159c4578886015182559484019460019091019084016159a5565b50858210156159e25787850151600019600388901b60f8161c191681555b5050505050600190811b01905550565b634e487b7160e01b600052601160045260246000fd5b80820180821115614db657614db66159f2565b8082028115828204841417614db657614db66159f2565b81810381811115614db657614db66159f2565b600060208284031215615a5757600080fd5b8151612ceb8161503a565b600082615a7f57634e487b7160e01b600052601260045260246000fd5b500490565b600060208284031215615a9657600080fd5b8151612ceb81615094565b63ffffffff818116838216019080821115615abe57615abe6159f2565b5092915050565b600063ffffffff808316818103615ade57615ade6159f2565b6001019392505050565b600060208284031215615afa57600080fd5b5051919050565b60ff8181168382160190811115614db657614db66159f2565b634e487b7160e01b600052603260045260246000fd5b600060ff821660ff8103615b4657615b466159f2565b60010192915050565b6020808252602b908201527f496e697469616c697a61626c653a20636f6e7472616374206973206e6f74206960408201526a6e697469616c697a696e6760a81b606082015260800190565b60008251615bac8184602087016150c3565b9190910192915050565b602081526000612ceb60208301846150e756fe360894a13ba1a3210667c828492db98dca3e2076cc3735a920a3ca505d382bbc416464726573733a206c6f772d6c6576656c2064656c65676174652063616c6c206661696c6564a2646970667358221220b4f2026b222d0cf57c5c0b320e6ede98ab6a50437047f3c278aa3dea941e345e64736f6c63430008120033",
  "linkReferences": {},
  "deployedLinkReferences": {}
}