{
  "_format": "hh-sol-artifact-1",
  "contractName": "ReferralV4Upgradeable",
  "sourceName": "contracts/ReferralV4Upgradeable.sol",
  "abi": [
    {
      "anonymous": false,
      "inputs": [
        {
          "indexed": false,
          "internalType": "uint32",
          "name": "id",
          "type": "uint32"
        }
      ],
      "name": "ActivatedId",
      "type": "event"
    },
    {
      "anonymous": false,
      "inputs": [
        {
          "indexed": false,
          "internalType": "uint32",
          "name": "id",
          "type": "uint32"
        },
        {
          "indexed": false,
          "internalType": "uint32",
          "name": "index",
          "type": "uint32"
        },
        {
          "indexed": false,
          "internalType": "uint8",
          "name": "rank",
          "type": "uint8"
        }
      ],
      "name": "AddedInRoyaltyClubList",
      "type": "event"
    },
    {
      "anonymous": false,
      "inputs": [
        {
          "indexed": false,
          "internalType": "address",
          "name": "previousAdmin",
          "type": "address"
        },
        {
          "indexed": false,
          "internalType": "address",
          "name": "newAdmin",
          "type": "address"
        }
      ],
      "name": "AdminChanged",
      "type": "event"
    },
    {
      "anonymous": false,
      "inputs": [
        {
          "indexed": false,
          "internalType": "address",
          "name": "userAddress",
          "type": "address"
        },
        {
          "indexed": false,
          "internalType": "uint32",
          "name": "id",
          "type": "uint32"
        },
        {
          "indexed": false,
          "internalType": "uint256",
          "name": "value",
          "type": "uint256"
        }
      ],
      "name": "BalanceClaimed",
      "type": "event"
    },
    {
      "anonymous": false,
      "inputs": [
        {
          "indexed": true,
          "internalType": "address",
          "name": "beacon",
          "type": "address"
        }
      ],
      "name": "BeaconUpgraded",
      "type": "event"
    },
    {
      "anonymous": false,
      "inputs": [
        {
          "indexed": false,
          "internalType": "uint32",
          "name": "id",
          "type": "uint32"
        },
        {
          "indexed": false,
          "internalType": "string",
          "name": "reason",
          "type": "string"
        }
      ],
      "name": "DeactivatedId",
      "type": "event"
    },
    {
      "anonymous": false,
      "inputs": [
        {
          "indexed": false,
          "internalType": "uint8",
          "name": "version",
          "type": "uint8"
        }
      ],
      "name": "Initialized",
      "type": "event"
    },
    {
      "anonymous": false,
      "inputs": [
        {
          "indexed": false,
          "internalType": "uint32",
          "name": "id",
          "type": "uint32"
        },
        {
          "indexed": false,
          "internalType": "address",
          "name": "owner",
          "type": "address"
        }
      ],
      "name": "OwnerChangedId",
      "type": "event"
    },
    {
      "anonymous": false,
      "inputs": [
        {
          "indexed": true,
          "internalType": "address",
          "name": "previousOwner",
          "type": "address"
        },
        {
          "indexed": true,
          "internalType": "address",
          "name": "newOwner",
          "type": "address"
        }
      ],
      "name": "OwnershipTransferred",
      "type": "event"
    },
    {
      "anonymous": false,
      "inputs": [
        {
          "indexed": false,
          "internalType": "uint8",
          "name": "packageId",
          "type": "uint8"
        }
      ],
      "name": "PackageAdded",
      "type": "event"
    },
    {
      "anonymous": false,
      "inputs": [
        {
          "indexed": false,
          "internalType": "uint8",
          "name": "packageId",
          "type": "uint8"
        }
      ],
      "name": "PackageRemoved",
      "type": "event"
    },
    {
      "anonymous": false,
      "inputs": [
        {
          "indexed": false,
          "internalType": "uint8",
          "name": "packageId",
          "type": "uint8"
        }
      ],
      "name": "PackageUpdated",
      "type": "event"
    },
    {
      "anonymous": false,
      "inputs": [
        {
          "indexed": true,
          "internalType": "uint32",
          "name": "refererId",
          "type": "uint32"
        },
        {
          "indexed": true,
          "internalType": "uint8",
          "name": "level",
          "type": "uint8"
        },
        {
          "indexed": true,
          "internalType": "string",
          "name": "reason",
          "type": "string"
        }
      ],
      "name": "ReferralNotPaid",
      "type": "event"
    },
    {
      "anonymous": false,
      "inputs": [
        {
          "indexed": true,
          "internalType": "uint32",
          "name": "refereeId",
          "type": "uint32"
        },
        {
          "indexed": true,
          "internalType": "uint32",
          "name": "referrerId",
          "type": "uint32"
        },
        {
          "indexed": true,
          "internalType": "uint256",
          "name": "amount",
          "type": "uint256"
        },
        {
          "indexed": false,
          "internalType": "uint8",
          "name": "level",
          "type": "uint8"
        }
      ],
      "name": "ReferralRewardPaid",
      "type": "event"
    },
    {
      "anonymous": false,
      "inputs": [
        {
          "indexed": true,
          "internalType": "address",
          "name": "refereeId",
          "type": "address"
        },
        {
          "indexed": true,
          "internalType": "address",
          "name": "referrerId",
          "type": "address"
        },
        {
          "indexed": true,
          "internalType": "string",
          "name": "reason",
          "type": "string"
        }
      ],
      "name": "RegisterRefererFailed",
      "type": "event"
    },
    {
      "anonymous": false,
      "inputs": [
        {
          "indexed": true,
          "internalType": "uint32",
          "name": "id",
          "type": "uint32"
        },
        {
          "indexed": true,
          "internalType": "uint32",
          "name": "refererId",
          "type": "uint32"
        }
      ],
      "name": "RegisteredReferer",
      "type": "event"
    },
    {
      "anonymous": false,
      "inputs": [
        {
          "indexed": true,
          "internalType": "uint32",
          "name": "refereeId",
          "type": "uint32"
        },
        {
          "indexed": true,
          "internalType": "uint32",
          "name": "referrerId",
          "type": "uint32"
        },
        {
          "indexed": true,
          "internalType": "uint32",
          "name": "parentAccountId",
          "type": "uint32"
        }
      ],
      "name": "RegisteredTeamAddress",
      "type": "event"
    },
    {
      "anonymous": false,
      "inputs": [
        {
          "indexed": true,
          "internalType": "uint32",
          "name": "userid",
          "type": "uint32"
        },
        {
          "indexed": true,
          "internalType": "uint8",
          "name": "packageId",
          "type": "uint8"
        },
        {
          "indexed": true,
          "internalType": "uint256",
          "name": "amount",
          "type": "uint256"
        }
      ],
      "name": "RoyaltyClubBonusPaid",
      "type": "event"
    },
    {
      "anonymous": false,
      "inputs": [
        {
          "indexed": true,
          "internalType": "address",
          "name": "implementation",
          "type": "address"
        }
      ],
      "name": "Upgraded",
      "type": "event"
    },
    {
      "inputs": [
        {
          "internalType": "uint32",
          "name": "_refererId",
          "type": "uint32"
        }
      ],
      "name": "activateId",
      "outputs": [],
      "stateMutability": "payable",
      "type": "function"
    },
    {
      "inputs": [
        {
          "internalType": "address",
          "name": "_userAddress",
          "type": "address"
        },
        {
          "internalType": "uint32",
          "name": "_refererId",
          "type": "uint32"
        },
        {
          "internalType": "uint256",
          "name": "_valueInUSD",
          "type": "uint256"
        },
        {
          "internalType": "uint256",
          "name": "_activationTime",
          "type": "uint256"
        },
        {
          "internalType": "uint256",
          "name": "_roiStartTime",
          "type": "uint256"
        },
        {
          "internalType": "uint256",
          "name": "_roiResetTime",
          "type": "uint256"
        },
        {
          "internalType": "uint256",
          "name": "_roiDurationInDays",
          "type": "uint256"
        }
      ],
      "name": "activateIdAdmin",
      "outputs": [],
      "stateMutability": "nonpayable",
      "type": "function"
    },
    {
      "inputs": [
        {
          "internalType": "uint32",
          "name": "_referrerId",
          "type": "uint32"
        },
        {
          "internalType": "uint32",
          "name": "_id",
          "type": "uint32"
        }
      ],
      "name": "changeUpline",
      "outputs": [],
      "stateMutability": "nonpayable",
      "type": "function"
    },
    {
      "inputs": [
        {
          "internalType": "uint32",
          "name": "_id",
          "type": "uint32"
        }
      ],
      "name": "claimBalance",
      "outputs": [],
      "stateMutability": "nonpayable",
      "type": "function"
    },
    {
      "inputs": [],
      "name": "companyTurnoverTimeLimit",
      "outputs": [
        {
          "internalType": "uint256",
          "name": "",
          "type": "uint256"
        }
      ],
      "stateMutability": "view",
      "type": "function"
    },
    {
      "inputs": [],
      "name": "companyTurnoverTimeStamp",
      "outputs": [
        {
          "internalType": "uint256",
          "name": "",
          "type": "uint256"
        }
      ],
      "stateMutability": "view",
      "type": "function"
    },
    {
      "inputs": [],
      "name": "companyTurnoverWithTimeLimit",
      "outputs": [
        {
          "internalType": "uint256",
          "name": "",
          "type": "uint256"
        }
      ],
      "stateMutability": "view",
      "type": "function"
    },
    {
      "inputs": [],
      "name": "decimals",
      "outputs": [
        {
          "internalType": "uint16",
          "name": "",
          "type": "uint16"
        }
      ],
      "stateMutability": "view",
      "type": "function"
    },
    {
      "inputs": [
        {
          "internalType": "address",
          "name": "_userAddress",
          "type": "address"
        },
        {
          "internalType": "uint32",
          "name": "_id",
          "type": "uint32"
        }
      ],
      "name": "detachIdFromAddressAdmin",
      "outputs": [],
      "stateMutability": "nonpayable",
      "type": "function"
    },
    {
      "inputs": [
        {
          "internalType": "uint256",
          "name": "",
          "type": "uint256"
        }
      ],
      "name": "disabledUsersList",
      "outputs": [
        {
          "internalType": "address",
          "name": "",
          "type": "address"
        }
      ],
      "stateMutability": "view",
      "type": "function"
    },
    {
      "inputs": [],
      "name": "futureScureWalletContribution",
      "outputs": [
        {
          "internalType": "uint8",
          "name": "",
          "type": "uint8"
        }
      ],
      "stateMutability": "view",
      "type": "function"
    },
    {
      "inputs": [
        {
          "internalType": "uint8",
          "name": "_packageId",
          "type": "uint8"
        }
      ],
      "name": "getAchieversList",
      "outputs": [
        {
          "internalType": "uint32[]",
          "name": "",
          "type": "uint32[]"
        }
      ],
      "stateMutability": "view",
      "type": "function"
    },
    {
      "inputs": [
        {
          "internalType": "uint32",
          "name": "_id",
          "type": "uint32"
        }
      ],
      "name": "getIdAccount",
      "outputs": [
        {
          "components": [
            {
              "internalType": "uint32",
              "name": "id",
              "type": "uint32"
            },
            {
              "internalType": "string",
              "name": "oldId",
              "type": "string"
            },
            {
              "internalType": "uint256",
              "name": "joiningTime",
              "type": "uint256"
            },
            {
              "internalType": "bool",
              "name": "isAddedToUserList",
              "type": "bool"
            },
            {
              "internalType": "address",
              "name": "owner",
              "type": "address"
            },
            {
              "internalType": "uint32",
              "name": "refererId",
              "type": "uint32"
            },
            {
              "internalType": "bool",
              "name": "hasUpline",
              "type": "bool"
            },
            {
              "internalType": "uint32[]",
              "name": "refereeIds",
              "type": "uint32[]"
            },
            {
              "internalType": "uint32[]",
              "name": "teamIds",
              "type": "uint32[]"
            },
            {
              "internalType": "uint32[]",
              "name": "teamLevel",
              "type": "uint32[]"
            },
            {
              "internalType": "uint256[]",
              "name": "selfBusinessArray",
              "type": "uint256[]"
            },
            {
              "internalType": "uint256",
              "name": "selfBusiness",
              "type": "uint256"
            },
            {
              "internalType": "uint256",
              "name": "selfBusinessOld",
              "type": "uint256"
            },
            {
              "internalType": "uint256",
              "name": "directBusiness",
              "type": "uint256"
            },
            {
              "internalType": "uint256",
              "name": "directBusinessOld",
              "type": "uint256"
            },
            {
              "internalType": "uint256",
              "name": "teamBusiness",
              "type": "uint256"
            },
            {
              "internalType": "uint256",
              "name": "teamBusinessOld",
              "type": "uint256"
            },
            {
              "internalType": "uint256",
              "name": "royaltyClubBusiness",
              "type": "uint256"
            },
            {
              "internalType": "uint256",
              "name": "timeStampRoyaltyClub",
              "type": "uint256"
            },
            {
              "internalType": "uint8",
              "name": "royaltyClubPackageId",
              "type": "uint8"
            },
            {
              "internalType": "uint32",
              "name": "royaltyClubListIndex",
              "type": "uint32"
            },
            {
              "internalType": "uint256",
              "name": "royaltyClubRewardPaid",
              "type": "uint256"
            },
            {
              "internalType": "uint256",
              "name": "topUpIncome",
              "type": "uint256"
            },
            {
              "internalType": "uint256",
              "name": "topUp",
              "type": "uint256"
            },
            {
              "internalType": "uint256",
              "name": "maxLimit",
              "type": "uint256"
            },
            {
              "internalType": "uint256",
              "name": "activationTime",
              "type": "uint256"
            },
            {
              "internalType": "uint256",
              "name": "deactivationTime",
              "type": "uint256"
            },
            {
              "internalType": "uint256",
              "name": "referralPaid",
              "type": "uint256"
            },
            {
              "internalType": "uint32[]",
              "name": "roiIds",
              "type": "uint32[]"
            },
            {
              "internalType": "uint256",
              "name": "roiPaid",
              "type": "uint256"
            },
            {
              "internalType": "uint256",
              "name": "roiClaimedTime",
              "type": "uint256"
            },
            {
              "internalType": "uint256",
              "name": "walletBalance",
              "type": "uint256"
            },
            {
              "internalType": "bool",
              "name": "isActive",
              "type": "bool"
            },
            {
              "internalType": "bool",
              "name": "isROIDisabled",
              "type": "bool"
            },
            {
              "internalType": "bool",
              "name": "isIdVisibilityDisabled",
              "type": "bool"
            },
            {
              "internalType": "bool",
              "name": "canWindraw",
              "type": "bool"
            }
          ],
          "internalType": "struct ReferralV4Upgradeable.StructId",
          "name": "",
          "type": "tuple"
        }
      ],
      "stateMutability": "view",
      "type": "function"
    },
    {
      "inputs": [
        {
          "internalType": "uint32",
          "name": "_id",
          "type": "uint32"
        }
      ],
      "name": "getIdLimits",
      "outputs": [
        {
          "internalType": "uint256",
          "name": "topUpIncome",
          "type": "uint256"
        },
        {
          "internalType": "uint256",
          "name": "topUp",
          "type": "uint256"
        },
        {
          "internalType": "uint256",
          "name": "maxLimit",
          "type": "uint256"
        }
      ],
      "stateMutability": "view",
      "type": "function"
    },
    {
      "inputs": [],
      "name": "getMinContributionETH",
      "outputs": [
        {
          "internalType": "uint256",
          "name": "",
          "type": "uint256"
        }
      ],
      "stateMutability": "view",
      "type": "function"
    },
    {
      "inputs": [
        {
          "internalType": "uint8",
          "name": "_packageId",
          "type": "uint8"
        }
      ],
      "name": "getRoyaltyClubPackageInfo",
      "outputs": [
        {
          "components": [
            {
              "internalType": "uint8",
              "name": "packageId",
              "type": "uint8"
            },
            {
              "internalType": "uint256",
              "name": "selfBusiness",
              "type": "uint256"
            },
            {
              "internalType": "uint256",
              "name": "directBusiness",
              "type": "uint256"
            },
            {
              "internalType": "uint256",
              "name": "teamBusiness",
              "type": "uint256"
            },
            {
              "internalType": "string",
              "name": "rankName",
              "type": "string"
            },
            {
              "internalType": "uint256",
              "name": "reward",
              "type": "uint256"
            },
            {
              "internalType": "uint256",
              "name": "businessLimit",
              "type": "uint256"
            },
            {
              "internalType": "uint256",
              "name": "timeLimit",
              "type": "uint256"
            },
            {
              "internalType": "bool",
              "name": "isPayReccursive",
              "type": "bool"
            },
            {
              "internalType": "uint32[]",
              "name": "achieversList",
              "type": "uint32[]"
            }
          ],
          "internalType": "struct ReferralV4Upgradeable.StructPackages",
          "name": "",
          "type": "tuple"
        }
      ],
      "stateMutability": "view",
      "type": "function"
    },
    {
      "inputs": [
        {
          "internalType": "address",
          "name": "_address",
          "type": "address"
        }
      ],
      "name": "getUserAccount",
      "outputs": [
        {
          "components": [
            {
              "internalType": "bool",
              "name": "isActive",
              "type": "bool"
            },
            {
              "internalType": "uint32[]",
              "name": "accountIds",
              "type": "uint32[]"
            },
            {
              "internalType": "string",
              "name": "userName",
              "type": "string"
            }
          ],
          "internalType": "struct ReferralV4Upgradeable.StructAccount",
          "name": "",
          "type": "tuple"
        }
      ],
      "stateMutability": "view",
      "type": "function"
    },
    {
      "inputs": [
        {
          "internalType": "uint32",
          "name": "_id",
          "type": "uint32"
        },
        {
          "internalType": "uint256",
          "name": "_value",
          "type": "uint256"
        }
      ],
      "name": "increaseIdTopIncome",
      "outputs": [],
      "stateMutability": "nonpayable",
      "type": "function"
    },
    {
      "inputs": [],
      "name": "initialize",
      "outputs": [],
      "stateMutability": "nonpayable",
      "type": "function"
    },
    {
      "inputs": [],
      "name": "isActivateROI",
      "outputs": [
        {
          "internalType": "bool",
          "name": "",
          "type": "bool"
        }
      ],
      "stateMutability": "view",
      "type": "function"
    },
    {
      "inputs": [],
      "name": "isPayReferral",
      "outputs": [
        {
          "internalType": "bool",
          "name": "",
          "type": "bool"
        }
      ],
      "stateMutability": "view",
      "type": "function"
    },
    {
      "inputs": [],
      "name": "isPayRoyaltyClubBonus",
      "outputs": [
        {
          "internalType": "bool",
          "name": "",
          "type": "bool"
        }
      ],
      "stateMutability": "view",
      "type": "function"
    },
    {
      "inputs": [
        {
          "internalType": "uint256",
          "name": "",
          "type": "uint256"
        }
      ],
      "name": "levelRates",
      "outputs": [
        {
          "internalType": "uint16",
          "name": "",
          "type": "uint16"
        }
      ],
      "stateMutability": "view",
      "type": "function"
    },
    {
      "inputs": [],
      "name": "maxLevels",
      "outputs": [
        {
          "internalType": "uint8",
          "name": "",
          "type": "uint8"
        }
      ],
      "stateMutability": "view",
      "type": "function"
    },
    {
      "inputs": [],
      "name": "minContributionUSD",
      "outputs": [
        {
          "internalType": "uint256",
          "name": "",
          "type": "uint256"
        }
      ],
      "stateMutability": "view",
      "type": "function"
    },
    {
      "inputs": [],
      "name": "owner",
      "outputs": [
        {
          "internalType": "address",
          "name": "",
          "type": "address"
        }
      ],
      "stateMutability": "view",
      "type": "function"
    },
    {
      "inputs": [],
      "name": "packagesCount",
      "outputs": [
        {
          "internalType": "uint8",
          "name": "",
          "type": "uint8"
        }
      ],
      "stateMutability": "view",
      "type": "function"
    },
    {
      "inputs": [
        {
          "internalType": "uint256",
          "name": "_value",
          "type": "uint256"
        },
        {
          "internalType": "uint32",
          "name": "_id",
          "type": "uint32"
        }
      ],
      "name": "payReferralAdmin",
      "outputs": [],
      "stateMutability": "nonpayable",
      "type": "function"
    },
    {
      "inputs": [],
      "name": "proxiableUUID",
      "outputs": [
        {
          "internalType": "bytes32",
          "name": "",
          "type": "bytes32"
        }
      ],
      "stateMutability": "view",
      "type": "function"
    },
    {
      "inputs": [],
      "name": "renounceOwnership",
      "outputs": [],
      "stateMutability": "nonpayable",
      "type": "function"
    },
    {
      "inputs": [],
      "name": "royaltyClubPackageCount",
      "outputs": [
        {
          "internalType": "uint8",
          "name": "",
          "type": "uint8"
        }
      ],
      "stateMutability": "view",
      "type": "function"
    },
    {
      "inputs": [
        {
          "internalType": "uint32[]",
          "name": "_id",
          "type": "uint32[]"
        },
        {
          "internalType": "address[]",
          "name": "_userAddress",
          "type": "address[]"
        }
      ],
      "name": "setIdOwnerAddressAdmin",
      "outputs": [],
      "stateMutability": "nonpayable",
      "type": "function"
    },
    {
      "inputs": [
        {
          "internalType": "uint16",
          "name": "_value",
          "type": "uint16"
        }
      ],
      "name": "setLevelDecimals",
      "outputs": [],
      "stateMutability": "nonpayable",
      "type": "function"
    },
    {
      "inputs": [
        {
          "internalType": "uint8[]",
          "name": "_value",
          "type": "uint8[]"
        }
      ],
      "name": "setLevelRates",
      "outputs": [],
      "stateMutability": "nonpayable",
      "type": "function"
    },
    {
      "inputs": [
        {
          "internalType": "uint8",
          "name": "_valueDecimals",
          "type": "uint8"
        }
      ],
      "name": "setMaxLevelsAdmin",
      "outputs": [],
      "stateMutability": "nonpayable",
      "type": "function"
    },
    {
      "inputs": [
        {
          "internalType": "address[]",
          "name": "_userAddress",
          "type": "address[]"
        },
        {
          "internalType": "bool[]",
          "name": "_trueOrFalse",
          "type": "bool[]"
        }
      ],
      "name": "setVisibilityOfAddressAdmin",
      "outputs": [],
      "stateMutability": "nonpayable",
      "type": "function"
    },
    {
      "inputs": [
        {
          "internalType": "uint32[]",
          "name": "_id",
          "type": "uint32[]"
        },
        {
          "internalType": "bool[]",
          "name": "_trueOrFalse",
          "type": "bool[]"
        }
      ],
      "name": "setWithdrawalStatusAdmin",
      "outputs": [],
      "stateMutability": "nonpayable",
      "type": "function"
    },
    {
      "inputs": [
        {
          "internalType": "uint32",
          "name": "_id",
          "type": "uint32"
        }
      ],
      "name": "topUpId",
      "outputs": [],
      "stateMutability": "payable",
      "type": "function"
    },
    {
      "inputs": [],
      "name": "totalBalanceClaimed",
      "outputs": [
        {
          "internalType": "uint256",
          "name": "",
          "type": "uint256"
        }
      ],
      "stateMutability": "view",
      "type": "function"
    },
    {
      "inputs": [],
      "name": "totalIds",
      "outputs": [
        {
          "internalType": "uint32",
          "name": "",
          "type": "uint32"
        }
      ],
      "stateMutability": "view",
      "type": "function"
    },
    {
      "inputs": [],
      "name": "totalReferralPaid",
      "outputs": [
        {
          "internalType": "uint256",
          "name": "",
          "type": "uint256"
        }
      ],
      "stateMutability": "view",
      "type": "function"
    },
    {
      "inputs": [],
      "name": "totalRoyaltyClubBonusPaid",
      "outputs": [
        {
          "internalType": "uint256",
          "name": "",
          "type": "uint256"
        }
      ],
      "stateMutability": "view",
      "type": "function"
    },
    {
      "inputs": [
        {
          "internalType": "address",
          "name": "newOwner",
          "type": "address"
        }
      ],
      "name": "transferOwnership",
      "outputs": [],
      "stateMutability": "nonpayable",
      "type": "function"
    },
    {
      "inputs": [
        {
          "internalType": "uint32",
          "name": "_id",
          "type": "uint32"
        },
        {
          "internalType": "uint256",
          "name": "_value",
          "type": "uint256"
        }
      ],
      "name": "updateIdWhenClaimROI",
      "outputs": [],
      "stateMutability": "nonpayable",
      "type": "function"
    },
    {
      "inputs": [
        {
          "internalType": "address",
          "name": "newImplementation",
          "type": "address"
        }
      ],
      "name": "upgradeTo",
      "outputs": [],
      "stateMutability": "nonpayable",
      "type": "function"
    },
    {
      "inputs": [
        {
          "internalType": "address",
          "name": "newImplementation",
          "type": "address"
        },
        {
          "internalType": "bytes",
          "name": "data",
          "type": "bytes"
        }
      ],
      "name": "upgradeToAndCall",
      "outputs": [],
      "stateMutability": "payable",
      "type": "function"
    },
    {
      "inputs": [
        {
          "internalType": "uint256",
          "name": "",
          "type": "uint256"
        }
      ],
      "name": "users",
      "outputs": [
        {
          "internalType": "address",
          "name": "",
          "type": "address"
        }
      ],
      "stateMutability": "view",
      "type": "function"
    },
    {
      "stateMutability": "payable",
      "type": "receive"
    }
  ],
  "bytecode": "0x60a06040523060805234801561001457600080fd5b50608051615ea06200004d600039600081816112fa0152818161133a0152818161197f015281816119bf0152611b1b0152615ea06000f3fe60806040526004361061028c5760003560e01c8063715018a61161015a578063a152b0f0116100c1578063e1c715ba1161007a578063e1c715ba146107d9578063f07690c6146107f9578063f2fde38b14610819578063f41bfeef14610839578063fafc95971461084f578063fb47e0161461087157600080fd5b8063a152b0f01461073a578063a28a36861461074d578063a43ae40814610770578063b580a7a114610790578063bcb93f9b146107a6578063cd21364d146107b957600080fd5b8063852ff2fd11610113578063852ff2fd1461069657806386851e0c146106ac5780638af925dc146106cc5780638da5cb5b146106e65780638f84de85146107045780638f8d20901461071a57600080fd5b8063715018a6146105e95780637879b5ef146105fe5780637bdbf9961461061e5780637c5994861461064b5780637cf97c8c146106615780638129fc1c1461068157600080fd5b8063390a5ba5116101fe57806352d1902d116101b757806352d1902d14610525578063648484ac1461053a5780636ccc10ae1461055a5780636de3a95c1461057a5780636f38e4101461059a5780637084431f146105ba57600080fd5b8063390a5ba5146104455780633eff2def14610477578063498b3e55146104975780634e6e93a3146104b75780634f1ef286146104f2578063509d6c521461050557600080fd5b806322f88b521161025057806322f88b52146103895780632ed421d21461039f578063300825b5146103b5578063313ce567146103d75780633659cfe614610405578063365b98b21461042557600080fd5b8063012da720146102985780631319cff9146102ce57806318e10bff146103065780631f9e65e414610339578063210097891461035c57600080fd5b3661029357005b600080fd5b3480156102a457600080fd5b506102b86102b33660046152a4565b61089e565b6040516102c591906152c7565b60405180910390f35b3480156102da57600080fd5b506102ee6102e9366004615311565b610933565b6040516001600160a01b0390911681526020016102c5565b34801561031257600080fd5b5060d554610327906301000000900460ff1681565b60405160ff90911681526020016102c5565b34801561034557600080fd5b5061034e61095d565b6040519081526020016102c5565b34801561036857600080fd5b5061037c61037736600461533c565b61096f565b6040516102c5919061541a565b34801561039557600080fd5b5061034e60d05481565b3480156103ab57600080fd5b5061034e60d15481565b3480156103c157600080fd5b506103d56103d036600461533c565b610f50565b005b3480156103e357600080fd5b5060cb546103f29061ffff1681565b60405161ffff90911681526020016102c5565b34801561041157600080fd5b506103d56104203660046156c7565b6112f0565b34801561043157600080fd5b506102ee610440366004615311565b6113cf565b34801561045157600080fd5b5060cf546104629063ffffffff1681565b60405163ffffffff90911681526020016102c5565b34801561048357600080fd5b506103d56104923660046152a4565b6113df565b3480156104a357600080fd5b506103d56104b23660046156e4565b611405565b3480156104c357600080fd5b506104d76104d236600461533c565b6114ab565b604080519384526020840192909252908201526060016102c5565b6103d561050036600461572a565b611975565b34801561051157600080fd5b506103d56105203660046157ee565b611a41565b34801561053157600080fd5b5061034e611b0e565b34801561054657600080fd5b506103d561055536600461581a565b611bc1565b34801561056657600080fd5b506103d56105753660046157ee565b612078565b34801561058657600080fd5b506103d5610595366004615894565b61211f565b3480156105a657600080fd5b5060cb546103279062010000900460ff1681565b3480156105c657600080fd5b5060d5546105d990610100900460ff1681565b60405190151581526020016102c5565b3480156105f557600080fd5b506103d56123a8565b34801561060a57600080fd5b506103f2610619366004615311565b6123bc565b34801561062a57600080fd5b5061063e6106393660046152a4565b6123f4565b6040516102c59190615900565b34801561065757600080fd5b5061034e60ce5481565b34801561066d57600080fd5b506103d561067c3660046159ae565b6125f3565b34801561068d57600080fd5b506103d5612929565b3480156106a257600080fd5b5061034e60cd5481565b3480156106b857600080fd5b506103d56106c7366004615894565b612bc1565b3480156106d857600080fd5b5060d5546105d99060ff1681565b3480156106f257600080fd5b506033546001600160a01b03166102ee565b34801561071057600080fd5b5061034e60cc5481565b34801561072657600080fd5b506103d5610735366004615894565b612cec565b6103d561074836600461533c565b612e22565b34801561075957600080fd5b5060cf546103279065010000000000900460ff1681565b34801561077c57600080fd5b506103d561078b366004615a10565b6130a2565b34801561079c57600080fd5b5061034e60d95481565b6103d56107b436600461533c565b6130c2565b3480156107c557600080fd5b5060d5546103279062010000900460ff1681565b3480156107e557600080fd5b506103d56107f4366004615a34565b613366565b34801561080557600080fd5b506103d5610814366004615a76565b61337a565b34801561082557600080fd5b506103d56108343660046156c7565b6135c2565b34801561084557600080fd5b5061034e60d25481565b34801561085b57600080fd5b5060cf546105d990640100000000900460ff1681565b34801561087d57600080fd5b5061089161088c3660046156c7565b613638565b6040516102c59190615a94565b60ff8116600090815260d8602090815260409182902060090180548351818402810184019094528084526060939283018282801561092757602002820191906000526020600020906000905b82829054906101000a900463ffffffff1663ffffffff16815260200190600401906020826003010492830192600103820291508084116108ea5790505b50505050509050919050565b60d3818154811061094357600080fd5b6000918252602090912001546001600160a01b0316905081565b600061096a60cc5461379e565b905090565b610aa5604051806104800160405280600063ffffffff168152602001606081526020016000815260200160001515815260200160006001600160a01b03168152602001600063ffffffff168152602001600015158152602001606081526020016060815260200160608152602001606081526020016000815260200160008152602001600081526020016000815260200160008152602001600081526020016000815260200160008152602001600060ff168152602001600063ffffffff16815260200160008152602001600081526020016000815260200160008152602001600081526020016000815260200160008152602001606081526020016000815260200160008152602001600081526020016000151581526020016000151581526020016000151581526020016000151581525090565b63ffffffff808316600090815260d76020908152604091829020825161048081019093528054909316825260018301805492939291840191610ae690615ad9565b80601f0160208091040260200160405190810160405280929190818152602001828054610b1290615ad9565b8015610b5f5780601f10610b3457610100808354040283529160200191610b5f565b820191906000526020600020905b815481529060010190602001808311610b4257829003601f168201915b50505091835250506002820154602080830191909152600383015460ff80821615156040808601919091526001600160a01b03610100840416606086015263ffffffff600160a81b8404166080860152600160c81b90920416151560a084015260048401805482518185028101850190935280835260c0909401939192909190830182828015610c3a57602002820191906000526020600020906000905b82829054906101000a900463ffffffff1663ffffffff1681526020019060040190602082600301049283019260010382029150808411610bfd5790505b5050505050815260200160058201805480602002602001604051908101604052809291908181526020018280548015610cbe57602002820191906000526020600020906000905b82829054906101000a900463ffffffff1663ffffffff1681526020019060040190602082600301049283019260010382029150808411610c815790505b5050505050815260200160068201805480602002602001604051908101604052809291908181526020018280548015610d4257602002820191906000526020600020906000905b82829054906101000a900463ffffffff1663ffffffff1681526020019060040190602082600301049283019260010382029150808411610d055790505b5050505050815260200160078201805480602002602001604051908101604052809291908181526020018280548015610d9a57602002820191906000526020600020905b815481526020019060010190808311610d86575b505050918352505060088201546020808301919091526009830154604080840191909152600a8401546060840152600b8401546080840152600c84015460a0840152600d84015460c0840152600e84015460e0840152600f84015461010080850191909152601085015460ff81166101208601520463ffffffff166101408401526011840154610160840152601284015461018084015260138401546101a084015260148401546101c084015260158401546101e084015260168401546102008401526017840154610220840152601884018054825181850281018501909352808352610240909401939192909190830182828015610ee457602002820191906000526020600020906000905b82829054906101000a900463ffffffff1663ffffffff1681526020019060040190602082600301049283019260010382029150808411610ea75790505b505050918352505060198201546020820152601a8201546040820152601b8201546060820152601c9091015460ff8082161515608084015261010082048116151560a08401526201000082048116151560c0840152630100000090910416151560e09091015292915050565b63ffffffff8116600090815260d760205260409081902060c9549151630935e01b60e21b815233600482015290916001600160a01b0316906324d7806c90602401602060405180830381865afa158015610fae573d6000803e3d6000fd5b505050506040513d601f19601f82011682018060405250810190610fd29190615b21565b61111157600381015461010090046001600160a01b0316331461103c5760405162461bcd60e51b815260206004820152601d60248201527f596f7520617265206e6f74206f776e6572206f6620746869732069642e00000060448201526064015b60405180910390fd5b678ac7230489e8000081601b015410156110a45760405162461bcd60e51b8152602060048201526024808201527f42616c616e6365206973206c657373207468616e206d696e20776974686472616044820152633bb0b61760e11b6064820152608401611033565b601c8101546301000000900460ff166111115760405162461bcd60e51b815260206004820152602960248201527f54686973206964207769746864726177206973206e6f7420656e61626c656420604482015268313c9030b236b4b71760b91b6064820152608401611033565b601b81015460d5546000906064906111329062010000900460ff1684615b54565b61113c9190615b6b565b905060c960009054906101000a90046001600160a01b03166001600160a01b031662f9cc666040518163ffffffff1660e01b8152600401602060405180830381865afa158015611190573d6000803e3d6000fd5b505050506040513d601f19601f820116820180604052508101906111b49190615b8d565b6003840154604051633528777d60e11b81526001600160a01b036101009092048216600482015260248101849052911690636a50eefa90604401600060405180830381600087803b15801561120857600080fd5b505af115801561121c573d6000803e3d6000fd5b50505050600383015461010090046001600160a01b03166108fc6112486112438486615baa565b61379e565b6040518115909202916000818181858888f19350505050158015611270573d6000803e3d6000fd5b506003830154604080516101009092046001600160a01b0316825263ffffffff8616602083015281018390527fe4e35e8042dd75278192e3907fc781c7cecd755fdbf27ab88c3f3ee36e697e3b9060600160405180910390a18160d960008282546112db9190615bbd565b9250508190555082601b016000905550505050565b6001600160a01b037f00000000000000000000000000000000000000000000000000000000000000001630036113385760405162461bcd60e51b815260040161103390615bd0565b7f00000000000000000000000000000000000000000000000000000000000000006001600160a01b0316611381600080516020615e24833981519152546001600160a01b031690565b6001600160a01b0316146113a75760405162461bcd60e51b815260040161103390615c1c565b6113b08161389c565b604080516000808252602082019092526113cc918391906138a4565b50565b60d4818154811061094357600080fd5b6113e7613a0f565b60cb805460ff909216620100000262ff000019909216919091179055565b60c954604051630935e01b60e21b81523360048201526001600160a01b03909116906324d7806c90602401602060405180830381865afa15801561144d573d6000803e3d6000fd5b505050506040513d601f19601f820116820180604052508101906114719190615b21565b61148d5760405162461bcd60e51b815260040161103390615c68565b60d554610100900460ff16156114a7576114a78282613a69565b5050565b63ffffffff808216600090815260d7602090815260408083208151610480810190925280549094168152600184018054939485948594859493908401916114f190615ad9565b80601f016020809104026020016040519081016040528092919081815260200182805461151d90615ad9565b801561156a5780601f1061153f5761010080835404028352916020019161156a565b820191906000526020600020905b81548152906001019060200180831161154d57829003601f168201915b50505091835250506002820154602080830191909152600383015460ff80821615156040808601919091526001600160a01b03610100840416606086015263ffffffff600160a81b8404166080860152600160c81b90920416151560a084015260048401805482518185028101850190935280835260c090940193919290919083018282801561164557602002820191906000526020600020906000905b82829054906101000a900463ffffffff1663ffffffff16815260200190600401906020826003010492830192600103820291508084116116085790505b50505050508152602001600582018054806020026020016040519081016040528092919081815260200182805480156116c957602002820191906000526020600020906000905b82829054906101000a900463ffffffff1663ffffffff168152602001906004019060208260030104928301926001038202915080841161168c5790505b505050505081526020016006820180548060200260200160405190810160405280929190818152602001828054801561174d57602002820191906000526020600020906000905b82829054906101000a900463ffffffff1663ffffffff16815260200190600401906020826003010492830192600103820291508084116117105790505b50505050508152602001600782018054806020026020016040519081016040528092919081815260200182805480156117a557602002820191906000526020600020905b815481526020019060010190808311611791575b505050918352505060088201546020808301919091526009830154604080840191909152600a8401546060840152600b8401546080840152600c84015460a0840152600d84015460c0840152600e84015460e0840152600f84015461010080850191909152601085015460ff81166101208601520463ffffffff166101408401526011840154610160840152601284015461018084015260138401546101a084015260148401546101c084015260158401546101e0840152601684015461020084015260178401546102208401526018840180548251818502810185019093528083526102409094019391929091908301828280156118ef57602002820191906000526020600020906000905b82829054906101000a900463ffffffff1663ffffffff16815260200190600401906020826003010492830192600103820291508084116118b25790505b505050918352505060198201546020820152601a8201546040820152601b8201546060820152601c9091015460ff8082161515608084015261010082048116151560a08401526201000082048116151560c0840152630100000090910416151560e0909101526102c08101516102e0820151610300909201519097919650945092505050565b6001600160a01b037f00000000000000000000000000000000000000000000000000000000000000001630036119bd5760405162461bcd60e51b815260040161103390615bd0565b7f00000000000000000000000000000000000000000000000000000000000000006001600160a01b0316611a06600080516020615e24833981519152546001600160a01b031690565b6001600160a01b031614611a2c5760405162461bcd60e51b815260040161103390615c1c565b611a358261389c565b6114a7828260016138a4565b60c954604051630935e01b60e21b81523360048201526001600160a01b03909116906324d7806c90602401602060405180830381865afa158015611a89573d6000803e3d6000fd5b505050506040513d601f19601f82011682018060405250810190611aad9190615b21565b611ac95760405162461bcd60e51b815260040161103390615c68565b63ffffffff8216600090815260d76020526040812042601a82015560198101805491928492611af9908490615bbd565b90915550611b0990508183613e3d565b505050565b6000306001600160a01b037f00000000000000000000000000000000000000000000000000000000000000001614611bae5760405162461bcd60e51b815260206004820152603860248201527f555550535570677261646561626c653a206d757374206e6f742062652063616c60448201527f6c6564207468726f7567682064656c656761746563616c6c00000000000000006064820152608401611033565b50600080516020615e2483398151915290565b60c954604051630935e01b60e21b81523360048201526001600160a01b03909116906324d7806c90602401602060405180830381865afa158015611c09573d6000803e3d6000fd5b505050506040513d601f19601f82011682018060405250810190611c2d9190615b21565b611c495760405162461bcd60e51b815260040161103390615c68565b63ffffffff818116600090815260d760205260408082206003810154600160a81b90049093168252812060cb5490916201000090910460ff16905b600583015461ffff82161015611ef857600483015461ffff8216108015611cec57508463ffffffff16836004018261ffff1681548110611cc657611cc6615c94565b6000918252602090912060088204015460079091166004026101000a900463ffffffff16145b15611dc757600483018054611d0390600190615baa565b81548110611d1357611d13615c94565b90600052602060002090600891828204019190066004029054906101000a900463ffffffff16836004018261ffff1681548110611d5257611d52615c94565b90600052602060002090600891828204019190066004026101000a81548163ffffffff021916908363ffffffff16021790555082600401805480611d9857611d98615caa565b600082815260209020600860001990920191820401805463ffffffff600460078516026101000a021916905590555b8463ffffffff16836005018261ffff1681548110611de757611de7615c94565b6000918252602090912060088204015460079091166004026101000a900463ffffffff1603611ee657600583018054611e2290600190615baa565b81548110611e3257611e32615c94565b90600052602060002090600891828204019190066004029054906101000a900463ffffffff16836005018261ffff1681548110611e7157611e71615c94565b90600052602060002090600891828204019190066004026101000a81548163ffffffff021916908363ffffffff16021790555082600501805480611eb757611eb7615caa565b600082815260209020600860001990920191820401805463ffffffff600460078516026101000a021916905590555b80611ef081615cc0565b915050611c84565b5060038301805463ffffffff60a81b1916600160a81b63ffffffff88160217905560005b8160ff168160ff1610156120705763ffffffff808716600090815260d76020526040812080549092169003611f515750612070565b8160ff16600003611f9a5760048181018054600181018255600091825260209091206008820401805460079092169092026101000a63ffffffff81810219909216918916021790555b60058101805460018082018355600092835260209092206008820401805460079092166004026101000a63ffffffff81810219909316928a16029190911790556006820190611fea908490615ce1565b81546001810183556000928352602083206008820401805463ffffffff60079093166004026101000a8381021990911660ff9490941602929092179091558254604051908216928a8316928a16917f3ec54e926fe5dd86406fe57832ff318517aed2a5cfbeacfb90a5e9489483ae4b9190a493508061206881615cfa565b915050611f1c565b505050505050565b60c954604051630935e01b60e21b81523360048201526001600160a01b03909116906324d7806c90602401602060405180830381865afa1580156120c0573d6000803e3d6000fd5b505050506040513d601f19601f820116820180604052508101906120e49190615b21565b6121005760405162461bcd60e51b815260040161103390615c68565b63ffffffff8216600090815260d760205260409020611b098183613e3d565b60c954604051630935e01b60e21b81523360048201526001600160a01b03909116906324d7806c90602401602060405180830381865afa158015612167573d6000803e3d6000fd5b505050506040513d601f19601f8201168201806040525081019061218b9190615b21565b6121a75760405162461bcd60e51b815260040161103390615c68565b60005b61ffff81168411156123a15761223b60d7600087878561ffff168181106121d3576121d3615c94565b90506020020160208101906121e8919061533c565b63ffffffff16815260208101919091526040016000206003015461010090046001600160a01b0316868661ffff851681811061222657612226615c94565b9050602002016020810190610814919061533c565b82828261ffff1681811061225157612251615c94565b905060200201602081019061226691906156c7565b60d7600087878561ffff1681811061228057612280615c94565b9050602002016020810190612295919061533c565b63ffffffff1663ffffffff16815260200190815260200160002060030160016101000a8154816001600160a01b0302191690836001600160a01b0316021790555060d6600084848461ffff168181106122f0576122f0615c94565b905060200201602081019061230591906156c7565b6001600160a01b03166001600160a01b0316815260200190815260200160002060010185858361ffff1681811061233e5761233e615c94565b9050602002016020810190612353919061533c565b8154600181018355600092835260209092206008830401805460079093166004026101000a63ffffffff8181021990941692909316929092021790558061239981615cc0565b9150506121aa565b5050505050565b6123b0613a0f565b6123ba6000613ec7565b565b60ca81815481106123cc57600080fd5b9060005260206000209060109182820401919006600202915054906101000a900461ffff1681565b61244f604051806101400160405280600060ff16815260200160008152602001600081526020016000815260200160608152602001600081526020016000815260200160008152602001600015158152602001606081525090565b60ff808316600090815260d8602090815260409182902082516101408101845281549094168452600181015491840191909152600281015491830191909152600381015460608301526004810180546080840191906124ad90615ad9565b80601f01602080910402602001604051908101604052809291908181526020018280546124d990615ad9565b80156125265780601f106124fb57610100808354040283529160200191612526565b820191906000526020600020905b81548152906001019060200180831161250957829003601f168201915b505050505081526020016005820154815260200160068201548152602001600782015481526020016008820160009054906101000a900460ff16151515158152602001600982018054806020026020016040519081016040528092919081815260200182805480156125e357602002820191906000526020600020906000905b82829054906101000a900463ffffffff1663ffffffff16815260200190600401906020826003010492830192600103820291508084116125a65790505b5050505050815250509050919050565b60c954604051630935e01b60e21b81523360048201526001600160a01b03909116906324d7806c90602401602060405180830381865afa15801561263b573d6000803e3d6000fd5b505050506040513d601f19601f8201168201806040525081019061265f9190615b21565b61267b5760405162461bcd60e51b815260040161103390615c68565b60cf546000906126929063ffffffff166001615d19565b6001600160a01b038916600090815260d66020908152604080832063ffffffff8516845260d79092529091209192509042612718828c868d6126dc8e670de0b6b3a7640000615b54565b6126ee8f670de0b6b3a7640000615b54565b6126f9906003615b54565b8e15612705578e612707565b875b60cb5462010000900460ff16613f19565b60d55460ff16156128a25760c954604080516344846f9d60e11b815290516000926001600160a01b031691638908df3a9160048083019260209291908290030181865afa15801561276d573d6000803e3d6000fd5b505050506040513d601f19601f820116820180604052508101906127919190615b8d565b6001600160a01b031663d275f14e866127b28d670de0b6b3a7640000615b54565b8b156127be578b6127c0565b855b8b156127cc578b6127ce565b865b6127db8c62015180615b54565b6040516001600160e01b031960e088901b16815263ffffffff959095166004860152602485019390935260448401919091526064830152608482015260a4016020604051808303816000875af1158015612839573d6000803e3d6000fd5b505050506040513d601f19601f8201168201806040525081019061285d9190615d3d565b601884018054600181018255600091825260209091206008820401805460079092166004026101000a63ffffffff818102199093169390921691909102919091179055505b6001838101805480830182556000918252602082206008820401805460079092166004026101000a63ffffffff8181021990931689841691909102179055855460ff1916909217855560cf805490921691906128fd83615d5a565b91906101000a81548163ffffffff021916908363ffffffff160217905550505050505050505050505050565b600054610100900460ff16158080156129495750600054600160ff909116105b806129635750303b158015612963575060005460ff166001145b6129c65760405162461bcd60e51b815260206004820152602e60248201527f496e697469616c697a61626c653a20636f6e747261637420697320616c72656160448201526d191e481a5b9a5d1a585b1a5e995960921b6064820152608401611033565b6000805460ff1916600117905580156129e9576000805461ff0019166101001790555b60c980546001600160a01b031916730b8bf5feb9fca57d9c5d27185ddf3017e99a2d3617905560cb805461ffff19166103e8179055604080516103a08101825260648152604660208201526032918101829052606081018290526080810182905260a0810182905260c0810182905260e08101829052610100810182905261012081018290526101408101829052610160810182905261018081018290526101a081018290526101c081018290526101e08101829052610200810182905261022081018290526102408101919091526014610260820181905261028082018190526102a082018190526102c082018190526102e082018190526103008201819052610320820181905261034082018190526103608201819052610380820152612b169060ca90601d6150df565b5060cb805462ff000019166232000017905568056bc75e2d6310000060cc5560cf8054660200000000000066ff00ff000000001990911617905560d5805462278d0060d25562ffffff191662140101179055612b706142be565b612b786142ed565b80156113cc576000805461ff0019169055604051600181527f7f26b83ff96e1f2b6a682f133852f6798a09c465da95921460cefb3847402498906020015b60405180910390a150565b60c954604051630935e01b60e21b81523360048201526001600160a01b03909116906324d7806c90602401602060405180830381865afa158015612c09573d6000803e3d6000fd5b505050506040513d601f19601f82011682018060405250810190612c2d9190615b21565b612c495760405162461bcd60e51b815260040161103390615c68565b60005b61ffff81168411156123a15782828261ffff16818110612c6e57612c6e615c94565b9050602002016020810190612c839190615d73565b60d6600087878561ffff16818110612c9d57612c9d615c94565b9050602002016020810190612cb291906156c7565b6001600160a01b031681526020810191909152604001600020805460ff191691151591909117905580612ce481615cc0565b915050612c4c565b60c954604051630935e01b60e21b81523360048201526001600160a01b03909116906324d7806c90602401602060405180830381865afa158015612d34573d6000803e3d6000fd5b505050506040513d601f19601f82011682018060405250810190612d589190615b21565b612d745760405162461bcd60e51b815260040161103390615c68565b60005b61ffff81168411156123a15782828261ffff16818110612d9957612d99615c94565b9050602002016020810190612dae9190615d73565b60d7600087878561ffff16818110612dc857612dc8615c94565b9050602002016020810190612ddd919061533c565b63ffffffff1681526020810191909152604001600020601c01805491151563010000000263ff0000001990921691909117905580612e1a81615cc0565b915050612d77565b346000612e2e82614314565b905060cc54811015612e825760405162461bcd60e51b815260206004820152601f60248201527f56616c7565206c657373207468656e206d696e436f6e747269627574696f6e006044820152606401611033565b63ffffffff8316600090815260d7602052604081203391429190612ea7856003615b54565b82601201548360140154612ebb9190615baa565b612ec59190615bbd565b90506000600383601401546002612edc9190615b54565b612ee69190615b6b565b836012015410612ef7576000612f17565b600383601201548460140154612f0d9190615baa565b612f179190615b6b565b9050612f3c83868a60008a878a60cb60029054906101000a900460ff1660ff16613f19565b60d55460ff16156130985760c954604080516344846f9d60e11b815290516000926001600160a01b031691638908df3a9160048083019260209291908290030181865afa158015612f91573d6000803e3d6000fd5b505050506040513d601f19601f82011682018060405250810190612fb59190615b8d565b6001600160a01b031663d275f14e8a612fce858b615bbd565b6040516001600160e01b031960e085901b16815263ffffffff9290921660048301526024820152604481018890526064810188905263020f5800608482015260a4016020604051808303816000875af115801561302f573d6000803e3d6000fd5b505050506040513d601f19601f820116820180604052508101906130539190615d3d565b601885018054600181018255600091825260209091206008820401805460079092166004026101000a63ffffffff818102199093169390921691909102919091179055505b5050505050505050565b6130aa613a0f565b60cb805461ffff191661ffff92909216919091179055565b3460006130ce82614314565b905060cc548110156131225760405162461bcd60e51b815260206004820152601f60248201527f56616c7565206c657373207468656e206d696e436f6e747269627574696f6e006044820152606401611033565b60cf543390429060009061313d9063ffffffff166001615d19565b6001600160a01b038416600090815260d66020908152604080832063ffffffff8516845260d7909252909120919250906131938186858b8a613180816003615b54565b60cb548b9062010000900460ff16613f19565b60d55460ff16156132e25760c954604080516344846f9d60e11b815290516000926001600160a01b031691638908df3a9160048083019260209291908290030181865afa1580156131e8573d6000803e3d6000fd5b505050506040513d601f19601f8201168201806040525081019061320c9190615b8d565b60405163693af8a760e11b815263ffffffff8616600482015260248101899052604481018790526064810187905263020f580060848201526001600160a01b03919091169063d275f14e9060a4016020604051808303816000875af1158015613279573d6000803e3d6000fd5b505050506040513d601f19601f8201168201806040525081019061329d9190615d3d565b601883018054600181018255600091825260209091206008820401805460079092166004026101000a63ffffffff818102199093169390921691909102919091179055505b6001828101805480830182556000918252602082206008820401805460079092166004026101000a63ffffffff8181021990931688841691909102179055845460ff1916909217845560cf8054909216919061333d83615d5a565b91906101000a81548163ffffffff021916908363ffffffff160217905550505050505050505050565b61336e613a0f565b611b0960ca8383615187565b60c954604051630935e01b60e21b81523360048201526001600160a01b03909116906324d7806c90602401602060405180830381865afa1580156133c2573d6000803e3d6000fd5b505050506040513d601f19601f820116820180604052508101906133e69190615b21565b6134025760405162461bcd60e51b815260040161103390615c68565b6001600160a01b038216600090815260d66020908152604080832060018101805483518186028101860190945280845291949390919083018282801561349357602002820191906000526020600020906000905b82829054906101000a900463ffffffff1663ffffffff16815260200190600401906020826003010492830192600103820291508084116134565790505b5050505050905060005b81518161ffff1610156123a1578363ffffffff16828261ffff16815181106134c7576134c7615c94565b602002602001015163ffffffff16036135b0576001808401805490916134ec91615baa565b815481106134fc576134fc615c94565b90600052602060002090600891828204019190066004029054906101000a900463ffffffff16836001018261ffff168154811061353b5761353b615c94565b90600052602060002090600891828204019190066004026101000a81548163ffffffff021916908363ffffffff1602179055508260010180548061358157613581615caa565b600082815260209020600860001990920191820401805463ffffffff600460078516026101000a021916905590555b806135ba81615cc0565b91505061349d565b6135ca613a0f565b6001600160a01b03811661362f5760405162461bcd60e51b815260206004820152602660248201527f4f776e61626c653a206e6577206f776e657220697320746865207a65726f206160448201526564647265737360d01b6064820152608401611033565b6113cc81613ec7565b61365e604051806060016040528060001515815260200160608152602001606081525090565b6001600160a01b038216600090815260d660209081526040918290208251606081018452815460ff16151581526001820180548551818602810186019096528086529194929385810193929083018282801561370557602002820191906000526020600020906000905b82829054906101000a900463ffffffff1663ffffffff16815260200190600401906020826003010492830192600103820291508084116136c85790505b5050505050815260200160028201805461371e90615ad9565b80601f016020809104026020016040519081016040528092919081815260200182805461374a90615ad9565b80156125e35780601f1061376c576101008083540402835291602001916125e3565b820191906000526020600020905b81548152906001019060200180831161377a57505050919092525091949350505050565b60008060c960009054906101000a90046001600160a01b03166001600160a01b0316632913497b6040518163ffffffff1660e01b8152600401602060405180830381865afa1580156137f4573d6000803e3d6000fd5b505050506040513d601f19601f820116820180604052508101906138189190615b8d565b6001600160a01b031663e1aa60366040518163ffffffff1660e01b8152600401602060405180830381865afa158015613855573d6000803e3d6000fd5b505050506040513d601f19601f820116820180604052508101906138799190615d90565b61388b84670de0b6b3a7640000615b54565b6138959190615b6b565b9392505050565b6113cc613a0f565b7f4910fdfa16fed3260ed0e7147f7cc6da11a60208b5b9406d12a635614ffd91435460ff16156138d757611b0983614402565b826001600160a01b03166352d1902d6040518163ffffffff1660e01b8152600401602060405180830381865afa925050508015613931575060408051601f3d908101601f1916820190925261392e91810190615d90565b60015b6139945760405162461bcd60e51b815260206004820152602e60248201527f45524331393637557067726164653a206e657720696d706c656d656e7461746960448201526d6f6e206973206e6f74205555505360901b6064820152608401611033565b600080516020615e248339815191528114613a035760405162461bcd60e51b815260206004820152602960248201527f45524331393637557067726164653a20756e737570706f727465642070726f786044820152681a58589b195555525160ba1b6064820152608401611033565b50611b0983838361449e565b6033546001600160a01b031633146123ba5760405162461bcd60e51b815260206004820181905260248201527f4f776e61626c653a2063616c6c6572206973206e6f7420746865206f776e65726044820152606401611033565b600060ca805480602002602001604051908101604052809291908181526020018280548015613adf57602002820191906000526020600020906000905b82829054906101000a900461ffff1661ffff1681526020019060020190602082600101049283019260010382029150808411613aa65790505b5050835163ffffffff8716600090815260d7602052604081209596509094935091508190505b8360ff168160ff161015613e1d57600383015463ffffffff600160a81b9091048116600081815260d760205260408120805492939092169003613bb0576040516f2932b0b1b432b2103a379034b210181760811b81526010015b604051908190039020613b73846001615ce1565b60ff168363ffffffff167f915ed47901013ad29e90ede828f72888f54bd58cea141b0c6967498165382eb560405160405180910390a45050613e1d565b600381015463ffffffff808416600160a81b9092041603613c03576040517f53656c6620526566657220696420776f6e27742067657420726566657272616c8152601760f91b6020820152602101613b5f565b613c0c816144c9565b15613c835760405172149959995c995c881a5cc8111a5cd8589b1959606a1b8152601301604051908190039020613c44846001615ce1565b60ff168363ffffffff167f915ed47901013ad29e90ede828f72888f54bd58cea141b0c6967498165382eb560405160405180910390a49350613e0b9050565b600481015415801590613cc6575060cf54600482015460ff80861692600192613cba92660100000000000090920490911690615b54565b613cc49190615baa565b115b15613d935760cb54875160009161ffff1690899060ff8716908110613ced57613ced615c94565b602002602001015161ffff168b613d049190615b54565b613d0e9190615b6b565b905080826017016000828254613d249190615bbd565b90915550613d3490508282613e3d565b613d3e8186615bbd565b94508063ffffffff808516908b167ff8fb9b5ab69a0208214661678427c6b48abf457f53605d1f559d17452f1eea11613d78886001615ce1565b60405160ff909116815260200160405180910390a450613e07565b6040517f446f776e6c696e65206c6576656c73206c696d697420726561636865640000008152601d01604051908190039020613dd0846001615ce1565b60ff168363ffffffff167f915ed47901013ad29e90ede828f72888f54bd58cea141b0c6967498165382eb560405160405180910390a45b9350505b80613e1581615cfa565b915050613b05565b508060ce6000828254613e309190615bbd565b9091555050505050505050565b8160140154818360120154613e529190615bbd565b11613e915780826012016000828254613e6b9190615bbd565b925050819055508082601b016000828254613e869190615bbd565b909155506114a79050565b81601201548260140154613ea59190615baa565b82601b016000828254613eb89190615bbd565b909155506114a790508261464a565b603380546001600160a01b038381166001600160a01b0319831681179093556040519116919082907f8be0079c531659141344cd1fd0a4f28419497f9722a3daafe3b4186f6b6457e090600090a35050565b875463ffffffff16600003613f3c57875463ffffffff191663ffffffff87161788555b601c88015460ff16613f5857601c8801805460ff191660011790555b600388015460ff16613fc05760d48054600180820183556000929092527f9780e26d96b1f2a9a18ef8fc72d589dbf03ef788137b64f43897e83a91e7feec0180546001600160a01b0319166001600160a01b038a1617905560038901805460ff191690911790555b600388015461010090046001600160a01b0316613ffa57600388018054610100600160a81b0319166101006001600160a01b038a16021790555b876002015460000361400e57600288018290555b60006012890155614020600384615b6b565b60138901556014880183905560078801805460018101825560009182526020822001859055600889018054869290614059908490615bbd565b90915550506015880182905560408051600081526020810191829052516140849160188b01916151f2565b50601c8801805463ff000000191663010000001790556003880154600160c81b900460ff166140de5760038801805460ff60c81b1963ffffffff8816600160a81b021664ffffffffff60a81b1990911617600160c81b1790555b60005b818160ff1610156142b357600389015463ffffffff600160a81b9091048116600081815260d7602052604081208054929390921690036141225750506142b3565b8260ff16600003614197578681600a0160008282546141419190615bbd565b909155505060038b0154600160c81b900460ff166141975760048181018054600181018255600091825260209091206008820401805460079092169092026101000a63ffffffff81810219909216918c16021790555b8681600c0160008282546141ab9190615bbd565b909155505063ffffffff88161561427f5760058101805460018082018355600092835260209092206008820401805460079092166004026101000a63ffffffff81810219909316928d1602919091179055600682019061420c908590615ce1565b81546001810183556000928352602083206008820401805463ffffffff60079093166004026101000a8381021990911660ff9490941602929092179091558254604051908216928b8316928d16917f3ec54e926fe5dd86406fe57832ff318517aed2a5cfbeacfb90a5e9489483ae4b9190a45b60cf54640100000000900460ff161561429d5761429d8188876146f2565b99508190506142ab81615cfa565b9150506140e1565b506130988483614e4c565b600054610100900460ff166142e55760405162461bcd60e51b815260040161103390615da9565b6123ba614e86565b600054610100900460ff166123ba5760405162461bcd60e51b815260040161103390615da9565b600080670de0b6b3a764000060c960009054906101000a90046001600160a01b03166001600160a01b0316632913497b6040518163ffffffff1660e01b8152600401602060405180830381865afa158015614373573d6000803e3d6000fd5b505050506040513d601f19601f820116820180604052508101906143979190615b8d565b6001600160a01b031663e1aa60366040518163ffffffff1660e01b8152600401602060405180830381865afa1580156143d4573d6000803e3d6000fd5b505050506040513d601f19601f820116820180604052508101906143f89190615d90565b61388b9085615b54565b6001600160a01b0381163b61446f5760405162461bcd60e51b815260206004820152602d60248201527f455243313936373a206e657720696d706c656d656e746174696f6e206973206e60448201526c1bdd08184818dbdb9d1c9858dd609a1b6064820152608401611033565b600080516020615e2483398151915280546001600160a01b0319166001600160a01b0392909216919091179055565b6144a783614eb6565b6000825111806144b45750805b15611b09576144c38383614ef6565b50505050565b601c81015460009060ff1615806144e857508160140154826012015410155b156144f557506001919050565b601882015415801590614635575060c960009054906101000a90046001600160a01b03166001600160a01b0316638908df3a6040518163ffffffff1660e01b8152600401602060405180830381865afa158015614556573d6000803e3d6000fd5b505050506040513d601f19601f8201168201806040525081019061457a9190615b8d565b6001600160a01b03166355332a8583601801600185601801805490506145a09190615baa565b815481106145b0576145b0615c94565b6000918252602090912060088204015460405160e084901b6001600160e01b0319168152600790921660049081026101000a90910463ffffffff1690820152602401602060405180830381865afa15801561460f573d6000803e3d6000fd5b505050506040513d601f19601f820116820180604052508101906146339190615b21565b155b1561464257506001919050565b506000919050565b601c8101805460ff1916905560408051600081526020810191829052516146759160188401916151f2565b5060006012820181905560138201819055601482015542601682015580546040805163ffffffff9092168252602082018190526011908201527013585e08131a5b5a5d0814995858da1959607a1b60608201527fce8ab8f2ac6a94861f9740fa1fed3e6d13a85dfd8a4833bf96f3a0055ba7fb6f90608001612bb6565b6010830154604080516104808101909152845463ffffffff16815260018501805460ff90931692614b989291879160208401919061472f90615ad9565b80601f016020809104026020016040519081016040528092919081815260200182805461475b90615ad9565b80156147a85780601f1061477d576101008083540402835291602001916147a8565b820191906000526020600020905b81548152906001019060200180831161478b57829003601f168201915b50505091835250506002820154602080830191909152600383015460ff80821615156040808601919091526001600160a01b03610100840416606086015263ffffffff600160a81b8404166080860152600160c81b90920416151560a084015260048401805482518185028101850190935280835260c090940193919290919083018282801561488357602002820191906000526020600020906000905b82829054906101000a900463ffffffff1663ffffffff16815260200190600401906020826003010492830192600103820291508084116148465790505b505050505081526020016005820180548060200260200160405190810160405280929190818152602001828054801561490757602002820191906000526020600020906000905b82829054906101000a900463ffffffff1663ffffffff16815260200190600401906020826003010492830192600103820291508084116148ca5790505b505050505081526020016006820180548060200260200160405190810160405280929190818152602001828054801561498b57602002820191906000526020600020906000905b82829054906101000a900463ffffffff1663ffffffff168152602001906004019060208260030104928301926001038202915080841161494e5790505b50505050508152602001600782018054806020026020016040519081016040528092919081815260200182805480156149e357602002820191906000526020600020905b8154815260200190600101908083116149cf575b505050918352505060088201546020808301919091526009830154604080840191909152600a8401546060840152600b8401546080840152600c84015460a0840152600d84015460c0840152600e84015460e0840152600f84015461010080850191909152601085015460ff81166101208601520463ffffffff166101408401526011840154610160840152601284015461018084015260138401546101a084015260148401546101c084015260158401546101e084015260168401546102008401526017840154610220840152601884018054825181850281018501909352808352610240909401939192909190830182828015614b2d57602002820191906000526020600020906000905b82829054906101000a900463ffffffff1663ffffffff1681526020019060040190602082600301049283019260010382029150808411614af05790505b505050918352505060198201546020820152601a8201546040820152601b8201546060820152601c9091015460ff8082161515608084015261010082048116151560a08401526201000082048116151560c0840152630100000090910416151560e090910152614fec565b60ff161115611b0957604080516104808101909152835463ffffffff168152600184018054614bd39291869160208401919061472f90615ad9565b60108401805460ff191660ff9283169081178255600090815260d860209081526040808320885460099182018054600181810183559187529486206008860401805463ffffffff60079097166004026101000a8781021990911696909316909202949094179055935490941682529290200154614c509190615baa565b60108401805464ffffffff0019811661010063ffffffff948516810291821793849055875460408051918716825291909404909416602084015260ff918216911617918101919091527f4d3af8f60ffd033b575846f894122f2342b39bc9a90da98d0a966128702b568d9060600160405180910390a1604080516104808101909152835463ffffffff16815260018401805460d892600092614cfc928891602084019161472f90615ad9565b60ff90811682526020820192909252604001600020600801541615614dbb57604080516104808101909152835463ffffffff16815260018401805460d892600092614d51928891602084019161472f90615ad9565b60ff1660ff1681526020019081526020016000206007015483600f0154614d789190615bbd565b811115614da7578083600f01819055508183600e016000828254614d9c9190615bbd565b90915550611b099050565b8183600e016000828254614d9c9190615bbd565b60cf54640100000000900460ff1615611b0957601083015460ff16600090815260d86020526040902060050154614df3908490613e3d565b601083015460ff908116600090815260d8602052604080822060058101549054875492519194169263ffffffff909216917fdeaf5b294f5016988108257045fc779d7d01e05a4ecdc4df70f62d5a799e053b91a4505050565b60d25460d154614e5c9190615bbd565b811115614e6b5760d15560d055565b8160d06000828254614e7d9190615bbd565b90915550505050565b600054610100900460ff16614ead5760405162461bcd60e51b815260040161103390615da9565b6123ba33613ec7565b614ebf81614402565b6040516001600160a01b038216907fbc7cd75a20ee27fd9adebab32041f755214dbc6bffa90cc0225b39da2e5c2d3b90600090a250565b60606001600160a01b0383163b614f5e5760405162461bcd60e51b815260206004820152602660248201527f416464726573733a2064656c65676174652063616c6c20746f206e6f6e2d636f6044820152651b9d1c9858dd60d21b6064820152608401611033565b600080846001600160a01b031684604051614f799190615df4565b600060405180830381855af49150503d8060008114614fb4576040519150601f19603f3d011682016040523d82523d6000602084013e614fb9565b606091505b5091509150614fe18282604051806060016040528060278152602001615e44602791396150a1565b925050505b92915050565b60d5546000906301000000900460ff16815b8160ff168160ff16101561509a5760ff8116600090815260d8602052604090206001015461016085015110801590615050575060ff8116600090815260d860205260409020600201546101a085015110155b8015615076575060ff8116600090815260d860205260409020600301546101e085015110155b1561508357809250615088565b61509a565b8061509281615cfa565b915050614ffe565b5050919050565b606083156150b0575081613895565b61389583838151156150c55781518083602001fd5b8060405162461bcd60e51b81526004016110339190615e10565b82805482825590600052602060002090600f016010900481019282156151775791602002820160005b8382111561514757835183826101000a81548161ffff021916908360ff1602179055509260200192600201602081600101049283019260010302615108565b80156151755782816101000a81549061ffff0219169055600201602081600101049283019260010302615147565b505b5061518392915061528f565b5090565b82805482825590600052602060002090600f016010900481019282156151775791602002820160005b8382111561514757833560ff1683826101000a81548161ffff021916908360ff16021790555092602001926002016020816001010492830192600103026151b0565b828054828255906000526020600020906007016008900481019282156151775791602002820160005b8382111561525f57835183826101000a81548163ffffffff021916908363ffffffff160217905550926020019260040160208160030104928301926001030261521b565b80156151755782816101000a81549063ffffffff021916905560040160208160030104928301926001030261525f565b5b808211156151835760008155600101615290565b6000602082840312156152b657600080fd5b813560ff8116811461389557600080fd5b6020808252825182820181905260009190848201906040850190845b8181101561530557835163ffffffff16835292840192918401916001016152e3565b50909695505050505050565b60006020828403121561532357600080fd5b5035919050565b63ffffffff811681146113cc57600080fd5b60006020828403121561534e57600080fd5b81356138958161532a565b60005b8381101561537457818101518382015260200161535c565b50506000910152565b60008151808452615395816020860160208601615359565b601f01601f19169290920160200192915050565b600081518084526020808501945080840160005b838110156153df57815163ffffffff16875295820195908201906001016153bd565b509495945050505050565b600081518084526020808501945080840160005b838110156153df578151875295820195908201906001016153fe565b6020815261543160208201835163ffffffff169052565b6000602083015161048080604085015261544f6104a085018361537d565b915060408501516060850152606085015161546e608086018215159052565b5060808501516001600160a01b03811660a08601525060a085015163ffffffff811660c08601525060c085015180151560e08601525060e0850151601f196101008187860301818801526154c285846153a9565b9450808801519250506101208187860301818801526154e185846153a9565b94508088015192505061014081878603018188015261550085846153a9565b94508088015192505061016081878603018188015261551f85846153ea565b90880151610180888101919091528801516101a0808901919091528801516101c0808901919091528801516101e0808901919091528801516102008089019190915288015161022080890191909152880151610240808901919091528801516102608089019190915288015190945091506102806155a18188018460ff169052565b87015191506102a06155ba8782018463ffffffff169052565b8701516102c0878101919091528701516102e080880191909152870151610300808801919091528701516103208088019190915287015161034080880191909152870151610360808801919091528701516103808088019190915287015186850382016103a08089019190915290925061563485846153a9565b908801516103c0888101919091528801516103e08089019190915288015161040080890191909152880151909450915061042090506156768187018315159052565b860151905061044061568b8682018315159052565b86015190506104606156a08682018315159052565b90950151151593019290925250919050565b6001600160a01b03811681146113cc57600080fd5b6000602082840312156156d957600080fd5b8135613895816156b2565b600080604083850312156156f757600080fd5b8235915060208301356157098161532a565b809150509250929050565b634e487b7160e01b600052604160045260246000fd5b6000806040838503121561573d57600080fd5b8235615748816156b2565b9150602083013567ffffffffffffffff8082111561576557600080fd5b818501915085601f83011261577957600080fd5b81358181111561578b5761578b615714565b604051601f8201601f19908116603f011681019083821181831017156157b3576157b3615714565b816040528281528860208487010111156157cc57600080fd5b8260208601602083013760006020848301015280955050505050509250929050565b6000806040838503121561580157600080fd5b823561580c8161532a565b946020939093013593505050565b6000806040838503121561582d57600080fd5b82356158388161532a565b915060208301356157098161532a565b60008083601f84011261585a57600080fd5b50813567ffffffffffffffff81111561587257600080fd5b6020830191508360208260051b850101111561588d57600080fd5b9250929050565b600080600080604085870312156158aa57600080fd5b843567ffffffffffffffff808211156158c257600080fd5b6158ce88838901615848565b909650945060208701359150808211156158e757600080fd5b506158f487828801615848565b95989497509550505050565b6020815261591460208201835160ff169052565b602082015160408201526040820151606082015260608201516080820152600060808301516101408060a085015261595061016085018361537d565b915060a085015160c085015260c085015160e085015260e085015161010081818701528087015191505061012061598a8187018315159052565b860151858403601f19018387015290506159a483826153a9565b9695505050505050565b600080600080600080600060e0888a0312156159c957600080fd5b87356159d4816156b2565b965060208801356159e48161532a565b96999698505050506040850135946060810135946080820135945060a0820135935060c0909101359150565b600060208284031215615a2257600080fd5b813561ffff8116811461389557600080fd5b60008060208385031215615a4757600080fd5b823567ffffffffffffffff811115615a5e57600080fd5b615a6a85828601615848565b90969095509350505050565b60008060408385031215615a8957600080fd5b8235615838816156b2565b602081528151151560208201526000602083015160606040840152615abc60808401826153a9565b90506040840151601f19848303016060850152614fe1828261537d565b600181811c90821680615aed57607f821691505b602082108103615b0d57634e487b7160e01b600052602260045260246000fd5b50919050565b80151581146113cc57600080fd5b600060208284031215615b3357600080fd5b815161389581615b13565b634e487b7160e01b600052601160045260246000fd5b8082028115828204841417614fe657614fe6615b3e565b600082615b8857634e487b7160e01b600052601260045260246000fd5b500490565b600060208284031215615b9f57600080fd5b8151613895816156b2565b81810381811115614fe657614fe6615b3e565b80820180821115614fe657614fe6615b3e565b6020808252602c908201527f46756e6374696f6e206d7573742062652063616c6c6564207468726f7567682060408201526b19195b1959d85d1958d85b1b60a21b606082015260800190565b6020808252602c908201527f46756e6374696f6e206d7573742062652063616c6c6564207468726f7567682060408201526b6163746976652070726f787960a01b606082015260800190565b6020808252601290820152712cb7ba9030b932903737ba1030b236b4b71760711b604082015260600190565b634e487b7160e01b600052603260045260246000fd5b634e487b7160e01b600052603160045260246000fd5b600061ffff808316818103615cd757615cd7615b3e565b6001019392505050565b60ff8181168382160190811115614fe657614fe6615b3e565b600060ff821660ff8103615d1057615d10615b3e565b60010192915050565b63ffffffff818116838216019080821115615d3657615d36615b3e565b5092915050565b600060208284031215615d4f57600080fd5b81516138958161532a565b600063ffffffff808316818103615cd757615cd7615b3e565b600060208284031215615d8557600080fd5b813561389581615b13565b600060208284031215615da257600080fd5b5051919050565b6020808252602b908201527f496e697469616c697a61626c653a20636f6e7472616374206973206e6f74206960408201526a6e697469616c697a696e6760a81b606082015260800190565b60008251615e06818460208701615359565b9190910192915050565b602081526000613895602083018461537d56fe360894a13ba1a3210667c828492db98dca3e2076cc3735a920a3ca505d382bbc416464726573733a206c6f772d6c6576656c2064656c65676174652063616c6c206661696c6564a2646970667358221220a9e1eaef8545de66efbcc03d396e327bd2d6fa0fdf96baec8d9daf2677a5ea5c64736f6c63430008120033",
  "linkReferences": {},
  "deployedLinkReferences": {}
}