{
  "_format": "hh-sol-artifact-1",
  "contractName": "ReferralV4Upgradeable",
  "sourceName": "contracts/ReferralV4Upgradeable.sol",
  "abi": [
    {
      "anonymous": false,
      "inputs": [
        {
          "indexed": false,
          "internalType": "uint32",
          "name": "id",
          "type": "uint32"
        }
      ],
      "name": "ActivatedId",
      "type": "event"
    },
    {
      "anonymous": false,
      "inputs": [
        {
          "indexed": false,
          "internalType": "uint32",
          "name": "id",
          "type": "uint32"
        },
        {
          "indexed": false,
          "internalType": "uint32",
          "name": "index",
          "type": "uint32"
        },
        {
          "indexed": false,
          "internalType": "uint8",
          "name": "rank",
          "type": "uint8"
        }
      ],
      "name": "AddedInRoyaltyClubList",
      "type": "event"
    },
    {
      "anonymous": false,
      "inputs": [
        {
          "indexed": false,
          "internalType": "address",
          "name": "previousAdmin",
          "type": "address"
        },
        {
          "indexed": false,
          "internalType": "address",
          "name": "newAdmin",
          "type": "address"
        }
      ],
      "name": "AdminChanged",
      "type": "event"
    },
    {
      "anonymous": false,
      "inputs": [
        {
          "indexed": true,
          "internalType": "address",
          "name": "beacon",
          "type": "address"
        }
      ],
      "name": "BeaconUpgraded",
      "type": "event"
    },
    {
      "anonymous": false,
      "inputs": [
        {
          "indexed": false,
          "internalType": "uint32",
          "name": "id",
          "type": "uint32"
        },
        {
          "indexed": false,
          "internalType": "string",
          "name": "reason",
          "type": "string"
        }
      ],
      "name": "DeactivatedId",
      "type": "event"
    },
    {
      "anonymous": false,
      "inputs": [
        {
          "indexed": false,
          "internalType": "uint8",
          "name": "version",
          "type": "uint8"
        }
      ],
      "name": "Initialized",
      "type": "event"
    },
    {
      "anonymous": false,
      "inputs": [
        {
          "indexed": false,
          "internalType": "uint32",
          "name": "id",
          "type": "uint32"
        },
        {
          "indexed": false,
          "internalType": "address",
          "name": "owner",
          "type": "address"
        }
      ],
      "name": "OwnerChangedId",
      "type": "event"
    },
    {
      "anonymous": false,
      "inputs": [
        {
          "indexed": true,
          "internalType": "address",
          "name": "previousOwner",
          "type": "address"
        },
        {
          "indexed": true,
          "internalType": "address",
          "name": "newOwner",
          "type": "address"
        }
      ],
      "name": "OwnershipTransferred",
      "type": "event"
    },
    {
      "anonymous": false,
      "inputs": [
        {
          "indexed": false,
          "internalType": "uint8",
          "name": "packageId",
          "type": "uint8"
        }
      ],
      "name": "PackageAdded",
      "type": "event"
    },
    {
      "anonymous": false,
      "inputs": [
        {
          "indexed": false,
          "internalType": "uint8",
          "name": "packageId",
          "type": "uint8"
        }
      ],
      "name": "PackageRemoved",
      "type": "event"
    },
    {
      "anonymous": false,
      "inputs": [
        {
          "indexed": false,
          "internalType": "uint8",
          "name": "packageId",
          "type": "uint8"
        }
      ],
      "name": "PackageUpdated",
      "type": "event"
    },
    {
      "anonymous": false,
      "inputs": [
        {
          "indexed": true,
          "internalType": "uint32",
          "name": "refererId",
          "type": "uint32"
        },
        {
          "indexed": true,
          "internalType": "uint8",
          "name": "level",
          "type": "uint8"
        },
        {
          "indexed": true,
          "internalType": "string",
          "name": "reason",
          "type": "string"
        }
      ],
      "name": "ReferralNotPaid",
      "type": "event"
    },
    {
      "anonymous": false,
      "inputs": [
        {
          "indexed": true,
          "internalType": "uint32",
          "name": "refereeId",
          "type": "uint32"
        },
        {
          "indexed": true,
          "internalType": "uint32",
          "name": "referrerId",
          "type": "uint32"
        },
        {
          "indexed": true,
          "internalType": "uint256",
          "name": "amount",
          "type": "uint256"
        },
        {
          "indexed": false,
          "internalType": "uint8",
          "name": "level",
          "type": "uint8"
        }
      ],
      "name": "ReferralRewardPaid",
      "type": "event"
    },
    {
      "anonymous": false,
      "inputs": [
        {
          "indexed": true,
          "internalType": "address",
          "name": "refereeId",
          "type": "address"
        },
        {
          "indexed": true,
          "internalType": "address",
          "name": "referrerId",
          "type": "address"
        },
        {
          "indexed": true,
          "internalType": "string",
          "name": "reason",
          "type": "string"
        }
      ],
      "name": "RegisterRefererFailed",
      "type": "event"
    },
    {
      "anonymous": false,
      "inputs": [
        {
          "indexed": true,
          "internalType": "uint32",
          "name": "id",
          "type": "uint32"
        },
        {
          "indexed": true,
          "internalType": "uint32",
          "name": "refererId",
          "type": "uint32"
        }
      ],
      "name": "RegisteredReferer",
      "type": "event"
    },
    {
      "anonymous": false,
      "inputs": [
        {
          "indexed": true,
          "internalType": "uint32",
          "name": "refereeId",
          "type": "uint32"
        },
        {
          "indexed": true,
          "internalType": "uint32",
          "name": "referrerId",
          "type": "uint32"
        },
        {
          "indexed": true,
          "internalType": "uint32",
          "name": "parentAccountId",
          "type": "uint32"
        }
      ],
      "name": "RegisteredTeamAddress",
      "type": "event"
    },
    {
      "anonymous": false,
      "inputs": [
        {
          "indexed": true,
          "internalType": "uint32",
          "name": "userid",
          "type": "uint32"
        },
        {
          "indexed": true,
          "internalType": "uint8",
          "name": "packageId",
          "type": "uint8"
        },
        {
          "indexed": true,
          "internalType": "uint256",
          "name": "amount",
          "type": "uint256"
        }
      ],
      "name": "RoyaltyClubBonusPaid",
      "type": "event"
    },
    {
      "anonymous": false,
      "inputs": [
        {
          "indexed": true,
          "internalType": "address",
          "name": "implementation",
          "type": "address"
        }
      ],
      "name": "Upgraded",
      "type": "event"
    },
    {
      "inputs": [
        {
          "internalType": "uint32",
          "name": "_refererId",
          "type": "uint32"
        }
      ],
      "name": "activateId",
      "outputs": [],
      "stateMutability": "payable",
      "type": "function"
    },
    {
      "inputs": [],
      "name": "companyTurnoverTimeLimit",
      "outputs": [
        {
          "internalType": "uint256",
          "name": "",
          "type": "uint256"
        }
      ],
      "stateMutability": "view",
      "type": "function"
    },
    {
      "inputs": [],
      "name": "companyTurnoverTimeStamp",
      "outputs": [
        {
          "internalType": "uint256",
          "name": "",
          "type": "uint256"
        }
      ],
      "stateMutability": "view",
      "type": "function"
    },
    {
      "inputs": [],
      "name": "companyTurnoverWithTimeLimit",
      "outputs": [
        {
          "internalType": "uint256",
          "name": "",
          "type": "uint256"
        }
      ],
      "stateMutability": "view",
      "type": "function"
    },
    {
      "inputs": [],
      "name": "decimals",
      "outputs": [
        {
          "internalType": "uint16",
          "name": "",
          "type": "uint16"
        }
      ],
      "stateMutability": "view",
      "type": "function"
    },
    {
      "inputs": [
        {
          "internalType": "uint256",
          "name": "",
          "type": "uint256"
        }
      ],
      "name": "disabledUsersList",
      "outputs": [
        {
          "internalType": "address",
          "name": "",
          "type": "address"
        }
      ],
      "stateMutability": "view",
      "type": "function"
    },
    {
      "inputs": [],
      "name": "futureScureWalletContribution",
      "outputs": [
        {
          "internalType": "uint8",
          "name": "",
          "type": "uint8"
        }
      ],
      "stateMutability": "view",
      "type": "function"
    },
    {
      "inputs": [
        {
          "internalType": "uint8",
          "name": "_packageId",
          "type": "uint8"
        }
      ],
      "name": "getAchieversList",
      "outputs": [
        {
          "internalType": "uint32[]",
          "name": "",
          "type": "uint32[]"
        }
      ],
      "stateMutability": "view",
      "type": "function"
    },
    {
      "inputs": [
        {
          "internalType": "uint32",
          "name": "_id",
          "type": "uint32"
        }
      ],
      "name": "getIdAccount",
      "outputs": [
        {
          "components": [
            {
              "internalType": "uint32",
              "name": "id",
              "type": "uint32"
            },
            {
              "internalType": "string",
              "name": "oldId",
              "type": "string"
            },
            {
              "internalType": "uint256",
              "name": "joiningTime",
              "type": "uint256"
            },
            {
              "internalType": "bool",
              "name": "isAddedToUserList",
              "type": "bool"
            },
            {
              "internalType": "address",
              "name": "owner",
              "type": "address"
            },
            {
              "internalType": "uint32",
              "name": "refererId",
              "type": "uint32"
            },
            {
              "internalType": "bool",
              "name": "hasUpline",
              "type": "bool"
            },
            {
              "internalType": "uint32[]",
              "name": "refereeIds",
              "type": "uint32[]"
            },
            {
              "internalType": "uint32[]",
              "name": "teamIds",
              "type": "uint32[]"
            },
            {
              "internalType": "uint32[]",
              "name": "teamLevel",
              "type": "uint32[]"
            },
            {
              "internalType": "uint256[]",
              "name": "selfBusinessArray",
              "type": "uint256[]"
            },
            {
              "internalType": "uint256",
              "name": "selfBusiness",
              "type": "uint256"
            },
            {
              "internalType": "uint256",
              "name": "selfBusinessOld",
              "type": "uint256"
            },
            {
              "internalType": "uint256",
              "name": "directBusiness",
              "type": "uint256"
            },
            {
              "internalType": "uint256",
              "name": "directBusinessOld",
              "type": "uint256"
            },
            {
              "internalType": "uint256",
              "name": "teamBusiness",
              "type": "uint256"
            },
            {
              "internalType": "uint256",
              "name": "teamBusinessOld",
              "type": "uint256"
            },
            {
              "internalType": "uint256",
              "name": "royaltyClubBusiness",
              "type": "uint256"
            },
            {
              "internalType": "uint256",
              "name": "timeStampRoyaltyClub",
              "type": "uint256"
            },
            {
              "internalType": "uint8",
              "name": "royaltyClubPackageId",
              "type": "uint8"
            },
            {
              "internalType": "uint32",
              "name": "royaltyClubListIndex",
              "type": "uint32"
            },
            {
              "internalType": "uint256",
              "name": "royaltyClubRewardPaid",
              "type": "uint256"
            },
            {
              "internalType": "uint256",
              "name": "topUpIncome",
              "type": "uint256"
            },
            {
              "internalType": "uint256",
              "name": "topUp",
              "type": "uint256"
            },
            {
              "internalType": "uint256",
              "name": "maxLimit",
              "type": "uint256"
            },
            {
              "internalType": "uint256",
              "name": "activationTime",
              "type": "uint256"
            },
            {
              "internalType": "uint256",
              "name": "deactivationTime",
              "type": "uint256"
            },
            {
              "internalType": "uint256",
              "name": "referralPaid",
              "type": "uint256"
            },
            {
              "internalType": "uint32[]",
              "name": "roiIds",
              "type": "uint32[]"
            },
            {
              "internalType": "uint256",
              "name": "roiPaid",
              "type": "uint256"
            },
            {
              "internalType": "uint256",
              "name": "roiClaimedTime",
              "type": "uint256"
            },
            {
              "internalType": "uint256",
              "name": "walletBalance",
              "type": "uint256"
            },
            {
              "internalType": "bool",
              "name": "isActive",
              "type": "bool"
            },
            {
              "internalType": "bool",
              "name": "isROIDisabled",
              "type": "bool"
            },
            {
              "internalType": "bool",
              "name": "isIdVisibilityDisabled",
              "type": "bool"
            },
            {
              "internalType": "bool",
              "name": "canWindraw",
              "type": "bool"
            }
          ],
          "internalType": "struct ReferralV4Upgradeable.StructId",
          "name": "",
          "type": "tuple"
        }
      ],
      "stateMutability": "view",
      "type": "function"
    },
    {
      "inputs": [
        {
          "internalType": "uint32",
          "name": "_id",
          "type": "uint32"
        }
      ],
      "name": "getIdLimits",
      "outputs": [
        {
          "internalType": "uint256",
          "name": "topUpIncome",
          "type": "uint256"
        },
        {
          "internalType": "uint256",
          "name": "topUp",
          "type": "uint256"
        },
        {
          "internalType": "uint256",
          "name": "maxLimit",
          "type": "uint256"
        }
      ],
      "stateMutability": "view",
      "type": "function"
    },
    {
      "inputs": [
        {
          "internalType": "uint32",
          "name": "_id",
          "type": "uint32"
        }
      ],
      "name": "getIdRoyaltyClubLevel",
      "outputs": [
        {
          "internalType": "uint256",
          "name": "",
          "type": "uint256"
        }
      ],
      "stateMutability": "view",
      "type": "function"
    },
    {
      "inputs": [],
      "name": "getMinContributionETH",
      "outputs": [
        {
          "internalType": "uint256",
          "name": "",
          "type": "uint256"
        }
      ],
      "stateMutability": "view",
      "type": "function"
    },
    {
      "inputs": [
        {
          "internalType": "uint8",
          "name": "_packageId",
          "type": "uint8"
        }
      ],
      "name": "getRoyaltyClubPackageInfo",
      "outputs": [
        {
          "components": [
            {
              "internalType": "uint8",
              "name": "packageId",
              "type": "uint8"
            },
            {
              "internalType": "uint256",
              "name": "selfBusiness",
              "type": "uint256"
            },
            {
              "internalType": "uint256",
              "name": "directBusiness",
              "type": "uint256"
            },
            {
              "internalType": "uint256",
              "name": "teamBusiness",
              "type": "uint256"
            },
            {
              "internalType": "string",
              "name": "rankName",
              "type": "string"
            },
            {
              "internalType": "uint256",
              "name": "reward",
              "type": "uint256"
            },
            {
              "internalType": "uint256",
              "name": "businessLimit",
              "type": "uint256"
            },
            {
              "internalType": "uint256",
              "name": "timeLimit",
              "type": "uint256"
            },
            {
              "internalType": "bool",
              "name": "isPayReccursive",
              "type": "bool"
            },
            {
              "internalType": "uint32[]",
              "name": "achieversList",
              "type": "uint32[]"
            }
          ],
          "internalType": "struct ReferralV4Upgradeable.StructPackages",
          "name": "",
          "type": "tuple"
        }
      ],
      "stateMutability": "view",
      "type": "function"
    },
    {
      "inputs": [
        {
          "internalType": "address",
          "name": "_address",
          "type": "address"
        }
      ],
      "name": "getUserAccount",
      "outputs": [
        {
          "components": [
            {
              "internalType": "bool",
              "name": "isActive",
              "type": "bool"
            },
            {
              "internalType": "uint32[]",
              "name": "accountIds",
              "type": "uint32[]"
            },
            {
              "internalType": "string",
              "name": "userName",
              "type": "string"
            }
          ],
          "internalType": "struct ReferralV4Upgradeable.StructAccount",
          "name": "",
          "type": "tuple"
        }
      ],
      "stateMutability": "view",
      "type": "function"
    },
    {
      "inputs": [
        {
          "internalType": "uint32",
          "name": "_id",
          "type": "uint32"
        }
      ],
      "name": "getUserUnlockCount",
      "outputs": [
        {
          "internalType": "uint256",
          "name": "",
          "type": "uint256"
        }
      ],
      "stateMutability": "view",
      "type": "function"
    },
    {
      "inputs": [
        {
          "internalType": "uint32",
          "name": "_id",
          "type": "uint32"
        },
        {
          "internalType": "uint256",
          "name": "_value",
          "type": "uint256"
        }
      ],
      "name": "increaseIdTopIncome",
      "outputs": [],
      "stateMutability": "nonpayable",
      "type": "function"
    },
    {
      "inputs": [],
      "name": "initialize",
      "outputs": [],
      "stateMutability": "nonpayable",
      "type": "function"
    },
    {
      "inputs": [],
      "name": "isActivateROI",
      "outputs": [
        {
          "internalType": "bool",
          "name": "",
          "type": "bool"
        }
      ],
      "stateMutability": "view",
      "type": "function"
    },
    {
      "inputs": [],
      "name": "isPayReferral",
      "outputs": [
        {
          "internalType": "bool",
          "name": "",
          "type": "bool"
        }
      ],
      "stateMutability": "view",
      "type": "function"
    },
    {
      "inputs": [],
      "name": "isPayRoyaltyClubBonus",
      "outputs": [
        {
          "internalType": "bool",
          "name": "",
          "type": "bool"
        }
      ],
      "stateMutability": "view",
      "type": "function"
    },
    {
      "inputs": [
        {
          "internalType": "uint256",
          "name": "",
          "type": "uint256"
        }
      ],
      "name": "levelRates",
      "outputs": [
        {
          "internalType": "uint16",
          "name": "",
          "type": "uint16"
        }
      ],
      "stateMutability": "view",
      "type": "function"
    },
    {
      "inputs": [],
      "name": "maxLevels",
      "outputs": [
        {
          "internalType": "uint8",
          "name": "",
          "type": "uint8"
        }
      ],
      "stateMutability": "view",
      "type": "function"
    },
    {
      "inputs": [],
      "name": "minContributionUSD",
      "outputs": [
        {
          "internalType": "uint256",
          "name": "",
          "type": "uint256"
        }
      ],
      "stateMutability": "view",
      "type": "function"
    },
    {
      "inputs": [],
      "name": "owner",
      "outputs": [
        {
          "internalType": "address",
          "name": "",
          "type": "address"
        }
      ],
      "stateMutability": "view",
      "type": "function"
    },
    {
      "inputs": [],
      "name": "packagesCount",
      "outputs": [
        {
          "internalType": "uint8",
          "name": "",
          "type": "uint8"
        }
      ],
      "stateMutability": "view",
      "type": "function"
    },
    {
      "inputs": [
        {
          "internalType": "uint256",
          "name": "_value",
          "type": "uint256"
        },
        {
          "internalType": "uint32",
          "name": "_id",
          "type": "uint32"
        }
      ],
      "name": "payReferralAdmin",
      "outputs": [],
      "stateMutability": "nonpayable",
      "type": "function"
    },
    {
      "inputs": [],
      "name": "proxiableUUID",
      "outputs": [
        {
          "internalType": "bytes32",
          "name": "",
          "type": "bytes32"
        }
      ],
      "stateMutability": "view",
      "type": "function"
    },
    {
      "inputs": [],
      "name": "renounceOwnership",
      "outputs": [],
      "stateMutability": "nonpayable",
      "type": "function"
    },
    {
      "inputs": [],
      "name": "royaltyClubPackageCount",
      "outputs": [
        {
          "internalType": "uint8",
          "name": "",
          "type": "uint8"
        }
      ],
      "stateMutability": "view",
      "type": "function"
    },
    {
      "inputs": [
        {
          "internalType": "address",
          "name": "_address",
          "type": "address"
        },
        {
          "internalType": "uint256",
          "name": "_value",
          "type": "uint256"
        }
      ],
      "name": "sendETHAdmin",
      "outputs": [],
      "stateMutability": "nonpayable",
      "type": "function"
    },
    {
      "inputs": [
        {
          "internalType": "uint16",
          "name": "_value",
          "type": "uint16"
        }
      ],
      "name": "setLevelDecimals",
      "outputs": [],
      "stateMutability": "nonpayable",
      "type": "function"
    },
    {
      "inputs": [
        {
          "internalType": "uint8[]",
          "name": "_value",
          "type": "uint8[]"
        }
      ],
      "name": "setLevelRates",
      "outputs": [],
      "stateMutability": "nonpayable",
      "type": "function"
    },
    {
      "inputs": [
        {
          "internalType": "uint8",
          "name": "_valueDecimals",
          "type": "uint8"
        }
      ],
      "name": "setMaxLevelsAdmin",
      "outputs": [],
      "stateMutability": "nonpayable",
      "type": "function"
    },
    {
      "inputs": [
        {
          "internalType": "uint256",
          "name": "_valueInUSD",
          "type": "uint256"
        }
      ],
      "name": "setMinContribution",
      "outputs": [],
      "stateMutability": "nonpayable",
      "type": "function"
    },
    {
      "inputs": [
        {
          "internalType": "uint8",
          "name": "packageId",
          "type": "uint8"
        },
        {
          "internalType": "uint256",
          "name": "selfBusiness",
          "type": "uint256"
        },
        {
          "internalType": "uint256",
          "name": "directBusiness",
          "type": "uint256"
        },
        {
          "internalType": "uint256",
          "name": "teamBusiness",
          "type": "uint256"
        },
        {
          "internalType": "string",
          "name": "rankName",
          "type": "string"
        },
        {
          "internalType": "uint256",
          "name": "reward",
          "type": "uint256"
        },
        {
          "internalType": "uint256",
          "name": "businessLimit",
          "type": "uint256"
        },
        {
          "internalType": "uint256",
          "name": "timeLimit",
          "type": "uint256"
        },
        {
          "internalType": "bool",
          "name": "isPayReccursive",
          "type": "bool"
        }
      ],
      "name": "setRoyaltyClubPackage",
      "outputs": [],
      "stateMutability": "nonpayable",
      "type": "function"
    },
    {
      "inputs": [
        {
          "internalType": "uint8",
          "name": "_valueDecimals",
          "type": "uint8"
        }
      ],
      "name": "setRoyaltyPackageCount",
      "outputs": [],
      "stateMutability": "nonpayable",
      "type": "function"
    },
    {
      "inputs": [
        {
          "internalType": "uint32",
          "name": "_id",
          "type": "uint32"
        }
      ],
      "name": "topUpId",
      "outputs": [],
      "stateMutability": "payable",
      "type": "function"
    },
    {
      "inputs": [],
      "name": "totalIds",
      "outputs": [
        {
          "internalType": "uint32",
          "name": "",
          "type": "uint32"
        }
      ],
      "stateMutability": "view",
      "type": "function"
    },
    {
      "inputs": [],
      "name": "totalReferralPaid",
      "outputs": [
        {
          "internalType": "uint256",
          "name": "",
          "type": "uint256"
        }
      ],
      "stateMutability": "view",
      "type": "function"
    },
    {
      "inputs": [],
      "name": "totalRoyaltyClubBonusPaid",
      "outputs": [
        {
          "internalType": "uint256",
          "name": "",
          "type": "uint256"
        }
      ],
      "stateMutability": "view",
      "type": "function"
    },
    {
      "inputs": [
        {
          "internalType": "address",
          "name": "newOwner",
          "type": "address"
        }
      ],
      "name": "transferOwnership",
      "outputs": [],
      "stateMutability": "nonpayable",
      "type": "function"
    },
    {
      "inputs": [
        {
          "internalType": "uint16",
          "name": "_from",
          "type": "uint16"
        },
        {
          "internalType": "uint16",
          "name": "_to",
          "type": "uint16"
        },
        {
          "internalType": "uint256[]",
          "name": "_selfBusiness",
          "type": "uint256[]"
        }
      ],
      "name": "updateIdBusiness",
      "outputs": [],
      "stateMutability": "nonpayable",
      "type": "function"
    },
    {
      "inputs": [
        {
          "internalType": "uint32",
          "name": "_id",
          "type": "uint32"
        },
        {
          "internalType": "uint256",
          "name": "_value",
          "type": "uint256"
        }
      ],
      "name": "updateIdWhenClaimROI",
      "outputs": [],
      "stateMutability": "nonpayable",
      "type": "function"
    },
    {
      "inputs": [
        {
          "internalType": "uint32",
          "name": "_value",
          "type": "uint32"
        }
      ],
      "name": "updateTotalIds",
      "outputs": [],
      "stateMutability": "nonpayable",
      "type": "function"
    },
    {
      "inputs": [
        {
          "internalType": "uint16",
          "name": "_from",
          "type": "uint16"
        },
        {
          "internalType": "uint16",
          "name": "_to",
          "type": "uint16"
        },
        {
          "internalType": "uint256[]",
          "name": "_totalIncome",
          "type": "uint256[]"
        }
      ],
      "name": "updateTotalIncome",
      "outputs": [],
      "stateMutability": "nonpayable",
      "type": "function"
    },
    {
      "inputs": [
        {
          "internalType": "address",
          "name": "newImplementation",
          "type": "address"
        }
      ],
      "name": "upgradeTo",
      "outputs": [],
      "stateMutability": "nonpayable",
      "type": "function"
    },
    {
      "inputs": [
        {
          "internalType": "address",
          "name": "newImplementation",
          "type": "address"
        },
        {
          "internalType": "bytes",
          "name": "data",
          "type": "bytes"
        }
      ],
      "name": "upgradeToAndCall",
      "outputs": [],
      "stateMutability": "payable",
      "type": "function"
    },
    {
      "inputs": [
        {
          "internalType": "uint256",
          "name": "",
          "type": "uint256"
        }
      ],
      "name": "users",
      "outputs": [
        {
          "internalType": "address",
          "name": "",
          "type": "address"
        }
      ],
      "stateMutability": "view",
      "type": "function"
    },
    {
      "inputs": [],
      "name": "withdrawETHAdmin",
      "outputs": [],
      "stateMutability": "nonpayable",
      "type": "function"
    },
    {
      "inputs": [
        {
          "internalType": "address",
          "name": "_tokenAddress",
          "type": "address"
        },
        {
          "internalType": "uint256",
          "name": "_value",
          "type": "uint256"
        }
      ],
      "name": "withdrawTokensAdmin",
      "outputs": [],
      "stateMutability": "nonpayable",
      "type": "function"
    },
    {
      "stateMutability": "payable",
      "type": "receive"
    }
  ],
  "bytecode": "0x60a06040523060805234801561001457600080fd5b50608051615efb6200004d60003960008181611074015281816110bd015281816117e40152818161182401526119ab0152615efb6000f3fe6080604052600436106102cd5760003560e01c80636e1efa2411610175578063987dd4a7116100dc578063bcb93f9b11610095578063f2fde38b1161006f578063f2fde38b146108b9578063f41bfeef146108d9578063fafc9597146108ef578063fb47e0161461091157600080fd5b8063bcb93f9b14610866578063cd21364d14610879578063e1c715ba1461089957600080fd5b8063987dd4a7146107b0578063a0b6105f146107d0578063a152b0f0146107f0578063a28a368614610803578063a43ae40814610826578063b47181d31461084657600080fd5b80637c5994861161012e5780637c599486146107215780638129fc1c14610737578063852ff2fd1461074c5780638af925dc146107625780638da5cb5b1461077c5780638f84de851461079a57600080fd5b80636e1efa24146106505780636f38e410146106705780637084431f14610690578063715018a6146106bf5780637879b5ef146106d45780637bdbf996146106f457600080fd5b8063390a5ba5116102345780634e6e93a3116101ed57806352d1902d116101c757806352d1902d146105db5780635979369a146105f05780636546663a146106105780636ccc10ae1461063057600080fd5b80634e6e93a31461056d5780634f1ef286146105a8578063509d6c52146105bb57600080fd5b8063390a5ba51461049b5780633eff2def146104cd578063473b0d46146104ed578063498b3e551461050d5780634a7508221461052d5780634b5102b81461054d57600080fd5b806322f88b521161028657806322f88b52146103ec5780632ed421d214610402578063313ce5671461041857806335759788146104465780633659cfe61461045b578063365b98b21461047b57600080fd5b8063012da720146102d95780630b243dad1461030f5780631319cff91461033157806318e10bff146103695780631f9e65e41461039c57806321009789146103bf57600080fd5b366102d457005b600080fd5b3480156102e557600080fd5b506102f96102f43660046151f0565b61093e565b604051610306919061520b565b60405180910390f35b34801561031b57600080fd5b5061032f61032a36600461526a565b6109d3565b005b34801561033d57600080fd5b5061035161034c366004615296565b610a16565b6040516001600160a01b039091168152602001610306565b34801561037557600080fd5b5060d55461038a906301000000900460ff1681565b60405160ff9091168152602001610306565b3480156103a857600080fd5b506103b1610a40565b604051908152602001610306565b3480156103cb57600080fd5b506103df6103da3660046152c1565b610a52565b604051610306919061539f565b3480156103f857600080fd5b506103b160d05481565b34801561040e57600080fd5b506103b160d15481565b34801561042457600080fd5b5060cb546104339061ffff1681565b60405161ffff9091168152602001610306565b34801561045257600080fd5b5061032f611033565b34801561046757600080fd5b5061032f610476366004615637565b61106a565b34801561048757600080fd5b50610351610496366004615296565b61114f565b3480156104a757600080fd5b5060cf546104b89063ffffffff1681565b60405163ffffffff9091168152602001610306565b3480156104d957600080fd5b5061032f6104e83660046151f0565b61115f565b3480156104f957600080fd5b5061032f610508366004615296565b611185565b34801561051957600080fd5b5061032f610528366004615654565b611192565b34801561053957600080fd5b5061032f610548366004615729565b611238565b34801561055957600080fd5b5061032f6105683660046151f0565b6112e8565b34801561057957600080fd5b5061058d6105883660046152c1565b611310565b60408051938452602084019290925290820152606001610306565b61032f6105b63660046157d6565b6117da565b3480156105c757600080fd5b5061032f6105d636600461583a565b6118a6565b3480156105e757600080fd5b506103b161199e565b3480156105fc57600080fd5b5061032f61060b3660046152c1565b611a51565b34801561061c57600080fd5b5061032f61062b3660046158b6565b611af5565b34801561063c57600080fd5b5061032f61064b36600461583a565b611b9e565b34801561065c57600080fd5b5061032f61066b3660046158b6565b611c45565b34801561067c57600080fd5b5060cb5461038a9062010000900460ff1681565b34801561069c57600080fd5b5060d5546106af90610100900460ff1681565b6040519015158152602001610306565b3480156106cb57600080fd5b5061032f611df9565b3480156106e057600080fd5b506104336106ef366004615296565b611e0d565b34801561070057600080fd5b5061071461070f3660046151f0565b611e45565b6040516103069190615917565b34801561072d57600080fd5b506103b160ce5481565b34801561074357600080fd5b5061032f612044565b34801561075857600080fd5b506103b160cd5481565b34801561076e57600080fd5b5060d5546106af9060ff1681565b34801561078857600080fd5b506033546001600160a01b0316610351565b3480156107a657600080fd5b506103b160cc5481565b3480156107bc57600080fd5b506103b16107cb3660046152c1565b6122dc565b3480156107dc57600080fd5b5061032f6107eb36600461526a565b61279b565b61032f6107fe3660046152c1565b612814565b34801561080f57600080fd5b5060cf5461038a9065010000000000900460ff1681565b34801561083257600080fd5b5061032f6108413660046159c5565b612a31565b34801561085257600080fd5b506103b16108613660046152c1565b612a51565b61032f6108743660046152c1565b612f0d565b34801561088557600080fd5b5060d55461038a9062010000900460ff1681565b3480156108a557600080fd5b5061032f6108b43660046159e0565b6131cb565b3480156108c557600080fd5b5061032f6108d4366004615637565b6131df565b3480156108e557600080fd5b506103b160d25481565b3480156108fb57600080fd5b5060cf546106af90640100000000900460ff1681565b34801561091d57600080fd5b5061093161092c366004615637565b613255565b6040516103069190615a22565b60ff8116600090815260d860209081526040918290206009018054835181840281018401909452808452606093928301828280156109c757602002820191906000526020600020906000905b82829054906101000a900463ffffffff1663ffffffff168152602001906004019060208260030104928301926001038202915080841161098a5790505b50505050509050919050565b6109db6133bb565b6040516001600160a01b0383169082156108fc029083906000818181858888f19350505050158015610a11573d6000803e3d6000fd5b505050565b60d38181548110610a2657600080fd5b6000918252602090912001546001600160a01b0316905081565b6000610a4d60cc54613415565b905090565b610b88604051806104800160405280600063ffffffff168152602001606081526020016000815260200160001515815260200160006001600160a01b03168152602001600063ffffffff168152602001600015158152602001606081526020016060815260200160608152602001606081526020016000815260200160008152602001600081526020016000815260200160008152602001600081526020016000815260200160008152602001600060ff168152602001600063ffffffff16815260200160008152602001600081526020016000815260200160008152602001600081526020016000815260200160008152602001606081526020016000815260200160008152602001600081526020016000151581526020016000151581526020016000151581526020016000151581525090565b63ffffffff808316600090815260d76020908152604091829020825161048081019093528054909316825260018301805492939291840191610bc990615a67565b80601f0160208091040260200160405190810160405280929190818152602001828054610bf590615a67565b8015610c425780601f10610c1757610100808354040283529160200191610c42565b820191906000526020600020905b815481529060010190602001808311610c2557829003601f168201915b50505091835250506002820154602080830191909152600383015460ff80821615156040808601919091526001600160a01b03610100840416606086015263ffffffff600160a81b8404166080860152600160c81b90920416151560a084015260048401805482518185028101850190935280835260c0909401939192909190830182828015610d1d57602002820191906000526020600020906000905b82829054906101000a900463ffffffff1663ffffffff1681526020019060040190602082600301049283019260010382029150808411610ce05790505b5050505050815260200160058201805480602002602001604051908101604052809291908181526020018280548015610da157602002820191906000526020600020906000905b82829054906101000a900463ffffffff1663ffffffff1681526020019060040190602082600301049283019260010382029150808411610d645790505b5050505050815260200160068201805480602002602001604051908101604052809291908181526020018280548015610e2557602002820191906000526020600020906000905b82829054906101000a900463ffffffff1663ffffffff1681526020019060040190602082600301049283019260010382029150808411610de85790505b5050505050815260200160078201805480602002602001604051908101604052809291908181526020018280548015610e7d57602002820191906000526020600020905b815481526020019060010190808311610e69575b505050918352505060088201546020808301919091526009830154604080840191909152600a8401546060840152600b8401546080840152600c84015460a0840152600d84015460c0840152600e84015460e0840152600f84015461010080850191909152601085015460ff81166101208601520463ffffffff166101408401526011840154610160840152601284015461018084015260138401546101a084015260148401546101c084015260158401546101e084015260168401546102008401526017840154610220840152601884018054825181850281018501909352808352610240909401939192909190830182828015610fc757602002820191906000526020600020906000905b82829054906101000a900463ffffffff1663ffffffff1681526020019060040190602082600301049283019260010382029150808411610f8a5790505b505050918352505060198201546020820152601a8201546040820152601b8201546060820152601c9091015460ff8082161515608084015261010082048116151560a08401526201000082048116151560c0840152630100000090910416151560e09091015292915050565b61103b6133bb565b60405133904780156108fc02916000818181858888f19350505050158015611067573d6000803e3d6000fd5b50565b6001600160a01b037f00000000000000000000000000000000000000000000000000000000000000001630036110bb5760405162461bcd60e51b81526004016110b290615aa1565b60405180910390fd5b7f00000000000000000000000000000000000000000000000000000000000000006001600160a01b0316611104600080516020615e7f833981519152546001600160a01b031690565b6001600160a01b03161461112a5760405162461bcd60e51b81526004016110b290615aed565b6111338161350c565b6040805160008082526020820190925261106791839190613514565b60d48181548110610a2657600080fd5b6111676133bb565b60cb805460ff909216620100000262ff000019909216919091179055565b61118d6133bb565b60cc55565b60c954604051630935e01b60e21b81523360048201526001600160a01b03909116906324d7806c90602401602060405180830381865afa1580156111da573d6000803e3d6000fd5b505050506040513d601f19601f820116820180604052508101906111fe9190615b39565b61121a5760405162461bcd60e51b81526004016110b290615b56565b60d554610100900460ff161561123457611234828261367f565b5050565b6112406133bb565b60ff8916600081815260d860205260409020805460ff19169091178155600181018990556002810188905560038101879055600481016112808782615bd0565b5060058101859055600681018490556007810183905560088101805460ff191683151517905560405160ff8b1681527f9a2f17868083013e19d4c26d2af13543606bc680c21c994d7648d3a0510164c99060200160405180910390a150505050505050505050565b6112f06133bb565b60d5805460ff90921663010000000263ff00000019909216919091179055565b63ffffffff808216600090815260d76020908152604080832081516104808101909252805490941681526001840180549394859485948594939084019161135690615a67565b80601f016020809104026020016040519081016040528092919081815260200182805461138290615a67565b80156113cf5780601f106113a4576101008083540402835291602001916113cf565b820191906000526020600020905b8154815290600101906020018083116113b257829003601f168201915b50505091835250506002820154602080830191909152600383015460ff80821615156040808601919091526001600160a01b03610100840416606086015263ffffffff600160a81b8404166080860152600160c81b90920416151560a084015260048401805482518185028101850190935280835260c09094019391929091908301828280156114aa57602002820191906000526020600020906000905b82829054906101000a900463ffffffff1663ffffffff168152602001906004019060208260030104928301926001038202915080841161146d5790505b505050505081526020016005820180548060200260200160405190810160405280929190818152602001828054801561152e57602002820191906000526020600020906000905b82829054906101000a900463ffffffff1663ffffffff16815260200190600401906020826003010492830192600103820291508084116114f15790505b50505050508152602001600682018054806020026020016040519081016040528092919081815260200182805480156115b257602002820191906000526020600020906000905b82829054906101000a900463ffffffff1663ffffffff16815260200190600401906020826003010492830192600103820291508084116115755790505b505050505081526020016007820180548060200260200160405190810160405280929190818152602001828054801561160a57602002820191906000526020600020905b8154815260200190600101908083116115f6575b505050918352505060088201546020808301919091526009830154604080840191909152600a8401546060840152600b8401546080840152600c84015460a0840152600d84015460c0840152600e84015460e0840152600f84015461010080850191909152601085015460ff81166101208601520463ffffffff166101408401526011840154610160840152601284015461018084015260138401546101a084015260148401546101c084015260158401546101e08401526016840154610200840152601784015461022084015260188401805482518185028101850190935280835261024090940193919290919083018282801561175457602002820191906000526020600020906000905b82829054906101000a900463ffffffff1663ffffffff16815260200190600401906020826003010492830192600103820291508084116117175790505b505050918352505060198201546020820152601a8201546040820152601b8201546060820152601c9091015460ff8082161515608084015261010082048116151560a08401526201000082048116151560c0840152630100000090910416151560e0909101526102c08101516102e0820151610300909201519097919650945092505050565b6001600160a01b037f00000000000000000000000000000000000000000000000000000000000000001630036118225760405162461bcd60e51b81526004016110b290615aa1565b7f00000000000000000000000000000000000000000000000000000000000000006001600160a01b031661186b600080516020615e7f833981519152546001600160a01b031690565b6001600160a01b0316146118915760405162461bcd60e51b81526004016110b290615aed565b61189a8261350c565b61123482826001613514565b60c954604051630935e01b60e21b81523360048201526001600160a01b03909116906324d7806c90602401602060405180830381865afa1580156118ee573d6000803e3d6000fd5b505050506040513d601f19601f820116820180604052508101906119129190615b39565b61192e5760405162461bcd60e51b81526004016110b290615b56565b63ffffffff8216600090815260d76020526040812042601a8201556019810180549192849261195e908490615ca6565b92505081905550818160120160008282546119799190615ca6565b925050819055508181601b0160008282546119949190615ca6565b9091555050505050565b6000306001600160a01b037f00000000000000000000000000000000000000000000000000000000000000001614611a3e5760405162461bcd60e51b815260206004820152603860248201527f555550535570677261646561626c653a206d757374206e6f742062652063616c60448201527f6c6564207468726f7567682064656c656761746563616c6c000000000000000060648201526084016110b2565b50600080516020615e7f83398151915290565b60c954604051630935e01b60e21b81523360048201526001600160a01b03909116906324d7806c90602401602060405180830381865afa158015611a99573d6000803e3d6000fd5b505050506040513d601f19601f82011682018060405250810190611abd9190615b39565b611ad95760405162461bcd60e51b81526004016110b290615b56565b60cf805463ffffffff191663ffffffff92909216919091179055565b60005b8361ffff168561ffff1611611b9757600083838361ffff16818110611b1f57611b1f615cb9565b905060200201351115611b775761ffff808616600090815260d76020526040902090849084908416818110611b5657611b56615cb9565b90506020020135816017016000828254611b709190615ca6565b9091555050505b80611b8181615ccf565b9150508480611b8f90615ccf565b955050611af8565b5050505050565b60c954604051630935e01b60e21b81523360048201526001600160a01b03909116906324d7806c90602401602060405180830381865afa158015611be6573d6000803e3d6000fd5b505050506040513d601f19601f82011682018060405250810190611c0a9190615b39565b611c265760405162461bcd60e51b81526004016110b290615b56565b63ffffffff8216600090815260d760205260409020610a118183613db6565b60c954604051630935e01b60e21b81523360048201526001600160a01b03909116906324d7806c90602401602060405180830381865afa158015611c8d573d6000803e3d6000fd5b505050506040513d601f19601f82011682018060405250810190611cb19190615b39565b611ccd5760405162461bcd60e51b81526004016110b290615b56565b60005b8361ffff168561ffff1611611b9757600083838361ffff16818110611cf757611cf7615cb9565b905060200201351115611dd95761ffff808616600090815260d760205260408082206003810154600160a81b900463ffffffff16835291209091859085908516818110611d4657611d46615cb9565b90506020020135826009016000828254611d609190615ca6565b909155505060078201858561ffff8616818110611d7f57611d7f615cb9565b83546001810185556000948552602094859020919094029290920135919092015550848461ffff8516818110611db757611db7615cb9565b9050602002013581600b016000828254611dd19190615ca6565b909155505050505b80611de381615ccf565b9150508480611df190615ccf565b955050611cd0565b611e016133bb565b611e0b6000613e40565b565b60ca8181548110611e1d57600080fd5b9060005260206000209060109182820401919006600202915054906101000a900461ffff1681565b611ea0604051806101400160405280600060ff16815260200160008152602001600081526020016000815260200160608152602001600081526020016000815260200160008152602001600015158152602001606081525090565b60ff808316600090815260d860209081526040918290208251610140810184528154909416845260018101549184019190915260028101549183019190915260038101546060830152600481018054608084019190611efe90615a67565b80601f0160208091040260200160405190810160405280929190818152602001828054611f2a90615a67565b8015611f775780601f10611f4c57610100808354040283529160200191611f77565b820191906000526020600020905b815481529060010190602001808311611f5a57829003601f168201915b505050505081526020016005820154815260200160068201548152602001600782015481526020016008820160009054906101000a900460ff161515151581526020016009820180548060200260200160405190810160405280929190818152602001828054801561203457602002820191906000526020600020906000905b82829054906101000a900463ffffffff1663ffffffff1681526020019060040190602082600301049283019260010382029150808411611ff75790505b5050505050815250509050919050565b600054610100900460ff16158080156120645750600054600160ff909116105b8061207e5750303b15801561207e575060005460ff166001145b6120e15760405162461bcd60e51b815260206004820152602e60248201527f496e697469616c697a61626c653a20636f6e747261637420697320616c72656160448201526d191e481a5b9a5d1a585b1a5e995960921b60648201526084016110b2565b6000805460ff191660011790558015612104576000805461ff0019166101001790555b60c980546001600160a01b031916730b8bf5feb9fca57d9c5d27185ddf3017e99a2d3617905560cb805461ffff19166103e8179055604080516103a08101825260648152604660208201526032918101829052606081018290526080810182905260a0810182905260c0810182905260e08101829052610100810182905261012081018290526101408101829052610160810182905261018081018290526101a081018290526101c081018290526101e08101829052610200810182905261022081018290526102408101919091526014610260820181905261028082018190526102a082018190526102c082018190526102e0820181905261030082018190526103208201819052610340820181905261036082018190526103808201526122319060ca90601d615015565b5060cb805462ff000019166232000017905568056bc75e2d6310000060cc5560cf8054660200000000000066ff00ff000000001990911617905560d5805462278d0060d25562ffffff19166214010117905561228b613e92565b612293613ec1565b8015611067576000805461ff0019169055604051600181527f7f26b83ff96e1f2b6a682f133852f6798a09c465da95921460cefb3847402498906020015b60405180910390a150565b63ffffffff808216600090815260d76020908152604080832081516104808101909252805490941681526001840180549394859492939092908401919061232290615a67565b80601f016020809104026020016040519081016040528092919081815260200182805461234e90615a67565b801561239b5780601f106123705761010080835404028352916020019161239b565b820191906000526020600020905b81548152906001019060200180831161237e57829003601f168201915b50505091835250506002820154602080830191909152600383015460ff80821615156040808601919091526001600160a01b03610100840416606086015263ffffffff600160a81b8404166080860152600160c81b90920416151560a084015260048401805482518185028101850190935280835260c090940193919290919083018282801561247657602002820191906000526020600020906000905b82829054906101000a900463ffffffff1663ffffffff16815260200190600401906020826003010492830192600103820291508084116124395790505b50505050508152602001600582018054806020026020016040519081016040528092919081815260200182805480156124fa57602002820191906000526020600020906000905b82829054906101000a900463ffffffff1663ffffffff16815260200190600401906020826003010492830192600103820291508084116124bd5790505b505050505081526020016006820180548060200260200160405190810160405280929190818152602001828054801561257e57602002820191906000526020600020906000905b82829054906101000a900463ffffffff1663ffffffff16815260200190600401906020826003010492830192600103820291508084116125415790505b50505050508152602001600782018054806020026020016040519081016040528092919081815260200182805480156125d657602002820191906000526020600020905b8154815260200190600101908083116125c2575b505050918352505060088201546020808301919091526009830154604080840191909152600a8401546060840152600b8401546080840152600c84015460a0840152600d84015460c0840152600e84015460e0840152600f84015461010080850191909152601085015460ff81166101208601520463ffffffff166101408401526011840154610160840152601284015461018084015260138401546101a084015260148401546101c084015260158401546101e08401526016840154610200840152601784015461022084015260188401805482518185028101850190935280835261024090940193919290919083018282801561272057602002820191906000526020600020906000905b82829054906101000a900463ffffffff1663ffffffff16815260200190600401906020826003010492830192600103820291508084116126e35790505b505050918352505060198201546020820152601a8201546040820152601b8201546060820152601c9091015460ff8082161515608084015261010082048116151560a08401526201000082048116151560c0840152630100000090910416151560e090910152905061279181613ee8565b60ff169392505050565b6127a36133bb565b60405163a9059cbb60e01b8152336004820152602481018290526001600160a01b0383169063a9059cbb906044016020604051808303816000875af11580156127f0573d6000803e3d6000fd5b505050506040513d601f19601f82011682018060405250810190610a119190615b39565b34600061282082613f9d565b905060cc548110156128745760405162461bcd60e51b815260206004820152601f60248201527f56616c7565206c657373207468656e206d696e436f6e747269627574696f6e0060448201526064016110b2565b63ffffffff8316600090815260d7602052604081203391429190612899856003615cf0565b826012015483601401546128ad9190615d07565b6128b79190615ca6565b90506128dc828589600089868960cb60029054906101000a900460ff1660ff1661408b565b60d55460ff1615612a285760c954604080516344846f9d60e11b815290516000926001600160a01b031691638908df3a9160048083019260209291908290030181865afa158015612931573d6000803e3d6000fd5b505050506040513d601f19601f820116820180604052508101906129559190615d1a565b6001600160a01b03166398c7438e8961296f600386615d37565b6040516001600160e01b031960e085901b16815263ffffffff9290921660048301526024820152604481018790526064016020604051808303816000875af11580156129bf573d6000803e3d6000fd5b505050506040513d601f19601f820116820180604052508101906129e39190615d59565b601884018054600181018255600091825260209091206008820401805460079092166004026101000a63ffffffff818102199093169390921691909102919091179055505b50505050505050565b612a396133bb565b60cb805461ffff191661ffff92909216919091179055565b63ffffffff808216600090815260d760209081526040808320815161048081019092528054909416815260018401805493948594929390929084019190612a9790615a67565b80601f0160208091040260200160405190810160405280929190818152602001828054612ac390615a67565b8015612b105780601f10612ae557610100808354040283529160200191612b10565b820191906000526020600020905b815481529060010190602001808311612af357829003601f168201915b50505091835250506002820154602080830191909152600383015460ff80821615156040808601919091526001600160a01b03610100840416606086015263ffffffff600160a81b8404166080860152600160c81b90920416151560a084015260048401805482518185028101850190935280835260c0909401939192909190830182828015612beb57602002820191906000526020600020906000905b82829054906101000a900463ffffffff1663ffffffff1681526020019060040190602082600301049283019260010382029150808411612bae5790505b5050505050815260200160058201805480602002602001604051908101604052809291908181526020018280548015612c6f57602002820191906000526020600020906000905b82829054906101000a900463ffffffff1663ffffffff1681526020019060040190602082600301049283019260010382029150808411612c325790505b5050505050815260200160068201805480602002602001604051908101604052809291908181526020018280548015612cf357602002820191906000526020600020906000905b82829054906101000a900463ffffffff1663ffffffff1681526020019060040190602082600301049283019260010382029150808411612cb65790505b5050505050815260200160078201805480602002602001604051908101604052809291908181526020018280548015612d4b57602002820191906000526020600020905b815481526020019060010190808311612d37575b505050918352505060088201546020808301919091526009830154604080840191909152600a8401546060840152600b8401546080840152600c84015460a0840152600d84015460c0840152600e84015460e0840152600f84015461010080850191909152601085015460ff81166101208601520463ffffffff166101408401526011840154610160840152601284015461018084015260138401546101a084015260148401546101c084015260158401546101e084015260168401546102008401526017840154610220840152601884018054825181850281018501909352808352610240909401939192909190830182828015612e9557602002820191906000526020600020906000905b82829054906101000a900463ffffffff1663ffffffff1681526020019060040190602082600301049283019260010382029150808411612e585790505b505050918352505060198201546020820152601a8201546040820152601b8201546060820152601c9091015460ff8082161515608084015261010082048116151560a08401526201000082048116151560c0840152630100000090910416151560e0909101529050612f06816143ae565b9392505050565b346000612f1982613f9d565b905060cc54811015612f6d5760405162461bcd60e51b815260206004820152601f60248201527f56616c7565206c657373207468656e206d696e436f6e747269627574696f6e0060448201526064016110b2565b60cf5433904290600090612f889063ffffffff166001615d76565b6001600160a01b038416600090815260d66020908152604080832063ffffffff8516845260d790925282209293509190612fc3876003615cf0565b82601201548360140154612fd79190615d07565b612fe19190615ca6565b90506130058287868c8b868b60cb60029054906101000a900460ff1660ff1661408b565b60d55460ff16156131515760c954604080516344846f9d60e11b815290516000926001600160a01b031691638908df3a9160048083019260209291908290030181865afa15801561305a573d6000803e3d6000fd5b505050506040513d601f19601f8201168201806040525081019061307e9190615d1a565b6001600160a01b03166398c7438e86613098600386615d37565b6040516001600160e01b031960e085901b16815263ffffffff9290921660048301526024820152604481018990526064016020604051808303816000875af11580156130e8573d6000803e3d6000fd5b505050506040513d601f19601f8201168201806040525081019061310c9190615d59565b601884018054600181018255600091825260209091206008820401805460079092166004026101000a63ffffffff818102199093169390921691909102919091179055505b6001838101805491820181556000908152602081206008830401805460079093166004026101000a63ffffffff818102199094168885169190910217905560cf805490921691906131a183615d9a565b91906101000a81548163ffffffff021916908363ffffffff16021790555050505050505050505050565b6131d36133bb565b610a1160ca83836150bd565b6131e76133bb565b6001600160a01b03811661324c5760405162461bcd60e51b815260206004820152602660248201527f4f776e61626c653a206e6577206f776e657220697320746865207a65726f206160448201526564647265737360d01b60648201526084016110b2565b61106781613e40565b61327b604051806060016040528060001515815260200160608152602001606081525090565b6001600160a01b038216600090815260d660209081526040918290208251606081018452815460ff16151581526001820180548551818602810186019096528086529194929385810193929083018282801561332257602002820191906000526020600020906000905b82829054906101000a900463ffffffff1663ffffffff16815260200190600401906020826003010492830192600103820291508084116132e55790505b5050505050815260200160028201805461333b90615a67565b80601f016020809104026020016040519081016040528092919081815260200182805461336790615a67565b80156120345780601f1061338957610100808354040283529160200191612034565b820191906000526020600020905b81548152906001019060200180831161339757505050919092525091949350505050565b6033546001600160a01b03163314611e0b5760405162461bcd60e51b815260206004820181905260248201527f4f776e61626c653a2063616c6c6572206973206e6f7420746865206f776e657260448201526064016110b2565b60008060c960009054906101000a90046001600160a01b03166001600160a01b0316632913497b6040518163ffffffff1660e01b8152600401602060405180830381865afa15801561346b573d6000803e3d6000fd5b505050506040513d601f19601f8201168201806040525081019061348f9190615d1a565b6001600160a01b031663e1aa60366040518163ffffffff1660e01b8152600401602060405180830381865afa1580156134cc573d6000803e3d6000fd5b505050506040513d601f19601f820116820180604052508101906134f09190615db3565b61350284670de0b6b3a7640000615cf0565b612f069190615d37565b6110676133bb565b7f4910fdfa16fed3260ed0e7147f7cc6da11a60208b5b9406d12a635614ffd91435460ff161561354757610a11836143ed565b826001600160a01b03166352d1902d6040518163ffffffff1660e01b8152600401602060405180830381865afa9250505080156135a1575060408051601f3d908101601f1916820190925261359e91810190615db3565b60015b6136045760405162461bcd60e51b815260206004820152602e60248201527f45524331393637557067726164653a206e657720696d706c656d656e7461746960448201526d6f6e206973206e6f74205555505360901b60648201526084016110b2565b600080516020615e7f83398151915281146136735760405162461bcd60e51b815260206004820152602960248201527f45524331393637557067726164653a20756e737570706f727465642070726f786044820152681a58589b195555525160ba1b60648201526084016110b2565b50610a11838383614489565b600060ca8054806020026020016040519081016040528092919081815260200182805480156136f557602002820191906000526020600020906000905b82829054906101000a900461ffff1661ffff16815260200190600201906020826001010492830192600103820291508084116136bc5790505b5050835163ffffffff8716600090815260d7602052604081209596509094935091508190505b8360ff168160ff161015613d9657600383015463ffffffff600160a81b9091048116600081815260d76020526040812080549293909216900361375f575050613d96565b613768816144b4565b156137e05760405172149959995c995c881a5cc8111a5cd8589b1959606a1b81526013015b6040519081900390206137a1846001615dcc565b60ff168363ffffffff167f915ed47901013ad29e90ede828f72888f54bd58cea141b0c6967498165382eb560405160405180910390a49350613d849050565b604080516104808101909152815463ffffffff168152600182018054613c7b9291849160208401919061381290615a67565b80601f016020809104026020016040519081016040528092919081815260200182805461383e90615a67565b801561388b5780601f106138605761010080835404028352916020019161388b565b820191906000526020600020905b81548152906001019060200180831161386e57829003601f168201915b50505091835250506002820154602080830191909152600383015460ff80821615156040808601919091526001600160a01b03610100840416606086015263ffffffff600160a81b8404166080860152600160c81b90920416151560a084015260048401805482518185028101850190935280835260c090940193919290919083018282801561396657602002820191906000526020600020906000905b82829054906101000a900463ffffffff1663ffffffff16815260200190600401906020826003010492830192600103820291508084116139295790505b50505050508152602001600582018054806020026020016040519081016040528092919081815260200182805480156139ea57602002820191906000526020600020906000905b82829054906101000a900463ffffffff1663ffffffff16815260200190600401906020826003010492830192600103820291508084116139ad5790505b5050505050815260200160068201805480602002602001604051908101604052809291908181526020018280548015613a6e57602002820191906000526020600020906000905b82829054906101000a900463ffffffff1663ffffffff1681526020019060040190602082600301049283019260010382029150808411613a315790505b5050505050815260200160078201805480602002602001604051908101604052809291908181526020018280548015613ac657602002820191906000526020600020905b815481526020019060010190808311613ab2575b505050918352505060088201546020808301919091526009830154604080840191909152600a8401546060840152600b8401546080840152600c84015460a0840152600d84015460c0840152600e84015460e0840152600f84015461010080850191909152601085015460ff81166101208601520463ffffffff166101408401526011840154610160840152601284015461018084015260138401546101a084015260148401546101c084015260158401546101e084015260168401546102008401526017840154610220840152601884018054825181850281018501909352808352610240909401939192909190830182828015613c1057602002820191906000526020600020906000905b82829054906101000a900463ffffffff1663ffffffff1681526020019060040190602082600301049283019260010382029150808411613bd35790505b505050918352505060198201546020820152601a8201546040820152601b8201546060820152601c9091015460ff8082161515608084015261010082048116151560a08401526201000082048116151560c0840152630100000090910416151560e0909101526143ae565b613c86846001615dcc565b60ff161115613cbd576040517f446f776e6c696e65206c6576656c73206c696d697420726561636865640000008152601d0161378d565b60cb54875160009161ffff1690899060ff8716908110613cdf57613cdf615cb9565b602002602001015161ffff168b613cf69190615cf0565b613d009190615d37565b905080826017016000828254613d169190615ca6565b90915550613d2690508282613db6565b613d308186615ca6565b94508063ffffffff808516908b167ff8fb9b5ab69a0208214661678427c6b48abf457f53605d1f559d17452f1eea11613d6a886001615dcc565b60405160ff909116815260200160405180910390a4509350505b80613d8e81615de5565b91505061371b565b508060ce6000828254613da99190615ca6565b9091555050505050505050565b8160140154818360120154613dcb9190615ca6565b11613e0a5780826012016000828254613de49190615ca6565b925050819055508082601b016000828254613dff9190615ca6565b909155506112349050565b81601201548260140154613e1e9190615d07565b82601b016000828254613e319190615ca6565b90915550611234905082614635565b603380546001600160a01b038381166001600160a01b0319831681179093556040519116919082907f8be0079c531659141344cd1fd0a4f28419497f9722a3daafe3b4186f6b6457e090600090a35050565b600054610100900460ff16613eb95760405162461bcd60e51b81526004016110b290615e04565b611e0b6146dd565b600054610100900460ff16611e0b5760405162461bcd60e51b81526004016110b290615e04565b60d5546000906301000000900460ff16815b8160ff168160ff161015613f965760ff8116600090815260d8602052604090206001015461016085015110801590613f4c575060ff8116600090815260d860205260409020600201546101a085015110155b8015613f72575060ff8116600090815260d860205260409020600301546101e085015110155b15613f7f57809250613f84565b613f96565b80613f8e81615de5565b915050613efa565b5050919050565b600080670de0b6b3a764000060c960009054906101000a90046001600160a01b03166001600160a01b0316632913497b6040518163ffffffff1660e01b8152600401602060405180830381865afa158015613ffc573d6000803e3d6000fd5b505050506040513d601f19601f820116820180604052508101906140209190615d1a565b6001600160a01b031663e1aa60366040518163ffffffff1660e01b8152600401602060405180830381865afa15801561405d573d6000803e3d6000fd5b505050506040513d601f19601f820116820180604052508101906140819190615db3565b6135029085615cf0565b875463ffffffff166000036140ae57875463ffffffff191663ffffffff87161788555b601c88015460ff166140ca57601c8801805460ff191660011790555b600388015460ff166141225760d480546001810182556000919091527f9780e26d96b1f2a9a18ef8fc72d589dbf03ef788137b64f43897e83a91e7feec0180546001600160a01b0319166001600160a01b0389161790555b600388015461010090046001600160a01b031661415c57600388018054610100600160a81b0319166101006001600160a01b038a16021790555b876002015460000361417057600288018290555b6003880154600160c81b900460ff166141b45760038801805460ff60c81b1963ffffffff8816600160a81b021664ffffffffff60a81b1990911617600160c81b1790555b600060128901556141c6600384615d37565b601389015560148801839055600788018054600181018255600091825260208220018590556008890180548692906141ff908490615ca6565b909155505060158801829055604080516000815260208101918290525161422a9160188b0191615128565b5060005b818160ff1610156143a357600389015463ffffffff600160a81b9091048116600081815260d76020526040812080549293909216900361426f5750506143a3565b8260ff166000036142d1578681600a01600082825461428e9190615ca6565b909155505060048181018054600181018255600091825260209091206008820401805460079092169092026101000a63ffffffff81810219909216918c16021790555b8681600c0160008282546142e59190615ca6565b909155505063ffffffff881615614365576005810180546001810182556000918252602082206008820401805460079092166004026101000a63ffffffff818102199093168d841691820217909155835460405190831693928c16927f3ec54e926fe5dd86406fe57832ff318517aed2a5cfbeacfb90a5e9489483ae4b91a45b60cf54640100000000900460ff16156143835761438381888761470d565b61438d8786614e67565b995081905061439b81615de5565b91505061422e565b505050505050505050565b60e081015151600090818115612f065760cf546001906143db906601000000000000900460ff1684615cf0565b6143e59190615d07565b949350505050565b6001600160a01b0381163b61445a5760405162461bcd60e51b815260206004820152602d60248201527f455243313936373a206e657720696d706c656d656e746174696f6e206973206e60448201526c1bdd08184818dbdb9d1c9858dd609a1b60648201526084016110b2565b600080516020615e7f83398151915280546001600160a01b0319166001600160a01b0392909216919091179055565b61449283614ea1565b60008251118061449f5750805b15610a11576144ae8383614ee1565b50505050565b601c81015460009060ff1615806144d357508160140154826012015410155b156144e057506001919050565b601882015415801590614620575060c960009054906101000a90046001600160a01b03166001600160a01b0316638908df3a6040518163ffffffff1660e01b8152600401602060405180830381865afa158015614541573d6000803e3d6000fd5b505050506040513d601f19601f820116820180604052508101906145659190615d1a565b6001600160a01b03166355332a85836018016001856018018054905061458b9190615d07565b8154811061459b5761459b615cb9565b6000918252602090912060088204015460405160e084901b6001600160e01b0319168152600790921660049081026101000a90910463ffffffff1690820152602401602060405180830381865afa1580156145fa573d6000803e3d6000fd5b505050506040513d601f19601f8201168201806040525081019061461e9190615b39565b155b1561462d57506001919050565b506000919050565b601c8101805460ff191690556040805160008152602081019182905251614660916018840191615128565b5060006012820181905560138201819055601482015542601682015580546040805163ffffffff9092168252602082018190526011908201527013585e08131a5b5a5d0814995858da1959607a1b60608201527fce8ab8f2ac6a94861f9740fa1fed3e6d13a85dfd8a4833bf96f3a0055ba7fb6f906080016122d1565b600054610100900460ff166147045760405162461bcd60e51b81526004016110b290615e04565b611e0b33613e40565b6010830154604080516104808101909152845463ffffffff16815260018501805460ff90931692614bb39291879160208401919061474a90615a67565b80601f016020809104026020016040519081016040528092919081815260200182805461477690615a67565b80156147c35780601f10614798576101008083540402835291602001916147c3565b820191906000526020600020905b8154815290600101906020018083116147a657829003601f168201915b50505091835250506002820154602080830191909152600383015460ff80821615156040808601919091526001600160a01b03610100840416606086015263ffffffff600160a81b8404166080860152600160c81b90920416151560a084015260048401805482518185028101850190935280835260c090940193919290919083018282801561489e57602002820191906000526020600020906000905b82829054906101000a900463ffffffff1663ffffffff16815260200190600401906020826003010492830192600103820291508084116148615790505b505050505081526020016005820180548060200260200160405190810160405280929190818152602001828054801561492257602002820191906000526020600020906000905b82829054906101000a900463ffffffff1663ffffffff16815260200190600401906020826003010492830192600103820291508084116148e55790505b50505050508152602001600682018054806020026020016040519081016040528092919081815260200182805480156149a657602002820191906000526020600020906000905b82829054906101000a900463ffffffff1663ffffffff16815260200190600401906020826003010492830192600103820291508084116149695790505b50505050508152602001600782018054806020026020016040519081016040528092919081815260200182805480156149fe57602002820191906000526020600020905b8154815260200190600101908083116149ea575b505050918352505060088201546020808301919091526009830154604080840191909152600a8401546060840152600b8401546080840152600c84015460a0840152600d84015460c0840152600e84015460e0840152600f84015461010080850191909152601085015460ff81166101208601520463ffffffff166101408401526011840154610160840152601284015461018084015260138401546101a084015260148401546101c084015260158401546101e084015260168401546102008401526017840154610220840152601884018054825181850281018501909352808352610240909401939192909190830182828015614b4857602002820191906000526020600020906000905b82829054906101000a900463ffffffff1663ffffffff1681526020019060040190602082600301049283019260010382029150808411614b0b5790505b505050918352505060198201546020820152601a8201546040820152601b8201546060820152601c9091015460ff8082161515608084015261010082048116151560a08401526201000082048116151560c0840152630100000090910416151560e090910152613ee8565b60ff161115610a1157604080516104808101909152835463ffffffff168152600184018054614bee9291869160208401919061474a90615a67565b60108401805460ff191660ff9283169081178255600090815260d860209081526040808320885460099182018054600181810183559187529486206008860401805463ffffffff60079097166004026101000a8781021990911696909316909202949094179055935490941682529290200154614c6b9190615d07565b60108401805464ffffffff0019811661010063ffffffff948516810291821793849055875460408051918716825291909404909416602084015260ff918216911617918101919091527f4d3af8f60ffd033b575846f894122f2342b39bc9a90da98d0a966128702b568d9060600160405180910390a1604080516104808101909152835463ffffffff16815260018401805460d892600092614d17928891602084019161474a90615a67565b60ff90811682526020820192909252604001600020600801541615614dd657604080516104808101909152835463ffffffff16815260018401805460d892600092614d6c928891602084019161474a90615a67565b60ff1660ff1681526020019081526020016000206007015483600f0154614d939190615ca6565b811115614dc2578083600f01819055508183600e016000828254614db79190615ca6565b90915550610a119050565b8183600e016000828254614db79190615ca6565b60cf54640100000000900460ff1615610a1157601083015460ff16600090815260d86020526040902060050154614e0e908490613db6565b601083015460ff908116600090815260d8602052604080822060058101549054875492519194169263ffffffff909216917fdeaf5b294f5016988108257045fc779d7d01e05a4ecdc4df70f62d5a799e053b91a4505050565b60d25460d154614e779190615ca6565b811115614e865760d15560d055565b8160d06000828254614e989190615ca6565b90915550505050565b614eaa816143ed565b6040516001600160a01b038216907fbc7cd75a20ee27fd9adebab32041f755214dbc6bffa90cc0225b39da2e5c2d3b90600090a250565b60606001600160a01b0383163b614f495760405162461bcd60e51b815260206004820152602660248201527f416464726573733a2064656c65676174652063616c6c20746f206e6f6e2d636f6044820152651b9d1c9858dd60d21b60648201526084016110b2565b600080846001600160a01b031684604051614f649190615e4f565b600060405180830381855af49150503d8060008114614f9f576040519150601f19603f3d011682016040523d82523d6000602084013e614fa4565b606091505b5091509150614fcc8282604051806060016040528060278152602001615e9f60279139614fd7565b925050505b92915050565b60608315614fe6575081612f06565b612f068383815115614ffb5781518083602001fd5b8060405162461bcd60e51b81526004016110b29190615e6b565b82805482825590600052602060002090600f016010900481019282156150ad5791602002820160005b8382111561507d57835183826101000a81548161ffff021916908360ff160217905550926020019260020160208160010104928301926001030261503e565b80156150ab5782816101000a81549061ffff021916905560020160208160010104928301926001030261507d565b505b506150b99291506151c5565b5090565b82805482825590600052602060002090600f016010900481019282156150ad5791602002820160005b8382111561507d57833560ff1683826101000a81548161ffff021916908360ff16021790555092602001926002016020816001010492830192600103026150e6565b828054828255906000526020600020906007016008900481019282156150ad5791602002820160005b8382111561519557835183826101000a81548163ffffffff021916908363ffffffff1602179055509260200192600401602081600301049283019260010302615151565b80156150ab5782816101000a81549063ffffffff0219169055600401602081600301049283019260010302615195565b5b808211156150b957600081556001016151c6565b803560ff811681146151eb57600080fd5b919050565b60006020828403121561520257600080fd5b612f06826151da565b6020808252825182820181905260009190848201906040850190845b8181101561524957835163ffffffff1683529284019291840191600101615227565b50909695505050505050565b6001600160a01b038116811461106757600080fd5b6000806040838503121561527d57600080fd5b823561528881615255565b946020939093013593505050565b6000602082840312156152a857600080fd5b5035919050565b63ffffffff8116811461106757600080fd5b6000602082840312156152d357600080fd5b8135612f06816152af565b60005b838110156152f95781810151838201526020016152e1565b50506000910152565b6000815180845261531a8160208601602086016152de565b601f01601f19169290920160200192915050565b600081518084526020808501945080840160005b8381101561536457815163ffffffff1687529582019590820190600101615342565b509495945050505050565b600081518084526020808501945080840160005b8381101561536457815187529582019590820190600101615383565b602081526153b660208201835163ffffffff169052565b600060208301516104808060408501526153d46104a0850183615302565b91506040850151606085015260608501516153f3608086018215159052565b5060808501516001600160a01b03811660a08601525060a085015163ffffffff811660c08601525060c085015180151560e08601525060e0850151601f19610100818786030181880152615447858461532e565b945080880151925050610120818786030181880152615466858461532e565b945080880151925050610140818786030181880152615485858461532e565b9450808801519250506101608187860301818801526154a4858461536f565b90880151610180888101919091528801516101a0808901919091528801516101c0808901919091528801516101e0808901919091528801516102008089019190915288015161022080890191909152880151610240808901919091528801516102608089019190915288015190945091506102806155268188018460ff169052565b87015191506102a061553f8782018463ffffffff169052565b8701516102c0878101919091528701516102e080880191909152870151610300808801919091528701516103208088019190915287015161034080880191909152870151610360808801919091528701516103808088019190915287015186850382016103a0808901919091529092506155b9858461532e565b908801516103c0888101919091528801516103e08089019190915288015161040080890191909152880151909450915061042090506155fb8187018315159052565b86015190506104406156108682018315159052565b86015190506104606156258682018315159052565b90950151151593019290925250919050565b60006020828403121561564957600080fd5b8135612f0681615255565b6000806040838503121561566757600080fd5b823591506020830135615679816152af565b809150509250929050565b634e487b7160e01b600052604160045260246000fd5b600067ffffffffffffffff808411156156b5576156b5615684565b604051601f8501601f19908116603f011681019082821181831017156156dd576156dd615684565b816040528093508581528686860111156156f657600080fd5b858560208301376000602087830101525050509392505050565b801515811461106757600080fd5b80356151eb81615710565b60008060008060008060008060006101208a8c03121561574857600080fd5b6157518a6151da565b985060208a0135975060408a0135965060608a0135955060808a013567ffffffffffffffff81111561578257600080fd5b8a01601f81018c1361579357600080fd5b6157a28c82356020840161569a565b95505060a08a0135935060c08a0135925060e08a013591506157c76101008b0161571e565b90509295985092959850929598565b600080604083850312156157e957600080fd5b82356157f481615255565b9150602083013567ffffffffffffffff81111561581057600080fd5b8301601f8101851361582157600080fd5b6158308582356020840161569a565b9150509250929050565b6000806040838503121561584d57600080fd5b8235615288816152af565b803561ffff811681146151eb57600080fd5b60008083601f84011261587c57600080fd5b50813567ffffffffffffffff81111561589457600080fd5b6020830191508360208260051b85010111156158af57600080fd5b9250929050565b600080600080606085870312156158cc57600080fd5b6158d585615858565b93506158e360208601615858565b9250604085013567ffffffffffffffff8111156158ff57600080fd5b61590b8782880161586a565b95989497509550505050565b6020815261592b60208201835160ff169052565b602082015160408201526040820151606082015260608201516080820152600060808301516101408060a0850152615967610160850183615302565b915060a085015160c085015260c085015160e085015260e08501516101008181870152808701519150506101206159a18187018315159052565b860151858403601f19018387015290506159bb838261532e565b9695505050505050565b6000602082840312156159d757600080fd5b612f0682615858565b600080602083850312156159f357600080fd5b823567ffffffffffffffff811115615a0a57600080fd5b615a168582860161586a565b90969095509350505050565b602081528151151560208201526000602083015160606040840152615a4a608084018261532e565b90506040840151601f19848303016060850152614fcc8282615302565b600181811c90821680615a7b57607f821691505b602082108103615a9b57634e487b7160e01b600052602260045260246000fd5b50919050565b6020808252602c908201527f46756e6374696f6e206d7573742062652063616c6c6564207468726f7567682060408201526b19195b1959d85d1958d85b1b60a21b606082015260800190565b6020808252602c908201527f46756e6374696f6e206d7573742062652063616c6c6564207468726f7567682060408201526b6163746976652070726f787960a01b606082015260800190565b600060208284031215615b4b57600080fd5b8151612f0681615710565b6020808252601290820152712cb7ba9030b932903737ba1030b236b4b71760711b604082015260600190565b601f821115610a1157600081815260208120601f850160051c81016020861015615ba95750805b601f850160051c820191505b81811015615bc857828155600101615bb5565b505050505050565b815167ffffffffffffffff811115615bea57615bea615684565b615bfe81615bf88454615a67565b84615b82565b602080601f831160018114615c335760008415615c1b5750858301515b600019600386901b1c1916600185901b178555615bc8565b600085815260208120601f198616915b82811015615c6257888601518255948401946001909101908401615c43565b5085821015615c805787850151600019600388901b60f8161c191681555b5050505050600190811b01905550565b634e487b7160e01b600052601160045260246000fd5b80820180821115614fd157614fd1615c90565b634e487b7160e01b600052603260045260246000fd5b600061ffff808316818103615ce657615ce6615c90565b6001019392505050565b8082028115828204841417614fd157614fd1615c90565b81810381811115614fd157614fd1615c90565b600060208284031215615d2c57600080fd5b8151612f0681615255565b600082615d5457634e487b7160e01b600052601260045260246000fd5b500490565b600060208284031215615d6b57600080fd5b8151612f06816152af565b63ffffffff818116838216019080821115615d9357615d93615c90565b5092915050565b600063ffffffff808316818103615ce657615ce6615c90565b600060208284031215615dc557600080fd5b5051919050565b60ff8181168382160190811115614fd157614fd1615c90565b600060ff821660ff8103615dfb57615dfb615c90565b60010192915050565b6020808252602b908201527f496e697469616c697a61626c653a20636f6e7472616374206973206e6f74206960408201526a6e697469616c697a696e6760a81b606082015260800190565b60008251615e618184602087016152de565b9190910192915050565b602081526000612f06602083018461530256fe360894a13ba1a3210667c828492db98dca3e2076cc3735a920a3ca505d382bbc416464726573733a206c6f772d6c6576656c2064656c65676174652063616c6c206661696c6564a2646970667358221220900ae722b24b5f5fe50b053ea0859ccd8ae1ae3a986865f0beafd3983748917064736f6c63430008120033",
  "linkReferences": {},
  "deployedLinkReferences": {}
}