{
  "_format": "hh-sol-artifact-1",
  "contractName": "ReferralV4Upgradeable",
  "sourceName": "contracts/ReferralV4Upgradeable.sol",
  "abi": [
    {
      "anonymous": false,
      "inputs": [
        {
          "indexed": false,
          "internalType": "uint32",
          "name": "id",
          "type": "uint32"
        }
      ],
      "name": "ActivatedId",
      "type": "event"
    },
    {
      "anonymous": false,
      "inputs": [
        {
          "indexed": false,
          "internalType": "uint32",
          "name": "id",
          "type": "uint32"
        },
        {
          "indexed": false,
          "internalType": "uint32",
          "name": "index",
          "type": "uint32"
        },
        {
          "indexed": false,
          "internalType": "uint8",
          "name": "rank",
          "type": "uint8"
        }
      ],
      "name": "AddedInRoyaltyClubList",
      "type": "event"
    },
    {
      "anonymous": false,
      "inputs": [
        {
          "indexed": false,
          "internalType": "address",
          "name": "previousAdmin",
          "type": "address"
        },
        {
          "indexed": false,
          "internalType": "address",
          "name": "newAdmin",
          "type": "address"
        }
      ],
      "name": "AdminChanged",
      "type": "event"
    },
    {
      "anonymous": false,
      "inputs": [
        {
          "indexed": true,
          "internalType": "address",
          "name": "beacon",
          "type": "address"
        }
      ],
      "name": "BeaconUpgraded",
      "type": "event"
    },
    {
      "anonymous": false,
      "inputs": [
        {
          "indexed": false,
          "internalType": "uint32",
          "name": "id",
          "type": "uint32"
        },
        {
          "indexed": false,
          "internalType": "string",
          "name": "reason",
          "type": "string"
        }
      ],
      "name": "DeactivatedId",
      "type": "event"
    },
    {
      "anonymous": false,
      "inputs": [
        {
          "indexed": false,
          "internalType": "uint8",
          "name": "version",
          "type": "uint8"
        }
      ],
      "name": "Initialized",
      "type": "event"
    },
    {
      "anonymous": false,
      "inputs": [
        {
          "indexed": false,
          "internalType": "uint32",
          "name": "id",
          "type": "uint32"
        },
        {
          "indexed": false,
          "internalType": "address",
          "name": "owner",
          "type": "address"
        }
      ],
      "name": "OwnerChangedId",
      "type": "event"
    },
    {
      "anonymous": false,
      "inputs": [
        {
          "indexed": true,
          "internalType": "address",
          "name": "previousOwner",
          "type": "address"
        },
        {
          "indexed": true,
          "internalType": "address",
          "name": "newOwner",
          "type": "address"
        }
      ],
      "name": "OwnershipTransferred",
      "type": "event"
    },
    {
      "anonymous": false,
      "inputs": [
        {
          "indexed": false,
          "internalType": "uint8",
          "name": "packageId",
          "type": "uint8"
        }
      ],
      "name": "PackageAdded",
      "type": "event"
    },
    {
      "anonymous": false,
      "inputs": [
        {
          "indexed": false,
          "internalType": "uint8",
          "name": "packageId",
          "type": "uint8"
        }
      ],
      "name": "PackageRemoved",
      "type": "event"
    },
    {
      "anonymous": false,
      "inputs": [
        {
          "indexed": false,
          "internalType": "uint8",
          "name": "packageId",
          "type": "uint8"
        }
      ],
      "name": "PackageUpdated",
      "type": "event"
    },
    {
      "anonymous": false,
      "inputs": [
        {
          "indexed": true,
          "internalType": "uint32",
          "name": "refererId",
          "type": "uint32"
        },
        {
          "indexed": true,
          "internalType": "uint8",
          "name": "level",
          "type": "uint8"
        },
        {
          "indexed": true,
          "internalType": "string",
          "name": "reason",
          "type": "string"
        }
      ],
      "name": "ReferralNotPaid",
      "type": "event"
    },
    {
      "anonymous": false,
      "inputs": [
        {
          "indexed": true,
          "internalType": "uint32",
          "name": "refereeId",
          "type": "uint32"
        },
        {
          "indexed": true,
          "internalType": "uint32",
          "name": "referrerId",
          "type": "uint32"
        },
        {
          "indexed": true,
          "internalType": "uint256",
          "name": "amount",
          "type": "uint256"
        },
        {
          "indexed": false,
          "internalType": "uint8",
          "name": "level",
          "type": "uint8"
        }
      ],
      "name": "ReferralRewardPaid",
      "type": "event"
    },
    {
      "anonymous": false,
      "inputs": [
        {
          "indexed": true,
          "internalType": "address",
          "name": "refereeId",
          "type": "address"
        },
        {
          "indexed": true,
          "internalType": "address",
          "name": "referrerId",
          "type": "address"
        },
        {
          "indexed": true,
          "internalType": "string",
          "name": "reason",
          "type": "string"
        }
      ],
      "name": "RegisterRefererFailed",
      "type": "event"
    },
    {
      "anonymous": false,
      "inputs": [
        {
          "indexed": true,
          "internalType": "uint32",
          "name": "id",
          "type": "uint32"
        },
        {
          "indexed": true,
          "internalType": "uint32",
          "name": "refererId",
          "type": "uint32"
        }
      ],
      "name": "RegisteredReferer",
      "type": "event"
    },
    {
      "anonymous": false,
      "inputs": [
        {
          "indexed": true,
          "internalType": "uint32",
          "name": "refereeId",
          "type": "uint32"
        },
        {
          "indexed": true,
          "internalType": "uint32",
          "name": "referrerId",
          "type": "uint32"
        },
        {
          "indexed": true,
          "internalType": "uint32",
          "name": "parentAccountId",
          "type": "uint32"
        }
      ],
      "name": "RegisteredTeamAddress",
      "type": "event"
    },
    {
      "anonymous": false,
      "inputs": [
        {
          "indexed": true,
          "internalType": "uint32",
          "name": "userid",
          "type": "uint32"
        },
        {
          "indexed": true,
          "internalType": "uint8",
          "name": "packageId",
          "type": "uint8"
        },
        {
          "indexed": true,
          "internalType": "uint256",
          "name": "amount",
          "type": "uint256"
        }
      ],
      "name": "RoyaltyClubBonusPaid",
      "type": "event"
    },
    {
      "anonymous": false,
      "inputs": [
        {
          "indexed": true,
          "internalType": "address",
          "name": "implementation",
          "type": "address"
        }
      ],
      "name": "Upgraded",
      "type": "event"
    },
    {
      "inputs": [
        {
          "internalType": "uint32",
          "name": "_refererId",
          "type": "uint32"
        }
      ],
      "name": "activateId",
      "outputs": [],
      "stateMutability": "payable",
      "type": "function"
    },
    {
      "inputs": [
        {
          "internalType": "address",
          "name": "_userAddress",
          "type": "address"
        },
        {
          "internalType": "uint32",
          "name": "_refererId",
          "type": "uint32"
        },
        {
          "internalType": "uint256",
          "name": "_valueInUSD",
          "type": "uint256"
        },
        {
          "internalType": "uint256",
          "name": "_activationTime",
          "type": "uint256"
        },
        {
          "internalType": "uint256",
          "name": "_roiStartTime",
          "type": "uint256"
        },
        {
          "internalType": "uint256",
          "name": "_roiResetTime",
          "type": "uint256"
        },
        {
          "internalType": "uint256",
          "name": "_roiDurationInDays",
          "type": "uint256"
        }
      ],
      "name": "activateIdAdmin",
      "outputs": [],
      "stateMutability": "nonpayable",
      "type": "function"
    },
    {
      "inputs": [
        {
          "internalType": "uint32",
          "name": "_id",
          "type": "uint32"
        }
      ],
      "name": "claimBalance",
      "outputs": [],
      "stateMutability": "nonpayable",
      "type": "function"
    },
    {
      "inputs": [],
      "name": "companyTurnoverTimeLimit",
      "outputs": [
        {
          "internalType": "uint256",
          "name": "",
          "type": "uint256"
        }
      ],
      "stateMutability": "view",
      "type": "function"
    },
    {
      "inputs": [],
      "name": "companyTurnoverTimeStamp",
      "outputs": [
        {
          "internalType": "uint256",
          "name": "",
          "type": "uint256"
        }
      ],
      "stateMutability": "view",
      "type": "function"
    },
    {
      "inputs": [],
      "name": "companyTurnoverWithTimeLimit",
      "outputs": [
        {
          "internalType": "uint256",
          "name": "",
          "type": "uint256"
        }
      ],
      "stateMutability": "view",
      "type": "function"
    },
    {
      "inputs": [],
      "name": "decimals",
      "outputs": [
        {
          "internalType": "uint16",
          "name": "",
          "type": "uint16"
        }
      ],
      "stateMutability": "view",
      "type": "function"
    },
    {
      "inputs": [
        {
          "internalType": "uint256",
          "name": "",
          "type": "uint256"
        }
      ],
      "name": "disabledUsersList",
      "outputs": [
        {
          "internalType": "address",
          "name": "",
          "type": "address"
        }
      ],
      "stateMutability": "view",
      "type": "function"
    },
    {
      "inputs": [],
      "name": "futureScureWalletContribution",
      "outputs": [
        {
          "internalType": "uint8",
          "name": "",
          "type": "uint8"
        }
      ],
      "stateMutability": "view",
      "type": "function"
    },
    {
      "inputs": [
        {
          "internalType": "uint8",
          "name": "_packageId",
          "type": "uint8"
        }
      ],
      "name": "getAchieversList",
      "outputs": [
        {
          "internalType": "uint32[]",
          "name": "",
          "type": "uint32[]"
        }
      ],
      "stateMutability": "view",
      "type": "function"
    },
    {
      "inputs": [
        {
          "internalType": "uint32",
          "name": "_id",
          "type": "uint32"
        }
      ],
      "name": "getIdAccount",
      "outputs": [
        {
          "components": [
            {
              "internalType": "uint32",
              "name": "id",
              "type": "uint32"
            },
            {
              "internalType": "string",
              "name": "oldId",
              "type": "string"
            },
            {
              "internalType": "uint256",
              "name": "joiningTime",
              "type": "uint256"
            },
            {
              "internalType": "bool",
              "name": "isAddedToUserList",
              "type": "bool"
            },
            {
              "internalType": "address",
              "name": "owner",
              "type": "address"
            },
            {
              "internalType": "uint32",
              "name": "refererId",
              "type": "uint32"
            },
            {
              "internalType": "bool",
              "name": "hasUpline",
              "type": "bool"
            },
            {
              "internalType": "uint32[]",
              "name": "refereeIds",
              "type": "uint32[]"
            },
            {
              "internalType": "uint32[]",
              "name": "teamIds",
              "type": "uint32[]"
            },
            {
              "internalType": "uint32[]",
              "name": "teamLevel",
              "type": "uint32[]"
            },
            {
              "internalType": "uint256[]",
              "name": "selfBusinessArray",
              "type": "uint256[]"
            },
            {
              "internalType": "uint256",
              "name": "selfBusiness",
              "type": "uint256"
            },
            {
              "internalType": "uint256",
              "name": "selfBusinessOld",
              "type": "uint256"
            },
            {
              "internalType": "uint256",
              "name": "directBusiness",
              "type": "uint256"
            },
            {
              "internalType": "uint256",
              "name": "directBusinessOld",
              "type": "uint256"
            },
            {
              "internalType": "uint256",
              "name": "teamBusiness",
              "type": "uint256"
            },
            {
              "internalType": "uint256",
              "name": "teamBusinessOld",
              "type": "uint256"
            },
            {
              "internalType": "uint256",
              "name": "royaltyClubBusiness",
              "type": "uint256"
            },
            {
              "internalType": "uint256",
              "name": "timeStampRoyaltyClub",
              "type": "uint256"
            },
            {
              "internalType": "uint8",
              "name": "royaltyClubPackageId",
              "type": "uint8"
            },
            {
              "internalType": "uint32",
              "name": "royaltyClubListIndex",
              "type": "uint32"
            },
            {
              "internalType": "uint256",
              "name": "royaltyClubRewardPaid",
              "type": "uint256"
            },
            {
              "internalType": "uint256",
              "name": "topUpIncome",
              "type": "uint256"
            },
            {
              "internalType": "uint256",
              "name": "topUp",
              "type": "uint256"
            },
            {
              "internalType": "uint256",
              "name": "maxLimit",
              "type": "uint256"
            },
            {
              "internalType": "uint256",
              "name": "activationTime",
              "type": "uint256"
            },
            {
              "internalType": "uint256",
              "name": "deactivationTime",
              "type": "uint256"
            },
            {
              "internalType": "uint256",
              "name": "referralPaid",
              "type": "uint256"
            },
            {
              "internalType": "uint32[]",
              "name": "roiIds",
              "type": "uint32[]"
            },
            {
              "internalType": "uint256",
              "name": "roiPaid",
              "type": "uint256"
            },
            {
              "internalType": "uint256",
              "name": "roiClaimedTime",
              "type": "uint256"
            },
            {
              "internalType": "uint256",
              "name": "walletBalance",
              "type": "uint256"
            },
            {
              "internalType": "bool",
              "name": "isActive",
              "type": "bool"
            },
            {
              "internalType": "bool",
              "name": "isROIDisabled",
              "type": "bool"
            },
            {
              "internalType": "bool",
              "name": "isIdVisibilityDisabled",
              "type": "bool"
            },
            {
              "internalType": "bool",
              "name": "canWindraw",
              "type": "bool"
            }
          ],
          "internalType": "struct ReferralV4Upgradeable.StructId",
          "name": "",
          "type": "tuple"
        }
      ],
      "stateMutability": "view",
      "type": "function"
    },
    {
      "inputs": [
        {
          "internalType": "uint32",
          "name": "_id",
          "type": "uint32"
        }
      ],
      "name": "getIdLimits",
      "outputs": [
        {
          "internalType": "uint256",
          "name": "topUpIncome",
          "type": "uint256"
        },
        {
          "internalType": "uint256",
          "name": "topUp",
          "type": "uint256"
        },
        {
          "internalType": "uint256",
          "name": "maxLimit",
          "type": "uint256"
        }
      ],
      "stateMutability": "view",
      "type": "function"
    },
    {
      "inputs": [],
      "name": "getMinContributionETH",
      "outputs": [
        {
          "internalType": "uint256",
          "name": "",
          "type": "uint256"
        }
      ],
      "stateMutability": "view",
      "type": "function"
    },
    {
      "inputs": [
        {
          "internalType": "uint8",
          "name": "_packageId",
          "type": "uint8"
        }
      ],
      "name": "getRoyaltyClubPackageInfo",
      "outputs": [
        {
          "components": [
            {
              "internalType": "uint8",
              "name": "packageId",
              "type": "uint8"
            },
            {
              "internalType": "uint256",
              "name": "selfBusiness",
              "type": "uint256"
            },
            {
              "internalType": "uint256",
              "name": "directBusiness",
              "type": "uint256"
            },
            {
              "internalType": "uint256",
              "name": "teamBusiness",
              "type": "uint256"
            },
            {
              "internalType": "string",
              "name": "rankName",
              "type": "string"
            },
            {
              "internalType": "uint256",
              "name": "reward",
              "type": "uint256"
            },
            {
              "internalType": "uint256",
              "name": "businessLimit",
              "type": "uint256"
            },
            {
              "internalType": "uint256",
              "name": "timeLimit",
              "type": "uint256"
            },
            {
              "internalType": "bool",
              "name": "isPayReccursive",
              "type": "bool"
            },
            {
              "internalType": "uint32[]",
              "name": "achieversList",
              "type": "uint32[]"
            }
          ],
          "internalType": "struct ReferralV4Upgradeable.StructPackages",
          "name": "",
          "type": "tuple"
        }
      ],
      "stateMutability": "view",
      "type": "function"
    },
    {
      "inputs": [
        {
          "internalType": "address",
          "name": "_address",
          "type": "address"
        }
      ],
      "name": "getUserAccount",
      "outputs": [
        {
          "components": [
            {
              "internalType": "bool",
              "name": "isActive",
              "type": "bool"
            },
            {
              "internalType": "uint32[]",
              "name": "accountIds",
              "type": "uint32[]"
            },
            {
              "internalType": "string",
              "name": "userName",
              "type": "string"
            }
          ],
          "internalType": "struct ReferralV4Upgradeable.StructAccount",
          "name": "",
          "type": "tuple"
        }
      ],
      "stateMutability": "view",
      "type": "function"
    },
    {
      "inputs": [
        {
          "internalType": "uint32",
          "name": "_id",
          "type": "uint32"
        },
        {
          "internalType": "uint256",
          "name": "_value",
          "type": "uint256"
        }
      ],
      "name": "increaseIdTopIncome",
      "outputs": [],
      "stateMutability": "nonpayable",
      "type": "function"
    },
    {
      "inputs": [],
      "name": "initialize",
      "outputs": [],
      "stateMutability": "nonpayable",
      "type": "function"
    },
    {
      "inputs": [],
      "name": "isActivateROI",
      "outputs": [
        {
          "internalType": "bool",
          "name": "",
          "type": "bool"
        }
      ],
      "stateMutability": "view",
      "type": "function"
    },
    {
      "inputs": [],
      "name": "isPayReferral",
      "outputs": [
        {
          "internalType": "bool",
          "name": "",
          "type": "bool"
        }
      ],
      "stateMutability": "view",
      "type": "function"
    },
    {
      "inputs": [],
      "name": "isPayRoyaltyClubBonus",
      "outputs": [
        {
          "internalType": "bool",
          "name": "",
          "type": "bool"
        }
      ],
      "stateMutability": "view",
      "type": "function"
    },
    {
      "inputs": [
        {
          "internalType": "uint256",
          "name": "",
          "type": "uint256"
        }
      ],
      "name": "levelRates",
      "outputs": [
        {
          "internalType": "uint16",
          "name": "",
          "type": "uint16"
        }
      ],
      "stateMutability": "view",
      "type": "function"
    },
    {
      "inputs": [],
      "name": "maxLevels",
      "outputs": [
        {
          "internalType": "uint8",
          "name": "",
          "type": "uint8"
        }
      ],
      "stateMutability": "view",
      "type": "function"
    },
    {
      "inputs": [],
      "name": "minContributionUSD",
      "outputs": [
        {
          "internalType": "uint256",
          "name": "",
          "type": "uint256"
        }
      ],
      "stateMutability": "view",
      "type": "function"
    },
    {
      "inputs": [],
      "name": "owner",
      "outputs": [
        {
          "internalType": "address",
          "name": "",
          "type": "address"
        }
      ],
      "stateMutability": "view",
      "type": "function"
    },
    {
      "inputs": [],
      "name": "packagesCount",
      "outputs": [
        {
          "internalType": "uint8",
          "name": "",
          "type": "uint8"
        }
      ],
      "stateMutability": "view",
      "type": "function"
    },
    {
      "inputs": [
        {
          "internalType": "uint256",
          "name": "_value",
          "type": "uint256"
        },
        {
          "internalType": "uint32",
          "name": "_id",
          "type": "uint32"
        }
      ],
      "name": "payReferralAdmin",
      "outputs": [],
      "stateMutability": "nonpayable",
      "type": "function"
    },
    {
      "inputs": [],
      "name": "proxiableUUID",
      "outputs": [
        {
          "internalType": "bytes32",
          "name": "",
          "type": "bytes32"
        }
      ],
      "stateMutability": "view",
      "type": "function"
    },
    {
      "inputs": [],
      "name": "renounceOwnership",
      "outputs": [],
      "stateMutability": "nonpayable",
      "type": "function"
    },
    {
      "inputs": [],
      "name": "royaltyClubPackageCount",
      "outputs": [
        {
          "internalType": "uint8",
          "name": "",
          "type": "uint8"
        }
      ],
      "stateMutability": "view",
      "type": "function"
    },
    {
      "inputs": [
        {
          "internalType": "address",
          "name": "_address",
          "type": "address"
        },
        {
          "internalType": "uint256",
          "name": "_value",
          "type": "uint256"
        }
      ],
      "name": "sendETHAdmin",
      "outputs": [],
      "stateMutability": "nonpayable",
      "type": "function"
    },
    {
      "inputs": [
        {
          "internalType": "uint32[]",
          "name": "_id",
          "type": "uint32[]"
        },
        {
          "internalType": "address[]",
          "name": "_userAddress",
          "type": "address[]"
        }
      ],
      "name": "setIdOwnerAddressAdmin",
      "outputs": [],
      "stateMutability": "nonpayable",
      "type": "function"
    },
    {
      "inputs": [
        {
          "internalType": "uint32[]",
          "name": "_id",
          "type": "uint32[]"
        },
        {
          "internalType": "bool[]",
          "name": "_trueOrFalse",
          "type": "bool[]"
        }
      ],
      "name": "setIdStatusAdmin",
      "outputs": [],
      "stateMutability": "nonpayable",
      "type": "function"
    },
    {
      "inputs": [
        {
          "internalType": "uint16",
          "name": "_value",
          "type": "uint16"
        }
      ],
      "name": "setLevelDecimals",
      "outputs": [],
      "stateMutability": "nonpayable",
      "type": "function"
    },
    {
      "inputs": [
        {
          "internalType": "uint8[]",
          "name": "_value",
          "type": "uint8[]"
        }
      ],
      "name": "setLevelRates",
      "outputs": [],
      "stateMutability": "nonpayable",
      "type": "function"
    },
    {
      "inputs": [
        {
          "internalType": "uint8",
          "name": "_valueDecimals",
          "type": "uint8"
        }
      ],
      "name": "setMaxLevelsAdmin",
      "outputs": [],
      "stateMutability": "nonpayable",
      "type": "function"
    },
    {
      "inputs": [
        {
          "internalType": "uint256",
          "name": "_valueInUSD",
          "type": "uint256"
        }
      ],
      "name": "setMinContribution",
      "outputs": [],
      "stateMutability": "nonpayable",
      "type": "function"
    },
    {
      "inputs": [
        {
          "internalType": "address[]",
          "name": "_userAddress",
          "type": "address[]"
        },
        {
          "internalType": "bool[]",
          "name": "_trueOrFalse",
          "type": "bool[]"
        }
      ],
      "name": "setVisibilityOfAddressAdmin",
      "outputs": [],
      "stateMutability": "nonpayable",
      "type": "function"
    },
    {
      "inputs": [
        {
          "internalType": "uint32[]",
          "name": "_id",
          "type": "uint32[]"
        },
        {
          "internalType": "bool[]",
          "name": "_trueOrFalse",
          "type": "bool[]"
        }
      ],
      "name": "setWithdrawalStatusAdmin",
      "outputs": [],
      "stateMutability": "nonpayable",
      "type": "function"
    },
    {
      "inputs": [
        {
          "internalType": "uint32",
          "name": "_id",
          "type": "uint32"
        }
      ],
      "name": "topUpId",
      "outputs": [],
      "stateMutability": "payable",
      "type": "function"
    },
    {
      "inputs": [],
      "name": "totalIds",
      "outputs": [
        {
          "internalType": "uint32",
          "name": "",
          "type": "uint32"
        }
      ],
      "stateMutability": "view",
      "type": "function"
    },
    {
      "inputs": [],
      "name": "totalReferralPaid",
      "outputs": [
        {
          "internalType": "uint256",
          "name": "",
          "type": "uint256"
        }
      ],
      "stateMutability": "view",
      "type": "function"
    },
    {
      "inputs": [],
      "name": "totalRoyaltyClubBonusPaid",
      "outputs": [
        {
          "internalType": "uint256",
          "name": "",
          "type": "uint256"
        }
      ],
      "stateMutability": "view",
      "type": "function"
    },
    {
      "inputs": [
        {
          "internalType": "address",
          "name": "newOwner",
          "type": "address"
        }
      ],
      "name": "transferOwnership",
      "outputs": [],
      "stateMutability": "nonpayable",
      "type": "function"
    },
    {
      "inputs": [
        {
          "internalType": "uint32",
          "name": "_id",
          "type": "uint32"
        },
        {
          "internalType": "uint256",
          "name": "_value",
          "type": "uint256"
        }
      ],
      "name": "updateIdWhenClaimROI",
      "outputs": [],
      "stateMutability": "nonpayable",
      "type": "function"
    },
    {
      "inputs": [
        {
          "internalType": "address",
          "name": "newImplementation",
          "type": "address"
        }
      ],
      "name": "upgradeTo",
      "outputs": [],
      "stateMutability": "nonpayable",
      "type": "function"
    },
    {
      "inputs": [
        {
          "internalType": "address",
          "name": "newImplementation",
          "type": "address"
        },
        {
          "internalType": "bytes",
          "name": "data",
          "type": "bytes"
        }
      ],
      "name": "upgradeToAndCall",
      "outputs": [],
      "stateMutability": "payable",
      "type": "function"
    },
    {
      "inputs": [
        {
          "internalType": "uint256",
          "name": "",
          "type": "uint256"
        }
      ],
      "name": "users",
      "outputs": [
        {
          "internalType": "address",
          "name": "",
          "type": "address"
        }
      ],
      "stateMutability": "view",
      "type": "function"
    },
    {
      "inputs": [],
      "name": "withdrawETHAdmin",
      "outputs": [],
      "stateMutability": "nonpayable",
      "type": "function"
    },
    {
      "inputs": [
        {
          "internalType": "address",
          "name": "_tokenAddress",
          "type": "address"
        },
        {
          "internalType": "uint256",
          "name": "_value",
          "type": "uint256"
        }
      ],
      "name": "withdrawTokensAdmin",
      "outputs": [],
      "stateMutability": "nonpayable",
      "type": "function"
    },
    {
      "stateMutability": "payable",
      "type": "receive"
    }
  ],
  "bytecode": "0x60a06040523060805234801561001457600080fd5b506080516158d96200004d60003960008181611368015281816113a8015281816119f701528181611a370152611b8e01526158d96000f3fe6080604052600436106102b25760003560e01c80637084431f116101755780638f84de85116100dc578063bcb93f9b11610095578063f2fde38b1161006f578063f2fde38b1461087e578063f41bfeef1461089e578063fafc9597146108b4578063fb47e016146108d657600080fd5b8063bcb93f9b1461082b578063cd21364d1461083e578063e1c715ba1461085e57600080fd5b80638f84de851461077f5780638f8d209014610795578063a0b6105f146107b5578063a152b0f0146107d5578063a28a3686146107e8578063a43ae4081461080b57600080fd5b80637cf97c8c1161012e5780637cf97c8c146106dc5780638129fc1c146106fc578063852ff2fd1461071157806386851e0c146107275780638af925dc146107475780638da5cb5b1461076157600080fd5b80637084431f14610615578063715018a614610644578063721d343f146106595780637879b5ef146106795780637bdbf996146106995780637c599486146106c657600080fd5b8063365b98b2116102195780634f1ef286116101d25780634f1ef2861461056d578063509d6c521461058057806352d1902d146105a05780636ccc10ae146105b55780636de3a95c146105d55780636f38e410146105f557600080fd5b8063365b98b214610480578063390a5ba5146104a05780633eff2def146104d2578063473b0d46146104f2578063498b3e55146105125780634e6e93a31461053257600080fd5b806322f88b521161026b57806322f88b52146103d15780632ed421d2146103e7578063300825b5146103fd578063313ce5671461041d578063357597881461044b5780633659cfe61461046057600080fd5b8063012da720146102be5780630b243dad146102f45780631319cff91461031657806318e10bff1461034e5780631f9e65e41461038157806321009789146103a457600080fd5b366102b957005b600080fd5b3480156102ca57600080fd5b506102de6102d9366004614d21565b610903565b6040516102eb9190614d44565b60405180910390f35b34801561030057600080fd5b5061031461030f366004614da3565b610998565b005b34801561032257600080fd5b50610336610331366004614dcf565b6109db565b6040516001600160a01b0390911681526020016102eb565b34801561035a57600080fd5b5060d55461036f906301000000900460ff1681565b60405160ff90911681526020016102eb565b34801561038d57600080fd5b50610396610a05565b6040519081526020016102eb565b3480156103b057600080fd5b506103c46103bf366004614dfa565b610a17565b6040516102eb9190614ed8565b3480156103dd57600080fd5b5061039660d05481565b3480156103f357600080fd5b5061039660d15481565b34801561040957600080fd5b50610314610418366004614dfa565b610ff8565b34801561042957600080fd5b5060cb546104389061ffff1681565b60405161ffff90911681526020016102eb565b34801561045757600080fd5b50610314611327565b34801561046c57600080fd5b5061031461047b366004615170565b61135e565b34801561048c57600080fd5b5061033661049b366004614dcf565b61143a565b3480156104ac57600080fd5b5060cf546104bd9063ffffffff1681565b60405163ffffffff90911681526020016102eb565b3480156104de57600080fd5b506103146104ed366004614d21565b61144a565b3480156104fe57600080fd5b5061031461050d366004614dcf565b611470565b34801561051e57600080fd5b5061031461052d36600461518d565b61147d565b34801561053e57600080fd5b5061055261054d366004614dfa565b611523565b604080519384526020840192909252908201526060016102eb565b61031461057b3660046151d3565b6119ed565b34801561058c57600080fd5b5061031461059b366004615297565b611ab9565b3480156105ac57600080fd5b50610396611b81565b3480156105c157600080fd5b506103146105d0366004615297565b611c34565b3480156105e157600080fd5b506103146105f0366004615301565b611cdb565b34801561060157600080fd5b5060cb5461036f9062010000900460ff1681565b34801561062157600080fd5b5060d55461063490610100900460ff1681565b60405190151581526020016102eb565b34801561065057600080fd5b50610314611edf565b34801561066557600080fd5b50610314610674366004615301565b611ef3565b34801561068557600080fd5b50610438610694366004614dcf565b61201e565b3480156106a557600080fd5b506106b96106b4366004614d21565b612056565b6040516102eb919061536d565b3480156106d257600080fd5b5061039660ce5481565b3480156106e857600080fd5b506103146106f736600461541b565b612255565b34801561070857600080fd5b50610314612580565b34801561071d57600080fd5b5061039660cd5481565b34801561073357600080fd5b50610314610742366004615301565b612818565b34801561075357600080fd5b5060d5546106349060ff1681565b34801561076d57600080fd5b506033546001600160a01b0316610336565b34801561078b57600080fd5b5061039660cc5481565b3480156107a157600080fd5b506103146107b0366004615301565b612943565b3480156107c157600080fd5b506103146107d0366004614da3565b612a79565b6103146107e3366004614dfa565b612af2565b3480156107f457600080fd5b5060cf5461036f9065010000000000900460ff1681565b34801561081757600080fd5b5061031461082636600461547d565b612d8a565b610314610839366004614dfa565b612daa565b34801561084a57600080fd5b5060d55461036f9062010000900460ff1681565b34801561086a57600080fd5b506103146108793660046154a1565b61304e565b34801561088a57600080fd5b50610314610899366004615170565b613062565b3480156108aa57600080fd5b5061039660d25481565b3480156108c057600080fd5b5060cf5461063490640100000000900460ff1681565b3480156108e257600080fd5b506108f66108f1366004615170565b6130d8565b6040516102eb91906154e3565b60ff8116600090815260d8602090815260409182902060090180548351818402810184019094528084526060939283018282801561098c57602002820191906000526020600020906000905b82829054906101000a900463ffffffff1663ffffffff168152602001906004019060208260030104928301926001038202915080841161094f5790505b50505050509050919050565b6109a061323e565b6040516001600160a01b0383169082156108fc029083906000818181858888f193505050501580156109d6573d6000803e3d6000fd5b505050565b60d381815481106109eb57600080fd5b6000918252602090912001546001600160a01b0316905081565b6000610a1260cc54613298565b905090565b610b4d604051806104800160405280600063ffffffff168152602001606081526020016000815260200160001515815260200160006001600160a01b03168152602001600063ffffffff168152602001600015158152602001606081526020016060815260200160608152602001606081526020016000815260200160008152602001600081526020016000815260200160008152602001600081526020016000815260200160008152602001600060ff168152602001600063ffffffff16815260200160008152602001600081526020016000815260200160008152602001600081526020016000815260200160008152602001606081526020016000815260200160008152602001600081526020016000151581526020016000151581526020016000151581526020016000151581525090565b63ffffffff808316600090815260d76020908152604091829020825161048081019093528054909316825260018301805492939291840191610b8e90615528565b80601f0160208091040260200160405190810160405280929190818152602001828054610bba90615528565b8015610c075780601f10610bdc57610100808354040283529160200191610c07565b820191906000526020600020905b815481529060010190602001808311610bea57829003601f168201915b50505091835250506002820154602080830191909152600383015460ff80821615156040808601919091526001600160a01b03610100840416606086015263ffffffff600160a81b8404166080860152600160c81b90920416151560a084015260048401805482518185028101850190935280835260c0909401939192909190830182828015610ce257602002820191906000526020600020906000905b82829054906101000a900463ffffffff1663ffffffff1681526020019060040190602082600301049283019260010382029150808411610ca55790505b5050505050815260200160058201805480602002602001604051908101604052809291908181526020018280548015610d6657602002820191906000526020600020906000905b82829054906101000a900463ffffffff1663ffffffff1681526020019060040190602082600301049283019260010382029150808411610d295790505b5050505050815260200160068201805480602002602001604051908101604052809291908181526020018280548015610dea57602002820191906000526020600020906000905b82829054906101000a900463ffffffff1663ffffffff1681526020019060040190602082600301049283019260010382029150808411610dad5790505b5050505050815260200160078201805480602002602001604051908101604052809291908181526020018280548015610e4257602002820191906000526020600020905b815481526020019060010190808311610e2e575b505050918352505060088201546020808301919091526009830154604080840191909152600a8401546060840152600b8401546080840152600c84015460a0840152600d84015460c0840152600e84015460e0840152600f84015461010080850191909152601085015460ff81166101208601520463ffffffff166101408401526011840154610160840152601284015461018084015260138401546101a084015260148401546101c084015260158401546101e084015260168401546102008401526017840154610220840152601884018054825181850281018501909352808352610240909401939192909190830182828015610f8c57602002820191906000526020600020906000905b82829054906101000a900463ffffffff1663ffffffff1681526020019060040190602082600301049283019260010382029150808411610f4f5790505b505050918352505060198201546020820152601a8201546040820152601b8201546060820152601c9091015460ff8082161515608084015261010082048116151560a08401526201000082048116151560c0840152630100000090910416151560e09091015292915050565b63ffffffff8116600090815260d760205260409081902060c9549151630935e01b60e21b815233600482015290916001600160a01b0316906324d7806c90602401602060405180830381865afa158015611056573d6000803e3d6000fd5b505050506040513d601f19601f8201168201806040525081019061107a9190615570565b6111b957600381015461010090046001600160a01b031633146110e45760405162461bcd60e51b815260206004820152601d60248201527f596f7520617265206e6f74206f776e6572206f6620746869732069642e00000060448201526064015b60405180910390fd5b678ac7230489e8000081601b0154101561114c5760405162461bcd60e51b8152602060048201526024808201527f42616c616e6365206973206c657373207468616e206d696e20776974686472616044820152633bb0b61760e11b60648201526084016110db565b601c8101546301000000900460ff166111b95760405162461bcd60e51b815260206004820152602960248201527f54686973206964207769746864726177206973206e6f7420656e61626c656420604482015268313c9030b236b4b71760b91b60648201526084016110db565b601b81015460d5546000906064906111da9062010000900460ff16846155a3565b6111e491906155ba565b905060c960009054906101000a90046001600160a01b03166001600160a01b031662f9cc666040518163ffffffff1660e01b8152600401602060405180830381865afa158015611238573d6000803e3d6000fd5b505050506040513d601f19601f8201168201806040525081019061125c91906155dc565b6003840154604051633528777d60e11b81526001600160a01b036101009092048216600482015260248101849052911690636a50eefa90604401600060405180830381600087803b1580156112b057600080fd5b505af11580156112c4573d6000803e3d6000fd5b50505050600383015461010090046001600160a01b03166108fc6112f06112eb84866155f9565b613298565b6040518115909202916000818181858888f19350505050158015611318573d6000803e3d6000fd5b5082601b016000905550505050565b61132f61323e565b60405133904780156108fc02916000818181858888f1935050505015801561135b573d6000803e3d6000fd5b50565b6001600160a01b037f00000000000000000000000000000000000000000000000000000000000000001630036113a65760405162461bcd60e51b81526004016110db9061560c565b7f00000000000000000000000000000000000000000000000000000000000000006001600160a01b03166113ef60008051602061585d833981519152546001600160a01b031690565b6001600160a01b0316146114155760405162461bcd60e51b81526004016110db90615658565b61141e81613396565b6040805160008082526020820190925261135b9183919061339e565b60d481815481106109eb57600080fd5b61145261323e565b60cb805460ff909216620100000262ff000019909216919091179055565b61147861323e565b60cc55565b60c954604051630935e01b60e21b81523360048201526001600160a01b03909116906324d7806c90602401602060405180830381865afa1580156114c5573d6000803e3d6000fd5b505050506040513d601f19601f820116820180604052508101906114e99190615570565b6115055760405162461bcd60e51b81526004016110db906156a4565b60d554610100900460ff161561151f5761151f8282613509565b5050565b63ffffffff808216600090815260d76020908152604080832081516104808101909252805490941681526001840180549394859485948594939084019161156990615528565b80601f016020809104026020016040519081016040528092919081815260200182805461159590615528565b80156115e25780601f106115b7576101008083540402835291602001916115e2565b820191906000526020600020905b8154815290600101906020018083116115c557829003601f168201915b50505091835250506002820154602080830191909152600383015460ff80821615156040808601919091526001600160a01b03610100840416606086015263ffffffff600160a81b8404166080860152600160c81b90920416151560a084015260048401805482518185028101850190935280835260c09094019391929091908301828280156116bd57602002820191906000526020600020906000905b82829054906101000a900463ffffffff1663ffffffff16815260200190600401906020826003010492830192600103820291508084116116805790505b505050505081526020016005820180548060200260200160405190810160405280929190818152602001828054801561174157602002820191906000526020600020906000905b82829054906101000a900463ffffffff1663ffffffff16815260200190600401906020826003010492830192600103820291508084116117045790505b50505050508152602001600682018054806020026020016040519081016040528092919081815260200182805480156117c557602002820191906000526020600020906000905b82829054906101000a900463ffffffff1663ffffffff16815260200190600401906020826003010492830192600103820291508084116117885790505b505050505081526020016007820180548060200260200160405190810160405280929190818152602001828054801561181d57602002820191906000526020600020905b815481526020019060010190808311611809575b505050918352505060088201546020808301919091526009830154604080840191909152600a8401546060840152600b8401546080840152600c84015460a0840152600d84015460c0840152600e84015460e0840152600f84015461010080850191909152601085015460ff81166101208601520463ffffffff166101408401526011840154610160840152601284015461018084015260138401546101a084015260148401546101c084015260158401546101e08401526016840154610200840152601784015461022084015260188401805482518185028101850190935280835261024090940193919290919083018282801561196757602002820191906000526020600020906000905b82829054906101000a900463ffffffff1663ffffffff168152602001906004019060208260030104928301926001038202915080841161192a5790505b505050918352505060198201546020820152601a8201546040820152601b8201546060820152601c9091015460ff8082161515608084015261010082048116151560a08401526201000082048116151560c0840152630100000090910416151560e0909101526102c08101516102e0820151610300909201519097919650945092505050565b6001600160a01b037f0000000000000000000000000000000000000000000000000000000000000000163003611a355760405162461bcd60e51b81526004016110db9061560c565b7f00000000000000000000000000000000000000000000000000000000000000006001600160a01b0316611a7e60008051602061585d833981519152546001600160a01b031690565b6001600160a01b031614611aa45760405162461bcd60e51b81526004016110db90615658565b611aad82613396565b61151f8282600161339e565b60c954604051630935e01b60e21b81523360048201526001600160a01b03909116906324d7806c90602401602060405180830381865afa158015611b01573d6000803e3d6000fd5b505050506040513d601f19601f82011682018060405250810190611b259190615570565b611b415760405162461bcd60e51b81526004016110db906156a4565b63ffffffff8216600090815260d76020526040812042601a82015560198101805491928492611b719084906156d0565b909155506109d6905081836138dd565b6000306001600160a01b037f00000000000000000000000000000000000000000000000000000000000000001614611c215760405162461bcd60e51b815260206004820152603860248201527f555550535570677261646561626c653a206d757374206e6f742062652063616c60448201527f6c6564207468726f7567682064656c656761746563616c6c000000000000000060648201526084016110db565b5060008051602061585d83398151915290565b60c954604051630935e01b60e21b81523360048201526001600160a01b03909116906324d7806c90602401602060405180830381865afa158015611c7c573d6000803e3d6000fd5b505050506040513d601f19601f82011682018060405250810190611ca09190615570565b611cbc5760405162461bcd60e51b81526004016110db906156a4565b63ffffffff8216600090815260d7602052604090206109d681836138dd565b60c954604051630935e01b60e21b81523360048201526001600160a01b03909116906324d7806c90602401602060405180830381865afa158015611d23573d6000803e3d6000fd5b505050506040513d601f19601f82011682018060405250810190611d479190615570565b611d635760405162461bcd60e51b81526004016110db906156a4565b60005b61ffff8116841115611ed85782828261ffff16818110611d8857611d886156e3565b9050602002016020810190611d9d9190615170565b60d7600087878561ffff16818110611db757611db76156e3565b9050602002016020810190611dcc9190614dfa565b63ffffffff1663ffffffff16815260200190815260200160002060030160016101000a8154816001600160a01b0302191690836001600160a01b0316021790555060d6600084848461ffff16818110611e2757611e276156e3565b9050602002016020810190611e3c9190615170565b6001600160a01b03166001600160a01b0316815260200190815260200160002060010185858361ffff16818110611e7557611e756156e3565b9050602002016020810190611e8a9190614dfa565b8154600181018355600092835260209092206008830401805460079093166004026101000a63ffffffff81810219909416929093169290920217905580611ed0816156f9565b915050611d66565b5050505050565b611ee761323e565b611ef16000613967565b565b60c954604051630935e01b60e21b81523360048201526001600160a01b03909116906324d7806c90602401602060405180830381865afa158015611f3b573d6000803e3d6000fd5b505050506040513d601f19601f82011682018060405250810190611f5f9190615570565b611f7b5760405162461bcd60e51b81526004016110db906156a4565b60005b61ffff8116841115611ed85782828261ffff16818110611fa057611fa06156e3565b9050602002016020810190611fb5919061571a565b60d7600087878561ffff16818110611fcf57611fcf6156e3565b9050602002016020810190611fe49190614dfa565b63ffffffff1681526020810191909152604001600020601c01805460ff191691151591909117905580612016816156f9565b915050611f7e565b60ca818154811061202e57600080fd5b9060005260206000209060109182820401919006600202915054906101000a900461ffff1681565b6120b1604051806101400160405280600060ff16815260200160008152602001600081526020016000815260200160608152602001600081526020016000815260200160008152602001600015158152602001606081525090565b60ff808316600090815260d86020908152604091829020825161014081018452815490941684526001810154918401919091526002810154918301919091526003810154606083015260048101805460808401919061210f90615528565b80601f016020809104026020016040519081016040528092919081815260200182805461213b90615528565b80156121885780601f1061215d57610100808354040283529160200191612188565b820191906000526020600020905b81548152906001019060200180831161216b57829003601f168201915b505050505081526020016005820154815260200160068201548152602001600782015481526020016008820160009054906101000a900460ff161515151581526020016009820180548060200260200160405190810160405280929190818152602001828054801561224557602002820191906000526020600020906000905b82829054906101000a900463ffffffff1663ffffffff16815260200190600401906020826003010492830192600103820291508084116122085790505b5050505050815250509050919050565b60c954604051630935e01b60e21b81523360048201526001600160a01b03909116906324d7806c90602401602060405180830381865afa15801561229d573d6000803e3d6000fd5b505050506040513d601f19601f820116820180604052508101906122c19190615570565b6122dd5760405162461bcd60e51b81526004016110db906156a4565b60cf546000906122f49063ffffffff166001615737565b6001600160a01b038916600090815260d66020908152604080832063ffffffff8516845260d7909252909120919250904261237a828c868d61233e8e670de0b6b3a76400006155a3565b6123508f670de0b6b3a76400006155a3565b61235b9060036155a3565b8e15612367578e612369565b875b60cb5462010000900460ff166139b9565b60d55460ff16156125045760c954604080516344846f9d60e11b815290516000926001600160a01b031691638908df3a9160048083019260209291908290030181865afa1580156123cf573d6000803e3d6000fd5b505050506040513d601f19601f820116820180604052508101906123f391906155dc565b6001600160a01b031663d275f14e866124148d670de0b6b3a76400006155a3565b8b15612420578b612422565b855b8b1561242e578b612430565b865b61243d8c620151806155a3565b6040516001600160e01b031960e088901b16815263ffffffff959095166004860152602485019390935260448401919091526064830152608482015260a4016020604051808303816000875af115801561249b573d6000803e3d6000fd5b505050506040513d601f19601f820116820180604052508101906124bf919061575b565b601884018054600181018255600091825260209091206008820401805460079092166004026101000a63ffffffff818102199093169390921691909102919091179055505b6001838101805491820181556000908152602081206008830401805460079093166004026101000a63ffffffff818102199094168885169190910217905560cf8054909216919061255483615778565b91906101000a81548163ffffffff021916908363ffffffff160217905550505050505050505050505050565b600054610100900460ff16158080156125a05750600054600160ff909116105b806125ba5750303b1580156125ba575060005460ff166001145b61261d5760405162461bcd60e51b815260206004820152602e60248201527f496e697469616c697a61626c653a20636f6e747261637420697320616c72656160448201526d191e481a5b9a5d1a585b1a5e995960921b60648201526084016110db565b6000805460ff191660011790558015612640576000805461ff0019166101001790555b60c980546001600160a01b031916730b8bf5feb9fca57d9c5d27185ddf3017e99a2d3617905560cb805461ffff19166103e8179055604080516103a08101825260648152604660208201526032918101829052606081018290526080810182905260a0810182905260c0810182905260e08101829052610100810182905261012081018290526101408101829052610160810182905261018081018290526101a081018290526101c081018290526101e08101829052610200810182905261022081018290526102408101919091526014610260820181905261028082018190526102a082018190526102c082018190526102e08201819052610300820181905261032082018190526103408201819052610360820181905261038082015261276d9060ca90601d614b5c565b5060cb805462ff000019166232000017905568056bc75e2d6310000060cc5560cf8054660200000000000066ff00ff000000001990911617905560d5805462278d0060d25562ffffff1916621401011790556127c7613d3b565b6127cf613d6a565b801561135b576000805461ff0019169055604051600181527f7f26b83ff96e1f2b6a682f133852f6798a09c465da95921460cefb3847402498906020015b60405180910390a150565b60c954604051630935e01b60e21b81523360048201526001600160a01b03909116906324d7806c90602401602060405180830381865afa158015612860573d6000803e3d6000fd5b505050506040513d601f19601f820116820180604052508101906128849190615570565b6128a05760405162461bcd60e51b81526004016110db906156a4565b60005b61ffff8116841115611ed85782828261ffff168181106128c5576128c56156e3565b90506020020160208101906128da919061571a565b60d6600087878561ffff168181106128f4576128f46156e3565b90506020020160208101906129099190615170565b6001600160a01b031681526020810191909152604001600020805460ff19169115159190911790558061293b816156f9565b9150506128a3565b60c954604051630935e01b60e21b81523360048201526001600160a01b03909116906324d7806c90602401602060405180830381865afa15801561298b573d6000803e3d6000fd5b505050506040513d601f19601f820116820180604052508101906129af9190615570565b6129cb5760405162461bcd60e51b81526004016110db906156a4565b60005b61ffff8116841115611ed85782828261ffff168181106129f0576129f06156e3565b9050602002016020810190612a05919061571a565b60d7600087878561ffff16818110612a1f57612a1f6156e3565b9050602002016020810190612a349190614dfa565b63ffffffff1681526020810191909152604001600020601c01805491151563010000000263ff0000001990921691909117905580612a71816156f9565b9150506129ce565b612a8161323e565b60405163a9059cbb60e01b8152336004820152602481018290526001600160a01b0383169063a9059cbb906044016020604051808303816000875af1158015612ace573d6000803e3d6000fd5b505050506040513d601f19601f820116820180604052508101906109d69190615570565b346000612afe82613d91565b905060cc54811015612b525760405162461bcd60e51b815260206004820152601f60248201527f56616c7565206c657373207468656e206d696e436f6e747269627574696f6e0060448201526064016110db565b63ffffffff8316600090815260d7602052604081203391429190612b778560036155a3565b82601201548360140154612b8b91906155f9565b612b9591906156d0565b90506000600383601401546002612bac91906155a3565b612bb691906155ba565b836012015410612bc7576000612bff565b60038360120154600385601401546002612be191906155a3565b612beb91906155ba565b612bf591906155f9565b612bff91906155ba565b9050612c2483868a60008a878a60cb60029054906101000a900460ff1660ff166139b9565b60d55460ff1615612d805760c954604080516344846f9d60e11b815290516000926001600160a01b031691638908df3a9160048083019260209291908290030181865afa158015612c79573d6000803e3d6000fd5b505050506040513d601f19601f82011682018060405250810190612c9d91906155dc565b6001600160a01b031663d275f14e8a612cb6858b6156d0565b6040516001600160e01b031960e085901b16815263ffffffff9290921660048301526024820152604481018890526064810188905263020f5800608482015260a4016020604051808303816000875af1158015612d17573d6000803e3d6000fd5b505050506040513d601f19601f82011682018060405250810190612d3b919061575b565b601885018054600181018255600091825260209091206008820401805460079092166004026101000a63ffffffff818102199093169390921691909102919091179055505b5050505050505050565b612d9261323e565b60cb805461ffff191661ffff92909216919091179055565b346000612db682613d91565b905060cc54811015612e0a5760405162461bcd60e51b815260206004820152601f60248201527f56616c7565206c657373207468656e206d696e436f6e747269627574696f6e0060448201526064016110db565b60cf5433904290600090612e259063ffffffff166001615737565b6001600160a01b038416600090815260d66020908152604080832063ffffffff8516845260d790925290912091925090612e7b8186858b8a612e688160036155a3565b60cb548b9062010000900460ff166139b9565b60d55460ff1615612fca5760c954604080516344846f9d60e11b815290516000926001600160a01b031691638908df3a9160048083019260209291908290030181865afa158015612ed0573d6000803e3d6000fd5b505050506040513d601f19601f82011682018060405250810190612ef491906155dc565b60405163693af8a760e11b815263ffffffff8616600482015260248101899052604481018790526064810187905263020f580060848201526001600160a01b03919091169063d275f14e9060a4016020604051808303816000875af1158015612f61573d6000803e3d6000fd5b505050506040513d601f19601f82011682018060405250810190612f85919061575b565b601883018054600181018255600091825260209091206008820401805460079092166004026101000a63ffffffff818102199093169390921691909102919091179055505b6001828101805480830182556000918252602082206008820401805460079092166004026101000a63ffffffff8181021990931688841691909102179055845460ff1916909217845560cf8054909216919061302583615778565b91906101000a81548163ffffffff021916908363ffffffff160217905550505050505050505050565b61305661323e565b6109d660ca8383614c04565b61306a61323e565b6001600160a01b0381166130cf5760405162461bcd60e51b815260206004820152602660248201527f4f776e61626c653a206e6577206f776e657220697320746865207a65726f206160448201526564647265737360d01b60648201526084016110db565b61135b81613967565b6130fe604051806060016040528060001515815260200160608152602001606081525090565b6001600160a01b038216600090815260d660209081526040918290208251606081018452815460ff1615158152600182018054855181860281018601909652808652919492938581019392908301828280156131a557602002820191906000526020600020906000905b82829054906101000a900463ffffffff1663ffffffff16815260200190600401906020826003010492830192600103820291508084116131685790505b505050505081526020016002820180546131be90615528565b80601f01602080910402602001604051908101604052809291908181526020018280546131ea90615528565b80156122455780601f1061320c57610100808354040283529160200191612245565b820191906000526020600020905b81548152906001019060200180831161321a57505050919092525091949350505050565b6033546001600160a01b03163314611ef15760405162461bcd60e51b815260206004820181905260248201527f4f776e61626c653a2063616c6c6572206973206e6f7420746865206f776e657260448201526064016110db565b60008060c960009054906101000a90046001600160a01b03166001600160a01b0316632913497b6040518163ffffffff1660e01b8152600401602060405180830381865afa1580156132ee573d6000803e3d6000fd5b505050506040513d601f19601f8201168201806040525081019061331291906155dc565b6001600160a01b031663e1aa60366040518163ffffffff1660e01b8152600401602060405180830381865afa15801561334f573d6000803e3d6000fd5b505050506040513d601f19601f820116820180604052508101906133739190615791565b61338584670de0b6b3a76400006155a3565b61338f91906155ba565b9392505050565b61135b61323e565b7f4910fdfa16fed3260ed0e7147f7cc6da11a60208b5b9406d12a635614ffd91435460ff16156133d1576109d683613e7f565b826001600160a01b03166352d1902d6040518163ffffffff1660e01b8152600401602060405180830381865afa92505050801561342b575060408051601f3d908101601f1916820190925261342891810190615791565b60015b61348e5760405162461bcd60e51b815260206004820152602e60248201527f45524331393637557067726164653a206e657720696d706c656d656e7461746960448201526d6f6e206973206e6f74205555505360901b60648201526084016110db565b60008051602061585d83398151915281146134fd5760405162461bcd60e51b815260206004820152602960248201527f45524331393637557067726164653a20756e737570706f727465642070726f786044820152681a58589b195555525160ba1b60648201526084016110db565b506109d6838383613f1b565b600060ca80548060200260200160405190810160405280929190818152602001828054801561357f57602002820191906000526020600020906000905b82829054906101000a900461ffff1661ffff16815260200190600201906020826001010492830192600103820291508084116135465790505b5050835163ffffffff8716600090815260d7602052604081209596509094935091508190505b8360ff168160ff1610156138bd57600383015463ffffffff600160a81b9091048116600081815260d760205260408120805492939092169003613650576040516f2932b0b1b432b2103a379034b210181760811b81526010015b6040519081900390206136138460016157aa565b60ff168363ffffffff167f915ed47901013ad29e90ede828f72888f54bd58cea141b0c6967498165382eb560405160405180910390a450506138bd565b600381015463ffffffff808416600160a81b90920416036136a3576040517f53656c6620526566657220696420776f6e27742067657420726566657272616c8152601760f91b60208201526021016135ff565b6136ac81613f46565b156137235760405172149959995c995c881a5cc8111a5cd8589b1959606a1b81526013016040519081900390206136e48460016157aa565b60ff168363ffffffff167f915ed47901013ad29e90ede828f72888f54bd58cea141b0c6967498165382eb560405160405180910390a493506138ab9050565b600481015415801590613766575060cf54600482015460ff8086169260019261375a926601000000000000909204909116906155a3565b61376491906155f9565b115b156138335760cb54875160009161ffff1690899060ff871690811061378d5761378d6156e3565b602002602001015161ffff168b6137a491906155a3565b6137ae91906155ba565b9050808260170160008282546137c491906156d0565b909155506137d4905082826138dd565b6137de81866156d0565b94508063ffffffff808516908b167ff8fb9b5ab69a0208214661678427c6b48abf457f53605d1f559d17452f1eea116138188860016157aa565b60405160ff909116815260200160405180910390a4506138a7565b6040517f446f776e6c696e65206c6576656c73206c696d697420726561636865640000008152601d016040519081900390206138708460016157aa565b60ff168363ffffffff167f915ed47901013ad29e90ede828f72888f54bd58cea141b0c6967498165382eb560405160405180910390a45b9350505b806138b5816157c3565b9150506135a5565b508060ce60008282546138d091906156d0565b9091555050505050505050565b81601401548183601201546138f291906156d0565b11613931578082601201600082825461390b91906156d0565b925050819055508082601b01600082825461392691906156d0565b9091555061151f9050565b8160120154826014015461394591906155f9565b82601b01600082825461395891906156d0565b9091555061151f9050826140c7565b603380546001600160a01b038381166001600160a01b0319831681179093556040519116919082907f8be0079c531659141344cd1fd0a4f28419497f9722a3daafe3b4186f6b6457e090600090a35050565b875463ffffffff166000036139dc57875463ffffffff191663ffffffff87161788555b601c88015460ff166139f857601c8801805460ff191660011790555b600388015460ff16613a505760d480546001810182556000919091527f9780e26d96b1f2a9a18ef8fc72d589dbf03ef788137b64f43897e83a91e7feec0180546001600160a01b0319166001600160a01b0389161790555b600388015461010090046001600160a01b0316613a8a57600388018054610100600160a81b0319166101006001600160a01b038a16021790555b8760020154600003613a9e57600288018290555b6003880154600160c81b900460ff16613ae25760038801805460ff60c81b1963ffffffff8816600160a81b021664ffffffffff60a81b1990911617600160c81b1790555b60006012890155613af46003846155ba565b60138901556014880183905560078801805460018101825560009182526020822001859055600889018054869290613b2d9084906156d0565b9091555050601588018290556040805160008152602081019182905251613b589160188b0191614c6f565b50601c8801805463ff0000001916630100000017905560005b818160ff161015613d3057600389015463ffffffff600160a81b9091048116600081815260d760205260408120805492939092169003613bb2575050613d30565b8260ff16600003613c14578681600a016000828254613bd191906156d0565b909155505060048181018054600181018255600091825260209091206008820401805460079092169092026101000a63ffffffff81810219909216918c16021790555b8681600c016000828254613c2891906156d0565b909155505063ffffffff881615613cfc5760058101805460018082018355600092835260209092206008820401805460079092166004026101000a63ffffffff81810219909316928d16029190911790556006820190613c899085906157aa565b81546001810183556000928352602083206008820401805463ffffffff60079093166004026101000a8381021990911660ff9490941602929092179091558254604051908216928b8316928d16917f3ec54e926fe5dd86406fe57832ff318517aed2a5cfbeacfb90a5e9489483ae4b9190a45b60cf54640100000000900460ff1615613d1a57613d1a81888761416f565b9950819050613d28816157c3565b915050613b71565b50612d8084836148c9565b600054610100900460ff16613d625760405162461bcd60e51b81526004016110db906157e2565b611ef1614903565b600054610100900460ff16611ef15760405162461bcd60e51b81526004016110db906157e2565b600080670de0b6b3a764000060c960009054906101000a90046001600160a01b03166001600160a01b0316632913497b6040518163ffffffff1660e01b8152600401602060405180830381865afa158015613df0573d6000803e3d6000fd5b505050506040513d601f19601f82011682018060405250810190613e1491906155dc565b6001600160a01b031663e1aa60366040518163ffffffff1660e01b8152600401602060405180830381865afa158015613e51573d6000803e3d6000fd5b505050506040513d601f19601f82011682018060405250810190613e759190615791565b61338590856155a3565b6001600160a01b0381163b613eec5760405162461bcd60e51b815260206004820152602d60248201527f455243313936373a206e657720696d706c656d656e746174696f6e206973206e60448201526c1bdd08184818dbdb9d1c9858dd609a1b60648201526084016110db565b60008051602061585d83398151915280546001600160a01b0319166001600160a01b0392909216919091179055565b613f2483614933565b600082511180613f315750805b156109d657613f408383614973565b50505050565b601c81015460009060ff161580613f6557508160140154826012015410155b15613f7257506001919050565b6018820154158015906140b2575060c960009054906101000a90046001600160a01b03166001600160a01b0316638908df3a6040518163ffffffff1660e01b8152600401602060405180830381865afa158015613fd3573d6000803e3d6000fd5b505050506040513d601f19601f82011682018060405250810190613ff791906155dc565b6001600160a01b03166355332a85836018016001856018018054905061401d91906155f9565b8154811061402d5761402d6156e3565b6000918252602090912060088204015460405160e084901b6001600160e01b0319168152600790921660049081026101000a90910463ffffffff1690820152602401602060405180830381865afa15801561408c573d6000803e3d6000fd5b505050506040513d601f19601f820116820180604052508101906140b09190615570565b155b156140bf57506001919050565b506000919050565b601c8101805460ff1916905560408051600081526020810191829052516140f2916018840191614c6f565b5060006012820181905560138201819055601482015542601682015580546040805163ffffffff9092168252602082018190526011908201527013585e08131a5b5a5d0814995858da1959607a1b60608201527fce8ab8f2ac6a94861f9740fa1fed3e6d13a85dfd8a4833bf96f3a0055ba7fb6f9060800161280d565b6010830154604080516104808101909152845463ffffffff16815260018501805460ff90931692614615929187916020840191906141ac90615528565b80601f01602080910402602001604051908101604052809291908181526020018280546141d890615528565b80156142255780601f106141fa57610100808354040283529160200191614225565b820191906000526020600020905b81548152906001019060200180831161420857829003601f168201915b50505091835250506002820154602080830191909152600383015460ff80821615156040808601919091526001600160a01b03610100840416606086015263ffffffff600160a81b8404166080860152600160c81b90920416151560a084015260048401805482518185028101850190935280835260c090940193919290919083018282801561430057602002820191906000526020600020906000905b82829054906101000a900463ffffffff1663ffffffff16815260200190600401906020826003010492830192600103820291508084116142c35790505b505050505081526020016005820180548060200260200160405190810160405280929190818152602001828054801561438457602002820191906000526020600020906000905b82829054906101000a900463ffffffff1663ffffffff16815260200190600401906020826003010492830192600103820291508084116143475790505b505050505081526020016006820180548060200260200160405190810160405280929190818152602001828054801561440857602002820191906000526020600020906000905b82829054906101000a900463ffffffff1663ffffffff16815260200190600401906020826003010492830192600103820291508084116143cb5790505b505050505081526020016007820180548060200260200160405190810160405280929190818152602001828054801561446057602002820191906000526020600020905b81548152602001906001019080831161444c575b505050918352505060088201546020808301919091526009830154604080840191909152600a8401546060840152600b8401546080840152600c84015460a0840152600d84015460c0840152600e84015460e0840152600f84015461010080850191909152601085015460ff81166101208601520463ffffffff166101408401526011840154610160840152601284015461018084015260138401546101a084015260148401546101c084015260158401546101e0840152601684015461020084015260178401546102208401526018840180548251818502810185019093528083526102409094019391929091908301828280156145aa57602002820191906000526020600020906000905b82829054906101000a900463ffffffff1663ffffffff168152602001906004019060208260030104928301926001038202915080841161456d5790505b505050918352505060198201546020820152601a8201546040820152601b8201546060820152601c9091015460ff8082161515608084015261010082048116151560a08401526201000082048116151560c0840152630100000090910416151560e090910152614a69565b60ff1611156109d657604080516104808101909152835463ffffffff168152600184018054614650929186916020840191906141ac90615528565b60108401805460ff191660ff9283169081178255600090815260d860209081526040808320885460099182018054600181810183559187529486206008860401805463ffffffff60079097166004026101000a87810219909116969093169092029490941790559354909416825292902001546146cd91906155f9565b60108401805464ffffffff0019811661010063ffffffff948516810291821793849055875460408051918716825291909404909416602084015260ff918216911617918101919091527f4d3af8f60ffd033b575846f894122f2342b39bc9a90da98d0a966128702b568d9060600160405180910390a1604080516104808101909152835463ffffffff16815260018401805460d89260009261477992889160208401916141ac90615528565b60ff9081168252602082019290925260400160002060080154161561483857604080516104808101909152835463ffffffff16815260018401805460d8926000926147ce92889160208401916141ac90615528565b60ff1660ff1681526020019081526020016000206007015483600f01546147f591906156d0565b811115614824578083600f01819055508183600e01600082825461481991906156d0565b909155506109d69050565b8183600e01600082825461481991906156d0565b60cf54640100000000900460ff16156109d657601083015460ff16600090815260d860205260409020600501546148709084906138dd565b601083015460ff908116600090815260d8602052604080822060058101549054875492519194169263ffffffff909216917fdeaf5b294f5016988108257045fc779d7d01e05a4ecdc4df70f62d5a799e053b91a4505050565b60d25460d1546148d991906156d0565b8111156148e85760d15560d055565b8160d060008282546148fa91906156d0565b90915550505050565b600054610100900460ff1661492a5760405162461bcd60e51b81526004016110db906157e2565b611ef133613967565b61493c81613e7f565b6040516001600160a01b038216907fbc7cd75a20ee27fd9adebab32041f755214dbc6bffa90cc0225b39da2e5c2d3b90600090a250565b60606001600160a01b0383163b6149db5760405162461bcd60e51b815260206004820152602660248201527f416464726573733a2064656c65676174652063616c6c20746f206e6f6e2d636f6044820152651b9d1c9858dd60d21b60648201526084016110db565b600080846001600160a01b0316846040516149f6919061582d565b600060405180830381855af49150503d8060008114614a31576040519150601f19603f3d011682016040523d82523d6000602084013e614a36565b606091505b5091509150614a5e828260405180606001604052806027815260200161587d60279139614b1e565b925050505b92915050565b60d5546000906301000000900460ff16815b8160ff168160ff161015614b175760ff8116600090815260d8602052604090206001015461016085015110801590614acd575060ff8116600090815260d860205260409020600201546101a085015110155b8015614af3575060ff8116600090815260d860205260409020600301546101e085015110155b15614b0057809250614b05565b614b17565b80614b0f816157c3565b915050614a7b565b5050919050565b60608315614b2d57508161338f565b61338f8383815115614b425781518083602001fd5b8060405162461bcd60e51b81526004016110db9190615849565b82805482825590600052602060002090600f01601090048101928215614bf45791602002820160005b83821115614bc457835183826101000a81548161ffff021916908360ff1602179055509260200192600201602081600101049283019260010302614b85565b8015614bf25782816101000a81549061ffff0219169055600201602081600101049283019260010302614bc4565b505b50614c00929150614d0c565b5090565b82805482825590600052602060002090600f01601090048101928215614bf45791602002820160005b83821115614bc457833560ff1683826101000a81548161ffff021916908360ff1602179055509260200192600201602081600101049283019260010302614c2d565b82805482825590600052602060002090600701600890048101928215614bf45791602002820160005b83821115614cdc57835183826101000a81548163ffffffff021916908363ffffffff1602179055509260200192600401602081600301049283019260010302614c98565b8015614bf25782816101000a81549063ffffffff0219169055600401602081600301049283019260010302614cdc565b5b80821115614c005760008155600101614d0d565b600060208284031215614d3357600080fd5b813560ff8116811461338f57600080fd5b6020808252825182820181905260009190848201906040850190845b81811015614d8257835163ffffffff1683529284019291840191600101614d60565b50909695505050505050565b6001600160a01b038116811461135b57600080fd5b60008060408385031215614db657600080fd5b8235614dc181614d8e565b946020939093013593505050565b600060208284031215614de157600080fd5b5035919050565b63ffffffff8116811461135b57600080fd5b600060208284031215614e0c57600080fd5b813561338f81614de8565b60005b83811015614e32578181015183820152602001614e1a565b50506000910152565b60008151808452614e53816020860160208601614e17565b601f01601f19169290920160200192915050565b600081518084526020808501945080840160005b83811015614e9d57815163ffffffff1687529582019590820190600101614e7b565b509495945050505050565b600081518084526020808501945080840160005b83811015614e9d57815187529582019590820190600101614ebc565b60208152614eef60208201835163ffffffff169052565b60006020830151610480806040850152614f0d6104a0850183614e3b565b9150604085015160608501526060850151614f2c608086018215159052565b5060808501516001600160a01b03811660a08601525060a085015163ffffffff811660c08601525060c085015180151560e08601525060e0850151601f19610100818786030181880152614f808584614e67565b945080880151925050610120818786030181880152614f9f8584614e67565b945080880151925050610140818786030181880152614fbe8584614e67565b945080880151925050610160818786030181880152614fdd8584614ea8565b90880151610180888101919091528801516101a0808901919091528801516101c0808901919091528801516101e08089019190915288015161020080890191909152880151610220808901919091528801516102408089019190915288015161026080890191909152880151909450915061028061505f8188018460ff169052565b87015191506102a06150788782018463ffffffff169052565b8701516102c0878101919091528701516102e080880191909152870151610300808801919091528701516103208088019190915287015161034080880191909152870151610360808801919091528701516103808088019190915287015186850382016103a0808901919091529092506150f28584614e67565b908801516103c0888101919091528801516103e08089019190915288015161040080890191909152880151909450915061042090506151348187018315159052565b86015190506104406151498682018315159052565b860151905061046061515e8682018315159052565b90950151151593019290925250919050565b60006020828403121561518257600080fd5b813561338f81614d8e565b600080604083850312156151a057600080fd5b8235915060208301356151b281614de8565b809150509250929050565b634e487b7160e01b600052604160045260246000fd5b600080604083850312156151e657600080fd5b82356151f181614d8e565b9150602083013567ffffffffffffffff8082111561520e57600080fd5b818501915085601f83011261522257600080fd5b813581811115615234576152346151bd565b604051601f8201601f19908116603f0116810190838211818310171561525c5761525c6151bd565b8160405282815288602084870101111561527557600080fd5b8260208601602083013760006020848301015280955050505050509250929050565b600080604083850312156152aa57600080fd5b8235614dc181614de8565b60008083601f8401126152c757600080fd5b50813567ffffffffffffffff8111156152df57600080fd5b6020830191508360208260051b85010111156152fa57600080fd5b9250929050565b6000806000806040858703121561531757600080fd5b843567ffffffffffffffff8082111561532f57600080fd5b61533b888389016152b5565b9096509450602087013591508082111561535457600080fd5b50615361878288016152b5565b95989497509550505050565b6020815261538160208201835160ff169052565b602082015160408201526040820151606082015260608201516080820152600060808301516101408060a08501526153bd610160850183614e3b565b915060a085015160c085015260c085015160e085015260e08501516101008181870152808701519150506101206153f78187018315159052565b860151858403601f19018387015290506154118382614e67565b9695505050505050565b600080600080600080600060e0888a03121561543657600080fd5b873561544181614d8e565b9650602088013561545181614de8565b96999698505050506040850135946060810135946080820135945060a0820135935060c0909101359150565b60006020828403121561548f57600080fd5b813561ffff8116811461338f57600080fd5b600080602083850312156154b457600080fd5b823567ffffffffffffffff8111156154cb57600080fd5b6154d7858286016152b5565b90969095509350505050565b60208152815115156020820152600060208301516060604084015261550b6080840182614e67565b90506040840151601f19848303016060850152614a5e8282614e3b565b600181811c9082168061553c57607f821691505b60208210810361555c57634e487b7160e01b600052602260045260246000fd5b50919050565b801515811461135b57600080fd5b60006020828403121561558257600080fd5b815161338f81615562565b634e487b7160e01b600052601160045260246000fd5b8082028115828204841417614a6357614a6361558d565b6000826155d757634e487b7160e01b600052601260045260246000fd5b500490565b6000602082840312156155ee57600080fd5b815161338f81614d8e565b81810381811115614a6357614a6361558d565b6020808252602c908201527f46756e6374696f6e206d7573742062652063616c6c6564207468726f7567682060408201526b19195b1959d85d1958d85b1b60a21b606082015260800190565b6020808252602c908201527f46756e6374696f6e206d7573742062652063616c6c6564207468726f7567682060408201526b6163746976652070726f787960a01b606082015260800190565b6020808252601290820152712cb7ba9030b932903737ba1030b236b4b71760711b604082015260600190565b80820180821115614a6357614a6361558d565b634e487b7160e01b600052603260045260246000fd5b600061ffff8083168181036157105761571061558d565b6001019392505050565b60006020828403121561572c57600080fd5b813561338f81615562565b63ffffffff8181168382160190808211156157545761575461558d565b5092915050565b60006020828403121561576d57600080fd5b815161338f81614de8565b600063ffffffff8083168181036157105761571061558d565b6000602082840312156157a357600080fd5b5051919050565b60ff8181168382160190811115614a6357614a6361558d565b600060ff821660ff81036157d9576157d961558d565b60010192915050565b6020808252602b908201527f496e697469616c697a61626c653a20636f6e7472616374206973206e6f74206960408201526a6e697469616c697a696e6760a81b606082015260800190565b6000825161583f818460208701614e17565b9190910192915050565b60208152600061338f6020830184614e3b56fe360894a13ba1a3210667c828492db98dca3e2076cc3735a920a3ca505d382bbc416464726573733a206c6f772d6c6576656c2064656c65676174652063616c6c206661696c6564a2646970667358221220749071097ba1ed2b0cd80d628e9d706142628f3c9731fb514678d833e44b8dd964736f6c63430008120033",
  "linkReferences": {},
  "deployedLinkReferences": {}
}