{
  "_format": "hh-sol-artifact-1",
  "contractName": "ReferralV4Upgradeable",
  "sourceName": "contracts/ReferralV4Upgradeable.sol",
  "abi": [
    {
      "anonymous": false,
      "inputs": [
        {
          "indexed": false,
          "internalType": "uint32",
          "name": "id",
          "type": "uint32"
        }
      ],
      "name": "ActivatedId",
      "type": "event"
    },
    {
      "anonymous": false,
      "inputs": [
        {
          "indexed": false,
          "internalType": "uint32",
          "name": "id",
          "type": "uint32"
        },
        {
          "indexed": false,
          "internalType": "uint32",
          "name": "index",
          "type": "uint32"
        },
        {
          "indexed": false,
          "internalType": "uint8",
          "name": "rank",
          "type": "uint8"
        }
      ],
      "name": "AddedInRoyaltyClubList",
      "type": "event"
    },
    {
      "anonymous": false,
      "inputs": [
        {
          "indexed": false,
          "internalType": "address",
          "name": "previousAdmin",
          "type": "address"
        },
        {
          "indexed": false,
          "internalType": "address",
          "name": "newAdmin",
          "type": "address"
        }
      ],
      "name": "AdminChanged",
      "type": "event"
    },
    {
      "anonymous": false,
      "inputs": [
        {
          "indexed": true,
          "internalType": "address",
          "name": "beacon",
          "type": "address"
        }
      ],
      "name": "BeaconUpgraded",
      "type": "event"
    },
    {
      "anonymous": false,
      "inputs": [
        {
          "indexed": false,
          "internalType": "uint32",
          "name": "id",
          "type": "uint32"
        },
        {
          "indexed": false,
          "internalType": "string",
          "name": "reason",
          "type": "string"
        }
      ],
      "name": "DeactivatedId",
      "type": "event"
    },
    {
      "anonymous": false,
      "inputs": [
        {
          "indexed": false,
          "internalType": "uint8",
          "name": "version",
          "type": "uint8"
        }
      ],
      "name": "Initialized",
      "type": "event"
    },
    {
      "anonymous": false,
      "inputs": [
        {
          "indexed": false,
          "internalType": "uint32",
          "name": "id",
          "type": "uint32"
        },
        {
          "indexed": false,
          "internalType": "address",
          "name": "owner",
          "type": "address"
        }
      ],
      "name": "OwnerChangedId",
      "type": "event"
    },
    {
      "anonymous": false,
      "inputs": [
        {
          "indexed": true,
          "internalType": "address",
          "name": "previousOwner",
          "type": "address"
        },
        {
          "indexed": true,
          "internalType": "address",
          "name": "newOwner",
          "type": "address"
        }
      ],
      "name": "OwnershipTransferred",
      "type": "event"
    },
    {
      "anonymous": false,
      "inputs": [
        {
          "indexed": false,
          "internalType": "uint8",
          "name": "packageId",
          "type": "uint8"
        }
      ],
      "name": "PackageAdded",
      "type": "event"
    },
    {
      "anonymous": false,
      "inputs": [
        {
          "indexed": false,
          "internalType": "uint8",
          "name": "packageId",
          "type": "uint8"
        }
      ],
      "name": "PackageRemoved",
      "type": "event"
    },
    {
      "anonymous": false,
      "inputs": [
        {
          "indexed": false,
          "internalType": "uint8",
          "name": "packageId",
          "type": "uint8"
        }
      ],
      "name": "PackageUpdated",
      "type": "event"
    },
    {
      "anonymous": false,
      "inputs": [
        {
          "indexed": true,
          "internalType": "uint32",
          "name": "refererId",
          "type": "uint32"
        },
        {
          "indexed": true,
          "internalType": "uint8",
          "name": "level",
          "type": "uint8"
        },
        {
          "indexed": true,
          "internalType": "string",
          "name": "reason",
          "type": "string"
        }
      ],
      "name": "ReferralNotPaid",
      "type": "event"
    },
    {
      "anonymous": false,
      "inputs": [
        {
          "indexed": true,
          "internalType": "uint32",
          "name": "refereeId",
          "type": "uint32"
        },
        {
          "indexed": true,
          "internalType": "uint32",
          "name": "referrerId",
          "type": "uint32"
        },
        {
          "indexed": true,
          "internalType": "uint256",
          "name": "amount",
          "type": "uint256"
        },
        {
          "indexed": false,
          "internalType": "uint8",
          "name": "level",
          "type": "uint8"
        }
      ],
      "name": "ReferralRewardPaid",
      "type": "event"
    },
    {
      "anonymous": false,
      "inputs": [
        {
          "indexed": true,
          "internalType": "address",
          "name": "refereeId",
          "type": "address"
        },
        {
          "indexed": true,
          "internalType": "address",
          "name": "referrerId",
          "type": "address"
        },
        {
          "indexed": true,
          "internalType": "string",
          "name": "reason",
          "type": "string"
        }
      ],
      "name": "RegisterRefererFailed",
      "type": "event"
    },
    {
      "anonymous": false,
      "inputs": [
        {
          "indexed": true,
          "internalType": "uint32",
          "name": "id",
          "type": "uint32"
        },
        {
          "indexed": true,
          "internalType": "uint32",
          "name": "refererId",
          "type": "uint32"
        }
      ],
      "name": "RegisteredReferer",
      "type": "event"
    },
    {
      "anonymous": false,
      "inputs": [
        {
          "indexed": true,
          "internalType": "uint32",
          "name": "refereeId",
          "type": "uint32"
        },
        {
          "indexed": true,
          "internalType": "uint32",
          "name": "referrerId",
          "type": "uint32"
        },
        {
          "indexed": true,
          "internalType": "uint32",
          "name": "parentAccountId",
          "type": "uint32"
        }
      ],
      "name": "RegisteredTeamAddress",
      "type": "event"
    },
    {
      "anonymous": false,
      "inputs": [
        {
          "indexed": true,
          "internalType": "uint32",
          "name": "userid",
          "type": "uint32"
        },
        {
          "indexed": true,
          "internalType": "uint8",
          "name": "packageId",
          "type": "uint8"
        },
        {
          "indexed": true,
          "internalType": "uint256",
          "name": "amount",
          "type": "uint256"
        }
      ],
      "name": "RoyaltyClubBonusPaid",
      "type": "event"
    },
    {
      "anonymous": false,
      "inputs": [
        {
          "indexed": true,
          "internalType": "address",
          "name": "implementation",
          "type": "address"
        }
      ],
      "name": "Upgraded",
      "type": "event"
    },
    {
      "inputs": [
        {
          "internalType": "uint32",
          "name": "_refererId",
          "type": "uint32"
        }
      ],
      "name": "activateId",
      "outputs": [],
      "stateMutability": "payable",
      "type": "function"
    },
    {
      "inputs": [
        {
          "internalType": "uint32",
          "name": "_id",
          "type": "uint32"
        },
        {
          "internalType": "uint256",
          "name": "_valueInUSD",
          "type": "uint256"
        }
      ],
      "name": "claimBalance",
      "outputs": [],
      "stateMutability": "nonpayable",
      "type": "function"
    },
    {
      "inputs": [],
      "name": "companyTurnoverTimeLimit",
      "outputs": [
        {
          "internalType": "uint256",
          "name": "",
          "type": "uint256"
        }
      ],
      "stateMutability": "view",
      "type": "function"
    },
    {
      "inputs": [],
      "name": "companyTurnoverTimeStamp",
      "outputs": [
        {
          "internalType": "uint256",
          "name": "",
          "type": "uint256"
        }
      ],
      "stateMutability": "view",
      "type": "function"
    },
    {
      "inputs": [],
      "name": "companyTurnoverWithTimeLimit",
      "outputs": [
        {
          "internalType": "uint256",
          "name": "",
          "type": "uint256"
        }
      ],
      "stateMutability": "view",
      "type": "function"
    },
    {
      "inputs": [],
      "name": "decimals",
      "outputs": [
        {
          "internalType": "uint16",
          "name": "",
          "type": "uint16"
        }
      ],
      "stateMutability": "view",
      "type": "function"
    },
    {
      "inputs": [
        {
          "internalType": "address",
          "name": "_userAddress",
          "type": "address"
        }
      ],
      "name": "disableUserAdmin",
      "outputs": [],
      "stateMutability": "nonpayable",
      "type": "function"
    },
    {
      "inputs": [
        {
          "internalType": "uint256",
          "name": "",
          "type": "uint256"
        }
      ],
      "name": "disabledUsersList",
      "outputs": [
        {
          "internalType": "address",
          "name": "",
          "type": "address"
        }
      ],
      "stateMutability": "view",
      "type": "function"
    },
    {
      "inputs": [],
      "name": "futureScureWalletContribution",
      "outputs": [
        {
          "internalType": "uint8",
          "name": "",
          "type": "uint8"
        }
      ],
      "stateMutability": "view",
      "type": "function"
    },
    {
      "inputs": [
        {
          "internalType": "uint8",
          "name": "_packageId",
          "type": "uint8"
        }
      ],
      "name": "getAchieversList",
      "outputs": [
        {
          "internalType": "uint32[]",
          "name": "",
          "type": "uint32[]"
        }
      ],
      "stateMutability": "view",
      "type": "function"
    },
    {
      "inputs": [
        {
          "internalType": "uint32",
          "name": "_id",
          "type": "uint32"
        }
      ],
      "name": "getIdAccount",
      "outputs": [
        {
          "components": [
            {
              "internalType": "uint32",
              "name": "id",
              "type": "uint32"
            },
            {
              "internalType": "string",
              "name": "oldId",
              "type": "string"
            },
            {
              "internalType": "uint256",
              "name": "joiningTime",
              "type": "uint256"
            },
            {
              "internalType": "bool",
              "name": "isAddedToUserList",
              "type": "bool"
            },
            {
              "internalType": "address",
              "name": "owner",
              "type": "address"
            },
            {
              "internalType": "uint32",
              "name": "refererId",
              "type": "uint32"
            },
            {
              "internalType": "bool",
              "name": "hasUpline",
              "type": "bool"
            },
            {
              "internalType": "uint32[]",
              "name": "refereeIds",
              "type": "uint32[]"
            },
            {
              "internalType": "uint32[]",
              "name": "teamIds",
              "type": "uint32[]"
            },
            {
              "internalType": "uint32[]",
              "name": "teamLevel",
              "type": "uint32[]"
            },
            {
              "internalType": "uint256[]",
              "name": "selfBusinessArray",
              "type": "uint256[]"
            },
            {
              "internalType": "uint256",
              "name": "selfBusiness",
              "type": "uint256"
            },
            {
              "internalType": "uint256",
              "name": "selfBusinessOld",
              "type": "uint256"
            },
            {
              "internalType": "uint256",
              "name": "directBusiness",
              "type": "uint256"
            },
            {
              "internalType": "uint256",
              "name": "directBusinessOld",
              "type": "uint256"
            },
            {
              "internalType": "uint256",
              "name": "teamBusiness",
              "type": "uint256"
            },
            {
              "internalType": "uint256",
              "name": "teamBusinessOld",
              "type": "uint256"
            },
            {
              "internalType": "uint256",
              "name": "royaltyClubBusiness",
              "type": "uint256"
            },
            {
              "internalType": "uint256",
              "name": "timeStampRoyaltyClub",
              "type": "uint256"
            },
            {
              "internalType": "uint8",
              "name": "royaltyClubPackageId",
              "type": "uint8"
            },
            {
              "internalType": "uint32",
              "name": "royaltyClubListIndex",
              "type": "uint32"
            },
            {
              "internalType": "uint256",
              "name": "royaltyClubRewardPaid",
              "type": "uint256"
            },
            {
              "internalType": "uint256",
              "name": "topUpIncome",
              "type": "uint256"
            },
            {
              "internalType": "uint256",
              "name": "topUp",
              "type": "uint256"
            },
            {
              "internalType": "uint256",
              "name": "maxLimit",
              "type": "uint256"
            },
            {
              "internalType": "uint256",
              "name": "activationTime",
              "type": "uint256"
            },
            {
              "internalType": "uint256",
              "name": "deactivationTime",
              "type": "uint256"
            },
            {
              "internalType": "uint256",
              "name": "referralPaid",
              "type": "uint256"
            },
            {
              "internalType": "uint32[]",
              "name": "roiIds",
              "type": "uint32[]"
            },
            {
              "internalType": "uint256",
              "name": "roiPaid",
              "type": "uint256"
            },
            {
              "internalType": "uint256",
              "name": "roiClaimedTime",
              "type": "uint256"
            },
            {
              "internalType": "uint256",
              "name": "walletBalance",
              "type": "uint256"
            },
            {
              "internalType": "bool",
              "name": "isActive",
              "type": "bool"
            },
            {
              "internalType": "bool",
              "name": "isROIDisabled",
              "type": "bool"
            },
            {
              "internalType": "bool",
              "name": "isIdVisibilityDisabled",
              "type": "bool"
            },
            {
              "internalType": "bool",
              "name": "canWindraw",
              "type": "bool"
            }
          ],
          "internalType": "struct ReferralV4Upgradeable.StructId",
          "name": "",
          "type": "tuple"
        }
      ],
      "stateMutability": "view",
      "type": "function"
    },
    {
      "inputs": [
        {
          "internalType": "uint32",
          "name": "_id",
          "type": "uint32"
        }
      ],
      "name": "getIdLimits",
      "outputs": [
        {
          "internalType": "uint256",
          "name": "topUpIncome",
          "type": "uint256"
        },
        {
          "internalType": "uint256",
          "name": "topUp",
          "type": "uint256"
        },
        {
          "internalType": "uint256",
          "name": "maxLimit",
          "type": "uint256"
        }
      ],
      "stateMutability": "view",
      "type": "function"
    },
    {
      "inputs": [
        {
          "internalType": "uint32",
          "name": "_id",
          "type": "uint32"
        }
      ],
      "name": "getIdRoyaltyClubLevel",
      "outputs": [
        {
          "internalType": "uint256",
          "name": "",
          "type": "uint256"
        }
      ],
      "stateMutability": "view",
      "type": "function"
    },
    {
      "inputs": [],
      "name": "getMinContributionETH",
      "outputs": [
        {
          "internalType": "uint256",
          "name": "",
          "type": "uint256"
        }
      ],
      "stateMutability": "view",
      "type": "function"
    },
    {
      "inputs": [
        {
          "internalType": "uint8",
          "name": "_packageId",
          "type": "uint8"
        }
      ],
      "name": "getRoyaltyClubPackageInfo",
      "outputs": [
        {
          "components": [
            {
              "internalType": "uint8",
              "name": "packageId",
              "type": "uint8"
            },
            {
              "internalType": "uint256",
              "name": "selfBusiness",
              "type": "uint256"
            },
            {
              "internalType": "uint256",
              "name": "directBusiness",
              "type": "uint256"
            },
            {
              "internalType": "uint256",
              "name": "teamBusiness",
              "type": "uint256"
            },
            {
              "internalType": "string",
              "name": "rankName",
              "type": "string"
            },
            {
              "internalType": "uint256",
              "name": "reward",
              "type": "uint256"
            },
            {
              "internalType": "uint256",
              "name": "businessLimit",
              "type": "uint256"
            },
            {
              "internalType": "uint256",
              "name": "timeLimit",
              "type": "uint256"
            },
            {
              "internalType": "bool",
              "name": "isPayReccursive",
              "type": "bool"
            },
            {
              "internalType": "uint32[]",
              "name": "achieversList",
              "type": "uint32[]"
            }
          ],
          "internalType": "struct ReferralV4Upgradeable.StructPackages",
          "name": "",
          "type": "tuple"
        }
      ],
      "stateMutability": "view",
      "type": "function"
    },
    {
      "inputs": [
        {
          "internalType": "address",
          "name": "_address",
          "type": "address"
        }
      ],
      "name": "getUserAccount",
      "outputs": [
        {
          "components": [
            {
              "internalType": "bool",
              "name": "isActive",
              "type": "bool"
            },
            {
              "internalType": "uint32[]",
              "name": "accountIds",
              "type": "uint32[]"
            },
            {
              "internalType": "string",
              "name": "userName",
              "type": "string"
            }
          ],
          "internalType": "struct ReferralV4Upgradeable.StructAccount",
          "name": "",
          "type": "tuple"
        }
      ],
      "stateMutability": "view",
      "type": "function"
    },
    {
      "inputs": [
        {
          "internalType": "uint32",
          "name": "_id",
          "type": "uint32"
        },
        {
          "internalType": "uint256",
          "name": "_value",
          "type": "uint256"
        }
      ],
      "name": "increaseIdTopIncome",
      "outputs": [],
      "stateMutability": "nonpayable",
      "type": "function"
    },
    {
      "inputs": [],
      "name": "initialize",
      "outputs": [],
      "stateMutability": "nonpayable",
      "type": "function"
    },
    {
      "inputs": [],
      "name": "isActivateROI",
      "outputs": [
        {
          "internalType": "bool",
          "name": "",
          "type": "bool"
        }
      ],
      "stateMutability": "view",
      "type": "function"
    },
    {
      "inputs": [],
      "name": "isPayReferral",
      "outputs": [
        {
          "internalType": "bool",
          "name": "",
          "type": "bool"
        }
      ],
      "stateMutability": "view",
      "type": "function"
    },
    {
      "inputs": [],
      "name": "isPayRoyaltyClubBonus",
      "outputs": [
        {
          "internalType": "bool",
          "name": "",
          "type": "bool"
        }
      ],
      "stateMutability": "view",
      "type": "function"
    },
    {
      "inputs": [
        {
          "internalType": "uint256",
          "name": "",
          "type": "uint256"
        }
      ],
      "name": "levelRates",
      "outputs": [
        {
          "internalType": "uint16",
          "name": "",
          "type": "uint16"
        }
      ],
      "stateMutability": "view",
      "type": "function"
    },
    {
      "inputs": [],
      "name": "maxLevels",
      "outputs": [
        {
          "internalType": "uint8",
          "name": "",
          "type": "uint8"
        }
      ],
      "stateMutability": "view",
      "type": "function"
    },
    {
      "inputs": [],
      "name": "minContributionUSD",
      "outputs": [
        {
          "internalType": "uint256",
          "name": "",
          "type": "uint256"
        }
      ],
      "stateMutability": "view",
      "type": "function"
    },
    {
      "inputs": [],
      "name": "owner",
      "outputs": [
        {
          "internalType": "address",
          "name": "",
          "type": "address"
        }
      ],
      "stateMutability": "view",
      "type": "function"
    },
    {
      "inputs": [],
      "name": "packagesCount",
      "outputs": [
        {
          "internalType": "uint8",
          "name": "",
          "type": "uint8"
        }
      ],
      "stateMutability": "view",
      "type": "function"
    },
    {
      "inputs": [
        {
          "internalType": "uint256",
          "name": "_value",
          "type": "uint256"
        },
        {
          "internalType": "uint32",
          "name": "_id",
          "type": "uint32"
        }
      ],
      "name": "payReferralAdmin",
      "outputs": [],
      "stateMutability": "nonpayable",
      "type": "function"
    },
    {
      "inputs": [],
      "name": "proxiableUUID",
      "outputs": [
        {
          "internalType": "bytes32",
          "name": "",
          "type": "bytes32"
        }
      ],
      "stateMutability": "view",
      "type": "function"
    },
    {
      "inputs": [],
      "name": "renounceOwnership",
      "outputs": [],
      "stateMutability": "nonpayable",
      "type": "function"
    },
    {
      "inputs": [
        {
          "internalType": "uint16",
          "name": "_from",
          "type": "uint16"
        },
        {
          "internalType": "uint16",
          "name": "_to",
          "type": "uint16"
        }
      ],
      "name": "resetTeamBusiness",
      "outputs": [],
      "stateMutability": "nonpayable",
      "type": "function"
    },
    {
      "inputs": [],
      "name": "royaltyClubPackageCount",
      "outputs": [
        {
          "internalType": "uint8",
          "name": "",
          "type": "uint8"
        }
      ],
      "stateMutability": "view",
      "type": "function"
    },
    {
      "inputs": [
        {
          "internalType": "address",
          "name": "_address",
          "type": "address"
        },
        {
          "internalType": "uint256",
          "name": "_value",
          "type": "uint256"
        }
      ],
      "name": "sendETHAdmin",
      "outputs": [],
      "stateMutability": "nonpayable",
      "type": "function"
    },
    {
      "inputs": [
        {
          "internalType": "uint16",
          "name": "_value",
          "type": "uint16"
        }
      ],
      "name": "setLevelDecimals",
      "outputs": [],
      "stateMutability": "nonpayable",
      "type": "function"
    },
    {
      "inputs": [
        {
          "internalType": "uint8[]",
          "name": "_value",
          "type": "uint8[]"
        }
      ],
      "name": "setLevelRates",
      "outputs": [],
      "stateMutability": "nonpayable",
      "type": "function"
    },
    {
      "inputs": [
        {
          "internalType": "uint8",
          "name": "_valueDecimals",
          "type": "uint8"
        }
      ],
      "name": "setMaxLevelsAdmin",
      "outputs": [],
      "stateMutability": "nonpayable",
      "type": "function"
    },
    {
      "inputs": [
        {
          "internalType": "uint256",
          "name": "_valueInUSD",
          "type": "uint256"
        }
      ],
      "name": "setMinContribution",
      "outputs": [],
      "stateMutability": "nonpayable",
      "type": "function"
    },
    {
      "inputs": [
        {
          "internalType": "uint8",
          "name": "packageId",
          "type": "uint8"
        },
        {
          "internalType": "uint256",
          "name": "selfBusiness",
          "type": "uint256"
        },
        {
          "internalType": "uint256",
          "name": "directBusiness",
          "type": "uint256"
        },
        {
          "internalType": "uint256",
          "name": "teamBusiness",
          "type": "uint256"
        },
        {
          "internalType": "string",
          "name": "rankName",
          "type": "string"
        },
        {
          "internalType": "uint256",
          "name": "reward",
          "type": "uint256"
        },
        {
          "internalType": "uint256",
          "name": "businessLimit",
          "type": "uint256"
        },
        {
          "internalType": "uint256",
          "name": "timeLimit",
          "type": "uint256"
        },
        {
          "internalType": "bool",
          "name": "isPayReccursive",
          "type": "bool"
        }
      ],
      "name": "setRoyaltyClubPackage",
      "outputs": [],
      "stateMutability": "nonpayable",
      "type": "function"
    },
    {
      "inputs": [
        {
          "internalType": "uint8",
          "name": "_valueDecimals",
          "type": "uint8"
        }
      ],
      "name": "setRoyaltyPackageCount",
      "outputs": [],
      "stateMutability": "nonpayable",
      "type": "function"
    },
    {
      "inputs": [
        {
          "internalType": "uint32",
          "name": "_id",
          "type": "uint32"
        }
      ],
      "name": "topUpId",
      "outputs": [],
      "stateMutability": "payable",
      "type": "function"
    },
    {
      "inputs": [],
      "name": "totalIds",
      "outputs": [
        {
          "internalType": "uint32",
          "name": "",
          "type": "uint32"
        }
      ],
      "stateMutability": "view",
      "type": "function"
    },
    {
      "inputs": [],
      "name": "totalReferralPaid",
      "outputs": [
        {
          "internalType": "uint256",
          "name": "",
          "type": "uint256"
        }
      ],
      "stateMutability": "view",
      "type": "function"
    },
    {
      "inputs": [],
      "name": "totalRoyaltyClubBonusPaid",
      "outputs": [
        {
          "internalType": "uint256",
          "name": "",
          "type": "uint256"
        }
      ],
      "stateMutability": "view",
      "type": "function"
    },
    {
      "inputs": [
        {
          "internalType": "address",
          "name": "newOwner",
          "type": "address"
        }
      ],
      "name": "transferOwnership",
      "outputs": [],
      "stateMutability": "nonpayable",
      "type": "function"
    },
    {
      "inputs": [
        {
          "internalType": "uint32",
          "name": "_id",
          "type": "uint32"
        },
        {
          "internalType": "uint256",
          "name": "_value",
          "type": "uint256"
        }
      ],
      "name": "updateIdWhenClaimROI",
      "outputs": [],
      "stateMutability": "nonpayable",
      "type": "function"
    },
    {
      "inputs": [
        {
          "internalType": "uint16",
          "name": "_from",
          "type": "uint16"
        },
        {
          "internalType": "uint16",
          "name": "_to",
          "type": "uint16"
        }
      ],
      "name": "updateTeamBusinessAdmin",
      "outputs": [],
      "stateMutability": "nonpayable",
      "type": "function"
    },
    {
      "inputs": [
        {
          "internalType": "uint32",
          "name": "_value",
          "type": "uint32"
        }
      ],
      "name": "updateTotalIds",
      "outputs": [],
      "stateMutability": "nonpayable",
      "type": "function"
    },
    {
      "inputs": [
        {
          "internalType": "address",
          "name": "newImplementation",
          "type": "address"
        }
      ],
      "name": "upgradeTo",
      "outputs": [],
      "stateMutability": "nonpayable",
      "type": "function"
    },
    {
      "inputs": [
        {
          "internalType": "address",
          "name": "newImplementation",
          "type": "address"
        },
        {
          "internalType": "bytes",
          "name": "data",
          "type": "bytes"
        }
      ],
      "name": "upgradeToAndCall",
      "outputs": [],
      "stateMutability": "payable",
      "type": "function"
    },
    {
      "inputs": [
        {
          "internalType": "uint256",
          "name": "",
          "type": "uint256"
        }
      ],
      "name": "users",
      "outputs": [
        {
          "internalType": "address",
          "name": "",
          "type": "address"
        }
      ],
      "stateMutability": "view",
      "type": "function"
    },
    {
      "inputs": [],
      "name": "withdrawETHAdmin",
      "outputs": [],
      "stateMutability": "nonpayable",
      "type": "function"
    },
    {
      "inputs": [
        {
          "internalType": "address",
          "name": "_tokenAddress",
          "type": "address"
        },
        {
          "internalType": "uint256",
          "name": "_value",
          "type": "uint256"
        }
      ],
      "name": "withdrawTokensAdmin",
      "outputs": [],
      "stateMutability": "nonpayable",
      "type": "function"
    },
    {
      "stateMutability": "payable",
      "type": "receive"
    }
  ],
  "bytecode": "0x60a06040523060805234801561001457600080fd5b50608051615d806200004d600039600081816110af015281816110f80152818161181f0152818161185f01526119e60152615d806000f3fe6080604052600436106102e85760003560e01c80637084431f11610190578063a0b6105f116100dc578063cd21364d11610095578063f31a2d0f1161006f578063f31a2d0f146108f4578063f41bfeef14610914578063fafc95971461092a578063fb47e0161461094c57600080fd5b8063cd21364d14610894578063e1c715ba146108b4578063f2fde38b146108d457600080fd5b8063a0b6105f146107eb578063a152b0f01461080b578063a28a36861461081e578063a43ae40814610841578063b845b6c914610861578063bcb93f9b1461088157600080fd5b80638129fc1c116101495780638da5cb5b116101235780638da5cb5b146107775780638f84de8514610795578063987dd4a7146107ab5780639f4e8398146107cb57600080fd5b80638129fc1c14610732578063852ff2fd146107475780638af925dc1461075d57600080fd5b80637084431f1461066b578063715018a61461069a578063738fd071146106af5780637879b5ef146106cf5780637bdbf996146106ef5780637c5994861461071c57600080fd5b8063390a5ba51161024f5780634e6e93a31161020857806352d1902d116101e257806352d1902d146105f65780635979369a1461060b5780636ccc10ae1461062b5780636f38e4101461064b57600080fd5b80634e6e93a3146105885780634f1ef286146105c3578063509d6c52146105d657600080fd5b8063390a5ba5146104b65780633eff2def146104e8578063473b0d4614610508578063498b3e55146105285780634a750822146105485780634b5102b81461056857600080fd5b806322f88b52116102a157806322f88b52146104075780632ed421d21461041d578063313ce5671461043357806335759788146104615780633659cfe614610476578063365b98b21461049657600080fd5b8063012da720146102f45780630b243dad1461032a5780631319cff91461034c57806318e10bff146103845780631f9e65e4146103b757806321009789146103da57600080fd5b366102ef57005b600080fd5b34801561030057600080fd5b5061031461030f3660046150bc565b610979565b60405161032191906150d7565b60405180910390f35b34801561033657600080fd5b5061034a610345366004615136565b610a0e565b005b34801561035857600080fd5b5061036c610367366004615162565b610a51565b6040516001600160a01b039091168152602001610321565b34801561039057600080fd5b5060d5546103a5906301000000900460ff1681565b60405160ff9091168152602001610321565b3480156103c357600080fd5b506103cc610a7b565b604051908152602001610321565b3480156103e657600080fd5b506103fa6103f536600461518d565b610a8d565b604051610321919061526b565b34801561041357600080fd5b506103cc60d05481565b34801561042957600080fd5b506103cc60d15481565b34801561043f57600080fd5b5060cb5461044e9061ffff1681565b60405161ffff9091168152602001610321565b34801561046d57600080fd5b5061034a61106e565b34801561048257600080fd5b5061034a610491366004615503565b6110a5565b3480156104a257600080fd5b5061036c6104b1366004615162565b61118a565b3480156104c257600080fd5b5060cf546104d39063ffffffff1681565b60405163ffffffff9091168152602001610321565b3480156104f457600080fd5b5061034a6105033660046150bc565b61119a565b34801561051457600080fd5b5061034a610523366004615162565b6111c0565b34801561053457600080fd5b5061034a610543366004615520565b6111cd565b34801561055457600080fd5b5061034a6105633660046155f5565b611273565b34801561057457600080fd5b5061034a6105833660046150bc565b611323565b34801561059457600080fd5b506105a86105a336600461518d565b61134b565b60408051938452602084019290925290820152606001610321565b61034a6105d13660046156a2565b611815565b3480156105e257600080fd5b5061034a6105f1366004615706565b6118e1565b34801561060257600080fd5b506103cc6119d9565b34801561061757600080fd5b5061034a61062636600461518d565b611a8c565b34801561063757600080fd5b5061034a610646366004615706565b611b30565b34801561065757600080fd5b5060cb546103a59062010000900460ff1681565b34801561067757600080fd5b5060d55461068a90610100900460ff1681565b6040519015158152602001610321565b3480156106a657600080fd5b5061034a611bd7565b3480156106bb57600080fd5b5061034a6106ca366004615736565b611beb565b3480156106db57600080fd5b5061044e6106ea366004615162565b611d3f565b3480156106fb57600080fd5b5061070f61070a3660046150bc565b611d77565b6040516103219190615769565b34801561072857600080fd5b506103cc60ce5481565b34801561073e57600080fd5b5061034a611f76565b34801561075357600080fd5b506103cc60cd5481565b34801561076957600080fd5b5060d55461068a9060ff1681565b34801561078357600080fd5b506033546001600160a01b031661036c565b3480156107a157600080fd5b506103cc60cc5481565b3480156107b757600080fd5b506103cc6107c636600461518d565b61220e565b3480156107d757600080fd5b5061034a6107e6366004615503565b6126cd565b3480156107f757600080fd5b5061034a610806366004615136565b612776565b61034a61081936600461518d565b6127ef565b34801561082a57600080fd5b5060cf546103a59065010000000000900460ff1681565b34801561084d57600080fd5b5061034a61085c366004615817565b612a87565b34801561086d57600080fd5b5061034a61087c366004615736565b612aa7565b61034a61088f36600461518d565b612b67565b3480156108a057600080fd5b5060d5546103a59062010000900460ff1681565b3480156108c057600080fd5b5061034a6108cf366004615832565b612e00565b3480156108e057600080fd5b5061034a6108ef366004615503565b612e14565b34801561090057600080fd5b5061034a61090f366004615706565b612e8a565b34801561092057600080fd5b506103cc60d25481565b34801561093657600080fd5b5060cf5461068a90640100000000900460ff1681565b34801561095857600080fd5b5061096c610967366004615503565b61311a565b60405161032191906158a7565b60ff8116600090815260d86020908152604091829020600901805483518184028101840190945280845260609392830182828015610a0257602002820191906000526020600020906000905b82829054906101000a900463ffffffff1663ffffffff16815260200190600401906020826003010492830192600103820291508084116109c55790505b50505050509050919050565b610a16613280565b6040516001600160a01b0383169082156108fc029083906000818181858888f19350505050158015610a4c573d6000803e3d6000fd5b505050565b60d38181548110610a6157600080fd5b6000918252602090912001546001600160a01b0316905081565b6000610a8860cc546132da565b905090565b610bc3604051806104800160405280600063ffffffff168152602001606081526020016000815260200160001515815260200160006001600160a01b03168152602001600063ffffffff168152602001600015158152602001606081526020016060815260200160608152602001606081526020016000815260200160008152602001600081526020016000815260200160008152602001600081526020016000815260200160008152602001600060ff168152602001600063ffffffff16815260200160008152602001600081526020016000815260200160008152602001600081526020016000815260200160008152602001606081526020016000815260200160008152602001600081526020016000151581526020016000151581526020016000151581526020016000151581525090565b63ffffffff808316600090815260d76020908152604091829020825161048081019093528054909316825260018301805492939291840191610c04906158ec565b80601f0160208091040260200160405190810160405280929190818152602001828054610c30906158ec565b8015610c7d5780601f10610c5257610100808354040283529160200191610c7d565b820191906000526020600020905b815481529060010190602001808311610c6057829003601f168201915b50505091835250506002820154602080830191909152600383015460ff80821615156040808601919091526001600160a01b03610100840416606086015263ffffffff600160a81b8404166080860152600160c81b90920416151560a084015260048401805482518185028101850190935280835260c0909401939192909190830182828015610d5857602002820191906000526020600020906000905b82829054906101000a900463ffffffff1663ffffffff1681526020019060040190602082600301049283019260010382029150808411610d1b5790505b5050505050815260200160058201805480602002602001604051908101604052809291908181526020018280548015610ddc57602002820191906000526020600020906000905b82829054906101000a900463ffffffff1663ffffffff1681526020019060040190602082600301049283019260010382029150808411610d9f5790505b5050505050815260200160068201805480602002602001604051908101604052809291908181526020018280548015610e6057602002820191906000526020600020906000905b82829054906101000a900463ffffffff1663ffffffff1681526020019060040190602082600301049283019260010382029150808411610e235790505b5050505050815260200160078201805480602002602001604051908101604052809291908181526020018280548015610eb857602002820191906000526020600020905b815481526020019060010190808311610ea4575b505050918352505060088201546020808301919091526009830154604080840191909152600a8401546060840152600b8401546080840152600c84015460a0840152600d84015460c0840152600e84015460e0840152600f84015461010080850191909152601085015460ff81166101208601520463ffffffff166101408401526011840154610160840152601284015461018084015260138401546101a084015260148401546101c084015260158401546101e08401526016840154610200840152601784015461022084015260188401805482518185028101850190935280835261024090940193919290919083018282801561100257602002820191906000526020600020906000905b82829054906101000a900463ffffffff1663ffffffff1681526020019060040190602082600301049283019260010382029150808411610fc55790505b505050918352505060198201546020820152601a8201546040820152601b8201546060820152601c9091015460ff8082161515608084015261010082048116151560a08401526201000082048116151560c0840152630100000090910416151560e09091015292915050565b611076613280565b60405133904780156108fc02916000818181858888f193505050501580156110a2573d6000803e3d6000fd5b50565b6001600160a01b037f00000000000000000000000000000000000000000000000000000000000000001630036110f65760405162461bcd60e51b81526004016110ed90615926565b60405180910390fd5b7f00000000000000000000000000000000000000000000000000000000000000006001600160a01b031661113f600080516020615d04833981519152546001600160a01b031690565b6001600160a01b0316146111655760405162461bcd60e51b81526004016110ed90615972565b61116e816133d8565b604080516000808252602082019092526110a2918391906133e0565b60d48181548110610a6157600080fd5b6111a2613280565b60cb805460ff909216620100000262ff000019909216919091179055565b6111c8613280565b60cc55565b60c954604051630935e01b60e21b81523360048201526001600160a01b03909116906324d7806c90602401602060405180830381865afa158015611215573d6000803e3d6000fd5b505050506040513d601f19601f8201168201806040525081019061123991906159be565b6112555760405162461bcd60e51b81526004016110ed906159db565b60d554610100900460ff161561126f5761126f828261354b565b5050565b61127b613280565b60ff8916600081815260d860205260409020805460ff19169091178155600181018990556002810188905560038101879055600481016112bb8782615a55565b5060058101859055600681018490556007810183905560088101805460ff191683151517905560405160ff8b1681527f9a2f17868083013e19d4c26d2af13543606bc680c21c994d7648d3a0510164c99060200160405180910390a150505050505050505050565b61132b613280565b60d5805460ff90921663010000000263ff00000019909216919091179055565b63ffffffff808216600090815260d760209081526040808320815161048081019092528054909416815260018401805493948594859485949390840191611391906158ec565b80601f01602080910402602001604051908101604052809291908181526020018280546113bd906158ec565b801561140a5780601f106113df5761010080835404028352916020019161140a565b820191906000526020600020905b8154815290600101906020018083116113ed57829003601f168201915b50505091835250506002820154602080830191909152600383015460ff80821615156040808601919091526001600160a01b03610100840416606086015263ffffffff600160a81b8404166080860152600160c81b90920416151560a084015260048401805482518185028101850190935280835260c09094019391929091908301828280156114e557602002820191906000526020600020906000905b82829054906101000a900463ffffffff1663ffffffff16815260200190600401906020826003010492830192600103820291508084116114a85790505b505050505081526020016005820180548060200260200160405190810160405280929190818152602001828054801561156957602002820191906000526020600020906000905b82829054906101000a900463ffffffff1663ffffffff168152602001906004019060208260030104928301926001038202915080841161152c5790505b50505050508152602001600682018054806020026020016040519081016040528092919081815260200182805480156115ed57602002820191906000526020600020906000905b82829054906101000a900463ffffffff1663ffffffff16815260200190600401906020826003010492830192600103820291508084116115b05790505b505050505081526020016007820180548060200260200160405190810160405280929190818152602001828054801561164557602002820191906000526020600020905b815481526020019060010190808311611631575b505050918352505060088201546020808301919091526009830154604080840191909152600a8401546060840152600b8401546080840152600c84015460a0840152600d84015460c0840152600e84015460e0840152600f84015461010080850191909152601085015460ff81166101208601520463ffffffff166101408401526011840154610160840152601284015461018084015260138401546101a084015260148401546101c084015260158401546101e08401526016840154610200840152601784015461022084015260188401805482518185028101850190935280835261024090940193919290919083018282801561178f57602002820191906000526020600020906000905b82829054906101000a900463ffffffff1663ffffffff16815260200190600401906020826003010492830192600103820291508084116117525790505b505050918352505060198201546020820152601a8201546040820152601b8201546060820152601c9091015460ff8082161515608084015261010082048116151560a08401526201000082048116151560c0840152630100000090910416151560e0909101526102c08101516102e0820151610300909201519097919650945092505050565b6001600160a01b037f000000000000000000000000000000000000000000000000000000000000000016300361185d5760405162461bcd60e51b81526004016110ed90615926565b7f00000000000000000000000000000000000000000000000000000000000000006001600160a01b03166118a6600080516020615d04833981519152546001600160a01b031690565b6001600160a01b0316146118cc5760405162461bcd60e51b81526004016110ed90615972565b6118d5826133d8565b61126f828260016133e0565b60c954604051630935e01b60e21b81523360048201526001600160a01b03909116906324d7806c90602401602060405180830381865afa158015611929573d6000803e3d6000fd5b505050506040513d601f19601f8201168201806040525081019061194d91906159be565b6119695760405162461bcd60e51b81526004016110ed906159db565b63ffffffff8216600090815260d76020526040812042601a82015560198101805491928492611999908490615b2b565b92505081905550818160120160008282546119b49190615b2b565b925050819055508181601b0160008282546119cf9190615b2b565b9091555050505050565b6000306001600160a01b037f00000000000000000000000000000000000000000000000000000000000000001614611a795760405162461bcd60e51b815260206004820152603860248201527f555550535570677261646561626c653a206d757374206e6f742062652063616c60448201527f6c6564207468726f7567682064656c656761746563616c6c000000000000000060648201526084016110ed565b50600080516020615d0483398151915290565b60c954604051630935e01b60e21b81523360048201526001600160a01b03909116906324d7806c90602401602060405180830381865afa158015611ad4573d6000803e3d6000fd5b505050506040513d601f19601f82011682018060405250810190611af891906159be565b611b145760405162461bcd60e51b81526004016110ed906159db565b60cf805463ffffffff191663ffffffff92909216919091179055565b60c954604051630935e01b60e21b81523360048201526001600160a01b03909116906324d7806c90602401602060405180830381865afa158015611b78573d6000803e3d6000fd5b505050506040513d601f19601f82011682018060405250810190611b9c91906159be565b611bb85760405162461bcd60e51b81526004016110ed906159db565b63ffffffff8216600090815260d760205260409020610a4c8183613c82565b611bdf613280565b611be96000613d0c565b565b60c954604051630935e01b60e21b81523360048201526001600160a01b03909116906324d7806c90602401602060405180830381865afa158015611c33573d6000803e3d6000fd5b505050506040513d601f19601f82011682018060405250810190611c5791906159be565b611c735760405162461bcd60e51b81526004016110ed906159db565b60cb5462010000900460ff165b8161ffff168361ffff1611610a4c5761ffff8316600090815260d760205260408120905b8260ff168160ff161015611d2a57600382015463ffffffff600160a81b9091048116600090815260d76020526040902080548492161580611cea5750815463ffffffff16155b15611cf6575050611d2a565b836009015481600d016000828254611d0e9190615b2b565b90915550839250611d229150829050615b3e565b915050611ca4565b50508280611d3790615b5d565b935050611c80565b60ca8181548110611d4f57600080fd5b9060005260206000209060109182820401919006600202915054906101000a900461ffff1681565b611dd2604051806101400160405280600060ff16815260200160008152602001600081526020016000815260200160608152602001600081526020016000815260200160008152602001600015158152602001606081525090565b60ff808316600090815260d860209081526040918290208251610140810184528154909416845260018101549184019190915260028101549183019190915260038101546060830152600481018054608084019190611e30906158ec565b80601f0160208091040260200160405190810160405280929190818152602001828054611e5c906158ec565b8015611ea95780601f10611e7e57610100808354040283529160200191611ea9565b820191906000526020600020905b815481529060010190602001808311611e8c57829003601f168201915b505050505081526020016005820154815260200160068201548152602001600782015481526020016008820160009054906101000a900460ff1615151515815260200160098201805480602002602001604051908101604052809291908181526020018280548015611f6657602002820191906000526020600020906000905b82829054906101000a900463ffffffff1663ffffffff1681526020019060040190602082600301049283019260010382029150808411611f295790505b5050505050815250509050919050565b600054610100900460ff1615808015611f965750600054600160ff909116105b80611fb05750303b158015611fb0575060005460ff166001145b6120135760405162461bcd60e51b815260206004820152602e60248201527f496e697469616c697a61626c653a20636f6e747261637420697320616c72656160448201526d191e481a5b9a5d1a585b1a5e995960921b60648201526084016110ed565b6000805460ff191660011790558015612036576000805461ff0019166101001790555b60c980546001600160a01b031916730b8bf5feb9fca57d9c5d27185ddf3017e99a2d3617905560cb805461ffff19166103e8179055604080516103a08101825260648152604660208201526032918101829052606081018290526080810182905260a0810182905260c0810182905260e08101829052610100810182905261012081018290526101408101829052610160810182905261018081018290526101a081018290526101c081018290526101e08101829052610200810182905261022081018290526102408101919091526014610260820181905261028082018190526102a082018190526102c082018190526102e0820181905261030082018190526103208201819052610340820181905261036082018190526103808201526121639060ca90601d614ee1565b5060cb805462ff000019166232000017905568056bc75e2d6310000060cc5560cf8054660200000000000066ff00ff000000001990911617905560d5805462278d0060d25562ffffff1916621401011790556121bd613d5e565b6121c5613d8d565b80156110a2576000805461ff0019169055604051600181527f7f26b83ff96e1f2b6a682f133852f6798a09c465da95921460cefb3847402498906020015b60405180910390a150565b63ffffffff808216600090815260d760209081526040808320815161048081019092528054909416815260018401805493948594929390929084019190612254906158ec565b80601f0160208091040260200160405190810160405280929190818152602001828054612280906158ec565b80156122cd5780601f106122a2576101008083540402835291602001916122cd565b820191906000526020600020905b8154815290600101906020018083116122b057829003601f168201915b50505091835250506002820154602080830191909152600383015460ff80821615156040808601919091526001600160a01b03610100840416606086015263ffffffff600160a81b8404166080860152600160c81b90920416151560a084015260048401805482518185028101850190935280835260c09094019391929091908301828280156123a857602002820191906000526020600020906000905b82829054906101000a900463ffffffff1663ffffffff168152602001906004019060208260030104928301926001038202915080841161236b5790505b505050505081526020016005820180548060200260200160405190810160405280929190818152602001828054801561242c57602002820191906000526020600020906000905b82829054906101000a900463ffffffff1663ffffffff16815260200190600401906020826003010492830192600103820291508084116123ef5790505b50505050508152602001600682018054806020026020016040519081016040528092919081815260200182805480156124b057602002820191906000526020600020906000905b82829054906101000a900463ffffffff1663ffffffff16815260200190600401906020826003010492830192600103820291508084116124735790505b505050505081526020016007820180548060200260200160405190810160405280929190818152602001828054801561250857602002820191906000526020600020905b8154815260200190600101908083116124f4575b505050918352505060088201546020808301919091526009830154604080840191909152600a8401546060840152600b8401546080840152600c84015460a0840152600d84015460c0840152600e84015460e0840152600f84015461010080850191909152601085015460ff81166101208601520463ffffffff166101408401526011840154610160840152601284015461018084015260138401546101a084015260148401546101c084015260158401546101e08401526016840154610200840152601784015461022084015260188401805482518185028101850190935280835261024090940193919290919083018282801561265257602002820191906000526020600020906000905b82829054906101000a900463ffffffff1663ffffffff16815260200190600401906020826003010492830192600103820291508084116126155790505b505050918352505060198201546020820152601a8201546040820152601b8201546060820152601c9091015460ff8082161515608084015261010082048116151560a08401526201000082048116151560c0840152630100000090910416151560e09091015290506126c381613db4565b60ff169392505050565b60c954604051630935e01b60e21b81523360048201526001600160a01b03909116906324d7806c90602401602060405180830381865afa158015612715573d6000803e3d6000fd5b505050506040513d601f19601f8201168201806040525081019061273991906159be565b6127555760405162461bcd60e51b81526004016110ed906159db565b6001600160a01b0316600090815260d660205260409020805460ff19169055565b61277e613280565b60405163a9059cbb60e01b8152336004820152602481018290526001600160a01b0383169063a9059cbb906044016020604051808303816000875af11580156127cb573d6000803e3d6000fd5b505050506040513d601f19601f82011682018060405250810190610a4c91906159be565b3460006127fb82613e69565b905060cc5481101561284f5760405162461bcd60e51b815260206004820152601f60248201527f56616c7565206c657373207468656e206d696e436f6e747269627574696f6e0060448201526064016110ed565b63ffffffff8316600090815260d7602052604081203391429190612874856003615b7e565b826012015483601401546128889190615b95565b6128929190615b2b565b905060006003836014015460026128a99190615b7e565b6128b39190615ba8565b8360120154106128c45760006128fc565b600383601201546003856014015460026128de9190615b7e565b6128e89190615ba8565b6128f29190615b95565b6128fc9190615ba8565b905061292183868a60008a878a60cb60029054906101000a900460ff1660ff16613f57565b60d55460ff1615612a7d5760c954604080516344846f9d60e11b815290516000926001600160a01b031691638908df3a9160048083019260209291908290030181865afa158015612976573d6000803e3d6000fd5b505050506040513d601f19601f8201168201806040525081019061299a9190615bca565b6001600160a01b031663d275f14e8a6129b3858b615b2b565b6040516001600160e01b031960e085901b16815263ffffffff9290921660048301526024820152604481018890526064810188905263020f5800608482015260a4016020604051808303816000875af1158015612a14573d6000803e3d6000fd5b505050506040513d601f19601f82011682018060405250810190612a389190615be7565b601885018054600181018255600091825260209091206008820401805460079092166004026101000a63ffffffff818102199093169390921691909102919091179055505b5050505050505050565b612a8f613280565b60cb805461ffff191661ffff92909216919091179055565b60c954604051630935e01b60e21b81523360048201526001600160a01b03909116906324d7806c90602401602060405180830381865afa158015612aef573d6000803e3d6000fd5b505050506040513d601f19601f82011682018060405250810190612b1391906159be565b612b2f5760405162461bcd60e51b81526004016110ed906159db565b8061ffff168261ffff161161126f5761ffff8216600090815260d760205260408120600d015581612b5f81615b5d565b925050612b2f565b346000612b7382613e69565b905060cc54811015612bc75760405162461bcd60e51b815260206004820152601f60248201527f56616c7565206c657373207468656e206d696e436f6e747269627574696f6e0060448201526064016110ed565b60cf5433904290600090612be29063ffffffff166001615c04565b6001600160a01b038416600090815260d66020908152604080832063ffffffff8516845260d790925290912091925090612c388186858b8a612c25816003615b7e565b60cb548b9062010000900460ff16613f57565b60d55460ff1615612d875760c954604080516344846f9d60e11b815290516000926001600160a01b031691638908df3a9160048083019260209291908290030181865afa158015612c8d573d6000803e3d6000fd5b505050506040513d601f19601f82011682018060405250810190612cb19190615bca565b60405163693af8a760e11b815263ffffffff8616600482015260248101899052604481018790526064810187905263020f580060848201526001600160a01b03919091169063d275f14e9060a4016020604051808303816000875af1158015612d1e573d6000803e3d6000fd5b505050506040513d601f19601f82011682018060405250810190612d429190615be7565b601883018054600181018255600091825260209091206008820401805460079092166004026101000a63ffffffff818102199093169390921691909102919091179055505b6001828101805491820181556000908152602081206008830401805460079093166004026101000a63ffffffff818102199094168785169190910217905560cf80549092169190612dd783615c28565b91906101000a81548163ffffffff021916908363ffffffff160217905550505050505050505050565b612e08613280565b610a4c60ca8383614f89565b612e1c613280565b6001600160a01b038116612e815760405162461bcd60e51b815260206004820152602660248201527f4f776e61626c653a206e6577206f776e657220697320746865207a65726f206160448201526564647265737360d01b60648201526084016110ed565b6110a281613d0c565b63ffffffff8216600090815260d760205260409020600381015461010090046001600160a01b03163314612f005760405162461bcd60e51b815260206004820152601d60248201527f596f7520617265206e6f74206f776e6572206f6620746869732069642e00000060448201526064016110ed565b80601b0154821015612f545760405162461bcd60e51b815260206004820152601b60248201527f76616c75652067726561746572207468616e2062616c616e63652e000000000060448201526064016110ed565b601c8101546301000000900460ff16612faf5760405162461bcd60e51b815260206004820152601760248201527f5769746864726177206973206e6f7420656e61626c656400000000000000000060448201526064016110ed565b8181601b016000828254612fc39190615b95565b909155505060d554600090606490612fe49062010000900460ff1685615b7e565b612fee9190615ba8565b905060c960009054906101000a90046001600160a01b03166001600160a01b031662f9cc666040518163ffffffff1660e01b8152600401602060405180830381865afa158015613042573d6000803e3d6000fd5b505050506040513d601f19601f820116820180604052508101906130669190615bca565b6003830154604051633528777d60e11b81526001600160a01b036101009092048216600482015260248101849052911690636a50eefa90604401600060405180830381600087803b1580156130ba57600080fd5b505af11580156130ce573d6000803e3d6000fd5b503392506108fc91506130eb90506130e68487615b95565b6132da565b6040518115909202916000818181858888f19350505050158015613113573d6000803e3d6000fd5b5050505050565b613140604051806060016040528060001515815260200160608152602001606081525090565b6001600160a01b038216600090815260d660209081526040918290208251606081018452815460ff1615158152600182018054855181860281018601909652808652919492938581019392908301828280156131e757602002820191906000526020600020906000905b82829054906101000a900463ffffffff1663ffffffff16815260200190600401906020826003010492830192600103820291508084116131aa5790505b50505050508152602001600282018054613200906158ec565b80601f016020809104026020016040519081016040528092919081815260200182805461322c906158ec565b8015611f665780601f1061324e57610100808354040283529160200191611f66565b820191906000526020600020905b81548152906001019060200180831161325c57505050919092525091949350505050565b6033546001600160a01b03163314611be95760405162461bcd60e51b815260206004820181905260248201527f4f776e61626c653a2063616c6c6572206973206e6f7420746865206f776e657260448201526064016110ed565b60008060c960009054906101000a90046001600160a01b03166001600160a01b0316632913497b6040518163ffffffff1660e01b8152600401602060405180830381865afa158015613330573d6000803e3d6000fd5b505050506040513d601f19601f820116820180604052508101906133549190615bca565b6001600160a01b031663e1aa60366040518163ffffffff1660e01b8152600401602060405180830381865afa158015613391573d6000803e3d6000fd5b505050506040513d601f19601f820116820180604052508101906133b59190615c41565b6133c784670de0b6b3a7640000615b7e565b6133d19190615ba8565b9392505050565b6110a2613280565b7f4910fdfa16fed3260ed0e7147f7cc6da11a60208b5b9406d12a635614ffd91435460ff161561341357610a4c8361427a565b826001600160a01b03166352d1902d6040518163ffffffff1660e01b8152600401602060405180830381865afa92505050801561346d575060408051601f3d908101601f1916820190925261346a91810190615c41565b60015b6134d05760405162461bcd60e51b815260206004820152602e60248201527f45524331393637557067726164653a206e657720696d706c656d656e7461746960448201526d6f6e206973206e6f74205555505360901b60648201526084016110ed565b600080516020615d04833981519152811461353f5760405162461bcd60e51b815260206004820152602960248201527f45524331393637557067726164653a20756e737570706f727465642070726f786044820152681a58589b195555525160ba1b60648201526084016110ed565b50610a4c838383614316565b600060ca8054806020026020016040519081016040528092919081815260200182805480156135c157602002820191906000526020600020906000905b82829054906101000a900461ffff1661ffff16815260200190600201906020826001010492830192600103820291508084116135885790505b5050835163ffffffff8716600090815260d7602052604081209596509094935091508190505b8360ff168160ff161015613c6257600383015463ffffffff600160a81b9091048116600081815260d76020526040812080549293909216900361362b575050613c62565b61363481614341565b156136ac5760405172149959995c995c881a5cc8111a5cd8589b1959606a1b81526013015b60405190819003902061366d846001615c5a565b60ff168363ffffffff167f915ed47901013ad29e90ede828f72888f54bd58cea141b0c6967498165382eb560405160405180910390a49350613c509050565b604080516104808101909152815463ffffffff168152600182018054613b47929184916020840191906136de906158ec565b80601f016020809104026020016040519081016040528092919081815260200182805461370a906158ec565b80156137575780601f1061372c57610100808354040283529160200191613757565b820191906000526020600020905b81548152906001019060200180831161373a57829003601f168201915b50505091835250506002820154602080830191909152600383015460ff80821615156040808601919091526001600160a01b03610100840416606086015263ffffffff600160a81b8404166080860152600160c81b90920416151560a084015260048401805482518185028101850190935280835260c090940193919290919083018282801561383257602002820191906000526020600020906000905b82829054906101000a900463ffffffff1663ffffffff16815260200190600401906020826003010492830192600103820291508084116137f55790505b50505050508152602001600582018054806020026020016040519081016040528092919081815260200182805480156138b657602002820191906000526020600020906000905b82829054906101000a900463ffffffff1663ffffffff16815260200190600401906020826003010492830192600103820291508084116138795790505b505050505081526020016006820180548060200260200160405190810160405280929190818152602001828054801561393a57602002820191906000526020600020906000905b82829054906101000a900463ffffffff1663ffffffff16815260200190600401906020826003010492830192600103820291508084116138fd5790505b505050505081526020016007820180548060200260200160405190810160405280929190818152602001828054801561399257602002820191906000526020600020905b81548152602001906001019080831161397e575b505050918352505060088201546020808301919091526009830154604080840191909152600a8401546060840152600b8401546080840152600c84015460a0840152600d84015460c0840152600e84015460e0840152600f84015461010080850191909152601085015460ff81166101208601520463ffffffff166101408401526011840154610160840152601284015461018084015260138401546101a084015260148401546101c084015260158401546101e084015260168401546102008401526017840154610220840152601884018054825181850281018501909352808352610240909401939192909190830182828015613adc57602002820191906000526020600020906000905b82829054906101000a900463ffffffff1663ffffffff1681526020019060040190602082600301049283019260010382029150808411613a9f5790505b505050918352505060198201546020820152601a8201546040820152601b8201546060820152601c9091015460ff8082161515608084015261010082048116151560a08401526201000082048116151560c0840152630100000090910416151560e0909101526144c2565b613b52846001615c5a565b60ff161115613b89576040517f446f776e6c696e65206c6576656c73206c696d697420726561636865640000008152601d01613659565b60cb54875160009161ffff1690899060ff8716908110613bab57613bab615c73565b602002602001015161ffff168b613bc29190615b7e565b613bcc9190615ba8565b905080826017016000828254613be29190615b2b565b90915550613bf290508282613c82565b613bfc8186615b2b565b94508063ffffffff808516908b167ff8fb9b5ab69a0208214661678427c6b48abf457f53605d1f559d17452f1eea11613c36886001615c5a565b60405160ff909116815260200160405180910390a4509350505b80613c5a81615b3e565b9150506135e7565b508060ce6000828254613c759190615b2b565b9091555050505050505050565b8160140154818360120154613c979190615b2b565b11613cd65780826012016000828254613cb09190615b2b565b925050819055508082601b016000828254613ccb9190615b2b565b9091555061126f9050565b81601201548260140154613cea9190615b95565b82601b016000828254613cfd9190615b2b565b9091555061126f905082614501565b603380546001600160a01b038381166001600160a01b0319831681179093556040519116919082907f8be0079c531659141344cd1fd0a4f28419497f9722a3daafe3b4186f6b6457e090600090a35050565b600054610100900460ff16613d855760405162461bcd60e51b81526004016110ed90615c89565b611be96145a9565b600054610100900460ff16611be95760405162461bcd60e51b81526004016110ed90615c89565b60d5546000906301000000900460ff16815b8160ff168160ff161015613e625760ff8116600090815260d8602052604090206001015461016085015110801590613e18575060ff8116600090815260d860205260409020600201546101a085015110155b8015613e3e575060ff8116600090815260d860205260409020600301546101e085015110155b15613e4b57809250613e50565b613e62565b80613e5a81615b3e565b915050613dc6565b5050919050565b600080670de0b6b3a764000060c960009054906101000a90046001600160a01b03166001600160a01b0316632913497b6040518163ffffffff1660e01b8152600401602060405180830381865afa158015613ec8573d6000803e3d6000fd5b505050506040513d601f19601f82011682018060405250810190613eec9190615bca565b6001600160a01b031663e1aa60366040518163ffffffff1660e01b8152600401602060405180830381865afa158015613f29573d6000803e3d6000fd5b505050506040513d601f19601f82011682018060405250810190613f4d9190615c41565b6133c79085615b7e565b875463ffffffff16600003613f7a57875463ffffffff191663ffffffff87161788555b601c88015460ff16613f9657601c8801805460ff191660011790555b600388015460ff16613fee5760d480546001810182556000919091527f9780e26d96b1f2a9a18ef8fc72d589dbf03ef788137b64f43897e83a91e7feec0180546001600160a01b0319166001600160a01b0389161790555b600388015461010090046001600160a01b031661402857600388018054610100600160a81b0319166101006001600160a01b038a16021790555b876002015460000361403c57600288018290555b6003880154600160c81b900460ff166140805760038801805460ff60c81b1963ffffffff8816600160a81b021664ffffffffff60a81b1990911617600160c81b1790555b60006012890155614092600384615ba8565b601389015560148801839055600788018054600181018255600091825260208220018590556008890180548692906140cb908490615b2b565b90915550506015880182905560408051600081526020810191829052516140f69160188b0191614ff4565b5060005b818160ff16101561426f57600389015463ffffffff600160a81b9091048116600081815260d76020526040812080549293909216900361413b57505061426f565b8260ff1660000361419d578681600a01600082825461415a9190615b2b565b909155505060048181018054600181018255600091825260209091206008820401805460079092169092026101000a63ffffffff81810219909216918c16021790555b8681600c0160008282546141b19190615b2b565b909155505063ffffffff881615614231576005810180546001810182556000918252602082206008820401805460079092166004026101000a63ffffffff818102199093168d841691820217909155835460405190831693928c16927f3ec54e926fe5dd86406fe57832ff318517aed2a5cfbeacfb90a5e9489483ae4b91a45b60cf54640100000000900460ff161561424f5761424f8188876145d9565b6142598786614d33565b995081905061426781615b3e565b9150506140fa565b505050505050505050565b6001600160a01b0381163b6142e75760405162461bcd60e51b815260206004820152602d60248201527f455243313936373a206e657720696d706c656d656e746174696f6e206973206e60448201526c1bdd08184818dbdb9d1c9858dd609a1b60648201526084016110ed565b600080516020615d0483398151915280546001600160a01b0319166001600160a01b0392909216919091179055565b61431f83614d6d565b60008251118061432c5750805b15610a4c5761433b8383614dad565b50505050565b601c81015460009060ff16158061436057508160140154826012015410155b1561436d57506001919050565b6018820154158015906144ad575060c960009054906101000a90046001600160a01b03166001600160a01b0316638908df3a6040518163ffffffff1660e01b8152600401602060405180830381865afa1580156143ce573d6000803e3d6000fd5b505050506040513d601f19601f820116820180604052508101906143f29190615bca565b6001600160a01b03166355332a8583601801600185601801805490506144189190615b95565b8154811061442857614428615c73565b6000918252602090912060088204015460405160e084901b6001600160e01b0319168152600790921660049081026101000a90910463ffffffff1690820152602401602060405180830381865afa158015614487573d6000803e3d6000fd5b505050506040513d601f19601f820116820180604052508101906144ab91906159be565b155b156144ba57506001919050565b506000919050565b60e0810151516000908181156133d15760cf546001906144ef906601000000000000900460ff1684615b7e565b6144f99190615b95565b949350505050565b601c8101805460ff19169055604080516000815260208101918290525161452c916018840191614ff4565b5060006012820181905560138201819055601482015542601682015580546040805163ffffffff9092168252602082018190526011908201527013585e08131a5b5a5d0814995858da1959607a1b60608201527fce8ab8f2ac6a94861f9740fa1fed3e6d13a85dfd8a4833bf96f3a0055ba7fb6f90608001612203565b600054610100900460ff166145d05760405162461bcd60e51b81526004016110ed90615c89565b611be933613d0c565b6010830154604080516104808101909152845463ffffffff16815260018501805460ff90931692614a7f92918791602084019190614616906158ec565b80601f0160208091040260200160405190810160405280929190818152602001828054614642906158ec565b801561468f5780601f106146645761010080835404028352916020019161468f565b820191906000526020600020905b81548152906001019060200180831161467257829003601f168201915b50505091835250506002820154602080830191909152600383015460ff80821615156040808601919091526001600160a01b03610100840416606086015263ffffffff600160a81b8404166080860152600160c81b90920416151560a084015260048401805482518185028101850190935280835260c090940193919290919083018282801561476a57602002820191906000526020600020906000905b82829054906101000a900463ffffffff1663ffffffff168152602001906004019060208260030104928301926001038202915080841161472d5790505b50505050508152602001600582018054806020026020016040519081016040528092919081815260200182805480156147ee57602002820191906000526020600020906000905b82829054906101000a900463ffffffff1663ffffffff16815260200190600401906020826003010492830192600103820291508084116147b15790505b505050505081526020016006820180548060200260200160405190810160405280929190818152602001828054801561487257602002820191906000526020600020906000905b82829054906101000a900463ffffffff1663ffffffff16815260200190600401906020826003010492830192600103820291508084116148355790505b50505050508152602001600782018054806020026020016040519081016040528092919081815260200182805480156148ca57602002820191906000526020600020905b8154815260200190600101908083116148b6575b505050918352505060088201546020808301919091526009830154604080840191909152600a8401546060840152600b8401546080840152600c84015460a0840152600d84015460c0840152600e84015460e0840152600f84015461010080850191909152601085015460ff81166101208601520463ffffffff166101408401526011840154610160840152601284015461018084015260138401546101a084015260148401546101c084015260158401546101e084015260168401546102008401526017840154610220840152601884018054825181850281018501909352808352610240909401939192909190830182828015614a1457602002820191906000526020600020906000905b82829054906101000a900463ffffffff1663ffffffff16815260200190600401906020826003010492830192600103820291508084116149d75790505b505050918352505060198201546020820152601a8201546040820152601b8201546060820152601c9091015460ff8082161515608084015261010082048116151560a08401526201000082048116151560c0840152630100000090910416151560e090910152613db4565b60ff161115610a4c57604080516104808101909152835463ffffffff168152600184018054614aba92918691602084019190614616906158ec565b60108401805460ff191660ff9283169081178255600090815260d860209081526040808320885460099182018054600181810183559187529486206008860401805463ffffffff60079097166004026101000a8781021990911696909316909202949094179055935490941682529290200154614b379190615b95565b60108401805464ffffffff0019811661010063ffffffff948516810291821793849055875460408051918716825291909404909416602084015260ff918216911617918101919091527f4d3af8f60ffd033b575846f894122f2342b39bc9a90da98d0a966128702b568d9060600160405180910390a1604080516104808101909152835463ffffffff16815260018401805460d892600092614be39288916020840191614616906158ec565b60ff90811682526020820192909252604001600020600801541615614ca257604080516104808101909152835463ffffffff16815260018401805460d892600092614c389288916020840191614616906158ec565b60ff1660ff1681526020019081526020016000206007015483600f0154614c5f9190615b2b565b811115614c8e578083600f01819055508183600e016000828254614c839190615b2b565b90915550610a4c9050565b8183600e016000828254614c839190615b2b565b60cf54640100000000900460ff1615610a4c57601083015460ff16600090815260d86020526040902060050154614cda908490613c82565b601083015460ff908116600090815260d8602052604080822060058101549054875492519194169263ffffffff909216917fdeaf5b294f5016988108257045fc779d7d01e05a4ecdc4df70f62d5a799e053b91a4505050565b60d25460d154614d439190615b2b565b811115614d525760d15560d055565b8160d06000828254614d649190615b2b565b90915550505050565b614d768161427a565b6040516001600160a01b038216907fbc7cd75a20ee27fd9adebab32041f755214dbc6bffa90cc0225b39da2e5c2d3b90600090a250565b60606001600160a01b0383163b614e155760405162461bcd60e51b815260206004820152602660248201527f416464726573733a2064656c65676174652063616c6c20746f206e6f6e2d636f6044820152651b9d1c9858dd60d21b60648201526084016110ed565b600080846001600160a01b031684604051614e309190615cd4565b600060405180830381855af49150503d8060008114614e6b576040519150601f19603f3d011682016040523d82523d6000602084013e614e70565b606091505b5091509150614e988282604051806060016040528060278152602001615d2460279139614ea3565b925050505b92915050565b60608315614eb25750816133d1565b6133d18383815115614ec75781518083602001fd5b8060405162461bcd60e51b81526004016110ed9190615cf0565b82805482825590600052602060002090600f01601090048101928215614f795791602002820160005b83821115614f4957835183826101000a81548161ffff021916908360ff1602179055509260200192600201602081600101049283019260010302614f0a565b8015614f775782816101000a81549061ffff0219169055600201602081600101049283019260010302614f49565b505b50614f85929150615091565b5090565b82805482825590600052602060002090600f01601090048101928215614f795791602002820160005b83821115614f4957833560ff1683826101000a81548161ffff021916908360ff1602179055509260200192600201602081600101049283019260010302614fb2565b82805482825590600052602060002090600701600890048101928215614f795791602002820160005b8382111561506157835183826101000a81548163ffffffff021916908363ffffffff160217905550926020019260040160208160030104928301926001030261501d565b8015614f775782816101000a81549063ffffffff0219169055600401602081600301049283019260010302615061565b5b80821115614f855760008155600101615092565b803560ff811681146150b757600080fd5b919050565b6000602082840312156150ce57600080fd5b6133d1826150a6565b6020808252825182820181905260009190848201906040850190845b8181101561511557835163ffffffff16835292840192918401916001016150f3565b50909695505050505050565b6001600160a01b03811681146110a257600080fd5b6000806040838503121561514957600080fd5b823561515481615121565b946020939093013593505050565b60006020828403121561517457600080fd5b5035919050565b63ffffffff811681146110a257600080fd5b60006020828403121561519f57600080fd5b81356133d18161517b565b60005b838110156151c55781810151838201526020016151ad565b50506000910152565b600081518084526151e68160208601602086016151aa565b601f01601f19169290920160200192915050565b600081518084526020808501945080840160005b8381101561523057815163ffffffff168752958201959082019060010161520e565b509495945050505050565b600081518084526020808501945080840160005b838110156152305781518752958201959082019060010161524f565b6020815261528260208201835163ffffffff169052565b600060208301516104808060408501526152a06104a08501836151ce565b91506040850151606085015260608501516152bf608086018215159052565b5060808501516001600160a01b03811660a08601525060a085015163ffffffff811660c08601525060c085015180151560e08601525060e0850151601f1961010081878603018188015261531385846151fa565b94508088015192505061012081878603018188015261533285846151fa565b94508088015192505061014081878603018188015261535185846151fa565b945080880151925050610160818786030181880152615370858461523b565b90880151610180888101919091528801516101a0808901919091528801516101c0808901919091528801516101e0808901919091528801516102008089019190915288015161022080890191909152880151610240808901919091528801516102608089019190915288015190945091506102806153f28188018460ff169052565b87015191506102a061540b8782018463ffffffff169052565b8701516102c0878101919091528701516102e080880191909152870151610300808801919091528701516103208088019190915287015161034080880191909152870151610360808801919091528701516103808088019190915287015186850382016103a08089019190915290925061548585846151fa565b908801516103c0888101919091528801516103e08089019190915288015161040080890191909152880151909450915061042090506154c78187018315159052565b86015190506104406154dc8682018315159052565b86015190506104606154f18682018315159052565b90950151151593019290925250919050565b60006020828403121561551557600080fd5b81356133d181615121565b6000806040838503121561553357600080fd5b8235915060208301356155458161517b565b809150509250929050565b634e487b7160e01b600052604160045260246000fd5b600067ffffffffffffffff8084111561558157615581615550565b604051601f8501601f19908116603f011681019082821181831017156155a9576155a9615550565b816040528093508581528686860111156155c257600080fd5b858560208301376000602087830101525050509392505050565b80151581146110a257600080fd5b80356150b7816155dc565b60008060008060008060008060006101208a8c03121561561457600080fd5b61561d8a6150a6565b985060208a0135975060408a0135965060608a0135955060808a013567ffffffffffffffff81111561564e57600080fd5b8a01601f81018c1361565f57600080fd5b61566e8c823560208401615566565b95505060a08a0135935060c08a0135925060e08a013591506156936101008b016155ea565b90509295985092959850929598565b600080604083850312156156b557600080fd5b82356156c081615121565b9150602083013567ffffffffffffffff8111156156dc57600080fd5b8301601f810185136156ed57600080fd5b6156fc85823560208401615566565b9150509250929050565b6000806040838503121561571957600080fd5b82356151548161517b565b803561ffff811681146150b757600080fd5b6000806040838503121561574957600080fd5b61575283615724565b915061576060208401615724565b90509250929050565b6020815261577d60208201835160ff169052565b602082015160408201526040820151606082015260608201516080820152600060808301516101408060a08501526157b96101608501836151ce565b915060a085015160c085015260c085015160e085015260e08501516101008181870152808701519150506101206157f38187018315159052565b860151858403601f190183870152905061580d83826151fa565b9695505050505050565b60006020828403121561582957600080fd5b6133d182615724565b6000806020838503121561584557600080fd5b823567ffffffffffffffff8082111561585d57600080fd5b818501915085601f83011261587157600080fd5b81358181111561588057600080fd5b8660208260051b850101111561589557600080fd5b60209290920196919550909350505050565b6020815281511515602082015260006020830151606060408401526158cf60808401826151fa565b90506040840151601f19848303016060850152614e9882826151ce565b600181811c9082168061590057607f821691505b60208210810361592057634e487b7160e01b600052602260045260246000fd5b50919050565b6020808252602c908201527f46756e6374696f6e206d7573742062652063616c6c6564207468726f7567682060408201526b19195b1959d85d1958d85b1b60a21b606082015260800190565b6020808252602c908201527f46756e6374696f6e206d7573742062652063616c6c6564207468726f7567682060408201526b6163746976652070726f787960a01b606082015260800190565b6000602082840312156159d057600080fd5b81516133d1816155dc565b6020808252601290820152712cb7ba9030b932903737ba1030b236b4b71760711b604082015260600190565b601f821115610a4c57600081815260208120601f850160051c81016020861015615a2e5750805b601f850160051c820191505b81811015615a4d57828155600101615a3a565b505050505050565b815167ffffffffffffffff811115615a6f57615a6f615550565b615a8381615a7d84546158ec565b84615a07565b602080601f831160018114615ab85760008415615aa05750858301515b600019600386901b1c1916600185901b178555615a4d565b600085815260208120601f198616915b82811015615ae757888601518255948401946001909101908401615ac8565b5085821015615b055787850151600019600388901b60f8161c191681555b5050505050600190811b01905550565b634e487b7160e01b600052601160045260246000fd5b80820180821115614e9d57614e9d615b15565b600060ff821660ff8103615b5457615b54615b15565b60010192915050565b600061ffff808316818103615b7457615b74615b15565b6001019392505050565b8082028115828204841417614e9d57614e9d615b15565b81810381811115614e9d57614e9d615b15565b600082615bc557634e487b7160e01b600052601260045260246000fd5b500490565b600060208284031215615bdc57600080fd5b81516133d181615121565b600060208284031215615bf957600080fd5b81516133d18161517b565b63ffffffff818116838216019080821115615c2157615c21615b15565b5092915050565b600063ffffffff808316818103615b7457615b74615b15565b600060208284031215615c5357600080fd5b5051919050565b60ff8181168382160190811115614e9d57614e9d615b15565b634e487b7160e01b600052603260045260246000fd5b6020808252602b908201527f496e697469616c697a61626c653a20636f6e7472616374206973206e6f74206960408201526a6e697469616c697a696e6760a81b606082015260800190565b60008251615ce68184602087016151aa565b9190910192915050565b6020815260006133d160208301846151ce56fe360894a13ba1a3210667c828492db98dca3e2076cc3735a920a3ca505d382bbc416464726573733a206c6f772d6c6576656c2064656c65676174652063616c6c206661696c6564a26469706673582212207e43b471f92e4d57f4474f1e3ff0d794d3de477c11d78b22e72b93e86c90b3fb64736f6c63430008120033",
  "linkReferences": {},
  "deployedLinkReferences": {}
}