{
  "_format": "hh-sol-artifact-1",
  "contractName": "ReferralV4Upgradeable",
  "sourceName": "contracts/ReferralV4Upgradeable.sol",
  "abi": [
    {
      "anonymous": false,
      "inputs": [
        {
          "indexed": false,
          "internalType": "uint32",
          "name": "id",
          "type": "uint32"
        }
      ],
      "name": "ActivatedId",
      "type": "event"
    },
    {
      "anonymous": false,
      "inputs": [
        {
          "indexed": false,
          "internalType": "uint32",
          "name": "id",
          "type": "uint32"
        },
        {
          "indexed": false,
          "internalType": "uint32",
          "name": "index",
          "type": "uint32"
        },
        {
          "indexed": false,
          "internalType": "uint8",
          "name": "rank",
          "type": "uint8"
        }
      ],
      "name": "AddedInRoyaltyClubList",
      "type": "event"
    },
    {
      "anonymous": false,
      "inputs": [
        {
          "indexed": false,
          "internalType": "address",
          "name": "previousAdmin",
          "type": "address"
        },
        {
          "indexed": false,
          "internalType": "address",
          "name": "newAdmin",
          "type": "address"
        }
      ],
      "name": "AdminChanged",
      "type": "event"
    },
    {
      "anonymous": false,
      "inputs": [
        {
          "indexed": true,
          "internalType": "address",
          "name": "beacon",
          "type": "address"
        }
      ],
      "name": "BeaconUpgraded",
      "type": "event"
    },
    {
      "anonymous": false,
      "inputs": [
        {
          "indexed": false,
          "internalType": "uint32",
          "name": "id",
          "type": "uint32"
        },
        {
          "indexed": false,
          "internalType": "string",
          "name": "reason",
          "type": "string"
        }
      ],
      "name": "DeactivatedId",
      "type": "event"
    },
    {
      "anonymous": false,
      "inputs": [
        {
          "indexed": false,
          "internalType": "uint8",
          "name": "version",
          "type": "uint8"
        }
      ],
      "name": "Initialized",
      "type": "event"
    },
    {
      "anonymous": false,
      "inputs": [
        {
          "indexed": false,
          "internalType": "uint32",
          "name": "id",
          "type": "uint32"
        },
        {
          "indexed": false,
          "internalType": "address",
          "name": "owner",
          "type": "address"
        }
      ],
      "name": "OwnerChangedId",
      "type": "event"
    },
    {
      "anonymous": false,
      "inputs": [
        {
          "indexed": true,
          "internalType": "address",
          "name": "previousOwner",
          "type": "address"
        },
        {
          "indexed": true,
          "internalType": "address",
          "name": "newOwner",
          "type": "address"
        }
      ],
      "name": "OwnershipTransferred",
      "type": "event"
    },
    {
      "anonymous": false,
      "inputs": [
        {
          "indexed": false,
          "internalType": "uint8",
          "name": "packageId",
          "type": "uint8"
        }
      ],
      "name": "PackageAdded",
      "type": "event"
    },
    {
      "anonymous": false,
      "inputs": [
        {
          "indexed": false,
          "internalType": "uint8",
          "name": "packageId",
          "type": "uint8"
        }
      ],
      "name": "PackageRemoved",
      "type": "event"
    },
    {
      "anonymous": false,
      "inputs": [
        {
          "indexed": false,
          "internalType": "uint8",
          "name": "packageId",
          "type": "uint8"
        }
      ],
      "name": "PackageUpdated",
      "type": "event"
    },
    {
      "anonymous": false,
      "inputs": [
        {
          "indexed": true,
          "internalType": "uint32",
          "name": "refererId",
          "type": "uint32"
        },
        {
          "indexed": true,
          "internalType": "uint8",
          "name": "level",
          "type": "uint8"
        },
        {
          "indexed": true,
          "internalType": "string",
          "name": "reason",
          "type": "string"
        }
      ],
      "name": "ReferralNotPaid",
      "type": "event"
    },
    {
      "anonymous": false,
      "inputs": [
        {
          "indexed": true,
          "internalType": "uint32",
          "name": "refereeId",
          "type": "uint32"
        },
        {
          "indexed": true,
          "internalType": "uint32",
          "name": "referrerId",
          "type": "uint32"
        },
        {
          "indexed": true,
          "internalType": "uint256",
          "name": "amount",
          "type": "uint256"
        },
        {
          "indexed": false,
          "internalType": "uint8",
          "name": "level",
          "type": "uint8"
        }
      ],
      "name": "ReferralRewardPaid",
      "type": "event"
    },
    {
      "anonymous": false,
      "inputs": [
        {
          "indexed": true,
          "internalType": "address",
          "name": "refereeId",
          "type": "address"
        },
        {
          "indexed": true,
          "internalType": "address",
          "name": "referrerId",
          "type": "address"
        },
        {
          "indexed": true,
          "internalType": "string",
          "name": "reason",
          "type": "string"
        }
      ],
      "name": "RegisterRefererFailed",
      "type": "event"
    },
    {
      "anonymous": false,
      "inputs": [
        {
          "indexed": true,
          "internalType": "uint32",
          "name": "id",
          "type": "uint32"
        },
        {
          "indexed": true,
          "internalType": "uint32",
          "name": "refererId",
          "type": "uint32"
        }
      ],
      "name": "RegisteredReferer",
      "type": "event"
    },
    {
      "anonymous": false,
      "inputs": [
        {
          "indexed": true,
          "internalType": "uint32",
          "name": "refereeId",
          "type": "uint32"
        },
        {
          "indexed": true,
          "internalType": "uint32",
          "name": "referrerId",
          "type": "uint32"
        },
        {
          "indexed": true,
          "internalType": "uint32",
          "name": "parentAccountId",
          "type": "uint32"
        }
      ],
      "name": "RegisteredTeamAddress",
      "type": "event"
    },
    {
      "anonymous": false,
      "inputs": [
        {
          "indexed": true,
          "internalType": "uint32",
          "name": "userid",
          "type": "uint32"
        },
        {
          "indexed": true,
          "internalType": "uint8",
          "name": "packageId",
          "type": "uint8"
        },
        {
          "indexed": true,
          "internalType": "uint256",
          "name": "amount",
          "type": "uint256"
        }
      ],
      "name": "RoyaltyClubBonusPaid",
      "type": "event"
    },
    {
      "anonymous": false,
      "inputs": [
        {
          "indexed": true,
          "internalType": "address",
          "name": "implementation",
          "type": "address"
        }
      ],
      "name": "Upgraded",
      "type": "event"
    },
    {
      "inputs": [
        {
          "internalType": "uint32",
          "name": "_refererId",
          "type": "uint32"
        }
      ],
      "name": "activateId",
      "outputs": [],
      "stateMutability": "payable",
      "type": "function"
    },
    {
      "inputs": [],
      "name": "companyTurnoverTimeLimit",
      "outputs": [
        {
          "internalType": "uint256",
          "name": "",
          "type": "uint256"
        }
      ],
      "stateMutability": "view",
      "type": "function"
    },
    {
      "inputs": [],
      "name": "companyTurnoverTimeStamp",
      "outputs": [
        {
          "internalType": "uint256",
          "name": "",
          "type": "uint256"
        }
      ],
      "stateMutability": "view",
      "type": "function"
    },
    {
      "inputs": [],
      "name": "companyTurnoverWithTimeLimit",
      "outputs": [
        {
          "internalType": "uint256",
          "name": "",
          "type": "uint256"
        }
      ],
      "stateMutability": "view",
      "type": "function"
    },
    {
      "inputs": [],
      "name": "decimals",
      "outputs": [
        {
          "internalType": "uint16",
          "name": "",
          "type": "uint16"
        }
      ],
      "stateMutability": "view",
      "type": "function"
    },
    {
      "inputs": [
        {
          "internalType": "uint256",
          "name": "",
          "type": "uint256"
        }
      ],
      "name": "disabledUsersList",
      "outputs": [
        {
          "internalType": "address",
          "name": "",
          "type": "address"
        }
      ],
      "stateMutability": "view",
      "type": "function"
    },
    {
      "inputs": [],
      "name": "futureScureWalletContribution",
      "outputs": [
        {
          "internalType": "uint8",
          "name": "",
          "type": "uint8"
        }
      ],
      "stateMutability": "view",
      "type": "function"
    },
    {
      "inputs": [
        {
          "internalType": "uint8",
          "name": "_packageId",
          "type": "uint8"
        }
      ],
      "name": "getAchieversList",
      "outputs": [
        {
          "internalType": "uint32[]",
          "name": "",
          "type": "uint32[]"
        }
      ],
      "stateMutability": "view",
      "type": "function"
    },
    {
      "inputs": [
        {
          "internalType": "uint32",
          "name": "_id",
          "type": "uint32"
        }
      ],
      "name": "getIdAccount",
      "outputs": [
        {
          "components": [
            {
              "internalType": "uint32",
              "name": "id",
              "type": "uint32"
            },
            {
              "internalType": "string",
              "name": "oldId",
              "type": "string"
            },
            {
              "internalType": "uint256",
              "name": "joiningTime",
              "type": "uint256"
            },
            {
              "internalType": "bool",
              "name": "isAddedToUserList",
              "type": "bool"
            },
            {
              "internalType": "address",
              "name": "owner",
              "type": "address"
            },
            {
              "internalType": "uint32",
              "name": "refererId",
              "type": "uint32"
            },
            {
              "internalType": "bool",
              "name": "hasUpline",
              "type": "bool"
            },
            {
              "internalType": "uint32[]",
              "name": "refereeIds",
              "type": "uint32[]"
            },
            {
              "internalType": "uint32[]",
              "name": "teamIds",
              "type": "uint32[]"
            },
            {
              "internalType": "uint32[]",
              "name": "teamLevel",
              "type": "uint32[]"
            },
            {
              "internalType": "uint256[]",
              "name": "selfBusinessArray",
              "type": "uint256[]"
            },
            {
              "internalType": "uint256",
              "name": "selfBusiness",
              "type": "uint256"
            },
            {
              "internalType": "uint256",
              "name": "selfBusinessOld",
              "type": "uint256"
            },
            {
              "internalType": "uint256",
              "name": "directBusiness",
              "type": "uint256"
            },
            {
              "internalType": "uint256",
              "name": "directBusinessOld",
              "type": "uint256"
            },
            {
              "internalType": "uint256",
              "name": "teamBusiness",
              "type": "uint256"
            },
            {
              "internalType": "uint256",
              "name": "teamBusinessOld",
              "type": "uint256"
            },
            {
              "internalType": "uint256",
              "name": "royaltyClubBusiness",
              "type": "uint256"
            },
            {
              "internalType": "uint256",
              "name": "timeStampRoyaltyClub",
              "type": "uint256"
            },
            {
              "internalType": "uint8",
              "name": "royaltyClubPackageId",
              "type": "uint8"
            },
            {
              "internalType": "uint32",
              "name": "royaltyClubListIndex",
              "type": "uint32"
            },
            {
              "internalType": "uint256",
              "name": "royaltyClubRewardPaid",
              "type": "uint256"
            },
            {
              "internalType": "uint256",
              "name": "topUpIncome",
              "type": "uint256"
            },
            {
              "internalType": "uint256",
              "name": "topUp",
              "type": "uint256"
            },
            {
              "internalType": "uint256",
              "name": "maxLimit",
              "type": "uint256"
            },
            {
              "internalType": "uint256",
              "name": "activationTime",
              "type": "uint256"
            },
            {
              "internalType": "uint256",
              "name": "deactivationTime",
              "type": "uint256"
            },
            {
              "internalType": "uint256",
              "name": "referralPaid",
              "type": "uint256"
            },
            {
              "internalType": "uint32[]",
              "name": "roiIds",
              "type": "uint32[]"
            },
            {
              "internalType": "uint256",
              "name": "roiPaid",
              "type": "uint256"
            },
            {
              "internalType": "uint256",
              "name": "roiClaimedTime",
              "type": "uint256"
            },
            {
              "internalType": "uint256",
              "name": "walletBalance",
              "type": "uint256"
            },
            {
              "internalType": "bool",
              "name": "isActive",
              "type": "bool"
            },
            {
              "internalType": "bool",
              "name": "isROIDisabled",
              "type": "bool"
            },
            {
              "internalType": "bool",
              "name": "isIdVisibilityDisabled",
              "type": "bool"
            },
            {
              "internalType": "bool",
              "name": "canWindraw",
              "type": "bool"
            }
          ],
          "internalType": "struct ReferralV4Upgradeable.StructId",
          "name": "",
          "type": "tuple"
        }
      ],
      "stateMutability": "view",
      "type": "function"
    },
    {
      "inputs": [
        {
          "internalType": "uint32",
          "name": "_id",
          "type": "uint32"
        }
      ],
      "name": "getIdLimits",
      "outputs": [
        {
          "internalType": "uint256",
          "name": "topUpIncome",
          "type": "uint256"
        },
        {
          "internalType": "uint256",
          "name": "topUp",
          "type": "uint256"
        },
        {
          "internalType": "uint256",
          "name": "maxLimit",
          "type": "uint256"
        }
      ],
      "stateMutability": "view",
      "type": "function"
    },
    {
      "inputs": [
        {
          "internalType": "uint32",
          "name": "_id",
          "type": "uint32"
        }
      ],
      "name": "getIdRoyaltyClubLevel",
      "outputs": [
        {
          "internalType": "uint256",
          "name": "",
          "type": "uint256"
        }
      ],
      "stateMutability": "view",
      "type": "function"
    },
    {
      "inputs": [],
      "name": "getMinContributionETH",
      "outputs": [
        {
          "internalType": "uint256",
          "name": "",
          "type": "uint256"
        }
      ],
      "stateMutability": "view",
      "type": "function"
    },
    {
      "inputs": [
        {
          "internalType": "uint8",
          "name": "_packageId",
          "type": "uint8"
        }
      ],
      "name": "getRoyaltyClubPackageInfo",
      "outputs": [
        {
          "components": [
            {
              "internalType": "uint8",
              "name": "packageId",
              "type": "uint8"
            },
            {
              "internalType": "uint256",
              "name": "selfBusiness",
              "type": "uint256"
            },
            {
              "internalType": "uint256",
              "name": "directBusiness",
              "type": "uint256"
            },
            {
              "internalType": "uint256",
              "name": "teamBusiness",
              "type": "uint256"
            },
            {
              "internalType": "string",
              "name": "rankName",
              "type": "string"
            },
            {
              "internalType": "uint256",
              "name": "reward",
              "type": "uint256"
            },
            {
              "internalType": "uint256",
              "name": "businessLimit",
              "type": "uint256"
            },
            {
              "internalType": "uint256",
              "name": "timeLimit",
              "type": "uint256"
            },
            {
              "internalType": "bool",
              "name": "isPayReccursive",
              "type": "bool"
            },
            {
              "internalType": "uint32[]",
              "name": "achieversList",
              "type": "uint32[]"
            }
          ],
          "internalType": "struct ReferralV4Upgradeable.StructPackages",
          "name": "",
          "type": "tuple"
        }
      ],
      "stateMutability": "view",
      "type": "function"
    },
    {
      "inputs": [
        {
          "internalType": "address",
          "name": "_address",
          "type": "address"
        }
      ],
      "name": "getUserAccount",
      "outputs": [
        {
          "components": [
            {
              "internalType": "bool",
              "name": "isActive",
              "type": "bool"
            },
            {
              "internalType": "uint32[]",
              "name": "accountIds",
              "type": "uint32[]"
            },
            {
              "internalType": "string",
              "name": "userName",
              "type": "string"
            }
          ],
          "internalType": "struct ReferralV4Upgradeable.StructAccount",
          "name": "",
          "type": "tuple"
        }
      ],
      "stateMutability": "view",
      "type": "function"
    },
    {
      "inputs": [
        {
          "internalType": "uint32",
          "name": "_id",
          "type": "uint32"
        }
      ],
      "name": "getUserUnlockCount",
      "outputs": [
        {
          "internalType": "uint256",
          "name": "",
          "type": "uint256"
        }
      ],
      "stateMutability": "view",
      "type": "function"
    },
    {
      "inputs": [
        {
          "internalType": "uint32",
          "name": "_id",
          "type": "uint32"
        },
        {
          "internalType": "uint256",
          "name": "_value",
          "type": "uint256"
        }
      ],
      "name": "increaseIdTopIncome",
      "outputs": [],
      "stateMutability": "nonpayable",
      "type": "function"
    },
    {
      "inputs": [],
      "name": "initialize",
      "outputs": [],
      "stateMutability": "nonpayable",
      "type": "function"
    },
    {
      "inputs": [],
      "name": "isActivateROI",
      "outputs": [
        {
          "internalType": "bool",
          "name": "",
          "type": "bool"
        }
      ],
      "stateMutability": "view",
      "type": "function"
    },
    {
      "inputs": [],
      "name": "isPayReferral",
      "outputs": [
        {
          "internalType": "bool",
          "name": "",
          "type": "bool"
        }
      ],
      "stateMutability": "view",
      "type": "function"
    },
    {
      "inputs": [],
      "name": "isPayRoyaltyClubBonus",
      "outputs": [
        {
          "internalType": "bool",
          "name": "",
          "type": "bool"
        }
      ],
      "stateMutability": "view",
      "type": "function"
    },
    {
      "inputs": [
        {
          "internalType": "uint256",
          "name": "",
          "type": "uint256"
        }
      ],
      "name": "levelRates",
      "outputs": [
        {
          "internalType": "uint16",
          "name": "",
          "type": "uint16"
        }
      ],
      "stateMutability": "view",
      "type": "function"
    },
    {
      "inputs": [],
      "name": "maxLevels",
      "outputs": [
        {
          "internalType": "uint8",
          "name": "",
          "type": "uint8"
        }
      ],
      "stateMutability": "view",
      "type": "function"
    },
    {
      "inputs": [],
      "name": "minContributionUSD",
      "outputs": [
        {
          "internalType": "uint256",
          "name": "",
          "type": "uint256"
        }
      ],
      "stateMutability": "view",
      "type": "function"
    },
    {
      "inputs": [],
      "name": "owner",
      "outputs": [
        {
          "internalType": "address",
          "name": "",
          "type": "address"
        }
      ],
      "stateMutability": "view",
      "type": "function"
    },
    {
      "inputs": [],
      "name": "packagesCount",
      "outputs": [
        {
          "internalType": "uint8",
          "name": "",
          "type": "uint8"
        }
      ],
      "stateMutability": "view",
      "type": "function"
    },
    {
      "inputs": [
        {
          "internalType": "uint256",
          "name": "_value",
          "type": "uint256"
        },
        {
          "internalType": "uint32",
          "name": "_id",
          "type": "uint32"
        }
      ],
      "name": "payReferralAdmin",
      "outputs": [],
      "stateMutability": "nonpayable",
      "type": "function"
    },
    {
      "inputs": [],
      "name": "proxiableUUID",
      "outputs": [
        {
          "internalType": "bytes32",
          "name": "",
          "type": "bytes32"
        }
      ],
      "stateMutability": "view",
      "type": "function"
    },
    {
      "inputs": [],
      "name": "renounceOwnership",
      "outputs": [],
      "stateMutability": "nonpayable",
      "type": "function"
    },
    {
      "inputs": [],
      "name": "royaltyClubPackageCount",
      "outputs": [
        {
          "internalType": "uint8",
          "name": "",
          "type": "uint8"
        }
      ],
      "stateMutability": "view",
      "type": "function"
    },
    {
      "inputs": [
        {
          "internalType": "address",
          "name": "_address",
          "type": "address"
        },
        {
          "internalType": "uint256",
          "name": "_value",
          "type": "uint256"
        }
      ],
      "name": "sendETHAdmin",
      "outputs": [],
      "stateMutability": "nonpayable",
      "type": "function"
    },
    {
      "inputs": [
        {
          "internalType": "uint16",
          "name": "_value",
          "type": "uint16"
        }
      ],
      "name": "setLevelDecimals",
      "outputs": [],
      "stateMutability": "nonpayable",
      "type": "function"
    },
    {
      "inputs": [
        {
          "internalType": "uint8[]",
          "name": "_value",
          "type": "uint8[]"
        }
      ],
      "name": "setLevelRates",
      "outputs": [],
      "stateMutability": "nonpayable",
      "type": "function"
    },
    {
      "inputs": [
        {
          "internalType": "uint8",
          "name": "_valueDecimals",
          "type": "uint8"
        }
      ],
      "name": "setMaxLevelsAdmin",
      "outputs": [],
      "stateMutability": "nonpayable",
      "type": "function"
    },
    {
      "inputs": [
        {
          "internalType": "uint256",
          "name": "_valueInUSD",
          "type": "uint256"
        }
      ],
      "name": "setMinContribution",
      "outputs": [],
      "stateMutability": "nonpayable",
      "type": "function"
    },
    {
      "inputs": [
        {
          "internalType": "uint8",
          "name": "packageId",
          "type": "uint8"
        },
        {
          "internalType": "uint256",
          "name": "selfBusiness",
          "type": "uint256"
        },
        {
          "internalType": "uint256",
          "name": "directBusiness",
          "type": "uint256"
        },
        {
          "internalType": "uint256",
          "name": "teamBusiness",
          "type": "uint256"
        },
        {
          "internalType": "string",
          "name": "rankName",
          "type": "string"
        },
        {
          "internalType": "uint256",
          "name": "reward",
          "type": "uint256"
        },
        {
          "internalType": "uint256",
          "name": "businessLimit",
          "type": "uint256"
        },
        {
          "internalType": "uint256",
          "name": "timeLimit",
          "type": "uint256"
        },
        {
          "internalType": "bool",
          "name": "isPayReccursive",
          "type": "bool"
        }
      ],
      "name": "setRoyaltyClubPackage",
      "outputs": [],
      "stateMutability": "nonpayable",
      "type": "function"
    },
    {
      "inputs": [
        {
          "internalType": "uint8",
          "name": "_valueDecimals",
          "type": "uint8"
        }
      ],
      "name": "setRoyaltyPackageCount",
      "outputs": [],
      "stateMutability": "nonpayable",
      "type": "function"
    },
    {
      "inputs": [
        {
          "internalType": "uint32",
          "name": "_id",
          "type": "uint32"
        }
      ],
      "name": "topUpId",
      "outputs": [],
      "stateMutability": "payable",
      "type": "function"
    },
    {
      "inputs": [],
      "name": "totalIds",
      "outputs": [
        {
          "internalType": "uint32",
          "name": "",
          "type": "uint32"
        }
      ],
      "stateMutability": "view",
      "type": "function"
    },
    {
      "inputs": [],
      "name": "totalReferralPaid",
      "outputs": [
        {
          "internalType": "uint256",
          "name": "",
          "type": "uint256"
        }
      ],
      "stateMutability": "view",
      "type": "function"
    },
    {
      "inputs": [],
      "name": "totalRoyaltyClubBonusPaid",
      "outputs": [
        {
          "internalType": "uint256",
          "name": "",
          "type": "uint256"
        }
      ],
      "stateMutability": "view",
      "type": "function"
    },
    {
      "inputs": [
        {
          "internalType": "address",
          "name": "newOwner",
          "type": "address"
        }
      ],
      "name": "transferOwnership",
      "outputs": [],
      "stateMutability": "nonpayable",
      "type": "function"
    },
    {
      "inputs": [
        {
          "internalType": "uint32",
          "name": "_id",
          "type": "uint32"
        },
        {
          "internalType": "uint256",
          "name": "_value",
          "type": "uint256"
        }
      ],
      "name": "updateIdWhenClaimROI",
      "outputs": [],
      "stateMutability": "nonpayable",
      "type": "function"
    },
    {
      "inputs": [
        {
          "internalType": "uint16",
          "name": "_from",
          "type": "uint16"
        },
        {
          "internalType": "uint16",
          "name": "_to",
          "type": "uint16"
        },
        {
          "internalType": "uint256[]",
          "name": "_topUp",
          "type": "uint256[]"
        }
      ],
      "name": "updateTopUp",
      "outputs": [],
      "stateMutability": "nonpayable",
      "type": "function"
    },
    {
      "inputs": [
        {
          "internalType": "uint32",
          "name": "_value",
          "type": "uint32"
        }
      ],
      "name": "updateTotalIds",
      "outputs": [],
      "stateMutability": "nonpayable",
      "type": "function"
    },
    {
      "inputs": [
        {
          "internalType": "address",
          "name": "newImplementation",
          "type": "address"
        }
      ],
      "name": "upgradeTo",
      "outputs": [],
      "stateMutability": "nonpayable",
      "type": "function"
    },
    {
      "inputs": [
        {
          "internalType": "address",
          "name": "newImplementation",
          "type": "address"
        },
        {
          "internalType": "bytes",
          "name": "data",
          "type": "bytes"
        }
      ],
      "name": "upgradeToAndCall",
      "outputs": [],
      "stateMutability": "payable",
      "type": "function"
    },
    {
      "inputs": [
        {
          "internalType": "uint256",
          "name": "",
          "type": "uint256"
        }
      ],
      "name": "users",
      "outputs": [
        {
          "internalType": "address",
          "name": "",
          "type": "address"
        }
      ],
      "stateMutability": "view",
      "type": "function"
    },
    {
      "inputs": [],
      "name": "withdrawETHAdmin",
      "outputs": [],
      "stateMutability": "nonpayable",
      "type": "function"
    },
    {
      "inputs": [
        {
          "internalType": "address",
          "name": "_tokenAddress",
          "type": "address"
        },
        {
          "internalType": "uint256",
          "name": "_value",
          "type": "uint256"
        }
      ],
      "name": "withdrawTokensAdmin",
      "outputs": [],
      "stateMutability": "nonpayable",
      "type": "function"
    },
    {
      "stateMutability": "payable",
      "type": "receive"
    }
  ],
  "bytecode": "0x60a06040523060805234801561001457600080fd5b50608051615d0c6200004d6000396000818161103901528181611082015281816117a9015281816117e901526119700152615d0c6000f3fe6080604052600436106102b25760003560e01c80636f38e41011610175578063a0b6105f116100dc578063cd21364d11610095578063f2fde38b1161006f578063f2fde38b1461087e578063f41bfeef1461089e578063fafc9597146108b4578063fb47e016146108d657600080fd5b8063cd21364d1461081e578063ddc95e011461083e578063e1c715ba1461085e57600080fd5b8063a0b6105f14610775578063a152b0f014610795578063a28a3686146107a8578063a43ae408146107cb578063b47181d3146107eb578063bcb93f9b1461080b57600080fd5b80638129fc1c1161012e5780638129fc1c146106dc578063852ff2fd146106f15780638af925dc146107075780638da5cb5b146107215780638f84de851461073f578063987dd4a71461075557600080fd5b80636f38e410146106155780637084431f14610635578063715018a6146106645780637879b5ef146106795780637bdbf996146106995780637c599486146106c657600080fd5b8063390a5ba5116102195780634e6e93a3116101d25780634e6e93a3146105525780634f1ef2861461058d578063509d6c52146105a057806352d1902d146105c05780635979369a146105d55780636ccc10ae146105f557600080fd5b8063390a5ba5146104805780633eff2def146104b2578063473b0d46146104d2578063498b3e55146104f25780634a750822146105125780634b5102b81461053257600080fd5b806322f88b521161026b57806322f88b52146103d15780632ed421d2146103e7578063313ce567146103fd578063357597881461042b5780633659cfe614610440578063365b98b21461046057600080fd5b8063012da720146102be5780630b243dad146102f45780631319cff91461031657806318e10bff1461034e5780631f9e65e41461038157806321009789146103a457600080fd5b366102b957005b600080fd5b3480156102ca57600080fd5b506102de6102d9366004615001565b610903565b6040516102eb919061501c565b60405180910390f35b34801561030057600080fd5b5061031461030f36600461507b565b610998565b005b34801561032257600080fd5b506103366103313660046150a7565b6109db565b6040516001600160a01b0390911681526020016102eb565b34801561035a57600080fd5b5060d55461036f906301000000900460ff1681565b60405160ff90911681526020016102eb565b34801561038d57600080fd5b50610396610a05565b6040519081526020016102eb565b3480156103b057600080fd5b506103c46103bf3660046150d2565b610a17565b6040516102eb91906151b0565b3480156103dd57600080fd5b5061039660d05481565b3480156103f357600080fd5b5061039660d15481565b34801561040957600080fd5b5060cb546104189061ffff1681565b60405161ffff90911681526020016102eb565b34801561043757600080fd5b50610314610ff8565b34801561044c57600080fd5b5061031461045b366004615448565b61102f565b34801561046c57600080fd5b5061033661047b3660046150a7565b611114565b34801561048c57600080fd5b5060cf5461049d9063ffffffff1681565b60405163ffffffff90911681526020016102eb565b3480156104be57600080fd5b506103146104cd366004615001565b611124565b3480156104de57600080fd5b506103146104ed3660046150a7565b61114a565b3480156104fe57600080fd5b5061031461050d366004615465565b611157565b34801561051e57600080fd5b5061031461052d36600461553a565b6111fd565b34801561053e57600080fd5b5061031461054d366004615001565b6112ad565b34801561055e57600080fd5b5061057261056d3660046150d2565b6112d5565b604080519384526020840192909252908201526060016102eb565b61031461059b3660046155e7565b61179f565b3480156105ac57600080fd5b506103146105bb36600461564b565b61186b565b3480156105cc57600080fd5b50610396611963565b3480156105e157600080fd5b506103146105f03660046150d2565b611a16565b34801561060157600080fd5b5061031461061036600461564b565b611aba565b34801561062157600080fd5b5060cb5461036f9062010000900460ff1681565b34801561064157600080fd5b5060d55461065490610100900460ff1681565b60405190151581526020016102eb565b34801561067057600080fd5b50610314611b61565b34801561068557600080fd5b506104186106943660046150a7565b611b75565b3480156106a557600080fd5b506106b96106b4366004615001565b611bad565b6040516102eb9190615669565b3480156106d257600080fd5b5061039660ce5481565b3480156106e857600080fd5b50610314611dac565b3480156106fd57600080fd5b5061039660cd5481565b34801561071357600080fd5b5060d5546106549060ff1681565b34801561072d57600080fd5b506033546001600160a01b0316610336565b34801561074b57600080fd5b5061039660cc5481565b34801561076157600080fd5b506103966107703660046150d2565b612044565b34801561078157600080fd5b5061031461079036600461507b565b612503565b6103146107a33660046150d2565b61257c565b3480156107b457600080fd5b5060cf5461036f9065010000000000900460ff1681565b3480156107d757600080fd5b506103146107e6366004615729565b612799565b3480156107f757600080fd5b506103966108063660046150d2565b6127b9565b6103146108193660046150d2565b612c75565b34801561082a57600080fd5b5060d55461036f9062010000900460ff1681565b34801561084a57600080fd5b50610314610859366004615790565b612f33565b34801561086a57600080fd5b506103146108793660046157f1565b612fdc565b34801561088a57600080fd5b50610314610899366004615448565b612ff0565b3480156108aa57600080fd5b5061039660d25481565b3480156108c057600080fd5b5060cf5461065490640100000000900460ff1681565b3480156108e257600080fd5b506108f66108f1366004615448565b613066565b6040516102eb9190615833565b60ff8116600090815260d8602090815260409182902060090180548351818402810184019094528084526060939283018282801561098c57602002820191906000526020600020906000905b82829054906101000a900463ffffffff1663ffffffff168152602001906004019060208260030104928301926001038202915080841161094f5790505b50505050509050919050565b6109a06131cc565b6040516001600160a01b0383169082156108fc029083906000818181858888f193505050501580156109d6573d6000803e3d6000fd5b505050565b60d381815481106109eb57600080fd5b6000918252602090912001546001600160a01b0316905081565b6000610a1260cc54613226565b905090565b610b4d604051806104800160405280600063ffffffff168152602001606081526020016000815260200160001515815260200160006001600160a01b03168152602001600063ffffffff168152602001600015158152602001606081526020016060815260200160608152602001606081526020016000815260200160008152602001600081526020016000815260200160008152602001600081526020016000815260200160008152602001600060ff168152602001600063ffffffff16815260200160008152602001600081526020016000815260200160008152602001600081526020016000815260200160008152602001606081526020016000815260200160008152602001600081526020016000151581526020016000151581526020016000151581526020016000151581525090565b63ffffffff808316600090815260d76020908152604091829020825161048081019093528054909316825260018301805492939291840191610b8e90615878565b80601f0160208091040260200160405190810160405280929190818152602001828054610bba90615878565b8015610c075780601f10610bdc57610100808354040283529160200191610c07565b820191906000526020600020905b815481529060010190602001808311610bea57829003601f168201915b50505091835250506002820154602080830191909152600383015460ff80821615156040808601919091526001600160a01b03610100840416606086015263ffffffff600160a81b8404166080860152600160c81b90920416151560a084015260048401805482518185028101850190935280835260c0909401939192909190830182828015610ce257602002820191906000526020600020906000905b82829054906101000a900463ffffffff1663ffffffff1681526020019060040190602082600301049283019260010382029150808411610ca55790505b5050505050815260200160058201805480602002602001604051908101604052809291908181526020018280548015610d6657602002820191906000526020600020906000905b82829054906101000a900463ffffffff1663ffffffff1681526020019060040190602082600301049283019260010382029150808411610d295790505b5050505050815260200160068201805480602002602001604051908101604052809291908181526020018280548015610dea57602002820191906000526020600020906000905b82829054906101000a900463ffffffff1663ffffffff1681526020019060040190602082600301049283019260010382029150808411610dad5790505b5050505050815260200160078201805480602002602001604051908101604052809291908181526020018280548015610e4257602002820191906000526020600020905b815481526020019060010190808311610e2e575b505050918352505060088201546020808301919091526009830154604080840191909152600a8401546060840152600b8401546080840152600c84015460a0840152600d84015460c0840152600e84015460e0840152600f84015461010080850191909152601085015460ff81166101208601520463ffffffff166101408401526011840154610160840152601284015461018084015260138401546101a084015260148401546101c084015260158401546101e084015260168401546102008401526017840154610220840152601884018054825181850281018501909352808352610240909401939192909190830182828015610f8c57602002820191906000526020600020906000905b82829054906101000a900463ffffffff1663ffffffff1681526020019060040190602082600301049283019260010382029150808411610f4f5790505b505050918352505060198201546020820152601a8201546040820152601b8201546060820152601c9091015460ff8082161515608084015261010082048116151560a08401526201000082048116151560c0840152630100000090910416151560e09091015292915050565b6110006131cc565b60405133904780156108fc02916000818181858888f1935050505015801561102c573d6000803e3d6000fd5b50565b6001600160a01b037f00000000000000000000000000000000000000000000000000000000000000001630036110805760405162461bcd60e51b8152600401611077906158b2565b60405180910390fd5b7f00000000000000000000000000000000000000000000000000000000000000006001600160a01b03166110c9600080516020615c90833981519152546001600160a01b031690565b6001600160a01b0316146110ef5760405162461bcd60e51b8152600401611077906158fe565b6110f88161331d565b6040805160008082526020820190925261102c91839190613325565b60d481815481106109eb57600080fd5b61112c6131cc565b60cb805460ff909216620100000262ff000019909216919091179055565b6111526131cc565b60cc55565b60c954604051630935e01b60e21b81523360048201526001600160a01b03909116906324d7806c90602401602060405180830381865afa15801561119f573d6000803e3d6000fd5b505050506040513d601f19601f820116820180604052508101906111c3919061594a565b6111df5760405162461bcd60e51b815260040161107790615967565b60d554610100900460ff16156111f9576111f98282613490565b5050565b6112056131cc565b60ff8916600081815260d860205260409020805460ff191690911781556001810189905560028101889055600381018790556004810161124587826159e1565b5060058101859055600681018490556007810183905560088101805460ff191683151517905560405160ff8b1681527f9a2f17868083013e19d4c26d2af13543606bc680c21c994d7648d3a0510164c99060200160405180910390a150505050505050505050565b6112b56131cc565b60d5805460ff90921663010000000263ff00000019909216919091179055565b63ffffffff808216600090815260d76020908152604080832081516104808101909252805490941681526001840180549394859485948594939084019161131b90615878565b80601f016020809104026020016040519081016040528092919081815260200182805461134790615878565b80156113945780601f1061136957610100808354040283529160200191611394565b820191906000526020600020905b81548152906001019060200180831161137757829003601f168201915b50505091835250506002820154602080830191909152600383015460ff80821615156040808601919091526001600160a01b03610100840416606086015263ffffffff600160a81b8404166080860152600160c81b90920416151560a084015260048401805482518185028101850190935280835260c090940193919290919083018282801561146f57602002820191906000526020600020906000905b82829054906101000a900463ffffffff1663ffffffff16815260200190600401906020826003010492830192600103820291508084116114325790505b50505050508152602001600582018054806020026020016040519081016040528092919081815260200182805480156114f357602002820191906000526020600020906000905b82829054906101000a900463ffffffff1663ffffffff16815260200190600401906020826003010492830192600103820291508084116114b65790505b505050505081526020016006820180548060200260200160405190810160405280929190818152602001828054801561157757602002820191906000526020600020906000905b82829054906101000a900463ffffffff1663ffffffff168152602001906004019060208260030104928301926001038202915080841161153a5790505b50505050508152602001600782018054806020026020016040519081016040528092919081815260200182805480156115cf57602002820191906000526020600020905b8154815260200190600101908083116115bb575b505050918352505060088201546020808301919091526009830154604080840191909152600a8401546060840152600b8401546080840152600c84015460a0840152600d84015460c0840152600e84015460e0840152600f84015461010080850191909152601085015460ff81166101208601520463ffffffff166101408401526011840154610160840152601284015461018084015260138401546101a084015260148401546101c084015260158401546101e08401526016840154610200840152601784015461022084015260188401805482518185028101850190935280835261024090940193919290919083018282801561171957602002820191906000526020600020906000905b82829054906101000a900463ffffffff1663ffffffff16815260200190600401906020826003010492830192600103820291508084116116dc5790505b505050918352505060198201546020820152601a8201546040820152601b8201546060820152601c9091015460ff8082161515608084015261010082048116151560a08401526201000082048116151560c0840152630100000090910416151560e0909101526102c08101516102e0820151610300909201519097919650945092505050565b6001600160a01b037f00000000000000000000000000000000000000000000000000000000000000001630036117e75760405162461bcd60e51b8152600401611077906158b2565b7f00000000000000000000000000000000000000000000000000000000000000006001600160a01b0316611830600080516020615c90833981519152546001600160a01b031690565b6001600160a01b0316146118565760405162461bcd60e51b8152600401611077906158fe565b61185f8261331d565b6111f982826001613325565b60c954604051630935e01b60e21b81523360048201526001600160a01b03909116906324d7806c90602401602060405180830381865afa1580156118b3573d6000803e3d6000fd5b505050506040513d601f19601f820116820180604052508101906118d7919061594a565b6118f35760405162461bcd60e51b815260040161107790615967565b63ffffffff8216600090815260d76020526040812042601a82015560198101805491928492611923908490615ab7565b925050819055508181601201600082825461193e9190615ab7565b925050819055508181601b0160008282546119599190615ab7565b9091555050505050565b6000306001600160a01b037f00000000000000000000000000000000000000000000000000000000000000001614611a035760405162461bcd60e51b815260206004820152603860248201527f555550535570677261646561626c653a206d757374206e6f742062652063616c60448201527f6c6564207468726f7567682064656c656761746563616c6c00000000000000006064820152608401611077565b50600080516020615c9083398151915290565b60c954604051630935e01b60e21b81523360048201526001600160a01b03909116906324d7806c90602401602060405180830381865afa158015611a5e573d6000803e3d6000fd5b505050506040513d601f19601f82011682018060405250810190611a82919061594a565b611a9e5760405162461bcd60e51b815260040161107790615967565b60cf805463ffffffff191663ffffffff92909216919091179055565b60c954604051630935e01b60e21b81523360048201526001600160a01b03909116906324d7806c90602401602060405180830381865afa158015611b02573d6000803e3d6000fd5b505050506040513d601f19601f82011682018060405250810190611b26919061594a565b611b425760405162461bcd60e51b815260040161107790615967565b63ffffffff8216600090815260d7602052604090206109d68183613bc7565b611b696131cc565b611b736000613c51565b565b60ca8181548110611b8557600080fd5b9060005260206000209060109182820401919006600202915054906101000a900461ffff1681565b611c08604051806101400160405280600060ff16815260200160008152602001600081526020016000815260200160608152602001600081526020016000815260200160008152602001600015158152602001606081525090565b60ff808316600090815260d860209081526040918290208251610140810184528154909416845260018101549184019190915260028101549183019190915260038101546060830152600481018054608084019190611c6690615878565b80601f0160208091040260200160405190810160405280929190818152602001828054611c9290615878565b8015611cdf5780601f10611cb457610100808354040283529160200191611cdf565b820191906000526020600020905b815481529060010190602001808311611cc257829003601f168201915b505050505081526020016005820154815260200160068201548152602001600782015481526020016008820160009054906101000a900460ff1615151515815260200160098201805480602002602001604051908101604052809291908181526020018280548015611d9c57602002820191906000526020600020906000905b82829054906101000a900463ffffffff1663ffffffff1681526020019060040190602082600301049283019260010382029150808411611d5f5790505b5050505050815250509050919050565b600054610100900460ff1615808015611dcc5750600054600160ff909116105b80611de65750303b158015611de6575060005460ff166001145b611e495760405162461bcd60e51b815260206004820152602e60248201527f496e697469616c697a61626c653a20636f6e747261637420697320616c72656160448201526d191e481a5b9a5d1a585b1a5e995960921b6064820152608401611077565b6000805460ff191660011790558015611e6c576000805461ff0019166101001790555b60c980546001600160a01b031916730b8bf5feb9fca57d9c5d27185ddf3017e99a2d3617905560cb805461ffff19166103e8179055604080516103a08101825260648152604660208201526032918101829052606081018290526080810182905260a0810182905260c0810182905260e08101829052610100810182905261012081018290526101408101829052610160810182905261018081018290526101a081018290526101c081018290526101e08101829052610200810182905261022081018290526102408101919091526014610260820181905261028082018190526102a082018190526102c082018190526102e082018190526103008201819052610320820181905261034082018190526103608201819052610380820152611f999060ca90601d614e26565b5060cb805462ff000019166232000017905568056bc75e2d6310000060cc5560cf8054660200000000000066ff00ff000000001990911617905560d5805462278d0060d25562ffffff191662140101179055611ff3613ca3565b611ffb613cd2565b801561102c576000805461ff0019169055604051600181527f7f26b83ff96e1f2b6a682f133852f6798a09c465da95921460cefb3847402498906020015b60405180910390a150565b63ffffffff808216600090815260d76020908152604080832081516104808101909252805490941681526001840180549394859492939092908401919061208a90615878565b80601f01602080910402602001604051908101604052809291908181526020018280546120b690615878565b80156121035780601f106120d857610100808354040283529160200191612103565b820191906000526020600020905b8154815290600101906020018083116120e657829003601f168201915b50505091835250506002820154602080830191909152600383015460ff80821615156040808601919091526001600160a01b03610100840416606086015263ffffffff600160a81b8404166080860152600160c81b90920416151560a084015260048401805482518185028101850190935280835260c09094019391929091908301828280156121de57602002820191906000526020600020906000905b82829054906101000a900463ffffffff1663ffffffff16815260200190600401906020826003010492830192600103820291508084116121a15790505b505050505081526020016005820180548060200260200160405190810160405280929190818152602001828054801561226257602002820191906000526020600020906000905b82829054906101000a900463ffffffff1663ffffffff16815260200190600401906020826003010492830192600103820291508084116122255790505b50505050508152602001600682018054806020026020016040519081016040528092919081815260200182805480156122e657602002820191906000526020600020906000905b82829054906101000a900463ffffffff1663ffffffff16815260200190600401906020826003010492830192600103820291508084116122a95790505b505050505081526020016007820180548060200260200160405190810160405280929190818152602001828054801561233e57602002820191906000526020600020905b81548152602001906001019080831161232a575b505050918352505060088201546020808301919091526009830154604080840191909152600a8401546060840152600b8401546080840152600c84015460a0840152600d84015460c0840152600e84015460e0840152600f84015461010080850191909152601085015460ff81166101208601520463ffffffff166101408401526011840154610160840152601284015461018084015260138401546101a084015260148401546101c084015260158401546101e08401526016840154610200840152601784015461022084015260188401805482518185028101850190935280835261024090940193919290919083018282801561248857602002820191906000526020600020906000905b82829054906101000a900463ffffffff1663ffffffff168152602001906004019060208260030104928301926001038202915080841161244b5790505b505050918352505060198201546020820152601a8201546040820152601b8201546060820152601c9091015460ff8082161515608084015261010082048116151560a08401526201000082048116151560c0840152630100000090910416151560e09091015290506124f981613cf9565b60ff169392505050565b61250b6131cc565b60405163a9059cbb60e01b8152336004820152602481018290526001600160a01b0383169063a9059cbb906044016020604051808303816000875af1158015612558573d6000803e3d6000fd5b505050506040513d601f19601f820116820180604052508101906109d6919061594a565b34600061258882613dae565b905060cc548110156125dc5760405162461bcd60e51b815260206004820152601f60248201527f56616c7565206c657373207468656e206d696e436f6e747269627574696f6e006044820152606401611077565b63ffffffff8316600090815260d7602052604081203391429190612601856003615aca565b826012015483601401546126159190615ae1565b61261f9190615ab7565b9050612644828589600089868960cb60029054906101000a900460ff1660ff16613e9c565b60d55460ff16156127905760c954604080516344846f9d60e11b815290516000926001600160a01b031691638908df3a9160048083019260209291908290030181865afa158015612699573d6000803e3d6000fd5b505050506040513d601f19601f820116820180604052508101906126bd9190615af4565b6001600160a01b03166398c7438e896126d7600386615b11565b6040516001600160e01b031960e085901b16815263ffffffff9290921660048301526024820152604481018790526064016020604051808303816000875af1158015612727573d6000803e3d6000fd5b505050506040513d601f19601f8201168201806040525081019061274b9190615b33565b601884018054600181018255600091825260209091206008820401805460079092166004026101000a63ffffffff818102199093169390921691909102919091179055505b50505050505050565b6127a16131cc565b60cb805461ffff191661ffff92909216919091179055565b63ffffffff808216600090815260d7602090815260408083208151610480810190925280549094168152600184018054939485949293909290840191906127ff90615878565b80601f016020809104026020016040519081016040528092919081815260200182805461282b90615878565b80156128785780601f1061284d57610100808354040283529160200191612878565b820191906000526020600020905b81548152906001019060200180831161285b57829003601f168201915b50505091835250506002820154602080830191909152600383015460ff80821615156040808601919091526001600160a01b03610100840416606086015263ffffffff600160a81b8404166080860152600160c81b90920416151560a084015260048401805482518185028101850190935280835260c090940193919290919083018282801561295357602002820191906000526020600020906000905b82829054906101000a900463ffffffff1663ffffffff16815260200190600401906020826003010492830192600103820291508084116129165790505b50505050508152602001600582018054806020026020016040519081016040528092919081815260200182805480156129d757602002820191906000526020600020906000905b82829054906101000a900463ffffffff1663ffffffff168152602001906004019060208260030104928301926001038202915080841161299a5790505b5050505050815260200160068201805480602002602001604051908101604052809291908181526020018280548015612a5b57602002820191906000526020600020906000905b82829054906101000a900463ffffffff1663ffffffff1681526020019060040190602082600301049283019260010382029150808411612a1e5790505b5050505050815260200160078201805480602002602001604051908101604052809291908181526020018280548015612ab357602002820191906000526020600020905b815481526020019060010190808311612a9f575b505050918352505060088201546020808301919091526009830154604080840191909152600a8401546060840152600b8401546080840152600c84015460a0840152600d84015460c0840152600e84015460e0840152600f84015461010080850191909152601085015460ff81166101208601520463ffffffff166101408401526011840154610160840152601284015461018084015260138401546101a084015260148401546101c084015260158401546101e084015260168401546102008401526017840154610220840152601884018054825181850281018501909352808352610240909401939192909190830182828015612bfd57602002820191906000526020600020906000905b82829054906101000a900463ffffffff1663ffffffff1681526020019060040190602082600301049283019260010382029150808411612bc05790505b505050918352505060198201546020820152601a8201546040820152601b8201546060820152601c9091015460ff8082161515608084015261010082048116151560a08401526201000082048116151560c0840152630100000090910416151560e0909101529050612c6e816141bf565b9392505050565b346000612c8182613dae565b905060cc54811015612cd55760405162461bcd60e51b815260206004820152601f60248201527f56616c7565206c657373207468656e206d696e436f6e747269627574696f6e006044820152606401611077565b60cf5433904290600090612cf09063ffffffff166001615b50565b6001600160a01b038416600090815260d66020908152604080832063ffffffff8516845260d790925282209293509190612d2b876003615aca565b82601201548360140154612d3f9190615ae1565b612d499190615ab7565b9050612d6d8287868c8b868b60cb60029054906101000a900460ff1660ff16613e9c565b60d55460ff1615612eb95760c954604080516344846f9d60e11b815290516000926001600160a01b031691638908df3a9160048083019260209291908290030181865afa158015612dc2573d6000803e3d6000fd5b505050506040513d601f19601f82011682018060405250810190612de69190615af4565b6001600160a01b03166398c7438e86612e00600386615b11565b6040516001600160e01b031960e085901b16815263ffffffff9290921660048301526024820152604481018990526064016020604051808303816000875af1158015612e50573d6000803e3d6000fd5b505050506040513d601f19601f82011682018060405250810190612e749190615b33565b601884018054600181018255600091825260209091206008820401805460079092166004026101000a63ffffffff818102199093169390921691909102919091179055505b6001838101805491820181556000908152602081206008830401805460079093166004026101000a63ffffffff818102199094168885169190910217905560cf80549092169190612f0983615b74565b91906101000a81548163ffffffff021916908363ffffffff16021790555050505050505050505050565b60005b8361ffff168561ffff1611612fd557600083838361ffff16818110612f5d57612f5d615b97565b905060200201351115612fb55761ffff808616600090815260d76020526040902090849084908416818110612f9457612f94615b97565b90506020020135816013016000828254612fae9190615ab7565b9091555050505b80612fbf81615bad565b9150508480612fcd90615bad565b955050612f36565b5050505050565b612fe46131cc565b6109d660ca8383614ece565b612ff86131cc565b6001600160a01b03811661305d5760405162461bcd60e51b815260206004820152602660248201527f4f776e61626c653a206e6577206f776e657220697320746865207a65726f206160448201526564647265737360d01b6064820152608401611077565b61102c81613c51565b61308c604051806060016040528060001515815260200160608152602001606081525090565b6001600160a01b038216600090815260d660209081526040918290208251606081018452815460ff16151581526001820180548551818602810186019096528086529194929385810193929083018282801561313357602002820191906000526020600020906000905b82829054906101000a900463ffffffff1663ffffffff16815260200190600401906020826003010492830192600103820291508084116130f65790505b5050505050815260200160028201805461314c90615878565b80601f016020809104026020016040519081016040528092919081815260200182805461317890615878565b8015611d9c5780601f1061319a57610100808354040283529160200191611d9c565b820191906000526020600020905b8154815290600101906020018083116131a857505050919092525091949350505050565b6033546001600160a01b03163314611b735760405162461bcd60e51b815260206004820181905260248201527f4f776e61626c653a2063616c6c6572206973206e6f7420746865206f776e65726044820152606401611077565b60008060c960009054906101000a90046001600160a01b03166001600160a01b0316632913497b6040518163ffffffff1660e01b8152600401602060405180830381865afa15801561327c573d6000803e3d6000fd5b505050506040513d601f19601f820116820180604052508101906132a09190615af4565b6001600160a01b031663e1aa60366040518163ffffffff1660e01b8152600401602060405180830381865afa1580156132dd573d6000803e3d6000fd5b505050506040513d601f19601f820116820180604052508101906133019190615bc4565b61331384670de0b6b3a7640000615aca565b612c6e9190615b11565b61102c6131cc565b7f4910fdfa16fed3260ed0e7147f7cc6da11a60208b5b9406d12a635614ffd91435460ff1615613358576109d6836141fe565b826001600160a01b03166352d1902d6040518163ffffffff1660e01b8152600401602060405180830381865afa9250505080156133b2575060408051601f3d908101601f191682019092526133af91810190615bc4565b60015b6134155760405162461bcd60e51b815260206004820152602e60248201527f45524331393637557067726164653a206e657720696d706c656d656e7461746960448201526d6f6e206973206e6f74205555505360901b6064820152608401611077565b600080516020615c9083398151915281146134845760405162461bcd60e51b815260206004820152602960248201527f45524331393637557067726164653a20756e737570706f727465642070726f786044820152681a58589b195555525160ba1b6064820152608401611077565b506109d683838361429a565b600060ca80548060200260200160405190810160405280929190818152602001828054801561350657602002820191906000526020600020906000905b82829054906101000a900461ffff1661ffff16815260200190600201906020826001010492830192600103820291508084116134cd5790505b5050835163ffffffff8716600090815260d7602052604081209596509094935091508190505b8360ff168160ff161015613ba757600383015463ffffffff600160a81b9091048116600081815260d760205260408120805492939092169003613570575050613ba7565b613579816142c5565b156135f15760405172149959995c995c881a5cc8111a5cd8589b1959606a1b81526013015b6040519081900390206135b2846001615bdd565b60ff168363ffffffff167f915ed47901013ad29e90ede828f72888f54bd58cea141b0c6967498165382eb560405160405180910390a49350613b959050565b604080516104808101909152815463ffffffff168152600182018054613a8c9291849160208401919061362390615878565b80601f016020809104026020016040519081016040528092919081815260200182805461364f90615878565b801561369c5780601f106136715761010080835404028352916020019161369c565b820191906000526020600020905b81548152906001019060200180831161367f57829003601f168201915b50505091835250506002820154602080830191909152600383015460ff80821615156040808601919091526001600160a01b03610100840416606086015263ffffffff600160a81b8404166080860152600160c81b90920416151560a084015260048401805482518185028101850190935280835260c090940193919290919083018282801561377757602002820191906000526020600020906000905b82829054906101000a900463ffffffff1663ffffffff168152602001906004019060208260030104928301926001038202915080841161373a5790505b50505050508152602001600582018054806020026020016040519081016040528092919081815260200182805480156137fb57602002820191906000526020600020906000905b82829054906101000a900463ffffffff1663ffffffff16815260200190600401906020826003010492830192600103820291508084116137be5790505b505050505081526020016006820180548060200260200160405190810160405280929190818152602001828054801561387f57602002820191906000526020600020906000905b82829054906101000a900463ffffffff1663ffffffff16815260200190600401906020826003010492830192600103820291508084116138425790505b50505050508152602001600782018054806020026020016040519081016040528092919081815260200182805480156138d757602002820191906000526020600020905b8154815260200190600101908083116138c3575b505050918352505060088201546020808301919091526009830154604080840191909152600a8401546060840152600b8401546080840152600c84015460a0840152600d84015460c0840152600e84015460e0840152600f84015461010080850191909152601085015460ff81166101208601520463ffffffff166101408401526011840154610160840152601284015461018084015260138401546101a084015260148401546101c084015260158401546101e084015260168401546102008401526017840154610220840152601884018054825181850281018501909352808352610240909401939192909190830182828015613a2157602002820191906000526020600020906000905b82829054906101000a900463ffffffff1663ffffffff16815260200190600401906020826003010492830192600103820291508084116139e45790505b505050918352505060198201546020820152601a8201546040820152601b8201546060820152601c9091015460ff8082161515608084015261010082048116151560a08401526201000082048116151560c0840152630100000090910416151560e0909101526141bf565b613a97846001615bdd565b60ff161115613ace576040517f446f776e6c696e65206c6576656c73206c696d697420726561636865640000008152601d0161359e565b60cb54875160009161ffff1690899060ff8716908110613af057613af0615b97565b602002602001015161ffff168b613b079190615aca565b613b119190615b11565b905080826017016000828254613b279190615ab7565b90915550613b3790508282613bc7565b613b418186615ab7565b94508063ffffffff808516908b167ff8fb9b5ab69a0208214661678427c6b48abf457f53605d1f559d17452f1eea11613b7b886001615bdd565b60405160ff909116815260200160405180910390a4509350505b80613b9f81615bf6565b91505061352c565b508060ce6000828254613bba9190615ab7565b9091555050505050505050565b8160140154818360120154613bdc9190615ab7565b11613c1b5780826012016000828254613bf59190615ab7565b925050819055508082601b016000828254613c109190615ab7565b909155506111f99050565b81601201548260140154613c2f9190615ae1565b82601b016000828254613c429190615ab7565b909155506111f9905082614446565b603380546001600160a01b038381166001600160a01b0319831681179093556040519116919082907f8be0079c531659141344cd1fd0a4f28419497f9722a3daafe3b4186f6b6457e090600090a35050565b600054610100900460ff16613cca5760405162461bcd60e51b815260040161107790615c15565b611b736144ee565b600054610100900460ff16611b735760405162461bcd60e51b815260040161107790615c15565b60d5546000906301000000900460ff16815b8160ff168160ff161015613da75760ff8116600090815260d8602052604090206001015461016085015110801590613d5d575060ff8116600090815260d860205260409020600201546101a085015110155b8015613d83575060ff8116600090815260d860205260409020600301546101e085015110155b15613d9057809250613d95565b613da7565b80613d9f81615bf6565b915050613d0b565b5050919050565b600080670de0b6b3a764000060c960009054906101000a90046001600160a01b03166001600160a01b0316632913497b6040518163ffffffff1660e01b8152600401602060405180830381865afa158015613e0d573d6000803e3d6000fd5b505050506040513d601f19601f82011682018060405250810190613e319190615af4565b6001600160a01b031663e1aa60366040518163ffffffff1660e01b8152600401602060405180830381865afa158015613e6e573d6000803e3d6000fd5b505050506040513d601f19601f82011682018060405250810190613e929190615bc4565b6133139085615aca565b875463ffffffff16600003613ebf57875463ffffffff191663ffffffff87161788555b601c88015460ff16613edb57601c8801805460ff191660011790555b600388015460ff16613f335760d480546001810182556000919091527f9780e26d96b1f2a9a18ef8fc72d589dbf03ef788137b64f43897e83a91e7feec0180546001600160a01b0319166001600160a01b0389161790555b600388015461010090046001600160a01b0316613f6d57600388018054610100600160a81b0319166101006001600160a01b038a16021790555b8760020154600003613f8157600288018290555b6003880154600160c81b900460ff16613fc55760038801805460ff60c81b1963ffffffff8816600160a81b021664ffffffffff60a81b1990911617600160c81b1790555b60006012890155613fd7600384615b11565b60138901556014880183905560078801805460018101825560009182526020822001859055600889018054869290614010908490615ab7565b909155505060158801829055604080516000815260208101918290525161403b9160188b0191614f39565b5060005b818160ff1610156141b457600389015463ffffffff600160a81b9091048116600081815260d7602052604081208054929390921690036140805750506141b4565b8260ff166000036140e2578681600a01600082825461409f9190615ab7565b909155505060048181018054600181018255600091825260209091206008820401805460079092169092026101000a63ffffffff81810219909216918c16021790555b8681600c0160008282546140f69190615ab7565b909155505063ffffffff881615614176576005810180546001810182556000918252602082206008820401805460079092166004026101000a63ffffffff818102199093168d841691820217909155835460405190831693928c16927f3ec54e926fe5dd86406fe57832ff318517aed2a5cfbeacfb90a5e9489483ae4b91a45b60cf54640100000000900460ff16156141945761419481888761451e565b61419e8786614c78565b99508190506141ac81615bf6565b91505061403f565b505050505050505050565b60e081015151600090818115612c6e5760cf546001906141ec906601000000000000900460ff1684615aca565b6141f69190615ae1565b949350505050565b6001600160a01b0381163b61426b5760405162461bcd60e51b815260206004820152602d60248201527f455243313936373a206e657720696d706c656d656e746174696f6e206973206e60448201526c1bdd08184818dbdb9d1c9858dd609a1b6064820152608401611077565b600080516020615c9083398151915280546001600160a01b0319166001600160a01b0392909216919091179055565b6142a383614cb2565b6000825111806142b05750805b156109d6576142bf8383614cf2565b50505050565b601c81015460009060ff1615806142e457508160140154826012015410155b156142f157506001919050565b601882015415801590614431575060c960009054906101000a90046001600160a01b03166001600160a01b0316638908df3a6040518163ffffffff1660e01b8152600401602060405180830381865afa158015614352573d6000803e3d6000fd5b505050506040513d601f19601f820116820180604052508101906143769190615af4565b6001600160a01b03166355332a85836018016001856018018054905061439c9190615ae1565b815481106143ac576143ac615b97565b6000918252602090912060088204015460405160e084901b6001600160e01b0319168152600790921660049081026101000a90910463ffffffff1690820152602401602060405180830381865afa15801561440b573d6000803e3d6000fd5b505050506040513d601f19601f8201168201806040525081019061442f919061594a565b155b1561443e57506001919050565b506000919050565b601c8101805460ff191690556040805160008152602081019182905251614471916018840191614f39565b5060006012820181905560138201819055601482015542601682015580546040805163ffffffff9092168252602082018190526011908201527013585e08131a5b5a5d0814995858da1959607a1b60608201527fce8ab8f2ac6a94861f9740fa1fed3e6d13a85dfd8a4833bf96f3a0055ba7fb6f90608001612039565b600054610100900460ff166145155760405162461bcd60e51b815260040161107790615c15565b611b7333613c51565b6010830154604080516104808101909152845463ffffffff16815260018501805460ff909316926149c49291879160208401919061455b90615878565b80601f016020809104026020016040519081016040528092919081815260200182805461458790615878565b80156145d45780601f106145a9576101008083540402835291602001916145d4565b820191906000526020600020905b8154815290600101906020018083116145b757829003601f168201915b50505091835250506002820154602080830191909152600383015460ff80821615156040808601919091526001600160a01b03610100840416606086015263ffffffff600160a81b8404166080860152600160c81b90920416151560a084015260048401805482518185028101850190935280835260c09094019391929091908301828280156146af57602002820191906000526020600020906000905b82829054906101000a900463ffffffff1663ffffffff16815260200190600401906020826003010492830192600103820291508084116146725790505b505050505081526020016005820180548060200260200160405190810160405280929190818152602001828054801561473357602002820191906000526020600020906000905b82829054906101000a900463ffffffff1663ffffffff16815260200190600401906020826003010492830192600103820291508084116146f65790505b50505050508152602001600682018054806020026020016040519081016040528092919081815260200182805480156147b757602002820191906000526020600020906000905b82829054906101000a900463ffffffff1663ffffffff168152602001906004019060208260030104928301926001038202915080841161477a5790505b505050505081526020016007820180548060200260200160405190810160405280929190818152602001828054801561480f57602002820191906000526020600020905b8154815260200190600101908083116147fb575b505050918352505060088201546020808301919091526009830154604080840191909152600a8401546060840152600b8401546080840152600c84015460a0840152600d84015460c0840152600e84015460e0840152600f84015461010080850191909152601085015460ff81166101208601520463ffffffff166101408401526011840154610160840152601284015461018084015260138401546101a084015260148401546101c084015260158401546101e08401526016840154610200840152601784015461022084015260188401805482518185028101850190935280835261024090940193919290919083018282801561495957602002820191906000526020600020906000905b82829054906101000a900463ffffffff1663ffffffff168152602001906004019060208260030104928301926001038202915080841161491c5790505b505050918352505060198201546020820152601a8201546040820152601b8201546060820152601c9091015460ff8082161515608084015261010082048116151560a08401526201000082048116151560c0840152630100000090910416151560e090910152613cf9565b60ff1611156109d657604080516104808101909152835463ffffffff1681526001840180546149ff9291869160208401919061455b90615878565b60108401805460ff191660ff9283169081178255600090815260d860209081526040808320885460099182018054600181810183559187529486206008860401805463ffffffff60079097166004026101000a8781021990911696909316909202949094179055935490941682529290200154614a7c9190615ae1565b60108401805464ffffffff0019811661010063ffffffff948516810291821793849055875460408051918716825291909404909416602084015260ff918216911617918101919091527f4d3af8f60ffd033b575846f894122f2342b39bc9a90da98d0a966128702b568d9060600160405180910390a1604080516104808101909152835463ffffffff16815260018401805460d892600092614b28928891602084019161455b90615878565b60ff90811682526020820192909252604001600020600801541615614be757604080516104808101909152835463ffffffff16815260018401805460d892600092614b7d928891602084019161455b90615878565b60ff1660ff1681526020019081526020016000206007015483600f0154614ba49190615ab7565b811115614bd3578083600f01819055508183600e016000828254614bc89190615ab7565b909155506109d69050565b8183600e016000828254614bc89190615ab7565b60cf54640100000000900460ff16156109d657601083015460ff16600090815260d86020526040902060050154614c1f908490613bc7565b601083015460ff908116600090815260d8602052604080822060058101549054875492519194169263ffffffff909216917fdeaf5b294f5016988108257045fc779d7d01e05a4ecdc4df70f62d5a799e053b91a4505050565b60d25460d154614c889190615ab7565b811115614c975760d15560d055565b8160d06000828254614ca99190615ab7565b90915550505050565b614cbb816141fe565b6040516001600160a01b038216907fbc7cd75a20ee27fd9adebab32041f755214dbc6bffa90cc0225b39da2e5c2d3b90600090a250565b60606001600160a01b0383163b614d5a5760405162461bcd60e51b815260206004820152602660248201527f416464726573733a2064656c65676174652063616c6c20746f206e6f6e2d636f6044820152651b9d1c9858dd60d21b6064820152608401611077565b600080846001600160a01b031684604051614d759190615c60565b600060405180830381855af49150503d8060008114614db0576040519150601f19603f3d011682016040523d82523d6000602084013e614db5565b606091505b5091509150614ddd8282604051806060016040528060278152602001615cb060279139614de8565b925050505b92915050565b60608315614df7575081612c6e565b612c6e8383815115614e0c5781518083602001fd5b8060405162461bcd60e51b81526004016110779190615c7c565b82805482825590600052602060002090600f01601090048101928215614ebe5791602002820160005b83821115614e8e57835183826101000a81548161ffff021916908360ff1602179055509260200192600201602081600101049283019260010302614e4f565b8015614ebc5782816101000a81549061ffff0219169055600201602081600101049283019260010302614e8e565b505b50614eca929150614fd6565b5090565b82805482825590600052602060002090600f01601090048101928215614ebe5791602002820160005b83821115614e8e57833560ff1683826101000a81548161ffff021916908360ff1602179055509260200192600201602081600101049283019260010302614ef7565b82805482825590600052602060002090600701600890048101928215614ebe5791602002820160005b83821115614fa657835183826101000a81548163ffffffff021916908363ffffffff1602179055509260200192600401602081600301049283019260010302614f62565b8015614ebc5782816101000a81549063ffffffff0219169055600401602081600301049283019260010302614fa6565b5b80821115614eca5760008155600101614fd7565b803560ff81168114614ffc57600080fd5b919050565b60006020828403121561501357600080fd5b612c6e82614feb565b6020808252825182820181905260009190848201906040850190845b8181101561505a57835163ffffffff1683529284019291840191600101615038565b50909695505050505050565b6001600160a01b038116811461102c57600080fd5b6000806040838503121561508e57600080fd5b823561509981615066565b946020939093013593505050565b6000602082840312156150b957600080fd5b5035919050565b63ffffffff8116811461102c57600080fd5b6000602082840312156150e457600080fd5b8135612c6e816150c0565b60005b8381101561510a5781810151838201526020016150f2565b50506000910152565b6000815180845261512b8160208601602086016150ef565b601f01601f19169290920160200192915050565b600081518084526020808501945080840160005b8381101561517557815163ffffffff1687529582019590820190600101615153565b509495945050505050565b600081518084526020808501945080840160005b8381101561517557815187529582019590820190600101615194565b602081526151c760208201835163ffffffff169052565b600060208301516104808060408501526151e56104a0850183615113565b9150604085015160608501526060850151615204608086018215159052565b5060808501516001600160a01b03811660a08601525060a085015163ffffffff811660c08601525060c085015180151560e08601525060e0850151601f19610100818786030181880152615258858461513f565b945080880151925050610120818786030181880152615277858461513f565b945080880151925050610140818786030181880152615296858461513f565b9450808801519250506101608187860301818801526152b58584615180565b90880151610180888101919091528801516101a0808901919091528801516101c0808901919091528801516101e0808901919091528801516102008089019190915288015161022080890191909152880151610240808901919091528801516102608089019190915288015190945091506102806153378188018460ff169052565b87015191506102a06153508782018463ffffffff169052565b8701516102c0878101919091528701516102e080880191909152870151610300808801919091528701516103208088019190915287015161034080880191909152870151610360808801919091528701516103808088019190915287015186850382016103a0808901919091529092506153ca858461513f565b908801516103c0888101919091528801516103e080890191909152880151610400808901919091528801519094509150610420905061540c8187018315159052565b86015190506104406154218682018315159052565b86015190506104606154368682018315159052565b90950151151593019290925250919050565b60006020828403121561545a57600080fd5b8135612c6e81615066565b6000806040838503121561547857600080fd5b82359150602083013561548a816150c0565b809150509250929050565b634e487b7160e01b600052604160045260246000fd5b600067ffffffffffffffff808411156154c6576154c6615495565b604051601f8501601f19908116603f011681019082821181831017156154ee576154ee615495565b8160405280935085815286868601111561550757600080fd5b858560208301376000602087830101525050509392505050565b801515811461102c57600080fd5b8035614ffc81615521565b60008060008060008060008060006101208a8c03121561555957600080fd5b6155628a614feb565b985060208a0135975060408a0135965060608a0135955060808a013567ffffffffffffffff81111561559357600080fd5b8a01601f81018c136155a457600080fd5b6155b38c8235602084016154ab565b95505060a08a0135935060c08a0135925060e08a013591506155d86101008b0161552f565b90509295985092959850929598565b600080604083850312156155fa57600080fd5b823561560581615066565b9150602083013567ffffffffffffffff81111561562157600080fd5b8301601f8101851361563257600080fd5b615641858235602084016154ab565b9150509250929050565b6000806040838503121561565e57600080fd5b8235615099816150c0565b6020815261567d60208201835160ff169052565b602082015160408201526040820151606082015260608201516080820152600060808301516101408060a08501526156b9610160850183615113565b915060a085015160c085015260c085015160e085015260e08501516101008181870152808701519150506101206156f38187018315159052565b860151858403601f190183870152905061570d838261513f565b9695505050505050565b803561ffff81168114614ffc57600080fd5b60006020828403121561573b57600080fd5b612c6e82615717565b60008083601f84011261575657600080fd5b50813567ffffffffffffffff81111561576e57600080fd5b6020830191508360208260051b850101111561578957600080fd5b9250929050565b600080600080606085870312156157a657600080fd5b6157af85615717565b93506157bd60208601615717565b9250604085013567ffffffffffffffff8111156157d957600080fd5b6157e587828801615744565b95989497509550505050565b6000806020838503121561580457600080fd5b823567ffffffffffffffff81111561581b57600080fd5b61582785828601615744565b90969095509350505050565b60208152815115156020820152600060208301516060604084015261585b608084018261513f565b90506040840151601f19848303016060850152614ddd8282615113565b600181811c9082168061588c57607f821691505b6020821081036158ac57634e487b7160e01b600052602260045260246000fd5b50919050565b6020808252602c908201527f46756e6374696f6e206d7573742062652063616c6c6564207468726f7567682060408201526b19195b1959d85d1958d85b1b60a21b606082015260800190565b6020808252602c908201527f46756e6374696f6e206d7573742062652063616c6c6564207468726f7567682060408201526b6163746976652070726f787960a01b606082015260800190565b60006020828403121561595c57600080fd5b8151612c6e81615521565b6020808252601290820152712cb7ba9030b932903737ba1030b236b4b71760711b604082015260600190565b601f8211156109d657600081815260208120601f850160051c810160208610156159ba5750805b601f850160051c820191505b818110156159d9578281556001016159c6565b505050505050565b815167ffffffffffffffff8111156159fb576159fb615495565b615a0f81615a098454615878565b84615993565b602080601f831160018114615a445760008415615a2c5750858301515b600019600386901b1c1916600185901b1785556159d9565b600085815260208120601f198616915b82811015615a7357888601518255948401946001909101908401615a54565b5085821015615a915787850151600019600388901b60f8161c191681555b5050505050600190811b01905550565b634e487b7160e01b600052601160045260246000fd5b80820180821115614de257614de2615aa1565b8082028115828204841417614de257614de2615aa1565b81810381811115614de257614de2615aa1565b600060208284031215615b0657600080fd5b8151612c6e81615066565b600082615b2e57634e487b7160e01b600052601260045260246000fd5b500490565b600060208284031215615b4557600080fd5b8151612c6e816150c0565b63ffffffff818116838216019080821115615b6d57615b6d615aa1565b5092915050565b600063ffffffff808316818103615b8d57615b8d615aa1565b6001019392505050565b634e487b7160e01b600052603260045260246000fd5b600061ffff808316818103615b8d57615b8d615aa1565b600060208284031215615bd657600080fd5b5051919050565b60ff8181168382160190811115614de257614de2615aa1565b600060ff821660ff8103615c0c57615c0c615aa1565b60010192915050565b6020808252602b908201527f496e697469616c697a61626c653a20636f6e7472616374206973206e6f74206960408201526a6e697469616c697a696e6760a81b606082015260800190565b60008251615c728184602087016150ef565b9190910192915050565b602081526000612c6e602083018461511356fe360894a13ba1a3210667c828492db98dca3e2076cc3735a920a3ca505d382bbc416464726573733a206c6f772d6c6576656c2064656c65676174652063616c6c206661696c6564a26469706673582212200ac952c4f2b04338c8a5a3b7d7456ba8e2529a7b0140b07bb1db1cd50c15ed6864736f6c63430008120033",
  "linkReferences": {},
  "deployedLinkReferences": {}
}