{
  "_format": "hh-sol-artifact-1",
  "contractName": "ReferralV4Upgradeable",
  "sourceName": "contracts/ReferralV4Upgradeable.sol",
  "abi": [
    {
      "anonymous": false,
      "inputs": [
        {
          "indexed": false,
          "internalType": "uint32",
          "name": "id",
          "type": "uint32"
        }
      ],
      "name": "ActivatedId",
      "type": "event"
    },
    {
      "anonymous": false,
      "inputs": [
        {
          "indexed": false,
          "internalType": "uint32",
          "name": "id",
          "type": "uint32"
        },
        {
          "indexed": false,
          "internalType": "uint32",
          "name": "index",
          "type": "uint32"
        },
        {
          "indexed": false,
          "internalType": "uint8",
          "name": "rank",
          "type": "uint8"
        }
      ],
      "name": "AddedInRoyaltyClubList",
      "type": "event"
    },
    {
      "anonymous": false,
      "inputs": [
        {
          "indexed": false,
          "internalType": "address",
          "name": "previousAdmin",
          "type": "address"
        },
        {
          "indexed": false,
          "internalType": "address",
          "name": "newAdmin",
          "type": "address"
        }
      ],
      "name": "AdminChanged",
      "type": "event"
    },
    {
      "anonymous": false,
      "inputs": [
        {
          "indexed": true,
          "internalType": "address",
          "name": "beacon",
          "type": "address"
        }
      ],
      "name": "BeaconUpgraded",
      "type": "event"
    },
    {
      "anonymous": false,
      "inputs": [
        {
          "indexed": false,
          "internalType": "uint32",
          "name": "id",
          "type": "uint32"
        },
        {
          "indexed": false,
          "internalType": "string",
          "name": "reason",
          "type": "string"
        }
      ],
      "name": "DeactivatedId",
      "type": "event"
    },
    {
      "anonymous": false,
      "inputs": [
        {
          "indexed": false,
          "internalType": "uint8",
          "name": "version",
          "type": "uint8"
        }
      ],
      "name": "Initialized",
      "type": "event"
    },
    {
      "anonymous": false,
      "inputs": [
        {
          "indexed": false,
          "internalType": "uint32",
          "name": "id",
          "type": "uint32"
        },
        {
          "indexed": false,
          "internalType": "address",
          "name": "owner",
          "type": "address"
        }
      ],
      "name": "OwnerChangedId",
      "type": "event"
    },
    {
      "anonymous": false,
      "inputs": [
        {
          "indexed": true,
          "internalType": "address",
          "name": "previousOwner",
          "type": "address"
        },
        {
          "indexed": true,
          "internalType": "address",
          "name": "newOwner",
          "type": "address"
        }
      ],
      "name": "OwnershipTransferred",
      "type": "event"
    },
    {
      "anonymous": false,
      "inputs": [
        {
          "indexed": false,
          "internalType": "uint8",
          "name": "packageId",
          "type": "uint8"
        }
      ],
      "name": "PackageAdded",
      "type": "event"
    },
    {
      "anonymous": false,
      "inputs": [
        {
          "indexed": false,
          "internalType": "uint8",
          "name": "packageId",
          "type": "uint8"
        }
      ],
      "name": "PackageRemoved",
      "type": "event"
    },
    {
      "anonymous": false,
      "inputs": [
        {
          "indexed": false,
          "internalType": "uint8",
          "name": "packageId",
          "type": "uint8"
        }
      ],
      "name": "PackageUpdated",
      "type": "event"
    },
    {
      "anonymous": false,
      "inputs": [
        {
          "indexed": true,
          "internalType": "uint32",
          "name": "refererId",
          "type": "uint32"
        },
        {
          "indexed": true,
          "internalType": "uint8",
          "name": "level",
          "type": "uint8"
        },
        {
          "indexed": true,
          "internalType": "string",
          "name": "reason",
          "type": "string"
        }
      ],
      "name": "ReferralNotPaid",
      "type": "event"
    },
    {
      "anonymous": false,
      "inputs": [
        {
          "indexed": true,
          "internalType": "uint32",
          "name": "refereeId",
          "type": "uint32"
        },
        {
          "indexed": true,
          "internalType": "uint32",
          "name": "referrerId",
          "type": "uint32"
        },
        {
          "indexed": true,
          "internalType": "uint256",
          "name": "amount",
          "type": "uint256"
        },
        {
          "indexed": false,
          "internalType": "uint8",
          "name": "level",
          "type": "uint8"
        }
      ],
      "name": "ReferralRewardPaid",
      "type": "event"
    },
    {
      "anonymous": false,
      "inputs": [
        {
          "indexed": true,
          "internalType": "address",
          "name": "refereeId",
          "type": "address"
        },
        {
          "indexed": true,
          "internalType": "address",
          "name": "referrerId",
          "type": "address"
        },
        {
          "indexed": true,
          "internalType": "string",
          "name": "reason",
          "type": "string"
        }
      ],
      "name": "RegisterRefererFailed",
      "type": "event"
    },
    {
      "anonymous": false,
      "inputs": [
        {
          "indexed": true,
          "internalType": "uint32",
          "name": "id",
          "type": "uint32"
        },
        {
          "indexed": true,
          "internalType": "uint32",
          "name": "refererId",
          "type": "uint32"
        }
      ],
      "name": "RegisteredReferer",
      "type": "event"
    },
    {
      "anonymous": false,
      "inputs": [
        {
          "indexed": true,
          "internalType": "uint32",
          "name": "refereeId",
          "type": "uint32"
        },
        {
          "indexed": true,
          "internalType": "uint32",
          "name": "referrerId",
          "type": "uint32"
        },
        {
          "indexed": true,
          "internalType": "uint32",
          "name": "parentAccountId",
          "type": "uint32"
        }
      ],
      "name": "RegisteredTeamAddress",
      "type": "event"
    },
    {
      "anonymous": false,
      "inputs": [
        {
          "indexed": true,
          "internalType": "uint32",
          "name": "userid",
          "type": "uint32"
        },
        {
          "indexed": true,
          "internalType": "uint8",
          "name": "packageId",
          "type": "uint8"
        },
        {
          "indexed": true,
          "internalType": "uint256",
          "name": "amount",
          "type": "uint256"
        }
      ],
      "name": "RoyaltyClubBonusPaid",
      "type": "event"
    },
    {
      "anonymous": false,
      "inputs": [
        {
          "indexed": true,
          "internalType": "address",
          "name": "implementation",
          "type": "address"
        }
      ],
      "name": "Upgraded",
      "type": "event"
    },
    {
      "inputs": [
        {
          "internalType": "uint32",
          "name": "_refererId",
          "type": "uint32"
        }
      ],
      "name": "activateId",
      "outputs": [],
      "stateMutability": "payable",
      "type": "function"
    },
    {
      "inputs": [],
      "name": "companyTurnoverTimeLimit",
      "outputs": [
        {
          "internalType": "uint256",
          "name": "",
          "type": "uint256"
        }
      ],
      "stateMutability": "view",
      "type": "function"
    },
    {
      "inputs": [],
      "name": "companyTurnoverTimeStamp",
      "outputs": [
        {
          "internalType": "uint256",
          "name": "",
          "type": "uint256"
        }
      ],
      "stateMutability": "view",
      "type": "function"
    },
    {
      "inputs": [],
      "name": "companyTurnoverWithTimeLimit",
      "outputs": [
        {
          "internalType": "uint256",
          "name": "",
          "type": "uint256"
        }
      ],
      "stateMutability": "view",
      "type": "function"
    },
    {
      "inputs": [],
      "name": "decimals",
      "outputs": [
        {
          "internalType": "uint16",
          "name": "",
          "type": "uint16"
        }
      ],
      "stateMutability": "view",
      "type": "function"
    },
    {
      "inputs": [
        {
          "internalType": "uint256",
          "name": "",
          "type": "uint256"
        }
      ],
      "name": "disabledUsersList",
      "outputs": [
        {
          "internalType": "address",
          "name": "",
          "type": "address"
        }
      ],
      "stateMutability": "view",
      "type": "function"
    },
    {
      "inputs": [],
      "name": "futureScureWalletContribution",
      "outputs": [
        {
          "internalType": "uint8",
          "name": "",
          "type": "uint8"
        }
      ],
      "stateMutability": "view",
      "type": "function"
    },
    {
      "inputs": [
        {
          "internalType": "uint8",
          "name": "_packageId",
          "type": "uint8"
        }
      ],
      "name": "getAchieversList",
      "outputs": [
        {
          "internalType": "uint32[]",
          "name": "",
          "type": "uint32[]"
        }
      ],
      "stateMutability": "view",
      "type": "function"
    },
    {
      "inputs": [
        {
          "internalType": "uint32",
          "name": "_id",
          "type": "uint32"
        }
      ],
      "name": "getIdAccount",
      "outputs": [
        {
          "components": [
            {
              "internalType": "uint32",
              "name": "id",
              "type": "uint32"
            },
            {
              "internalType": "string",
              "name": "oldId",
              "type": "string"
            },
            {
              "internalType": "uint256",
              "name": "joiningTime",
              "type": "uint256"
            },
            {
              "internalType": "bool",
              "name": "isAddedToUserList",
              "type": "bool"
            },
            {
              "internalType": "address",
              "name": "owner",
              "type": "address"
            },
            {
              "internalType": "uint32",
              "name": "refererId",
              "type": "uint32"
            },
            {
              "internalType": "bool",
              "name": "hasUpline",
              "type": "bool"
            },
            {
              "internalType": "uint32[]",
              "name": "refereeIds",
              "type": "uint32[]"
            },
            {
              "internalType": "uint32[]",
              "name": "teamIds",
              "type": "uint32[]"
            },
            {
              "internalType": "uint32[]",
              "name": "teamLevel",
              "type": "uint32[]"
            },
            {
              "internalType": "uint256[]",
              "name": "selfBusinessArray",
              "type": "uint256[]"
            },
            {
              "internalType": "uint256",
              "name": "selfBusiness",
              "type": "uint256"
            },
            {
              "internalType": "uint256",
              "name": "selfBusinessOld",
              "type": "uint256"
            },
            {
              "internalType": "uint256",
              "name": "directBusiness",
              "type": "uint256"
            },
            {
              "internalType": "uint256",
              "name": "directBusinessOld",
              "type": "uint256"
            },
            {
              "internalType": "uint256",
              "name": "teamBusiness",
              "type": "uint256"
            },
            {
              "internalType": "uint256",
              "name": "teamBusinessOld",
              "type": "uint256"
            },
            {
              "internalType": "uint256",
              "name": "royaltyClubBusiness",
              "type": "uint256"
            },
            {
              "internalType": "uint256",
              "name": "timeStampRoyaltyClub",
              "type": "uint256"
            },
            {
              "internalType": "uint8",
              "name": "royaltyClubPackageId",
              "type": "uint8"
            },
            {
              "internalType": "uint32",
              "name": "royaltyClubListIndex",
              "type": "uint32"
            },
            {
              "internalType": "uint256",
              "name": "royaltyClubRewardPaid",
              "type": "uint256"
            },
            {
              "internalType": "uint256",
              "name": "topUpIncome",
              "type": "uint256"
            },
            {
              "internalType": "uint256",
              "name": "topUp",
              "type": "uint256"
            },
            {
              "internalType": "uint256",
              "name": "maxLimit",
              "type": "uint256"
            },
            {
              "internalType": "uint256",
              "name": "activationTime",
              "type": "uint256"
            },
            {
              "internalType": "uint256",
              "name": "deactivationTime",
              "type": "uint256"
            },
            {
              "internalType": "uint256",
              "name": "referralPaid",
              "type": "uint256"
            },
            {
              "internalType": "uint32[]",
              "name": "roiIds",
              "type": "uint32[]"
            },
            {
              "internalType": "uint256",
              "name": "roiPaid",
              "type": "uint256"
            },
            {
              "internalType": "uint256",
              "name": "roiClaimedTime",
              "type": "uint256"
            },
            {
              "internalType": "uint256",
              "name": "walletBalance",
              "type": "uint256"
            },
            {
              "internalType": "bool",
              "name": "isActive",
              "type": "bool"
            },
            {
              "internalType": "bool",
              "name": "isROIDisabled",
              "type": "bool"
            },
            {
              "internalType": "bool",
              "name": "isIdVisibilityDisabled",
              "type": "bool"
            },
            {
              "internalType": "bool",
              "name": "canWindraw",
              "type": "bool"
            }
          ],
          "internalType": "struct ReferralV4Upgradeable.StructId",
          "name": "",
          "type": "tuple"
        }
      ],
      "stateMutability": "view",
      "type": "function"
    },
    {
      "inputs": [
        {
          "internalType": "uint32",
          "name": "_id",
          "type": "uint32"
        }
      ],
      "name": "getIdLimits",
      "outputs": [
        {
          "internalType": "uint256",
          "name": "topUpIncome",
          "type": "uint256"
        },
        {
          "internalType": "uint256",
          "name": "topUp",
          "type": "uint256"
        },
        {
          "internalType": "uint256",
          "name": "maxLimit",
          "type": "uint256"
        }
      ],
      "stateMutability": "view",
      "type": "function"
    },
    {
      "inputs": [
        {
          "internalType": "uint32",
          "name": "_id",
          "type": "uint32"
        }
      ],
      "name": "getIdRoyaltyClubLevel",
      "outputs": [
        {
          "internalType": "uint256",
          "name": "",
          "type": "uint256"
        }
      ],
      "stateMutability": "view",
      "type": "function"
    },
    {
      "inputs": [],
      "name": "getMinContributionETH",
      "outputs": [
        {
          "internalType": "uint256",
          "name": "",
          "type": "uint256"
        }
      ],
      "stateMutability": "view",
      "type": "function"
    },
    {
      "inputs": [
        {
          "internalType": "uint8",
          "name": "_packageId",
          "type": "uint8"
        }
      ],
      "name": "getRoyaltyClubPackageInfo",
      "outputs": [
        {
          "components": [
            {
              "internalType": "uint8",
              "name": "packageId",
              "type": "uint8"
            },
            {
              "internalType": "uint256",
              "name": "selfBusiness",
              "type": "uint256"
            },
            {
              "internalType": "uint256",
              "name": "directBusiness",
              "type": "uint256"
            },
            {
              "internalType": "uint256",
              "name": "teamBusiness",
              "type": "uint256"
            },
            {
              "internalType": "string",
              "name": "rankName",
              "type": "string"
            },
            {
              "internalType": "uint256",
              "name": "reward",
              "type": "uint256"
            },
            {
              "internalType": "uint256",
              "name": "businessLimit",
              "type": "uint256"
            },
            {
              "internalType": "uint256",
              "name": "timeLimit",
              "type": "uint256"
            },
            {
              "internalType": "bool",
              "name": "isPayReccursive",
              "type": "bool"
            },
            {
              "internalType": "uint32[]",
              "name": "achieversList",
              "type": "uint32[]"
            }
          ],
          "internalType": "struct ReferralV4Upgradeable.StructPackages",
          "name": "",
          "type": "tuple"
        }
      ],
      "stateMutability": "view",
      "type": "function"
    },
    {
      "inputs": [
        {
          "internalType": "address",
          "name": "_address",
          "type": "address"
        }
      ],
      "name": "getUserAccount",
      "outputs": [
        {
          "components": [
            {
              "internalType": "bool",
              "name": "isActive",
              "type": "bool"
            },
            {
              "internalType": "uint32[]",
              "name": "accountIds",
              "type": "uint32[]"
            },
            {
              "internalType": "string",
              "name": "userName",
              "type": "string"
            }
          ],
          "internalType": "struct ReferralV4Upgradeable.StructAccount",
          "name": "",
          "type": "tuple"
        }
      ],
      "stateMutability": "view",
      "type": "function"
    },
    {
      "inputs": [
        {
          "internalType": "uint32",
          "name": "_id",
          "type": "uint32"
        }
      ],
      "name": "getUserUnlockCount",
      "outputs": [
        {
          "internalType": "uint256",
          "name": "",
          "type": "uint256"
        }
      ],
      "stateMutability": "view",
      "type": "function"
    },
    {
      "inputs": [
        {
          "internalType": "uint32",
          "name": "_id",
          "type": "uint32"
        },
        {
          "internalType": "uint256",
          "name": "_value",
          "type": "uint256"
        }
      ],
      "name": "increaseIdTopIncome",
      "outputs": [],
      "stateMutability": "nonpayable",
      "type": "function"
    },
    {
      "inputs": [],
      "name": "initialize",
      "outputs": [],
      "stateMutability": "nonpayable",
      "type": "function"
    },
    {
      "inputs": [],
      "name": "isActivateROI",
      "outputs": [
        {
          "internalType": "bool",
          "name": "",
          "type": "bool"
        }
      ],
      "stateMutability": "view",
      "type": "function"
    },
    {
      "inputs": [],
      "name": "isPayReferral",
      "outputs": [
        {
          "internalType": "bool",
          "name": "",
          "type": "bool"
        }
      ],
      "stateMutability": "view",
      "type": "function"
    },
    {
      "inputs": [],
      "name": "isPayRoyaltyClubBonus",
      "outputs": [
        {
          "internalType": "bool",
          "name": "",
          "type": "bool"
        }
      ],
      "stateMutability": "view",
      "type": "function"
    },
    {
      "inputs": [
        {
          "internalType": "uint256",
          "name": "",
          "type": "uint256"
        }
      ],
      "name": "levelRates",
      "outputs": [
        {
          "internalType": "uint16",
          "name": "",
          "type": "uint16"
        }
      ],
      "stateMutability": "view",
      "type": "function"
    },
    {
      "inputs": [],
      "name": "maxLevels",
      "outputs": [
        {
          "internalType": "uint8",
          "name": "",
          "type": "uint8"
        }
      ],
      "stateMutability": "view",
      "type": "function"
    },
    {
      "inputs": [],
      "name": "minContributionUSD",
      "outputs": [
        {
          "internalType": "uint256",
          "name": "",
          "type": "uint256"
        }
      ],
      "stateMutability": "view",
      "type": "function"
    },
    {
      "inputs": [],
      "name": "owner",
      "outputs": [
        {
          "internalType": "address",
          "name": "",
          "type": "address"
        }
      ],
      "stateMutability": "view",
      "type": "function"
    },
    {
      "inputs": [],
      "name": "packagesCount",
      "outputs": [
        {
          "internalType": "uint8",
          "name": "",
          "type": "uint8"
        }
      ],
      "stateMutability": "view",
      "type": "function"
    },
    {
      "inputs": [
        {
          "internalType": "uint256",
          "name": "_value",
          "type": "uint256"
        },
        {
          "internalType": "uint32",
          "name": "_id",
          "type": "uint32"
        }
      ],
      "name": "payReferralAdmin",
      "outputs": [],
      "stateMutability": "nonpayable",
      "type": "function"
    },
    {
      "inputs": [],
      "name": "proxiableUUID",
      "outputs": [
        {
          "internalType": "bytes32",
          "name": "",
          "type": "bytes32"
        }
      ],
      "stateMutability": "view",
      "type": "function"
    },
    {
      "inputs": [],
      "name": "renounceOwnership",
      "outputs": [],
      "stateMutability": "nonpayable",
      "type": "function"
    },
    {
      "inputs": [],
      "name": "royaltyClubPackageCount",
      "outputs": [
        {
          "internalType": "uint8",
          "name": "",
          "type": "uint8"
        }
      ],
      "stateMutability": "view",
      "type": "function"
    },
    {
      "inputs": [
        {
          "internalType": "address",
          "name": "_address",
          "type": "address"
        },
        {
          "internalType": "uint256",
          "name": "_value",
          "type": "uint256"
        }
      ],
      "name": "sendETHAdmin",
      "outputs": [],
      "stateMutability": "nonpayable",
      "type": "function"
    },
    {
      "inputs": [
        {
          "internalType": "uint16",
          "name": "_value",
          "type": "uint16"
        }
      ],
      "name": "setLevelDecimals",
      "outputs": [],
      "stateMutability": "nonpayable",
      "type": "function"
    },
    {
      "inputs": [
        {
          "internalType": "uint8[]",
          "name": "_value",
          "type": "uint8[]"
        }
      ],
      "name": "setLevelRates",
      "outputs": [],
      "stateMutability": "nonpayable",
      "type": "function"
    },
    {
      "inputs": [
        {
          "internalType": "uint8",
          "name": "_valueDecimals",
          "type": "uint8"
        }
      ],
      "name": "setMaxLevelsAdmin",
      "outputs": [],
      "stateMutability": "nonpayable",
      "type": "function"
    },
    {
      "inputs": [
        {
          "internalType": "uint256",
          "name": "_valueInUSD",
          "type": "uint256"
        }
      ],
      "name": "setMinContribution",
      "outputs": [],
      "stateMutability": "nonpayable",
      "type": "function"
    },
    {
      "inputs": [
        {
          "internalType": "uint8",
          "name": "packageId",
          "type": "uint8"
        },
        {
          "internalType": "uint256",
          "name": "selfBusiness",
          "type": "uint256"
        },
        {
          "internalType": "uint256",
          "name": "directBusiness",
          "type": "uint256"
        },
        {
          "internalType": "uint256",
          "name": "teamBusiness",
          "type": "uint256"
        },
        {
          "internalType": "string",
          "name": "rankName",
          "type": "string"
        },
        {
          "internalType": "uint256",
          "name": "reward",
          "type": "uint256"
        },
        {
          "internalType": "uint256",
          "name": "businessLimit",
          "type": "uint256"
        },
        {
          "internalType": "uint256",
          "name": "timeLimit",
          "type": "uint256"
        },
        {
          "internalType": "bool",
          "name": "isPayReccursive",
          "type": "bool"
        }
      ],
      "name": "setRoyaltyClubPackage",
      "outputs": [],
      "stateMutability": "nonpayable",
      "type": "function"
    },
    {
      "inputs": [
        {
          "internalType": "uint8",
          "name": "_valueDecimals",
          "type": "uint8"
        }
      ],
      "name": "setRoyaltyPackageCount",
      "outputs": [],
      "stateMutability": "nonpayable",
      "type": "function"
    },
    {
      "inputs": [
        {
          "internalType": "uint32",
          "name": "_id",
          "type": "uint32"
        }
      ],
      "name": "topUpId",
      "outputs": [],
      "stateMutability": "payable",
      "type": "function"
    },
    {
      "inputs": [],
      "name": "totalIds",
      "outputs": [
        {
          "internalType": "uint32",
          "name": "",
          "type": "uint32"
        }
      ],
      "stateMutability": "view",
      "type": "function"
    },
    {
      "inputs": [],
      "name": "totalReferralPaid",
      "outputs": [
        {
          "internalType": "uint256",
          "name": "",
          "type": "uint256"
        }
      ],
      "stateMutability": "view",
      "type": "function"
    },
    {
      "inputs": [],
      "name": "totalRoyaltyClubBonusPaid",
      "outputs": [
        {
          "internalType": "uint256",
          "name": "",
          "type": "uint256"
        }
      ],
      "stateMutability": "view",
      "type": "function"
    },
    {
      "inputs": [
        {
          "internalType": "address",
          "name": "newOwner",
          "type": "address"
        }
      ],
      "name": "transferOwnership",
      "outputs": [],
      "stateMutability": "nonpayable",
      "type": "function"
    },
    {
      "inputs": [
        {
          "internalType": "uint16",
          "name": "_from",
          "type": "uint16"
        },
        {
          "internalType": "uint16",
          "name": "_to",
          "type": "uint16"
        }
      ],
      "name": "updateIdDirectTeam",
      "outputs": [],
      "stateMutability": "nonpayable",
      "type": "function"
    },
    {
      "inputs": [
        {
          "internalType": "uint32",
          "name": "_id",
          "type": "uint32"
        },
        {
          "internalType": "uint256",
          "name": "_value",
          "type": "uint256"
        }
      ],
      "name": "updateIdWhenClaimROI",
      "outputs": [],
      "stateMutability": "nonpayable",
      "type": "function"
    },
    {
      "inputs": [
        {
          "internalType": "uint32",
          "name": "_value",
          "type": "uint32"
        }
      ],
      "name": "updateTotalIds",
      "outputs": [],
      "stateMutability": "nonpayable",
      "type": "function"
    },
    {
      "inputs": [
        {
          "internalType": "address",
          "name": "newImplementation",
          "type": "address"
        }
      ],
      "name": "upgradeTo",
      "outputs": [],
      "stateMutability": "nonpayable",
      "type": "function"
    },
    {
      "inputs": [
        {
          "internalType": "address",
          "name": "newImplementation",
          "type": "address"
        },
        {
          "internalType": "bytes",
          "name": "data",
          "type": "bytes"
        }
      ],
      "name": "upgradeToAndCall",
      "outputs": [],
      "stateMutability": "payable",
      "type": "function"
    },
    {
      "inputs": [
        {
          "internalType": "uint256",
          "name": "",
          "type": "uint256"
        }
      ],
      "name": "users",
      "outputs": [
        {
          "internalType": "address",
          "name": "",
          "type": "address"
        }
      ],
      "stateMutability": "view",
      "type": "function"
    },
    {
      "inputs": [],
      "name": "withdrawETHAdmin",
      "outputs": [],
      "stateMutability": "nonpayable",
      "type": "function"
    },
    {
      "inputs": [
        {
          "internalType": "address",
          "name": "_tokenAddress",
          "type": "address"
        },
        {
          "internalType": "uint256",
          "name": "_value",
          "type": "uint256"
        }
      ],
      "name": "withdrawTokensAdmin",
      "outputs": [],
      "stateMutability": "nonpayable",
      "type": "function"
    },
    {
      "stateMutability": "payable",
      "type": "receive"
    }
  ],
  "bytecode": "0x60a06040523060805234801561001457600080fd5b50608051615d306200004d6000396000818161103901528181611082015281816117a9015281816117e901526119700152615d306000f3fe6080604052600436106102b25760003560e01c80636f38e41011610175578063987dd4a7116100dc578063bcb93f9b11610095578063f2fde38b1161006f578063f2fde38b1461087e578063f41bfeef1461089e578063fafc9597146108b4578063fb47e016146108d657600080fd5b8063bcb93f9b1461082b578063cd21364d1461083e578063e1c715ba1461085e57600080fd5b8063987dd4a714610775578063a0b6105f14610795578063a152b0f0146107b5578063a28a3686146107c8578063a43ae408146107eb578063b47181d31461080b57600080fd5b80637c5994861161012e5780637c599486146106e65780638129fc1c146106fc578063852ff2fd146107115780638af925dc146107275780638da5cb5b146107415780638f84de851461075f57600080fd5b80636f38e410146106155780637084431f1461063557806370c3ae0f14610664578063715018a6146106845780637879b5ef146106995780637bdbf996146106b957600080fd5b8063390a5ba5116102195780634e6e93a3116101d25780634e6e93a3146105525780634f1ef2861461058d578063509d6c52146105a057806352d1902d146105c05780635979369a146105d55780636ccc10ae146105f557600080fd5b8063390a5ba5146104805780633eff2def146104b2578063473b0d46146104d2578063498b3e55146104f25780634a750822146105125780634b5102b81461053257600080fd5b806322f88b521161026b57806322f88b52146103d15780632ed421d2146103e7578063313ce567146103fd578063357597881461042b5780633659cfe614610440578063365b98b21461046057600080fd5b8063012da720146102be5780630b243dad146102f45780631319cff91461031657806318e10bff1461034e5780631f9e65e41461038157806321009789146103a457600080fd5b366102b957005b600080fd5b3480156102ca57600080fd5b506102de6102d936600461506c565b610903565b6040516102eb9190615087565b60405180910390f35b34801561030057600080fd5b5061031461030f3660046150e6565b610998565b005b34801561032257600080fd5b50610336610331366004615112565b6109db565b6040516001600160a01b0390911681526020016102eb565b34801561035a57600080fd5b5060d55461036f906301000000900460ff1681565b60405160ff90911681526020016102eb565b34801561038d57600080fd5b50610396610a05565b6040519081526020016102eb565b3480156103b057600080fd5b506103c46103bf36600461513d565b610a17565b6040516102eb919061521b565b3480156103dd57600080fd5b5061039660d05481565b3480156103f357600080fd5b5061039660d15481565b34801561040957600080fd5b5060cb546104189061ffff1681565b60405161ffff90911681526020016102eb565b34801561043757600080fd5b50610314610ff8565b34801561044c57600080fd5b5061031461045b3660046154b3565b61102f565b34801561046c57600080fd5b5061033661047b366004615112565b611114565b34801561048c57600080fd5b5060cf5461049d9063ffffffff1681565b60405163ffffffff90911681526020016102eb565b3480156104be57600080fd5b506103146104cd36600461506c565b611124565b3480156104de57600080fd5b506103146104ed366004615112565b61114a565b3480156104fe57600080fd5b5061031461050d3660046154d0565b611157565b34801561051e57600080fd5b5061031461052d3660046155a5565b6111fd565b34801561053e57600080fd5b5061031461054d36600461506c565b6112ad565b34801561055e57600080fd5b5061057261056d36600461513d565b6112d5565b604080519384526020840192909252908201526060016102eb565b61031461059b366004615652565b61179f565b3480156105ac57600080fd5b506103146105bb3660046156b6565b61186b565b3480156105cc57600080fd5b50610396611963565b3480156105e157600080fd5b506103146105f036600461513d565b611a16565b34801561060157600080fd5b506103146106103660046156b6565b611aba565b34801561062157600080fd5b5060cb5461036f9062010000900460ff1681565b34801561064157600080fd5b5060d55461065490610100900460ff1681565b60405190151581526020016102eb565b34801561067057600080fd5b5061031461067f3660046156e6565b611b61565b34801561069057600080fd5b50610314611c75565b3480156106a557600080fd5b506104186106b4366004615112565b611c89565b3480156106c557600080fd5b506106d96106d436600461506c565b611cc1565b6040516102eb9190615719565b3480156106f257600080fd5b5061039660ce5481565b34801561070857600080fd5b50610314611ec0565b34801561071d57600080fd5b5061039660cd5481565b34801561073357600080fd5b5060d5546106549060ff1681565b34801561074d57600080fd5b506033546001600160a01b0316610336565b34801561076b57600080fd5b5061039660cc5481565b34801561078157600080fd5b5061039661079036600461513d565b612158565b3480156107a157600080fd5b506103146107b03660046150e6565b612617565b6103146107c336600461513d565b612690565b3480156107d457600080fd5b5060cf5461036f9065010000000000900460ff1681565b3480156107f757600080fd5b506103146108063660046157c7565b6128ad565b34801561081757600080fd5b5061039661082636600461513d565b6128cd565b61031461083936600461513d565b612d89565b34801561084a57600080fd5b5060d55461036f9062010000900460ff1681565b34801561086a57600080fd5b506103146108793660046157e2565b613047565b34801561088a57600080fd5b506103146108993660046154b3565b61305b565b3480156108aa57600080fd5b5061039660d25481565b3480156108c057600080fd5b5060cf5461065490640100000000900460ff1681565b3480156108e257600080fd5b506108f66108f13660046154b3565b6130d1565b6040516102eb9190615857565b60ff8116600090815260d8602090815260409182902060090180548351818402810184019094528084526060939283018282801561098c57602002820191906000526020600020906000905b82829054906101000a900463ffffffff1663ffffffff168152602001906004019060208260030104928301926001038202915080841161094f5790505b50505050509050919050565b6109a0613237565b6040516001600160a01b0383169082156108fc029083906000818181858888f193505050501580156109d6573d6000803e3d6000fd5b505050565b60d381815481106109eb57600080fd5b6000918252602090912001546001600160a01b0316905081565b6000610a1260cc54613291565b905090565b610b4d604051806104800160405280600063ffffffff168152602001606081526020016000815260200160001515815260200160006001600160a01b03168152602001600063ffffffff168152602001600015158152602001606081526020016060815260200160608152602001606081526020016000815260200160008152602001600081526020016000815260200160008152602001600081526020016000815260200160008152602001600060ff168152602001600063ffffffff16815260200160008152602001600081526020016000815260200160008152602001600081526020016000815260200160008152602001606081526020016000815260200160008152602001600081526020016000151581526020016000151581526020016000151581526020016000151581525090565b63ffffffff808316600090815260d76020908152604091829020825161048081019093528054909316825260018301805492939291840191610b8e9061589c565b80601f0160208091040260200160405190810160405280929190818152602001828054610bba9061589c565b8015610c075780601f10610bdc57610100808354040283529160200191610c07565b820191906000526020600020905b815481529060010190602001808311610bea57829003601f168201915b50505091835250506002820154602080830191909152600383015460ff80821615156040808601919091526001600160a01b03610100840416606086015263ffffffff600160a81b8404166080860152600160c81b90920416151560a084015260048401805482518185028101850190935280835260c0909401939192909190830182828015610ce257602002820191906000526020600020906000905b82829054906101000a900463ffffffff1663ffffffff1681526020019060040190602082600301049283019260010382029150808411610ca55790505b5050505050815260200160058201805480602002602001604051908101604052809291908181526020018280548015610d6657602002820191906000526020600020906000905b82829054906101000a900463ffffffff1663ffffffff1681526020019060040190602082600301049283019260010382029150808411610d295790505b5050505050815260200160068201805480602002602001604051908101604052809291908181526020018280548015610dea57602002820191906000526020600020906000905b82829054906101000a900463ffffffff1663ffffffff1681526020019060040190602082600301049283019260010382029150808411610dad5790505b5050505050815260200160078201805480602002602001604051908101604052809291908181526020018280548015610e4257602002820191906000526020600020905b815481526020019060010190808311610e2e575b505050918352505060088201546020808301919091526009830154604080840191909152600a8401546060840152600b8401546080840152600c84015460a0840152600d84015460c0840152600e84015460e0840152600f84015461010080850191909152601085015460ff81166101208601520463ffffffff166101408401526011840154610160840152601284015461018084015260138401546101a084015260148401546101c084015260158401546101e084015260168401546102008401526017840154610220840152601884018054825181850281018501909352808352610240909401939192909190830182828015610f8c57602002820191906000526020600020906000905b82829054906101000a900463ffffffff1663ffffffff1681526020019060040190602082600301049283019260010382029150808411610f4f5790505b505050918352505060198201546020820152601a8201546040820152601b8201546060820152601c9091015460ff8082161515608084015261010082048116151560a08401526201000082048116151560c0840152630100000090910416151560e09091015292915050565b611000613237565b60405133904780156108fc02916000818181858888f1935050505015801561102c573d6000803e3d6000fd5b50565b6001600160a01b037f00000000000000000000000000000000000000000000000000000000000000001630036110805760405162461bcd60e51b8152600401611077906158d6565b60405180910390fd5b7f00000000000000000000000000000000000000000000000000000000000000006001600160a01b03166110c9600080516020615cb4833981519152546001600160a01b031690565b6001600160a01b0316146110ef5760405162461bcd60e51b815260040161107790615922565b6110f881613388565b6040805160008082526020820190925261102c91839190613390565b60d481815481106109eb57600080fd5b61112c613237565b60cb805460ff909216620100000262ff000019909216919091179055565b611152613237565b60cc55565b60c954604051630935e01b60e21b81523360048201526001600160a01b03909116906324d7806c90602401602060405180830381865afa15801561119f573d6000803e3d6000fd5b505050506040513d601f19601f820116820180604052508101906111c3919061596e565b6111df5760405162461bcd60e51b81526004016110779061598b565b60d554610100900460ff16156111f9576111f982826134fb565b5050565b611205613237565b60ff8916600081815260d860205260409020805460ff19169091178155600181018990556002810188905560038101879055600481016112458782615a05565b5060058101859055600681018490556007810183905560088101805460ff191683151517905560405160ff8b1681527f9a2f17868083013e19d4c26d2af13543606bc680c21c994d7648d3a0510164c99060200160405180910390a150505050505050505050565b6112b5613237565b60d5805460ff90921663010000000263ff00000019909216919091179055565b63ffffffff808216600090815260d76020908152604080832081516104808101909252805490941681526001840180549394859485948594939084019161131b9061589c565b80601f01602080910402602001604051908101604052809291908181526020018280546113479061589c565b80156113945780601f1061136957610100808354040283529160200191611394565b820191906000526020600020905b81548152906001019060200180831161137757829003601f168201915b50505091835250506002820154602080830191909152600383015460ff80821615156040808601919091526001600160a01b03610100840416606086015263ffffffff600160a81b8404166080860152600160c81b90920416151560a084015260048401805482518185028101850190935280835260c090940193919290919083018282801561146f57602002820191906000526020600020906000905b82829054906101000a900463ffffffff1663ffffffff16815260200190600401906020826003010492830192600103820291508084116114325790505b50505050508152602001600582018054806020026020016040519081016040528092919081815260200182805480156114f357602002820191906000526020600020906000905b82829054906101000a900463ffffffff1663ffffffff16815260200190600401906020826003010492830192600103820291508084116114b65790505b505050505081526020016006820180548060200260200160405190810160405280929190818152602001828054801561157757602002820191906000526020600020906000905b82829054906101000a900463ffffffff1663ffffffff168152602001906004019060208260030104928301926001038202915080841161153a5790505b50505050508152602001600782018054806020026020016040519081016040528092919081815260200182805480156115cf57602002820191906000526020600020905b8154815260200190600101908083116115bb575b505050918352505060088201546020808301919091526009830154604080840191909152600a8401546060840152600b8401546080840152600c84015460a0840152600d84015460c0840152600e84015460e0840152600f84015461010080850191909152601085015460ff81166101208601520463ffffffff166101408401526011840154610160840152601284015461018084015260138401546101a084015260148401546101c084015260158401546101e08401526016840154610200840152601784015461022084015260188401805482518185028101850190935280835261024090940193919290919083018282801561171957602002820191906000526020600020906000905b82829054906101000a900463ffffffff1663ffffffff16815260200190600401906020826003010492830192600103820291508084116116dc5790505b505050918352505060198201546020820152601a8201546040820152601b8201546060820152601c9091015460ff8082161515608084015261010082048116151560a08401526201000082048116151560c0840152630100000090910416151560e0909101526102c08101516102e0820151610300909201519097919650945092505050565b6001600160a01b037f00000000000000000000000000000000000000000000000000000000000000001630036117e75760405162461bcd60e51b8152600401611077906158d6565b7f00000000000000000000000000000000000000000000000000000000000000006001600160a01b0316611830600080516020615cb4833981519152546001600160a01b031690565b6001600160a01b0316146118565760405162461bcd60e51b815260040161107790615922565b61185f82613388565b6111f982826001613390565b60c954604051630935e01b60e21b81523360048201526001600160a01b03909116906324d7806c90602401602060405180830381865afa1580156118b3573d6000803e3d6000fd5b505050506040513d601f19601f820116820180604052508101906118d7919061596e565b6118f35760405162461bcd60e51b81526004016110779061598b565b63ffffffff8216600090815260d76020526040812042601a82015560198101805491928492611923908490615adb565b925050819055508181601201600082825461193e9190615adb565b925050819055508181601b0160008282546119599190615adb565b9091555050505050565b6000306001600160a01b037f00000000000000000000000000000000000000000000000000000000000000001614611a035760405162461bcd60e51b815260206004820152603860248201527f555550535570677261646561626c653a206d757374206e6f742062652063616c60448201527f6c6564207468726f7567682064656c656761746563616c6c00000000000000006064820152608401611077565b50600080516020615cb483398151915290565b60c954604051630935e01b60e21b81523360048201526001600160a01b03909116906324d7806c90602401602060405180830381865afa158015611a5e573d6000803e3d6000fd5b505050506040513d601f19601f82011682018060405250810190611a82919061596e565b611a9e5760405162461bcd60e51b81526004016110779061598b565b60cf805463ffffffff191663ffffffff92909216919091179055565b60c954604051630935e01b60e21b81523360048201526001600160a01b03909116906324d7806c90602401602060405180830381865afa158015611b02573d6000803e3d6000fd5b505050506040513d601f19601f82011682018060405250810190611b26919061596e565b611b425760405162461bcd60e51b81526004016110779061598b565b63ffffffff8216600090815260d7602052604090206109d68183613c32565b60c954604051630935e01b60e21b81523360048201526001600160a01b03909116906324d7806c90602401602060405180830381865afa158015611ba9573d6000803e3d6000fd5b505050506040513d601f19601f82011682018060405250810190611bcd919061596e565b611be95760405162461bcd60e51b81526004016110779061598b565b8061ffff168261ffff16116111f95761ffff8216600090815260d7602090815260408083206003810154600160a81b900463ffffffff9081168552918420905460049182018054600181018255908652939094206008840401805460079094169091026101000a9382168402939091021990911691909117905581611c6d81615aee565b925050611be9565b611c7d613237565b611c876000613cbc565b565b60ca8181548110611c9957600080fd5b9060005260206000209060109182820401919006600202915054906101000a900461ffff1681565b611d1c604051806101400160405280600060ff16815260200160008152602001600081526020016000815260200160608152602001600081526020016000815260200160008152602001600015158152602001606081525090565b60ff808316600090815260d860209081526040918290208251610140810184528154909416845260018101549184019190915260028101549183019190915260038101546060830152600481018054608084019190611d7a9061589c565b80601f0160208091040260200160405190810160405280929190818152602001828054611da69061589c565b8015611df35780601f10611dc857610100808354040283529160200191611df3565b820191906000526020600020905b815481529060010190602001808311611dd657829003601f168201915b505050505081526020016005820154815260200160068201548152602001600782015481526020016008820160009054906101000a900460ff1615151515815260200160098201805480602002602001604051908101604052809291908181526020018280548015611eb057602002820191906000526020600020906000905b82829054906101000a900463ffffffff1663ffffffff1681526020019060040190602082600301049283019260010382029150808411611e735790505b5050505050815250509050919050565b600054610100900460ff1615808015611ee05750600054600160ff909116105b80611efa5750303b158015611efa575060005460ff166001145b611f5d5760405162461bcd60e51b815260206004820152602e60248201527f496e697469616c697a61626c653a20636f6e747261637420697320616c72656160448201526d191e481a5b9a5d1a585b1a5e995960921b6064820152608401611077565b6000805460ff191660011790558015611f80576000805461ff0019166101001790555b60c980546001600160a01b031916730b8bf5feb9fca57d9c5d27185ddf3017e99a2d3617905560cb805461ffff19166103e8179055604080516103a08101825260648152604660208201526032918101829052606081018290526080810182905260a0810182905260c0810182905260e08101829052610100810182905261012081018290526101408101829052610160810182905261018081018290526101a081018290526101c081018290526101e08101829052610200810182905261022081018290526102408101919091526014610260820181905261028082018190526102a082018190526102c082018190526102e0820181905261030082018190526103208201819052610340820181905261036082018190526103808201526120ad9060ca90601d614e91565b5060cb805462ff000019166232000017905568056bc75e2d6310000060cc5560cf8054660200000000000066ff00ff000000001990911617905560d5805462278d0060d25562ffffff191662140101179055612107613d0e565b61210f613d3d565b801561102c576000805461ff0019169055604051600181527f7f26b83ff96e1f2b6a682f133852f6798a09c465da95921460cefb3847402498906020015b60405180910390a150565b63ffffffff808216600090815260d76020908152604080832081516104808101909252805490941681526001840180549394859492939092908401919061219e9061589c565b80601f01602080910402602001604051908101604052809291908181526020018280546121ca9061589c565b80156122175780601f106121ec57610100808354040283529160200191612217565b820191906000526020600020905b8154815290600101906020018083116121fa57829003601f168201915b50505091835250506002820154602080830191909152600383015460ff80821615156040808601919091526001600160a01b03610100840416606086015263ffffffff600160a81b8404166080860152600160c81b90920416151560a084015260048401805482518185028101850190935280835260c09094019391929091908301828280156122f257602002820191906000526020600020906000905b82829054906101000a900463ffffffff1663ffffffff16815260200190600401906020826003010492830192600103820291508084116122b55790505b505050505081526020016005820180548060200260200160405190810160405280929190818152602001828054801561237657602002820191906000526020600020906000905b82829054906101000a900463ffffffff1663ffffffff16815260200190600401906020826003010492830192600103820291508084116123395790505b50505050508152602001600682018054806020026020016040519081016040528092919081815260200182805480156123fa57602002820191906000526020600020906000905b82829054906101000a900463ffffffff1663ffffffff16815260200190600401906020826003010492830192600103820291508084116123bd5790505b505050505081526020016007820180548060200260200160405190810160405280929190818152602001828054801561245257602002820191906000526020600020905b81548152602001906001019080831161243e575b505050918352505060088201546020808301919091526009830154604080840191909152600a8401546060840152600b8401546080840152600c84015460a0840152600d84015460c0840152600e84015460e0840152600f84015461010080850191909152601085015460ff81166101208601520463ffffffff166101408401526011840154610160840152601284015461018084015260138401546101a084015260148401546101c084015260158401546101e08401526016840154610200840152601784015461022084015260188401805482518185028101850190935280835261024090940193919290919083018282801561259c57602002820191906000526020600020906000905b82829054906101000a900463ffffffff1663ffffffff168152602001906004019060208260030104928301926001038202915080841161255f5790505b505050918352505060198201546020820152601a8201546040820152601b8201546060820152601c9091015460ff8082161515608084015261010082048116151560a08401526201000082048116151560c0840152630100000090910416151560e090910152905061260d81613d64565b60ff169392505050565b61261f613237565b60405163a9059cbb60e01b8152336004820152602481018290526001600160a01b0383169063a9059cbb906044016020604051808303816000875af115801561266c573d6000803e3d6000fd5b505050506040513d601f19601f820116820180604052508101906109d6919061596e565b34600061269c82613e19565b905060cc548110156126f05760405162461bcd60e51b815260206004820152601f60248201527f56616c7565206c657373207468656e206d696e436f6e747269627574696f6e006044820152606401611077565b63ffffffff8316600090815260d7602052604081203391429190612715856003615b0f565b826012015483601401546127299190615b26565b6127339190615adb565b9050612758828589600089868960cb60029054906101000a900460ff1660ff16613f07565b60d55460ff16156128a45760c954604080516344846f9d60e11b815290516000926001600160a01b031691638908df3a9160048083019260209291908290030181865afa1580156127ad573d6000803e3d6000fd5b505050506040513d601f19601f820116820180604052508101906127d19190615b39565b6001600160a01b03166398c7438e896127eb600386615b56565b6040516001600160e01b031960e085901b16815263ffffffff9290921660048301526024820152604481018790526064016020604051808303816000875af115801561283b573d6000803e3d6000fd5b505050506040513d601f19601f8201168201806040525081019061285f9190615b78565b601884018054600181018255600091825260209091206008820401805460079092166004026101000a63ffffffff818102199093169390921691909102919091179055505b50505050505050565b6128b5613237565b60cb805461ffff191661ffff92909216919091179055565b63ffffffff808216600090815260d7602090815260408083208151610480810190925280549094168152600184018054939485949293909290840191906129139061589c565b80601f016020809104026020016040519081016040528092919081815260200182805461293f9061589c565b801561298c5780601f106129615761010080835404028352916020019161298c565b820191906000526020600020905b81548152906001019060200180831161296f57829003601f168201915b50505091835250506002820154602080830191909152600383015460ff80821615156040808601919091526001600160a01b03610100840416606086015263ffffffff600160a81b8404166080860152600160c81b90920416151560a084015260048401805482518185028101850190935280835260c0909401939192909190830182828015612a6757602002820191906000526020600020906000905b82829054906101000a900463ffffffff1663ffffffff1681526020019060040190602082600301049283019260010382029150808411612a2a5790505b5050505050815260200160058201805480602002602001604051908101604052809291908181526020018280548015612aeb57602002820191906000526020600020906000905b82829054906101000a900463ffffffff1663ffffffff1681526020019060040190602082600301049283019260010382029150808411612aae5790505b5050505050815260200160068201805480602002602001604051908101604052809291908181526020018280548015612b6f57602002820191906000526020600020906000905b82829054906101000a900463ffffffff1663ffffffff1681526020019060040190602082600301049283019260010382029150808411612b325790505b5050505050815260200160078201805480602002602001604051908101604052809291908181526020018280548015612bc757602002820191906000526020600020905b815481526020019060010190808311612bb3575b505050918352505060088201546020808301919091526009830154604080840191909152600a8401546060840152600b8401546080840152600c84015460a0840152600d84015460c0840152600e84015460e0840152600f84015461010080850191909152601085015460ff81166101208601520463ffffffff166101408401526011840154610160840152601284015461018084015260138401546101a084015260148401546101c084015260158401546101e084015260168401546102008401526017840154610220840152601884018054825181850281018501909352808352610240909401939192909190830182828015612d1157602002820191906000526020600020906000905b82829054906101000a900463ffffffff1663ffffffff1681526020019060040190602082600301049283019260010382029150808411612cd45790505b505050918352505060198201546020820152601a8201546040820152601b8201546060820152601c9091015460ff8082161515608084015261010082048116151560a08401526201000082048116151560c0840152630100000090910416151560e0909101529050612d828161422a565b9392505050565b346000612d9582613e19565b905060cc54811015612de95760405162461bcd60e51b815260206004820152601f60248201527f56616c7565206c657373207468656e206d696e436f6e747269627574696f6e006044820152606401611077565b60cf5433904290600090612e049063ffffffff166001615b95565b6001600160a01b038416600090815260d66020908152604080832063ffffffff8516845260d790925282209293509190612e3f876003615b0f565b82601201548360140154612e539190615b26565b612e5d9190615adb565b9050612e818287868c8b868b60cb60029054906101000a900460ff1660ff16613f07565b60d55460ff1615612fcd5760c954604080516344846f9d60e11b815290516000926001600160a01b031691638908df3a9160048083019260209291908290030181865afa158015612ed6573d6000803e3d6000fd5b505050506040513d601f19601f82011682018060405250810190612efa9190615b39565b6001600160a01b03166398c7438e86612f14600386615b56565b6040516001600160e01b031960e085901b16815263ffffffff9290921660048301526024820152604481018990526064016020604051808303816000875af1158015612f64573d6000803e3d6000fd5b505050506040513d601f19601f82011682018060405250810190612f889190615b78565b601884018054600181018255600091825260209091206008820401805460079092166004026101000a63ffffffff818102199093169390921691909102919091179055505b6001838101805491820181556000908152602081206008830401805460079093166004026101000a63ffffffff818102199094168885169190910217905560cf8054909216919061301d83615bb9565b91906101000a81548163ffffffff021916908363ffffffff16021790555050505050505050505050565b61304f613237565b6109d660ca8383614f39565b613063613237565b6001600160a01b0381166130c85760405162461bcd60e51b815260206004820152602660248201527f4f776e61626c653a206e6577206f776e657220697320746865207a65726f206160448201526564647265737360d01b6064820152608401611077565b61102c81613cbc565b6130f7604051806060016040528060001515815260200160608152602001606081525090565b6001600160a01b038216600090815260d660209081526040918290208251606081018452815460ff16151581526001820180548551818602810186019096528086529194929385810193929083018282801561319e57602002820191906000526020600020906000905b82829054906101000a900463ffffffff1663ffffffff16815260200190600401906020826003010492830192600103820291508084116131615790505b505050505081526020016002820180546131b79061589c565b80601f01602080910402602001604051908101604052809291908181526020018280546131e39061589c565b8015611eb05780601f1061320557610100808354040283529160200191611eb0565b820191906000526020600020905b81548152906001019060200180831161321357505050919092525091949350505050565b6033546001600160a01b03163314611c875760405162461bcd60e51b815260206004820181905260248201527f4f776e61626c653a2063616c6c6572206973206e6f7420746865206f776e65726044820152606401611077565b60008060c960009054906101000a90046001600160a01b03166001600160a01b0316632913497b6040518163ffffffff1660e01b8152600401602060405180830381865afa1580156132e7573d6000803e3d6000fd5b505050506040513d601f19601f8201168201806040525081019061330b9190615b39565b6001600160a01b031663e1aa60366040518163ffffffff1660e01b8152600401602060405180830381865afa158015613348573d6000803e3d6000fd5b505050506040513d601f19601f8201168201806040525081019061336c9190615bd2565b61337e84670de0b6b3a7640000615b0f565b612d829190615b56565b61102c613237565b7f4910fdfa16fed3260ed0e7147f7cc6da11a60208b5b9406d12a635614ffd91435460ff16156133c3576109d683614269565b826001600160a01b03166352d1902d6040518163ffffffff1660e01b8152600401602060405180830381865afa92505050801561341d575060408051601f3d908101601f1916820190925261341a91810190615bd2565b60015b6134805760405162461bcd60e51b815260206004820152602e60248201527f45524331393637557067726164653a206e657720696d706c656d656e7461746960448201526d6f6e206973206e6f74205555505360901b6064820152608401611077565b600080516020615cb483398151915281146134ef5760405162461bcd60e51b815260206004820152602960248201527f45524331393637557067726164653a20756e737570706f727465642070726f786044820152681a58589b195555525160ba1b6064820152608401611077565b506109d6838383614305565b600060ca80548060200260200160405190810160405280929190818152602001828054801561357157602002820191906000526020600020906000905b82829054906101000a900461ffff1661ffff16815260200190600201906020826001010492830192600103820291508084116135385790505b5050835163ffffffff8716600090815260d7602052604081209596509094935091508190505b8360ff168160ff161015613c1257600383015463ffffffff600160a81b9091048116600081815260d7602052604081208054929390921690036135db575050613c12565b6135e481614330565b1561365c5760405172149959995c995c881a5cc8111a5cd8589b1959606a1b81526013015b60405190819003902061361d846001615beb565b60ff168363ffffffff167f915ed47901013ad29e90ede828f72888f54bd58cea141b0c6967498165382eb560405160405180910390a49350613c009050565b604080516104808101909152815463ffffffff168152600182018054613af79291849160208401919061368e9061589c565b80601f01602080910402602001604051908101604052809291908181526020018280546136ba9061589c565b80156137075780601f106136dc57610100808354040283529160200191613707565b820191906000526020600020905b8154815290600101906020018083116136ea57829003601f168201915b50505091835250506002820154602080830191909152600383015460ff80821615156040808601919091526001600160a01b03610100840416606086015263ffffffff600160a81b8404166080860152600160c81b90920416151560a084015260048401805482518185028101850190935280835260c09094019391929091908301828280156137e257602002820191906000526020600020906000905b82829054906101000a900463ffffffff1663ffffffff16815260200190600401906020826003010492830192600103820291508084116137a55790505b505050505081526020016005820180548060200260200160405190810160405280929190818152602001828054801561386657602002820191906000526020600020906000905b82829054906101000a900463ffffffff1663ffffffff16815260200190600401906020826003010492830192600103820291508084116138295790505b50505050508152602001600682018054806020026020016040519081016040528092919081815260200182805480156138ea57602002820191906000526020600020906000905b82829054906101000a900463ffffffff1663ffffffff16815260200190600401906020826003010492830192600103820291508084116138ad5790505b505050505081526020016007820180548060200260200160405190810160405280929190818152602001828054801561394257602002820191906000526020600020905b81548152602001906001019080831161392e575b505050918352505060088201546020808301919091526009830154604080840191909152600a8401546060840152600b8401546080840152600c84015460a0840152600d84015460c0840152600e84015460e0840152600f84015461010080850191909152601085015460ff81166101208601520463ffffffff166101408401526011840154610160840152601284015461018084015260138401546101a084015260148401546101c084015260158401546101e084015260168401546102008401526017840154610220840152601884018054825181850281018501909352808352610240909401939192909190830182828015613a8c57602002820191906000526020600020906000905b82829054906101000a900463ffffffff1663ffffffff1681526020019060040190602082600301049283019260010382029150808411613a4f5790505b505050918352505060198201546020820152601a8201546040820152601b8201546060820152601c9091015460ff8082161515608084015261010082048116151560a08401526201000082048116151560c0840152630100000090910416151560e09091015261422a565b613b02846001615beb565b60ff161115613b39576040517f446f776e6c696e65206c6576656c73206c696d697420726561636865640000008152601d01613609565b60cb54875160009161ffff1690899060ff8716908110613b5b57613b5b615c04565b602002602001015161ffff168b613b729190615b0f565b613b7c9190615b56565b905080826017016000828254613b929190615adb565b90915550613ba290508282613c32565b613bac8186615adb565b94508063ffffffff808516908b167ff8fb9b5ab69a0208214661678427c6b48abf457f53605d1f559d17452f1eea11613be6886001615beb565b60405160ff909116815260200160405180910390a4509350505b80613c0a81615c1a565b915050613597565b508060ce6000828254613c259190615adb565b9091555050505050505050565b8160140154818360120154613c479190615adb565b11613c865780826012016000828254613c609190615adb565b925050819055508082601b016000828254613c7b9190615adb565b909155506111f99050565b81601201548260140154613c9a9190615b26565b82601b016000828254613cad9190615adb565b909155506111f99050826144b1565b603380546001600160a01b038381166001600160a01b0319831681179093556040519116919082907f8be0079c531659141344cd1fd0a4f28419497f9722a3daafe3b4186f6b6457e090600090a35050565b600054610100900460ff16613d355760405162461bcd60e51b815260040161107790615c39565b611c87614559565b600054610100900460ff16611c875760405162461bcd60e51b815260040161107790615c39565b60d5546000906301000000900460ff16815b8160ff168160ff161015613e125760ff8116600090815260d8602052604090206001015461016085015110801590613dc8575060ff8116600090815260d860205260409020600201546101a085015110155b8015613dee575060ff8116600090815260d860205260409020600301546101e085015110155b15613dfb57809250613e00565b613e12565b80613e0a81615c1a565b915050613d76565b5050919050565b600080670de0b6b3a764000060c960009054906101000a90046001600160a01b03166001600160a01b0316632913497b6040518163ffffffff1660e01b8152600401602060405180830381865afa158015613e78573d6000803e3d6000fd5b505050506040513d601f19601f82011682018060405250810190613e9c9190615b39565b6001600160a01b031663e1aa60366040518163ffffffff1660e01b8152600401602060405180830381865afa158015613ed9573d6000803e3d6000fd5b505050506040513d601f19601f82011682018060405250810190613efd9190615bd2565b61337e9085615b0f565b875463ffffffff16600003613f2a57875463ffffffff191663ffffffff87161788555b601c88015460ff16613f4657601c8801805460ff191660011790555b600388015460ff16613f9e5760d480546001810182556000919091527f9780e26d96b1f2a9a18ef8fc72d589dbf03ef788137b64f43897e83a91e7feec0180546001600160a01b0319166001600160a01b0389161790555b600388015461010090046001600160a01b0316613fd857600388018054610100600160a81b0319166101006001600160a01b038a16021790555b8760020154600003613fec57600288018290555b6003880154600160c81b900460ff166140305760038801805460ff60c81b1963ffffffff8816600160a81b021664ffffffffff60a81b1990911617600160c81b1790555b60006012890155614042600384615b56565b6013890155601488018390556007880180546001810182556000918252602082200185905560088901805486929061407b908490615adb565b90915550506015880182905560408051600081526020810191829052516140a69160188b0191614fa4565b5060005b818160ff16101561421f57600389015463ffffffff600160a81b9091048116600081815260d7602052604081208054929390921690036140eb57505061421f565b8260ff1660000361414d578681600a01600082825461410a9190615adb565b909155505060048181018054600181018255600091825260209091206008820401805460079092169092026101000a63ffffffff81810219909216918c16021790555b8681600c0160008282546141619190615adb565b909155505063ffffffff8816156141e1576005810180546001810182556000918252602082206008820401805460079092166004026101000a63ffffffff818102199093168d841691820217909155835460405190831693928c16927f3ec54e926fe5dd86406fe57832ff318517aed2a5cfbeacfb90a5e9489483ae4b91a45b60cf54640100000000900460ff16156141ff576141ff818887614589565b6142098786614ce3565b995081905061421781615c1a565b9150506140aa565b505050505050505050565b60e081015151600090818115612d825760cf54600190614257906601000000000000900460ff1684615b0f565b6142619190615b26565b949350505050565b6001600160a01b0381163b6142d65760405162461bcd60e51b815260206004820152602d60248201527f455243313936373a206e657720696d706c656d656e746174696f6e206973206e60448201526c1bdd08184818dbdb9d1c9858dd609a1b6064820152608401611077565b600080516020615cb483398151915280546001600160a01b0319166001600160a01b0392909216919091179055565b61430e83614d1d565b60008251118061431b5750805b156109d65761432a8383614d5d565b50505050565b601c81015460009060ff16158061434f57508160140154826012015410155b1561435c57506001919050565b60188201541580159061449c575060c960009054906101000a90046001600160a01b03166001600160a01b0316638908df3a6040518163ffffffff1660e01b8152600401602060405180830381865afa1580156143bd573d6000803e3d6000fd5b505050506040513d601f19601f820116820180604052508101906143e19190615b39565b6001600160a01b03166355332a8583601801600185601801805490506144079190615b26565b8154811061441757614417615c04565b6000918252602090912060088204015460405160e084901b6001600160e01b0319168152600790921660049081026101000a90910463ffffffff1690820152602401602060405180830381865afa158015614476573d6000803e3d6000fd5b505050506040513d601f19601f8201168201806040525081019061449a919061596e565b155b156144a957506001919050565b506000919050565b601c8101805460ff1916905560408051600081526020810191829052516144dc916018840191614fa4565b5060006012820181905560138201819055601482015542601682015580546040805163ffffffff9092168252602082018190526011908201527013585e08131a5b5a5d0814995858da1959607a1b60608201527fce8ab8f2ac6a94861f9740fa1fed3e6d13a85dfd8a4833bf96f3a0055ba7fb6f9060800161214d565b600054610100900460ff166145805760405162461bcd60e51b815260040161107790615c39565b611c8733613cbc565b6010830154604080516104808101909152845463ffffffff16815260018501805460ff90931692614a2f929187916020840191906145c69061589c565b80601f01602080910402602001604051908101604052809291908181526020018280546145f29061589c565b801561463f5780601f106146145761010080835404028352916020019161463f565b820191906000526020600020905b81548152906001019060200180831161462257829003601f168201915b50505091835250506002820154602080830191909152600383015460ff80821615156040808601919091526001600160a01b03610100840416606086015263ffffffff600160a81b8404166080860152600160c81b90920416151560a084015260048401805482518185028101850190935280835260c090940193919290919083018282801561471a57602002820191906000526020600020906000905b82829054906101000a900463ffffffff1663ffffffff16815260200190600401906020826003010492830192600103820291508084116146dd5790505b505050505081526020016005820180548060200260200160405190810160405280929190818152602001828054801561479e57602002820191906000526020600020906000905b82829054906101000a900463ffffffff1663ffffffff16815260200190600401906020826003010492830192600103820291508084116147615790505b505050505081526020016006820180548060200260200160405190810160405280929190818152602001828054801561482257602002820191906000526020600020906000905b82829054906101000a900463ffffffff1663ffffffff16815260200190600401906020826003010492830192600103820291508084116147e55790505b505050505081526020016007820180548060200260200160405190810160405280929190818152602001828054801561487a57602002820191906000526020600020905b815481526020019060010190808311614866575b505050918352505060088201546020808301919091526009830154604080840191909152600a8401546060840152600b8401546080840152600c84015460a0840152600d84015460c0840152600e84015460e0840152600f84015461010080850191909152601085015460ff81166101208601520463ffffffff166101408401526011840154610160840152601284015461018084015260138401546101a084015260148401546101c084015260158401546101e0840152601684015461020084015260178401546102208401526018840180548251818502810185019093528083526102409094019391929091908301828280156149c457602002820191906000526020600020906000905b82829054906101000a900463ffffffff1663ffffffff16815260200190600401906020826003010492830192600103820291508084116149875790505b505050918352505060198201546020820152601a8201546040820152601b8201546060820152601c9091015460ff8082161515608084015261010082048116151560a08401526201000082048116151560c0840152630100000090910416151560e090910152613d64565b60ff1611156109d657604080516104808101909152835463ffffffff168152600184018054614a6a929186916020840191906145c69061589c565b60108401805460ff191660ff9283169081178255600090815260d860209081526040808320885460099182018054600181810183559187529486206008860401805463ffffffff60079097166004026101000a8781021990911696909316909202949094179055935490941682529290200154614ae79190615b26565b60108401805464ffffffff0019811661010063ffffffff948516810291821793849055875460408051918716825291909404909416602084015260ff918216911617918101919091527f4d3af8f60ffd033b575846f894122f2342b39bc9a90da98d0a966128702b568d9060600160405180910390a1604080516104808101909152835463ffffffff16815260018401805460d892600092614b9392889160208401916145c69061589c565b60ff90811682526020820192909252604001600020600801541615614c5257604080516104808101909152835463ffffffff16815260018401805460d892600092614be892889160208401916145c69061589c565b60ff1660ff1681526020019081526020016000206007015483600f0154614c0f9190615adb565b811115614c3e578083600f01819055508183600e016000828254614c339190615adb565b909155506109d69050565b8183600e016000828254614c339190615adb565b60cf54640100000000900460ff16156109d657601083015460ff16600090815260d86020526040902060050154614c8a908490613c32565b601083015460ff908116600090815260d8602052604080822060058101549054875492519194169263ffffffff909216917fdeaf5b294f5016988108257045fc779d7d01e05a4ecdc4df70f62d5a799e053b91a4505050565b60d25460d154614cf39190615adb565b811115614d025760d15560d055565b8160d06000828254614d149190615adb565b90915550505050565b614d2681614269565b6040516001600160a01b038216907fbc7cd75a20ee27fd9adebab32041f755214dbc6bffa90cc0225b39da2e5c2d3b90600090a250565b60606001600160a01b0383163b614dc55760405162461bcd60e51b815260206004820152602660248201527f416464726573733a2064656c65676174652063616c6c20746f206e6f6e2d636f6044820152651b9d1c9858dd60d21b6064820152608401611077565b600080846001600160a01b031684604051614de09190615c84565b600060405180830381855af49150503d8060008114614e1b576040519150601f19603f3d011682016040523d82523d6000602084013e614e20565b606091505b5091509150614e488282604051806060016040528060278152602001615cd460279139614e53565b925050505b92915050565b60608315614e62575081612d82565b612d828383815115614e775781518083602001fd5b8060405162461bcd60e51b81526004016110779190615ca0565b82805482825590600052602060002090600f01601090048101928215614f295791602002820160005b83821115614ef957835183826101000a81548161ffff021916908360ff1602179055509260200192600201602081600101049283019260010302614eba565b8015614f275782816101000a81549061ffff0219169055600201602081600101049283019260010302614ef9565b505b50614f35929150615041565b5090565b82805482825590600052602060002090600f01601090048101928215614f295791602002820160005b83821115614ef957833560ff1683826101000a81548161ffff021916908360ff1602179055509260200192600201602081600101049283019260010302614f62565b82805482825590600052602060002090600701600890048101928215614f295791602002820160005b8382111561501157835183826101000a81548163ffffffff021916908363ffffffff1602179055509260200192600401602081600301049283019260010302614fcd565b8015614f275782816101000a81549063ffffffff0219169055600401602081600301049283019260010302615011565b5b80821115614f355760008155600101615042565b803560ff8116811461506757600080fd5b919050565b60006020828403121561507e57600080fd5b612d8282615056565b6020808252825182820181905260009190848201906040850190845b818110156150c557835163ffffffff16835292840192918401916001016150a3565b50909695505050505050565b6001600160a01b038116811461102c57600080fd5b600080604083850312156150f957600080fd5b8235615104816150d1565b946020939093013593505050565b60006020828403121561512457600080fd5b5035919050565b63ffffffff8116811461102c57600080fd5b60006020828403121561514f57600080fd5b8135612d828161512b565b60005b8381101561517557818101518382015260200161515d565b50506000910152565b6000815180845261519681602086016020860161515a565b601f01601f19169290920160200192915050565b600081518084526020808501945080840160005b838110156151e057815163ffffffff16875295820195908201906001016151be565b509495945050505050565b600081518084526020808501945080840160005b838110156151e0578151875295820195908201906001016151ff565b6020815261523260208201835163ffffffff169052565b600060208301516104808060408501526152506104a085018361517e565b915060408501516060850152606085015161526f608086018215159052565b5060808501516001600160a01b03811660a08601525060a085015163ffffffff811660c08601525060c085015180151560e08601525060e0850151601f196101008187860301818801526152c385846151aa565b9450808801519250506101208187860301818801526152e285846151aa565b94508088015192505061014081878603018188015261530185846151aa565b94508088015192505061016081878603018188015261532085846151eb565b90880151610180888101919091528801516101a0808901919091528801516101c0808901919091528801516101e0808901919091528801516102008089019190915288015161022080890191909152880151610240808901919091528801516102608089019190915288015190945091506102806153a28188018460ff169052565b87015191506102a06153bb8782018463ffffffff169052565b8701516102c0878101919091528701516102e080880191909152870151610300808801919091528701516103208088019190915287015161034080880191909152870151610360808801919091528701516103808088019190915287015186850382016103a08089019190915290925061543585846151aa565b908801516103c0888101919091528801516103e08089019190915288015161040080890191909152880151909450915061042090506154778187018315159052565b860151905061044061548c8682018315159052565b86015190506104606154a18682018315159052565b90950151151593019290925250919050565b6000602082840312156154c557600080fd5b8135612d82816150d1565b600080604083850312156154e357600080fd5b8235915060208301356154f58161512b565b809150509250929050565b634e487b7160e01b600052604160045260246000fd5b600067ffffffffffffffff8084111561553157615531615500565b604051601f8501601f19908116603f0116810190828211818310171561555957615559615500565b8160405280935085815286868601111561557257600080fd5b858560208301376000602087830101525050509392505050565b801515811461102c57600080fd5b80356150678161558c565b60008060008060008060008060006101208a8c0312156155c457600080fd5b6155cd8a615056565b985060208a0135975060408a0135965060608a0135955060808a013567ffffffffffffffff8111156155fe57600080fd5b8a01601f81018c1361560f57600080fd5b61561e8c823560208401615516565b95505060a08a0135935060c08a0135925060e08a013591506156436101008b0161559a565b90509295985092959850929598565b6000806040838503121561566557600080fd5b8235615670816150d1565b9150602083013567ffffffffffffffff81111561568c57600080fd5b8301601f8101851361569d57600080fd5b6156ac85823560208401615516565b9150509250929050565b600080604083850312156156c957600080fd5b82356151048161512b565b803561ffff8116811461506757600080fd5b600080604083850312156156f957600080fd5b615702836156d4565b9150615710602084016156d4565b90509250929050565b6020815261572d60208201835160ff169052565b602082015160408201526040820151606082015260608201516080820152600060808301516101408060a085015261576961016085018361517e565b915060a085015160c085015260c085015160e085015260e08501516101008181870152808701519150506101206157a38187018315159052565b860151858403601f19018387015290506157bd83826151aa565b9695505050505050565b6000602082840312156157d957600080fd5b612d82826156d4565b600080602083850312156157f557600080fd5b823567ffffffffffffffff8082111561580d57600080fd5b818501915085601f83011261582157600080fd5b81358181111561583057600080fd5b8660208260051b850101111561584557600080fd5b60209290920196919550909350505050565b60208152815115156020820152600060208301516060604084015261587f60808401826151aa565b90506040840151601f19848303016060850152614e48828261517e565b600181811c908216806158b057607f821691505b6020821081036158d057634e487b7160e01b600052602260045260246000fd5b50919050565b6020808252602c908201527f46756e6374696f6e206d7573742062652063616c6c6564207468726f7567682060408201526b19195b1959d85d1958d85b1b60a21b606082015260800190565b6020808252602c908201527f46756e6374696f6e206d7573742062652063616c6c6564207468726f7567682060408201526b6163746976652070726f787960a01b606082015260800190565b60006020828403121561598057600080fd5b8151612d828161558c565b6020808252601290820152712cb7ba9030b932903737ba1030b236b4b71760711b604082015260600190565b601f8211156109d657600081815260208120601f850160051c810160208610156159de5750805b601f850160051c820191505b818110156159fd578281556001016159ea565b505050505050565b815167ffffffffffffffff811115615a1f57615a1f615500565b615a3381615a2d845461589c565b846159b7565b602080601f831160018114615a685760008415615a505750858301515b600019600386901b1c1916600185901b1785556159fd565b600085815260208120601f198616915b82811015615a9757888601518255948401946001909101908401615a78565b5085821015615ab55787850151600019600388901b60f8161c191681555b5050505050600190811b01905550565b634e487b7160e01b600052601160045260246000fd5b80820180821115614e4d57614e4d615ac5565b600061ffff808316818103615b0557615b05615ac5565b6001019392505050565b8082028115828204841417614e4d57614e4d615ac5565b81810381811115614e4d57614e4d615ac5565b600060208284031215615b4b57600080fd5b8151612d82816150d1565b600082615b7357634e487b7160e01b600052601260045260246000fd5b500490565b600060208284031215615b8a57600080fd5b8151612d828161512b565b63ffffffff818116838216019080821115615bb257615bb2615ac5565b5092915050565b600063ffffffff808316818103615b0557615b05615ac5565b600060208284031215615be457600080fd5b5051919050565b60ff8181168382160190811115614e4d57614e4d615ac5565b634e487b7160e01b600052603260045260246000fd5b600060ff821660ff8103615c3057615c30615ac5565b60010192915050565b6020808252602b908201527f496e697469616c697a61626c653a20636f6e7472616374206973206e6f74206960408201526a6e697469616c697a696e6760a81b606082015260800190565b60008251615c9681846020870161515a565b9190910192915050565b602081526000612d82602083018461517e56fe360894a13ba1a3210667c828492db98dca3e2076cc3735a920a3ca505d382bbc416464726573733a206c6f772d6c6576656c2064656c65676174652063616c6c206661696c6564a2646970667358221220e7972d1842254942db24db27f3a4ae120fdff78f23e82682c1e6862caf0a757c64736f6c63430008120033",
  "linkReferences": {},
  "deployedLinkReferences": {}
}