{
  "_format": "hh-sol-artifact-1",
  "contractName": "ReferralV3Upgradeable",
  "sourceName": "contracts/ReferralV4Upgradeable.sol",
  "abi": [
    {
      "anonymous": false,
      "inputs": [
        {
          "indexed": false,
          "internalType": "uint32",
          "name": "id",
          "type": "uint32"
        }
      ],
      "name": "ActivatedId",
      "type": "event"
    },
    {
      "anonymous": false,
      "inputs": [
        {
          "indexed": false,
          "internalType": "uint32",
          "name": "id",
          "type": "uint32"
        },
        {
          "indexed": false,
          "internalType": "uint32",
          "name": "index",
          "type": "uint32"
        },
        {
          "indexed": false,
          "internalType": "uint8",
          "name": "rank",
          "type": "uint8"
        }
      ],
      "name": "AddedInRoyaltyClubList",
      "type": "event"
    },
    {
      "anonymous": false,
      "inputs": [
        {
          "indexed": false,
          "internalType": "address",
          "name": "previousAdmin",
          "type": "address"
        },
        {
          "indexed": false,
          "internalType": "address",
          "name": "newAdmin",
          "type": "address"
        }
      ],
      "name": "AdminChanged",
      "type": "event"
    },
    {
      "anonymous": false,
      "inputs": [
        {
          "indexed": true,
          "internalType": "address",
          "name": "beacon",
          "type": "address"
        }
      ],
      "name": "BeaconUpgraded",
      "type": "event"
    },
    {
      "anonymous": false,
      "inputs": [
        {
          "indexed": false,
          "internalType": "uint32",
          "name": "id",
          "type": "uint32"
        },
        {
          "indexed": false,
          "internalType": "string",
          "name": "reason",
          "type": "string"
        }
      ],
      "name": "DeactivatedId",
      "type": "event"
    },
    {
      "anonymous": false,
      "inputs": [
        {
          "indexed": false,
          "internalType": "uint8",
          "name": "version",
          "type": "uint8"
        }
      ],
      "name": "Initialized",
      "type": "event"
    },
    {
      "anonymous": false,
      "inputs": [
        {
          "indexed": false,
          "internalType": "uint32",
          "name": "id",
          "type": "uint32"
        },
        {
          "indexed": false,
          "internalType": "address",
          "name": "owner",
          "type": "address"
        }
      ],
      "name": "OwnerChangedId",
      "type": "event"
    },
    {
      "anonymous": false,
      "inputs": [
        {
          "indexed": true,
          "internalType": "address",
          "name": "previousOwner",
          "type": "address"
        },
        {
          "indexed": true,
          "internalType": "address",
          "name": "newOwner",
          "type": "address"
        }
      ],
      "name": "OwnershipTransferred",
      "type": "event"
    },
    {
      "anonymous": false,
      "inputs": [
        {
          "indexed": false,
          "internalType": "uint8",
          "name": "packageId",
          "type": "uint8"
        }
      ],
      "name": "PackageAdded",
      "type": "event"
    },
    {
      "anonymous": false,
      "inputs": [
        {
          "indexed": false,
          "internalType": "uint8",
          "name": "packageId",
          "type": "uint8"
        }
      ],
      "name": "PackageRemoved",
      "type": "event"
    },
    {
      "anonymous": false,
      "inputs": [
        {
          "indexed": false,
          "internalType": "uint8",
          "name": "packageId",
          "type": "uint8"
        }
      ],
      "name": "PackageUpdated",
      "type": "event"
    },
    {
      "anonymous": false,
      "inputs": [
        {
          "indexed": true,
          "internalType": "uint32",
          "name": "refererId",
          "type": "uint32"
        },
        {
          "indexed": true,
          "internalType": "uint8",
          "name": "level",
          "type": "uint8"
        },
        {
          "indexed": true,
          "internalType": "string",
          "name": "reason",
          "type": "string"
        }
      ],
      "name": "ReferralNotPaid",
      "type": "event"
    },
    {
      "anonymous": false,
      "inputs": [
        {
          "indexed": true,
          "internalType": "uint32",
          "name": "refereeId",
          "type": "uint32"
        },
        {
          "indexed": true,
          "internalType": "uint32",
          "name": "referrerId",
          "type": "uint32"
        },
        {
          "indexed": true,
          "internalType": "uint256",
          "name": "amount",
          "type": "uint256"
        },
        {
          "indexed": false,
          "internalType": "uint8",
          "name": "level",
          "type": "uint8"
        }
      ],
      "name": "ReferralRewardPaid",
      "type": "event"
    },
    {
      "anonymous": false,
      "inputs": [
        {
          "indexed": true,
          "internalType": "address",
          "name": "refereeId",
          "type": "address"
        },
        {
          "indexed": true,
          "internalType": "address",
          "name": "referrerId",
          "type": "address"
        },
        {
          "indexed": true,
          "internalType": "string",
          "name": "reason",
          "type": "string"
        }
      ],
      "name": "RegisterRefererFailed",
      "type": "event"
    },
    {
      "anonymous": false,
      "inputs": [
        {
          "indexed": true,
          "internalType": "uint32",
          "name": "id",
          "type": "uint32"
        },
        {
          "indexed": true,
          "internalType": "uint32",
          "name": "refererId",
          "type": "uint32"
        }
      ],
      "name": "RegisteredReferer",
      "type": "event"
    },
    {
      "anonymous": false,
      "inputs": [
        {
          "indexed": true,
          "internalType": "uint32",
          "name": "refereeId",
          "type": "uint32"
        },
        {
          "indexed": true,
          "internalType": "uint32",
          "name": "referrerId",
          "type": "uint32"
        },
        {
          "indexed": true,
          "internalType": "uint32",
          "name": "parentAccountId",
          "type": "uint32"
        }
      ],
      "name": "RegisteredTeamAddress",
      "type": "event"
    },
    {
      "anonymous": false,
      "inputs": [
        {
          "indexed": true,
          "internalType": "uint32",
          "name": "userid",
          "type": "uint32"
        },
        {
          "indexed": true,
          "internalType": "uint8",
          "name": "packageId",
          "type": "uint8"
        },
        {
          "indexed": true,
          "internalType": "uint256",
          "name": "amount",
          "type": "uint256"
        }
      ],
      "name": "RoyaltyClubBonusPaid",
      "type": "event"
    },
    {
      "anonymous": false,
      "inputs": [
        {
          "indexed": true,
          "internalType": "address",
          "name": "implementation",
          "type": "address"
        }
      ],
      "name": "Upgraded",
      "type": "event"
    },
    {
      "inputs": [
        {
          "internalType": "uint32",
          "name": "_refererId",
          "type": "uint32"
        }
      ],
      "name": "activateId",
      "outputs": [],
      "stateMutability": "payable",
      "type": "function"
    },
    {
      "inputs": [
        {
          "internalType": "uint32",
          "name": "_refererId",
          "type": "uint32"
        },
        {
          "internalType": "uint256",
          "name": "_value",
          "type": "uint256"
        }
      ],
      "name": "activateIdUSD",
      "outputs": [],
      "stateMutability": "nonpayable",
      "type": "function"
    },
    {
      "inputs": [
        {
          "internalType": "uint32",
          "name": "_id",
          "type": "uint32"
        },
        {
          "internalType": "uint256",
          "name": "_valueInUSD",
          "type": "uint256"
        }
      ],
      "name": "claimBalance",
      "outputs": [],
      "stateMutability": "nonpayable",
      "type": "function"
    },
    {
      "inputs": [],
      "name": "companyTurnoverTimeLimit",
      "outputs": [
        {
          "internalType": "uint256",
          "name": "",
          "type": "uint256"
        }
      ],
      "stateMutability": "view",
      "type": "function"
    },
    {
      "inputs": [],
      "name": "companyTurnoverTimeStamp",
      "outputs": [
        {
          "internalType": "uint256",
          "name": "",
          "type": "uint256"
        }
      ],
      "stateMutability": "view",
      "type": "function"
    },
    {
      "inputs": [],
      "name": "companyTurnoverWithTimeLimit",
      "outputs": [
        {
          "internalType": "uint256",
          "name": "",
          "type": "uint256"
        }
      ],
      "stateMutability": "view",
      "type": "function"
    },
    {
      "inputs": [],
      "name": "decimals",
      "outputs": [
        {
          "internalType": "uint16",
          "name": "",
          "type": "uint16"
        }
      ],
      "stateMutability": "view",
      "type": "function"
    },
    {
      "inputs": [
        {
          "internalType": "address",
          "name": "_userAddress",
          "type": "address"
        }
      ],
      "name": "disableUserAdmin",
      "outputs": [],
      "stateMutability": "nonpayable",
      "type": "function"
    },
    {
      "inputs": [
        {
          "internalType": "uint256",
          "name": "",
          "type": "uint256"
        }
      ],
      "name": "disabledUsersList",
      "outputs": [
        {
          "internalType": "address",
          "name": "",
          "type": "address"
        }
      ],
      "stateMutability": "view",
      "type": "function"
    },
    {
      "inputs": [
        {
          "internalType": "uint8",
          "name": "_packageId",
          "type": "uint8"
        }
      ],
      "name": "getAchieversList",
      "outputs": [
        {
          "internalType": "uint32[]",
          "name": "",
          "type": "uint32[]"
        }
      ],
      "stateMutability": "view",
      "type": "function"
    },
    {
      "inputs": [
        {
          "internalType": "uint32",
          "name": "_id",
          "type": "uint32"
        }
      ],
      "name": "getIdAccount",
      "outputs": [
        {
          "components": [
            {
              "internalType": "uint32",
              "name": "id",
              "type": "uint32"
            },
            {
              "internalType": "string",
              "name": "oldId",
              "type": "string"
            },
            {
              "internalType": "uint256",
              "name": "joiningTime",
              "type": "uint256"
            },
            {
              "internalType": "bool",
              "name": "isActive",
              "type": "bool"
            },
            {
              "internalType": "bool",
              "name": "isAddedToUserList",
              "type": "bool"
            },
            {
              "internalType": "address",
              "name": "owner",
              "type": "address"
            },
            {
              "internalType": "uint32",
              "name": "refererId",
              "type": "uint32"
            },
            {
              "internalType": "bool",
              "name": "hasUpline",
              "type": "bool"
            },
            {
              "internalType": "uint32[]",
              "name": "refereeIds",
              "type": "uint32[]"
            },
            {
              "internalType": "uint32[]",
              "name": "teamIds",
              "type": "uint32[]"
            },
            {
              "internalType": "uint32[]",
              "name": "teamLevel",
              "type": "uint32[]"
            },
            {
              "internalType": "uint256[]",
              "name": "selfBusinessArray",
              "type": "uint256[]"
            },
            {
              "internalType": "uint256",
              "name": "selfBusiness",
              "type": "uint256"
            },
            {
              "internalType": "uint256",
              "name": "selfBusinessOld",
              "type": "uint256"
            },
            {
              "internalType": "uint256",
              "name": "directBusiness",
              "type": "uint256"
            },
            {
              "internalType": "uint256",
              "name": "directBusinessOld",
              "type": "uint256"
            },
            {
              "internalType": "uint256",
              "name": "teamBusiness",
              "type": "uint256"
            },
            {
              "internalType": "uint256",
              "name": "teamBusinessOld",
              "type": "uint256"
            },
            {
              "internalType": "uint256",
              "name": "royaltyClubBusiness",
              "type": "uint256"
            },
            {
              "internalType": "uint256",
              "name": "timeStampRoyaltyClub",
              "type": "uint256"
            },
            {
              "internalType": "uint8",
              "name": "royaltyClubPackageId",
              "type": "uint8"
            },
            {
              "internalType": "uint32",
              "name": "royaltyClubListIndex",
              "type": "uint32"
            },
            {
              "internalType": "uint256",
              "name": "royaltyClubRewardPaid",
              "type": "uint256"
            },
            {
              "internalType": "uint256",
              "name": "topUpIncome",
              "type": "uint256"
            },
            {
              "internalType": "uint256",
              "name": "topUp",
              "type": "uint256"
            },
            {
              "internalType": "uint256",
              "name": "maxLimit",
              "type": "uint256"
            },
            {
              "internalType": "uint256",
              "name": "activationTime",
              "type": "uint256"
            },
            {
              "internalType": "uint256",
              "name": "referralPaid",
              "type": "uint256"
            },
            {
              "internalType": "uint32[]",
              "name": "roiIds",
              "type": "uint32[]"
            },
            {
              "internalType": "uint256",
              "name": "roiPaid",
              "type": "uint256"
            },
            {
              "internalType": "uint256",
              "name": "roiClaimedTime",
              "type": "uint256"
            },
            {
              "internalType": "uint256",
              "name": "walletBalance",
              "type": "uint256"
            },
            {
              "internalType": "bool",
              "name": "canWindraw",
              "type": "bool"
            }
          ],
          "internalType": "struct ReferralV3Upgradeable.StructId",
          "name": "",
          "type": "tuple"
        }
      ],
      "stateMutability": "view",
      "type": "function"
    },
    {
      "inputs": [
        {
          "internalType": "uint32",
          "name": "_id",
          "type": "uint32"
        }
      ],
      "name": "getIdLimits",
      "outputs": [
        {
          "internalType": "uint256",
          "name": "topUpIncome",
          "type": "uint256"
        },
        {
          "internalType": "uint256",
          "name": "topUp",
          "type": "uint256"
        },
        {
          "internalType": "uint256",
          "name": "maxLimit",
          "type": "uint256"
        }
      ],
      "stateMutability": "view",
      "type": "function"
    },
    {
      "inputs": [
        {
          "internalType": "uint32",
          "name": "_id",
          "type": "uint32"
        }
      ],
      "name": "getIdRewardPaid",
      "outputs": [
        {
          "internalType": "uint256",
          "name": "referralPaid",
          "type": "uint256"
        },
        {
          "internalType": "uint256",
          "name": "totalROIClaimed",
          "type": "uint256"
        },
        {
          "internalType": "uint256",
          "name": "rewardPaidRoyaltyClub",
          "type": "uint256"
        },
        {
          "internalType": "uint256",
          "name": "totalRewardPaid",
          "type": "uint256"
        }
      ],
      "stateMutability": "view",
      "type": "function"
    },
    {
      "inputs": [
        {
          "internalType": "uint32",
          "name": "_id",
          "type": "uint32"
        }
      ],
      "name": "getIdRoyaltyClubLevel",
      "outputs": [
        {
          "internalType": "uint256",
          "name": "",
          "type": "uint256"
        }
      ],
      "stateMutability": "view",
      "type": "function"
    },
    {
      "inputs": [
        {
          "internalType": "uint32",
          "name": "_id",
          "type": "uint32"
        }
      ],
      "name": "getIdTeam",
      "outputs": [
        {
          "internalType": "uint32[]",
          "name": "teamIds",
          "type": "uint32[]"
        },
        {
          "internalType": "uint32[]",
          "name": "teamLevels",
          "type": "uint32[]"
        },
        {
          "internalType": "uint256",
          "name": "teamCount",
          "type": "uint256"
        }
      ],
      "stateMutability": "view",
      "type": "function"
    },
    {
      "inputs": [
        {
          "internalType": "uint32",
          "name": "_id",
          "type": "uint32"
        }
      ],
      "name": "getIdTotalBusiness",
      "outputs": [
        {
          "internalType": "uint256",
          "name": "selfBusiness",
          "type": "uint256"
        },
        {
          "internalType": "uint256",
          "name": "selfBusinessOld",
          "type": "uint256"
        },
        {
          "internalType": "uint256",
          "name": "directBusiness",
          "type": "uint256"
        },
        {
          "internalType": "uint256",
          "name": "directBusinessOld",
          "type": "uint256"
        },
        {
          "internalType": "uint256",
          "name": "teamBusiness",
          "type": "uint256"
        },
        {
          "internalType": "uint256",
          "name": "teamBusinessOld",
          "type": "uint256"
        }
      ],
      "stateMutability": "view",
      "type": "function"
    },
    {
      "inputs": [],
      "name": "getMinContributionETH",
      "outputs": [
        {
          "internalType": "uint256",
          "name": "",
          "type": "uint256"
        }
      ],
      "stateMutability": "view",
      "type": "function"
    },
    {
      "inputs": [
        {
          "internalType": "uint8",
          "name": "_packageId",
          "type": "uint8"
        }
      ],
      "name": "getRoyaltyClubPackageInfo",
      "outputs": [
        {
          "components": [
            {
              "internalType": "uint8",
              "name": "packageId",
              "type": "uint8"
            },
            {
              "internalType": "uint256",
              "name": "selfBusiness",
              "type": "uint256"
            },
            {
              "internalType": "uint256",
              "name": "directBusiness",
              "type": "uint256"
            },
            {
              "internalType": "uint256",
              "name": "teamBusiness",
              "type": "uint256"
            },
            {
              "internalType": "string",
              "name": "rankName",
              "type": "string"
            },
            {
              "internalType": "uint256",
              "name": "reward",
              "type": "uint256"
            },
            {
              "internalType": "uint256",
              "name": "businessLimit",
              "type": "uint256"
            },
            {
              "internalType": "uint256",
              "name": "timeLimit",
              "type": "uint256"
            },
            {
              "internalType": "bool",
              "name": "isPayReccursive",
              "type": "bool"
            },
            {
              "internalType": "uint32[]",
              "name": "achieversList",
              "type": "uint32[]"
            }
          ],
          "internalType": "struct ReferralV3Upgradeable.StructPackages",
          "name": "",
          "type": "tuple"
        }
      ],
      "stateMutability": "view",
      "type": "function"
    },
    {
      "inputs": [
        {
          "internalType": "address",
          "name": "_address",
          "type": "address"
        }
      ],
      "name": "getUserAccount",
      "outputs": [
        {
          "components": [
            {
              "internalType": "bool",
              "name": "isActive",
              "type": "bool"
            },
            {
              "internalType": "uint32[]",
              "name": "accountIds",
              "type": "uint32[]"
            }
          ],
          "internalType": "struct ReferralV3Upgradeable.StructAccount",
          "name": "",
          "type": "tuple"
        }
      ],
      "stateMutability": "view",
      "type": "function"
    },
    {
      "inputs": [
        {
          "internalType": "uint32",
          "name": "_id",
          "type": "uint32"
        }
      ],
      "name": "getUserROIIds",
      "outputs": [
        {
          "internalType": "uint32[]",
          "name": "",
          "type": "uint32[]"
        }
      ],
      "stateMutability": "view",
      "type": "function"
    },
    {
      "inputs": [
        {
          "internalType": "uint32",
          "name": "_id",
          "type": "uint32"
        }
      ],
      "name": "getUserUnlockCount",
      "outputs": [
        {
          "internalType": "uint256",
          "name": "",
          "type": "uint256"
        }
      ],
      "stateMutability": "view",
      "type": "function"
    },
    {
      "inputs": [
        {
          "internalType": "uint32",
          "name": "_id",
          "type": "uint32"
        },
        {
          "internalType": "uint256",
          "name": "_value",
          "type": "uint256"
        }
      ],
      "name": "increaseIdTopIncome",
      "outputs": [],
      "stateMutability": "nonpayable",
      "type": "function"
    },
    {
      "inputs": [],
      "name": "initialize",
      "outputs": [],
      "stateMutability": "nonpayable",
      "type": "function"
    },
    {
      "inputs": [],
      "name": "isActivateROI",
      "outputs": [
        {
          "internalType": "bool",
          "name": "",
          "type": "bool"
        }
      ],
      "stateMutability": "view",
      "type": "function"
    },
    {
      "inputs": [],
      "name": "isPayReferral",
      "outputs": [
        {
          "internalType": "bool",
          "name": "",
          "type": "bool"
        }
      ],
      "stateMutability": "view",
      "type": "function"
    },
    {
      "inputs": [],
      "name": "isPayRoyaltyClubBonus",
      "outputs": [
        {
          "internalType": "bool",
          "name": "",
          "type": "bool"
        }
      ],
      "stateMutability": "view",
      "type": "function"
    },
    {
      "inputs": [
        {
          "internalType": "address",
          "name": "_userAddress",
          "type": "address"
        }
      ],
      "name": "isUserDisabledByAdmin",
      "outputs": [
        {
          "internalType": "bool",
          "name": "",
          "type": "bool"
        }
      ],
      "stateMutability": "view",
      "type": "function"
    },
    {
      "inputs": [
        {
          "internalType": "uint256",
          "name": "",
          "type": "uint256"
        }
      ],
      "name": "levelRates",
      "outputs": [
        {
          "internalType": "uint16",
          "name": "",
          "type": "uint16"
        }
      ],
      "stateMutability": "view",
      "type": "function"
    },
    {
      "inputs": [],
      "name": "maxLevels",
      "outputs": [
        {
          "internalType": "uint8",
          "name": "",
          "type": "uint8"
        }
      ],
      "stateMutability": "view",
      "type": "function"
    },
    {
      "inputs": [],
      "name": "minContributionUSD",
      "outputs": [
        {
          "internalType": "uint256",
          "name": "",
          "type": "uint256"
        }
      ],
      "stateMutability": "view",
      "type": "function"
    },
    {
      "inputs": [],
      "name": "owner",
      "outputs": [
        {
          "internalType": "address",
          "name": "",
          "type": "address"
        }
      ],
      "stateMutability": "view",
      "type": "function"
    },
    {
      "inputs": [],
      "name": "packagesCount",
      "outputs": [
        {
          "internalType": "uint8",
          "name": "",
          "type": "uint8"
        }
      ],
      "stateMutability": "view",
      "type": "function"
    },
    {
      "inputs": [
        {
          "internalType": "uint256",
          "name": "_value",
          "type": "uint256"
        },
        {
          "internalType": "uint32",
          "name": "_id",
          "type": "uint32"
        }
      ],
      "name": "payReferralAdmin",
      "outputs": [],
      "stateMutability": "nonpayable",
      "type": "function"
    },
    {
      "inputs": [],
      "name": "payRoyaltyClubReccursiveBonusAdmin",
      "outputs": [],
      "stateMutability": "nonpayable",
      "type": "function"
    },
    {
      "inputs": [],
      "name": "proxiableUUID",
      "outputs": [
        {
          "internalType": "bytes32",
          "name": "",
          "type": "bytes32"
        }
      ],
      "stateMutability": "view",
      "type": "function"
    },
    {
      "inputs": [],
      "name": "renounceOwnership",
      "outputs": [],
      "stateMutability": "nonpayable",
      "type": "function"
    },
    {
      "inputs": [],
      "name": "royaltyClubPackageCount",
      "outputs": [
        {
          "internalType": "uint8",
          "name": "",
          "type": "uint8"
        }
      ],
      "stateMutability": "view",
      "type": "function"
    },
    {
      "inputs": [
        {
          "internalType": "address",
          "name": "_address",
          "type": "address"
        },
        {
          "internalType": "uint256",
          "name": "_value",
          "type": "uint256"
        }
      ],
      "name": "sendETHAdmin",
      "outputs": [],
      "stateMutability": "nonpayable",
      "type": "function"
    },
    {
      "inputs": [
        {
          "internalType": "uint16",
          "name": "_value",
          "type": "uint16"
        }
      ],
      "name": "setLevelDecimals",
      "outputs": [],
      "stateMutability": "nonpayable",
      "type": "function"
    },
    {
      "inputs": [
        {
          "internalType": "uint8[]",
          "name": "_value",
          "type": "uint8[]"
        }
      ],
      "name": "setLevelRates",
      "outputs": [],
      "stateMutability": "nonpayable",
      "type": "function"
    },
    {
      "inputs": [
        {
          "internalType": "uint8",
          "name": "_valueDecimals",
          "type": "uint8"
        }
      ],
      "name": "setMaxLevelsAdmin",
      "outputs": [],
      "stateMutability": "nonpayable",
      "type": "function"
    },
    {
      "inputs": [
        {
          "internalType": "uint256",
          "name": "_valueInUSD",
          "type": "uint256"
        }
      ],
      "name": "setMinContribution",
      "outputs": [],
      "stateMutability": "nonpayable",
      "type": "function"
    },
    {
      "inputs": [
        {
          "internalType": "uint8",
          "name": "packageId",
          "type": "uint8"
        },
        {
          "internalType": "uint256",
          "name": "selfBusiness",
          "type": "uint256"
        },
        {
          "internalType": "uint256",
          "name": "directBusiness",
          "type": "uint256"
        },
        {
          "internalType": "uint256",
          "name": "teamBusiness",
          "type": "uint256"
        },
        {
          "internalType": "string",
          "name": "rankName",
          "type": "string"
        },
        {
          "internalType": "uint256",
          "name": "reward",
          "type": "uint256"
        },
        {
          "internalType": "uint256",
          "name": "businessLimit",
          "type": "uint256"
        },
        {
          "internalType": "uint256",
          "name": "timeLimit",
          "type": "uint256"
        },
        {
          "internalType": "bool",
          "name": "isPayReccursive",
          "type": "bool"
        }
      ],
      "name": "setRoyaltyClubPackage",
      "outputs": [],
      "stateMutability": "nonpayable",
      "type": "function"
    },
    {
      "inputs": [
        {
          "internalType": "uint8",
          "name": "_valueDecimals",
          "type": "uint8"
        }
      ],
      "name": "setRoyaltyPackageCount",
      "outputs": [],
      "stateMutability": "nonpayable",
      "type": "function"
    },
    {
      "inputs": [
        {
          "internalType": "uint32",
          "name": "_id",
          "type": "uint32"
        }
      ],
      "name": "topUpId",
      "outputs": [],
      "stateMutability": "payable",
      "type": "function"
    },
    {
      "inputs": [],
      "name": "totalIds",
      "outputs": [
        {
          "internalType": "uint32",
          "name": "",
          "type": "uint32"
        }
      ],
      "stateMutability": "view",
      "type": "function"
    },
    {
      "inputs": [],
      "name": "totalReferralPaid",
      "outputs": [
        {
          "internalType": "uint256",
          "name": "",
          "type": "uint256"
        }
      ],
      "stateMutability": "view",
      "type": "function"
    },
    {
      "inputs": [],
      "name": "totalRoyaltyClubBonusPaid",
      "outputs": [
        {
          "internalType": "uint256",
          "name": "",
          "type": "uint256"
        }
      ],
      "stateMutability": "view",
      "type": "function"
    },
    {
      "inputs": [
        {
          "internalType": "address",
          "name": "newOwner",
          "type": "address"
        }
      ],
      "name": "transferOwnership",
      "outputs": [],
      "stateMutability": "nonpayable",
      "type": "function"
    },
    {
      "inputs": [
        {
          "internalType": "uint32",
          "name": "_value",
          "type": "uint32"
        }
      ],
      "name": "updateTotalIds",
      "outputs": [],
      "stateMutability": "nonpayable",
      "type": "function"
    },
    {
      "inputs": [
        {
          "internalType": "address",
          "name": "newImplementation",
          "type": "address"
        }
      ],
      "name": "upgradeTo",
      "outputs": [],
      "stateMutability": "nonpayable",
      "type": "function"
    },
    {
      "inputs": [
        {
          "internalType": "address",
          "name": "newImplementation",
          "type": "address"
        },
        {
          "internalType": "bytes",
          "name": "data",
          "type": "bytes"
        }
      ],
      "name": "upgradeToAndCall",
      "outputs": [],
      "stateMutability": "payable",
      "type": "function"
    },
    {
      "inputs": [
        {
          "internalType": "uint256",
          "name": "",
          "type": "uint256"
        }
      ],
      "name": "users",
      "outputs": [
        {
          "internalType": "address",
          "name": "",
          "type": "address"
        }
      ],
      "stateMutability": "view",
      "type": "function"
    },
    {
      "inputs": [],
      "name": "withdrawETHAdmin",
      "outputs": [],
      "stateMutability": "nonpayable",
      "type": "function"
    },
    {
      "inputs": [
        {
          "internalType": "address",
          "name": "_tokenAddress",
          "type": "address"
        },
        {
          "internalType": "uint256",
          "name": "_value",
          "type": "uint256"
        }
      ],
      "name": "withdrawTokensAdmin",
      "outputs": [],
      "stateMutability": "nonpayable",
      "type": "function"
    },
    {
      "stateMutability": "payable",
      "type": "receive"
    }
  ],
  "bytecode": "0x60a06040523060805234801561001457600080fd5b50608051616b036200004d60003960008181611b5401528181611b9d01528181612287015281816122c701526123560152616b036000f3fe6080604052600436106103545760003560e01c80636f38e410116101c6578063a0b6105f116100f7578063e1c715ba11610095578063f31a2d0f1161006f578063f31a2d0f14610a81578063f41bfeef14610aa1578063fafc959714610ab7578063fb47e01614610ad957600080fd5b8063e1c715ba146109bc578063ed44add8146109dc578063f2fde38b14610a6157600080fd5b8063a43ae408116100d1578063a43ae40814610954578063aa7df4f214610974578063b47181d314610989578063bcb93f9b146109a957600080fd5b8063a0b6105f146108fe578063a152b0f01461091e578063a28a36861461093157600080fd5b8063852ff2fd116101645780638da5cb5b1161013e5780638da5cb5b1461088a5780638f84de85146108a8578063987dd4a7146108be5780639f4e8398146108de57600080fd5b8063852ff2fd1461083a5780638af925dc146108505780638b1b37d21461086a57600080fd5b80637879b5ef116101a05780637879b5ef146107c25780637bdbf996146107e25780637c5994861461080f5780638129fc1c1461082557600080fd5b80636f38e4101461076e5780637084431f1461078e578063715018a6146107ad57600080fd5b8063365b98b2116102a05780634e6e93a31161023e578063538ffe0c11610218578063538ffe0c146106c55780635979369a1461070e5780635b8210a71461072e5780636ccc10ae1461074e57600080fd5b80634e6e93a3146106625780634f1ef2861461069d57806352d1902d146106b057600080fd5b8063473b0d461161027a578063473b0d46146105e2578063498b3e55146106025780634a750822146106225780634b5102b81461064257600080fd5b8063365b98b214610570578063390a5ba5146105905780633eff2def146105c257600080fd5b8063210097891161030d5780632ed421d2116102e75780632ed421d2146104f7578063313ce5671461050d578063357597881461053b5780633659cfe61461055057600080fd5b8063210097891461047457806322f88b52146104a15780632dd7a213146104b757600080fd5b8063012da720146103605780630b243dad146103965780631319cff9146103b857806318e10bff146103f05780631e7e51e6146104225780631f9e65e41461045157600080fd5b3661035b57005b600080fd5b34801561036c57600080fd5b5061038061037b366004615eca565b610b06565b60405161038d9190615f26565b60405180910390f35b3480156103a257600080fd5b506103b66103b1366004615f4e565b610b9b565b005b3480156103c457600080fd5b506103d86103d3366004615f7a565b610bde565b6040516001600160a01b03909116815260200161038d565b3480156103fc57600080fd5b5060d5546104109062010000900460ff1681565b60405160ff909116815260200161038d565b34801561042e57600080fd5b5061044261043d366004615fa5565b610c08565b60405161038d93929190615fc2565b34801561045d57600080fd5b506104666110a7565b60405190815260200161038d565b34801561048057600080fd5b5061049461048f366004615fa5565b6110b9565b60405161038d9190616078565b3480156104ad57600080fd5b5061046660d05481565b3480156104c357600080fd5b506104d76104d2366004615fa5565b611656565b60408051948552602085019390935291830152606082015260800161038d565b34801561050357600080fd5b5061046660d15481565b34801561051957600080fd5b5060cb546105289061ffff1681565b60405161ffff909116815260200161038d565b34801561054757600080fd5b506103b6611b13565b34801561055c57600080fd5b506103b661056b3660046162e4565b611b4a565b34801561057c57600080fd5b506103d861058b366004615f7a565b611c2f565b34801561059c57600080fd5b5060cf546105ad9063ffffffff1681565b60405163ffffffff909116815260200161038d565b3480156105ce57600080fd5b506103b66105dd366004615eca565b611c3f565b3480156105ee57600080fd5b506103b66105fd366004615f7a565b611c65565b34801561060e57600080fd5b506103b661061d366004616301565b611c72565b34801561062e57600080fd5b506103b661063d3660046163d6565b611d08565b34801561064e57600080fd5b506103b661065d366004615eca565b611db8565b34801561066e57600080fd5b5061068261067d366004615fa5565b611dde565b6040805193845260208401929092529082015260600161038d565b6103b66106ab366004616483565b61227d565b3480156106bc57600080fd5b50610466612349565b3480156106d157600080fd5b506106fe6106e03660046162e4565b6001600160a01b0316600090815260d6602052604090205460ff1690565b604051901515815260200161038d565b34801561071a57600080fd5b506103b6610729366004615fa5565b6123fc565b34801561073a57600080fd5b506103b66107493660046164e7565b6124a0565b34801561075a57600080fd5b506103b66107693660046164e7565b61270d565b34801561077a57600080fd5b5060cb546104109062010000900460ff1681565b34801561079a57600080fd5b5060d5546106fe90610100900460ff1681565b3480156107b957600080fd5b506103b66127b4565b3480156107ce57600080fd5b506105286107dd366004615f7a565b6127c8565b3480156107ee57600080fd5b506108026107fd366004615eca565b612800565b60405161038d9190616505565b34801561081b57600080fd5b5061046660ce5481565b34801561083157600080fd5b506103b66129ff565b34801561084657600080fd5b5061046660cd5481565b34801561085c57600080fd5b5060d5546106fe9060ff1681565b34801561087657600080fd5b50610380610885366004615fa5565b612c94565b34801561089657600080fd5b506033546001600160a01b03166103d8565b3480156108b457600080fd5b5061046660cc5481565b3480156108ca57600080fd5b506104666108d9366004615fa5565b612d04565b3480156108ea57600080fd5b506103b66108f93660046162e4565b613198565b34801561090a57600080fd5b506103b6610919366004615f4e565b613241565b6103b661092c366004615fa5565b6132ba565b34801561093d57600080fd5b5060cf546104109065010000000000900460ff1681565b34801561096057600080fd5b506103b661096f3660046165b3565b6134a7565b34801561098057600080fd5b506103b66134c7565b34801561099557600080fd5b506104666109a4366004615fa5565b61380b565b6103b66109b7366004615fa5565b613c9c565b3480156109c857600080fd5b506103b66109d73660046165d7565b613f18565b3480156109e857600080fd5b50610a346109f7366004615fa5565b63ffffffff16600090815260d76020526040902060088101546009820154600a830154600b840154600c850154600d909501549395929491939092565b604080519687526020870195909552938501929092526060840152608083015260a082015260c00161038d565b348015610a6d57600080fd5b506103b6610a7c3660046162e4565b613f2c565b348015610a8d57600080fd5b506103b6610a9c3660046164e7565b613fa2565b348015610aad57600080fd5b5061046660d25481565b348015610ac357600080fd5b5060cf546106fe90640100000000900460ff1681565b348015610ae557600080fd5b50610af9610af43660046162e4565b6140c2565b60405161038d919061664c565b60ff8116600090815260d86020908152604091829020600901805483518184028101840190945280845260609392830182828015610b8f57602002820191906000526020600020906000905b82829054906101000a900463ffffffff1663ffffffff1681526020019060040190602082600301049283019260010382029150808411610b525790505b50505050509050919050565b610ba3614166565b6040516001600160a01b0383169082156108fc029083906000818181858888f19350505050158015610bd9573d6000803e3d6000fd5b505050565b60d38181548110610bee57600080fd5b6000918252602090912001546001600160a01b0316905081565b63ffffffff808216600090815260d760209081526040808320815161042081019092528054909416815260018401805460609586959485949391929084019190610c5190616673565b80601f0160208091040260200160405190810160405280929190818152602001828054610c7d90616673565b8015610cca5780601f10610c9f57610100808354040283529160200191610cca565b820191906000526020600020905b815481529060010190602001808311610cad57829003601f168201915b50505091835250506002820154602080830191909152600383015460ff808216151560408086019190915261010083048216151560608601526001600160a01b0362010000840416608086015263ffffffff600160b01b84041660a0860152600160d01b90920416151560c084015260048401805482518185028101850190935280835260e0909401939192909190830182828015610db457602002820191906000526020600020906000905b82829054906101000a900463ffffffff1663ffffffff1681526020019060040190602082600301049283019260010382029150808411610d775790505b5050505050815260200160058201805480602002602001604051908101604052809291908181526020018280548015610e3857602002820191906000526020600020906000905b82829054906101000a900463ffffffff1663ffffffff1681526020019060040190602082600301049283019260010382029150808411610dfb5790505b5050505050815260200160068201805480602002602001604051908101604052809291908181526020018280548015610ebc57602002820191906000526020600020906000905b82829054906101000a900463ffffffff1663ffffffff1681526020019060040190602082600301049283019260010382029150808411610e7f5790505b5050505050815260200160078201805480602002602001604051908101604052809291908181526020018280548015610f1457602002820191906000526020600020905b815481526020019060010190808311610f00575b505050918352505060088201546020808301919091526009830154604080840191909152600a8401546060840152600b8401546080840152600c84015460a0840152600d84015460c0840152600e84015460e0840152600f84015461010080850191909152601085015460ff81166101208601520463ffffffff166101408401526011840154610160840152601284015461018084015260138401546101a084015260148401546101c084015260158401546101e0840152601684015461020084015260178401805482518185028101850190935280835261022090940193919290919083018282801561105357602002820191906000526020600020906000905b82829054906101000a900463ffffffff1663ffffffff16815260200190600401906020826003010492830192600103820291508084116110165790505b50505091835250506018820154602082015260198201546040820152601a8201546060820152601b9091015460ff161515608090910152610120810151610140909101518151919790965090945092505050565b60006110b460cc546141c0565b905090565b6111d6604051806104200160405280600063ffffffff168152602001606081526020016000815260200160001515815260200160001515815260200160006001600160a01b03168152602001600063ffffffff168152602001600015158152602001606081526020016060815260200160608152602001606081526020016000815260200160008152602001600081526020016000815260200160008152602001600081526020016000815260200160008152602001600060ff168152602001600063ffffffff168152602001600081526020016000815260200160008152602001600081526020016000815260200160008152602001606081526020016000815260200160008152602001600081526020016000151581525090565b63ffffffff808316600090815260d7602090815260409182902082516104208101909352805490931682526001830180549293929184019161121790616673565b80601f016020809104026020016040519081016040528092919081815260200182805461124390616673565b80156112905780601f1061126557610100808354040283529160200191611290565b820191906000526020600020905b81548152906001019060200180831161127357829003601f168201915b50505091835250506002820154602080830191909152600383015460ff808216151560408086019190915261010083048216151560608601526001600160a01b0362010000840416608086015263ffffffff600160b01b84041660a0860152600160d01b90920416151560c084015260048401805482518185028101850190935280835260e090940193919290919083018282801561137a57602002820191906000526020600020906000905b82829054906101000a900463ffffffff1663ffffffff168152602001906004019060208260030104928301926001038202915080841161133d5790505b50505050508152602001600582018054806020026020016040519081016040528092919081815260200182805480156113fe57602002820191906000526020600020906000905b82829054906101000a900463ffffffff1663ffffffff16815260200190600401906020826003010492830192600103820291508084116113c15790505b505050505081526020016006820180548060200260200160405190810160405280929190818152602001828054801561148257602002820191906000526020600020906000905b82829054906101000a900463ffffffff1663ffffffff16815260200190600401906020826003010492830192600103820291508084116114455790505b50505050508152602001600782018054806020026020016040519081016040528092919081815260200182805480156114da57602002820191906000526020600020905b8154815260200190600101908083116114c6575b505050918352505060088201546020808301919091526009830154604080840191909152600a8401546060840152600b8401546080840152600c84015460a0840152600d84015460c0840152600e84015460e0840152600f84015461010080850191909152601085015460ff81166101208601520463ffffffff166101408401526011840154610160840152601284015461018084015260138401546101a084015260148401546101c084015260158401546101e0840152601684015461020084015260178401805482518185028101850190935280835261022090940193919290919083018282801561161957602002820191906000526020600020906000905b82829054906101000a900463ffffffff1663ffffffff16815260200190600401906020826003010492830192600103820291508084116115dc5790505b50505091835250506018820154602082015260198201546040820152601a8201546060820152601b9091015460ff16151560809091015292915050565b63ffffffff808216600090815260d760209081526040808320815161042081019092528054909416815260018401805493948594859485948594909392918401916116a090616673565b80601f01602080910402602001604051908101604052809291908181526020018280546116cc90616673565b80156117195780601f106116ee57610100808354040283529160200191611719565b820191906000526020600020905b8154815290600101906020018083116116fc57829003601f168201915b50505091835250506002820154602080830191909152600383015460ff808216151560408086019190915261010083048216151560608601526001600160a01b0362010000840416608086015263ffffffff600160b01b84041660a0860152600160d01b90920416151560c084015260048401805482518185028101850190935280835260e090940193919290919083018282801561180357602002820191906000526020600020906000905b82829054906101000a900463ffffffff1663ffffffff16815260200190600401906020826003010492830192600103820291508084116117c65790505b505050505081526020016005820180548060200260200160405190810160405280929190818152602001828054801561188757602002820191906000526020600020906000905b82829054906101000a900463ffffffff1663ffffffff168152602001906004019060208260030104928301926001038202915080841161184a5790505b505050505081526020016006820180548060200260200160405190810160405280929190818152602001828054801561190b57602002820191906000526020600020906000905b82829054906101000a900463ffffffff1663ffffffff16815260200190600401906020826003010492830192600103820291508084116118ce5790505b505050505081526020016007820180548060200260200160405190810160405280929190818152602001828054801561196357602002820191906000526020600020905b81548152602001906001019080831161194f575b505050918352505060088201546020808301919091526009830154604080840191909152600a8401546060840152600b8401546080840152600c84015460a0840152600d84015460c0840152600e84015460e0840152600f84015461010080850191909152601085015460ff81166101208601520463ffffffff166101408401526011840154610160840152601284015461018084015260138401546101a084015260148401546101c084015260158401546101e08401526016840154610200840152601784018054825181850281018501909352808352610220909401939192909190830182828015611aa257602002820191906000526020600020906000905b82829054906101000a900463ffffffff1663ffffffff1681526020019060040190602082600301049283019260010382029150808411611a655790505b50505091835250506018820154602082015260198201546040820152601a8201546060820152601b9091015460ff1615156080909101526103608101516103a08201516102c083015191975095509350905082611aff85876166c3565b611b0991906166c3565b9150509193509193565b611b1b614166565b60405133904780156108fc02916000818181858888f19350505050158015611b47573d6000803e3d6000fd5b50565b6001600160a01b037f0000000000000000000000000000000000000000000000000000000000000000163003611b9b5760405162461bcd60e51b8152600401611b92906166d6565b60405180910390fd5b7f00000000000000000000000000000000000000000000000000000000000000006001600160a01b0316611be4600080516020616a87833981519152546001600160a01b031690565b6001600160a01b031614611c0a5760405162461bcd60e51b8152600401611b9290616722565b611c13816142b7565b60408051600080825260208201909252611b47918391906142bf565b60d48181548110610bee57600080fd5b611c47614166565b60cb805460ff909216620100000262ff000019909216919091179055565b611c6d614166565b60cc55565b60c954604051630935e01b60e21b81523360048201526001600160a01b03909116906324d7806c90602401602060405180830381865afa158015611cba573d6000803e3d6000fd5b505050506040513d601f19601f82011682018060405250810190611cde919061676e565b611cfa5760405162461bcd60e51b8152600401611b929061678b565b611d04828261442a565b5050565b611d10614166565b60ff8916600081815260d860205260409020805460ff1916909117815560018101899055600281018890556003810187905560048101611d508782616805565b5060058101859055600681018490556007810183905560088101805460ff191683151517905560405160ff8b1681527f9a2f17868083013e19d4c26d2af13543606bc680c21c994d7648d3a0510164c99060200160405180910390a150505050505050505050565b611dc0614166565b60d5805460ff909216620100000262ff000019909216919091179055565b63ffffffff808216600090815260d760209081526040808320815161042081019092528054909416815260018401805493948594859485949390840191611e2490616673565b80601f0160208091040260200160405190810160405280929190818152602001828054611e5090616673565b8015611e9d5780601f10611e7257610100808354040283529160200191611e9d565b820191906000526020600020905b815481529060010190602001808311611e8057829003601f168201915b50505091835250506002820154602080830191909152600383015460ff808216151560408086019190915261010083048216151560608601526001600160a01b0362010000840416608086015263ffffffff600160b01b84041660a0860152600160d01b90920416151560c084015260048401805482518185028101850190935280835260e0909401939192909190830182828015611f8757602002820191906000526020600020906000905b82829054906101000a900463ffffffff1663ffffffff1681526020019060040190602082600301049283019260010382029150808411611f4a5790505b505050505081526020016005820180548060200260200160405190810160405280929190818152602001828054801561200b57602002820191906000526020600020906000905b82829054906101000a900463ffffffff1663ffffffff1681526020019060040190602082600301049283019260010382029150808411611fce5790505b505050505081526020016006820180548060200260200160405190810160405280929190818152602001828054801561208f57602002820191906000526020600020906000905b82829054906101000a900463ffffffff1663ffffffff16815260200190600401906020826003010492830192600103820291508084116120525790505b50505050508152602001600782018054806020026020016040519081016040528092919081815260200182805480156120e757602002820191906000526020600020905b8154815260200190600101908083116120d3575b505050918352505060088201546020808301919091526009830154604080840191909152600a8401546060840152600b8401546080840152600c84015460a0840152600d84015460c0840152600e84015460e0840152600f84015461010080850191909152601085015460ff81166101208601520463ffffffff166101408401526011840154610160840152601284015461018084015260138401546101a084015260148401546101c084015260158401546101e0840152601684015461020084015260178401805482518185028101850190935280835261022090940193919290919083018282801561222657602002820191906000526020600020906000905b82829054906101000a900463ffffffff1663ffffffff16815260200190600401906020826003010492830192600103820291508084116121e95790505b50505091835250506018820154602082015260198201546040820152601a8201546060820152601b9091015460ff1615156080909101526102e0810151610300820151610320909201519097919650945092505050565b6001600160a01b037f00000000000000000000000000000000000000000000000000000000000000001630036122c55760405162461bcd60e51b8152600401611b92906166d6565b7f00000000000000000000000000000000000000000000000000000000000000006001600160a01b031661230e600080516020616a87833981519152546001600160a01b031690565b6001600160a01b0316146123345760405162461bcd60e51b8152600401611b9290616722565b61233d826142b7565b611d04828260016142bf565b6000306001600160a01b037f000000000000000000000000000000000000000000000000000000000000000016146123e95760405162461bcd60e51b815260206004820152603860248201527f555550535570677261646561626c653a206d757374206e6f742062652063616c60448201527f6c6564207468726f7567682064656c656761746563616c6c00000000000000006064820152608401611b92565b50600080516020616a8783398151915290565b60c954604051630935e01b60e21b81523360048201526001600160a01b03909116906324d7806c90602401602060405180830381865afa158015612444573d6000803e3d6000fd5b505050506040513d601f19601f82011682018060405250810190612468919061676e565b6124845760405162461bcd60e51b8152600401611b929061678b565b60cf805463ffffffff191663ffffffff92909216919091179055565b60cc548110156124c25760405162461bcd60e51b8152600401611b92906168c5565b60cf80543391429160009163ffffffff90911690826124e0836168fc565b82546101009290920a63ffffffff8181021990931691831602179091556001600160a01b038516600090815260d660209081526040808320938516835260d7909152812092935090919061253587600361691f565b826012015483601401546125499190616936565b61255391906166c3565b90506125778287868b8b868b60cb60029054906101000a900460ff1660ff16614b36565b60d55460ff16156126c35760c954604080516344846f9d60e11b815290516000926001600160a01b031691638908df3a9160048083019260209291908290030181865afa1580156125cc573d6000803e3d6000fd5b505050506040513d601f19601f820116820180604052508101906125f09190616949565b6001600160a01b03166398c7438e8661260a600386616966565b6040516001600160e01b031960e085901b16815263ffffffff9290921660048301526024820152604481018990526064016020604051808303816000875af115801561265a573d6000803e3d6000fd5b505050506040513d601f19601f8201168201806040525081019061267e9190616988565b601784018054600181018255600091825260209091206008820401805460079092166004026101000a63ffffffff818102199093169390921691909102919091179055505b50506001908101805491820181556000908152602090206008820401805460079092166004026101000a63ffffffff81810219909316939092169190910291909117905550505050565b60c954604051630935e01b60e21b81523360048201526001600160a01b03909116906324d7806c90602401602060405180830381865afa158015612755573d6000803e3d6000fd5b505050506040513d601f19601f82011682018060405250810190612779919061676e565b6127955760405162461bcd60e51b8152600401611b929061678b565b63ffffffff8216600090815260d760205260409020610bd98183614e61565b6127bc614166565b6127c66000614ed4565b565b60ca81815481106127d857600080fd5b9060005260206000209060109182820401919006600202915054906101000a900461ffff1681565b61285b604051806101400160405280600060ff16815260200160008152602001600081526020016000815260200160608152602001600081526020016000815260200160008152602001600015158152602001606081525090565b60ff808316600090815260d8602090815260409182902082516101408101845281549094168452600181015491840191909152600281015491830191909152600381015460608301526004810180546080840191906128b990616673565b80601f01602080910402602001604051908101604052809291908181526020018280546128e590616673565b80156129325780601f1061290757610100808354040283529160200191612932565b820191906000526020600020905b81548152906001019060200180831161291557829003601f168201915b505050505081526020016005820154815260200160068201548152602001600782015481526020016008820160009054906101000a900460ff16151515158152602001600982018054806020026020016040519081016040528092919081815260200182805480156129ef57602002820191906000526020600020906000905b82829054906101000a900463ffffffff1663ffffffff16815260200190600401906020826003010492830192600103820291508084116129b25790505b5050505050815250509050919050565b600054610100900460ff1615808015612a1f5750600054600160ff909116105b80612a395750303b158015612a39575060005460ff166001145b612a9c5760405162461bcd60e51b815260206004820152602e60248201527f496e697469616c697a61626c653a20636f6e747261637420697320616c72656160448201526d191e481a5b9a5d1a585b1a5e995960921b6064820152608401611b92565b6000805460ff191660011790558015612abf576000805461ff0019166101001790555b60c980546001600160a01b03191673286d6392042b4d7180fd6d20f8d35c877681577417905560cb805461ffff19166103e8179055604080516103a08101825260648152604660208201526032918101829052606081018290526080810182905260a0810182905260c0810182905260e08101829052610100810182905261012081018290526101408101829052610160810182905261018081018290526101a081018290526101c081018290526101e08101829052610200810182905261022081018290526102408101919091526014610260820181905261028082018190526102a082018190526102c082018190526102e082018190526103008201819052610320820181905261034082018190526103608201819052610380820152612bec9060ca90601d615cef565b5060cb805462ff000019166232000017905568056bc75e2d6310000060cc5560cf8054660200000000000066ff00ff000000001990911617905560d5805461ffff191661010117905562278d0060d255612c44614f26565b612c4c614f55565b8015611b47576000805461ff0019169055604051600181527f7f26b83ff96e1f2b6a682f133852f6798a09c465da95921460cefb38474024989060200160405180910390a150565b63ffffffff8116600090815260d76020908152604091829020601701805483518184028101840190945280845260609392830182828015610b8f576000918252602091829020805463ffffffff168452908202830192909160049101808411610b52575094979650505050505050565b63ffffffff808216600090815260d760209081526040808320815161042081019092528054909416815260018401805493948594929390929084019190612d4a90616673565b80601f0160208091040260200160405190810160405280929190818152602001828054612d7690616673565b8015612dc35780601f10612d9857610100808354040283529160200191612dc3565b820191906000526020600020905b815481529060010190602001808311612da657829003601f168201915b50505091835250506002820154602080830191909152600383015460ff808216151560408086019190915261010083048216151560608601526001600160a01b0362010000840416608086015263ffffffff600160b01b84041660a0860152600160d01b90920416151560c084015260048401805482518185028101850190935280835260e0909401939192909190830182828015612ead57602002820191906000526020600020906000905b82829054906101000a900463ffffffff1663ffffffff1681526020019060040190602082600301049283019260010382029150808411612e705790505b5050505050815260200160058201805480602002602001604051908101604052809291908181526020018280548015612f3157602002820191906000526020600020906000905b82829054906101000a900463ffffffff1663ffffffff1681526020019060040190602082600301049283019260010382029150808411612ef45790505b5050505050815260200160068201805480602002602001604051908101604052809291908181526020018280548015612fb557602002820191906000526020600020906000905b82829054906101000a900463ffffffff1663ffffffff1681526020019060040190602082600301049283019260010382029150808411612f785790505b505050505081526020016007820180548060200260200160405190810160405280929190818152602001828054801561300d57602002820191906000526020600020905b815481526020019060010190808311612ff9575b505050918352505060088201546020808301919091526009830154604080840191909152600a8401546060840152600b8401546080840152600c84015460a0840152600d84015460c0840152600e84015460e0840152600f84015461010080850191909152601085015460ff81166101208601520463ffffffff166101408401526011840154610160840152601284015461018084015260138401546101a084015260148401546101c084015260158401546101e0840152601684015461020084015260178401805482518185028101850190935280835261022090940193919290919083018282801561314c57602002820191906000526020600020906000905b82829054906101000a900463ffffffff1663ffffffff168152602001906004019060208260030104928301926001038202915080841161310f5790505b50505091835250506018820154602082015260198201546040820152601a8201546060820152601b9091015460ff161515608090910152905061318e81614f7c565b60ff169392505050565b60c954604051630935e01b60e21b81523360048201526001600160a01b03909116906324d7806c90602401602060405180830381865afa1580156131e0573d6000803e3d6000fd5b505050506040513d601f19601f82011682018060405250810190613204919061676e565b6132205760405162461bcd60e51b8152600401611b929061678b565b6001600160a01b0316600090815260d660205260409020805460ff19169055565b613249614166565b60405163a9059cbb60e01b8152336004820152602481018290526001600160a01b0383169063a9059cbb906044016020604051808303816000875af1158015613296573d6000803e3d6000fd5b505050506040513d601f19601f82011682018060405250810190610bd9919061676e565b3460006132c682615030565b905060cc548110156132ea5760405162461bcd60e51b8152600401611b92906168c5565b63ffffffff8316600090815260d760205260408120339142919061330f85600361691f565b826012015483601401546133239190616936565b61332d91906166c3565b9050613352828589600089868960cb60029054906101000a900460ff1660ff16614b36565b60d55460ff161561349e5760c954604080516344846f9d60e11b815290516000926001600160a01b031691638908df3a9160048083019260209291908290030181865afa1580156133a7573d6000803e3d6000fd5b505050506040513d601f19601f820116820180604052508101906133cb9190616949565b6001600160a01b03166398c7438e896133e5600386616966565b6040516001600160e01b031960e085901b16815263ffffffff9290921660048301526024820152604481018790526064016020604051808303816000875af1158015613435573d6000803e3d6000fd5b505050506040513d601f19601f820116820180604052508101906134599190616988565b601784018054600181018255600091825260209091206008820401805460079092166004026101000a63ffffffff818102199093169390921691909102919091179055505b50505050505050565b6134af614166565b60cb805461ffff191661ffff92909216919091179055565b6134cf614166565b60d55462010000900460ff1660005b8160ff168160ff1610156137fe5760ff808216600090815260d860209081526040808320815161014081018352815490951685526001810154928501929092526002820154908401526003810154606084015260048101805492939260808401919061354990616673565b80601f016020809104026020016040519081016040528092919081815260200182805461357590616673565b80156135c25780601f10613597576101008083540402835291602001916135c2565b820191906000526020600020905b8154815290600101906020018083116135a557829003601f168201915b505050505081526020016005820154815260200160068201548152602001600782015481526020016008820160009054906101000a900460ff161515151581526020016009820180548060200260200160405190810160405280929190818152602001828054801561367f57602002820191906000526020600020906000905b82829054906101000a900463ffffffff1663ffffffff16815260200190600401906020826003010492830192600103820291508084116136425790505b505050505081525050905080610100015161369a57506137ec565b610120810151805160cb5460a084015160d05460009263ffffffff85169261ffff909116916136c9919061691f565b6136d39190616966565b6136dd9190616966565b905060005b8263ffffffff168163ffffffff1610156137e657600060d76000868463ffffffff1681518110613714576137146169a5565b602002602001015163ffffffff1663ffffffff16815260200190815260200160002090508560c0015181600e015411801561375757508060140154816012015411155b156137d3578281601201600082825461377091906166c3565b9250508190555082866000015160ff16868463ffffffff1681518110613798576137986169a5565b602002602001015163ffffffff167fdeaf5b294f5016988108257045fc779d7d01e05a4ecdc4df70f62d5a799e053b60405160405180910390a45b50806137de816168fc565b9150506136e2565b50505050505b806137f6816169bb565b9150506134de565b5050600060d0554260d155565b63ffffffff808216600090815260d76020908152604080832081516104208101909252805490941681526001840180549394859492939092908401919061385190616673565b80601f016020809104026020016040519081016040528092919081815260200182805461387d90616673565b80156138ca5780601f1061389f576101008083540402835291602001916138ca565b820191906000526020600020905b8154815290600101906020018083116138ad57829003601f168201915b50505091835250506002820154602080830191909152600383015460ff808216151560408086019190915261010083048216151560608601526001600160a01b0362010000840416608086015263ffffffff600160b01b84041660a0860152600160d01b90920416151560c084015260048401805482518185028101850190935280835260e09094019391929091908301828280156139b457602002820191906000526020600020906000905b82829054906101000a900463ffffffff1663ffffffff16815260200190600401906020826003010492830192600103820291508084116139775790505b5050505050815260200160058201805480602002602001604051908101604052809291908181526020018280548015613a3857602002820191906000526020600020906000905b82829054906101000a900463ffffffff1663ffffffff16815260200190600401906020826003010492830192600103820291508084116139fb5790505b5050505050815260200160068201805480602002602001604051908101604052809291908181526020018280548015613abc57602002820191906000526020600020906000905b82829054906101000a900463ffffffff1663ffffffff1681526020019060040190602082600301049283019260010382029150808411613a7f5790505b5050505050815260200160078201805480602002602001604051908101604052809291908181526020018280548015613b1457602002820191906000526020600020905b815481526020019060010190808311613b00575b505050918352505060088201546020808301919091526009830154604080840191909152600a8401546060840152600b8401546080840152600c84015460a0840152600d84015460c0840152600e84015460e0840152600f84015461010080850191909152601085015460ff81166101208601520463ffffffff166101408401526011840154610160840152601284015461018084015260138401546101a084015260148401546101c084015260158401546101e08401526016840154610200840152601784018054825181850281018501909352808352610220909401939192909190830182828015613c5357602002820191906000526020600020906000905b82829054906101000a900463ffffffff1663ffffffff1681526020019060040190602082600301049283019260010382029150808411613c165790505b50505091835250506018820154602082015260198201546040820152601a8201546060820152601b9091015460ff1615156080909101529050613c958161511e565b9392505050565b346000613ca882615030565b905060cc54811015613ccc5760405162461bcd60e51b8152600401611b92906168c5565b60cf80543391429160009163ffffffff9091169082613cea836168fc565b82546101009290920a63ffffffff8181021990931691831602179091556001600160a01b038516600090815260d660209081526040808320938516835260d79091528120929350909190613d3f87600361691f565b82601201548360140154613d539190616936565b613d5d91906166c3565b9050613d818287868c8b868b60cb60029054906101000a900460ff1660ff16614b36565b60d55460ff1615613ecd5760c954604080516344846f9d60e11b815290516000926001600160a01b031691638908df3a9160048083019260209291908290030181865afa158015613dd6573d6000803e3d6000fd5b505050506040513d601f19601f82011682018060405250810190613dfa9190616949565b6001600160a01b03166398c7438e86613e14600386616966565b6040516001600160e01b031960e085901b16815263ffffffff9290921660048301526024820152604481018990526064016020604051808303816000875af1158015613e64573d6000803e3d6000fd5b505050506040513d601f19601f82011682018060405250810190613e889190616988565b601784018054600181018255600091825260209091206008820401805460079092166004026101000a63ffffffff818102199093169390921691909102919091179055505b50506001908101805491820181556000908152602090206008820401805460079092166004026101000a63ffffffff8181021990931693909216919091029190911790555050505050565b613f20614166565b610bd960ca8383615d97565b613f34614166565b6001600160a01b038116613f995760405162461bcd60e51b815260206004820152602660248201527f4f776e61626c653a206e6577206f776e657220697320746865207a65726f206160448201526564647265737360d01b6064820152608401611b92565b611b4781614ed4565b63ffffffff8216600090815260d76020526040902060038101546201000090046001600160a01b031633146140195760405162461bcd60e51b815260206004820152601d60248201527f596f7520617265206e6f74206f776e6572206f6620746869732069642e0000006044820152606401611b92565b80601a015482101561406d5760405162461bcd60e51b815260206004820152601b60248201527f76616c75652067726561746572207468616e2062616c616e63652e00000000006044820152606401611b92565b8181601a0160008282546140819190616936565b909155503390506108fc614094846141c0565b6040518115909202916000818181858888f193505050501580156140bc573d6000803e3d6000fd5b50505050565b6040805180820190915260008152606060208201526001600160a01b038216600090815260d6602090815260409182902082518084018452815460ff1615158152600182018054855181860281018601909652808652919492938581019392908301828280156129ef576000918252602091829020805463ffffffff1684529082028301929091600491018084116129b25790505050505050815250509050919050565b6033546001600160a01b031633146127c65760405162461bcd60e51b815260206004820181905260248201527f4f776e61626c653a2063616c6c6572206973206e6f7420746865206f776e65726044820152606401611b92565b60008060c960009054906101000a90046001600160a01b03166001600160a01b0316632913497b6040518163ffffffff1660e01b8152600401602060405180830381865afa158015614216573d6000803e3d6000fd5b505050506040513d601f19601f8201168201806040525081019061423a9190616949565b6001600160a01b031663e1aa60366040518163ffffffff1660e01b8152600401602060405180830381865afa158015614277573d6000803e3d6000fd5b505050506040513d601f19601f8201168201806040525081019061429b91906169da565b6142ad84670de0b6b3a764000061691f565b613c959190616966565b611b47614166565b7f4910fdfa16fed3260ed0e7147f7cc6da11a60208b5b9406d12a635614ffd91435460ff16156142f257610bd98361515e565b826001600160a01b03166352d1902d6040518163ffffffff1660e01b8152600401602060405180830381865afa92505050801561434c575060408051601f3d908101601f19168201909252614349918101906169da565b60015b6143af5760405162461bcd60e51b815260206004820152602e60248201527f45524331393637557067726164653a206e657720696d706c656d656e7461746960448201526d6f6e206973206e6f74205555505360901b6064820152608401611b92565b600080516020616a87833981519152811461441e5760405162461bcd60e51b815260206004820152602960248201527f45524331393637557067726164653a20756e737570706f727465642070726f786044820152681a58589b195555525160ba1b6064820152608401611b92565b50610bd98383836151fa565b600060ca8054806020026020016040519081016040528092919081815260200182805480156144a057602002820191906000526020600020906000905b82829054906101000a900461ffff1661ffff16815260200190600201906020826001010492830192600103820291508084116144675790505b5050835163ffffffff8716600090815260d7602052604081209596509094935091508190505b8360ff168160ff161015614b1657600383015463ffffffff600160b01b9091048116600081815260d76020526040812080549293909216900361450a575050614b16565b6145138161521f565b1561458b5760405172149959995c995c881a5cc8111a5cd8589b1959606a1b81526013015b60405190819003902061454c8460016169f3565b60ff168363ffffffff167f915ed47901013ad29e90ede828f72888f54bd58cea141b0c6967498165382eb560405160405180910390a49350614b049050565b604080516104208101909152815463ffffffff1681526001820180546149fb929184916020840191906145bd90616673565b80601f01602080910402602001604051908101604052809291908181526020018280546145e990616673565b80156146365780601f1061460b57610100808354040283529160200191614636565b820191906000526020600020905b81548152906001019060200180831161461957829003601f168201915b50505091835250506002820154602080830191909152600383015460ff808216151560408086019190915261010083048216151560608601526001600160a01b0362010000840416608086015263ffffffff600160b01b84041660a0860152600160d01b90920416151560c084015260048401805482518185028101850190935280835260e090940193919290919083018282801561472057602002820191906000526020600020906000905b82829054906101000a900463ffffffff1663ffffffff16815260200190600401906020826003010492830192600103820291508084116146e35790505b50505050508152602001600582018054806020026020016040519081016040528092919081815260200182805480156147a457602002820191906000526020600020906000905b82829054906101000a900463ffffffff1663ffffffff16815260200190600401906020826003010492830192600103820291508084116147675790505b505050505081526020016006820180548060200260200160405190810160405280929190818152602001828054801561482857602002820191906000526020600020906000905b82829054906101000a900463ffffffff1663ffffffff16815260200190600401906020826003010492830192600103820291508084116147eb5790505b505050505081526020016007820180548060200260200160405190810160405280929190818152602001828054801561488057602002820191906000526020600020905b81548152602001906001019080831161486c575b505050918352505060088201546020808301919091526009830154604080840191909152600a8401546060840152600b8401546080840152600c84015460a0840152600d84015460c0840152600e84015460e0840152600f84015461010080850191909152601085015460ff81166101208601520463ffffffff166101408401526011840154610160840152601284015461018084015260138401546101a084015260148401546101c084015260158401546101e084015260168401546102008401526017840180548251818502810185019093528083526102209094019391929091908301828280156149bf57602002820191906000526020600020906000905b82829054906101000a900463ffffffff1663ffffffff16815260200190600401906020826003010492830192600103820291508084116149825790505b50505091835250506018820154602082015260198201546040820152601a8201546060820152601b9091015460ff16151560809091015261511e565b614a068460016169f3565b60ff161115614a3d576040517f446f776e6c696e65206c6576656c73206c696d697420726561636865640000008152601d01614538565b60cb54875160009161ffff1690899060ff8716908110614a5f57614a5f6169a5565b602002602001015161ffff168b614a76919061691f565b614a809190616966565b905080826016016000828254614a9691906166c3565b90915550614aa690508282614e61565b614ab081866166c3565b94508063ffffffff808516908b167ff8fb9b5ab69a0208214661678427c6b48abf457f53605d1f559d17452f1eea11614aea8860016169f3565b60405160ff909116815260200160405180910390a4509350505b80614b0e816169bb565b9150506144c6565b508060ce6000828254614b2991906166c3565b9091555050505050505050565b875463ffffffff16600003614b5957875463ffffffff191663ffffffff87161788555b600388015460ff16614b755760038801805460ff191660011790555b6003880154610100900460ff16614bd25760d480546001810182556000919091527f9780e26d96b1f2a9a18ef8fc72d589dbf03ef788137b64f43897e83a91e7feec0180546001600160a01b0319166001600160a01b0389161790555b60038801546201000090046001600160a01b0316614c0f5760038801805462010000600160b01b031916620100006001600160a01b038a16021790555b8760020154600003614c2357600288018290555b6003880154600160d01b900460ff16614c675760038801805460ff60d01b1963ffffffff8816600160b01b021664ffffffffff60b01b1990911617600160d01b1790555b60006012890155614c79600384616966565b60138901556014880183905560078801805460018101825560009182526020822001859055600889018054869290614cb29084906166c3565b9091555050601588018290556040805160008152602081019182905251614cdd9160178b0191615e02565b5060005b818160ff161015614e5657600389015463ffffffff600160b01b9091048116600081815260d760205260408120805492939092169003614d22575050614e56565b8260ff16600003614d84578681600a016000828254614d4191906166c3565b909155505060048181018054600181018255600091825260209091206008820401805460079092169092026101000a63ffffffff81810219909216918c16021790555b8681600c016000828254614d9891906166c3565b909155505063ffffffff881615614e18576005810180546001810182556000918252602082206008820401805460079092166004026101000a63ffffffff818102199093168d841691820217909155835460405190831693928c16927f3ec54e926fe5dd86406fe57832ff318517aed2a5cfbeacfb90a5e9489483ae4b91a45b60cf54640100000000900460ff1615614e3657614e3681888761539e565b614e408786615acd565b9950819050614e4e816169bb565b915050614ce1565b505050505050505050565b8160140154818360120154614e7691906166c3565b10614eb357601482015460128301819055614e919080616936565b82601a016000828254614ea491906166c3565b90915550611d04905082615b07565b808260120154614ec391906166c3565b508082601a0154610bd991906166c3565b603380546001600160a01b038381166001600160a01b0319831681179093556040519116919082907f8be0079c531659141344cd1fd0a4f28419497f9722a3daafe3b4186f6b6457e090600090a35050565b600054610100900460ff16614f4d5760405162461bcd60e51b8152600401611b9290616a0c565b6127c6615b4b565b600054610100900460ff166127c65760405162461bcd60e51b8152600401611b9290616a0c565b60d55460009062010000900460ff16815b8160ff168160ff1610156150295760ff8116600090815260d8602052604090206001015461018085015110801590614fdf575060ff8116600090815260d860205260409020600201546101c085015110155b8015615005575060ff8116600090815260d8602052604090206003015461020085015110155b1561501257809250615017565b615029565b80615021816169bb565b915050614f8d565b5050919050565b600080670de0b6b3a764000060c960009054906101000a90046001600160a01b03166001600160a01b0316632913497b6040518163ffffffff1660e01b8152600401602060405180830381865afa15801561508f573d6000803e3d6000fd5b505050506040513d601f19601f820116820180604052508101906150b39190616949565b6001600160a01b031663e1aa60366040518163ffffffff1660e01b8152600401602060405180830381865afa1580156150f0573d6000803e3d6000fd5b505050506040513d601f19601f8201168201806040525081019061511491906169da565b6142ad908561691f565b61010081015151600090818115613c955760cf5460019061514c906601000000000000900460ff168461691f565b6151569190616936565b949350505050565b6001600160a01b0381163b6151cb5760405162461bcd60e51b815260206004820152602d60248201527f455243313936373a206e657720696d706c656d656e746174696f6e206973206e60448201526c1bdd08184818dbdb9d1c9858dd609a1b6064820152608401611b92565b600080516020616a8783398151915280546001600160a01b0319166001600160a01b0392909216919091179055565b61520383615b7b565b6000825111806152105750805b15610bd9576140bc8383615bbb565b600381015460009060ff16158061523e57508160140154826012015410155b1561524b57506001919050565b601782015415801590615389575060c960009054906101000a90046001600160a01b03166001600160a01b0316638908df3a6040518163ffffffff1660e01b8152600401602060405180830381865afa1580156152ac573d6000803e3d6000fd5b505050506040513d601f19601f820116820180604052508101906152d09190616949565b6001600160a01b03166355332a8583601701600185601701805490506152f69190616936565b81548110615306576153066169a5565b6000918252602090912060088204015460405160e084901b6001600160e01b0319168152600790921660049081026101000a90910463ffffffff1690820152602401602060405180830381865afa158015615365573d6000803e3d6000fd5b505050506040513d601f19601f82011682018060405250810190615389919061676e565b1561539657506001919050565b506000919050565b6010830154604080516104208101909152845463ffffffff16815260018501805460ff90931692615819929187916020840191906153db90616673565b80601f016020809104026020016040519081016040528092919081815260200182805461540790616673565b80156154545780601f1061542957610100808354040283529160200191615454565b820191906000526020600020905b81548152906001019060200180831161543757829003601f168201915b50505091835250506002820154602080830191909152600383015460ff808216151560408086019190915261010083048216151560608601526001600160a01b0362010000840416608086015263ffffffff600160b01b84041660a0860152600160d01b90920416151560c084015260048401805482518185028101850190935280835260e090940193919290919083018282801561553e57602002820191906000526020600020906000905b82829054906101000a900463ffffffff1663ffffffff16815260200190600401906020826003010492830192600103820291508084116155015790505b50505050508152602001600582018054806020026020016040519081016040528092919081815260200182805480156155c257602002820191906000526020600020906000905b82829054906101000a900463ffffffff1663ffffffff16815260200190600401906020826003010492830192600103820291508084116155855790505b505050505081526020016006820180548060200260200160405190810160405280929190818152602001828054801561564657602002820191906000526020600020906000905b82829054906101000a900463ffffffff1663ffffffff16815260200190600401906020826003010492830192600103820291508084116156095790505b505050505081526020016007820180548060200260200160405190810160405280929190818152602001828054801561569e57602002820191906000526020600020905b81548152602001906001019080831161568a575b505050918352505060088201546020808301919091526009830154604080840191909152600a8401546060840152600b8401546080840152600c84015460a0840152600d84015460c0840152600e84015460e0840152600f84015461010080850191909152601085015460ff81166101208601520463ffffffff166101408401526011840154610160840152601284015461018084015260138401546101a084015260148401546101c084015260158401546101e084015260168401546102008401526017840180548251818502810185019093528083526102209094019391929091908301828280156157dd57602002820191906000526020600020906000905b82829054906101000a900463ffffffff1663ffffffff16815260200190600401906020826003010492830192600103820291508084116157a05790505b50505091835250506018820154602082015260198201546040820152601a8201546060820152601b9091015460ff161515608090910152614f7c565b60ff161115610bd957604080516104208101909152835463ffffffff168152600184018054615854929186916020840191906153db90616673565b60108401805460ff191660ff9283169081178255600090815260d860209081526040808320885460099182018054600181810183559187529486206008860401805463ffffffff60079097166004026101000a87810219909116969093169092029490941790559354909416825292902001546158d19190616936565b60108401805464ffffffff0019811661010063ffffffff948516810291821793849055875460408051918716825291909404909416602084015260ff918216911617918101919091527f4d3af8f60ffd033b575846f894122f2342b39bc9a90da98d0a966128702b568d9060600160405180910390a1604080516104208101909152835463ffffffff16815260018401805460d89260009261597d92889160208401916153db90616673565b60ff90811682526020820192909252604001600020600801541615615a3c57604080516104208101909152835463ffffffff16815260018401805460d8926000926159d292889160208401916153db90616673565b60ff1660ff1681526020019081526020016000206007015483600f01546159f991906166c3565b811115615a28578083600f01819055508183600e016000828254615a1d91906166c3565b90915550610bd99050565b8183600e016000828254615a1d91906166c3565b60cf54640100000000900460ff1615610bd957601083015460ff16600090815260d86020526040902060050154615a74908490614e61565b601083015460ff908116600090815260d8602052604080822060058101549054875492519194169263ffffffff909216917fdeaf5b294f5016988108257045fc779d7d01e05a4ecdc4df70f62d5a799e053b91a4505050565b60d25460d154615add91906166c3565b811115615aec5760d15560d055565b8160d06000828254615afe91906166c3565b90915550505050565b60038101805460ff191690556040805160008152602081019182905251615b32916017840191615e02565b5060006012820181905560138201819055601490910155565b600054610100900460ff16615b725760405162461bcd60e51b8152600401611b9290616a0c565b6127c633614ed4565b615b848161515e565b6040516001600160a01b038216907fbc7cd75a20ee27fd9adebab32041f755214dbc6bffa90cc0225b39da2e5c2d3b90600090a250565b60606001600160a01b0383163b615c235760405162461bcd60e51b815260206004820152602660248201527f416464726573733a2064656c65676174652063616c6c20746f206e6f6e2d636f6044820152651b9d1c9858dd60d21b6064820152608401611b92565b600080846001600160a01b031684604051615c3e9190616a57565b600060405180830381855af49150503d8060008114615c79576040519150601f19603f3d011682016040523d82523d6000602084013e615c7e565b606091505b5091509150615ca68282604051806060016040528060278152602001616aa760279139615cb1565b925050505b92915050565b60608315615cc0575081613c95565b613c958383815115615cd55781518083602001fd5b8060405162461bcd60e51b8152600401611b929190616a73565b82805482825590600052602060002090600f01601090048101928215615d875791602002820160005b83821115615d5757835183826101000a81548161ffff021916908360ff1602179055509260200192600201602081600101049283019260010302615d18565b8015615d855782816101000a81549061ffff0219169055600201602081600101049283019260010302615d57565b505b50615d93929150615e9f565b5090565b82805482825590600052602060002090600f01601090048101928215615d875791602002820160005b83821115615d5757833560ff1683826101000a81548161ffff021916908360ff1602179055509260200192600201602081600101049283019260010302615dc0565b82805482825590600052602060002090600701600890048101928215615d875791602002820160005b83821115615e6f57835183826101000a81548163ffffffff021916908363ffffffff1602179055509260200192600401602081600301049283019260010302615e2b565b8015615d855782816101000a81549063ffffffff0219169055600401602081600301049283019260010302615e6f565b5b80821115615d935760008155600101615ea0565b803560ff81168114615ec557600080fd5b919050565b600060208284031215615edc57600080fd5b613c9582615eb4565b600081518084526020808501945080840160005b83811015615f1b57815163ffffffff1687529582019590820190600101615ef9565b509495945050505050565b602081526000613c956020830184615ee5565b6001600160a01b0381168114611b4757600080fd5b60008060408385031215615f6157600080fd5b8235615f6c81615f39565b946020939093013593505050565b600060208284031215615f8c57600080fd5b5035919050565b63ffffffff81168114611b4757600080fd5b600060208284031215615fb757600080fd5b8135613c9581615f93565b606081526000615fd56060830186615ee5565b8281036020840152615fe78186615ee5565b915050826040830152949350505050565b60005b83811015616013578181015183820152602001615ffb565b50506000910152565b60008151808452616034816020860160208601615ff8565b601f01601f19169290920160200192915050565b600081518084526020808501945080840160005b83811015615f1b5781518752958201959082019060010161605c565b6020815261608f60208201835163ffffffff169052565b600060208301516104208060408501526160ad61044085018361601c565b91506040850151606085015260608501516160cc608086018215159052565b50608085015180151560a08601525060a08501516001600160a01b03811660c08601525060c085015163ffffffff811660e08601525060e08501516101006161178187018315159052565b80870151915050601f196101208187860301818801526161378584615ee5565b9450808801519250506101408187860301818801526161568584615ee5565b9450808801519250506101608187860301818801526161758584615ee5565b9450808801519250506101808187860301818801526161948584616048565b908801516101a0888101919091528801516101c0808901919091528801516101e080890191909152880151610200808901919091528801516102208089019190915288015161024080890191909152880151610260808901919091528801516102808089019190915288015190945091506102a06162168188018460ff169052565b87015191506102c061622f8782018463ffffffff169052565b8701516102e087810191909152870151610300808801919091528701516103208088019190915287015161034080880191909152870151610360808801919091528701516103808088019190915287015186850382016103a08089019190915290925061629c8584615ee5565b908801516103c0888101919091528801516103e080890191909152880151610400808901919091528801518015158589015290945091506162da9050565b5090949350505050565b6000602082840312156162f657600080fd5b8135613c9581615f39565b6000806040838503121561631457600080fd5b82359150602083013561632681615f93565b809150509250929050565b634e487b7160e01b600052604160045260246000fd5b600067ffffffffffffffff8084111561636257616362616331565b604051601f8501601f19908116603f0116810190828211818310171561638a5761638a616331565b816040528093508581528686860111156163a357600080fd5b858560208301376000602087830101525050509392505050565b8015158114611b4757600080fd5b8035615ec5816163bd565b60008060008060008060008060006101208a8c0312156163f557600080fd5b6163fe8a615eb4565b985060208a0135975060408a0135965060608a0135955060808a013567ffffffffffffffff81111561642f57600080fd5b8a01601f81018c1361644057600080fd5b61644f8c823560208401616347565b95505060a08a0135935060c08a0135925060e08a013591506164746101008b016163cb565b90509295985092959850929598565b6000806040838503121561649657600080fd5b82356164a181615f39565b9150602083013567ffffffffffffffff8111156164bd57600080fd5b8301601f810185136164ce57600080fd5b6164dd85823560208401616347565b9150509250929050565b600080604083850312156164fa57600080fd5b8235615f6c81615f93565b6020815261651960208201835160ff169052565b602082015160408201526040820151606082015260608201516080820152600060808301516101408060a085015261655561016085018361601c565b915060a085015160c085015260c085015160e085015260e085015161010081818701528087015191505061012061658f8187018315159052565b860151858403601f19018387015290506165a98382615ee5565b9695505050505050565b6000602082840312156165c557600080fd5b813561ffff81168114613c9557600080fd5b600080602083850312156165ea57600080fd5b823567ffffffffffffffff8082111561660257600080fd5b818501915085601f83011261661657600080fd5b81358181111561662557600080fd5b8660208260051b850101111561663a57600080fd5b60209290920196919550909350505050565b60208152815115156020820152600060208301516040808401526151566060840182615ee5565b600181811c9082168061668757607f821691505b6020821081036166a757634e487b7160e01b600052602260045260246000fd5b50919050565b634e487b7160e01b600052601160045260246000fd5b80820180821115615cab57615cab6166ad565b6020808252602c908201527f46756e6374696f6e206d7573742062652063616c6c6564207468726f7567682060408201526b19195b1959d85d1958d85b1b60a21b606082015260800190565b6020808252602c908201527f46756e6374696f6e206d7573742062652063616c6c6564207468726f7567682060408201526b6163746976652070726f787960a01b606082015260800190565b60006020828403121561678057600080fd5b8151613c95816163bd565b6020808252601290820152712cb7ba9030b932903737ba1030b236b4b71760711b604082015260600190565b601f821115610bd957600081815260208120601f850160051c810160208610156167de5750805b601f850160051c820191505b818110156167fd578281556001016167ea565b505050505050565b815167ffffffffffffffff81111561681f5761681f616331565b6168338161682d8454616673565b846167b7565b602080601f83116001811461686857600084156168505750858301515b600019600386901b1c1916600185901b1785556167fd565b600085815260208120601f198616915b8281101561689757888601518255948401946001909101908401616878565b50858210156168b55787850151600019600388901b60f8161c191681555b5050505050600190811b01905550565b6020808252601f908201527f56616c7565206c657373207468656e206d696e436f6e747269627574696f6e00604082015260600190565b600063ffffffff808316818103616915576169156166ad565b6001019392505050565b8082028115828204841417615cab57615cab6166ad565b81810381811115615cab57615cab6166ad565b60006020828403121561695b57600080fd5b8151613c9581615f39565b60008261698357634e487b7160e01b600052601260045260246000fd5b500490565b60006020828403121561699a57600080fd5b8151613c9581615f93565b634e487b7160e01b600052603260045260246000fd5b600060ff821660ff81036169d1576169d16166ad565b60010192915050565b6000602082840312156169ec57600080fd5b5051919050565b60ff8181168382160190811115615cab57615cab6166ad565b6020808252602b908201527f496e697469616c697a61626c653a20636f6e7472616374206973206e6f74206960408201526a6e697469616c697a696e6760a81b606082015260800190565b60008251616a69818460208701615ff8565b9190910192915050565b602081526000613c95602083018461601c56fe360894a13ba1a3210667c828492db98dca3e2076cc3735a920a3ca505d382bbc416464726573733a206c6f772d6c6576656c2064656c65676174652063616c6c206661696c6564a264697066735822122096f8c2696be48cb0fff4f07cc9f8292f92b790483cff90d18756651f4c64fbcf64736f6c63430008110033",
  "linkReferences": {},
  "deployedLinkReferences": {}
}