{
  "_format": "hh-sol-artifact-1",
  "contractName": "ReferralV4Upgradeable",
  "sourceName": "contracts/ReferralV4Upgradeable.sol",
  "abi": [
    {
      "anonymous": false,
      "inputs": [
        {
          "indexed": false,
          "internalType": "uint32",
          "name": "id",
          "type": "uint32"
        }
      ],
      "name": "ActivatedId",
      "type": "event"
    },
    {
      "anonymous": false,
      "inputs": [
        {
          "indexed": false,
          "internalType": "uint32",
          "name": "id",
          "type": "uint32"
        },
        {
          "indexed": false,
          "internalType": "uint32",
          "name": "index",
          "type": "uint32"
        },
        {
          "indexed": false,
          "internalType": "uint8",
          "name": "rank",
          "type": "uint8"
        }
      ],
      "name": "AddedInRoyaltyClubList",
      "type": "event"
    },
    {
      "anonymous": false,
      "inputs": [
        {
          "indexed": false,
          "internalType": "address",
          "name": "previousAdmin",
          "type": "address"
        },
        {
          "indexed": false,
          "internalType": "address",
          "name": "newAdmin",
          "type": "address"
        }
      ],
      "name": "AdminChanged",
      "type": "event"
    },
    {
      "anonymous": false,
      "inputs": [
        {
          "indexed": true,
          "internalType": "address",
          "name": "beacon",
          "type": "address"
        }
      ],
      "name": "BeaconUpgraded",
      "type": "event"
    },
    {
      "anonymous": false,
      "inputs": [
        {
          "indexed": false,
          "internalType": "uint32",
          "name": "id",
          "type": "uint32"
        },
        {
          "indexed": false,
          "internalType": "string",
          "name": "reason",
          "type": "string"
        }
      ],
      "name": "DeactivatedId",
      "type": "event"
    },
    {
      "anonymous": false,
      "inputs": [
        {
          "indexed": false,
          "internalType": "uint8",
          "name": "version",
          "type": "uint8"
        }
      ],
      "name": "Initialized",
      "type": "event"
    },
    {
      "anonymous": false,
      "inputs": [
        {
          "indexed": false,
          "internalType": "uint32",
          "name": "id",
          "type": "uint32"
        },
        {
          "indexed": false,
          "internalType": "address",
          "name": "owner",
          "type": "address"
        }
      ],
      "name": "OwnerChangedId",
      "type": "event"
    },
    {
      "anonymous": false,
      "inputs": [
        {
          "indexed": true,
          "internalType": "address",
          "name": "previousOwner",
          "type": "address"
        },
        {
          "indexed": true,
          "internalType": "address",
          "name": "newOwner",
          "type": "address"
        }
      ],
      "name": "OwnershipTransferred",
      "type": "event"
    },
    {
      "anonymous": false,
      "inputs": [
        {
          "indexed": false,
          "internalType": "uint8",
          "name": "packageId",
          "type": "uint8"
        }
      ],
      "name": "PackageAdded",
      "type": "event"
    },
    {
      "anonymous": false,
      "inputs": [
        {
          "indexed": false,
          "internalType": "uint8",
          "name": "packageId",
          "type": "uint8"
        }
      ],
      "name": "PackageRemoved",
      "type": "event"
    },
    {
      "anonymous": false,
      "inputs": [
        {
          "indexed": false,
          "internalType": "uint8",
          "name": "packageId",
          "type": "uint8"
        }
      ],
      "name": "PackageUpdated",
      "type": "event"
    },
    {
      "anonymous": false,
      "inputs": [
        {
          "indexed": true,
          "internalType": "uint32",
          "name": "refererId",
          "type": "uint32"
        },
        {
          "indexed": true,
          "internalType": "uint8",
          "name": "level",
          "type": "uint8"
        },
        {
          "indexed": true,
          "internalType": "string",
          "name": "reason",
          "type": "string"
        }
      ],
      "name": "ReferralNotPaid",
      "type": "event"
    },
    {
      "anonymous": false,
      "inputs": [
        {
          "indexed": true,
          "internalType": "uint32",
          "name": "refereeId",
          "type": "uint32"
        },
        {
          "indexed": true,
          "internalType": "uint32",
          "name": "referrerId",
          "type": "uint32"
        },
        {
          "indexed": true,
          "internalType": "uint256",
          "name": "amount",
          "type": "uint256"
        },
        {
          "indexed": false,
          "internalType": "uint8",
          "name": "level",
          "type": "uint8"
        }
      ],
      "name": "ReferralRewardPaid",
      "type": "event"
    },
    {
      "anonymous": false,
      "inputs": [
        {
          "indexed": true,
          "internalType": "address",
          "name": "refereeId",
          "type": "address"
        },
        {
          "indexed": true,
          "internalType": "address",
          "name": "referrerId",
          "type": "address"
        },
        {
          "indexed": true,
          "internalType": "string",
          "name": "reason",
          "type": "string"
        }
      ],
      "name": "RegisterRefererFailed",
      "type": "event"
    },
    {
      "anonymous": false,
      "inputs": [
        {
          "indexed": true,
          "internalType": "uint32",
          "name": "id",
          "type": "uint32"
        },
        {
          "indexed": true,
          "internalType": "uint32",
          "name": "refererId",
          "type": "uint32"
        }
      ],
      "name": "RegisteredReferer",
      "type": "event"
    },
    {
      "anonymous": false,
      "inputs": [
        {
          "indexed": true,
          "internalType": "uint32",
          "name": "refereeId",
          "type": "uint32"
        },
        {
          "indexed": true,
          "internalType": "uint32",
          "name": "referrerId",
          "type": "uint32"
        },
        {
          "indexed": true,
          "internalType": "uint32",
          "name": "parentAccountId",
          "type": "uint32"
        }
      ],
      "name": "RegisteredTeamAddress",
      "type": "event"
    },
    {
      "anonymous": false,
      "inputs": [
        {
          "indexed": true,
          "internalType": "uint32",
          "name": "userid",
          "type": "uint32"
        },
        {
          "indexed": true,
          "internalType": "uint8",
          "name": "packageId",
          "type": "uint8"
        },
        {
          "indexed": true,
          "internalType": "uint256",
          "name": "amount",
          "type": "uint256"
        }
      ],
      "name": "RoyaltyClubBonusPaid",
      "type": "event"
    },
    {
      "anonymous": false,
      "inputs": [
        {
          "indexed": true,
          "internalType": "address",
          "name": "implementation",
          "type": "address"
        }
      ],
      "name": "Upgraded",
      "type": "event"
    },
    {
      "inputs": [
        {
          "internalType": "uint32",
          "name": "_refererId",
          "type": "uint32"
        }
      ],
      "name": "activateId",
      "outputs": [],
      "stateMutability": "payable",
      "type": "function"
    },
    {
      "inputs": [
        {
          "internalType": "uint32",
          "name": "_id",
          "type": "uint32"
        },
        {
          "internalType": "uint256",
          "name": "_valueInUSD",
          "type": "uint256"
        }
      ],
      "name": "claimBalance",
      "outputs": [],
      "stateMutability": "nonpayable",
      "type": "function"
    },
    {
      "inputs": [],
      "name": "companyTurnoverTimeLimit",
      "outputs": [
        {
          "internalType": "uint256",
          "name": "",
          "type": "uint256"
        }
      ],
      "stateMutability": "view",
      "type": "function"
    },
    {
      "inputs": [],
      "name": "companyTurnoverTimeStamp",
      "outputs": [
        {
          "internalType": "uint256",
          "name": "",
          "type": "uint256"
        }
      ],
      "stateMutability": "view",
      "type": "function"
    },
    {
      "inputs": [],
      "name": "companyTurnoverWithTimeLimit",
      "outputs": [
        {
          "internalType": "uint256",
          "name": "",
          "type": "uint256"
        }
      ],
      "stateMutability": "view",
      "type": "function"
    },
    {
      "inputs": [],
      "name": "decimals",
      "outputs": [
        {
          "internalType": "uint16",
          "name": "",
          "type": "uint16"
        }
      ],
      "stateMutability": "view",
      "type": "function"
    },
    {
      "inputs": [
        {
          "internalType": "address",
          "name": "_userAddress",
          "type": "address"
        }
      ],
      "name": "disableUserAdmin",
      "outputs": [],
      "stateMutability": "nonpayable",
      "type": "function"
    },
    {
      "inputs": [
        {
          "internalType": "uint256",
          "name": "",
          "type": "uint256"
        }
      ],
      "name": "disabledUsersList",
      "outputs": [
        {
          "internalType": "address",
          "name": "",
          "type": "address"
        }
      ],
      "stateMutability": "view",
      "type": "function"
    },
    {
      "inputs": [],
      "name": "futureScureWalletContribution",
      "outputs": [
        {
          "internalType": "uint8",
          "name": "",
          "type": "uint8"
        }
      ],
      "stateMutability": "view",
      "type": "function"
    },
    {
      "inputs": [
        {
          "internalType": "uint8",
          "name": "_packageId",
          "type": "uint8"
        }
      ],
      "name": "getAchieversList",
      "outputs": [
        {
          "internalType": "uint32[]",
          "name": "",
          "type": "uint32[]"
        }
      ],
      "stateMutability": "view",
      "type": "function"
    },
    {
      "inputs": [
        {
          "internalType": "uint32",
          "name": "_id",
          "type": "uint32"
        }
      ],
      "name": "getIdAccount",
      "outputs": [
        {
          "components": [
            {
              "internalType": "uint32",
              "name": "id",
              "type": "uint32"
            },
            {
              "internalType": "string",
              "name": "oldId",
              "type": "string"
            },
            {
              "internalType": "uint256",
              "name": "joiningTime",
              "type": "uint256"
            },
            {
              "internalType": "bool",
              "name": "isAddedToUserList",
              "type": "bool"
            },
            {
              "internalType": "address",
              "name": "owner",
              "type": "address"
            },
            {
              "internalType": "uint32",
              "name": "refererId",
              "type": "uint32"
            },
            {
              "internalType": "bool",
              "name": "hasUpline",
              "type": "bool"
            },
            {
              "internalType": "uint32[]",
              "name": "refereeIds",
              "type": "uint32[]"
            },
            {
              "internalType": "uint32[]",
              "name": "teamIds",
              "type": "uint32[]"
            },
            {
              "internalType": "uint32[]",
              "name": "teamLevel",
              "type": "uint32[]"
            },
            {
              "internalType": "uint256[]",
              "name": "selfBusinessArray",
              "type": "uint256[]"
            },
            {
              "internalType": "uint256",
              "name": "selfBusiness",
              "type": "uint256"
            },
            {
              "internalType": "uint256",
              "name": "selfBusinessOld",
              "type": "uint256"
            },
            {
              "internalType": "uint256",
              "name": "directBusiness",
              "type": "uint256"
            },
            {
              "internalType": "uint256",
              "name": "directBusinessOld",
              "type": "uint256"
            },
            {
              "internalType": "uint256",
              "name": "teamBusiness",
              "type": "uint256"
            },
            {
              "internalType": "uint256",
              "name": "teamBusinessOld",
              "type": "uint256"
            },
            {
              "internalType": "uint256",
              "name": "royaltyClubBusiness",
              "type": "uint256"
            },
            {
              "internalType": "uint256",
              "name": "timeStampRoyaltyClub",
              "type": "uint256"
            },
            {
              "internalType": "uint8",
              "name": "royaltyClubPackageId",
              "type": "uint8"
            },
            {
              "internalType": "uint32",
              "name": "royaltyClubListIndex",
              "type": "uint32"
            },
            {
              "internalType": "uint256",
              "name": "royaltyClubRewardPaid",
              "type": "uint256"
            },
            {
              "internalType": "uint256",
              "name": "topUpIncome",
              "type": "uint256"
            },
            {
              "internalType": "uint256",
              "name": "topUp",
              "type": "uint256"
            },
            {
              "internalType": "uint256",
              "name": "maxLimit",
              "type": "uint256"
            },
            {
              "internalType": "uint256",
              "name": "activationTime",
              "type": "uint256"
            },
            {
              "internalType": "uint256",
              "name": "deactivationTime",
              "type": "uint256"
            },
            {
              "internalType": "uint256",
              "name": "referralPaid",
              "type": "uint256"
            },
            {
              "internalType": "uint32[]",
              "name": "roiIds",
              "type": "uint32[]"
            },
            {
              "internalType": "uint256",
              "name": "roiPaid",
              "type": "uint256"
            },
            {
              "internalType": "uint256",
              "name": "roiClaimedTime",
              "type": "uint256"
            },
            {
              "internalType": "uint256",
              "name": "walletBalance",
              "type": "uint256"
            },
            {
              "internalType": "bool",
              "name": "isActive",
              "type": "bool"
            },
            {
              "internalType": "bool",
              "name": "isROIDisabled",
              "type": "bool"
            },
            {
              "internalType": "bool",
              "name": "isIdVisibilityDisabled",
              "type": "bool"
            },
            {
              "internalType": "bool",
              "name": "canWindraw",
              "type": "bool"
            }
          ],
          "internalType": "struct ReferralV4Upgradeable.StructId",
          "name": "",
          "type": "tuple"
        }
      ],
      "stateMutability": "view",
      "type": "function"
    },
    {
      "inputs": [
        {
          "internalType": "uint32",
          "name": "_id",
          "type": "uint32"
        }
      ],
      "name": "getIdLimits",
      "outputs": [
        {
          "internalType": "uint256",
          "name": "topUpIncome",
          "type": "uint256"
        },
        {
          "internalType": "uint256",
          "name": "topUp",
          "type": "uint256"
        },
        {
          "internalType": "uint256",
          "name": "maxLimit",
          "type": "uint256"
        }
      ],
      "stateMutability": "view",
      "type": "function"
    },
    {
      "inputs": [
        {
          "internalType": "uint32",
          "name": "_id",
          "type": "uint32"
        }
      ],
      "name": "getIdRoyaltyClubLevel",
      "outputs": [
        {
          "internalType": "uint256",
          "name": "",
          "type": "uint256"
        }
      ],
      "stateMutability": "view",
      "type": "function"
    },
    {
      "inputs": [],
      "name": "getMinContributionETH",
      "outputs": [
        {
          "internalType": "uint256",
          "name": "",
          "type": "uint256"
        }
      ],
      "stateMutability": "view",
      "type": "function"
    },
    {
      "inputs": [
        {
          "internalType": "uint8",
          "name": "_packageId",
          "type": "uint8"
        }
      ],
      "name": "getRoyaltyClubPackageInfo",
      "outputs": [
        {
          "components": [
            {
              "internalType": "uint8",
              "name": "packageId",
              "type": "uint8"
            },
            {
              "internalType": "uint256",
              "name": "selfBusiness",
              "type": "uint256"
            },
            {
              "internalType": "uint256",
              "name": "directBusiness",
              "type": "uint256"
            },
            {
              "internalType": "uint256",
              "name": "teamBusiness",
              "type": "uint256"
            },
            {
              "internalType": "string",
              "name": "rankName",
              "type": "string"
            },
            {
              "internalType": "uint256",
              "name": "reward",
              "type": "uint256"
            },
            {
              "internalType": "uint256",
              "name": "businessLimit",
              "type": "uint256"
            },
            {
              "internalType": "uint256",
              "name": "timeLimit",
              "type": "uint256"
            },
            {
              "internalType": "bool",
              "name": "isPayReccursive",
              "type": "bool"
            },
            {
              "internalType": "uint32[]",
              "name": "achieversList",
              "type": "uint32[]"
            }
          ],
          "internalType": "struct ReferralV4Upgradeable.StructPackages",
          "name": "",
          "type": "tuple"
        }
      ],
      "stateMutability": "view",
      "type": "function"
    },
    {
      "inputs": [
        {
          "internalType": "address",
          "name": "_address",
          "type": "address"
        }
      ],
      "name": "getUserAccount",
      "outputs": [
        {
          "components": [
            {
              "internalType": "bool",
              "name": "isActive",
              "type": "bool"
            },
            {
              "internalType": "uint32[]",
              "name": "accountIds",
              "type": "uint32[]"
            },
            {
              "internalType": "string",
              "name": "userName",
              "type": "string"
            }
          ],
          "internalType": "struct ReferralV4Upgradeable.StructAccount",
          "name": "",
          "type": "tuple"
        }
      ],
      "stateMutability": "view",
      "type": "function"
    },
    {
      "inputs": [
        {
          "internalType": "uint32",
          "name": "_id",
          "type": "uint32"
        }
      ],
      "name": "getUserUnlockCount",
      "outputs": [
        {
          "internalType": "uint256",
          "name": "",
          "type": "uint256"
        }
      ],
      "stateMutability": "view",
      "type": "function"
    },
    {
      "inputs": [
        {
          "internalType": "uint32",
          "name": "_id",
          "type": "uint32"
        },
        {
          "internalType": "uint256",
          "name": "_value",
          "type": "uint256"
        }
      ],
      "name": "increaseIdTopIncome",
      "outputs": [],
      "stateMutability": "nonpayable",
      "type": "function"
    },
    {
      "inputs": [],
      "name": "initialize",
      "outputs": [],
      "stateMutability": "nonpayable",
      "type": "function"
    },
    {
      "inputs": [],
      "name": "isActivateROI",
      "outputs": [
        {
          "internalType": "bool",
          "name": "",
          "type": "bool"
        }
      ],
      "stateMutability": "view",
      "type": "function"
    },
    {
      "inputs": [],
      "name": "isPayReferral",
      "outputs": [
        {
          "internalType": "bool",
          "name": "",
          "type": "bool"
        }
      ],
      "stateMutability": "view",
      "type": "function"
    },
    {
      "inputs": [],
      "name": "isPayRoyaltyClubBonus",
      "outputs": [
        {
          "internalType": "bool",
          "name": "",
          "type": "bool"
        }
      ],
      "stateMutability": "view",
      "type": "function"
    },
    {
      "inputs": [
        {
          "internalType": "address",
          "name": "_userAddress",
          "type": "address"
        }
      ],
      "name": "isUserDisabledByAdmin",
      "outputs": [
        {
          "internalType": "bool",
          "name": "",
          "type": "bool"
        }
      ],
      "stateMutability": "view",
      "type": "function"
    },
    {
      "inputs": [
        {
          "internalType": "uint256",
          "name": "",
          "type": "uint256"
        }
      ],
      "name": "levelRates",
      "outputs": [
        {
          "internalType": "uint16",
          "name": "",
          "type": "uint16"
        }
      ],
      "stateMutability": "view",
      "type": "function"
    },
    {
      "inputs": [],
      "name": "maxLevels",
      "outputs": [
        {
          "internalType": "uint8",
          "name": "",
          "type": "uint8"
        }
      ],
      "stateMutability": "view",
      "type": "function"
    },
    {
      "inputs": [],
      "name": "minContributionUSD",
      "outputs": [
        {
          "internalType": "uint256",
          "name": "",
          "type": "uint256"
        }
      ],
      "stateMutability": "view",
      "type": "function"
    },
    {
      "inputs": [],
      "name": "owner",
      "outputs": [
        {
          "internalType": "address",
          "name": "",
          "type": "address"
        }
      ],
      "stateMutability": "view",
      "type": "function"
    },
    {
      "inputs": [],
      "name": "packagesCount",
      "outputs": [
        {
          "internalType": "uint8",
          "name": "",
          "type": "uint8"
        }
      ],
      "stateMutability": "view",
      "type": "function"
    },
    {
      "inputs": [
        {
          "internalType": "uint256",
          "name": "_value",
          "type": "uint256"
        },
        {
          "internalType": "uint32",
          "name": "_id",
          "type": "uint32"
        }
      ],
      "name": "payReferralAdmin",
      "outputs": [],
      "stateMutability": "nonpayable",
      "type": "function"
    },
    {
      "inputs": [],
      "name": "proxiableUUID",
      "outputs": [
        {
          "internalType": "bytes32",
          "name": "",
          "type": "bytes32"
        }
      ],
      "stateMutability": "view",
      "type": "function"
    },
    {
      "inputs": [],
      "name": "renounceOwnership",
      "outputs": [],
      "stateMutability": "nonpayable",
      "type": "function"
    },
    {
      "inputs": [],
      "name": "royaltyClubPackageCount",
      "outputs": [
        {
          "internalType": "uint8",
          "name": "",
          "type": "uint8"
        }
      ],
      "stateMutability": "view",
      "type": "function"
    },
    {
      "inputs": [
        {
          "internalType": "address",
          "name": "_address",
          "type": "address"
        },
        {
          "internalType": "uint256",
          "name": "_value",
          "type": "uint256"
        }
      ],
      "name": "sendETHAdmin",
      "outputs": [],
      "stateMutability": "nonpayable",
      "type": "function"
    },
    {
      "inputs": [
        {
          "internalType": "uint16",
          "name": "_value",
          "type": "uint16"
        }
      ],
      "name": "setLevelDecimals",
      "outputs": [],
      "stateMutability": "nonpayable",
      "type": "function"
    },
    {
      "inputs": [
        {
          "internalType": "uint8[]",
          "name": "_value",
          "type": "uint8[]"
        }
      ],
      "name": "setLevelRates",
      "outputs": [],
      "stateMutability": "nonpayable",
      "type": "function"
    },
    {
      "inputs": [
        {
          "internalType": "uint8",
          "name": "_valueDecimals",
          "type": "uint8"
        }
      ],
      "name": "setMaxLevelsAdmin",
      "outputs": [],
      "stateMutability": "nonpayable",
      "type": "function"
    },
    {
      "inputs": [
        {
          "internalType": "uint256",
          "name": "_valueInUSD",
          "type": "uint256"
        }
      ],
      "name": "setMinContribution",
      "outputs": [],
      "stateMutability": "nonpayable",
      "type": "function"
    },
    {
      "inputs": [
        {
          "internalType": "uint8",
          "name": "packageId",
          "type": "uint8"
        },
        {
          "internalType": "uint256",
          "name": "selfBusiness",
          "type": "uint256"
        },
        {
          "internalType": "uint256",
          "name": "directBusiness",
          "type": "uint256"
        },
        {
          "internalType": "uint256",
          "name": "teamBusiness",
          "type": "uint256"
        },
        {
          "internalType": "string",
          "name": "rankName",
          "type": "string"
        },
        {
          "internalType": "uint256",
          "name": "reward",
          "type": "uint256"
        },
        {
          "internalType": "uint256",
          "name": "businessLimit",
          "type": "uint256"
        },
        {
          "internalType": "uint256",
          "name": "timeLimit",
          "type": "uint256"
        },
        {
          "internalType": "bool",
          "name": "isPayReccursive",
          "type": "bool"
        }
      ],
      "name": "setRoyaltyClubPackage",
      "outputs": [],
      "stateMutability": "nonpayable",
      "type": "function"
    },
    {
      "inputs": [
        {
          "internalType": "uint8",
          "name": "_valueDecimals",
          "type": "uint8"
        }
      ],
      "name": "setRoyaltyPackageCount",
      "outputs": [],
      "stateMutability": "nonpayable",
      "type": "function"
    },
    {
      "inputs": [
        {
          "internalType": "uint32",
          "name": "_id",
          "type": "uint32"
        }
      ],
      "name": "topUpId",
      "outputs": [],
      "stateMutability": "payable",
      "type": "function"
    },
    {
      "inputs": [],
      "name": "totalIds",
      "outputs": [
        {
          "internalType": "uint32",
          "name": "",
          "type": "uint32"
        }
      ],
      "stateMutability": "view",
      "type": "function"
    },
    {
      "inputs": [],
      "name": "totalReferralPaid",
      "outputs": [
        {
          "internalType": "uint256",
          "name": "",
          "type": "uint256"
        }
      ],
      "stateMutability": "view",
      "type": "function"
    },
    {
      "inputs": [],
      "name": "totalRoyaltyClubBonusPaid",
      "outputs": [
        {
          "internalType": "uint256",
          "name": "",
          "type": "uint256"
        }
      ],
      "stateMutability": "view",
      "type": "function"
    },
    {
      "inputs": [
        {
          "internalType": "address",
          "name": "newOwner",
          "type": "address"
        }
      ],
      "name": "transferOwnership",
      "outputs": [],
      "stateMutability": "nonpayable",
      "type": "function"
    },
    {
      "inputs": [
        {
          "internalType": "uint32",
          "name": "_id",
          "type": "uint32"
        },
        {
          "internalType": "uint256",
          "name": "_value",
          "type": "uint256"
        }
      ],
      "name": "updateIdWhenClaimROI",
      "outputs": [],
      "stateMutability": "nonpayable",
      "type": "function"
    },
    {
      "inputs": [
        {
          "internalType": "uint32",
          "name": "_value",
          "type": "uint32"
        }
      ],
      "name": "updateTotalIds",
      "outputs": [],
      "stateMutability": "nonpayable",
      "type": "function"
    },
    {
      "inputs": [
        {
          "internalType": "address",
          "name": "newImplementation",
          "type": "address"
        }
      ],
      "name": "upgradeTo",
      "outputs": [],
      "stateMutability": "nonpayable",
      "type": "function"
    },
    {
      "inputs": [
        {
          "internalType": "address",
          "name": "newImplementation",
          "type": "address"
        },
        {
          "internalType": "bytes",
          "name": "data",
          "type": "bytes"
        }
      ],
      "name": "upgradeToAndCall",
      "outputs": [],
      "stateMutability": "payable",
      "type": "function"
    },
    {
      "inputs": [
        {
          "internalType": "uint256",
          "name": "",
          "type": "uint256"
        }
      ],
      "name": "users",
      "outputs": [
        {
          "internalType": "address",
          "name": "",
          "type": "address"
        }
      ],
      "stateMutability": "view",
      "type": "function"
    },
    {
      "inputs": [],
      "name": "withdrawETHAdmin",
      "outputs": [],
      "stateMutability": "nonpayable",
      "type": "function"
    },
    {
      "inputs": [
        {
          "internalType": "address",
          "name": "_tokenAddress",
          "type": "address"
        },
        {
          "internalType": "uint256",
          "name": "_value",
          "type": "uint256"
        }
      ],
      "name": "withdrawTokensAdmin",
      "outputs": [],
      "stateMutability": "nonpayable",
      "type": "function"
    },
    {
      "stateMutability": "payable",
      "type": "receive"
    }
  ],
  "bytecode": "0x60a06040523060805234801561001457600080fd5b50608051615f916200004d600039600081816110c801528181611111015281816118380152818161187801526119ff0152615f916000f3fe6080604052600436106102e85760003560e01c80636f38e41011610190578063a0b6105f116100dc578063cd21364d11610095578063f31a2d0f1161006f578063f31a2d0f1461090d578063f41bfeef1461092d578063fafc959714610943578063fb47e0161461096557600080fd5b8063cd21364d146108ad578063e1c715ba146108cd578063f2fde38b146108ed57600080fd5b8063a0b6105f14610804578063a152b0f014610824578063a28a368614610837578063a43ae4081461085a578063b47181d31461087a578063bcb93f9b1461089a57600080fd5b80638129fc1c116101495780638da5cb5b116101235780638da5cb5b146107905780638f84de85146107ae578063987dd4a7146107c45780639f4e8398146107e457600080fd5b80638129fc1c1461074b578063852ff2fd146107605780638af925dc1461077657600080fd5b80636f38e410146106945780637084431f146106b4578063715018a6146106d35780637879b5ef146106e85780637bdbf996146107085780637c5994861461073557600080fd5b8063390a5ba51161024f5780634e6e93a31161020857806352d1902d116101e257806352d1902d146105f6578063538ffe0c1461060b5780635979369a146106545780636ccc10ae1461067457600080fd5b80634e6e93a3146105885780634f1ef286146105c3578063509d6c52146105d657600080fd5b8063390a5ba5146104b65780633eff2def146104e8578063473b0d4614610508578063498b3e55146105285780634a750822146105485780634b5102b81461056857600080fd5b806322f88b52116102a157806322f88b52146104075780632ed421d21461041d578063313ce5671461043357806335759788146104615780633659cfe614610476578063365b98b21461049657600080fd5b8063012da720146102f45780630b243dad1461032a5780631319cff91461034c57806318e10bff146103845780631f9e65e4146103b757806321009789146103da57600080fd5b366102ef57005b600080fd5b34801561030057600080fd5b5061031461030f366004615320565b610992565b604051610321919061533b565b60405180910390f35b34801561033657600080fd5b5061034a61034536600461539a565b610a27565b005b34801561035857600080fd5b5061036c6103673660046153c6565b610a6a565b6040516001600160a01b039091168152602001610321565b34801561039057600080fd5b5060d5546103a5906301000000900460ff1681565b60405160ff9091168152602001610321565b3480156103c357600080fd5b506103cc610a94565b604051908152602001610321565b3480156103e657600080fd5b506103fa6103f53660046153f1565b610aa6565b60405161032191906154cf565b34801561041357600080fd5b506103cc60d05481565b34801561042957600080fd5b506103cc60d15481565b34801561043f57600080fd5b5060cb5461044e9061ffff1681565b60405161ffff9091168152602001610321565b34801561046d57600080fd5b5061034a611087565b34801561048257600080fd5b5061034a610491366004615767565b6110be565b3480156104a257600080fd5b5061036c6104b13660046153c6565b6111a3565b3480156104c257600080fd5b5060cf546104d39063ffffffff1681565b60405163ffffffff9091168152602001610321565b3480156104f457600080fd5b5061034a610503366004615320565b6111b3565b34801561051457600080fd5b5061034a6105233660046153c6565b6111d9565b34801561053457600080fd5b5061034a610543366004615784565b6111e6565b34801561055457600080fd5b5061034a610563366004615859565b61128c565b34801561057457600080fd5b5061034a610583366004615320565b61133c565b34801561059457600080fd5b506105a86105a33660046153f1565b611364565b60408051938452602084019290925290820152606001610321565b61034a6105d1366004615906565b61182e565b3480156105e257600080fd5b5061034a6105f136600461596a565b6118fa565b34801561060257600080fd5b506103cc6119f2565b34801561061757600080fd5b50610644610626366004615767565b6001600160a01b0316600090815260d6602052604090205460ff1690565b6040519015158152602001610321565b34801561066057600080fd5b5061034a61066f3660046153f1565b611aa5565b34801561068057600080fd5b5061034a61068f36600461596a565b611b49565b3480156106a057600080fd5b5060cb546103a59062010000900460ff1681565b3480156106c057600080fd5b5060d55461064490610100900460ff1681565b3480156106df57600080fd5b5061034a611bf0565b3480156106f457600080fd5b5061044e6107033660046153c6565b611c04565b34801561071457600080fd5b50610728610723366004615320565b611c3c565b6040516103219190615988565b34801561074157600080fd5b506103cc60ce5481565b34801561075757600080fd5b5061034a611e3b565b34801561076c57600080fd5b506103cc60cd5481565b34801561078257600080fd5b5060d5546106449060ff1681565b34801561079c57600080fd5b506033546001600160a01b031661036c565b3480156107ba57600080fd5b506103cc60cc5481565b3480156107d057600080fd5b506103cc6107df3660046153f1565b6120d3565b3480156107f057600080fd5b5061034a6107ff366004615767565b612592565b34801561081057600080fd5b5061034a61081f36600461539a565b61263b565b61034a6108323660046153f1565b6126b4565b34801561084357600080fd5b5060cf546103a59065010000000000900460ff1681565b34801561086657600080fd5b5061034a610875366004615a36565b6128d1565b34801561088657600080fd5b506103cc6108953660046153f1565b6128f1565b61034a6108a83660046153f1565b612dad565b3480156108b957600080fd5b5060d5546103a59062010000900460ff1681565b3480156108d957600080fd5b5061034a6108e8366004615a5a565b61306b565b3480156108f957600080fd5b5061034a610908366004615767565b61307f565b34801561091957600080fd5b5061034a61092836600461596a565b6130f5565b34801561093957600080fd5b506103cc60d25481565b34801561094f57600080fd5b5060cf5461064490640100000000900460ff1681565b34801561097157600080fd5b50610985610980366004615767565b613385565b6040516103219190615acf565b60ff8116600090815260d86020908152604091829020600901805483518184028101840190945280845260609392830182828015610a1b57602002820191906000526020600020906000905b82829054906101000a900463ffffffff1663ffffffff16815260200190600401906020826003010492830192600103820291508084116109de5790505b50505050509050919050565b610a2f6134eb565b6040516001600160a01b0383169082156108fc029083906000818181858888f19350505050158015610a65573d6000803e3d6000fd5b505050565b60d38181548110610a7a57600080fd5b6000918252602090912001546001600160a01b0316905081565b6000610aa160cc54613545565b905090565b610bdc604051806104800160405280600063ffffffff168152602001606081526020016000815260200160001515815260200160006001600160a01b03168152602001600063ffffffff168152602001600015158152602001606081526020016060815260200160608152602001606081526020016000815260200160008152602001600081526020016000815260200160008152602001600081526020016000815260200160008152602001600060ff168152602001600063ffffffff16815260200160008152602001600081526020016000815260200160008152602001600081526020016000815260200160008152602001606081526020016000815260200160008152602001600081526020016000151581526020016000151581526020016000151581526020016000151581525090565b63ffffffff808316600090815260d76020908152604091829020825161048081019093528054909316825260018301805492939291840191610c1d90615b14565b80601f0160208091040260200160405190810160405280929190818152602001828054610c4990615b14565b8015610c965780601f10610c6b57610100808354040283529160200191610c96565b820191906000526020600020905b815481529060010190602001808311610c7957829003601f168201915b50505091835250506002820154602080830191909152600383015460ff80821615156040808601919091526001600160a01b03610100840416606086015263ffffffff600160a81b8404166080860152600160c81b90920416151560a084015260048401805482518185028101850190935280835260c0909401939192909190830182828015610d7157602002820191906000526020600020906000905b82829054906101000a900463ffffffff1663ffffffff1681526020019060040190602082600301049283019260010382029150808411610d345790505b5050505050815260200160058201805480602002602001604051908101604052809291908181526020018280548015610df557602002820191906000526020600020906000905b82829054906101000a900463ffffffff1663ffffffff1681526020019060040190602082600301049283019260010382029150808411610db85790505b5050505050815260200160068201805480602002602001604051908101604052809291908181526020018280548015610e7957602002820191906000526020600020906000905b82829054906101000a900463ffffffff1663ffffffff1681526020019060040190602082600301049283019260010382029150808411610e3c5790505b5050505050815260200160078201805480602002602001604051908101604052809291908181526020018280548015610ed157602002820191906000526020600020905b815481526020019060010190808311610ebd575b505050918352505060088201546020808301919091526009830154604080840191909152600a8401546060840152600b8401546080840152600c84015460a0840152600d84015460c0840152600e84015460e0840152600f84015461010080850191909152601085015460ff81166101208601520463ffffffff166101408401526011840154610160840152601284015461018084015260138401546101a084015260148401546101c084015260158401546101e08401526016840154610200840152601784015461022084015260188401805482518185028101850190935280835261024090940193919290919083018282801561101b57602002820191906000526020600020906000905b82829054906101000a900463ffffffff1663ffffffff1681526020019060040190602082600301049283019260010382029150808411610fde5790505b505050918352505060198201546020820152601a8201546040820152601b8201546060820152601c9091015460ff8082161515608084015261010082048116151560a08401526201000082048116151560c0840152630100000090910416151560e09091015292915050565b61108f6134eb565b60405133904780156108fc02916000818181858888f193505050501580156110bb573d6000803e3d6000fd5b50565b6001600160a01b037f000000000000000000000000000000000000000000000000000000000000000016300361110f5760405162461bcd60e51b815260040161110690615b4e565b60405180910390fd5b7f00000000000000000000000000000000000000000000000000000000000000006001600160a01b0316611158600080516020615f15833981519152546001600160a01b031690565b6001600160a01b03161461117e5760405162461bcd60e51b815260040161110690615b9a565b6111878161363c565b604080516000808252602082019092526110bb91839190613644565b60d48181548110610a7a57600080fd5b6111bb6134eb565b60cb805460ff909216620100000262ff000019909216919091179055565b6111e16134eb565b60cc55565b60c954604051630935e01b60e21b81523360048201526001600160a01b03909116906324d7806c90602401602060405180830381865afa15801561122e573d6000803e3d6000fd5b505050506040513d601f19601f820116820180604052508101906112529190615be6565b61126e5760405162461bcd60e51b815260040161110690615c03565b60d554610100900460ff16156112885761128882826137af565b5050565b6112946134eb565b60ff8916600081815260d860205260409020805460ff19169091178155600181018990556002810188905560038101879055600481016112d48782615c7d565b5060058101859055600681018490556007810183905560088101805460ff191683151517905560405160ff8b1681527f9a2f17868083013e19d4c26d2af13543606bc680c21c994d7648d3a0510164c99060200160405180910390a150505050505050505050565b6113446134eb565b60d5805460ff90921663010000000263ff00000019909216919091179055565b63ffffffff808216600090815260d7602090815260408083208151610480810190925280549094168152600184018054939485948594859493908401916113aa90615b14565b80601f01602080910402602001604051908101604052809291908181526020018280546113d690615b14565b80156114235780601f106113f857610100808354040283529160200191611423565b820191906000526020600020905b81548152906001019060200180831161140657829003601f168201915b50505091835250506002820154602080830191909152600383015460ff80821615156040808601919091526001600160a01b03610100840416606086015263ffffffff600160a81b8404166080860152600160c81b90920416151560a084015260048401805482518185028101850190935280835260c09094019391929091908301828280156114fe57602002820191906000526020600020906000905b82829054906101000a900463ffffffff1663ffffffff16815260200190600401906020826003010492830192600103820291508084116114c15790505b505050505081526020016005820180548060200260200160405190810160405280929190818152602001828054801561158257602002820191906000526020600020906000905b82829054906101000a900463ffffffff1663ffffffff16815260200190600401906020826003010492830192600103820291508084116115455790505b505050505081526020016006820180548060200260200160405190810160405280929190818152602001828054801561160657602002820191906000526020600020906000905b82829054906101000a900463ffffffff1663ffffffff16815260200190600401906020826003010492830192600103820291508084116115c95790505b505050505081526020016007820180548060200260200160405190810160405280929190818152602001828054801561165e57602002820191906000526020600020905b81548152602001906001019080831161164a575b505050918352505060088201546020808301919091526009830154604080840191909152600a8401546060840152600b8401546080840152600c84015460a0840152600d84015460c0840152600e84015460e0840152600f84015461010080850191909152601085015460ff81166101208601520463ffffffff166101408401526011840154610160840152601284015461018084015260138401546101a084015260148401546101c084015260158401546101e0840152601684015461020084015260178401546102208401526018840180548251818502810185019093528083526102409094019391929091908301828280156117a857602002820191906000526020600020906000905b82829054906101000a900463ffffffff1663ffffffff168152602001906004019060208260030104928301926001038202915080841161176b5790505b505050918352505060198201546020820152601a8201546040820152601b8201546060820152601c9091015460ff8082161515608084015261010082048116151560a08401526201000082048116151560c0840152630100000090910416151560e0909101526102c08101516102e0820151610300909201519097919650945092505050565b6001600160a01b037f00000000000000000000000000000000000000000000000000000000000000001630036118765760405162461bcd60e51b815260040161110690615b4e565b7f00000000000000000000000000000000000000000000000000000000000000006001600160a01b03166118bf600080516020615f15833981519152546001600160a01b031690565b6001600160a01b0316146118e55760405162461bcd60e51b815260040161110690615b9a565b6118ee8261363c565b61128882826001613644565b60c954604051630935e01b60e21b81523360048201526001600160a01b03909116906324d7806c90602401602060405180830381865afa158015611942573d6000803e3d6000fd5b505050506040513d601f19601f820116820180604052508101906119669190615be6565b6119825760405162461bcd60e51b815260040161110690615c03565b63ffffffff8216600090815260d76020526040812042601a820155601981018054919284926119b2908490615d53565b92505081905550818160120160008282546119cd9190615d53565b925050819055508181601b0160008282546119e89190615d53565b9091555050505050565b6000306001600160a01b037f00000000000000000000000000000000000000000000000000000000000000001614611a925760405162461bcd60e51b815260206004820152603860248201527f555550535570677261646561626c653a206d757374206e6f742062652063616c60448201527f6c6564207468726f7567682064656c656761746563616c6c00000000000000006064820152608401611106565b50600080516020615f1583398151915290565b60c954604051630935e01b60e21b81523360048201526001600160a01b03909116906324d7806c90602401602060405180830381865afa158015611aed573d6000803e3d6000fd5b505050506040513d601f19601f82011682018060405250810190611b119190615be6565b611b2d5760405162461bcd60e51b815260040161110690615c03565b60cf805463ffffffff191663ffffffff92909216919091179055565b60c954604051630935e01b60e21b81523360048201526001600160a01b03909116906324d7806c90602401602060405180830381865afa158015611b91573d6000803e3d6000fd5b505050506040513d601f19601f82011682018060405250810190611bb59190615be6565b611bd15760405162461bcd60e51b815260040161110690615c03565b63ffffffff8216600090815260d760205260409020610a658183613ee6565b611bf86134eb565b611c026000613f70565b565b60ca8181548110611c1457600080fd5b9060005260206000209060109182820401919006600202915054906101000a900461ffff1681565b611c97604051806101400160405280600060ff16815260200160008152602001600081526020016000815260200160608152602001600081526020016000815260200160008152602001600015158152602001606081525090565b60ff808316600090815260d860209081526040918290208251610140810184528154909416845260018101549184019190915260028101549183019190915260038101546060830152600481018054608084019190611cf590615b14565b80601f0160208091040260200160405190810160405280929190818152602001828054611d2190615b14565b8015611d6e5780601f10611d4357610100808354040283529160200191611d6e565b820191906000526020600020905b815481529060010190602001808311611d5157829003601f168201915b505050505081526020016005820154815260200160068201548152602001600782015481526020016008820160009054906101000a900460ff1615151515815260200160098201805480602002602001604051908101604052809291908181526020018280548015611e2b57602002820191906000526020600020906000905b82829054906101000a900463ffffffff1663ffffffff1681526020019060040190602082600301049283019260010382029150808411611dee5790505b5050505050815250509050919050565b600054610100900460ff1615808015611e5b5750600054600160ff909116105b80611e755750303b158015611e75575060005460ff166001145b611ed85760405162461bcd60e51b815260206004820152602e60248201527f496e697469616c697a61626c653a20636f6e747261637420697320616c72656160448201526d191e481a5b9a5d1a585b1a5e995960921b6064820152608401611106565b6000805460ff191660011790558015611efb576000805461ff0019166101001790555b60c980546001600160a01b031916737ecf19c95f2639cf0183639dba852fade713eefc17905560cb805461ffff19166103e8179055604080516103a08101825260648152604660208201526032918101829052606081018290526080810182905260a0810182905260c0810182905260e08101829052610100810182905261012081018290526101408101829052610160810182905261018081018290526101a081018290526101c081018290526101e08101829052610200810182905261022081018290526102408101919091526014610260820181905261028082018190526102a082018190526102c082018190526102e0820181905261030082018190526103208201819052610340820181905261036082018190526103808201526120289060ca90601d615145565b5060cb805462ff000019166232000017905568056bc75e2d6310000060cc5560cf8054660200000000000066ff00ff000000001990911617905560d5805462278d0060d25562ffffff191662140101179055612082613fc2565b61208a613ff1565b80156110bb576000805461ff0019169055604051600181527f7f26b83ff96e1f2b6a682f133852f6798a09c465da95921460cefb3847402498906020015b60405180910390a150565b63ffffffff808216600090815260d76020908152604080832081516104808101909252805490941681526001840180549394859492939092908401919061211990615b14565b80601f016020809104026020016040519081016040528092919081815260200182805461214590615b14565b80156121925780601f1061216757610100808354040283529160200191612192565b820191906000526020600020905b81548152906001019060200180831161217557829003601f168201915b50505091835250506002820154602080830191909152600383015460ff80821615156040808601919091526001600160a01b03610100840416606086015263ffffffff600160a81b8404166080860152600160c81b90920416151560a084015260048401805482518185028101850190935280835260c090940193919290919083018282801561226d57602002820191906000526020600020906000905b82829054906101000a900463ffffffff1663ffffffff16815260200190600401906020826003010492830192600103820291508084116122305790505b50505050508152602001600582018054806020026020016040519081016040528092919081815260200182805480156122f157602002820191906000526020600020906000905b82829054906101000a900463ffffffff1663ffffffff16815260200190600401906020826003010492830192600103820291508084116122b45790505b505050505081526020016006820180548060200260200160405190810160405280929190818152602001828054801561237557602002820191906000526020600020906000905b82829054906101000a900463ffffffff1663ffffffff16815260200190600401906020826003010492830192600103820291508084116123385790505b50505050508152602001600782018054806020026020016040519081016040528092919081815260200182805480156123cd57602002820191906000526020600020905b8154815260200190600101908083116123b9575b505050918352505060088201546020808301919091526009830154604080840191909152600a8401546060840152600b8401546080840152600c84015460a0840152600d84015460c0840152600e84015460e0840152600f84015461010080850191909152601085015460ff81166101208601520463ffffffff166101408401526011840154610160840152601284015461018084015260138401546101a084015260148401546101c084015260158401546101e08401526016840154610200840152601784015461022084015260188401805482518185028101850190935280835261024090940193919290919083018282801561251757602002820191906000526020600020906000905b82829054906101000a900463ffffffff1663ffffffff16815260200190600401906020826003010492830192600103820291508084116124da5790505b505050918352505060198201546020820152601a8201546040820152601b8201546060820152601c9091015460ff8082161515608084015261010082048116151560a08401526201000082048116151560c0840152630100000090910416151560e090910152905061258881614018565b60ff169392505050565b60c954604051630935e01b60e21b81523360048201526001600160a01b03909116906324d7806c90602401602060405180830381865afa1580156125da573d6000803e3d6000fd5b505050506040513d601f19601f820116820180604052508101906125fe9190615be6565b61261a5760405162461bcd60e51b815260040161110690615c03565b6001600160a01b0316600090815260d660205260409020805460ff19169055565b6126436134eb565b60405163a9059cbb60e01b8152336004820152602481018290526001600160a01b0383169063a9059cbb906044016020604051808303816000875af1158015612690573d6000803e3d6000fd5b505050506040513d601f19601f82011682018060405250810190610a659190615be6565b3460006126c0826140cd565b905060cc548110156127145760405162461bcd60e51b815260206004820152601f60248201527f56616c7565206c657373207468656e206d696e436f6e747269627574696f6e006044820152606401611106565b63ffffffff8316600090815260d7602052604081203391429190612739856003615d66565b8260120154836014015461274d9190615d7d565b6127579190615d53565b905061277c828589600089868960cb60029054906101000a900460ff1660ff166141bb565b60d55460ff16156128c85760c954604080516344846f9d60e11b815290516000926001600160a01b031691638908df3a9160048083019260209291908290030181865afa1580156127d1573d6000803e3d6000fd5b505050506040513d601f19601f820116820180604052508101906127f59190615d90565b6001600160a01b03166398c7438e8961280f600386615dad565b6040516001600160e01b031960e085901b16815263ffffffff9290921660048301526024820152604481018790526064016020604051808303816000875af115801561285f573d6000803e3d6000fd5b505050506040513d601f19601f820116820180604052508101906128839190615dcf565b601884018054600181018255600091825260209091206008820401805460079092166004026101000a63ffffffff818102199093169390921691909102919091179055505b50505050505050565b6128d96134eb565b60cb805461ffff191661ffff92909216919091179055565b63ffffffff808216600090815260d76020908152604080832081516104808101909252805490941681526001840180549394859492939092908401919061293790615b14565b80601f016020809104026020016040519081016040528092919081815260200182805461296390615b14565b80156129b05780601f10612985576101008083540402835291602001916129b0565b820191906000526020600020905b81548152906001019060200180831161299357829003601f168201915b50505091835250506002820154602080830191909152600383015460ff80821615156040808601919091526001600160a01b03610100840416606086015263ffffffff600160a81b8404166080860152600160c81b90920416151560a084015260048401805482518185028101850190935280835260c0909401939192909190830182828015612a8b57602002820191906000526020600020906000905b82829054906101000a900463ffffffff1663ffffffff1681526020019060040190602082600301049283019260010382029150808411612a4e5790505b5050505050815260200160058201805480602002602001604051908101604052809291908181526020018280548015612b0f57602002820191906000526020600020906000905b82829054906101000a900463ffffffff1663ffffffff1681526020019060040190602082600301049283019260010382029150808411612ad25790505b5050505050815260200160068201805480602002602001604051908101604052809291908181526020018280548015612b9357602002820191906000526020600020906000905b82829054906101000a900463ffffffff1663ffffffff1681526020019060040190602082600301049283019260010382029150808411612b565790505b5050505050815260200160078201805480602002602001604051908101604052809291908181526020018280548015612beb57602002820191906000526020600020905b815481526020019060010190808311612bd7575b505050918352505060088201546020808301919091526009830154604080840191909152600a8401546060840152600b8401546080840152600c84015460a0840152600d84015460c0840152600e84015460e0840152600f84015461010080850191909152601085015460ff81166101208601520463ffffffff166101408401526011840154610160840152601284015461018084015260138401546101a084015260148401546101c084015260158401546101e084015260168401546102008401526017840154610220840152601884018054825181850281018501909352808352610240909401939192909190830182828015612d3557602002820191906000526020600020906000905b82829054906101000a900463ffffffff1663ffffffff1681526020019060040190602082600301049283019260010382029150808411612cf85790505b505050918352505060198201546020820152601a8201546040820152601b8201546060820152601c9091015460ff8082161515608084015261010082048116151560a08401526201000082048116151560c0840152630100000090910416151560e0909101529050612da6816144de565b9392505050565b346000612db9826140cd565b905060cc54811015612e0d5760405162461bcd60e51b815260206004820152601f60248201527f56616c7565206c657373207468656e206d696e436f6e747269627574696f6e006044820152606401611106565b60cf5433904290600090612e289063ffffffff166001615dec565b6001600160a01b038416600090815260d66020908152604080832063ffffffff8516845260d790925282209293509190612e63876003615d66565b82601201548360140154612e779190615d7d565b612e819190615d53565b9050612ea58287868c8b868b60cb60029054906101000a900460ff1660ff166141bb565b60d55460ff1615612ff15760c954604080516344846f9d60e11b815290516000926001600160a01b031691638908df3a9160048083019260209291908290030181865afa158015612efa573d6000803e3d6000fd5b505050506040513d601f19601f82011682018060405250810190612f1e9190615d90565b6001600160a01b03166398c7438e86612f38600386615dad565b6040516001600160e01b031960e085901b16815263ffffffff9290921660048301526024820152604481018990526064016020604051808303816000875af1158015612f88573d6000803e3d6000fd5b505050506040513d601f19601f82011682018060405250810190612fac9190615dcf565b601884018054600181018255600091825260209091206008820401805460079092166004026101000a63ffffffff818102199093169390921691909102919091179055505b6001838101805491820181556000908152602081206008830401805460079093166004026101000a63ffffffff818102199094168885169190910217905560cf8054909216919061304183615e10565b91906101000a81548163ffffffff021916908363ffffffff16021790555050505050505050505050565b6130736134eb565b610a6560ca83836151ed565b6130876134eb565b6001600160a01b0381166130ec5760405162461bcd60e51b815260206004820152602660248201527f4f776e61626c653a206e6577206f776e657220697320746865207a65726f206160448201526564647265737360d01b6064820152608401611106565b6110bb81613f70565b63ffffffff8216600090815260d760205260409020600381015461010090046001600160a01b0316331461316b5760405162461bcd60e51b815260206004820152601d60248201527f596f7520617265206e6f74206f776e6572206f6620746869732069642e0000006044820152606401611106565b80601b01548210156131bf5760405162461bcd60e51b815260206004820152601b60248201527f76616c75652067726561746572207468616e2062616c616e63652e00000000006044820152606401611106565b601c8101546301000000900460ff1661321a5760405162461bcd60e51b815260206004820152601760248201527f5769746864726177206973206e6f7420656e61626c65640000000000000000006044820152606401611106565b8181601b01600082825461322e9190615d7d565b909155505060d55460009060649061324f9062010000900460ff1685615d66565b6132599190615dad565b905060c960009054906101000a90046001600160a01b03166001600160a01b031662f9cc666040518163ffffffff1660e01b8152600401602060405180830381865afa1580156132ad573d6000803e3d6000fd5b505050506040513d601f19601f820116820180604052508101906132d19190615d90565b6003830154604051633528777d60e11b81526001600160a01b036101009092048216600482015260248101849052911690636a50eefa90604401600060405180830381600087803b15801561332557600080fd5b505af1158015613339573d6000803e3d6000fd5b503392506108fc915061335690506133518487615d7d565b613545565b6040518115909202916000818181858888f1935050505015801561337e573d6000803e3d6000fd5b5050505050565b6133ab604051806060016040528060001515815260200160608152602001606081525090565b6001600160a01b038216600090815260d660209081526040918290208251606081018452815460ff16151581526001820180548551818602810186019096528086529194929385810193929083018282801561345257602002820191906000526020600020906000905b82829054906101000a900463ffffffff1663ffffffff16815260200190600401906020826003010492830192600103820291508084116134155790505b5050505050815260200160028201805461346b90615b14565b80601f016020809104026020016040519081016040528092919081815260200182805461349790615b14565b8015611e2b5780601f106134b957610100808354040283529160200191611e2b565b820191906000526020600020905b8154815290600101906020018083116134c757505050919092525091949350505050565b6033546001600160a01b03163314611c025760405162461bcd60e51b815260206004820181905260248201527f4f776e61626c653a2063616c6c6572206973206e6f7420746865206f776e65726044820152606401611106565b60008060c960009054906101000a90046001600160a01b03166001600160a01b0316632913497b6040518163ffffffff1660e01b8152600401602060405180830381865afa15801561359b573d6000803e3d6000fd5b505050506040513d601f19601f820116820180604052508101906135bf9190615d90565b6001600160a01b031663e1aa60366040518163ffffffff1660e01b8152600401602060405180830381865afa1580156135fc573d6000803e3d6000fd5b505050506040513d601f19601f820116820180604052508101906136209190615e33565b61363284670de0b6b3a7640000615d66565b612da69190615dad565b6110bb6134eb565b7f4910fdfa16fed3260ed0e7147f7cc6da11a60208b5b9406d12a635614ffd91435460ff161561367757610a658361451d565b826001600160a01b03166352d1902d6040518163ffffffff1660e01b8152600401602060405180830381865afa9250505080156136d1575060408051601f3d908101601f191682019092526136ce91810190615e33565b60015b6137345760405162461bcd60e51b815260206004820152602e60248201527f45524331393637557067726164653a206e657720696d706c656d656e7461746960448201526d6f6e206973206e6f74205555505360901b6064820152608401611106565b600080516020615f1583398151915281146137a35760405162461bcd60e51b815260206004820152602960248201527f45524331393637557067726164653a20756e737570706f727465642070726f786044820152681a58589b195555525160ba1b6064820152608401611106565b50610a658383836145b9565b600060ca80548060200260200160405190810160405280929190818152602001828054801561382557602002820191906000526020600020906000905b82829054906101000a900461ffff1661ffff16815260200190600201906020826001010492830192600103820291508084116137ec5790505b5050835163ffffffff8716600090815260d7602052604081209596509094935091508190505b8360ff168160ff161015613ec657600383015463ffffffff600160a81b9091048116600081815260d76020526040812080549293909216900361388f575050613ec6565b613898816145e4565b156139105760405172149959995c995c881a5cc8111a5cd8589b1959606a1b81526013015b6040519081900390206138d1846001615e4c565b60ff168363ffffffff167f915ed47901013ad29e90ede828f72888f54bd58cea141b0c6967498165382eb560405160405180910390a49350613eb49050565b604080516104808101909152815463ffffffff168152600182018054613dab9291849160208401919061394290615b14565b80601f016020809104026020016040519081016040528092919081815260200182805461396e90615b14565b80156139bb5780601f10613990576101008083540402835291602001916139bb565b820191906000526020600020905b81548152906001019060200180831161399e57829003601f168201915b50505091835250506002820154602080830191909152600383015460ff80821615156040808601919091526001600160a01b03610100840416606086015263ffffffff600160a81b8404166080860152600160c81b90920416151560a084015260048401805482518185028101850190935280835260c0909401939192909190830182828015613a9657602002820191906000526020600020906000905b82829054906101000a900463ffffffff1663ffffffff1681526020019060040190602082600301049283019260010382029150808411613a595790505b5050505050815260200160058201805480602002602001604051908101604052809291908181526020018280548015613b1a57602002820191906000526020600020906000905b82829054906101000a900463ffffffff1663ffffffff1681526020019060040190602082600301049283019260010382029150808411613add5790505b5050505050815260200160068201805480602002602001604051908101604052809291908181526020018280548015613b9e57602002820191906000526020600020906000905b82829054906101000a900463ffffffff1663ffffffff1681526020019060040190602082600301049283019260010382029150808411613b615790505b5050505050815260200160078201805480602002602001604051908101604052809291908181526020018280548015613bf657602002820191906000526020600020905b815481526020019060010190808311613be2575b505050918352505060088201546020808301919091526009830154604080840191909152600a8401546060840152600b8401546080840152600c84015460a0840152600d84015460c0840152600e84015460e0840152600f84015461010080850191909152601085015460ff81166101208601520463ffffffff166101408401526011840154610160840152601284015461018084015260138401546101a084015260148401546101c084015260158401546101e084015260168401546102008401526017840154610220840152601884018054825181850281018501909352808352610240909401939192909190830182828015613d4057602002820191906000526020600020906000905b82829054906101000a900463ffffffff1663ffffffff1681526020019060040190602082600301049283019260010382029150808411613d035790505b505050918352505060198201546020820152601a8201546040820152601b8201546060820152601c9091015460ff8082161515608084015261010082048116151560a08401526201000082048116151560c0840152630100000090910416151560e0909101526144de565b613db6846001615e4c565b60ff161115613ded576040517f446f776e6c696e65206c6576656c73206c696d697420726561636865640000008152601d016138bd565b60cb54875160009161ffff1690899060ff8716908110613e0f57613e0f615e65565b602002602001015161ffff168b613e269190615d66565b613e309190615dad565b905080826017016000828254613e469190615d53565b90915550613e5690508282613ee6565b613e608186615d53565b94508063ffffffff808516908b167ff8fb9b5ab69a0208214661678427c6b48abf457f53605d1f559d17452f1eea11613e9a886001615e4c565b60405160ff909116815260200160405180910390a4509350505b80613ebe81615e7b565b91505061384b565b508060ce6000828254613ed99190615d53565b9091555050505050505050565b8160140154818360120154613efb9190615d53565b11613f3a5780826012016000828254613f149190615d53565b925050819055508082601b016000828254613f2f9190615d53565b909155506112889050565b81601201548260140154613f4e9190615d7d565b82601b016000828254613f619190615d53565b90915550611288905082614765565b603380546001600160a01b038381166001600160a01b0319831681179093556040519116919082907f8be0079c531659141344cd1fd0a4f28419497f9722a3daafe3b4186f6b6457e090600090a35050565b600054610100900460ff16613fe95760405162461bcd60e51b815260040161110690615e9a565b611c0261480d565b600054610100900460ff16611c025760405162461bcd60e51b815260040161110690615e9a565b60d5546000906301000000900460ff16815b8160ff168160ff1610156140c65760ff8116600090815260d860205260409020600101546101608501511080159061407c575060ff8116600090815260d860205260409020600201546101a085015110155b80156140a2575060ff8116600090815260d860205260409020600301546101e085015110155b156140af578092506140b4565b6140c6565b806140be81615e7b565b91505061402a565b5050919050565b600080670de0b6b3a764000060c960009054906101000a90046001600160a01b03166001600160a01b0316632913497b6040518163ffffffff1660e01b8152600401602060405180830381865afa15801561412c573d6000803e3d6000fd5b505050506040513d601f19601f820116820180604052508101906141509190615d90565b6001600160a01b031663e1aa60366040518163ffffffff1660e01b8152600401602060405180830381865afa15801561418d573d6000803e3d6000fd5b505050506040513d601f19601f820116820180604052508101906141b19190615e33565b6136329085615d66565b875463ffffffff166000036141de57875463ffffffff191663ffffffff87161788555b601c88015460ff166141fa57601c8801805460ff191660011790555b600388015460ff166142525760d480546001810182556000919091527f9780e26d96b1f2a9a18ef8fc72d589dbf03ef788137b64f43897e83a91e7feec0180546001600160a01b0319166001600160a01b0389161790555b600388015461010090046001600160a01b031661428c57600388018054610100600160a81b0319166101006001600160a01b038a16021790555b87600201546000036142a057600288018290555b6003880154600160c81b900460ff166142e45760038801805460ff60c81b1963ffffffff8816600160a81b021664ffffffffff60a81b1990911617600160c81b1790555b600060128901556142f6600384615dad565b6013890155601488018390556007880180546001810182556000918252602082200185905560088901805486929061432f908490615d53565b909155505060158801829055604080516000815260208101918290525161435a9160188b0191615258565b5060005b818160ff1610156144d357600389015463ffffffff600160a81b9091048116600081815260d76020526040812080549293909216900361439f5750506144d3565b8260ff16600003614401578681600a0160008282546143be9190615d53565b909155505060048181018054600181018255600091825260209091206008820401805460079092169092026101000a63ffffffff81810219909216918c16021790555b8681600c0160008282546144159190615d53565b909155505063ffffffff881615614495576005810180546001810182556000918252602082206008820401805460079092166004026101000a63ffffffff818102199093168d841691820217909155835460405190831693928c16927f3ec54e926fe5dd86406fe57832ff318517aed2a5cfbeacfb90a5e9489483ae4b91a45b60cf54640100000000900460ff16156144b3576144b381888761483d565b6144bd8786614f97565b99508190506144cb81615e7b565b91505061435e565b505050505050505050565b60e081015151600090818115612da65760cf5460019061450b906601000000000000900460ff1684615d66565b6145159190615d7d565b949350505050565b6001600160a01b0381163b61458a5760405162461bcd60e51b815260206004820152602d60248201527f455243313936373a206e657720696d706c656d656e746174696f6e206973206e60448201526c1bdd08184818dbdb9d1c9858dd609a1b6064820152608401611106565b600080516020615f1583398151915280546001600160a01b0319166001600160a01b0392909216919091179055565b6145c283614fd1565b6000825111806145cf5750805b15610a65576145de8383615011565b50505050565b601c81015460009060ff16158061460357508160140154826012015410155b1561461057506001919050565b601882015415801590614750575060c960009054906101000a90046001600160a01b03166001600160a01b0316638908df3a6040518163ffffffff1660e01b8152600401602060405180830381865afa158015614671573d6000803e3d6000fd5b505050506040513d601f19601f820116820180604052508101906146959190615d90565b6001600160a01b03166355332a8583601801600185601801805490506146bb9190615d7d565b815481106146cb576146cb615e65565b6000918252602090912060088204015460405160e084901b6001600160e01b0319168152600790921660049081026101000a90910463ffffffff1690820152602401602060405180830381865afa15801561472a573d6000803e3d6000fd5b505050506040513d601f19601f8201168201806040525081019061474e9190615be6565b155b1561475d57506001919050565b506000919050565b601c8101805460ff191690556040805160008152602081019182905251614790916018840191615258565b5060006012820181905560138201819055601482015542601682015580546040805163ffffffff9092168252602082018190526011908201527013585e08131a5b5a5d0814995858da1959607a1b60608201527fce8ab8f2ac6a94861f9740fa1fed3e6d13a85dfd8a4833bf96f3a0055ba7fb6f906080016120c8565b600054610100900460ff166148345760405162461bcd60e51b815260040161110690615e9a565b611c0233613f70565b6010830154604080516104808101909152845463ffffffff16815260018501805460ff90931692614ce39291879160208401919061487a90615b14565b80601f01602080910402602001604051908101604052809291908181526020018280546148a690615b14565b80156148f35780601f106148c8576101008083540402835291602001916148f3565b820191906000526020600020905b8154815290600101906020018083116148d657829003601f168201915b50505091835250506002820154602080830191909152600383015460ff80821615156040808601919091526001600160a01b03610100840416606086015263ffffffff600160a81b8404166080860152600160c81b90920416151560a084015260048401805482518185028101850190935280835260c09094019391929091908301828280156149ce57602002820191906000526020600020906000905b82829054906101000a900463ffffffff1663ffffffff16815260200190600401906020826003010492830192600103820291508084116149915790505b5050505050815260200160058201805480602002602001604051908101604052809291908181526020018280548015614a5257602002820191906000526020600020906000905b82829054906101000a900463ffffffff1663ffffffff1681526020019060040190602082600301049283019260010382029150808411614a155790505b5050505050815260200160068201805480602002602001604051908101604052809291908181526020018280548015614ad657602002820191906000526020600020906000905b82829054906101000a900463ffffffff1663ffffffff1681526020019060040190602082600301049283019260010382029150808411614a995790505b5050505050815260200160078201805480602002602001604051908101604052809291908181526020018280548015614b2e57602002820191906000526020600020905b815481526020019060010190808311614b1a575b505050918352505060088201546020808301919091526009830154604080840191909152600a8401546060840152600b8401546080840152600c84015460a0840152600d84015460c0840152600e84015460e0840152600f84015461010080850191909152601085015460ff81166101208601520463ffffffff166101408401526011840154610160840152601284015461018084015260138401546101a084015260148401546101c084015260158401546101e084015260168401546102008401526017840154610220840152601884018054825181850281018501909352808352610240909401939192909190830182828015614c7857602002820191906000526020600020906000905b82829054906101000a900463ffffffff1663ffffffff1681526020019060040190602082600301049283019260010382029150808411614c3b5790505b505050918352505060198201546020820152601a8201546040820152601b8201546060820152601c9091015460ff8082161515608084015261010082048116151560a08401526201000082048116151560c0840152630100000090910416151560e090910152614018565b60ff161115610a6557604080516104808101909152835463ffffffff168152600184018054614d1e9291869160208401919061487a90615b14565b60108401805460ff191660ff9283169081178255600090815260d860209081526040808320885460099182018054600181810183559187529486206008860401805463ffffffff60079097166004026101000a8781021990911696909316909202949094179055935490941682529290200154614d9b9190615d7d565b60108401805464ffffffff0019811661010063ffffffff948516810291821793849055875460408051918716825291909404909416602084015260ff918216911617918101919091527f4d3af8f60ffd033b575846f894122f2342b39bc9a90da98d0a966128702b568d9060600160405180910390a1604080516104808101909152835463ffffffff16815260018401805460d892600092614e47928891602084019161487a90615b14565b60ff90811682526020820192909252604001600020600801541615614f0657604080516104808101909152835463ffffffff16815260018401805460d892600092614e9c928891602084019161487a90615b14565b60ff1660ff1681526020019081526020016000206007015483600f0154614ec39190615d53565b811115614ef2578083600f01819055508183600e016000828254614ee79190615d53565b90915550610a659050565b8183600e016000828254614ee79190615d53565b60cf54640100000000900460ff1615610a6557601083015460ff16600090815260d86020526040902060050154614f3e908490613ee6565b601083015460ff908116600090815260d8602052604080822060058101549054875492519194169263ffffffff909216917fdeaf5b294f5016988108257045fc779d7d01e05a4ecdc4df70f62d5a799e053b91a4505050565b60d25460d154614fa79190615d53565b811115614fb65760d15560d055565b8160d06000828254614fc89190615d53565b90915550505050565b614fda8161451d565b6040516001600160a01b038216907fbc7cd75a20ee27fd9adebab32041f755214dbc6bffa90cc0225b39da2e5c2d3b90600090a250565b60606001600160a01b0383163b6150795760405162461bcd60e51b815260206004820152602660248201527f416464726573733a2064656c65676174652063616c6c20746f206e6f6e2d636f6044820152651b9d1c9858dd60d21b6064820152608401611106565b600080846001600160a01b0316846040516150949190615ee5565b600060405180830381855af49150503d80600081146150cf576040519150601f19603f3d011682016040523d82523d6000602084013e6150d4565b606091505b50915091506150fc8282604051806060016040528060278152602001615f3560279139615107565b925050505b92915050565b60608315615116575081612da6565b612da6838381511561512b5781518083602001fd5b8060405162461bcd60e51b81526004016111069190615f01565b82805482825590600052602060002090600f016010900481019282156151dd5791602002820160005b838211156151ad57835183826101000a81548161ffff021916908360ff160217905550926020019260020160208160010104928301926001030261516e565b80156151db5782816101000a81549061ffff02191690556002016020816001010492830192600103026151ad565b505b506151e99291506152f5565b5090565b82805482825590600052602060002090600f016010900481019282156151dd5791602002820160005b838211156151ad57833560ff1683826101000a81548161ffff021916908360ff1602179055509260200192600201602081600101049283019260010302615216565b828054828255906000526020600020906007016008900481019282156151dd5791602002820160005b838211156152c557835183826101000a81548163ffffffff021916908363ffffffff1602179055509260200192600401602081600301049283019260010302615281565b80156151db5782816101000a81549063ffffffff02191690556004016020816003010492830192600103026152c5565b5b808211156151e957600081556001016152f6565b803560ff8116811461531b57600080fd5b919050565b60006020828403121561533257600080fd5b612da68261530a565b6020808252825182820181905260009190848201906040850190845b8181101561537957835163ffffffff1683529284019291840191600101615357565b50909695505050505050565b6001600160a01b03811681146110bb57600080fd5b600080604083850312156153ad57600080fd5b82356153b881615385565b946020939093013593505050565b6000602082840312156153d857600080fd5b5035919050565b63ffffffff811681146110bb57600080fd5b60006020828403121561540357600080fd5b8135612da6816153df565b60005b83811015615429578181015183820152602001615411565b50506000910152565b6000815180845261544a81602086016020860161540e565b601f01601f19169290920160200192915050565b600081518084526020808501945080840160005b8381101561549457815163ffffffff1687529582019590820190600101615472565b509495945050505050565b600081518084526020808501945080840160005b83811015615494578151875295820195908201906001016154b3565b602081526154e660208201835163ffffffff169052565b600060208301516104808060408501526155046104a0850183615432565b9150604085015160608501526060850151615523608086018215159052565b5060808501516001600160a01b03811660a08601525060a085015163ffffffff811660c08601525060c085015180151560e08601525060e0850151601f19610100818786030181880152615577858461545e565b945080880151925050610120818786030181880152615596858461545e565b9450808801519250506101408187860301818801526155b5858461545e565b9450808801519250506101608187860301818801526155d4858461549f565b90880151610180888101919091528801516101a0808901919091528801516101c0808901919091528801516101e0808901919091528801516102008089019190915288015161022080890191909152880151610240808901919091528801516102608089019190915288015190945091506102806156568188018460ff169052565b87015191506102a061566f8782018463ffffffff169052565b8701516102c0878101919091528701516102e080880191909152870151610300808801919091528701516103208088019190915287015161034080880191909152870151610360808801919091528701516103808088019190915287015186850382016103a0808901919091529092506156e9858461545e565b908801516103c0888101919091528801516103e080890191909152880151610400808901919091528801519094509150610420905061572b8187018315159052565b86015190506104406157408682018315159052565b86015190506104606157558682018315159052565b90950151151593019290925250919050565b60006020828403121561577957600080fd5b8135612da681615385565b6000806040838503121561579757600080fd5b8235915060208301356157a9816153df565b809150509250929050565b634e487b7160e01b600052604160045260246000fd5b600067ffffffffffffffff808411156157e5576157e56157b4565b604051601f8501601f19908116603f0116810190828211818310171561580d5761580d6157b4565b8160405280935085815286868601111561582657600080fd5b858560208301376000602087830101525050509392505050565b80151581146110bb57600080fd5b803561531b81615840565b60008060008060008060008060006101208a8c03121561587857600080fd5b6158818a61530a565b985060208a0135975060408a0135965060608a0135955060808a013567ffffffffffffffff8111156158b257600080fd5b8a01601f81018c136158c357600080fd5b6158d28c8235602084016157ca565b95505060a08a0135935060c08a0135925060e08a013591506158f76101008b0161584e565b90509295985092959850929598565b6000806040838503121561591957600080fd5b823561592481615385565b9150602083013567ffffffffffffffff81111561594057600080fd5b8301601f8101851361595157600080fd5b615960858235602084016157ca565b9150509250929050565b6000806040838503121561597d57600080fd5b82356153b8816153df565b6020815261599c60208201835160ff169052565b602082015160408201526040820151606082015260608201516080820152600060808301516101408060a08501526159d8610160850183615432565b915060a085015160c085015260c085015160e085015260e0850151610100818187015280870151915050610120615a128187018315159052565b860151858403601f1901838701529050615a2c838261545e565b9695505050505050565b600060208284031215615a4857600080fd5b813561ffff81168114612da657600080fd5b60008060208385031215615a6d57600080fd5b823567ffffffffffffffff80821115615a8557600080fd5b818501915085601f830112615a9957600080fd5b813581811115615aa857600080fd5b8660208260051b8501011115615abd57600080fd5b60209290920196919550909350505050565b602081528151151560208201526000602083015160606040840152615af7608084018261545e565b90506040840151601f198483030160608501526150fc8282615432565b600181811c90821680615b2857607f821691505b602082108103615b4857634e487b7160e01b600052602260045260246000fd5b50919050565b6020808252602c908201527f46756e6374696f6e206d7573742062652063616c6c6564207468726f7567682060408201526b19195b1959d85d1958d85b1b60a21b606082015260800190565b6020808252602c908201527f46756e6374696f6e206d7573742062652063616c6c6564207468726f7567682060408201526b6163746976652070726f787960a01b606082015260800190565b600060208284031215615bf857600080fd5b8151612da681615840565b6020808252601290820152712cb7ba9030b932903737ba1030b236b4b71760711b604082015260600190565b601f821115610a6557600081815260208120601f850160051c81016020861015615c565750805b601f850160051c820191505b81811015615c7557828155600101615c62565b505050505050565b815167ffffffffffffffff811115615c9757615c976157b4565b615cab81615ca58454615b14565b84615c2f565b602080601f831160018114615ce05760008415615cc85750858301515b600019600386901b1c1916600185901b178555615c75565b600085815260208120601f198616915b82811015615d0f57888601518255948401946001909101908401615cf0565b5085821015615d2d5787850151600019600388901b60f8161c191681555b5050505050600190811b01905550565b634e487b7160e01b600052601160045260246000fd5b8082018082111561510157615101615d3d565b808202811582820484141761510157615101615d3d565b8181038181111561510157615101615d3d565b600060208284031215615da257600080fd5b8151612da681615385565b600082615dca57634e487b7160e01b600052601260045260246000fd5b500490565b600060208284031215615de157600080fd5b8151612da6816153df565b63ffffffff818116838216019080821115615e0957615e09615d3d565b5092915050565b600063ffffffff808316818103615e2957615e29615d3d565b6001019392505050565b600060208284031215615e4557600080fd5b5051919050565b60ff818116838216019081111561510157615101615d3d565b634e487b7160e01b600052603260045260246000fd5b600060ff821660ff8103615e9157615e91615d3d565b60010192915050565b6020808252602b908201527f496e697469616c697a61626c653a20636f6e7472616374206973206e6f74206960408201526a6e697469616c697a696e6760a81b606082015260800190565b60008251615ef781846020870161540e565b9190910192915050565b602081526000612da6602083018461543256fe360894a13ba1a3210667c828492db98dca3e2076cc3735a920a3ca505d382bbc416464726573733a206c6f772d6c6576656c2064656c65676174652063616c6c206661696c6564a264697066735822122040134b7f8961cf24da58ff90f85cf9fb9aeb1e636b2347e50dbbf12553513f8664736f6c63430008110033",
  "linkReferences": {},
  "deployedLinkReferences": {}
}