{
  "_format": "hh-sol-artifact-1",
  "contractName": "ReferralV2Upgradeable",
  "sourceName": "contracts/ReferralV2Upgradeable.sol",
  "abi": [
    {
      "anonymous": false,
      "inputs": [
        {
          "indexed": false,
          "internalType": "address",
          "name": "ownerAddress",
          "type": "address"
        },
        {
          "indexed": false,
          "internalType": "uint256",
          "name": "id",
          "type": "uint256"
        },
        {
          "indexed": false,
          "internalType": "uint256",
          "name": "idIndex",
          "type": "uint256"
        }
      ],
      "name": "AccountInfoIDAttached",
      "type": "event"
    },
    {
      "anonymous": false,
      "inputs": [
        {
          "indexed": false,
          "internalType": "uint256",
          "name": "userID",
          "type": "uint256"
        },
        {
          "indexed": false,
          "internalType": "uint256",
          "name": "index",
          "type": "uint256"
        },
        {
          "indexed": false,
          "internalType": "uint256",
          "name": "rank",
          "type": "uint256"
        }
      ],
      "name": "AddedInRoyaltyClubList",
      "type": "event"
    },
    {
      "anonymous": false,
      "inputs": [
        {
          "indexed": false,
          "internalType": "address",
          "name": "previousAdmin",
          "type": "address"
        },
        {
          "indexed": false,
          "internalType": "address",
          "name": "newAdmin",
          "type": "address"
        }
      ],
      "name": "AdminChanged",
      "type": "event"
    },
    {
      "anonymous": false,
      "inputs": [
        {
          "indexed": true,
          "internalType": "address",
          "name": "beacon",
          "type": "address"
        }
      ],
      "name": "BeaconUpgraded",
      "type": "event"
    },
    {
      "anonymous": false,
      "inputs": [
        {
          "indexed": false,
          "internalType": "uint256",
          "name": "id",
          "type": "uint256"
        },
        {
          "indexed": false,
          "internalType": "string",
          "name": "reason",
          "type": "string"
        }
      ],
      "name": "IDDeactivated",
      "type": "event"
    },
    {
      "anonymous": false,
      "inputs": [
        {
          "indexed": false,
          "internalType": "uint8",
          "name": "version",
          "type": "uint8"
        }
      ],
      "name": "Initialized",
      "type": "event"
    },
    {
      "anonymous": false,
      "inputs": [
        {
          "indexed": true,
          "internalType": "address",
          "name": "previousOwner",
          "type": "address"
        },
        {
          "indexed": true,
          "internalType": "address",
          "name": "newOwner",
          "type": "address"
        }
      ],
      "name": "OwnershipTransferred",
      "type": "event"
    },
    {
      "anonymous": false,
      "inputs": [
        {
          "indexed": false,
          "internalType": "uint256",
          "name": "packageID",
          "type": "uint256"
        }
      ],
      "name": "PackageAdded",
      "type": "event"
    },
    {
      "anonymous": false,
      "inputs": [
        {
          "indexed": false,
          "internalType": "uint256",
          "name": "packageID",
          "type": "uint256"
        }
      ],
      "name": "PackageRemoved",
      "type": "event"
    },
    {
      "anonymous": false,
      "inputs": [
        {
          "indexed": false,
          "internalType": "uint256",
          "name": "packageID",
          "type": "uint256"
        }
      ],
      "name": "PackageUpdated",
      "type": "event"
    },
    {
      "anonymous": false,
      "inputs": [
        {
          "indexed": true,
          "internalType": "uint256",
          "name": "userID",
          "type": "uint256"
        },
        {
          "indexed": true,
          "internalType": "uint256",
          "name": "reward",
          "type": "uint256"
        }
      ],
      "name": "ROIClaimed",
      "type": "event"
    },
    {
      "anonymous": false,
      "inputs": [
        {
          "indexed": true,
          "internalType": "uint256",
          "name": "refererID",
          "type": "uint256"
        },
        {
          "indexed": true,
          "internalType": "uint256",
          "name": "level",
          "type": "uint256"
        },
        {
          "indexed": true,
          "internalType": "string",
          "name": "reason",
          "type": "string"
        }
      ],
      "name": "ReferralNotPaid",
      "type": "event"
    },
    {
      "anonymous": false,
      "inputs": [
        {
          "indexed": true,
          "internalType": "uint256",
          "name": "refereeID",
          "type": "uint256"
        },
        {
          "indexed": true,
          "internalType": "uint256",
          "name": "referrerID",
          "type": "uint256"
        },
        {
          "indexed": true,
          "internalType": "uint256",
          "name": "amount",
          "type": "uint256"
        },
        {
          "indexed": false,
          "internalType": "uint256",
          "name": "level",
          "type": "uint256"
        }
      ],
      "name": "ReferralRewardPaid",
      "type": "event"
    },
    {
      "anonymous": false,
      "inputs": [
        {
          "indexed": true,
          "internalType": "address",
          "name": "refereeID",
          "type": "address"
        },
        {
          "indexed": true,
          "internalType": "address",
          "name": "referrerID",
          "type": "address"
        },
        {
          "indexed": true,
          "internalType": "string",
          "name": "reason",
          "type": "string"
        }
      ],
      "name": "RegisterRefererFailed",
      "type": "event"
    },
    {
      "anonymous": false,
      "inputs": [
        {
          "indexed": true,
          "internalType": "uint256",
          "name": "id",
          "type": "uint256"
        },
        {
          "indexed": true,
          "internalType": "uint256",
          "name": "refererID",
          "type": "uint256"
        }
      ],
      "name": "RegisteredReferer",
      "type": "event"
    },
    {
      "anonymous": false,
      "inputs": [
        {
          "indexed": true,
          "internalType": "address",
          "name": "parent",
          "type": "address"
        },
        {
          "indexed": false,
          "internalType": "uint256",
          "name": "parentAccountID",
          "type": "uint256"
        },
        {
          "indexed": true,
          "internalType": "uint256",
          "name": "referrerID",
          "type": "uint256"
        },
        {
          "indexed": true,
          "internalType": "uint256",
          "name": "refereeID",
          "type": "uint256"
        }
      ],
      "name": "RegisteredTeamAddress",
      "type": "event"
    },
    {
      "anonymous": false,
      "inputs": [
        {
          "indexed": false,
          "internalType": "uint256",
          "name": "packageID",
          "type": "uint256"
        },
        {
          "indexed": true,
          "internalType": "uint256",
          "name": "userID",
          "type": "uint256"
        },
        {
          "indexed": true,
          "internalType": "uint256",
          "name": "amount",
          "type": "uint256"
        }
      ],
      "name": "RoyaltyClubBonusPaid",
      "type": "event"
    },
    {
      "anonymous": false,
      "inputs": [
        {
          "indexed": true,
          "internalType": "address",
          "name": "implementation",
          "type": "address"
        }
      ],
      "name": "Upgraded",
      "type": "event"
    },
    {
      "inputs": [
        {
          "internalType": "uint256",
          "name": "",
          "type": "uint256"
        }
      ],
      "name": "_disabledUsersList",
      "outputs": [
        {
          "internalType": "address",
          "name": "",
          "type": "address"
        }
      ],
      "stateMutability": "view",
      "type": "function"
    },
    {
      "inputs": [
        {
          "internalType": "uint32",
          "name": "_refererID",
          "type": "uint32"
        }
      ],
      "name": "activateID",
      "outputs": [],
      "stateMutability": "payable",
      "type": "function"
    },
    {
      "inputs": [
        {
          "internalType": "uint32[]",
          "name": "_userID",
          "type": "uint32[]"
        }
      ],
      "name": "addTeamAddress",
      "outputs": [],
      "stateMutability": "nonpayable",
      "type": "function"
    },
    {
      "inputs": [
        {
          "internalType": "uint256",
          "name": "",
          "type": "uint256"
        }
      ],
      "name": "admins",
      "outputs": [
        {
          "internalType": "address",
          "name": "",
          "type": "address"
        }
      ],
      "stateMutability": "view",
      "type": "function"
    },
    {
      "inputs": [
        {
          "internalType": "uint32",
          "name": "_id",
          "type": "uint32"
        },
        {
          "internalType": "uint256",
          "name": "_valueInUSD",
          "type": "uint256"
        }
      ],
      "name": "claimBalance",
      "outputs": [],
      "stateMutability": "nonpayable",
      "type": "function"
    },
    {
      "inputs": [],
      "name": "companyTurnoverTimeLimit",
      "outputs": [
        {
          "internalType": "uint256",
          "name": "",
          "type": "uint256"
        }
      ],
      "stateMutability": "view",
      "type": "function"
    },
    {
      "inputs": [],
      "name": "companyTurnoverTimeStamp",
      "outputs": [
        {
          "internalType": "uint256",
          "name": "",
          "type": "uint256"
        }
      ],
      "stateMutability": "view",
      "type": "function"
    },
    {
      "inputs": [],
      "name": "companyTurnoverWithTimeLimit",
      "outputs": [
        {
          "internalType": "uint256",
          "name": "",
          "type": "uint256"
        }
      ],
      "stateMutability": "view",
      "type": "function"
    },
    {
      "inputs": [],
      "name": "decimals",
      "outputs": [
        {
          "internalType": "uint16",
          "name": "",
          "type": "uint16"
        }
      ],
      "stateMutability": "view",
      "type": "function"
    },
    {
      "inputs": [
        {
          "internalType": "address",
          "name": "_userAddress",
          "type": "address"
        }
      ],
      "name": "disableUserAdmin",
      "outputs": [],
      "stateMutability": "nonpayable",
      "type": "function"
    },
    {
      "inputs": [
        {
          "internalType": "uint32",
          "name": "_id",
          "type": "uint32"
        }
      ],
      "name": "getIDAccount",
      "outputs": [
        {
          "components": [
            {
              "internalType": "uint32",
              "name": "id",
              "type": "uint32"
            },
            {
              "internalType": "string",
              "name": "oldID",
              "type": "string"
            },
            {
              "internalType": "bool",
              "name": "isDisabled",
              "type": "bool"
            },
            {
              "internalType": "address",
              "name": "owner",
              "type": "address"
            },
            {
              "internalType": "uint256",
              "name": "joiningTime",
              "type": "uint256"
            },
            {
              "internalType": "uint256",
              "name": "activationTime",
              "type": "uint256"
            },
            {
              "internalType": "uint256",
              "name": "deactivateTime",
              "type": "uint256"
            },
            {
              "internalType": "uint32[]",
              "name": "roiIDs",
              "type": "uint32[]"
            },
            {
              "internalType": "uint32",
              "name": "refererID",
              "type": "uint32"
            },
            {
              "internalType": "uint32[]",
              "name": "refereeIDs",
              "type": "uint32[]"
            },
            {
              "internalType": "uint32[]",
              "name": "teamIDs",
              "type": "uint32[]"
            },
            {
              "internalType": "uint32[]",
              "name": "teamLevel",
              "type": "uint32[]"
            },
            {
              "internalType": "uint256",
              "name": "selfBusinessUSD",
              "type": "uint256"
            },
            {
              "internalType": "uint256",
              "name": "selfBusinessUSDOld",
              "type": "uint256"
            },
            {
              "internalType": "uint256",
              "name": "directBusinessUSD",
              "type": "uint256"
            },
            {
              "internalType": "uint256",
              "name": "directBusinessUSDOld",
              "type": "uint256"
            },
            {
              "internalType": "uint256",
              "name": "teamBusinessUSD",
              "type": "uint256"
            },
            {
              "internalType": "uint256",
              "name": "teamBusinessUSDOld",
              "type": "uint256"
            },
            {
              "internalType": "uint256",
              "name": "royaltyClubBusinessUSD",
              "type": "uint256"
            },
            {
              "internalType": "uint256",
              "name": "timeStampRoyaltyClub",
              "type": "uint256"
            },
            {
              "internalType": "uint8",
              "name": "royaltyClubPackageID",
              "type": "uint8"
            },
            {
              "internalType": "uint256",
              "name": "royaltyClubListIndex",
              "type": "uint256"
            },
            {
              "internalType": "uint256",
              "name": "referralPaidUSD",
              "type": "uint256"
            },
            {
              "internalType": "uint256",
              "name": "rewardPaidRoyaltyClubUSD",
              "type": "uint256"
            },
            {
              "internalType": "uint256",
              "name": "topUpUSD",
              "type": "uint256"
            },
            {
              "internalType": "uint256",
              "name": "balanceClaimedUSD",
              "type": "uint256"
            },
            {
              "internalType": "uint256",
              "name": "limitBalanceUSD",
              "type": "uint256"
            },
            {
              "internalType": "uint256",
              "name": "maxLimitAmount",
              "type": "uint256"
            },
            {
              "internalType": "uint256",
              "name": "totalROIClaimedUSD",
              "type": "uint256"
            },
            {
              "internalType": "uint256",
              "name": "roiClaimedUSD",
              "type": "uint256"
            },
            {
              "internalType": "uint256",
              "name": "roiClaimTimestamp",
              "type": "uint256"
            }
          ],
          "internalType": "struct ReferralV2Upgradeable.StructID",
          "name": "",
          "type": "tuple"
        }
      ],
      "stateMutability": "view",
      "type": "function"
    },
    {
      "inputs": [
        {
          "internalType": "uint32",
          "name": "_id",
          "type": "uint32"
        }
      ],
      "name": "getIDRoyaltyClubLevel",
      "outputs": [
        {
          "internalType": "uint256",
          "name": "",
          "type": "uint256"
        }
      ],
      "stateMutability": "view",
      "type": "function"
    },
    {
      "inputs": [],
      "name": "getPriceOracleContract",
      "outputs": [
        {
          "internalType": "address",
          "name": "",
          "type": "address"
        }
      ],
      "stateMutability": "view",
      "type": "function"
    },
    {
      "inputs": [
        {
          "internalType": "uint32",
          "name": "_roiID",
          "type": "uint32"
        }
      ],
      "name": "getROIAccount",
      "outputs": [
        {
          "components": [
            {
              "internalType": "bool",
              "name": "isActive",
              "type": "bool"
            },
            {
              "internalType": "uint32",
              "name": "ownerID",
              "type": "uint32"
            },
            {
              "internalType": "uint256",
              "name": "valueInUSD",
              "type": "uint256"
            },
            {
              "internalType": "uint16",
              "name": "roiRate",
              "type": "uint16"
            },
            {
              "internalType": "uint256",
              "name": "startTime",
              "type": "uint256"
            },
            {
              "internalType": "uint256",
              "name": "duration",
              "type": "uint256"
            }
          ],
          "internalType": "struct ReferralV2Upgradeable.StructROI",
          "name": "",
          "type": "tuple"
        }
      ],
      "stateMutability": "view",
      "type": "function"
    },
    {
      "inputs": [
        {
          "internalType": "address",
          "name": "_address",
          "type": "address"
        }
      ],
      "name": "getUserAccount",
      "outputs": [
        {
          "components": [
            {
              "internalType": "bool",
              "name": "isDisabled",
              "type": "bool"
            },
            {
              "internalType": "uint32[]",
              "name": "accountIDs",
              "type": "uint32[]"
            }
          ],
          "internalType": "struct ReferralV2Upgradeable.StructAccount",
          "name": "",
          "type": "tuple"
        }
      ],
      "stateMutability": "view",
      "type": "function"
    },
    {
      "inputs": [
        {
          "internalType": "uint32",
          "name": "_id",
          "type": "uint32"
        }
      ],
      "name": "getUserIDTotalROI",
      "outputs": [
        {
          "internalType": "uint256",
          "name": "roi",
          "type": "uint256"
        }
      ],
      "stateMutability": "view",
      "type": "function"
    },
    {
      "inputs": [
        {
          "internalType": "uint32",
          "name": "_id",
          "type": "uint32"
        }
      ],
      "name": "getUserTotalActiveROIValue",
      "outputs": [
        {
          "internalType": "uint256",
          "name": "",
          "type": "uint256"
        }
      ],
      "stateMutability": "view",
      "type": "function"
    },
    {
      "inputs": [
        {
          "internalType": "uint32",
          "name": "_id",
          "type": "uint32"
        }
      ],
      "name": "getUserUnlockCount",
      "outputs": [
        {
          "internalType": "uint256",
          "name": "",
          "type": "uint256"
        }
      ],
      "stateMutability": "view",
      "type": "function"
    },
    {
      "inputs": [],
      "name": "initialize",
      "outputs": [],
      "stateMutability": "nonpayable",
      "type": "function"
    },
    {
      "inputs": [],
      "name": "isPayROI",
      "outputs": [
        {
          "internalType": "bool",
          "name": "",
          "type": "bool"
        }
      ],
      "stateMutability": "view",
      "type": "function"
    },
    {
      "inputs": [],
      "name": "isPayRoyaltyClubBonus",
      "outputs": [
        {
          "internalType": "bool",
          "name": "",
          "type": "bool"
        }
      ],
      "stateMutability": "view",
      "type": "function"
    },
    {
      "inputs": [
        {
          "internalType": "address",
          "name": "_userAddress",
          "type": "address"
        }
      ],
      "name": "isUserDisabledByAdmin",
      "outputs": [
        {
          "internalType": "bool",
          "name": "",
          "type": "bool"
        }
      ],
      "stateMutability": "view",
      "type": "function"
    },
    {
      "inputs": [
        {
          "internalType": "uint256",
          "name": "",
          "type": "uint256"
        }
      ],
      "name": "levelRates",
      "outputs": [
        {
          "internalType": "uint16",
          "name": "",
          "type": "uint16"
        }
      ],
      "stateMutability": "view",
      "type": "function"
    },
    {
      "inputs": [],
      "name": "maxLevelsCount",
      "outputs": [
        {
          "internalType": "uint8",
          "name": "",
          "type": "uint8"
        }
      ],
      "stateMutability": "view",
      "type": "function"
    },
    {
      "inputs": [],
      "name": "minContributionInUSD",
      "outputs": [
        {
          "internalType": "uint256",
          "name": "",
          "type": "uint256"
        }
      ],
      "stateMutability": "view",
      "type": "function"
    },
    {
      "inputs": [],
      "name": "owner",
      "outputs": [
        {
          "internalType": "address",
          "name": "",
          "type": "address"
        }
      ],
      "stateMutability": "view",
      "type": "function"
    },
    {
      "inputs": [],
      "name": "packagesCount",
      "outputs": [
        {
          "internalType": "uint8",
          "name": "",
          "type": "uint8"
        }
      ],
      "stateMutability": "view",
      "type": "function"
    },
    {
      "inputs": [],
      "name": "proxiableUUID",
      "outputs": [
        {
          "internalType": "bytes32",
          "name": "",
          "type": "bytes32"
        }
      ],
      "stateMutability": "view",
      "type": "function"
    },
    {
      "inputs": [
        {
          "internalType": "uint32[]",
          "name": "_userID",
          "type": "uint32[]"
        }
      ],
      "name": "removeRefereeArray",
      "outputs": [],
      "stateMutability": "nonpayable",
      "type": "function"
    },
    {
      "inputs": [
        {
          "internalType": "address",
          "name": "_userAddress",
          "type": "address"
        }
      ],
      "name": "removeUserFromDisableList",
      "outputs": [],
      "stateMutability": "nonpayable",
      "type": "function"
    },
    {
      "inputs": [],
      "name": "renounceOwnership",
      "outputs": [],
      "stateMutability": "nonpayable",
      "type": "function"
    },
    {
      "inputs": [],
      "name": "royaltyClubPackageCount",
      "outputs": [
        {
          "internalType": "uint8",
          "name": "",
          "type": "uint8"
        }
      ],
      "stateMutability": "view",
      "type": "function"
    },
    {
      "inputs": [
        {
          "internalType": "address",
          "name": "_address",
          "type": "address"
        },
        {
          "internalType": "uint256",
          "name": "_value",
          "type": "uint256"
        }
      ],
      "name": "sendETHAdmin",
      "outputs": [],
      "stateMutability": "nonpayable",
      "type": "function"
    },
    {
      "inputs": [
        {
          "internalType": "address",
          "name": "_adminAddress",
          "type": "address"
        }
      ],
      "name": "setAdmin",
      "outputs": [],
      "stateMutability": "nonpayable",
      "type": "function"
    },
    {
      "inputs": [
        {
          "internalType": "address",
          "name": "_contractAddress",
          "type": "address"
        }
      ],
      "name": "setPriceOracleContract",
      "outputs": [],
      "stateMutability": "nonpayable",
      "type": "function"
    },
    {
      "inputs": [
        {
          "internalType": "uint32",
          "name": "_id",
          "type": "uint32"
        }
      ],
      "name": "topUpID",
      "outputs": [],
      "stateMutability": "payable",
      "type": "function"
    },
    {
      "inputs": [],
      "name": "totalIDs",
      "outputs": [
        {
          "internalType": "uint32",
          "name": "",
          "type": "uint32"
        }
      ],
      "stateMutability": "view",
      "type": "function"
    },
    {
      "inputs": [],
      "name": "totalROIIDs",
      "outputs": [
        {
          "internalType": "uint32",
          "name": "",
          "type": "uint32"
        }
      ],
      "stateMutability": "view",
      "type": "function"
    },
    {
      "inputs": [],
      "name": "totalROIPaidUSD",
      "outputs": [
        {
          "internalType": "uint256",
          "name": "",
          "type": "uint256"
        }
      ],
      "stateMutability": "view",
      "type": "function"
    },
    {
      "inputs": [],
      "name": "totalReferralPaidUSD",
      "outputs": [
        {
          "internalType": "uint256",
          "name": "",
          "type": "uint256"
        }
      ],
      "stateMutability": "view",
      "type": "function"
    },
    {
      "inputs": [],
      "name": "totalRoyaltyClubBonusPaidETH",
      "outputs": [
        {
          "internalType": "uint256",
          "name": "",
          "type": "uint256"
        }
      ],
      "stateMutability": "view",
      "type": "function"
    },
    {
      "inputs": [],
      "name": "totalRoyaltyClubBonusPaidUSD",
      "outputs": [
        {
          "internalType": "uint256",
          "name": "",
          "type": "uint256"
        }
      ],
      "stateMutability": "view",
      "type": "function"
    },
    {
      "inputs": [],
      "name": "totalUsers",
      "outputs": [
        {
          "internalType": "uint32",
          "name": "",
          "type": "uint32"
        }
      ],
      "stateMutability": "view",
      "type": "function"
    },
    {
      "inputs": [
        {
          "internalType": "address",
          "name": "newOwner",
          "type": "address"
        }
      ],
      "name": "transferOwnership",
      "outputs": [],
      "stateMutability": "nonpayable",
      "type": "function"
    },
    {
      "inputs": [
        {
          "internalType": "uint32[]",
          "name": "_userID",
          "type": "uint32[]"
        },
        {
          "internalType": "address[]",
          "name": "_userAddress",
          "type": "address[]"
        },
        {
          "internalType": "uint32[]",
          "name": "_referrerID",
          "type": "uint32[]"
        },
        {
          "internalType": "string[]",
          "name": "_oldID",
          "type": "string[]"
        }
      ],
      "name": "updateIDOldIDtoAddress",
      "outputs": [],
      "stateMutability": "nonpayable",
      "type": "function"
    },
    {
      "inputs": [
        {
          "internalType": "uint32",
          "name": "_value",
          "type": "uint32"
        }
      ],
      "name": "updateTotalIDs",
      "outputs": [],
      "stateMutability": "nonpayable",
      "type": "function"
    },
    {
      "inputs": [
        {
          "internalType": "uint32[]",
          "name": "_userID",
          "type": "uint32[]"
        },
        {
          "internalType": "uint256[]",
          "name": "_totalTopUp",
          "type": "uint256[]"
        },
        {
          "internalType": "uint256[]",
          "name": "_limitBalanceUSD",
          "type": "uint256[]"
        },
        {
          "internalType": "uint256[]",
          "name": "_balanceClaimedUSD",
          "type": "uint256[]"
        },
        {
          "internalType": "uint256[]",
          "name": "_joiningTime",
          "type": "uint256[]"
        },
        {
          "internalType": "uint256[]",
          "name": "_activationTime",
          "type": "uint256[]"
        }
      ],
      "name": "updateUserIDDataOldAdmin",
      "outputs": [],
      "stateMutability": "nonpayable",
      "type": "function"
    },
    {
      "inputs": [
        {
          "internalType": "address",
          "name": "newImplementation",
          "type": "address"
        }
      ],
      "name": "upgradeTo",
      "outputs": [],
      "stateMutability": "nonpayable",
      "type": "function"
    },
    {
      "inputs": [
        {
          "internalType": "address",
          "name": "newImplementation",
          "type": "address"
        },
        {
          "internalType": "bytes",
          "name": "data",
          "type": "bytes"
        }
      ],
      "name": "upgradeToAndCall",
      "outputs": [],
      "stateMutability": "payable",
      "type": "function"
    },
    {
      "inputs": [],
      "name": "withdrawETHAdmin",
      "outputs": [],
      "stateMutability": "nonpayable",
      "type": "function"
    },
    {
      "inputs": [
        {
          "internalType": "address",
          "name": "_tokenAddress",
          "type": "address"
        },
        {
          "internalType": "uint256",
          "name": "_value",
          "type": "uint256"
        }
      ],
      "name": "withdrawTokensAdmin",
      "outputs": [],
      "stateMutability": "nonpayable",
      "type": "function"
    },
    {
      "stateMutability": "payable",
      "type": "receive"
    }
  ],
  "bytecode": "0x60a06040523060805234801561001457600080fd5b50608051615a206200004d60003960008181610b6b01528181610bab01528181610f7b01528181610fbb01526110330152615a206000f3fe6080604052600436106102785760003560e01c80637f2f4a9111610150578063bf46de63116100bc578063bf46de631461073b578063bff1f9e11461075b578063c3ab5ebf14610778578063db003b2a14610889578063e52356f3146108a9578063e5682e38146108c9578063ea62f715146108dc578063f2fde38b146108fc578063f31a2d0f1461091c578063f41bfeef1461093c578063f830e57b14610952578063fafc95971461097f578063fb47e0161461099e57600080fd5b80637f2f4a91146105c15780638129fc1c146105e15780638da5cb5b146105f65780638df05d9c1461061457806396ed6b85146106345780639f4e83981461064a578063a0b6105f1461066a578063a1b801751461068a578063a28a3686146106ae578063af2f39d1146106ce578063b47181d3146106e8578063b92d18c114610708578063bc09161b1461071b57600080fd5b80633659cfe6116101ef5780633659cfe61461041657806349b32504146104365780634f1ef2861461045657806352d1902d14610469578063538ffe0c1461047e5780635e701d86146104c75780636dc8afc514610500578063704b6c021461051657806370d9e08114610536578063715018a61461055657806376a68e841461056b5780637879b5ef1461058b5780637a026935146105ab57600080fd5b806309de82cd146102845780630b243dad146102ad5780630efdbb6a146102cf57806314bfd6d0146102ef57806318e10bff146103275780631dc209ff146103535780631f7f83ba1461036957806322f88b52146103895780632913497b1461039f5780632ed421d2146103bd578063313ce567146103d3578063357597881461040157600080fd5b3661027f57005b600080fd5b34801561029057600080fd5b5061029a60ce5481565b6040519081526020015b60405180910390f35b3480156102b957600080fd5b506102cd6102c8366004614ddd565b6109cb565b005b3480156102db57600080fd5b506102cd6102ea366004614e07565b610a0e565b3480156102fb57600080fd5b5061030f61030a366004614e22565b610af0565b6040516001600160a01b0390911681526020016102a4565b34801561033357600080fd5b5060d9546103419060ff1681565b60405160ff90911681526020016102a4565b34801561035f57600080fd5b5061029a60cf5481565b34801561037557600080fd5b5061030f610384366004614e22565b610b1a565b34801561039557600080fd5b5061029a60d55481565b3480156103ab57600080fd5b5060c9546001600160a01b031661030f565b3480156103c957600080fd5b5061029a60d65481565b3480156103df57600080fd5b5060cb546103ee9061ffff1681565b60405161ffff90911681526020016102a4565b34801561040d57600080fd5b506102cd610b2a565b34801561042257600080fd5b506102cd610431366004614e07565b610b61565b34801561044257600080fd5b506102cd610451366004614e86565b610c26565b6102cd610464366004614f64565b610f71565b34801561047557600080fd5b5061029a611026565b34801561048a57600080fd5b506104b7610499366004614e07565b6001600160a01b0316600090815260da602052604090205460ff1690565b60405190151581526020016102a4565b3480156104d357600080fd5b5060d1546104eb90600160201b900463ffffffff1681565b60405163ffffffff90911681526020016102a4565b34801561050c57600080fd5b5061029a60d05481565b34801561052257600080fd5b506102cd610531366004614e07565b6110d4565b34801561054257600080fd5b506102cd610551366004614fd9565b61112e565b34801561056257600080fd5b506102cd611207565b34801561057757600080fd5b5061029a610586366004614fd9565b61121b565b34801561059757600080fd5b506103ee6105a6366004614e22565b61162c565b3480156105b757600080fd5b5061029a60cd5481565b3480156105cd57600080fd5b506102cd6105dc366004614e86565b611664565b3480156105ed57600080fd5b506102cd6117ab565b34801561060257600080fd5b506033546001600160a01b031661030f565b34801561062057600080fd5b5060cb546103419062010000900460ff1681565b34801561064057600080fd5b5061029a60cc5481565b34801561065657600080fd5b506102cd610665366004614e07565b611a50565b34801561067657600080fd5b506102cd610685366004614ddd565b611b6c565b34801561069657600080fd5b5060d1546104eb90600160401b900463ffffffff1681565b3480156106ba57600080fd5b5060d4546103419062010000900460ff1681565b3480156106da57600080fd5b5060d4546104b79060ff1681565b3480156106f457600080fd5b5061029a610703366004614fd9565b611be5565b6102cd610716366004614fd9565b611ff3565b34801561072757600080fd5b506102cd610736366004614ff4565b61210b565b34801561074757600080fd5b5061029a610756366004614fd9565b612497565b34801561076757600080fd5b5060d1546104eb9063ffffffff1681565b34801561078457600080fd5b50610831610793366004614fd9565b6040805160c081018252600080825260208201819052918101829052606081018290526080810182905260a08101919091525063ffffffff908116600090815260dc6020908152604091829020825160c081018452815460ff811615158252610100900490941691840191909152600181015491830191909152600281015461ffff166060830152600381015460808301526004015460a082015290565b6040516102a49190600060c08201905082511515825263ffffffff60208401511660208301526040830151604083015261ffff60608401511660608301526080830151608083015260a083015160a083015292915050565b34801561089557600080fd5b506102cd6108a4366004615150565b6124fb565b3480156108b557600080fd5b506102cd6108c4366004614e07565b612716565b6102cd6108d7366004614fd9565b6128eb565b3480156108e857600080fd5b5061029a6108f7366004614fd9565b612a5b565b34801561090857600080fd5b506102cd610917366004614e07565b612b72565b34801561092857600080fd5b506102cd61093736600461528d565b612be8565b34801561094857600080fd5b5061029a60d75481565b34801561095e57600080fd5b5061097261096d366004614fd9565b612d04565b6040516102a4919061533a565b34801561098b57600080fd5b5060d4546104b790610100900460ff1681565b3480156109aa57600080fd5b506109be6109b9366004614e07565b613204565b6040516102a49190615557565b6109d36132cf565b6040516001600160a01b0383169082156108fc029083906000818181858888f19350505050158015610a09573d6000803e3d6000fd5b505050565b60005b60de5460ff82161015610aec5760de8160ff1681548110610a3457610a3461557e565b6000918252602090912001546001600160a01b03163303610a705760c980546001600160a01b0384166001600160a01b03199091161790555050565b60de54610a7f906001906155aa565b8160ff1603610ada5760de8160ff1681548110610a9e57610a9e61557e565b6000918252602090912001546001600160a01b03163314610ada5760405162461bcd60e51b8152600401610ad1906155bd565b60405180910390fd5b80610ae4816155e8565b915050610a11565b5050565b60de8181548110610b0057600080fd5b6000918252602090912001546001600160a01b0316905081565b60d88181548110610b0057600080fd5b610b326132cf565b60405133904780156108fc02916000818181858888f19350505050158015610b5e573d6000803e3d6000fd5b50565b6001600160a01b037f0000000000000000000000000000000000000000000000000000000000000000163003610ba95760405162461bcd60e51b8152600401610ad190615607565b7f00000000000000000000000000000000000000000000000000000000000000006001600160a01b0316610bdb613329565b6001600160a01b031614610c015760405162461bcd60e51b8152600401610ad190615653565b610c0a81613345565b60408051600080825260208201909252610b5e9183919061334d565b60005b60de5460ff82161015610a095760de8160ff1681548110610c4c57610c4c61557e565b6000918252602090912001546001600160a01b03163303610efe5760005b63ffffffff8116831115610ef857600060db600086868563ffffffff16818110610c9657610c9661557e565b9050602002016020810190610cab9190614fd9565b63ffffffff1681526020810191909152604001600090812060cb5490925062010000900460ff16905b8160ff168163ffffffff161015610ee257600783015463ffffffff908116600081815260db60205260408120919284169003610d78578060080189898863ffffffff16818110610d2657610d2661557e565b9050602002016020810190610d3b9190614fd9565b8154600181018355600092835260209092206008830401805460079093166004026101000a63ffffffff8181021990941692909316929092021790555b845463ffffffff16600003610d8e575050610ee2565b8060090189898863ffffffff16818110610daa57610daa61557e565b9050602002016020810190610dbf9190614fd9565b815460018082018455600093845260209093206008820401805460079092166004026101000a63ffffffff818102199093169390921691909102919091179055600a820190610e0f90859061569f565b8154600181018355600092835260209092206008830401805460079093166004026101000a63ffffffff8181021990941692841602919091179055899089908816818110610e5f57610e5f61557e565b9050602002016020810190610e749190614fd9565b6002820154825460405163ffffffff9182168152928116929085169161010090046001600160a01b0316907fa7fafc728ec30e34dc1e1276496bf3eb44ca7494679da969455289e6a8f0f1f69060200160405180910390a49350819050610eda816156c3565b915050610cd4565b5050508080610ef0906156c3565b915050610c6a565b50505050565b60de54610f0d906001906155aa565b8160ff1603610f5f5760de8160ff1681548110610f2c57610f2c61557e565b6000918252602090912001546001600160a01b03163314610f5f5760405162461bcd60e51b8152600401610ad1906155bd565b80610f69816155e8565b915050610c29565b6001600160a01b037f0000000000000000000000000000000000000000000000000000000000000000163003610fb95760405162461bcd60e51b8152600401610ad190615607565b7f00000000000000000000000000000000000000000000000000000000000000006001600160a01b0316610feb613329565b6001600160a01b0316146110115760405162461bcd60e51b8152600401610ad190615653565b61101a82613345565b610aec8282600161334d565b6000306001600160a01b037f000000000000000000000000000000000000000000000000000000000000000016146110c15760405162461bcd60e51b815260206004820152603860248201527f555550535570677261646561626c653a206d757374206e6f742062652063616c6044820152771b1959081d1a1c9bdd59da0819195b1959d85d1958d85b1b60421b6064820152608401610ad1565b506000805160206159a483398151915290565b6110dc6132cf565b60de80546001810182556000919091527ffae8130c0619f84b4b44f01b84806f04e82e536d70e05f2356977fa318aecc1a0180546001600160a01b0319166001600160a01b0392909216919091179055565b60005b60de5460ff82161015610aec5760de8160ff16815481106111545761115461557e565b6000918252602090912001546001600160a01b031633036111945760d1805463ffffffff8416600160201b0267ffffffff00000000199091161790555050565b60de546111a3906001906155aa565b8160ff16036111f55760de8160ff16815481106111c2576111c261557e565b6000918252602090912001546001600160a01b031633146111f55760405162461bcd60e51b8152600401610ad1906155bd565b806111ff816155e8565b915050611131565b61120f6132cf565b61121960006134b8565b565b63ffffffff808216600090815260db6020908152604080832081516103e081019092528054909416815260018401805493948594929390929084019190611261906156e6565b80601f016020809104026020016040519081016040528092919081815260200182805461128d906156e6565b80156112da5780601f106112af576101008083540402835291602001916112da565b820191906000526020600020905b8154815290600101906020018083116112bd57829003601f168201915b5050509183525050600282015460ff811615156020808401919091526101009091046001600160a01b03166040808401919091526003840154606084015260048401546080840152600584015460a084015260068401805482518185028101850190935280835260c09094019391929091908301828280156113a757602002820191906000526020600020906000905b82829054906101000a900463ffffffff1663ffffffff168152602001906004019060208260030104928301926001038202915080841161136a5790505b5050509183525050600782015463ffffffff16602080830191909152600883018054604080518285028101850182528281529401939283018282801561143857602002820191906000526020600020906000905b82829054906101000a900463ffffffff1663ffffffff16815260200190600401906020826003010492830192600103820291508084116113fb5790505b50505050508152602001600982018054806020026020016040519081016040528092919081815260200182805480156114bc57602002820191906000526020600020906000905b82829054906101000a900463ffffffff1663ffffffff168152602001906004019060208260030104928301926001038202915080841161147f5790505b50505050508152602001600a820180548060200260200160405190810160405280929190818152602001828054801561154057602002820191906000526020600020906000905b82829054906101000a900463ffffffff1663ffffffff16815260200190600401906020826003010492830192600103820291508084116115035790505b5050509183525050600b8201546020820152600c8201546040820152600d8201546060820152600e8201546080820152600f82015460a0820152601082015460c0820152601182015460e08201526012820154610100820152601382015460ff1661012082015260148201546101408201526015820154610160820152601682015461018082015260178201546101a082015260188201546101c082015260198201546101e0820152601a820154610200820152601b820154610220820152601c820154610240820152601d909101546102609091015290506116228161350a565b60ff169392505050565b60ca818154811061163c57600080fd5b9060005260206000209060109182820401919006600202915054906101000a900461ffff1681565b60005b60de5460ff82161015610a095760de8160ff168154811061168a5761168a61557e565b6000918252602090912001546001600160a01b031633036117385760005b63ffffffff8116831115610ef857600060db600086868563ffffffff168181106116d4576116d461557e565b90506020020160208101906116e99190614fd9565b63ffffffff168152602080820192909252604090810160009081208251918252928101918290525191925061172391600884019190614c67565b50508080611730906156c3565b9150506116a8565b60de54611747906001906155aa565b8160ff16036117995760de8160ff16815481106117665761176661557e565b6000918252602090912001546001600160a01b031633146117995760405162461bcd60e51b8152600401610ad1906155bd565b806117a3816155e8565b915050611667565b600054610100900460ff16158080156117cb5750600054600160ff909116105b806117ec57506117da306135b1565b1580156117ec575060005460ff166001145b61184f5760405162461bcd60e51b815260206004820152602e60248201527f496e697469616c697a61626c653a20636f6e747261637420697320616c72656160448201526d191e481a5b9a5d1a585b1a5e995960921b6064820152608401610ad1565b6000805460ff191660011790558015611872576000805461ff0019166101001790555b60c980546001600160a01b03191673286d6392042b4d7180fd6d20f8d35c877681577417905560cb805461ffff19166103e8179055604080516103a08101825260648152604660208201526032918101829052606081018290526080810182905260a0810182905260c0810182905260e08101829052610100810182905261012081018290526101408101829052610160810182905261018081018290526101a081018290526101c081018290526101e08101829052610200810182905261022081018290526102408101919091526014610260820181905261028082018190526102a082018190526102c082018190526102e08201819052610300820181905261032082018190526103408201819052610360820181905261038082015261199f9060ca90601d614d16565b5060cb805462ff0000191662320000179055670de0b6b3a764000060cc5560d4805463ff00ffff1916630200000117905560d1805461ffff60601b1916607d60631b17905563020f580060d255601460d35562278d0060d755611a006135c0565b611a086135ef565b8015610b5e576000805461ff0019169055604051600181527f7f26b83ff96e1f2b6a682f133852f6798a09c465da95921460cefb38474024989060200160405180910390a150565b60005b60de5460ff82161015610aec5760de8160ff1681548110611a7657611a7661557e565b6000918252602090912001546001600160a01b03163303611af95760d8805460018181019092557f5320ad99a619a90804cd2efe3a5cf0ac1ac5c41ad9ff2c61cf699efdad7710960180546001600160a01b0385166001600160a01b03199091168117909155600090815260da60205260409020805460ff191690911790555050565b60de54611b08906001906155aa565b8160ff1603611b5a5760de8160ff1681548110611b2757611b2761557e565b6000918252602090912001546001600160a01b03163314611b5a5760405162461bcd60e51b8152600401610ad1906155bd565b80611b64816155e8565b915050611a53565b611b746132cf565b60405163a9059cbb60e01b8152336004820152602481018290526001600160a01b0383169063a9059cbb906044016020604051808303816000875af1158015611bc1573d6000803e3d6000fd5b505050506040513d601f19601f82011682018060405250810190610a099190615720565b63ffffffff808216600090815260db6020908152604080832081516103e081019092528054909416815260018401805493948594929390929084019190611c2b906156e6565b80601f0160208091040260200160405190810160405280929190818152602001828054611c57906156e6565b8015611ca45780601f10611c7957610100808354040283529160200191611ca4565b820191906000526020600020905b815481529060010190602001808311611c8757829003601f168201915b5050509183525050600282015460ff811615156020808401919091526101009091046001600160a01b03166040808401919091526003840154606084015260048401546080840152600584015460a084015260068401805482518185028101850190935280835260c0909401939192909190830182828015611d7157602002820191906000526020600020906000905b82829054906101000a900463ffffffff1663ffffffff1681526020019060040190602082600301049283019260010382029150808411611d345790505b5050509183525050600782015463ffffffff166020808301919091526008830180546040805182850281018501825282815294019392830182828015611e0257602002820191906000526020600020906000905b82829054906101000a900463ffffffff1663ffffffff1681526020019060040190602082600301049283019260010382029150808411611dc55790505b5050505050815260200160098201805480602002602001604051908101604052809291908181526020018280548015611e8657602002820191906000526020600020906000905b82829054906101000a900463ffffffff1663ffffffff1681526020019060040190602082600301049283019260010382029150808411611e495790505b50505050508152602001600a8201805480602002602001604051908101604052809291908181526020018280548015611f0a57602002820191906000526020600020906000905b82829054906101000a900463ffffffff1663ffffffff1681526020019060040190602082600301049283019260010382029150808411611ecd5790505b5050509183525050600b8201546020820152600c8201546040820152600d8201546060820152600e8201546080820152600f82015460a0820152601082015460c0820152601182015460e08201526012820154610100820152601382015460ff1661012082015260148201546101408201526015820154610160820152601682015461018082015260178201546101a082015260188201546101c082015260198201546101e0820152601a820154610200820152601b820154610220820152601c820154610240820152601d90910154610260909101529050611fec81613616565b9392505050565b60cc54349061200190613653565b8110156120645760405162461bcd60e51b815260206004820152602b60248201527f56616c75652073686f756c6420626520677265617465207468656e206d696e4360448201526a37b73a3934b13aba34b7b760a91b6064820152608401610ad1565b336000612070836136e9565b60d154909150429060009061209390600160401b900463ffffffff16600161569f565b63ffffffff8716600090815260db602052604090206002810154919250906001600160a01b0386811661010090920416146120e05760405162461bcd60e51b8152600401610ad190615742565b60d45460ff16156120f7576120f787838686613776565b612102878585613868565b50505050505050565b60005b60de5460ff8216101561248d5760de8160ff16815481106121315761213161557e565b6000918252602090912001546001600160a01b0316330361241a5760005b61ffff811688111561241457600060db60008b8b8561ffff168181106121775761217761557e565b905060200201602081019061218c9190614fd9565b63ffffffff1663ffffffff1681526020019081526020016000209050600060da60008a8a8661ffff168181106121c4576121c461557e565b90506020020160208101906121d99190614e07565b6001600160a01b03166001600160a01b0316815260200190815260200160002090508a8a8461ffff168181106122115761221161557e565b90506020020160208101906122269190614fd9565b825463ffffffff191663ffffffff919091161782558451859061ffff85169081106122535761225361557e565b602002602001015182600101908161226b91906157bf565b50806001018b8b8561ffff168181106122865761228661557e565b905060200201602081019061229b9190614fd9565b8154600181018355600092835260209092206008830401805460079093166004026101000a63ffffffff818102199094169290931692909202179055888861ffff85168181106122ed576122ed61557e565b90506020020160208101906123029190614e07565b8260020160016101000a8154816001600160a01b0302191690836001600160a01b0316021790555086868461ffff168181106123405761234061557e565b90506020020160208101906123559190614fd9565b60078301805463ffffffff191663ffffffff92909216919091179055868661ffff85168181106123875761238761557e565b905060200201602081019061239c9190614fd9565b63ffffffff168b8b8561ffff168181106123b8576123b861557e565b90506020020160208101906123cd9190614fd9565b63ffffffff167f9d714438ba618019cc2b8621dcd2550337e162be58654470ea30d48479fe832060405160405180910390a35050808061240c9061587e565b91505061214f565b5061248d565b60de54612429906001906155aa565b8160ff160361247b5760de8160ff16815481106124485761244861557e565b6000918252602090912001546001600160a01b0316331461247b5760405162461bcd60e51b8152600401610ad1906155bd565b80612485816155e8565b91505061210e565b5050505050505050565b63ffffffff8116600090815260db60205260408120816124b684613984565b905081601a01548183601901546124cd9190615895565b116124da578092506124f4565b6000826019015483601a01546124f091906155aa565b9350505b5050919050565b60005b60de5460ff821610156127075760de8160ff16815481106125215761252161557e565b6000918252602090912001546001600160a01b031633036126945760005b8c81101561268e5760d18054600160401b900463ffffffff16906008612564836156c3565b91906101000a81548163ffffffff021916908363ffffffff1602179055505060008c8c838181106125975761259761557e565b90506020020135111561267c5760008c8c838181106125b8576125b861557e565b9050602002013560036125cb91906158a8565b905061267a8f8f848181106125e2576125e261557e565b90506020020160208101906125f79190614fd9565b8e8e858181106126095761260961557e565b905060200201358d8d868181106126225761262261557e565b90506020020135848d8d8881811061263c5761263c61557e565b905060200201358c8c898181106126555761265561557e565b905060200201358b8b8a81811061266e5761266e61557e565b90506020020135613e7c565b505b80612686816158bf565b91505061253f565b50612707565b60de546126a3906001906155aa565b8160ff16036126f55760de8160ff16815481106126c2576126c261557e565b6000918252602090912001546001600160a01b031633146126f55760405162461bcd60e51b8152600401610ad1906155bd565b806126ff816155e8565b9150506124fe565b50505050505050505050505050565b60005b60de5460ff82161015610aec5760de8160ff168154811061273c5761273c61557e565b6000918252602090912001546001600160a01b03163303612878576001600160a01b038216600090815260da60205260408120805460ff1916905560d854905b81811015610ef857836001600160a01b031660d882815481106127a1576127a161557e565b6000918252602090912001546001600160a01b0316036128665760d86127c86001846155aa565b815481106127d8576127d861557e565b60009182526020909120015460d880546001600160a01b0390921691839081106128045761280461557e565b9060005260206000200160006101000a8154816001600160a01b0302191690836001600160a01b0316021790555060d8805480612843576128436158d8565b600082815260209020810160001990810180546001600160a01b03191690550190555b80612870816158bf565b91505061277c565b60de54612887906001906155aa565b8160ff16036128d95760de8160ff16815481106128a6576128a661557e565b6000918252602090912001546001600160a01b031633146128d95760405162461bcd60e51b8152600401610ad1906155bd565b806128e3816155e8565b915050612719565b3460006128f7826136e9565b905061290460cc54613653565b8210156129535760405162461bcd60e51b815260206004820152601f60248201527f56616c75652073686f756c6420626520677265617465207468656e20313030006044820152606401610ad1565b60d1543390429060009061297590600160201b900463ffffffff16600161569f565b60d15490915060009061299690600160401b900463ffffffff16600161569f565b6001600160a01b038516600090815260da6020526040902060d4549192509060ff16156129c9576129c983838887613776565b612a1083604051806020016040528060008152508a60405180602001604052806000815250898b8c60036129fd91906158a8565b60cb548c9062010000900460ff16613feb565b6001908101805491820181556000908152602090206008820401805460079092166004026101000a63ffffffff81810219909316949092169190910292909217909155505050505050565b63ffffffff8116600090815260db6020908152604080832060060180548251818502810185019093528083528493830182828015612ae457602002820191906000526020600020906000905b82829054906101000a900463ffffffff1663ffffffff1681526020019060040190602082600301049283019260010382029150808411612aa75790505b505050505090506000805b82518161ffff161015612b6a57600060dc6000858461ffff1681518110612b1857612b1861557e565b60209081029190910181015163ffffffff168252810191909152604001600020805490915060ff1615612b57576001810154612b549084615895565b92505b5080612b628161587e565b915050612aef565b509392505050565b612b7a6132cf565b6001600160a01b038116612bdf5760405162461bcd60e51b815260206004820152602660248201527f4f776e61626c653a206e6577206f776e657220697320746865207a65726f206160448201526564647265737360d01b6064820152608401610ad1565b610b5e816134b8565b63ffffffff8216600090815260db60205260409020600281015461010090046001600160a01b03163314612c2e5760405162461bcd60e51b8152600401610ad190615742565b6000612c39826142c2565b6018830154909150612c4b81836155aa565b841115612cad5760405162461bcd60e51b815260206004820152602a60248201527f506c6561736520656e7465722076616c7565206c657373207468656e20796f7560448201526939103130b630b731b29760b11b6064820152608401610ad1565b83836018016000828254612cc19190615895565b909155503390506108fc612cd486613653565b6040518115909202916000818181858888f19350505050158015612cfc573d6000803e3d6000fd5b505050505050565b612e07604051806103e00160405280600063ffffffff1681526020016060815260200160001515815260200160006001600160a01b0316815260200160008152602001600081526020016000815260200160608152602001600063ffffffff1681526020016060815260200160608152602001606081526020016000815260200160008152602001600081526020016000815260200160008152602001600081526020016000815260200160008152602001600060ff168152602001600081526020016000815260200160008152602001600081526020016000815260200160008152602001600081526020016000815260200160008152602001600081525090565b63ffffffff808316600090815260db602090815260409182902082516103e081019093528054909316825260018301805492939291840191612e48906156e6565b80601f0160208091040260200160405190810160405280929190818152602001828054612e74906156e6565b8015612ec15780601f10612e9657610100808354040283529160200191612ec1565b820191906000526020600020905b815481529060010190602001808311612ea457829003601f168201915b5050509183525050600282015460ff811615156020808401919091526101009091046001600160a01b03166040808401919091526003840154606084015260048401546080840152600584015460a084015260068401805482518185028101850190935280835260c0909401939192909190830182828015612f8e57602002820191906000526020600020906000905b82829054906101000a900463ffffffff1663ffffffff1681526020019060040190602082600301049283019260010382029150808411612f515790505b5050509183525050600782015463ffffffff16602080830191909152600883018054604080518285028101850182528281529401939283018282801561301f57602002820191906000526020600020906000905b82829054906101000a900463ffffffff1663ffffffff1681526020019060040190602082600301049283019260010382029150808411612fe25790505b50505050508152602001600982018054806020026020016040519081016040528092919081815260200182805480156130a357602002820191906000526020600020906000905b82829054906101000a900463ffffffff1663ffffffff16815260200190600401906020826003010492830192600103820291508084116130665790505b50505050508152602001600a820180548060200260200160405190810160405280929190818152602001828054801561312757602002820191906000526020600020906000905b82829054906101000a900463ffffffff1663ffffffff16815260200190600401906020826003010492830192600103820291508084116130ea5790505b5050509183525050600b8201546020820152600c8201546040820152600d8201546060820152600e8201546080820152600f82015460a0820152601082015460c0820152601182015460e08201526012820154610100820152601382015460ff1661012082015260148201546101408201526015820154610160820152601682015461018082015260178201546101a082015260188201546101c082015260198201546101e0820152601a820154610200820152601b820154610220820152601c820154610240820152601d909101546102609091015292915050565b6040805180820190915260008152606060208201526001600160a01b038216600090815260da602090815260409182902082518084018452815460ff1615158152600182018054855181860281018601909652808652919492938581019392908301828280156132bf57602002820191906000526020600020906000905b82829054906101000a900463ffffffff1663ffffffff16815260200190600401906020826003010492830192600103820291508084116132825790505b5050505050815250509050919050565b6033546001600160a01b031633146112195760405162461bcd60e51b815260206004820181905260248201527f4f776e61626c653a2063616c6c6572206973206e6f7420746865206f776e65726044820152606401610ad1565b6000805160206159a4833981519152546001600160a01b031690565b610b5e6132cf565b7f4910fdfa16fed3260ed0e7147f7cc6da11a60208b5b9406d12a635614ffd91435460ff161561338057610a09836142ea565b826001600160a01b03166352d1902d6040518163ffffffff1660e01b8152600401602060405180830381865afa9250505080156133da575060408051601f3d908101601f191682019092526133d7918101906158ee565b60015b61343d5760405162461bcd60e51b815260206004820152602e60248201527f45524331393637557067726164653a206e657720696d706c656d656e7461746960448201526d6f6e206973206e6f74205555505360901b6064820152608401610ad1565b6000805160206159a483398151915281146134ac5760405162461bcd60e51b815260206004820152602960248201527f45524331393637557067726164653a20756e737570706f727465642070726f786044820152681a58589b195555525160ba1b6064820152608401610ad1565b50610a09838383614384565b603380546001600160a01b038381166001600160a01b0319831681179093556040519116919082907f8be0079c531659141344cd1fd0a4f28419497f9722a3daafe3b4186f6b6457e090600090a35050565b60d95460009060ff16815b8160ff168160ff1610156124f45760ff8116600090815260dd602052604090206001015461018085015110801590613567575060ff8116600090815260dd60205260409020600201546101c085015110155b801561358d575060ff8116600090815260dd602052604090206003015461020085015110155b1561359a5780925061359f565b6124f4565b806135a9816155e8565b915050613515565b6001600160a01b03163b151590565b600054610100900460ff166135e75760405162461bcd60e51b8152600401610ad190615907565b6112196143a9565b600054610100900460ff166112195760405162461bcd60e51b8152600401610ad190615907565b61012081015151600090818115611fec5760d454600190613641906301000000900460ff16846158a8565b61364b91906155aa565b949350505050565b60008060c960009054906101000a90046001600160a01b03166001600160a01b031663e1aa60366040518163ffffffff1660e01b8152600401602060405180830381865afa1580156136a9573d6000803e3d6000fd5b505050506040513d601f19601f820116820180604052508101906136cd91906158ee565b6136df84670de0b6b3a76400006158a8565b611fec9190615952565b600080670de0b6b3a764000060c960009054906101000a90046001600160a01b03166001600160a01b031663e1aa60366040518163ffffffff1660e01b8152600401602060405180830381865afa158015613748573d6000803e3d6000fd5b505050506040513d601f19601f8201168201806040525081019061376c91906158ee565b6136df90856158a8565b63ffffffff838116600081815260dc6020908152604080832089861680855260db84529184208154600164ffffffffff1990911661010094850217811783558083018a905560d18054600285018054600160601b90920461ffff1661ffff19909216919091179055600384018a905560d254600480860191909155600684018054938401815588529590962060088083049091018054600790931690960290940a8089021990911696029590951790925582549194600160401b9092049091169190613841836156c3565b91906101000a81548163ffffffff021916908363ffffffff16021790555050505050505050565b60cb5463ffffffff8416600090815260db602052604090206201000090910460ff16906138968460026158a8565b81601a01819055508381600b0160008282546138b29190615895565b92505081905550838160170160008282546138cd9190615895565b90915550600090505b82811015612cfc57600782015463ffffffff908116600081815260db6020526040812080549293909216900361390d575050612cfc565b8260000361392f578681600d0160008282546139299190615895565b90915550505b8681600f0160008282546139439190615895565b909155505060d454610100900460ff161561396457613964818389896143d9565b61396e8787614a6d565b925081905061397c816158bf565b9150506138d6565b63ffffffff808216600090815260db6020908152604080832081516103e0810190925280549094168152600184018054939485949293909290840191906139ca906156e6565b80601f01602080910402602001604051908101604052809291908181526020018280546139f6906156e6565b8015613a435780601f10613a1857610100808354040283529160200191613a43565b820191906000526020600020905b815481529060010190602001808311613a2657829003601f168201915b5050509183525050600282015460ff811615156020808401919091526101009091046001600160a01b03166040808401919091526003840154606084015260048401546080840152600584015460a084015260068401805482518185028101850190935280835260c0909401939192909190830182828015613b1057602002820191906000526020600020906000905b82829054906101000a900463ffffffff1663ffffffff1681526020019060040190602082600301049283019260010382029150808411613ad35790505b5050509183525050600782015463ffffffff166020808301919091526008830180546040805182850281018501825282815294019392830182828015613ba157602002820191906000526020600020906000905b82829054906101000a900463ffffffff1663ffffffff1681526020019060040190602082600301049283019260010382029150808411613b645790505b5050505050815260200160098201805480602002602001604051908101604052809291908181526020018280548015613c2557602002820191906000526020600020906000905b82829054906101000a900463ffffffff1663ffffffff1681526020019060040190602082600301049283019260010382029150808411613be85790505b50505050508152602001600a8201805480602002602001604051908101604052809291908181526020018280548015613ca957602002820191906000526020600020906000905b82829054906101000a900463ffffffff1663ffffffff1681526020019060040190602082600301049283019260010382029150808411613c6c5790505b5050509183525050600b8201546020820152600c8201546040820152600d8201546060820152600e8201546080820152600f82015460a0820152601082015460c0820152601182015460e0808301919091526012830154610100830152601383015460ff1661012083015260148301546101408301526015830154610160830152601683015461018083015260178301546101a083015260188301546101c083015260198301546101e0830152601a830154610200830152601b830154610220830152601c830154610240830152601d909201546102609091015281015180519192509060005b818161ffff161015613e6257600060dc6000858461ffff1681518110613db857613db861557e565b60209081029190910181015163ffffffff168252810191909152604001600090812060d25460cb5460d154600184015493955042949361ffff92831692613e0792600160601b900416906158a8565b613e119190615952565b613e1b9190615952565b90506000836003015483613e2f91906155aa565b9050613e3f818560040154614aa7565b613e4990836158a8565b9850505050508080613e5a9061587e565b915050613d90565b506103a0830151613e7390856155aa565b50505050919050565b63ffffffff8716600090815260db6020526040902060cb546003820184905560048201839055600c8201889055601582018790556018820185905560198201879055601a820186905560d45460ff620100009092048216911615613ef75760d154613ef7908a90600160401b900463ffffffff168a42613776565b60005b8160ff168160ff161015613fdf57600783015463ffffffff908116600081815260db60205260408120805492939092169003613f37575050613fdf565b8260ff16600003613f5c578a81600e016000828254613f569190615895565b90915550505b8a816010016000828254613f709190615895565b92505081905550806009018c90806001815401808255809150506001900390600052602060002090600891828204019190066004029091909190916101000a81548163ffffffff021916908363ffffffff16021790555080945050508080613fd7906155e8565b915050613efa565b50505050505050505050565b63ffffffff898116600081815260db60205260408120805463ffffffff199081169093178155600781018054909316938b1693909317909155600282018054610100600160a81b0319166101006001600160a01b038a16021790556003820184905560048201849055601a8201859055600b8201805487929061406f908490615895565b9091555050600181016140828a826157bf565b5060005b8260ff168160ff16101561427957600782015463ffffffff908116600081815260db602052604081208054929390921690036140c3575050614279565b8260ff1660000361414c578781600d0160008282546140e29190615895565b92505081905550806008018d90806001815401808255809150506001900390600052602060002090600891828204019190066004029091909190916101000a81548163ffffffff021916908363ffffffff1602179055508981600101908161414a91906157bf565b505b8781600f0160008282546141609190615895565b92505081905550806009018d90806001815401808255809150506001900390600052602060002090600891828204019190066004029091909190916101000a81548163ffffffff021916908363ffffffff1602179055508c63ffffffff168b63ffffffff168260020160019054906101000a90046001600160a01b03166001600160a01b03167fa7fafc728ec30e34dc1e1276496bf3eb44ca7494679da969455289e6a8f0f1f68760070160009054906101000a900463ffffffff16604051614235919063ffffffff91909116815260200190565b60405180910390a460d454610100900460ff16156142595761425981838a896143d9565b6142638887614a6d565b9250819050614271816155e8565b915050614086565b5060d18054600160201b900463ffffffff16906004614297836156c3565b91906101000a81548163ffffffff021916908363ffffffff1602179055505050505050505050505050565b600081601a0154826019015410156142de5781601901546142e4565b81601a01545b92915050565b6142f3816135b1565b6143555760405162461bcd60e51b815260206004820152602d60248201527f455243313936373a206e657720696d706c656d656e746174696f6e206973206e60448201526c1bdd08184818dbdb9d1c9858dd609a1b6064820152608401610ad1565b6000805160206159a483398151915280546001600160a01b0319166001600160a01b0392909216919091179055565b61438d83614abf565b60008251118061439a5750805b15610a0957610ef88383614aff565b600054610100900460ff166143d05760405162461bcd60e51b8152600401610ad190615907565b611219336134b8565b6013840154604080516103e08101909152855463ffffffff16815260018601805460ff909316926147d192918891602084019190614416906156e6565b80601f0160208091040260200160405190810160405280929190818152602001828054614442906156e6565b801561448f5780601f106144645761010080835404028352916020019161448f565b820191906000526020600020905b81548152906001019060200180831161447257829003601f168201915b5050509183525050600282015460ff811615156020808401919091526101009091046001600160a01b03166040808401919091526003840154606084015260048401546080840152600584015460a084015260068401805482518185028101850190935280835260c090940193919290919083018282801561455c57602002820191906000526020600020906000905b82829054906101000a900463ffffffff1663ffffffff168152602001906004019060208260030104928301926001038202915080841161451f5790505b5050509183525050600782015463ffffffff1660208083019190915260088301805460408051828502810185018252828152940193928301828280156145ed57602002820191906000526020600020906000905b82829054906101000a900463ffffffff1663ffffffff16815260200190600401906020826003010492830192600103820291508084116145b05790505b505050505081526020016009820180548060200260200160405190810160405280929190818152602001828054801561467157602002820191906000526020600020906000905b82829054906101000a900463ffffffff1663ffffffff16815260200190600401906020826003010492830192600103820291508084116146345790505b50505050508152602001600a82018054806020026020016040519081016040528092919081815260200182805480156146f557602002820191906000526020600020906000905b82829054906101000a900463ffffffff1663ffffffff16815260200190600401906020826003010492830192600103820291508084116146b85790505b5050509183525050600b8201546020820152600c8201546040820152600d8201546060820152600e8201546080820152600f82015460a0820152601082015460c0820152601182015460e08201526012820154610100820152601382015460ff1661012082015260148201546101408201526015820154610160820152601682015461018082015260178201546101a082015260188201546101c082015260198201546101e0820152601a820154610200820152601b820154610220820152601c820154610240820152601d909101546102609091015261350a565b60ff161115610ef857604080516103e08101909152845463ffffffff16815260018501805461480c92918791602084019190614416906156e6565b60138501805460ff191660ff9283169081178255600090815260dd6020908152604080832060099081018054600181810183559186529385206008850401805460079095166004026101000a63ffffffff81810219909616958c16029490941790935593549094168252929020015461488591906155aa565b6014850181905560138501546040805163ffffffff87168152602081019390935260ff90911682820152517fb0d3a9c683344e744a1ae3db383f75a8a01851282c5fe97d6159c1392a2e2a0a9181900360600190a1604080516103e08101909152845463ffffffff16815260018501805460dd926000926149109289916020840191614416906156e6565b60ff9081168252602082019290925260400160002060080154610100900416156149d457604080516103e08101909152845463ffffffff16815260018501805460dd9260009261496a9289916020840191614416906156e6565b60ff1660ff1681526020019081526020016000206007015484601201546149919190615895565b8111156149c057808460120181905550818460110160008282546149b59190615895565b90915550610ef89050565b818460110160008282546149b59190615895565b60d454610100900460ff1615610ef857601384015460ff16600090815260dd6020526040902060050154614a09908590614bf1565b601384015460ff908116600090815260dd602090815260409182902060058101549054925192909316825263ffffffff8616917f94b6d3d19cc40938e685ef6a1f6476b53ef65295ab094a044e74405a8d0bd05b910160405180910390a350505050565b60d75460d654614a7d9190615895565b811115614a8c5760d65560d555565b8160d56000828254614a9e9190615895565b90915550505050565b600081831115614ab85750806142e4565b5090919050565b614ac8816142ea565b6040516001600160a01b038216907fbc7cd75a20ee27fd9adebab32041f755214dbc6bffa90cc0225b39da2e5c2d3b90600090a250565b6060614b0a836135b1565b614b655760405162461bcd60e51b815260206004820152602660248201527f416464726573733a2064656c65676174652063616c6c20746f206e6f6e2d636f6044820152651b9d1c9858dd60d21b6064820152608401610ad1565b600080846001600160a01b031684604051614b809190615974565b600060405180830381855af49150503d8060008114614bbb576040519150601f19603f3d011682016040523d82523d6000602084013e614bc0565b606091505b5091509150614be882826040518060600160405280602781526020016159c460279139614c29565b95945050505050565b81601a0154818360190154614c069190615895565b10614c1957601a82015460198301555050565b808260190154610a099190615895565b60608315614c38575081611fec565b611fec8383815115614c4d5781518083602001fd5b8060405162461bcd60e51b8152600401610ad19190615990565b82805482825590600052602060002090600701600890048101928215614d065791602002820160005b83821115614cd457835183826101000a81548163ffffffff021916908363ffffffff1602179055509260200192600401602081600301049283019260010302614c90565b8015614d045782816101000a81549063ffffffff0219169055600401602081600301049283019260010302614cd4565b505b50614d12929150614dac565b5090565b82805482825590600052602060002090600f01601090048101928215614d065791602002820160005b83821115614d7e57835183826101000a81548161ffff021916908360ff1602179055509260200192600201602081600101049283019260010302614d3f565b8015614d045782816101000a81549061ffff0219169055600201602081600101049283019260010302614d7e565b5b80821115614d125760008155600101614dad565b80356001600160a01b0381168114614dd857600080fd5b919050565b60008060408385031215614df057600080fd5b614df983614dc1565b946020939093013593505050565b600060208284031215614e1957600080fd5b611fec82614dc1565b600060208284031215614e3457600080fd5b5035919050565b60008083601f840112614e4d57600080fd5b5081356001600160401b03811115614e6457600080fd5b6020830191508360208260051b8501011115614e7f57600080fd5b9250929050565b60008060208385031215614e9957600080fd5b82356001600160401b03811115614eaf57600080fd5b614ebb85828601614e3b565b90969095509350505050565b634e487b7160e01b600052604160045260246000fd5b604051601f8201601f191681016001600160401b0381118282101715614f0557614f05614ec7565b604052919050565b60006001600160401b03831115614f2657614f26614ec7565b614f39601f8401601f1916602001614edd565b9050828152838383011115614f4d57600080fd5b828260208301376000602084830101529392505050565b60008060408385031215614f7757600080fd5b614f8083614dc1565b915060208301356001600160401b03811115614f9b57600080fd5b8301601f81018513614fac57600080fd5b614fbb85823560208401614f0d565b9150509250929050565b803563ffffffff81168114614dd857600080fd5b600060208284031215614feb57600080fd5b611fec82614fc5565b60008060008060008060006080888a03121561500f57600080fd5b6001600160401b03808935111561502557600080fd5b6150328a8a358b01614e3b565b9098509650602089013581101561504857600080fd5b6150588a60208b01358b01614e3b565b9096509450604089013581101561506e57600080fd5b61507e8a60408b01358b01614e3b565b9094509250606089013581101561509457600080fd5b606089013589018a601f8201126150aa57600080fd5b81813511156150bb576150bb614ec7565b6150cb6020823560051b01614edd565b81358082526020808301929160051b8401018d8111156150ea57600080fd5b602084015b8181101561513b57858135111561510557600080fd5b8e603f82358701011261511757600080fd5b61512d8f82358701602081013590604001614f0d565b8452602093840193016150ef565b50508094505050505092959891949750929550565b60008060008060008060008060008060008060c08d8f03121561517257600080fd5b6001600160401b038d35111561518757600080fd5b6151948e8e358f01614e3b565b909c509a506001600160401b0360208e013511156151b157600080fd5b6151c18e60208f01358f01614e3b565b909a5098506001600160401b0360408e013511156151de57600080fd5b6151ee8e60408f01358f01614e3b565b90985096506001600160401b0360608e0135111561520b57600080fd5b61521b8e60608f01358f01614e3b565b90965094506001600160401b0360808e0135111561523857600080fd5b6152488e60808f01358f01614e3b565b90945092506001600160401b0360a08e0135111561526557600080fd5b6152758e60a08f01358f01614e3b565b81935080925050509295989b509295989b509295989b565b600080604083850312156152a057600080fd5b614df983614fc5565b60005b838110156152c45781810151838201526020016152ac565b50506000910152565b600081518084526152e58160208601602086016152a9565b601f01601f19169290920160200192915050565b600081518084526020808501945080840160005b8381101561532f57815163ffffffff168752958201959082019060010161530d565b509495945050505050565b6020815261535160208201835163ffffffff169052565b600060208301516103e080604085015261536f6104008501836152cd565b91506040850151615384606086018215159052565b5060608501516001600160a01b038116608086015250608085015160a085015260a085015160c085015260c085015160e085015260e0850151601f196101008187860301818801526153d685846152f9565b9450808801519250506101206153f38188018463ffffffff169052565b8088015192505061014081878603018188015261541085846152f9565b94508088015192505061016081878603018188015261542f85846152f9565b94508088015192505061018081878603018188015261544e85846152f9565b908801516101a0888101919091528801516101c0808901919091528801516101e080890191909152880151610200808901919091528801516102208089019190915288015161024080890191909152880151610260808901919091528801516102808089019190915288015190945091506102a090506154d28187018360ff169052565b8601516102c0868101919091528601516102e08087019190915286015161030080870191909152860151610320808701919091528601516103408087019190915286015161036080870191909152860151610380808701919091528601516103a0808701919091528601516103c0808701919091529095015193019290925250919050565b602081528151151560208201526000602083015160408084015261364b60608401826152f9565b634e487b7160e01b600052603260045260246000fd5b634e487b7160e01b600052601160045260246000fd5b818103818111156142e4576142e4615594565b6020808252601190820152702cb7ba9030b932903737ba1030b236b4b760791b604082015260600190565b600060ff821660ff81036155fe576155fe615594565b60010192915050565b6020808252602c908201527f46756e6374696f6e206d7573742062652063616c6c6564207468726f7567682060408201526b19195b1959d85d1958d85b1b60a21b606082015260800190565b6020808252602c908201527f46756e6374696f6e206d7573742062652063616c6c6564207468726f7567682060408201526b6163746976652070726f787960a01b606082015260800190565b63ffffffff8181168382160190808211156156bc576156bc615594565b5092915050565b600063ffffffff8083168181036156dc576156dc615594565b6001019392505050565b600181811c908216806156fa57607f821691505b60208210810361571a57634e487b7160e01b600052602260045260246000fd5b50919050565b60006020828403121561573257600080fd5b81518015158114611fec57600080fd5b6020808252601d908201527f596f7520617265206e6f74206f776e6572206f6620746869732069642e000000604082015260600190565b601f821115610a0957600081815260208120601f850160051c810160208610156157a05750805b601f850160051c820191505b81811015612cfc578281556001016157ac565b81516001600160401b038111156157d8576157d8614ec7565b6157ec816157e684546156e6565b84615779565b602080601f83116001811461582157600084156158095750858301515b600019600386901b1c1916600185901b178555612cfc565b600085815260208120601f198616915b8281101561585057888601518255948401946001909101908401615831565b508582101561586e5787850151600019600388901b60f8161c191681555b5050505050600190811b01905550565b600061ffff8083168181036156dc576156dc615594565b808201808211156142e4576142e4615594565b80820281158282048414176142e4576142e4615594565b6000600182016158d1576158d1615594565b5060010190565b634e487b7160e01b600052603160045260246000fd5b60006020828403121561590057600080fd5b5051919050565b6020808252602b908201527f496e697469616c697a61626c653a20636f6e7472616374206973206e6f74206960408201526a6e697469616c697a696e6760a81b606082015260800190565b60008261596f57634e487b7160e01b600052601260045260246000fd5b500490565b600082516159868184602087016152a9565b9190910192915050565b602081526000611fec60208301846152cd56fe360894a13ba1a3210667c828492db98dca3e2076cc3735a920a3ca505d382bbc416464726573733a206c6f772d6c6576656c2064656c65676174652063616c6c206661696c6564a2646970667358221220eba37be05b8e57c1e86a5e9514addffd43c588c086f0e24ec9e7b2dcb9ed040264736f6c63430008110033",
  "linkReferences": {},
  "deployedLinkReferences": {}
}