{
  "_format": "hh-sol-artifact-1",
  "contractName": "ReferralV2Upgradeable",
  "sourceName": "contracts/ReferralV2Upgradeable.sol",
  "abi": [
    {
      "anonymous": false,
      "inputs": [
        {
          "indexed": false,
          "internalType": "address",
          "name": "ownerAddress",
          "type": "address"
        },
        {
          "indexed": false,
          "internalType": "uint256",
          "name": "id",
          "type": "uint256"
        },
        {
          "indexed": false,
          "internalType": "uint256",
          "name": "idIndex",
          "type": "uint256"
        }
      ],
      "name": "AccountInfoIDAttached",
      "type": "event"
    },
    {
      "anonymous": false,
      "inputs": [
        {
          "indexed": false,
          "internalType": "uint256",
          "name": "userID",
          "type": "uint256"
        },
        {
          "indexed": false,
          "internalType": "uint256",
          "name": "index",
          "type": "uint256"
        },
        {
          "indexed": false,
          "internalType": "uint256",
          "name": "rank",
          "type": "uint256"
        }
      ],
      "name": "AddedInRoyaltyClubList",
      "type": "event"
    },
    {
      "anonymous": false,
      "inputs": [
        {
          "indexed": false,
          "internalType": "address",
          "name": "previousAdmin",
          "type": "address"
        },
        {
          "indexed": false,
          "internalType": "address",
          "name": "newAdmin",
          "type": "address"
        }
      ],
      "name": "AdminChanged",
      "type": "event"
    },
    {
      "anonymous": false,
      "inputs": [
        {
          "indexed": true,
          "internalType": "address",
          "name": "beacon",
          "type": "address"
        }
      ],
      "name": "BeaconUpgraded",
      "type": "event"
    },
    {
      "anonymous": false,
      "inputs": [
        {
          "indexed": false,
          "internalType": "uint256",
          "name": "id",
          "type": "uint256"
        },
        {
          "indexed": false,
          "internalType": "string",
          "name": "reason",
          "type": "string"
        }
      ],
      "name": "IDDeactivated",
      "type": "event"
    },
    {
      "anonymous": false,
      "inputs": [
        {
          "indexed": false,
          "internalType": "uint8",
          "name": "version",
          "type": "uint8"
        }
      ],
      "name": "Initialized",
      "type": "event"
    },
    {
      "anonymous": false,
      "inputs": [
        {
          "indexed": true,
          "internalType": "address",
          "name": "previousOwner",
          "type": "address"
        },
        {
          "indexed": true,
          "internalType": "address",
          "name": "newOwner",
          "type": "address"
        }
      ],
      "name": "OwnershipTransferred",
      "type": "event"
    },
    {
      "anonymous": false,
      "inputs": [
        {
          "indexed": false,
          "internalType": "uint256",
          "name": "packageID",
          "type": "uint256"
        }
      ],
      "name": "PackageAdded",
      "type": "event"
    },
    {
      "anonymous": false,
      "inputs": [
        {
          "indexed": false,
          "internalType": "uint256",
          "name": "packageID",
          "type": "uint256"
        }
      ],
      "name": "PackageRemoved",
      "type": "event"
    },
    {
      "anonymous": false,
      "inputs": [
        {
          "indexed": false,
          "internalType": "uint256",
          "name": "packageID",
          "type": "uint256"
        }
      ],
      "name": "PackageUpdated",
      "type": "event"
    },
    {
      "anonymous": false,
      "inputs": [
        {
          "indexed": true,
          "internalType": "uint256",
          "name": "userID",
          "type": "uint256"
        },
        {
          "indexed": true,
          "internalType": "uint256",
          "name": "reward",
          "type": "uint256"
        }
      ],
      "name": "ROIClaimed",
      "type": "event"
    },
    {
      "anonymous": false,
      "inputs": [
        {
          "indexed": true,
          "internalType": "uint256",
          "name": "refererID",
          "type": "uint256"
        },
        {
          "indexed": true,
          "internalType": "uint256",
          "name": "level",
          "type": "uint256"
        },
        {
          "indexed": true,
          "internalType": "string",
          "name": "reason",
          "type": "string"
        }
      ],
      "name": "ReferralNotPaid",
      "type": "event"
    },
    {
      "anonymous": false,
      "inputs": [
        {
          "indexed": true,
          "internalType": "uint256",
          "name": "refereeID",
          "type": "uint256"
        },
        {
          "indexed": true,
          "internalType": "uint256",
          "name": "referrerID",
          "type": "uint256"
        },
        {
          "indexed": true,
          "internalType": "uint256",
          "name": "amount",
          "type": "uint256"
        },
        {
          "indexed": false,
          "internalType": "uint256",
          "name": "level",
          "type": "uint256"
        }
      ],
      "name": "ReferralRewardPaid",
      "type": "event"
    },
    {
      "anonymous": false,
      "inputs": [
        {
          "indexed": true,
          "internalType": "address",
          "name": "refereeID",
          "type": "address"
        },
        {
          "indexed": true,
          "internalType": "address",
          "name": "referrerID",
          "type": "address"
        },
        {
          "indexed": true,
          "internalType": "string",
          "name": "reason",
          "type": "string"
        }
      ],
      "name": "RegisterRefererFailed",
      "type": "event"
    },
    {
      "anonymous": false,
      "inputs": [
        {
          "indexed": true,
          "internalType": "uint256",
          "name": "id",
          "type": "uint256"
        },
        {
          "indexed": true,
          "internalType": "uint256",
          "name": "refererID",
          "type": "uint256"
        }
      ],
      "name": "RegisteredReferer",
      "type": "event"
    },
    {
      "anonymous": false,
      "inputs": [
        {
          "indexed": true,
          "internalType": "address",
          "name": "parent",
          "type": "address"
        },
        {
          "indexed": false,
          "internalType": "uint256",
          "name": "parentAccountID",
          "type": "uint256"
        },
        {
          "indexed": true,
          "internalType": "uint256",
          "name": "referrerID",
          "type": "uint256"
        },
        {
          "indexed": true,
          "internalType": "uint256",
          "name": "refereeID",
          "type": "uint256"
        }
      ],
      "name": "RegisteredTeamAddress",
      "type": "event"
    },
    {
      "anonymous": false,
      "inputs": [
        {
          "indexed": false,
          "internalType": "uint256",
          "name": "packageID",
          "type": "uint256"
        },
        {
          "indexed": true,
          "internalType": "uint256",
          "name": "userID",
          "type": "uint256"
        },
        {
          "indexed": true,
          "internalType": "uint256",
          "name": "amount",
          "type": "uint256"
        }
      ],
      "name": "RoyaltyClubBonusPaid",
      "type": "event"
    },
    {
      "anonymous": false,
      "inputs": [
        {
          "indexed": true,
          "internalType": "address",
          "name": "implementation",
          "type": "address"
        }
      ],
      "name": "Upgraded",
      "type": "event"
    },
    {
      "inputs": [
        {
          "internalType": "uint256",
          "name": "",
          "type": "uint256"
        }
      ],
      "name": "_disabledUsersList",
      "outputs": [
        {
          "internalType": "address",
          "name": "",
          "type": "address"
        }
      ],
      "stateMutability": "view",
      "type": "function"
    },
    {
      "inputs": [
        {
          "internalType": "uint32",
          "name": "_refererID",
          "type": "uint32"
        }
      ],
      "name": "activateID",
      "outputs": [],
      "stateMutability": "payable",
      "type": "function"
    },
    {
      "inputs": [
        {
          "internalType": "uint32",
          "name": "_userID",
          "type": "uint32"
        }
      ],
      "name": "addTeamAddress",
      "outputs": [],
      "stateMutability": "nonpayable",
      "type": "function"
    },
    {
      "inputs": [
        {
          "internalType": "uint256",
          "name": "",
          "type": "uint256"
        }
      ],
      "name": "admins",
      "outputs": [
        {
          "internalType": "address",
          "name": "",
          "type": "address"
        }
      ],
      "stateMutability": "view",
      "type": "function"
    },
    {
      "inputs": [
        {
          "internalType": "uint32",
          "name": "_id",
          "type": "uint32"
        },
        {
          "internalType": "uint256",
          "name": "_valueInUSD",
          "type": "uint256"
        }
      ],
      "name": "claimBalance",
      "outputs": [],
      "stateMutability": "nonpayable",
      "type": "function"
    },
    {
      "inputs": [],
      "name": "companyTurnoverTimeLimit",
      "outputs": [
        {
          "internalType": "uint256",
          "name": "",
          "type": "uint256"
        }
      ],
      "stateMutability": "view",
      "type": "function"
    },
    {
      "inputs": [],
      "name": "companyTurnoverTimeStamp",
      "outputs": [
        {
          "internalType": "uint256",
          "name": "",
          "type": "uint256"
        }
      ],
      "stateMutability": "view",
      "type": "function"
    },
    {
      "inputs": [],
      "name": "companyTurnoverWithTimeLimit",
      "outputs": [
        {
          "internalType": "uint256",
          "name": "",
          "type": "uint256"
        }
      ],
      "stateMutability": "view",
      "type": "function"
    },
    {
      "inputs": [],
      "name": "decimals",
      "outputs": [
        {
          "internalType": "uint16",
          "name": "",
          "type": "uint16"
        }
      ],
      "stateMutability": "view",
      "type": "function"
    },
    {
      "inputs": [
        {
          "internalType": "address",
          "name": "_userAddress",
          "type": "address"
        }
      ],
      "name": "disableUserAdmin",
      "outputs": [],
      "stateMutability": "nonpayable",
      "type": "function"
    },
    {
      "inputs": [
        {
          "internalType": "uint32",
          "name": "_id",
          "type": "uint32"
        }
      ],
      "name": "getIDAccount",
      "outputs": [
        {
          "components": [
            {
              "internalType": "uint32",
              "name": "id",
              "type": "uint32"
            },
            {
              "internalType": "string",
              "name": "oldID",
              "type": "string"
            },
            {
              "internalType": "bool",
              "name": "isDisabled",
              "type": "bool"
            },
            {
              "internalType": "address",
              "name": "owner",
              "type": "address"
            },
            {
              "internalType": "uint256",
              "name": "joiningTime",
              "type": "uint256"
            },
            {
              "internalType": "uint256",
              "name": "activationTime",
              "type": "uint256"
            },
            {
              "internalType": "uint256",
              "name": "deactivateTime",
              "type": "uint256"
            },
            {
              "internalType": "uint32[]",
              "name": "roiIDs",
              "type": "uint32[]"
            },
            {
              "internalType": "uint32",
              "name": "refererID",
              "type": "uint32"
            },
            {
              "internalType": "uint32[]",
              "name": "refereeIDs",
              "type": "uint32[]"
            },
            {
              "internalType": "uint32[]",
              "name": "teamIDs",
              "type": "uint32[]"
            },
            {
              "internalType": "uint32[]",
              "name": "teamLevel",
              "type": "uint32[]"
            },
            {
              "internalType": "uint256",
              "name": "selfBusinessUSD",
              "type": "uint256"
            },
            {
              "internalType": "uint256",
              "name": "selfBusinessUSDOld",
              "type": "uint256"
            },
            {
              "internalType": "uint256",
              "name": "directBusinessUSD",
              "type": "uint256"
            },
            {
              "internalType": "uint256",
              "name": "directBusinessUSDOld",
              "type": "uint256"
            },
            {
              "internalType": "uint256",
              "name": "teamBusinessUSD",
              "type": "uint256"
            },
            {
              "internalType": "uint256",
              "name": "teamBusinessUSDOld",
              "type": "uint256"
            },
            {
              "internalType": "uint256",
              "name": "royaltyClubBusinessUSD",
              "type": "uint256"
            },
            {
              "internalType": "uint256",
              "name": "timeStampRoyaltyClub",
              "type": "uint256"
            },
            {
              "internalType": "uint8",
              "name": "royaltyClubPackageID",
              "type": "uint8"
            },
            {
              "internalType": "uint256",
              "name": "royaltyClubListIndex",
              "type": "uint256"
            },
            {
              "internalType": "uint256",
              "name": "referralPaidUSD",
              "type": "uint256"
            },
            {
              "internalType": "uint256",
              "name": "rewardPaidRoyaltyClubUSD",
              "type": "uint256"
            },
            {
              "internalType": "uint256",
              "name": "topUpUSD",
              "type": "uint256"
            },
            {
              "internalType": "uint256",
              "name": "balanceClaimedUSD",
              "type": "uint256"
            },
            {
              "internalType": "uint256",
              "name": "limitBalanceUSD",
              "type": "uint256"
            },
            {
              "internalType": "uint256",
              "name": "maxLimitAmount",
              "type": "uint256"
            },
            {
              "internalType": "uint256",
              "name": "totalROIClaimedUSD",
              "type": "uint256"
            },
            {
              "internalType": "uint256",
              "name": "roiClaimedUSD",
              "type": "uint256"
            },
            {
              "internalType": "uint256",
              "name": "roiClaimTimestamp",
              "type": "uint256"
            }
          ],
          "internalType": "struct ReferralV2Upgradeable.StructID",
          "name": "",
          "type": "tuple"
        }
      ],
      "stateMutability": "view",
      "type": "function"
    },
    {
      "inputs": [
        {
          "internalType": "uint32",
          "name": "_id",
          "type": "uint32"
        }
      ],
      "name": "getIDRoyaltyClubLevel",
      "outputs": [
        {
          "internalType": "uint256",
          "name": "",
          "type": "uint256"
        }
      ],
      "stateMutability": "view",
      "type": "function"
    },
    {
      "inputs": [],
      "name": "getPriceOracleContract",
      "outputs": [
        {
          "internalType": "address",
          "name": "",
          "type": "address"
        }
      ],
      "stateMutability": "view",
      "type": "function"
    },
    {
      "inputs": [
        {
          "internalType": "uint32",
          "name": "_roiID",
          "type": "uint32"
        }
      ],
      "name": "getROIAccount",
      "outputs": [
        {
          "components": [
            {
              "internalType": "bool",
              "name": "isActive",
              "type": "bool"
            },
            {
              "internalType": "uint32",
              "name": "ownerID",
              "type": "uint32"
            },
            {
              "internalType": "uint256",
              "name": "valueInUSD",
              "type": "uint256"
            },
            {
              "internalType": "uint16",
              "name": "roiRate",
              "type": "uint16"
            },
            {
              "internalType": "uint256",
              "name": "startTime",
              "type": "uint256"
            },
            {
              "internalType": "uint256",
              "name": "duration",
              "type": "uint256"
            }
          ],
          "internalType": "struct ReferralV2Upgradeable.StructROI",
          "name": "",
          "type": "tuple"
        }
      ],
      "stateMutability": "view",
      "type": "function"
    },
    {
      "inputs": [
        {
          "internalType": "address",
          "name": "_address",
          "type": "address"
        }
      ],
      "name": "getUserAccount",
      "outputs": [
        {
          "components": [
            {
              "internalType": "bool",
              "name": "isDisabled",
              "type": "bool"
            },
            {
              "internalType": "uint32[]",
              "name": "accountIDs",
              "type": "uint32[]"
            }
          ],
          "internalType": "struct ReferralV2Upgradeable.StructAccount",
          "name": "",
          "type": "tuple"
        }
      ],
      "stateMutability": "view",
      "type": "function"
    },
    {
      "inputs": [
        {
          "internalType": "uint32",
          "name": "_id",
          "type": "uint32"
        }
      ],
      "name": "getUserIDTotalROI",
      "outputs": [
        {
          "internalType": "uint256",
          "name": "roi",
          "type": "uint256"
        }
      ],
      "stateMutability": "view",
      "type": "function"
    },
    {
      "inputs": [
        {
          "internalType": "uint32",
          "name": "_id",
          "type": "uint32"
        }
      ],
      "name": "getUserTotalActiveROIValue",
      "outputs": [
        {
          "internalType": "uint256",
          "name": "",
          "type": "uint256"
        }
      ],
      "stateMutability": "view",
      "type": "function"
    },
    {
      "inputs": [
        {
          "internalType": "uint32",
          "name": "_id",
          "type": "uint32"
        }
      ],
      "name": "getUserUnlockCount",
      "outputs": [
        {
          "internalType": "uint256",
          "name": "",
          "type": "uint256"
        }
      ],
      "stateMutability": "view",
      "type": "function"
    },
    {
      "inputs": [],
      "name": "initialize",
      "outputs": [],
      "stateMutability": "nonpayable",
      "type": "function"
    },
    {
      "inputs": [],
      "name": "isPayROI",
      "outputs": [
        {
          "internalType": "bool",
          "name": "",
          "type": "bool"
        }
      ],
      "stateMutability": "view",
      "type": "function"
    },
    {
      "inputs": [],
      "name": "isPayRoyaltyClubBonus",
      "outputs": [
        {
          "internalType": "bool",
          "name": "",
          "type": "bool"
        }
      ],
      "stateMutability": "view",
      "type": "function"
    },
    {
      "inputs": [
        {
          "internalType": "address",
          "name": "_userAddress",
          "type": "address"
        }
      ],
      "name": "isUserDisabledByAdmin",
      "outputs": [
        {
          "internalType": "bool",
          "name": "",
          "type": "bool"
        }
      ],
      "stateMutability": "view",
      "type": "function"
    },
    {
      "inputs": [
        {
          "internalType": "uint256",
          "name": "",
          "type": "uint256"
        }
      ],
      "name": "levelRates",
      "outputs": [
        {
          "internalType": "uint16",
          "name": "",
          "type": "uint16"
        }
      ],
      "stateMutability": "view",
      "type": "function"
    },
    {
      "inputs": [],
      "name": "maxLevelsCount",
      "outputs": [
        {
          "internalType": "uint8",
          "name": "",
          "type": "uint8"
        }
      ],
      "stateMutability": "view",
      "type": "function"
    },
    {
      "inputs": [],
      "name": "minContributionInUSD",
      "outputs": [
        {
          "internalType": "uint256",
          "name": "",
          "type": "uint256"
        }
      ],
      "stateMutability": "view",
      "type": "function"
    },
    {
      "inputs": [],
      "name": "owner",
      "outputs": [
        {
          "internalType": "address",
          "name": "",
          "type": "address"
        }
      ],
      "stateMutability": "view",
      "type": "function"
    },
    {
      "inputs": [],
      "name": "packagesCount",
      "outputs": [
        {
          "internalType": "uint8",
          "name": "",
          "type": "uint8"
        }
      ],
      "stateMutability": "view",
      "type": "function"
    },
    {
      "inputs": [],
      "name": "proxiableUUID",
      "outputs": [
        {
          "internalType": "bytes32",
          "name": "",
          "type": "bytes32"
        }
      ],
      "stateMutability": "view",
      "type": "function"
    },
    {
      "inputs": [
        {
          "internalType": "address",
          "name": "_userAddress",
          "type": "address"
        }
      ],
      "name": "removeUserFromDisableList",
      "outputs": [],
      "stateMutability": "nonpayable",
      "type": "function"
    },
    {
      "inputs": [],
      "name": "renounceOwnership",
      "outputs": [],
      "stateMutability": "nonpayable",
      "type": "function"
    },
    {
      "inputs": [],
      "name": "royaltyClubPackageCount",
      "outputs": [
        {
          "internalType": "uint8",
          "name": "",
          "type": "uint8"
        }
      ],
      "stateMutability": "view",
      "type": "function"
    },
    {
      "inputs": [
        {
          "internalType": "address",
          "name": "_address",
          "type": "address"
        },
        {
          "internalType": "uint256",
          "name": "_value",
          "type": "uint256"
        }
      ],
      "name": "sendETHAdmin",
      "outputs": [],
      "stateMutability": "nonpayable",
      "type": "function"
    },
    {
      "inputs": [
        {
          "internalType": "address",
          "name": "_adminAddress",
          "type": "address"
        }
      ],
      "name": "setAdmin",
      "outputs": [],
      "stateMutability": "nonpayable",
      "type": "function"
    },
    {
      "inputs": [
        {
          "internalType": "address",
          "name": "_contractAddress",
          "type": "address"
        }
      ],
      "name": "setPriceOracleContract",
      "outputs": [],
      "stateMutability": "nonpayable",
      "type": "function"
    },
    {
      "inputs": [
        {
          "internalType": "uint32",
          "name": "_id",
          "type": "uint32"
        }
      ],
      "name": "topUpID",
      "outputs": [],
      "stateMutability": "payable",
      "type": "function"
    },
    {
      "inputs": [],
      "name": "totalIDs",
      "outputs": [
        {
          "internalType": "uint32",
          "name": "",
          "type": "uint32"
        }
      ],
      "stateMutability": "view",
      "type": "function"
    },
    {
      "inputs": [],
      "name": "totalROIIDs",
      "outputs": [
        {
          "internalType": "uint32",
          "name": "",
          "type": "uint32"
        }
      ],
      "stateMutability": "view",
      "type": "function"
    },
    {
      "inputs": [],
      "name": "totalROIPaidUSD",
      "outputs": [
        {
          "internalType": "uint256",
          "name": "",
          "type": "uint256"
        }
      ],
      "stateMutability": "view",
      "type": "function"
    },
    {
      "inputs": [],
      "name": "totalReferralPaidUSD",
      "outputs": [
        {
          "internalType": "uint256",
          "name": "",
          "type": "uint256"
        }
      ],
      "stateMutability": "view",
      "type": "function"
    },
    {
      "inputs": [],
      "name": "totalRoyaltyClubBonusPaidETH",
      "outputs": [
        {
          "internalType": "uint256",
          "name": "",
          "type": "uint256"
        }
      ],
      "stateMutability": "view",
      "type": "function"
    },
    {
      "inputs": [],
      "name": "totalRoyaltyClubBonusPaidUSD",
      "outputs": [
        {
          "internalType": "uint256",
          "name": "",
          "type": "uint256"
        }
      ],
      "stateMutability": "view",
      "type": "function"
    },
    {
      "inputs": [],
      "name": "totalUsers",
      "outputs": [
        {
          "internalType": "uint32",
          "name": "",
          "type": "uint32"
        }
      ],
      "stateMutability": "view",
      "type": "function"
    },
    {
      "inputs": [
        {
          "internalType": "address",
          "name": "newOwner",
          "type": "address"
        }
      ],
      "name": "transferOwnership",
      "outputs": [],
      "stateMutability": "nonpayable",
      "type": "function"
    },
    {
      "inputs": [
        {
          "internalType": "uint32[]",
          "name": "_userID",
          "type": "uint32[]"
        },
        {
          "internalType": "address[]",
          "name": "_userAddress",
          "type": "address[]"
        },
        {
          "internalType": "uint32[]",
          "name": "_referrerID",
          "type": "uint32[]"
        },
        {
          "internalType": "string[]",
          "name": "_oldID",
          "type": "string[]"
        }
      ],
      "name": "updateIDOldIDtoAddress",
      "outputs": [],
      "stateMutability": "nonpayable",
      "type": "function"
    },
    {
      "inputs": [
        {
          "internalType": "uint32[]",
          "name": "_userID",
          "type": "uint32[]"
        },
        {
          "internalType": "uint256[]",
          "name": "_totalTopUp",
          "type": "uint256[]"
        },
        {
          "internalType": "uint256[]",
          "name": "_limitBalanceUSD",
          "type": "uint256[]"
        },
        {
          "internalType": "uint256[]",
          "name": "_balanceClaimedUSD",
          "type": "uint256[]"
        },
        {
          "internalType": "uint256[]",
          "name": "_joiningTime",
          "type": "uint256[]"
        },
        {
          "internalType": "uint256[]",
          "name": "_activationTime",
          "type": "uint256[]"
        }
      ],
      "name": "updateUserIDDataOldAdmin",
      "outputs": [],
      "stateMutability": "nonpayable",
      "type": "function"
    },
    {
      "inputs": [
        {
          "internalType": "address",
          "name": "newImplementation",
          "type": "address"
        }
      ],
      "name": "upgradeTo",
      "outputs": [],
      "stateMutability": "nonpayable",
      "type": "function"
    },
    {
      "inputs": [
        {
          "internalType": "address",
          "name": "newImplementation",
          "type": "address"
        },
        {
          "internalType": "bytes",
          "name": "data",
          "type": "bytes"
        }
      ],
      "name": "upgradeToAndCall",
      "outputs": [],
      "stateMutability": "payable",
      "type": "function"
    },
    {
      "inputs": [],
      "name": "withdrawETHAdmin",
      "outputs": [],
      "stateMutability": "nonpayable",
      "type": "function"
    },
    {
      "inputs": [
        {
          "internalType": "address",
          "name": "_tokenAddress",
          "type": "address"
        },
        {
          "internalType": "uint256",
          "name": "_value",
          "type": "uint256"
        }
      ],
      "name": "withdrawTokensAdmin",
      "outputs": [],
      "stateMutability": "nonpayable",
      "type": "function"
    },
    {
      "stateMutability": "payable",
      "type": "receive"
    }
  ],
  "bytecode": "0x60a06040523060805234801561001457600080fd5b5060805161544061004c60003960008181610aca01528181610b0a01528181610b8f01528181610bcf0152610c4b01526154406000f3fe6080604052600436106102625760003560e01c80638129fc1c11610145578063bf46de63116100bc578063bf46de63146106e5578063bff1f9e114610705578063c3ab5ebf14610722578063db003b2a14610833578063e52356f314610853578063e5682e3814610873578063ea62f71514610886578063f2fde38b146108a6578063f31a2d0f146108c6578063f41bfeef146108e6578063f830e57b146108fc578063fafc959714610929578063fb47e0161461094857600080fd5b80638129fc1c1461058b5780638da5cb5b146105a05780638df05d9c146105be57806396ed6b85146105de5780639f4e8398146105f4578063a0b6105f14610614578063a1b8017514610634578063a28a368614610658578063af2f39d114610678578063b47181d314610692578063b92d18c1146106b2578063bc09161b146106c557600080fd5b80633659cfe6116101d95780633659cfe6146104005780634f1ef2861461042057806352d1902d14610433578063538ffe0c146104485780635e701d86146104915780636dc8afc5146104ca578063704b6c02146104e0578063715018a61461050057806376a68e84146105155780637879b5ef146105355780637a02693514610555578063809343d21461056b57600080fd5b806309de82cd1461026e5780630b243dad146102975780630efdbb6a146102b957806314bfd6d0146102d957806318e10bff146103115780631dc209ff1461033d5780631f7f83ba1461035357806322f88b52146103735780632913497b146103895780632ed421d2146103a7578063313ce567146103bd57806335759788146103eb57600080fd5b3661026957005b600080fd5b34801561027a57600080fd5b5061028460ce5481565b6040519081526020015b60405180910390f35b3480156102a357600080fd5b506102b76102b2366004614825565b610975565b005b3480156102c557600080fd5b506102b76102d436600461484f565b6109b8565b3480156102e557600080fd5b506102f96102f436600461486a565b610a4f565b6040516001600160a01b03909116815260200161028e565b34801561031d57600080fd5b5060d95461032b9060ff1681565b60405160ff909116815260200161028e565b34801561034957600080fd5b5061028460cf5481565b34801561035f57600080fd5b506102f961036e36600461486a565b610a79565b34801561037f57600080fd5b5061028460d55481565b34801561039557600080fd5b5060c9546001600160a01b03166102f9565b3480156103b357600080fd5b5061028460d65481565b3480156103c957600080fd5b5060cb546103d89061ffff1681565b60405161ffff909116815260200161028e565b3480156103f757600080fd5b506102b7610a89565b34801561040c57600080fd5b506102b761041b36600461484f565b610ac0565b6102b761042e366004614920565b610b85565b34801561043f57600080fd5b50610284610c3e565b34801561045457600080fd5b5061048161046336600461484f565b6001600160a01b0316600090815260da602052604090205460ff1690565b604051901515815260200161028e565b34801561049d57600080fd5b5060d1546104b590600160201b900463ffffffff1681565b60405163ffffffff909116815260200161028e565b3480156104d657600080fd5b5061028460d05481565b3480156104ec57600080fd5b506102b76104fb36600461484f565b610cec565b34801561050c57600080fd5b506102b7610d46565b34801561052157600080fd5b50610284610530366004614995565b610d5a565b34801561054157600080fd5b506103d861055036600461486a565b61116b565b34801561056157600080fd5b5061028460cd5481565b34801561057757600080fd5b506102b7610586366004614995565b6111a3565b34801561059757600080fd5b506102b76113bd565b3480156105ac57600080fd5b506033546001600160a01b03166102f9565b3480156105ca57600080fd5b5060cb5461032b9062010000900460ff1681565b3480156105ea57600080fd5b5061028460cc5481565b34801561060057600080fd5b506102b761060f36600461484f565b611662565b34801561062057600080fd5b506102b761062f366004614825565b611735565b34801561064057600080fd5b5060d1546104b590600160401b900463ffffffff1681565b34801561066457600080fd5b5060d45461032b9062010000900460ff1681565b34801561068457600080fd5b5060d4546104819060ff1681565b34801561069e57600080fd5b506102846106ad366004614995565b6117ae565b6102b76106c0366004614995565b611bbc565b3480156106d157600080fd5b506102b76106e03660046149fb565b611cd4565b3480156106f157600080fd5b50610284610700366004614995565b612012565b34801561071157600080fd5b5060d1546104b59063ffffffff1681565b34801561072e57600080fd5b506107db61073d366004614995565b6040805160c081018252600080825260208201819052918101829052606081018290526080810182905260a08101919091525063ffffffff908116600090815260dc6020908152604091829020825160c081018452815460ff811615158252610100900490941691840191909152600181015491830191909152600281015461ffff166060830152600381015460808301526004015460a082015290565b60405161028e9190600060c08201905082511515825263ffffffff60208401511660208301526040830151604083015261ffff60608401511660608301526080830151608083015260a083015160a083015292915050565b34801561083f57600080fd5b506102b761084e366004614b57565b612076565b34801561085f57600080fd5b506102b761086e36600461484f565b612243565b6102b7610881366004614995565b6123d0565b34801561089257600080fd5b506102846108a1366004614995565b612540565b3480156108b257600080fd5b506102b76108c136600461484f565b612657565b3480156108d257600080fd5b506102b76108e1366004614c94565b6126cd565b3480156108f257600080fd5b5061028460d75481565b34801561090857600080fd5b5061091c610917366004614995565b6127e9565b60405161028e9190614d41565b34801561093557600080fd5b5060d45461048190610100900460ff1681565b34801561095457600080fd5b5061096861096336600461484f565b612ce9565b60405161028e9190614f5e565b61097d612db4565b6040516001600160a01b0383169082156108fc029083906000818181858888f193505050501580156109b3573d6000803e3d6000fd5b505050565b60005b60de5460ff82161015610a2c5760de8160ff16815481106109de576109de614f85565b6000918252602090912001546001600160a01b03163314610a1a5760405162461bcd60e51b8152600401610a1190614f9b565b60405180910390fd5b80610a2481614fdc565b9150506109bb565b5060c980546001600160a01b0319166001600160a01b0392909216919091179055565b60de8181548110610a5f57600080fd5b6000918252602090912001546001600160a01b0316905081565b60d88181548110610a5f57600080fd5b610a91612db4565b60405133904780156108fc02916000818181858888f19350505050158015610abd573d6000803e3d6000fd5b50565b6001600160a01b037f0000000000000000000000000000000000000000000000000000000000000000163003610b085760405162461bcd60e51b8152600401610a1190614ffb565b7f00000000000000000000000000000000000000000000000000000000000000006001600160a01b0316610b3a612e0e565b6001600160a01b031614610b605760405162461bcd60e51b8152600401610a1190615047565b610b6981612e2a565b60408051600080825260208201909252610abd91839190612e32565b6001600160a01b037f0000000000000000000000000000000000000000000000000000000000000000163003610bcd5760405162461bcd60e51b8152600401610a1190614ffb565b7f00000000000000000000000000000000000000000000000000000000000000006001600160a01b0316610bff612e0e565b6001600160a01b031614610c255760405162461bcd60e51b8152600401610a1190615047565b610c2e82612e2a565b610c3a82826001612e32565b5050565b6000306001600160a01b037f00000000000000000000000000000000000000000000000000000000000000001614610cd95760405162461bcd60e51b815260206004820152603860248201527f555550535570677261646561626c653a206d757374206e6f742062652063616c6044820152771b1959081d1a1c9bdd59da0819195b1959d85d1958d85b1b60421b6064820152608401610a11565b506000805160206153c483398151915290565b610cf4612db4565b60de80546001810182556000919091527ffae8130c0619f84b4b44f01b84806f04e82e536d70e05f2356977fa318aecc1a0180546001600160a01b0319166001600160a01b0392909216919091179055565b610d4e612db4565b610d586000612f9d565b565b63ffffffff808216600090815260db6020908152604080832081516103e081019092528054909416815260018401805493948594929390929084019190610da090615093565b80601f0160208091040260200160405190810160405280929190818152602001828054610dcc90615093565b8015610e195780601f10610dee57610100808354040283529160200191610e19565b820191906000526020600020905b815481529060010190602001808311610dfc57829003601f168201915b5050509183525050600282015460ff811615156020808401919091526101009091046001600160a01b03166040808401919091526003840154606084015260048401546080840152600584015460a084015260068401805482518185028101850190935280835260c0909401939192909190830182828015610ee657602002820191906000526020600020906000905b82829054906101000a900463ffffffff1663ffffffff1681526020019060040190602082600301049283019260010382029150808411610ea95790505b5050509183525050600782015463ffffffff166020808301919091526008830180546040805182850281018501825282815294019392830182828015610f7757602002820191906000526020600020906000905b82829054906101000a900463ffffffff1663ffffffff1681526020019060040190602082600301049283019260010382029150808411610f3a5790505b5050505050815260200160098201805480602002602001604051908101604052809291908181526020018280548015610ffb57602002820191906000526020600020906000905b82829054906101000a900463ffffffff1663ffffffff1681526020019060040190602082600301049283019260010382029150808411610fbe5790505b50505050508152602001600a820180548060200260200160405190810160405280929190818152602001828054801561107f57602002820191906000526020600020906000905b82829054906101000a900463ffffffff1663ffffffff16815260200190600401906020826003010492830192600103820291508084116110425790505b5050509183525050600b8201546020820152600c8201546040820152600d8201546060820152600e8201546080820152600f82015460a0820152601082015460c0820152601182015460e08201526012820154610100820152601382015460ff1661012082015260148201546101408201526015820154610160820152601682015461018082015260178201546101a082015260188201546101c082015260198201546101e0820152601a820154610200820152601b820154610220820152601c820154610240820152601d9091015461026090910152905061116181612fef565b60ff169392505050565b60ca818154811061117b57600080fd5b9060005260206000209060109182820401919006600202915054906101000a900461ffff1681565b60005b60de5460ff8216101561120e5760de8160ff16815481106111c9576111c9614f85565b6000918252602090912001546001600160a01b031633146111fc5760405162461bcd60e51b8152600401610a1190614f9b565b8061120681614fdc565b9150506111a6565b5063ffffffff8116600090815260db6020526040812060cb5490916201000090910460ff16905b8160ff168160ff1610156113b757600783015463ffffffff16600081815260db602052604081209060ff841690036112a9576008818101805460018101825560009182526020909120918104909101805460079092166004026101000a63ffffffff81810219909316928916029190911790555b845463ffffffff166000036112bf5750506113b7565b60098101805460018082018355600092835260209092206008820401805460079092166004026101000a63ffffffff81810219909316928a1602919091179055600a82019061130f9085906150cd565b815460018101835560009283526020928390206008820401805463ffffffff600790931660040261010090810a8481021990921660ff959095169091029390931790556002840154845460405190831681528a831694928716939091046001600160a01b0316917fa7fafc728ec30e34dc1e1276496bf3eb44ca7494679da969455289e6a8f0f1f6910160405180910390a493508190506113af81614fdc565b915050611235565b50505050565b600054610100900460ff16158080156113dd5750600054600160ff909116105b806113fe57506113ec30613096565b1580156113fe575060005460ff166001145b6114615760405162461bcd60e51b815260206004820152602e60248201527f496e697469616c697a61626c653a20636f6e747261637420697320616c72656160448201526d191e481a5b9a5d1a585b1a5e995960921b6064820152608401610a11565b6000805460ff191660011790558015611484576000805461ff0019166101001790555b60c980546001600160a01b03191673286d6392042b4d7180fd6d20f8d35c877681577417905560cb805461ffff19166103e8179055604080516103a08101825260648152604660208201526032918101829052606081018290526080810182905260a0810182905260c0810182905260e08101829052610100810182905261012081018290526101408101829052610160810182905261018081018290526101a081018290526101c081018290526101e08101829052610200810182905261022081018290526102408101919091526014610260820181905261028082018190526102a082018190526102c082018190526102e0820181905261030082018190526103208201819052610340820181905261036082018190526103808201526115b19060ca90601d61474c565b5060cb805462ff0000191662320000179055670de0b6b3a764000060cc5560d4805463ff00ffff1916630200000117905560d1805461ffff60601b1916607d60631b17905563020f580060d255601460d35562278d0060d7556116126130a5565b61161a6130d4565b8015610abd576000805461ff0019169055604051600181527f7f26b83ff96e1f2b6a682f133852f6798a09c465da95921460cefb38474024989060200160405180910390a150565b60005b60de5460ff821610156116cd5760de8160ff168154811061168857611688614f85565b6000918252602090912001546001600160a01b031633146116bb5760405162461bcd60e51b8152600401610a1190614f9b565b806116c581614fdc565b915050611665565b5060d8805460018181019092557f5320ad99a619a90804cd2efe3a5cf0ac1ac5c41ad9ff2c61cf699efdad7710960180546001600160a01b039093166001600160a01b031990931683179055600091825260da6020526040909120805460ff19169091179055565b61173d612db4565b60405163a9059cbb60e01b8152336004820152602481018290526001600160a01b0383169063a9059cbb906044016020604051808303816000875af115801561178a573d6000803e3d6000fd5b505050506040513d601f19601f820116820180604052508101906109b391906150e6565b63ffffffff808216600090815260db6020908152604080832081516103e0810190925280549094168152600184018054939485949293909290840191906117f490615093565b80601f016020809104026020016040519081016040528092919081815260200182805461182090615093565b801561186d5780601f106118425761010080835404028352916020019161186d565b820191906000526020600020905b81548152906001019060200180831161185057829003601f168201915b5050509183525050600282015460ff811615156020808401919091526101009091046001600160a01b03166040808401919091526003840154606084015260048401546080840152600584015460a084015260068401805482518185028101850190935280835260c090940193919290919083018282801561193a57602002820191906000526020600020906000905b82829054906101000a900463ffffffff1663ffffffff16815260200190600401906020826003010492830192600103820291508084116118fd5790505b5050509183525050600782015463ffffffff1660208083019190915260088301805460408051828502810185018252828152940193928301828280156119cb57602002820191906000526020600020906000905b82829054906101000a900463ffffffff1663ffffffff168152602001906004019060208260030104928301926001038202915080841161198e5790505b5050505050815260200160098201805480602002602001604051908101604052809291908181526020018280548015611a4f57602002820191906000526020600020906000905b82829054906101000a900463ffffffff1663ffffffff1681526020019060040190602082600301049283019260010382029150808411611a125790505b50505050508152602001600a8201805480602002602001604051908101604052809291908181526020018280548015611ad357602002820191906000526020600020906000905b82829054906101000a900463ffffffff1663ffffffff1681526020019060040190602082600301049283019260010382029150808411611a965790505b5050509183525050600b8201546020820152600c8201546040820152600d8201546060820152600e8201546080820152600f82015460a0820152601082015460c0820152601182015460e08201526012820154610100820152601382015460ff1661012082015260148201546101408201526015820154610160820152601682015461018082015260178201546101a082015260188201546101c082015260198201546101e0820152601a820154610200820152601b820154610220820152601c820154610240820152601d90910154610260909101529050611bb5816130fb565b9392505050565b60cc543490611bca90613138565b811015611c2d5760405162461bcd60e51b815260206004820152602b60248201527f56616c75652073686f756c6420626520677265617465207468656e206d696e4360448201526a37b73a3934b13aba34b7b760a91b6064820152608401610a11565b336000611c39836131ce565b60d1549091504290600090611c5c90600160401b900463ffffffff166001615108565b63ffffffff8716600090815260db602052604090206002810154919250906001600160a01b038681166101009092041614611ca95760405162461bcd60e51b8152600401610a119061512c565b60d45460ff1615611cc057611cc08783868661325b565b611ccb87858561334d565b50505050505050565b60005b60de5460ff82161015611d3f5760de8160ff1681548110611cfa57611cfa614f85565b6000918252602090912001546001600160a01b03163314611d2d5760405162461bcd60e51b8152600401610a1190614f9b565b80611d3781614fdc565b915050611cd7565b5060005b61ffff811687111561200857600060db60008a8a8561ffff16818110611d6b57611d6b614f85565b9050602002016020810190611d809190614995565b63ffffffff1663ffffffff1681526020019081526020016000209050600060da600089898661ffff16818110611db857611db8614f85565b9050602002016020810190611dcd919061484f565b6001600160a01b03166001600160a01b03168152602001908152602001600020905089898461ffff16818110611e0557611e05614f85565b9050602002016020810190611e1a9190614995565b825463ffffffff191663ffffffff919091161782558351849061ffff8516908110611e4757611e47614f85565b6020026020010151826001019081611e5f91906151a9565b50806001018a8a8561ffff16818110611e7a57611e7a614f85565b9050602002016020810190611e8f9190614995565b8154600181018355600092835260209092206008830401805460079093166004026101000a63ffffffff818102199094169290931692909202179055878761ffff8516818110611ee157611ee1614f85565b9050602002016020810190611ef6919061484f565b8260020160016101000a8154816001600160a01b0302191690836001600160a01b0316021790555085858461ffff16818110611f3457611f34614f85565b9050602002016020810190611f499190614995565b60078301805463ffffffff191663ffffffff92909216919091179055858561ffff8516818110611f7b57611f7b614f85565b9050602002016020810190611f909190614995565b63ffffffff168a8a8561ffff16818110611fac57611fac614f85565b9050602002016020810190611fc19190614995565b63ffffffff167f9d714438ba618019cc2b8621dcd2550337e162be58654470ea30d48479fe832060405160405180910390a35050808061200090615268565b915050611d43565b5050505050505050565b63ffffffff8116600090815260db602052604081208161203184613469565b905081601a01548183601901546120489190615289565b116120555780925061206f565b6000826019015483601a015461206b919061529c565b9350505b5050919050565b60005b60de5460ff821610156120e15760de8160ff168154811061209c5761209c614f85565b6000918252602090912001546001600160a01b031633146120cf5760405162461bcd60e51b8152600401610a1190614f9b565b806120d981614fdc565b915050612079565b5060005b8b8110156122345760d18054600160401b900463ffffffff1690600861210a836152af565b91906101000a81548163ffffffff021916908363ffffffff1602179055505060008b8b8381811061213d5761213d614f85565b9050602002013511156122225760008b8b8381811061215e5761215e614f85565b90506020020135600361217191906152c8565b90506122208e8e8481811061218857612188614f85565b905060200201602081019061219d9190614995565b8d8d858181106121af576121af614f85565b905060200201358c8c868181106121c8576121c8614f85565b90506020020135848c8c888181106121e2576121e2614f85565b905060200201358b8b898181106121fb576121fb614f85565b905060200201358a8a8a81811061221457612214614f85565b90506020020135613961565b505b8061222c816152df565b9150506120e5565b50505050505050505050505050565b60005b60de5460ff821610156122ae5760de8160ff168154811061226957612269614f85565b6000918252602090912001546001600160a01b0316331461229c5760405162461bcd60e51b8152600401610a1190614f9b565b806122a681614fdc565b915050612246565b506001600160a01b038116600090815260da60205260408120805460ff1916905560d854905b818110156109b357826001600160a01b031660d882815481106122f9576122f9614f85565b6000918252602090912001546001600160a01b0316036123be5760d861232060018461529c565b8154811061233057612330614f85565b60009182526020909120015460d880546001600160a01b03909216918390811061235c5761235c614f85565b9060005260206000200160006101000a8154816001600160a01b0302191690836001600160a01b0316021790555060d880548061239b5761239b6152f8565b600082815260209020810160001990810180546001600160a01b03191690550190555b806123c8816152df565b9150506122d4565b3460006123dc826131ce565b90506123e960cc54613138565b8210156124385760405162461bcd60e51b815260206004820152601f60248201527f56616c75652073686f756c6420626520677265617465207468656e20313030006044820152606401610a11565b60d1543390429060009061245a90600160201b900463ffffffff166001615108565b60d15490915060009061247b90600160401b900463ffffffff166001615108565b6001600160a01b038516600090815260da6020526040902060d4549192509060ff16156124ae576124ae8383888761325b565b6124f583604051806020016040528060008152508a60405180602001604052806000815250898b8c60036124e291906152c8565b60cb548c9062010000900460ff16613ad0565b6001908101805491820181556000908152602090206008820401805460079092166004026101000a63ffffffff81810219909316949092169190910292909217909155505050505050565b63ffffffff8116600090815260db60209081526040808320600601805482518185028101850190935280835284938301828280156125c957602002820191906000526020600020906000905b82829054906101000a900463ffffffff1663ffffffff168152602001906004019060208260030104928301926001038202915080841161258c5790505b505050505090506000805b82518161ffff16101561264f57600060dc6000858461ffff16815181106125fd576125fd614f85565b60209081029190910181015163ffffffff168252810191909152604001600020805490915060ff161561263c5760018101546126399084615289565b92505b508061264781615268565b9150506125d4565b509392505050565b61265f612db4565b6001600160a01b0381166126c45760405162461bcd60e51b815260206004820152602660248201527f4f776e61626c653a206e6577206f776e657220697320746865207a65726f206160448201526564647265737360d01b6064820152608401610a11565b610abd81612f9d565b63ffffffff8216600090815260db60205260409020600281015461010090046001600160a01b031633146127135760405162461bcd60e51b8152600401610a119061512c565b600061271e82613da7565b6018830154909150612730818361529c565b8411156127925760405162461bcd60e51b815260206004820152602a60248201527f506c6561736520656e7465722076616c7565206c657373207468656e20796f7560448201526939103130b630b731b29760b11b6064820152608401610a11565b838360180160008282546127a69190615289565b909155503390506108fc6127b986613138565b6040518115909202916000818181858888f193505050501580156127e1573d6000803e3d6000fd5b505050505050565b6128ec604051806103e00160405280600063ffffffff1681526020016060815260200160001515815260200160006001600160a01b0316815260200160008152602001600081526020016000815260200160608152602001600063ffffffff1681526020016060815260200160608152602001606081526020016000815260200160008152602001600081526020016000815260200160008152602001600081526020016000815260200160008152602001600060ff168152602001600081526020016000815260200160008152602001600081526020016000815260200160008152602001600081526020016000815260200160008152602001600081525090565b63ffffffff808316600090815260db602090815260409182902082516103e08101909352805490931682526001830180549293929184019161292d90615093565b80601f016020809104026020016040519081016040528092919081815260200182805461295990615093565b80156129a65780601f1061297b576101008083540402835291602001916129a6565b820191906000526020600020905b81548152906001019060200180831161298957829003601f168201915b5050509183525050600282015460ff811615156020808401919091526101009091046001600160a01b03166040808401919091526003840154606084015260048401546080840152600584015460a084015260068401805482518185028101850190935280835260c0909401939192909190830182828015612a7357602002820191906000526020600020906000905b82829054906101000a900463ffffffff1663ffffffff1681526020019060040190602082600301049283019260010382029150808411612a365790505b5050509183525050600782015463ffffffff166020808301919091526008830180546040805182850281018501825282815294019392830182828015612b0457602002820191906000526020600020906000905b82829054906101000a900463ffffffff1663ffffffff1681526020019060040190602082600301049283019260010382029150808411612ac75790505b5050505050815260200160098201805480602002602001604051908101604052809291908181526020018280548015612b8857602002820191906000526020600020906000905b82829054906101000a900463ffffffff1663ffffffff1681526020019060040190602082600301049283019260010382029150808411612b4b5790505b50505050508152602001600a8201805480602002602001604051908101604052809291908181526020018280548015612c0c57602002820191906000526020600020906000905b82829054906101000a900463ffffffff1663ffffffff1681526020019060040190602082600301049283019260010382029150808411612bcf5790505b5050509183525050600b8201546020820152600c8201546040820152600d8201546060820152600e8201546080820152600f82015460a0820152601082015460c0820152601182015460e08201526012820154610100820152601382015460ff1661012082015260148201546101408201526015820154610160820152601682015461018082015260178201546101a082015260188201546101c082015260198201546101e0820152601a820154610200820152601b820154610220820152601c820154610240820152601d909101546102609091015292915050565b6040805180820190915260008152606060208201526001600160a01b038216600090815260da602090815260409182902082518084018452815460ff161515815260018201805485518186028101860190965280865291949293858101939290830182828015612da457602002820191906000526020600020906000905b82829054906101000a900463ffffffff1663ffffffff1681526020019060040190602082600301049283019260010382029150808411612d675790505b5050505050815250509050919050565b6033546001600160a01b03163314610d585760405162461bcd60e51b815260206004820181905260248201527f4f776e61626c653a2063616c6c6572206973206e6f7420746865206f776e65726044820152606401610a11565b6000805160206153c4833981519152546001600160a01b031690565b610abd612db4565b7f4910fdfa16fed3260ed0e7147f7cc6da11a60208b5b9406d12a635614ffd91435460ff1615612e65576109b383613dcf565b826001600160a01b03166352d1902d6040518163ffffffff1660e01b8152600401602060405180830381865afa925050508015612ebf575060408051601f3d908101601f19168201909252612ebc9181019061530e565b60015b612f225760405162461bcd60e51b815260206004820152602e60248201527f45524331393637557067726164653a206e657720696d706c656d656e7461746960448201526d6f6e206973206e6f74205555505360901b6064820152608401610a11565b6000805160206153c48339815191528114612f915760405162461bcd60e51b815260206004820152602960248201527f45524331393637557067726164653a20756e737570706f727465642070726f786044820152681a58589b195555525160ba1b6064820152608401610a11565b506109b3838383613e69565b603380546001600160a01b038381166001600160a01b0319831681179093556040519116919082907f8be0079c531659141344cd1fd0a4f28419497f9722a3daafe3b4186f6b6457e090600090a35050565b60d95460009060ff16815b8160ff168160ff16101561206f5760ff8116600090815260dd60205260409020600101546101808501511080159061304c575060ff8116600090815260dd60205260409020600201546101c085015110155b8015613072575060ff8116600090815260dd602052604090206003015461020085015110155b1561307f57809250613084565b61206f565b8061308e81614fdc565b915050612ffa565b6001600160a01b03163b151590565b600054610100900460ff166130cc5760405162461bcd60e51b8152600401610a1190615327565b610d58613e8e565b600054610100900460ff16610d585760405162461bcd60e51b8152600401610a1190615327565b61012081015151600090818115611bb55760d454600190613126906301000000900460ff16846152c8565b613130919061529c565b949350505050565b60008060c960009054906101000a90046001600160a01b03166001600160a01b031663e1aa60366040518163ffffffff1660e01b8152600401602060405180830381865afa15801561318e573d6000803e3d6000fd5b505050506040513d601f19601f820116820180604052508101906131b2919061530e565b6131c484670de0b6b3a76400006152c8565b611bb59190615372565b600080670de0b6b3a764000060c960009054906101000a90046001600160a01b03166001600160a01b031663e1aa60366040518163ffffffff1660e01b8152600401602060405180830381865afa15801561322d573d6000803e3d6000fd5b505050506040513d601f19601f82011682018060405250810190613251919061530e565b6131c490856152c8565b63ffffffff838116600081815260dc6020908152604080832089861680855260db84529184208154600164ffffffffff1990911661010094850217811783558083018a905560d18054600285018054600160601b90920461ffff1661ffff19909216919091179055600384018a905560d254600480860191909155600684018054938401815588529590962060088083049091018054600790931690960290940a8089021990911696029590951790925582549194600160401b9092049091169190613326836152af565b91906101000a81548163ffffffff021916908363ffffffff16021790555050505050505050565b60cb5463ffffffff8416600090815260db602052604090206201000090910460ff169061337b8460026152c8565b81601a01819055508381600b0160008282546133979190615289565b92505081905550838160170160008282546133b29190615289565b90915550600090505b828110156127e157600782015463ffffffff908116600081815260db602052604081208054929390921690036133f25750506127e1565b82600003613414578681600d01600082825461340e9190615289565b90915550505b8681600f0160008282546134289190615289565b909155505060d454610100900460ff16156134495761344981838989613ebe565b6134538787614552565b9250819050613461816152df565b9150506133bb565b63ffffffff808216600090815260db6020908152604080832081516103e0810190925280549094168152600184018054939485949293909290840191906134af90615093565b80601f01602080910402602001604051908101604052809291908181526020018280546134db90615093565b80156135285780601f106134fd57610100808354040283529160200191613528565b820191906000526020600020905b81548152906001019060200180831161350b57829003601f168201915b5050509183525050600282015460ff811615156020808401919091526101009091046001600160a01b03166040808401919091526003840154606084015260048401546080840152600584015460a084015260068401805482518185028101850190935280835260c09094019391929091908301828280156135f557602002820191906000526020600020906000905b82829054906101000a900463ffffffff1663ffffffff16815260200190600401906020826003010492830192600103820291508084116135b85790505b5050509183525050600782015463ffffffff16602080830191909152600883018054604080518285028101850182528281529401939283018282801561368657602002820191906000526020600020906000905b82829054906101000a900463ffffffff1663ffffffff16815260200190600401906020826003010492830192600103820291508084116136495790505b505050505081526020016009820180548060200260200160405190810160405280929190818152602001828054801561370a57602002820191906000526020600020906000905b82829054906101000a900463ffffffff1663ffffffff16815260200190600401906020826003010492830192600103820291508084116136cd5790505b50505050508152602001600a820180548060200260200160405190810160405280929190818152602001828054801561378e57602002820191906000526020600020906000905b82829054906101000a900463ffffffff1663ffffffff16815260200190600401906020826003010492830192600103820291508084116137515790505b5050509183525050600b8201546020820152600c8201546040820152600d8201546060820152600e8201546080820152600f82015460a0820152601082015460c0820152601182015460e0808301919091526012830154610100830152601383015460ff1661012083015260148301546101408301526015830154610160830152601683015461018083015260178301546101a083015260188301546101c083015260198301546101e0830152601a830154610200830152601b830154610220830152601c830154610240830152601d909201546102609091015281015180519192509060005b818161ffff16101561394757600060dc6000858461ffff168151811061389d5761389d614f85565b60209081029190910181015163ffffffff168252810191909152604001600090812060d25460cb5460d154600184015493955042949361ffff928316926138ec92600160601b900416906152c8565b6138f69190615372565b6139009190615372565b90506000836003015483613914919061529c565b905061392481856004015461458c565b61392e90836152c8565b985050505050808061393f90615268565b915050613875565b506103a0830151613958908561529c565b50505050919050565b63ffffffff8716600090815260db6020526040902060cb546003820184905560048201839055600c8201889055601582018790556018820185905560198201879055601a820186905560d45460ff6201000090920482169116156139dc5760d1546139dc908a90600160401b900463ffffffff168a4261325b565b60005b8160ff168160ff161015613ac457600783015463ffffffff908116600081815260db60205260408120805492939092169003613a1c575050613ac4565b8260ff16600003613a41578a81600e016000828254613a3b9190615289565b90915550505b8a816010016000828254613a559190615289565b92505081905550806009018c90806001815401808255809150506001900390600052602060002090600891828204019190066004029091909190916101000a81548163ffffffff021916908363ffffffff16021790555080945050508080613abc90614fdc565b9150506139df565b50505050505050505050565b63ffffffff898116600081815260db60205260408120805463ffffffff199081169093178155600781018054909316938b1693909317909155600282018054610100600160a81b0319166101006001600160a01b038a16021790556003820184905560048201849055601a8201859055600b82018054879290613b54908490615289565b909155505060018101613b678a826151a9565b5060005b8260ff168160ff161015613d5e57600782015463ffffffff908116600081815260db60205260408120805492939092169003613ba8575050613d5e565b8260ff16600003613c31578781600d016000828254613bc79190615289565b92505081905550806008018d90806001815401808255809150506001900390600052602060002090600891828204019190066004029091909190916101000a81548163ffffffff021916908363ffffffff16021790555089816001019081613c2f91906151a9565b505b8781600f016000828254613c459190615289565b92505081905550806009018d90806001815401808255809150506001900390600052602060002090600891828204019190066004029091909190916101000a81548163ffffffff021916908363ffffffff1602179055508c63ffffffff168b63ffffffff168260020160019054906101000a90046001600160a01b03166001600160a01b03167fa7fafc728ec30e34dc1e1276496bf3eb44ca7494679da969455289e6a8f0f1f68760070160009054906101000a900463ffffffff16604051613d1a919063ffffffff91909116815260200190565b60405180910390a460d454610100900460ff1615613d3e57613d3e81838a89613ebe565b613d488887614552565b9250819050613d5681614fdc565b915050613b6b565b5060d18054600160201b900463ffffffff16906004613d7c836152af565b91906101000a81548163ffffffff021916908363ffffffff1602179055505050505050505050505050565b600081601a015482601901541015613dc3578160190154613dc9565b81601a01545b92915050565b613dd881613096565b613e3a5760405162461bcd60e51b815260206004820152602d60248201527f455243313936373a206e657720696d706c656d656e746174696f6e206973206e60448201526c1bdd08184818dbdb9d1c9858dd609a1b6064820152608401610a11565b6000805160206153c483398151915280546001600160a01b0319166001600160a01b0392909216919091179055565b613e72836145a4565b600082511180613e7f5750805b156109b3576113b783836145e4565b600054610100900460ff16613eb55760405162461bcd60e51b8152600401610a1190615327565b610d5833612f9d565b6013840154604080516103e08101909152855463ffffffff16815260018601805460ff909316926142b692918891602084019190613efb90615093565b80601f0160208091040260200160405190810160405280929190818152602001828054613f2790615093565b8015613f745780601f10613f4957610100808354040283529160200191613f74565b820191906000526020600020905b815481529060010190602001808311613f5757829003601f168201915b5050509183525050600282015460ff811615156020808401919091526101009091046001600160a01b03166040808401919091526003840154606084015260048401546080840152600584015460a084015260068401805482518185028101850190935280835260c090940193919290919083018282801561404157602002820191906000526020600020906000905b82829054906101000a900463ffffffff1663ffffffff16815260200190600401906020826003010492830192600103820291508084116140045790505b5050509183525050600782015463ffffffff1660208083019190915260088301805460408051828502810185018252828152940193928301828280156140d257602002820191906000526020600020906000905b82829054906101000a900463ffffffff1663ffffffff16815260200190600401906020826003010492830192600103820291508084116140955790505b505050505081526020016009820180548060200260200160405190810160405280929190818152602001828054801561415657602002820191906000526020600020906000905b82829054906101000a900463ffffffff1663ffffffff16815260200190600401906020826003010492830192600103820291508084116141195790505b50505050508152602001600a82018054806020026020016040519081016040528092919081815260200182805480156141da57602002820191906000526020600020906000905b82829054906101000a900463ffffffff1663ffffffff168152602001906004019060208260030104928301926001038202915080841161419d5790505b5050509183525050600b8201546020820152600c8201546040820152600d8201546060820152600e8201546080820152600f82015460a0820152601082015460c0820152601182015460e08201526012820154610100820152601382015460ff1661012082015260148201546101408201526015820154610160820152601682015461018082015260178201546101a082015260188201546101c082015260198201546101e0820152601a820154610200820152601b820154610220820152601c820154610240820152601d9091015461026090910152612fef565b60ff1611156113b757604080516103e08101909152845463ffffffff1681526001850180546142f192918791602084019190613efb90615093565b60138501805460ff191660ff9283169081178255600090815260dd6020908152604080832060099081018054600181810183559186529385206008850401805460079095166004026101000a63ffffffff81810219909616958c16029490941790935593549094168252929020015461436a919061529c565b6014850181905560138501546040805163ffffffff87168152602081019390935260ff90911682820152517fb0d3a9c683344e744a1ae3db383f75a8a01851282c5fe97d6159c1392a2e2a0a9181900360600190a1604080516103e08101909152845463ffffffff16815260018501805460dd926000926143f59289916020840191613efb90615093565b60ff9081168252602082019290925260400160002060080154610100900416156144b957604080516103e08101909152845463ffffffff16815260018501805460dd9260009261444f9289916020840191613efb90615093565b60ff1660ff1681526020019081526020016000206007015484601201546144769190615289565b8111156144a5578084601201819055508184601101600082825461449a9190615289565b909155506113b79050565b8184601101600082825461449a9190615289565b60d454610100900460ff16156113b757601384015460ff16600090815260dd60205260409020600501546144ee9085906146d6565b601384015460ff908116600090815260dd602090815260409182902060058101549054925192909316825263ffffffff8616917f94b6d3d19cc40938e685ef6a1f6476b53ef65295ab094a044e74405a8d0bd05b910160405180910390a350505050565b60d75460d6546145629190615289565b8111156145715760d65560d555565b8160d560008282546145839190615289565b90915550505050565b60008183111561459d575080613dc9565b5090919050565b6145ad81613dcf565b6040516001600160a01b038216907fbc7cd75a20ee27fd9adebab32041f755214dbc6bffa90cc0225b39da2e5c2d3b90600090a250565b60606145ef83613096565b61464a5760405162461bcd60e51b815260206004820152602660248201527f416464726573733a2064656c65676174652063616c6c20746f206e6f6e2d636f6044820152651b9d1c9858dd60d21b6064820152608401610a11565b600080846001600160a01b0316846040516146659190615394565b600060405180830381855af49150503d80600081146146a0576040519150601f19603f3d011682016040523d82523d6000602084013e6146a5565b606091505b50915091506146cd82826040518060600160405280602781526020016153e46027913961470e565b95945050505050565b81601a01548183601901546146eb9190615289565b106146fe57601a82015460198301555050565b8082601901546109b39190615289565b6060831561471d575081611bb5565b611bb583838151156147325781518083602001fd5b8060405162461bcd60e51b8152600401610a1191906153b0565b82805482825590600052602060002090600f016010900481019282156147e45791602002820160005b838211156147b457835183826101000a81548161ffff021916908360ff1602179055509260200192600201602081600101049283019260010302614775565b80156147e25782816101000a81549061ffff02191690556002016020816001010492830192600103026147b4565b505b506147f09291506147f4565b5090565b5b808211156147f057600081556001016147f5565b80356001600160a01b038116811461482057600080fd5b919050565b6000806040838503121561483857600080fd5b61484183614809565b946020939093013593505050565b60006020828403121561486157600080fd5b611bb582614809565b60006020828403121561487c57600080fd5b5035919050565b634e487b7160e01b600052604160045260246000fd5b604051601f8201601f191681016001600160401b03811182821017156148c1576148c1614883565b604052919050565b60006001600160401b038311156148e2576148e2614883565b6148f5601f8401601f1916602001614899565b905082815283838301111561490957600080fd5b828260208301376000602084830101529392505050565b6000806040838503121561493357600080fd5b61493c83614809565b915060208301356001600160401b0381111561495757600080fd5b8301601f8101851361496857600080fd5b614977858235602084016148c9565b9150509250929050565b803563ffffffff8116811461482057600080fd5b6000602082840312156149a757600080fd5b611bb582614981565b60008083601f8401126149c257600080fd5b5081356001600160401b038111156149d957600080fd5b6020830191508360208260051b85010111156149f457600080fd5b9250929050565b60008060008060008060006080888a031215614a1657600080fd5b6001600160401b038089351115614a2c57600080fd5b614a398a8a358b016149b0565b90985096506020890135811015614a4f57600080fd5b614a5f8a60208b01358b016149b0565b90965094506040890135811015614a7557600080fd5b614a858a60408b01358b016149b0565b90945092506060890135811015614a9b57600080fd5b606089013589018a601f820112614ab157600080fd5b8181351115614ac257614ac2614883565b614ad26020823560051b01614899565b81358082526020808301929160051b8401018d811115614af157600080fd5b602084015b81811015614b42578581351115614b0c57600080fd5b8e603f823587010112614b1e57600080fd5b614b348f823587016020810135906040016148c9565b845260209384019301614af6565b50508094505050505092959891949750929550565b60008060008060008060008060008060008060c08d8f031215614b7957600080fd5b6001600160401b038d351115614b8e57600080fd5b614b9b8e8e358f016149b0565b909c509a506001600160401b0360208e01351115614bb857600080fd5b614bc88e60208f01358f016149b0565b909a5098506001600160401b0360408e01351115614be557600080fd5b614bf58e60408f01358f016149b0565b90985096506001600160401b0360608e01351115614c1257600080fd5b614c228e60608f01358f016149b0565b90965094506001600160401b0360808e01351115614c3f57600080fd5b614c4f8e60808f01358f016149b0565b90945092506001600160401b0360a08e01351115614c6c57600080fd5b614c7c8e60a08f01358f016149b0565b81935080925050509295989b509295989b509295989b565b60008060408385031215614ca757600080fd5b61484183614981565b60005b83811015614ccb578181015183820152602001614cb3565b50506000910152565b60008151808452614cec816020860160208601614cb0565b601f01601f19169290920160200192915050565b600081518084526020808501945080840160005b83811015614d3657815163ffffffff1687529582019590820190600101614d14565b509495945050505050565b60208152614d5860208201835163ffffffff169052565b600060208301516103e0806040850152614d76610400850183614cd4565b91506040850151614d8b606086018215159052565b5060608501516001600160a01b038116608086015250608085015160a085015260a085015160c085015260c085015160e085015260e0850151601f19610100818786030181880152614ddd8584614d00565b945080880151925050610120614dfa8188018463ffffffff169052565b80880151925050610140818786030181880152614e178584614d00565b945080880151925050610160818786030181880152614e368584614d00565b945080880151925050610180818786030181880152614e558584614d00565b908801516101a0888101919091528801516101c0808901919091528801516101e080890191909152880151610200808901919091528801516102208089019190915288015161024080890191909152880151610260808901919091528801516102808089019190915288015190945091506102a09050614ed98187018360ff169052565b8601516102c0868101919091528601516102e08087019190915286015161030080870191909152860151610320808701919091528601516103408087019190915286015161036080870191909152860151610380808701919091528601516103a0808701919091528601516103c0808701919091529095015193019290925250919050565b60208152815115156020820152600060208301516040808401526131306060840182614d00565b634e487b7160e01b600052603260045260246000fd5b6020808252601190820152702cb7ba9030b932903737ba1030b236b4b760791b604082015260600190565b634e487b7160e01b600052601160045260246000fd5b600060ff821660ff8103614ff257614ff2614fc6565b60010192915050565b6020808252602c908201527f46756e6374696f6e206d7573742062652063616c6c6564207468726f7567682060408201526b19195b1959d85d1958d85b1b60a21b606082015260800190565b6020808252602c908201527f46756e6374696f6e206d7573742062652063616c6c6564207468726f7567682060408201526b6163746976652070726f787960a01b606082015260800190565b600181811c908216806150a757607f821691505b6020821081036150c757634e487b7160e01b600052602260045260246000fd5b50919050565b60ff8181168382160190811115613dc957613dc9614fc6565b6000602082840312156150f857600080fd5b81518015158114611bb557600080fd5b63ffffffff81811683821601908082111561512557615125614fc6565b5092915050565b6020808252601d908201527f596f7520617265206e6f74206f776e6572206f6620746869732069642e000000604082015260600190565b601f8211156109b357600081815260208120601f850160051c8101602086101561518a5750805b601f850160051c820191505b818110156127e157828155600101615196565b81516001600160401b038111156151c2576151c2614883565b6151d6816151d08454615093565b84615163565b602080601f83116001811461520b57600084156151f35750858301515b600019600386901b1c1916600185901b1785556127e1565b600085815260208120601f198616915b8281101561523a5788860151825594840194600190910190840161521b565b50858210156152585787850151600019600388901b60f8161c191681555b5050505050600190811b01905550565b600061ffff80831681810361527f5761527f614fc6565b6001019392505050565b80820180821115613dc957613dc9614fc6565b81810381811115613dc957613dc9614fc6565b600063ffffffff80831681810361527f5761527f614fc6565b8082028115828204841417613dc957613dc9614fc6565b6000600182016152f1576152f1614fc6565b5060010190565b634e487b7160e01b600052603160045260246000fd5b60006020828403121561532057600080fd5b5051919050565b6020808252602b908201527f496e697469616c697a61626c653a20636f6e7472616374206973206e6f74206960408201526a6e697469616c697a696e6760a81b606082015260800190565b60008261538f57634e487b7160e01b600052601260045260246000fd5b500490565b600082516153a6818460208701614cb0565b9190910192915050565b602081526000611bb56020830184614cd456fe360894a13ba1a3210667c828492db98dca3e2076cc3735a920a3ca505d382bbc416464726573733a206c6f772d6c6576656c2064656c65676174652063616c6c206661696c6564a26469706673582212201ed47fcabe456020280e8b9122d154466434f3ace3149074e917357aad69c24e64736f6c63430008110033",
  "linkReferences": {},
  "deployedLinkReferences": {}
}