{
  "_format": "hh-sol-artifact-1",
  "contractName": "ReferralV2Upgradeable",
  "sourceName": "contracts/ReferralV2Upgradeable.sol",
  "abi": [
    {
      "anonymous": false,
      "inputs": [
        {
          "indexed": false,
          "internalType": "address",
          "name": "ownerAddress",
          "type": "address"
        },
        {
          "indexed": false,
          "internalType": "uint256",
          "name": "id",
          "type": "uint256"
        },
        {
          "indexed": false,
          "internalType": "uint256",
          "name": "idIndex",
          "type": "uint256"
        }
      ],
      "name": "AccountInfoIDAttached",
      "type": "event"
    },
    {
      "anonymous": false,
      "inputs": [
        {
          "indexed": false,
          "internalType": "uint256",
          "name": "userID",
          "type": "uint256"
        },
        {
          "indexed": false,
          "internalType": "uint256",
          "name": "index",
          "type": "uint256"
        },
        {
          "indexed": false,
          "internalType": "uint256",
          "name": "rank",
          "type": "uint256"
        }
      ],
      "name": "AddedInRoyaltyClubList",
      "type": "event"
    },
    {
      "anonymous": false,
      "inputs": [
        {
          "indexed": false,
          "internalType": "address",
          "name": "previousAdmin",
          "type": "address"
        },
        {
          "indexed": false,
          "internalType": "address",
          "name": "newAdmin",
          "type": "address"
        }
      ],
      "name": "AdminChanged",
      "type": "event"
    },
    {
      "anonymous": false,
      "inputs": [
        {
          "indexed": true,
          "internalType": "address",
          "name": "beacon",
          "type": "address"
        }
      ],
      "name": "BeaconUpgraded",
      "type": "event"
    },
    {
      "anonymous": false,
      "inputs": [
        {
          "indexed": false,
          "internalType": "uint256",
          "name": "id",
          "type": "uint256"
        },
        {
          "indexed": false,
          "internalType": "string",
          "name": "reason",
          "type": "string"
        }
      ],
      "name": "IDDeactivated",
      "type": "event"
    },
    {
      "anonymous": false,
      "inputs": [
        {
          "indexed": false,
          "internalType": "uint8",
          "name": "version",
          "type": "uint8"
        }
      ],
      "name": "Initialized",
      "type": "event"
    },
    {
      "anonymous": false,
      "inputs": [
        {
          "indexed": true,
          "internalType": "address",
          "name": "previousOwner",
          "type": "address"
        },
        {
          "indexed": true,
          "internalType": "address",
          "name": "newOwner",
          "type": "address"
        }
      ],
      "name": "OwnershipTransferred",
      "type": "event"
    },
    {
      "anonymous": false,
      "inputs": [
        {
          "indexed": false,
          "internalType": "uint256",
          "name": "packageID",
          "type": "uint256"
        }
      ],
      "name": "PackageAdded",
      "type": "event"
    },
    {
      "anonymous": false,
      "inputs": [
        {
          "indexed": false,
          "internalType": "uint256",
          "name": "packageID",
          "type": "uint256"
        }
      ],
      "name": "PackageRemoved",
      "type": "event"
    },
    {
      "anonymous": false,
      "inputs": [
        {
          "indexed": false,
          "internalType": "uint256",
          "name": "packageID",
          "type": "uint256"
        }
      ],
      "name": "PackageUpdated",
      "type": "event"
    },
    {
      "anonymous": false,
      "inputs": [
        {
          "indexed": true,
          "internalType": "uint256",
          "name": "userID",
          "type": "uint256"
        },
        {
          "indexed": true,
          "internalType": "uint256",
          "name": "reward",
          "type": "uint256"
        }
      ],
      "name": "ROIClaimed",
      "type": "event"
    },
    {
      "anonymous": false,
      "inputs": [
        {
          "indexed": true,
          "internalType": "uint256",
          "name": "refererID",
          "type": "uint256"
        },
        {
          "indexed": true,
          "internalType": "uint256",
          "name": "level",
          "type": "uint256"
        },
        {
          "indexed": true,
          "internalType": "string",
          "name": "reason",
          "type": "string"
        }
      ],
      "name": "ReferralNotPaid",
      "type": "event"
    },
    {
      "anonymous": false,
      "inputs": [
        {
          "indexed": true,
          "internalType": "uint256",
          "name": "refereeID",
          "type": "uint256"
        },
        {
          "indexed": true,
          "internalType": "uint256",
          "name": "referrerID",
          "type": "uint256"
        },
        {
          "indexed": true,
          "internalType": "uint256",
          "name": "amount",
          "type": "uint256"
        },
        {
          "indexed": false,
          "internalType": "uint256",
          "name": "level",
          "type": "uint256"
        }
      ],
      "name": "ReferralRewardPaid",
      "type": "event"
    },
    {
      "anonymous": false,
      "inputs": [
        {
          "indexed": true,
          "internalType": "address",
          "name": "refereeID",
          "type": "address"
        },
        {
          "indexed": true,
          "internalType": "address",
          "name": "referrerID",
          "type": "address"
        },
        {
          "indexed": true,
          "internalType": "string",
          "name": "reason",
          "type": "string"
        }
      ],
      "name": "RegisterRefererFailed",
      "type": "event"
    },
    {
      "anonymous": false,
      "inputs": [
        {
          "indexed": true,
          "internalType": "uint256",
          "name": "id",
          "type": "uint256"
        },
        {
          "indexed": true,
          "internalType": "uint256",
          "name": "refererID",
          "type": "uint256"
        }
      ],
      "name": "RegisteredReferer",
      "type": "event"
    },
    {
      "anonymous": false,
      "inputs": [
        {
          "indexed": true,
          "internalType": "address",
          "name": "parent",
          "type": "address"
        },
        {
          "indexed": false,
          "internalType": "uint256",
          "name": "parentAccountID",
          "type": "uint256"
        },
        {
          "indexed": true,
          "internalType": "uint256",
          "name": "referrerID",
          "type": "uint256"
        },
        {
          "indexed": true,
          "internalType": "uint256",
          "name": "refereeID",
          "type": "uint256"
        }
      ],
      "name": "RegisteredTeamAddress",
      "type": "event"
    },
    {
      "anonymous": false,
      "inputs": [
        {
          "indexed": false,
          "internalType": "uint256",
          "name": "packageID",
          "type": "uint256"
        },
        {
          "indexed": true,
          "internalType": "uint256",
          "name": "userID",
          "type": "uint256"
        },
        {
          "indexed": true,
          "internalType": "uint256",
          "name": "amount",
          "type": "uint256"
        }
      ],
      "name": "RoyaltyClubBonusPaid",
      "type": "event"
    },
    {
      "anonymous": false,
      "inputs": [
        {
          "indexed": true,
          "internalType": "address",
          "name": "implementation",
          "type": "address"
        }
      ],
      "name": "Upgraded",
      "type": "event"
    },
    {
      "inputs": [
        {
          "internalType": "uint256",
          "name": "",
          "type": "uint256"
        }
      ],
      "name": "_disabledUsersList",
      "outputs": [
        {
          "internalType": "address",
          "name": "",
          "type": "address"
        }
      ],
      "stateMutability": "view",
      "type": "function"
    },
    {
      "inputs": [
        {
          "internalType": "uint32",
          "name": "_refererID",
          "type": "uint32"
        }
      ],
      "name": "activateID",
      "outputs": [],
      "stateMutability": "payable",
      "type": "function"
    },
    {
      "inputs": [
        {
          "internalType": "uint32[]",
          "name": "_userID",
          "type": "uint32[]"
        }
      ],
      "name": "addTeamAddress",
      "outputs": [],
      "stateMutability": "nonpayable",
      "type": "function"
    },
    {
      "inputs": [
        {
          "internalType": "uint256",
          "name": "",
          "type": "uint256"
        }
      ],
      "name": "admins",
      "outputs": [
        {
          "internalType": "address",
          "name": "",
          "type": "address"
        }
      ],
      "stateMutability": "view",
      "type": "function"
    },
    {
      "inputs": [
        {
          "internalType": "uint32",
          "name": "_id",
          "type": "uint32"
        },
        {
          "internalType": "uint256",
          "name": "_valueInUSD",
          "type": "uint256"
        }
      ],
      "name": "claimBalance",
      "outputs": [],
      "stateMutability": "nonpayable",
      "type": "function"
    },
    {
      "inputs": [],
      "name": "companyTurnoverTimeLimit",
      "outputs": [
        {
          "internalType": "uint256",
          "name": "",
          "type": "uint256"
        }
      ],
      "stateMutability": "view",
      "type": "function"
    },
    {
      "inputs": [],
      "name": "companyTurnoverTimeStamp",
      "outputs": [
        {
          "internalType": "uint256",
          "name": "",
          "type": "uint256"
        }
      ],
      "stateMutability": "view",
      "type": "function"
    },
    {
      "inputs": [],
      "name": "companyTurnoverWithTimeLimit",
      "outputs": [
        {
          "internalType": "uint256",
          "name": "",
          "type": "uint256"
        }
      ],
      "stateMutability": "view",
      "type": "function"
    },
    {
      "inputs": [],
      "name": "decimals",
      "outputs": [
        {
          "internalType": "uint16",
          "name": "",
          "type": "uint16"
        }
      ],
      "stateMutability": "view",
      "type": "function"
    },
    {
      "inputs": [
        {
          "internalType": "address",
          "name": "_userAddress",
          "type": "address"
        }
      ],
      "name": "disableUserAdmin",
      "outputs": [],
      "stateMutability": "nonpayable",
      "type": "function"
    },
    {
      "inputs": [
        {
          "internalType": "uint32",
          "name": "_id",
          "type": "uint32"
        }
      ],
      "name": "getIDAccount",
      "outputs": [
        {
          "components": [
            {
              "internalType": "uint32",
              "name": "id",
              "type": "uint32"
            },
            {
              "internalType": "string",
              "name": "oldID",
              "type": "string"
            },
            {
              "internalType": "bool",
              "name": "isDisabled",
              "type": "bool"
            },
            {
              "internalType": "address",
              "name": "owner",
              "type": "address"
            },
            {
              "internalType": "uint256",
              "name": "joiningTime",
              "type": "uint256"
            },
            {
              "internalType": "uint256",
              "name": "activationTime",
              "type": "uint256"
            },
            {
              "internalType": "uint256",
              "name": "deactivateTime",
              "type": "uint256"
            },
            {
              "internalType": "uint32[]",
              "name": "roiIDs",
              "type": "uint32[]"
            },
            {
              "internalType": "uint32",
              "name": "refererID",
              "type": "uint32"
            },
            {
              "internalType": "uint32[]",
              "name": "refereeIDs",
              "type": "uint32[]"
            },
            {
              "internalType": "uint32[]",
              "name": "teamIDs",
              "type": "uint32[]"
            },
            {
              "internalType": "uint32[]",
              "name": "teamLevel",
              "type": "uint32[]"
            },
            {
              "internalType": "uint256",
              "name": "selfBusinessUSD",
              "type": "uint256"
            },
            {
              "internalType": "uint256",
              "name": "selfBusinessUSDOld",
              "type": "uint256"
            },
            {
              "internalType": "uint256",
              "name": "directBusinessUSD",
              "type": "uint256"
            },
            {
              "internalType": "uint256",
              "name": "directBusinessUSDOld",
              "type": "uint256"
            },
            {
              "internalType": "uint256",
              "name": "teamBusinessUSD",
              "type": "uint256"
            },
            {
              "internalType": "uint256",
              "name": "teamBusinessUSDOld",
              "type": "uint256"
            },
            {
              "internalType": "uint256",
              "name": "royaltyClubBusinessUSD",
              "type": "uint256"
            },
            {
              "internalType": "uint256",
              "name": "timeStampRoyaltyClub",
              "type": "uint256"
            },
            {
              "internalType": "uint8",
              "name": "royaltyClubPackageID",
              "type": "uint8"
            },
            {
              "internalType": "uint256",
              "name": "royaltyClubListIndex",
              "type": "uint256"
            },
            {
              "internalType": "uint256",
              "name": "referralPaidUSD",
              "type": "uint256"
            },
            {
              "internalType": "uint256",
              "name": "rewardPaidRoyaltyClubUSD",
              "type": "uint256"
            },
            {
              "internalType": "uint256",
              "name": "topUpUSD",
              "type": "uint256"
            },
            {
              "internalType": "uint256",
              "name": "balanceClaimedUSD",
              "type": "uint256"
            },
            {
              "internalType": "uint256",
              "name": "limitBalanceUSD",
              "type": "uint256"
            },
            {
              "internalType": "uint256",
              "name": "maxLimitAmount",
              "type": "uint256"
            },
            {
              "internalType": "uint256",
              "name": "totalROIClaimedUSD",
              "type": "uint256"
            },
            {
              "internalType": "uint256",
              "name": "roiClaimedUSD",
              "type": "uint256"
            },
            {
              "internalType": "uint256",
              "name": "roiClaimTimestamp",
              "type": "uint256"
            }
          ],
          "internalType": "struct ReferralV2Upgradeable.StructID",
          "name": "",
          "type": "tuple"
        }
      ],
      "stateMutability": "view",
      "type": "function"
    },
    {
      "inputs": [
        {
          "internalType": "uint32",
          "name": "_id",
          "type": "uint32"
        }
      ],
      "name": "getIDRoyaltyClubLevel",
      "outputs": [
        {
          "internalType": "uint256",
          "name": "",
          "type": "uint256"
        }
      ],
      "stateMutability": "view",
      "type": "function"
    },
    {
      "inputs": [],
      "name": "getMinContributionETH",
      "outputs": [
        {
          "internalType": "uint256",
          "name": "",
          "type": "uint256"
        }
      ],
      "stateMutability": "view",
      "type": "function"
    },
    {
      "inputs": [],
      "name": "getPriceOracleContract",
      "outputs": [
        {
          "internalType": "address",
          "name": "",
          "type": "address"
        }
      ],
      "stateMutability": "view",
      "type": "function"
    },
    {
      "inputs": [
        {
          "internalType": "uint32",
          "name": "_roiID",
          "type": "uint32"
        }
      ],
      "name": "getROIAccount",
      "outputs": [
        {
          "components": [
            {
              "internalType": "bool",
              "name": "isActive",
              "type": "bool"
            },
            {
              "internalType": "uint32",
              "name": "ownerID",
              "type": "uint32"
            },
            {
              "internalType": "uint256",
              "name": "valueInUSD",
              "type": "uint256"
            },
            {
              "internalType": "uint16",
              "name": "roiRate",
              "type": "uint16"
            },
            {
              "internalType": "uint256",
              "name": "startTime",
              "type": "uint256"
            },
            {
              "internalType": "uint256",
              "name": "duration",
              "type": "uint256"
            }
          ],
          "internalType": "struct ReferralV2Upgradeable.StructROI",
          "name": "",
          "type": "tuple"
        }
      ],
      "stateMutability": "view",
      "type": "function"
    },
    {
      "inputs": [
        {
          "internalType": "address",
          "name": "_address",
          "type": "address"
        }
      ],
      "name": "getUserAccount",
      "outputs": [
        {
          "components": [
            {
              "internalType": "bool",
              "name": "isDisabled",
              "type": "bool"
            },
            {
              "internalType": "uint32[]",
              "name": "accountIDs",
              "type": "uint32[]"
            }
          ],
          "internalType": "struct ReferralV2Upgradeable.StructAccount",
          "name": "",
          "type": "tuple"
        }
      ],
      "stateMutability": "view",
      "type": "function"
    },
    {
      "inputs": [
        {
          "internalType": "uint32",
          "name": "_id",
          "type": "uint32"
        }
      ],
      "name": "getUserIDTotalROI",
      "outputs": [
        {
          "internalType": "uint256",
          "name": "roi",
          "type": "uint256"
        }
      ],
      "stateMutability": "view",
      "type": "function"
    },
    {
      "inputs": [
        {
          "internalType": "uint32",
          "name": "_id",
          "type": "uint32"
        }
      ],
      "name": "getUserTotalActiveROIValue",
      "outputs": [
        {
          "internalType": "uint256",
          "name": "",
          "type": "uint256"
        }
      ],
      "stateMutability": "view",
      "type": "function"
    },
    {
      "inputs": [
        {
          "internalType": "uint32",
          "name": "_id",
          "type": "uint32"
        }
      ],
      "name": "getUserUnlockCount",
      "outputs": [
        {
          "internalType": "uint256",
          "name": "",
          "type": "uint256"
        }
      ],
      "stateMutability": "view",
      "type": "function"
    },
    {
      "inputs": [],
      "name": "initialize",
      "outputs": [],
      "stateMutability": "nonpayable",
      "type": "function"
    },
    {
      "inputs": [],
      "name": "isPayROI",
      "outputs": [
        {
          "internalType": "bool",
          "name": "",
          "type": "bool"
        }
      ],
      "stateMutability": "view",
      "type": "function"
    },
    {
      "inputs": [],
      "name": "isPayRoyaltyClubBonus",
      "outputs": [
        {
          "internalType": "bool",
          "name": "",
          "type": "bool"
        }
      ],
      "stateMutability": "view",
      "type": "function"
    },
    {
      "inputs": [
        {
          "internalType": "address",
          "name": "_userAddress",
          "type": "address"
        }
      ],
      "name": "isUserDisabledByAdmin",
      "outputs": [
        {
          "internalType": "bool",
          "name": "",
          "type": "bool"
        }
      ],
      "stateMutability": "view",
      "type": "function"
    },
    {
      "inputs": [
        {
          "internalType": "uint256",
          "name": "",
          "type": "uint256"
        }
      ],
      "name": "levelRates",
      "outputs": [
        {
          "internalType": "uint16",
          "name": "",
          "type": "uint16"
        }
      ],
      "stateMutability": "view",
      "type": "function"
    },
    {
      "inputs": [],
      "name": "maxLevelsCount",
      "outputs": [
        {
          "internalType": "uint8",
          "name": "",
          "type": "uint8"
        }
      ],
      "stateMutability": "view",
      "type": "function"
    },
    {
      "inputs": [],
      "name": "minContributionInUSD",
      "outputs": [
        {
          "internalType": "uint256",
          "name": "",
          "type": "uint256"
        }
      ],
      "stateMutability": "view",
      "type": "function"
    },
    {
      "inputs": [],
      "name": "owner",
      "outputs": [
        {
          "internalType": "address",
          "name": "",
          "type": "address"
        }
      ],
      "stateMutability": "view",
      "type": "function"
    },
    {
      "inputs": [],
      "name": "packagesCount",
      "outputs": [
        {
          "internalType": "uint8",
          "name": "",
          "type": "uint8"
        }
      ],
      "stateMutability": "view",
      "type": "function"
    },
    {
      "inputs": [],
      "name": "proxiableUUID",
      "outputs": [
        {
          "internalType": "bytes32",
          "name": "",
          "type": "bytes32"
        }
      ],
      "stateMutability": "view",
      "type": "function"
    },
    {
      "inputs": [
        {
          "internalType": "uint32[]",
          "name": "_userID",
          "type": "uint32[]"
        }
      ],
      "name": "removeRefereeArray",
      "outputs": [],
      "stateMutability": "nonpayable",
      "type": "function"
    },
    {
      "inputs": [
        {
          "internalType": "address",
          "name": "_userAddress",
          "type": "address"
        }
      ],
      "name": "removeUserFromDisableList",
      "outputs": [],
      "stateMutability": "nonpayable",
      "type": "function"
    },
    {
      "inputs": [],
      "name": "renounceOwnership",
      "outputs": [],
      "stateMutability": "nonpayable",
      "type": "function"
    },
    {
      "inputs": [],
      "name": "royaltyClubPackageCount",
      "outputs": [
        {
          "internalType": "uint8",
          "name": "",
          "type": "uint8"
        }
      ],
      "stateMutability": "view",
      "type": "function"
    },
    {
      "inputs": [
        {
          "internalType": "address",
          "name": "_address",
          "type": "address"
        },
        {
          "internalType": "uint256",
          "name": "_value",
          "type": "uint256"
        }
      ],
      "name": "sendETHAdmin",
      "outputs": [],
      "stateMutability": "nonpayable",
      "type": "function"
    },
    {
      "inputs": [
        {
          "internalType": "address",
          "name": "_adminAddress",
          "type": "address"
        }
      ],
      "name": "setAdmin",
      "outputs": [],
      "stateMutability": "nonpayable",
      "type": "function"
    },
    {
      "inputs": [
        {
          "internalType": "uint256",
          "name": "_valueInWei",
          "type": "uint256"
        }
      ],
      "name": "setMinContribution",
      "outputs": [],
      "stateMutability": "nonpayable",
      "type": "function"
    },
    {
      "inputs": [
        {
          "internalType": "address",
          "name": "_contractAddress",
          "type": "address"
        }
      ],
      "name": "setPriceOracleContract",
      "outputs": [],
      "stateMutability": "nonpayable",
      "type": "function"
    },
    {
      "inputs": [
        {
          "internalType": "uint32",
          "name": "_id",
          "type": "uint32"
        }
      ],
      "name": "topUpID",
      "outputs": [],
      "stateMutability": "payable",
      "type": "function"
    },
    {
      "inputs": [],
      "name": "totalIDs",
      "outputs": [
        {
          "internalType": "uint32",
          "name": "",
          "type": "uint32"
        }
      ],
      "stateMutability": "view",
      "type": "function"
    },
    {
      "inputs": [],
      "name": "totalROIIDs",
      "outputs": [
        {
          "internalType": "uint32",
          "name": "",
          "type": "uint32"
        }
      ],
      "stateMutability": "view",
      "type": "function"
    },
    {
      "inputs": [],
      "name": "totalROIPaidUSD",
      "outputs": [
        {
          "internalType": "uint256",
          "name": "",
          "type": "uint256"
        }
      ],
      "stateMutability": "view",
      "type": "function"
    },
    {
      "inputs": [],
      "name": "totalReferralPaidUSD",
      "outputs": [
        {
          "internalType": "uint256",
          "name": "",
          "type": "uint256"
        }
      ],
      "stateMutability": "view",
      "type": "function"
    },
    {
      "inputs": [],
      "name": "totalRoyaltyClubBonusPaidETH",
      "outputs": [
        {
          "internalType": "uint256",
          "name": "",
          "type": "uint256"
        }
      ],
      "stateMutability": "view",
      "type": "function"
    },
    {
      "inputs": [],
      "name": "totalRoyaltyClubBonusPaidUSD",
      "outputs": [
        {
          "internalType": "uint256",
          "name": "",
          "type": "uint256"
        }
      ],
      "stateMutability": "view",
      "type": "function"
    },
    {
      "inputs": [],
      "name": "totalUsers",
      "outputs": [
        {
          "internalType": "uint32",
          "name": "",
          "type": "uint32"
        }
      ],
      "stateMutability": "view",
      "type": "function"
    },
    {
      "inputs": [
        {
          "internalType": "address",
          "name": "newOwner",
          "type": "address"
        }
      ],
      "name": "transferOwnership",
      "outputs": [],
      "stateMutability": "nonpayable",
      "type": "function"
    },
    {
      "inputs": [
        {
          "internalType": "uint32[]",
          "name": "_userID",
          "type": "uint32[]"
        },
        {
          "internalType": "address[]",
          "name": "_userAddress",
          "type": "address[]"
        },
        {
          "internalType": "uint32[]",
          "name": "_referrerID",
          "type": "uint32[]"
        },
        {
          "internalType": "string[]",
          "name": "_oldID",
          "type": "string[]"
        }
      ],
      "name": "updateIDOldIDtoAddress",
      "outputs": [],
      "stateMutability": "nonpayable",
      "type": "function"
    },
    {
      "inputs": [
        {
          "internalType": "uint32",
          "name": "_value",
          "type": "uint32"
        }
      ],
      "name": "updateTotalIDs",
      "outputs": [],
      "stateMutability": "nonpayable",
      "type": "function"
    },
    {
      "inputs": [
        {
          "internalType": "uint32[]",
          "name": "_userID",
          "type": "uint32[]"
        },
        {
          "internalType": "uint256[]",
          "name": "_totalTopUp",
          "type": "uint256[]"
        },
        {
          "internalType": "uint256[]",
          "name": "_limitBalanceUSD",
          "type": "uint256[]"
        },
        {
          "internalType": "uint256[]",
          "name": "_balanceClaimedUSD",
          "type": "uint256[]"
        },
        {
          "internalType": "uint256[]",
          "name": "_joiningTime",
          "type": "uint256[]"
        },
        {
          "internalType": "uint256[]",
          "name": "_activationTime",
          "type": "uint256[]"
        }
      ],
      "name": "updateUserIDDataOldAdmin",
      "outputs": [],
      "stateMutability": "nonpayable",
      "type": "function"
    },
    {
      "inputs": [
        {
          "internalType": "address",
          "name": "newImplementation",
          "type": "address"
        }
      ],
      "name": "upgradeTo",
      "outputs": [],
      "stateMutability": "nonpayable",
      "type": "function"
    },
    {
      "inputs": [
        {
          "internalType": "address",
          "name": "newImplementation",
          "type": "address"
        },
        {
          "internalType": "bytes",
          "name": "data",
          "type": "bytes"
        }
      ],
      "name": "upgradeToAndCall",
      "outputs": [],
      "stateMutability": "payable",
      "type": "function"
    },
    {
      "inputs": [],
      "name": "withdrawETHAdmin",
      "outputs": [],
      "stateMutability": "nonpayable",
      "type": "function"
    },
    {
      "inputs": [
        {
          "internalType": "address",
          "name": "_tokenAddress",
          "type": "address"
        },
        {
          "internalType": "uint256",
          "name": "_value",
          "type": "uint256"
        }
      ],
      "name": "withdrawTokensAdmin",
      "outputs": [],
      "stateMutability": "nonpayable",
      "type": "function"
    },
    {
      "stateMutability": "payable",
      "type": "receive"
    }
  ],
  "bytecode": "0x60a06040523060805234801561001457600080fd5b50608051615b4c6200004d60003960008181610c5901528181610c990152818161108d015281816110cd015261115c0152615b4c6000f3fe60806040526004361061031e5760003560e01c80637a026935116101ab578063bc09161b116100f7578063ea62f71511610095578063f41bfeef1161006f578063f41bfeef14610a18578063f830e57b14610a2e578063fafc959714610a5b578063fb47e01614610a7a57600080fd5b8063ea62f715146109b8578063f2fde38b146109d8578063f31a2d0f146109f857600080fd5b8063c3ab5ebf116100d1578063c3ab5ebf14610854578063db003b2a14610965578063e52356f314610985578063e5682e38146109a557600080fd5b8063bc09161b146107f7578063bf46de6314610817578063bff1f9e11461083757600080fd5b80639f4e839811610164578063a28a36861161013e578063a28a36861461078a578063af2f39d1146107aa578063b47181d3146107c4578063b92d18c1146107e457600080fd5b80639f4e839814610726578063a0b6105f14610746578063a1b801751461076657600080fd5b80637a026935146106875780637f2f4a911461069d5780638129fc1c146106bd5780638da5cb5b146106d25780638df05d9c146106f057806396ed6b851461071057600080fd5b80633659cfe61161026a5780635e701d861161022357806370d9e081116101fd57806370d9e08114610612578063715018a61461063257806376a68e84146106475780637879b5ef1461066757600080fd5b80635e701d86146105a25780636dc8afc5146105dc578063704b6c02146105f257600080fd5b80633659cfe6146104d1578063473b0d46146104f157806349b32504146105115780634f1ef2861461053157806352d1902d14610544578063538ffe0c1461055957600080fd5b80631f7f83ba116102d75780632913497b116102b15780632913497b1461045a5780632ed421d214610478578063313ce5671461048e57806335759788146104bc57600080fd5b80631f7f83ba1461040f5780631f9e65e41461042f57806322f88b521461044457600080fd5b806309de82cd1461032a5780630b243dad146103535780630efdbb6a1461037557806314bfd6d01461039557806318e10bff146103cd5780631dc209ff146103f957600080fd5b3661032557005b600080fd5b34801561033657600080fd5b5061034060ce5481565b6040519081526020015b60405180910390f35b34801561035f57600080fd5b5061037361036e366004614f40565b610aa7565b005b34801561038157600080fd5b50610373610390366004614f6a565b610aea565b3480156103a157600080fd5b506103b56103b0366004614f85565b610bcc565b6040516001600160a01b03909116815260200161034a565b3480156103d957600080fd5b5060d9546103e79060ff1681565b60405160ff909116815260200161034a565b34801561040557600080fd5b5061034060cf5481565b34801561041b57600080fd5b506103b561042a366004614f85565b610bf6565b34801561043b57600080fd5b50610340610c06565b34801561045057600080fd5b5061034060d55481565b34801561046657600080fd5b5060c9546001600160a01b03166103b5565b34801561048457600080fd5b5061034060d65481565b34801561049a57600080fd5b5060cb546104a99061ffff1681565b60405161ffff909116815260200161034a565b3480156104c857600080fd5b50610373610c18565b3480156104dd57600080fd5b506103736104ec366004614f6a565b610c4f565b3480156104fd57600080fd5b5061037361050c366004614f85565b610d2b565b34801561051d57600080fd5b5061037361052c366004614fe9565b610d38565b61037361053f3660046150c7565b611083565b34801561055057600080fd5b5061034061114f565b34801561056557600080fd5b50610592610574366004614f6a565b6001600160a01b0316600090815260da602052604090205460ff1690565b604051901515815260200161034a565b3480156105ae57600080fd5b5060d1546105c790640100000000900463ffffffff1681565b60405163ffffffff909116815260200161034a565b3480156105e857600080fd5b5061034060d05481565b3480156105fe57600080fd5b5061037361060d366004614f6a565b611202565b34801561061e57600080fd5b5061037361062d36600461513c565b61125c565b34801561063e57600080fd5b50610373611336565b34801561065357600080fd5b5061034061066236600461513c565b61134a565b34801561067357600080fd5b506104a9610682366004614f85565b61175b565b34801561069357600080fd5b5061034060cd5481565b3480156106a957600080fd5b506103736106b8366004614fe9565b611793565b3480156106c957600080fd5b506103736118da565b3480156106de57600080fd5b506033546001600160a01b03166103b5565b3480156106fc57600080fd5b5060cb546103e79062010000900460ff1681565b34801561071c57600080fd5b5061034060cc5481565b34801561073257600080fd5b50610373610741366004614f6a565b611b78565b34801561075257600080fd5b50610373610761366004614f40565b611c94565b34801561077257600080fd5b5060d1546105c790600160401b900463ffffffff1681565b34801561079657600080fd5b5060d4546103e79062010000900460ff1681565b3480156107b657600080fd5b5060d4546105929060ff1681565b3480156107d057600080fd5b506103406107df36600461513c565b611d0d565b6103736107f236600461513c565b61211b565b34801561080357600080fd5b50610373610812366004615157565b612263565b34801561082357600080fd5b5061034061083236600461513c565b6125ef565b34801561084357600080fd5b5060d1546105c79063ffffffff1681565b34801561086057600080fd5b5061090d61086f36600461513c565b6040805160c081018252600080825260208201819052918101829052606081018290526080810182905260a08101919091525063ffffffff908116600090815260dc6020908152604091829020825160c081018452815460ff811615158252610100900490941691840191909152600181015491830191909152600281015461ffff166060830152600381015460808301526004015460a082015290565b60405161034a9190600060c08201905082511515825263ffffffff60208401511660208301526040830151604083015261ffff60608401511660608301526080830151608083015260a083015160a083015292915050565b34801561097157600080fd5b506103736109803660046152b3565b612653565b34801561099157600080fd5b506103736109a0366004614f6a565b61286e565b6103736109b336600461513c565b612a43565b3480156109c457600080fd5b506103406109d336600461513c565b612bb4565b3480156109e457600080fd5b506103736109f3366004614f6a565b612ccb565b348015610a0457600080fd5b50610373610a133660046153f0565b612d41565b348015610a2457600080fd5b5061034060d75481565b348015610a3a57600080fd5b50610a4e610a4936600461513c565b612e8d565b60405161034a919061549d565b348015610a6757600080fd5b5060d45461059290610100900460ff1681565b348015610a8657600080fd5b50610a9a610a95366004614f6a565b61338d565b60405161034a91906156ba565b610aaf613458565b6040516001600160a01b0383169082156108fc029083906000818181858888f19350505050158015610ae5573d6000803e3d6000fd5b505050565b60005b60de5460ff82161015610bc85760de8160ff1681548110610b1057610b106156e1565b6000918252602090912001546001600160a01b03163303610b4c5760c980546001600160a01b0384166001600160a01b03199091161790555050565b60de54610b5b9060019061570d565b8160ff1603610bb65760de8160ff1681548110610b7a57610b7a6156e1565b6000918252602090912001546001600160a01b03163314610bb65760405162461bcd60e51b8152600401610bad90615720565b60405180910390fd5b80610bc08161574b565b915050610aed565b5050565b60de8181548110610bdc57600080fd5b6000918252602090912001546001600160a01b0316905081565b60d88181548110610bdc57600080fd5b6000610c1360cc546134b2565b905090565b610c20613458565b60405133904780156108fc02916000818181858888f19350505050158015610c4c573d6000803e3d6000fd5b50565b6001600160a01b037f0000000000000000000000000000000000000000000000000000000000000000163003610c975760405162461bcd60e51b8152600401610bad9061576a565b7f00000000000000000000000000000000000000000000000000000000000000006001600160a01b0316610ce0600080516020615ad0833981519152546001600160a01b031690565b6001600160a01b031614610d065760405162461bcd60e51b8152600401610bad906157b6565b610d0f81613548565b60408051600080825260208201909252610c4c91839190613550565b610d33613458565b60cc55565b60005b60de5460ff82161015610ae55760de8160ff1681548110610d5e57610d5e6156e1565b6000918252602090912001546001600160a01b031633036110105760005b63ffffffff811683111561100a57600060db600086868563ffffffff16818110610da857610da86156e1565b9050602002016020810190610dbd919061513c565b63ffffffff1681526020810191909152604001600090812060cb5490925062010000900460ff16905b8160ff168163ffffffff161015610ff457600783015463ffffffff908116600081815260db60205260408120919284169003610e8a578060080189898863ffffffff16818110610e3857610e386156e1565b9050602002016020810190610e4d919061513c565b8154600181018355600092835260209092206008830401805460079093166004026101000a63ffffffff8181021990941692909316929092021790555b845463ffffffff16600003610ea0575050610ff4565b8060090189898863ffffffff16818110610ebc57610ebc6156e1565b9050602002016020810190610ed1919061513c565b815460018082018455600093845260209093206008820401805460079092166004026101000a63ffffffff818102199093169390921691909102919091179055600a820190610f21908590615802565b8154600181018355600092835260209092206008830401805460079093166004026101000a63ffffffff8181021990941692841602919091179055899089908816818110610f7157610f716156e1565b9050602002016020810190610f86919061513c565b6002820154825460405163ffffffff9182168152928116929085169161010090046001600160a01b0316907fa7fafc728ec30e34dc1e1276496bf3eb44ca7494679da969455289e6a8f0f1f69060200160405180910390a49350819050610fec81615826565b915050610de6565b505050808061100290615826565b915050610d7c565b50505050565b60de5461101f9060019061570d565b8160ff16036110715760de8160ff168154811061103e5761103e6156e1565b6000918252602090912001546001600160a01b031633146110715760405162461bcd60e51b8152600401610bad90615720565b8061107b8161574b565b915050610d3b565b6001600160a01b037f00000000000000000000000000000000000000000000000000000000000000001630036110cb5760405162461bcd60e51b8152600401610bad9061576a565b7f00000000000000000000000000000000000000000000000000000000000000006001600160a01b0316611114600080516020615ad0833981519152546001600160a01b031690565b6001600160a01b03161461113a5760405162461bcd60e51b8152600401610bad906157b6565b61114382613548565b610bc882826001613550565b6000306001600160a01b037f000000000000000000000000000000000000000000000000000000000000000016146111ef5760405162461bcd60e51b815260206004820152603860248201527f555550535570677261646561626c653a206d757374206e6f742062652063616c60448201527f6c6564207468726f7567682064656c656761746563616c6c00000000000000006064820152608401610bad565b50600080516020615ad083398151915290565b61120a613458565b60de80546001810182556000919091527ffae8130c0619f84b4b44f01b84806f04e82e536d70e05f2356977fa318aecc1a0180546001600160a01b0319166001600160a01b0392909216919091179055565b60005b60de5460ff82161015610bc85760de8160ff1681548110611282576112826156e1565b6000918252602090912001546001600160a01b031633036112c35760d1805463ffffffff84166401000000000267ffffffff00000000199091161790555050565b60de546112d29060019061570d565b8160ff16036113245760de8160ff16815481106112f1576112f16156e1565b6000918252602090912001546001600160a01b031633146113245760405162461bcd60e51b8152600401610bad90615720565b8061132e8161574b565b91505061125f565b61133e613458565b61134860006136bb565b565b63ffffffff808216600090815260db6020908152604080832081516103e08101909252805490941681526001840180549394859492939092908401919061139090615849565b80601f01602080910402602001604051908101604052809291908181526020018280546113bc90615849565b80156114095780601f106113de57610100808354040283529160200191611409565b820191906000526020600020905b8154815290600101906020018083116113ec57829003601f168201915b5050509183525050600282015460ff811615156020808401919091526101009091046001600160a01b03166040808401919091526003840154606084015260048401546080840152600584015460a084015260068401805482518185028101850190935280835260c09094019391929091908301828280156114d657602002820191906000526020600020906000905b82829054906101000a900463ffffffff1663ffffffff16815260200190600401906020826003010492830192600103820291508084116114995790505b5050509183525050600782015463ffffffff16602080830191909152600883018054604080518285028101850182528281529401939283018282801561156757602002820191906000526020600020906000905b82829054906101000a900463ffffffff1663ffffffff168152602001906004019060208260030104928301926001038202915080841161152a5790505b50505050508152602001600982018054806020026020016040519081016040528092919081815260200182805480156115eb57602002820191906000526020600020906000905b82829054906101000a900463ffffffff1663ffffffff16815260200190600401906020826003010492830192600103820291508084116115ae5790505b50505050508152602001600a820180548060200260200160405190810160405280929190818152602001828054801561166f57602002820191906000526020600020906000905b82829054906101000a900463ffffffff1663ffffffff16815260200190600401906020826003010492830192600103820291508084116116325790505b5050509183525050600b8201546020820152600c8201546040820152600d8201546060820152600e8201546080820152600f82015460a0820152601082015460c0820152601182015460e08201526012820154610100820152601382015460ff1661012082015260148201546101408201526015820154610160820152601682015461018082015260178201546101a082015260188201546101c082015260198201546101e0820152601a820154610200820152601b820154610220820152601c820154610240820152601d909101546102609091015290506117518161370d565b60ff169392505050565b60ca818154811061176b57600080fd5b9060005260206000209060109182820401919006600202915054906101000a900461ffff1681565b60005b60de5460ff82161015610ae55760de8160ff16815481106117b9576117b96156e1565b6000918252602090912001546001600160a01b031633036118675760005b63ffffffff811683111561100a57600060db600086868563ffffffff16818110611803576118036156e1565b9050602002016020810190611818919061513c565b63ffffffff168152602080820192909252604090810160009081208251918252928101918290525191925061185291600884019190614dca565b5050808061185f90615826565b9150506117d7565b60de546118769060019061570d565b8160ff16036118c85760de8160ff1681548110611895576118956156e1565b6000918252602090912001546001600160a01b031633146118c85760405162461bcd60e51b8152600401610bad90615720565b806118d28161574b565b915050611796565b600054610100900460ff16158080156118fa5750600054600160ff909116105b806119145750303b158015611914575060005460ff166001145b6119775760405162461bcd60e51b815260206004820152602e60248201527f496e697469616c697a61626c653a20636f6e747261637420697320616c72656160448201526d191e481a5b9a5d1a585b1a5e995960921b6064820152608401610bad565b6000805460ff19166001179055801561199a576000805461ff0019166101001790555b60c980546001600160a01b03191673286d6392042b4d7180fd6d20f8d35c877681577417905560cb805461ffff19166103e8179055604080516103a08101825260648152604660208201526032918101829052606081018290526080810182905260a0810182905260c0810182905260e08101829052610100810182905261012081018290526101408101829052610160810182905261018081018290526101a081018290526101c081018290526101e08101829052610200810182905261022081018290526102408101919091526014610260820181905261028082018190526102a082018190526102c082018190526102e082018190526103008201819052610320820181905261034082018190526103608201819052610380820152611ac79060ca90601d614e79565b5060cb805462ff0000191662320000179055670de0b6b3a764000060cc5560d4805463ff00ffff1916630200000117905560d1805461ffff60601b1916607d60631b17905563020f580060d255601460d35562278d0060d755611b286137b4565b611b306137e3565b8015610c4c576000805461ff0019169055604051600181527f7f26b83ff96e1f2b6a682f133852f6798a09c465da95921460cefb38474024989060200160405180910390a150565b60005b60de5460ff82161015610bc85760de8160ff1681548110611b9e57611b9e6156e1565b6000918252602090912001546001600160a01b03163303611c215760d8805460018181019092557f5320ad99a619a90804cd2efe3a5cf0ac1ac5c41ad9ff2c61cf699efdad7710960180546001600160a01b0385166001600160a01b03199091168117909155600090815260da60205260409020805460ff191690911790555050565b60de54611c309060019061570d565b8160ff1603611c825760de8160ff1681548110611c4f57611c4f6156e1565b6000918252602090912001546001600160a01b03163314611c825760405162461bcd60e51b8152600401610bad90615720565b80611c8c8161574b565b915050611b7b565b611c9c613458565b60405163a9059cbb60e01b8152336004820152602481018290526001600160a01b0383169063a9059cbb906044016020604051808303816000875af1158015611ce9573d6000803e3d6000fd5b505050506040513d601f19601f82011682018060405250810190610ae59190615883565b63ffffffff808216600090815260db6020908152604080832081516103e081019092528054909416815260018401805493948594929390929084019190611d5390615849565b80601f0160208091040260200160405190810160405280929190818152602001828054611d7f90615849565b8015611dcc5780601f10611da157610100808354040283529160200191611dcc565b820191906000526020600020905b815481529060010190602001808311611daf57829003601f168201915b5050509183525050600282015460ff811615156020808401919091526101009091046001600160a01b03166040808401919091526003840154606084015260048401546080840152600584015460a084015260068401805482518185028101850190935280835260c0909401939192909190830182828015611e9957602002820191906000526020600020906000905b82829054906101000a900463ffffffff1663ffffffff1681526020019060040190602082600301049283019260010382029150808411611e5c5790505b5050509183525050600782015463ffffffff166020808301919091526008830180546040805182850281018501825282815294019392830182828015611f2a57602002820191906000526020600020906000905b82829054906101000a900463ffffffff1663ffffffff1681526020019060040190602082600301049283019260010382029150808411611eed5790505b5050505050815260200160098201805480602002602001604051908101604052809291908181526020018280548015611fae57602002820191906000526020600020906000905b82829054906101000a900463ffffffff1663ffffffff1681526020019060040190602082600301049283019260010382029150808411611f715790505b50505050508152602001600a820180548060200260200160405190810160405280929190818152602001828054801561203257602002820191906000526020600020906000905b82829054906101000a900463ffffffff1663ffffffff1681526020019060040190602082600301049283019260010382029150808411611ff55790505b5050509183525050600b8201546020820152600c8201546040820152600d8201546060820152600e8201546080820152600f82015460a0820152601082015460c0820152601182015460e08201526012820154610100820152601382015460ff1661012082015260148201546101408201526015820154610160820152601682015461018082015260178201546101a082015260188201546101c082015260198201546101e0820152601a820154610200820152601b820154610220820152601c820154610240820152601d909101546102609091015290506121148161380a565b9392505050565b60cc543490612129906134b2565b81101561218c5760405162461bcd60e51b815260206004820152602b60248201527f56616c75652073686f756c6420626520677265617465207468656e206d696e4360448201526a37b73a3934b13aba34b7b760a91b6064820152608401610bad565b33600061219883613847565b60d15490915042906000906121bb90600160401b900463ffffffff166001615802565b63ffffffff8716600090815260db602052604090206002810154919250906001600160a01b0386811661010090920416146122385760405162461bcd60e51b815260206004820152601d60248201527f596f7520617265206e6f74206f776e6572206f6620746869732069642e0000006044820152606401610bad565b60d45460ff161561224f5761224f878386866138d4565b61225a8785856139c6565b50505050505050565b60005b60de5460ff821610156125e55760de8160ff1681548110612289576122896156e1565b6000918252602090912001546001600160a01b031633036125725760005b61ffff811688111561256c57600060db60008b8b8561ffff168181106122cf576122cf6156e1565b90506020020160208101906122e4919061513c565b63ffffffff1663ffffffff1681526020019081526020016000209050600060da60008a8a8661ffff1681811061231c5761231c6156e1565b90506020020160208101906123319190614f6a565b6001600160a01b03166001600160a01b0316815260200190815260200160002090508a8a8461ffff16818110612369576123696156e1565b905060200201602081019061237e919061513c565b825463ffffffff191663ffffffff919091161782558451859061ffff85169081106123ab576123ab6156e1565b60200260200101518260010190816123c391906158eb565b50806001018b8b8561ffff168181106123de576123de6156e1565b90506020020160208101906123f3919061513c565b8154600181018355600092835260209092206008830401805460079093166004026101000a63ffffffff818102199094169290931692909202179055888861ffff8516818110612445576124456156e1565b905060200201602081019061245a9190614f6a565b8260020160016101000a8154816001600160a01b0302191690836001600160a01b0316021790555086868461ffff16818110612498576124986156e1565b90506020020160208101906124ad919061513c565b60078301805463ffffffff191663ffffffff92909216919091179055868661ffff85168181106124df576124df6156e1565b90506020020160208101906124f4919061513c565b63ffffffff168b8b8561ffff16818110612510576125106156e1565b9050602002016020810190612525919061513c565b63ffffffff167f9d714438ba618019cc2b8621dcd2550337e162be58654470ea30d48479fe832060405160405180910390a350508080612564906159aa565b9150506122a7565b506125e5565b60de546125819060019061570d565b8160ff16036125d35760de8160ff16815481106125a0576125a06156e1565b6000918252602090912001546001600160a01b031633146125d35760405162461bcd60e51b8152600401610bad90615720565b806125dd8161574b565b915050612266565b5050505050505050565b63ffffffff8116600090815260db602052604081208161260e84613ae2565b905081601a015481836019015461262591906159c1565b116126325780925061264c565b6000826019015483601a0154612648919061570d565b9350505b5050919050565b60005b60de5460ff8216101561285f5760de8160ff1681548110612679576126796156e1565b6000918252602090912001546001600160a01b031633036127ec5760005b8c8110156127e65760d18054600160401b900463ffffffff169060086126bc83615826565b91906101000a81548163ffffffff021916908363ffffffff1602179055505060008c8c838181106126ef576126ef6156e1565b9050602002013511156127d45760008c8c83818110612710576127106156e1565b90506020020135600361272391906159d4565b90506127d28f8f8481811061273a5761273a6156e1565b905060200201602081019061274f919061513c565b8e8e85818110612761576127616156e1565b905060200201358d8d8681811061277a5761277a6156e1565b90506020020135848d8d88818110612794576127946156e1565b905060200201358c8c898181106127ad576127ad6156e1565b905060200201358b8b8a8181106127c6576127c66156e1565b90506020020135613fda565b505b806127de816159eb565b915050612697565b5061285f565b60de546127fb9060019061570d565b8160ff160361284d5760de8160ff168154811061281a5761281a6156e1565b6000918252602090912001546001600160a01b0316331461284d5760405162461bcd60e51b8152600401610bad90615720565b806128578161574b565b915050612656565b50505050505050505050505050565b60005b60de5460ff82161015610bc85760de8160ff1681548110612894576128946156e1565b6000918252602090912001546001600160a01b031633036129d0576001600160a01b038216600090815260da60205260408120805460ff1916905560d854905b8181101561100a57836001600160a01b031660d882815481106128f9576128f96156e1565b6000918252602090912001546001600160a01b0316036129be5760d861292060018461570d565b81548110612930576129306156e1565b60009182526020909120015460d880546001600160a01b03909216918390811061295c5761295c6156e1565b9060005260206000200160006101000a8154816001600160a01b0302191690836001600160a01b0316021790555060d880548061299b5761299b615a04565b600082815260209020810160001990810180546001600160a01b03191690550190555b806129c8816159eb565b9150506128d4565b60de546129df9060019061570d565b8160ff1603612a315760de8160ff16815481106129fe576129fe6156e1565b6000918252602090912001546001600160a01b03163314612a315760405162461bcd60e51b8152600401610bad90615720565b80612a3b8161574b565b915050612871565b346000612a4f82613847565b9050612a5c60cc546134b2565b821015612aab5760405162461bcd60e51b815260206004820152601f60248201527f56616c75652073686f756c6420626520677265617465207468656e20313030006044820152606401610bad565b60d15433904290600090612ace90640100000000900463ffffffff166001615802565b60d154909150600090612aef90600160401b900463ffffffff166001615802565b6001600160a01b038516600090815260da6020526040902060d4549192509060ff1615612b2257612b22838388876138d4565b612b6983604051806020016040528060008152508a60405180602001604052806000815250898b8c6003612b5691906159d4565b60cb548c9062010000900460ff16614149565b6001908101805491820181556000908152602090206008820401805460079092166004026101000a63ffffffff81810219909316949092169190910292909217909155505050505050565b63ffffffff8116600090815260db6020908152604080832060060180548251818502810185019093528083528493830182828015612c3d57602002820191906000526020600020906000905b82829054906101000a900463ffffffff1663ffffffff1681526020019060040190602082600301049283019260010382029150808411612c005790505b505050505090506000805b82518161ffff161015612cc357600060dc6000858461ffff1681518110612c7157612c716156e1565b60209081029190910181015163ffffffff168252810191909152604001600020805490915060ff1615612cb0576001810154612cad90846159c1565b92505b5080612cbb816159aa565b915050612c48565b509392505050565b612cd3613458565b6001600160a01b038116612d385760405162461bcd60e51b815260206004820152602660248201527f4f776e61626c653a206e6577206f776e657220697320746865207a65726f206160448201526564647265737360d01b6064820152608401610bad565b610c4c816136bb565b63ffffffff8216600090815260db60205260409020600281015461010090046001600160a01b03163314612db75760405162461bcd60e51b815260206004820152601d60248201527f596f7520617265206e6f74206f776e6572206f6620746869732069642e0000006044820152606401610bad565b6000612dc282614421565b6018830154909150612dd4818361570d565b841115612e365760405162461bcd60e51b815260206004820152602a60248201527f506c6561736520656e7465722076616c7565206c657373207468656e20796f7560448201526939103130b630b731b29760b11b6064820152608401610bad565b83836018016000828254612e4a91906159c1565b909155503390506108fc612e5d866134b2565b6040518115909202916000818181858888f19350505050158015612e85573d6000803e3d6000fd5b505050505050565b612f90604051806103e00160405280600063ffffffff1681526020016060815260200160001515815260200160006001600160a01b0316815260200160008152602001600081526020016000815260200160608152602001600063ffffffff1681526020016060815260200160608152602001606081526020016000815260200160008152602001600081526020016000815260200160008152602001600081526020016000815260200160008152602001600060ff168152602001600081526020016000815260200160008152602001600081526020016000815260200160008152602001600081526020016000815260200160008152602001600081525090565b63ffffffff808316600090815260db602090815260409182902082516103e081019093528054909316825260018301805492939291840191612fd190615849565b80601f0160208091040260200160405190810160405280929190818152602001828054612ffd90615849565b801561304a5780601f1061301f5761010080835404028352916020019161304a565b820191906000526020600020905b81548152906001019060200180831161302d57829003601f168201915b5050509183525050600282015460ff811615156020808401919091526101009091046001600160a01b03166040808401919091526003840154606084015260048401546080840152600584015460a084015260068401805482518185028101850190935280835260c090940193919290919083018282801561311757602002820191906000526020600020906000905b82829054906101000a900463ffffffff1663ffffffff16815260200190600401906020826003010492830192600103820291508084116130da5790505b5050509183525050600782015463ffffffff1660208083019190915260088301805460408051828502810185018252828152940193928301828280156131a857602002820191906000526020600020906000905b82829054906101000a900463ffffffff1663ffffffff168152602001906004019060208260030104928301926001038202915080841161316b5790505b505050505081526020016009820180548060200260200160405190810160405280929190818152602001828054801561322c57602002820191906000526020600020906000905b82829054906101000a900463ffffffff1663ffffffff16815260200190600401906020826003010492830192600103820291508084116131ef5790505b50505050508152602001600a82018054806020026020016040519081016040528092919081815260200182805480156132b057602002820191906000526020600020906000905b82829054906101000a900463ffffffff1663ffffffff16815260200190600401906020826003010492830192600103820291508084116132735790505b5050509183525050600b8201546020820152600c8201546040820152600d8201546060820152600e8201546080820152600f82015460a0820152601082015460c0820152601182015460e08201526012820154610100820152601382015460ff1661012082015260148201546101408201526015820154610160820152601682015461018082015260178201546101a082015260188201546101c082015260198201546101e0820152601a820154610200820152601b820154610220820152601c820154610240820152601d909101546102609091015292915050565b6040805180820190915260008152606060208201526001600160a01b038216600090815260da602090815260409182902082518084018452815460ff16151581526001820180548551818602810186019096528086529194929385810193929083018282801561344857602002820191906000526020600020906000905b82829054906101000a900463ffffffff1663ffffffff168152602001906004019060208260030104928301926001038202915080841161340b5790505b5050505050815250509050919050565b6033546001600160a01b031633146113485760405162461bcd60e51b815260206004820181905260248201527f4f776e61626c653a2063616c6c6572206973206e6f7420746865206f776e65726044820152606401610bad565b60008060c960009054906101000a90046001600160a01b03166001600160a01b031663e1aa60366040518163ffffffff1660e01b8152600401602060405180830381865afa158015613508573d6000803e3d6000fd5b505050506040513d601f19601f8201168201806040525081019061352c9190615a1a565b61353e84670de0b6b3a76400006159d4565b6121149190615a33565b610c4c613458565b7f4910fdfa16fed3260ed0e7147f7cc6da11a60208b5b9406d12a635614ffd91435460ff161561358357610ae583614449565b826001600160a01b03166352d1902d6040518163ffffffff1660e01b8152600401602060405180830381865afa9250505080156135dd575060408051601f3d908101601f191682019092526135da91810190615a1a565b60015b6136405760405162461bcd60e51b815260206004820152602e60248201527f45524331393637557067726164653a206e657720696d706c656d656e7461746960448201526d6f6e206973206e6f74205555505360901b6064820152608401610bad565b600080516020615ad083398151915281146136af5760405162461bcd60e51b815260206004820152602960248201527f45524331393637557067726164653a20756e737570706f727465642070726f786044820152681a58589b195555525160ba1b6064820152608401610bad565b50610ae58383836144e5565b603380546001600160a01b038381166001600160a01b0319831681179093556040519116919082907f8be0079c531659141344cd1fd0a4f28419497f9722a3daafe3b4186f6b6457e090600090a35050565b60d95460009060ff16815b8160ff168160ff16101561264c5760ff8116600090815260dd60205260409020600101546101808501511080159061376a575060ff8116600090815260dd60205260409020600201546101c085015110155b8015613790575060ff8116600090815260dd602052604090206003015461020085015110155b1561379d578092506137a2565b61264c565b806137ac8161574b565b915050613718565b600054610100900460ff166137db5760405162461bcd60e51b8152600401610bad90615a55565b61134861450a565b600054610100900460ff166113485760405162461bcd60e51b8152600401610bad90615a55565b610120810151516000908181156121145760d454600190613835906301000000900460ff16846159d4565b61383f919061570d565b949350505050565b600080670de0b6b3a764000060c960009054906101000a90046001600160a01b03166001600160a01b031663e1aa60366040518163ffffffff1660e01b8152600401602060405180830381865afa1580156138a6573d6000803e3d6000fd5b505050506040513d601f19601f820116820180604052508101906138ca9190615a1a565b61353e90856159d4565b63ffffffff838116600081815260dc6020908152604080832089861680855260db84529184208154600164ffffffffff1990911661010094850217811783558083018a905560d18054600285018054600160601b90920461ffff1661ffff19909216919091179055600384018a905560d254600480860191909155600684018054938401815588529590962060088083049091018054600790931690960290940a8089021990911696029590951790925582549194600160401b909204909116919061399f83615826565b91906101000a81548163ffffffff021916908363ffffffff16021790555050505050505050565b60cb5463ffffffff8416600090815260db602052604090206201000090910460ff16906139f48460026159d4565b81601a01819055508381600b016000828254613a1091906159c1565b9250508190555083816017016000828254613a2b91906159c1565b90915550600090505b82811015612e8557600782015463ffffffff908116600081815260db60205260408120805492939092169003613a6b575050612e85565b82600003613a8d578681600d016000828254613a8791906159c1565b90915550505b8681600f016000828254613aa191906159c1565b909155505060d454610100900460ff1615613ac257613ac28183898961453a565b613acc8787614bce565b9250819050613ada816159eb565b915050613a34565b63ffffffff808216600090815260db6020908152604080832081516103e081019092528054909416815260018401805493948594929390929084019190613b2890615849565b80601f0160208091040260200160405190810160405280929190818152602001828054613b5490615849565b8015613ba15780601f10613b7657610100808354040283529160200191613ba1565b820191906000526020600020905b815481529060010190602001808311613b8457829003601f168201915b5050509183525050600282015460ff811615156020808401919091526101009091046001600160a01b03166040808401919091526003840154606084015260048401546080840152600584015460a084015260068401805482518185028101850190935280835260c0909401939192909190830182828015613c6e57602002820191906000526020600020906000905b82829054906101000a900463ffffffff1663ffffffff1681526020019060040190602082600301049283019260010382029150808411613c315790505b5050509183525050600782015463ffffffff166020808301919091526008830180546040805182850281018501825282815294019392830182828015613cff57602002820191906000526020600020906000905b82829054906101000a900463ffffffff1663ffffffff1681526020019060040190602082600301049283019260010382029150808411613cc25790505b5050505050815260200160098201805480602002602001604051908101604052809291908181526020018280548015613d8357602002820191906000526020600020906000905b82829054906101000a900463ffffffff1663ffffffff1681526020019060040190602082600301049283019260010382029150808411613d465790505b50505050508152602001600a8201805480602002602001604051908101604052809291908181526020018280548015613e0757602002820191906000526020600020906000905b82829054906101000a900463ffffffff1663ffffffff1681526020019060040190602082600301049283019260010382029150808411613dca5790505b5050509183525050600b8201546020820152600c8201546040820152600d8201546060820152600e8201546080820152600f82015460a0820152601082015460c0820152601182015460e0808301919091526012830154610100830152601383015460ff1661012083015260148301546101408301526015830154610160830152601683015461018083015260178301546101a083015260188301546101c083015260198301546101e0830152601a830154610200830152601b830154610220830152601c830154610240830152601d909201546102609091015281015180519192509060005b818161ffff161015613fc057600060dc6000858461ffff1681518110613f1657613f166156e1565b60209081029190910181015163ffffffff168252810191909152604001600090812060d25460cb5460d154600184015493955042949361ffff92831692613f6592600160601b900416906159d4565b613f6f9190615a33565b613f799190615a33565b90506000836003015483613f8d919061570d565b9050613f9d818560040154614c08565b613fa790836159d4565b9850505050508080613fb8906159aa565b915050613eee565b506103a0830151613fd1908561570d565b50505050919050565b63ffffffff8716600090815260db6020526040902060cb546003820184905560048201839055600c8201889055601582018790556018820185905560198201879055601a820186905560d45460ff6201000090920482169116156140555760d154614055908a90600160401b900463ffffffff168a426138d4565b60005b8160ff168160ff16101561413d57600783015463ffffffff908116600081815260db6020526040812080549293909216900361409557505061413d565b8260ff166000036140ba578a81600e0160008282546140b491906159c1565b90915550505b8a8160100160008282546140ce91906159c1565b92505081905550806009018c90806001815401808255809150506001900390600052602060002090600891828204019190066004029091909190916101000a81548163ffffffff021916908363ffffffff160217905550809450505080806141359061574b565b915050614058565b50505050505050505050565b63ffffffff898116600081815260db60205260408120805463ffffffff199081169093178155600781018054909316938b1693909317909155600282018054610100600160a81b0319166101006001600160a01b038a16021790556003820184905560048201849055601a8201859055600b820180548792906141cd9084906159c1565b9091555050600181016141e08a826158eb565b5060005b8260ff168160ff1610156143d757600782015463ffffffff908116600081815260db602052604081208054929390921690036142215750506143d7565b8260ff166000036142aa578781600d01600082825461424091906159c1565b92505081905550806008018d90806001815401808255809150506001900390600052602060002090600891828204019190066004029091909190916101000a81548163ffffffff021916908363ffffffff160217905550898160010190816142a891906158eb565b505b8781600f0160008282546142be91906159c1565b92505081905550806009018d90806001815401808255809150506001900390600052602060002090600891828204019190066004029091909190916101000a81548163ffffffff021916908363ffffffff1602179055508c63ffffffff168b63ffffffff168260020160019054906101000a90046001600160a01b03166001600160a01b03167fa7fafc728ec30e34dc1e1276496bf3eb44ca7494679da969455289e6a8f0f1f68760070160009054906101000a900463ffffffff16604051614393919063ffffffff91909116815260200190565b60405180910390a460d454610100900460ff16156143b7576143b781838a8961453a565b6143c18887614bce565b92508190506143cf8161574b565b9150506141e4565b5060d18054640100000000900463ffffffff169060046143f683615826565b91906101000a81548163ffffffff021916908363ffffffff1602179055505050505050505050505050565b600081601a01548260190154101561443d578160190154614443565b81601a01545b92915050565b6001600160a01b0381163b6144b65760405162461bcd60e51b815260206004820152602d60248201527f455243313936373a206e657720696d706c656d656e746174696f6e206973206e60448201526c1bdd08184818dbdb9d1c9858dd609a1b6064820152608401610bad565b600080516020615ad083398151915280546001600160a01b0319166001600160a01b0392909216919091179055565b6144ee83614c20565b6000825111806144fb5750805b15610ae55761100a8383614c60565b600054610100900460ff166145315760405162461bcd60e51b8152600401610bad90615a55565b611348336136bb565b6013840154604080516103e08101909152855463ffffffff16815260018601805460ff909316926149329291889160208401919061457790615849565b80601f01602080910402602001604051908101604052809291908181526020018280546145a390615849565b80156145f05780601f106145c5576101008083540402835291602001916145f0565b820191906000526020600020905b8154815290600101906020018083116145d357829003601f168201915b5050509183525050600282015460ff811615156020808401919091526101009091046001600160a01b03166040808401919091526003840154606084015260048401546080840152600584015460a084015260068401805482518185028101850190935280835260c09094019391929091908301828280156146bd57602002820191906000526020600020906000905b82829054906101000a900463ffffffff1663ffffffff16815260200190600401906020826003010492830192600103820291508084116146805790505b5050509183525050600782015463ffffffff16602080830191909152600883018054604080518285028101850182528281529401939283018282801561474e57602002820191906000526020600020906000905b82829054906101000a900463ffffffff1663ffffffff16815260200190600401906020826003010492830192600103820291508084116147115790505b50505050508152602001600982018054806020026020016040519081016040528092919081815260200182805480156147d257602002820191906000526020600020906000905b82829054906101000a900463ffffffff1663ffffffff16815260200190600401906020826003010492830192600103820291508084116147955790505b50505050508152602001600a820180548060200260200160405190810160405280929190818152602001828054801561485657602002820191906000526020600020906000905b82829054906101000a900463ffffffff1663ffffffff16815260200190600401906020826003010492830192600103820291508084116148195790505b5050509183525050600b8201546020820152600c8201546040820152600d8201546060820152600e8201546080820152600f82015460a0820152601082015460c0820152601182015460e08201526012820154610100820152601382015460ff1661012082015260148201546101408201526015820154610160820152601682015461018082015260178201546101a082015260188201546101c082015260198201546101e0820152601a820154610200820152601b820154610220820152601c820154610240820152601d909101546102609091015261370d565b60ff16111561100a57604080516103e08101909152845463ffffffff16815260018501805461496d9291879160208401919061457790615849565b60138501805460ff191660ff9283169081178255600090815260dd6020908152604080832060099081018054600181810183559186529385206008850401805460079095166004026101000a63ffffffff81810219909616958c1602949094179093559354909416825292902001546149e6919061570d565b6014850181905560138501546040805163ffffffff87168152602081019390935260ff90911682820152517fb0d3a9c683344e744a1ae3db383f75a8a01851282c5fe97d6159c1392a2e2a0a9181900360600190a1604080516103e08101909152845463ffffffff16815260018501805460dd92600092614a71928991602084019161457790615849565b60ff908116825260208201929092526040016000206008015461010090041615614b3557604080516103e08101909152845463ffffffff16815260018501805460dd92600092614acb928991602084019161457790615849565b60ff1660ff168152602001908152602001600020600701548460120154614af291906159c1565b811115614b215780846012018190555081846011016000828254614b1691906159c1565b9091555061100a9050565b81846011016000828254614b1691906159c1565b60d454610100900460ff161561100a57601384015460ff16600090815260dd6020526040902060050154614b6a908590614d54565b601384015460ff908116600090815260dd602090815260409182902060058101549054925192909316825263ffffffff8616917f94b6d3d19cc40938e685ef6a1f6476b53ef65295ab094a044e74405a8d0bd05b910160405180910390a350505050565b60d75460d654614bde91906159c1565b811115614bed5760d65560d555565b8160d56000828254614bff91906159c1565b90915550505050565b600081831115614c19575080614443565b5090919050565b614c2981614449565b6040516001600160a01b038216907fbc7cd75a20ee27fd9adebab32041f755214dbc6bffa90cc0225b39da2e5c2d3b90600090a250565b60606001600160a01b0383163b614cc85760405162461bcd60e51b815260206004820152602660248201527f416464726573733a2064656c65676174652063616c6c20746f206e6f6e2d636f6044820152651b9d1c9858dd60d21b6064820152608401610bad565b600080846001600160a01b031684604051614ce39190615aa0565b600060405180830381855af49150503d8060008114614d1e576040519150601f19603f3d011682016040523d82523d6000602084013e614d23565b606091505b5091509150614d4b8282604051806060016040528060278152602001615af060279139614d8c565b95945050505050565b81601a0154818360190154614d6991906159c1565b10614d7c57601a82015460198301555050565b808260190154610ae591906159c1565b60608315614d9b575081612114565b6121148383815115614db05781518083602001fd5b8060405162461bcd60e51b8152600401610bad9190615abc565b82805482825590600052602060002090600701600890048101928215614e695791602002820160005b83821115614e3757835183826101000a81548163ffffffff021916908363ffffffff1602179055509260200192600401602081600301049283019260010302614df3565b8015614e675782816101000a81549063ffffffff0219169055600401602081600301049283019260010302614e37565b505b50614e75929150614f0f565b5090565b82805482825590600052602060002090600f01601090048101928215614e695791602002820160005b83821115614ee157835183826101000a81548161ffff021916908360ff1602179055509260200192600201602081600101049283019260010302614ea2565b8015614e675782816101000a81549061ffff0219169055600201602081600101049283019260010302614ee1565b5b80821115614e755760008155600101614f10565b80356001600160a01b0381168114614f3b57600080fd5b919050565b60008060408385031215614f5357600080fd5b614f5c83614f24565b946020939093013593505050565b600060208284031215614f7c57600080fd5b61211482614f24565b600060208284031215614f9757600080fd5b5035919050565b60008083601f840112614fb057600080fd5b5081356001600160401b03811115614fc757600080fd5b6020830191508360208260051b8501011115614fe257600080fd5b9250929050565b60008060208385031215614ffc57600080fd5b82356001600160401b0381111561501257600080fd5b61501e85828601614f9e565b90969095509350505050565b634e487b7160e01b600052604160045260246000fd5b604051601f8201601f191681016001600160401b03811182821017156150685761506861502a565b604052919050565b60006001600160401b038311156150895761508961502a565b61509c601f8401601f1916602001615040565b90508281528383830111156150b057600080fd5b828260208301376000602084830101529392505050565b600080604083850312156150da57600080fd5b6150e383614f24565b915060208301356001600160401b038111156150fe57600080fd5b8301601f8101851361510f57600080fd5b61511e85823560208401615070565b9150509250929050565b803563ffffffff81168114614f3b57600080fd5b60006020828403121561514e57600080fd5b61211482615128565b60008060008060008060006080888a03121561517257600080fd5b6001600160401b03808935111561518857600080fd5b6151958a8a358b01614f9e565b909850965060208901358110156151ab57600080fd5b6151bb8a60208b01358b01614f9e565b909650945060408901358110156151d157600080fd5b6151e18a60408b01358b01614f9e565b909450925060608901358110156151f757600080fd5b606089013589018a601f82011261520d57600080fd5b818135111561521e5761521e61502a565b61522e6020823560051b01615040565b81358082526020808301929160051b8401018d81111561524d57600080fd5b602084015b8181101561529e57858135111561526857600080fd5b8e603f82358701011261527a57600080fd5b6152908f82358701602081013590604001615070565b845260209384019301615252565b50508094505050505092959891949750929550565b60008060008060008060008060008060008060c08d8f0312156152d557600080fd5b6001600160401b038d3511156152ea57600080fd5b6152f78e8e358f01614f9e565b909c509a506001600160401b0360208e0135111561531457600080fd5b6153248e60208f01358f01614f9e565b909a5098506001600160401b0360408e0135111561534157600080fd5b6153518e60408f01358f01614f9e565b90985096506001600160401b0360608e0135111561536e57600080fd5b61537e8e60608f01358f01614f9e565b90965094506001600160401b0360808e0135111561539b57600080fd5b6153ab8e60808f01358f01614f9e565b90945092506001600160401b0360a08e013511156153c857600080fd5b6153d88e60a08f01358f01614f9e565b81935080925050509295989b509295989b509295989b565b6000806040838503121561540357600080fd5b614f5c83615128565b60005b8381101561542757818101518382015260200161540f565b50506000910152565b6000815180845261544881602086016020860161540c565b601f01601f19169290920160200192915050565b600081518084526020808501945080840160005b8381101561549257815163ffffffff1687529582019590820190600101615470565b509495945050505050565b602081526154b460208201835163ffffffff169052565b600060208301516103e08060408501526154d2610400850183615430565b915060408501516154e7606086018215159052565b5060608501516001600160a01b038116608086015250608085015160a085015260a085015160c085015260c085015160e085015260e0850151601f19610100818786030181880152615539858461545c565b9450808801519250506101206155568188018463ffffffff169052565b80880151925050610140818786030181880152615573858461545c565b945080880151925050610160818786030181880152615592858461545c565b9450808801519250506101808187860301818801526155b1858461545c565b908801516101a0888101919091528801516101c0808901919091528801516101e080890191909152880151610200808901919091528801516102208089019190915288015161024080890191909152880151610260808901919091528801516102808089019190915288015190945091506102a090506156358187018360ff169052565b8601516102c0868101919091528601516102e08087019190915286015161030080870191909152860151610320808701919091528601516103408087019190915286015161036080870191909152860151610380808701919091528601516103a0808701919091528601516103c0808701919091529095015193019290925250919050565b602081528151151560208201526000602083015160408084015261383f606084018261545c565b634e487b7160e01b600052603260045260246000fd5b634e487b7160e01b600052601160045260246000fd5b81810381811115614443576144436156f7565b6020808252601190820152702cb7ba9030b932903737ba1030b236b4b760791b604082015260600190565b600060ff821660ff8103615761576157616156f7565b60010192915050565b6020808252602c908201527f46756e6374696f6e206d7573742062652063616c6c6564207468726f7567682060408201526b19195b1959d85d1958d85b1b60a21b606082015260800190565b6020808252602c908201527f46756e6374696f6e206d7573742062652063616c6c6564207468726f7567682060408201526b6163746976652070726f787960a01b606082015260800190565b63ffffffff81811683821601908082111561581f5761581f6156f7565b5092915050565b600063ffffffff80831681810361583f5761583f6156f7565b6001019392505050565b600181811c9082168061585d57607f821691505b60208210810361587d57634e487b7160e01b600052602260045260246000fd5b50919050565b60006020828403121561589557600080fd5b8151801515811461211457600080fd5b601f821115610ae557600081815260208120601f850160051c810160208610156158cc5750805b601f850160051c820191505b81811015612e85578281556001016158d8565b81516001600160401b038111156159045761590461502a565b615918816159128454615849565b846158a5565b602080601f83116001811461594d57600084156159355750858301515b600019600386901b1c1916600185901b178555612e85565b600085815260208120601f198616915b8281101561597c5788860151825594840194600190910190840161595d565b508582101561599a5787850151600019600388901b60f8161c191681555b5050505050600190811b01905550565b600061ffff80831681810361583f5761583f6156f7565b80820180821115614443576144436156f7565b8082028115828204841417614443576144436156f7565b6000600182016159fd576159fd6156f7565b5060010190565b634e487b7160e01b600052603160045260246000fd5b600060208284031215615a2c57600080fd5b5051919050565b600082615a5057634e487b7160e01b600052601260045260246000fd5b500490565b6020808252602b908201527f496e697469616c697a61626c653a20636f6e7472616374206973206e6f74206960408201526a6e697469616c697a696e6760a81b606082015260800190565b60008251615ab281846020870161540c565b9190910192915050565b602081526000612114602083018461543056fe360894a13ba1a3210667c828492db98dca3e2076cc3735a920a3ca505d382bbc416464726573733a206c6f772d6c6576656c2064656c65676174652063616c6c206661696c6564a2646970667358221220450bddf3343ea04e6747a869dbaf1e926e89ea77dec5d2e67dc48a900394a38464736f6c63430008110033",
  "linkReferences": {},
  "deployedLinkReferences": {}
}