{
  "_format": "hh-sol-artifact-1",
  "contractName": "ReferralV2Upgradeable",
  "sourceName": "contracts/ReferralV2Upgradeable.sol",
  "abi": [
    {
      "anonymous": false,
      "inputs": [
        {
          "indexed": false,
          "internalType": "address",
          "name": "ownerAddress",
          "type": "address"
        },
        {
          "indexed": false,
          "internalType": "uint256",
          "name": "id",
          "type": "uint256"
        },
        {
          "indexed": false,
          "internalType": "uint256",
          "name": "idIndex",
          "type": "uint256"
        }
      ],
      "name": "AccountInfoIDAttached",
      "type": "event"
    },
    {
      "anonymous": false,
      "inputs": [
        {
          "indexed": false,
          "internalType": "uint256",
          "name": "userID",
          "type": "uint256"
        },
        {
          "indexed": false,
          "internalType": "uint256",
          "name": "index",
          "type": "uint256"
        },
        {
          "indexed": false,
          "internalType": "uint256",
          "name": "rank",
          "type": "uint256"
        }
      ],
      "name": "AddedInRoyaltyClubList",
      "type": "event"
    },
    {
      "anonymous": false,
      "inputs": [
        {
          "indexed": false,
          "internalType": "address",
          "name": "previousAdmin",
          "type": "address"
        },
        {
          "indexed": false,
          "internalType": "address",
          "name": "newAdmin",
          "type": "address"
        }
      ],
      "name": "AdminChanged",
      "type": "event"
    },
    {
      "anonymous": false,
      "inputs": [
        {
          "indexed": true,
          "internalType": "address",
          "name": "beacon",
          "type": "address"
        }
      ],
      "name": "BeaconUpgraded",
      "type": "event"
    },
    {
      "anonymous": false,
      "inputs": [
        {
          "indexed": false,
          "internalType": "uint256",
          "name": "id",
          "type": "uint256"
        },
        {
          "indexed": false,
          "internalType": "uint256",
          "name": "valueInUSD",
          "type": "uint256"
        },
        {
          "indexed": false,
          "internalType": "address",
          "name": "userAddress",
          "type": "address"
        }
      ],
      "name": "IDActivated",
      "type": "event"
    },
    {
      "anonymous": false,
      "inputs": [
        {
          "indexed": false,
          "internalType": "uint256",
          "name": "id",
          "type": "uint256"
        }
      ],
      "name": "IDDeactivated",
      "type": "event"
    },
    {
      "anonymous": false,
      "inputs": [
        {
          "indexed": false,
          "internalType": "uint8",
          "name": "version",
          "type": "uint8"
        }
      ],
      "name": "Initialized",
      "type": "event"
    },
    {
      "anonymous": false,
      "inputs": [
        {
          "indexed": true,
          "internalType": "address",
          "name": "previousOwner",
          "type": "address"
        },
        {
          "indexed": true,
          "internalType": "address",
          "name": "newOwner",
          "type": "address"
        }
      ],
      "name": "OwnershipTransferred",
      "type": "event"
    },
    {
      "anonymous": false,
      "inputs": [
        {
          "indexed": false,
          "internalType": "uint256",
          "name": "packageID",
          "type": "uint256"
        }
      ],
      "name": "PackageAdded",
      "type": "event"
    },
    {
      "anonymous": false,
      "inputs": [
        {
          "indexed": false,
          "internalType": "uint256",
          "name": "packageID",
          "type": "uint256"
        }
      ],
      "name": "PackageRemoved",
      "type": "event"
    },
    {
      "anonymous": false,
      "inputs": [
        {
          "indexed": false,
          "internalType": "uint256",
          "name": "packageID",
          "type": "uint256"
        }
      ],
      "name": "PackageUpdated",
      "type": "event"
    },
    {
      "anonymous": false,
      "inputs": [
        {
          "indexed": true,
          "internalType": "uint256",
          "name": "userID",
          "type": "uint256"
        },
        {
          "indexed": true,
          "internalType": "uint256",
          "name": "reward",
          "type": "uint256"
        }
      ],
      "name": "ROIClaimed",
      "type": "event"
    },
    {
      "anonymous": false,
      "inputs": [
        {
          "indexed": true,
          "internalType": "uint256",
          "name": "refererID",
          "type": "uint256"
        },
        {
          "indexed": true,
          "internalType": "uint256",
          "name": "level",
          "type": "uint256"
        },
        {
          "indexed": true,
          "internalType": "string",
          "name": "reason",
          "type": "string"
        }
      ],
      "name": "ReferralNotPaid",
      "type": "event"
    },
    {
      "anonymous": false,
      "inputs": [
        {
          "indexed": true,
          "internalType": "uint256",
          "name": "refereeID",
          "type": "uint256"
        },
        {
          "indexed": true,
          "internalType": "uint256",
          "name": "referrerID",
          "type": "uint256"
        },
        {
          "indexed": true,
          "internalType": "uint256",
          "name": "amount",
          "type": "uint256"
        },
        {
          "indexed": false,
          "internalType": "uint256",
          "name": "level",
          "type": "uint256"
        }
      ],
      "name": "ReferralRewardPaid",
      "type": "event"
    },
    {
      "anonymous": false,
      "inputs": [
        {
          "indexed": true,
          "internalType": "address",
          "name": "refereeID",
          "type": "address"
        },
        {
          "indexed": true,
          "internalType": "address",
          "name": "referrerID",
          "type": "address"
        },
        {
          "indexed": true,
          "internalType": "string",
          "name": "reason",
          "type": "string"
        }
      ],
      "name": "RegisterRefererFailed",
      "type": "event"
    },
    {
      "anonymous": false,
      "inputs": [
        {
          "indexed": true,
          "internalType": "uint256",
          "name": "id",
          "type": "uint256"
        },
        {
          "indexed": true,
          "internalType": "uint256",
          "name": "refererID",
          "type": "uint256"
        }
      ],
      "name": "RegisteredReferer",
      "type": "event"
    },
    {
      "anonymous": false,
      "inputs": [
        {
          "indexed": true,
          "internalType": "address",
          "name": "parent",
          "type": "address"
        },
        {
          "indexed": false,
          "internalType": "uint256",
          "name": "parentAccountID",
          "type": "uint256"
        },
        {
          "indexed": true,
          "internalType": "uint256",
          "name": "referrerID",
          "type": "uint256"
        },
        {
          "indexed": true,
          "internalType": "uint256",
          "name": "refereeID",
          "type": "uint256"
        }
      ],
      "name": "RegisteredTeamAddress",
      "type": "event"
    },
    {
      "anonymous": false,
      "inputs": [
        {
          "indexed": false,
          "internalType": "uint256",
          "name": "packageID",
          "type": "uint256"
        },
        {
          "indexed": true,
          "internalType": "uint256",
          "name": "userID",
          "type": "uint256"
        },
        {
          "indexed": true,
          "internalType": "uint256",
          "name": "amount",
          "type": "uint256"
        }
      ],
      "name": "RoyaltyClubBonusPaid",
      "type": "event"
    },
    {
      "anonymous": false,
      "inputs": [
        {
          "indexed": true,
          "internalType": "address",
          "name": "implementation",
          "type": "address"
        }
      ],
      "name": "Upgraded",
      "type": "event"
    },
    {
      "inputs": [
        {
          "internalType": "uint256",
          "name": "",
          "type": "uint256"
        }
      ],
      "name": "_disabledUsersList",
      "outputs": [
        {
          "internalType": "address",
          "name": "",
          "type": "address"
        }
      ],
      "stateMutability": "view",
      "type": "function"
    },
    {
      "inputs": [
        {
          "internalType": "uint32",
          "name": "_refererID",
          "type": "uint32"
        }
      ],
      "name": "activateID",
      "outputs": [],
      "stateMutability": "payable",
      "type": "function"
    },
    {
      "inputs": [
        {
          "internalType": "uint32",
          "name": "_id",
          "type": "uint32"
        },
        {
          "internalType": "uint256",
          "name": "_valueInUSD",
          "type": "uint256"
        }
      ],
      "name": "claimBalance",
      "outputs": [],
      "stateMutability": "nonpayable",
      "type": "function"
    },
    {
      "inputs": [
        {
          "internalType": "uint32",
          "name": "_id",
          "type": "uint32"
        }
      ],
      "name": "claimROI",
      "outputs": [],
      "stateMutability": "nonpayable",
      "type": "function"
    },
    {
      "inputs": [],
      "name": "companyTurnoverTimeLimit",
      "outputs": [
        {
          "internalType": "uint256",
          "name": "",
          "type": "uint256"
        }
      ],
      "stateMutability": "view",
      "type": "function"
    },
    {
      "inputs": [],
      "name": "companyTurnoverTimeStamp",
      "outputs": [
        {
          "internalType": "uint256",
          "name": "",
          "type": "uint256"
        }
      ],
      "stateMutability": "view",
      "type": "function"
    },
    {
      "inputs": [],
      "name": "companyTurnoverWithTimeLimit",
      "outputs": [
        {
          "internalType": "uint256",
          "name": "",
          "type": "uint256"
        }
      ],
      "stateMutability": "view",
      "type": "function"
    },
    {
      "inputs": [],
      "name": "decimals",
      "outputs": [
        {
          "internalType": "uint16",
          "name": "",
          "type": "uint16"
        }
      ],
      "stateMutability": "view",
      "type": "function"
    },
    {
      "inputs": [
        {
          "internalType": "address",
          "name": "_userAddress",
          "type": "address"
        }
      ],
      "name": "disableUserAdmin",
      "outputs": [],
      "stateMutability": "nonpayable",
      "type": "function"
    },
    {
      "inputs": [
        {
          "internalType": "uint8",
          "name": "_packageID",
          "type": "uint8"
        }
      ],
      "name": "getAchieversList",
      "outputs": [
        {
          "internalType": "uint32[]",
          "name": "",
          "type": "uint32[]"
        }
      ],
      "stateMutability": "view",
      "type": "function"
    },
    {
      "inputs": [
        {
          "internalType": "uint32",
          "name": "_id",
          "type": "uint32"
        }
      ],
      "name": "getIDAccount",
      "outputs": [
        {
          "components": [
            {
              "internalType": "uint32",
              "name": "id",
              "type": "uint32"
            },
            {
              "internalType": "string",
              "name": "oldID",
              "type": "string"
            },
            {
              "internalType": "bool",
              "name": "isDisabled",
              "type": "bool"
            },
            {
              "internalType": "address",
              "name": "owner",
              "type": "address"
            },
            {
              "internalType": "uint256",
              "name": "joiningTime",
              "type": "uint256"
            },
            {
              "internalType": "uint256",
              "name": "activationTime",
              "type": "uint256"
            },
            {
              "internalType": "uint256",
              "name": "deactivateTime",
              "type": "uint256"
            },
            {
              "internalType": "uint32[]",
              "name": "roiIDs",
              "type": "uint32[]"
            },
            {
              "internalType": "uint32",
              "name": "refererID",
              "type": "uint32"
            },
            {
              "internalType": "uint32[]",
              "name": "refereeIDs",
              "type": "uint32[]"
            },
            {
              "internalType": "uint32[]",
              "name": "teamIDs",
              "type": "uint32[]"
            },
            {
              "internalType": "uint256",
              "name": "selfBusinessUSD",
              "type": "uint256"
            },
            {
              "internalType": "uint256",
              "name": "selfBusinessUSDOld",
              "type": "uint256"
            },
            {
              "internalType": "uint256",
              "name": "directBusinessUSD",
              "type": "uint256"
            },
            {
              "internalType": "uint256",
              "name": "directBusinessUSDOld",
              "type": "uint256"
            },
            {
              "internalType": "uint256",
              "name": "teamBusinessUSD",
              "type": "uint256"
            },
            {
              "internalType": "uint256",
              "name": "teamBusinessUSDOld",
              "type": "uint256"
            },
            {
              "internalType": "uint256",
              "name": "royaltyClubBusinessUSD",
              "type": "uint256"
            },
            {
              "internalType": "uint256",
              "name": "timeStampRoyaltyClub",
              "type": "uint256"
            },
            {
              "internalType": "uint8",
              "name": "royaltyClubPackageID",
              "type": "uint8"
            },
            {
              "internalType": "uint256",
              "name": "royaltyClubListIndex",
              "type": "uint256"
            },
            {
              "internalType": "uint256",
              "name": "referralPaidUSD",
              "type": "uint256"
            },
            {
              "internalType": "uint256",
              "name": "rewardPaidRoyaltyClubUSD",
              "type": "uint256"
            },
            {
              "internalType": "uint256",
              "name": "topUpUSD",
              "type": "uint256"
            },
            {
              "internalType": "uint256",
              "name": "balanceClaimedUSD",
              "type": "uint256"
            },
            {
              "internalType": "uint256",
              "name": "limitBalanceUSD",
              "type": "uint256"
            },
            {
              "internalType": "uint256",
              "name": "maxLimitAmount",
              "type": "uint256"
            },
            {
              "internalType": "uint256",
              "name": "roiClaimedUSD",
              "type": "uint256"
            },
            {
              "internalType": "uint256",
              "name": "roiClaimTimestamp",
              "type": "uint256"
            }
          ],
          "internalType": "struct ReferralV2Upgradeable.StructID",
          "name": "",
          "type": "tuple"
        }
      ],
      "stateMutability": "view",
      "type": "function"
    },
    {
      "inputs": [
        {
          "internalType": "uint32",
          "name": "_id",
          "type": "uint32"
        }
      ],
      "name": "getIDClaimableBalance",
      "outputs": [
        {
          "internalType": "uint256",
          "name": "",
          "type": "uint256"
        }
      ],
      "stateMutability": "view",
      "type": "function"
    },
    {
      "inputs": [
        {
          "internalType": "uint32",
          "name": "_id",
          "type": "uint32"
        }
      ],
      "name": "getIDRoyaltyClubLevel",
      "outputs": [
        {
          "internalType": "uint256",
          "name": "",
          "type": "uint256"
        }
      ],
      "stateMutability": "view",
      "type": "function"
    },
    {
      "inputs": [],
      "name": "getPriceOracleContract",
      "outputs": [
        {
          "internalType": "address",
          "name": "",
          "type": "address"
        }
      ],
      "stateMutability": "view",
      "type": "function"
    },
    {
      "inputs": [
        {
          "internalType": "uint32",
          "name": "_roiID",
          "type": "uint32"
        }
      ],
      "name": "getROIAccount",
      "outputs": [
        {
          "components": [
            {
              "internalType": "bool",
              "name": "isActive",
              "type": "bool"
            },
            {
              "internalType": "uint32",
              "name": "ownerID",
              "type": "uint32"
            },
            {
              "internalType": "uint256",
              "name": "valueInUSD",
              "type": "uint256"
            },
            {
              "internalType": "uint16",
              "name": "roiRate",
              "type": "uint16"
            },
            {
              "internalType": "uint256",
              "name": "startTime",
              "type": "uint256"
            },
            {
              "internalType": "uint256",
              "name": "duration",
              "type": "uint256"
            },
            {
              "internalType": "uint256",
              "name": "roiClaimed",
              "type": "uint256"
            }
          ],
          "internalType": "struct ReferralV2Upgradeable.StructROI",
          "name": "",
          "type": "tuple"
        }
      ],
      "stateMutability": "view",
      "type": "function"
    },
    {
      "inputs": [
        {
          "internalType": "uint8",
          "name": "_packageID",
          "type": "uint8"
        }
      ],
      "name": "getRoyaltyClubPackageInfo",
      "outputs": [
        {
          "components": [
            {
              "internalType": "uint8",
              "name": "packageID",
              "type": "uint8"
            },
            {
              "internalType": "uint256",
              "name": "selfBusinessUSD",
              "type": "uint256"
            },
            {
              "internalType": "uint256",
              "name": "directBusinessUSD",
              "type": "uint256"
            },
            {
              "internalType": "uint256",
              "name": "teamBusinessUSD",
              "type": "uint256"
            },
            {
              "internalType": "string",
              "name": "rankName",
              "type": "string"
            },
            {
              "internalType": "uint256",
              "name": "reward",
              "type": "uint256"
            },
            {
              "internalType": "uint256",
              "name": "businessLimit",
              "type": "uint256"
            },
            {
              "internalType": "uint256",
              "name": "timeLimit",
              "type": "uint256"
            },
            {
              "internalType": "bool",
              "name": "isOneTimeRewardPaid",
              "type": "bool"
            },
            {
              "internalType": "bool",
              "name": "isPayReccursive",
              "type": "bool"
            },
            {
              "internalType": "uint32[]",
              "name": "achieversList",
              "type": "uint32[]"
            }
          ],
          "internalType": "struct ReferralV2Upgradeable.StructPackages",
          "name": "",
          "type": "tuple"
        }
      ],
      "stateMutability": "view",
      "type": "function"
    },
    {
      "inputs": [
        {
          "internalType": "address",
          "name": "_address",
          "type": "address"
        }
      ],
      "name": "getUserAccount",
      "outputs": [
        {
          "components": [
            {
              "internalType": "bool",
              "name": "isDisabled",
              "type": "bool"
            },
            {
              "internalType": "uint32[]",
              "name": "accountIDs",
              "type": "uint32[]"
            }
          ],
          "internalType": "struct ReferralV2Upgradeable.StructAccount",
          "name": "",
          "type": "tuple"
        }
      ],
      "stateMutability": "view",
      "type": "function"
    },
    {
      "inputs": [
        {
          "internalType": "uint32",
          "name": "_id",
          "type": "uint32"
        }
      ],
      "name": "getUserIDTotalROI",
      "outputs": [
        {
          "internalType": "uint256",
          "name": "roi",
          "type": "uint256"
        }
      ],
      "stateMutability": "view",
      "type": "function"
    },
    {
      "inputs": [
        {
          "internalType": "uint32",
          "name": "_id",
          "type": "uint32"
        }
      ],
      "name": "getUserTotalActiveROIValue",
      "outputs": [
        {
          "internalType": "uint256",
          "name": "",
          "type": "uint256"
        }
      ],
      "stateMutability": "view",
      "type": "function"
    },
    {
      "inputs": [
        {
          "internalType": "uint32",
          "name": "_id",
          "type": "uint32"
        }
      ],
      "name": "getUserUnlockCount",
      "outputs": [
        {
          "internalType": "uint256",
          "name": "",
          "type": "uint256"
        }
      ],
      "stateMutability": "view",
      "type": "function"
    },
    {
      "inputs": [],
      "name": "initialize",
      "outputs": [],
      "stateMutability": "nonpayable",
      "type": "function"
    },
    {
      "inputs": [],
      "name": "isPayROI",
      "outputs": [
        {
          "internalType": "bool",
          "name": "",
          "type": "bool"
        }
      ],
      "stateMutability": "view",
      "type": "function"
    },
    {
      "inputs": [],
      "name": "isPayRoyaltyClubBonus",
      "outputs": [
        {
          "internalType": "bool",
          "name": "",
          "type": "bool"
        }
      ],
      "stateMutability": "view",
      "type": "function"
    },
    {
      "inputs": [
        {
          "internalType": "address",
          "name": "_userAddress",
          "type": "address"
        }
      ],
      "name": "isUserDisabledByAdmin",
      "outputs": [
        {
          "internalType": "bool",
          "name": "",
          "type": "bool"
        }
      ],
      "stateMutability": "view",
      "type": "function"
    },
    {
      "inputs": [
        {
          "internalType": "uint256",
          "name": "",
          "type": "uint256"
        }
      ],
      "name": "levelRates",
      "outputs": [
        {
          "internalType": "uint16",
          "name": "",
          "type": "uint16"
        }
      ],
      "stateMutability": "view",
      "type": "function"
    },
    {
      "inputs": [],
      "name": "maxLevelsCount",
      "outputs": [
        {
          "internalType": "uint8",
          "name": "",
          "type": "uint8"
        }
      ],
      "stateMutability": "view",
      "type": "function"
    },
    {
      "inputs": [],
      "name": "minContributionInUSD",
      "outputs": [
        {
          "internalType": "uint256",
          "name": "",
          "type": "uint256"
        }
      ],
      "stateMutability": "view",
      "type": "function"
    },
    {
      "inputs": [],
      "name": "owner",
      "outputs": [
        {
          "internalType": "address",
          "name": "",
          "type": "address"
        }
      ],
      "stateMutability": "view",
      "type": "function"
    },
    {
      "inputs": [],
      "name": "packagesCount",
      "outputs": [
        {
          "internalType": "uint8",
          "name": "",
          "type": "uint8"
        }
      ],
      "stateMutability": "view",
      "type": "function"
    },
    {
      "inputs": [],
      "name": "payRoyaltyClubReccursiveBonusAdmin",
      "outputs": [],
      "stateMutability": "nonpayable",
      "type": "function"
    },
    {
      "inputs": [],
      "name": "proxiableUUID",
      "outputs": [
        {
          "internalType": "bytes32",
          "name": "",
          "type": "bytes32"
        }
      ],
      "stateMutability": "view",
      "type": "function"
    },
    {
      "inputs": [
        {
          "internalType": "address",
          "name": "_userAddress",
          "type": "address"
        }
      ],
      "name": "removeUserFromDisableList",
      "outputs": [],
      "stateMutability": "nonpayable",
      "type": "function"
    },
    {
      "inputs": [],
      "name": "renounceOwnership",
      "outputs": [],
      "stateMutability": "nonpayable",
      "type": "function"
    },
    {
      "inputs": [],
      "name": "royaltyClubPackageCount",
      "outputs": [
        {
          "internalType": "uint8",
          "name": "",
          "type": "uint8"
        }
      ],
      "stateMutability": "view",
      "type": "function"
    },
    {
      "inputs": [
        {
          "internalType": "address",
          "name": "_address",
          "type": "address"
        },
        {
          "internalType": "uint256",
          "name": "_value",
          "type": "uint256"
        }
      ],
      "name": "sendETHAdmin",
      "outputs": [],
      "stateMutability": "nonpayable",
      "type": "function"
    },
    {
      "inputs": [
        {
          "internalType": "uint16",
          "name": "_value",
          "type": "uint16"
        }
      ],
      "name": "setLevelDecimals",
      "outputs": [],
      "stateMutability": "nonpayable",
      "type": "function"
    },
    {
      "inputs": [
        {
          "internalType": "uint8[]",
          "name": "_value",
          "type": "uint8[]"
        }
      ],
      "name": "setLevelRates",
      "outputs": [],
      "stateMutability": "nonpayable",
      "type": "function"
    },
    {
      "inputs": [
        {
          "internalType": "uint8",
          "name": "_valueInDecimals",
          "type": "uint8"
        }
      ],
      "name": "setMaxLevelsCountAdmin",
      "outputs": [],
      "stateMutability": "nonpayable",
      "type": "function"
    },
    {
      "inputs": [
        {
          "internalType": "address",
          "name": "_contractAddress",
          "type": "address"
        }
      ],
      "name": "setPriceOracleContract",
      "outputs": [],
      "stateMutability": "nonpayable",
      "type": "function"
    },
    {
      "inputs": [
        {
          "internalType": "uint8",
          "name": "packageID",
          "type": "uint8"
        },
        {
          "internalType": "uint256",
          "name": "selfBusinessUSD",
          "type": "uint256"
        },
        {
          "internalType": "uint256",
          "name": "directBusinessUSD",
          "type": "uint256"
        },
        {
          "internalType": "uint256",
          "name": "teamBusinessUSD",
          "type": "uint256"
        },
        {
          "internalType": "string",
          "name": "rankName",
          "type": "string"
        },
        {
          "internalType": "uint256",
          "name": "reward",
          "type": "uint256"
        },
        {
          "internalType": "uint256",
          "name": "businessLimit",
          "type": "uint256"
        },
        {
          "internalType": "uint256",
          "name": "timeLimit",
          "type": "uint256"
        },
        {
          "internalType": "bool",
          "name": "isPayReccursive",
          "type": "bool"
        }
      ],
      "name": "setRoyaltyClubPackage",
      "outputs": [],
      "stateMutability": "nonpayable",
      "type": "function"
    },
    {
      "inputs": [
        {
          "internalType": "uint8",
          "name": "_valueInDecimals",
          "type": "uint8"
        }
      ],
      "name": "setRoyaltyPackageCount",
      "outputs": [],
      "stateMutability": "nonpayable",
      "type": "function"
    },
    {
      "inputs": [
        {
          "internalType": "uint32",
          "name": "_id",
          "type": "uint32"
        }
      ],
      "name": "topUpID",
      "outputs": [],
      "stateMutability": "payable",
      "type": "function"
    },
    {
      "inputs": [],
      "name": "totalIDs",
      "outputs": [
        {
          "internalType": "uint32",
          "name": "",
          "type": "uint32"
        }
      ],
      "stateMutability": "view",
      "type": "function"
    },
    {
      "inputs": [],
      "name": "totalROIIDs",
      "outputs": [
        {
          "internalType": "uint32",
          "name": "",
          "type": "uint32"
        }
      ],
      "stateMutability": "view",
      "type": "function"
    },
    {
      "inputs": [],
      "name": "totalRoyaltyClubBonusPaidETH",
      "outputs": [
        {
          "internalType": "uint256",
          "name": "",
          "type": "uint256"
        }
      ],
      "stateMutability": "view",
      "type": "function"
    },
    {
      "inputs": [],
      "name": "totalRoyaltyClubBonusPaidUSD",
      "outputs": [
        {
          "internalType": "uint256",
          "name": "",
          "type": "uint256"
        }
      ],
      "stateMutability": "view",
      "type": "function"
    },
    {
      "inputs": [],
      "name": "totalUsers",
      "outputs": [
        {
          "internalType": "uint32",
          "name": "",
          "type": "uint32"
        }
      ],
      "stateMutability": "view",
      "type": "function"
    },
    {
      "inputs": [
        {
          "internalType": "address",
          "name": "newOwner",
          "type": "address"
        }
      ],
      "name": "transferOwnership",
      "outputs": [],
      "stateMutability": "nonpayable",
      "type": "function"
    },
    {
      "inputs": [
        {
          "internalType": "uint32[]",
          "name": "_userID",
          "type": "uint32[]"
        },
        {
          "internalType": "address[]",
          "name": "_userAddress",
          "type": "address[]"
        },
        {
          "internalType": "string[]",
          "name": "_oldID",
          "type": "string[]"
        }
      ],
      "name": "updateIDOldIDtoAddress",
      "outputs": [],
      "stateMutability": "nonpayable",
      "type": "function"
    },
    {
      "inputs": [
        {
          "internalType": "uint32[]",
          "name": "_userID",
          "type": "uint32[]"
        },
        {
          "internalType": "uint256[]",
          "name": "_totalTopUp",
          "type": "uint256[]"
        },
        {
          "internalType": "uint256[]",
          "name": "_limitBalanceUSD",
          "type": "uint256[]"
        },
        {
          "internalType": "uint256[]",
          "name": "_balanceClaimedUSD",
          "type": "uint256[]"
        },
        {
          "internalType": "uint256[]",
          "name": "_joiningTime",
          "type": "uint256[]"
        },
        {
          "internalType": "uint256[]",
          "name": "_activationTime",
          "type": "uint256[]"
        }
      ],
      "name": "updateUserIDDataOldAdmin",
      "outputs": [],
      "stateMutability": "nonpayable",
      "type": "function"
    },
    {
      "inputs": [
        {
          "internalType": "address",
          "name": "newImplementation",
          "type": "address"
        }
      ],
      "name": "upgradeTo",
      "outputs": [],
      "stateMutability": "nonpayable",
      "type": "function"
    },
    {
      "inputs": [
        {
          "internalType": "address",
          "name": "newImplementation",
          "type": "address"
        },
        {
          "internalType": "bytes",
          "name": "data",
          "type": "bytes"
        }
      ],
      "name": "upgradeToAndCall",
      "outputs": [],
      "stateMutability": "payable",
      "type": "function"
    },
    {
      "inputs": [],
      "name": "withdrawETHAdmin",
      "outputs": [],
      "stateMutability": "nonpayable",
      "type": "function"
    },
    {
      "inputs": [
        {
          "internalType": "address",
          "name": "_tokenAddress",
          "type": "address"
        },
        {
          "internalType": "uint256",
          "name": "_value",
          "type": "uint256"
        }
      ],
      "name": "withdrawTokensAdmin",
      "outputs": [],
      "stateMutability": "nonpayable",
      "type": "function"
    },
    {
      "stateMutability": "payable",
      "type": "receive"
    }
  ],
  "bytecode": "0x60a06040523060805234801561001457600080fd5b50608051615d086200004d60003960008181610edd01528181610f260152818161107e015281816110be015261113a0152615d086000f3fe6080604052600436106102995760003560e01c80638486e0661161015b578063bf46de63116100c7578063bf46de63146107c3578063bff1f9e1146107e3578063c3ab5ebf14610800578063db003b2a14610882578063e1c715ba146108a2578063e52356f3146108c2578063e5682e38146108e2578063ea62f715146108f5578063f2fde38b14610915578063f31a2d0f14610935578063f41bfeef14610955578063f830e57b1461096b578063fafc959714610998578063fb47e016146109b757600080fd5b80638486e066146106495780638da5cb5b146106695780638df05d9c1461068757806396ed6b85146106a75780639f4e8398146106bd578063a0b6105f146106dd578063a1b80175146106fd578063a28a368614610721578063a43ae40814610741578063aa7df4f214610761578063af2f39d114610776578063b47181d314610790578063b92d18c1146107b057600080fd5b80634a750822116102055780634a750822146104725780634b5102b8146104925780634f1ef286146104b257806352d1902d146104c5578063538ffe0c146104da5780635e701d8614610523578063631d33981461055c578063715018a61461057c57806376a68e8414610591578063770ceeb1146105b15780637879b5ef146105d15780637a026935146105f15780637bdbf996146106075780638129fc1c1461063457600080fd5b8063012da720146102a557806309de82cd146102db5780630b243dad146102ff5780630efdbb6a1461032157806318e10bff146103415780631f3c4cba1461036d5780631f7f83ba1461038d57806322f88b52146103c55780632913497b146103db5780632ed421d2146103f9578063313ce5671461040f578063357597881461043d5780633659cfe61461045257600080fd5b366102a057005b600080fd5b3480156102b157600080fd5b506102c56102c0366004614f41565b6109e4565b6040516102d29190614f5c565b60405180910390f35b3480156102e757600080fd5b506102f160ce5481565b6040519081526020016102d2565b34801561030b57600080fd5b5061031f61031a366004614fbd565b610a79565b005b34801561032d57600080fd5b5061031f61033c366004614fe7565b610abc565b34801561034d57600080fd5b5060d75461035b9060ff1681565b60405160ff90911681526020016102d2565b34801561037957600080fd5b506102f1610388366004615016565b610ae6565b34801561039957600080fd5b506103ad6103a8366004615031565b610e72565b6040516001600160a01b0390911681526020016102d2565b3480156103d157600080fd5b506102f160d35481565b3480156103e757600080fd5b5060c9546001600160a01b03166103ad565b34801561040557600080fd5b506102f160d45481565b34801561041b57600080fd5b5060cb5461042a9061ffff1681565b60405161ffff90911681526020016102d2565b34801561044957600080fd5b5061031f610e9c565b34801561045e57600080fd5b5061031f61046d366004614fe7565b610ed3565b34801561047e57600080fd5b5061031f61048d366004615115565b610fa1565b34801561049e57600080fd5b5061031f6104ad366004614f41565b611056565b61031f6104c03660046151b1565b611074565b3480156104d157600080fd5b506102f161112d565b3480156104e657600080fd5b506105136104f5366004614fe7565b6001600160a01b0316600090815260d8602052604090205460ff1690565b60405190151581526020016102d2565b34801561052f57600080fd5b5060cf5461054790600160201b900463ffffffff1681565b60405163ffffffff90911681526020016102d2565b34801561056857600080fd5b5061031f61057736600461525d565b6111db565b34801561058857600080fd5b5061031f6113de565b34801561059d57600080fd5b506102f16105ac366004615016565b6113f2565b3480156105bd57600080fd5b5061031f6105cc366004615016565b611406565b3480156105dd57600080fd5b5061042a6105ec366004615031565b61141d565b3480156105fd57600080fd5b506102f160cd5481565b34801561061357600080fd5b50610627610622366004614f41565b611455565b6040516102d29190615403565b34801561064057600080fd5b5061031f611668565b34801561065557600080fd5b5061031f610664366004614f41565b61190d565b34801561067557600080fd5b506033546001600160a01b03166103ad565b34801561069357600080fd5b5060cb5461035b9062010000900460ff1681565b3480156106b357600080fd5b506102f160cc5481565b3480156106c957600080fd5b5061031f6106d8366004614fe7565b611933565b3480156106e957600080fd5b5061031f6106f8366004614fbd565b6119a2565b34801561070957600080fd5b5060cf5461054790600160401b900463ffffffff1681565b34801561072d57600080fd5b5060d25461035b9062010000900460ff1681565b34801561074d57600080fd5b5061031f61075c3660046154c6565b611a1b565b34801561076d57600080fd5b5061031f611a3b565b34801561078257600080fd5b5060d2546105139060ff1681565b34801561079c57600080fd5b506102f16107ab366004615016565b611d94565b61031f6107be366004615016565b61210c565b3480156107cf57600080fd5b506102f16107de366004615016565b612219565b3480156107ef57600080fd5b5060cf546105479063ffffffff1681565b34801561080c57600080fd5b5061082061081b366004615016565b61227d565b6040516102d29190600060e08201905082511515825263ffffffff60208401511660208301526040830151604083015261ffff60608401511660608301526080830151608083015260a083015160a083015260c083015160c083015292915050565b34801561088e57600080fd5b5061031f61089d3660046154ea565b61233f565b3480156108ae57600080fd5b5061031f6108bd366004615627565b6124a8565b3480156108ce57600080fd5b5061031f6108dd366004614fe7565b6124bc565b61031f6108f0366004615016565b6125e5565b34801561090157600080fd5b506102f1610910366004615016565b612735565b34801561092157600080fd5b5061031f610930366004614fe7565b61284c565b34801561094157600080fd5b5061031f610950366004615668565b6128c2565b34801561096157600080fd5b506102f160d55481565b34801561097757600080fd5b5061098b610986366004615016565b612a24565b6040516102d29190615684565b3480156109a457600080fd5b5060d25461051390610100900460ff1681565b3480156109c357600080fd5b506109d76109d2366004614fe7565b612e87565b6040516102d29190615875565b60ff8116600090815260db6020908152604091829020600901805483518184028101840190945280845260609392830182828015610a6d57602002820191906000526020600020906000905b82829054906101000a900463ffffffff1663ffffffff1681526020019060040190602082600301049283019260010382029150808411610a305790505b50505050509050919050565b610a81612f2b565b6040516001600160a01b0383169082156108fc029083906000818181858888f19350505050158015610ab7573d6000803e3d6000fd5b505050565b610ac4612f2b565b60c980546001600160a01b0319166001600160a01b0392909216919091179055565b63ffffffff808216600090815260d96020908152604080832081516103a081019092528054909416815260018401805493948594929390929084019190610b2c9061589c565b80601f0160208091040260200160405190810160405280929190818152602001828054610b589061589c565b8015610ba55780601f10610b7a57610100808354040283529160200191610ba5565b820191906000526020600020905b815481529060010190602001808311610b8857829003601f168201915b5050509183525050600282015460ff811615156020808401919091526101009091046001600160a01b03166040808401919091526003840154606084015260048401546080840152600584015460a084015260068401805482518185028101850190935280835260c0909401939192909190830182828015610c7257602002820191906000526020600020906000905b82829054906101000a900463ffffffff1663ffffffff1681526020019060040190602082600301049283019260010382029150808411610c355790505b5050509183525050600782015463ffffffff166020808301919091526008830180546040805182850281018501825282815294019392830182828015610d0357602002820191906000526020600020906000905b82829054906101000a900463ffffffff1663ffffffff1681526020019060040190602082600301049283019260010382029150808411610cc65790505b5050505050815260200160098201805480602002602001604051908101604052809291908181526020018280548015610d8757602002820191906000526020600020906000905b82829054906101000a900463ffffffff1663ffffffff1681526020019060040190602082600301049283019260010382029150808411610d4a5790505b5050509183525050600a8201546020820152600b8201546040820152600c8201546060820152600d8201546080820152600e82015460a0820152600f82015460c0820152601082015460e08201526011820154610100820152601282015460ff1661012082015260138201546101408201526014820154610160820152601582015461018082015260168201546101a082015260178201546101c082015260188201546101e08201526019820154610200820152601a820154610220820152601b9091015461024090910152610300810151610320820151919250610e6b916158e6565b9392505050565b60d68181548110610e8257600080fd5b6000918252602090912001546001600160a01b0316905081565b610ea4612f2b565b60405133904780156108fc02916000818181858888f19350505050158015610ed0573d6000803e3d6000fd5b50565b6001600160a01b037f0000000000000000000000000000000000000000000000000000000000000000163003610f245760405162461bcd60e51b8152600401610f1b906158f9565b60405180910390fd5b7f00000000000000000000000000000000000000000000000000000000000000006001600160a01b0316610f56612f85565b6001600160a01b031614610f7c5760405162461bcd60e51b8152600401610f1b90615945565b610f8581612fa1565b60408051600080825260208201909252610ed091839190612fa9565b610fa9612f2b565b60ff8916600081815260db60205260409020805460ff1916909117815560018101899055600281018890556003810187905560048101610fe987826159d7565b5060058101859055600681018490556007810183905560088101805461ff0019166101008415150217905560405160ff8b1681527fa24b8cf512af3c40223886405905578154323d4ba0d3802ec5756b9684ce1b799060200160405180910390a150505050505050505050565b61105e612f2b565b60d7805460ff191660ff92909216919091179055565b6001600160a01b037f00000000000000000000000000000000000000000000000000000000000000001630036110bc5760405162461bcd60e51b8152600401610f1b906158f9565b7f00000000000000000000000000000000000000000000000000000000000000006001600160a01b03166110ee612f85565b6001600160a01b0316146111145760405162461bcd60e51b8152600401610f1b90615945565b61111d82612fa1565b61112982826001612fa9565b5050565b6000306001600160a01b037f000000000000000000000000000000000000000000000000000000000000000016146111c85760405162461bcd60e51b815260206004820152603860248201527f555550535570677261646561626c653a206d757374206e6f742062652063616c6044820152771b1959081d1a1c9bdd59da0819195b1959d85d1958d85b1b60421b6064820152608401610f1b565b50600080516020615c8c83398151915290565b6111e3612f2b565b60005b61ffff81168511156113d657600060d9600088888561ffff1681811061120e5761120e615a96565b90506020020160208101906112239190615016565b63ffffffff1663ffffffff1681526020019081526020016000209050600060d8600087878661ffff1681811061125b5761125b615a96565b90506020020160208101906112709190614fe7565b6001600160a01b03166001600160a01b03168152602001908152602001600020905087878461ffff168181106112a8576112a8615a96565b90506020020160208101906112bd9190615016565b825463ffffffff191663ffffffff919091161782558351849061ffff85169081106112ea576112ea615a96565b602002602001015182600101908161130291906159d7565b508060010188888561ffff1681811061131d5761131d615a96565b90506020020160208101906113329190615016565b8154600181018355600092835260209092206008830401805460079093166004026101000a63ffffffff818102199094169290931692909202179055858561ffff851681811061138457611384615a96565b90506020020160208101906113999190614fe7565b8260020160016101000a8154816001600160a01b0302191690836001600160a01b03160217905550505080806113ce90615aac565b9150506111e6565b505050505050565b6113e6612f2b565b6113f06000613114565b565b60006113fd82613166565b60ff1692915050565b600061141182613583565b90506111298183613851565b60ca818154811061142d57600080fd5b9060005260206000209060109182820401919006600202915054906101000a900461ffff1681565b6114b9604051806101600160405280600060ff16815260200160008152602001600081526020016000815260200160608152602001600081526020016000815260200160008152602001600015158152602001600015158152602001606081525090565b60ff808316600090815260db602090815260409182902082516101608101845281549094168452600181015491840191909152600281015491830191909152600381015460608301526004810180546080840191906115179061589c565b80601f01602080910402602001604051908101604052809291908181526020018280546115439061589c565b80156115905780601f1061156557610100808354040283529160200191611590565b820191906000526020600020905b81548152906001019060200180831161157357829003601f168201915b50505091835250506005820154602080830191909152600683015460408084019190915260078401546060840152600884015460ff8082161515608086015261010090910416151560a084015260098401805482518185028101850190935280835260c090940193919290919083018282801561165857602002820191906000526020600020906000905b82829054906101000a900463ffffffff1663ffffffff168152602001906004019060208260030104928301926001038202915080841161161b5790505b5050505050815250509050919050565b600054610100900460ff16158080156116885750600054600160ff909116105b806116a9575061169730613f36565b1580156116a9575060005460ff166001145b61170c5760405162461bcd60e51b815260206004820152602e60248201527f496e697469616c697a61626c653a20636f6e747261637420697320616c72656160448201526d191e481a5b9a5d1a585b1a5e995960921b6064820152608401610f1b565b6000805460ff19166001179055801561172f576000805461ff0019166101001790555b60c980546001600160a01b03191673f594034b9ab80fdb03560ba3e5c8eea0b0ead16817905560cb805461ffff19166103e8179055604080516103a08101825260648152604660208201526032918101829052606081018290526080810182905260a0810182905260c0810182905260e08101829052610100810182905261012081018290526101408101829052610160810182905261018081018290526101a081018290526101c081018290526101e08101829052610200810182905261022081018290526102408101919091526014610260820181905261028082018190526102a082018190526102c082018190526102e08201819052610300820181905261032082018190526103408201819052610360820181905261038082015261185c9060ca90601d614e03565b5060cb805462ff0000191662320000179055670de0b6b3a764000060cc5560d2805463ff00ffff1916630200010117905560cf805461ffff60601b1916607d60631b17905563020f580060d055601460d15562278d0060d5556118bd613f45565b6118c5613f74565b8015610ed0576000805461ff0019169055604051600181527f7f26b83ff96e1f2b6a682f133852f6798a09c465da95921460cefb38474024989060200160405180910390a150565b611915612f2b565b60cb805460ff909216620100000262ff000019909216919091179055565b61193b612f2b565b60d6805460018181019092557fe767803f8ecf1dee6bb0345811f7312cda556058b19db6389ad9ae3568643ddd0180546001600160a01b039093166001600160a01b031990931683179055600091825260d86020526040909120805460ff19169091179055565b6119aa612f2b565b60405163a9059cbb60e01b8152336004820152602481018290526001600160a01b0383169063a9059cbb906044016020604051808303816000875af11580156119f7573d6000803e3d6000fd5b505050506040513d601f19601f82011682018060405250810190610ab79190615acd565b611a23612f2b565b60cb805461ffff191661ffff92909216919091179055565b611a43612f2b565b60d75460ff1660005b8160ff168160ff161015611d875760ff808216600090815260db602090815260408083208151610160810183528154909516855260018101549285019290925260028201549084015260038101546060840152600481018054929392608084019190611ab79061589c565b80601f0160208091040260200160405190810160405280929190818152602001828054611ae39061589c565b8015611b305780601f10611b0557610100808354040283529160200191611b30565b820191906000526020600020905b815481529060010190602001808311611b1357829003601f168201915b50505091835250506005820154602080830191909152600683015460408084019190915260078401546060840152600884015460ff8082161515608086015261010090910416151560a084015260098401805482518185028101850190935280835260c0909401939192909190830182828015611bf857602002820191906000526020600020906000905b82829054906101000a900463ffffffff1663ffffffff1681526020019060040190602082600301049283019260010382029150808411611bbb5790505b5050505050815250509050806101200151611c135750611d75565b610140810151805160cb5460a084015160d35460009263ffffffff85169261ffff90911691611c429190615aea565b611c4c9190615b01565b611c569190615b01565b905060005b8263ffffffff168163ffffffff161015611d6f57600060d96000868463ffffffff1681518110611c8d57611c8d615a96565b602002602001015163ffffffff1663ffffffff16815260200190815260200160002090508560c001518160100154118015611cd057508060190154816018015411155b15611d5c5782816018016000828254611ce99190615b23565b9250508190555082858363ffffffff1681518110611d0957611d09615a96565b602002602001015163ffffffff167f94b6d3d19cc40938e685ef6a1f6476b53ef65295ab094a044e74405a8d0bd05b8860000151604051611d53919060ff91909116815260200190565b60405180910390a35b5080611d6781615b36565b915050611c5b565b50505050505b80611d7f81615b4f565b915050611a4c565b5050600060d3554260d455565b63ffffffff808216600090815260d96020908152604080832081516103a081019092528054909416815260018401805493948594929390929084019190611dda9061589c565b80601f0160208091040260200160405190810160405280929190818152602001828054611e069061589c565b8015611e535780601f10611e2857610100808354040283529160200191611e53565b820191906000526020600020905b815481529060010190602001808311611e3657829003601f168201915b5050509183525050600282015460ff811615156020808401919091526101009091046001600160a01b03166040808401919091526003840154606084015260048401546080840152600584015460a084015260068401805482518185028101850190935280835260c0909401939192909190830182828015611f2057602002820191906000526020600020906000905b82829054906101000a900463ffffffff1663ffffffff1681526020019060040190602082600301049283019260010382029150808411611ee35790505b5050509183525050600782015463ffffffff166020808301919091526008830180546040805182850281018501825282815294019392830182828015611fb157602002820191906000526020600020906000905b82829054906101000a900463ffffffff1663ffffffff1681526020019060040190602082600301049283019260010382029150808411611f745790505b505050505081526020016009820180548060200260200160405190810160405280929190818152602001828054801561203557602002820191906000526020600020906000905b82829054906101000a900463ffffffff1663ffffffff1681526020019060040190602082600301049283019260010382029150808411611ff85790505b5050509183525050600a8201546020820152600b8201546040820152600c8201546060820152600d8201546080820152600e82015460a0820152600f82015460c0820152601082015460e08201526011820154610100820152601282015460ff1661012082015260138201546101408201526014820154610160820152601582015461018082015260168201546101a082015260178201546101c082015260188201546101e08201526019820154610200820152601a820154610220820152601b90910154610240909101529050610e6b81613f9b565b60cc54349061211a90613fd8565b81101561217d5760405162461bcd60e51b815260206004820152602b60248201527f56616c75652073686f756c6420626520677265617465207468656e206d696e4360448201526a37b73a3934b13aba34b7b760a91b6064820152608401610f1b565b3360006121898361406e565b60cf5490915042906000906121ac90600160401b900463ffffffff166001615b6e565b63ffffffff8716600090815260d9602052604090206002810154919250906001600160a01b0386811661010090920416146121f95760405162461bcd60e51b8152600401610f1b90615b92565b60d25460ff161561221057612210878386866140fb565b50505050505050565b63ffffffff8116600090815260d96020526040812081612238846141ed565b9050816019015481836018015461224f9190615b23565b1161225c57809250612276565b60008260180154836019015461227291906158e6565b9350505b5050919050565b6122c96040518060e00160405280600015158152602001600063ffffffff16815260200160008152602001600061ffff1681526020016000815260200160008152602001600081525090565b5063ffffffff908116600090815260da6020908152604091829020825160e081018452815460ff811615158252610100900490941691840191909152600181015491830191909152600281015461ffff16606083015260038101546080830152600481015460a08301526005015460c082015290565b612347612f2b565b60005b8b8110156124995760cf8054600160401b900463ffffffff1690600861236f83615b36565b91906101000a81548163ffffffff021916908363ffffffff1602179055505060008b8b838181106123a2576123a2615a96565b9050602002013511156124875760008b8b838181106123c3576123c3615a96565b9050602002013560036123d69190615aea565b90506124858e8e848181106123ed576123ed615a96565b90506020020160208101906124029190615016565b8d8d8581811061241457612414615a96565b905060200201358c8c8681811061242d5761242d615a96565b90506020020135848c8c8881811061244757612447615a96565b905060200201358b8b8981811061246057612460615a96565b905060200201358a8a8a81811061247957612479615a96565b905060200201356142c7565b505b8061249181615bc9565b91505061234a565b50505050505050505050505050565b6124b0612f2b565b610ab760ca8383614eab565b6124c4612f2b565b6001600160a01b038116600090815260d860205260408120805460ff1916905560d654905b81811015610ab757826001600160a01b031660d6828154811061250e5761250e615a96565b6000918252602090912001546001600160a01b0316036125d35760d66125356001846158e6565b8154811061254557612545615a96565b60009182526020909120015460d680546001600160a01b03909216918390811061257157612571615a96565b9060005260206000200160006101000a8154816001600160a01b0302191690836001600160a01b0316021790555060d68054806125b0576125b0615be2565b600082815260209020810160001990810180546001600160a01b03191690550190555b806125dd81615bc9565b9150506124e9565b3460006125f18261406e565b90506125fe60cc54613fd8565b82101561264d5760405162461bcd60e51b815260206004820152601f60248201527f56616c75652073686f756c6420626520677265617465207468656e20313030006044820152606401610f1b565b60cf543390429060009061266f90600160201b900463ffffffff166001615b6e565b60cf5490915060009061269090600160401b900463ffffffff166001615b6e565b6001600160a01b038516600090815260d86020526040902060d2549192509060ff16156126c3576126c3838388876140fb565b6126ea838987896126d5816003615aea565b60cb548a90819062010000900460ff16614436565b6001908101805491820181556000908152602090206008820401805460079092166004026101000a63ffffffff81810219909316949092169190910292909217909155505050505050565b63ffffffff8116600090815260d960209081526040808320600601805482518185028101850190935280835284938301828280156127be57602002820191906000526020600020906000905b82829054906101000a900463ffffffff1663ffffffff16815260200190600401906020826003010492830192600103820291508084116127815790505b505050505090506000805b82518161ffff16101561284457600060da6000858461ffff16815181106127f2576127f2615a96565b60209081029190910181015163ffffffff168252810191909152604001600020805490915060ff161561283157600181015461282e9084615b23565b92505b508061283c81615aac565b9150506127c9565b509392505050565b612854612f2b565b6001600160a01b0381166128b95760405162461bcd60e51b815260206004820152602660248201527f4f776e61626c653a206e6577206f776e657220697320746865207a65726f206160448201526564647265737360d01b6064820152608401610f1b565b610ed081613114565b63ffffffff8216600090815260d960205260409020600281015460ff161561291f5760405162461bcd60e51b815260206004820152601060248201526f4944206973206e6f742061637469766560801b6044820152606401610f1b565b600281015461010090046001600160a01b031633146129505760405162461bcd60e51b8152600401610f1b90615b92565b600061295b82614930565b601783015490915061296d81836158e6565b8411156129cf5760405162461bcd60e51b815260206004820152602a60248201527f506c6561736520656e7465722076616c7565206c657373207468656e20796f7560448201526939103130b630b731b29760b11b6064820152608401610f1b565b838360170160008282546129e39190615b23565b9091555050604051339085156108fc029086906000818181858888f19350505050158015612a15573d6000803e3d6000fd5b50826019015461221084614930565b612b19604051806103a00160405280600063ffffffff1681526020016060815260200160001515815260200160006001600160a01b0316815260200160008152602001600081526020016000815260200160608152602001600063ffffffff16815260200160608152602001606081526020016000815260200160008152602001600081526020016000815260200160008152602001600081526020016000815260200160008152602001600060ff1681526020016000815260200160008152602001600081526020016000815260200160008152602001600081526020016000815260200160008152602001600081525090565b63ffffffff808316600090815260d9602090815260409182902082516103a081019093528054909316825260018301805492939291840191612b5a9061589c565b80601f0160208091040260200160405190810160405280929190818152602001828054612b869061589c565b8015612bd35780601f10612ba857610100808354040283529160200191612bd3565b820191906000526020600020905b815481529060010190602001808311612bb657829003601f168201915b5050509183525050600282015460ff811615156020808401919091526101009091046001600160a01b03166040808401919091526003840154606084015260048401546080840152600584015460a084015260068401805482518185028101850190935280835260c0909401939192909190830182828015612ca057602002820191906000526020600020906000905b82829054906101000a900463ffffffff1663ffffffff1681526020019060040190602082600301049283019260010382029150808411612c635790505b5050509183525050600782015463ffffffff166020808301919091526008830180546040805182850281018501825282815294019392830182828015612d3157602002820191906000526020600020906000905b82829054906101000a900463ffffffff1663ffffffff1681526020019060040190602082600301049283019260010382029150808411612cf45790505b5050505050815260200160098201805480602002602001604051908101604052809291908181526020018280548015612db557602002820191906000526020600020906000905b82829054906101000a900463ffffffff1663ffffffff1681526020019060040190602082600301049283019260010382029150808411612d785790505b5050509183525050600a8201546020820152600b8201546040820152600c8201546060820152600d8201546080820152600e82015460a0820152600f82015460c0820152601082015460e08201526011820154610100820152601282015460ff1661012082015260138201546101408201526014820154610160820152601582015461018082015260168201546101a082015260178201546101c082015260188201546101e08201526019820154610200820152601a820154610220820152601b909101546102409091015292915050565b6040805180820190915260008152606060208201526001600160a01b038216600090815260d8602090815260409182902082518084018452815460ff161515815260018201805485518186028101860190965280865291949293858101939290830182828015611658576000918252602091829020805463ffffffff16845290820283019290916004910180841161161b5790505050505050815250509050919050565b6033546001600160a01b031633146113f05760405162461bcd60e51b815260206004820181905260248201527f4f776e61626c653a2063616c6c6572206973206e6f7420746865206f776e65726044820152606401610f1b565b600080516020615c8c833981519152546001600160a01b031690565b610ed0612f2b565b7f4910fdfa16fed3260ed0e7147f7cc6da11a60208b5b9406d12a635614ffd91435460ff1615612fdc57610ab783614958565b826001600160a01b03166352d1902d6040518163ffffffff1660e01b8152600401602060405180830381865afa925050508015613036575060408051601f3d908101601f1916820190925261303391810190615bf8565b60015b6130995760405162461bcd60e51b815260206004820152602e60248201527f45524331393637557067726164653a206e657720696d706c656d656e7461746960448201526d6f6e206973206e6f74205555505360901b6064820152608401610f1b565b600080516020615c8c83398151915281146131085760405162461bcd60e51b815260206004820152602960248201527f45524331393637557067726164653a20756e737570706f727465642070726f786044820152681a58589b195555525160ba1b6064820152608401610f1b565b50610ab78383836149f2565b603380546001600160a01b038381166001600160a01b0319831681179093556040519116919082907f8be0079c531659141344cd1fd0a4f28419497f9722a3daafe3b4186f6b6457e090600090a35050565b63ffffffff808216600090815260d96020908152604080832081516103a0810190925280549094168152600184018054939485949293909290840191906131ac9061589c565b80601f01602080910402602001604051908101604052809291908181526020018280546131d89061589c565b80156132255780601f106131fa57610100808354040283529160200191613225565b820191906000526020600020905b81548152906001019060200180831161320857829003601f168201915b5050509183525050600282015460ff811615156020808401919091526101009091046001600160a01b03166040808401919091526003840154606084015260048401546080840152600584015460a084015260068401805482518185028101850190935280835260c09094019391929091908301828280156132f257602002820191906000526020600020906000905b82829054906101000a900463ffffffff1663ffffffff16815260200190600401906020826003010492830192600103820291508084116132b55790505b5050509183525050600782015463ffffffff16602080830191909152600883018054604080518285028101850182528281529401939283018282801561338357602002820191906000526020600020906000905b82829054906101000a900463ffffffff1663ffffffff16815260200190600401906020826003010492830192600103820291508084116133465790505b505050505081526020016009820180548060200260200160405190810160405280929190818152602001828054801561340757602002820191906000526020600020906000905b82829054906101000a900463ffffffff1663ffffffff16815260200190600401906020826003010492830192600103820291508084116133ca5790505b5050509183525050600a8201546020820152600b8201546040820152600c8201546060820152600d8201546080820152600e82015460a0820152600f82015460c0820152601082015460e08201526011820154610100820152601282015460ff90811661012083015260138301546101408301526014830154610160830152601583015461018083015260168301546101a083015260178301546101c083015260188301546101e08301526019830154610200830152601a830154610220830152601b909201546102409091015260d7549192501660005b8160ff168160ff16101561357b5760ff8116600090815260db602052604090206001015461016084015110801590613531575060ff8116600090815260db60205260409020600201546101a084015110155b8015613557575060ff8116600090815260db60205260409020600301546101e084015110155b1561356457809350613569565b61357b565b8061357381615b4f565b9150506134df565b505050919050565b60d9602090815263ffffffff82166000908152604080822060068101805483518187028101870190945280845293947f665fecb6766038646257fb3193371280b91d4ee69f1071872c4c7b974431a488949293869390929183018282801561363657602002820191906000526020600020906000905b82829054906101000a900463ffffffff1663ffffffff16815260200190600401906020826003010492830192600103820291508084116135f95790505b505050505090506000805b82518110156136f657600060da600085848151811061366257613662615a96565b602002602001015163ffffffff1663ffffffff16815260200190815260200160002090506136a884838151811061369b5761369b615a96565b6020026020010151614a1d565b6136b29084615b23565b92506136c984838151811061369b5761369b615a96565b8160050160008282546136dc9190615b23565b909155508291506136ee905081615bc9565b915050613641565b50826019015481846018015461370c9190615b23565b116137a457808360180160008282546137259190615b23565b925050819055508083601a0160008282546137409190615b23565b909155505042601b840155601884018054829190600090613762908490615b23565b90915550506040519094508490819063ffffffff8816907f7cd8783637a6bf8d3b4b69973a28720cfb0f5abc55d8b85dde1732d8f22c0efc90600090a3613848565b6000836018015484601901546137ba91906158e6565b9050808763ffffffff167f7cd8783637a6bf8d3b4b69973a28720cfb0f5abc55d8b85dde1732d8f22c0efc60405160405180910390a3836019015484601801819055508084601a0160008282546138119190615b23565b909155505042601b850155601885018054829190600090613833908490615b23565b9250508190555080955061384684614ad3565b505b50505050919050565b600060ca8054806020026020016040519081016040528092919081815260200182805480156138c757602002820191906000526020600020906000905b82829054906101000a900461ffff1661ffff168152602001906002019060208260010104928301926001038202915080841161388e5790505b5050835163ffffffff8716600090815260d960205260408120818052959650909493507f665fecb6766038646257fb3193371280b91d4ee69f1071872c4c7b974431a48892509050805b84811015613f1357600784015463ffffffff16600081815260d960205260409020600281015461010090046001600160a01b0316613950575050613f13565b600281015460ff16156139ca57604051725265666572657220697320496e61637469766560681b81526013015b604051908190039020613991846001615b23565b60405163ffffffff8516907f6bd4a1cb98fe02ede79e45b5749c74ff512165c4fb80ce4045eebef0e4e867dc90600090a450613f019050565b8060190154816018015410613aa5576040517f5265616368656420746865206c696d69742e205265666572657220697320496e815267030b1ba34bb3297160c51b6020820152602801604051908190039020613a27846001615b23565b60405163ffffffff8516907f6bd4a1cb98fe02ede79e45b5749c74ff512165c4fb80ce4045eebef0e4e867dc90600090a4613a6181614bfb565b805460405163ffffffff90911681527fd13a3fe87e20364852910ef677df51f59e843df0dc53fa5449acde0af7ec822d9060200160405180910390a150613f019050565b604080516103a08101909152815463ffffffff168152600182018054613e0392918491602084019190613ad79061589c565b80601f0160208091040260200160405190810160405280929190818152602001828054613b039061589c565b8015613b505780601f10613b2557610100808354040283529160200191613b50565b820191906000526020600020905b815481529060010190602001808311613b3357829003601f168201915b5050509183525050600282015460ff811615156020808401919091526101009091046001600160a01b03166040808401919091526003840154606084015260048401546080840152600584015460a084015260068401805482518185028101850190935280835260c0909401939192909190830182828015613c1d57602002820191906000526020600020906000905b82829054906101000a900463ffffffff1663ffffffff1681526020019060040190602082600301049283019260010382029150808411613be05790505b5050509183525050600782015463ffffffff166020808301919091526008830180546040805182850281018501825282815294019392830182828015613cae57602002820191906000526020600020906000905b82829054906101000a900463ffffffff1663ffffffff1681526020019060040190602082600301049283019260010382029150808411613c715790505b5050505050815260200160098201805480602002602001604051908101604052809291908181526020018280548015613d3257602002820191906000526020600020906000905b82829054906101000a900463ffffffff1663ffffffff1681526020019060040190602082600301049283019260010382029150808411613cf55790505b5050509183525050600a8201546020820152600b8201546040820152600c8201546060820152600d8201546080820152600e82015460a0820152600f82015460c0820152601082015460e08201526011820154610100820152601282015460ff1661012082015260138201546101408201526014820154610160820152601582015461018082015260168201546101a082015260178201546101c082015260188201546101e08201526019820154610200820152601a820154610220820152601b9091015461024090910152613f9b565b613e0e846001615b23565b1115613e42576040517f446f776e6c696e65206c6576656c73206c696d697420726561636865640000008152601d0161397d565b60cb54885160009161ffff16908a9086908110613e6157613e61615a96565b602002602001015161ffff168c613e789190615aea565b613e829190615b01565b905080826014016000828254613e989190615b23565b90915550613ea890508282614c13565b613eb28186615b23565b94508063ffffffff808516908c167f516e026aa0a8e23fcb20eebf31df57c3e9df29f305428f45e22d048a8582dfa0613eec886001615b23565b60405190815260200160405180910390a45050505b80613f0b81615bc9565b915050613911565b5080826014016000828254613f289190615b23565b909155505050505050505050565b6001600160a01b03163b151590565b600054610100900460ff16613f6c5760405162461bcd60e51b8152600401610f1b90615c11565b6113f0614c4b565b600054610100900460ff166113f05760405162461bcd60e51b8152600401610f1b90615c11565b61012081015151600090818115610e6b5760d254600190613fc6906301000000900460ff1684615aea565b613fd091906158e6565b949350505050565b60008060c960009054906101000a90046001600160a01b03166001600160a01b031663e1aa60366040518163ffffffff1660e01b8152600401602060405180830381865afa15801561402e573d6000803e3d6000fd5b505050506040513d601f19601f820116820180604052508101906140529190615bf8565b61406484670de0b6b3a7640000615aea565b610e6b9190615b01565b600080670de0b6b3a764000060c960009054906101000a90046001600160a01b03166001600160a01b031663e1aa60366040518163ffffffff1660e01b8152600401602060405180830381865afa1580156140cd573d6000803e3d6000fd5b505050506040513d601f19601f820116820180604052508101906140f19190615bf8565b6140649085615aea565b63ffffffff838116600081815260da6020908152604080832089861680855260d984529184208154600164ffffffffff1990911661010094850217811783558083018a905560cf8054600285018054600160601b90920461ffff1661ffff19909216919091179055600384018a905560d054600480860191909155600684018054938401815588529590962060088083049091018054600790931690960290940a8089021990911696029590951790925582549194600160401b90920490911691906141c683615b36565b91906101000a81548163ffffffff021916908363ffffffff16021790555050505050505050565b63ffffffff8116600090815260d9602090815260408083206006018054825181850281018501909352808352849383018282801561427657602002820191906000526020600020906000905b82829054906101000a900463ffffffff1663ffffffff16815260200190600401906020826003010492830192600103820291508084116142395790505b505083519394506000925050505b818161ffff16101561357b576142a9838261ffff168151811061369b5761369b615a96565b6142b39085615b23565b9350806142bf81615aac565b915050614284565b63ffffffff8716600090815260d96020526040902060cb546003820184905560048201839055600b82018890556014820187905560178201859055601882018790556019820186905560d25460ff6201000090920482169116156143425760cf54614342908a90600160401b900463ffffffff168a866140fb565b60005b8160ff168160ff16101561442a57600783015463ffffffff908116600081815260d96020526040812080549293909216900361438257505061442a565b8260ff166000036143a7578a81600d0160008282546143a19190615b23565b90915550505b8a81600f0160008282546143bb9190615b23565b92505081905550806009018c90806001815401808255809150506001900390600052602060002090600891828204019190066004029091909190916101000a81548163ffffffff021916908363ffffffff1602179055508094505050808061442290615b4f565b915050614345565b50505050505050505050565b63ffffffff888116600081815260d960205260408120805463ffffffff199081169093178155600781018054909316938b1693909317909155600282018054610100600160a81b0319166101006001600160a01b038b1602179055600382018590556004820184905560198201869055600a820180548892906144ba908490615b23565b90915550600090505b8260ff168160ff1610156148e857600782015463ffffffff908116600081815260d9602052604081208054929390921690036145005750506148e8565b8260ff16600003614577578881600c01600082825461451f9190615b23565b92505081905550806008018c90806001815401808255809150506001900390600052602060002090600891828204019190066004029091909190916101000a81548163ffffffff021916908363ffffffff1602179055505b8881600e01600082825461458b9190615b23565b92505081905550806009018c90806001815401808255809150506001900390600052602060002090600891828204019190066004029091909190916101000a81548163ffffffff021916908363ffffffff1602179055508b63ffffffff168b63ffffffff168260020160019054906101000a90046001600160a01b03166001600160a01b03167fa7fafc728ec30e34dc1e1276496bf3eb44ca7494679da969455289e6a8f0f1f68760070160009054906101000a900463ffffffff16604051614660919063ffffffff91909116815260200190565b60405180910390a4601281015460ff1661467983613166565b60ff1611156148955761468b82613166565b60128201805460ff191660ff9283169081178255600090815260db6020908152604080832060099081018054600181810183559186529385206008850401805460079095166004026101000a63ffffffff81810219909616958b16029490941790935593549094168252929020015461470491906158e6565b6013820181905560128201546040805163ffffffff86168152602081019390935260ff90911682820152517fb0d3a9c683344e744a1ae3db383f75a8a01851282c5fe97d6159c1392a2e2a0a9181900360600190a160db600061476684613166565b60ff9081168252602082019290925260400160002060080154610100900416156148015760db600061479784613166565b60ff1660ff1681526020019081526020016000206007015481601101546147be9190615b23565b4211156147ed57428160110181905550888160100160008282546147e29190615b23565b909155506148959050565b888160100160008282546147e29190615b23565b60d254610100900460ff161561489557601281015460ff16600090815260db6020526040902060050154614836908290614c13565b601281015460ff908116600090815260db602090815260409182902060058101549054925192909316825263ffffffff8516917f94b6d3d19cc40938e685ef6a1f6476b53ef65295ab094a044e74405a8d0bd05b910160405180910390a35b60d55460d4546148a59190615b23565b4211156148ba574260d45560d38990556148d2565b8860d360008282546148cc9190615b23565b90915550505b92508190506148e081615b4f565b9150506144c3565b5060cf8054600160201b900463ffffffff1690600461490683615b36565b91906101000a81548163ffffffff021916908363ffffffff16021790555050505050505050505050565b600081601901548260180154101561494c578160180154614952565b81601901545b92915050565b61496181613f36565b6149c35760405162461bcd60e51b815260206004820152602d60248201527f455243313936373a206e657720696d706c656d656e746174696f6e206973206e60448201526c1bdd08184818dbdb9d1c9858dd609a1b6064820152608401610f1b565b600080516020615c8c83398151915280546001600160a01b0319166001600160a01b0392909216919091179055565b6149fb83614c7b565b600082511180614a085750805b15610ab757614a178383614cbb565b50505050565b63ffffffff8116600090815260da60205260408120805460ff1615614ac85760d05460cb5460cf5460018401544293600093909261ffff91821692614a6d92600160601b90920490911690615aea565b614a779190615b01565b614a819190615b01565b90506000836003015483614a9591906158e6565b90508360050154614aaa828660040154614dad565b614ab49084615aea565b614abe91906158e6565b9450505050614acd565b600091505b50919050565b600081600601805480602002602001604051908101604052809291908181526020018280548015614b4f57602002820191906000526020600020906000905b82829054906101000a900463ffffffff1663ffffffff1681526020019060040190602082600301049283019260010382029150808411614b125790505b5050505050905060005b8151811015610ab75760da6000838381518110614b7857614b78615a96565b60209081029190910181015163ffffffff1682528101919091526040016000205460ff1615614be957600060da6000848481518110614bb957614bb9615a96565b60209081029190910181015163ffffffff168252810191909152604001600020805460ff19169115159190911790555b80614bf381615bc9565b915050614b59565b60028101805460ff19166001179055610ed081614ad3565b8160190154818360180154614c289190615b23565b10614c3b57601982015460188301555050565b808260180154610ab79190615b23565b600054610100900460ff16614c725760405162461bcd60e51b8152600401610f1b90615c11565b6113f033613114565b614c8481614958565b6040516001600160a01b038216907fbc7cd75a20ee27fd9adebab32041f755214dbc6bffa90cc0225b39da2e5c2d3b90600090a250565b6060614cc683613f36565b614d215760405162461bcd60e51b815260206004820152602660248201527f416464726573733a2064656c65676174652063616c6c20746f206e6f6e2d636f6044820152651b9d1c9858dd60d21b6064820152608401610f1b565b600080846001600160a01b031684604051614d3c9190615c5c565b600060405180830381855af49150503d8060008114614d77576040519150601f19603f3d011682016040523d82523d6000602084013e614d7c565b606091505b5091509150614da48282604051806060016040528060278152602001615cac60279139614dc5565b95945050505050565b600081831115614dbe575080614952565b5090919050565b60608315614dd4575081610e6b565b610e6b8383815115614de95781518083602001fd5b8060405162461bcd60e51b8152600401610f1b9190615c78565b82805482825590600052602060002090600f01601090048101928215614e9b5791602002820160005b83821115614e6b57835183826101000a81548161ffff021916908360ff1602179055509260200192600201602081600101049283019260010302614e2c565b8015614e995782816101000a81549061ffff0219169055600201602081600101049283019260010302614e6b565b505b50614ea7929150614f16565b5090565b82805482825590600052602060002090600f01601090048101928215614e9b5791602002820160005b83821115614e6b57833560ff1683826101000a81548161ffff021916908360ff1602179055509260200192600201602081600101049283019260010302614ed4565b5b80821115614ea75760008155600101614f17565b803560ff81168114614f3c57600080fd5b919050565b600060208284031215614f5357600080fd5b610e6b82614f2b565b6020808252825182820181905260009190848201906040850190845b81811015614f9a57835163ffffffff1683529284019291840191600101614f78565b50909695505050505050565b80356001600160a01b0381168114614f3c57600080fd5b60008060408385031215614fd057600080fd5b614fd983614fa6565b946020939093013593505050565b600060208284031215614ff957600080fd5b610e6b82614fa6565b803563ffffffff81168114614f3c57600080fd5b60006020828403121561502857600080fd5b610e6b82615002565b60006020828403121561504357600080fd5b5035919050565b634e487b7160e01b600052604160045260246000fd5b604051601f8201601f191681016001600160401b03811182821017156150885761508861504a565b604052919050565b60006001600160401b038311156150a9576150a961504a565b6150bc601f8401601f1916602001615060565b90508281528383830111156150d057600080fd5b828260208301376000602084830101529392505050565b600082601f8301126150f857600080fd5b610e6b83833560208501615090565b8015158114610ed057600080fd5b60008060008060008060008060006101208a8c03121561513457600080fd5b61513d8a614f2b565b985060208a0135975060408a0135965060608a0135955060808a01356001600160401b0381111561516d57600080fd5b6151798c828d016150e7565b95505060a08a0135935060c08a0135925060e08a013591506101008a01356151a081615107565b809150509295985092959850929598565b600080604083850312156151c457600080fd5b6151cd83614fa6565b915060208301356001600160401b038111156151e857600080fd5b8301601f810185136151f957600080fd5b61520885823560208401615090565b9150509250929050565b60008083601f84011261522457600080fd5b5081356001600160401b0381111561523b57600080fd5b6020830191508360208260051b850101111561525657600080fd5b9250929050565b60008060008060006060868803121561527557600080fd5b85356001600160401b038082111561528c57600080fd5b61529889838a01615212565b90975095506020915087820135818111156152b257600080fd5b6152be8a828b01615212565b9096509450506040880135818111156152d657600080fd5b8801601f81018a136152e757600080fd5b8035828111156152f9576152f961504a565b8060051b615308858201615060565b918252828101850191858101908d84111561532257600080fd5b86850192505b8383101561535e578235868111156153405760008081fd5b61534e8f89838901016150e7565b8352509186019190860190615328565b809750505050505050509295509295909350565b60005b8381101561538d578181015183820152602001615375565b50506000910152565b600081518084526153ae816020860160208601615372565b601f01601f19169290920160200192915050565b600081518084526020808501945080840160005b838110156153f857815163ffffffff16875295820195908201906001016153d6565b509495945050505050565b6020815261541760208201835160ff169052565b602082015160408201526040820151606082015260608201516080820152600060808301516101608060a0850152615453610180850183615396565b915060a085015160c085015260c085015160e085015260e085015161010081818701528087015191505061012061548d8187018315159052565b86015190506101406154a28682018315159052565b860151858403601f19018387015290506154bc83826153c2565b9695505050505050565b6000602082840312156154d857600080fd5b813561ffff81168114610e6b57600080fd5b60008060008060008060008060008060008060c08d8f03121561550c57600080fd5b6001600160401b038d35111561552157600080fd5b61552e8e8e358f01615212565b909c509a506001600160401b0360208e0135111561554b57600080fd5b61555b8e60208f01358f01615212565b909a5098506001600160401b0360408e0135111561557857600080fd5b6155888e60408f01358f01615212565b90985096506001600160401b0360608e013511156155a557600080fd5b6155b58e60608f01358f01615212565b90965094506001600160401b0360808e013511156155d257600080fd5b6155e28e60808f01358f01615212565b90945092506001600160401b0360a08e013511156155ff57600080fd5b61560f8e60a08f01358f01615212565b81935080925050509295989b509295989b509295989b565b6000806020838503121561563a57600080fd5b82356001600160401b0381111561565057600080fd5b61565c85828601615212565b90969095509350505050565b6000806040838503121561567b57600080fd5b614fd983615002565b6020815261569b60208201835163ffffffff169052565b600060208301516103a08060408501526156b96103c0850183615396565b915060408501516156ce606086018215159052565b5060608501516001600160a01b038116608086015250608085015160a085015260a085015160c085015260c085015160e085015260e0850151601f1961010081878603018188015261572085846153c2565b94508088015192505061012061573d8188018463ffffffff169052565b8088015192505061014081878603018188015261575a85846153c2565b94508088015192505061016081878603018188015261577985846153c2565b90880151610180888101919091528801516101a0808901919091528801516101c0808901919091528801516101e08089019190915288015161020080890191909152880151610220808901919091528801516102408089019190915288015161026080890191909152880151909450915061028090506157fd8187018360ff169052565b8601516102a0868101919091528601516102c0808701919091528601516102e08087019190915286015161030080870191909152860151610320808701919091528601516103408087019190915286015161036080870191909152860151610380808701919091529095015193019290925250919050565b6020815281511515602082015260006020830151604080840152613fd060608401826153c2565b600181811c908216806158b057607f821691505b602082108103614acd57634e487b7160e01b600052602260045260246000fd5b634e487b7160e01b600052601160045260246000fd5b81810381811115614952576149526158d0565b6020808252602c908201527f46756e6374696f6e206d7573742062652063616c6c6564207468726f7567682060408201526b19195b1959d85d1958d85b1b60a21b606082015260800190565b6020808252602c908201527f46756e6374696f6e206d7573742062652063616c6c6564207468726f7567682060408201526b6163746976652070726f787960a01b606082015260800190565b601f821115610ab757600081815260208120601f850160051c810160208610156159b85750805b601f850160051c820191505b818110156113d6578281556001016159c4565b81516001600160401b038111156159f0576159f061504a565b615a04816159fe845461589c565b84615991565b602080601f831160018114615a395760008415615a215750858301515b600019600386901b1c1916600185901b1785556113d6565b600085815260208120601f198616915b82811015615a6857888601518255948401946001909101908401615a49565b5085821015615a865787850151600019600388901b60f8161c191681555b5050505050600190811b01905550565b634e487b7160e01b600052603260045260246000fd5b600061ffff808316818103615ac357615ac36158d0565b6001019392505050565b600060208284031215615adf57600080fd5b8151610e6b81615107565b8082028115828204841417614952576149526158d0565b600082615b1e57634e487b7160e01b600052601260045260246000fd5b500490565b80820180821115614952576149526158d0565b600063ffffffff808316818103615ac357615ac36158d0565b600060ff821660ff8103615b6557615b656158d0565b60010192915050565b63ffffffff818116838216019080821115615b8b57615b8b6158d0565b5092915050565b6020808252601d908201527f596f7520617265206e6f74206f776e6572206f6620746869732069642e000000604082015260600190565b600060018201615bdb57615bdb6158d0565b5060010190565b634e487b7160e01b600052603160045260246000fd5b600060208284031215615c0a57600080fd5b5051919050565b6020808252602b908201527f496e697469616c697a61626c653a20636f6e7472616374206973206e6f74206960408201526a6e697469616c697a696e6760a81b606082015260800190565b60008251615c6e818460208701615372565b9190910192915050565b602081526000610e6b602083018461539656fe360894a13ba1a3210667c828492db98dca3e2076cc3735a920a3ca505d382bbc416464726573733a206c6f772d6c6576656c2064656c65676174652063616c6c206661696c6564a2646970667358221220390707caae5d8b5c8aa11fde9528ae4284f9c14417f8cc0618fcea8be16c02e064736f6c63430008110033",
  "linkReferences": {},
  "deployedLinkReferences": {}
}