{
  "_format": "hh-sol-artifact-1",
  "contractName": "ReferralV2Upgradeable",
  "sourceName": "contracts/ReferralV2Upgradeable.sol",
  "abi": [
    {
      "anonymous": false,
      "inputs": [
        {
          "indexed": false,
          "internalType": "address",
          "name": "ownerAddress",
          "type": "address"
        },
        {
          "indexed": false,
          "internalType": "uint256",
          "name": "id",
          "type": "uint256"
        },
        {
          "indexed": false,
          "internalType": "uint256",
          "name": "idIndex",
          "type": "uint256"
        }
      ],
      "name": "AccountInfoIDAttached",
      "type": "event"
    },
    {
      "anonymous": false,
      "inputs": [
        {
          "indexed": false,
          "internalType": "uint256",
          "name": "userID",
          "type": "uint256"
        },
        {
          "indexed": false,
          "internalType": "uint256",
          "name": "index",
          "type": "uint256"
        },
        {
          "indexed": false,
          "internalType": "uint256",
          "name": "rank",
          "type": "uint256"
        }
      ],
      "name": "AddedInRoyaltyClubList",
      "type": "event"
    },
    {
      "anonymous": false,
      "inputs": [
        {
          "indexed": false,
          "internalType": "address",
          "name": "previousAdmin",
          "type": "address"
        },
        {
          "indexed": false,
          "internalType": "address",
          "name": "newAdmin",
          "type": "address"
        }
      ],
      "name": "AdminChanged",
      "type": "event"
    },
    {
      "anonymous": false,
      "inputs": [
        {
          "indexed": true,
          "internalType": "address",
          "name": "beacon",
          "type": "address"
        }
      ],
      "name": "BeaconUpgraded",
      "type": "event"
    },
    {
      "anonymous": false,
      "inputs": [
        {
          "indexed": false,
          "internalType": "uint256",
          "name": "id",
          "type": "uint256"
        },
        {
          "indexed": false,
          "internalType": "uint256",
          "name": "valueInUSD",
          "type": "uint256"
        },
        {
          "indexed": false,
          "internalType": "address",
          "name": "userAddress",
          "type": "address"
        }
      ],
      "name": "IDActivated",
      "type": "event"
    },
    {
      "anonymous": false,
      "inputs": [
        {
          "indexed": false,
          "internalType": "uint256",
          "name": "id",
          "type": "uint256"
        }
      ],
      "name": "IDDeactivated",
      "type": "event"
    },
    {
      "anonymous": false,
      "inputs": [
        {
          "indexed": false,
          "internalType": "uint8",
          "name": "version",
          "type": "uint8"
        }
      ],
      "name": "Initialized",
      "type": "event"
    },
    {
      "anonymous": false,
      "inputs": [
        {
          "indexed": true,
          "internalType": "address",
          "name": "previousOwner",
          "type": "address"
        },
        {
          "indexed": true,
          "internalType": "address",
          "name": "newOwner",
          "type": "address"
        }
      ],
      "name": "OwnershipTransferred",
      "type": "event"
    },
    {
      "anonymous": false,
      "inputs": [
        {
          "indexed": false,
          "internalType": "uint256",
          "name": "packageID",
          "type": "uint256"
        }
      ],
      "name": "PackageAdded",
      "type": "event"
    },
    {
      "anonymous": false,
      "inputs": [
        {
          "indexed": false,
          "internalType": "uint256",
          "name": "packageID",
          "type": "uint256"
        }
      ],
      "name": "PackageRemoved",
      "type": "event"
    },
    {
      "anonymous": false,
      "inputs": [
        {
          "indexed": false,
          "internalType": "uint256",
          "name": "packageID",
          "type": "uint256"
        }
      ],
      "name": "PackageUpdated",
      "type": "event"
    },
    {
      "anonymous": false,
      "inputs": [
        {
          "indexed": false,
          "internalType": "address",
          "name": "account",
          "type": "address"
        }
      ],
      "name": "Paused",
      "type": "event"
    },
    {
      "anonymous": false,
      "inputs": [
        {
          "indexed": true,
          "internalType": "address",
          "name": "userAddress",
          "type": "address"
        },
        {
          "indexed": true,
          "internalType": "uint256",
          "name": "valueinUSD",
          "type": "uint256"
        },
        {
          "indexed": false,
          "internalType": "uint256",
          "name": "duration",
          "type": "uint256"
        },
        {
          "indexed": false,
          "internalType": "uint256",
          "name": "roiID",
          "type": "uint256"
        }
      ],
      "name": "ROIActivated",
      "type": "event"
    },
    {
      "anonymous": false,
      "inputs": [
        {
          "indexed": true,
          "internalType": "uint256",
          "name": "userID",
          "type": "uint256"
        },
        {
          "indexed": true,
          "internalType": "uint256",
          "name": "reward",
          "type": "uint256"
        }
      ],
      "name": "ROIClaimed",
      "type": "event"
    },
    {
      "anonymous": false,
      "inputs": [
        {
          "indexed": true,
          "internalType": "uint256",
          "name": "refererID",
          "type": "uint256"
        },
        {
          "indexed": true,
          "internalType": "uint256",
          "name": "level",
          "type": "uint256"
        },
        {
          "indexed": true,
          "internalType": "string",
          "name": "reason",
          "type": "string"
        }
      ],
      "name": "ReferralNotPaid",
      "type": "event"
    },
    {
      "anonymous": false,
      "inputs": [
        {
          "indexed": true,
          "internalType": "uint256",
          "name": "refereeID",
          "type": "uint256"
        },
        {
          "indexed": true,
          "internalType": "uint256",
          "name": "referrerID",
          "type": "uint256"
        },
        {
          "indexed": true,
          "internalType": "uint256",
          "name": "amount",
          "type": "uint256"
        },
        {
          "indexed": false,
          "internalType": "uint256",
          "name": "level",
          "type": "uint256"
        }
      ],
      "name": "ReferralRewardPaid",
      "type": "event"
    },
    {
      "anonymous": false,
      "inputs": [
        {
          "indexed": true,
          "internalType": "address",
          "name": "refereeID",
          "type": "address"
        },
        {
          "indexed": true,
          "internalType": "address",
          "name": "referrerID",
          "type": "address"
        },
        {
          "indexed": true,
          "internalType": "string",
          "name": "reason",
          "type": "string"
        }
      ],
      "name": "RegisterRefererFailed",
      "type": "event"
    },
    {
      "anonymous": false,
      "inputs": [
        {
          "indexed": true,
          "internalType": "uint256",
          "name": "id",
          "type": "uint256"
        },
        {
          "indexed": true,
          "internalType": "uint256",
          "name": "refererID",
          "type": "uint256"
        }
      ],
      "name": "RegisteredReferer",
      "type": "event"
    },
    {
      "anonymous": false,
      "inputs": [
        {
          "indexed": true,
          "internalType": "address",
          "name": "parent",
          "type": "address"
        },
        {
          "indexed": false,
          "internalType": "uint256",
          "name": "parentAccountID",
          "type": "uint256"
        },
        {
          "indexed": true,
          "internalType": "uint256",
          "name": "referrerID",
          "type": "uint256"
        },
        {
          "indexed": true,
          "internalType": "uint256",
          "name": "refereeID",
          "type": "uint256"
        }
      ],
      "name": "RegisteredTeamAddress",
      "type": "event"
    },
    {
      "anonymous": false,
      "inputs": [
        {
          "indexed": true,
          "internalType": "address",
          "name": "userAddress",
          "type": "address"
        },
        {
          "indexed": true,
          "internalType": "string",
          "name": "lastRankName",
          "type": "string"
        }
      ],
      "name": "RemovedFromRoyaltyClubList",
      "type": "event"
    },
    {
      "anonymous": false,
      "inputs": [
        {
          "indexed": false,
          "internalType": "uint256",
          "name": "packageID",
          "type": "uint256"
        },
        {
          "indexed": true,
          "internalType": "uint256",
          "name": "userID",
          "type": "uint256"
        },
        {
          "indexed": true,
          "internalType": "uint256",
          "name": "amount",
          "type": "uint256"
        }
      ],
      "name": "RoyaltyClubBonusPaid",
      "type": "event"
    },
    {
      "anonymous": false,
      "inputs": [
        {
          "indexed": false,
          "internalType": "address",
          "name": "account",
          "type": "address"
        }
      ],
      "name": "Unpaused",
      "type": "event"
    },
    {
      "anonymous": false,
      "inputs": [
        {
          "indexed": true,
          "internalType": "address",
          "name": "implementation",
          "type": "address"
        }
      ],
      "name": "Upgraded",
      "type": "event"
    },
    {
      "inputs": [
        {
          "internalType": "uint24",
          "name": "_refererID",
          "type": "uint24"
        }
      ],
      "name": "activateID",
      "outputs": [],
      "stateMutability": "payable",
      "type": "function"
    },
    {
      "inputs": [
        {
          "internalType": "uint24",
          "name": "_id",
          "type": "uint24"
        },
        {
          "internalType": "uint256",
          "name": "_valueInUSD",
          "type": "uint256"
        }
      ],
      "name": "claimBalance",
      "outputs": [],
      "stateMutability": "nonpayable",
      "type": "function"
    },
    {
      "inputs": [
        {
          "internalType": "uint24",
          "name": "_id",
          "type": "uint24"
        }
      ],
      "name": "claimROI",
      "outputs": [],
      "stateMutability": "nonpayable",
      "type": "function"
    },
    {
      "inputs": [
        {
          "internalType": "address",
          "name": "_userAddress",
          "type": "address"
        }
      ],
      "name": "disableUserAdmin",
      "outputs": [],
      "stateMutability": "nonpayable",
      "type": "function"
    },
    {
      "inputs": [
        {
          "internalType": "uint8",
          "name": "_packageID",
          "type": "uint8"
        }
      ],
      "name": "getAchieversList",
      "outputs": [
        {
          "internalType": "uint24[]",
          "name": "",
          "type": "uint24[]"
        }
      ],
      "stateMutability": "view",
      "type": "function"
    },
    {
      "inputs": [],
      "name": "getDisabledUserList",
      "outputs": [
        {
          "internalType": "address[]",
          "name": "",
          "type": "address[]"
        }
      ],
      "stateMutability": "view",
      "type": "function"
    },
    {
      "inputs": [
        {
          "internalType": "uint256",
          "name": "_valueInWei",
          "type": "uint256"
        }
      ],
      "name": "getETHToUSD",
      "outputs": [
        {
          "internalType": "uint256",
          "name": "",
          "type": "uint256"
        }
      ],
      "stateMutability": "view",
      "type": "function"
    },
    {
      "inputs": [
        {
          "internalType": "uint24",
          "name": "_id",
          "type": "uint24"
        }
      ],
      "name": "getIDAccount",
      "outputs": [
        {
          "components": [
            {
              "internalType": "uint24",
              "name": "id",
              "type": "uint24"
            },
            {
              "internalType": "bool",
              "name": "isDisabled",
              "type": "bool"
            },
            {
              "internalType": "address",
              "name": "owner",
              "type": "address"
            },
            {
              "internalType": "uint256",
              "name": "activationTime",
              "type": "uint256"
            },
            {
              "internalType": "uint24[]",
              "name": "roiIDs",
              "type": "uint24[]"
            },
            {
              "internalType": "uint24",
              "name": "refererID",
              "type": "uint24"
            },
            {
              "internalType": "uint24[]",
              "name": "refereeIDs",
              "type": "uint24[]"
            },
            {
              "internalType": "uint24[]",
              "name": "teamIDs",
              "type": "uint24[]"
            },
            {
              "internalType": "uint256[]",
              "name": "selfBusinessUSDArray",
              "type": "uint256[]"
            },
            {
              "internalType": "uint256",
              "name": "selfBusinessUSD",
              "type": "uint256"
            },
            {
              "internalType": "uint256",
              "name": "directBusinessUSD",
              "type": "uint256"
            },
            {
              "internalType": "uint256",
              "name": "teamBusinessUSD",
              "type": "uint256"
            },
            {
              "internalType": "uint256",
              "name": "royaltyClubBusinessUSD",
              "type": "uint256"
            },
            {
              "internalType": "uint256",
              "name": "timeStampRoyaltyClub",
              "type": "uint256"
            },
            {
              "internalType": "uint8",
              "name": "royaltyClubPackageID",
              "type": "uint8"
            },
            {
              "internalType": "uint256",
              "name": "royaltyClubListIndex",
              "type": "uint256"
            },
            {
              "internalType": "uint256",
              "name": "referralPaidUSD",
              "type": "uint256"
            },
            {
              "internalType": "uint256",
              "name": "rewardPaidRoyaltyClubUSD",
              "type": "uint256"
            },
            {
              "internalType": "uint256",
              "name": "fundsToActivateIDUSD",
              "type": "uint256"
            },
            {
              "internalType": "uint256",
              "name": "balanceClaimedUSD",
              "type": "uint256"
            },
            {
              "internalType": "uint256",
              "name": "limitBalanceUSD",
              "type": "uint256"
            },
            {
              "internalType": "uint256",
              "name": "maxLimitAmount",
              "type": "uint256"
            },
            {
              "internalType": "uint256",
              "name": "roiClaimedUSD",
              "type": "uint256"
            },
            {
              "internalType": "uint256",
              "name": "roiClaimTimestamp",
              "type": "uint256"
            }
          ],
          "internalType": "struct ReferralV2Upgradeable.AccountInfo",
          "name": "",
          "type": "tuple"
        }
      ],
      "stateMutability": "view",
      "type": "function"
    },
    {
      "inputs": [
        {
          "internalType": "uint24",
          "name": "_id",
          "type": "uint24"
        }
      ],
      "name": "getIDClaimableBalance",
      "outputs": [
        {
          "internalType": "uint256",
          "name": "",
          "type": "uint256"
        }
      ],
      "stateMutability": "view",
      "type": "function"
    },
    {
      "inputs": [
        {
          "internalType": "uint24",
          "name": "_id",
          "type": "uint24"
        }
      ],
      "name": "getIDLimitBalance",
      "outputs": [
        {
          "internalType": "uint256",
          "name": "",
          "type": "uint256"
        }
      ],
      "stateMutability": "view",
      "type": "function"
    },
    {
      "inputs": [
        {
          "internalType": "uint24",
          "name": "_id",
          "type": "uint24"
        }
      ],
      "name": "getIDMaxLimit",
      "outputs": [
        {
          "internalType": "uint256",
          "name": "",
          "type": "uint256"
        }
      ],
      "stateMutability": "view",
      "type": "function"
    },
    {
      "inputs": [
        {
          "internalType": "uint24",
          "name": "_id",
          "type": "uint24"
        }
      ],
      "name": "getIDReferee",
      "outputs": [
        {
          "internalType": "uint24[]",
          "name": "referees",
          "type": "uint24[]"
        },
        {
          "internalType": "uint256",
          "name": "refereesCount",
          "type": "uint256"
        }
      ],
      "stateMutability": "view",
      "type": "function"
    },
    {
      "inputs": [
        {
          "internalType": "uint24",
          "name": "_id",
          "type": "uint24"
        }
      ],
      "name": "getIDReferrer",
      "outputs": [
        {
          "internalType": "uint256",
          "name": "",
          "type": "uint256"
        }
      ],
      "stateMutability": "view",
      "type": "function"
    },
    {
      "inputs": [
        {
          "internalType": "uint24",
          "name": "_id",
          "type": "uint24"
        }
      ],
      "name": "getIDRewardPaid",
      "outputs": [
        {
          "internalType": "uint256",
          "name": "referralUSD",
          "type": "uint256"
        },
        {
          "internalType": "uint256",
          "name": "roiUSD",
          "type": "uint256"
        },
        {
          "internalType": "uint256",
          "name": "royaltyUSD",
          "type": "uint256"
        },
        {
          "internalType": "uint256",
          "name": "totalRewardPaid",
          "type": "uint256"
        }
      ],
      "stateMutability": "view",
      "type": "function"
    },
    {
      "inputs": [
        {
          "internalType": "uint24",
          "name": "_id",
          "type": "uint24"
        }
      ],
      "name": "getIDRoyaltyClubLevel",
      "outputs": [
        {
          "internalType": "uint256",
          "name": "",
          "type": "uint256"
        }
      ],
      "stateMutability": "view",
      "type": "function"
    },
    {
      "inputs": [
        {
          "internalType": "uint24",
          "name": "_id",
          "type": "uint24"
        }
      ],
      "name": "getIDTeam",
      "outputs": [
        {
          "internalType": "uint24[]",
          "name": "team",
          "type": "uint24[]"
        },
        {
          "internalType": "uint256",
          "name": "teamCount",
          "type": "uint256"
        }
      ],
      "stateMutability": "view",
      "type": "function"
    },
    {
      "inputs": [
        {
          "internalType": "uint24",
          "name": "_id",
          "type": "uint24"
        }
      ],
      "name": "getIDTotalBusiness",
      "outputs": [
        {
          "internalType": "uint256[]",
          "name": "selfBusinessUSDArray",
          "type": "uint256[]"
        },
        {
          "internalType": "uint256",
          "name": "selfBusinessUSD",
          "type": "uint256"
        },
        {
          "internalType": "uint256",
          "name": "directBusinessUSD",
          "type": "uint256"
        },
        {
          "internalType": "uint256",
          "name": "teamBusinessUSD",
          "type": "uint256"
        }
      ],
      "stateMutability": "view",
      "type": "function"
    },
    {
      "inputs": [],
      "name": "getLevelDecimals",
      "outputs": [
        {
          "internalType": "uint256",
          "name": "",
          "type": "uint256"
        }
      ],
      "stateMutability": "view",
      "type": "function"
    },
    {
      "inputs": [],
      "name": "getLevelRates",
      "outputs": [
        {
          "internalType": "uint16[]",
          "name": "presale",
          "type": "uint16[]"
        },
        {
          "internalType": "uint256",
          "name": "totalRatePresale",
          "type": "uint256"
        }
      ],
      "stateMutability": "view",
      "type": "function"
    },
    {
      "inputs": [],
      "name": "getLevelsToCount",
      "outputs": [
        {
          "internalType": "uint256",
          "name": "",
          "type": "uint256"
        }
      ],
      "stateMutability": "view",
      "type": "function"
    },
    {
      "inputs": [],
      "name": "getPriceOracleContract",
      "outputs": [
        {
          "internalType": "address",
          "name": "",
          "type": "address"
        }
      ],
      "stateMutability": "view",
      "type": "function"
    },
    {
      "inputs": [],
      "name": "getRoyaltyClubPackageCount",
      "outputs": [
        {
          "internalType": "uint256",
          "name": "",
          "type": "uint256"
        }
      ],
      "stateMutability": "view",
      "type": "function"
    },
    {
      "inputs": [
        {
          "internalType": "uint8",
          "name": "_packageID",
          "type": "uint8"
        }
      ],
      "name": "getRoyaltyClubPackageInfo",
      "outputs": [
        {
          "components": [
            {
              "internalType": "uint8",
              "name": "packageID",
              "type": "uint8"
            },
            {
              "internalType": "uint256",
              "name": "selfBusinessUSD",
              "type": "uint256"
            },
            {
              "internalType": "uint256",
              "name": "directBusinessUSD",
              "type": "uint256"
            },
            {
              "internalType": "uint256",
              "name": "teamBusinessUSD",
              "type": "uint256"
            },
            {
              "internalType": "string",
              "name": "rankName",
              "type": "string"
            },
            {
              "internalType": "uint256",
              "name": "reward",
              "type": "uint256"
            },
            {
              "internalType": "uint256",
              "name": "businessLimit",
              "type": "uint256"
            },
            {
              "internalType": "uint256",
              "name": "timeLimit",
              "type": "uint256"
            },
            {
              "internalType": "bool",
              "name": "isPayReccursive",
              "type": "bool"
            },
            {
              "internalType": "uint24[]",
              "name": "achieversList",
              "type": "uint24[]"
            }
          ],
          "internalType": "struct ReferralV2Upgradeable.Packages",
          "name": "",
          "type": "tuple"
        }
      ],
      "stateMutability": "view",
      "type": "function"
    },
    {
      "inputs": [
        {
          "internalType": "uint256",
          "name": "_valueInUSD",
          "type": "uint256"
        }
      ],
      "name": "getUSDToETH",
      "outputs": [
        {
          "internalType": "uint256",
          "name": "",
          "type": "uint256"
        }
      ],
      "stateMutability": "view",
      "type": "function"
    },
    {
      "inputs": [
        {
          "internalType": "address",
          "name": "_address",
          "type": "address"
        }
      ],
      "name": "getUserAccount",
      "outputs": [
        {
          "components": [
            {
              "internalType": "bool",
              "name": "isDisabled",
              "type": "bool"
            },
            {
              "internalType": "uint24[]",
              "name": "accountInfoArray",
              "type": "uint24[]"
            }
          ],
          "internalType": "struct ReferralV2Upgradeable.Account",
          "name": "",
          "type": "tuple"
        }
      ],
      "stateMutability": "view",
      "type": "function"
    },
    {
      "inputs": [
        {
          "internalType": "uint24",
          "name": "_id",
          "type": "uint24"
        }
      ],
      "name": "getUserIDROI",
      "outputs": [
        {
          "internalType": "uint256",
          "name": "roi",
          "type": "uint256"
        }
      ],
      "stateMutability": "view",
      "type": "function"
    },
    {
      "inputs": [
        {
          "internalType": "uint24",
          "name": "_id",
          "type": "uint24"
        }
      ],
      "name": "getUserUnlockCount",
      "outputs": [
        {
          "internalType": "uint256",
          "name": "",
          "type": "uint256"
        }
      ],
      "stateMutability": "view",
      "type": "function"
    },
    {
      "inputs": [],
      "name": "initialize",
      "outputs": [],
      "stateMutability": "nonpayable",
      "type": "function"
    },
    {
      "inputs": [
        {
          "internalType": "address",
          "name": "_userAddress",
          "type": "address"
        }
      ],
      "name": "isUserDisabledByAdmin",
      "outputs": [
        {
          "internalType": "bool",
          "name": "",
          "type": "bool"
        }
      ],
      "stateMutability": "view",
      "type": "function"
    },
    {
      "inputs": [],
      "name": "owner",
      "outputs": [
        {
          "internalType": "address",
          "name": "",
          "type": "address"
        }
      ],
      "stateMutability": "view",
      "type": "function"
    },
    {
      "inputs": [],
      "name": "packagesCount",
      "outputs": [
        {
          "internalType": "uint256",
          "name": "",
          "type": "uint256"
        }
      ],
      "stateMutability": "view",
      "type": "function"
    },
    {
      "inputs": [],
      "name": "pause",
      "outputs": [],
      "stateMutability": "nonpayable",
      "type": "function"
    },
    {
      "inputs": [],
      "name": "paused",
      "outputs": [
        {
          "internalType": "bool",
          "name": "",
          "type": "bool"
        }
      ],
      "stateMutability": "view",
      "type": "function"
    },
    {
      "inputs": [],
      "name": "payRoyaltyClubReccursiveBonusAdmin",
      "outputs": [],
      "stateMutability": "nonpayable",
      "type": "function"
    },
    {
      "inputs": [],
      "name": "proxiableUUID",
      "outputs": [
        {
          "internalType": "bytes32",
          "name": "",
          "type": "bytes32"
        }
      ],
      "stateMutability": "view",
      "type": "function"
    },
    {
      "inputs": [
        {
          "internalType": "address",
          "name": "_userAddress",
          "type": "address"
        }
      ],
      "name": "removeUserFromDisableList",
      "outputs": [],
      "stateMutability": "nonpayable",
      "type": "function"
    },
    {
      "inputs": [],
      "name": "renounceOwnership",
      "outputs": [],
      "stateMutability": "nonpayable",
      "type": "function"
    },
    {
      "inputs": [
        {
          "internalType": "address",
          "name": "_address",
          "type": "address"
        },
        {
          "internalType": "uint256",
          "name": "_value",
          "type": "uint256"
        }
      ],
      "name": "sendETHAdmin",
      "outputs": [],
      "stateMutability": "nonpayable",
      "type": "function"
    },
    {
      "inputs": [
        {
          "internalType": "uint16",
          "name": "_value",
          "type": "uint16"
        }
      ],
      "name": "setLevelDecimals",
      "outputs": [],
      "stateMutability": "nonpayable",
      "type": "function"
    },
    {
      "inputs": [
        {
          "internalType": "uint8[]",
          "name": "_value",
          "type": "uint8[]"
        }
      ],
      "name": "setLevelRateReferral",
      "outputs": [],
      "stateMutability": "nonpayable",
      "type": "function"
    },
    {
      "inputs": [
        {
          "internalType": "uint8",
          "name": "_valueInDecimals",
          "type": "uint8"
        }
      ],
      "name": "setLevelsToCount",
      "outputs": [],
      "stateMutability": "nonpayable",
      "type": "function"
    },
    {
      "inputs": [
        {
          "internalType": "address",
          "name": "_contractAddress",
          "type": "address"
        }
      ],
      "name": "setPriceOracleContract",
      "outputs": [],
      "stateMutability": "nonpayable",
      "type": "function"
    },
    {
      "inputs": [
        {
          "internalType": "uint8",
          "name": "packageID",
          "type": "uint8"
        },
        {
          "internalType": "uint256",
          "name": "selfBusinessUSD",
          "type": "uint256"
        },
        {
          "internalType": "uint256",
          "name": "directBusinessUSD",
          "type": "uint256"
        },
        {
          "internalType": "uint256",
          "name": "teamBusinessUSD",
          "type": "uint256"
        },
        {
          "internalType": "string",
          "name": "rankName",
          "type": "string"
        },
        {
          "internalType": "uint256",
          "name": "reward",
          "type": "uint256"
        },
        {
          "internalType": "uint256",
          "name": "businessLimit",
          "type": "uint256"
        },
        {
          "internalType": "uint256",
          "name": "timeLimit",
          "type": "uint256"
        },
        {
          "internalType": "bool",
          "name": "isPayReccursive",
          "type": "bool"
        }
      ],
      "name": "setRoyaltyClubPackage",
      "outputs": [],
      "stateMutability": "nonpayable",
      "type": "function"
    },
    {
      "inputs": [
        {
          "internalType": "uint256",
          "name": "_valueInDecimals",
          "type": "uint256"
        }
      ],
      "name": "setRoyaltyPackageCount",
      "outputs": [],
      "stateMutability": "nonpayable",
      "type": "function"
    },
    {
      "inputs": [
        {
          "internalType": "uint24",
          "name": "_id",
          "type": "uint24"
        }
      ],
      "name": "topUpID",
      "outputs": [],
      "stateMutability": "payable",
      "type": "function"
    },
    {
      "inputs": [
        {
          "internalType": "address",
          "name": "newOwner",
          "type": "address"
        }
      ],
      "name": "transferOwnership",
      "outputs": [],
      "stateMutability": "nonpayable",
      "type": "function"
    },
    {
      "inputs": [],
      "name": "unpause",
      "outputs": [],
      "stateMutability": "nonpayable",
      "type": "function"
    },
    {
      "inputs": [
        {
          "internalType": "address",
          "name": "newImplementation",
          "type": "address"
        }
      ],
      "name": "upgradeTo",
      "outputs": [],
      "stateMutability": "nonpayable",
      "type": "function"
    },
    {
      "inputs": [
        {
          "internalType": "address",
          "name": "newImplementation",
          "type": "address"
        },
        {
          "internalType": "bytes",
          "name": "data",
          "type": "bytes"
        }
      ],
      "name": "upgradeToAndCall",
      "outputs": [],
      "stateMutability": "payable",
      "type": "function"
    },
    {
      "inputs": [],
      "name": "withdrawETHAdmin",
      "outputs": [],
      "stateMutability": "nonpayable",
      "type": "function"
    },
    {
      "inputs": [
        {
          "internalType": "address",
          "name": "_tokenAddress",
          "type": "address"
        },
        {
          "internalType": "uint256",
          "name": "_value",
          "type": "uint256"
        }
      ],
      "name": "withdrawTokensAdmin",
      "outputs": [],
      "stateMutability": "nonpayable",
      "type": "function"
    },
    {
      "stateMutability": "payable",
      "type": "receive"
    }
  ],
  "bytecode": "0x60a06040523060805234801561001457600080fd5b5060805161592c6200004d60003960008181610cee01528181610d2e015281816110a2015281816110e20152611175015261592c6000f3fe6080604052600436106102e85760003560e01c8063801e769211610190578063aa7df4f2116100dc578063e72719ee11610095578063f2fde38b1161006f578063f2fde38b1461092f578063fb47e0161461094f578063fcd9d9441461097c578063fd3002be146109a957600080fd5b8063e72719ee146108e3578063e7cca9c714610903578063e932c95b1461091c57600080fd5b8063aa7df4f2146107f8578063b11775cf1461080d578063b496b88e1461082d578063bbbfa1141461084d578063bcc7c80814610883578063e52356f3146108c357600080fd5b8063906a9c26116101495780639f4e8398116101235780639f4e83981461075f578063a0b6105f1461077f578063a2ef47811461079f578063a43ae408146107d857600080fd5b8063906a9c26146106fc578063918a54db1461071c5780639404df681461073f57600080fd5b8063801e7692146106305780638129fc1c1461065e578063818ee9df146106735780638456cb59146106935780638da5cb5b146106a85780638eed3f16146106c657600080fd5b8063412039fd1161024f578063538ffe0c1161020857806366da13c6116101e257806366da13c6146105b8578063715018a6146105d857806376dd857d146105ed5780637bdbf9961461060357600080fd5b8063538ffe0c146105365780635c975abb1461058057806365da1e9e1461059857600080fd5b8063412039fd1461048057806344aa434c146104a05780634a750822146104d05780634f1ef286146104f0578063521d6a981461050357806352d1902d1461052157600080fd5b80632b29ed2d116102a15780632b29ed2d146103e3578063356f0c62146103f657806335759788146104165780633659cfe61461042b5780633cd0a32d1461044b5780633f4ba83a1461046b57600080fd5b8063012da720146102f45780630b243dad1461032a5780630efdbb6a1461034c57806318e10bff1461036c5780632422fe3e146103915780632913497b146103b157600080fd5b366102ef57005b600080fd5b34801561030057600080fd5b5061031461030f366004614d09565b6109cb565b6040516103219190614d64565b60405180910390f35b34801561033657600080fd5b5061034a610345366004614d8e565b610a5f565b005b34801561035857600080fd5b5061034a610367366004614db8565b610aa2565b34801561037857600080fd5b506103836101095481565b604051908152602001610321565b34801561039d57600080fd5b5061034a6103ac366004614d09565b610acc565b3480156103bd57600080fd5b5060fb546001600160a01b03165b6040516001600160a01b039091168152602001610321565b61034a6103f1366004614de6565b610af2565b34801561040257600080fd5b50610383610411366004614de6565b610c49565b34801561042257600080fd5b5061034a610cad565b34801561043757600080fd5b5061034a610446366004614db8565b610ce4565b34801561045757600080fd5b5061034a610466366004614e01565b610dc0565b34801561047757600080fd5b5061034a610f34565b34801561048c57600080fd5b5061034a61049b366004614e1d565b610f46565b3480156104ac57600080fd5b506104c06104bb366004614de6565b610f5a565b6040516103219493929190614e92565b3480156104dc57600080fd5b5061034a6104eb366004614f8e565b610fe7565b61034a6104fe36600461503b565b611098565b34801561050f57600080fd5b5060fd5462010000900460ff16610383565b34801561052d57600080fd5b50610383611168565b34801561054257600080fd5b50610570610551366004614db8565b6001600160a01b0316600090815261010a602052604090205460ff1690565b6040519015158152602001610321565b34801561058c57600080fd5b5060335460ff16610570565b3480156105a457600080fd5b5061034a6105b336600461509d565b61121b565b3480156105c457600080fd5b506103836105d336600461509d565b611229565b3480156105e457600080fd5b5061034a61123a565b3480156105f957600080fd5b5061010954610383565b34801561060f57600080fd5b5061062361061e366004614d09565b61124c565b6040516103219190615106565b34801561063c57600080fd5b5061065061064b366004614de6565b61144a565b6040516103219291906151b4565b34801561066a57600080fd5b5061034a6114e8565b34801561067f57600080fd5b5061065061068e366004614de6565b611799565b34801561069f57600080fd5b5061034a611811565b3480156106b457600080fd5b506065546001600160a01b03166103cb565b3480156106d257600080fd5b506103836106e1366004614de6565b62ffffff16600090815261010b602052604090206012015490565b34801561070857600080fd5b50610383610717366004614de6565b611821565b34801561072857600080fd5b50610731611835565b6040516103219291906151d6565b34801561074b57600080fd5b5061038361075a366004614de6565b61190c565b34801561076b57600080fd5b5061034a61077a366004614db8565b611c08565b34801561078b57600080fd5b5061034a61079a366004614d8e565b611c79565b3480156107ab57600080fd5b506103836107ba366004614de6565b62ffffff908116600090815261010b60205260409020600301541690565b3480156107e457600080fd5b5061034a6107f3366004615222565b611cf2565b34801561080457600080fd5b5061034a611d12565b34801561081957600080fd5b5061034a610828366004614de6565b612072565b34801561083957600080fd5b5061038361084836600461509d565b612091565b34801561085957600080fd5b50610383610868366004614de6565b62ffffff16600090815261010b602052604090206013015490565b34801561088f57600080fd5b506108a361089e366004614de6565b61209c565b604080519485526020850193909352918301526060820152608001610321565b3480156108cf57600080fd5b5061034a6108de366004614db8565b6120e3565b3480156108ef57600080fd5b506103836108fe366004614de6565b612212565b34801561090f57600080fd5b5060fd5461ffff16610383565b61034a61092a366004614de6565b612514565b34801561093b57600080fd5b5061034a61094a366004614db8565b612629565b34801561095b57600080fd5b5061096f61096a366004614db8565b61269f565b6040516103219190615246565b34801561098857600080fd5b5061099c610997366004614de6565b612743565b604051610321919061529d565b3480156109b557600080fd5b506109be612afd565b604051610321919061544c565b60ff8116600090815261010d6020908152604091829020600901805483518184028101840190945280845260609392830182828015610a5357602002820191906000526020600020906000905b82829054906101000a900462ffffff1662ffffff1681526020019060030190602082600201049283019260010382029150808411610a185790505b50505050509050919050565b610a67612b60565b6040516001600160a01b0383169082156108fc029083906000818181858888f19350505050158015610a9d573d6000803e3d6000fd5b505050565b610aaa612b60565b60fb80546001600160a01b0319166001600160a01b0392909216919091179055565b610ad4612b60565b60fd805460ff909216620100000262ff000019909216919091179055565b610afa612bba565b346000610b0682612c00565b9050610b1360fe54612c97565b821015610b675760405162461bcd60e51b815260206004820152601f60248201527f56616c75652073686f756c6420626520677265617465207468656e203130300060448201526064015b60405180910390fd5b6101015433904290600090610b89906301000000900462ffffff1660016154af565b61010154909150600090610baa90600160301b900462ffffff1660016154af565b6001600160a01b038516600090815261010a60205260409020909150610bd08389612d23565b610bda8389612db8565b6101045460ff1615610bf257610bf283838887612eb1565b610c00838984888a8961301c565b600190810180549182018155600090815260209020600a8083049091018054919092066003026101000a62ffffff81810219909216949091160292909217909155505050505050565b62ffffff8116600090815261010b6020526040812081610c688461345a565b90508160130154818360120154610c7f91906154d2565b11610c8c57809250610ca6565b600082601201548360130154610ca291906154e5565b9350505b5050919050565b610cb5612b60565b60405133904780156108fc02916000818181858888f19350505050158015610ce1573d6000803e3d6000fd5b50565b6001600160a01b037f0000000000000000000000000000000000000000000000000000000000000000163003610d2c5760405162461bcd60e51b8152600401610b5e906154f8565b7f00000000000000000000000000000000000000000000000000000000000000006001600160a01b0316610d75600080516020615890833981519152546001600160a01b031690565b6001600160a01b031614610d9b5760405162461bcd60e51b8152600401610b5e90615544565b610da481613547565b60408051600080825260208201909252610ce19183919061354f565b62ffffff8216600090815261010b6020526040902080546301000000900460ff1615610e215760405162461bcd60e51b815260206004820152601060248201526f4944206973206e6f742061637469766560801b6044820152606401610b5e565b8054600160201b90046001600160a01b03163314610e515760405162461bcd60e51b8152600401610b5e90615590565b6000610e5c826136ba565b6011830154909150610e6e81836154e5565b841115610ed05760405162461bcd60e51b815260206004820152602a60248201527f506c6561736520656e7465722076616c7565206c657373207468656e20796f7560448201526939103130b630b731b29760b11b6064820152608401610b5e565b83836011016000828254610ee491906154d2565b9091555050604051339085156108fc029086906000818181858888f19350505050158015610f16573d6000803e3d6000fd5b50610f20836136de565b610f2d57610f2d836136ff565b5050505050565b610f3c612b60565b610f44613739565b565b610f4e612b60565b610a9d60fc8383614b31565b62ffffff8116600090815261010b6020908152604080832060068101805483518186028101860190945280845260609594859485949390929091830182828015610fc357602002820191906000526020600020905b815481526020019060010190808311610faf575b50505050509450806007015493508060080154925080600901549150509193509193565b610fef612b60565b60ff8916600081815261010d60205260409020805460ff19169091178155600181018990556002810188905560038101879055600481016110308782615649565b5060058101859055600681018490556007810183905560088101805460ff191683151517905560405160ff8b1681527fa24b8cf512af3c40223886405905578154323d4ba0d3802ec5756b9684ce1b799060200160405180910390a150505050505050505050565b6001600160a01b037f00000000000000000000000000000000000000000000000000000000000000001630036110e05760405162461bcd60e51b8152600401610b5e906154f8565b7f00000000000000000000000000000000000000000000000000000000000000006001600160a01b0316611129600080516020615890833981519152546001600160a01b031690565b6001600160a01b03161461114f5760405162461bcd60e51b8152600401610b5e90615544565b61115882613547565b6111648282600161354f565b5050565b6000306001600160a01b037f000000000000000000000000000000000000000000000000000000000000000016146112085760405162461bcd60e51b815260206004820152603860248201527f555550535570677261646561626c653a206d757374206e6f742062652063616c60448201527f6c6564207468726f7567682064656c656761746563616c6c00000000000000006064820152608401610b5e565b5060008051602061589083398151915290565b611223612b60565b61010955565b600061123482612c00565b92915050565b611242612b60565b610f44600061378b565b6112a7604051806101400160405280600060ff16815260200160008152602001600081526020016000815260200160608152602001600081526020016000815260200160008152602001600015158152602001606081525090565b60ff808316600090815261010d60209081526040918290208251610140810184528154909416845260018101549184019190915260028101549183019190915260038101546060830152600481018054608084019190611306906155c7565b80601f0160208091040260200160405190810160405280929190818152602001828054611332906155c7565b801561137f5780601f106113545761010080835404028352916020019161137f565b820191906000526020600020905b81548152906001019060200180831161136257829003601f168201915b505050505081526020016005820154815260200160068201548152602001600782015481526020016008820160009054906101000a900460ff161515151581526020016009820180548060200260200160405190810160405280929190818152602001828054801561143a57602002820191906000526020600020906000905b82829054906101000a900462ffffff1662ffffff16815260200190600301906020826002010492830192600103820291508084116113ff5790505b5050505050815250509050919050565b62ffffff8116600090815261010b60209081526040808320600481018054835181860281018601909452808452606095949293928301828280156114d757602002820191906000526020600020906000905b82829054906101000a900462ffffff1662ffffff168152602001906003019060208260020104928301926001038202915080841161149c5790505b505050505092508251915050915091565b600054610100900460ff16158080156115085750600054600160ff909116105b806115225750303b158015611522575060005460ff166001145b6115855760405162461bcd60e51b815260206004820152602e60248201527f496e697469616c697a61626c653a20636f6e747261637420697320616c72656160448201526d191e481a5b9a5d1a585b1a5e995960921b6064820152608401610b5e565b6000805460ff1916600117905580156115a8576000805461ff0019166101001790555b60fb80546001600160a01b0319167326a9dd00ba9f050f3243a906a13c805784bed67f17905560fd805461ffff19166103e8179055604080516103a08101825260648152604660208201526032918101829052606081018290526080810182905260a0810182905260c0810182905260e08101829052610100810182905261012081018290526101408101829052610160810182905261018081018290526101a081018290526101c081018290526101e08101829052610200810182905261022081018290526102408101919091526014610260820181905261028082018190526102a082018190526102c082018190526102e0820181905261030082018190526103208201819052610340820181905261036082018190526103808201526116d59060fc90601d614bdc565b5060fd805462ff0000191662320000179055670de0b6b3a764000060fe55610104805463ff00ffff1916630200010117905561010180546affff0000000000000000001916607d604b1b17905563020f58006101025560146101035562278d00610107556117416137dd565b61174961380c565b61175161383b565b8015610ce1576000805461ff0019169055604051600181527f7f26b83ff96e1f2b6a682f133852f6798a09c465da95921460cefb38474024989060200160405180910390a150565b62ffffff8116600090815261010b60209081526040808320600581018054835181860281018601909452808452606095949293928301828280156114d7576000918252602091829020805462ffffff16845290820283019290916003910180841161149c579050505050505092508251915050915091565b611819612b60565b610f44613862565b600061182c8261389f565b60ff1692915050565b6060600060fc8054806020026020016040519081016040528092919081815260200182805480156118ad57602002820191906000526020600020906000905b82829054906101000a900461ffff1661ffff16815260200190600201906020826001010492830192600103820291508084116118745790505b505083519395506000925050505b818160ff16101561190657838160ff16815181106118db576118db615709565b602002602001015161ffff16836118f291906154d2565b9250806118fe8161571f565b9150506118bb565b50509091565b62ffffff818116600090815261010b60209081526040808320815161030081018352815495861681526301000000860460ff16151581850152600160201b9095046001600160a01b0316858301526001810154606086015260028101805483518186028101860190945280845294958695909492936080860193909291908301828280156119e357602002820191906000526020600020906000905b82829054906101000a900462ffffff1662ffffff16815260200190600301906020826002010492830192600103820291508084116119a85790505b5050509183525050600382015462ffffff166020808301919091526004830180546040805182850281018501825282815294019392830182828015611a7157602002820191906000526020600020906000905b82829054906101000a900462ffffff1662ffffff1681526020019060030190602082600201049283019260010382029150808411611a365790505b5050505050815260200160058201805480602002602001604051908101604052809291908181526020018280548015611af357602002820191906000526020600020906000905b82829054906101000a900462ffffff1662ffffff1681526020019060030190602082600201049283019260010382029150808411611ab85790505b5050505050815260200160068201805480602002602001604051908101604052809291908181526020018280548015611b4b57602002820191906000526020600020905b815481526020019060010190808311611b37575b5050509183525050600782015460208201526008820154604082015260098201546060820152600a8201546080820152600b82015460a0820152600c82015460ff1660c0820152600d82015460e0820152600e820154610100820152600f82015461012082015260108201546101408201526011820154610160820152601282015461018082015260138201546101a082015260148201546101c08201526015909101546101e0909101529050611c0181613c2f565b9392505050565b611c10612b60565b610108805460018181019092557f8543e9adbfbe1f62b7411fdf032fcfea758a7d6b332f64d971a1334c2ff364dd0180546001600160a01b039093166001600160a01b031990931683179055600091825261010a6020526040909120805460ff19169091179055565b611c81612b60565b60405163a9059cbb60e01b8152336004820152602481018290526001600160a01b0383169063a9059cbb906044016020604051808303816000875af1158015611cce573d6000803e3d6000fd5b505050506040513d601f19601f82011682018060405250810190610a9d919061573e565b611cfa612b60565b60fd805461ffff191661ffff92909216919091179055565b611d1a612b60565b61010954600080805261010b6020526000805160206158d7833981519152905b828160ff1610156120625760ff808216600090815261010d602090815260408083208151610140810183528154909516855260018101549285019290925260028201549084015260038101546060840152600481018054929392608084019190611da3906155c7565b80601f0160208091040260200160405190810160405280929190818152602001828054611dcf906155c7565b8015611e1c5780601f10611df157610100808354040283529160200191611e1c565b820191906000526020600020905b815481529060010190602001808311611dff57829003601f168201915b505050505081526020016005820154815260200160068201548152602001600782015481526020016008820160009054906101000a900460ff1615151515815260200160098201805480602002602001604051908101604052809291908181526020018280548015611ed757602002820191906000526020600020906000905b82829054906101000a900462ffffff1662ffffff1681526020019060030190602082600201049283019260010382029150808411611e9c5790505b5050505050815250509050806101000151611ef25750612050565b610120810151805160fd5460a084015161010554600092849261ffff90911691611f1c919061575b565b611f269190615772565b611f309190615772565b905060005b8281101561204a57600061010b6000868481518110611f5657611f56615709565b602002602001015162ffffff1662ffffff16815260200190815260200160002090508560c0015181600a0154118015611f9757508060130154816012015411155b156120375782816012016000828254611fb091906154d2565b925050819055508288600e016000828254611fcb91906154d2565b9250508190555082858381518110611fe557611fe5615709565b602002602001015162ffffff167f94b6d3d19cc40938e685ef6a1f6476b53ef65295ab094a044e74405a8d0bd05b886000015160405161202e919060ff91909116815260200190565b60405180910390a35b508061204281615794565b915050611f35565b50505050505b8061205a8161571f565b915050611d3a565b5050600061010555504261010655565b61207a612bba565b600061208582613c6c565b90506111648183613fd0565b600061123482612c97565b62ffffff8116600090815261010b60205260408120600e8101546014820154600f83015491939092826120cf85876154d2565b6120d991906154d2565b9150509193509193565b6120eb612b60565b6001600160a01b038116600090815261010a60205260408120805460ff1916905561010854905b81811015610a9d57826001600160a01b0316610108828154811061213857612138615709565b6000918252602090912001546001600160a01b031603612200576101086121606001846154e5565b8154811061217057612170615709565b60009182526020909120015461010880546001600160a01b03909216918390811061219d5761219d615709565b9060005260206000200160006101000a8154816001600160a01b0302191690836001600160a01b031602179055506101088054806121dd576121dd6157ad565b600082815260209020810160001990810180546001600160a01b03191690550190555b8061220a81615794565b915050612112565b62ffffff818116600090815261010b60209081526040808320815161030081018352815495861681526301000000860460ff16151581850152600160201b9095046001600160a01b0316858301526001810154606086015260028101805483518186028101860190945280845294958695909492936080860193909291908301828280156122e957602002820191906000526020600020906000905b82829054906101000a900462ffffff1662ffffff16815260200190600301906020826002010492830192600103820291508084116122ae5790505b5050509183525050600382015462ffffff16602080830191909152600483018054604080518285028101850182528281529401939283018282801561237757602002820191906000526020600020906000905b82829054906101000a900462ffffff1662ffffff168152602001906003019060208260020104928301926001038202915080841161233c5790505b50505050508152602001600582018054806020026020016040519081016040528092919081815260200182805480156123f957602002820191906000526020600020906000905b82829054906101000a900462ffffff1662ffffff16815260200190600301906020826002010492830192600103820291508084116123be5790505b505050505081526020016006820180548060200260200160405190810160405280929190818152602001828054801561245157602002820191906000526020600020905b81548152602001906001019080831161243d575b5050509183525050600782015460208201526008820154604082015260098201546060820152600a8201546080820152600b82015460a0820152600c82015460ff1660c0820152600d82015460e0820152600e820154610100820152600f82015461012082015260108201546101408201526011820154610160820152601282015461018082015260138201546101a082015260148201546101c08201526015909101546101e090910152610260810151610280820151919250611c01916154e5565b61251c612bba565b60fe54349061252a90612c97565b81101561258d5760405162461bcd60e51b815260206004820152602b60248201527f56616c75652073686f756c6420626520677265617465207468656e206d696e4360448201526a37b73a3934b13aba34b7b760a91b6064820152608401610b5e565b33600061259983612c00565b6101015490915042906000906125bc90600160301b900462ffffff1660016154af565b62ffffff8716600090815261010b602052604090208054919250906001600160a01b03868116600160201b90920416146126085760405162461bcd60e51b8152600401610b5e90615590565b6101045460ff16156126205761262087838686612eb1565b50505050505050565b612631612b60565b6001600160a01b0381166126965760405162461bcd60e51b815260206004820152602660248201527f4f776e61626c653a206e6577206f776e657220697320746865207a65726f206160448201526564647265737360d01b6064820152608401610b5e565b610ce18161378b565b6040805180820190915260008152606060208201526001600160a01b038216600090815261010a602090815260409182902082518084018452815460ff16151581526001820180548551818602810186019096528086529194929385810193929083018282801561143a576000918252602091829020805462ffffff1684529082028301929091600391018084116113ff5790505050505050815250509050919050565b612813604051806103000160405280600062ffffff16815260200160001515815260200160006001600160a01b031681526020016000815260200160608152602001600062ffffff1681526020016060815260200160608152602001606081526020016000815260200160008152602001600081526020016000815260200160008152602001600060ff1681526020016000815260200160008152602001600081526020016000815260200160008152602001600081526020016000815260200160008152602001600081525090565b62ffffff828116600090815261010b6020908152604091829020825161030081018452815494851681526301000000850460ff16151581840152600160201b9094046001600160a01b03168484015260018101546060850152600281018054845181850281018501909552808552919360808601939092908301828280156128e457602002820191906000526020600020906000905b82829054906101000a900462ffffff1662ffffff16815260200190600301906020826002010492830192600103820291508084116128a95790505b5050509183525050600382015462ffffff16602080830191909152600483018054604080518285028101850182528281529401939283018282801561297257602002820191906000526020600020906000905b82829054906101000a900462ffffff1662ffffff16815260200190600301906020826002010492830192600103820291508084116129375790505b50505050508152602001600582018054806020026020016040519081016040528092919081815260200182805480156129f457602002820191906000526020600020906000905b82829054906101000a900462ffffff1662ffffff16815260200190600301906020826002010492830192600103820291508084116129b95790505b5050505050815260200160068201805480602002602001604051908101604052809291908181526020018280548015612a4c57602002820191906000526020600020905b815481526020019060010190808311612a38575b5050509183525050600782015460208201526008820154604082015260098201546060820152600a8201546080820152600b82015460a0820152600c82015460ff1660c0820152600d82015460e0820152600e820154610100820152600f82015461012082015260108201546101408201526011820154610160820152601282015461018082015260138201546101a082015260148201546101c08201526015909101546101e09091015292915050565b6060610108805480602002602001604051908101604052809291908181526020018280548015612b5657602002820191906000526020600020905b81546001600160a01b03168152600190910190602001808311612b38575b5050505050905090565b6065546001600160a01b03163314610f445760405162461bcd60e51b815260206004820181905260248201527f4f776e61626c653a2063616c6c6572206973206e6f7420746865206f776e65726044820152606401610b5e565b60335460ff1615610f445760405162461bcd60e51b815260206004820152601060248201526f14185d5cd8589b194e881c185d5cd95960821b6044820152606401610b5e565b600080670de0b6b3a764000060fb60009054906101000a90046001600160a01b03166001600160a01b031663e1aa60366040518163ffffffff1660e01b8152600401602060405180830381865afa158015612c5f573d6000803e3d6000fd5b505050506040513d601f19601f82011682018060405250810190612c8391906157c3565b612c8d908561575b565b611c019190615772565b60008060fb60009054906101000a90046001600160a01b03166001600160a01b031663e1aa60366040518163ffffffff1660e01b8152600401602060405180830381865afa158015612ced573d6000803e3d6000fd5b505050506040513d601f19601f82011682018060405250810190612d1191906157c3565b612c8d84670de0b6b3a764000061575b565b62ffffff808316600081815261010b602090815260408083206003908101805487891662ffffff1990911681179091558085528285206004018054600181018255908652938520600a8086049091018054919095069092026101000a80870297021990911695909517909155517f9d714438ba618019cc2b8621dcd2550337e162be58654470ea30d48479fe83209190a35050565b60fd5462010000900460ff1660005b81811015612eab5762ffffff8316600090815261010b602052604090208054600160201b90046001600160a01b0316612e005750612eab565b6005810180546001810182556000918252602091829020600a8083049091018054919092066003026101000a62ffffff818102199092168983169182021790925583546040518183168152929391881692600160201b9091046001600160a01b0316917fa7fafc728ec30e34dc1e1276496bf3eb44ca7494679da969455289e6a8f0f1f6910160405180910390a46003015462ffffff16925080612ea381615794565b915050612dc7565b50505050565b62ffffff838116600081815261010c6020908152604080832089861680855261010b84529184208154600163ffffffff1990911661010094850217811783558083018a9055610101805460028086018054600160481b90930461ffff1661ffff199093169290921790915560038086018c905561010254600487015590840180548085018255908952968820600a8089049091018054988290068302880a808d0219909916988b02989098179097557f053a497187f043e06d3c7bcdaec804489d8611080d89254a48d3f6b783c2c9ee805493840181559097527f30d218428643627c21be562852f8f749f76ffe539cdbb13f901fa200779b54708683040180549690920690960290930a8088021990941693909502929092179055815490936000805160206158d783398151915292600160301b90920416906006612ff6836157dc565b91906101000a81548162ffffff021916908362ffffff1602179055505050505050505050565b60fd5462ffffff878116600081815261010b6020908152604082208054640100000000600160c01b031916600160201b6001600160a01b038b16021781556003808201805462ffffff199081168e891617909155600280840180546001818101835591885295909620600a8087049091018054919096069093026101000a80890219909316978d169290920296909617909255918201869055815490931690911781556201000090920460ff1691906130d690859061575b565b8160130181905550838160070160008282546130f291906154d2565b9091555050600681018054600181018255600091825260208220018590555b8260ff168160ff16101561341557600382015462ffffff16600081815261010b602052604090208054600160201b90046001600160a01b0316613155575050613415565b8260ff1660000361317a578681600801600082825461317491906154d2565b90915550505b8681600901600082825461318e91906154d2565b9091555050600c81015460ff166131a48361389f565b60ff1611156133bd576131b68261389f565b600c8201805460ff191660ff9283169081178255600090815261010d602090815260408083206009908101805460018181018355918652938520600a8086049091018054919095066003026101000a62ffffff81810219909216918b16021790935593549094168252929020015461322e91906154e5565b600d8201819055600c8201546040805162ffffff86168152602081019390935260ff90911682820152517fb0d3a9c683344e744a1ae3db383f75a8a01851282c5fe97d6159c1392a2e2a0a9181900360600190a161010d60006132908461389f565b60ff908116825260208201929092526040016000206008015416156133275761010d60006132bd8461389f565b60ff1660ff1681526020019081526020016000206007015481600b01546132e491906154d2565b421115613313574281600b01819055508681600a01600082825461330891906154d2565b909155506133bd9050565b8681600a01600082825461330891906154d2565b61010454610100900460ff16156133bd57600c81015460ff16600090815261010d602052604090206005015461335e90829061462c565b600c81015460ff908116600090815261010d602090815260409182902060058101549054925192909316825262ffffff8516917f94b6d3d19cc40938e685ef6a1f6476b53ef65295ab094a044e74405a8d0bd05b910160405180910390a35b61010754610106546133cf91906154d2565b4211156133e65742610106556101058790556133ff565b8661010560008282546133f991906154d2565b90915550505b925081905061340d8161571f565b915050613111565b5061010180546301000000900462ffffff16906003613433836157dc565b91906101000a81548162ffffff021916908362ffffff160217905550505050505050505050565b62ffffff8116600090815261010b60209081526040808320600201805482518185028101850190935280835284938301828280156134e157602002820191906000526020600020906000905b82829054906101000a900462ffffff1662ffffff16815260200190600301906020826002010492830192600103820291508084116134a65790505b505083519394506000925050505b818161ffff16101561353f57613521838261ffff168151811061351457613514615709565b6020026020010151614664565b61352b90856154d2565b935080613537816157fe565b9150506134ef565b505050919050565b610ce1612b60565b7f4910fdfa16fed3260ed0e7147f7cc6da11a60208b5b9406d12a635614ffd91435460ff161561358257610a9d8361471c565b826001600160a01b03166352d1902d6040518163ffffffff1660e01b8152600401602060405180830381865afa9250505080156135dc575060408051601f3d908101601f191682019092526135d9918101906157c3565b60015b61363f5760405162461bcd60e51b815260206004820152602e60248201527f45524331393637557067726164653a206e657720696d706c656d656e7461746960448201526d6f6e206973206e6f74205555505360901b6064820152608401610b5e565b60008051602061589083398151915281146136ae5760405162461bcd60e51b815260206004820152602960248201527f45524331393637557067726164653a20756e737570706f727465642070726f786044820152681a58589b195555525160ba1b6064820152608401610b5e565b50610a9d8383836147b8565b60008160130154826012015410156136d6578160120154611234565b506013015490565b60008160130154826012015410156136f7576001611234565b600092915050565b805463ff00000019166301000000178155604080516000815260208101918290525161372f916002840191614c44565b50610ce1816147dd565b6137416148e3565b6033805460ff191690557f5db9ee0a495bf2e6ff9c91a7834c1ba4fdd244a5e8aa4e537bd38aeae4b073aa335b6040516001600160a01b03909116815260200160405180910390a1565b606580546001600160a01b038381166001600160a01b0319831681179093556040519116919082907f8be0079c531659141344cd1fd0a4f28419497f9722a3daafe3b4186f6b6457e090600090a35050565b600054610100900460ff166138045760405162461bcd60e51b8152600401610b5e90615815565b610f4461492c565b600054610100900460ff166138335760405162461bcd60e51b8152600401610b5e90615815565b610f4461495f565b600054610100900460ff16610f445760405162461bcd60e51b8152600401610b5e90615815565b61386a612bba565b6033805460ff191660011790557f62e78cea01bee320cd4e420270b5ea74000d11b0c9f74754ebdbfc544b05a25861376e3390565b62ffffff818116600090815261010b60209081526040808320815161030081018352815495861681526301000000860460ff16151581850152600160201b9095046001600160a01b03168583015260018101546060860152600281018054835181860281018601909452808452949586959094929360808601939092919083018282801561397657602002820191906000526020600020906000905b82829054906101000a900462ffffff1662ffffff168152602001906003019060208260020104928301926001038202915080841161393b5790505b5050509183525050600382015462ffffff166020808301919091526004830180546040805182850281018501825282815294019392830182828015613a0457602002820191906000526020600020906000905b82829054906101000a900462ffffff1662ffffff16815260200190600301906020826002010492830192600103820291508084116139c95790505b5050505050815260200160058201805480602002602001604051908101604052809291908181526020018280548015613a8657602002820191906000526020600020906000905b82829054906101000a900462ffffff1662ffffff1681526020019060030190602082600201049283019260010382029150808411613a4b5790505b5050505050815260200160068201805480602002602001604051908101604052809291908181526020018280548015613ade57602002820191906000526020600020905b815481526020019060010190808311613aca575b5050509183525050600782015460208201526008820154604082015260098201546060820152600a8201546080820152600b82015460a0820152600c82015460ff1660c0820152600d82015460e0820152600e820154610100820152600f82015461012082015260108201546101408201526011820154610160820152601282015461018082015260138201546101a082015260148201546101c08201526015909101546101e0909101526101095490915060005b818160ff16101561353f5760ff8116600090815261010d602052604090206001015461012084015110801590613be4575060ff8116600090815261010d602052604090206002015461014084015110155b8015613c0b575060ff8116600090815261010d602052604090206003015461016084015110155b15613c1857809350613c1d565b61353f565b80613c278161571f565b915050613b93565b60c081015151600090818115611c015761010454600190613c5a906301000000900460ff168461575b565b613c6491906154e5565b949350505050565b61010b602090815262ffffff82166000908152604080822060028101805483518187028101870190945280845293946000805160206158d78339815191529492938693909291830182828015613d0b57602002820191906000526020600020906000905b82829054906101000a900462ffffff1662ffffff1681526020019060030190602082600201049283019260010382029150808411613cd05790505b505050505090508160000160049054906101000a90046001600160a01b03166001600160a01b0316336001600160a01b031614613d5a5760405162461bcd60e51b8152600401610b5e90615590565b610103548260150154613d6d91906154d2565b421015613dcc5760405162461bcd60e51b815260206004820152602760248201527f596f7520726f6920636c61696d2074696d656c696d6974206973206e6f74206f6044820152660eccae440f2cad60cb1b6064820152608401610b5e565b6000805b8251811015613e7757600061010c6000858481518110613df257613df2615709565b602002602001015162ffffff1662ffffff1681526020019081526020016000209050613e2984838151811061351457613514615709565b613e3390846154d2565b9250613e4a84838151811061351457613514615709565b816005016000828254613e5d91906154d2565b90915550829150613e6f905081615794565b915050613dd0565b508260130154818460120154613e8d91906154d2565b11613f245780836012016000828254613ea691906154d2565b9250508190555080836014016000828254613ec191906154d2565b9091555050426015840155601284018054829190600090613ee39084906154d2565b90915550506040519094508490819062ffffff8816907f7cd8783637a6bf8d3b4b69973a28720cfb0f5abc55d8b85dde1732d8f22c0efc90600090a3613fc7565b600083601201548460130154613f3a91906154e5565b9050808762ffffff167f7cd8783637a6bf8d3b4b69973a28720cfb0f5abc55d8b85dde1732d8f22c0efc60405160405180910390a38360130154846012018190555080846014016000828254613f9091906154d2565b9091555050426015850155601285018054829190600090613fb29084906154d2565b92505081905550809550613fc5846147dd565b505b50505050919050565b600060fc80548060200260200160405190810160405280929190818152602001828054801561404657602002820191906000526020600020906000905b82829054906101000a900461ffff1661ffff168152602001906002019060208260010104928301926001038202915080841161400d5790505b505060fc5462ffffff8716600090815261010b60205260408120818052959650909493506000805160206158d783398151915292509050805b8481101561460957600384015462ffffff16600081815261010b602052604090208054600160201b90046001600160a01b03166140bd575050614609565b80546301000000900460ff161561413a57604051725265666572657220697320496e61637469766560681b81526013015b6040519081900390206141028460016154d2565b60405162ffffff8516907f6bd4a1cb98fe02ede79e45b5749c74ff512165c4fb80ce4045eebef0e4e867dc90600090a4506145f79050565b8060130154816012015410614213576040517f5265616368656420746865206c696d69742e205265666572657220697320496e815267030b1ba34bb3297160c51b60208201526028016040519081900390206141978460016154d2565b60405162ffffff8516907f6bd4a1cb98fe02ede79e45b5749c74ff512165c4fb80ce4045eebef0e4e867dc90600090a46141d0816136ff565b805460405162ffffff90911681527fd13a3fe87e20364852910ef677df51f59e843df0dc53fa5449acde0af7ec822d9060200160405180910390a1506145f79050565b6040805161030081018252825462ffffff811682526301000000810460ff161515602080840191909152600160201b9091046001600160a01b031682840152600184015460608301526002840180548451818402810184019095528085526144f094869360808601939192908301828280156142d857602002820191906000526020600020906000905b82829054906101000a900462ffffff1662ffffff168152602001906003019060208260020104928301926001038202915080841161429d5790505b5050509183525050600382015462ffffff16602080830191909152600483018054604080518285028101850182528281529401939283018282801561436657602002820191906000526020600020906000905b82829054906101000a900462ffffff1662ffffff168152602001906003019060208260020104928301926001038202915080841161432b5790505b50505050508152602001600582018054806020026020016040519081016040528092919081815260200182805480156143e857602002820191906000526020600020906000905b82829054906101000a900462ffffff1662ffffff16815260200190600301906020826002010492830192600103820291508084116143ad5790505b505050505081526020016006820180548060200260200160405190810160405280929190818152602001828054801561444057602002820191906000526020600020905b81548152602001906001019080831161442c575b5050509183525050600782015460208201526008820154604082015260098201546060820152600a8201546080820152600b82015460a0820152600c82015460ff1660c0820152600d82015460e0820152600e820154610100820152600f82015461012082015260108201546101408201526011820154610160820152601282015461018082015260138201546101a082015260148201546101c08201526015909101546101e090910152613c2f565b6144fb8460016154d2565b111561452f576040517f446f776e6c696e65206c6576656c73206c696d697420726561636865640000008152601d016140ee565b60fd5488516000916145799161ffff90911690614573908c908890811061455857614558615709565b602002602001015161ffff168e61498f90919063ffffffff16565b9061499b565b90508082600e01600082825461458f91906154d2565b9091555061459f9050828261462c565b6145a981866154d2565b94508062ffffff808516908c167f516e026aa0a8e23fcb20eebf31df57c3e9df29f305428f45e22d048a8582dfa06145e28860016154d2565b60405190815260200160405180910390a45050505b8061460181615794565b91505061407f565b508082600e01600082825461461e91906154d2565b909155505050505050505050565b816013015481836012015461464191906154d2565b1061465457601382015460128301555050565b808260120154610a9d91906154d2565b62ffffff8116600090815261010c60205260408120805460ff1615614711576101025460fd546101015460018401544293600093909261ffff918216926146b692600160481b9092049091169061575b565b6146c09190615772565b6146ca9190615772565b905060008360030154836146de91906154e5565b905083600501546146f38286600401546149a7565b6146fd908461575b565b61470791906154e5565b9450505050614716565b600091505b50919050565b6001600160a01b0381163b6147895760405162461bcd60e51b815260206004820152602d60248201527f455243313936373a206e657720696d706c656d656e746174696f6e206973206e60448201526c1bdd08184818dbdb9d1c9858dd609a1b6064820152608401610b5e565b60008051602061589083398151915280546001600160a01b0319166001600160a01b0392909216919091179055565b6147c1836149bf565b6000825111806147ce5750805b15610a9d57612eab83836149ff565b60008160020180548060200260200160405190810160405280929190818152602001828054801561485757602002820191906000526020600020906000905b82829054906101000a900462ffffff1662ffffff168152602001906003019060208260020104928301926001038202915080841161481c5790505b5050505050905060005b81518110156148c357600061010c600084848151811061488357614883615709565b60209081029190910181015162ffffff168252810191909152604001600020805460ff1916911515919091179055806148bb81615794565b915050614861565b506040805160008152602081019182905251610a9d916002850191614c44565b60335460ff16610f445760405162461bcd60e51b815260206004820152601460248201527314185d5cd8589b194e881b9bdd081c185d5cd95960621b6044820152606401610b5e565b600054610100900460ff166149535760405162461bcd60e51b8152600401610b5e90615815565b6033805460ff19169055565b600054610100900460ff166149865760405162461bcd60e51b8152600401610b5e90615815565b610f443361378b565b6000611c01828461575b565b6000611c018284615772565b6000818311156149b8575080611234565b5090919050565b6149c88161471c565b6040516001600160a01b038216907fbc7cd75a20ee27fd9adebab32041f755214dbc6bffa90cc0225b39da2e5c2d3b90600090a250565b60606001600160a01b0383163b614a675760405162461bcd60e51b815260206004820152602660248201527f416464726573733a2064656c65676174652063616c6c20746f206e6f6e2d636f6044820152651b9d1c9858dd60d21b6064820152608401610b5e565b600080846001600160a01b031684604051614a829190615860565b600060405180830381855af49150503d8060008114614abd576040519150601f19603f3d011682016040523d82523d6000602084013e614ac2565b606091505b5091509150614aea82826040518060600160405280602781526020016158b060279139614af3565b95945050505050565b60608315614b02575081611c01565b611c018383815115614b175781518083602001fd5b8060405162461bcd60e51b8152600401610b5e919061587c565b82805482825590600052602060002090600f01601090048101928215614bcc5791602002820160005b83821115614b9c57833560ff1683826101000a81548161ffff021916908360ff1602179055509260200192600201602081600101049283019260010302614b5a565b8015614bca5782816101000a81549061ffff0219169055600201602081600101049283019260010302614b9c565b505b50614bd8929150614cde565b5090565b82805482825590600052602060002090600f01601090048101928215614bcc5791602002820160005b83821115614b9c57835183826101000a81548161ffff021916908360ff1602179055509260200192600201602081600101049283019260010302614c05565b82805482825590600052602060002090600901600a90048101928215614bcc5791602002820160005b83821115614caf57835183826101000a81548162ffffff021916908362ffffff1602179055509260200192600301602081600201049283019260010302614c6d565b8015614bca5782816101000a81549062ffffff0219169055600301602081600201049283019260010302614caf565b5b80821115614bd85760008155600101614cdf565b803560ff81168114614d0457600080fd5b919050565b600060208284031215614d1b57600080fd5b611c0182614cf3565b600081518084526020808501945080840160005b83811015614d5957815162ffffff1687529582019590820190600101614d38565b509495945050505050565b602081526000611c016020830184614d24565b80356001600160a01b0381168114614d0457600080fd5b60008060408385031215614da157600080fd5b614daa83614d77565b946020939093013593505050565b600060208284031215614dca57600080fd5b611c0182614d77565b803562ffffff81168114614d0457600080fd5b600060208284031215614df857600080fd5b611c0182614dd3565b60008060408385031215614e1457600080fd5b614daa83614dd3565b60008060208385031215614e3057600080fd5b823567ffffffffffffffff80821115614e4857600080fd5b818501915085601f830112614e5c57600080fd5b813581811115614e6b57600080fd5b8660208260051b8501011115614e8057600080fd5b60209290920196919550909350505050565b6080808252855190820181905260009060209060a0840190828901845b82811015614ecb57815184529284019290840190600101614eaf565b50505090830195909552506040810192909252606090910152919050565b634e487b7160e01b600052604160045260246000fd5b600067ffffffffffffffff80841115614f1a57614f1a614ee9565b604051601f8501601f19908116603f01168101908282118183101715614f4257614f42614ee9565b81604052809350858152868686011115614f5b57600080fd5b858560208301376000602087830101525050509392505050565b8015158114610ce157600080fd5b8035614d0481614f75565b60008060008060008060008060006101208a8c031215614fad57600080fd5b614fb68a614cf3565b985060208a0135975060408a0135965060608a0135955060808a013567ffffffffffffffff811115614fe757600080fd5b8a01601f81018c13614ff857600080fd5b6150078c823560208401614eff565b95505060a08a0135935060c08a0135925060e08a0135915061502c6101008b01614f83565b90509295985092959850929598565b6000806040838503121561504e57600080fd5b61505783614d77565b9150602083013567ffffffffffffffff81111561507357600080fd5b8301601f8101851361508457600080fd5b61509385823560208401614eff565b9150509250929050565b6000602082840312156150af57600080fd5b5035919050565b60005b838110156150d15781810151838201526020016150b9565b50506000910152565b600081518084526150f28160208601602086016150b6565b601f01601f19169290920160200192915050565b6020815261511a60208201835160ff169052565b602082015160408201526040820151606082015260608201516080820152600060808301516101408060a08501526151566101608501836150da565b915060a085015160c085015260c085015160e085015260e08501516101008181870152808701519150506101206151908187018315159052565b860151858403601f19018387015290506151aa8382614d24565b9695505050505050565b6040815260006151c76040830185614d24565b90508260208301529392505050565b604080825283519082018190526000906020906060840190828701845b8281101561521357815161ffff16845292840192908401906001016151f3565b50505092019290925292915050565b60006020828403121561523457600080fd5b813561ffff81168114611c0157600080fd5b6020815281511515602082015260006020830151604080840152613c646060840182614d24565b600081518084526020808501945080840160005b83811015614d5957815187529582019590820190600101615281565b602081526152b360208201835162ffffff169052565b600060208301516152c8604084018215159052565b5060408301516001600160a01b0381166060840152506060830151608083015260808301516103008060a0850152615304610320850183614d24565b915060a085015161531c60c086018262ffffff169052565b5060c0850151601f19808685030160e08701526153398483614d24565b935060e087015191506101008187860301818801526153588584614d24565b945080880151925050610120818786030181880152615377858461526d565b908801516101408881019190915288015161016080890191909152880151610180808901919091528801516101a0808901919091528801516101c08089019190915288015190945091506101e090506153d48187018360ff169052565b86015161020086810191909152860151610220808701919091528601516102408087019190915286015161026080870191909152860151610280808701919091528601516102a0808701919091528601516102c0808701919091528601516102e0808701919091529095015193019290925250919050565b6020808252825182820181905260009190848201906040850190845b8181101561548d5783516001600160a01b031683529284019291840191600101615468565b50909695505050505050565b634e487b7160e01b600052601160045260246000fd5b62ffffff8181168382160190808211156154cb576154cb615499565b5092915050565b8082018082111561123457611234615499565b8181038181111561123457611234615499565b6020808252602c908201527f46756e6374696f6e206d7573742062652063616c6c6564207468726f7567682060408201526b19195b1959d85d1958d85b1b60a21b606082015260800190565b6020808252602c908201527f46756e6374696f6e206d7573742062652063616c6c6564207468726f7567682060408201526b6163746976652070726f787960a01b606082015260800190565b6020808252601d908201527f596f7520617265206e6f74206f776e6572206f6620746869732069642e000000604082015260600190565b600181811c908216806155db57607f821691505b60208210810361471657634e487b7160e01b600052602260045260246000fd5b601f821115610a9d57600081815260208120601f850160051c810160208610156156225750805b601f850160051c820191505b818110156156415782815560010161562e565b505050505050565b815167ffffffffffffffff81111561566357615663614ee9565b6156778161567184546155c7565b846155fb565b602080601f8311600181146156ac57600084156156945750858301515b600019600386901b1c1916600185901b178555615641565b600085815260208120601f198616915b828110156156db578886015182559484019460019091019084016156bc565b50858210156156f95787850151600019600388901b60f8161c191681555b5050505050600190811b01905550565b634e487b7160e01b600052603260045260246000fd5b600060ff821660ff810361573557615735615499565b60010192915050565b60006020828403121561575057600080fd5b8151611c0181614f75565b808202811582820484141761123457611234615499565b60008261578f57634e487b7160e01b600052601260045260246000fd5b500490565b6000600182016157a6576157a6615499565b5060010190565b634e487b7160e01b600052603160045260246000fd5b6000602082840312156157d557600080fd5b5051919050565b600062ffffff8083168181036157f4576157f4615499565b6001019392505050565b600061ffff8083168181036157f4576157f4615499565b6020808252602b908201527f496e697469616c697a61626c653a20636f6e7472616374206973206e6f74206960408201526a6e697469616c697a696e6760a81b606082015260800190565b600082516158728184602087016150b6565b9190910192915050565b602081526000611c0160208301846150da56fe360894a13ba1a3210667c828492db98dca3e2076cc3735a920a3ca505d382bbc416464726573733a206c6f772d6c6576656c2064656c65676174652063616c6c206661696c6564053a497187f043e06d3c7bcdaec804489d8611080d89254a48d3f6b783c2c9eca26469706673582212208681a5068998729922257b826488462689da8d32bc6bc9d212a3befa98e3026364736f6c63430008110033",
  "linkReferences": {},
  "deployedLinkReferences": {}
}