{
  "_format": "hh-sol-artifact-1",
  "contractName": "ReferralV2Upgradeable",
  "sourceName": "contracts/ReferralV2Upgradeable.sol",
  "abi": [
    {
      "anonymous": false,
      "inputs": [
        {
          "indexed": false,
          "internalType": "address",
          "name": "ownerAddress",
          "type": "address"
        },
        {
          "indexed": false,
          "internalType": "uint256",
          "name": "id",
          "type": "uint256"
        },
        {
          "indexed": false,
          "internalType": "uint256",
          "name": "idIndex",
          "type": "uint256"
        }
      ],
      "name": "AccountInfoIDAttached",
      "type": "event"
    },
    {
      "anonymous": false,
      "inputs": [
        {
          "indexed": false,
          "internalType": "uint256",
          "name": "userID",
          "type": "uint256"
        },
        {
          "indexed": false,
          "internalType": "uint256",
          "name": "index",
          "type": "uint256"
        },
        {
          "indexed": false,
          "internalType": "uint256",
          "name": "rank",
          "type": "uint256"
        }
      ],
      "name": "AddedInRoyaltyClubList",
      "type": "event"
    },
    {
      "anonymous": false,
      "inputs": [
        {
          "indexed": false,
          "internalType": "address",
          "name": "previousAdmin",
          "type": "address"
        },
        {
          "indexed": false,
          "internalType": "address",
          "name": "newAdmin",
          "type": "address"
        }
      ],
      "name": "AdminChanged",
      "type": "event"
    },
    {
      "anonymous": false,
      "inputs": [
        {
          "indexed": true,
          "internalType": "address",
          "name": "beacon",
          "type": "address"
        }
      ],
      "name": "BeaconUpgraded",
      "type": "event"
    },
    {
      "anonymous": false,
      "inputs": [
        {
          "indexed": false,
          "internalType": "uint256",
          "name": "id",
          "type": "uint256"
        },
        {
          "indexed": false,
          "internalType": "uint256",
          "name": "valueInUSD",
          "type": "uint256"
        },
        {
          "indexed": false,
          "internalType": "address",
          "name": "userAddress",
          "type": "address"
        }
      ],
      "name": "IDActivated",
      "type": "event"
    },
    {
      "anonymous": false,
      "inputs": [
        {
          "indexed": false,
          "internalType": "uint256",
          "name": "id",
          "type": "uint256"
        }
      ],
      "name": "IDDeactivated",
      "type": "event"
    },
    {
      "anonymous": false,
      "inputs": [
        {
          "indexed": false,
          "internalType": "uint8",
          "name": "version",
          "type": "uint8"
        }
      ],
      "name": "Initialized",
      "type": "event"
    },
    {
      "anonymous": false,
      "inputs": [
        {
          "indexed": true,
          "internalType": "address",
          "name": "previousOwner",
          "type": "address"
        },
        {
          "indexed": true,
          "internalType": "address",
          "name": "newOwner",
          "type": "address"
        }
      ],
      "name": "OwnershipTransferred",
      "type": "event"
    },
    {
      "anonymous": false,
      "inputs": [
        {
          "indexed": false,
          "internalType": "uint256",
          "name": "packageID",
          "type": "uint256"
        }
      ],
      "name": "PackageAdded",
      "type": "event"
    },
    {
      "anonymous": false,
      "inputs": [
        {
          "indexed": false,
          "internalType": "uint256",
          "name": "packageID",
          "type": "uint256"
        }
      ],
      "name": "PackageRemoved",
      "type": "event"
    },
    {
      "anonymous": false,
      "inputs": [
        {
          "indexed": false,
          "internalType": "uint256",
          "name": "packageID",
          "type": "uint256"
        }
      ],
      "name": "PackageUpdated",
      "type": "event"
    },
    {
      "anonymous": false,
      "inputs": [
        {
          "indexed": true,
          "internalType": "uint256",
          "name": "userID",
          "type": "uint256"
        },
        {
          "indexed": true,
          "internalType": "uint256",
          "name": "reward",
          "type": "uint256"
        }
      ],
      "name": "ROIClaimed",
      "type": "event"
    },
    {
      "anonymous": false,
      "inputs": [
        {
          "indexed": true,
          "internalType": "uint256",
          "name": "refererID",
          "type": "uint256"
        },
        {
          "indexed": true,
          "internalType": "uint256",
          "name": "level",
          "type": "uint256"
        },
        {
          "indexed": true,
          "internalType": "string",
          "name": "reason",
          "type": "string"
        }
      ],
      "name": "ReferralNotPaid",
      "type": "event"
    },
    {
      "anonymous": false,
      "inputs": [
        {
          "indexed": true,
          "internalType": "uint256",
          "name": "refereeID",
          "type": "uint256"
        },
        {
          "indexed": true,
          "internalType": "uint256",
          "name": "referrerID",
          "type": "uint256"
        },
        {
          "indexed": true,
          "internalType": "uint256",
          "name": "amount",
          "type": "uint256"
        },
        {
          "indexed": false,
          "internalType": "uint256",
          "name": "level",
          "type": "uint256"
        }
      ],
      "name": "ReferralRewardPaid",
      "type": "event"
    },
    {
      "anonymous": false,
      "inputs": [
        {
          "indexed": true,
          "internalType": "address",
          "name": "refereeID",
          "type": "address"
        },
        {
          "indexed": true,
          "internalType": "address",
          "name": "referrerID",
          "type": "address"
        },
        {
          "indexed": true,
          "internalType": "string",
          "name": "reason",
          "type": "string"
        }
      ],
      "name": "RegisterRefererFailed",
      "type": "event"
    },
    {
      "anonymous": false,
      "inputs": [
        {
          "indexed": true,
          "internalType": "uint256",
          "name": "id",
          "type": "uint256"
        },
        {
          "indexed": true,
          "internalType": "uint256",
          "name": "refererID",
          "type": "uint256"
        }
      ],
      "name": "RegisteredReferer",
      "type": "event"
    },
    {
      "anonymous": false,
      "inputs": [
        {
          "indexed": true,
          "internalType": "address",
          "name": "parent",
          "type": "address"
        },
        {
          "indexed": false,
          "internalType": "uint256",
          "name": "parentAccountID",
          "type": "uint256"
        },
        {
          "indexed": true,
          "internalType": "uint256",
          "name": "referrerID",
          "type": "uint256"
        },
        {
          "indexed": true,
          "internalType": "uint256",
          "name": "refereeID",
          "type": "uint256"
        }
      ],
      "name": "RegisteredTeamAddress",
      "type": "event"
    },
    {
      "anonymous": false,
      "inputs": [
        {
          "indexed": false,
          "internalType": "uint256",
          "name": "packageID",
          "type": "uint256"
        },
        {
          "indexed": true,
          "internalType": "uint256",
          "name": "userID",
          "type": "uint256"
        },
        {
          "indexed": true,
          "internalType": "uint256",
          "name": "amount",
          "type": "uint256"
        }
      ],
      "name": "RoyaltyClubBonusPaid",
      "type": "event"
    },
    {
      "anonymous": false,
      "inputs": [
        {
          "indexed": true,
          "internalType": "address",
          "name": "implementation",
          "type": "address"
        }
      ],
      "name": "Upgraded",
      "type": "event"
    },
    {
      "inputs": [
        {
          "internalType": "uint256",
          "name": "",
          "type": "uint256"
        }
      ],
      "name": "_disabledUsersList",
      "outputs": [
        {
          "internalType": "address",
          "name": "",
          "type": "address"
        }
      ],
      "stateMutability": "view",
      "type": "function"
    },
    {
      "inputs": [
        {
          "internalType": "uint32",
          "name": "_refererID",
          "type": "uint32"
        }
      ],
      "name": "activateID",
      "outputs": [],
      "stateMutability": "payable",
      "type": "function"
    },
    {
      "inputs": [
        {
          "internalType": "uint32[]",
          "name": "_id",
          "type": "uint32[]"
        },
        {
          "internalType": "uint32[]",
          "name": "_refererID",
          "type": "uint32[]"
        }
      ],
      "name": "addReferrerAdmin",
      "outputs": [],
      "stateMutability": "nonpayable",
      "type": "function"
    },
    {
      "inputs": [
        {
          "internalType": "uint32",
          "name": "_id",
          "type": "uint32"
        },
        {
          "internalType": "uint256",
          "name": "_valueInUSD",
          "type": "uint256"
        }
      ],
      "name": "claimBalance",
      "outputs": [],
      "stateMutability": "nonpayable",
      "type": "function"
    },
    {
      "inputs": [
        {
          "internalType": "uint32",
          "name": "_id",
          "type": "uint32"
        }
      ],
      "name": "claimROI",
      "outputs": [],
      "stateMutability": "nonpayable",
      "type": "function"
    },
    {
      "inputs": [],
      "name": "companyTurnoverTimeLimit",
      "outputs": [
        {
          "internalType": "uint256",
          "name": "",
          "type": "uint256"
        }
      ],
      "stateMutability": "view",
      "type": "function"
    },
    {
      "inputs": [],
      "name": "companyTurnoverTimeStamp",
      "outputs": [
        {
          "internalType": "uint256",
          "name": "",
          "type": "uint256"
        }
      ],
      "stateMutability": "view",
      "type": "function"
    },
    {
      "inputs": [],
      "name": "companyTurnoverWithTimeLimit",
      "outputs": [
        {
          "internalType": "uint256",
          "name": "",
          "type": "uint256"
        }
      ],
      "stateMutability": "view",
      "type": "function"
    },
    {
      "inputs": [],
      "name": "decimals",
      "outputs": [
        {
          "internalType": "uint16",
          "name": "",
          "type": "uint16"
        }
      ],
      "stateMutability": "view",
      "type": "function"
    },
    {
      "inputs": [
        {
          "internalType": "address",
          "name": "_userAddress",
          "type": "address"
        }
      ],
      "name": "disableUserAdmin",
      "outputs": [],
      "stateMutability": "nonpayable",
      "type": "function"
    },
    {
      "inputs": [
        {
          "internalType": "uint8",
          "name": "_packageID",
          "type": "uint8"
        }
      ],
      "name": "getAchieversList",
      "outputs": [
        {
          "internalType": "uint32[]",
          "name": "",
          "type": "uint32[]"
        }
      ],
      "stateMutability": "view",
      "type": "function"
    },
    {
      "inputs": [
        {
          "internalType": "uint32",
          "name": "_id",
          "type": "uint32"
        }
      ],
      "name": "getIDAccount",
      "outputs": [
        {
          "components": [
            {
              "internalType": "uint32",
              "name": "id",
              "type": "uint32"
            },
            {
              "internalType": "string",
              "name": "oldID",
              "type": "string"
            },
            {
              "internalType": "bool",
              "name": "isDisabled",
              "type": "bool"
            },
            {
              "internalType": "address",
              "name": "owner",
              "type": "address"
            },
            {
              "internalType": "uint256",
              "name": "joiningTime",
              "type": "uint256"
            },
            {
              "internalType": "uint256",
              "name": "activationTime",
              "type": "uint256"
            },
            {
              "internalType": "uint256",
              "name": "deactivateTime",
              "type": "uint256"
            },
            {
              "internalType": "uint32[]",
              "name": "roiIDs",
              "type": "uint32[]"
            },
            {
              "internalType": "uint32",
              "name": "refererID",
              "type": "uint32"
            },
            {
              "internalType": "uint32[]",
              "name": "refereeIDs",
              "type": "uint32[]"
            },
            {
              "internalType": "uint32[]",
              "name": "teamIDs",
              "type": "uint32[]"
            },
            {
              "internalType": "uint256",
              "name": "selfBusinessUSD",
              "type": "uint256"
            },
            {
              "internalType": "uint256",
              "name": "selfBusinessUSDOld",
              "type": "uint256"
            },
            {
              "internalType": "uint256",
              "name": "directBusinessUSD",
              "type": "uint256"
            },
            {
              "internalType": "uint256",
              "name": "directBusinessUSDOld",
              "type": "uint256"
            },
            {
              "internalType": "uint256",
              "name": "teamBusinessUSD",
              "type": "uint256"
            },
            {
              "internalType": "uint256",
              "name": "teamBusinessUSDOld",
              "type": "uint256"
            },
            {
              "internalType": "uint256",
              "name": "royaltyClubBusinessUSD",
              "type": "uint256"
            },
            {
              "internalType": "uint256",
              "name": "timeStampRoyaltyClub",
              "type": "uint256"
            },
            {
              "internalType": "uint8",
              "name": "royaltyClubPackageID",
              "type": "uint8"
            },
            {
              "internalType": "uint256",
              "name": "royaltyClubListIndex",
              "type": "uint256"
            },
            {
              "internalType": "uint256",
              "name": "referralPaidUSD",
              "type": "uint256"
            },
            {
              "internalType": "uint256",
              "name": "rewardPaidRoyaltyClubUSD",
              "type": "uint256"
            },
            {
              "internalType": "uint256",
              "name": "topUpUSD",
              "type": "uint256"
            },
            {
              "internalType": "uint256",
              "name": "balanceClaimedUSD",
              "type": "uint256"
            },
            {
              "internalType": "uint256",
              "name": "limitBalanceUSD",
              "type": "uint256"
            },
            {
              "internalType": "uint256",
              "name": "maxLimitAmount",
              "type": "uint256"
            },
            {
              "internalType": "uint256",
              "name": "roiClaimedUSD",
              "type": "uint256"
            },
            {
              "internalType": "uint256",
              "name": "roiClaimTimestamp",
              "type": "uint256"
            }
          ],
          "internalType": "struct ReferralV2Upgradeable.StructID",
          "name": "",
          "type": "tuple"
        }
      ],
      "stateMutability": "view",
      "type": "function"
    },
    {
      "inputs": [
        {
          "internalType": "uint32",
          "name": "_id",
          "type": "uint32"
        }
      ],
      "name": "getIDClaimableBalance",
      "outputs": [
        {
          "internalType": "uint256",
          "name": "",
          "type": "uint256"
        }
      ],
      "stateMutability": "view",
      "type": "function"
    },
    {
      "inputs": [
        {
          "internalType": "uint32",
          "name": "_id",
          "type": "uint32"
        }
      ],
      "name": "getIDRoyaltyClubLevel",
      "outputs": [
        {
          "internalType": "uint256",
          "name": "",
          "type": "uint256"
        }
      ],
      "stateMutability": "view",
      "type": "function"
    },
    {
      "inputs": [],
      "name": "getPriceOracleContract",
      "outputs": [
        {
          "internalType": "address",
          "name": "",
          "type": "address"
        }
      ],
      "stateMutability": "view",
      "type": "function"
    },
    {
      "inputs": [
        {
          "internalType": "uint32",
          "name": "_roiID",
          "type": "uint32"
        }
      ],
      "name": "getROIAccount",
      "outputs": [
        {
          "components": [
            {
              "internalType": "bool",
              "name": "isActive",
              "type": "bool"
            },
            {
              "internalType": "uint32",
              "name": "ownerID",
              "type": "uint32"
            },
            {
              "internalType": "uint256",
              "name": "valueInUSD",
              "type": "uint256"
            },
            {
              "internalType": "uint16",
              "name": "roiRate",
              "type": "uint16"
            },
            {
              "internalType": "uint256",
              "name": "startTime",
              "type": "uint256"
            },
            {
              "internalType": "uint256",
              "name": "duration",
              "type": "uint256"
            },
            {
              "internalType": "uint256",
              "name": "roiClaimed",
              "type": "uint256"
            }
          ],
          "internalType": "struct ReferralV2Upgradeable.StructROI",
          "name": "",
          "type": "tuple"
        }
      ],
      "stateMutability": "view",
      "type": "function"
    },
    {
      "inputs": [
        {
          "internalType": "uint8",
          "name": "_packageID",
          "type": "uint8"
        }
      ],
      "name": "getRoyaltyClubPackageInfo",
      "outputs": [
        {
          "components": [
            {
              "internalType": "uint8",
              "name": "packageID",
              "type": "uint8"
            },
            {
              "internalType": "uint256",
              "name": "selfBusinessUSD",
              "type": "uint256"
            },
            {
              "internalType": "uint256",
              "name": "directBusinessUSD",
              "type": "uint256"
            },
            {
              "internalType": "uint256",
              "name": "teamBusinessUSD",
              "type": "uint256"
            },
            {
              "internalType": "string",
              "name": "rankName",
              "type": "string"
            },
            {
              "internalType": "uint256",
              "name": "reward",
              "type": "uint256"
            },
            {
              "internalType": "uint256",
              "name": "businessLimit",
              "type": "uint256"
            },
            {
              "internalType": "uint256",
              "name": "timeLimit",
              "type": "uint256"
            },
            {
              "internalType": "bool",
              "name": "isOneTimeRewardPaid",
              "type": "bool"
            },
            {
              "internalType": "bool",
              "name": "isPayReccursive",
              "type": "bool"
            },
            {
              "internalType": "uint32[]",
              "name": "achieversList",
              "type": "uint32[]"
            }
          ],
          "internalType": "struct ReferralV2Upgradeable.StructPackages",
          "name": "",
          "type": "tuple"
        }
      ],
      "stateMutability": "view",
      "type": "function"
    },
    {
      "inputs": [
        {
          "internalType": "address",
          "name": "_address",
          "type": "address"
        }
      ],
      "name": "getUserAccount",
      "outputs": [
        {
          "components": [
            {
              "internalType": "bool",
              "name": "isDisabled",
              "type": "bool"
            },
            {
              "internalType": "uint32[]",
              "name": "accountIDs",
              "type": "uint32[]"
            }
          ],
          "internalType": "struct ReferralV2Upgradeable.StructAccount",
          "name": "",
          "type": "tuple"
        }
      ],
      "stateMutability": "view",
      "type": "function"
    },
    {
      "inputs": [
        {
          "internalType": "uint32",
          "name": "_id",
          "type": "uint32"
        }
      ],
      "name": "getUserIDTotalROI",
      "outputs": [
        {
          "internalType": "uint256",
          "name": "roi",
          "type": "uint256"
        }
      ],
      "stateMutability": "view",
      "type": "function"
    },
    {
      "inputs": [
        {
          "internalType": "uint32",
          "name": "_id",
          "type": "uint32"
        }
      ],
      "name": "getUserTotalActiveROIValue",
      "outputs": [
        {
          "internalType": "uint256",
          "name": "",
          "type": "uint256"
        }
      ],
      "stateMutability": "view",
      "type": "function"
    },
    {
      "inputs": [
        {
          "internalType": "uint32",
          "name": "_id",
          "type": "uint32"
        }
      ],
      "name": "getUserUnlockCount",
      "outputs": [
        {
          "internalType": "uint256",
          "name": "",
          "type": "uint256"
        }
      ],
      "stateMutability": "view",
      "type": "function"
    },
    {
      "inputs": [],
      "name": "initialize",
      "outputs": [],
      "stateMutability": "nonpayable",
      "type": "function"
    },
    {
      "inputs": [],
      "name": "isPayROI",
      "outputs": [
        {
          "internalType": "bool",
          "name": "",
          "type": "bool"
        }
      ],
      "stateMutability": "view",
      "type": "function"
    },
    {
      "inputs": [],
      "name": "isPayRoyaltyClubBonus",
      "outputs": [
        {
          "internalType": "bool",
          "name": "",
          "type": "bool"
        }
      ],
      "stateMutability": "view",
      "type": "function"
    },
    {
      "inputs": [
        {
          "internalType": "address",
          "name": "_userAddress",
          "type": "address"
        }
      ],
      "name": "isUserDisabledByAdmin",
      "outputs": [
        {
          "internalType": "bool",
          "name": "",
          "type": "bool"
        }
      ],
      "stateMutability": "view",
      "type": "function"
    },
    {
      "inputs": [
        {
          "internalType": "uint256",
          "name": "",
          "type": "uint256"
        }
      ],
      "name": "levelRates",
      "outputs": [
        {
          "internalType": "uint16",
          "name": "",
          "type": "uint16"
        }
      ],
      "stateMutability": "view",
      "type": "function"
    },
    {
      "inputs": [],
      "name": "maxLevelsCount",
      "outputs": [
        {
          "internalType": "uint8",
          "name": "",
          "type": "uint8"
        }
      ],
      "stateMutability": "view",
      "type": "function"
    },
    {
      "inputs": [],
      "name": "minContributionInUSD",
      "outputs": [
        {
          "internalType": "uint256",
          "name": "",
          "type": "uint256"
        }
      ],
      "stateMutability": "view",
      "type": "function"
    },
    {
      "inputs": [],
      "name": "owner",
      "outputs": [
        {
          "internalType": "address",
          "name": "",
          "type": "address"
        }
      ],
      "stateMutability": "view",
      "type": "function"
    },
    {
      "inputs": [],
      "name": "packagesCount",
      "outputs": [
        {
          "internalType": "uint8",
          "name": "",
          "type": "uint8"
        }
      ],
      "stateMutability": "view",
      "type": "function"
    },
    {
      "inputs": [],
      "name": "payRoyaltyClubReccursiveBonusAdmin",
      "outputs": [],
      "stateMutability": "nonpayable",
      "type": "function"
    },
    {
      "inputs": [],
      "name": "proxiableUUID",
      "outputs": [
        {
          "internalType": "bytes32",
          "name": "",
          "type": "bytes32"
        }
      ],
      "stateMutability": "view",
      "type": "function"
    },
    {
      "inputs": [
        {
          "internalType": "address",
          "name": "_userAddress",
          "type": "address"
        }
      ],
      "name": "removeUserFromDisableList",
      "outputs": [],
      "stateMutability": "nonpayable",
      "type": "function"
    },
    {
      "inputs": [],
      "name": "renounceOwnership",
      "outputs": [],
      "stateMutability": "nonpayable",
      "type": "function"
    },
    {
      "inputs": [],
      "name": "royaltyClubPackageCount",
      "outputs": [
        {
          "internalType": "uint8",
          "name": "",
          "type": "uint8"
        }
      ],
      "stateMutability": "view",
      "type": "function"
    },
    {
      "inputs": [
        {
          "internalType": "address",
          "name": "_address",
          "type": "address"
        },
        {
          "internalType": "uint256",
          "name": "_value",
          "type": "uint256"
        }
      ],
      "name": "sendETHAdmin",
      "outputs": [],
      "stateMutability": "nonpayable",
      "type": "function"
    },
    {
      "inputs": [
        {
          "internalType": "uint16",
          "name": "_value",
          "type": "uint16"
        }
      ],
      "name": "setLevelDecimals",
      "outputs": [],
      "stateMutability": "nonpayable",
      "type": "function"
    },
    {
      "inputs": [
        {
          "internalType": "uint8[]",
          "name": "_value",
          "type": "uint8[]"
        }
      ],
      "name": "setLevelRates",
      "outputs": [],
      "stateMutability": "nonpayable",
      "type": "function"
    },
    {
      "inputs": [
        {
          "internalType": "uint8",
          "name": "_valueInDecimals",
          "type": "uint8"
        }
      ],
      "name": "setMaxLevelsCountAdmin",
      "outputs": [],
      "stateMutability": "nonpayable",
      "type": "function"
    },
    {
      "inputs": [
        {
          "internalType": "address",
          "name": "_contractAddress",
          "type": "address"
        }
      ],
      "name": "setPriceOracleContract",
      "outputs": [],
      "stateMutability": "nonpayable",
      "type": "function"
    },
    {
      "inputs": [
        {
          "internalType": "uint8",
          "name": "packageID",
          "type": "uint8"
        },
        {
          "internalType": "uint256",
          "name": "selfBusinessUSD",
          "type": "uint256"
        },
        {
          "internalType": "uint256",
          "name": "directBusinessUSD",
          "type": "uint256"
        },
        {
          "internalType": "uint256",
          "name": "teamBusinessUSD",
          "type": "uint256"
        },
        {
          "internalType": "string",
          "name": "rankName",
          "type": "string"
        },
        {
          "internalType": "uint256",
          "name": "reward",
          "type": "uint256"
        },
        {
          "internalType": "uint256",
          "name": "businessLimit",
          "type": "uint256"
        },
        {
          "internalType": "uint256",
          "name": "timeLimit",
          "type": "uint256"
        },
        {
          "internalType": "bool",
          "name": "isPayReccursive",
          "type": "bool"
        }
      ],
      "name": "setRoyaltyClubPackage",
      "outputs": [],
      "stateMutability": "nonpayable",
      "type": "function"
    },
    {
      "inputs": [
        {
          "internalType": "uint8",
          "name": "_valueInDecimals",
          "type": "uint8"
        }
      ],
      "name": "setRoyaltyPackageCount",
      "outputs": [],
      "stateMutability": "nonpayable",
      "type": "function"
    },
    {
      "inputs": [
        {
          "internalType": "uint32",
          "name": "_id",
          "type": "uint32"
        }
      ],
      "name": "topUpID",
      "outputs": [],
      "stateMutability": "payable",
      "type": "function"
    },
    {
      "inputs": [],
      "name": "totalIDs",
      "outputs": [
        {
          "internalType": "uint32",
          "name": "",
          "type": "uint32"
        }
      ],
      "stateMutability": "view",
      "type": "function"
    },
    {
      "inputs": [],
      "name": "totalROIIDs",
      "outputs": [
        {
          "internalType": "uint32",
          "name": "",
          "type": "uint32"
        }
      ],
      "stateMutability": "view",
      "type": "function"
    },
    {
      "inputs": [],
      "name": "totalRoyaltyClubBonusPaidETH",
      "outputs": [
        {
          "internalType": "uint256",
          "name": "",
          "type": "uint256"
        }
      ],
      "stateMutability": "view",
      "type": "function"
    },
    {
      "inputs": [],
      "name": "totalRoyaltyClubBonusPaidUSD",
      "outputs": [
        {
          "internalType": "uint256",
          "name": "",
          "type": "uint256"
        }
      ],
      "stateMutability": "view",
      "type": "function"
    },
    {
      "inputs": [],
      "name": "totalUsers",
      "outputs": [
        {
          "internalType": "uint32",
          "name": "",
          "type": "uint32"
        }
      ],
      "stateMutability": "view",
      "type": "function"
    },
    {
      "inputs": [
        {
          "internalType": "address",
          "name": "newOwner",
          "type": "address"
        }
      ],
      "name": "transferOwnership",
      "outputs": [],
      "stateMutability": "nonpayable",
      "type": "function"
    },
    {
      "inputs": [
        {
          "internalType": "uint32[]",
          "name": "_userID",
          "type": "uint32[]"
        },
        {
          "internalType": "address[]",
          "name": "_userAddress",
          "type": "address[]"
        },
        {
          "internalType": "string[]",
          "name": "_oldID",
          "type": "string[]"
        }
      ],
      "name": "updateIDOldIDtoAddress",
      "outputs": [],
      "stateMutability": "nonpayable",
      "type": "function"
    },
    {
      "inputs": [
        {
          "internalType": "uint32[]",
          "name": "_userID",
          "type": "uint32[]"
        },
        {
          "internalType": "uint256[]",
          "name": "_totalTopUp",
          "type": "uint256[]"
        },
        {
          "internalType": "uint256[]",
          "name": "_limitBalanceUSD",
          "type": "uint256[]"
        },
        {
          "internalType": "uint256[]",
          "name": "_balanceClaimedUSD",
          "type": "uint256[]"
        },
        {
          "internalType": "uint256[]",
          "name": "_joiningTime",
          "type": "uint256[]"
        },
        {
          "internalType": "uint256[]",
          "name": "_activationTime",
          "type": "uint256[]"
        }
      ],
      "name": "updateUserIDDataOldAdmin",
      "outputs": [],
      "stateMutability": "nonpayable",
      "type": "function"
    },
    {
      "inputs": [
        {
          "internalType": "address",
          "name": "newImplementation",
          "type": "address"
        }
      ],
      "name": "upgradeTo",
      "outputs": [],
      "stateMutability": "nonpayable",
      "type": "function"
    },
    {
      "inputs": [
        {
          "internalType": "address",
          "name": "newImplementation",
          "type": "address"
        },
        {
          "internalType": "bytes",
          "name": "data",
          "type": "bytes"
        }
      ],
      "name": "upgradeToAndCall",
      "outputs": [],
      "stateMutability": "payable",
      "type": "function"
    },
    {
      "inputs": [],
      "name": "withdrawETHAdmin",
      "outputs": [],
      "stateMutability": "nonpayable",
      "type": "function"
    },
    {
      "inputs": [
        {
          "internalType": "address",
          "name": "_tokenAddress",
          "type": "address"
        },
        {
          "internalType": "uint256",
          "name": "_value",
          "type": "uint256"
        }
      ],
      "name": "withdrawTokensAdmin",
      "outputs": [],
      "stateMutability": "nonpayable",
      "type": "function"
    },
    {
      "stateMutability": "payable",
      "type": "receive"
    }
  ],
  "bytecode": "0x60a06040523060805234801561001457600080fd5b50608051615fbb6200004d60003960008181610f0801528181610f51015281816110a9015281816110e901526111650152615fbb6000f3fe6080604052600436106102a45760003560e01c80638486e06611610166578063bff1f9e1116100c7578063bff1f9e1146107ee578063c3ab5ebf1461080b578063cee3f5601461088d578063db003b2a146108ad578063e1c715ba146108cd578063e52356f3146108ed578063e5682e381461090d578063ea62f71514610920578063f2fde38b14610940578063f31a2d0f14610960578063f41bfeef14610980578063f830e57b14610996578063fafc9597146109c3578063fb47e016146109e257600080fd5b80638486e066146106545780638da5cb5b146106745780638df05d9c1461069257806396ed6b85146106b25780639f4e8398146106c8578063a0b6105f146106e8578063a1b8017514610708578063a28a36861461072c578063a43ae4081461074c578063aa7df4f21461076c578063af2f39d114610781578063b47181d31461079b578063b92d18c1146107bb578063bf46de63146107ce57600080fd5b80634a750822116102105780634a7508221461047d5780634b5102b81461049d5780634f1ef286146104bd57806352d1902d146104d0578063538ffe0c146104e55780635e701d861461052e578063631d339814610567578063715018a61461058757806376a68e841461059c578063770ceeb1146105bc5780637879b5ef146105dc5780637a026935146105fc5780637bdbf996146106125780638129fc1c1461063f57600080fd5b8063012da720146102b057806309de82cd146102e65780630b243dad1461030a5780630efdbb6a1461032c57806318e10bff1461034c5780631f3c4cba146103785780631f7f83ba1461039857806322f88b52146103d05780632913497b146103e65780632ed421d214610404578063313ce5671461041a57806335759788146104485780633659cfe61461045d57600080fd5b366102ab57005b600080fd5b3480156102bc57600080fd5b506102d06102cb366004615169565b610a0f565b6040516102dd9190615184565b60405180910390f35b3480156102f257600080fd5b506102fc60ce5481565b6040519081526020016102dd565b34801561031657600080fd5b5061032a6103253660046151e5565b610aa4565b005b34801561033857600080fd5b5061032a61034736600461520f565b610ae7565b34801561035857600080fd5b5060d7546103669060ff1681565b60405160ff90911681526020016102dd565b34801561038457600080fd5b506102fc61039336600461523e565b610b11565b3480156103a457600080fd5b506103b86103b3366004615259565b610e9d565b6040516001600160a01b0390911681526020016102dd565b3480156103dc57600080fd5b506102fc60d35481565b3480156103f257600080fd5b5060c9546001600160a01b03166103b8565b34801561041057600080fd5b506102fc60d45481565b34801561042657600080fd5b5060cb546104359061ffff1681565b60405161ffff90911681526020016102dd565b34801561045457600080fd5b5061032a610ec7565b34801561046957600080fd5b5061032a61047836600461520f565b610efe565b34801561048957600080fd5b5061032a61049836600461533d565b610fcc565b3480156104a957600080fd5b5061032a6104b8366004615169565b611081565b61032a6104cb3660046153d9565b61109f565b3480156104dc57600080fd5b506102fc611158565b3480156104f157600080fd5b5061051e61050036600461520f565b6001600160a01b0316600090815260d8602052604090205460ff1690565b60405190151581526020016102dd565b34801561053a57600080fd5b5060cf5461055290600160201b900463ffffffff1681565b60405163ffffffff90911681526020016102dd565b34801561057357600080fd5b5061032a610582366004615485565b611206565b34801561059357600080fd5b5061032a611409565b3480156105a857600080fd5b506102fc6105b736600461523e565b61141d565b3480156105c857600080fd5b5061032a6105d736600461523e565b611431565b3480156105e857600080fd5b506104356105f7366004615259565b611448565b34801561060857600080fd5b506102fc60cd5481565b34801561061e57600080fd5b5061063261062d366004615169565b611480565b6040516102dd919061562b565b34801561064b57600080fd5b5061032a611693565b34801561066057600080fd5b5061032a61066f366004615169565b611938565b34801561068057600080fd5b506033546001600160a01b03166103b8565b34801561069e57600080fd5b5060cb546103669062010000900460ff1681565b3480156106be57600080fd5b506102fc60cc5481565b3480156106d457600080fd5b5061032a6106e336600461520f565b61195e565b3480156106f457600080fd5b5061032a6107033660046151e5565b6119cd565b34801561071457600080fd5b5060cf5461055290600160401b900463ffffffff1681565b34801561073857600080fd5b5060d2546103669062010000900460ff1681565b34801561075857600080fd5b5061032a6107673660046156ee565b611a46565b34801561077857600080fd5b5061032a611a66565b34801561078d57600080fd5b5060d25461051e9060ff1681565b3480156107a757600080fd5b506102fc6107b636600461523e565b611dbf565b61032a6107c936600461523e565b612137565b3480156107da57600080fd5b506102fc6107e936600461523e565b612244565b3480156107fa57600080fd5b5060cf546105529063ffffffff1681565b34801561081757600080fd5b5061082b61082636600461523e565b6122a8565b6040516102dd9190600060e08201905082511515825263ffffffff60208401511660208301526040830151604083015261ffff60608401511660608301526080830151608083015260a083015160a083015260c083015160c083015292915050565b34801561089957600080fd5b5061032a6108a8366004615712565b61236a565b3480156108b957600080fd5b5061032a6108c836600461577d565b61247d565b3480156108d957600080fd5b5061032a6108e83660046158ba565b6125e6565b3480156108f957600080fd5b5061032a61090836600461520f565b6125fa565b61032a61091b36600461523e565b612723565b34801561092c57600080fd5b506102fc61093b36600461523e565b61287c565b34801561094c57600080fd5b5061032a61095b36600461520f565b612993565b34801561096c57600080fd5b5061032a61097b3660046158fb565b612a09565b34801561098c57600080fd5b506102fc60d55481565b3480156109a257600080fd5b506109b66109b136600461523e565b612b6b565b6040516102dd9190615917565b3480156109cf57600080fd5b5060d25461051e90610100900460ff1681565b3480156109ee57600080fd5b50610a026109fd36600461520f565b612fce565b6040516102dd9190615b08565b60ff8116600090815260db6020908152604091829020600901805483518184028101840190945280845260609392830182828015610a9857602002820191906000526020600020906000905b82829054906101000a900463ffffffff1663ffffffff1681526020019060040190602082600301049283019260010382029150808411610a5b5790505b50505050509050919050565b610aac613072565b6040516001600160a01b0383169082156108fc029083906000818181858888f19350505050158015610ae2573d6000803e3d6000fd5b505050565b610aef613072565b60c980546001600160a01b0319166001600160a01b0392909216919091179055565b63ffffffff808216600090815260d96020908152604080832081516103a081019092528054909416815260018401805493948594929390929084019190610b5790615b2f565b80601f0160208091040260200160405190810160405280929190818152602001828054610b8390615b2f565b8015610bd05780601f10610ba557610100808354040283529160200191610bd0565b820191906000526020600020905b815481529060010190602001808311610bb357829003601f168201915b5050509183525050600282015460ff811615156020808401919091526101009091046001600160a01b03166040808401919091526003840154606084015260048401546080840152600584015460a084015260068401805482518185028101850190935280835260c0909401939192909190830182828015610c9d57602002820191906000526020600020906000905b82829054906101000a900463ffffffff1663ffffffff1681526020019060040190602082600301049283019260010382029150808411610c605790505b5050509183525050600782015463ffffffff166020808301919091526008830180546040805182850281018501825282815294019392830182828015610d2e57602002820191906000526020600020906000905b82829054906101000a900463ffffffff1663ffffffff1681526020019060040190602082600301049283019260010382029150808411610cf15790505b5050505050815260200160098201805480602002602001604051908101604052809291908181526020018280548015610db257602002820191906000526020600020906000905b82829054906101000a900463ffffffff1663ffffffff1681526020019060040190602082600301049283019260010382029150808411610d755790505b5050509183525050600a8201546020820152600b8201546040820152600c8201546060820152600d8201546080820152600e82015460a0820152600f82015460c0820152601082015460e08201526011820154610100820152601282015460ff1661012082015260138201546101408201526014820154610160820152601582015461018082015260168201546101a082015260178201546101c082015260188201546101e08201526019820154610200820152601a820154610220820152601b9091015461024090910152610300810151610320820151919250610e9691615b79565b9392505050565b60d68181548110610ead57600080fd5b6000918252602090912001546001600160a01b0316905081565b610ecf613072565b60405133904780156108fc02916000818181858888f19350505050158015610efb573d6000803e3d6000fd5b50565b6001600160a01b037f0000000000000000000000000000000000000000000000000000000000000000163003610f4f5760405162461bcd60e51b8152600401610f4690615b8c565b60405180910390fd5b7f00000000000000000000000000000000000000000000000000000000000000006001600160a01b0316610f816130cc565b6001600160a01b031614610fa75760405162461bcd60e51b8152600401610f4690615bd8565b610fb0816130e8565b60408051600080825260208201909252610efb918391906130f0565b610fd4613072565b60ff8916600081815260db60205260409020805460ff19169091178155600181018990556002810188905560038101879055600481016110148782615c6a565b5060058101859055600681018490556007810183905560088101805461ff0019166101008415150217905560405160ff8b1681527fa24b8cf512af3c40223886405905578154323d4ba0d3802ec5756b9684ce1b799060200160405180910390a150505050505050505050565b611089613072565b60d7805460ff191660ff92909216919091179055565b6001600160a01b037f00000000000000000000000000000000000000000000000000000000000000001630036110e75760405162461bcd60e51b8152600401610f4690615b8c565b7f00000000000000000000000000000000000000000000000000000000000000006001600160a01b03166111196130cc565b6001600160a01b03161461113f5760405162461bcd60e51b8152600401610f4690615bd8565b611148826130e8565b611154828260016130f0565b5050565b6000306001600160a01b037f000000000000000000000000000000000000000000000000000000000000000016146111f35760405162461bcd60e51b815260206004820152603860248201527f555550535570677261646561626c653a206d757374206e6f742062652063616c6044820152771b1959081d1a1c9bdd59da0819195b1959d85d1958d85b1b60421b6064820152608401610f46565b50600080516020615f3f83398151915290565b61120e613072565b60005b61ffff811685111561140157600060d9600088888561ffff1681811061123957611239615d29565b905060200201602081019061124e919061523e565b63ffffffff1663ffffffff1681526020019081526020016000209050600060d8600087878661ffff1681811061128657611286615d29565b905060200201602081019061129b919061520f565b6001600160a01b03166001600160a01b03168152602001908152602001600020905087878461ffff168181106112d3576112d3615d29565b90506020020160208101906112e8919061523e565b825463ffffffff191663ffffffff919091161782558351849061ffff851690811061131557611315615d29565b602002602001015182600101908161132d9190615c6a565b508060010188888561ffff1681811061134857611348615d29565b905060200201602081019061135d919061523e565b8154600181018355600092835260209092206008830401805460079093166004026101000a63ffffffff818102199094169290931692909202179055858561ffff85168181106113af576113af615d29565b90506020020160208101906113c4919061520f565b8260020160016101000a8154816001600160a01b0302191690836001600160a01b03160217905550505080806113f990615d3f565b915050611211565b505050505050565b611411613072565b61141b600061325b565b565b6000611428826132ad565b60ff1692915050565b600061143c826136ca565b90506111548183613986565b60ca818154811061145857600080fd5b9060005260206000209060109182820401919006600202915054906101000a900461ffff1681565b6114e4604051806101600160405280600060ff16815260200160008152602001600081526020016000815260200160608152602001600081526020016000815260200160008152602001600015158152602001600015158152602001606081525090565b60ff808316600090815260db6020908152604091829020825161016081018452815490941684526001810154918401919091526002810154918301919091526003810154606083015260048101805460808401919061154290615b2f565b80601f016020809104026020016040519081016040528092919081815260200182805461156e90615b2f565b80156115bb5780601f10611590576101008083540402835291602001916115bb565b820191906000526020600020905b81548152906001019060200180831161159e57829003601f168201915b50505091835250506005820154602080830191909152600683015460408084019190915260078401546060840152600884015460ff8082161515608086015261010090910416151560a084015260098401805482518185028101850190935280835260c090940193919290919083018282801561168357602002820191906000526020600020906000905b82829054906101000a900463ffffffff1663ffffffff16815260200190600401906020826003010492830192600103820291508084116116465790505b5050505050815250509050919050565b600054610100900460ff16158080156116b35750600054600160ff909116105b806116d457506116c230614059565b1580156116d4575060005460ff166001145b6117375760405162461bcd60e51b815260206004820152602e60248201527f496e697469616c697a61626c653a20636f6e747261637420697320616c72656160448201526d191e481a5b9a5d1a585b1a5e995960921b6064820152608401610f46565b6000805460ff19166001179055801561175a576000805461ff0019166101001790555b60c980546001600160a01b03191673f594034b9ab80fdb03560ba3e5c8eea0b0ead16817905560cb805461ffff19166103e8179055604080516103a08101825260648152604660208201526032918101829052606081018290526080810182905260a0810182905260c0810182905260e08101829052610100810182905261012081018290526101408101829052610160810182905261018081018290526101a081018290526101c081018290526101e08101829052610200810182905261022081018290526102408101919091526014610260820181905261028082018190526102a082018190526102c082018190526102e0820181905261030082018190526103208201819052610340820181905261036082018190526103808201526118879060ca90601d61502b565b5060cb805462ff0000191662320000179055670de0b6b3a764000060cc5560d2805463ff00ffff1916630200010117905560cf805461ffff60601b1916607d60631b17905563020f580060d055601460d15562278d0060d5556118e8614068565b6118f0614097565b8015610efb576000805461ff0019169055604051600181527f7f26b83ff96e1f2b6a682f133852f6798a09c465da95921460cefb38474024989060200160405180910390a150565b611940613072565b60cb805460ff909216620100000262ff000019909216919091179055565b611966613072565b60d6805460018181019092557fe767803f8ecf1dee6bb0345811f7312cda556058b19db6389ad9ae3568643ddd0180546001600160a01b039093166001600160a01b031990931683179055600091825260d86020526040909120805460ff19169091179055565b6119d5613072565b60405163a9059cbb60e01b8152336004820152602481018290526001600160a01b0383169063a9059cbb906044016020604051808303816000875af1158015611a22573d6000803e3d6000fd5b505050506040513d601f19601f82011682018060405250810190610ae29190615d60565b611a4e613072565b60cb805461ffff191661ffff92909216919091179055565b611a6e613072565b60d75460ff1660005b8160ff168160ff161015611db25760ff808216600090815260db602090815260408083208151610160810183528154909516855260018101549285019290925260028201549084015260038101546060840152600481018054929392608084019190611ae290615b2f565b80601f0160208091040260200160405190810160405280929190818152602001828054611b0e90615b2f565b8015611b5b5780601f10611b3057610100808354040283529160200191611b5b565b820191906000526020600020905b815481529060010190602001808311611b3e57829003601f168201915b50505091835250506005820154602080830191909152600683015460408084019190915260078401546060840152600884015460ff8082161515608086015261010090910416151560a084015260098401805482518185028101850190935280835260c0909401939192909190830182828015611c2357602002820191906000526020600020906000905b82829054906101000a900463ffffffff1663ffffffff1681526020019060040190602082600301049283019260010382029150808411611be65790505b5050505050815250509050806101200151611c3e5750611da0565b610140810151805160cb5460a084015160d35460009263ffffffff85169261ffff90911691611c6d9190615d7d565b611c779190615d94565b611c819190615d94565b905060005b8263ffffffff168163ffffffff161015611d9a57600060d96000868463ffffffff1681518110611cb857611cb8615d29565b602002602001015163ffffffff1663ffffffff16815260200190815260200160002090508560c001518160100154118015611cfb57508060190154816018015411155b15611d875782816018016000828254611d149190615db6565b9250508190555082858363ffffffff1681518110611d3457611d34615d29565b602002602001015163ffffffff167f94b6d3d19cc40938e685ef6a1f6476b53ef65295ab094a044e74405a8d0bd05b8860000151604051611d7e919060ff91909116815260200190565b60405180910390a35b5080611d9281615dc9565b915050611c86565b50505050505b80611daa81615de2565b915050611a77565b5050600060d3554260d455565b63ffffffff808216600090815260d96020908152604080832081516103a081019092528054909416815260018401805493948594929390929084019190611e0590615b2f565b80601f0160208091040260200160405190810160405280929190818152602001828054611e3190615b2f565b8015611e7e5780601f10611e5357610100808354040283529160200191611e7e565b820191906000526020600020905b815481529060010190602001808311611e6157829003601f168201915b5050509183525050600282015460ff811615156020808401919091526101009091046001600160a01b03166040808401919091526003840154606084015260048401546080840152600584015460a084015260068401805482518185028101850190935280835260c0909401939192909190830182828015611f4b57602002820191906000526020600020906000905b82829054906101000a900463ffffffff1663ffffffff1681526020019060040190602082600301049283019260010382029150808411611f0e5790505b5050509183525050600782015463ffffffff166020808301919091526008830180546040805182850281018501825282815294019392830182828015611fdc57602002820191906000526020600020906000905b82829054906101000a900463ffffffff1663ffffffff1681526020019060040190602082600301049283019260010382029150808411611f9f5790505b505050505081526020016009820180548060200260200160405190810160405280929190818152602001828054801561206057602002820191906000526020600020906000905b82829054906101000a900463ffffffff1663ffffffff16815260200190600401906020826003010492830192600103820291508084116120235790505b5050509183525050600a8201546020820152600b8201546040820152600c8201546060820152600d8201546080820152600e82015460a0820152600f82015460c0820152601082015460e08201526011820154610100820152601282015460ff1661012082015260138201546101408201526014820154610160820152601582015461018082015260168201546101a082015260178201546101c082015260188201546101e08201526019820154610200820152601a820154610220820152601b90910154610240909101529050610e96816140be565b60cc543490612145906140fb565b8110156121a85760405162461bcd60e51b815260206004820152602b60248201527f56616c75652073686f756c6420626520677265617465207468656e206d696e4360448201526a37b73a3934b13aba34b7b760a91b6064820152608401610f46565b3360006121b483614191565b60cf5490915042906000906121d790600160401b900463ffffffff166001615e01565b63ffffffff8716600090815260d9602052604090206002810154919250906001600160a01b0386811661010090920416146122245760405162461bcd60e51b8152600401610f4690615e25565b60d25460ff161561223b5761223b8783868661421e565b50505050505050565b63ffffffff8116600090815260d9602052604081208161226384614383565b9050816019015481836018015461227a9190615db6565b11612287578092506122a1565b60008260180154836019015461229d9190615b79565b9350505b5050919050565b6122f46040518060e00160405280600015158152602001600063ffffffff16815260200160008152602001600061ffff1681526020016000815260200160008152602001600081525090565b5063ffffffff908116600090815260da6020908152604091829020825160e081018452815460ff811615158252610100900490941691840191909152600181015491830191909152600281015461ffff16606083015260038101546080830152600481015460a08301526005015460c082015290565b612372613072565b8281146123c15760405162461bcd60e51b815260206004820152601c60248201527f496e707574206c656e677468206469646e6f74206d6174636865642e000000006044820152606401610f46565b60005b61ffff81168411156124765782828261ffff168181106123e6576123e6615d29565b90506020020160208101906123fb919061523e565b63ffffffff16156124645761246485858361ffff1681811061241f5761241f615d29565b9050602002016020810190612434919061523e565b84848461ffff1681811061244a5761244a615d29565b905060200201602081019061245f919061523e565b61445d565b8061246e81615d3f565b9150506123c4565b5050505050565b612485613072565b60005b8b8110156125d75760cf8054600160401b900463ffffffff169060086124ad83615dc9565b91906101000a81548163ffffffff021916908363ffffffff1602179055505060008b8b838181106124e0576124e0615d29565b9050602002013511156125c55760008b8b8381811061250157612501615d29565b9050602002013560036125149190615d7d565b90506125c38e8e8481811061252b5761252b615d29565b9050602002016020810190612540919061523e565b8d8d8581811061255257612552615d29565b905060200201358c8c8681811061256b5761256b615d29565b90506020020135848c8c8881811061258557612585615d29565b905060200201358b8b8981811061259e5761259e615d29565b905060200201358a8a8a8181106125b7576125b7615d29565b905060200201356145e7565b505b806125cf81615e5c565b915050612488565b50505050505050505050505050565b6125ee613072565b610ae260ca83836150d3565b612602613072565b6001600160a01b038116600090815260d860205260408120805460ff1916905560d654905b81811015610ae257826001600160a01b031660d6828154811061264c5761264c615d29565b6000918252602090912001546001600160a01b0316036127115760d6612673600184615b79565b8154811061268357612683615d29565b60009182526020909120015460d680546001600160a01b0390921691839081106126af576126af615d29565b9060005260206000200160006101000a8154816001600160a01b0302191690836001600160a01b0316021790555060d68054806126ee576126ee615e75565b600082815260209020810160001990810180546001600160a01b03191690550190555b8061271b81615e5c565b915050612627565b34600061272f82614191565b905061273c60cc546140fb565b82101561278b5760405162461bcd60e51b815260206004820152601f60248201527f56616c75652073686f756c6420626520677265617465207468656e20313030006044820152606401610f46565b60cf54339042906000906127ad90600160201b900463ffffffff166001615e01565b60cf549091506000906127ce90600160401b900463ffffffff166001615e01565b6001600160a01b038516600090815260d8602052604090209091506127f3838961445d565b60d25460ff161561280a5761280a8383888761421e565b6128318383878961281c816003615d7d565b60cb548a90819062010000900460ff16614756565b6001908101805491820181556000908152602090206008820401805460079092166004026101000a63ffffffff81810219909316949092169190910292909217909155505050505050565b63ffffffff8116600090815260d9602090815260408083206006018054825181850281018501909352808352849383018282801561290557602002820191906000526020600020906000905b82829054906101000a900463ffffffff1663ffffffff16815260200190600401906020826003010492830192600103820291508084116128c85790505b505050505090506000805b82518161ffff16101561298b57600060da6000858461ffff168151811061293957612939615d29565b60209081029190910181015163ffffffff168252810191909152604001600020805490915060ff16156129785760018101546129759084615db6565b92505b508061298381615d3f565b915050612910565b509392505050565b61299b613072565b6001600160a01b038116612a005760405162461bcd60e51b815260206004820152602660248201527f4f776e61626c653a206e6577206f776e657220697320746865207a65726f206160448201526564647265737360d01b6064820152608401610f46565b610efb8161325b565b63ffffffff8216600090815260d960205260409020600281015460ff1615612a665760405162461bcd60e51b815260206004820152601060248201526f4944206973206e6f742061637469766560801b6044820152606401610f46565b600281015461010090046001600160a01b03163314612a975760405162461bcd60e51b8152600401610f4690615e25565b6000612aa282614b58565b6017830154909150612ab48183615b79565b841115612b165760405162461bcd60e51b815260206004820152602a60248201527f506c6561736520656e7465722076616c7565206c657373207468656e20796f7560448201526939103130b630b731b29760b11b6064820152608401610f46565b83836017016000828254612b2a9190615db6565b9091555050604051339085156108fc029086906000818181858888f19350505050158015612b5c573d6000803e3d6000fd5b50826019015461223b84614b58565b612c60604051806103a00160405280600063ffffffff1681526020016060815260200160001515815260200160006001600160a01b0316815260200160008152602001600081526020016000815260200160608152602001600063ffffffff16815260200160608152602001606081526020016000815260200160008152602001600081526020016000815260200160008152602001600081526020016000815260200160008152602001600060ff1681526020016000815260200160008152602001600081526020016000815260200160008152602001600081526020016000815260200160008152602001600081525090565b63ffffffff808316600090815260d9602090815260409182902082516103a081019093528054909316825260018301805492939291840191612ca190615b2f565b80601f0160208091040260200160405190810160405280929190818152602001828054612ccd90615b2f565b8015612d1a5780601f10612cef57610100808354040283529160200191612d1a565b820191906000526020600020905b815481529060010190602001808311612cfd57829003601f168201915b5050509183525050600282015460ff811615156020808401919091526101009091046001600160a01b03166040808401919091526003840154606084015260048401546080840152600584015460a084015260068401805482518185028101850190935280835260c0909401939192909190830182828015612de757602002820191906000526020600020906000905b82829054906101000a900463ffffffff1663ffffffff1681526020019060040190602082600301049283019260010382029150808411612daa5790505b5050509183525050600782015463ffffffff166020808301919091526008830180546040805182850281018501825282815294019392830182828015612e7857602002820191906000526020600020906000905b82829054906101000a900463ffffffff1663ffffffff1681526020019060040190602082600301049283019260010382029150808411612e3b5790505b5050505050815260200160098201805480602002602001604051908101604052809291908181526020018280548015612efc57602002820191906000526020600020906000905b82829054906101000a900463ffffffff1663ffffffff1681526020019060040190602082600301049283019260010382029150808411612ebf5790505b5050509183525050600a8201546020820152600b8201546040820152600c8201546060820152600d8201546080820152600e82015460a0820152600f82015460c0820152601082015460e08201526011820154610100820152601282015460ff1661012082015260138201546101408201526014820154610160820152601582015461018082015260168201546101a082015260178201546101c082015260188201546101e08201526019820154610200820152601a820154610220820152601b909101546102409091015292915050565b6040805180820190915260008152606060208201526001600160a01b038216600090815260d8602090815260409182902082518084018452815460ff161515815260018201805485518186028101860190965280865291949293858101939290830182828015611683576000918252602091829020805463ffffffff1684529082028301929091600491018084116116465790505050505050815250509050919050565b6033546001600160a01b0316331461141b5760405162461bcd60e51b815260206004820181905260248201527f4f776e61626c653a2063616c6c6572206973206e6f7420746865206f776e65726044820152606401610f46565b600080516020615f3f833981519152546001600160a01b031690565b610efb613072565b7f4910fdfa16fed3260ed0e7147f7cc6da11a60208b5b9406d12a635614ffd91435460ff161561312357610ae283614b80565b826001600160a01b03166352d1902d6040518163ffffffff1660e01b8152600401602060405180830381865afa92505050801561317d575060408051601f3d908101601f1916820190925261317a91810190615e8b565b60015b6131e05760405162461bcd60e51b815260206004820152602e60248201527f45524331393637557067726164653a206e657720696d706c656d656e7461746960448201526d6f6e206973206e6f74205555505360901b6064820152608401610f46565b600080516020615f3f833981519152811461324f5760405162461bcd60e51b815260206004820152602960248201527f45524331393637557067726164653a20756e737570706f727465642070726f786044820152681a58589b195555525160ba1b6064820152608401610f46565b50610ae2838383614c1a565b603380546001600160a01b038381166001600160a01b0319831681179093556040519116919082907f8be0079c531659141344cd1fd0a4f28419497f9722a3daafe3b4186f6b6457e090600090a35050565b63ffffffff808216600090815260d96020908152604080832081516103a0810190925280549094168152600184018054939485949293909290840191906132f390615b2f565b80601f016020809104026020016040519081016040528092919081815260200182805461331f90615b2f565b801561336c5780601f106133415761010080835404028352916020019161336c565b820191906000526020600020905b81548152906001019060200180831161334f57829003601f168201915b5050509183525050600282015460ff811615156020808401919091526101009091046001600160a01b03166040808401919091526003840154606084015260048401546080840152600584015460a084015260068401805482518185028101850190935280835260c090940193919290919083018282801561343957602002820191906000526020600020906000905b82829054906101000a900463ffffffff1663ffffffff16815260200190600401906020826003010492830192600103820291508084116133fc5790505b5050509183525050600782015463ffffffff1660208083019190915260088301805460408051828502810185018252828152940193928301828280156134ca57602002820191906000526020600020906000905b82829054906101000a900463ffffffff1663ffffffff168152602001906004019060208260030104928301926001038202915080841161348d5790505b505050505081526020016009820180548060200260200160405190810160405280929190818152602001828054801561354e57602002820191906000526020600020906000905b82829054906101000a900463ffffffff1663ffffffff16815260200190600401906020826003010492830192600103820291508084116135115790505b5050509183525050600a8201546020820152600b8201546040820152600c8201546060820152600d8201546080820152600e82015460a0820152600f82015460c0820152601082015460e08201526011820154610100820152601282015460ff90811661012083015260138301546101408301526014830154610160830152601583015461018083015260168301546101a083015260178301546101c083015260188301546101e08301526019830154610200830152601a830154610220830152601b909201546102409091015260d7549192501660005b8160ff168160ff1610156136c25760ff8116600090815260db602052604090206001015461016084015110801590613678575060ff8116600090815260db60205260409020600201546101a084015110155b801561369e575060ff8116600090815260db60205260409020600301546101e084015110155b156136ab578093506136b0565b6136c2565b806136ba81615de2565b915050613626565b505050919050565b60d9602090815263ffffffff8216600090815260408082206006810180548351818702810187019094528084529394600080516020615f1f833981519152949293869390929183018282801561376b57602002820191906000526020600020906000905b82829054906101000a900463ffffffff1663ffffffff168152602001906004019060208260030104928301926001038202915080841161372e5790505b505050505090506000805b825181101561382b57600060da600085848151811061379757613797615d29565b602002602001015163ffffffff1663ffffffff16815260200190815260200160002090506137dd8483815181106137d0576137d0615d29565b6020026020010151614c45565b6137e79084615db6565b92506137fe8483815181106137d0576137d0615d29565b8160050160008282546138119190615db6565b90915550829150613823905081615e5c565b915050613776565b5082601901548184601801546138419190615db6565b116138d9578083601801600082825461385a9190615db6565b925050819055508083601a0160008282546138759190615db6565b909155505042601b840155601884018054829190600090613897908490615db6565b90915550506040519094508490819063ffffffff8816907f7cd8783637a6bf8d3b4b69973a28720cfb0f5abc55d8b85dde1732d8f22c0efc90600090a361397d565b6000836018015484601901546138ef9190615b79565b9050808763ffffffff167f7cd8783637a6bf8d3b4b69973a28720cfb0f5abc55d8b85dde1732d8f22c0efc60405160405180910390a3836019015484601801819055508084601a0160008282546139469190615db6565b909155505042601b850155601885018054829190600090613968908490615db6565b9250508190555080955061397b84614cfb565b505b50505050919050565b600060ca8054806020026020016040519081016040528092919081815260200182805480156139fc57602002820191906000526020600020906000905b82829054906101000a900461ffff1661ffff16815260200190600201906020826001010492830192600103820291508084116139c35790505b5050835163ffffffff8716600090815260d96020526040812081805295965090949350600080516020615f1f83398151915292509050805b8481101561403657600784015463ffffffff16600081815260d960205260409020600281015461010090046001600160a01b0316613a73575050614036565b600281015460ff1615613aed57604051725265666572657220697320496e61637469766560681b81526013015b604051908190039020613ab4846001615db6565b60405163ffffffff8516907f6bd4a1cb98fe02ede79e45b5749c74ff512165c4fb80ce4045eebef0e4e867dc90600090a4506140249050565b8060190154816018015410613bc8576040517f5265616368656420746865206c696d69742e205265666572657220697320496e815267030b1ba34bb3297160c51b6020820152602801604051908190039020613b4a846001615db6565b60405163ffffffff8516907f6bd4a1cb98fe02ede79e45b5749c74ff512165c4fb80ce4045eebef0e4e867dc90600090a4613b8481614e23565b805460405163ffffffff90911681527fd13a3fe87e20364852910ef677df51f59e843df0dc53fa5449acde0af7ec822d9060200160405180910390a1506140249050565b604080516103a08101909152815463ffffffff168152600182018054613f2692918491602084019190613bfa90615b2f565b80601f0160208091040260200160405190810160405280929190818152602001828054613c2690615b2f565b8015613c735780601f10613c4857610100808354040283529160200191613c73565b820191906000526020600020905b815481529060010190602001808311613c5657829003601f168201915b5050509183525050600282015460ff811615156020808401919091526101009091046001600160a01b03166040808401919091526003840154606084015260048401546080840152600584015460a084015260068401805482518185028101850190935280835260c0909401939192909190830182828015613d4057602002820191906000526020600020906000905b82829054906101000a900463ffffffff1663ffffffff1681526020019060040190602082600301049283019260010382029150808411613d035790505b5050509183525050600782015463ffffffff166020808301919091526008830180546040805182850281018501825282815294019392830182828015613dd157602002820191906000526020600020906000905b82829054906101000a900463ffffffff1663ffffffff1681526020019060040190602082600301049283019260010382029150808411613d945790505b5050505050815260200160098201805480602002602001604051908101604052809291908181526020018280548015613e5557602002820191906000526020600020906000905b82829054906101000a900463ffffffff1663ffffffff1681526020019060040190602082600301049283019260010382029150808411613e185790505b5050509183525050600a8201546020820152600b8201546040820152600c8201546060820152600d8201546080820152600e82015460a0820152600f82015460c0820152601082015460e08201526011820154610100820152601282015460ff1661012082015260138201546101408201526014820154610160820152601582015461018082015260168201546101a082015260178201546101c082015260188201546101e08201526019820154610200820152601a820154610220820152601b90910154610240909101526140be565b613f31846001615db6565b1115613f65576040517f446f776e6c696e65206c6576656c73206c696d697420726561636865640000008152601d01613aa0565b60cb54885160009161ffff16908a9086908110613f8457613f84615d29565b602002602001015161ffff168c613f9b9190615d7d565b613fa59190615d94565b905080826014016000828254613fbb9190615db6565b90915550613fcb90508282614e3b565b613fd58186615db6565b94508063ffffffff808516908c167f516e026aa0a8e23fcb20eebf31df57c3e9df29f305428f45e22d048a8582dfa061400f886001615db6565b60405190815260200160405180910390a45050505b8061402e81615e5c565b915050613a34565b508082601401600082825461404b9190615db6565b909155505050505050505050565b6001600160a01b03163b151590565b600054610100900460ff1661408f5760405162461bcd60e51b8152600401610f4690615ea4565b61141b614e73565b600054610100900460ff1661141b5760405162461bcd60e51b8152600401610f4690615ea4565b61012081015151600090818115610e965760d2546001906140e9906301000000900460ff1684615d7d565b6140f39190615b79565b949350505050565b60008060c960009054906101000a90046001600160a01b03166001600160a01b031663e1aa60366040518163ffffffff1660e01b8152600401602060405180830381865afa158015614151573d6000803e3d6000fd5b505050506040513d601f19601f820116820180604052508101906141759190615e8b565b61418784670de0b6b3a7640000615d7d565b610e969190615d94565b600080670de0b6b3a764000060c960009054906101000a90046001600160a01b03166001600160a01b031663e1aa60366040518163ffffffff1660e01b8152600401602060405180830381865afa1580156141f0573d6000803e3d6000fd5b505050506040513d601f19601f820116820180604052508101906142149190615e8b565b6141879085615d7d565b63ffffffff838116600081815260da6020908152604080832089861680855260d984529184208154600164ffffffffff1990911661010094850217811783558083018a905560cf8054600285018054600160601b90920461ffff1661ffff19909216919091179055600384018a905560d0546004808601919091556006840180548085018255908952968820600880890490910180546007998a168402890a808e0219909116908c021790557f665fecb6766038646257fb3193371280b91d4ee69f1071872c4c7b974431a48e805494850181559098527fc8603854b1d3ddadaf293944c48ee514c510733f3cc1a6765bf9de45489a2d91888404018054939097160290940a8089021990911696029590951790925580549194600080516020615f1f83398151915293600160401b909304169161435b83615dc9565b91906101000a81548163ffffffff021916908363ffffffff1602179055505050505050505050565b63ffffffff8116600090815260d9602090815260408083206006018054825181850281018501909352808352849383018282801561440c57602002820191906000526020600020906000905b82829054906101000a900463ffffffff1663ffffffff16815260200190600401906020826003010492830192600103820291508084116143cf5790505b505083519394506000925050505b818161ffff1610156136c25761443f838261ffff16815181106137d0576137d0615d29565b6144499085615db6565b93508061445581615d3f565b91505061441a565b63ffffffff828116600081815260d9602052604080822060078101805463ffffffff191695871695861790559051909392917f9d714438ba618019cc2b8621dcd2550337e162be58654470ea30d48479fe832091a360cb5462010000900460ff1660005b8160ff1681101561247657600783015463ffffffff16600090815260d9602052604081209082900361452f576008818101805460018101825560009182526020909120918104909101805460079092166004026101000a63ffffffff81810219909316928916029190911790555b835463ffffffff166000036145445750612476565b600981018054600181018255600091825260209182902060088204018054600792831660040261010090810a63ffffffff818102199093168c84169182021790935560028601549389015460405190831681529294918a1693046001600160a01b0316917fa7fafc728ec30e34dc1e1276496bf3eb44ca7494679da969455289e6a8f0f1f6910160405180910390a49250806145df81615e5c565b9150506144c1565b63ffffffff8716600090815260d96020526040902060cb546003820184905560048201839055600b82018890556014820187905560178201859055601882018790556019820186905560d25460ff6201000090920482169116156146625760cf54614662908a90600160401b900463ffffffff168a8661421e565b60005b8160ff168160ff16101561474a57600783015463ffffffff908116600081815260d9602052604081208054929390921690036146a257505061474a565b8260ff166000036146c7578a81600d0160008282546146c19190615db6565b90915550505b8a81600f0160008282546146db9190615db6565b92505081905550806009018c90806001815401808255809150506001900390600052602060002090600891828204019190066004029091909190916101000a81548163ffffffff021916908363ffffffff1602179055508094505050808061474290615de2565b915050614665565b50505050505050505050565b63ffffffff808916600081815260d96020908152604082206002810180546001600160a01b038d16610100908102610100600160a81b031990921691909117909155600682018054600181018255908552928420600884040180548e881660046007909616860290930a928302929097021990961617909455600384018790558301859055825463ffffffff1916909117825560198201869055600a82018054889290614804908490615db6565b90915550600090505b8260ff168160ff161015614b1057600782015463ffffffff16600081815260d960205260409020600281015461010090046001600160a01b0316614852575050614b10565b8260ff16600003614877578881600c0160008282546148719190615db6565b90915550505b8881600e01600082825461488b9190615db6565b9091555050601281015460ff166148a1836132ad565b60ff161115614abd576148b3826132ad565b60128201805460ff191660ff9283169081178255600090815260db6020908152604080832060099081018054600181810183559186529385206008850401805460079095166004026101000a63ffffffff81810219909616958b16029490941790935593549094168252929020015461492c9190615b79565b6013820181905560128201546040805163ffffffff86168152602081019390935260ff90911682820152517fb0d3a9c683344e744a1ae3db383f75a8a01851282c5fe97d6159c1392a2e2a0a9181900360600190a160db600061498e846132ad565b60ff908116825260208201929092526040016000206008015461010090041615614a295760db60006149bf846132ad565b60ff1660ff1681526020019081526020016000206007015481601101546149e69190615db6565b421115614a155742816011018190555088816010016000828254614a0a9190615db6565b90915550614abd9050565b88816010016000828254614a0a9190615db6565b60d254610100900460ff1615614abd57601281015460ff16600090815260db6020526040902060050154614a5e908290614e3b565b601281015460ff908116600090815260db602090815260409182902060058101549054925192909316825263ffffffff8516917f94b6d3d19cc40938e685ef6a1f6476b53ef65295ab094a044e74405a8d0bd05b910160405180910390a35b60d55460d454614acd9190615db6565b421115614ae2574260d45560d3899055614afa565b8860d36000828254614af49190615db6565b90915550505b9250819050614b0881615de2565b91505061480d565b5060cf8054600160201b900463ffffffff16906004614b2e83615dc9565b91906101000a81548163ffffffff021916908363ffffffff16021790555050505050505050505050565b6000816019015482601801541015614b74578160180154614b7a565b81601901545b92915050565b614b8981614059565b614beb5760405162461bcd60e51b815260206004820152602d60248201527f455243313936373a206e657720696d706c656d656e746174696f6e206973206e60448201526c1bdd08184818dbdb9d1c9858dd609a1b6064820152608401610f46565b600080516020615f3f83398151915280546001600160a01b0319166001600160a01b0392909216919091179055565b614c2383614ea3565b600082511180614c305750805b15610ae257614c3f8383614ee3565b50505050565b63ffffffff8116600090815260da60205260408120805460ff1615614cf05760d05460cb5460cf5460018401544293600093909261ffff91821692614c9592600160601b90920490911690615d7d565b614c9f9190615d94565b614ca99190615d94565b90506000836003015483614cbd9190615b79565b90508360050154614cd2828660040154614fd5565b614cdc9084615d7d565b614ce69190615b79565b9450505050614cf5565b600091505b50919050565b600081600601805480602002602001604051908101604052809291908181526020018280548015614d7757602002820191906000526020600020906000905b82829054906101000a900463ffffffff1663ffffffff1681526020019060040190602082600301049283019260010382029150808411614d3a5790505b5050505050905060005b8151811015610ae25760da6000838381518110614da057614da0615d29565b60209081029190910181015163ffffffff1682528101919091526040016000205460ff1615614e1157600060da6000848481518110614de157614de1615d29565b60209081029190910181015163ffffffff168252810191909152604001600020805460ff19169115159190911790555b80614e1b81615e5c565b915050614d81565b60028101805460ff19166001179055610efb81614cfb565b8160190154818360180154614e509190615db6565b10614e6357601982015460188301555050565b808260180154610ae29190615db6565b600054610100900460ff16614e9a5760405162461bcd60e51b8152600401610f4690615ea4565b61141b3361325b565b614eac81614b80565b6040516001600160a01b038216907fbc7cd75a20ee27fd9adebab32041f755214dbc6bffa90cc0225b39da2e5c2d3b90600090a250565b6060614eee83614059565b614f495760405162461bcd60e51b815260206004820152602660248201527f416464726573733a2064656c65676174652063616c6c20746f206e6f6e2d636f6044820152651b9d1c9858dd60d21b6064820152608401610f46565b600080846001600160a01b031684604051614f649190615eef565b600060405180830381855af49150503d8060008114614f9f576040519150601f19603f3d011682016040523d82523d6000602084013e614fa4565b606091505b5091509150614fcc8282604051806060016040528060278152602001615f5f60279139614fed565b95945050505050565b600081831115614fe6575080614b7a565b5090919050565b60608315614ffc575081610e96565b610e9683838151156150115781518083602001fd5b8060405162461bcd60e51b8152600401610f469190615f0b565b82805482825590600052602060002090600f016010900481019282156150c35791602002820160005b8382111561509357835183826101000a81548161ffff021916908360ff1602179055509260200192600201602081600101049283019260010302615054565b80156150c15782816101000a81549061ffff0219169055600201602081600101049283019260010302615093565b505b506150cf92915061513e565b5090565b82805482825590600052602060002090600f016010900481019282156150c35791602002820160005b8382111561509357833560ff1683826101000a81548161ffff021916908360ff16021790555092602001926002016020816001010492830192600103026150fc565b5b808211156150cf576000815560010161513f565b803560ff8116811461516457600080fd5b919050565b60006020828403121561517b57600080fd5b610e9682615153565b6020808252825182820181905260009190848201906040850190845b818110156151c257835163ffffffff16835292840192918401916001016151a0565b50909695505050505050565b80356001600160a01b038116811461516457600080fd5b600080604083850312156151f857600080fd5b615201836151ce565b946020939093013593505050565b60006020828403121561522157600080fd5b610e96826151ce565b803563ffffffff8116811461516457600080fd5b60006020828403121561525057600080fd5b610e968261522a565b60006020828403121561526b57600080fd5b5035919050565b634e487b7160e01b600052604160045260246000fd5b604051601f8201601f191681016001600160401b03811182821017156152b0576152b0615272565b604052919050565b60006001600160401b038311156152d1576152d1615272565b6152e4601f8401601f1916602001615288565b90508281528383830111156152f857600080fd5b828260208301376000602084830101529392505050565b600082601f83011261532057600080fd5b610e96838335602085016152b8565b8015158114610efb57600080fd5b60008060008060008060008060006101208a8c03121561535c57600080fd5b6153658a615153565b985060208a0135975060408a0135965060608a0135955060808a01356001600160401b0381111561539557600080fd5b6153a18c828d0161530f565b95505060a08a0135935060c08a0135925060e08a013591506101008a01356153c88161532f565b809150509295985092959850929598565b600080604083850312156153ec57600080fd5b6153f5836151ce565b915060208301356001600160401b0381111561541057600080fd5b8301601f8101851361542157600080fd5b615430858235602084016152b8565b9150509250929050565b60008083601f84011261544c57600080fd5b5081356001600160401b0381111561546357600080fd5b6020830191508360208260051b850101111561547e57600080fd5b9250929050565b60008060008060006060868803121561549d57600080fd5b85356001600160401b03808211156154b457600080fd5b6154c089838a0161543a565b90975095506020915087820135818111156154da57600080fd5b6154e68a828b0161543a565b9096509450506040880135818111156154fe57600080fd5b8801601f81018a1361550f57600080fd5b80358281111561552157615521615272565b8060051b615530858201615288565b918252828101850191858101908d84111561554a57600080fd5b86850192505b83831015615586578235868111156155685760008081fd5b6155768f898389010161530f565b8352509186019190860190615550565b809750505050505050509295509295909350565b60005b838110156155b557818101518382015260200161559d565b50506000910152565b600081518084526155d681602086016020860161559a565b601f01601f19169290920160200192915050565b600081518084526020808501945080840160005b8381101561562057815163ffffffff16875295820195908201906001016155fe565b509495945050505050565b6020815261563f60208201835160ff169052565b602082015160408201526040820151606082015260608201516080820152600060808301516101608060a085015261567b6101808501836155be565b915060a085015160c085015260c085015160e085015260e08501516101008181870152808701519150506101206156b58187018315159052565b86015190506101406156ca8682018315159052565b860151858403601f19018387015290506156e483826155ea565b9695505050505050565b60006020828403121561570057600080fd5b813561ffff81168114610e9657600080fd5b6000806000806040858703121561572857600080fd5b84356001600160401b038082111561573f57600080fd5b61574b8883890161543a565b9096509450602087013591508082111561576457600080fd5b506157718782880161543a565b95989497509550505050565b60008060008060008060008060008060008060c08d8f03121561579f57600080fd5b6001600160401b038d3511156157b457600080fd5b6157c18e8e358f0161543a565b909c509a506001600160401b0360208e013511156157de57600080fd5b6157ee8e60208f01358f0161543a565b909a5098506001600160401b0360408e0135111561580b57600080fd5b61581b8e60408f01358f0161543a565b90985096506001600160401b0360608e0135111561583857600080fd5b6158488e60608f01358f0161543a565b90965094506001600160401b0360808e0135111561586557600080fd5b6158758e60808f01358f0161543a565b90945092506001600160401b0360a08e0135111561589257600080fd5b6158a28e60a08f01358f0161543a565b81935080925050509295989b509295989b509295989b565b600080602083850312156158cd57600080fd5b82356001600160401b038111156158e357600080fd5b6158ef8582860161543a565b90969095509350505050565b6000806040838503121561590e57600080fd5b6152018361522a565b6020815261592e60208201835163ffffffff169052565b600060208301516103a080604085015261594c6103c08501836155be565b91506040850151615961606086018215159052565b5060608501516001600160a01b038116608086015250608085015160a085015260a085015160c085015260c085015160e085015260e0850151601f196101008187860301818801526159b385846155ea565b9450808801519250506101206159d08188018463ffffffff169052565b808801519250506101408187860301818801526159ed85846155ea565b945080880151925050610160818786030181880152615a0c85846155ea565b90880151610180888101919091528801516101a0808901919091528801516101c0808901919091528801516101e0808901919091528801516102008089019190915288015161022080890191909152880151610240808901919091528801516102608089019190915288015190945091506102809050615a908187018360ff169052565b8601516102a0868101919091528601516102c0808701919091528601516102e08087019190915286015161030080870191909152860151610320808701919091528601516103408087019190915286015161036080870191909152860151610380808701919091529095015193019290925250919050565b60208152815115156020820152600060208301516040808401526140f360608401826155ea565b600181811c90821680615b4357607f821691505b602082108103614cf557634e487b7160e01b600052602260045260246000fd5b634e487b7160e01b600052601160045260246000fd5b81810381811115614b7a57614b7a615b63565b6020808252602c908201527f46756e6374696f6e206d7573742062652063616c6c6564207468726f7567682060408201526b19195b1959d85d1958d85b1b60a21b606082015260800190565b6020808252602c908201527f46756e6374696f6e206d7573742062652063616c6c6564207468726f7567682060408201526b6163746976652070726f787960a01b606082015260800190565b601f821115610ae257600081815260208120601f850160051c81016020861015615c4b5750805b601f850160051c820191505b8181101561140157828155600101615c57565b81516001600160401b03811115615c8357615c83615272565b615c9781615c918454615b2f565b84615c24565b602080601f831160018114615ccc5760008415615cb45750858301515b600019600386901b1c1916600185901b178555611401565b600085815260208120601f198616915b82811015615cfb57888601518255948401946001909101908401615cdc565b5085821015615d195787850151600019600388901b60f8161c191681555b5050505050600190811b01905550565b634e487b7160e01b600052603260045260246000fd5b600061ffff808316818103615d5657615d56615b63565b6001019392505050565b600060208284031215615d7257600080fd5b8151610e968161532f565b8082028115828204841417614b7a57614b7a615b63565b600082615db157634e487b7160e01b600052601260045260246000fd5b500490565b80820180821115614b7a57614b7a615b63565b600063ffffffff808316818103615d5657615d56615b63565b600060ff821660ff8103615df857615df8615b63565b60010192915050565b63ffffffff818116838216019080821115615e1e57615e1e615b63565b5092915050565b6020808252601d908201527f596f7520617265206e6f74206f776e6572206f6620746869732069642e000000604082015260600190565b600060018201615e6e57615e6e615b63565b5060010190565b634e487b7160e01b600052603160045260246000fd5b600060208284031215615e9d57600080fd5b5051919050565b6020808252602b908201527f496e697469616c697a61626c653a20636f6e7472616374206973206e6f74206960408201526a6e697469616c697a696e6760a81b606082015260800190565b60008251615f0181846020870161559a565b9190910192915050565b602081526000610e9660208301846155be56fe665fecb6766038646257fb3193371280b91d4ee69f1071872c4c7b974431a488360894a13ba1a3210667c828492db98dca3e2076cc3735a920a3ca505d382bbc416464726573733a206c6f772d6c6576656c2064656c65676174652063616c6c206661696c6564a26469706673582212201ae96c55f6f66e928d3eea367761e0ecbcf68e764455c21bf9c5cc99beac3c6e64736f6c63430008110033",
  "linkReferences": {},
  "deployedLinkReferences": {}
}