{
  "_format": "hh-sol-artifact-1",
  "contractName": "ReferralV2Upgradeable",
  "sourceName": "contracts/ReferralV2Upgradeable.sol",
  "abi": [
    {
      "anonymous": false,
      "inputs": [
        {
          "indexed": false,
          "internalType": "address",
          "name": "ownerAddress",
          "type": "address"
        },
        {
          "indexed": false,
          "internalType": "uint256",
          "name": "id",
          "type": "uint256"
        },
        {
          "indexed": false,
          "internalType": "uint256",
          "name": "idIndex",
          "type": "uint256"
        }
      ],
      "name": "AccountInfoIDAttached",
      "type": "event"
    },
    {
      "anonymous": false,
      "inputs": [
        {
          "indexed": false,
          "internalType": "uint256",
          "name": "userID",
          "type": "uint256"
        },
        {
          "indexed": false,
          "internalType": "uint256",
          "name": "index",
          "type": "uint256"
        },
        {
          "indexed": false,
          "internalType": "uint256",
          "name": "rank",
          "type": "uint256"
        }
      ],
      "name": "AddedInRoyaltyClubList",
      "type": "event"
    },
    {
      "anonymous": false,
      "inputs": [
        {
          "indexed": false,
          "internalType": "address",
          "name": "previousAdmin",
          "type": "address"
        },
        {
          "indexed": false,
          "internalType": "address",
          "name": "newAdmin",
          "type": "address"
        }
      ],
      "name": "AdminChanged",
      "type": "event"
    },
    {
      "anonymous": false,
      "inputs": [
        {
          "indexed": true,
          "internalType": "address",
          "name": "beacon",
          "type": "address"
        }
      ],
      "name": "BeaconUpgraded",
      "type": "event"
    },
    {
      "anonymous": false,
      "inputs": [
        {
          "indexed": false,
          "internalType": "uint256",
          "name": "id",
          "type": "uint256"
        },
        {
          "indexed": false,
          "internalType": "string",
          "name": "reason",
          "type": "string"
        }
      ],
      "name": "IDDeactivated",
      "type": "event"
    },
    {
      "anonymous": false,
      "inputs": [
        {
          "indexed": false,
          "internalType": "uint8",
          "name": "version",
          "type": "uint8"
        }
      ],
      "name": "Initialized",
      "type": "event"
    },
    {
      "anonymous": false,
      "inputs": [
        {
          "indexed": true,
          "internalType": "address",
          "name": "previousOwner",
          "type": "address"
        },
        {
          "indexed": true,
          "internalType": "address",
          "name": "newOwner",
          "type": "address"
        }
      ],
      "name": "OwnershipTransferred",
      "type": "event"
    },
    {
      "anonymous": false,
      "inputs": [
        {
          "indexed": false,
          "internalType": "uint256",
          "name": "packageID",
          "type": "uint256"
        }
      ],
      "name": "PackageAdded",
      "type": "event"
    },
    {
      "anonymous": false,
      "inputs": [
        {
          "indexed": false,
          "internalType": "uint256",
          "name": "packageID",
          "type": "uint256"
        }
      ],
      "name": "PackageRemoved",
      "type": "event"
    },
    {
      "anonymous": false,
      "inputs": [
        {
          "indexed": false,
          "internalType": "uint256",
          "name": "packageID",
          "type": "uint256"
        }
      ],
      "name": "PackageUpdated",
      "type": "event"
    },
    {
      "anonymous": false,
      "inputs": [
        {
          "indexed": true,
          "internalType": "uint256",
          "name": "userID",
          "type": "uint256"
        },
        {
          "indexed": true,
          "internalType": "uint256",
          "name": "reward",
          "type": "uint256"
        }
      ],
      "name": "ROIClaimed",
      "type": "event"
    },
    {
      "anonymous": false,
      "inputs": [
        {
          "indexed": true,
          "internalType": "uint256",
          "name": "refererID",
          "type": "uint256"
        },
        {
          "indexed": true,
          "internalType": "uint256",
          "name": "level",
          "type": "uint256"
        },
        {
          "indexed": true,
          "internalType": "string",
          "name": "reason",
          "type": "string"
        }
      ],
      "name": "ReferralNotPaid",
      "type": "event"
    },
    {
      "anonymous": false,
      "inputs": [
        {
          "indexed": true,
          "internalType": "uint256",
          "name": "refereeID",
          "type": "uint256"
        },
        {
          "indexed": true,
          "internalType": "uint256",
          "name": "referrerID",
          "type": "uint256"
        },
        {
          "indexed": true,
          "internalType": "uint256",
          "name": "amount",
          "type": "uint256"
        },
        {
          "indexed": false,
          "internalType": "uint256",
          "name": "level",
          "type": "uint256"
        }
      ],
      "name": "ReferralRewardPaid",
      "type": "event"
    },
    {
      "anonymous": false,
      "inputs": [
        {
          "indexed": true,
          "internalType": "address",
          "name": "refereeID",
          "type": "address"
        },
        {
          "indexed": true,
          "internalType": "address",
          "name": "referrerID",
          "type": "address"
        },
        {
          "indexed": true,
          "internalType": "string",
          "name": "reason",
          "type": "string"
        }
      ],
      "name": "RegisterRefererFailed",
      "type": "event"
    },
    {
      "anonymous": false,
      "inputs": [
        {
          "indexed": true,
          "internalType": "uint256",
          "name": "id",
          "type": "uint256"
        },
        {
          "indexed": true,
          "internalType": "uint256",
          "name": "refererID",
          "type": "uint256"
        }
      ],
      "name": "RegisteredReferer",
      "type": "event"
    },
    {
      "anonymous": false,
      "inputs": [
        {
          "indexed": true,
          "internalType": "address",
          "name": "parent",
          "type": "address"
        },
        {
          "indexed": false,
          "internalType": "uint256",
          "name": "parentAccountID",
          "type": "uint256"
        },
        {
          "indexed": true,
          "internalType": "uint256",
          "name": "referrerID",
          "type": "uint256"
        },
        {
          "indexed": true,
          "internalType": "uint256",
          "name": "refereeID",
          "type": "uint256"
        }
      ],
      "name": "RegisteredTeamAddress",
      "type": "event"
    },
    {
      "anonymous": false,
      "inputs": [
        {
          "indexed": false,
          "internalType": "uint256",
          "name": "packageID",
          "type": "uint256"
        },
        {
          "indexed": true,
          "internalType": "uint256",
          "name": "userID",
          "type": "uint256"
        },
        {
          "indexed": true,
          "internalType": "uint256",
          "name": "amount",
          "type": "uint256"
        }
      ],
      "name": "RoyaltyClubBonusPaid",
      "type": "event"
    },
    {
      "anonymous": false,
      "inputs": [
        {
          "indexed": true,
          "internalType": "address",
          "name": "implementation",
          "type": "address"
        }
      ],
      "name": "Upgraded",
      "type": "event"
    },
    {
      "inputs": [
        {
          "internalType": "uint256",
          "name": "",
          "type": "uint256"
        }
      ],
      "name": "_disabledUsersList",
      "outputs": [
        {
          "internalType": "address",
          "name": "",
          "type": "address"
        }
      ],
      "stateMutability": "view",
      "type": "function"
    },
    {
      "inputs": [
        {
          "internalType": "uint32",
          "name": "_refererID",
          "type": "uint32"
        }
      ],
      "name": "activateID",
      "outputs": [],
      "stateMutability": "payable",
      "type": "function"
    },
    {
      "inputs": [
        {
          "internalType": "uint32",
          "name": "_userID",
          "type": "uint32"
        }
      ],
      "name": "addTeamAddress",
      "outputs": [],
      "stateMutability": "nonpayable",
      "type": "function"
    },
    {
      "inputs": [
        {
          "internalType": "uint32",
          "name": "_id",
          "type": "uint32"
        },
        {
          "internalType": "uint256",
          "name": "_valueInUSD",
          "type": "uint256"
        }
      ],
      "name": "claimBalance",
      "outputs": [],
      "stateMutability": "nonpayable",
      "type": "function"
    },
    {
      "inputs": [],
      "name": "companyTurnoverTimeLimit",
      "outputs": [
        {
          "internalType": "uint256",
          "name": "",
          "type": "uint256"
        }
      ],
      "stateMutability": "view",
      "type": "function"
    },
    {
      "inputs": [],
      "name": "companyTurnoverTimeStamp",
      "outputs": [
        {
          "internalType": "uint256",
          "name": "",
          "type": "uint256"
        }
      ],
      "stateMutability": "view",
      "type": "function"
    },
    {
      "inputs": [],
      "name": "companyTurnoverWithTimeLimit",
      "outputs": [
        {
          "internalType": "uint256",
          "name": "",
          "type": "uint256"
        }
      ],
      "stateMutability": "view",
      "type": "function"
    },
    {
      "inputs": [],
      "name": "decimals",
      "outputs": [
        {
          "internalType": "uint16",
          "name": "",
          "type": "uint16"
        }
      ],
      "stateMutability": "view",
      "type": "function"
    },
    {
      "inputs": [
        {
          "internalType": "address",
          "name": "_userAddress",
          "type": "address"
        }
      ],
      "name": "disableUserAdmin",
      "outputs": [],
      "stateMutability": "nonpayable",
      "type": "function"
    },
    {
      "inputs": [
        {
          "internalType": "uint32",
          "name": "_id",
          "type": "uint32"
        }
      ],
      "name": "getIDAccount",
      "outputs": [
        {
          "components": [
            {
              "internalType": "uint32",
              "name": "id",
              "type": "uint32"
            },
            {
              "internalType": "string",
              "name": "oldID",
              "type": "string"
            },
            {
              "internalType": "bool",
              "name": "isDisabled",
              "type": "bool"
            },
            {
              "internalType": "address",
              "name": "owner",
              "type": "address"
            },
            {
              "internalType": "uint256",
              "name": "joiningTime",
              "type": "uint256"
            },
            {
              "internalType": "uint256",
              "name": "activationTime",
              "type": "uint256"
            },
            {
              "internalType": "uint256",
              "name": "deactivateTime",
              "type": "uint256"
            },
            {
              "internalType": "uint32[]",
              "name": "roiIDs",
              "type": "uint32[]"
            },
            {
              "internalType": "uint32",
              "name": "refererID",
              "type": "uint32"
            },
            {
              "internalType": "uint32[]",
              "name": "refereeIDs",
              "type": "uint32[]"
            },
            {
              "internalType": "uint32[]",
              "name": "teamIDs",
              "type": "uint32[]"
            },
            {
              "internalType": "uint32[]",
              "name": "teamLevel",
              "type": "uint32[]"
            },
            {
              "internalType": "uint256",
              "name": "selfBusinessUSD",
              "type": "uint256"
            },
            {
              "internalType": "uint256",
              "name": "selfBusinessUSDOld",
              "type": "uint256"
            },
            {
              "internalType": "uint256",
              "name": "directBusinessUSD",
              "type": "uint256"
            },
            {
              "internalType": "uint256",
              "name": "directBusinessUSDOld",
              "type": "uint256"
            },
            {
              "internalType": "uint256",
              "name": "teamBusinessUSD",
              "type": "uint256"
            },
            {
              "internalType": "uint256",
              "name": "teamBusinessUSDOld",
              "type": "uint256"
            },
            {
              "internalType": "uint256",
              "name": "royaltyClubBusinessUSD",
              "type": "uint256"
            },
            {
              "internalType": "uint256",
              "name": "timeStampRoyaltyClub",
              "type": "uint256"
            },
            {
              "internalType": "uint8",
              "name": "royaltyClubPackageID",
              "type": "uint8"
            },
            {
              "internalType": "uint256",
              "name": "royaltyClubListIndex",
              "type": "uint256"
            },
            {
              "internalType": "uint256",
              "name": "referralPaidUSD",
              "type": "uint256"
            },
            {
              "internalType": "uint256",
              "name": "rewardPaidRoyaltyClubUSD",
              "type": "uint256"
            },
            {
              "internalType": "uint256",
              "name": "topUpUSD",
              "type": "uint256"
            },
            {
              "internalType": "uint256",
              "name": "balanceClaimedUSD",
              "type": "uint256"
            },
            {
              "internalType": "uint256",
              "name": "limitBalanceUSD",
              "type": "uint256"
            },
            {
              "internalType": "uint256",
              "name": "maxLimitAmount",
              "type": "uint256"
            },
            {
              "internalType": "uint256",
              "name": "totalROIClaimedUSD",
              "type": "uint256"
            },
            {
              "internalType": "uint256",
              "name": "roiClaimedUSD",
              "type": "uint256"
            },
            {
              "internalType": "uint256",
              "name": "roiClaimTimestamp",
              "type": "uint256"
            }
          ],
          "internalType": "struct ReferralV2Upgradeable.StructID",
          "name": "",
          "type": "tuple"
        }
      ],
      "stateMutability": "view",
      "type": "function"
    },
    {
      "inputs": [
        {
          "internalType": "uint32",
          "name": "_id",
          "type": "uint32"
        }
      ],
      "name": "getIDRoyaltyClubLevel",
      "outputs": [
        {
          "internalType": "uint256",
          "name": "",
          "type": "uint256"
        }
      ],
      "stateMutability": "view",
      "type": "function"
    },
    {
      "inputs": [],
      "name": "getPriceOracleContract",
      "outputs": [
        {
          "internalType": "address",
          "name": "",
          "type": "address"
        }
      ],
      "stateMutability": "view",
      "type": "function"
    },
    {
      "inputs": [
        {
          "internalType": "uint32",
          "name": "_roiID",
          "type": "uint32"
        }
      ],
      "name": "getROIAccount",
      "outputs": [
        {
          "components": [
            {
              "internalType": "bool",
              "name": "isActive",
              "type": "bool"
            },
            {
              "internalType": "uint32",
              "name": "ownerID",
              "type": "uint32"
            },
            {
              "internalType": "uint256",
              "name": "valueInUSD",
              "type": "uint256"
            },
            {
              "internalType": "uint16",
              "name": "roiRate",
              "type": "uint16"
            },
            {
              "internalType": "uint256",
              "name": "startTime",
              "type": "uint256"
            },
            {
              "internalType": "uint256",
              "name": "duration",
              "type": "uint256"
            }
          ],
          "internalType": "struct ReferralV2Upgradeable.StructROI",
          "name": "",
          "type": "tuple"
        }
      ],
      "stateMutability": "view",
      "type": "function"
    },
    {
      "inputs": [
        {
          "internalType": "address",
          "name": "_address",
          "type": "address"
        }
      ],
      "name": "getUserAccount",
      "outputs": [
        {
          "components": [
            {
              "internalType": "bool",
              "name": "isDisabled",
              "type": "bool"
            },
            {
              "internalType": "uint32[]",
              "name": "accountIDs",
              "type": "uint32[]"
            }
          ],
          "internalType": "struct ReferralV2Upgradeable.StructAccount",
          "name": "",
          "type": "tuple"
        }
      ],
      "stateMutability": "view",
      "type": "function"
    },
    {
      "inputs": [
        {
          "internalType": "uint32",
          "name": "_id",
          "type": "uint32"
        }
      ],
      "name": "getUserIDTotalROI",
      "outputs": [
        {
          "internalType": "uint256",
          "name": "roi",
          "type": "uint256"
        }
      ],
      "stateMutability": "view",
      "type": "function"
    },
    {
      "inputs": [
        {
          "internalType": "uint32",
          "name": "_id",
          "type": "uint32"
        }
      ],
      "name": "getUserTotalActiveROIValue",
      "outputs": [
        {
          "internalType": "uint256",
          "name": "",
          "type": "uint256"
        }
      ],
      "stateMutability": "view",
      "type": "function"
    },
    {
      "inputs": [
        {
          "internalType": "uint32",
          "name": "_id",
          "type": "uint32"
        }
      ],
      "name": "getUserUnlockCount",
      "outputs": [
        {
          "internalType": "uint256",
          "name": "",
          "type": "uint256"
        }
      ],
      "stateMutability": "view",
      "type": "function"
    },
    {
      "inputs": [],
      "name": "initialize",
      "outputs": [],
      "stateMutability": "nonpayable",
      "type": "function"
    },
    {
      "inputs": [],
      "name": "isPayROI",
      "outputs": [
        {
          "internalType": "bool",
          "name": "",
          "type": "bool"
        }
      ],
      "stateMutability": "view",
      "type": "function"
    },
    {
      "inputs": [],
      "name": "isPayRoyaltyClubBonus",
      "outputs": [
        {
          "internalType": "bool",
          "name": "",
          "type": "bool"
        }
      ],
      "stateMutability": "view",
      "type": "function"
    },
    {
      "inputs": [
        {
          "internalType": "address",
          "name": "_userAddress",
          "type": "address"
        }
      ],
      "name": "isUserDisabledByAdmin",
      "outputs": [
        {
          "internalType": "bool",
          "name": "",
          "type": "bool"
        }
      ],
      "stateMutability": "view",
      "type": "function"
    },
    {
      "inputs": [
        {
          "internalType": "uint256",
          "name": "",
          "type": "uint256"
        }
      ],
      "name": "levelRates",
      "outputs": [
        {
          "internalType": "uint16",
          "name": "",
          "type": "uint16"
        }
      ],
      "stateMutability": "view",
      "type": "function"
    },
    {
      "inputs": [],
      "name": "maxLevelsCount",
      "outputs": [
        {
          "internalType": "uint8",
          "name": "",
          "type": "uint8"
        }
      ],
      "stateMutability": "view",
      "type": "function"
    },
    {
      "inputs": [],
      "name": "minContributionInUSD",
      "outputs": [
        {
          "internalType": "uint256",
          "name": "",
          "type": "uint256"
        }
      ],
      "stateMutability": "view",
      "type": "function"
    },
    {
      "inputs": [],
      "name": "owner",
      "outputs": [
        {
          "internalType": "address",
          "name": "",
          "type": "address"
        }
      ],
      "stateMutability": "view",
      "type": "function"
    },
    {
      "inputs": [],
      "name": "packagesCount",
      "outputs": [
        {
          "internalType": "uint8",
          "name": "",
          "type": "uint8"
        }
      ],
      "stateMutability": "view",
      "type": "function"
    },
    {
      "inputs": [],
      "name": "proxiableUUID",
      "outputs": [
        {
          "internalType": "bytes32",
          "name": "",
          "type": "bytes32"
        }
      ],
      "stateMutability": "view",
      "type": "function"
    },
    {
      "inputs": [
        {
          "internalType": "address",
          "name": "_userAddress",
          "type": "address"
        }
      ],
      "name": "removeUserFromDisableList",
      "outputs": [],
      "stateMutability": "nonpayable",
      "type": "function"
    },
    {
      "inputs": [],
      "name": "renounceOwnership",
      "outputs": [],
      "stateMutability": "nonpayable",
      "type": "function"
    },
    {
      "inputs": [],
      "name": "royaltyClubPackageCount",
      "outputs": [
        {
          "internalType": "uint8",
          "name": "",
          "type": "uint8"
        }
      ],
      "stateMutability": "view",
      "type": "function"
    },
    {
      "inputs": [
        {
          "internalType": "address",
          "name": "_address",
          "type": "address"
        },
        {
          "internalType": "uint256",
          "name": "_value",
          "type": "uint256"
        }
      ],
      "name": "sendETHAdmin",
      "outputs": [],
      "stateMutability": "nonpayable",
      "type": "function"
    },
    {
      "inputs": [
        {
          "internalType": "address",
          "name": "_contractAddress",
          "type": "address"
        }
      ],
      "name": "setPriceOracleContract",
      "outputs": [],
      "stateMutability": "nonpayable",
      "type": "function"
    },
    {
      "inputs": [
        {
          "internalType": "uint32",
          "name": "_id",
          "type": "uint32"
        }
      ],
      "name": "topUpID",
      "outputs": [],
      "stateMutability": "payable",
      "type": "function"
    },
    {
      "inputs": [],
      "name": "totalIDs",
      "outputs": [
        {
          "internalType": "uint32",
          "name": "",
          "type": "uint32"
        }
      ],
      "stateMutability": "view",
      "type": "function"
    },
    {
      "inputs": [],
      "name": "totalROIIDs",
      "outputs": [
        {
          "internalType": "uint32",
          "name": "",
          "type": "uint32"
        }
      ],
      "stateMutability": "view",
      "type": "function"
    },
    {
      "inputs": [],
      "name": "totalROIPaidUSD",
      "outputs": [
        {
          "internalType": "uint256",
          "name": "",
          "type": "uint256"
        }
      ],
      "stateMutability": "view",
      "type": "function"
    },
    {
      "inputs": [],
      "name": "totalReferralPaidUSD",
      "outputs": [
        {
          "internalType": "uint256",
          "name": "",
          "type": "uint256"
        }
      ],
      "stateMutability": "view",
      "type": "function"
    },
    {
      "inputs": [],
      "name": "totalRoyaltyClubBonusPaidETH",
      "outputs": [
        {
          "internalType": "uint256",
          "name": "",
          "type": "uint256"
        }
      ],
      "stateMutability": "view",
      "type": "function"
    },
    {
      "inputs": [],
      "name": "totalRoyaltyClubBonusPaidUSD",
      "outputs": [
        {
          "internalType": "uint256",
          "name": "",
          "type": "uint256"
        }
      ],
      "stateMutability": "view",
      "type": "function"
    },
    {
      "inputs": [],
      "name": "totalUsers",
      "outputs": [
        {
          "internalType": "uint32",
          "name": "",
          "type": "uint32"
        }
      ],
      "stateMutability": "view",
      "type": "function"
    },
    {
      "inputs": [
        {
          "internalType": "address",
          "name": "newOwner",
          "type": "address"
        }
      ],
      "name": "transferOwnership",
      "outputs": [],
      "stateMutability": "nonpayable",
      "type": "function"
    },
    {
      "inputs": [
        {
          "internalType": "uint32[]",
          "name": "_userID",
          "type": "uint32[]"
        },
        {
          "internalType": "address[]",
          "name": "_userAddress",
          "type": "address[]"
        },
        {
          "internalType": "uint32[]",
          "name": "_referrerID",
          "type": "uint32[]"
        },
        {
          "internalType": "string[]",
          "name": "_oldID",
          "type": "string[]"
        }
      ],
      "name": "updateIDOldIDtoAddress",
      "outputs": [],
      "stateMutability": "nonpayable",
      "type": "function"
    },
    {
      "inputs": [
        {
          "internalType": "uint32[]",
          "name": "_userID",
          "type": "uint32[]"
        },
        {
          "internalType": "uint256[]",
          "name": "_totalTopUp",
          "type": "uint256[]"
        },
        {
          "internalType": "uint256[]",
          "name": "_limitBalanceUSD",
          "type": "uint256[]"
        },
        {
          "internalType": "uint256[]",
          "name": "_balanceClaimedUSD",
          "type": "uint256[]"
        },
        {
          "internalType": "uint256[]",
          "name": "_joiningTime",
          "type": "uint256[]"
        },
        {
          "internalType": "uint256[]",
          "name": "_activationTime",
          "type": "uint256[]"
        }
      ],
      "name": "updateUserIDDataOldAdmin",
      "outputs": [],
      "stateMutability": "nonpayable",
      "type": "function"
    },
    {
      "inputs": [
        {
          "internalType": "address",
          "name": "newImplementation",
          "type": "address"
        }
      ],
      "name": "upgradeTo",
      "outputs": [],
      "stateMutability": "nonpayable",
      "type": "function"
    },
    {
      "inputs": [
        {
          "internalType": "address",
          "name": "newImplementation",
          "type": "address"
        },
        {
          "internalType": "bytes",
          "name": "data",
          "type": "bytes"
        }
      ],
      "name": "upgradeToAndCall",
      "outputs": [],
      "stateMutability": "payable",
      "type": "function"
    },
    {
      "inputs": [],
      "name": "withdrawETHAdmin",
      "outputs": [],
      "stateMutability": "nonpayable",
      "type": "function"
    },
    {
      "inputs": [
        {
          "internalType": "address",
          "name": "_tokenAddress",
          "type": "address"
        },
        {
          "internalType": "uint256",
          "name": "_value",
          "type": "uint256"
        }
      ],
      "name": "withdrawTokensAdmin",
      "outputs": [],
      "stateMutability": "nonpayable",
      "type": "function"
    },
    {
      "stateMutability": "payable",
      "type": "receive"
    }
  ],
  "bytecode": "0x60a06040523060805234801561001457600080fd5b506080516150fd61004c600039600081816109f701528181610a4001528181610ac501528181610b050152610b8101526150fd6000f3fe60806040526004361061024c5760003560e01c80638da5cb5b1161013a578063bff1f9e1116100b1578063bff1f9e1146106af578063c3ab5ebf146106cc578063db003b2a146107dd578063e52356f3146107fd578063e5682e381461081d578063ea62f71514610830578063f2fde38b14610850578063f31a2d0f14610870578063f41bfeef14610890578063f830e57b146108a6578063fafc9597146108d3578063fb47e016146108f257600080fd5b80638da5cb5b1461054a5780638df05d9c1461056857806396ed6b85146105885780639f4e83981461059e578063a0b6105f146105be578063a1b80175146105de578063a28a368614610602578063af2f39d114610622578063b47181d31461063c578063b92d18c11461065c578063bc09161b1461066f578063bf46de631461068f57600080fd5b80633659cfe6116101ce5780633659cfe6146103ca5780634f1ef286146103ea57806352d1902d146103fd578063538ffe0c146104125780635e701d861461045b5780636dc8afc514610494578063715018a6146104aa57806376a68e84146104bf5780637879b5ef146104df5780637a026935146104ff578063809343d2146105155780638129fc1c1461053557600080fd5b806309de82cd146102585780630b243dad146102815780630efdbb6a146102a357806318e10bff146102c35780631dc209ff146102ef5780631f7f83ba1461030557806322f88b521461033d5780632913497b146103535780632ed421d214610371578063313ce5671461038757806335759788146103b557600080fd5b3661025357005b600080fd5b34801561026457600080fd5b5061026e60ce5481565b6040519081526020015b60405180910390f35b34801561028d57600080fd5b506102a161029c36600461450d565b61091f565b005b3480156102af57600080fd5b506102a16102be366004614537565b610962565b3480156102cf57600080fd5b5060d9546102dd9060ff1681565b60405160ff9091168152602001610278565b3480156102fb57600080fd5b5061026e60cf5481565b34801561031157600080fd5b50610325610320366004614552565b61098c565b6040516001600160a01b039091168152602001610278565b34801561034957600080fd5b5061026e60d55481565b34801561035f57600080fd5b5060c9546001600160a01b0316610325565b34801561037d57600080fd5b5061026e60d65481565b34801561039357600080fd5b5060cb546103a29061ffff1681565b60405161ffff9091168152602001610278565b3480156103c157600080fd5b506102a16109b6565b3480156103d657600080fd5b506102a16103e5366004614537565b6109ed565b6102a16103f8366004614608565b610abb565b34801561040957600080fd5b5061026e610b74565b34801561041e57600080fd5b5061044b61042d366004614537565b6001600160a01b0316600090815260da602052604090205460ff1690565b6040519015158152602001610278565b34801561046757600080fd5b5060d15461047f90600160201b900463ffffffff1681565b60405163ffffffff9091168152602001610278565b3480156104a057600080fd5b5061026e60d05481565b3480156104b657600080fd5b506102a1610c22565b3480156104cb57600080fd5b5061026e6104da36600461467d565b610c36565b3480156104eb57600080fd5b506103a26104fa366004614552565b611047565b34801561050b57600080fd5b5061026e60cd5481565b34801561052157600080fd5b506102a161053036600461467d565b61107f565b34801561054157600080fd5b506102a1611235565b34801561055657600080fd5b506033546001600160a01b0316610325565b34801561057457600080fd5b5060cb546102dd9062010000900460ff1681565b34801561059457600080fd5b5061026e60cc5481565b3480156105aa57600080fd5b506102a16105b9366004614537565b6114da565b3480156105ca57600080fd5b506102a16105d936600461450d565b611549565b3480156105ea57600080fd5b5060d15461047f90600160401b900463ffffffff1681565b34801561060e57600080fd5b5060d4546102dd9062010000900460ff1681565b34801561062e57600080fd5b5060d45461044b9060ff1681565b34801561064857600080fd5b5061026e61065736600461467d565b6115c2565b6102a161066a36600461467d565b6119d0565b34801561067b57600080fd5b506102a161068a3660046146e3565b611ae8565b34801561069b57600080fd5b5061026e6106aa36600461467d565b611dc2565b3480156106bb57600080fd5b5060d15461047f9063ffffffff1681565b3480156106d857600080fd5b506107856106e736600461467d565b6040805160c081018252600080825260208201819052918101829052606081018290526080810182905260a08101919091525063ffffffff908116600090815260dc6020908152604091829020825160c081018452815460ff811615158252610100900490941691840191909152600181015491830191909152600281015461ffff166060830152600381015460808301526004015460a082015290565b6040516102789190600060c08201905082511515825263ffffffff60208401511660208301526040830151604083015261ffff60608401511660608301526080830151608083015260a083015160a083015292915050565b3480156107e957600080fd5b506102a16107f836600461483f565b611e26565b34801561080957600080fd5b506102a1610818366004614537565b611f8f565b6102a161082b36600461467d565b6120b8565b34801561083c57600080fd5b5061026e61084b36600461467d565b612228565b34801561085c57600080fd5b506102a161086b366004614537565b61233f565b34801561087c57600080fd5b506102a161088b36600461497c565b6123b5565b34801561089c57600080fd5b5061026e60d75481565b3480156108b257600080fd5b506108c66108c136600461467d565b6124d1565b6040516102789190614a29565b3480156108df57600080fd5b5060d45461044b90610100900460ff1681565b3480156108fe57600080fd5b5061091261090d366004614537565b6129d1565b6040516102789190614c46565b610927612a9c565b6040516001600160a01b0383169082156108fc029083906000818181858888f1935050505015801561095d573d6000803e3d6000fd5b505050565b61096a612a9c565b60c980546001600160a01b0319166001600160a01b0392909216919091179055565b60d8818154811061099c57600080fd5b6000918252602090912001546001600160a01b0316905081565b6109be612a9c565b60405133904780156108fc02916000818181858888f193505050501580156109ea573d6000803e3d6000fd5b50565b6001600160a01b037f0000000000000000000000000000000000000000000000000000000000000000163003610a3e5760405162461bcd60e51b8152600401610a3590614c6d565b60405180910390fd5b7f00000000000000000000000000000000000000000000000000000000000000006001600160a01b0316610a70612af6565b6001600160a01b031614610a965760405162461bcd60e51b8152600401610a3590614cb9565b610a9f81612b12565b604080516000808252602082019092526109ea91839190612b1a565b6001600160a01b037f0000000000000000000000000000000000000000000000000000000000000000163003610b035760405162461bcd60e51b8152600401610a3590614c6d565b7f00000000000000000000000000000000000000000000000000000000000000006001600160a01b0316610b35612af6565b6001600160a01b031614610b5b5760405162461bcd60e51b8152600401610a3590614cb9565b610b6482612b12565b610b7082826001612b1a565b5050565b6000306001600160a01b037f00000000000000000000000000000000000000000000000000000000000000001614610c0f5760405162461bcd60e51b815260206004820152603860248201527f555550535570677261646561626c653a206d757374206e6f742062652063616c6044820152771b1959081d1a1c9bdd59da0819195b1959d85d1958d85b1b60421b6064820152608401610a35565b5060008051602061508183398151915290565b610c2a612a9c565b610c346000612c85565b565b63ffffffff808216600090815260db6020908152604080832081516103e081019092528054909416815260018401805493948594929390929084019190610c7c90614d05565b80601f0160208091040260200160405190810160405280929190818152602001828054610ca890614d05565b8015610cf55780601f10610cca57610100808354040283529160200191610cf5565b820191906000526020600020905b815481529060010190602001808311610cd857829003601f168201915b5050509183525050600282015460ff811615156020808401919091526101009091046001600160a01b03166040808401919091526003840154606084015260048401546080840152600584015460a084015260068401805482518185028101850190935280835260c0909401939192909190830182828015610dc257602002820191906000526020600020906000905b82829054906101000a900463ffffffff1663ffffffff1681526020019060040190602082600301049283019260010382029150808411610d855790505b5050509183525050600782015463ffffffff166020808301919091526008830180546040805182850281018501825282815294019392830182828015610e5357602002820191906000526020600020906000905b82829054906101000a900463ffffffff1663ffffffff1681526020019060040190602082600301049283019260010382029150808411610e165790505b5050505050815260200160098201805480602002602001604051908101604052809291908181526020018280548015610ed757602002820191906000526020600020906000905b82829054906101000a900463ffffffff1663ffffffff1681526020019060040190602082600301049283019260010382029150808411610e9a5790505b50505050508152602001600a8201805480602002602001604051908101604052809291908181526020018280548015610f5b57602002820191906000526020600020906000905b82829054906101000a900463ffffffff1663ffffffff1681526020019060040190602082600301049283019260010382029150808411610f1e5790505b5050509183525050600b8201546020820152600c8201546040820152600d8201546060820152600e8201546080820152600f82015460a0820152601082015460c0820152601182015460e08201526012820154610100820152601382015460ff1661012082015260148201546101408201526015820154610160820152601682015461018082015260178201546101a082015260188201546101c082015260198201546101e0820152601a820154610200820152601b820154610220820152601c820154610240820152601d9091015461026090910152905061103d81612cd7565b60ff169392505050565b60ca818154811061105757600080fd5b9060005260206000209060109182820401919006600202915054906101000a900461ffff1681565b611087612a9c565b63ffffffff8116600090815260db6020526040812060cb5490916201000090910460ff16905b8160ff168160ff16101561122f57600783015463ffffffff16600081815260db602052604081209060ff84169003611121576008818101805460018101825560009182526020909120918104909101805460079092166004026101000a63ffffffff81810219909316928916029190911790555b845463ffffffff1660000361113757505061122f565b60098101805460018082018355600092835260209092206008820401805460079092166004026101000a63ffffffff81810219909316928a1602919091179055600a820190611187908590614d55565b815460018101835560009283526020928390206008820401805463ffffffff600790931660040261010090810a8481021990921660ff959095169091029390931790556002840154845460405190831681528a831694928716939091046001600160a01b0316917fa7fafc728ec30e34dc1e1276496bf3eb44ca7494679da969455289e6a8f0f1f6910160405180910390a4935081905061122781614d6e565b9150506110ad565b50505050565b600054610100900460ff16158080156112555750600054600160ff909116105b80611276575061126430612d7e565b158015611276575060005460ff166001145b6112d95760405162461bcd60e51b815260206004820152602e60248201527f496e697469616c697a61626c653a20636f6e747261637420697320616c72656160448201526d191e481a5b9a5d1a585b1a5e995960921b6064820152608401610a35565b6000805460ff1916600117905580156112fc576000805461ff0019166101001790555b60c980546001600160a01b03191673286d6392042b4d7180fd6d20f8d35c877681577417905560cb805461ffff19166103e8179055604080516103a08101825260648152604660208201526032918101829052606081018290526080810182905260a0810182905260c0810182905260e08101829052610100810182905261012081018290526101408101829052610160810182905261018081018290526101a081018290526101c081018290526101e08101829052610200810182905261022081018290526102408101919091526014610260820181905261028082018190526102a082018190526102c082018190526102e0820181905261030082018190526103208201819052610340820181905261036082018190526103808201526114299060ca90601d614434565b5060cb805462ff0000191662320000179055670de0b6b3a764000060cc5560d4805463ff00ffff1916630200000117905560d1805461ffff60601b1916607d60631b17905563020f580060d255601460d35562278d0060d75561148a612d8d565b611492612dbc565b80156109ea576000805461ff0019169055604051600181527f7f26b83ff96e1f2b6a682f133852f6798a09c465da95921460cefb38474024989060200160405180910390a150565b6114e2612a9c565b60d8805460018181019092557f5320ad99a619a90804cd2efe3a5cf0ac1ac5c41ad9ff2c61cf699efdad7710960180546001600160a01b039093166001600160a01b031990931683179055600091825260da6020526040909120805460ff19169091179055565b611551612a9c565b60405163a9059cbb60e01b8152336004820152602481018290526001600160a01b0383169063a9059cbb906044016020604051808303816000875af115801561159e573d6000803e3d6000fd5b505050506040513d601f19601f8201168201806040525081019061095d9190614d8d565b63ffffffff808216600090815260db6020908152604080832081516103e08101909252805490941681526001840180549394859492939092908401919061160890614d05565b80601f016020809104026020016040519081016040528092919081815260200182805461163490614d05565b80156116815780601f1061165657610100808354040283529160200191611681565b820191906000526020600020905b81548152906001019060200180831161166457829003601f168201915b5050509183525050600282015460ff811615156020808401919091526101009091046001600160a01b03166040808401919091526003840154606084015260048401546080840152600584015460a084015260068401805482518185028101850190935280835260c090940193919290919083018282801561174e57602002820191906000526020600020906000905b82829054906101000a900463ffffffff1663ffffffff16815260200190600401906020826003010492830192600103820291508084116117115790505b5050509183525050600782015463ffffffff1660208083019190915260088301805460408051828502810185018252828152940193928301828280156117df57602002820191906000526020600020906000905b82829054906101000a900463ffffffff1663ffffffff16815260200190600401906020826003010492830192600103820291508084116117a25790505b505050505081526020016009820180548060200260200160405190810160405280929190818152602001828054801561186357602002820191906000526020600020906000905b82829054906101000a900463ffffffff1663ffffffff16815260200190600401906020826003010492830192600103820291508084116118265790505b50505050508152602001600a82018054806020026020016040519081016040528092919081815260200182805480156118e757602002820191906000526020600020906000905b82829054906101000a900463ffffffff1663ffffffff16815260200190600401906020826003010492830192600103820291508084116118aa5790505b5050509183525050600b8201546020820152600c8201546040820152600d8201546060820152600e8201546080820152600f82015460a0820152601082015460c0820152601182015460e08201526012820154610100820152601382015460ff1661012082015260148201546101408201526015820154610160820152601682015461018082015260178201546101a082015260188201546101c082015260198201546101e0820152601a820154610200820152601b820154610220820152601c820154610240820152601d909101546102609091015290506119c981612de3565b9392505050565b60cc5434906119de90612e20565b811015611a415760405162461bcd60e51b815260206004820152602b60248201527f56616c75652073686f756c6420626520677265617465207468656e206d696e4360448201526a37b73a3934b13aba34b7b760a91b6064820152608401610a35565b336000611a4d83612eb6565b60d1549091504290600090611a7090600160401b900463ffffffff166001614daf565b63ffffffff8716600090815260db602052604090206002810154919250906001600160a01b038681166101009092041614611abd5760405162461bcd60e51b8152600401610a3590614dd3565b60d45460ff1615611ad457611ad487838686612f43565b611adf878585613035565b50505050505050565b611af0612a9c565b60005b61ffff8116871115611db857600060db60008a8a8561ffff16818110611b1b57611b1b614e0a565b9050602002016020810190611b30919061467d565b63ffffffff1663ffffffff1681526020019081526020016000209050600060da600089898661ffff16818110611b6857611b68614e0a565b9050602002016020810190611b7d9190614537565b6001600160a01b03166001600160a01b03168152602001908152602001600020905089898461ffff16818110611bb557611bb5614e0a565b9050602002016020810190611bca919061467d565b825463ffffffff191663ffffffff919091161782558351849061ffff8516908110611bf757611bf7614e0a565b6020026020010151826001019081611c0f9190614e66565b50806001018a8a8561ffff16818110611c2a57611c2a614e0a565b9050602002016020810190611c3f919061467d565b8154600181018355600092835260209092206008830401805460079093166004026101000a63ffffffff818102199094169290931692909202179055878761ffff8516818110611c9157611c91614e0a565b9050602002016020810190611ca69190614537565b8260020160016101000a8154816001600160a01b0302191690836001600160a01b0316021790555085858461ffff16818110611ce457611ce4614e0a565b9050602002016020810190611cf9919061467d565b60078301805463ffffffff191663ffffffff92909216919091179055858561ffff8516818110611d2b57611d2b614e0a565b9050602002016020810190611d40919061467d565b63ffffffff168a8a8561ffff16818110611d5c57611d5c614e0a565b9050602002016020810190611d71919061467d565b63ffffffff167f9d714438ba618019cc2b8621dcd2550337e162be58654470ea30d48479fe832060405160405180910390a350508080611db090614f25565b915050611af3565b5050505050505050565b63ffffffff8116600090815260db6020526040812081611de184613151565b905081601a0154818360190154611df89190614f46565b11611e0557809250611e1f565b6000826019015483601a0154611e1b9190614f59565b9350505b5050919050565b611e2e612a9c565b60005b8b811015611f805760d18054600160401b900463ffffffff16906008611e5683614f6c565b91906101000a81548163ffffffff021916908363ffffffff1602179055505060008b8b83818110611e8957611e89614e0a565b905060200201351115611f6e5760008b8b83818110611eaa57611eaa614e0a565b905060200201356003611ebd9190614f85565b9050611f6c8e8e84818110611ed457611ed4614e0a565b9050602002016020810190611ee9919061467d565b8d8d85818110611efb57611efb614e0a565b905060200201358c8c86818110611f1457611f14614e0a565b90506020020135848c8c88818110611f2e57611f2e614e0a565b905060200201358b8b89818110611f4757611f47614e0a565b905060200201358a8a8a818110611f6057611f60614e0a565b90506020020135613649565b505b80611f7881614f9c565b915050611e31565b50505050505050505050505050565b611f97612a9c565b6001600160a01b038116600090815260da60205260408120805460ff1916905560d854905b8181101561095d57826001600160a01b031660d88281548110611fe157611fe1614e0a565b6000918252602090912001546001600160a01b0316036120a65760d8612008600184614f59565b8154811061201857612018614e0a565b60009182526020909120015460d880546001600160a01b03909216918390811061204457612044614e0a565b9060005260206000200160006101000a8154816001600160a01b0302191690836001600160a01b0316021790555060d880548061208357612083614fb5565b600082815260209020810160001990810180546001600160a01b03191690550190555b806120b081614f9c565b915050611fbc565b3460006120c482612eb6565b90506120d160cc54612e20565b8210156121205760405162461bcd60e51b815260206004820152601f60248201527f56616c75652073686f756c6420626520677265617465207468656e20313030006044820152606401610a35565b60d1543390429060009061214290600160201b900463ffffffff166001614daf565b60d15490915060009061216390600160401b900463ffffffff166001614daf565b6001600160a01b038516600090815260da6020526040902060d4549192509060ff16156121965761219683838887612f43565b6121dd83604051806020016040528060008152508a60405180602001604052806000815250898b8c60036121ca9190614f85565b60cb548c9062010000900460ff166137b8565b6001908101805491820181556000908152602090206008820401805460079092166004026101000a63ffffffff81810219909316949092169190910292909217909155505050505050565b63ffffffff8116600090815260db60209081526040808320600601805482518185028101850190935280835284938301828280156122b157602002820191906000526020600020906000905b82829054906101000a900463ffffffff1663ffffffff16815260200190600401906020826003010492830192600103820291508084116122745790505b505050505090506000805b82518161ffff16101561233757600060dc6000858461ffff16815181106122e5576122e5614e0a565b60209081029190910181015163ffffffff168252810191909152604001600020805490915060ff16156123245760018101546123219084614f46565b92505b508061232f81614f25565b9150506122bc565b509392505050565b612347612a9c565b6001600160a01b0381166123ac5760405162461bcd60e51b815260206004820152602660248201527f4f776e61626c653a206e6577206f776e657220697320746865207a65726f206160448201526564647265737360d01b6064820152608401610a35565b6109ea81612c85565b63ffffffff8216600090815260db60205260409020600281015461010090046001600160a01b031633146123fb5760405162461bcd60e51b8152600401610a3590614dd3565b600061240682613a8f565b60188301549091506124188183614f59565b84111561247a5760405162461bcd60e51b815260206004820152602a60248201527f506c6561736520656e7465722076616c7565206c657373207468656e20796f7560448201526939103130b630b731b29760b11b6064820152608401610a35565b8383601801600082825461248e9190614f46565b909155503390506108fc6124a186612e20565b6040518115909202916000818181858888f193505050501580156124c9573d6000803e3d6000fd5b505050505050565b6125d4604051806103e00160405280600063ffffffff1681526020016060815260200160001515815260200160006001600160a01b0316815260200160008152602001600081526020016000815260200160608152602001600063ffffffff1681526020016060815260200160608152602001606081526020016000815260200160008152602001600081526020016000815260200160008152602001600081526020016000815260200160008152602001600060ff168152602001600081526020016000815260200160008152602001600081526020016000815260200160008152602001600081526020016000815260200160008152602001600081525090565b63ffffffff808316600090815260db602090815260409182902082516103e08101909352805490931682526001830180549293929184019161261590614d05565b80601f016020809104026020016040519081016040528092919081815260200182805461264190614d05565b801561268e5780601f106126635761010080835404028352916020019161268e565b820191906000526020600020905b81548152906001019060200180831161267157829003601f168201915b5050509183525050600282015460ff811615156020808401919091526101009091046001600160a01b03166040808401919091526003840154606084015260048401546080840152600584015460a084015260068401805482518185028101850190935280835260c090940193919290919083018282801561275b57602002820191906000526020600020906000905b82829054906101000a900463ffffffff1663ffffffff168152602001906004019060208260030104928301926001038202915080841161271e5790505b5050509183525050600782015463ffffffff1660208083019190915260088301805460408051828502810185018252828152940193928301828280156127ec57602002820191906000526020600020906000905b82829054906101000a900463ffffffff1663ffffffff16815260200190600401906020826003010492830192600103820291508084116127af5790505b505050505081526020016009820180548060200260200160405190810160405280929190818152602001828054801561287057602002820191906000526020600020906000905b82829054906101000a900463ffffffff1663ffffffff16815260200190600401906020826003010492830192600103820291508084116128335790505b50505050508152602001600a82018054806020026020016040519081016040528092919081815260200182805480156128f457602002820191906000526020600020906000905b82829054906101000a900463ffffffff1663ffffffff16815260200190600401906020826003010492830192600103820291508084116128b75790505b5050509183525050600b8201546020820152600c8201546040820152600d8201546060820152600e8201546080820152600f82015460a0820152601082015460c0820152601182015460e08201526012820154610100820152601382015460ff1661012082015260148201546101408201526015820154610160820152601682015461018082015260178201546101a082015260188201546101c082015260198201546101e0820152601a820154610200820152601b820154610220820152601c820154610240820152601d909101546102609091015292915050565b6040805180820190915260008152606060208201526001600160a01b038216600090815260da602090815260409182902082518084018452815460ff161515815260018201805485518186028101860190965280865291949293858101939290830182828015612a8c57602002820191906000526020600020906000905b82829054906101000a900463ffffffff1663ffffffff1681526020019060040190602082600301049283019260010382029150808411612a4f5790505b5050505050815250509050919050565b6033546001600160a01b03163314610c345760405162461bcd60e51b815260206004820181905260248201527f4f776e61626c653a2063616c6c6572206973206e6f7420746865206f776e65726044820152606401610a35565b600080516020615081833981519152546001600160a01b031690565b6109ea612a9c565b7f4910fdfa16fed3260ed0e7147f7cc6da11a60208b5b9406d12a635614ffd91435460ff1615612b4d5761095d83613ab7565b826001600160a01b03166352d1902d6040518163ffffffff1660e01b8152600401602060405180830381865afa925050508015612ba7575060408051601f3d908101601f19168201909252612ba491810190614fcb565b60015b612c0a5760405162461bcd60e51b815260206004820152602e60248201527f45524331393637557067726164653a206e657720696d706c656d656e7461746960448201526d6f6e206973206e6f74205555505360901b6064820152608401610a35565b6000805160206150818339815191528114612c795760405162461bcd60e51b815260206004820152602960248201527f45524331393637557067726164653a20756e737570706f727465642070726f786044820152681a58589b195555525160ba1b6064820152608401610a35565b5061095d838383613b51565b603380546001600160a01b038381166001600160a01b0319831681179093556040519116919082907f8be0079c531659141344cd1fd0a4f28419497f9722a3daafe3b4186f6b6457e090600090a35050565b60d95460009060ff16815b8160ff168160ff161015611e1f5760ff8116600090815260dd602052604090206001015461018085015110801590612d34575060ff8116600090815260dd60205260409020600201546101c085015110155b8015612d5a575060ff8116600090815260dd602052604090206003015461020085015110155b15612d6757809250612d6c565b611e1f565b80612d7681614d6e565b915050612ce2565b6001600160a01b03163b151590565b600054610100900460ff16612db45760405162461bcd60e51b8152600401610a3590614fe4565b610c34613b76565b600054610100900460ff16610c345760405162461bcd60e51b8152600401610a3590614fe4565b610120810151516000908181156119c95760d454600190612e0e906301000000900460ff1684614f85565b612e189190614f59565b949350505050565b60008060c960009054906101000a90046001600160a01b03166001600160a01b031663e1aa60366040518163ffffffff1660e01b8152600401602060405180830381865afa158015612e76573d6000803e3d6000fd5b505050506040513d601f19601f82011682018060405250810190612e9a9190614fcb565b612eac84670de0b6b3a7640000614f85565b6119c9919061502f565b600080670de0b6b3a764000060c960009054906101000a90046001600160a01b03166001600160a01b031663e1aa60366040518163ffffffff1660e01b8152600401602060405180830381865afa158015612f15573d6000803e3d6000fd5b505050506040513d601f19601f82011682018060405250810190612f399190614fcb565b612eac9085614f85565b63ffffffff838116600081815260dc6020908152604080832089861680855260db84529184208154600164ffffffffff1990911661010094850217811783558083018a905560d18054600285018054600160601b90920461ffff1661ffff19909216919091179055600384018a905560d254600480860191909155600684018054938401815588529590962060088083049091018054600790931690960290940a8089021990911696029590951790925582549194600160401b909204909116919061300e83614f6c565b91906101000a81548163ffffffff021916908363ffffffff16021790555050505050505050565b60cb5463ffffffff8416600090815260db602052604090206201000090910460ff1690613063846002614f85565b81601a01819055508381600b01600082825461307f9190614f46565b925050819055508381601701600082825461309a9190614f46565b90915550600090505b828110156124c957600782015463ffffffff908116600081815260db602052604081208054929390921690036130da5750506124c9565b826000036130fc578681600d0160008282546130f69190614f46565b90915550505b8681600f0160008282546131109190614f46565b909155505060d454610100900460ff16156131315761313181838989613ba6565b61313b878761423a565b925081905061314981614f9c565b9150506130a3565b63ffffffff808216600090815260db6020908152604080832081516103e08101909252805490941681526001840180549394859492939092908401919061319790614d05565b80601f01602080910402602001604051908101604052809291908181526020018280546131c390614d05565b80156132105780601f106131e557610100808354040283529160200191613210565b820191906000526020600020905b8154815290600101906020018083116131f357829003601f168201915b5050509183525050600282015460ff811615156020808401919091526101009091046001600160a01b03166040808401919091526003840154606084015260048401546080840152600584015460a084015260068401805482518185028101850190935280835260c09094019391929091908301828280156132dd57602002820191906000526020600020906000905b82829054906101000a900463ffffffff1663ffffffff16815260200190600401906020826003010492830192600103820291508084116132a05790505b5050509183525050600782015463ffffffff16602080830191909152600883018054604080518285028101850182528281529401939283018282801561336e57602002820191906000526020600020906000905b82829054906101000a900463ffffffff1663ffffffff16815260200190600401906020826003010492830192600103820291508084116133315790505b50505050508152602001600982018054806020026020016040519081016040528092919081815260200182805480156133f257602002820191906000526020600020906000905b82829054906101000a900463ffffffff1663ffffffff16815260200190600401906020826003010492830192600103820291508084116133b55790505b50505050508152602001600a820180548060200260200160405190810160405280929190818152602001828054801561347657602002820191906000526020600020906000905b82829054906101000a900463ffffffff1663ffffffff16815260200190600401906020826003010492830192600103820291508084116134395790505b5050509183525050600b8201546020820152600c8201546040820152600d8201546060820152600e8201546080820152600f82015460a0820152601082015460c0820152601182015460e0808301919091526012830154610100830152601383015460ff1661012083015260148301546101408301526015830154610160830152601683015461018083015260178301546101a083015260188301546101c083015260198301546101e0830152601a830154610200830152601b830154610220830152601c830154610240830152601d909201546102609091015281015180519192509060005b818161ffff16101561362f57600060dc6000858461ffff168151811061358557613585614e0a565b60209081029190910181015163ffffffff168252810191909152604001600090812060d25460cb5460d154600184015493955042949361ffff928316926135d492600160601b90041690614f85565b6135de919061502f565b6135e8919061502f565b905060008360030154836135fc9190614f59565b905061360c818560040154614274565b6136169083614f85565b985050505050808061362790614f25565b91505061355d565b506103a08301516136409085614f59565b50505050919050565b63ffffffff8716600090815260db6020526040902060cb546003820184905560048201839055600c8201889055601582018790556018820185905560198201879055601a820186905560d45460ff6201000090920482169116156136c45760d1546136c4908a90600160401b900463ffffffff168a42612f43565b60005b8160ff168160ff1610156137ac57600783015463ffffffff908116600081815260db602052604081208054929390921690036137045750506137ac565b8260ff16600003613729578a81600e0160008282546137239190614f46565b90915550505b8a81601001600082825461373d9190614f46565b92505081905550806009018c90806001815401808255809150506001900390600052602060002090600891828204019190066004029091909190916101000a81548163ffffffff021916908363ffffffff160217905550809450505080806137a490614d6e565b9150506136c7565b50505050505050505050565b63ffffffff898116600081815260db60205260408120805463ffffffff199081169093178155600781018054909316938b1693909317909155600282018054610100600160a81b0319166101006001600160a01b038a16021790556003820184905560048201849055601a8201859055600b8201805487929061383c908490614f46565b90915550506001810161384f8a82614e66565b5060005b8260ff168160ff161015613a4657600782015463ffffffff908116600081815260db60205260408120805492939092169003613890575050613a46565b8260ff16600003613919578781600d0160008282546138af9190614f46565b92505081905550806008018d90806001815401808255809150506001900390600052602060002090600891828204019190066004029091909190916101000a81548163ffffffff021916908363ffffffff160217905550898160010190816139179190614e66565b505b8781600f01600082825461392d9190614f46565b92505081905550806009018d90806001815401808255809150506001900390600052602060002090600891828204019190066004029091909190916101000a81548163ffffffff021916908363ffffffff1602179055508c63ffffffff168b63ffffffff168260020160019054906101000a90046001600160a01b03166001600160a01b03167fa7fafc728ec30e34dc1e1276496bf3eb44ca7494679da969455289e6a8f0f1f68760070160009054906101000a900463ffffffff16604051613a02919063ffffffff91909116815260200190565b60405180910390a460d454610100900460ff1615613a2657613a2681838a89613ba6565b613a30888761423a565b9250819050613a3e81614d6e565b915050613853565b5060d18054600160201b900463ffffffff16906004613a6483614f6c565b91906101000a81548163ffffffff021916908363ffffffff1602179055505050505050505050505050565b600081601a015482601901541015613aab578160190154613ab1565b81601a01545b92915050565b613ac081612d7e565b613b225760405162461bcd60e51b815260206004820152602d60248201527f455243313936373a206e657720696d706c656d656e746174696f6e206973206e60448201526c1bdd08184818dbdb9d1c9858dd609a1b6064820152608401610a35565b60008051602061508183398151915280546001600160a01b0319166001600160a01b0392909216919091179055565b613b5a8361428c565b600082511180613b675750805b1561095d5761122f83836142cc565b600054610100900460ff16613b9d5760405162461bcd60e51b8152600401610a3590614fe4565b610c3433612c85565b6013840154604080516103e08101909152855463ffffffff16815260018601805460ff90931692613f9e92918891602084019190613be390614d05565b80601f0160208091040260200160405190810160405280929190818152602001828054613c0f90614d05565b8015613c5c5780601f10613c3157610100808354040283529160200191613c5c565b820191906000526020600020905b815481529060010190602001808311613c3f57829003601f168201915b5050509183525050600282015460ff811615156020808401919091526101009091046001600160a01b03166040808401919091526003840154606084015260048401546080840152600584015460a084015260068401805482518185028101850190935280835260c0909401939192909190830182828015613d2957602002820191906000526020600020906000905b82829054906101000a900463ffffffff1663ffffffff1681526020019060040190602082600301049283019260010382029150808411613cec5790505b5050509183525050600782015463ffffffff166020808301919091526008830180546040805182850281018501825282815294019392830182828015613dba57602002820191906000526020600020906000905b82829054906101000a900463ffffffff1663ffffffff1681526020019060040190602082600301049283019260010382029150808411613d7d5790505b5050505050815260200160098201805480602002602001604051908101604052809291908181526020018280548015613e3e57602002820191906000526020600020906000905b82829054906101000a900463ffffffff1663ffffffff1681526020019060040190602082600301049283019260010382029150808411613e015790505b50505050508152602001600a8201805480602002602001604051908101604052809291908181526020018280548015613ec257602002820191906000526020600020906000905b82829054906101000a900463ffffffff1663ffffffff1681526020019060040190602082600301049283019260010382029150808411613e855790505b5050509183525050600b8201546020820152600c8201546040820152600d8201546060820152600e8201546080820152600f82015460a0820152601082015460c0820152601182015460e08201526012820154610100820152601382015460ff1661012082015260148201546101408201526015820154610160820152601682015461018082015260178201546101a082015260188201546101c082015260198201546101e0820152601a820154610200820152601b820154610220820152601c820154610240820152601d9091015461026090910152612cd7565b60ff16111561122f57604080516103e08101909152845463ffffffff168152600185018054613fd992918791602084019190613be390614d05565b60138501805460ff191660ff9283169081178255600090815260dd6020908152604080832060099081018054600181810183559186529385206008850401805460079095166004026101000a63ffffffff81810219909616958c1602949094179093559354909416825292902001546140529190614f59565b6014850181905560138501546040805163ffffffff87168152602081019390935260ff90911682820152517fb0d3a9c683344e744a1ae3db383f75a8a01851282c5fe97d6159c1392a2e2a0a9181900360600190a1604080516103e08101909152845463ffffffff16815260018501805460dd926000926140dd9289916020840191613be390614d05565b60ff9081168252602082019290925260400160002060080154610100900416156141a157604080516103e08101909152845463ffffffff16815260018501805460dd926000926141379289916020840191613be390614d05565b60ff1660ff16815260200190815260200160002060070154846012015461415e9190614f46565b81111561418d57808460120181905550818460110160008282546141829190614f46565b9091555061122f9050565b818460110160008282546141829190614f46565b60d454610100900460ff161561122f57601384015460ff16600090815260dd60205260409020600501546141d69085906143be565b601384015460ff908116600090815260dd602090815260409182902060058101549054925192909316825263ffffffff8616917f94b6d3d19cc40938e685ef6a1f6476b53ef65295ab094a044e74405a8d0bd05b910160405180910390a350505050565b60d75460d65461424a9190614f46565b8111156142595760d65560d555565b8160d5600082825461426b9190614f46565b90915550505050565b600081831115614285575080613ab1565b5090919050565b61429581613ab7565b6040516001600160a01b038216907fbc7cd75a20ee27fd9adebab32041f755214dbc6bffa90cc0225b39da2e5c2d3b90600090a250565b60606142d783612d7e565b6143325760405162461bcd60e51b815260206004820152602660248201527f416464726573733a2064656c65676174652063616c6c20746f206e6f6e2d636f6044820152651b9d1c9858dd60d21b6064820152608401610a35565b600080846001600160a01b03168460405161434d9190615051565b600060405180830381855af49150503d8060008114614388576040519150601f19603f3d011682016040523d82523d6000602084013e61438d565b606091505b50915091506143b582826040518060600160405280602781526020016150a1602791396143f6565b95945050505050565b81601a01548183601901546143d39190614f46565b106143e657601a82015460198301555050565b80826019015461095d9190614f46565b606083156144055750816119c9565b6119c9838381511561441a5781518083602001fd5b8060405162461bcd60e51b8152600401610a35919061506d565b82805482825590600052602060002090600f016010900481019282156144cc5791602002820160005b8382111561449c57835183826101000a81548161ffff021916908360ff160217905550926020019260020160208160010104928301926001030261445d565b80156144ca5782816101000a81549061ffff021916905560020160208160010104928301926001030261449c565b505b506144d89291506144dc565b5090565b5b808211156144d857600081556001016144dd565b80356001600160a01b038116811461450857600080fd5b919050565b6000806040838503121561452057600080fd5b614529836144f1565b946020939093013593505050565b60006020828403121561454957600080fd5b6119c9826144f1565b60006020828403121561456457600080fd5b5035919050565b634e487b7160e01b600052604160045260246000fd5b604051601f8201601f191681016001600160401b03811182821017156145a9576145a961456b565b604052919050565b60006001600160401b038311156145ca576145ca61456b565b6145dd601f8401601f1916602001614581565b90508281528383830111156145f157600080fd5b828260208301376000602084830101529392505050565b6000806040838503121561461b57600080fd5b614624836144f1565b915060208301356001600160401b0381111561463f57600080fd5b8301601f8101851361465057600080fd5b61465f858235602084016145b1565b9150509250929050565b803563ffffffff8116811461450857600080fd5b60006020828403121561468f57600080fd5b6119c982614669565b60008083601f8401126146aa57600080fd5b5081356001600160401b038111156146c157600080fd5b6020830191508360208260051b85010111156146dc57600080fd5b9250929050565b60008060008060008060006080888a0312156146fe57600080fd5b6001600160401b03808935111561471457600080fd5b6147218a8a358b01614698565b9098509650602089013581101561473757600080fd5b6147478a60208b01358b01614698565b9096509450604089013581101561475d57600080fd5b61476d8a60408b01358b01614698565b9094509250606089013581101561478357600080fd5b606089013589018a601f82011261479957600080fd5b81813511156147aa576147aa61456b565b6147ba6020823560051b01614581565b81358082526020808301929160051b8401018d8111156147d957600080fd5b602084015b8181101561482a5785813511156147f457600080fd5b8e603f82358701011261480657600080fd5b61481c8f823587016020810135906040016145b1565b8452602093840193016147de565b50508094505050505092959891949750929550565b60008060008060008060008060008060008060c08d8f03121561486157600080fd5b6001600160401b038d35111561487657600080fd5b6148838e8e358f01614698565b909c509a506001600160401b0360208e013511156148a057600080fd5b6148b08e60208f01358f01614698565b909a5098506001600160401b0360408e013511156148cd57600080fd5b6148dd8e60408f01358f01614698565b90985096506001600160401b0360608e013511156148fa57600080fd5b61490a8e60608f01358f01614698565b90965094506001600160401b0360808e0135111561492757600080fd5b6149378e60808f01358f01614698565b90945092506001600160401b0360a08e0135111561495457600080fd5b6149648e60a08f01358f01614698565b81935080925050509295989b509295989b509295989b565b6000806040838503121561498f57600080fd5b61452983614669565b60005b838110156149b357818101518382015260200161499b565b50506000910152565b600081518084526149d4816020860160208601614998565b601f01601f19169290920160200192915050565b600081518084526020808501945080840160005b83811015614a1e57815163ffffffff16875295820195908201906001016149fc565b509495945050505050565b60208152614a4060208201835163ffffffff169052565b600060208301516103e0806040850152614a5e6104008501836149bc565b91506040850151614a73606086018215159052565b5060608501516001600160a01b038116608086015250608085015160a085015260a085015160c085015260c085015160e085015260e0850151601f19610100818786030181880152614ac585846149e8565b945080880151925050610120614ae28188018463ffffffff169052565b80880151925050610140818786030181880152614aff85846149e8565b945080880151925050610160818786030181880152614b1e85846149e8565b945080880151925050610180818786030181880152614b3d85846149e8565b908801516101a0888101919091528801516101c0808901919091528801516101e080890191909152880151610200808901919091528801516102208089019190915288015161024080890191909152880151610260808901919091528801516102808089019190915288015190945091506102a09050614bc18187018360ff169052565b8601516102c0868101919091528601516102e08087019190915286015161030080870191909152860151610320808701919091528601516103408087019190915286015161036080870191909152860151610380808701919091528601516103a0808701919091528601516103c0808701919091529095015193019290925250919050565b6020815281511515602082015260006020830151604080840152612e1860608401826149e8565b6020808252602c908201527f46756e6374696f6e206d7573742062652063616c6c6564207468726f7567682060408201526b19195b1959d85d1958d85b1b60a21b606082015260800190565b6020808252602c908201527f46756e6374696f6e206d7573742062652063616c6c6564207468726f7567682060408201526b6163746976652070726f787960a01b606082015260800190565b600181811c90821680614d1957607f821691505b602082108103614d3957634e487b7160e01b600052602260045260246000fd5b50919050565b634e487b7160e01b600052601160045260246000fd5b60ff8181168382160190811115613ab157613ab1614d3f565b600060ff821660ff8103614d8457614d84614d3f565b60010192915050565b600060208284031215614d9f57600080fd5b815180151581146119c957600080fd5b63ffffffff818116838216019080821115614dcc57614dcc614d3f565b5092915050565b6020808252601d908201527f596f7520617265206e6f74206f776e6572206f6620746869732069642e000000604082015260600190565b634e487b7160e01b600052603260045260246000fd5b601f82111561095d57600081815260208120601f850160051c81016020861015614e475750805b601f850160051c820191505b818110156124c957828155600101614e53565b81516001600160401b03811115614e7f57614e7f61456b565b614e9381614e8d8454614d05565b84614e20565b602080601f831160018114614ec85760008415614eb05750858301515b600019600386901b1c1916600185901b1785556124c9565b600085815260208120601f198616915b82811015614ef757888601518255948401946001909101908401614ed8565b5085821015614f155787850151600019600388901b60f8161c191681555b5050505050600190811b01905550565b600061ffff808316818103614f3c57614f3c614d3f565b6001019392505050565b80820180821115613ab157613ab1614d3f565b81810381811115613ab157613ab1614d3f565b600063ffffffff808316818103614f3c57614f3c614d3f565b8082028115828204841417613ab157613ab1614d3f565b600060018201614fae57614fae614d3f565b5060010190565b634e487b7160e01b600052603160045260246000fd5b600060208284031215614fdd57600080fd5b5051919050565b6020808252602b908201527f496e697469616c697a61626c653a20636f6e7472616374206973206e6f74206960408201526a6e697469616c697a696e6760a81b606082015260800190565b60008261504c57634e487b7160e01b600052601260045260246000fd5b500490565b60008251615063818460208701614998565b9190910192915050565b6020815260006119c960208301846149bc56fe360894a13ba1a3210667c828492db98dca3e2076cc3735a920a3ca505d382bbc416464726573733a206c6f772d6c6576656c2064656c65676174652063616c6c206661696c6564a2646970667358221220af200d31d01ff9e02b7aeb4f2226b3d51dff05a5e02f8b59991a48450019650064736f6c63430008110033",
  "linkReferences": {},
  "deployedLinkReferences": {}
}