{
  "_format": "hh-sol-artifact-1",
  "contractName": "MyUSDUpgradeable",
  "sourceName": "contracts/MyUSDUpgradeable.sol",
  "abi": [
    {
      "inputs": [],
      "stateMutability": "nonpayable",
      "type": "constructor"
    },
    {
      "anonymous": false,
      "inputs": [
        {
          "indexed": false,
          "internalType": "address",
          "name": "previousAdmin",
          "type": "address"
        },
        {
          "indexed": false,
          "internalType": "address",
          "name": "newAdmin",
          "type": "address"
        }
      ],
      "name": "AdminChanged",
      "type": "event"
    },
    {
      "anonymous": false,
      "inputs": [
        {
          "indexed": true,
          "internalType": "address",
          "name": "owner",
          "type": "address"
        },
        {
          "indexed": true,
          "internalType": "address",
          "name": "spender",
          "type": "address"
        },
        {
          "indexed": false,
          "internalType": "uint256",
          "name": "value",
          "type": "uint256"
        }
      ],
      "name": "Approval",
      "type": "event"
    },
    {
      "anonymous": false,
      "inputs": [
        {
          "indexed": true,
          "internalType": "address",
          "name": "beacon",
          "type": "address"
        }
      ],
      "name": "BeaconUpgraded",
      "type": "event"
    },
    {
      "anonymous": false,
      "inputs": [
        {
          "indexed": false,
          "internalType": "uint8",
          "name": "version",
          "type": "uint8"
        }
      ],
      "name": "Initialized",
      "type": "event"
    },
    {
      "anonymous": false,
      "inputs": [
        {
          "indexed": true,
          "internalType": "address",
          "name": "previousOwner",
          "type": "address"
        },
        {
          "indexed": true,
          "internalType": "address",
          "name": "newOwner",
          "type": "address"
        }
      ],
      "name": "OwnershipTransferred",
      "type": "event"
    },
    {
      "anonymous": false,
      "inputs": [
        {
          "indexed": false,
          "internalType": "address",
          "name": "account",
          "type": "address"
        }
      ],
      "name": "Paused",
      "type": "event"
    },
    {
      "anonymous": false,
      "inputs": [
        {
          "indexed": true,
          "internalType": "address",
          "name": "from",
          "type": "address"
        },
        {
          "indexed": true,
          "internalType": "address",
          "name": "to",
          "type": "address"
        },
        {
          "indexed": false,
          "internalType": "uint256",
          "name": "value",
          "type": "uint256"
        }
      ],
      "name": "Transfer",
      "type": "event"
    },
    {
      "anonymous": false,
      "inputs": [
        {
          "indexed": false,
          "internalType": "address",
          "name": "account",
          "type": "address"
        }
      ],
      "name": "Unpaused",
      "type": "event"
    },
    {
      "anonymous": false,
      "inputs": [
        {
          "indexed": true,
          "internalType": "address",
          "name": "implementation",
          "type": "address"
        }
      ],
      "name": "Upgraded",
      "type": "event"
    },
    {
      "inputs": [],
      "name": "DOMAIN_SEPARATOR",
      "outputs": [
        {
          "internalType": "bytes32",
          "name": "",
          "type": "bytes32"
        }
      ],
      "stateMutability": "view",
      "type": "function"
    },
    {
      "inputs": [
        {
          "internalType": "address",
          "name": "owner",
          "type": "address"
        },
        {
          "internalType": "address",
          "name": "spender",
          "type": "address"
        }
      ],
      "name": "allowance",
      "outputs": [
        {
          "internalType": "uint256",
          "name": "",
          "type": "uint256"
        }
      ],
      "stateMutability": "view",
      "type": "function"
    },
    {
      "inputs": [
        {
          "internalType": "address",
          "name": "spender",
          "type": "address"
        },
        {
          "internalType": "uint256",
          "name": "amount",
          "type": "uint256"
        }
      ],
      "name": "approve",
      "outputs": [
        {
          "internalType": "bool",
          "name": "",
          "type": "bool"
        }
      ],
      "stateMutability": "nonpayable",
      "type": "function"
    },
    {
      "inputs": [
        {
          "internalType": "address",
          "name": "account",
          "type": "address"
        }
      ],
      "name": "balanceOf",
      "outputs": [
        {
          "internalType": "uint256",
          "name": "",
          "type": "uint256"
        }
      ],
      "stateMutability": "view",
      "type": "function"
    },
    {
      "inputs": [
        {
          "internalType": "uint256",
          "name": "amount",
          "type": "uint256"
        }
      ],
      "name": "burn",
      "outputs": [],
      "stateMutability": "nonpayable",
      "type": "function"
    },
    {
      "inputs": [
        {
          "internalType": "address",
          "name": "account",
          "type": "address"
        },
        {
          "internalType": "uint256",
          "name": "amount",
          "type": "uint256"
        }
      ],
      "name": "burnFrom",
      "outputs": [],
      "stateMutability": "nonpayable",
      "type": "function"
    },
    {
      "inputs": [],
      "name": "decimals",
      "outputs": [
        {
          "internalType": "uint8",
          "name": "",
          "type": "uint8"
        }
      ],
      "stateMutability": "view",
      "type": "function"
    },
    {
      "inputs": [
        {
          "internalType": "address",
          "name": "spender",
          "type": "address"
        },
        {
          "internalType": "uint256",
          "name": "subtractedValue",
          "type": "uint256"
        }
      ],
      "name": "decreaseAllowance",
      "outputs": [
        {
          "internalType": "bool",
          "name": "",
          "type": "bool"
        }
      ],
      "stateMutability": "nonpayable",
      "type": "function"
    },
    {
      "inputs": [
        {
          "internalType": "address",
          "name": "token",
          "type": "address"
        },
        {
          "internalType": "uint256",
          "name": "amount",
          "type": "uint256"
        }
      ],
      "name": "flashFee",
      "outputs": [
        {
          "internalType": "uint256",
          "name": "",
          "type": "uint256"
        }
      ],
      "stateMutability": "view",
      "type": "function"
    },
    {
      "inputs": [
        {
          "internalType": "contract IERC3156FlashBorrowerUpgradeable",
          "name": "receiver",
          "type": "address"
        },
        {
          "internalType": "address",
          "name": "token",
          "type": "address"
        },
        {
          "internalType": "uint256",
          "name": "amount",
          "type": "uint256"
        },
        {
          "internalType": "bytes",
          "name": "data",
          "type": "bytes"
        }
      ],
      "name": "flashLoan",
      "outputs": [
        {
          "internalType": "bool",
          "name": "",
          "type": "bool"
        }
      ],
      "stateMutability": "nonpayable",
      "type": "function"
    },
    {
      "inputs": [
        {
          "internalType": "address",
          "name": "spender",
          "type": "address"
        },
        {
          "internalType": "uint256",
          "name": "addedValue",
          "type": "uint256"
        }
      ],
      "name": "increaseAllowance",
      "outputs": [
        {
          "internalType": "bool",
          "name": "",
          "type": "bool"
        }
      ],
      "stateMutability": "nonpayable",
      "type": "function"
    },
    {
      "inputs": [],
      "name": "initialize",
      "outputs": [],
      "stateMutability": "nonpayable",
      "type": "function"
    },
    {
      "inputs": [
        {
          "internalType": "address",
          "name": "token",
          "type": "address"
        }
      ],
      "name": "maxFlashLoan",
      "outputs": [
        {
          "internalType": "uint256",
          "name": "",
          "type": "uint256"
        }
      ],
      "stateMutability": "view",
      "type": "function"
    },
    {
      "inputs": [
        {
          "internalType": "address",
          "name": "to",
          "type": "address"
        },
        {
          "internalType": "uint256",
          "name": "amount",
          "type": "uint256"
        }
      ],
      "name": "mint",
      "outputs": [],
      "stateMutability": "nonpayable",
      "type": "function"
    },
    {
      "inputs": [],
      "name": "name",
      "outputs": [
        {
          "internalType": "string",
          "name": "",
          "type": "string"
        }
      ],
      "stateMutability": "view",
      "type": "function"
    },
    {
      "inputs": [
        {
          "internalType": "address",
          "name": "owner",
          "type": "address"
        }
      ],
      "name": "nonces",
      "outputs": [
        {
          "internalType": "uint256",
          "name": "",
          "type": "uint256"
        }
      ],
      "stateMutability": "view",
      "type": "function"
    },
    {
      "inputs": [],
      "name": "owner",
      "outputs": [
        {
          "internalType": "address",
          "name": "",
          "type": "address"
        }
      ],
      "stateMutability": "view",
      "type": "function"
    },
    {
      "inputs": [],
      "name": "pause",
      "outputs": [],
      "stateMutability": "nonpayable",
      "type": "function"
    },
    {
      "inputs": [],
      "name": "paused",
      "outputs": [
        {
          "internalType": "bool",
          "name": "",
          "type": "bool"
        }
      ],
      "stateMutability": "view",
      "type": "function"
    },
    {
      "inputs": [
        {
          "internalType": "address",
          "name": "owner",
          "type": "address"
        },
        {
          "internalType": "address",
          "name": "spender",
          "type": "address"
        },
        {
          "internalType": "uint256",
          "name": "value",
          "type": "uint256"
        },
        {
          "internalType": "uint256",
          "name": "deadline",
          "type": "uint256"
        },
        {
          "internalType": "uint8",
          "name": "v",
          "type": "uint8"
        },
        {
          "internalType": "bytes32",
          "name": "r",
          "type": "bytes32"
        },
        {
          "internalType": "bytes32",
          "name": "s",
          "type": "bytes32"
        }
      ],
      "name": "permit",
      "outputs": [],
      "stateMutability": "nonpayable",
      "type": "function"
    },
    {
      "inputs": [],
      "name": "proxiableUUID",
      "outputs": [
        {
          "internalType": "bytes32",
          "name": "",
          "type": "bytes32"
        }
      ],
      "stateMutability": "view",
      "type": "function"
    },
    {
      "inputs": [],
      "name": "renounceOwnership",
      "outputs": [],
      "stateMutability": "nonpayable",
      "type": "function"
    },
    {
      "inputs": [],
      "name": "symbol",
      "outputs": [
        {
          "internalType": "string",
          "name": "",
          "type": "string"
        }
      ],
      "stateMutability": "view",
      "type": "function"
    },
    {
      "inputs": [],
      "name": "totalSupply",
      "outputs": [
        {
          "internalType": "uint256",
          "name": "",
          "type": "uint256"
        }
      ],
      "stateMutability": "view",
      "type": "function"
    },
    {
      "inputs": [
        {
          "internalType": "address",
          "name": "to",
          "type": "address"
        },
        {
          "internalType": "uint256",
          "name": "amount",
          "type": "uint256"
        }
      ],
      "name": "transfer",
      "outputs": [
        {
          "internalType": "bool",
          "name": "",
          "type": "bool"
        }
      ],
      "stateMutability": "nonpayable",
      "type": "function"
    },
    {
      "inputs": [
        {
          "internalType": "address",
          "name": "from",
          "type": "address"
        },
        {
          "internalType": "address",
          "name": "to",
          "type": "address"
        },
        {
          "internalType": "uint256",
          "name": "amount",
          "type": "uint256"
        }
      ],
      "name": "transferFrom",
      "outputs": [
        {
          "internalType": "bool",
          "name": "",
          "type": "bool"
        }
      ],
      "stateMutability": "nonpayable",
      "type": "function"
    },
    {
      "inputs": [
        {
          "internalType": "address",
          "name": "newOwner",
          "type": "address"
        }
      ],
      "name": "transferOwnership",
      "outputs": [],
      "stateMutability": "nonpayable",
      "type": "function"
    },
    {
      "inputs": [],
      "name": "unpause",
      "outputs": [],
      "stateMutability": "nonpayable",
      "type": "function"
    },
    {
      "inputs": [
        {
          "internalType": "address",
          "name": "newImplementation",
          "type": "address"
        }
      ],
      "name": "upgradeTo",
      "outputs": [],
      "stateMutability": "nonpayable",
      "type": "function"
    },
    {
      "inputs": [
        {
          "internalType": "address",
          "name": "newImplementation",
          "type": "address"
        },
        {
          "internalType": "bytes",
          "name": "data",
          "type": "bytes"
        }
      ],
      "name": "upgradeToAndCall",
      "outputs": [],
      "stateMutability": "payable",
      "type": "function"
    }
  ],
  "bytecode": "0x60a0604052306080523480156200001557600080fd5b506200002062000026565b620000e8565b600054610100900460ff1615620000935760405162461bcd60e51b815260206004820152602760248201527f496e697469616c697a61626c653a20636f6e747261637420697320696e697469604482015266616c697a696e6760c81b606482015260840160405180910390fd5b60005460ff9081161015620000e6576000805460ff191660ff9081179091556040519081527f7f26b83ff96e1f2b6a682f133852f6798a09c465da95921460cefb38474024989060200160405180910390a15b565b6080516127da62000120600039600081816106510152818161069a0152818161078d015281816107cd015261085c01526127da6000f3fe6080604052600436106101cd5760003560e01c8063613255ab116100f75780638da5cb5b11610095578063d505accf11610064578063d505accf146104e6578063d9d98ce414610506578063dd62ed3e14610526578063f2fde38b1461054657600080fd5b80638da5cb5b1461046957806395d89b4114610491578063a457c2d7146104a6578063a9059cbb146104c657600080fd5b806379cc6790116100d157806379cc6790146103ff5780637ecebe001461041f5780638129fc1c1461043f5780638456cb591461045457600080fd5b8063613255ab1461039457806370a08231146103b4578063715018a6146103ea57600080fd5b8063395093511161016f5780634f1ef2861161013e5780634f1ef2861461033457806352d1902d146103475780635c975abb1461035c5780635cffe9de1461037457600080fd5b806339509351146102bf5780633f4ba83a146102df57806340c10f19146102f457806342966c681461031457600080fd5b806323b872dd116101ab57806323b872dd1461024c578063313ce5671461026c5780633644e515146102885780633659cfe61461029d57600080fd5b806306fdde03146101d2578063095ea7b3146101fd57806318160ddd1461022d575b600080fd5b3480156101de57600080fd5b506101e7610566565b6040516101f49190612037565b60405180910390f35b34801561020957600080fd5b5061021d61021836600461207f565b6105f8565b60405190151581526020016101f4565b34801561023957600080fd5b506035545b6040519081526020016101f4565b34801561025857600080fd5b5061021d6102673660046120ab565b610612565b34801561027857600080fd5b50604051601281526020016101f4565b34801561029457600080fd5b5061023e610638565b3480156102a957600080fd5b506102bd6102b83660046120ec565b610647565b005b3480156102cb57600080fd5b5061021d6102da36600461207f565b61072f565b3480156102eb57600080fd5b506102bd610751565b34801561030057600080fd5b506102bd61030f36600461207f565b610763565b34801561032057600080fd5b506102bd61032f366004612109565b610779565b6102bd610342366004612138565b610783565b34801561035357600080fd5b5061023e61084f565b34801561036857600080fd5b5060975460ff1661021d565b34801561038057600080fd5b5061021d61038f3660046121fc565b610902565b3480156103a057600080fd5b5061023e6103af3660046120ec565b610ae6565b3480156103c057600080fd5b5061023e6103cf3660046120ec565b6001600160a01b031660009081526033602052604090205490565b3480156103f657600080fd5b506102bd610b0e565b34801561040b57600080fd5b506102bd61041a36600461207f565b610b20565b34801561042b57600080fd5b5061023e61043a3660046120ec565b610b35565b34801561044b57600080fd5b506102bd610b54565b34801561046057600080fd5b506102bd610d10565b34801561047557600080fd5b5060c9546040516001600160a01b0390911681526020016101f4565b34801561049d57600080fd5b506101e7610d20565b3480156104b257600080fd5b5061021d6104c136600461207f565b610d2f565b3480156104d257600080fd5b5061021d6104e136600461207f565b610db5565b3480156104f257600080fd5b506102bd61050136600461229b565b610dc3565b34801561051257600080fd5b5061023e61052136600461207f565b610f27565b34801561053257600080fd5b5061023e610541366004612312565b610f88565b34801561055257600080fd5b506102bd6105613660046120ec565b610fb3565b6060603680546105759061234b565b80601f01602080910402602001604051908101604052809291908181526020018280546105a19061234b565b80156105ee5780601f106105c3576101008083540402835291602001916105ee565b820191906000526020600020905b8154815290600101906020018083116105d157829003601f168201915b5050505050905090565b600033610606818585611029565b60019150505b92915050565b60003361062085828561114d565b61062b8585856111c7565b60019150505b9392505050565b600061064261137d565b905090565b6001600160a01b037f00000000000000000000000000000000000000000000000000000000000000001630036106985760405162461bcd60e51b815260040161068f9061237f565b60405180910390fd5b7f00000000000000000000000000000000000000000000000000000000000000006001600160a01b03166106e160008051602061275e833981519152546001600160a01b031690565b6001600160a01b0316146107075760405162461bcd60e51b815260040161068f906123cb565b610710816113f8565b6040805160008082526020820190925261072c91839190611400565b50565b6000336106068185856107428383610f88565b61074c919061242d565b611029565b610759611570565b6107616115ca565b565b61076b611570565b610775828261161c565b5050565b61072c33826116e9565b6001600160a01b037f00000000000000000000000000000000000000000000000000000000000000001630036107cb5760405162461bcd60e51b815260040161068f9061237f565b7f00000000000000000000000000000000000000000000000000000000000000006001600160a01b031661081460008051602061275e833981519152546001600160a01b031690565b6001600160a01b03161461083a5760405162461bcd60e51b815260040161068f906123cb565b610843826113f8565b61077582826001611400565b6000306001600160a01b037f000000000000000000000000000000000000000000000000000000000000000016146108ef5760405162461bcd60e51b815260206004820152603860248201527f555550535570677261646561626c653a206d757374206e6f742062652063616c60448201527f6c6564207468726f7567682064656c656761746563616c6c0000000000000000606482015260840161068f565b5060008051602061275e83398151915290565b600061090d85610ae6565b8411156109705760405162461bcd60e51b815260206004820152602b60248201527f4552433230466c6173684d696e743a20616d6f756e742065786365656473206d60448201526a30bc233630b9b42637b0b760a91b606482015260840161068f565b600061097c8686610f27565b9050610988878661161c565b6040516323e30c8b60e01b81527f439148f0bbc682ca079e46d6e2c2f0c1e3b820f1a291b069d8882abf8cf18dd9906001600160a01b038916906323e30c8b906109e09033908b908b9088908c908c90600401612440565b6020604051808303816000875af11580156109ff573d6000803e3d6000fd5b505050506040513d601f19601f82011682018060405250810190610a23919061249c565b14610a7c5760405162461bcd60e51b8152602060048201526024808201527f4552433230466c6173684d696e743a20696e76616c69642072657475726e2076604482015263616c756560e01b606482015260840161068f565b6000610a928830610a8d858a61242d565b61114d565b811580610aa657506001600160a01b038116155b15610ac357610abe88610ab9848961242d565b6116e9565b610ad8565b610acd88876116e9565b610ad88882846111c7565b506001979650505050505050565b60006001600160a01b0382163014610aff57600061060c565b60355461060c906000196124b5565b610b16611570565b6107616000611829565b610b2b82338361114d565b61077582826116e9565b6001600160a01b038116600090815261012f602052604081205461060c565b600054610100900460ff1615808015610b745750600054600160ff909116105b80610b8e5750303b158015610b8e575060005460ff166001145b610bf15760405162461bcd60e51b815260206004820152602e60248201527f496e697469616c697a61626c653a20636f6e747261637420697320616c72656160448201526d191e481a5b9a5d1a585b1a5e995960921b606482015260840161068f565b6000805460ff191660011790558015610c14576000805461ff0019166101001790555b610c5860405180604001604052806005815260200164135e5554d160da1b8152506040518060400160405280600581526020016413565554d160da1b81525061187b565b610c606118ac565b610c686118d3565b610c70611902565b610c9660405180604001604052806005815260200164135e5554d160da1b815250611931565b610c9e6118ac565b610ca66118ac565b610cc833610cb66012600a6125ac565b610cc390629896806125bb565b61161c565b801561072c576000805461ff0019169055604051600181527f7f26b83ff96e1f2b6a682f133852f6798a09c465da95921460cefb38474024989060200160405180910390a150565b610d18611570565b61076161197b565b6060603780546105759061234b565b60003381610d3d8286610f88565b905083811015610d9d5760405162461bcd60e51b815260206004820152602560248201527f45524332303a2064656372656173656420616c6c6f77616e63652062656c6f77604482015264207a65726f60d81b606482015260840161068f565b610daa8286868403611029565b506001949350505050565b6000336106068185856111c7565b83421115610e135760405162461bcd60e51b815260206004820152601d60248201527f45524332305065726d69743a206578706972656420646561646c696e65000000604482015260640161068f565b60007f6e71edae12b1b97f4d1f60370fef10105fa2faae0126114a169c64845d6126c9888888610e428c6119b8565b6040805160208101969096526001600160a01b0394851690860152929091166060840152608083015260a082015260c0810186905260e0016040516020818303038152906040528051906020012090506000610e9d826119e1565b90506000610ead82878787611a2f565b9050896001600160a01b0316816001600160a01b031614610f105760405162461bcd60e51b815260206004820152601e60248201527f45524332305065726d69743a20696e76616c6964207369676e61747572650000604482015260640161068f565b610f1b8a8a8a611029565b50505050505050505050565b60006001600160a01b0383163014610f815760405162461bcd60e51b815260206004820152601b60248201527f4552433230466c6173684d696e743a2077726f6e6720746f6b656e0000000000604482015260640161068f565b6000610631565b6001600160a01b03918216600090815260346020908152604080832093909416825291909152205490565b610fbb611570565b6001600160a01b0381166110205760405162461bcd60e51b815260206004820152602660248201527f4f776e61626c653a206e6577206f776e657220697320746865207a65726f206160448201526564647265737360d01b606482015260840161068f565b61072c81611829565b6001600160a01b03831661108b5760405162461bcd60e51b8152602060048201526024808201527f45524332303a20617070726f76652066726f6d20746865207a65726f206164646044820152637265737360e01b606482015260840161068f565b6001600160a01b0382166110ec5760405162461bcd60e51b815260206004820152602260248201527f45524332303a20617070726f766520746f20746865207a65726f206164647265604482015261737360f01b606482015260840161068f565b6001600160a01b0383811660008181526034602090815260408083209487168084529482529182902085905590518481527f8c5be1e5ebec7d5bd14f71427d1e84f3dd0314c0f7b2291e5b200ac8c7c3b925910160405180910390a3505050565b60006111598484610f88565b905060001981146111c157818110156111b45760405162461bcd60e51b815260206004820152601d60248201527f45524332303a20696e73756666696369656e7420616c6c6f77616e6365000000604482015260640161068f565b6111c18484848403611029565b50505050565b6001600160a01b03831661122b5760405162461bcd60e51b815260206004820152602560248201527f45524332303a207472616e736665722066726f6d20746865207a65726f206164604482015264647265737360d81b606482015260840161068f565b6001600160a01b03821661128d5760405162461bcd60e51b815260206004820152602360248201527f45524332303a207472616e7366657220746f20746865207a65726f206164647260448201526265737360e81b606482015260840161068f565b611298838383611a57565b6001600160a01b038316600090815260336020526040902054818110156113105760405162461bcd60e51b815260206004820152602660248201527f45524332303a207472616e7366657220616d6f756e7420657863656564732062604482015265616c616e636560d01b606482015260840161068f565b6001600160a01b0380851660008181526033602052604080822086860390559286168082529083902080548601905591517fddf252ad1be2c89b69c2b068fc378daa952ba7f163c4a11628f55a4df523b3ef906113709086815260200190565b60405180910390a36111c1565b60006106427f8b73c3c69bb8fe3d512ecc4cf759cc79239f7b179b0ffacaa9a75d522b39400f6113ac60fb5490565b60fc546040805160208101859052908101839052606081018290524660808201523060a082015260009060c0016040516020818303038152906040528051906020012090509392505050565b61072c611570565b7f4910fdfa16fed3260ed0e7147f7cc6da11a60208b5b9406d12a635614ffd91435460ff16156114385761143383611a5f565b505050565b826001600160a01b03166352d1902d6040518163ffffffff1660e01b8152600401602060405180830381865afa925050508015611492575060408051601f3d908101601f1916820190925261148f9181019061249c565b60015b6114f55760405162461bcd60e51b815260206004820152602e60248201527f45524331393637557067726164653a206e657720696d706c656d656e7461746960448201526d6f6e206973206e6f74205555505360901b606482015260840161068f565b60008051602061275e83398151915281146115645760405162461bcd60e51b815260206004820152602960248201527f45524331393637557067726164653a20756e737570706f727465642070726f786044820152681a58589b195555525160ba1b606482015260840161068f565b50611433838383611afb565b60c9546001600160a01b031633146107615760405162461bcd60e51b815260206004820181905260248201527f4f776e61626c653a2063616c6c6572206973206e6f7420746865206f776e6572604482015260640161068f565b6115d2611b20565b6097805460ff191690557f5db9ee0a495bf2e6ff9c91a7834c1ba4fdd244a5e8aa4e537bd38aeae4b073aa335b6040516001600160a01b03909116815260200160405180910390a1565b6001600160a01b0382166116725760405162461bcd60e51b815260206004820152601f60248201527f45524332303a206d696e7420746f20746865207a65726f206164647265737300604482015260640161068f565b61167e60008383611a57565b8060356000828254611690919061242d565b90915550506001600160a01b0382166000818152603360209081526040808320805486019055518481527fddf252ad1be2c89b69c2b068fc378daa952ba7f163c4a11628f55a4df523b3ef910160405180910390a35050565b6001600160a01b0382166117495760405162461bcd60e51b815260206004820152602160248201527f45524332303a206275726e2066726f6d20746865207a65726f206164647265736044820152607360f81b606482015260840161068f565b61175582600083611a57565b6001600160a01b038216600090815260336020526040902054818110156117c95760405162461bcd60e51b815260206004820152602260248201527f45524332303a206275726e20616d6f756e7420657863656564732062616c616e604482015261636560f01b606482015260840161068f565b6001600160a01b03831660008181526033602090815260408083208686039055603580548790039055518581529192917fddf252ad1be2c89b69c2b068fc378daa952ba7f163c4a11628f55a4df523b3ef910160405180910390a3505050565b60c980546001600160a01b038381166001600160a01b0319831681179093556040519116919082907f8be0079c531659141344cd1fd0a4f28419497f9722a3daafe3b4186f6b6457e090600090a35050565b600054610100900460ff166118a25760405162461bcd60e51b815260040161068f906125d2565b6107758282611b69565b600054610100900460ff166107615760405162461bcd60e51b815260040161068f906125d2565b600054610100900460ff166118fa5760405162461bcd60e51b815260040161068f906125d2565b610761611ba9565b600054610100900460ff166119295760405162461bcd60e51b815260040161068f906125d2565b610761611bdc565b600054610100900460ff166119585760405162461bcd60e51b815260040161068f906125d2565b61072c81604051806040016040528060018152602001603160f81b815250611c0c565b611983611c4d565b6097805460ff191660011790557f62e78cea01bee320cd4e420270b5ea74000d11b0c9f74754ebdbfc544b05a2586115ff3390565b6001600160a01b038116600090815261012f602052604090208054600181018255905b50919050565b600061060c6119ee61137d565b8360405161190160f01b6020820152602281018390526042810182905260009060620160405160208183030381529060405280519060200120905092915050565b6000806000611a4087878787611c93565b91509150611a4d81611d57565b5095945050505050565b611433611c4d565b6001600160a01b0381163b611acc5760405162461bcd60e51b815260206004820152602d60248201527f455243313936373a206e657720696d706c656d656e746174696f6e206973206e60448201526c1bdd08184818dbdb9d1c9858dd609a1b606482015260840161068f565b60008051602061275e83398151915280546001600160a01b0319166001600160a01b0392909216919091179055565b611b0483611ea1565b600082511180611b115750805b15611433576111c18383611ee1565b60975460ff166107615760405162461bcd60e51b815260206004820152601460248201527314185d5cd8589b194e881b9bdd081c185d5cd95960621b604482015260640161068f565b600054610100900460ff16611b905760405162461bcd60e51b815260040161068f906125d2565b6036611b9c838261266b565b506037611433828261266b565b600054610100900460ff16611bd05760405162461bcd60e51b815260040161068f906125d2565b6097805460ff19169055565b600054610100900460ff16611c035760405162461bcd60e51b815260040161068f906125d2565b61076133611829565b600054610100900460ff16611c335760405162461bcd60e51b815260040161068f906125d2565b81516020928301208151919092012060fb9190915560fc55565b60975460ff16156107615760405162461bcd60e51b815260206004820152601060248201526f14185d5cd8589b194e881c185d5cd95960821b604482015260640161068f565b6000807f7fffffffffffffffffffffffffffffff5d576e7357a4501ddfe92f46681b20a0831115611cca5750600090506003611d4e565b6040805160008082526020820180845289905260ff881692820192909252606081018690526080810185905260019060a0016020604051602081039080840390855afa158015611d1e573d6000803e3d6000fd5b5050604051601f1901519150506001600160a01b038116611d4757600060019250925050611d4e565b9150600090505b94509492505050565b6000816004811115611d6b57611d6b61272b565b03611d735750565b6001816004811115611d8757611d8761272b565b03611dd45760405162461bcd60e51b815260206004820152601860248201527f45434453413a20696e76616c6964207369676e61747572650000000000000000604482015260640161068f565b6002816004811115611de857611de861272b565b03611e355760405162461bcd60e51b815260206004820152601f60248201527f45434453413a20696e76616c6964207369676e6174757265206c656e67746800604482015260640161068f565b6003816004811115611e4957611e4961272b565b0361072c5760405162461bcd60e51b815260206004820152602260248201527f45434453413a20696e76616c6964207369676e6174757265202773272076616c604482015261756560f01b606482015260840161068f565b611eaa81611a5f565b6040516001600160a01b038216907fbc7cd75a20ee27fd9adebab32041f755214dbc6bffa90cc0225b39da2e5c2d3b90600090a250565b60606001600160a01b0383163b611f495760405162461bcd60e51b815260206004820152602660248201527f416464726573733a2064656c65676174652063616c6c20746f206e6f6e2d636f6044820152651b9d1c9858dd60d21b606482015260840161068f565b600080846001600160a01b031684604051611f649190612741565b600060405180830381855af49150503d8060008114611f9f576040519150601f19603f3d011682016040523d82523d6000602084013e611fa4565b606091505b5091509150611fcc828260405180606001604052806027815260200161277e60279139611fd5565b95945050505050565b60608315611fe4575081610631565b6106318383815115611ff95781518083602001fd5b8060405162461bcd60e51b815260040161068f9190612037565b60005b8381101561202e578181015183820152602001612016565b50506000910152565b6020815260008251806020840152612056816040850160208701612013565b601f01601f19169190910160400192915050565b6001600160a01b038116811461072c57600080fd5b6000806040838503121561209257600080fd5b823561209d8161206a565b946020939093013593505050565b6000806000606084860312156120c057600080fd5b83356120cb8161206a565b925060208401356120db8161206a565b929592945050506040919091013590565b6000602082840312156120fe57600080fd5b81356106318161206a565b60006020828403121561211b57600080fd5b5035919050565b634e487b7160e01b600052604160045260246000fd5b6000806040838503121561214b57600080fd5b82356121568161206a565b9150602083013567ffffffffffffffff8082111561217357600080fd5b818501915085601f83011261218757600080fd5b81358181111561219957612199612122565b604051601f8201601f19908116603f011681019083821181831017156121c1576121c1612122565b816040528281528860208487010111156121da57600080fd5b8260208601602083013760006020848301015280955050505050509250929050565b60008060008060006080868803121561221457600080fd5b853561221f8161206a565b9450602086013561222f8161206a565b935060408601359250606086013567ffffffffffffffff8082111561225357600080fd5b818801915088601f83011261226757600080fd5b81358181111561227657600080fd5b89602082850101111561228857600080fd5b9699959850939650602001949392505050565b600080600080600080600060e0888a0312156122b657600080fd5b87356122c18161206a565b965060208801356122d18161206a565b95506040880135945060608801359350608088013560ff811681146122f557600080fd5b9699959850939692959460a0840135945060c09093013592915050565b6000806040838503121561232557600080fd5b82356123308161206a565b915060208301356123408161206a565b809150509250929050565b600181811c9082168061235f57607f821691505b6020821081036119db57634e487b7160e01b600052602260045260246000fd5b6020808252602c908201527f46756e6374696f6e206d7573742062652063616c6c6564207468726f7567682060408201526b19195b1959d85d1958d85b1b60a21b606082015260800190565b6020808252602c908201527f46756e6374696f6e206d7573742062652063616c6c6564207468726f7567682060408201526b6163746976652070726f787960a01b606082015260800190565b634e487b7160e01b600052601160045260246000fd5b8082018082111561060c5761060c612417565b6001600160a01b03878116825286166020820152604081018590526060810184905260a06080820181905281018290526000828460c0840137600060c0848401015260c0601f19601f8501168301019050979650505050505050565b6000602082840312156124ae57600080fd5b5051919050565b8181038181111561060c5761060c612417565b600181815b808511156125035781600019048211156124e9576124e9612417565b808516156124f657918102915b93841c93908002906124cd565b509250929050565b60008261251a5750600161060c565b816125275750600061060c565b816001811461253d576002811461254757612563565b600191505061060c565b60ff84111561255857612558612417565b50506001821b61060c565b5060208310610133831016604e8410600b8410161715612586575081810a61060c565b61259083836124c8565b80600019048211156125a4576125a4612417565b029392505050565b600061063160ff84168361250b565b808202811582820484141761060c5761060c612417565b6020808252602b908201527f496e697469616c697a61626c653a20636f6e7472616374206973206e6f74206960408201526a6e697469616c697a696e6760a81b606082015260800190565b601f82111561143357600081815260208120601f850160051c810160208610156126445750805b601f850160051c820191505b8181101561266357828155600101612650565b505050505050565b815167ffffffffffffffff81111561268557612685612122565b61269981612693845461234b565b8461261d565b602080601f8311600181146126ce57600084156126b65750858301515b600019600386901b1c1916600185901b178555612663565b600085815260208120601f198616915b828110156126fd578886015182559484019460019091019084016126de565b508582101561271b5787850151600019600388901b60f8161c191681555b5050505050600190811b01905550565b634e487b7160e01b600052602160045260246000fd5b60008251612753818460208701612013565b919091019291505056fe360894a13ba1a3210667c828492db98dca3e2076cc3735a920a3ca505d382bbc416464726573733a206c6f772d6c6576656c2064656c65676174652063616c6c206661696c6564a2646970667358221220f416748999fe6fa40d7f98ddebc1cb9e445262b86fbdda1cb51ce1eb1a3c271264736f6c63430008120033",
  "linkReferences": {},
  "deployedLinkReferences": {}
}