{
  "_format": "hh-sol-artifact-1",
  "contractName": "MyWin",
  "sourceName": "contracts/MyWinToken.sol",
  "abi": [
    {
      "inputs": [],
      "stateMutability": "nonpayable",
      "type": "constructor"
    },
    {
      "anonymous": false,
      "inputs": [
        {
          "indexed": true,
          "internalType": "address",
          "name": "owner",
          "type": "address"
        },
        {
          "indexed": true,
          "internalType": "address",
          "name": "spender",
          "type": "address"
        },
        {
          "indexed": false,
          "internalType": "uint256",
          "name": "value",
          "type": "uint256"
        }
      ],
      "name": "Approval",
      "type": "event"
    },
    {
      "anonymous": false,
      "inputs": [
        {
          "indexed": true,
          "internalType": "address",
          "name": "previousOwner",
          "type": "address"
        },
        {
          "indexed": true,
          "internalType": "address",
          "name": "newOwner",
          "type": "address"
        }
      ],
      "name": "OwnershipTransferred",
      "type": "event"
    },
    {
      "anonymous": false,
      "inputs": [
        {
          "indexed": false,
          "internalType": "uint256",
          "name": "id",
          "type": "uint256"
        }
      ],
      "name": "Snapshot",
      "type": "event"
    },
    {
      "anonymous": false,
      "inputs": [
        {
          "indexed": true,
          "internalType": "address",
          "name": "from",
          "type": "address"
        },
        {
          "indexed": true,
          "internalType": "address",
          "name": "to",
          "type": "address"
        },
        {
          "indexed": false,
          "internalType": "uint256",
          "name": "value",
          "type": "uint256"
        }
      ],
      "name": "Transfer",
      "type": "event"
    },
    {
      "inputs": [],
      "name": "DOMAIN_SEPARATOR",
      "outputs": [
        {
          "internalType": "bytes32",
          "name": "",
          "type": "bytes32"
        }
      ],
      "stateMutability": "view",
      "type": "function"
    },
    {
      "inputs": [
        {
          "internalType": "address",
          "name": "owner",
          "type": "address"
        },
        {
          "internalType": "address",
          "name": "spender",
          "type": "address"
        }
      ],
      "name": "allowance",
      "outputs": [
        {
          "internalType": "uint256",
          "name": "",
          "type": "uint256"
        }
      ],
      "stateMutability": "view",
      "type": "function"
    },
    {
      "inputs": [
        {
          "internalType": "address",
          "name": "spender",
          "type": "address"
        },
        {
          "internalType": "uint256",
          "name": "amount",
          "type": "uint256"
        }
      ],
      "name": "approve",
      "outputs": [
        {
          "internalType": "bool",
          "name": "",
          "type": "bool"
        }
      ],
      "stateMutability": "nonpayable",
      "type": "function"
    },
    {
      "inputs": [
        {
          "internalType": "address",
          "name": "account",
          "type": "address"
        }
      ],
      "name": "balanceOf",
      "outputs": [
        {
          "internalType": "uint256",
          "name": "",
          "type": "uint256"
        }
      ],
      "stateMutability": "view",
      "type": "function"
    },
    {
      "inputs": [
        {
          "internalType": "address",
          "name": "account",
          "type": "address"
        },
        {
          "internalType": "uint256",
          "name": "snapshotId",
          "type": "uint256"
        }
      ],
      "name": "balanceOfAt",
      "outputs": [
        {
          "internalType": "uint256",
          "name": "",
          "type": "uint256"
        }
      ],
      "stateMutability": "view",
      "type": "function"
    },
    {
      "inputs": [
        {
          "internalType": "uint256",
          "name": "amount",
          "type": "uint256"
        }
      ],
      "name": "burn",
      "outputs": [],
      "stateMutability": "nonpayable",
      "type": "function"
    },
    {
      "inputs": [
        {
          "internalType": "address",
          "name": "account",
          "type": "address"
        },
        {
          "internalType": "uint256",
          "name": "amount",
          "type": "uint256"
        }
      ],
      "name": "burnFrom",
      "outputs": [],
      "stateMutability": "nonpayable",
      "type": "function"
    },
    {
      "inputs": [],
      "name": "decimals",
      "outputs": [
        {
          "internalType": "uint8",
          "name": "",
          "type": "uint8"
        }
      ],
      "stateMutability": "view",
      "type": "function"
    },
    {
      "inputs": [
        {
          "internalType": "address",
          "name": "spender",
          "type": "address"
        },
        {
          "internalType": "uint256",
          "name": "subtractedValue",
          "type": "uint256"
        }
      ],
      "name": "decreaseAllowance",
      "outputs": [
        {
          "internalType": "bool",
          "name": "",
          "type": "bool"
        }
      ],
      "stateMutability": "nonpayable",
      "type": "function"
    },
    {
      "inputs": [
        {
          "internalType": "address",
          "name": "token",
          "type": "address"
        },
        {
          "internalType": "uint256",
          "name": "amount",
          "type": "uint256"
        }
      ],
      "name": "flashFee",
      "outputs": [
        {
          "internalType": "uint256",
          "name": "",
          "type": "uint256"
        }
      ],
      "stateMutability": "view",
      "type": "function"
    },
    {
      "inputs": [
        {
          "internalType": "contract IERC3156FlashBorrower",
          "name": "receiver",
          "type": "address"
        },
        {
          "internalType": "address",
          "name": "token",
          "type": "address"
        },
        {
          "internalType": "uint256",
          "name": "amount",
          "type": "uint256"
        },
        {
          "internalType": "bytes",
          "name": "data",
          "type": "bytes"
        }
      ],
      "name": "flashLoan",
      "outputs": [
        {
          "internalType": "bool",
          "name": "",
          "type": "bool"
        }
      ],
      "stateMutability": "nonpayable",
      "type": "function"
    },
    {
      "inputs": [
        {
          "internalType": "address",
          "name": "spender",
          "type": "address"
        },
        {
          "internalType": "uint256",
          "name": "addedValue",
          "type": "uint256"
        }
      ],
      "name": "increaseAllowance",
      "outputs": [
        {
          "internalType": "bool",
          "name": "",
          "type": "bool"
        }
      ],
      "stateMutability": "nonpayable",
      "type": "function"
    },
    {
      "inputs": [
        {
          "internalType": "address",
          "name": "token",
          "type": "address"
        }
      ],
      "name": "maxFlashLoan",
      "outputs": [
        {
          "internalType": "uint256",
          "name": "",
          "type": "uint256"
        }
      ],
      "stateMutability": "view",
      "type": "function"
    },
    {
      "inputs": [],
      "name": "name",
      "outputs": [
        {
          "internalType": "string",
          "name": "",
          "type": "string"
        }
      ],
      "stateMutability": "view",
      "type": "function"
    },
    {
      "inputs": [
        {
          "internalType": "address",
          "name": "owner",
          "type": "address"
        }
      ],
      "name": "nonces",
      "outputs": [
        {
          "internalType": "uint256",
          "name": "",
          "type": "uint256"
        }
      ],
      "stateMutability": "view",
      "type": "function"
    },
    {
      "inputs": [],
      "name": "owner",
      "outputs": [
        {
          "internalType": "address",
          "name": "",
          "type": "address"
        }
      ],
      "stateMutability": "view",
      "type": "function"
    },
    {
      "inputs": [
        {
          "internalType": "address",
          "name": "owner",
          "type": "address"
        },
        {
          "internalType": "address",
          "name": "spender",
          "type": "address"
        },
        {
          "internalType": "uint256",
          "name": "value",
          "type": "uint256"
        },
        {
          "internalType": "uint256",
          "name": "deadline",
          "type": "uint256"
        },
        {
          "internalType": "uint8",
          "name": "v",
          "type": "uint8"
        },
        {
          "internalType": "bytes32",
          "name": "r",
          "type": "bytes32"
        },
        {
          "internalType": "bytes32",
          "name": "s",
          "type": "bytes32"
        }
      ],
      "name": "permit",
      "outputs": [],
      "stateMutability": "nonpayable",
      "type": "function"
    },
    {
      "inputs": [],
      "name": "renounceOwnership",
      "outputs": [],
      "stateMutability": "nonpayable",
      "type": "function"
    },
    {
      "inputs": [],
      "name": "snapshot",
      "outputs": [],
      "stateMutability": "nonpayable",
      "type": "function"
    },
    {
      "inputs": [],
      "name": "symbol",
      "outputs": [
        {
          "internalType": "string",
          "name": "",
          "type": "string"
        }
      ],
      "stateMutability": "view",
      "type": "function"
    },
    {
      "inputs": [],
      "name": "totalSupply",
      "outputs": [
        {
          "internalType": "uint256",
          "name": "",
          "type": "uint256"
        }
      ],
      "stateMutability": "view",
      "type": "function"
    },
    {
      "inputs": [
        {
          "internalType": "uint256",
          "name": "snapshotId",
          "type": "uint256"
        }
      ],
      "name": "totalSupplyAt",
      "outputs": [
        {
          "internalType": "uint256",
          "name": "",
          "type": "uint256"
        }
      ],
      "stateMutability": "view",
      "type": "function"
    },
    {
      "inputs": [
        {
          "internalType": "address",
          "name": "to",
          "type": "address"
        },
        {
          "internalType": "uint256",
          "name": "amount",
          "type": "uint256"
        }
      ],
      "name": "transfer",
      "outputs": [
        {
          "internalType": "bool",
          "name": "",
          "type": "bool"
        }
      ],
      "stateMutability": "nonpayable",
      "type": "function"
    },
    {
      "inputs": [
        {
          "internalType": "address",
          "name": "from",
          "type": "address"
        },
        {
          "internalType": "address",
          "name": "to",
          "type": "address"
        },
        {
          "internalType": "uint256",
          "name": "amount",
          "type": "uint256"
        }
      ],
      "name": "transferFrom",
      "outputs": [
        {
          "internalType": "bool",
          "name": "",
          "type": "bool"
        }
      ],
      "stateMutability": "nonpayable",
      "type": "function"
    },
    {
      "inputs": [
        {
          "internalType": "address",
          "name": "newOwner",
          "type": "address"
        }
      ],
      "name": "transferOwnership",
      "outputs": [],
      "stateMutability": "nonpayable",
      "type": "function"
    }
  ],
  "bytecode": "0x6101406040523480156200001257600080fd5b506040518060400160405280600581526020016426bcabb4b760d91b81525080604051806040016040528060018152602001603160f81b8152506040518060400160405280600581526020016426bcabb4b760d91b8152506040518060400160405280600581526020016426acaba4a760d91b8152508160039081620000999190620004dc565b506004620000a88282620004dc565b505050620000c5620000bf6200018460201b60201c565b62000188565b815160209283012081519183019190912060e08290526101008190524660a0818152604080517f8b73c3c69bb8fe3d512ecc4cf759cc79239f7b179b0ffacaa9a75d522b39400f818801819052818301969096526060810194909452608080850193909352308483018190528151808603909301835260c09485019091528151919095012090529190915261012052506200017e33620001686012600a620006bd565b6200017890630c845880620006d5565b620001da565b62000731565b3390565b600980546001600160a01b038381166001600160a01b0319831681179093556040519116919082907f8be0079c531659141344cd1fd0a4f28419497f9722a3daafe3b4186f6b6457e090600090a35050565b6001600160a01b038216620002355760405162461bcd60e51b815260206004820152601f60248201527f45524332303a206d696e7420746f20746865207a65726f206164647265737300604482015260640160405180910390fd5b6200024360008383620002ae565b8060026000828254620002579190620006ef565b90915550506001600160a01b038216600081815260208181526040808320805486019055518481527fddf252ad1be2c89b69c2b068fc378daa952ba7f163c4a11628f55a4df523b3ef910160405180910390a35050565b620002c6838383620002cb60201b62000a5c1760201c565b505050565b620002e3838383620002c660201b62000a7b1760201c565b6001600160a01b0383166200030757620002fd8262000332565b620002c66200036a565b6001600160a01b0382166200032157620002fd8362000332565b6200032c8362000332565b620002c6825b6001600160a01b038116600090815260056020908152604080832091839052909120546200036791906200037c565b6200037c565b50565b6200037a60066200036160025490565b565b600062000388620003cb565b9050806200039684620003e9565b1015620002c6578254600180820185556000858152602080822090930193909355938401805494850181558252902090910155565b6000620003e460086200043460201b62000aa91760201c565b905090565b80546000908103620003fd57506000919050565b815482906200040f9060019062000705565b815481106200042257620004226200071b565b90600052602060002001549050919050565b5490565b634e487b7160e01b600052604160045260246000fd5b600181811c908216806200046357607f821691505b6020821081036200048457634e487b7160e01b600052602260045260246000fd5b50919050565b601f821115620002c657600081815260208120601f850160051c81016020861015620004b35750805b601f850160051c820191505b81811015620004d457828155600101620004bf565b505050505050565b81516001600160401b03811115620004f857620004f862000438565b62000510816200050984546200044e565b846200048a565b602080601f8311600181146200054857600084156200052f5750858301515b600019600386901b1c1916600185901b178555620004d4565b600085815260208120601f198616915b82811015620005795788860151825594840194600190910190840162000558565b5085821015620005985787850151600019600388901b60f8161c191681555b5050505050600190811b01905550565b634e487b7160e01b600052601160045260246000fd5b600181815b80851115620005ff578160001904821115620005e357620005e3620005a8565b80851615620005f157918102915b93841c9390800290620005c3565b509250929050565b6000826200061857506001620006b7565b816200062757506000620006b7565b81600181146200064057600281146200064b576200066b565b6001915050620006b7565b60ff8411156200065f576200065f620005a8565b50506001821b620006b7565b5060208310610133831016604e8410600b841016171562000690575081810a620006b7565b6200069c8383620005be565b8060001904821115620006b357620006b3620005a8565b0290505b92915050565b6000620006ce60ff84168362000607565b9392505050565b8082028115828204841417620006b757620006b7620005a8565b80820180821115620006b757620006b7620005a8565b81810381811115620006b757620006b7620005a8565b634e487b7160e01b600052603260045260246000fd5b60805160a05160c05160e0516101005161012051611b3d620007816000396000610e8401526000610ed301526000610eae01526000610e0701526000610e3101526000610e5b0152611b3d6000f3fe608060405234801561001057600080fd5b50600436106101735760003560e01c8063715018a6116100de578063981b24d011610097578063d505accf11610071578063d505accf14610311578063d9d98ce414610324578063dd62ed3e14610337578063f2fde38b1461034a57600080fd5b8063981b24d0146102d8578063a457c2d7146102eb578063a9059cbb146102fe57600080fd5b8063715018a61461027f57806379cc6790146102875780637ecebe001461029a5780638da5cb5b146102ad57806395d89b41146102c85780639711715a146102d057600080fd5b8063395093511161013057806339509351146101f557806342966c68146102085780634ee2cd7e1461021d5780635cffe9de14610230578063613255ab1461024357806370a082311461025657600080fd5b806306fdde0314610178578063095ea7b31461019657806318160ddd146101b957806323b872dd146101cb578063313ce567146101de5780633644e515146101ed575b600080fd5b61018061035d565b60405161018d919061177f565b60405180910390f35b6101a96101a43660046117e2565b6103ef565b604051901515815260200161018d565b6002545b60405190815260200161018d565b6101a96101d936600461180e565b610409565b6040516012815260200161018d565b6101bd61042d565b6101a96102033660046117e2565b61043c565b61021b61021636600461184f565b61045e565b005b6101bd61022b3660046117e2565b61046b565b6101a961023e366004611868565b6104c4565b6101bd610251366004611907565b6106ad565b6101bd610264366004611907565b6001600160a01b031660009081526020819052604090205490565b61021b6106d5565b61021b6102953660046117e2565b6106e9565b6101bd6102a8366004611907565b610702565b6009546040516001600160a01b03909116815260200161018d565b610180610720565b61021b61072f565b6101bd6102e636600461184f565b61073f565b6101a96102f93660046117e2565b61076a565b6101a961030c3660046117e2565b6107e5565b61021b61031f366004611924565b6107f3565b6101bd6103323660046117e2565b610957565b6101bd61034536600461199b565b6109bb565b61021b610358366004611907565b6109e6565b60606003805461036c906119d4565b80601f0160208091040260200160405190810160405280929190818152602001828054610398906119d4565b80156103e55780601f106103ba576101008083540402835291602001916103e5565b820191906000526020600020905b8154815290600101906020018083116103c857829003601f168201915b5050505050905090565b6000336103fd818585610aad565b60019150505b92915050565b600033610417858285610bd1565b610422858585610c4b565b506001949350505050565b6000610437610dfa565b905090565b6000336103fd81858561044f83836109bb565b6104599190611a1e565b610aad565b6104683382610f21565b50565b6001600160a01b03821660009081526005602052604081208190819061049290859061105f565b91509150816104b9576001600160a01b0385166000908152602081905260409020546104bb565b805b95945050505050565b60006104cf856106ad565b8411156105375760405162461bcd60e51b815260206004820152602b60248201527f4552433230466c6173684d696e743a20616d6f756e742065786365656473206d60448201526a30bc233630b9b42637b0b760a91b60648201526084015b60405180910390fd5b60006105438686610957565b905061054f8786611155565b6040516323e30c8b60e01b81527f439148f0bbc682ca079e46d6e2c2f0c1e3b820f1a291b069d8882abf8cf18dd9906001600160a01b038916906323e30c8b906105a79033908b908b9088908c908c90600401611a31565b6020604051808303816000875af11580156105c6573d6000803e3d6000fd5b505050506040513d601f19601f820116820180604052508101906105ea9190611a8d565b146106435760405162461bcd60e51b8152602060048201526024808201527f4552433230466c6173684d696e743a20696e76616c69642072657475726e2076604482015263616c756560e01b606482015260840161052e565b60006106598830610654858a611a1e565b610bd1565b81158061066d57506001600160a01b038116155b1561068a57610685886106808489611a1e565b610f21565b61069f565b6106948887610f21565b61069f888284610c4b565b506001979650505050505050565b60006001600160a01b03821630146106c6576000610403565b60025461040390600019611aa6565b6106dd611220565b6106e7600061127a565b565b6106f4823383610bd1565b6106fe8282610f21565b5050565b6001600160a01b0381166000908152600a6020526040812054610403565b60606004805461036c906119d4565b610737611220565b6104686112cc565b600080600061074f84600661105f565b915091508161076057600254610762565b805b949350505050565b6000338161077882866109bb565b9050838110156107d85760405162461bcd60e51b815260206004820152602560248201527f45524332303a2064656372656173656420616c6c6f77616e63652062656c6f77604482015264207a65726f60d81b606482015260840161052e565b6104228286868403610aad565b6000336103fd818585610c4b565b834211156108435760405162461bcd60e51b815260206004820152601d60248201527f45524332305065726d69743a206578706972656420646561646c696e65000000604482015260640161052e565b60007f6e71edae12b1b97f4d1f60370fef10105fa2faae0126114a169c64845d6126c98888886108728c611326565b6040805160208101969096526001600160a01b0394851690860152929091166060840152608083015260a082015260c0810186905260e00160405160208183030381529060405280519060200120905060006108cd8261134e565b905060006108dd8287878761139c565b9050896001600160a01b0316816001600160a01b0316146109405760405162461bcd60e51b815260206004820152601e60248201527f45524332305065726d69743a20696e76616c6964207369676e61747572650000604482015260640161052e565b61094b8a8a8a610aad565b50505050505050505050565b60006001600160a01b03831630146109b15760405162461bcd60e51b815260206004820152601b60248201527f4552433230466c6173684d696e743a2077726f6e6720746f6b656e0000000000604482015260640161052e565b60005b9392505050565b6001600160a01b03918216600090815260016020908152604080832093909416825291909152205490565b6109ee611220565b6001600160a01b038116610a535760405162461bcd60e51b815260206004820152602660248201527f4f776e61626c653a206e6577206f776e657220697320746865207a65726f206160448201526564647265737360d01b606482015260840161052e565b6104688161127a565b6001600160a01b038316610a8057610a73826113c4565b610a7b6113f6565b505050565b6001600160a01b038216610a9757610a73836113c4565b610aa0836113c4565b610a7b826113c4565b5490565b6001600160a01b038316610b0f5760405162461bcd60e51b8152602060048201526024808201527f45524332303a20617070726f76652066726f6d20746865207a65726f206164646044820152637265737360e01b606482015260840161052e565b6001600160a01b038216610b705760405162461bcd60e51b815260206004820152602260248201527f45524332303a20617070726f766520746f20746865207a65726f206164647265604482015261737360f01b606482015260840161052e565b6001600160a01b0383811660008181526001602090815260408083209487168084529482529182902085905590518481527f8c5be1e5ebec7d5bd14f71427d1e84f3dd0314c0f7b2291e5b200ac8c7c3b925910160405180910390a3505050565b6000610bdd84846109bb565b90506000198114610c455781811015610c385760405162461bcd60e51b815260206004820152601d60248201527f45524332303a20696e73756666696369656e7420616c6c6f77616e6365000000604482015260640161052e565b610c458484848403610aad565b50505050565b6001600160a01b038316610caf5760405162461bcd60e51b815260206004820152602560248201527f45524332303a207472616e736665722066726f6d20746865207a65726f206164604482015264647265737360d81b606482015260840161052e565b6001600160a01b038216610d115760405162461bcd60e51b815260206004820152602360248201527f45524332303a207472616e7366657220746f20746865207a65726f206164647260448201526265737360e81b606482015260840161052e565b610d1c838383611404565b6001600160a01b03831660009081526020819052604090205481811015610d945760405162461bcd60e51b815260206004820152602660248201527f45524332303a207472616e7366657220616d6f756e7420657863656564732062604482015265616c616e636560d01b606482015260840161052e565b6001600160a01b03848116600081815260208181526040808320878703905593871680835291849020805487019055925185815290927fddf252ad1be2c89b69c2b068fc378daa952ba7f163c4a11628f55a4df523b3ef910160405180910390a3610c45565b6000306001600160a01b037f000000000000000000000000000000000000000000000000000000000000000016148015610e5357507f000000000000000000000000000000000000000000000000000000000000000046145b15610e7d57507f000000000000000000000000000000000000000000000000000000000000000090565b50604080517f00000000000000000000000000000000000000000000000000000000000000006020808301919091527f0000000000000000000000000000000000000000000000000000000000000000828401527f000000000000000000000000000000000000000000000000000000000000000060608301524660808301523060a0808401919091528351808403909101815260c0909201909252805191012090565b6001600160a01b038216610f815760405162461bcd60e51b815260206004820152602160248201527f45524332303a206275726e2066726f6d20746865207a65726f206164647265736044820152607360f81b606482015260840161052e565b610f8d82600083611404565b6001600160a01b038216600090815260208190526040902054818110156110015760405162461bcd60e51b815260206004820152602260248201527f45524332303a206275726e20616d6f756e7420657863656564732062616c616e604482015261636560f01b606482015260840161052e565b6001600160a01b0383166000818152602081815260408083208686039055600280548790039055518581529192917fddf252ad1be2c89b69c2b068fc378daa952ba7f163c4a11628f55a4df523b3ef910160405180910390a3505050565b600080600084116110ab5760405162461bcd60e51b815260206004820152601660248201527504552433230536e617073686f743a20696420697320360541b604482015260640161052e565b6110b361140f565b8411156111025760405162461bcd60e51b815260206004820152601d60248201527f4552433230536e617073686f743a206e6f6e6578697374656e74206964000000604482015260640161052e565b600061110e848661141a565b8454909150810361112657600080925092505061114e565b600184600101828154811061113d5761113d611ab9565b906000526020600020015492509250505b9250929050565b6001600160a01b0382166111ab5760405162461bcd60e51b815260206004820152601f60248201527f45524332303a206d696e7420746f20746865207a65726f206164647265737300604482015260640161052e565b6111b760008383611404565b80600260008282546111c99190611a1e565b90915550506001600160a01b038216600081815260208181526040808320805486019055518481527fddf252ad1be2c89b69c2b068fc378daa952ba7f163c4a11628f55a4df523b3ef910160405180910390a35050565b6009546001600160a01b031633146106e75760405162461bcd60e51b815260206004820181905260248201527f4f776e61626c653a2063616c6c6572206973206e6f7420746865206f776e6572604482015260640161052e565b600980546001600160a01b038381166001600160a01b0319831681179093556040519116919082907f8be0079c531659141344cd1fd0a4f28419497f9722a3daafe3b4186f6b6457e090600090a35050565b60006112dc600880546001019055565b60006112e661140f565b90507f8030e83b04d87bef53480e26263266d6ca66863aa8506aca6f2559d18aa1cb678160405161131991815260200190565b60405180910390a1919050565b6001600160a01b0381166000908152600a602052604090208054600181018255905b50919050565b600061040361135b610dfa565b8360405161190160f01b6020820152602281018390526042810182905260009060620160405160208183030381529060405280519060200120905092915050565b60008060006113ad878787876114c7565b915091506113ba8161158b565b5095945050505050565b6001600160a01b0381166000908152600560209081526040808320918390529091205461046891906116d5565b6116d5565b6106e760066113f160025490565b610a7b838383610a5c565b600061043760085490565b8154600090810361142d57506000610403565b82546000905b8082101561147a576000611447838361171f565b6000878152602090209091508590820154111561146657809150611474565b611471816001611a1e565b92505b50611433565b6000821180156114a65750836114a386611495600186611aa6565b600091825260209091200190565b54145b156114bf576114b6600183611aa6565b92505050610403565b509050610403565b6000807f7fffffffffffffffffffffffffffffff5d576e7357a4501ddfe92f46681b20a08311156114fe5750600090506003611582565b6040805160008082526020820180845289905260ff881692820192909252606081018690526080810185905260019060a0016020604051602081039080840390855afa158015611552573d6000803e3d6000fd5b5050604051601f1901519150506001600160a01b03811661157b57600060019250925050611582565b9150600090505b94509492505050565b600081600481111561159f5761159f611acf565b036115a75750565b60018160048111156115bb576115bb611acf565b036116085760405162461bcd60e51b815260206004820152601860248201527f45434453413a20696e76616c6964207369676e61747572650000000000000000604482015260640161052e565b600281600481111561161c5761161c611acf565b036116695760405162461bcd60e51b815260206004820152601f60248201527f45434453413a20696e76616c6964207369676e6174757265206c656e67746800604482015260640161052e565b600381600481111561167d5761167d611acf565b036104685760405162461bcd60e51b815260206004820152602260248201527f45434453413a20696e76616c6964207369676e6174757265202773272076616c604482015261756560f01b606482015260840161052e565b60006116df61140f565b9050806116eb8461173a565b1015610a7b578254600180820185556000858152602080822090930193909355938401805494850181558252902090910155565b600061172e6002848418611ae5565b6109b490848416611a1e565b8054600090810361174d57506000919050565b8154829061175d90600190611aa6565b8154811061176d5761176d611ab9565b90600052602060002001549050919050565b600060208083528351808285015260005b818110156117ac57858101830151858201604001528201611790565b506000604082860101526040601f19601f8301168501019250505092915050565b6001600160a01b038116811461046857600080fd5b600080604083850312156117f557600080fd5b8235611800816117cd565b946020939093013593505050565b60008060006060848603121561182357600080fd5b833561182e816117cd565b9250602084013561183e816117cd565b929592945050506040919091013590565b60006020828403121561186157600080fd5b5035919050565b60008060008060006080868803121561188057600080fd5b853561188b816117cd565b9450602086013561189b816117cd565b935060408601359250606086013567ffffffffffffffff808211156118bf57600080fd5b818801915088601f8301126118d357600080fd5b8135818111156118e257600080fd5b8960208285010111156118f457600080fd5b9699959850939650602001949392505050565b60006020828403121561191957600080fd5b81356109b4816117cd565b600080600080600080600060e0888a03121561193f57600080fd5b873561194a816117cd565b9650602088013561195a816117cd565b95506040880135945060608801359350608088013560ff8116811461197e57600080fd5b9699959850939692959460a0840135945060c09093013592915050565b600080604083850312156119ae57600080fd5b82356119b9816117cd565b915060208301356119c9816117cd565b809150509250929050565b600181811c908216806119e857607f821691505b60208210810361134857634e487b7160e01b600052602260045260246000fd5b634e487b7160e01b600052601160045260246000fd5b8082018082111561040357610403611a08565b6001600160a01b03878116825286166020820152604081018590526060810184905260a06080820181905281018290526000828460c0840137600060c0848401015260c0601f19601f8501168301019050979650505050505050565b600060208284031215611a9f57600080fd5b5051919050565b8181038181111561040357610403611a08565b634e487b7160e01b600052603260045260246000fd5b634e487b7160e01b600052602160045260246000fd5b600082611b0257634e487b7160e01b600052601260045260246000fd5b50049056fea26469706673582212205fa3b9dae95fc7abac03bce71cb5a409d8049616469d4dcae273baf3778d34e264736f6c63430008120033",
  "linkReferences": {},
  "deployedLinkReferences": {}
}