{
  "_format": "hh-sol-artifact-1",
  "contractName": "StakingUpgradeable",
  "sourceName": "contracts/StakingUpgradeable.sol",
  "abi": [
    {
      "anonymous": false,
      "inputs": [
        {
          "indexed": false,
          "internalType": "address",
          "name": "previousAdmin",
          "type": "address"
        },
        {
          "indexed": false,
          "internalType": "address",
          "name": "newAdmin",
          "type": "address"
        }
      ],
      "name": "AdminChanged",
      "type": "event"
    },
    {
      "anonymous": false,
      "inputs": [
        {
          "indexed": true,
          "internalType": "address",
          "name": "beacon",
          "type": "address"
        }
      ],
      "name": "BeaconUpgraded",
      "type": "event"
    },
    {
      "anonymous": false,
      "inputs": [
        {
          "indexed": true,
          "internalType": "address",
          "name": "userAddress",
          "type": "address"
        },
        {
          "indexed": true,
          "internalType": "uint256",
          "name": "value",
          "type": "uint256"
        },
        {
          "indexed": true,
          "internalType": "uint256",
          "name": "stakingID",
          "type": "uint256"
        }
      ],
      "name": "IDUnStaked",
      "type": "event"
    },
    {
      "anonymous": false,
      "inputs": [
        {
          "indexed": false,
          "internalType": "uint8",
          "name": "version",
          "type": "uint8"
        }
      ],
      "name": "Initialized",
      "type": "event"
    },
    {
      "anonymous": false,
      "inputs": [
        {
          "indexed": true,
          "internalType": "address",
          "name": "previousOwner",
          "type": "address"
        },
        {
          "indexed": true,
          "internalType": "address",
          "name": "newOwner",
          "type": "address"
        }
      ],
      "name": "OwnershipTransferred",
      "type": "event"
    },
    {
      "anonymous": false,
      "inputs": [
        {
          "indexed": false,
          "internalType": "address",
          "name": "account",
          "type": "address"
        }
      ],
      "name": "Paused",
      "type": "event"
    },
    {
      "anonymous": false,
      "inputs": [
        {
          "indexed": true,
          "internalType": "address",
          "name": "userAddress",
          "type": "address"
        },
        {
          "indexed": false,
          "internalType": "uint256",
          "name": "amount",
          "type": "uint256"
        }
      ],
      "name": "PrincipalClaimed",
      "type": "event"
    },
    {
      "anonymous": false,
      "inputs": [
        {
          "indexed": true,
          "internalType": "address",
          "name": "userAddress",
          "type": "address"
        },
        {
          "indexed": true,
          "internalType": "uint256",
          "name": "valueStaked",
          "type": "uint256"
        },
        {
          "indexed": true,
          "internalType": "uint256",
          "name": "duration",
          "type": "uint256"
        },
        {
          "indexed": false,
          "internalType": "uint256",
          "name": "stakingID",
          "type": "uint256"
        }
      ],
      "name": "Stake",
      "type": "event"
    },
    {
      "anonymous": false,
      "inputs": [
        {
          "indexed": true,
          "internalType": "address",
          "name": "userAddress",
          "type": "address"
        },
        {
          "indexed": true,
          "internalType": "uint256",
          "name": "reward",
          "type": "uint256"
        }
      ],
      "name": "StakingRewardClaimed",
      "type": "event"
    },
    {
      "anonymous": false,
      "inputs": [
        {
          "indexed": true,
          "internalType": "address",
          "name": "userAddress",
          "type": "address"
        },
        {
          "indexed": true,
          "internalType": "uint256",
          "name": "value",
          "type": "uint256"
        }
      ],
      "name": "UnStaked",
      "type": "event"
    },
    {
      "anonymous": false,
      "inputs": [
        {
          "indexed": false,
          "internalType": "address",
          "name": "account",
          "type": "address"
        }
      ],
      "name": "Unpaused",
      "type": "event"
    },
    {
      "anonymous": false,
      "inputs": [
        {
          "indexed": true,
          "internalType": "address",
          "name": "implementation",
          "type": "address"
        }
      ],
      "name": "Upgraded",
      "type": "event"
    },
    {
      "inputs": [],
      "name": "activeStakersList",
      "outputs": [
        {
          "internalType": "address[]",
          "name": "",
          "type": "address[]"
        }
      ],
      "stateMutability": "view",
      "type": "function"
    },
    {
      "inputs": [],
      "name": "allStakersList",
      "outputs": [
        {
          "internalType": "address[]",
          "name": "",
          "type": "address[]"
        }
      ],
      "stateMutability": "view",
      "type": "function"
    },
    {
      "inputs": [],
      "name": "claimStakingReward",
      "outputs": [],
      "stateMutability": "nonpayable",
      "type": "function"
    },
    {
      "inputs": [
        {
          "internalType": "address[]",
          "name": "_userAddress",
          "type": "address[]"
        }
      ],
      "name": "disableAccounts",
      "outputs": [],
      "stateMutability": "nonpayable",
      "type": "function"
    },
    {
      "inputs": [
        {
          "internalType": "address[]",
          "name": "_userAddress",
          "type": "address[]"
        }
      ],
      "name": "enableAccounts",
      "outputs": [],
      "stateMutability": "nonpayable",
      "type": "function"
    },
    {
      "inputs": [],
      "name": "getActiveStakingIDs",
      "outputs": [
        {
          "internalType": "uint256[]",
          "name": "",
          "type": "uint256[]"
        }
      ],
      "stateMutability": "view",
      "type": "function"
    },
    {
      "inputs": [],
      "name": "getDisabledAccountsList",
      "outputs": [
        {
          "internalType": "address[]",
          "name": "",
          "type": "address[]"
        }
      ],
      "stateMutability": "view",
      "type": "function"
    },
    {
      "inputs": [],
      "name": "getStakingCappings",
      "outputs": [
        {
          "internalType": "uint256",
          "name": "stakingRewardRate",
          "type": "uint256"
        },
        {
          "internalType": "uint256",
          "name": "stakingDuration",
          "type": "uint256"
        },
        {
          "internalType": "uint256",
          "name": "stakingRewardClaimTimeLimit",
          "type": "uint256"
        }
      ],
      "stateMutability": "view",
      "type": "function"
    },
    {
      "inputs": [
        {
          "internalType": "address",
          "name": "_userAddress",
          "type": "address"
        }
      ],
      "name": "getStakingTimeRemaining",
      "outputs": [
        {
          "internalType": "uint256",
          "name": "time",
          "type": "uint256"
        }
      ],
      "stateMutability": "view",
      "type": "function"
    },
    {
      "inputs": [],
      "name": "getTotalStakingRewardDistributed",
      "outputs": [
        {
          "internalType": "uint256",
          "name": "_tokenRewards",
          "type": "uint256"
        }
      ],
      "stateMutability": "view",
      "type": "function"
    },
    {
      "inputs": [],
      "name": "getTotalValueStaked",
      "outputs": [
        {
          "internalType": "uint256",
          "name": "token",
          "type": "uint256"
        }
      ],
      "stateMutability": "view",
      "type": "function"
    },
    {
      "inputs": [
        {
          "internalType": "address",
          "name": "_userAddress",
          "type": "address"
        }
      ],
      "name": "getUserAllStakingsRewards",
      "outputs": [
        {
          "internalType": "uint256",
          "name": "",
          "type": "uint256"
        }
      ],
      "stateMutability": "view",
      "type": "function"
    },
    {
      "inputs": [
        {
          "internalType": "address",
          "name": "_userAddress",
          "type": "address"
        }
      ],
      "name": "getUserStakingIDs",
      "outputs": [
        {
          "internalType": "uint256[]",
          "name": "",
          "type": "uint256[]"
        }
      ],
      "stateMutability": "view",
      "type": "function"
    },
    {
      "inputs": [
        {
          "internalType": "address",
          "name": "_userAddress",
          "type": "address"
        }
      ],
      "name": "getUserTotalRewardClaimedToken",
      "outputs": [
        {
          "internalType": "uint256",
          "name": "",
          "type": "uint256"
        }
      ],
      "stateMutability": "view",
      "type": "function"
    },
    {
      "inputs": [
        {
          "internalType": "address",
          "name": "_userAddress",
          "type": "address"
        }
      ],
      "name": "getUserTotalValueStaked",
      "outputs": [
        {
          "internalType": "uint256",
          "name": "token",
          "type": "uint256"
        }
      ],
      "stateMutability": "view",
      "type": "function"
    },
    {
      "inputs": [
        {
          "internalType": "address",
          "name": "_userAddress",
          "type": "address"
        }
      ],
      "name": "getUserUnStakeValue",
      "outputs": [
        {
          "internalType": "uint256",
          "name": "",
          "type": "uint256"
        }
      ],
      "stateMutability": "view",
      "type": "function"
    },
    {
      "inputs": [],
      "name": "initialize",
      "outputs": [],
      "stateMutability": "nonpayable",
      "type": "function"
    },
    {
      "inputs": [
        {
          "internalType": "address",
          "name": "_userAddress",
          "type": "address"
        }
      ],
      "name": "isAccountDisabled",
      "outputs": [
        {
          "internalType": "bool",
          "name": "",
          "type": "bool"
        }
      ],
      "stateMutability": "view",
      "type": "function"
    },
    {
      "inputs": [
        {
          "internalType": "address",
          "name": "_userAddress",
          "type": "address"
        }
      ],
      "name": "isStaked",
      "outputs": [
        {
          "internalType": "bool",
          "name": "",
          "type": "bool"
        }
      ],
      "stateMutability": "view",
      "type": "function"
    },
    {
      "inputs": [],
      "name": "owner",
      "outputs": [
        {
          "internalType": "address",
          "name": "",
          "type": "address"
        }
      ],
      "stateMutability": "view",
      "type": "function"
    },
    {
      "inputs": [],
      "name": "pause",
      "outputs": [],
      "stateMutability": "nonpayable",
      "type": "function"
    },
    {
      "inputs": [],
      "name": "paused",
      "outputs": [
        {
          "internalType": "bool",
          "name": "",
          "type": "bool"
        }
      ],
      "stateMutability": "view",
      "type": "function"
    },
    {
      "inputs": [],
      "name": "proxiableUUID",
      "outputs": [
        {
          "internalType": "bytes32",
          "name": "",
          "type": "bytes32"
        }
      ],
      "stateMutability": "view",
      "type": "function"
    },
    {
      "inputs": [],
      "name": "renounceOwnership",
      "outputs": [],
      "stateMutability": "nonpayable",
      "type": "function"
    },
    {
      "inputs": [
        {
          "internalType": "uint256",
          "name": "_valueInDays",
          "type": "uint256"
        }
      ],
      "name": "setStakingDuration",
      "outputs": [],
      "stateMutability": "nonpayable",
      "type": "function"
    },
    {
      "inputs": [
        {
          "internalType": "uint256",
          "name": "_valueInDays",
          "type": "uint256"
        }
      ],
      "name": "setStakingRewardClaimTimeLimity",
      "outputs": [],
      "stateMutability": "nonpayable",
      "type": "function"
    },
    {
      "inputs": [
        {
          "internalType": "uint16",
          "name": "_valueInPer",
          "type": "uint16"
        }
      ],
      "name": "setStakingRewardRate",
      "outputs": [],
      "stateMutability": "nonpayable",
      "type": "function"
    },
    {
      "inputs": [
        {
          "internalType": "address",
          "name": "_userAddress",
          "type": "address"
        },
        {
          "internalType": "uint256",
          "name": "_value",
          "type": "uint256"
        }
      ],
      "name": "stakeByAdmin",
      "outputs": [],
      "stateMutability": "nonpayable",
      "type": "function"
    },
    {
      "inputs": [
        {
          "internalType": "uint256",
          "name": "_stakingID",
          "type": "uint256"
        }
      ],
      "name": "stakeInfoMap",
      "outputs": [
        {
          "components": [
            {
              "internalType": "bool",
              "name": "isStaked",
              "type": "bool"
            },
            {
              "internalType": "uint32",
              "name": "id",
              "type": "uint32"
            },
            {
              "internalType": "address",
              "name": "owner",
              "type": "address"
            },
            {
              "internalType": "uint256",
              "name": "value",
              "type": "uint256"
            },
            {
              "internalType": "uint16",
              "name": "rewardRate",
              "type": "uint16"
            },
            {
              "internalType": "uint256",
              "name": "startTime",
              "type": "uint256"
            },
            {
              "internalType": "uint256",
              "name": "duration",
              "type": "uint256"
            }
          ],
          "internalType": "struct StakingUpgradeable.StakeInfo",
          "name": "",
          "type": "tuple"
        }
      ],
      "stateMutability": "view",
      "type": "function"
    },
    {
      "inputs": [
        {
          "internalType": "address",
          "name": "newOwner",
          "type": "address"
        }
      ],
      "name": "transferOwnership",
      "outputs": [],
      "stateMutability": "nonpayable",
      "type": "function"
    },
    {
      "inputs": [],
      "name": "unStake",
      "outputs": [],
      "stateMutability": "nonpayable",
      "type": "function"
    },
    {
      "inputs": [],
      "name": "unpause",
      "outputs": [],
      "stateMutability": "nonpayable",
      "type": "function"
    },
    {
      "inputs": [
        {
          "internalType": "address",
          "name": "newImplementation",
          "type": "address"
        }
      ],
      "name": "upgradeTo",
      "outputs": [],
      "stateMutability": "nonpayable",
      "type": "function"
    },
    {
      "inputs": [
        {
          "internalType": "address",
          "name": "newImplementation",
          "type": "address"
        },
        {
          "internalType": "bytes",
          "name": "data",
          "type": "bytes"
        }
      ],
      "name": "upgradeToAndCall",
      "outputs": [],
      "stateMutability": "payable",
      "type": "function"
    },
    {
      "inputs": [
        {
          "internalType": "address",
          "name": "_userAddress",
          "type": "address"
        }
      ],
      "name": "userAccountMap",
      "outputs": [
        {
          "components": [
            {
              "internalType": "uint256[]",
              "name": "stakingIDs",
              "type": "uint256[]"
            },
            {
              "internalType": "bool",
              "name": "isDisabled",
              "type": "bool"
            },
            {
              "internalType": "uint256",
              "name": "rewardClaimedTimestamp",
              "type": "uint256"
            },
            {
              "internalType": "uint256",
              "name": "rewardClaimed",
              "type": "uint256"
            }
          ],
          "internalType": "struct StakingUpgradeable.Account",
          "name": "",
          "type": "tuple"
        }
      ],
      "stateMutability": "view",
      "type": "function"
    },
    {
      "inputs": [
        {
          "internalType": "address",
          "name": "_receiver",
          "type": "address"
        },
        {
          "internalType": "uint256",
          "name": "_value",
          "type": "uint256"
        }
      ],
      "name": "withdrawNativeFunds",
      "outputs": [
        {
          "internalType": "bool",
          "name": "",
          "type": "bool"
        }
      ],
      "stateMutability": "nonpayable",
      "type": "function"
    },
    {
      "inputs": [
        {
          "internalType": "address",
          "name": "_tokenAddress",
          "type": "address"
        },
        {
          "internalType": "address",
          "name": "_receiver",
          "type": "address"
        },
        {
          "internalType": "uint256",
          "name": "_value",
          "type": "uint256"
        }
      ],
      "name": "withdrawTokens",
      "outputs": [
        {
          "internalType": "bool",
          "name": "",
          "type": "bool"
        }
      ],
      "stateMutability": "nonpayable",
      "type": "function"
    },
    {
      "stateMutability": "payable",
      "type": "receive"
    }
  ],
  "bytecode": "0x60a06040523060805234801561001457600080fd5b50608051612cb661004c6000396000818161096b015281816109b401528181610ace01528181610b0e0152610b8a0152612cb66000f3fe6080604052600436106101de5760003560e01c80636f72693b11610103578063a40b58911161009b578063a40b589114610531578063a7566b751461056e578063afc695ce146106a8578063ba4f678e146106bd578063c06a5388146106ea578063dba4358c146106ff578063deede65414610714578063e3a51f5814610729578063f2fde38b14610761578063f807438f1461078157600080fd5b80636f72693b14610451578063715018a61461046657806373cf575a1461047b5780637ce574bf146104905780638129fc1c146104a55780638456cb59146104ba5780638da5cb5b146104cf5780639c3fe28a146104f15780639dd41ac11461051157600080fd5b80635c975abb116101765780635c975abb146103125780635cbfd0211461032a5780635e35359e1461034a5780635f8697141461036a5780636177fd181461038a57806366e5e570146103aa5780636a50eefa146103e45780636a8ca691146104045780636f51b20b1461042457600080fd5b8063260cb4e9146101ea57806326792aca1461021557806326ed1af0146102455780633659cfe6146102735780633b09098f146102955780633f4ba83a146102b55780634f1ef286146102ca57806352d1902d146102dd57806353bdadea146102f257600080fd5b366101e557005b600080fd5b3480156101f657600080fd5b506101ff6107a1565b60405161020c9190612692565b60405180910390f35b34801561022157600080fd5b506102356102303660046126e8565b61090a565b604051901515815260200161020c565b34801561025157600080fd5b50610265610260366004612714565b610956565b60405190815260200161020c565b34801561027f57600080fd5b5061029361028e366004612714565b610961565b005b3480156102a157600080fd5b506102936102b0366004612731565b610a32565b3480156102c157600080fd5b50610293610ab2565b6102936102d83660046127bb565b610ac4565b3480156102e957600080fd5b50610265610b7d565b3480156102fe57600080fd5b5061029361030d366004612731565b610c2b565b34801561031e57600080fd5b5060335460ff16610235565b34801561033657600080fd5b5061029361034536600461287e565b610c9f565b34801561035657600080fd5b50610235610365366004612897565b610cbb565b34801561037657600080fd5b50610265610385366004612714565b610d45565b34801561039657600080fd5b506102356103a5366004612714565b610e2c565b3480156103b657600080fd5b506102656103c5366004612714565b6001600160a01b03166000908152610102602052604090206003015490565b3480156103f057600080fd5b506102936103ff3660046126e8565b610eb3565b34801561041057600080fd5b5061029361041f36600461287e565b610fd8565b34801561043057600080fd5b5061044461043f366004612714565b610ff4565b60405161020c9190612913565b34801561045d57600080fd5b50610444611061565b34801561047257600080fd5b50610293611115565b34801561048757600080fd5b50610293611127565b34801561049c57600080fd5b5060fe54610265565b3480156104b157600080fd5b50610293611232565b3480156104c657600080fd5b5061029361139e565b3480156104db57600080fd5b506104e46113ae565b60405161020c9190612926565b3480156104fd57600080fd5b5061026561050c366004612714565b6113bd565b34801561051d57600080fd5b5061026561052c366004612714565b6113df565b34801561053d57600080fd5b5061023561054c366004612714565b6001600160a01b03166000908152610102602052604090206001015460ff1690565b34801561057a57600080fd5b5061064261058936600461287e565b6040805160e081018252600080825260208201819052918101829052606081018290526080810182905260a0810182905260c08101919091525060009081526101036020908152604091829020825160e081018452815460ff811615158252610100810463ffffffff1693820193909352600160281b9092046001600160a01b03169282019290925260018201546060820152600282015461ffff166080820152600382015460a082015260049091015460c082015290565b60405161020c919081511515815260208083015163ffffffff16908201526040808301516001600160a01b0316908201526060808301519082015260808083015161ffff169082015260a0808301519082015260c0918201519181019190915260e00190565b3480156106b457600080fd5b50610293611501565b3480156106c957600080fd5b506106dd6106d8366004612714565b6116a9565b60405161020c919061293a565b3480156106f657600080fd5b506101ff611774565b34801561070b57600080fd5b506101ff6118c7565b34801561072057600080fd5b5060fd54610265565b34801561073557600080fd5b5060ff5461010054610101546040805161ffff909416845260208401929092529082015260600161020c565b34801561076d57600080fd5b5061029361077c366004612714565b611a2a565b34801561078d57600080fd5b5061029361079c366004612982565b611aa0565b6000808052610102602090815260fc8054604080518285028101850190915281815260609493600080516020612c1a833981519152938593909183018282801561081457602002820191906000526020600020905b81546001600160a01b031681526001909101906020018083116107f6575b505050505090506000815190506000816001600160401b0381111561083b5761083b6127a5565b604051908082528060200260200182016040528015610864578160200160208202803683370190505b5090506000805b838110156108fe57848181518110610885576108856129a6565b602002602001015196506108998388611ac0565b15156001146108ec5760018087015460ff16151590036108ec57868383815181106108c6576108c66129a6565b6001600160a01b0390921660209283029190910190910152816108e8816129d2565b9250505b806108f6816129d2565b91505061086b565b50909695505050505050565b6000610914611b25565b6040516001600160a01b0384169083156108fc029084906000818181858888f1935050505015801561094a573d6000803e3d6000fd5b50600190505b92915050565b600061095082611b84565b6001600160a01b037f00000000000000000000000000000000000000000000000000000000000000001630036109b25760405162461bcd60e51b81526004016109a9906129eb565b60405180910390fd5b7f00000000000000000000000000000000000000000000000000000000000000006001600160a01b03166109e4611c89565b6001600160a01b031614610a0a5760405162461bcd60e51b81526004016109a990612a37565b610a1381611ca5565b60408051600080825260208201909252610a2f91839190611cad565b50565b610a3a611b25565b6000808052610102602052600080516020612c1a83398151915282825b81811015610aaa57858582818110610a7157610a716129a6565b9050602002016020810190610a869190612714565b6001848101805460ff19169091179055935080610aa2816129d2565b915050610a57565b505050505050565b610aba611b25565b610ac2611e1d565b565b6001600160a01b037f0000000000000000000000000000000000000000000000000000000000000000163003610b0c5760405162461bcd60e51b81526004016109a9906129eb565b7f00000000000000000000000000000000000000000000000000000000000000006001600160a01b0316610b3e611c89565b6001600160a01b031614610b645760405162461bcd60e51b81526004016109a990612a37565b610b6d82611ca5565b610b7982826001611cad565b5050565b6000306001600160a01b037f00000000000000000000000000000000000000000000000000000000000000001614610c185760405162461bcd60e51b815260206004820152603860248201527f555550535570677261646561626c653a206d757374206e6f742062652063616c6044820152771b1959081d1a1c9bdd59da0819195b1959d85d1958d85b1b60421b60648201526084016109a9565b50600080516020612c3a83398151915290565b610c33611b25565b6000808052610102602052600080516020612c1a83398151915282825b81811015610aaa57858582818110610c6a57610c6a6129a6565b9050602002016020810190610c7f9190612714565b60018401805460ff19169055935080610c97816129d2565b915050610c50565b610ca7611b25565b610cb48162015180612a83565b6101015550565b6000610cc5611b25565b60405163a9059cbb60e01b81526001600160a01b0384811660048301526024820184905285169063a9059cbb906044016020604051808303816000875af1158015610d14573d6000803e3d6000fd5b505050506040513d601f19601f82011682018060405250810190610d389190612a9a565b50600190505b9392505050565b6001600160a01b038116600090815261010260209081526040808320805482518185028101850190935280835290928492918491830182828015610da857602002820191906000526020600020905b815481526020019060010190808311610d94575b505083519394506000925050505b81811015610e235760006101036000858481518110610dd757610dd76129a6565b6020908102919091018101518252810191909152604001600020805490915060ff1615610e10576001810154610e0d9087612abc565b95505b5080610e1b816129d2565b915050610db6565b50505050919050565b6001600160a01b03811660009081526101026020526040812080544291908390610103908290610e5e90600190612acf565b81526020019081526020016000209050600081600401548260030154610e849190612abc565b835490915015801590610e9657508084105b15610ea75750600195945050505050565b50600095945050505050565b610ebb611b25565b60fb5433906001600160a01b0316610ed16113ae565b6001600160a01b0316826001600160a01b03161480610f625750806001600160a01b0316637dad19db6040518163ffffffff1660e01b8152600401602060405180830381865afa158015610f29573d6000803e3d6000fd5b505050506040513d601f19601f82011682018060405250810190610f4d9190612ae2565b6001600160a01b0316826001600160a01b0316145b610fb95760405162461bcd60e51b815260206004820152602260248201527f4f6e6c79206f776e65722063616e2063616c6c20746869732066756e6374696f604482015261371760f11b60648201526084016109a9565b60ff5461010054610fd2918691869161ffff1690611e69565b50505050565b610fe0611b25565b610fed8162015180612a83565b6101005550565b6001600160a01b0381166000908152610102602090815260409182902080548351818402810184019094528084526060939283018282801561105557602002820191906000526020600020905b815481526020019060010190808311611041575b50505050509050919050565b60fc546060906000816001600160401b03811115611081576110816127a5565b6040519080825280602002602001820160405280156110aa578160200160208202803683370190505b50905060005b8281101561110e57600081815261010360205260409020805460ff1615156001036110fb5781156110fb57818383815181106110ee576110ee6129a6565b6020026020010181815250505b5080611106816129d2565b9150506110b0565b5092915050565b61111d611b25565b610ac26000611fb7565b33600081815261010260205260408120600381015490919061114883612009565b6111529190612acf565b9050808260030160008282546111689190612abc565b9091555050426002830155600061117e8461206a565b90506001600160a01b0384166108fc6111978484612abc565b6040518115909202916000818181858888f193505050501580156111bf573d6000803e3d6000fd5b5060405182906001600160a01b038616907f6dd401e61ba732582a5eba3d54ccc3afb3609cd3ac1a166d1d36f75fc0aedcda90600090a360405181906001600160a01b038616907f79d3df6837cc49ff0e09fd3258e6e45594e0703445bb06825e9d75156eaee8f090600090a350505050565b600054610100900460ff16158080156112525750600054600160ff909116105b806112735750611261306121b5565b158015611273575060005460ff166001145b6112d65760405162461bcd60e51b815260206004820152602e60248201527f496e697469616c697a61626c653a20636f6e747261637420697320616c72656160448201526d191e481a5b9a5d1a585b1a5e995960921b60648201526084016109a9565b6000805460ff1916600117905580156112f9576000805461ff0019166101001790555b60fb80546001600160a01b03191673ab6f06762e382ebe0bb47715f028b2b032ad329117905560ff805461ffff1916603c1790556301e133806101005562278d00610101556113466121c4565b61134e6121f3565b611356612222565b8015610a2f576000805461ff0019169055604051600181527f7f26b83ff96e1f2b6a682f133852f6798a09c465da95921460cefb38474024989060200160405180910390a150565b6113a6611b25565b610ac2612249565b6065546001600160a01b031690565b6001600160a01b03811660009081526101026020526040812061095090612009565b6001600160a01b0381166000908152610102602090815260408083208151815460a094810282018501909352608081018381524294869492939284929184919084018282801561144e57602002820191906000526020600020905b81548152602001906001019080831161143a575b505050918352505060018281015460ff16151560208301526002830154604083015260039092015460609091015281518051929350600092610103928492916114979190612acf565b815181106114a7576114a76129a6565b6020026020010151815260200190815260200160002090506000816004015482600301546114d59190612abc565b835151909150158015906114e857508084105b15610e23576114f78482612acf565b9695505050505050565b33600081815261010260205260408120600381015490919061152283612009565b61152c9190612acf565b90506000811161157e5760405162461bcd60e51b815260206004820152601c60248201527f596f752068617665206e6f207374616b696e67206f7220656e6465640000000060448201526064016109a9565b6001820154429060ff16156115ed5760405162461bcd60e51b815260206004820152602f60248201527f596f7572206163636f756e742069732064697361626c65642e20506c6561736560448201526e1031b7b73a30b1ba1030b236b4b71760891b60648201526084016109a9565b806101015484600201546116019190612abc565b116116605760405162461bcd60e51b815260206004820152602960248201527f596f752063616e6e6f7420636c61696d20726577617264206265666f7265207460448201526834b6b2b634b6b4ba1760b91b60648201526084016109a9565b61166c84848484612286565b6040516001600160a01b0385169083156108fc029084906000818181858888f193505050501580156116a2573d6000803e3d6000fd5b5050505050565b6116d660405180608001604052806060815260200160001515815260200160008152602001600081525090565b6001600160a01b038216600090815261010260209081526040918290208251815460a09381028201840190945260808101848152909391928492849184018282801561174157602002820191906000526020600020905b81548152602001906001019080831161172d575b5050509183525050600182015460ff16151560208201526002820154604082015260039091015460609091015292915050565b6060600060fc8054806020026020016040519081016040528092919081815260200182805480156117ce57602002820191906000526020600020905b81546001600160a01b031681526001909101906020018083116117b0575b505050505090506000815190506000816001600160401b038111156117f5576117f56127a5565b60405190808252806020026020018201604052801561181e578160200160208202803683370190505b5090506000805b838110156118bd5761185083868381518110611843576118436129a6565b6020026020010151611ac0565b15156001146118ab5784818151811061186b5761186b6129a6565b6020026020010151838381518110611885576118856129a6565b6001600160a01b0390921660209283029190910190910152816118a7816129d2565b9250505b806118b5816129d2565b915050611825565b5090949350505050565b6060600060fc80548060200260200160405190810160405280929190818152602001828054801561192157602002820191906000526020600020905b81546001600160a01b03168152600190910190602001808311611903575b505050505090506000815190506000816001600160401b03811115611948576119486127a5565b604051908082528060200260200182016040528015611971578160200160208202803683370190505b5090506000805b838110156118bd5761199683868381518110611843576118436129a6565b1515600114611a18576119c18582815181106119b4576119b46129a6565b6020026020010151610e2c565b15611a18578481815181106119d8576119d86129a6565b60200260200101518383815181106119f2576119f26129a6565b6001600160a01b039092166020928302919091019091015281611a14816129d2565b9250505b80611a22816129d2565b915050611978565b611a32611b25565b6001600160a01b038116611a975760405162461bcd60e51b815260206004820152602660248201527f4f776e61626c653a206e6577206f776e657220697320746865207a65726f206160448201526564647265737360d01b60648201526084016109a9565b610a2f81611fb7565b611aa8611b25565b60ff805461ffff191661ffff92909216919091179055565b6000805b8351811015611b1b57826001600160a01b0316848281518110611ae957611ae96129a6565b60200260200101516001600160a01b031603611b09576001915050610950565b80611b13816129d2565b915050611ac4565b5060009392505050565b33611b2e6113ae565b6001600160a01b031614610ac25760405162461bcd60e51b815260206004820181905260248201527f4f776e61626c653a2063616c6c6572206973206e6f7420746865206f776e657260448201526064016109a9565b6001600160a01b038116600090815261010260209081526040808320805482518185028101850190935280835290928492918491830182828015611be757602002820191906000526020600020905b815481526020019060010190808311611bd3575b5050835193945042925060009150505b82811015611c7f5760006101036000868481518110611c1857611c186129a6565b6020908102919091018101518252810191909152604001600020805490915060ff1615611c6c578281600401548260030154611c549190612abc565b1115611c6c576001810154611c699088612abc565b96505b5080611c77816129d2565b915050611bf7565b5050505050919050565b600080516020612c3a833981519152546001600160a01b031690565b610a2f611b25565b7f4910fdfa16fed3260ed0e7147f7cc6da11a60208b5b9406d12a635614ffd91435460ff1615611ce557611ce0836122e2565b505050565b826001600160a01b03166352d1902d6040518163ffffffff1660e01b8152600401602060405180830381865afa925050508015611d3f575060408051601f3d908101601f19168201909252611d3c91810190612aff565b60015b611da25760405162461bcd60e51b815260206004820152602e60248201527f45524331393637557067726164653a206e657720696d706c656d656e7461746960448201526d6f6e206973206e6f74205555505360901b60648201526084016109a9565b600080516020612c3a8339815191528114611e115760405162461bcd60e51b815260206004820152602960248201527f45524331393637557067726164653a20756e737570706f727465642070726f786044820152681a58589b195555525160ba1b60648201526084016109a9565b50611ce083838361237c565b611e256123a1565b6033805460ff191690557f5db9ee0a495bf2e6ff9c91a7834c1ba4fdd244a5e8aa4e537bd38aeae4b073aa335b604051611e5f9190612926565b60405180910390a1565b60fc8054600180820183557f371f36870d18f32a11fea0f144b021c8b407bb50f8e0267c711123f454b963c090910180546001600160a01b0319166001600160a01b038816908117909155915460008381526101026020908152604080832063ffffffff8516808552610103845291842081548088018355828652938520909301829055825464ffffffffff191661010090920260ff1916919091178517600160281b600160c81b031916600160281b90960295909517815542600382018190556004820187905593810188905560028101805461ffff191661ffff891617905560fd805493959391928992611f60908490612abc565b909155505060405163ffffffff85168152859088906001600160a01b038b16907ff556991011e831bcfac4f406d547e5e32cdd98267efab83935230d5f8d02c4469060200160405180910390a45050505050505050565b606580546001600160a01b038381166001600160a01b0319831681179093556040519116919082907f8be0079c531659141344cd1fd0a4f28419497f9722a3daafe3b4186f6b6457e090600090a35050565b8054600090815b818161ffff16101561206357612045848261ffff1681548110612035576120356129a6565b90600052602060002001546123ea565b61204f9084612abc565b92508061205b81612b18565b915050612010565b5050919050565b6001600160a01b0381166000908152610102602090815260408083208054825181850281018501909352808352909284929184918301828280156120cd57602002820191906000526020600020905b8154815260200190600101908083116120b9575b5050835193945042925060009150505b82811015611c7f57600061010360008684815181106120fe576120fe6129a6565b6020908102919091018101518252810191909152604001600020805490915060ff16156121a257828160040154826003015461213a9190612abc565b11156121a257600181015461214f9088612abc565b815460ff1916808355600183015460405192995061010090910463ffffffff16916001600160a01b038b16907f091b6bc9d0d839f20a931895d4778e195eef19985b93ae2f0e25b67e4812521f90600090a45b50806121ad816129d2565b9150506120dd565b6001600160a01b03163b151590565b600054610100900460ff166121eb5760405162461bcd60e51b81526004016109a990612b39565b610ac2612463565b600054610100900460ff1661221a5760405162461bcd60e51b81526004016109a990612b39565b610ac2612496565b600054610100900460ff16610ac25760405162461bcd60e51b81526004016109a990612b39565b6122516124c6565b6033805460ff191660011790557f62e78cea01bee320cd4e420270b5ea74000d11b0c9f74754ebdbfc544b05a258611e523390565b8183600301600082825461229a9190612abc565b90915550506002830181905560405182906001600160a01b038616907f6dd401e61ba732582a5eba3d54ccc3afb3609cd3ac1a166d1d36f75fc0aedcda90600090a350505050565b6122eb816121b5565b61234d5760405162461bcd60e51b815260206004820152602d60248201527f455243313936373a206e657720696d706c656d656e746174696f6e206973206e60448201526c1bdd08184818dbdb9d1c9858dd609a1b60648201526084016109a9565b600080516020612c3a83398151915280546001600160a01b0319166001600160a01b0392909216919091179055565b6123858361250c565b6000825111806123925750805b15611ce057610fd2838361254c565b60335460ff16610ac25760405162461bcd60e51b815260206004820152601460248201527314185d5cd8589b194e881b9bdd081c185d5cd95960621b60448201526064016109a9565b6000818152610103602052604081206003810154429190839061240d9084612acf565b6004830154600284015460018501549293506000926064916124359161ffff90911690612a83565b61243f9190612b84565b6124499190612b84565b905061245982846004015461263e565b6114f79082612a83565b600054610100900460ff1661248a5760405162461bcd60e51b81526004016109a990612b39565b6033805460ff19169055565b600054610100900460ff166124bd5760405162461bcd60e51b81526004016109a990612b39565b610ac233611fb7565b60335460ff1615610ac25760405162461bcd60e51b815260206004820152601060248201526f14185d5cd8589b194e881c185d5cd95960821b60448201526064016109a9565b612515816122e2565b6040516001600160a01b038216907fbc7cd75a20ee27fd9adebab32041f755214dbc6bffa90cc0225b39da2e5c2d3b90600090a250565b6060612557836121b5565b6125b25760405162461bcd60e51b815260206004820152602660248201527f416464726573733a2064656c65676174652063616c6c20746f206e6f6e2d636f6044820152651b9d1c9858dd60d21b60648201526084016109a9565b600080846001600160a01b0316846040516125cd9190612bca565b600060405180830381855af49150503d8060008114612608576040519150601f19603f3d011682016040523d82523d6000602084013e61260d565b606091505b50915091506126358282604051806060016040528060278152602001612c5a60279139612654565b95945050505050565b600081831061264d5781610d3e565b5090919050565b60608315612663575081610d3e565b610d3e83838151156126785781518083602001fd5b8060405162461bcd60e51b81526004016109a99190612be6565b6020808252825182820181905260009190848201906040850190845b818110156108fe5783516001600160a01b0316835292840192918401916001016126ae565b6001600160a01b0381168114610a2f57600080fd5b600080604083850312156126fb57600080fd5b8235612706816126d3565b946020939093013593505050565b60006020828403121561272657600080fd5b8135610d3e816126d3565b6000806020838503121561274457600080fd5b82356001600160401b038082111561275b57600080fd5b818501915085601f83011261276f57600080fd5b81358181111561277e57600080fd5b8660208260051b850101111561279357600080fd5b60209290920196919550909350505050565b634e487b7160e01b600052604160045260246000fd5b600080604083850312156127ce57600080fd5b82356127d9816126d3565b915060208301356001600160401b03808211156127f557600080fd5b818501915085601f83011261280957600080fd5b81358181111561281b5761281b6127a5565b604051601f8201601f19908116603f01168101908382118183101715612843576128436127a5565b8160405282815288602084870101111561285c57600080fd5b8260208601602083013760006020848301015280955050505050509250929050565b60006020828403121561289057600080fd5b5035919050565b6000806000606084860312156128ac57600080fd5b83356128b7816126d3565b925060208401356128c7816126d3565b929592945050506040919091013590565b600081518084526020808501945080840160005b83811015612908578151875295820195908201906001016128ec565b509495945050505050565b602081526000610d3e60208301846128d8565b6001600160a01b0391909116815260200190565b60208152600082516080602084015261295660a08401826128d8565b905060208401511515604084015260408401516060840152606084015160808401528091505092915050565b60006020828403121561299457600080fd5b813561ffff81168114610d3e57600080fd5b634e487b7160e01b600052603260045260246000fd5b634e487b7160e01b600052601160045260246000fd5b6000600182016129e4576129e46129bc565b5060010190565b6020808252602c908201527f46756e6374696f6e206d7573742062652063616c6c6564207468726f7567682060408201526b19195b1959d85d1958d85b1b60a21b606082015260800190565b6020808252602c908201527f46756e6374696f6e206d7573742062652063616c6c6564207468726f7567682060408201526b6163746976652070726f787960a01b606082015260800190565b8082028115828204841417610950576109506129bc565b600060208284031215612aac57600080fd5b81518015158114610d3e57600080fd5b80820180821115610950576109506129bc565b81810381811115610950576109506129bc565b600060208284031215612af457600080fd5b8151610d3e816126d3565b600060208284031215612b1157600080fd5b5051919050565b600061ffff808316818103612b2f57612b2f6129bc565b6001019392505050565b6020808252602b908201527f496e697469616c697a61626c653a20636f6e7472616374206973206e6f74206960408201526a6e697469616c697a696e6760a81b606082015260800190565b600082612ba157634e487b7160e01b600052601260045260246000fd5b500490565b60005b83811015612bc1578181015183820152602001612ba9565b50506000910152565b60008251612bdc818460208701612ba6565b9190910192915050565b6020815260008251806020840152612c05816040850160208701612ba6565b601f01601f1916919091016040019291505056fe565a22c1af7fcc038f06206699a6bd0ad8c85d23dafe9aebac3e0df68e8fb320360894a13ba1a3210667c828492db98dca3e2076cc3735a920a3ca505d382bbc416464726573733a206c6f772d6c6576656c2064656c65676174652063616c6c206661696c6564a2646970667358221220199dcb7bfe3b6255e48c49f8ad00621eb02f0d87b47295d8d2b42537bee4880664736f6c63430008110033",
  "linkReferences": {},
  "deployedLinkReferences": {}
}