{
  "_format": "hh-sol-artifact-1",
  "contractName": "StakingUpgradeable",
  "sourceName": "contracts/StakingUpgradeable.sol",
  "abi": [
    {
      "anonymous": false,
      "inputs": [
        {
          "indexed": false,
          "internalType": "address",
          "name": "previousAdmin",
          "type": "address"
        },
        {
          "indexed": false,
          "internalType": "address",
          "name": "newAdmin",
          "type": "address"
        }
      ],
      "name": "AdminChanged",
      "type": "event"
    },
    {
      "anonymous": false,
      "inputs": [
        {
          "indexed": true,
          "internalType": "address",
          "name": "beacon",
          "type": "address"
        }
      ],
      "name": "BeaconUpgraded",
      "type": "event"
    },
    {
      "anonymous": false,
      "inputs": [
        {
          "indexed": false,
          "internalType": "uint8",
          "name": "version",
          "type": "uint8"
        }
      ],
      "name": "Initialized",
      "type": "event"
    },
    {
      "anonymous": false,
      "inputs": [
        {
          "indexed": true,
          "internalType": "address",
          "name": "previousOwner",
          "type": "address"
        },
        {
          "indexed": true,
          "internalType": "address",
          "name": "newOwner",
          "type": "address"
        }
      ],
      "name": "OwnershipTransferred",
      "type": "event"
    },
    {
      "anonymous": false,
      "inputs": [
        {
          "indexed": false,
          "internalType": "address",
          "name": "account",
          "type": "address"
        }
      ],
      "name": "Paused",
      "type": "event"
    },
    {
      "anonymous": false,
      "inputs": [
        {
          "indexed": true,
          "internalType": "address",
          "name": "userAddress",
          "type": "address"
        },
        {
          "indexed": true,
          "internalType": "uint256",
          "name": "valueinUSD",
          "type": "uint256"
        },
        {
          "indexed": false,
          "internalType": "uint256",
          "name": "duration",
          "type": "uint256"
        },
        {
          "indexed": false,
          "internalType": "uint256",
          "name": "stakingID",
          "type": "uint256"
        }
      ],
      "name": "Stake",
      "type": "event"
    },
    {
      "anonymous": false,
      "inputs": [
        {
          "indexed": true,
          "internalType": "address",
          "name": "userAddress",
          "type": "address"
        },
        {
          "indexed": true,
          "internalType": "uint256",
          "name": "reward",
          "type": "uint256"
        },
        {
          "indexed": true,
          "internalType": "uint256",
          "name": "stakingID",
          "type": "uint256"
        }
      ],
      "name": "StakingRewardClaimed",
      "type": "event"
    },
    {
      "anonymous": false,
      "inputs": [
        {
          "indexed": false,
          "internalType": "address",
          "name": "account",
          "type": "address"
        }
      ],
      "name": "Unpaused",
      "type": "event"
    },
    {
      "anonymous": false,
      "inputs": [
        {
          "indexed": true,
          "internalType": "address",
          "name": "userAddress",
          "type": "address"
        },
        {
          "indexed": true,
          "internalType": "uint256",
          "name": "valueStaked",
          "type": "uint256"
        },
        {
          "indexed": true,
          "internalType": "uint256",
          "name": "stakingID",
          "type": "uint256"
        }
      ],
      "name": "Unstake",
      "type": "event"
    },
    {
      "anonymous": false,
      "inputs": [
        {
          "indexed": true,
          "internalType": "address",
          "name": "implementation",
          "type": "address"
        }
      ],
      "name": "Upgraded",
      "type": "event"
    },
    {
      "anonymous": false,
      "inputs": [
        {
          "indexed": true,
          "internalType": "address",
          "name": "userAddress",
          "type": "address"
        },
        {
          "indexed": true,
          "internalType": "uint256",
          "name": "value",
          "type": "uint256"
        }
      ],
      "name": "UserWithdrawFunds",
      "type": "event"
    },
    {
      "inputs": [],
      "name": "activeStakersList",
      "outputs": [
        {
          "internalType": "address[]",
          "name": "",
          "type": "address[]"
        }
      ],
      "stateMutability": "view",
      "type": "function"
    },
    {
      "inputs": [
        {
          "internalType": "uint256",
          "name": "_stakingID",
          "type": "uint256"
        }
      ],
      "name": "claimStakingReward",
      "outputs": [],
      "stateMutability": "nonpayable",
      "type": "function"
    },
    {
      "inputs": [
        {
          "internalType": "uint256[]",
          "name": "_stakingIDs",
          "type": "uint256[]"
        }
      ],
      "name": "claimStakingRewardAdmin",
      "outputs": [],
      "stateMutability": "nonpayable",
      "type": "function"
    },
    {
      "inputs": [
        {
          "internalType": "address[]",
          "name": "_userAddress",
          "type": "address[]"
        }
      ],
      "name": "disableAccounts",
      "outputs": [],
      "stateMutability": "nonpayable",
      "type": "function"
    },
    {
      "inputs": [
        {
          "internalType": "address[]",
          "name": "_userAddress",
          "type": "address[]"
        }
      ],
      "name": "enableAccounts",
      "outputs": [],
      "stateMutability": "nonpayable",
      "type": "function"
    },
    {
      "inputs": [],
      "name": "getActiveStakingIDs",
      "outputs": [
        {
          "internalType": "uint256[]",
          "name": "",
          "type": "uint256[]"
        }
      ],
      "stateMutability": "view",
      "type": "function"
    },
    {
      "inputs": [
        {
          "internalType": "address",
          "name": "_userAddress",
          "type": "address"
        }
      ],
      "name": "getClaimableBalance",
      "outputs": [
        {
          "internalType": "uint256",
          "name": "",
          "type": "uint256"
        }
      ],
      "stateMutability": "view",
      "type": "function"
    },
    {
      "inputs": [],
      "name": "getDisabledUsersList",
      "outputs": [
        {
          "internalType": "address[]",
          "name": "",
          "type": "address[]"
        }
      ],
      "stateMutability": "view",
      "type": "function"
    },
    {
      "inputs": [],
      "name": "getPackages",
      "outputs": [
        {
          "internalType": "uint256[]",
          "name": "valuesInDecimals",
          "type": "uint256[]"
        },
        {
          "internalType": "uint256[]",
          "name": "rewardRateInPer",
          "type": "uint256[]"
        },
        {
          "internalType": "uint256[]",
          "name": "durationInDays",
          "type": "uint256[]"
        },
        {
          "internalType": "uint256",
          "name": "count",
          "type": "uint256"
        }
      ],
      "stateMutability": "view",
      "type": "function"
    },
    {
      "inputs": [],
      "name": "getStakingCappings",
      "outputs": [
        {
          "internalType": "uint256",
          "name": "priceInUSD",
          "type": "uint256"
        },
        {
          "internalType": "uint256",
          "name": "minStakingValueInUSD",
          "type": "uint256"
        },
        {
          "internalType": "uint256",
          "name": "timeLimitRewardClaim",
          "type": "uint256"
        },
        {
          "internalType": "bool",
          "name": "payReferralOnStaking",
          "type": "bool"
        },
        {
          "internalType": "uint8",
          "name": "maxPackageLength",
          "type": "uint8"
        },
        {
          "internalType": "uint256",
          "name": "rewardRateDecimals",
          "type": "uint256"
        },
        {
          "internalType": "uint256",
          "name": "minWithdrawLimit",
          "type": "uint256"
        },
        {
          "internalType": "uint256",
          "name": "minWithdrawLimitMultiplier",
          "type": "uint256"
        }
      ],
      "stateMutability": "view",
      "type": "function"
    },
    {
      "inputs": [
        {
          "internalType": "uint256",
          "name": "_stakingID",
          "type": "uint256"
        }
      ],
      "name": "getStakingReward",
      "outputs": [
        {
          "internalType": "uint256",
          "name": "",
          "type": "uint256"
        }
      ],
      "stateMutability": "view",
      "type": "function"
    },
    {
      "inputs": [
        {
          "internalType": "uint256",
          "name": "_stakingID",
          "type": "uint256"
        }
      ],
      "name": "getStakingTimeRemaining",
      "outputs": [
        {
          "internalType": "uint256",
          "name": "",
          "type": "uint256"
        }
      ],
      "stateMutability": "view",
      "type": "function"
    },
    {
      "inputs": [],
      "name": "getTotalStakingRewardDistributed",
      "outputs": [
        {
          "internalType": "uint256",
          "name": "",
          "type": "uint256"
        }
      ],
      "stateMutability": "view",
      "type": "function"
    },
    {
      "inputs": [],
      "name": "getTotalValueStaked",
      "outputs": [
        {
          "internalType": "uint256",
          "name": "",
          "type": "uint256"
        }
      ],
      "stateMutability": "view",
      "type": "function"
    },
    {
      "inputs": [
        {
          "internalType": "address",
          "name": "_userAddress",
          "type": "address"
        }
      ],
      "name": "getUserAllStakingsRewards",
      "outputs": [
        {
          "internalType": "uint256",
          "name": "",
          "type": "uint256"
        }
      ],
      "stateMutability": "view",
      "type": "function"
    },
    {
      "inputs": [
        {
          "internalType": "address",
          "name": "_userAddress",
          "type": "address"
        }
      ],
      "name": "getUserStakingIDs",
      "outputs": [
        {
          "internalType": "uint256[]",
          "name": "",
          "type": "uint256[]"
        }
      ],
      "stateMutability": "view",
      "type": "function"
    },
    {
      "inputs": [
        {
          "internalType": "address",
          "name": "_userAddress",
          "type": "address"
        }
      ],
      "name": "getUserTotalRewardClaimed",
      "outputs": [
        {
          "internalType": "uint256",
          "name": "totalRewardClaim",
          "type": "uint256"
        }
      ],
      "stateMutability": "view",
      "type": "function"
    },
    {
      "inputs": [
        {
          "internalType": "address",
          "name": "_userAddress",
          "type": "address"
        }
      ],
      "name": "getUserTotalStakedValue",
      "outputs": [
        {
          "internalType": "uint256",
          "name": "userTotalValueStaked",
          "type": "uint256"
        }
      ],
      "stateMutability": "view",
      "type": "function"
    },
    {
      "inputs": [],
      "name": "initialize",
      "outputs": [],
      "stateMutability": "nonpayable",
      "type": "function"
    },
    {
      "inputs": [
        {
          "internalType": "address",
          "name": "_userAddress",
          "type": "address"
        }
      ],
      "name": "isAccountDisabled",
      "outputs": [
        {
          "internalType": "bool",
          "name": "",
          "type": "bool"
        }
      ],
      "stateMutability": "view",
      "type": "function"
    },
    {
      "inputs": [
        {
          "internalType": "address",
          "name": "_userAddress",
          "type": "address"
        }
      ],
      "name": "isStaked",
      "outputs": [
        {
          "internalType": "bool",
          "name": "",
          "type": "bool"
        }
      ],
      "stateMutability": "view",
      "type": "function"
    },
    {
      "inputs": [],
      "name": "owner",
      "outputs": [
        {
          "internalType": "address",
          "name": "",
          "type": "address"
        }
      ],
      "stateMutability": "view",
      "type": "function"
    },
    {
      "inputs": [],
      "name": "pause",
      "outputs": [],
      "stateMutability": "nonpayable",
      "type": "function"
    },
    {
      "inputs": [],
      "name": "paused",
      "outputs": [
        {
          "internalType": "bool",
          "name": "",
          "type": "bool"
        }
      ],
      "stateMutability": "view",
      "type": "function"
    },
    {
      "inputs": [],
      "name": "proxiableUUID",
      "outputs": [
        {
          "internalType": "bytes32",
          "name": "",
          "type": "bytes32"
        }
      ],
      "stateMutability": "view",
      "type": "function"
    },
    {
      "inputs": [],
      "name": "renounceOwnership",
      "outputs": [],
      "stateMutability": "nonpayable",
      "type": "function"
    },
    {
      "inputs": [
        {
          "internalType": "bool",
          "name": "_value",
          "type": "bool"
        }
      ],
      "name": "setIsPayReferralOnStaking",
      "outputs": [
        {
          "internalType": "bool",
          "name": "",
          "type": "bool"
        }
      ],
      "stateMutability": "nonpayable",
      "type": "function"
    },
    {
      "inputs": [
        {
          "internalType": "uint8",
          "name": "_valueInDecimals",
          "type": "uint8"
        }
      ],
      "name": "setMaxPackageLength",
      "outputs": [],
      "stateMutability": "nonpayable",
      "type": "function"
    },
    {
      "inputs": [
        {
          "internalType": "uint256",
          "name": "_valueInUSD",
          "type": "uint256"
        }
      ],
      "name": "setMinStakingValueInUSD",
      "outputs": [
        {
          "internalType": "uint256",
          "name": "",
          "type": "uint256"
        }
      ],
      "stateMutability": "nonpayable",
      "type": "function"
    },
    {
      "inputs": [
        {
          "internalType": "uint256",
          "name": "_valueInWei",
          "type": "uint256"
        }
      ],
      "name": "setMinWithdrawLimit",
      "outputs": [],
      "stateMutability": "nonpayable",
      "type": "function"
    },
    {
      "inputs": [
        {
          "internalType": "uint256",
          "name": "_valueInWei",
          "type": "uint256"
        }
      ],
      "name": "setMinWithdrawLimitMultiplier",
      "outputs": [],
      "stateMutability": "nonpayable",
      "type": "function"
    },
    {
      "inputs": [
        {
          "internalType": "uint256[]",
          "name": "_valuesInDecimals",
          "type": "uint256[]"
        },
        {
          "internalType": "uint256[]",
          "name": "_rewardRateInPer",
          "type": "uint256[]"
        },
        {
          "internalType": "uint256[]",
          "name": "_durationsInDays",
          "type": "uint256[]"
        }
      ],
      "name": "setPackage",
      "outputs": [],
      "stateMutability": "nonpayable",
      "type": "function"
    },
    {
      "inputs": [
        {
          "internalType": "uint8",
          "name": "_valueInDecimals",
          "type": "uint8"
        }
      ],
      "name": "setRewardRateDecimals",
      "outputs": [],
      "stateMutability": "nonpayable",
      "type": "function"
    },
    {
      "inputs": [
        {
          "internalType": "uint256",
          "name": "_valueInSeconds",
          "type": "uint256"
        }
      ],
      "name": "setTimeLimitRewardClaim",
      "outputs": [],
      "stateMutability": "nonpayable",
      "type": "function"
    },
    {
      "inputs": [
        {
          "internalType": "address",
          "name": "_referrerAddress",
          "type": "address"
        },
        {
          "internalType": "uint256",
          "name": "_packageID",
          "type": "uint256"
        }
      ],
      "name": "stake",
      "outputs": [],
      "stateMutability": "payable",
      "type": "function"
    },
    {
      "inputs": [
        {
          "internalType": "address",
          "name": "_userAddress",
          "type": "address"
        },
        {
          "internalType": "address",
          "name": "_referrerAddress",
          "type": "address"
        },
        {
          "internalType": "uint256",
          "name": "_valueInWei",
          "type": "uint256"
        },
        {
          "internalType": "uint256",
          "name": "_packageID",
          "type": "uint256"
        }
      ],
      "name": "stakeByAdmin",
      "outputs": [],
      "stateMutability": "nonpayable",
      "type": "function"
    },
    {
      "inputs": [
        {
          "internalType": "uint256",
          "name": "_stakingID",
          "type": "uint256"
        }
      ],
      "name": "stakeInfoMap",
      "outputs": [
        {
          "components": [
            {
              "internalType": "bool",
              "name": "isStaked",
              "type": "bool"
            },
            {
              "internalType": "address",
              "name": "owner",
              "type": "address"
            },
            {
              "internalType": "uint256",
              "name": "valueInETH",
              "type": "uint256"
            },
            {
              "internalType": "uint256",
              "name": "valueInUSD",
              "type": "uint256"
            },
            {
              "internalType": "uint256",
              "name": "rewardRate",
              "type": "uint256"
            },
            {
              "internalType": "uint256",
              "name": "startTime",
              "type": "uint256"
            },
            {
              "internalType": "uint256",
              "name": "duration",
              "type": "uint256"
            },
            {
              "internalType": "uint256",
              "name": "rewardClaimed",
              "type": "uint256"
            },
            {
              "internalType": "uint256",
              "name": "lastTimeRewardClaimed",
              "type": "uint256"
            },
            {
              "internalType": "uint256[]",
              "name": "blockNumber",
              "type": "uint256[]"
            }
          ],
          "internalType": "struct StakingUpgradeable.StakeInfo",
          "name": "",
          "type": "tuple"
        }
      ],
      "stateMutability": "view",
      "type": "function"
    },
    {
      "inputs": [
        {
          "internalType": "address",
          "name": "newOwner",
          "type": "address"
        }
      ],
      "name": "transferOwnership",
      "outputs": [],
      "stateMutability": "nonpayable",
      "type": "function"
    },
    {
      "inputs": [
        {
          "internalType": "uint256",
          "name": "_stakingID",
          "type": "uint256"
        }
      ],
      "name": "unStake",
      "outputs": [],
      "stateMutability": "nonpayable",
      "type": "function"
    },
    {
      "inputs": [],
      "name": "unpause",
      "outputs": [],
      "stateMutability": "nonpayable",
      "type": "function"
    },
    {
      "inputs": [
        {
          "internalType": "address",
          "name": "newImplementation",
          "type": "address"
        }
      ],
      "name": "upgradeTo",
      "outputs": [],
      "stateMutability": "nonpayable",
      "type": "function"
    },
    {
      "inputs": [
        {
          "internalType": "address",
          "name": "newImplementation",
          "type": "address"
        },
        {
          "internalType": "bytes",
          "name": "data",
          "type": "bytes"
        }
      ],
      "name": "upgradeToAndCall",
      "outputs": [],
      "stateMutability": "payable",
      "type": "function"
    },
    {
      "inputs": [
        {
          "internalType": "address",
          "name": "_userAddress",
          "type": "address"
        }
      ],
      "name": "userAccountMap",
      "outputs": [
        {
          "components": [
            {
              "internalType": "uint256",
              "name": "userID",
              "type": "uint256"
            },
            {
              "internalType": "uint256[]",
              "name": "stakingID",
              "type": "uint256[]"
            },
            {
              "internalType": "bool",
              "name": "isDisabled",
              "type": "bool"
            },
            {
              "internalType": "uint256[]",
              "name": "blockNumber",
              "type": "uint256[]"
            }
          ],
          "internalType": "struct StakingUpgradeable.Account",
          "name": "",
          "type": "tuple"
        }
      ],
      "stateMutability": "view",
      "type": "function"
    },
    {
      "inputs": [],
      "name": "usersList",
      "outputs": [
        {
          "internalType": "address[]",
          "name": "",
          "type": "address[]"
        }
      ],
      "stateMutability": "view",
      "type": "function"
    },
    {
      "inputs": [
        {
          "internalType": "address",
          "name": "_receiver",
          "type": "address"
        },
        {
          "internalType": "uint256",
          "name": "_value",
          "type": "uint256"
        }
      ],
      "name": "withdrawNativeFunds",
      "outputs": [
        {
          "internalType": "bool",
          "name": "",
          "type": "bool"
        }
      ],
      "stateMutability": "nonpayable",
      "type": "function"
    },
    {
      "inputs": [
        {
          "internalType": "address",
          "name": "_tokenAddress",
          "type": "address"
        },
        {
          "internalType": "address",
          "name": "_receiver",
          "type": "address"
        },
        {
          "internalType": "uint256",
          "name": "_value",
          "type": "uint256"
        }
      ],
      "name": "withdrawTokens",
      "outputs": [
        {
          "internalType": "bool",
          "name": "",
          "type": "bool"
        }
      ],
      "stateMutability": "nonpayable",
      "type": "function"
    },
    {
      "stateMutability": "payable",
      "type": "receive"
    }
  ],
  "bytecode": "0x60a06040523060805234801561001457600080fd5b50608051613b4c61004c60003960008181610b8301528181610bc301528181610df801528181610e380152610ecb0152613b4c6000f3fe6080604052600436106102815760003560e01c8063715018a61161014f578063a7566b75116100c1578063d8ba90b71161007a578063d8ba90b71461078c578063dba4358c146107ac578063deede654146107c1578063e3a51f58146107d6578063f2fde38b14610829578063fc57e69b1461084957600080fd5b8063a7566b75146106bf578063abfe35ad146106ec578063adc9772e1461070c578063ae3132e81461071f578063aeb6263d1461073f578063ba4f678e1461075f57600080fd5b806388ed4f911161011357806388ed4f91146105da5780638da5cb5b146105fa57806397eee060146106225780639c3fe28a146106425780639d3610dc14610662578063a40b58911461068257600080fd5b8063715018a61461057057806377b6af52146105855780637ce574bf1461059a5780638129fc1c146105b05780638456cb59146105c557600080fd5b806352d1902d116101f35780635e35359e116101ac5780635e35359e146104ac5780636177fd18146104cc57806368ed7f56146104ec5780636f51b20b1461050e5780636f72693b1461053b578063707fd3c61461055057600080fd5b806352d1902d146103fa57806353bdadea1461040f57806358628d571461042f5780635c05a89f1461044f5780635c975abb146104745780635d3eea911461048c57600080fd5b80633659cfe6116102455780633659cfe6146103525780633b09098f146103725780633f4ba83a14610392578063469bbc12146103a75780634d574c56146103c75780634f1ef286146103e757600080fd5b806306def8021461028d578063086f1647146102c0578063239cd4a4146102e257806326792aca14610302578063351387b21461033257600080fd5b3661028857005b600080fd5b34801561029957600080fd5b506102ad6102a83660046131eb565b610869565b6040519081526020015b60405180910390f35b3480156102cc57600080fd5b506102e06102db366004613208565b61096b565b005b3480156102ee57600080fd5b506102e06102fd366004613208565b610979565b34801561030e57600080fd5b5061032261031d366004613221565b610b19565b60405190151581526020016102b7565b34801561033e57600080fd5b506102ad61034d366004613208565b610b65565b34801561035e57600080fd5b506102e061036d3660046131eb565b610b79565b34801561037e57600080fd5b506102e061038d366004613299565b610c58565b34801561039e57600080fd5b506102e0610ce9565b3480156103b357600080fd5b506102ad6103c23660046131eb565b610cfb565b3480156103d357600080fd5b506102e06103e2366004613208565b610de0565b6102e06103f53660046132f1565b610dee565b34801561040657600080fd5b506102ad610ebe565b34801561041b57600080fd5b506102e061042a366004613299565b610f71565b34801561043b57600080fd5b506102e061044a366004613208565b610ff7565b34801561045b57600080fd5b50610464611005565b6040516102b794939291906133f0565b34801561048057600080fd5b5060335460ff16610322565b34801561049857600080fd5b506102e06104a7366004613208565b6111b9565b3480156104b857600080fd5b506103226104c736600461343b565b611352565b3480156104d857600080fd5b506103226104e73660046131eb565b6113da565b3480156104f857600080fd5b5061050161149b565b6040516102b7919061347c565b34801561051a57600080fd5b5061052e6105293660046131eb565b6115dc565b6040516102b791906134c9565b34801561054757600080fd5b5061052e61164c565b34801561055c57600080fd5b506102e061056b3660046134dc565b61172d565b34801561057c57600080fd5b506102e06118e6565b34801561059157600080fd5b506105016118f8565b3480156105a657600080fd5b50610101546102ad565b3480156105bc57600080fd5b506102e06119bf565b3480156105d157600080fd5b506102e0611b3d565b3480156105e657600080fd5b506102e06105f5366004613299565b611b4d565b34801561060657600080fd5b506065546040516001600160a01b0390911681526020016102b7565b34801561062e57600080fd5b506102e061063d366004613531565b611c0b565b34801561064e57600080fd5b506102ad61065d3660046131eb565b611c2a565b34801561066e57600080fd5b5061032261067d36600461355c565b611d16565b34801561068e57600080fd5b5061032261069d3660046131eb565b6001600160a01b03166000908152610109602052604090206002015460ff1690565b3480156106cb57600080fd5b506106df6106da366004613208565b611d38565b6040516102b79190613579565b3480156106f857600080fd5b506102ad610707366004613208565b611e77565b6102e061071a366004613221565b611e82565b34801561072b57600080fd5b506102ad61073a3660046131eb565b61202e565b34801561074b57600080fd5b506102e061075a366004613531565b6120e1565b34801561076b57600080fd5b5061077f61077a3660046131eb565b612100565b6040516102b7919061361d565b34801561079857600080fd5b506102ad6107a7366004613208565b612216565b3480156107b857600080fd5b5061050161227b565b3480156107cd57600080fd5b5060ff546102ad565b3480156107e257600080fd5b506107eb61237c565b60408051988952602089019790975295870194909452911515606086015260ff16608085015260a084015260c083015260e0820152610100016102b7565b34801561083557600080fd5b506102e06108443660046131eb565b61243d565b34801561085557600080fd5b506102e061086436600461366c565b6124b3565b60fb546040516323b9a44960e11b81526001600160a01b0383811660048301526000928392911690634773489290602401602060405180830381865afa1580156108b7573d6000803e3d6000fd5b505050506040513d601f19601f820116820180604052508101906108db9190613706565b90506109648160fc60009054906101000a90046001600160a01b03166001600160a01b0316635391c6006040518163ffffffff1660e01b8152600401602060405180830381865afa158015610934573d6000803e3d6000fd5b505050506040513d601f19601f82011682018060405250810190610958919061371f565b60ff1661010854612559565b9392505050565b61097361259d565b61010855565b600081815261010b602090815260408083203380855261010990935292206002810154919291439060ff16156109ca5760405162461bcd60e51b81526004016109c19061373c565b60405180910390fd5b825460ff161515600114610a185760405162461bcd60e51b81526020600482015260156024820152745374616b696e67206973206e6f742061637469766560581b60448201526064016109c1565b82546001600160a01b038581166101009092041614610a795760405162461bcd60e51b815260206004820152601760248201527f536f72727920796f7520617265206e6f74206f776e657200000000000000000060448201526064016109c1565b42610105548460070154610a8d91906137a2565b11610af55760405162461bcd60e51b815260206004820152603260248201527f596f7572206c6173742072657761726420636c61696d2074696d65206c696d696044820152713a1034b9903737ba1037bb32b9103cb2ba1760711b60648201526084016109c1565b6000610b00866125f7565b9050610b1085878686858761268b565b50505050505050565b6000610b2361259d565b6040516001600160a01b0384169083156108fc029084906000818181858888f19350505050158015610b59573d6000803e3d6000fd5b50600190505b92915050565b6000610b6f61259d565b5061010381905590565b6001600160a01b037f0000000000000000000000000000000000000000000000000000000000000000163003610bc15760405162461bcd60e51b81526004016109c1906137b5565b7f00000000000000000000000000000000000000000000000000000000000000006001600160a01b0316610c0a600080516020613ad0833981519152546001600160a01b031690565b6001600160a01b031614610c305760405162461bcd60e51b81526004016109c190613801565b610c3981612738565b60408051600080825260208201909252610c5591839190612740565b50565b610c6061259d565b60008080526101096020527fac682d343707aadf06c2c4c3692831d9e7ba711099ef36f9efb8bb29be8c410e82825b81811015610ce157858582818110610ca957610ca961384d565b9050602002016020810190610cbe91906131eb565b60028401805460ff19166001179055935080610cd981613863565b915050610c8f565b505050505050565b610cf161259d565b610cf96128b0565b565b6001600160a01b038116600090815261010960209081526040808320600181018054835181860281018601909452808452919385939290830182828015610d6157602002820191906000526020600020905b815481526020019060010190808311610d4d575b505083519394506000925050505b81811015610dd757610d99838281518110610d8c57610d8c61384d565b6020026020010151611d38565b5115610dc557610db4838281518110610d8c57610d8c61384d565b60600151610dc290866137a2565b94505b80610dcf81613863565b915050610d6f565b50505050919050565b610de861259d565b61010755565b6001600160a01b037f0000000000000000000000000000000000000000000000000000000000000000163003610e365760405162461bcd60e51b81526004016109c1906137b5565b7f00000000000000000000000000000000000000000000000000000000000000006001600160a01b0316610e7f600080516020613ad0833981519152546001600160a01b031690565b6001600160a01b031614610ea55760405162461bcd60e51b81526004016109c190613801565b610eae82612738565b610eba82826001612740565b5050565b6000306001600160a01b037f00000000000000000000000000000000000000000000000000000000000000001614610f5e5760405162461bcd60e51b815260206004820152603860248201527f555550535570677261646561626c653a206d757374206e6f742062652063616c60448201527f6c6564207468726f7567682064656c656761746563616c6c000000000000000060648201526084016109c1565b50600080516020613ad083398151915290565b610f7961259d565b60008080526101096020527fac682d343707aadf06c2c4c3692831d9e7ba711099ef36f9efb8bb29be8c410e82825b81811015610ce157858582818110610fc257610fc261384d565b9050602002016020810190610fd791906131eb565b60028401805460ff19169055935080610fef81613863565b915050610fa8565b610fff61259d565b61010555565b6101065460609081908190600090819060ff1667ffffffffffffffff811115611030576110306132db565b604051908082528060200260200182016040528015611059578160200160208202803683370190505b506101065490915060009060ff1667ffffffffffffffff81111561107f5761107f6132db565b6040519080825280602002602001820160405280156110a8578160200160208202803683370190505b506101065490915060009060ff1667ffffffffffffffff8111156110ce576110ce6132db565b6040519080825280602002602001820160405280156110f7578160200160208202803683370190505b50905060005b6101065460ff168110156111ab5761111481612902565b6000015184828151811061112a5761112a61384d565b60200260200101818152505061113f81612902565b602001518382815181106111555761115561384d565b60200260200101818152505061116a81612902565b604001518282815181106111805761118061384d565b60209081029190910101528461119581613863565b95505080806111a390613863565b9150506110fd565b509196909550909350909150565b3360008181526101096020908152604080832085845261010b909252909120600282015443924292909160ff16156112035760405162461bcd60e51b81526004016109c19061373c565b805460ff1661124c5760405162461bcd60e51b81526020600482015260156024820152745374616b696e67206973206e6f742061637469766560581b60448201526064016109c1565b80546001600160a01b0386811661010090920416146112bd5760405162461bcd60e51b815260206004820152602760248201527f536f72727920796f7520617265206e6f74206f776e6572206f662074686973206044820152667374616b696e6760c81b60648201526084016109c1565b82816005015482600401546112d291906137a2565b1161131f5760405162461bcd60e51b815260206004820152601b60248201527f596f75207374616b696e67206973206e6f74206f76657220796574000000000060448201526064016109c1565b600061132a876125f7565b905061133a86888486858a61268b565b506113488688848689612960565b5050505050505050565b600061135c61259d565b60405163a9059cbb60e01b81526001600160a01b0384811660048301526024820184905285169063a9059cbb906044016020604051808303816000875af11580156113ab573d6000803e3d6000fd5b505050506040513d601f19601f820116820180604052508101906113cf919061387c565b506001949350505050565b6001600160a01b03811660009081526101096020908152604080832060018101805483518186028101860190945280845291938593929083018282801561144057602002820191906000526020600020905b81548152602001906001019080831161142c575b505083519394506000925050505b8181101561148f5761146b838281518110610d8c57610d8c61384d565b511561147d5750600195945050505050565b8061148781613863565b91505061144e565b50600095945050505050565b60fd547f8684156705e0cb91ffe15d87ba1902d313d1419968887339e417608630e96334546001600160a01b03166000818152610109602052604081206060939290826103e85b8581101561151c576002830154909450849060ff161561150a578161150681613863565b9250505b8061151481613863565b9150506114e2565b5060008167ffffffffffffffff811115611538576115386132db565b604051908082528060200260200182016040528015611561578160200160208202803683370190505b506000925090506103e85b868110156115d1576002840154909550859060ff16156115bf57848284815181106115995761159961384d565b6001600160a01b0390921660209283029190910190910152826115bb81613863565b9350505b806115c981613863565b91505061156c565b509695505050505050565b6001600160a01b0381166000908152610109602090815260409182902060010180548351818402810184019094528084526060939283018282801561164057602002820191906000526020600020905b81548152602001906001019080831161162c575b50505050509050919050565b60fe54600080805261010b602052606091907f053a497187f043e06d3c7bcdaec804489d8611080d89254a48d3f6b783c2c9ec818367ffffffffffffffff811115611699576116996132db565b6040519080825280602002602001820160405280156116c2578160200160208202803683370190505b50905060006103e85b60fe54811015611722578354909450849060ff161561171057848383815181106116f7576116f761384d565b60209081029190910101528161170c81613863565b9250505b8061171a81613863565b9150506116cb565b509095945050505050565b61173561259d565b61173d6129fd565b33600061174984612a43565b9050600060fb60009054906101000a90046001600160a01b03166001600160a01b03166323442c606040518163ffffffff1660e01b8152600401602060405180830381865afa1580156117a0573d6000803e3d6000fd5b505050506040513d601f19601f820116820180604052508101906117c49190613899565b90506101035482101561182d5760405162461bcd60e51b815260206004820152602b60248201527f5374616b696e672076616c75652073686f756c64206265203e3d206d696e537460448201526a30b5b4b733ab30b63ab29760a91b60648201526084016109c1565b600084815261010c6020526040902060018101546002820154611854918a91869190612ada565b6101045460ff161561134857604051631eb714b160e31b8152600481018790526001600160a01b038581166024830152888116604483015283169063f5b8a588906064016020604051808303816000875af11580156118b7573d6000803e3d6000fd5b505050506040513d601f19601f820116820180604052508101906118db919061387c565b505050505050505050565b6118ee61259d565b610cf96000612c58565b60fd5460609060008167ffffffffffffffff811115611919576119196132db565b604051908082528060200260200182016040528015611942578160200160208202803683370190505b50905060006103e85b838110156119b657600081815261010a60205260409020546001600160a01b031683838151811061197e5761197e61384d565b6001600160a01b0390921660209283029190910190910152816119a081613863565b92505080806119ae90613863565b91505061194b565b50909392505050565b600054610100900460ff16158080156119df5750600054600160ff909116105b806119f95750303b1580156119f9575060005460ff166001145b611a5c5760405162461bcd60e51b815260206004820152602e60248201527f496e697469616c697a61626c653a20636f6e747261637420697320616c72656160448201526d191e481a5b9a5d1a585b1a5e995960921b60648201526084016109c1565b6000805460ff191660011790558015611a7f576000805461ff0019166101001790555b678ac7230489e80000610103819055610104805460ff19908116600117909155610102805461ffff19166103e89081179091556201518061010555610106805490921660031790915561010791909155600a6101085560fd81905560fe55611ae5612caa565b611aed612cd9565b611af5612d08565b8015610c55576000805461ff0019169055604051600181527f7f26b83ff96e1f2b6a682f133852f6798a09c465da95921460cefb38474024989060200160405180910390a150565b611b4561259d565b610cf9612d2f565b611b5561259d565b600080805261010960205280807f053a497187f043e06d3c7bcdaec804489d8611080d89254a48d3f6b783c2c9ec7fac682d343707aadf06c2c4c3692831d9e7ba711099ef36f9efb8bb29be8c410e43835b878110156118db57888882818110611bc157611bc161384d565b865461010090046001600160a01b0316995060200291909101359650611be89050866125f7565b9450611bf887878686898761268b565b5080611c0381613863565b915050611ba7565b611c1361259d565b610106805460ff191660ff92909216919091179055565b6001600160a01b03811660009081526101096020908152604080832060010180548251818502810185019093528083528493830182828015611c8b57602002820191906000526020600020905b815481526020019060010190808311611c77575b505050505090506000815190506000805b828160ff161015611d0d57611cbf848260ff1681518110610d8c57610d8c61384d565b511515600103611cfb57611cee848260ff1681518110611ce157611ce161384d565b60200260200101516125f7565b611cf890836137a2565b91505b80611d05816138b6565b915050611c9c565b50949350505050565b6000611d2061259d565b50610104805460ff1916911515918217905560ff1690565b611d9960405180610140016040528060001515815260200160006001600160a01b0316815260200160008152602001600081526020016000815260200160008152602001600081526020016000815260200160008152602001606081525090565b600082815261010b6020908152604091829020825161014081018452815460ff8116151582526001600160a01b036101009182900416828501526001830154828601526002830154606083015260038301546080830152600483015460a0830152600583015460c0830152600683015460e0830152600783015490820152600882018054855181860281018601909652808652919492936101208601939290830182828015611e6757602002820191906000526020600020905b815481526020019060010190808311611e53575b5050505050815250509050919050565b6000610b5f826125f7565b611e8a6129fd565b33346000611e9782612a43565b9050600060fb60009054906101000a90046001600160a01b03166001600160a01b03166323442c606040518163ffffffff1660e01b8152600401602060405180830381865afa158015611eee573d6000803e3d6000fd5b505050506040513d601f19601f82011682018060405250810190611f129190613899565b905061010354821015611f805760405162461bcd60e51b815260206004820152603060248201527f5374616b696e672076616c75652073686f756c64206265203e3d206d696e537460448201526f30b5b4b733ab30b63ab2a4b72aa9a21760811b60648201526084016109c1565b600085815261010c6020526040902060018101546002820154611fa7918791869190612ada565b6101045460ff1615610b1057604051631eb714b160e31b8152600481018590526001600160a01b038681166024830152888116604483015283169063f5b8a588906064016020604051808303816000875af115801561200a573d6000803e3d6000fd5b505050506040513d601f19601f82011682018060405250810190611348919061387c565b6001600160a01b03811660009081526101096020908152604080832060018101805483518186028101860190945280845291938593929083018282801561209457602002820191906000526020600020905b815481526020019060010190808311612080575b505083519394506000925050505b81811015610dd7576120bf838281518110610d8c57610d8c61384d565b60e001516120cd90866137a2565b9450806120d981613863565b9150506120a2565b6120e961259d565b610102805461ffff191660ff909216919091179055565b61212d60405180608001604052806000815260200160608152602001600015158152602001606081525090565b6001600160a01b03821660009081526101096020908152604091829020825160808101845281548152600182018054855181860281018601909652808652919492938581019392908301828280156121a457602002820191906000526020600020905b815481526020019060010190808311612190575b5050509183525050600282015460ff1615156020808301919091526003830180546040805182850281018501825282815294019392830182828015611e675760200282019190600052602060002090815481526020019060010190808311611e53575050505050815250509050919050565b600081815261010b6020526040812060058101546004820154429291849161223e91906137a2565b90508083101561227057828260050154836004015461225d91906137a2565b61226791906138d5565b95945050505050565b506000949350505050565b60fd54600080805261010a6020527f8684156705e0cb91ffe15d87ba1902d313d1419968887339e417608630e963345460609291906001600160a01b0316818367ffffffffffffffff8111156122d3576122d36132db565b6040519080825280602002602001820160405280156122fc578160200160208202803683370190505b50905060006103e85b858110156117225780945061231a8385612d6c565b151560011461236a5761232c846113da565b1561236a57838383815181106123445761234461384d565b6001600160a01b03909216602092830291909101909101528161236681613863565b9250505b8061237481613863565b915050612305565b60008060008060008060008060fc60009054906101000a90046001600160a01b03166001600160a01b031663e1aa60366040518163ffffffff1660e01b8152600401602060405180830381865afa1580156123db573d6000803e3d6000fd5b505050506040513d601f19601f820116820180604052508101906123ff9190613706565b61010354610105546101045461010654610102546101075461010854969f959e50939c5060ff9283169b509116985061ffff16965094509092509050565b61244561259d565b6001600160a01b0381166124aa5760405162461bcd60e51b815260206004820152602660248201527f4f776e61626c653a206e6577206f776e657220697320746865207a65726f206160448201526564647265737360d01b60648201526084016109c1565b610c5581612c58565b6124bb61259d565b610ce186868080602002602001604051908101604052809392919081815260200183836020028082843760009201919091525050604080516020808a0282810182019093528982529093508992508891829185019084908082843760009201919091525050604080516020808902828101820190935288825290935088925087918291850190849080828437600092019190915250612dd192505050565b6000808261256885600a6139cc565b61257290876139d8565b61257c91906139d8565b905061258984600a6139cc565b61259384836139fa565b61226791906139fa565b6065546001600160a01b03163314610cf95760405162461bcd60e51b815260206004820181905260248201527f4f776e61626c653a2063616c6c6572206973206e6f7420746865206f776e657260448201526064016109c1565b600081815261010b602052604081206004810154429190839061261a90846138d5565b6005830154610102546003850154600286015493945060009361ffff9092169161264491906139fa565b61264e91906139d8565b61265891906139d8565b9050826006015461266d838560050154612ee9565b61267790836139fa565b61268191906138d5565b9695505050505050565b6000828560060160008282546126a191906137a2565b90915550504260078601556008850180546001818101835560009283526020808420909201859055600387018054918201815583529082200183905561010180548592906126f09084906137a2565b9091555050604051869084906001600160a01b038a16907fd6ab86e55e7211dddcda4c7c65e9e1c75f06b5da6b05222f8cd39b93986fecad90600090a4509095945050505050565b610c5561259d565b7f4910fdfa16fed3260ed0e7147f7cc6da11a60208b5b9406d12a635614ffd91435460ff16156127785761277383612eff565b505050565b826001600160a01b03166352d1902d6040518163ffffffff1660e01b8152600401602060405180830381865afa9250505080156127d2575060408051601f3d908101601f191682019092526127cf91810190613706565b60015b6128355760405162461bcd60e51b815260206004820152602e60248201527f45524331393637557067726164653a206e657720696d706c656d656e7461746960448201526d6f6e206973206e6f74205555505360901b60648201526084016109c1565b600080516020613ad083398151915281146128a45760405162461bcd60e51b815260206004820152602960248201527f45524331393637557067726164653a20756e737570706f727465642070726f786044820152681a58589b195555525160ba1b60648201526084016109c1565b50612773838383612f9b565b6128b8612fc6565b6033805460ff191690557f5db9ee0a495bf2e6ff9c91a7834c1ba4fdd244a5e8aa4e537bd38aeae4b073aa335b6040516001600160a01b03909116815260200160405180910390a1565b61292660405180606001604052806000815260200160008152602001600081525090565b50600090815261010c6020908152604091829020825160608101845281548152600182015492810192909252600201549181019190915290565b825460ff1916835560088301805460018181018355600092835260208084209092018490556003850180549182018155835290822001829055600284015460ff805483906129af9084906138d5565b909155505060028401546040518691906001600160a01b038916907ff960dbf9e5d0682f7a298ed974e33a28b4464914b7a2bfac12ae419a9afeb28090600090a45050506002015492915050565b60335460ff1615610cf95760405162461bcd60e51b815260206004820152601060248201526f14185d5cd8589b194e881c185d5cd95960821b60448201526064016109c1565b600080670de0b6b3a764000060fc60009054906101000a90046001600160a01b03166001600160a01b031663e1aa60366040518163ffffffff1660e01b8152600401602060405180830381865afa158015612aa2573d6000803e3d6000fd5b505050506040513d601f19601f82011682018060405250810190612ac69190613706565b612ad090856139fa565b61096491906139d8565b60fe8054906000612aea83613863565b909155505060fe546001600160a01b03851660009081526101096020908152604080832084845261010b909252822081544293439392919003612b6b5760fd8054906000612b3783613863565b909155505060fd54808355600090815261010a6020526040902080546001600160a01b0319166001600160a01b038b161790555b600182810180548083018255600091825260208083209091018890556003808601805480860182559084528284200187905584546001600160a81b0319166101006001600160a01b038f168102919091178517865560048601899055600586018b9055600286018d90559085018b90556008850180549485018155835290822090920185905581548a929190612c029084906137a2565b9091555050604080518781526020810187905289916001600160a01b038c16917ff556991011e831bcfac4f406d547e5e32cdd98267efab83935230d5f8d02c446910160405180910390a3505050505050505050565b606580546001600160a01b038381166001600160a01b0319831681179093556040519116919082907f8be0079c531659141344cd1fd0a4f28419497f9722a3daafe3b4186f6b6457e090600090a35050565b600054610100900460ff16612cd15760405162461bcd60e51b81526004016109c190613a11565b610cf961300f565b600054610100900460ff16612d005760405162461bcd60e51b81526004016109c190613a11565b610cf9613042565b600054610100900460ff16610cf95760405162461bcd60e51b81526004016109c190613a11565b612d376129fd565b6033805460ff191660011790557f62e78cea01bee320cd4e420270b5ea74000d11b0c9f74754ebdbfc544b05a2586128e53390565b6000805b8351811015612dc757826001600160a01b0316848281518110612d9557612d9561384d565b60200260200101516001600160a01b031603612db5576001915050610b5f565b80612dbf81613863565b915050612d70565b5060009392505050565b82516101065460ff16811115612e295760405162461bcd60e51b815260206004820152601860248201527f457863656564696e67207061636b616765206c656e677468000000000000000060448201526064016109c1565b60005b81811015612ee257848181518110612e4657612e4661384d565b602002602001015161010c600083815260200190815260200160002060000181905550838181518110612e7b57612e7b61384d565b602002602001015161010c600083815260200190815260200160002060010181905550828181518110612eb057612eb061384d565b602090810291909101810151600083815261010c90925260409091206002015580612eda81613863565b915050612e2c565b5050505050565b6000818310612ef85781610964565b5090919050565b6001600160a01b0381163b612f6c5760405162461bcd60e51b815260206004820152602d60248201527f455243313936373a206e657720696d706c656d656e746174696f6e206973206e60448201526c1bdd08184818dbdb9d1c9858dd609a1b60648201526084016109c1565b600080516020613ad083398151915280546001600160a01b0319166001600160a01b0392909216919091179055565b612fa483613072565b600082511180612fb15750805b1561277357612fc083836130b2565b50505050565b60335460ff16610cf95760405162461bcd60e51b815260206004820152601460248201527314185d5cd8589b194e881b9bdd081c185d5cd95960621b60448201526064016109c1565b600054610100900460ff166130365760405162461bcd60e51b81526004016109c190613a11565b6033805460ff19169055565b600054610100900460ff166130695760405162461bcd60e51b81526004016109c190613a11565b610cf933612c58565b61307b81612eff565b6040516001600160a01b038216907fbc7cd75a20ee27fd9adebab32041f755214dbc6bffa90cc0225b39da2e5c2d3b90600090a250565b60606001600160a01b0383163b61311a5760405162461bcd60e51b815260206004820152602660248201527f416464726573733a2064656c65676174652063616c6c20746f206e6f6e2d636f6044820152651b9d1c9858dd60d21b60648201526084016109c1565b600080846001600160a01b0316846040516131359190613a80565b600060405180830381855af49150503d8060008114613170576040519150601f19603f3d011682016040523d82523d6000602084013e613175565b606091505b50915091506122678282604051806060016040528060278152602001613af060279139606083156131a7575081610964565b61096483838151156131bc5781518083602001fd5b8060405162461bcd60e51b81526004016109c19190613a9c565b6001600160a01b0381168114610c5557600080fd5b6000602082840312156131fd57600080fd5b8135610964816131d6565b60006020828403121561321a57600080fd5b5035919050565b6000806040838503121561323457600080fd5b823561323f816131d6565b946020939093013593505050565b60008083601f84011261325f57600080fd5b50813567ffffffffffffffff81111561327757600080fd5b6020830191508360208260051b850101111561329257600080fd5b9250929050565b600080602083850312156132ac57600080fd5b823567ffffffffffffffff8111156132c357600080fd5b6132cf8582860161324d565b90969095509350505050565b634e487b7160e01b600052604160045260246000fd5b6000806040838503121561330457600080fd5b823561330f816131d6565b9150602083013567ffffffffffffffff8082111561332c57600080fd5b818501915085601f83011261334057600080fd5b813581811115613352576133526132db565b604051601f8201601f19908116603f0116810190838211818310171561337a5761337a6132db565b8160405282815288602084870101111561339357600080fd5b8260208601602083013760006020848301015280955050505050509250929050565b600081518084526020808501945080840160005b838110156133e5578151875295820195908201906001016133c9565b509495945050505050565b60808152600061340360808301876133b5565b828103602084015261341581876133b5565b9050828103604084015261342981866133b5565b91505082606083015295945050505050565b60008060006060848603121561345057600080fd5b833561345b816131d6565b9250602084013561346b816131d6565b929592945050506040919091013590565b6020808252825182820181905260009190848201906040850190845b818110156134bd5783516001600160a01b031683529284019291840191600101613498565b50909695505050505050565b60208152600061096460208301846133b5565b600080600080608085870312156134f257600080fd5b84356134fd816131d6565b9350602085013561350d816131d6565b93969395505050506040820135916060013590565b60ff81168114610c5557600080fd5b60006020828403121561354357600080fd5b813561096481613522565b8015158114610c5557600080fd5b60006020828403121561356e57600080fd5b81356109648161354e565b6020815261358c60208201835115159052565b600060208301516135a860408401826001600160a01b03169052565b506040830151606083015260608301516080830152608083015160a083015260a083015160c083015260c083015160e083015260e08301516101008181850152808501519150506101208181850152808501519150506101408081850152506136156101608401826133b5565b949350505050565b6020815281516020820152600060208301516080604084015261364360a08401826133b5565b90506040840151151560608401526060840151601f1984830301608085015261226782826133b5565b6000806000806000806060878903121561368557600080fd5b863567ffffffffffffffff8082111561369d57600080fd5b6136a98a838b0161324d565b909850965060208901359150808211156136c257600080fd5b6136ce8a838b0161324d565b909650945060408901359150808211156136e757600080fd5b506136f489828a0161324d565b979a9699509497509295939492505050565b60006020828403121561371857600080fd5b5051919050565b60006020828403121561373157600080fd5b815161096481613522565b60208082526030908201527f596f7572206163636f756e742069732064697361626c65642e20506c6561736560408201526f1031b7b73a3930b1ba1030b236b4b71760811b606082015260800190565b634e487b7160e01b600052601160045260246000fd5b80820180821115610b5f57610b5f61378c565b6020808252602c908201527f46756e6374696f6e206d7573742062652063616c6c6564207468726f7567682060408201526b19195b1959d85d1958d85b1b60a21b606082015260800190565b6020808252602c908201527f46756e6374696f6e206d7573742062652063616c6c6564207468726f7567682060408201526b6163746976652070726f787960a01b606082015260800190565b634e487b7160e01b600052603260045260246000fd5b6000600182016138755761387561378c565b5060010190565b60006020828403121561388e57600080fd5b81516109648161354e565b6000602082840312156138ab57600080fd5b8151610964816131d6565b600060ff821660ff81036138cc576138cc61378c565b60010192915050565b81810381811115610b5f57610b5f61378c565b600181815b808511156139235781600019048211156139095761390961378c565b8085161561391657918102915b93841c93908002906138ed565b509250929050565b60008261393a57506001610b5f565b8161394757506000610b5f565b816001811461395d576002811461396757613983565b6001915050610b5f565b60ff8411156139785761397861378c565b50506001821b610b5f565b5060208310610133831016604e8410600b84101617156139a6575081810a610b5f565b6139b083836138e8565b80600019048211156139c4576139c461378c565b029392505050565b6000610964838361392b565b6000826139f557634e487b7160e01b600052601260045260246000fd5b500490565b8082028115828204841417610b5f57610b5f61378c565b6020808252602b908201527f496e697469616c697a61626c653a20636f6e7472616374206973206e6f74206960408201526a6e697469616c697a696e6760a81b606082015260800190565b60005b83811015613a77578181015183820152602001613a5f565b50506000910152565b60008251613a92818460208701613a5c565b9190910192915050565b6020815260008251806020840152613abb816040850160208701613a5c565b601f01601f1916919091016040019291505056fe360894a13ba1a3210667c828492db98dca3e2076cc3735a920a3ca505d382bbc416464726573733a206c6f772d6c6576656c2064656c65676174652063616c6c206661696c6564a2646970667358221220a45a55b28c10ca6220844b9e685edaa3b92fde18133ba3b3e432aa3a57c3d75364736f6c63430008110033",
  "linkReferences": {},
  "deployedLinkReferences": {}
}