{
  "_format": "hh-sol-artifact-1",
  "contractName": "StakingUpgradeable",
  "sourceName": "contracts/StakingUpgradeable.sol",
  "abi": [
    {
      "anonymous": false,
      "inputs": [
        {
          "indexed": false,
          "internalType": "address",
          "name": "previousAdmin",
          "type": "address"
        },
        {
          "indexed": false,
          "internalType": "address",
          "name": "newAdmin",
          "type": "address"
        }
      ],
      "name": "AdminChanged",
      "type": "event"
    },
    {
      "anonymous": false,
      "inputs": [
        {
          "indexed": true,
          "internalType": "address",
          "name": "beacon",
          "type": "address"
        }
      ],
      "name": "BeaconUpgraded",
      "type": "event"
    },
    {
      "anonymous": false,
      "inputs": [
        {
          "indexed": true,
          "internalType": "address",
          "name": "userAddress",
          "type": "address"
        },
        {
          "indexed": true,
          "internalType": "uint256",
          "name": "value",
          "type": "uint256"
        },
        {
          "indexed": true,
          "internalType": "uint256",
          "name": "stakingID",
          "type": "uint256"
        }
      ],
      "name": "IDUnStaked",
      "type": "event"
    },
    {
      "anonymous": false,
      "inputs": [
        {
          "indexed": false,
          "internalType": "uint8",
          "name": "version",
          "type": "uint8"
        }
      ],
      "name": "Initialized",
      "type": "event"
    },
    {
      "anonymous": false,
      "inputs": [
        {
          "indexed": true,
          "internalType": "address",
          "name": "previousOwner",
          "type": "address"
        },
        {
          "indexed": true,
          "internalType": "address",
          "name": "newOwner",
          "type": "address"
        }
      ],
      "name": "OwnershipTransferred",
      "type": "event"
    },
    {
      "anonymous": false,
      "inputs": [
        {
          "indexed": false,
          "internalType": "address",
          "name": "account",
          "type": "address"
        }
      ],
      "name": "Paused",
      "type": "event"
    },
    {
      "anonymous": false,
      "inputs": [
        {
          "indexed": true,
          "internalType": "address",
          "name": "userAddress",
          "type": "address"
        },
        {
          "indexed": false,
          "internalType": "uint256",
          "name": "amount",
          "type": "uint256"
        }
      ],
      "name": "PrincipalClaimed",
      "type": "event"
    },
    {
      "anonymous": false,
      "inputs": [
        {
          "indexed": true,
          "internalType": "address",
          "name": "userAddress",
          "type": "address"
        },
        {
          "indexed": true,
          "internalType": "uint256",
          "name": "valueStaked",
          "type": "uint256"
        },
        {
          "indexed": true,
          "internalType": "uint256",
          "name": "duration",
          "type": "uint256"
        },
        {
          "indexed": false,
          "internalType": "uint256",
          "name": "stakingID",
          "type": "uint256"
        }
      ],
      "name": "Stake",
      "type": "event"
    },
    {
      "anonymous": false,
      "inputs": [
        {
          "indexed": true,
          "internalType": "address",
          "name": "userAddress",
          "type": "address"
        },
        {
          "indexed": true,
          "internalType": "uint256",
          "name": "reward",
          "type": "uint256"
        }
      ],
      "name": "StakingRewardClaimed",
      "type": "event"
    },
    {
      "anonymous": false,
      "inputs": [
        {
          "indexed": true,
          "internalType": "address",
          "name": "userAddress",
          "type": "address"
        },
        {
          "indexed": true,
          "internalType": "uint256",
          "name": "value",
          "type": "uint256"
        }
      ],
      "name": "UnStaked",
      "type": "event"
    },
    {
      "anonymous": false,
      "inputs": [
        {
          "indexed": false,
          "internalType": "address",
          "name": "account",
          "type": "address"
        }
      ],
      "name": "Unpaused",
      "type": "event"
    },
    {
      "anonymous": false,
      "inputs": [
        {
          "indexed": true,
          "internalType": "address",
          "name": "implementation",
          "type": "address"
        }
      ],
      "name": "Upgraded",
      "type": "event"
    },
    {
      "inputs": [],
      "name": "activeStakersList",
      "outputs": [
        {
          "internalType": "address[]",
          "name": "",
          "type": "address[]"
        }
      ],
      "stateMutability": "view",
      "type": "function"
    },
    {
      "inputs": [],
      "name": "allStakersList",
      "outputs": [
        {
          "internalType": "address[]",
          "name": "",
          "type": "address[]"
        }
      ],
      "stateMutability": "view",
      "type": "function"
    },
    {
      "inputs": [],
      "name": "claimStakingReward",
      "outputs": [],
      "stateMutability": "nonpayable",
      "type": "function"
    },
    {
      "inputs": [
        {
          "internalType": "address[]",
          "name": "_userAddress",
          "type": "address[]"
        }
      ],
      "name": "disableAccounts",
      "outputs": [],
      "stateMutability": "nonpayable",
      "type": "function"
    },
    {
      "inputs": [
        {
          "internalType": "address[]",
          "name": "_userAddress",
          "type": "address[]"
        }
      ],
      "name": "enableAccounts",
      "outputs": [],
      "stateMutability": "nonpayable",
      "type": "function"
    },
    {
      "inputs": [],
      "name": "getActiveStakingIDs",
      "outputs": [
        {
          "internalType": "uint256[]",
          "name": "",
          "type": "uint256[]"
        }
      ],
      "stateMutability": "view",
      "type": "function"
    },
    {
      "inputs": [],
      "name": "getDisabledAccountsList",
      "outputs": [
        {
          "internalType": "address[]",
          "name": "",
          "type": "address[]"
        }
      ],
      "stateMutability": "view",
      "type": "function"
    },
    {
      "inputs": [],
      "name": "getStakingCappings",
      "outputs": [
        {
          "internalType": "uint256",
          "name": "stakingRewardRate",
          "type": "uint256"
        },
        {
          "internalType": "uint256",
          "name": "stakingDuration",
          "type": "uint256"
        },
        {
          "internalType": "uint256",
          "name": "stakingRewardClaimTimeLimit",
          "type": "uint256"
        }
      ],
      "stateMutability": "view",
      "type": "function"
    },
    {
      "inputs": [
        {
          "internalType": "address",
          "name": "_userAddress",
          "type": "address"
        }
      ],
      "name": "getStakingTimeRemaining",
      "outputs": [
        {
          "internalType": "uint256",
          "name": "time",
          "type": "uint256"
        }
      ],
      "stateMutability": "view",
      "type": "function"
    },
    {
      "inputs": [],
      "name": "getTotalStakingRewardDistributed",
      "outputs": [
        {
          "internalType": "uint256",
          "name": "_tokenRewards",
          "type": "uint256"
        }
      ],
      "stateMutability": "view",
      "type": "function"
    },
    {
      "inputs": [],
      "name": "getTotalValueStaked",
      "outputs": [
        {
          "internalType": "uint256",
          "name": "token",
          "type": "uint256"
        }
      ],
      "stateMutability": "view",
      "type": "function"
    },
    {
      "inputs": [
        {
          "internalType": "address",
          "name": "_userAddress",
          "type": "address"
        }
      ],
      "name": "getUserAllStakingsRewards",
      "outputs": [
        {
          "internalType": "uint256",
          "name": "",
          "type": "uint256"
        }
      ],
      "stateMutability": "view",
      "type": "function"
    },
    {
      "inputs": [
        {
          "internalType": "address",
          "name": "_userAddress",
          "type": "address"
        }
      ],
      "name": "getUserStakingIDs",
      "outputs": [
        {
          "internalType": "uint256[]",
          "name": "",
          "type": "uint256[]"
        }
      ],
      "stateMutability": "view",
      "type": "function"
    },
    {
      "inputs": [
        {
          "internalType": "address",
          "name": "_userAddress",
          "type": "address"
        }
      ],
      "name": "getUserTotalRewardClaimedToken",
      "outputs": [
        {
          "internalType": "uint256",
          "name": "",
          "type": "uint256"
        }
      ],
      "stateMutability": "view",
      "type": "function"
    },
    {
      "inputs": [
        {
          "internalType": "address",
          "name": "_userAddress",
          "type": "address"
        }
      ],
      "name": "getUserTotalValueStaked",
      "outputs": [
        {
          "internalType": "uint256",
          "name": "token",
          "type": "uint256"
        }
      ],
      "stateMutability": "view",
      "type": "function"
    },
    {
      "inputs": [
        {
          "internalType": "address",
          "name": "_userAddress",
          "type": "address"
        }
      ],
      "name": "getUserUnStakeValue",
      "outputs": [
        {
          "internalType": "uint256",
          "name": "",
          "type": "uint256"
        }
      ],
      "stateMutability": "view",
      "type": "function"
    },
    {
      "inputs": [],
      "name": "initialize",
      "outputs": [],
      "stateMutability": "nonpayable",
      "type": "function"
    },
    {
      "inputs": [
        {
          "internalType": "address",
          "name": "_userAddress",
          "type": "address"
        }
      ],
      "name": "isAccountDisabled",
      "outputs": [
        {
          "internalType": "bool",
          "name": "",
          "type": "bool"
        }
      ],
      "stateMutability": "view",
      "type": "function"
    },
    {
      "inputs": [
        {
          "internalType": "address",
          "name": "_userAddress",
          "type": "address"
        }
      ],
      "name": "isStaked",
      "outputs": [
        {
          "internalType": "bool",
          "name": "",
          "type": "bool"
        }
      ],
      "stateMutability": "view",
      "type": "function"
    },
    {
      "inputs": [],
      "name": "owner",
      "outputs": [
        {
          "internalType": "address",
          "name": "",
          "type": "address"
        }
      ],
      "stateMutability": "view",
      "type": "function"
    },
    {
      "inputs": [],
      "name": "pause",
      "outputs": [],
      "stateMutability": "nonpayable",
      "type": "function"
    },
    {
      "inputs": [],
      "name": "paused",
      "outputs": [
        {
          "internalType": "bool",
          "name": "",
          "type": "bool"
        }
      ],
      "stateMutability": "view",
      "type": "function"
    },
    {
      "inputs": [],
      "name": "proxiableUUID",
      "outputs": [
        {
          "internalType": "bytes32",
          "name": "",
          "type": "bytes32"
        }
      ],
      "stateMutability": "view",
      "type": "function"
    },
    {
      "inputs": [],
      "name": "renounceOwnership",
      "outputs": [],
      "stateMutability": "nonpayable",
      "type": "function"
    },
    {
      "inputs": [
        {
          "internalType": "uint256",
          "name": "_valueInDays",
          "type": "uint256"
        }
      ],
      "name": "setStakingDuration",
      "outputs": [],
      "stateMutability": "nonpayable",
      "type": "function"
    },
    {
      "inputs": [
        {
          "internalType": "uint256",
          "name": "_valueInDays",
          "type": "uint256"
        }
      ],
      "name": "setStakingRewardClaimTimeLimity",
      "outputs": [],
      "stateMutability": "nonpayable",
      "type": "function"
    },
    {
      "inputs": [
        {
          "internalType": "uint16",
          "name": "_valueInPer",
          "type": "uint16"
        }
      ],
      "name": "setStakingRewardRate",
      "outputs": [],
      "stateMutability": "nonpayable",
      "type": "function"
    },
    {
      "inputs": [
        {
          "internalType": "address",
          "name": "_userAddress",
          "type": "address"
        },
        {
          "internalType": "uint256",
          "name": "_value",
          "type": "uint256"
        }
      ],
      "name": "stakeByAdmin",
      "outputs": [],
      "stateMutability": "nonpayable",
      "type": "function"
    },
    {
      "inputs": [
        {
          "internalType": "uint256",
          "name": "_stakingID",
          "type": "uint256"
        }
      ],
      "name": "stakeInfoMap",
      "outputs": [
        {
          "components": [
            {
              "internalType": "bool",
              "name": "isStaked",
              "type": "bool"
            },
            {
              "internalType": "uint32",
              "name": "id",
              "type": "uint32"
            },
            {
              "internalType": "address",
              "name": "owner",
              "type": "address"
            },
            {
              "internalType": "uint256",
              "name": "value",
              "type": "uint256"
            },
            {
              "internalType": "uint16",
              "name": "rewardRate",
              "type": "uint16"
            },
            {
              "internalType": "uint256",
              "name": "startTime",
              "type": "uint256"
            },
            {
              "internalType": "uint256",
              "name": "duration",
              "type": "uint256"
            }
          ],
          "internalType": "struct StakingUpgradeable.StakeInfo",
          "name": "",
          "type": "tuple"
        }
      ],
      "stateMutability": "view",
      "type": "function"
    },
    {
      "inputs": [
        {
          "internalType": "address",
          "name": "newOwner",
          "type": "address"
        }
      ],
      "name": "transferOwnership",
      "outputs": [],
      "stateMutability": "nonpayable",
      "type": "function"
    },
    {
      "inputs": [],
      "name": "unStake",
      "outputs": [],
      "stateMutability": "nonpayable",
      "type": "function"
    },
    {
      "inputs": [],
      "name": "unpause",
      "outputs": [],
      "stateMutability": "nonpayable",
      "type": "function"
    },
    {
      "inputs": [
        {
          "internalType": "address",
          "name": "newImplementation",
          "type": "address"
        }
      ],
      "name": "upgradeTo",
      "outputs": [],
      "stateMutability": "nonpayable",
      "type": "function"
    },
    {
      "inputs": [
        {
          "internalType": "address",
          "name": "newImplementation",
          "type": "address"
        },
        {
          "internalType": "bytes",
          "name": "data",
          "type": "bytes"
        }
      ],
      "name": "upgradeToAndCall",
      "outputs": [],
      "stateMutability": "payable",
      "type": "function"
    },
    {
      "inputs": [
        {
          "internalType": "address",
          "name": "_userAddress",
          "type": "address"
        }
      ],
      "name": "userAccountMap",
      "outputs": [
        {
          "components": [
            {
              "internalType": "uint256[]",
              "name": "stakingIDs",
              "type": "uint256[]"
            },
            {
              "internalType": "bool",
              "name": "isDisabled",
              "type": "bool"
            },
            {
              "internalType": "uint256",
              "name": "rewardClaimedTimestamp",
              "type": "uint256"
            },
            {
              "internalType": "uint256",
              "name": "rewardClaimed",
              "type": "uint256"
            }
          ],
          "internalType": "struct StakingUpgradeable.Account",
          "name": "",
          "type": "tuple"
        }
      ],
      "stateMutability": "view",
      "type": "function"
    },
    {
      "inputs": [
        {
          "internalType": "address",
          "name": "_receiver",
          "type": "address"
        },
        {
          "internalType": "uint256",
          "name": "_value",
          "type": "uint256"
        }
      ],
      "name": "withdrawNativeFunds",
      "outputs": [
        {
          "internalType": "bool",
          "name": "",
          "type": "bool"
        }
      ],
      "stateMutability": "nonpayable",
      "type": "function"
    },
    {
      "inputs": [
        {
          "internalType": "address",
          "name": "_tokenAddress",
          "type": "address"
        },
        {
          "internalType": "address",
          "name": "_receiver",
          "type": "address"
        },
        {
          "internalType": "uint256",
          "name": "_value",
          "type": "uint256"
        }
      ],
      "name": "withdrawTokens",
      "outputs": [
        {
          "internalType": "bool",
          "name": "",
          "type": "bool"
        }
      ],
      "stateMutability": "nonpayable",
      "type": "function"
    },
    {
      "stateMutability": "payable",
      "type": "receive"
    }
  ],
  "bytecode": "0x60a06040523060805234801561001457600080fd5b50608051612d0b61004c600039600081816109c601528181610a0f01528181610b5201528181610b920152610c250152612d0b6000f3fe60806040526004361061021e5760003560e01c80636f72693b11610123578063a40b5891116100ab578063dba4358c1161006f578063dba4358c14610747578063deede6541461075c578063e3a51f5814610771578063f2fde38b146107a9578063f807438f146107c957600080fd5b8063a40b589114610577578063a7566b75146105b4578063afc695ce146106f0578063ba4f678e14610705578063c06a53881461073257600080fd5b80638129fc1c116100f25780638129fc1c146104e55780638456cb59146104fa5780638da5cb5b1461050f5780639c3fe28a146105375780639dd41ac11461055757600080fd5b80636f72693b14610491578063715018a6146104a657806373cf575a146104bb5780637ce574bf146104d057600080fd5b80635c975abb116101a65780636177fd18116101755780636177fd18146103ca57806366e5e570146103ea5780636a50eefa146104245780636a8ca691146104445780636f51b20b1461046457600080fd5b80635c975abb146103525780635cbfd0211461036a5780635e35359e1461038a5780635f869714146103aa57600080fd5b80633b09098f116101ed5780633b09098f146102d55780633f4ba83a146102f55780634f1ef2861461030a57806352d1902d1461031d57806353bdadea1461033257600080fd5b8063260cb4e91461022a57806326792aca1461025557806326ed1af0146102855780633659cfe6146102b357600080fd5b3661022557005b600080fd5b34801561023657600080fd5b5061023f6107e9565b60405161024c9190612719565b60405180910390f35b34801561026157600080fd5b5061027561027036600461276f565b610965565b604051901515815260200161024c565b34801561029157600080fd5b506102a56102a036600461279b565b6109b1565b60405190815260200161024c565b3480156102bf57600080fd5b506102d36102ce36600461279b565b6109bc565b005b3480156102e157600080fd5b506102d36102f03660046127b8565b610aa4565b34801561030157600080fd5b506102d3610b36565b6102d3610318366004612843565b610b48565b34801561032957600080fd5b506102a5610c18565b34801561033e57600080fd5b506102d361034d3660046127b8565b610ccb565b34801561035e57600080fd5b5060335460ff16610275565b34801561037657600080fd5b506102d3610385366004612907565b610d51565b34801561039657600080fd5b506102756103a5366004612920565b610d6d565b3480156103b657600080fd5b506102a56103c536600461279b565b610df7565b3480156103d657600080fd5b506102756103e536600461279b565b610ede565b3480156103f657600080fd5b506102a561040536600461279b565b6001600160a01b03166000908152610102602052604090206003015490565b34801561043057600080fd5b506102d361043f36600461276f565b610f65565b34801561045057600080fd5b506102d361045f366004612907565b611094565b34801561047057600080fd5b5061048461047f36600461279b565b6110b0565b60405161024c919061299c565b34801561049d57600080fd5b5061048461111d565b3480156104b257600080fd5b506102d36111d2565b3480156104c757600080fd5b506102d36111e4565b3480156104dc57600080fd5b5060fe546102a5565b3480156104f157600080fd5b506102d36112ef565b34801561050657600080fd5b506102d3611454565b34801561051b57600080fd5b506065546040516001600160a01b03909116815260200161024c565b34801561054357600080fd5b506102a561055236600461279b565b611464565b34801561056357600080fd5b506102a561057236600461279b565b611486565b34801561058357600080fd5b5061027561059236600461279b565b6001600160a01b03166000908152610102602052604090206001015460ff1690565b3480156105c057600080fd5b5061068a6105cf366004612907565b6040805160e081018252600080825260208201819052918101829052606081018290526080810182905260a0810182905260c08101919091525060009081526101036020908152604091829020825160e081018452815460ff811615158252610100810463ffffffff1693820193909352650100000000009092046001600160a01b03169282019290925260018201546060820152600282015461ffff166080820152600382015460a082015260049091015460c082015290565b60405161024c919081511515815260208083015163ffffffff16908201526040808301516001600160a01b0316908201526060808301519082015260808083015161ffff169082015260a0808301519082015260c0918201519181019190915260e00190565b3480156106fc57600080fd5b506102d36115a8565b34801561071157600080fd5b5061072561072036600461279b565b611750565b60405161024c91906129af565b34801561073e57600080fd5b5061023f61181b565b34801561075357600080fd5b5061023f61196f565b34801561076857600080fd5b5060fd546102a5565b34801561077d57600080fd5b5060ff5461010054610101546040805161ffff909416845260208401929092529082015260600161024c565b3480156107b557600080fd5b506102d36107c436600461279b565b611ad3565b3480156107d557600080fd5b506102d36107e43660046129f7565b611b49565b6000808052610102602090815260fc80546040805182850281018501909152818152606094937f565a22c1af7fcc038f06206699a6bd0ad8c85d23dafe9aebac3e0df68e8fb320938593909183018282801561086e57602002820191906000526020600020905b81546001600160a01b03168152600190910190602001808311610850575b5050505050905060008151905060008167ffffffffffffffff8111156108965761089661282d565b6040519080825280602002602001820160405280156108bf578160200160208202803683370190505b5090506000805b83811015610959578481815181106108e0576108e0612a1b565b602002602001015196506108f48388611b69565b15156001146109475760018087015460ff1615159003610947578683838151811061092157610921612a1b565b6001600160a01b03909216602092830291909101909101528161094381612a47565b9250505b8061095181612a47565b9150506108c6565b50909695505050505050565b600061096f611bce565b6040516001600160a01b0384169083156108fc029084906000818181858888f193505050501580156109a5573d6000803e3d6000fd5b50600190505b92915050565b60006109ab82611c28565b6001600160a01b037f0000000000000000000000000000000000000000000000000000000000000000163003610a0d5760405162461bcd60e51b8152600401610a0490612a60565b60405180910390fd5b7f00000000000000000000000000000000000000000000000000000000000000006001600160a01b0316610a56600080516020612c8f833981519152546001600160a01b031690565b6001600160a01b031614610a7c5760405162461bcd60e51b8152600401610a0490612aac565b610a8581611d2d565b60408051600080825260208201909252610aa191839190611d35565b50565b610aac611bce565b60008080526101026020527f565a22c1af7fcc038f06206699a6bd0ad8c85d23dafe9aebac3e0df68e8fb32082825b81811015610b2e57858582818110610af557610af5612a1b565b9050602002016020810190610b0a919061279b565b6001848101805460ff19169091179055935080610b2681612a47565b915050610adb565b505050505050565b610b3e611bce565b610b46611ea5565b565b6001600160a01b037f0000000000000000000000000000000000000000000000000000000000000000163003610b905760405162461bcd60e51b8152600401610a0490612a60565b7f00000000000000000000000000000000000000000000000000000000000000006001600160a01b0316610bd9600080516020612c8f833981519152546001600160a01b031690565b6001600160a01b031614610bff5760405162461bcd60e51b8152600401610a0490612aac565b610c0882611d2d565b610c1482826001611d35565b5050565b6000306001600160a01b037f00000000000000000000000000000000000000000000000000000000000000001614610cb85760405162461bcd60e51b815260206004820152603860248201527f555550535570677261646561626c653a206d757374206e6f742062652063616c60448201527f6c6564207468726f7567682064656c656761746563616c6c00000000000000006064820152608401610a04565b50600080516020612c8f83398151915290565b610cd3611bce565b60008080526101026020527f565a22c1af7fcc038f06206699a6bd0ad8c85d23dafe9aebac3e0df68e8fb32082825b81811015610b2e57858582818110610d1c57610d1c612a1b565b9050602002016020810190610d31919061279b565b60018401805460ff19169055935080610d4981612a47565b915050610d02565b610d59611bce565b610d668162015180612af8565b6101015550565b6000610d77611bce565b60405163a9059cbb60e01b81526001600160a01b0384811660048301526024820184905285169063a9059cbb906044016020604051808303816000875af1158015610dc6573d6000803e3d6000fd5b505050506040513d601f19601f82011682018060405250810190610dea9190612b0f565b50600190505b9392505050565b6001600160a01b038116600090815261010260209081526040808320805482518185028101850190935280835290928492918491830182828015610e5a57602002820191906000526020600020905b815481526020019060010190808311610e46575b505083519394506000925050505b81811015610ed55760006101036000858481518110610e8957610e89612a1b565b6020908102919091018101518252810191909152604001600020805490915060ff1615610ec2576001810154610ebf9087612b31565b95505b5080610ecd81612a47565b915050610e68565b50505050919050565b6001600160a01b03811660009081526101026020526040812080544291908390610103908290610f1090600190612b44565b81526020019081526020016000209050600081600401548260030154610f369190612b31565b835490915015801590610f4857508084105b15610f595750600195945050505050565b50600095945050505050565b610f6d611bce565b60fb5433906001600160a01b0316610f8d6065546001600160a01b031690565b6001600160a01b0316826001600160a01b0316148061101e5750806001600160a01b0316637dad19db6040518163ffffffff1660e01b8152600401602060405180830381865afa158015610fe5573d6000803e3d6000fd5b505050506040513d601f19601f820116820180604052508101906110099190612b57565b6001600160a01b0316826001600160a01b0316145b6110755760405162461bcd60e51b815260206004820152602260248201527f4f6e6c79206f776e65722063616e2063616c6c20746869732066756e6374696f604482015261371760f11b6064820152608401610a04565b60ff546101005461108e918691869161ffff1690611ef7565b50505050565b61109c611bce565b6110a98162015180612af8565b6101005550565b6001600160a01b0381166000908152610102602090815260409182902080548351818402810184019094528084526060939283018282801561111157602002820191906000526020600020905b8154815260200190600101908083116110fd575b50505050509050919050565b60fc5460609060008167ffffffffffffffff81111561113e5761113e61282d565b604051908082528060200260200182016040528015611167578160200160208202803683370190505b50905060005b828110156111cb57600081815261010360205260409020805460ff1615156001036111b85781156111b857818383815181106111ab576111ab612a1b565b6020026020010181815250505b50806111c381612a47565b91505061116d565b5092915050565b6111da611bce565b610b466000612049565b3360008181526101026020526040812060038101549091906112058361209b565b61120f9190612b44565b9050808260030160008282546112259190612b31565b9091555050426002830155600061123b846120fc565b90506001600160a01b0384166108fc6112548484612b31565b6040518115909202916000818181858888f1935050505015801561127c573d6000803e3d6000fd5b5060405182906001600160a01b038616907f6dd401e61ba732582a5eba3d54ccc3afb3609cd3ac1a166d1d36f75fc0aedcda90600090a360405181906001600160a01b038616907f79d3df6837cc49ff0e09fd3258e6e45594e0703445bb06825e9d75156eaee8f090600090a350505050565b600054610100900460ff161580801561130f5750600054600160ff909116105b806113295750303b158015611329575060005460ff166001145b61138c5760405162461bcd60e51b815260206004820152602e60248201527f496e697469616c697a61626c653a20636f6e747261637420697320616c72656160448201526d191e481a5b9a5d1a585b1a5e995960921b6064820152608401610a04565b6000805460ff1916600117905580156113af576000805461ff0019166101001790555b60fb80546001600160a01b03191673ab6f06762e382ebe0bb47715f028b2b032ad329117905560ff805461ffff1916603c1790556301e133806101005562278d00610101556113fc612247565b611404612276565b61140c6122a5565b8015610aa1576000805461ff0019169055604051600181527f7f26b83ff96e1f2b6a682f133852f6798a09c465da95921460cefb38474024989060200160405180910390a150565b61145c611bce565b610b466122cc565b6001600160a01b0381166000908152610102602052604081206109ab9061209b565b6001600160a01b0381166000908152610102602090815260408083208151815460a09481028201850190935260808101838152429486949293928492918491908401828280156114f557602002820191906000526020600020905b8154815260200190600101908083116114e1575b505050918352505060018281015460ff161515602083015260028301546040830152600390920154606090910152815180519293506000926101039284929161153e9190612b44565b8151811061154e5761154e612a1b565b60200260200101518152602001908152602001600020905060008160040154826003015461157c9190612b31565b8351519091501580159061158f57508084105b15610ed55761159e8482612b44565b9695505050505050565b3360008181526101026020526040812060038101549091906115c98361209b565b6115d39190612b44565b9050600081116116255760405162461bcd60e51b815260206004820152601c60248201527f596f752068617665206e6f207374616b696e67206f7220656e646564000000006044820152606401610a04565b6001820154429060ff16156116945760405162461bcd60e51b815260206004820152602f60248201527f596f7572206163636f756e742069732064697361626c65642e20506c6561736560448201526e1031b7b73a30b1ba1030b236b4b71760891b6064820152608401610a04565b806101015484600201546116a89190612b31565b116117075760405162461bcd60e51b815260206004820152602960248201527f596f752063616e6e6f7420636c61696d20726577617264206265666f7265207460448201526834b6b2b634b6b4ba1760b91b6064820152608401610a04565b61171384848484612309565b6040516001600160a01b0385169083156108fc029084906000818181858888f19350505050158015611749573d6000803e3d6000fd5b5050505050565b61177d60405180608001604052806060815260200160001515815260200160008152602001600081525090565b6001600160a01b038216600090815261010260209081526040918290208251815460a0938102820184019094526080810184815290939192849284918401828280156117e857602002820191906000526020600020905b8154815260200190600101908083116117d4575b5050509183525050600182015460ff16151560208201526002820154604082015260039091015460609091015292915050565b6060600060fc80548060200260200160405190810160405280929190818152602001828054801561187557602002820191906000526020600020905b81546001600160a01b03168152600190910190602001808311611857575b5050505050905060008151905060008167ffffffffffffffff81111561189d5761189d61282d565b6040519080825280602002602001820160405280156118c6578160200160208202803683370190505b5090506000805b83811015611965576118f8838683815181106118eb576118eb612a1b565b6020026020010151611b69565b15156001146119535784818151811061191357611913612a1b565b602002602001015183838151811061192d5761192d612a1b565b6001600160a01b03909216602092830291909101909101528161194f81612a47565b9250505b8061195d81612a47565b9150506118cd565b5090949350505050565b6060600060fc8054806020026020016040519081016040528092919081815260200182805480156119c957602002820191906000526020600020905b81546001600160a01b031681526001909101906020018083116119ab575b5050505050905060008151905060008167ffffffffffffffff8111156119f1576119f161282d565b604051908082528060200260200182016040528015611a1a578160200160208202803683370190505b5090506000805b8381101561196557611a3f838683815181106118eb576118eb612a1b565b1515600114611ac157611a6a858281518110611a5d57611a5d612a1b565b6020026020010151610ede565b15611ac157848181518110611a8157611a81612a1b565b6020026020010151838381518110611a9b57611a9b612a1b565b6001600160a01b039092166020928302919091019091015281611abd81612a47565b9250505b80611acb81612a47565b915050611a21565b611adb611bce565b6001600160a01b038116611b405760405162461bcd60e51b815260206004820152602660248201527f4f776e61626c653a206e6577206f776e657220697320746865207a65726f206160448201526564647265737360d01b6064820152608401610a04565b610aa181612049565b611b51611bce565b60ff805461ffff191661ffff92909216919091179055565b6000805b8351811015611bc457826001600160a01b0316848281518110611b9257611b92612a1b565b60200260200101516001600160a01b031603611bb25760019150506109ab565b80611bbc81612a47565b915050611b6d565b5060009392505050565b6065546001600160a01b03163314610b465760405162461bcd60e51b815260206004820181905260248201527f4f776e61626c653a2063616c6c6572206973206e6f7420746865206f776e65726044820152606401610a04565b6001600160a01b038116600090815261010260209081526040808320805482518185028101850190935280835290928492918491830182828015611c8b57602002820191906000526020600020905b815481526020019060010190808311611c77575b5050835193945042925060009150505b82811015611d235760006101036000868481518110611cbc57611cbc612a1b565b6020908102919091018101518252810191909152604001600020805490915060ff1615611d10578281600401548260030154611cf89190612b31565b1115611d10576001810154611d0d9088612b31565b96505b5080611d1b81612a47565b915050611c9b565b5050505050919050565b610aa1611bce565b7f4910fdfa16fed3260ed0e7147f7cc6da11a60208b5b9406d12a635614ffd91435460ff1615611d6d57611d6883612365565b505050565b826001600160a01b03166352d1902d6040518163ffffffff1660e01b8152600401602060405180830381865afa925050508015611dc7575060408051601f3d908101601f19168201909252611dc491810190612b74565b60015b611e2a5760405162461bcd60e51b815260206004820152602e60248201527f45524331393637557067726164653a206e657720696d706c656d656e7461746960448201526d6f6e206973206e6f74205555505360901b6064820152608401610a04565b600080516020612c8f8339815191528114611e995760405162461bcd60e51b815260206004820152602960248201527f45524331393637557067726164653a20756e737570706f727465642070726f786044820152681a58589b195555525160ba1b6064820152608401610a04565b50611d68838383612401565b611ead612426565b6033805460ff191690557f5db9ee0a495bf2e6ff9c91a7834c1ba4fdd244a5e8aa4e537bd38aeae4b073aa335b6040516001600160a01b03909116815260200160405180910390a1565b60fc8054600180820183557f371f36870d18f32a11fea0f144b021c8b407bb50f8e0267c711123f454b963c090910180546001600160a01b0319166001600160a01b038816908117909155915460008381526101026020908152604080832063ffffffff8516808552610103845291842081548088018355828652938520909301829055825464ffffffffff191661010090920260ff191691909117851765010000000000600160c81b0319166501000000000090960295909517815542600382018190556004820187905593810188905560028101805461ffff191661ffff891617905560fd805493959391928992611ff2908490612b31565b909155505060405163ffffffff85168152859088906001600160a01b038b16907ff556991011e831bcfac4f406d547e5e32cdd98267efab83935230d5f8d02c4469060200160405180910390a45050505050505050565b606580546001600160a01b038381166001600160a01b0319831681179093556040519116919082907f8be0079c531659141344cd1fd0a4f28419497f9722a3daafe3b4186f6b6457e090600090a35050565b8054600090815b818161ffff1610156120f5576120d7848261ffff16815481106120c7576120c7612a1b565b906000526020600020015461246f565b6120e19084612b31565b9250806120ed81612b8d565b9150506120a2565b5050919050565b6001600160a01b03811660009081526101026020908152604080832080548251818502810185019093528083529092849291849183018282801561215f57602002820191906000526020600020905b81548152602001906001019080831161214b575b5050835193945042925060009150505b82811015611d23576000610103600086848151811061219057612190612a1b565b6020908102919091018101518252810191909152604001600020805490915060ff16156122345782816004015482600301546121cc9190612b31565b11156122345760018101546121e19088612b31565b815460ff1916808355600183015460405192995061010090910463ffffffff16916001600160a01b038b16907f091b6bc9d0d839f20a931895d4778e195eef19985b93ae2f0e25b67e4812521f90600090a45b508061223f81612a47565b91505061216f565b600054610100900460ff1661226e5760405162461bcd60e51b8152600401610a0490612bae565b610b466124e8565b600054610100900460ff1661229d5760405162461bcd60e51b8152600401610a0490612bae565b610b4661251b565b600054610100900460ff16610b465760405162461bcd60e51b8152600401610a0490612bae565b6122d461254b565b6033805460ff191660011790557f62e78cea01bee320cd4e420270b5ea74000d11b0c9f74754ebdbfc544b05a258611eda3390565b8183600301600082825461231d9190612b31565b90915550506002830181905560405182906001600160a01b038616907f6dd401e61ba732582a5eba3d54ccc3afb3609cd3ac1a166d1d36f75fc0aedcda90600090a350505050565b6001600160a01b0381163b6123d25760405162461bcd60e51b815260206004820152602d60248201527f455243313936373a206e657720696d706c656d656e746174696f6e206973206e60448201526c1bdd08184818dbdb9d1c9858dd609a1b6064820152608401610a04565b600080516020612c8f83398151915280546001600160a01b0319166001600160a01b0392909216919091179055565b61240a83612591565b6000825111806124175750805b15611d685761108e83836125d1565b60335460ff16610b465760405162461bcd60e51b815260206004820152601460248201527314185d5cd8589b194e881b9bdd081c185d5cd95960621b6044820152606401610a04565b600081815261010360205260408120600381015442919083906124929084612b44565b6004830154600284015460018501549293506000926064916124ba9161ffff90911690612af8565b6124c49190612bf9565b6124ce9190612bf9565b90506124de8284600401546126c5565b61159e9082612af8565b600054610100900460ff1661250f5760405162461bcd60e51b8152600401610a0490612bae565b6033805460ff19169055565b600054610100900460ff166125425760405162461bcd60e51b8152600401610a0490612bae565b610b4633612049565b60335460ff1615610b465760405162461bcd60e51b815260206004820152601060248201526f14185d5cd8589b194e881c185d5cd95960821b6044820152606401610a04565b61259a81612365565b6040516001600160a01b038216907fbc7cd75a20ee27fd9adebab32041f755214dbc6bffa90cc0225b39da2e5c2d3b90600090a250565b60606001600160a01b0383163b6126395760405162461bcd60e51b815260206004820152602660248201527f416464726573733a2064656c65676174652063616c6c20746f206e6f6e2d636f6044820152651b9d1c9858dd60d21b6064820152608401610a04565b600080846001600160a01b0316846040516126549190612c3f565b600060405180830381855af49150503d806000811461268f576040519150601f19603f3d011682016040523d82523d6000602084013e612694565b606091505b50915091506126bc8282604051806060016040528060278152602001612caf602791396126db565b95945050505050565b60008183106126d45781610df0565b5090919050565b606083156126ea575081610df0565b610df083838151156126ff5781518083602001fd5b8060405162461bcd60e51b8152600401610a049190612c5b565b6020808252825182820181905260009190848201906040850190845b818110156109595783516001600160a01b031683529284019291840191600101612735565b6001600160a01b0381168114610aa157600080fd5b6000806040838503121561278257600080fd5b823561278d8161275a565b946020939093013593505050565b6000602082840312156127ad57600080fd5b8135610df08161275a565b600080602083850312156127cb57600080fd5b823567ffffffffffffffff808211156127e357600080fd5b818501915085601f8301126127f757600080fd5b81358181111561280657600080fd5b8660208260051b850101111561281b57600080fd5b60209290920196919550909350505050565b634e487b7160e01b600052604160045260246000fd5b6000806040838503121561285657600080fd5b82356128618161275a565b9150602083013567ffffffffffffffff8082111561287e57600080fd5b818501915085601f83011261289257600080fd5b8135818111156128a4576128a461282d565b604051601f8201601f19908116603f011681019083821181831017156128cc576128cc61282d565b816040528281528860208487010111156128e557600080fd5b8260208601602083013760006020848301015280955050505050509250929050565b60006020828403121561291957600080fd5b5035919050565b60008060006060848603121561293557600080fd5b83356129408161275a565b925060208401356129508161275a565b929592945050506040919091013590565b600081518084526020808501945080840160005b8381101561299157815187529582019590820190600101612975565b509495945050505050565b602081526000610df06020830184612961565b6020815260008251608060208401526129cb60a0840182612961565b905060208401511515604084015260408401516060840152606084015160808401528091505092915050565b600060208284031215612a0957600080fd5b813561ffff81168114610df057600080fd5b634e487b7160e01b600052603260045260246000fd5b634e487b7160e01b600052601160045260246000fd5b600060018201612a5957612a59612a31565b5060010190565b6020808252602c908201527f46756e6374696f6e206d7573742062652063616c6c6564207468726f7567682060408201526b19195b1959d85d1958d85b1b60a21b606082015260800190565b6020808252602c908201527f46756e6374696f6e206d7573742062652063616c6c6564207468726f7567682060408201526b6163746976652070726f787960a01b606082015260800190565b80820281158282048414176109ab576109ab612a31565b600060208284031215612b2157600080fd5b81518015158114610df057600080fd5b808201808211156109ab576109ab612a31565b818103818111156109ab576109ab612a31565b600060208284031215612b6957600080fd5b8151610df08161275a565b600060208284031215612b8657600080fd5b5051919050565b600061ffff808316818103612ba457612ba4612a31565b6001019392505050565b6020808252602b908201527f496e697469616c697a61626c653a20636f6e7472616374206973206e6f74206960408201526a6e697469616c697a696e6760a81b606082015260800190565b600082612c1657634e487b7160e01b600052601260045260246000fd5b500490565b60005b83811015612c36578181015183820152602001612c1e565b50506000910152565b60008251612c51818460208701612c1b565b9190910192915050565b6020815260008251806020840152612c7a816040850160208701612c1b565b601f01601f1916919091016040019291505056fe360894a13ba1a3210667c828492db98dca3e2076cc3735a920a3ca505d382bbc416464726573733a206c6f772d6c6576656c2064656c65676174652063616c6c206661696c6564a264697066735822122046063d69c1b058a4d52226fe4b4574b09e44361dd43cdf74ae87f8a4e77f4ff864736f6c63430008110033",
  "linkReferences": {},
  "deployedLinkReferences": {}
}